{
	"数字签名/TestDemo.sol": {
		"TestDmeo": {
			"abi": [
				{
					"inputs": [
						{
							"internalType": "address",
							"name": "_account",
							"type": "address"
						},
						{
							"internalType": "uint256",
							"name": "_tokenId",
							"type": "uint256"
						}
					],
					"name": "getMessageHash",
					"outputs": [
						{
							"internalType": "bytes32",
							"name": "",
							"type": "bytes32"
						}
					],
					"stateMutability": "pure",
					"type": "function"
				}
			],
			"devdoc": {
				"kind": "dev",
				"methods": {},
				"version": 1
			},
			"evm": {
				"assembly": "    /* \"\\xe6\\x95\\xb0\\xe5\\xad\\x97\\xe7\\xad\\xbe\\xe5\\x90\\x8d/TestDemo.sol\":60:540  contract TestDmeo{\r... */\n  mstore(0x40, 0x80)\n  callvalue\n  dup1\n  iszero\n  tag_1\n  jumpi\n  0x00\n  dup1\n  revert\ntag_1:\n  pop\n  dataSize(sub_0)\n  dup1\n  dataOffset(sub_0)\n  0x00\n  codecopy\n  0x00\n  return\nstop\n\nsub_0: assembly {\n        /* \"\\xe6\\x95\\xb0\\xe5\\xad\\x97\\xe7\\xad\\xbe\\xe5\\x90\\x8d/TestDemo.sol\":60:540  contract TestDmeo{\r... */\n      mstore(0x40, 0x80)\n      callvalue\n      dup1\n      iszero\n      tag_1\n      jumpi\n      0x00\n      dup1\n      revert\n    tag_1:\n      pop\n      jumpi(tag_2, lt(calldatasize, 0x04))\n      shr(0xe0, calldataload(0x00))\n      dup1\n      0x512c91df\n      eq\n      tag_3\n      jumpi\n    tag_2:\n      0x00\n      dup1\n      revert\n        /* \"\\xe6\\x95\\xb0\\xe5\\xad\\x97\\xe7\\xad\\xbe\\xe5\\x90\\x8d/TestDemo.sol\":370:531  function getMessageHash(address _account, uint256 _tokenId) public pure returns(bytes32){\r... */\n    tag_3:\n      tag_4\n      0x04\n      dup1\n      calldatasize\n      sub\n      dup2\n      add\n      swap1\n      tag_5\n      swap2\n      swap1\n      tag_6\n      jump\t// in\n    tag_5:\n      tag_7\n      jump\t// in\n    tag_4:\n      mload(0x40)\n      tag_8\n      swap2\n      swap1\n      tag_9\n      jump\t// in\n    tag_8:\n      mload(0x40)\n      dup1\n      swap2\n      sub\n      swap1\n      return\n    tag_7:\n        /* \"\\xe6\\x95\\xb0\\xe5\\xad\\x97\\xe7\\xad\\xbe\\xe5\\x90\\x8d/TestDemo.sol\":450:457  bytes32 */\n      0x00\n        /* \"\\xe6\\x95\\xb0\\xe5\\xad\\x97\\xe7\\xad\\xbe\\xe5\\x90\\x8d/TestDemo.sol\":503:511  _account */\n      dup3\n        /* \"\\xe6\\x95\\xb0\\xe5\\xad\\x97\\xe7\\xad\\xbe\\xe5\\x90\\x8d/TestDemo.sol\":513:521  _tokenId */\n      dup3\n        /* \"\\xe6\\x95\\xb0\\xe5\\xad\\x97\\xe7\\xad\\xbe\\xe5\\x90\\x8d/TestDemo.sol\":486:522  abi.encodePacked(_account, _tokenId) */\n      add(0x20, mload(0x40))\n      tag_11\n      swap3\n      swap2\n      swap1\n      tag_12\n      jump\t// in\n    tag_11:\n      mload(0x40)\n      0x20\n      dup2\n      dup4\n      sub\n      sub\n      dup2\n      mstore\n      swap1\n      0x40\n      mstore\n        /* \"\\xe6\\x95\\xb0\\xe5\\xad\\x97\\xe7\\xad\\xbe\\xe5\\x90\\x8d/TestDemo.sol\":476:523  keccak256(abi.encodePacked(_account, _tokenId)) */\n      dup1\n      mload\n      swap1\n      0x20\n      add\n      keccak256\n        /* \"\\xe6\\x95\\xb0\\xe5\\xad\\x97\\xe7\\xad\\xbe\\xe5\\x90\\x8d/TestDemo.sol\":469:523  return keccak256(abi.encodePacked(_account, _tokenId)) */\n      swap1\n      pop\n        /* \"\\xe6\\x95\\xb0\\xe5\\xad\\x97\\xe7\\xad\\xbe\\xe5\\x90\\x8d/TestDemo.sol\":370:531  function getMessageHash(address _account, uint256 _tokenId) public pure returns(bytes32){\r... */\n      swap3\n      swap2\n      pop\n      pop\n      jump\t// out\n        /* \"#utility.yul\":7:146   */\n    tag_14:\n        /* \"#utility.yul\":53:58   */\n      0x00\n        /* \"#utility.yul\":91:97   */\n      dup2\n        /* \"#utility.yul\":78:98   */\n      calldataload\n        /* \"#utility.yul\":69:98   */\n      swap1\n      pop\n        /* \"#utility.yul\":107:140   */\n      tag_16\n        /* \"#utility.yul\":134:139   */\n      dup2\n        /* \"#utility.yul\":107:140   */\n      tag_17\n      jump\t// in\n    tag_16:\n        /* \"#utility.yul\":7:146   */\n      swap3\n      swap2\n      pop\n      pop\n      jump\t// out\n        /* \"#utility.yul\":152:291   */\n    tag_18:\n        /* \"#utility.yul\":198:203   */\n      0x00\n        /* \"#utility.yul\":236:242   */\n      dup2\n        /* \"#utility.yul\":223:243   */\n      calldataload\n        /* \"#utility.yul\":214:243   */\n      swap1\n      pop\n        /* \"#utility.yul\":252:285   */\n      tag_20\n        /* \"#utility.yul\":279:284   */\n      dup2\n        /* \"#utility.yul\":252:285   */\n      tag_21\n      jump\t// in\n    tag_20:\n        /* \"#utility.yul\":152:291   */\n      swap3\n      swap2\n      pop\n      pop\n      jump\t// out\n        /* \"#utility.yul\":297:771   */\n    tag_6:\n        /* \"#utility.yul\":365:371   */\n      0x00\n        /* \"#utility.yul\":373:379   */\n      dup1\n        /* \"#utility.yul\":422:424   */\n      0x40\n        /* \"#utility.yul\":410:419   */\n      dup4\n        /* \"#utility.yul\":401:408   */\n      dup6\n        /* \"#utility.yul\":397:420   */\n      sub\n        /* \"#utility.yul\":393:425   */\n      slt\n        /* \"#utility.yul\":390:509   */\n      iszero\n      tag_23\n      jumpi\n        /* \"#utility.yul\":428:507   */\n      tag_24\n      tag_25\n      jump\t// in\n    tag_24:\n        /* \"#utility.yul\":390:509   */\n    tag_23:\n        /* \"#utility.yul\":548:549   */\n      0x00\n        /* \"#utility.yul\":573:626   */\n      tag_26\n        /* \"#utility.yul\":618:625   */\n      dup6\n        /* \"#utility.yul\":609:615   */\n      dup3\n        /* \"#utility.yul\":598:607   */\n      dup7\n        /* \"#utility.yul\":594:616   */\n      add\n        /* \"#utility.yul\":573:626   */\n      tag_14\n      jump\t// in\n    tag_26:\n        /* \"#utility.yul\":563:626   */\n      swap3\n      pop\n        /* \"#utility.yul\":519:636   */\n      pop\n        /* \"#utility.yul\":675:677   */\n      0x20\n        /* \"#utility.yul\":701:754   */\n      tag_27\n        /* \"#utility.yul\":746:753   */\n      dup6\n        /* \"#utility.yul\":737:743   */\n      dup3\n        /* \"#utility.yul\":726:735   */\n      dup7\n        /* \"#utility.yul\":722:744   */\n      add\n        /* \"#utility.yul\":701:754   */\n      tag_18\n      jump\t// in\n    tag_27:\n        /* \"#utility.yul\":691:754   */\n      swap2\n      pop\n        /* \"#utility.yul\":646:764   */\n      pop\n        /* \"#utility.yul\":297:771   */\n      swap3\n      pop\n      swap3\n      swap1\n      pop\n      jump\t// out\n        /* \"#utility.yul\":777:934   */\n    tag_28:\n        /* \"#utility.yul\":882:927   */\n      tag_30\n        /* \"#utility.yul\":902:926   */\n      tag_31\n        /* \"#utility.yul\":920:925   */\n      dup3\n        /* \"#utility.yul\":902:926   */\n      tag_32\n      jump\t// in\n    tag_31:\n        /* \"#utility.yul\":882:927   */\n      tag_33\n      jump\t// in\n    tag_30:\n        /* \"#utility.yul\":877:880   */\n      dup3\n        /* \"#utility.yul\":870:928   */\n      mstore\n        /* \"#utility.yul\":777:934   */\n      pop\n      pop\n      jump\t// out\n        /* \"#utility.yul\":940:1058   */\n    tag_34:\n        /* \"#utility.yul\":1027:1051   */\n      tag_36\n        /* \"#utility.yul\":1045:1050   */\n      dup2\n        /* \"#utility.yul\":1027:1051   */\n      tag_37\n      jump\t// in\n    tag_36:\n        /* \"#utility.yul\":1022:1025   */\n      dup3\n        /* \"#utility.yul\":1015:1052   */\n      mstore\n        /* \"#utility.yul\":940:1058   */\n      pop\n      pop\n      jump\t// out\n        /* \"#utility.yul\":1064:1221   */\n    tag_38:\n        /* \"#utility.yul\":1169:1214   */\n      tag_40\n        /* \"#utility.yul\":1189:1213   */\n      tag_41\n        /* \"#utility.yul\":1207:1212   */\n      dup3\n        /* \"#utility.yul\":1189:1213   */\n      tag_42\n      jump\t// in\n    tag_41:\n        /* \"#utility.yul\":1169:1214   */\n      tag_43\n      jump\t// in\n    tag_40:\n        /* \"#utility.yul\":1164:1167   */\n      dup3\n        /* \"#utility.yul\":1157:1215   */\n      mstore\n        /* \"#utility.yul\":1064:1221   */\n      pop\n      pop\n      jump\t// out\n        /* \"#utility.yul\":1227:1624   */\n    tag_12:\n        /* \"#utility.yul\":1367:1370   */\n      0x00\n        /* \"#utility.yul\":1382:1457   */\n      tag_45\n        /* \"#utility.yul\":1453:1456   */\n      dup3\n        /* \"#utility.yul\":1444:1450   */\n      dup6\n        /* \"#utility.yul\":1382:1457   */\n      tag_28\n      jump\t// in\n    tag_45:\n        /* \"#utility.yul\":1482:1484   */\n      0x14\n        /* \"#utility.yul\":1477:1480   */\n      dup3\n        /* \"#utility.yul\":1473:1485   */\n      add\n        /* \"#utility.yul\":1466:1485   */\n      swap2\n      pop\n        /* \"#utility.yul\":1495:1570   */\n      tag_46\n        /* \"#utility.yul\":1566:1569   */\n      dup3\n        /* \"#utility.yul\":1557:1563   */\n      dup5\n        /* \"#utility.yul\":1495:1570   */\n      tag_38\n      jump\t// in\n    tag_46:\n        /* \"#utility.yul\":1595:1597   */\n      0x20\n        /* \"#utility.yul\":1590:1593   */\n      dup3\n        /* \"#utility.yul\":1586:1598   */\n      add\n        /* \"#utility.yul\":1579:1598   */\n      swap2\n      pop\n        /* \"#utility.yul\":1615:1618   */\n      dup2\n        /* \"#utility.yul\":1608:1618   */\n      swap1\n      pop\n        /* \"#utility.yul\":1227:1624   */\n      swap4\n      swap3\n      pop\n      pop\n      pop\n      jump\t// out\n        /* \"#utility.yul\":1630:1852   */\n    tag_9:\n        /* \"#utility.yul\":1723:1727   */\n      0x00\n        /* \"#utility.yul\":1761:1763   */\n      0x20\n        /* \"#utility.yul\":1750:1759   */\n      dup3\n        /* \"#utility.yul\":1746:1764   */\n      add\n        /* \"#utility.yul\":1738:1764   */\n      swap1\n      pop\n        /* \"#utility.yul\":1774:1845   */\n      tag_48\n        /* \"#utility.yul\":1842:1843   */\n      0x00\n        /* \"#utility.yul\":1831:1840   */\n      dup4\n        /* \"#utility.yul\":1827:1844   */\n      add\n        /* \"#utility.yul\":1818:1824   */\n      dup5\n        /* \"#utility.yul\":1774:1845   */\n      tag_34\n      jump\t// in\n    tag_48:\n        /* \"#utility.yul\":1630:1852   */\n      swap3\n      swap2\n      pop\n      pop\n      jump\t// out\n        /* \"#utility.yul\":1939:2035   */\n    tag_32:\n        /* \"#utility.yul\":1976:1983   */\n      0x00\n        /* \"#utility.yul\":2005:2029   */\n      tag_52\n        /* \"#utility.yul\":2023:2028   */\n      dup3\n        /* \"#utility.yul\":2005:2029   */\n      tag_53\n      jump\t// in\n    tag_52:\n        /* \"#utility.yul\":1994:2029   */\n      swap1\n      pop\n        /* \"#utility.yul\":1939:2035   */\n      swap2\n      swap1\n      pop\n      jump\t// out\n        /* \"#utility.yul\":2041:2118   */\n    tag_37:\n        /* \"#utility.yul\":2078:2085   */\n      0x00\n        /* \"#utility.yul\":2107:2112   */\n      dup2\n        /* \"#utility.yul\":2096:2112   */\n      swap1\n      pop\n        /* \"#utility.yul\":2041:2118   */\n      swap2\n      swap1\n      pop\n      jump\t// out\n        /* \"#utility.yul\":2124:2250   */\n    tag_53:\n        /* \"#utility.yul\":2161:2168   */\n      0x00\n        /* \"#utility.yul\":2201:2243   */\n      0xffffffffffffffffffffffffffffffffffffffff\n        /* \"#utility.yul\":2194:2199   */\n      dup3\n        /* \"#utility.yul\":2190:2244   */\n      and\n        /* \"#utility.yul\":2179:2244   */\n      swap1\n      pop\n        /* \"#utility.yul\":2124:2250   */\n      swap2\n      swap1\n      pop\n      jump\t// out\n        /* \"#utility.yul\":2256:2333   */\n    tag_42:\n        /* \"#utility.yul\":2293:2300   */\n      0x00\n        /* \"#utility.yul\":2322:2327   */\n      dup2\n        /* \"#utility.yul\":2311:2327   */\n      swap1\n      pop\n        /* \"#utility.yul\":2256:2333   */\n      swap2\n      swap1\n      pop\n      jump\t// out\n        /* \"#utility.yul\":2339:2439   */\n    tag_33:\n        /* \"#utility.yul\":2378:2385   */\n      0x00\n        /* \"#utility.yul\":2407:2433   */\n      tag_58\n        /* \"#utility.yul\":2427:2432   */\n      dup3\n        /* \"#utility.yul\":2407:2433   */\n      tag_59\n      jump\t// in\n    tag_58:\n        /* \"#utility.yul\":2396:2433   */\n      swap1\n      pop\n        /* \"#utility.yul\":2339:2439   */\n      swap2\n      swap1\n      pop\n      jump\t// out\n        /* \"#utility.yul\":2445:2539   */\n    tag_59:\n        /* \"#utility.yul\":2484:2491   */\n      0x00\n        /* \"#utility.yul\":2513:2533   */\n      tag_61\n        /* \"#utility.yul\":2527:2532   */\n      dup3\n        /* \"#utility.yul\":2513:2533   */\n      tag_62\n      jump\t// in\n    tag_61:\n        /* \"#utility.yul\":2502:2533   */\n      swap1\n      pop\n        /* \"#utility.yul\":2445:2539   */\n      swap2\n      swap1\n      pop\n      jump\t// out\n        /* \"#utility.yul\":2545:2624   */\n    tag_43:\n        /* \"#utility.yul\":2584:2591   */\n      0x00\n        /* \"#utility.yul\":2613:2618   */\n      dup2\n        /* \"#utility.yul\":2602:2618   */\n      swap1\n      pop\n        /* \"#utility.yul\":2545:2624   */\n      swap2\n      swap1\n      pop\n      jump\t// out\n        /* \"#utility.yul\":2753:2870   */\n    tag_25:\n        /* \"#utility.yul\":2862:2863   */\n      0x00\n        /* \"#utility.yul\":2859:2860   */\n      dup1\n        /* \"#utility.yul\":2852:2864   */\n      revert\n        /* \"#utility.yul\":2876:2970   */\n    tag_62:\n        /* \"#utility.yul\":2909:2917   */\n      0x00\n        /* \"#utility.yul\":2957:2962   */\n      dup2\n        /* \"#utility.yul\":2953:2955   */\n      0x60\n        /* \"#utility.yul\":2949:2963   */\n      shl\n        /* \"#utility.yul\":2928:2963   */\n      swap1\n      pop\n        /* \"#utility.yul\":2876:2970   */\n      swap2\n      swap1\n      pop\n      jump\t// out\n        /* \"#utility.yul\":2976:3098   */\n    tag_17:\n        /* \"#utility.yul\":3049:3073   */\n      tag_69\n        /* \"#utility.yul\":3067:3072   */\n      dup2\n        /* \"#utility.yul\":3049:3073   */\n      tag_32\n      jump\t// in\n    tag_69:\n        /* \"#utility.yul\":3042:3047   */\n      dup2\n        /* \"#utility.yul\":3039:3074   */\n      eq\n        /* \"#utility.yul\":3029:3092   */\n      tag_70\n      jumpi\n        /* \"#utility.yul\":3088:3089   */\n      0x00\n        /* \"#utility.yul\":3085:3086   */\n      dup1\n        /* \"#utility.yul\":3078:3090   */\n      revert\n        /* \"#utility.yul\":3029:3092   */\n    tag_70:\n        /* \"#utility.yul\":2976:3098   */\n      pop\n      jump\t// out\n        /* \"#utility.yul\":3104:3226   */\n    tag_21:\n        /* \"#utility.yul\":3177:3201   */\n      tag_72\n        /* \"#utility.yul\":3195:3200   */\n      dup2\n        /* \"#utility.yul\":3177:3201   */\n      tag_42\n      jump\t// in\n    tag_72:\n        /* \"#utility.yul\":3170:3175   */\n      dup2\n        /* \"#utility.yul\":3167:3202   */\n      eq\n        /* \"#utility.yul\":3157:3220   */\n      tag_73\n      jumpi\n        /* \"#utility.yul\":3216:3217   */\n      0x00\n        /* \"#utility.yul\":3213:3214   */\n      dup1\n        /* \"#utility.yul\":3206:3218   */\n      revert\n        /* \"#utility.yul\":3157:3220   */\n    tag_73:\n        /* \"#utility.yul\":3104:3226   */\n      pop\n      jump\t// out\n\n    auxdata: 0xa26469706673582212202ec1c9f39e42766ae45832a29d31d3d2872e04ba7763317de2241158c57d3bc364736f6c63430008070033\n}\n",
				"bytecode": {
					"linkReferences": {},
					"object": "608060405234801561001057600080fd5b5061026b806100206000396000f3fe608060405234801561001057600080fd5b506004361061002b5760003560e01c8063512c91df14610030575b600080fd5b61004a600480360381019061004591906100bd565b610060565b6040516100579190610166565b60405180910390f35b6000828260405160200161007592919061013a565b60405160208183030381529060405280519060200120905092915050565b6000813590506100a281610207565b92915050565b6000813590506100b78161021e565b92915050565b600080604083850312156100d4576100d36101f5565b5b60006100e285828601610093565b92505060206100f3858286016100a8565b9150509250929050565b61010e61010982610181565b6101c7565b82525050565b61011d81610193565b82525050565b61013461012f826101bd565b6101eb565b82525050565b600061014682856100fd565b6014820191506101568284610123565b6020820191508190509392505050565b600060208201905061017b6000830184610114565b92915050565b600061018c8261019d565b9050919050565b6000819050919050565b600073ffffffffffffffffffffffffffffffffffffffff82169050919050565b6000819050919050565b60006101d2826101d9565b9050919050565b60006101e4826101fa565b9050919050565b6000819050919050565b600080fd5b60008160601b9050919050565b61021081610181565b811461021b57600080fd5b50565b610227816101bd565b811461023257600080fd5b5056fea26469706673582212202ec1c9f39e42766ae45832a29d31d3d2872e04ba7763317de2241158c57d3bc364736f6c63430008070033",
					"opcodes": "PUSH1 0x80 PUSH1 0x40 MSTORE CALLVALUE DUP1 ISZERO PUSH2 0x10 JUMPI PUSH1 0x0 DUP1 REVERT JUMPDEST POP PUSH2 0x26B DUP1 PUSH2 0x20 PUSH1 0x0 CODECOPY PUSH1 0x0 RETURN INVALID PUSH1 0x80 PUSH1 0x40 MSTORE CALLVALUE DUP1 ISZERO PUSH2 0x10 JUMPI PUSH1 0x0 DUP1 REVERT JUMPDEST POP PUSH1 0x4 CALLDATASIZE LT PUSH2 0x2B JUMPI PUSH1 0x0 CALLDATALOAD PUSH1 0xE0 SHR DUP1 PUSH4 0x512C91DF EQ PUSH2 0x30 JUMPI JUMPDEST PUSH1 0x0 DUP1 REVERT JUMPDEST PUSH2 0x4A PUSH1 0x4 DUP1 CALLDATASIZE SUB DUP2 ADD SWAP1 PUSH2 0x45 SWAP2 SWAP1 PUSH2 0xBD JUMP JUMPDEST PUSH2 0x60 JUMP JUMPDEST PUSH1 0x40 MLOAD PUSH2 0x57 SWAP2 SWAP1 PUSH2 0x166 JUMP JUMPDEST PUSH1 0x40 MLOAD DUP1 SWAP2 SUB SWAP1 RETURN JUMPDEST PUSH1 0x0 DUP3 DUP3 PUSH1 0x40 MLOAD PUSH1 0x20 ADD PUSH2 0x75 SWAP3 SWAP2 SWAP1 PUSH2 0x13A JUMP JUMPDEST PUSH1 0x40 MLOAD PUSH1 0x20 DUP2 DUP4 SUB SUB DUP2 MSTORE SWAP1 PUSH1 0x40 MSTORE DUP1 MLOAD SWAP1 PUSH1 0x20 ADD KECCAK256 SWAP1 POP SWAP3 SWAP2 POP POP JUMP JUMPDEST PUSH1 0x0 DUP2 CALLDATALOAD SWAP1 POP PUSH2 0xA2 DUP2 PUSH2 0x207 JUMP JUMPDEST SWAP3 SWAP2 POP POP JUMP JUMPDEST PUSH1 0x0 DUP2 CALLDATALOAD SWAP1 POP PUSH2 0xB7 DUP2 PUSH2 0x21E JUMP JUMPDEST SWAP3 SWAP2 POP POP JUMP JUMPDEST PUSH1 0x0 DUP1 PUSH1 0x40 DUP4 DUP6 SUB SLT ISZERO PUSH2 0xD4 JUMPI PUSH2 0xD3 PUSH2 0x1F5 JUMP JUMPDEST JUMPDEST PUSH1 0x0 PUSH2 0xE2 DUP6 DUP3 DUP7 ADD PUSH2 0x93 JUMP JUMPDEST SWAP3 POP POP PUSH1 0x20 PUSH2 0xF3 DUP6 DUP3 DUP7 ADD PUSH2 0xA8 JUMP JUMPDEST SWAP2 POP POP SWAP3 POP SWAP3 SWAP1 POP JUMP JUMPDEST PUSH2 0x10E PUSH2 0x109 DUP3 PUSH2 0x181 JUMP JUMPDEST PUSH2 0x1C7 JUMP JUMPDEST DUP3 MSTORE POP POP JUMP JUMPDEST PUSH2 0x11D DUP2 PUSH2 0x193 JUMP JUMPDEST DUP3 MSTORE POP POP JUMP JUMPDEST PUSH2 0x134 PUSH2 0x12F DUP3 PUSH2 0x1BD JUMP JUMPDEST PUSH2 0x1EB JUMP JUMPDEST DUP3 MSTORE POP POP JUMP JUMPDEST PUSH1 0x0 PUSH2 0x146 DUP3 DUP6 PUSH2 0xFD JUMP JUMPDEST PUSH1 0x14 DUP3 ADD SWAP2 POP PUSH2 0x156 DUP3 DUP5 PUSH2 0x123 JUMP JUMPDEST PUSH1 0x20 DUP3 ADD SWAP2 POP DUP2 SWAP1 POP SWAP4 SWAP3 POP POP POP JUMP JUMPDEST PUSH1 0x0 PUSH1 0x20 DUP3 ADD SWAP1 POP PUSH2 0x17B PUSH1 0x0 DUP4 ADD DUP5 PUSH2 0x114 JUMP JUMPDEST SWAP3 SWAP2 POP POP JUMP JUMPDEST PUSH1 0x0 PUSH2 0x18C DUP3 PUSH2 0x19D JUMP JUMPDEST SWAP1 POP SWAP2 SWAP1 POP JUMP JUMPDEST PUSH1 0x0 DUP2 SWAP1 POP SWAP2 SWAP1 POP JUMP JUMPDEST PUSH1 0x0 PUSH20 0xFFFFFFFFFFFFFFFFFFFFFFFFFFFFFFFFFFFFFFFF DUP3 AND SWAP1 POP SWAP2 SWAP1 POP JUMP JUMPDEST PUSH1 0x0 DUP2 SWAP1 POP SWAP2 SWAP1 POP JUMP JUMPDEST PUSH1 0x0 PUSH2 0x1D2 DUP3 PUSH2 0x1D9 JUMP JUMPDEST SWAP1 POP SWAP2 SWAP1 POP JUMP JUMPDEST PUSH1 0x0 PUSH2 0x1E4 DUP3 PUSH2 0x1FA JUMP JUMPDEST SWAP1 POP SWAP2 SWAP1 POP JUMP JUMPDEST PUSH1 0x0 DUP2 SWAP1 POP SWAP2 SWAP1 POP JUMP JUMPDEST PUSH1 0x0 DUP1 REVERT JUMPDEST PUSH1 0x0 DUP2 PUSH1 0x60 SHL SWAP1 POP SWAP2 SWAP1 POP JUMP JUMPDEST PUSH2 0x210 DUP2 PUSH2 0x181 JUMP JUMPDEST DUP2 EQ PUSH2 0x21B JUMPI PUSH1 0x0 DUP1 REVERT JUMPDEST POP JUMP JUMPDEST PUSH2 0x227 DUP2 PUSH2 0x1BD JUMP JUMPDEST DUP2 EQ PUSH2 0x232 JUMPI PUSH1 0x0 DUP1 REVERT JUMPDEST POP JUMP INVALID LOG2 PUSH5 0x6970667358 0x22 SLT KECCAK256 0x2E 0xC1 0xC9 RETURN SWAP15 TIMESTAMP PUSH23 0x6AE45832A29D31D3D2872E04BA7763317DE2241158C57D EXTCODESIZE 0xC3 PUSH5 0x736F6C6343 STOP ADDMOD SMOD STOP CALLER "
				},
				"gasEstimates": {
					"creation": {
						"codeDepositCost": "123800",
						"executionCost": "171",
						"totalCost": "123971"
					},
					"external": {
						"getMessageHash(address,uint256)": "infinite"
					}
				},
				"methodIdentifiers": {
					"getMessageHash(address,uint256)": "512c91df"
				}
			},
			"storageLayout": {
				"storage": [],
				"types": null
			},
			"userdoc": {
				"kind": "user",
				"methods": {},
				"version": 1
			}
		}
	}
}