{
	"数字签名/TestDemo.sol": {
		"TestDmeo": {
			"abi": [
				{
					"inputs": [
						{
							"internalType": "address",
							"name": "_account",
							"type": "address"
						},
						{
							"internalType": "uint256",
							"name": "_tokenId",
							"type": "uint256"
						}
					],
					"name": "getMessageHash",
					"outputs": [
						{
							"internalType": "bytes32",
							"name": "",
							"type": "bytes32"
						}
					],
					"stateMutability": "pure",
					"type": "function"
				},
				{
					"inputs": [
						{
							"internalType": "bytes32",
							"name": "_msgHash",
							"type": "bytes32"
						},
						{
							"internalType": "bytes",
							"name": "_signature",
							"type": "bytes"
						}
					],
					"name": "recoverSigner",
					"outputs": [
						{
							"internalType": "address",
							"name": "",
							"type": "address"
						}
					],
					"stateMutability": "pure",
					"type": "function"
				},
				{
					"inputs": [
						{
							"internalType": "bytes32",
							"name": "hash",
							"type": "bytes32"
						}
					],
					"name": "toEthSignedMessageHash",
					"outputs": [
						{
							"internalType": "bytes32",
							"name": "",
							"type": "bytes32"
						}
					],
					"stateMutability": "pure",
					"type": "function"
				}
			],
			"devdoc": {
				"kind": "dev",
				"methods": {
					"toEthSignedMessageHash(bytes32)": {
						"details": "返回 以太坊签名消息 `hash`：消息 遵从以太坊签名标准：https://eth.wiki/json-rpc/API#eth_sign[`eth_sign`] 以及`EIP191`:https://eips.ethereum.org/EIPS/eip-191` 添加\"\\x19Ethereum Signed Message:\\n32\"字段，防止签名的是可执行交易。"
					}
				},
				"version": 1
			},
			"evm": {
				"assembly": "    /* \"\\xe6\\x95\\xb0\\xe5\\xad\\x97\\xe7\\xad\\xbe\\xe5\\x90\\x8d/TestDemo.sol\":60:2649  contract TestDmeo{\r... */\n  mstore(0x40, 0x80)\n  callvalue\n  dup1\n  iszero\n  tag_1\n  jumpi\n  0x00\n  dup1\n  revert\ntag_1:\n  pop\n  dataSize(sub_0)\n  dup1\n  dataOffset(sub_0)\n  0x00\n  codecopy\n  0x00\n  return\nstop\n\nsub_0: assembly {\n        /* \"\\xe6\\x95\\xb0\\xe5\\xad\\x97\\xe7\\xad\\xbe\\xe5\\x90\\x8d/TestDemo.sol\":60:2649  contract TestDmeo{\r... */\n      mstore(0x40, 0x80)\n      callvalue\n      dup1\n      iszero\n      tag_1\n      jumpi\n      0x00\n      dup1\n      revert\n    tag_1:\n      pop\n      jumpi(tag_2, lt(calldatasize, 0x04))\n      shr(0xe0, calldataload(0x00))\n      dup1\n      0x512c91df\n      eq\n      tag_3\n      jumpi\n      dup1\n      0x918a15cf\n      eq\n      tag_4\n      jumpi\n      dup1\n      0x97aba7f9\n      eq\n      tag_5\n      jumpi\n    tag_2:\n      0x00\n      dup1\n      revert\n        /* \"\\xe6\\x95\\xb0\\xe5\\xad\\x97\\xe7\\xad\\xbe\\xe5\\x90\\x8d/TestDemo.sol\":370:531  function getMessageHash(address _account, uint256 _tokenId) public pure returns(bytes32){\r... */\n    tag_3:\n      tag_6\n      0x04\n      dup1\n      calldatasize\n      sub\n      dup2\n      add\n      swap1\n      tag_7\n      swap2\n      swap1\n      tag_8\n      jump\t// in\n    tag_7:\n      tag_9\n      jump\t// in\n    tag_6:\n      mload(0x40)\n      tag_10\n      swap2\n      swap1\n      tag_11\n      jump\t// in\n    tag_10:\n      mload(0x40)\n      dup1\n      swap2\n      sub\n      swap1\n      return\n        /* \"\\xe6\\x95\\xb0\\xe5\\xad\\x97\\xe7\\xad\\xbe\\xe5\\x90\\x8d/TestDemo.sol\":873:1077  function toEthSignedMessageHash(bytes32 hash) public pure returns (bytes32) {\r... */\n    tag_4:\n      tag_12\n      0x04\n      dup1\n      calldatasize\n      sub\n      dup2\n      add\n      swap1\n      tag_13\n      swap2\n      swap1\n      tag_14\n      jump\t// in\n    tag_13:\n      tag_15\n      jump\t// in\n    tag_12:\n      mload(0x40)\n      tag_16\n      swap2\n      swap1\n      tag_11\n      jump\t// in\n    tag_16:\n      mload(0x40)\n      dup1\n      swap2\n      sub\n      swap1\n      return\n        /* \"\\xe6\\x95\\xb0\\xe5\\xad\\x97\\xe7\\xad\\xbe\\xe5\\x90\\x8d/TestDemo.sol\":1154:2259  function recoverSigner(bytes32 _msgHash, bytes memory _signature) public pure returns (address){\r... */\n    tag_5:\n      tag_17\n      0x04\n      dup1\n      calldatasize\n      sub\n      dup2\n      add\n      swap1\n      tag_18\n      swap2\n      swap1\n      tag_19\n      jump\t// in\n    tag_18:\n      tag_20\n      jump\t// in\n    tag_17:\n      mload(0x40)\n      tag_21\n      swap2\n      swap1\n      tag_22\n      jump\t// in\n    tag_21:\n      mload(0x40)\n      dup1\n      swap2\n      sub\n      swap1\n      return\n        /* \"\\xe6\\x95\\xb0\\xe5\\xad\\x97\\xe7\\xad\\xbe\\xe5\\x90\\x8d/TestDemo.sol\":370:531  function getMessageHash(address _account, uint256 _tokenId) public pure returns(bytes32){\r... */\n    tag_9:\n        /* \"\\xe6\\x95\\xb0\\xe5\\xad\\x97\\xe7\\xad\\xbe\\xe5\\x90\\x8d/TestDemo.sol\":450:457  bytes32 */\n      0x00\n        /* \"\\xe6\\x95\\xb0\\xe5\\xad\\x97\\xe7\\xad\\xbe\\xe5\\x90\\x8d/TestDemo.sol\":503:511  _account */\n      dup3\n        /* \"\\xe6\\x95\\xb0\\xe5\\xad\\x97\\xe7\\xad\\xbe\\xe5\\x90\\x8d/TestDemo.sol\":513:521  _tokenId */\n      dup3\n        /* \"\\xe6\\x95\\xb0\\xe5\\xad\\x97\\xe7\\xad\\xbe\\xe5\\x90\\x8d/TestDemo.sol\":486:522  abi.encodePacked(_account, _tokenId) */\n      add(0x20, mload(0x40))\n      tag_24\n      swap3\n      swap2\n      swap1\n      tag_25\n      jump\t// in\n    tag_24:\n      mload(0x40)\n      0x20\n      dup2\n      dup4\n      sub\n      sub\n      dup2\n      mstore\n      swap1\n      0x40\n      mstore\n        /* \"\\xe6\\x95\\xb0\\xe5\\xad\\x97\\xe7\\xad\\xbe\\xe5\\x90\\x8d/TestDemo.sol\":476:523  keccak256(abi.encodePacked(_account, _tokenId)) */\n      dup1\n      mload\n      swap1\n      0x20\n      add\n      keccak256\n        /* \"\\xe6\\x95\\xb0\\xe5\\xad\\x97\\xe7\\xad\\xbe\\xe5\\x90\\x8d/TestDemo.sol\":469:523  return keccak256(abi.encodePacked(_account, _tokenId)) */\n      swap1\n      pop\n        /* \"\\xe6\\x95\\xb0\\xe5\\xad\\x97\\xe7\\xad\\xbe\\xe5\\x90\\x8d/TestDemo.sol\":370:531  function getMessageHash(address _account, uint256 _tokenId) public pure returns(bytes32){\r... */\n      swap3\n      swap2\n      pop\n      pop\n      jump\t// out\n        /* \"\\xe6\\x95\\xb0\\xe5\\xad\\x97\\xe7\\xad\\xbe\\xe5\\x90\\x8d/TestDemo.sol\":873:1077  function toEthSignedMessageHash(bytes32 hash) public pure returns (bytes32) {\r... */\n    tag_15:\n        /* \"\\xe6\\x95\\xb0\\xe5\\xad\\x97\\xe7\\xad\\xbe\\xe5\\x90\\x8d/TestDemo.sol\":940:947  bytes32 */\n      0x00\n        /* \"\\xe6\\x95\\xb0\\xe5\\xad\\x97\\xe7\\xad\\xbe\\xe5\\x90\\x8d/TestDemo.sol\":1063:1067  hash */\n      dup2\n        /* \"\\xe6\\x95\\xb0\\xe5\\xad\\x97\\xe7\\xad\\xbe\\xe5\\x90\\x8d/TestDemo.sol\":1010:1068  abi.encodePacked(\"\\x19Ethereum Signed Message:\\n32\", hash) */\n      add(0x20, mload(0x40))\n      tag_27\n      swap2\n      swap1\n      tag_28\n      jump\t// in\n    tag_27:\n      mload(0x40)\n      0x20\n      dup2\n      dup4\n      sub\n      sub\n      dup2\n      mstore\n      swap1\n      0x40\n      mstore\n        /* \"\\xe6\\x95\\xb0\\xe5\\xad\\x97\\xe7\\xad\\xbe\\xe5\\x90\\x8d/TestDemo.sol\":1000:1069  keccak256(abi.encodePacked(\"\\x19Ethereum Signed Message:\\n32\", hash)) */\n      dup1\n      mload\n      swap1\n      0x20\n      add\n      keccak256\n        /* \"\\xe6\\x95\\xb0\\xe5\\xad\\x97\\xe7\\xad\\xbe\\xe5\\x90\\x8d/TestDemo.sol\":993:1069  return keccak256(abi.encodePacked(\"\\x19Ethereum Signed Message:\\n32\", hash)) */\n      swap1\n      pop\n        /* \"\\xe6\\x95\\xb0\\xe5\\xad\\x97\\xe7\\xad\\xbe\\xe5\\x90\\x8d/TestDemo.sol\":873:1077  function toEthSignedMessageHash(bytes32 hash) public pure returns (bytes32) {\r... */\n      swap2\n      swap1\n      pop\n      jump\t// out\n        /* \"\\xe6\\x95\\xb0\\xe5\\xad\\x97\\xe7\\xad\\xbe\\xe5\\x90\\x8d/TestDemo.sol\":1154:2259  function recoverSigner(bytes32 _msgHash, bytes memory _signature) public pure returns (address){\r... */\n    tag_20:\n        /* \"\\xe6\\x95\\xb0\\xe5\\xad\\x97\\xe7\\xad\\xbe\\xe5\\x90\\x8d/TestDemo.sol\":1241:1248  address */\n      0x00\n        /* \"\\xe6\\x95\\xb0\\xe5\\xad\\x97\\xe7\\xad\\xbe\\xe5\\x90\\x8d/TestDemo.sol\":1354:1356  65 */\n      0x41\n        /* \"\\xe6\\x95\\xb0\\xe5\\xad\\x97\\xe7\\xad\\xbe\\xe5\\x90\\x8d/TestDemo.sol\":1333:1343  _signature */\n      dup3\n        /* \"\\xe6\\x95\\xb0\\xe5\\xad\\x97\\xe7\\xad\\xbe\\xe5\\x90\\x8d/TestDemo.sol\":1333:1350  _signature.length */\n      mload\n        /* \"\\xe6\\x95\\xb0\\xe5\\xad\\x97\\xe7\\xad\\xbe\\xe5\\x90\\x8d/TestDemo.sol\":1333:1356  _signature.length == 65 */\n      eq\n        /* \"\\xe6\\x95\\xb0\\xe5\\xad\\x97\\xe7\\xad\\xbe\\xe5\\x90\\x8d/TestDemo.sol\":1325:1385  require(_signature.length == 65, \"invalid signature length\") */\n      tag_30\n      jumpi\n      mload(0x40)\n      0x08c379a000000000000000000000000000000000000000000000000000000000\n      dup2\n      mstore\n      0x04\n      add\n      tag_31\n      swap1\n      tag_32\n      jump\t// in\n    tag_31:\n      mload(0x40)\n      dup1\n      swap2\n      sub\n      swap1\n      revert\n    tag_30:\n        /* \"\\xe6\\x95\\xb0\\xe5\\xad\\x97\\xe7\\xad\\xbe\\xe5\\x90\\x8d/TestDemo.sol\":1396:1405  bytes32 r */\n      0x00\n        /* \"\\xe6\\x95\\xb0\\xe5\\xad\\x97\\xe7\\xad\\xbe\\xe5\\x90\\x8d/TestDemo.sol\":1416:1425  bytes32 s */\n      dup1\n        /* \"\\xe6\\x95\\xb0\\xe5\\xad\\x97\\xe7\\xad\\xbe\\xe5\\x90\\x8d/TestDemo.sol\":1436:1443  uint8 v */\n      0x00\n        /* \"\\xe6\\x95\\xb0\\xe5\\xad\\x97\\xe7\\xad\\xbe\\xe5\\x90\\x8d/TestDemo.sol\":1917:1921  0x20 */\n      0x20\n        /* \"\\xe6\\x95\\xb0\\xe5\\xad\\x97\\xe7\\xad\\xbe\\xe5\\x90\\x8d/TestDemo.sol\":1905:1915  _signature */\n      dup6\n        /* \"\\xe6\\x95\\xb0\\xe5\\xad\\x97\\xe7\\xad\\xbe\\xe5\\x90\\x8d/TestDemo.sol\":1901:1922  add(_signature, 0x20) */\n      add\n        /* \"\\xe6\\x95\\xb0\\xe5\\xad\\x97\\xe7\\xad\\xbe\\xe5\\x90\\x8d/TestDemo.sol\":1895:1923  mload(add(_signature, 0x20)) */\n      mload\n        /* \"\\xe6\\x95\\xb0\\xe5\\xad\\x97\\xe7\\xad\\xbe\\xe5\\x90\\x8d/TestDemo.sol\":1890:1923  r := mload(add(_signature, 0x20)) */\n      swap3\n      pop\n        /* \"\\xe6\\x95\\xb0\\xe5\\xad\\x97\\xe7\\xad\\xbe\\xe5\\x90\\x8d/TestDemo.sol\":2004:2008  0x40 */\n      0x40\n        /* \"\\xe6\\x95\\xb0\\xe5\\xad\\x97\\xe7\\xad\\xbe\\xe5\\x90\\x8d/TestDemo.sol\":1992:2002  _signature */\n      dup6\n        /* \"\\xe6\\x95\\xb0\\xe5\\xad\\x97\\xe7\\xad\\xbe\\xe5\\x90\\x8d/TestDemo.sol\":1988:2009  add(_signature, 0x40) */\n      add\n        /* \"\\xe6\\x95\\xb0\\xe5\\xad\\x97\\xe7\\xad\\xbe\\xe5\\x90\\x8d/TestDemo.sol\":1982:2010  mload(add(_signature, 0x40)) */\n      mload\n        /* \"\\xe6\\x95\\xb0\\xe5\\xad\\x97\\xe7\\xad\\xbe\\xe5\\x90\\x8d/TestDemo.sol\":1977:2010  s := mload(add(_signature, 0x40)) */\n      swap2\n      pop\n        /* \"\\xe6\\x95\\xb0\\xe5\\xad\\x97\\xe7\\xad\\xbe\\xe5\\x90\\x8d/TestDemo.sol\":2098:2102  0x60 */\n      0x60\n        /* \"\\xe6\\x95\\xb0\\xe5\\xad\\x97\\xe7\\xad\\xbe\\xe5\\x90\\x8d/TestDemo.sol\":2086:2096  _signature */\n      dup6\n        /* \"\\xe6\\x95\\xb0\\xe5\\xad\\x97\\xe7\\xad\\xbe\\xe5\\x90\\x8d/TestDemo.sol\":2082:2103  add(_signature, 0x60) */\n      add\n        /* \"\\xe6\\x95\\xb0\\xe5\\xad\\x97\\xe7\\xad\\xbe\\xe5\\x90\\x8d/TestDemo.sol\":2076:2104  mload(add(_signature, 0x60)) */\n      mload\n        /* \"\\xe6\\x95\\xb0\\xe5\\xad\\x97\\xe7\\xad\\xbe\\xe5\\x90\\x8d/TestDemo.sol\":2073:2074  0 */\n      0x00\n        /* \"\\xe6\\x95\\xb0\\xe5\\xad\\x97\\xe7\\xad\\xbe\\xe5\\x90\\x8d/TestDemo.sol\":2068:2105  byte(0, mload(add(_signature, 0x60))) */\n      byte\n        /* \"\\xe6\\x95\\xb0\\xe5\\xad\\x97\\xe7\\xad\\xbe\\xe5\\x90\\x8d/TestDemo.sol\":2063:2105  v := byte(0, mload(add(_signature, 0x60))) */\n      swap1\n      pop\n        /* \"\\xe6\\x95\\xb0\\xe5\\xad\\x97\\xe7\\xad\\xbe\\xe5\\x90\\x8d/TestDemo.sol\":2223:2251  ecrecover(_msgHash, v, r, s) */\n      0x01\n        /* \"\\xe6\\x95\\xb0\\xe5\\xad\\x97\\xe7\\xad\\xbe\\xe5\\x90\\x8d/TestDemo.sol\":2233:2241  _msgHash */\n      dup7\n        /* \"\\xe6\\x95\\xb0\\xe5\\xad\\x97\\xe7\\xad\\xbe\\xe5\\x90\\x8d/TestDemo.sol\":2243:2244  v */\n      dup3\n        /* \"\\xe6\\x95\\xb0\\xe5\\xad\\x97\\xe7\\xad\\xbe\\xe5\\x90\\x8d/TestDemo.sol\":2246:2247  r */\n      dup6\n        /* \"\\xe6\\x95\\xb0\\xe5\\xad\\x97\\xe7\\xad\\xbe\\xe5\\x90\\x8d/TestDemo.sol\":2249:2250  s */\n      dup6\n        /* \"\\xe6\\x95\\xb0\\xe5\\xad\\x97\\xe7\\xad\\xbe\\xe5\\x90\\x8d/TestDemo.sol\":2223:2251  ecrecover(_msgHash, v, r, s) */\n      mload(0x40)\n      0x00\n      dup2\n      mstore\n      0x20\n      add\n      0x40\n      mstore\n      mload(0x40)\n      tag_33\n      swap5\n      swap4\n      swap3\n      swap2\n      swap1\n      tag_34\n      jump\t// in\n    tag_33:\n      0x20\n      mload(0x40)\n      0x20\n      dup2\n      sub\n      swap1\n      dup1\n      dup5\n      sub\n      swap1\n      dup6\n      gas\n      staticcall\n      iszero\n      dup1\n      iszero\n      tag_36\n      jumpi\n      returndatasize\n      0x00\n      dup1\n      returndatacopy\n      revert(0x00, returndatasize)\n    tag_36:\n      pop\n      pop\n      pop\n      mload(sub(mload(0x40), 0x20))\n        /* \"\\xe6\\x95\\xb0\\xe5\\xad\\x97\\xe7\\xad\\xbe\\xe5\\x90\\x8d/TestDemo.sol\":2216:2251  return ecrecover(_msgHash, v, r, s) */\n      swap4\n      pop\n      pop\n      pop\n      pop\n        /* \"\\xe6\\x95\\xb0\\xe5\\xad\\x97\\xe7\\xad\\xbe\\xe5\\x90\\x8d/TestDemo.sol\":1154:2259  function recoverSigner(bytes32 _msgHash, bytes memory _signature) public pure returns (address){\r... */\n      swap3\n      swap2\n      pop\n      pop\n      jump\t// out\n        /* \"#utility.yul\":7:417   */\n    tag_38:\n        /* \"#utility.yul\":84:89   */\n      0x00\n        /* \"#utility.yul\":109:174   */\n      tag_40\n        /* \"#utility.yul\":125:173   */\n      tag_41\n        /* \"#utility.yul\":166:172   */\n      dup5\n        /* \"#utility.yul\":125:173   */\n      tag_42\n      jump\t// in\n    tag_41:\n        /* \"#utility.yul\":109:174   */\n      tag_43\n      jump\t// in\n    tag_40:\n        /* \"#utility.yul\":100:174   */\n      swap1\n      pop\n        /* \"#utility.yul\":197:203   */\n      dup3\n        /* \"#utility.yul\":190:195   */\n      dup2\n        /* \"#utility.yul\":183:204   */\n      mstore\n        /* \"#utility.yul\":235:239   */\n      0x20\n        /* \"#utility.yul\":228:233   */\n      dup2\n        /* \"#utility.yul\":224:240   */\n      add\n        /* \"#utility.yul\":273:276   */\n      dup5\n        /* \"#utility.yul\":264:270   */\n      dup5\n        /* \"#utility.yul\":259:262   */\n      dup5\n        /* \"#utility.yul\":255:271   */\n      add\n        /* \"#utility.yul\":252:277   */\n      gt\n        /* \"#utility.yul\":249:361   */\n      iszero\n      tag_44\n      jumpi\n        /* \"#utility.yul\":280:359   */\n      tag_45\n      tag_46\n      jump\t// in\n    tag_45:\n        /* \"#utility.yul\":249:361   */\n    tag_44:\n        /* \"#utility.yul\":370:411   */\n      tag_47\n        /* \"#utility.yul\":404:410   */\n      dup5\n        /* \"#utility.yul\":399:402   */\n      dup3\n        /* \"#utility.yul\":394:397   */\n      dup6\n        /* \"#utility.yul\":370:411   */\n      tag_48\n      jump\t// in\n    tag_47:\n        /* \"#utility.yul\":90:417   */\n      pop\n        /* \"#utility.yul\":7:417   */\n      swap4\n      swap3\n      pop\n      pop\n      pop\n      jump\t// out\n        /* \"#utility.yul\":423:562   */\n    tag_49:\n        /* \"#utility.yul\":469:474   */\n      0x00\n        /* \"#utility.yul\":507:513   */\n      dup2\n        /* \"#utility.yul\":494:514   */\n      calldataload\n        /* \"#utility.yul\":485:514   */\n      swap1\n      pop\n        /* \"#utility.yul\":523:556   */\n      tag_51\n        /* \"#utility.yul\":550:555   */\n      dup2\n        /* \"#utility.yul\":523:556   */\n      tag_52\n      jump\t// in\n    tag_51:\n        /* \"#utility.yul\":423:562   */\n      swap3\n      swap2\n      pop\n      pop\n      jump\t// out\n        /* \"#utility.yul\":568:707   */\n    tag_53:\n        /* \"#utility.yul\":614:619   */\n      0x00\n        /* \"#utility.yul\":652:658   */\n      dup2\n        /* \"#utility.yul\":639:659   */\n      calldataload\n        /* \"#utility.yul\":630:659   */\n      swap1\n      pop\n        /* \"#utility.yul\":668:701   */\n      tag_55\n        /* \"#utility.yul\":695:700   */\n      dup2\n        /* \"#utility.yul\":668:701   */\n      tag_56\n      jump\t// in\n    tag_55:\n        /* \"#utility.yul\":568:707   */\n      swap3\n      swap2\n      pop\n      pop\n      jump\t// out\n        /* \"#utility.yul\":726:1064   */\n    tag_57:\n        /* \"#utility.yul\":781:786   */\n      0x00\n        /* \"#utility.yul\":830:833   */\n      dup3\n        /* \"#utility.yul\":823:827   */\n      0x1f\n        /* \"#utility.yul\":815:821   */\n      dup4\n        /* \"#utility.yul\":811:828   */\n      add\n        /* \"#utility.yul\":807:834   */\n      slt\n        /* \"#utility.yul\":797:919   */\n      tag_59\n      jumpi\n        /* \"#utility.yul\":838:917   */\n      tag_60\n      tag_61\n      jump\t// in\n    tag_60:\n        /* \"#utility.yul\":797:919   */\n    tag_59:\n        /* \"#utility.yul\":955:961   */\n      dup2\n        /* \"#utility.yul\":942:962   */\n      calldataload\n        /* \"#utility.yul\":980:1058   */\n      tag_62\n        /* \"#utility.yul\":1054:1057   */\n      dup5\n        /* \"#utility.yul\":1046:1052   */\n      dup3\n        /* \"#utility.yul\":1039:1043   */\n      0x20\n        /* \"#utility.yul\":1031:1037   */\n      dup7\n        /* \"#utility.yul\":1027:1044   */\n      add\n        /* \"#utility.yul\":980:1058   */\n      tag_38\n      jump\t// in\n    tag_62:\n        /* \"#utility.yul\":971:1058   */\n      swap2\n      pop\n        /* \"#utility.yul\":787:1064   */\n      pop\n        /* \"#utility.yul\":726:1064   */\n      swap3\n      swap2\n      pop\n      pop\n      jump\t// out\n        /* \"#utility.yul\":1070:1209   */\n    tag_63:\n        /* \"#utility.yul\":1116:1121   */\n      0x00\n        /* \"#utility.yul\":1154:1160   */\n      dup2\n        /* \"#utility.yul\":1141:1161   */\n      calldataload\n        /* \"#utility.yul\":1132:1161   */\n      swap1\n      pop\n        /* \"#utility.yul\":1170:1203   */\n      tag_65\n        /* \"#utility.yul\":1197:1202   */\n      dup2\n        /* \"#utility.yul\":1170:1203   */\n      tag_66\n      jump\t// in\n    tag_65:\n        /* \"#utility.yul\":1070:1209   */\n      swap3\n      swap2\n      pop\n      pop\n      jump\t// out\n        /* \"#utility.yul\":1215:1689   */\n    tag_8:\n        /* \"#utility.yul\":1283:1289   */\n      0x00\n        /* \"#utility.yul\":1291:1297   */\n      dup1\n        /* \"#utility.yul\":1340:1342   */\n      0x40\n        /* \"#utility.yul\":1328:1337   */\n      dup4\n        /* \"#utility.yul\":1319:1326   */\n      dup6\n        /* \"#utility.yul\":1315:1338   */\n      sub\n        /* \"#utility.yul\":1311:1343   */\n      slt\n        /* \"#utility.yul\":1308:1427   */\n      iszero\n      tag_68\n      jumpi\n        /* \"#utility.yul\":1346:1425   */\n      tag_69\n      tag_70\n      jump\t// in\n    tag_69:\n        /* \"#utility.yul\":1308:1427   */\n    tag_68:\n        /* \"#utility.yul\":1466:1467   */\n      0x00\n        /* \"#utility.yul\":1491:1544   */\n      tag_71\n        /* \"#utility.yul\":1536:1543   */\n      dup6\n        /* \"#utility.yul\":1527:1533   */\n      dup3\n        /* \"#utility.yul\":1516:1525   */\n      dup7\n        /* \"#utility.yul\":1512:1534   */\n      add\n        /* \"#utility.yul\":1491:1544   */\n      tag_49\n      jump\t// in\n    tag_71:\n        /* \"#utility.yul\":1481:1544   */\n      swap3\n      pop\n        /* \"#utility.yul\":1437:1554   */\n      pop\n        /* \"#utility.yul\":1593:1595   */\n      0x20\n        /* \"#utility.yul\":1619:1672   */\n      tag_72\n        /* \"#utility.yul\":1664:1671   */\n      dup6\n        /* \"#utility.yul\":1655:1661   */\n      dup3\n        /* \"#utility.yul\":1644:1653   */\n      dup7\n        /* \"#utility.yul\":1640:1662   */\n      add\n        /* \"#utility.yul\":1619:1672   */\n      tag_63\n      jump\t// in\n    tag_72:\n        /* \"#utility.yul\":1609:1672   */\n      swap2\n      pop\n        /* \"#utility.yul\":1564:1682   */\n      pop\n        /* \"#utility.yul\":1215:1689   */\n      swap3\n      pop\n      swap3\n      swap1\n      pop\n      jump\t// out\n        /* \"#utility.yul\":1695:2024   */\n    tag_14:\n        /* \"#utility.yul\":1754:1760   */\n      0x00\n        /* \"#utility.yul\":1803:1805   */\n      0x20\n        /* \"#utility.yul\":1791:1800   */\n      dup3\n        /* \"#utility.yul\":1782:1789   */\n      dup5\n        /* \"#utility.yul\":1778:1801   */\n      sub\n        /* \"#utility.yul\":1774:1806   */\n      slt\n        /* \"#utility.yul\":1771:1890   */\n      iszero\n      tag_74\n      jumpi\n        /* \"#utility.yul\":1809:1888   */\n      tag_75\n      tag_70\n      jump\t// in\n    tag_75:\n        /* \"#utility.yul\":1771:1890   */\n    tag_74:\n        /* \"#utility.yul\":1929:1930   */\n      0x00\n        /* \"#utility.yul\":1954:2007   */\n      tag_76\n        /* \"#utility.yul\":1999:2006   */\n      dup5\n        /* \"#utility.yul\":1990:1996   */\n      dup3\n        /* \"#utility.yul\":1979:1988   */\n      dup6\n        /* \"#utility.yul\":1975:1997   */\n      add\n        /* \"#utility.yul\":1954:2007   */\n      tag_53\n      jump\t// in\n    tag_76:\n        /* \"#utility.yul\":1944:2007   */\n      swap2\n      pop\n        /* \"#utility.yul\":1900:2017   */\n      pop\n        /* \"#utility.yul\":1695:2024   */\n      swap3\n      swap2\n      pop\n      pop\n      jump\t// out\n        /* \"#utility.yul\":2030:2682   */\n    tag_19:\n        /* \"#utility.yul\":2107:2113   */\n      0x00\n        /* \"#utility.yul\":2115:2121   */\n      dup1\n        /* \"#utility.yul\":2164:2166   */\n      0x40\n        /* \"#utility.yul\":2152:2161   */\n      dup4\n        /* \"#utility.yul\":2143:2150   */\n      dup6\n        /* \"#utility.yul\":2139:2162   */\n      sub\n        /* \"#utility.yul\":2135:2167   */\n      slt\n        /* \"#utility.yul\":2132:2251   */\n      iszero\n      tag_78\n      jumpi\n        /* \"#utility.yul\":2170:2249   */\n      tag_79\n      tag_70\n      jump\t// in\n    tag_79:\n        /* \"#utility.yul\":2132:2251   */\n    tag_78:\n        /* \"#utility.yul\":2290:2291   */\n      0x00\n        /* \"#utility.yul\":2315:2368   */\n      tag_80\n        /* \"#utility.yul\":2360:2367   */\n      dup6\n        /* \"#utility.yul\":2351:2357   */\n      dup3\n        /* \"#utility.yul\":2340:2349   */\n      dup7\n        /* \"#utility.yul\":2336:2358   */\n      add\n        /* \"#utility.yul\":2315:2368   */\n      tag_53\n      jump\t// in\n    tag_80:\n        /* \"#utility.yul\":2305:2368   */\n      swap3\n      pop\n        /* \"#utility.yul\":2261:2378   */\n      pop\n        /* \"#utility.yul\":2445:2447   */\n      0x20\n        /* \"#utility.yul\":2434:2443   */\n      dup4\n        /* \"#utility.yul\":2430:2448   */\n      add\n        /* \"#utility.yul\":2417:2449   */\n      calldataload\n        /* \"#utility.yul\":2476:2494   */\n      0xffffffffffffffff\n        /* \"#utility.yul\":2468:2474   */\n      dup2\n        /* \"#utility.yul\":2465:2495   */\n      gt\n        /* \"#utility.yul\":2462:2579   */\n      iszero\n      tag_81\n      jumpi\n        /* \"#utility.yul\":2498:2577   */\n      tag_82\n      tag_83\n      jump\t// in\n    tag_82:\n        /* \"#utility.yul\":2462:2579   */\n    tag_81:\n        /* \"#utility.yul\":2603:2665   */\n      tag_84\n        /* \"#utility.yul\":2657:2664   */\n      dup6\n        /* \"#utility.yul\":2648:2654   */\n      dup3\n        /* \"#utility.yul\":2637:2646   */\n      dup7\n        /* \"#utility.yul\":2633:2655   */\n      add\n        /* \"#utility.yul\":2603:2665   */\n      tag_57\n      jump\t// in\n    tag_84:\n        /* \"#utility.yul\":2593:2665   */\n      swap2\n      pop\n        /* \"#utility.yul\":2388:2675   */\n      pop\n        /* \"#utility.yul\":2030:2682   */\n      swap3\n      pop\n      swap3\n      swap1\n      pop\n      jump\t// out\n        /* \"#utility.yul\":2688:2806   */\n    tag_85:\n        /* \"#utility.yul\":2775:2799   */\n      tag_87\n        /* \"#utility.yul\":2793:2798   */\n      dup2\n        /* \"#utility.yul\":2775:2799   */\n      tag_88\n      jump\t// in\n    tag_87:\n        /* \"#utility.yul\":2770:2773   */\n      dup3\n        /* \"#utility.yul\":2763:2800   */\n      mstore\n        /* \"#utility.yul\":2688:2806   */\n      pop\n      pop\n      jump\t// out\n        /* \"#utility.yul\":2812:2969   */\n    tag_89:\n        /* \"#utility.yul\":2917:2962   */\n      tag_91\n        /* \"#utility.yul\":2937:2961   */\n      tag_92\n        /* \"#utility.yul\":2955:2960   */\n      dup3\n        /* \"#utility.yul\":2937:2961   */\n      tag_88\n      jump\t// in\n    tag_92:\n        /* \"#utility.yul\":2917:2962   */\n      tag_93\n      jump\t// in\n    tag_91:\n        /* \"#utility.yul\":2912:2915   */\n      dup3\n        /* \"#utility.yul\":2905:2963   */\n      mstore\n        /* \"#utility.yul\":2812:2969   */\n      pop\n      pop\n      jump\t// out\n        /* \"#utility.yul\":2975:3093   */\n    tag_94:\n        /* \"#utility.yul\":3062:3086   */\n      tag_96\n        /* \"#utility.yul\":3080:3085   */\n      dup2\n        /* \"#utility.yul\":3062:3086   */\n      tag_97\n      jump\t// in\n    tag_96:\n        /* \"#utility.yul\":3057:3060   */\n      dup3\n        /* \"#utility.yul\":3050:3087   */\n      mstore\n        /* \"#utility.yul\":2975:3093   */\n      pop\n      pop\n      jump\t// out\n        /* \"#utility.yul\":3099:3256   */\n    tag_98:\n        /* \"#utility.yul\":3204:3249   */\n      tag_100\n        /* \"#utility.yul\":3224:3248   */\n      tag_101\n        /* \"#utility.yul\":3242:3247   */\n      dup3\n        /* \"#utility.yul\":3224:3248   */\n      tag_97\n      jump\t// in\n    tag_101:\n        /* \"#utility.yul\":3204:3249   */\n      tag_102\n      jump\t// in\n    tag_100:\n        /* \"#utility.yul\":3199:3202   */\n      dup3\n        /* \"#utility.yul\":3192:3250   */\n      mstore\n        /* \"#utility.yul\":3099:3256   */\n      pop\n      pop\n      jump\t// out\n        /* \"#utility.yul\":3262:3664   */\n    tag_103:\n        /* \"#utility.yul\":3422:3425   */\n      0x00\n        /* \"#utility.yul\":3443:3528   */\n      tag_105\n        /* \"#utility.yul\":3525:3527   */\n      0x1c\n        /* \"#utility.yul\":3520:3523   */\n      dup4\n        /* \"#utility.yul\":3443:3528   */\n      tag_106\n      jump\t// in\n    tag_105:\n        /* \"#utility.yul\":3436:3528   */\n      swap2\n      pop\n        /* \"#utility.yul\":3537:3630   */\n      tag_107\n        /* \"#utility.yul\":3626:3629   */\n      dup3\n        /* \"#utility.yul\":3537:3630   */\n      tag_108\n      jump\t// in\n    tag_107:\n        /* \"#utility.yul\":3655:3657   */\n      0x1c\n        /* \"#utility.yul\":3650:3653   */\n      dup3\n        /* \"#utility.yul\":3646:3658   */\n      add\n        /* \"#utility.yul\":3639:3658   */\n      swap1\n      pop\n        /* \"#utility.yul\":3262:3664   */\n      swap2\n      swap1\n      pop\n      jump\t// out\n        /* \"#utility.yul\":3670:4036   */\n    tag_109:\n        /* \"#utility.yul\":3812:3815   */\n      0x00\n        /* \"#utility.yul\":3833:3900   */\n      tag_111\n        /* \"#utility.yul\":3897:3899   */\n      0x18\n        /* \"#utility.yul\":3892:3895   */\n      dup4\n        /* \"#utility.yul\":3833:3900   */\n      tag_112\n      jump\t// in\n    tag_111:\n        /* \"#utility.yul\":3826:3900   */\n      swap2\n      pop\n        /* \"#utility.yul\":3909:4002   */\n      tag_113\n        /* \"#utility.yul\":3998:4001   */\n      dup3\n        /* \"#utility.yul\":3909:4002   */\n      tag_114\n      jump\t// in\n    tag_113:\n        /* \"#utility.yul\":4027:4029   */\n      0x20\n        /* \"#utility.yul\":4022:4025   */\n      dup3\n        /* \"#utility.yul\":4018:4030   */\n      add\n        /* \"#utility.yul\":4011:4030   */\n      swap1\n      pop\n        /* \"#utility.yul\":3670:4036   */\n      swap2\n      swap1\n      pop\n      jump\t// out\n        /* \"#utility.yul\":4042:4199   */\n    tag_115:\n        /* \"#utility.yul\":4147:4192   */\n      tag_117\n        /* \"#utility.yul\":4167:4191   */\n      tag_118\n        /* \"#utility.yul\":4185:4190   */\n      dup3\n        /* \"#utility.yul\":4167:4191   */\n      tag_119\n      jump\t// in\n    tag_118:\n        /* \"#utility.yul\":4147:4192   */\n      tag_120\n      jump\t// in\n    tag_117:\n        /* \"#utility.yul\":4142:4145   */\n      dup3\n        /* \"#utility.yul\":4135:4193   */\n      mstore\n        /* \"#utility.yul\":4042:4199   */\n      pop\n      pop\n      jump\t// out\n        /* \"#utility.yul\":4205:4317   */\n    tag_121:\n        /* \"#utility.yul\":4288:4310   */\n      tag_123\n        /* \"#utility.yul\":4304:4309   */\n      dup2\n        /* \"#utility.yul\":4288:4310   */\n      tag_124\n      jump\t// in\n    tag_123:\n        /* \"#utility.yul\":4283:4286   */\n      dup3\n        /* \"#utility.yul\":4276:4311   */\n      mstore\n        /* \"#utility.yul\":4205:4317   */\n      pop\n      pop\n      jump\t// out\n        /* \"#utility.yul\":4323:4720   */\n    tag_25:\n        /* \"#utility.yul\":4463:4466   */\n      0x00\n        /* \"#utility.yul\":4478:4553   */\n      tag_126\n        /* \"#utility.yul\":4549:4552   */\n      dup3\n        /* \"#utility.yul\":4540:4546   */\n      dup6\n        /* \"#utility.yul\":4478:4553   */\n      tag_89\n      jump\t// in\n    tag_126:\n        /* \"#utility.yul\":4578:4580   */\n      0x14\n        /* \"#utility.yul\":4573:4576   */\n      dup3\n        /* \"#utility.yul\":4569:4581   */\n      add\n        /* \"#utility.yul\":4562:4581   */\n      swap2\n      pop\n        /* \"#utility.yul\":4591:4666   */\n      tag_127\n        /* \"#utility.yul\":4662:4665   */\n      dup3\n        /* \"#utility.yul\":4653:4659   */\n      dup5\n        /* \"#utility.yul\":4591:4666   */\n      tag_115\n      jump\t// in\n    tag_127:\n        /* \"#utility.yul\":4691:4693   */\n      0x20\n        /* \"#utility.yul\":4686:4689   */\n      dup3\n        /* \"#utility.yul\":4682:4694   */\n      add\n        /* \"#utility.yul\":4675:4694   */\n      swap2\n      pop\n        /* \"#utility.yul\":4711:4714   */\n      dup2\n        /* \"#utility.yul\":4704:4714   */\n      swap1\n      pop\n        /* \"#utility.yul\":4323:4720   */\n      swap4\n      swap3\n      pop\n      pop\n      pop\n      jump\t// out\n        /* \"#utility.yul\":4726:5248   */\n    tag_28:\n        /* \"#utility.yul\":4939:4942   */\n      0x00\n        /* \"#utility.yul\":4961:5109   */\n      tag_129\n        /* \"#utility.yul\":5105:5108   */\n      dup3\n        /* \"#utility.yul\":4961:5109   */\n      tag_103\n      jump\t// in\n    tag_129:\n        /* \"#utility.yul\":4954:5109   */\n      swap2\n      pop\n        /* \"#utility.yul\":5119:5194   */\n      tag_130\n        /* \"#utility.yul\":5190:5193   */\n      dup3\n        /* \"#utility.yul\":5181:5187   */\n      dup5\n        /* \"#utility.yul\":5119:5194   */\n      tag_98\n      jump\t// in\n    tag_130:\n        /* \"#utility.yul\":5219:5221   */\n      0x20\n        /* \"#utility.yul\":5214:5217   */\n      dup3\n        /* \"#utility.yul\":5210:5222   */\n      add\n        /* \"#utility.yul\":5203:5222   */\n      swap2\n      pop\n        /* \"#utility.yul\":5239:5242   */\n      dup2\n        /* \"#utility.yul\":5232:5242   */\n      swap1\n      pop\n        /* \"#utility.yul\":4726:5248   */\n      swap3\n      swap2\n      pop\n      pop\n      jump\t// out\n        /* \"#utility.yul\":5254:5476   */\n    tag_22:\n        /* \"#utility.yul\":5347:5351   */\n      0x00\n        /* \"#utility.yul\":5385:5387   */\n      0x20\n        /* \"#utility.yul\":5374:5383   */\n      dup3\n        /* \"#utility.yul\":5370:5388   */\n      add\n        /* \"#utility.yul\":5362:5388   */\n      swap1\n      pop\n        /* \"#utility.yul\":5398:5469   */\n      tag_132\n        /* \"#utility.yul\":5466:5467   */\n      0x00\n        /* \"#utility.yul\":5455:5464   */\n      dup4\n        /* \"#utility.yul\":5451:5468   */\n      add\n        /* \"#utility.yul\":5442:5448   */\n      dup5\n        /* \"#utility.yul\":5398:5469   */\n      tag_85\n      jump\t// in\n    tag_132:\n        /* \"#utility.yul\":5254:5476   */\n      swap3\n      swap2\n      pop\n      pop\n      jump\t// out\n        /* \"#utility.yul\":5482:5704   */\n    tag_11:\n        /* \"#utility.yul\":5575:5579   */\n      0x00\n        /* \"#utility.yul\":5613:5615   */\n      0x20\n        /* \"#utility.yul\":5602:5611   */\n      dup3\n        /* \"#utility.yul\":5598:5616   */\n      add\n        /* \"#utility.yul\":5590:5616   */\n      swap1\n      pop\n        /* \"#utility.yul\":5626:5697   */\n      tag_134\n        /* \"#utility.yul\":5694:5695   */\n      0x00\n        /* \"#utility.yul\":5683:5692   */\n      dup4\n        /* \"#utility.yul\":5679:5696   */\n      add\n        /* \"#utility.yul\":5670:5676   */\n      dup5\n        /* \"#utility.yul\":5626:5697   */\n      tag_94\n      jump\t// in\n    tag_134:\n        /* \"#utility.yul\":5482:5704   */\n      swap3\n      swap2\n      pop\n      pop\n      jump\t// out\n        /* \"#utility.yul\":5710:6255   */\n    tag_34:\n        /* \"#utility.yul\":5883:5887   */\n      0x00\n        /* \"#utility.yul\":5921:5924   */\n      0x80\n        /* \"#utility.yul\":5910:5919   */\n      dup3\n        /* \"#utility.yul\":5906:5925   */\n      add\n        /* \"#utility.yul\":5898:5925   */\n      swap1\n      pop\n        /* \"#utility.yul\":5935:6006   */\n      tag_136\n        /* \"#utility.yul\":6003:6004   */\n      0x00\n        /* \"#utility.yul\":5992:6001   */\n      dup4\n        /* \"#utility.yul\":5988:6005   */\n      add\n        /* \"#utility.yul\":5979:5985   */\n      dup8\n        /* \"#utility.yul\":5935:6006   */\n      tag_94\n      jump\t// in\n    tag_136:\n        /* \"#utility.yul\":6016:6084   */\n      tag_137\n        /* \"#utility.yul\":6080:6082   */\n      0x20\n        /* \"#utility.yul\":6069:6078   */\n      dup4\n        /* \"#utility.yul\":6065:6083   */\n      add\n        /* \"#utility.yul\":6056:6062   */\n      dup7\n        /* \"#utility.yul\":6016:6084   */\n      tag_121\n      jump\t// in\n    tag_137:\n        /* \"#utility.yul\":6094:6166   */\n      tag_138\n        /* \"#utility.yul\":6162:6164   */\n      0x40\n        /* \"#utility.yul\":6151:6160   */\n      dup4\n        /* \"#utility.yul\":6147:6165   */\n      add\n        /* \"#utility.yul\":6138:6144   */\n      dup6\n        /* \"#utility.yul\":6094:6166   */\n      tag_94\n      jump\t// in\n    tag_138:\n        /* \"#utility.yul\":6176:6248   */\n      tag_139\n        /* \"#utility.yul\":6244:6246   */\n      0x60\n        /* \"#utility.yul\":6233:6242   */\n      dup4\n        /* \"#utility.yul\":6229:6247   */\n      add\n        /* \"#utility.yul\":6220:6226   */\n      dup5\n        /* \"#utility.yul\":6176:6248   */\n      tag_94\n      jump\t// in\n    tag_139:\n        /* \"#utility.yul\":5710:6255   */\n      swap6\n      swap5\n      pop\n      pop\n      pop\n      pop\n      pop\n      jump\t// out\n        /* \"#utility.yul\":6261:6680   */\n    tag_32:\n        /* \"#utility.yul\":6427:6431   */\n      0x00\n        /* \"#utility.yul\":6465:6467   */\n      0x20\n        /* \"#utility.yul\":6454:6463   */\n      dup3\n        /* \"#utility.yul\":6450:6468   */\n      add\n        /* \"#utility.yul\":6442:6468   */\n      swap1\n      pop\n        /* \"#utility.yul\":6514:6523   */\n      dup2\n        /* \"#utility.yul\":6508:6512   */\n      dup2\n        /* \"#utility.yul\":6504:6524   */\n      sub\n        /* \"#utility.yul\":6500:6501   */\n      0x00\n        /* \"#utility.yul\":6489:6498   */\n      dup4\n        /* \"#utility.yul\":6485:6502   */\n      add\n        /* \"#utility.yul\":6478:6525   */\n      mstore\n        /* \"#utility.yul\":6542:6673   */\n      tag_141\n        /* \"#utility.yul\":6668:6672   */\n      dup2\n        /* \"#utility.yul\":6542:6673   */\n      tag_109\n      jump\t// in\n    tag_141:\n        /* \"#utility.yul\":6534:6673   */\n      swap1\n      pop\n        /* \"#utility.yul\":6261:6680   */\n      swap2\n      swap1\n      pop\n      jump\t// out\n        /* \"#utility.yul\":6686:6815   */\n    tag_43:\n        /* \"#utility.yul\":6720:6726   */\n      0x00\n        /* \"#utility.yul\":6747:6767   */\n      tag_143\n      tag_144\n      jump\t// in\n    tag_143:\n        /* \"#utility.yul\":6737:6767   */\n      swap1\n      pop\n        /* \"#utility.yul\":6776:6809   */\n      tag_145\n        /* \"#utility.yul\":6804:6808   */\n      dup3\n        /* \"#utility.yul\":6796:6802   */\n      dup3\n        /* \"#utility.yul\":6776:6809   */\n      tag_146\n      jump\t// in\n    tag_145:\n        /* \"#utility.yul\":6686:6815   */\n      swap2\n      swap1\n      pop\n      jump\t// out\n        /* \"#utility.yul\":6821:6896   */\n    tag_144:\n        /* \"#utility.yul\":6854:6860   */\n      0x00\n        /* \"#utility.yul\":6887:6889   */\n      0x40\n        /* \"#utility.yul\":6881:6890   */\n      mload\n        /* \"#utility.yul\":6871:6890   */\n      swap1\n      pop\n        /* \"#utility.yul\":6821:6896   */\n      swap1\n      jump\t// out\n        /* \"#utility.yul\":6902:7209   */\n    tag_42:\n        /* \"#utility.yul\":6963:6967   */\n      0x00\n        /* \"#utility.yul\":7053:7071   */\n      0xffffffffffffffff\n        /* \"#utility.yul\":7045:7051   */\n      dup3\n        /* \"#utility.yul\":7042:7072   */\n      gt\n        /* \"#utility.yul\":7039:7095   */\n      iszero\n      tag_149\n      jumpi\n        /* \"#utility.yul\":7075:7093   */\n      tag_150\n      tag_151\n      jump\t// in\n    tag_150:\n        /* \"#utility.yul\":7039:7095   */\n    tag_149:\n        /* \"#utility.yul\":7113:7142   */\n      tag_152\n        /* \"#utility.yul\":7135:7141   */\n      dup3\n        /* \"#utility.yul\":7113:7142   */\n      tag_153\n      jump\t// in\n    tag_152:\n        /* \"#utility.yul\":7105:7142   */\n      swap1\n      pop\n        /* \"#utility.yul\":7197:7201   */\n      0x20\n        /* \"#utility.yul\":7191:7195   */\n      dup2\n        /* \"#utility.yul\":7187:7202   */\n      add\n        /* \"#utility.yul\":7179:7202   */\n      swap1\n      pop\n        /* \"#utility.yul\":6902:7209   */\n      swap2\n      swap1\n      pop\n      jump\t// out\n        /* \"#utility.yul\":7215:7384   */\n    tag_112:\n        /* \"#utility.yul\":7299:7310   */\n      0x00\n        /* \"#utility.yul\":7333:7339   */\n      dup3\n        /* \"#utility.yul\":7328:7331   */\n      dup3\n        /* \"#utility.yul\":7321:7340   */\n      mstore\n        /* \"#utility.yul\":7373:7377   */\n      0x20\n        /* \"#utility.yul\":7368:7371   */\n      dup3\n        /* \"#utility.yul\":7364:7378   */\n      add\n        /* \"#utility.yul\":7349:7378   */\n      swap1\n      pop\n        /* \"#utility.yul\":7215:7384   */\n      swap3\n      swap2\n      pop\n      pop\n      jump\t// out\n        /* \"#utility.yul\":7390:7538   */\n    tag_106:\n        /* \"#utility.yul\":7492:7503   */\n      0x00\n        /* \"#utility.yul\":7529:7532   */\n      dup2\n        /* \"#utility.yul\":7514:7532   */\n      swap1\n      pop\n        /* \"#utility.yul\":7390:7538   */\n      swap3\n      swap2\n      pop\n      pop\n      jump\t// out\n        /* \"#utility.yul\":7544:7640   */\n    tag_88:\n        /* \"#utility.yul\":7581:7588   */\n      0x00\n        /* \"#utility.yul\":7610:7634   */\n      tag_157\n        /* \"#utility.yul\":7628:7633   */\n      dup3\n        /* \"#utility.yul\":7610:7634   */\n      tag_158\n      jump\t// in\n    tag_157:\n        /* \"#utility.yul\":7599:7634   */\n      swap1\n      pop\n        /* \"#utility.yul\":7544:7640   */\n      swap2\n      swap1\n      pop\n      jump\t// out\n        /* \"#utility.yul\":7646:7723   */\n    tag_97:\n        /* \"#utility.yul\":7683:7690   */\n      0x00\n        /* \"#utility.yul\":7712:7717   */\n      dup2\n        /* \"#utility.yul\":7701:7717   */\n      swap1\n      pop\n        /* \"#utility.yul\":7646:7723   */\n      swap2\n      swap1\n      pop\n      jump\t// out\n        /* \"#utility.yul\":7729:7855   */\n    tag_158:\n        /* \"#utility.yul\":7766:7773   */\n      0x00\n        /* \"#utility.yul\":7806:7848   */\n      0xffffffffffffffffffffffffffffffffffffffff\n        /* \"#utility.yul\":7799:7804   */\n      dup3\n        /* \"#utility.yul\":7795:7849   */\n      and\n        /* \"#utility.yul\":7784:7849   */\n      swap1\n      pop\n        /* \"#utility.yul\":7729:7855   */\n      swap2\n      swap1\n      pop\n      jump\t// out\n        /* \"#utility.yul\":7861:7938   */\n    tag_119:\n        /* \"#utility.yul\":7898:7905   */\n      0x00\n        /* \"#utility.yul\":7927:7932   */\n      dup2\n        /* \"#utility.yul\":7916:7932   */\n      swap1\n      pop\n        /* \"#utility.yul\":7861:7938   */\n      swap2\n      swap1\n      pop\n      jump\t// out\n        /* \"#utility.yul\":7944:8030   */\n    tag_124:\n        /* \"#utility.yul\":7979:7986   */\n      0x00\n        /* \"#utility.yul\":8019:8023   */\n      0xff\n        /* \"#utility.yul\":8012:8017   */\n      dup3\n        /* \"#utility.yul\":8008:8024   */\n      and\n        /* \"#utility.yul\":7997:8024   */\n      swap1\n      pop\n        /* \"#utility.yul\":7944:8030   */\n      swap2\n      swap1\n      pop\n      jump\t// out\n        /* \"#utility.yul\":8036:8190   */\n    tag_48:\n        /* \"#utility.yul\":8120:8126   */\n      dup3\n        /* \"#utility.yul\":8115:8118   */\n      dup2\n        /* \"#utility.yul\":8110:8113   */\n      dup4\n        /* \"#utility.yul\":8097:8127   */\n      calldatacopy\n        /* \"#utility.yul\":8182:8183   */\n      0x00\n        /* \"#utility.yul\":8173:8179   */\n      dup4\n        /* \"#utility.yul\":8168:8171   */\n      dup4\n        /* \"#utility.yul\":8164:8180   */\n      add\n        /* \"#utility.yul\":8157:8184   */\n      mstore\n        /* \"#utility.yul\":8036:8190   */\n      pop\n      pop\n      pop\n      jump\t// out\n        /* \"#utility.yul\":8196:8477   */\n    tag_146:\n        /* \"#utility.yul\":8279:8306   */\n      tag_165\n        /* \"#utility.yul\":8301:8305   */\n      dup3\n        /* \"#utility.yul\":8279:8306   */\n      tag_153\n      jump\t// in\n    tag_165:\n        /* \"#utility.yul\":8271:8277   */\n      dup2\n        /* \"#utility.yul\":8267:8307   */\n      add\n        /* \"#utility.yul\":8409:8415   */\n      dup2\n        /* \"#utility.yul\":8397:8407   */\n      dup2\n        /* \"#utility.yul\":8394:8416   */\n      lt\n        /* \"#utility.yul\":8373:8391   */\n      0xffffffffffffffff\n        /* \"#utility.yul\":8361:8371   */\n      dup3\n        /* \"#utility.yul\":8358:8392   */\n      gt\n        /* \"#utility.yul\":8355:8417   */\n      or\n        /* \"#utility.yul\":8352:8440   */\n      iszero\n      tag_166\n      jumpi\n        /* \"#utility.yul\":8420:8438   */\n      tag_167\n      tag_151\n      jump\t// in\n    tag_167:\n        /* \"#utility.yul\":8352:8440   */\n    tag_166:\n        /* \"#utility.yul\":8460:8470   */\n      dup1\n        /* \"#utility.yul\":8456:8458   */\n      0x40\n        /* \"#utility.yul\":8449:8471   */\n      mstore\n        /* \"#utility.yul\":8239:8477   */\n      pop\n        /* \"#utility.yul\":8196:8477   */\n      pop\n      pop\n      jump\t// out\n        /* \"#utility.yul\":8483:8583   */\n    tag_93:\n        /* \"#utility.yul\":8522:8529   */\n      0x00\n        /* \"#utility.yul\":8551:8577   */\n      tag_169\n        /* \"#utility.yul\":8571:8576   */\n      dup3\n        /* \"#utility.yul\":8551:8577   */\n      tag_170\n      jump\t// in\n    tag_169:\n        /* \"#utility.yul\":8540:8577   */\n      swap1\n      pop\n        /* \"#utility.yul\":8483:8583   */\n      swap2\n      swap1\n      pop\n      jump\t// out\n        /* \"#utility.yul\":8589:8668   */\n    tag_102:\n        /* \"#utility.yul\":8628:8635   */\n      0x00\n        /* \"#utility.yul\":8657:8662   */\n      dup2\n        /* \"#utility.yul\":8646:8662   */\n      swap1\n      pop\n        /* \"#utility.yul\":8589:8668   */\n      swap2\n      swap1\n      pop\n      jump\t// out\n        /* \"#utility.yul\":8674:8768   */\n    tag_170:\n        /* \"#utility.yul\":8713:8720   */\n      0x00\n        /* \"#utility.yul\":8742:8762   */\n      tag_173\n        /* \"#utility.yul\":8756:8761   */\n      dup3\n        /* \"#utility.yul\":8742:8762   */\n      tag_174\n      jump\t// in\n    tag_173:\n        /* \"#utility.yul\":8731:8762   */\n      swap1\n      pop\n        /* \"#utility.yul\":8674:8768   */\n      swap2\n      swap1\n      pop\n      jump\t// out\n        /* \"#utility.yul\":8774:8853   */\n    tag_120:\n        /* \"#utility.yul\":8813:8820   */\n      0x00\n        /* \"#utility.yul\":8842:8847   */\n      dup2\n        /* \"#utility.yul\":8831:8847   */\n      swap1\n      pop\n        /* \"#utility.yul\":8774:8853   */\n      swap2\n      swap1\n      pop\n      jump\t// out\n        /* \"#utility.yul\":8859:9039   */\n    tag_151:\n        /* \"#utility.yul\":8907:8984   */\n      0x4e487b7100000000000000000000000000000000000000000000000000000000\n        /* \"#utility.yul\":8904:8905   */\n      0x00\n        /* \"#utility.yul\":8897:8985   */\n      mstore\n        /* \"#utility.yul\":9004:9008   */\n      0x41\n        /* \"#utility.yul\":9001:9002   */\n      0x04\n        /* \"#utility.yul\":8994:9009   */\n      mstore\n        /* \"#utility.yul\":9028:9032   */\n      0x24\n        /* \"#utility.yul\":9025:9026   */\n      0x00\n        /* \"#utility.yul\":9018:9033   */\n      revert\n        /* \"#utility.yul\":9045:9162   */\n    tag_61:\n        /* \"#utility.yul\":9154:9155   */\n      0x00\n        /* \"#utility.yul\":9151:9152   */\n      dup1\n        /* \"#utility.yul\":9144:9156   */\n      revert\n        /* \"#utility.yul\":9168:9285   */\n    tag_46:\n        /* \"#utility.yul\":9277:9278   */\n      0x00\n        /* \"#utility.yul\":9274:9275   */\n      dup1\n        /* \"#utility.yul\":9267:9279   */\n      revert\n        /* \"#utility.yul\":9291:9408   */\n    tag_83:\n        /* \"#utility.yul\":9400:9401   */\n      0x00\n        /* \"#utility.yul\":9397:9398   */\n      dup1\n        /* \"#utility.yul\":9390:9402   */\n      revert\n        /* \"#utility.yul\":9414:9531   */\n    tag_70:\n        /* \"#utility.yul\":9523:9524   */\n      0x00\n        /* \"#utility.yul\":9520:9521   */\n      dup1\n        /* \"#utility.yul\":9513:9525   */\n      revert\n        /* \"#utility.yul\":9537:9639   */\n    tag_153:\n        /* \"#utility.yul\":9578:9584   */\n      0x00\n        /* \"#utility.yul\":9629:9631   */\n      0x1f\n        /* \"#utility.yul\":9625:9632   */\n      not\n        /* \"#utility.yul\":9620:9622   */\n      0x1f\n        /* \"#utility.yul\":9613:9618   */\n      dup4\n        /* \"#utility.yul\":9609:9623   */\n      add\n        /* \"#utility.yul\":9605:9633   */\n      and\n        /* \"#utility.yul\":9595:9633   */\n      swap1\n      pop\n        /* \"#utility.yul\":9537:9639   */\n      swap2\n      swap1\n      pop\n      jump\t// out\n        /* \"#utility.yul\":9645:9739   */\n    tag_174:\n        /* \"#utility.yul\":9678:9686   */\n      0x00\n        /* \"#utility.yul\":9726:9731   */\n      dup2\n        /* \"#utility.yul\":9722:9724   */\n      0x60\n        /* \"#utility.yul\":9718:9732   */\n      shl\n        /* \"#utility.yul\":9697:9732   */\n      swap1\n      pop\n        /* \"#utility.yul\":9645:9739   */\n      swap2\n      swap1\n      pop\n      jump\t// out\n        /* \"#utility.yul\":9745:9959   */\n    tag_108:\n        /* \"#utility.yul\":9885:9951   */\n      0x19457468657265756d205369676e6564204d6573736167653a0a333200000000\n        /* \"#utility.yul\":9881:9882   */\n      0x00\n        /* \"#utility.yul\":9873:9879   */\n      dup3\n        /* \"#utility.yul\":9869:9883   */\n      add\n        /* \"#utility.yul\":9862:9952   */\n      mstore\n        /* \"#utility.yul\":9745:9959   */\n      pop\n      jump\t// out\n        /* \"#utility.yul\":9965:10139   */\n    tag_114:\n        /* \"#utility.yul\":10105:10131   */\n      0x696e76616c6964207369676e6174757265206c656e6774680000000000000000\n        /* \"#utility.yul\":10101:10102   */\n      0x00\n        /* \"#utility.yul\":10093:10099   */\n      dup3\n        /* \"#utility.yul\":10089:10103   */\n      add\n        /* \"#utility.yul\":10082:10132   */\n      mstore\n        /* \"#utility.yul\":9965:10139   */\n      pop\n      jump\t// out\n        /* \"#utility.yul\":10145:10267   */\n    tag_52:\n        /* \"#utility.yul\":10218:10242   */\n      tag_186\n        /* \"#utility.yul\":10236:10241   */\n      dup2\n        /* \"#utility.yul\":10218:10242   */\n      tag_88\n      jump\t// in\n    tag_186:\n        /* \"#utility.yul\":10211:10216   */\n      dup2\n        /* \"#utility.yul\":10208:10243   */\n      eq\n        /* \"#utility.yul\":10198:10261   */\n      tag_187\n      jumpi\n        /* \"#utility.yul\":10257:10258   */\n      0x00\n        /* \"#utility.yul\":10254:10255   */\n      dup1\n        /* \"#utility.yul\":10247:10259   */\n      revert\n        /* \"#utility.yul\":10198:10261   */\n    tag_187:\n        /* \"#utility.yul\":10145:10267   */\n      pop\n      jump\t// out\n        /* \"#utility.yul\":10273:10395   */\n    tag_56:\n        /* \"#utility.yul\":10346:10370   */\n      tag_189\n        /* \"#utility.yul\":10364:10369   */\n      dup2\n        /* \"#utility.yul\":10346:10370   */\n      tag_97\n      jump\t// in\n    tag_189:\n        /* \"#utility.yul\":10339:10344   */\n      dup2\n        /* \"#utility.yul\":10336:10371   */\n      eq\n        /* \"#utility.yul\":10326:10389   */\n      tag_190\n      jumpi\n        /* \"#utility.yul\":10385:10386   */\n      0x00\n        /* \"#utility.yul\":10382:10383   */\n      dup1\n        /* \"#utility.yul\":10375:10387   */\n      revert\n        /* \"#utility.yul\":10326:10389   */\n    tag_190:\n        /* \"#utility.yul\":10273:10395   */\n      pop\n      jump\t// out\n        /* \"#utility.yul\":10401:10523   */\n    tag_66:\n        /* \"#utility.yul\":10474:10498   */\n      tag_192\n        /* \"#utility.yul\":10492:10497   */\n      dup2\n        /* \"#utility.yul\":10474:10498   */\n      tag_119\n      jump\t// in\n    tag_192:\n        /* \"#utility.yul\":10467:10472   */\n      dup2\n        /* \"#utility.yul\":10464:10499   */\n      eq\n        /* \"#utility.yul\":10454:10517   */\n      tag_193\n      jumpi\n        /* \"#utility.yul\":10513:10514   */\n      0x00\n        /* \"#utility.yul\":10510:10511   */\n      dup1\n        /* \"#utility.yul\":10503:10515   */\n      revert\n        /* \"#utility.yul\":10454:10517   */\n    tag_193:\n        /* \"#utility.yul\":10401:10523   */\n      pop\n      jump\t// out\n\n    auxdata: 0xa2646970667358221220080f72b5354ad8c9bb4597cc1b12e2b896de458386feb2adf910e522ea59d3e464736f6c63430008070033\n}\n",
				"bytecode": {
					"linkReferences": {},
					"object": "608060405234801561001057600080fd5b5061077e806100206000396000f3fe608060405234801561001057600080fd5b50600436106100415760003560e01c8063512c91df14610046578063918a15cf1461007657806397aba7f9146100a6575b600080fd5b610060600480360381019061005b91906102a5565b6100d6565b60405161006d9190610493565b60405180910390f35b610090600480360381019061008b91906102e5565b610109565b60405161009d9190610493565b60405180910390f35b6100c060048036038101906100bb9190610312565b610139565b6040516100cd9190610478565b60405180910390f35b600082826040516020016100eb929190610426565b60405160208183030381529060405280519060200120905092915050565b60008160405160200161011c9190610452565b604051602081830303815290604052805190602001209050919050565b6000604182511461017f576040517f08c379a0000000000000000000000000000000000000000000000000000000008152600401610176906104f3565b60405180910390fd5b60008060006020850151925060408501519150606085015160001a9050600186828585604051600081526020016040526040516101bf94939291906104ae565b6020604051602081039080840390855afa1580156101e1573d6000803e3d6000fd5b50505060206040510351935050505092915050565b600061020961020484610538565b610513565b90508281526020810184848401111561022557610224610684565b5b6102308482856105d8565b509392505050565b60008135905061024781610703565b92915050565b60008135905061025c8161071a565b92915050565b600082601f8301126102775761027661067f565b5b81356102878482602086016101f6565b91505092915050565b60008135905061029f81610731565b92915050565b600080604083850312156102bc576102bb61068e565b5b60006102ca85828601610238565b92505060206102db85828601610290565b9150509250929050565b6000602082840312156102fb576102fa61068e565b5b60006103098482850161024d565b91505092915050565b600080604083850312156103295761032861068e565b5b60006103378582860161024d565b925050602083013567ffffffffffffffff81111561035857610357610689565b5b61036485828601610262565b9150509250929050565b61037781610585565b82525050565b61038e61038982610585565b610618565b82525050565b61039d81610597565b82525050565b6103b46103af82610597565b61062a565b82525050565b60006103c7601c8361057a565b91506103d2826106b1565b601c82019050919050565b60006103ea601883610569565b91506103f5826106da565b602082019050919050565b61041161040c826105c1565b610646565b82525050565b610420816105cb565b82525050565b6000610432828561037d565b6014820191506104428284610400565b6020820191508190509392505050565b600061045d826103ba565b915061046982846103a3565b60208201915081905092915050565b600060208201905061048d600083018461036e565b92915050565b60006020820190506104a86000830184610394565b92915050565b60006080820190506104c36000830187610394565b6104d06020830186610417565b6104dd6040830185610394565b6104ea6060830184610394565b95945050505050565b6000602082019050818103600083015261050c816103dd565b9050919050565b600061051d61052e565b905061052982826105e7565b919050565b6000604051905090565b600067ffffffffffffffff82111561055357610552610650565b5b61055c82610693565b9050602081019050919050565b600082825260208201905092915050565b600081905092915050565b6000610590826105a1565b9050919050565b6000819050919050565b600073ffffffffffffffffffffffffffffffffffffffff82169050919050565b6000819050919050565b600060ff82169050919050565b82818337600083830152505050565b6105f082610693565b810181811067ffffffffffffffff8211171561060f5761060e610650565b5b80604052505050565b600061062382610634565b9050919050565b6000819050919050565b600061063f826106a4565b9050919050565b6000819050919050565b7f4e487b7100000000000000000000000000000000000000000000000000000000600052604160045260246000fd5b600080fd5b600080fd5b600080fd5b600080fd5b6000601f19601f8301169050919050565b60008160601b9050919050565b7f19457468657265756d205369676e6564204d6573736167653a0a333200000000600082015250565b7f696e76616c6964207369676e6174757265206c656e6774680000000000000000600082015250565b61070c81610585565b811461071757600080fd5b50565b61072381610597565b811461072e57600080fd5b50565b61073a816105c1565b811461074557600080fd5b5056fea2646970667358221220080f72b5354ad8c9bb4597cc1b12e2b896de458386feb2adf910e522ea59d3e464736f6c63430008070033",
					"opcodes": "PUSH1 0x80 PUSH1 0x40 MSTORE CALLVALUE DUP1 ISZERO PUSH2 0x10 JUMPI PUSH1 0x0 DUP1 REVERT JUMPDEST POP PUSH2 0x77E DUP1 PUSH2 0x20 PUSH1 0x0 CODECOPY PUSH1 0x0 RETURN INVALID PUSH1 0x80 PUSH1 0x40 MSTORE CALLVALUE DUP1 ISZERO PUSH2 0x10 JUMPI PUSH1 0x0 DUP1 REVERT JUMPDEST POP PUSH1 0x4 CALLDATASIZE LT PUSH2 0x41 JUMPI PUSH1 0x0 CALLDATALOAD PUSH1 0xE0 SHR DUP1 PUSH4 0x512C91DF EQ PUSH2 0x46 JUMPI DUP1 PUSH4 0x918A15CF EQ PUSH2 0x76 JUMPI DUP1 PUSH4 0x97ABA7F9 EQ PUSH2 0xA6 JUMPI JUMPDEST PUSH1 0x0 DUP1 REVERT JUMPDEST PUSH2 0x60 PUSH1 0x4 DUP1 CALLDATASIZE SUB DUP2 ADD SWAP1 PUSH2 0x5B SWAP2 SWAP1 PUSH2 0x2A5 JUMP JUMPDEST PUSH2 0xD6 JUMP JUMPDEST PUSH1 0x40 MLOAD PUSH2 0x6D SWAP2 SWAP1 PUSH2 0x493 JUMP JUMPDEST PUSH1 0x40 MLOAD DUP1 SWAP2 SUB SWAP1 RETURN JUMPDEST PUSH2 0x90 PUSH1 0x4 DUP1 CALLDATASIZE SUB DUP2 ADD SWAP1 PUSH2 0x8B SWAP2 SWAP1 PUSH2 0x2E5 JUMP JUMPDEST PUSH2 0x109 JUMP JUMPDEST PUSH1 0x40 MLOAD PUSH2 0x9D SWAP2 SWAP1 PUSH2 0x493 JUMP JUMPDEST PUSH1 0x40 MLOAD DUP1 SWAP2 SUB SWAP1 RETURN JUMPDEST PUSH2 0xC0 PUSH1 0x4 DUP1 CALLDATASIZE SUB DUP2 ADD SWAP1 PUSH2 0xBB SWAP2 SWAP1 PUSH2 0x312 JUMP JUMPDEST PUSH2 0x139 JUMP JUMPDEST PUSH1 0x40 MLOAD PUSH2 0xCD SWAP2 SWAP1 PUSH2 0x478 JUMP JUMPDEST PUSH1 0x40 MLOAD DUP1 SWAP2 SUB SWAP1 RETURN JUMPDEST PUSH1 0x0 DUP3 DUP3 PUSH1 0x40 MLOAD PUSH1 0x20 ADD PUSH2 0xEB SWAP3 SWAP2 SWAP1 PUSH2 0x426 JUMP JUMPDEST PUSH1 0x40 MLOAD PUSH1 0x20 DUP2 DUP4 SUB SUB DUP2 MSTORE SWAP1 PUSH1 0x40 MSTORE DUP1 MLOAD SWAP1 PUSH1 0x20 ADD KECCAK256 SWAP1 POP SWAP3 SWAP2 POP POP JUMP JUMPDEST PUSH1 0x0 DUP2 PUSH1 0x40 MLOAD PUSH1 0x20 ADD PUSH2 0x11C SWAP2 SWAP1 PUSH2 0x452 JUMP JUMPDEST PUSH1 0x40 MLOAD PUSH1 0x20 DUP2 DUP4 SUB SUB DUP2 MSTORE SWAP1 PUSH1 0x40 MSTORE DUP1 MLOAD SWAP1 PUSH1 0x20 ADD KECCAK256 SWAP1 POP SWAP2 SWAP1 POP JUMP JUMPDEST PUSH1 0x0 PUSH1 0x41 DUP3 MLOAD EQ PUSH2 0x17F JUMPI PUSH1 0x40 MLOAD PUSH32 0x8C379A000000000000000000000000000000000000000000000000000000000 DUP2 MSTORE PUSH1 0x4 ADD PUSH2 0x176 SWAP1 PUSH2 0x4F3 JUMP JUMPDEST PUSH1 0x40 MLOAD DUP1 SWAP2 SUB SWAP1 REVERT JUMPDEST PUSH1 0x0 DUP1 PUSH1 0x0 PUSH1 0x20 DUP6 ADD MLOAD SWAP3 POP PUSH1 0x40 DUP6 ADD MLOAD SWAP2 POP PUSH1 0x60 DUP6 ADD MLOAD PUSH1 0x0 BYTE SWAP1 POP PUSH1 0x1 DUP7 DUP3 DUP6 DUP6 PUSH1 0x40 MLOAD PUSH1 0x0 DUP2 MSTORE PUSH1 0x20 ADD PUSH1 0x40 MSTORE PUSH1 0x40 MLOAD PUSH2 0x1BF SWAP5 SWAP4 SWAP3 SWAP2 SWAP1 PUSH2 0x4AE JUMP JUMPDEST PUSH1 0x20 PUSH1 0x40 MLOAD PUSH1 0x20 DUP2 SUB SWAP1 DUP1 DUP5 SUB SWAP1 DUP6 GAS STATICCALL ISZERO DUP1 ISZERO PUSH2 0x1E1 JUMPI RETURNDATASIZE PUSH1 0x0 DUP1 RETURNDATACOPY RETURNDATASIZE PUSH1 0x0 REVERT JUMPDEST POP POP POP PUSH1 0x20 PUSH1 0x40 MLOAD SUB MLOAD SWAP4 POP POP POP POP SWAP3 SWAP2 POP POP JUMP JUMPDEST PUSH1 0x0 PUSH2 0x209 PUSH2 0x204 DUP5 PUSH2 0x538 JUMP JUMPDEST PUSH2 0x513 JUMP JUMPDEST SWAP1 POP DUP3 DUP2 MSTORE PUSH1 0x20 DUP2 ADD DUP5 DUP5 DUP5 ADD GT ISZERO PUSH2 0x225 JUMPI PUSH2 0x224 PUSH2 0x684 JUMP JUMPDEST JUMPDEST PUSH2 0x230 DUP5 DUP3 DUP6 PUSH2 0x5D8 JUMP JUMPDEST POP SWAP4 SWAP3 POP POP POP JUMP JUMPDEST PUSH1 0x0 DUP2 CALLDATALOAD SWAP1 POP PUSH2 0x247 DUP2 PUSH2 0x703 JUMP JUMPDEST SWAP3 SWAP2 POP POP JUMP JUMPDEST PUSH1 0x0 DUP2 CALLDATALOAD SWAP1 POP PUSH2 0x25C DUP2 PUSH2 0x71A JUMP JUMPDEST SWAP3 SWAP2 POP POP JUMP JUMPDEST PUSH1 0x0 DUP3 PUSH1 0x1F DUP4 ADD SLT PUSH2 0x277 JUMPI PUSH2 0x276 PUSH2 0x67F JUMP JUMPDEST JUMPDEST DUP2 CALLDATALOAD PUSH2 0x287 DUP5 DUP3 PUSH1 0x20 DUP7 ADD PUSH2 0x1F6 JUMP JUMPDEST SWAP2 POP POP SWAP3 SWAP2 POP POP JUMP JUMPDEST PUSH1 0x0 DUP2 CALLDATALOAD SWAP1 POP PUSH2 0x29F DUP2 PUSH2 0x731 JUMP JUMPDEST SWAP3 SWAP2 POP POP JUMP JUMPDEST PUSH1 0x0 DUP1 PUSH1 0x40 DUP4 DUP6 SUB SLT ISZERO PUSH2 0x2BC JUMPI PUSH2 0x2BB PUSH2 0x68E JUMP JUMPDEST JUMPDEST PUSH1 0x0 PUSH2 0x2CA DUP6 DUP3 DUP7 ADD PUSH2 0x238 JUMP JUMPDEST SWAP3 POP POP PUSH1 0x20 PUSH2 0x2DB DUP6 DUP3 DUP7 ADD PUSH2 0x290 JUMP JUMPDEST SWAP2 POP POP SWAP3 POP SWAP3 SWAP1 POP JUMP JUMPDEST PUSH1 0x0 PUSH1 0x20 DUP3 DUP5 SUB SLT ISZERO PUSH2 0x2FB JUMPI PUSH2 0x2FA PUSH2 0x68E JUMP JUMPDEST JUMPDEST PUSH1 0x0 PUSH2 0x309 DUP5 DUP3 DUP6 ADD PUSH2 0x24D JUMP JUMPDEST SWAP2 POP POP SWAP3 SWAP2 POP POP JUMP JUMPDEST PUSH1 0x0 DUP1 PUSH1 0x40 DUP4 DUP6 SUB SLT ISZERO PUSH2 0x329 JUMPI PUSH2 0x328 PUSH2 0x68E JUMP JUMPDEST JUMPDEST PUSH1 0x0 PUSH2 0x337 DUP6 DUP3 DUP7 ADD PUSH2 0x24D JUMP JUMPDEST SWAP3 POP POP PUSH1 0x20 DUP4 ADD CALLDATALOAD PUSH8 0xFFFFFFFFFFFFFFFF DUP2 GT ISZERO PUSH2 0x358 JUMPI PUSH2 0x357 PUSH2 0x689 JUMP JUMPDEST JUMPDEST PUSH2 0x364 DUP6 DUP3 DUP7 ADD PUSH2 0x262 JUMP JUMPDEST SWAP2 POP POP SWAP3 POP SWAP3 SWAP1 POP JUMP JUMPDEST PUSH2 0x377 DUP2 PUSH2 0x585 JUMP JUMPDEST DUP3 MSTORE POP POP JUMP JUMPDEST PUSH2 0x38E PUSH2 0x389 DUP3 PUSH2 0x585 JUMP JUMPDEST PUSH2 0x618 JUMP JUMPDEST DUP3 MSTORE POP POP JUMP JUMPDEST PUSH2 0x39D DUP2 PUSH2 0x597 JUMP JUMPDEST DUP3 MSTORE POP POP JUMP JUMPDEST PUSH2 0x3B4 PUSH2 0x3AF DUP3 PUSH2 0x597 JUMP JUMPDEST PUSH2 0x62A JUMP JUMPDEST DUP3 MSTORE POP POP JUMP JUMPDEST PUSH1 0x0 PUSH2 0x3C7 PUSH1 0x1C DUP4 PUSH2 0x57A JUMP JUMPDEST SWAP2 POP PUSH2 0x3D2 DUP3 PUSH2 0x6B1 JUMP JUMPDEST PUSH1 0x1C DUP3 ADD SWAP1 POP SWAP2 SWAP1 POP JUMP JUMPDEST PUSH1 0x0 PUSH2 0x3EA PUSH1 0x18 DUP4 PUSH2 0x569 JUMP JUMPDEST SWAP2 POP PUSH2 0x3F5 DUP3 PUSH2 0x6DA JUMP JUMPDEST PUSH1 0x20 DUP3 ADD SWAP1 POP SWAP2 SWAP1 POP JUMP JUMPDEST PUSH2 0x411 PUSH2 0x40C DUP3 PUSH2 0x5C1 JUMP JUMPDEST PUSH2 0x646 JUMP JUMPDEST DUP3 MSTORE POP POP JUMP JUMPDEST PUSH2 0x420 DUP2 PUSH2 0x5CB JUMP JUMPDEST DUP3 MSTORE POP POP JUMP JUMPDEST PUSH1 0x0 PUSH2 0x432 DUP3 DUP6 PUSH2 0x37D JUMP JUMPDEST PUSH1 0x14 DUP3 ADD SWAP2 POP PUSH2 0x442 DUP3 DUP5 PUSH2 0x400 JUMP JUMPDEST PUSH1 0x20 DUP3 ADD SWAP2 POP DUP2 SWAP1 POP SWAP4 SWAP3 POP POP POP JUMP JUMPDEST PUSH1 0x0 PUSH2 0x45D DUP3 PUSH2 0x3BA JUMP JUMPDEST SWAP2 POP PUSH2 0x469 DUP3 DUP5 PUSH2 0x3A3 JUMP JUMPDEST PUSH1 0x20 DUP3 ADD SWAP2 POP DUP2 SWAP1 POP SWAP3 SWAP2 POP POP JUMP JUMPDEST PUSH1 0x0 PUSH1 0x20 DUP3 ADD SWAP1 POP PUSH2 0x48D PUSH1 0x0 DUP4 ADD DUP5 PUSH2 0x36E JUMP JUMPDEST SWAP3 SWAP2 POP POP JUMP JUMPDEST PUSH1 0x0 PUSH1 0x20 DUP3 ADD SWAP1 POP PUSH2 0x4A8 PUSH1 0x0 DUP4 ADD DUP5 PUSH2 0x394 JUMP JUMPDEST SWAP3 SWAP2 POP POP JUMP JUMPDEST PUSH1 0x0 PUSH1 0x80 DUP3 ADD SWAP1 POP PUSH2 0x4C3 PUSH1 0x0 DUP4 ADD DUP8 PUSH2 0x394 JUMP JUMPDEST PUSH2 0x4D0 PUSH1 0x20 DUP4 ADD DUP7 PUSH2 0x417 JUMP JUMPDEST PUSH2 0x4DD PUSH1 0x40 DUP4 ADD DUP6 PUSH2 0x394 JUMP JUMPDEST PUSH2 0x4EA PUSH1 0x60 DUP4 ADD DUP5 PUSH2 0x394 JUMP JUMPDEST SWAP6 SWAP5 POP POP POP POP POP JUMP JUMPDEST PUSH1 0x0 PUSH1 0x20 DUP3 ADD SWAP1 POP DUP2 DUP2 SUB PUSH1 0x0 DUP4 ADD MSTORE PUSH2 0x50C DUP2 PUSH2 0x3DD JUMP JUMPDEST SWAP1 POP SWAP2 SWAP1 POP JUMP JUMPDEST PUSH1 0x0 PUSH2 0x51D PUSH2 0x52E JUMP JUMPDEST SWAP1 POP PUSH2 0x529 DUP3 DUP3 PUSH2 0x5E7 JUMP JUMPDEST SWAP2 SWAP1 POP JUMP JUMPDEST PUSH1 0x0 PUSH1 0x40 MLOAD SWAP1 POP SWAP1 JUMP JUMPDEST PUSH1 0x0 PUSH8 0xFFFFFFFFFFFFFFFF DUP3 GT ISZERO PUSH2 0x553 JUMPI PUSH2 0x552 PUSH2 0x650 JUMP JUMPDEST JUMPDEST PUSH2 0x55C DUP3 PUSH2 0x693 JUMP JUMPDEST SWAP1 POP PUSH1 0x20 DUP2 ADD SWAP1 POP SWAP2 SWAP1 POP JUMP JUMPDEST PUSH1 0x0 DUP3 DUP3 MSTORE PUSH1 0x20 DUP3 ADD SWAP1 POP SWAP3 SWAP2 POP POP JUMP JUMPDEST PUSH1 0x0 DUP2 SWAP1 POP SWAP3 SWAP2 POP POP JUMP JUMPDEST PUSH1 0x0 PUSH2 0x590 DUP3 PUSH2 0x5A1 JUMP JUMPDEST SWAP1 POP SWAP2 SWAP1 POP JUMP JUMPDEST PUSH1 0x0 DUP2 SWAP1 POP SWAP2 SWAP1 POP JUMP JUMPDEST PUSH1 0x0 PUSH20 0xFFFFFFFFFFFFFFFFFFFFFFFFFFFFFFFFFFFFFFFF DUP3 AND SWAP1 POP SWAP2 SWAP1 POP JUMP JUMPDEST PUSH1 0x0 DUP2 SWAP1 POP SWAP2 SWAP1 POP JUMP JUMPDEST PUSH1 0x0 PUSH1 0xFF DUP3 AND SWAP1 POP SWAP2 SWAP1 POP JUMP JUMPDEST DUP3 DUP2 DUP4 CALLDATACOPY PUSH1 0x0 DUP4 DUP4 ADD MSTORE POP POP POP JUMP JUMPDEST PUSH2 0x5F0 DUP3 PUSH2 0x693 JUMP JUMPDEST DUP2 ADD DUP2 DUP2 LT PUSH8 0xFFFFFFFFFFFFFFFF DUP3 GT OR ISZERO PUSH2 0x60F JUMPI PUSH2 0x60E PUSH2 0x650 JUMP JUMPDEST JUMPDEST DUP1 PUSH1 0x40 MSTORE POP POP POP JUMP JUMPDEST PUSH1 0x0 PUSH2 0x623 DUP3 PUSH2 0x634 JUMP JUMPDEST SWAP1 POP SWAP2 SWAP1 POP JUMP JUMPDEST PUSH1 0x0 DUP2 SWAP1 POP SWAP2 SWAP1 POP JUMP JUMPDEST PUSH1 0x0 PUSH2 0x63F DUP3 PUSH2 0x6A4 JUMP JUMPDEST SWAP1 POP SWAP2 SWAP1 POP JUMP JUMPDEST PUSH1 0x0 DUP2 SWAP1 POP SWAP2 SWAP1 POP JUMP JUMPDEST PUSH32 0x4E487B7100000000000000000000000000000000000000000000000000000000 PUSH1 0x0 MSTORE PUSH1 0x41 PUSH1 0x4 MSTORE PUSH1 0x24 PUSH1 0x0 REVERT JUMPDEST PUSH1 0x0 DUP1 REVERT JUMPDEST PUSH1 0x0 DUP1 REVERT JUMPDEST PUSH1 0x0 DUP1 REVERT JUMPDEST PUSH1 0x0 DUP1 REVERT JUMPDEST PUSH1 0x0 PUSH1 0x1F NOT PUSH1 0x1F DUP4 ADD AND SWAP1 POP SWAP2 SWAP1 POP JUMP JUMPDEST PUSH1 0x0 DUP2 PUSH1 0x60 SHL SWAP1 POP SWAP2 SWAP1 POP JUMP JUMPDEST PUSH32 0x19457468657265756D205369676E6564204D6573736167653A0A333200000000 PUSH1 0x0 DUP3 ADD MSTORE POP JUMP JUMPDEST PUSH32 0x696E76616C6964207369676E6174757265206C656E6774680000000000000000 PUSH1 0x0 DUP3 ADD MSTORE POP JUMP JUMPDEST PUSH2 0x70C DUP2 PUSH2 0x585 JUMP JUMPDEST DUP2 EQ PUSH2 0x717 JUMPI PUSH1 0x0 DUP1 REVERT JUMPDEST POP JUMP JUMPDEST PUSH2 0x723 DUP2 PUSH2 0x597 JUMP JUMPDEST DUP2 EQ PUSH2 0x72E JUMPI PUSH1 0x0 DUP1 REVERT JUMPDEST POP JUMP JUMPDEST PUSH2 0x73A DUP2 PUSH2 0x5C1 JUMP JUMPDEST DUP2 EQ PUSH2 0x745 JUMPI PUSH1 0x0 DUP1 REVERT JUMPDEST POP JUMP INVALID LOG2 PUSH5 0x6970667358 0x22 SLT KECCAK256 ADDMOD 0xF PUSH19 0xB5354AD8C9BB4597CC1B12E2B896DE458386FE 0xB2 0xAD 0xF9 LT 0xE5 0x22 0xEA MSIZE 0xD3 0xE4 PUSH5 0x736F6C6343 STOP ADDMOD SMOD STOP CALLER "
				},
				"gasEstimates": {
					"creation": {
						"codeDepositCost": "383600",
						"executionCost": "418",
						"totalCost": "384018"
					},
					"external": {
						"getMessageHash(address,uint256)": "infinite",
						"recoverSigner(bytes32,bytes)": "infinite",
						"toEthSignedMessageHash(bytes32)": "infinite"
					},
					"internal": {
						"verify(bytes32,bytes memory,address)": "infinite"
					}
				},
				"methodIdentifiers": {
					"getMessageHash(address,uint256)": "512c91df",
					"recoverSigner(bytes32,bytes)": "97aba7f9",
					"toEthSignedMessageHash(bytes32)": "918a15cf"
				}
			},
			"storageLayout": {
				"storage": [],
				"types": null
			},
			"userdoc": {
				"kind": "user",
				"methods": {},
				"version": 1
			}
		}
	}
}