{
	"数字签名/TestDemo.sol": {
		"TestDmeo": {
			"abi": [
				{
					"inputs": [
						{
							"internalType": "address",
							"name": "_account",
							"type": "address"
						},
						{
							"internalType": "uint256",
							"name": "_tokenId",
							"type": "uint256"
						}
					],
					"name": "getMessageHash",
					"outputs": [
						{
							"internalType": "bytes32",
							"name": "",
							"type": "bytes32"
						}
					],
					"stateMutability": "pure",
					"type": "function"
				},
				{
					"inputs": [
						{
							"internalType": "bytes32",
							"name": "hash",
							"type": "bytes32"
						}
					],
					"name": "toEthSignedMessageHash",
					"outputs": [
						{
							"internalType": "bytes32",
							"name": "",
							"type": "bytes32"
						}
					],
					"stateMutability": "pure",
					"type": "function"
				}
			],
			"devdoc": {
				"kind": "dev",
				"methods": {
					"toEthSignedMessageHash(bytes32)": {
						"details": "返回 以太坊签名消息 `hash`：消息 遵从以太坊签名标准：https://eth.wiki/json-rpc/API#eth_sign[`eth_sign`] 以及`EIP191`:https://eips.ethereum.org/EIPS/eip-191` 添加\"\\x19Ethereum Signed Message:\\n32\"字段，防止签名的是可执行交易。"
					}
				},
				"version": 1
			},
			"evm": {
				"assembly": "    /* \"\\xe6\\x95\\xb0\\xe5\\xad\\x97\\xe7\\xad\\xbe\\xe5\\x90\\x8d/TestDemo.sol\":60:1082  contract TestDmeo{\r... */\n  mstore(0x40, 0x80)\n  callvalue\n  dup1\n  iszero\n  tag_1\n  jumpi\n  0x00\n  dup1\n  revert\ntag_1:\n  pop\n  dataSize(sub_0)\n  dup1\n  dataOffset(sub_0)\n  0x00\n  codecopy\n  0x00\n  return\nstop\n\nsub_0: assembly {\n        /* \"\\xe6\\x95\\xb0\\xe5\\xad\\x97\\xe7\\xad\\xbe\\xe5\\x90\\x8d/TestDemo.sol\":60:1082  contract TestDmeo{\r... */\n      mstore(0x40, 0x80)\n      callvalue\n      dup1\n      iszero\n      tag_1\n      jumpi\n      0x00\n      dup1\n      revert\n    tag_1:\n      pop\n      jumpi(tag_2, lt(calldatasize, 0x04))\n      shr(0xe0, calldataload(0x00))\n      dup1\n      0x512c91df\n      eq\n      tag_3\n      jumpi\n      dup1\n      0x918a15cf\n      eq\n      tag_4\n      jumpi\n    tag_2:\n      0x00\n      dup1\n      revert\n        /* \"\\xe6\\x95\\xb0\\xe5\\xad\\x97\\xe7\\xad\\xbe\\xe5\\x90\\x8d/TestDemo.sol\":370:531  function getMessageHash(address _account, uint256 _tokenId) public pure returns(bytes32){\r... */\n    tag_3:\n      tag_5\n      0x04\n      dup1\n      calldatasize\n      sub\n      dup2\n      add\n      swap1\n      tag_6\n      swap2\n      swap1\n      tag_7\n      jump\t// in\n    tag_6:\n      tag_8\n      jump\t// in\n    tag_5:\n      mload(0x40)\n      tag_9\n      swap2\n      swap1\n      tag_10\n      jump\t// in\n    tag_9:\n      mload(0x40)\n      dup1\n      swap2\n      sub\n      swap1\n      return\n        /* \"\\xe6\\x95\\xb0\\xe5\\xad\\x97\\xe7\\xad\\xbe\\xe5\\x90\\x8d/TestDemo.sol\":873:1077  function toEthSignedMessageHash(bytes32 hash) public pure returns (bytes32) {\r... */\n    tag_4:\n      tag_11\n      0x04\n      dup1\n      calldatasize\n      sub\n      dup2\n      add\n      swap1\n      tag_12\n      swap2\n      swap1\n      tag_13\n      jump\t// in\n    tag_12:\n      tag_14\n      jump\t// in\n    tag_11:\n      mload(0x40)\n      tag_15\n      swap2\n      swap1\n      tag_10\n      jump\t// in\n    tag_15:\n      mload(0x40)\n      dup1\n      swap2\n      sub\n      swap1\n      return\n        /* \"\\xe6\\x95\\xb0\\xe5\\xad\\x97\\xe7\\xad\\xbe\\xe5\\x90\\x8d/TestDemo.sol\":370:531  function getMessageHash(address _account, uint256 _tokenId) public pure returns(bytes32){\r... */\n    tag_8:\n        /* \"\\xe6\\x95\\xb0\\xe5\\xad\\x97\\xe7\\xad\\xbe\\xe5\\x90\\x8d/TestDemo.sol\":450:457  bytes32 */\n      0x00\n        /* \"\\xe6\\x95\\xb0\\xe5\\xad\\x97\\xe7\\xad\\xbe\\xe5\\x90\\x8d/TestDemo.sol\":503:511  _account */\n      dup3\n        /* \"\\xe6\\x95\\xb0\\xe5\\xad\\x97\\xe7\\xad\\xbe\\xe5\\x90\\x8d/TestDemo.sol\":513:521  _tokenId */\n      dup3\n        /* \"\\xe6\\x95\\xb0\\xe5\\xad\\x97\\xe7\\xad\\xbe\\xe5\\x90\\x8d/TestDemo.sol\":486:522  abi.encodePacked(_account, _tokenId) */\n      add(0x20, mload(0x40))\n      tag_17\n      swap3\n      swap2\n      swap1\n      tag_18\n      jump\t// in\n    tag_17:\n      mload(0x40)\n      0x20\n      dup2\n      dup4\n      sub\n      sub\n      dup2\n      mstore\n      swap1\n      0x40\n      mstore\n        /* \"\\xe6\\x95\\xb0\\xe5\\xad\\x97\\xe7\\xad\\xbe\\xe5\\x90\\x8d/TestDemo.sol\":476:523  keccak256(abi.encodePacked(_account, _tokenId)) */\n      dup1\n      mload\n      swap1\n      0x20\n      add\n      keccak256\n        /* \"\\xe6\\x95\\xb0\\xe5\\xad\\x97\\xe7\\xad\\xbe\\xe5\\x90\\x8d/TestDemo.sol\":469:523  return keccak256(abi.encodePacked(_account, _tokenId)) */\n      swap1\n      pop\n        /* \"\\xe6\\x95\\xb0\\xe5\\xad\\x97\\xe7\\xad\\xbe\\xe5\\x90\\x8d/TestDemo.sol\":370:531  function getMessageHash(address _account, uint256 _tokenId) public pure returns(bytes32){\r... */\n      swap3\n      swap2\n      pop\n      pop\n      jump\t// out\n        /* \"\\xe6\\x95\\xb0\\xe5\\xad\\x97\\xe7\\xad\\xbe\\xe5\\x90\\x8d/TestDemo.sol\":873:1077  function toEthSignedMessageHash(bytes32 hash) public pure returns (bytes32) {\r... */\n    tag_14:\n        /* \"\\xe6\\x95\\xb0\\xe5\\xad\\x97\\xe7\\xad\\xbe\\xe5\\x90\\x8d/TestDemo.sol\":940:947  bytes32 */\n      0x00\n        /* \"\\xe6\\x95\\xb0\\xe5\\xad\\x97\\xe7\\xad\\xbe\\xe5\\x90\\x8d/TestDemo.sol\":1063:1067  hash */\n      dup2\n        /* \"\\xe6\\x95\\xb0\\xe5\\xad\\x97\\xe7\\xad\\xbe\\xe5\\x90\\x8d/TestDemo.sol\":1010:1068  abi.encodePacked(\"\\x19Ethereum Signed Message:\\n32\", hash) */\n      add(0x20, mload(0x40))\n      tag_20\n      swap2\n      swap1\n      tag_21\n      jump\t// in\n    tag_20:\n      mload(0x40)\n      0x20\n      dup2\n      dup4\n      sub\n      sub\n      dup2\n      mstore\n      swap1\n      0x40\n      mstore\n        /* \"\\xe6\\x95\\xb0\\xe5\\xad\\x97\\xe7\\xad\\xbe\\xe5\\x90\\x8d/TestDemo.sol\":1000:1069  keccak256(abi.encodePacked(\"\\x19Ethereum Signed Message:\\n32\", hash)) */\n      dup1\n      mload\n      swap1\n      0x20\n      add\n      keccak256\n        /* \"\\xe6\\x95\\xb0\\xe5\\xad\\x97\\xe7\\xad\\xbe\\xe5\\x90\\x8d/TestDemo.sol\":993:1069  return keccak256(abi.encodePacked(\"\\x19Ethereum Signed Message:\\n32\", hash)) */\n      swap1\n      pop\n        /* \"\\xe6\\x95\\xb0\\xe5\\xad\\x97\\xe7\\xad\\xbe\\xe5\\x90\\x8d/TestDemo.sol\":873:1077  function toEthSignedMessageHash(bytes32 hash) public pure returns (bytes32) {\r... */\n      swap2\n      swap1\n      pop\n      jump\t// out\n        /* \"#utility.yul\":7:146   */\n    tag_23:\n        /* \"#utility.yul\":53:58   */\n      0x00\n        /* \"#utility.yul\":91:97   */\n      dup2\n        /* \"#utility.yul\":78:98   */\n      calldataload\n        /* \"#utility.yul\":69:98   */\n      swap1\n      pop\n        /* \"#utility.yul\":107:140   */\n      tag_25\n        /* \"#utility.yul\":134:139   */\n      dup2\n        /* \"#utility.yul\":107:140   */\n      tag_26\n      jump\t// in\n    tag_25:\n        /* \"#utility.yul\":7:146   */\n      swap3\n      swap2\n      pop\n      pop\n      jump\t// out\n        /* \"#utility.yul\":152:291   */\n    tag_27:\n        /* \"#utility.yul\":198:203   */\n      0x00\n        /* \"#utility.yul\":236:242   */\n      dup2\n        /* \"#utility.yul\":223:243   */\n      calldataload\n        /* \"#utility.yul\":214:243   */\n      swap1\n      pop\n        /* \"#utility.yul\":252:285   */\n      tag_29\n        /* \"#utility.yul\":279:284   */\n      dup2\n        /* \"#utility.yul\":252:285   */\n      tag_30\n      jump\t// in\n    tag_29:\n        /* \"#utility.yul\":152:291   */\n      swap3\n      swap2\n      pop\n      pop\n      jump\t// out\n        /* \"#utility.yul\":297:436   */\n    tag_31:\n        /* \"#utility.yul\":343:348   */\n      0x00\n        /* \"#utility.yul\":381:387   */\n      dup2\n        /* \"#utility.yul\":368:388   */\n      calldataload\n        /* \"#utility.yul\":359:388   */\n      swap1\n      pop\n        /* \"#utility.yul\":397:430   */\n      tag_33\n        /* \"#utility.yul\":424:429   */\n      dup2\n        /* \"#utility.yul\":397:430   */\n      tag_34\n      jump\t// in\n    tag_33:\n        /* \"#utility.yul\":297:436   */\n      swap3\n      swap2\n      pop\n      pop\n      jump\t// out\n        /* \"#utility.yul\":442:916   */\n    tag_7:\n        /* \"#utility.yul\":510:516   */\n      0x00\n        /* \"#utility.yul\":518:524   */\n      dup1\n        /* \"#utility.yul\":567:569   */\n      0x40\n        /* \"#utility.yul\":555:564   */\n      dup4\n        /* \"#utility.yul\":546:553   */\n      dup6\n        /* \"#utility.yul\":542:565   */\n      sub\n        /* \"#utility.yul\":538:570   */\n      slt\n        /* \"#utility.yul\":535:654   */\n      iszero\n      tag_36\n      jumpi\n        /* \"#utility.yul\":573:652   */\n      tag_37\n      tag_38\n      jump\t// in\n    tag_37:\n        /* \"#utility.yul\":535:654   */\n    tag_36:\n        /* \"#utility.yul\":693:694   */\n      0x00\n        /* \"#utility.yul\":718:771   */\n      tag_39\n        /* \"#utility.yul\":763:770   */\n      dup6\n        /* \"#utility.yul\":754:760   */\n      dup3\n        /* \"#utility.yul\":743:752   */\n      dup7\n        /* \"#utility.yul\":739:761   */\n      add\n        /* \"#utility.yul\":718:771   */\n      tag_23\n      jump\t// in\n    tag_39:\n        /* \"#utility.yul\":708:771   */\n      swap3\n      pop\n        /* \"#utility.yul\":664:781   */\n      pop\n        /* \"#utility.yul\":820:822   */\n      0x20\n        /* \"#utility.yul\":846:899   */\n      tag_40\n        /* \"#utility.yul\":891:898   */\n      dup6\n        /* \"#utility.yul\":882:888   */\n      dup3\n        /* \"#utility.yul\":871:880   */\n      dup7\n        /* \"#utility.yul\":867:889   */\n      add\n        /* \"#utility.yul\":846:899   */\n      tag_31\n      jump\t// in\n    tag_40:\n        /* \"#utility.yul\":836:899   */\n      swap2\n      pop\n        /* \"#utility.yul\":791:909   */\n      pop\n        /* \"#utility.yul\":442:916   */\n      swap3\n      pop\n      swap3\n      swap1\n      pop\n      jump\t// out\n        /* \"#utility.yul\":922:1251   */\n    tag_13:\n        /* \"#utility.yul\":981:987   */\n      0x00\n        /* \"#utility.yul\":1030:1032   */\n      0x20\n        /* \"#utility.yul\":1018:1027   */\n      dup3\n        /* \"#utility.yul\":1009:1016   */\n      dup5\n        /* \"#utility.yul\":1005:1028   */\n      sub\n        /* \"#utility.yul\":1001:1033   */\n      slt\n        /* \"#utility.yul\":998:1117   */\n      iszero\n      tag_42\n      jumpi\n        /* \"#utility.yul\":1036:1115   */\n      tag_43\n      tag_38\n      jump\t// in\n    tag_43:\n        /* \"#utility.yul\":998:1117   */\n    tag_42:\n        /* \"#utility.yul\":1156:1157   */\n      0x00\n        /* \"#utility.yul\":1181:1234   */\n      tag_44\n        /* \"#utility.yul\":1226:1233   */\n      dup5\n        /* \"#utility.yul\":1217:1223   */\n      dup3\n        /* \"#utility.yul\":1206:1215   */\n      dup6\n        /* \"#utility.yul\":1202:1224   */\n      add\n        /* \"#utility.yul\":1181:1234   */\n      tag_27\n      jump\t// in\n    tag_44:\n        /* \"#utility.yul\":1171:1234   */\n      swap2\n      pop\n        /* \"#utility.yul\":1127:1244   */\n      pop\n        /* \"#utility.yul\":922:1251   */\n      swap3\n      swap2\n      pop\n      pop\n      jump\t// out\n        /* \"#utility.yul\":1257:1414   */\n    tag_45:\n        /* \"#utility.yul\":1362:1407   */\n      tag_47\n        /* \"#utility.yul\":1382:1406   */\n      tag_48\n        /* \"#utility.yul\":1400:1405   */\n      dup3\n        /* \"#utility.yul\":1382:1406   */\n      tag_49\n      jump\t// in\n    tag_48:\n        /* \"#utility.yul\":1362:1407   */\n      tag_50\n      jump\t// in\n    tag_47:\n        /* \"#utility.yul\":1357:1360   */\n      dup3\n        /* \"#utility.yul\":1350:1408   */\n      mstore\n        /* \"#utility.yul\":1257:1414   */\n      pop\n      pop\n      jump\t// out\n        /* \"#utility.yul\":1420:1538   */\n    tag_51:\n        /* \"#utility.yul\":1507:1531   */\n      tag_53\n        /* \"#utility.yul\":1525:1530   */\n      dup2\n        /* \"#utility.yul\":1507:1531   */\n      tag_54\n      jump\t// in\n    tag_53:\n        /* \"#utility.yul\":1502:1505   */\n      dup3\n        /* \"#utility.yul\":1495:1532   */\n      mstore\n        /* \"#utility.yul\":1420:1538   */\n      pop\n      pop\n      jump\t// out\n        /* \"#utility.yul\":1544:1701   */\n    tag_55:\n        /* \"#utility.yul\":1649:1694   */\n      tag_57\n        /* \"#utility.yul\":1669:1693   */\n      tag_58\n        /* \"#utility.yul\":1687:1692   */\n      dup3\n        /* \"#utility.yul\":1669:1693   */\n      tag_54\n      jump\t// in\n    tag_58:\n        /* \"#utility.yul\":1649:1694   */\n      tag_59\n      jump\t// in\n    tag_57:\n        /* \"#utility.yul\":1644:1647   */\n      dup3\n        /* \"#utility.yul\":1637:1695   */\n      mstore\n        /* \"#utility.yul\":1544:1701   */\n      pop\n      pop\n      jump\t// out\n        /* \"#utility.yul\":1707:2109   */\n    tag_60:\n        /* \"#utility.yul\":1867:1870   */\n      0x00\n        /* \"#utility.yul\":1888:1973   */\n      tag_62\n        /* \"#utility.yul\":1970:1972   */\n      0x1c\n        /* \"#utility.yul\":1965:1968   */\n      dup4\n        /* \"#utility.yul\":1888:1973   */\n      tag_63\n      jump\t// in\n    tag_62:\n        /* \"#utility.yul\":1881:1973   */\n      swap2\n      pop\n        /* \"#utility.yul\":1982:2075   */\n      tag_64\n        /* \"#utility.yul\":2071:2074   */\n      dup3\n        /* \"#utility.yul\":1982:2075   */\n      tag_65\n      jump\t// in\n    tag_64:\n        /* \"#utility.yul\":2100:2102   */\n      0x1c\n        /* \"#utility.yul\":2095:2098   */\n      dup3\n        /* \"#utility.yul\":2091:2103   */\n      add\n        /* \"#utility.yul\":2084:2103   */\n      swap1\n      pop\n        /* \"#utility.yul\":1707:2109   */\n      swap2\n      swap1\n      pop\n      jump\t// out\n        /* \"#utility.yul\":2115:2272   */\n    tag_66:\n        /* \"#utility.yul\":2220:2265   */\n      tag_68\n        /* \"#utility.yul\":2240:2264   */\n      tag_69\n        /* \"#utility.yul\":2258:2263   */\n      dup3\n        /* \"#utility.yul\":2240:2264   */\n      tag_70\n      jump\t// in\n    tag_69:\n        /* \"#utility.yul\":2220:2265   */\n      tag_71\n      jump\t// in\n    tag_68:\n        /* \"#utility.yul\":2215:2218   */\n      dup3\n        /* \"#utility.yul\":2208:2266   */\n      mstore\n        /* \"#utility.yul\":2115:2272   */\n      pop\n      pop\n      jump\t// out\n        /* \"#utility.yul\":2278:2675   */\n    tag_18:\n        /* \"#utility.yul\":2418:2421   */\n      0x00\n        /* \"#utility.yul\":2433:2508   */\n      tag_73\n        /* \"#utility.yul\":2504:2507   */\n      dup3\n        /* \"#utility.yul\":2495:2501   */\n      dup6\n        /* \"#utility.yul\":2433:2508   */\n      tag_45\n      jump\t// in\n    tag_73:\n        /* \"#utility.yul\":2533:2535   */\n      0x14\n        /* \"#utility.yul\":2528:2531   */\n      dup3\n        /* \"#utility.yul\":2524:2536   */\n      add\n        /* \"#utility.yul\":2517:2536   */\n      swap2\n      pop\n        /* \"#utility.yul\":2546:2621   */\n      tag_74\n        /* \"#utility.yul\":2617:2620   */\n      dup3\n        /* \"#utility.yul\":2608:2614   */\n      dup5\n        /* \"#utility.yul\":2546:2621   */\n      tag_66\n      jump\t// in\n    tag_74:\n        /* \"#utility.yul\":2646:2648   */\n      0x20\n        /* \"#utility.yul\":2641:2644   */\n      dup3\n        /* \"#utility.yul\":2637:2649   */\n      add\n        /* \"#utility.yul\":2630:2649   */\n      swap2\n      pop\n        /* \"#utility.yul\":2666:2669   */\n      dup2\n        /* \"#utility.yul\":2659:2669   */\n      swap1\n      pop\n        /* \"#utility.yul\":2278:2675   */\n      swap4\n      swap3\n      pop\n      pop\n      pop\n      jump\t// out\n        /* \"#utility.yul\":2681:3203   */\n    tag_21:\n        /* \"#utility.yul\":2894:2897   */\n      0x00\n        /* \"#utility.yul\":2916:3064   */\n      tag_76\n        /* \"#utility.yul\":3060:3063   */\n      dup3\n        /* \"#utility.yul\":2916:3064   */\n      tag_60\n      jump\t// in\n    tag_76:\n        /* \"#utility.yul\":2909:3064   */\n      swap2\n      pop\n        /* \"#utility.yul\":3074:3149   */\n      tag_77\n        /* \"#utility.yul\":3145:3148   */\n      dup3\n        /* \"#utility.yul\":3136:3142   */\n      dup5\n        /* \"#utility.yul\":3074:3149   */\n      tag_55\n      jump\t// in\n    tag_77:\n        /* \"#utility.yul\":3174:3176   */\n      0x20\n        /* \"#utility.yul\":3169:3172   */\n      dup3\n        /* \"#utility.yul\":3165:3177   */\n      add\n        /* \"#utility.yul\":3158:3177   */\n      swap2\n      pop\n        /* \"#utility.yul\":3194:3197   */\n      dup2\n        /* \"#utility.yul\":3187:3197   */\n      swap1\n      pop\n        /* \"#utility.yul\":2681:3203   */\n      swap3\n      swap2\n      pop\n      pop\n      jump\t// out\n        /* \"#utility.yul\":3209:3431   */\n    tag_10:\n        /* \"#utility.yul\":3302:3306   */\n      0x00\n        /* \"#utility.yul\":3340:3342   */\n      0x20\n        /* \"#utility.yul\":3329:3338   */\n      dup3\n        /* \"#utility.yul\":3325:3343   */\n      add\n        /* \"#utility.yul\":3317:3343   */\n      swap1\n      pop\n        /* \"#utility.yul\":3353:3424   */\n      tag_79\n        /* \"#utility.yul\":3421:3422   */\n      0x00\n        /* \"#utility.yul\":3410:3419   */\n      dup4\n        /* \"#utility.yul\":3406:3423   */\n      add\n        /* \"#utility.yul\":3397:3403   */\n      dup5\n        /* \"#utility.yul\":3353:3424   */\n      tag_51\n      jump\t// in\n    tag_79:\n        /* \"#utility.yul\":3209:3431   */\n      swap3\n      swap2\n      pop\n      pop\n      jump\t// out\n        /* \"#utility.yul\":3518:3666   */\n    tag_63:\n        /* \"#utility.yul\":3620:3631   */\n      0x00\n        /* \"#utility.yul\":3657:3660   */\n      dup2\n        /* \"#utility.yul\":3642:3660   */\n      swap1\n      pop\n        /* \"#utility.yul\":3518:3666   */\n      swap3\n      swap2\n      pop\n      pop\n      jump\t// out\n        /* \"#utility.yul\":3672:3768   */\n    tag_49:\n        /* \"#utility.yul\":3709:3716   */\n      0x00\n        /* \"#utility.yul\":3738:3762   */\n      tag_84\n        /* \"#utility.yul\":3756:3761   */\n      dup3\n        /* \"#utility.yul\":3738:3762   */\n      tag_85\n      jump\t// in\n    tag_84:\n        /* \"#utility.yul\":3727:3762   */\n      swap1\n      pop\n        /* \"#utility.yul\":3672:3768   */\n      swap2\n      swap1\n      pop\n      jump\t// out\n        /* \"#utility.yul\":3774:3851   */\n    tag_54:\n        /* \"#utility.yul\":3811:3818   */\n      0x00\n        /* \"#utility.yul\":3840:3845   */\n      dup2\n        /* \"#utility.yul\":3829:3845   */\n      swap1\n      pop\n        /* \"#utility.yul\":3774:3851   */\n      swap2\n      swap1\n      pop\n      jump\t// out\n        /* \"#utility.yul\":3857:3983   */\n    tag_85:\n        /* \"#utility.yul\":3894:3901   */\n      0x00\n        /* \"#utility.yul\":3934:3976   */\n      0xffffffffffffffffffffffffffffffffffffffff\n        /* \"#utility.yul\":3927:3932   */\n      dup3\n        /* \"#utility.yul\":3923:3977   */\n      and\n        /* \"#utility.yul\":3912:3977   */\n      swap1\n      pop\n        /* \"#utility.yul\":3857:3983   */\n      swap2\n      swap1\n      pop\n      jump\t// out\n        /* \"#utility.yul\":3989:4066   */\n    tag_70:\n        /* \"#utility.yul\":4026:4033   */\n      0x00\n        /* \"#utility.yul\":4055:4060   */\n      dup2\n        /* \"#utility.yul\":4044:4060   */\n      swap1\n      pop\n        /* \"#utility.yul\":3989:4066   */\n      swap2\n      swap1\n      pop\n      jump\t// out\n        /* \"#utility.yul\":4072:4172   */\n    tag_50:\n        /* \"#utility.yul\":4111:4118   */\n      0x00\n        /* \"#utility.yul\":4140:4166   */\n      tag_90\n        /* \"#utility.yul\":4160:4165   */\n      dup3\n        /* \"#utility.yul\":4140:4166   */\n      tag_91\n      jump\t// in\n    tag_90:\n        /* \"#utility.yul\":4129:4166   */\n      swap1\n      pop\n        /* \"#utility.yul\":4072:4172   */\n      swap2\n      swap1\n      pop\n      jump\t// out\n        /* \"#utility.yul\":4178:4257   */\n    tag_59:\n        /* \"#utility.yul\":4217:4224   */\n      0x00\n        /* \"#utility.yul\":4246:4251   */\n      dup2\n        /* \"#utility.yul\":4235:4251   */\n      swap1\n      pop\n        /* \"#utility.yul\":4178:4257   */\n      swap2\n      swap1\n      pop\n      jump\t// out\n        /* \"#utility.yul\":4263:4357   */\n    tag_91:\n        /* \"#utility.yul\":4302:4309   */\n      0x00\n        /* \"#utility.yul\":4331:4351   */\n      tag_94\n        /* \"#utility.yul\":4345:4350   */\n      dup3\n        /* \"#utility.yul\":4331:4351   */\n      tag_95\n      jump\t// in\n    tag_94:\n        /* \"#utility.yul\":4320:4351   */\n      swap1\n      pop\n        /* \"#utility.yul\":4263:4357   */\n      swap2\n      swap1\n      pop\n      jump\t// out\n        /* \"#utility.yul\":4363:4442   */\n    tag_71:\n        /* \"#utility.yul\":4402:4409   */\n      0x00\n        /* \"#utility.yul\":4431:4436   */\n      dup2\n        /* \"#utility.yul\":4420:4436   */\n      swap1\n      pop\n        /* \"#utility.yul\":4363:4442   */\n      swap2\n      swap1\n      pop\n      jump\t// out\n        /* \"#utility.yul\":4571:4688   */\n    tag_38:\n        /* \"#utility.yul\":4680:4681   */\n      0x00\n        /* \"#utility.yul\":4677:4678   */\n      dup1\n        /* \"#utility.yul\":4670:4682   */\n      revert\n        /* \"#utility.yul\":4694:4788   */\n    tag_95:\n        /* \"#utility.yul\":4727:4735   */\n      0x00\n        /* \"#utility.yul\":4775:4780   */\n      dup2\n        /* \"#utility.yul\":4771:4773   */\n      0x60\n        /* \"#utility.yul\":4767:4781   */\n      shl\n        /* \"#utility.yul\":4746:4781   */\n      swap1\n      pop\n        /* \"#utility.yul\":4694:4788   */\n      swap2\n      swap1\n      pop\n      jump\t// out\n        /* \"#utility.yul\":4794:5008   */\n    tag_65:\n        /* \"#utility.yul\":4934:5000   */\n      0x19457468657265756d205369676e6564204d6573736167653a0a333200000000\n        /* \"#utility.yul\":4930:4931   */\n      0x00\n        /* \"#utility.yul\":4922:4928   */\n      dup3\n        /* \"#utility.yul\":4918:4932   */\n      add\n        /* \"#utility.yul\":4911:5001   */\n      mstore\n        /* \"#utility.yul\":4794:5008   */\n      pop\n      jump\t// out\n        /* \"#utility.yul\":5014:5136   */\n    tag_26:\n        /* \"#utility.yul\":5087:5111   */\n      tag_103\n        /* \"#utility.yul\":5105:5110   */\n      dup2\n        /* \"#utility.yul\":5087:5111   */\n      tag_49\n      jump\t// in\n    tag_103:\n        /* \"#utility.yul\":5080:5085   */\n      dup2\n        /* \"#utility.yul\":5077:5112   */\n      eq\n        /* \"#utility.yul\":5067:5130   */\n      tag_104\n      jumpi\n        /* \"#utility.yul\":5126:5127   */\n      0x00\n        /* \"#utility.yul\":5123:5124   */\n      dup1\n        /* \"#utility.yul\":5116:5128   */\n      revert\n        /* \"#utility.yul\":5067:5130   */\n    tag_104:\n        /* \"#utility.yul\":5014:5136   */\n      pop\n      jump\t// out\n        /* \"#utility.yul\":5142:5264   */\n    tag_30:\n        /* \"#utility.yul\":5215:5239   */\n      tag_106\n        /* \"#utility.yul\":5233:5238   */\n      dup2\n        /* \"#utility.yul\":5215:5239   */\n      tag_54\n      jump\t// in\n    tag_106:\n        /* \"#utility.yul\":5208:5213   */\n      dup2\n        /* \"#utility.yul\":5205:5240   */\n      eq\n        /* \"#utility.yul\":5195:5258   */\n      tag_107\n      jumpi\n        /* \"#utility.yul\":5254:5255   */\n      0x00\n        /* \"#utility.yul\":5251:5252   */\n      dup1\n        /* \"#utility.yul\":5244:5256   */\n      revert\n        /* \"#utility.yul\":5195:5258   */\n    tag_107:\n        /* \"#utility.yul\":5142:5264   */\n      pop\n      jump\t// out\n        /* \"#utility.yul\":5270:5392   */\n    tag_34:\n        /* \"#utility.yul\":5343:5367   */\n      tag_109\n        /* \"#utility.yul\":5361:5366   */\n      dup2\n        /* \"#utility.yul\":5343:5367   */\n      tag_70\n      jump\t// in\n    tag_109:\n        /* \"#utility.yul\":5336:5341   */\n      dup2\n        /* \"#utility.yul\":5333:5368   */\n      eq\n        /* \"#utility.yul\":5323:5386   */\n      tag_110\n      jumpi\n        /* \"#utility.yul\":5382:5383   */\n      0x00\n        /* \"#utility.yul\":5379:5380   */\n      dup1\n        /* \"#utility.yul\":5372:5384   */\n      revert\n        /* \"#utility.yul\":5323:5386   */\n    tag_110:\n        /* \"#utility.yul\":5270:5392   */\n      pop\n      jump\t// out\n\n    auxdata: 0xa26469706673582212203daf984fe8cd9b77b8bc6fe87bbf4bfab2255b1eafabd30d30e0ad47111b4e0364736f6c63430008070033\n}\n",
				"bytecode": {
					"linkReferences": {},
					"object": "608060405234801561001057600080fd5b506103cd806100206000396000f3fe608060405234801561001057600080fd5b50600436106100365760003560e01c8063512c91df1461003b578063918a15cf1461006b575b600080fd5b6100556004803603810190610050919061013d565b61009b565b6040516100629190610273565b60405180910390f35b6100856004803603810190610080919061017d565b6100ce565b6040516100929190610273565b60405180910390f35b600082826040516020016100b0929190610221565b60405160208183030381529060405280519060200120905092915050565b6000816040516020016100e1919061024d565b604051602081830303815290604052805190602001209050919050565b60008135905061010d81610352565b92915050565b60008135905061012281610369565b92915050565b60008135905061013781610380565b92915050565b6000806040838503121561015457610153610317565b5b6000610162858286016100fe565b925050602061017385828601610128565b9150509250929050565b60006020828403121561019357610192610317565b5b60006101a184828501610113565b91505092915050565b6101bb6101b682610299565b6102df565b82525050565b6101ca816102ab565b82525050565b6101e16101dc826102ab565b6102f1565b82525050565b60006101f4601c8361028e565b91506101ff82610329565b601c82019050919050565b61021b610216826102d5565b61030d565b82525050565b600061022d82856101aa565b60148201915061023d828461020a565b6020820191508190509392505050565b6000610258826101e7565b915061026482846101d0565b60208201915081905092915050565b600060208201905061028860008301846101c1565b92915050565b600081905092915050565b60006102a4826102b5565b9050919050565b6000819050919050565b600073ffffffffffffffffffffffffffffffffffffffff82169050919050565b6000819050919050565b60006102ea826102fb565b9050919050565b6000819050919050565b60006103068261031c565b9050919050565b6000819050919050565b600080fd5b60008160601b9050919050565b7f19457468657265756d205369676e6564204d6573736167653a0a333200000000600082015250565b61035b81610299565b811461036657600080fd5b50565b610372816102ab565b811461037d57600080fd5b50565b610389816102d5565b811461039457600080fd5b5056fea26469706673582212203daf984fe8cd9b77b8bc6fe87bbf4bfab2255b1eafabd30d30e0ad47111b4e0364736f6c63430008070033",
					"opcodes": "PUSH1 0x80 PUSH1 0x40 MSTORE CALLVALUE DUP1 ISZERO PUSH2 0x10 JUMPI PUSH1 0x0 DUP1 REVERT JUMPDEST POP PUSH2 0x3CD DUP1 PUSH2 0x20 PUSH1 0x0 CODECOPY PUSH1 0x0 RETURN INVALID PUSH1 0x80 PUSH1 0x40 MSTORE CALLVALUE DUP1 ISZERO PUSH2 0x10 JUMPI PUSH1 0x0 DUP1 REVERT JUMPDEST POP PUSH1 0x4 CALLDATASIZE LT PUSH2 0x36 JUMPI PUSH1 0x0 CALLDATALOAD PUSH1 0xE0 SHR DUP1 PUSH4 0x512C91DF EQ PUSH2 0x3B JUMPI DUP1 PUSH4 0x918A15CF EQ PUSH2 0x6B JUMPI JUMPDEST PUSH1 0x0 DUP1 REVERT JUMPDEST PUSH2 0x55 PUSH1 0x4 DUP1 CALLDATASIZE SUB DUP2 ADD SWAP1 PUSH2 0x50 SWAP2 SWAP1 PUSH2 0x13D JUMP JUMPDEST PUSH2 0x9B JUMP JUMPDEST PUSH1 0x40 MLOAD PUSH2 0x62 SWAP2 SWAP1 PUSH2 0x273 JUMP JUMPDEST PUSH1 0x40 MLOAD DUP1 SWAP2 SUB SWAP1 RETURN JUMPDEST PUSH2 0x85 PUSH1 0x4 DUP1 CALLDATASIZE SUB DUP2 ADD SWAP1 PUSH2 0x80 SWAP2 SWAP1 PUSH2 0x17D JUMP JUMPDEST PUSH2 0xCE JUMP JUMPDEST PUSH1 0x40 MLOAD PUSH2 0x92 SWAP2 SWAP1 PUSH2 0x273 JUMP JUMPDEST PUSH1 0x40 MLOAD DUP1 SWAP2 SUB SWAP1 RETURN JUMPDEST PUSH1 0x0 DUP3 DUP3 PUSH1 0x40 MLOAD PUSH1 0x20 ADD PUSH2 0xB0 SWAP3 SWAP2 SWAP1 PUSH2 0x221 JUMP JUMPDEST PUSH1 0x40 MLOAD PUSH1 0x20 DUP2 DUP4 SUB SUB DUP2 MSTORE SWAP1 PUSH1 0x40 MSTORE DUP1 MLOAD SWAP1 PUSH1 0x20 ADD KECCAK256 SWAP1 POP SWAP3 SWAP2 POP POP JUMP JUMPDEST PUSH1 0x0 DUP2 PUSH1 0x40 MLOAD PUSH1 0x20 ADD PUSH2 0xE1 SWAP2 SWAP1 PUSH2 0x24D JUMP JUMPDEST PUSH1 0x40 MLOAD PUSH1 0x20 DUP2 DUP4 SUB SUB DUP2 MSTORE SWAP1 PUSH1 0x40 MSTORE DUP1 MLOAD SWAP1 PUSH1 0x20 ADD KECCAK256 SWAP1 POP SWAP2 SWAP1 POP JUMP JUMPDEST PUSH1 0x0 DUP2 CALLDATALOAD SWAP1 POP PUSH2 0x10D DUP2 PUSH2 0x352 JUMP JUMPDEST SWAP3 SWAP2 POP POP JUMP JUMPDEST PUSH1 0x0 DUP2 CALLDATALOAD SWAP1 POP PUSH2 0x122 DUP2 PUSH2 0x369 JUMP JUMPDEST SWAP3 SWAP2 POP POP JUMP JUMPDEST PUSH1 0x0 DUP2 CALLDATALOAD SWAP1 POP PUSH2 0x137 DUP2 PUSH2 0x380 JUMP JUMPDEST SWAP3 SWAP2 POP POP JUMP JUMPDEST PUSH1 0x0 DUP1 PUSH1 0x40 DUP4 DUP6 SUB SLT ISZERO PUSH2 0x154 JUMPI PUSH2 0x153 PUSH2 0x317 JUMP JUMPDEST JUMPDEST PUSH1 0x0 PUSH2 0x162 DUP6 DUP3 DUP7 ADD PUSH2 0xFE JUMP JUMPDEST SWAP3 POP POP PUSH1 0x20 PUSH2 0x173 DUP6 DUP3 DUP7 ADD PUSH2 0x128 JUMP JUMPDEST SWAP2 POP POP SWAP3 POP SWAP3 SWAP1 POP JUMP JUMPDEST PUSH1 0x0 PUSH1 0x20 DUP3 DUP5 SUB SLT ISZERO PUSH2 0x193 JUMPI PUSH2 0x192 PUSH2 0x317 JUMP JUMPDEST JUMPDEST PUSH1 0x0 PUSH2 0x1A1 DUP5 DUP3 DUP6 ADD PUSH2 0x113 JUMP JUMPDEST SWAP2 POP POP SWAP3 SWAP2 POP POP JUMP JUMPDEST PUSH2 0x1BB PUSH2 0x1B6 DUP3 PUSH2 0x299 JUMP JUMPDEST PUSH2 0x2DF JUMP JUMPDEST DUP3 MSTORE POP POP JUMP JUMPDEST PUSH2 0x1CA DUP2 PUSH2 0x2AB JUMP JUMPDEST DUP3 MSTORE POP POP JUMP JUMPDEST PUSH2 0x1E1 PUSH2 0x1DC DUP3 PUSH2 0x2AB JUMP JUMPDEST PUSH2 0x2F1 JUMP JUMPDEST DUP3 MSTORE POP POP JUMP JUMPDEST PUSH1 0x0 PUSH2 0x1F4 PUSH1 0x1C DUP4 PUSH2 0x28E JUMP JUMPDEST SWAP2 POP PUSH2 0x1FF DUP3 PUSH2 0x329 JUMP JUMPDEST PUSH1 0x1C DUP3 ADD SWAP1 POP SWAP2 SWAP1 POP JUMP JUMPDEST PUSH2 0x21B PUSH2 0x216 DUP3 PUSH2 0x2D5 JUMP JUMPDEST PUSH2 0x30D JUMP JUMPDEST DUP3 MSTORE POP POP JUMP JUMPDEST PUSH1 0x0 PUSH2 0x22D DUP3 DUP6 PUSH2 0x1AA JUMP JUMPDEST PUSH1 0x14 DUP3 ADD SWAP2 POP PUSH2 0x23D DUP3 DUP5 PUSH2 0x20A JUMP JUMPDEST PUSH1 0x20 DUP3 ADD SWAP2 POP DUP2 SWAP1 POP SWAP4 SWAP3 POP POP POP JUMP JUMPDEST PUSH1 0x0 PUSH2 0x258 DUP3 PUSH2 0x1E7 JUMP JUMPDEST SWAP2 POP PUSH2 0x264 DUP3 DUP5 PUSH2 0x1D0 JUMP JUMPDEST PUSH1 0x20 DUP3 ADD SWAP2 POP DUP2 SWAP1 POP SWAP3 SWAP2 POP POP JUMP JUMPDEST PUSH1 0x0 PUSH1 0x20 DUP3 ADD SWAP1 POP PUSH2 0x288 PUSH1 0x0 DUP4 ADD DUP5 PUSH2 0x1C1 JUMP JUMPDEST SWAP3 SWAP2 POP POP JUMP JUMPDEST PUSH1 0x0 DUP2 SWAP1 POP SWAP3 SWAP2 POP POP JUMP JUMPDEST PUSH1 0x0 PUSH2 0x2A4 DUP3 PUSH2 0x2B5 JUMP JUMPDEST SWAP1 POP SWAP2 SWAP1 POP JUMP JUMPDEST PUSH1 0x0 DUP2 SWAP1 POP SWAP2 SWAP1 POP JUMP JUMPDEST PUSH1 0x0 PUSH20 0xFFFFFFFFFFFFFFFFFFFFFFFFFFFFFFFFFFFFFFFF DUP3 AND SWAP1 POP SWAP2 SWAP1 POP JUMP JUMPDEST PUSH1 0x0 DUP2 SWAP1 POP SWAP2 SWAP1 POP JUMP JUMPDEST PUSH1 0x0 PUSH2 0x2EA DUP3 PUSH2 0x2FB JUMP JUMPDEST SWAP1 POP SWAP2 SWAP1 POP JUMP JUMPDEST PUSH1 0x0 DUP2 SWAP1 POP SWAP2 SWAP1 POP JUMP JUMPDEST PUSH1 0x0 PUSH2 0x306 DUP3 PUSH2 0x31C JUMP JUMPDEST SWAP1 POP SWAP2 SWAP1 POP JUMP JUMPDEST PUSH1 0x0 DUP2 SWAP1 POP SWAP2 SWAP1 POP JUMP JUMPDEST PUSH1 0x0 DUP1 REVERT JUMPDEST PUSH1 0x0 DUP2 PUSH1 0x60 SHL SWAP1 POP SWAP2 SWAP1 POP JUMP JUMPDEST PUSH32 0x19457468657265756D205369676E6564204D6573736167653A0A333200000000 PUSH1 0x0 DUP3 ADD MSTORE POP JUMP JUMPDEST PUSH2 0x35B DUP2 PUSH2 0x299 JUMP JUMPDEST DUP2 EQ PUSH2 0x366 JUMPI PUSH1 0x0 DUP1 REVERT JUMPDEST POP JUMP JUMPDEST PUSH2 0x372 DUP2 PUSH2 0x2AB JUMP JUMPDEST DUP2 EQ PUSH2 0x37D JUMPI PUSH1 0x0 DUP1 REVERT JUMPDEST POP JUMP JUMPDEST PUSH2 0x389 DUP2 PUSH2 0x2D5 JUMP JUMPDEST DUP2 EQ PUSH2 0x394 JUMPI PUSH1 0x0 DUP1 REVERT JUMPDEST POP JUMP INVALID LOG2 PUSH5 0x6970667358 0x22 SLT KECCAK256 RETURNDATASIZE 0xAF SWAP9 0x4F 0xE8 0xCD SWAP12 PUSH24 0xB8BC6FE87BBF4BFAB2255B1EAFABD30D30E0AD47111B4E03 PUSH5 0x736F6C6343 STOP ADDMOD SMOD STOP CALLER "
				},
				"gasEstimates": {
					"creation": {
						"codeDepositCost": "194600",
						"executionCost": "238",
						"totalCost": "194838"
					},
					"external": {
						"getMessageHash(address,uint256)": "infinite",
						"toEthSignedMessageHash(bytes32)": "infinite"
					}
				},
				"methodIdentifiers": {
					"getMessageHash(address,uint256)": "512c91df",
					"toEthSignedMessageHash(bytes32)": "918a15cf"
				}
			},
			"storageLayout": {
				"storage": [],
				"types": null
			},
			"userdoc": {
				"kind": "user",
				"methods": {},
				"version": 1
			}
		}
	}
}