{
	"XEN/AttackFactory1.sol": {
		"AttackFactory": {
			"abi": [
				{
					"anonymous": false,
					"inputs": [
						{
							"indexed": true,
							"internalType": "address",
							"name": "previousOwner",
							"type": "address"
						},
						{
							"indexed": true,
							"internalType": "address",
							"name": "newOwner",
							"type": "address"
						}
					],
					"name": "OwnershipTransferred",
					"type": "event"
				},
				{
					"inputs": [],
					"name": "flag",
					"outputs": [
						{
							"internalType": "bool",
							"name": "",
							"type": "bool"
						}
					],
					"stateMutability": "view",
					"type": "function"
				},
				{
					"inputs": [],
					"name": "index",
					"outputs": [
						{
							"internalType": "uint256",
							"name": "",
							"type": "uint256"
						}
					],
					"stateMutability": "view",
					"type": "function"
				},
				{
					"inputs": [
						{
							"internalType": "uint256",
							"name": "",
							"type": "uint256"
						}
					],
					"name": "indexToAddress",
					"outputs": [
						{
							"internalType": "address",
							"name": "",
							"type": "address"
						}
					],
					"stateMutability": "view",
					"type": "function"
				},
				{
					"inputs": [],
					"name": "owner",
					"outputs": [
						{
							"internalType": "address",
							"name": "",
							"type": "address"
						}
					],
					"stateMutability": "view",
					"type": "function"
				},
				{
					"inputs": [],
					"name": "renounceOwnership",
					"outputs": [],
					"stateMutability": "nonpayable",
					"type": "function"
				},
				{
					"inputs": [],
					"name": "rewardIndex",
					"outputs": [
						{
							"internalType": "uint256",
							"name": "",
							"type": "uint256"
						}
					],
					"stateMutability": "view",
					"type": "function"
				},
				{
					"inputs": [],
					"name": "setFlag",
					"outputs": [],
					"stateMutability": "nonpayable",
					"type": "function"
				},
				{
					"inputs": [
						{
							"internalType": "uint256",
							"name": "_times",
							"type": "uint256"
						}
					],
					"name": "setTimes",
					"outputs": [],
					"stateMutability": "nonpayable",
					"type": "function"
				},
				{
					"inputs": [],
					"name": "times",
					"outputs": [
						{
							"internalType": "uint256",
							"name": "",
							"type": "uint256"
						}
					],
					"stateMutability": "view",
					"type": "function"
				},
				{
					"inputs": [
						{
							"internalType": "address",
							"name": "newOwner",
							"type": "address"
						}
					],
					"name": "transferOwnership",
					"outputs": [],
					"stateMutability": "nonpayable",
					"type": "function"
				},
				{
					"inputs": [
						{
							"internalType": "address payable",
							"name": "_address",
							"type": "address"
						}
					],
					"name": "withdraw",
					"outputs": [],
					"stateMutability": "nonpayable",
					"type": "function"
				},
				{
					"stateMutability": "payable",
					"type": "receive"
				}
			],
			"devdoc": {
				"kind": "dev",
				"methods": {
					"owner()": {
						"details": "Returns the address of the current owner."
					},
					"renounceOwnership()": {
						"details": "Leaves the contract without owner. It will not be possible to call `onlyOwner` functions anymore. Can only be called by the current owner. NOTE: Renouncing ownership will leave the contract without an owner, thereby removing any functionality that is only available to the owner."
					},
					"transferOwnership(address)": {
						"details": "Transfers ownership of the contract to a new account (`newOwner`). Can only be called by the current owner."
					}
				},
				"version": 1
			},
			"evm": {
				"assembly": "    /* \"XEN/AttackFactory1.sol\":213:1700  contract AttackFactory is Ownable{... */\n  mstore(0x40, 0x80)\n    /* \"XEN/AttackFactory1.sol\":417:418  5 */\n  0x05\n    /* \"XEN/AttackFactory1.sol\":394:418  uint256 public times = 5 */\n  dup1\n  sstore\n    /* \"XEN/AttackFactory1.sol\":213:1700  contract AttackFactory is Ownable{... */\n  callvalue\n  dup1\n  iszero\n  tag_1\n  jumpi\n  0x00\n  dup1\n  revert\ntag_1:\n  pop\n    /* \"@openzeppelin/contracts/access/Ownable.sol\":936:968  _transferOwnership(_msgSender()) */\n  tag_4\n    /* \"@openzeppelin/contracts/access/Ownable.sol\":955:967  _msgSender() */\n  tag_5\n    /* \"@openzeppelin/contracts/access/Ownable.sol\":955:965  _msgSender */\n  shl(0x20, tag_6)\n    /* \"@openzeppelin/contracts/access/Ownable.sol\":955:967  _msgSender() */\n  0x20\n  shr\n  jump\t// in\ntag_5:\n    /* \"@openzeppelin/contracts/access/Ownable.sol\":936:954  _transferOwnership */\n  shl(0x20, tag_7)\n    /* \"@openzeppelin/contracts/access/Ownable.sol\":936:968  _transferOwnership(_msgSender()) */\n  0x20\n  shr\n  jump\t// in\ntag_4:\n    /* \"XEN/AttackFactory1.sol\":213:1700  contract AttackFactory is Ownable{... */\n  jump(tag_8)\n    /* \"@openzeppelin/contracts/utils/Context.sol\":640:736  function _msgSender() internal view virtual returns (address) {... */\ntag_6:\n    /* \"@openzeppelin/contracts/utils/Context.sol\":693:700  address */\n  0x00\n    /* \"@openzeppelin/contracts/utils/Context.sol\":719:729  msg.sender */\n  caller\n    /* \"@openzeppelin/contracts/utils/Context.sol\":712:729  return msg.sender */\n  swap1\n  pop\n    /* \"@openzeppelin/contracts/utils/Context.sol\":640:736  function _msgSender() internal view virtual returns (address) {... */\n  swap1\n  jump\t// out\n    /* \"@openzeppelin/contracts/access/Ownable.sol\":2433:2620  function _transferOwnership(address newOwner) internal virtual {... */\ntag_7:\n    /* \"@openzeppelin/contracts/access/Ownable.sol\":2506:2522  address oldOwner */\n  0x00\n    /* \"@openzeppelin/contracts/access/Ownable.sol\":2525:2531  _owner */\n  dup1\n  0x00\n  swap1\n  sload\n  swap1\n  0x0100\n  exp\n  swap1\n  div\n  0xffffffffffffffffffffffffffffffffffffffff\n  and\n    /* \"@openzeppelin/contracts/access/Ownable.sol\":2506:2531  address oldOwner = _owner */\n  swap1\n  pop\n    /* \"@openzeppelin/contracts/access/Ownable.sol\":2550:2558  newOwner */\n  dup2\n    /* \"@openzeppelin/contracts/access/Ownable.sol\":2541:2547  _owner */\n  0x00\n  dup1\n    /* \"@openzeppelin/contracts/access/Ownable.sol\":2541:2558  _owner = newOwner */\n  0x0100\n  exp\n  dup2\n  sload\n  dup2\n  0xffffffffffffffffffffffffffffffffffffffff\n  mul\n  not\n  and\n  swap1\n  dup4\n  0xffffffffffffffffffffffffffffffffffffffff\n  and\n  mul\n  or\n  swap1\n  sstore\n  pop\n    /* \"@openzeppelin/contracts/access/Ownable.sol\":2604:2612  newOwner */\n  dup2\n    /* \"@openzeppelin/contracts/access/Ownable.sol\":2573:2613  OwnershipTransferred(oldOwner, newOwner) */\n  0xffffffffffffffffffffffffffffffffffffffff\n  and\n    /* \"@openzeppelin/contracts/access/Ownable.sol\":2594:2602  oldOwner */\n  dup2\n    /* \"@openzeppelin/contracts/access/Ownable.sol\":2573:2613  OwnershipTransferred(oldOwner, newOwner) */\n  0xffffffffffffffffffffffffffffffffffffffff\n  and\n  0x8be0079c531659141344cd1fd0a4f28419497f9722a3daafe3b4186f6b6457e0\n  mload(0x40)\n  mload(0x40)\n  dup1\n  swap2\n  sub\n  swap1\n  log3\n    /* \"@openzeppelin/contracts/access/Ownable.sol\":2496:2620  {... */\n  pop\n    /* \"@openzeppelin/contracts/access/Ownable.sol\":2433:2620  function _transferOwnership(address newOwner) internal virtual {... */\n  pop\n  jump\t// out\n    /* \"XEN/AttackFactory1.sol\":213:1700  contract AttackFactory is Ownable{... */\ntag_8:\n  dataSize(sub_0)\n  dup1\n  dataOffset(sub_0)\n  0x00\n  codecopy\n  0x00\n  return\nstop\n\nsub_0: assembly {\n        /* \"XEN/AttackFactory1.sol\":213:1700  contract AttackFactory is Ownable{... */\n      mstore(0x40, 0x80)\n      jumpi(tag_1, lt(calldatasize, 0x04))\n      shr(0xe0, calldataload(0x00))\n      dup1\n      0x8bc1f9ba\n      gt\n      tag_14\n      jumpi\n      dup1\n      0x8bc1f9ba\n      eq\n      tag_8\n      jumpi\n      dup1\n      0x8da5cb5b\n      eq\n      tag_9\n      jumpi\n      dup1\n      0x9e3b34bf\n      eq\n      tag_10\n      jumpi\n      dup1\n      0xe61ca819\n      eq\n      tag_11\n      jumpi\n      dup1\n      0xe9ee2fa9\n      eq\n      tag_12\n      jumpi\n      dup1\n      0xf2fde38b\n      eq\n      tag_13\n      jumpi\n      jump(tag_2)\n    tag_14:\n      dup1\n      0x2986c0e5\n      eq\n      tag_3\n      jumpi\n      dup1\n      0x51cff8d9\n      eq\n      tag_4\n      jumpi\n      dup1\n      0x62548c7b\n      eq\n      tag_5\n      jumpi\n      dup1\n      0x715018a6\n      eq\n      tag_6\n      jumpi\n      dup1\n      0x890eba68\n      eq\n      tag_7\n      jumpi\n      jump(tag_2)\n    tag_1:\n      jumpi(tag_2, calldatasize)\n        /* \"XEN/AttackFactory1.sol\":647:651  flag */\n      0x02\n      0x00\n      swap1\n      sload\n      swap1\n      0x0100\n      exp\n      swap1\n      div\n      0xff\n      and\n        /* \"XEN/AttackFactory1.sol\":643:1361  if(!flag){... */\n      tag_17\n      jumpi\n        /* \"XEN/AttackFactory1.sol\":667:685  uint256 localIndex */\n      0x00\n        /* \"XEN/AttackFactory1.sol\":688:693  index */\n      sload(0x03)\n        /* \"XEN/AttackFactory1.sol\":667:693  uint256 localIndex = index */\n      swap1\n      pop\n        /* \"XEN/AttackFactory1.sol\":713:719  uint i */\n      0x00\n        /* \"XEN/AttackFactory1.sol\":708:925  for (uint i = 0;i < times; i++){... */\n    tag_18:\n        /* \"XEN/AttackFactory1.sol\":728:733  times */\n      sload(0x05)\n        /* \"XEN/AttackFactory1.sol\":724:725  i */\n      dup2\n        /* \"XEN/AttackFactory1.sol\":724:733  i < times */\n      lt\n        /* \"XEN/AttackFactory1.sol\":708:925  for (uint i = 0;i < times; i++){... */\n      iszero\n      tag_19\n      jumpi\n        /* \"XEN/AttackFactory1.sol\":758:781  address contractAddress */\n      0x00\n        /* \"XEN/AttackFactory1.sol\":785:800  createAuction() */\n      tag_21\n        /* \"XEN/AttackFactory1.sol\":785:798  createAuction */\n      tag_22\n        /* \"XEN/AttackFactory1.sol\":785:800  createAuction() */\n      jump\t// in\n    tag_21:\n        /* \"XEN/AttackFactory1.sol\":758:800  address contractAddress =  createAuction() */\n      swap1\n      pop\n        /* \"XEN/AttackFactory1.sol\":848:863  contractAddress */\n      dup1\n        /* \"XEN/AttackFactory1.sol\":819:833  indexToAddress */\n      0x01\n        /* \"XEN/AttackFactory1.sol\":819:845  indexToAddress[localIndex] */\n      0x00\n        /* \"XEN/AttackFactory1.sol\":834:844  localIndex */\n      dup6\n        /* \"XEN/AttackFactory1.sol\":819:845  indexToAddress[localIndex] */\n      dup2\n      mstore\n      0x20\n      add\n      swap1\n      dup2\n      mstore\n      0x20\n      add\n      0x00\n      keccak256\n      0x00\n        /* \"XEN/AttackFactory1.sol\":819:863  indexToAddress[localIndex] = contractAddress */\n      0x0100\n      exp\n      dup2\n      sload\n      dup2\n      0xffffffffffffffffffffffffffffffffffffffff\n      mul\n      not\n      and\n      swap1\n      dup4\n      0xffffffffffffffffffffffffffffffffffffffff\n      and\n      mul\n      or\n      swap1\n      sstore\n      pop\n        /* \"XEN/AttackFactory1.sol\":908:909  1 */\n      0x01\n        /* \"XEN/AttackFactory1.sol\":895:905  localIndex */\n      dup4\n        /* \"XEN/AttackFactory1.sol\":895:909  localIndex + 1 */\n      tag_23\n      swap2\n      swap1\n      tag_24\n      jump\t// in\n    tag_23:\n        /* \"XEN/AttackFactory1.sol\":882:909  localIndex = localIndex + 1 */\n      swap3\n      pop\n        /* \"XEN/AttackFactory1.sol\":739:925  {... */\n      pop\n        /* \"XEN/AttackFactory1.sol\":735:738  i++ */\n      dup1\n      dup1\n      tag_25\n      swap1\n      tag_26\n      jump\t// in\n    tag_25:\n      swap2\n      pop\n      pop\n        /* \"XEN/AttackFactory1.sol\":708:925  for (uint i = 0;i < times; i++){... */\n      jump(tag_18)\n    tag_19:\n      pop\n        /* \"XEN/AttackFactory1.sol\":955:960  times */\n      sload(0x05)\n        /* \"XEN/AttackFactory1.sol\":947:952  index */\n      sload(0x03)\n        /* \"XEN/AttackFactory1.sol\":947:960  index + times */\n      tag_27\n      swap2\n      swap1\n      tag_24\n      jump\t// in\n    tag_27:\n        /* \"XEN/AttackFactory1.sol\":939:944  index */\n      0x03\n        /* \"XEN/AttackFactory1.sol\":939:960  index = index + times */\n      dup2\n      swap1\n      sstore\n      pop\n        /* \"XEN/AttackFactory1.sol\":652:972  {... */\n      pop\n        /* \"XEN/AttackFactory1.sol\":643:1361  if(!flag){... */\n      jump(tag_28)\n    tag_17:\n        /* \"XEN/AttackFactory1.sol\":1001:1022  uint localRewardIndex */\n      0x00\n        /* \"XEN/AttackFactory1.sol\":1025:1036  rewardIndex */\n      sload(0x04)\n        /* \"XEN/AttackFactory1.sol\":1001:1036  uint localRewardIndex = rewardIndex */\n      swap1\n      pop\n        /* \"XEN/AttackFactory1.sol\":1056:1062  uint i */\n      0x00\n        /* \"XEN/AttackFactory1.sol\":1051:1288  for (uint i = 0; i < times; i++){... */\n    tag_29:\n        /* \"XEN/AttackFactory1.sol\":1072:1077  times */\n      sload(0x05)\n        /* \"XEN/AttackFactory1.sol\":1068:1069  i */\n      dup2\n        /* \"XEN/AttackFactory1.sol\":1068:1077  i < times */\n      lt\n        /* \"XEN/AttackFactory1.sol\":1051:1288  for (uint i = 0; i < times; i++){... */\n      iszero\n      tag_30\n      jumpi\n        /* \"XEN/AttackFactory1.sol\":1102:1120  address desAddress */\n      0x00\n        /* \"XEN/AttackFactory1.sol\":1123:1137  indexToAddress */\n      0x01\n        /* \"XEN/AttackFactory1.sol\":1123:1155  indexToAddress[localRewardIndex] */\n      0x00\n        /* \"XEN/AttackFactory1.sol\":1138:1154  localRewardIndex */\n      dup5\n        /* \"XEN/AttackFactory1.sol\":1123:1155  indexToAddress[localRewardIndex] */\n      dup2\n      mstore\n      0x20\n      add\n      swap1\n      dup2\n      mstore\n      0x20\n      add\n      0x00\n      keccak256\n      0x00\n      swap1\n      sload\n      swap1\n      0x0100\n      exp\n      swap1\n      div\n      0xffffffffffffffffffffffffffffffffffffffff\n      and\n        /* \"XEN/AttackFactory1.sol\":1102:1155  address desAddress = indexToAddress[localRewardIndex] */\n      swap1\n      pop\n        /* \"XEN/AttackFactory1.sol\":1182:1192  desAddress */\n      dup1\n        /* \"XEN/AttackFactory1.sol\":1174:1211  IActive(desAddress).rewardAndTransfer */\n      0xffffffffffffffffffffffffffffffffffffffff\n      and\n      0x68ae560d\n        /* \"XEN/AttackFactory1.sol\":1174:1213  IActive(desAddress).rewardAndTransfer() */\n      mload(0x40)\n      dup2\n      0xffffffff\n      and\n      0xe0\n      shl\n      dup2\n      mstore\n      0x04\n      add\n      0x00\n      mload(0x40)\n      dup1\n      dup4\n      sub\n      dup2\n      0x00\n      dup8\n      dup1\n      extcodesize\n      iszero\n      dup1\n      iszero\n      tag_32\n      jumpi\n      0x00\n      dup1\n      revert\n    tag_32:\n      pop\n      gas\n      call\n      iszero\n      dup1\n      iszero\n      tag_34\n      jumpi\n      returndatasize\n      0x00\n      dup1\n      returndatacopy\n      revert(0x00, returndatasize)\n    tag_34:\n      pop\n      pop\n      pop\n      pop\n        /* \"XEN/AttackFactory1.sol\":1270:1271  1 */\n      0x01\n        /* \"XEN/AttackFactory1.sol\":1251:1267  localRewardIndex */\n      dup4\n        /* \"XEN/AttackFactory1.sol\":1251:1271  localRewardIndex + 1 */\n      tag_35\n      swap2\n      swap1\n      tag_24\n      jump\t// in\n    tag_35:\n        /* \"XEN/AttackFactory1.sol\":1232:1271  localRewardIndex = localRewardIndex + 1 */\n      swap3\n      pop\n        /* \"XEN/AttackFactory1.sol\":1083:1288  {... */\n      pop\n        /* \"XEN/AttackFactory1.sol\":1079:1082  i++ */\n      dup1\n      dup1\n      tag_36\n      swap1\n      tag_26\n      jump\t// in\n    tag_36:\n      swap2\n      pop\n      pop\n        /* \"XEN/AttackFactory1.sol\":1051:1288  for (uint i = 0; i < times; i++){... */\n      jump(tag_29)\n    tag_30:\n      pop\n        /* \"XEN/AttackFactory1.sol\":1330:1335  times */\n      sload(0x05)\n        /* \"XEN/AttackFactory1.sol\":1316:1327  rewardIndex */\n      sload(0x04)\n        /* \"XEN/AttackFactory1.sol\":1316:1335  rewardIndex + times */\n      tag_37\n      swap2\n      swap1\n      tag_24\n      jump\t// in\n    tag_37:\n        /* \"XEN/AttackFactory1.sol\":1302:1313  rewardIndex */\n      0x04\n        /* \"XEN/AttackFactory1.sol\":1302:1335  rewardIndex = rewardIndex + times */\n      dup2\n      swap1\n      sstore\n      pop\n        /* \"XEN/AttackFactory1.sol\":986:1361  {... */\n      pop\n        /* \"XEN/AttackFactory1.sol\":643:1361  if(!flag){... */\n    tag_28:\n        /* \"XEN/AttackFactory1.sol\":213:1700  contract AttackFactory is Ownable{... */\n      stop\n    tag_2:\n      0x00\n      dup1\n      revert\n        /* \"XEN/AttackFactory1.sol\":334:354  uint256 public index */\n    tag_3:\n      callvalue\n      dup1\n      iszero\n      tag_38\n      jumpi\n      0x00\n      dup1\n      revert\n    tag_38:\n      pop\n      tag_39\n      tag_40\n      jump\t// in\n    tag_39:\n      mload(0x40)\n      tag_41\n      swap2\n      swap1\n      tag_42\n      jump\t// in\n    tag_41:\n      mload(0x40)\n      dup1\n      swap2\n      sub\n      swap1\n      return\n        /* \"XEN/AttackFactory1.sol\":1583:1693  function withdraw(address payable _address) public {... */\n    tag_4:\n      callvalue\n      dup1\n      iszero\n      tag_43\n      jumpi\n      0x00\n      dup1\n      revert\n    tag_43:\n      pop\n      tag_44\n      0x04\n      dup1\n      calldatasize\n      sub\n      dup2\n      add\n      swap1\n      tag_45\n      swap2\n      swap1\n      tag_46\n      jump\t// in\n    tag_45:\n      tag_47\n      jump\t// in\n    tag_44:\n      stop\n        /* \"XEN/AttackFactory1.sol\":524:594  function setFlag() public onlyOwner() { ... */\n    tag_5:\n      callvalue\n      dup1\n      iszero\n      tag_48\n      jumpi\n      0x00\n      dup1\n      revert\n    tag_48:\n      pop\n      tag_49\n      tag_50\n      jump\t// in\n    tag_49:\n      stop\n        /* \"@openzeppelin/contracts/access/Ownable.sol\":1831:1932  function renounceOwnership() public virtual onlyOwner {... */\n    tag_6:\n      callvalue\n      dup1\n      iszero\n      tag_51\n      jumpi\n      0x00\n      dup1\n      revert\n    tag_51:\n      pop\n      tag_52\n      tag_53\n      jump\t// in\n    tag_52:\n      stop\n        /* \"XEN/AttackFactory1.sol\":309:325  bool public flag */\n    tag_7:\n      callvalue\n      dup1\n      iszero\n      tag_54\n      jumpi\n      0x00\n      dup1\n      revert\n    tag_54:\n      pop\n      tag_55\n      tag_56\n      jump\t// in\n    tag_55:\n      mload(0x40)\n      tag_57\n      swap2\n      swap1\n      tag_58\n      jump\t// in\n    tag_57:\n      mload(0x40)\n      dup1\n      swap2\n      sub\n      swap1\n      return\n        /* \"XEN/AttackFactory1.sol\":427:516  function setTimes(uint256 _times) external onlyOwner() { ... */\n    tag_8:\n      callvalue\n      dup1\n      iszero\n      tag_59\n      jumpi\n      0x00\n      dup1\n      revert\n    tag_59:\n      pop\n      tag_60\n      0x04\n      dup1\n      calldatasize\n      sub\n      dup2\n      add\n      swap1\n      tag_61\n      swap2\n      swap1\n      tag_62\n      jump\t// in\n    tag_61:\n      tag_63\n      jump\t// in\n    tag_60:\n      stop\n        /* \"@openzeppelin/contracts/access/Ownable.sol\":1201:1286  function owner() public view virtual returns (address) {... */\n    tag_9:\n      callvalue\n      dup1\n      iszero\n      tag_64\n      jumpi\n      0x00\n      dup1\n      revert\n    tag_64:\n      pop\n      tag_65\n      tag_66\n      jump\t// in\n    tag_65:\n      mload(0x40)\n      tag_67\n      swap2\n      swap1\n      tag_68\n      jump\t// in\n    tag_67:\n      mload(0x40)\n      dup1\n      swap2\n      sub\n      swap1\n      return\n        /* \"XEN/AttackFactory1.sol\":394:418  uint256 public times = 5 */\n    tag_10:\n      callvalue\n      dup1\n      iszero\n      tag_69\n      jumpi\n      0x00\n      dup1\n      revert\n    tag_69:\n      pop\n      tag_70\n      tag_71\n      jump\t// in\n    tag_70:\n      mload(0x40)\n      tag_72\n      swap2\n      swap1\n      tag_42\n      jump\t// in\n    tag_72:\n      mload(0x40)\n      dup1\n      swap2\n      sub\n      swap1\n      return\n        /* \"XEN/AttackFactory1.sol\":255:302  mapping(uint256=>address) public indexToAddress */\n    tag_11:\n      callvalue\n      dup1\n      iszero\n      tag_73\n      jumpi\n      0x00\n      dup1\n      revert\n    tag_73:\n      pop\n      tag_74\n      0x04\n      dup1\n      calldatasize\n      sub\n      dup2\n      add\n      swap1\n      tag_75\n      swap2\n      swap1\n      tag_62\n      jump\t// in\n    tag_75:\n      tag_76\n      jump\t// in\n    tag_74:\n      mload(0x40)\n      tag_77\n      swap2\n      swap1\n      tag_68\n      jump\t// in\n    tag_77:\n      mload(0x40)\n      dup1\n      swap2\n      sub\n      swap1\n      return\n        /* \"XEN/AttackFactory1.sol\":361:387  uint256 public rewardIndex */\n    tag_12:\n      callvalue\n      dup1\n      iszero\n      tag_78\n      jumpi\n      0x00\n      dup1\n      revert\n    tag_78:\n      pop\n      tag_79\n      tag_80\n      jump\t// in\n    tag_79:\n      mload(0x40)\n      tag_81\n      swap2\n      swap1\n      tag_42\n      jump\t// in\n    tag_81:\n      mload(0x40)\n      dup1\n      swap2\n      sub\n      swap1\n      return\n        /* \"@openzeppelin/contracts/access/Ownable.sol\":2081:2279  function transferOwnership(address newOwner) public virtual onlyOwner {... */\n    tag_13:\n      callvalue\n      dup1\n      iszero\n      tag_82\n      jumpi\n      0x00\n      dup1\n      revert\n    tag_82:\n      pop\n      tag_83\n      0x04\n      dup1\n      calldatasize\n      sub\n      dup2\n      add\n      swap1\n      tag_84\n      swap2\n      swap1\n      tag_85\n      jump\t// in\n    tag_84:\n      tag_86\n      jump\t// in\n    tag_83:\n      stop\n        /* \"XEN/AttackFactory1.sol\":1390:1522  function createAuction() private  returns (address) {... */\n    tag_22:\n        /* \"XEN/AttackFactory1.sol\":1433:1440  address */\n      0x00\n        /* \"XEN/AttackFactory1.sol\":1453:1466  Active active */\n      dup1\n        /* \"XEN/AttackFactory1.sol\":1469:1481  new Active() */\n      mload(0x40)\n      tag_88\n      swap1\n      tag_89\n      jump\t// in\n    tag_88:\n      mload(0x40)\n      dup1\n      swap2\n      sub\n      swap1\n      0x00\n      create\n      dup1\n      iszero\n      dup1\n      iszero\n      tag_90\n      jumpi\n      returndatasize\n      0x00\n      dup1\n      returndatacopy\n      revert(0x00, returndatasize)\n    tag_90:\n      pop\n        /* \"XEN/AttackFactory1.sol\":1453:1481  Active active = new Active() */\n      swap1\n      pop\n        /* \"XEN/AttackFactory1.sol\":1507:1513  active */\n      dup1\n        /* \"XEN/AttackFactory1.sol\":1492:1514  return address(active) */\n      swap2\n      pop\n      pop\n        /* \"XEN/AttackFactory1.sol\":1390:1522  function createAuction() private  returns (address) {... */\n      swap1\n      jump\t// out\n        /* \"XEN/AttackFactory1.sol\":334:354  uint256 public index */\n    tag_40:\n      sload(0x03)\n      dup2\n      jump\t// out\n        /* \"XEN/AttackFactory1.sol\":1583:1693  function withdraw(address payable _address) public {... */\n    tag_47:\n        /* \"XEN/AttackFactory1.sol\":1645:1653  _address */\n      dup1\n        /* \"XEN/AttackFactory1.sol\":1645:1662  _address.transfer */\n      0xffffffffffffffffffffffffffffffffffffffff\n      and\n        /* \"XEN/AttackFactory1.sol\":1645:1685  _address.transfer(address(this).balance) */\n      0x08fc\n        /* \"XEN/AttackFactory1.sol\":1663:1684  address(this).balance */\n      selfbalance\n        /* \"XEN/AttackFactory1.sol\":1645:1685  _address.transfer(address(this).balance) */\n      swap1\n      dup2\n      iszero\n      mul\n      swap1\n      mload(0x40)\n      0x00\n      mload(0x40)\n      dup1\n      dup4\n      sub\n      dup2\n      dup6\n      dup9\n      dup9\n      call\n      swap4\n      pop\n      pop\n      pop\n      pop\n      iszero\n      dup1\n      iszero\n      tag_93\n      jumpi\n      returndatasize\n      0x00\n      dup1\n      returndatacopy\n      revert(0x00, returndatasize)\n    tag_93:\n      pop\n        /* \"XEN/AttackFactory1.sol\":1583:1693  function withdraw(address payable _address) public {... */\n      pop\n      jump\t// out\n        /* \"XEN/AttackFactory1.sol\":524:594  function setFlag() public onlyOwner() { ... */\n    tag_50:\n        /* \"@openzeppelin/contracts/access/Ownable.sol\":1094:1107  _checkOwner() */\n      tag_95\n        /* \"@openzeppelin/contracts/access/Ownable.sol\":1094:1105  _checkOwner */\n      tag_96\n        /* \"@openzeppelin/contracts/access/Ownable.sol\":1094:1107  _checkOwner() */\n      jump\t// in\n    tag_95:\n        /* \"XEN/AttackFactory1.sol\":582:586  flag */\n      0x02\n      0x00\n      swap1\n      sload\n      swap1\n      0x0100\n      exp\n      swap1\n      div\n      0xff\n      and\n        /* \"XEN/AttackFactory1.sol\":581:586  !flag */\n      iszero\n        /* \"XEN/AttackFactory1.sol\":574:578  flag */\n      0x02\n      0x00\n        /* \"XEN/AttackFactory1.sol\":574:586  flag = !flag */\n      0x0100\n      exp\n      dup2\n      sload\n      dup2\n      0xff\n      mul\n      not\n      and\n      swap1\n      dup4\n      iszero\n      iszero\n      mul\n      or\n      swap1\n      sstore\n      pop\n        /* \"XEN/AttackFactory1.sol\":524:594  function setFlag() public onlyOwner() { ... */\n      jump\t// out\n        /* \"@openzeppelin/contracts/access/Ownable.sol\":1831:1932  function renounceOwnership() public virtual onlyOwner {... */\n    tag_53:\n        /* \"@openzeppelin/contracts/access/Ownable.sol\":1094:1107  _checkOwner() */\n      tag_99\n        /* \"@openzeppelin/contracts/access/Ownable.sol\":1094:1105  _checkOwner */\n      tag_96\n        /* \"@openzeppelin/contracts/access/Ownable.sol\":1094:1107  _checkOwner() */\n      jump\t// in\n    tag_99:\n        /* \"@openzeppelin/contracts/access/Ownable.sol\":1895:1925  _transferOwnership(address(0)) */\n      tag_101\n        /* \"@openzeppelin/contracts/access/Ownable.sol\":1922:1923  0 */\n      0x00\n        /* \"@openzeppelin/contracts/access/Ownable.sol\":1895:1913  _transferOwnership */\n      tag_102\n        /* \"@openzeppelin/contracts/access/Ownable.sol\":1895:1925  _transferOwnership(address(0)) */\n      jump\t// in\n    tag_101:\n        /* \"@openzeppelin/contracts/access/Ownable.sol\":1831:1932  function renounceOwnership() public virtual onlyOwner {... */\n      jump\t// out\n        /* \"XEN/AttackFactory1.sol\":309:325  bool public flag */\n    tag_56:\n      0x02\n      0x00\n      swap1\n      sload\n      swap1\n      0x0100\n      exp\n      swap1\n      div\n      0xff\n      and\n      dup2\n      jump\t// out\n        /* \"XEN/AttackFactory1.sol\":427:516  function setTimes(uint256 _times) external onlyOwner() { ... */\n    tag_63:\n        /* \"@openzeppelin/contracts/access/Ownable.sol\":1094:1107  _checkOwner() */\n      tag_104\n        /* \"@openzeppelin/contracts/access/Ownable.sol\":1094:1105  _checkOwner */\n      tag_96\n        /* \"@openzeppelin/contracts/access/Ownable.sol\":1094:1107  _checkOwner() */\n      jump\t// in\n    tag_104:\n        /* \"XEN/AttackFactory1.sol\":502:508  _times */\n      dup1\n        /* \"XEN/AttackFactory1.sol\":494:499  times */\n      0x05\n        /* \"XEN/AttackFactory1.sol\":494:508  times = _times */\n      dup2\n      swap1\n      sstore\n      pop\n        /* \"XEN/AttackFactory1.sol\":427:516  function setTimes(uint256 _times) external onlyOwner() { ... */\n      pop\n      jump\t// out\n        /* \"@openzeppelin/contracts/access/Ownable.sol\":1201:1286  function owner() public view virtual returns (address) {... */\n    tag_66:\n        /* \"@openzeppelin/contracts/access/Ownable.sol\":1247:1254  address */\n      0x00\n        /* \"@openzeppelin/contracts/access/Ownable.sol\":1273:1279  _owner */\n      dup1\n      0x00\n      swap1\n      sload\n      swap1\n      0x0100\n      exp\n      swap1\n      div\n      0xffffffffffffffffffffffffffffffffffffffff\n      and\n        /* \"@openzeppelin/contracts/access/Ownable.sol\":1266:1279  return _owner */\n      swap1\n      pop\n        /* \"@openzeppelin/contracts/access/Ownable.sol\":1201:1286  function owner() public view virtual returns (address) {... */\n      swap1\n      jump\t// out\n        /* \"XEN/AttackFactory1.sol\":394:418  uint256 public times = 5 */\n    tag_71:\n      sload(0x05)\n      dup2\n      jump\t// out\n        /* \"XEN/AttackFactory1.sol\":255:302  mapping(uint256=>address) public indexToAddress */\n    tag_76:\n      mstore(0x20, 0x01)\n      dup1\n      0x00\n      mstore\n      keccak256(0x00, 0x40)\n      0x00\n      swap2\n      pop\n      sload\n      swap1\n      0x0100\n      exp\n      swap1\n      div\n      0xffffffffffffffffffffffffffffffffffffffff\n      and\n      dup2\n      jump\t// out\n        /* \"XEN/AttackFactory1.sol\":361:387  uint256 public rewardIndex */\n    tag_80:\n      sload(0x04)\n      dup2\n      jump\t// out\n        /* \"@openzeppelin/contracts/access/Ownable.sol\":2081:2279  function transferOwnership(address newOwner) public virtual onlyOwner {... */\n    tag_86:\n        /* \"@openzeppelin/contracts/access/Ownable.sol\":1094:1107  _checkOwner() */\n      tag_108\n        /* \"@openzeppelin/contracts/access/Ownable.sol\":1094:1105  _checkOwner */\n      tag_96\n        /* \"@openzeppelin/contracts/access/Ownable.sol\":1094:1107  _checkOwner() */\n      jump\t// in\n    tag_108:\n        /* \"@openzeppelin/contracts/access/Ownable.sol\":2189:2190  0 */\n      0x00\n        /* \"@openzeppelin/contracts/access/Ownable.sol\":2169:2191  newOwner != address(0) */\n      0xffffffffffffffffffffffffffffffffffffffff\n      and\n        /* \"@openzeppelin/contracts/access/Ownable.sol\":2169:2177  newOwner */\n      dup2\n        /* \"@openzeppelin/contracts/access/Ownable.sol\":2169:2191  newOwner != address(0) */\n      0xffffffffffffffffffffffffffffffffffffffff\n      and\n      sub\n        /* \"@openzeppelin/contracts/access/Ownable.sol\":2161:2234  require(newOwner != address(0), \"Ownable: new owner is the zero address\") */\n      tag_110\n      jumpi\n      mload(0x40)\n      0x08c379a000000000000000000000000000000000000000000000000000000000\n      dup2\n      mstore\n      0x04\n      add\n      tag_111\n      swap1\n      tag_112\n      jump\t// in\n    tag_111:\n      mload(0x40)\n      dup1\n      swap2\n      sub\n      swap1\n      revert\n    tag_110:\n        /* \"@openzeppelin/contracts/access/Ownable.sol\":2244:2272  _transferOwnership(newOwner) */\n      tag_113\n        /* \"@openzeppelin/contracts/access/Ownable.sol\":2263:2271  newOwner */\n      dup2\n        /* \"@openzeppelin/contracts/access/Ownable.sol\":2244:2262  _transferOwnership */\n      tag_102\n        /* \"@openzeppelin/contracts/access/Ownable.sol\":2244:2272  _transferOwnership(newOwner) */\n      jump\t// in\n    tag_113:\n        /* \"@openzeppelin/contracts/access/Ownable.sol\":2081:2279  function transferOwnership(address newOwner) public virtual onlyOwner {... */\n      pop\n      jump\t// out\n        /* \"@openzeppelin/contracts/access/Ownable.sol\":1359:1489  function _checkOwner() internal view virtual {... */\n    tag_96:\n        /* \"@openzeppelin/contracts/access/Ownable.sol\":1433:1445  _msgSender() */\n      tag_115\n        /* \"@openzeppelin/contracts/access/Ownable.sol\":1433:1443  _msgSender */\n      tag_116\n        /* \"@openzeppelin/contracts/access/Ownable.sol\":1433:1445  _msgSender() */\n      jump\t// in\n    tag_115:\n        /* \"@openzeppelin/contracts/access/Ownable.sol\":1422:1445  owner() == _msgSender() */\n      0xffffffffffffffffffffffffffffffffffffffff\n      and\n        /* \"@openzeppelin/contracts/access/Ownable.sol\":1422:1429  owner() */\n      tag_117\n        /* \"@openzeppelin/contracts/access/Ownable.sol\":1422:1427  owner */\n      tag_66\n        /* \"@openzeppelin/contracts/access/Ownable.sol\":1422:1429  owner() */\n      jump\t// in\n    tag_117:\n        /* \"@openzeppelin/contracts/access/Ownable.sol\":1422:1445  owner() == _msgSender() */\n      0xffffffffffffffffffffffffffffffffffffffff\n      and\n      eq\n        /* \"@openzeppelin/contracts/access/Ownable.sol\":1414:1482  require(owner() == _msgSender(), \"Ownable: caller is not the owner\") */\n      tag_118\n      jumpi\n      mload(0x40)\n      0x08c379a000000000000000000000000000000000000000000000000000000000\n      dup2\n      mstore\n      0x04\n      add\n      tag_119\n      swap1\n      tag_120\n      jump\t// in\n    tag_119:\n      mload(0x40)\n      dup1\n      swap2\n      sub\n      swap1\n      revert\n    tag_118:\n        /* \"@openzeppelin/contracts/access/Ownable.sol\":1359:1489  function _checkOwner() internal view virtual {... */\n      jump\t// out\n        /* \"@openzeppelin/contracts/access/Ownable.sol\":2433:2620  function _transferOwnership(address newOwner) internal virtual {... */\n    tag_102:\n        /* \"@openzeppelin/contracts/access/Ownable.sol\":2506:2522  address oldOwner */\n      0x00\n        /* \"@openzeppelin/contracts/access/Ownable.sol\":2525:2531  _owner */\n      dup1\n      0x00\n      swap1\n      sload\n      swap1\n      0x0100\n      exp\n      swap1\n      div\n      0xffffffffffffffffffffffffffffffffffffffff\n      and\n        /* \"@openzeppelin/contracts/access/Ownable.sol\":2506:2531  address oldOwner = _owner */\n      swap1\n      pop\n        /* \"@openzeppelin/contracts/access/Ownable.sol\":2550:2558  newOwner */\n      dup2\n        /* \"@openzeppelin/contracts/access/Ownable.sol\":2541:2547  _owner */\n      0x00\n      dup1\n        /* \"@openzeppelin/contracts/access/Ownable.sol\":2541:2558  _owner = newOwner */\n      0x0100\n      exp\n      dup2\n      sload\n      dup2\n      0xffffffffffffffffffffffffffffffffffffffff\n      mul\n      not\n      and\n      swap1\n      dup4\n      0xffffffffffffffffffffffffffffffffffffffff\n      and\n      mul\n      or\n      swap1\n      sstore\n      pop\n        /* \"@openzeppelin/contracts/access/Ownable.sol\":2604:2612  newOwner */\n      dup2\n        /* \"@openzeppelin/contracts/access/Ownable.sol\":2573:2613  OwnershipTransferred(oldOwner, newOwner) */\n      0xffffffffffffffffffffffffffffffffffffffff\n      and\n        /* \"@openzeppelin/contracts/access/Ownable.sol\":2594:2602  oldOwner */\n      dup2\n        /* \"@openzeppelin/contracts/access/Ownable.sol\":2573:2613  OwnershipTransferred(oldOwner, newOwner) */\n      0xffffffffffffffffffffffffffffffffffffffff\n      and\n      0x8be0079c531659141344cd1fd0a4f28419497f9722a3daafe3b4186f6b6457e0\n      mload(0x40)\n      mload(0x40)\n      dup1\n      swap2\n      sub\n      swap1\n      log3\n        /* \"@openzeppelin/contracts/access/Ownable.sol\":2496:2620  {... */\n      pop\n        /* \"@openzeppelin/contracts/access/Ownable.sol\":2433:2620  function _transferOwnership(address newOwner) internal virtual {... */\n      pop\n      jump\t// out\n        /* \"@openzeppelin/contracts/utils/Context.sol\":640:736  function _msgSender() internal view virtual returns (address) {... */\n    tag_116:\n        /* \"@openzeppelin/contracts/utils/Context.sol\":693:700  address */\n      0x00\n        /* \"@openzeppelin/contracts/utils/Context.sol\":719:729  msg.sender */\n      caller\n        /* \"@openzeppelin/contracts/utils/Context.sol\":712:729  return msg.sender */\n      swap1\n      pop\n        /* \"@openzeppelin/contracts/utils/Context.sol\":640:736  function _msgSender() internal view virtual returns (address) {... */\n      swap1\n      jump\t// out\n    tag_89:\n      dataSize(sub_0)\n      dup1\n      dataOffset(sub_0)\n      dup4\n      codecopy\n      add\n      swap1\n      jump\t// out\n        /* \"#utility.yul\":7:84   */\n    tag_123:\n        /* \"#utility.yul\":44:51   */\n      0x00\n        /* \"#utility.yul\":73:78   */\n      dup2\n        /* \"#utility.yul\":62:78   */\n      swap1\n      pop\n        /* \"#utility.yul\":7:84   */\n      swap2\n      swap1\n      pop\n      jump\t// out\n        /* \"#utility.yul\":90:270   */\n    tag_124:\n        /* \"#utility.yul\":138:215   */\n      0x4e487b7100000000000000000000000000000000000000000000000000000000\n        /* \"#utility.yul\":135:136   */\n      0x00\n        /* \"#utility.yul\":128:216   */\n      mstore\n        /* \"#utility.yul\":235:239   */\n      0x11\n        /* \"#utility.yul\":232:233   */\n      0x04\n        /* \"#utility.yul\":225:240   */\n      mstore\n        /* \"#utility.yul\":259:263   */\n      0x24\n        /* \"#utility.yul\":256:257   */\n      0x00\n        /* \"#utility.yul\":249:264   */\n      revert\n        /* \"#utility.yul\":276:467   */\n    tag_24:\n        /* \"#utility.yul\":316:319   */\n      0x00\n        /* \"#utility.yul\":335:355   */\n      tag_150\n        /* \"#utility.yul\":353:354   */\n      dup3\n        /* \"#utility.yul\":335:355   */\n      tag_123\n      jump\t// in\n    tag_150:\n        /* \"#utility.yul\":330:355   */\n      swap2\n      pop\n        /* \"#utility.yul\":369:389   */\n      tag_151\n        /* \"#utility.yul\":387:388   */\n      dup4\n        /* \"#utility.yul\":369:389   */\n      tag_123\n      jump\t// in\n    tag_151:\n        /* \"#utility.yul\":364:389   */\n      swap3\n      pop\n        /* \"#utility.yul\":412:413   */\n      dup3\n        /* \"#utility.yul\":409:410   */\n      dup3\n        /* \"#utility.yul\":405:414   */\n      add\n        /* \"#utility.yul\":398:414   */\n      swap1\n      pop\n        /* \"#utility.yul\":433:436   */\n      dup1\n        /* \"#utility.yul\":430:431   */\n      dup3\n        /* \"#utility.yul\":427:437   */\n      gt\n        /* \"#utility.yul\":424:460   */\n      iszero\n      tag_152\n      jumpi\n        /* \"#utility.yul\":440:458   */\n      tag_153\n      tag_124\n      jump\t// in\n    tag_153:\n        /* \"#utility.yul\":424:460   */\n    tag_152:\n        /* \"#utility.yul\":276:467   */\n      swap3\n      swap2\n      pop\n      pop\n      jump\t// out\n        /* \"#utility.yul\":473:706   */\n    tag_26:\n        /* \"#utility.yul\":512:515   */\n      0x00\n        /* \"#utility.yul\":535:559   */\n      tag_155\n        /* \"#utility.yul\":553:558   */\n      dup3\n        /* \"#utility.yul\":535:559   */\n      tag_123\n      jump\t// in\n    tag_155:\n        /* \"#utility.yul\":526:559   */\n      swap2\n      pop\n        /* \"#utility.yul\":581:647   */\n      0xffffffffffffffffffffffffffffffffffffffffffffffffffffffffffffffff\n        /* \"#utility.yul\":574:579   */\n      dup3\n        /* \"#utility.yul\":571:648   */\n      sub\n        /* \"#utility.yul\":568:671   */\n      tag_156\n      jumpi\n        /* \"#utility.yul\":651:669   */\n      tag_157\n      tag_124\n      jump\t// in\n    tag_157:\n        /* \"#utility.yul\":568:671   */\n    tag_156:\n        /* \"#utility.yul\":698:699   */\n      0x01\n        /* \"#utility.yul\":691:696   */\n      dup3\n        /* \"#utility.yul\":687:700   */\n      add\n        /* \"#utility.yul\":680:700   */\n      swap1\n      pop\n        /* \"#utility.yul\":473:706   */\n      swap2\n      swap1\n      pop\n      jump\t// out\n        /* \"#utility.yul\":712:830   */\n    tag_125:\n        /* \"#utility.yul\":799:823   */\n      tag_159\n        /* \"#utility.yul\":817:822   */\n      dup2\n        /* \"#utility.yul\":799:823   */\n      tag_123\n      jump\t// in\n    tag_159:\n        /* \"#utility.yul\":794:797   */\n      dup3\n        /* \"#utility.yul\":787:824   */\n      mstore\n        /* \"#utility.yul\":712:830   */\n      pop\n      pop\n      jump\t// out\n        /* \"#utility.yul\":836:1058   */\n    tag_42:\n        /* \"#utility.yul\":929:933   */\n      0x00\n        /* \"#utility.yul\":967:969   */\n      0x20\n        /* \"#utility.yul\":956:965   */\n      dup3\n        /* \"#utility.yul\":952:970   */\n      add\n        /* \"#utility.yul\":944:970   */\n      swap1\n      pop\n        /* \"#utility.yul\":980:1051   */\n      tag_161\n        /* \"#utility.yul\":1048:1049   */\n      0x00\n        /* \"#utility.yul\":1037:1046   */\n      dup4\n        /* \"#utility.yul\":1033:1050   */\n      add\n        /* \"#utility.yul\":1024:1030   */\n      dup5\n        /* \"#utility.yul\":980:1051   */\n      tag_125\n      jump\t// in\n    tag_161:\n        /* \"#utility.yul\":836:1058   */\n      swap3\n      swap2\n      pop\n      pop\n      jump\t// out\n        /* \"#utility.yul\":1145:1262   */\n    tag_127:\n        /* \"#utility.yul\":1254:1255   */\n      0x00\n        /* \"#utility.yul\":1251:1252   */\n      dup1\n        /* \"#utility.yul\":1244:1256   */\n      revert\n        /* \"#utility.yul\":1391:1517   */\n    tag_129:\n        /* \"#utility.yul\":1428:1435   */\n      0x00\n        /* \"#utility.yul\":1468:1510   */\n      0xffffffffffffffffffffffffffffffffffffffff\n        /* \"#utility.yul\":1461:1466   */\n      dup3\n        /* \"#utility.yul\":1457:1511   */\n      and\n        /* \"#utility.yul\":1446:1511   */\n      swap1\n      pop\n        /* \"#utility.yul\":1391:1517   */\n      swap2\n      swap1\n      pop\n      jump\t// out\n        /* \"#utility.yul\":1523:1627   */\n    tag_130:\n        /* \"#utility.yul\":1568:1575   */\n      0x00\n        /* \"#utility.yul\":1597:1621   */\n      tag_167\n        /* \"#utility.yul\":1615:1620   */\n      dup3\n        /* \"#utility.yul\":1597:1621   */\n      tag_129\n      jump\t// in\n    tag_167:\n        /* \"#utility.yul\":1586:1621   */\n      swap1\n      pop\n        /* \"#utility.yul\":1523:1627   */\n      swap2\n      swap1\n      pop\n      jump\t// out\n        /* \"#utility.yul\":1633:1771   */\n    tag_131:\n        /* \"#utility.yul\":1714:1746   */\n      tag_169\n        /* \"#utility.yul\":1740:1745   */\n      dup2\n        /* \"#utility.yul\":1714:1746   */\n      tag_130\n      jump\t// in\n    tag_169:\n        /* \"#utility.yul\":1707:1712   */\n      dup2\n        /* \"#utility.yul\":1704:1747   */\n      eq\n        /* \"#utility.yul\":1694:1765   */\n      tag_170\n      jumpi\n        /* \"#utility.yul\":1761:1762   */\n      0x00\n        /* \"#utility.yul\":1758:1759   */\n      dup1\n        /* \"#utility.yul\":1751:1763   */\n      revert\n        /* \"#utility.yul\":1694:1765   */\n    tag_170:\n        /* \"#utility.yul\":1633:1771   */\n      pop\n      jump\t// out\n        /* \"#utility.yul\":1777:1932   */\n    tag_132:\n        /* \"#utility.yul\":1831:1836   */\n      0x00\n        /* \"#utility.yul\":1869:1875   */\n      dup2\n        /* \"#utility.yul\":1856:1876   */\n      calldataload\n        /* \"#utility.yul\":1847:1876   */\n      swap1\n      pop\n        /* \"#utility.yul\":1885:1926   */\n      tag_172\n        /* \"#utility.yul\":1920:1925   */\n      dup2\n        /* \"#utility.yul\":1885:1926   */\n      tag_131\n      jump\t// in\n    tag_172:\n        /* \"#utility.yul\":1777:1932   */\n      swap3\n      swap2\n      pop\n      pop\n      jump\t// out\n        /* \"#utility.yul\":1938:2283   */\n    tag_46:\n        /* \"#utility.yul\":2005:2011   */\n      0x00\n        /* \"#utility.yul\":2054:2056   */\n      0x20\n        /* \"#utility.yul\":2042:2051   */\n      dup3\n        /* \"#utility.yul\":2033:2040   */\n      dup5\n        /* \"#utility.yul\":2029:2052   */\n      sub\n        /* \"#utility.yul\":2025:2057   */\n      slt\n        /* \"#utility.yul\":2022:2141   */\n      iszero\n      tag_174\n      jumpi\n        /* \"#utility.yul\":2060:2139   */\n      tag_175\n      tag_127\n      jump\t// in\n    tag_175:\n        /* \"#utility.yul\":2022:2141   */\n    tag_174:\n        /* \"#utility.yul\":2180:2181   */\n      0x00\n        /* \"#utility.yul\":2205:2266   */\n      tag_176\n        /* \"#utility.yul\":2258:2265   */\n      dup5\n        /* \"#utility.yul\":2249:2255   */\n      dup3\n        /* \"#utility.yul\":2238:2247   */\n      dup6\n        /* \"#utility.yul\":2234:2256   */\n      add\n        /* \"#utility.yul\":2205:2266   */\n      tag_132\n      jump\t// in\n    tag_176:\n        /* \"#utility.yul\":2195:2266   */\n      swap2\n      pop\n        /* \"#utility.yul\":2151:2276   */\n      pop\n        /* \"#utility.yul\":1938:2283   */\n      swap3\n      swap2\n      pop\n      pop\n      jump\t// out\n        /* \"#utility.yul\":2289:2379   */\n    tag_133:\n        /* \"#utility.yul\":2323:2330   */\n      0x00\n        /* \"#utility.yul\":2366:2371   */\n      dup2\n        /* \"#utility.yul\":2359:2372   */\n      iszero\n        /* \"#utility.yul\":2352:2373   */\n      iszero\n        /* \"#utility.yul\":2341:2373   */\n      swap1\n      pop\n        /* \"#utility.yul\":2289:2379   */\n      swap2\n      swap1\n      pop\n      jump\t// out\n        /* \"#utility.yul\":2385:2494   */\n    tag_134:\n        /* \"#utility.yul\":2466:2487   */\n      tag_179\n        /* \"#utility.yul\":2481:2486   */\n      dup2\n        /* \"#utility.yul\":2466:2487   */\n      tag_133\n      jump\t// in\n    tag_179:\n        /* \"#utility.yul\":2461:2464   */\n      dup3\n        /* \"#utility.yul\":2454:2488   */\n      mstore\n        /* \"#utility.yul\":2385:2494   */\n      pop\n      pop\n      jump\t// out\n        /* \"#utility.yul\":2500:2710   */\n    tag_58:\n        /* \"#utility.yul\":2587:2591   */\n      0x00\n        /* \"#utility.yul\":2625:2627   */\n      0x20\n        /* \"#utility.yul\":2614:2623   */\n      dup3\n        /* \"#utility.yul\":2610:2628   */\n      add\n        /* \"#utility.yul\":2602:2628   */\n      swap1\n      pop\n        /* \"#utility.yul\":2638:2703   */\n      tag_181\n        /* \"#utility.yul\":2700:2701   */\n      0x00\n        /* \"#utility.yul\":2689:2698   */\n      dup4\n        /* \"#utility.yul\":2685:2702   */\n      add\n        /* \"#utility.yul\":2676:2682   */\n      dup5\n        /* \"#utility.yul\":2638:2703   */\n      tag_134\n      jump\t// in\n    tag_181:\n        /* \"#utility.yul\":2500:2710   */\n      swap3\n      swap2\n      pop\n      pop\n      jump\t// out\n        /* \"#utility.yul\":2716:2838   */\n    tag_135:\n        /* \"#utility.yul\":2789:2813   */\n      tag_183\n        /* \"#utility.yul\":2807:2812   */\n      dup2\n        /* \"#utility.yul\":2789:2813   */\n      tag_123\n      jump\t// in\n    tag_183:\n        /* \"#utility.yul\":2782:2787   */\n      dup2\n        /* \"#utility.yul\":2779:2814   */\n      eq\n        /* \"#utility.yul\":2769:2832   */\n      tag_184\n      jumpi\n        /* \"#utility.yul\":2828:2829   */\n      0x00\n        /* \"#utility.yul\":2825:2826   */\n      dup1\n        /* \"#utility.yul\":2818:2830   */\n      revert\n        /* \"#utility.yul\":2769:2832   */\n    tag_184:\n        /* \"#utility.yul\":2716:2838   */\n      pop\n      jump\t// out\n        /* \"#utility.yul\":2844:2983   */\n    tag_136:\n        /* \"#utility.yul\":2890:2895   */\n      0x00\n        /* \"#utility.yul\":2928:2934   */\n      dup2\n        /* \"#utility.yul\":2915:2935   */\n      calldataload\n        /* \"#utility.yul\":2906:2935   */\n      swap1\n      pop\n        /* \"#utility.yul\":2944:2977   */\n      tag_186\n        /* \"#utility.yul\":2971:2976   */\n      dup2\n        /* \"#utility.yul\":2944:2977   */\n      tag_135\n      jump\t// in\n    tag_186:\n        /* \"#utility.yul\":2844:2983   */\n      swap3\n      swap2\n      pop\n      pop\n      jump\t// out\n        /* \"#utility.yul\":2989:3318   */\n    tag_62:\n        /* \"#utility.yul\":3048:3054   */\n      0x00\n        /* \"#utility.yul\":3097:3099   */\n      0x20\n        /* \"#utility.yul\":3085:3094   */\n      dup3\n        /* \"#utility.yul\":3076:3083   */\n      dup5\n        /* \"#utility.yul\":3072:3095   */\n      sub\n        /* \"#utility.yul\":3068:3100   */\n      slt\n        /* \"#utility.yul\":3065:3184   */\n      iszero\n      tag_188\n      jumpi\n        /* \"#utility.yul\":3103:3182   */\n      tag_189\n      tag_127\n      jump\t// in\n    tag_189:\n        /* \"#utility.yul\":3065:3184   */\n    tag_188:\n        /* \"#utility.yul\":3223:3224   */\n      0x00\n        /* \"#utility.yul\":3248:3301   */\n      tag_190\n        /* \"#utility.yul\":3293:3300   */\n      dup5\n        /* \"#utility.yul\":3284:3290   */\n      dup3\n        /* \"#utility.yul\":3273:3282   */\n      dup6\n        /* \"#utility.yul\":3269:3291   */\n      add\n        /* \"#utility.yul\":3248:3301   */\n      tag_136\n      jump\t// in\n    tag_190:\n        /* \"#utility.yul\":3238:3301   */\n      swap2\n      pop\n        /* \"#utility.yul\":3194:3311   */\n      pop\n        /* \"#utility.yul\":2989:3318   */\n      swap3\n      swap2\n      pop\n      pop\n      jump\t// out\n        /* \"#utility.yul\":3324:3420   */\n    tag_137:\n        /* \"#utility.yul\":3361:3368   */\n      0x00\n        /* \"#utility.yul\":3390:3414   */\n      tag_192\n        /* \"#utility.yul\":3408:3413   */\n      dup3\n        /* \"#utility.yul\":3390:3414   */\n      tag_129\n      jump\t// in\n    tag_192:\n        /* \"#utility.yul\":3379:3414   */\n      swap1\n      pop\n        /* \"#utility.yul\":3324:3420   */\n      swap2\n      swap1\n      pop\n      jump\t// out\n        /* \"#utility.yul\":3426:3544   */\n    tag_138:\n        /* \"#utility.yul\":3513:3537   */\n      tag_194\n        /* \"#utility.yul\":3531:3536   */\n      dup2\n        /* \"#utility.yul\":3513:3537   */\n      tag_137\n      jump\t// in\n    tag_194:\n        /* \"#utility.yul\":3508:3511   */\n      dup3\n        /* \"#utility.yul\":3501:3538   */\n      mstore\n        /* \"#utility.yul\":3426:3544   */\n      pop\n      pop\n      jump\t// out\n        /* \"#utility.yul\":3550:3772   */\n    tag_68:\n        /* \"#utility.yul\":3643:3647   */\n      0x00\n        /* \"#utility.yul\":3681:3683   */\n      0x20\n        /* \"#utility.yul\":3670:3679   */\n      dup3\n        /* \"#utility.yul\":3666:3684   */\n      add\n        /* \"#utility.yul\":3658:3684   */\n      swap1\n      pop\n        /* \"#utility.yul\":3694:3765   */\n      tag_196\n        /* \"#utility.yul\":3762:3763   */\n      0x00\n        /* \"#utility.yul\":3751:3760   */\n      dup4\n        /* \"#utility.yul\":3747:3764   */\n      add\n        /* \"#utility.yul\":3738:3744   */\n      dup5\n        /* \"#utility.yul\":3694:3765   */\n      tag_138\n      jump\t// in\n    tag_196:\n        /* \"#utility.yul\":3550:3772   */\n      swap3\n      swap2\n      pop\n      pop\n      jump\t// out\n        /* \"#utility.yul\":3778:3900   */\n    tag_139:\n        /* \"#utility.yul\":3851:3875   */\n      tag_198\n        /* \"#utility.yul\":3869:3874   */\n      dup2\n        /* \"#utility.yul\":3851:3875   */\n      tag_137\n      jump\t// in\n    tag_198:\n        /* \"#utility.yul\":3844:3849   */\n      dup2\n        /* \"#utility.yul\":3841:3876   */\n      eq\n        /* \"#utility.yul\":3831:3894   */\n      tag_199\n      jumpi\n        /* \"#utility.yul\":3890:3891   */\n      0x00\n        /* \"#utility.yul\":3887:3888   */\n      dup1\n        /* \"#utility.yul\":3880:3892   */\n      revert\n        /* \"#utility.yul\":3831:3894   */\n    tag_199:\n        /* \"#utility.yul\":3778:3900   */\n      pop\n      jump\t// out\n        /* \"#utility.yul\":3906:4045   */\n    tag_140:\n        /* \"#utility.yul\":3952:3957   */\n      0x00\n        /* \"#utility.yul\":3990:3996   */\n      dup2\n        /* \"#utility.yul\":3977:3997   */\n      calldataload\n        /* \"#utility.yul\":3968:3997   */\n      swap1\n      pop\n        /* \"#utility.yul\":4006:4039   */\n      tag_201\n        /* \"#utility.yul\":4033:4038   */\n      dup2\n        /* \"#utility.yul\":4006:4039   */\n      tag_139\n      jump\t// in\n    tag_201:\n        /* \"#utility.yul\":3906:4045   */\n      swap3\n      swap2\n      pop\n      pop\n      jump\t// out\n        /* \"#utility.yul\":4051:4380   */\n    tag_85:\n        /* \"#utility.yul\":4110:4116   */\n      0x00\n        /* \"#utility.yul\":4159:4161   */\n      0x20\n        /* \"#utility.yul\":4147:4156   */\n      dup3\n        /* \"#utility.yul\":4138:4145   */\n      dup5\n        /* \"#utility.yul\":4134:4157   */\n      sub\n        /* \"#utility.yul\":4130:4162   */\n      slt\n        /* \"#utility.yul\":4127:4246   */\n      iszero\n      tag_203\n      jumpi\n        /* \"#utility.yul\":4165:4244   */\n      tag_204\n      tag_127\n      jump\t// in\n    tag_204:\n        /* \"#utility.yul\":4127:4246   */\n    tag_203:\n        /* \"#utility.yul\":4285:4286   */\n      0x00\n        /* \"#utility.yul\":4310:4363   */\n      tag_205\n        /* \"#utility.yul\":4355:4362   */\n      dup5\n        /* \"#utility.yul\":4346:4352   */\n      dup3\n        /* \"#utility.yul\":4335:4344   */\n      dup6\n        /* \"#utility.yul\":4331:4353   */\n      add\n        /* \"#utility.yul\":4310:4363   */\n      tag_140\n      jump\t// in\n    tag_205:\n        /* \"#utility.yul\":4300:4363   */\n      swap2\n      pop\n        /* \"#utility.yul\":4256:4373   */\n      pop\n        /* \"#utility.yul\":4051:4380   */\n      swap3\n      swap2\n      pop\n      pop\n      jump\t// out\n        /* \"#utility.yul\":4386:4555   */\n    tag_141:\n        /* \"#utility.yul\":4470:4481   */\n      0x00\n        /* \"#utility.yul\":4504:4510   */\n      dup3\n        /* \"#utility.yul\":4499:4502   */\n      dup3\n        /* \"#utility.yul\":4492:4511   */\n      mstore\n        /* \"#utility.yul\":4544:4548   */\n      0x20\n        /* \"#utility.yul\":4539:4542   */\n      dup3\n        /* \"#utility.yul\":4535:4549   */\n      add\n        /* \"#utility.yul\":4520:4549   */\n      swap1\n      pop\n        /* \"#utility.yul\":4386:4555   */\n      swap3\n      swap2\n      pop\n      pop\n      jump\t// out\n        /* \"#utility.yul\":4561:4786   */\n    tag_142:\n        /* \"#utility.yul\":4701:4735   */\n      0x4f776e61626c653a206e6577206f776e657220697320746865207a65726f2061\n        /* \"#utility.yul\":4697:4698   */\n      0x00\n        /* \"#utility.yul\":4689:4695   */\n      dup3\n        /* \"#utility.yul\":4685:4699   */\n      add\n        /* \"#utility.yul\":4678:4736   */\n      mstore\n        /* \"#utility.yul\":4770:4778   */\n      0x6464726573730000000000000000000000000000000000000000000000000000\n        /* \"#utility.yul\":4765:4767   */\n      0x20\n        /* \"#utility.yul\":4757:4763   */\n      dup3\n        /* \"#utility.yul\":4753:4768   */\n      add\n        /* \"#utility.yul\":4746:4779   */\n      mstore\n        /* \"#utility.yul\":4561:4786   */\n      pop\n      jump\t// out\n        /* \"#utility.yul\":4792:5158   */\n    tag_143:\n        /* \"#utility.yul\":4934:4937   */\n      0x00\n        /* \"#utility.yul\":4955:5022   */\n      tag_209\n        /* \"#utility.yul\":5019:5021   */\n      0x26\n        /* \"#utility.yul\":5014:5017   */\n      dup4\n        /* \"#utility.yul\":4955:5022   */\n      tag_141\n      jump\t// in\n    tag_209:\n        /* \"#utility.yul\":4948:5022   */\n      swap2\n      pop\n        /* \"#utility.yul\":5031:5124   */\n      tag_210\n        /* \"#utility.yul\":5120:5123   */\n      dup3\n        /* \"#utility.yul\":5031:5124   */\n      tag_142\n      jump\t// in\n    tag_210:\n        /* \"#utility.yul\":5149:5151   */\n      0x40\n        /* \"#utility.yul\":5144:5147   */\n      dup3\n        /* \"#utility.yul\":5140:5152   */\n      add\n        /* \"#utility.yul\":5133:5152   */\n      swap1\n      pop\n        /* \"#utility.yul\":4792:5158   */\n      swap2\n      swap1\n      pop\n      jump\t// out\n        /* \"#utility.yul\":5164:5583   */\n    tag_112:\n        /* \"#utility.yul\":5330:5334   */\n      0x00\n        /* \"#utility.yul\":5368:5370   */\n      0x20\n        /* \"#utility.yul\":5357:5366   */\n      dup3\n        /* \"#utility.yul\":5353:5371   */\n      add\n        /* \"#utility.yul\":5345:5371   */\n      swap1\n      pop\n        /* \"#utility.yul\":5417:5426   */\n      dup2\n        /* \"#utility.yul\":5411:5415   */\n      dup2\n        /* \"#utility.yul\":5407:5427   */\n      sub\n        /* \"#utility.yul\":5403:5404   */\n      0x00\n        /* \"#utility.yul\":5392:5401   */\n      dup4\n        /* \"#utility.yul\":5388:5405   */\n      add\n        /* \"#utility.yul\":5381:5428   */\n      mstore\n        /* \"#utility.yul\":5445:5576   */\n      tag_212\n        /* \"#utility.yul\":5571:5575   */\n      dup2\n        /* \"#utility.yul\":5445:5576   */\n      tag_143\n      jump\t// in\n    tag_212:\n        /* \"#utility.yul\":5437:5576   */\n      swap1\n      pop\n        /* \"#utility.yul\":5164:5583   */\n      swap2\n      swap1\n      pop\n      jump\t// out\n        /* \"#utility.yul\":5589:5771   */\n    tag_144:\n        /* \"#utility.yul\":5729:5763   */\n      0x4f776e61626c653a2063616c6c6572206973206e6f7420746865206f776e6572\n        /* \"#utility.yul\":5725:5726   */\n      0x00\n        /* \"#utility.yul\":5717:5723   */\n      dup3\n        /* \"#utility.yul\":5713:5727   */\n      add\n        /* \"#utility.yul\":5706:5764   */\n      mstore\n        /* \"#utility.yul\":5589:5771   */\n      pop\n      jump\t// out\n        /* \"#utility.yul\":5777:6143   */\n    tag_145:\n        /* \"#utility.yul\":5919:5922   */\n      0x00\n        /* \"#utility.yul\":5940:6007   */\n      tag_215\n        /* \"#utility.yul\":6004:6006   */\n      0x20\n        /* \"#utility.yul\":5999:6002   */\n      dup4\n        /* \"#utility.yul\":5940:6007   */\n      tag_141\n      jump\t// in\n    tag_215:\n        /* \"#utility.yul\":5933:6007   */\n      swap2\n      pop\n        /* \"#utility.yul\":6016:6109   */\n      tag_216\n        /* \"#utility.yul\":6105:6108   */\n      dup3\n        /* \"#utility.yul\":6016:6109   */\n      tag_144\n      jump\t// in\n    tag_216:\n        /* \"#utility.yul\":6134:6136   */\n      0x20\n        /* \"#utility.yul\":6129:6132   */\n      dup3\n        /* \"#utility.yul\":6125:6137   */\n      add\n        /* \"#utility.yul\":6118:6137   */\n      swap1\n      pop\n        /* \"#utility.yul\":5777:6143   */\n      swap2\n      swap1\n      pop\n      jump\t// out\n        /* \"#utility.yul\":6149:6568   */\n    tag_120:\n        /* \"#utility.yul\":6315:6319   */\n      0x00\n        /* \"#utility.yul\":6353:6355   */\n      0x20\n        /* \"#utility.yul\":6342:6351   */\n      dup3\n        /* \"#utility.yul\":6338:6356   */\n      add\n        /* \"#utility.yul\":6330:6356   */\n      swap1\n      pop\n        /* \"#utility.yul\":6402:6411   */\n      dup2\n        /* \"#utility.yul\":6396:6400   */\n      dup2\n        /* \"#utility.yul\":6392:6412   */\n      sub\n        /* \"#utility.yul\":6388:6389   */\n      0x00\n        /* \"#utility.yul\":6377:6386   */\n      dup4\n        /* \"#utility.yul\":6373:6390   */\n      add\n        /* \"#utility.yul\":6366:6413   */\n      mstore\n        /* \"#utility.yul\":6430:6561   */\n      tag_218\n        /* \"#utility.yul\":6556:6560   */\n      dup2\n        /* \"#utility.yul\":6430:6561   */\n      tag_145\n      jump\t// in\n    tag_218:\n        /* \"#utility.yul\":6422:6561   */\n      swap1\n      pop\n        /* \"#utility.yul\":6149:6568   */\n      swap2\n      swap1\n      pop\n      jump\t// out\n    stop\n\n    sub_0: assembly {\n            /* \"XEN/Active.sol\":332:965  contract Active{... */\n          mstore(0x40, 0x80)\n            /* \"XEN/Active.sol\":402:444  0x2AB0e9e4eE70FFf1fB9D67031E44F6410170d00e */\n          0x2ab0e9e4ee70fff1fb9d67031e44f6410170d00e\n            /* \"XEN/Active.sol\":374:444  address public xenAddress = 0x2AB0e9e4eE70FFf1fB9D67031E44F6410170d00e */\n          0x00\n          dup1\n          0x0100\n          exp\n          dup2\n          sload\n          dup2\n          0xffffffffffffffffffffffffffffffffffffffff\n          mul\n          not\n          and\n          swap1\n          dup4\n          0xffffffffffffffffffffffffffffffffffffffff\n          and\n          mul\n          or\n          swap1\n          sstore\n          pop\n            /* \"XEN/Active.sol\":502:544  0x6971b57a29764eD7af4A4a1ED7a512Dde9369Ef6 */\n          0x6971b57a29764ed7af4a4a1ed7a512dde9369ef6\n            /* \"XEN/Active.sol\":471:544  address public rewardAddress = 0x6971b57a29764eD7af4A4a1ED7a512Dde9369Ef6 */\n          0x01\n          exp(0x0100, 0x00)\n          dup2\n          sload\n          dup2\n          0xffffffffffffffffffffffffffffffffffffffff\n          mul\n          not\n          and\n          swap1\n          dup4\n          0xffffffffffffffffffffffffffffffffffffffff\n          and\n          mul\n          or\n          swap1\n          sstore\n          pop\n            /* \"XEN/Active.sol\":553:598  constructor() public {... */\n          callvalue\n          dup1\n          iszero\n          tag_1\n          jumpi\n          0x00\n          dup1\n          revert\n        tag_1:\n          pop\n            /* \"XEN/Active.sol\":585:590  reg() */\n          tag_4\n            /* \"XEN/Active.sol\":585:588  reg */\n          shl(0x20, tag_5)\n            /* \"XEN/Active.sol\":585:590  reg() */\n          0x20\n          shr\n          jump\t// in\n        tag_4:\n            /* \"XEN/Active.sol\":332:965  contract Active{... */\n          jump(tag_6)\n            /* \"XEN/Active.sol\":606:676  function reg() private{... */\n        tag_5:\n            /* \"XEN/Active.sol\":644:654  xenAddress */\n          0x00\n          dup1\n          sload\n          swap1\n          0x0100\n          exp\n          swap1\n          div\n          0xffffffffffffffffffffffffffffffffffffffff\n          and\n            /* \"XEN/Active.sol\":639:665  IXen(xenAddress).claimRank */\n          0xffffffffffffffffffffffffffffffffffffffff\n          and\n          0x9ff054df\n            /* \"XEN/Active.sol\":666:667  1 */\n          0x01\n            /* \"XEN/Active.sol\":639:668  IXen(xenAddress).claimRank(1) */\n          mload(0x40)\n          dup3\n          0xffffffff\n          and\n          0xe0\n          shl\n          dup2\n          mstore\n          0x04\n          add\n          tag_8\n          swap2\n          swap1\n          tag_9\n          jump\t// in\n        tag_8:\n          0x00\n          mload(0x40)\n          dup1\n          dup4\n          sub\n          dup2\n          0x00\n          dup8\n          dup1\n          extcodesize\n          iszero\n          dup1\n          iszero\n          tag_10\n          jumpi\n          0x00\n          dup1\n          revert\n        tag_10:\n          pop\n          gas\n          call\n          iszero\n          dup1\n          iszero\n          tag_12\n          jumpi\n          returndatasize\n          0x00\n          dup1\n          returndatacopy\n          revert(0x00, returndatasize)\n        tag_12:\n          pop\n          pop\n          pop\n          pop\n            /* \"XEN/Active.sol\":606:676  function reg() private{... */\n          jump\t// out\n            /* \"#utility.yul\":7:92   */\n        tag_13:\n            /* \"#utility.yul\":52:59   */\n          0x00\n            /* \"#utility.yul\":81:86   */\n          dup2\n            /* \"#utility.yul\":70:86   */\n          swap1\n          pop\n            /* \"#utility.yul\":7:92   */\n          swap2\n          swap1\n          pop\n          jump\t// out\n            /* \"#utility.yul\":98:175   */\n        tag_14:\n            /* \"#utility.yul\":135:142   */\n          0x00\n            /* \"#utility.yul\":164:169   */\n          dup2\n            /* \"#utility.yul\":153:169   */\n          swap1\n          pop\n            /* \"#utility.yul\":98:175   */\n          swap2\n          swap1\n          pop\n          jump\t// out\n            /* \"#utility.yul\":181:241   */\n        tag_15:\n            /* \"#utility.yul\":209:212   */\n          0x00\n            /* \"#utility.yul\":230:235   */\n          dup2\n            /* \"#utility.yul\":223:235   */\n          swap1\n          pop\n            /* \"#utility.yul\":181:241   */\n          swap2\n          swap1\n          pop\n          jump\t// out\n            /* \"#utility.yul\":247:405   */\n        tag_16:\n            /* \"#utility.yul\":305:314   */\n          0x00\n            /* \"#utility.yul\":338:399   */\n          tag_23\n            /* \"#utility.yul\":356:398   */\n          tag_24\n            /* \"#utility.yul\":365:397   */\n          tag_25\n            /* \"#utility.yul\":391:396   */\n          dup5\n            /* \"#utility.yul\":365:397   */\n          tag_13\n          jump\t// in\n        tag_25:\n            /* \"#utility.yul\":356:398   */\n          tag_15\n          jump\t// in\n        tag_24:\n            /* \"#utility.yul\":338:399   */\n          tag_14\n          jump\t// in\n        tag_23:\n            /* \"#utility.yul\":325:399   */\n          swap1\n          pop\n            /* \"#utility.yul\":247:405   */\n          swap2\n          swap1\n          pop\n          jump\t// out\n            /* \"#utility.yul\":411:558   */\n        tag_17:\n            /* \"#utility.yul\":506:551   */\n          tag_27\n            /* \"#utility.yul\":545:550   */\n          dup2\n            /* \"#utility.yul\":506:551   */\n          tag_16\n          jump\t// in\n        tag_27:\n            /* \"#utility.yul\":501:504   */\n          dup3\n            /* \"#utility.yul\":494:552   */\n          mstore\n            /* \"#utility.yul\":411:558   */\n          pop\n          pop\n          jump\t// out\n            /* \"#utility.yul\":564:802   */\n        tag_9:\n            /* \"#utility.yul\":665:669   */\n          0x00\n            /* \"#utility.yul\":703:705   */\n          0x20\n            /* \"#utility.yul\":692:701   */\n          dup3\n            /* \"#utility.yul\":688:706   */\n          add\n            /* \"#utility.yul\":680:706   */\n          swap1\n          pop\n            /* \"#utility.yul\":716:795   */\n          tag_29\n            /* \"#utility.yul\":792:793   */\n          0x00\n            /* \"#utility.yul\":781:790   */\n          dup4\n            /* \"#utility.yul\":777:794   */\n          add\n            /* \"#utility.yul\":768:774   */\n          dup5\n            /* \"#utility.yul\":716:795   */\n          tag_17\n          jump\t// in\n        tag_29:\n            /* \"#utility.yul\":564:802   */\n          swap3\n          swap2\n          pop\n          pop\n          jump\t// out\n            /* \"XEN/Active.sol\":332:965  contract Active{... */\n        tag_6:\n          dataSize(sub_0)\n          dup1\n          dataOffset(sub_0)\n          0x00\n          codecopy\n          0x00\n          return\n        stop\n\n        sub_0: assembly {\n                /* \"XEN/Active.sol\":332:965  contract Active{... */\n              mstore(0x40, 0x80)\n              callvalue\n              dup1\n              iszero\n              tag_1\n              jumpi\n              0x00\n              dup1\n              revert\n            tag_1:\n              pop\n              jumpi(tag_2, lt(calldatasize, 0x04))\n              shr(0xe0, calldataload(0x00))\n              dup1\n              0x433af240\n              eq\n              tag_3\n              jumpi\n              dup1\n              0x68ae560d\n              eq\n              tag_4\n              jumpi\n              dup1\n              0x8cf57cb9\n              eq\n              tag_5\n              jumpi\n            tag_2:\n              0x00\n              dup1\n              revert\n                /* \"XEN/Active.sol\":374:444  address public xenAddress = 0x2AB0e9e4eE70FFf1fB9D67031E44F6410170d00e */\n            tag_3:\n              tag_6\n              tag_7\n              jump\t// in\n            tag_6:\n              mload(0x40)\n              tag_8\n              swap2\n              swap1\n              tag_9\n              jump\t// in\n            tag_8:\n              mload(0x40)\n              dup1\n              swap2\n              sub\n              swap1\n              return\n                /* \"XEN/Active.sol\":684:954  function rewardAndTransfer() external {... */\n            tag_4:\n              tag_10\n              tag_11\n              jump\t// in\n            tag_10:\n              stop\n                /* \"XEN/Active.sol\":471:544  address public rewardAddress = 0x6971b57a29764eD7af4A4a1ED7a512Dde9369Ef6 */\n            tag_5:\n              tag_12\n              tag_13\n              jump\t// in\n            tag_12:\n              mload(0x40)\n              tag_14\n              swap2\n              swap1\n              tag_9\n              jump\t// in\n            tag_14:\n              mload(0x40)\n              dup1\n              swap2\n              sub\n              swap1\n              return\n                /* \"XEN/Active.sol\":374:444  address public xenAddress = 0x2AB0e9e4eE70FFf1fB9D67031E44F6410170d00e */\n            tag_7:\n              0x00\n              dup1\n              sload\n              swap1\n              0x0100\n              exp\n              swap1\n              div\n              0xffffffffffffffffffffffffffffffffffffffff\n              and\n              dup2\n              jump\t// out\n                /* \"XEN/Active.sol\":684:954  function rewardAndTransfer() external {... */\n            tag_11:\n                /* \"XEN/Active.sol\":738:748  xenAddress */\n              0x00\n              dup1\n              sload\n              swap1\n              0x0100\n              exp\n              swap1\n              div\n              0xffffffffffffffffffffffffffffffffffffffff\n              and\n                /* \"XEN/Active.sol\":733:765  IXen(xenAddress).claimMintReward */\n              0xffffffffffffffffffffffffffffffffffffffff\n              and\n              0x52c7f8dc\n                /* \"XEN/Active.sol\":733:767  IXen(xenAddress).claimMintReward() */\n              mload(0x40)\n              dup2\n              0xffffffff\n              and\n              0xe0\n              shl\n              dup2\n              mstore\n              0x04\n              add\n              0x00\n              mload(0x40)\n              dup1\n              dup4\n              sub\n              dup2\n              0x00\n              dup8\n              dup1\n              extcodesize\n              iszero\n              dup1\n              iszero\n              tag_16\n              jumpi\n              0x00\n              dup1\n              revert\n            tag_16:\n              pop\n              gas\n              call\n              iszero\n              dup1\n              iszero\n              tag_18\n              jumpi\n              returndatasize\n              0x00\n              dup1\n              returndatacopy\n              revert(0x00, returndatasize)\n            tag_18:\n              pop\n              pop\n              pop\n              pop\n                /* \"XEN/Active.sol\":778:794  uint256 banlance */\n              0x00\n                /* \"XEN/Active.sol\":802:812  xenAddress */\n              dup1\n              0x00\n              swap1\n              sload\n              swap1\n              0x0100\n              exp\n              swap1\n              div\n              0xffffffffffffffffffffffffffffffffffffffff\n              and\n                /* \"XEN/Active.sol\":797:823  IXen(xenAddress).balanceOf */\n              0xffffffffffffffffffffffffffffffffffffffff\n              and\n              0x70a08231\n                /* \"XEN/Active.sol\":832:836  this */\n              address\n                /* \"XEN/Active.sol\":797:838  IXen(xenAddress).balanceOf(address(this)) */\n              mload(0x40)\n              dup3\n              0xffffffff\n              and\n              0xe0\n              shl\n              dup2\n              mstore\n              0x04\n              add\n              tag_19\n              swap2\n              swap1\n              tag_9\n              jump\t// in\n            tag_19:\n              0x20\n              mload(0x40)\n              dup1\n              dup4\n              sub\n              dup2\n              dup7\n              gas\n              staticcall\n              iszero\n              dup1\n              iszero\n              tag_21\n              jumpi\n              returndatasize\n              0x00\n              dup1\n              returndatacopy\n              revert(0x00, returndatasize)\n            tag_21:\n              pop\n              pop\n              pop\n              pop\n              mload(0x40)\n              returndatasize\n              not(0x1f)\n              0x1f\n              dup3\n              add\n              and\n              dup3\n              add\n              dup1\n              0x40\n              mstore\n              pop\n              dup2\n              add\n              swap1\n              tag_22\n              swap2\n              swap1\n              tag_23\n              jump\t// in\n            tag_22:\n                /* \"XEN/Active.sol\":778:838  uint256 banlance = IXen(xenAddress).balanceOf(address(this)) */\n              swap1\n              pop\n                /* \"XEN/Active.sol\":854:864  xenAddress */\n              0x00\n              dup1\n              sload\n              swap1\n              0x0100\n              exp\n              swap1\n              div\n              0xffffffffffffffffffffffffffffffffffffffff\n              and\n                /* \"XEN/Active.sol\":849:874  IXen(xenAddress).transfer */\n              0xffffffffffffffffffffffffffffffffffffffff\n              and\n              0xa9059cbb\n                /* \"XEN/Active.sol\":875:888  rewardAddress */\n              0x01\n              0x00\n              swap1\n              sload\n              swap1\n              0x0100\n              exp\n              swap1\n              div\n              0xffffffffffffffffffffffffffffffffffffffff\n              and\n                /* \"XEN/Active.sol\":890:898  banlance */\n              dup4\n                /* \"XEN/Active.sol\":849:899  IXen(xenAddress).transfer(rewardAddress, banlance) */\n              mload(0x40)\n              dup4\n              0xffffffff\n              and\n              0xe0\n              shl\n              dup2\n              mstore\n              0x04\n              add\n              tag_24\n              swap3\n              swap2\n              swap1\n              tag_25\n              jump\t// in\n            tag_24:\n              0x20\n              mload(0x40)\n              dup1\n              dup4\n              sub\n              dup2\n              0x00\n              dup8\n              gas\n              call\n              iszero\n              dup1\n              iszero\n              tag_27\n              jumpi\n              returndatasize\n              0x00\n              dup1\n              returndatacopy\n              revert(0x00, returndatasize)\n            tag_27:\n              pop\n              pop\n              pop\n              pop\n              mload(0x40)\n              returndatasize\n              not(0x1f)\n              0x1f\n              dup3\n              add\n              and\n              dup3\n              add\n              dup1\n              0x40\n              mstore\n              pop\n              dup2\n              add\n              swap1\n              tag_28\n              swap2\n              swap1\n              tag_29\n              jump\t// in\n            tag_28:\n              pop\n                /* \"XEN/Active.sol\":931:944  rewardAddress */\n              0x01\n              0x00\n              swap1\n              sload\n              swap1\n              0x0100\n              exp\n              swap1\n              div\n              0xffffffffffffffffffffffffffffffffffffffff\n              and\n                /* \"XEN/Active.sol\":910:946  selfdestruct(payable(rewardAddress)) */\n              0xffffffffffffffffffffffffffffffffffffffff\n              and\n              selfdestruct\n                /* \"XEN/Active.sol\":471:544  address public rewardAddress = 0x6971b57a29764eD7af4A4a1ED7a512Dde9369Ef6 */\n            tag_13:\n              0x01\n              0x00\n              swap1\n              sload\n              swap1\n              0x0100\n              exp\n              swap1\n              div\n              0xffffffffffffffffffffffffffffffffffffffff\n              and\n              dup2\n              jump\t// out\n                /* \"#utility.yul\":7:133   */\n            tag_30:\n                /* \"#utility.yul\":44:51   */\n              0x00\n                /* \"#utility.yul\":84:126   */\n              0xffffffffffffffffffffffffffffffffffffffff\n                /* \"#utility.yul\":77:82   */\n              dup3\n                /* \"#utility.yul\":73:127   */\n              and\n                /* \"#utility.yul\":62:127   */\n              swap1\n              pop\n                /* \"#utility.yul\":7:133   */\n              swap2\n              swap1\n              pop\n              jump\t// out\n                /* \"#utility.yul\":139:235   */\n            tag_31:\n                /* \"#utility.yul\":176:183   */\n              0x00\n                /* \"#utility.yul\":205:229   */\n              tag_46\n                /* \"#utility.yul\":223:228   */\n              dup3\n                /* \"#utility.yul\":205:229   */\n              tag_30\n              jump\t// in\n            tag_46:\n                /* \"#utility.yul\":194:229   */\n              swap1\n              pop\n                /* \"#utility.yul\":139:235   */\n              swap2\n              swap1\n              pop\n              jump\t// out\n                /* \"#utility.yul\":241:359   */\n            tag_32:\n                /* \"#utility.yul\":328:352   */\n              tag_48\n                /* \"#utility.yul\":346:351   */\n              dup2\n                /* \"#utility.yul\":328:352   */\n              tag_31\n              jump\t// in\n            tag_48:\n                /* \"#utility.yul\":323:326   */\n              dup3\n                /* \"#utility.yul\":316:353   */\n              mstore\n                /* \"#utility.yul\":241:359   */\n              pop\n              pop\n              jump\t// out\n                /* \"#utility.yul\":365:587   */\n            tag_9:\n                /* \"#utility.yul\":458:462   */\n              0x00\n                /* \"#utility.yul\":496:498   */\n              0x20\n                /* \"#utility.yul\":485:494   */\n              dup3\n                /* \"#utility.yul\":481:499   */\n              add\n                /* \"#utility.yul\":473:499   */\n              swap1\n              pop\n                /* \"#utility.yul\":509:580   */\n              tag_50\n                /* \"#utility.yul\":577:578   */\n              0x00\n                /* \"#utility.yul\":566:575   */\n              dup4\n                /* \"#utility.yul\":562:579   */\n              add\n                /* \"#utility.yul\":553:559   */\n              dup5\n                /* \"#utility.yul\":509:580   */\n              tag_32\n              jump\t// in\n            tag_50:\n                /* \"#utility.yul\":365:587   */\n              swap3\n              swap2\n              pop\n              pop\n              jump\t// out\n                /* \"#utility.yul\":674:791   */\n            tag_34:\n                /* \"#utility.yul\":783:784   */\n              0x00\n                /* \"#utility.yul\":780:781   */\n              dup1\n                /* \"#utility.yul\":773:785   */\n              revert\n                /* \"#utility.yul\":920:997   */\n            tag_36:\n                /* \"#utility.yul\":957:964   */\n              0x00\n                /* \"#utility.yul\":986:991   */\n              dup2\n                /* \"#utility.yul\":975:991   */\n              swap1\n              pop\n                /* \"#utility.yul\":920:997   */\n              swap2\n              swap1\n              pop\n              jump\t// out\n                /* \"#utility.yul\":1003:1125   */\n            tag_37:\n                /* \"#utility.yul\":1076:1100   */\n              tag_56\n                /* \"#utility.yul\":1094:1099   */\n              dup2\n                /* \"#utility.yul\":1076:1100   */\n              tag_36\n              jump\t// in\n            tag_56:\n                /* \"#utility.yul\":1069:1074   */\n              dup2\n                /* \"#utility.yul\":1066:1101   */\n              eq\n                /* \"#utility.yul\":1056:1119   */\n              tag_57\n              jumpi\n                /* \"#utility.yul\":1115:1116   */\n              0x00\n                /* \"#utility.yul\":1112:1113   */\n              dup1\n                /* \"#utility.yul\":1105:1117   */\n              revert\n                /* \"#utility.yul\":1056:1119   */\n            tag_57:\n                /* \"#utility.yul\":1003:1125   */\n              pop\n              jump\t// out\n                /* \"#utility.yul\":1131:1274   */\n            tag_38:\n                /* \"#utility.yul\":1188:1193   */\n              0x00\n                /* \"#utility.yul\":1219:1225   */\n              dup2\n                /* \"#utility.yul\":1213:1226   */\n              mload\n                /* \"#utility.yul\":1204:1226   */\n              swap1\n              pop\n                /* \"#utility.yul\":1235:1268   */\n              tag_59\n                /* \"#utility.yul\":1262:1267   */\n              dup2\n                /* \"#utility.yul\":1235:1268   */\n              tag_37\n              jump\t// in\n            tag_59:\n                /* \"#utility.yul\":1131:1274   */\n              swap3\n              swap2\n              pop\n              pop\n              jump\t// out\n                /* \"#utility.yul\":1280:1631   */\n            tag_23:\n                /* \"#utility.yul\":1350:1356   */\n              0x00\n                /* \"#utility.yul\":1399:1401   */\n              0x20\n                /* \"#utility.yul\":1387:1396   */\n              dup3\n                /* \"#utility.yul\":1378:1385   */\n              dup5\n                /* \"#utility.yul\":1374:1397   */\n              sub\n                /* \"#utility.yul\":1370:1402   */\n              slt\n                /* \"#utility.yul\":1367:1486   */\n              iszero\n              tag_61\n              jumpi\n                /* \"#utility.yul\":1405:1484   */\n              tag_62\n              tag_34\n              jump\t// in\n            tag_62:\n                /* \"#utility.yul\":1367:1486   */\n            tag_61:\n                /* \"#utility.yul\":1525:1526   */\n              0x00\n                /* \"#utility.yul\":1550:1614   */\n              tag_63\n                /* \"#utility.yul\":1606:1613   */\n              dup5\n                /* \"#utility.yul\":1597:1603   */\n              dup3\n                /* \"#utility.yul\":1586:1595   */\n              dup6\n                /* \"#utility.yul\":1582:1604   */\n              add\n                /* \"#utility.yul\":1550:1614   */\n              tag_38\n              jump\t// in\n            tag_63:\n                /* \"#utility.yul\":1540:1614   */\n              swap2\n              pop\n                /* \"#utility.yul\":1496:1624   */\n              pop\n                /* \"#utility.yul\":1280:1631   */\n              swap3\n              swap2\n              pop\n              pop\n              jump\t// out\n                /* \"#utility.yul\":1637:1755   */\n            tag_39:\n                /* \"#utility.yul\":1724:1748   */\n              tag_65\n                /* \"#utility.yul\":1742:1747   */\n              dup2\n                /* \"#utility.yul\":1724:1748   */\n              tag_36\n              jump\t// in\n            tag_65:\n                /* \"#utility.yul\":1719:1722   */\n              dup3\n                /* \"#utility.yul\":1712:1749   */\n              mstore\n                /* \"#utility.yul\":1637:1755   */\n              pop\n              pop\n              jump\t// out\n                /* \"#utility.yul\":1761:2093   */\n            tag_25:\n                /* \"#utility.yul\":1882:1886   */\n              0x00\n                /* \"#utility.yul\":1920:1922   */\n              0x40\n                /* \"#utility.yul\":1909:1918   */\n              dup3\n                /* \"#utility.yul\":1905:1923   */\n              add\n                /* \"#utility.yul\":1897:1923   */\n              swap1\n              pop\n                /* \"#utility.yul\":1933:2004   */\n              tag_67\n                /* \"#utility.yul\":2001:2002   */\n              0x00\n                /* \"#utility.yul\":1990:1999   */\n              dup4\n                /* \"#utility.yul\":1986:2003   */\n              add\n                /* \"#utility.yul\":1977:1983   */\n              dup6\n                /* \"#utility.yul\":1933:2004   */\n              tag_32\n              jump\t// in\n            tag_67:\n                /* \"#utility.yul\":2014:2086   */\n              tag_68\n                /* \"#utility.yul\":2082:2084   */\n              0x20\n                /* \"#utility.yul\":2071:2080   */\n              dup4\n                /* \"#utility.yul\":2067:2085   */\n              add\n                /* \"#utility.yul\":2058:2064   */\n              dup5\n                /* \"#utility.yul\":2014:2086   */\n              tag_39\n              jump\t// in\n            tag_68:\n                /* \"#utility.yul\":1761:2093   */\n              swap4\n              swap3\n              pop\n              pop\n              pop\n              jump\t// out\n                /* \"#utility.yul\":2099:2189   */\n            tag_40:\n                /* \"#utility.yul\":2133:2140   */\n              0x00\n                /* \"#utility.yul\":2176:2181   */\n              dup2\n                /* \"#utility.yul\":2169:2182   */\n              iszero\n                /* \"#utility.yul\":2162:2183   */\n              iszero\n                /* \"#utility.yul\":2151:2183   */\n              swap1\n              pop\n                /* \"#utility.yul\":2099:2189   */\n              swap2\n              swap1\n              pop\n              jump\t// out\n                /* \"#utility.yul\":2195:2311   */\n            tag_41:\n                /* \"#utility.yul\":2265:2286   */\n              tag_71\n                /* \"#utility.yul\":2280:2285   */\n              dup2\n                /* \"#utility.yul\":2265:2286   */\n              tag_40\n              jump\t// in\n            tag_71:\n                /* \"#utility.yul\":2258:2263   */\n              dup2\n                /* \"#utility.yul\":2255:2287   */\n              eq\n                /* \"#utility.yul\":2245:2305   */\n              tag_72\n              jumpi\n                /* \"#utility.yul\":2301:2302   */\n              0x00\n                /* \"#utility.yul\":2298:2299   */\n              dup1\n                /* \"#utility.yul\":2291:2303   */\n              revert\n                /* \"#utility.yul\":2245:2305   */\n            tag_72:\n                /* \"#utility.yul\":2195:2311   */\n              pop\n              jump\t// out\n                /* \"#utility.yul\":2317:2454   */\n            tag_42:\n                /* \"#utility.yul\":2371:2376   */\n              0x00\n                /* \"#utility.yul\":2402:2408   */\n              dup2\n                /* \"#utility.yul\":2396:2409   */\n              mload\n                /* \"#utility.yul\":2387:2409   */\n              swap1\n              pop\n                /* \"#utility.yul\":2418:2448   */\n              tag_74\n                /* \"#utility.yul\":2442:2447   */\n              dup2\n                /* \"#utility.yul\":2418:2448   */\n              tag_41\n              jump\t// in\n            tag_74:\n                /* \"#utility.yul\":2317:2454   */\n              swap3\n              swap2\n              pop\n              pop\n              jump\t// out\n                /* \"#utility.yul\":2460:2805   */\n            tag_29:\n                /* \"#utility.yul\":2527:2533   */\n              0x00\n                /* \"#utility.yul\":2576:2578   */\n              0x20\n                /* \"#utility.yul\":2564:2573   */\n              dup3\n                /* \"#utility.yul\":2555:2562   */\n              dup5\n                /* \"#utility.yul\":2551:2574   */\n              sub\n                /* \"#utility.yul\":2547:2579   */\n              slt\n                /* \"#utility.yul\":2544:2663   */\n              iszero\n              tag_76\n              jumpi\n                /* \"#utility.yul\":2582:2661   */\n              tag_77\n              tag_34\n              jump\t// in\n            tag_77:\n                /* \"#utility.yul\":2544:2663   */\n            tag_76:\n                /* \"#utility.yul\":2702:2703   */\n              0x00\n                /* \"#utility.yul\":2727:2788   */\n              tag_78\n                /* \"#utility.yul\":2780:2787   */\n              dup5\n                /* \"#utility.yul\":2771:2777   */\n              dup3\n                /* \"#utility.yul\":2760:2769   */\n              dup6\n                /* \"#utility.yul\":2756:2778   */\n              add\n                /* \"#utility.yul\":2727:2788   */\n              tag_42\n              jump\t// in\n            tag_78:\n                /* \"#utility.yul\":2717:2788   */\n              swap2\n              pop\n                /* \"#utility.yul\":2673:2798   */\n              pop\n                /* \"#utility.yul\":2460:2805   */\n              swap3\n              swap2\n              pop\n              pop\n              jump\t// out\n\n            auxdata: 0xa26469706673582212207017fd9b571012234b2b4688cbedadb3a2c025def47529a1c3e9d51a6fc1576f64736f6c63430008110033\n        }\n    }\n\n    auxdata: 0xa26469706673582212204017d5e40bfa249f913643b1356201bf47138c441b673cfb573149b58863c57864736f6c63430008110033\n}\n",
				"bytecode": {
					"linkReferences": {},
					"object": "60806040526005805534801561001457600080fd5b5061003161002661003660201b60201c565b61003e60201b60201c565b610102565b600033905090565b60008060009054906101000a900473ffffffffffffffffffffffffffffffffffffffff169050816000806101000a81548173ffffffffffffffffffffffffffffffffffffffff021916908373ffffffffffffffffffffffffffffffffffffffff1602179055508173ffffffffffffffffffffffffffffffffffffffff168173ffffffffffffffffffffffffffffffffffffffff167f8be0079c531659141344cd1fd0a4f28419497f9722a3daafe3b4186f6b6457e060405160405180910390a35050565b61123b806101116000396000f3fe608060405260043610620000af5760003560e01c80638bc1f9ba116200006d5780638bc1f9ba14620003425780638da5cb5b14620003705780639e3b34bf14620003a0578063e61ca81914620003d0578063e9ee2fa91462000414578063f2fde38b1462000444576200027b565b80632986c0e5146200028057806351cff8d914620002b057806362548c7b14620002de578063715018a614620002f8578063890eba681462000312576200027b565b366200027b57600260009054906101000a900460ff1662000187576000600354905060005b60055481101562000167576000620000eb62000472565b9050806001600085815260200190815260200160002060006101000a81548173ffffffffffffffffffffffffffffffffffffffff021916908373ffffffffffffffffffffffffffffffffffffffff1602179055506001836200014e9190620007fa565b92505080806200015e9062000835565b915050620000d4565b506005546003546200017a9190620007fa565b6003819055505062000279565b6000600454905060005b6005548110156200025e5760006001600084815260200190815260200160002060009054906101000a900473ffffffffffffffffffffffffffffffffffffffff1690508073ffffffffffffffffffffffffffffffffffffffff166368ae560d6040518163ffffffff1660e01b8152600401600060405180830381600087803b1580156200021d57600080fd5b505af115801562000232573d6000803e3d6000fd5b50505050600183620002459190620007fa565b9250508080620002559062000835565b91505062000191565b50600554600454620002719190620007fa565b600481905550505b005b600080fd5b3480156200028d57600080fd5b5062000298620004aa565b604051620002a7919062000893565b60405180910390f35b348015620002bd57600080fd5b50620002dc6004803603810190620002d691906200091a565b620004b0565b005b348015620002eb57600080fd5b50620002f6620004fb565b005b3480156200030557600080fd5b506200031062000531565b005b3480156200031f57600080fd5b506200032a62000549565b60405162000339919062000969565b60405180910390f35b3480156200034f57600080fd5b506200036e6004803603810190620003689190620009b7565b6200055c565b005b3480156200037d57600080fd5b506200038862000570565b60405162000397919062000a0e565b60405180910390f35b348015620003ad57600080fd5b50620003b862000599565b604051620003c7919062000893565b60405180910390f35b348015620003dd57600080fd5b50620003fc6004803603810190620003f69190620009b7565b6200059f565b6040516200040b919062000a0e565b60405180910390f35b3480156200042157600080fd5b506200042c620005d2565b6040516200043b919062000893565b60405180910390f35b3480156200045157600080fd5b506200047060048036038101906200046a919062000a5c565b620005d8565b005b6000806040516200048390620007b3565b604051809103906000f080158015620004a0573d6000803e3d6000fd5b5090508091505090565b60035481565b8073ffffffffffffffffffffffffffffffffffffffff166108fc479081150290604051600060405180830381858888f19350505050158015620004f7573d6000803e3d6000fd5b5050565b6200050562000662565b600260009054906101000a900460ff1615600260006101000a81548160ff021916908315150217905550565b6200053b62000662565b620005476000620006e7565b565b600260009054906101000a900460ff1681565b6200056662000662565b8060058190555050565b60008060009054906101000a900473ffffffffffffffffffffffffffffffffffffffff16905090565b60055481565b60016020528060005260406000206000915054906101000a900473ffffffffffffffffffffffffffffffffffffffff1681565b60045481565b620005e262000662565b600073ffffffffffffffffffffffffffffffffffffffff168173ffffffffffffffffffffffffffffffffffffffff160362000654576040517f08c379a00000000000000000000000000000000000000000000000000000000081526004016200064b9062000b15565b60405180910390fd5b6200065f81620006e7565b50565b6200066c620007ab565b73ffffffffffffffffffffffffffffffffffffffff166200068c62000570565b73ffffffffffffffffffffffffffffffffffffffff1614620006e5576040517f08c379a0000000000000000000000000000000000000000000000000000000008152600401620006dc9062000b87565b60405180910390fd5b565b60008060009054906101000a900473ffffffffffffffffffffffffffffffffffffffff169050816000806101000a81548173ffffffffffffffffffffffffffffffffffffffff021916908373ffffffffffffffffffffffffffffffffffffffff1602179055508173ffffffffffffffffffffffffffffffffffffffff168173ffffffffffffffffffffffffffffffffffffffff167f8be0079c531659141344cd1fd0a4f28419497f9722a3daafe3b4186f6b6457e060405160405180910390a35050565b600033905090565b61065c8062000baa83390190565b6000819050919050565b7f4e487b7100000000000000000000000000000000000000000000000000000000600052601160045260246000fd5b60006200080782620007c1565b91506200081483620007c1565b92508282019050808211156200082f576200082e620007cb565b5b92915050565b60006200084282620007c1565b91507fffffffffffffffffffffffffffffffffffffffffffffffffffffffffffffffff8203620008775762000876620007cb565b5b600182019050919050565b6200088d81620007c1565b82525050565b6000602082019050620008aa600083018462000882565b92915050565b600080fd5b600073ffffffffffffffffffffffffffffffffffffffff82169050919050565b6000620008e282620008b5565b9050919050565b620008f481620008d5565b81146200090057600080fd5b50565b6000813590506200091481620008e9565b92915050565b600060208284031215620009335762000932620008b0565b5b6000620009438482850162000903565b91505092915050565b60008115159050919050565b62000963816200094c565b82525050565b600060208201905062000980600083018462000958565b92915050565b6200099181620007c1565b81146200099d57600080fd5b50565b600081359050620009b18162000986565b92915050565b600060208284031215620009d057620009cf620008b0565b5b6000620009e084828501620009a0565b91505092915050565b6000620009f682620008b5565b9050919050565b62000a0881620009e9565b82525050565b600060208201905062000a256000830184620009fd565b92915050565b62000a3681620009e9565b811462000a4257600080fd5b50565b60008135905062000a568162000a2b565b92915050565b60006020828403121562000a755762000a74620008b0565b5b600062000a858482850162000a45565b91505092915050565b600082825260208201905092915050565b7f4f776e61626c653a206e6577206f776e657220697320746865207a65726f206160008201527f6464726573730000000000000000000000000000000000000000000000000000602082015250565b600062000afd60268362000a8e565b915062000b0a8262000a9f565b604082019050919050565b6000602082019050818103600083015262000b308162000aee565b9050919050565b7f4f776e61626c653a2063616c6c6572206973206e6f7420746865206f776e6572600082015250565b600062000b6f60208362000a8e565b915062000b7c8262000b37565b602082019050919050565b6000602082019050818103600083015262000ba28162000b60565b905091905056fe6080604052732ab0e9e4ee70fff1fb9d67031e44f6410170d00e6000806101000a81548173ffffffffffffffffffffffffffffffffffffffff021916908373ffffffffffffffffffffffffffffffffffffffff160217905550736971b57a29764ed7af4a4a1ed7a512dde9369ef6600160006101000a81548173ffffffffffffffffffffffffffffffffffffffff021916908373ffffffffffffffffffffffffffffffffffffffff1602179055503480156100b957600080fd5b506100c86100cd60201b60201c565b6101c5565b60008054906101000a900473ffffffffffffffffffffffffffffffffffffffff1673ffffffffffffffffffffffffffffffffffffffff16639ff054df60016040518263ffffffff1660e01b815260040161012791906101aa565b600060405180830381600087803b15801561014157600080fd5b505af1158015610155573d6000803e3d6000fd5b50505050565b6000819050919050565b6000819050919050565b6000819050919050565b600061019461018f61018a8461015b565b61016f565b610165565b9050919050565b6101a481610179565b82525050565b60006020820190506101bf600083018461019b565b92915050565b610488806101d46000396000f3fe608060405234801561001057600080fd5b50600436106100415760003560e01c8063433af2401461004657806368ae560d146100645780638cf57cb91461006e575b600080fd5b61004e61008c565b60405161005b9190610332565b60405180910390f35b61006c6100b0565b005b6100766102cb565b6040516100839190610332565b60405180910390f35b60008054906101000a900473ffffffffffffffffffffffffffffffffffffffff1681565b60008054906101000a900473ffffffffffffffffffffffffffffffffffffffff1673ffffffffffffffffffffffffffffffffffffffff166352c7f8dc6040518163ffffffff1660e01b8152600401600060405180830381600087803b15801561011857600080fd5b505af115801561012c573d6000803e3d6000fd5b5050505060008060009054906101000a900473ffffffffffffffffffffffffffffffffffffffff1673ffffffffffffffffffffffffffffffffffffffff166370a08231306040518263ffffffff1660e01b815260040161018c9190610332565b602060405180830381865afa1580156101a9573d6000803e3d6000fd5b505050506040513d601f19601f820116820180604052508101906101cd9190610388565b905060008054906101000a900473ffffffffffffffffffffffffffffffffffffffff1673ffffffffffffffffffffffffffffffffffffffff1663a9059cbb600160009054906101000a900473ffffffffffffffffffffffffffffffffffffffff16836040518363ffffffff1660e01b815260040161024c9291906103c4565b6020604051808303816000875af115801561026b573d6000803e3d6000fd5b505050506040513d601f19601f8201168201806040525081019061028f9190610425565b50600160009054906101000a900473ffffffffffffffffffffffffffffffffffffffff1673ffffffffffffffffffffffffffffffffffffffff16ff5b600160009054906101000a900473ffffffffffffffffffffffffffffffffffffffff1681565b600073ffffffffffffffffffffffffffffffffffffffff82169050919050565b600061031c826102f1565b9050919050565b61032c81610311565b82525050565b60006020820190506103476000830184610323565b92915050565b600080fd5b6000819050919050565b61036581610352565b811461037057600080fd5b50565b6000815190506103828161035c565b92915050565b60006020828403121561039e5761039d61034d565b5b60006103ac84828501610373565b91505092915050565b6103be81610352565b82525050565b60006040820190506103d96000830185610323565b6103e660208301846103b5565b9392505050565b60008115159050919050565b610402816103ed565b811461040d57600080fd5b50565b60008151905061041f816103f9565b92915050565b60006020828403121561043b5761043a61034d565b5b600061044984828501610410565b9150509291505056fea26469706673582212207017fd9b571012234b2b4688cbedadb3a2c025def47529a1c3e9d51a6fc1576f64736f6c63430008110033a26469706673582212204017d5e40bfa249f913643b1356201bf47138c441b673cfb573149b58863c57864736f6c63430008110033",
					"opcodes": "PUSH1 0x80 PUSH1 0x40 MSTORE PUSH1 0x5 DUP1 SSTORE CALLVALUE DUP1 ISZERO PUSH2 0x14 JUMPI PUSH1 0x0 DUP1 REVERT JUMPDEST POP PUSH2 0x31 PUSH2 0x26 PUSH2 0x36 PUSH1 0x20 SHL PUSH1 0x20 SHR JUMP JUMPDEST PUSH2 0x3E PUSH1 0x20 SHL PUSH1 0x20 SHR JUMP JUMPDEST PUSH2 0x102 JUMP JUMPDEST PUSH1 0x0 CALLER SWAP1 POP SWAP1 JUMP JUMPDEST PUSH1 0x0 DUP1 PUSH1 0x0 SWAP1 SLOAD SWAP1 PUSH2 0x100 EXP SWAP1 DIV PUSH20 0xFFFFFFFFFFFFFFFFFFFFFFFFFFFFFFFFFFFFFFFF AND SWAP1 POP DUP2 PUSH1 0x0 DUP1 PUSH2 0x100 EXP DUP2 SLOAD DUP2 PUSH20 0xFFFFFFFFFFFFFFFFFFFFFFFFFFFFFFFFFFFFFFFF MUL NOT AND SWAP1 DUP4 PUSH20 0xFFFFFFFFFFFFFFFFFFFFFFFFFFFFFFFFFFFFFFFF AND MUL OR SWAP1 SSTORE POP DUP2 PUSH20 0xFFFFFFFFFFFFFFFFFFFFFFFFFFFFFFFFFFFFFFFF AND DUP2 PUSH20 0xFFFFFFFFFFFFFFFFFFFFFFFFFFFFFFFFFFFFFFFF AND PUSH32 0x8BE0079C531659141344CD1FD0A4F28419497F9722A3DAAFE3B4186F6B6457E0 PUSH1 0x40 MLOAD PUSH1 0x40 MLOAD DUP1 SWAP2 SUB SWAP1 LOG3 POP POP JUMP JUMPDEST PUSH2 0x123B DUP1 PUSH2 0x111 PUSH1 0x0 CODECOPY PUSH1 0x0 RETURN INVALID PUSH1 0x80 PUSH1 0x40 MSTORE PUSH1 0x4 CALLDATASIZE LT PUSH3 0xAF JUMPI PUSH1 0x0 CALLDATALOAD PUSH1 0xE0 SHR DUP1 PUSH4 0x8BC1F9BA GT PUSH3 0x6D JUMPI DUP1 PUSH4 0x8BC1F9BA EQ PUSH3 0x342 JUMPI DUP1 PUSH4 0x8DA5CB5B EQ PUSH3 0x370 JUMPI DUP1 PUSH4 0x9E3B34BF EQ PUSH3 0x3A0 JUMPI DUP1 PUSH4 0xE61CA819 EQ PUSH3 0x3D0 JUMPI DUP1 PUSH4 0xE9EE2FA9 EQ PUSH3 0x414 JUMPI DUP1 PUSH4 0xF2FDE38B EQ PUSH3 0x444 JUMPI PUSH3 0x27B JUMP JUMPDEST DUP1 PUSH4 0x2986C0E5 EQ PUSH3 0x280 JUMPI DUP1 PUSH4 0x51CFF8D9 EQ PUSH3 0x2B0 JUMPI DUP1 PUSH4 0x62548C7B EQ PUSH3 0x2DE JUMPI DUP1 PUSH4 0x715018A6 EQ PUSH3 0x2F8 JUMPI DUP1 PUSH4 0x890EBA68 EQ PUSH3 0x312 JUMPI PUSH3 0x27B JUMP JUMPDEST CALLDATASIZE PUSH3 0x27B JUMPI PUSH1 0x2 PUSH1 0x0 SWAP1 SLOAD SWAP1 PUSH2 0x100 EXP SWAP1 DIV PUSH1 0xFF AND PUSH3 0x187 JUMPI PUSH1 0x0 PUSH1 0x3 SLOAD SWAP1 POP PUSH1 0x0 JUMPDEST PUSH1 0x5 SLOAD DUP2 LT ISZERO PUSH3 0x167 JUMPI PUSH1 0x0 PUSH3 0xEB PUSH3 0x472 JUMP JUMPDEST SWAP1 POP DUP1 PUSH1 0x1 PUSH1 0x0 DUP6 DUP2 MSTORE PUSH1 0x20 ADD SWAP1 DUP2 MSTORE PUSH1 0x20 ADD PUSH1 0x0 KECCAK256 PUSH1 0x0 PUSH2 0x100 EXP DUP2 SLOAD DUP2 PUSH20 0xFFFFFFFFFFFFFFFFFFFFFFFFFFFFFFFFFFFFFFFF MUL NOT AND SWAP1 DUP4 PUSH20 0xFFFFFFFFFFFFFFFFFFFFFFFFFFFFFFFFFFFFFFFF AND MUL OR SWAP1 SSTORE POP PUSH1 0x1 DUP4 PUSH3 0x14E SWAP2 SWAP1 PUSH3 0x7FA JUMP JUMPDEST SWAP3 POP POP DUP1 DUP1 PUSH3 0x15E SWAP1 PUSH3 0x835 JUMP JUMPDEST SWAP2 POP POP PUSH3 0xD4 JUMP JUMPDEST POP PUSH1 0x5 SLOAD PUSH1 0x3 SLOAD PUSH3 0x17A SWAP2 SWAP1 PUSH3 0x7FA JUMP JUMPDEST PUSH1 0x3 DUP2 SWAP1 SSTORE POP POP PUSH3 0x279 JUMP JUMPDEST PUSH1 0x0 PUSH1 0x4 SLOAD SWAP1 POP PUSH1 0x0 JUMPDEST PUSH1 0x5 SLOAD DUP2 LT ISZERO PUSH3 0x25E JUMPI PUSH1 0x0 PUSH1 0x1 PUSH1 0x0 DUP5 DUP2 MSTORE PUSH1 0x20 ADD SWAP1 DUP2 MSTORE PUSH1 0x20 ADD PUSH1 0x0 KECCAK256 PUSH1 0x0 SWAP1 SLOAD SWAP1 PUSH2 0x100 EXP SWAP1 DIV PUSH20 0xFFFFFFFFFFFFFFFFFFFFFFFFFFFFFFFFFFFFFFFF AND SWAP1 POP DUP1 PUSH20 0xFFFFFFFFFFFFFFFFFFFFFFFFFFFFFFFFFFFFFFFF AND PUSH4 0x68AE560D PUSH1 0x40 MLOAD DUP2 PUSH4 0xFFFFFFFF AND PUSH1 0xE0 SHL DUP2 MSTORE PUSH1 0x4 ADD PUSH1 0x0 PUSH1 0x40 MLOAD DUP1 DUP4 SUB DUP2 PUSH1 0x0 DUP8 DUP1 EXTCODESIZE ISZERO DUP1 ISZERO PUSH3 0x21D JUMPI PUSH1 0x0 DUP1 REVERT JUMPDEST POP GAS CALL ISZERO DUP1 ISZERO PUSH3 0x232 JUMPI RETURNDATASIZE PUSH1 0x0 DUP1 RETURNDATACOPY RETURNDATASIZE PUSH1 0x0 REVERT JUMPDEST POP POP POP POP PUSH1 0x1 DUP4 PUSH3 0x245 SWAP2 SWAP1 PUSH3 0x7FA JUMP JUMPDEST SWAP3 POP POP DUP1 DUP1 PUSH3 0x255 SWAP1 PUSH3 0x835 JUMP JUMPDEST SWAP2 POP POP PUSH3 0x191 JUMP JUMPDEST POP PUSH1 0x5 SLOAD PUSH1 0x4 SLOAD PUSH3 0x271 SWAP2 SWAP1 PUSH3 0x7FA JUMP JUMPDEST PUSH1 0x4 DUP2 SWAP1 SSTORE POP POP JUMPDEST STOP JUMPDEST PUSH1 0x0 DUP1 REVERT JUMPDEST CALLVALUE DUP1 ISZERO PUSH3 0x28D JUMPI PUSH1 0x0 DUP1 REVERT JUMPDEST POP PUSH3 0x298 PUSH3 0x4AA JUMP JUMPDEST PUSH1 0x40 MLOAD PUSH3 0x2A7 SWAP2 SWAP1 PUSH3 0x893 JUMP JUMPDEST PUSH1 0x40 MLOAD DUP1 SWAP2 SUB SWAP1 RETURN JUMPDEST CALLVALUE DUP1 ISZERO PUSH3 0x2BD JUMPI PUSH1 0x0 DUP1 REVERT JUMPDEST POP PUSH3 0x2DC PUSH1 0x4 DUP1 CALLDATASIZE SUB DUP2 ADD SWAP1 PUSH3 0x2D6 SWAP2 SWAP1 PUSH3 0x91A JUMP JUMPDEST PUSH3 0x4B0 JUMP JUMPDEST STOP JUMPDEST CALLVALUE DUP1 ISZERO PUSH3 0x2EB JUMPI PUSH1 0x0 DUP1 REVERT JUMPDEST POP PUSH3 0x2F6 PUSH3 0x4FB JUMP JUMPDEST STOP JUMPDEST CALLVALUE DUP1 ISZERO PUSH3 0x305 JUMPI PUSH1 0x0 DUP1 REVERT JUMPDEST POP PUSH3 0x310 PUSH3 0x531 JUMP JUMPDEST STOP JUMPDEST CALLVALUE DUP1 ISZERO PUSH3 0x31F JUMPI PUSH1 0x0 DUP1 REVERT JUMPDEST POP PUSH3 0x32A PUSH3 0x549 JUMP JUMPDEST PUSH1 0x40 MLOAD PUSH3 0x339 SWAP2 SWAP1 PUSH3 0x969 JUMP JUMPDEST PUSH1 0x40 MLOAD DUP1 SWAP2 SUB SWAP1 RETURN JUMPDEST CALLVALUE DUP1 ISZERO PUSH3 0x34F JUMPI PUSH1 0x0 DUP1 REVERT JUMPDEST POP PUSH3 0x36E PUSH1 0x4 DUP1 CALLDATASIZE SUB DUP2 ADD SWAP1 PUSH3 0x368 SWAP2 SWAP1 PUSH3 0x9B7 JUMP JUMPDEST PUSH3 0x55C JUMP JUMPDEST STOP JUMPDEST CALLVALUE DUP1 ISZERO PUSH3 0x37D JUMPI PUSH1 0x0 DUP1 REVERT JUMPDEST POP PUSH3 0x388 PUSH3 0x570 JUMP JUMPDEST PUSH1 0x40 MLOAD PUSH3 0x397 SWAP2 SWAP1 PUSH3 0xA0E JUMP JUMPDEST PUSH1 0x40 MLOAD DUP1 SWAP2 SUB SWAP1 RETURN JUMPDEST CALLVALUE DUP1 ISZERO PUSH3 0x3AD JUMPI PUSH1 0x0 DUP1 REVERT JUMPDEST POP PUSH3 0x3B8 PUSH3 0x599 JUMP JUMPDEST PUSH1 0x40 MLOAD PUSH3 0x3C7 SWAP2 SWAP1 PUSH3 0x893 JUMP JUMPDEST PUSH1 0x40 MLOAD DUP1 SWAP2 SUB SWAP1 RETURN JUMPDEST CALLVALUE DUP1 ISZERO PUSH3 0x3DD JUMPI PUSH1 0x0 DUP1 REVERT JUMPDEST POP PUSH3 0x3FC PUSH1 0x4 DUP1 CALLDATASIZE SUB DUP2 ADD SWAP1 PUSH3 0x3F6 SWAP2 SWAP1 PUSH3 0x9B7 JUMP JUMPDEST PUSH3 0x59F JUMP JUMPDEST PUSH1 0x40 MLOAD PUSH3 0x40B SWAP2 SWAP1 PUSH3 0xA0E JUMP JUMPDEST PUSH1 0x40 MLOAD DUP1 SWAP2 SUB SWAP1 RETURN JUMPDEST CALLVALUE DUP1 ISZERO PUSH3 0x421 JUMPI PUSH1 0x0 DUP1 REVERT JUMPDEST POP PUSH3 0x42C PUSH3 0x5D2 JUMP JUMPDEST PUSH1 0x40 MLOAD PUSH3 0x43B SWAP2 SWAP1 PUSH3 0x893 JUMP JUMPDEST PUSH1 0x40 MLOAD DUP1 SWAP2 SUB SWAP1 RETURN JUMPDEST CALLVALUE DUP1 ISZERO PUSH3 0x451 JUMPI PUSH1 0x0 DUP1 REVERT JUMPDEST POP PUSH3 0x470 PUSH1 0x4 DUP1 CALLDATASIZE SUB DUP2 ADD SWAP1 PUSH3 0x46A SWAP2 SWAP1 PUSH3 0xA5C JUMP JUMPDEST PUSH3 0x5D8 JUMP JUMPDEST STOP JUMPDEST PUSH1 0x0 DUP1 PUSH1 0x40 MLOAD PUSH3 0x483 SWAP1 PUSH3 0x7B3 JUMP JUMPDEST PUSH1 0x40 MLOAD DUP1 SWAP2 SUB SWAP1 PUSH1 0x0 CREATE DUP1 ISZERO DUP1 ISZERO PUSH3 0x4A0 JUMPI RETURNDATASIZE PUSH1 0x0 DUP1 RETURNDATACOPY RETURNDATASIZE PUSH1 0x0 REVERT JUMPDEST POP SWAP1 POP DUP1 SWAP2 POP POP SWAP1 JUMP JUMPDEST PUSH1 0x3 SLOAD DUP2 JUMP JUMPDEST DUP1 PUSH20 0xFFFFFFFFFFFFFFFFFFFFFFFFFFFFFFFFFFFFFFFF AND PUSH2 0x8FC SELFBALANCE SWAP1 DUP2 ISZERO MUL SWAP1 PUSH1 0x40 MLOAD PUSH1 0x0 PUSH1 0x40 MLOAD DUP1 DUP4 SUB DUP2 DUP6 DUP9 DUP9 CALL SWAP4 POP POP POP POP ISZERO DUP1 ISZERO PUSH3 0x4F7 JUMPI RETURNDATASIZE PUSH1 0x0 DUP1 RETURNDATACOPY RETURNDATASIZE PUSH1 0x0 REVERT JUMPDEST POP POP JUMP JUMPDEST PUSH3 0x505 PUSH3 0x662 JUMP JUMPDEST PUSH1 0x2 PUSH1 0x0 SWAP1 SLOAD SWAP1 PUSH2 0x100 EXP SWAP1 DIV PUSH1 0xFF AND ISZERO PUSH1 0x2 PUSH1 0x0 PUSH2 0x100 EXP DUP2 SLOAD DUP2 PUSH1 0xFF MUL NOT AND SWAP1 DUP4 ISZERO ISZERO MUL OR SWAP1 SSTORE POP JUMP JUMPDEST PUSH3 0x53B PUSH3 0x662 JUMP JUMPDEST PUSH3 0x547 PUSH1 0x0 PUSH3 0x6E7 JUMP JUMPDEST JUMP JUMPDEST PUSH1 0x2 PUSH1 0x0 SWAP1 SLOAD SWAP1 PUSH2 0x100 EXP SWAP1 DIV PUSH1 0xFF AND DUP2 JUMP JUMPDEST PUSH3 0x566 PUSH3 0x662 JUMP JUMPDEST DUP1 PUSH1 0x5 DUP2 SWAP1 SSTORE POP POP JUMP JUMPDEST PUSH1 0x0 DUP1 PUSH1 0x0 SWAP1 SLOAD SWAP1 PUSH2 0x100 EXP SWAP1 DIV PUSH20 0xFFFFFFFFFFFFFFFFFFFFFFFFFFFFFFFFFFFFFFFF AND SWAP1 POP SWAP1 JUMP JUMPDEST PUSH1 0x5 SLOAD DUP2 JUMP JUMPDEST PUSH1 0x1 PUSH1 0x20 MSTORE DUP1 PUSH1 0x0 MSTORE PUSH1 0x40 PUSH1 0x0 KECCAK256 PUSH1 0x0 SWAP2 POP SLOAD SWAP1 PUSH2 0x100 EXP SWAP1 DIV PUSH20 0xFFFFFFFFFFFFFFFFFFFFFFFFFFFFFFFFFFFFFFFF AND DUP2 JUMP JUMPDEST PUSH1 0x4 SLOAD DUP2 JUMP JUMPDEST PUSH3 0x5E2 PUSH3 0x662 JUMP JUMPDEST PUSH1 0x0 PUSH20 0xFFFFFFFFFFFFFFFFFFFFFFFFFFFFFFFFFFFFFFFF AND DUP2 PUSH20 0xFFFFFFFFFFFFFFFFFFFFFFFFFFFFFFFFFFFFFFFF AND SUB PUSH3 0x654 JUMPI PUSH1 0x40 MLOAD PUSH32 0x8C379A000000000000000000000000000000000000000000000000000000000 DUP2 MSTORE PUSH1 0x4 ADD PUSH3 0x64B SWAP1 PUSH3 0xB15 JUMP JUMPDEST PUSH1 0x40 MLOAD DUP1 SWAP2 SUB SWAP1 REVERT JUMPDEST PUSH3 0x65F DUP2 PUSH3 0x6E7 JUMP JUMPDEST POP JUMP JUMPDEST PUSH3 0x66C PUSH3 0x7AB JUMP JUMPDEST PUSH20 0xFFFFFFFFFFFFFFFFFFFFFFFFFFFFFFFFFFFFFFFF AND PUSH3 0x68C PUSH3 0x570 JUMP JUMPDEST PUSH20 0xFFFFFFFFFFFFFFFFFFFFFFFFFFFFFFFFFFFFFFFF AND EQ PUSH3 0x6E5 JUMPI PUSH1 0x40 MLOAD PUSH32 0x8C379A000000000000000000000000000000000000000000000000000000000 DUP2 MSTORE PUSH1 0x4 ADD PUSH3 0x6DC SWAP1 PUSH3 0xB87 JUMP JUMPDEST PUSH1 0x40 MLOAD DUP1 SWAP2 SUB SWAP1 REVERT JUMPDEST JUMP JUMPDEST PUSH1 0x0 DUP1 PUSH1 0x0 SWAP1 SLOAD SWAP1 PUSH2 0x100 EXP SWAP1 DIV PUSH20 0xFFFFFFFFFFFFFFFFFFFFFFFFFFFFFFFFFFFFFFFF AND SWAP1 POP DUP2 PUSH1 0x0 DUP1 PUSH2 0x100 EXP DUP2 SLOAD DUP2 PUSH20 0xFFFFFFFFFFFFFFFFFFFFFFFFFFFFFFFFFFFFFFFF MUL NOT AND SWAP1 DUP4 PUSH20 0xFFFFFFFFFFFFFFFFFFFFFFFFFFFFFFFFFFFFFFFF AND MUL OR SWAP1 SSTORE POP DUP2 PUSH20 0xFFFFFFFFFFFFFFFFFFFFFFFFFFFFFFFFFFFFFFFF AND DUP2 PUSH20 0xFFFFFFFFFFFFFFFFFFFFFFFFFFFFFFFFFFFFFFFF AND PUSH32 0x8BE0079C531659141344CD1FD0A4F28419497F9722A3DAAFE3B4186F6B6457E0 PUSH1 0x40 MLOAD PUSH1 0x40 MLOAD DUP1 SWAP2 SUB SWAP1 LOG3 POP POP JUMP JUMPDEST PUSH1 0x0 CALLER SWAP1 POP SWAP1 JUMP JUMPDEST PUSH2 0x65C DUP1 PUSH3 0xBAA DUP4 CODECOPY ADD SWAP1 JUMP JUMPDEST PUSH1 0x0 DUP2 SWAP1 POP SWAP2 SWAP1 POP JUMP JUMPDEST PUSH32 0x4E487B7100000000000000000000000000000000000000000000000000000000 PUSH1 0x0 MSTORE PUSH1 0x11 PUSH1 0x4 MSTORE PUSH1 0x24 PUSH1 0x0 REVERT JUMPDEST PUSH1 0x0 PUSH3 0x807 DUP3 PUSH3 0x7C1 JUMP JUMPDEST SWAP2 POP PUSH3 0x814 DUP4 PUSH3 0x7C1 JUMP JUMPDEST SWAP3 POP DUP3 DUP3 ADD SWAP1 POP DUP1 DUP3 GT ISZERO PUSH3 0x82F JUMPI PUSH3 0x82E PUSH3 0x7CB JUMP JUMPDEST JUMPDEST SWAP3 SWAP2 POP POP JUMP JUMPDEST PUSH1 0x0 PUSH3 0x842 DUP3 PUSH3 0x7C1 JUMP JUMPDEST SWAP2 POP PUSH32 0xFFFFFFFFFFFFFFFFFFFFFFFFFFFFFFFFFFFFFFFFFFFFFFFFFFFFFFFFFFFFFFFF DUP3 SUB PUSH3 0x877 JUMPI PUSH3 0x876 PUSH3 0x7CB JUMP JUMPDEST JUMPDEST PUSH1 0x1 DUP3 ADD SWAP1 POP SWAP2 SWAP1 POP JUMP JUMPDEST PUSH3 0x88D DUP2 PUSH3 0x7C1 JUMP JUMPDEST DUP3 MSTORE POP POP JUMP JUMPDEST PUSH1 0x0 PUSH1 0x20 DUP3 ADD SWAP1 POP PUSH3 0x8AA PUSH1 0x0 DUP4 ADD DUP5 PUSH3 0x882 JUMP JUMPDEST SWAP3 SWAP2 POP POP JUMP JUMPDEST PUSH1 0x0 DUP1 REVERT JUMPDEST PUSH1 0x0 PUSH20 0xFFFFFFFFFFFFFFFFFFFFFFFFFFFFFFFFFFFFFFFF DUP3 AND SWAP1 POP SWAP2 SWAP1 POP JUMP JUMPDEST PUSH1 0x0 PUSH3 0x8E2 DUP3 PUSH3 0x8B5 JUMP JUMPDEST SWAP1 POP SWAP2 SWAP1 POP JUMP JUMPDEST PUSH3 0x8F4 DUP2 PUSH3 0x8D5 JUMP JUMPDEST DUP2 EQ PUSH3 0x900 JUMPI PUSH1 0x0 DUP1 REVERT JUMPDEST POP JUMP JUMPDEST PUSH1 0x0 DUP2 CALLDATALOAD SWAP1 POP PUSH3 0x914 DUP2 PUSH3 0x8E9 JUMP JUMPDEST SWAP3 SWAP2 POP POP JUMP JUMPDEST PUSH1 0x0 PUSH1 0x20 DUP3 DUP5 SUB SLT ISZERO PUSH3 0x933 JUMPI PUSH3 0x932 PUSH3 0x8B0 JUMP JUMPDEST JUMPDEST PUSH1 0x0 PUSH3 0x943 DUP5 DUP3 DUP6 ADD PUSH3 0x903 JUMP JUMPDEST SWAP2 POP POP SWAP3 SWAP2 POP POP JUMP JUMPDEST PUSH1 0x0 DUP2 ISZERO ISZERO SWAP1 POP SWAP2 SWAP1 POP JUMP JUMPDEST PUSH3 0x963 DUP2 PUSH3 0x94C JUMP JUMPDEST DUP3 MSTORE POP POP JUMP JUMPDEST PUSH1 0x0 PUSH1 0x20 DUP3 ADD SWAP1 POP PUSH3 0x980 PUSH1 0x0 DUP4 ADD DUP5 PUSH3 0x958 JUMP JUMPDEST SWAP3 SWAP2 POP POP JUMP JUMPDEST PUSH3 0x991 DUP2 PUSH3 0x7C1 JUMP JUMPDEST DUP2 EQ PUSH3 0x99D JUMPI PUSH1 0x0 DUP1 REVERT JUMPDEST POP JUMP JUMPDEST PUSH1 0x0 DUP2 CALLDATALOAD SWAP1 POP PUSH3 0x9B1 DUP2 PUSH3 0x986 JUMP JUMPDEST SWAP3 SWAP2 POP POP JUMP JUMPDEST PUSH1 0x0 PUSH1 0x20 DUP3 DUP5 SUB SLT ISZERO PUSH3 0x9D0 JUMPI PUSH3 0x9CF PUSH3 0x8B0 JUMP JUMPDEST JUMPDEST PUSH1 0x0 PUSH3 0x9E0 DUP5 DUP3 DUP6 ADD PUSH3 0x9A0 JUMP JUMPDEST SWAP2 POP POP SWAP3 SWAP2 POP POP JUMP JUMPDEST PUSH1 0x0 PUSH3 0x9F6 DUP3 PUSH3 0x8B5 JUMP JUMPDEST SWAP1 POP SWAP2 SWAP1 POP JUMP JUMPDEST PUSH3 0xA08 DUP2 PUSH3 0x9E9 JUMP JUMPDEST DUP3 MSTORE POP POP JUMP JUMPDEST PUSH1 0x0 PUSH1 0x20 DUP3 ADD SWAP1 POP PUSH3 0xA25 PUSH1 0x0 DUP4 ADD DUP5 PUSH3 0x9FD JUMP JUMPDEST SWAP3 SWAP2 POP POP JUMP JUMPDEST PUSH3 0xA36 DUP2 PUSH3 0x9E9 JUMP JUMPDEST DUP2 EQ PUSH3 0xA42 JUMPI PUSH1 0x0 DUP1 REVERT JUMPDEST POP JUMP JUMPDEST PUSH1 0x0 DUP2 CALLDATALOAD SWAP1 POP PUSH3 0xA56 DUP2 PUSH3 0xA2B JUMP JUMPDEST SWAP3 SWAP2 POP POP JUMP JUMPDEST PUSH1 0x0 PUSH1 0x20 DUP3 DUP5 SUB SLT ISZERO PUSH3 0xA75 JUMPI PUSH3 0xA74 PUSH3 0x8B0 JUMP JUMPDEST JUMPDEST PUSH1 0x0 PUSH3 0xA85 DUP5 DUP3 DUP6 ADD PUSH3 0xA45 JUMP JUMPDEST SWAP2 POP POP SWAP3 SWAP2 POP POP JUMP JUMPDEST PUSH1 0x0 DUP3 DUP3 MSTORE PUSH1 0x20 DUP3 ADD SWAP1 POP SWAP3 SWAP2 POP POP JUMP JUMPDEST PUSH32 0x4F776E61626C653A206E6577206F776E657220697320746865207A65726F2061 PUSH1 0x0 DUP3 ADD MSTORE PUSH32 0x6464726573730000000000000000000000000000000000000000000000000000 PUSH1 0x20 DUP3 ADD MSTORE POP JUMP JUMPDEST PUSH1 0x0 PUSH3 0xAFD PUSH1 0x26 DUP4 PUSH3 0xA8E JUMP JUMPDEST SWAP2 POP PUSH3 0xB0A DUP3 PUSH3 0xA9F JUMP JUMPDEST PUSH1 0x40 DUP3 ADD SWAP1 POP SWAP2 SWAP1 POP JUMP JUMPDEST PUSH1 0x0 PUSH1 0x20 DUP3 ADD SWAP1 POP DUP2 DUP2 SUB PUSH1 0x0 DUP4 ADD MSTORE PUSH3 0xB30 DUP2 PUSH3 0xAEE JUMP JUMPDEST SWAP1 POP SWAP2 SWAP1 POP JUMP JUMPDEST PUSH32 0x4F776E61626C653A2063616C6C6572206973206E6F7420746865206F776E6572 PUSH1 0x0 DUP3 ADD MSTORE POP JUMP JUMPDEST PUSH1 0x0 PUSH3 0xB6F PUSH1 0x20 DUP4 PUSH3 0xA8E JUMP JUMPDEST SWAP2 POP PUSH3 0xB7C DUP3 PUSH3 0xB37 JUMP JUMPDEST PUSH1 0x20 DUP3 ADD SWAP1 POP SWAP2 SWAP1 POP JUMP JUMPDEST PUSH1 0x0 PUSH1 0x20 DUP3 ADD SWAP1 POP DUP2 DUP2 SUB PUSH1 0x0 DUP4 ADD MSTORE PUSH3 0xBA2 DUP2 PUSH3 0xB60 JUMP JUMPDEST SWAP1 POP SWAP2 SWAP1 POP JUMP INVALID PUSH1 0x80 PUSH1 0x40 MSTORE PUSH20 0x2AB0E9E4EE70FFF1FB9D67031E44F6410170D00E PUSH1 0x0 DUP1 PUSH2 0x100 EXP DUP2 SLOAD DUP2 PUSH20 0xFFFFFFFFFFFFFFFFFFFFFFFFFFFFFFFFFFFFFFFF MUL NOT AND SWAP1 DUP4 PUSH20 0xFFFFFFFFFFFFFFFFFFFFFFFFFFFFFFFFFFFFFFFF AND MUL OR SWAP1 SSTORE POP PUSH20 0x6971B57A29764ED7AF4A4A1ED7A512DDE9369EF6 PUSH1 0x1 PUSH1 0x0 PUSH2 0x100 EXP DUP2 SLOAD DUP2 PUSH20 0xFFFFFFFFFFFFFFFFFFFFFFFFFFFFFFFFFFFFFFFF MUL NOT AND SWAP1 DUP4 PUSH20 0xFFFFFFFFFFFFFFFFFFFFFFFFFFFFFFFFFFFFFFFF AND MUL OR SWAP1 SSTORE POP CALLVALUE DUP1 ISZERO PUSH2 0xB9 JUMPI PUSH1 0x0 DUP1 REVERT JUMPDEST POP PUSH2 0xC8 PUSH2 0xCD PUSH1 0x20 SHL PUSH1 0x20 SHR JUMP JUMPDEST PUSH2 0x1C5 JUMP JUMPDEST PUSH1 0x0 DUP1 SLOAD SWAP1 PUSH2 0x100 EXP SWAP1 DIV PUSH20 0xFFFFFFFFFFFFFFFFFFFFFFFFFFFFFFFFFFFFFFFF AND PUSH20 0xFFFFFFFFFFFFFFFFFFFFFFFFFFFFFFFFFFFFFFFF AND PUSH4 0x9FF054DF PUSH1 0x1 PUSH1 0x40 MLOAD DUP3 PUSH4 0xFFFFFFFF AND PUSH1 0xE0 SHL DUP2 MSTORE PUSH1 0x4 ADD PUSH2 0x127 SWAP2 SWAP1 PUSH2 0x1AA JUMP JUMPDEST PUSH1 0x0 PUSH1 0x40 MLOAD DUP1 DUP4 SUB DUP2 PUSH1 0x0 DUP8 DUP1 EXTCODESIZE ISZERO DUP1 ISZERO PUSH2 0x141 JUMPI PUSH1 0x0 DUP1 REVERT JUMPDEST POP GAS CALL ISZERO DUP1 ISZERO PUSH2 0x155 JUMPI RETURNDATASIZE PUSH1 0x0 DUP1 RETURNDATACOPY RETURNDATASIZE PUSH1 0x0 REVERT JUMPDEST POP POP POP POP JUMP JUMPDEST PUSH1 0x0 DUP2 SWAP1 POP SWAP2 SWAP1 POP JUMP JUMPDEST PUSH1 0x0 DUP2 SWAP1 POP SWAP2 SWAP1 POP JUMP JUMPDEST PUSH1 0x0 DUP2 SWAP1 POP SWAP2 SWAP1 POP JUMP JUMPDEST PUSH1 0x0 PUSH2 0x194 PUSH2 0x18F PUSH2 0x18A DUP5 PUSH2 0x15B JUMP JUMPDEST PUSH2 0x16F JUMP JUMPDEST PUSH2 0x165 JUMP JUMPDEST SWAP1 POP SWAP2 SWAP1 POP JUMP JUMPDEST PUSH2 0x1A4 DUP2 PUSH2 0x179 JUMP JUMPDEST DUP3 MSTORE POP POP JUMP JUMPDEST PUSH1 0x0 PUSH1 0x20 DUP3 ADD SWAP1 POP PUSH2 0x1BF PUSH1 0x0 DUP4 ADD DUP5 PUSH2 0x19B JUMP JUMPDEST SWAP3 SWAP2 POP POP JUMP JUMPDEST PUSH2 0x488 DUP1 PUSH2 0x1D4 PUSH1 0x0 CODECOPY PUSH1 0x0 RETURN INVALID PUSH1 0x80 PUSH1 0x40 MSTORE CALLVALUE DUP1 ISZERO PUSH2 0x10 JUMPI PUSH1 0x0 DUP1 REVERT JUMPDEST POP PUSH1 0x4 CALLDATASIZE LT PUSH2 0x41 JUMPI PUSH1 0x0 CALLDATALOAD PUSH1 0xE0 SHR DUP1 PUSH4 0x433AF240 EQ PUSH2 0x46 JUMPI DUP1 PUSH4 0x68AE560D EQ PUSH2 0x64 JUMPI DUP1 PUSH4 0x8CF57CB9 EQ PUSH2 0x6E JUMPI JUMPDEST PUSH1 0x0 DUP1 REVERT JUMPDEST PUSH2 0x4E PUSH2 0x8C JUMP JUMPDEST PUSH1 0x40 MLOAD PUSH2 0x5B SWAP2 SWAP1 PUSH2 0x332 JUMP JUMPDEST PUSH1 0x40 MLOAD DUP1 SWAP2 SUB SWAP1 RETURN JUMPDEST PUSH2 0x6C PUSH2 0xB0 JUMP JUMPDEST STOP JUMPDEST PUSH2 0x76 PUSH2 0x2CB JUMP JUMPDEST PUSH1 0x40 MLOAD PUSH2 0x83 SWAP2 SWAP1 PUSH2 0x332 JUMP JUMPDEST PUSH1 0x40 MLOAD DUP1 SWAP2 SUB SWAP1 RETURN JUMPDEST PUSH1 0x0 DUP1 SLOAD SWAP1 PUSH2 0x100 EXP SWAP1 DIV PUSH20 0xFFFFFFFFFFFFFFFFFFFFFFFFFFFFFFFFFFFFFFFF AND DUP2 JUMP JUMPDEST PUSH1 0x0 DUP1 SLOAD SWAP1 PUSH2 0x100 EXP SWAP1 DIV PUSH20 0xFFFFFFFFFFFFFFFFFFFFFFFFFFFFFFFFFFFFFFFF AND PUSH20 0xFFFFFFFFFFFFFFFFFFFFFFFFFFFFFFFFFFFFFFFF AND PUSH4 0x52C7F8DC PUSH1 0x40 MLOAD DUP2 PUSH4 0xFFFFFFFF AND PUSH1 0xE0 SHL DUP2 MSTORE PUSH1 0x4 ADD PUSH1 0x0 PUSH1 0x40 MLOAD DUP1 DUP4 SUB DUP2 PUSH1 0x0 DUP8 DUP1 EXTCODESIZE ISZERO DUP1 ISZERO PUSH2 0x118 JUMPI PUSH1 0x0 DUP1 REVERT JUMPDEST POP GAS CALL ISZERO DUP1 ISZERO PUSH2 0x12C JUMPI RETURNDATASIZE PUSH1 0x0 DUP1 RETURNDATACOPY RETURNDATASIZE PUSH1 0x0 REVERT JUMPDEST POP POP POP POP PUSH1 0x0 DUP1 PUSH1 0x0 SWAP1 SLOAD SWAP1 PUSH2 0x100 EXP SWAP1 DIV PUSH20 0xFFFFFFFFFFFFFFFFFFFFFFFFFFFFFFFFFFFFFFFF AND PUSH20 0xFFFFFFFFFFFFFFFFFFFFFFFFFFFFFFFFFFFFFFFF AND PUSH4 0x70A08231 ADDRESS PUSH1 0x40 MLOAD DUP3 PUSH4 0xFFFFFFFF AND PUSH1 0xE0 SHL DUP2 MSTORE PUSH1 0x4 ADD PUSH2 0x18C SWAP2 SWAP1 PUSH2 0x332 JUMP JUMPDEST PUSH1 0x20 PUSH1 0x40 MLOAD DUP1 DUP4 SUB DUP2 DUP7 GAS STATICCALL ISZERO DUP1 ISZERO PUSH2 0x1A9 JUMPI RETURNDATASIZE PUSH1 0x0 DUP1 RETURNDATACOPY RETURNDATASIZE PUSH1 0x0 REVERT JUMPDEST POP POP POP POP PUSH1 0x40 MLOAD RETURNDATASIZE PUSH1 0x1F NOT PUSH1 0x1F DUP3 ADD AND DUP3 ADD DUP1 PUSH1 0x40 MSTORE POP DUP2 ADD SWAP1 PUSH2 0x1CD SWAP2 SWAP1 PUSH2 0x388 JUMP JUMPDEST SWAP1 POP PUSH1 0x0 DUP1 SLOAD SWAP1 PUSH2 0x100 EXP SWAP1 DIV PUSH20 0xFFFFFFFFFFFFFFFFFFFFFFFFFFFFFFFFFFFFFFFF AND PUSH20 0xFFFFFFFFFFFFFFFFFFFFFFFFFFFFFFFFFFFFFFFF AND PUSH4 0xA9059CBB PUSH1 0x1 PUSH1 0x0 SWAP1 SLOAD SWAP1 PUSH2 0x100 EXP SWAP1 DIV PUSH20 0xFFFFFFFFFFFFFFFFFFFFFFFFFFFFFFFFFFFFFFFF AND DUP4 PUSH1 0x40 MLOAD DUP4 PUSH4 0xFFFFFFFF AND PUSH1 0xE0 SHL DUP2 MSTORE PUSH1 0x4 ADD PUSH2 0x24C SWAP3 SWAP2 SWAP1 PUSH2 0x3C4 JUMP JUMPDEST PUSH1 0x20 PUSH1 0x40 MLOAD DUP1 DUP4 SUB DUP2 PUSH1 0x0 DUP8 GAS CALL ISZERO DUP1 ISZERO PUSH2 0x26B JUMPI RETURNDATASIZE PUSH1 0x0 DUP1 RETURNDATACOPY RETURNDATASIZE PUSH1 0x0 REVERT JUMPDEST POP POP POP POP PUSH1 0x40 MLOAD RETURNDATASIZE PUSH1 0x1F NOT PUSH1 0x1F DUP3 ADD AND DUP3 ADD DUP1 PUSH1 0x40 MSTORE POP DUP2 ADD SWAP1 PUSH2 0x28F SWAP2 SWAP1 PUSH2 0x425 JUMP JUMPDEST POP PUSH1 0x1 PUSH1 0x0 SWAP1 SLOAD SWAP1 PUSH2 0x100 EXP SWAP1 DIV PUSH20 0xFFFFFFFFFFFFFFFFFFFFFFFFFFFFFFFFFFFFFFFF AND PUSH20 0xFFFFFFFFFFFFFFFFFFFFFFFFFFFFFFFFFFFFFFFF AND SELFDESTRUCT JUMPDEST PUSH1 0x1 PUSH1 0x0 SWAP1 SLOAD SWAP1 PUSH2 0x100 EXP SWAP1 DIV PUSH20 0xFFFFFFFFFFFFFFFFFFFFFFFFFFFFFFFFFFFFFFFF AND DUP2 JUMP JUMPDEST PUSH1 0x0 PUSH20 0xFFFFFFFFFFFFFFFFFFFFFFFFFFFFFFFFFFFFFFFF DUP3 AND SWAP1 POP SWAP2 SWAP1 POP JUMP JUMPDEST PUSH1 0x0 PUSH2 0x31C DUP3 PUSH2 0x2F1 JUMP JUMPDEST SWAP1 POP SWAP2 SWAP1 POP JUMP JUMPDEST PUSH2 0x32C DUP2 PUSH2 0x311 JUMP JUMPDEST DUP3 MSTORE POP POP JUMP JUMPDEST PUSH1 0x0 PUSH1 0x20 DUP3 ADD SWAP1 POP PUSH2 0x347 PUSH1 0x0 DUP4 ADD DUP5 PUSH2 0x323 JUMP JUMPDEST SWAP3 SWAP2 POP POP JUMP JUMPDEST PUSH1 0x0 DUP1 REVERT JUMPDEST PUSH1 0x0 DUP2 SWAP1 POP SWAP2 SWAP1 POP JUMP JUMPDEST PUSH2 0x365 DUP2 PUSH2 0x352 JUMP JUMPDEST DUP2 EQ PUSH2 0x370 JUMPI PUSH1 0x0 DUP1 REVERT JUMPDEST POP JUMP JUMPDEST PUSH1 0x0 DUP2 MLOAD SWAP1 POP PUSH2 0x382 DUP2 PUSH2 0x35C JUMP JUMPDEST SWAP3 SWAP2 POP POP JUMP JUMPDEST PUSH1 0x0 PUSH1 0x20 DUP3 DUP5 SUB SLT ISZERO PUSH2 0x39E JUMPI PUSH2 0x39D PUSH2 0x34D JUMP JUMPDEST JUMPDEST PUSH1 0x0 PUSH2 0x3AC DUP5 DUP3 DUP6 ADD PUSH2 0x373 JUMP JUMPDEST SWAP2 POP POP SWAP3 SWAP2 POP POP JUMP JUMPDEST PUSH2 0x3BE DUP2 PUSH2 0x352 JUMP JUMPDEST DUP3 MSTORE POP POP JUMP JUMPDEST PUSH1 0x0 PUSH1 0x40 DUP3 ADD SWAP1 POP PUSH2 0x3D9 PUSH1 0x0 DUP4 ADD DUP6 PUSH2 0x323 JUMP JUMPDEST PUSH2 0x3E6 PUSH1 0x20 DUP4 ADD DUP5 PUSH2 0x3B5 JUMP JUMPDEST SWAP4 SWAP3 POP POP POP JUMP JUMPDEST PUSH1 0x0 DUP2 ISZERO ISZERO SWAP1 POP SWAP2 SWAP1 POP JUMP JUMPDEST PUSH2 0x402 DUP2 PUSH2 0x3ED JUMP JUMPDEST DUP2 EQ PUSH2 0x40D JUMPI PUSH1 0x0 DUP1 REVERT JUMPDEST POP JUMP JUMPDEST PUSH1 0x0 DUP2 MLOAD SWAP1 POP PUSH2 0x41F DUP2 PUSH2 0x3F9 JUMP JUMPDEST SWAP3 SWAP2 POP POP JUMP JUMPDEST PUSH1 0x0 PUSH1 0x20 DUP3 DUP5 SUB SLT ISZERO PUSH2 0x43B JUMPI PUSH2 0x43A PUSH2 0x34D JUMP JUMPDEST JUMPDEST PUSH1 0x0 PUSH2 0x449 DUP5 DUP3 DUP6 ADD PUSH2 0x410 JUMP JUMPDEST SWAP2 POP POP SWAP3 SWAP2 POP POP JUMP INVALID LOG2 PUSH5 0x6970667358 0x22 SLT KECCAK256 PUSH17 0x17FD9B571012234B2B4688CBEDADB3A2C0 0x25 0xDE DELEGATECALL PUSH22 0x29A1C3E9D51A6FC1576F64736F6C63430008110033A2 PUSH5 0x6970667358 0x22 SLT KECCAK256 BLOCKHASH OR 0xD5 0xE4 SIGNEXTEND STATICCALL 0x24 SWAP16 SWAP2 CALLDATASIZE NUMBER 0xB1 CALLDATALOAD PUSH3 0x1BF47 SGT DUP13 DIFFICULTY SHL PUSH8 0x3CFB573149B58863 0xC5 PUSH25 0x64736F6C634300081100330000000000000000000000000000 "
				},
				"gasEstimates": {
					"creation": {
						"codeDepositCost": "933400",
						"executionCost": "infinite",
						"totalCost": "infinite"
					},
					"external": {
						"flag()": "2560",
						"index()": "2430",
						"indexToAddress(uint256)": "2905",
						"owner()": "2544",
						"renounceOwnership()": "30465",
						"rewardIndex()": "2517",
						"setFlag()": "28859",
						"setTimes(uint256)": "24784",
						"times()": "2473",
						"transferOwnership(address)": "30854",
						"withdraw(address)": "infinite"
					},
					"internal": {
						"createAuction()": "infinite"
					}
				},
				"methodIdentifiers": {
					"flag()": "890eba68",
					"index()": "2986c0e5",
					"indexToAddress(uint256)": "e61ca819",
					"owner()": "8da5cb5b",
					"renounceOwnership()": "715018a6",
					"rewardIndex()": "e9ee2fa9",
					"setFlag()": "62548c7b",
					"setTimes(uint256)": "8bc1f9ba",
					"times()": "9e3b34bf",
					"transferOwnership(address)": "f2fde38b",
					"withdraw(address)": "51cff8d9"
				}
			},
			"storageLayout": {
				"storage": [
					{
						"astId": 7,
						"contract": "XEN/AttackFactory1.sol:AttackFactory",
						"label": "_owner",
						"offset": 0,
						"slot": "0",
						"type": "t_address"
					},
					{
						"astId": 237,
						"contract": "XEN/AttackFactory1.sol:AttackFactory",
						"label": "indexToAddress",
						"offset": 0,
						"slot": "1",
						"type": "t_mapping(t_uint256,t_address)"
					},
					{
						"astId": 239,
						"contract": "XEN/AttackFactory1.sol:AttackFactory",
						"label": "flag",
						"offset": 0,
						"slot": "2",
						"type": "t_bool"
					},
					{
						"astId": 241,
						"contract": "XEN/AttackFactory1.sol:AttackFactory",
						"label": "index",
						"offset": 0,
						"slot": "3",
						"type": "t_uint256"
					},
					{
						"astId": 243,
						"contract": "XEN/AttackFactory1.sol:AttackFactory",
						"label": "rewardIndex",
						"offset": 0,
						"slot": "4",
						"type": "t_uint256"
					},
					{
						"astId": 246,
						"contract": "XEN/AttackFactory1.sol:AttackFactory",
						"label": "times",
						"offset": 0,
						"slot": "5",
						"type": "t_uint256"
					}
				],
				"types": {
					"t_address": {
						"encoding": "inplace",
						"label": "address",
						"numberOfBytes": "20"
					},
					"t_bool": {
						"encoding": "inplace",
						"label": "bool",
						"numberOfBytes": "1"
					},
					"t_mapping(t_uint256,t_address)": {
						"encoding": "mapping",
						"key": "t_uint256",
						"label": "mapping(uint256 => address)",
						"numberOfBytes": "32",
						"value": "t_address"
					},
					"t_uint256": {
						"encoding": "inplace",
						"label": "uint256",
						"numberOfBytes": "32"
					}
				}
			},
			"userdoc": {
				"kind": "user",
				"methods": {},
				"version": 1
			}
		}
	}
}