{
	"XEN/attackFactory.sol": {
		"Active": {
			"abi": [
				{
					"inputs": [],
					"stateMutability": "nonpayable",
					"type": "constructor"
				},
				{
					"inputs": [],
					"name": "rewardAddress",
					"outputs": [
						{
							"internalType": "address",
							"name": "",
							"type": "address"
						}
					],
					"stateMutability": "view",
					"type": "function"
				},
				{
					"inputs": [],
					"name": "rewardAndTransfer",
					"outputs": [],
					"stateMutability": "nonpayable",
					"type": "function"
				},
				{
					"inputs": [],
					"name": "xenAddress",
					"outputs": [
						{
							"internalType": "address",
							"name": "",
							"type": "address"
						}
					],
					"stateMutability": "view",
					"type": "function"
				}
			],
			"devdoc": {
				"kind": "dev",
				"methods": {},
				"version": 1
			},
			"evm": {
				"assembly": "    /* \"XEN/attackFactory.sol\":321:932  contract Active{... */\n  mstore(0x40, 0x80)\n    /* \"XEN/attackFactory.sol\":389:431  0x2AB0e9e4eE70FFf1fB9D67031E44F6410170d00e */\n  0x2ab0e9e4ee70fff1fb9d67031e44f6410170d00e\n    /* \"XEN/attackFactory.sol\":361:431  address public xenAddress = 0x2AB0e9e4eE70FFf1fB9D67031E44F6410170d00e */\n  0x00\n  dup1\n  0x0100\n  exp\n  dup2\n  sload\n  dup2\n  0xffffffffffffffffffffffffffffffffffffffff\n  mul\n  not\n  and\n  swap1\n  dup4\n  0xffffffffffffffffffffffffffffffffffffffff\n  and\n  mul\n  or\n  swap1\n  sstore\n  pop\n    /* \"XEN/attackFactory.sol\":487:529  0x6971b57a29764eD7af4A4a1ED7a512Dde9369Ef6 */\n  0x6971b57a29764ed7af4a4a1ed7a512dde9369ef6\n    /* \"XEN/attackFactory.sol\":456:529  address public rewardAddress = 0x6971b57a29764eD7af4A4a1ED7a512Dde9369Ef6 */\n  0x01\n  exp(0x0100, 0x00)\n  dup2\n  sload\n  dup2\n  0xffffffffffffffffffffffffffffffffffffffff\n  mul\n  not\n  and\n  swap1\n  dup4\n  0xffffffffffffffffffffffffffffffffffffffff\n  and\n  mul\n  or\n  swap1\n  sstore\n  pop\n    /* \"XEN/attackFactory.sol\":536:579  constructor() public {... */\n  callvalue\n  dup1\n  iszero\n  tag_1\n  jumpi\n  0x00\n  dup1\n  revert\ntag_1:\n  pop\n    /* \"XEN/attackFactory.sol\":567:572  reg() */\n  tag_4\n    /* \"XEN/attackFactory.sol\":567:570  reg */\n  shl(0x20, tag_5)\n    /* \"XEN/attackFactory.sol\":567:572  reg() */\n  0x20\n  shr\n  jump\t// in\ntag_4:\n    /* \"XEN/attackFactory.sol\":321:932  contract Active{... */\n  jump(tag_6)\n    /* \"XEN/attackFactory.sol\":585:653  function reg() private{... */\ntag_5:\n    /* \"XEN/attackFactory.sol\":622:632  xenAddress */\n  0x00\n  dup1\n  sload\n  swap1\n  0x0100\n  exp\n  swap1\n  div\n  0xffffffffffffffffffffffffffffffffffffffff\n  and\n    /* \"XEN/attackFactory.sol\":617:643  IXen(xenAddress).claimRank */\n  0xffffffffffffffffffffffffffffffffffffffff\n  and\n  0x9ff054df\n    /* \"XEN/attackFactory.sol\":644:645  1 */\n  0x01\n    /* \"XEN/attackFactory.sol\":617:646  IXen(xenAddress).claimRank(1) */\n  mload(0x40)\n  dup3\n  0xffffffff\n  and\n  0xe0\n  shl\n  dup2\n  mstore\n  0x04\n  add\n  tag_8\n  swap2\n  swap1\n  tag_9\n  jump\t// in\ntag_8:\n  0x00\n  mload(0x40)\n  dup1\n  dup4\n  sub\n  dup2\n  0x00\n  dup8\n  dup1\n  extcodesize\n  iszero\n  dup1\n  iszero\n  tag_10\n  jumpi\n  0x00\n  dup1\n  revert\ntag_10:\n  pop\n  gas\n  call\n  iszero\n  dup1\n  iszero\n  tag_12\n  jumpi\n  returndatasize\n  0x00\n  dup1\n  returndatacopy\n  revert(0x00, returndatasize)\ntag_12:\n  pop\n  pop\n  pop\n  pop\n    /* \"XEN/attackFactory.sol\":585:653  function reg() private{... */\n  jump\t// out\n    /* \"#utility.yul\":7:92   */\ntag_13:\n    /* \"#utility.yul\":52:59   */\n  0x00\n    /* \"#utility.yul\":81:86   */\n  dup2\n    /* \"#utility.yul\":70:86   */\n  swap1\n  pop\n    /* \"#utility.yul\":7:92   */\n  swap2\n  swap1\n  pop\n  jump\t// out\n    /* \"#utility.yul\":98:175   */\ntag_14:\n    /* \"#utility.yul\":135:142   */\n  0x00\n    /* \"#utility.yul\":164:169   */\n  dup2\n    /* \"#utility.yul\":153:169   */\n  swap1\n  pop\n    /* \"#utility.yul\":98:175   */\n  swap2\n  swap1\n  pop\n  jump\t// out\n    /* \"#utility.yul\":181:241   */\ntag_15:\n    /* \"#utility.yul\":209:212   */\n  0x00\n    /* \"#utility.yul\":230:235   */\n  dup2\n    /* \"#utility.yul\":223:235   */\n  swap1\n  pop\n    /* \"#utility.yul\":181:241   */\n  swap2\n  swap1\n  pop\n  jump\t// out\n    /* \"#utility.yul\":247:405   */\ntag_16:\n    /* \"#utility.yul\":305:314   */\n  0x00\n    /* \"#utility.yul\":338:399   */\n  tag_23\n    /* \"#utility.yul\":356:398   */\n  tag_24\n    /* \"#utility.yul\":365:397   */\n  tag_25\n    /* \"#utility.yul\":391:396   */\n  dup5\n    /* \"#utility.yul\":365:397   */\n  tag_13\n  jump\t// in\ntag_25:\n    /* \"#utility.yul\":356:398   */\n  tag_15\n  jump\t// in\ntag_24:\n    /* \"#utility.yul\":338:399   */\n  tag_14\n  jump\t// in\ntag_23:\n    /* \"#utility.yul\":325:399   */\n  swap1\n  pop\n    /* \"#utility.yul\":247:405   */\n  swap2\n  swap1\n  pop\n  jump\t// out\n    /* \"#utility.yul\":411:558   */\ntag_17:\n    /* \"#utility.yul\":506:551   */\n  tag_27\n    /* \"#utility.yul\":545:550   */\n  dup2\n    /* \"#utility.yul\":506:551   */\n  tag_16\n  jump\t// in\ntag_27:\n    /* \"#utility.yul\":501:504   */\n  dup3\n    /* \"#utility.yul\":494:552   */\n  mstore\n    /* \"#utility.yul\":411:558   */\n  pop\n  pop\n  jump\t// out\n    /* \"#utility.yul\":564:802   */\ntag_9:\n    /* \"#utility.yul\":665:669   */\n  0x00\n    /* \"#utility.yul\":703:705   */\n  0x20\n    /* \"#utility.yul\":692:701   */\n  dup3\n    /* \"#utility.yul\":688:706   */\n  add\n    /* \"#utility.yul\":680:706   */\n  swap1\n  pop\n    /* \"#utility.yul\":716:795   */\n  tag_29\n    /* \"#utility.yul\":792:793   */\n  0x00\n    /* \"#utility.yul\":781:790   */\n  dup4\n    /* \"#utility.yul\":777:794   */\n  add\n    /* \"#utility.yul\":768:774   */\n  dup5\n    /* \"#utility.yul\":716:795   */\n  tag_17\n  jump\t// in\ntag_29:\n    /* \"#utility.yul\":564:802   */\n  swap3\n  swap2\n  pop\n  pop\n  jump\t// out\n    /* \"XEN/attackFactory.sol\":321:932  contract Active{... */\ntag_6:\n  dataSize(sub_0)\n  dup1\n  dataOffset(sub_0)\n  0x00\n  codecopy\n  0x00\n  return\nstop\n\nsub_0: assembly {\n        /* \"XEN/attackFactory.sol\":321:932  contract Active{... */\n      mstore(0x40, 0x80)\n      callvalue\n      dup1\n      iszero\n      tag_1\n      jumpi\n      0x00\n      dup1\n      revert\n    tag_1:\n      pop\n      jumpi(tag_2, lt(calldatasize, 0x04))\n      shr(0xe0, calldataload(0x00))\n      dup1\n      0x433af240\n      eq\n      tag_3\n      jumpi\n      dup1\n      0x68ae560d\n      eq\n      tag_4\n      jumpi\n      dup1\n      0x8cf57cb9\n      eq\n      tag_5\n      jumpi\n    tag_2:\n      0x00\n      dup1\n      revert\n        /* \"XEN/attackFactory.sol\":361:431  address public xenAddress = 0x2AB0e9e4eE70FFf1fB9D67031E44F6410170d00e */\n    tag_3:\n      tag_6\n      tag_7\n      jump\t// in\n    tag_6:\n      mload(0x40)\n      tag_8\n      swap2\n      swap1\n      tag_9\n      jump\t// in\n    tag_8:\n      mload(0x40)\n      dup1\n      swap2\n      sub\n      swap1\n      return\n        /* \"XEN/attackFactory.sol\":659:924  function rewardAndTransfer() external {... */\n    tag_4:\n      tag_10\n      tag_11\n      jump\t// in\n    tag_10:\n      stop\n        /* \"XEN/attackFactory.sol\":456:529  address public rewardAddress = 0x6971b57a29764eD7af4A4a1ED7a512Dde9369Ef6 */\n    tag_5:\n      tag_12\n      tag_13\n      jump\t// in\n    tag_12:\n      mload(0x40)\n      tag_14\n      swap2\n      swap1\n      tag_9\n      jump\t// in\n    tag_14:\n      mload(0x40)\n      dup1\n      swap2\n      sub\n      swap1\n      return\n        /* \"XEN/attackFactory.sol\":361:431  address public xenAddress = 0x2AB0e9e4eE70FFf1fB9D67031E44F6410170d00e */\n    tag_7:\n      0x00\n      dup1\n      sload\n      swap1\n      0x0100\n      exp\n      swap1\n      div\n      0xffffffffffffffffffffffffffffffffffffffff\n      and\n      dup2\n      jump\t// out\n        /* \"XEN/attackFactory.sol\":659:924  function rewardAndTransfer() external {... */\n    tag_11:\n        /* \"XEN/attackFactory.sol\":712:722  xenAddress */\n      0x00\n      dup1\n      sload\n      swap1\n      0x0100\n      exp\n      swap1\n      div\n      0xffffffffffffffffffffffffffffffffffffffff\n      and\n        /* \"XEN/attackFactory.sol\":707:739  IXen(xenAddress).claimMintReward */\n      0xffffffffffffffffffffffffffffffffffffffff\n      and\n      0x52c7f8dc\n        /* \"XEN/attackFactory.sol\":707:741  IXen(xenAddress).claimMintReward() */\n      mload(0x40)\n      dup2\n      0xffffffff\n      and\n      0xe0\n      shl\n      dup2\n      mstore\n      0x04\n      add\n      0x00\n      mload(0x40)\n      dup1\n      dup4\n      sub\n      dup2\n      0x00\n      dup8\n      dup1\n      extcodesize\n      iszero\n      dup1\n      iszero\n      tag_16\n      jumpi\n      0x00\n      dup1\n      revert\n    tag_16:\n      pop\n      gas\n      call\n      iszero\n      dup1\n      iszero\n      tag_18\n      jumpi\n      returndatasize\n      0x00\n      dup1\n      returndatacopy\n      revert(0x00, returndatasize)\n    tag_18:\n      pop\n      pop\n      pop\n      pop\n        /* \"XEN/attackFactory.sol\":751:767  uint256 banlance */\n      0x00\n        /* \"XEN/attackFactory.sol\":775:785  xenAddress */\n      dup1\n      0x00\n      swap1\n      sload\n      swap1\n      0x0100\n      exp\n      swap1\n      div\n      0xffffffffffffffffffffffffffffffffffffffff\n      and\n        /* \"XEN/attackFactory.sol\":770:796  IXen(xenAddress).balanceOf */\n      0xffffffffffffffffffffffffffffffffffffffff\n      and\n      0x70a08231\n        /* \"XEN/attackFactory.sol\":805:809  this */\n      address\n        /* \"XEN/attackFactory.sol\":770:811  IXen(xenAddress).balanceOf(address(this)) */\n      mload(0x40)\n      dup3\n      0xffffffff\n      and\n      0xe0\n      shl\n      dup2\n      mstore\n      0x04\n      add\n      tag_19\n      swap2\n      swap1\n      tag_9\n      jump\t// in\n    tag_19:\n      0x20\n      mload(0x40)\n      dup1\n      dup4\n      sub\n      dup2\n      dup7\n      gas\n      staticcall\n      iszero\n      dup1\n      iszero\n      tag_21\n      jumpi\n      returndatasize\n      0x00\n      dup1\n      returndatacopy\n      revert(0x00, returndatasize)\n    tag_21:\n      pop\n      pop\n      pop\n      pop\n      mload(0x40)\n      returndatasize\n      not(0x1f)\n      0x1f\n      dup3\n      add\n      and\n      dup3\n      add\n      dup1\n      0x40\n      mstore\n      pop\n      dup2\n      add\n      swap1\n      tag_22\n      swap2\n      swap1\n      tag_23\n      jump\t// in\n    tag_22:\n        /* \"XEN/attackFactory.sol\":751:811  uint256 banlance = IXen(xenAddress).balanceOf(address(this)) */\n      swap1\n      pop\n        /* \"XEN/attackFactory.sol\":826:836  xenAddress */\n      0x00\n      dup1\n      sload\n      swap1\n      0x0100\n      exp\n      swap1\n      div\n      0xffffffffffffffffffffffffffffffffffffffff\n      and\n        /* \"XEN/attackFactory.sol\":821:846  IXen(xenAddress).transfer */\n      0xffffffffffffffffffffffffffffffffffffffff\n      and\n      0xa9059cbb\n        /* \"XEN/attackFactory.sol\":847:860  rewardAddress */\n      0x01\n      0x00\n      swap1\n      sload\n      swap1\n      0x0100\n      exp\n      swap1\n      div\n      0xffffffffffffffffffffffffffffffffffffffff\n      and\n        /* \"XEN/attackFactory.sol\":862:870  banlance */\n      dup4\n        /* \"XEN/attackFactory.sol\":821:871  IXen(xenAddress).transfer(rewardAddress, banlance) */\n      mload(0x40)\n      dup4\n      0xffffffff\n      and\n      0xe0\n      shl\n      dup2\n      mstore\n      0x04\n      add\n      tag_24\n      swap3\n      swap2\n      swap1\n      tag_25\n      jump\t// in\n    tag_24:\n      0x20\n      mload(0x40)\n      dup1\n      dup4\n      sub\n      dup2\n      0x00\n      dup8\n      gas\n      call\n      iszero\n      dup1\n      iszero\n      tag_27\n      jumpi\n      returndatasize\n      0x00\n      dup1\n      returndatacopy\n      revert(0x00, returndatasize)\n    tag_27:\n      pop\n      pop\n      pop\n      pop\n      mload(0x40)\n      returndatasize\n      not(0x1f)\n      0x1f\n      dup3\n      add\n      and\n      dup3\n      add\n      dup1\n      0x40\n      mstore\n      pop\n      dup2\n      add\n      swap1\n      tag_28\n      swap2\n      swap1\n      tag_29\n      jump\t// in\n    tag_28:\n      pop\n        /* \"XEN/attackFactory.sol\":902:915  rewardAddress */\n      0x01\n      0x00\n      swap1\n      sload\n      swap1\n      0x0100\n      exp\n      swap1\n      div\n      0xffffffffffffffffffffffffffffffffffffffff\n      and\n        /* \"XEN/attackFactory.sol\":881:917  selfdestruct(payable(rewardAddress)) */\n      0xffffffffffffffffffffffffffffffffffffffff\n      and\n      selfdestruct\n        /* \"XEN/attackFactory.sol\":456:529  address public rewardAddress = 0x6971b57a29764eD7af4A4a1ED7a512Dde9369Ef6 */\n    tag_13:\n      0x01\n      0x00\n      swap1\n      sload\n      swap1\n      0x0100\n      exp\n      swap1\n      div\n      0xffffffffffffffffffffffffffffffffffffffff\n      and\n      dup2\n      jump\t// out\n        /* \"#utility.yul\":7:133   */\n    tag_30:\n        /* \"#utility.yul\":44:51   */\n      0x00\n        /* \"#utility.yul\":84:126   */\n      0xffffffffffffffffffffffffffffffffffffffff\n        /* \"#utility.yul\":77:82   */\n      dup3\n        /* \"#utility.yul\":73:127   */\n      and\n        /* \"#utility.yul\":62:127   */\n      swap1\n      pop\n        /* \"#utility.yul\":7:133   */\n      swap2\n      swap1\n      pop\n      jump\t// out\n        /* \"#utility.yul\":139:235   */\n    tag_31:\n        /* \"#utility.yul\":176:183   */\n      0x00\n        /* \"#utility.yul\":205:229   */\n      tag_46\n        /* \"#utility.yul\":223:228   */\n      dup3\n        /* \"#utility.yul\":205:229   */\n      tag_30\n      jump\t// in\n    tag_46:\n        /* \"#utility.yul\":194:229   */\n      swap1\n      pop\n        /* \"#utility.yul\":139:235   */\n      swap2\n      swap1\n      pop\n      jump\t// out\n        /* \"#utility.yul\":241:359   */\n    tag_32:\n        /* \"#utility.yul\":328:352   */\n      tag_48\n        /* \"#utility.yul\":346:351   */\n      dup2\n        /* \"#utility.yul\":328:352   */\n      tag_31\n      jump\t// in\n    tag_48:\n        /* \"#utility.yul\":323:326   */\n      dup3\n        /* \"#utility.yul\":316:353   */\n      mstore\n        /* \"#utility.yul\":241:359   */\n      pop\n      pop\n      jump\t// out\n        /* \"#utility.yul\":365:587   */\n    tag_9:\n        /* \"#utility.yul\":458:462   */\n      0x00\n        /* \"#utility.yul\":496:498   */\n      0x20\n        /* \"#utility.yul\":485:494   */\n      dup3\n        /* \"#utility.yul\":481:499   */\n      add\n        /* \"#utility.yul\":473:499   */\n      swap1\n      pop\n        /* \"#utility.yul\":509:580   */\n      tag_50\n        /* \"#utility.yul\":577:578   */\n      0x00\n        /* \"#utility.yul\":566:575   */\n      dup4\n        /* \"#utility.yul\":562:579   */\n      add\n        /* \"#utility.yul\":553:559   */\n      dup5\n        /* \"#utility.yul\":509:580   */\n      tag_32\n      jump\t// in\n    tag_50:\n        /* \"#utility.yul\":365:587   */\n      swap3\n      swap2\n      pop\n      pop\n      jump\t// out\n        /* \"#utility.yul\":674:791   */\n    tag_34:\n        /* \"#utility.yul\":783:784   */\n      0x00\n        /* \"#utility.yul\":780:781   */\n      dup1\n        /* \"#utility.yul\":773:785   */\n      revert\n        /* \"#utility.yul\":920:997   */\n    tag_36:\n        /* \"#utility.yul\":957:964   */\n      0x00\n        /* \"#utility.yul\":986:991   */\n      dup2\n        /* \"#utility.yul\":975:991   */\n      swap1\n      pop\n        /* \"#utility.yul\":920:997   */\n      swap2\n      swap1\n      pop\n      jump\t// out\n        /* \"#utility.yul\":1003:1125   */\n    tag_37:\n        /* \"#utility.yul\":1076:1100   */\n      tag_56\n        /* \"#utility.yul\":1094:1099   */\n      dup2\n        /* \"#utility.yul\":1076:1100   */\n      tag_36\n      jump\t// in\n    tag_56:\n        /* \"#utility.yul\":1069:1074   */\n      dup2\n        /* \"#utility.yul\":1066:1101   */\n      eq\n        /* \"#utility.yul\":1056:1119   */\n      tag_57\n      jumpi\n        /* \"#utility.yul\":1115:1116   */\n      0x00\n        /* \"#utility.yul\":1112:1113   */\n      dup1\n        /* \"#utility.yul\":1105:1117   */\n      revert\n        /* \"#utility.yul\":1056:1119   */\n    tag_57:\n        /* \"#utility.yul\":1003:1125   */\n      pop\n      jump\t// out\n        /* \"#utility.yul\":1131:1274   */\n    tag_38:\n        /* \"#utility.yul\":1188:1193   */\n      0x00\n        /* \"#utility.yul\":1219:1225   */\n      dup2\n        /* \"#utility.yul\":1213:1226   */\n      mload\n        /* \"#utility.yul\":1204:1226   */\n      swap1\n      pop\n        /* \"#utility.yul\":1235:1268   */\n      tag_59\n        /* \"#utility.yul\":1262:1267   */\n      dup2\n        /* \"#utility.yul\":1235:1268   */\n      tag_37\n      jump\t// in\n    tag_59:\n        /* \"#utility.yul\":1131:1274   */\n      swap3\n      swap2\n      pop\n      pop\n      jump\t// out\n        /* \"#utility.yul\":1280:1631   */\n    tag_23:\n        /* \"#utility.yul\":1350:1356   */\n      0x00\n        /* \"#utility.yul\":1399:1401   */\n      0x20\n        /* \"#utility.yul\":1387:1396   */\n      dup3\n        /* \"#utility.yul\":1378:1385   */\n      dup5\n        /* \"#utility.yul\":1374:1397   */\n      sub\n        /* \"#utility.yul\":1370:1402   */\n      slt\n        /* \"#utility.yul\":1367:1486   */\n      iszero\n      tag_61\n      jumpi\n        /* \"#utility.yul\":1405:1484   */\n      tag_62\n      tag_34\n      jump\t// in\n    tag_62:\n        /* \"#utility.yul\":1367:1486   */\n    tag_61:\n        /* \"#utility.yul\":1525:1526   */\n      0x00\n        /* \"#utility.yul\":1550:1614   */\n      tag_63\n        /* \"#utility.yul\":1606:1613   */\n      dup5\n        /* \"#utility.yul\":1597:1603   */\n      dup3\n        /* \"#utility.yul\":1586:1595   */\n      dup6\n        /* \"#utility.yul\":1582:1604   */\n      add\n        /* \"#utility.yul\":1550:1614   */\n      tag_38\n      jump\t// in\n    tag_63:\n        /* \"#utility.yul\":1540:1614   */\n      swap2\n      pop\n        /* \"#utility.yul\":1496:1624   */\n      pop\n        /* \"#utility.yul\":1280:1631   */\n      swap3\n      swap2\n      pop\n      pop\n      jump\t// out\n        /* \"#utility.yul\":1637:1755   */\n    tag_39:\n        /* \"#utility.yul\":1724:1748   */\n      tag_65\n        /* \"#utility.yul\":1742:1747   */\n      dup2\n        /* \"#utility.yul\":1724:1748   */\n      tag_36\n      jump\t// in\n    tag_65:\n        /* \"#utility.yul\":1719:1722   */\n      dup3\n        /* \"#utility.yul\":1712:1749   */\n      mstore\n        /* \"#utility.yul\":1637:1755   */\n      pop\n      pop\n      jump\t// out\n        /* \"#utility.yul\":1761:2093   */\n    tag_25:\n        /* \"#utility.yul\":1882:1886   */\n      0x00\n        /* \"#utility.yul\":1920:1922   */\n      0x40\n        /* \"#utility.yul\":1909:1918   */\n      dup3\n        /* \"#utility.yul\":1905:1923   */\n      add\n        /* \"#utility.yul\":1897:1923   */\n      swap1\n      pop\n        /* \"#utility.yul\":1933:2004   */\n      tag_67\n        /* \"#utility.yul\":2001:2002   */\n      0x00\n        /* \"#utility.yul\":1990:1999   */\n      dup4\n        /* \"#utility.yul\":1986:2003   */\n      add\n        /* \"#utility.yul\":1977:1983   */\n      dup6\n        /* \"#utility.yul\":1933:2004   */\n      tag_32\n      jump\t// in\n    tag_67:\n        /* \"#utility.yul\":2014:2086   */\n      tag_68\n        /* \"#utility.yul\":2082:2084   */\n      0x20\n        /* \"#utility.yul\":2071:2080   */\n      dup4\n        /* \"#utility.yul\":2067:2085   */\n      add\n        /* \"#utility.yul\":2058:2064   */\n      dup5\n        /* \"#utility.yul\":2014:2086   */\n      tag_39\n      jump\t// in\n    tag_68:\n        /* \"#utility.yul\":1761:2093   */\n      swap4\n      swap3\n      pop\n      pop\n      pop\n      jump\t// out\n        /* \"#utility.yul\":2099:2189   */\n    tag_40:\n        /* \"#utility.yul\":2133:2140   */\n      0x00\n        /* \"#utility.yul\":2176:2181   */\n      dup2\n        /* \"#utility.yul\":2169:2182   */\n      iszero\n        /* \"#utility.yul\":2162:2183   */\n      iszero\n        /* \"#utility.yul\":2151:2183   */\n      swap1\n      pop\n        /* \"#utility.yul\":2099:2189   */\n      swap2\n      swap1\n      pop\n      jump\t// out\n        /* \"#utility.yul\":2195:2311   */\n    tag_41:\n        /* \"#utility.yul\":2265:2286   */\n      tag_71\n        /* \"#utility.yul\":2280:2285   */\n      dup2\n        /* \"#utility.yul\":2265:2286   */\n      tag_40\n      jump\t// in\n    tag_71:\n        /* \"#utility.yul\":2258:2263   */\n      dup2\n        /* \"#utility.yul\":2255:2287   */\n      eq\n        /* \"#utility.yul\":2245:2305   */\n      tag_72\n      jumpi\n        /* \"#utility.yul\":2301:2302   */\n      0x00\n        /* \"#utility.yul\":2298:2299   */\n      dup1\n        /* \"#utility.yul\":2291:2303   */\n      revert\n        /* \"#utility.yul\":2245:2305   */\n    tag_72:\n        /* \"#utility.yul\":2195:2311   */\n      pop\n      jump\t// out\n        /* \"#utility.yul\":2317:2454   */\n    tag_42:\n        /* \"#utility.yul\":2371:2376   */\n      0x00\n        /* \"#utility.yul\":2402:2408   */\n      dup2\n        /* \"#utility.yul\":2396:2409   */\n      mload\n        /* \"#utility.yul\":2387:2409   */\n      swap1\n      pop\n        /* \"#utility.yul\":2418:2448   */\n      tag_74\n        /* \"#utility.yul\":2442:2447   */\n      dup2\n        /* \"#utility.yul\":2418:2448   */\n      tag_41\n      jump\t// in\n    tag_74:\n        /* \"#utility.yul\":2317:2454   */\n      swap3\n      swap2\n      pop\n      pop\n      jump\t// out\n        /* \"#utility.yul\":2460:2805   */\n    tag_29:\n        /* \"#utility.yul\":2527:2533   */\n      0x00\n        /* \"#utility.yul\":2576:2578   */\n      0x20\n        /* \"#utility.yul\":2564:2573   */\n      dup3\n        /* \"#utility.yul\":2555:2562   */\n      dup5\n        /* \"#utility.yul\":2551:2574   */\n      sub\n        /* \"#utility.yul\":2547:2579   */\n      slt\n        /* \"#utility.yul\":2544:2663   */\n      iszero\n      tag_76\n      jumpi\n        /* \"#utility.yul\":2582:2661   */\n      tag_77\n      tag_34\n      jump\t// in\n    tag_77:\n        /* \"#utility.yul\":2544:2663   */\n    tag_76:\n        /* \"#utility.yul\":2702:2703   */\n      0x00\n        /* \"#utility.yul\":2727:2788   */\n      tag_78\n        /* \"#utility.yul\":2780:2787   */\n      dup5\n        /* \"#utility.yul\":2771:2777   */\n      dup3\n        /* \"#utility.yul\":2760:2769   */\n      dup6\n        /* \"#utility.yul\":2756:2778   */\n      add\n        /* \"#utility.yul\":2727:2788   */\n      tag_42\n      jump\t// in\n    tag_78:\n        /* \"#utility.yul\":2717:2788   */\n      swap2\n      pop\n        /* \"#utility.yul\":2673:2798   */\n      pop\n        /* \"#utility.yul\":2460:2805   */\n      swap3\n      swap2\n      pop\n      pop\n      jump\t// out\n\n    auxdata: 0xa2646970667358221220c498a11bac183a74865fc950593a521a874cab8bba05e6775604b6780a5ef3de64736f6c63430008110033\n}\n",
				"bytecode": {
					"linkReferences": {},
					"object": "6080604052732ab0e9e4ee70fff1fb9d67031e44f6410170d00e6000806101000a81548173ffffffffffffffffffffffffffffffffffffffff021916908373ffffffffffffffffffffffffffffffffffffffff160217905550736971b57a29764ed7af4a4a1ed7a512dde9369ef6600160006101000a81548173ffffffffffffffffffffffffffffffffffffffff021916908373ffffffffffffffffffffffffffffffffffffffff1602179055503480156100b957600080fd5b506100c86100cd60201b60201c565b6101c5565b60008054906101000a900473ffffffffffffffffffffffffffffffffffffffff1673ffffffffffffffffffffffffffffffffffffffff16639ff054df60016040518263ffffffff1660e01b815260040161012791906101aa565b600060405180830381600087803b15801561014157600080fd5b505af1158015610155573d6000803e3d6000fd5b50505050565b6000819050919050565b6000819050919050565b6000819050919050565b600061019461018f61018a8461015b565b61016f565b610165565b9050919050565b6101a481610179565b82525050565b60006020820190506101bf600083018461019b565b92915050565b610488806101d46000396000f3fe608060405234801561001057600080fd5b50600436106100415760003560e01c8063433af2401461004657806368ae560d146100645780638cf57cb91461006e575b600080fd5b61004e61008c565b60405161005b9190610332565b60405180910390f35b61006c6100b0565b005b6100766102cb565b6040516100839190610332565b60405180910390f35b60008054906101000a900473ffffffffffffffffffffffffffffffffffffffff1681565b60008054906101000a900473ffffffffffffffffffffffffffffffffffffffff1673ffffffffffffffffffffffffffffffffffffffff166352c7f8dc6040518163ffffffff1660e01b8152600401600060405180830381600087803b15801561011857600080fd5b505af115801561012c573d6000803e3d6000fd5b5050505060008060009054906101000a900473ffffffffffffffffffffffffffffffffffffffff1673ffffffffffffffffffffffffffffffffffffffff166370a08231306040518263ffffffff1660e01b815260040161018c9190610332565b602060405180830381865afa1580156101a9573d6000803e3d6000fd5b505050506040513d601f19601f820116820180604052508101906101cd9190610388565b905060008054906101000a900473ffffffffffffffffffffffffffffffffffffffff1673ffffffffffffffffffffffffffffffffffffffff1663a9059cbb600160009054906101000a900473ffffffffffffffffffffffffffffffffffffffff16836040518363ffffffff1660e01b815260040161024c9291906103c4565b6020604051808303816000875af115801561026b573d6000803e3d6000fd5b505050506040513d601f19601f8201168201806040525081019061028f9190610425565b50600160009054906101000a900473ffffffffffffffffffffffffffffffffffffffff1673ffffffffffffffffffffffffffffffffffffffff16ff5b600160009054906101000a900473ffffffffffffffffffffffffffffffffffffffff1681565b600073ffffffffffffffffffffffffffffffffffffffff82169050919050565b600061031c826102f1565b9050919050565b61032c81610311565b82525050565b60006020820190506103476000830184610323565b92915050565b600080fd5b6000819050919050565b61036581610352565b811461037057600080fd5b50565b6000815190506103828161035c565b92915050565b60006020828403121561039e5761039d61034d565b5b60006103ac84828501610373565b91505092915050565b6103be81610352565b82525050565b60006040820190506103d96000830185610323565b6103e660208301846103b5565b9392505050565b60008115159050919050565b610402816103ed565b811461040d57600080fd5b50565b60008151905061041f816103f9565b92915050565b60006020828403121561043b5761043a61034d565b5b600061044984828501610410565b9150509291505056fea2646970667358221220c498a11bac183a74865fc950593a521a874cab8bba05e6775604b6780a5ef3de64736f6c63430008110033",
					"opcodes": "PUSH1 0x80 PUSH1 0x40 MSTORE PUSH20 0x2AB0E9E4EE70FFF1FB9D67031E44F6410170D00E PUSH1 0x0 DUP1 PUSH2 0x100 EXP DUP2 SLOAD DUP2 PUSH20 0xFFFFFFFFFFFFFFFFFFFFFFFFFFFFFFFFFFFFFFFF MUL NOT AND SWAP1 DUP4 PUSH20 0xFFFFFFFFFFFFFFFFFFFFFFFFFFFFFFFFFFFFFFFF AND MUL OR SWAP1 SSTORE POP PUSH20 0x6971B57A29764ED7AF4A4A1ED7A512DDE9369EF6 PUSH1 0x1 PUSH1 0x0 PUSH2 0x100 EXP DUP2 SLOAD DUP2 PUSH20 0xFFFFFFFFFFFFFFFFFFFFFFFFFFFFFFFFFFFFFFFF MUL NOT AND SWAP1 DUP4 PUSH20 0xFFFFFFFFFFFFFFFFFFFFFFFFFFFFFFFFFFFFFFFF AND MUL OR SWAP1 SSTORE POP CALLVALUE DUP1 ISZERO PUSH2 0xB9 JUMPI PUSH1 0x0 DUP1 REVERT JUMPDEST POP PUSH2 0xC8 PUSH2 0xCD PUSH1 0x20 SHL PUSH1 0x20 SHR JUMP JUMPDEST PUSH2 0x1C5 JUMP JUMPDEST PUSH1 0x0 DUP1 SLOAD SWAP1 PUSH2 0x100 EXP SWAP1 DIV PUSH20 0xFFFFFFFFFFFFFFFFFFFFFFFFFFFFFFFFFFFFFFFF AND PUSH20 0xFFFFFFFFFFFFFFFFFFFFFFFFFFFFFFFFFFFFFFFF AND PUSH4 0x9FF054DF PUSH1 0x1 PUSH1 0x40 MLOAD DUP3 PUSH4 0xFFFFFFFF AND PUSH1 0xE0 SHL DUP2 MSTORE PUSH1 0x4 ADD PUSH2 0x127 SWAP2 SWAP1 PUSH2 0x1AA JUMP JUMPDEST PUSH1 0x0 PUSH1 0x40 MLOAD DUP1 DUP4 SUB DUP2 PUSH1 0x0 DUP8 DUP1 EXTCODESIZE ISZERO DUP1 ISZERO PUSH2 0x141 JUMPI PUSH1 0x0 DUP1 REVERT JUMPDEST POP GAS CALL ISZERO DUP1 ISZERO PUSH2 0x155 JUMPI RETURNDATASIZE PUSH1 0x0 DUP1 RETURNDATACOPY RETURNDATASIZE PUSH1 0x0 REVERT JUMPDEST POP POP POP POP JUMP JUMPDEST PUSH1 0x0 DUP2 SWAP1 POP SWAP2 SWAP1 POP JUMP JUMPDEST PUSH1 0x0 DUP2 SWAP1 POP SWAP2 SWAP1 POP JUMP JUMPDEST PUSH1 0x0 DUP2 SWAP1 POP SWAP2 SWAP1 POP JUMP JUMPDEST PUSH1 0x0 PUSH2 0x194 PUSH2 0x18F PUSH2 0x18A DUP5 PUSH2 0x15B JUMP JUMPDEST PUSH2 0x16F JUMP JUMPDEST PUSH2 0x165 JUMP JUMPDEST SWAP1 POP SWAP2 SWAP1 POP JUMP JUMPDEST PUSH2 0x1A4 DUP2 PUSH2 0x179 JUMP JUMPDEST DUP3 MSTORE POP POP JUMP JUMPDEST PUSH1 0x0 PUSH1 0x20 DUP3 ADD SWAP1 POP PUSH2 0x1BF PUSH1 0x0 DUP4 ADD DUP5 PUSH2 0x19B JUMP JUMPDEST SWAP3 SWAP2 POP POP JUMP JUMPDEST PUSH2 0x488 DUP1 PUSH2 0x1D4 PUSH1 0x0 CODECOPY PUSH1 0x0 RETURN INVALID PUSH1 0x80 PUSH1 0x40 MSTORE CALLVALUE DUP1 ISZERO PUSH2 0x10 JUMPI PUSH1 0x0 DUP1 REVERT JUMPDEST POP PUSH1 0x4 CALLDATASIZE LT PUSH2 0x41 JUMPI PUSH1 0x0 CALLDATALOAD PUSH1 0xE0 SHR DUP1 PUSH4 0x433AF240 EQ PUSH2 0x46 JUMPI DUP1 PUSH4 0x68AE560D EQ PUSH2 0x64 JUMPI DUP1 PUSH4 0x8CF57CB9 EQ PUSH2 0x6E JUMPI JUMPDEST PUSH1 0x0 DUP1 REVERT JUMPDEST PUSH2 0x4E PUSH2 0x8C JUMP JUMPDEST PUSH1 0x40 MLOAD PUSH2 0x5B SWAP2 SWAP1 PUSH2 0x332 JUMP JUMPDEST PUSH1 0x40 MLOAD DUP1 SWAP2 SUB SWAP1 RETURN JUMPDEST PUSH2 0x6C PUSH2 0xB0 JUMP JUMPDEST STOP JUMPDEST PUSH2 0x76 PUSH2 0x2CB JUMP JUMPDEST PUSH1 0x40 MLOAD PUSH2 0x83 SWAP2 SWAP1 PUSH2 0x332 JUMP JUMPDEST PUSH1 0x40 MLOAD DUP1 SWAP2 SUB SWAP1 RETURN JUMPDEST PUSH1 0x0 DUP1 SLOAD SWAP1 PUSH2 0x100 EXP SWAP1 DIV PUSH20 0xFFFFFFFFFFFFFFFFFFFFFFFFFFFFFFFFFFFFFFFF AND DUP2 JUMP JUMPDEST PUSH1 0x0 DUP1 SLOAD SWAP1 PUSH2 0x100 EXP SWAP1 DIV PUSH20 0xFFFFFFFFFFFFFFFFFFFFFFFFFFFFFFFFFFFFFFFF AND PUSH20 0xFFFFFFFFFFFFFFFFFFFFFFFFFFFFFFFFFFFFFFFF AND PUSH4 0x52C7F8DC PUSH1 0x40 MLOAD DUP2 PUSH4 0xFFFFFFFF AND PUSH1 0xE0 SHL DUP2 MSTORE PUSH1 0x4 ADD PUSH1 0x0 PUSH1 0x40 MLOAD DUP1 DUP4 SUB DUP2 PUSH1 0x0 DUP8 DUP1 EXTCODESIZE ISZERO DUP1 ISZERO PUSH2 0x118 JUMPI PUSH1 0x0 DUP1 REVERT JUMPDEST POP GAS CALL ISZERO DUP1 ISZERO PUSH2 0x12C JUMPI RETURNDATASIZE PUSH1 0x0 DUP1 RETURNDATACOPY RETURNDATASIZE PUSH1 0x0 REVERT JUMPDEST POP POP POP POP PUSH1 0x0 DUP1 PUSH1 0x0 SWAP1 SLOAD SWAP1 PUSH2 0x100 EXP SWAP1 DIV PUSH20 0xFFFFFFFFFFFFFFFFFFFFFFFFFFFFFFFFFFFFFFFF AND PUSH20 0xFFFFFFFFFFFFFFFFFFFFFFFFFFFFFFFFFFFFFFFF AND PUSH4 0x70A08231 ADDRESS PUSH1 0x40 MLOAD DUP3 PUSH4 0xFFFFFFFF AND PUSH1 0xE0 SHL DUP2 MSTORE PUSH1 0x4 ADD PUSH2 0x18C SWAP2 SWAP1 PUSH2 0x332 JUMP JUMPDEST PUSH1 0x20 PUSH1 0x40 MLOAD DUP1 DUP4 SUB DUP2 DUP7 GAS STATICCALL ISZERO DUP1 ISZERO PUSH2 0x1A9 JUMPI RETURNDATASIZE PUSH1 0x0 DUP1 RETURNDATACOPY RETURNDATASIZE PUSH1 0x0 REVERT JUMPDEST POP POP POP POP PUSH1 0x40 MLOAD RETURNDATASIZE PUSH1 0x1F NOT PUSH1 0x1F DUP3 ADD AND DUP3 ADD DUP1 PUSH1 0x40 MSTORE POP DUP2 ADD SWAP1 PUSH2 0x1CD SWAP2 SWAP1 PUSH2 0x388 JUMP JUMPDEST SWAP1 POP PUSH1 0x0 DUP1 SLOAD SWAP1 PUSH2 0x100 EXP SWAP1 DIV PUSH20 0xFFFFFFFFFFFFFFFFFFFFFFFFFFFFFFFFFFFFFFFF AND PUSH20 0xFFFFFFFFFFFFFFFFFFFFFFFFFFFFFFFFFFFFFFFF AND PUSH4 0xA9059CBB PUSH1 0x1 PUSH1 0x0 SWAP1 SLOAD SWAP1 PUSH2 0x100 EXP SWAP1 DIV PUSH20 0xFFFFFFFFFFFFFFFFFFFFFFFFFFFFFFFFFFFFFFFF AND DUP4 PUSH1 0x40 MLOAD DUP4 PUSH4 0xFFFFFFFF AND PUSH1 0xE0 SHL DUP2 MSTORE PUSH1 0x4 ADD PUSH2 0x24C SWAP3 SWAP2 SWAP1 PUSH2 0x3C4 JUMP JUMPDEST PUSH1 0x20 PUSH1 0x40 MLOAD DUP1 DUP4 SUB DUP2 PUSH1 0x0 DUP8 GAS CALL ISZERO DUP1 ISZERO PUSH2 0x26B JUMPI RETURNDATASIZE PUSH1 0x0 DUP1 RETURNDATACOPY RETURNDATASIZE PUSH1 0x0 REVERT JUMPDEST POP POP POP POP PUSH1 0x40 MLOAD RETURNDATASIZE PUSH1 0x1F NOT PUSH1 0x1F DUP3 ADD AND DUP3 ADD DUP1 PUSH1 0x40 MSTORE POP DUP2 ADD SWAP1 PUSH2 0x28F SWAP2 SWAP1 PUSH2 0x425 JUMP JUMPDEST POP PUSH1 0x1 PUSH1 0x0 SWAP1 SLOAD SWAP1 PUSH2 0x100 EXP SWAP1 DIV PUSH20 0xFFFFFFFFFFFFFFFFFFFFFFFFFFFFFFFFFFFFFFFF AND PUSH20 0xFFFFFFFFFFFFFFFFFFFFFFFFFFFFFFFFFFFFFFFF AND SELFDESTRUCT JUMPDEST PUSH1 0x1 PUSH1 0x0 SWAP1 SLOAD SWAP1 PUSH2 0x100 EXP SWAP1 DIV PUSH20 0xFFFFFFFFFFFFFFFFFFFFFFFFFFFFFFFFFFFFFFFF AND DUP2 JUMP JUMPDEST PUSH1 0x0 PUSH20 0xFFFFFFFFFFFFFFFFFFFFFFFFFFFFFFFFFFFFFFFF DUP3 AND SWAP1 POP SWAP2 SWAP1 POP JUMP JUMPDEST PUSH1 0x0 PUSH2 0x31C DUP3 PUSH2 0x2F1 JUMP JUMPDEST SWAP1 POP SWAP2 SWAP1 POP JUMP JUMPDEST PUSH2 0x32C DUP2 PUSH2 0x311 JUMP JUMPDEST DUP3 MSTORE POP POP JUMP JUMPDEST PUSH1 0x0 PUSH1 0x20 DUP3 ADD SWAP1 POP PUSH2 0x347 PUSH1 0x0 DUP4 ADD DUP5 PUSH2 0x323 JUMP JUMPDEST SWAP3 SWAP2 POP POP JUMP JUMPDEST PUSH1 0x0 DUP1 REVERT JUMPDEST PUSH1 0x0 DUP2 SWAP1 POP SWAP2 SWAP1 POP JUMP JUMPDEST PUSH2 0x365 DUP2 PUSH2 0x352 JUMP JUMPDEST DUP2 EQ PUSH2 0x370 JUMPI PUSH1 0x0 DUP1 REVERT JUMPDEST POP JUMP JUMPDEST PUSH1 0x0 DUP2 MLOAD SWAP1 POP PUSH2 0x382 DUP2 PUSH2 0x35C JUMP JUMPDEST SWAP3 SWAP2 POP POP JUMP JUMPDEST PUSH1 0x0 PUSH1 0x20 DUP3 DUP5 SUB SLT ISZERO PUSH2 0x39E JUMPI PUSH2 0x39D PUSH2 0x34D JUMP JUMPDEST JUMPDEST PUSH1 0x0 PUSH2 0x3AC DUP5 DUP3 DUP6 ADD PUSH2 0x373 JUMP JUMPDEST SWAP2 POP POP SWAP3 SWAP2 POP POP JUMP JUMPDEST PUSH2 0x3BE DUP2 PUSH2 0x352 JUMP JUMPDEST DUP3 MSTORE POP POP JUMP JUMPDEST PUSH1 0x0 PUSH1 0x40 DUP3 ADD SWAP1 POP PUSH2 0x3D9 PUSH1 0x0 DUP4 ADD DUP6 PUSH2 0x323 JUMP JUMPDEST PUSH2 0x3E6 PUSH1 0x20 DUP4 ADD DUP5 PUSH2 0x3B5 JUMP JUMPDEST SWAP4 SWAP3 POP POP POP JUMP JUMPDEST PUSH1 0x0 DUP2 ISZERO ISZERO SWAP1 POP SWAP2 SWAP1 POP JUMP JUMPDEST PUSH2 0x402 DUP2 PUSH2 0x3ED JUMP JUMPDEST DUP2 EQ PUSH2 0x40D JUMPI PUSH1 0x0 DUP1 REVERT JUMPDEST POP JUMP JUMPDEST PUSH1 0x0 DUP2 MLOAD SWAP1 POP PUSH2 0x41F DUP2 PUSH2 0x3F9 JUMP JUMPDEST SWAP3 SWAP2 POP POP JUMP JUMPDEST PUSH1 0x0 PUSH1 0x20 DUP3 DUP5 SUB SLT ISZERO PUSH2 0x43B JUMPI PUSH2 0x43A PUSH2 0x34D JUMP JUMPDEST JUMPDEST PUSH1 0x0 PUSH2 0x449 DUP5 DUP3 DUP6 ADD PUSH2 0x410 JUMP JUMPDEST SWAP2 POP POP SWAP3 SWAP2 POP POP JUMP INVALID LOG2 PUSH5 0x6970667358 0x22 SLT KECCAK256 0xC4 SWAP9 LOG1 SHL 0xAC XOR GASPRICE PUSH21 0x865FC950593A521A874CAB8BBA05E6775604B6780A 0x5E RETURN 0xDE PUSH5 0x736F6C6343 STOP ADDMOD GT STOP CALLER "
				},
				"gasEstimates": {
					"creation": {
						"codeDepositCost": "232000",
						"executionCost": "infinite",
						"totalCost": "infinite"
					},
					"external": {
						"rewardAddress()": "2536",
						"rewardAndTransfer()": "infinite",
						"xenAddress()": "2489"
					},
					"internal": {
						"reg()": "infinite"
					}
				},
				"methodIdentifiers": {
					"rewardAddress()": "8cf57cb9",
					"rewardAndTransfer()": "68ae560d",
					"xenAddress()": "433af240"
				}
			},
			"storageLayout": {
				"storage": [
					{
						"astId": 334,
						"contract": "XEN/attackFactory.sol:Active",
						"label": "xenAddress",
						"offset": 0,
						"slot": "0",
						"type": "t_address"
					},
					{
						"astId": 337,
						"contract": "XEN/attackFactory.sol:Active",
						"label": "rewardAddress",
						"offset": 0,
						"slot": "1",
						"type": "t_address"
					}
				],
				"types": {
					"t_address": {
						"encoding": "inplace",
						"label": "address",
						"numberOfBytes": "20"
					}
				}
			},
			"userdoc": {
				"kind": "user",
				"methods": {},
				"version": 1
			}
		}
	}
}