{
	"XenFactory/XenCreate2.sol": {
		"MxenFactory": {
			"abi": [
				{
					"inputs": [],
					"stateMutability": "nonpayable",
					"type": "constructor"
				},
				{
					"inputs": [
						{
							"internalType": "uint256",
							"name": "ins",
							"type": "uint256"
						},
						{
							"internalType": "uint256",
							"name": "amount",
							"type": "uint256"
						}
					],
					"name": "claimXEN",
					"outputs": [],
					"stateMutability": "nonpayable",
					"type": "function"
				},
				{
					"inputs": [],
					"name": "index",
					"outputs": [
						{
							"internalType": "uint256",
							"name": "",
							"type": "uint256"
						}
					],
					"stateMutability": "view",
					"type": "function"
				},
				{
					"inputs": [
						{
							"internalType": "uint256",
							"name": "",
							"type": "uint256"
						}
					],
					"name": "indexAddress",
					"outputs": [
						{
							"internalType": "address",
							"name": "",
							"type": "address"
						}
					],
					"stateMutability": "view",
					"type": "function"
				}
			],
			"devdoc": {
				"kind": "dev",
				"methods": {},
				"version": 1
			},
			"evm": {
				"assembly": "    /* \"XenFactory/XenCreate2.sol\":234:954  contract MxenFactory{... */\n  mstore(0x40, 0x80)\n    /* \"XenFactory/XenCreate2.sol\":290:291  1 */\n  0x01\n    /* \"XenFactory/XenCreate2.sol\":267:291  uint256 public index = 1 */\n  0x00\n  sstore\n    /* \"XenFactory/XenCreate2.sol\":368:687  constructor() public{... */\n  callvalue\n  dup1\n  iszero\n  tag_1\n  jumpi\n  0x00\n  dup1\n  revert\ntag_1:\n  pop\n    /* \"XenFactory/XenCreate2.sol\":403:409  uint i */\n  0x00\n    /* \"XenFactory/XenCreate2.sol\":410:411  1 */\n  0x01\n    /* \"XenFactory/XenCreate2.sol\":403:411  uint i=1 */\n  swap1\n  pop\n    /* \"XenFactory/XenCreate2.sol\":414:416  20 */\n  0x14\n    /* \"XenFactory/XenCreate2.sol\":412:413  i */\n  dup2\n    /* \"XenFactory/XenCreate2.sol\":412:416  i<20 */\n  lt\n    /* \"XenFactory/XenCreate2.sol\":399:680  for(uint i=1;i<20;i++){... */\n  iszero\n  tag_5\n  jumpi\n    /* \"XenFactory/XenCreate2.sol\":436:448  XenActive cn */\n  0x00\n    /* \"XenFactory/XenCreate2.sol\":478:479  i */\n  dup2\n    /* \"XenFactory/XenCreate2.sol\":470:480  bytes32(i) */\n  0x00\n  shl\n    /* \"XenFactory/XenCreate2.sol\":451:483  new XenActive{salt:bytes32(i)}() */\n  mload(0x40)\n  tag_7\n  swap1\n  tag_8\n  jump\t// in\ntag_7:\n  dup2\n  swap1\n  mload(0x40)\n  dup1\n  swap2\n  sub\n  swap1\n  0x00\n  create2\n  swap1\n  pop\n  dup1\n  iszero\n  dup1\n  iszero\n  tag_9\n  jumpi\n  returndatasize\n  0x00\n  dup1\n  returndatacopy\n  revert(0x00, returndatasize)\ntag_9:\n  pop\n    /* \"XenFactory/XenCreate2.sol\":436:483  XenActive cn = new XenActive{salt:bytes32(i)}() */\n  swap1\n  pop\n    /* \"XenFactory/XenCreate2.sol\":517:519  cn */\n  dup1\n    /* \"XenFactory/XenCreate2.sol\":498:530  IXenActive(address(cn)).claimXEN */\n  0xffffffffffffffffffffffffffffffffffffffff\n  and\n  0xce677800\n    /* \"XenFactory/XenCreate2.sol\":498:532  IXenActive(address(cn)).claimXEN() */\n  mload(0x40)\n  dup2\n  0xffffffff\n  and\n  0xe0\n  shl\n  dup2\n  mstore\n  0x04\n  add\n  0x00\n  mload(0x40)\n  dup1\n  dup4\n  sub\n  dup2\n  0x00\n  dup8\n  dup1\n  extcodesize\n  iszero\n  dup1\n  iszero\n  tag_10\n  jumpi\n  0x00\n  dup1\n  revert\ntag_10:\n  pop\n  gas\n  call\n  iszero\n  dup1\n  iszero\n  tag_12\n  jumpi\n  returndatasize\n  0x00\n  dup1\n  returndatacopy\n  revert(0x00, returndatasize)\ntag_12:\n  pop\n  pop\n  pop\n  pop\n    /* \"XenFactory/XenCreate2.sol\":656:666  msg.sender */\n  caller\n    /* \"XenFactory/XenCreate2.sol\":635:668  selfdestruct(payable(msg.sender)) */\n  0xffffffffffffffffffffffffffffffffffffffff\n  and\n  selfdestruct\n    /* \"XenFactory/XenCreate2.sol\":399:680  for(uint i=1;i<20;i++){... */\ntag_5:\n  pop\n    /* \"XenFactory/XenCreate2.sol\":234:954  contract MxenFactory{... */\n  jump(tag_15)\ntag_8:\n  dataSize(sub_1)\n  dup1\n  dataOffset(sub_1)\n  dup4\n  codecopy\n  add\n  swap1\n  jump\t// out\ntag_15:\n  dataSize(sub_0)\n  dup1\n  dataOffset(sub_0)\n  0x00\n  codecopy\n  0x00\n  return\nstop\n\nsub_0: assembly {\n        /* \"XenFactory/XenCreate2.sol\":234:954  contract MxenFactory{... */\n      mstore(0x40, 0x80)\n      callvalue\n      dup1\n      iszero\n      tag_1\n      jumpi\n      0x00\n      dup1\n      revert\n    tag_1:\n      pop\n      jumpi(tag_2, lt(calldatasize, 0x04))\n      shr(0xe0, calldataload(0x00))\n      dup1\n      0x2986c0e5\n      eq\n      tag_3\n      jumpi\n      dup1\n      0x86050680\n      eq\n      tag_4\n      jumpi\n      dup1\n      0x86845921\n      eq\n      tag_5\n      jumpi\n    tag_2:\n      0x00\n      dup1\n      revert\n        /* \"XenFactory/XenCreate2.sol\":267:291  uint256 public index = 1 */\n    tag_3:\n      tag_6\n      tag_7\n      jump\t// in\n    tag_6:\n      mload(0x40)\n      tag_8\n      swap2\n      swap1\n      tag_9\n      jump\t// in\n    tag_8:\n      mload(0x40)\n      dup1\n      swap2\n      sub\n      swap1\n      return\n        /* \"XenFactory/XenCreate2.sol\":300:347  mapping(uint256 => address) public indexAddress */\n    tag_4:\n      tag_10\n      0x04\n      dup1\n      calldatasize\n      sub\n      dup2\n      add\n      swap1\n      tag_11\n      swap2\n      swap1\n      tag_12\n      jump\t// in\n    tag_11:\n      tag_13\n      jump\t// in\n    tag_10:\n      mload(0x40)\n      tag_14\n      swap2\n      swap1\n      tag_15\n      jump\t// in\n    tag_14:\n      mload(0x40)\n      dup1\n      swap2\n      sub\n      swap1\n      return\n        /* \"XenFactory/XenCreate2.sol\":730:949  function claimXEN(uint ins ,uint256 amount) public{... */\n    tag_5:\n      tag_16\n      0x04\n      dup1\n      calldatasize\n      sub\n      dup2\n      add\n      swap1\n      tag_17\n      swap2\n      swap1\n      tag_18\n      jump\t// in\n    tag_17:\n      tag_19\n      jump\t// in\n    tag_16:\n      stop\n        /* \"XenFactory/XenCreate2.sol\":267:291  uint256 public index = 1 */\n    tag_7:\n      sload(0x00)\n      dup2\n      jump\t// out\n        /* \"XenFactory/XenCreate2.sol\":300:347  mapping(uint256 => address) public indexAddress */\n    tag_13:\n      mstore(0x20, 0x01)\n      dup1\n      0x00\n      mstore\n      keccak256(0x00, 0x40)\n      0x00\n      swap2\n      pop\n      sload\n      swap1\n      0x0100\n      exp\n      swap1\n      div\n      0xffffffffffffffffffffffffffffffffffffffff\n      and\n      dup2\n      jump\t// out\n        /* \"XenFactory/XenCreate2.sol\":730:949  function claimXEN(uint ins ,uint256 amount) public{... */\n    tag_19:\n        /* \"XenFactory/XenCreate2.sol\":795:801  uint i */\n      0x00\n        /* \"XenFactory/XenCreate2.sol\":804:807  ins */\n      dup3\n        /* \"XenFactory/XenCreate2.sol\":795:807  uint i = ins */\n      swap1\n      pop\n        /* \"XenFactory/XenCreate2.sol\":791:941  for(uint i = ins;i< amount;i++){... */\n    tag_21:\n        /* \"XenFactory/XenCreate2.sol\":811:817  amount */\n      dup2\n        /* \"XenFactory/XenCreate2.sol\":808:809  i */\n      dup2\n        /* \"XenFactory/XenCreate2.sol\":808:817  i< amount */\n      lt\n        /* \"XenFactory/XenCreate2.sol\":791:941  for(uint i = ins;i< amount;i++){... */\n      iszero\n      tag_22\n      jumpi\n        /* \"XenFactory/XenCreate2.sol\":837:856  address stakaddress */\n      0x00\n        /* \"XenFactory/XenCreate2.sol\":859:871  indexAddress */\n      0x01\n        /* \"XenFactory/XenCreate2.sol\":859:874  indexAddress[i] */\n      0x00\n        /* \"XenFactory/XenCreate2.sol\":872:873  i */\n      dup4\n        /* \"XenFactory/XenCreate2.sol\":859:874  indexAddress[i] */\n      dup2\n      mstore\n      0x20\n      add\n      swap1\n      dup2\n      mstore\n      0x20\n      add\n      0x00\n      keccak256\n      0x00\n      swap1\n      sload\n      swap1\n      0x0100\n      exp\n      swap1\n      div\n      0xffffffffffffffffffffffffffffffffffffffff\n      and\n        /* \"XenFactory/XenCreate2.sol\":837:874  address stakaddress = indexAddress[i] */\n      swap1\n      pop\n        /* \"XenFactory/XenCreate2.sol\":900:911  stakaddress */\n      dup1\n        /* \"XenFactory/XenCreate2.sol\":889:927  IXenActive(stakaddress).rewardTransfer */\n      0xffffffffffffffffffffffffffffffffffffffff\n      and\n      0x8b4ef897\n        /* \"XenFactory/XenCreate2.sol\":889:929  IXenActive(stakaddress).rewardTransfer() */\n      mload(0x40)\n      dup2\n      0xffffffff\n      and\n      0xe0\n      shl\n      dup2\n      mstore\n      0x04\n      add\n      0x00\n      mload(0x40)\n      dup1\n      dup4\n      sub\n      dup2\n      0x00\n      dup8\n      dup1\n      extcodesize\n      iszero\n      dup1\n      iszero\n      tag_24\n      jumpi\n      0x00\n      dup1\n      revert\n    tag_24:\n      pop\n      gas\n      call\n      iszero\n      dup1\n      iszero\n      tag_26\n      jumpi\n      returndatasize\n      0x00\n      dup1\n      returndatacopy\n      revert(0x00, returndatasize)\n    tag_26:\n      pop\n      pop\n      pop\n      pop\n        /* \"XenFactory/XenCreate2.sol\":822:941  {... */\n      pop\n        /* \"XenFactory/XenCreate2.sol\":818:821  i++ */\n      dup1\n      dup1\n      tag_27\n      swap1\n      tag_28\n      jump\t// in\n    tag_27:\n      swap2\n      pop\n      pop\n        /* \"XenFactory/XenCreate2.sol\":791:941  for(uint i = ins;i< amount;i++){... */\n      jump(tag_21)\n    tag_22:\n      pop\n        /* \"XenFactory/XenCreate2.sol\":730:949  function claimXEN(uint ins ,uint256 amount) public{... */\n      pop\n      pop\n      jump\t// out\n        /* \"#utility.yul\":7:84   */\n    tag_29:\n        /* \"#utility.yul\":44:51   */\n      0x00\n        /* \"#utility.yul\":73:78   */\n      dup2\n        /* \"#utility.yul\":62:78   */\n      swap1\n      pop\n        /* \"#utility.yul\":7:84   */\n      swap2\n      swap1\n      pop\n      jump\t// out\n        /* \"#utility.yul\":90:208   */\n    tag_30:\n        /* \"#utility.yul\":177:201   */\n      tag_43\n        /* \"#utility.yul\":195:200   */\n      dup2\n        /* \"#utility.yul\":177:201   */\n      tag_29\n      jump\t// in\n    tag_43:\n        /* \"#utility.yul\":172:175   */\n      dup3\n        /* \"#utility.yul\":165:202   */\n      mstore\n        /* \"#utility.yul\":90:208   */\n      pop\n      pop\n      jump\t// out\n        /* \"#utility.yul\":214:436   */\n    tag_9:\n        /* \"#utility.yul\":307:311   */\n      0x00\n        /* \"#utility.yul\":345:347   */\n      0x20\n        /* \"#utility.yul\":334:343   */\n      dup3\n        /* \"#utility.yul\":330:348   */\n      add\n        /* \"#utility.yul\":322:348   */\n      swap1\n      pop\n        /* \"#utility.yul\":358:429   */\n      tag_45\n        /* \"#utility.yul\":426:427   */\n      0x00\n        /* \"#utility.yul\":415:424   */\n      dup4\n        /* \"#utility.yul\":411:428   */\n      add\n        /* \"#utility.yul\":402:408   */\n      dup5\n        /* \"#utility.yul\":358:429   */\n      tag_30\n      jump\t// in\n    tag_45:\n        /* \"#utility.yul\":214:436   */\n      swap3\n      swap2\n      pop\n      pop\n      jump\t// out\n        /* \"#utility.yul\":523:640   */\n    tag_32:\n        /* \"#utility.yul\":632:633   */\n      0x00\n        /* \"#utility.yul\":629:630   */\n      dup1\n        /* \"#utility.yul\":622:634   */\n      revert\n        /* \"#utility.yul\":769:891   */\n    tag_34:\n        /* \"#utility.yul\":842:866   */\n      tag_50\n        /* \"#utility.yul\":860:865   */\n      dup2\n        /* \"#utility.yul\":842:866   */\n      tag_29\n      jump\t// in\n    tag_50:\n        /* \"#utility.yul\":835:840   */\n      dup2\n        /* \"#utility.yul\":832:867   */\n      eq\n        /* \"#utility.yul\":822:885   */\n      tag_51\n      jumpi\n        /* \"#utility.yul\":881:882   */\n      0x00\n        /* \"#utility.yul\":878:879   */\n      dup1\n        /* \"#utility.yul\":871:883   */\n      revert\n        /* \"#utility.yul\":822:885   */\n    tag_51:\n        /* \"#utility.yul\":769:891   */\n      pop\n      jump\t// out\n        /* \"#utility.yul\":897:1036   */\n    tag_35:\n        /* \"#utility.yul\":943:948   */\n      0x00\n        /* \"#utility.yul\":981:987   */\n      dup2\n        /* \"#utility.yul\":968:988   */\n      calldataload\n        /* \"#utility.yul\":959:988   */\n      swap1\n      pop\n        /* \"#utility.yul\":997:1030   */\n      tag_53\n        /* \"#utility.yul\":1024:1029   */\n      dup2\n        /* \"#utility.yul\":997:1030   */\n      tag_34\n      jump\t// in\n    tag_53:\n        /* \"#utility.yul\":897:1036   */\n      swap3\n      swap2\n      pop\n      pop\n      jump\t// out\n        /* \"#utility.yul\":1042:1371   */\n    tag_12:\n        /* \"#utility.yul\":1101:1107   */\n      0x00\n        /* \"#utility.yul\":1150:1152   */\n      0x20\n        /* \"#utility.yul\":1138:1147   */\n      dup3\n        /* \"#utility.yul\":1129:1136   */\n      dup5\n        /* \"#utility.yul\":1125:1148   */\n      sub\n        /* \"#utility.yul\":1121:1153   */\n      slt\n        /* \"#utility.yul\":1118:1237   */\n      iszero\n      tag_55\n      jumpi\n        /* \"#utility.yul\":1156:1235   */\n      tag_56\n      tag_32\n      jump\t// in\n    tag_56:\n        /* \"#utility.yul\":1118:1237   */\n    tag_55:\n        /* \"#utility.yul\":1276:1277   */\n      0x00\n        /* \"#utility.yul\":1301:1354   */\n      tag_57\n        /* \"#utility.yul\":1346:1353   */\n      dup5\n        /* \"#utility.yul\":1337:1343   */\n      dup3\n        /* \"#utility.yul\":1326:1335   */\n      dup6\n        /* \"#utility.yul\":1322:1344   */\n      add\n        /* \"#utility.yul\":1301:1354   */\n      tag_35\n      jump\t// in\n    tag_57:\n        /* \"#utility.yul\":1291:1354   */\n      swap2\n      pop\n        /* \"#utility.yul\":1247:1364   */\n      pop\n        /* \"#utility.yul\":1042:1371   */\n      swap3\n      swap2\n      pop\n      pop\n      jump\t// out\n        /* \"#utility.yul\":1377:1503   */\n    tag_36:\n        /* \"#utility.yul\":1414:1421   */\n      0x00\n        /* \"#utility.yul\":1454:1496   */\n      0xffffffffffffffffffffffffffffffffffffffff\n        /* \"#utility.yul\":1447:1452   */\n      dup3\n        /* \"#utility.yul\":1443:1497   */\n      and\n        /* \"#utility.yul\":1432:1497   */\n      swap1\n      pop\n        /* \"#utility.yul\":1377:1503   */\n      swap2\n      swap1\n      pop\n      jump\t// out\n        /* \"#utility.yul\":1509:1605   */\n    tag_37:\n        /* \"#utility.yul\":1546:1553   */\n      0x00\n        /* \"#utility.yul\":1575:1599   */\n      tag_60\n        /* \"#utility.yul\":1593:1598   */\n      dup3\n        /* \"#utility.yul\":1575:1599   */\n      tag_36\n      jump\t// in\n    tag_60:\n        /* \"#utility.yul\":1564:1599   */\n      swap1\n      pop\n        /* \"#utility.yul\":1509:1605   */\n      swap2\n      swap1\n      pop\n      jump\t// out\n        /* \"#utility.yul\":1611:1729   */\n    tag_38:\n        /* \"#utility.yul\":1698:1722   */\n      tag_62\n        /* \"#utility.yul\":1716:1721   */\n      dup2\n        /* \"#utility.yul\":1698:1722   */\n      tag_37\n      jump\t// in\n    tag_62:\n        /* \"#utility.yul\":1693:1696   */\n      dup3\n        /* \"#utility.yul\":1686:1723   */\n      mstore\n        /* \"#utility.yul\":1611:1729   */\n      pop\n      pop\n      jump\t// out\n        /* \"#utility.yul\":1735:1957   */\n    tag_15:\n        /* \"#utility.yul\":1828:1832   */\n      0x00\n        /* \"#utility.yul\":1866:1868   */\n      0x20\n        /* \"#utility.yul\":1855:1864   */\n      dup3\n        /* \"#utility.yul\":1851:1869   */\n      add\n        /* \"#utility.yul\":1843:1869   */\n      swap1\n      pop\n        /* \"#utility.yul\":1879:1950   */\n      tag_64\n        /* \"#utility.yul\":1947:1948   */\n      0x00\n        /* \"#utility.yul\":1936:1945   */\n      dup4\n        /* \"#utility.yul\":1932:1949   */\n      add\n        /* \"#utility.yul\":1923:1929   */\n      dup5\n        /* \"#utility.yul\":1879:1950   */\n      tag_38\n      jump\t// in\n    tag_64:\n        /* \"#utility.yul\":1735:1957   */\n      swap3\n      swap2\n      pop\n      pop\n      jump\t// out\n        /* \"#utility.yul\":1963:2437   */\n    tag_18:\n        /* \"#utility.yul\":2031:2037   */\n      0x00\n        /* \"#utility.yul\":2039:2045   */\n      dup1\n        /* \"#utility.yul\":2088:2090   */\n      0x40\n        /* \"#utility.yul\":2076:2085   */\n      dup4\n        /* \"#utility.yul\":2067:2074   */\n      dup6\n        /* \"#utility.yul\":2063:2086   */\n      sub\n        /* \"#utility.yul\":2059:2091   */\n      slt\n        /* \"#utility.yul\":2056:2175   */\n      iszero\n      tag_66\n      jumpi\n        /* \"#utility.yul\":2094:2173   */\n      tag_67\n      tag_32\n      jump\t// in\n    tag_67:\n        /* \"#utility.yul\":2056:2175   */\n    tag_66:\n        /* \"#utility.yul\":2214:2215   */\n      0x00\n        /* \"#utility.yul\":2239:2292   */\n      tag_68\n        /* \"#utility.yul\":2284:2291   */\n      dup6\n        /* \"#utility.yul\":2275:2281   */\n      dup3\n        /* \"#utility.yul\":2264:2273   */\n      dup7\n        /* \"#utility.yul\":2260:2282   */\n      add\n        /* \"#utility.yul\":2239:2292   */\n      tag_35\n      jump\t// in\n    tag_68:\n        /* \"#utility.yul\":2229:2292   */\n      swap3\n      pop\n        /* \"#utility.yul\":2185:2302   */\n      pop\n        /* \"#utility.yul\":2341:2343   */\n      0x20\n        /* \"#utility.yul\":2367:2420   */\n      tag_69\n        /* \"#utility.yul\":2412:2419   */\n      dup6\n        /* \"#utility.yul\":2403:2409   */\n      dup3\n        /* \"#utility.yul\":2392:2401   */\n      dup7\n        /* \"#utility.yul\":2388:2410   */\n      add\n        /* \"#utility.yul\":2367:2420   */\n      tag_35\n      jump\t// in\n    tag_69:\n        /* \"#utility.yul\":2357:2420   */\n      swap2\n      pop\n        /* \"#utility.yul\":2312:2430   */\n      pop\n        /* \"#utility.yul\":1963:2437   */\n      swap3\n      pop\n      swap3\n      swap1\n      pop\n      jump\t// out\n        /* \"#utility.yul\":2443:2623   */\n    tag_39:\n        /* \"#utility.yul\":2491:2568   */\n      0x4e487b7100000000000000000000000000000000000000000000000000000000\n        /* \"#utility.yul\":2488:2489   */\n      0x00\n        /* \"#utility.yul\":2481:2569   */\n      mstore\n        /* \"#utility.yul\":2588:2592   */\n      0x11\n        /* \"#utility.yul\":2585:2586   */\n      0x04\n        /* \"#utility.yul\":2578:2593   */\n      mstore\n        /* \"#utility.yul\":2612:2616   */\n      0x24\n        /* \"#utility.yul\":2609:2610   */\n      0x00\n        /* \"#utility.yul\":2602:2617   */\n      revert\n        /* \"#utility.yul\":2629:2862   */\n    tag_28:\n        /* \"#utility.yul\":2668:2671   */\n      0x00\n        /* \"#utility.yul\":2691:2715   */\n      tag_72\n        /* \"#utility.yul\":2709:2714   */\n      dup3\n        /* \"#utility.yul\":2691:2715   */\n      tag_29\n      jump\t// in\n    tag_72:\n        /* \"#utility.yul\":2682:2715   */\n      swap2\n      pop\n        /* \"#utility.yul\":2737:2803   */\n      0xffffffffffffffffffffffffffffffffffffffffffffffffffffffffffffffff\n        /* \"#utility.yul\":2730:2735   */\n      dup3\n        /* \"#utility.yul\":2727:2804   */\n      sub\n        /* \"#utility.yul\":2724:2827   */\n      tag_73\n      jumpi\n        /* \"#utility.yul\":2807:2825   */\n      tag_74\n      tag_39\n      jump\t// in\n    tag_74:\n        /* \"#utility.yul\":2724:2827   */\n    tag_73:\n        /* \"#utility.yul\":2854:2855   */\n      0x01\n        /* \"#utility.yul\":2847:2852   */\n      dup3\n        /* \"#utility.yul\":2843:2856   */\n      add\n        /* \"#utility.yul\":2836:2856   */\n      swap1\n      pop\n        /* \"#utility.yul\":2629:2862   */\n      swap2\n      swap1\n      pop\n      jump\t// out\n\n    auxdata: 0xa2646970667358221220427db8af23db2af5f8452bba8f033a0dbb45c6751f569c9314d28669356559f364736f6c63430008110033\n}\n\nsub_1: assembly {\n        /* \"XenFactory/XenActive.sol\":345:1046  contract XenActive{... */\n      mstore(0x40, 0x80)\n        /* \"XenFactory/XenActive.sol\":415:457  0x6971b57a29764eD7af4A4a1ED7a512Dde9369Ef6 */\n      0x6971b57a29764ed7af4a4a1ed7a512dde9369ef6\n        /* \"XenFactory/XenActive.sol\":393:457  address public owner= 0x6971b57a29764eD7af4A4a1ED7a512Dde9369Ef6 */\n      0x00\n      dup1\n      0x0100\n      exp\n      dup2\n      sload\n      dup2\n      0xffffffffffffffffffffffffffffffffffffffff\n      mul\n      not\n      and\n      swap1\n      dup4\n      0xffffffffffffffffffffffffffffffffffffffff\n      and\n      mul\n      or\n      swap1\n      sstore\n      pop\n        /* \"XenFactory/XenActive.sol\":513:555  0x2AB0e9e4eE70FFf1fB9D67031E44F6410170d00e */\n      0x2ab0e9e4ee70fff1fb9d67031e44f6410170d00e\n        /* \"XenFactory/XenActive.sol\":490:555  address public _addr = 0x2AB0e9e4eE70FFf1fB9D67031E44F6410170d00e */\n      0x01\n      exp(0x0100, 0x00)\n      dup2\n      sload\n      dup2\n      0xffffffffffffffffffffffffffffffffffffffff\n      mul\n      not\n      and\n      swap1\n      dup4\n      0xffffffffffffffffffffffffffffffffffffffff\n      and\n      mul\n      or\n      swap1\n      sstore\n      pop\n        /* \"XenFactory/XenActive.sol\":345:1046  contract XenActive{... */\n      callvalue\n      dup1\n      iszero\n      tag_1\n      jumpi\n      0x00\n      dup1\n      revert\n    tag_1:\n      pop\n      dataSize(sub_0)\n      dup1\n      dataOffset(sub_0)\n      0x00\n      codecopy\n      0x00\n      return\n    stop\n\n    sub_0: assembly {\n            /* \"XenFactory/XenActive.sol\":345:1046  contract XenActive{... */\n          mstore(0x40, 0x80)\n          callvalue\n          dup1\n          iszero\n          tag_1\n          jumpi\n          0x00\n          dup1\n          revert\n        tag_1:\n          pop\n          jumpi(tag_2, lt(calldatasize, 0x04))\n          shr(0xe0, calldataload(0x00))\n          dup1\n          0x0fcd5e0e\n          eq\n          tag_3\n          jumpi\n          dup1\n          0x62ab1a77\n          eq\n          tag_4\n          jumpi\n          dup1\n          0x8b4ef897\n          eq\n          tag_5\n          jumpi\n          dup1\n          0x8da5cb5b\n          eq\n          tag_6\n          jumpi\n        tag_2:\n          0x00\n          dup1\n          revert\n            /* \"XenFactory/XenActive.sol\":660:757  function claimxen() external{... */\n        tag_3:\n          tag_7\n          tag_8\n          jump\t// in\n        tag_7:\n          stop\n            /* \"XenFactory/XenActive.sol\":490:555  address public _addr = 0x2AB0e9e4eE70FFf1fB9D67031E44F6410170d00e */\n        tag_4:\n          tag_9\n          tag_10\n          jump\t// in\n        tag_9:\n          mload(0x40)\n          tag_11\n          swap2\n          swap1\n          tag_12\n          jump\t// in\n        tag_11:\n          mload(0x40)\n          dup1\n          swap2\n          sub\n          swap1\n          return\n            /* \"XenFactory/XenActive.sol\":805:1041  function rewardTransfer() external {... */\n        tag_5:\n          tag_13\n          tag_14\n          jump\t// in\n        tag_13:\n          stop\n            /* \"XenFactory/XenActive.sol\":393:457  address public owner= 0x6971b57a29764eD7af4A4a1ED7a512Dde9369Ef6 */\n        tag_6:\n          tag_15\n          tag_16\n          jump\t// in\n        tag_15:\n          mload(0x40)\n          tag_17\n          swap2\n          swap1\n          tag_12\n          jump\t// in\n        tag_17:\n          mload(0x40)\n          dup1\n          swap2\n          sub\n          swap1\n          return\n            /* \"XenFactory/XenActive.sol\":660:757  function claimxen() external{... */\n        tag_8:\n            /* \"XenFactory/XenActive.sol\":730:735  _addr */\n          0x01\n          0x00\n          swap1\n          sload\n          swap1\n          0x0100\n          exp\n          swap1\n          div\n          0xffffffffffffffffffffffffffffffffffffffff\n          and\n            /* \"XenFactory/XenActive.sol\":725:746  IXen(_addr).claimRank */\n          0xffffffffffffffffffffffffffffffffffffffff\n          and\n          0x9ff054df\n            /* \"XenFactory/XenActive.sol\":747:748  1 */\n          0x01\n            /* \"XenFactory/XenActive.sol\":725:749  IXen(_addr).claimRank(1) */\n          mload(0x40)\n          dup3\n          0xffffffff\n          and\n          0xe0\n          shl\n          dup2\n          mstore\n          0x04\n          add\n          tag_19\n          swap2\n          swap1\n          tag_20\n          jump\t// in\n        tag_19:\n          0x00\n          mload(0x40)\n          dup1\n          dup4\n          sub\n          dup2\n          0x00\n          dup8\n          dup1\n          extcodesize\n          iszero\n          dup1\n          iszero\n          tag_21\n          jumpi\n          0x00\n          dup1\n          revert\n        tag_21:\n          pop\n          gas\n          call\n          iszero\n          dup1\n          iszero\n          tag_23\n          jumpi\n          returndatasize\n          0x00\n          dup1\n          returndatacopy\n          revert(0x00, returndatasize)\n        tag_23:\n          pop\n          pop\n          pop\n          pop\n            /* \"XenFactory/XenActive.sol\":660:757  function claimxen() external{... */\n          jump\t// out\n            /* \"XenFactory/XenActive.sol\":490:555  address public _addr = 0x2AB0e9e4eE70FFf1fB9D67031E44F6410170d00e */\n        tag_10:\n          0x01\n          0x00\n          swap1\n          sload\n          swap1\n          0x0100\n          exp\n          swap1\n          div\n          0xffffffffffffffffffffffffffffffffffffffff\n          and\n          dup2\n          jump\t// out\n            /* \"XenFactory/XenActive.sol\":805:1041  function rewardTransfer() external {... */\n        tag_14:\n            /* \"XenFactory/XenActive.sol\":856:861  _addr */\n          0x01\n          0x00\n          swap1\n          sload\n          swap1\n          0x0100\n          exp\n          swap1\n          div\n          0xffffffffffffffffffffffffffffffffffffffff\n          and\n            /* \"XenFactory/XenActive.sol\":851:878  IXen(_addr).claimMintReward */\n          0xffffffffffffffffffffffffffffffffffffffff\n          and\n          0x52c7f8dc\n            /* \"XenFactory/XenActive.sol\":851:880  IXen(_addr).claimMintReward() */\n          mload(0x40)\n          dup2\n          0xffffffff\n          and\n          0xe0\n          shl\n          dup2\n          mstore\n          0x04\n          add\n          0x00\n          mload(0x40)\n          dup1\n          dup4\n          sub\n          dup2\n          0x00\n          dup8\n          dup1\n          extcodesize\n          iszero\n          dup1\n          iszero\n          tag_25\n          jumpi\n          0x00\n          dup1\n          revert\n        tag_25:\n          pop\n          gas\n          call\n          iszero\n          dup1\n          iszero\n          tag_27\n          jumpi\n          returndatasize\n          0x00\n          dup1\n          returndatacopy\n          revert(0x00, returndatasize)\n        tag_27:\n          pop\n          pop\n          pop\n          pop\n            /* \"XenFactory/XenActive.sol\":891:907  uint256 banlance */\n          0x00\n            /* \"XenFactory/XenActive.sol\":915:920  _addr */\n          0x01\n          0x00\n          swap1\n          sload\n          swap1\n          0x0100\n          exp\n          swap1\n          div\n          0xffffffffffffffffffffffffffffffffffffffff\n          and\n            /* \"XenFactory/XenActive.sol\":910:931  IXen(_addr).balanceOf */\n          0xffffffffffffffffffffffffffffffffffffffff\n          and\n          0x70a08231\n            /* \"XenFactory/XenActive.sol\":940:944  this */\n          address\n            /* \"XenFactory/XenActive.sol\":910:946  IXen(_addr).balanceOf(address(this)) */\n          mload(0x40)\n          dup3\n          0xffffffff\n          and\n          0xe0\n          shl\n          dup2\n          mstore\n          0x04\n          add\n          tag_28\n          swap2\n          swap1\n          tag_12\n          jump\t// in\n        tag_28:\n          0x20\n          mload(0x40)\n          dup1\n          dup4\n          sub\n          dup2\n          dup7\n          gas\n          staticcall\n          iszero\n          dup1\n          iszero\n          tag_30\n          jumpi\n          returndatasize\n          0x00\n          dup1\n          returndatacopy\n          revert(0x00, returndatasize)\n        tag_30:\n          pop\n          pop\n          pop\n          pop\n          mload(0x40)\n          returndatasize\n          not(0x1f)\n          0x1f\n          dup3\n          add\n          and\n          dup3\n          add\n          dup1\n          0x40\n          mstore\n          pop\n          dup2\n          add\n          swap1\n          tag_31\n          swap2\n          swap1\n          tag_32\n          jump\t// in\n        tag_31:\n            /* \"XenFactory/XenActive.sol\":891:946  uint256 banlance = IXen(_addr).balanceOf(address(this)) */\n          swap1\n          pop\n            /* \"XenFactory/XenActive.sol\":962:967  _addr */\n          0x01\n          0x00\n          swap1\n          sload\n          swap1\n          0x0100\n          exp\n          swap1\n          div\n          0xffffffffffffffffffffffffffffffffffffffff\n          and\n            /* \"XenFactory/XenActive.sol\":957:977  IXen(_addr).transfer */\n          0xffffffffffffffffffffffffffffffffffffffff\n          and\n          0xa9059cbb\n            /* \"XenFactory/XenActive.sol\":978:983  owner */\n          0x00\n          dup1\n          sload\n          swap1\n          0x0100\n          exp\n          swap1\n          div\n          0xffffffffffffffffffffffffffffffffffffffff\n          and\n            /* \"XenFactory/XenActive.sol\":985:993  banlance */\n          dup4\n            /* \"XenFactory/XenActive.sol\":957:994  IXen(_addr).transfer(owner, banlance) */\n          mload(0x40)\n          dup4\n          0xffffffff\n          and\n          0xe0\n          shl\n          dup2\n          mstore\n          0x04\n          add\n          tag_33\n          swap3\n          swap2\n          swap1\n          tag_34\n          jump\t// in\n        tag_33:\n          0x20\n          mload(0x40)\n          dup1\n          dup4\n          sub\n          dup2\n          0x00\n          dup8\n          gas\n          call\n          iszero\n          dup1\n          iszero\n          tag_36\n          jumpi\n          returndatasize\n          0x00\n          dup1\n          returndatacopy\n          revert(0x00, returndatasize)\n        tag_36:\n          pop\n          pop\n          pop\n          pop\n          mload(0x40)\n          returndatasize\n          not(0x1f)\n          0x1f\n          dup3\n          add\n          and\n          dup3\n          add\n          dup1\n          0x40\n          mstore\n          pop\n          dup2\n          add\n          swap1\n          tag_37\n          swap2\n          swap1\n          tag_38\n          jump\t// in\n        tag_37:\n          pop\n            /* \"XenFactory/XenActive.sol\":1026:1031  owner */\n          0x00\n          dup1\n          sload\n          swap1\n          0x0100\n          exp\n          swap1\n          div\n          0xffffffffffffffffffffffffffffffffffffffff\n          and\n            /* \"XenFactory/XenActive.sol\":1005:1033  selfdestruct(payable(owner)) */\n          0xffffffffffffffffffffffffffffffffffffffff\n          and\n          selfdestruct\n            /* \"XenFactory/XenActive.sol\":393:457  address public owner= 0x6971b57a29764eD7af4A4a1ED7a512Dde9369Ef6 */\n        tag_16:\n          0x00\n          dup1\n          sload\n          swap1\n          0x0100\n          exp\n          swap1\n          div\n          0xffffffffffffffffffffffffffffffffffffffff\n          and\n          dup2\n          jump\t// out\n            /* \"#utility.yul\":7:133   */\n        tag_39:\n            /* \"#utility.yul\":44:51   */\n          0x00\n            /* \"#utility.yul\":84:126   */\n          0xffffffffffffffffffffffffffffffffffffffff\n            /* \"#utility.yul\":77:82   */\n          dup3\n            /* \"#utility.yul\":73:127   */\n          and\n            /* \"#utility.yul\":62:127   */\n          swap1\n          pop\n            /* \"#utility.yul\":7:133   */\n          swap2\n          swap1\n          pop\n          jump\t// out\n            /* \"#utility.yul\":139:235   */\n        tag_40:\n            /* \"#utility.yul\":176:183   */\n          0x00\n            /* \"#utility.yul\":205:229   */\n          tag_59\n            /* \"#utility.yul\":223:228   */\n          dup3\n            /* \"#utility.yul\":205:229   */\n          tag_39\n          jump\t// in\n        tag_59:\n            /* \"#utility.yul\":194:229   */\n          swap1\n          pop\n            /* \"#utility.yul\":139:235   */\n          swap2\n          swap1\n          pop\n          jump\t// out\n            /* \"#utility.yul\":241:359   */\n        tag_41:\n            /* \"#utility.yul\":328:352   */\n          tag_61\n            /* \"#utility.yul\":346:351   */\n          dup2\n            /* \"#utility.yul\":328:352   */\n          tag_40\n          jump\t// in\n        tag_61:\n            /* \"#utility.yul\":323:326   */\n          dup3\n            /* \"#utility.yul\":316:353   */\n          mstore\n            /* \"#utility.yul\":241:359   */\n          pop\n          pop\n          jump\t// out\n            /* \"#utility.yul\":365:587   */\n        tag_12:\n            /* \"#utility.yul\":458:462   */\n          0x00\n            /* \"#utility.yul\":496:498   */\n          0x20\n            /* \"#utility.yul\":485:494   */\n          dup3\n            /* \"#utility.yul\":481:499   */\n          add\n            /* \"#utility.yul\":473:499   */\n          swap1\n          pop\n            /* \"#utility.yul\":509:580   */\n          tag_63\n            /* \"#utility.yul\":577:578   */\n          0x00\n            /* \"#utility.yul\":566:575   */\n          dup4\n            /* \"#utility.yul\":562:579   */\n          add\n            /* \"#utility.yul\":553:559   */\n          dup5\n            /* \"#utility.yul\":509:580   */\n          tag_41\n          jump\t// in\n        tag_63:\n            /* \"#utility.yul\":365:587   */\n          swap3\n          swap2\n          pop\n          pop\n          jump\t// out\n            /* \"#utility.yul\":593:678   */\n        tag_42:\n            /* \"#utility.yul\":638:645   */\n          0x00\n            /* \"#utility.yul\":667:672   */\n          dup2\n            /* \"#utility.yul\":656:672   */\n          swap1\n          pop\n            /* \"#utility.yul\":593:678   */\n          swap2\n          swap1\n          pop\n          jump\t// out\n            /* \"#utility.yul\":684:761   */\n        tag_43:\n            /* \"#utility.yul\":721:728   */\n          0x00\n            /* \"#utility.yul\":750:755   */\n          dup2\n            /* \"#utility.yul\":739:755   */\n          swap1\n          pop\n            /* \"#utility.yul\":684:761   */\n          swap2\n          swap1\n          pop\n          jump\t// out\n            /* \"#utility.yul\":767:827   */\n        tag_44:\n            /* \"#utility.yul\":795:798   */\n          0x00\n            /* \"#utility.yul\":816:821   */\n          dup2\n            /* \"#utility.yul\":809:821   */\n          swap1\n          pop\n            /* \"#utility.yul\":767:827   */\n          swap2\n          swap1\n          pop\n          jump\t// out\n            /* \"#utility.yul\":833:991   */\n        tag_45:\n            /* \"#utility.yul\":891:900   */\n          0x00\n            /* \"#utility.yul\":924:985   */\n          tag_68\n            /* \"#utility.yul\":942:984   */\n          tag_69\n            /* \"#utility.yul\":951:983   */\n          tag_70\n            /* \"#utility.yul\":977:982   */\n          dup5\n            /* \"#utility.yul\":951:983   */\n          tag_42\n          jump\t// in\n        tag_70:\n            /* \"#utility.yul\":942:984   */\n          tag_44\n          jump\t// in\n        tag_69:\n            /* \"#utility.yul\":924:985   */\n          tag_43\n          jump\t// in\n        tag_68:\n            /* \"#utility.yul\":911:985   */\n          swap1\n          pop\n            /* \"#utility.yul\":833:991   */\n          swap2\n          swap1\n          pop\n          jump\t// out\n            /* \"#utility.yul\":997:1144   */\n        tag_46:\n            /* \"#utility.yul\":1092:1137   */\n          tag_72\n            /* \"#utility.yul\":1131:1136   */\n          dup2\n            /* \"#utility.yul\":1092:1137   */\n          tag_45\n          jump\t// in\n        tag_72:\n            /* \"#utility.yul\":1087:1090   */\n          dup3\n            /* \"#utility.yul\":1080:1138   */\n          mstore\n            /* \"#utility.yul\":997:1144   */\n          pop\n          pop\n          jump\t// out\n            /* \"#utility.yul\":1150:1388   */\n        tag_20:\n            /* \"#utility.yul\":1251:1255   */\n          0x00\n            /* \"#utility.yul\":1289:1291   */\n          0x20\n            /* \"#utility.yul\":1278:1287   */\n          dup3\n            /* \"#utility.yul\":1274:1292   */\n          add\n            /* \"#utility.yul\":1266:1292   */\n          swap1\n          pop\n            /* \"#utility.yul\":1302:1381   */\n          tag_74\n            /* \"#utility.yul\":1378:1379   */\n          0x00\n            /* \"#utility.yul\":1367:1376   */\n          dup4\n            /* \"#utility.yul\":1363:1380   */\n          add\n            /* \"#utility.yul\":1354:1360   */\n          dup5\n            /* \"#utility.yul\":1302:1381   */\n          tag_46\n          jump\t// in\n        tag_74:\n            /* \"#utility.yul\":1150:1388   */\n          swap3\n          swap2\n          pop\n          pop\n          jump\t// out\n            /* \"#utility.yul\":1475:1592   */\n        tag_48:\n            /* \"#utility.yul\":1584:1585   */\n          0x00\n            /* \"#utility.yul\":1581:1582   */\n          dup1\n            /* \"#utility.yul\":1574:1586   */\n          revert\n            /* \"#utility.yul\":1721:1843   */\n        tag_50:\n            /* \"#utility.yul\":1794:1818   */\n          tag_79\n            /* \"#utility.yul\":1812:1817   */\n          dup2\n            /* \"#utility.yul\":1794:1818   */\n          tag_43\n          jump\t// in\n        tag_79:\n            /* \"#utility.yul\":1787:1792   */\n          dup2\n            /* \"#utility.yul\":1784:1819   */\n          eq\n            /* \"#utility.yul\":1774:1837   */\n          tag_80\n          jumpi\n            /* \"#utility.yul\":1833:1834   */\n          0x00\n            /* \"#utility.yul\":1830:1831   */\n          dup1\n            /* \"#utility.yul\":1823:1835   */\n          revert\n            /* \"#utility.yul\":1774:1837   */\n        tag_80:\n            /* \"#utility.yul\":1721:1843   */\n          pop\n          jump\t// out\n            /* \"#utility.yul\":1849:1992   */\n        tag_51:\n            /* \"#utility.yul\":1906:1911   */\n          0x00\n            /* \"#utility.yul\":1937:1943   */\n          dup2\n            /* \"#utility.yul\":1931:1944   */\n          mload\n            /* \"#utility.yul\":1922:1944   */\n          swap1\n          pop\n            /* \"#utility.yul\":1953:1986   */\n          tag_82\n            /* \"#utility.yul\":1980:1985   */\n          dup2\n            /* \"#utility.yul\":1953:1986   */\n          tag_50\n          jump\t// in\n        tag_82:\n            /* \"#utility.yul\":1849:1992   */\n          swap3\n          swap2\n          pop\n          pop\n          jump\t// out\n            /* \"#utility.yul\":1998:2349   */\n        tag_32:\n            /* \"#utility.yul\":2068:2074   */\n          0x00\n            /* \"#utility.yul\":2117:2119   */\n          0x20\n            /* \"#utility.yul\":2105:2114   */\n          dup3\n            /* \"#utility.yul\":2096:2103   */\n          dup5\n            /* \"#utility.yul\":2092:2115   */\n          sub\n            /* \"#utility.yul\":2088:2120   */\n          slt\n            /* \"#utility.yul\":2085:2204   */\n          iszero\n          tag_84\n          jumpi\n            /* \"#utility.yul\":2123:2202   */\n          tag_85\n          tag_48\n          jump\t// in\n        tag_85:\n            /* \"#utility.yul\":2085:2204   */\n        tag_84:\n            /* \"#utility.yul\":2243:2244   */\n          0x00\n            /* \"#utility.yul\":2268:2332   */\n          tag_86\n            /* \"#utility.yul\":2324:2331   */\n          dup5\n            /* \"#utility.yul\":2315:2321   */\n          dup3\n            /* \"#utility.yul\":2304:2313   */\n          dup6\n            /* \"#utility.yul\":2300:2322   */\n          add\n            /* \"#utility.yul\":2268:2332   */\n          tag_51\n          jump\t// in\n        tag_86:\n            /* \"#utility.yul\":2258:2332   */\n          swap2\n          pop\n            /* \"#utility.yul\":2214:2342   */\n          pop\n            /* \"#utility.yul\":1998:2349   */\n          swap3\n          swap2\n          pop\n          pop\n          jump\t// out\n            /* \"#utility.yul\":2355:2473   */\n        tag_52:\n            /* \"#utility.yul\":2442:2466   */\n          tag_88\n            /* \"#utility.yul\":2460:2465   */\n          dup2\n            /* \"#utility.yul\":2442:2466   */\n          tag_43\n          jump\t// in\n        tag_88:\n            /* \"#utility.yul\":2437:2440   */\n          dup3\n            /* \"#utility.yul\":2430:2467   */\n          mstore\n            /* \"#utility.yul\":2355:2473   */\n          pop\n          pop\n          jump\t// out\n            /* \"#utility.yul\":2479:2811   */\n        tag_34:\n            /* \"#utility.yul\":2600:2604   */\n          0x00\n            /* \"#utility.yul\":2638:2640   */\n          0x40\n            /* \"#utility.yul\":2627:2636   */\n          dup3\n            /* \"#utility.yul\":2623:2641   */\n          add\n            /* \"#utility.yul\":2615:2641   */\n          swap1\n          pop\n            /* \"#utility.yul\":2651:2722   */\n          tag_90\n            /* \"#utility.yul\":2719:2720   */\n          0x00\n            /* \"#utility.yul\":2708:2717   */\n          dup4\n            /* \"#utility.yul\":2704:2721   */\n          add\n            /* \"#utility.yul\":2695:2701   */\n          dup6\n            /* \"#utility.yul\":2651:2722   */\n          tag_41\n          jump\t// in\n        tag_90:\n            /* \"#utility.yul\":2732:2804   */\n          tag_91\n            /* \"#utility.yul\":2800:2802   */\n          0x20\n            /* \"#utility.yul\":2789:2798   */\n          dup4\n            /* \"#utility.yul\":2785:2803   */\n          add\n            /* \"#utility.yul\":2776:2782   */\n          dup5\n            /* \"#utility.yul\":2732:2804   */\n          tag_52\n          jump\t// in\n        tag_91:\n            /* \"#utility.yul\":2479:2811   */\n          swap4\n          swap3\n          pop\n          pop\n          pop\n          jump\t// out\n            /* \"#utility.yul\":2817:2907   */\n        tag_53:\n            /* \"#utility.yul\":2851:2858   */\n          0x00\n            /* \"#utility.yul\":2894:2899   */\n          dup2\n            /* \"#utility.yul\":2887:2900   */\n          iszero\n            /* \"#utility.yul\":2880:2901   */\n          iszero\n            /* \"#utility.yul\":2869:2901   */\n          swap1\n          pop\n            /* \"#utility.yul\":2817:2907   */\n          swap2\n          swap1\n          pop\n          jump\t// out\n            /* \"#utility.yul\":2913:3029   */\n        tag_54:\n            /* \"#utility.yul\":2983:3004   */\n          tag_94\n            /* \"#utility.yul\":2998:3003   */\n          dup2\n            /* \"#utility.yul\":2983:3004   */\n          tag_53\n          jump\t// in\n        tag_94:\n            /* \"#utility.yul\":2976:2981   */\n          dup2\n            /* \"#utility.yul\":2973:3005   */\n          eq\n            /* \"#utility.yul\":2963:3023   */\n          tag_95\n          jumpi\n            /* \"#utility.yul\":3019:3020   */\n          0x00\n            /* \"#utility.yul\":3016:3017   */\n          dup1\n            /* \"#utility.yul\":3009:3021   */\n          revert\n            /* \"#utility.yul\":2963:3023   */\n        tag_95:\n            /* \"#utility.yul\":2913:3029   */\n          pop\n          jump\t// out\n            /* \"#utility.yul\":3035:3172   */\n        tag_55:\n            /* \"#utility.yul\":3089:3094   */\n          0x00\n            /* \"#utility.yul\":3120:3126   */\n          dup2\n            /* \"#utility.yul\":3114:3127   */\n          mload\n            /* \"#utility.yul\":3105:3127   */\n          swap1\n          pop\n            /* \"#utility.yul\":3136:3166   */\n          tag_97\n            /* \"#utility.yul\":3160:3165   */\n          dup2\n            /* \"#utility.yul\":3136:3166   */\n          tag_54\n          jump\t// in\n        tag_97:\n            /* \"#utility.yul\":3035:3172   */\n          swap3\n          swap2\n          pop\n          pop\n          jump\t// out\n            /* \"#utility.yul\":3178:3523   */\n        tag_38:\n            /* \"#utility.yul\":3245:3251   */\n          0x00\n            /* \"#utility.yul\":3294:3296   */\n          0x20\n            /* \"#utility.yul\":3282:3291   */\n          dup3\n            /* \"#utility.yul\":3273:3280   */\n          dup5\n            /* \"#utility.yul\":3269:3292   */\n          sub\n            /* \"#utility.yul\":3265:3297   */\n          slt\n            /* \"#utility.yul\":3262:3381   */\n          iszero\n          tag_99\n          jumpi\n            /* \"#utility.yul\":3300:3379   */\n          tag_100\n          tag_48\n          jump\t// in\n        tag_100:\n            /* \"#utility.yul\":3262:3381   */\n        tag_99:\n            /* \"#utility.yul\":3420:3421   */\n          0x00\n            /* \"#utility.yul\":3445:3506   */\n          tag_101\n            /* \"#utility.yul\":3498:3505   */\n          dup5\n            /* \"#utility.yul\":3489:3495   */\n          dup3\n            /* \"#utility.yul\":3478:3487   */\n          dup6\n            /* \"#utility.yul\":3474:3496   */\n          add\n            /* \"#utility.yul\":3445:3506   */\n          tag_55\n          jump\t// in\n        tag_101:\n            /* \"#utility.yul\":3435:3506   */\n          swap2\n          pop\n            /* \"#utility.yul\":3391:3516   */\n          pop\n            /* \"#utility.yul\":3178:3523   */\n          swap3\n          swap2\n          pop\n          pop\n          jump\t// out\n\n        auxdata: 0xa264697066735822122086831b79a7ba6936bc928ca4d80c75ca49b084cb0945637d50c09711f64837e164736f6c63430008110033\n    }\n}\n",
				"bytecode": {
					"linkReferences": {},
					"object": "6080604052600160005534801561001557600080fd5b5060006001905060148110156100d35760008160001b604051610037906100d9565b8190604051809103906000f5905080158015610057573d6000803e3d6000fd5b5090508073ffffffffffffffffffffffffffffffffffffffff1663ce6778006040518163ffffffff1660e01b8152600401600060405180830381600087803b1580156100a257600080fd5b505af11580156100b6573d6000803e3d6000fd5b505050503373ffffffffffffffffffffffffffffffffffffffff16ff5b506100e6565b6106578061047883390190565b610383806100f56000396000f3fe608060405234801561001057600080fd5b50600436106100415760003560e01c80632986c0e51461004657806386050680146100645780638684592114610094575b600080fd5b61004e6100b0565b60405161005b91906101c1565b60405180910390f35b61007e6004803603810190610079919061020d565b6100b6565b60405161008b919061027b565b60405180910390f35b6100ae60048036038101906100a99190610296565b6100e9565b005b60005481565b60016020528060005260406000206000915054906101000a900473ffffffffffffffffffffffffffffffffffffffff1681565b60008290505b818110156101a35760006001600083815260200190815260200160002060009054906101000a900473ffffffffffffffffffffffffffffffffffffffff1690508073ffffffffffffffffffffffffffffffffffffffff16638b4ef8976040518163ffffffff1660e01b8152600401600060405180830381600087803b15801561017757600080fd5b505af115801561018b573d6000803e3d6000fd5b5050505050808061019b90610305565b9150506100ef565b505050565b6000819050919050565b6101bb816101a8565b82525050565b60006020820190506101d660008301846101b2565b92915050565b600080fd5b6101ea816101a8565b81146101f557600080fd5b50565b600081359050610207816101e1565b92915050565b600060208284031215610223576102226101dc565b5b6000610231848285016101f8565b91505092915050565b600073ffffffffffffffffffffffffffffffffffffffff82169050919050565b60006102658261023a565b9050919050565b6102758161025a565b82525050565b6000602082019050610290600083018461026c565b92915050565b600080604083850312156102ad576102ac6101dc565b5b60006102bb858286016101f8565b92505060206102cc858286016101f8565b9150509250929050565b7f4e487b7100000000000000000000000000000000000000000000000000000000600052601160045260246000fd5b6000610310826101a8565b91507fffffffffffffffffffffffffffffffffffffffffffffffffffffffffffffffff8203610342576103416102d6565b5b60018201905091905056fea2646970667358221220427db8af23db2af5f8452bba8f033a0dbb45c6751f569c9314d28669356559f364736f6c634300081100336080604052736971b57a29764ed7af4a4a1ed7a512dde9369ef66000806101000a81548173ffffffffffffffffffffffffffffffffffffffff021916908373ffffffffffffffffffffffffffffffffffffffff160217905550732ab0e9e4ee70fff1fb9d67031e44f6410170d00e600160006101000a81548173ffffffffffffffffffffffffffffffffffffffff021916908373ffffffffffffffffffffffffffffffffffffffff1602179055503480156100b957600080fd5b5061058e806100c96000396000f3fe608060405234801561001057600080fd5b506004361061004c5760003560e01c80630fcd5e0e1461005157806362ab1a771461005b5780638b4ef897146100795780638da5cb5b14610083575b600080fd5b6100596100a1565b005b610063610131565b60405161007091906103d8565b60405180910390f35b610081610157565b005b61008b610373565b60405161009891906103d8565b60405180910390f35b600160009054906101000a900473ffffffffffffffffffffffffffffffffffffffff1673ffffffffffffffffffffffffffffffffffffffff16639ff054df60016040518263ffffffff1660e01b81526004016100fd9190610442565b600060405180830381600087803b15801561011757600080fd5b505af115801561012b573d6000803e3d6000fd5b50505050565b600160009054906101000a900473ffffffffffffffffffffffffffffffffffffffff1681565b600160009054906101000a900473ffffffffffffffffffffffffffffffffffffffff1673ffffffffffffffffffffffffffffffffffffffff166352c7f8dc6040518163ffffffff1660e01b8152600401600060405180830381600087803b1580156101c157600080fd5b505af11580156101d5573d6000803e3d6000fd5b505050506000600160009054906101000a900473ffffffffffffffffffffffffffffffffffffffff1673ffffffffffffffffffffffffffffffffffffffff166370a08231306040518263ffffffff1660e01b815260040161023691906103d8565b602060405180830381865afa158015610253573d6000803e3d6000fd5b505050506040513d601f19601f82011682018060405250810190610277919061048e565b9050600160009054906101000a900473ffffffffffffffffffffffffffffffffffffffff1673ffffffffffffffffffffffffffffffffffffffff1663a9059cbb60008054906101000a900473ffffffffffffffffffffffffffffffffffffffff16836040518363ffffffff1660e01b81526004016102f69291906104ca565b6020604051808303816000875af1158015610315573d6000803e3d6000fd5b505050506040513d601f19601f82011682018060405250810190610339919061052b565b5060008054906101000a900473ffffffffffffffffffffffffffffffffffffffff1673ffffffffffffffffffffffffffffffffffffffff16ff5b60008054906101000a900473ffffffffffffffffffffffffffffffffffffffff1681565b600073ffffffffffffffffffffffffffffffffffffffff82169050919050565b60006103c282610397565b9050919050565b6103d2816103b7565b82525050565b60006020820190506103ed60008301846103c9565b92915050565b6000819050919050565b6000819050919050565b6000819050919050565b600061042c610427610422846103f3565b610407565b6103fd565b9050919050565b61043c81610411565b82525050565b60006020820190506104576000830184610433565b92915050565b600080fd5b61046b816103fd565b811461047657600080fd5b50565b60008151905061048881610462565b92915050565b6000602082840312156104a4576104a361045d565b5b60006104b284828501610479565b91505092915050565b6104c4816103fd565b82525050565b60006040820190506104df60008301856103c9565b6104ec60208301846104bb565b9392505050565b60008115159050919050565b610508816104f3565b811461051357600080fd5b50565b600081519050610525816104ff565b92915050565b6000602082840312156105415761054061045d565b5b600061054f84828501610516565b9150509291505056fea264697066735822122086831b79a7ba6936bc928ca4d80c75ca49b084cb0945637d50c09711f64837e164736f6c63430008110033",
					"opcodes": "PUSH1 0x80 PUSH1 0x40 MSTORE PUSH1 0x1 PUSH1 0x0 SSTORE CALLVALUE DUP1 ISZERO PUSH2 0x15 JUMPI PUSH1 0x0 DUP1 REVERT JUMPDEST POP PUSH1 0x0 PUSH1 0x1 SWAP1 POP PUSH1 0x14 DUP2 LT ISZERO PUSH2 0xD3 JUMPI PUSH1 0x0 DUP2 PUSH1 0x0 SHL PUSH1 0x40 MLOAD PUSH2 0x37 SWAP1 PUSH2 0xD9 JUMP JUMPDEST DUP2 SWAP1 PUSH1 0x40 MLOAD DUP1 SWAP2 SUB SWAP1 PUSH1 0x0 CREATE2 SWAP1 POP DUP1 ISZERO DUP1 ISZERO PUSH2 0x57 JUMPI RETURNDATASIZE PUSH1 0x0 DUP1 RETURNDATACOPY RETURNDATASIZE PUSH1 0x0 REVERT JUMPDEST POP SWAP1 POP DUP1 PUSH20 0xFFFFFFFFFFFFFFFFFFFFFFFFFFFFFFFFFFFFFFFF AND PUSH4 0xCE677800 PUSH1 0x40 MLOAD DUP2 PUSH4 0xFFFFFFFF AND PUSH1 0xE0 SHL DUP2 MSTORE PUSH1 0x4 ADD PUSH1 0x0 PUSH1 0x40 MLOAD DUP1 DUP4 SUB DUP2 PUSH1 0x0 DUP8 DUP1 EXTCODESIZE ISZERO DUP1 ISZERO PUSH2 0xA2 JUMPI PUSH1 0x0 DUP1 REVERT JUMPDEST POP GAS CALL ISZERO DUP1 ISZERO PUSH2 0xB6 JUMPI RETURNDATASIZE PUSH1 0x0 DUP1 RETURNDATACOPY RETURNDATASIZE PUSH1 0x0 REVERT JUMPDEST POP POP POP POP CALLER PUSH20 0xFFFFFFFFFFFFFFFFFFFFFFFFFFFFFFFFFFFFFFFF AND SELFDESTRUCT JUMPDEST POP PUSH2 0xE6 JUMP JUMPDEST PUSH2 0x657 DUP1 PUSH2 0x478 DUP4 CODECOPY ADD SWAP1 JUMP JUMPDEST PUSH2 0x383 DUP1 PUSH2 0xF5 PUSH1 0x0 CODECOPY PUSH1 0x0 RETURN INVALID PUSH1 0x80 PUSH1 0x40 MSTORE CALLVALUE DUP1 ISZERO PUSH2 0x10 JUMPI PUSH1 0x0 DUP1 REVERT JUMPDEST POP PUSH1 0x4 CALLDATASIZE LT PUSH2 0x41 JUMPI PUSH1 0x0 CALLDATALOAD PUSH1 0xE0 SHR DUP1 PUSH4 0x2986C0E5 EQ PUSH2 0x46 JUMPI DUP1 PUSH4 0x86050680 EQ PUSH2 0x64 JUMPI DUP1 PUSH4 0x86845921 EQ PUSH2 0x94 JUMPI JUMPDEST PUSH1 0x0 DUP1 REVERT JUMPDEST PUSH2 0x4E PUSH2 0xB0 JUMP JUMPDEST PUSH1 0x40 MLOAD PUSH2 0x5B SWAP2 SWAP1 PUSH2 0x1C1 JUMP JUMPDEST PUSH1 0x40 MLOAD DUP1 SWAP2 SUB SWAP1 RETURN JUMPDEST PUSH2 0x7E PUSH1 0x4 DUP1 CALLDATASIZE SUB DUP2 ADD SWAP1 PUSH2 0x79 SWAP2 SWAP1 PUSH2 0x20D JUMP JUMPDEST PUSH2 0xB6 JUMP JUMPDEST PUSH1 0x40 MLOAD PUSH2 0x8B SWAP2 SWAP1 PUSH2 0x27B JUMP JUMPDEST PUSH1 0x40 MLOAD DUP1 SWAP2 SUB SWAP1 RETURN JUMPDEST PUSH2 0xAE PUSH1 0x4 DUP1 CALLDATASIZE SUB DUP2 ADD SWAP1 PUSH2 0xA9 SWAP2 SWAP1 PUSH2 0x296 JUMP JUMPDEST PUSH2 0xE9 JUMP JUMPDEST STOP JUMPDEST PUSH1 0x0 SLOAD DUP2 JUMP JUMPDEST PUSH1 0x1 PUSH1 0x20 MSTORE DUP1 PUSH1 0x0 MSTORE PUSH1 0x40 PUSH1 0x0 KECCAK256 PUSH1 0x0 SWAP2 POP SLOAD SWAP1 PUSH2 0x100 EXP SWAP1 DIV PUSH20 0xFFFFFFFFFFFFFFFFFFFFFFFFFFFFFFFFFFFFFFFF AND DUP2 JUMP JUMPDEST PUSH1 0x0 DUP3 SWAP1 POP JUMPDEST DUP2 DUP2 LT ISZERO PUSH2 0x1A3 JUMPI PUSH1 0x0 PUSH1 0x1 PUSH1 0x0 DUP4 DUP2 MSTORE PUSH1 0x20 ADD SWAP1 DUP2 MSTORE PUSH1 0x20 ADD PUSH1 0x0 KECCAK256 PUSH1 0x0 SWAP1 SLOAD SWAP1 PUSH2 0x100 EXP SWAP1 DIV PUSH20 0xFFFFFFFFFFFFFFFFFFFFFFFFFFFFFFFFFFFFFFFF AND SWAP1 POP DUP1 PUSH20 0xFFFFFFFFFFFFFFFFFFFFFFFFFFFFFFFFFFFFFFFF AND PUSH4 0x8B4EF897 PUSH1 0x40 MLOAD DUP2 PUSH4 0xFFFFFFFF AND PUSH1 0xE0 SHL DUP2 MSTORE PUSH1 0x4 ADD PUSH1 0x0 PUSH1 0x40 MLOAD DUP1 DUP4 SUB DUP2 PUSH1 0x0 DUP8 DUP1 EXTCODESIZE ISZERO DUP1 ISZERO PUSH2 0x177 JUMPI PUSH1 0x0 DUP1 REVERT JUMPDEST POP GAS CALL ISZERO DUP1 ISZERO PUSH2 0x18B JUMPI RETURNDATASIZE PUSH1 0x0 DUP1 RETURNDATACOPY RETURNDATASIZE PUSH1 0x0 REVERT JUMPDEST POP POP POP POP POP DUP1 DUP1 PUSH2 0x19B SWAP1 PUSH2 0x305 JUMP JUMPDEST SWAP2 POP POP PUSH2 0xEF JUMP JUMPDEST POP POP POP JUMP JUMPDEST PUSH1 0x0 DUP2 SWAP1 POP SWAP2 SWAP1 POP JUMP JUMPDEST PUSH2 0x1BB DUP2 PUSH2 0x1A8 JUMP JUMPDEST DUP3 MSTORE POP POP JUMP JUMPDEST PUSH1 0x0 PUSH1 0x20 DUP3 ADD SWAP1 POP PUSH2 0x1D6 PUSH1 0x0 DUP4 ADD DUP5 PUSH2 0x1B2 JUMP JUMPDEST SWAP3 SWAP2 POP POP JUMP JUMPDEST PUSH1 0x0 DUP1 REVERT JUMPDEST PUSH2 0x1EA DUP2 PUSH2 0x1A8 JUMP JUMPDEST DUP2 EQ PUSH2 0x1F5 JUMPI PUSH1 0x0 DUP1 REVERT JUMPDEST POP JUMP JUMPDEST PUSH1 0x0 DUP2 CALLDATALOAD SWAP1 POP PUSH2 0x207 DUP2 PUSH2 0x1E1 JUMP JUMPDEST SWAP3 SWAP2 POP POP JUMP JUMPDEST PUSH1 0x0 PUSH1 0x20 DUP3 DUP5 SUB SLT ISZERO PUSH2 0x223 JUMPI PUSH2 0x222 PUSH2 0x1DC JUMP JUMPDEST JUMPDEST PUSH1 0x0 PUSH2 0x231 DUP5 DUP3 DUP6 ADD PUSH2 0x1F8 JUMP JUMPDEST SWAP2 POP POP SWAP3 SWAP2 POP POP JUMP JUMPDEST PUSH1 0x0 PUSH20 0xFFFFFFFFFFFFFFFFFFFFFFFFFFFFFFFFFFFFFFFF DUP3 AND SWAP1 POP SWAP2 SWAP1 POP JUMP JUMPDEST PUSH1 0x0 PUSH2 0x265 DUP3 PUSH2 0x23A JUMP JUMPDEST SWAP1 POP SWAP2 SWAP1 POP JUMP JUMPDEST PUSH2 0x275 DUP2 PUSH2 0x25A JUMP JUMPDEST DUP3 MSTORE POP POP JUMP JUMPDEST PUSH1 0x0 PUSH1 0x20 DUP3 ADD SWAP1 POP PUSH2 0x290 PUSH1 0x0 DUP4 ADD DUP5 PUSH2 0x26C JUMP JUMPDEST SWAP3 SWAP2 POP POP JUMP JUMPDEST PUSH1 0x0 DUP1 PUSH1 0x40 DUP4 DUP6 SUB SLT ISZERO PUSH2 0x2AD JUMPI PUSH2 0x2AC PUSH2 0x1DC JUMP JUMPDEST JUMPDEST PUSH1 0x0 PUSH2 0x2BB DUP6 DUP3 DUP7 ADD PUSH2 0x1F8 JUMP JUMPDEST SWAP3 POP POP PUSH1 0x20 PUSH2 0x2CC DUP6 DUP3 DUP7 ADD PUSH2 0x1F8 JUMP JUMPDEST SWAP2 POP POP SWAP3 POP SWAP3 SWAP1 POP JUMP JUMPDEST PUSH32 0x4E487B7100000000000000000000000000000000000000000000000000000000 PUSH1 0x0 MSTORE PUSH1 0x11 PUSH1 0x4 MSTORE PUSH1 0x24 PUSH1 0x0 REVERT JUMPDEST PUSH1 0x0 PUSH2 0x310 DUP3 PUSH2 0x1A8 JUMP JUMPDEST SWAP2 POP PUSH32 0xFFFFFFFFFFFFFFFFFFFFFFFFFFFFFFFFFFFFFFFFFFFFFFFFFFFFFFFFFFFFFFFF DUP3 SUB PUSH2 0x342 JUMPI PUSH2 0x341 PUSH2 0x2D6 JUMP JUMPDEST JUMPDEST PUSH1 0x1 DUP3 ADD SWAP1 POP SWAP2 SWAP1 POP JUMP INVALID LOG2 PUSH5 0x6970667358 0x22 SLT KECCAK256 TIMESTAMP PUSH30 0xB8AF23DB2AF5F8452BBA8F033A0DBB45C6751F569C9314D28669356559F3 PUSH5 0x736F6C6343 STOP ADDMOD GT STOP CALLER PUSH1 0x80 PUSH1 0x40 MSTORE PUSH20 0x6971B57A29764ED7AF4A4A1ED7A512DDE9369EF6 PUSH1 0x0 DUP1 PUSH2 0x100 EXP DUP2 SLOAD DUP2 PUSH20 0xFFFFFFFFFFFFFFFFFFFFFFFFFFFFFFFFFFFFFFFF MUL NOT AND SWAP1 DUP4 PUSH20 0xFFFFFFFFFFFFFFFFFFFFFFFFFFFFFFFFFFFFFFFF AND MUL OR SWAP1 SSTORE POP PUSH20 0x2AB0E9E4EE70FFF1FB9D67031E44F6410170D00E PUSH1 0x1 PUSH1 0x0 PUSH2 0x100 EXP DUP2 SLOAD DUP2 PUSH20 0xFFFFFFFFFFFFFFFFFFFFFFFFFFFFFFFFFFFFFFFF MUL NOT AND SWAP1 DUP4 PUSH20 0xFFFFFFFFFFFFFFFFFFFFFFFFFFFFFFFFFFFFFFFF AND MUL OR SWAP1 SSTORE POP CALLVALUE DUP1 ISZERO PUSH2 0xB9 JUMPI PUSH1 0x0 DUP1 REVERT JUMPDEST POP PUSH2 0x58E DUP1 PUSH2 0xC9 PUSH1 0x0 CODECOPY PUSH1 0x0 RETURN INVALID PUSH1 0x80 PUSH1 0x40 MSTORE CALLVALUE DUP1 ISZERO PUSH2 0x10 JUMPI PUSH1 0x0 DUP1 REVERT JUMPDEST POP PUSH1 0x4 CALLDATASIZE LT PUSH2 0x4C JUMPI PUSH1 0x0 CALLDATALOAD PUSH1 0xE0 SHR DUP1 PUSH4 0xFCD5E0E EQ PUSH2 0x51 JUMPI DUP1 PUSH4 0x62AB1A77 EQ PUSH2 0x5B JUMPI DUP1 PUSH4 0x8B4EF897 EQ PUSH2 0x79 JUMPI DUP1 PUSH4 0x8DA5CB5B EQ PUSH2 0x83 JUMPI JUMPDEST PUSH1 0x0 DUP1 REVERT JUMPDEST PUSH2 0x59 PUSH2 0xA1 JUMP JUMPDEST STOP JUMPDEST PUSH2 0x63 PUSH2 0x131 JUMP JUMPDEST PUSH1 0x40 MLOAD PUSH2 0x70 SWAP2 SWAP1 PUSH2 0x3D8 JUMP JUMPDEST PUSH1 0x40 MLOAD DUP1 SWAP2 SUB SWAP1 RETURN JUMPDEST PUSH2 0x81 PUSH2 0x157 JUMP JUMPDEST STOP JUMPDEST PUSH2 0x8B PUSH2 0x373 JUMP JUMPDEST PUSH1 0x40 MLOAD PUSH2 0x98 SWAP2 SWAP1 PUSH2 0x3D8 JUMP JUMPDEST PUSH1 0x40 MLOAD DUP1 SWAP2 SUB SWAP1 RETURN JUMPDEST PUSH1 0x1 PUSH1 0x0 SWAP1 SLOAD SWAP1 PUSH2 0x100 EXP SWAP1 DIV PUSH20 0xFFFFFFFFFFFFFFFFFFFFFFFFFFFFFFFFFFFFFFFF AND PUSH20 0xFFFFFFFFFFFFFFFFFFFFFFFFFFFFFFFFFFFFFFFF AND PUSH4 0x9FF054DF PUSH1 0x1 PUSH1 0x40 MLOAD DUP3 PUSH4 0xFFFFFFFF AND PUSH1 0xE0 SHL DUP2 MSTORE PUSH1 0x4 ADD PUSH2 0xFD SWAP2 SWAP1 PUSH2 0x442 JUMP JUMPDEST PUSH1 0x0 PUSH1 0x40 MLOAD DUP1 DUP4 SUB DUP2 PUSH1 0x0 DUP8 DUP1 EXTCODESIZE ISZERO DUP1 ISZERO PUSH2 0x117 JUMPI PUSH1 0x0 DUP1 REVERT JUMPDEST POP GAS CALL ISZERO DUP1 ISZERO PUSH2 0x12B JUMPI RETURNDATASIZE PUSH1 0x0 DUP1 RETURNDATACOPY RETURNDATASIZE PUSH1 0x0 REVERT JUMPDEST POP POP POP POP JUMP JUMPDEST PUSH1 0x1 PUSH1 0x0 SWAP1 SLOAD SWAP1 PUSH2 0x100 EXP SWAP1 DIV PUSH20 0xFFFFFFFFFFFFFFFFFFFFFFFFFFFFFFFFFFFFFFFF AND DUP2 JUMP JUMPDEST PUSH1 0x1 PUSH1 0x0 SWAP1 SLOAD SWAP1 PUSH2 0x100 EXP SWAP1 DIV PUSH20 0xFFFFFFFFFFFFFFFFFFFFFFFFFFFFFFFFFFFFFFFF AND PUSH20 0xFFFFFFFFFFFFFFFFFFFFFFFFFFFFFFFFFFFFFFFF AND PUSH4 0x52C7F8DC PUSH1 0x40 MLOAD DUP2 PUSH4 0xFFFFFFFF AND PUSH1 0xE0 SHL DUP2 MSTORE PUSH1 0x4 ADD PUSH1 0x0 PUSH1 0x40 MLOAD DUP1 DUP4 SUB DUP2 PUSH1 0x0 DUP8 DUP1 EXTCODESIZE ISZERO DUP1 ISZERO PUSH2 0x1C1 JUMPI PUSH1 0x0 DUP1 REVERT JUMPDEST POP GAS CALL ISZERO DUP1 ISZERO PUSH2 0x1D5 JUMPI RETURNDATASIZE PUSH1 0x0 DUP1 RETURNDATACOPY RETURNDATASIZE PUSH1 0x0 REVERT JUMPDEST POP POP POP POP PUSH1 0x0 PUSH1 0x1 PUSH1 0x0 SWAP1 SLOAD SWAP1 PUSH2 0x100 EXP SWAP1 DIV PUSH20 0xFFFFFFFFFFFFFFFFFFFFFFFFFFFFFFFFFFFFFFFF AND PUSH20 0xFFFFFFFFFFFFFFFFFFFFFFFFFFFFFFFFFFFFFFFF AND PUSH4 0x70A08231 ADDRESS PUSH1 0x40 MLOAD DUP3 PUSH4 0xFFFFFFFF AND PUSH1 0xE0 SHL DUP2 MSTORE PUSH1 0x4 ADD PUSH2 0x236 SWAP2 SWAP1 PUSH2 0x3D8 JUMP JUMPDEST PUSH1 0x20 PUSH1 0x40 MLOAD DUP1 DUP4 SUB DUP2 DUP7 GAS STATICCALL ISZERO DUP1 ISZERO PUSH2 0x253 JUMPI RETURNDATASIZE PUSH1 0x0 DUP1 RETURNDATACOPY RETURNDATASIZE PUSH1 0x0 REVERT JUMPDEST POP POP POP POP PUSH1 0x40 MLOAD RETURNDATASIZE PUSH1 0x1F NOT PUSH1 0x1F DUP3 ADD AND DUP3 ADD DUP1 PUSH1 0x40 MSTORE POP DUP2 ADD SWAP1 PUSH2 0x277 SWAP2 SWAP1 PUSH2 0x48E JUMP JUMPDEST SWAP1 POP PUSH1 0x1 PUSH1 0x0 SWAP1 SLOAD SWAP1 PUSH2 0x100 EXP SWAP1 DIV PUSH20 0xFFFFFFFFFFFFFFFFFFFFFFFFFFFFFFFFFFFFFFFF AND PUSH20 0xFFFFFFFFFFFFFFFFFFFFFFFFFFFFFFFFFFFFFFFF AND PUSH4 0xA9059CBB PUSH1 0x0 DUP1 SLOAD SWAP1 PUSH2 0x100 EXP SWAP1 DIV PUSH20 0xFFFFFFFFFFFFFFFFFFFFFFFFFFFFFFFFFFFFFFFF AND DUP4 PUSH1 0x40 MLOAD DUP4 PUSH4 0xFFFFFFFF AND PUSH1 0xE0 SHL DUP2 MSTORE PUSH1 0x4 ADD PUSH2 0x2F6 SWAP3 SWAP2 SWAP1 PUSH2 0x4CA JUMP JUMPDEST PUSH1 0x20 PUSH1 0x40 MLOAD DUP1 DUP4 SUB DUP2 PUSH1 0x0 DUP8 GAS CALL ISZERO DUP1 ISZERO PUSH2 0x315 JUMPI RETURNDATASIZE PUSH1 0x0 DUP1 RETURNDATACOPY RETURNDATASIZE PUSH1 0x0 REVERT JUMPDEST POP POP POP POP PUSH1 0x40 MLOAD RETURNDATASIZE PUSH1 0x1F NOT PUSH1 0x1F DUP3 ADD AND DUP3 ADD DUP1 PUSH1 0x40 MSTORE POP DUP2 ADD SWAP1 PUSH2 0x339 SWAP2 SWAP1 PUSH2 0x52B JUMP JUMPDEST POP PUSH1 0x0 DUP1 SLOAD SWAP1 PUSH2 0x100 EXP SWAP1 DIV PUSH20 0xFFFFFFFFFFFFFFFFFFFFFFFFFFFFFFFFFFFFFFFF AND PUSH20 0xFFFFFFFFFFFFFFFFFFFFFFFFFFFFFFFFFFFFFFFF AND SELFDESTRUCT JUMPDEST PUSH1 0x0 DUP1 SLOAD SWAP1 PUSH2 0x100 EXP SWAP1 DIV PUSH20 0xFFFFFFFFFFFFFFFFFFFFFFFFFFFFFFFFFFFFFFFF AND DUP2 JUMP JUMPDEST PUSH1 0x0 PUSH20 0xFFFFFFFFFFFFFFFFFFFFFFFFFFFFFFFFFFFFFFFF DUP3 AND SWAP1 POP SWAP2 SWAP1 POP JUMP JUMPDEST PUSH1 0x0 PUSH2 0x3C2 DUP3 PUSH2 0x397 JUMP JUMPDEST SWAP1 POP SWAP2 SWAP1 POP JUMP JUMPDEST PUSH2 0x3D2 DUP2 PUSH2 0x3B7 JUMP JUMPDEST DUP3 MSTORE POP POP JUMP JUMPDEST PUSH1 0x0 PUSH1 0x20 DUP3 ADD SWAP1 POP PUSH2 0x3ED PUSH1 0x0 DUP4 ADD DUP5 PUSH2 0x3C9 JUMP JUMPDEST SWAP3 SWAP2 POP POP JUMP JUMPDEST PUSH1 0x0 DUP2 SWAP1 POP SWAP2 SWAP1 POP JUMP JUMPDEST PUSH1 0x0 DUP2 SWAP1 POP SWAP2 SWAP1 POP JUMP JUMPDEST PUSH1 0x0 DUP2 SWAP1 POP SWAP2 SWAP1 POP JUMP JUMPDEST PUSH1 0x0 PUSH2 0x42C PUSH2 0x427 PUSH2 0x422 DUP5 PUSH2 0x3F3 JUMP JUMPDEST PUSH2 0x407 JUMP JUMPDEST PUSH2 0x3FD JUMP JUMPDEST SWAP1 POP SWAP2 SWAP1 POP JUMP JUMPDEST PUSH2 0x43C DUP2 PUSH2 0x411 JUMP JUMPDEST DUP3 MSTORE POP POP JUMP JUMPDEST PUSH1 0x0 PUSH1 0x20 DUP3 ADD SWAP1 POP PUSH2 0x457 PUSH1 0x0 DUP4 ADD DUP5 PUSH2 0x433 JUMP JUMPDEST SWAP3 SWAP2 POP POP JUMP JUMPDEST PUSH1 0x0 DUP1 REVERT JUMPDEST PUSH2 0x46B DUP2 PUSH2 0x3FD JUMP JUMPDEST DUP2 EQ PUSH2 0x476 JUMPI PUSH1 0x0 DUP1 REVERT JUMPDEST POP JUMP JUMPDEST PUSH1 0x0 DUP2 MLOAD SWAP1 POP PUSH2 0x488 DUP2 PUSH2 0x462 JUMP JUMPDEST SWAP3 SWAP2 POP POP JUMP JUMPDEST PUSH1 0x0 PUSH1 0x20 DUP3 DUP5 SUB SLT ISZERO PUSH2 0x4A4 JUMPI PUSH2 0x4A3 PUSH2 0x45D JUMP JUMPDEST JUMPDEST PUSH1 0x0 PUSH2 0x4B2 DUP5 DUP3 DUP6 ADD PUSH2 0x479 JUMP JUMPDEST SWAP2 POP POP SWAP3 SWAP2 POP POP JUMP JUMPDEST PUSH2 0x4C4 DUP2 PUSH2 0x3FD JUMP JUMPDEST DUP3 MSTORE POP POP JUMP JUMPDEST PUSH1 0x0 PUSH1 0x40 DUP3 ADD SWAP1 POP PUSH2 0x4DF PUSH1 0x0 DUP4 ADD DUP6 PUSH2 0x3C9 JUMP JUMPDEST PUSH2 0x4EC PUSH1 0x20 DUP4 ADD DUP5 PUSH2 0x4BB JUMP JUMPDEST SWAP4 SWAP3 POP POP POP JUMP JUMPDEST PUSH1 0x0 DUP2 ISZERO ISZERO SWAP1 POP SWAP2 SWAP1 POP JUMP JUMPDEST PUSH2 0x508 DUP2 PUSH2 0x4F3 JUMP JUMPDEST DUP2 EQ PUSH2 0x513 JUMPI PUSH1 0x0 DUP1 REVERT JUMPDEST POP JUMP JUMPDEST PUSH1 0x0 DUP2 MLOAD SWAP1 POP PUSH2 0x525 DUP2 PUSH2 0x4FF JUMP JUMPDEST SWAP3 SWAP2 POP POP JUMP JUMPDEST PUSH1 0x0 PUSH1 0x20 DUP3 DUP5 SUB SLT ISZERO PUSH2 0x541 JUMPI PUSH2 0x540 PUSH2 0x45D JUMP JUMPDEST JUMPDEST PUSH1 0x0 PUSH2 0x54F DUP5 DUP3 DUP6 ADD PUSH2 0x516 JUMP JUMPDEST SWAP2 POP POP SWAP3 SWAP2 POP POP JUMP INVALID LOG2 PUSH5 0x6970667358 0x22 SLT KECCAK256 DUP7 DUP4 SHL PUSH26 0xA7BA6936BC928CA4D80C75CA49B084CB0945637D50C09711F648 CALLDATACOPY 0xE1 PUSH5 0x736F6C6343 STOP ADDMOD GT STOP CALLER "
				},
				"gasEstimates": {
					"creation": {
						"codeDepositCost": "179800",
						"executionCost": "infinite",
						"totalCost": "infinite"
					},
					"external": {
						"claimXEN(uint256,uint256)": "infinite",
						"index()": "2407",
						"indexAddress(uint256)": "2839"
					}
				},
				"methodIdentifiers": {
					"claimXEN(uint256,uint256)": "86845921",
					"index()": "2986c0e5",
					"indexAddress(uint256)": "86050680"
				}
			},
			"storageLayout": {
				"storage": [
					{
						"astId": 94,
						"contract": "XenFactory/XenCreate2.sol:MxenFactory",
						"label": "index",
						"offset": 0,
						"slot": "0",
						"type": "t_uint256"
					},
					{
						"astId": 98,
						"contract": "XenFactory/XenCreate2.sol:MxenFactory",
						"label": "indexAddress",
						"offset": 0,
						"slot": "1",
						"type": "t_mapping(t_uint256,t_address)"
					}
				],
				"types": {
					"t_address": {
						"encoding": "inplace",
						"label": "address",
						"numberOfBytes": "20"
					},
					"t_mapping(t_uint256,t_address)": {
						"encoding": "mapping",
						"key": "t_uint256",
						"label": "mapping(uint256 => address)",
						"numberOfBytes": "32",
						"value": "t_address"
					},
					"t_uint256": {
						"encoding": "inplace",
						"label": "uint256",
						"numberOfBytes": "32"
					}
				}
			},
			"userdoc": {
				"kind": "user",
				"methods": {},
				"version": 1
			}
		}
	}
}