{
	"XenFactory/XenCreate2.sol": {
		"MxenCreateFactory": {
			"abi": [
				{
					"inputs": [
						{
							"internalType": "uint256",
							"name": "_salt",
							"type": "uint256"
						}
					],
					"name": "claim",
					"outputs": [],
					"stateMutability": "nonpayable",
					"type": "function"
				},
				{
					"inputs": [
						{
							"internalType": "uint256",
							"name": "_salt",
							"type": "uint256"
						}
					],
					"name": "claimXEN",
					"outputs": [],
					"stateMutability": "nonpayable",
					"type": "function"
				}
			],
			"devdoc": {
				"kind": "dev",
				"methods": {},
				"version": 1
			},
			"evm": {
				"assembly": "    /* \"XenFactory/XenCreate2.sol\":212:640  contract MxenCreateFactory{... */\n  mstore(0x40, 0x80)\n  callvalue\n  dup1\n  iszero\n  tag_1\n  jumpi\n  0x00\n  dup1\n  revert\ntag_1:\n  pop\n  dataSize(sub_0)\n  dup1\n  dataOffset(sub_0)\n  0x00\n  codecopy\n  0x00\n  return\nstop\n\nsub_0: assembly {\n        /* \"XenFactory/XenCreate2.sol\":212:640  contract MxenCreateFactory{... */\n      mstore(0x40, 0x80)\n      callvalue\n      dup1\n      iszero\n      tag_1\n      jumpi\n      0x00\n      dup1\n      revert\n    tag_1:\n      pop\n      jumpi(tag_2, lt(calldatasize, 0x04))\n      shr(0xe0, calldataload(0x00))\n      dup1\n      0x379607f5\n      eq\n      tag_3\n      jumpi\n      dup1\n      0x4bbe90be\n      eq\n      tag_4\n      jumpi\n    tag_2:\n      0x00\n      dup1\n      revert\n        /* \"XenFactory/XenCreate2.sol\":255:416  function claim(uint _salt) external{... */\n    tag_3:\n      tag_5\n      0x04\n      dup1\n      calldatasize\n      sub\n      dup2\n      add\n      swap1\n      tag_6\n      swap2\n      swap1\n      tag_7\n      jump\t// in\n    tag_6:\n      tag_8\n      jump\t// in\n    tag_5:\n      stop\n        /* \"XenFactory/XenCreate2.sol\":459:635  function claimXEN(uint _salt) public{... */\n    tag_4:\n      tag_9\n      0x04\n      dup1\n      calldatasize\n      sub\n      dup2\n      add\n      swap1\n      tag_10\n      swap2\n      swap1\n      tag_7\n      jump\t// in\n    tag_10:\n      tag_11\n      jump\t// in\n    tag_9:\n      stop\n        /* \"XenFactory/XenCreate2.sol\":255:416  function claim(uint _salt) external{... */\n    tag_8:\n        /* \"XenFactory/XenCreate2.sol\":301:319  XenCreateActive cn */\n      0x00\n        /* \"XenFactory/XenCreate2.sol\":355:360  _salt */\n      dup2\n        /* \"XenFactory/XenCreate2.sol\":347:361  bytes32(_salt) */\n      0x00\n      shl\n        /* \"XenFactory/XenCreate2.sol\":322:364  new XenCreateActive{salt:bytes32(_salt)}() */\n      mload(0x40)\n      tag_13\n      swap1\n      tag_14\n      jump\t// in\n    tag_13:\n      dup2\n      swap1\n      mload(0x40)\n      dup1\n      swap2\n      sub\n      swap1\n      0x00\n      create2\n      swap1\n      pop\n      dup1\n      iszero\n      dup1\n      iszero\n      tag_15\n      jumpi\n      returndatasize\n      0x00\n      dup1\n      returndatacopy\n      revert(0x00, returndatasize)\n    tag_15:\n      pop\n        /* \"XenFactory/XenCreate2.sol\":301:364  XenCreateActive cn = new XenCreateActive{salt:bytes32(_salt)}() */\n      swap1\n      pop\n        /* \"XenFactory/XenCreate2.sol\":396:406  msg.sender */\n      caller\n        /* \"XenFactory/XenCreate2.sol\":375:408  selfdestruct(payable(msg.sender)) */\n      0xffffffffffffffffffffffffffffffffffffffff\n      and\n      selfdestruct\n        /* \"XenFactory/XenCreate2.sol\":459:635  function claimXEN(uint _salt) public{... */\n    tag_11:\n        /* \"XenFactory/XenCreate2.sol\":506:524  XenCreateActive cn */\n      0x00\n        /* \"XenFactory/XenCreate2.sol\":560:565  _salt */\n      dup2\n        /* \"XenFactory/XenCreate2.sol\":552:566  bytes32(_salt) */\n      0x00\n      shl\n        /* \"XenFactory/XenCreate2.sol\":527:569  new XenCreateActive{salt:bytes32(_salt)}() */\n      mload(0x40)\n      tag_17\n      swap1\n      tag_14\n      jump\t// in\n    tag_17:\n      dup2\n      swap1\n      mload(0x40)\n      dup1\n      swap2\n      sub\n      swap1\n      0x00\n      create2\n      swap1\n      pop\n      dup1\n      iszero\n      dup1\n      iszero\n      tag_18\n      jumpi\n      returndatasize\n      0x00\n      dup1\n      returndatacopy\n      revert(0x00, returndatasize)\n    tag_18:\n      pop\n        /* \"XenFactory/XenCreate2.sol\":506:569  XenCreateActive cn = new XenCreateActive{salt:bytes32(_salt)}() */\n      swap1\n      pop\n        /* \"XenFactory/XenCreate2.sol\":605:607  cn */\n      dup1\n        /* \"XenFactory/XenCreate2.sol\":580:624  IXenCreateActive(address(cn)).rewardTransfer */\n      0xffffffffffffffffffffffffffffffffffffffff\n      and\n      0x8b4ef897\n        /* \"XenFactory/XenCreate2.sol\":580:626  IXenCreateActive(address(cn)).rewardTransfer() */\n      mload(0x40)\n      dup2\n      0xffffffff\n      and\n      0xe0\n      shl\n      dup2\n      mstore\n      0x04\n      add\n      0x00\n      mload(0x40)\n      dup1\n      dup4\n      sub\n      dup2\n      0x00\n      dup8\n      dup1\n      extcodesize\n      iszero\n      dup1\n      iszero\n      tag_19\n      jumpi\n      0x00\n      dup1\n      revert\n    tag_19:\n      pop\n      gas\n      call\n      iszero\n      dup1\n      iszero\n      tag_21\n      jumpi\n      returndatasize\n      0x00\n      dup1\n      returndatacopy\n      revert(0x00, returndatasize)\n    tag_21:\n      pop\n      pop\n      pop\n      pop\n        /* \"XenFactory/XenCreate2.sol\":495:635  {... */\n      pop\n        /* \"XenFactory/XenCreate2.sol\":459:635  function claimXEN(uint _salt) public{... */\n      pop\n      jump\t// out\n    tag_14:\n      dataSize(sub_0)\n      dup1\n      dataOffset(sub_0)\n      dup4\n      codecopy\n      add\n      swap1\n      jump\t// out\n        /* \"#utility.yul\":88:205   */\n    tag_23:\n        /* \"#utility.yul\":197:198   */\n      0x00\n        /* \"#utility.yul\":194:195   */\n      dup1\n        /* \"#utility.yul\":187:199   */\n      revert\n        /* \"#utility.yul\":334:411   */\n    tag_25:\n        /* \"#utility.yul\":371:378   */\n      0x00\n        /* \"#utility.yul\":400:405   */\n      dup2\n        /* \"#utility.yul\":389:405   */\n      swap1\n      pop\n        /* \"#utility.yul\":334:411   */\n      swap2\n      swap1\n      pop\n      jump\t// out\n        /* \"#utility.yul\":417:539   */\n    tag_26:\n        /* \"#utility.yul\":490:514   */\n      tag_34\n        /* \"#utility.yul\":508:513   */\n      dup2\n        /* \"#utility.yul\":490:514   */\n      tag_25\n      jump\t// in\n    tag_34:\n        /* \"#utility.yul\":483:488   */\n      dup2\n        /* \"#utility.yul\":480:515   */\n      eq\n        /* \"#utility.yul\":470:533   */\n      tag_35\n      jumpi\n        /* \"#utility.yul\":529:530   */\n      0x00\n        /* \"#utility.yul\":526:527   */\n      dup1\n        /* \"#utility.yul\":519:531   */\n      revert\n        /* \"#utility.yul\":470:533   */\n    tag_35:\n        /* \"#utility.yul\":417:539   */\n      pop\n      jump\t// out\n        /* \"#utility.yul\":545:684   */\n    tag_27:\n        /* \"#utility.yul\":591:596   */\n      0x00\n        /* \"#utility.yul\":629:635   */\n      dup2\n        /* \"#utility.yul\":616:636   */\n      calldataload\n        /* \"#utility.yul\":607:636   */\n      swap1\n      pop\n        /* \"#utility.yul\":645:678   */\n      tag_37\n        /* \"#utility.yul\":672:677   */\n      dup2\n        /* \"#utility.yul\":645:678   */\n      tag_26\n      jump\t// in\n    tag_37:\n        /* \"#utility.yul\":545:684   */\n      swap3\n      swap2\n      pop\n      pop\n      jump\t// out\n        /* \"#utility.yul\":690:1019   */\n    tag_7:\n        /* \"#utility.yul\":749:755   */\n      0x00\n        /* \"#utility.yul\":798:800   */\n      0x20\n        /* \"#utility.yul\":786:795   */\n      dup3\n        /* \"#utility.yul\":777:784   */\n      dup5\n        /* \"#utility.yul\":773:796   */\n      sub\n        /* \"#utility.yul\":769:801   */\n      slt\n        /* \"#utility.yul\":766:885   */\n      iszero\n      tag_39\n      jumpi\n        /* \"#utility.yul\":804:883   */\n      tag_40\n      tag_23\n      jump\t// in\n    tag_40:\n        /* \"#utility.yul\":766:885   */\n    tag_39:\n        /* \"#utility.yul\":924:925   */\n      0x00\n        /* \"#utility.yul\":949:1002   */\n      tag_41\n        /* \"#utility.yul\":994:1001   */\n      dup5\n        /* \"#utility.yul\":985:991   */\n      dup3\n        /* \"#utility.yul\":974:983   */\n      dup6\n        /* \"#utility.yul\":970:992   */\n      add\n        /* \"#utility.yul\":949:1002   */\n      tag_27\n      jump\t// in\n    tag_41:\n        /* \"#utility.yul\":939:1002   */\n      swap2\n      pop\n        /* \"#utility.yul\":895:1012   */\n      pop\n        /* \"#utility.yul\":690:1019   */\n      swap3\n      swap2\n      pop\n      pop\n      jump\t// out\n    stop\n\n    sub_0: assembly {\n            /* \"XenFactory/XenCreateActive.sol\":345:929  contract XenCreateActive{... */\n          mstore(0x40, 0x80)\n            /* \"XenFactory/XenCreateActive.sol\":421:463  0x6971b57a29764eD7af4A4a1ED7a512Dde9369Ef6 */\n          0x6971b57a29764ed7af4a4a1ed7a512dde9369ef6\n            /* \"XenFactory/XenCreateActive.sol\":399:463  address public owner= 0x6971b57a29764eD7af4A4a1ED7a512Dde9369Ef6 */\n          0x00\n          dup1\n          0x0100\n          exp\n          dup2\n          sload\n          dup2\n          0xffffffffffffffffffffffffffffffffffffffff\n          mul\n          not\n          and\n          swap1\n          dup4\n          0xffffffffffffffffffffffffffffffffffffffff\n          and\n          mul\n          or\n          swap1\n          sstore\n          pop\n            /* \"XenFactory/XenCreateActive.sol\":519:561  0x2AB0e9e4eE70FFf1fB9D67031E44F6410170d00e */\n          0x2ab0e9e4ee70fff1fb9d67031e44f6410170d00e\n            /* \"XenFactory/XenCreateActive.sol\":496:561  address public _addr = 0x2AB0e9e4eE70FFf1fB9D67031E44F6410170d00e */\n          0x01\n          exp(0x0100, 0x00)\n          dup2\n          sload\n          dup2\n          0xffffffffffffffffffffffffffffffffffffffff\n          mul\n          not\n          and\n          swap1\n          dup4\n          0xffffffffffffffffffffffffffffffffffffffff\n          and\n          mul\n          or\n          swap1\n          sstore\n          pop\n            /* \"XenFactory/XenCreateActive.sol\":575:638  constructor() public{... */\n          callvalue\n          dup1\n          iszero\n          tag_1\n          jumpi\n          0x00\n          dup1\n          revert\n        tag_1:\n          pop\n            /* \"XenFactory/XenCreateActive.sol\":611:616  _addr */\n          0x01\n          0x00\n          swap1\n          sload\n          swap1\n          0x0100\n          exp\n          swap1\n          div\n          0xffffffffffffffffffffffffffffffffffffffff\n          and\n            /* \"XenFactory/XenCreateActive.sol\":606:627  IXen(_addr).claimRank */\n          0xffffffffffffffffffffffffffffffffffffffff\n          and\n          0x9ff054df\n            /* \"XenFactory/XenCreateActive.sol\":628:629  1 */\n          0x01\n            /* \"XenFactory/XenCreateActive.sol\":606:630  IXen(_addr).claimRank(1) */\n          mload(0x40)\n          dup3\n          0xffffffff\n          and\n          0xe0\n          shl\n          dup2\n          mstore\n          0x04\n          add\n          tag_4\n          swap2\n          swap1\n          tag_5\n          jump\t// in\n        tag_4:\n          0x00\n          mload(0x40)\n          dup1\n          dup4\n          sub\n          dup2\n          0x00\n          dup8\n          dup1\n          extcodesize\n          iszero\n          dup1\n          iszero\n          tag_6\n          jumpi\n          0x00\n          dup1\n          revert\n        tag_6:\n          pop\n          gas\n          call\n          iszero\n          dup1\n          iszero\n          tag_8\n          jumpi\n          returndatasize\n          0x00\n          dup1\n          returndatacopy\n          revert(0x00, returndatasize)\n        tag_8:\n          pop\n          pop\n          pop\n          pop\n            /* \"XenFactory/XenCreateActive.sol\":345:929  contract XenCreateActive{... */\n          jump(tag_9)\n            /* \"#utility.yul\":7:92   */\n        tag_10:\n            /* \"#utility.yul\":52:59   */\n          0x00\n            /* \"#utility.yul\":81:86   */\n          dup2\n            /* \"#utility.yul\":70:86   */\n          swap1\n          pop\n            /* \"#utility.yul\":7:92   */\n          swap2\n          swap1\n          pop\n          jump\t// out\n            /* \"#utility.yul\":98:175   */\n        tag_11:\n            /* \"#utility.yul\":135:142   */\n          0x00\n            /* \"#utility.yul\":164:169   */\n          dup2\n            /* \"#utility.yul\":153:169   */\n          swap1\n          pop\n            /* \"#utility.yul\":98:175   */\n          swap2\n          swap1\n          pop\n          jump\t// out\n            /* \"#utility.yul\":181:241   */\n        tag_12:\n            /* \"#utility.yul\":209:212   */\n          0x00\n            /* \"#utility.yul\":230:235   */\n          dup2\n            /* \"#utility.yul\":223:235   */\n          swap1\n          pop\n            /* \"#utility.yul\":181:241   */\n          swap2\n          swap1\n          pop\n          jump\t// out\n            /* \"#utility.yul\":247:405   */\n        tag_13:\n            /* \"#utility.yul\":305:314   */\n          0x00\n            /* \"#utility.yul\":338:399   */\n          tag_20\n            /* \"#utility.yul\":356:398   */\n          tag_21\n            /* \"#utility.yul\":365:397   */\n          tag_22\n            /* \"#utility.yul\":391:396   */\n          dup5\n            /* \"#utility.yul\":365:397   */\n          tag_10\n          jump\t// in\n        tag_22:\n            /* \"#utility.yul\":356:398   */\n          tag_12\n          jump\t// in\n        tag_21:\n            /* \"#utility.yul\":338:399   */\n          tag_11\n          jump\t// in\n        tag_20:\n            /* \"#utility.yul\":325:399   */\n          swap1\n          pop\n            /* \"#utility.yul\":247:405   */\n          swap2\n          swap1\n          pop\n          jump\t// out\n            /* \"#utility.yul\":411:558   */\n        tag_14:\n            /* \"#utility.yul\":506:551   */\n          tag_24\n            /* \"#utility.yul\":545:550   */\n          dup2\n            /* \"#utility.yul\":506:551   */\n          tag_13\n          jump\t// in\n        tag_24:\n            /* \"#utility.yul\":501:504   */\n          dup3\n            /* \"#utility.yul\":494:552   */\n          mstore\n            /* \"#utility.yul\":411:558   */\n          pop\n          pop\n          jump\t// out\n            /* \"#utility.yul\":564:802   */\n        tag_5:\n            /* \"#utility.yul\":665:669   */\n          0x00\n            /* \"#utility.yul\":703:705   */\n          0x20\n            /* \"#utility.yul\":692:701   */\n          dup3\n            /* \"#utility.yul\":688:706   */\n          add\n            /* \"#utility.yul\":680:706   */\n          swap1\n          pop\n            /* \"#utility.yul\":716:795   */\n          tag_26\n            /* \"#utility.yul\":792:793   */\n          0x00\n            /* \"#utility.yul\":781:790   */\n          dup4\n            /* \"#utility.yul\":777:794   */\n          add\n            /* \"#utility.yul\":768:774   */\n          dup5\n            /* \"#utility.yul\":716:795   */\n          tag_14\n          jump\t// in\n        tag_26:\n            /* \"#utility.yul\":564:802   */\n          swap3\n          swap2\n          pop\n          pop\n          jump\t// out\n            /* \"XenFactory/XenCreateActive.sol\":345:929  contract XenCreateActive{... */\n        tag_9:\n          dataSize(sub_0)\n          dup1\n          dataOffset(sub_0)\n          0x00\n          codecopy\n          0x00\n          return\n        stop\n\n        sub_0: assembly {\n                /* \"XenFactory/XenCreateActive.sol\":345:929  contract XenCreateActive{... */\n              mstore(0x40, 0x80)\n              callvalue\n              dup1\n              iszero\n              tag_1\n              jumpi\n              0x00\n              dup1\n              revert\n            tag_1:\n              pop\n              jumpi(tag_2, lt(calldatasize, 0x04))\n              shr(0xe0, calldataload(0x00))\n              dup1\n              0x62ab1a77\n              eq\n              tag_3\n              jumpi\n              dup1\n              0x8b4ef897\n              eq\n              tag_4\n              jumpi\n              dup1\n              0x8da5cb5b\n              eq\n              tag_5\n              jumpi\n            tag_2:\n              0x00\n              dup1\n              revert\n                /* \"XenFactory/XenCreateActive.sol\":496:561  address public _addr = 0x2AB0e9e4eE70FFf1fB9D67031E44F6410170d00e */\n            tag_3:\n              tag_6\n              tag_7\n              jump\t// in\n            tag_6:\n              mload(0x40)\n              tag_8\n              swap2\n              swap1\n              tag_9\n              jump\t// in\n            tag_8:\n              mload(0x40)\n              dup1\n              swap2\n              sub\n              swap1\n              return\n                /* \"XenFactory/XenCreateActive.sol\":688:924  function rewardTransfer() external {... */\n            tag_4:\n              tag_10\n              tag_11\n              jump\t// in\n            tag_10:\n              stop\n                /* \"XenFactory/XenCreateActive.sol\":399:463  address public owner= 0x6971b57a29764eD7af4A4a1ED7a512Dde9369Ef6 */\n            tag_5:\n              tag_12\n              tag_13\n              jump\t// in\n            tag_12:\n              mload(0x40)\n              tag_14\n              swap2\n              swap1\n              tag_9\n              jump\t// in\n            tag_14:\n              mload(0x40)\n              dup1\n              swap2\n              sub\n              swap1\n              return\n                /* \"XenFactory/XenCreateActive.sol\":496:561  address public _addr = 0x2AB0e9e4eE70FFf1fB9D67031E44F6410170d00e */\n            tag_7:\n              0x01\n              0x00\n              swap1\n              sload\n              swap1\n              0x0100\n              exp\n              swap1\n              div\n              0xffffffffffffffffffffffffffffffffffffffff\n              and\n              dup2\n              jump\t// out\n                /* \"XenFactory/XenCreateActive.sol\":688:924  function rewardTransfer() external {... */\n            tag_11:\n                /* \"XenFactory/XenCreateActive.sol\":739:744  _addr */\n              0x01\n              0x00\n              swap1\n              sload\n              swap1\n              0x0100\n              exp\n              swap1\n              div\n              0xffffffffffffffffffffffffffffffffffffffff\n              and\n                /* \"XenFactory/XenCreateActive.sol\":734:761  IXen(_addr).claimMintReward */\n              0xffffffffffffffffffffffffffffffffffffffff\n              and\n              0x52c7f8dc\n                /* \"XenFactory/XenCreateActive.sol\":734:763  IXen(_addr).claimMintReward() */\n              mload(0x40)\n              dup2\n              0xffffffff\n              and\n              0xe0\n              shl\n              dup2\n              mstore\n              0x04\n              add\n              0x00\n              mload(0x40)\n              dup1\n              dup4\n              sub\n              dup2\n              0x00\n              dup8\n              dup1\n              extcodesize\n              iszero\n              dup1\n              iszero\n              tag_16\n              jumpi\n              0x00\n              dup1\n              revert\n            tag_16:\n              pop\n              gas\n              call\n              iszero\n              dup1\n              iszero\n              tag_18\n              jumpi\n              returndatasize\n              0x00\n              dup1\n              returndatacopy\n              revert(0x00, returndatasize)\n            tag_18:\n              pop\n              pop\n              pop\n              pop\n                /* \"XenFactory/XenCreateActive.sol\":774:790  uint256 banlance */\n              0x00\n                /* \"XenFactory/XenCreateActive.sol\":798:803  _addr */\n              0x01\n              0x00\n              swap1\n              sload\n              swap1\n              0x0100\n              exp\n              swap1\n              div\n              0xffffffffffffffffffffffffffffffffffffffff\n              and\n                /* \"XenFactory/XenCreateActive.sol\":793:814  IXen(_addr).balanceOf */\n              0xffffffffffffffffffffffffffffffffffffffff\n              and\n              0x70a08231\n                /* \"XenFactory/XenCreateActive.sol\":823:827  this */\n              address\n                /* \"XenFactory/XenCreateActive.sol\":793:829  IXen(_addr).balanceOf(address(this)) */\n              mload(0x40)\n              dup3\n              0xffffffff\n              and\n              0xe0\n              shl\n              dup2\n              mstore\n              0x04\n              add\n              tag_19\n              swap2\n              swap1\n              tag_9\n              jump\t// in\n            tag_19:\n              0x20\n              mload(0x40)\n              dup1\n              dup4\n              sub\n              dup2\n              dup7\n              gas\n              staticcall\n              iszero\n              dup1\n              iszero\n              tag_21\n              jumpi\n              returndatasize\n              0x00\n              dup1\n              returndatacopy\n              revert(0x00, returndatasize)\n            tag_21:\n              pop\n              pop\n              pop\n              pop\n              mload(0x40)\n              returndatasize\n              not(0x1f)\n              0x1f\n              dup3\n              add\n              and\n              dup3\n              add\n              dup1\n              0x40\n              mstore\n              pop\n              dup2\n              add\n              swap1\n              tag_22\n              swap2\n              swap1\n              tag_23\n              jump\t// in\n            tag_22:\n                /* \"XenFactory/XenCreateActive.sol\":774:829  uint256 banlance = IXen(_addr).balanceOf(address(this)) */\n              swap1\n              pop\n                /* \"XenFactory/XenCreateActive.sol\":845:850  _addr */\n              0x01\n              0x00\n              swap1\n              sload\n              swap1\n              0x0100\n              exp\n              swap1\n              div\n              0xffffffffffffffffffffffffffffffffffffffff\n              and\n                /* \"XenFactory/XenCreateActive.sol\":840:860  IXen(_addr).transfer */\n              0xffffffffffffffffffffffffffffffffffffffff\n              and\n              0xa9059cbb\n                /* \"XenFactory/XenCreateActive.sol\":861:866  owner */\n              0x00\n              dup1\n              sload\n              swap1\n              0x0100\n              exp\n              swap1\n              div\n              0xffffffffffffffffffffffffffffffffffffffff\n              and\n                /* \"XenFactory/XenCreateActive.sol\":868:876  banlance */\n              dup4\n                /* \"XenFactory/XenCreateActive.sol\":840:877  IXen(_addr).transfer(owner, banlance) */\n              mload(0x40)\n              dup4\n              0xffffffff\n              and\n              0xe0\n              shl\n              dup2\n              mstore\n              0x04\n              add\n              tag_24\n              swap3\n              swap2\n              swap1\n              tag_25\n              jump\t// in\n            tag_24:\n              0x20\n              mload(0x40)\n              dup1\n              dup4\n              sub\n              dup2\n              0x00\n              dup8\n              gas\n              call\n              iszero\n              dup1\n              iszero\n              tag_27\n              jumpi\n              returndatasize\n              0x00\n              dup1\n              returndatacopy\n              revert(0x00, returndatasize)\n            tag_27:\n              pop\n              pop\n              pop\n              pop\n              mload(0x40)\n              returndatasize\n              not(0x1f)\n              0x1f\n              dup3\n              add\n              and\n              dup3\n              add\n              dup1\n              0x40\n              mstore\n              pop\n              dup2\n              add\n              swap1\n              tag_28\n              swap2\n              swap1\n              tag_29\n              jump\t// in\n            tag_28:\n              pop\n                /* \"XenFactory/XenCreateActive.sol\":909:914  owner */\n              0x00\n              dup1\n              sload\n              swap1\n              0x0100\n              exp\n              swap1\n              div\n              0xffffffffffffffffffffffffffffffffffffffff\n              and\n                /* \"XenFactory/XenCreateActive.sol\":888:916  selfdestruct(payable(owner)) */\n              0xffffffffffffffffffffffffffffffffffffffff\n              and\n              selfdestruct\n                /* \"XenFactory/XenCreateActive.sol\":399:463  address public owner= 0x6971b57a29764eD7af4A4a1ED7a512Dde9369Ef6 */\n            tag_13:\n              0x00\n              dup1\n              sload\n              swap1\n              0x0100\n              exp\n              swap1\n              div\n              0xffffffffffffffffffffffffffffffffffffffff\n              and\n              dup2\n              jump\t// out\n                /* \"#utility.yul\":7:133   */\n            tag_30:\n                /* \"#utility.yul\":44:51   */\n              0x00\n                /* \"#utility.yul\":84:126   */\n              0xffffffffffffffffffffffffffffffffffffffff\n                /* \"#utility.yul\":77:82   */\n              dup3\n                /* \"#utility.yul\":73:127   */\n              and\n                /* \"#utility.yul\":62:127   */\n              swap1\n              pop\n                /* \"#utility.yul\":7:133   */\n              swap2\n              swap1\n              pop\n              jump\t// out\n                /* \"#utility.yul\":139:235   */\n            tag_31:\n                /* \"#utility.yul\":176:183   */\n              0x00\n                /* \"#utility.yul\":205:229   */\n              tag_46\n                /* \"#utility.yul\":223:228   */\n              dup3\n                /* \"#utility.yul\":205:229   */\n              tag_30\n              jump\t// in\n            tag_46:\n                /* \"#utility.yul\":194:229   */\n              swap1\n              pop\n                /* \"#utility.yul\":139:235   */\n              swap2\n              swap1\n              pop\n              jump\t// out\n                /* \"#utility.yul\":241:359   */\n            tag_32:\n                /* \"#utility.yul\":328:352   */\n              tag_48\n                /* \"#utility.yul\":346:351   */\n              dup2\n                /* \"#utility.yul\":328:352   */\n              tag_31\n              jump\t// in\n            tag_48:\n                /* \"#utility.yul\":323:326   */\n              dup3\n                /* \"#utility.yul\":316:353   */\n              mstore\n                /* \"#utility.yul\":241:359   */\n              pop\n              pop\n              jump\t// out\n                /* \"#utility.yul\":365:587   */\n            tag_9:\n                /* \"#utility.yul\":458:462   */\n              0x00\n                /* \"#utility.yul\":496:498   */\n              0x20\n                /* \"#utility.yul\":485:494   */\n              dup3\n                /* \"#utility.yul\":481:499   */\n              add\n                /* \"#utility.yul\":473:499   */\n              swap1\n              pop\n                /* \"#utility.yul\":509:580   */\n              tag_50\n                /* \"#utility.yul\":577:578   */\n              0x00\n                /* \"#utility.yul\":566:575   */\n              dup4\n                /* \"#utility.yul\":562:579   */\n              add\n                /* \"#utility.yul\":553:559   */\n              dup5\n                /* \"#utility.yul\":509:580   */\n              tag_32\n              jump\t// in\n            tag_50:\n                /* \"#utility.yul\":365:587   */\n              swap3\n              swap2\n              pop\n              pop\n              jump\t// out\n                /* \"#utility.yul\":674:791   */\n            tag_34:\n                /* \"#utility.yul\":783:784   */\n              0x00\n                /* \"#utility.yul\":780:781   */\n              dup1\n                /* \"#utility.yul\":773:785   */\n              revert\n                /* \"#utility.yul\":920:997   */\n            tag_36:\n                /* \"#utility.yul\":957:964   */\n              0x00\n                /* \"#utility.yul\":986:991   */\n              dup2\n                /* \"#utility.yul\":975:991   */\n              swap1\n              pop\n                /* \"#utility.yul\":920:997   */\n              swap2\n              swap1\n              pop\n              jump\t// out\n                /* \"#utility.yul\":1003:1125   */\n            tag_37:\n                /* \"#utility.yul\":1076:1100   */\n              tag_56\n                /* \"#utility.yul\":1094:1099   */\n              dup2\n                /* \"#utility.yul\":1076:1100   */\n              tag_36\n              jump\t// in\n            tag_56:\n                /* \"#utility.yul\":1069:1074   */\n              dup2\n                /* \"#utility.yul\":1066:1101   */\n              eq\n                /* \"#utility.yul\":1056:1119   */\n              tag_57\n              jumpi\n                /* \"#utility.yul\":1115:1116   */\n              0x00\n                /* \"#utility.yul\":1112:1113   */\n              dup1\n                /* \"#utility.yul\":1105:1117   */\n              revert\n                /* \"#utility.yul\":1056:1119   */\n            tag_57:\n                /* \"#utility.yul\":1003:1125   */\n              pop\n              jump\t// out\n                /* \"#utility.yul\":1131:1274   */\n            tag_38:\n                /* \"#utility.yul\":1188:1193   */\n              0x00\n                /* \"#utility.yul\":1219:1225   */\n              dup2\n                /* \"#utility.yul\":1213:1226   */\n              mload\n                /* \"#utility.yul\":1204:1226   */\n              swap1\n              pop\n                /* \"#utility.yul\":1235:1268   */\n              tag_59\n                /* \"#utility.yul\":1262:1267   */\n              dup2\n                /* \"#utility.yul\":1235:1268   */\n              tag_37\n              jump\t// in\n            tag_59:\n                /* \"#utility.yul\":1131:1274   */\n              swap3\n              swap2\n              pop\n              pop\n              jump\t// out\n                /* \"#utility.yul\":1280:1631   */\n            tag_23:\n                /* \"#utility.yul\":1350:1356   */\n              0x00\n                /* \"#utility.yul\":1399:1401   */\n              0x20\n                /* \"#utility.yul\":1387:1396   */\n              dup3\n                /* \"#utility.yul\":1378:1385   */\n              dup5\n                /* \"#utility.yul\":1374:1397   */\n              sub\n                /* \"#utility.yul\":1370:1402   */\n              slt\n                /* \"#utility.yul\":1367:1486   */\n              iszero\n              tag_61\n              jumpi\n                /* \"#utility.yul\":1405:1484   */\n              tag_62\n              tag_34\n              jump\t// in\n            tag_62:\n                /* \"#utility.yul\":1367:1486   */\n            tag_61:\n                /* \"#utility.yul\":1525:1526   */\n              0x00\n                /* \"#utility.yul\":1550:1614   */\n              tag_63\n                /* \"#utility.yul\":1606:1613   */\n              dup5\n                /* \"#utility.yul\":1597:1603   */\n              dup3\n                /* \"#utility.yul\":1586:1595   */\n              dup6\n                /* \"#utility.yul\":1582:1604   */\n              add\n                /* \"#utility.yul\":1550:1614   */\n              tag_38\n              jump\t// in\n            tag_63:\n                /* \"#utility.yul\":1540:1614   */\n              swap2\n              pop\n                /* \"#utility.yul\":1496:1624   */\n              pop\n                /* \"#utility.yul\":1280:1631   */\n              swap3\n              swap2\n              pop\n              pop\n              jump\t// out\n                /* \"#utility.yul\":1637:1755   */\n            tag_39:\n                /* \"#utility.yul\":1724:1748   */\n              tag_65\n                /* \"#utility.yul\":1742:1747   */\n              dup2\n                /* \"#utility.yul\":1724:1748   */\n              tag_36\n              jump\t// in\n            tag_65:\n                /* \"#utility.yul\":1719:1722   */\n              dup3\n                /* \"#utility.yul\":1712:1749   */\n              mstore\n                /* \"#utility.yul\":1637:1755   */\n              pop\n              pop\n              jump\t// out\n                /* \"#utility.yul\":1761:2093   */\n            tag_25:\n                /* \"#utility.yul\":1882:1886   */\n              0x00\n                /* \"#utility.yul\":1920:1922   */\n              0x40\n                /* \"#utility.yul\":1909:1918   */\n              dup3\n                /* \"#utility.yul\":1905:1923   */\n              add\n                /* \"#utility.yul\":1897:1923   */\n              swap1\n              pop\n                /* \"#utility.yul\":1933:2004   */\n              tag_67\n                /* \"#utility.yul\":2001:2002   */\n              0x00\n                /* \"#utility.yul\":1990:1999   */\n              dup4\n                /* \"#utility.yul\":1986:2003   */\n              add\n                /* \"#utility.yul\":1977:1983   */\n              dup6\n                /* \"#utility.yul\":1933:2004   */\n              tag_32\n              jump\t// in\n            tag_67:\n                /* \"#utility.yul\":2014:2086   */\n              tag_68\n                /* \"#utility.yul\":2082:2084   */\n              0x20\n                /* \"#utility.yul\":2071:2080   */\n              dup4\n                /* \"#utility.yul\":2067:2085   */\n              add\n                /* \"#utility.yul\":2058:2064   */\n              dup5\n                /* \"#utility.yul\":2014:2086   */\n              tag_39\n              jump\t// in\n            tag_68:\n                /* \"#utility.yul\":1761:2093   */\n              swap4\n              swap3\n              pop\n              pop\n              pop\n              jump\t// out\n                /* \"#utility.yul\":2099:2189   */\n            tag_40:\n                /* \"#utility.yul\":2133:2140   */\n              0x00\n                /* \"#utility.yul\":2176:2181   */\n              dup2\n                /* \"#utility.yul\":2169:2182   */\n              iszero\n                /* \"#utility.yul\":2162:2183   */\n              iszero\n                /* \"#utility.yul\":2151:2183   */\n              swap1\n              pop\n                /* \"#utility.yul\":2099:2189   */\n              swap2\n              swap1\n              pop\n              jump\t// out\n                /* \"#utility.yul\":2195:2311   */\n            tag_41:\n                /* \"#utility.yul\":2265:2286   */\n              tag_71\n                /* \"#utility.yul\":2280:2285   */\n              dup2\n                /* \"#utility.yul\":2265:2286   */\n              tag_40\n              jump\t// in\n            tag_71:\n                /* \"#utility.yul\":2258:2263   */\n              dup2\n                /* \"#utility.yul\":2255:2287   */\n              eq\n                /* \"#utility.yul\":2245:2305   */\n              tag_72\n              jumpi\n                /* \"#utility.yul\":2301:2302   */\n              0x00\n                /* \"#utility.yul\":2298:2299   */\n              dup1\n                /* \"#utility.yul\":2291:2303   */\n              revert\n                /* \"#utility.yul\":2245:2305   */\n            tag_72:\n                /* \"#utility.yul\":2195:2311   */\n              pop\n              jump\t// out\n                /* \"#utility.yul\":2317:2454   */\n            tag_42:\n                /* \"#utility.yul\":2371:2376   */\n              0x00\n                /* \"#utility.yul\":2402:2408   */\n              dup2\n                /* \"#utility.yul\":2396:2409   */\n              mload\n                /* \"#utility.yul\":2387:2409   */\n              swap1\n              pop\n                /* \"#utility.yul\":2418:2448   */\n              tag_74\n                /* \"#utility.yul\":2442:2447   */\n              dup2\n                /* \"#utility.yul\":2418:2448   */\n              tag_41\n              jump\t// in\n            tag_74:\n                /* \"#utility.yul\":2317:2454   */\n              swap3\n              swap2\n              pop\n              pop\n              jump\t// out\n                /* \"#utility.yul\":2460:2805   */\n            tag_29:\n                /* \"#utility.yul\":2527:2533   */\n              0x00\n                /* \"#utility.yul\":2576:2578   */\n              0x20\n                /* \"#utility.yul\":2564:2573   */\n              dup3\n                /* \"#utility.yul\":2555:2562   */\n              dup5\n                /* \"#utility.yul\":2551:2574   */\n              sub\n                /* \"#utility.yul\":2547:2579   */\n              slt\n                /* \"#utility.yul\":2544:2663   */\n              iszero\n              tag_76\n              jumpi\n                /* \"#utility.yul\":2582:2661   */\n              tag_77\n              tag_34\n              jump\t// in\n            tag_77:\n                /* \"#utility.yul\":2544:2663   */\n            tag_76:\n                /* \"#utility.yul\":2702:2703   */\n              0x00\n                /* \"#utility.yul\":2727:2788   */\n              tag_78\n                /* \"#utility.yul\":2780:2787   */\n              dup5\n                /* \"#utility.yul\":2771:2777   */\n              dup3\n                /* \"#utility.yul\":2760:2769   */\n              dup6\n                /* \"#utility.yul\":2756:2778   */\n              add\n                /* \"#utility.yul\":2727:2788   */\n              tag_42\n              jump\t// in\n            tag_78:\n                /* \"#utility.yul\":2717:2788   */\n              swap2\n              pop\n                /* \"#utility.yul\":2673:2798   */\n              pop\n                /* \"#utility.yul\":2460:2805   */\n              swap3\n              swap2\n              pop\n              pop\n              jump\t// out\n\n            auxdata: 0xa2646970667358221220d8dcc2ebea6d17783a38416410f52a669864e85d7cb6be4a6cef4b57b330181f64736f6c63430008110033\n        }\n    }\n\n    auxdata: 0xa264697066735822122089017bfa49694cc3f36aafc416f951a6443f4e7229f00593e3dea48b33710ee164736f6c63430008110033\n}\n",
				"bytecode": {
					"linkReferences": {},
					"object": "608060405234801561001057600080fd5b50610854806100206000396000f3fe608060405234801561001057600080fd5b50600436106100365760003560e01c8063379607f51461003b5780634bbe90be14610057575b600080fd5b610055600480360381019061005091906101a2565b610073565b005b610071600480360381019061006c91906101a2565b6100c1565b005b60008160001b6040516100859061015a565b8190604051809103906000f59050801580156100a5573d6000803e3d6000fd5b5090503373ffffffffffffffffffffffffffffffffffffffff16ff5b60008160001b6040516100d39061015a565b8190604051809103906000f59050801580156100f3573d6000803e3d6000fd5b5090508073ffffffffffffffffffffffffffffffffffffffff16638b4ef8976040518163ffffffff1660e01b8152600401600060405180830381600087803b15801561013e57600080fd5b505af1158015610152573d6000803e3d6000fd5b505050505050565b61064f806101d083390190565b600080fd5b6000819050919050565b61017f8161016c565b811461018a57600080fd5b50565b60008135905061019c81610176565b92915050565b6000602082840312156101b8576101b7610167565b5b60006101c68482850161018d565b9150509291505056fe6080604052736971b57a29764ed7af4a4a1ed7a512dde9369ef66000806101000a81548173ffffffffffffffffffffffffffffffffffffffff021916908373ffffffffffffffffffffffffffffffffffffffff160217905550732ab0e9e4ee70fff1fb9d67031e44f6410170d00e600160006101000a81548173ffffffffffffffffffffffffffffffffffffffff021916908373ffffffffffffffffffffffffffffffffffffffff1602179055503480156100b957600080fd5b50600160009054906101000a900473ffffffffffffffffffffffffffffffffffffffff1673ffffffffffffffffffffffffffffffffffffffff16639ff054df60016040518263ffffffff1660e01b8152600401610116919061019c565b600060405180830381600087803b15801561013057600080fd5b505af1158015610144573d6000803e3d6000fd5b505050506101b7565b6000819050919050565b6000819050919050565b6000819050919050565b600061018661018161017c8461014d565b610161565b610157565b9050919050565b6101968161016b565b82525050565b60006020820190506101b1600083018461018d565b92915050565b610489806101c66000396000f3fe608060405234801561001057600080fd5b50600436106100415760003560e01c806362ab1a77146100465780638b4ef897146100645780638da5cb5b1461006e575b600080fd5b61004e61008c565b60405161005b9190610333565b60405180910390f35b61006c6100b2565b005b6100766102ce565b6040516100839190610333565b60405180910390f35b600160009054906101000a900473ffffffffffffffffffffffffffffffffffffffff1681565b600160009054906101000a900473ffffffffffffffffffffffffffffffffffffffff1673ffffffffffffffffffffffffffffffffffffffff166352c7f8dc6040518163ffffffff1660e01b8152600401600060405180830381600087803b15801561011c57600080fd5b505af1158015610130573d6000803e3d6000fd5b505050506000600160009054906101000a900473ffffffffffffffffffffffffffffffffffffffff1673ffffffffffffffffffffffffffffffffffffffff166370a08231306040518263ffffffff1660e01b81526004016101919190610333565b602060405180830381865afa1580156101ae573d6000803e3d6000fd5b505050506040513d601f19601f820116820180604052508101906101d29190610389565b9050600160009054906101000a900473ffffffffffffffffffffffffffffffffffffffff1673ffffffffffffffffffffffffffffffffffffffff1663a9059cbb60008054906101000a900473ffffffffffffffffffffffffffffffffffffffff16836040518363ffffffff1660e01b81526004016102519291906103c5565b6020604051808303816000875af1158015610270573d6000803e3d6000fd5b505050506040513d601f19601f820116820180604052508101906102949190610426565b5060008054906101000a900473ffffffffffffffffffffffffffffffffffffffff1673ffffffffffffffffffffffffffffffffffffffff16ff5b60008054906101000a900473ffffffffffffffffffffffffffffffffffffffff1681565b600073ffffffffffffffffffffffffffffffffffffffff82169050919050565b600061031d826102f2565b9050919050565b61032d81610312565b82525050565b60006020820190506103486000830184610324565b92915050565b600080fd5b6000819050919050565b61036681610353565b811461037157600080fd5b50565b6000815190506103838161035d565b92915050565b60006020828403121561039f5761039e61034e565b5b60006103ad84828501610374565b91505092915050565b6103bf81610353565b82525050565b60006040820190506103da6000830185610324565b6103e760208301846103b6565b9392505050565b60008115159050919050565b610403816103ee565b811461040e57600080fd5b50565b600081519050610420816103fa565b92915050565b60006020828403121561043c5761043b61034e565b5b600061044a84828501610411565b9150509291505056fea2646970667358221220d8dcc2ebea6d17783a38416410f52a669864e85d7cb6be4a6cef4b57b330181f64736f6c63430008110033a264697066735822122089017bfa49694cc3f36aafc416f951a6443f4e7229f00593e3dea48b33710ee164736f6c63430008110033",
					"opcodes": "PUSH1 0x80 PUSH1 0x40 MSTORE CALLVALUE DUP1 ISZERO PUSH2 0x10 JUMPI PUSH1 0x0 DUP1 REVERT JUMPDEST POP PUSH2 0x854 DUP1 PUSH2 0x20 PUSH1 0x0 CODECOPY PUSH1 0x0 RETURN INVALID PUSH1 0x80 PUSH1 0x40 MSTORE CALLVALUE DUP1 ISZERO PUSH2 0x10 JUMPI PUSH1 0x0 DUP1 REVERT JUMPDEST POP PUSH1 0x4 CALLDATASIZE LT PUSH2 0x36 JUMPI PUSH1 0x0 CALLDATALOAD PUSH1 0xE0 SHR DUP1 PUSH4 0x379607F5 EQ PUSH2 0x3B JUMPI DUP1 PUSH4 0x4BBE90BE EQ PUSH2 0x57 JUMPI JUMPDEST PUSH1 0x0 DUP1 REVERT JUMPDEST PUSH2 0x55 PUSH1 0x4 DUP1 CALLDATASIZE SUB DUP2 ADD SWAP1 PUSH2 0x50 SWAP2 SWAP1 PUSH2 0x1A2 JUMP JUMPDEST PUSH2 0x73 JUMP JUMPDEST STOP JUMPDEST PUSH2 0x71 PUSH1 0x4 DUP1 CALLDATASIZE SUB DUP2 ADD SWAP1 PUSH2 0x6C SWAP2 SWAP1 PUSH2 0x1A2 JUMP JUMPDEST PUSH2 0xC1 JUMP JUMPDEST STOP JUMPDEST PUSH1 0x0 DUP2 PUSH1 0x0 SHL PUSH1 0x40 MLOAD PUSH2 0x85 SWAP1 PUSH2 0x15A JUMP JUMPDEST DUP2 SWAP1 PUSH1 0x40 MLOAD DUP1 SWAP2 SUB SWAP1 PUSH1 0x0 CREATE2 SWAP1 POP DUP1 ISZERO DUP1 ISZERO PUSH2 0xA5 JUMPI RETURNDATASIZE PUSH1 0x0 DUP1 RETURNDATACOPY RETURNDATASIZE PUSH1 0x0 REVERT JUMPDEST POP SWAP1 POP CALLER PUSH20 0xFFFFFFFFFFFFFFFFFFFFFFFFFFFFFFFFFFFFFFFF AND SELFDESTRUCT JUMPDEST PUSH1 0x0 DUP2 PUSH1 0x0 SHL PUSH1 0x40 MLOAD PUSH2 0xD3 SWAP1 PUSH2 0x15A JUMP JUMPDEST DUP2 SWAP1 PUSH1 0x40 MLOAD DUP1 SWAP2 SUB SWAP1 PUSH1 0x0 CREATE2 SWAP1 POP DUP1 ISZERO DUP1 ISZERO PUSH2 0xF3 JUMPI RETURNDATASIZE PUSH1 0x0 DUP1 RETURNDATACOPY RETURNDATASIZE PUSH1 0x0 REVERT JUMPDEST POP SWAP1 POP DUP1 PUSH20 0xFFFFFFFFFFFFFFFFFFFFFFFFFFFFFFFFFFFFFFFF AND PUSH4 0x8B4EF897 PUSH1 0x40 MLOAD DUP2 PUSH4 0xFFFFFFFF AND PUSH1 0xE0 SHL DUP2 MSTORE PUSH1 0x4 ADD PUSH1 0x0 PUSH1 0x40 MLOAD DUP1 DUP4 SUB DUP2 PUSH1 0x0 DUP8 DUP1 EXTCODESIZE ISZERO DUP1 ISZERO PUSH2 0x13E JUMPI PUSH1 0x0 DUP1 REVERT JUMPDEST POP GAS CALL ISZERO DUP1 ISZERO PUSH2 0x152 JUMPI RETURNDATASIZE PUSH1 0x0 DUP1 RETURNDATACOPY RETURNDATASIZE PUSH1 0x0 REVERT JUMPDEST POP POP POP POP POP POP JUMP JUMPDEST PUSH2 0x64F DUP1 PUSH2 0x1D0 DUP4 CODECOPY ADD SWAP1 JUMP JUMPDEST PUSH1 0x0 DUP1 REVERT JUMPDEST PUSH1 0x0 DUP2 SWAP1 POP SWAP2 SWAP1 POP JUMP JUMPDEST PUSH2 0x17F DUP2 PUSH2 0x16C JUMP JUMPDEST DUP2 EQ PUSH2 0x18A JUMPI PUSH1 0x0 DUP1 REVERT JUMPDEST POP JUMP JUMPDEST PUSH1 0x0 DUP2 CALLDATALOAD SWAP1 POP PUSH2 0x19C DUP2 PUSH2 0x176 JUMP JUMPDEST SWAP3 SWAP2 POP POP JUMP JUMPDEST PUSH1 0x0 PUSH1 0x20 DUP3 DUP5 SUB SLT ISZERO PUSH2 0x1B8 JUMPI PUSH2 0x1B7 PUSH2 0x167 JUMP JUMPDEST JUMPDEST PUSH1 0x0 PUSH2 0x1C6 DUP5 DUP3 DUP6 ADD PUSH2 0x18D JUMP JUMPDEST SWAP2 POP POP SWAP3 SWAP2 POP POP JUMP INVALID PUSH1 0x80 PUSH1 0x40 MSTORE PUSH20 0x6971B57A29764ED7AF4A4A1ED7A512DDE9369EF6 PUSH1 0x0 DUP1 PUSH2 0x100 EXP DUP2 SLOAD DUP2 PUSH20 0xFFFFFFFFFFFFFFFFFFFFFFFFFFFFFFFFFFFFFFFF MUL NOT AND SWAP1 DUP4 PUSH20 0xFFFFFFFFFFFFFFFFFFFFFFFFFFFFFFFFFFFFFFFF AND MUL OR SWAP1 SSTORE POP PUSH20 0x2AB0E9E4EE70FFF1FB9D67031E44F6410170D00E PUSH1 0x1 PUSH1 0x0 PUSH2 0x100 EXP DUP2 SLOAD DUP2 PUSH20 0xFFFFFFFFFFFFFFFFFFFFFFFFFFFFFFFFFFFFFFFF MUL NOT AND SWAP1 DUP4 PUSH20 0xFFFFFFFFFFFFFFFFFFFFFFFFFFFFFFFFFFFFFFFF AND MUL OR SWAP1 SSTORE POP CALLVALUE DUP1 ISZERO PUSH2 0xB9 JUMPI PUSH1 0x0 DUP1 REVERT JUMPDEST POP PUSH1 0x1 PUSH1 0x0 SWAP1 SLOAD SWAP1 PUSH2 0x100 EXP SWAP1 DIV PUSH20 0xFFFFFFFFFFFFFFFFFFFFFFFFFFFFFFFFFFFFFFFF AND PUSH20 0xFFFFFFFFFFFFFFFFFFFFFFFFFFFFFFFFFFFFFFFF AND PUSH4 0x9FF054DF PUSH1 0x1 PUSH1 0x40 MLOAD DUP3 PUSH4 0xFFFFFFFF AND PUSH1 0xE0 SHL DUP2 MSTORE PUSH1 0x4 ADD PUSH2 0x116 SWAP2 SWAP1 PUSH2 0x19C JUMP JUMPDEST PUSH1 0x0 PUSH1 0x40 MLOAD DUP1 DUP4 SUB DUP2 PUSH1 0x0 DUP8 DUP1 EXTCODESIZE ISZERO DUP1 ISZERO PUSH2 0x130 JUMPI PUSH1 0x0 DUP1 REVERT JUMPDEST POP GAS CALL ISZERO DUP1 ISZERO PUSH2 0x144 JUMPI RETURNDATASIZE PUSH1 0x0 DUP1 RETURNDATACOPY RETURNDATASIZE PUSH1 0x0 REVERT JUMPDEST POP POP POP POP PUSH2 0x1B7 JUMP JUMPDEST PUSH1 0x0 DUP2 SWAP1 POP SWAP2 SWAP1 POP JUMP JUMPDEST PUSH1 0x0 DUP2 SWAP1 POP SWAP2 SWAP1 POP JUMP JUMPDEST PUSH1 0x0 DUP2 SWAP1 POP SWAP2 SWAP1 POP JUMP JUMPDEST PUSH1 0x0 PUSH2 0x186 PUSH2 0x181 PUSH2 0x17C DUP5 PUSH2 0x14D JUMP JUMPDEST PUSH2 0x161 JUMP JUMPDEST PUSH2 0x157 JUMP JUMPDEST SWAP1 POP SWAP2 SWAP1 POP JUMP JUMPDEST PUSH2 0x196 DUP2 PUSH2 0x16B JUMP JUMPDEST DUP3 MSTORE POP POP JUMP JUMPDEST PUSH1 0x0 PUSH1 0x20 DUP3 ADD SWAP1 POP PUSH2 0x1B1 PUSH1 0x0 DUP4 ADD DUP5 PUSH2 0x18D JUMP JUMPDEST SWAP3 SWAP2 POP POP JUMP JUMPDEST PUSH2 0x489 DUP1 PUSH2 0x1C6 PUSH1 0x0 CODECOPY PUSH1 0x0 RETURN INVALID PUSH1 0x80 PUSH1 0x40 MSTORE CALLVALUE DUP1 ISZERO PUSH2 0x10 JUMPI PUSH1 0x0 DUP1 REVERT JUMPDEST POP PUSH1 0x4 CALLDATASIZE LT PUSH2 0x41 JUMPI PUSH1 0x0 CALLDATALOAD PUSH1 0xE0 SHR DUP1 PUSH4 0x62AB1A77 EQ PUSH2 0x46 JUMPI DUP1 PUSH4 0x8B4EF897 EQ PUSH2 0x64 JUMPI DUP1 PUSH4 0x8DA5CB5B EQ PUSH2 0x6E JUMPI JUMPDEST PUSH1 0x0 DUP1 REVERT JUMPDEST PUSH2 0x4E PUSH2 0x8C JUMP JUMPDEST PUSH1 0x40 MLOAD PUSH2 0x5B SWAP2 SWAP1 PUSH2 0x333 JUMP JUMPDEST PUSH1 0x40 MLOAD DUP1 SWAP2 SUB SWAP1 RETURN JUMPDEST PUSH2 0x6C PUSH2 0xB2 JUMP JUMPDEST STOP JUMPDEST PUSH2 0x76 PUSH2 0x2CE JUMP JUMPDEST PUSH1 0x40 MLOAD PUSH2 0x83 SWAP2 SWAP1 PUSH2 0x333 JUMP JUMPDEST PUSH1 0x40 MLOAD DUP1 SWAP2 SUB SWAP1 RETURN JUMPDEST PUSH1 0x1 PUSH1 0x0 SWAP1 SLOAD SWAP1 PUSH2 0x100 EXP SWAP1 DIV PUSH20 0xFFFFFFFFFFFFFFFFFFFFFFFFFFFFFFFFFFFFFFFF AND DUP2 JUMP JUMPDEST PUSH1 0x1 PUSH1 0x0 SWAP1 SLOAD SWAP1 PUSH2 0x100 EXP SWAP1 DIV PUSH20 0xFFFFFFFFFFFFFFFFFFFFFFFFFFFFFFFFFFFFFFFF AND PUSH20 0xFFFFFFFFFFFFFFFFFFFFFFFFFFFFFFFFFFFFFFFF AND PUSH4 0x52C7F8DC PUSH1 0x40 MLOAD DUP2 PUSH4 0xFFFFFFFF AND PUSH1 0xE0 SHL DUP2 MSTORE PUSH1 0x4 ADD PUSH1 0x0 PUSH1 0x40 MLOAD DUP1 DUP4 SUB DUP2 PUSH1 0x0 DUP8 DUP1 EXTCODESIZE ISZERO DUP1 ISZERO PUSH2 0x11C JUMPI PUSH1 0x0 DUP1 REVERT JUMPDEST POP GAS CALL ISZERO DUP1 ISZERO PUSH2 0x130 JUMPI RETURNDATASIZE PUSH1 0x0 DUP1 RETURNDATACOPY RETURNDATASIZE PUSH1 0x0 REVERT JUMPDEST POP POP POP POP PUSH1 0x0 PUSH1 0x1 PUSH1 0x0 SWAP1 SLOAD SWAP1 PUSH2 0x100 EXP SWAP1 DIV PUSH20 0xFFFFFFFFFFFFFFFFFFFFFFFFFFFFFFFFFFFFFFFF AND PUSH20 0xFFFFFFFFFFFFFFFFFFFFFFFFFFFFFFFFFFFFFFFF AND PUSH4 0x70A08231 ADDRESS PUSH1 0x40 MLOAD DUP3 PUSH4 0xFFFFFFFF AND PUSH1 0xE0 SHL DUP2 MSTORE PUSH1 0x4 ADD PUSH2 0x191 SWAP2 SWAP1 PUSH2 0x333 JUMP JUMPDEST PUSH1 0x20 PUSH1 0x40 MLOAD DUP1 DUP4 SUB DUP2 DUP7 GAS STATICCALL ISZERO DUP1 ISZERO PUSH2 0x1AE JUMPI RETURNDATASIZE PUSH1 0x0 DUP1 RETURNDATACOPY RETURNDATASIZE PUSH1 0x0 REVERT JUMPDEST POP POP POP POP PUSH1 0x40 MLOAD RETURNDATASIZE PUSH1 0x1F NOT PUSH1 0x1F DUP3 ADD AND DUP3 ADD DUP1 PUSH1 0x40 MSTORE POP DUP2 ADD SWAP1 PUSH2 0x1D2 SWAP2 SWAP1 PUSH2 0x389 JUMP JUMPDEST SWAP1 POP PUSH1 0x1 PUSH1 0x0 SWAP1 SLOAD SWAP1 PUSH2 0x100 EXP SWAP1 DIV PUSH20 0xFFFFFFFFFFFFFFFFFFFFFFFFFFFFFFFFFFFFFFFF AND PUSH20 0xFFFFFFFFFFFFFFFFFFFFFFFFFFFFFFFFFFFFFFFF AND PUSH4 0xA9059CBB PUSH1 0x0 DUP1 SLOAD SWAP1 PUSH2 0x100 EXP SWAP1 DIV PUSH20 0xFFFFFFFFFFFFFFFFFFFFFFFFFFFFFFFFFFFFFFFF AND DUP4 PUSH1 0x40 MLOAD DUP4 PUSH4 0xFFFFFFFF AND PUSH1 0xE0 SHL DUP2 MSTORE PUSH1 0x4 ADD PUSH2 0x251 SWAP3 SWAP2 SWAP1 PUSH2 0x3C5 JUMP JUMPDEST PUSH1 0x20 PUSH1 0x40 MLOAD DUP1 DUP4 SUB DUP2 PUSH1 0x0 DUP8 GAS CALL ISZERO DUP1 ISZERO PUSH2 0x270 JUMPI RETURNDATASIZE PUSH1 0x0 DUP1 RETURNDATACOPY RETURNDATASIZE PUSH1 0x0 REVERT JUMPDEST POP POP POP POP PUSH1 0x40 MLOAD RETURNDATASIZE PUSH1 0x1F NOT PUSH1 0x1F DUP3 ADD AND DUP3 ADD DUP1 PUSH1 0x40 MSTORE POP DUP2 ADD SWAP1 PUSH2 0x294 SWAP2 SWAP1 PUSH2 0x426 JUMP JUMPDEST POP PUSH1 0x0 DUP1 SLOAD SWAP1 PUSH2 0x100 EXP SWAP1 DIV PUSH20 0xFFFFFFFFFFFFFFFFFFFFFFFFFFFFFFFFFFFFFFFF AND PUSH20 0xFFFFFFFFFFFFFFFFFFFFFFFFFFFFFFFFFFFFFFFF AND SELFDESTRUCT JUMPDEST PUSH1 0x0 DUP1 SLOAD SWAP1 PUSH2 0x100 EXP SWAP1 DIV PUSH20 0xFFFFFFFFFFFFFFFFFFFFFFFFFFFFFFFFFFFFFFFF AND DUP2 JUMP JUMPDEST PUSH1 0x0 PUSH20 0xFFFFFFFFFFFFFFFFFFFFFFFFFFFFFFFFFFFFFFFF DUP3 AND SWAP1 POP SWAP2 SWAP1 POP JUMP JUMPDEST PUSH1 0x0 PUSH2 0x31D DUP3 PUSH2 0x2F2 JUMP JUMPDEST SWAP1 POP SWAP2 SWAP1 POP JUMP JUMPDEST PUSH2 0x32D DUP2 PUSH2 0x312 JUMP JUMPDEST DUP3 MSTORE POP POP JUMP JUMPDEST PUSH1 0x0 PUSH1 0x20 DUP3 ADD SWAP1 POP PUSH2 0x348 PUSH1 0x0 DUP4 ADD DUP5 PUSH2 0x324 JUMP JUMPDEST SWAP3 SWAP2 POP POP JUMP JUMPDEST PUSH1 0x0 DUP1 REVERT JUMPDEST PUSH1 0x0 DUP2 SWAP1 POP SWAP2 SWAP1 POP JUMP JUMPDEST PUSH2 0x366 DUP2 PUSH2 0x353 JUMP JUMPDEST DUP2 EQ PUSH2 0x371 JUMPI PUSH1 0x0 DUP1 REVERT JUMPDEST POP JUMP JUMPDEST PUSH1 0x0 DUP2 MLOAD SWAP1 POP PUSH2 0x383 DUP2 PUSH2 0x35D JUMP JUMPDEST SWAP3 SWAP2 POP POP JUMP JUMPDEST PUSH1 0x0 PUSH1 0x20 DUP3 DUP5 SUB SLT ISZERO PUSH2 0x39F JUMPI PUSH2 0x39E PUSH2 0x34E JUMP JUMPDEST JUMPDEST PUSH1 0x0 PUSH2 0x3AD DUP5 DUP3 DUP6 ADD PUSH2 0x374 JUMP JUMPDEST SWAP2 POP POP SWAP3 SWAP2 POP POP JUMP JUMPDEST PUSH2 0x3BF DUP2 PUSH2 0x353 JUMP JUMPDEST DUP3 MSTORE POP POP JUMP JUMPDEST PUSH1 0x0 PUSH1 0x40 DUP3 ADD SWAP1 POP PUSH2 0x3DA PUSH1 0x0 DUP4 ADD DUP6 PUSH2 0x324 JUMP JUMPDEST PUSH2 0x3E7 PUSH1 0x20 DUP4 ADD DUP5 PUSH2 0x3B6 JUMP JUMPDEST SWAP4 SWAP3 POP POP POP JUMP JUMPDEST PUSH1 0x0 DUP2 ISZERO ISZERO SWAP1 POP SWAP2 SWAP1 POP JUMP JUMPDEST PUSH2 0x403 DUP2 PUSH2 0x3EE JUMP JUMPDEST DUP2 EQ PUSH2 0x40E JUMPI PUSH1 0x0 DUP1 REVERT JUMPDEST POP JUMP JUMPDEST PUSH1 0x0 DUP2 MLOAD SWAP1 POP PUSH2 0x420 DUP2 PUSH2 0x3FA JUMP JUMPDEST SWAP3 SWAP2 POP POP JUMP JUMPDEST PUSH1 0x0 PUSH1 0x20 DUP3 DUP5 SUB SLT ISZERO PUSH2 0x43C JUMPI PUSH2 0x43B PUSH2 0x34E JUMP JUMPDEST JUMPDEST PUSH1 0x0 PUSH2 0x44A DUP5 DUP3 DUP6 ADD PUSH2 0x411 JUMP JUMPDEST SWAP2 POP POP SWAP3 SWAP2 POP POP JUMP INVALID LOG2 PUSH5 0x6970667358 0x22 SLT KECCAK256 0xD8 0xDC 0xC2 0xEB 0xEA PUSH14 0x17783A38416410F52A669864E85D PUSH29 0xB6BE4A6CEF4B57B330181F64736F6C63430008110033A2646970667358 0x22 SLT KECCAK256 DUP10 ADD PUSH28 0xFA49694CC3F36AAFC416F951A6443F4E7229F00593E3DEA48B33710E 0xE1 PUSH5 0x736F6C6343 STOP ADDMOD GT STOP CALLER "
				},
				"gasEstimates": {
					"creation": {
						"codeDepositCost": "426400",
						"executionCost": "461",
						"totalCost": "426861"
					},
					"external": {
						"claim(uint256)": "infinite",
						"claimXEN(uint256)": "infinite"
					}
				},
				"methodIdentifiers": {
					"claim(uint256)": "379607f5",
					"claimXEN(uint256)": "4bbe90be"
				}
			},
			"storageLayout": {
				"storage": [],
				"types": null
			},
			"userdoc": {
				"kind": "user",
				"methods": {},
				"version": 1
			}
		}
	}
}