{
	"XenFactory/MxenFactory3.sol": {
		"MxenFactory": {
			"abi": [
				{
					"inputs": [],
					"stateMutability": "nonpayable",
					"type": "constructor"
				},
				{
					"inputs": [
						{
							"internalType": "uint256",
							"name": "",
							"type": "uint256"
						}
					],
					"name": "SonAddress",
					"outputs": [
						{
							"internalType": "address",
							"name": "",
							"type": "address"
						}
					],
					"stateMutability": "view",
					"type": "function"
				},
				{
					"inputs": [],
					"name": "_owner",
					"outputs": [
						{
							"internalType": "address",
							"name": "",
							"type": "address"
						}
					],
					"stateMutability": "view",
					"type": "function"
				},
				{
					"inputs": [],
					"name": "claimXEN",
					"outputs": [],
					"stateMutability": "nonpayable",
					"type": "function"
				},
				{
					"inputs": [
						{
							"internalType": "uint256",
							"name": "",
							"type": "uint256"
						}
					],
					"name": "contAddress",
					"outputs": [
						{
							"internalType": "address",
							"name": "",
							"type": "address"
						}
					],
					"stateMutability": "view",
					"type": "function"
				},
				{
					"inputs": [],
					"name": "mintmxen",
					"outputs": [],
					"stateMutability": "nonpayable",
					"type": "function"
				}
			],
			"devdoc": {
				"kind": "dev",
				"methods": {},
				"version": 1
			},
			"evm": {
				"assembly": "    /* \"XenFactory/MxenFactory3.sol\":200:1259  contract MxenFactory{... */\n  mstore(0x40, 0x80)\n    /* \"XenFactory/MxenFactory3.sol\":480:545  constructor()public{... */\n  callvalue\n  dup1\n  iszero\n  tag_1\n  jumpi\n  0x00\n  dup1\n  revert\ntag_1:\n  pop\n    /* \"XenFactory/MxenFactory3.sol\":526:536  msg.sender */\n  caller\n    /* \"XenFactory/MxenFactory3.sol\":510:516  _owner */\n  0x00\n  dup1\n    /* \"XenFactory/MxenFactory3.sol\":510:537  _owner =payable(msg.sender) */\n  0x0100\n  exp\n  dup2\n  sload\n  dup2\n  0xffffffffffffffffffffffffffffffffffffffff\n  mul\n  not\n  and\n  swap1\n  dup4\n  0xffffffffffffffffffffffffffffffffffffffff\n  and\n  mul\n  or\n  swap1\n  sstore\n  pop\n    /* \"XenFactory/MxenFactory3.sol\":200:1259  contract MxenFactory{... */\n  dataSize(sub_0)\n  dup1\n  dataOffset(sub_0)\n  0x00\n  codecopy\n  0x00\n  return\nstop\n\nsub_0: assembly {\n        /* \"XenFactory/MxenFactory3.sol\":200:1259  contract MxenFactory{... */\n      mstore(0x40, 0x80)\n      callvalue\n      dup1\n      iszero\n      tag_1\n      jumpi\n      0x00\n      dup1\n      revert\n    tag_1:\n      pop\n      jumpi(tag_2, lt(calldatasize, 0x04))\n      shr(0xe0, calldataload(0x00))\n      dup1\n      0x5aecbf31\n      eq\n      tag_3\n      jumpi\n      dup1\n      0x5ded7e35\n      eq\n      tag_4\n      jumpi\n      dup1\n      0x6a9021aa\n      eq\n      tag_5\n      jumpi\n      dup1\n      0xb2bdfa7b\n      eq\n      tag_6\n      jumpi\n      dup1\n      0xce677800\n      eq\n      tag_7\n      jumpi\n    tag_2:\n      0x00\n      dup1\n      revert\n        /* \"XenFactory/MxenFactory3.sol\":315:343  address[] public contAddress */\n    tag_3:\n      tag_8\n      0x04\n      dup1\n      calldatasize\n      sub\n      dup2\n      add\n      swap1\n      tag_9\n      swap2\n      swap1\n      tag_10\n      jump\t// in\n    tag_9:\n      tag_11\n      jump\t// in\n    tag_8:\n      mload(0x40)\n      tag_12\n      swap2\n      swap1\n      tag_13\n      jump\t// in\n    tag_12:\n      mload(0x40)\n      dup1\n      swap2\n      sub\n      swap1\n      return\n        /* \"XenFactory/MxenFactory3.sol\":381:426  mapping(uint256 => address) public SonAddress */\n    tag_4:\n      tag_14\n      0x04\n      dup1\n      calldatasize\n      sub\n      dup2\n      add\n      swap1\n      tag_15\n      swap2\n      swap1\n      tag_10\n      jump\t// in\n    tag_15:\n      tag_16\n      jump\t// in\n    tag_14:\n      mload(0x40)\n      tag_17\n      swap2\n      swap1\n      tag_13\n      jump\t// in\n    tag_17:\n      mload(0x40)\n      dup1\n      swap2\n      sub\n      swap1\n      return\n        /* \"XenFactory/MxenFactory3.sol\":585:837  function mintmxen() public {... */\n    tag_5:\n      tag_18\n      tag_19\n      jump\t// in\n    tag_18:\n      stop\n        /* \"XenFactory/MxenFactory3.sol\":257:278  address public _owner */\n    tag_6:\n      tag_20\n      tag_21\n      jump\t// in\n    tag_20:\n      mload(0x40)\n      tag_22\n      swap2\n      swap1\n      tag_13\n      jump\t// in\n    tag_22:\n      mload(0x40)\n      dup1\n      swap2\n      sub\n      swap1\n      return\n        /* \"XenFactory/MxenFactory3.sol\":880:1096  function claimXEN() public{... */\n    tag_7:\n      tag_23\n      tag_24\n      jump\t// in\n    tag_23:\n      stop\n        /* \"XenFactory/MxenFactory3.sol\":315:343  address[] public contAddress */\n    tag_11:\n      0x01\n      dup2\n      dup2\n      sload\n      dup2\n      lt\n      tag_25\n      jumpi\n      0x00\n      dup1\n      revert\n    tag_25:\n      swap1\n      0x00\n      mstore\n      keccak256(0x00, 0x20)\n      add\n      0x00\n      swap2\n      pop\n      sload\n      swap1\n      0x0100\n      exp\n      swap1\n      div\n      0xffffffffffffffffffffffffffffffffffffffff\n      and\n      dup2\n      jump\t// out\n        /* \"XenFactory/MxenFactory3.sol\":381:426  mapping(uint256 => address) public SonAddress */\n    tag_16:\n      mstore(0x20, 0x02)\n      dup1\n      0x00\n      mstore\n      keccak256(0x00, 0x40)\n      0x00\n      swap2\n      pop\n      sload\n      swap1\n      0x0100\n      exp\n      swap1\n      div\n      0xffffffffffffffffffffffffffffffffffffffff\n      and\n      dup2\n      jump\t// out\n        /* \"XenFactory/MxenFactory3.sol\":585:837  function mintmxen() public {... */\n    tag_19:\n        /* \"XenFactory/MxenFactory3.sol\":657:663  uint i */\n      0x00\n        /* \"XenFactory/MxenFactory3.sol\":653:820  for(uint i=0;i<20;i++){... */\n    tag_28:\n        /* \"XenFactory/MxenFactory3.sol\":668:670  20 */\n      0x14\n        /* \"XenFactory/MxenFactory3.sol\":666:667  i */\n      dup2\n        /* \"XenFactory/MxenFactory3.sol\":666:670  i<20 */\n      lt\n        /* \"XenFactory/MxenFactory3.sol\":653:820  for(uint i=0;i<20;i++){... */\n      iszero\n      tag_29\n      jumpi\n        /* \"XenFactory/MxenFactory3.sol\":690:706  address cAddress */\n      0x00\n        /* \"XenFactory/MxenFactory3.sol\":709:723  createActive() */\n      tag_31\n        /* \"XenFactory/MxenFactory3.sol\":709:721  createActive */\n      tag_32\n        /* \"XenFactory/MxenFactory3.sol\":709:723  createActive() */\n      jump\t// in\n    tag_31:\n        /* \"XenFactory/MxenFactory3.sol\":690:723  address cAddress = createActive() */\n      swap1\n      pop\n        /* \"XenFactory/MxenFactory3.sol\":754:762  cAddress */\n      dup1\n        /* \"XenFactory/MxenFactory3.sol\":738:748  SonAddress */\n      0x02\n        /* \"XenFactory/MxenFactory3.sol\":738:751  SonAddress[i] */\n      0x00\n        /* \"XenFactory/MxenFactory3.sol\":749:750  i */\n      dup5\n        /* \"XenFactory/MxenFactory3.sol\":738:751  SonAddress[i] */\n      dup2\n      mstore\n      0x20\n      add\n      swap1\n      dup2\n      mstore\n      0x20\n      add\n      0x00\n      keccak256\n      0x00\n        /* \"XenFactory/MxenFactory3.sol\":738:762  SonAddress[i] = cAddress */\n      0x0100\n      exp\n      dup2\n      sload\n      dup2\n      0xffffffffffffffffffffffffffffffffffffffff\n      mul\n      not\n      and\n      swap1\n      dup4\n      0xffffffffffffffffffffffffffffffffffffffff\n      and\n      mul\n      or\n      swap1\n      sstore\n      pop\n        /* \"XenFactory/MxenFactory3.sol\":777:788  contAddress */\n      0x01\n        /* \"XenFactory/MxenFactory3.sol\":794:804  SonAddress */\n      0x02\n        /* \"XenFactory/MxenFactory3.sol\":794:807  SonAddress[i] */\n      0x00\n        /* \"XenFactory/MxenFactory3.sol\":805:806  i */\n      dup5\n        /* \"XenFactory/MxenFactory3.sol\":794:807  SonAddress[i] */\n      dup2\n      mstore\n      0x20\n      add\n      swap1\n      dup2\n      mstore\n      0x20\n      add\n      0x00\n      keccak256\n      0x00\n      swap1\n      sload\n      swap1\n      0x0100\n      exp\n      swap1\n      div\n      0xffffffffffffffffffffffffffffffffffffffff\n      and\n        /* \"XenFactory/MxenFactory3.sol\":777:808  contAddress.push(SonAddress[i]) */\n      swap1\n      dup1\n      0x01\n      dup2\n      sload\n      add\n      dup1\n      dup3\n      sstore\n      dup1\n      swap2\n      pop\n      pop\n      0x01\n      swap1\n      sub\n      swap1\n      0x00\n      mstore\n      keccak256(0x00, 0x20)\n      add\n      0x00\n      swap1\n      swap2\n      swap1\n      swap2\n      swap1\n      swap2\n      0x0100\n      exp\n      dup2\n      sload\n      dup2\n      0xffffffffffffffffffffffffffffffffffffffff\n      mul\n      not\n      and\n      swap1\n      dup4\n      0xffffffffffffffffffffffffffffffffffffffff\n      and\n      mul\n      or\n      swap1\n      sstore\n      pop\n        /* \"XenFactory/MxenFactory3.sol\":675:820  {... */\n      pop\n        /* \"XenFactory/MxenFactory3.sol\":671:674  i++ */\n      dup1\n      dup1\n      tag_34\n      swap1\n      tag_35\n      jump\t// in\n    tag_34:\n      swap2\n      pop\n      pop\n        /* \"XenFactory/MxenFactory3.sol\":653:820  for(uint i=0;i<20;i++){... */\n      jump(tag_28)\n    tag_29:\n      pop\n        /* \"XenFactory/MxenFactory3.sol\":585:837  function mintmxen() public {... */\n      jump\t// out\n        /* \"XenFactory/MxenFactory3.sol\":257:278  address public _owner */\n    tag_21:\n      0x00\n      dup1\n      sload\n      swap1\n      0x0100\n      exp\n      swap1\n      div\n      0xffffffffffffffffffffffffffffffffffffffff\n      and\n      dup2\n      jump\t// out\n        /* \"XenFactory/MxenFactory3.sol\":880:1096  function claimXEN() public{... */\n    tag_24:\n        /* \"XenFactory/MxenFactory3.sol\":921:927  uint i */\n      0x00\n        /* \"XenFactory/MxenFactory3.sol\":949:950  1 */\n      0x01\n        /* \"XenFactory/MxenFactory3.sol\":930:941  contAddress */\n      dup1\n        /* \"XenFactory/MxenFactory3.sol\":930:948  contAddress.length */\n      dup1\n      sload\n      swap1\n      pop\n        /* \"XenFactory/MxenFactory3.sol\":930:950  contAddress.length-1 */\n      tag_40\n      swap2\n      swap1\n      tag_41\n      jump\t// in\n    tag_40:\n        /* \"XenFactory/MxenFactory3.sol\":921:950  uint i = contAddress.length-1 */\n      swap1\n      pop\n        /* \"XenFactory/MxenFactory3.sol\":917:1088  for(uint i = contAddress.length-1;i>=0;i--){... */\n    tag_37:\n        /* \"XenFactory/MxenFactory3.sol\":954:955  0 */\n      0x00\n        /* \"XenFactory/MxenFactory3.sol\":951:952  i */\n      dup2\n        /* \"XenFactory/MxenFactory3.sol\":951:955  i>=0 */\n      lt\n        /* \"XenFactory/MxenFactory3.sol\":917:1088  for(uint i = contAddress.length-1;i>=0;i--){... */\n      tag_38\n      jumpi\n        /* \"XenFactory/MxenFactory3.sol\":975:994  address stakaddress */\n      0x00\n        /* \"XenFactory/MxenFactory3.sol\":997:1008  contAddress */\n      0x01\n        /* \"XenFactory/MxenFactory3.sol\":1009:1010  i */\n      dup3\n        /* \"XenFactory/MxenFactory3.sol\":997:1011  contAddress[i] */\n      dup2\n      sload\n      dup2\n      lt\n      tag_42\n      jumpi\n      tag_43\n      tag_44\n      jump\t// in\n    tag_43:\n    tag_42:\n      swap1\n      0x00\n      mstore\n      keccak256(0x00, 0x20)\n      add\n      0x00\n      swap1\n      sload\n      swap1\n      0x0100\n      exp\n      swap1\n      div\n      0xffffffffffffffffffffffffffffffffffffffff\n      and\n        /* \"XenFactory/MxenFactory3.sol\":975:1011  address stakaddress = contAddress[i] */\n      swap1\n      pop\n        /* \"XenFactory/MxenFactory3.sol\":1037:1048  stakaddress */\n      dup1\n        /* \"XenFactory/MxenFactory3.sol\":1026:1064  IXenActive(stakaddress).rewardTransfer */\n      0xffffffffffffffffffffffffffffffffffffffff\n      and\n      0x8b4ef897\n        /* \"XenFactory/MxenFactory3.sol\":1026:1066  IXenActive(stakaddress).rewardTransfer() */\n      mload(0x40)\n      dup2\n      0xffffffff\n      and\n      0xe0\n      shl\n      dup2\n      mstore\n      0x04\n      add\n      0x00\n      mload(0x40)\n      dup1\n      dup4\n      sub\n      dup2\n      0x00\n      dup8\n      dup1\n      extcodesize\n      iszero\n      dup1\n      iszero\n      tag_46\n      jumpi\n      0x00\n      dup1\n      revert\n    tag_46:\n      pop\n      gas\n      call\n      iszero\n      dup1\n      iszero\n      tag_48\n      jumpi\n      returndatasize\n      0x00\n      dup1\n      returndatacopy\n      revert(0x00, returndatasize)\n    tag_48:\n      pop\n      pop\n      pop\n      pop\n        /* \"XenFactory/MxenFactory3.sol\":960:1088  {... */\n      pop\n        /* \"XenFactory/MxenFactory3.sol\":956:959  i-- */\n      dup1\n      dup1\n      tag_49\n      swap1\n      tag_50\n      jump\t// in\n    tag_49:\n      swap2\n      pop\n      pop\n        /* \"XenFactory/MxenFactory3.sol\":917:1088  for(uint i = contAddress.length-1;i>=0;i--){... */\n      jump(tag_37)\n    tag_38:\n      pop\n        /* \"XenFactory/MxenFactory3.sol\":880:1096  function claimXEN() public{... */\n      jump\t// out\n        /* \"XenFactory/MxenFactory3.sol\":1127:1254  function createActive() private returns(address) {... */\n    tag_32:\n        /* \"XenFactory/MxenFactory3.sol\":1167:1174  address */\n      0x00\n        /* \"XenFactory/MxenFactory3.sol\":1187:1199  XenActive xa */\n      dup1\n        /* \"XenFactory/MxenFactory3.sol\":1202:1217  new XenActive() */\n      mload(0x40)\n      tag_52\n      swap1\n      tag_53\n      jump\t// in\n    tag_52:\n      mload(0x40)\n      dup1\n      swap2\n      sub\n      swap1\n      0x00\n      create\n      dup1\n      iszero\n      dup1\n      iszero\n      tag_54\n      jumpi\n      returndatasize\n      0x00\n      dup1\n      returndatacopy\n      revert(0x00, returndatasize)\n    tag_54:\n      pop\n        /* \"XenFactory/MxenFactory3.sol\":1187:1217  XenActive xa = new XenActive() */\n      swap1\n      pop\n        /* \"XenFactory/MxenFactory3.sol\":1243:1245  xa */\n      dup1\n        /* \"XenFactory/MxenFactory3.sol\":1228:1246  return address(xa) */\n      swap2\n      pop\n      pop\n        /* \"XenFactory/MxenFactory3.sol\":1127:1254  function createActive() private returns(address) {... */\n      swap1\n      jump\t// out\n    tag_53:\n      dataSize(sub_0)\n      dup1\n      dataOffset(sub_0)\n      dup4\n      codecopy\n      add\n      swap1\n      jump\t// out\n        /* \"#utility.yul\":88:205   */\n    tag_56:\n        /* \"#utility.yul\":197:198   */\n      0x00\n        /* \"#utility.yul\":194:195   */\n      dup1\n        /* \"#utility.yul\":187:199   */\n      revert\n        /* \"#utility.yul\":334:411   */\n    tag_58:\n        /* \"#utility.yul\":371:378   */\n      0x00\n        /* \"#utility.yul\":400:405   */\n      dup2\n        /* \"#utility.yul\":389:405   */\n      swap1\n      pop\n        /* \"#utility.yul\":334:411   */\n      swap2\n      swap1\n      pop\n      jump\t// out\n        /* \"#utility.yul\":417:539   */\n    tag_59:\n        /* \"#utility.yul\":490:514   */\n      tag_71\n        /* \"#utility.yul\":508:513   */\n      dup2\n        /* \"#utility.yul\":490:514   */\n      tag_58\n      jump\t// in\n    tag_71:\n        /* \"#utility.yul\":483:488   */\n      dup2\n        /* \"#utility.yul\":480:515   */\n      eq\n        /* \"#utility.yul\":470:533   */\n      tag_72\n      jumpi\n        /* \"#utility.yul\":529:530   */\n      0x00\n        /* \"#utility.yul\":526:527   */\n      dup1\n        /* \"#utility.yul\":519:531   */\n      revert\n        /* \"#utility.yul\":470:533   */\n    tag_72:\n        /* \"#utility.yul\":417:539   */\n      pop\n      jump\t// out\n        /* \"#utility.yul\":545:684   */\n    tag_60:\n        /* \"#utility.yul\":591:596   */\n      0x00\n        /* \"#utility.yul\":629:635   */\n      dup2\n        /* \"#utility.yul\":616:636   */\n      calldataload\n        /* \"#utility.yul\":607:636   */\n      swap1\n      pop\n        /* \"#utility.yul\":645:678   */\n      tag_74\n        /* \"#utility.yul\":672:677   */\n      dup2\n        /* \"#utility.yul\":645:678   */\n      tag_59\n      jump\t// in\n    tag_74:\n        /* \"#utility.yul\":545:684   */\n      swap3\n      swap2\n      pop\n      pop\n      jump\t// out\n        /* \"#utility.yul\":690:1019   */\n    tag_10:\n        /* \"#utility.yul\":749:755   */\n      0x00\n        /* \"#utility.yul\":798:800   */\n      0x20\n        /* \"#utility.yul\":786:795   */\n      dup3\n        /* \"#utility.yul\":777:784   */\n      dup5\n        /* \"#utility.yul\":773:796   */\n      sub\n        /* \"#utility.yul\":769:801   */\n      slt\n        /* \"#utility.yul\":766:885   */\n      iszero\n      tag_76\n      jumpi\n        /* \"#utility.yul\":804:883   */\n      tag_77\n      tag_56\n      jump\t// in\n    tag_77:\n        /* \"#utility.yul\":766:885   */\n    tag_76:\n        /* \"#utility.yul\":924:925   */\n      0x00\n        /* \"#utility.yul\":949:1002   */\n      tag_78\n        /* \"#utility.yul\":994:1001   */\n      dup5\n        /* \"#utility.yul\":985:991   */\n      dup3\n        /* \"#utility.yul\":974:983   */\n      dup6\n        /* \"#utility.yul\":970:992   */\n      add\n        /* \"#utility.yul\":949:1002   */\n      tag_60\n      jump\t// in\n    tag_78:\n        /* \"#utility.yul\":939:1002   */\n      swap2\n      pop\n        /* \"#utility.yul\":895:1012   */\n      pop\n        /* \"#utility.yul\":690:1019   */\n      swap3\n      swap2\n      pop\n      pop\n      jump\t// out\n        /* \"#utility.yul\":1025:1151   */\n    tag_61:\n        /* \"#utility.yul\":1062:1069   */\n      0x00\n        /* \"#utility.yul\":1102:1144   */\n      0xffffffffffffffffffffffffffffffffffffffff\n        /* \"#utility.yul\":1095:1100   */\n      dup3\n        /* \"#utility.yul\":1091:1145   */\n      and\n        /* \"#utility.yul\":1080:1145   */\n      swap1\n      pop\n        /* \"#utility.yul\":1025:1151   */\n      swap2\n      swap1\n      pop\n      jump\t// out\n        /* \"#utility.yul\":1157:1253   */\n    tag_62:\n        /* \"#utility.yul\":1194:1201   */\n      0x00\n        /* \"#utility.yul\":1223:1247   */\n      tag_81\n        /* \"#utility.yul\":1241:1246   */\n      dup3\n        /* \"#utility.yul\":1223:1247   */\n      tag_61\n      jump\t// in\n    tag_81:\n        /* \"#utility.yul\":1212:1247   */\n      swap1\n      pop\n        /* \"#utility.yul\":1157:1253   */\n      swap2\n      swap1\n      pop\n      jump\t// out\n        /* \"#utility.yul\":1259:1377   */\n    tag_63:\n        /* \"#utility.yul\":1346:1370   */\n      tag_83\n        /* \"#utility.yul\":1364:1369   */\n      dup2\n        /* \"#utility.yul\":1346:1370   */\n      tag_62\n      jump\t// in\n    tag_83:\n        /* \"#utility.yul\":1341:1344   */\n      dup3\n        /* \"#utility.yul\":1334:1371   */\n      mstore\n        /* \"#utility.yul\":1259:1377   */\n      pop\n      pop\n      jump\t// out\n        /* \"#utility.yul\":1383:1605   */\n    tag_13:\n        /* \"#utility.yul\":1476:1480   */\n      0x00\n        /* \"#utility.yul\":1514:1516   */\n      0x20\n        /* \"#utility.yul\":1503:1512   */\n      dup3\n        /* \"#utility.yul\":1499:1517   */\n      add\n        /* \"#utility.yul\":1491:1517   */\n      swap1\n      pop\n        /* \"#utility.yul\":1527:1598   */\n      tag_85\n        /* \"#utility.yul\":1595:1596   */\n      0x00\n        /* \"#utility.yul\":1584:1593   */\n      dup4\n        /* \"#utility.yul\":1580:1597   */\n      add\n        /* \"#utility.yul\":1571:1577   */\n      dup5\n        /* \"#utility.yul\":1527:1598   */\n      tag_63\n      jump\t// in\n    tag_85:\n        /* \"#utility.yul\":1383:1605   */\n      swap3\n      swap2\n      pop\n      pop\n      jump\t// out\n        /* \"#utility.yul\":1611:1791   */\n    tag_64:\n        /* \"#utility.yul\":1659:1736   */\n      0x4e487b7100000000000000000000000000000000000000000000000000000000\n        /* \"#utility.yul\":1656:1657   */\n      0x00\n        /* \"#utility.yul\":1649:1737   */\n      mstore\n        /* \"#utility.yul\":1756:1760   */\n      0x11\n        /* \"#utility.yul\":1753:1754   */\n      0x04\n        /* \"#utility.yul\":1746:1761   */\n      mstore\n        /* \"#utility.yul\":1780:1784   */\n      0x24\n        /* \"#utility.yul\":1777:1778   */\n      0x00\n        /* \"#utility.yul\":1770:1785   */\n      revert\n        /* \"#utility.yul\":1797:2030   */\n    tag_35:\n        /* \"#utility.yul\":1836:1839   */\n      0x00\n        /* \"#utility.yul\":1859:1883   */\n      tag_88\n        /* \"#utility.yul\":1877:1882   */\n      dup3\n        /* \"#utility.yul\":1859:1883   */\n      tag_58\n      jump\t// in\n    tag_88:\n        /* \"#utility.yul\":1850:1883   */\n      swap2\n      pop\n        /* \"#utility.yul\":1905:1971   */\n      0xffffffffffffffffffffffffffffffffffffffffffffffffffffffffffffffff\n        /* \"#utility.yul\":1898:1903   */\n      dup3\n        /* \"#utility.yul\":1895:1972   */\n      sub\n        /* \"#utility.yul\":1892:1995   */\n      tag_89\n      jumpi\n        /* \"#utility.yul\":1975:1993   */\n      tag_90\n      tag_64\n      jump\t// in\n    tag_90:\n        /* \"#utility.yul\":1892:1995   */\n    tag_89:\n        /* \"#utility.yul\":2022:2023   */\n      0x01\n        /* \"#utility.yul\":2015:2020   */\n      dup3\n        /* \"#utility.yul\":2011:2024   */\n      add\n        /* \"#utility.yul\":2004:2024   */\n      swap1\n      pop\n        /* \"#utility.yul\":1797:2030   */\n      swap2\n      swap1\n      pop\n      jump\t// out\n        /* \"#utility.yul\":2036:2230   */\n    tag_41:\n        /* \"#utility.yul\":2076:2080   */\n      0x00\n        /* \"#utility.yul\":2096:2116   */\n      tag_92\n        /* \"#utility.yul\":2114:2115   */\n      dup3\n        /* \"#utility.yul\":2096:2116   */\n      tag_58\n      jump\t// in\n    tag_92:\n        /* \"#utility.yul\":2091:2116   */\n      swap2\n      pop\n        /* \"#utility.yul\":2130:2150   */\n      tag_93\n        /* \"#utility.yul\":2148:2149   */\n      dup4\n        /* \"#utility.yul\":2130:2150   */\n      tag_58\n      jump\t// in\n    tag_93:\n        /* \"#utility.yul\":2125:2150   */\n      swap3\n      pop\n        /* \"#utility.yul\":2174:2175   */\n      dup3\n        /* \"#utility.yul\":2171:2172   */\n      dup3\n        /* \"#utility.yul\":2167:2176   */\n      sub\n        /* \"#utility.yul\":2159:2176   */\n      swap1\n      pop\n        /* \"#utility.yul\":2198:2199   */\n      dup2\n        /* \"#utility.yul\":2192:2196   */\n      dup2\n        /* \"#utility.yul\":2189:2200   */\n      gt\n        /* \"#utility.yul\":2186:2223   */\n      iszero\n      tag_94\n      jumpi\n        /* \"#utility.yul\":2203:2221   */\n      tag_95\n      tag_64\n      jump\t// in\n    tag_95:\n        /* \"#utility.yul\":2186:2223   */\n    tag_94:\n        /* \"#utility.yul\":2036:2230   */\n      swap3\n      swap2\n      pop\n      pop\n      jump\t// out\n        /* \"#utility.yul\":2236:2416   */\n    tag_44:\n        /* \"#utility.yul\":2284:2361   */\n      0x4e487b7100000000000000000000000000000000000000000000000000000000\n        /* \"#utility.yul\":2281:2282   */\n      0x00\n        /* \"#utility.yul\":2274:2362   */\n      mstore\n        /* \"#utility.yul\":2381:2385   */\n      0x32\n        /* \"#utility.yul\":2378:2379   */\n      0x04\n        /* \"#utility.yul\":2371:2386   */\n      mstore\n        /* \"#utility.yul\":2405:2409   */\n      0x24\n        /* \"#utility.yul\":2402:2403   */\n      0x00\n        /* \"#utility.yul\":2395:2410   */\n      revert\n        /* \"#utility.yul\":2422:2593   */\n    tag_50:\n        /* \"#utility.yul\":2461:2464   */\n      0x00\n        /* \"#utility.yul\":2484:2508   */\n      tag_98\n        /* \"#utility.yul\":2502:2507   */\n      dup3\n        /* \"#utility.yul\":2484:2508   */\n      tag_58\n      jump\t// in\n    tag_98:\n        /* \"#utility.yul\":2475:2508   */\n      swap2\n      pop\n        /* \"#utility.yul\":2530:2534   */\n      0x00\n        /* \"#utility.yul\":2523:2528   */\n      dup3\n        /* \"#utility.yul\":2520:2535   */\n      sub\n        /* \"#utility.yul\":2517:2558   */\n      tag_99\n      jumpi\n        /* \"#utility.yul\":2538:2556   */\n      tag_100\n      tag_64\n      jump\t// in\n    tag_100:\n        /* \"#utility.yul\":2517:2558   */\n    tag_99:\n        /* \"#utility.yul\":2585:2586   */\n      0x01\n        /* \"#utility.yul\":2578:2583   */\n      dup3\n        /* \"#utility.yul\":2574:2587   */\n      sub\n        /* \"#utility.yul\":2567:2587   */\n      swap1\n      pop\n        /* \"#utility.yul\":2422:2593   */\n      swap2\n      swap1\n      pop\n      jump\t// out\n    stop\n\n    sub_0: assembly {\n            /* \"XenFactory/XenActive.sol\":345:1033  contract XenActive{... */\n          mstore(0x40, 0x80)\n            /* \"XenFactory/XenActive.sol\":415:457  0x6971b57a29764eD7af4A4a1ED7a512Dde9369Ef6 */\n          0x6971b57a29764ed7af4a4a1ed7a512dde9369ef6\n            /* \"XenFactory/XenActive.sol\":393:457  address public owner= 0x6971b57a29764eD7af4A4a1ED7a512Dde9369Ef6 */\n          0x00\n          dup1\n          0x0100\n          exp\n          dup2\n          sload\n          dup2\n          0xffffffffffffffffffffffffffffffffffffffff\n          mul\n          not\n          and\n          swap1\n          dup4\n          0xffffffffffffffffffffffffffffffffffffffff\n          and\n          mul\n          or\n          swap1\n          sstore\n          pop\n            /* \"XenFactory/XenActive.sol\":513:555  0x2AB0e9e4eE70FFf1fB9D67031E44F6410170d00e */\n          0x2ab0e9e4ee70fff1fb9d67031e44f6410170d00e\n            /* \"XenFactory/XenActive.sol\":490:555  address public _addr = 0x2AB0e9e4eE70FFf1fB9D67031E44F6410170d00e */\n          0x01\n          exp(0x0100, 0x00)\n          dup2\n          sload\n          dup2\n          0xffffffffffffffffffffffffffffffffffffffff\n          mul\n          not\n          and\n          swap1\n          dup4\n          0xffffffffffffffffffffffffffffffffffffffff\n          and\n          mul\n          or\n          swap1\n          sstore\n          pop\n            /* \"XenFactory/XenActive.sol\":591:640  constructor() public{... */\n          callvalue\n          dup1\n          iszero\n          tag_1\n          jumpi\n          0x00\n          dup1\n          revert\n        tag_1:\n          pop\n            /* \"XenFactory/XenActive.sol\":622:632  claimxen() */\n          tag_4\n            /* \"XenFactory/XenActive.sol\":622:630  claimxen */\n          shl(0x20, tag_5)\n            /* \"XenFactory/XenActive.sol\":622:632  claimxen() */\n          0x20\n          shr\n          jump\t// in\n        tag_4:\n            /* \"XenFactory/XenActive.sol\":345:1033  contract XenActive{... */\n          jump(tag_6)\n            /* \"XenFactory/XenActive.sol\":648:744  function claimxen() private{... */\n        tag_5:\n            /* \"XenFactory/XenActive.sol\":717:722  _addr */\n          0x01\n          0x00\n          swap1\n          sload\n          swap1\n          0x0100\n          exp\n          swap1\n          div\n          0xffffffffffffffffffffffffffffffffffffffff\n          and\n            /* \"XenFactory/XenActive.sol\":712:733  IXen(_addr).claimRank */\n          0xffffffffffffffffffffffffffffffffffffffff\n          and\n          0x9ff054df\n            /* \"XenFactory/XenActive.sol\":734:735  1 */\n          0x01\n            /* \"XenFactory/XenActive.sol\":712:736  IXen(_addr).claimRank(1) */\n          mload(0x40)\n          dup3\n          0xffffffff\n          and\n          0xe0\n          shl\n          dup2\n          mstore\n          0x04\n          add\n          tag_8\n          swap2\n          swap1\n          tag_9\n          jump\t// in\n        tag_8:\n          0x00\n          mload(0x40)\n          dup1\n          dup4\n          sub\n          dup2\n          0x00\n          dup8\n          dup1\n          extcodesize\n          iszero\n          dup1\n          iszero\n          tag_10\n          jumpi\n          0x00\n          dup1\n          revert\n        tag_10:\n          pop\n          gas\n          call\n          iszero\n          dup1\n          iszero\n          tag_12\n          jumpi\n          returndatasize\n          0x00\n          dup1\n          returndatacopy\n          revert(0x00, returndatasize)\n        tag_12:\n          pop\n          pop\n          pop\n          pop\n            /* \"XenFactory/XenActive.sol\":648:744  function claimxen() private{... */\n          jump\t// out\n            /* \"#utility.yul\":7:92   */\n        tag_13:\n            /* \"#utility.yul\":52:59   */\n          0x00\n            /* \"#utility.yul\":81:86   */\n          dup2\n            /* \"#utility.yul\":70:86   */\n          swap1\n          pop\n            /* \"#utility.yul\":7:92   */\n          swap2\n          swap1\n          pop\n          jump\t// out\n            /* \"#utility.yul\":98:175   */\n        tag_14:\n            /* \"#utility.yul\":135:142   */\n          0x00\n            /* \"#utility.yul\":164:169   */\n          dup2\n            /* \"#utility.yul\":153:169   */\n          swap1\n          pop\n            /* \"#utility.yul\":98:175   */\n          swap2\n          swap1\n          pop\n          jump\t// out\n            /* \"#utility.yul\":181:241   */\n        tag_15:\n            /* \"#utility.yul\":209:212   */\n          0x00\n            /* \"#utility.yul\":230:235   */\n          dup2\n            /* \"#utility.yul\":223:235   */\n          swap1\n          pop\n            /* \"#utility.yul\":181:241   */\n          swap2\n          swap1\n          pop\n          jump\t// out\n            /* \"#utility.yul\":247:405   */\n        tag_16:\n            /* \"#utility.yul\":305:314   */\n          0x00\n            /* \"#utility.yul\":338:399   */\n          tag_23\n            /* \"#utility.yul\":356:398   */\n          tag_24\n            /* \"#utility.yul\":365:397   */\n          tag_25\n            /* \"#utility.yul\":391:396   */\n          dup5\n            /* \"#utility.yul\":365:397   */\n          tag_13\n          jump\t// in\n        tag_25:\n            /* \"#utility.yul\":356:398   */\n          tag_15\n          jump\t// in\n        tag_24:\n            /* \"#utility.yul\":338:399   */\n          tag_14\n          jump\t// in\n        tag_23:\n            /* \"#utility.yul\":325:399   */\n          swap1\n          pop\n            /* \"#utility.yul\":247:405   */\n          swap2\n          swap1\n          pop\n          jump\t// out\n            /* \"#utility.yul\":411:558   */\n        tag_17:\n            /* \"#utility.yul\":506:551   */\n          tag_27\n            /* \"#utility.yul\":545:550   */\n          dup2\n            /* \"#utility.yul\":506:551   */\n          tag_16\n          jump\t// in\n        tag_27:\n            /* \"#utility.yul\":501:504   */\n          dup3\n            /* \"#utility.yul\":494:552   */\n          mstore\n            /* \"#utility.yul\":411:558   */\n          pop\n          pop\n          jump\t// out\n            /* \"#utility.yul\":564:802   */\n        tag_9:\n            /* \"#utility.yul\":665:669   */\n          0x00\n            /* \"#utility.yul\":703:705   */\n          0x20\n            /* \"#utility.yul\":692:701   */\n          dup3\n            /* \"#utility.yul\":688:706   */\n          add\n            /* \"#utility.yul\":680:706   */\n          swap1\n          pop\n            /* \"#utility.yul\":716:795   */\n          tag_29\n            /* \"#utility.yul\":792:793   */\n          0x00\n            /* \"#utility.yul\":781:790   */\n          dup4\n            /* \"#utility.yul\":777:794   */\n          add\n            /* \"#utility.yul\":768:774   */\n          dup5\n            /* \"#utility.yul\":716:795   */\n          tag_17\n          jump\t// in\n        tag_29:\n            /* \"#utility.yul\":564:802   */\n          swap3\n          swap2\n          pop\n          pop\n          jump\t// out\n            /* \"XenFactory/XenActive.sol\":345:1033  contract XenActive{... */\n        tag_6:\n          dataSize(sub_0)\n          dup1\n          dataOffset(sub_0)\n          0x00\n          codecopy\n          0x00\n          return\n        stop\n\n        sub_0: assembly {\n                /* \"XenFactory/XenActive.sol\":345:1033  contract XenActive{... */\n              mstore(0x40, 0x80)\n              callvalue\n              dup1\n              iszero\n              tag_1\n              jumpi\n              0x00\n              dup1\n              revert\n            tag_1:\n              pop\n              jumpi(tag_2, lt(calldatasize, 0x04))\n              shr(0xe0, calldataload(0x00))\n              dup1\n              0x62ab1a77\n              eq\n              tag_3\n              jumpi\n              dup1\n              0x8b4ef897\n              eq\n              tag_4\n              jumpi\n              dup1\n              0x8da5cb5b\n              eq\n              tag_5\n              jumpi\n            tag_2:\n              0x00\n              dup1\n              revert\n                /* \"XenFactory/XenActive.sol\":490:555  address public _addr = 0x2AB0e9e4eE70FFf1fB9D67031E44F6410170d00e */\n            tag_3:\n              tag_6\n              tag_7\n              jump\t// in\n            tag_6:\n              mload(0x40)\n              tag_8\n              swap2\n              swap1\n              tag_9\n              jump\t// in\n            tag_8:\n              mload(0x40)\n              dup1\n              swap2\n              sub\n              swap1\n              return\n                /* \"XenFactory/XenActive.sol\":792:1028  function rewardTransfer() external {... */\n            tag_4:\n              tag_10\n              tag_11\n              jump\t// in\n            tag_10:\n              stop\n                /* \"XenFactory/XenActive.sol\":393:457  address public owner= 0x6971b57a29764eD7af4A4a1ED7a512Dde9369Ef6 */\n            tag_5:\n              tag_12\n              tag_13\n              jump\t// in\n            tag_12:\n              mload(0x40)\n              tag_14\n              swap2\n              swap1\n              tag_9\n              jump\t// in\n            tag_14:\n              mload(0x40)\n              dup1\n              swap2\n              sub\n              swap1\n              return\n                /* \"XenFactory/XenActive.sol\":490:555  address public _addr = 0x2AB0e9e4eE70FFf1fB9D67031E44F6410170d00e */\n            tag_7:\n              0x01\n              0x00\n              swap1\n              sload\n              swap1\n              0x0100\n              exp\n              swap1\n              div\n              0xffffffffffffffffffffffffffffffffffffffff\n              and\n              dup2\n              jump\t// out\n                /* \"XenFactory/XenActive.sol\":792:1028  function rewardTransfer() external {... */\n            tag_11:\n                /* \"XenFactory/XenActive.sol\":843:848  _addr */\n              0x01\n              0x00\n              swap1\n              sload\n              swap1\n              0x0100\n              exp\n              swap1\n              div\n              0xffffffffffffffffffffffffffffffffffffffff\n              and\n                /* \"XenFactory/XenActive.sol\":838:865  IXen(_addr).claimMintReward */\n              0xffffffffffffffffffffffffffffffffffffffff\n              and\n              0x52c7f8dc\n                /* \"XenFactory/XenActive.sol\":838:867  IXen(_addr).claimMintReward() */\n              mload(0x40)\n              dup2\n              0xffffffff\n              and\n              0xe0\n              shl\n              dup2\n              mstore\n              0x04\n              add\n              0x00\n              mload(0x40)\n              dup1\n              dup4\n              sub\n              dup2\n              0x00\n              dup8\n              dup1\n              extcodesize\n              iszero\n              dup1\n              iszero\n              tag_16\n              jumpi\n              0x00\n              dup1\n              revert\n            tag_16:\n              pop\n              gas\n              call\n              iszero\n              dup1\n              iszero\n              tag_18\n              jumpi\n              returndatasize\n              0x00\n              dup1\n              returndatacopy\n              revert(0x00, returndatasize)\n            tag_18:\n              pop\n              pop\n              pop\n              pop\n                /* \"XenFactory/XenActive.sol\":878:894  uint256 banlance */\n              0x00\n                /* \"XenFactory/XenActive.sol\":902:907  _addr */\n              0x01\n              0x00\n              swap1\n              sload\n              swap1\n              0x0100\n              exp\n              swap1\n              div\n              0xffffffffffffffffffffffffffffffffffffffff\n              and\n                /* \"XenFactory/XenActive.sol\":897:918  IXen(_addr).balanceOf */\n              0xffffffffffffffffffffffffffffffffffffffff\n              and\n              0x70a08231\n                /* \"XenFactory/XenActive.sol\":927:931  this */\n              address\n                /* \"XenFactory/XenActive.sol\":897:933  IXen(_addr).balanceOf(address(this)) */\n              mload(0x40)\n              dup3\n              0xffffffff\n              and\n              0xe0\n              shl\n              dup2\n              mstore\n              0x04\n              add\n              tag_19\n              swap2\n              swap1\n              tag_9\n              jump\t// in\n            tag_19:\n              0x20\n              mload(0x40)\n              dup1\n              dup4\n              sub\n              dup2\n              dup7\n              gas\n              staticcall\n              iszero\n              dup1\n              iszero\n              tag_21\n              jumpi\n              returndatasize\n              0x00\n              dup1\n              returndatacopy\n              revert(0x00, returndatasize)\n            tag_21:\n              pop\n              pop\n              pop\n              pop\n              mload(0x40)\n              returndatasize\n              not(0x1f)\n              0x1f\n              dup3\n              add\n              and\n              dup3\n              add\n              dup1\n              0x40\n              mstore\n              pop\n              dup2\n              add\n              swap1\n              tag_22\n              swap2\n              swap1\n              tag_23\n              jump\t// in\n            tag_22:\n                /* \"XenFactory/XenActive.sol\":878:933  uint256 banlance = IXen(_addr).balanceOf(address(this)) */\n              swap1\n              pop\n                /* \"XenFactory/XenActive.sol\":949:954  _addr */\n              0x01\n              0x00\n              swap1\n              sload\n              swap1\n              0x0100\n              exp\n              swap1\n              div\n              0xffffffffffffffffffffffffffffffffffffffff\n              and\n                /* \"XenFactory/XenActive.sol\":944:964  IXen(_addr).transfer */\n              0xffffffffffffffffffffffffffffffffffffffff\n              and\n              0xa9059cbb\n                /* \"XenFactory/XenActive.sol\":965:970  owner */\n              0x00\n              dup1\n              sload\n              swap1\n              0x0100\n              exp\n              swap1\n              div\n              0xffffffffffffffffffffffffffffffffffffffff\n              and\n                /* \"XenFactory/XenActive.sol\":972:980  banlance */\n              dup4\n                /* \"XenFactory/XenActive.sol\":944:981  IXen(_addr).transfer(owner, banlance) */\n              mload(0x40)\n              dup4\n              0xffffffff\n              and\n              0xe0\n              shl\n              dup2\n              mstore\n              0x04\n              add\n              tag_24\n              swap3\n              swap2\n              swap1\n              tag_25\n              jump\t// in\n            tag_24:\n              0x20\n              mload(0x40)\n              dup1\n              dup4\n              sub\n              dup2\n              0x00\n              dup8\n              gas\n              call\n              iszero\n              dup1\n              iszero\n              tag_27\n              jumpi\n              returndatasize\n              0x00\n              dup1\n              returndatacopy\n              revert(0x00, returndatasize)\n            tag_27:\n              pop\n              pop\n              pop\n              pop\n              mload(0x40)\n              returndatasize\n              not(0x1f)\n              0x1f\n              dup3\n              add\n              and\n              dup3\n              add\n              dup1\n              0x40\n              mstore\n              pop\n              dup2\n              add\n              swap1\n              tag_28\n              swap2\n              swap1\n              tag_29\n              jump\t// in\n            tag_28:\n              pop\n                /* \"XenFactory/XenActive.sol\":1013:1018  owner */\n              0x00\n              dup1\n              sload\n              swap1\n              0x0100\n              exp\n              swap1\n              div\n              0xffffffffffffffffffffffffffffffffffffffff\n              and\n                /* \"XenFactory/XenActive.sol\":992:1020  selfdestruct(payable(owner)) */\n              0xffffffffffffffffffffffffffffffffffffffff\n              and\n              selfdestruct\n                /* \"XenFactory/XenActive.sol\":393:457  address public owner= 0x6971b57a29764eD7af4A4a1ED7a512Dde9369Ef6 */\n            tag_13:\n              0x00\n              dup1\n              sload\n              swap1\n              0x0100\n              exp\n              swap1\n              div\n              0xffffffffffffffffffffffffffffffffffffffff\n              and\n              dup2\n              jump\t// out\n                /* \"#utility.yul\":7:133   */\n            tag_30:\n                /* \"#utility.yul\":44:51   */\n              0x00\n                /* \"#utility.yul\":84:126   */\n              0xffffffffffffffffffffffffffffffffffffffff\n                /* \"#utility.yul\":77:82   */\n              dup3\n                /* \"#utility.yul\":73:127   */\n              and\n                /* \"#utility.yul\":62:127   */\n              swap1\n              pop\n                /* \"#utility.yul\":7:133   */\n              swap2\n              swap1\n              pop\n              jump\t// out\n                /* \"#utility.yul\":139:235   */\n            tag_31:\n                /* \"#utility.yul\":176:183   */\n              0x00\n                /* \"#utility.yul\":205:229   */\n              tag_46\n                /* \"#utility.yul\":223:228   */\n              dup3\n                /* \"#utility.yul\":205:229   */\n              tag_30\n              jump\t// in\n            tag_46:\n                /* \"#utility.yul\":194:229   */\n              swap1\n              pop\n                /* \"#utility.yul\":139:235   */\n              swap2\n              swap1\n              pop\n              jump\t// out\n                /* \"#utility.yul\":241:359   */\n            tag_32:\n                /* \"#utility.yul\":328:352   */\n              tag_48\n                /* \"#utility.yul\":346:351   */\n              dup2\n                /* \"#utility.yul\":328:352   */\n              tag_31\n              jump\t// in\n            tag_48:\n                /* \"#utility.yul\":323:326   */\n              dup3\n                /* \"#utility.yul\":316:353   */\n              mstore\n                /* \"#utility.yul\":241:359   */\n              pop\n              pop\n              jump\t// out\n                /* \"#utility.yul\":365:587   */\n            tag_9:\n                /* \"#utility.yul\":458:462   */\n              0x00\n                /* \"#utility.yul\":496:498   */\n              0x20\n                /* \"#utility.yul\":485:494   */\n              dup3\n                /* \"#utility.yul\":481:499   */\n              add\n                /* \"#utility.yul\":473:499   */\n              swap1\n              pop\n                /* \"#utility.yul\":509:580   */\n              tag_50\n                /* \"#utility.yul\":577:578   */\n              0x00\n                /* \"#utility.yul\":566:575   */\n              dup4\n                /* \"#utility.yul\":562:579   */\n              add\n                /* \"#utility.yul\":553:559   */\n              dup5\n                /* \"#utility.yul\":509:580   */\n              tag_32\n              jump\t// in\n            tag_50:\n                /* \"#utility.yul\":365:587   */\n              swap3\n              swap2\n              pop\n              pop\n              jump\t// out\n                /* \"#utility.yul\":674:791   */\n            tag_34:\n                /* \"#utility.yul\":783:784   */\n              0x00\n                /* \"#utility.yul\":780:781   */\n              dup1\n                /* \"#utility.yul\":773:785   */\n              revert\n                /* \"#utility.yul\":920:997   */\n            tag_36:\n                /* \"#utility.yul\":957:964   */\n              0x00\n                /* \"#utility.yul\":986:991   */\n              dup2\n                /* \"#utility.yul\":975:991   */\n              swap1\n              pop\n                /* \"#utility.yul\":920:997   */\n              swap2\n              swap1\n              pop\n              jump\t// out\n                /* \"#utility.yul\":1003:1125   */\n            tag_37:\n                /* \"#utility.yul\":1076:1100   */\n              tag_56\n                /* \"#utility.yul\":1094:1099   */\n              dup2\n                /* \"#utility.yul\":1076:1100   */\n              tag_36\n              jump\t// in\n            tag_56:\n                /* \"#utility.yul\":1069:1074   */\n              dup2\n                /* \"#utility.yul\":1066:1101   */\n              eq\n                /* \"#utility.yul\":1056:1119   */\n              tag_57\n              jumpi\n                /* \"#utility.yul\":1115:1116   */\n              0x00\n                /* \"#utility.yul\":1112:1113   */\n              dup1\n                /* \"#utility.yul\":1105:1117   */\n              revert\n                /* \"#utility.yul\":1056:1119   */\n            tag_57:\n                /* \"#utility.yul\":1003:1125   */\n              pop\n              jump\t// out\n                /* \"#utility.yul\":1131:1274   */\n            tag_38:\n                /* \"#utility.yul\":1188:1193   */\n              0x00\n                /* \"#utility.yul\":1219:1225   */\n              dup2\n                /* \"#utility.yul\":1213:1226   */\n              mload\n                /* \"#utility.yul\":1204:1226   */\n              swap1\n              pop\n                /* \"#utility.yul\":1235:1268   */\n              tag_59\n                /* \"#utility.yul\":1262:1267   */\n              dup2\n                /* \"#utility.yul\":1235:1268   */\n              tag_37\n              jump\t// in\n            tag_59:\n                /* \"#utility.yul\":1131:1274   */\n              swap3\n              swap2\n              pop\n              pop\n              jump\t// out\n                /* \"#utility.yul\":1280:1631   */\n            tag_23:\n                /* \"#utility.yul\":1350:1356   */\n              0x00\n                /* \"#utility.yul\":1399:1401   */\n              0x20\n                /* \"#utility.yul\":1387:1396   */\n              dup3\n                /* \"#utility.yul\":1378:1385   */\n              dup5\n                /* \"#utility.yul\":1374:1397   */\n              sub\n                /* \"#utility.yul\":1370:1402   */\n              slt\n                /* \"#utility.yul\":1367:1486   */\n              iszero\n              tag_61\n              jumpi\n                /* \"#utility.yul\":1405:1484   */\n              tag_62\n              tag_34\n              jump\t// in\n            tag_62:\n                /* \"#utility.yul\":1367:1486   */\n            tag_61:\n                /* \"#utility.yul\":1525:1526   */\n              0x00\n                /* \"#utility.yul\":1550:1614   */\n              tag_63\n                /* \"#utility.yul\":1606:1613   */\n              dup5\n                /* \"#utility.yul\":1597:1603   */\n              dup3\n                /* \"#utility.yul\":1586:1595   */\n              dup6\n                /* \"#utility.yul\":1582:1604   */\n              add\n                /* \"#utility.yul\":1550:1614   */\n              tag_38\n              jump\t// in\n            tag_63:\n                /* \"#utility.yul\":1540:1614   */\n              swap2\n              pop\n                /* \"#utility.yul\":1496:1624   */\n              pop\n                /* \"#utility.yul\":1280:1631   */\n              swap3\n              swap2\n              pop\n              pop\n              jump\t// out\n                /* \"#utility.yul\":1637:1755   */\n            tag_39:\n                /* \"#utility.yul\":1724:1748   */\n              tag_65\n                /* \"#utility.yul\":1742:1747   */\n              dup2\n                /* \"#utility.yul\":1724:1748   */\n              tag_36\n              jump\t// in\n            tag_65:\n                /* \"#utility.yul\":1719:1722   */\n              dup3\n                /* \"#utility.yul\":1712:1749   */\n              mstore\n                /* \"#utility.yul\":1637:1755   */\n              pop\n              pop\n              jump\t// out\n                /* \"#utility.yul\":1761:2093   */\n            tag_25:\n                /* \"#utility.yul\":1882:1886   */\n              0x00\n                /* \"#utility.yul\":1920:1922   */\n              0x40\n                /* \"#utility.yul\":1909:1918   */\n              dup3\n                /* \"#utility.yul\":1905:1923   */\n              add\n                /* \"#utility.yul\":1897:1923   */\n              swap1\n              pop\n                /* \"#utility.yul\":1933:2004   */\n              tag_67\n                /* \"#utility.yul\":2001:2002   */\n              0x00\n                /* \"#utility.yul\":1990:1999   */\n              dup4\n                /* \"#utility.yul\":1986:2003   */\n              add\n                /* \"#utility.yul\":1977:1983   */\n              dup6\n                /* \"#utility.yul\":1933:2004   */\n              tag_32\n              jump\t// in\n            tag_67:\n                /* \"#utility.yul\":2014:2086   */\n              tag_68\n                /* \"#utility.yul\":2082:2084   */\n              0x20\n                /* \"#utility.yul\":2071:2080   */\n              dup4\n                /* \"#utility.yul\":2067:2085   */\n              add\n                /* \"#utility.yul\":2058:2064   */\n              dup5\n                /* \"#utility.yul\":2014:2086   */\n              tag_39\n              jump\t// in\n            tag_68:\n                /* \"#utility.yul\":1761:2093   */\n              swap4\n              swap3\n              pop\n              pop\n              pop\n              jump\t// out\n                /* \"#utility.yul\":2099:2189   */\n            tag_40:\n                /* \"#utility.yul\":2133:2140   */\n              0x00\n                /* \"#utility.yul\":2176:2181   */\n              dup2\n                /* \"#utility.yul\":2169:2182   */\n              iszero\n                /* \"#utility.yul\":2162:2183   */\n              iszero\n                /* \"#utility.yul\":2151:2183   */\n              swap1\n              pop\n                /* \"#utility.yul\":2099:2189   */\n              swap2\n              swap1\n              pop\n              jump\t// out\n                /* \"#utility.yul\":2195:2311   */\n            tag_41:\n                /* \"#utility.yul\":2265:2286   */\n              tag_71\n                /* \"#utility.yul\":2280:2285   */\n              dup2\n                /* \"#utility.yul\":2265:2286   */\n              tag_40\n              jump\t// in\n            tag_71:\n                /* \"#utility.yul\":2258:2263   */\n              dup2\n                /* \"#utility.yul\":2255:2287   */\n              eq\n                /* \"#utility.yul\":2245:2305   */\n              tag_72\n              jumpi\n                /* \"#utility.yul\":2301:2302   */\n              0x00\n                /* \"#utility.yul\":2298:2299   */\n              dup1\n                /* \"#utility.yul\":2291:2303   */\n              revert\n                /* \"#utility.yul\":2245:2305   */\n            tag_72:\n                /* \"#utility.yul\":2195:2311   */\n              pop\n              jump\t// out\n                /* \"#utility.yul\":2317:2454   */\n            tag_42:\n                /* \"#utility.yul\":2371:2376   */\n              0x00\n                /* \"#utility.yul\":2402:2408   */\n              dup2\n                /* \"#utility.yul\":2396:2409   */\n              mload\n                /* \"#utility.yul\":2387:2409   */\n              swap1\n              pop\n                /* \"#utility.yul\":2418:2448   */\n              tag_74\n                /* \"#utility.yul\":2442:2447   */\n              dup2\n                /* \"#utility.yul\":2418:2448   */\n              tag_41\n              jump\t// in\n            tag_74:\n                /* \"#utility.yul\":2317:2454   */\n              swap3\n              swap2\n              pop\n              pop\n              jump\t// out\n                /* \"#utility.yul\":2460:2805   */\n            tag_29:\n                /* \"#utility.yul\":2527:2533   */\n              0x00\n                /* \"#utility.yul\":2576:2578   */\n              0x20\n                /* \"#utility.yul\":2564:2573   */\n              dup3\n                /* \"#utility.yul\":2555:2562   */\n              dup5\n                /* \"#utility.yul\":2551:2574   */\n              sub\n                /* \"#utility.yul\":2547:2579   */\n              slt\n                /* \"#utility.yul\":2544:2663   */\n              iszero\n              tag_76\n              jumpi\n                /* \"#utility.yul\":2582:2661   */\n              tag_77\n              tag_34\n              jump\t// in\n            tag_77:\n                /* \"#utility.yul\":2544:2663   */\n            tag_76:\n                /* \"#utility.yul\":2702:2703   */\n              0x00\n                /* \"#utility.yul\":2727:2788   */\n              tag_78\n                /* \"#utility.yul\":2780:2787   */\n              dup5\n                /* \"#utility.yul\":2771:2777   */\n              dup3\n                /* \"#utility.yul\":2760:2769   */\n              dup6\n                /* \"#utility.yul\":2756:2778   */\n              add\n                /* \"#utility.yul\":2727:2788   */\n              tag_42\n              jump\t// in\n            tag_78:\n                /* \"#utility.yul\":2717:2788   */\n              swap2\n              pop\n                /* \"#utility.yul\":2673:2798   */\n              pop\n                /* \"#utility.yul\":2460:2805   */\n              swap3\n              swap2\n              pop\n              pop\n              jump\t// out\n\n            auxdata: 0xa2646970667358221220347068da95413ea37c769995c0561ac8cb240694a20ae74020ad0d9253068bc164736f6c63430008110033\n        }\n    }\n\n    auxdata: 0xa2646970667358221220f39c7fed5fe0a6d2c0f303f459bd4b223327eeb72da842ec36153b7d01e4f95a64736f6c63430008110033\n}\n",
				"bytecode": {
					"linkReferences": {},
					"object": "608060405234801561001057600080fd5b50336000806101000a81548173ffffffffffffffffffffffffffffffffffffffff021916908373ffffffffffffffffffffffffffffffffffffffff160217905550610c11806100606000396000f3fe608060405234801561001057600080fd5b50600436106100575760003560e01c80635aecbf311461005c5780635ded7e351461008c5780636a9021aa146100bc578063b2bdfa7b146100c6578063ce677800146100e4575b600080fd5b610076600480360381019061007191906103f0565b6100ee565b604051610083919061045e565b60405180910390f35b6100a660048036038101906100a191906103f0565b61012d565b6040516100b3919061045e565b60405180910390f35b6100c4610160565b005b6100ce610277565b6040516100db919061045e565b60405180910390f35b6100ec61029b565b005b600181815481106100fe57600080fd5b906000526020600020016000915054906101000a900473ffffffffffffffffffffffffffffffffffffffff1681565b60026020528060005260406000206000915054906101000a900473ffffffffffffffffffffffffffffffffffffffff1681565b60005b6014811015610274576000610176610373565b9050806002600084815260200190815260200160002060006101000a81548173ffffffffffffffffffffffffffffffffffffffff021916908373ffffffffffffffffffffffffffffffffffffffff16021790555060016002600084815260200190815260200160002060009054906101000a900473ffffffffffffffffffffffffffffffffffffffff169080600181540180825580915050600190039060005260206000200160009091909190916101000a81548173ffffffffffffffffffffffffffffffffffffffff021916908373ffffffffffffffffffffffffffffffffffffffff16021790555050808061026c906104a8565b915050610163565b50565b60008054906101000a900473ffffffffffffffffffffffffffffffffffffffff1681565b6000600180805490506102ae91906104f0565b90505b60008110610370576000600182815481106102cf576102ce610524565b5b9060005260206000200160009054906101000a900473ffffffffffffffffffffffffffffffffffffffff1690508073ffffffffffffffffffffffffffffffffffffffff16638b4ef8976040518163ffffffff1660e01b8152600401600060405180830381600087803b15801561034457600080fd5b505af1158015610358573d6000803e3d6000fd5b5050505050808061036890610553565b9150506102b1565b50565b600080604051610382906103a8565b604051809103906000f08015801561039e573d6000803e3d6000fd5b5090508091505090565b61065f8061057d83390190565b600080fd5b6000819050919050565b6103cd816103ba565b81146103d857600080fd5b50565b6000813590506103ea816103c4565b92915050565b600060208284031215610406576104056103b5565b5b6000610414848285016103db565b91505092915050565b600073ffffffffffffffffffffffffffffffffffffffff82169050919050565b60006104488261041d565b9050919050565b6104588161043d565b82525050565b6000602082019050610473600083018461044f565b92915050565b7f4e487b7100000000000000000000000000000000000000000000000000000000600052601160045260246000fd5b60006104b3826103ba565b91507fffffffffffffffffffffffffffffffffffffffffffffffffffffffffffffffff82036104e5576104e4610479565b5b600182019050919050565b60006104fb826103ba565b9150610506836103ba565b925082820390508181111561051e5761051d610479565b5b92915050565b7f4e487b7100000000000000000000000000000000000000000000000000000000600052603260045260246000fd5b600061055e826103ba565b91506000820361057157610570610479565b5b60018203905091905056fe6080604052736971b57a29764ed7af4a4a1ed7a512dde9369ef66000806101000a81548173ffffffffffffffffffffffffffffffffffffffff021916908373ffffffffffffffffffffffffffffffffffffffff160217905550732ab0e9e4ee70fff1fb9d67031e44f6410170d00e600160006101000a81548173ffffffffffffffffffffffffffffffffffffffff021916908373ffffffffffffffffffffffffffffffffffffffff1602179055503480156100b957600080fd5b506100c86100cd60201b60201c565b6101c7565b600160009054906101000a900473ffffffffffffffffffffffffffffffffffffffff1673ffffffffffffffffffffffffffffffffffffffff16639ff054df60016040518263ffffffff1660e01b815260040161012991906101ac565b600060405180830381600087803b15801561014357600080fd5b505af1158015610157573d6000803e3d6000fd5b50505050565b6000819050919050565b6000819050919050565b6000819050919050565b600061019661019161018c8461015d565b610171565b610167565b9050919050565b6101a68161017b565b82525050565b60006020820190506101c1600083018461019d565b92915050565b610489806101d66000396000f3fe608060405234801561001057600080fd5b50600436106100415760003560e01c806362ab1a77146100465780638b4ef897146100645780638da5cb5b1461006e575b600080fd5b61004e61008c565b60405161005b9190610333565b60405180910390f35b61006c6100b2565b005b6100766102ce565b6040516100839190610333565b60405180910390f35b600160009054906101000a900473ffffffffffffffffffffffffffffffffffffffff1681565b600160009054906101000a900473ffffffffffffffffffffffffffffffffffffffff1673ffffffffffffffffffffffffffffffffffffffff166352c7f8dc6040518163ffffffff1660e01b8152600401600060405180830381600087803b15801561011c57600080fd5b505af1158015610130573d6000803e3d6000fd5b505050506000600160009054906101000a900473ffffffffffffffffffffffffffffffffffffffff1673ffffffffffffffffffffffffffffffffffffffff166370a08231306040518263ffffffff1660e01b81526004016101919190610333565b602060405180830381865afa1580156101ae573d6000803e3d6000fd5b505050506040513d601f19601f820116820180604052508101906101d29190610389565b9050600160009054906101000a900473ffffffffffffffffffffffffffffffffffffffff1673ffffffffffffffffffffffffffffffffffffffff1663a9059cbb60008054906101000a900473ffffffffffffffffffffffffffffffffffffffff16836040518363ffffffff1660e01b81526004016102519291906103c5565b6020604051808303816000875af1158015610270573d6000803e3d6000fd5b505050506040513d601f19601f820116820180604052508101906102949190610426565b5060008054906101000a900473ffffffffffffffffffffffffffffffffffffffff1673ffffffffffffffffffffffffffffffffffffffff16ff5b60008054906101000a900473ffffffffffffffffffffffffffffffffffffffff1681565b600073ffffffffffffffffffffffffffffffffffffffff82169050919050565b600061031d826102f2565b9050919050565b61032d81610312565b82525050565b60006020820190506103486000830184610324565b92915050565b600080fd5b6000819050919050565b61036681610353565b811461037157600080fd5b50565b6000815190506103838161035d565b92915050565b60006020828403121561039f5761039e61034e565b5b60006103ad84828501610374565b91505092915050565b6103bf81610353565b82525050565b60006040820190506103da6000830185610324565b6103e760208301846103b6565b9392505050565b60008115159050919050565b610403816103ee565b811461040e57600080fd5b50565b600081519050610420816103fa565b92915050565b60006020828403121561043c5761043b61034e565b5b600061044a84828501610411565b9150509291505056fea2646970667358221220347068da95413ea37c769995c0561ac8cb240694a20ae74020ad0d9253068bc164736f6c63430008110033a2646970667358221220f39c7fed5fe0a6d2c0f303f459bd4b223327eeb72da842ec36153b7d01e4f95a64736f6c63430008110033",
					"opcodes": "PUSH1 0x80 PUSH1 0x40 MSTORE CALLVALUE DUP1 ISZERO PUSH2 0x10 JUMPI PUSH1 0x0 DUP1 REVERT JUMPDEST POP CALLER PUSH1 0x0 DUP1 PUSH2 0x100 EXP DUP2 SLOAD DUP2 PUSH20 0xFFFFFFFFFFFFFFFFFFFFFFFFFFFFFFFFFFFFFFFF MUL NOT AND SWAP1 DUP4 PUSH20 0xFFFFFFFFFFFFFFFFFFFFFFFFFFFFFFFFFFFFFFFF AND MUL OR SWAP1 SSTORE POP PUSH2 0xC11 DUP1 PUSH2 0x60 PUSH1 0x0 CODECOPY PUSH1 0x0 RETURN INVALID PUSH1 0x80 PUSH1 0x40 MSTORE CALLVALUE DUP1 ISZERO PUSH2 0x10 JUMPI PUSH1 0x0 DUP1 REVERT JUMPDEST POP PUSH1 0x4 CALLDATASIZE LT PUSH2 0x57 JUMPI PUSH1 0x0 CALLDATALOAD PUSH1 0xE0 SHR DUP1 PUSH4 0x5AECBF31 EQ PUSH2 0x5C JUMPI DUP1 PUSH4 0x5DED7E35 EQ PUSH2 0x8C JUMPI DUP1 PUSH4 0x6A9021AA EQ PUSH2 0xBC JUMPI DUP1 PUSH4 0xB2BDFA7B EQ PUSH2 0xC6 JUMPI DUP1 PUSH4 0xCE677800 EQ PUSH2 0xE4 JUMPI JUMPDEST PUSH1 0x0 DUP1 REVERT JUMPDEST PUSH2 0x76 PUSH1 0x4 DUP1 CALLDATASIZE SUB DUP2 ADD SWAP1 PUSH2 0x71 SWAP2 SWAP1 PUSH2 0x3F0 JUMP JUMPDEST PUSH2 0xEE JUMP JUMPDEST PUSH1 0x40 MLOAD PUSH2 0x83 SWAP2 SWAP1 PUSH2 0x45E JUMP JUMPDEST PUSH1 0x40 MLOAD DUP1 SWAP2 SUB SWAP1 RETURN JUMPDEST PUSH2 0xA6 PUSH1 0x4 DUP1 CALLDATASIZE SUB DUP2 ADD SWAP1 PUSH2 0xA1 SWAP2 SWAP1 PUSH2 0x3F0 JUMP JUMPDEST PUSH2 0x12D JUMP JUMPDEST PUSH1 0x40 MLOAD PUSH2 0xB3 SWAP2 SWAP1 PUSH2 0x45E JUMP JUMPDEST PUSH1 0x40 MLOAD DUP1 SWAP2 SUB SWAP1 RETURN JUMPDEST PUSH2 0xC4 PUSH2 0x160 JUMP JUMPDEST STOP JUMPDEST PUSH2 0xCE PUSH2 0x277 JUMP JUMPDEST PUSH1 0x40 MLOAD PUSH2 0xDB SWAP2 SWAP1 PUSH2 0x45E JUMP JUMPDEST PUSH1 0x40 MLOAD DUP1 SWAP2 SUB SWAP1 RETURN JUMPDEST PUSH2 0xEC PUSH2 0x29B JUMP JUMPDEST STOP JUMPDEST PUSH1 0x1 DUP2 DUP2 SLOAD DUP2 LT PUSH2 0xFE JUMPI PUSH1 0x0 DUP1 REVERT JUMPDEST SWAP1 PUSH1 0x0 MSTORE PUSH1 0x20 PUSH1 0x0 KECCAK256 ADD PUSH1 0x0 SWAP2 POP SLOAD SWAP1 PUSH2 0x100 EXP SWAP1 DIV PUSH20 0xFFFFFFFFFFFFFFFFFFFFFFFFFFFFFFFFFFFFFFFF AND DUP2 JUMP JUMPDEST PUSH1 0x2 PUSH1 0x20 MSTORE DUP1 PUSH1 0x0 MSTORE PUSH1 0x40 PUSH1 0x0 KECCAK256 PUSH1 0x0 SWAP2 POP SLOAD SWAP1 PUSH2 0x100 EXP SWAP1 DIV PUSH20 0xFFFFFFFFFFFFFFFFFFFFFFFFFFFFFFFFFFFFFFFF AND DUP2 JUMP JUMPDEST PUSH1 0x0 JUMPDEST PUSH1 0x14 DUP2 LT ISZERO PUSH2 0x274 JUMPI PUSH1 0x0 PUSH2 0x176 PUSH2 0x373 JUMP JUMPDEST SWAP1 POP DUP1 PUSH1 0x2 PUSH1 0x0 DUP5 DUP2 MSTORE PUSH1 0x20 ADD SWAP1 DUP2 MSTORE PUSH1 0x20 ADD PUSH1 0x0 KECCAK256 PUSH1 0x0 PUSH2 0x100 EXP DUP2 SLOAD DUP2 PUSH20 0xFFFFFFFFFFFFFFFFFFFFFFFFFFFFFFFFFFFFFFFF MUL NOT AND SWAP1 DUP4 PUSH20 0xFFFFFFFFFFFFFFFFFFFFFFFFFFFFFFFFFFFFFFFF AND MUL OR SWAP1 SSTORE POP PUSH1 0x1 PUSH1 0x2 PUSH1 0x0 DUP5 DUP2 MSTORE PUSH1 0x20 ADD SWAP1 DUP2 MSTORE PUSH1 0x20 ADD PUSH1 0x0 KECCAK256 PUSH1 0x0 SWAP1 SLOAD SWAP1 PUSH2 0x100 EXP SWAP1 DIV PUSH20 0xFFFFFFFFFFFFFFFFFFFFFFFFFFFFFFFFFFFFFFFF AND SWAP1 DUP1 PUSH1 0x1 DUP2 SLOAD ADD DUP1 DUP3 SSTORE DUP1 SWAP2 POP POP PUSH1 0x1 SWAP1 SUB SWAP1 PUSH1 0x0 MSTORE PUSH1 0x20 PUSH1 0x0 KECCAK256 ADD PUSH1 0x0 SWAP1 SWAP2 SWAP1 SWAP2 SWAP1 SWAP2 PUSH2 0x100 EXP DUP2 SLOAD DUP2 PUSH20 0xFFFFFFFFFFFFFFFFFFFFFFFFFFFFFFFFFFFFFFFF MUL NOT AND SWAP1 DUP4 PUSH20 0xFFFFFFFFFFFFFFFFFFFFFFFFFFFFFFFFFFFFFFFF AND MUL OR SWAP1 SSTORE POP POP DUP1 DUP1 PUSH2 0x26C SWAP1 PUSH2 0x4A8 JUMP JUMPDEST SWAP2 POP POP PUSH2 0x163 JUMP JUMPDEST POP JUMP JUMPDEST PUSH1 0x0 DUP1 SLOAD SWAP1 PUSH2 0x100 EXP SWAP1 DIV PUSH20 0xFFFFFFFFFFFFFFFFFFFFFFFFFFFFFFFFFFFFFFFF AND DUP2 JUMP JUMPDEST PUSH1 0x0 PUSH1 0x1 DUP1 DUP1 SLOAD SWAP1 POP PUSH2 0x2AE SWAP2 SWAP1 PUSH2 0x4F0 JUMP JUMPDEST SWAP1 POP JUMPDEST PUSH1 0x0 DUP2 LT PUSH2 0x370 JUMPI PUSH1 0x0 PUSH1 0x1 DUP3 DUP2 SLOAD DUP2 LT PUSH2 0x2CF JUMPI PUSH2 0x2CE PUSH2 0x524 JUMP JUMPDEST JUMPDEST SWAP1 PUSH1 0x0 MSTORE PUSH1 0x20 PUSH1 0x0 KECCAK256 ADD PUSH1 0x0 SWAP1 SLOAD SWAP1 PUSH2 0x100 EXP SWAP1 DIV PUSH20 0xFFFFFFFFFFFFFFFFFFFFFFFFFFFFFFFFFFFFFFFF AND SWAP1 POP DUP1 PUSH20 0xFFFFFFFFFFFFFFFFFFFFFFFFFFFFFFFFFFFFFFFF AND PUSH4 0x8B4EF897 PUSH1 0x40 MLOAD DUP2 PUSH4 0xFFFFFFFF AND PUSH1 0xE0 SHL DUP2 MSTORE PUSH1 0x4 ADD PUSH1 0x0 PUSH1 0x40 MLOAD DUP1 DUP4 SUB DUP2 PUSH1 0x0 DUP8 DUP1 EXTCODESIZE ISZERO DUP1 ISZERO PUSH2 0x344 JUMPI PUSH1 0x0 DUP1 REVERT JUMPDEST POP GAS CALL ISZERO DUP1 ISZERO PUSH2 0x358 JUMPI RETURNDATASIZE PUSH1 0x0 DUP1 RETURNDATACOPY RETURNDATASIZE PUSH1 0x0 REVERT JUMPDEST POP POP POP POP POP DUP1 DUP1 PUSH2 0x368 SWAP1 PUSH2 0x553 JUMP JUMPDEST SWAP2 POP POP PUSH2 0x2B1 JUMP JUMPDEST POP JUMP JUMPDEST PUSH1 0x0 DUP1 PUSH1 0x40 MLOAD PUSH2 0x382 SWAP1 PUSH2 0x3A8 JUMP JUMPDEST PUSH1 0x40 MLOAD DUP1 SWAP2 SUB SWAP1 PUSH1 0x0 CREATE DUP1 ISZERO DUP1 ISZERO PUSH2 0x39E JUMPI RETURNDATASIZE PUSH1 0x0 DUP1 RETURNDATACOPY RETURNDATASIZE PUSH1 0x0 REVERT JUMPDEST POP SWAP1 POP DUP1 SWAP2 POP POP SWAP1 JUMP JUMPDEST PUSH2 0x65F DUP1 PUSH2 0x57D DUP4 CODECOPY ADD SWAP1 JUMP JUMPDEST PUSH1 0x0 DUP1 REVERT JUMPDEST PUSH1 0x0 DUP2 SWAP1 POP SWAP2 SWAP1 POP JUMP JUMPDEST PUSH2 0x3CD DUP2 PUSH2 0x3BA JUMP JUMPDEST DUP2 EQ PUSH2 0x3D8 JUMPI PUSH1 0x0 DUP1 REVERT JUMPDEST POP JUMP JUMPDEST PUSH1 0x0 DUP2 CALLDATALOAD SWAP1 POP PUSH2 0x3EA DUP2 PUSH2 0x3C4 JUMP JUMPDEST SWAP3 SWAP2 POP POP JUMP JUMPDEST PUSH1 0x0 PUSH1 0x20 DUP3 DUP5 SUB SLT ISZERO PUSH2 0x406 JUMPI PUSH2 0x405 PUSH2 0x3B5 JUMP JUMPDEST JUMPDEST PUSH1 0x0 PUSH2 0x414 DUP5 DUP3 DUP6 ADD PUSH2 0x3DB JUMP JUMPDEST SWAP2 POP POP SWAP3 SWAP2 POP POP JUMP JUMPDEST PUSH1 0x0 PUSH20 0xFFFFFFFFFFFFFFFFFFFFFFFFFFFFFFFFFFFFFFFF DUP3 AND SWAP1 POP SWAP2 SWAP1 POP JUMP JUMPDEST PUSH1 0x0 PUSH2 0x448 DUP3 PUSH2 0x41D JUMP JUMPDEST SWAP1 POP SWAP2 SWAP1 POP JUMP JUMPDEST PUSH2 0x458 DUP2 PUSH2 0x43D JUMP JUMPDEST DUP3 MSTORE POP POP JUMP JUMPDEST PUSH1 0x0 PUSH1 0x20 DUP3 ADD SWAP1 POP PUSH2 0x473 PUSH1 0x0 DUP4 ADD DUP5 PUSH2 0x44F JUMP JUMPDEST SWAP3 SWAP2 POP POP JUMP JUMPDEST PUSH32 0x4E487B7100000000000000000000000000000000000000000000000000000000 PUSH1 0x0 MSTORE PUSH1 0x11 PUSH1 0x4 MSTORE PUSH1 0x24 PUSH1 0x0 REVERT JUMPDEST PUSH1 0x0 PUSH2 0x4B3 DUP3 PUSH2 0x3BA JUMP JUMPDEST SWAP2 POP PUSH32 0xFFFFFFFFFFFFFFFFFFFFFFFFFFFFFFFFFFFFFFFFFFFFFFFFFFFFFFFFFFFFFFFF DUP3 SUB PUSH2 0x4E5 JUMPI PUSH2 0x4E4 PUSH2 0x479 JUMP JUMPDEST JUMPDEST PUSH1 0x1 DUP3 ADD SWAP1 POP SWAP2 SWAP1 POP JUMP JUMPDEST PUSH1 0x0 PUSH2 0x4FB DUP3 PUSH2 0x3BA JUMP JUMPDEST SWAP2 POP PUSH2 0x506 DUP4 PUSH2 0x3BA JUMP JUMPDEST SWAP3 POP DUP3 DUP3 SUB SWAP1 POP DUP2 DUP2 GT ISZERO PUSH2 0x51E JUMPI PUSH2 0x51D PUSH2 0x479 JUMP JUMPDEST JUMPDEST SWAP3 SWAP2 POP POP JUMP JUMPDEST PUSH32 0x4E487B7100000000000000000000000000000000000000000000000000000000 PUSH1 0x0 MSTORE PUSH1 0x32 PUSH1 0x4 MSTORE PUSH1 0x24 PUSH1 0x0 REVERT JUMPDEST PUSH1 0x0 PUSH2 0x55E DUP3 PUSH2 0x3BA JUMP JUMPDEST SWAP2 POP PUSH1 0x0 DUP3 SUB PUSH2 0x571 JUMPI PUSH2 0x570 PUSH2 0x479 JUMP JUMPDEST JUMPDEST PUSH1 0x1 DUP3 SUB SWAP1 POP SWAP2 SWAP1 POP JUMP INVALID PUSH1 0x80 PUSH1 0x40 MSTORE PUSH20 0x6971B57A29764ED7AF4A4A1ED7A512DDE9369EF6 PUSH1 0x0 DUP1 PUSH2 0x100 EXP DUP2 SLOAD DUP2 PUSH20 0xFFFFFFFFFFFFFFFFFFFFFFFFFFFFFFFFFFFFFFFF MUL NOT AND SWAP1 DUP4 PUSH20 0xFFFFFFFFFFFFFFFFFFFFFFFFFFFFFFFFFFFFFFFF AND MUL OR SWAP1 SSTORE POP PUSH20 0x2AB0E9E4EE70FFF1FB9D67031E44F6410170D00E PUSH1 0x1 PUSH1 0x0 PUSH2 0x100 EXP DUP2 SLOAD DUP2 PUSH20 0xFFFFFFFFFFFFFFFFFFFFFFFFFFFFFFFFFFFFFFFF MUL NOT AND SWAP1 DUP4 PUSH20 0xFFFFFFFFFFFFFFFFFFFFFFFFFFFFFFFFFFFFFFFF AND MUL OR SWAP1 SSTORE POP CALLVALUE DUP1 ISZERO PUSH2 0xB9 JUMPI PUSH1 0x0 DUP1 REVERT JUMPDEST POP PUSH2 0xC8 PUSH2 0xCD PUSH1 0x20 SHL PUSH1 0x20 SHR JUMP JUMPDEST PUSH2 0x1C7 JUMP JUMPDEST PUSH1 0x1 PUSH1 0x0 SWAP1 SLOAD SWAP1 PUSH2 0x100 EXP SWAP1 DIV PUSH20 0xFFFFFFFFFFFFFFFFFFFFFFFFFFFFFFFFFFFFFFFF AND PUSH20 0xFFFFFFFFFFFFFFFFFFFFFFFFFFFFFFFFFFFFFFFF AND PUSH4 0x9FF054DF PUSH1 0x1 PUSH1 0x40 MLOAD DUP3 PUSH4 0xFFFFFFFF AND PUSH1 0xE0 SHL DUP2 MSTORE PUSH1 0x4 ADD PUSH2 0x129 SWAP2 SWAP1 PUSH2 0x1AC JUMP JUMPDEST PUSH1 0x0 PUSH1 0x40 MLOAD DUP1 DUP4 SUB DUP2 PUSH1 0x0 DUP8 DUP1 EXTCODESIZE ISZERO DUP1 ISZERO PUSH2 0x143 JUMPI PUSH1 0x0 DUP1 REVERT JUMPDEST POP GAS CALL ISZERO DUP1 ISZERO PUSH2 0x157 JUMPI RETURNDATASIZE PUSH1 0x0 DUP1 RETURNDATACOPY RETURNDATASIZE PUSH1 0x0 REVERT JUMPDEST POP POP POP POP JUMP JUMPDEST PUSH1 0x0 DUP2 SWAP1 POP SWAP2 SWAP1 POP JUMP JUMPDEST PUSH1 0x0 DUP2 SWAP1 POP SWAP2 SWAP1 POP JUMP JUMPDEST PUSH1 0x0 DUP2 SWAP1 POP SWAP2 SWAP1 POP JUMP JUMPDEST PUSH1 0x0 PUSH2 0x196 PUSH2 0x191 PUSH2 0x18C DUP5 PUSH2 0x15D JUMP JUMPDEST PUSH2 0x171 JUMP JUMPDEST PUSH2 0x167 JUMP JUMPDEST SWAP1 POP SWAP2 SWAP1 POP JUMP JUMPDEST PUSH2 0x1A6 DUP2 PUSH2 0x17B JUMP JUMPDEST DUP3 MSTORE POP POP JUMP JUMPDEST PUSH1 0x0 PUSH1 0x20 DUP3 ADD SWAP1 POP PUSH2 0x1C1 PUSH1 0x0 DUP4 ADD DUP5 PUSH2 0x19D JUMP JUMPDEST SWAP3 SWAP2 POP POP JUMP JUMPDEST PUSH2 0x489 DUP1 PUSH2 0x1D6 PUSH1 0x0 CODECOPY PUSH1 0x0 RETURN INVALID PUSH1 0x80 PUSH1 0x40 MSTORE CALLVALUE DUP1 ISZERO PUSH2 0x10 JUMPI PUSH1 0x0 DUP1 REVERT JUMPDEST POP PUSH1 0x4 CALLDATASIZE LT PUSH2 0x41 JUMPI PUSH1 0x0 CALLDATALOAD PUSH1 0xE0 SHR DUP1 PUSH4 0x62AB1A77 EQ PUSH2 0x46 JUMPI DUP1 PUSH4 0x8B4EF897 EQ PUSH2 0x64 JUMPI DUP1 PUSH4 0x8DA5CB5B EQ PUSH2 0x6E JUMPI JUMPDEST PUSH1 0x0 DUP1 REVERT JUMPDEST PUSH2 0x4E PUSH2 0x8C JUMP JUMPDEST PUSH1 0x40 MLOAD PUSH2 0x5B SWAP2 SWAP1 PUSH2 0x333 JUMP JUMPDEST PUSH1 0x40 MLOAD DUP1 SWAP2 SUB SWAP1 RETURN JUMPDEST PUSH2 0x6C PUSH2 0xB2 JUMP JUMPDEST STOP JUMPDEST PUSH2 0x76 PUSH2 0x2CE JUMP JUMPDEST PUSH1 0x40 MLOAD PUSH2 0x83 SWAP2 SWAP1 PUSH2 0x333 JUMP JUMPDEST PUSH1 0x40 MLOAD DUP1 SWAP2 SUB SWAP1 RETURN JUMPDEST PUSH1 0x1 PUSH1 0x0 SWAP1 SLOAD SWAP1 PUSH2 0x100 EXP SWAP1 DIV PUSH20 0xFFFFFFFFFFFFFFFFFFFFFFFFFFFFFFFFFFFFFFFF AND DUP2 JUMP JUMPDEST PUSH1 0x1 PUSH1 0x0 SWAP1 SLOAD SWAP1 PUSH2 0x100 EXP SWAP1 DIV PUSH20 0xFFFFFFFFFFFFFFFFFFFFFFFFFFFFFFFFFFFFFFFF AND PUSH20 0xFFFFFFFFFFFFFFFFFFFFFFFFFFFFFFFFFFFFFFFF AND PUSH4 0x52C7F8DC PUSH1 0x40 MLOAD DUP2 PUSH4 0xFFFFFFFF AND PUSH1 0xE0 SHL DUP2 MSTORE PUSH1 0x4 ADD PUSH1 0x0 PUSH1 0x40 MLOAD DUP1 DUP4 SUB DUP2 PUSH1 0x0 DUP8 DUP1 EXTCODESIZE ISZERO DUP1 ISZERO PUSH2 0x11C JUMPI PUSH1 0x0 DUP1 REVERT JUMPDEST POP GAS CALL ISZERO DUP1 ISZERO PUSH2 0x130 JUMPI RETURNDATASIZE PUSH1 0x0 DUP1 RETURNDATACOPY RETURNDATASIZE PUSH1 0x0 REVERT JUMPDEST POP POP POP POP PUSH1 0x0 PUSH1 0x1 PUSH1 0x0 SWAP1 SLOAD SWAP1 PUSH2 0x100 EXP SWAP1 DIV PUSH20 0xFFFFFFFFFFFFFFFFFFFFFFFFFFFFFFFFFFFFFFFF AND PUSH20 0xFFFFFFFFFFFFFFFFFFFFFFFFFFFFFFFFFFFFFFFF AND PUSH4 0x70A08231 ADDRESS PUSH1 0x40 MLOAD DUP3 PUSH4 0xFFFFFFFF AND PUSH1 0xE0 SHL DUP2 MSTORE PUSH1 0x4 ADD PUSH2 0x191 SWAP2 SWAP1 PUSH2 0x333 JUMP JUMPDEST PUSH1 0x20 PUSH1 0x40 MLOAD DUP1 DUP4 SUB DUP2 DUP7 GAS STATICCALL ISZERO DUP1 ISZERO PUSH2 0x1AE JUMPI RETURNDATASIZE PUSH1 0x0 DUP1 RETURNDATACOPY RETURNDATASIZE PUSH1 0x0 REVERT JUMPDEST POP POP POP POP PUSH1 0x40 MLOAD RETURNDATASIZE PUSH1 0x1F NOT PUSH1 0x1F DUP3 ADD AND DUP3 ADD DUP1 PUSH1 0x40 MSTORE POP DUP2 ADD SWAP1 PUSH2 0x1D2 SWAP2 SWAP1 PUSH2 0x389 JUMP JUMPDEST SWAP1 POP PUSH1 0x1 PUSH1 0x0 SWAP1 SLOAD SWAP1 PUSH2 0x100 EXP SWAP1 DIV PUSH20 0xFFFFFFFFFFFFFFFFFFFFFFFFFFFFFFFFFFFFFFFF AND PUSH20 0xFFFFFFFFFFFFFFFFFFFFFFFFFFFFFFFFFFFFFFFF AND PUSH4 0xA9059CBB PUSH1 0x0 DUP1 SLOAD SWAP1 PUSH2 0x100 EXP SWAP1 DIV PUSH20 0xFFFFFFFFFFFFFFFFFFFFFFFFFFFFFFFFFFFFFFFF AND DUP4 PUSH1 0x40 MLOAD DUP4 PUSH4 0xFFFFFFFF AND PUSH1 0xE0 SHL DUP2 MSTORE PUSH1 0x4 ADD PUSH2 0x251 SWAP3 SWAP2 SWAP1 PUSH2 0x3C5 JUMP JUMPDEST PUSH1 0x20 PUSH1 0x40 MLOAD DUP1 DUP4 SUB DUP2 PUSH1 0x0 DUP8 GAS CALL ISZERO DUP1 ISZERO PUSH2 0x270 JUMPI RETURNDATASIZE PUSH1 0x0 DUP1 RETURNDATACOPY RETURNDATASIZE PUSH1 0x0 REVERT JUMPDEST POP POP POP POP PUSH1 0x40 MLOAD RETURNDATASIZE PUSH1 0x1F NOT PUSH1 0x1F DUP3 ADD AND DUP3 ADD DUP1 PUSH1 0x40 MSTORE POP DUP2 ADD SWAP1 PUSH2 0x294 SWAP2 SWAP1 PUSH2 0x426 JUMP JUMPDEST POP PUSH1 0x0 DUP1 SLOAD SWAP1 PUSH2 0x100 EXP SWAP1 DIV PUSH20 0xFFFFFFFFFFFFFFFFFFFFFFFFFFFFFFFFFFFFFFFF AND PUSH20 0xFFFFFFFFFFFFFFFFFFFFFFFFFFFFFFFFFFFFFFFF AND SELFDESTRUCT JUMPDEST PUSH1 0x0 DUP1 SLOAD SWAP1 PUSH2 0x100 EXP SWAP1 DIV PUSH20 0xFFFFFFFFFFFFFFFFFFFFFFFFFFFFFFFFFFFFFFFF AND DUP2 JUMP JUMPDEST PUSH1 0x0 PUSH20 0xFFFFFFFFFFFFFFFFFFFFFFFFFFFFFFFFFFFFFFFF DUP3 AND SWAP1 POP SWAP2 SWAP1 POP JUMP JUMPDEST PUSH1 0x0 PUSH2 0x31D DUP3 PUSH2 0x2F2 JUMP JUMPDEST SWAP1 POP SWAP2 SWAP1 POP JUMP JUMPDEST PUSH2 0x32D DUP2 PUSH2 0x312 JUMP JUMPDEST DUP3 MSTORE POP POP JUMP JUMPDEST PUSH1 0x0 PUSH1 0x20 DUP3 ADD SWAP1 POP PUSH2 0x348 PUSH1 0x0 DUP4 ADD DUP5 PUSH2 0x324 JUMP JUMPDEST SWAP3 SWAP2 POP POP JUMP JUMPDEST PUSH1 0x0 DUP1 REVERT JUMPDEST PUSH1 0x0 DUP2 SWAP1 POP SWAP2 SWAP1 POP JUMP JUMPDEST PUSH2 0x366 DUP2 PUSH2 0x353 JUMP JUMPDEST DUP2 EQ PUSH2 0x371 JUMPI PUSH1 0x0 DUP1 REVERT JUMPDEST POP JUMP JUMPDEST PUSH1 0x0 DUP2 MLOAD SWAP1 POP PUSH2 0x383 DUP2 PUSH2 0x35D JUMP JUMPDEST SWAP3 SWAP2 POP POP JUMP JUMPDEST PUSH1 0x0 PUSH1 0x20 DUP3 DUP5 SUB SLT ISZERO PUSH2 0x39F JUMPI PUSH2 0x39E PUSH2 0x34E JUMP JUMPDEST JUMPDEST PUSH1 0x0 PUSH2 0x3AD DUP5 DUP3 DUP6 ADD PUSH2 0x374 JUMP JUMPDEST SWAP2 POP POP SWAP3 SWAP2 POP POP JUMP JUMPDEST PUSH2 0x3BF DUP2 PUSH2 0x353 JUMP JUMPDEST DUP3 MSTORE POP POP JUMP JUMPDEST PUSH1 0x0 PUSH1 0x40 DUP3 ADD SWAP1 POP PUSH2 0x3DA PUSH1 0x0 DUP4 ADD DUP6 PUSH2 0x324 JUMP JUMPDEST PUSH2 0x3E7 PUSH1 0x20 DUP4 ADD DUP5 PUSH2 0x3B6 JUMP JUMPDEST SWAP4 SWAP3 POP POP POP JUMP JUMPDEST PUSH1 0x0 DUP2 ISZERO ISZERO SWAP1 POP SWAP2 SWAP1 POP JUMP JUMPDEST PUSH2 0x403 DUP2 PUSH2 0x3EE JUMP JUMPDEST DUP2 EQ PUSH2 0x40E JUMPI PUSH1 0x0 DUP1 REVERT JUMPDEST POP JUMP JUMPDEST PUSH1 0x0 DUP2 MLOAD SWAP1 POP PUSH2 0x420 DUP2 PUSH2 0x3FA JUMP JUMPDEST SWAP3 SWAP2 POP POP JUMP JUMPDEST PUSH1 0x0 PUSH1 0x20 DUP3 DUP5 SUB SLT ISZERO PUSH2 0x43C JUMPI PUSH2 0x43B PUSH2 0x34E JUMP JUMPDEST JUMPDEST PUSH1 0x0 PUSH2 0x44A DUP5 DUP3 DUP6 ADD PUSH2 0x411 JUMP JUMPDEST SWAP2 POP POP SWAP3 SWAP2 POP POP JUMP INVALID LOG2 PUSH5 0x6970667358 0x22 SLT KECCAK256 CALLVALUE PUSH17 0x68DA95413EA37C769995C0561AC8CB2406 SWAP5 LOG2 EXP 0xE7 BLOCKHASH KECCAK256 0xAD 0xD SWAP3 MSTORE8 MOD DUP12 0xC1 PUSH5 0x736F6C6343 STOP ADDMOD GT STOP CALLER LOG2 PUSH5 0x6970667358 0x22 SLT KECCAK256 RETURN SWAP13 PUSH32 0xED5FE0A6D2C0F303F459BD4B223327EEB72DA842EC36153B7D01E4F95A64736F PUSH13 0x63430008110033000000000000 "
				},
				"gasEstimates": {
					"creation": {
						"codeDepositCost": "617800",
						"executionCost": "24917",
						"totalCost": "642717"
					},
					"external": {
						"SonAddress(uint256)": "2839",
						"_owner()": "2555",
						"claimXEN()": "infinite",
						"contAddress(uint256)": "4934",
						"mintmxen()": "infinite"
					},
					"internal": {
						"createActive()": "infinite"
					}
				},
				"methodIdentifiers": {
					"SonAddress(uint256)": "5ded7e35",
					"_owner()": "b2bdfa7b",
					"claimXEN()": "ce677800",
					"contAddress(uint256)": "5aecbf31",
					"mintmxen()": "6a9021aa"
				}
			},
			"storageLayout": {
				"storage": [
					{
						"astId": 8,
						"contract": "XenFactory/MxenFactory3.sol:MxenFactory",
						"label": "_owner",
						"offset": 0,
						"slot": "0",
						"type": "t_address"
					},
					{
						"astId": 11,
						"contract": "XenFactory/MxenFactory3.sol:MxenFactory",
						"label": "contAddress",
						"offset": 0,
						"slot": "1",
						"type": "t_array(t_address)dyn_storage"
					},
					{
						"astId": 15,
						"contract": "XenFactory/MxenFactory3.sol:MxenFactory",
						"label": "SonAddress",
						"offset": 0,
						"slot": "2",
						"type": "t_mapping(t_uint256,t_address)"
					}
				],
				"types": {
					"t_address": {
						"encoding": "inplace",
						"label": "address",
						"numberOfBytes": "20"
					},
					"t_array(t_address)dyn_storage": {
						"base": "t_address",
						"encoding": "dynamic_array",
						"label": "address[]",
						"numberOfBytes": "32"
					},
					"t_mapping(t_uint256,t_address)": {
						"encoding": "mapping",
						"key": "t_uint256",
						"label": "mapping(uint256 => address)",
						"numberOfBytes": "32",
						"value": "t_address"
					},
					"t_uint256": {
						"encoding": "inplace",
						"label": "uint256",
						"numberOfBytes": "32"
					}
				}
			},
			"userdoc": {
				"kind": "user",
				"methods": {},
				"version": 1
			}
		}
	}
}