{
	"XenFactory/XenFactory2.sol": {
		"XenFactory": {
			"abi": [
				{
					"inputs": [],
					"stateMutability": "nonpayable",
					"type": "constructor"
				},
				{
					"stateMutability": "payable",
					"type": "fallback"
				},
				{
					"inputs": [
						{
							"internalType": "uint256",
							"name": "",
							"type": "uint256"
						}
					],
					"name": "SonAddress",
					"outputs": [
						{
							"internalType": "address",
							"name": "",
							"type": "address"
						}
					],
					"stateMutability": "view",
					"type": "function"
				},
				{
					"inputs": [],
					"name": "_owner",
					"outputs": [
						{
							"internalType": "address",
							"name": "",
							"type": "address"
						}
					],
					"stateMutability": "view",
					"type": "function"
				},
				{
					"inputs": [],
					"name": "claimXEN",
					"outputs": [],
					"stateMutability": "nonpayable",
					"type": "function"
				},
				{
					"inputs": [],
					"name": "index",
					"outputs": [
						{
							"internalType": "uint256",
							"name": "",
							"type": "uint256"
						}
					],
					"stateMutability": "view",
					"type": "function"
				},
				{
					"inputs": [],
					"name": "withdraw",
					"outputs": [],
					"stateMutability": "payable",
					"type": "function"
				}
			],
			"devdoc": {
				"kind": "dev",
				"methods": {},
				"version": 1
			},
			"evm": {
				"assembly": "    /* \"XenFactory/XenFactory2.sol\":161:1469  contract XenFactory{... */\n  mstore(0x40, 0x80)\n    /* \"XenFactory/XenFactory2.sol\":375:441  constructor()public{... */\n  callvalue\n  dup1\n  iszero\n  tag_1\n  jumpi\n  0x00\n  dup1\n  revert\ntag_1:\n  pop\n    /* \"XenFactory/XenFactory2.sol\":422:432  msg.sender */\n  caller\n    /* \"XenFactory/XenFactory2.sol\":405:411  _owner */\n  0x00\n  dup1\n    /* \"XenFactory/XenFactory2.sol\":405:433  _owner = payable(msg.sender) */\n  0x0100\n  exp\n  dup2\n  sload\n  dup2\n  0xffffffffffffffffffffffffffffffffffffffff\n  mul\n  not\n  and\n  swap1\n  dup4\n  0xffffffffffffffffffffffffffffffffffffffff\n  and\n  mul\n  or\n  swap1\n  sstore\n  pop\n    /* \"XenFactory/XenFactory2.sol\":161:1469  contract XenFactory{... */\n  dataSize(sub_0)\n  dup1\n  dataOffset(sub_0)\n  0x00\n  codecopy\n  0x00\n  return\nstop\n\nsub_0: assembly {\n        /* \"XenFactory/XenFactory2.sol\":161:1469  contract XenFactory{... */\n      mstore(0x40, 0x80)\n      jumpi(tag_1, lt(calldatasize, 0x04))\n      shr(0xe0, calldataload(0x00))\n      dup1\n      0x2986c0e5\n      eq\n      tag_3\n      jumpi\n      dup1\n      0x3ccfd60b\n      eq\n      tag_4\n      jumpi\n      dup1\n      0x5ded7e35\n      eq\n      tag_5\n      jumpi\n      dup1\n      0xb2bdfa7b\n      eq\n      tag_6\n      jumpi\n      dup1\n      0xce677800\n      eq\n      tag_7\n      jumpi\n      jump(tag_2)\n    tag_1:\n    tag_2:\n        /* \"XenFactory/XenFactory2.sol\":507:518  uint256 ins */\n      0x00\n        /* \"XenFactory/XenFactory2.sol\":521:526  index */\n      sload(0x01)\n        /* \"XenFactory/XenFactory2.sol\":507:526  uint256 ins = index */\n      swap1\n      pop\n        /* \"XenFactory/XenFactory2.sol\":571:577  uint i */\n      0x00\n        /* \"XenFactory/XenFactory2.sol\":567:716  for(uint i=0;i<5;i++){... */\n    tag_10:\n        /* \"XenFactory/XenFactory2.sol\":582:583  5 */\n      0x05\n        /* \"XenFactory/XenFactory2.sol\":580:581  i */\n      dup2\n        /* \"XenFactory/XenFactory2.sol\":580:583  i<5 */\n      lt\n        /* \"XenFactory/XenFactory2.sol\":567:716  for(uint i=0;i<5;i++){... */\n      iszero\n      tag_11\n      jumpi\n        /* \"XenFactory/XenFactory2.sol\":603:619  address cAddress */\n      0x00\n        /* \"XenFactory/XenFactory2.sol\":622:636  createActive() */\n      tag_13\n        /* \"XenFactory/XenFactory2.sol\":622:634  createActive */\n      tag_14\n        /* \"XenFactory/XenFactory2.sol\":622:636  createActive() */\n      jump\t// in\n    tag_13:\n        /* \"XenFactory/XenFactory2.sol\":603:636  address cAddress = createActive() */\n      swap1\n      pop\n        /* \"XenFactory/XenFactory2.sol\":669:677  cAddress */\n      dup1\n        /* \"XenFactory/XenFactory2.sol\":651:661  SonAddress */\n      0x02\n        /* \"XenFactory/XenFactory2.sol\":651:666  SonAddress[ins] */\n      0x00\n        /* \"XenFactory/XenFactory2.sol\":662:665  ins */\n      dup6\n        /* \"XenFactory/XenFactory2.sol\":651:666  SonAddress[ins] */\n      dup2\n      mstore\n      0x20\n      add\n      swap1\n      dup2\n      mstore\n      0x20\n      add\n      0x00\n      keccak256\n      0x00\n        /* \"XenFactory/XenFactory2.sol\":651:677  SonAddress[ins] = cAddress */\n      0x0100\n      exp\n      dup2\n      sload\n      dup2\n      0xffffffffffffffffffffffffffffffffffffffff\n      mul\n      not\n      and\n      swap1\n      dup4\n      0xffffffffffffffffffffffffffffffffffffffff\n      and\n      mul\n      or\n      swap1\n      sstore\n      pop\n        /* \"XenFactory/XenFactory2.sol\":703:704  1 */\n      0x01\n        /* \"XenFactory/XenFactory2.sol\":698:701  ins */\n      dup4\n        /* \"XenFactory/XenFactory2.sol\":698:704  ins +1 */\n      tag_15\n      swap2\n      swap1\n      tag_16\n      jump\t// in\n    tag_15:\n        /* \"XenFactory/XenFactory2.sol\":692:704  ins = ins +1 */\n      swap3\n      pop\n        /* \"XenFactory/XenFactory2.sol\":588:716  {... */\n      pop\n        /* \"XenFactory/XenFactory2.sol\":584:587  i++ */\n      dup1\n      dup1\n      tag_17\n      swap1\n      tag_18\n      jump\t// in\n    tag_17:\n      swap2\n      pop\n      pop\n        /* \"XenFactory/XenFactory2.sol\":567:716  for(uint i=0;i<5;i++){... */\n      jump(tag_10)\n    tag_11:\n      pop\n        /* \"XenFactory/XenFactory2.sol\":734:737  ins */\n      dup1\n        /* \"XenFactory/XenFactory2.sol\":726:731  index */\n      0x01\n        /* \"XenFactory/XenFactory2.sol\":726:737  index = ins */\n      dup2\n      swap1\n      sstore\n      pop\n        /* \"XenFactory/XenFactory2.sol\":496:755  {... */\n      pop\n        /* \"XenFactory/XenFactory2.sol\":161:1469  contract XenFactory{... */\n      stop\n        /* \"XenFactory/XenFactory2.sol\":247:267  uint256 public index */\n    tag_3:\n      callvalue\n      dup1\n      iszero\n      tag_19\n      jumpi\n      0x00\n      dup1\n      revert\n    tag_19:\n      pop\n      tag_20\n      tag_21\n      jump\t// in\n    tag_20:\n      mload(0x40)\n      tag_22\n      swap2\n      swap1\n      tag_23\n      jump\t// in\n    tag_22:\n      mload(0x40)\n      dup1\n      swap2\n      sub\n      swap1\n      return\n        /* \"XenFactory/XenFactory2.sol\":1272:1466  function withdraw() public payable {... */\n    tag_4:\n      tag_24\n      tag_25\n      jump\t// in\n    tag_24:\n      stop\n        /* \"XenFactory/XenFactory2.sol\":276:321  mapping(uint256 => address) public SonAddress */\n    tag_5:\n      callvalue\n      dup1\n      iszero\n      tag_26\n      jumpi\n      0x00\n      dup1\n      revert\n    tag_26:\n      pop\n      tag_27\n      0x04\n      dup1\n      calldatasize\n      sub\n      dup2\n      add\n      swap1\n      tag_28\n      swap2\n      swap1\n      tag_29\n      jump\t// in\n    tag_28:\n      tag_30\n      jump\t// in\n    tag_27:\n      mload(0x40)\n      tag_31\n      swap2\n      swap1\n      tag_32\n      jump\t// in\n    tag_31:\n      mload(0x40)\n      dup1\n      swap2\n      sub\n      swap1\n      return\n        /* \"XenFactory/XenFactory2.sol\":217:238  address public _owner */\n    tag_6:\n      callvalue\n      dup1\n      iszero\n      tag_33\n      jumpi\n      0x00\n      dup1\n      revert\n    tag_33:\n      pop\n      tag_34\n      tag_35\n      jump\t// in\n    tag_34:\n      mload(0x40)\n      tag_36\n      swap2\n      swap1\n      tag_32\n      jump\t// in\n    tag_36:\n      mload(0x40)\n      dup1\n      swap2\n      sub\n      swap1\n      return\n        /* \"XenFactory/XenFactory2.sol\":801:1050  function claimXEN() public{... */\n    tag_7:\n      callvalue\n      dup1\n      iszero\n      tag_37\n      jumpi\n      0x00\n      dup1\n      revert\n    tag_37:\n      pop\n      tag_38\n      tag_39\n      jump\t// in\n    tag_38:\n      stop\n        /* \"XenFactory/XenFactory2.sol\":1081:1208  function createActive() private returns(address) {... */\n    tag_14:\n        /* \"XenFactory/XenFactory2.sol\":1121:1128  address */\n      0x00\n        /* \"XenFactory/XenFactory2.sol\":1141:1153  XenActive xa */\n      dup1\n        /* \"XenFactory/XenFactory2.sol\":1156:1171  new XenActive() */\n      mload(0x40)\n      tag_41\n      swap1\n      tag_42\n      jump\t// in\n    tag_41:\n      mload(0x40)\n      dup1\n      swap2\n      sub\n      swap1\n      0x00\n      create\n      dup1\n      iszero\n      dup1\n      iszero\n      tag_43\n      jumpi\n      returndatasize\n      0x00\n      dup1\n      returndatacopy\n      revert(0x00, returndatasize)\n    tag_43:\n      pop\n        /* \"XenFactory/XenFactory2.sol\":1141:1171  XenActive xa = new XenActive() */\n      swap1\n      pop\n        /* \"XenFactory/XenFactory2.sol\":1197:1199  xa */\n      dup1\n        /* \"XenFactory/XenFactory2.sol\":1182:1200  return address(xa) */\n      swap2\n      pop\n      pop\n        /* \"XenFactory/XenFactory2.sol\":1081:1208  function createActive() private returns(address) {... */\n      swap1\n      jump\t// out\n        /* \"XenFactory/XenFactory2.sol\":247:267  uint256 public index */\n    tag_21:\n      sload(0x01)\n      dup2\n      jump\t// out\n        /* \"XenFactory/XenFactory2.sol\":1272:1466  function withdraw() public payable {... */\n    tag_25:\n        /* \"XenFactory/XenFactory2.sol\":1376:1382  _owner */\n      0x00\n      dup1\n      sload\n      swap1\n      0x0100\n      exp\n      swap1\n      div\n      0xffffffffffffffffffffffffffffffffffffffff\n      and\n        /* \"XenFactory/XenFactory2.sol\":1362:1382  msg.sender == _owner */\n      0xffffffffffffffffffffffffffffffffffffffff\n      and\n        /* \"XenFactory/XenFactory2.sol\":1362:1372  msg.sender */\n      caller\n        /* \"XenFactory/XenFactory2.sol\":1362:1382  msg.sender == _owner */\n      0xffffffffffffffffffffffffffffffffffffffff\n      and\n      eq\n        /* \"XenFactory/XenFactory2.sol\":1354:1396  require(msg.sender == _owner,\"not owner!\") */\n      tag_45\n      jumpi\n      mload(0x40)\n      0x08c379a000000000000000000000000000000000000000000000000000000000\n      dup2\n      mstore\n      0x04\n      add\n      tag_46\n      swap1\n      tag_47\n      jump\t// in\n    tag_46:\n      mload(0x40)\n      dup1\n      swap2\n      sub\n      swap1\n      revert\n    tag_45:\n        /* \"XenFactory/XenFactory2.sol\":1415:1425  msg.sender */\n      caller\n        /* \"XenFactory/XenFactory2.sol\":1407:1435  payable(msg.sender).transfer */\n      0xffffffffffffffffffffffffffffffffffffffff\n      and\n        /* \"XenFactory/XenFactory2.sol\":1407:1458  payable(msg.sender).transfer(address(this).balance) */\n      0x08fc\n        /* \"XenFactory/XenFactory2.sol\":1436:1457  address(this).balance */\n      selfbalance\n        /* \"XenFactory/XenFactory2.sol\":1407:1458  payable(msg.sender).transfer(address(this).balance) */\n      swap1\n      dup2\n      iszero\n      mul\n      swap1\n      mload(0x40)\n      0x00\n      mload(0x40)\n      dup1\n      dup4\n      sub\n      dup2\n      dup6\n      dup9\n      dup9\n      call\n      swap4\n      pop\n      pop\n      pop\n      pop\n      iszero\n      dup1\n      iszero\n      tag_49\n      jumpi\n      returndatasize\n      0x00\n      dup1\n      returndatacopy\n      revert(0x00, returndatasize)\n    tag_49:\n      pop\n        /* \"XenFactory/XenFactory2.sol\":1272:1466  function withdraw() public payable {... */\n      jump\t// out\n        /* \"XenFactory/XenFactory2.sol\":276:321  mapping(uint256 => address) public SonAddress */\n    tag_30:\n      mstore(0x20, 0x02)\n      dup1\n      0x00\n      mstore\n      keccak256(0x00, 0x40)\n      0x00\n      swap2\n      pop\n      sload\n      swap1\n      0x0100\n      exp\n      swap1\n      div\n      0xffffffffffffffffffffffffffffffffffffffff\n      and\n      dup2\n      jump\t// out\n        /* \"XenFactory/XenFactory2.sol\":217:238  address public _owner */\n    tag_35:\n      0x00\n      dup1\n      sload\n      swap1\n      0x0100\n      exp\n      swap1\n      div\n      0xffffffffffffffffffffffffffffffffffffffff\n      and\n      dup2\n      jump\t// out\n        /* \"XenFactory/XenFactory2.sol\":801:1050  function claimXEN() public{... */\n    tag_39:\n        /* \"XenFactory/XenFactory2.sol\":838:856  uint256 claimindex */\n      0x00\n        /* \"XenFactory/XenFactory2.sol\":859:864  index */\n      sload(0x01)\n        /* \"XenFactory/XenFactory2.sol\":838:864  uint256 claimindex = index */\n      swap1\n      pop\n        /* \"XenFactory/XenFactory2.sol\":879:885  uint i */\n      0x00\n        /* \"XenFactory/XenFactory2.sol\":875:1022  for(uint i=0;i<claimindex;i++){... */\n    tag_51:\n        /* \"XenFactory/XenFactory2.sol\":890:900  claimindex */\n      dup2\n        /* \"XenFactory/XenFactory2.sol\":888:889  i */\n      dup2\n        /* \"XenFactory/XenFactory2.sol\":888:900  i<claimindex */\n      lt\n        /* \"XenFactory/XenFactory2.sol\":875:1022  for(uint i=0;i<claimindex;i++){... */\n      iszero\n      tag_52\n      jumpi\n        /* \"XenFactory/XenFactory2.sol\":920:939  address stakaddress */\n      0x00\n        /* \"XenFactory/XenFactory2.sol\":942:952  SonAddress */\n      0x02\n        /* \"XenFactory/XenFactory2.sol\":942:955  SonAddress[i] */\n      0x00\n        /* \"XenFactory/XenFactory2.sol\":953:954  i */\n      dup4\n        /* \"XenFactory/XenFactory2.sol\":942:955  SonAddress[i] */\n      dup2\n      mstore\n      0x20\n      add\n      swap1\n      dup2\n      mstore\n      0x20\n      add\n      0x00\n      keccak256\n      0x00\n      swap1\n      sload\n      swap1\n      0x0100\n      exp\n      swap1\n      div\n      0xffffffffffffffffffffffffffffffffffffffff\n      and\n        /* \"XenFactory/XenFactory2.sol\":920:955  address stakaddress = SonAddress[i] */\n      swap1\n      pop\n        /* \"XenFactory/XenFactory2.sol\":981:992  stakaddress */\n      dup1\n        /* \"XenFactory/XenFactory2.sol\":970:1008  IXenActive(stakaddress).rewardTransfer */\n      0xffffffffffffffffffffffffffffffffffffffff\n      and\n      0x8b4ef897\n        /* \"XenFactory/XenFactory2.sol\":970:1010  IXenActive(stakaddress).rewardTransfer() */\n      mload(0x40)\n      dup2\n      0xffffffff\n      and\n      0xe0\n      shl\n      dup2\n      mstore\n      0x04\n      add\n      0x00\n      mload(0x40)\n      dup1\n      dup4\n      sub\n      dup2\n      0x00\n      dup8\n      dup1\n      extcodesize\n      iszero\n      dup1\n      iszero\n      tag_54\n      jumpi\n      0x00\n      dup1\n      revert\n    tag_54:\n      pop\n      gas\n      call\n      iszero\n      dup1\n      iszero\n      tag_56\n      jumpi\n      returndatasize\n      0x00\n      dup1\n      returndatacopy\n      revert(0x00, returndatasize)\n    tag_56:\n      pop\n      pop\n      pop\n      pop\n        /* \"XenFactory/XenFactory2.sol\":905:1022  {... */\n      pop\n        /* \"XenFactory/XenFactory2.sol\":901:904  i++ */\n      dup1\n      dup1\n      tag_57\n      swap1\n      tag_18\n      jump\t// in\n    tag_57:\n      swap2\n      pop\n      pop\n        /* \"XenFactory/XenFactory2.sol\":875:1022  for(uint i=0;i<claimindex;i++){... */\n      jump(tag_51)\n    tag_52:\n      pop\n        /* \"XenFactory/XenFactory2.sol\":1041:1042  0 */\n      0x00\n        /* \"XenFactory/XenFactory2.sol\":1033:1038  index */\n      0x01\n        /* \"XenFactory/XenFactory2.sol\":1033:1042  index = 0 */\n      dup2\n      swap1\n      sstore\n      pop\n        /* \"XenFactory/XenFactory2.sol\":827:1050  {... */\n      pop\n        /* \"XenFactory/XenFactory2.sol\":801:1050  function claimXEN() public{... */\n      jump\t// out\n    tag_42:\n      dataSize(sub_0)\n      dup1\n      dataOffset(sub_0)\n      dup4\n      codecopy\n      add\n      swap1\n      jump\t// out\n        /* \"#utility.yul\":7:84   */\n    tag_58:\n        /* \"#utility.yul\":44:51   */\n      0x00\n        /* \"#utility.yul\":73:78   */\n      dup2\n        /* \"#utility.yul\":62:78   */\n      swap1\n      pop\n        /* \"#utility.yul\":7:84   */\n      swap2\n      swap1\n      pop\n      jump\t// out\n        /* \"#utility.yul\":90:270   */\n    tag_59:\n        /* \"#utility.yul\":138:215   */\n      0x4e487b7100000000000000000000000000000000000000000000000000000000\n        /* \"#utility.yul\":135:136   */\n      0x00\n        /* \"#utility.yul\":128:216   */\n      mstore\n        /* \"#utility.yul\":235:239   */\n      0x11\n        /* \"#utility.yul\":232:233   */\n      0x04\n        /* \"#utility.yul\":225:240   */\n      mstore\n        /* \"#utility.yul\":259:263   */\n      0x24\n        /* \"#utility.yul\":256:257   */\n      0x00\n        /* \"#utility.yul\":249:264   */\n      revert\n        /* \"#utility.yul\":276:581   */\n    tag_16:\n        /* \"#utility.yul\":316:319   */\n      0x00\n        /* \"#utility.yul\":335:355   */\n      tag_76\n        /* \"#utility.yul\":353:354   */\n      dup3\n        /* \"#utility.yul\":335:355   */\n      tag_58\n      jump\t// in\n    tag_76:\n        /* \"#utility.yul\":330:355   */\n      swap2\n      pop\n        /* \"#utility.yul\":369:389   */\n      tag_77\n        /* \"#utility.yul\":387:388   */\n      dup4\n        /* \"#utility.yul\":369:389   */\n      tag_58\n      jump\t// in\n    tag_77:\n        /* \"#utility.yul\":364:389   */\n      swap3\n      pop\n        /* \"#utility.yul\":523:524   */\n      dup3\n        /* \"#utility.yul\":455:521   */\n      0xffffffffffffffffffffffffffffffffffffffffffffffffffffffffffffffff\n        /* \"#utility.yul\":451:525   */\n      sub\n        /* \"#utility.yul\":448:449   */\n      dup3\n        /* \"#utility.yul\":445:526   */\n      gt\n        /* \"#utility.yul\":442:549   */\n      iszero\n      tag_78\n      jumpi\n        /* \"#utility.yul\":529:547   */\n      tag_79\n      tag_59\n      jump\t// in\n    tag_79:\n        /* \"#utility.yul\":442:549   */\n    tag_78:\n        /* \"#utility.yul\":573:574   */\n      dup3\n        /* \"#utility.yul\":570:571   */\n      dup3\n        /* \"#utility.yul\":566:575   */\n      add\n        /* \"#utility.yul\":559:575   */\n      swap1\n      pop\n        /* \"#utility.yul\":276:581   */\n      swap3\n      swap2\n      pop\n      pop\n      jump\t// out\n        /* \"#utility.yul\":587:820   */\n    tag_18:\n        /* \"#utility.yul\":626:629   */\n      0x00\n        /* \"#utility.yul\":649:673   */\n      tag_81\n        /* \"#utility.yul\":667:672   */\n      dup3\n        /* \"#utility.yul\":649:673   */\n      tag_58\n      jump\t// in\n    tag_81:\n        /* \"#utility.yul\":640:673   */\n      swap2\n      pop\n        /* \"#utility.yul\":695:761   */\n      0xffffffffffffffffffffffffffffffffffffffffffffffffffffffffffffffff\n        /* \"#utility.yul\":688:693   */\n      dup3\n        /* \"#utility.yul\":685:762   */\n      eq\n        /* \"#utility.yul\":682:785   */\n      iszero\n      tag_82\n      jumpi\n        /* \"#utility.yul\":765:783   */\n      tag_83\n      tag_59\n      jump\t// in\n    tag_83:\n        /* \"#utility.yul\":682:785   */\n    tag_82:\n        /* \"#utility.yul\":812:813   */\n      0x01\n        /* \"#utility.yul\":805:810   */\n      dup3\n        /* \"#utility.yul\":801:814   */\n      add\n        /* \"#utility.yul\":794:814   */\n      swap1\n      pop\n        /* \"#utility.yul\":587:820   */\n      swap2\n      swap1\n      pop\n      jump\t// out\n        /* \"#utility.yul\":826:944   */\n    tag_60:\n        /* \"#utility.yul\":913:937   */\n      tag_85\n        /* \"#utility.yul\":931:936   */\n      dup2\n        /* \"#utility.yul\":913:937   */\n      tag_58\n      jump\t// in\n    tag_85:\n        /* \"#utility.yul\":908:911   */\n      dup3\n        /* \"#utility.yul\":901:938   */\n      mstore\n        /* \"#utility.yul\":826:944   */\n      pop\n      pop\n      jump\t// out\n        /* \"#utility.yul\":950:1172   */\n    tag_23:\n        /* \"#utility.yul\":1043:1047   */\n      0x00\n        /* \"#utility.yul\":1081:1083   */\n      0x20\n        /* \"#utility.yul\":1070:1079   */\n      dup3\n        /* \"#utility.yul\":1066:1084   */\n      add\n        /* \"#utility.yul\":1058:1084   */\n      swap1\n      pop\n        /* \"#utility.yul\":1094:1165   */\n      tag_87\n        /* \"#utility.yul\":1162:1163   */\n      0x00\n        /* \"#utility.yul\":1151:1160   */\n      dup4\n        /* \"#utility.yul\":1147:1164   */\n      add\n        /* \"#utility.yul\":1138:1144   */\n      dup5\n        /* \"#utility.yul\":1094:1165   */\n      tag_60\n      jump\t// in\n    tag_87:\n        /* \"#utility.yul\":950:1172   */\n      swap3\n      swap2\n      pop\n      pop\n      jump\t// out\n        /* \"#utility.yul\":1259:1376   */\n    tag_62:\n        /* \"#utility.yul\":1368:1369   */\n      0x00\n        /* \"#utility.yul\":1365:1366   */\n      dup1\n        /* \"#utility.yul\":1358:1370   */\n      revert\n        /* \"#utility.yul\":1505:1627   */\n    tag_64:\n        /* \"#utility.yul\":1578:1602   */\n      tag_92\n        /* \"#utility.yul\":1596:1601   */\n      dup2\n        /* \"#utility.yul\":1578:1602   */\n      tag_58\n      jump\t// in\n    tag_92:\n        /* \"#utility.yul\":1571:1576   */\n      dup2\n        /* \"#utility.yul\":1568:1603   */\n      eq\n        /* \"#utility.yul\":1558:1621   */\n      tag_93\n      jumpi\n        /* \"#utility.yul\":1617:1618   */\n      0x00\n        /* \"#utility.yul\":1614:1615   */\n      dup1\n        /* \"#utility.yul\":1607:1619   */\n      revert\n        /* \"#utility.yul\":1558:1621   */\n    tag_93:\n        /* \"#utility.yul\":1505:1627   */\n      pop\n      jump\t// out\n        /* \"#utility.yul\":1633:1772   */\n    tag_65:\n        /* \"#utility.yul\":1679:1684   */\n      0x00\n        /* \"#utility.yul\":1717:1723   */\n      dup2\n        /* \"#utility.yul\":1704:1724   */\n      calldataload\n        /* \"#utility.yul\":1695:1724   */\n      swap1\n      pop\n        /* \"#utility.yul\":1733:1766   */\n      tag_95\n        /* \"#utility.yul\":1760:1765   */\n      dup2\n        /* \"#utility.yul\":1733:1766   */\n      tag_64\n      jump\t// in\n    tag_95:\n        /* \"#utility.yul\":1633:1772   */\n      swap3\n      swap2\n      pop\n      pop\n      jump\t// out\n        /* \"#utility.yul\":1778:2107   */\n    tag_29:\n        /* \"#utility.yul\":1837:1843   */\n      0x00\n        /* \"#utility.yul\":1886:1888   */\n      0x20\n        /* \"#utility.yul\":1874:1883   */\n      dup3\n        /* \"#utility.yul\":1865:1872   */\n      dup5\n        /* \"#utility.yul\":1861:1884   */\n      sub\n        /* \"#utility.yul\":1857:1889   */\n      slt\n        /* \"#utility.yul\":1854:1973   */\n      iszero\n      tag_97\n      jumpi\n        /* \"#utility.yul\":1892:1971   */\n      tag_98\n      tag_62\n      jump\t// in\n    tag_98:\n        /* \"#utility.yul\":1854:1973   */\n    tag_97:\n        /* \"#utility.yul\":2012:2013   */\n      0x00\n        /* \"#utility.yul\":2037:2090   */\n      tag_99\n        /* \"#utility.yul\":2082:2089   */\n      dup5\n        /* \"#utility.yul\":2073:2079   */\n      dup3\n        /* \"#utility.yul\":2062:2071   */\n      dup6\n        /* \"#utility.yul\":2058:2080   */\n      add\n        /* \"#utility.yul\":2037:2090   */\n      tag_65\n      jump\t// in\n    tag_99:\n        /* \"#utility.yul\":2027:2090   */\n      swap2\n      pop\n        /* \"#utility.yul\":1983:2100   */\n      pop\n        /* \"#utility.yul\":1778:2107   */\n      swap3\n      swap2\n      pop\n      pop\n      jump\t// out\n        /* \"#utility.yul\":2113:2239   */\n    tag_66:\n        /* \"#utility.yul\":2150:2157   */\n      0x00\n        /* \"#utility.yul\":2190:2232   */\n      0xffffffffffffffffffffffffffffffffffffffff\n        /* \"#utility.yul\":2183:2188   */\n      dup3\n        /* \"#utility.yul\":2179:2233   */\n      and\n        /* \"#utility.yul\":2168:2233   */\n      swap1\n      pop\n        /* \"#utility.yul\":2113:2239   */\n      swap2\n      swap1\n      pop\n      jump\t// out\n        /* \"#utility.yul\":2245:2341   */\n    tag_67:\n        /* \"#utility.yul\":2282:2289   */\n      0x00\n        /* \"#utility.yul\":2311:2335   */\n      tag_102\n        /* \"#utility.yul\":2329:2334   */\n      dup3\n        /* \"#utility.yul\":2311:2335   */\n      tag_66\n      jump\t// in\n    tag_102:\n        /* \"#utility.yul\":2300:2335   */\n      swap1\n      pop\n        /* \"#utility.yul\":2245:2341   */\n      swap2\n      swap1\n      pop\n      jump\t// out\n        /* \"#utility.yul\":2347:2465   */\n    tag_68:\n        /* \"#utility.yul\":2434:2458   */\n      tag_104\n        /* \"#utility.yul\":2452:2457   */\n      dup2\n        /* \"#utility.yul\":2434:2458   */\n      tag_67\n      jump\t// in\n    tag_104:\n        /* \"#utility.yul\":2429:2432   */\n      dup3\n        /* \"#utility.yul\":2422:2459   */\n      mstore\n        /* \"#utility.yul\":2347:2465   */\n      pop\n      pop\n      jump\t// out\n        /* \"#utility.yul\":2471:2693   */\n    tag_32:\n        /* \"#utility.yul\":2564:2568   */\n      0x00\n        /* \"#utility.yul\":2602:2604   */\n      0x20\n        /* \"#utility.yul\":2591:2600   */\n      dup3\n        /* \"#utility.yul\":2587:2605   */\n      add\n        /* \"#utility.yul\":2579:2605   */\n      swap1\n      pop\n        /* \"#utility.yul\":2615:2686   */\n      tag_106\n        /* \"#utility.yul\":2683:2684   */\n      0x00\n        /* \"#utility.yul\":2672:2681   */\n      dup4\n        /* \"#utility.yul\":2668:2685   */\n      add\n        /* \"#utility.yul\":2659:2665   */\n      dup5\n        /* \"#utility.yul\":2615:2686   */\n      tag_68\n      jump\t// in\n    tag_106:\n        /* \"#utility.yul\":2471:2693   */\n      swap3\n      swap2\n      pop\n      pop\n      jump\t// out\n        /* \"#utility.yul\":2699:2868   */\n    tag_69:\n        /* \"#utility.yul\":2783:2794   */\n      0x00\n        /* \"#utility.yul\":2817:2823   */\n      dup3\n        /* \"#utility.yul\":2812:2815   */\n      dup3\n        /* \"#utility.yul\":2805:2824   */\n      mstore\n        /* \"#utility.yul\":2857:2861   */\n      0x20\n        /* \"#utility.yul\":2852:2855   */\n      dup3\n        /* \"#utility.yul\":2848:2862   */\n      add\n        /* \"#utility.yul\":2833:2862   */\n      swap1\n      pop\n        /* \"#utility.yul\":2699:2868   */\n      swap3\n      swap2\n      pop\n      pop\n      jump\t// out\n        /* \"#utility.yul\":2874:3034   */\n    tag_70:\n        /* \"#utility.yul\":3014:3026   */\n      0x6e6f74206f776e65722100000000000000000000000000000000000000000000\n        /* \"#utility.yul\":3010:3011   */\n      0x00\n        /* \"#utility.yul\":3002:3008   */\n      dup3\n        /* \"#utility.yul\":2998:3012   */\n      add\n        /* \"#utility.yul\":2991:3027   */\n      mstore\n        /* \"#utility.yul\":2874:3034   */\n      pop\n      jump\t// out\n        /* \"#utility.yul\":3040:3406   */\n    tag_71:\n        /* \"#utility.yul\":3182:3185   */\n      0x00\n        /* \"#utility.yul\":3203:3270   */\n      tag_110\n        /* \"#utility.yul\":3267:3269   */\n      0x0a\n        /* \"#utility.yul\":3262:3265   */\n      dup4\n        /* \"#utility.yul\":3203:3270   */\n      tag_69\n      jump\t// in\n    tag_110:\n        /* \"#utility.yul\":3196:3270   */\n      swap2\n      pop\n        /* \"#utility.yul\":3279:3372   */\n      tag_111\n        /* \"#utility.yul\":3368:3371   */\n      dup3\n        /* \"#utility.yul\":3279:3372   */\n      tag_70\n      jump\t// in\n    tag_111:\n        /* \"#utility.yul\":3397:3399   */\n      0x20\n        /* \"#utility.yul\":3392:3395   */\n      dup3\n        /* \"#utility.yul\":3388:3400   */\n      add\n        /* \"#utility.yul\":3381:3400   */\n      swap1\n      pop\n        /* \"#utility.yul\":3040:3406   */\n      swap2\n      swap1\n      pop\n      jump\t// out\n        /* \"#utility.yul\":3412:3831   */\n    tag_47:\n        /* \"#utility.yul\":3578:3582   */\n      0x00\n        /* \"#utility.yul\":3616:3618   */\n      0x20\n        /* \"#utility.yul\":3605:3614   */\n      dup3\n        /* \"#utility.yul\":3601:3619   */\n      add\n        /* \"#utility.yul\":3593:3619   */\n      swap1\n      pop\n        /* \"#utility.yul\":3665:3674   */\n      dup2\n        /* \"#utility.yul\":3659:3663   */\n      dup2\n        /* \"#utility.yul\":3655:3675   */\n      sub\n        /* \"#utility.yul\":3651:3652   */\n      0x00\n        /* \"#utility.yul\":3640:3649   */\n      dup4\n        /* \"#utility.yul\":3636:3653   */\n      add\n        /* \"#utility.yul\":3629:3676   */\n      mstore\n        /* \"#utility.yul\":3693:3824   */\n      tag_113\n        /* \"#utility.yul\":3819:3823   */\n      dup2\n        /* \"#utility.yul\":3693:3824   */\n      tag_71\n      jump\t// in\n    tag_113:\n        /* \"#utility.yul\":3685:3824   */\n      swap1\n      pop\n        /* \"#utility.yul\":3412:3831   */\n      swap2\n      swap1\n      pop\n      jump\t// out\n    stop\n\n    sub_0: assembly {\n            /* \"XenFactory/XenActive.sol\":345:1034  contract XenActive{... */\n          mstore(0x40, 0x80)\n            /* \"XenFactory/XenActive.sol\":415:457  0x6971b57a29764eD7af4A4a1ED7a512Dde9369Ef6 */\n          0x6971b57a29764ed7af4a4a1ed7a512dde9369ef6\n            /* \"XenFactory/XenActive.sol\":393:457  address public owner= 0x6971b57a29764eD7af4A4a1ED7a512Dde9369Ef6 */\n          0x00\n          dup1\n          0x0100\n          exp\n          dup2\n          sload\n          dup2\n          0xffffffffffffffffffffffffffffffffffffffff\n          mul\n          not\n          and\n          swap1\n          dup4\n          0xffffffffffffffffffffffffffffffffffffffff\n          and\n          mul\n          or\n          swap1\n          sstore\n          pop\n            /* \"XenFactory/XenActive.sol\":513:555  0x2AB0e9e4eE70FFf1fB9D67031E44F6410170d00e */\n          0x2ab0e9e4ee70fff1fb9d67031e44f6410170d00e\n            /* \"XenFactory/XenActive.sol\":490:555  address public _addr = 0x2AB0e9e4eE70FFf1fB9D67031E44F6410170d00e */\n          0x01\n          exp(0x0100, 0x00)\n          dup2\n          sload\n          dup2\n          0xffffffffffffffffffffffffffffffffffffffff\n          mul\n          not\n          and\n          swap1\n          dup4\n          0xffffffffffffffffffffffffffffffffffffffff\n          and\n          mul\n          or\n          swap1\n          sstore\n          pop\n            /* \"XenFactory/XenActive.sol\":591:640  constructor() public{... */\n          callvalue\n          dup1\n          iszero\n          tag_1\n          jumpi\n          0x00\n          dup1\n          revert\n        tag_1:\n          pop\n            /* \"XenFactory/XenActive.sol\":622:632  claimxen() */\n          tag_4\n            /* \"XenFactory/XenActive.sol\":622:630  claimxen */\n          shl(0x20, tag_5)\n            /* \"XenFactory/XenActive.sol\":622:632  claimxen() */\n          0x20\n          shr\n          jump\t// in\n        tag_4:\n            /* \"XenFactory/XenActive.sol\":345:1034  contract XenActive{... */\n          jump(tag_6)\n            /* \"XenFactory/XenActive.sol\":648:745  function claimxen() private{... */\n        tag_5:\n            /* \"XenFactory/XenActive.sol\":717:722  _addr */\n          0x01\n          0x00\n          swap1\n          sload\n          swap1\n          0x0100\n          exp\n          swap1\n          div\n          0xffffffffffffffffffffffffffffffffffffffff\n          and\n            /* \"XenFactory/XenActive.sol\":712:733  IXen(_addr).claimRank */\n          0xffffffffffffffffffffffffffffffffffffffff\n          and\n          0x9ff054df\n            /* \"XenFactory/XenActive.sol\":734:736  30 */\n          0x1e\n            /* \"XenFactory/XenActive.sol\":712:737  IXen(_addr).claimRank(30) */\n          mload(0x40)\n          dup3\n          0xffffffff\n          and\n          0xe0\n          shl\n          dup2\n          mstore\n          0x04\n          add\n          tag_8\n          swap2\n          swap1\n          tag_9\n          jump\t// in\n        tag_8:\n          0x00\n          mload(0x40)\n          dup1\n          dup4\n          sub\n          dup2\n          0x00\n          dup8\n          dup1\n          extcodesize\n          iszero\n          dup1\n          iszero\n          tag_10\n          jumpi\n          0x00\n          dup1\n          revert\n        tag_10:\n          pop\n          gas\n          call\n          iszero\n          dup1\n          iszero\n          tag_12\n          jumpi\n          returndatasize\n          0x00\n          dup1\n          returndatacopy\n          revert(0x00, returndatasize)\n        tag_12:\n          pop\n          pop\n          pop\n          pop\n            /* \"XenFactory/XenActive.sol\":648:745  function claimxen() private{... */\n          jump\t// out\n            /* \"#utility.yul\":7:93   */\n        tag_13:\n            /* \"#utility.yul\":53:60   */\n          0x00\n            /* \"#utility.yul\":82:87   */\n          dup2\n            /* \"#utility.yul\":71:87   */\n          swap1\n          pop\n            /* \"#utility.yul\":7:93   */\n          swap2\n          swap1\n          pop\n          jump\t// out\n            /* \"#utility.yul\":99:176   */\n        tag_14:\n            /* \"#utility.yul\":136:143   */\n          0x00\n            /* \"#utility.yul\":165:170   */\n          dup2\n            /* \"#utility.yul\":154:170   */\n          swap1\n          pop\n            /* \"#utility.yul\":99:176   */\n          swap2\n          swap1\n          pop\n          jump\t// out\n            /* \"#utility.yul\":182:242   */\n        tag_15:\n            /* \"#utility.yul\":210:213   */\n          0x00\n            /* \"#utility.yul\":231:236   */\n          dup2\n            /* \"#utility.yul\":224:236   */\n          swap1\n          pop\n            /* \"#utility.yul\":182:242   */\n          swap2\n          swap1\n          pop\n          jump\t// out\n            /* \"#utility.yul\":248:408   */\n        tag_16:\n            /* \"#utility.yul\":307:316   */\n          0x00\n            /* \"#utility.yul\":340:402   */\n          tag_23\n            /* \"#utility.yul\":358:401   */\n          tag_24\n            /* \"#utility.yul\":367:400   */\n          tag_25\n            /* \"#utility.yul\":394:399   */\n          dup5\n            /* \"#utility.yul\":367:400   */\n          tag_13\n          jump\t// in\n        tag_25:\n            /* \"#utility.yul\":358:401   */\n          tag_15\n          jump\t// in\n        tag_24:\n            /* \"#utility.yul\":340:402   */\n          tag_14\n          jump\t// in\n        tag_23:\n            /* \"#utility.yul\":327:402   */\n          swap1\n          pop\n            /* \"#utility.yul\":248:408   */\n          swap2\n          swap1\n          pop\n          jump\t// out\n            /* \"#utility.yul\":414:563   */\n        tag_17:\n            /* \"#utility.yul\":510:556   */\n          tag_27\n            /* \"#utility.yul\":550:555   */\n          dup2\n            /* \"#utility.yul\":510:556   */\n          tag_16\n          jump\t// in\n        tag_27:\n            /* \"#utility.yul\":505:508   */\n          dup3\n            /* \"#utility.yul\":498:557   */\n          mstore\n            /* \"#utility.yul\":414:563   */\n          pop\n          pop\n          jump\t// out\n            /* \"#utility.yul\":569:809   */\n        tag_9:\n            /* \"#utility.yul\":671:675   */\n          0x00\n            /* \"#utility.yul\":709:711   */\n          0x20\n            /* \"#utility.yul\":698:707   */\n          dup3\n            /* \"#utility.yul\":694:712   */\n          add\n            /* \"#utility.yul\":686:712   */\n          swap1\n          pop\n            /* \"#utility.yul\":722:802   */\n          tag_29\n            /* \"#utility.yul\":799:800   */\n          0x00\n            /* \"#utility.yul\":788:797   */\n          dup4\n            /* \"#utility.yul\":784:801   */\n          add\n            /* \"#utility.yul\":775:781   */\n          dup5\n            /* \"#utility.yul\":722:802   */\n          tag_17\n          jump\t// in\n        tag_29:\n            /* \"#utility.yul\":569:809   */\n          swap3\n          swap2\n          pop\n          pop\n          jump\t// out\n            /* \"XenFactory/XenActive.sol\":345:1034  contract XenActive{... */\n        tag_6:\n          dataSize(sub_0)\n          dup1\n          dataOffset(sub_0)\n          0x00\n          codecopy\n          0x00\n          return\n        stop\n\n        sub_0: assembly {\n                /* \"XenFactory/XenActive.sol\":345:1034  contract XenActive{... */\n              mstore(0x40, 0x80)\n              callvalue\n              dup1\n              iszero\n              tag_1\n              jumpi\n              0x00\n              dup1\n              revert\n            tag_1:\n              pop\n              jumpi(tag_2, lt(calldatasize, 0x04))\n              shr(0xe0, calldataload(0x00))\n              dup1\n              0x62ab1a77\n              eq\n              tag_3\n              jumpi\n              dup1\n              0x8b4ef897\n              eq\n              tag_4\n              jumpi\n              dup1\n              0x8da5cb5b\n              eq\n              tag_5\n              jumpi\n            tag_2:\n              0x00\n              dup1\n              revert\n                /* \"XenFactory/XenActive.sol\":490:555  address public _addr = 0x2AB0e9e4eE70FFf1fB9D67031E44F6410170d00e */\n            tag_3:\n              tag_6\n              tag_7\n              jump\t// in\n            tag_6:\n              mload(0x40)\n              tag_8\n              swap2\n              swap1\n              tag_9\n              jump\t// in\n            tag_8:\n              mload(0x40)\n              dup1\n              swap2\n              sub\n              swap1\n              return\n                /* \"XenFactory/XenActive.sol\":793:1029  function rewardTransfer() external {... */\n            tag_4:\n              tag_10\n              tag_11\n              jump\t// in\n            tag_10:\n              stop\n                /* \"XenFactory/XenActive.sol\":393:457  address public owner= 0x6971b57a29764eD7af4A4a1ED7a512Dde9369Ef6 */\n            tag_5:\n              tag_12\n              tag_13\n              jump\t// in\n            tag_12:\n              mload(0x40)\n              tag_14\n              swap2\n              swap1\n              tag_9\n              jump\t// in\n            tag_14:\n              mload(0x40)\n              dup1\n              swap2\n              sub\n              swap1\n              return\n                /* \"XenFactory/XenActive.sol\":490:555  address public _addr = 0x2AB0e9e4eE70FFf1fB9D67031E44F6410170d00e */\n            tag_7:\n              0x01\n              0x00\n              swap1\n              sload\n              swap1\n              0x0100\n              exp\n              swap1\n              div\n              0xffffffffffffffffffffffffffffffffffffffff\n              and\n              dup2\n              jump\t// out\n                /* \"XenFactory/XenActive.sol\":793:1029  function rewardTransfer() external {... */\n            tag_11:\n                /* \"XenFactory/XenActive.sol\":844:849  _addr */\n              0x01\n              0x00\n              swap1\n              sload\n              swap1\n              0x0100\n              exp\n              swap1\n              div\n              0xffffffffffffffffffffffffffffffffffffffff\n              and\n                /* \"XenFactory/XenActive.sol\":839:866  IXen(_addr).claimMintReward */\n              0xffffffffffffffffffffffffffffffffffffffff\n              and\n              0x52c7f8dc\n                /* \"XenFactory/XenActive.sol\":839:868  IXen(_addr).claimMintReward() */\n              mload(0x40)\n              dup2\n              0xffffffff\n              and\n              0xe0\n              shl\n              dup2\n              mstore\n              0x04\n              add\n              0x00\n              mload(0x40)\n              dup1\n              dup4\n              sub\n              dup2\n              0x00\n              dup8\n              dup1\n              extcodesize\n              iszero\n              dup1\n              iszero\n              tag_16\n              jumpi\n              0x00\n              dup1\n              revert\n            tag_16:\n              pop\n              gas\n              call\n              iszero\n              dup1\n              iszero\n              tag_18\n              jumpi\n              returndatasize\n              0x00\n              dup1\n              returndatacopy\n              revert(0x00, returndatasize)\n            tag_18:\n              pop\n              pop\n              pop\n              pop\n                /* \"XenFactory/XenActive.sol\":879:895  uint256 banlance */\n              0x00\n                /* \"XenFactory/XenActive.sol\":903:908  _addr */\n              0x01\n              0x00\n              swap1\n              sload\n              swap1\n              0x0100\n              exp\n              swap1\n              div\n              0xffffffffffffffffffffffffffffffffffffffff\n              and\n                /* \"XenFactory/XenActive.sol\":898:919  IXen(_addr).balanceOf */\n              0xffffffffffffffffffffffffffffffffffffffff\n              and\n              0x70a08231\n                /* \"XenFactory/XenActive.sol\":928:932  this */\n              address\n                /* \"XenFactory/XenActive.sol\":898:934  IXen(_addr).balanceOf(address(this)) */\n              mload(0x40)\n              dup3\n              0xffffffff\n              and\n              0xe0\n              shl\n              dup2\n              mstore\n              0x04\n              add\n              tag_19\n              swap2\n              swap1\n              tag_9\n              jump\t// in\n            tag_19:\n              0x20\n              mload(0x40)\n              dup1\n              dup4\n              sub\n              dup2\n              dup7\n              gas\n              staticcall\n              iszero\n              dup1\n              iszero\n              tag_21\n              jumpi\n              returndatasize\n              0x00\n              dup1\n              returndatacopy\n              revert(0x00, returndatasize)\n            tag_21:\n              pop\n              pop\n              pop\n              pop\n              mload(0x40)\n              returndatasize\n              not(0x1f)\n              0x1f\n              dup3\n              add\n              and\n              dup3\n              add\n              dup1\n              0x40\n              mstore\n              pop\n              dup2\n              add\n              swap1\n              tag_22\n              swap2\n              swap1\n              tag_23\n              jump\t// in\n            tag_22:\n                /* \"XenFactory/XenActive.sol\":879:934  uint256 banlance = IXen(_addr).balanceOf(address(this)) */\n              swap1\n              pop\n                /* \"XenFactory/XenActive.sol\":950:955  _addr */\n              0x01\n              0x00\n              swap1\n              sload\n              swap1\n              0x0100\n              exp\n              swap1\n              div\n              0xffffffffffffffffffffffffffffffffffffffff\n              and\n                /* \"XenFactory/XenActive.sol\":945:965  IXen(_addr).transfer */\n              0xffffffffffffffffffffffffffffffffffffffff\n              and\n              0xa9059cbb\n                /* \"XenFactory/XenActive.sol\":966:971  owner */\n              0x00\n              dup1\n              sload\n              swap1\n              0x0100\n              exp\n              swap1\n              div\n              0xffffffffffffffffffffffffffffffffffffffff\n              and\n                /* \"XenFactory/XenActive.sol\":973:981  banlance */\n              dup4\n                /* \"XenFactory/XenActive.sol\":945:982  IXen(_addr).transfer(owner, banlance) */\n              mload(0x40)\n              dup4\n              0xffffffff\n              and\n              0xe0\n              shl\n              dup2\n              mstore\n              0x04\n              add\n              tag_24\n              swap3\n              swap2\n              swap1\n              tag_25\n              jump\t// in\n            tag_24:\n              0x20\n              mload(0x40)\n              dup1\n              dup4\n              sub\n              dup2\n              0x00\n              dup8\n              gas\n              call\n              iszero\n              dup1\n              iszero\n              tag_27\n              jumpi\n              returndatasize\n              0x00\n              dup1\n              returndatacopy\n              revert(0x00, returndatasize)\n            tag_27:\n              pop\n              pop\n              pop\n              pop\n              mload(0x40)\n              returndatasize\n              not(0x1f)\n              0x1f\n              dup3\n              add\n              and\n              dup3\n              add\n              dup1\n              0x40\n              mstore\n              pop\n              dup2\n              add\n              swap1\n              tag_28\n              swap2\n              swap1\n              tag_29\n              jump\t// in\n            tag_28:\n              pop\n                /* \"XenFactory/XenActive.sol\":1014:1019  owner */\n              0x00\n              dup1\n              sload\n              swap1\n              0x0100\n              exp\n              swap1\n              div\n              0xffffffffffffffffffffffffffffffffffffffff\n              and\n                /* \"XenFactory/XenActive.sol\":993:1021  selfdestruct(payable(owner)) */\n              0xffffffffffffffffffffffffffffffffffffffff\n              and\n              selfdestruct\n                /* \"XenFactory/XenActive.sol\":393:457  address public owner= 0x6971b57a29764eD7af4A4a1ED7a512Dde9369Ef6 */\n            tag_13:\n              0x00\n              dup1\n              sload\n              swap1\n              0x0100\n              exp\n              swap1\n              div\n              0xffffffffffffffffffffffffffffffffffffffff\n              and\n              dup2\n              jump\t// out\n                /* \"#utility.yul\":7:133   */\n            tag_30:\n                /* \"#utility.yul\":44:51   */\n              0x00\n                /* \"#utility.yul\":84:126   */\n              0xffffffffffffffffffffffffffffffffffffffff\n                /* \"#utility.yul\":77:82   */\n              dup3\n                /* \"#utility.yul\":73:127   */\n              and\n                /* \"#utility.yul\":62:127   */\n              swap1\n              pop\n                /* \"#utility.yul\":7:133   */\n              swap2\n              swap1\n              pop\n              jump\t// out\n                /* \"#utility.yul\":139:235   */\n            tag_31:\n                /* \"#utility.yul\":176:183   */\n              0x00\n                /* \"#utility.yul\":205:229   */\n              tag_46\n                /* \"#utility.yul\":223:228   */\n              dup3\n                /* \"#utility.yul\":205:229   */\n              tag_30\n              jump\t// in\n            tag_46:\n                /* \"#utility.yul\":194:229   */\n              swap1\n              pop\n                /* \"#utility.yul\":139:235   */\n              swap2\n              swap1\n              pop\n              jump\t// out\n                /* \"#utility.yul\":241:359   */\n            tag_32:\n                /* \"#utility.yul\":328:352   */\n              tag_48\n                /* \"#utility.yul\":346:351   */\n              dup2\n                /* \"#utility.yul\":328:352   */\n              tag_31\n              jump\t// in\n            tag_48:\n                /* \"#utility.yul\":323:326   */\n              dup3\n                /* \"#utility.yul\":316:353   */\n              mstore\n                /* \"#utility.yul\":241:359   */\n              pop\n              pop\n              jump\t// out\n                /* \"#utility.yul\":365:587   */\n            tag_9:\n                /* \"#utility.yul\":458:462   */\n              0x00\n                /* \"#utility.yul\":496:498   */\n              0x20\n                /* \"#utility.yul\":485:494   */\n              dup3\n                /* \"#utility.yul\":481:499   */\n              add\n                /* \"#utility.yul\":473:499   */\n              swap1\n              pop\n                /* \"#utility.yul\":509:580   */\n              tag_50\n                /* \"#utility.yul\":577:578   */\n              0x00\n                /* \"#utility.yul\":566:575   */\n              dup4\n                /* \"#utility.yul\":562:579   */\n              add\n                /* \"#utility.yul\":553:559   */\n              dup5\n                /* \"#utility.yul\":509:580   */\n              tag_32\n              jump\t// in\n            tag_50:\n                /* \"#utility.yul\":365:587   */\n              swap3\n              swap2\n              pop\n              pop\n              jump\t// out\n                /* \"#utility.yul\":674:791   */\n            tag_34:\n                /* \"#utility.yul\":783:784   */\n              0x00\n                /* \"#utility.yul\":780:781   */\n              dup1\n                /* \"#utility.yul\":773:785   */\n              revert\n                /* \"#utility.yul\":920:997   */\n            tag_36:\n                /* \"#utility.yul\":957:964   */\n              0x00\n                /* \"#utility.yul\":986:991   */\n              dup2\n                /* \"#utility.yul\":975:991   */\n              swap1\n              pop\n                /* \"#utility.yul\":920:997   */\n              swap2\n              swap1\n              pop\n              jump\t// out\n                /* \"#utility.yul\":1003:1125   */\n            tag_37:\n                /* \"#utility.yul\":1076:1100   */\n              tag_56\n                /* \"#utility.yul\":1094:1099   */\n              dup2\n                /* \"#utility.yul\":1076:1100   */\n              tag_36\n              jump\t// in\n            tag_56:\n                /* \"#utility.yul\":1069:1074   */\n              dup2\n                /* \"#utility.yul\":1066:1101   */\n              eq\n                /* \"#utility.yul\":1056:1119   */\n              tag_57\n              jumpi\n                /* \"#utility.yul\":1115:1116   */\n              0x00\n                /* \"#utility.yul\":1112:1113   */\n              dup1\n                /* \"#utility.yul\":1105:1117   */\n              revert\n                /* \"#utility.yul\":1056:1119   */\n            tag_57:\n                /* \"#utility.yul\":1003:1125   */\n              pop\n              jump\t// out\n                /* \"#utility.yul\":1131:1274   */\n            tag_38:\n                /* \"#utility.yul\":1188:1193   */\n              0x00\n                /* \"#utility.yul\":1219:1225   */\n              dup2\n                /* \"#utility.yul\":1213:1226   */\n              mload\n                /* \"#utility.yul\":1204:1226   */\n              swap1\n              pop\n                /* \"#utility.yul\":1235:1268   */\n              tag_59\n                /* \"#utility.yul\":1262:1267   */\n              dup2\n                /* \"#utility.yul\":1235:1268   */\n              tag_37\n              jump\t// in\n            tag_59:\n                /* \"#utility.yul\":1131:1274   */\n              swap3\n              swap2\n              pop\n              pop\n              jump\t// out\n                /* \"#utility.yul\":1280:1631   */\n            tag_23:\n                /* \"#utility.yul\":1350:1356   */\n              0x00\n                /* \"#utility.yul\":1399:1401   */\n              0x20\n                /* \"#utility.yul\":1387:1396   */\n              dup3\n                /* \"#utility.yul\":1378:1385   */\n              dup5\n                /* \"#utility.yul\":1374:1397   */\n              sub\n                /* \"#utility.yul\":1370:1402   */\n              slt\n                /* \"#utility.yul\":1367:1486   */\n              iszero\n              tag_61\n              jumpi\n                /* \"#utility.yul\":1405:1484   */\n              tag_62\n              tag_34\n              jump\t// in\n            tag_62:\n                /* \"#utility.yul\":1367:1486   */\n            tag_61:\n                /* \"#utility.yul\":1525:1526   */\n              0x00\n                /* \"#utility.yul\":1550:1614   */\n              tag_63\n                /* \"#utility.yul\":1606:1613   */\n              dup5\n                /* \"#utility.yul\":1597:1603   */\n              dup3\n                /* \"#utility.yul\":1586:1595   */\n              dup6\n                /* \"#utility.yul\":1582:1604   */\n              add\n                /* \"#utility.yul\":1550:1614   */\n              tag_38\n              jump\t// in\n            tag_63:\n                /* \"#utility.yul\":1540:1614   */\n              swap2\n              pop\n                /* \"#utility.yul\":1496:1624   */\n              pop\n                /* \"#utility.yul\":1280:1631   */\n              swap3\n              swap2\n              pop\n              pop\n              jump\t// out\n                /* \"#utility.yul\":1637:1755   */\n            tag_39:\n                /* \"#utility.yul\":1724:1748   */\n              tag_65\n                /* \"#utility.yul\":1742:1747   */\n              dup2\n                /* \"#utility.yul\":1724:1748   */\n              tag_36\n              jump\t// in\n            tag_65:\n                /* \"#utility.yul\":1719:1722   */\n              dup3\n                /* \"#utility.yul\":1712:1749   */\n              mstore\n                /* \"#utility.yul\":1637:1755   */\n              pop\n              pop\n              jump\t// out\n                /* \"#utility.yul\":1761:2093   */\n            tag_25:\n                /* \"#utility.yul\":1882:1886   */\n              0x00\n                /* \"#utility.yul\":1920:1922   */\n              0x40\n                /* \"#utility.yul\":1909:1918   */\n              dup3\n                /* \"#utility.yul\":1905:1923   */\n              add\n                /* \"#utility.yul\":1897:1923   */\n              swap1\n              pop\n                /* \"#utility.yul\":1933:2004   */\n              tag_67\n                /* \"#utility.yul\":2001:2002   */\n              0x00\n                /* \"#utility.yul\":1990:1999   */\n              dup4\n                /* \"#utility.yul\":1986:2003   */\n              add\n                /* \"#utility.yul\":1977:1983   */\n              dup6\n                /* \"#utility.yul\":1933:2004   */\n              tag_32\n              jump\t// in\n            tag_67:\n                /* \"#utility.yul\":2014:2086   */\n              tag_68\n                /* \"#utility.yul\":2082:2084   */\n              0x20\n                /* \"#utility.yul\":2071:2080   */\n              dup4\n                /* \"#utility.yul\":2067:2085   */\n              add\n                /* \"#utility.yul\":2058:2064   */\n              dup5\n                /* \"#utility.yul\":2014:2086   */\n              tag_39\n              jump\t// in\n            tag_68:\n                /* \"#utility.yul\":1761:2093   */\n              swap4\n              swap3\n              pop\n              pop\n              pop\n              jump\t// out\n                /* \"#utility.yul\":2099:2189   */\n            tag_40:\n                /* \"#utility.yul\":2133:2140   */\n              0x00\n                /* \"#utility.yul\":2176:2181   */\n              dup2\n                /* \"#utility.yul\":2169:2182   */\n              iszero\n                /* \"#utility.yul\":2162:2183   */\n              iszero\n                /* \"#utility.yul\":2151:2183   */\n              swap1\n              pop\n                /* \"#utility.yul\":2099:2189   */\n              swap2\n              swap1\n              pop\n              jump\t// out\n                /* \"#utility.yul\":2195:2311   */\n            tag_41:\n                /* \"#utility.yul\":2265:2286   */\n              tag_71\n                /* \"#utility.yul\":2280:2285   */\n              dup2\n                /* \"#utility.yul\":2265:2286   */\n              tag_40\n              jump\t// in\n            tag_71:\n                /* \"#utility.yul\":2258:2263   */\n              dup2\n                /* \"#utility.yul\":2255:2287   */\n              eq\n                /* \"#utility.yul\":2245:2305   */\n              tag_72\n              jumpi\n                /* \"#utility.yul\":2301:2302   */\n              0x00\n                /* \"#utility.yul\":2298:2299   */\n              dup1\n                /* \"#utility.yul\":2291:2303   */\n              revert\n                /* \"#utility.yul\":2245:2305   */\n            tag_72:\n                /* \"#utility.yul\":2195:2311   */\n              pop\n              jump\t// out\n                /* \"#utility.yul\":2317:2454   */\n            tag_42:\n                /* \"#utility.yul\":2371:2376   */\n              0x00\n                /* \"#utility.yul\":2402:2408   */\n              dup2\n                /* \"#utility.yul\":2396:2409   */\n              mload\n                /* \"#utility.yul\":2387:2409   */\n              swap1\n              pop\n                /* \"#utility.yul\":2418:2448   */\n              tag_74\n                /* \"#utility.yul\":2442:2447   */\n              dup2\n                /* \"#utility.yul\":2418:2448   */\n              tag_41\n              jump\t// in\n            tag_74:\n                /* \"#utility.yul\":2317:2454   */\n              swap3\n              swap2\n              pop\n              pop\n              jump\t// out\n                /* \"#utility.yul\":2460:2805   */\n            tag_29:\n                /* \"#utility.yul\":2527:2533   */\n              0x00\n                /* \"#utility.yul\":2576:2578   */\n              0x20\n                /* \"#utility.yul\":2564:2573   */\n              dup3\n                /* \"#utility.yul\":2555:2562   */\n              dup5\n                /* \"#utility.yul\":2551:2574   */\n              sub\n                /* \"#utility.yul\":2547:2579   */\n              slt\n                /* \"#utility.yul\":2544:2663   */\n              iszero\n              tag_76\n              jumpi\n                /* \"#utility.yul\":2582:2661   */\n              tag_77\n              tag_34\n              jump\t// in\n            tag_77:\n                /* \"#utility.yul\":2544:2663   */\n            tag_76:\n                /* \"#utility.yul\":2702:2703   */\n              0x00\n                /* \"#utility.yul\":2727:2788   */\n              tag_78\n                /* \"#utility.yul\":2780:2787   */\n              dup5\n                /* \"#utility.yul\":2771:2777   */\n              dup3\n                /* \"#utility.yul\":2760:2769   */\n              dup6\n                /* \"#utility.yul\":2756:2778   */\n              add\n                /* \"#utility.yul\":2727:2788   */\n              tag_42\n              jump\t// in\n            tag_78:\n                /* \"#utility.yul\":2717:2788   */\n              swap2\n              pop\n                /* \"#utility.yul\":2673:2798   */\n              pop\n                /* \"#utility.yul\":2460:2805   */\n              swap3\n              swap2\n              pop\n              pop\n              jump\t// out\n\n            auxdata: 0xa26469706673582212205e8a850096328e50af95f3757abdec50fcaadf5fe5b5caad11bf31a88522f1b164736f6c634300080a0033\n        }\n    }\n\n    auxdata: 0xa26469706673582212206d3cd12346bf36aa2405ce9bfbff6b38ee8125084e7db2a2af1280f57128bf2464736f6c634300080a0033\n}\n",
				"bytecode": {
					"linkReferences": {},
					"object": "608060405234801561001057600080fd5b50336000806101000a81548173ffffffffffffffffffffffffffffffffffffffff021916908373ffffffffffffffffffffffffffffffffffffffff160217905550610cb0806100606000396000f3fe60806040526004361061004e5760003560e01c80632986c0e5146100ee5780633ccfd60b146101195780635ded7e3514610123578063b2bdfa7b14610160578063ce6778001461018b5761004f565b5b6000600154905060005b60058110156100e357600061006c6101a2565b9050806002600085815260200190815260200160002060006101000a81548173ffffffffffffffffffffffffffffffffffffffff021916908373ffffffffffffffffffffffffffffffffffffffff1602179055506001836100cd919061041b565b92505080806100db90610471565b915050610059565b508060018190555050005b3480156100fa57600080fd5b506101036101d7565b60405161011091906104c9565b60405180910390f35b6101216101dd565b005b34801561012f57600080fd5b5061014a60048036038101906101459190610515565b6102b4565b6040516101579190610583565b60405180910390f35b34801561016c57600080fd5b506101756102e7565b6040516101829190610583565b60405180910390f35b34801561019757600080fd5b506101a061030b565b005b6000806040516101b1906103d5565b604051809103906000f0801580156101cd573d6000803e3d6000fd5b5090508091505090565b60015481565b60008054906101000a900473ffffffffffffffffffffffffffffffffffffffff1673ffffffffffffffffffffffffffffffffffffffff163373ffffffffffffffffffffffffffffffffffffffff161461026b576040517f08c379a0000000000000000000000000000000000000000000000000000000008152600401610262906105fb565b60405180910390fd5b3373ffffffffffffffffffffffffffffffffffffffff166108fc479081150290604051600060405180830381858888f193505050501580156102b1573d6000803e3d6000fd5b50565b60026020528060005260406000206000915054906101000a900473ffffffffffffffffffffffffffffffffffffffff1681565b60008054906101000a900473ffffffffffffffffffffffffffffffffffffffff1681565b6000600154905060005b818110156103c95760006002600083815260200190815260200160002060009054906101000a900473ffffffffffffffffffffffffffffffffffffffff1690508073ffffffffffffffffffffffffffffffffffffffff16638b4ef8976040518163ffffffff1660e01b8152600401600060405180830381600087803b15801561039d57600080fd5b505af11580156103b1573d6000803e3d6000fd5b505050505080806103c190610471565b915050610315565b50600060018190555050565b61065f8061061c83390190565b6000819050919050565b7f4e487b7100000000000000000000000000000000000000000000000000000000600052601160045260246000fd5b6000610426826103e2565b9150610431836103e2565b9250827fffffffffffffffffffffffffffffffffffffffffffffffffffffffffffffffff03821115610466576104656103ec565b5b828201905092915050565b600061047c826103e2565b91507fffffffffffffffffffffffffffffffffffffffffffffffffffffffffffffffff8214156104af576104ae6103ec565b5b600182019050919050565b6104c3816103e2565b82525050565b60006020820190506104de60008301846104ba565b92915050565b600080fd5b6104f2816103e2565b81146104fd57600080fd5b50565b60008135905061050f816104e9565b92915050565b60006020828403121561052b5761052a6104e4565b5b600061053984828501610500565b91505092915050565b600073ffffffffffffffffffffffffffffffffffffffff82169050919050565b600061056d82610542565b9050919050565b61057d81610562565b82525050565b60006020820190506105986000830184610574565b92915050565b600082825260208201905092915050565b7f6e6f74206f776e65722100000000000000000000000000000000000000000000600082015250565b60006105e5600a8361059e565b91506105f0826105af565b602082019050919050565b60006020820190508181036000830152610614816105d8565b905091905056fe6080604052736971b57a29764ed7af4a4a1ed7a512dde9369ef66000806101000a81548173ffffffffffffffffffffffffffffffffffffffff021916908373ffffffffffffffffffffffffffffffffffffffff160217905550732ab0e9e4ee70fff1fb9d67031e44f6410170d00e600160006101000a81548173ffffffffffffffffffffffffffffffffffffffff021916908373ffffffffffffffffffffffffffffffffffffffff1602179055503480156100b957600080fd5b506100c86100cd60201b60201c565b6101c7565b600160009054906101000a900473ffffffffffffffffffffffffffffffffffffffff1673ffffffffffffffffffffffffffffffffffffffff16639ff054df601e6040518263ffffffff1660e01b815260040161012991906101ac565b600060405180830381600087803b15801561014357600080fd5b505af1158015610157573d6000803e3d6000fd5b50505050565b6000819050919050565b6000819050919050565b6000819050919050565b600061019661019161018c8461015d565b610171565b610167565b9050919050565b6101a68161017b565b82525050565b60006020820190506101c1600083018461019d565b92915050565b610489806101d66000396000f3fe608060405234801561001057600080fd5b50600436106100415760003560e01c806362ab1a77146100465780638b4ef897146100645780638da5cb5b1461006e575b600080fd5b61004e61008c565b60405161005b9190610333565b60405180910390f35b61006c6100b2565b005b6100766102ce565b6040516100839190610333565b60405180910390f35b600160009054906101000a900473ffffffffffffffffffffffffffffffffffffffff1681565b600160009054906101000a900473ffffffffffffffffffffffffffffffffffffffff1673ffffffffffffffffffffffffffffffffffffffff166352c7f8dc6040518163ffffffff1660e01b8152600401600060405180830381600087803b15801561011c57600080fd5b505af1158015610130573d6000803e3d6000fd5b505050506000600160009054906101000a900473ffffffffffffffffffffffffffffffffffffffff1673ffffffffffffffffffffffffffffffffffffffff166370a08231306040518263ffffffff1660e01b81526004016101919190610333565b602060405180830381865afa1580156101ae573d6000803e3d6000fd5b505050506040513d601f19601f820116820180604052508101906101d29190610389565b9050600160009054906101000a900473ffffffffffffffffffffffffffffffffffffffff1673ffffffffffffffffffffffffffffffffffffffff1663a9059cbb60008054906101000a900473ffffffffffffffffffffffffffffffffffffffff16836040518363ffffffff1660e01b81526004016102519291906103c5565b6020604051808303816000875af1158015610270573d6000803e3d6000fd5b505050506040513d601f19601f820116820180604052508101906102949190610426565b5060008054906101000a900473ffffffffffffffffffffffffffffffffffffffff1673ffffffffffffffffffffffffffffffffffffffff16ff5b60008054906101000a900473ffffffffffffffffffffffffffffffffffffffff1681565b600073ffffffffffffffffffffffffffffffffffffffff82169050919050565b600061031d826102f2565b9050919050565b61032d81610312565b82525050565b60006020820190506103486000830184610324565b92915050565b600080fd5b6000819050919050565b61036681610353565b811461037157600080fd5b50565b6000815190506103838161035d565b92915050565b60006020828403121561039f5761039e61034e565b5b60006103ad84828501610374565b91505092915050565b6103bf81610353565b82525050565b60006040820190506103da6000830185610324565b6103e760208301846103b6565b9392505050565b60008115159050919050565b610403816103ee565b811461040e57600080fd5b50565b600081519050610420816103fa565b92915050565b60006020828403121561043c5761043b61034e565b5b600061044a84828501610411565b9150509291505056fea26469706673582212205e8a850096328e50af95f3757abdec50fcaadf5fe5b5caad11bf31a88522f1b164736f6c634300080a0033a26469706673582212206d3cd12346bf36aa2405ce9bfbff6b38ee8125084e7db2a2af1280f57128bf2464736f6c634300080a0033",
					"opcodes": "PUSH1 0x80 PUSH1 0x40 MSTORE CALLVALUE DUP1 ISZERO PUSH2 0x10 JUMPI PUSH1 0x0 DUP1 REVERT JUMPDEST POP CALLER PUSH1 0x0 DUP1 PUSH2 0x100 EXP DUP2 SLOAD DUP2 PUSH20 0xFFFFFFFFFFFFFFFFFFFFFFFFFFFFFFFFFFFFFFFF MUL NOT AND SWAP1 DUP4 PUSH20 0xFFFFFFFFFFFFFFFFFFFFFFFFFFFFFFFFFFFFFFFF AND MUL OR SWAP1 SSTORE POP PUSH2 0xCB0 DUP1 PUSH2 0x60 PUSH1 0x0 CODECOPY PUSH1 0x0 RETURN INVALID PUSH1 0x80 PUSH1 0x40 MSTORE PUSH1 0x4 CALLDATASIZE LT PUSH2 0x4E JUMPI PUSH1 0x0 CALLDATALOAD PUSH1 0xE0 SHR DUP1 PUSH4 0x2986C0E5 EQ PUSH2 0xEE JUMPI DUP1 PUSH4 0x3CCFD60B EQ PUSH2 0x119 JUMPI DUP1 PUSH4 0x5DED7E35 EQ PUSH2 0x123 JUMPI DUP1 PUSH4 0xB2BDFA7B EQ PUSH2 0x160 JUMPI DUP1 PUSH4 0xCE677800 EQ PUSH2 0x18B JUMPI PUSH2 0x4F JUMP JUMPDEST JUMPDEST PUSH1 0x0 PUSH1 0x1 SLOAD SWAP1 POP PUSH1 0x0 JUMPDEST PUSH1 0x5 DUP2 LT ISZERO PUSH2 0xE3 JUMPI PUSH1 0x0 PUSH2 0x6C PUSH2 0x1A2 JUMP JUMPDEST SWAP1 POP DUP1 PUSH1 0x2 PUSH1 0x0 DUP6 DUP2 MSTORE PUSH1 0x20 ADD SWAP1 DUP2 MSTORE PUSH1 0x20 ADD PUSH1 0x0 KECCAK256 PUSH1 0x0 PUSH2 0x100 EXP DUP2 SLOAD DUP2 PUSH20 0xFFFFFFFFFFFFFFFFFFFFFFFFFFFFFFFFFFFFFFFF MUL NOT AND SWAP1 DUP4 PUSH20 0xFFFFFFFFFFFFFFFFFFFFFFFFFFFFFFFFFFFFFFFF AND MUL OR SWAP1 SSTORE POP PUSH1 0x1 DUP4 PUSH2 0xCD SWAP2 SWAP1 PUSH2 0x41B JUMP JUMPDEST SWAP3 POP POP DUP1 DUP1 PUSH2 0xDB SWAP1 PUSH2 0x471 JUMP JUMPDEST SWAP2 POP POP PUSH2 0x59 JUMP JUMPDEST POP DUP1 PUSH1 0x1 DUP2 SWAP1 SSTORE POP POP STOP JUMPDEST CALLVALUE DUP1 ISZERO PUSH2 0xFA JUMPI PUSH1 0x0 DUP1 REVERT JUMPDEST POP PUSH2 0x103 PUSH2 0x1D7 JUMP JUMPDEST PUSH1 0x40 MLOAD PUSH2 0x110 SWAP2 SWAP1 PUSH2 0x4C9 JUMP JUMPDEST PUSH1 0x40 MLOAD DUP1 SWAP2 SUB SWAP1 RETURN JUMPDEST PUSH2 0x121 PUSH2 0x1DD JUMP JUMPDEST STOP JUMPDEST CALLVALUE DUP1 ISZERO PUSH2 0x12F JUMPI PUSH1 0x0 DUP1 REVERT JUMPDEST POP PUSH2 0x14A PUSH1 0x4 DUP1 CALLDATASIZE SUB DUP2 ADD SWAP1 PUSH2 0x145 SWAP2 SWAP1 PUSH2 0x515 JUMP JUMPDEST PUSH2 0x2B4 JUMP JUMPDEST PUSH1 0x40 MLOAD PUSH2 0x157 SWAP2 SWAP1 PUSH2 0x583 JUMP JUMPDEST PUSH1 0x40 MLOAD DUP1 SWAP2 SUB SWAP1 RETURN JUMPDEST CALLVALUE DUP1 ISZERO PUSH2 0x16C JUMPI PUSH1 0x0 DUP1 REVERT JUMPDEST POP PUSH2 0x175 PUSH2 0x2E7 JUMP JUMPDEST PUSH1 0x40 MLOAD PUSH2 0x182 SWAP2 SWAP1 PUSH2 0x583 JUMP JUMPDEST PUSH1 0x40 MLOAD DUP1 SWAP2 SUB SWAP1 RETURN JUMPDEST CALLVALUE DUP1 ISZERO PUSH2 0x197 JUMPI PUSH1 0x0 DUP1 REVERT JUMPDEST POP PUSH2 0x1A0 PUSH2 0x30B JUMP JUMPDEST STOP JUMPDEST PUSH1 0x0 DUP1 PUSH1 0x40 MLOAD PUSH2 0x1B1 SWAP1 PUSH2 0x3D5 JUMP JUMPDEST PUSH1 0x40 MLOAD DUP1 SWAP2 SUB SWAP1 PUSH1 0x0 CREATE DUP1 ISZERO DUP1 ISZERO PUSH2 0x1CD JUMPI RETURNDATASIZE PUSH1 0x0 DUP1 RETURNDATACOPY RETURNDATASIZE PUSH1 0x0 REVERT JUMPDEST POP SWAP1 POP DUP1 SWAP2 POP POP SWAP1 JUMP JUMPDEST PUSH1 0x1 SLOAD DUP2 JUMP JUMPDEST PUSH1 0x0 DUP1 SLOAD SWAP1 PUSH2 0x100 EXP SWAP1 DIV PUSH20 0xFFFFFFFFFFFFFFFFFFFFFFFFFFFFFFFFFFFFFFFF AND PUSH20 0xFFFFFFFFFFFFFFFFFFFFFFFFFFFFFFFFFFFFFFFF AND CALLER PUSH20 0xFFFFFFFFFFFFFFFFFFFFFFFFFFFFFFFFFFFFFFFF AND EQ PUSH2 0x26B JUMPI PUSH1 0x40 MLOAD PUSH32 0x8C379A000000000000000000000000000000000000000000000000000000000 DUP2 MSTORE PUSH1 0x4 ADD PUSH2 0x262 SWAP1 PUSH2 0x5FB JUMP JUMPDEST PUSH1 0x40 MLOAD DUP1 SWAP2 SUB SWAP1 REVERT JUMPDEST CALLER PUSH20 0xFFFFFFFFFFFFFFFFFFFFFFFFFFFFFFFFFFFFFFFF AND PUSH2 0x8FC SELFBALANCE SWAP1 DUP2 ISZERO MUL SWAP1 PUSH1 0x40 MLOAD PUSH1 0x0 PUSH1 0x40 MLOAD DUP1 DUP4 SUB DUP2 DUP6 DUP9 DUP9 CALL SWAP4 POP POP POP POP ISZERO DUP1 ISZERO PUSH2 0x2B1 JUMPI RETURNDATASIZE PUSH1 0x0 DUP1 RETURNDATACOPY RETURNDATASIZE PUSH1 0x0 REVERT JUMPDEST POP JUMP JUMPDEST PUSH1 0x2 PUSH1 0x20 MSTORE DUP1 PUSH1 0x0 MSTORE PUSH1 0x40 PUSH1 0x0 KECCAK256 PUSH1 0x0 SWAP2 POP SLOAD SWAP1 PUSH2 0x100 EXP SWAP1 DIV PUSH20 0xFFFFFFFFFFFFFFFFFFFFFFFFFFFFFFFFFFFFFFFF AND DUP2 JUMP JUMPDEST PUSH1 0x0 DUP1 SLOAD SWAP1 PUSH2 0x100 EXP SWAP1 DIV PUSH20 0xFFFFFFFFFFFFFFFFFFFFFFFFFFFFFFFFFFFFFFFF AND DUP2 JUMP JUMPDEST PUSH1 0x0 PUSH1 0x1 SLOAD SWAP1 POP PUSH1 0x0 JUMPDEST DUP2 DUP2 LT ISZERO PUSH2 0x3C9 JUMPI PUSH1 0x0 PUSH1 0x2 PUSH1 0x0 DUP4 DUP2 MSTORE PUSH1 0x20 ADD SWAP1 DUP2 MSTORE PUSH1 0x20 ADD PUSH1 0x0 KECCAK256 PUSH1 0x0 SWAP1 SLOAD SWAP1 PUSH2 0x100 EXP SWAP1 DIV PUSH20 0xFFFFFFFFFFFFFFFFFFFFFFFFFFFFFFFFFFFFFFFF AND SWAP1 POP DUP1 PUSH20 0xFFFFFFFFFFFFFFFFFFFFFFFFFFFFFFFFFFFFFFFF AND PUSH4 0x8B4EF897 PUSH1 0x40 MLOAD DUP2 PUSH4 0xFFFFFFFF AND PUSH1 0xE0 SHL DUP2 MSTORE PUSH1 0x4 ADD PUSH1 0x0 PUSH1 0x40 MLOAD DUP1 DUP4 SUB DUP2 PUSH1 0x0 DUP8 DUP1 EXTCODESIZE ISZERO DUP1 ISZERO PUSH2 0x39D JUMPI PUSH1 0x0 DUP1 REVERT JUMPDEST POP GAS CALL ISZERO DUP1 ISZERO PUSH2 0x3B1 JUMPI RETURNDATASIZE PUSH1 0x0 DUP1 RETURNDATACOPY RETURNDATASIZE PUSH1 0x0 REVERT JUMPDEST POP POP POP POP POP DUP1 DUP1 PUSH2 0x3C1 SWAP1 PUSH2 0x471 JUMP JUMPDEST SWAP2 POP POP PUSH2 0x315 JUMP JUMPDEST POP PUSH1 0x0 PUSH1 0x1 DUP2 SWAP1 SSTORE POP POP JUMP JUMPDEST PUSH2 0x65F DUP1 PUSH2 0x61C DUP4 CODECOPY ADD SWAP1 JUMP JUMPDEST PUSH1 0x0 DUP2 SWAP1 POP SWAP2 SWAP1 POP JUMP JUMPDEST PUSH32 0x4E487B7100000000000000000000000000000000000000000000000000000000 PUSH1 0x0 MSTORE PUSH1 0x11 PUSH1 0x4 MSTORE PUSH1 0x24 PUSH1 0x0 REVERT JUMPDEST PUSH1 0x0 PUSH2 0x426 DUP3 PUSH2 0x3E2 JUMP JUMPDEST SWAP2 POP PUSH2 0x431 DUP4 PUSH2 0x3E2 JUMP JUMPDEST SWAP3 POP DUP3 PUSH32 0xFFFFFFFFFFFFFFFFFFFFFFFFFFFFFFFFFFFFFFFFFFFFFFFFFFFFFFFFFFFFFFFF SUB DUP3 GT ISZERO PUSH2 0x466 JUMPI PUSH2 0x465 PUSH2 0x3EC JUMP JUMPDEST JUMPDEST DUP3 DUP3 ADD SWAP1 POP SWAP3 SWAP2 POP POP JUMP JUMPDEST PUSH1 0x0 PUSH2 0x47C DUP3 PUSH2 0x3E2 JUMP JUMPDEST SWAP2 POP PUSH32 0xFFFFFFFFFFFFFFFFFFFFFFFFFFFFFFFFFFFFFFFFFFFFFFFFFFFFFFFFFFFFFFFF DUP3 EQ ISZERO PUSH2 0x4AF JUMPI PUSH2 0x4AE PUSH2 0x3EC JUMP JUMPDEST JUMPDEST PUSH1 0x1 DUP3 ADD SWAP1 POP SWAP2 SWAP1 POP JUMP JUMPDEST PUSH2 0x4C3 DUP2 PUSH2 0x3E2 JUMP JUMPDEST DUP3 MSTORE POP POP JUMP JUMPDEST PUSH1 0x0 PUSH1 0x20 DUP3 ADD SWAP1 POP PUSH2 0x4DE PUSH1 0x0 DUP4 ADD DUP5 PUSH2 0x4BA JUMP JUMPDEST SWAP3 SWAP2 POP POP JUMP JUMPDEST PUSH1 0x0 DUP1 REVERT JUMPDEST PUSH2 0x4F2 DUP2 PUSH2 0x3E2 JUMP JUMPDEST DUP2 EQ PUSH2 0x4FD JUMPI PUSH1 0x0 DUP1 REVERT JUMPDEST POP JUMP JUMPDEST PUSH1 0x0 DUP2 CALLDATALOAD SWAP1 POP PUSH2 0x50F DUP2 PUSH2 0x4E9 JUMP JUMPDEST SWAP3 SWAP2 POP POP JUMP JUMPDEST PUSH1 0x0 PUSH1 0x20 DUP3 DUP5 SUB SLT ISZERO PUSH2 0x52B JUMPI PUSH2 0x52A PUSH2 0x4E4 JUMP JUMPDEST JUMPDEST PUSH1 0x0 PUSH2 0x539 DUP5 DUP3 DUP6 ADD PUSH2 0x500 JUMP JUMPDEST SWAP2 POP POP SWAP3 SWAP2 POP POP JUMP JUMPDEST PUSH1 0x0 PUSH20 0xFFFFFFFFFFFFFFFFFFFFFFFFFFFFFFFFFFFFFFFF DUP3 AND SWAP1 POP SWAP2 SWAP1 POP JUMP JUMPDEST PUSH1 0x0 PUSH2 0x56D DUP3 PUSH2 0x542 JUMP JUMPDEST SWAP1 POP SWAP2 SWAP1 POP JUMP JUMPDEST PUSH2 0x57D DUP2 PUSH2 0x562 JUMP JUMPDEST DUP3 MSTORE POP POP JUMP JUMPDEST PUSH1 0x0 PUSH1 0x20 DUP3 ADD SWAP1 POP PUSH2 0x598 PUSH1 0x0 DUP4 ADD DUP5 PUSH2 0x574 JUMP JUMPDEST SWAP3 SWAP2 POP POP JUMP JUMPDEST PUSH1 0x0 DUP3 DUP3 MSTORE PUSH1 0x20 DUP3 ADD SWAP1 POP SWAP3 SWAP2 POP POP JUMP JUMPDEST PUSH32 0x6E6F74206F776E65722100000000000000000000000000000000000000000000 PUSH1 0x0 DUP3 ADD MSTORE POP JUMP JUMPDEST PUSH1 0x0 PUSH2 0x5E5 PUSH1 0xA DUP4 PUSH2 0x59E JUMP JUMPDEST SWAP2 POP PUSH2 0x5F0 DUP3 PUSH2 0x5AF JUMP JUMPDEST PUSH1 0x20 DUP3 ADD SWAP1 POP SWAP2 SWAP1 POP JUMP JUMPDEST PUSH1 0x0 PUSH1 0x20 DUP3 ADD SWAP1 POP DUP2 DUP2 SUB PUSH1 0x0 DUP4 ADD MSTORE PUSH2 0x614 DUP2 PUSH2 0x5D8 JUMP JUMPDEST SWAP1 POP SWAP2 SWAP1 POP JUMP INVALID PUSH1 0x80 PUSH1 0x40 MSTORE PUSH20 0x6971B57A29764ED7AF4A4A1ED7A512DDE9369EF6 PUSH1 0x0 DUP1 PUSH2 0x100 EXP DUP2 SLOAD DUP2 PUSH20 0xFFFFFFFFFFFFFFFFFFFFFFFFFFFFFFFFFFFFFFFF MUL NOT AND SWAP1 DUP4 PUSH20 0xFFFFFFFFFFFFFFFFFFFFFFFFFFFFFFFFFFFFFFFF AND MUL OR SWAP1 SSTORE POP PUSH20 0x2AB0E9E4EE70FFF1FB9D67031E44F6410170D00E PUSH1 0x1 PUSH1 0x0 PUSH2 0x100 EXP DUP2 SLOAD DUP2 PUSH20 0xFFFFFFFFFFFFFFFFFFFFFFFFFFFFFFFFFFFFFFFF MUL NOT AND SWAP1 DUP4 PUSH20 0xFFFFFFFFFFFFFFFFFFFFFFFFFFFFFFFFFFFFFFFF AND MUL OR SWAP1 SSTORE POP CALLVALUE DUP1 ISZERO PUSH2 0xB9 JUMPI PUSH1 0x0 DUP1 REVERT JUMPDEST POP PUSH2 0xC8 PUSH2 0xCD PUSH1 0x20 SHL PUSH1 0x20 SHR JUMP JUMPDEST PUSH2 0x1C7 JUMP JUMPDEST PUSH1 0x1 PUSH1 0x0 SWAP1 SLOAD SWAP1 PUSH2 0x100 EXP SWAP1 DIV PUSH20 0xFFFFFFFFFFFFFFFFFFFFFFFFFFFFFFFFFFFFFFFF AND PUSH20 0xFFFFFFFFFFFFFFFFFFFFFFFFFFFFFFFFFFFFFFFF AND PUSH4 0x9FF054DF PUSH1 0x1E PUSH1 0x40 MLOAD DUP3 PUSH4 0xFFFFFFFF AND PUSH1 0xE0 SHL DUP2 MSTORE PUSH1 0x4 ADD PUSH2 0x129 SWAP2 SWAP1 PUSH2 0x1AC JUMP JUMPDEST PUSH1 0x0 PUSH1 0x40 MLOAD DUP1 DUP4 SUB DUP2 PUSH1 0x0 DUP8 DUP1 EXTCODESIZE ISZERO DUP1 ISZERO PUSH2 0x143 JUMPI PUSH1 0x0 DUP1 REVERT JUMPDEST POP GAS CALL ISZERO DUP1 ISZERO PUSH2 0x157 JUMPI RETURNDATASIZE PUSH1 0x0 DUP1 RETURNDATACOPY RETURNDATASIZE PUSH1 0x0 REVERT JUMPDEST POP POP POP POP JUMP JUMPDEST PUSH1 0x0 DUP2 SWAP1 POP SWAP2 SWAP1 POP JUMP JUMPDEST PUSH1 0x0 DUP2 SWAP1 POP SWAP2 SWAP1 POP JUMP JUMPDEST PUSH1 0x0 DUP2 SWAP1 POP SWAP2 SWAP1 POP JUMP JUMPDEST PUSH1 0x0 PUSH2 0x196 PUSH2 0x191 PUSH2 0x18C DUP5 PUSH2 0x15D JUMP JUMPDEST PUSH2 0x171 JUMP JUMPDEST PUSH2 0x167 JUMP JUMPDEST SWAP1 POP SWAP2 SWAP1 POP JUMP JUMPDEST PUSH2 0x1A6 DUP2 PUSH2 0x17B JUMP JUMPDEST DUP3 MSTORE POP POP JUMP JUMPDEST PUSH1 0x0 PUSH1 0x20 DUP3 ADD SWAP1 POP PUSH2 0x1C1 PUSH1 0x0 DUP4 ADD DUP5 PUSH2 0x19D JUMP JUMPDEST SWAP3 SWAP2 POP POP JUMP JUMPDEST PUSH2 0x489 DUP1 PUSH2 0x1D6 PUSH1 0x0 CODECOPY PUSH1 0x0 RETURN INVALID PUSH1 0x80 PUSH1 0x40 MSTORE CALLVALUE DUP1 ISZERO PUSH2 0x10 JUMPI PUSH1 0x0 DUP1 REVERT JUMPDEST POP PUSH1 0x4 CALLDATASIZE LT PUSH2 0x41 JUMPI PUSH1 0x0 CALLDATALOAD PUSH1 0xE0 SHR DUP1 PUSH4 0x62AB1A77 EQ PUSH2 0x46 JUMPI DUP1 PUSH4 0x8B4EF897 EQ PUSH2 0x64 JUMPI DUP1 PUSH4 0x8DA5CB5B EQ PUSH2 0x6E JUMPI JUMPDEST PUSH1 0x0 DUP1 REVERT JUMPDEST PUSH2 0x4E PUSH2 0x8C JUMP JUMPDEST PUSH1 0x40 MLOAD PUSH2 0x5B SWAP2 SWAP1 PUSH2 0x333 JUMP JUMPDEST PUSH1 0x40 MLOAD DUP1 SWAP2 SUB SWAP1 RETURN JUMPDEST PUSH2 0x6C PUSH2 0xB2 JUMP JUMPDEST STOP JUMPDEST PUSH2 0x76 PUSH2 0x2CE JUMP JUMPDEST PUSH1 0x40 MLOAD PUSH2 0x83 SWAP2 SWAP1 PUSH2 0x333 JUMP JUMPDEST PUSH1 0x40 MLOAD DUP1 SWAP2 SUB SWAP1 RETURN JUMPDEST PUSH1 0x1 PUSH1 0x0 SWAP1 SLOAD SWAP1 PUSH2 0x100 EXP SWAP1 DIV PUSH20 0xFFFFFFFFFFFFFFFFFFFFFFFFFFFFFFFFFFFFFFFF AND DUP2 JUMP JUMPDEST PUSH1 0x1 PUSH1 0x0 SWAP1 SLOAD SWAP1 PUSH2 0x100 EXP SWAP1 DIV PUSH20 0xFFFFFFFFFFFFFFFFFFFFFFFFFFFFFFFFFFFFFFFF AND PUSH20 0xFFFFFFFFFFFFFFFFFFFFFFFFFFFFFFFFFFFFFFFF AND PUSH4 0x52C7F8DC PUSH1 0x40 MLOAD DUP2 PUSH4 0xFFFFFFFF AND PUSH1 0xE0 SHL DUP2 MSTORE PUSH1 0x4 ADD PUSH1 0x0 PUSH1 0x40 MLOAD DUP1 DUP4 SUB DUP2 PUSH1 0x0 DUP8 DUP1 EXTCODESIZE ISZERO DUP1 ISZERO PUSH2 0x11C JUMPI PUSH1 0x0 DUP1 REVERT JUMPDEST POP GAS CALL ISZERO DUP1 ISZERO PUSH2 0x130 JUMPI RETURNDATASIZE PUSH1 0x0 DUP1 RETURNDATACOPY RETURNDATASIZE PUSH1 0x0 REVERT JUMPDEST POP POP POP POP PUSH1 0x0 PUSH1 0x1 PUSH1 0x0 SWAP1 SLOAD SWAP1 PUSH2 0x100 EXP SWAP1 DIV PUSH20 0xFFFFFFFFFFFFFFFFFFFFFFFFFFFFFFFFFFFFFFFF AND PUSH20 0xFFFFFFFFFFFFFFFFFFFFFFFFFFFFFFFFFFFFFFFF AND PUSH4 0x70A08231 ADDRESS PUSH1 0x40 MLOAD DUP3 PUSH4 0xFFFFFFFF AND PUSH1 0xE0 SHL DUP2 MSTORE PUSH1 0x4 ADD PUSH2 0x191 SWAP2 SWAP1 PUSH2 0x333 JUMP JUMPDEST PUSH1 0x20 PUSH1 0x40 MLOAD DUP1 DUP4 SUB DUP2 DUP7 GAS STATICCALL ISZERO DUP1 ISZERO PUSH2 0x1AE JUMPI RETURNDATASIZE PUSH1 0x0 DUP1 RETURNDATACOPY RETURNDATASIZE PUSH1 0x0 REVERT JUMPDEST POP POP POP POP PUSH1 0x40 MLOAD RETURNDATASIZE PUSH1 0x1F NOT PUSH1 0x1F DUP3 ADD AND DUP3 ADD DUP1 PUSH1 0x40 MSTORE POP DUP2 ADD SWAP1 PUSH2 0x1D2 SWAP2 SWAP1 PUSH2 0x389 JUMP JUMPDEST SWAP1 POP PUSH1 0x1 PUSH1 0x0 SWAP1 SLOAD SWAP1 PUSH2 0x100 EXP SWAP1 DIV PUSH20 0xFFFFFFFFFFFFFFFFFFFFFFFFFFFFFFFFFFFFFFFF AND PUSH20 0xFFFFFFFFFFFFFFFFFFFFFFFFFFFFFFFFFFFFFFFF AND PUSH4 0xA9059CBB PUSH1 0x0 DUP1 SLOAD SWAP1 PUSH2 0x100 EXP SWAP1 DIV PUSH20 0xFFFFFFFFFFFFFFFFFFFFFFFFFFFFFFFFFFFFFFFF AND DUP4 PUSH1 0x40 MLOAD DUP4 PUSH4 0xFFFFFFFF AND PUSH1 0xE0 SHL DUP2 MSTORE PUSH1 0x4 ADD PUSH2 0x251 SWAP3 SWAP2 SWAP1 PUSH2 0x3C5 JUMP JUMPDEST PUSH1 0x20 PUSH1 0x40 MLOAD DUP1 DUP4 SUB DUP2 PUSH1 0x0 DUP8 GAS CALL ISZERO DUP1 ISZERO PUSH2 0x270 JUMPI RETURNDATASIZE PUSH1 0x0 DUP1 RETURNDATACOPY RETURNDATASIZE PUSH1 0x0 REVERT JUMPDEST POP POP POP POP PUSH1 0x40 MLOAD RETURNDATASIZE PUSH1 0x1F NOT PUSH1 0x1F DUP3 ADD AND DUP3 ADD DUP1 PUSH1 0x40 MSTORE POP DUP2 ADD SWAP1 PUSH2 0x294 SWAP2 SWAP1 PUSH2 0x426 JUMP JUMPDEST POP PUSH1 0x0 DUP1 SLOAD SWAP1 PUSH2 0x100 EXP SWAP1 DIV PUSH20 0xFFFFFFFFFFFFFFFFFFFFFFFFFFFFFFFFFFFFFFFF AND PUSH20 0xFFFFFFFFFFFFFFFFFFFFFFFFFFFFFFFFFFFFFFFF AND SELFDESTRUCT JUMPDEST PUSH1 0x0 DUP1 SLOAD SWAP1 PUSH2 0x100 EXP SWAP1 DIV PUSH20 0xFFFFFFFFFFFFFFFFFFFFFFFFFFFFFFFFFFFFFFFF AND DUP2 JUMP JUMPDEST PUSH1 0x0 PUSH20 0xFFFFFFFFFFFFFFFFFFFFFFFFFFFFFFFFFFFFFFFF DUP3 AND SWAP1 POP SWAP2 SWAP1 POP JUMP JUMPDEST PUSH1 0x0 PUSH2 0x31D DUP3 PUSH2 0x2F2 JUMP JUMPDEST SWAP1 POP SWAP2 SWAP1 POP JUMP JUMPDEST PUSH2 0x32D DUP2 PUSH2 0x312 JUMP JUMPDEST DUP3 MSTORE POP POP JUMP JUMPDEST PUSH1 0x0 PUSH1 0x20 DUP3 ADD SWAP1 POP PUSH2 0x348 PUSH1 0x0 DUP4 ADD DUP5 PUSH2 0x324 JUMP JUMPDEST SWAP3 SWAP2 POP POP JUMP JUMPDEST PUSH1 0x0 DUP1 REVERT JUMPDEST PUSH1 0x0 DUP2 SWAP1 POP SWAP2 SWAP1 POP JUMP JUMPDEST PUSH2 0x366 DUP2 PUSH2 0x353 JUMP JUMPDEST DUP2 EQ PUSH2 0x371 JUMPI PUSH1 0x0 DUP1 REVERT JUMPDEST POP JUMP JUMPDEST PUSH1 0x0 DUP2 MLOAD SWAP1 POP PUSH2 0x383 DUP2 PUSH2 0x35D JUMP JUMPDEST SWAP3 SWAP2 POP POP JUMP JUMPDEST PUSH1 0x0 PUSH1 0x20 DUP3 DUP5 SUB SLT ISZERO PUSH2 0x39F JUMPI PUSH2 0x39E PUSH2 0x34E JUMP JUMPDEST JUMPDEST PUSH1 0x0 PUSH2 0x3AD DUP5 DUP3 DUP6 ADD PUSH2 0x374 JUMP JUMPDEST SWAP2 POP POP SWAP3 SWAP2 POP POP JUMP JUMPDEST PUSH2 0x3BF DUP2 PUSH2 0x353 JUMP JUMPDEST DUP3 MSTORE POP POP JUMP JUMPDEST PUSH1 0x0 PUSH1 0x40 DUP3 ADD SWAP1 POP PUSH2 0x3DA PUSH1 0x0 DUP4 ADD DUP6 PUSH2 0x324 JUMP JUMPDEST PUSH2 0x3E7 PUSH1 0x20 DUP4 ADD DUP5 PUSH2 0x3B6 JUMP JUMPDEST SWAP4 SWAP3 POP POP POP JUMP JUMPDEST PUSH1 0x0 DUP2 ISZERO ISZERO SWAP1 POP SWAP2 SWAP1 POP JUMP JUMPDEST PUSH2 0x403 DUP2 PUSH2 0x3EE JUMP JUMPDEST DUP2 EQ PUSH2 0x40E JUMPI PUSH1 0x0 DUP1 REVERT JUMPDEST POP JUMP JUMPDEST PUSH1 0x0 DUP2 MLOAD SWAP1 POP PUSH2 0x420 DUP2 PUSH2 0x3FA JUMP JUMPDEST SWAP3 SWAP2 POP POP JUMP JUMPDEST PUSH1 0x0 PUSH1 0x20 DUP3 DUP5 SUB SLT ISZERO PUSH2 0x43C JUMPI PUSH2 0x43B PUSH2 0x34E JUMP JUMPDEST JUMPDEST PUSH1 0x0 PUSH2 0x44A DUP5 DUP3 DUP6 ADD PUSH2 0x411 JUMP JUMPDEST SWAP2 POP POP SWAP3 SWAP2 POP POP JUMP INVALID LOG2 PUSH5 0x6970667358 0x22 SLT KECCAK256 0x5E DUP11 DUP6 STOP SWAP7 ORIGIN DUP15 POP 0xAF SWAP6 RETURN PUSH22 0x7ABDEC50FCAADF5FE5B5CAAD11BF31A88522F1B16473 PUSH16 0x6C634300080A0033A264697066735822 SLT KECCAK256 PUSH14 0x3CD12346BF36AA2405CE9BFBFF6B CODESIZE 0xEE DUP2 0x25 ADDMOD 0x4E PUSH30 0xB2A2AF1280F57128BF2464736F6C634300080A0033000000000000000000 "
				},
				"gasEstimates": {
					"creation": {
						"codeDepositCost": "649600",
						"executionCost": "24949",
						"totalCost": "674549"
					},
					"external": {
						"": "infinite",
						"SonAddress(uint256)": "2861",
						"_owner()": "2555",
						"claimXEN()": "infinite",
						"index()": "2407",
						"withdraw()": "infinite"
					},
					"internal": {
						"createActive()": "infinite"
					}
				},
				"methodIdentifiers": {
					"SonAddress(uint256)": "5ded7e35",
					"_owner()": "b2bdfa7b",
					"claimXEN()": "ce677800",
					"index()": "2986c0e5",
					"withdraw()": "3ccfd60b"
				}
			},
			"storageLayout": {
				"storage": [
					{
						"astId": 97,
						"contract": "XenFactory/XenFactory2.sol:XenFactory",
						"label": "_owner",
						"offset": 0,
						"slot": "0",
						"type": "t_address"
					},
					{
						"astId": 99,
						"contract": "XenFactory/XenFactory2.sol:XenFactory",
						"label": "index",
						"offset": 0,
						"slot": "1",
						"type": "t_uint256"
					},
					{
						"astId": 103,
						"contract": "XenFactory/XenFactory2.sol:XenFactory",
						"label": "SonAddress",
						"offset": 0,
						"slot": "2",
						"type": "t_mapping(t_uint256,t_address)"
					}
				],
				"types": {
					"t_address": {
						"encoding": "inplace",
						"label": "address",
						"numberOfBytes": "20"
					},
					"t_mapping(t_uint256,t_address)": {
						"encoding": "mapping",
						"key": "t_uint256",
						"label": "mapping(uint256 => address)",
						"numberOfBytes": "32",
						"value": "t_address"
					},
					"t_uint256": {
						"encoding": "inplace",
						"label": "uint256",
						"numberOfBytes": "32"
					}
				}
			},
			"userdoc": {
				"kind": "user",
				"methods": {},
				"version": 1
			}
		}
	}
}