{
	"XenFactory/XenCreate2.sol": {
		"MxenCreateFactory": {
			"abi": [
				{
					"inputs": [],
					"name": "claimXEN",
					"outputs": [],
					"stateMutability": "nonpayable",
					"type": "function"
				},
				{
					"inputs": [],
					"name": "index",
					"outputs": [
						{
							"internalType": "uint256",
							"name": "",
							"type": "uint256"
						}
					],
					"stateMutability": "view",
					"type": "function"
				},
				{
					"inputs": [
						{
							"internalType": "uint256",
							"name": "",
							"type": "uint256"
						}
					],
					"name": "indextoaddres",
					"outputs": [
						{
							"internalType": "address",
							"name": "",
							"type": "address"
						}
					],
					"stateMutability": "view",
					"type": "function"
				},
				{
					"stateMutability": "payable",
					"type": "receive"
				}
			],
			"devdoc": {
				"kind": "dev",
				"methods": {},
				"version": 1
			},
			"evm": {
				"assembly": "    /* \"XenFactory/XenCreate2.sol\":212:901  contract MxenCreateFactory{... */\n  mstore(0x40, 0x80)\n    /* \"XenFactory/XenCreate2.sol\":265:266  1 */\n  0x01\n    /* \"XenFactory/XenCreate2.sol\":245:266  uint public index = 1 */\n  0x00\n  sstore\n    /* \"XenFactory/XenCreate2.sol\":212:901  contract MxenCreateFactory{... */\n  callvalue\n  dup1\n  iszero\n  tag_1\n  jumpi\n  0x00\n  dup1\n  revert\ntag_1:\n  pop\n  dataSize(sub_0)\n  dup1\n  dataOffset(sub_0)\n  0x00\n  codecopy\n  0x00\n  return\nstop\n\nsub_0: assembly {\n        /* \"XenFactory/XenCreate2.sol\":212:901  contract MxenCreateFactory{... */\n      mstore(0x40, 0x80)\n      jumpi(tag_1, lt(calldatasize, 0x04))\n      shr(0xe0, calldataload(0x00))\n      dup1\n      0x0d01169f\n      eq\n      tag_3\n      jumpi\n      dup1\n      0x2986c0e5\n      eq\n      tag_4\n      jumpi\n      dup1\n      0xce677800\n      eq\n      tag_5\n      jumpi\n      jump(tag_2)\n    tag_1:\n      jumpi(tag_2, calldatasize)\n        /* \"XenFactory/XenCreate2.sol\":371:377  uint j */\n      0x00\n        /* \"XenFactory/XenCreate2.sol\":367:426  for(uint j = 0;j<100;j++){... */\n    tag_8:\n        /* \"XenFactory/XenCreate2.sol\":384:387  100 */\n      0x64\n        /* \"XenFactory/XenCreate2.sol\":382:383  j */\n      dup2\n        /* \"XenFactory/XenCreate2.sol\":382:387  j<100 */\n      lt\n        /* \"XenFactory/XenCreate2.sol\":367:426  for(uint j = 0;j<100;j++){... */\n      iszero\n      tag_9\n      jumpi\n        /* \"XenFactory/XenCreate2.sol\":407:414  claim() */\n      tag_11\n        /* \"XenFactory/XenCreate2.sol\":407:412  claim */\n      tag_12\n        /* \"XenFactory/XenCreate2.sol\":407:414  claim() */\n      jump\t// in\n    tag_11:\n        /* \"XenFactory/XenCreate2.sol\":388:391  j++ */\n      dup1\n      dup1\n      tag_13\n      swap1\n      tag_14\n      jump\t// in\n    tag_13:\n      swap2\n      pop\n      pop\n        /* \"XenFactory/XenCreate2.sol\":367:426  for(uint j = 0;j<100;j++){... */\n      jump(tag_8)\n    tag_9:\n      stop\n        /* \"XenFactory/XenCreate2.sol\":212:901  contract MxenCreateFactory{... */\n    tag_2:\n      0x00\n      dup1\n      revert\n        /* \"XenFactory/XenCreate2.sol\":273:321  mapping(uint256 => address) public indextoaddres */\n    tag_3:\n      callvalue\n      dup1\n      iszero\n      tag_15\n      jumpi\n      0x00\n      dup1\n      revert\n    tag_15:\n      pop\n      tag_16\n      0x04\n      dup1\n      calldatasize\n      sub\n      dup2\n      add\n      swap1\n      tag_17\n      swap2\n      swap1\n      tag_18\n      jump\t// in\n    tag_17:\n      tag_19\n      jump\t// in\n    tag_16:\n      mload(0x40)\n      tag_20\n      swap2\n      swap1\n      tag_21\n      jump\t// in\n    tag_20:\n      mload(0x40)\n      dup1\n      swap2\n      sub\n      swap1\n      return\n        /* \"XenFactory/XenCreate2.sol\":245:266  uint public index = 1 */\n    tag_4:\n      callvalue\n      dup1\n      iszero\n      tag_22\n      jumpi\n      0x00\n      dup1\n      revert\n    tag_22:\n      pop\n      tag_23\n      tag_24\n      jump\t// in\n    tag_23:\n      mload(0x40)\n      tag_25\n      swap2\n      swap1\n      tag_26\n      jump\t// in\n    tag_25:\n      mload(0x40)\n      dup1\n      swap2\n      sub\n      swap1\n      return\n        /* \"XenFactory/XenCreate2.sol\":708:896  function claimXEN() public{... */\n    tag_5:\n      callvalue\n      dup1\n      iszero\n      tag_27\n      jumpi\n      0x00\n      dup1\n      revert\n    tag_27:\n      pop\n      tag_28\n      tag_29\n      jump\t// in\n    tag_28:\n      stop\n        /* \"XenFactory/XenCreate2.sol\":443:665  function claim() private{... */\n    tag_12:\n        /* \"XenFactory/XenCreate2.sol\":482:492  uint _salt */\n      0x00\n        /* \"XenFactory/XenCreate2.sol\":495:500  index */\n      dup1\n      sload\n        /* \"XenFactory/XenCreate2.sol\":482:500  uint _salt = index */\n      swap1\n      pop\n        /* \"XenFactory/XenCreate2.sol\":515:533  XenCreateActive cn */\n      0x00\n        /* \"XenFactory/XenCreate2.sol\":569:574  _salt */\n      dup2\n        /* \"XenFactory/XenCreate2.sol\":561:575  bytes32(_salt) */\n      0x00\n      shl\n        /* \"XenFactory/XenCreate2.sol\":536:578  new XenCreateActive{salt:bytes32(_salt)}() */\n      mload(0x40)\n      tag_31\n      swap1\n      tag_32\n      jump\t// in\n    tag_31:\n      dup2\n      swap1\n      mload(0x40)\n      dup1\n      swap2\n      sub\n      swap1\n      0x00\n      create2\n      swap1\n      pop\n      dup1\n      iszero\n      dup1\n      iszero\n      tag_33\n      jumpi\n      returndatasize\n      0x00\n      dup1\n      returndatacopy\n      revert(0x00, returndatasize)\n    tag_33:\n      pop\n        /* \"XenFactory/XenCreate2.sol\":515:578  XenCreateActive cn = new XenCreateActive{salt:bytes32(_salt)}() */\n      swap1\n      pop\n        /* \"XenFactory/XenCreate2.sol\":623:625  cn */\n      dup1\n        /* \"XenFactory/XenCreate2.sol\":593:606  indextoaddres */\n      0x01\n        /* \"XenFactory/XenCreate2.sol\":593:613  indextoaddres[index] */\n      0x00\n        /* \"XenFactory/XenCreate2.sol\":607:612  index */\n      dup1\n      sload\n        /* \"XenFactory/XenCreate2.sol\":593:613  indextoaddres[index] */\n      dup2\n      mstore\n      0x20\n      add\n      swap1\n      dup2\n      mstore\n      0x20\n      add\n      0x00\n      keccak256\n      0x00\n        /* \"XenFactory/XenCreate2.sol\":593:626  indextoaddres[index]= address(cn) */\n      0x0100\n      exp\n      dup2\n      sload\n      dup2\n      0xffffffffffffffffffffffffffffffffffffffff\n      mul\n      not\n      and\n      swap1\n      dup4\n      0xffffffffffffffffffffffffffffffffffffffff\n      and\n      mul\n      or\n      swap1\n      sstore\n      pop\n        /* \"XenFactory/XenCreate2.sol\":656:657  1 */\n      0x01\n        /* \"XenFactory/XenCreate2.sol\":649:654  index */\n      sload(0x00)\n        /* \"XenFactory/XenCreate2.sol\":649:657  index +1 */\n      tag_34\n      swap2\n      swap1\n      tag_35\n      jump\t// in\n    tag_34:\n        /* \"XenFactory/XenCreate2.sol\":641:646  index */\n      0x00\n        /* \"XenFactory/XenCreate2.sol\":641:657  index = index +1 */\n      dup2\n      swap1\n      sstore\n      pop\n        /* \"XenFactory/XenCreate2.sol\":467:665  {... */\n      pop\n      pop\n        /* \"XenFactory/XenCreate2.sol\":443:665  function claim() private{... */\n      jump\t// out\n        /* \"XenFactory/XenCreate2.sol\":273:321  mapping(uint256 => address) public indextoaddres */\n    tag_19:\n      mstore(0x20, 0x01)\n      dup1\n      0x00\n      mstore\n      keccak256(0x00, 0x40)\n      0x00\n      swap2\n      pop\n      sload\n      swap1\n      0x0100\n      exp\n      swap1\n      div\n      0xffffffffffffffffffffffffffffffffffffffff\n      and\n      dup2\n      jump\t// out\n        /* \"XenFactory/XenCreate2.sol\":245:266  uint public index = 1 */\n    tag_24:\n      sload(0x00)\n      dup2\n      jump\t// out\n        /* \"XenFactory/XenCreate2.sol\":708:896  function claimXEN() public{... */\n    tag_29:\n        /* \"XenFactory/XenCreate2.sol\":749:755  uint i */\n      0x00\n        /* \"XenFactory/XenCreate2.sol\":756:757  1 */\n      0x01\n        /* \"XenFactory/XenCreate2.sol\":749:757  uint i=1 */\n      swap1\n      pop\n        /* \"XenFactory/XenCreate2.sol\":745:878  for(uint i=1;i<index;i++){... */\n    tag_37:\n        /* \"XenFactory/XenCreate2.sol\":760:765  index */\n      sload(0x00)\n        /* \"XenFactory/XenCreate2.sol\":758:759  i */\n      dup2\n        /* \"XenFactory/XenCreate2.sol\":758:765  i<index */\n      lt\n        /* \"XenFactory/XenCreate2.sol\":745:878  for(uint i=1;i<index;i++){... */\n      iszero\n      tag_38\n      jumpi\n        /* \"XenFactory/XenCreate2.sol\":785:795  address cn */\n      0x00\n        /* \"XenFactory/XenCreate2.sol\":798:811  indextoaddres */\n      0x01\n        /* \"XenFactory/XenCreate2.sol\":798:814  indextoaddres[i] */\n      0x00\n        /* \"XenFactory/XenCreate2.sol\":812:813  i */\n      dup4\n        /* \"XenFactory/XenCreate2.sol\":798:814  indextoaddres[i] */\n      dup2\n      mstore\n      0x20\n      add\n      swap1\n      dup2\n      mstore\n      0x20\n      add\n      0x00\n      keccak256\n      0x00\n      swap1\n      sload\n      swap1\n      0x0100\n      exp\n      swap1\n      div\n      0xffffffffffffffffffffffffffffffffffffffff\n      and\n        /* \"XenFactory/XenCreate2.sol\":785:814  address cn = indextoaddres[i] */\n      swap1\n      pop\n        /* \"XenFactory/XenCreate2.sol\":846:848  cn */\n      dup1\n        /* \"XenFactory/XenCreate2.sol\":829:864  IXenCreateActive(cn).rewardTransfer */\n      0xffffffffffffffffffffffffffffffffffffffff\n      and\n      0x8b4ef897\n        /* \"XenFactory/XenCreate2.sol\":829:866  IXenCreateActive(cn).rewardTransfer() */\n      mload(0x40)\n      dup2\n      0xffffffff\n      and\n      0xe0\n      shl\n      dup2\n      mstore\n      0x04\n      add\n      0x00\n      mload(0x40)\n      dup1\n      dup4\n      sub\n      dup2\n      0x00\n      dup8\n      dup1\n      extcodesize\n      iszero\n      dup1\n      iszero\n      tag_40\n      jumpi\n      0x00\n      dup1\n      revert\n    tag_40:\n      pop\n      gas\n      call\n      iszero\n      dup1\n      iszero\n      tag_42\n      jumpi\n      returndatasize\n      0x00\n      dup1\n      returndatacopy\n      revert(0x00, returndatasize)\n    tag_42:\n      pop\n      pop\n      pop\n      pop\n        /* \"XenFactory/XenCreate2.sol\":770:878  {... */\n      pop\n        /* \"XenFactory/XenCreate2.sol\":766:769  i++ */\n      dup1\n      dup1\n      tag_43\n      swap1\n      tag_14\n      jump\t// in\n    tag_43:\n      swap2\n      pop\n      pop\n        /* \"XenFactory/XenCreate2.sol\":745:878  for(uint i=1;i<index;i++){... */\n      jump(tag_37)\n    tag_38:\n      pop\n        /* \"XenFactory/XenCreate2.sol\":708:896  function claimXEN() public{... */\n      jump\t// out\n    tag_32:\n      dataSize(sub_0)\n      dup1\n      dataOffset(sub_0)\n      dup4\n      codecopy\n      add\n      swap1\n      jump\t// out\n        /* \"#utility.yul\":7:187   */\n    tag_44:\n        /* \"#utility.yul\":55:132   */\n      0x4e487b7100000000000000000000000000000000000000000000000000000000\n        /* \"#utility.yul\":52:53   */\n      0x00\n        /* \"#utility.yul\":45:133   */\n      mstore\n        /* \"#utility.yul\":152:156   */\n      0x11\n        /* \"#utility.yul\":149:150   */\n      0x04\n        /* \"#utility.yul\":142:157   */\n      mstore\n        /* \"#utility.yul\":176:180   */\n      0x24\n        /* \"#utility.yul\":173:174   */\n      0x00\n        /* \"#utility.yul\":166:181   */\n      revert\n        /* \"#utility.yul\":193:270   */\n    tag_45:\n        /* \"#utility.yul\":230:237   */\n      0x00\n        /* \"#utility.yul\":259:264   */\n      dup2\n        /* \"#utility.yul\":248:264   */\n      swap1\n      pop\n        /* \"#utility.yul\":193:270   */\n      swap2\n      swap1\n      pop\n      jump\t// out\n        /* \"#utility.yul\":276:509   */\n    tag_14:\n        /* \"#utility.yul\":315:318   */\n      0x00\n        /* \"#utility.yul\":338:362   */\n      tag_59\n        /* \"#utility.yul\":356:361   */\n      dup3\n        /* \"#utility.yul\":338:362   */\n      tag_45\n      jump\t// in\n    tag_59:\n        /* \"#utility.yul\":329:362   */\n      swap2\n      pop\n        /* \"#utility.yul\":384:450   */\n      0xffffffffffffffffffffffffffffffffffffffffffffffffffffffffffffffff\n        /* \"#utility.yul\":377:382   */\n      dup3\n        /* \"#utility.yul\":374:451   */\n      sub\n        /* \"#utility.yul\":371:474   */\n      tag_60\n      jumpi\n        /* \"#utility.yul\":454:472   */\n      tag_61\n      tag_44\n      jump\t// in\n    tag_61:\n        /* \"#utility.yul\":371:474   */\n    tag_60:\n        /* \"#utility.yul\":501:502   */\n      0x01\n        /* \"#utility.yul\":494:499   */\n      dup3\n        /* \"#utility.yul\":490:503   */\n      add\n        /* \"#utility.yul\":483:503   */\n      swap1\n      pop\n        /* \"#utility.yul\":276:509   */\n      swap2\n      swap1\n      pop\n      jump\t// out\n        /* \"#utility.yul\":596:713   */\n    tag_47:\n        /* \"#utility.yul\":705:706   */\n      0x00\n        /* \"#utility.yul\":702:703   */\n      dup1\n        /* \"#utility.yul\":695:707   */\n      revert\n        /* \"#utility.yul\":842:964   */\n    tag_49:\n        /* \"#utility.yul\":915:939   */\n      tag_66\n        /* \"#utility.yul\":933:938   */\n      dup2\n        /* \"#utility.yul\":915:939   */\n      tag_45\n      jump\t// in\n    tag_66:\n        /* \"#utility.yul\":908:913   */\n      dup2\n        /* \"#utility.yul\":905:940   */\n      eq\n        /* \"#utility.yul\":895:958   */\n      tag_67\n      jumpi\n        /* \"#utility.yul\":954:955   */\n      0x00\n        /* \"#utility.yul\":951:952   */\n      dup1\n        /* \"#utility.yul\":944:956   */\n      revert\n        /* \"#utility.yul\":895:958   */\n    tag_67:\n        /* \"#utility.yul\":842:964   */\n      pop\n      jump\t// out\n        /* \"#utility.yul\":970:1109   */\n    tag_50:\n        /* \"#utility.yul\":1016:1021   */\n      0x00\n        /* \"#utility.yul\":1054:1060   */\n      dup2\n        /* \"#utility.yul\":1041:1061   */\n      calldataload\n        /* \"#utility.yul\":1032:1061   */\n      swap1\n      pop\n        /* \"#utility.yul\":1070:1103   */\n      tag_69\n        /* \"#utility.yul\":1097:1102   */\n      dup2\n        /* \"#utility.yul\":1070:1103   */\n      tag_49\n      jump\t// in\n    tag_69:\n        /* \"#utility.yul\":970:1109   */\n      swap3\n      swap2\n      pop\n      pop\n      jump\t// out\n        /* \"#utility.yul\":1115:1444   */\n    tag_18:\n        /* \"#utility.yul\":1174:1180   */\n      0x00\n        /* \"#utility.yul\":1223:1225   */\n      0x20\n        /* \"#utility.yul\":1211:1220   */\n      dup3\n        /* \"#utility.yul\":1202:1209   */\n      dup5\n        /* \"#utility.yul\":1198:1221   */\n      sub\n        /* \"#utility.yul\":1194:1226   */\n      slt\n        /* \"#utility.yul\":1191:1310   */\n      iszero\n      tag_71\n      jumpi\n        /* \"#utility.yul\":1229:1308   */\n      tag_72\n      tag_47\n      jump\t// in\n    tag_72:\n        /* \"#utility.yul\":1191:1310   */\n    tag_71:\n        /* \"#utility.yul\":1349:1350   */\n      0x00\n        /* \"#utility.yul\":1374:1427   */\n      tag_73\n        /* \"#utility.yul\":1419:1426   */\n      dup5\n        /* \"#utility.yul\":1410:1416   */\n      dup3\n        /* \"#utility.yul\":1399:1408   */\n      dup6\n        /* \"#utility.yul\":1395:1417   */\n      add\n        /* \"#utility.yul\":1374:1427   */\n      tag_50\n      jump\t// in\n    tag_73:\n        /* \"#utility.yul\":1364:1427   */\n      swap2\n      pop\n        /* \"#utility.yul\":1320:1437   */\n      pop\n        /* \"#utility.yul\":1115:1444   */\n      swap3\n      swap2\n      pop\n      pop\n      jump\t// out\n        /* \"#utility.yul\":1450:1576   */\n    tag_51:\n        /* \"#utility.yul\":1487:1494   */\n      0x00\n        /* \"#utility.yul\":1527:1569   */\n      0xffffffffffffffffffffffffffffffffffffffff\n        /* \"#utility.yul\":1520:1525   */\n      dup3\n        /* \"#utility.yul\":1516:1570   */\n      and\n        /* \"#utility.yul\":1505:1570   */\n      swap1\n      pop\n        /* \"#utility.yul\":1450:1576   */\n      swap2\n      swap1\n      pop\n      jump\t// out\n        /* \"#utility.yul\":1582:1678   */\n    tag_52:\n        /* \"#utility.yul\":1619:1626   */\n      0x00\n        /* \"#utility.yul\":1648:1672   */\n      tag_76\n        /* \"#utility.yul\":1666:1671   */\n      dup3\n        /* \"#utility.yul\":1648:1672   */\n      tag_51\n      jump\t// in\n    tag_76:\n        /* \"#utility.yul\":1637:1672   */\n      swap1\n      pop\n        /* \"#utility.yul\":1582:1678   */\n      swap2\n      swap1\n      pop\n      jump\t// out\n        /* \"#utility.yul\":1684:1802   */\n    tag_53:\n        /* \"#utility.yul\":1771:1795   */\n      tag_78\n        /* \"#utility.yul\":1789:1794   */\n      dup2\n        /* \"#utility.yul\":1771:1795   */\n      tag_52\n      jump\t// in\n    tag_78:\n        /* \"#utility.yul\":1766:1769   */\n      dup3\n        /* \"#utility.yul\":1759:1796   */\n      mstore\n        /* \"#utility.yul\":1684:1802   */\n      pop\n      pop\n      jump\t// out\n        /* \"#utility.yul\":1808:2030   */\n    tag_21:\n        /* \"#utility.yul\":1901:1905   */\n      0x00\n        /* \"#utility.yul\":1939:1941   */\n      0x20\n        /* \"#utility.yul\":1928:1937   */\n      dup3\n        /* \"#utility.yul\":1924:1942   */\n      add\n        /* \"#utility.yul\":1916:1942   */\n      swap1\n      pop\n        /* \"#utility.yul\":1952:2023   */\n      tag_80\n        /* \"#utility.yul\":2020:2021   */\n      0x00\n        /* \"#utility.yul\":2009:2018   */\n      dup4\n        /* \"#utility.yul\":2005:2022   */\n      add\n        /* \"#utility.yul\":1996:2002   */\n      dup5\n        /* \"#utility.yul\":1952:2023   */\n      tag_53\n      jump\t// in\n    tag_80:\n        /* \"#utility.yul\":1808:2030   */\n      swap3\n      swap2\n      pop\n      pop\n      jump\t// out\n        /* \"#utility.yul\":2036:2154   */\n    tag_54:\n        /* \"#utility.yul\":2123:2147   */\n      tag_82\n        /* \"#utility.yul\":2141:2146   */\n      dup2\n        /* \"#utility.yul\":2123:2147   */\n      tag_45\n      jump\t// in\n    tag_82:\n        /* \"#utility.yul\":2118:2121   */\n      dup3\n        /* \"#utility.yul\":2111:2148   */\n      mstore\n        /* \"#utility.yul\":2036:2154   */\n      pop\n      pop\n      jump\t// out\n        /* \"#utility.yul\":2160:2382   */\n    tag_26:\n        /* \"#utility.yul\":2253:2257   */\n      0x00\n        /* \"#utility.yul\":2291:2293   */\n      0x20\n        /* \"#utility.yul\":2280:2289   */\n      dup3\n        /* \"#utility.yul\":2276:2294   */\n      add\n        /* \"#utility.yul\":2268:2294   */\n      swap1\n      pop\n        /* \"#utility.yul\":2304:2375   */\n      tag_84\n        /* \"#utility.yul\":2372:2373   */\n      0x00\n        /* \"#utility.yul\":2361:2370   */\n      dup4\n        /* \"#utility.yul\":2357:2374   */\n      add\n        /* \"#utility.yul\":2348:2354   */\n      dup5\n        /* \"#utility.yul\":2304:2375   */\n      tag_54\n      jump\t// in\n    tag_84:\n        /* \"#utility.yul\":2160:2382   */\n      swap3\n      swap2\n      pop\n      pop\n      jump\t// out\n        /* \"#utility.yul\":2388:2579   */\n    tag_35:\n        /* \"#utility.yul\":2428:2431   */\n      0x00\n        /* \"#utility.yul\":2447:2467   */\n      tag_86\n        /* \"#utility.yul\":2465:2466   */\n      dup3\n        /* \"#utility.yul\":2447:2467   */\n      tag_45\n      jump\t// in\n    tag_86:\n        /* \"#utility.yul\":2442:2467   */\n      swap2\n      pop\n        /* \"#utility.yul\":2481:2501   */\n      tag_87\n        /* \"#utility.yul\":2499:2500   */\n      dup4\n        /* \"#utility.yul\":2481:2501   */\n      tag_45\n      jump\t// in\n    tag_87:\n        /* \"#utility.yul\":2476:2501   */\n      swap3\n      pop\n        /* \"#utility.yul\":2524:2525   */\n      dup3\n        /* \"#utility.yul\":2521:2522   */\n      dup3\n        /* \"#utility.yul\":2517:2526   */\n      add\n        /* \"#utility.yul\":2510:2526   */\n      swap1\n      pop\n        /* \"#utility.yul\":2545:2548   */\n      dup1\n        /* \"#utility.yul\":2542:2543   */\n      dup3\n        /* \"#utility.yul\":2539:2549   */\n      gt\n        /* \"#utility.yul\":2536:2572   */\n      iszero\n      tag_88\n      jumpi\n        /* \"#utility.yul\":2552:2570   */\n      tag_89\n      tag_44\n      jump\t// in\n    tag_89:\n        /* \"#utility.yul\":2536:2572   */\n    tag_88:\n        /* \"#utility.yul\":2388:2579   */\n      swap3\n      swap2\n      pop\n      pop\n      jump\t// out\n    stop\n\n    sub_0: assembly {\n            /* \"XenFactory/XenCreateActive.sol\":345:929  contract XenCreateActive{... */\n          mstore(0x40, 0x80)\n            /* \"XenFactory/XenCreateActive.sol\":421:463  0x6971b57a29764eD7af4A4a1ED7a512Dde9369Ef6 */\n          0x6971b57a29764ed7af4a4a1ed7a512dde9369ef6\n            /* \"XenFactory/XenCreateActive.sol\":399:463  address public owner= 0x6971b57a29764eD7af4A4a1ED7a512Dde9369Ef6 */\n          0x00\n          dup1\n          0x0100\n          exp\n          dup2\n          sload\n          dup2\n          0xffffffffffffffffffffffffffffffffffffffff\n          mul\n          not\n          and\n          swap1\n          dup4\n          0xffffffffffffffffffffffffffffffffffffffff\n          and\n          mul\n          or\n          swap1\n          sstore\n          pop\n            /* \"XenFactory/XenCreateActive.sol\":519:561  0x2AB0e9e4eE70FFf1fB9D67031E44F6410170d00e */\n          0x2ab0e9e4ee70fff1fb9d67031e44f6410170d00e\n            /* \"XenFactory/XenCreateActive.sol\":496:561  address public _addr = 0x2AB0e9e4eE70FFf1fB9D67031E44F6410170d00e */\n          0x01\n          exp(0x0100, 0x00)\n          dup2\n          sload\n          dup2\n          0xffffffffffffffffffffffffffffffffffffffff\n          mul\n          not\n          and\n          swap1\n          dup4\n          0xffffffffffffffffffffffffffffffffffffffff\n          and\n          mul\n          or\n          swap1\n          sstore\n          pop\n            /* \"XenFactory/XenCreateActive.sol\":575:638  constructor() public{... */\n          callvalue\n          dup1\n          iszero\n          tag_1\n          jumpi\n          0x00\n          dup1\n          revert\n        tag_1:\n          pop\n            /* \"XenFactory/XenCreateActive.sol\":611:616  _addr */\n          0x01\n          0x00\n          swap1\n          sload\n          swap1\n          0x0100\n          exp\n          swap1\n          div\n          0xffffffffffffffffffffffffffffffffffffffff\n          and\n            /* \"XenFactory/XenCreateActive.sol\":606:627  IXen(_addr).claimRank */\n          0xffffffffffffffffffffffffffffffffffffffff\n          and\n          0x9ff054df\n            /* \"XenFactory/XenCreateActive.sol\":628:629  1 */\n          0x01\n            /* \"XenFactory/XenCreateActive.sol\":606:630  IXen(_addr).claimRank(1) */\n          mload(0x40)\n          dup3\n          0xffffffff\n          and\n          0xe0\n          shl\n          dup2\n          mstore\n          0x04\n          add\n          tag_4\n          swap2\n          swap1\n          tag_5\n          jump\t// in\n        tag_4:\n          0x00\n          mload(0x40)\n          dup1\n          dup4\n          sub\n          dup2\n          0x00\n          dup8\n          dup1\n          extcodesize\n          iszero\n          dup1\n          iszero\n          tag_6\n          jumpi\n          0x00\n          dup1\n          revert\n        tag_6:\n          pop\n          gas\n          call\n          iszero\n          dup1\n          iszero\n          tag_8\n          jumpi\n          returndatasize\n          0x00\n          dup1\n          returndatacopy\n          revert(0x00, returndatasize)\n        tag_8:\n          pop\n          pop\n          pop\n          pop\n            /* \"XenFactory/XenCreateActive.sol\":345:929  contract XenCreateActive{... */\n          jump(tag_9)\n            /* \"#utility.yul\":7:92   */\n        tag_10:\n            /* \"#utility.yul\":52:59   */\n          0x00\n            /* \"#utility.yul\":81:86   */\n          dup2\n            /* \"#utility.yul\":70:86   */\n          swap1\n          pop\n            /* \"#utility.yul\":7:92   */\n          swap2\n          swap1\n          pop\n          jump\t// out\n            /* \"#utility.yul\":98:175   */\n        tag_11:\n            /* \"#utility.yul\":135:142   */\n          0x00\n            /* \"#utility.yul\":164:169   */\n          dup2\n            /* \"#utility.yul\":153:169   */\n          swap1\n          pop\n            /* \"#utility.yul\":98:175   */\n          swap2\n          swap1\n          pop\n          jump\t// out\n            /* \"#utility.yul\":181:241   */\n        tag_12:\n            /* \"#utility.yul\":209:212   */\n          0x00\n            /* \"#utility.yul\":230:235   */\n          dup2\n            /* \"#utility.yul\":223:235   */\n          swap1\n          pop\n            /* \"#utility.yul\":181:241   */\n          swap2\n          swap1\n          pop\n          jump\t// out\n            /* \"#utility.yul\":247:405   */\n        tag_13:\n            /* \"#utility.yul\":305:314   */\n          0x00\n            /* \"#utility.yul\":338:399   */\n          tag_20\n            /* \"#utility.yul\":356:398   */\n          tag_21\n            /* \"#utility.yul\":365:397   */\n          tag_22\n            /* \"#utility.yul\":391:396   */\n          dup5\n            /* \"#utility.yul\":365:397   */\n          tag_10\n          jump\t// in\n        tag_22:\n            /* \"#utility.yul\":356:398   */\n          tag_12\n          jump\t// in\n        tag_21:\n            /* \"#utility.yul\":338:399   */\n          tag_11\n          jump\t// in\n        tag_20:\n            /* \"#utility.yul\":325:399   */\n          swap1\n          pop\n            /* \"#utility.yul\":247:405   */\n          swap2\n          swap1\n          pop\n          jump\t// out\n            /* \"#utility.yul\":411:558   */\n        tag_14:\n            /* \"#utility.yul\":506:551   */\n          tag_24\n            /* \"#utility.yul\":545:550   */\n          dup2\n            /* \"#utility.yul\":506:551   */\n          tag_13\n          jump\t// in\n        tag_24:\n            /* \"#utility.yul\":501:504   */\n          dup3\n            /* \"#utility.yul\":494:552   */\n          mstore\n            /* \"#utility.yul\":411:558   */\n          pop\n          pop\n          jump\t// out\n            /* \"#utility.yul\":564:802   */\n        tag_5:\n            /* \"#utility.yul\":665:669   */\n          0x00\n            /* \"#utility.yul\":703:705   */\n          0x20\n            /* \"#utility.yul\":692:701   */\n          dup3\n            /* \"#utility.yul\":688:706   */\n          add\n            /* \"#utility.yul\":680:706   */\n          swap1\n          pop\n            /* \"#utility.yul\":716:795   */\n          tag_26\n            /* \"#utility.yul\":792:793   */\n          0x00\n            /* \"#utility.yul\":781:790   */\n          dup4\n            /* \"#utility.yul\":777:794   */\n          add\n            /* \"#utility.yul\":768:774   */\n          dup5\n            /* \"#utility.yul\":716:795   */\n          tag_14\n          jump\t// in\n        tag_26:\n            /* \"#utility.yul\":564:802   */\n          swap3\n          swap2\n          pop\n          pop\n          jump\t// out\n            /* \"XenFactory/XenCreateActive.sol\":345:929  contract XenCreateActive{... */\n        tag_9:\n          dataSize(sub_0)\n          dup1\n          dataOffset(sub_0)\n          0x00\n          codecopy\n          0x00\n          return\n        stop\n\n        sub_0: assembly {\n                /* \"XenFactory/XenCreateActive.sol\":345:929  contract XenCreateActive{... */\n              mstore(0x40, 0x80)\n              callvalue\n              dup1\n              iszero\n              tag_1\n              jumpi\n              0x00\n              dup1\n              revert\n            tag_1:\n              pop\n              jumpi(tag_2, lt(calldatasize, 0x04))\n              shr(0xe0, calldataload(0x00))\n              dup1\n              0x62ab1a77\n              eq\n              tag_3\n              jumpi\n              dup1\n              0x8b4ef897\n              eq\n              tag_4\n              jumpi\n              dup1\n              0x8da5cb5b\n              eq\n              tag_5\n              jumpi\n            tag_2:\n              0x00\n              dup1\n              revert\n                /* \"XenFactory/XenCreateActive.sol\":496:561  address public _addr = 0x2AB0e9e4eE70FFf1fB9D67031E44F6410170d00e */\n            tag_3:\n              tag_6\n              tag_7\n              jump\t// in\n            tag_6:\n              mload(0x40)\n              tag_8\n              swap2\n              swap1\n              tag_9\n              jump\t// in\n            tag_8:\n              mload(0x40)\n              dup1\n              swap2\n              sub\n              swap1\n              return\n                /* \"XenFactory/XenCreateActive.sol\":688:924  function rewardTransfer() external {... */\n            tag_4:\n              tag_10\n              tag_11\n              jump\t// in\n            tag_10:\n              stop\n                /* \"XenFactory/XenCreateActive.sol\":399:463  address public owner= 0x6971b57a29764eD7af4A4a1ED7a512Dde9369Ef6 */\n            tag_5:\n              tag_12\n              tag_13\n              jump\t// in\n            tag_12:\n              mload(0x40)\n              tag_14\n              swap2\n              swap1\n              tag_9\n              jump\t// in\n            tag_14:\n              mload(0x40)\n              dup1\n              swap2\n              sub\n              swap1\n              return\n                /* \"XenFactory/XenCreateActive.sol\":496:561  address public _addr = 0x2AB0e9e4eE70FFf1fB9D67031E44F6410170d00e */\n            tag_7:\n              0x01\n              0x00\n              swap1\n              sload\n              swap1\n              0x0100\n              exp\n              swap1\n              div\n              0xffffffffffffffffffffffffffffffffffffffff\n              and\n              dup2\n              jump\t// out\n                /* \"XenFactory/XenCreateActive.sol\":688:924  function rewardTransfer() external {... */\n            tag_11:\n                /* \"XenFactory/XenCreateActive.sol\":739:744  _addr */\n              0x01\n              0x00\n              swap1\n              sload\n              swap1\n              0x0100\n              exp\n              swap1\n              div\n              0xffffffffffffffffffffffffffffffffffffffff\n              and\n                /* \"XenFactory/XenCreateActive.sol\":734:761  IXen(_addr).claimMintReward */\n              0xffffffffffffffffffffffffffffffffffffffff\n              and\n              0x52c7f8dc\n                /* \"XenFactory/XenCreateActive.sol\":734:763  IXen(_addr).claimMintReward() */\n              mload(0x40)\n              dup2\n              0xffffffff\n              and\n              0xe0\n              shl\n              dup2\n              mstore\n              0x04\n              add\n              0x00\n              mload(0x40)\n              dup1\n              dup4\n              sub\n              dup2\n              0x00\n              dup8\n              dup1\n              extcodesize\n              iszero\n              dup1\n              iszero\n              tag_16\n              jumpi\n              0x00\n              dup1\n              revert\n            tag_16:\n              pop\n              gas\n              call\n              iszero\n              dup1\n              iszero\n              tag_18\n              jumpi\n              returndatasize\n              0x00\n              dup1\n              returndatacopy\n              revert(0x00, returndatasize)\n            tag_18:\n              pop\n              pop\n              pop\n              pop\n                /* \"XenFactory/XenCreateActive.sol\":774:790  uint256 banlance */\n              0x00\n                /* \"XenFactory/XenCreateActive.sol\":798:803  _addr */\n              0x01\n              0x00\n              swap1\n              sload\n              swap1\n              0x0100\n              exp\n              swap1\n              div\n              0xffffffffffffffffffffffffffffffffffffffff\n              and\n                /* \"XenFactory/XenCreateActive.sol\":793:814  IXen(_addr).balanceOf */\n              0xffffffffffffffffffffffffffffffffffffffff\n              and\n              0x70a08231\n                /* \"XenFactory/XenCreateActive.sol\":823:827  this */\n              address\n                /* \"XenFactory/XenCreateActive.sol\":793:829  IXen(_addr).balanceOf(address(this)) */\n              mload(0x40)\n              dup3\n              0xffffffff\n              and\n              0xe0\n              shl\n              dup2\n              mstore\n              0x04\n              add\n              tag_19\n              swap2\n              swap1\n              tag_9\n              jump\t// in\n            tag_19:\n              0x20\n              mload(0x40)\n              dup1\n              dup4\n              sub\n              dup2\n              dup7\n              gas\n              staticcall\n              iszero\n              dup1\n              iszero\n              tag_21\n              jumpi\n              returndatasize\n              0x00\n              dup1\n              returndatacopy\n              revert(0x00, returndatasize)\n            tag_21:\n              pop\n              pop\n              pop\n              pop\n              mload(0x40)\n              returndatasize\n              not(0x1f)\n              0x1f\n              dup3\n              add\n              and\n              dup3\n              add\n              dup1\n              0x40\n              mstore\n              pop\n              dup2\n              add\n              swap1\n              tag_22\n              swap2\n              swap1\n              tag_23\n              jump\t// in\n            tag_22:\n                /* \"XenFactory/XenCreateActive.sol\":774:829  uint256 banlance = IXen(_addr).balanceOf(address(this)) */\n              swap1\n              pop\n                /* \"XenFactory/XenCreateActive.sol\":845:850  _addr */\n              0x01\n              0x00\n              swap1\n              sload\n              swap1\n              0x0100\n              exp\n              swap1\n              div\n              0xffffffffffffffffffffffffffffffffffffffff\n              and\n                /* \"XenFactory/XenCreateActive.sol\":840:860  IXen(_addr).transfer */\n              0xffffffffffffffffffffffffffffffffffffffff\n              and\n              0xa9059cbb\n                /* \"XenFactory/XenCreateActive.sol\":861:866  owner */\n              0x00\n              dup1\n              sload\n              swap1\n              0x0100\n              exp\n              swap1\n              div\n              0xffffffffffffffffffffffffffffffffffffffff\n              and\n                /* \"XenFactory/XenCreateActive.sol\":868:876  banlance */\n              dup4\n                /* \"XenFactory/XenCreateActive.sol\":840:877  IXen(_addr).transfer(owner, banlance) */\n              mload(0x40)\n              dup4\n              0xffffffff\n              and\n              0xe0\n              shl\n              dup2\n              mstore\n              0x04\n              add\n              tag_24\n              swap3\n              swap2\n              swap1\n              tag_25\n              jump\t// in\n            tag_24:\n              0x20\n              mload(0x40)\n              dup1\n              dup4\n              sub\n              dup2\n              0x00\n              dup8\n              gas\n              call\n              iszero\n              dup1\n              iszero\n              tag_27\n              jumpi\n              returndatasize\n              0x00\n              dup1\n              returndatacopy\n              revert(0x00, returndatasize)\n            tag_27:\n              pop\n              pop\n              pop\n              pop\n              mload(0x40)\n              returndatasize\n              not(0x1f)\n              0x1f\n              dup3\n              add\n              and\n              dup3\n              add\n              dup1\n              0x40\n              mstore\n              pop\n              dup2\n              add\n              swap1\n              tag_28\n              swap2\n              swap1\n              tag_29\n              jump\t// in\n            tag_28:\n              pop\n                /* \"XenFactory/XenCreateActive.sol\":909:914  owner */\n              0x00\n              dup1\n              sload\n              swap1\n              0x0100\n              exp\n              swap1\n              div\n              0xffffffffffffffffffffffffffffffffffffffff\n              and\n                /* \"XenFactory/XenCreateActive.sol\":888:916  selfdestruct(payable(owner)) */\n              0xffffffffffffffffffffffffffffffffffffffff\n              and\n              selfdestruct\n                /* \"XenFactory/XenCreateActive.sol\":399:463  address public owner= 0x6971b57a29764eD7af4A4a1ED7a512Dde9369Ef6 */\n            tag_13:\n              0x00\n              dup1\n              sload\n              swap1\n              0x0100\n              exp\n              swap1\n              div\n              0xffffffffffffffffffffffffffffffffffffffff\n              and\n              dup2\n              jump\t// out\n                /* \"#utility.yul\":7:133   */\n            tag_30:\n                /* \"#utility.yul\":44:51   */\n              0x00\n                /* \"#utility.yul\":84:126   */\n              0xffffffffffffffffffffffffffffffffffffffff\n                /* \"#utility.yul\":77:82   */\n              dup3\n                /* \"#utility.yul\":73:127   */\n              and\n                /* \"#utility.yul\":62:127   */\n              swap1\n              pop\n                /* \"#utility.yul\":7:133   */\n              swap2\n              swap1\n              pop\n              jump\t// out\n                /* \"#utility.yul\":139:235   */\n            tag_31:\n                /* \"#utility.yul\":176:183   */\n              0x00\n                /* \"#utility.yul\":205:229   */\n              tag_46\n                /* \"#utility.yul\":223:228   */\n              dup3\n                /* \"#utility.yul\":205:229   */\n              tag_30\n              jump\t// in\n            tag_46:\n                /* \"#utility.yul\":194:229   */\n              swap1\n              pop\n                /* \"#utility.yul\":139:235   */\n              swap2\n              swap1\n              pop\n              jump\t// out\n                /* \"#utility.yul\":241:359   */\n            tag_32:\n                /* \"#utility.yul\":328:352   */\n              tag_48\n                /* \"#utility.yul\":346:351   */\n              dup2\n                /* \"#utility.yul\":328:352   */\n              tag_31\n              jump\t// in\n            tag_48:\n                /* \"#utility.yul\":323:326   */\n              dup3\n                /* \"#utility.yul\":316:353   */\n              mstore\n                /* \"#utility.yul\":241:359   */\n              pop\n              pop\n              jump\t// out\n                /* \"#utility.yul\":365:587   */\n            tag_9:\n                /* \"#utility.yul\":458:462   */\n              0x00\n                /* \"#utility.yul\":496:498   */\n              0x20\n                /* \"#utility.yul\":485:494   */\n              dup3\n                /* \"#utility.yul\":481:499   */\n              add\n                /* \"#utility.yul\":473:499   */\n              swap1\n              pop\n                /* \"#utility.yul\":509:580   */\n              tag_50\n                /* \"#utility.yul\":577:578   */\n              0x00\n                /* \"#utility.yul\":566:575   */\n              dup4\n                /* \"#utility.yul\":562:579   */\n              add\n                /* \"#utility.yul\":553:559   */\n              dup5\n                /* \"#utility.yul\":509:580   */\n              tag_32\n              jump\t// in\n            tag_50:\n                /* \"#utility.yul\":365:587   */\n              swap3\n              swap2\n              pop\n              pop\n              jump\t// out\n                /* \"#utility.yul\":674:791   */\n            tag_34:\n                /* \"#utility.yul\":783:784   */\n              0x00\n                /* \"#utility.yul\":780:781   */\n              dup1\n                /* \"#utility.yul\":773:785   */\n              revert\n                /* \"#utility.yul\":920:997   */\n            tag_36:\n                /* \"#utility.yul\":957:964   */\n              0x00\n                /* \"#utility.yul\":986:991   */\n              dup2\n                /* \"#utility.yul\":975:991   */\n              swap1\n              pop\n                /* \"#utility.yul\":920:997   */\n              swap2\n              swap1\n              pop\n              jump\t// out\n                /* \"#utility.yul\":1003:1125   */\n            tag_37:\n                /* \"#utility.yul\":1076:1100   */\n              tag_56\n                /* \"#utility.yul\":1094:1099   */\n              dup2\n                /* \"#utility.yul\":1076:1100   */\n              tag_36\n              jump\t// in\n            tag_56:\n                /* \"#utility.yul\":1069:1074   */\n              dup2\n                /* \"#utility.yul\":1066:1101   */\n              eq\n                /* \"#utility.yul\":1056:1119   */\n              tag_57\n              jumpi\n                /* \"#utility.yul\":1115:1116   */\n              0x00\n                /* \"#utility.yul\":1112:1113   */\n              dup1\n                /* \"#utility.yul\":1105:1117   */\n              revert\n                /* \"#utility.yul\":1056:1119   */\n            tag_57:\n                /* \"#utility.yul\":1003:1125   */\n              pop\n              jump\t// out\n                /* \"#utility.yul\":1131:1274   */\n            tag_38:\n                /* \"#utility.yul\":1188:1193   */\n              0x00\n                /* \"#utility.yul\":1219:1225   */\n              dup2\n                /* \"#utility.yul\":1213:1226   */\n              mload\n                /* \"#utility.yul\":1204:1226   */\n              swap1\n              pop\n                /* \"#utility.yul\":1235:1268   */\n              tag_59\n                /* \"#utility.yul\":1262:1267   */\n              dup2\n                /* \"#utility.yul\":1235:1268   */\n              tag_37\n              jump\t// in\n            tag_59:\n                /* \"#utility.yul\":1131:1274   */\n              swap3\n              swap2\n              pop\n              pop\n              jump\t// out\n                /* \"#utility.yul\":1280:1631   */\n            tag_23:\n                /* \"#utility.yul\":1350:1356   */\n              0x00\n                /* \"#utility.yul\":1399:1401   */\n              0x20\n                /* \"#utility.yul\":1387:1396   */\n              dup3\n                /* \"#utility.yul\":1378:1385   */\n              dup5\n                /* \"#utility.yul\":1374:1397   */\n              sub\n                /* \"#utility.yul\":1370:1402   */\n              slt\n                /* \"#utility.yul\":1367:1486   */\n              iszero\n              tag_61\n              jumpi\n                /* \"#utility.yul\":1405:1484   */\n              tag_62\n              tag_34\n              jump\t// in\n            tag_62:\n                /* \"#utility.yul\":1367:1486   */\n            tag_61:\n                /* \"#utility.yul\":1525:1526   */\n              0x00\n                /* \"#utility.yul\":1550:1614   */\n              tag_63\n                /* \"#utility.yul\":1606:1613   */\n              dup5\n                /* \"#utility.yul\":1597:1603   */\n              dup3\n                /* \"#utility.yul\":1586:1595   */\n              dup6\n                /* \"#utility.yul\":1582:1604   */\n              add\n                /* \"#utility.yul\":1550:1614   */\n              tag_38\n              jump\t// in\n            tag_63:\n                /* \"#utility.yul\":1540:1614   */\n              swap2\n              pop\n                /* \"#utility.yul\":1496:1624   */\n              pop\n                /* \"#utility.yul\":1280:1631   */\n              swap3\n              swap2\n              pop\n              pop\n              jump\t// out\n                /* \"#utility.yul\":1637:1755   */\n            tag_39:\n                /* \"#utility.yul\":1724:1748   */\n              tag_65\n                /* \"#utility.yul\":1742:1747   */\n              dup2\n                /* \"#utility.yul\":1724:1748   */\n              tag_36\n              jump\t// in\n            tag_65:\n                /* \"#utility.yul\":1719:1722   */\n              dup3\n                /* \"#utility.yul\":1712:1749   */\n              mstore\n                /* \"#utility.yul\":1637:1755   */\n              pop\n              pop\n              jump\t// out\n                /* \"#utility.yul\":1761:2093   */\n            tag_25:\n                /* \"#utility.yul\":1882:1886   */\n              0x00\n                /* \"#utility.yul\":1920:1922   */\n              0x40\n                /* \"#utility.yul\":1909:1918   */\n              dup3\n                /* \"#utility.yul\":1905:1923   */\n              add\n                /* \"#utility.yul\":1897:1923   */\n              swap1\n              pop\n                /* \"#utility.yul\":1933:2004   */\n              tag_67\n                /* \"#utility.yul\":2001:2002   */\n              0x00\n                /* \"#utility.yul\":1990:1999   */\n              dup4\n                /* \"#utility.yul\":1986:2003   */\n              add\n                /* \"#utility.yul\":1977:1983   */\n              dup6\n                /* \"#utility.yul\":1933:2004   */\n              tag_32\n              jump\t// in\n            tag_67:\n                /* \"#utility.yul\":2014:2086   */\n              tag_68\n                /* \"#utility.yul\":2082:2084   */\n              0x20\n                /* \"#utility.yul\":2071:2080   */\n              dup4\n                /* \"#utility.yul\":2067:2085   */\n              add\n                /* \"#utility.yul\":2058:2064   */\n              dup5\n                /* \"#utility.yul\":2014:2086   */\n              tag_39\n              jump\t// in\n            tag_68:\n                /* \"#utility.yul\":1761:2093   */\n              swap4\n              swap3\n              pop\n              pop\n              pop\n              jump\t// out\n                /* \"#utility.yul\":2099:2189   */\n            tag_40:\n                /* \"#utility.yul\":2133:2140   */\n              0x00\n                /* \"#utility.yul\":2176:2181   */\n              dup2\n                /* \"#utility.yul\":2169:2182   */\n              iszero\n                /* \"#utility.yul\":2162:2183   */\n              iszero\n                /* \"#utility.yul\":2151:2183   */\n              swap1\n              pop\n                /* \"#utility.yul\":2099:2189   */\n              swap2\n              swap1\n              pop\n              jump\t// out\n                /* \"#utility.yul\":2195:2311   */\n            tag_41:\n                /* \"#utility.yul\":2265:2286   */\n              tag_71\n                /* \"#utility.yul\":2280:2285   */\n              dup2\n                /* \"#utility.yul\":2265:2286   */\n              tag_40\n              jump\t// in\n            tag_71:\n                /* \"#utility.yul\":2258:2263   */\n              dup2\n                /* \"#utility.yul\":2255:2287   */\n              eq\n                /* \"#utility.yul\":2245:2305   */\n              tag_72\n              jumpi\n                /* \"#utility.yul\":2301:2302   */\n              0x00\n                /* \"#utility.yul\":2298:2299   */\n              dup1\n                /* \"#utility.yul\":2291:2303   */\n              revert\n                /* \"#utility.yul\":2245:2305   */\n            tag_72:\n                /* \"#utility.yul\":2195:2311   */\n              pop\n              jump\t// out\n                /* \"#utility.yul\":2317:2454   */\n            tag_42:\n                /* \"#utility.yul\":2371:2376   */\n              0x00\n                /* \"#utility.yul\":2402:2408   */\n              dup2\n                /* \"#utility.yul\":2396:2409   */\n              mload\n                /* \"#utility.yul\":2387:2409   */\n              swap1\n              pop\n                /* \"#utility.yul\":2418:2448   */\n              tag_74\n                /* \"#utility.yul\":2442:2447   */\n              dup2\n                /* \"#utility.yul\":2418:2448   */\n              tag_41\n              jump\t// in\n            tag_74:\n                /* \"#utility.yul\":2317:2454   */\n              swap3\n              swap2\n              pop\n              pop\n              jump\t// out\n                /* \"#utility.yul\":2460:2805   */\n            tag_29:\n                /* \"#utility.yul\":2527:2533   */\n              0x00\n                /* \"#utility.yul\":2576:2578   */\n              0x20\n                /* \"#utility.yul\":2564:2573   */\n              dup3\n                /* \"#utility.yul\":2555:2562   */\n              dup5\n                /* \"#utility.yul\":2551:2574   */\n              sub\n                /* \"#utility.yul\":2547:2579   */\n              slt\n                /* \"#utility.yul\":2544:2663   */\n              iszero\n              tag_76\n              jumpi\n                /* \"#utility.yul\":2582:2661   */\n              tag_77\n              tag_34\n              jump\t// in\n            tag_77:\n                /* \"#utility.yul\":2544:2663   */\n            tag_76:\n                /* \"#utility.yul\":2702:2703   */\n              0x00\n                /* \"#utility.yul\":2727:2788   */\n              tag_78\n                /* \"#utility.yul\":2780:2787   */\n              dup5\n                /* \"#utility.yul\":2771:2777   */\n              dup3\n                /* \"#utility.yul\":2760:2769   */\n              dup6\n                /* \"#utility.yul\":2756:2778   */\n              add\n                /* \"#utility.yul\":2727:2788   */\n              tag_42\n              jump\t// in\n            tag_78:\n                /* \"#utility.yul\":2717:2788   */\n              swap2\n              pop\n                /* \"#utility.yul\":2673:2798   */\n              pop\n                /* \"#utility.yul\":2460:2805   */\n              swap3\n              swap2\n              pop\n              pop\n              jump\t// out\n\n            auxdata: 0xa2646970667358221220d8dcc2ebea6d17783a38416410f52a669864e85d7cb6be4a6cef4b57b330181f64736f6c63430008110033\n        }\n    }\n\n    auxdata: 0xa2646970667358221220ea5acdd2bfa04aeb6015d7225bf2af7c64f83d7c5c2a0578d4701a3c63b98f9764736f6c63430008110033\n}\n",
				"bytecode": {
					"linkReferences": {},
					"object": "6080604052600160005534801561001557600080fd5b50610ab5806100256000396000f3fe6080604052600436106100385760003560e01c80630d01169f1461006b5780632986c0e5146100a8578063ce677800146100d357610066565b366100665760005b6064811015610064576100516100ea565b808061005c906102d0565b915050610040565b005b600080fd5b34801561007757600080fd5b50610092600480360381019061008d9190610349565b610191565b60405161009f91906103b7565b60405180910390f35b3480156100b457600080fd5b506100bd6101c4565b6040516100ca91906103e1565b60405180910390f35b3480156100df57600080fd5b506100e86101ca565b005b60008054905060008160001b6040516101029061028a565b8190604051809103906000f5905080158015610122573d6000803e3d6000fd5b50905080600160008054815260200190815260200160002060006101000a81548173ffffffffffffffffffffffffffffffffffffffff021916908373ffffffffffffffffffffffffffffffffffffffff160217905550600160005461018791906103fc565b6000819055505050565b60016020528060005260406000206000915054906101000a900473ffffffffffffffffffffffffffffffffffffffff1681565b60005481565b6000600190505b6000548110156102875760006001600083815260200190815260200160002060009054906101000a900473ffffffffffffffffffffffffffffffffffffffff1690508073ffffffffffffffffffffffffffffffffffffffff16638b4ef8976040518163ffffffff1660e01b8152600401600060405180830381600087803b15801561025b57600080fd5b505af115801561026f573d6000803e3d6000fd5b5050505050808061027f906102d0565b9150506101d1565b50565b61064f8061043183390190565b7f4e487b7100000000000000000000000000000000000000000000000000000000600052601160045260246000fd5b6000819050919050565b60006102db826102c6565b91507fffffffffffffffffffffffffffffffffffffffffffffffffffffffffffffffff820361030d5761030c610297565b5b600182019050919050565b600080fd5b610326816102c6565b811461033157600080fd5b50565b6000813590506103438161031d565b92915050565b60006020828403121561035f5761035e610318565b5b600061036d84828501610334565b91505092915050565b600073ffffffffffffffffffffffffffffffffffffffff82169050919050565b60006103a182610376565b9050919050565b6103b181610396565b82525050565b60006020820190506103cc60008301846103a8565b92915050565b6103db816102c6565b82525050565b60006020820190506103f660008301846103d2565b92915050565b6000610407826102c6565b9150610412836102c6565b925082820190508082111561042a57610429610297565b5b9291505056fe6080604052736971b57a29764ed7af4a4a1ed7a512dde9369ef66000806101000a81548173ffffffffffffffffffffffffffffffffffffffff021916908373ffffffffffffffffffffffffffffffffffffffff160217905550732ab0e9e4ee70fff1fb9d67031e44f6410170d00e600160006101000a81548173ffffffffffffffffffffffffffffffffffffffff021916908373ffffffffffffffffffffffffffffffffffffffff1602179055503480156100b957600080fd5b50600160009054906101000a900473ffffffffffffffffffffffffffffffffffffffff1673ffffffffffffffffffffffffffffffffffffffff16639ff054df60016040518263ffffffff1660e01b8152600401610116919061019c565b600060405180830381600087803b15801561013057600080fd5b505af1158015610144573d6000803e3d6000fd5b505050506101b7565b6000819050919050565b6000819050919050565b6000819050919050565b600061018661018161017c8461014d565b610161565b610157565b9050919050565b6101968161016b565b82525050565b60006020820190506101b1600083018461018d565b92915050565b610489806101c66000396000f3fe608060405234801561001057600080fd5b50600436106100415760003560e01c806362ab1a77146100465780638b4ef897146100645780638da5cb5b1461006e575b600080fd5b61004e61008c565b60405161005b9190610333565b60405180910390f35b61006c6100b2565b005b6100766102ce565b6040516100839190610333565b60405180910390f35b600160009054906101000a900473ffffffffffffffffffffffffffffffffffffffff1681565b600160009054906101000a900473ffffffffffffffffffffffffffffffffffffffff1673ffffffffffffffffffffffffffffffffffffffff166352c7f8dc6040518163ffffffff1660e01b8152600401600060405180830381600087803b15801561011c57600080fd5b505af1158015610130573d6000803e3d6000fd5b505050506000600160009054906101000a900473ffffffffffffffffffffffffffffffffffffffff1673ffffffffffffffffffffffffffffffffffffffff166370a08231306040518263ffffffff1660e01b81526004016101919190610333565b602060405180830381865afa1580156101ae573d6000803e3d6000fd5b505050506040513d601f19601f820116820180604052508101906101d29190610389565b9050600160009054906101000a900473ffffffffffffffffffffffffffffffffffffffff1673ffffffffffffffffffffffffffffffffffffffff1663a9059cbb60008054906101000a900473ffffffffffffffffffffffffffffffffffffffff16836040518363ffffffff1660e01b81526004016102519291906103c5565b6020604051808303816000875af1158015610270573d6000803e3d6000fd5b505050506040513d601f19601f820116820180604052508101906102949190610426565b5060008054906101000a900473ffffffffffffffffffffffffffffffffffffffff1673ffffffffffffffffffffffffffffffffffffffff16ff5b60008054906101000a900473ffffffffffffffffffffffffffffffffffffffff1681565b600073ffffffffffffffffffffffffffffffffffffffff82169050919050565b600061031d826102f2565b9050919050565b61032d81610312565b82525050565b60006020820190506103486000830184610324565b92915050565b600080fd5b6000819050919050565b61036681610353565b811461037157600080fd5b50565b6000815190506103838161035d565b92915050565b60006020828403121561039f5761039e61034e565b5b60006103ad84828501610374565b91505092915050565b6103bf81610353565b82525050565b60006040820190506103da6000830185610324565b6103e760208301846103b6565b9392505050565b60008115159050919050565b610403816103ee565b811461040e57600080fd5b50565b600081519050610420816103fa565b92915050565b60006020828403121561043c5761043b61034e565b5b600061044a84828501610411565b9150509291505056fea2646970667358221220d8dcc2ebea6d17783a38416410f52a669864e85d7cb6be4a6cef4b57b330181f64736f6c63430008110033a2646970667358221220ea5acdd2bfa04aeb6015d7225bf2af7c64f83d7c5c2a0578d4701a3c63b98f9764736f6c63430008110033",
					"opcodes": "PUSH1 0x80 PUSH1 0x40 MSTORE PUSH1 0x1 PUSH1 0x0 SSTORE CALLVALUE DUP1 ISZERO PUSH2 0x15 JUMPI PUSH1 0x0 DUP1 REVERT JUMPDEST POP PUSH2 0xAB5 DUP1 PUSH2 0x25 PUSH1 0x0 CODECOPY PUSH1 0x0 RETURN INVALID PUSH1 0x80 PUSH1 0x40 MSTORE PUSH1 0x4 CALLDATASIZE LT PUSH2 0x38 JUMPI PUSH1 0x0 CALLDATALOAD PUSH1 0xE0 SHR DUP1 PUSH4 0xD01169F EQ PUSH2 0x6B JUMPI DUP1 PUSH4 0x2986C0E5 EQ PUSH2 0xA8 JUMPI DUP1 PUSH4 0xCE677800 EQ PUSH2 0xD3 JUMPI PUSH2 0x66 JUMP JUMPDEST CALLDATASIZE PUSH2 0x66 JUMPI PUSH1 0x0 JUMPDEST PUSH1 0x64 DUP2 LT ISZERO PUSH2 0x64 JUMPI PUSH2 0x51 PUSH2 0xEA JUMP JUMPDEST DUP1 DUP1 PUSH2 0x5C SWAP1 PUSH2 0x2D0 JUMP JUMPDEST SWAP2 POP POP PUSH2 0x40 JUMP JUMPDEST STOP JUMPDEST PUSH1 0x0 DUP1 REVERT JUMPDEST CALLVALUE DUP1 ISZERO PUSH2 0x77 JUMPI PUSH1 0x0 DUP1 REVERT JUMPDEST POP PUSH2 0x92 PUSH1 0x4 DUP1 CALLDATASIZE SUB DUP2 ADD SWAP1 PUSH2 0x8D SWAP2 SWAP1 PUSH2 0x349 JUMP JUMPDEST PUSH2 0x191 JUMP JUMPDEST PUSH1 0x40 MLOAD PUSH2 0x9F SWAP2 SWAP1 PUSH2 0x3B7 JUMP JUMPDEST PUSH1 0x40 MLOAD DUP1 SWAP2 SUB SWAP1 RETURN JUMPDEST CALLVALUE DUP1 ISZERO PUSH2 0xB4 JUMPI PUSH1 0x0 DUP1 REVERT JUMPDEST POP PUSH2 0xBD PUSH2 0x1C4 JUMP JUMPDEST PUSH1 0x40 MLOAD PUSH2 0xCA SWAP2 SWAP1 PUSH2 0x3E1 JUMP JUMPDEST PUSH1 0x40 MLOAD DUP1 SWAP2 SUB SWAP1 RETURN JUMPDEST CALLVALUE DUP1 ISZERO PUSH2 0xDF JUMPI PUSH1 0x0 DUP1 REVERT JUMPDEST POP PUSH2 0xE8 PUSH2 0x1CA JUMP JUMPDEST STOP JUMPDEST PUSH1 0x0 DUP1 SLOAD SWAP1 POP PUSH1 0x0 DUP2 PUSH1 0x0 SHL PUSH1 0x40 MLOAD PUSH2 0x102 SWAP1 PUSH2 0x28A JUMP JUMPDEST DUP2 SWAP1 PUSH1 0x40 MLOAD DUP1 SWAP2 SUB SWAP1 PUSH1 0x0 CREATE2 SWAP1 POP DUP1 ISZERO DUP1 ISZERO PUSH2 0x122 JUMPI RETURNDATASIZE PUSH1 0x0 DUP1 RETURNDATACOPY RETURNDATASIZE PUSH1 0x0 REVERT JUMPDEST POP SWAP1 POP DUP1 PUSH1 0x1 PUSH1 0x0 DUP1 SLOAD DUP2 MSTORE PUSH1 0x20 ADD SWAP1 DUP2 MSTORE PUSH1 0x20 ADD PUSH1 0x0 KECCAK256 PUSH1 0x0 PUSH2 0x100 EXP DUP2 SLOAD DUP2 PUSH20 0xFFFFFFFFFFFFFFFFFFFFFFFFFFFFFFFFFFFFFFFF MUL NOT AND SWAP1 DUP4 PUSH20 0xFFFFFFFFFFFFFFFFFFFFFFFFFFFFFFFFFFFFFFFF AND MUL OR SWAP1 SSTORE POP PUSH1 0x1 PUSH1 0x0 SLOAD PUSH2 0x187 SWAP2 SWAP1 PUSH2 0x3FC JUMP JUMPDEST PUSH1 0x0 DUP2 SWAP1 SSTORE POP POP POP JUMP JUMPDEST PUSH1 0x1 PUSH1 0x20 MSTORE DUP1 PUSH1 0x0 MSTORE PUSH1 0x40 PUSH1 0x0 KECCAK256 PUSH1 0x0 SWAP2 POP SLOAD SWAP1 PUSH2 0x100 EXP SWAP1 DIV PUSH20 0xFFFFFFFFFFFFFFFFFFFFFFFFFFFFFFFFFFFFFFFF AND DUP2 JUMP JUMPDEST PUSH1 0x0 SLOAD DUP2 JUMP JUMPDEST PUSH1 0x0 PUSH1 0x1 SWAP1 POP JUMPDEST PUSH1 0x0 SLOAD DUP2 LT ISZERO PUSH2 0x287 JUMPI PUSH1 0x0 PUSH1 0x1 PUSH1 0x0 DUP4 DUP2 MSTORE PUSH1 0x20 ADD SWAP1 DUP2 MSTORE PUSH1 0x20 ADD PUSH1 0x0 KECCAK256 PUSH1 0x0 SWAP1 SLOAD SWAP1 PUSH2 0x100 EXP SWAP1 DIV PUSH20 0xFFFFFFFFFFFFFFFFFFFFFFFFFFFFFFFFFFFFFFFF AND SWAP1 POP DUP1 PUSH20 0xFFFFFFFFFFFFFFFFFFFFFFFFFFFFFFFFFFFFFFFF AND PUSH4 0x8B4EF897 PUSH1 0x40 MLOAD DUP2 PUSH4 0xFFFFFFFF AND PUSH1 0xE0 SHL DUP2 MSTORE PUSH1 0x4 ADD PUSH1 0x0 PUSH1 0x40 MLOAD DUP1 DUP4 SUB DUP2 PUSH1 0x0 DUP8 DUP1 EXTCODESIZE ISZERO DUP1 ISZERO PUSH2 0x25B JUMPI PUSH1 0x0 DUP1 REVERT JUMPDEST POP GAS CALL ISZERO DUP1 ISZERO PUSH2 0x26F JUMPI RETURNDATASIZE PUSH1 0x0 DUP1 RETURNDATACOPY RETURNDATASIZE PUSH1 0x0 REVERT JUMPDEST POP POP POP POP POP DUP1 DUP1 PUSH2 0x27F SWAP1 PUSH2 0x2D0 JUMP JUMPDEST SWAP2 POP POP PUSH2 0x1D1 JUMP JUMPDEST POP JUMP JUMPDEST PUSH2 0x64F DUP1 PUSH2 0x431 DUP4 CODECOPY ADD SWAP1 JUMP JUMPDEST PUSH32 0x4E487B7100000000000000000000000000000000000000000000000000000000 PUSH1 0x0 MSTORE PUSH1 0x11 PUSH1 0x4 MSTORE PUSH1 0x24 PUSH1 0x0 REVERT JUMPDEST PUSH1 0x0 DUP2 SWAP1 POP SWAP2 SWAP1 POP JUMP JUMPDEST PUSH1 0x0 PUSH2 0x2DB DUP3 PUSH2 0x2C6 JUMP JUMPDEST SWAP2 POP PUSH32 0xFFFFFFFFFFFFFFFFFFFFFFFFFFFFFFFFFFFFFFFFFFFFFFFFFFFFFFFFFFFFFFFF DUP3 SUB PUSH2 0x30D JUMPI PUSH2 0x30C PUSH2 0x297 JUMP JUMPDEST JUMPDEST PUSH1 0x1 DUP3 ADD SWAP1 POP SWAP2 SWAP1 POP JUMP JUMPDEST PUSH1 0x0 DUP1 REVERT JUMPDEST PUSH2 0x326 DUP2 PUSH2 0x2C6 JUMP JUMPDEST DUP2 EQ PUSH2 0x331 JUMPI PUSH1 0x0 DUP1 REVERT JUMPDEST POP JUMP JUMPDEST PUSH1 0x0 DUP2 CALLDATALOAD SWAP1 POP PUSH2 0x343 DUP2 PUSH2 0x31D JUMP JUMPDEST SWAP3 SWAP2 POP POP JUMP JUMPDEST PUSH1 0x0 PUSH1 0x20 DUP3 DUP5 SUB SLT ISZERO PUSH2 0x35F JUMPI PUSH2 0x35E PUSH2 0x318 JUMP JUMPDEST JUMPDEST PUSH1 0x0 PUSH2 0x36D DUP5 DUP3 DUP6 ADD PUSH2 0x334 JUMP JUMPDEST SWAP2 POP POP SWAP3 SWAP2 POP POP JUMP JUMPDEST PUSH1 0x0 PUSH20 0xFFFFFFFFFFFFFFFFFFFFFFFFFFFFFFFFFFFFFFFF DUP3 AND SWAP1 POP SWAP2 SWAP1 POP JUMP JUMPDEST PUSH1 0x0 PUSH2 0x3A1 DUP3 PUSH2 0x376 JUMP JUMPDEST SWAP1 POP SWAP2 SWAP1 POP JUMP JUMPDEST PUSH2 0x3B1 DUP2 PUSH2 0x396 JUMP JUMPDEST DUP3 MSTORE POP POP JUMP JUMPDEST PUSH1 0x0 PUSH1 0x20 DUP3 ADD SWAP1 POP PUSH2 0x3CC PUSH1 0x0 DUP4 ADD DUP5 PUSH2 0x3A8 JUMP JUMPDEST SWAP3 SWAP2 POP POP JUMP JUMPDEST PUSH2 0x3DB DUP2 PUSH2 0x2C6 JUMP JUMPDEST DUP3 MSTORE POP POP JUMP JUMPDEST PUSH1 0x0 PUSH1 0x20 DUP3 ADD SWAP1 POP PUSH2 0x3F6 PUSH1 0x0 DUP4 ADD DUP5 PUSH2 0x3D2 JUMP JUMPDEST SWAP3 SWAP2 POP POP JUMP JUMPDEST PUSH1 0x0 PUSH2 0x407 DUP3 PUSH2 0x2C6 JUMP JUMPDEST SWAP2 POP PUSH2 0x412 DUP4 PUSH2 0x2C6 JUMP JUMPDEST SWAP3 POP DUP3 DUP3 ADD SWAP1 POP DUP1 DUP3 GT ISZERO PUSH2 0x42A JUMPI PUSH2 0x429 PUSH2 0x297 JUMP JUMPDEST JUMPDEST SWAP3 SWAP2 POP POP JUMP INVALID PUSH1 0x80 PUSH1 0x40 MSTORE PUSH20 0x6971B57A29764ED7AF4A4A1ED7A512DDE9369EF6 PUSH1 0x0 DUP1 PUSH2 0x100 EXP DUP2 SLOAD DUP2 PUSH20 0xFFFFFFFFFFFFFFFFFFFFFFFFFFFFFFFFFFFFFFFF MUL NOT AND SWAP1 DUP4 PUSH20 0xFFFFFFFFFFFFFFFFFFFFFFFFFFFFFFFFFFFFFFFF AND MUL OR SWAP1 SSTORE POP PUSH20 0x2AB0E9E4EE70FFF1FB9D67031E44F6410170D00E PUSH1 0x1 PUSH1 0x0 PUSH2 0x100 EXP DUP2 SLOAD DUP2 PUSH20 0xFFFFFFFFFFFFFFFFFFFFFFFFFFFFFFFFFFFFFFFF MUL NOT AND SWAP1 DUP4 PUSH20 0xFFFFFFFFFFFFFFFFFFFFFFFFFFFFFFFFFFFFFFFF AND MUL OR SWAP1 SSTORE POP CALLVALUE DUP1 ISZERO PUSH2 0xB9 JUMPI PUSH1 0x0 DUP1 REVERT JUMPDEST POP PUSH1 0x1 PUSH1 0x0 SWAP1 SLOAD SWAP1 PUSH2 0x100 EXP SWAP1 DIV PUSH20 0xFFFFFFFFFFFFFFFFFFFFFFFFFFFFFFFFFFFFFFFF AND PUSH20 0xFFFFFFFFFFFFFFFFFFFFFFFFFFFFFFFFFFFFFFFF AND PUSH4 0x9FF054DF PUSH1 0x1 PUSH1 0x40 MLOAD DUP3 PUSH4 0xFFFFFFFF AND PUSH1 0xE0 SHL DUP2 MSTORE PUSH1 0x4 ADD PUSH2 0x116 SWAP2 SWAP1 PUSH2 0x19C JUMP JUMPDEST PUSH1 0x0 PUSH1 0x40 MLOAD DUP1 DUP4 SUB DUP2 PUSH1 0x0 DUP8 DUP1 EXTCODESIZE ISZERO DUP1 ISZERO PUSH2 0x130 JUMPI PUSH1 0x0 DUP1 REVERT JUMPDEST POP GAS CALL ISZERO DUP1 ISZERO PUSH2 0x144 JUMPI RETURNDATASIZE PUSH1 0x0 DUP1 RETURNDATACOPY RETURNDATASIZE PUSH1 0x0 REVERT JUMPDEST POP POP POP POP PUSH2 0x1B7 JUMP JUMPDEST PUSH1 0x0 DUP2 SWAP1 POP SWAP2 SWAP1 POP JUMP JUMPDEST PUSH1 0x0 DUP2 SWAP1 POP SWAP2 SWAP1 POP JUMP JUMPDEST PUSH1 0x0 DUP2 SWAP1 POP SWAP2 SWAP1 POP JUMP JUMPDEST PUSH1 0x0 PUSH2 0x186 PUSH2 0x181 PUSH2 0x17C DUP5 PUSH2 0x14D JUMP JUMPDEST PUSH2 0x161 JUMP JUMPDEST PUSH2 0x157 JUMP JUMPDEST SWAP1 POP SWAP2 SWAP1 POP JUMP JUMPDEST PUSH2 0x196 DUP2 PUSH2 0x16B JUMP JUMPDEST DUP3 MSTORE POP POP JUMP JUMPDEST PUSH1 0x0 PUSH1 0x20 DUP3 ADD SWAP1 POP PUSH2 0x1B1 PUSH1 0x0 DUP4 ADD DUP5 PUSH2 0x18D JUMP JUMPDEST SWAP3 SWAP2 POP POP JUMP JUMPDEST PUSH2 0x489 DUP1 PUSH2 0x1C6 PUSH1 0x0 CODECOPY PUSH1 0x0 RETURN INVALID PUSH1 0x80 PUSH1 0x40 MSTORE CALLVALUE DUP1 ISZERO PUSH2 0x10 JUMPI PUSH1 0x0 DUP1 REVERT JUMPDEST POP PUSH1 0x4 CALLDATASIZE LT PUSH2 0x41 JUMPI PUSH1 0x0 CALLDATALOAD PUSH1 0xE0 SHR DUP1 PUSH4 0x62AB1A77 EQ PUSH2 0x46 JUMPI DUP1 PUSH4 0x8B4EF897 EQ PUSH2 0x64 JUMPI DUP1 PUSH4 0x8DA5CB5B EQ PUSH2 0x6E JUMPI JUMPDEST PUSH1 0x0 DUP1 REVERT JUMPDEST PUSH2 0x4E PUSH2 0x8C JUMP JUMPDEST PUSH1 0x40 MLOAD PUSH2 0x5B SWAP2 SWAP1 PUSH2 0x333 JUMP JUMPDEST PUSH1 0x40 MLOAD DUP1 SWAP2 SUB SWAP1 RETURN JUMPDEST PUSH2 0x6C PUSH2 0xB2 JUMP JUMPDEST STOP JUMPDEST PUSH2 0x76 PUSH2 0x2CE JUMP JUMPDEST PUSH1 0x40 MLOAD PUSH2 0x83 SWAP2 SWAP1 PUSH2 0x333 JUMP JUMPDEST PUSH1 0x40 MLOAD DUP1 SWAP2 SUB SWAP1 RETURN JUMPDEST PUSH1 0x1 PUSH1 0x0 SWAP1 SLOAD SWAP1 PUSH2 0x100 EXP SWAP1 DIV PUSH20 0xFFFFFFFFFFFFFFFFFFFFFFFFFFFFFFFFFFFFFFFF AND DUP2 JUMP JUMPDEST PUSH1 0x1 PUSH1 0x0 SWAP1 SLOAD SWAP1 PUSH2 0x100 EXP SWAP1 DIV PUSH20 0xFFFFFFFFFFFFFFFFFFFFFFFFFFFFFFFFFFFFFFFF AND PUSH20 0xFFFFFFFFFFFFFFFFFFFFFFFFFFFFFFFFFFFFFFFF AND PUSH4 0x52C7F8DC PUSH1 0x40 MLOAD DUP2 PUSH4 0xFFFFFFFF AND PUSH1 0xE0 SHL DUP2 MSTORE PUSH1 0x4 ADD PUSH1 0x0 PUSH1 0x40 MLOAD DUP1 DUP4 SUB DUP2 PUSH1 0x0 DUP8 DUP1 EXTCODESIZE ISZERO DUP1 ISZERO PUSH2 0x11C JUMPI PUSH1 0x0 DUP1 REVERT JUMPDEST POP GAS CALL ISZERO DUP1 ISZERO PUSH2 0x130 JUMPI RETURNDATASIZE PUSH1 0x0 DUP1 RETURNDATACOPY RETURNDATASIZE PUSH1 0x0 REVERT JUMPDEST POP POP POP POP PUSH1 0x0 PUSH1 0x1 PUSH1 0x0 SWAP1 SLOAD SWAP1 PUSH2 0x100 EXP SWAP1 DIV PUSH20 0xFFFFFFFFFFFFFFFFFFFFFFFFFFFFFFFFFFFFFFFF AND PUSH20 0xFFFFFFFFFFFFFFFFFFFFFFFFFFFFFFFFFFFFFFFF AND PUSH4 0x70A08231 ADDRESS PUSH1 0x40 MLOAD DUP3 PUSH4 0xFFFFFFFF AND PUSH1 0xE0 SHL DUP2 MSTORE PUSH1 0x4 ADD PUSH2 0x191 SWAP2 SWAP1 PUSH2 0x333 JUMP JUMPDEST PUSH1 0x20 PUSH1 0x40 MLOAD DUP1 DUP4 SUB DUP2 DUP7 GAS STATICCALL ISZERO DUP1 ISZERO PUSH2 0x1AE JUMPI RETURNDATASIZE PUSH1 0x0 DUP1 RETURNDATACOPY RETURNDATASIZE PUSH1 0x0 REVERT JUMPDEST POP POP POP POP PUSH1 0x40 MLOAD RETURNDATASIZE PUSH1 0x1F NOT PUSH1 0x1F DUP3 ADD AND DUP3 ADD DUP1 PUSH1 0x40 MSTORE POP DUP2 ADD SWAP1 PUSH2 0x1D2 SWAP2 SWAP1 PUSH2 0x389 JUMP JUMPDEST SWAP1 POP PUSH1 0x1 PUSH1 0x0 SWAP1 SLOAD SWAP1 PUSH2 0x100 EXP SWAP1 DIV PUSH20 0xFFFFFFFFFFFFFFFFFFFFFFFFFFFFFFFFFFFFFFFF AND PUSH20 0xFFFFFFFFFFFFFFFFFFFFFFFFFFFFFFFFFFFFFFFF AND PUSH4 0xA9059CBB PUSH1 0x0 DUP1 SLOAD SWAP1 PUSH2 0x100 EXP SWAP1 DIV PUSH20 0xFFFFFFFFFFFFFFFFFFFFFFFFFFFFFFFFFFFFFFFF AND DUP4 PUSH1 0x40 MLOAD DUP4 PUSH4 0xFFFFFFFF AND PUSH1 0xE0 SHL DUP2 MSTORE PUSH1 0x4 ADD PUSH2 0x251 SWAP3 SWAP2 SWAP1 PUSH2 0x3C5 JUMP JUMPDEST PUSH1 0x20 PUSH1 0x40 MLOAD DUP1 DUP4 SUB DUP2 PUSH1 0x0 DUP8 GAS CALL ISZERO DUP1 ISZERO PUSH2 0x270 JUMPI RETURNDATASIZE PUSH1 0x0 DUP1 RETURNDATACOPY RETURNDATASIZE PUSH1 0x0 REVERT JUMPDEST POP POP POP POP PUSH1 0x40 MLOAD RETURNDATASIZE PUSH1 0x1F NOT PUSH1 0x1F DUP3 ADD AND DUP3 ADD DUP1 PUSH1 0x40 MSTORE POP DUP2 ADD SWAP1 PUSH2 0x294 SWAP2 SWAP1 PUSH2 0x426 JUMP JUMPDEST POP PUSH1 0x0 DUP1 SLOAD SWAP1 PUSH2 0x100 EXP SWAP1 DIV PUSH20 0xFFFFFFFFFFFFFFFFFFFFFFFFFFFFFFFFFFFFFFFF AND PUSH20 0xFFFFFFFFFFFFFFFFFFFFFFFFFFFFFFFFFFFFFFFF AND SELFDESTRUCT JUMPDEST PUSH1 0x0 DUP1 SLOAD SWAP1 PUSH2 0x100 EXP SWAP1 DIV PUSH20 0xFFFFFFFFFFFFFFFFFFFFFFFFFFFFFFFFFFFFFFFF AND DUP2 JUMP JUMPDEST PUSH1 0x0 PUSH20 0xFFFFFFFFFFFFFFFFFFFFFFFFFFFFFFFFFFFFFFFF DUP3 AND SWAP1 POP SWAP2 SWAP1 POP JUMP JUMPDEST PUSH1 0x0 PUSH2 0x31D DUP3 PUSH2 0x2F2 JUMP JUMPDEST SWAP1 POP SWAP2 SWAP1 POP JUMP JUMPDEST PUSH2 0x32D DUP2 PUSH2 0x312 JUMP JUMPDEST DUP3 MSTORE POP POP JUMP JUMPDEST PUSH1 0x0 PUSH1 0x20 DUP3 ADD SWAP1 POP PUSH2 0x348 PUSH1 0x0 DUP4 ADD DUP5 PUSH2 0x324 JUMP JUMPDEST SWAP3 SWAP2 POP POP JUMP JUMPDEST PUSH1 0x0 DUP1 REVERT JUMPDEST PUSH1 0x0 DUP2 SWAP1 POP SWAP2 SWAP1 POP JUMP JUMPDEST PUSH2 0x366 DUP2 PUSH2 0x353 JUMP JUMPDEST DUP2 EQ PUSH2 0x371 JUMPI PUSH1 0x0 DUP1 REVERT JUMPDEST POP JUMP JUMPDEST PUSH1 0x0 DUP2 MLOAD SWAP1 POP PUSH2 0x383 DUP2 PUSH2 0x35D JUMP JUMPDEST SWAP3 SWAP2 POP POP JUMP JUMPDEST PUSH1 0x0 PUSH1 0x20 DUP3 DUP5 SUB SLT ISZERO PUSH2 0x39F JUMPI PUSH2 0x39E PUSH2 0x34E JUMP JUMPDEST JUMPDEST PUSH1 0x0 PUSH2 0x3AD DUP5 DUP3 DUP6 ADD PUSH2 0x374 JUMP JUMPDEST SWAP2 POP POP SWAP3 SWAP2 POP POP JUMP JUMPDEST PUSH2 0x3BF DUP2 PUSH2 0x353 JUMP JUMPDEST DUP3 MSTORE POP POP JUMP JUMPDEST PUSH1 0x0 PUSH1 0x40 DUP3 ADD SWAP1 POP PUSH2 0x3DA PUSH1 0x0 DUP4 ADD DUP6 PUSH2 0x324 JUMP JUMPDEST PUSH2 0x3E7 PUSH1 0x20 DUP4 ADD DUP5 PUSH2 0x3B6 JUMP JUMPDEST SWAP4 SWAP3 POP POP POP JUMP JUMPDEST PUSH1 0x0 DUP2 ISZERO ISZERO SWAP1 POP SWAP2 SWAP1 POP JUMP JUMPDEST PUSH2 0x403 DUP2 PUSH2 0x3EE JUMP JUMPDEST DUP2 EQ PUSH2 0x40E JUMPI PUSH1 0x0 DUP1 REVERT JUMPDEST POP JUMP JUMPDEST PUSH1 0x0 DUP2 MLOAD SWAP1 POP PUSH2 0x420 DUP2 PUSH2 0x3FA JUMP JUMPDEST SWAP3 SWAP2 POP POP JUMP JUMPDEST PUSH1 0x0 PUSH1 0x20 DUP3 DUP5 SUB SLT ISZERO PUSH2 0x43C JUMPI PUSH2 0x43B PUSH2 0x34E JUMP JUMPDEST JUMPDEST PUSH1 0x0 PUSH2 0x44A DUP5 DUP3 DUP6 ADD PUSH2 0x411 JUMP JUMPDEST SWAP2 POP POP SWAP3 SWAP2 POP POP JUMP INVALID LOG2 PUSH5 0x6970667358 0x22 SLT KECCAK256 0xD8 0xDC 0xC2 0xEB 0xEA PUSH14 0x17783A38416410F52A669864E85D PUSH29 0xB6BE4A6CEF4B57B330181F64736F6C63430008110033A2646970667358 0x22 SLT KECCAK256 0xEA GAS 0xCD 0xD2 0xBF LOG0 0x4A 0xEB PUSH1 0x15 0xD7 0x22 JUMPDEST CALLCODE 0xAF PUSH29 0x64F83D7C5C2A0578D4701A3C63B98F9764736F6C634300081100330000 "
				},
				"gasEstimates": {
					"creation": {
						"codeDepositCost": "548200",
						"executionCost": "22687",
						"totalCost": "570887"
					},
					"external": {
						"claimXEN()": "infinite",
						"index()": "2429",
						"indextoaddres(uint256)": "2817"
					},
					"internal": {
						"claim()": "infinite"
					}
				},
				"methodIdentifiers": {
					"claimXEN()": "ce677800",
					"index()": "2986c0e5",
					"indextoaddres(uint256)": "0d01169f"
				}
			},
			"storageLayout": {
				"storage": [
					{
						"astId": 9,
						"contract": "XenFactory/XenCreate2.sol:MxenCreateFactory",
						"label": "index",
						"offset": 0,
						"slot": "0",
						"type": "t_uint256"
					},
					{
						"astId": 13,
						"contract": "XenFactory/XenCreate2.sol:MxenCreateFactory",
						"label": "indextoaddres",
						"offset": 0,
						"slot": "1",
						"type": "t_mapping(t_uint256,t_address)"
					}
				],
				"types": {
					"t_address": {
						"encoding": "inplace",
						"label": "address",
						"numberOfBytes": "20"
					},
					"t_mapping(t_uint256,t_address)": {
						"encoding": "mapping",
						"key": "t_uint256",
						"label": "mapping(uint256 => address)",
						"numberOfBytes": "32",
						"value": "t_address"
					},
					"t_uint256": {
						"encoding": "inplace",
						"label": "uint256",
						"numberOfBytes": "32"
					}
				}
			},
			"userdoc": {
				"kind": "user",
				"methods": {},
				"version": 1
			}
		}
	}
}