{
	"try-catch.sol": {
		"trycatch": {
			"abi": [
				{
					"inputs": [],
					"stateMutability": "nonpayable",
					"type": "constructor"
				},
				{
					"anonymous": false,
					"inputs": [
						{
							"indexed": false,
							"internalType": "bytes",
							"name": "data",
							"type": "bytes"
						}
					],
					"name": "CatchByte",
					"type": "event"
				},
				{
					"anonymous": false,
					"inputs": [
						{
							"indexed": false,
							"internalType": "string",
							"name": "message",
							"type": "string"
						}
					],
					"name": "CatchEvent",
					"type": "event"
				},
				{
					"anonymous": false,
					"inputs": [],
					"name": "SuccessEvent",
					"type": "event"
				},
				{
					"inputs": [
						{
							"internalType": "uint256",
							"name": "amount",
							"type": "uint256"
						}
					],
					"name": "execute",
					"outputs": [
						{
							"internalType": "bool",
							"name": "success",
							"type": "bool"
						}
					],
					"stateMutability": "nonpayable",
					"type": "function"
				}
			],
			"devdoc": {
				"kind": "dev",
				"methods": {},
				"version": 1
			},
			"evm": {
				"assembly": "    /* \"try-catch.sol\":390:1099  contract trycatch{\r... */\n  mstore(0x40, 0x80)\n    /* \"try-catch.sol\":617:672  constructor() {\r... */\n  callvalue\n  dup1\n  iszero\n  tag_1\n  jumpi\n  0x00\n  dup1\n  revert\ntag_1:\n  pop\n    /* \"try-catch.sol\":662:663  2 */\n  0x02\n    /* \"try-catch.sol\":649:664  new OnlyEven(2) */\n  mload(0x40)\n  tag_4\n  swap1\n  tag_5\n  jump\t// in\ntag_4:\n  tag_6\n  swap2\n  swap1\n  tag_7\n  jump\t// in\ntag_6:\n  mload(0x40)\n  dup1\n  swap2\n  sub\n  swap1\n  0x00\n  create\n  dup1\n  iszero\n  dup1\n  iszero\n  tag_8\n  jumpi\n  returndatasize\n  0x00\n  dup1\n  returndatacopy\n  revert(0x00, returndatasize)\ntag_8:\n  pop\n    /* \"try-catch.sol\":642:646  even */\n  0x00\n  dup1\n    /* \"try-catch.sol\":642:664  even = new OnlyEven(2) */\n  0x0100\n  exp\n  dup2\n  sload\n  dup2\n  0xffffffffffffffffffffffffffffffffffffffff\n  mul\n  not\n  and\n  swap1\n  dup4\n  0xffffffffffffffffffffffffffffffffffffffff\n  and\n  mul\n  or\n  swap1\n  sstore\n  pop\n    /* \"try-catch.sol\":390:1099  contract trycatch{\r... */\n  jump(tag_9)\ntag_5:\n  dataSize(sub_1)\n  dup1\n  dataOffset(sub_1)\n  dup4\n  codecopy\n  add\n  swap1\n  jump\t// out\n    /* \"#utility.yul\":7:154   */\ntag_11:\n    /* \"#utility.yul\":102:147   */\n  tag_13\n    /* \"#utility.yul\":141:146   */\n  dup2\n    /* \"#utility.yul\":102:147   */\n  tag_14\n  jump\t// in\ntag_13:\n    /* \"#utility.yul\":97:100   */\n  dup3\n    /* \"#utility.yul\":90:148   */\n  mstore\n    /* \"#utility.yul\":7:154   */\n  pop\n  pop\n  jump\t// out\n    /* \"#utility.yul\":160:398   */\ntag_7:\n    /* \"#utility.yul\":261:265   */\n  0x00\n    /* \"#utility.yul\":299:301   */\n  0x20\n    /* \"#utility.yul\":288:297   */\n  dup3\n    /* \"#utility.yul\":284:302   */\n  add\n    /* \"#utility.yul\":276:302   */\n  swap1\n  pop\n    /* \"#utility.yul\":312:391   */\n  tag_16\n    /* \"#utility.yul\":388:389   */\n  0x00\n    /* \"#utility.yul\":377:386   */\n  dup4\n    /* \"#utility.yul\":373:390   */\n  add\n    /* \"#utility.yul\":364:370   */\n  dup5\n    /* \"#utility.yul\":312:391   */\n  tag_11\n  jump\t// in\ntag_16:\n    /* \"#utility.yul\":160:398   */\n  swap3\n  swap2\n  pop\n  pop\n  jump\t// out\n    /* \"#utility.yul\":404:481   */\ntag_17:\n    /* \"#utility.yul\":441:448   */\n  0x00\n    /* \"#utility.yul\":470:475   */\n  dup2\n    /* \"#utility.yul\":459:475   */\n  swap1\n  pop\n    /* \"#utility.yul\":404:481   */\n  swap2\n  swap1\n  pop\n  jump\t// out\n    /* \"#utility.yul\":487:608   */\ntag_14:\n    /* \"#utility.yul\":545:554   */\n  0x00\n    /* \"#utility.yul\":578:602   */\n  tag_20\n    /* \"#utility.yul\":596:601   */\n  dup3\n    /* \"#utility.yul\":578:602   */\n  tag_17\n  jump\t// in\ntag_20:\n    /* \"#utility.yul\":565:602   */\n  swap1\n  pop\n    /* \"#utility.yul\":487:608   */\n  swap2\n  swap1\n  pop\n  jump\t// out\n    /* \"try-catch.sol\":390:1099  contract trycatch{\r... */\ntag_9:\n  dataSize(sub_0)\n  dup1\n  dataOffset(sub_0)\n  0x00\n  codecopy\n  0x00\n  return\nstop\n\nsub_0: assembly {\n        /* \"try-catch.sol\":390:1099  contract trycatch{\r... */\n      mstore(0x40, 0x80)\n      callvalue\n      dup1\n      iszero\n      tag_1\n      jumpi\n      0x00\n      dup1\n      revert\n    tag_1:\n      pop\n      jumpi(tag_2, lt(calldatasize, 0x04))\n      shr(0xe0, calldataload(0x00))\n      dup1\n      0xfe0d94c1\n      eq\n      tag_3\n      jumpi\n    tag_2:\n      0x00\n      dup1\n      revert\n        /* \"try-catch.sol\":727:1096  function execute(uint amount) external returns (bool success) {\r... */\n    tag_3:\n      tag_4\n      0x04\n      dup1\n      calldatasize\n      sub\n      dup2\n      add\n      swap1\n      tag_5\n      swap2\n      swap1\n      tag_6\n      jump\t// in\n    tag_5:\n      tag_7\n      jump\t// in\n    tag_4:\n      mload(0x40)\n      tag_8\n      swap2\n      swap1\n      tag_9\n      jump\t// in\n    tag_8:\n      mload(0x40)\n      dup1\n      swap2\n      sub\n      swap1\n      return\n    tag_7:\n        /* \"try-catch.sol\":775:787  bool success */\n      0x00\n        /* \"try-catch.sol\":804:808  even */\n      dup1\n      0x00\n      swap1\n      sload\n      swap1\n      0x0100\n      exp\n      swap1\n      div\n      0xffffffffffffffffffffffffffffffffffffffff\n      and\n        /* \"try-catch.sol\":804:817  even.onlyEven */\n      0xffffffffffffffffffffffffffffffffffffffff\n      and\n      0xce0b4213\n        /* \"try-catch.sol\":818:824  amount */\n      dup4\n        /* \"try-catch.sol\":804:825  even.onlyEven(amount) */\n      mload(0x40)\n      dup3\n      0xffffffff\n      and\n      0xe0\n      shl\n      dup2\n      mstore\n      0x04\n      add\n      tag_11\n      swap2\n      swap1\n      tag_12\n      jump\t// in\n    tag_11:\n      0x20\n      mload(0x40)\n      dup1\n      dup4\n      sub\n      dup2\n      dup7\n      dup1\n      extcodesize\n      iszero\n      dup1\n      iszero\n      tag_13\n      jumpi\n      0x00\n      dup1\n      revert\n    tag_13:\n      pop\n      gas\n      staticcall\n      swap3\n      pop\n      pop\n      pop\n      dup1\n      iszero\n      tag_14\n      jumpi\n      pop\n      mload(0x40)\n      returndatasize\n      not(0x1f)\n      0x1f\n      dup3\n      add\n      and\n      dup3\n      add\n      dup1\n      0x40\n      mstore\n      pop\n      dup2\n      add\n      swap1\n      tag_15\n      swap2\n      swap1\n      tag_16\n      jump\t// in\n    tag_15:\n      0x01\n    tag_14:\n        /* \"try-catch.sol\":800:1089  try even.onlyEven(amount) returns(bool _success){\r... */\n      tag_17\n      jumpi\n      tag_21\n      tag_22\n      jump\t// in\n    tag_21:\n      dup1\n      0x08c379a0\n      eq\n      iszero\n      tag_20\n      jumpi\n      pop\n      tag_23\n      tag_24\n      jump\t// in\n    tag_23:\n      dup1\n      tag_25\n      jumpi\n      pop\n      jump(tag_19)\n    tag_25:\n        /* \"try-catch.sol\":1059:1077  CatchEvent(reason) */\n      0xb761112ad379c509744de8d585702b0d2694d4ceaef85ad50d452ff06821a6a6\n        /* \"try-catch.sol\":1070:1076  reason */\n      dup2\n        /* \"try-catch.sol\":1059:1077  CatchEvent(reason) */\n      mload(0x40)\n      tag_26\n      swap2\n      swap1\n      tag_27\n      jump\t// in\n    tag_26:\n      mload(0x40)\n      dup1\n      swap2\n      sub\n      swap1\n      log1\n        /* \"try-catch.sol\":964:1089  catch Error(string memory reason){\r... */\n      pop\n        /* \"try-catch.sol\":800:1089  try even.onlyEven(amount) returns(bool _success){\r... */\n      jump(tag_18)\n    tag_20:\n      pop\n    tag_19:\n      returndatasize\n      0x00\n      dup1\n      returndatacopy\n      revert(0x00, returndatasize)\n    tag_18:\n      jump(tag_28)\n    tag_17:\n        /* \"try-catch.sol\":907:921  SuccessEvent() */\n      0xfd76336752e93f2cc77cf13a41be8b6c156731030376354d634d28a9a87b9162\n      mload(0x40)\n      mload(0x40)\n      dup1\n      swap2\n      sub\n      swap1\n      log1\n        /* \"try-catch.sol\":943:951  _success */\n      dup1\n        /* \"try-catch.sol\":936:951  return _success */\n      swap2\n      pop\n      pop\n      jump(tag_10)\n        /* \"try-catch.sol\":800:1089  try even.onlyEven(amount) returns(bool _success){\r... */\n    tag_28:\n        /* \"try-catch.sol\":727:1096  function execute(uint amount) external returns (bool success) {\r... */\n    tag_10:\n      swap2\n      swap1\n      pop\n      jump\t// out\n        /* \"#utility.yul\":7:144   */\n    tag_30:\n        /* \"#utility.yul\":61:66   */\n      0x00\n        /* \"#utility.yul\":92:98   */\n      dup2\n        /* \"#utility.yul\":86:99   */\n      mload\n        /* \"#utility.yul\":77:99   */\n      swap1\n      pop\n        /* \"#utility.yul\":108:138   */\n      tag_32\n        /* \"#utility.yul\":132:137   */\n      dup2\n        /* \"#utility.yul\":108:138   */\n      tag_33\n      jump\t// in\n    tag_32:\n        /* \"#utility.yul\":7:144   */\n      swap3\n      swap2\n      pop\n      pop\n      jump\t// out\n        /* \"#utility.yul\":150:289   */\n    tag_34:\n        /* \"#utility.yul\":196:201   */\n      0x00\n        /* \"#utility.yul\":234:240   */\n      dup2\n        /* \"#utility.yul\":221:241   */\n      calldataload\n        /* \"#utility.yul\":212:241   */\n      swap1\n      pop\n        /* \"#utility.yul\":250:283   */\n      tag_36\n        /* \"#utility.yul\":277:282   */\n      dup2\n        /* \"#utility.yul\":250:283   */\n      tag_37\n      jump\t// in\n    tag_36:\n        /* \"#utility.yul\":150:289   */\n      swap3\n      swap2\n      pop\n      pop\n      jump\t// out\n        /* \"#utility.yul\":295:640   */\n    tag_16:\n        /* \"#utility.yul\":362:368   */\n      0x00\n        /* \"#utility.yul\":411:413   */\n      0x20\n        /* \"#utility.yul\":399:408   */\n      dup3\n        /* \"#utility.yul\":390:397   */\n      dup5\n        /* \"#utility.yul\":386:409   */\n      sub\n        /* \"#utility.yul\":382:414   */\n      slt\n        /* \"#utility.yul\":379:498   */\n      iszero\n      tag_39\n      jumpi\n        /* \"#utility.yul\":417:496   */\n      tag_40\n      tag_41\n      jump\t// in\n    tag_40:\n        /* \"#utility.yul\":379:498   */\n    tag_39:\n        /* \"#utility.yul\":537:538   */\n      0x00\n        /* \"#utility.yul\":562:623   */\n      tag_42\n        /* \"#utility.yul\":615:622   */\n      dup5\n        /* \"#utility.yul\":606:612   */\n      dup3\n        /* \"#utility.yul\":595:604   */\n      dup6\n        /* \"#utility.yul\":591:613   */\n      add\n        /* \"#utility.yul\":562:623   */\n      tag_30\n      jump\t// in\n    tag_42:\n        /* \"#utility.yul\":552:623   */\n      swap2\n      pop\n        /* \"#utility.yul\":508:633   */\n      pop\n        /* \"#utility.yul\":295:640   */\n      swap3\n      swap2\n      pop\n      pop\n      jump\t// out\n        /* \"#utility.yul\":646:975   */\n    tag_6:\n        /* \"#utility.yul\":705:711   */\n      0x00\n        /* \"#utility.yul\":754:756   */\n      0x20\n        /* \"#utility.yul\":742:751   */\n      dup3\n        /* \"#utility.yul\":733:740   */\n      dup5\n        /* \"#utility.yul\":729:752   */\n      sub\n        /* \"#utility.yul\":725:757   */\n      slt\n        /* \"#utility.yul\":722:841   */\n      iszero\n      tag_44\n      jumpi\n        /* \"#utility.yul\":760:839   */\n      tag_45\n      tag_41\n      jump\t// in\n    tag_45:\n        /* \"#utility.yul\":722:841   */\n    tag_44:\n        /* \"#utility.yul\":880:881   */\n      0x00\n        /* \"#utility.yul\":905:958   */\n      tag_46\n        /* \"#utility.yul\":950:957   */\n      dup5\n        /* \"#utility.yul\":941:947   */\n      dup3\n        /* \"#utility.yul\":930:939   */\n      dup6\n        /* \"#utility.yul\":926:948   */\n      add\n        /* \"#utility.yul\":905:958   */\n      tag_34\n      jump\t// in\n    tag_46:\n        /* \"#utility.yul\":895:958   */\n      swap2\n      pop\n        /* \"#utility.yul\":851:968   */\n      pop\n        /* \"#utility.yul\":646:975   */\n      swap3\n      swap2\n      pop\n      pop\n      jump\t// out\n        /* \"#utility.yul\":981:1090   */\n    tag_47:\n        /* \"#utility.yul\":1062:1083   */\n      tag_49\n        /* \"#utility.yul\":1077:1082   */\n      dup2\n        /* \"#utility.yul\":1062:1083   */\n      tag_50\n      jump\t// in\n    tag_49:\n        /* \"#utility.yul\":1057:1060   */\n      dup3\n        /* \"#utility.yul\":1050:1084   */\n      mstore\n        /* \"#utility.yul\":981:1090   */\n      pop\n      pop\n      jump\t// out\n        /* \"#utility.yul\":1096:1460   */\n    tag_51:\n        /* \"#utility.yul\":1184:1187   */\n      0x00\n        /* \"#utility.yul\":1212:1251   */\n      tag_53\n        /* \"#utility.yul\":1245:1250   */\n      dup3\n        /* \"#utility.yul\":1212:1251   */\n      tag_54\n      jump\t// in\n    tag_53:\n        /* \"#utility.yul\":1267:1338   */\n      tag_55\n        /* \"#utility.yul\":1331:1337   */\n      dup2\n        /* \"#utility.yul\":1326:1329   */\n      dup6\n        /* \"#utility.yul\":1267:1338   */\n      tag_56\n      jump\t// in\n    tag_55:\n        /* \"#utility.yul\":1260:1338   */\n      swap4\n      pop\n        /* \"#utility.yul\":1347:1399   */\n      tag_57\n        /* \"#utility.yul\":1392:1398   */\n      dup2\n        /* \"#utility.yul\":1387:1390   */\n      dup6\n        /* \"#utility.yul\":1380:1384   */\n      0x20\n        /* \"#utility.yul\":1373:1378   */\n      dup7\n        /* \"#utility.yul\":1369:1385   */\n      add\n        /* \"#utility.yul\":1347:1399   */\n      tag_58\n      jump\t// in\n    tag_57:\n        /* \"#utility.yul\":1424:1453   */\n      tag_59\n        /* \"#utility.yul\":1446:1452   */\n      dup2\n        /* \"#utility.yul\":1424:1453   */\n      tag_60\n      jump\t// in\n    tag_59:\n        /* \"#utility.yul\":1419:1422   */\n      dup5\n        /* \"#utility.yul\":1415:1454   */\n      add\n        /* \"#utility.yul\":1408:1454   */\n      swap2\n      pop\n        /* \"#utility.yul\":1188:1460   */\n      pop\n        /* \"#utility.yul\":1096:1460   */\n      swap3\n      swap2\n      pop\n      pop\n      jump\t// out\n        /* \"#utility.yul\":1466:1584   */\n    tag_61:\n        /* \"#utility.yul\":1553:1577   */\n      tag_63\n        /* \"#utility.yul\":1571:1576   */\n      dup2\n        /* \"#utility.yul\":1553:1577   */\n      tag_64\n      jump\t// in\n    tag_63:\n        /* \"#utility.yul\":1548:1551   */\n      dup3\n        /* \"#utility.yul\":1541:1578   */\n      mstore\n        /* \"#utility.yul\":1466:1584   */\n      pop\n      pop\n      jump\t// out\n        /* \"#utility.yul\":1590:1800   */\n    tag_9:\n        /* \"#utility.yul\":1677:1681   */\n      0x00\n        /* \"#utility.yul\":1715:1717   */\n      0x20\n        /* \"#utility.yul\":1704:1713   */\n      dup3\n        /* \"#utility.yul\":1700:1718   */\n      add\n        /* \"#utility.yul\":1692:1718   */\n      swap1\n      pop\n        /* \"#utility.yul\":1728:1793   */\n      tag_66\n        /* \"#utility.yul\":1790:1791   */\n      0x00\n        /* \"#utility.yul\":1779:1788   */\n      dup4\n        /* \"#utility.yul\":1775:1792   */\n      add\n        /* \"#utility.yul\":1766:1772   */\n      dup5\n        /* \"#utility.yul\":1728:1793   */\n      tag_47\n      jump\t// in\n    tag_66:\n        /* \"#utility.yul\":1590:1800   */\n      swap3\n      swap2\n      pop\n      pop\n      jump\t// out\n        /* \"#utility.yul\":1806:2119   */\n    tag_27:\n        /* \"#utility.yul\":1919:1923   */\n      0x00\n        /* \"#utility.yul\":1957:1959   */\n      0x20\n        /* \"#utility.yul\":1946:1955   */\n      dup3\n        /* \"#utility.yul\":1942:1960   */\n      add\n        /* \"#utility.yul\":1934:1960   */\n      swap1\n      pop\n        /* \"#utility.yul\":2006:2015   */\n      dup2\n        /* \"#utility.yul\":2000:2004   */\n      dup2\n        /* \"#utility.yul\":1996:2016   */\n      sub\n        /* \"#utility.yul\":1992:1993   */\n      0x00\n        /* \"#utility.yul\":1981:1990   */\n      dup4\n        /* \"#utility.yul\":1977:1994   */\n      add\n        /* \"#utility.yul\":1970:2017   */\n      mstore\n        /* \"#utility.yul\":2034:2112   */\n      tag_68\n        /* \"#utility.yul\":2107:2111   */\n      dup2\n        /* \"#utility.yul\":2098:2104   */\n      dup5\n        /* \"#utility.yul\":2034:2112   */\n      tag_51\n      jump\t// in\n    tag_68:\n        /* \"#utility.yul\":2026:2112   */\n      swap1\n      pop\n        /* \"#utility.yul\":1806:2119   */\n      swap3\n      swap2\n      pop\n      pop\n      jump\t// out\n        /* \"#utility.yul\":2125:2347   */\n    tag_12:\n        /* \"#utility.yul\":2218:2222   */\n      0x00\n        /* \"#utility.yul\":2256:2258   */\n      0x20\n        /* \"#utility.yul\":2245:2254   */\n      dup3\n        /* \"#utility.yul\":2241:2259   */\n      add\n        /* \"#utility.yul\":2233:2259   */\n      swap1\n      pop\n        /* \"#utility.yul\":2269:2340   */\n      tag_70\n        /* \"#utility.yul\":2337:2338   */\n      0x00\n        /* \"#utility.yul\":2326:2335   */\n      dup4\n        /* \"#utility.yul\":2322:2339   */\n      add\n        /* \"#utility.yul\":2313:2319   */\n      dup5\n        /* \"#utility.yul\":2269:2340   */\n      tag_61\n      jump\t// in\n    tag_70:\n        /* \"#utility.yul\":2125:2347   */\n      swap3\n      swap2\n      pop\n      pop\n      jump\t// out\n        /* \"#utility.yul\":2353:2428   */\n    tag_71:\n        /* \"#utility.yul\":2386:2392   */\n      0x00\n        /* \"#utility.yul\":2419:2421   */\n      0x40\n        /* \"#utility.yul\":2413:2422   */\n      mload\n        /* \"#utility.yul\":2403:2422   */\n      swap1\n      pop\n        /* \"#utility.yul\":2353:2428   */\n      swap1\n      jump\t// out\n        /* \"#utility.yul\":2434:2533   */\n    tag_54:\n        /* \"#utility.yul\":2486:2492   */\n      0x00\n        /* \"#utility.yul\":2520:2525   */\n      dup2\n        /* \"#utility.yul\":2514:2526   */\n      mload\n        /* \"#utility.yul\":2504:2526   */\n      swap1\n      pop\n        /* \"#utility.yul\":2434:2533   */\n      swap2\n      swap1\n      pop\n      jump\t// out\n        /* \"#utility.yul\":2539:2708   */\n    tag_56:\n        /* \"#utility.yul\":2623:2634   */\n      0x00\n        /* \"#utility.yul\":2657:2663   */\n      dup3\n        /* \"#utility.yul\":2652:2655   */\n      dup3\n        /* \"#utility.yul\":2645:2664   */\n      mstore\n        /* \"#utility.yul\":2697:2701   */\n      0x20\n        /* \"#utility.yul\":2692:2695   */\n      dup3\n        /* \"#utility.yul\":2688:2702   */\n      add\n        /* \"#utility.yul\":2673:2702   */\n      swap1\n      pop\n        /* \"#utility.yul\":2539:2708   */\n      swap3\n      swap2\n      pop\n      pop\n      jump\t// out\n        /* \"#utility.yul\":2714:2804   */\n    tag_50:\n        /* \"#utility.yul\":2748:2755   */\n      0x00\n        /* \"#utility.yul\":2791:2796   */\n      dup2\n        /* \"#utility.yul\":2784:2797   */\n      iszero\n        /* \"#utility.yul\":2777:2798   */\n      iszero\n        /* \"#utility.yul\":2766:2798   */\n      swap1\n      pop\n        /* \"#utility.yul\":2714:2804   */\n      swap2\n      swap1\n      pop\n      jump\t// out\n        /* \"#utility.yul\":2810:2887   */\n    tag_64:\n        /* \"#utility.yul\":2847:2854   */\n      0x00\n        /* \"#utility.yul\":2876:2881   */\n      dup2\n        /* \"#utility.yul\":2865:2881   */\n      swap1\n      pop\n        /* \"#utility.yul\":2810:2887   */\n      swap2\n      swap1\n      pop\n      jump\t// out\n        /* \"#utility.yul\":2893:3200   */\n    tag_58:\n        /* \"#utility.yul\":2961:2962   */\n      0x00\n        /* \"#utility.yul\":2971:3084   */\n    tag_78:\n        /* \"#utility.yul\":2985:2991   */\n      dup4\n        /* \"#utility.yul\":2982:2983   */\n      dup2\n        /* \"#utility.yul\":2979:2992   */\n      lt\n        /* \"#utility.yul\":2971:3084   */\n      iszero\n      tag_80\n      jumpi\n        /* \"#utility.yul\":3070:3071   */\n      dup1\n        /* \"#utility.yul\":3065:3068   */\n      dup3\n        /* \"#utility.yul\":3061:3072   */\n      add\n        /* \"#utility.yul\":3055:3073   */\n      mload\n        /* \"#utility.yul\":3051:3052   */\n      dup2\n        /* \"#utility.yul\":3046:3049   */\n      dup5\n        /* \"#utility.yul\":3042:3053   */\n      add\n        /* \"#utility.yul\":3035:3074   */\n      mstore\n        /* \"#utility.yul\":3007:3009   */\n      0x20\n        /* \"#utility.yul\":3004:3005   */\n      dup2\n        /* \"#utility.yul\":3000:3010   */\n      add\n        /* \"#utility.yul\":2995:3010   */\n      swap1\n      pop\n        /* \"#utility.yul\":2971:3084   */\n      jump(tag_78)\n    tag_80:\n        /* \"#utility.yul\":3102:3108   */\n      dup4\n        /* \"#utility.yul\":3099:3100   */\n      dup2\n        /* \"#utility.yul\":3096:3109   */\n      gt\n        /* \"#utility.yul\":3093:3194   */\n      iszero\n      tag_81\n      jumpi\n        /* \"#utility.yul\":3182:3183   */\n      0x00\n        /* \"#utility.yul\":3173:3179   */\n      dup5\n        /* \"#utility.yul\":3168:3171   */\n      dup5\n        /* \"#utility.yul\":3164:3180   */\n      add\n        /* \"#utility.yul\":3157:3184   */\n      mstore\n        /* \"#utility.yul\":3093:3194   */\n    tag_81:\n        /* \"#utility.yul\":2942:3200   */\n      pop\n        /* \"#utility.yul\":2893:3200   */\n      pop\n      pop\n      pop\n      jump\t// out\n        /* \"#utility.yul\":3206:3487   */\n    tag_82:\n        /* \"#utility.yul\":3289:3316   */\n      tag_84\n        /* \"#utility.yul\":3311:3315   */\n      dup3\n        /* \"#utility.yul\":3289:3316   */\n      tag_60\n      jump\t// in\n    tag_84:\n        /* \"#utility.yul\":3281:3287   */\n      dup2\n        /* \"#utility.yul\":3277:3317   */\n      add\n        /* \"#utility.yul\":3419:3425   */\n      dup2\n        /* \"#utility.yul\":3407:3417   */\n      dup2\n        /* \"#utility.yul\":3404:3426   */\n      lt\n        /* \"#utility.yul\":3383:3401   */\n      0xffffffffffffffff\n        /* \"#utility.yul\":3371:3381   */\n      dup3\n        /* \"#utility.yul\":3368:3402   */\n      gt\n        /* \"#utility.yul\":3365:3427   */\n      or\n        /* \"#utility.yul\":3362:3450   */\n      iszero\n      tag_85\n      jumpi\n        /* \"#utility.yul\":3430:3448   */\n      tag_86\n      tag_87\n      jump\t// in\n    tag_86:\n        /* \"#utility.yul\":3362:3450   */\n    tag_85:\n        /* \"#utility.yul\":3470:3480   */\n      dup1\n        /* \"#utility.yul\":3466:3468   */\n      0x40\n        /* \"#utility.yul\":3459:3481   */\n      mstore\n        /* \"#utility.yul\":3249:3487   */\n      pop\n        /* \"#utility.yul\":3206:3487   */\n      pop\n      pop\n      jump\t// out\n        /* \"#utility.yul\":3493:3673   */\n    tag_87:\n        /* \"#utility.yul\":3541:3618   */\n      0x4e487b7100000000000000000000000000000000000000000000000000000000\n        /* \"#utility.yul\":3538:3539   */\n      0x00\n        /* \"#utility.yul\":3531:3619   */\n      mstore\n        /* \"#utility.yul\":3638:3642   */\n      0x41\n        /* \"#utility.yul\":3635:3636   */\n      0x04\n        /* \"#utility.yul\":3628:3643   */\n      mstore\n        /* \"#utility.yul\":3662:3666   */\n      0x24\n        /* \"#utility.yul\":3659:3660   */\n      0x00\n        /* \"#utility.yul\":3652:3667   */\n      revert\n        /* \"#utility.yul\":3679:3862   */\n    tag_22:\n        /* \"#utility.yul\":3714:3717   */\n      0x00\n        /* \"#utility.yul\":3752:3753   */\n      0x03\n        /* \"#utility.yul\":3734:3750   */\n      returndatasize\n        /* \"#utility.yul\":3731:3754   */\n      gt\n        /* \"#utility.yul\":3728:3856   */\n      iszero\n      tag_90\n      jumpi\n        /* \"#utility.yul\":3790:3791   */\n      0x04\n        /* \"#utility.yul\":3787:3788   */\n      0x00\n        /* \"#utility.yul\":3784:3785   */\n      dup1\n        /* \"#utility.yul\":3769:3792   */\n      returndatacopy\n        /* \"#utility.yul\":3812:3846   */\n      tag_91\n        /* \"#utility.yul\":3843:3844   */\n      0x00\n        /* \"#utility.yul\":3837:3845   */\n      mload\n        /* \"#utility.yul\":3812:3846   */\n      tag_92\n      jump\t// in\n    tag_91:\n        /* \"#utility.yul\":3805:3846   */\n      swap1\n      pop\n        /* \"#utility.yul\":3728:3856   */\n    tag_90:\n        /* \"#utility.yul\":3679:3862   */\n      swap1\n      jump\t// out\n        /* \"#utility.yul\":3991:4108   */\n    tag_41:\n        /* \"#utility.yul\":4100:4101   */\n      0x00\n        /* \"#utility.yul\":4097:4098   */\n      dup1\n        /* \"#utility.yul\":4090:4102   */\n      revert\n        /* \"#utility.yul\":4114:4216   */\n    tag_60:\n        /* \"#utility.yul\":4155:4161   */\n      0x00\n        /* \"#utility.yul\":4206:4208   */\n      0x1f\n        /* \"#utility.yul\":4202:4209   */\n      not\n        /* \"#utility.yul\":4197:4199   */\n      0x1f\n        /* \"#utility.yul\":4190:4195   */\n      dup4\n        /* \"#utility.yul\":4186:4200   */\n      add\n        /* \"#utility.yul\":4182:4210   */\n      and\n        /* \"#utility.yul\":4172:4210   */\n      swap1\n      pop\n        /* \"#utility.yul\":4114:4216   */\n      swap2\n      swap1\n      pop\n      jump\t// out\n        /* \"#utility.yul\":4222:4328   */\n    tag_92:\n        /* \"#utility.yul\":4266:4274   */\n      0x00\n        /* \"#utility.yul\":4315:4320   */\n      dup2\n        /* \"#utility.yul\":4310:4313   */\n      0xe0\n        /* \"#utility.yul\":4306:4321   */\n      shr\n        /* \"#utility.yul\":4285:4321   */\n      swap1\n      pop\n        /* \"#utility.yul\":4222:4328   */\n      swap2\n      swap1\n      pop\n      jump\t// out\n        /* \"#utility.yul\":4334:5045   */\n    tag_24:\n        /* \"#utility.yul\":4373:4376   */\n      0x00\n        /* \"#utility.yul\":4411:4415   */\n      0x44\n        /* \"#utility.yul\":4393:4409   */\n      returndatasize\n        /* \"#utility.yul\":4390:4416   */\n      lt\n        /* \"#utility.yul\":4387:4426   */\n      iszero\n      tag_99\n      jumpi\n        /* \"#utility.yul\":4419:4424   */\n      jump(tag_98)\n        /* \"#utility.yul\":4387:4426   */\n    tag_99:\n        /* \"#utility.yul\":4448:4468   */\n      tag_100\n      tag_71\n      jump\t// in\n    tag_100:\n        /* \"#utility.yul\":4523:4524   */\n      0x04\n        /* \"#utility.yul\":4505:4521   */\n      returndatasize\n        /* \"#utility.yul\":4501:4525   */\n      sub\n        /* \"#utility.yul\":4498:4499   */\n      0x04\n        /* \"#utility.yul\":4492:4496   */\n      dup3\n        /* \"#utility.yul\":4477:4526   */\n      returndatacopy\n        /* \"#utility.yul\":4556:4560   */\n      dup1\n        /* \"#utility.yul\":4550:4561   */\n      mload\n        /* \"#utility.yul\":4655:4671   */\n      returndatasize\n        /* \"#utility.yul\":4648:4652   */\n      0x24\n        /* \"#utility.yul\":4640:4646   */\n      dup3\n        /* \"#utility.yul\":4636:4653   */\n      add\n        /* \"#utility.yul\":4633:4672   */\n      gt\n        /* \"#utility.yul\":4600:4618   */\n      0xffffffffffffffff\n        /* \"#utility.yul\":4592:4598   */\n      dup3\n        /* \"#utility.yul\":4589:4619   */\n      gt\n        /* \"#utility.yul\":4573:4686   */\n      or\n        /* \"#utility.yul\":4570:4716   */\n      iszero\n      tag_101\n      jumpi\n        /* \"#utility.yul\":4701:4706   */\n      pop\n      pop\n      jump(tag_98)\n        /* \"#utility.yul\":4570:4716   */\n    tag_101:\n        /* \"#utility.yul\":4747:4753   */\n      dup1\n        /* \"#utility.yul\":4741:4745   */\n      dup3\n        /* \"#utility.yul\":4737:4754   */\n      add\n        /* \"#utility.yul\":4783:4786   */\n      dup1\n        /* \"#utility.yul\":4777:4787   */\n      mload\n        /* \"#utility.yul\":4810:4828   */\n      0xffffffffffffffff\n        /* \"#utility.yul\":4802:4808   */\n      dup2\n        /* \"#utility.yul\":4799:4829   */\n      gt\n        /* \"#utility.yul\":4796:4839   */\n      iszero\n      tag_102\n      jumpi\n        /* \"#utility.yul\":4832:4837   */\n      pop\n      pop\n      pop\n      pop\n      jump(tag_98)\n        /* \"#utility.yul\":4796:4839   */\n    tag_102:\n        /* \"#utility.yul\":4880:4886   */\n      dup1\n        /* \"#utility.yul\":4873:4877   */\n      0x20\n        /* \"#utility.yul\":4868:4871   */\n      dup4\n        /* \"#utility.yul\":4864:4878   */\n      add\n        /* \"#utility.yul\":4860:4887   */\n      add\n        /* \"#utility.yul\":4939:4940   */\n      0x04\n        /* \"#utility.yul\":4921:4937   */\n      returndatasize\n        /* \"#utility.yul\":4917:4941   */\n      sub\n        /* \"#utility.yul\":4911:4915   */\n      dup6\n        /* \"#utility.yul\":4907:4942   */\n      add\n        /* \"#utility.yul\":4902:4905   */\n      dup2\n        /* \"#utility.yul\":4899:4943   */\n      gt\n        /* \"#utility.yul\":4896:4953   */\n      iszero\n      tag_103\n      jumpi\n        /* \"#utility.yul\":4946:4951   */\n      pop\n      pop\n      pop\n      pop\n      pop\n      jump(tag_98)\n        /* \"#utility.yul\":4896:4953   */\n    tag_103:\n        /* \"#utility.yul\":4963:5020   */\n      tag_104\n        /* \"#utility.yul\":5011:5017   */\n      dup3\n        /* \"#utility.yul\":5005:5009   */\n      0x20\n        /* \"#utility.yul\":5001:5018   */\n      add\n        /* \"#utility.yul\":4993:4999   */\n      dup6\n        /* \"#utility.yul\":4989:5019   */\n      add\n        /* \"#utility.yul\":4983:4987   */\n      dup7\n        /* \"#utility.yul\":4963:5020   */\n      tag_82\n      jump\t// in\n    tag_104:\n        /* \"#utility.yul\":5036:5039   */\n      dup3\n        /* \"#utility.yul\":5029:5039   */\n      swap6\n      pop\n        /* \"#utility.yul\":4377:5045   */\n      pop\n      pop\n      pop\n      pop\n      pop\n        /* \"#utility.yul\":4334:5045   */\n    tag_98:\n      swap1\n      jump\t// out\n        /* \"#utility.yul\":5051:5167   */\n    tag_33:\n        /* \"#utility.yul\":5121:5142   */\n      tag_106\n        /* \"#utility.yul\":5136:5141   */\n      dup2\n        /* \"#utility.yul\":5121:5142   */\n      tag_50\n      jump\t// in\n    tag_106:\n        /* \"#utility.yul\":5114:5119   */\n      dup2\n        /* \"#utility.yul\":5111:5143   */\n      eq\n        /* \"#utility.yul\":5101:5161   */\n      tag_107\n      jumpi\n        /* \"#utility.yul\":5157:5158   */\n      0x00\n        /* \"#utility.yul\":5154:5155   */\n      dup1\n        /* \"#utility.yul\":5147:5159   */\n      revert\n        /* \"#utility.yul\":5101:5161   */\n    tag_107:\n        /* \"#utility.yul\":5051:5167   */\n      pop\n      jump\t// out\n        /* \"#utility.yul\":5173:5295   */\n    tag_37:\n        /* \"#utility.yul\":5246:5270   */\n      tag_109\n        /* \"#utility.yul\":5264:5269   */\n      dup2\n        /* \"#utility.yul\":5246:5270   */\n      tag_64\n      jump\t// in\n    tag_109:\n        /* \"#utility.yul\":5239:5244   */\n      dup2\n        /* \"#utility.yul\":5236:5271   */\n      eq\n        /* \"#utility.yul\":5226:5289   */\n      tag_110\n      jumpi\n        /* \"#utility.yul\":5285:5286   */\n      0x00\n        /* \"#utility.yul\":5282:5283   */\n      dup1\n        /* \"#utility.yul\":5275:5287   */\n      revert\n        /* \"#utility.yul\":5226:5289   */\n    tag_110:\n        /* \"#utility.yul\":5173:5295   */\n      pop\n      jump\t// out\n\n    auxdata: 0xa26469706673582212203a8ddabdef41f0fa72e25c62cb34b46f3639586beaedde5b5c94d351e48492e664736f6c63430008070033\n}\n\nsub_1: assembly {\n        /* \"try-catch.sol\":76:386  contract OnlyEven{\r... */\n      mstore(0x40, 0x80)\n        /* \"try-catch.sol\":100:196  constructor(uint a){\r... */\n      callvalue\n      dup1\n      iszero\n      tag_1\n      jumpi\n      0x00\n      dup1\n      revert\n    tag_1:\n      pop\n      mload(0x40)\n      sub(codesize, bytecodeSize)\n      dup1\n      bytecodeSize\n      dup4\n      codecopy\n      dup2\n      dup2\n      add\n      0x40\n      mstore\n      dup2\n      add\n      swap1\n      tag_2\n      swap2\n      swap1\n      tag_3\n      jump\t// in\n    tag_2:\n        /* \"try-catch.sol\":143:144  0 */\n      0x00\n        /* \"try-catch.sol\":138:139  a */\n      dup2\n        /* \"try-catch.sol\":138:144  a != 0 */\n      eq\n      iszero\n        /* \"try-catch.sol\":130:163  require(a != 0, \"invalid number\") */\n      tag_6\n      jumpi\n      mload(0x40)\n      0x08c379a000000000000000000000000000000000000000000000000000000000\n      dup2\n      mstore\n      0x04\n      add\n      tag_7\n      swap1\n      tag_8\n      jump\t// in\n    tag_7:\n      mload(0x40)\n      dup1\n      swap2\n      sub\n      swap1\n      revert\n    tag_6:\n        /* \"try-catch.sol\":186:187  1 */\n      0x01\n        /* \"try-catch.sol\":181:182  a */\n      dup2\n        /* \"try-catch.sol\":181:187  a != 1 */\n      eq\n      iszero\n        /* \"try-catch.sol\":174:188  assert(a != 1) */\n      tag_9\n      jumpi\n      tag_10\n      tag_11\n      jump\t// in\n    tag_10:\n    tag_9:\n        /* \"try-catch.sol\":100:196  constructor(uint a){\r... */\n      pop\n        /* \"try-catch.sol\":76:386  contract OnlyEven{\r... */\n      jump(tag_12)\n        /* \"#utility.yul\":7:150   */\n    tag_14:\n        /* \"#utility.yul\":64:69   */\n      0x00\n        /* \"#utility.yul\":95:101   */\n      dup2\n        /* \"#utility.yul\":89:102   */\n      mload\n        /* \"#utility.yul\":80:102   */\n      swap1\n      pop\n        /* \"#utility.yul\":111:144   */\n      tag_16\n        /* \"#utility.yul\":138:143   */\n      dup2\n        /* \"#utility.yul\":111:144   */\n      tag_17\n      jump\t// in\n    tag_16:\n        /* \"#utility.yul\":7:150   */\n      swap3\n      swap2\n      pop\n      pop\n      jump\t// out\n        /* \"#utility.yul\":156:507   */\n    tag_3:\n        /* \"#utility.yul\":226:232   */\n      0x00\n        /* \"#utility.yul\":275:277   */\n      0x20\n        /* \"#utility.yul\":263:272   */\n      dup3\n        /* \"#utility.yul\":254:261   */\n      dup5\n        /* \"#utility.yul\":250:273   */\n      sub\n        /* \"#utility.yul\":246:278   */\n      slt\n        /* \"#utility.yul\":243:362   */\n      iszero\n      tag_19\n      jumpi\n        /* \"#utility.yul\":281:360   */\n      tag_20\n      tag_21\n      jump\t// in\n    tag_20:\n        /* \"#utility.yul\":243:362   */\n    tag_19:\n        /* \"#utility.yul\":401:402   */\n      0x00\n        /* \"#utility.yul\":426:490   */\n      tag_22\n        /* \"#utility.yul\":482:489   */\n      dup5\n        /* \"#utility.yul\":473:479   */\n      dup3\n        /* \"#utility.yul\":462:471   */\n      dup6\n        /* \"#utility.yul\":458:480   */\n      add\n        /* \"#utility.yul\":426:490   */\n      tag_14\n      jump\t// in\n    tag_22:\n        /* \"#utility.yul\":416:490   */\n      swap2\n      pop\n        /* \"#utility.yul\":372:500   */\n      pop\n        /* \"#utility.yul\":156:507   */\n      swap3\n      swap2\n      pop\n      pop\n      jump\t// out\n        /* \"#utility.yul\":513:879   */\n    tag_23:\n        /* \"#utility.yul\":655:658   */\n      0x00\n        /* \"#utility.yul\":676:743   */\n      tag_25\n        /* \"#utility.yul\":740:742   */\n      0x0e\n        /* \"#utility.yul\":735:738   */\n      dup4\n        /* \"#utility.yul\":676:743   */\n      tag_26\n      jump\t// in\n    tag_25:\n        /* \"#utility.yul\":669:743   */\n      swap2\n      pop\n        /* \"#utility.yul\":752:845   */\n      tag_27\n        /* \"#utility.yul\":841:844   */\n      dup3\n        /* \"#utility.yul\":752:845   */\n      tag_28\n      jump\t// in\n    tag_27:\n        /* \"#utility.yul\":870:872   */\n      0x20\n        /* \"#utility.yul\":865:868   */\n      dup3\n        /* \"#utility.yul\":861:873   */\n      add\n        /* \"#utility.yul\":854:873   */\n      swap1\n      pop\n        /* \"#utility.yul\":513:879   */\n      swap2\n      swap1\n      pop\n      jump\t// out\n        /* \"#utility.yul\":885:1304   */\n    tag_8:\n        /* \"#utility.yul\":1051:1055   */\n      0x00\n        /* \"#utility.yul\":1089:1091   */\n      0x20\n        /* \"#utility.yul\":1078:1087   */\n      dup3\n        /* \"#utility.yul\":1074:1092   */\n      add\n        /* \"#utility.yul\":1066:1092   */\n      swap1\n      pop\n        /* \"#utility.yul\":1138:1147   */\n      dup2\n        /* \"#utility.yul\":1132:1136   */\n      dup2\n        /* \"#utility.yul\":1128:1148   */\n      sub\n        /* \"#utility.yul\":1124:1125   */\n      0x00\n        /* \"#utility.yul\":1113:1122   */\n      dup4\n        /* \"#utility.yul\":1109:1126   */\n      add\n        /* \"#utility.yul\":1102:1149   */\n      mstore\n        /* \"#utility.yul\":1166:1297   */\n      tag_30\n        /* \"#utility.yul\":1292:1296   */\n      dup2\n        /* \"#utility.yul\":1166:1297   */\n      tag_23\n      jump\t// in\n    tag_30:\n        /* \"#utility.yul\":1158:1297   */\n      swap1\n      pop\n        /* \"#utility.yul\":885:1304   */\n      swap2\n      swap1\n      pop\n      jump\t// out\n        /* \"#utility.yul\":1391:1560   */\n    tag_26:\n        /* \"#utility.yul\":1475:1486   */\n      0x00\n        /* \"#utility.yul\":1509:1515   */\n      dup3\n        /* \"#utility.yul\":1504:1507   */\n      dup3\n        /* \"#utility.yul\":1497:1516   */\n      mstore\n        /* \"#utility.yul\":1549:1553   */\n      0x20\n        /* \"#utility.yul\":1544:1547   */\n      dup3\n        /* \"#utility.yul\":1540:1554   */\n      add\n        /* \"#utility.yul\":1525:1554   */\n      swap1\n      pop\n        /* \"#utility.yul\":1391:1560   */\n      swap3\n      swap2\n      pop\n      pop\n      jump\t// out\n        /* \"#utility.yul\":1566:1643   */\n    tag_34:\n        /* \"#utility.yul\":1603:1610   */\n      0x00\n        /* \"#utility.yul\":1632:1637   */\n      dup2\n        /* \"#utility.yul\":1621:1637   */\n      swap1\n      pop\n        /* \"#utility.yul\":1566:1643   */\n      swap2\n      swap1\n      pop\n      jump\t// out\n        /* \"#utility.yul\":1649:1829   */\n    tag_11:\n        /* \"#utility.yul\":1697:1774   */\n      0x4e487b7100000000000000000000000000000000000000000000000000000000\n        /* \"#utility.yul\":1694:1695   */\n      0x00\n        /* \"#utility.yul\":1687:1775   */\n      mstore\n        /* \"#utility.yul\":1794:1798   */\n      0x01\n        /* \"#utility.yul\":1791:1792   */\n      0x04\n        /* \"#utility.yul\":1784:1799   */\n      mstore\n        /* \"#utility.yul\":1818:1822   */\n      0x24\n        /* \"#utility.yul\":1815:1816   */\n      0x00\n        /* \"#utility.yul\":1808:1823   */\n      revert\n        /* \"#utility.yul\":1958:2075   */\n    tag_21:\n        /* \"#utility.yul\":2067:2068   */\n      0x00\n        /* \"#utility.yul\":2064:2065   */\n      dup1\n        /* \"#utility.yul\":2057:2069   */\n      revert\n        /* \"#utility.yul\":2081:2245   */\n    tag_28:\n        /* \"#utility.yul\":2221:2237   */\n      0x696e76616c6964206e756d626572000000000000000000000000000000000000\n        /* \"#utility.yul\":2217:2218   */\n      0x00\n        /* \"#utility.yul\":2209:2215   */\n      dup3\n        /* \"#utility.yul\":2205:2219   */\n      add\n        /* \"#utility.yul\":2198:2238   */\n      mstore\n        /* \"#utility.yul\":2081:2245   */\n      pop\n      jump\t// out\n        /* \"#utility.yul\":2251:2373   */\n    tag_17:\n        /* \"#utility.yul\":2324:2348   */\n      tag_42\n        /* \"#utility.yul\":2342:2347   */\n      dup2\n        /* \"#utility.yul\":2324:2348   */\n      tag_34\n      jump\t// in\n    tag_42:\n        /* \"#utility.yul\":2317:2322   */\n      dup2\n        /* \"#utility.yul\":2314:2349   */\n      eq\n        /* \"#utility.yul\":2304:2367   */\n      tag_43\n      jumpi\n        /* \"#utility.yul\":2363:2364   */\n      0x00\n        /* \"#utility.yul\":2360:2361   */\n      dup1\n        /* \"#utility.yul\":2353:2365   */\n      revert\n        /* \"#utility.yul\":2304:2367   */\n    tag_43:\n        /* \"#utility.yul\":2251:2373   */\n      pop\n      jump\t// out\n        /* \"try-catch.sol\":76:386  contract OnlyEven{\r... */\n    tag_12:\n      dataSize(sub_0)\n      dup1\n      dataOffset(sub_0)\n      0x00\n      codecopy\n      0x00\n      return\n    stop\n\n    sub_0: assembly {\n            /* \"try-catch.sol\":76:386  contract OnlyEven{\r... */\n          mstore(0x40, 0x80)\n          callvalue\n          dup1\n          iszero\n          tag_1\n          jumpi\n          0x00\n          dup1\n          revert\n        tag_1:\n          pop\n          jumpi(tag_2, lt(calldatasize, 0x04))\n          shr(0xe0, calldataload(0x00))\n          dup1\n          0xce0b4213\n          eq\n          tag_3\n          jumpi\n        tag_2:\n          0x00\n          dup1\n          revert\n            /* \"try-catch.sol\":204:383  function onlyEven(uint256 b) external pure returns(bool success){\r... */\n        tag_3:\n          tag_4\n          0x04\n          dup1\n          calldatasize\n          sub\n          dup2\n          add\n          swap1\n          tag_5\n          swap2\n          swap1\n          tag_6\n          jump\t// in\n        tag_5:\n          tag_7\n          jump\t// in\n        tag_4:\n          mload(0x40)\n          tag_8\n          swap2\n          swap1\n          tag_9\n          jump\t// in\n        tag_8:\n          mload(0x40)\n          dup1\n          swap2\n          sub\n          swap1\n          return\n        tag_7:\n            /* \"try-catch.sol\":255:267  bool success */\n          0x00\n            /* \"try-catch.sol\":330:331  0 */\n          dup1\n            /* \"try-catch.sol\":325:326  2 */\n          0x02\n            /* \"try-catch.sol\":321:322  b */\n          dup4\n            /* \"try-catch.sol\":321:326  b % 2 */\n          tag_11\n          swap2\n          swap1\n          tag_12\n          jump\t// in\n        tag_11:\n            /* \"try-catch.sol\":321:331  b % 2 == 0 */\n          eq\n            /* \"try-catch.sol\":313:350  require(b % 2 == 0, \"Ups! Reverting\") */\n          tag_13\n          jumpi\n          mload(0x40)\n          0x08c379a000000000000000000000000000000000000000000000000000000000\n          dup2\n          mstore\n          0x04\n          add\n          tag_14\n          swap1\n          tag_15\n          jump\t// in\n        tag_14:\n          mload(0x40)\n          dup1\n          swap2\n          sub\n          swap1\n          revert\n        tag_13:\n            /* \"try-catch.sol\":371:375  true */\n          0x01\n            /* \"try-catch.sol\":361:375  success = true */\n          swap1\n          pop\n            /* \"try-catch.sol\":204:383  function onlyEven(uint256 b) external pure returns(bool success){\r... */\n          swap2\n          swap1\n          pop\n          jump\t// out\n            /* \"#utility.yul\":7:146   */\n        tag_17:\n            /* \"#utility.yul\":53:58   */\n          0x00\n            /* \"#utility.yul\":91:97   */\n          dup2\n            /* \"#utility.yul\":78:98   */\n          calldataload\n            /* \"#utility.yul\":69:98   */\n          swap1\n          pop\n            /* \"#utility.yul\":107:140   */\n          tag_19\n            /* \"#utility.yul\":134:139   */\n          dup2\n            /* \"#utility.yul\":107:140   */\n          tag_20\n          jump\t// in\n        tag_19:\n            /* \"#utility.yul\":7:146   */\n          swap3\n          swap2\n          pop\n          pop\n          jump\t// out\n            /* \"#utility.yul\":152:481   */\n        tag_6:\n            /* \"#utility.yul\":211:217   */\n          0x00\n            /* \"#utility.yul\":260:262   */\n          0x20\n            /* \"#utility.yul\":248:257   */\n          dup3\n            /* \"#utility.yul\":239:246   */\n          dup5\n            /* \"#utility.yul\":235:258   */\n          sub\n            /* \"#utility.yul\":231:263   */\n          slt\n            /* \"#utility.yul\":228:347   */\n          iszero\n          tag_22\n          jumpi\n            /* \"#utility.yul\":266:345   */\n          tag_23\n          tag_24\n          jump\t// in\n        tag_23:\n            /* \"#utility.yul\":228:347   */\n        tag_22:\n            /* \"#utility.yul\":386:387   */\n          0x00\n            /* \"#utility.yul\":411:464   */\n          tag_25\n            /* \"#utility.yul\":456:463   */\n          dup5\n            /* \"#utility.yul\":447:453   */\n          dup3\n            /* \"#utility.yul\":436:445   */\n          dup6\n            /* \"#utility.yul\":432:454   */\n          add\n            /* \"#utility.yul\":411:464   */\n          tag_17\n          jump\t// in\n        tag_25:\n            /* \"#utility.yul\":401:464   */\n          swap2\n          pop\n            /* \"#utility.yul\":357:474   */\n          pop\n            /* \"#utility.yul\":152:481   */\n          swap3\n          swap2\n          pop\n          pop\n          jump\t// out\n            /* \"#utility.yul\":487:596   */\n        tag_26:\n            /* \"#utility.yul\":568:589   */\n          tag_28\n            /* \"#utility.yul\":583:588   */\n          dup2\n            /* \"#utility.yul\":568:589   */\n          tag_29\n          jump\t// in\n        tag_28:\n            /* \"#utility.yul\":563:566   */\n          dup3\n            /* \"#utility.yul\":556:590   */\n          mstore\n            /* \"#utility.yul\":487:596   */\n          pop\n          pop\n          jump\t// out\n            /* \"#utility.yul\":602:968   */\n        tag_30:\n            /* \"#utility.yul\":744:747   */\n          0x00\n            /* \"#utility.yul\":765:832   */\n          tag_32\n            /* \"#utility.yul\":829:831   */\n          0x0e\n            /* \"#utility.yul\":824:827   */\n          dup4\n            /* \"#utility.yul\":765:832   */\n          tag_33\n          jump\t// in\n        tag_32:\n            /* \"#utility.yul\":758:832   */\n          swap2\n          pop\n            /* \"#utility.yul\":841:934   */\n          tag_34\n            /* \"#utility.yul\":930:933   */\n          dup3\n            /* \"#utility.yul\":841:934   */\n          tag_35\n          jump\t// in\n        tag_34:\n            /* \"#utility.yul\":959:961   */\n          0x20\n            /* \"#utility.yul\":954:957   */\n          dup3\n            /* \"#utility.yul\":950:962   */\n          add\n            /* \"#utility.yul\":943:962   */\n          swap1\n          pop\n            /* \"#utility.yul\":602:968   */\n          swap2\n          swap1\n          pop\n          jump\t// out\n            /* \"#utility.yul\":974:1184   */\n        tag_9:\n            /* \"#utility.yul\":1061:1065   */\n          0x00\n            /* \"#utility.yul\":1099:1101   */\n          0x20\n            /* \"#utility.yul\":1088:1097   */\n          dup3\n            /* \"#utility.yul\":1084:1102   */\n          add\n            /* \"#utility.yul\":1076:1102   */\n          swap1\n          pop\n            /* \"#utility.yul\":1112:1177   */\n          tag_37\n            /* \"#utility.yul\":1174:1175   */\n          0x00\n            /* \"#utility.yul\":1163:1172   */\n          dup4\n            /* \"#utility.yul\":1159:1176   */\n          add\n            /* \"#utility.yul\":1150:1156   */\n          dup5\n            /* \"#utility.yul\":1112:1177   */\n          tag_26\n          jump\t// in\n        tag_37:\n            /* \"#utility.yul\":974:1184   */\n          swap3\n          swap2\n          pop\n          pop\n          jump\t// out\n            /* \"#utility.yul\":1190:1609   */\n        tag_15:\n            /* \"#utility.yul\":1356:1360   */\n          0x00\n            /* \"#utility.yul\":1394:1396   */\n          0x20\n            /* \"#utility.yul\":1383:1392   */\n          dup3\n            /* \"#utility.yul\":1379:1397   */\n          add\n            /* \"#utility.yul\":1371:1397   */\n          swap1\n          pop\n            /* \"#utility.yul\":1443:1452   */\n          dup2\n            /* \"#utility.yul\":1437:1441   */\n          dup2\n            /* \"#utility.yul\":1433:1453   */\n          sub\n            /* \"#utility.yul\":1429:1430   */\n          0x00\n            /* \"#utility.yul\":1418:1427   */\n          dup4\n            /* \"#utility.yul\":1414:1431   */\n          add\n            /* \"#utility.yul\":1407:1454   */\n          mstore\n            /* \"#utility.yul\":1471:1602   */\n          tag_39\n            /* \"#utility.yul\":1597:1601   */\n          dup2\n            /* \"#utility.yul\":1471:1602   */\n          tag_30\n          jump\t// in\n        tag_39:\n            /* \"#utility.yul\":1463:1602   */\n          swap1\n          pop\n            /* \"#utility.yul\":1190:1609   */\n          swap2\n          swap1\n          pop\n          jump\t// out\n            /* \"#utility.yul\":1696:1865   */\n        tag_33:\n            /* \"#utility.yul\":1780:1791   */\n          0x00\n            /* \"#utility.yul\":1814:1820   */\n          dup3\n            /* \"#utility.yul\":1809:1812   */\n          dup3\n            /* \"#utility.yul\":1802:1821   */\n          mstore\n            /* \"#utility.yul\":1854:1858   */\n          0x20\n            /* \"#utility.yul\":1849:1852   */\n          dup3\n            /* \"#utility.yul\":1845:1859   */\n          add\n            /* \"#utility.yul\":1830:1859   */\n          swap1\n          pop\n            /* \"#utility.yul\":1696:1865   */\n          swap3\n          swap2\n          pop\n          pop\n          jump\t// out\n            /* \"#utility.yul\":1871:1961   */\n        tag_29:\n            /* \"#utility.yul\":1905:1912   */\n          0x00\n            /* \"#utility.yul\":1948:1953   */\n          dup2\n            /* \"#utility.yul\":1941:1954   */\n          iszero\n            /* \"#utility.yul\":1934:1955   */\n          iszero\n            /* \"#utility.yul\":1923:1955   */\n          swap1\n          pop\n            /* \"#utility.yul\":1871:1961   */\n          swap2\n          swap1\n          pop\n          jump\t// out\n            /* \"#utility.yul\":1967:2044   */\n        tag_44:\n            /* \"#utility.yul\":2004:2011   */\n          0x00\n            /* \"#utility.yul\":2033:2038   */\n          dup2\n            /* \"#utility.yul\":2022:2038   */\n          swap1\n          pop\n            /* \"#utility.yul\":1967:2044   */\n          swap2\n          swap1\n          pop\n          jump\t// out\n            /* \"#utility.yul\":2050:2226   */\n        tag_12:\n            /* \"#utility.yul\":2082:2083   */\n          0x00\n            /* \"#utility.yul\":2099:2119   */\n          tag_47\n            /* \"#utility.yul\":2117:2118   */\n          dup3\n            /* \"#utility.yul\":2099:2119   */\n          tag_44\n          jump\t// in\n        tag_47:\n            /* \"#utility.yul\":2094:2119   */\n          swap2\n          pop\n            /* \"#utility.yul\":2133:2153   */\n          tag_48\n            /* \"#utility.yul\":2151:2152   */\n          dup4\n            /* \"#utility.yul\":2133:2153   */\n          tag_44\n          jump\t// in\n        tag_48:\n            /* \"#utility.yul\":2128:2153   */\n          swap3\n          pop\n            /* \"#utility.yul\":2172:2173   */\n          dup3\n            /* \"#utility.yul\":2162:2197   */\n          tag_49\n          jumpi\n            /* \"#utility.yul\":2177:2195   */\n          tag_50\n          tag_51\n          jump\t// in\n        tag_50:\n            /* \"#utility.yul\":2162:2197   */\n        tag_49:\n            /* \"#utility.yul\":2218:2219   */\n          dup3\n            /* \"#utility.yul\":2215:2216   */\n          dup3\n            /* \"#utility.yul\":2211:2220   */\n          mod\n            /* \"#utility.yul\":2206:2220   */\n          swap1\n          pop\n            /* \"#utility.yul\":2050:2226   */\n          swap3\n          swap2\n          pop\n          pop\n          jump\t// out\n            /* \"#utility.yul\":2232:2412   */\n        tag_51:\n            /* \"#utility.yul\":2280:2357   */\n          0x4e487b7100000000000000000000000000000000000000000000000000000000\n            /* \"#utility.yul\":2277:2278   */\n          0x00\n            /* \"#utility.yul\":2270:2358   */\n          mstore\n            /* \"#utility.yul\":2377:2381   */\n          0x12\n            /* \"#utility.yul\":2374:2375   */\n          0x04\n            /* \"#utility.yul\":2367:2382   */\n          mstore\n            /* \"#utility.yul\":2401:2405   */\n          0x24\n            /* \"#utility.yul\":2398:2399   */\n          0x00\n            /* \"#utility.yul\":2391:2406   */\n          revert\n            /* \"#utility.yul\":2541:2658   */\n        tag_24:\n            /* \"#utility.yul\":2650:2651   */\n          0x00\n            /* \"#utility.yul\":2647:2648   */\n          dup1\n            /* \"#utility.yul\":2640:2652   */\n          revert\n            /* \"#utility.yul\":2664:2828   */\n        tag_35:\n            /* \"#utility.yul\":2804:2820   */\n          0x5570732120526576657274696e67000000000000000000000000000000000000\n            /* \"#utility.yul\":2800:2801   */\n          0x00\n            /* \"#utility.yul\":2792:2798   */\n          dup3\n            /* \"#utility.yul\":2788:2802   */\n          add\n            /* \"#utility.yul\":2781:2821   */\n          mstore\n            /* \"#utility.yul\":2664:2828   */\n          pop\n          jump\t// out\n            /* \"#utility.yul\":2834:2956   */\n        tag_20:\n            /* \"#utility.yul\":2907:2931   */\n          tag_58\n            /* \"#utility.yul\":2925:2930   */\n          dup2\n            /* \"#utility.yul\":2907:2931   */\n          tag_44\n          jump\t// in\n        tag_58:\n            /* \"#utility.yul\":2900:2905   */\n          dup2\n            /* \"#utility.yul\":2897:2932   */\n          eq\n            /* \"#utility.yul\":2887:2950   */\n          tag_59\n          jumpi\n            /* \"#utility.yul\":2946:2947   */\n          0x00\n            /* \"#utility.yul\":2943:2944   */\n          dup1\n            /* \"#utility.yul\":2936:2948   */\n          revert\n            /* \"#utility.yul\":2887:2950   */\n        tag_59:\n            /* \"#utility.yul\":2834:2956   */\n          pop\n          jump\t// out\n\n        auxdata: 0xa2646970667358221220cd9f320b5c074d51d8797e5a833de1c6076410d76b65b2e442da8524236fb8ae64736f6c63430008070033\n    }\n}\n",
				"bytecode": {
					"linkReferences": {},
					"object": "608060405234801561001057600080fd5b50600260405161001f9061008a565b61002991906100a6565b604051809103906000f080158015610045573d6000803e3d6000fd5b506000806101000a81548173ffffffffffffffffffffffffffffffffffffffff021916908373ffffffffffffffffffffffffffffffffffffffff1602179055506100dd565b61041b806105e783390190565b6100a0816100cb565b82525050565b60006020820190506100bb6000830184610097565b92915050565b6000819050919050565b60006100d6826100c1565b9050919050565b6104fb806100ec6000396000f3fe608060405234801561001057600080fd5b506004361061002b5760003560e01c8063fe0d94c114610030575b600080fd5b61004a60048036038101906100459190610211565b610060565b6040516100579190610295565b60405180910390f35b60008060009054906101000a900473ffffffffffffffffffffffffffffffffffffffff1673ffffffffffffffffffffffffffffffffffffffff1663ce0b4213836040518263ffffffff1660e01b81526004016100bc91906102d2565b60206040518083038186803b1580156100d457600080fd5b505afa92505050801561010557506040513d601f19601f8201168201806040525081019061010291906101e4565b60015b61017f576101116103bc565b806308c379a0141561016e5750610126610401565b806101315750610170565b7fb761112ad379c509744de8d585702b0d2694d4ceaef85ad50d452ff06821a6a68160405161016091906102b0565b60405180910390a15061017a565b505b3d6000803e3d6000fd5b6101b4565b7ffd76336752e93f2cc77cf13a41be8b6c156731030376354d634d28a9a87b916260405160405180910390a1809150506101b5565b5b919050565b6000815190506101c981610497565b92915050565b6000813590506101de816104ae565b92915050565b6000602082840312156101fa576101f96103de565b5b6000610208848285016101ba565b91505092915050565b600060208284031215610227576102266103de565b5b6000610235848285016101cf565b91505092915050565b61024781610313565b82525050565b6000610258826102f7565b6102628185610302565b9350610272818560208601610329565b61027b816103e3565b840191505092915050565b61028f8161031f565b82525050565b60006020820190506102aa600083018461023e565b92915050565b600060208201905081810360008301526102ca818461024d565b905092915050565b60006020820190506102e76000830184610286565b92915050565b6000604051905090565b600081519050919050565b600082825260208201905092915050565b60008115159050919050565b6000819050919050565b60005b8381101561034757808201518184015260208101905061032c565b83811115610356576000848401525b50505050565b610365826103e3565b810181811067ffffffffffffffff821117156103845761038361038d565b5b80604052505050565b7f4e487b7100000000000000000000000000000000000000000000000000000000600052604160045260246000fd5b600060033d11156103db5760046000803e6103d86000516103f4565b90505b90565b600080fd5b6000601f19601f8301169050919050565b60008160e01c9050919050565b600060443d101561041157610494565b6104196102ed565b60043d036004823e80513d602482011167ffffffffffffffff82111715610441575050610494565b808201805167ffffffffffffffff81111561045f5750505050610494565b80602083010160043d03850181111561047c575050505050610494565b61048b8260200185018661035c565b82955050505050505b90565b6104a081610313565b81146104ab57600080fd5b50565b6104b78161031f565b81146104c257600080fd5b5056fea26469706673582212203a8ddabdef41f0fa72e25c62cb34b46f3639586beaedde5b5c94d351e48492e664736f6c63430008070033608060405234801561001057600080fd5b5060405161041b38038061041b833981810160405281019061003291906100a3565b6000811415610076576040517f08c379a000000000000000000000000000000000000000000000000000000000815260040161006d906100f3565b60405180910390fd5b60018114156100885761008761012e565b5b506101a2565b60008151905061009d8161018b565b92915050565b6000602082840312156100b9576100b861015d565b5b60006100c78482850161008e565b91505092915050565b60006100dd600e83610113565b91506100e882610162565b602082019050919050565b6000602082019050818103600083015261010c816100d0565b9050919050565b600082825260208201905092915050565b6000819050919050565b7f4e487b7100000000000000000000000000000000000000000000000000000000600052600160045260246000fd5b600080fd5b7f696e76616c6964206e756d626572000000000000000000000000000000000000600082015250565b61019481610124565b811461019f57600080fd5b50565b61026a806101b16000396000f3fe608060405234801561001057600080fd5b506004361061002b5760003560e01c8063ce0b421314610030575b600080fd5b61004a600480360381019061004591906100ce565b610060565b604051610057919061012d565b60405180910390f35b600080600283610070919061018f565b146100b0576040517f08c379a00000000000000000000000000000000000000000000000000000000081526004016100a790610148565b60405180910390fd5b60019050919050565b6000813590506100c88161021d565b92915050565b6000602082840312156100e4576100e36101ef565b5b60006100f2848285016100b9565b91505092915050565b61010481610179565b82525050565b6000610117600e83610168565b9150610122826101f4565b602082019050919050565b600060208201905061014260008301846100fb565b92915050565b600060208201905081810360008301526101618161010a565b9050919050565b600082825260208201905092915050565b60008115159050919050565b6000819050919050565b600061019a82610185565b91506101a583610185565b9250826101b5576101b46101c0565b5b828206905092915050565b7f4e487b7100000000000000000000000000000000000000000000000000000000600052601260045260246000fd5b600080fd5b7f5570732120526576657274696e67000000000000000000000000000000000000600082015250565b61022681610185565b811461023157600080fd5b5056fea2646970667358221220cd9f320b5c074d51d8797e5a833de1c6076410d76b65b2e442da8524236fb8ae64736f6c63430008070033",
					"opcodes": "PUSH1 0x80 PUSH1 0x40 MSTORE CALLVALUE DUP1 ISZERO PUSH2 0x10 JUMPI PUSH1 0x0 DUP1 REVERT JUMPDEST POP PUSH1 0x2 PUSH1 0x40 MLOAD PUSH2 0x1F SWAP1 PUSH2 0x8A JUMP JUMPDEST PUSH2 0x29 SWAP2 SWAP1 PUSH2 0xA6 JUMP JUMPDEST PUSH1 0x40 MLOAD DUP1 SWAP2 SUB SWAP1 PUSH1 0x0 CREATE DUP1 ISZERO DUP1 ISZERO PUSH2 0x45 JUMPI RETURNDATASIZE PUSH1 0x0 DUP1 RETURNDATACOPY RETURNDATASIZE PUSH1 0x0 REVERT JUMPDEST POP PUSH1 0x0 DUP1 PUSH2 0x100 EXP DUP2 SLOAD DUP2 PUSH20 0xFFFFFFFFFFFFFFFFFFFFFFFFFFFFFFFFFFFFFFFF MUL NOT AND SWAP1 DUP4 PUSH20 0xFFFFFFFFFFFFFFFFFFFFFFFFFFFFFFFFFFFFFFFF AND MUL OR SWAP1 SSTORE POP PUSH2 0xDD JUMP JUMPDEST PUSH2 0x41B DUP1 PUSH2 0x5E7 DUP4 CODECOPY ADD SWAP1 JUMP JUMPDEST PUSH2 0xA0 DUP2 PUSH2 0xCB JUMP JUMPDEST DUP3 MSTORE POP POP JUMP JUMPDEST PUSH1 0x0 PUSH1 0x20 DUP3 ADD SWAP1 POP PUSH2 0xBB PUSH1 0x0 DUP4 ADD DUP5 PUSH2 0x97 JUMP JUMPDEST SWAP3 SWAP2 POP POP JUMP JUMPDEST PUSH1 0x0 DUP2 SWAP1 POP SWAP2 SWAP1 POP JUMP JUMPDEST PUSH1 0x0 PUSH2 0xD6 DUP3 PUSH2 0xC1 JUMP JUMPDEST SWAP1 POP SWAP2 SWAP1 POP JUMP JUMPDEST PUSH2 0x4FB DUP1 PUSH2 0xEC PUSH1 0x0 CODECOPY PUSH1 0x0 RETURN INVALID PUSH1 0x80 PUSH1 0x40 MSTORE CALLVALUE DUP1 ISZERO PUSH2 0x10 JUMPI PUSH1 0x0 DUP1 REVERT JUMPDEST POP PUSH1 0x4 CALLDATASIZE LT PUSH2 0x2B JUMPI PUSH1 0x0 CALLDATALOAD PUSH1 0xE0 SHR DUP1 PUSH4 0xFE0D94C1 EQ PUSH2 0x30 JUMPI JUMPDEST PUSH1 0x0 DUP1 REVERT JUMPDEST PUSH2 0x4A PUSH1 0x4 DUP1 CALLDATASIZE SUB DUP2 ADD SWAP1 PUSH2 0x45 SWAP2 SWAP1 PUSH2 0x211 JUMP JUMPDEST PUSH2 0x60 JUMP JUMPDEST PUSH1 0x40 MLOAD PUSH2 0x57 SWAP2 SWAP1 PUSH2 0x295 JUMP JUMPDEST PUSH1 0x40 MLOAD DUP1 SWAP2 SUB SWAP1 RETURN JUMPDEST PUSH1 0x0 DUP1 PUSH1 0x0 SWAP1 SLOAD SWAP1 PUSH2 0x100 EXP SWAP1 DIV PUSH20 0xFFFFFFFFFFFFFFFFFFFFFFFFFFFFFFFFFFFFFFFF AND PUSH20 0xFFFFFFFFFFFFFFFFFFFFFFFFFFFFFFFFFFFFFFFF AND PUSH4 0xCE0B4213 DUP4 PUSH1 0x40 MLOAD DUP3 PUSH4 0xFFFFFFFF AND PUSH1 0xE0 SHL DUP2 MSTORE PUSH1 0x4 ADD PUSH2 0xBC SWAP2 SWAP1 PUSH2 0x2D2 JUMP JUMPDEST PUSH1 0x20 PUSH1 0x40 MLOAD DUP1 DUP4 SUB DUP2 DUP7 DUP1 EXTCODESIZE ISZERO DUP1 ISZERO PUSH2 0xD4 JUMPI PUSH1 0x0 DUP1 REVERT JUMPDEST POP GAS STATICCALL SWAP3 POP POP POP DUP1 ISZERO PUSH2 0x105 JUMPI POP PUSH1 0x40 MLOAD RETURNDATASIZE PUSH1 0x1F NOT PUSH1 0x1F DUP3 ADD AND DUP3 ADD DUP1 PUSH1 0x40 MSTORE POP DUP2 ADD SWAP1 PUSH2 0x102 SWAP2 SWAP1 PUSH2 0x1E4 JUMP JUMPDEST PUSH1 0x1 JUMPDEST PUSH2 0x17F JUMPI PUSH2 0x111 PUSH2 0x3BC JUMP JUMPDEST DUP1 PUSH4 0x8C379A0 EQ ISZERO PUSH2 0x16E JUMPI POP PUSH2 0x126 PUSH2 0x401 JUMP JUMPDEST DUP1 PUSH2 0x131 JUMPI POP PUSH2 0x170 JUMP JUMPDEST PUSH32 0xB761112AD379C509744DE8D585702B0D2694D4CEAEF85AD50D452FF06821A6A6 DUP2 PUSH1 0x40 MLOAD PUSH2 0x160 SWAP2 SWAP1 PUSH2 0x2B0 JUMP JUMPDEST PUSH1 0x40 MLOAD DUP1 SWAP2 SUB SWAP1 LOG1 POP PUSH2 0x17A JUMP JUMPDEST POP JUMPDEST RETURNDATASIZE PUSH1 0x0 DUP1 RETURNDATACOPY RETURNDATASIZE PUSH1 0x0 REVERT JUMPDEST PUSH2 0x1B4 JUMP JUMPDEST PUSH32 0xFD76336752E93F2CC77CF13A41BE8B6C156731030376354D634D28A9A87B9162 PUSH1 0x40 MLOAD PUSH1 0x40 MLOAD DUP1 SWAP2 SUB SWAP1 LOG1 DUP1 SWAP2 POP POP PUSH2 0x1B5 JUMP JUMPDEST JUMPDEST SWAP2 SWAP1 POP JUMP JUMPDEST PUSH1 0x0 DUP2 MLOAD SWAP1 POP PUSH2 0x1C9 DUP2 PUSH2 0x497 JUMP JUMPDEST SWAP3 SWAP2 POP POP JUMP JUMPDEST PUSH1 0x0 DUP2 CALLDATALOAD SWAP1 POP PUSH2 0x1DE DUP2 PUSH2 0x4AE JUMP JUMPDEST SWAP3 SWAP2 POP POP JUMP JUMPDEST PUSH1 0x0 PUSH1 0x20 DUP3 DUP5 SUB SLT ISZERO PUSH2 0x1FA JUMPI PUSH2 0x1F9 PUSH2 0x3DE JUMP JUMPDEST JUMPDEST PUSH1 0x0 PUSH2 0x208 DUP5 DUP3 DUP6 ADD PUSH2 0x1BA JUMP JUMPDEST SWAP2 POP POP SWAP3 SWAP2 POP POP JUMP JUMPDEST PUSH1 0x0 PUSH1 0x20 DUP3 DUP5 SUB SLT ISZERO PUSH2 0x227 JUMPI PUSH2 0x226 PUSH2 0x3DE JUMP JUMPDEST JUMPDEST PUSH1 0x0 PUSH2 0x235 DUP5 DUP3 DUP6 ADD PUSH2 0x1CF JUMP JUMPDEST SWAP2 POP POP SWAP3 SWAP2 POP POP JUMP JUMPDEST PUSH2 0x247 DUP2 PUSH2 0x313 JUMP JUMPDEST DUP3 MSTORE POP POP JUMP JUMPDEST PUSH1 0x0 PUSH2 0x258 DUP3 PUSH2 0x2F7 JUMP JUMPDEST PUSH2 0x262 DUP2 DUP6 PUSH2 0x302 JUMP JUMPDEST SWAP4 POP PUSH2 0x272 DUP2 DUP6 PUSH1 0x20 DUP7 ADD PUSH2 0x329 JUMP JUMPDEST PUSH2 0x27B DUP2 PUSH2 0x3E3 JUMP JUMPDEST DUP5 ADD SWAP2 POP POP SWAP3 SWAP2 POP POP JUMP JUMPDEST PUSH2 0x28F DUP2 PUSH2 0x31F JUMP JUMPDEST DUP3 MSTORE POP POP JUMP JUMPDEST PUSH1 0x0 PUSH1 0x20 DUP3 ADD SWAP1 POP PUSH2 0x2AA PUSH1 0x0 DUP4 ADD DUP5 PUSH2 0x23E JUMP JUMPDEST SWAP3 SWAP2 POP POP JUMP JUMPDEST PUSH1 0x0 PUSH1 0x20 DUP3 ADD SWAP1 POP DUP2 DUP2 SUB PUSH1 0x0 DUP4 ADD MSTORE PUSH2 0x2CA DUP2 DUP5 PUSH2 0x24D JUMP JUMPDEST SWAP1 POP SWAP3 SWAP2 POP POP JUMP JUMPDEST PUSH1 0x0 PUSH1 0x20 DUP3 ADD SWAP1 POP PUSH2 0x2E7 PUSH1 0x0 DUP4 ADD DUP5 PUSH2 0x286 JUMP JUMPDEST SWAP3 SWAP2 POP POP JUMP JUMPDEST PUSH1 0x0 PUSH1 0x40 MLOAD SWAP1 POP SWAP1 JUMP JUMPDEST PUSH1 0x0 DUP2 MLOAD SWAP1 POP SWAP2 SWAP1 POP JUMP JUMPDEST PUSH1 0x0 DUP3 DUP3 MSTORE PUSH1 0x20 DUP3 ADD SWAP1 POP SWAP3 SWAP2 POP POP JUMP JUMPDEST PUSH1 0x0 DUP2 ISZERO ISZERO SWAP1 POP SWAP2 SWAP1 POP JUMP JUMPDEST PUSH1 0x0 DUP2 SWAP1 POP SWAP2 SWAP1 POP JUMP JUMPDEST PUSH1 0x0 JUMPDEST DUP4 DUP2 LT ISZERO PUSH2 0x347 JUMPI DUP1 DUP3 ADD MLOAD DUP2 DUP5 ADD MSTORE PUSH1 0x20 DUP2 ADD SWAP1 POP PUSH2 0x32C JUMP JUMPDEST DUP4 DUP2 GT ISZERO PUSH2 0x356 JUMPI PUSH1 0x0 DUP5 DUP5 ADD MSTORE JUMPDEST POP POP POP POP JUMP JUMPDEST PUSH2 0x365 DUP3 PUSH2 0x3E3 JUMP JUMPDEST DUP2 ADD DUP2 DUP2 LT PUSH8 0xFFFFFFFFFFFFFFFF DUP3 GT OR ISZERO PUSH2 0x384 JUMPI PUSH2 0x383 PUSH2 0x38D JUMP JUMPDEST JUMPDEST DUP1 PUSH1 0x40 MSTORE POP POP POP JUMP JUMPDEST PUSH32 0x4E487B7100000000000000000000000000000000000000000000000000000000 PUSH1 0x0 MSTORE PUSH1 0x41 PUSH1 0x4 MSTORE PUSH1 0x24 PUSH1 0x0 REVERT JUMPDEST PUSH1 0x0 PUSH1 0x3 RETURNDATASIZE GT ISZERO PUSH2 0x3DB JUMPI PUSH1 0x4 PUSH1 0x0 DUP1 RETURNDATACOPY PUSH2 0x3D8 PUSH1 0x0 MLOAD PUSH2 0x3F4 JUMP JUMPDEST SWAP1 POP JUMPDEST SWAP1 JUMP JUMPDEST PUSH1 0x0 DUP1 REVERT JUMPDEST PUSH1 0x0 PUSH1 0x1F NOT PUSH1 0x1F DUP4 ADD AND SWAP1 POP SWAP2 SWAP1 POP JUMP JUMPDEST PUSH1 0x0 DUP2 PUSH1 0xE0 SHR SWAP1 POP SWAP2 SWAP1 POP JUMP JUMPDEST PUSH1 0x0 PUSH1 0x44 RETURNDATASIZE LT ISZERO PUSH2 0x411 JUMPI PUSH2 0x494 JUMP JUMPDEST PUSH2 0x419 PUSH2 0x2ED JUMP JUMPDEST PUSH1 0x4 RETURNDATASIZE SUB PUSH1 0x4 DUP3 RETURNDATACOPY DUP1 MLOAD RETURNDATASIZE PUSH1 0x24 DUP3 ADD GT PUSH8 0xFFFFFFFFFFFFFFFF DUP3 GT OR ISZERO PUSH2 0x441 JUMPI POP POP PUSH2 0x494 JUMP JUMPDEST DUP1 DUP3 ADD DUP1 MLOAD PUSH8 0xFFFFFFFFFFFFFFFF DUP2 GT ISZERO PUSH2 0x45F JUMPI POP POP POP POP PUSH2 0x494 JUMP JUMPDEST DUP1 PUSH1 0x20 DUP4 ADD ADD PUSH1 0x4 RETURNDATASIZE SUB DUP6 ADD DUP2 GT ISZERO PUSH2 0x47C JUMPI POP POP POP POP POP PUSH2 0x494 JUMP JUMPDEST PUSH2 0x48B DUP3 PUSH1 0x20 ADD DUP6 ADD DUP7 PUSH2 0x35C JUMP JUMPDEST DUP3 SWAP6 POP POP POP POP POP POP JUMPDEST SWAP1 JUMP JUMPDEST PUSH2 0x4A0 DUP2 PUSH2 0x313 JUMP JUMPDEST DUP2 EQ PUSH2 0x4AB JUMPI PUSH1 0x0 DUP1 REVERT JUMPDEST POP JUMP JUMPDEST PUSH2 0x4B7 DUP2 PUSH2 0x31F JUMP JUMPDEST DUP2 EQ PUSH2 0x4C2 JUMPI PUSH1 0x0 DUP1 REVERT JUMPDEST POP JUMP INVALID LOG2 PUSH5 0x6970667358 0x22 SLT KECCAK256 GASPRICE DUP14 0xDA 0xBD 0xEF COINBASE CREATE STATICCALL PUSH19 0xE25C62CB34B46F3639586BEAEDDE5B5C94D351 0xE4 DUP5 SWAP3 0xE6 PUSH5 0x736F6C6343 STOP ADDMOD SMOD STOP CALLER PUSH1 0x80 PUSH1 0x40 MSTORE CALLVALUE DUP1 ISZERO PUSH2 0x10 JUMPI PUSH1 0x0 DUP1 REVERT JUMPDEST POP PUSH1 0x40 MLOAD PUSH2 0x41B CODESIZE SUB DUP1 PUSH2 0x41B DUP4 CODECOPY DUP2 DUP2 ADD PUSH1 0x40 MSTORE DUP2 ADD SWAP1 PUSH2 0x32 SWAP2 SWAP1 PUSH2 0xA3 JUMP JUMPDEST PUSH1 0x0 DUP2 EQ ISZERO PUSH2 0x76 JUMPI PUSH1 0x40 MLOAD PUSH32 0x8C379A000000000000000000000000000000000000000000000000000000000 DUP2 MSTORE PUSH1 0x4 ADD PUSH2 0x6D SWAP1 PUSH2 0xF3 JUMP JUMPDEST PUSH1 0x40 MLOAD DUP1 SWAP2 SUB SWAP1 REVERT JUMPDEST PUSH1 0x1 DUP2 EQ ISZERO PUSH2 0x88 JUMPI PUSH2 0x87 PUSH2 0x12E JUMP JUMPDEST JUMPDEST POP PUSH2 0x1A2 JUMP JUMPDEST PUSH1 0x0 DUP2 MLOAD SWAP1 POP PUSH2 0x9D DUP2 PUSH2 0x18B JUMP JUMPDEST SWAP3 SWAP2 POP POP JUMP JUMPDEST PUSH1 0x0 PUSH1 0x20 DUP3 DUP5 SUB SLT ISZERO PUSH2 0xB9 JUMPI PUSH2 0xB8 PUSH2 0x15D JUMP JUMPDEST JUMPDEST PUSH1 0x0 PUSH2 0xC7 DUP5 DUP3 DUP6 ADD PUSH2 0x8E JUMP JUMPDEST SWAP2 POP POP SWAP3 SWAP2 POP POP JUMP JUMPDEST PUSH1 0x0 PUSH2 0xDD PUSH1 0xE DUP4 PUSH2 0x113 JUMP JUMPDEST SWAP2 POP PUSH2 0xE8 DUP3 PUSH2 0x162 JUMP JUMPDEST PUSH1 0x20 DUP3 ADD SWAP1 POP SWAP2 SWAP1 POP JUMP JUMPDEST PUSH1 0x0 PUSH1 0x20 DUP3 ADD SWAP1 POP DUP2 DUP2 SUB PUSH1 0x0 DUP4 ADD MSTORE PUSH2 0x10C DUP2 PUSH2 0xD0 JUMP JUMPDEST SWAP1 POP SWAP2 SWAP1 POP JUMP JUMPDEST PUSH1 0x0 DUP3 DUP3 MSTORE PUSH1 0x20 DUP3 ADD SWAP1 POP SWAP3 SWAP2 POP POP JUMP JUMPDEST PUSH1 0x0 DUP2 SWAP1 POP SWAP2 SWAP1 POP JUMP JUMPDEST PUSH32 0x4E487B7100000000000000000000000000000000000000000000000000000000 PUSH1 0x0 MSTORE PUSH1 0x1 PUSH1 0x4 MSTORE PUSH1 0x24 PUSH1 0x0 REVERT JUMPDEST PUSH1 0x0 DUP1 REVERT JUMPDEST PUSH32 0x696E76616C6964206E756D626572000000000000000000000000000000000000 PUSH1 0x0 DUP3 ADD MSTORE POP JUMP JUMPDEST PUSH2 0x194 DUP2 PUSH2 0x124 JUMP JUMPDEST DUP2 EQ PUSH2 0x19F JUMPI PUSH1 0x0 DUP1 REVERT JUMPDEST POP JUMP JUMPDEST PUSH2 0x26A DUP1 PUSH2 0x1B1 PUSH1 0x0 CODECOPY PUSH1 0x0 RETURN INVALID PUSH1 0x80 PUSH1 0x40 MSTORE CALLVALUE DUP1 ISZERO PUSH2 0x10 JUMPI PUSH1 0x0 DUP1 REVERT JUMPDEST POP PUSH1 0x4 CALLDATASIZE LT PUSH2 0x2B JUMPI PUSH1 0x0 CALLDATALOAD PUSH1 0xE0 SHR DUP1 PUSH4 0xCE0B4213 EQ PUSH2 0x30 JUMPI JUMPDEST PUSH1 0x0 DUP1 REVERT JUMPDEST PUSH2 0x4A PUSH1 0x4 DUP1 CALLDATASIZE SUB DUP2 ADD SWAP1 PUSH2 0x45 SWAP2 SWAP1 PUSH2 0xCE JUMP JUMPDEST PUSH2 0x60 JUMP JUMPDEST PUSH1 0x40 MLOAD PUSH2 0x57 SWAP2 SWAP1 PUSH2 0x12D JUMP JUMPDEST PUSH1 0x40 MLOAD DUP1 SWAP2 SUB SWAP1 RETURN JUMPDEST PUSH1 0x0 DUP1 PUSH1 0x2 DUP4 PUSH2 0x70 SWAP2 SWAP1 PUSH2 0x18F JUMP JUMPDEST EQ PUSH2 0xB0 JUMPI PUSH1 0x40 MLOAD PUSH32 0x8C379A000000000000000000000000000000000000000000000000000000000 DUP2 MSTORE PUSH1 0x4 ADD PUSH2 0xA7 SWAP1 PUSH2 0x148 JUMP JUMPDEST PUSH1 0x40 MLOAD DUP1 SWAP2 SUB SWAP1 REVERT JUMPDEST PUSH1 0x1 SWAP1 POP SWAP2 SWAP1 POP JUMP JUMPDEST PUSH1 0x0 DUP2 CALLDATALOAD SWAP1 POP PUSH2 0xC8 DUP2 PUSH2 0x21D JUMP JUMPDEST SWAP3 SWAP2 POP POP JUMP JUMPDEST PUSH1 0x0 PUSH1 0x20 DUP3 DUP5 SUB SLT ISZERO PUSH2 0xE4 JUMPI PUSH2 0xE3 PUSH2 0x1EF JUMP JUMPDEST JUMPDEST PUSH1 0x0 PUSH2 0xF2 DUP5 DUP3 DUP6 ADD PUSH2 0xB9 JUMP JUMPDEST SWAP2 POP POP SWAP3 SWAP2 POP POP JUMP JUMPDEST PUSH2 0x104 DUP2 PUSH2 0x179 JUMP JUMPDEST DUP3 MSTORE POP POP JUMP JUMPDEST PUSH1 0x0 PUSH2 0x117 PUSH1 0xE DUP4 PUSH2 0x168 JUMP JUMPDEST SWAP2 POP PUSH2 0x122 DUP3 PUSH2 0x1F4 JUMP JUMPDEST PUSH1 0x20 DUP3 ADD SWAP1 POP SWAP2 SWAP1 POP JUMP JUMPDEST PUSH1 0x0 PUSH1 0x20 DUP3 ADD SWAP1 POP PUSH2 0x142 PUSH1 0x0 DUP4 ADD DUP5 PUSH2 0xFB JUMP JUMPDEST SWAP3 SWAP2 POP POP JUMP JUMPDEST PUSH1 0x0 PUSH1 0x20 DUP3 ADD SWAP1 POP DUP2 DUP2 SUB PUSH1 0x0 DUP4 ADD MSTORE PUSH2 0x161 DUP2 PUSH2 0x10A JUMP JUMPDEST SWAP1 POP SWAP2 SWAP1 POP JUMP JUMPDEST PUSH1 0x0 DUP3 DUP3 MSTORE PUSH1 0x20 DUP3 ADD SWAP1 POP SWAP3 SWAP2 POP POP JUMP JUMPDEST PUSH1 0x0 DUP2 ISZERO ISZERO SWAP1 POP SWAP2 SWAP1 POP JUMP JUMPDEST PUSH1 0x0 DUP2 SWAP1 POP SWAP2 SWAP1 POP JUMP JUMPDEST PUSH1 0x0 PUSH2 0x19A DUP3 PUSH2 0x185 JUMP JUMPDEST SWAP2 POP PUSH2 0x1A5 DUP4 PUSH2 0x185 JUMP JUMPDEST SWAP3 POP DUP3 PUSH2 0x1B5 JUMPI PUSH2 0x1B4 PUSH2 0x1C0 JUMP JUMPDEST JUMPDEST DUP3 DUP3 MOD SWAP1 POP SWAP3 SWAP2 POP POP JUMP JUMPDEST PUSH32 0x4E487B7100000000000000000000000000000000000000000000000000000000 PUSH1 0x0 MSTORE PUSH1 0x12 PUSH1 0x4 MSTORE PUSH1 0x24 PUSH1 0x0 REVERT JUMPDEST PUSH1 0x0 DUP1 REVERT JUMPDEST PUSH32 0x5570732120526576657274696E67000000000000000000000000000000000000 PUSH1 0x0 DUP3 ADD MSTORE POP JUMP JUMPDEST PUSH2 0x226 DUP2 PUSH2 0x185 JUMP JUMPDEST DUP2 EQ PUSH2 0x231 JUMPI PUSH1 0x0 DUP1 REVERT JUMPDEST POP JUMP INVALID LOG2 PUSH5 0x6970667358 0x22 SLT KECCAK256 0xCD SWAP16 ORIGIN SIGNEXTEND 0x5C SMOD 0x4D MLOAD 0xD8 PUSH26 0x7E5A833DE1C6076410D76B65B2E442DA8524236FB8AE64736F6C PUSH4 0x43000807 STOP CALLER "
				},
				"gasEstimates": {
					"creation": {
						"codeDepositCost": "255000",
						"executionCost": "infinite",
						"totalCost": "infinite"
					},
					"external": {
						"execute(uint256)": "infinite"
					}
				},
				"methodIdentifiers": {
					"execute(uint256)": "fe0d94c1"
				}
			},
			"storageLayout": {
				"storage": [
					{
						"astId": 55,
						"contract": "try-catch.sol:trycatch",
						"label": "even",
						"offset": 0,
						"slot": "0",
						"type": "t_contract(OnlyEven)42"
					}
				],
				"types": {
					"t_contract(OnlyEven)42": {
						"encoding": "inplace",
						"label": "contract OnlyEven",
						"numberOfBytes": "20"
					}
				}
			},
			"userdoc": {
				"kind": "user",
				"methods": {},
				"version": 1
			}
		}
	}
}