{
	"transferFactory\\transferActive.sol": {
		"TranActive": {
			"abi": [
				{
					"anonymous": false,
					"inputs": [
						{
							"indexed": true,
							"internalType": "address",
							"name": "previousOwner",
							"type": "address"
						},
						{
							"indexed": true,
							"internalType": "address",
							"name": "newOwner",
							"type": "address"
						}
					],
					"name": "OwnershipTransferred",
					"type": "event"
				},
				{
					"stateMutability": "payable",
					"type": "fallback"
				},
				{
					"inputs": [],
					"name": "balanceOf",
					"outputs": [
						{
							"internalType": "uint256",
							"name": "",
							"type": "uint256"
						}
					],
					"stateMutability": "view",
					"type": "function"
				},
				{
					"inputs": [],
					"name": "owner",
					"outputs": [
						{
							"internalType": "address",
							"name": "",
							"type": "address"
						}
					],
					"stateMutability": "view",
					"type": "function"
				},
				{
					"inputs": [],
					"name": "renounceOwnership",
					"outputs": [],
					"stateMutability": "nonpayable",
					"type": "function"
				},
				{
					"inputs": [
						{
							"internalType": "address",
							"name": "to",
							"type": "address"
						}
					],
					"name": "transfer",
					"outputs": [
						{
							"internalType": "bool",
							"name": "",
							"type": "bool"
						}
					],
					"stateMutability": "nonpayable",
					"type": "function"
				},
				{
					"inputs": [
						{
							"internalType": "address",
							"name": "newOwner",
							"type": "address"
						}
					],
					"name": "transferOwnership",
					"outputs": [],
					"stateMutability": "nonpayable",
					"type": "function"
				},
				{
					"stateMutability": "payable",
					"type": "receive"
				}
			],
			"devdoc": {
				"kind": "dev",
				"methods": {
					"owner()": {
						"details": "Returns the address of the current owner."
					},
					"renounceOwnership()": {
						"details": "Leaves the contract without owner. It will not be possible to call `onlyOwner` functions anymore. Can only be called by the current owner. NOTE: Renouncing ownership will leave the contract without an owner, thereby removing any functionality that is only available to the owner."
					},
					"transferOwnership(address)": {
						"details": "Transfers ownership of the contract to a new account (`newOwner`). Can only be called by the current owner."
					}
				},
				"version": 1
			},
			"evm": {
				"assembly": "    /* \"transferFactory\\\\transferActive.sol\":2849:3574  contract TranActive is Context,Ownable{\r... */\n  mstore(0x40, 0x80)\n  callvalue\n  dup1\n  iszero\n  tag_1\n  jumpi\n  0x00\n  dup1\n  revert\ntag_1:\n  pop\n    /* \"transferFactory\\\\transferActive.sol\":1105:1137  _transferOwnership(_msgSender()) */\n  tag_4\n    /* \"transferFactory\\\\transferActive.sol\":1124:1136  _msgSender() */\n  tag_5\n    /* \"transferFactory\\\\transferActive.sol\":1124:1134  _msgSender */\n  shl(0x20, tag_6)\n    /* \"transferFactory\\\\transferActive.sol\":1124:1136  _msgSender() */\n  0x20\n  shr\n  jump\t// in\ntag_5:\n    /* \"transferFactory\\\\transferActive.sol\":1105:1123  _transferOwnership */\n  shl(0x20, tag_7)\n    /* \"transferFactory\\\\transferActive.sol\":1105:1137  _transferOwnership(_msgSender()) */\n  0x20\n  shr\n  jump\t// in\ntag_4:\n    /* \"transferFactory\\\\transferActive.sol\":2849:3574  contract TranActive is Context,Ownable{\r... */\n  jump(tag_8)\n    /* \"transferFactory\\\\transferActive.sol\":600:698  function _msgSender() internal view virtual returns (address) {\r... */\ntag_6:\n    /* \"transferFactory\\\\transferActive.sol\":653:660  address */\n  0x00\n    /* \"transferFactory\\\\transferActive.sol\":680:690  msg.sender */\n  caller\n    /* \"transferFactory\\\\transferActive.sol\":673:690  return msg.sender */\n  swap1\n  pop\n    /* \"transferFactory\\\\transferActive.sol\":600:698  function _msgSender() internal view virtual returns (address) {\r... */\n  swap1\n  jump\t// out\n    /* \"transferFactory\\\\transferActive.sol\":2651:2842  function _transferOwnership(address newOwner) internal virtual {\r... */\ntag_7:\n    /* \"transferFactory\\\\transferActive.sol\":2725:2741  address oldOwner */\n  0x00\n    /* \"transferFactory\\\\transferActive.sol\":2744:2750  _owner */\n  dup1\n  0x00\n  swap1\n  sload\n  swap1\n  0x0100\n  exp\n  swap1\n  div\n  0xffffffffffffffffffffffffffffffffffffffff\n  and\n    /* \"transferFactory\\\\transferActive.sol\":2725:2750  address oldOwner = _owner */\n  swap1\n  pop\n    /* \"transferFactory\\\\transferActive.sol\":2770:2778  newOwner */\n  dup2\n    /* \"transferFactory\\\\transferActive.sol\":2761:2767  _owner */\n  0x00\n  dup1\n    /* \"transferFactory\\\\transferActive.sol\":2761:2778  _owner = newOwner */\n  0x0100\n  exp\n  dup2\n  sload\n  dup2\n  0xffffffffffffffffffffffffffffffffffffffff\n  mul\n  not\n  and\n  swap1\n  dup4\n  0xffffffffffffffffffffffffffffffffffffffff\n  and\n  mul\n  or\n  swap1\n  sstore\n  pop\n    /* \"transferFactory\\\\transferActive.sol\":2825:2833  newOwner */\n  dup2\n    /* \"transferFactory\\\\transferActive.sol\":2794:2834  OwnershipTransferred(oldOwner, newOwner) */\n  0xffffffffffffffffffffffffffffffffffffffff\n  and\n    /* \"transferFactory\\\\transferActive.sol\":2815:2823  oldOwner */\n  dup2\n    /* \"transferFactory\\\\transferActive.sol\":2794:2834  OwnershipTransferred(oldOwner, newOwner) */\n  0xffffffffffffffffffffffffffffffffffffffff\n  and\n  0x8be0079c531659141344cd1fd0a4f28419497f9722a3daafe3b4186f6b6457e0\n  mload(0x40)\n  mload(0x40)\n  dup1\n  swap2\n  sub\n  swap1\n  log3\n    /* \"transferFactory\\\\transferActive.sol\":2714:2842  {\r... */\n  pop\n    /* \"transferFactory\\\\transferActive.sol\":2651:2842  function _transferOwnership(address newOwner) internal virtual {\r... */\n  pop\n  jump\t// out\n    /* \"transferFactory\\\\transferActive.sol\":2849:3574  contract TranActive is Context,Ownable{\r... */\ntag_8:\n  dataSize(sub_0)\n  dup1\n  dataOffset(sub_0)\n  0x00\n  codecopy\n  0x00\n  return\nstop\n\nsub_0: assembly {\n        /* \"transferFactory\\\\transferActive.sol\":2849:3574  contract TranActive is Context,Ownable{\r... */\n      mstore(0x40, 0x80)\n      jumpi(tag_1, lt(calldatasize, 0x04))\n      shr(0xe0, calldataload(0x00))\n      dup1\n      0x1a695230\n      eq\n      tag_3\n      jumpi\n      dup1\n      0x715018a6\n      eq\n      tag_4\n      jumpi\n      dup1\n      0x722713f7\n      eq\n      tag_5\n      jumpi\n      dup1\n      0x8da5cb5b\n      eq\n      tag_6\n      jumpi\n      dup1\n      0xf2fde38b\n      eq\n      tag_7\n      jumpi\n      jump(tag_2)\n    tag_1:\n      jumpi(tag_2, calldatasize)\n      stop\n    tag_2:\n      stop\n        /* \"transferFactory\\\\transferActive.sol\":3081:3199  function transfer(address to) external onlyOwner returns (bool) {\r... */\n    tag_3:\n      callvalue\n      dup1\n      iszero\n      tag_12\n      jumpi\n      0x00\n      dup1\n      revert\n    tag_12:\n      pop\n      tag_13\n      0x04\n      dup1\n      calldatasize\n      sub\n      dup2\n      add\n      swap1\n      tag_14\n      swap2\n      swap1\n      tag_15\n      jump\t// in\n    tag_14:\n      tag_16\n      jump\t// in\n    tag_13:\n      mload(0x40)\n      tag_17\n      swap2\n      swap1\n      tag_18\n      jump\t// in\n    tag_17:\n      mload(0x40)\n      dup1\n      swap2\n      sub\n      swap1\n      return\n        /* \"transferFactory\\\\transferActive.sol\":2032:2135  function renounceOwnership() public virtual onlyOwner {\r... */\n    tag_4:\n      callvalue\n      dup1\n      iszero\n      tag_19\n      jumpi\n      0x00\n      dup1\n      revert\n    tag_19:\n      pop\n      tag_20\n      tag_21\n      jump\t// in\n    tag_20:\n      stop\n        /* \"transferFactory\\\\transferActive.sol\":2974:3073  function balanceOf()external view returns (uint256) {\r... */\n    tag_5:\n      callvalue\n      dup1\n      iszero\n      tag_22\n      jumpi\n      0x00\n      dup1\n      revert\n    tag_22:\n      pop\n      tag_23\n      tag_24\n      jump\t// in\n    tag_23:\n      mload(0x40)\n      tag_25\n      swap2\n      swap1\n      tag_26\n      jump\t// in\n    tag_25:\n      mload(0x40)\n      dup1\n      swap2\n      sub\n      swap1\n      return\n        /* \"transferFactory\\\\transferActive.sol\":1384:1471  function owner() public view virtual returns (address) {\r... */\n    tag_6:\n      callvalue\n      dup1\n      iszero\n      tag_27\n      jumpi\n      0x00\n      dup1\n      revert\n    tag_27:\n      pop\n      tag_28\n      tag_29\n      jump\t// in\n    tag_28:\n      mload(0x40)\n      tag_30\n      swap2\n      swap1\n      tag_31\n      jump\t// in\n    tag_30:\n      mload(0x40)\n      dup1\n      swap2\n      sub\n      swap1\n      return\n        /* \"transferFactory\\\\transferActive.sol\":2290:2491  function transferOwnership(address newOwner) public virtual onlyOwner {\r... */\n    tag_7:\n      callvalue\n      dup1\n      iszero\n      tag_32\n      jumpi\n      0x00\n      dup1\n      revert\n    tag_32:\n      pop\n      tag_33\n      0x04\n      dup1\n      calldatasize\n      sub\n      dup2\n      add\n      swap1\n      tag_34\n      swap2\n      swap1\n      tag_15\n      jump\t// in\n    tag_34:\n      tag_35\n      jump\t// in\n    tag_33:\n      stop\n        /* \"transferFactory\\\\transferActive.sol\":3081:3199  function transfer(address to) external onlyOwner returns (bool) {\r... */\n    tag_16:\n        /* \"transferFactory\\\\transferActive.sol\":3139:3143  bool */\n      0x00\n        /* \"transferFactory\\\\transferActive.sol\":1270:1283  _checkOwner() */\n      tag_37\n        /* \"transferFactory\\\\transferActive.sol\":1270:1281  _checkOwner */\n      tag_38\n        /* \"transferFactory\\\\transferActive.sol\":1270:1283  _checkOwner() */\n      jump\t// in\n    tag_37:\n        /* \"transferFactory\\\\transferActive.sol\":3156:3169  _transfer(to) */\n      tag_40\n        /* \"transferFactory\\\\transferActive.sol\":3166:3168  to */\n      dup3\n        /* \"transferFactory\\\\transferActive.sol\":3156:3165  _transfer */\n      tag_41\n        /* \"transferFactory\\\\transferActive.sol\":3156:3169  _transfer(to) */\n      jump\t// in\n    tag_40:\n      pop\n        /* \"transferFactory\\\\transferActive.sol\":3187:3191  true */\n      0x01\n        /* \"transferFactory\\\\transferActive.sol\":3180:3191  return true */\n      swap1\n      pop\n        /* \"transferFactory\\\\transferActive.sol\":3081:3199  function transfer(address to) external onlyOwner returns (bool) {\r... */\n      swap2\n      swap1\n      pop\n      jump\t// out\n        /* \"transferFactory\\\\transferActive.sol\":2032:2135  function renounceOwnership() public virtual onlyOwner {\r... */\n    tag_21:\n        /* \"transferFactory\\\\transferActive.sol\":1270:1283  _checkOwner() */\n      tag_43\n        /* \"transferFactory\\\\transferActive.sol\":1270:1281  _checkOwner */\n      tag_38\n        /* \"transferFactory\\\\transferActive.sol\":1270:1283  _checkOwner() */\n      jump\t// in\n    tag_43:\n        /* \"transferFactory\\\\transferActive.sol\":2097:2127  _transferOwnership(address(0)) */\n      tag_45\n        /* \"transferFactory\\\\transferActive.sol\":2124:2125  0 */\n      0x00\n        /* \"transferFactory\\\\transferActive.sol\":2097:2115  _transferOwnership */\n      tag_46\n        /* \"transferFactory\\\\transferActive.sol\":2097:2127  _transferOwnership(address(0)) */\n      jump\t// in\n    tag_45:\n        /* \"transferFactory\\\\transferActive.sol\":2032:2135  function renounceOwnership() public virtual onlyOwner {\r... */\n      jump\t// out\n        /* \"transferFactory\\\\transferActive.sol\":2974:3073  function balanceOf()external view returns (uint256) {\r... */\n    tag_24:\n        /* \"transferFactory\\\\transferActive.sol\":3017:3024  uint256 */\n      0x00\n        /* \"transferFactory\\\\transferActive.sol\":3044:3065  address(this).balance */\n      selfbalance\n        /* \"transferFactory\\\\transferActive.sol\":3037:3065  return address(this).balance */\n      swap1\n      pop\n        /* \"transferFactory\\\\transferActive.sol\":2974:3073  function balanceOf()external view returns (uint256) {\r... */\n      swap1\n      jump\t// out\n        /* \"transferFactory\\\\transferActive.sol\":1384:1471  function owner() public view virtual returns (address) {\r... */\n    tag_29:\n        /* \"transferFactory\\\\transferActive.sol\":1430:1437  address */\n      0x00\n        /* \"transferFactory\\\\transferActive.sol\":1457:1463  _owner */\n      dup1\n      0x00\n      swap1\n      sload\n      swap1\n      0x0100\n      exp\n      swap1\n      div\n      0xffffffffffffffffffffffffffffffffffffffff\n      and\n        /* \"transferFactory\\\\transferActive.sol\":1450:1463  return _owner */\n      swap1\n      pop\n        /* \"transferFactory\\\\transferActive.sol\":1384:1471  function owner() public view virtual returns (address) {\r... */\n      swap1\n      jump\t// out\n        /* \"transferFactory\\\\transferActive.sol\":2290:2491  function transferOwnership(address newOwner) public virtual onlyOwner {\r... */\n    tag_35:\n        /* \"transferFactory\\\\transferActive.sol\":1270:1283  _checkOwner() */\n      tag_50\n        /* \"transferFactory\\\\transferActive.sol\":1270:1281  _checkOwner */\n      tag_38\n        /* \"transferFactory\\\\transferActive.sol\":1270:1283  _checkOwner() */\n      jump\t// in\n    tag_50:\n        /* \"transferFactory\\\\transferActive.sol\":2399:2400  0 */\n      0x00\n        /* \"transferFactory\\\\transferActive.sol\":2379:2401  newOwner != address(0) */\n      0xffffffffffffffffffffffffffffffffffffffff\n      and\n        /* \"transferFactory\\\\transferActive.sol\":2379:2387  newOwner */\n      dup2\n        /* \"transferFactory\\\\transferActive.sol\":2379:2401  newOwner != address(0) */\n      0xffffffffffffffffffffffffffffffffffffffff\n      and\n      eq\n      iszero\n        /* \"transferFactory\\\\transferActive.sol\":2371:2444  require(newOwner != address(0), \"Ownable: new owner is the zero address\") */\n      tag_52\n      jumpi\n      mload(0x40)\n      0x08c379a000000000000000000000000000000000000000000000000000000000\n      dup2\n      mstore\n      0x04\n      add\n      tag_53\n      swap1\n      tag_54\n      jump\t// in\n    tag_53:\n      mload(0x40)\n      dup1\n      swap2\n      sub\n      swap1\n      revert\n    tag_52:\n        /* \"transferFactory\\\\transferActive.sol\":2455:2483  _transferOwnership(newOwner) */\n      tag_55\n        /* \"transferFactory\\\\transferActive.sol\":2474:2482  newOwner */\n      dup2\n        /* \"transferFactory\\\\transferActive.sol\":2455:2473  _transferOwnership */\n      tag_46\n        /* \"transferFactory\\\\transferActive.sol\":2455:2483  _transferOwnership(newOwner) */\n      jump\t// in\n    tag_55:\n        /* \"transferFactory\\\\transferActive.sol\":2290:2491  function transferOwnership(address newOwner) public virtual onlyOwner {\r... */\n      pop\n      jump\t// out\n        /* \"transferFactory\\\\transferActive.sol\":1549:1681  function _checkOwner() internal view virtual {\r... */\n    tag_38:\n        /* \"transferFactory\\\\transferActive.sol\":1624:1636  _msgSender() */\n      tag_57\n        /* \"transferFactory\\\\transferActive.sol\":1624:1634  _msgSender */\n      tag_58\n        /* \"transferFactory\\\\transferActive.sol\":1624:1636  _msgSender() */\n      jump\t// in\n    tag_57:\n        /* \"transferFactory\\\\transferActive.sol\":1613:1636  owner() == _msgSender() */\n      0xffffffffffffffffffffffffffffffffffffffff\n      and\n        /* \"transferFactory\\\\transferActive.sol\":1613:1620  owner() */\n      tag_59\n        /* \"transferFactory\\\\transferActive.sol\":1613:1618  owner */\n      tag_29\n        /* \"transferFactory\\\\transferActive.sol\":1613:1620  owner() */\n      jump\t// in\n    tag_59:\n        /* \"transferFactory\\\\transferActive.sol\":1613:1636  owner() == _msgSender() */\n      0xffffffffffffffffffffffffffffffffffffffff\n      and\n      eq\n        /* \"transferFactory\\\\transferActive.sol\":1605:1673  require(owner() == _msgSender(), \"Ownable: caller is not the owner\") */\n      tag_60\n      jumpi\n      mload(0x40)\n      0x08c379a000000000000000000000000000000000000000000000000000000000\n      dup2\n      mstore\n      0x04\n      add\n      tag_61\n      swap1\n      tag_62\n      jump\t// in\n    tag_61:\n      mload(0x40)\n      dup1\n      swap2\n      sub\n      swap1\n      revert\n    tag_60:\n        /* \"transferFactory\\\\transferActive.sol\":1549:1681  function _checkOwner() internal view virtual {\r... */\n      jump\t// out\n        /* \"transferFactory\\\\transferActive.sol\":3207:3496  function _transfer(address to) internal onlyOwner returns (bool){\r... */\n    tag_41:\n        /* \"transferFactory\\\\transferActive.sol\":3266:3270  bool */\n      0x00\n        /* \"transferFactory\\\\transferActive.sol\":1270:1283  _checkOwner() */\n      tag_64\n        /* \"transferFactory\\\\transferActive.sol\":1270:1281  _checkOwner */\n      tag_38\n        /* \"transferFactory\\\\transferActive.sol\":1270:1283  _checkOwner() */\n      jump\t// in\n    tag_64:\n        /* \"transferFactory\\\\transferActive.sol\":3304:3305  0 */\n      0x00\n        /* \"transferFactory\\\\transferActive.sol\":3290:3306  to != address(0) */\n      0xffffffffffffffffffffffffffffffffffffffff\n      and\n        /* \"transferFactory\\\\transferActive.sol\":3290:3292  to */\n      dup3\n        /* \"transferFactory\\\\transferActive.sol\":3290:3306  to != address(0) */\n      0xffffffffffffffffffffffffffffffffffffffff\n      and\n      eq\n      iszero\n        /* \"transferFactory\\\\transferActive.sol\":3282:3332  require(to != address(0),\"transfer address not 0\") */\n      tag_66\n      jumpi\n      mload(0x40)\n      0x08c379a000000000000000000000000000000000000000000000000000000000\n      dup2\n      mstore\n      0x04\n      add\n      tag_67\n      swap1\n      tag_68\n      jump\t// in\n    tag_67:\n      mload(0x40)\n      dup1\n      swap2\n      sub\n      swap1\n      revert\n    tag_66:\n        /* \"transferFactory\\\\transferActive.sol\":3343:3358  uint256  amount */\n      0x00\n        /* \"transferFactory\\\\transferActive.sol\":3361:3382  address(this).balance */\n      selfbalance\n        /* \"transferFactory\\\\transferActive.sol\":3343:3382  uint256  amount = address(this).balance */\n      swap1\n      pop\n        /* \"transferFactory\\\\transferActive.sol\":3394:3410  bool callSuccess */\n      0x00\n        /* \"transferFactory\\\\transferActive.sol\":3424:3434  msg.sender */\n      caller\n        /* \"transferFactory\\\\transferActive.sol\":3416:3440  payable(msg.sender).call */\n      0xffffffffffffffffffffffffffffffffffffffff\n      and\n        /* \"transferFactory\\\\transferActive.sol\":3447:3453  amount */\n      dup3\n        /* \"transferFactory\\\\transferActive.sol\":3416:3459  payable(msg.sender).call{value:amount }(\"\") */\n      mload(0x40)\n      tag_69\n      swap1\n      tag_70\n      jump\t// in\n    tag_69:\n      0x00\n      mload(0x40)\n      dup1\n      dup4\n      sub\n      dup2\n      dup6\n      dup8\n      gas\n      call\n      swap3\n      pop\n      pop\n      pop\n      returndatasize\n      dup1\n      0x00\n      dup2\n      eq\n      tag_73\n      jumpi\n      mload(0x40)\n      swap2\n      pop\n      and(add(returndatasize, 0x3f), not(0x1f))\n      dup3\n      add\n      0x40\n      mstore\n      returndatasize\n      dup3\n      mstore\n      returndatasize\n      0x00\n      0x20\n      dup5\n      add\n      returndatacopy\n      jump(tag_72)\n    tag_73:\n      0x60\n      swap2\n      pop\n    tag_72:\n      pop\n        /* \"transferFactory\\\\transferActive.sol\":3393:3459  (bool callSuccess, ) = payable(msg.sender).call{value:amount }(\"\") */\n      pop\n      swap1\n      pop\n        /* \"transferFactory\\\\transferActive.sol\":3477:3488  callSuccess */\n      dup1\n        /* \"transferFactory\\\\transferActive.sol\":3470:3488  return callSuccess */\n      swap3\n      pop\n      pop\n      pop\n        /* \"transferFactory\\\\transferActive.sol\":3207:3496  function _transfer(address to) internal onlyOwner returns (bool){\r... */\n      swap2\n      swap1\n      pop\n      jump\t// out\n        /* \"transferFactory\\\\transferActive.sol\":2651:2842  function _transferOwnership(address newOwner) internal virtual {\r... */\n    tag_46:\n        /* \"transferFactory\\\\transferActive.sol\":2725:2741  address oldOwner */\n      0x00\n        /* \"transferFactory\\\\transferActive.sol\":2744:2750  _owner */\n      dup1\n      0x00\n      swap1\n      sload\n      swap1\n      0x0100\n      exp\n      swap1\n      div\n      0xffffffffffffffffffffffffffffffffffffffff\n      and\n        /* \"transferFactory\\\\transferActive.sol\":2725:2750  address oldOwner = _owner */\n      swap1\n      pop\n        /* \"transferFactory\\\\transferActive.sol\":2770:2778  newOwner */\n      dup2\n        /* \"transferFactory\\\\transferActive.sol\":2761:2767  _owner */\n      0x00\n      dup1\n        /* \"transferFactory\\\\transferActive.sol\":2761:2778  _owner = newOwner */\n      0x0100\n      exp\n      dup2\n      sload\n      dup2\n      0xffffffffffffffffffffffffffffffffffffffff\n      mul\n      not\n      and\n      swap1\n      dup4\n      0xffffffffffffffffffffffffffffffffffffffff\n      and\n      mul\n      or\n      swap1\n      sstore\n      pop\n        /* \"transferFactory\\\\transferActive.sol\":2825:2833  newOwner */\n      dup2\n        /* \"transferFactory\\\\transferActive.sol\":2794:2834  OwnershipTransferred(oldOwner, newOwner) */\n      0xffffffffffffffffffffffffffffffffffffffff\n      and\n        /* \"transferFactory\\\\transferActive.sol\":2815:2823  oldOwner */\n      dup2\n        /* \"transferFactory\\\\transferActive.sol\":2794:2834  OwnershipTransferred(oldOwner, newOwner) */\n      0xffffffffffffffffffffffffffffffffffffffff\n      and\n      0x8be0079c531659141344cd1fd0a4f28419497f9722a3daafe3b4186f6b6457e0\n      mload(0x40)\n      mload(0x40)\n      dup1\n      swap2\n      sub\n      swap1\n      log3\n        /* \"transferFactory\\\\transferActive.sol\":2714:2842  {\r... */\n      pop\n        /* \"transferFactory\\\\transferActive.sol\":2651:2842  function _transferOwnership(address newOwner) internal virtual {\r... */\n      pop\n      jump\t// out\n        /* \"transferFactory\\\\transferActive.sol\":600:698  function _msgSender() internal view virtual returns (address) {\r... */\n    tag_58:\n        /* \"transferFactory\\\\transferActive.sol\":653:660  address */\n      0x00\n        /* \"transferFactory\\\\transferActive.sol\":680:690  msg.sender */\n      caller\n        /* \"transferFactory\\\\transferActive.sol\":673:690  return msg.sender */\n      swap1\n      pop\n        /* \"transferFactory\\\\transferActive.sol\":600:698  function _msgSender() internal view virtual returns (address) {\r... */\n      swap1\n      jump\t// out\n        /* \"#utility.yul\":7:146   */\n    tag_77:\n        /* \"#utility.yul\":53:58   */\n      0x00\n        /* \"#utility.yul\":91:97   */\n      dup2\n        /* \"#utility.yul\":78:98   */\n      calldataload\n        /* \"#utility.yul\":69:98   */\n      swap1\n      pop\n        /* \"#utility.yul\":107:140   */\n      tag_79\n        /* \"#utility.yul\":134:139   */\n      dup2\n        /* \"#utility.yul\":107:140   */\n      tag_80\n      jump\t// in\n    tag_79:\n        /* \"#utility.yul\":7:146   */\n      swap3\n      swap2\n      pop\n      pop\n      jump\t// out\n        /* \"#utility.yul\":152:481   */\n    tag_15:\n        /* \"#utility.yul\":211:217   */\n      0x00\n        /* \"#utility.yul\":260:262   */\n      0x20\n        /* \"#utility.yul\":248:257   */\n      dup3\n        /* \"#utility.yul\":239:246   */\n      dup5\n        /* \"#utility.yul\":235:258   */\n      sub\n        /* \"#utility.yul\":231:263   */\n      slt\n        /* \"#utility.yul\":228:347   */\n      iszero\n      tag_82\n      jumpi\n        /* \"#utility.yul\":266:345   */\n      tag_83\n      tag_84\n      jump\t// in\n    tag_83:\n        /* \"#utility.yul\":228:347   */\n    tag_82:\n        /* \"#utility.yul\":386:387   */\n      0x00\n        /* \"#utility.yul\":411:464   */\n      tag_85\n        /* \"#utility.yul\":456:463   */\n      dup5\n        /* \"#utility.yul\":447:453   */\n      dup3\n        /* \"#utility.yul\":436:445   */\n      dup6\n        /* \"#utility.yul\":432:454   */\n      add\n        /* \"#utility.yul\":411:464   */\n      tag_77\n      jump\t// in\n    tag_85:\n        /* \"#utility.yul\":401:464   */\n      swap2\n      pop\n        /* \"#utility.yul\":357:474   */\n      pop\n        /* \"#utility.yul\":152:481   */\n      swap3\n      swap2\n      pop\n      pop\n      jump\t// out\n        /* \"#utility.yul\":487:605   */\n    tag_86:\n        /* \"#utility.yul\":574:598   */\n      tag_88\n        /* \"#utility.yul\":592:597   */\n      dup2\n        /* \"#utility.yul\":574:598   */\n      tag_89\n      jump\t// in\n    tag_88:\n        /* \"#utility.yul\":569:572   */\n      dup3\n        /* \"#utility.yul\":562:599   */\n      mstore\n        /* \"#utility.yul\":487:605   */\n      pop\n      pop\n      jump\t// out\n        /* \"#utility.yul\":611:720   */\n    tag_90:\n        /* \"#utility.yul\":692:713   */\n      tag_92\n        /* \"#utility.yul\":707:712   */\n      dup2\n        /* \"#utility.yul\":692:713   */\n      tag_93\n      jump\t// in\n    tag_92:\n        /* \"#utility.yul\":687:690   */\n      dup3\n        /* \"#utility.yul\":680:714   */\n      mstore\n        /* \"#utility.yul\":611:720   */\n      pop\n      pop\n      jump\t// out\n        /* \"#utility.yul\":726:1092   */\n    tag_94:\n        /* \"#utility.yul\":868:871   */\n      0x00\n        /* \"#utility.yul\":889:956   */\n      tag_96\n        /* \"#utility.yul\":953:955   */\n      0x26\n        /* \"#utility.yul\":948:951   */\n      dup4\n        /* \"#utility.yul\":889:956   */\n      tag_97\n      jump\t// in\n    tag_96:\n        /* \"#utility.yul\":882:956   */\n      swap2\n      pop\n        /* \"#utility.yul\":965:1058   */\n      tag_98\n        /* \"#utility.yul\":1054:1057   */\n      dup3\n        /* \"#utility.yul\":965:1058   */\n      tag_99\n      jump\t// in\n    tag_98:\n        /* \"#utility.yul\":1083:1085   */\n      0x40\n        /* \"#utility.yul\":1078:1081   */\n      dup3\n        /* \"#utility.yul\":1074:1086   */\n      add\n        /* \"#utility.yul\":1067:1086   */\n      swap1\n      pop\n        /* \"#utility.yul\":726:1092   */\n      swap2\n      swap1\n      pop\n      jump\t// out\n        /* \"#utility.yul\":1098:1464   */\n    tag_100:\n        /* \"#utility.yul\":1240:1243   */\n      0x00\n        /* \"#utility.yul\":1261:1328   */\n      tag_102\n        /* \"#utility.yul\":1325:1327   */\n      0x16\n        /* \"#utility.yul\":1320:1323   */\n      dup4\n        /* \"#utility.yul\":1261:1328   */\n      tag_97\n      jump\t// in\n    tag_102:\n        /* \"#utility.yul\":1254:1328   */\n      swap2\n      pop\n        /* \"#utility.yul\":1337:1430   */\n      tag_103\n        /* \"#utility.yul\":1426:1429   */\n      dup3\n        /* \"#utility.yul\":1337:1430   */\n      tag_104\n      jump\t// in\n    tag_103:\n        /* \"#utility.yul\":1455:1457   */\n      0x20\n        /* \"#utility.yul\":1450:1453   */\n      dup3\n        /* \"#utility.yul\":1446:1458   */\n      add\n        /* \"#utility.yul\":1439:1458   */\n      swap1\n      pop\n        /* \"#utility.yul\":1098:1464   */\n      swap2\n      swap1\n      pop\n      jump\t// out\n        /* \"#utility.yul\":1470:1836   */\n    tag_105:\n        /* \"#utility.yul\":1612:1615   */\n      0x00\n        /* \"#utility.yul\":1633:1700   */\n      tag_107\n        /* \"#utility.yul\":1697:1699   */\n      0x20\n        /* \"#utility.yul\":1692:1695   */\n      dup4\n        /* \"#utility.yul\":1633:1700   */\n      tag_97\n      jump\t// in\n    tag_107:\n        /* \"#utility.yul\":1626:1700   */\n      swap2\n      pop\n        /* \"#utility.yul\":1709:1802   */\n      tag_108\n        /* \"#utility.yul\":1798:1801   */\n      dup3\n        /* \"#utility.yul\":1709:1802   */\n      tag_109\n      jump\t// in\n    tag_108:\n        /* \"#utility.yul\":1827:1829   */\n      0x20\n        /* \"#utility.yul\":1822:1825   */\n      dup3\n        /* \"#utility.yul\":1818:1830   */\n      add\n        /* \"#utility.yul\":1811:1830   */\n      swap1\n      pop\n        /* \"#utility.yul\":1470:1836   */\n      swap2\n      swap1\n      pop\n      jump\t// out\n        /* \"#utility.yul\":1842:2240   */\n    tag_110:\n        /* \"#utility.yul\":2001:2004   */\n      0x00\n        /* \"#utility.yul\":2022:2105   */\n      tag_112\n        /* \"#utility.yul\":2103:2104   */\n      0x00\n        /* \"#utility.yul\":2098:2101   */\n      dup4\n        /* \"#utility.yul\":2022:2105   */\n      tag_113\n      jump\t// in\n    tag_112:\n        /* \"#utility.yul\":2015:2105   */\n      swap2\n      pop\n        /* \"#utility.yul\":2114:2207   */\n      tag_114\n        /* \"#utility.yul\":2203:2206   */\n      dup3\n        /* \"#utility.yul\":2114:2207   */\n      tag_115\n      jump\t// in\n    tag_114:\n        /* \"#utility.yul\":2232:2233   */\n      0x00\n        /* \"#utility.yul\":2227:2230   */\n      dup3\n        /* \"#utility.yul\":2223:2234   */\n      add\n        /* \"#utility.yul\":2216:2234   */\n      swap1\n      pop\n        /* \"#utility.yul\":1842:2240   */\n      swap2\n      swap1\n      pop\n      jump\t// out\n        /* \"#utility.yul\":2246:2364   */\n    tag_116:\n        /* \"#utility.yul\":2333:2357   */\n      tag_118\n        /* \"#utility.yul\":2351:2356   */\n      dup2\n        /* \"#utility.yul\":2333:2357   */\n      tag_119\n      jump\t// in\n    tag_118:\n        /* \"#utility.yul\":2328:2331   */\n      dup3\n        /* \"#utility.yul\":2321:2358   */\n      mstore\n        /* \"#utility.yul\":2246:2364   */\n      pop\n      pop\n      jump\t// out\n        /* \"#utility.yul\":2370:2749   */\n    tag_70:\n        /* \"#utility.yul\":2554:2557   */\n      0x00\n        /* \"#utility.yul\":2576:2723   */\n      tag_121\n        /* \"#utility.yul\":2719:2722   */\n      dup3\n        /* \"#utility.yul\":2576:2723   */\n      tag_110\n      jump\t// in\n    tag_121:\n        /* \"#utility.yul\":2569:2723   */\n      swap2\n      pop\n        /* \"#utility.yul\":2740:2743   */\n      dup2\n        /* \"#utility.yul\":2733:2743   */\n      swap1\n      pop\n        /* \"#utility.yul\":2370:2749   */\n      swap2\n      swap1\n      pop\n      jump\t// out\n        /* \"#utility.yul\":2755:2977   */\n    tag_31:\n        /* \"#utility.yul\":2848:2852   */\n      0x00\n        /* \"#utility.yul\":2886:2888   */\n      0x20\n        /* \"#utility.yul\":2875:2884   */\n      dup3\n        /* \"#utility.yul\":2871:2889   */\n      add\n        /* \"#utility.yul\":2863:2889   */\n      swap1\n      pop\n        /* \"#utility.yul\":2899:2970   */\n      tag_123\n        /* \"#utility.yul\":2967:2968   */\n      0x00\n        /* \"#utility.yul\":2956:2965   */\n      dup4\n        /* \"#utility.yul\":2952:2969   */\n      add\n        /* \"#utility.yul\":2943:2949   */\n      dup5\n        /* \"#utility.yul\":2899:2970   */\n      tag_86\n      jump\t// in\n    tag_123:\n        /* \"#utility.yul\":2755:2977   */\n      swap3\n      swap2\n      pop\n      pop\n      jump\t// out\n        /* \"#utility.yul\":2983:3193   */\n    tag_18:\n        /* \"#utility.yul\":3070:3074   */\n      0x00\n        /* \"#utility.yul\":3108:3110   */\n      0x20\n        /* \"#utility.yul\":3097:3106   */\n      dup3\n        /* \"#utility.yul\":3093:3111   */\n      add\n        /* \"#utility.yul\":3085:3111   */\n      swap1\n      pop\n        /* \"#utility.yul\":3121:3186   */\n      tag_125\n        /* \"#utility.yul\":3183:3184   */\n      0x00\n        /* \"#utility.yul\":3172:3181   */\n      dup4\n        /* \"#utility.yul\":3168:3185   */\n      add\n        /* \"#utility.yul\":3159:3165   */\n      dup5\n        /* \"#utility.yul\":3121:3186   */\n      tag_90\n      jump\t// in\n    tag_125:\n        /* \"#utility.yul\":2983:3193   */\n      swap3\n      swap2\n      pop\n      pop\n      jump\t// out\n        /* \"#utility.yul\":3199:3618   */\n    tag_54:\n        /* \"#utility.yul\":3365:3369   */\n      0x00\n        /* \"#utility.yul\":3403:3405   */\n      0x20\n        /* \"#utility.yul\":3392:3401   */\n      dup3\n        /* \"#utility.yul\":3388:3406   */\n      add\n        /* \"#utility.yul\":3380:3406   */\n      swap1\n      pop\n        /* \"#utility.yul\":3452:3461   */\n      dup2\n        /* \"#utility.yul\":3446:3450   */\n      dup2\n        /* \"#utility.yul\":3442:3462   */\n      sub\n        /* \"#utility.yul\":3438:3439   */\n      0x00\n        /* \"#utility.yul\":3427:3436   */\n      dup4\n        /* \"#utility.yul\":3423:3440   */\n      add\n        /* \"#utility.yul\":3416:3463   */\n      mstore\n        /* \"#utility.yul\":3480:3611   */\n      tag_127\n        /* \"#utility.yul\":3606:3610   */\n      dup2\n        /* \"#utility.yul\":3480:3611   */\n      tag_94\n      jump\t// in\n    tag_127:\n        /* \"#utility.yul\":3472:3611   */\n      swap1\n      pop\n        /* \"#utility.yul\":3199:3618   */\n      swap2\n      swap1\n      pop\n      jump\t// out\n        /* \"#utility.yul\":3624:4043   */\n    tag_68:\n        /* \"#utility.yul\":3790:3794   */\n      0x00\n        /* \"#utility.yul\":3828:3830   */\n      0x20\n        /* \"#utility.yul\":3817:3826   */\n      dup3\n        /* \"#utility.yul\":3813:3831   */\n      add\n        /* \"#utility.yul\":3805:3831   */\n      swap1\n      pop\n        /* \"#utility.yul\":3877:3886   */\n      dup2\n        /* \"#utility.yul\":3871:3875   */\n      dup2\n        /* \"#utility.yul\":3867:3887   */\n      sub\n        /* \"#utility.yul\":3863:3864   */\n      0x00\n        /* \"#utility.yul\":3852:3861   */\n      dup4\n        /* \"#utility.yul\":3848:3865   */\n      add\n        /* \"#utility.yul\":3841:3888   */\n      mstore\n        /* \"#utility.yul\":3905:4036   */\n      tag_129\n        /* \"#utility.yul\":4031:4035   */\n      dup2\n        /* \"#utility.yul\":3905:4036   */\n      tag_100\n      jump\t// in\n    tag_129:\n        /* \"#utility.yul\":3897:4036   */\n      swap1\n      pop\n        /* \"#utility.yul\":3624:4043   */\n      swap2\n      swap1\n      pop\n      jump\t// out\n        /* \"#utility.yul\":4049:4468   */\n    tag_62:\n        /* \"#utility.yul\":4215:4219   */\n      0x00\n        /* \"#utility.yul\":4253:4255   */\n      0x20\n        /* \"#utility.yul\":4242:4251   */\n      dup3\n        /* \"#utility.yul\":4238:4256   */\n      add\n        /* \"#utility.yul\":4230:4256   */\n      swap1\n      pop\n        /* \"#utility.yul\":4302:4311   */\n      dup2\n        /* \"#utility.yul\":4296:4300   */\n      dup2\n        /* \"#utility.yul\":4292:4312   */\n      sub\n        /* \"#utility.yul\":4288:4289   */\n      0x00\n        /* \"#utility.yul\":4277:4286   */\n      dup4\n        /* \"#utility.yul\":4273:4290   */\n      add\n        /* \"#utility.yul\":4266:4313   */\n      mstore\n        /* \"#utility.yul\":4330:4461   */\n      tag_131\n        /* \"#utility.yul\":4456:4460   */\n      dup2\n        /* \"#utility.yul\":4330:4461   */\n      tag_105\n      jump\t// in\n    tag_131:\n        /* \"#utility.yul\":4322:4461   */\n      swap1\n      pop\n        /* \"#utility.yul\":4049:4468   */\n      swap2\n      swap1\n      pop\n      jump\t// out\n        /* \"#utility.yul\":4474:4696   */\n    tag_26:\n        /* \"#utility.yul\":4567:4571   */\n      0x00\n        /* \"#utility.yul\":4605:4607   */\n      0x20\n        /* \"#utility.yul\":4594:4603   */\n      dup3\n        /* \"#utility.yul\":4590:4608   */\n      add\n        /* \"#utility.yul\":4582:4608   */\n      swap1\n      pop\n        /* \"#utility.yul\":4618:4689   */\n      tag_133\n        /* \"#utility.yul\":4686:4687   */\n      0x00\n        /* \"#utility.yul\":4675:4684   */\n      dup4\n        /* \"#utility.yul\":4671:4688   */\n      add\n        /* \"#utility.yul\":4662:4668   */\n      dup5\n        /* \"#utility.yul\":4618:4689   */\n      tag_116\n      jump\t// in\n    tag_133:\n        /* \"#utility.yul\":4474:4696   */\n      swap3\n      swap2\n      pop\n      pop\n      jump\t// out\n        /* \"#utility.yul\":4783:4930   */\n    tag_113:\n        /* \"#utility.yul\":4884:4895   */\n      0x00\n        /* \"#utility.yul\":4921:4924   */\n      dup2\n        /* \"#utility.yul\":4906:4924   */\n      swap1\n      pop\n        /* \"#utility.yul\":4783:4930   */\n      swap3\n      swap2\n      pop\n      pop\n      jump\t// out\n        /* \"#utility.yul\":4936:5105   */\n    tag_97:\n        /* \"#utility.yul\":5020:5031   */\n      0x00\n        /* \"#utility.yul\":5054:5060   */\n      dup3\n        /* \"#utility.yul\":5049:5052   */\n      dup3\n        /* \"#utility.yul\":5042:5061   */\n      mstore\n        /* \"#utility.yul\":5094:5098   */\n      0x20\n        /* \"#utility.yul\":5089:5092   */\n      dup3\n        /* \"#utility.yul\":5085:5099   */\n      add\n        /* \"#utility.yul\":5070:5099   */\n      swap1\n      pop\n        /* \"#utility.yul\":4936:5105   */\n      swap3\n      swap2\n      pop\n      pop\n      jump\t// out\n        /* \"#utility.yul\":5111:5207   */\n    tag_89:\n        /* \"#utility.yul\":5148:5155   */\n      0x00\n        /* \"#utility.yul\":5177:5201   */\n      tag_139\n        /* \"#utility.yul\":5195:5200   */\n      dup3\n        /* \"#utility.yul\":5177:5201   */\n      tag_140\n      jump\t// in\n    tag_139:\n        /* \"#utility.yul\":5166:5201   */\n      swap1\n      pop\n        /* \"#utility.yul\":5111:5207   */\n      swap2\n      swap1\n      pop\n      jump\t// out\n        /* \"#utility.yul\":5213:5303   */\n    tag_93:\n        /* \"#utility.yul\":5247:5254   */\n      0x00\n        /* \"#utility.yul\":5290:5295   */\n      dup2\n        /* \"#utility.yul\":5283:5296   */\n      iszero\n        /* \"#utility.yul\":5276:5297   */\n      iszero\n        /* \"#utility.yul\":5265:5297   */\n      swap1\n      pop\n        /* \"#utility.yul\":5213:5303   */\n      swap2\n      swap1\n      pop\n      jump\t// out\n        /* \"#utility.yul\":5309:5435   */\n    tag_140:\n        /* \"#utility.yul\":5346:5353   */\n      0x00\n        /* \"#utility.yul\":5386:5428   */\n      0xffffffffffffffffffffffffffffffffffffffff\n        /* \"#utility.yul\":5379:5384   */\n      dup3\n        /* \"#utility.yul\":5375:5429   */\n      and\n        /* \"#utility.yul\":5364:5429   */\n      swap1\n      pop\n        /* \"#utility.yul\":5309:5435   */\n      swap2\n      swap1\n      pop\n      jump\t// out\n        /* \"#utility.yul\":5441:5518   */\n    tag_119:\n        /* \"#utility.yul\":5478:5485   */\n      0x00\n        /* \"#utility.yul\":5507:5512   */\n      dup2\n        /* \"#utility.yul\":5496:5512   */\n      swap1\n      pop\n        /* \"#utility.yul\":5441:5518   */\n      swap2\n      swap1\n      pop\n      jump\t// out\n        /* \"#utility.yul\":5647:5764   */\n    tag_84:\n        /* \"#utility.yul\":5756:5757   */\n      0x00\n        /* \"#utility.yul\":5753:5754   */\n      dup1\n        /* \"#utility.yul\":5746:5758   */\n      revert\n        /* \"#utility.yul\":5770:5995   */\n    tag_99:\n        /* \"#utility.yul\":5910:5944   */\n      0x4f776e61626c653a206e6577206f776e657220697320746865207a65726f2061\n        /* \"#utility.yul\":5906:5907   */\n      0x00\n        /* \"#utility.yul\":5898:5904   */\n      dup3\n        /* \"#utility.yul\":5894:5908   */\n      add\n        /* \"#utility.yul\":5887:5945   */\n      mstore\n        /* \"#utility.yul\":5979:5987   */\n      0x6464726573730000000000000000000000000000000000000000000000000000\n        /* \"#utility.yul\":5974:5976   */\n      0x20\n        /* \"#utility.yul\":5966:5972   */\n      dup3\n        /* \"#utility.yul\":5962:5977   */\n      add\n        /* \"#utility.yul\":5955:5988   */\n      mstore\n        /* \"#utility.yul\":5770:5995   */\n      pop\n      jump\t// out\n        /* \"#utility.yul\":6001:6173   */\n    tag_104:\n        /* \"#utility.yul\":6141:6165   */\n      0x7472616e736665722061646472657373206e6f74203000000000000000000000\n        /* \"#utility.yul\":6137:6138   */\n      0x00\n        /* \"#utility.yul\":6129:6135   */\n      dup3\n        /* \"#utility.yul\":6125:6139   */\n      add\n        /* \"#utility.yul\":6118:6166   */\n      mstore\n        /* \"#utility.yul\":6001:6173   */\n      pop\n      jump\t// out\n        /* \"#utility.yul\":6179:6361   */\n    tag_109:\n        /* \"#utility.yul\":6319:6353   */\n      0x4f776e61626c653a2063616c6c6572206973206e6f7420746865206f776e6572\n        /* \"#utility.yul\":6315:6316   */\n      0x00\n        /* \"#utility.yul\":6307:6313   */\n      dup3\n        /* \"#utility.yul\":6303:6317   */\n      add\n        /* \"#utility.yul\":6296:6354   */\n      mstore\n        /* \"#utility.yul\":6179:6361   */\n      pop\n      jump\t// out\n        /* \"#utility.yul\":6367:6481   */\n    tag_115:\n      pop\n      jump\t// out\n        /* \"#utility.yul\":6487:6609   */\n    tag_80:\n        /* \"#utility.yul\":6560:6584   */\n      tag_152\n        /* \"#utility.yul\":6578:6583   */\n      dup2\n        /* \"#utility.yul\":6560:6584   */\n      tag_89\n      jump\t// in\n    tag_152:\n        /* \"#utility.yul\":6553:6558   */\n      dup2\n        /* \"#utility.yul\":6550:6585   */\n      eq\n        /* \"#utility.yul\":6540:6603   */\n      tag_153\n      jumpi\n        /* \"#utility.yul\":6599:6600   */\n      0x00\n        /* \"#utility.yul\":6596:6597   */\n      dup1\n        /* \"#utility.yul\":6589:6601   */\n      revert\n        /* \"#utility.yul\":6540:6603   */\n    tag_153:\n        /* \"#utility.yul\":6487:6609   */\n      pop\n      jump\t// out\n\n    auxdata: 0xa264697066735822122097503d4c2a80454d1c0d2130484ae5a472a2131a609541641891c5c6cd964f4c64736f6c63430008070033\n}\n",
				"bytecode": {
					"linkReferences": {},
					"object": "608060405234801561001057600080fd5b5061002d61002261003260201b60201c565b61003a60201b60201c565b6100fe565b600033905090565b60008060009054906101000a900473ffffffffffffffffffffffffffffffffffffffff169050816000806101000a81548173ffffffffffffffffffffffffffffffffffffffff021916908373ffffffffffffffffffffffffffffffffffffffff1602179055508173ffffffffffffffffffffffffffffffffffffffff168173ffffffffffffffffffffffffffffffffffffffff167f8be0079c531659141344cd1fd0a4f28419497f9722a3daafe3b4186f6b6457e060405160405180910390a35050565b61076a8061010d6000396000f3fe60806040526004361061004e5760003560e01c80631a69523014610057578063715018a614610094578063722713f7146100ab5780638da5cb5b146100d6578063f2fde38b1461010157610055565b3661005557005b005b34801561006357600080fd5b5061007e60048036038101906100799190610464565b61012a565b60405161008b919061057a565b60405180910390f35b3480156100a057600080fd5b506100a9610147565b005b3480156100b757600080fd5b506100c061015b565b6040516100cd91906105f5565b60405180910390f35b3480156100e257600080fd5b506100eb610163565b6040516100f8919061055f565b60405180910390f35b34801561010d57600080fd5b5061012860048036038101906101239190610464565b61018c565b005b6000610134610210565b61013d8261028e565b5060019050919050565b61014f610210565b6101596000610383565b565b600047905090565b60008060009054906101000a900473ffffffffffffffffffffffffffffffffffffffff16905090565b610194610210565b600073ffffffffffffffffffffffffffffffffffffffff168173ffffffffffffffffffffffffffffffffffffffff161415610204576040517f08c379a00000000000000000000000000000000000000000000000000000000081526004016101fb90610595565b60405180910390fd5b61020d81610383565b50565b610218610447565b73ffffffffffffffffffffffffffffffffffffffff16610236610163565b73ffffffffffffffffffffffffffffffffffffffff161461028c576040517f08c379a0000000000000000000000000000000000000000000000000000000008152600401610283906105d5565b60405180910390fd5b565b6000610298610210565b600073ffffffffffffffffffffffffffffffffffffffff168273ffffffffffffffffffffffffffffffffffffffff161415610308576040517f08c379a00000000000000000000000000000000000000000000000000000000081526004016102ff906105b5565b60405180910390fd5b600047905060003373ffffffffffffffffffffffffffffffffffffffff16826040516103339061054a565b60006040518083038185875af1925050503d8060008114610370576040519150601f19603f3d011682016040523d82523d6000602084013e610375565b606091505b505090508092505050919050565b60008060009054906101000a900473ffffffffffffffffffffffffffffffffffffffff169050816000806101000a81548173ffffffffffffffffffffffffffffffffffffffff021916908373ffffffffffffffffffffffffffffffffffffffff1602179055508173ffffffffffffffffffffffffffffffffffffffff168173ffffffffffffffffffffffffffffffffffffffff167f8be0079c531659141344cd1fd0a4f28419497f9722a3daafe3b4186f6b6457e060405160405180910390a35050565b600033905090565b60008135905061045e8161071d565b92915050565b60006020828403121561047a57610479610674565b5b60006104888482850161044f565b91505092915050565b61049a8161062c565b82525050565b6104a98161063e565b82525050565b60006104bc60268361061b565b91506104c782610679565b604082019050919050565b60006104df60168361061b565b91506104ea826106c8565b602082019050919050565b600061050260208361061b565b915061050d826106f1565b602082019050919050565b6000610525600083610610565b91506105308261071a565b600082019050919050565b6105448161066a565b82525050565b600061055582610518565b9150819050919050565b60006020820190506105746000830184610491565b92915050565b600060208201905061058f60008301846104a0565b92915050565b600060208201905081810360008301526105ae816104af565b9050919050565b600060208201905081810360008301526105ce816104d2565b9050919050565b600060208201905081810360008301526105ee816104f5565b9050919050565b600060208201905061060a600083018461053b565b92915050565b600081905092915050565b600082825260208201905092915050565b60006106378261064a565b9050919050565b60008115159050919050565b600073ffffffffffffffffffffffffffffffffffffffff82169050919050565b6000819050919050565b600080fd5b7f4f776e61626c653a206e6577206f776e657220697320746865207a65726f206160008201527f6464726573730000000000000000000000000000000000000000000000000000602082015250565b7f7472616e736665722061646472657373206e6f74203000000000000000000000600082015250565b7f4f776e61626c653a2063616c6c6572206973206e6f7420746865206f776e6572600082015250565b50565b6107268161062c565b811461073157600080fd5b5056fea264697066735822122097503d4c2a80454d1c0d2130484ae5a472a2131a609541641891c5c6cd964f4c64736f6c63430008070033",
					"opcodes": "PUSH1 0x80 PUSH1 0x40 MSTORE CALLVALUE DUP1 ISZERO PUSH2 0x10 JUMPI PUSH1 0x0 DUP1 REVERT JUMPDEST POP PUSH2 0x2D PUSH2 0x22 PUSH2 0x32 PUSH1 0x20 SHL PUSH1 0x20 SHR JUMP JUMPDEST PUSH2 0x3A PUSH1 0x20 SHL PUSH1 0x20 SHR JUMP JUMPDEST PUSH2 0xFE JUMP JUMPDEST PUSH1 0x0 CALLER SWAP1 POP SWAP1 JUMP JUMPDEST PUSH1 0x0 DUP1 PUSH1 0x0 SWAP1 SLOAD SWAP1 PUSH2 0x100 EXP SWAP1 DIV PUSH20 0xFFFFFFFFFFFFFFFFFFFFFFFFFFFFFFFFFFFFFFFF AND SWAP1 POP DUP2 PUSH1 0x0 DUP1 PUSH2 0x100 EXP DUP2 SLOAD DUP2 PUSH20 0xFFFFFFFFFFFFFFFFFFFFFFFFFFFFFFFFFFFFFFFF MUL NOT AND SWAP1 DUP4 PUSH20 0xFFFFFFFFFFFFFFFFFFFFFFFFFFFFFFFFFFFFFFFF AND MUL OR SWAP1 SSTORE POP DUP2 PUSH20 0xFFFFFFFFFFFFFFFFFFFFFFFFFFFFFFFFFFFFFFFF AND DUP2 PUSH20 0xFFFFFFFFFFFFFFFFFFFFFFFFFFFFFFFFFFFFFFFF AND PUSH32 0x8BE0079C531659141344CD1FD0A4F28419497F9722A3DAAFE3B4186F6B6457E0 PUSH1 0x40 MLOAD PUSH1 0x40 MLOAD DUP1 SWAP2 SUB SWAP1 LOG3 POP POP JUMP JUMPDEST PUSH2 0x76A DUP1 PUSH2 0x10D PUSH1 0x0 CODECOPY PUSH1 0x0 RETURN INVALID PUSH1 0x80 PUSH1 0x40 MSTORE PUSH1 0x4 CALLDATASIZE LT PUSH2 0x4E JUMPI PUSH1 0x0 CALLDATALOAD PUSH1 0xE0 SHR DUP1 PUSH4 0x1A695230 EQ PUSH2 0x57 JUMPI DUP1 PUSH4 0x715018A6 EQ PUSH2 0x94 JUMPI DUP1 PUSH4 0x722713F7 EQ PUSH2 0xAB JUMPI DUP1 PUSH4 0x8DA5CB5B EQ PUSH2 0xD6 JUMPI DUP1 PUSH4 0xF2FDE38B EQ PUSH2 0x101 JUMPI PUSH2 0x55 JUMP JUMPDEST CALLDATASIZE PUSH2 0x55 JUMPI STOP JUMPDEST STOP JUMPDEST CALLVALUE DUP1 ISZERO PUSH2 0x63 JUMPI PUSH1 0x0 DUP1 REVERT JUMPDEST POP PUSH2 0x7E PUSH1 0x4 DUP1 CALLDATASIZE SUB DUP2 ADD SWAP1 PUSH2 0x79 SWAP2 SWAP1 PUSH2 0x464 JUMP JUMPDEST PUSH2 0x12A JUMP JUMPDEST PUSH1 0x40 MLOAD PUSH2 0x8B SWAP2 SWAP1 PUSH2 0x57A JUMP JUMPDEST PUSH1 0x40 MLOAD DUP1 SWAP2 SUB SWAP1 RETURN JUMPDEST CALLVALUE DUP1 ISZERO PUSH2 0xA0 JUMPI PUSH1 0x0 DUP1 REVERT JUMPDEST POP PUSH2 0xA9 PUSH2 0x147 JUMP JUMPDEST STOP JUMPDEST CALLVALUE DUP1 ISZERO PUSH2 0xB7 JUMPI PUSH1 0x0 DUP1 REVERT JUMPDEST POP PUSH2 0xC0 PUSH2 0x15B JUMP JUMPDEST PUSH1 0x40 MLOAD PUSH2 0xCD SWAP2 SWAP1 PUSH2 0x5F5 JUMP JUMPDEST PUSH1 0x40 MLOAD DUP1 SWAP2 SUB SWAP1 RETURN JUMPDEST CALLVALUE DUP1 ISZERO PUSH2 0xE2 JUMPI PUSH1 0x0 DUP1 REVERT JUMPDEST POP PUSH2 0xEB PUSH2 0x163 JUMP JUMPDEST PUSH1 0x40 MLOAD PUSH2 0xF8 SWAP2 SWAP1 PUSH2 0x55F JUMP JUMPDEST PUSH1 0x40 MLOAD DUP1 SWAP2 SUB SWAP1 RETURN JUMPDEST CALLVALUE DUP1 ISZERO PUSH2 0x10D JUMPI PUSH1 0x0 DUP1 REVERT JUMPDEST POP PUSH2 0x128 PUSH1 0x4 DUP1 CALLDATASIZE SUB DUP2 ADD SWAP1 PUSH2 0x123 SWAP2 SWAP1 PUSH2 0x464 JUMP JUMPDEST PUSH2 0x18C JUMP JUMPDEST STOP JUMPDEST PUSH1 0x0 PUSH2 0x134 PUSH2 0x210 JUMP JUMPDEST PUSH2 0x13D DUP3 PUSH2 0x28E JUMP JUMPDEST POP PUSH1 0x1 SWAP1 POP SWAP2 SWAP1 POP JUMP JUMPDEST PUSH2 0x14F PUSH2 0x210 JUMP JUMPDEST PUSH2 0x159 PUSH1 0x0 PUSH2 0x383 JUMP JUMPDEST JUMP JUMPDEST PUSH1 0x0 SELFBALANCE SWAP1 POP SWAP1 JUMP JUMPDEST PUSH1 0x0 DUP1 PUSH1 0x0 SWAP1 SLOAD SWAP1 PUSH2 0x100 EXP SWAP1 DIV PUSH20 0xFFFFFFFFFFFFFFFFFFFFFFFFFFFFFFFFFFFFFFFF AND SWAP1 POP SWAP1 JUMP JUMPDEST PUSH2 0x194 PUSH2 0x210 JUMP JUMPDEST PUSH1 0x0 PUSH20 0xFFFFFFFFFFFFFFFFFFFFFFFFFFFFFFFFFFFFFFFF AND DUP2 PUSH20 0xFFFFFFFFFFFFFFFFFFFFFFFFFFFFFFFFFFFFFFFF AND EQ ISZERO PUSH2 0x204 JUMPI PUSH1 0x40 MLOAD PUSH32 0x8C379A000000000000000000000000000000000000000000000000000000000 DUP2 MSTORE PUSH1 0x4 ADD PUSH2 0x1FB SWAP1 PUSH2 0x595 JUMP JUMPDEST PUSH1 0x40 MLOAD DUP1 SWAP2 SUB SWAP1 REVERT JUMPDEST PUSH2 0x20D DUP2 PUSH2 0x383 JUMP JUMPDEST POP JUMP JUMPDEST PUSH2 0x218 PUSH2 0x447 JUMP JUMPDEST PUSH20 0xFFFFFFFFFFFFFFFFFFFFFFFFFFFFFFFFFFFFFFFF AND PUSH2 0x236 PUSH2 0x163 JUMP JUMPDEST PUSH20 0xFFFFFFFFFFFFFFFFFFFFFFFFFFFFFFFFFFFFFFFF AND EQ PUSH2 0x28C JUMPI PUSH1 0x40 MLOAD PUSH32 0x8C379A000000000000000000000000000000000000000000000000000000000 DUP2 MSTORE PUSH1 0x4 ADD PUSH2 0x283 SWAP1 PUSH2 0x5D5 JUMP JUMPDEST PUSH1 0x40 MLOAD DUP1 SWAP2 SUB SWAP1 REVERT JUMPDEST JUMP JUMPDEST PUSH1 0x0 PUSH2 0x298 PUSH2 0x210 JUMP JUMPDEST PUSH1 0x0 PUSH20 0xFFFFFFFFFFFFFFFFFFFFFFFFFFFFFFFFFFFFFFFF AND DUP3 PUSH20 0xFFFFFFFFFFFFFFFFFFFFFFFFFFFFFFFFFFFFFFFF AND EQ ISZERO PUSH2 0x308 JUMPI PUSH1 0x40 MLOAD PUSH32 0x8C379A000000000000000000000000000000000000000000000000000000000 DUP2 MSTORE PUSH1 0x4 ADD PUSH2 0x2FF SWAP1 PUSH2 0x5B5 JUMP JUMPDEST PUSH1 0x40 MLOAD DUP1 SWAP2 SUB SWAP1 REVERT JUMPDEST PUSH1 0x0 SELFBALANCE SWAP1 POP PUSH1 0x0 CALLER PUSH20 0xFFFFFFFFFFFFFFFFFFFFFFFFFFFFFFFFFFFFFFFF AND DUP3 PUSH1 0x40 MLOAD PUSH2 0x333 SWAP1 PUSH2 0x54A JUMP JUMPDEST PUSH1 0x0 PUSH1 0x40 MLOAD DUP1 DUP4 SUB DUP2 DUP6 DUP8 GAS CALL SWAP3 POP POP POP RETURNDATASIZE DUP1 PUSH1 0x0 DUP2 EQ PUSH2 0x370 JUMPI PUSH1 0x40 MLOAD SWAP2 POP PUSH1 0x1F NOT PUSH1 0x3F RETURNDATASIZE ADD AND DUP3 ADD PUSH1 0x40 MSTORE RETURNDATASIZE DUP3 MSTORE RETURNDATASIZE PUSH1 0x0 PUSH1 0x20 DUP5 ADD RETURNDATACOPY PUSH2 0x375 JUMP JUMPDEST PUSH1 0x60 SWAP2 POP JUMPDEST POP POP SWAP1 POP DUP1 SWAP3 POP POP POP SWAP2 SWAP1 POP JUMP JUMPDEST PUSH1 0x0 DUP1 PUSH1 0x0 SWAP1 SLOAD SWAP1 PUSH2 0x100 EXP SWAP1 DIV PUSH20 0xFFFFFFFFFFFFFFFFFFFFFFFFFFFFFFFFFFFFFFFF AND SWAP1 POP DUP2 PUSH1 0x0 DUP1 PUSH2 0x100 EXP DUP2 SLOAD DUP2 PUSH20 0xFFFFFFFFFFFFFFFFFFFFFFFFFFFFFFFFFFFFFFFF MUL NOT AND SWAP1 DUP4 PUSH20 0xFFFFFFFFFFFFFFFFFFFFFFFFFFFFFFFFFFFFFFFF AND MUL OR SWAP1 SSTORE POP DUP2 PUSH20 0xFFFFFFFFFFFFFFFFFFFFFFFFFFFFFFFFFFFFFFFF AND DUP2 PUSH20 0xFFFFFFFFFFFFFFFFFFFFFFFFFFFFFFFFFFFFFFFF AND PUSH32 0x8BE0079C531659141344CD1FD0A4F28419497F9722A3DAAFE3B4186F6B6457E0 PUSH1 0x40 MLOAD PUSH1 0x40 MLOAD DUP1 SWAP2 SUB SWAP1 LOG3 POP POP JUMP JUMPDEST PUSH1 0x0 CALLER SWAP1 POP SWAP1 JUMP JUMPDEST PUSH1 0x0 DUP2 CALLDATALOAD SWAP1 POP PUSH2 0x45E DUP2 PUSH2 0x71D JUMP JUMPDEST SWAP3 SWAP2 POP POP JUMP JUMPDEST PUSH1 0x0 PUSH1 0x20 DUP3 DUP5 SUB SLT ISZERO PUSH2 0x47A JUMPI PUSH2 0x479 PUSH2 0x674 JUMP JUMPDEST JUMPDEST PUSH1 0x0 PUSH2 0x488 DUP5 DUP3 DUP6 ADD PUSH2 0x44F JUMP JUMPDEST SWAP2 POP POP SWAP3 SWAP2 POP POP JUMP JUMPDEST PUSH2 0x49A DUP2 PUSH2 0x62C JUMP JUMPDEST DUP3 MSTORE POP POP JUMP JUMPDEST PUSH2 0x4A9 DUP2 PUSH2 0x63E JUMP JUMPDEST DUP3 MSTORE POP POP JUMP JUMPDEST PUSH1 0x0 PUSH2 0x4BC PUSH1 0x26 DUP4 PUSH2 0x61B JUMP JUMPDEST SWAP2 POP PUSH2 0x4C7 DUP3 PUSH2 0x679 JUMP JUMPDEST PUSH1 0x40 DUP3 ADD SWAP1 POP SWAP2 SWAP1 POP JUMP JUMPDEST PUSH1 0x0 PUSH2 0x4DF PUSH1 0x16 DUP4 PUSH2 0x61B JUMP JUMPDEST SWAP2 POP PUSH2 0x4EA DUP3 PUSH2 0x6C8 JUMP JUMPDEST PUSH1 0x20 DUP3 ADD SWAP1 POP SWAP2 SWAP1 POP JUMP JUMPDEST PUSH1 0x0 PUSH2 0x502 PUSH1 0x20 DUP4 PUSH2 0x61B JUMP JUMPDEST SWAP2 POP PUSH2 0x50D DUP3 PUSH2 0x6F1 JUMP JUMPDEST PUSH1 0x20 DUP3 ADD SWAP1 POP SWAP2 SWAP1 POP JUMP JUMPDEST PUSH1 0x0 PUSH2 0x525 PUSH1 0x0 DUP4 PUSH2 0x610 JUMP JUMPDEST SWAP2 POP PUSH2 0x530 DUP3 PUSH2 0x71A JUMP JUMPDEST PUSH1 0x0 DUP3 ADD SWAP1 POP SWAP2 SWAP1 POP JUMP JUMPDEST PUSH2 0x544 DUP2 PUSH2 0x66A JUMP JUMPDEST DUP3 MSTORE POP POP JUMP JUMPDEST PUSH1 0x0 PUSH2 0x555 DUP3 PUSH2 0x518 JUMP JUMPDEST SWAP2 POP DUP2 SWAP1 POP SWAP2 SWAP1 POP JUMP JUMPDEST PUSH1 0x0 PUSH1 0x20 DUP3 ADD SWAP1 POP PUSH2 0x574 PUSH1 0x0 DUP4 ADD DUP5 PUSH2 0x491 JUMP JUMPDEST SWAP3 SWAP2 POP POP JUMP JUMPDEST PUSH1 0x0 PUSH1 0x20 DUP3 ADD SWAP1 POP PUSH2 0x58F PUSH1 0x0 DUP4 ADD DUP5 PUSH2 0x4A0 JUMP JUMPDEST SWAP3 SWAP2 POP POP JUMP JUMPDEST PUSH1 0x0 PUSH1 0x20 DUP3 ADD SWAP1 POP DUP2 DUP2 SUB PUSH1 0x0 DUP4 ADD MSTORE PUSH2 0x5AE DUP2 PUSH2 0x4AF JUMP JUMPDEST SWAP1 POP SWAP2 SWAP1 POP JUMP JUMPDEST PUSH1 0x0 PUSH1 0x20 DUP3 ADD SWAP1 POP DUP2 DUP2 SUB PUSH1 0x0 DUP4 ADD MSTORE PUSH2 0x5CE DUP2 PUSH2 0x4D2 JUMP JUMPDEST SWAP1 POP SWAP2 SWAP1 POP JUMP JUMPDEST PUSH1 0x0 PUSH1 0x20 DUP3 ADD SWAP1 POP DUP2 DUP2 SUB PUSH1 0x0 DUP4 ADD MSTORE PUSH2 0x5EE DUP2 PUSH2 0x4F5 JUMP JUMPDEST SWAP1 POP SWAP2 SWAP1 POP JUMP JUMPDEST PUSH1 0x0 PUSH1 0x20 DUP3 ADD SWAP1 POP PUSH2 0x60A PUSH1 0x0 DUP4 ADD DUP5 PUSH2 0x53B JUMP JUMPDEST SWAP3 SWAP2 POP POP JUMP JUMPDEST PUSH1 0x0 DUP2 SWAP1 POP SWAP3 SWAP2 POP POP JUMP JUMPDEST PUSH1 0x0 DUP3 DUP3 MSTORE PUSH1 0x20 DUP3 ADD SWAP1 POP SWAP3 SWAP2 POP POP JUMP JUMPDEST PUSH1 0x0 PUSH2 0x637 DUP3 PUSH2 0x64A JUMP JUMPDEST SWAP1 POP SWAP2 SWAP1 POP JUMP JUMPDEST PUSH1 0x0 DUP2 ISZERO ISZERO SWAP1 POP SWAP2 SWAP1 POP JUMP JUMPDEST PUSH1 0x0 PUSH20 0xFFFFFFFFFFFFFFFFFFFFFFFFFFFFFFFFFFFFFFFF DUP3 AND SWAP1 POP SWAP2 SWAP1 POP JUMP JUMPDEST PUSH1 0x0 DUP2 SWAP1 POP SWAP2 SWAP1 POP JUMP JUMPDEST PUSH1 0x0 DUP1 REVERT JUMPDEST PUSH32 0x4F776E61626C653A206E6577206F776E657220697320746865207A65726F2061 PUSH1 0x0 DUP3 ADD MSTORE PUSH32 0x6464726573730000000000000000000000000000000000000000000000000000 PUSH1 0x20 DUP3 ADD MSTORE POP JUMP JUMPDEST PUSH32 0x7472616E736665722061646472657373206E6F74203000000000000000000000 PUSH1 0x0 DUP3 ADD MSTORE POP JUMP JUMPDEST PUSH32 0x4F776E61626C653A2063616C6C6572206973206E6F7420746865206F776E6572 PUSH1 0x0 DUP3 ADD MSTORE POP JUMP JUMPDEST POP JUMP JUMPDEST PUSH2 0x726 DUP2 PUSH2 0x62C JUMP JUMPDEST DUP2 EQ PUSH2 0x731 JUMPI PUSH1 0x0 DUP1 REVERT JUMPDEST POP JUMP INVALID LOG2 PUSH5 0x6970667358 0x22 SLT KECCAK256 SWAP8 POP RETURNDATASIZE 0x4C 0x2A DUP1 GASLIMIT 0x4D SHR 0xD 0x21 ADDRESS BASEFEE 0x4A 0xE5 LOG4 PUSH19 0xA2131A609541641891C5C6CD964F4C64736F6C PUSH4 0x43000807 STOP CALLER "
				},
				"gasEstimates": {
					"creation": {
						"codeDepositCost": "379600",
						"executionCost": "infinite",
						"totalCost": "infinite"
					},
					"external": {
						"": "173",
						"balanceOf()": "361",
						"owner()": "2566",
						"renounceOwnership()": "30398",
						"transfer(address)": "infinite",
						"transferOwnership(address)": "30813"
					},
					"internal": {
						"_transfer(address)": "infinite"
					}
				},
				"methodIdentifiers": {
					"balanceOf()": "722713f7",
					"owner()": "8da5cb5b",
					"renounceOwnership()": "715018a6",
					"transfer(address)": "1a695230",
					"transferOwnership(address)": "f2fde38b"
				}
			},
			"storageLayout": {
				"storage": [
					{
						"astId": 25,
						"contract": "transferFactory\\transferActive.sol:TranActive",
						"label": "_owner",
						"offset": 0,
						"slot": "0",
						"type": "t_address"
					}
				],
				"types": {
					"t_address": {
						"encoding": "inplace",
						"label": "address",
						"numberOfBytes": "20"
					}
				}
			},
			"userdoc": {
				"kind": "user",
				"methods": {},
				"version": 1
			}
		}
	}
}