{
	"XenActive.sol": {
		"recevieDemo": {
			"abi": [
				{
					"inputs": [],
					"stateMutability": "nonpayable",
					"type": "constructor"
				},
				{
					"inputs": [],
					"name": "_addr",
					"outputs": [
						{
							"internalType": "address",
							"name": "",
							"type": "address"
						}
					],
					"stateMutability": "view",
					"type": "function"
				},
				{
					"inputs": [],
					"name": "rewardAndTransfer",
					"outputs": [],
					"stateMutability": "nonpayable",
					"type": "function"
				},
				{
					"inputs": [],
					"name": "withdraw",
					"outputs": [],
					"stateMutability": "payable",
					"type": "function"
				}
			],
			"devdoc": {
				"kind": "dev",
				"methods": {},
				"version": 1
			},
			"evm": {
				"assembly": "    /* \"XenActive.sol\":345:1254  contract recevieDemo{... */\n  mstore(0x40, 0x80)\n    /* \"XenActive.sol\":451:493  0x2AB0e9e4eE70FFf1fB9D67031E44F6410170d00e */\n  0x2ab0e9e4ee70fff1fb9d67031e44f6410170d00e\n    /* \"XenActive.sol\":428:493  address public _addr = 0x2AB0e9e4eE70FFf1fB9D67031E44F6410170d00e */\n  0x01\n  exp(0x0100, 0x00)\n  dup2\n  sload\n  dup2\n  0xffffffffffffffffffffffffffffffffffffffff\n  mul\n  not\n  and\n  swap1\n  dup4\n  0xffffffffffffffffffffffffffffffffffffffff\n  and\n  mul\n  or\n  swap1\n  sstore\n  pop\n    /* \"XenActive.sol\":538:597  constructor(){... */\n  callvalue\n  dup1\n  iszero\n  tag_1\n  jumpi\n  0x00\n  dup1\n  revert\ntag_1:\n  pop\n    /* \"XenActive.sol\":578:588  msg.sender */\n  caller\n    /* \"XenActive.sol\":562:567  owner */\n  0x00\n  dup1\n    /* \"XenActive.sol\":562:589  owner = payable(msg.sender) */\n  0x0100\n  exp\n  dup2\n  sload\n  dup2\n  0xffffffffffffffffffffffffffffffffffffffff\n  mul\n  not\n  and\n  swap1\n  dup4\n  0xffffffffffffffffffffffffffffffffffffffff\n  and\n  mul\n  or\n  swap1\n  sstore\n  pop\n    /* \"XenActive.sol\":345:1254  contract recevieDemo{... */\n  dataSize(sub_0)\n  dup1\n  dataOffset(sub_0)\n  0x00\n  codecopy\n  0x00\n  return\nstop\n\nsub_0: assembly {\n        /* \"XenActive.sol\":345:1254  contract recevieDemo{... */\n      mstore(0x40, 0x80)\n      jumpi(tag_1, lt(calldatasize, 0x04))\n      shr(0xe0, calldataload(0x00))\n      dup1\n      0x3ccfd60b\n      eq\n      tag_2\n      jumpi\n      dup1\n      0x62ab1a77\n      eq\n      tag_3\n      jumpi\n      dup1\n      0x68ae560d\n      eq\n      tag_4\n      jumpi\n    tag_1:\n      0x00\n      dup1\n      revert\n        /* \"XenActive.sol\":1058:1251  function withdraw() public payable {... */\n    tag_2:\n      tag_5\n      tag_6\n      jump\t// in\n    tag_5:\n      stop\n        /* \"XenActive.sol\":428:493  address public _addr = 0x2AB0e9e4eE70FFf1fB9D67031E44F6410170d00e */\n    tag_3:\n      callvalue\n      dup1\n      iszero\n      tag_7\n      jumpi\n      0x00\n      dup1\n      revert\n    tag_7:\n      pop\n      tag_8\n      tag_9\n      jump\t// in\n    tag_8:\n      mload(0x40)\n      tag_10\n      swap2\n      swap1\n      tag_11\n      jump\t// in\n    tag_10:\n      mload(0x40)\n      dup1\n      swap2\n      sub\n      swap1\n      return\n        /* \"XenActive.sol\":749:998  function rewardAndTransfer() external {... */\n    tag_4:\n      callvalue\n      dup1\n      iszero\n      tag_12\n      jumpi\n      0x00\n      dup1\n      revert\n    tag_12:\n      pop\n      tag_13\n      tag_14\n      jump\t// in\n    tag_13:\n      stop\n        /* \"XenActive.sol\":1058:1251  function withdraw() public payable {... */\n    tag_6:\n        /* \"XenActive.sol\":1162:1167  owner */\n      0x00\n      dup1\n      sload\n      swap1\n      0x0100\n      exp\n      swap1\n      div\n      0xffffffffffffffffffffffffffffffffffffffff\n      and\n        /* \"XenActive.sol\":1148:1167  msg.sender == owner */\n      0xffffffffffffffffffffffffffffffffffffffff\n      and\n        /* \"XenActive.sol\":1148:1158  msg.sender */\n      caller\n        /* \"XenActive.sol\":1148:1167  msg.sender == owner */\n      0xffffffffffffffffffffffffffffffffffffffff\n      and\n      eq\n        /* \"XenActive.sol\":1140:1181  require(msg.sender == owner,\"not owner!\") */\n      tag_16\n      jumpi\n      mload(0x40)\n      0x08c379a000000000000000000000000000000000000000000000000000000000\n      dup2\n      mstore\n      0x04\n      add\n      tag_17\n      swap1\n      tag_18\n      jump\t// in\n    tag_17:\n      mload(0x40)\n      dup1\n      swap2\n      sub\n      swap1\n      revert\n    tag_16:\n        /* \"XenActive.sol\":1200:1210  msg.sender */\n      caller\n        /* \"XenActive.sol\":1192:1220  payable(msg.sender).transfer */\n      0xffffffffffffffffffffffffffffffffffffffff\n      and\n        /* \"XenActive.sol\":1192:1243  payable(msg.sender).transfer(address(this).balance) */\n      0x08fc\n        /* \"XenActive.sol\":1221:1242  address(this).balance */\n      selfbalance\n        /* \"XenActive.sol\":1192:1243  payable(msg.sender).transfer(address(this).balance) */\n      swap1\n      dup2\n      iszero\n      mul\n      swap1\n      mload(0x40)\n      0x00\n      mload(0x40)\n      dup1\n      dup4\n      sub\n      dup2\n      dup6\n      dup9\n      dup9\n      call\n      swap4\n      pop\n      pop\n      pop\n      pop\n      iszero\n      dup1\n      iszero\n      tag_20\n      jumpi\n      returndatasize\n      0x00\n      dup1\n      returndatacopy\n      revert(0x00, returndatasize)\n    tag_20:\n      pop\n        /* \"XenActive.sol\":1058:1251  function withdraw() public payable {... */\n      jump\t// out\n        /* \"XenActive.sol\":428:493  address public _addr = 0x2AB0e9e4eE70FFf1fB9D67031E44F6410170d00e */\n    tag_9:\n      0x01\n      0x00\n      swap1\n      sload\n      swap1\n      0x0100\n      exp\n      swap1\n      div\n      0xffffffffffffffffffffffffffffffffffffffff\n      and\n      dup2\n      jump\t// out\n        /* \"XenActive.sol\":749:998  function rewardAndTransfer() external {... */\n    tag_14:\n        /* \"XenActive.sol\":803:808  _addr */\n      0x01\n      0x00\n      swap1\n      sload\n      swap1\n      0x0100\n      exp\n      swap1\n      div\n      0xffffffffffffffffffffffffffffffffffffffff\n      and\n        /* \"XenActive.sol\":798:825  IXen(_addr).claimMintReward */\n      0xffffffffffffffffffffffffffffffffffffffff\n      and\n      0x52c7f8dc\n        /* \"XenActive.sol\":798:827  IXen(_addr).claimMintReward() */\n      mload(0x40)\n      dup2\n      0xffffffff\n      and\n      0xe0\n      shl\n      dup2\n      mstore\n      0x04\n      add\n      0x00\n      mload(0x40)\n      dup1\n      dup4\n      sub\n      dup2\n      0x00\n      dup8\n      dup1\n      extcodesize\n      iszero\n      dup1\n      iszero\n      tag_22\n      jumpi\n      0x00\n      dup1\n      revert\n    tag_22:\n      pop\n      gas\n      call\n      iszero\n      dup1\n      iszero\n      tag_24\n      jumpi\n      returndatasize\n      0x00\n      dup1\n      returndatacopy\n      revert(0x00, returndatasize)\n    tag_24:\n      pop\n      pop\n      pop\n      pop\n        /* \"XenActive.sol\":838:854  uint256 banlance */\n      0x00\n        /* \"XenActive.sol\":862:867  _addr */\n      0x01\n      0x00\n      swap1\n      sload\n      swap1\n      0x0100\n      exp\n      swap1\n      div\n      0xffffffffffffffffffffffffffffffffffffffff\n      and\n        /* \"XenActive.sol\":857:878  IXen(_addr).balanceOf */\n      0xffffffffffffffffffffffffffffffffffffffff\n      and\n      0x70a08231\n        /* \"XenActive.sol\":887:891  this */\n      address\n        /* \"XenActive.sol\":857:893  IXen(_addr).balanceOf(address(this)) */\n      mload(0x40)\n      dup3\n      0xffffffff\n      and\n      0xe0\n      shl\n      dup2\n      mstore\n      0x04\n      add\n      tag_25\n      swap2\n      swap1\n      tag_11\n      jump\t// in\n    tag_25:\n      0x20\n      mload(0x40)\n      dup1\n      dup4\n      sub\n      dup2\n      dup7\n      gas\n      staticcall\n      iszero\n      dup1\n      iszero\n      tag_27\n      jumpi\n      returndatasize\n      0x00\n      dup1\n      returndatacopy\n      revert(0x00, returndatasize)\n    tag_27:\n      pop\n      pop\n      pop\n      pop\n      mload(0x40)\n      returndatasize\n      not(0x1f)\n      0x1f\n      dup3\n      add\n      and\n      dup3\n      add\n      dup1\n      0x40\n      mstore\n      pop\n      dup2\n      add\n      swap1\n      tag_28\n      swap2\n      swap1\n      tag_29\n      jump\t// in\n    tag_28:\n        /* \"XenActive.sol\":838:893  uint256 banlance = IXen(_addr).balanceOf(address(this)) */\n      swap1\n      pop\n        /* \"XenActive.sol\":909:914  _addr */\n      0x01\n      0x00\n      swap1\n      sload\n      swap1\n      0x0100\n      exp\n      swap1\n      div\n      0xffffffffffffffffffffffffffffffffffffffff\n      and\n        /* \"XenActive.sol\":904:924  IXen(_addr).transfer */\n      0xffffffffffffffffffffffffffffffffffffffff\n      and\n      0xa9059cbb\n        /* \"XenActive.sol\":925:935  msg.sender */\n      caller\n        /* \"XenActive.sol\":937:945  banlance */\n      dup4\n        /* \"XenActive.sol\":904:946  IXen(_addr).transfer(msg.sender, banlance) */\n      mload(0x40)\n      dup4\n      0xffffffff\n      and\n      0xe0\n      shl\n      dup2\n      mstore\n      0x04\n      add\n      tag_30\n      swap3\n      swap2\n      swap1\n      tag_31\n      jump\t// in\n    tag_30:\n      0x20\n      mload(0x40)\n      dup1\n      dup4\n      sub\n      dup2\n      0x00\n      dup8\n      gas\n      call\n      iszero\n      dup1\n      iszero\n      tag_33\n      jumpi\n      returndatasize\n      0x00\n      dup1\n      returndatacopy\n      revert(0x00, returndatasize)\n    tag_33:\n      pop\n      pop\n      pop\n      pop\n      mload(0x40)\n      returndatasize\n      not(0x1f)\n      0x1f\n      dup3\n      add\n      and\n      dup3\n      add\n      dup1\n      0x40\n      mstore\n      pop\n      dup2\n      add\n      swap1\n      tag_34\n      swap2\n      swap1\n      tag_35\n      jump\t// in\n    tag_34:\n      pop\n        /* \"XenActive.sol\":978:988  msg.sender */\n      caller\n        /* \"XenActive.sol\":957:990  selfdestruct(payable(msg.sender)) */\n      0xffffffffffffffffffffffffffffffffffffffff\n      and\n      selfdestruct\n        /* \"#utility.yul\":7:133   */\n    tag_36:\n        /* \"#utility.yul\":44:51   */\n      0x00\n        /* \"#utility.yul\":84:126   */\n      0xffffffffffffffffffffffffffffffffffffffff\n        /* \"#utility.yul\":77:82   */\n      dup3\n        /* \"#utility.yul\":73:127   */\n      and\n        /* \"#utility.yul\":62:127   */\n      swap1\n      pop\n        /* \"#utility.yul\":7:133   */\n      swap2\n      swap1\n      pop\n      jump\t// out\n        /* \"#utility.yul\":139:235   */\n    tag_37:\n        /* \"#utility.yul\":176:183   */\n      0x00\n        /* \"#utility.yul\":205:229   */\n      tag_55\n        /* \"#utility.yul\":223:228   */\n      dup3\n        /* \"#utility.yul\":205:229   */\n      tag_36\n      jump\t// in\n    tag_55:\n        /* \"#utility.yul\":194:229   */\n      swap1\n      pop\n        /* \"#utility.yul\":139:235   */\n      swap2\n      swap1\n      pop\n      jump\t// out\n        /* \"#utility.yul\":241:359   */\n    tag_38:\n        /* \"#utility.yul\":328:352   */\n      tag_57\n        /* \"#utility.yul\":346:351   */\n      dup2\n        /* \"#utility.yul\":328:352   */\n      tag_37\n      jump\t// in\n    tag_57:\n        /* \"#utility.yul\":323:326   */\n      dup3\n        /* \"#utility.yul\":316:353   */\n      mstore\n        /* \"#utility.yul\":241:359   */\n      pop\n      pop\n      jump\t// out\n        /* \"#utility.yul\":365:587   */\n    tag_11:\n        /* \"#utility.yul\":458:462   */\n      0x00\n        /* \"#utility.yul\":496:498   */\n      0x20\n        /* \"#utility.yul\":485:494   */\n      dup3\n        /* \"#utility.yul\":481:499   */\n      add\n        /* \"#utility.yul\":473:499   */\n      swap1\n      pop\n        /* \"#utility.yul\":509:580   */\n      tag_59\n        /* \"#utility.yul\":577:578   */\n      0x00\n        /* \"#utility.yul\":566:575   */\n      dup4\n        /* \"#utility.yul\":562:579   */\n      add\n        /* \"#utility.yul\":553:559   */\n      dup5\n        /* \"#utility.yul\":509:580   */\n      tag_38\n      jump\t// in\n    tag_59:\n        /* \"#utility.yul\":365:587   */\n      swap3\n      swap2\n      pop\n      pop\n      jump\t// out\n        /* \"#utility.yul\":593:762   */\n    tag_39:\n        /* \"#utility.yul\":677:688   */\n      0x00\n        /* \"#utility.yul\":711:717   */\n      dup3\n        /* \"#utility.yul\":706:709   */\n      dup3\n        /* \"#utility.yul\":699:718   */\n      mstore\n        /* \"#utility.yul\":751:755   */\n      0x20\n        /* \"#utility.yul\":746:749   */\n      dup3\n        /* \"#utility.yul\":742:756   */\n      add\n        /* \"#utility.yul\":727:756   */\n      swap1\n      pop\n        /* \"#utility.yul\":593:762   */\n      swap3\n      swap2\n      pop\n      pop\n      jump\t// out\n        /* \"#utility.yul\":768:928   */\n    tag_40:\n        /* \"#utility.yul\":908:920   */\n      0x6e6f74206f776e65722100000000000000000000000000000000000000000000\n        /* \"#utility.yul\":904:905   */\n      0x00\n        /* \"#utility.yul\":896:902   */\n      dup3\n        /* \"#utility.yul\":892:906   */\n      add\n        /* \"#utility.yul\":885:921   */\n      mstore\n        /* \"#utility.yul\":768:928   */\n      pop\n      jump\t// out\n        /* \"#utility.yul\":934:1300   */\n    tag_41:\n        /* \"#utility.yul\":1076:1079   */\n      0x00\n        /* \"#utility.yul\":1097:1164   */\n      tag_63\n        /* \"#utility.yul\":1161:1163   */\n      0x0a\n        /* \"#utility.yul\":1156:1159   */\n      dup4\n        /* \"#utility.yul\":1097:1164   */\n      tag_39\n      jump\t// in\n    tag_63:\n        /* \"#utility.yul\":1090:1164   */\n      swap2\n      pop\n        /* \"#utility.yul\":1173:1266   */\n      tag_64\n        /* \"#utility.yul\":1262:1265   */\n      dup3\n        /* \"#utility.yul\":1173:1266   */\n      tag_40\n      jump\t// in\n    tag_64:\n        /* \"#utility.yul\":1291:1293   */\n      0x20\n        /* \"#utility.yul\":1286:1289   */\n      dup3\n        /* \"#utility.yul\":1282:1294   */\n      add\n        /* \"#utility.yul\":1275:1294   */\n      swap1\n      pop\n        /* \"#utility.yul\":934:1300   */\n      swap2\n      swap1\n      pop\n      jump\t// out\n        /* \"#utility.yul\":1306:1725   */\n    tag_18:\n        /* \"#utility.yul\":1472:1476   */\n      0x00\n        /* \"#utility.yul\":1510:1512   */\n      0x20\n        /* \"#utility.yul\":1499:1508   */\n      dup3\n        /* \"#utility.yul\":1495:1513   */\n      add\n        /* \"#utility.yul\":1487:1513   */\n      swap1\n      pop\n        /* \"#utility.yul\":1559:1568   */\n      dup2\n        /* \"#utility.yul\":1553:1557   */\n      dup2\n        /* \"#utility.yul\":1549:1569   */\n      sub\n        /* \"#utility.yul\":1545:1546   */\n      0x00\n        /* \"#utility.yul\":1534:1543   */\n      dup4\n        /* \"#utility.yul\":1530:1547   */\n      add\n        /* \"#utility.yul\":1523:1570   */\n      mstore\n        /* \"#utility.yul\":1587:1718   */\n      tag_66\n        /* \"#utility.yul\":1713:1717   */\n      dup2\n        /* \"#utility.yul\":1587:1718   */\n      tag_41\n      jump\t// in\n    tag_66:\n        /* \"#utility.yul\":1579:1718   */\n      swap1\n      pop\n        /* \"#utility.yul\":1306:1725   */\n      swap2\n      swap1\n      pop\n      jump\t// out\n        /* \"#utility.yul\":1812:1929   */\n    tag_43:\n        /* \"#utility.yul\":1921:1922   */\n      0x00\n        /* \"#utility.yul\":1918:1919   */\n      dup1\n        /* \"#utility.yul\":1911:1923   */\n      revert\n        /* \"#utility.yul\":2058:2135   */\n    tag_45:\n        /* \"#utility.yul\":2095:2102   */\n      0x00\n        /* \"#utility.yul\":2124:2129   */\n      dup2\n        /* \"#utility.yul\":2113:2129   */\n      swap1\n      pop\n        /* \"#utility.yul\":2058:2135   */\n      swap2\n      swap1\n      pop\n      jump\t// out\n        /* \"#utility.yul\":2141:2263   */\n    tag_46:\n        /* \"#utility.yul\":2214:2238   */\n      tag_72\n        /* \"#utility.yul\":2232:2237   */\n      dup2\n        /* \"#utility.yul\":2214:2238   */\n      tag_45\n      jump\t// in\n    tag_72:\n        /* \"#utility.yul\":2207:2212   */\n      dup2\n        /* \"#utility.yul\":2204:2239   */\n      eq\n        /* \"#utility.yul\":2194:2257   */\n      tag_73\n      jumpi\n        /* \"#utility.yul\":2253:2254   */\n      0x00\n        /* \"#utility.yul\":2250:2251   */\n      dup1\n        /* \"#utility.yul\":2243:2255   */\n      revert\n        /* \"#utility.yul\":2194:2257   */\n    tag_73:\n        /* \"#utility.yul\":2141:2263   */\n      pop\n      jump\t// out\n        /* \"#utility.yul\":2269:2412   */\n    tag_47:\n        /* \"#utility.yul\":2326:2331   */\n      0x00\n        /* \"#utility.yul\":2357:2363   */\n      dup2\n        /* \"#utility.yul\":2351:2364   */\n      mload\n        /* \"#utility.yul\":2342:2364   */\n      swap1\n      pop\n        /* \"#utility.yul\":2373:2406   */\n      tag_75\n        /* \"#utility.yul\":2400:2405   */\n      dup2\n        /* \"#utility.yul\":2373:2406   */\n      tag_46\n      jump\t// in\n    tag_75:\n        /* \"#utility.yul\":2269:2412   */\n      swap3\n      swap2\n      pop\n      pop\n      jump\t// out\n        /* \"#utility.yul\":2418:2769   */\n    tag_29:\n        /* \"#utility.yul\":2488:2494   */\n      0x00\n        /* \"#utility.yul\":2537:2539   */\n      0x20\n        /* \"#utility.yul\":2525:2534   */\n      dup3\n        /* \"#utility.yul\":2516:2523   */\n      dup5\n        /* \"#utility.yul\":2512:2535   */\n      sub\n        /* \"#utility.yul\":2508:2540   */\n      slt\n        /* \"#utility.yul\":2505:2624   */\n      iszero\n      tag_77\n      jumpi\n        /* \"#utility.yul\":2543:2622   */\n      tag_78\n      tag_43\n      jump\t// in\n    tag_78:\n        /* \"#utility.yul\":2505:2624   */\n    tag_77:\n        /* \"#utility.yul\":2663:2664   */\n      0x00\n        /* \"#utility.yul\":2688:2752   */\n      tag_79\n        /* \"#utility.yul\":2744:2751   */\n      dup5\n        /* \"#utility.yul\":2735:2741   */\n      dup3\n        /* \"#utility.yul\":2724:2733   */\n      dup6\n        /* \"#utility.yul\":2720:2742   */\n      add\n        /* \"#utility.yul\":2688:2752   */\n      tag_47\n      jump\t// in\n    tag_79:\n        /* \"#utility.yul\":2678:2752   */\n      swap2\n      pop\n        /* \"#utility.yul\":2634:2762   */\n      pop\n        /* \"#utility.yul\":2418:2769   */\n      swap3\n      swap2\n      pop\n      pop\n      jump\t// out\n        /* \"#utility.yul\":2775:2893   */\n    tag_48:\n        /* \"#utility.yul\":2862:2886   */\n      tag_81\n        /* \"#utility.yul\":2880:2885   */\n      dup2\n        /* \"#utility.yul\":2862:2886   */\n      tag_45\n      jump\t// in\n    tag_81:\n        /* \"#utility.yul\":2857:2860   */\n      dup3\n        /* \"#utility.yul\":2850:2887   */\n      mstore\n        /* \"#utility.yul\":2775:2893   */\n      pop\n      pop\n      jump\t// out\n        /* \"#utility.yul\":2899:3231   */\n    tag_31:\n        /* \"#utility.yul\":3020:3024   */\n      0x00\n        /* \"#utility.yul\":3058:3060   */\n      0x40\n        /* \"#utility.yul\":3047:3056   */\n      dup3\n        /* \"#utility.yul\":3043:3061   */\n      add\n        /* \"#utility.yul\":3035:3061   */\n      swap1\n      pop\n        /* \"#utility.yul\":3071:3142   */\n      tag_83\n        /* \"#utility.yul\":3139:3140   */\n      0x00\n        /* \"#utility.yul\":3128:3137   */\n      dup4\n        /* \"#utility.yul\":3124:3141   */\n      add\n        /* \"#utility.yul\":3115:3121   */\n      dup6\n        /* \"#utility.yul\":3071:3142   */\n      tag_38\n      jump\t// in\n    tag_83:\n        /* \"#utility.yul\":3152:3224   */\n      tag_84\n        /* \"#utility.yul\":3220:3222   */\n      0x20\n        /* \"#utility.yul\":3209:3218   */\n      dup4\n        /* \"#utility.yul\":3205:3223   */\n      add\n        /* \"#utility.yul\":3196:3202   */\n      dup5\n        /* \"#utility.yul\":3152:3224   */\n      tag_48\n      jump\t// in\n    tag_84:\n        /* \"#utility.yul\":2899:3231   */\n      swap4\n      swap3\n      pop\n      pop\n      pop\n      jump\t// out\n        /* \"#utility.yul\":3237:3327   */\n    tag_49:\n        /* \"#utility.yul\":3271:3278   */\n      0x00\n        /* \"#utility.yul\":3314:3319   */\n      dup2\n        /* \"#utility.yul\":3307:3320   */\n      iszero\n        /* \"#utility.yul\":3300:3321   */\n      iszero\n        /* \"#utility.yul\":3289:3321   */\n      swap1\n      pop\n        /* \"#utility.yul\":3237:3327   */\n      swap2\n      swap1\n      pop\n      jump\t// out\n        /* \"#utility.yul\":3333:3449   */\n    tag_50:\n        /* \"#utility.yul\":3403:3424   */\n      tag_87\n        /* \"#utility.yul\":3418:3423   */\n      dup2\n        /* \"#utility.yul\":3403:3424   */\n      tag_49\n      jump\t// in\n    tag_87:\n        /* \"#utility.yul\":3396:3401   */\n      dup2\n        /* \"#utility.yul\":3393:3425   */\n      eq\n        /* \"#utility.yul\":3383:3443   */\n      tag_88\n      jumpi\n        /* \"#utility.yul\":3439:3440   */\n      0x00\n        /* \"#utility.yul\":3436:3437   */\n      dup1\n        /* \"#utility.yul\":3429:3441   */\n      revert\n        /* \"#utility.yul\":3383:3443   */\n    tag_88:\n        /* \"#utility.yul\":3333:3449   */\n      pop\n      jump\t// out\n        /* \"#utility.yul\":3455:3592   */\n    tag_51:\n        /* \"#utility.yul\":3509:3514   */\n      0x00\n        /* \"#utility.yul\":3540:3546   */\n      dup2\n        /* \"#utility.yul\":3534:3547   */\n      mload\n        /* \"#utility.yul\":3525:3547   */\n      swap1\n      pop\n        /* \"#utility.yul\":3556:3586   */\n      tag_90\n        /* \"#utility.yul\":3580:3585   */\n      dup2\n        /* \"#utility.yul\":3556:3586   */\n      tag_50\n      jump\t// in\n    tag_90:\n        /* \"#utility.yul\":3455:3592   */\n      swap3\n      swap2\n      pop\n      pop\n      jump\t// out\n        /* \"#utility.yul\":3598:3943   */\n    tag_35:\n        /* \"#utility.yul\":3665:3671   */\n      0x00\n        /* \"#utility.yul\":3714:3716   */\n      0x20\n        /* \"#utility.yul\":3702:3711   */\n      dup3\n        /* \"#utility.yul\":3693:3700   */\n      dup5\n        /* \"#utility.yul\":3689:3712   */\n      sub\n        /* \"#utility.yul\":3685:3717   */\n      slt\n        /* \"#utility.yul\":3682:3801   */\n      iszero\n      tag_92\n      jumpi\n        /* \"#utility.yul\":3720:3799   */\n      tag_93\n      tag_43\n      jump\t// in\n    tag_93:\n        /* \"#utility.yul\":3682:3801   */\n    tag_92:\n        /* \"#utility.yul\":3840:3841   */\n      0x00\n        /* \"#utility.yul\":3865:3926   */\n      tag_94\n        /* \"#utility.yul\":3918:3925   */\n      dup5\n        /* \"#utility.yul\":3909:3915   */\n      dup3\n        /* \"#utility.yul\":3898:3907   */\n      dup6\n        /* \"#utility.yul\":3894:3916   */\n      add\n        /* \"#utility.yul\":3865:3926   */\n      tag_51\n      jump\t// in\n    tag_94:\n        /* \"#utility.yul\":3855:3926   */\n      swap2\n      pop\n        /* \"#utility.yul\":3811:3936   */\n      pop\n        /* \"#utility.yul\":3598:3943   */\n      swap3\n      swap2\n      pop\n      pop\n      jump\t// out\n\n    auxdata: 0xa2646970667358221220a7e1973243963475d71f9be565b73f5e34670b524cb49f82b01fd6efce1407a264736f6c63430008110033\n}\n",
				"bytecode": {
					"linkReferences": {},
					"object": "6080604052732ab0e9e4ee70fff1fb9d67031e44f6410170d00e600160006101000a81548173ffffffffffffffffffffffffffffffffffffffff021916908373ffffffffffffffffffffffffffffffffffffffff16021790555034801561006557600080fd5b50336000806101000a81548173ffffffffffffffffffffffffffffffffffffffff021916908373ffffffffffffffffffffffffffffffffffffffff160217905550610572806100b56000396000f3fe6080604052600436106100345760003560e01c80633ccfd60b1461003957806362ab1a771461004357806368ae560d1461006e575b600080fd5b610041610085565b005b34801561004f57600080fd5b5061005861015c565b604051610065919061039f565b60405180910390f35b34801561007a57600080fd5b50610083610182565b005b60008054906101000a900473ffffffffffffffffffffffffffffffffffffffff1673ffffffffffffffffffffffffffffffffffffffff163373ffffffffffffffffffffffffffffffffffffffff1614610113576040517f08c379a000000000000000000000000000000000000000000000000000000000815260040161010a90610417565b60405180910390fd5b3373ffffffffffffffffffffffffffffffffffffffff166108fc479081150290604051600060405180830381858888f19350505050158015610159573d6000803e3d6000fd5b50565b600160009054906101000a900473ffffffffffffffffffffffffffffffffffffffff1681565b600160009054906101000a900473ffffffffffffffffffffffffffffffffffffffff1673ffffffffffffffffffffffffffffffffffffffff166352c7f8dc6040518163ffffffff1660e01b8152600401600060405180830381600087803b1580156101ec57600080fd5b505af1158015610200573d6000803e3d6000fd5b505050506000600160009054906101000a900473ffffffffffffffffffffffffffffffffffffffff1673ffffffffffffffffffffffffffffffffffffffff166370a08231306040518263ffffffff1660e01b8152600401610261919061039f565b602060405180830381865afa15801561027e573d6000803e3d6000fd5b505050506040513d601f19601f820116820180604052508101906102a29190610472565b9050600160009054906101000a900473ffffffffffffffffffffffffffffffffffffffff1673ffffffffffffffffffffffffffffffffffffffff1663a9059cbb33836040518363ffffffff1660e01b81526004016103019291906104ae565b6020604051808303816000875af1158015610320573d6000803e3d6000fd5b505050506040513d601f19601f82011682018060405250810190610344919061050f565b503373ffffffffffffffffffffffffffffffffffffffff16ff5b600073ffffffffffffffffffffffffffffffffffffffff82169050919050565b60006103898261035e565b9050919050565b6103998161037e565b82525050565b60006020820190506103b46000830184610390565b92915050565b600082825260208201905092915050565b7f6e6f74206f776e65722100000000000000000000000000000000000000000000600082015250565b6000610401600a836103ba565b915061040c826103cb565b602082019050919050565b60006020820190508181036000830152610430816103f4565b9050919050565b600080fd5b6000819050919050565b61044f8161043c565b811461045a57600080fd5b50565b60008151905061046c81610446565b92915050565b60006020828403121561048857610487610437565b5b60006104968482850161045d565b91505092915050565b6104a88161043c565b82525050565b60006040820190506104c36000830185610390565b6104d0602083018461049f565b9392505050565b60008115159050919050565b6104ec816104d7565b81146104f757600080fd5b50565b600081519050610509816104e3565b92915050565b60006020828403121561052557610524610437565b5b6000610533848285016104fa565b9150509291505056fea2646970667358221220a7e1973243963475d71f9be565b73f5e34670b524cb49f82b01fd6efce1407a264736f6c63430008110033",
					"opcodes": "PUSH1 0x80 PUSH1 0x40 MSTORE PUSH20 0x2AB0E9E4EE70FFF1FB9D67031E44F6410170D00E PUSH1 0x1 PUSH1 0x0 PUSH2 0x100 EXP DUP2 SLOAD DUP2 PUSH20 0xFFFFFFFFFFFFFFFFFFFFFFFFFFFFFFFFFFFFFFFF MUL NOT AND SWAP1 DUP4 PUSH20 0xFFFFFFFFFFFFFFFFFFFFFFFFFFFFFFFFFFFFFFFF AND MUL OR SWAP1 SSTORE POP CALLVALUE DUP1 ISZERO PUSH2 0x65 JUMPI PUSH1 0x0 DUP1 REVERT JUMPDEST POP CALLER PUSH1 0x0 DUP1 PUSH2 0x100 EXP DUP2 SLOAD DUP2 PUSH20 0xFFFFFFFFFFFFFFFFFFFFFFFFFFFFFFFFFFFFFFFF MUL NOT AND SWAP1 DUP4 PUSH20 0xFFFFFFFFFFFFFFFFFFFFFFFFFFFFFFFFFFFFFFFF AND MUL OR SWAP1 SSTORE POP PUSH2 0x572 DUP1 PUSH2 0xB5 PUSH1 0x0 CODECOPY PUSH1 0x0 RETURN INVALID PUSH1 0x80 PUSH1 0x40 MSTORE PUSH1 0x4 CALLDATASIZE LT PUSH2 0x34 JUMPI PUSH1 0x0 CALLDATALOAD PUSH1 0xE0 SHR DUP1 PUSH4 0x3CCFD60B EQ PUSH2 0x39 JUMPI DUP1 PUSH4 0x62AB1A77 EQ PUSH2 0x43 JUMPI DUP1 PUSH4 0x68AE560D EQ PUSH2 0x6E JUMPI JUMPDEST PUSH1 0x0 DUP1 REVERT JUMPDEST PUSH2 0x41 PUSH2 0x85 JUMP JUMPDEST STOP JUMPDEST CALLVALUE DUP1 ISZERO PUSH2 0x4F JUMPI PUSH1 0x0 DUP1 REVERT JUMPDEST POP PUSH2 0x58 PUSH2 0x15C JUMP JUMPDEST PUSH1 0x40 MLOAD PUSH2 0x65 SWAP2 SWAP1 PUSH2 0x39F JUMP JUMPDEST PUSH1 0x40 MLOAD DUP1 SWAP2 SUB SWAP1 RETURN JUMPDEST CALLVALUE DUP1 ISZERO PUSH2 0x7A JUMPI PUSH1 0x0 DUP1 REVERT JUMPDEST POP PUSH2 0x83 PUSH2 0x182 JUMP JUMPDEST STOP JUMPDEST PUSH1 0x0 DUP1 SLOAD SWAP1 PUSH2 0x100 EXP SWAP1 DIV PUSH20 0xFFFFFFFFFFFFFFFFFFFFFFFFFFFFFFFFFFFFFFFF AND PUSH20 0xFFFFFFFFFFFFFFFFFFFFFFFFFFFFFFFFFFFFFFFF AND CALLER PUSH20 0xFFFFFFFFFFFFFFFFFFFFFFFFFFFFFFFFFFFFFFFF AND EQ PUSH2 0x113 JUMPI PUSH1 0x40 MLOAD PUSH32 0x8C379A000000000000000000000000000000000000000000000000000000000 DUP2 MSTORE PUSH1 0x4 ADD PUSH2 0x10A SWAP1 PUSH2 0x417 JUMP JUMPDEST PUSH1 0x40 MLOAD DUP1 SWAP2 SUB SWAP1 REVERT JUMPDEST CALLER PUSH20 0xFFFFFFFFFFFFFFFFFFFFFFFFFFFFFFFFFFFFFFFF AND PUSH2 0x8FC SELFBALANCE SWAP1 DUP2 ISZERO MUL SWAP1 PUSH1 0x40 MLOAD PUSH1 0x0 PUSH1 0x40 MLOAD DUP1 DUP4 SUB DUP2 DUP6 DUP9 DUP9 CALL SWAP4 POP POP POP POP ISZERO DUP1 ISZERO PUSH2 0x159 JUMPI RETURNDATASIZE PUSH1 0x0 DUP1 RETURNDATACOPY RETURNDATASIZE PUSH1 0x0 REVERT JUMPDEST POP JUMP JUMPDEST PUSH1 0x1 PUSH1 0x0 SWAP1 SLOAD SWAP1 PUSH2 0x100 EXP SWAP1 DIV PUSH20 0xFFFFFFFFFFFFFFFFFFFFFFFFFFFFFFFFFFFFFFFF AND DUP2 JUMP JUMPDEST PUSH1 0x1 PUSH1 0x0 SWAP1 SLOAD SWAP1 PUSH2 0x100 EXP SWAP1 DIV PUSH20 0xFFFFFFFFFFFFFFFFFFFFFFFFFFFFFFFFFFFFFFFF AND PUSH20 0xFFFFFFFFFFFFFFFFFFFFFFFFFFFFFFFFFFFFFFFF AND PUSH4 0x52C7F8DC PUSH1 0x40 MLOAD DUP2 PUSH4 0xFFFFFFFF AND PUSH1 0xE0 SHL DUP2 MSTORE PUSH1 0x4 ADD PUSH1 0x0 PUSH1 0x40 MLOAD DUP1 DUP4 SUB DUP2 PUSH1 0x0 DUP8 DUP1 EXTCODESIZE ISZERO DUP1 ISZERO PUSH2 0x1EC JUMPI PUSH1 0x0 DUP1 REVERT JUMPDEST POP GAS CALL ISZERO DUP1 ISZERO PUSH2 0x200 JUMPI RETURNDATASIZE PUSH1 0x0 DUP1 RETURNDATACOPY RETURNDATASIZE PUSH1 0x0 REVERT JUMPDEST POP POP POP POP PUSH1 0x0 PUSH1 0x1 PUSH1 0x0 SWAP1 SLOAD SWAP1 PUSH2 0x100 EXP SWAP1 DIV PUSH20 0xFFFFFFFFFFFFFFFFFFFFFFFFFFFFFFFFFFFFFFFF AND PUSH20 0xFFFFFFFFFFFFFFFFFFFFFFFFFFFFFFFFFFFFFFFF AND PUSH4 0x70A08231 ADDRESS PUSH1 0x40 MLOAD DUP3 PUSH4 0xFFFFFFFF AND PUSH1 0xE0 SHL DUP2 MSTORE PUSH1 0x4 ADD PUSH2 0x261 SWAP2 SWAP1 PUSH2 0x39F JUMP JUMPDEST PUSH1 0x20 PUSH1 0x40 MLOAD DUP1 DUP4 SUB DUP2 DUP7 GAS STATICCALL ISZERO DUP1 ISZERO PUSH2 0x27E JUMPI RETURNDATASIZE PUSH1 0x0 DUP1 RETURNDATACOPY RETURNDATASIZE PUSH1 0x0 REVERT JUMPDEST POP POP POP POP PUSH1 0x40 MLOAD RETURNDATASIZE PUSH1 0x1F NOT PUSH1 0x1F DUP3 ADD AND DUP3 ADD DUP1 PUSH1 0x40 MSTORE POP DUP2 ADD SWAP1 PUSH2 0x2A2 SWAP2 SWAP1 PUSH2 0x472 JUMP JUMPDEST SWAP1 POP PUSH1 0x1 PUSH1 0x0 SWAP1 SLOAD SWAP1 PUSH2 0x100 EXP SWAP1 DIV PUSH20 0xFFFFFFFFFFFFFFFFFFFFFFFFFFFFFFFFFFFFFFFF AND PUSH20 0xFFFFFFFFFFFFFFFFFFFFFFFFFFFFFFFFFFFFFFFF AND PUSH4 0xA9059CBB CALLER DUP4 PUSH1 0x40 MLOAD DUP4 PUSH4 0xFFFFFFFF AND PUSH1 0xE0 SHL DUP2 MSTORE PUSH1 0x4 ADD PUSH2 0x301 SWAP3 SWAP2 SWAP1 PUSH2 0x4AE JUMP JUMPDEST PUSH1 0x20 PUSH1 0x40 MLOAD DUP1 DUP4 SUB DUP2 PUSH1 0x0 DUP8 GAS CALL ISZERO DUP1 ISZERO PUSH2 0x320 JUMPI RETURNDATASIZE PUSH1 0x0 DUP1 RETURNDATACOPY RETURNDATASIZE PUSH1 0x0 REVERT JUMPDEST POP POP POP POP PUSH1 0x40 MLOAD RETURNDATASIZE PUSH1 0x1F NOT PUSH1 0x1F DUP3 ADD AND DUP3 ADD DUP1 PUSH1 0x40 MSTORE POP DUP2 ADD SWAP1 PUSH2 0x344 SWAP2 SWAP1 PUSH2 0x50F JUMP JUMPDEST POP CALLER PUSH20 0xFFFFFFFFFFFFFFFFFFFFFFFFFFFFFFFFFFFFFFFF AND SELFDESTRUCT JUMPDEST PUSH1 0x0 PUSH20 0xFFFFFFFFFFFFFFFFFFFFFFFFFFFFFFFFFFFFFFFF DUP3 AND SWAP1 POP SWAP2 SWAP1 POP JUMP JUMPDEST PUSH1 0x0 PUSH2 0x389 DUP3 PUSH2 0x35E JUMP JUMPDEST SWAP1 POP SWAP2 SWAP1 POP JUMP JUMPDEST PUSH2 0x399 DUP2 PUSH2 0x37E JUMP JUMPDEST DUP3 MSTORE POP POP JUMP JUMPDEST PUSH1 0x0 PUSH1 0x20 DUP3 ADD SWAP1 POP PUSH2 0x3B4 PUSH1 0x0 DUP4 ADD DUP5 PUSH2 0x390 JUMP JUMPDEST SWAP3 SWAP2 POP POP JUMP JUMPDEST PUSH1 0x0 DUP3 DUP3 MSTORE PUSH1 0x20 DUP3 ADD SWAP1 POP SWAP3 SWAP2 POP POP JUMP JUMPDEST PUSH32 0x6E6F74206F776E65722100000000000000000000000000000000000000000000 PUSH1 0x0 DUP3 ADD MSTORE POP JUMP JUMPDEST PUSH1 0x0 PUSH2 0x401 PUSH1 0xA DUP4 PUSH2 0x3BA JUMP JUMPDEST SWAP2 POP PUSH2 0x40C DUP3 PUSH2 0x3CB JUMP JUMPDEST PUSH1 0x20 DUP3 ADD SWAP1 POP SWAP2 SWAP1 POP JUMP JUMPDEST PUSH1 0x0 PUSH1 0x20 DUP3 ADD SWAP1 POP DUP2 DUP2 SUB PUSH1 0x0 DUP4 ADD MSTORE PUSH2 0x430 DUP2 PUSH2 0x3F4 JUMP JUMPDEST SWAP1 POP SWAP2 SWAP1 POP JUMP JUMPDEST PUSH1 0x0 DUP1 REVERT JUMPDEST PUSH1 0x0 DUP2 SWAP1 POP SWAP2 SWAP1 POP JUMP JUMPDEST PUSH2 0x44F DUP2 PUSH2 0x43C JUMP JUMPDEST DUP2 EQ PUSH2 0x45A JUMPI PUSH1 0x0 DUP1 REVERT JUMPDEST POP JUMP JUMPDEST PUSH1 0x0 DUP2 MLOAD SWAP1 POP PUSH2 0x46C DUP2 PUSH2 0x446 JUMP JUMPDEST SWAP3 SWAP2 POP POP JUMP JUMPDEST PUSH1 0x0 PUSH1 0x20 DUP3 DUP5 SUB SLT ISZERO PUSH2 0x488 JUMPI PUSH2 0x487 PUSH2 0x437 JUMP JUMPDEST JUMPDEST PUSH1 0x0 PUSH2 0x496 DUP5 DUP3 DUP6 ADD PUSH2 0x45D JUMP JUMPDEST SWAP2 POP POP SWAP3 SWAP2 POP POP JUMP JUMPDEST PUSH2 0x4A8 DUP2 PUSH2 0x43C JUMP JUMPDEST DUP3 MSTORE POP POP JUMP JUMPDEST PUSH1 0x0 PUSH1 0x40 DUP3 ADD SWAP1 POP PUSH2 0x4C3 PUSH1 0x0 DUP4 ADD DUP6 PUSH2 0x390 JUMP JUMPDEST PUSH2 0x4D0 PUSH1 0x20 DUP4 ADD DUP5 PUSH2 0x49F JUMP JUMPDEST SWAP4 SWAP3 POP POP POP JUMP JUMPDEST PUSH1 0x0 DUP2 ISZERO ISZERO SWAP1 POP SWAP2 SWAP1 POP JUMP JUMPDEST PUSH2 0x4EC DUP2 PUSH2 0x4D7 JUMP JUMPDEST DUP2 EQ PUSH2 0x4F7 JUMPI PUSH1 0x0 DUP1 REVERT JUMPDEST POP JUMP JUMPDEST PUSH1 0x0 DUP2 MLOAD SWAP1 POP PUSH2 0x509 DUP2 PUSH2 0x4E3 JUMP JUMPDEST SWAP3 SWAP2 POP POP JUMP JUMPDEST PUSH1 0x0 PUSH1 0x20 DUP3 DUP5 SUB SLT ISZERO PUSH2 0x525 JUMPI PUSH2 0x524 PUSH2 0x437 JUMP JUMPDEST JUMPDEST PUSH1 0x0 PUSH2 0x533 DUP5 DUP3 DUP6 ADD PUSH2 0x4FA JUMP JUMPDEST SWAP2 POP POP SWAP3 SWAP2 POP POP JUMP INVALID LOG2 PUSH5 0x6970667358 0x22 SLT KECCAK256 0xA7 0xE1 SWAP8 ORIGIN NUMBER SWAP7 CALLVALUE PUSH22 0xD71F9BE565B73F5E34670B524CB49F82B01FD6EFCE14 SMOD LOG2 PUSH5 0x736F6C6343 STOP ADDMOD GT STOP CALLER "
				},
				"gasEstimates": {
					"creation": {
						"codeDepositCost": "278800",
						"executionCost": "48851",
						"totalCost": "327651"
					},
					"external": {
						"_addr()": "2514",
						"rewardAndTransfer()": "infinite",
						"withdraw()": "infinite"
					},
					"internal": {
						"claimxen()": "infinite"
					}
				},
				"methodIdentifiers": {
					"_addr()": "62ab1a77",
					"rewardAndTransfer()": "68ae560d",
					"withdraw()": "3ccfd60b"
				}
			},
			"storageLayout": {
				"storage": [
					{
						"astId": 28,
						"contract": "XenActive.sol:recevieDemo",
						"label": "owner",
						"offset": 0,
						"slot": "0",
						"type": "t_address_payable"
					},
					{
						"astId": 31,
						"contract": "XenActive.sol:recevieDemo",
						"label": "_addr",
						"offset": 0,
						"slot": "1",
						"type": "t_address"
					}
				],
				"types": {
					"t_address": {
						"encoding": "inplace",
						"label": "address",
						"numberOfBytes": "20"
					},
					"t_address_payable": {
						"encoding": "inplace",
						"label": "address payable",
						"numberOfBytes": "20"
					}
				}
			},
			"userdoc": {
				"kind": "user",
				"methods": {},
				"version": 1
			}
		}
	}
}