{
	"transferETH.sol": {
		"ReceiveETH": {
			"abi": [
				{
					"inputs": [],
					"name": "CallFailed",
					"type": "error"
				},
				{
					"inputs": [],
					"name": "SendFailed",
					"type": "error"
				},
				{
					"anonymous": false,
					"inputs": [
						{
							"indexed": false,
							"internalType": "uint256",
							"name": "amount",
							"type": "uint256"
						},
						{
							"indexed": false,
							"internalType": "uint256",
							"name": "gas",
							"type": "uint256"
						}
					],
					"name": "Log",
					"type": "event"
				},
				{
					"inputs": [
						{
							"internalType": "address payable",
							"name": "_to",
							"type": "address"
						},
						{
							"internalType": "uint256",
							"name": "amount",
							"type": "uint256"
						}
					],
					"name": "callETH",
					"outputs": [],
					"stateMutability": "payable",
					"type": "function"
				},
				{
					"inputs": [],
					"name": "getBalance",
					"outputs": [
						{
							"internalType": "uint256",
							"name": "",
							"type": "uint256"
						}
					],
					"stateMutability": "view",
					"type": "function"
				},
				{
					"inputs": [
						{
							"internalType": "address payable",
							"name": "_to",
							"type": "address"
						},
						{
							"internalType": "uint256",
							"name": "amount",
							"type": "uint256"
						}
					],
					"name": "sendETH",
					"outputs": [],
					"stateMutability": "payable",
					"type": "function"
				},
				{
					"inputs": [
						{
							"internalType": "address payable",
							"name": "_to",
							"type": "address"
						},
						{
							"internalType": "uint256",
							"name": "amount",
							"type": "uint256"
						}
					],
					"name": "transferETH",
					"outputs": [],
					"stateMutability": "payable",
					"type": "function"
				},
				{
					"stateMutability": "payable",
					"type": "receive"
				}
			],
			"devdoc": {
				"kind": "dev",
				"methods": {},
				"version": 1
			},
			"evm": {
				"assembly": "    /* \"transferETH.sol\":76:1272  contract ReceiveETH {... */\n  mstore(0x40, 0x80)\n  callvalue\n  dup1\n  iszero\n  tag_1\n  jumpi\n  0x00\n  dup1\n  revert\ntag_1:\n  pop\n  dataSize(sub_0)\n  dup1\n  dataOffset(sub_0)\n  0x00\n  codecopy\n  0x00\n  return\nstop\n\nsub_0: assembly {\n        /* \"transferETH.sol\":76:1272  contract ReceiveETH {... */\n      mstore(0x40, 0x80)\n      jumpi(tag_1, lt(calldatasize, 0x04))\n      shr(0xe0, calldataload(0x00))\n      dup1\n      0x12065fe0\n      eq\n      tag_3\n      jumpi\n      dup1\n      0x64a197f3\n      eq\n      tag_4\n      jumpi\n      dup1\n      0x7b1a4909\n      eq\n      tag_5\n      jumpi\n      dup1\n      0x8419cf50\n      eq\n      tag_6\n      jumpi\n      jump(tag_2)\n    tag_1:\n      jumpi(tag_2, calldatasize)\n        /* \"transferETH.sol\":331:356  Log(msg.value, gasleft()) */\n      0xbd0faddf87043dd749c1b9d4dca8a12589b8cb5e2106832111ce23f219b14367\n        /* \"transferETH.sol\":335:344  msg.value */\n      callvalue\n        /* \"transferETH.sol\":346:355  gasleft() */\n      gas\n        /* \"transferETH.sol\":331:356  Log(msg.value, gasleft()) */\n      mload(0x40)\n      tag_9\n      swap3\n      swap2\n      swap1\n      tag_10\n      jump\t// in\n    tag_9:\n      mload(0x40)\n      dup1\n      swap2\n      sub\n      swap1\n      log1\n        /* \"transferETH.sol\":76:1272  contract ReceiveETH {... */\n      stop\n    tag_2:\n      0x00\n      dup1\n      revert\n        /* \"transferETH.sol\":406:501  function getBalance() view public returns(uint) {... */\n    tag_3:\n      callvalue\n      dup1\n      iszero\n      tag_11\n      jumpi\n      0x00\n      dup1\n      revert\n    tag_11:\n      pop\n      tag_12\n      tag_13\n      jump\t// in\n    tag_12:\n      mload(0x40)\n      tag_14\n      swap2\n      swap1\n      tag_15\n      jump\t// in\n    tag_14:\n      mload(0x40)\n      dup1\n      swap2\n      sub\n      swap1\n      return\n        /* \"transferETH.sol\":683:953  function sendETH(address payable _to, uint256 amount) external payable{... */\n    tag_4:\n      tag_16\n      0x04\n      dup1\n      calldatasize\n      sub\n      dup2\n      add\n      swap1\n      tag_17\n      swap2\n      swap1\n      tag_18\n      jump\t// in\n    tag_17:\n      tag_19\n      jump\t// in\n    tag_16:\n      stop\n        /* \"transferETH.sol\":538:651  function transferETH(address payable _to, uint256 amount) external payable{... */\n    tag_5:\n      tag_20\n      0x04\n      dup1\n      calldatasize\n      sub\n      dup2\n      add\n      swap1\n      tag_21\n      swap2\n      swap1\n      tag_18\n      jump\t// in\n    tag_21:\n      tag_22\n      jump\t// in\n    tag_20:\n      stop\n        /* \"transferETH.sol\":985:1269  function callETH(address payable _to, uint256 amount) external payable{... */\n    tag_6:\n      tag_23\n      0x04\n      dup1\n      calldatasize\n      sub\n      dup2\n      add\n      swap1\n      tag_24\n      swap2\n      swap1\n      tag_18\n      jump\t// in\n    tag_24:\n      tag_25\n      jump\t// in\n    tag_23:\n      stop\n        /* \"transferETH.sol\":406:501  function getBalance() view public returns(uint) {... */\n    tag_13:\n        /* \"transferETH.sol\":448:452  uint */\n      0x00\n        /* \"transferETH.sol\":472:493  address(this).balance */\n      selfbalance\n        /* \"transferETH.sol\":465:493  return address(this).balance */\n      swap1\n      pop\n        /* \"transferETH.sol\":406:501  function getBalance() view public returns(uint) {... */\n      swap1\n      jump\t// out\n        /* \"transferETH.sol\":683:953  function sendETH(address payable _to, uint256 amount) external payable{... */\n    tag_19:\n        /* \"transferETH.sol\":846:858  bool success */\n      0x00\n        /* \"transferETH.sol\":861:864  _to */\n      dup3\n        /* \"transferETH.sol\":861:869  _to.send */\n      0xffffffffffffffffffffffffffffffffffffffff\n      and\n        /* \"transferETH.sol\":861:877  _to.send(amount) */\n      0x08fc\n        /* \"transferETH.sol\":870:876  amount */\n      dup4\n        /* \"transferETH.sol\":861:877  _to.send(amount) */\n      swap1\n      dup2\n      iszero\n      mul\n      swap1\n      mload(0x40)\n      0x00\n      mload(0x40)\n      dup1\n      dup4\n      sub\n      dup2\n      dup6\n      dup9\n      dup9\n      call\n      swap4\n      pop\n      pop\n      pop\n      pop\n        /* \"transferETH.sol\":846:877  bool success = _to.send(amount) */\n      swap1\n      pop\n        /* \"transferETH.sol\":892:899  success */\n      dup1\n        /* \"transferETH.sol\":888:946  if(!success){... */\n      tag_29\n      jumpi\n        /* \"transferETH.sol\":922:934  SendFailed() */\n      mload(0x40)\n      0x81063e5100000000000000000000000000000000000000000000000000000000\n      dup2\n      mstore\n      0x04\n      add\n      mload(0x40)\n      dup1\n      swap2\n      sub\n      swap1\n      revert\n        /* \"transferETH.sol\":888:946  if(!success){... */\n    tag_29:\n        /* \"transferETH.sol\":753:953  {... */\n      pop\n        /* \"transferETH.sol\":683:953  function sendETH(address payable _to, uint256 amount) external payable{... */\n      pop\n      pop\n      jump\t// out\n        /* \"transferETH.sol\":538:651  function transferETH(address payable _to, uint256 amount) external payable{... */\n    tag_22:\n        /* \"transferETH.sol\":623:626  _to */\n      dup2\n        /* \"transferETH.sol\":623:635  _to.transfer */\n      0xffffffffffffffffffffffffffffffffffffffff\n      and\n        /* \"transferETH.sol\":623:643  _to.transfer(amount) */\n      0x08fc\n        /* \"transferETH.sol\":636:642  amount */\n      dup3\n        /* \"transferETH.sol\":623:643  _to.transfer(amount) */\n      swap1\n      dup2\n      iszero\n      mul\n      swap1\n      mload(0x40)\n      0x00\n      mload(0x40)\n      dup1\n      dup4\n      sub\n      dup2\n      dup6\n      dup9\n      dup9\n      call\n      swap4\n      pop\n      pop\n      pop\n      pop\n      iszero\n      dup1\n      iszero\n      tag_32\n      jumpi\n      returndatasize\n      0x00\n      dup1\n      returndatacopy\n      revert(0x00, returndatasize)\n    tag_32:\n      pop\n        /* \"transferETH.sol\":538:651  function transferETH(address payable _to, uint256 amount) external payable{... */\n      pop\n      pop\n      jump\t// out\n        /* \"transferETH.sol\":985:1269  function callETH(address payable _to, uint256 amount) external payable{... */\n    tag_25:\n        /* \"transferETH.sol\":1149:1161  bool success */\n      0x00\n        /* \"transferETH.sol\":1166:1169  _to */\n      dup3\n        /* \"transferETH.sol\":1166:1174  _to.call */\n      0xffffffffffffffffffffffffffffffffffffffff\n      and\n        /* \"transferETH.sol\":1182:1188  amount */\n      dup3\n        /* \"transferETH.sol\":1166:1193  _to.call{value: amount}(\"\") */\n      mload(0x40)\n      tag_34\n      swap1\n      tag_35\n      jump\t// in\n    tag_34:\n      0x00\n      mload(0x40)\n      dup1\n      dup4\n      sub\n      dup2\n      dup6\n      dup8\n      gas\n      call\n      swap3\n      pop\n      pop\n      pop\n      returndatasize\n      dup1\n      0x00\n      dup2\n      eq\n      tag_38\n      jumpi\n      mload(0x40)\n      swap2\n      pop\n      and(add(returndatasize, 0x3f), not(0x1f))\n      dup3\n      add\n      0x40\n      mstore\n      returndatasize\n      dup3\n      mstore\n      returndatasize\n      0x00\n      0x20\n      dup5\n      add\n      returndatacopy\n      jump(tag_37)\n    tag_38:\n      0x60\n      swap2\n      pop\n    tag_37:\n      pop\n        /* \"transferETH.sol\":1148:1193  (bool success,) = _to.call{value: amount}(\"\") */\n      pop\n      swap1\n      pop\n        /* \"transferETH.sol\":1208:1215  success */\n      dup1\n        /* \"transferETH.sol\":1204:1262  if(!success){... */\n      tag_39\n      jumpi\n        /* \"transferETH.sol\":1238:1250  CallFailed() */\n      mload(0x40)\n      0x3204506f00000000000000000000000000000000000000000000000000000000\n      dup2\n      mstore\n      0x04\n      add\n      mload(0x40)\n      dup1\n      swap2\n      sub\n      swap1\n      revert\n        /* \"transferETH.sol\":1204:1262  if(!success){... */\n    tag_39:\n        /* \"transferETH.sol\":1055:1269  {... */\n      pop\n        /* \"transferETH.sol\":985:1269  function callETH(address payable _to, uint256 amount) external payable{... */\n      pop\n      pop\n      jump\t// out\n        /* \"#utility.yul\":7:84   */\n    tag_40:\n        /* \"#utility.yul\":44:51   */\n      0x00\n        /* \"#utility.yul\":73:78   */\n      dup2\n        /* \"#utility.yul\":62:78   */\n      swap1\n      pop\n        /* \"#utility.yul\":7:84   */\n      swap2\n      swap1\n      pop\n      jump\t// out\n        /* \"#utility.yul\":90:208   */\n    tag_41:\n        /* \"#utility.yul\":177:201   */\n      tag_57\n        /* \"#utility.yul\":195:200   */\n      dup2\n        /* \"#utility.yul\":177:201   */\n      tag_40\n      jump\t// in\n    tag_57:\n        /* \"#utility.yul\":172:175   */\n      dup3\n        /* \"#utility.yul\":165:202   */\n      mstore\n        /* \"#utility.yul\":90:208   */\n      pop\n      pop\n      jump\t// out\n        /* \"#utility.yul\":214:546   */\n    tag_10:\n        /* \"#utility.yul\":335:339   */\n      0x00\n        /* \"#utility.yul\":373:375   */\n      0x40\n        /* \"#utility.yul\":362:371   */\n      dup3\n        /* \"#utility.yul\":358:376   */\n      add\n        /* \"#utility.yul\":350:376   */\n      swap1\n      pop\n        /* \"#utility.yul\":386:457   */\n      tag_59\n        /* \"#utility.yul\":454:455   */\n      0x00\n        /* \"#utility.yul\":443:452   */\n      dup4\n        /* \"#utility.yul\":439:456   */\n      add\n        /* \"#utility.yul\":430:436   */\n      dup6\n        /* \"#utility.yul\":386:457   */\n      tag_41\n      jump\t// in\n    tag_59:\n        /* \"#utility.yul\":467:539   */\n      tag_60\n        /* \"#utility.yul\":535:537   */\n      0x20\n        /* \"#utility.yul\":524:533   */\n      dup4\n        /* \"#utility.yul\":520:538   */\n      add\n        /* \"#utility.yul\":511:517   */\n      dup5\n        /* \"#utility.yul\":467:539   */\n      tag_41\n      jump\t// in\n    tag_60:\n        /* \"#utility.yul\":214:546   */\n      swap4\n      swap3\n      pop\n      pop\n      pop\n      jump\t// out\n        /* \"#utility.yul\":552:774   */\n    tag_15:\n        /* \"#utility.yul\":645:649   */\n      0x00\n        /* \"#utility.yul\":683:685   */\n      0x20\n        /* \"#utility.yul\":672:681   */\n      dup3\n        /* \"#utility.yul\":668:686   */\n      add\n        /* \"#utility.yul\":660:686   */\n      swap1\n      pop\n        /* \"#utility.yul\":696:767   */\n      tag_62\n        /* \"#utility.yul\":764:765   */\n      0x00\n        /* \"#utility.yul\":753:762   */\n      dup4\n        /* \"#utility.yul\":749:766   */\n      add\n        /* \"#utility.yul\":740:746   */\n      dup5\n        /* \"#utility.yul\":696:767   */\n      tag_41\n      jump\t// in\n    tag_62:\n        /* \"#utility.yul\":552:774   */\n      swap3\n      swap2\n      pop\n      pop\n      jump\t// out\n        /* \"#utility.yul\":861:978   */\n    tag_43:\n        /* \"#utility.yul\":970:971   */\n      0x00\n        /* \"#utility.yul\":967:968   */\n      dup1\n        /* \"#utility.yul\":960:972   */\n      revert\n        /* \"#utility.yul\":1107:1233   */\n    tag_45:\n        /* \"#utility.yul\":1144:1151   */\n      0x00\n        /* \"#utility.yul\":1184:1226   */\n      0xffffffffffffffffffffffffffffffffffffffff\n        /* \"#utility.yul\":1177:1182   */\n      dup3\n        /* \"#utility.yul\":1173:1227   */\n      and\n        /* \"#utility.yul\":1162:1227   */\n      swap1\n      pop\n        /* \"#utility.yul\":1107:1233   */\n      swap2\n      swap1\n      pop\n      jump\t// out\n        /* \"#utility.yul\":1239:1343   */\n    tag_46:\n        /* \"#utility.yul\":1284:1291   */\n      0x00\n        /* \"#utility.yul\":1313:1337   */\n      tag_68\n        /* \"#utility.yul\":1331:1336   */\n      dup3\n        /* \"#utility.yul\":1313:1337   */\n      tag_45\n      jump\t// in\n    tag_68:\n        /* \"#utility.yul\":1302:1337   */\n      swap1\n      pop\n        /* \"#utility.yul\":1239:1343   */\n      swap2\n      swap1\n      pop\n      jump\t// out\n        /* \"#utility.yul\":1349:1487   */\n    tag_47:\n        /* \"#utility.yul\":1430:1462   */\n      tag_70\n        /* \"#utility.yul\":1456:1461   */\n      dup2\n        /* \"#utility.yul\":1430:1462   */\n      tag_46\n      jump\t// in\n    tag_70:\n        /* \"#utility.yul\":1423:1428   */\n      dup2\n        /* \"#utility.yul\":1420:1463   */\n      eq\n        /* \"#utility.yul\":1410:1481   */\n      tag_71\n      jumpi\n        /* \"#utility.yul\":1477:1478   */\n      0x00\n        /* \"#utility.yul\":1474:1475   */\n      dup1\n        /* \"#utility.yul\":1467:1479   */\n      revert\n        /* \"#utility.yul\":1410:1481   */\n    tag_71:\n        /* \"#utility.yul\":1349:1487   */\n      pop\n      jump\t// out\n        /* \"#utility.yul\":1493:1648   */\n    tag_48:\n        /* \"#utility.yul\":1547:1552   */\n      0x00\n        /* \"#utility.yul\":1585:1591   */\n      dup2\n        /* \"#utility.yul\":1572:1592   */\n      calldataload\n        /* \"#utility.yul\":1563:1592   */\n      swap1\n      pop\n        /* \"#utility.yul\":1601:1642   */\n      tag_73\n        /* \"#utility.yul\":1636:1641   */\n      dup2\n        /* \"#utility.yul\":1601:1642   */\n      tag_47\n      jump\t// in\n    tag_73:\n        /* \"#utility.yul\":1493:1648   */\n      swap3\n      swap2\n      pop\n      pop\n      jump\t// out\n        /* \"#utility.yul\":1654:1776   */\n    tag_49:\n        /* \"#utility.yul\":1727:1751   */\n      tag_75\n        /* \"#utility.yul\":1745:1750   */\n      dup2\n        /* \"#utility.yul\":1727:1751   */\n      tag_40\n      jump\t// in\n    tag_75:\n        /* \"#utility.yul\":1720:1725   */\n      dup2\n        /* \"#utility.yul\":1717:1752   */\n      eq\n        /* \"#utility.yul\":1707:1770   */\n      tag_76\n      jumpi\n        /* \"#utility.yul\":1766:1767   */\n      0x00\n        /* \"#utility.yul\":1763:1764   */\n      dup1\n        /* \"#utility.yul\":1756:1768   */\n      revert\n        /* \"#utility.yul\":1707:1770   */\n    tag_76:\n        /* \"#utility.yul\":1654:1776   */\n      pop\n      jump\t// out\n        /* \"#utility.yul\":1782:1921   */\n    tag_50:\n        /* \"#utility.yul\":1828:1833   */\n      0x00\n        /* \"#utility.yul\":1866:1872   */\n      dup2\n        /* \"#utility.yul\":1853:1873   */\n      calldataload\n        /* \"#utility.yul\":1844:1873   */\n      swap1\n      pop\n        /* \"#utility.yul\":1882:1915   */\n      tag_78\n        /* \"#utility.yul\":1909:1914   */\n      dup2\n        /* \"#utility.yul\":1882:1915   */\n      tag_49\n      jump\t// in\n    tag_78:\n        /* \"#utility.yul\":1782:1921   */\n      swap3\n      swap2\n      pop\n      pop\n      jump\t// out\n        /* \"#utility.yul\":1927:2417   */\n    tag_18:\n        /* \"#utility.yul\":2003:2009   */\n      0x00\n        /* \"#utility.yul\":2011:2017   */\n      dup1\n        /* \"#utility.yul\":2060:2062   */\n      0x40\n        /* \"#utility.yul\":2048:2057   */\n      dup4\n        /* \"#utility.yul\":2039:2046   */\n      dup6\n        /* \"#utility.yul\":2035:2058   */\n      sub\n        /* \"#utility.yul\":2031:2063   */\n      slt\n        /* \"#utility.yul\":2028:2147   */\n      iszero\n      tag_80\n      jumpi\n        /* \"#utility.yul\":2066:2145   */\n      tag_81\n      tag_43\n      jump\t// in\n    tag_81:\n        /* \"#utility.yul\":2028:2147   */\n    tag_80:\n        /* \"#utility.yul\":2186:2187   */\n      0x00\n        /* \"#utility.yul\":2211:2272   */\n      tag_82\n        /* \"#utility.yul\":2264:2271   */\n      dup6\n        /* \"#utility.yul\":2255:2261   */\n      dup3\n        /* \"#utility.yul\":2244:2253   */\n      dup7\n        /* \"#utility.yul\":2240:2262   */\n      add\n        /* \"#utility.yul\":2211:2272   */\n      tag_48\n      jump\t// in\n    tag_82:\n        /* \"#utility.yul\":2201:2272   */\n      swap3\n      pop\n        /* \"#utility.yul\":2157:2282   */\n      pop\n        /* \"#utility.yul\":2321:2323   */\n      0x20\n        /* \"#utility.yul\":2347:2400   */\n      tag_83\n        /* \"#utility.yul\":2392:2399   */\n      dup6\n        /* \"#utility.yul\":2383:2389   */\n      dup3\n        /* \"#utility.yul\":2372:2381   */\n      dup7\n        /* \"#utility.yul\":2368:2390   */\n      add\n        /* \"#utility.yul\":2347:2400   */\n      tag_50\n      jump\t// in\n    tag_83:\n        /* \"#utility.yul\":2337:2400   */\n      swap2\n      pop\n        /* \"#utility.yul\":2292:2410   */\n      pop\n        /* \"#utility.yul\":1927:2417   */\n      swap3\n      pop\n      swap3\n      swap1\n      pop\n      jump\t// out\n        /* \"#utility.yul\":2423:2570   */\n    tag_51:\n        /* \"#utility.yul\":2524:2535   */\n      0x00\n        /* \"#utility.yul\":2561:2564   */\n      dup2\n        /* \"#utility.yul\":2546:2564   */\n      swap1\n      pop\n        /* \"#utility.yul\":2423:2570   */\n      swap3\n      swap2\n      pop\n      pop\n      jump\t// out\n        /* \"#utility.yul\":2576:2690   */\n    tag_52:\n      pop\n      jump\t// out\n        /* \"#utility.yul\":2696:3094   */\n    tag_53:\n        /* \"#utility.yul\":2855:2858   */\n      0x00\n        /* \"#utility.yul\":2876:2959   */\n      tag_87\n        /* \"#utility.yul\":2957:2958   */\n      0x00\n        /* \"#utility.yul\":2952:2955   */\n      dup4\n        /* \"#utility.yul\":2876:2959   */\n      tag_51\n      jump\t// in\n    tag_87:\n        /* \"#utility.yul\":2869:2959   */\n      swap2\n      pop\n        /* \"#utility.yul\":2968:3061   */\n      tag_88\n        /* \"#utility.yul\":3057:3060   */\n      dup3\n        /* \"#utility.yul\":2968:3061   */\n      tag_52\n      jump\t// in\n    tag_88:\n        /* \"#utility.yul\":3086:3087   */\n      0x00\n        /* \"#utility.yul\":3081:3084   */\n      dup3\n        /* \"#utility.yul\":3077:3088   */\n      add\n        /* \"#utility.yul\":3070:3088   */\n      swap1\n      pop\n        /* \"#utility.yul\":2696:3094   */\n      swap2\n      swap1\n      pop\n      jump\t// out\n        /* \"#utility.yul\":3100:3479   */\n    tag_35:\n        /* \"#utility.yul\":3284:3287   */\n      0x00\n        /* \"#utility.yul\":3306:3453   */\n      tag_90\n        /* \"#utility.yul\":3449:3452   */\n      dup3\n        /* \"#utility.yul\":3306:3453   */\n      tag_53\n      jump\t// in\n    tag_90:\n        /* \"#utility.yul\":3299:3453   */\n      swap2\n      pop\n        /* \"#utility.yul\":3470:3473   */\n      dup2\n        /* \"#utility.yul\":3463:3473   */\n      swap1\n      pop\n        /* \"#utility.yul\":3100:3479   */\n      swap2\n      swap1\n      pop\n      jump\t// out\n\n    auxdata: 0xa2646970667358221220a5b5e46429c9ff2ed45bfa106679fec85326cea5bc1ee4b871672103f2b3dbce64736f6c63430008110033\n}\n",
				"bytecode": {
					"linkReferences": {},
					"object": "608060405234801561001057600080fd5b5061041f806100206000396000f3fe6080604052600436106100435760003560e01c806312065fe01461008857806364a197f3146100b35780637b1a4909146100cf5780638419cf50146100eb57610083565b36610083577fbd0faddf87043dd749c1b9d4dca8a12589b8cb5e2106832111ce23f219b14367345a604051610079929190610290565b60405180910390a1005b600080fd5b34801561009457600080fd5b5061009d610107565b6040516100aa91906102b9565b60405180910390f35b6100cd60048036038101906100c89190610363565b61010f565b005b6100e960048036038101906100e49190610363565b610184565b005b61010560048036038101906101009190610363565b6101cf565b005b600047905090565b60008273ffffffffffffffffffffffffffffffffffffffff166108fc839081150290604051600060405180830381858888f1935050505090508061017f576040517f81063e5100000000000000000000000000000000000000000000000000000000815260040160405180910390fd5b505050565b8173ffffffffffffffffffffffffffffffffffffffff166108fc829081150290604051600060405180830381858888f193505050501580156101ca573d6000803e3d6000fd5b505050565b60008273ffffffffffffffffffffffffffffffffffffffff16826040516101f5906103d4565b60006040518083038185875af1925050503d8060008114610232576040519150601f19603f3d011682016040523d82523d6000602084013e610237565b606091505b5050905080610272576040517f3204506f00000000000000000000000000000000000000000000000000000000815260040160405180910390fd5b505050565b6000819050919050565b61028a81610277565b82525050565b60006040820190506102a56000830185610281565b6102b26020830184610281565b9392505050565b60006020820190506102ce6000830184610281565b92915050565b600080fd5b600073ffffffffffffffffffffffffffffffffffffffff82169050919050565b6000610304826102d9565b9050919050565b610314816102f9565b811461031f57600080fd5b50565b6000813590506103318161030b565b92915050565b61034081610277565b811461034b57600080fd5b50565b60008135905061035d81610337565b92915050565b6000806040838503121561037a576103796102d4565b5b600061038885828601610322565b92505060206103998582860161034e565b9150509250929050565b600081905092915050565b50565b60006103be6000836103a3565b91506103c9826103ae565b600082019050919050565b60006103df826103b1565b915081905091905056fea2646970667358221220a5b5e46429c9ff2ed45bfa106679fec85326cea5bc1ee4b871672103f2b3dbce64736f6c63430008110033",
					"opcodes": "PUSH1 0x80 PUSH1 0x40 MSTORE CALLVALUE DUP1 ISZERO PUSH2 0x10 JUMPI PUSH1 0x0 DUP1 REVERT JUMPDEST POP PUSH2 0x41F DUP1 PUSH2 0x20 PUSH1 0x0 CODECOPY PUSH1 0x0 RETURN INVALID PUSH1 0x80 PUSH1 0x40 MSTORE PUSH1 0x4 CALLDATASIZE LT PUSH2 0x43 JUMPI PUSH1 0x0 CALLDATALOAD PUSH1 0xE0 SHR DUP1 PUSH4 0x12065FE0 EQ PUSH2 0x88 JUMPI DUP1 PUSH4 0x64A197F3 EQ PUSH2 0xB3 JUMPI DUP1 PUSH4 0x7B1A4909 EQ PUSH2 0xCF JUMPI DUP1 PUSH4 0x8419CF50 EQ PUSH2 0xEB JUMPI PUSH2 0x83 JUMP JUMPDEST CALLDATASIZE PUSH2 0x83 JUMPI PUSH32 0xBD0FADDF87043DD749C1B9D4DCA8A12589B8CB5E2106832111CE23F219B14367 CALLVALUE GAS PUSH1 0x40 MLOAD PUSH2 0x79 SWAP3 SWAP2 SWAP1 PUSH2 0x290 JUMP JUMPDEST PUSH1 0x40 MLOAD DUP1 SWAP2 SUB SWAP1 LOG1 STOP JUMPDEST PUSH1 0x0 DUP1 REVERT JUMPDEST CALLVALUE DUP1 ISZERO PUSH2 0x94 JUMPI PUSH1 0x0 DUP1 REVERT JUMPDEST POP PUSH2 0x9D PUSH2 0x107 JUMP JUMPDEST PUSH1 0x40 MLOAD PUSH2 0xAA SWAP2 SWAP1 PUSH2 0x2B9 JUMP JUMPDEST PUSH1 0x40 MLOAD DUP1 SWAP2 SUB SWAP1 RETURN JUMPDEST PUSH2 0xCD PUSH1 0x4 DUP1 CALLDATASIZE SUB DUP2 ADD SWAP1 PUSH2 0xC8 SWAP2 SWAP1 PUSH2 0x363 JUMP JUMPDEST PUSH2 0x10F JUMP JUMPDEST STOP JUMPDEST PUSH2 0xE9 PUSH1 0x4 DUP1 CALLDATASIZE SUB DUP2 ADD SWAP1 PUSH2 0xE4 SWAP2 SWAP1 PUSH2 0x363 JUMP JUMPDEST PUSH2 0x184 JUMP JUMPDEST STOP JUMPDEST PUSH2 0x105 PUSH1 0x4 DUP1 CALLDATASIZE SUB DUP2 ADD SWAP1 PUSH2 0x100 SWAP2 SWAP1 PUSH2 0x363 JUMP JUMPDEST PUSH2 0x1CF JUMP JUMPDEST STOP JUMPDEST PUSH1 0x0 SELFBALANCE SWAP1 POP SWAP1 JUMP JUMPDEST PUSH1 0x0 DUP3 PUSH20 0xFFFFFFFFFFFFFFFFFFFFFFFFFFFFFFFFFFFFFFFF AND PUSH2 0x8FC DUP4 SWAP1 DUP2 ISZERO MUL SWAP1 PUSH1 0x40 MLOAD PUSH1 0x0 PUSH1 0x40 MLOAD DUP1 DUP4 SUB DUP2 DUP6 DUP9 DUP9 CALL SWAP4 POP POP POP POP SWAP1 POP DUP1 PUSH2 0x17F JUMPI PUSH1 0x40 MLOAD PUSH32 0x81063E5100000000000000000000000000000000000000000000000000000000 DUP2 MSTORE PUSH1 0x4 ADD PUSH1 0x40 MLOAD DUP1 SWAP2 SUB SWAP1 REVERT JUMPDEST POP POP POP JUMP JUMPDEST DUP2 PUSH20 0xFFFFFFFFFFFFFFFFFFFFFFFFFFFFFFFFFFFFFFFF AND PUSH2 0x8FC DUP3 SWAP1 DUP2 ISZERO MUL SWAP1 PUSH1 0x40 MLOAD PUSH1 0x0 PUSH1 0x40 MLOAD DUP1 DUP4 SUB DUP2 DUP6 DUP9 DUP9 CALL SWAP4 POP POP POP POP ISZERO DUP1 ISZERO PUSH2 0x1CA JUMPI RETURNDATASIZE PUSH1 0x0 DUP1 RETURNDATACOPY RETURNDATASIZE PUSH1 0x0 REVERT JUMPDEST POP POP POP JUMP JUMPDEST PUSH1 0x0 DUP3 PUSH20 0xFFFFFFFFFFFFFFFFFFFFFFFFFFFFFFFFFFFFFFFF AND DUP3 PUSH1 0x40 MLOAD PUSH2 0x1F5 SWAP1 PUSH2 0x3D4 JUMP JUMPDEST PUSH1 0x0 PUSH1 0x40 MLOAD DUP1 DUP4 SUB DUP2 DUP6 DUP8 GAS CALL SWAP3 POP POP POP RETURNDATASIZE DUP1 PUSH1 0x0 DUP2 EQ PUSH2 0x232 JUMPI PUSH1 0x40 MLOAD SWAP2 POP PUSH1 0x1F NOT PUSH1 0x3F RETURNDATASIZE ADD AND DUP3 ADD PUSH1 0x40 MSTORE RETURNDATASIZE DUP3 MSTORE RETURNDATASIZE PUSH1 0x0 PUSH1 0x20 DUP5 ADD RETURNDATACOPY PUSH2 0x237 JUMP JUMPDEST PUSH1 0x60 SWAP2 POP JUMPDEST POP POP SWAP1 POP DUP1 PUSH2 0x272 JUMPI PUSH1 0x40 MLOAD PUSH32 0x3204506F00000000000000000000000000000000000000000000000000000000 DUP2 MSTORE PUSH1 0x4 ADD PUSH1 0x40 MLOAD DUP1 SWAP2 SUB SWAP1 REVERT JUMPDEST POP POP POP JUMP JUMPDEST PUSH1 0x0 DUP2 SWAP1 POP SWAP2 SWAP1 POP JUMP JUMPDEST PUSH2 0x28A DUP2 PUSH2 0x277 JUMP JUMPDEST DUP3 MSTORE POP POP JUMP JUMPDEST PUSH1 0x0 PUSH1 0x40 DUP3 ADD SWAP1 POP PUSH2 0x2A5 PUSH1 0x0 DUP4 ADD DUP6 PUSH2 0x281 JUMP JUMPDEST PUSH2 0x2B2 PUSH1 0x20 DUP4 ADD DUP5 PUSH2 0x281 JUMP JUMPDEST SWAP4 SWAP3 POP POP POP JUMP JUMPDEST PUSH1 0x0 PUSH1 0x20 DUP3 ADD SWAP1 POP PUSH2 0x2CE PUSH1 0x0 DUP4 ADD DUP5 PUSH2 0x281 JUMP JUMPDEST SWAP3 SWAP2 POP POP JUMP JUMPDEST PUSH1 0x0 DUP1 REVERT JUMPDEST PUSH1 0x0 PUSH20 0xFFFFFFFFFFFFFFFFFFFFFFFFFFFFFFFFFFFFFFFF DUP3 AND SWAP1 POP SWAP2 SWAP1 POP JUMP JUMPDEST PUSH1 0x0 PUSH2 0x304 DUP3 PUSH2 0x2D9 JUMP JUMPDEST SWAP1 POP SWAP2 SWAP1 POP JUMP JUMPDEST PUSH2 0x314 DUP2 PUSH2 0x2F9 JUMP JUMPDEST DUP2 EQ PUSH2 0x31F JUMPI PUSH1 0x0 DUP1 REVERT JUMPDEST POP JUMP JUMPDEST PUSH1 0x0 DUP2 CALLDATALOAD SWAP1 POP PUSH2 0x331 DUP2 PUSH2 0x30B JUMP JUMPDEST SWAP3 SWAP2 POP POP JUMP JUMPDEST PUSH2 0x340 DUP2 PUSH2 0x277 JUMP JUMPDEST DUP2 EQ PUSH2 0x34B JUMPI PUSH1 0x0 DUP1 REVERT JUMPDEST POP JUMP JUMPDEST PUSH1 0x0 DUP2 CALLDATALOAD SWAP1 POP PUSH2 0x35D DUP2 PUSH2 0x337 JUMP JUMPDEST SWAP3 SWAP2 POP POP JUMP JUMPDEST PUSH1 0x0 DUP1 PUSH1 0x40 DUP4 DUP6 SUB SLT ISZERO PUSH2 0x37A JUMPI PUSH2 0x379 PUSH2 0x2D4 JUMP JUMPDEST JUMPDEST PUSH1 0x0 PUSH2 0x388 DUP6 DUP3 DUP7 ADD PUSH2 0x322 JUMP JUMPDEST SWAP3 POP POP PUSH1 0x20 PUSH2 0x399 DUP6 DUP3 DUP7 ADD PUSH2 0x34E JUMP JUMPDEST SWAP2 POP POP SWAP3 POP SWAP3 SWAP1 POP JUMP JUMPDEST PUSH1 0x0 DUP2 SWAP1 POP SWAP3 SWAP2 POP POP JUMP JUMPDEST POP JUMP JUMPDEST PUSH1 0x0 PUSH2 0x3BE PUSH1 0x0 DUP4 PUSH2 0x3A3 JUMP JUMPDEST SWAP2 POP PUSH2 0x3C9 DUP3 PUSH2 0x3AE JUMP JUMPDEST PUSH1 0x0 DUP3 ADD SWAP1 POP SWAP2 SWAP1 POP JUMP JUMPDEST PUSH1 0x0 PUSH2 0x3DF DUP3 PUSH2 0x3B1 JUMP JUMPDEST SWAP2 POP DUP2 SWAP1 POP SWAP2 SWAP1 POP JUMP INVALID LOG2 PUSH5 0x6970667358 0x22 SLT KECCAK256 0xA5 0xB5 0xE4 PUSH5 0x29C9FF2ED4 JUMPDEST STATICCALL LT PUSH7 0x79FEC85326CEA5 0xBC 0x1E 0xE4 0xB8 PUSH18 0x672103F2B3DBCE64736F6C63430008110033 "
				},
				"gasEstimates": {
					"creation": {
						"codeDepositCost": "211000",
						"executionCost": "251",
						"totalCost": "211251"
					},
					"external": {
						"callETH(address,uint256)": "infinite",
						"getBalance()": "317",
						"sendETH(address,uint256)": "infinite",
						"transferETH(address,uint256)": "infinite"
					}
				},
				"methodIdentifiers": {
					"callETH(address,uint256)": "8419cf50",
					"getBalance()": "12065fe0",
					"sendETH(address,uint256)": "64a197f3",
					"transferETH(address,uint256)": "7b1a4909"
				}
			},
			"storageLayout": {
				"storage": [],
				"types": null
			},
			"userdoc": {
				"kind": "user",
				"methods": {},
				"version": 1
			}
		}
	}
}