{
	"saleIDO\\ZNS.sol": {
		"ZNS": {
			"abi": [
				{
					"inputs": [
						{
							"internalType": "uint256",
							"name": "_totalSuperNum",
							"type": "uint256"
						},
						{
							"internalType": "string",
							"name": "name",
							"type": "string"
						},
						{
							"internalType": "string",
							"name": "symbol",
							"type": "string"
						}
					],
					"stateMutability": "nonpayable",
					"type": "constructor"
				},
				{
					"inputs": [
						{
							"internalType": "uint256",
							"name": "deadline",
							"type": "uint256"
						}
					],
					"name": "ERC2612ExpiredSignature",
					"type": "error"
				},
				{
					"inputs": [
						{
							"internalType": "address",
							"name": "signer",
							"type": "address"
						},
						{
							"internalType": "address",
							"name": "owner",
							"type": "address"
						}
					],
					"name": "ERC2612InvalidSigner",
					"type": "error"
				},
				{
					"inputs": [
						{
							"internalType": "address",
							"name": "account",
							"type": "address"
						},
						{
							"internalType": "uint256",
							"name": "currentNonce",
							"type": "uint256"
						}
					],
					"name": "InvalidAccountNonce",
					"type": "error"
				},
				{
					"inputs": [],
					"name": "InvalidShortString",
					"type": "error"
				},
				{
					"inputs": [
						{
							"internalType": "string",
							"name": "str",
							"type": "string"
						}
					],
					"name": "StringTooLong",
					"type": "error"
				},
				{
					"anonymous": false,
					"inputs": [
						{
							"indexed": true,
							"internalType": "address",
							"name": "owner",
							"type": "address"
						},
						{
							"indexed": true,
							"internalType": "address",
							"name": "spender",
							"type": "address"
						},
						{
							"indexed": false,
							"internalType": "uint256",
							"name": "value",
							"type": "uint256"
						}
					],
					"name": "Approval",
					"type": "event"
				},
				{
					"anonymous": false,
					"inputs": [],
					"name": "EIP712DomainChanged",
					"type": "event"
				},
				{
					"anonymous": false,
					"inputs": [
						{
							"indexed": true,
							"internalType": "address",
							"name": "from",
							"type": "address"
						},
						{
							"indexed": true,
							"internalType": "address",
							"name": "to",
							"type": "address"
						},
						{
							"indexed": false,
							"internalType": "uint256",
							"name": "value",
							"type": "uint256"
						}
					],
					"name": "Transfer",
					"type": "event"
				},
				{
					"inputs": [],
					"name": "DOMAIN_SEPARATOR",
					"outputs": [
						{
							"internalType": "bytes32",
							"name": "",
							"type": "bytes32"
						}
					],
					"stateMutability": "view",
					"type": "function"
				},
				{
					"inputs": [
						{
							"internalType": "address",
							"name": "owner",
							"type": "address"
						},
						{
							"internalType": "address",
							"name": "spender",
							"type": "address"
						}
					],
					"name": "allowance",
					"outputs": [
						{
							"internalType": "uint256",
							"name": "",
							"type": "uint256"
						}
					],
					"stateMutability": "view",
					"type": "function"
				},
				{
					"inputs": [
						{
							"internalType": "address",
							"name": "spender",
							"type": "address"
						},
						{
							"internalType": "uint256",
							"name": "amount",
							"type": "uint256"
						}
					],
					"name": "approve",
					"outputs": [
						{
							"internalType": "bool",
							"name": "",
							"type": "bool"
						}
					],
					"stateMutability": "nonpayable",
					"type": "function"
				},
				{
					"inputs": [
						{
							"internalType": "address",
							"name": "account",
							"type": "address"
						}
					],
					"name": "balanceOf",
					"outputs": [
						{
							"internalType": "uint256",
							"name": "",
							"type": "uint256"
						}
					],
					"stateMutability": "view",
					"type": "function"
				},
				{
					"inputs": [],
					"name": "decimals",
					"outputs": [
						{
							"internalType": "uint8",
							"name": "",
							"type": "uint8"
						}
					],
					"stateMutability": "view",
					"type": "function"
				},
				{
					"inputs": [
						{
							"internalType": "address",
							"name": "spender",
							"type": "address"
						},
						{
							"internalType": "uint256",
							"name": "subtractedValue",
							"type": "uint256"
						}
					],
					"name": "decreaseAllowance",
					"outputs": [
						{
							"internalType": "bool",
							"name": "",
							"type": "bool"
						}
					],
					"stateMutability": "nonpayable",
					"type": "function"
				},
				{
					"inputs": [],
					"name": "eip712Domain",
					"outputs": [
						{
							"internalType": "bytes1",
							"name": "fields",
							"type": "bytes1"
						},
						{
							"internalType": "string",
							"name": "name",
							"type": "string"
						},
						{
							"internalType": "string",
							"name": "version",
							"type": "string"
						},
						{
							"internalType": "uint256",
							"name": "chainId",
							"type": "uint256"
						},
						{
							"internalType": "address",
							"name": "verifyingContract",
							"type": "address"
						},
						{
							"internalType": "bytes32",
							"name": "salt",
							"type": "bytes32"
						},
						{
							"internalType": "uint256[]",
							"name": "extensions",
							"type": "uint256[]"
						}
					],
					"stateMutability": "view",
					"type": "function"
				},
				{
					"inputs": [
						{
							"internalType": "address",
							"name": "spender",
							"type": "address"
						},
						{
							"internalType": "uint256",
							"name": "addedValue",
							"type": "uint256"
						}
					],
					"name": "increaseAllowance",
					"outputs": [
						{
							"internalType": "bool",
							"name": "",
							"type": "bool"
						}
					],
					"stateMutability": "nonpayable",
					"type": "function"
				},
				{
					"inputs": [],
					"name": "name",
					"outputs": [
						{
							"internalType": "string",
							"name": "",
							"type": "string"
						}
					],
					"stateMutability": "view",
					"type": "function"
				},
				{
					"inputs": [
						{
							"internalType": "address",
							"name": "owner",
							"type": "address"
						}
					],
					"name": "nonces",
					"outputs": [
						{
							"internalType": "uint256",
							"name": "",
							"type": "uint256"
						}
					],
					"stateMutability": "view",
					"type": "function"
				},
				{
					"inputs": [
						{
							"internalType": "address",
							"name": "owner",
							"type": "address"
						},
						{
							"internalType": "address",
							"name": "spender",
							"type": "address"
						},
						{
							"internalType": "uint256",
							"name": "value",
							"type": "uint256"
						},
						{
							"internalType": "uint256",
							"name": "deadline",
							"type": "uint256"
						},
						{
							"internalType": "uint8",
							"name": "v",
							"type": "uint8"
						},
						{
							"internalType": "bytes32",
							"name": "r",
							"type": "bytes32"
						},
						{
							"internalType": "bytes32",
							"name": "s",
							"type": "bytes32"
						}
					],
					"name": "permit",
					"outputs": [],
					"stateMutability": "nonpayable",
					"type": "function"
				},
				{
					"inputs": [],
					"name": "symbol",
					"outputs": [
						{
							"internalType": "string",
							"name": "",
							"type": "string"
						}
					],
					"stateMutability": "view",
					"type": "function"
				},
				{
					"inputs": [],
					"name": "totalSupply",
					"outputs": [
						{
							"internalType": "uint256",
							"name": "",
							"type": "uint256"
						}
					],
					"stateMutability": "view",
					"type": "function"
				},
				{
					"inputs": [
						{
							"internalType": "address",
							"name": "to",
							"type": "address"
						},
						{
							"internalType": "uint256",
							"name": "amount",
							"type": "uint256"
						}
					],
					"name": "transfer",
					"outputs": [
						{
							"internalType": "bool",
							"name": "",
							"type": "bool"
						}
					],
					"stateMutability": "nonpayable",
					"type": "function"
				},
				{
					"inputs": [
						{
							"internalType": "address",
							"name": "from",
							"type": "address"
						},
						{
							"internalType": "address",
							"name": "to",
							"type": "address"
						},
						{
							"internalType": "uint256",
							"name": "amount",
							"type": "uint256"
						}
					],
					"name": "transferFrom",
					"outputs": [
						{
							"internalType": "bool",
							"name": "",
							"type": "bool"
						}
					],
					"stateMutability": "nonpayable",
					"type": "function"
				}
			],
			"devdoc": {
				"errors": {
					"ERC2612ExpiredSignature(uint256)": [
						{
							"details": "Permit deadline has expired."
						}
					],
					"ERC2612InvalidSigner(address,address)": [
						{
							"details": "Mismatched signature."
						}
					],
					"InvalidAccountNonce(address,uint256)": [
						{
							"details": "The nonce used for an `account` is not the expected current nonce."
						}
					]
				},
				"events": {
					"Approval(address,address,uint256)": {
						"details": "Emitted when the allowance of a `spender` for an `owner` is set by a call to {approve}. `value` is the new allowance."
					},
					"EIP712DomainChanged()": {
						"details": "MAY be emitted to signal that the domain could have changed."
					},
					"Transfer(address,address,uint256)": {
						"details": "Emitted when `value` tokens are moved from one account (`from`) to another (`to`). Note that `value` may be zero."
					}
				},
				"kind": "dev",
				"methods": {
					"DOMAIN_SEPARATOR()": {
						"details": "See {IERC20Permit-DOMAIN_SEPARATOR}."
					},
					"allowance(address,address)": {
						"details": "See {IERC20-allowance}."
					},
					"approve(address,uint256)": {
						"details": "See {IERC20-approve}. NOTE: If `amount` is the maximum `uint256`, the allowance is not updated on `transferFrom`. This is semantically equivalent to an infinite approval. Requirements: - `spender` cannot be the zero address."
					},
					"balanceOf(address)": {
						"details": "See {IERC20-balanceOf}."
					},
					"decimals()": {
						"details": "Returns the number of decimals used to get its user representation. For example, if `decimals` equals `2`, a balance of `505` tokens should be displayed to a user as `5.05` (`505 / 10 ** 2`). Tokens usually opt for a value of 18, imitating the relationship between Ether and Wei. This is the value {ERC20} uses, unless this function is overridden; NOTE: This information is only used for _display_ purposes: it in no way affects any of the arithmetic of the contract, including {IERC20-balanceOf} and {IERC20-transfer}."
					},
					"decreaseAllowance(address,uint256)": {
						"details": "Atomically decreases the allowance granted to `spender` by the caller. This is an alternative to {approve} that can be used as a mitigation for problems described in {IERC20-approve}. Emits an {Approval} event indicating the updated allowance. Requirements: - `spender` cannot be the zero address. - `spender` must have allowance for the caller of at least `subtractedValue`."
					},
					"eip712Domain()": {
						"details": "See {EIP-5267}. _Available since v4.9._"
					},
					"increaseAllowance(address,uint256)": {
						"details": "Atomically increases the allowance granted to `spender` by the caller. This is an alternative to {approve} that can be used as a mitigation for problems described in {IERC20-approve}. Emits an {Approval} event indicating the updated allowance. Requirements: - `spender` cannot be the zero address."
					},
					"name()": {
						"details": "Returns the name of the token."
					},
					"nonces(address)": {
						"details": "See {IERC20Permit-nonces}."
					},
					"permit(address,address,uint256,uint256,uint8,bytes32,bytes32)": {
						"details": "See {IERC20Permit-permit}."
					},
					"symbol()": {
						"details": "Returns the symbol of the token, usually a shorter version of the name."
					},
					"totalSupply()": {
						"details": "See {IERC20-totalSupply}."
					},
					"transfer(address,uint256)": {
						"details": "See {IERC20-transfer}. Requirements: - `to` cannot be the zero address. - the caller must have a balance of at least `amount`."
					},
					"transferFrom(address,address,uint256)": {
						"details": "See {IERC20-transferFrom}. Emits an {Approval} event indicating the updated allowance. This is not required by the EIP. See the note at the beginning of {ERC20}. NOTE: Does not update the allowance if the current allowance is the maximum `uint256`. Requirements: - `from` and `to` cannot be the zero address. - `from` must have a balance of at least `amount`. - the caller must have allowance for ``from``'s tokens of at least `amount`."
					}
				},
				"version": 1
			},
			"evm": {
				"assembly": "    /* \"saleIDO\\\\ZNS.sol\":23593:23792  contract ZNS is ERC20Permit{... */\n  mstore(0x40, 0x0160)\n    /* \"saleIDO\\\\ZNS.sol\":23627:23787  constructor(uint _totalSuperNum,string memory name,string memory symbol) ERC20Permit(name) ERC20(name,symbol){... */\n  callvalue\n  dup1\n  iszero\n  tag_1\n  jumpi\n  0x00\n  dup1\n  revert\ntag_1:\n  pop\n  mload(0x40)\n  sub(codesize, bytecodeSize)\n  dup1\n  bytecodeSize\n  dup4\n  codecopy\n  dup2\n  dup2\n  add\n  0x40\n  mstore\n  dup2\n  add\n  swap1\n  tag_2\n  swap2\n  swap1\n  tag_3\n  jump\t// in\ntag_2:\n    /* \"saleIDO\\\\ZNS.sol\":23712:23716  name */\n  dup2\n    /* \"saleIDO\\\\ZNS.sol\":22323:22327  name */\n  dup1\n    /* \"@openzeppelin/contracts/utils/cryptography/EIP712.sol\":3178:3609  constructor(string memory name, string memory version) {... */\n  mload(0x40)\n  dup1\n  0x40\n  add\n  0x40\n  mstore\n  dup1\n  0x01\n  dup2\n  mstore\n  0x20\n  add\n  0x3100000000000000000000000000000000000000000000000000000000000000\n  dup2\n  mstore\n  pop\n    /* \"saleIDO\\\\ZNS.sol\":23724:23728  name */\n  dup5\n    /* \"saleIDO\\\\ZNS.sol\":23729:23735  symbol */\n  dup5\n    /* \"saleIDO\\\\ZNS.sol\":6553:6558  name_ */\n  dup2\n    /* \"saleIDO\\\\ZNS.sol\":6545:6550  _name */\n  0x03\n    /* \"saleIDO\\\\ZNS.sol\":6545:6558  _name = name_ */\n  swap1\n  dup2\n  tag_9\n  swap2\n  swap1\n  tag_10\n  jump\t// in\ntag_9:\n  pop\n    /* \"saleIDO\\\\ZNS.sol\":6579:6586  symbol_ */\n  dup1\n    /* \"saleIDO\\\\ZNS.sol\":6569:6576  _symbol */\n  0x04\n    /* \"saleIDO\\\\ZNS.sol\":6569:6586  _symbol = symbol_ */\n  swap1\n  dup2\n  tag_11\n  swap2\n  swap1\n  tag_10\n  jump\t// in\ntag_11:\n  pop\n    /* \"saleIDO\\\\ZNS.sol\":6478:6594  constructor(string memory name_, string memory symbol_) {... */\n  pop\n  pop\n    /* \"@openzeppelin/contracts/utils/cryptography/EIP712.sol\":3251:3296  name.toShortStringWithFallback(_nameFallback) */\n  tag_13\n    /* \"@openzeppelin/contracts/utils/cryptography/EIP712.sol\":3282:3295  _nameFallback */\n  0x05\n    /* \"@openzeppelin/contracts/utils/cryptography/EIP712.sol\":3251:3255  name */\n  dup4\n    /* \"@openzeppelin/contracts/utils/cryptography/EIP712.sol\":3251:3281  name.toShortStringWithFallback */\n  shl(0x20, tag_14)\n  swap1\n    /* \"@openzeppelin/contracts/utils/cryptography/EIP712.sol\":3251:3296  name.toShortStringWithFallback(_nameFallback) */\n  swap2\n  swap1\n  0x20\n  shr\n  jump\t// in\ntag_13:\n    /* \"@openzeppelin/contracts/utils/cryptography/EIP712.sol\":3243:3296  _name = name.toShortStringWithFallback(_nameFallback) */\n  0x0120\n  dup2\n  dup2\n  mstore\n  pop\n  pop\n    /* \"@openzeppelin/contracts/utils/cryptography/EIP712.sol\":3317:3368  version.toShortStringWithFallback(_versionFallback) */\n  tag_15\n    /* \"@openzeppelin/contracts/utils/cryptography/EIP712.sol\":3351:3367  _versionFallback */\n  0x06\n    /* \"@openzeppelin/contracts/utils/cryptography/EIP712.sol\":3317:3324  version */\n  dup3\n    /* \"@openzeppelin/contracts/utils/cryptography/EIP712.sol\":3317:3350  version.toShortStringWithFallback */\n  shl(0x20, tag_14)\n  swap1\n    /* \"@openzeppelin/contracts/utils/cryptography/EIP712.sol\":3317:3368  version.toShortStringWithFallback(_versionFallback) */\n  swap2\n  swap1\n  0x20\n  shr\n  jump\t// in\ntag_15:\n    /* \"@openzeppelin/contracts/utils/cryptography/EIP712.sol\":3306:3368  _version = version.toShortStringWithFallback(_versionFallback) */\n  0x0140\n  dup2\n  dup2\n  mstore\n  pop\n  pop\n    /* \"@openzeppelin/contracts/utils/cryptography/EIP712.sol\":3408:3412  name */\n  dup2\n    /* \"@openzeppelin/contracts/utils/cryptography/EIP712.sol\":3392:3414  keccak256(bytes(name)) */\n  dup1\n  mload\n  swap1\n  0x20\n  add\n  keccak256\n    /* \"@openzeppelin/contracts/utils/cryptography/EIP712.sol\":3378:3414  _hashedName = keccak256(bytes(name)) */\n  0xe0\n  dup2\n  dup2\n  mstore\n  pop\n  pop\n    /* \"@openzeppelin/contracts/utils/cryptography/EIP712.sol\":3457:3464  version */\n  dup1\n    /* \"@openzeppelin/contracts/utils/cryptography/EIP712.sol\":3441:3466  keccak256(bytes(version)) */\n  dup1\n  mload\n  swap1\n  0x20\n  add\n  keccak256\n    /* \"@openzeppelin/contracts/utils/cryptography/EIP712.sol\":3424:3466  _hashedVersion = keccak256(bytes(version)) */\n  0x0100\n  dup2\n  dup2\n  mstore\n  pop\n  pop\n    /* \"@openzeppelin/contracts/utils/cryptography/EIP712.sol\":3494:3507  block.chainid */\n  chainid\n    /* \"@openzeppelin/contracts/utils/cryptography/EIP712.sol\":3477:3507  _cachedChainId = block.chainid */\n  0xa0\n  dup2\n  dup2\n  mstore\n  pop\n  pop\n    /* \"@openzeppelin/contracts/utils/cryptography/EIP712.sol\":3542:3565  _buildDomainSeparator() */\n  tag_16\n    /* \"@openzeppelin/contracts/utils/cryptography/EIP712.sol\":3542:3563  _buildDomainSeparator */\n  shl(0x20, tag_17)\n    /* \"@openzeppelin/contracts/utils/cryptography/EIP712.sol\":3542:3565  _buildDomainSeparator() */\n  0x20\n  shr\n  jump\t// in\ntag_16:\n    /* \"@openzeppelin/contracts/utils/cryptography/EIP712.sol\":3517:3565  _cachedDomainSeparator = _buildDomainSeparator() */\n  0x80\n  dup2\n  dup2\n  mstore\n  pop\n  pop\n    /* \"@openzeppelin/contracts/utils/cryptography/EIP712.sol\":3597:3601  this */\n  address\n    /* \"@openzeppelin/contracts/utils/cryptography/EIP712.sol\":3575:3602  _cachedThis = address(this) */\n  0xffffffffffffffffffffffffffffffffffffffff\n  and\n  0xc0\n  dup2\n  0xffffffffffffffffffffffffffffffffffffffff\n  and\n  dup2\n  mstore\n  pop\n  pop\n    /* \"@openzeppelin/contracts/utils/cryptography/EIP712.sol\":3178:3609  constructor(string memory name, string memory version) {... */\n  pop\n  pop\n    /* \"saleIDO\\\\ZNS.sol\":22284:22336  constructor(string memory name) EIP712(name, \"1\") {} */\n  pop\n    /* \"saleIDO\\\\ZNS.sol\":23747:23779  _mint(msg.sender,_totalSuperNum) */\n  tag_20\n    /* \"saleIDO\\\\ZNS.sol\":23753:23763  msg.sender */\n  caller\n    /* \"saleIDO\\\\ZNS.sol\":23764:23778  _totalSuperNum */\n  dup5\n    /* \"saleIDO\\\\ZNS.sol\":23747:23752  _mint */\n  shl(0x20, tag_21)\n    /* \"saleIDO\\\\ZNS.sol\":23747:23779  _mint(msg.sender,_totalSuperNum) */\n  0x20\n  shr\n  jump\t// in\ntag_20:\n    /* \"saleIDO\\\\ZNS.sol\":23627:23787  constructor(uint _totalSuperNum,string memory name,string memory symbol) ERC20Permit(name) ERC20(name,symbol){... */\n  pop\n  pop\n  pop\n    /* \"saleIDO\\\\ZNS.sol\":23593:23792  contract ZNS is ERC20Permit{... */\n  jump(tag_22)\n    /* \"@openzeppelin/contracts/utils/ShortStrings.sol\":2895:3236  function toShortStringWithFallback(string memory value, string storage store) internal returns (ShortString) {... */\ntag_14:\n    /* \"@openzeppelin/contracts/utils/ShortStrings.sol\":2991:3002  ShortString */\n  0x00\n    /* \"@openzeppelin/contracts/utils/ShortStrings.sol\":3040:3042  32 */\n  0x20\n    /* \"@openzeppelin/contracts/utils/ShortStrings.sol\":3024:3029  value */\n  dup4\n    /* \"@openzeppelin/contracts/utils/ShortStrings.sol\":3018:3037  bytes(value).length */\n  mload\n    /* \"@openzeppelin/contracts/utils/ShortStrings.sol\":3018:3042  bytes(value).length < 32 */\n  lt\n    /* \"@openzeppelin/contracts/utils/ShortStrings.sol\":3014:3230  if (bytes(value).length < 32) {... */\n  iszero\n  tag_24\n  jumpi\n    /* \"@openzeppelin/contracts/utils/ShortStrings.sol\":3065:3085  toShortString(value) */\n  tag_25\n    /* \"@openzeppelin/contracts/utils/ShortStrings.sol\":3079:3084  value */\n  dup4\n    /* \"@openzeppelin/contracts/utils/ShortStrings.sol\":3065:3078  toShortString */\n  shl(0x20, tag_26)\n    /* \"@openzeppelin/contracts/utils/ShortStrings.sol\":3065:3085  toShortString(value) */\n  0x20\n  shr\n  jump\t// in\ntag_25:\n    /* \"@openzeppelin/contracts/utils/ShortStrings.sol\":3058:3085  return toShortString(value) */\n  swap1\n  pop\n  jump(tag_23)\n    /* \"@openzeppelin/contracts/utils/ShortStrings.sol\":3014:3230  if (bytes(value).length < 32) {... */\ntag_24:\n    /* \"@openzeppelin/contracts/utils/ShortStrings.sol\":3157:3162  value */\n  dup3\n    /* \"@openzeppelin/contracts/utils/ShortStrings.sol\":3116:3148  StorageSlot.getStringSlot(store) */\n  tag_28\n    /* \"@openzeppelin/contracts/utils/ShortStrings.sol\":3142:3147  store */\n  dup4\n    /* \"@openzeppelin/contracts/utils/ShortStrings.sol\":3116:3141  StorageSlot.getStringSlot */\n  shl(0x20, tag_29)\n    /* \"@openzeppelin/contracts/utils/ShortStrings.sol\":3116:3148  StorageSlot.getStringSlot(store) */\n  0x20\n  shr\n  jump\t// in\ntag_28:\n    /* \"@openzeppelin/contracts/utils/ShortStrings.sol\":3116:3154  StorageSlot.getStringSlot(store).value */\n  0x00\n  add\n    /* \"@openzeppelin/contracts/utils/ShortStrings.sol\":3116:3162  StorageSlot.getStringSlot(store).value = value */\n  swap1\n  dup2\n  tag_30\n  swap2\n  swap1\n  tag_10\n  jump\t// in\ntag_30:\n  pop\n    /* \"@openzeppelin/contracts/utils/ShortStrings.sol\":1371:1437  0x00000000000000000000000000000000000000000000000000000000000000FF */\n  0xff\n    /* \"@openzeppelin/contracts/utils/ShortStrings.sol\":3200:3218  _FALLBACK_SENTINEL */\n  0x00\n  shl\n    /* \"@openzeppelin/contracts/utils/ShortStrings.sol\":3176:3219  return ShortString.wrap(_FALLBACK_SENTINEL) */\n  swap1\n  pop\n    /* \"@openzeppelin/contracts/utils/ShortStrings.sol\":2895:3236  function toShortStringWithFallback(string memory value, string storage store) internal returns (ShortString) {... */\ntag_23:\n  swap3\n  swap2\n  pop\n  pop\n  jump\t// out\n    /* \"@openzeppelin/contracts/utils/cryptography/EIP712.sol\":3963:4143  function _buildDomainSeparator() private view returns (bytes32) {... */\ntag_17:\n    /* \"@openzeppelin/contracts/utils/cryptography/EIP712.sol\":4018:4025  bytes32 */\n  0x00\n    /* \"@openzeppelin/contracts/utils/cryptography/EIP712.sol\":1929:2024  keccak256(\"EIP712Domain(string name,string version,uint256 chainId,address verifyingContract)\") */\n  0x8b73c3c69bb8fe3d512ecc4cf759cc79239f7b179b0ffacaa9a75d522b39400f\n    /* \"@openzeppelin/contracts/utils/cryptography/EIP712.sol\":4077:4088  _hashedName */\n  mload(0xe0)\n    /* \"@openzeppelin/contracts/utils/cryptography/EIP712.sol\":4090:4104  _hashedVersion */\n  mload(0x0100)\n    /* \"@openzeppelin/contracts/utils/cryptography/EIP712.sol\":4106:4119  block.chainid */\n  chainid\n    /* \"@openzeppelin/contracts/utils/cryptography/EIP712.sol\":4129:4133  this */\n  address\n    /* \"@openzeppelin/contracts/utils/cryptography/EIP712.sol\":4054:4135  abi.encode(_TYPE_HASH, _hashedName, _hashedVersion, block.chainid, address(this)) */\n  add(0x20, mload(0x40))\n  tag_32\n  swap6\n  swap5\n  swap4\n  swap3\n  swap2\n  swap1\n  tag_33\n  jump\t// in\ntag_32:\n  mload(0x40)\n  0x20\n  dup2\n  dup4\n  sub\n  sub\n  dup2\n  mstore\n  swap1\n  0x40\n  mstore\n    /* \"@openzeppelin/contracts/utils/cryptography/EIP712.sol\":4044:4136  keccak256(abi.encode(_TYPE_HASH, _hashedName, _hashedVersion, block.chainid, address(this))) */\n  dup1\n  mload\n  swap1\n  0x20\n  add\n  keccak256\n    /* \"@openzeppelin/contracts/utils/cryptography/EIP712.sol\":4037:4136  return keccak256(abi.encode(_TYPE_HASH, _hashedName, _hashedVersion, block.chainid, address(this))) */\n  swap1\n  pop\n    /* \"@openzeppelin/contracts/utils/cryptography/EIP712.sol\":3963:4143  function _buildDomainSeparator() private view returns (bytes32) {... */\n  swap1\n  jump\t// out\n    /* \"saleIDO\\\\ZNS.sol\":13274:13822  function _mint(address account, uint256 amount) internal virtual {... */\ntag_21:\n    /* \"saleIDO\\\\ZNS.sol\":13377:13378  0 */\n  0x00\n    /* \"saleIDO\\\\ZNS.sol\":13358:13379  account != address(0) */\n  0xffffffffffffffffffffffffffffffffffffffff\n  and\n    /* \"saleIDO\\\\ZNS.sol\":13358:13365  account */\n  dup3\n    /* \"saleIDO\\\\ZNS.sol\":13358:13379  account != address(0) */\n  0xffffffffffffffffffffffffffffffffffffffff\n  and\n  sub\n    /* \"saleIDO\\\\ZNS.sol\":13350:13415  require(account != address(0), \"ERC20: mint to the zero address\") */\n  tag_35\n  jumpi\n  mload(0x40)\n  0x08c379a000000000000000000000000000000000000000000000000000000000\n  dup2\n  mstore\n  0x04\n  add\n  tag_36\n  swap1\n  tag_37\n  jump\t// in\ntag_36:\n  mload(0x40)\n  dup1\n  swap2\n  sub\n  swap1\n  revert\ntag_35:\n    /* \"saleIDO\\\\ZNS.sol\":13428:13477  _beforeTokenTransfer(address(0), account, amount) */\n  tag_38\n    /* \"saleIDO\\\\ZNS.sol\":13457:13458  0 */\n  0x00\n    /* \"saleIDO\\\\ZNS.sol\":13461:13468  account */\n  dup4\n    /* \"saleIDO\\\\ZNS.sol\":13470:13476  amount */\n  dup4\n    /* \"saleIDO\\\\ZNS.sol\":13428:13448  _beforeTokenTransfer */\n  shl(0x20, tag_39)\n    /* \"saleIDO\\\\ZNS.sol\":13428:13477  _beforeTokenTransfer(address(0), account, amount) */\n  0x20\n  shr\n  jump\t// in\ntag_38:\n    /* \"saleIDO\\\\ZNS.sol\":13506:13512  amount */\n  dup1\n    /* \"saleIDO\\\\ZNS.sol\":13490:13502  _totalSupply */\n  0x02\n  0x00\n    /* \"saleIDO\\\\ZNS.sol\":13490:13512  _totalSupply += amount */\n  dup3\n  dup3\n  sload\n  tag_40\n  swap2\n  swap1\n  tag_41\n  jump\t// in\ntag_40:\n  swap3\n  pop\n  pop\n  dup2\n  swap1\n  sstore\n  pop\n    /* \"saleIDO\\\\ZNS.sol\":13683:13689  amount */\n  dup1\n    /* \"saleIDO\\\\ZNS.sol\":13661:13670  _balances */\n  0x00\n    /* \"saleIDO\\\\ZNS.sol\":13661:13679  _balances[account] */\n  dup1\n    /* \"saleIDO\\\\ZNS.sol\":13671:13678  account */\n  dup5\n    /* \"saleIDO\\\\ZNS.sol\":13661:13679  _balances[account] */\n  0xffffffffffffffffffffffffffffffffffffffff\n  and\n  0xffffffffffffffffffffffffffffffffffffffff\n  and\n  dup2\n  mstore\n  0x20\n  add\n  swap1\n  dup2\n  mstore\n  0x20\n  add\n  0x00\n  keccak256\n  0x00\n    /* \"saleIDO\\\\ZNS.sol\":13661:13689  _balances[account] += amount */\n  dup3\n  dup3\n  sload\n  add\n  swap3\n  pop\n  pop\n  dup2\n  swap1\n  sstore\n  pop\n    /* \"saleIDO\\\\ZNS.sol\":13737:13744  account */\n  dup2\n    /* \"saleIDO\\\\ZNS.sol\":13716:13753  Transfer(address(0), account, amount) */\n  0xffffffffffffffffffffffffffffffffffffffff\n  and\n    /* \"saleIDO\\\\ZNS.sol\":13733:13734  0 */\n  0x00\n    /* \"saleIDO\\\\ZNS.sol\":13716:13753  Transfer(address(0), account, amount) */\n  0xffffffffffffffffffffffffffffffffffffffff\n  and\n  0xddf252ad1be2c89b69c2b068fc378daa952ba7f163c4a11628f55a4df523b3ef\n    /* \"saleIDO\\\\ZNS.sol\":13746:13752  amount */\n  dup4\n    /* \"saleIDO\\\\ZNS.sol\":13716:13753  Transfer(address(0), account, amount) */\n  mload(0x40)\n  tag_42\n  swap2\n  swap1\n  tag_43\n  jump\t// in\ntag_42:\n  mload(0x40)\n  dup1\n  swap2\n  sub\n  swap1\n  log3\n    /* \"saleIDO\\\\ZNS.sol\":13766:13814  _afterTokenTransfer(address(0), account, amount) */\n  tag_44\n    /* \"saleIDO\\\\ZNS.sol\":13794:13795  0 */\n  0x00\n    /* \"saleIDO\\\\ZNS.sol\":13798:13805  account */\n  dup4\n    /* \"saleIDO\\\\ZNS.sol\":13807:13813  amount */\n  dup4\n    /* \"saleIDO\\\\ZNS.sol\":13766:13785  _afterTokenTransfer */\n  shl(0x20, tag_45)\n    /* \"saleIDO\\\\ZNS.sol\":13766:13814  _afterTokenTransfer(address(0), account, amount) */\n  0x20\n  shr\n  jump\t// in\ntag_44:\n    /* \"saleIDO\\\\ZNS.sol\":13274:13822  function _mint(address account, uint256 amount) internal virtual {... */\n  pop\n  pop\n  jump\t// out\n    /* \"@openzeppelin/contracts/utils/ShortStrings.sol\":1689:1975  function toShortString(string memory str) internal pure returns (ShortString) {... */\ntag_26:\n    /* \"@openzeppelin/contracts/utils/ShortStrings.sol\":1754:1765  ShortString */\n  0x00\n    /* \"@openzeppelin/contracts/utils/ShortStrings.sol\":1777:1794  bytes memory bstr */\n  dup1\n    /* \"@openzeppelin/contracts/utils/ShortStrings.sol\":1803:1806  str */\n  dup3\n    /* \"@openzeppelin/contracts/utils/ShortStrings.sol\":1777:1807  bytes memory bstr = bytes(str) */\n  swap1\n  pop\n    /* \"@openzeppelin/contracts/utils/ShortStrings.sol\":1835:1837  31 */\n  0x1f\n    /* \"@openzeppelin/contracts/utils/ShortStrings.sol\":1821:1825  bstr */\n  dup2\n    /* \"@openzeppelin/contracts/utils/ShortStrings.sol\":1821:1832  bstr.length */\n  mload\n    /* \"@openzeppelin/contracts/utils/ShortStrings.sol\":1821:1837  bstr.length > 31 */\n  gt\n    /* \"@openzeppelin/contracts/utils/ShortStrings.sol\":1817:1889  if (bstr.length > 31) {... */\n  iszero\n  tag_47\n  jumpi\n    /* \"@openzeppelin/contracts/utils/ShortStrings.sol\":1874:1877  str */\n  dup3\n    /* \"@openzeppelin/contracts/utils/ShortStrings.sol\":1860:1878  StringTooLong(str) */\n  mload(0x40)\n  0x305a27a900000000000000000000000000000000000000000000000000000000\n  dup2\n  mstore\n  0x04\n  add\n  tag_48\n  swap2\n  swap1\n  tag_49\n  jump\t// in\ntag_48:\n  mload(0x40)\n  dup1\n  swap2\n  sub\n  swap1\n  revert\n    /* \"@openzeppelin/contracts/utils/ShortStrings.sol\":1817:1889  if (bstr.length > 31) {... */\ntag_47:\n    /* \"@openzeppelin/contracts/utils/ShortStrings.sol\":1955:1959  bstr */\n  dup1\n    /* \"@openzeppelin/contracts/utils/ShortStrings.sol\":1955:1966  bstr.length */\n  mload\n    /* \"@openzeppelin/contracts/utils/ShortStrings.sol\":1946:1950  bstr */\n  dup2\n    /* \"@openzeppelin/contracts/utils/ShortStrings.sol\":1938:1951  bytes32(bstr) */\n  tag_50\n  swap1\n  tag_51\n  jump\t// in\ntag_50:\n    /* \"@openzeppelin/contracts/utils/ShortStrings.sol\":1930:1952  uint256(bytes32(bstr)) */\n  0x00\n  shr\n    /* \"@openzeppelin/contracts/utils/ShortStrings.sol\":1930:1966  uint256(bytes32(bstr)) | bstr.length */\n  or\n    /* \"@openzeppelin/contracts/utils/ShortStrings.sol\":1922:1967  bytes32(uint256(bytes32(bstr)) | bstr.length) */\n  0x00\n  shl\n    /* \"@openzeppelin/contracts/utils/ShortStrings.sol\":1898:1968  return ShortString.wrap(bytes32(uint256(bytes32(bstr)) | bstr.length)) */\n  swap2\n  pop\n  pop\n    /* \"@openzeppelin/contracts/utils/ShortStrings.sol\":1689:1975  function toShortString(string memory str) internal pure returns (ShortString) {... */\n  swap2\n  swap1\n  pop\n  jump\t// out\n    /* \"@openzeppelin/contracts/utils/StorageSlot.sol\":3310:3512  function getStringSlot(string storage store) internal pure returns (StringSlot storage r) {... */\ntag_29:\n    /* \"@openzeppelin/contracts/utils/StorageSlot.sol\":3378:3398  StringSlot storage r */\n  0x00\n    /* \"@openzeppelin/contracts/utils/StorageSlot.sol\":3486:3496  store.slot */\n  dup2\n    /* \"@openzeppelin/contracts/utils/StorageSlot.sol\":3476:3496  r.slot := store.slot */\n  swap1\n  pop\n    /* \"@openzeppelin/contracts/utils/StorageSlot.sol\":3310:3512  function getStringSlot(string storage store) internal pure returns (StringSlot storage r) {... */\n  swap2\n  swap1\n  pop\n  jump\t// out\n    /* \"saleIDO\\\\ZNS.sol\":16992:17117  function _beforeTokenTransfer(... */\ntag_39:\n  pop\n  pop\n  pop\n  jump\t// out\n    /* \"saleIDO\\\\ZNS.sol\":17721:17845  function _afterTokenTransfer(... */\ntag_45:\n  pop\n  pop\n  pop\n  jump\t// out\n    /* \"#utility.yul\":7:82   */\ntag_55:\n    /* \"#utility.yul\":40:46   */\n  0x00\n    /* \"#utility.yul\":73:75   */\n  0x40\n    /* \"#utility.yul\":67:76   */\n  mload\n    /* \"#utility.yul\":57:76   */\n  swap1\n  pop\n    /* \"#utility.yul\":7:82   */\n  swap1\n  jump\t// out\n    /* \"#utility.yul\":88:205   */\ntag_56:\n    /* \"#utility.yul\":197:198   */\n  0x00\n    /* \"#utility.yul\":194:195   */\n  dup1\n    /* \"#utility.yul\":187:199   */\n  revert\n    /* \"#utility.yul\":211:328   */\ntag_57:\n    /* \"#utility.yul\":320:321   */\n  0x00\n    /* \"#utility.yul\":317:318   */\n  dup1\n    /* \"#utility.yul\":310:322   */\n  revert\n    /* \"#utility.yul\":334:411   */\ntag_58:\n    /* \"#utility.yul\":371:378   */\n  0x00\n    /* \"#utility.yul\":400:405   */\n  dup2\n    /* \"#utility.yul\":389:405   */\n  swap1\n  pop\n    /* \"#utility.yul\":334:411   */\n  swap2\n  swap1\n  pop\n  jump\t// out\n    /* \"#utility.yul\":417:539   */\ntag_59:\n    /* \"#utility.yul\":490:514   */\n  tag_109\n    /* \"#utility.yul\":508:513   */\n  dup2\n    /* \"#utility.yul\":490:514   */\n  tag_58\n  jump\t// in\ntag_109:\n    /* \"#utility.yul\":483:488   */\n  dup2\n    /* \"#utility.yul\":480:515   */\n  eq\n    /* \"#utility.yul\":470:533   */\n  tag_110\n  jumpi\n    /* \"#utility.yul\":529:530   */\n  0x00\n    /* \"#utility.yul\":526:527   */\n  dup1\n    /* \"#utility.yul\":519:531   */\n  revert\n    /* \"#utility.yul\":470:533   */\ntag_110:\n    /* \"#utility.yul\":417:539   */\n  pop\n  jump\t// out\n    /* \"#utility.yul\":545:688   */\ntag_60:\n    /* \"#utility.yul\":602:607   */\n  0x00\n    /* \"#utility.yul\":633:639   */\n  dup2\n    /* \"#utility.yul\":627:640   */\n  mload\n    /* \"#utility.yul\":618:640   */\n  swap1\n  pop\n    /* \"#utility.yul\":649:682   */\n  tag_112\n    /* \"#utility.yul\":676:681   */\n  dup2\n    /* \"#utility.yul\":649:682   */\n  tag_59\n  jump\t// in\ntag_112:\n    /* \"#utility.yul\":545:688   */\n  swap3\n  swap2\n  pop\n  pop\n  jump\t// out\n    /* \"#utility.yul\":694:811   */\ntag_61:\n    /* \"#utility.yul\":803:804   */\n  0x00\n    /* \"#utility.yul\":800:801   */\n  dup1\n    /* \"#utility.yul\":793:805   */\n  revert\n    /* \"#utility.yul\":817:934   */\ntag_62:\n    /* \"#utility.yul\":926:927   */\n  0x00\n    /* \"#utility.yul\":923:924   */\n  dup1\n    /* \"#utility.yul\":916:928   */\n  revert\n    /* \"#utility.yul\":940:1042   */\ntag_63:\n    /* \"#utility.yul\":981:987   */\n  0x00\n    /* \"#utility.yul\":1032:1034   */\n  0x1f\n    /* \"#utility.yul\":1028:1035   */\n  not\n    /* \"#utility.yul\":1023:1025   */\n  0x1f\n    /* \"#utility.yul\":1016:1021   */\n  dup4\n    /* \"#utility.yul\":1012:1026   */\n  add\n    /* \"#utility.yul\":1008:1036   */\n  and\n    /* \"#utility.yul\":998:1036   */\n  swap1\n  pop\n    /* \"#utility.yul\":940:1042   */\n  swap2\n  swap1\n  pop\n  jump\t// out\n    /* \"#utility.yul\":1048:1228   */\ntag_64:\n    /* \"#utility.yul\":1096:1173   */\n  0x4e487b7100000000000000000000000000000000000000000000000000000000\n    /* \"#utility.yul\":1093:1094   */\n  0x00\n    /* \"#utility.yul\":1086:1174   */\n  mstore\n    /* \"#utility.yul\":1193:1197   */\n  0x41\n    /* \"#utility.yul\":1190:1191   */\n  0x04\n    /* \"#utility.yul\":1183:1198   */\n  mstore\n    /* \"#utility.yul\":1217:1221   */\n  0x24\n    /* \"#utility.yul\":1214:1215   */\n  0x00\n    /* \"#utility.yul\":1207:1222   */\n  revert\n    /* \"#utility.yul\":1234:1515   */\ntag_65:\n    /* \"#utility.yul\":1317:1344   */\n  tag_118\n    /* \"#utility.yul\":1339:1343   */\n  dup3\n    /* \"#utility.yul\":1317:1344   */\n  tag_63\n  jump\t// in\ntag_118:\n    /* \"#utility.yul\":1309:1315   */\n  dup2\n    /* \"#utility.yul\":1305:1345   */\n  add\n    /* \"#utility.yul\":1447:1453   */\n  dup2\n    /* \"#utility.yul\":1435:1445   */\n  dup2\n    /* \"#utility.yul\":1432:1454   */\n  lt\n    /* \"#utility.yul\":1411:1429   */\n  0xffffffffffffffff\n    /* \"#utility.yul\":1399:1409   */\n  dup3\n    /* \"#utility.yul\":1396:1430   */\n  gt\n    /* \"#utility.yul\":1393:1455   */\n  or\n    /* \"#utility.yul\":1390:1478   */\n  iszero\n  tag_119\n  jumpi\n    /* \"#utility.yul\":1458:1476   */\n  tag_120\n  tag_64\n  jump\t// in\ntag_120:\n    /* \"#utility.yul\":1390:1478   */\ntag_119:\n    /* \"#utility.yul\":1498:1508   */\n  dup1\n    /* \"#utility.yul\":1494:1496   */\n  0x40\n    /* \"#utility.yul\":1487:1509   */\n  mstore\n    /* \"#utility.yul\":1277:1515   */\n  pop\n    /* \"#utility.yul\":1234:1515   */\n  pop\n  pop\n  jump\t// out\n    /* \"#utility.yul\":1521:1650   */\ntag_66:\n    /* \"#utility.yul\":1555:1561   */\n  0x00\n    /* \"#utility.yul\":1582:1602   */\n  tag_122\n  tag_55\n  jump\t// in\ntag_122:\n    /* \"#utility.yul\":1572:1602   */\n  swap1\n  pop\n    /* \"#utility.yul\":1611:1644   */\n  tag_123\n    /* \"#utility.yul\":1639:1643   */\n  dup3\n    /* \"#utility.yul\":1631:1637   */\n  dup3\n    /* \"#utility.yul\":1611:1644   */\n  tag_65\n  jump\t// in\ntag_123:\n    /* \"#utility.yul\":1521:1650   */\n  swap2\n  swap1\n  pop\n  jump\t// out\n    /* \"#utility.yul\":1656:1964   */\ntag_67:\n    /* \"#utility.yul\":1718:1722   */\n  0x00\n    /* \"#utility.yul\":1808:1826   */\n  0xffffffffffffffff\n    /* \"#utility.yul\":1800:1806   */\n  dup3\n    /* \"#utility.yul\":1797:1827   */\n  gt\n    /* \"#utility.yul\":1794:1850   */\n  iszero\n  tag_125\n  jumpi\n    /* \"#utility.yul\":1830:1848   */\n  tag_126\n  tag_64\n  jump\t// in\ntag_126:\n    /* \"#utility.yul\":1794:1850   */\ntag_125:\n    /* \"#utility.yul\":1868:1897   */\n  tag_127\n    /* \"#utility.yul\":1890:1896   */\n  dup3\n    /* \"#utility.yul\":1868:1897   */\n  tag_63\n  jump\t// in\ntag_127:\n    /* \"#utility.yul\":1860:1897   */\n  swap1\n  pop\n    /* \"#utility.yul\":1952:1956   */\n  0x20\n    /* \"#utility.yul\":1946:1950   */\n  dup2\n    /* \"#utility.yul\":1942:1957   */\n  add\n    /* \"#utility.yul\":1934:1957   */\n  swap1\n  pop\n    /* \"#utility.yul\":1656:1964   */\n  swap2\n  swap1\n  pop\n  jump\t// out\n    /* \"#utility.yul\":1970:2216   */\ntag_68:\n    /* \"#utility.yul\":2051:2052   */\n  0x00\n    /* \"#utility.yul\":2061:2174   */\ntag_129:\n    /* \"#utility.yul\":2075:2081   */\n  dup4\n    /* \"#utility.yul\":2072:2073   */\n  dup2\n    /* \"#utility.yul\":2069:2082   */\n  lt\n    /* \"#utility.yul\":2061:2174   */\n  iszero\n  tag_131\n  jumpi\n    /* \"#utility.yul\":2160:2161   */\n  dup1\n    /* \"#utility.yul\":2155:2158   */\n  dup3\n    /* \"#utility.yul\":2151:2162   */\n  add\n    /* \"#utility.yul\":2145:2163   */\n  mload\n    /* \"#utility.yul\":2141:2142   */\n  dup2\n    /* \"#utility.yul\":2136:2139   */\n  dup5\n    /* \"#utility.yul\":2132:2143   */\n  add\n    /* \"#utility.yul\":2125:2164   */\n  mstore\n    /* \"#utility.yul\":2097:2099   */\n  0x20\n    /* \"#utility.yul\":2094:2095   */\n  dup2\n    /* \"#utility.yul\":2090:2100   */\n  add\n    /* \"#utility.yul\":2085:2100   */\n  swap1\n  pop\n    /* \"#utility.yul\":2061:2174   */\n  jump(tag_129)\ntag_131:\n    /* \"#utility.yul\":2208:2209   */\n  0x00\n    /* \"#utility.yul\":2199:2205   */\n  dup5\n    /* \"#utility.yul\":2194:2197   */\n  dup5\n    /* \"#utility.yul\":2190:2206   */\n  add\n    /* \"#utility.yul\":2183:2210   */\n  mstore\n    /* \"#utility.yul\":2032:2216   */\n  pop\n    /* \"#utility.yul\":1970:2216   */\n  pop\n  pop\n  pop\n  jump\t// out\n    /* \"#utility.yul\":2222:2656   */\ntag_69:\n    /* \"#utility.yul\":2311:2316   */\n  0x00\n    /* \"#utility.yul\":2336:2402   */\n  tag_133\n    /* \"#utility.yul\":2352:2401   */\n  tag_134\n    /* \"#utility.yul\":2394:2400   */\n  dup5\n    /* \"#utility.yul\":2352:2401   */\n  tag_67\n  jump\t// in\ntag_134:\n    /* \"#utility.yul\":2336:2402   */\n  tag_66\n  jump\t// in\ntag_133:\n    /* \"#utility.yul\":2327:2402   */\n  swap1\n  pop\n    /* \"#utility.yul\":2425:2431   */\n  dup3\n    /* \"#utility.yul\":2418:2423   */\n  dup2\n    /* \"#utility.yul\":2411:2432   */\n  mstore\n    /* \"#utility.yul\":2463:2467   */\n  0x20\n    /* \"#utility.yul\":2456:2461   */\n  dup2\n    /* \"#utility.yul\":2452:2468   */\n  add\n    /* \"#utility.yul\":2501:2504   */\n  dup5\n    /* \"#utility.yul\":2492:2498   */\n  dup5\n    /* \"#utility.yul\":2487:2490   */\n  dup5\n    /* \"#utility.yul\":2483:2499   */\n  add\n    /* \"#utility.yul\":2480:2505   */\n  gt\n    /* \"#utility.yul\":2477:2589   */\n  iszero\n  tag_135\n  jumpi\n    /* \"#utility.yul\":2508:2587   */\n  tag_136\n  tag_62\n  jump\t// in\ntag_136:\n    /* \"#utility.yul\":2477:2589   */\ntag_135:\n    /* \"#utility.yul\":2598:2650   */\n  tag_137\n    /* \"#utility.yul\":2643:2649   */\n  dup5\n    /* \"#utility.yul\":2638:2641   */\n  dup3\n    /* \"#utility.yul\":2633:2636   */\n  dup6\n    /* \"#utility.yul\":2598:2650   */\n  tag_68\n  jump\t// in\ntag_137:\n    /* \"#utility.yul\":2317:2656   */\n  pop\n    /* \"#utility.yul\":2222:2656   */\n  swap4\n  swap3\n  pop\n  pop\n  pop\n  jump\t// out\n    /* \"#utility.yul\":2676:3031   */\ntag_70:\n    /* \"#utility.yul\":2743:2748   */\n  0x00\n    /* \"#utility.yul\":2792:2795   */\n  dup3\n    /* \"#utility.yul\":2785:2789   */\n  0x1f\n    /* \"#utility.yul\":2777:2783   */\n  dup4\n    /* \"#utility.yul\":2773:2790   */\n  add\n    /* \"#utility.yul\":2769:2796   */\n  slt\n    /* \"#utility.yul\":2759:2881   */\n  tag_139\n  jumpi\n    /* \"#utility.yul\":2800:2879   */\n  tag_140\n  tag_61\n  jump\t// in\ntag_140:\n    /* \"#utility.yul\":2759:2881   */\ntag_139:\n    /* \"#utility.yul\":2910:2916   */\n  dup2\n    /* \"#utility.yul\":2904:2917   */\n  mload\n    /* \"#utility.yul\":2935:3025   */\n  tag_141\n    /* \"#utility.yul\":3021:3024   */\n  dup5\n    /* \"#utility.yul\":3013:3019   */\n  dup3\n    /* \"#utility.yul\":3006:3010   */\n  0x20\n    /* \"#utility.yul\":2998:3004   */\n  dup7\n    /* \"#utility.yul\":2994:3011   */\n  add\n    /* \"#utility.yul\":2935:3025   */\n  tag_69\n  jump\t// in\ntag_141:\n    /* \"#utility.yul\":2926:3025   */\n  swap2\n  pop\n    /* \"#utility.yul\":2749:3031   */\n  pop\n    /* \"#utility.yul\":2676:3031   */\n  swap3\n  swap2\n  pop\n  pop\n  jump\t// out\n    /* \"#utility.yul\":3037:4046   */\ntag_3:\n    /* \"#utility.yul\":3145:3151   */\n  0x00\n    /* \"#utility.yul\":3153:3159   */\n  dup1\n    /* \"#utility.yul\":3161:3167   */\n  0x00\n    /* \"#utility.yul\":3210:3212   */\n  0x60\n    /* \"#utility.yul\":3198:3207   */\n  dup5\n    /* \"#utility.yul\":3189:3196   */\n  dup7\n    /* \"#utility.yul\":3185:3208   */\n  sub\n    /* \"#utility.yul\":3181:3213   */\n  slt\n    /* \"#utility.yul\":3178:3297   */\n  iszero\n  tag_143\n  jumpi\n    /* \"#utility.yul\":3216:3295   */\n  tag_144\n  tag_56\n  jump\t// in\ntag_144:\n    /* \"#utility.yul\":3178:3297   */\ntag_143:\n    /* \"#utility.yul\":3336:3337   */\n  0x00\n    /* \"#utility.yul\":3361:3425   */\n  tag_145\n    /* \"#utility.yul\":3417:3424   */\n  dup7\n    /* \"#utility.yul\":3408:3414   */\n  dup3\n    /* \"#utility.yul\":3397:3406   */\n  dup8\n    /* \"#utility.yul\":3393:3415   */\n  add\n    /* \"#utility.yul\":3361:3425   */\n  tag_60\n  jump\t// in\ntag_145:\n    /* \"#utility.yul\":3351:3425   */\n  swap4\n  pop\n    /* \"#utility.yul\":3307:3435   */\n  pop\n    /* \"#utility.yul\":3495:3497   */\n  0x20\n    /* \"#utility.yul\":3484:3493   */\n  dup5\n    /* \"#utility.yul\":3480:3498   */\n  add\n    /* \"#utility.yul\":3474:3499   */\n  mload\n    /* \"#utility.yul\":3526:3544   */\n  0xffffffffffffffff\n    /* \"#utility.yul\":3518:3524   */\n  dup2\n    /* \"#utility.yul\":3515:3545   */\n  gt\n    /* \"#utility.yul\":3512:3629   */\n  iszero\n  tag_146\n  jumpi\n    /* \"#utility.yul\":3548:3627   */\n  tag_147\n  tag_57\n  jump\t// in\ntag_147:\n    /* \"#utility.yul\":3512:3629   */\ntag_146:\n    /* \"#utility.yul\":3653:3727   */\n  tag_148\n    /* \"#utility.yul\":3719:3726   */\n  dup7\n    /* \"#utility.yul\":3710:3716   */\n  dup3\n    /* \"#utility.yul\":3699:3708   */\n  dup8\n    /* \"#utility.yul\":3695:3717   */\n  add\n    /* \"#utility.yul\":3653:3727   */\n  tag_70\n  jump\t// in\ntag_148:\n    /* \"#utility.yul\":3643:3727   */\n  swap3\n  pop\n    /* \"#utility.yul\":3445:3737   */\n  pop\n    /* \"#utility.yul\":3797:3799   */\n  0x40\n    /* \"#utility.yul\":3786:3795   */\n  dup5\n    /* \"#utility.yul\":3782:3800   */\n  add\n    /* \"#utility.yul\":3776:3801   */\n  mload\n    /* \"#utility.yul\":3828:3846   */\n  0xffffffffffffffff\n    /* \"#utility.yul\":3820:3826   */\n  dup2\n    /* \"#utility.yul\":3817:3847   */\n  gt\n    /* \"#utility.yul\":3814:3931   */\n  iszero\n  tag_149\n  jumpi\n    /* \"#utility.yul\":3850:3929   */\n  tag_150\n  tag_57\n  jump\t// in\ntag_150:\n    /* \"#utility.yul\":3814:3931   */\ntag_149:\n    /* \"#utility.yul\":3955:4029   */\n  tag_151\n    /* \"#utility.yul\":4021:4028   */\n  dup7\n    /* \"#utility.yul\":4012:4018   */\n  dup3\n    /* \"#utility.yul\":4001:4010   */\n  dup8\n    /* \"#utility.yul\":3997:4019   */\n  add\n    /* \"#utility.yul\":3955:4029   */\n  tag_70\n  jump\t// in\ntag_151:\n    /* \"#utility.yul\":3945:4029   */\n  swap2\n  pop\n    /* \"#utility.yul\":3747:4039   */\n  pop\n    /* \"#utility.yul\":3037:4046   */\n  swap3\n  pop\n  swap3\n  pop\n  swap3\n  jump\t// out\n    /* \"#utility.yul\":4052:4151   */\ntag_71:\n    /* \"#utility.yul\":4104:4110   */\n  0x00\n    /* \"#utility.yul\":4138:4143   */\n  dup2\n    /* \"#utility.yul\":4132:4144   */\n  mload\n    /* \"#utility.yul\":4122:4144   */\n  swap1\n  pop\n    /* \"#utility.yul\":4052:4151   */\n  swap2\n  swap1\n  pop\n  jump\t// out\n    /* \"#utility.yul\":4157:4337   */\ntag_72:\n    /* \"#utility.yul\":4205:4282   */\n  0x4e487b7100000000000000000000000000000000000000000000000000000000\n    /* \"#utility.yul\":4202:4203   */\n  0x00\n    /* \"#utility.yul\":4195:4283   */\n  mstore\n    /* \"#utility.yul\":4302:4306   */\n  0x22\n    /* \"#utility.yul\":4299:4300   */\n  0x04\n    /* \"#utility.yul\":4292:4307   */\n  mstore\n    /* \"#utility.yul\":4326:4330   */\n  0x24\n    /* \"#utility.yul\":4323:4324   */\n  0x00\n    /* \"#utility.yul\":4316:4331   */\n  revert\n    /* \"#utility.yul\":4343:4663   */\ntag_73:\n    /* \"#utility.yul\":4387:4393   */\n  0x00\n    /* \"#utility.yul\":4424:4425   */\n  0x02\n    /* \"#utility.yul\":4418:4422   */\n  dup3\n    /* \"#utility.yul\":4414:4426   */\n  div\n    /* \"#utility.yul\":4404:4426   */\n  swap1\n  pop\n    /* \"#utility.yul\":4471:4472   */\n  0x01\n    /* \"#utility.yul\":4465:4469   */\n  dup3\n    /* \"#utility.yul\":4461:4473   */\n  and\n    /* \"#utility.yul\":4492:4510   */\n  dup1\n    /* \"#utility.yul\":4482:4563   */\n  tag_155\n  jumpi\n    /* \"#utility.yul\":4548:4552   */\n  0x7f\n    /* \"#utility.yul\":4540:4546   */\n  dup3\n    /* \"#utility.yul\":4536:4553   */\n  and\n    /* \"#utility.yul\":4526:4553   */\n  swap2\n  pop\n    /* \"#utility.yul\":4482:4563   */\ntag_155:\n    /* \"#utility.yul\":4610:4612   */\n  0x20\n    /* \"#utility.yul\":4602:4608   */\n  dup3\n    /* \"#utility.yul\":4599:4613   */\n  lt\n    /* \"#utility.yul\":4579:4597   */\n  dup2\n    /* \"#utility.yul\":4576:4614   */\n  sub\n    /* \"#utility.yul\":4573:4657   */\n  tag_156\n  jumpi\n    /* \"#utility.yul\":4629:4647   */\n  tag_157\n  tag_72\n  jump\t// in\ntag_157:\n    /* \"#utility.yul\":4573:4657   */\ntag_156:\n    /* \"#utility.yul\":4394:4663   */\n  pop\n    /* \"#utility.yul\":4343:4663   */\n  swap2\n  swap1\n  pop\n  jump\t// out\n    /* \"#utility.yul\":4669:4810   */\ntag_74:\n    /* \"#utility.yul\":4718:4722   */\n  0x00\n    /* \"#utility.yul\":4741:4744   */\n  dup2\n    /* \"#utility.yul\":4733:4744   */\n  swap1\n  pop\n    /* \"#utility.yul\":4764:4767   */\n  dup2\n    /* \"#utility.yul\":4761:4762   */\n  0x00\n    /* \"#utility.yul\":4754:4768   */\n  mstore\n    /* \"#utility.yul\":4798:4802   */\n  0x20\n    /* \"#utility.yul\":4795:4796   */\n  0x00\n    /* \"#utility.yul\":4785:4803   */\n  keccak256\n    /* \"#utility.yul\":4777:4803   */\n  swap1\n  pop\n    /* \"#utility.yul\":4669:4810   */\n  swap2\n  swap1\n  pop\n  jump\t// out\n    /* \"#utility.yul\":4816:4909   */\ntag_75:\n    /* \"#utility.yul\":4853:4859   */\n  0x00\n    /* \"#utility.yul\":4900:4902   */\n  0x20\n    /* \"#utility.yul\":4895:4897   */\n  0x1f\n    /* \"#utility.yul\":4888:4893   */\n  dup4\n    /* \"#utility.yul\":4884:4898   */\n  add\n    /* \"#utility.yul\":4880:4903   */\n  div\n    /* \"#utility.yul\":4870:4903   */\n  swap1\n  pop\n    /* \"#utility.yul\":4816:4909   */\n  swap2\n  swap1\n  pop\n  jump\t// out\n    /* \"#utility.yul\":4915:5022   */\ntag_76:\n    /* \"#utility.yul\":4959:4967   */\n  0x00\n    /* \"#utility.yul\":5009:5014   */\n  dup3\n    /* \"#utility.yul\":5003:5007   */\n  dup3\n    /* \"#utility.yul\":4999:5015   */\n  shl\n    /* \"#utility.yul\":4978:5015   */\n  swap1\n  pop\n    /* \"#utility.yul\":4915:5022   */\n  swap3\n  swap2\n  pop\n  pop\n  jump\t// out\n    /* \"#utility.yul\":5028:5421   */\ntag_77:\n    /* \"#utility.yul\":5097:5103   */\n  0x00\n    /* \"#utility.yul\":5147:5148   */\n  0x08\n    /* \"#utility.yul\":5135:5145   */\n  dup4\n    /* \"#utility.yul\":5131:5149   */\n  mul\n    /* \"#utility.yul\":5170:5267   */\n  tag_162\n    /* \"#utility.yul\":5200:5266   */\n  0xffffffffffffffffffffffffffffffffffffffffffffffffffffffffffffffff\n    /* \"#utility.yul\":5189:5198   */\n  dup3\n    /* \"#utility.yul\":5170:5267   */\n  tag_76\n  jump\t// in\ntag_162:\n    /* \"#utility.yul\":5288:5327   */\n  tag_163\n    /* \"#utility.yul\":5318:5326   */\n  dup7\n    /* \"#utility.yul\":5307:5316   */\n  dup4\n    /* \"#utility.yul\":5288:5327   */\n  tag_76\n  jump\t// in\ntag_163:\n    /* \"#utility.yul\":5276:5327   */\n  swap6\n  pop\n    /* \"#utility.yul\":5360:5364   */\n  dup1\n    /* \"#utility.yul\":5356:5365   */\n  not\n    /* \"#utility.yul\":5349:5354   */\n  dup5\n    /* \"#utility.yul\":5345:5366   */\n  and\n    /* \"#utility.yul\":5336:5366   */\n  swap4\n  pop\n    /* \"#utility.yul\":5409:5413   */\n  dup1\n    /* \"#utility.yul\":5399:5407   */\n  dup7\n    /* \"#utility.yul\":5395:5414   */\n  and\n    /* \"#utility.yul\":5388:5393   */\n  dup5\n    /* \"#utility.yul\":5385:5415   */\n  or\n    /* \"#utility.yul\":5375:5415   */\n  swap3\n  pop\n    /* \"#utility.yul\":5104:5421   */\n  pop\n  pop\n    /* \"#utility.yul\":5028:5421   */\n  swap4\n  swap3\n  pop\n  pop\n  pop\n  jump\t// out\n    /* \"#utility.yul\":5427:5487   */\ntag_78:\n    /* \"#utility.yul\":5455:5458   */\n  0x00\n    /* \"#utility.yul\":5476:5481   */\n  dup2\n    /* \"#utility.yul\":5469:5481   */\n  swap1\n  pop\n    /* \"#utility.yul\":5427:5487   */\n  swap2\n  swap1\n  pop\n  jump\t// out\n    /* \"#utility.yul\":5493:5635   */\ntag_79:\n    /* \"#utility.yul\":5543:5552   */\n  0x00\n    /* \"#utility.yul\":5576:5629   */\n  tag_166\n    /* \"#utility.yul\":5594:5628   */\n  tag_167\n    /* \"#utility.yul\":5603:5627   */\n  tag_168\n    /* \"#utility.yul\":5621:5626   */\n  dup5\n    /* \"#utility.yul\":5603:5627   */\n  tag_58\n  jump\t// in\ntag_168:\n    /* \"#utility.yul\":5594:5628   */\n  tag_78\n  jump\t// in\ntag_167:\n    /* \"#utility.yul\":5576:5629   */\n  tag_58\n  jump\t// in\ntag_166:\n    /* \"#utility.yul\":5563:5629   */\n  swap1\n  pop\n    /* \"#utility.yul\":5493:5635   */\n  swap2\n  swap1\n  pop\n  jump\t// out\n    /* \"#utility.yul\":5641:5716   */\ntag_80:\n    /* \"#utility.yul\":5684:5687   */\n  0x00\n    /* \"#utility.yul\":5705:5710   */\n  dup2\n    /* \"#utility.yul\":5698:5710   */\n  swap1\n  pop\n    /* \"#utility.yul\":5641:5716   */\n  swap2\n  swap1\n  pop\n  jump\t// out\n    /* \"#utility.yul\":5722:5991   */\ntag_81:\n    /* \"#utility.yul\":5832:5871   */\n  tag_171\n    /* \"#utility.yul\":5863:5870   */\n  dup4\n    /* \"#utility.yul\":5832:5871   */\n  tag_79\n  jump\t// in\ntag_171:\n    /* \"#utility.yul\":5893:5984   */\n  tag_172\n    /* \"#utility.yul\":5942:5983   */\n  tag_173\n    /* \"#utility.yul\":5966:5982   */\n  dup3\n    /* \"#utility.yul\":5942:5983   */\n  tag_80\n  jump\t// in\ntag_173:\n    /* \"#utility.yul\":5934:5940   */\n  dup5\n    /* \"#utility.yul\":5927:5931   */\n  dup5\n    /* \"#utility.yul\":5921:5932   */\n  sload\n    /* \"#utility.yul\":5893:5984   */\n  tag_77\n  jump\t// in\ntag_172:\n    /* \"#utility.yul\":5887:5891   */\n  dup3\n    /* \"#utility.yul\":5880:5985   */\n  sstore\n    /* \"#utility.yul\":5798:5991   */\n  pop\n    /* \"#utility.yul\":5722:5991   */\n  pop\n  pop\n  pop\n  jump\t// out\n    /* \"#utility.yul\":5997:6070   */\ntag_82:\n    /* \"#utility.yul\":6042:6045   */\n  0x00\n    /* \"#utility.yul\":5997:6070   */\n  swap1\n  jump\t// out\n    /* \"#utility.yul\":6076:6265   */\ntag_83:\n    /* \"#utility.yul\":6153:6185   */\n  tag_176\n  tag_82\n  jump\t// in\ntag_176:\n    /* \"#utility.yul\":6194:6259   */\n  tag_177\n    /* \"#utility.yul\":6252:6258   */\n  dup2\n    /* \"#utility.yul\":6244:6250   */\n  dup5\n    /* \"#utility.yul\":6238:6242   */\n  dup5\n    /* \"#utility.yul\":6194:6259   */\n  tag_81\n  jump\t// in\ntag_177:\n    /* \"#utility.yul\":6129:6265   */\n  pop\n    /* \"#utility.yul\":6076:6265   */\n  pop\n  pop\n  jump\t// out\n    /* \"#utility.yul\":6271:6457   */\ntag_84:\n    /* \"#utility.yul\":6331:6451   */\ntag_179:\n    /* \"#utility.yul\":6348:6351   */\n  dup2\n    /* \"#utility.yul\":6341:6346   */\n  dup2\n    /* \"#utility.yul\":6338:6352   */\n  lt\n    /* \"#utility.yul\":6331:6451   */\n  iszero\n  tag_181\n  jumpi\n    /* \"#utility.yul\":6402:6441   */\n  tag_182\n    /* \"#utility.yul\":6439:6440   */\n  0x00\n    /* \"#utility.yul\":6432:6437   */\n  dup3\n    /* \"#utility.yul\":6402:6441   */\n  tag_83\n  jump\t// in\ntag_182:\n    /* \"#utility.yul\":6375:6376   */\n  0x01\n    /* \"#utility.yul\":6368:6373   */\n  dup2\n    /* \"#utility.yul\":6364:6377   */\n  add\n    /* \"#utility.yul\":6355:6377   */\n  swap1\n  pop\n    /* \"#utility.yul\":6331:6451   */\n  jump(tag_179)\ntag_181:\n    /* \"#utility.yul\":6271:6457   */\n  pop\n  pop\n  jump\t// out\n    /* \"#utility.yul\":6463:7006   */\ntag_85:\n    /* \"#utility.yul\":6564:6566   */\n  0x1f\n    /* \"#utility.yul\":6559:6562   */\n  dup3\n    /* \"#utility.yul\":6556:6567   */\n  gt\n    /* \"#utility.yul\":6553:6999   */\n  iszero\n  tag_184\n  jumpi\n    /* \"#utility.yul\":6598:6636   */\n  tag_185\n    /* \"#utility.yul\":6630:6635   */\n  dup2\n    /* \"#utility.yul\":6598:6636   */\n  tag_74\n  jump\t// in\ntag_185:\n    /* \"#utility.yul\":6682:6711   */\n  tag_186\n    /* \"#utility.yul\":6700:6710   */\n  dup5\n    /* \"#utility.yul\":6682:6711   */\n  tag_75\n  jump\t// in\ntag_186:\n    /* \"#utility.yul\":6672:6680   */\n  dup2\n    /* \"#utility.yul\":6668:6712   */\n  add\n    /* \"#utility.yul\":6865:6867   */\n  0x20\n    /* \"#utility.yul\":6853:6863   */\n  dup6\n    /* \"#utility.yul\":6850:6868   */\n  lt\n    /* \"#utility.yul\":6847:6896   */\n  iszero\n  tag_187\n  jumpi\n    /* \"#utility.yul\":6886:6894   */\n  dup2\n    /* \"#utility.yul\":6871:6894   */\n  swap1\n  pop\n    /* \"#utility.yul\":6847:6896   */\ntag_187:\n    /* \"#utility.yul\":6909:6989   */\n  tag_188\n    /* \"#utility.yul\":6965:6987   */\n  tag_189\n    /* \"#utility.yul\":6983:6986   */\n  dup6\n    /* \"#utility.yul\":6965:6987   */\n  tag_75\n  jump\t// in\ntag_189:\n    /* \"#utility.yul\":6955:6963   */\n  dup4\n    /* \"#utility.yul\":6951:6988   */\n  add\n    /* \"#utility.yul\":6938:6949   */\n  dup3\n    /* \"#utility.yul\":6909:6989   */\n  tag_84\n  jump\t// in\ntag_188:\n    /* \"#utility.yul\":6568:6999   */\n  pop\n  pop\n    /* \"#utility.yul\":6553:6999   */\ntag_184:\n    /* \"#utility.yul\":6463:7006   */\n  pop\n  pop\n  pop\n  jump\t// out\n    /* \"#utility.yul\":7012:7129   */\ntag_86:\n    /* \"#utility.yul\":7066:7074   */\n  0x00\n    /* \"#utility.yul\":7116:7121   */\n  dup3\n    /* \"#utility.yul\":7110:7114   */\n  dup3\n    /* \"#utility.yul\":7106:7122   */\n  shr\n    /* \"#utility.yul\":7085:7122   */\n  swap1\n  pop\n    /* \"#utility.yul\":7012:7129   */\n  swap3\n  swap2\n  pop\n  pop\n  jump\t// out\n    /* \"#utility.yul\":7135:7304   */\ntag_87:\n    /* \"#utility.yul\":7179:7185   */\n  0x00\n    /* \"#utility.yul\":7212:7263   */\n  tag_192\n    /* \"#utility.yul\":7260:7261   */\n  0x00\n    /* \"#utility.yul\":7256:7262   */\n  not\n    /* \"#utility.yul\":7248:7253   */\n  dup5\n    /* \"#utility.yul\":7245:7246   */\n  0x08\n    /* \"#utility.yul\":7241:7254   */\n  mul\n    /* \"#utility.yul\":7212:7263   */\n  tag_86\n  jump\t// in\ntag_192:\n    /* \"#utility.yul\":7208:7264   */\n  not\n    /* \"#utility.yul\":7293:7297   */\n  dup1\n    /* \"#utility.yul\":7287:7291   */\n  dup4\n    /* \"#utility.yul\":7283:7298   */\n  and\n    /* \"#utility.yul\":7273:7298   */\n  swap2\n  pop\n    /* \"#utility.yul\":7186:7304   */\n  pop\n    /* \"#utility.yul\":7135:7304   */\n  swap3\n  swap2\n  pop\n  pop\n  jump\t// out\n    /* \"#utility.yul\":7309:7604   */\ntag_88:\n    /* \"#utility.yul\":7385:7389   */\n  0x00\n    /* \"#utility.yul\":7531:7560   */\n  tag_194\n    /* \"#utility.yul\":7556:7559   */\n  dup4\n    /* \"#utility.yul\":7550:7554   */\n  dup4\n    /* \"#utility.yul\":7531:7560   */\n  tag_87\n  jump\t// in\ntag_194:\n    /* \"#utility.yul\":7523:7560   */\n  swap2\n  pop\n    /* \"#utility.yul\":7593:7596   */\n  dup3\n    /* \"#utility.yul\":7590:7591   */\n  0x02\n    /* \"#utility.yul\":7586:7597   */\n  mul\n    /* \"#utility.yul\":7580:7584   */\n  dup3\n    /* \"#utility.yul\":7577:7598   */\n  or\n    /* \"#utility.yul\":7569:7598   */\n  swap1\n  pop\n    /* \"#utility.yul\":7309:7604   */\n  swap3\n  swap2\n  pop\n  pop\n  jump\t// out\n    /* \"#utility.yul\":7609:9004   */\ntag_10:\n    /* \"#utility.yul\":7726:7763   */\n  tag_196\n    /* \"#utility.yul\":7759:7762   */\n  dup3\n    /* \"#utility.yul\":7726:7763   */\n  tag_71\n  jump\t// in\ntag_196:\n    /* \"#utility.yul\":7828:7846   */\n  0xffffffffffffffff\n    /* \"#utility.yul\":7820:7826   */\n  dup2\n    /* \"#utility.yul\":7817:7847   */\n  gt\n    /* \"#utility.yul\":7814:7870   */\n  iszero\n  tag_197\n  jumpi\n    /* \"#utility.yul\":7850:7868   */\n  tag_198\n  tag_64\n  jump\t// in\ntag_198:\n    /* \"#utility.yul\":7814:7870   */\ntag_197:\n    /* \"#utility.yul\":7894:7932   */\n  tag_199\n    /* \"#utility.yul\":7926:7930   */\n  dup3\n    /* \"#utility.yul\":7920:7931   */\n  sload\n    /* \"#utility.yul\":7894:7932   */\n  tag_73\n  jump\t// in\ntag_199:\n    /* \"#utility.yul\":7979:8046   */\n  tag_200\n    /* \"#utility.yul\":8039:8045   */\n  dup3\n    /* \"#utility.yul\":8031:8037   */\n  dup3\n    /* \"#utility.yul\":8025:8029   */\n  dup6\n    /* \"#utility.yul\":7979:8046   */\n  tag_85\n  jump\t// in\ntag_200:\n    /* \"#utility.yul\":8073:8074   */\n  0x00\n    /* \"#utility.yul\":8097:8101   */\n  0x20\n    /* \"#utility.yul\":8084:8101   */\n  swap1\n  pop\n    /* \"#utility.yul\":8129:8131   */\n  0x1f\n    /* \"#utility.yul\":8121:8127   */\n  dup4\n    /* \"#utility.yul\":8118:8132   */\n  gt\n    /* \"#utility.yul\":8146:8147   */\n  0x01\n    /* \"#utility.yul\":8141:8759   */\n  dup2\n  eq\n  tag_202\n  jumpi\n    /* \"#utility.yul\":8803:8804   */\n  0x00\n    /* \"#utility.yul\":8820:8826   */\n  dup5\n    /* \"#utility.yul\":8817:8894   */\n  iszero\n  tag_203\n  jumpi\n    /* \"#utility.yul\":8869:8878   */\n  dup3\n    /* \"#utility.yul\":8864:8867   */\n  dup8\n    /* \"#utility.yul\":8860:8879   */\n  add\n    /* \"#utility.yul\":8854:8880   */\n  mload\n    /* \"#utility.yul\":8845:8880   */\n  swap1\n  pop\n    /* \"#utility.yul\":8817:8894   */\ntag_203:\n    /* \"#utility.yul\":8920:8987   */\n  tag_204\n    /* \"#utility.yul\":8980:8986   */\n  dup6\n    /* \"#utility.yul\":8973:8978   */\n  dup3\n    /* \"#utility.yul\":8920:8987   */\n  tag_88\n  jump\t// in\ntag_204:\n    /* \"#utility.yul\":8914:8918   */\n  dup7\n    /* \"#utility.yul\":8907:8988   */\n  sstore\n    /* \"#utility.yul\":8776:8998   */\n  pop\n    /* \"#utility.yul\":8111:8998   */\n  jump(tag_201)\n    /* \"#utility.yul\":8141:8759   */\ntag_202:\n    /* \"#utility.yul\":8193:8197   */\n  0x1f\n    /* \"#utility.yul\":8189:8198   */\n  not\n    /* \"#utility.yul\":8181:8187   */\n  dup5\n    /* \"#utility.yul\":8177:8199   */\n  and\n    /* \"#utility.yul\":8227:8264   */\n  tag_205\n    /* \"#utility.yul\":8259:8263   */\n  dup7\n    /* \"#utility.yul\":8227:8264   */\n  tag_74\n  jump\t// in\ntag_205:\n    /* \"#utility.yul\":8286:8287   */\n  0x00\n    /* \"#utility.yul\":8300:8508   */\ntag_206:\n    /* \"#utility.yul\":8314:8321   */\n  dup3\n    /* \"#utility.yul\":8311:8312   */\n  dup2\n    /* \"#utility.yul\":8308:8322   */\n  lt\n    /* \"#utility.yul\":8300:8508   */\n  iszero\n  tag_208\n  jumpi\n    /* \"#utility.yul\":8393:8402   */\n  dup5\n    /* \"#utility.yul\":8388:8391   */\n  dup10\n    /* \"#utility.yul\":8384:8403   */\n  add\n    /* \"#utility.yul\":8378:8404   */\n  mload\n    /* \"#utility.yul\":8370:8376   */\n  dup3\n    /* \"#utility.yul\":8363:8405   */\n  sstore\n    /* \"#utility.yul\":8444:8445   */\n  0x01\n    /* \"#utility.yul\":8436:8442   */\n  dup3\n    /* \"#utility.yul\":8432:8446   */\n  add\n    /* \"#utility.yul\":8422:8446   */\n  swap2\n  pop\n    /* \"#utility.yul\":8491:8493   */\n  0x20\n    /* \"#utility.yul\":8480:8489   */\n  dup6\n    /* \"#utility.yul\":8476:8494   */\n  add\n    /* \"#utility.yul\":8463:8494   */\n  swap5\n  pop\n    /* \"#utility.yul\":8337:8341   */\n  0x20\n    /* \"#utility.yul\":8334:8335   */\n  dup2\n    /* \"#utility.yul\":8330:8342   */\n  add\n    /* \"#utility.yul\":8325:8342   */\n  swap1\n  pop\n    /* \"#utility.yul\":8300:8508   */\n  jump(tag_206)\ntag_208:\n    /* \"#utility.yul\":8536:8542   */\n  dup7\n    /* \"#utility.yul\":8527:8534   */\n  dup4\n    /* \"#utility.yul\":8524:8543   */\n  lt\n    /* \"#utility.yul\":8521:8700   */\n  iszero\n  tag_209\n  jumpi\n    /* \"#utility.yul\":8594:8603   */\n  dup5\n    /* \"#utility.yul\":8589:8592   */\n  dup10\n    /* \"#utility.yul\":8585:8604   */\n  add\n    /* \"#utility.yul\":8579:8605   */\n  mload\n    /* \"#utility.yul\":8637:8685   */\n  tag_210\n    /* \"#utility.yul\":8679:8683   */\n  0x1f\n    /* \"#utility.yul\":8671:8677   */\n  dup10\n    /* \"#utility.yul\":8667:8684   */\n  and\n    /* \"#utility.yul\":8656:8665   */\n  dup3\n    /* \"#utility.yul\":8637:8685   */\n  tag_87\n  jump\t// in\ntag_210:\n    /* \"#utility.yul\":8629:8635   */\n  dup4\n    /* \"#utility.yul\":8622:8686   */\n  sstore\n    /* \"#utility.yul\":8544:8700   */\n  pop\n    /* \"#utility.yul\":8521:8700   */\ntag_209:\n    /* \"#utility.yul\":8746:8747   */\n  0x01\n    /* \"#utility.yul\":8742:8743   */\n  0x02\n    /* \"#utility.yul\":8734:8740   */\n  dup9\n    /* \"#utility.yul\":8730:8744   */\n  mul\n    /* \"#utility.yul\":8726:8748   */\n  add\n    /* \"#utility.yul\":8720:8724   */\n  dup9\n    /* \"#utility.yul\":8713:8749   */\n  sstore\n    /* \"#utility.yul\":8148:8759   */\n  pop\n  pop\n  pop\n    /* \"#utility.yul\":8111:8998   */\ntag_201:\n  pop\n    /* \"#utility.yul\":7701:9004   */\n  pop\n  pop\n  pop\n    /* \"#utility.yul\":7609:9004   */\n  pop\n  pop\n  jump\t// out\n    /* \"#utility.yul\":9010:9087   */\ntag_89:\n    /* \"#utility.yul\":9047:9054   */\n  0x00\n    /* \"#utility.yul\":9076:9081   */\n  dup2\n    /* \"#utility.yul\":9065:9081   */\n  swap1\n  pop\n    /* \"#utility.yul\":9010:9087   */\n  swap2\n  swap1\n  pop\n  jump\t// out\n    /* \"#utility.yul\":9093:9211   */\ntag_90:\n    /* \"#utility.yul\":9180:9204   */\n  tag_213\n    /* \"#utility.yul\":9198:9203   */\n  dup2\n    /* \"#utility.yul\":9180:9204   */\n  tag_89\n  jump\t// in\ntag_213:\n    /* \"#utility.yul\":9175:9178   */\n  dup3\n    /* \"#utility.yul\":9168:9205   */\n  mstore\n    /* \"#utility.yul\":9093:9211   */\n  pop\n  pop\n  jump\t// out\n    /* \"#utility.yul\":9217:9335   */\ntag_91:\n    /* \"#utility.yul\":9304:9328   */\n  tag_215\n    /* \"#utility.yul\":9322:9327   */\n  dup2\n    /* \"#utility.yul\":9304:9328   */\n  tag_58\n  jump\t// in\ntag_215:\n    /* \"#utility.yul\":9299:9302   */\n  dup3\n    /* \"#utility.yul\":9292:9329   */\n  mstore\n    /* \"#utility.yul\":9217:9335   */\n  pop\n  pop\n  jump\t// out\n    /* \"#utility.yul\":9341:9467   */\ntag_92:\n    /* \"#utility.yul\":9378:9385   */\n  0x00\n    /* \"#utility.yul\":9418:9460   */\n  0xffffffffffffffffffffffffffffffffffffffff\n    /* \"#utility.yul\":9411:9416   */\n  dup3\n    /* \"#utility.yul\":9407:9461   */\n  and\n    /* \"#utility.yul\":9396:9461   */\n  swap1\n  pop\n    /* \"#utility.yul\":9341:9467   */\n  swap2\n  swap1\n  pop\n  jump\t// out\n    /* \"#utility.yul\":9473:9569   */\ntag_93:\n    /* \"#utility.yul\":9510:9517   */\n  0x00\n    /* \"#utility.yul\":9539:9563   */\n  tag_218\n    /* \"#utility.yul\":9557:9562   */\n  dup3\n    /* \"#utility.yul\":9539:9563   */\n  tag_92\n  jump\t// in\ntag_218:\n    /* \"#utility.yul\":9528:9563   */\n  swap1\n  pop\n    /* \"#utility.yul\":9473:9569   */\n  swap2\n  swap1\n  pop\n  jump\t// out\n    /* \"#utility.yul\":9575:9693   */\ntag_94:\n    /* \"#utility.yul\":9662:9686   */\n  tag_220\n    /* \"#utility.yul\":9680:9685   */\n  dup2\n    /* \"#utility.yul\":9662:9686   */\n  tag_93\n  jump\t// in\ntag_220:\n    /* \"#utility.yul\":9657:9660   */\n  dup3\n    /* \"#utility.yul\":9650:9687   */\n  mstore\n    /* \"#utility.yul\":9575:9693   */\n  pop\n  pop\n  jump\t// out\n    /* \"#utility.yul\":9699:10363   */\ntag_33:\n    /* \"#utility.yul\":9904:9908   */\n  0x00\n    /* \"#utility.yul\":9942:9945   */\n  0xa0\n    /* \"#utility.yul\":9931:9940   */\n  dup3\n    /* \"#utility.yul\":9927:9946   */\n  add\n    /* \"#utility.yul\":9919:9946   */\n  swap1\n  pop\n    /* \"#utility.yul\":9956:10027   */\n  tag_222\n    /* \"#utility.yul\":10024:10025   */\n  0x00\n    /* \"#utility.yul\":10013:10022   */\n  dup4\n    /* \"#utility.yul\":10009:10026   */\n  add\n    /* \"#utility.yul\":10000:10006   */\n  dup9\n    /* \"#utility.yul\":9956:10027   */\n  tag_90\n  jump\t// in\ntag_222:\n    /* \"#utility.yul\":10037:10109   */\n  tag_223\n    /* \"#utility.yul\":10105:10107   */\n  0x20\n    /* \"#utility.yul\":10094:10103   */\n  dup4\n    /* \"#utility.yul\":10090:10108   */\n  add\n    /* \"#utility.yul\":10081:10087   */\n  dup8\n    /* \"#utility.yul\":10037:10109   */\n  tag_90\n  jump\t// in\ntag_223:\n    /* \"#utility.yul\":10119:10191   */\n  tag_224\n    /* \"#utility.yul\":10187:10189   */\n  0x40\n    /* \"#utility.yul\":10176:10185   */\n  dup4\n    /* \"#utility.yul\":10172:10190   */\n  add\n    /* \"#utility.yul\":10163:10169   */\n  dup7\n    /* \"#utility.yul\":10119:10191   */\n  tag_90\n  jump\t// in\ntag_224:\n    /* \"#utility.yul\":10201:10273   */\n  tag_225\n    /* \"#utility.yul\":10269:10271   */\n  0x60\n    /* \"#utility.yul\":10258:10267   */\n  dup4\n    /* \"#utility.yul\":10254:10272   */\n  add\n    /* \"#utility.yul\":10245:10251   */\n  dup6\n    /* \"#utility.yul\":10201:10273   */\n  tag_91\n  jump\t// in\ntag_225:\n    /* \"#utility.yul\":10283:10356   */\n  tag_226\n    /* \"#utility.yul\":10351:10354   */\n  0x80\n    /* \"#utility.yul\":10340:10349   */\n  dup4\n    /* \"#utility.yul\":10336:10355   */\n  add\n    /* \"#utility.yul\":10327:10333   */\n  dup5\n    /* \"#utility.yul\":10283:10356   */\n  tag_94\n  jump\t// in\ntag_226:\n    /* \"#utility.yul\":9699:10363   */\n  swap7\n  swap6\n  pop\n  pop\n  pop\n  pop\n  pop\n  pop\n  jump\t// out\n    /* \"#utility.yul\":10369:10538   */\ntag_95:\n    /* \"#utility.yul\":10453:10464   */\n  0x00\n    /* \"#utility.yul\":10487:10493   */\n  dup3\n    /* \"#utility.yul\":10482:10485   */\n  dup3\n    /* \"#utility.yul\":10475:10494   */\n  mstore\n    /* \"#utility.yul\":10527:10531   */\n  0x20\n    /* \"#utility.yul\":10522:10525   */\n  dup3\n    /* \"#utility.yul\":10518:10532   */\n  add\n    /* \"#utility.yul\":10503:10532   */\n  swap1\n  pop\n    /* \"#utility.yul\":10369:10538   */\n  swap3\n  swap2\n  pop\n  pop\n  jump\t// out\n    /* \"#utility.yul\":10544:10725   */\ntag_96:\n    /* \"#utility.yul\":10684:10717   */\n  0x45524332303a206d696e7420746f20746865207a65726f206164647265737300\n    /* \"#utility.yul\":10680:10681   */\n  0x00\n    /* \"#utility.yul\":10672:10678   */\n  dup3\n    /* \"#utility.yul\":10668:10682   */\n  add\n    /* \"#utility.yul\":10661:10718   */\n  mstore\n    /* \"#utility.yul\":10544:10725   */\n  pop\n  jump\t// out\n    /* \"#utility.yul\":10731:11097   */\ntag_97:\n    /* \"#utility.yul\":10873:10876   */\n  0x00\n    /* \"#utility.yul\":10894:10961   */\n  tag_230\n    /* \"#utility.yul\":10958:10960   */\n  0x1f\n    /* \"#utility.yul\":10953:10956   */\n  dup4\n    /* \"#utility.yul\":10894:10961   */\n  tag_95\n  jump\t// in\ntag_230:\n    /* \"#utility.yul\":10887:10961   */\n  swap2\n  pop\n    /* \"#utility.yul\":10970:11063   */\n  tag_231\n    /* \"#utility.yul\":11059:11062   */\n  dup3\n    /* \"#utility.yul\":10970:11063   */\n  tag_96\n  jump\t// in\ntag_231:\n    /* \"#utility.yul\":11088:11090   */\n  0x20\n    /* \"#utility.yul\":11083:11086   */\n  dup3\n    /* \"#utility.yul\":11079:11091   */\n  add\n    /* \"#utility.yul\":11072:11091   */\n  swap1\n  pop\n    /* \"#utility.yul\":10731:11097   */\n  swap2\n  swap1\n  pop\n  jump\t// out\n    /* \"#utility.yul\":11103:11522   */\ntag_37:\n    /* \"#utility.yul\":11269:11273   */\n  0x00\n    /* \"#utility.yul\":11307:11309   */\n  0x20\n    /* \"#utility.yul\":11296:11305   */\n  dup3\n    /* \"#utility.yul\":11292:11310   */\n  add\n    /* \"#utility.yul\":11284:11310   */\n  swap1\n  pop\n    /* \"#utility.yul\":11356:11365   */\n  dup2\n    /* \"#utility.yul\":11350:11354   */\n  dup2\n    /* \"#utility.yul\":11346:11366   */\n  sub\n    /* \"#utility.yul\":11342:11343   */\n  0x00\n    /* \"#utility.yul\":11331:11340   */\n  dup4\n    /* \"#utility.yul\":11327:11344   */\n  add\n    /* \"#utility.yul\":11320:11367   */\n  mstore\n    /* \"#utility.yul\":11384:11515   */\n  tag_233\n    /* \"#utility.yul\":11510:11514   */\n  dup2\n    /* \"#utility.yul\":11384:11515   */\n  tag_97\n  jump\t// in\ntag_233:\n    /* \"#utility.yul\":11376:11515   */\n  swap1\n  pop\n    /* \"#utility.yul\":11103:11522   */\n  swap2\n  swap1\n  pop\n  jump\t// out\n    /* \"#utility.yul\":11528:11708   */\ntag_98:\n    /* \"#utility.yul\":11576:11653   */\n  0x4e487b7100000000000000000000000000000000000000000000000000000000\n    /* \"#utility.yul\":11573:11574   */\n  0x00\n    /* \"#utility.yul\":11566:11654   */\n  mstore\n    /* \"#utility.yul\":11673:11677   */\n  0x11\n    /* \"#utility.yul\":11670:11671   */\n  0x04\n    /* \"#utility.yul\":11663:11678   */\n  mstore\n    /* \"#utility.yul\":11697:11701   */\n  0x24\n    /* \"#utility.yul\":11694:11695   */\n  0x00\n    /* \"#utility.yul\":11687:11702   */\n  revert\n    /* \"#utility.yul\":11714:11905   */\ntag_41:\n    /* \"#utility.yul\":11754:11757   */\n  0x00\n    /* \"#utility.yul\":11773:11793   */\n  tag_236\n    /* \"#utility.yul\":11791:11792   */\n  dup3\n    /* \"#utility.yul\":11773:11793   */\n  tag_58\n  jump\t// in\ntag_236:\n    /* \"#utility.yul\":11768:11793   */\n  swap2\n  pop\n    /* \"#utility.yul\":11807:11827   */\n  tag_237\n    /* \"#utility.yul\":11825:11826   */\n  dup4\n    /* \"#utility.yul\":11807:11827   */\n  tag_58\n  jump\t// in\ntag_237:\n    /* \"#utility.yul\":11802:11827   */\n  swap3\n  pop\n    /* \"#utility.yul\":11850:11851   */\n  dup3\n    /* \"#utility.yul\":11847:11848   */\n  dup3\n    /* \"#utility.yul\":11843:11852   */\n  add\n    /* \"#utility.yul\":11836:11852   */\n  swap1\n  pop\n    /* \"#utility.yul\":11871:11874   */\n  dup1\n    /* \"#utility.yul\":11868:11869   */\n  dup3\n    /* \"#utility.yul\":11865:11875   */\n  gt\n    /* \"#utility.yul\":11862:11898   */\n  iszero\n  tag_238\n  jumpi\n    /* \"#utility.yul\":11878:11896   */\n  tag_239\n  tag_98\n  jump\t// in\ntag_239:\n    /* \"#utility.yul\":11862:11898   */\ntag_238:\n    /* \"#utility.yul\":11714:11905   */\n  swap3\n  swap2\n  pop\n  pop\n  jump\t// out\n    /* \"#utility.yul\":11911:12133   */\ntag_43:\n    /* \"#utility.yul\":12004:12008   */\n  0x00\n    /* \"#utility.yul\":12042:12044   */\n  0x20\n    /* \"#utility.yul\":12031:12040   */\n  dup3\n    /* \"#utility.yul\":12027:12045   */\n  add\n    /* \"#utility.yul\":12019:12045   */\n  swap1\n  pop\n    /* \"#utility.yul\":12055:12126   */\n  tag_241\n    /* \"#utility.yul\":12123:12124   */\n  0x00\n    /* \"#utility.yul\":12112:12121   */\n  dup4\n    /* \"#utility.yul\":12108:12125   */\n  add\n    /* \"#utility.yul\":12099:12105   */\n  dup5\n    /* \"#utility.yul\":12055:12126   */\n  tag_91\n  jump\t// in\ntag_241:\n    /* \"#utility.yul\":11911:12133   */\n  swap3\n  swap2\n  pop\n  pop\n  jump\t// out\n    /* \"#utility.yul\":12139:12516   */\ntag_99:\n    /* \"#utility.yul\":12227:12230   */\n  0x00\n    /* \"#utility.yul\":12255:12294   */\n  tag_243\n    /* \"#utility.yul\":12288:12293   */\n  dup3\n    /* \"#utility.yul\":12255:12294   */\n  tag_71\n  jump\t// in\ntag_243:\n    /* \"#utility.yul\":12310:12381   */\n  tag_244\n    /* \"#utility.yul\":12374:12380   */\n  dup2\n    /* \"#utility.yul\":12369:12372   */\n  dup6\n    /* \"#utility.yul\":12310:12381   */\n  tag_95\n  jump\t// in\ntag_244:\n    /* \"#utility.yul\":12303:12381   */\n  swap4\n  pop\n    /* \"#utility.yul\":12390:12455   */\n  tag_245\n    /* \"#utility.yul\":12448:12454   */\n  dup2\n    /* \"#utility.yul\":12443:12446   */\n  dup6\n    /* \"#utility.yul\":12436:12440   */\n  0x20\n    /* \"#utility.yul\":12429:12434   */\n  dup7\n    /* \"#utility.yul\":12425:12441   */\n  add\n    /* \"#utility.yul\":12390:12455   */\n  tag_68\n  jump\t// in\ntag_245:\n    /* \"#utility.yul\":12480:12509   */\n  tag_246\n    /* \"#utility.yul\":12502:12508   */\n  dup2\n    /* \"#utility.yul\":12480:12509   */\n  tag_63\n  jump\t// in\ntag_246:\n    /* \"#utility.yul\":12475:12478   */\n  dup5\n    /* \"#utility.yul\":12471:12510   */\n  add\n    /* \"#utility.yul\":12464:12510   */\n  swap2\n  pop\n    /* \"#utility.yul\":12231:12516   */\n  pop\n    /* \"#utility.yul\":12139:12516   */\n  swap3\n  swap2\n  pop\n  pop\n  jump\t// out\n    /* \"#utility.yul\":12522:12835   */\ntag_49:\n    /* \"#utility.yul\":12635:12639   */\n  0x00\n    /* \"#utility.yul\":12673:12675   */\n  0x20\n    /* \"#utility.yul\":12662:12671   */\n  dup3\n    /* \"#utility.yul\":12658:12676   */\n  add\n    /* \"#utility.yul\":12650:12676   */\n  swap1\n  pop\n    /* \"#utility.yul\":12722:12731   */\n  dup2\n    /* \"#utility.yul\":12716:12720   */\n  dup2\n    /* \"#utility.yul\":12712:12732   */\n  sub\n    /* \"#utility.yul\":12708:12709   */\n  0x00\n    /* \"#utility.yul\":12697:12706   */\n  dup4\n    /* \"#utility.yul\":12693:12710   */\n  add\n    /* \"#utility.yul\":12686:12733   */\n  mstore\n    /* \"#utility.yul\":12750:12828   */\n  tag_248\n    /* \"#utility.yul\":12823:12827   */\n  dup2\n    /* \"#utility.yul\":12814:12820   */\n  dup5\n    /* \"#utility.yul\":12750:12828   */\n  tag_99\n  jump\t// in\ntag_248:\n    /* \"#utility.yul\":12742:12828   */\n  swap1\n  pop\n    /* \"#utility.yul\":12522:12835   */\n  swap3\n  swap2\n  pop\n  pop\n  jump\t// out\n    /* \"#utility.yul\":12841:12939   */\ntag_100:\n    /* \"#utility.yul\":12892:12898   */\n  0x00\n    /* \"#utility.yul\":12926:12931   */\n  dup2\n    /* \"#utility.yul\":12920:12932   */\n  mload\n    /* \"#utility.yul\":12910:12932   */\n  swap1\n  pop\n    /* \"#utility.yul\":12841:12939   */\n  swap2\n  swap1\n  pop\n  jump\t// out\n    /* \"#utility.yul\":12945:13061   */\ntag_101:\n    /* \"#utility.yul\":12996:13000   */\n  0x00\n    /* \"#utility.yul\":13019:13022   */\n  dup2\n    /* \"#utility.yul\":13011:13022   */\n  swap1\n  pop\n    /* \"#utility.yul\":13049:13053   */\n  0x20\n    /* \"#utility.yul\":13044:13047   */\n  dup3\n    /* \"#utility.yul\":13040:13054   */\n  add\n    /* \"#utility.yul\":13032:13054   */\n  swap1\n  pop\n    /* \"#utility.yul\":12945:13061   */\n  swap2\n  swap1\n  pop\n  jump\t// out\n    /* \"#utility.yul\":13067:13221   */\ntag_102:\n    /* \"#utility.yul\":13110:13121   */\n  0x00\n    /* \"#utility.yul\":13146:13175   */\n  tag_252\n    /* \"#utility.yul\":13170:13173   */\n  dup3\n    /* \"#utility.yul\":13164:13174   */\n  mload\n    /* \"#utility.yul\":13146:13175   */\n  tag_89\n  jump\t// in\ntag_252:\n    /* \"#utility.yul\":13209:13214   */\n  dup1\n    /* \"#utility.yul\":13185:13214   */\n  swap2\n  pop\n    /* \"#utility.yul\":13122:13221   */\n  pop\n    /* \"#utility.yul\":13067:13221   */\n  swap2\n  swap1\n  pop\n  jump\t// out\n    /* \"#utility.yul\":13227:13821   */\ntag_51:\n    /* \"#utility.yul\":13311:13316   */\n  0x00\n    /* \"#utility.yul\":13342:13380   */\n  tag_254\n    /* \"#utility.yul\":13374:13379   */\n  dup3\n    /* \"#utility.yul\":13342:13380   */\n  tag_100\n  jump\t// in\ntag_254:\n    /* \"#utility.yul\":13405:13410   */\n  dup3\n    /* \"#utility.yul\":13432:13472   */\n  tag_255\n    /* \"#utility.yul\":13466:13471   */\n  dup5\n    /* \"#utility.yul\":13432:13472   */\n  tag_101\n  jump\t// in\ntag_255:\n    /* \"#utility.yul\":13420:13472   */\n  swap1\n  pop\n    /* \"#utility.yul\":13491:13526   */\n  tag_256\n    /* \"#utility.yul\":13517:13525   */\n  dup2\n    /* \"#utility.yul\":13491:13526   */\n  tag_102\n  jump\t// in\ntag_256:\n    /* \"#utility.yul\":13482:13526   */\n  swap3\n  pop\n    /* \"#utility.yul\":13550:13552   */\n  0x20\n    /* \"#utility.yul\":13542:13548   */\n  dup3\n    /* \"#utility.yul\":13539:13553   */\n  lt\n    /* \"#utility.yul\":13536:13814   */\n  iszero\n  tag_257\n  jumpi\n    /* \"#utility.yul\":13621:13790   */\n  tag_258\n    /* \"#utility.yul\":13706:13772   */\n  0xffffffffffffffffffffffffffffffffffffffffffffffffffffffffffffffff\n    /* \"#utility.yul\":13676:13682   */\n  dup4\n    /* \"#utility.yul\":13672:13674   */\n  0x20\n    /* \"#utility.yul\":13668:13683   */\n  sub\n    /* \"#utility.yul\":13665:13666   */\n  0x08\n    /* \"#utility.yul\":13661:13684   */\n  mul\n    /* \"#utility.yul\":13621:13790   */\n  tag_76\n  jump\t// in\ntag_258:\n    /* \"#utility.yul\":13598:13603   */\n  dup4\n    /* \"#utility.yul\":13577:13804   */\n  and\n    /* \"#utility.yul\":13568:13804   */\n  swap3\n  pop\n    /* \"#utility.yul\":13536:13814   */\ntag_257:\n    /* \"#utility.yul\":13317:13821   */\n  pop\n  pop\n    /* \"#utility.yul\":13227:13821   */\n  swap2\n  swap1\n  pop\n  jump\t// out\n    /* \"saleIDO\\\\ZNS.sol\":23593:23792  contract ZNS is ERC20Permit{... */\ntag_22:\n  mload(0x80)\n  mload(0xa0)\n  mload(0xc0)\n  mload(0xe0)\n  mload(0x0100)\n  mload(0x0120)\n  mload(0x0140)\n  codecopy(0x00, dataOffset(sub_0), dataSize(sub_0))\n  0x00\n  assignImmutable(\"0xed870a0389b720122307aec7908f2d3af87dd1fed26cd116ebd921becf62cb81\")\n  0x00\n  assignImmutable(\"0x3f2cb8b8a6f6ba8772056c1e4910fb442737deea593ec84e00cbccee66f6d0e1\")\n  0x00\n  assignImmutable(\"0x8d841e129c158ed00fc3618c65b249d82e3b0efc8bcebb06537fd0a18b989353\")\n  0x00\n  assignImmutable(\"0x87bd18b67247df6baa7533339c49063efb5f43390eb1bcf9e95a3aa2cdb49408\")\n  0x00\n  assignImmutable(\"0x5f5b5a8290fb1ae7087a2571d1f5b0913474ec7aeab6a3ccbbe0de9185523d27\")\n  0x00\n  assignImmutable(\"0x44986917507edc118e82cff103288e6e452145dcea4c0554fb5180f3e053ae11\")\n  0x00\n  assignImmutable(\"0x61c015546d5e44346798f1c6880464efac2cf5ed99e68a15f785eaa6fd93e7ec\")\n  return(0x00, dataSize(sub_0))\nstop\n\nsub_0: assembly {\n        /* \"saleIDO\\\\ZNS.sol\":23593:23792  contract ZNS is ERC20Permit{... */\n      mstore(0x40, 0x80)\n      callvalue\n      dup1\n      iszero\n      tag_1\n      jumpi\n      0x00\n      dup1\n      revert\n    tag_1:\n      pop\n      jumpi(tag_2, lt(calldatasize, 0x04))\n      shr(0xe0, calldataload(0x00))\n      dup1\n      0x70a08231\n      gt\n      tag_18\n      jumpi\n      dup1\n      0xa457c2d7\n      gt\n      tag_19\n      jumpi\n      dup1\n      0xa457c2d7\n      eq\n      tag_14\n      jumpi\n      dup1\n      0xa9059cbb\n      eq\n      tag_15\n      jumpi\n      dup1\n      0xd505accf\n      eq\n      tag_16\n      jumpi\n      dup1\n      0xdd62ed3e\n      eq\n      tag_17\n      jumpi\n      jump(tag_2)\n    tag_19:\n      dup1\n      0x70a08231\n      eq\n      tag_10\n      jumpi\n      dup1\n      0x7ecebe00\n      eq\n      tag_11\n      jumpi\n      dup1\n      0x84b0196e\n      eq\n      tag_12\n      jumpi\n      dup1\n      0x95d89b41\n      eq\n      tag_13\n      jumpi\n      jump(tag_2)\n    tag_18:\n      dup1\n      0x23b872dd\n      gt\n      tag_20\n      jumpi\n      dup1\n      0x23b872dd\n      eq\n      tag_6\n      jumpi\n      dup1\n      0x313ce567\n      eq\n      tag_7\n      jumpi\n      dup1\n      0x3644e515\n      eq\n      tag_8\n      jumpi\n      dup1\n      0x39509351\n      eq\n      tag_9\n      jumpi\n      jump(tag_2)\n    tag_20:\n      dup1\n      0x06fdde03\n      eq\n      tag_3\n      jumpi\n      dup1\n      0x095ea7b3\n      eq\n      tag_4\n      jumpi\n      dup1\n      0x18160ddd\n      eq\n      tag_5\n      jumpi\n    tag_2:\n      0x00\n      dup1\n      revert\n        /* \"saleIDO\\\\ZNS.sol\":6664:6764  function name() public view virtual override returns (string memory) {... */\n    tag_3:\n      tag_21\n      tag_22\n      jump\t// in\n    tag_21:\n      mload(0x40)\n      tag_23\n      swap2\n      swap1\n      tag_24\n      jump\t// in\n    tag_23:\n      mload(0x40)\n      dup1\n      swap2\n      sub\n      swap1\n      return\n        /* \"saleIDO\\\\ZNS.sol\":9015:9216  function approve(address spender, uint256 amount) public virtual override returns (bool) {... */\n    tag_4:\n      tag_25\n      0x04\n      dup1\n      calldatasize\n      sub\n      dup2\n      add\n      swap1\n      tag_26\n      swap2\n      swap1\n      tag_27\n      jump\t// in\n    tag_26:\n      tag_28\n      jump\t// in\n    tag_25:\n      mload(0x40)\n      tag_29\n      swap2\n      swap1\n      tag_30\n      jump\t// in\n    tag_29:\n      mload(0x40)\n      dup1\n      swap2\n      sub\n      swap1\n      return\n        /* \"saleIDO\\\\ZNS.sol\":7784:7892  function totalSupply() public view virtual override returns (uint256) {... */\n    tag_5:\n      tag_31\n      tag_32\n      jump\t// in\n    tag_31:\n      mload(0x40)\n      tag_33\n      swap2\n      swap1\n      tag_34\n      jump\t// in\n    tag_33:\n      mload(0x40)\n      dup1\n      swap2\n      sub\n      swap1\n      return\n        /* \"saleIDO\\\\ZNS.sol\":9796:10091  function transferFrom(... */\n    tag_6:\n      tag_35\n      0x04\n      dup1\n      calldatasize\n      sub\n      dup2\n      add\n      swap1\n      tag_36\n      swap2\n      swap1\n      tag_37\n      jump\t// in\n    tag_36:\n      tag_38\n      jump\t// in\n    tag_35:\n      mload(0x40)\n      tag_39\n      swap2\n      swap1\n      tag_30\n      jump\t// in\n    tag_39:\n      mload(0x40)\n      dup1\n      swap2\n      sub\n      swap1\n      return\n        /* \"saleIDO\\\\ZNS.sol\":7626:7719  function decimals() public view virtual override returns (uint8) {... */\n    tag_7:\n      tag_40\n      tag_41\n      jump\t// in\n    tag_40:\n      mload(0x40)\n      tag_42\n      swap2\n      swap1\n      tag_43\n      jump\t// in\n    tag_42:\n      mload(0x40)\n      dup1\n      swap2\n      sub\n      swap1\n      return\n        /* \"saleIDO\\\\ZNS.sol\":23439:23553  function DOMAIN_SEPARATOR() external view virtual returns (bytes32) {... */\n    tag_8:\n      tag_44\n      tag_45\n      jump\t// in\n    tag_44:\n      mload(0x40)\n      tag_46\n      swap2\n      swap1\n      tag_47\n      jump\t// in\n    tag_46:\n      mload(0x40)\n      dup1\n      swap2\n      sub\n      swap1\n      return\n        /* \"saleIDO\\\\ZNS.sol\":10500:10738  function increaseAllowance(address spender, uint256 addedValue) public virtual returns (bool) {... */\n    tag_9:\n      tag_48\n      0x04\n      dup1\n      calldatasize\n      sub\n      dup2\n      add\n      swap1\n      tag_49\n      swap2\n      swap1\n      tag_27\n      jump\t// in\n    tag_49:\n      tag_50\n      jump\t// in\n    tag_48:\n      mload(0x40)\n      tag_51\n      swap2\n      swap1\n      tag_30\n      jump\t// in\n    tag_51:\n      mload(0x40)\n      dup1\n      swap2\n      sub\n      swap1\n      return\n        /* \"saleIDO\\\\ZNS.sol\":7955:8082  function balanceOf(address account) public view virtual override returns (uint256) {... */\n    tag_10:\n      tag_52\n      0x04\n      dup1\n      calldatasize\n      sub\n      dup2\n      add\n      swap1\n      tag_53\n      swap2\n      swap1\n      tag_54\n      jump\t// in\n    tag_53:\n      tag_55\n      jump\t// in\n    tag_52:\n      mload(0x40)\n      tag_56\n      swap2\n      swap1\n      tag_34\n      jump\t// in\n    tag_56:\n      mload(0x40)\n      dup1\n      swap2\n      sub\n      swap1\n      return\n        /* \"saleIDO\\\\ZNS.sol\":23164:23309  function nonces(address owner) public view virtual override(IERC20Permit, Nonces) returns (uint256) {... */\n    tag_11:\n      tag_57\n      0x04\n      dup1\n      calldatasize\n      sub\n      dup2\n      add\n      swap1\n      tag_58\n      swap2\n      swap1\n      tag_54\n      jump\t// in\n    tag_58:\n      tag_59\n      jump\t// in\n    tag_57:\n      mload(0x40)\n      tag_60\n      swap2\n      swap1\n      tag_34\n      jump\t// in\n    tag_60:\n      mload(0x40)\n      dup1\n      swap2\n      sub\n      swap1\n      return\n        /* \"@openzeppelin/contracts/utils/cryptography/EIP712.sol\":5021:5654  function eip712Domain()... */\n    tag_12:\n      tag_61\n      tag_62\n      jump\t// in\n    tag_61:\n      mload(0x40)\n      tag_63\n      swap8\n      swap7\n      swap6\n      swap5\n      swap4\n      swap3\n      swap2\n      swap1\n      tag_64\n      jump\t// in\n    tag_63:\n      mload(0x40)\n      dup1\n      swap2\n      sub\n      swap1\n      return\n        /* \"saleIDO\\\\ZNS.sol\":6883:6987  function symbol() public view virtual override returns (string memory) {... */\n    tag_13:\n      tag_65\n      tag_66\n      jump\t// in\n    tag_65:\n      mload(0x40)\n      tag_67\n      swap2\n      swap1\n      tag_24\n      jump\t// in\n    tag_67:\n      mload(0x40)\n      dup1\n      swap2\n      sub\n      swap1\n      return\n        /* \"saleIDO\\\\ZNS.sol\":11241:11677  function decreaseAllowance(address spender, uint256 subtractedValue) public virtual returns (bool) {... */\n    tag_14:\n      tag_68\n      0x04\n      dup1\n      calldatasize\n      sub\n      dup2\n      add\n      swap1\n      tag_69\n      swap2\n      swap1\n      tag_27\n      jump\t// in\n    tag_69:\n      tag_70\n      jump\t// in\n    tag_68:\n      mload(0x40)\n      tag_71\n      swap2\n      swap1\n      tag_30\n      jump\t// in\n    tag_71:\n      mload(0x40)\n      dup1\n      swap2\n      sub\n      swap1\n      return\n        /* \"saleIDO\\\\ZNS.sol\":8288:8481  function transfer(address to, uint256 amount) public virtual override returns (bool) {... */\n    tag_15:\n      tag_72\n      0x04\n      dup1\n      calldatasize\n      sub\n      dup2\n      add\n      swap1\n      tag_73\n      swap2\n      swap1\n      tag_27\n      jump\t// in\n    tag_73:\n      tag_74\n      jump\t// in\n    tag_72:\n      mload(0x40)\n      tag_75\n      swap2\n      swap1\n      tag_30\n      jump\t// in\n    tag_75:\n      mload(0x40)\n      dup1\n      swap2\n      sub\n      swap1\n      return\n        /* \"saleIDO\\\\ZNS.sol\":22402:23098  function permit(... */\n    tag_16:\n      tag_76\n      0x04\n      dup1\n      calldatasize\n      sub\n      dup2\n      add\n      swap1\n      tag_77\n      swap2\n      swap1\n      tag_78\n      jump\t// in\n    tag_77:\n      tag_79\n      jump\t// in\n    tag_76:\n      stop\n        /* \"saleIDO\\\\ZNS.sol\":8544:8695  function allowance(address owner, address spender) public view virtual override returns (uint256) {... */\n    tag_17:\n      tag_80\n      0x04\n      dup1\n      calldatasize\n      sub\n      dup2\n      add\n      swap1\n      tag_81\n      swap2\n      swap1\n      tag_82\n      jump\t// in\n    tag_81:\n      tag_83\n      jump\t// in\n    tag_80:\n      mload(0x40)\n      tag_84\n      swap2\n      swap1\n      tag_34\n      jump\t// in\n    tag_84:\n      mload(0x40)\n      dup1\n      swap2\n      sub\n      swap1\n      return\n        /* \"saleIDO\\\\ZNS.sol\":6664:6764  function name() public view virtual override returns (string memory) {... */\n    tag_22:\n        /* \"saleIDO\\\\ZNS.sol\":6718:6731  string memory */\n      0x60\n        /* \"saleIDO\\\\ZNS.sol\":6751:6756  _name */\n      0x03\n        /* \"saleIDO\\\\ZNS.sol\":6744:6756  return _name */\n      dup1\n      sload\n      tag_86\n      swap1\n      tag_87\n      jump\t// in\n    tag_86:\n      dup1\n      0x1f\n      add\n      0x20\n      dup1\n      swap2\n      div\n      mul\n      0x20\n      add\n      mload(0x40)\n      swap1\n      dup2\n      add\n      0x40\n      mstore\n      dup1\n      swap3\n      swap2\n      swap1\n      dup2\n      dup2\n      mstore\n      0x20\n      add\n      dup3\n      dup1\n      sload\n      tag_88\n      swap1\n      tag_87\n      jump\t// in\n    tag_88:\n      dup1\n      iszero\n      tag_89\n      jumpi\n      dup1\n      0x1f\n      lt\n      tag_90\n      jumpi\n      0x0100\n      dup1\n      dup4\n      sload\n      div\n      mul\n      dup4\n      mstore\n      swap2\n      0x20\n      add\n      swap2\n      jump(tag_89)\n    tag_90:\n      dup3\n      add\n      swap2\n      swap1\n      0x00\n      mstore\n      keccak256(0x00, 0x20)\n      swap1\n    tag_91:\n      dup2\n      sload\n      dup2\n      mstore\n      swap1\n      0x01\n      add\n      swap1\n      0x20\n      add\n      dup1\n      dup4\n      gt\n      tag_91\n      jumpi\n      dup3\n      swap1\n      sub\n      0x1f\n      and\n      dup3\n      add\n      swap2\n    tag_89:\n      pop\n      pop\n      pop\n      pop\n      pop\n      swap1\n      pop\n        /* \"saleIDO\\\\ZNS.sol\":6664:6764  function name() public view virtual override returns (string memory) {... */\n      swap1\n      jump\t// out\n        /* \"saleIDO\\\\ZNS.sol\":9015:9216  function approve(address spender, uint256 amount) public virtual override returns (bool) {... */\n    tag_28:\n        /* \"saleIDO\\\\ZNS.sol\":9098:9102  bool */\n      0x00\n        /* \"saleIDO\\\\ZNS.sol\":9115:9128  address owner */\n      dup1\n        /* \"saleIDO\\\\ZNS.sol\":9131:9143  _msgSender() */\n      tag_93\n        /* \"saleIDO\\\\ZNS.sol\":9131:9141  _msgSender */\n      tag_94\n        /* \"saleIDO\\\\ZNS.sol\":9131:9143  _msgSender() */\n      jump\t// in\n    tag_93:\n        /* \"saleIDO\\\\ZNS.sol\":9115:9143  address owner = _msgSender() */\n      swap1\n      pop\n        /* \"saleIDO\\\\ZNS.sol\":9154:9186  _approve(owner, spender, amount) */\n      tag_95\n        /* \"saleIDO\\\\ZNS.sol\":9163:9168  owner */\n      dup2\n        /* \"saleIDO\\\\ZNS.sol\":9170:9177  spender */\n      dup6\n        /* \"saleIDO\\\\ZNS.sol\":9179:9185  amount */\n      dup6\n        /* \"saleIDO\\\\ZNS.sol\":9154:9162  _approve */\n      tag_96\n        /* \"saleIDO\\\\ZNS.sol\":9154:9186  _approve(owner, spender, amount) */\n      jump\t// in\n    tag_95:\n        /* \"saleIDO\\\\ZNS.sol\":9204:9208  true */\n      0x01\n        /* \"saleIDO\\\\ZNS.sol\":9197:9208  return true */\n      swap2\n      pop\n      pop\n        /* \"saleIDO\\\\ZNS.sol\":9015:9216  function approve(address spender, uint256 amount) public virtual override returns (bool) {... */\n      swap3\n      swap2\n      pop\n      pop\n      jump\t// out\n        /* \"saleIDO\\\\ZNS.sol\":7784:7892  function totalSupply() public view virtual override returns (uint256) {... */\n    tag_32:\n        /* \"saleIDO\\\\ZNS.sol\":7845:7852  uint256 */\n      0x00\n        /* \"saleIDO\\\\ZNS.sol\":7872:7884  _totalSupply */\n      sload(0x02)\n        /* \"saleIDO\\\\ZNS.sol\":7865:7884  return _totalSupply */\n      swap1\n      pop\n        /* \"saleIDO\\\\ZNS.sol\":7784:7892  function totalSupply() public view virtual override returns (uint256) {... */\n      swap1\n      jump\t// out\n        /* \"saleIDO\\\\ZNS.sol\":9796:10091  function transferFrom(... */\n    tag_38:\n        /* \"saleIDO\\\\ZNS.sol\":9927:9931  bool */\n      0x00\n        /* \"saleIDO\\\\ZNS.sol\":9944:9959  address spender */\n      dup1\n        /* \"saleIDO\\\\ZNS.sol\":9962:9974  _msgSender() */\n      tag_99\n        /* \"saleIDO\\\\ZNS.sol\":9962:9972  _msgSender */\n      tag_94\n        /* \"saleIDO\\\\ZNS.sol\":9962:9974  _msgSender() */\n      jump\t// in\n    tag_99:\n        /* \"saleIDO\\\\ZNS.sol\":9944:9974  address spender = _msgSender() */\n      swap1\n      pop\n        /* \"saleIDO\\\\ZNS.sol\":9985:10023  _spendAllowance(from, spender, amount) */\n      tag_100\n        /* \"saleIDO\\\\ZNS.sol\":10001:10005  from */\n      dup6\n        /* \"saleIDO\\\\ZNS.sol\":10007:10014  spender */\n      dup3\n        /* \"saleIDO\\\\ZNS.sol\":10016:10022  amount */\n      dup6\n        /* \"saleIDO\\\\ZNS.sol\":9985:10000  _spendAllowance */\n      tag_101\n        /* \"saleIDO\\\\ZNS.sol\":9985:10023  _spendAllowance(from, spender, amount) */\n      jump\t// in\n    tag_100:\n        /* \"saleIDO\\\\ZNS.sol\":10034:10061  _transfer(from, to, amount) */\n      tag_102\n        /* \"saleIDO\\\\ZNS.sol\":10044:10048  from */\n      dup6\n        /* \"saleIDO\\\\ZNS.sol\":10050:10052  to */\n      dup6\n        /* \"saleIDO\\\\ZNS.sol\":10054:10060  amount */\n      dup6\n        /* \"saleIDO\\\\ZNS.sol\":10034:10043  _transfer */\n      tag_103\n        /* \"saleIDO\\\\ZNS.sol\":10034:10061  _transfer(from, to, amount) */\n      jump\t// in\n    tag_102:\n        /* \"saleIDO\\\\ZNS.sol\":10079:10083  true */\n      0x01\n        /* \"saleIDO\\\\ZNS.sol\":10072:10083  return true */\n      swap2\n      pop\n      pop\n        /* \"saleIDO\\\\ZNS.sol\":9796:10091  function transferFrom(... */\n      swap4\n      swap3\n      pop\n      pop\n      pop\n      jump\t// out\n        /* \"saleIDO\\\\ZNS.sol\":7626:7719  function decimals() public view virtual override returns (uint8) {... */\n    tag_41:\n        /* \"saleIDO\\\\ZNS.sol\":7684:7689  uint8 */\n      0x00\n        /* \"saleIDO\\\\ZNS.sol\":7709:7711  18 */\n      0x12\n        /* \"saleIDO\\\\ZNS.sol\":7702:7711  return 18 */\n      swap1\n      pop\n        /* \"saleIDO\\\\ZNS.sol\":7626:7719  function decimals() public view virtual override returns (uint8) {... */\n      swap1\n      jump\t// out\n        /* \"saleIDO\\\\ZNS.sol\":23439:23553  function DOMAIN_SEPARATOR() external view virtual returns (bytes32) {... */\n    tag_45:\n        /* \"saleIDO\\\\ZNS.sol\":23498:23505  bytes32 */\n      0x00\n        /* \"saleIDO\\\\ZNS.sol\":23525:23545  _domainSeparatorV4() */\n      tag_106\n        /* \"saleIDO\\\\ZNS.sol\":23525:23543  _domainSeparatorV4 */\n      tag_107\n        /* \"saleIDO\\\\ZNS.sol\":23525:23545  _domainSeparatorV4() */\n      jump\t// in\n    tag_106:\n        /* \"saleIDO\\\\ZNS.sol\":23518:23545  return _domainSeparatorV4() */\n      swap1\n      pop\n        /* \"saleIDO\\\\ZNS.sol\":23439:23553  function DOMAIN_SEPARATOR() external view virtual returns (bytes32) {... */\n      swap1\n      jump\t// out\n        /* \"saleIDO\\\\ZNS.sol\":10500:10738  function increaseAllowance(address spender, uint256 addedValue) public virtual returns (bool) {... */\n    tag_50:\n        /* \"saleIDO\\\\ZNS.sol\":10588:10592  bool */\n      0x00\n        /* \"saleIDO\\\\ZNS.sol\":10605:10618  address owner */\n      dup1\n        /* \"saleIDO\\\\ZNS.sol\":10621:10633  _msgSender() */\n      tag_109\n        /* \"saleIDO\\\\ZNS.sol\":10621:10631  _msgSender */\n      tag_94\n        /* \"saleIDO\\\\ZNS.sol\":10621:10633  _msgSender() */\n      jump\t// in\n    tag_109:\n        /* \"saleIDO\\\\ZNS.sol\":10605:10633  address owner = _msgSender() */\n      swap1\n      pop\n        /* \"saleIDO\\\\ZNS.sol\":10644:10708  _approve(owner, spender, allowance(owner, spender) + addedValue) */\n      tag_110\n        /* \"saleIDO\\\\ZNS.sol\":10653:10658  owner */\n      dup2\n        /* \"saleIDO\\\\ZNS.sol\":10660:10667  spender */\n      dup6\n        /* \"saleIDO\\\\ZNS.sol\":10697:10707  addedValue */\n      dup6\n        /* \"saleIDO\\\\ZNS.sol\":10669:10694  allowance(owner, spender) */\n      tag_111\n        /* \"saleIDO\\\\ZNS.sol\":10679:10684  owner */\n      dup6\n        /* \"saleIDO\\\\ZNS.sol\":10686:10693  spender */\n      dup10\n        /* \"saleIDO\\\\ZNS.sol\":10669:10678  allowance */\n      tag_83\n        /* \"saleIDO\\\\ZNS.sol\":10669:10694  allowance(owner, spender) */\n      jump\t// in\n    tag_111:\n        /* \"saleIDO\\\\ZNS.sol\":10669:10707  allowance(owner, spender) + addedValue */\n      tag_112\n      swap2\n      swap1\n      tag_113\n      jump\t// in\n    tag_112:\n        /* \"saleIDO\\\\ZNS.sol\":10644:10652  _approve */\n      tag_96\n        /* \"saleIDO\\\\ZNS.sol\":10644:10708  _approve(owner, spender, allowance(owner, spender) + addedValue) */\n      jump\t// in\n    tag_110:\n        /* \"saleIDO\\\\ZNS.sol\":10726:10730  true */\n      0x01\n        /* \"saleIDO\\\\ZNS.sol\":10719:10730  return true */\n      swap2\n      pop\n      pop\n        /* \"saleIDO\\\\ZNS.sol\":10500:10738  function increaseAllowance(address spender, uint256 addedValue) public virtual returns (bool) {... */\n      swap3\n      swap2\n      pop\n      pop\n      jump\t// out\n        /* \"saleIDO\\\\ZNS.sol\":7955:8082  function balanceOf(address account) public view virtual override returns (uint256) {... */\n    tag_55:\n        /* \"saleIDO\\\\ZNS.sol\":8029:8036  uint256 */\n      0x00\n        /* \"saleIDO\\\\ZNS.sol\":8056:8065  _balances */\n      dup1\n        /* \"saleIDO\\\\ZNS.sol\":8056:8074  _balances[account] */\n      0x00\n        /* \"saleIDO\\\\ZNS.sol\":8066:8073  account */\n      dup4\n        /* \"saleIDO\\\\ZNS.sol\":8056:8074  _balances[account] */\n      0xffffffffffffffffffffffffffffffffffffffff\n      and\n      0xffffffffffffffffffffffffffffffffffffffff\n      and\n      dup2\n      mstore\n      0x20\n      add\n      swap1\n      dup2\n      mstore\n      0x20\n      add\n      0x00\n      keccak256\n      sload\n        /* \"saleIDO\\\\ZNS.sol\":8049:8074  return _balances[account] */\n      swap1\n      pop\n        /* \"saleIDO\\\\ZNS.sol\":7955:8082  function balanceOf(address account) public view virtual override returns (uint256) {... */\n      swap2\n      swap1\n      pop\n      jump\t// out\n        /* \"saleIDO\\\\ZNS.sol\":23164:23309  function nonces(address owner) public view virtual override(IERC20Permit, Nonces) returns (uint256) {... */\n    tag_59:\n        /* \"saleIDO\\\\ZNS.sol\":23255:23262  uint256 */\n      0x00\n        /* \"saleIDO\\\\ZNS.sol\":23282:23301  super.nonces(owner) */\n      tag_116\n        /* \"saleIDO\\\\ZNS.sol\":23295:23300  owner */\n      dup3\n        /* \"saleIDO\\\\ZNS.sol\":23282:23294  super.nonces */\n      tag_117\n        /* \"saleIDO\\\\ZNS.sol\":23282:23301  super.nonces(owner) */\n      jump\t// in\n    tag_116:\n        /* \"saleIDO\\\\ZNS.sol\":23275:23301  return super.nonces(owner) */\n      swap1\n      pop\n        /* \"saleIDO\\\\ZNS.sol\":23164:23309  function nonces(address owner) public view virtual override(IERC20Permit, Nonces) returns (uint256) {... */\n      swap2\n      swap1\n      pop\n      jump\t// out\n        /* \"@openzeppelin/contracts/utils/cryptography/EIP712.sol\":5021:5654  function eip712Domain()... */\n    tag_62:\n        /* \"@openzeppelin/contracts/utils/cryptography/EIP712.sol\":5136:5149  bytes1 fields */\n      0x00\n        /* \"@openzeppelin/contracts/utils/cryptography/EIP712.sol\":5163:5181  string memory name */\n      0x60\n        /* \"@openzeppelin/contracts/utils/cryptography/EIP712.sol\":5195:5216  string memory version */\n      dup1\n        /* \"@openzeppelin/contracts/utils/cryptography/EIP712.sol\":5230:5245  uint256 chainId */\n      0x00\n        /* \"@openzeppelin/contracts/utils/cryptography/EIP712.sol\":5259:5284  address verifyingContract */\n      dup1\n        /* \"@openzeppelin/contracts/utils/cryptography/EIP712.sol\":5298:5310  bytes32 salt */\n      0x00\n        /* \"@openzeppelin/contracts/utils/cryptography/EIP712.sol\":5324:5351  uint256[] memory extensions */\n      0x60\n        /* \"@openzeppelin/contracts/utils/cryptography/EIP712.sol\":5427:5468  _name.toStringWithFallback(_nameFallback) */\n      tag_119\n        /* \"@openzeppelin/contracts/utils/cryptography/EIP712.sol\":5454:5467  _nameFallback */\n      0x05\n        /* \"@openzeppelin/contracts/utils/cryptography/EIP712.sol\":5427:5432  _name */\n      immutable(\"0x3f2cb8b8a6f6ba8772056c1e4910fb442737deea593ec84e00cbccee66f6d0e1\")\n        /* \"@openzeppelin/contracts/utils/cryptography/EIP712.sol\":5427:5453  _name.toStringWithFallback */\n      tag_120\n      swap1\n        /* \"@openzeppelin/contracts/utils/cryptography/EIP712.sol\":5427:5468  _name.toStringWithFallback(_nameFallback) */\n      swap2\n      swap1\n      0xffffffff\n      and\n      jump\t// in\n    tag_119:\n        /* \"@openzeppelin/contracts/utils/cryptography/EIP712.sol\":5482:5529  _version.toStringWithFallback(_versionFallback) */\n      tag_121\n        /* \"@openzeppelin/contracts/utils/cryptography/EIP712.sol\":5512:5528  _versionFallback */\n      0x06\n        /* \"@openzeppelin/contracts/utils/cryptography/EIP712.sol\":5482:5490  _version */\n      immutable(\"0xed870a0389b720122307aec7908f2d3af87dd1fed26cd116ebd921becf62cb81\")\n        /* \"@openzeppelin/contracts/utils/cryptography/EIP712.sol\":5482:5511  _version.toStringWithFallback */\n      tag_120\n      swap1\n        /* \"@openzeppelin/contracts/utils/cryptography/EIP712.sol\":5482:5529  _version.toStringWithFallback(_versionFallback) */\n      swap2\n      swap1\n      0xffffffff\n      and\n      jump\t// in\n    tag_121:\n        /* \"@openzeppelin/contracts/utils/cryptography/EIP712.sol\":5543:5556  block.chainid */\n      chainid\n        /* \"@openzeppelin/contracts/utils/cryptography/EIP712.sol\":5578:5582  this */\n      address\n        /* \"@openzeppelin/contracts/utils/cryptography/EIP712.sol\":5605:5606  0 */\n      0x00\n        /* \"@openzeppelin/contracts/utils/cryptography/EIP712.sol\":5597:5607  bytes32(0) */\n      dup1\n      shl\n        /* \"@openzeppelin/contracts/utils/cryptography/EIP712.sol\":5635:5636  0 */\n      0x00\n        /* \"@openzeppelin/contracts/utils/cryptography/EIP712.sol\":5621:5637  new uint256[](0) */\n      0xffffffffffffffff\n      dup2\n      gt\n      iszero\n      tag_122\n      jumpi\n      tag_123\n      tag_124\n      jump\t// in\n    tag_123:\n    tag_122:\n      mload(0x40)\n      swap1\n      dup1\n      dup3\n      mstore\n      dup1\n      0x20\n      mul\n      0x20\n      add\n      dup3\n      add\n      0x40\n      mstore\n      dup1\n      iszero\n      tag_125\n      jumpi\n      dup2\n      0x20\n      add\n      0x20\n      dup3\n      mul\n      dup1\n      calldatasize\n      dup4\n      calldatacopy\n      dup1\n      dup3\n      add\n      swap2\n      pop\n      pop\n      swap1\n      pop\n    tag_125:\n      pop\n        /* \"@openzeppelin/contracts/utils/cryptography/EIP712.sol\":5376:5647  return (... */\n      0x0f00000000000000000000000000000000000000000000000000000000000000\n      swap6\n      swap5\n      swap4\n      swap3\n      swap2\n      swap1\n      swap7\n      pop\n      swap7\n      pop\n      swap7\n      pop\n      swap7\n      pop\n      swap7\n      pop\n      swap7\n      pop\n      swap7\n      pop\n        /* \"@openzeppelin/contracts/utils/cryptography/EIP712.sol\":5021:5654  function eip712Domain()... */\n      swap1\n      swap2\n      swap3\n      swap4\n      swap5\n      swap6\n      swap7\n      jump\t// out\n        /* \"saleIDO\\\\ZNS.sol\":6883:6987  function symbol() public view virtual override returns (string memory) {... */\n    tag_66:\n        /* \"saleIDO\\\\ZNS.sol\":6939:6952  string memory */\n      0x60\n        /* \"saleIDO\\\\ZNS.sol\":6972:6979  _symbol */\n      0x04\n        /* \"saleIDO\\\\ZNS.sol\":6965:6979  return _symbol */\n      dup1\n      sload\n      tag_127\n      swap1\n      tag_87\n      jump\t// in\n    tag_127:\n      dup1\n      0x1f\n      add\n      0x20\n      dup1\n      swap2\n      div\n      mul\n      0x20\n      add\n      mload(0x40)\n      swap1\n      dup2\n      add\n      0x40\n      mstore\n      dup1\n      swap3\n      swap2\n      swap1\n      dup2\n      dup2\n      mstore\n      0x20\n      add\n      dup3\n      dup1\n      sload\n      tag_128\n      swap1\n      tag_87\n      jump\t// in\n    tag_128:\n      dup1\n      iszero\n      tag_129\n      jumpi\n      dup1\n      0x1f\n      lt\n      tag_130\n      jumpi\n      0x0100\n      dup1\n      dup4\n      sload\n      div\n      mul\n      dup4\n      mstore\n      swap2\n      0x20\n      add\n      swap2\n      jump(tag_129)\n    tag_130:\n      dup3\n      add\n      swap2\n      swap1\n      0x00\n      mstore\n      keccak256(0x00, 0x20)\n      swap1\n    tag_131:\n      dup2\n      sload\n      dup2\n      mstore\n      swap1\n      0x01\n      add\n      swap1\n      0x20\n      add\n      dup1\n      dup4\n      gt\n      tag_131\n      jumpi\n      dup3\n      swap1\n      sub\n      0x1f\n      and\n      dup3\n      add\n      swap2\n    tag_129:\n      pop\n      pop\n      pop\n      pop\n      pop\n      swap1\n      pop\n        /* \"saleIDO\\\\ZNS.sol\":6883:6987  function symbol() public view virtual override returns (string memory) {... */\n      swap1\n      jump\t// out\n        /* \"saleIDO\\\\ZNS.sol\":11241:11677  function decreaseAllowance(address spender, uint256 subtractedValue) public virtual returns (bool) {... */\n    tag_70:\n        /* \"saleIDO\\\\ZNS.sol\":11334:11338  bool */\n      0x00\n        /* \"saleIDO\\\\ZNS.sol\":11351:11364  address owner */\n      dup1\n        /* \"saleIDO\\\\ZNS.sol\":11367:11379  _msgSender() */\n      tag_133\n        /* \"saleIDO\\\\ZNS.sol\":11367:11377  _msgSender */\n      tag_94\n        /* \"saleIDO\\\\ZNS.sol\":11367:11379  _msgSender() */\n      jump\t// in\n    tag_133:\n        /* \"saleIDO\\\\ZNS.sol\":11351:11379  address owner = _msgSender() */\n      swap1\n      pop\n        /* \"saleIDO\\\\ZNS.sol\":11390:11414  uint256 currentAllowance */\n      0x00\n        /* \"saleIDO\\\\ZNS.sol\":11417:11442  allowance(owner, spender) */\n      tag_134\n        /* \"saleIDO\\\\ZNS.sol\":11427:11432  owner */\n      dup3\n        /* \"saleIDO\\\\ZNS.sol\":11434:11441  spender */\n      dup7\n        /* \"saleIDO\\\\ZNS.sol\":11417:11426  allowance */\n      tag_83\n        /* \"saleIDO\\\\ZNS.sol\":11417:11442  allowance(owner, spender) */\n      jump\t// in\n    tag_134:\n        /* \"saleIDO\\\\ZNS.sol\":11390:11442  uint256 currentAllowance = allowance(owner, spender) */\n      swap1\n      pop\n        /* \"saleIDO\\\\ZNS.sol\":11481:11496  subtractedValue */\n      dup4\n        /* \"saleIDO\\\\ZNS.sol\":11461:11477  currentAllowance */\n      dup2\n        /* \"saleIDO\\\\ZNS.sol\":11461:11496  currentAllowance >= subtractedValue */\n      lt\n      iszero\n        /* \"saleIDO\\\\ZNS.sol\":11453:11538  require(currentAllowance >= subtractedValue, \"ERC20: decreased allowance below zero\") */\n      tag_135\n      jumpi\n      mload(0x40)\n      0x08c379a000000000000000000000000000000000000000000000000000000000\n      dup2\n      mstore\n      0x04\n      add\n      tag_136\n      swap1\n      tag_137\n      jump\t// in\n    tag_136:\n      mload(0x40)\n      dup1\n      swap2\n      sub\n      swap1\n      revert\n    tag_135:\n        /* \"saleIDO\\\\ZNS.sol\":11574:11634  _approve(owner, spender, currentAllowance - subtractedValue) */\n      tag_138\n        /* \"saleIDO\\\\ZNS.sol\":11583:11588  owner */\n      dup3\n        /* \"saleIDO\\\\ZNS.sol\":11590:11597  spender */\n      dup7\n        /* \"saleIDO\\\\ZNS.sol\":11618:11633  subtractedValue */\n      dup7\n        /* \"saleIDO\\\\ZNS.sol\":11599:11615  currentAllowance */\n      dup5\n        /* \"saleIDO\\\\ZNS.sol\":11599:11633  currentAllowance - subtractedValue */\n      sub\n        /* \"saleIDO\\\\ZNS.sol\":11574:11582  _approve */\n      tag_96\n        /* \"saleIDO\\\\ZNS.sol\":11574:11634  _approve(owner, spender, currentAllowance - subtractedValue) */\n      jump\t// in\n    tag_138:\n        /* \"saleIDO\\\\ZNS.sol\":11665:11669  true */\n      0x01\n        /* \"saleIDO\\\\ZNS.sol\":11658:11669  return true */\n      swap3\n      pop\n      pop\n      pop\n        /* \"saleIDO\\\\ZNS.sol\":11241:11677  function decreaseAllowance(address spender, uint256 subtractedValue) public virtual returns (bool) {... */\n      swap3\n      swap2\n      pop\n      pop\n      jump\t// out\n        /* \"saleIDO\\\\ZNS.sol\":8288:8481  function transfer(address to, uint256 amount) public virtual override returns (bool) {... */\n    tag_74:\n        /* \"saleIDO\\\\ZNS.sol\":8367:8371  bool */\n      0x00\n        /* \"saleIDO\\\\ZNS.sol\":8384:8397  address owner */\n      dup1\n        /* \"saleIDO\\\\ZNS.sol\":8400:8412  _msgSender() */\n      tag_140\n        /* \"saleIDO\\\\ZNS.sol\":8400:8410  _msgSender */\n      tag_94\n        /* \"saleIDO\\\\ZNS.sol\":8400:8412  _msgSender() */\n      jump\t// in\n    tag_140:\n        /* \"saleIDO\\\\ZNS.sol\":8384:8412  address owner = _msgSender() */\n      swap1\n      pop\n        /* \"saleIDO\\\\ZNS.sol\":8423:8451  _transfer(owner, to, amount) */\n      tag_141\n        /* \"saleIDO\\\\ZNS.sol\":8433:8438  owner */\n      dup2\n        /* \"saleIDO\\\\ZNS.sol\":8440:8442  to */\n      dup6\n        /* \"saleIDO\\\\ZNS.sol\":8444:8450  amount */\n      dup6\n        /* \"saleIDO\\\\ZNS.sol\":8423:8432  _transfer */\n      tag_103\n        /* \"saleIDO\\\\ZNS.sol\":8423:8451  _transfer(owner, to, amount) */\n      jump\t// in\n    tag_141:\n        /* \"saleIDO\\\\ZNS.sol\":8469:8473  true */\n      0x01\n        /* \"saleIDO\\\\ZNS.sol\":8462:8473  return true */\n      swap2\n      pop\n      pop\n        /* \"saleIDO\\\\ZNS.sol\":8288:8481  function transfer(address to, uint256 amount) public virtual override returns (bool) {... */\n      swap3\n      swap2\n      pop\n      pop\n      jump\t// out\n        /* \"saleIDO\\\\ZNS.sol\":22402:23098  function permit(... */\n    tag_79:\n        /* \"saleIDO\\\\ZNS.sol\":22632:22640  deadline */\n      dup4\n        /* \"saleIDO\\\\ZNS.sol\":22614:22629  block.timestamp */\n      timestamp\n        /* \"saleIDO\\\\ZNS.sol\":22614:22640  block.timestamp > deadline */\n      gt\n        /* \"saleIDO\\\\ZNS.sol\":22610:22709  if (block.timestamp > deadline) {... */\n      iszero\n      tag_143\n      jumpi\n        /* \"saleIDO\\\\ZNS.sol\":22688:22696  deadline */\n      dup4\n        /* \"saleIDO\\\\ZNS.sol\":22664:22697  ERC2612ExpiredSignature(deadline) */\n      mload(0x40)\n      0x6279130200000000000000000000000000000000000000000000000000000000\n      dup2\n      mstore\n      0x04\n      add\n      tag_144\n      swap2\n      swap1\n      tag_34\n      jump\t// in\n    tag_144:\n      mload(0x40)\n      dup1\n      swap2\n      sub\n      swap1\n      revert\n        /* \"saleIDO\\\\ZNS.sol\":22610:22709  if (block.timestamp > deadline) {... */\n    tag_143:\n        /* \"saleIDO\\\\ZNS.sol\":22721:22739  bytes32 structHash */\n      0x00\n        /* \"saleIDO\\\\ZNS.sol\":21715:21810  keccak256(\"Permit(address owner,address spender,uint256 value,uint256 nonce,uint256 deadline)\") */\n      0x6e71edae12b1b97f4d1f60370fef10105fa2faae0126114a169c64845d6126c9\n        /* \"saleIDO\\\\ZNS.sol\":22781:22786  owner */\n      dup9\n        /* \"saleIDO\\\\ZNS.sol\":22788:22795  spender */\n      dup9\n        /* \"saleIDO\\\\ZNS.sol\":22797:22802  value */\n      dup9\n        /* \"saleIDO\\\\ZNS.sol\":22804:22820  _useNonce(owner) */\n      tag_145\n        /* \"saleIDO\\\\ZNS.sol\":22814:22819  owner */\n      dup13\n        /* \"saleIDO\\\\ZNS.sol\":22804:22813  _useNonce */\n      tag_146\n        /* \"saleIDO\\\\ZNS.sol\":22804:22820  _useNonce(owner) */\n      jump\t// in\n    tag_145:\n        /* \"saleIDO\\\\ZNS.sol\":22822:22830  deadline */\n      dup10\n        /* \"saleIDO\\\\ZNS.sol\":22752:22831  abi.encode(_PERMIT_TYPEHASH, owner, spender, value, _useNonce(owner), deadline) */\n      add(0x20, mload(0x40))\n      tag_147\n      swap7\n      swap6\n      swap5\n      swap4\n      swap3\n      swap2\n      swap1\n      tag_148\n      jump\t// in\n    tag_147:\n      mload(0x40)\n      0x20\n      dup2\n      dup4\n      sub\n      sub\n      dup2\n      mstore\n      swap1\n      0x40\n      mstore\n        /* \"saleIDO\\\\ZNS.sol\":22742:22832  keccak256(abi.encode(_PERMIT_TYPEHASH, owner, spender, value, _useNonce(owner), deadline)) */\n      dup1\n      mload\n      swap1\n      0x20\n      add\n      keccak256\n        /* \"saleIDO\\\\ZNS.sol\":22721:22832  bytes32 structHash = keccak256(abi.encode(_PERMIT_TYPEHASH, owner, spender, value, _useNonce(owner), deadline)) */\n      swap1\n      pop\n        /* \"saleIDO\\\\ZNS.sol\":22845:22857  bytes32 hash */\n      0x00\n        /* \"saleIDO\\\\ZNS.sol\":22860:22888  _hashTypedDataV4(structHash) */\n      tag_149\n        /* \"saleIDO\\\\ZNS.sol\":22877:22887  structHash */\n      dup3\n        /* \"saleIDO\\\\ZNS.sol\":22860:22876  _hashTypedDataV4 */\n      tag_150\n        /* \"saleIDO\\\\ZNS.sol\":22860:22888  _hashTypedDataV4(structHash) */\n      jump\t// in\n    tag_149:\n        /* \"saleIDO\\\\ZNS.sol\":22845:22888  bytes32 hash = _hashTypedDataV4(structHash) */\n      swap1\n      pop\n        /* \"saleIDO\\\\ZNS.sol\":22901:22915  address signer */\n      0x00\n        /* \"saleIDO\\\\ZNS.sol\":22918:22946  ECDSA.recover(hash, v, r, s) */\n      tag_151\n        /* \"saleIDO\\\\ZNS.sol\":22932:22936  hash */\n      dup3\n        /* \"saleIDO\\\\ZNS.sol\":22938:22939  v */\n      dup8\n        /* \"saleIDO\\\\ZNS.sol\":22941:22942  r */\n      dup8\n        /* \"saleIDO\\\\ZNS.sol\":22944:22945  s */\n      dup8\n        /* \"saleIDO\\\\ZNS.sol\":22918:22931  ECDSA.recover */\n      tag_152\n        /* \"saleIDO\\\\ZNS.sol\":22918:22946  ECDSA.recover(hash, v, r, s) */\n      jump\t// in\n    tag_151:\n        /* \"saleIDO\\\\ZNS.sol\":22901:22946  address signer = ECDSA.recover(hash, v, r, s) */\n      swap1\n      pop\n        /* \"saleIDO\\\\ZNS.sol\":22971:22976  owner */\n      dup10\n        /* \"saleIDO\\\\ZNS.sol\":22961:22976  signer != owner */\n      0xffffffffffffffffffffffffffffffffffffffff\n      and\n        /* \"saleIDO\\\\ZNS.sol\":22961:22967  signer */\n      dup2\n        /* \"saleIDO\\\\ZNS.sol\":22961:22976  signer != owner */\n      0xffffffffffffffffffffffffffffffffffffffff\n      and\n      eq\n        /* \"saleIDO\\\\ZNS.sol\":22957:23047  if (signer != owner) {... */\n      tag_153\n      jumpi\n        /* \"saleIDO\\\\ZNS.sol\":23021:23027  signer */\n      dup1\n        /* \"saleIDO\\\\ZNS.sol\":23029:23034  owner */\n      dup11\n        /* \"saleIDO\\\\ZNS.sol\":23000:23035  ERC2612InvalidSigner(signer, owner) */\n      mload(0x40)\n      0x4b800e4600000000000000000000000000000000000000000000000000000000\n      dup2\n      mstore\n      0x04\n      add\n      tag_154\n      swap3\n      swap2\n      swap1\n      tag_155\n      jump\t// in\n    tag_154:\n      mload(0x40)\n      dup1\n      swap2\n      sub\n      swap1\n      revert\n        /* \"saleIDO\\\\ZNS.sol\":22957:23047  if (signer != owner) {... */\n    tag_153:\n        /* \"saleIDO\\\\ZNS.sol\":23059:23090  _approve(owner, spender, value) */\n      tag_156\n        /* \"saleIDO\\\\ZNS.sol\":23068:23073  owner */\n      dup11\n        /* \"saleIDO\\\\ZNS.sol\":23075:23082  spender */\n      dup11\n        /* \"saleIDO\\\\ZNS.sol\":23084:23089  value */\n      dup11\n        /* \"saleIDO\\\\ZNS.sol\":23059:23067  _approve */\n      tag_96\n        /* \"saleIDO\\\\ZNS.sol\":23059:23090  _approve(owner, spender, value) */\n      jump\t// in\n    tag_156:\n        /* \"saleIDO\\\\ZNS.sol\":22599:23098  {... */\n      pop\n      pop\n      pop\n        /* \"saleIDO\\\\ZNS.sol\":22402:23098  function permit(... */\n      pop\n      pop\n      pop\n      pop\n      pop\n      pop\n      pop\n      jump\t// out\n        /* \"saleIDO\\\\ZNS.sol\":8544:8695  function allowance(address owner, address spender) public view virtual override returns (uint256) {... */\n    tag_83:\n        /* \"saleIDO\\\\ZNS.sol\":8633:8640  uint256 */\n      0x00\n        /* \"saleIDO\\\\ZNS.sol\":8660:8671  _allowances */\n      0x01\n        /* \"saleIDO\\\\ZNS.sol\":8660:8678  _allowances[owner] */\n      0x00\n        /* \"saleIDO\\\\ZNS.sol\":8672:8677  owner */\n      dup5\n        /* \"saleIDO\\\\ZNS.sol\":8660:8678  _allowances[owner] */\n      0xffffffffffffffffffffffffffffffffffffffff\n      and\n      0xffffffffffffffffffffffffffffffffffffffff\n      and\n      dup2\n      mstore\n      0x20\n      add\n      swap1\n      dup2\n      mstore\n      0x20\n      add\n      0x00\n      keccak256\n        /* \"saleIDO\\\\ZNS.sol\":8660:8687  _allowances[owner][spender] */\n      0x00\n        /* \"saleIDO\\\\ZNS.sol\":8679:8686  spender */\n      dup4\n        /* \"saleIDO\\\\ZNS.sol\":8660:8687  _allowances[owner][spender] */\n      0xffffffffffffffffffffffffffffffffffffffff\n      and\n      0xffffffffffffffffffffffffffffffffffffffff\n      and\n      dup2\n      mstore\n      0x20\n      add\n      swap1\n      dup2\n      mstore\n      0x20\n      add\n      0x00\n      keccak256\n      sload\n        /* \"saleIDO\\\\ZNS.sol\":8653:8687  return _allowances[owner][spender] */\n      swap1\n      pop\n        /* \"saleIDO\\\\ZNS.sol\":8544:8695  function allowance(address owner, address spender) public view virtual override returns (uint256) {... */\n      swap3\n      swap2\n      pop\n      pop\n      jump\t// out\n        /* \"saleIDO\\\\ZNS.sol\":683:781  function _msgSender() internal view virtual returns (address) {... */\n    tag_94:\n        /* \"saleIDO\\\\ZNS.sol\":736:743  address */\n      0x00\n        /* \"saleIDO\\\\ZNS.sol\":763:773  msg.sender */\n      caller\n        /* \"saleIDO\\\\ZNS.sol\":756:773  return msg.sender */\n      swap1\n      pop\n        /* \"saleIDO\\\\ZNS.sol\":683:781  function _msgSender() internal view virtual returns (address) {... */\n      swap1\n      jump\t// out\n        /* \"saleIDO\\\\ZNS.sol\":15268:15648  function _approve(... */\n    tag_96:\n        /* \"saleIDO\\\\ZNS.sol\":15421:15422  0 */\n      0x00\n        /* \"saleIDO\\\\ZNS.sol\":15404:15423  owner != address(0) */\n      0xffffffffffffffffffffffffffffffffffffffff\n      and\n        /* \"saleIDO\\\\ZNS.sol\":15404:15409  owner */\n      dup4\n        /* \"saleIDO\\\\ZNS.sol\":15404:15423  owner != address(0) */\n      0xffffffffffffffffffffffffffffffffffffffff\n      and\n      sub\n        /* \"saleIDO\\\\ZNS.sol\":15396:15464  require(owner != address(0), \"ERC20: approve from the zero address\") */\n      tag_160\n      jumpi\n      mload(0x40)\n      0x08c379a000000000000000000000000000000000000000000000000000000000\n      dup2\n      mstore\n      0x04\n      add\n      tag_161\n      swap1\n      tag_162\n      jump\t// in\n    tag_161:\n      mload(0x40)\n      dup1\n      swap2\n      sub\n      swap1\n      revert\n    tag_160:\n        /* \"saleIDO\\\\ZNS.sol\":15502:15503  0 */\n      0x00\n        /* \"saleIDO\\\\ZNS.sol\":15483:15504  spender != address(0) */\n      0xffffffffffffffffffffffffffffffffffffffff\n      and\n        /* \"saleIDO\\\\ZNS.sol\":15483:15490  spender */\n      dup3\n        /* \"saleIDO\\\\ZNS.sol\":15483:15504  spender != address(0) */\n      0xffffffffffffffffffffffffffffffffffffffff\n      and\n      sub\n        /* \"saleIDO\\\\ZNS.sol\":15475:15543  require(spender != address(0), \"ERC20: approve to the zero address\") */\n      tag_163\n      jumpi\n      mload(0x40)\n      0x08c379a000000000000000000000000000000000000000000000000000000000\n      dup2\n      mstore\n      0x04\n      add\n      tag_164\n      swap1\n      tag_165\n      jump\t// in\n    tag_164:\n      mload(0x40)\n      dup1\n      swap2\n      sub\n      swap1\n      revert\n    tag_163:\n        /* \"saleIDO\\\\ZNS.sol\":15586:15592  amount */\n      dup1\n        /* \"saleIDO\\\\ZNS.sol\":15556:15567  _allowances */\n      0x01\n        /* \"saleIDO\\\\ZNS.sol\":15556:15574  _allowances[owner] */\n      0x00\n        /* \"saleIDO\\\\ZNS.sol\":15568:15573  owner */\n      dup6\n        /* \"saleIDO\\\\ZNS.sol\":15556:15574  _allowances[owner] */\n      0xffffffffffffffffffffffffffffffffffffffff\n      and\n      0xffffffffffffffffffffffffffffffffffffffff\n      and\n      dup2\n      mstore\n      0x20\n      add\n      swap1\n      dup2\n      mstore\n      0x20\n      add\n      0x00\n      keccak256\n        /* \"saleIDO\\\\ZNS.sol\":15556:15583  _allowances[owner][spender] */\n      0x00\n        /* \"saleIDO\\\\ZNS.sol\":15575:15582  spender */\n      dup5\n        /* \"saleIDO\\\\ZNS.sol\":15556:15583  _allowances[owner][spender] */\n      0xffffffffffffffffffffffffffffffffffffffff\n      and\n      0xffffffffffffffffffffffffffffffffffffffff\n      and\n      dup2\n      mstore\n      0x20\n      add\n      swap1\n      dup2\n      mstore\n      0x20\n      add\n      0x00\n      keccak256\n        /* \"saleIDO\\\\ZNS.sol\":15556:15592  _allowances[owner][spender] = amount */\n      dup2\n      swap1\n      sstore\n      pop\n        /* \"saleIDO\\\\ZNS.sol\":15624:15631  spender */\n      dup2\n        /* \"saleIDO\\\\ZNS.sol\":15608:15640  Approval(owner, spender, amount) */\n      0xffffffffffffffffffffffffffffffffffffffff\n      and\n        /* \"saleIDO\\\\ZNS.sol\":15617:15622  owner */\n      dup4\n        /* \"saleIDO\\\\ZNS.sol\":15608:15640  Approval(owner, spender, amount) */\n      0xffffffffffffffffffffffffffffffffffffffff\n      and\n      0x8c5be1e5ebec7d5bd14f71427d1e84f3dd0314c0f7b2291e5b200ac8c7c3b925\n        /* \"saleIDO\\\\ZNS.sol\":15633:15639  amount */\n      dup4\n        /* \"saleIDO\\\\ZNS.sol\":15608:15640  Approval(owner, spender, amount) */\n      mload(0x40)\n      tag_166\n      swap2\n      swap1\n      tag_34\n      jump\t// in\n    tag_166:\n      mload(0x40)\n      dup1\n      swap2\n      sub\n      swap1\n      log3\n        /* \"saleIDO\\\\ZNS.sol\":15268:15648  function _approve(... */\n      pop\n      pop\n      pop\n      jump\t// out\n        /* \"saleIDO\\\\ZNS.sol\":15939:16392  function _spendAllowance(... */\n    tag_101:\n        /* \"saleIDO\\\\ZNS.sol\":16074:16098  uint256 currentAllowance */\n      0x00\n        /* \"saleIDO\\\\ZNS.sol\":16101:16126  allowance(owner, spender) */\n      tag_168\n        /* \"saleIDO\\\\ZNS.sol\":16111:16116  owner */\n      dup5\n        /* \"saleIDO\\\\ZNS.sol\":16118:16125  spender */\n      dup5\n        /* \"saleIDO\\\\ZNS.sol\":16101:16110  allowance */\n      tag_83\n        /* \"saleIDO\\\\ZNS.sol\":16101:16126  allowance(owner, spender) */\n      jump\t// in\n    tag_168:\n        /* \"saleIDO\\\\ZNS.sol\":16074:16126  uint256 currentAllowance = allowance(owner, spender) */\n      swap1\n      pop\n        /* \"saleIDO\\\\ZNS.sol\":16161:16178  type(uint256).max */\n      0xffffffffffffffffffffffffffffffffffffffffffffffffffffffffffffffff\n        /* \"saleIDO\\\\ZNS.sol\":16141:16157  currentAllowance */\n      dup2\n        /* \"saleIDO\\\\ZNS.sol\":16141:16178  currentAllowance != type(uint256).max */\n      eq\n        /* \"saleIDO\\\\ZNS.sol\":16137:16385  if (currentAllowance != type(uint256).max) {... */\n      tag_169\n      jumpi\n        /* \"saleIDO\\\\ZNS.sol\":16223:16229  amount */\n      dup2\n        /* \"saleIDO\\\\ZNS.sol\":16203:16219  currentAllowance */\n      dup2\n        /* \"saleIDO\\\\ZNS.sol\":16203:16229  currentAllowance >= amount */\n      lt\n      iszero\n        /* \"saleIDO\\\\ZNS.sol\":16195:16263  require(currentAllowance >= amount, \"ERC20: insufficient allowance\") */\n      tag_170\n      jumpi\n      mload(0x40)\n      0x08c379a000000000000000000000000000000000000000000000000000000000\n      dup2\n      mstore\n      0x04\n      add\n      tag_171\n      swap1\n      tag_172\n      jump\t// in\n    tag_171:\n      mload(0x40)\n      dup1\n      swap2\n      sub\n      swap1\n      revert\n    tag_170:\n        /* \"saleIDO\\\\ZNS.sol\":16307:16358  _approve(owner, spender, currentAllowance - amount) */\n      tag_173\n        /* \"saleIDO\\\\ZNS.sol\":16316:16321  owner */\n      dup5\n        /* \"saleIDO\\\\ZNS.sol\":16323:16330  spender */\n      dup5\n        /* \"saleIDO\\\\ZNS.sol\":16351:16357  amount */\n      dup5\n        /* \"saleIDO\\\\ZNS.sol\":16332:16348  currentAllowance */\n      dup5\n        /* \"saleIDO\\\\ZNS.sol\":16332:16357  currentAllowance - amount */\n      sub\n        /* \"saleIDO\\\\ZNS.sol\":16307:16315  _approve */\n      tag_96\n        /* \"saleIDO\\\\ZNS.sol\":16307:16358  _approve(owner, spender, currentAllowance - amount) */\n      jump\t// in\n    tag_173:\n        /* \"saleIDO\\\\ZNS.sol\":16137:16385  if (currentAllowance != type(uint256).max) {... */\n    tag_169:\n        /* \"saleIDO\\\\ZNS.sol\":16063:16392  {... */\n      pop\n        /* \"saleIDO\\\\ZNS.sol\":15939:16392  function _spendAllowance(... */\n      pop\n      pop\n      pop\n      jump\t// out\n        /* \"saleIDO\\\\ZNS.sol\":12147:12987  function _transfer(... */\n    tag_103:\n        /* \"saleIDO\\\\ZNS.sol\":12294:12295  0 */\n      0x00\n        /* \"saleIDO\\\\ZNS.sol\":12278:12296  from != address(0) */\n      0xffffffffffffffffffffffffffffffffffffffff\n      and\n        /* \"saleIDO\\\\ZNS.sol\":12278:12282  from */\n      dup4\n        /* \"saleIDO\\\\ZNS.sol\":12278:12296  from != address(0) */\n      0xffffffffffffffffffffffffffffffffffffffff\n      and\n      sub\n        /* \"saleIDO\\\\ZNS.sol\":12270:12338  require(from != address(0), \"ERC20: transfer from the zero address\") */\n      tag_175\n      jumpi\n      mload(0x40)\n      0x08c379a000000000000000000000000000000000000000000000000000000000\n      dup2\n      mstore\n      0x04\n      add\n      tag_176\n      swap1\n      tag_177\n      jump\t// in\n    tag_176:\n      mload(0x40)\n      dup1\n      swap2\n      sub\n      swap1\n      revert\n    tag_175:\n        /* \"saleIDO\\\\ZNS.sol\":12371:12372  0 */\n      0x00\n        /* \"saleIDO\\\\ZNS.sol\":12357:12373  to != address(0) */\n      0xffffffffffffffffffffffffffffffffffffffff\n      and\n        /* \"saleIDO\\\\ZNS.sol\":12357:12359  to */\n      dup3\n        /* \"saleIDO\\\\ZNS.sol\":12357:12373  to != address(0) */\n      0xffffffffffffffffffffffffffffffffffffffff\n      and\n      sub\n        /* \"saleIDO\\\\ZNS.sol\":12349:12413  require(to != address(0), \"ERC20: transfer to the zero address\") */\n      tag_178\n      jumpi\n      mload(0x40)\n      0x08c379a000000000000000000000000000000000000000000000000000000000\n      dup2\n      mstore\n      0x04\n      add\n      tag_179\n      swap1\n      tag_180\n      jump\t// in\n    tag_179:\n      mload(0x40)\n      dup1\n      swap2\n      sub\n      swap1\n      revert\n    tag_178:\n        /* \"saleIDO\\\\ZNS.sol\":12426:12464  _beforeTokenTransfer(from, to, amount) */\n      tag_181\n        /* \"saleIDO\\\\ZNS.sol\":12447:12451  from */\n      dup4\n        /* \"saleIDO\\\\ZNS.sol\":12453:12455  to */\n      dup4\n        /* \"saleIDO\\\\ZNS.sol\":12457:12463  amount */\n      dup4\n        /* \"saleIDO\\\\ZNS.sol\":12426:12446  _beforeTokenTransfer */\n      tag_182\n        /* \"saleIDO\\\\ZNS.sol\":12426:12464  _beforeTokenTransfer(from, to, amount) */\n      jump\t// in\n    tag_181:\n        /* \"saleIDO\\\\ZNS.sol\":12477:12496  uint256 fromBalance */\n      0x00\n        /* \"saleIDO\\\\ZNS.sol\":12499:12508  _balances */\n      dup1\n        /* \"saleIDO\\\\ZNS.sol\":12499:12514  _balances[from] */\n      0x00\n        /* \"saleIDO\\\\ZNS.sol\":12509:12513  from */\n      dup6\n        /* \"saleIDO\\\\ZNS.sol\":12499:12514  _balances[from] */\n      0xffffffffffffffffffffffffffffffffffffffff\n      and\n      0xffffffffffffffffffffffffffffffffffffffff\n      and\n      dup2\n      mstore\n      0x20\n      add\n      swap1\n      dup2\n      mstore\n      0x20\n      add\n      0x00\n      keccak256\n      sload\n        /* \"saleIDO\\\\ZNS.sol\":12477:12514  uint256 fromBalance = _balances[from] */\n      swap1\n      pop\n        /* \"saleIDO\\\\ZNS.sol\":12548:12554  amount */\n      dup2\n        /* \"saleIDO\\\\ZNS.sol\":12533:12544  fromBalance */\n      dup2\n        /* \"saleIDO\\\\ZNS.sol\":12533:12554  fromBalance >= amount */\n      lt\n      iszero\n        /* \"saleIDO\\\\ZNS.sol\":12525:12597  require(fromBalance >= amount, \"ERC20: transfer amount exceeds balance\") */\n      tag_183\n      jumpi\n      mload(0x40)\n      0x08c379a000000000000000000000000000000000000000000000000000000000\n      dup2\n      mstore\n      0x04\n      add\n      tag_184\n      swap1\n      tag_185\n      jump\t// in\n    tag_184:\n      mload(0x40)\n      dup1\n      swap2\n      sub\n      swap1\n      revert\n    tag_183:\n        /* \"saleIDO\\\\ZNS.sol\":12665:12671  amount */\n      dup2\n        /* \"saleIDO\\\\ZNS.sol\":12651:12662  fromBalance */\n      dup2\n        /* \"saleIDO\\\\ZNS.sol\":12651:12671  fromBalance - amount */\n      sub\n        /* \"saleIDO\\\\ZNS.sol\":12633:12642  _balances */\n      0x00\n        /* \"saleIDO\\\\ZNS.sol\":12633:12648  _balances[from] */\n      dup1\n        /* \"saleIDO\\\\ZNS.sol\":12643:12647  from */\n      dup7\n        /* \"saleIDO\\\\ZNS.sol\":12633:12648  _balances[from] */\n      0xffffffffffffffffffffffffffffffffffffffff\n      and\n      0xffffffffffffffffffffffffffffffffffffffff\n      and\n      dup2\n      mstore\n      0x20\n      add\n      swap1\n      dup2\n      mstore\n      0x20\n      add\n      0x00\n      keccak256\n        /* \"saleIDO\\\\ZNS.sol\":12633:12671  _balances[from] = fromBalance - amount */\n      dup2\n      swap1\n      sstore\n      pop\n        /* \"saleIDO\\\\ZNS.sol\":12868:12874  amount */\n      dup2\n        /* \"saleIDO\\\\ZNS.sol\":12851:12860  _balances */\n      0x00\n        /* \"saleIDO\\\\ZNS.sol\":12851:12864  _balances[to] */\n      dup1\n        /* \"saleIDO\\\\ZNS.sol\":12861:12863  to */\n      dup6\n        /* \"saleIDO\\\\ZNS.sol\":12851:12864  _balances[to] */\n      0xffffffffffffffffffffffffffffffffffffffff\n      and\n      0xffffffffffffffffffffffffffffffffffffffff\n      and\n      dup2\n      mstore\n      0x20\n      add\n      swap1\n      dup2\n      mstore\n      0x20\n      add\n      0x00\n      keccak256\n      0x00\n        /* \"saleIDO\\\\ZNS.sol\":12851:12874  _balances[to] += amount */\n      dup3\n      dup3\n      sload\n      add\n      swap3\n      pop\n      pop\n      dup2\n      swap1\n      sstore\n      pop\n        /* \"saleIDO\\\\ZNS.sol\":12918:12920  to */\n      dup3\n        /* \"saleIDO\\\\ZNS.sol\":12903:12929  Transfer(from, to, amount) */\n      0xffffffffffffffffffffffffffffffffffffffff\n      and\n        /* \"saleIDO\\\\ZNS.sol\":12912:12916  from */\n      dup5\n        /* \"saleIDO\\\\ZNS.sol\":12903:12929  Transfer(from, to, amount) */\n      0xffffffffffffffffffffffffffffffffffffffff\n      and\n      0xddf252ad1be2c89b69c2b068fc378daa952ba7f163c4a11628f55a4df523b3ef\n        /* \"saleIDO\\\\ZNS.sol\":12922:12928  amount */\n      dup5\n        /* \"saleIDO\\\\ZNS.sol\":12903:12929  Transfer(from, to, amount) */\n      mload(0x40)\n      tag_186\n      swap2\n      swap1\n      tag_34\n      jump\t// in\n    tag_186:\n      mload(0x40)\n      dup1\n      swap2\n      sub\n      swap1\n      log3\n        /* \"saleIDO\\\\ZNS.sol\":12942:12979  _afterTokenTransfer(from, to, amount) */\n      tag_187\n        /* \"saleIDO\\\\ZNS.sol\":12962:12966  from */\n      dup5\n        /* \"saleIDO\\\\ZNS.sol\":12968:12970  to */\n      dup5\n        /* \"saleIDO\\\\ZNS.sol\":12972:12978  amount */\n      dup5\n        /* \"saleIDO\\\\ZNS.sol\":12942:12961  _afterTokenTransfer */\n      tag_188\n        /* \"saleIDO\\\\ZNS.sol\":12942:12979  _afterTokenTransfer(from, to, amount) */\n      jump\t// in\n    tag_187:\n        /* \"saleIDO\\\\ZNS.sol\":12259:12987  {... */\n      pop\n        /* \"saleIDO\\\\ZNS.sol\":12147:12987  function _transfer(... */\n      pop\n      pop\n      pop\n      jump\t// out\n        /* \"@openzeppelin/contracts/utils/cryptography/EIP712.sol\":3695:3957  function _domainSeparatorV4() internal view returns (bytes32) {... */\n    tag_107:\n        /* \"@openzeppelin/contracts/utils/cryptography/EIP712.sol\":3748:3755  bytes32 */\n      0x00\n        /* \"@openzeppelin/contracts/utils/cryptography/EIP712.sol\":3788:3799  _cachedThis */\n      immutable(\"0x5f5b5a8290fb1ae7087a2571d1f5b0913474ec7aeab6a3ccbbe0de9185523d27\")\n        /* \"@openzeppelin/contracts/utils/cryptography/EIP712.sol\":3771:3799  address(this) == _cachedThis */\n      0xffffffffffffffffffffffffffffffffffffffff\n      and\n        /* \"@openzeppelin/contracts/utils/cryptography/EIP712.sol\":3779:3783  this */\n      address\n        /* \"@openzeppelin/contracts/utils/cryptography/EIP712.sol\":3771:3799  address(this) == _cachedThis */\n      0xffffffffffffffffffffffffffffffffffffffff\n      and\n      eq\n        /* \"@openzeppelin/contracts/utils/cryptography/EIP712.sol\":3771:3834  address(this) == _cachedThis && block.chainid == _cachedChainId */\n      dup1\n      iszero\n      tag_190\n      jumpi\n      pop\n        /* \"@openzeppelin/contracts/utils/cryptography/EIP712.sol\":3820:3834  _cachedChainId */\n      immutable(\"0x44986917507edc118e82cff103288e6e452145dcea4c0554fb5180f3e053ae11\")\n        /* \"@openzeppelin/contracts/utils/cryptography/EIP712.sol\":3803:3816  block.chainid */\n      chainid\n        /* \"@openzeppelin/contracts/utils/cryptography/EIP712.sol\":3803:3834  block.chainid == _cachedChainId */\n      eq\n        /* \"@openzeppelin/contracts/utils/cryptography/EIP712.sol\":3771:3834  address(this) == _cachedThis && block.chainid == _cachedChainId */\n    tag_190:\n        /* \"@openzeppelin/contracts/utils/cryptography/EIP712.sol\":3767:3951  if (address(this) == _cachedThis && block.chainid == _cachedChainId) {... */\n      iszero\n      tag_191\n      jumpi\n        /* \"@openzeppelin/contracts/utils/cryptography/EIP712.sol\":3857:3879  _cachedDomainSeparator */\n      immutable(\"0x61c015546d5e44346798f1c6880464efac2cf5ed99e68a15f785eaa6fd93e7ec\")\n        /* \"@openzeppelin/contracts/utils/cryptography/EIP712.sol\":3850:3879  return _cachedDomainSeparator */\n      swap1\n      pop\n      jump(tag_189)\n        /* \"@openzeppelin/contracts/utils/cryptography/EIP712.sol\":3767:3951  if (address(this) == _cachedThis && block.chainid == _cachedChainId) {... */\n    tag_191:\n        /* \"@openzeppelin/contracts/utils/cryptography/EIP712.sol\":3917:3940  _buildDomainSeparator() */\n      tag_193\n        /* \"@openzeppelin/contracts/utils/cryptography/EIP712.sol\":3917:3938  _buildDomainSeparator */\n      tag_194\n        /* \"@openzeppelin/contracts/utils/cryptography/EIP712.sol\":3917:3940  _buildDomainSeparator() */\n      jump\t// in\n    tag_193:\n        /* \"@openzeppelin/contracts/utils/cryptography/EIP712.sol\":3910:3940  return _buildDomainSeparator() */\n      swap1\n      pop\n        /* \"@openzeppelin/contracts/utils/cryptography/EIP712.sol\":3695:3957  function _domainSeparatorV4() internal view returns (bytes32) {... */\n    tag_189:\n      swap1\n      jump\t// out\n        /* \"saleIDO\\\\ZNS.sol\":20508:20617  function nonces(address owner) public view virtual returns (uint256) {... */\n    tag_117:\n        /* \"saleIDO\\\\ZNS.sol\":20568:20575  uint256 */\n      0x00\n        /* \"saleIDO\\\\ZNS.sol\":20595:20602  _nonces */\n      0x07\n        /* \"saleIDO\\\\ZNS.sol\":20595:20609  _nonces[owner] */\n      0x00\n        /* \"saleIDO\\\\ZNS.sol\":20603:20608  owner */\n      dup4\n        /* \"saleIDO\\\\ZNS.sol\":20595:20609  _nonces[owner] */\n      0xffffffffffffffffffffffffffffffffffffffff\n      and\n      0xffffffffffffffffffffffffffffffffffffffff\n      and\n      dup2\n      mstore\n      0x20\n      add\n      swap1\n      dup2\n      mstore\n      0x20\n      add\n      0x00\n      keccak256\n      sload\n        /* \"saleIDO\\\\ZNS.sol\":20588:20609  return _nonces[owner] */\n      swap1\n      pop\n        /* \"saleIDO\\\\ZNS.sol\":20508:20617  function nonces(address owner) public view virtual returns (uint256) {... */\n      swap2\n      swap1\n      pop\n      jump\t// out\n        /* \"@openzeppelin/contracts/utils/ShortStrings.sol\":3367:3635  function toStringWithFallback(ShortString value, string storage store) internal pure returns (string memory) {... */\n    tag_120:\n        /* \"@openzeppelin/contracts/utils/ShortStrings.sol\":3461:3474  string memory */\n      0x60\n        /* \"@openzeppelin/contracts/utils/ShortStrings.sol\":1371:1437  0x00000000000000000000000000000000000000000000000000000000000000FF */\n      0xff\n        /* \"@openzeppelin/contracts/utils/ShortStrings.sol\":3519:3537  _FALLBACK_SENTINEL */\n      0x00\n      shl\n        /* \"@openzeppelin/contracts/utils/ShortStrings.sol\":3509:3514  value */\n      dup4\n        /* \"@openzeppelin/contracts/utils/ShortStrings.sol\":3490:3537  ShortString.unwrap(value) != _FALLBACK_SENTINEL */\n      eq\n        /* \"@openzeppelin/contracts/utils/ShortStrings.sol\":3486:3629  if (ShortString.unwrap(value) != _FALLBACK_SENTINEL) {... */\n      tag_197\n      jumpi\n        /* \"@openzeppelin/contracts/utils/ShortStrings.sol\":3560:3575  toString(value) */\n      tag_198\n        /* \"@openzeppelin/contracts/utils/ShortStrings.sol\":3569:3574  value */\n      dup4\n        /* \"@openzeppelin/contracts/utils/ShortStrings.sol\":3560:3568  toString */\n      tag_199\n        /* \"@openzeppelin/contracts/utils/ShortStrings.sol\":3560:3575  toString(value) */\n      jump\t// in\n    tag_198:\n        /* \"@openzeppelin/contracts/utils/ShortStrings.sol\":3553:3575  return toString(value) */\n      swap1\n      pop\n      jump(tag_196)\n        /* \"@openzeppelin/contracts/utils/ShortStrings.sol\":3486:3629  if (ShortString.unwrap(value) != _FALLBACK_SENTINEL) {... */\n    tag_197:\n        /* \"@openzeppelin/contracts/utils/ShortStrings.sol\":3613:3618  store */\n      dup2\n        /* \"@openzeppelin/contracts/utils/ShortStrings.sol\":3606:3618  return store */\n      dup1\n      sload\n      tag_201\n      swap1\n      tag_87\n      jump\t// in\n    tag_201:\n      dup1\n      0x1f\n      add\n      0x20\n      dup1\n      swap2\n      div\n      mul\n      0x20\n      add\n      mload(0x40)\n      swap1\n      dup2\n      add\n      0x40\n      mstore\n      dup1\n      swap3\n      swap2\n      swap1\n      dup2\n      dup2\n      mstore\n      0x20\n      add\n      dup3\n      dup1\n      sload\n      tag_202\n      swap1\n      tag_87\n      jump\t// in\n    tag_202:\n      dup1\n      iszero\n      tag_203\n      jumpi\n      dup1\n      0x1f\n      lt\n      tag_204\n      jumpi\n      0x0100\n      dup1\n      dup4\n      sload\n      div\n      mul\n      dup4\n      mstore\n      swap2\n      0x20\n      add\n      swap2\n      jump(tag_203)\n    tag_204:\n      dup3\n      add\n      swap2\n      swap1\n      0x00\n      mstore\n      keccak256(0x00, 0x20)\n      swap1\n    tag_205:\n      dup2\n      sload\n      dup2\n      mstore\n      swap1\n      0x01\n      add\n      swap1\n      0x20\n      add\n      dup1\n      dup4\n      gt\n      tag_205\n      jumpi\n      dup3\n      swap1\n      sub\n      0x1f\n      and\n      dup3\n      add\n      swap2\n    tag_203:\n      pop\n      pop\n      pop\n      pop\n      pop\n      swap1\n      pop\n        /* \"@openzeppelin/contracts/utils/ShortStrings.sol\":3367:3635  function toStringWithFallback(ShortString value, string storage store) internal pure returns (string memory) {... */\n    tag_196:\n      swap3\n      swap2\n      pop\n      pop\n      jump\t// out\n        /* \"saleIDO\\\\ZNS.sol\":20738:21140  function _useNonce(address owner) internal virtual returns (uint256) {... */\n    tag_146:\n        /* \"saleIDO\\\\ZNS.sol\":20798:20805  uint256 */\n      0x00\n        /* \"saleIDO\\\\ZNS.sol\":21105:21112  _nonces */\n      0x07\n        /* \"saleIDO\\\\ZNS.sol\":21105:21119  _nonces[owner] */\n      0x00\n        /* \"saleIDO\\\\ZNS.sol\":21113:21118  owner */\n      dup4\n        /* \"saleIDO\\\\ZNS.sol\":21105:21119  _nonces[owner] */\n      0xffffffffffffffffffffffffffffffffffffffff\n      and\n      0xffffffffffffffffffffffffffffffffffffffff\n      and\n      dup2\n      mstore\n      0x20\n      add\n      swap1\n      dup2\n      mstore\n      0x20\n      add\n      0x00\n      keccak256\n      0x00\n        /* \"saleIDO\\\\ZNS.sol\":21105:21121  _nonces[owner]++ */\n      dup2\n      sload\n      dup1\n      swap3\n      swap2\n      swap1\n      0x01\n      add\n      swap2\n      swap1\n      pop\n      sstore\n        /* \"saleIDO\\\\ZNS.sol\":21098:21121  return _nonces[owner]++ */\n      swap1\n      pop\n        /* \"saleIDO\\\\ZNS.sol\":20738:21140  function _useNonce(address owner) internal virtual returns (uint256) {... */\n      swap2\n      swap1\n      pop\n      jump\t// out\n        /* \"@openzeppelin/contracts/utils/cryptography/EIP712.sol\":4768:4933  function _hashTypedDataV4(bytes32 structHash) internal view virtual returns (bytes32) {... */\n    tag_150:\n        /* \"@openzeppelin/contracts/utils/cryptography/EIP712.sol\":4845:4852  bytes32 */\n      0x00\n        /* \"@openzeppelin/contracts/utils/cryptography/EIP712.sol\":4871:4926  ECDSA.toTypedDataHash(_domainSeparatorV4(), structHash) */\n      tag_208\n        /* \"@openzeppelin/contracts/utils/cryptography/EIP712.sol\":4893:4913  _domainSeparatorV4() */\n      tag_209\n        /* \"@openzeppelin/contracts/utils/cryptography/EIP712.sol\":4893:4911  _domainSeparatorV4 */\n      tag_107\n        /* \"@openzeppelin/contracts/utils/cryptography/EIP712.sol\":4893:4913  _domainSeparatorV4() */\n      jump\t// in\n    tag_209:\n        /* \"@openzeppelin/contracts/utils/cryptography/EIP712.sol\":4915:4925  structHash */\n      dup4\n        /* \"@openzeppelin/contracts/utils/cryptography/EIP712.sol\":4871:4892  ECDSA.toTypedDataHash */\n      tag_210\n        /* \"@openzeppelin/contracts/utils/cryptography/EIP712.sol\":4871:4926  ECDSA.toTypedDataHash(_domainSeparatorV4(), structHash) */\n      jump\t// in\n    tag_208:\n        /* \"@openzeppelin/contracts/utils/cryptography/EIP712.sol\":4864:4926  return ECDSA.toTypedDataHash(_domainSeparatorV4(), structHash) */\n      swap1\n      pop\n        /* \"@openzeppelin/contracts/utils/cryptography/EIP712.sol\":4768:4933  function _hashTypedDataV4(bytes32 structHash) internal view virtual returns (bytes32) {... */\n      swap2\n      swap1\n      pop\n      jump\t// out\n        /* \"@openzeppelin/contracts/utils/cryptography/ECDSA.sol\":6598:6830  function recover(bytes32 hash, uint8 v, bytes32 r, bytes32 s) internal pure returns (address) {... */\n    tag_152:\n        /* \"@openzeppelin/contracts/utils/cryptography/ECDSA.sol\":6683:6690  address */\n      0x00\n        /* \"@openzeppelin/contracts/utils/cryptography/ECDSA.sol\":6703:6720  address recovered */\n      dup1\n        /* \"@openzeppelin/contracts/utils/cryptography/ECDSA.sol\":6722:6740  RecoverError error */\n      0x00\n        /* \"@openzeppelin/contracts/utils/cryptography/ECDSA.sol\":6744:6769  tryRecover(hash, v, r, s) */\n      tag_212\n        /* \"@openzeppelin/contracts/utils/cryptography/ECDSA.sol\":6755:6759  hash */\n      dup8\n        /* \"@openzeppelin/contracts/utils/cryptography/ECDSA.sol\":6761:6762  v */\n      dup8\n        /* \"@openzeppelin/contracts/utils/cryptography/ECDSA.sol\":6764:6765  r */\n      dup8\n        /* \"@openzeppelin/contracts/utils/cryptography/ECDSA.sol\":6767:6768  s */\n      dup8\n        /* \"@openzeppelin/contracts/utils/cryptography/ECDSA.sol\":6744:6754  tryRecover */\n      tag_213\n        /* \"@openzeppelin/contracts/utils/cryptography/ECDSA.sol\":6744:6769  tryRecover(hash, v, r, s) */\n      jump\t// in\n    tag_212:\n        /* \"@openzeppelin/contracts/utils/cryptography/ECDSA.sol\":6702:6769  (address recovered, RecoverError error) = tryRecover(hash, v, r, s) */\n      swap2\n      pop\n      swap2\n      pop\n        /* \"@openzeppelin/contracts/utils/cryptography/ECDSA.sol\":6779:6797  _throwError(error) */\n      tag_214\n        /* \"@openzeppelin/contracts/utils/cryptography/ECDSA.sol\":6791:6796  error */\n      dup2\n        /* \"@openzeppelin/contracts/utils/cryptography/ECDSA.sol\":6779:6790  _throwError */\n      tag_215\n        /* \"@openzeppelin/contracts/utils/cryptography/ECDSA.sol\":6779:6797  _throwError(error) */\n      jump\t// in\n    tag_214:\n        /* \"@openzeppelin/contracts/utils/cryptography/ECDSA.sol\":6814:6823  recovered */\n      dup2\n        /* \"@openzeppelin/contracts/utils/cryptography/ECDSA.sol\":6807:6823  return recovered */\n      swap3\n      pop\n      pop\n      pop\n        /* \"@openzeppelin/contracts/utils/cryptography/ECDSA.sol\":6598:6830  function recover(bytes32 hash, uint8 v, bytes32 r, bytes32 s) internal pure returns (address) {... */\n      swap5\n      swap4\n      pop\n      pop\n      pop\n      pop\n      jump\t// out\n        /* \"saleIDO\\\\ZNS.sol\":16992:17117  function _beforeTokenTransfer(... */\n    tag_182:\n      pop\n      pop\n      pop\n      jump\t// out\n        /* \"saleIDO\\\\ZNS.sol\":17721:17845  function _afterTokenTransfer(... */\n    tag_188:\n      pop\n      pop\n      pop\n      jump\t// out\n        /* \"@openzeppelin/contracts/utils/cryptography/EIP712.sol\":3963:4143  function _buildDomainSeparator() private view returns (bytes32) {... */\n    tag_194:\n        /* \"@openzeppelin/contracts/utils/cryptography/EIP712.sol\":4018:4025  bytes32 */\n      0x00\n        /* \"@openzeppelin/contracts/utils/cryptography/EIP712.sol\":1929:2024  keccak256(\"EIP712Domain(string name,string version,uint256 chainId,address verifyingContract)\") */\n      0x8b73c3c69bb8fe3d512ecc4cf759cc79239f7b179b0ffacaa9a75d522b39400f\n        /* \"@openzeppelin/contracts/utils/cryptography/EIP712.sol\":4077:4088  _hashedName */\n      immutable(\"0x87bd18b67247df6baa7533339c49063efb5f43390eb1bcf9e95a3aa2cdb49408\")\n        /* \"@openzeppelin/contracts/utils/cryptography/EIP712.sol\":4090:4104  _hashedVersion */\n      immutable(\"0x8d841e129c158ed00fc3618c65b249d82e3b0efc8bcebb06537fd0a18b989353\")\n        /* \"@openzeppelin/contracts/utils/cryptography/EIP712.sol\":4106:4119  block.chainid */\n      chainid\n        /* \"@openzeppelin/contracts/utils/cryptography/EIP712.sol\":4129:4133  this */\n      address\n        /* \"@openzeppelin/contracts/utils/cryptography/EIP712.sol\":4054:4135  abi.encode(_TYPE_HASH, _hashedName, _hashedVersion, block.chainid, address(this)) */\n      add(0x20, mload(0x40))\n      tag_219\n      swap6\n      swap5\n      swap4\n      swap3\n      swap2\n      swap1\n      tag_220\n      jump\t// in\n    tag_219:\n      mload(0x40)\n      0x20\n      dup2\n      dup4\n      sub\n      sub\n      dup2\n      mstore\n      swap1\n      0x40\n      mstore\n        /* \"@openzeppelin/contracts/utils/cryptography/EIP712.sol\":4044:4136  keccak256(abi.encode(_TYPE_HASH, _hashedName, _hashedVersion, block.chainid, address(this))) */\n      dup1\n      mload\n      swap1\n      0x20\n      add\n      keccak256\n        /* \"@openzeppelin/contracts/utils/cryptography/EIP712.sol\":4037:4136  return keccak256(abi.encode(_TYPE_HASH, _hashedName, _hashedVersion, block.chainid, address(this))) */\n      swap1\n      pop\n        /* \"@openzeppelin/contracts/utils/cryptography/EIP712.sol\":3963:4143  function _buildDomainSeparator() private view returns (bytes32) {... */\n      swap1\n      jump\t// out\n        /* \"@openzeppelin/contracts/utils/ShortStrings.sol\":2059:2464  function toString(ShortString sstr) internal pure returns (string memory) {... */\n    tag_199:\n        /* \"@openzeppelin/contracts/utils/ShortStrings.sol\":2118:2131  string memory */\n      0x60\n        /* \"@openzeppelin/contracts/utils/ShortStrings.sol\":2143:2154  uint256 len */\n      0x00\n        /* \"@openzeppelin/contracts/utils/ShortStrings.sol\":2157:2173  byteLength(sstr) */\n      tag_222\n        /* \"@openzeppelin/contracts/utils/ShortStrings.sol\":2168:2172  sstr */\n      dup4\n        /* \"@openzeppelin/contracts/utils/ShortStrings.sol\":2157:2167  byteLength */\n      tag_223\n        /* \"@openzeppelin/contracts/utils/ShortStrings.sol\":2157:2173  byteLength(sstr) */\n      jump\t// in\n    tag_222:\n        /* \"@openzeppelin/contracts/utils/ShortStrings.sol\":2143:2173  uint256 len = byteLength(sstr) */\n      swap1\n      pop\n        /* \"@openzeppelin/contracts/utils/ShortStrings.sol\":2261:2278  string memory str */\n      0x00\n        /* \"@openzeppelin/contracts/utils/ShortStrings.sol\":2292:2294  32 */\n      0x20\n        /* \"@openzeppelin/contracts/utils/ShortStrings.sol\":2281:2295  new string(32) */\n      0xffffffffffffffff\n      dup2\n      gt\n      iszero\n      tag_224\n      jumpi\n      tag_225\n      tag_124\n      jump\t// in\n    tag_225:\n    tag_224:\n      mload(0x40)\n      swap1\n      dup1\n      dup3\n      mstore\n      dup1\n      0x1f\n      add\n      not(0x1f)\n      and\n      0x20\n      add\n      dup3\n      add\n      0x40\n      mstore\n      dup1\n      iszero\n      tag_226\n      jumpi\n      dup2\n      0x20\n      add\n      0x01\n      dup3\n      mul\n      dup1\n      calldatasize\n      dup4\n      calldatacopy\n      dup1\n      dup3\n      add\n      swap2\n      pop\n      pop\n      swap1\n      pop\n    tag_226:\n      pop\n        /* \"@openzeppelin/contracts/utils/ShortStrings.sol\":2261:2295  string memory str = new string(32) */\n      swap1\n      pop\n        /* \"@openzeppelin/contracts/utils/ShortStrings.sol\":2383:2386  len */\n      dup2\n        /* \"@openzeppelin/contracts/utils/ShortStrings.sol\":2378:2381  str */\n      dup2\n        /* \"@openzeppelin/contracts/utils/ShortStrings.sol\":2371:2387  mstore(str, len) */\n      mstore\n        /* \"@openzeppelin/contracts/utils/ShortStrings.sol\":2423:2427  sstr */\n      dup4\n        /* \"@openzeppelin/contracts/utils/ShortStrings.sol\":2416:2420  0x20 */\n      0x20\n        /* \"@openzeppelin/contracts/utils/ShortStrings.sol\":2411:2414  str */\n      dup3\n        /* \"@openzeppelin/contracts/utils/ShortStrings.sol\":2407:2421  add(str, 0x20) */\n      add\n        /* \"@openzeppelin/contracts/utils/ShortStrings.sol\":2400:2428  mstore(add(str, 0x20), sstr) */\n      mstore\n        /* \"@openzeppelin/contracts/utils/ShortStrings.sol\":2454:2457  str */\n      dup1\n        /* \"@openzeppelin/contracts/utils/ShortStrings.sol\":2447:2457  return str */\n      swap3\n      pop\n      pop\n      pop\n        /* \"@openzeppelin/contracts/utils/ShortStrings.sol\":2059:2464  function toString(ShortString sstr) internal pure returns (string memory) {... */\n      swap2\n      swap1\n      pop\n      jump\t// out\n        /* \"@openzeppelin/contracts/utils/cryptography/ECDSA.sol\":8336:8733  function toTypedDataHash(bytes32 domainSeparator, bytes32 structHash) internal pure returns (bytes32 data) {... */\n    tag_210:\n        /* \"@openzeppelin/contracts/utils/cryptography/ECDSA.sol\":8429:8441  bytes32 data */\n      0x00\n        /* \"@openzeppelin/contracts/utils/cryptography/ECDSA.sol\":8536:8540  0x40 */\n      0x40\n        /* \"@openzeppelin/contracts/utils/cryptography/ECDSA.sol\":8530:8541  mload(0x40) */\n      mload\n        /* \"@openzeppelin/contracts/utils/cryptography/ECDSA.sol\":8566:8576  \"\\x19\\x01\" */\n      0x1901000000000000000000000000000000000000000000000000000000000000\n        /* \"@openzeppelin/contracts/utils/cryptography/ECDSA.sol\":8561:8564  ptr */\n      dup2\n        /* \"@openzeppelin/contracts/utils/cryptography/ECDSA.sol\":8554:8577  mstore(ptr, \"\\x19\\x01\") */\n      mstore\n        /* \"@openzeppelin/contracts/utils/cryptography/ECDSA.sol\":8613:8628  domainSeparator */\n      dup4\n        /* \"@openzeppelin/contracts/utils/cryptography/ECDSA.sol\":8606:8610  0x02 */\n      0x02\n        /* \"@openzeppelin/contracts/utils/cryptography/ECDSA.sol\":8601:8604  ptr */\n      dup3\n        /* \"@openzeppelin/contracts/utils/cryptography/ECDSA.sol\":8597:8611  add(ptr, 0x02) */\n      add\n        /* \"@openzeppelin/contracts/utils/cryptography/ECDSA.sol\":8590:8629  mstore(add(ptr, 0x02), domainSeparator) */\n      mstore\n        /* \"@openzeppelin/contracts/utils/cryptography/ECDSA.sol\":8665:8675  structHash */\n      dup3\n        /* \"@openzeppelin/contracts/utils/cryptography/ECDSA.sol\":8658:8662  0x22 */\n      0x22\n        /* \"@openzeppelin/contracts/utils/cryptography/ECDSA.sol\":8653:8656  ptr */\n      dup3\n        /* \"@openzeppelin/contracts/utils/cryptography/ECDSA.sol\":8649:8663  add(ptr, 0x22) */\n      add\n        /* \"@openzeppelin/contracts/utils/cryptography/ECDSA.sol\":8642:8676  mstore(add(ptr, 0x22), structHash) */\n      mstore\n        /* \"@openzeppelin/contracts/utils/cryptography/ECDSA.sol\":8712:8716  0x42 */\n      0x42\n        /* \"@openzeppelin/contracts/utils/cryptography/ECDSA.sol\":8707:8710  ptr */\n      dup2\n        /* \"@openzeppelin/contracts/utils/cryptography/ECDSA.sol\":8697:8717  keccak256(ptr, 0x42) */\n      keccak256\n        /* \"@openzeppelin/contracts/utils/cryptography/ECDSA.sol\":8689:8717  data := keccak256(ptr, 0x42) */\n      swap2\n      pop\n        /* \"@openzeppelin/contracts/utils/cryptography/ECDSA.sol\":8505:8727  {... */\n      pop\n        /* \"@openzeppelin/contracts/utils/cryptography/ECDSA.sol\":8336:8733  function toTypedDataHash(bytes32 domainSeparator, bytes32 structHash) internal pure returns (bytes32 data) {... */\n      swap3\n      swap2\n      pop\n      pop\n      jump\t// out\n        /* \"@openzeppelin/contracts/utils/cryptography/ECDSA.sol\":5009:6465  function tryRecover(bytes32 hash, uint8 v, bytes32 r, bytes32 s) internal pure returns (address, RecoverError) {... */\n    tag_213:\n        /* \"@openzeppelin/contracts/utils/cryptography/ECDSA.sol\":5097:5104  address */\n      0x00\n        /* \"@openzeppelin/contracts/utils/cryptography/ECDSA.sol\":5106:5118  RecoverError */\n      dup1\n        /* \"@openzeppelin/contracts/utils/cryptography/ECDSA.sol\":6021:6087  0x7FFFFFFFFFFFFFFFFFFFFFFFFFFFFFFF5D576E7357A4501DDFE92F46681B20A0 */\n      0x7fffffffffffffffffffffffffffffff5d576e7357a4501ddfe92f46681b20a0\n        /* \"@openzeppelin/contracts/utils/cryptography/ECDSA.sol\":6016:6017  s */\n      dup4\n        /* \"@openzeppelin/contracts/utils/cryptography/ECDSA.sol\":6008:6018  uint256(s) */\n      0x00\n      shr\n        /* \"@openzeppelin/contracts/utils/cryptography/ECDSA.sol\":6008:6087  uint256(s) > 0x7FFFFFFFFFFFFFFFFFFFFFFFFFFFFFFF5D576E7357A4501DDFE92F46681B20A0 */\n      gt\n        /* \"@openzeppelin/contracts/utils/cryptography/ECDSA.sol\":6004:6165  if (uint256(s) > 0x7FFFFFFFFFFFFFFFFFFFFFFFFFFFFFFF5D576E7357A4501DDFE92F46681B20A0) {... */\n      iszero\n      tag_229\n      jumpi\n        /* \"@openzeppelin/contracts/utils/cryptography/ECDSA.sol\":6119:6120  0 */\n      0x00\n        /* \"@openzeppelin/contracts/utils/cryptography/ECDSA.sol\":6123:6153  RecoverError.InvalidSignatureS */\n      0x03\n        /* \"@openzeppelin/contracts/utils/cryptography/ECDSA.sol\":6103:6154  return (address(0), RecoverError.InvalidSignatureS) */\n      swap2\n      pop\n      swap2\n      pop\n      jump(tag_228)\n        /* \"@openzeppelin/contracts/utils/cryptography/ECDSA.sol\":6004:6165  if (uint256(s) > 0x7FFFFFFFFFFFFFFFFFFFFFFFFFFFFFFF5D576E7357A4501DDFE92F46681B20A0) {... */\n    tag_229:\n        /* \"@openzeppelin/contracts/utils/cryptography/ECDSA.sol\":6259:6273  address signer */\n      0x00\n        /* \"@openzeppelin/contracts/utils/cryptography/ECDSA.sol\":6276:6300  ecrecover(hash, v, r, s) */\n      0x01\n        /* \"@openzeppelin/contracts/utils/cryptography/ECDSA.sol\":6286:6290  hash */\n      dup8\n        /* \"@openzeppelin/contracts/utils/cryptography/ECDSA.sol\":6292:6293  v */\n      dup8\n        /* \"@openzeppelin/contracts/utils/cryptography/ECDSA.sol\":6295:6296  r */\n      dup8\n        /* \"@openzeppelin/contracts/utils/cryptography/ECDSA.sol\":6298:6299  s */\n      dup8\n        /* \"@openzeppelin/contracts/utils/cryptography/ECDSA.sol\":6276:6300  ecrecover(hash, v, r, s) */\n      mload(0x40)\n      0x00\n      dup2\n      mstore\n      0x20\n      add\n      0x40\n      mstore\n      mload(0x40)\n      tag_230\n      swap5\n      swap4\n      swap3\n      swap2\n      swap1\n      tag_231\n      jump\t// in\n    tag_230:\n      0x20\n      mload(0x40)\n      0x20\n      dup2\n      sub\n      swap1\n      dup1\n      dup5\n      sub\n      swap1\n      dup6\n      gas\n      staticcall\n      iszero\n      dup1\n      iszero\n      tag_233\n      jumpi\n      returndatasize\n      0x00\n      dup1\n      returndatacopy\n      revert(0x00, returndatasize)\n    tag_233:\n      pop\n      pop\n      pop\n      mload(sub(mload(0x40), 0x20))\n        /* \"@openzeppelin/contracts/utils/cryptography/ECDSA.sol\":6259:6300  address signer = ecrecover(hash, v, r, s) */\n      swap1\n      pop\n        /* \"@openzeppelin/contracts/utils/cryptography/ECDSA.sol\":6332:6333  0 */\n      0x00\n        /* \"@openzeppelin/contracts/utils/cryptography/ECDSA.sol\":6314:6334  signer == address(0) */\n      0xffffffffffffffffffffffffffffffffffffffff\n      and\n        /* \"@openzeppelin/contracts/utils/cryptography/ECDSA.sol\":6314:6320  signer */\n      dup2\n        /* \"@openzeppelin/contracts/utils/cryptography/ECDSA.sol\":6314:6334  signer == address(0) */\n      0xffffffffffffffffffffffffffffffffffffffff\n      and\n      sub\n        /* \"@openzeppelin/contracts/utils/cryptography/ECDSA.sol\":6310:6411  if (signer == address(0)) {... */\n      tag_234\n      jumpi\n        /* \"@openzeppelin/contracts/utils/cryptography/ECDSA.sol\":6366:6367  0 */\n      0x00\n        /* \"@openzeppelin/contracts/utils/cryptography/ECDSA.sol\":6370:6399  RecoverError.InvalidSignature */\n      0x01\n        /* \"@openzeppelin/contracts/utils/cryptography/ECDSA.sol\":6350:6400  return (address(0), RecoverError.InvalidSignature) */\n      swap3\n      pop\n      swap3\n      pop\n      pop\n      jump(tag_228)\n        /* \"@openzeppelin/contracts/utils/cryptography/ECDSA.sol\":6310:6411  if (signer == address(0)) {... */\n    tag_234:\n        /* \"@openzeppelin/contracts/utils/cryptography/ECDSA.sol\":6429:6435  signer */\n      dup1\n        /* \"@openzeppelin/contracts/utils/cryptography/ECDSA.sol\":6437:6457  RecoverError.NoError */\n      0x00\n        /* \"@openzeppelin/contracts/utils/cryptography/ECDSA.sol\":6421:6458  return (signer, RecoverError.NoError) */\n      swap3\n      pop\n      swap3\n      pop\n      pop\n        /* \"@openzeppelin/contracts/utils/cryptography/ECDSA.sol\":5009:6465  function tryRecover(bytes32 hash, uint8 v, bytes32 r, bytes32 s) internal pure returns (address, RecoverError) {... */\n    tag_228:\n      swap5\n      pop\n      swap5\n      swap3\n      pop\n      pop\n      pop\n      jump\t// out\n        /* \"@openzeppelin/contracts/utils/cryptography/ECDSA.sol\":570:1081  function _throwError(RecoverError error) private pure {... */\n    tag_215:\n        /* \"@openzeppelin/contracts/utils/cryptography/ECDSA.sol\":647:667  RecoverError.NoError */\n      0x00\n        /* \"@openzeppelin/contracts/utils/cryptography/ECDSA.sol\":638:667  error == RecoverError.NoError */\n      0x04\n      dup2\n      gt\n      iszero\n      tag_236\n      jumpi\n      tag_237\n      tag_238\n      jump\t// in\n    tag_237:\n    tag_236:\n        /* \"@openzeppelin/contracts/utils/cryptography/ECDSA.sol\":638:643  error */\n      dup2\n        /* \"@openzeppelin/contracts/utils/cryptography/ECDSA.sol\":638:667  error == RecoverError.NoError */\n      0x04\n      dup2\n      gt\n      iszero\n      tag_239\n      jumpi\n      tag_240\n      tag_238\n      jump\t// in\n    tag_240:\n    tag_239:\n      sub\n        /* \"@openzeppelin/contracts/utils/cryptography/ECDSA.sol\":634:1075  if (error == RecoverError.NoError) {... */\n      iszero\n        /* \"@openzeppelin/contracts/utils/cryptography/ECDSA.sol\":683:690  return; */\n      tag_235\n        /* \"@openzeppelin/contracts/utils/cryptography/ECDSA.sol\":634:1075  if (error == RecoverError.NoError) {... */\n      jumpi\n        /* \"@openzeppelin/contracts/utils/cryptography/ECDSA.sol\":743:772  RecoverError.InvalidSignature */\n      0x01\n        /* \"@openzeppelin/contracts/utils/cryptography/ECDSA.sol\":734:772  error == RecoverError.InvalidSignature */\n      0x04\n      dup2\n      gt\n      iszero\n      tag_243\n      jumpi\n      tag_244\n      tag_238\n      jump\t// in\n    tag_244:\n    tag_243:\n        /* \"@openzeppelin/contracts/utils/cryptography/ECDSA.sol\":734:739  error */\n      dup2\n        /* \"@openzeppelin/contracts/utils/cryptography/ECDSA.sol\":734:772  error == RecoverError.InvalidSignature */\n      0x04\n      dup2\n      gt\n      iszero\n      tag_245\n      jumpi\n      tag_246\n      tag_238\n      jump\t// in\n    tag_246:\n    tag_245:\n      sub\n        /* \"@openzeppelin/contracts/utils/cryptography/ECDSA.sol\":730:1075  if (error == RecoverError.InvalidSignature) {... */\n      tag_247\n      jumpi\n        /* \"@openzeppelin/contracts/utils/cryptography/ECDSA.sol\":788:822  revert(\"ECDSA: invalid signature\") */\n      mload(0x40)\n      0x08c379a000000000000000000000000000000000000000000000000000000000\n      dup2\n      mstore\n      0x04\n      add\n      tag_248\n      swap1\n      tag_249\n      jump\t// in\n    tag_248:\n      mload(0x40)\n      dup1\n      swap2\n      sub\n      swap1\n      revert\n        /* \"@openzeppelin/contracts/utils/cryptography/ECDSA.sol\":730:1075  if (error == RecoverError.InvalidSignature) {... */\n    tag_247:\n        /* \"@openzeppelin/contracts/utils/cryptography/ECDSA.sol\":852:887  RecoverError.InvalidSignatureLength */\n      0x02\n        /* \"@openzeppelin/contracts/utils/cryptography/ECDSA.sol\":843:887  error == RecoverError.InvalidSignatureLength */\n      0x04\n      dup2\n      gt\n      iszero\n      tag_251\n      jumpi\n      tag_252\n      tag_238\n      jump\t// in\n    tag_252:\n    tag_251:\n        /* \"@openzeppelin/contracts/utils/cryptography/ECDSA.sol\":843:848  error */\n      dup2\n        /* \"@openzeppelin/contracts/utils/cryptography/ECDSA.sol\":843:887  error == RecoverError.InvalidSignatureLength */\n      0x04\n      dup2\n      gt\n      iszero\n      tag_253\n      jumpi\n      tag_254\n      tag_238\n      jump\t// in\n    tag_254:\n    tag_253:\n      sub\n        /* \"@openzeppelin/contracts/utils/cryptography/ECDSA.sol\":839:1075  if (error == RecoverError.InvalidSignatureLength) {... */\n      tag_255\n      jumpi\n        /* \"@openzeppelin/contracts/utils/cryptography/ECDSA.sol\":903:944  revert(\"ECDSA: invalid signature length\") */\n      mload(0x40)\n      0x08c379a000000000000000000000000000000000000000000000000000000000\n      dup2\n      mstore\n      0x04\n      add\n      tag_256\n      swap1\n      tag_257\n      jump\t// in\n    tag_256:\n      mload(0x40)\n      dup1\n      swap2\n      sub\n      swap1\n      revert\n        /* \"@openzeppelin/contracts/utils/cryptography/ECDSA.sol\":839:1075  if (error == RecoverError.InvalidSignatureLength) {... */\n    tag_255:\n        /* \"@openzeppelin/contracts/utils/cryptography/ECDSA.sol\":974:1004  RecoverError.InvalidSignatureS */\n      0x03\n        /* \"@openzeppelin/contracts/utils/cryptography/ECDSA.sol\":965:1004  error == RecoverError.InvalidSignatureS */\n      0x04\n      dup2\n      gt\n      iszero\n      tag_259\n      jumpi\n      tag_260\n      tag_238\n      jump\t// in\n    tag_260:\n    tag_259:\n        /* \"@openzeppelin/contracts/utils/cryptography/ECDSA.sol\":965:970  error */\n      dup2\n        /* \"@openzeppelin/contracts/utils/cryptography/ECDSA.sol\":965:1004  error == RecoverError.InvalidSignatureS */\n      0x04\n      dup2\n      gt\n      iszero\n      tag_261\n      jumpi\n      tag_262\n      tag_238\n      jump\t// in\n    tag_262:\n    tag_261:\n      sub\n        /* \"@openzeppelin/contracts/utils/cryptography/ECDSA.sol\":961:1075  if (error == RecoverError.InvalidSignatureS) {... */\n      tag_263\n      jumpi\n        /* \"@openzeppelin/contracts/utils/cryptography/ECDSA.sol\":1020:1064  revert(\"ECDSA: invalid signature 's' value\") */\n      mload(0x40)\n      0x08c379a000000000000000000000000000000000000000000000000000000000\n      dup2\n      mstore\n      0x04\n      add\n      tag_264\n      swap1\n      tag_265\n      jump\t// in\n    tag_264:\n      mload(0x40)\n      dup1\n      swap2\n      sub\n      swap1\n      revert\n        /* \"@openzeppelin/contracts/utils/cryptography/ECDSA.sol\":961:1075  if (error == RecoverError.InvalidSignatureS) {... */\n    tag_263:\n        /* \"@openzeppelin/contracts/utils/cryptography/ECDSA.sol\":570:1081  function _throwError(RecoverError error) private pure {... */\n    tag_235:\n      pop\n      jump\t// out\n        /* \"@openzeppelin/contracts/utils/ShortStrings.sol\":2536:2781  function byteLength(ShortString sstr) internal pure returns (uint256) {... */\n    tag_223:\n        /* \"@openzeppelin/contracts/utils/ShortStrings.sol\":2597:2604  uint256 */\n      0x00\n        /* \"@openzeppelin/contracts/utils/ShortStrings.sol\":2616:2630  uint256 result */\n      dup1\n        /* \"@openzeppelin/contracts/utils/ShortStrings.sol\":2669:2673  0xFF */\n      0xff\n        /* \"@openzeppelin/contracts/utils/ShortStrings.sol\":2660:2664  sstr */\n      dup4\n        /* \"@openzeppelin/contracts/utils/ShortStrings.sol\":2633:2666  uint256(ShortString.unwrap(sstr)) */\n      0x00\n      shr\n        /* \"@openzeppelin/contracts/utils/ShortStrings.sol\":2633:2673  uint256(ShortString.unwrap(sstr)) & 0xFF */\n      and\n        /* \"@openzeppelin/contracts/utils/ShortStrings.sol\":2616:2673  uint256 result = uint256(ShortString.unwrap(sstr)) & 0xFF */\n      swap1\n      pop\n        /* \"@openzeppelin/contracts/utils/ShortStrings.sol\":2696:2698  31 */\n      0x1f\n        /* \"@openzeppelin/contracts/utils/ShortStrings.sol\":2687:2693  result */\n      dup2\n        /* \"@openzeppelin/contracts/utils/ShortStrings.sol\":2687:2698  result > 31 */\n      gt\n        /* \"@openzeppelin/contracts/utils/ShortStrings.sol\":2683:2752  if (result > 31) {... */\n      iszero\n      tag_267\n      jumpi\n        /* \"@openzeppelin/contracts/utils/ShortStrings.sol\":2721:2741  InvalidShortString() */\n      mload(0x40)\n      0xb3512b0c00000000000000000000000000000000000000000000000000000000\n      dup2\n      mstore\n      0x04\n      add\n      mload(0x40)\n      dup1\n      swap2\n      sub\n      swap1\n      revert\n        /* \"@openzeppelin/contracts/utils/ShortStrings.sol\":2683:2752  if (result > 31) {... */\n    tag_267:\n        /* \"@openzeppelin/contracts/utils/ShortStrings.sol\":2768:2774  result */\n      dup1\n        /* \"@openzeppelin/contracts/utils/ShortStrings.sol\":2761:2774  return result */\n      swap2\n      pop\n      pop\n        /* \"@openzeppelin/contracts/utils/ShortStrings.sol\":2536:2781  function byteLength(ShortString sstr) internal pure returns (uint256) {... */\n      swap2\n      swap1\n      pop\n      jump\t// out\n        /* \"#utility.yul\":7:106   */\n    tag_268:\n        /* \"#utility.yul\":59:65   */\n      0x00\n        /* \"#utility.yul\":93:98   */\n      dup2\n        /* \"#utility.yul\":87:99   */\n      mload\n        /* \"#utility.yul\":77:99   */\n      swap1\n      pop\n        /* \"#utility.yul\":7:106   */\n      swap2\n      swap1\n      pop\n      jump\t// out\n        /* \"#utility.yul\":112:281   */\n    tag_269:\n        /* \"#utility.yul\":196:207   */\n      0x00\n        /* \"#utility.yul\":230:236   */\n      dup3\n        /* \"#utility.yul\":225:228   */\n      dup3\n        /* \"#utility.yul\":218:237   */\n      mstore\n        /* \"#utility.yul\":270:274   */\n      0x20\n        /* \"#utility.yul\":265:268   */\n      dup3\n        /* \"#utility.yul\":261:275   */\n      add\n        /* \"#utility.yul\":246:275   */\n      swap1\n      pop\n        /* \"#utility.yul\":112:281   */\n      swap3\n      swap2\n      pop\n      pop\n      jump\t// out\n        /* \"#utility.yul\":287:533   */\n    tag_270:\n        /* \"#utility.yul\":368:369   */\n      0x00\n        /* \"#utility.yul\":378:491   */\n    tag_330:\n        /* \"#utility.yul\":392:398   */\n      dup4\n        /* \"#utility.yul\":389:390   */\n      dup2\n        /* \"#utility.yul\":386:399   */\n      lt\n        /* \"#utility.yul\":378:491   */\n      iszero\n      tag_332\n      jumpi\n        /* \"#utility.yul\":477:478   */\n      dup1\n        /* \"#utility.yul\":472:475   */\n      dup3\n        /* \"#utility.yul\":468:479   */\n      add\n        /* \"#utility.yul\":462:480   */\n      mload\n        /* \"#utility.yul\":458:459   */\n      dup2\n        /* \"#utility.yul\":453:456   */\n      dup5\n        /* \"#utility.yul\":449:460   */\n      add\n        /* \"#utility.yul\":442:481   */\n      mstore\n        /* \"#utility.yul\":414:416   */\n      0x20\n        /* \"#utility.yul\":411:412   */\n      dup2\n        /* \"#utility.yul\":407:417   */\n      add\n        /* \"#utility.yul\":402:417   */\n      swap1\n      pop\n        /* \"#utility.yul\":378:491   */\n      jump(tag_330)\n    tag_332:\n        /* \"#utility.yul\":525:526   */\n      0x00\n        /* \"#utility.yul\":516:522   */\n      dup5\n        /* \"#utility.yul\":511:514   */\n      dup5\n        /* \"#utility.yul\":507:523   */\n      add\n        /* \"#utility.yul\":500:527   */\n      mstore\n        /* \"#utility.yul\":349:533   */\n      pop\n        /* \"#utility.yul\":287:533   */\n      pop\n      pop\n      pop\n      jump\t// out\n        /* \"#utility.yul\":539:641   */\n    tag_271:\n        /* \"#utility.yul\":580:586   */\n      0x00\n        /* \"#utility.yul\":631:633   */\n      0x1f\n        /* \"#utility.yul\":627:634   */\n      not\n        /* \"#utility.yul\":622:624   */\n      0x1f\n        /* \"#utility.yul\":615:620   */\n      dup4\n        /* \"#utility.yul\":611:625   */\n      add\n        /* \"#utility.yul\":607:635   */\n      and\n        /* \"#utility.yul\":597:635   */\n      swap1\n      pop\n        /* \"#utility.yul\":539:641   */\n      swap2\n      swap1\n      pop\n      jump\t// out\n        /* \"#utility.yul\":647:1024   */\n    tag_272:\n        /* \"#utility.yul\":735:738   */\n      0x00\n        /* \"#utility.yul\":763:802   */\n      tag_335\n        /* \"#utility.yul\":796:801   */\n      dup3\n        /* \"#utility.yul\":763:802   */\n      tag_268\n      jump\t// in\n    tag_335:\n        /* \"#utility.yul\":818:889   */\n      tag_336\n        /* \"#utility.yul\":882:888   */\n      dup2\n        /* \"#utility.yul\":877:880   */\n      dup6\n        /* \"#utility.yul\":818:889   */\n      tag_269\n      jump\t// in\n    tag_336:\n        /* \"#utility.yul\":811:889   */\n      swap4\n      pop\n        /* \"#utility.yul\":898:963   */\n      tag_337\n        /* \"#utility.yul\":956:962   */\n      dup2\n        /* \"#utility.yul\":951:954   */\n      dup6\n        /* \"#utility.yul\":944:948   */\n      0x20\n        /* \"#utility.yul\":937:942   */\n      dup7\n        /* \"#utility.yul\":933:949   */\n      add\n        /* \"#utility.yul\":898:963   */\n      tag_270\n      jump\t// in\n    tag_337:\n        /* \"#utility.yul\":988:1017   */\n      tag_338\n        /* \"#utility.yul\":1010:1016   */\n      dup2\n        /* \"#utility.yul\":988:1017   */\n      tag_271\n      jump\t// in\n    tag_338:\n        /* \"#utility.yul\":983:986   */\n      dup5\n        /* \"#utility.yul\":979:1018   */\n      add\n        /* \"#utility.yul\":972:1018   */\n      swap2\n      pop\n        /* \"#utility.yul\":739:1024   */\n      pop\n        /* \"#utility.yul\":647:1024   */\n      swap3\n      swap2\n      pop\n      pop\n      jump\t// out\n        /* \"#utility.yul\":1030:1343   */\n    tag_24:\n        /* \"#utility.yul\":1143:1147   */\n      0x00\n        /* \"#utility.yul\":1181:1183   */\n      0x20\n        /* \"#utility.yul\":1170:1179   */\n      dup3\n        /* \"#utility.yul\":1166:1184   */\n      add\n        /* \"#utility.yul\":1158:1184   */\n      swap1\n      pop\n        /* \"#utility.yul\":1230:1239   */\n      dup2\n        /* \"#utility.yul\":1224:1228   */\n      dup2\n        /* \"#utility.yul\":1220:1240   */\n      sub\n        /* \"#utility.yul\":1216:1217   */\n      0x00\n        /* \"#utility.yul\":1205:1214   */\n      dup4\n        /* \"#utility.yul\":1201:1218   */\n      add\n        /* \"#utility.yul\":1194:1241   */\n      mstore\n        /* \"#utility.yul\":1258:1336   */\n      tag_340\n        /* \"#utility.yul\":1331:1335   */\n      dup2\n        /* \"#utility.yul\":1322:1328   */\n      dup5\n        /* \"#utility.yul\":1258:1336   */\n      tag_272\n      jump\t// in\n    tag_340:\n        /* \"#utility.yul\":1250:1336   */\n      swap1\n      pop\n        /* \"#utility.yul\":1030:1343   */\n      swap3\n      swap2\n      pop\n      pop\n      jump\t// out\n        /* \"#utility.yul\":1430:1547   */\n    tag_274:\n        /* \"#utility.yul\":1539:1540   */\n      0x00\n        /* \"#utility.yul\":1536:1537   */\n      dup1\n        /* \"#utility.yul\":1529:1541   */\n      revert\n        /* \"#utility.yul\":1676:1802   */\n    tag_276:\n        /* \"#utility.yul\":1713:1720   */\n      0x00\n        /* \"#utility.yul\":1753:1795   */\n      0xffffffffffffffffffffffffffffffffffffffff\n        /* \"#utility.yul\":1746:1751   */\n      dup3\n        /* \"#utility.yul\":1742:1796   */\n      and\n        /* \"#utility.yul\":1731:1796   */\n      swap1\n      pop\n        /* \"#utility.yul\":1676:1802   */\n      swap2\n      swap1\n      pop\n      jump\t// out\n        /* \"#utility.yul\":1808:1904   */\n    tag_277:\n        /* \"#utility.yul\":1845:1852   */\n      0x00\n        /* \"#utility.yul\":1874:1898   */\n      tag_346\n        /* \"#utility.yul\":1892:1897   */\n      dup3\n        /* \"#utility.yul\":1874:1898   */\n      tag_276\n      jump\t// in\n    tag_346:\n        /* \"#utility.yul\":1863:1898   */\n      swap1\n      pop\n        /* \"#utility.yul\":1808:1904   */\n      swap2\n      swap1\n      pop\n      jump\t// out\n        /* \"#utility.yul\":1910:2032   */\n    tag_278:\n        /* \"#utility.yul\":1983:2007   */\n      tag_348\n        /* \"#utility.yul\":2001:2006   */\n      dup2\n        /* \"#utility.yul\":1983:2007   */\n      tag_277\n      jump\t// in\n    tag_348:\n        /* \"#utility.yul\":1976:1981   */\n      dup2\n        /* \"#utility.yul\":1973:2008   */\n      eq\n        /* \"#utility.yul\":1963:2026   */\n      tag_349\n      jumpi\n        /* \"#utility.yul\":2022:2023   */\n      0x00\n        /* \"#utility.yul\":2019:2020   */\n      dup1\n        /* \"#utility.yul\":2012:2024   */\n      revert\n        /* \"#utility.yul\":1963:2026   */\n    tag_349:\n        /* \"#utility.yul\":1910:2032   */\n      pop\n      jump\t// out\n        /* \"#utility.yul\":2038:2177   */\n    tag_279:\n        /* \"#utility.yul\":2084:2089   */\n      0x00\n        /* \"#utility.yul\":2122:2128   */\n      dup2\n        /* \"#utility.yul\":2109:2129   */\n      calldataload\n        /* \"#utility.yul\":2100:2129   */\n      swap1\n      pop\n        /* \"#utility.yul\":2138:2171   */\n      tag_351\n        /* \"#utility.yul\":2165:2170   */\n      dup2\n        /* \"#utility.yul\":2138:2171   */\n      tag_278\n      jump\t// in\n    tag_351:\n        /* \"#utility.yul\":2038:2177   */\n      swap3\n      swap2\n      pop\n      pop\n      jump\t// out\n        /* \"#utility.yul\":2183:2260   */\n    tag_280:\n        /* \"#utility.yul\":2220:2227   */\n      0x00\n        /* \"#utility.yul\":2249:2254   */\n      dup2\n        /* \"#utility.yul\":2238:2254   */\n      swap1\n      pop\n        /* \"#utility.yul\":2183:2260   */\n      swap2\n      swap1\n      pop\n      jump\t// out\n        /* \"#utility.yul\":2266:2388   */\n    tag_281:\n        /* \"#utility.yul\":2339:2363   */\n      tag_354\n        /* \"#utility.yul\":2357:2362   */\n      dup2\n        /* \"#utility.yul\":2339:2363   */\n      tag_280\n      jump\t// in\n    tag_354:\n        /* \"#utility.yul\":2332:2337   */\n      dup2\n        /* \"#utility.yul\":2329:2364   */\n      eq\n        /* \"#utility.yul\":2319:2382   */\n      tag_355\n      jumpi\n        /* \"#utility.yul\":2378:2379   */\n      0x00\n        /* \"#utility.yul\":2375:2376   */\n      dup1\n        /* \"#utility.yul\":2368:2380   */\n      revert\n        /* \"#utility.yul\":2319:2382   */\n    tag_355:\n        /* \"#utility.yul\":2266:2388   */\n      pop\n      jump\t// out\n        /* \"#utility.yul\":2394:2533   */\n    tag_282:\n        /* \"#utility.yul\":2440:2445   */\n      0x00\n        /* \"#utility.yul\":2478:2484   */\n      dup2\n        /* \"#utility.yul\":2465:2485   */\n      calldataload\n        /* \"#utility.yul\":2456:2485   */\n      swap1\n      pop\n        /* \"#utility.yul\":2494:2527   */\n      tag_357\n        /* \"#utility.yul\":2521:2526   */\n      dup2\n        /* \"#utility.yul\":2494:2527   */\n      tag_281\n      jump\t// in\n    tag_357:\n        /* \"#utility.yul\":2394:2533   */\n      swap3\n      swap2\n      pop\n      pop\n      jump\t// out\n        /* \"#utility.yul\":2539:3013   */\n    tag_27:\n        /* \"#utility.yul\":2607:2613   */\n      0x00\n        /* \"#utility.yul\":2615:2621   */\n      dup1\n        /* \"#utility.yul\":2664:2666   */\n      0x40\n        /* \"#utility.yul\":2652:2661   */\n      dup4\n        /* \"#utility.yul\":2643:2650   */\n      dup6\n        /* \"#utility.yul\":2639:2662   */\n      sub\n        /* \"#utility.yul\":2635:2667   */\n      slt\n        /* \"#utility.yul\":2632:2751   */\n      iszero\n      tag_359\n      jumpi\n        /* \"#utility.yul\":2670:2749   */\n      tag_360\n      tag_274\n      jump\t// in\n    tag_360:\n        /* \"#utility.yul\":2632:2751   */\n    tag_359:\n        /* \"#utility.yul\":2790:2791   */\n      0x00\n        /* \"#utility.yul\":2815:2868   */\n      tag_361\n        /* \"#utility.yul\":2860:2867   */\n      dup6\n        /* \"#utility.yul\":2851:2857   */\n      dup3\n        /* \"#utility.yul\":2840:2849   */\n      dup7\n        /* \"#utility.yul\":2836:2858   */\n      add\n        /* \"#utility.yul\":2815:2868   */\n      tag_279\n      jump\t// in\n    tag_361:\n        /* \"#utility.yul\":2805:2868   */\n      swap3\n      pop\n        /* \"#utility.yul\":2761:2878   */\n      pop\n        /* \"#utility.yul\":2917:2919   */\n      0x20\n        /* \"#utility.yul\":2943:2996   */\n      tag_362\n        /* \"#utility.yul\":2988:2995   */\n      dup6\n        /* \"#utility.yul\":2979:2985   */\n      dup3\n        /* \"#utility.yul\":2968:2977   */\n      dup7\n        /* \"#utility.yul\":2964:2986   */\n      add\n        /* \"#utility.yul\":2943:2996   */\n      tag_282\n      jump\t// in\n    tag_362:\n        /* \"#utility.yul\":2933:2996   */\n      swap2\n      pop\n        /* \"#utility.yul\":2888:3006   */\n      pop\n        /* \"#utility.yul\":2539:3013   */\n      swap3\n      pop\n      swap3\n      swap1\n      pop\n      jump\t// out\n        /* \"#utility.yul\":3019:3109   */\n    tag_283:\n        /* \"#utility.yul\":3053:3060   */\n      0x00\n        /* \"#utility.yul\":3096:3101   */\n      dup2\n        /* \"#utility.yul\":3089:3102   */\n      iszero\n        /* \"#utility.yul\":3082:3103   */\n      iszero\n        /* \"#utility.yul\":3071:3103   */\n      swap1\n      pop\n        /* \"#utility.yul\":3019:3109   */\n      swap2\n      swap1\n      pop\n      jump\t// out\n        /* \"#utility.yul\":3115:3224   */\n    tag_284:\n        /* \"#utility.yul\":3196:3217   */\n      tag_365\n        /* \"#utility.yul\":3211:3216   */\n      dup2\n        /* \"#utility.yul\":3196:3217   */\n      tag_283\n      jump\t// in\n    tag_365:\n        /* \"#utility.yul\":3191:3194   */\n      dup3\n        /* \"#utility.yul\":3184:3218   */\n      mstore\n        /* \"#utility.yul\":3115:3224   */\n      pop\n      pop\n      jump\t// out\n        /* \"#utility.yul\":3230:3440   */\n    tag_30:\n        /* \"#utility.yul\":3317:3321   */\n      0x00\n        /* \"#utility.yul\":3355:3357   */\n      0x20\n        /* \"#utility.yul\":3344:3353   */\n      dup3\n        /* \"#utility.yul\":3340:3358   */\n      add\n        /* \"#utility.yul\":3332:3358   */\n      swap1\n      pop\n        /* \"#utility.yul\":3368:3433   */\n      tag_367\n        /* \"#utility.yul\":3430:3431   */\n      0x00\n        /* \"#utility.yul\":3419:3428   */\n      dup4\n        /* \"#utility.yul\":3415:3432   */\n      add\n        /* \"#utility.yul\":3406:3412   */\n      dup5\n        /* \"#utility.yul\":3368:3433   */\n      tag_284\n      jump\t// in\n    tag_367:\n        /* \"#utility.yul\":3230:3440   */\n      swap3\n      swap2\n      pop\n      pop\n      jump\t// out\n        /* \"#utility.yul\":3446:3564   */\n    tag_285:\n        /* \"#utility.yul\":3533:3557   */\n      tag_369\n        /* \"#utility.yul\":3551:3556   */\n      dup2\n        /* \"#utility.yul\":3533:3557   */\n      tag_280\n      jump\t// in\n    tag_369:\n        /* \"#utility.yul\":3528:3531   */\n      dup3\n        /* \"#utility.yul\":3521:3558   */\n      mstore\n        /* \"#utility.yul\":3446:3564   */\n      pop\n      pop\n      jump\t// out\n        /* \"#utility.yul\":3570:3792   */\n    tag_34:\n        /* \"#utility.yul\":3663:3667   */\n      0x00\n        /* \"#utility.yul\":3701:3703   */\n      0x20\n        /* \"#utility.yul\":3690:3699   */\n      dup3\n        /* \"#utility.yul\":3686:3704   */\n      add\n        /* \"#utility.yul\":3678:3704   */\n      swap1\n      pop\n        /* \"#utility.yul\":3714:3785   */\n      tag_371\n        /* \"#utility.yul\":3782:3783   */\n      0x00\n        /* \"#utility.yul\":3771:3780   */\n      dup4\n        /* \"#utility.yul\":3767:3784   */\n      add\n        /* \"#utility.yul\":3758:3764   */\n      dup5\n        /* \"#utility.yul\":3714:3785   */\n      tag_285\n      jump\t// in\n    tag_371:\n        /* \"#utility.yul\":3570:3792   */\n      swap3\n      swap2\n      pop\n      pop\n      jump\t// out\n        /* \"#utility.yul\":3798:4417   */\n    tag_37:\n        /* \"#utility.yul\":3875:3881   */\n      0x00\n        /* \"#utility.yul\":3883:3889   */\n      dup1\n        /* \"#utility.yul\":3891:3897   */\n      0x00\n        /* \"#utility.yul\":3940:3942   */\n      0x60\n        /* \"#utility.yul\":3928:3937   */\n      dup5\n        /* \"#utility.yul\":3919:3926   */\n      dup7\n        /* \"#utility.yul\":3915:3938   */\n      sub\n        /* \"#utility.yul\":3911:3943   */\n      slt\n        /* \"#utility.yul\":3908:4027   */\n      iszero\n      tag_373\n      jumpi\n        /* \"#utility.yul\":3946:4025   */\n      tag_374\n      tag_274\n      jump\t// in\n    tag_374:\n        /* \"#utility.yul\":3908:4027   */\n    tag_373:\n        /* \"#utility.yul\":4066:4067   */\n      0x00\n        /* \"#utility.yul\":4091:4144   */\n      tag_375\n        /* \"#utility.yul\":4136:4143   */\n      dup7\n        /* \"#utility.yul\":4127:4133   */\n      dup3\n        /* \"#utility.yul\":4116:4125   */\n      dup8\n        /* \"#utility.yul\":4112:4134   */\n      add\n        /* \"#utility.yul\":4091:4144   */\n      tag_279\n      jump\t// in\n    tag_375:\n        /* \"#utility.yul\":4081:4144   */\n      swap4\n      pop\n        /* \"#utility.yul\":4037:4154   */\n      pop\n        /* \"#utility.yul\":4193:4195   */\n      0x20\n        /* \"#utility.yul\":4219:4272   */\n      tag_376\n        /* \"#utility.yul\":4264:4271   */\n      dup7\n        /* \"#utility.yul\":4255:4261   */\n      dup3\n        /* \"#utility.yul\":4244:4253   */\n      dup8\n        /* \"#utility.yul\":4240:4262   */\n      add\n        /* \"#utility.yul\":4219:4272   */\n      tag_279\n      jump\t// in\n    tag_376:\n        /* \"#utility.yul\":4209:4272   */\n      swap3\n      pop\n        /* \"#utility.yul\":4164:4282   */\n      pop\n        /* \"#utility.yul\":4321:4323   */\n      0x40\n        /* \"#utility.yul\":4347:4400   */\n      tag_377\n        /* \"#utility.yul\":4392:4399   */\n      dup7\n        /* \"#utility.yul\":4383:4389   */\n      dup3\n        /* \"#utility.yul\":4372:4381   */\n      dup8\n        /* \"#utility.yul\":4368:4390   */\n      add\n        /* \"#utility.yul\":4347:4400   */\n      tag_282\n      jump\t// in\n    tag_377:\n        /* \"#utility.yul\":4337:4400   */\n      swap2\n      pop\n        /* \"#utility.yul\":4292:4410   */\n      pop\n        /* \"#utility.yul\":3798:4417   */\n      swap3\n      pop\n      swap3\n      pop\n      swap3\n      jump\t// out\n        /* \"#utility.yul\":4423:4509   */\n    tag_286:\n        /* \"#utility.yul\":4458:4465   */\n      0x00\n        /* \"#utility.yul\":4498:4502   */\n      0xff\n        /* \"#utility.yul\":4491:4496   */\n      dup3\n        /* \"#utility.yul\":4487:4503   */\n      and\n        /* \"#utility.yul\":4476:4503   */\n      swap1\n      pop\n        /* \"#utility.yul\":4423:4509   */\n      swap2\n      swap1\n      pop\n      jump\t// out\n        /* \"#utility.yul\":4515:4627   */\n    tag_287:\n        /* \"#utility.yul\":4598:4620   */\n      tag_380\n        /* \"#utility.yul\":4614:4619   */\n      dup2\n        /* \"#utility.yul\":4598:4620   */\n      tag_286\n      jump\t// in\n    tag_380:\n        /* \"#utility.yul\":4593:4596   */\n      dup3\n        /* \"#utility.yul\":4586:4621   */\n      mstore\n        /* \"#utility.yul\":4515:4627   */\n      pop\n      pop\n      jump\t// out\n        /* \"#utility.yul\":4633:4847   */\n    tag_43:\n        /* \"#utility.yul\":4722:4726   */\n      0x00\n        /* \"#utility.yul\":4760:4762   */\n      0x20\n        /* \"#utility.yul\":4749:4758   */\n      dup3\n        /* \"#utility.yul\":4745:4763   */\n      add\n        /* \"#utility.yul\":4737:4763   */\n      swap1\n      pop\n        /* \"#utility.yul\":4773:4840   */\n      tag_382\n        /* \"#utility.yul\":4837:4838   */\n      0x00\n        /* \"#utility.yul\":4826:4835   */\n      dup4\n        /* \"#utility.yul\":4822:4839   */\n      add\n        /* \"#utility.yul\":4813:4819   */\n      dup5\n        /* \"#utility.yul\":4773:4840   */\n      tag_287\n      jump\t// in\n    tag_382:\n        /* \"#utility.yul\":4633:4847   */\n      swap3\n      swap2\n      pop\n      pop\n      jump\t// out\n        /* \"#utility.yul\":4853:4930   */\n    tag_288:\n        /* \"#utility.yul\":4890:4897   */\n      0x00\n        /* \"#utility.yul\":4919:4924   */\n      dup2\n        /* \"#utility.yul\":4908:4924   */\n      swap1\n      pop\n        /* \"#utility.yul\":4853:4930   */\n      swap2\n      swap1\n      pop\n      jump\t// out\n        /* \"#utility.yul\":4936:5054   */\n    tag_289:\n        /* \"#utility.yul\":5023:5047   */\n      tag_385\n        /* \"#utility.yul\":5041:5046   */\n      dup2\n        /* \"#utility.yul\":5023:5047   */\n      tag_288\n      jump\t// in\n    tag_385:\n        /* \"#utility.yul\":5018:5021   */\n      dup3\n        /* \"#utility.yul\":5011:5048   */\n      mstore\n        /* \"#utility.yul\":4936:5054   */\n      pop\n      pop\n      jump\t// out\n        /* \"#utility.yul\":5060:5282   */\n    tag_47:\n        /* \"#utility.yul\":5153:5157   */\n      0x00\n        /* \"#utility.yul\":5191:5193   */\n      0x20\n        /* \"#utility.yul\":5180:5189   */\n      dup3\n        /* \"#utility.yul\":5176:5194   */\n      add\n        /* \"#utility.yul\":5168:5194   */\n      swap1\n      pop\n        /* \"#utility.yul\":5204:5275   */\n      tag_387\n        /* \"#utility.yul\":5272:5273   */\n      0x00\n        /* \"#utility.yul\":5261:5270   */\n      dup4\n        /* \"#utility.yul\":5257:5274   */\n      add\n        /* \"#utility.yul\":5248:5254   */\n      dup5\n        /* \"#utility.yul\":5204:5275   */\n      tag_289\n      jump\t// in\n    tag_387:\n        /* \"#utility.yul\":5060:5282   */\n      swap3\n      swap2\n      pop\n      pop\n      jump\t// out\n        /* \"#utility.yul\":5288:5617   */\n    tag_54:\n        /* \"#utility.yul\":5347:5353   */\n      0x00\n        /* \"#utility.yul\":5396:5398   */\n      0x20\n        /* \"#utility.yul\":5384:5393   */\n      dup3\n        /* \"#utility.yul\":5375:5382   */\n      dup5\n        /* \"#utility.yul\":5371:5394   */\n      sub\n        /* \"#utility.yul\":5367:5399   */\n      slt\n        /* \"#utility.yul\":5364:5483   */\n      iszero\n      tag_389\n      jumpi\n        /* \"#utility.yul\":5402:5481   */\n      tag_390\n      tag_274\n      jump\t// in\n    tag_390:\n        /* \"#utility.yul\":5364:5483   */\n    tag_389:\n        /* \"#utility.yul\":5522:5523   */\n      0x00\n        /* \"#utility.yul\":5547:5600   */\n      tag_391\n        /* \"#utility.yul\":5592:5599   */\n      dup5\n        /* \"#utility.yul\":5583:5589   */\n      dup3\n        /* \"#utility.yul\":5572:5581   */\n      dup6\n        /* \"#utility.yul\":5568:5590   */\n      add\n        /* \"#utility.yul\":5547:5600   */\n      tag_279\n      jump\t// in\n    tag_391:\n        /* \"#utility.yul\":5537:5600   */\n      swap2\n      pop\n        /* \"#utility.yul\":5493:5610   */\n      pop\n        /* \"#utility.yul\":5288:5617   */\n      swap3\n      swap2\n      pop\n      pop\n      jump\t// out\n        /* \"#utility.yul\":5623:5772   */\n    tag_290:\n        /* \"#utility.yul\":5659:5666   */\n      0x00\n        /* \"#utility.yul\":5699:5765   */\n      0xff00000000000000000000000000000000000000000000000000000000000000\n        /* \"#utility.yul\":5692:5697   */\n      dup3\n        /* \"#utility.yul\":5688:5766   */\n      and\n        /* \"#utility.yul\":5677:5766   */\n      swap1\n      pop\n        /* \"#utility.yul\":5623:5772   */\n      swap2\n      swap1\n      pop\n      jump\t// out\n        /* \"#utility.yul\":5778:5893   */\n    tag_291:\n        /* \"#utility.yul\":5863:5886   */\n      tag_394\n        /* \"#utility.yul\":5880:5885   */\n      dup2\n        /* \"#utility.yul\":5863:5886   */\n      tag_290\n      jump\t// in\n    tag_394:\n        /* \"#utility.yul\":5858:5861   */\n      dup3\n        /* \"#utility.yul\":5851:5887   */\n      mstore\n        /* \"#utility.yul\":5778:5893   */\n      pop\n      pop\n      jump\t// out\n        /* \"#utility.yul\":5899:6017   */\n    tag_292:\n        /* \"#utility.yul\":5986:6010   */\n      tag_396\n        /* \"#utility.yul\":6004:6009   */\n      dup2\n        /* \"#utility.yul\":5986:6010   */\n      tag_277\n      jump\t// in\n    tag_396:\n        /* \"#utility.yul\":5981:5984   */\n      dup3\n        /* \"#utility.yul\":5974:6011   */\n      mstore\n        /* \"#utility.yul\":5899:6017   */\n      pop\n      pop\n      jump\t// out\n        /* \"#utility.yul\":6023:6137   */\n    tag_293:\n        /* \"#utility.yul\":6090:6096   */\n      0x00\n        /* \"#utility.yul\":6124:6129   */\n      dup2\n        /* \"#utility.yul\":6118:6130   */\n      mload\n        /* \"#utility.yul\":6108:6130   */\n      swap1\n      pop\n        /* \"#utility.yul\":6023:6137   */\n      swap2\n      swap1\n      pop\n      jump\t// out\n        /* \"#utility.yul\":6143:6327   */\n    tag_294:\n        /* \"#utility.yul\":6242:6253   */\n      0x00\n        /* \"#utility.yul\":6276:6282   */\n      dup3\n        /* \"#utility.yul\":6271:6274   */\n      dup3\n        /* \"#utility.yul\":6264:6283   */\n      mstore\n        /* \"#utility.yul\":6316:6320   */\n      0x20\n        /* \"#utility.yul\":6311:6314   */\n      dup3\n        /* \"#utility.yul\":6307:6321   */\n      add\n        /* \"#utility.yul\":6292:6321   */\n      swap1\n      pop\n        /* \"#utility.yul\":6143:6327   */\n      swap3\n      swap2\n      pop\n      pop\n      jump\t// out\n        /* \"#utility.yul\":6333:6465   */\n    tag_295:\n        /* \"#utility.yul\":6400:6404   */\n      0x00\n        /* \"#utility.yul\":6423:6426   */\n      dup2\n        /* \"#utility.yul\":6415:6426   */\n      swap1\n      pop\n        /* \"#utility.yul\":6453:6457   */\n      0x20\n        /* \"#utility.yul\":6448:6451   */\n      dup3\n        /* \"#utility.yul\":6444:6458   */\n      add\n        /* \"#utility.yul\":6436:6458   */\n      swap1\n      pop\n        /* \"#utility.yul\":6333:6465   */\n      swap2\n      swap1\n      pop\n      jump\t// out\n        /* \"#utility.yul\":6471:6579   */\n    tag_296:\n        /* \"#utility.yul\":6548:6572   */\n      tag_401\n        /* \"#utility.yul\":6566:6571   */\n      dup2\n        /* \"#utility.yul\":6548:6572   */\n      tag_280\n      jump\t// in\n    tag_401:\n        /* \"#utility.yul\":6543:6546   */\n      dup3\n        /* \"#utility.yul\":6536:6573   */\n      mstore\n        /* \"#utility.yul\":6471:6579   */\n      pop\n      pop\n      jump\t// out\n        /* \"#utility.yul\":6585:6764   */\n    tag_297:\n        /* \"#utility.yul\":6654:6664   */\n      0x00\n        /* \"#utility.yul\":6675:6721   */\n      tag_403\n        /* \"#utility.yul\":6717:6720   */\n      dup4\n        /* \"#utility.yul\":6709:6715   */\n      dup4\n        /* \"#utility.yul\":6675:6721   */\n      tag_296\n      jump\t// in\n    tag_403:\n        /* \"#utility.yul\":6753:6757   */\n      0x20\n        /* \"#utility.yul\":6748:6751   */\n      dup4\n        /* \"#utility.yul\":6744:6758   */\n      add\n        /* \"#utility.yul\":6730:6758   */\n      swap1\n      pop\n        /* \"#utility.yul\":6585:6764   */\n      swap3\n      swap2\n      pop\n      pop\n      jump\t// out\n        /* \"#utility.yul\":6770:6883   */\n    tag_298:\n        /* \"#utility.yul\":6840:6844   */\n      0x00\n        /* \"#utility.yul\":6872:6876   */\n      0x20\n        /* \"#utility.yul\":6867:6870   */\n      dup3\n        /* \"#utility.yul\":6863:6877   */\n      add\n        /* \"#utility.yul\":6855:6877   */\n      swap1\n      pop\n        /* \"#utility.yul\":6770:6883   */\n      swap2\n      swap1\n      pop\n      jump\t// out\n        /* \"#utility.yul\":6919:7651   */\n    tag_299:\n        /* \"#utility.yul\":7038:7041   */\n      0x00\n        /* \"#utility.yul\":7067:7121   */\n      tag_406\n        /* \"#utility.yul\":7115:7120   */\n      dup3\n        /* \"#utility.yul\":7067:7121   */\n      tag_293\n      jump\t// in\n    tag_406:\n        /* \"#utility.yul\":7137:7223   */\n      tag_407\n        /* \"#utility.yul\":7216:7222   */\n      dup2\n        /* \"#utility.yul\":7211:7214   */\n      dup6\n        /* \"#utility.yul\":7137:7223   */\n      tag_294\n      jump\t// in\n    tag_407:\n        /* \"#utility.yul\":7130:7223   */\n      swap4\n      pop\n        /* \"#utility.yul\":7247:7303   */\n      tag_408\n        /* \"#utility.yul\":7297:7302   */\n      dup4\n        /* \"#utility.yul\":7247:7303   */\n      tag_295\n      jump\t// in\n    tag_408:\n        /* \"#utility.yul\":7326:7333   */\n      dup1\n        /* \"#utility.yul\":7357:7358   */\n      0x00\n        /* \"#utility.yul\":7342:7626   */\n    tag_409:\n        /* \"#utility.yul\":7367:7373   */\n      dup4\n        /* \"#utility.yul\":7364:7365   */\n      dup2\n        /* \"#utility.yul\":7361:7374   */\n      lt\n        /* \"#utility.yul\":7342:7626   */\n      iszero\n      tag_411\n      jumpi\n        /* \"#utility.yul\":7443:7449   */\n      dup2\n        /* \"#utility.yul\":7437:7450   */\n      mload\n        /* \"#utility.yul\":7470:7533   */\n      tag_412\n        /* \"#utility.yul\":7529:7532   */\n      dup9\n        /* \"#utility.yul\":7514:7527   */\n      dup3\n        /* \"#utility.yul\":7470:7533   */\n      tag_297\n      jump\t// in\n    tag_412:\n        /* \"#utility.yul\":7463:7533   */\n      swap8\n      pop\n        /* \"#utility.yul\":7556:7616   */\n      tag_413\n        /* \"#utility.yul\":7609:7615   */\n      dup4\n        /* \"#utility.yul\":7556:7616   */\n      tag_298\n      jump\t// in\n    tag_413:\n        /* \"#utility.yul\":7546:7616   */\n      swap3\n      pop\n        /* \"#utility.yul\":7402:7626   */\n      pop\n        /* \"#utility.yul\":7389:7390   */\n      0x01\n        /* \"#utility.yul\":7386:7387   */\n      dup2\n        /* \"#utility.yul\":7382:7391   */\n      add\n        /* \"#utility.yul\":7377:7391   */\n      swap1\n      pop\n        /* \"#utility.yul\":7342:7626   */\n      jump(tag_409)\n    tag_411:\n        /* \"#utility.yul\":7346:7360   */\n      pop\n        /* \"#utility.yul\":7642:7645   */\n      dup6\n        /* \"#utility.yul\":7635:7645   */\n      swap4\n      pop\n        /* \"#utility.yul\":7043:7651   */\n      pop\n      pop\n      pop\n        /* \"#utility.yul\":6919:7651   */\n      swap3\n      swap2\n      pop\n      pop\n      jump\t// out\n        /* \"#utility.yul\":7657:8872   */\n    tag_64:\n        /* \"#utility.yul\":8006:8010   */\n      0x00\n        /* \"#utility.yul\":8044:8047   */\n      0xe0\n        /* \"#utility.yul\":8033:8042   */\n      dup3\n        /* \"#utility.yul\":8029:8048   */\n      add\n        /* \"#utility.yul\":8021:8048   */\n      swap1\n      pop\n        /* \"#utility.yul\":8058:8127   */\n      tag_415\n        /* \"#utility.yul\":8124:8125   */\n      0x00\n        /* \"#utility.yul\":8113:8122   */\n      dup4\n        /* \"#utility.yul\":8109:8126   */\n      add\n        /* \"#utility.yul\":8100:8106   */\n      dup11\n        /* \"#utility.yul\":8058:8127   */\n      tag_291\n      jump\t// in\n    tag_415:\n        /* \"#utility.yul\":8174:8183   */\n      dup2\n        /* \"#utility.yul\":8168:8172   */\n      dup2\n        /* \"#utility.yul\":8164:8184   */\n      sub\n        /* \"#utility.yul\":8159:8161   */\n      0x20\n        /* \"#utility.yul\":8148:8157   */\n      dup4\n        /* \"#utility.yul\":8144:8162   */\n      add\n        /* \"#utility.yul\":8137:8185   */\n      mstore\n        /* \"#utility.yul\":8202:8280   */\n      tag_416\n        /* \"#utility.yul\":8275:8279   */\n      dup2\n        /* \"#utility.yul\":8266:8272   */\n      dup10\n        /* \"#utility.yul\":8202:8280   */\n      tag_272\n      jump\t// in\n    tag_416:\n        /* \"#utility.yul\":8194:8280   */\n      swap1\n      pop\n        /* \"#utility.yul\":8327:8336   */\n      dup2\n        /* \"#utility.yul\":8321:8325   */\n      dup2\n        /* \"#utility.yul\":8317:8337   */\n      sub\n        /* \"#utility.yul\":8312:8314   */\n      0x40\n        /* \"#utility.yul\":8301:8310   */\n      dup4\n        /* \"#utility.yul\":8297:8315   */\n      add\n        /* \"#utility.yul\":8290:8338   */\n      mstore\n        /* \"#utility.yul\":8355:8433   */\n      tag_417\n        /* \"#utility.yul\":8428:8432   */\n      dup2\n        /* \"#utility.yul\":8419:8425   */\n      dup9\n        /* \"#utility.yul\":8355:8433   */\n      tag_272\n      jump\t// in\n    tag_417:\n        /* \"#utility.yul\":8347:8433   */\n      swap1\n      pop\n        /* \"#utility.yul\":8443:8515   */\n      tag_418\n        /* \"#utility.yul\":8511:8513   */\n      0x60\n        /* \"#utility.yul\":8500:8509   */\n      dup4\n        /* \"#utility.yul\":8496:8514   */\n      add\n        /* \"#utility.yul\":8487:8493   */\n      dup8\n        /* \"#utility.yul\":8443:8515   */\n      tag_285\n      jump\t// in\n    tag_418:\n        /* \"#utility.yul\":8525:8598   */\n      tag_419\n        /* \"#utility.yul\":8593:8596   */\n      0x80\n        /* \"#utility.yul\":8582:8591   */\n      dup4\n        /* \"#utility.yul\":8578:8597   */\n      add\n        /* \"#utility.yul\":8569:8575   */\n      dup7\n        /* \"#utility.yul\":8525:8598   */\n      tag_292\n      jump\t// in\n    tag_419:\n        /* \"#utility.yul\":8608:8681   */\n      tag_420\n        /* \"#utility.yul\":8676:8679   */\n      0xa0\n        /* \"#utility.yul\":8665:8674   */\n      dup4\n        /* \"#utility.yul\":8661:8680   */\n      add\n        /* \"#utility.yul\":8652:8658   */\n      dup6\n        /* \"#utility.yul\":8608:8681   */\n      tag_289\n      jump\t// in\n    tag_420:\n        /* \"#utility.yul\":8729:8738   */\n      dup2\n        /* \"#utility.yul\":8723:8727   */\n      dup2\n        /* \"#utility.yul\":8719:8739   */\n      sub\n        /* \"#utility.yul\":8713:8716   */\n      0xc0\n        /* \"#utility.yul\":8702:8711   */\n      dup4\n        /* \"#utility.yul\":8698:8717   */\n      add\n        /* \"#utility.yul\":8691:8740   */\n      mstore\n        /* \"#utility.yul\":8757:8865   */\n      tag_421\n        /* \"#utility.yul\":8860:8864   */\n      dup2\n        /* \"#utility.yul\":8851:8857   */\n      dup5\n        /* \"#utility.yul\":8757:8865   */\n      tag_299\n      jump\t// in\n    tag_421:\n        /* \"#utility.yul\":8749:8865   */\n      swap1\n      pop\n        /* \"#utility.yul\":7657:8872   */\n      swap9\n      swap8\n      pop\n      pop\n      pop\n      pop\n      pop\n      pop\n      pop\n      pop\n      jump\t// out\n        /* \"#utility.yul\":8878:8996   */\n    tag_300:\n        /* \"#utility.yul\":8949:8971   */\n      tag_423\n        /* \"#utility.yul\":8965:8970   */\n      dup2\n        /* \"#utility.yul\":8949:8971   */\n      tag_286\n      jump\t// in\n    tag_423:\n        /* \"#utility.yul\":8942:8947   */\n      dup2\n        /* \"#utility.yul\":8939:8972   */\n      eq\n        /* \"#utility.yul\":8929:8990   */\n      tag_424\n      jumpi\n        /* \"#utility.yul\":8986:8987   */\n      0x00\n        /* \"#utility.yul\":8983:8984   */\n      dup1\n        /* \"#utility.yul\":8976:8988   */\n      revert\n        /* \"#utility.yul\":8929:8990   */\n    tag_424:\n        /* \"#utility.yul\":8878:8996   */\n      pop\n      jump\t// out\n        /* \"#utility.yul\":9002:9137   */\n    tag_301:\n        /* \"#utility.yul\":9046:9051   */\n      0x00\n        /* \"#utility.yul\":9084:9090   */\n      dup2\n        /* \"#utility.yul\":9071:9091   */\n      calldataload\n        /* \"#utility.yul\":9062:9091   */\n      swap1\n      pop\n        /* \"#utility.yul\":9100:9131   */\n      tag_426\n        /* \"#utility.yul\":9125:9130   */\n      dup2\n        /* \"#utility.yul\":9100:9131   */\n      tag_300\n      jump\t// in\n    tag_426:\n        /* \"#utility.yul\":9002:9137   */\n      swap3\n      swap2\n      pop\n      pop\n      jump\t// out\n        /* \"#utility.yul\":9143:9265   */\n    tag_302:\n        /* \"#utility.yul\":9216:9240   */\n      tag_428\n        /* \"#utility.yul\":9234:9239   */\n      dup2\n        /* \"#utility.yul\":9216:9240   */\n      tag_288\n      jump\t// in\n    tag_428:\n        /* \"#utility.yul\":9209:9214   */\n      dup2\n        /* \"#utility.yul\":9206:9241   */\n      eq\n        /* \"#utility.yul\":9196:9259   */\n      tag_429\n      jumpi\n        /* \"#utility.yul\":9255:9256   */\n      0x00\n        /* \"#utility.yul\":9252:9253   */\n      dup1\n        /* \"#utility.yul\":9245:9257   */\n      revert\n        /* \"#utility.yul\":9196:9259   */\n    tag_429:\n        /* \"#utility.yul\":9143:9265   */\n      pop\n      jump\t// out\n        /* \"#utility.yul\":9271:9410   */\n    tag_303:\n        /* \"#utility.yul\":9317:9322   */\n      0x00\n        /* \"#utility.yul\":9355:9361   */\n      dup2\n        /* \"#utility.yul\":9342:9362   */\n      calldataload\n        /* \"#utility.yul\":9333:9362   */\n      swap1\n      pop\n        /* \"#utility.yul\":9371:9404   */\n      tag_431\n        /* \"#utility.yul\":9398:9403   */\n      dup2\n        /* \"#utility.yul\":9371:9404   */\n      tag_302\n      jump\t// in\n    tag_431:\n        /* \"#utility.yul\":9271:9410   */\n      swap3\n      swap2\n      pop\n      pop\n      jump\t// out\n        /* \"#utility.yul\":9416:10615   */\n    tag_78:\n        /* \"#utility.yul\":9527:9533   */\n      0x00\n        /* \"#utility.yul\":9535:9541   */\n      dup1\n        /* \"#utility.yul\":9543:9549   */\n      0x00\n        /* \"#utility.yul\":9551:9557   */\n      dup1\n        /* \"#utility.yul\":9559:9565   */\n      0x00\n        /* \"#utility.yul\":9567:9573   */\n      dup1\n        /* \"#utility.yul\":9575:9581   */\n      0x00\n        /* \"#utility.yul\":9624:9627   */\n      0xe0\n        /* \"#utility.yul\":9612:9621   */\n      dup9\n        /* \"#utility.yul\":9603:9610   */\n      dup11\n        /* \"#utility.yul\":9599:9622   */\n      sub\n        /* \"#utility.yul\":9595:9628   */\n      slt\n        /* \"#utility.yul\":9592:9712   */\n      iszero\n      tag_433\n      jumpi\n        /* \"#utility.yul\":9631:9710   */\n      tag_434\n      tag_274\n      jump\t// in\n    tag_434:\n        /* \"#utility.yul\":9592:9712   */\n    tag_433:\n        /* \"#utility.yul\":9751:9752   */\n      0x00\n        /* \"#utility.yul\":9776:9829   */\n      tag_435\n        /* \"#utility.yul\":9821:9828   */\n      dup11\n        /* \"#utility.yul\":9812:9818   */\n      dup3\n        /* \"#utility.yul\":9801:9810   */\n      dup12\n        /* \"#utility.yul\":9797:9819   */\n      add\n        /* \"#utility.yul\":9776:9829   */\n      tag_279\n      jump\t// in\n    tag_435:\n        /* \"#utility.yul\":9766:9829   */\n      swap8\n      pop\n        /* \"#utility.yul\":9722:9839   */\n      pop\n        /* \"#utility.yul\":9878:9880   */\n      0x20\n        /* \"#utility.yul\":9904:9957   */\n      tag_436\n        /* \"#utility.yul\":9949:9956   */\n      dup11\n        /* \"#utility.yul\":9940:9946   */\n      dup3\n        /* \"#utility.yul\":9929:9938   */\n      dup12\n        /* \"#utility.yul\":9925:9947   */\n      add\n        /* \"#utility.yul\":9904:9957   */\n      tag_279\n      jump\t// in\n    tag_436:\n        /* \"#utility.yul\":9894:9957   */\n      swap7\n      pop\n        /* \"#utility.yul\":9849:9967   */\n      pop\n        /* \"#utility.yul\":10006:10008   */\n      0x40\n        /* \"#utility.yul\":10032:10085   */\n      tag_437\n        /* \"#utility.yul\":10077:10084   */\n      dup11\n        /* \"#utility.yul\":10068:10074   */\n      dup3\n        /* \"#utility.yul\":10057:10066   */\n      dup12\n        /* \"#utility.yul\":10053:10075   */\n      add\n        /* \"#utility.yul\":10032:10085   */\n      tag_282\n      jump\t// in\n    tag_437:\n        /* \"#utility.yul\":10022:10085   */\n      swap6\n      pop\n        /* \"#utility.yul\":9977:10095   */\n      pop\n        /* \"#utility.yul\":10134:10136   */\n      0x60\n        /* \"#utility.yul\":10160:10213   */\n      tag_438\n        /* \"#utility.yul\":10205:10212   */\n      dup11\n        /* \"#utility.yul\":10196:10202   */\n      dup3\n        /* \"#utility.yul\":10185:10194   */\n      dup12\n        /* \"#utility.yul\":10181:10203   */\n      add\n        /* \"#utility.yul\":10160:10213   */\n      tag_282\n      jump\t// in\n    tag_438:\n        /* \"#utility.yul\":10150:10213   */\n      swap5\n      pop\n        /* \"#utility.yul\":10105:10223   */\n      pop\n        /* \"#utility.yul\":10262:10265   */\n      0x80\n        /* \"#utility.yul\":10289:10340   */\n      tag_439\n        /* \"#utility.yul\":10332:10339   */\n      dup11\n        /* \"#utility.yul\":10323:10329   */\n      dup3\n        /* \"#utility.yul\":10312:10321   */\n      dup12\n        /* \"#utility.yul\":10308:10330   */\n      add\n        /* \"#utility.yul\":10289:10340   */\n      tag_301\n      jump\t// in\n    tag_439:\n        /* \"#utility.yul\":10279:10340   */\n      swap4\n      pop\n        /* \"#utility.yul\":10233:10350   */\n      pop\n        /* \"#utility.yul\":10389:10392   */\n      0xa0\n        /* \"#utility.yul\":10416:10469   */\n      tag_440\n        /* \"#utility.yul\":10461:10468   */\n      dup11\n        /* \"#utility.yul\":10452:10458   */\n      dup3\n        /* \"#utility.yul\":10441:10450   */\n      dup12\n        /* \"#utility.yul\":10437:10459   */\n      add\n        /* \"#utility.yul\":10416:10469   */\n      tag_303\n      jump\t// in\n    tag_440:\n        /* \"#utility.yul\":10406:10469   */\n      swap3\n      pop\n        /* \"#utility.yul\":10360:10479   */\n      pop\n        /* \"#utility.yul\":10518:10521   */\n      0xc0\n        /* \"#utility.yul\":10545:10598   */\n      tag_441\n        /* \"#utility.yul\":10590:10597   */\n      dup11\n        /* \"#utility.yul\":10581:10587   */\n      dup3\n        /* \"#utility.yul\":10570:10579   */\n      dup12\n        /* \"#utility.yul\":10566:10588   */\n      add\n        /* \"#utility.yul\":10545:10598   */\n      tag_303\n      jump\t// in\n    tag_441:\n        /* \"#utility.yul\":10535:10598   */\n      swap2\n      pop\n        /* \"#utility.yul\":10489:10608   */\n      pop\n        /* \"#utility.yul\":9416:10615   */\n      swap3\n      swap6\n      swap9\n      swap2\n      swap5\n      swap8\n      pop\n      swap3\n      swap6\n      pop\n      jump\t// out\n        /* \"#utility.yul\":10621:11095   */\n    tag_82:\n        /* \"#utility.yul\":10689:10695   */\n      0x00\n        /* \"#utility.yul\":10697:10703   */\n      dup1\n        /* \"#utility.yul\":10746:10748   */\n      0x40\n        /* \"#utility.yul\":10734:10743   */\n      dup4\n        /* \"#utility.yul\":10725:10732   */\n      dup6\n        /* \"#utility.yul\":10721:10744   */\n      sub\n        /* \"#utility.yul\":10717:10749   */\n      slt\n        /* \"#utility.yul\":10714:10833   */\n      iszero\n      tag_443\n      jumpi\n        /* \"#utility.yul\":10752:10831   */\n      tag_444\n      tag_274\n      jump\t// in\n    tag_444:\n        /* \"#utility.yul\":10714:10833   */\n    tag_443:\n        /* \"#utility.yul\":10872:10873   */\n      0x00\n        /* \"#utility.yul\":10897:10950   */\n      tag_445\n        /* \"#utility.yul\":10942:10949   */\n      dup6\n        /* \"#utility.yul\":10933:10939   */\n      dup3\n        /* \"#utility.yul\":10922:10931   */\n      dup7\n        /* \"#utility.yul\":10918:10940   */\n      add\n        /* \"#utility.yul\":10897:10950   */\n      tag_279\n      jump\t// in\n    tag_445:\n        /* \"#utility.yul\":10887:10950   */\n      swap3\n      pop\n        /* \"#utility.yul\":10843:10960   */\n      pop\n        /* \"#utility.yul\":10999:11001   */\n      0x20\n        /* \"#utility.yul\":11025:11078   */\n      tag_446\n        /* \"#utility.yul\":11070:11077   */\n      dup6\n        /* \"#utility.yul\":11061:11067   */\n      dup3\n        /* \"#utility.yul\":11050:11059   */\n      dup7\n        /* \"#utility.yul\":11046:11068   */\n      add\n        /* \"#utility.yul\":11025:11078   */\n      tag_279\n      jump\t// in\n    tag_446:\n        /* \"#utility.yul\":11015:11078   */\n      swap2\n      pop\n        /* \"#utility.yul\":10970:11088   */\n      pop\n        /* \"#utility.yul\":10621:11095   */\n      swap3\n      pop\n      swap3\n      swap1\n      pop\n      jump\t// out\n        /* \"#utility.yul\":11101:11281   */\n    tag_304:\n        /* \"#utility.yul\":11149:11226   */\n      0x4e487b7100000000000000000000000000000000000000000000000000000000\n        /* \"#utility.yul\":11146:11147   */\n      0x00\n        /* \"#utility.yul\":11139:11227   */\n      mstore\n        /* \"#utility.yul\":11246:11250   */\n      0x22\n        /* \"#utility.yul\":11243:11244   */\n      0x04\n        /* \"#utility.yul\":11236:11251   */\n      mstore\n        /* \"#utility.yul\":11270:11274   */\n      0x24\n        /* \"#utility.yul\":11267:11268   */\n      0x00\n        /* \"#utility.yul\":11260:11275   */\n      revert\n        /* \"#utility.yul\":11287:11607   */\n    tag_87:\n        /* \"#utility.yul\":11331:11337   */\n      0x00\n        /* \"#utility.yul\":11368:11369   */\n      0x02\n        /* \"#utility.yul\":11362:11366   */\n      dup3\n        /* \"#utility.yul\":11358:11370   */\n      div\n        /* \"#utility.yul\":11348:11370   */\n      swap1\n      pop\n        /* \"#utility.yul\":11415:11416   */\n      0x01\n        /* \"#utility.yul\":11409:11413   */\n      dup3\n        /* \"#utility.yul\":11405:11417   */\n      and\n        /* \"#utility.yul\":11436:11454   */\n      dup1\n        /* \"#utility.yul\":11426:11507   */\n      tag_449\n      jumpi\n        /* \"#utility.yul\":11492:11496   */\n      0x7f\n        /* \"#utility.yul\":11484:11490   */\n      dup3\n        /* \"#utility.yul\":11480:11497   */\n      and\n        /* \"#utility.yul\":11470:11497   */\n      swap2\n      pop\n        /* \"#utility.yul\":11426:11507   */\n    tag_449:\n        /* \"#utility.yul\":11554:11556   */\n      0x20\n        /* \"#utility.yul\":11546:11552   */\n      dup3\n        /* \"#utility.yul\":11543:11557   */\n      lt\n        /* \"#utility.yul\":11523:11541   */\n      dup2\n        /* \"#utility.yul\":11520:11558   */\n      sub\n        /* \"#utility.yul\":11517:11601   */\n      tag_450\n      jumpi\n        /* \"#utility.yul\":11573:11591   */\n      tag_451\n      tag_304\n      jump\t// in\n    tag_451:\n        /* \"#utility.yul\":11517:11601   */\n    tag_450:\n        /* \"#utility.yul\":11338:11607   */\n      pop\n        /* \"#utility.yul\":11287:11607   */\n      swap2\n      swap1\n      pop\n      jump\t// out\n        /* \"#utility.yul\":11613:11793   */\n    tag_305:\n        /* \"#utility.yul\":11661:11738   */\n      0x4e487b7100000000000000000000000000000000000000000000000000000000\n        /* \"#utility.yul\":11658:11659   */\n      0x00\n        /* \"#utility.yul\":11651:11739   */\n      mstore\n        /* \"#utility.yul\":11758:11762   */\n      0x11\n        /* \"#utility.yul\":11755:11756   */\n      0x04\n        /* \"#utility.yul\":11748:11763   */\n      mstore\n        /* \"#utility.yul\":11782:11786   */\n      0x24\n        /* \"#utility.yul\":11779:11780   */\n      0x00\n        /* \"#utility.yul\":11772:11787   */\n      revert\n        /* \"#utility.yul\":11799:11990   */\n    tag_113:\n        /* \"#utility.yul\":11839:11842   */\n      0x00\n        /* \"#utility.yul\":11858:11878   */\n      tag_454\n        /* \"#utility.yul\":11876:11877   */\n      dup3\n        /* \"#utility.yul\":11858:11878   */\n      tag_280\n      jump\t// in\n    tag_454:\n        /* \"#utility.yul\":11853:11878   */\n      swap2\n      pop\n        /* \"#utility.yul\":11892:11912   */\n      tag_455\n        /* \"#utility.yul\":11910:11911   */\n      dup4\n        /* \"#utility.yul\":11892:11912   */\n      tag_280\n      jump\t// in\n    tag_455:\n        /* \"#utility.yul\":11887:11912   */\n      swap3\n      pop\n        /* \"#utility.yul\":11935:11936   */\n      dup3\n        /* \"#utility.yul\":11932:11933   */\n      dup3\n        /* \"#utility.yul\":11928:11937   */\n      add\n        /* \"#utility.yul\":11921:11937   */\n      swap1\n      pop\n        /* \"#utility.yul\":11956:11959   */\n      dup1\n        /* \"#utility.yul\":11953:11954   */\n      dup3\n        /* \"#utility.yul\":11950:11960   */\n      gt\n        /* \"#utility.yul\":11947:11983   */\n      iszero\n      tag_456\n      jumpi\n        /* \"#utility.yul\":11963:11981   */\n      tag_457\n      tag_305\n      jump\t// in\n    tag_457:\n        /* \"#utility.yul\":11947:11983   */\n    tag_456:\n        /* \"#utility.yul\":11799:11990   */\n      swap3\n      swap2\n      pop\n      pop\n      jump\t// out\n        /* \"#utility.yul\":11996:12176   */\n    tag_124:\n        /* \"#utility.yul\":12044:12121   */\n      0x4e487b7100000000000000000000000000000000000000000000000000000000\n        /* \"#utility.yul\":12041:12042   */\n      0x00\n        /* \"#utility.yul\":12034:12122   */\n      mstore\n        /* \"#utility.yul\":12141:12145   */\n      0x41\n        /* \"#utility.yul\":12138:12139   */\n      0x04\n        /* \"#utility.yul\":12131:12146   */\n      mstore\n        /* \"#utility.yul\":12165:12169   */\n      0x24\n        /* \"#utility.yul\":12162:12163   */\n      0x00\n        /* \"#utility.yul\":12155:12170   */\n      revert\n        /* \"#utility.yul\":12182:12406   */\n    tag_306:\n        /* \"#utility.yul\":12322:12356   */\n      0x45524332303a2064656372656173656420616c6c6f77616e63652062656c6f77\n        /* \"#utility.yul\":12318:12319   */\n      0x00\n        /* \"#utility.yul\":12310:12316   */\n      dup3\n        /* \"#utility.yul\":12306:12320   */\n      add\n        /* \"#utility.yul\":12299:12357   */\n      mstore\n        /* \"#utility.yul\":12391:12398   */\n      0x207a65726f000000000000000000000000000000000000000000000000000000\n        /* \"#utility.yul\":12386:12388   */\n      0x20\n        /* \"#utility.yul\":12378:12384   */\n      dup3\n        /* \"#utility.yul\":12374:12389   */\n      add\n        /* \"#utility.yul\":12367:12399   */\n      mstore\n        /* \"#utility.yul\":12182:12406   */\n      pop\n      jump\t// out\n        /* \"#utility.yul\":12412:12778   */\n    tag_307:\n        /* \"#utility.yul\":12554:12557   */\n      0x00\n        /* \"#utility.yul\":12575:12642   */\n      tag_461\n        /* \"#utility.yul\":12639:12641   */\n      0x25\n        /* \"#utility.yul\":12634:12637   */\n      dup4\n        /* \"#utility.yul\":12575:12642   */\n      tag_269\n      jump\t// in\n    tag_461:\n        /* \"#utility.yul\":12568:12642   */\n      swap2\n      pop\n        /* \"#utility.yul\":12651:12744   */\n      tag_462\n        /* \"#utility.yul\":12740:12743   */\n      dup3\n        /* \"#utility.yul\":12651:12744   */\n      tag_306\n      jump\t// in\n    tag_462:\n        /* \"#utility.yul\":12769:12771   */\n      0x40\n        /* \"#utility.yul\":12764:12767   */\n      dup3\n        /* \"#utility.yul\":12760:12772   */\n      add\n        /* \"#utility.yul\":12753:12772   */\n      swap1\n      pop\n        /* \"#utility.yul\":12412:12778   */\n      swap2\n      swap1\n      pop\n      jump\t// out\n        /* \"#utility.yul\":12784:13203   */\n    tag_137:\n        /* \"#utility.yul\":12950:12954   */\n      0x00\n        /* \"#utility.yul\":12988:12990   */\n      0x20\n        /* \"#utility.yul\":12977:12986   */\n      dup3\n        /* \"#utility.yul\":12973:12991   */\n      add\n        /* \"#utility.yul\":12965:12991   */\n      swap1\n      pop\n        /* \"#utility.yul\":13037:13046   */\n      dup2\n        /* \"#utility.yul\":13031:13035   */\n      dup2\n        /* \"#utility.yul\":13027:13047   */\n      sub\n        /* \"#utility.yul\":13023:13024   */\n      0x00\n        /* \"#utility.yul\":13012:13021   */\n      dup4\n        /* \"#utility.yul\":13008:13025   */\n      add\n        /* \"#utility.yul\":13001:13048   */\n      mstore\n        /* \"#utility.yul\":13065:13196   */\n      tag_464\n        /* \"#utility.yul\":13191:13195   */\n      dup2\n        /* \"#utility.yul\":13065:13196   */\n      tag_307\n      jump\t// in\n    tag_464:\n        /* \"#utility.yul\":13057:13196   */\n      swap1\n      pop\n        /* \"#utility.yul\":12784:13203   */\n      swap2\n      swap1\n      pop\n      jump\t// out\n        /* \"#utility.yul\":13209:13984   */\n    tag_148:\n        /* \"#utility.yul\":13442:13446   */\n      0x00\n        /* \"#utility.yul\":13480:13483   */\n      0xc0\n        /* \"#utility.yul\":13469:13478   */\n      dup3\n        /* \"#utility.yul\":13465:13484   */\n      add\n        /* \"#utility.yul\":13457:13484   */\n      swap1\n      pop\n        /* \"#utility.yul\":13494:13565   */\n      tag_466\n        /* \"#utility.yul\":13562:13563   */\n      0x00\n        /* \"#utility.yul\":13551:13560   */\n      dup4\n        /* \"#utility.yul\":13547:13564   */\n      add\n        /* \"#utility.yul\":13538:13544   */\n      dup10\n        /* \"#utility.yul\":13494:13565   */\n      tag_289\n      jump\t// in\n    tag_466:\n        /* \"#utility.yul\":13575:13647   */\n      tag_467\n        /* \"#utility.yul\":13643:13645   */\n      0x20\n        /* \"#utility.yul\":13632:13641   */\n      dup4\n        /* \"#utility.yul\":13628:13646   */\n      add\n        /* \"#utility.yul\":13619:13625   */\n      dup9\n        /* \"#utility.yul\":13575:13647   */\n      tag_292\n      jump\t// in\n    tag_467:\n        /* \"#utility.yul\":13657:13729   */\n      tag_468\n        /* \"#utility.yul\":13725:13727   */\n      0x40\n        /* \"#utility.yul\":13714:13723   */\n      dup4\n        /* \"#utility.yul\":13710:13728   */\n      add\n        /* \"#utility.yul\":13701:13707   */\n      dup8\n        /* \"#utility.yul\":13657:13729   */\n      tag_292\n      jump\t// in\n    tag_468:\n        /* \"#utility.yul\":13739:13811   */\n      tag_469\n        /* \"#utility.yul\":13807:13809   */\n      0x60\n        /* \"#utility.yul\":13796:13805   */\n      dup4\n        /* \"#utility.yul\":13792:13810   */\n      add\n        /* \"#utility.yul\":13783:13789   */\n      dup7\n        /* \"#utility.yul\":13739:13811   */\n      tag_285\n      jump\t// in\n    tag_469:\n        /* \"#utility.yul\":13821:13894   */\n      tag_470\n        /* \"#utility.yul\":13889:13892   */\n      0x80\n        /* \"#utility.yul\":13878:13887   */\n      dup4\n        /* \"#utility.yul\":13874:13893   */\n      add\n        /* \"#utility.yul\":13865:13871   */\n      dup6\n        /* \"#utility.yul\":13821:13894   */\n      tag_285\n      jump\t// in\n    tag_470:\n        /* \"#utility.yul\":13904:13977   */\n      tag_471\n        /* \"#utility.yul\":13972:13975   */\n      0xa0\n        /* \"#utility.yul\":13961:13970   */\n      dup4\n        /* \"#utility.yul\":13957:13976   */\n      add\n        /* \"#utility.yul\":13948:13954   */\n      dup5\n        /* \"#utility.yul\":13904:13977   */\n      tag_285\n      jump\t// in\n    tag_471:\n        /* \"#utility.yul\":13209:13984   */\n      swap8\n      swap7\n      pop\n      pop\n      pop\n      pop\n      pop\n      pop\n      pop\n      jump\t// out\n        /* \"#utility.yul\":13990:14322   */\n    tag_155:\n        /* \"#utility.yul\":14111:14115   */\n      0x00\n        /* \"#utility.yul\":14149:14151   */\n      0x40\n        /* \"#utility.yul\":14138:14147   */\n      dup3\n        /* \"#utility.yul\":14134:14152   */\n      add\n        /* \"#utility.yul\":14126:14152   */\n      swap1\n      pop\n        /* \"#utility.yul\":14162:14233   */\n      tag_473\n        /* \"#utility.yul\":14230:14231   */\n      0x00\n        /* \"#utility.yul\":14219:14228   */\n      dup4\n        /* \"#utility.yul\":14215:14232   */\n      add\n        /* \"#utility.yul\":14206:14212   */\n      dup6\n        /* \"#utility.yul\":14162:14233   */\n      tag_292\n      jump\t// in\n    tag_473:\n        /* \"#utility.yul\":14243:14315   */\n      tag_474\n        /* \"#utility.yul\":14311:14313   */\n      0x20\n        /* \"#utility.yul\":14300:14309   */\n      dup4\n        /* \"#utility.yul\":14296:14314   */\n      add\n        /* \"#utility.yul\":14287:14293   */\n      dup5\n        /* \"#utility.yul\":14243:14315   */\n      tag_292\n      jump\t// in\n    tag_474:\n        /* \"#utility.yul\":13990:14322   */\n      swap4\n      swap3\n      pop\n      pop\n      pop\n      jump\t// out\n        /* \"#utility.yul\":14328:14551   */\n    tag_308:\n        /* \"#utility.yul\":14468:14502   */\n      0x45524332303a20617070726f76652066726f6d20746865207a65726f20616464\n        /* \"#utility.yul\":14464:14465   */\n      0x00\n        /* \"#utility.yul\":14456:14462   */\n      dup3\n        /* \"#utility.yul\":14452:14466   */\n      add\n        /* \"#utility.yul\":14445:14503   */\n      mstore\n        /* \"#utility.yul\":14537:14543   */\n      0x7265737300000000000000000000000000000000000000000000000000000000\n        /* \"#utility.yul\":14532:14534   */\n      0x20\n        /* \"#utility.yul\":14524:14530   */\n      dup3\n        /* \"#utility.yul\":14520:14535   */\n      add\n        /* \"#utility.yul\":14513:14544   */\n      mstore\n        /* \"#utility.yul\":14328:14551   */\n      pop\n      jump\t// out\n        /* \"#utility.yul\":14557:14923   */\n    tag_309:\n        /* \"#utility.yul\":14699:14702   */\n      0x00\n        /* \"#utility.yul\":14720:14787   */\n      tag_477\n        /* \"#utility.yul\":14784:14786   */\n      0x24\n        /* \"#utility.yul\":14779:14782   */\n      dup4\n        /* \"#utility.yul\":14720:14787   */\n      tag_269\n      jump\t// in\n    tag_477:\n        /* \"#utility.yul\":14713:14787   */\n      swap2\n      pop\n        /* \"#utility.yul\":14796:14889   */\n      tag_478\n        /* \"#utility.yul\":14885:14888   */\n      dup3\n        /* \"#utility.yul\":14796:14889   */\n      tag_308\n      jump\t// in\n    tag_478:\n        /* \"#utility.yul\":14914:14916   */\n      0x40\n        /* \"#utility.yul\":14909:14912   */\n      dup3\n        /* \"#utility.yul\":14905:14917   */\n      add\n        /* \"#utility.yul\":14898:14917   */\n      swap1\n      pop\n        /* \"#utility.yul\":14557:14923   */\n      swap2\n      swap1\n      pop\n      jump\t// out\n        /* \"#utility.yul\":14929:15348   */\n    tag_162:\n        /* \"#utility.yul\":15095:15099   */\n      0x00\n        /* \"#utility.yul\":15133:15135   */\n      0x20\n        /* \"#utility.yul\":15122:15131   */\n      dup3\n        /* \"#utility.yul\":15118:15136   */\n      add\n        /* \"#utility.yul\":15110:15136   */\n      swap1\n      pop\n        /* \"#utility.yul\":15182:15191   */\n      dup2\n        /* \"#utility.yul\":15176:15180   */\n      dup2\n        /* \"#utility.yul\":15172:15192   */\n      sub\n        /* \"#utility.yul\":15168:15169   */\n      0x00\n        /* \"#utility.yul\":15157:15166   */\n      dup4\n        /* \"#utility.yul\":15153:15170   */\n      add\n        /* \"#utility.yul\":15146:15193   */\n      mstore\n        /* \"#utility.yul\":15210:15341   */\n      tag_480\n        /* \"#utility.yul\":15336:15340   */\n      dup2\n        /* \"#utility.yul\":15210:15341   */\n      tag_309\n      jump\t// in\n    tag_480:\n        /* \"#utility.yul\":15202:15341   */\n      swap1\n      pop\n        /* \"#utility.yul\":14929:15348   */\n      swap2\n      swap1\n      pop\n      jump\t// out\n        /* \"#utility.yul\":15354:15575   */\n    tag_310:\n        /* \"#utility.yul\":15494:15528   */\n      0x45524332303a20617070726f766520746f20746865207a65726f206164647265\n        /* \"#utility.yul\":15490:15491   */\n      0x00\n        /* \"#utility.yul\":15482:15488   */\n      dup3\n        /* \"#utility.yul\":15478:15492   */\n      add\n        /* \"#utility.yul\":15471:15529   */\n      mstore\n        /* \"#utility.yul\":15563:15567   */\n      0x7373000000000000000000000000000000000000000000000000000000000000\n        /* \"#utility.yul\":15558:15560   */\n      0x20\n        /* \"#utility.yul\":15550:15556   */\n      dup3\n        /* \"#utility.yul\":15546:15561   */\n      add\n        /* \"#utility.yul\":15539:15568   */\n      mstore\n        /* \"#utility.yul\":15354:15575   */\n      pop\n      jump\t// out\n        /* \"#utility.yul\":15581:15947   */\n    tag_311:\n        /* \"#utility.yul\":15723:15726   */\n      0x00\n        /* \"#utility.yul\":15744:15811   */\n      tag_483\n        /* \"#utility.yul\":15808:15810   */\n      0x22\n        /* \"#utility.yul\":15803:15806   */\n      dup4\n        /* \"#utility.yul\":15744:15811   */\n      tag_269\n      jump\t// in\n    tag_483:\n        /* \"#utility.yul\":15737:15811   */\n      swap2\n      pop\n        /* \"#utility.yul\":15820:15913   */\n      tag_484\n        /* \"#utility.yul\":15909:15912   */\n      dup3\n        /* \"#utility.yul\":15820:15913   */\n      tag_310\n      jump\t// in\n    tag_484:\n        /* \"#utility.yul\":15938:15940   */\n      0x40\n        /* \"#utility.yul\":15933:15936   */\n      dup3\n        /* \"#utility.yul\":15929:15941   */\n      add\n        /* \"#utility.yul\":15922:15941   */\n      swap1\n      pop\n        /* \"#utility.yul\":15581:15947   */\n      swap2\n      swap1\n      pop\n      jump\t// out\n        /* \"#utility.yul\":15953:16372   */\n    tag_165:\n        /* \"#utility.yul\":16119:16123   */\n      0x00\n        /* \"#utility.yul\":16157:16159   */\n      0x20\n        /* \"#utility.yul\":16146:16155   */\n      dup3\n        /* \"#utility.yul\":16142:16160   */\n      add\n        /* \"#utility.yul\":16134:16160   */\n      swap1\n      pop\n        /* \"#utility.yul\":16206:16215   */\n      dup2\n        /* \"#utility.yul\":16200:16204   */\n      dup2\n        /* \"#utility.yul\":16196:16216   */\n      sub\n        /* \"#utility.yul\":16192:16193   */\n      0x00\n        /* \"#utility.yul\":16181:16190   */\n      dup4\n        /* \"#utility.yul\":16177:16194   */\n      add\n        /* \"#utility.yul\":16170:16217   */\n      mstore\n        /* \"#utility.yul\":16234:16365   */\n      tag_486\n        /* \"#utility.yul\":16360:16364   */\n      dup2\n        /* \"#utility.yul\":16234:16365   */\n      tag_311\n      jump\t// in\n    tag_486:\n        /* \"#utility.yul\":16226:16365   */\n      swap1\n      pop\n        /* \"#utility.yul\":15953:16372   */\n      swap2\n      swap1\n      pop\n      jump\t// out\n        /* \"#utility.yul\":16378:16557   */\n    tag_312:\n        /* \"#utility.yul\":16518:16549   */\n      0x45524332303a20696e73756666696369656e7420616c6c6f77616e6365000000\n        /* \"#utility.yul\":16514:16515   */\n      0x00\n        /* \"#utility.yul\":16506:16512   */\n      dup3\n        /* \"#utility.yul\":16502:16516   */\n      add\n        /* \"#utility.yul\":16495:16550   */\n      mstore\n        /* \"#utility.yul\":16378:16557   */\n      pop\n      jump\t// out\n        /* \"#utility.yul\":16563:16929   */\n    tag_313:\n        /* \"#utility.yul\":16705:16708   */\n      0x00\n        /* \"#utility.yul\":16726:16793   */\n      tag_489\n        /* \"#utility.yul\":16790:16792   */\n      0x1d\n        /* \"#utility.yul\":16785:16788   */\n      dup4\n        /* \"#utility.yul\":16726:16793   */\n      tag_269\n      jump\t// in\n    tag_489:\n        /* \"#utility.yul\":16719:16793   */\n      swap2\n      pop\n        /* \"#utility.yul\":16802:16895   */\n      tag_490\n        /* \"#utility.yul\":16891:16894   */\n      dup3\n        /* \"#utility.yul\":16802:16895   */\n      tag_312\n      jump\t// in\n    tag_490:\n        /* \"#utility.yul\":16920:16922   */\n      0x20\n        /* \"#utility.yul\":16915:16918   */\n      dup3\n        /* \"#utility.yul\":16911:16923   */\n      add\n        /* \"#utility.yul\":16904:16923   */\n      swap1\n      pop\n        /* \"#utility.yul\":16563:16929   */\n      swap2\n      swap1\n      pop\n      jump\t// out\n        /* \"#utility.yul\":16935:17354   */\n    tag_172:\n        /* \"#utility.yul\":17101:17105   */\n      0x00\n        /* \"#utility.yul\":17139:17141   */\n      0x20\n        /* \"#utility.yul\":17128:17137   */\n      dup3\n        /* \"#utility.yul\":17124:17142   */\n      add\n        /* \"#utility.yul\":17116:17142   */\n      swap1\n      pop\n        /* \"#utility.yul\":17188:17197   */\n      dup2\n        /* \"#utility.yul\":17182:17186   */\n      dup2\n        /* \"#utility.yul\":17178:17198   */\n      sub\n        /* \"#utility.yul\":17174:17175   */\n      0x00\n        /* \"#utility.yul\":17163:17172   */\n      dup4\n        /* \"#utility.yul\":17159:17176   */\n      add\n        /* \"#utility.yul\":17152:17199   */\n      mstore\n        /* \"#utility.yul\":17216:17347   */\n      tag_492\n        /* \"#utility.yul\":17342:17346   */\n      dup2\n        /* \"#utility.yul\":17216:17347   */\n      tag_313\n      jump\t// in\n    tag_492:\n        /* \"#utility.yul\":17208:17347   */\n      swap1\n      pop\n        /* \"#utility.yul\":16935:17354   */\n      swap2\n      swap1\n      pop\n      jump\t// out\n        /* \"#utility.yul\":17360:17584   */\n    tag_314:\n        /* \"#utility.yul\":17500:17534   */\n      0x45524332303a207472616e736665722066726f6d20746865207a65726f206164\n        /* \"#utility.yul\":17496:17497   */\n      0x00\n        /* \"#utility.yul\":17488:17494   */\n      dup3\n        /* \"#utility.yul\":17484:17498   */\n      add\n        /* \"#utility.yul\":17477:17535   */\n      mstore\n        /* \"#utility.yul\":17569:17576   */\n      0x6472657373000000000000000000000000000000000000000000000000000000\n        /* \"#utility.yul\":17564:17566   */\n      0x20\n        /* \"#utility.yul\":17556:17562   */\n      dup3\n        /* \"#utility.yul\":17552:17567   */\n      add\n        /* \"#utility.yul\":17545:17577   */\n      mstore\n        /* \"#utility.yul\":17360:17584   */\n      pop\n      jump\t// out\n        /* \"#utility.yul\":17590:17956   */\n    tag_315:\n        /* \"#utility.yul\":17732:17735   */\n      0x00\n        /* \"#utility.yul\":17753:17820   */\n      tag_495\n        /* \"#utility.yul\":17817:17819   */\n      0x25\n        /* \"#utility.yul\":17812:17815   */\n      dup4\n        /* \"#utility.yul\":17753:17820   */\n      tag_269\n      jump\t// in\n    tag_495:\n        /* \"#utility.yul\":17746:17820   */\n      swap2\n      pop\n        /* \"#utility.yul\":17829:17922   */\n      tag_496\n        /* \"#utility.yul\":17918:17921   */\n      dup3\n        /* \"#utility.yul\":17829:17922   */\n      tag_314\n      jump\t// in\n    tag_496:\n        /* \"#utility.yul\":17947:17949   */\n      0x40\n        /* \"#utility.yul\":17942:17945   */\n      dup3\n        /* \"#utility.yul\":17938:17950   */\n      add\n        /* \"#utility.yul\":17931:17950   */\n      swap1\n      pop\n        /* \"#utility.yul\":17590:17956   */\n      swap2\n      swap1\n      pop\n      jump\t// out\n        /* \"#utility.yul\":17962:18381   */\n    tag_177:\n        /* \"#utility.yul\":18128:18132   */\n      0x00\n        /* \"#utility.yul\":18166:18168   */\n      0x20\n        /* \"#utility.yul\":18155:18164   */\n      dup3\n        /* \"#utility.yul\":18151:18169   */\n      add\n        /* \"#utility.yul\":18143:18169   */\n      swap1\n      pop\n        /* \"#utility.yul\":18215:18224   */\n      dup2\n        /* \"#utility.yul\":18209:18213   */\n      dup2\n        /* \"#utility.yul\":18205:18225   */\n      sub\n        /* \"#utility.yul\":18201:18202   */\n      0x00\n        /* \"#utility.yul\":18190:18199   */\n      dup4\n        /* \"#utility.yul\":18186:18203   */\n      add\n        /* \"#utility.yul\":18179:18226   */\n      mstore\n        /* \"#utility.yul\":18243:18374   */\n      tag_498\n        /* \"#utility.yul\":18369:18373   */\n      dup2\n        /* \"#utility.yul\":18243:18374   */\n      tag_315\n      jump\t// in\n    tag_498:\n        /* \"#utility.yul\":18235:18374   */\n      swap1\n      pop\n        /* \"#utility.yul\":17962:18381   */\n      swap2\n      swap1\n      pop\n      jump\t// out\n        /* \"#utility.yul\":18387:18609   */\n    tag_316:\n        /* \"#utility.yul\":18527:18561   */\n      0x45524332303a207472616e7366657220746f20746865207a65726f2061646472\n        /* \"#utility.yul\":18523:18524   */\n      0x00\n        /* \"#utility.yul\":18515:18521   */\n      dup3\n        /* \"#utility.yul\":18511:18525   */\n      add\n        /* \"#utility.yul\":18504:18562   */\n      mstore\n        /* \"#utility.yul\":18596:18601   */\n      0x6573730000000000000000000000000000000000000000000000000000000000\n        /* \"#utility.yul\":18591:18593   */\n      0x20\n        /* \"#utility.yul\":18583:18589   */\n      dup3\n        /* \"#utility.yul\":18579:18594   */\n      add\n        /* \"#utility.yul\":18572:18602   */\n      mstore\n        /* \"#utility.yul\":18387:18609   */\n      pop\n      jump\t// out\n        /* \"#utility.yul\":18615:18981   */\n    tag_317:\n        /* \"#utility.yul\":18757:18760   */\n      0x00\n        /* \"#utility.yul\":18778:18845   */\n      tag_501\n        /* \"#utility.yul\":18842:18844   */\n      0x23\n        /* \"#utility.yul\":18837:18840   */\n      dup4\n        /* \"#utility.yul\":18778:18845   */\n      tag_269\n      jump\t// in\n    tag_501:\n        /* \"#utility.yul\":18771:18845   */\n      swap2\n      pop\n        /* \"#utility.yul\":18854:18947   */\n      tag_502\n        /* \"#utility.yul\":18943:18946   */\n      dup3\n        /* \"#utility.yul\":18854:18947   */\n      tag_316\n      jump\t// in\n    tag_502:\n        /* \"#utility.yul\":18972:18974   */\n      0x40\n        /* \"#utility.yul\":18967:18970   */\n      dup3\n        /* \"#utility.yul\":18963:18975   */\n      add\n        /* \"#utility.yul\":18956:18975   */\n      swap1\n      pop\n        /* \"#utility.yul\":18615:18981   */\n      swap2\n      swap1\n      pop\n      jump\t// out\n        /* \"#utility.yul\":18987:19406   */\n    tag_180:\n        /* \"#utility.yul\":19153:19157   */\n      0x00\n        /* \"#utility.yul\":19191:19193   */\n      0x20\n        /* \"#utility.yul\":19180:19189   */\n      dup3\n        /* \"#utility.yul\":19176:19194   */\n      add\n        /* \"#utility.yul\":19168:19194   */\n      swap1\n      pop\n        /* \"#utility.yul\":19240:19249   */\n      dup2\n        /* \"#utility.yul\":19234:19238   */\n      dup2\n        /* \"#utility.yul\":19230:19250   */\n      sub\n        /* \"#utility.yul\":19226:19227   */\n      0x00\n        /* \"#utility.yul\":19215:19224   */\n      dup4\n        /* \"#utility.yul\":19211:19228   */\n      add\n        /* \"#utility.yul\":19204:19251   */\n      mstore\n        /* \"#utility.yul\":19268:19399   */\n      tag_504\n        /* \"#utility.yul\":19394:19398   */\n      dup2\n        /* \"#utility.yul\":19268:19399   */\n      tag_317\n      jump\t// in\n    tag_504:\n        /* \"#utility.yul\":19260:19399   */\n      swap1\n      pop\n        /* \"#utility.yul\":18987:19406   */\n      swap2\n      swap1\n      pop\n      jump\t// out\n        /* \"#utility.yul\":19412:19637   */\n    tag_318:\n        /* \"#utility.yul\":19552:19586   */\n      0x45524332303a207472616e7366657220616d6f756e7420657863656564732062\n        /* \"#utility.yul\":19548:19549   */\n      0x00\n        /* \"#utility.yul\":19540:19546   */\n      dup3\n        /* \"#utility.yul\":19536:19550   */\n      add\n        /* \"#utility.yul\":19529:19587   */\n      mstore\n        /* \"#utility.yul\":19621:19629   */\n      0x616c616e63650000000000000000000000000000000000000000000000000000\n        /* \"#utility.yul\":19616:19618   */\n      0x20\n        /* \"#utility.yul\":19608:19614   */\n      dup3\n        /* \"#utility.yul\":19604:19619   */\n      add\n        /* \"#utility.yul\":19597:19630   */\n      mstore\n        /* \"#utility.yul\":19412:19637   */\n      pop\n      jump\t// out\n        /* \"#utility.yul\":19643:20009   */\n    tag_319:\n        /* \"#utility.yul\":19785:19788   */\n      0x00\n        /* \"#utility.yul\":19806:19873   */\n      tag_507\n        /* \"#utility.yul\":19870:19872   */\n      0x26\n        /* \"#utility.yul\":19865:19868   */\n      dup4\n        /* \"#utility.yul\":19806:19873   */\n      tag_269\n      jump\t// in\n    tag_507:\n        /* \"#utility.yul\":19799:19873   */\n      swap2\n      pop\n        /* \"#utility.yul\":19882:19975   */\n      tag_508\n        /* \"#utility.yul\":19971:19974   */\n      dup3\n        /* \"#utility.yul\":19882:19975   */\n      tag_318\n      jump\t// in\n    tag_508:\n        /* \"#utility.yul\":20000:20002   */\n      0x40\n        /* \"#utility.yul\":19995:19998   */\n      dup3\n        /* \"#utility.yul\":19991:20003   */\n      add\n        /* \"#utility.yul\":19984:20003   */\n      swap1\n      pop\n        /* \"#utility.yul\":19643:20009   */\n      swap2\n      swap1\n      pop\n      jump\t// out\n        /* \"#utility.yul\":20015:20434   */\n    tag_185:\n        /* \"#utility.yul\":20181:20185   */\n      0x00\n        /* \"#utility.yul\":20219:20221   */\n      0x20\n        /* \"#utility.yul\":20208:20217   */\n      dup3\n        /* \"#utility.yul\":20204:20222   */\n      add\n        /* \"#utility.yul\":20196:20222   */\n      swap1\n      pop\n        /* \"#utility.yul\":20268:20277   */\n      dup2\n        /* \"#utility.yul\":20262:20266   */\n      dup2\n        /* \"#utility.yul\":20258:20278   */\n      sub\n        /* \"#utility.yul\":20254:20255   */\n      0x00\n        /* \"#utility.yul\":20243:20252   */\n      dup4\n        /* \"#utility.yul\":20239:20256   */\n      add\n        /* \"#utility.yul\":20232:20279   */\n      mstore\n        /* \"#utility.yul\":20296:20427   */\n      tag_510\n        /* \"#utility.yul\":20422:20426   */\n      dup2\n        /* \"#utility.yul\":20296:20427   */\n      tag_319\n      jump\t// in\n    tag_510:\n        /* \"#utility.yul\":20288:20427   */\n      swap1\n      pop\n        /* \"#utility.yul\":20015:20434   */\n      swap2\n      swap1\n      pop\n      jump\t// out\n        /* \"#utility.yul\":20440:21104   */\n    tag_220:\n        /* \"#utility.yul\":20645:20649   */\n      0x00\n        /* \"#utility.yul\":20683:20686   */\n      0xa0\n        /* \"#utility.yul\":20672:20681   */\n      dup3\n        /* \"#utility.yul\":20668:20687   */\n      add\n        /* \"#utility.yul\":20660:20687   */\n      swap1\n      pop\n        /* \"#utility.yul\":20697:20768   */\n      tag_512\n        /* \"#utility.yul\":20765:20766   */\n      0x00\n        /* \"#utility.yul\":20754:20763   */\n      dup4\n        /* \"#utility.yul\":20750:20767   */\n      add\n        /* \"#utility.yul\":20741:20747   */\n      dup9\n        /* \"#utility.yul\":20697:20768   */\n      tag_289\n      jump\t// in\n    tag_512:\n        /* \"#utility.yul\":20778:20850   */\n      tag_513\n        /* \"#utility.yul\":20846:20848   */\n      0x20\n        /* \"#utility.yul\":20835:20844   */\n      dup4\n        /* \"#utility.yul\":20831:20849   */\n      add\n        /* \"#utility.yul\":20822:20828   */\n      dup8\n        /* \"#utility.yul\":20778:20850   */\n      tag_289\n      jump\t// in\n    tag_513:\n        /* \"#utility.yul\":20860:20932   */\n      tag_514\n        /* \"#utility.yul\":20928:20930   */\n      0x40\n        /* \"#utility.yul\":20917:20926   */\n      dup4\n        /* \"#utility.yul\":20913:20931   */\n      add\n        /* \"#utility.yul\":20904:20910   */\n      dup7\n        /* \"#utility.yul\":20860:20932   */\n      tag_289\n      jump\t// in\n    tag_514:\n        /* \"#utility.yul\":20942:21014   */\n      tag_515\n        /* \"#utility.yul\":21010:21012   */\n      0x60\n        /* \"#utility.yul\":20999:21008   */\n      dup4\n        /* \"#utility.yul\":20995:21013   */\n      add\n        /* \"#utility.yul\":20986:20992   */\n      dup6\n        /* \"#utility.yul\":20942:21014   */\n      tag_285\n      jump\t// in\n    tag_515:\n        /* \"#utility.yul\":21024:21097   */\n      tag_516\n        /* \"#utility.yul\":21092:21095   */\n      0x80\n        /* \"#utility.yul\":21081:21090   */\n      dup4\n        /* \"#utility.yul\":21077:21096   */\n      add\n        /* \"#utility.yul\":21068:21074   */\n      dup5\n        /* \"#utility.yul\":21024:21097   */\n      tag_292\n      jump\t// in\n    tag_516:\n        /* \"#utility.yul\":20440:21104   */\n      swap7\n      swap6\n      pop\n      pop\n      pop\n      pop\n      pop\n      pop\n      jump\t// out\n        /* \"#utility.yul\":21110:21655   */\n    tag_231:\n        /* \"#utility.yul\":21283:21287   */\n      0x00\n        /* \"#utility.yul\":21321:21324   */\n      0x80\n        /* \"#utility.yul\":21310:21319   */\n      dup3\n        /* \"#utility.yul\":21306:21325   */\n      add\n        /* \"#utility.yul\":21298:21325   */\n      swap1\n      pop\n        /* \"#utility.yul\":21335:21406   */\n      tag_518\n        /* \"#utility.yul\":21403:21404   */\n      0x00\n        /* \"#utility.yul\":21392:21401   */\n      dup4\n        /* \"#utility.yul\":21388:21405   */\n      add\n        /* \"#utility.yul\":21379:21385   */\n      dup8\n        /* \"#utility.yul\":21335:21406   */\n      tag_289\n      jump\t// in\n    tag_518:\n        /* \"#utility.yul\":21416:21484   */\n      tag_519\n        /* \"#utility.yul\":21480:21482   */\n      0x20\n        /* \"#utility.yul\":21469:21478   */\n      dup4\n        /* \"#utility.yul\":21465:21483   */\n      add\n        /* \"#utility.yul\":21456:21462   */\n      dup7\n        /* \"#utility.yul\":21416:21484   */\n      tag_287\n      jump\t// in\n    tag_519:\n        /* \"#utility.yul\":21494:21566   */\n      tag_520\n        /* \"#utility.yul\":21562:21564   */\n      0x40\n        /* \"#utility.yul\":21551:21560   */\n      dup4\n        /* \"#utility.yul\":21547:21565   */\n      add\n        /* \"#utility.yul\":21538:21544   */\n      dup6\n        /* \"#utility.yul\":21494:21566   */\n      tag_289\n      jump\t// in\n    tag_520:\n        /* \"#utility.yul\":21576:21648   */\n      tag_521\n        /* \"#utility.yul\":21644:21646   */\n      0x60\n        /* \"#utility.yul\":21633:21642   */\n      dup4\n        /* \"#utility.yul\":21629:21647   */\n      add\n        /* \"#utility.yul\":21620:21626   */\n      dup5\n        /* \"#utility.yul\":21576:21648   */\n      tag_289\n      jump\t// in\n    tag_521:\n        /* \"#utility.yul\":21110:21655   */\n      swap6\n      swap5\n      pop\n      pop\n      pop\n      pop\n      pop\n      jump\t// out\n        /* \"#utility.yul\":21661:21841   */\n    tag_238:\n        /* \"#utility.yul\":21709:21786   */\n      0x4e487b7100000000000000000000000000000000000000000000000000000000\n        /* \"#utility.yul\":21706:21707   */\n      0x00\n        /* \"#utility.yul\":21699:21787   */\n      mstore\n        /* \"#utility.yul\":21806:21810   */\n      0x21\n        /* \"#utility.yul\":21803:21804   */\n      0x04\n        /* \"#utility.yul\":21796:21811   */\n      mstore\n        /* \"#utility.yul\":21830:21834   */\n      0x24\n        /* \"#utility.yul\":21827:21828   */\n      0x00\n        /* \"#utility.yul\":21820:21835   */\n      revert\n        /* \"#utility.yul\":21847:22021   */\n    tag_320:\n        /* \"#utility.yul\":21987:22013   */\n      0x45434453413a20696e76616c6964207369676e61747572650000000000000000\n        /* \"#utility.yul\":21983:21984   */\n      0x00\n        /* \"#utility.yul\":21975:21981   */\n      dup3\n        /* \"#utility.yul\":21971:21985   */\n      add\n        /* \"#utility.yul\":21964:22014   */\n      mstore\n        /* \"#utility.yul\":21847:22021   */\n      pop\n      jump\t// out\n        /* \"#utility.yul\":22027:22393   */\n    tag_321:\n        /* \"#utility.yul\":22169:22172   */\n      0x00\n        /* \"#utility.yul\":22190:22257   */\n      tag_525\n        /* \"#utility.yul\":22254:22256   */\n      0x18\n        /* \"#utility.yul\":22249:22252   */\n      dup4\n        /* \"#utility.yul\":22190:22257   */\n      tag_269\n      jump\t// in\n    tag_525:\n        /* \"#utility.yul\":22183:22257   */\n      swap2\n      pop\n        /* \"#utility.yul\":22266:22359   */\n      tag_526\n        /* \"#utility.yul\":22355:22358   */\n      dup3\n        /* \"#utility.yul\":22266:22359   */\n      tag_320\n      jump\t// in\n    tag_526:\n        /* \"#utility.yul\":22384:22386   */\n      0x20\n        /* \"#utility.yul\":22379:22382   */\n      dup3\n        /* \"#utility.yul\":22375:22387   */\n      add\n        /* \"#utility.yul\":22368:22387   */\n      swap1\n      pop\n        /* \"#utility.yul\":22027:22393   */\n      swap2\n      swap1\n      pop\n      jump\t// out\n        /* \"#utility.yul\":22399:22818   */\n    tag_249:\n        /* \"#utility.yul\":22565:22569   */\n      0x00\n        /* \"#utility.yul\":22603:22605   */\n      0x20\n        /* \"#utility.yul\":22592:22601   */\n      dup3\n        /* \"#utility.yul\":22588:22606   */\n      add\n        /* \"#utility.yul\":22580:22606   */\n      swap1\n      pop\n        /* \"#utility.yul\":22652:22661   */\n      dup2\n        /* \"#utility.yul\":22646:22650   */\n      dup2\n        /* \"#utility.yul\":22642:22662   */\n      sub\n        /* \"#utility.yul\":22638:22639   */\n      0x00\n        /* \"#utility.yul\":22627:22636   */\n      dup4\n        /* \"#utility.yul\":22623:22640   */\n      add\n        /* \"#utility.yul\":22616:22663   */\n      mstore\n        /* \"#utility.yul\":22680:22811   */\n      tag_528\n        /* \"#utility.yul\":22806:22810   */\n      dup2\n        /* \"#utility.yul\":22680:22811   */\n      tag_321\n      jump\t// in\n    tag_528:\n        /* \"#utility.yul\":22672:22811   */\n      swap1\n      pop\n        /* \"#utility.yul\":22399:22818   */\n      swap2\n      swap1\n      pop\n      jump\t// out\n        /* \"#utility.yul\":22824:23005   */\n    tag_322:\n        /* \"#utility.yul\":22964:22997   */\n      0x45434453413a20696e76616c6964207369676e6174757265206c656e67746800\n        /* \"#utility.yul\":22960:22961   */\n      0x00\n        /* \"#utility.yul\":22952:22958   */\n      dup3\n        /* \"#utility.yul\":22948:22962   */\n      add\n        /* \"#utility.yul\":22941:22998   */\n      mstore\n        /* \"#utility.yul\":22824:23005   */\n      pop\n      jump\t// out\n        /* \"#utility.yul\":23011:23377   */\n    tag_323:\n        /* \"#utility.yul\":23153:23156   */\n      0x00\n        /* \"#utility.yul\":23174:23241   */\n      tag_531\n        /* \"#utility.yul\":23238:23240   */\n      0x1f\n        /* \"#utility.yul\":23233:23236   */\n      dup4\n        /* \"#utility.yul\":23174:23241   */\n      tag_269\n      jump\t// in\n    tag_531:\n        /* \"#utility.yul\":23167:23241   */\n      swap2\n      pop\n        /* \"#utility.yul\":23250:23343   */\n      tag_532\n        /* \"#utility.yul\":23339:23342   */\n      dup3\n        /* \"#utility.yul\":23250:23343   */\n      tag_322\n      jump\t// in\n    tag_532:\n        /* \"#utility.yul\":23368:23370   */\n      0x20\n        /* \"#utility.yul\":23363:23366   */\n      dup3\n        /* \"#utility.yul\":23359:23371   */\n      add\n        /* \"#utility.yul\":23352:23371   */\n      swap1\n      pop\n        /* \"#utility.yul\":23011:23377   */\n      swap2\n      swap1\n      pop\n      jump\t// out\n        /* \"#utility.yul\":23383:23802   */\n    tag_257:\n        /* \"#utility.yul\":23549:23553   */\n      0x00\n        /* \"#utility.yul\":23587:23589   */\n      0x20\n        /* \"#utility.yul\":23576:23585   */\n      dup3\n        /* \"#utility.yul\":23572:23590   */\n      add\n        /* \"#utility.yul\":23564:23590   */\n      swap1\n      pop\n        /* \"#utility.yul\":23636:23645   */\n      dup2\n        /* \"#utility.yul\":23630:23634   */\n      dup2\n        /* \"#utility.yul\":23626:23646   */\n      sub\n        /* \"#utility.yul\":23622:23623   */\n      0x00\n        /* \"#utility.yul\":23611:23620   */\n      dup4\n        /* \"#utility.yul\":23607:23624   */\n      add\n        /* \"#utility.yul\":23600:23647   */\n      mstore\n        /* \"#utility.yul\":23664:23795   */\n      tag_534\n        /* \"#utility.yul\":23790:23794   */\n      dup2\n        /* \"#utility.yul\":23664:23795   */\n      tag_323\n      jump\t// in\n    tag_534:\n        /* \"#utility.yul\":23656:23795   */\n      swap1\n      pop\n        /* \"#utility.yul\":23383:23802   */\n      swap2\n      swap1\n      pop\n      jump\t// out\n        /* \"#utility.yul\":23808:24029   */\n    tag_324:\n        /* \"#utility.yul\":23948:23982   */\n      0x45434453413a20696e76616c6964207369676e6174757265202773272076616c\n        /* \"#utility.yul\":23944:23945   */\n      0x00\n        /* \"#utility.yul\":23936:23942   */\n      dup3\n        /* \"#utility.yul\":23932:23946   */\n      add\n        /* \"#utility.yul\":23925:23983   */\n      mstore\n        /* \"#utility.yul\":24017:24021   */\n      0x7565000000000000000000000000000000000000000000000000000000000000\n        /* \"#utility.yul\":24012:24014   */\n      0x20\n        /* \"#utility.yul\":24004:24010   */\n      dup3\n        /* \"#utility.yul\":24000:24015   */\n      add\n        /* \"#utility.yul\":23993:24022   */\n      mstore\n        /* \"#utility.yul\":23808:24029   */\n      pop\n      jump\t// out\n        /* \"#utility.yul\":24035:24401   */\n    tag_325:\n        /* \"#utility.yul\":24177:24180   */\n      0x00\n        /* \"#utility.yul\":24198:24265   */\n      tag_537\n        /* \"#utility.yul\":24262:24264   */\n      0x22\n        /* \"#utility.yul\":24257:24260   */\n      dup4\n        /* \"#utility.yul\":24198:24265   */\n      tag_269\n      jump\t// in\n    tag_537:\n        /* \"#utility.yul\":24191:24265   */\n      swap2\n      pop\n        /* \"#utility.yul\":24274:24367   */\n      tag_538\n        /* \"#utility.yul\":24363:24366   */\n      dup3\n        /* \"#utility.yul\":24274:24367   */\n      tag_324\n      jump\t// in\n    tag_538:\n        /* \"#utility.yul\":24392:24394   */\n      0x40\n        /* \"#utility.yul\":24387:24390   */\n      dup3\n        /* \"#utility.yul\":24383:24395   */\n      add\n        /* \"#utility.yul\":24376:24395   */\n      swap1\n      pop\n        /* \"#utility.yul\":24035:24401   */\n      swap2\n      swap1\n      pop\n      jump\t// out\n        /* \"#utility.yul\":24407:24826   */\n    tag_265:\n        /* \"#utility.yul\":24573:24577   */\n      0x00\n        /* \"#utility.yul\":24611:24613   */\n      0x20\n        /* \"#utility.yul\":24600:24609   */\n      dup3\n        /* \"#utility.yul\":24596:24614   */\n      add\n        /* \"#utility.yul\":24588:24614   */\n      swap1\n      pop\n        /* \"#utility.yul\":24660:24669   */\n      dup2\n        /* \"#utility.yul\":24654:24658   */\n      dup2\n        /* \"#utility.yul\":24650:24670   */\n      sub\n        /* \"#utility.yul\":24646:24647   */\n      0x00\n        /* \"#utility.yul\":24635:24644   */\n      dup4\n        /* \"#utility.yul\":24631:24648   */\n      add\n        /* \"#utility.yul\":24624:24671   */\n      mstore\n        /* \"#utility.yul\":24688:24819   */\n      tag_540\n        /* \"#utility.yul\":24814:24818   */\n      dup2\n        /* \"#utility.yul\":24688:24819   */\n      tag_325\n      jump\t// in\n    tag_540:\n        /* \"#utility.yul\":24680:24819   */\n      swap1\n      pop\n        /* \"#utility.yul\":24407:24826   */\n      swap2\n      swap1\n      pop\n      jump\t// out\n\n    auxdata: 0xa2646970667358221220a04d872616b4a7d936a58cf02d69cb34601f86d8e97b1fb385a1e93e1402ac5a64736f6c63430008140033\n}\n",
				"bytecode": {
					"linkReferences": {},
					"object": "61016060405234801562000011575f80fd5b5060405162002cfb38038062002cfb8339818101604052810190620000379190620005b3565b81806040518060400160405280600181526020017f31000000000000000000000000000000000000000000000000000000000000008152508484816003908162000082919062000878565b50806004908162000094919062000878565b505050620000ad6005836200016360201b90919060201c565b6101208181525050620000cb6006826200016360201b90919060201c565b6101408181525050818051906020012060e08181525050808051906020012061010081815250504660a081815250506200010a620001b860201b60201c565b608081815250503073ffffffffffffffffffffffffffffffffffffffff1660c08173ffffffffffffffffffffffffffffffffffffffff16815250505050506200015a33846200021460201b60201c565b50505062000c25565b5f602083511015620001885762000180836200037960201b60201c565b9050620001b2565b826200019a83620003e360201b60201c565b5f019081620001aa919062000878565b5060ff5f1b90505b92915050565b5f7f8b73c3c69bb8fe3d512ecc4cf759cc79239f7b179b0ffacaa9a75d522b39400f60e051610100514630604051602001620001f9959493929190620009ca565b60405160208183030381529060405280519060200120905090565b5f73ffffffffffffffffffffffffffffffffffffffff168273ffffffffffffffffffffffffffffffffffffffff160362000285576040517f08c379a00000000000000000000000000000000000000000000000000000000081526004016200027c9062000a83565b60405180910390fd5b620002985f8383620003ec60201b60201c565b8060025f828254620002ab919062000ad0565b92505081905550805f808473ffffffffffffffffffffffffffffffffffffffff1673ffffffffffffffffffffffffffffffffffffffff1681526020019081526020015f205f82825401925050819055508173ffffffffffffffffffffffffffffffffffffffff165f73ffffffffffffffffffffffffffffffffffffffff167fddf252ad1be2c89b69c2b068fc378daa952ba7f163c4a11628f55a4df523b3ef836040516200035a919062000b0a565b60405180910390a3620003755f8383620003f160201b60201c565b5050565b5f80829050601f81511115620003c857826040517f305a27a9000000000000000000000000000000000000000000000000000000008152600401620003bf919062000b65565b60405180910390fd5b805181620003d69062000bb6565b5f1c175f1b915050919050565b5f819050919050565b505050565b505050565b5f604051905090565b5f80fd5b5f80fd5b5f819050919050565b6200041b8162000407565b811462000426575f80fd5b50565b5f81519050620004398162000410565b92915050565b5f80fd5b5f80fd5b5f601f19601f8301169050919050565b7f4e487b71000000000000000000000000000000000000000000000000000000005f52604160045260245ffd5b6200048f8262000447565b810181811067ffffffffffffffff82111715620004b157620004b062000457565b5b80604052505050565b5f620004c5620003f6565b9050620004d3828262000484565b919050565b5f67ffffffffffffffff821115620004f557620004f462000457565b5b620005008262000447565b9050602081019050919050565b5f5b838110156200052c5780820151818401526020810190506200050f565b5f8484015250505050565b5f6200054d6200054784620004d8565b620004ba565b9050828152602081018484840111156200056c576200056b62000443565b5b620005798482856200050d565b509392505050565b5f82601f8301126200059857620005976200043f565b5b8151620005aa84826020860162000537565b91505092915050565b5f805f60608486031215620005cd57620005cc620003ff565b5b5f620005dc8682870162000429565b935050602084015167ffffffffffffffff8111156200060057620005ff62000403565b5b6200060e8682870162000581565b925050604084015167ffffffffffffffff81111562000632576200063162000403565b5b620006408682870162000581565b9150509250925092565b5f81519050919050565b7f4e487b71000000000000000000000000000000000000000000000000000000005f52602260045260245ffd5b5f60028204905060018216806200069957607f821691505b602082108103620006af57620006ae62000654565b5b50919050565b5f819050815f5260205f209050919050565b5f6020601f8301049050919050565b5f82821b905092915050565b5f60088302620007137fffffffffffffffffffffffffffffffffffffffffffffffffffffffffffffffff82620006d6565b6200071f8683620006d6565b95508019841693508086168417925050509392505050565b5f819050919050565b5f620007606200075a620007548462000407565b62000737565b62000407565b9050919050565b5f819050919050565b6200077b8362000740565b620007936200078a8262000767565b848454620006e2565b825550505050565b5f90565b620007a96200079b565b620007b681848462000770565b505050565b5b81811015620007dd57620007d15f826200079f565b600181019050620007bc565b5050565b601f8211156200082c57620007f681620006b5565b6200080184620006c7565b8101602085101562000811578190505b620008296200082085620006c7565b830182620007bb565b50505b505050565b5f82821c905092915050565b5f6200084e5f198460080262000831565b1980831691505092915050565b5f6200086883836200083d565b9150826002028217905092915050565b62000883826200064a565b67ffffffffffffffff8111156200089f576200089e62000457565b5b620008ab825462000681565b620008b8828285620007e1565b5f60209050601f831160018114620008ee575f8415620008d9578287015190505b620008e585826200085b565b86555062000954565b601f198416620008fe86620006b5565b5f5b82811015620009275784890151825560018201915060208501945060208101905062000900565b8683101562000947578489015162000943601f8916826200083d565b8355505b6001600288020188555050505b505050505050565b5f819050919050565b62000970816200095c565b82525050565b620009818162000407565b82525050565b5f73ffffffffffffffffffffffffffffffffffffffff82169050919050565b5f620009b28262000987565b9050919050565b620009c481620009a6565b82525050565b5f60a082019050620009df5f83018862000965565b620009ee602083018762000965565b620009fd604083018662000965565b62000a0c606083018562000976565b62000a1b6080830184620009b9565b9695505050505050565b5f82825260208201905092915050565b7f45524332303a206d696e7420746f20746865207a65726f2061646472657373005f82015250565b5f62000a6b601f8362000a25565b915062000a788262000a35565b602082019050919050565b5f6020820190508181035f83015262000a9c8162000a5d565b9050919050565b7f4e487b71000000000000000000000000000000000000000000000000000000005f52601160045260245ffd5b5f62000adc8262000407565b915062000ae98362000407565b925082820190508082111562000b045762000b0362000aa3565b5b92915050565b5f60208201905062000b1f5f83018462000976565b92915050565b5f62000b31826200064a565b62000b3d818562000a25565b935062000b4f8185602086016200050d565b62000b5a8162000447565b840191505092915050565b5f6020820190508181035f83015262000b7f818462000b25565b905092915050565b5f81519050919050565b5f819050602082019050919050565b5f62000bad82516200095c565b80915050919050565b5f62000bc28262000b87565b8262000bce8462000b91565b905062000bdb8162000ba0565b9250602082101562000c1e5762000c197fffffffffffffffffffffffffffffffffffffffffffffffffffffffffffffffff83602003600802620006d6565b831692505b5050919050565b60805160a05160c05160e05161010051610120516101405161208462000c775f395f61051c01525f6104e801525f61101101525f610ff001525f610d8701525f610ddd01525f610e0601526120845ff3fe608060405234801561000f575f80fd5b50600436106100f3575f3560e01c806370a0823111610095578063a457c2d711610064578063a457c2d7146102a1578063a9059cbb146102d1578063d505accf14610301578063dd62ed3e1461031d576100f3565b806370a08231146101ff5780637ecebe001461022f57806384b0196e1461025f57806395d89b4114610283576100f3565b806323b872dd116100d157806323b872dd14610163578063313ce567146101935780633644e515146101b157806339509351146101cf576100f3565b806306fdde03146100f7578063095ea7b31461011557806318160ddd14610145575b5f80fd5b6100ff61034d565b60405161010c9190611428565b60405180910390f35b61012f600480360381019061012a91906114d9565b6103dd565b60405161013c9190611531565b60405180910390f35b61014d6103ff565b60405161015a9190611559565b60405180910390f35b61017d60048036038101906101789190611572565b610408565b60405161018a9190611531565b60405180910390f35b61019b610436565b6040516101a891906115dd565b60405180910390f35b6101b961043e565b6040516101c6919061160e565b60405180910390f35b6101e960048036038101906101e491906114d9565b61044c565b6040516101f69190611531565b60405180910390f35b61021960048036038101906102149190611627565b610482565b6040516102269190611559565b60405180910390f35b61024960048036038101906102449190611627565b6104c7565b6040516102569190611559565b60405180910390f35b6102676104d8565b60405161027a9796959493929190611752565b60405180910390f35b61028b6105d5565b6040516102989190611428565b60405180910390f35b6102bb60048036038101906102b691906114d9565b610665565b6040516102c89190611531565b60405180910390f35b6102eb60048036038101906102e691906114d9565b6106da565b6040516102f89190611531565b60405180910390f35b61031b60048036038101906103169190611828565b6106fc565b005b610337600480360381019061033291906118c5565b610841565b6040516103449190611559565b60405180910390f35b60606003805461035c90611930565b80601f016020809104026020016040519081016040528092919081815260200182805461038890611930565b80156103d35780601f106103aa576101008083540402835291602001916103d3565b820191905f5260205f20905b8154815290600101906020018083116103b657829003601f168201915b5050505050905090565b5f806103e76108c3565b90506103f48185856108ca565b600191505092915050565b5f600254905090565b5f806104126108c3565b905061041f858285610a8d565b61042a858585610b18565b60019150509392505050565b5f6012905090565b5f610447610d84565b905090565b5f806104566108c3565b90506104778185856104688589610841565b610472919061198d565b6108ca565b600191505092915050565b5f805f8373ffffffffffffffffffffffffffffffffffffffff1673ffffffffffffffffffffffffffffffffffffffff1681526020019081526020015f20549050919050565b5f6104d182610e3a565b9050919050565b5f6060805f805f606061051560057f0000000000000000000000000000000000000000000000000000000000000000610e8090919063ffffffff16565b61054960067f0000000000000000000000000000000000000000000000000000000000000000610e8090919063ffffffff16565b46305f801b5f67ffffffffffffffff811115610568576105676119c0565b5b6040519080825280602002602001820160405280156105965781602001602082028036833780820191505090505b507f0f00000000000000000000000000000000000000000000000000000000000000959493929190965096509650965096509650965090919293949596565b6060600480546105e490611930565b80601f016020809104026020016040519081016040528092919081815260200182805461061090611930565b801561065b5780601f106106325761010080835404028352916020019161065b565b820191905f5260205f20905b81548152906001019060200180831161063e57829003601f168201915b5050505050905090565b5f8061066f6108c3565b90505f61067c8286610841565b9050838110156106c1576040517f08c379a00000000000000000000000000000000000000000000000000000000081526004016106b890611a5d565b60405180910390fd5b6106ce82868684036108ca565b60019250505092915050565b5f806106e46108c3565b90506106f1818585610b18565b600191505092915050565b8342111561074157836040517f627913020000000000000000000000000000000000000000000000000000000081526004016107389190611559565b60405180910390fd5b5f7f6e71edae12b1b97f4d1f60370fef10105fa2faae0126114a169c64845d6126c988888861076f8c610f2d565b8960405160200161078596959493929190611a7b565b6040516020818303038152906040528051906020012090505f6107a782610f80565b90505f6107b682878787610f99565b90508973ffffffffffffffffffffffffffffffffffffffff168173ffffffffffffffffffffffffffffffffffffffff161461082a57808a6040517f4b800e46000000000000000000000000000000000000000000000000000000008152600401610821929190611ada565b60405180910390fd5b6108358a8a8a6108ca565b50505050505050505050565b5f60015f8473ffffffffffffffffffffffffffffffffffffffff1673ffffffffffffffffffffffffffffffffffffffff1681526020019081526020015f205f8373ffffffffffffffffffffffffffffffffffffffff1673ffffffffffffffffffffffffffffffffffffffff1681526020019081526020015f2054905092915050565b5f33905090565b5f73ffffffffffffffffffffffffffffffffffffffff168373ffffffffffffffffffffffffffffffffffffffff1603610938576040517f08c379a000000000000000000000000000000000000000000000000000000000815260040161092f90611b71565b60405180910390fd5b5f73ffffffffffffffffffffffffffffffffffffffff168273ffffffffffffffffffffffffffffffffffffffff16036109a6576040517f08c379a000000000000000000000000000000000000000000000000000000000815260040161099d90611bff565b60405180910390fd5b8060015f8573ffffffffffffffffffffffffffffffffffffffff1673ffffffffffffffffffffffffffffffffffffffff1681526020019081526020015f205f8473ffffffffffffffffffffffffffffffffffffffff1673ffffffffffffffffffffffffffffffffffffffff1681526020019081526020015f20819055508173ffffffffffffffffffffffffffffffffffffffff168373ffffffffffffffffffffffffffffffffffffffff167f8c5be1e5ebec7d5bd14f71427d1e84f3dd0314c0f7b2291e5b200ac8c7c3b92583604051610a809190611559565b60405180910390a3505050565b5f610a988484610841565b90507fffffffffffffffffffffffffffffffffffffffffffffffffffffffffffffffff8114610b125781811015610b04576040517f08c379a0000000000000000000000000000000000000000000000000000000008152600401610afb90611c67565b60405180910390fd5b610b1184848484036108ca565b5b50505050565b5f73ffffffffffffffffffffffffffffffffffffffff168373ffffffffffffffffffffffffffffffffffffffff1603610b86576040517f08c379a0000000000000000000000000000000000000000000000000000000008152600401610b7d90611cf5565b60405180910390fd5b5f73ffffffffffffffffffffffffffffffffffffffff168273ffffffffffffffffffffffffffffffffffffffff1603610bf4576040517f08c379a0000000000000000000000000000000000000000000000000000000008152600401610beb90611d83565b60405180910390fd5b610bff838383610fc2565b5f805f8573ffffffffffffffffffffffffffffffffffffffff1673ffffffffffffffffffffffffffffffffffffffff1681526020019081526020015f2054905081811015610c82576040517f08c379a0000000000000000000000000000000000000000000000000000000008152600401610c7990611e11565b60405180910390fd5b8181035f808673ffffffffffffffffffffffffffffffffffffffff1673ffffffffffffffffffffffffffffffffffffffff1681526020019081526020015f2081905550815f808573ffffffffffffffffffffffffffffffffffffffff1673ffffffffffffffffffffffffffffffffffffffff1681526020019081526020015f205f82825401925050819055508273ffffffffffffffffffffffffffffffffffffffff168473ffffffffffffffffffffffffffffffffffffffff167fddf252ad1be2c89b69c2b068fc378daa952ba7f163c4a11628f55a4df523b3ef84604051610d6b9190611559565b60405180910390a3610d7e848484610fc7565b50505050565b5f7f000000000000000000000000000000000000000000000000000000000000000073ffffffffffffffffffffffffffffffffffffffff163073ffffffffffffffffffffffffffffffffffffffff16148015610dff57507f000000000000000000000000000000000000000000000000000000000000000046145b15610e2c577f00000000000000000000000000000000000000000000000000000000000000009050610e37565b610e34610fcc565b90505b90565b5f60075f8373ffffffffffffffffffffffffffffffffffffffff1673ffffffffffffffffffffffffffffffffffffffff1681526020019081526020015f20549050919050565b606060ff5f1b8314610e9c57610e9583611061565b9050610f27565b818054610ea890611930565b80601f0160208091040260200160405190810160405280929190818152602001828054610ed490611930565b8015610f1f5780601f10610ef657610100808354040283529160200191610f1f565b820191905f5260205f20905b815481529060010190602001808311610f0257829003601f168201915b505050505090505b92915050565b5f60075f8373ffffffffffffffffffffffffffffffffffffffff1673ffffffffffffffffffffffffffffffffffffffff1681526020019081526020015f205f815480929190600101919050559050919050565b5f610f92610f8c610d84565b836110d3565b9050919050565b5f805f610fa887878787611113565b91509150610fb5816111eb565b8192505050949350505050565b505050565b505050565b5f7f8b73c3c69bb8fe3d512ecc4cf759cc79239f7b179b0ffacaa9a75d522b39400f7f00000000000000000000000000000000000000000000000000000000000000007f00000000000000000000000000000000000000000000000000000000000000004630604051602001611046959493929190611e2f565b60405160208183030381529060405280519060200120905090565b60605f61106d83611350565b90505f602067ffffffffffffffff81111561108b5761108a6119c0565b5b6040519080825280601f01601f1916602001820160405280156110bd5781602001600182028036833780820191505090505b5090508181528360208201528092505050919050565b5f6040517f190100000000000000000000000000000000000000000000000000000000000081528360028201528260228201526042812091505092915050565b5f807f7fffffffffffffffffffffffffffffff5d576e7357a4501ddfe92f46681b20a0835f1c111561114b575f6003915091506111e2565b5f6001878787876040515f815260200160405260405161116e9493929190611e80565b6020604051602081039080840390855afa15801561118e573d5f803e3d5ffd5b5050506020604051035190505f73ffffffffffffffffffffffffffffffffffffffff168173ffffffffffffffffffffffffffffffffffffffff16036111da575f600192509250506111e2565b805f92509250505b94509492505050565b5f60048111156111fe576111fd611ec3565b5b81600481111561121157611210611ec3565b5b031561134d576001600481111561122b5761122a611ec3565b5b81600481111561123e5761123d611ec3565b5b0361127e576040517f08c379a000000000000000000000000000000000000000000000000000000000815260040161127590611f3a565b60405180910390fd5b6002600481111561129257611291611ec3565b5b8160048111156112a5576112a4611ec3565b5b036112e5576040517f08c379a00000000000000000000000000000000000000000000000000000000081526004016112dc90611fa2565b60405180910390fd5b600360048111156112f9576112f8611ec3565b5b81600481111561130c5761130b611ec3565b5b0361134c576040517f08c379a000000000000000000000000000000000000000000000000000000000815260040161134390612030565b60405180910390fd5b5b50565b5f8060ff835f1c169050601f811115611395576040517fb3512b0c00000000000000000000000000000000000000000000000000000000815260040160405180910390fd5b80915050919050565b5f81519050919050565b5f82825260208201905092915050565b5f5b838110156113d55780820151818401526020810190506113ba565b5f8484015250505050565b5f601f19601f8301169050919050565b5f6113fa8261139e565b61140481856113a8565b93506114148185602086016113b8565b61141d816113e0565b840191505092915050565b5f6020820190508181035f83015261144081846113f0565b905092915050565b5f80fd5b5f73ffffffffffffffffffffffffffffffffffffffff82169050919050565b5f6114758261144c565b9050919050565b6114858161146b565b811461148f575f80fd5b50565b5f813590506114a08161147c565b92915050565b5f819050919050565b6114b8816114a6565b81146114c2575f80fd5b50565b5f813590506114d3816114af565b92915050565b5f80604083850312156114ef576114ee611448565b5b5f6114fc85828601611492565b925050602061150d858286016114c5565b9150509250929050565b5f8115159050919050565b61152b81611517565b82525050565b5f6020820190506115445f830184611522565b92915050565b611553816114a6565b82525050565b5f60208201905061156c5f83018461154a565b92915050565b5f805f6060848603121561158957611588611448565b5b5f61159686828701611492565b93505060206115a786828701611492565b92505060406115b8868287016114c5565b9150509250925092565b5f60ff82169050919050565b6115d7816115c2565b82525050565b5f6020820190506115f05f8301846115ce565b92915050565b5f819050919050565b611608816115f6565b82525050565b5f6020820190506116215f8301846115ff565b92915050565b5f6020828403121561163c5761163b611448565b5b5f61164984828501611492565b91505092915050565b5f7fff0000000000000000000000000000000000000000000000000000000000000082169050919050565b61168681611652565b82525050565b6116958161146b565b82525050565b5f81519050919050565b5f82825260208201905092915050565b5f819050602082019050919050565b6116cd816114a6565b82525050565b5f6116de83836116c4565b60208301905092915050565b5f602082019050919050565b5f6117008261169b565b61170a81856116a5565b9350611715836116b5565b805f5b8381101561174557815161172c88826116d3565b9750611737836116ea565b925050600181019050611718565b5085935050505092915050565b5f60e0820190506117655f83018a61167d565b818103602083015261177781896113f0565b9050818103604083015261178b81886113f0565b905061179a606083018761154a565b6117a7608083018661168c565b6117b460a08301856115ff565b81810360c08301526117c681846116f6565b905098975050505050505050565b6117dd816115c2565b81146117e7575f80fd5b50565b5f813590506117f8816117d4565b92915050565b611807816115f6565b8114611811575f80fd5b50565b5f81359050611822816117fe565b92915050565b5f805f805f805f60e0888a03121561184357611842611448565b5b5f6118508a828b01611492565b97505060206118618a828b01611492565b96505060406118728a828b016114c5565b95505060606118838a828b016114c5565b94505060806118948a828b016117ea565b93505060a06118a58a828b01611814565b92505060c06118b68a828b01611814565b91505092959891949750929550565b5f80604083850312156118db576118da611448565b5b5f6118e885828601611492565b92505060206118f985828601611492565b9150509250929050565b7f4e487b71000000000000000000000000000000000000000000000000000000005f52602260045260245ffd5b5f600282049050600182168061194757607f821691505b60208210810361195a57611959611903565b5b50919050565b7f4e487b71000000000000000000000000000000000000000000000000000000005f52601160045260245ffd5b5f611997826114a6565b91506119a2836114a6565b92508282019050808211156119ba576119b9611960565b5b92915050565b7f4e487b71000000000000000000000000000000000000000000000000000000005f52604160045260245ffd5b7f45524332303a2064656372656173656420616c6c6f77616e63652062656c6f775f8201527f207a65726f000000000000000000000000000000000000000000000000000000602082015250565b5f611a476025836113a8565b9150611a52826119ed565b604082019050919050565b5f6020820190508181035f830152611a7481611a3b565b9050919050565b5f60c082019050611a8e5f8301896115ff565b611a9b602083018861168c565b611aa8604083018761168c565b611ab5606083018661154a565b611ac2608083018561154a565b611acf60a083018461154a565b979650505050505050565b5f604082019050611aed5f83018561168c565b611afa602083018461168c565b9392505050565b7f45524332303a20617070726f76652066726f6d20746865207a65726f206164645f8201527f7265737300000000000000000000000000000000000000000000000000000000602082015250565b5f611b5b6024836113a8565b9150611b6682611b01565b604082019050919050565b5f6020820190508181035f830152611b8881611b4f565b9050919050565b7f45524332303a20617070726f766520746f20746865207a65726f2061646472655f8201527f7373000000000000000000000000000000000000000000000000000000000000602082015250565b5f611be96022836113a8565b9150611bf482611b8f565b604082019050919050565b5f6020820190508181035f830152611c1681611bdd565b9050919050565b7f45524332303a20696e73756666696369656e7420616c6c6f77616e63650000005f82015250565b5f611c51601d836113a8565b9150611c5c82611c1d565b602082019050919050565b5f6020820190508181035f830152611c7e81611c45565b9050919050565b7f45524332303a207472616e736665722066726f6d20746865207a65726f2061645f8201527f6472657373000000000000000000000000000000000000000000000000000000602082015250565b5f611cdf6025836113a8565b9150611cea82611c85565b604082019050919050565b5f6020820190508181035f830152611d0c81611cd3565b9050919050565b7f45524332303a207472616e7366657220746f20746865207a65726f20616464725f8201527f6573730000000000000000000000000000000000000000000000000000000000602082015250565b5f611d6d6023836113a8565b9150611d7882611d13565b604082019050919050565b5f6020820190508181035f830152611d9a81611d61565b9050919050565b7f45524332303a207472616e7366657220616d6f756e74206578636565647320625f8201527f616c616e63650000000000000000000000000000000000000000000000000000602082015250565b5f611dfb6026836113a8565b9150611e0682611da1565b604082019050919050565b5f6020820190508181035f830152611e2881611def565b9050919050565b5f60a082019050611e425f8301886115ff565b611e4f60208301876115ff565b611e5c60408301866115ff565b611e69606083018561154a565b611e76608083018461168c565b9695505050505050565b5f608082019050611e935f8301876115ff565b611ea060208301866115ce565b611ead60408301856115ff565b611eba60608301846115ff565b95945050505050565b7f4e487b71000000000000000000000000000000000000000000000000000000005f52602160045260245ffd5b7f45434453413a20696e76616c6964207369676e617475726500000000000000005f82015250565b5f611f246018836113a8565b9150611f2f82611ef0565b602082019050919050565b5f6020820190508181035f830152611f5181611f18565b9050919050565b7f45434453413a20696e76616c6964207369676e6174757265206c656e677468005f82015250565b5f611f8c601f836113a8565b9150611f9782611f58565b602082019050919050565b5f6020820190508181035f830152611fb981611f80565b9050919050565b7f45434453413a20696e76616c6964207369676e6174757265202773272076616c5f8201527f7565000000000000000000000000000000000000000000000000000000000000602082015250565b5f61201a6022836113a8565b915061202582611fc0565b604082019050919050565b5f6020820190508181035f8301526120478161200e565b905091905056fea2646970667358221220a04d872616b4a7d936a58cf02d69cb34601f86d8e97b1fb385a1e93e1402ac5a64736f6c63430008140033",
					"opcodes": "PUSH2 0x160 PUSH1 0x40 MSTORE CALLVALUE DUP1 ISZERO PUSH3 0x11 JUMPI PUSH0 DUP1 REVERT JUMPDEST POP PUSH1 0x40 MLOAD PUSH3 0x2CFB CODESIZE SUB DUP1 PUSH3 0x2CFB DUP4 CODECOPY DUP2 DUP2 ADD PUSH1 0x40 MSTORE DUP2 ADD SWAP1 PUSH3 0x37 SWAP2 SWAP1 PUSH3 0x5B3 JUMP JUMPDEST DUP2 DUP1 PUSH1 0x40 MLOAD DUP1 PUSH1 0x40 ADD PUSH1 0x40 MSTORE DUP1 PUSH1 0x1 DUP2 MSTORE PUSH1 0x20 ADD PUSH32 0x3100000000000000000000000000000000000000000000000000000000000000 DUP2 MSTORE POP DUP5 DUP5 DUP2 PUSH1 0x3 SWAP1 DUP2 PUSH3 0x82 SWAP2 SWAP1 PUSH3 0x878 JUMP JUMPDEST POP DUP1 PUSH1 0x4 SWAP1 DUP2 PUSH3 0x94 SWAP2 SWAP1 PUSH3 0x878 JUMP JUMPDEST POP POP POP PUSH3 0xAD PUSH1 0x5 DUP4 PUSH3 0x163 PUSH1 0x20 SHL SWAP1 SWAP2 SWAP1 PUSH1 0x20 SHR JUMP JUMPDEST PUSH2 0x120 DUP2 DUP2 MSTORE POP POP PUSH3 0xCB PUSH1 0x6 DUP3 PUSH3 0x163 PUSH1 0x20 SHL SWAP1 SWAP2 SWAP1 PUSH1 0x20 SHR JUMP JUMPDEST PUSH2 0x140 DUP2 DUP2 MSTORE POP POP DUP2 DUP1 MLOAD SWAP1 PUSH1 0x20 ADD KECCAK256 PUSH1 0xE0 DUP2 DUP2 MSTORE POP POP DUP1 DUP1 MLOAD SWAP1 PUSH1 0x20 ADD KECCAK256 PUSH2 0x100 DUP2 DUP2 MSTORE POP POP CHAINID PUSH1 0xA0 DUP2 DUP2 MSTORE POP POP PUSH3 0x10A PUSH3 0x1B8 PUSH1 0x20 SHL PUSH1 0x20 SHR JUMP JUMPDEST PUSH1 0x80 DUP2 DUP2 MSTORE POP POP ADDRESS PUSH20 0xFFFFFFFFFFFFFFFFFFFFFFFFFFFFFFFFFFFFFFFF AND PUSH1 0xC0 DUP2 PUSH20 0xFFFFFFFFFFFFFFFFFFFFFFFFFFFFFFFFFFFFFFFF AND DUP2 MSTORE POP POP POP POP POP PUSH3 0x15A CALLER DUP5 PUSH3 0x214 PUSH1 0x20 SHL PUSH1 0x20 SHR JUMP JUMPDEST POP POP POP PUSH3 0xC25 JUMP JUMPDEST PUSH0 PUSH1 0x20 DUP4 MLOAD LT ISZERO PUSH3 0x188 JUMPI PUSH3 0x180 DUP4 PUSH3 0x379 PUSH1 0x20 SHL PUSH1 0x20 SHR JUMP JUMPDEST SWAP1 POP PUSH3 0x1B2 JUMP JUMPDEST DUP3 PUSH3 0x19A DUP4 PUSH3 0x3E3 PUSH1 0x20 SHL PUSH1 0x20 SHR JUMP JUMPDEST PUSH0 ADD SWAP1 DUP2 PUSH3 0x1AA SWAP2 SWAP1 PUSH3 0x878 JUMP JUMPDEST POP PUSH1 0xFF PUSH0 SHL SWAP1 POP JUMPDEST SWAP3 SWAP2 POP POP JUMP JUMPDEST PUSH0 PUSH32 0x8B73C3C69BB8FE3D512ECC4CF759CC79239F7B179B0FFACAA9A75D522B39400F PUSH1 0xE0 MLOAD PUSH2 0x100 MLOAD CHAINID ADDRESS PUSH1 0x40 MLOAD PUSH1 0x20 ADD PUSH3 0x1F9 SWAP6 SWAP5 SWAP4 SWAP3 SWAP2 SWAP1 PUSH3 0x9CA JUMP JUMPDEST PUSH1 0x40 MLOAD PUSH1 0x20 DUP2 DUP4 SUB SUB DUP2 MSTORE SWAP1 PUSH1 0x40 MSTORE DUP1 MLOAD SWAP1 PUSH1 0x20 ADD KECCAK256 SWAP1 POP SWAP1 JUMP JUMPDEST PUSH0 PUSH20 0xFFFFFFFFFFFFFFFFFFFFFFFFFFFFFFFFFFFFFFFF AND DUP3 PUSH20 0xFFFFFFFFFFFFFFFFFFFFFFFFFFFFFFFFFFFFFFFF AND SUB PUSH3 0x285 JUMPI PUSH1 0x40 MLOAD PUSH32 0x8C379A000000000000000000000000000000000000000000000000000000000 DUP2 MSTORE PUSH1 0x4 ADD PUSH3 0x27C SWAP1 PUSH3 0xA83 JUMP JUMPDEST PUSH1 0x40 MLOAD DUP1 SWAP2 SUB SWAP1 REVERT JUMPDEST PUSH3 0x298 PUSH0 DUP4 DUP4 PUSH3 0x3EC PUSH1 0x20 SHL PUSH1 0x20 SHR JUMP JUMPDEST DUP1 PUSH1 0x2 PUSH0 DUP3 DUP3 SLOAD PUSH3 0x2AB SWAP2 SWAP1 PUSH3 0xAD0 JUMP JUMPDEST SWAP3 POP POP DUP2 SWAP1 SSTORE POP DUP1 PUSH0 DUP1 DUP5 PUSH20 0xFFFFFFFFFFFFFFFFFFFFFFFFFFFFFFFFFFFFFFFF AND PUSH20 0xFFFFFFFFFFFFFFFFFFFFFFFFFFFFFFFFFFFFFFFF AND DUP2 MSTORE PUSH1 0x20 ADD SWAP1 DUP2 MSTORE PUSH1 0x20 ADD PUSH0 KECCAK256 PUSH0 DUP3 DUP3 SLOAD ADD SWAP3 POP POP DUP2 SWAP1 SSTORE POP DUP2 PUSH20 0xFFFFFFFFFFFFFFFFFFFFFFFFFFFFFFFFFFFFFFFF AND PUSH0 PUSH20 0xFFFFFFFFFFFFFFFFFFFFFFFFFFFFFFFFFFFFFFFF AND PUSH32 0xDDF252AD1BE2C89B69C2B068FC378DAA952BA7F163C4A11628F55A4DF523B3EF DUP4 PUSH1 0x40 MLOAD PUSH3 0x35A SWAP2 SWAP1 PUSH3 0xB0A JUMP JUMPDEST PUSH1 0x40 MLOAD DUP1 SWAP2 SUB SWAP1 LOG3 PUSH3 0x375 PUSH0 DUP4 DUP4 PUSH3 0x3F1 PUSH1 0x20 SHL PUSH1 0x20 SHR JUMP JUMPDEST POP POP JUMP JUMPDEST PUSH0 DUP1 DUP3 SWAP1 POP PUSH1 0x1F DUP2 MLOAD GT ISZERO PUSH3 0x3C8 JUMPI DUP3 PUSH1 0x40 MLOAD PUSH32 0x305A27A900000000000000000000000000000000000000000000000000000000 DUP2 MSTORE PUSH1 0x4 ADD PUSH3 0x3BF SWAP2 SWAP1 PUSH3 0xB65 JUMP JUMPDEST PUSH1 0x40 MLOAD DUP1 SWAP2 SUB SWAP1 REVERT JUMPDEST DUP1 MLOAD DUP2 PUSH3 0x3D6 SWAP1 PUSH3 0xBB6 JUMP JUMPDEST PUSH0 SHR OR PUSH0 SHL SWAP2 POP POP SWAP2 SWAP1 POP JUMP JUMPDEST PUSH0 DUP2 SWAP1 POP SWAP2 SWAP1 POP JUMP JUMPDEST POP POP POP JUMP JUMPDEST POP POP POP JUMP JUMPDEST PUSH0 PUSH1 0x40 MLOAD SWAP1 POP SWAP1 JUMP JUMPDEST PUSH0 DUP1 REVERT JUMPDEST PUSH0 DUP1 REVERT JUMPDEST PUSH0 DUP2 SWAP1 POP SWAP2 SWAP1 POP JUMP JUMPDEST PUSH3 0x41B DUP2 PUSH3 0x407 JUMP JUMPDEST DUP2 EQ PUSH3 0x426 JUMPI PUSH0 DUP1 REVERT JUMPDEST POP JUMP JUMPDEST PUSH0 DUP2 MLOAD SWAP1 POP PUSH3 0x439 DUP2 PUSH3 0x410 JUMP JUMPDEST SWAP3 SWAP2 POP POP JUMP JUMPDEST PUSH0 DUP1 REVERT JUMPDEST PUSH0 DUP1 REVERT JUMPDEST PUSH0 PUSH1 0x1F NOT PUSH1 0x1F DUP4 ADD AND SWAP1 POP SWAP2 SWAP1 POP JUMP JUMPDEST PUSH32 0x4E487B7100000000000000000000000000000000000000000000000000000000 PUSH0 MSTORE PUSH1 0x41 PUSH1 0x4 MSTORE PUSH1 0x24 PUSH0 REVERT JUMPDEST PUSH3 0x48F DUP3 PUSH3 0x447 JUMP JUMPDEST DUP2 ADD DUP2 DUP2 LT PUSH8 0xFFFFFFFFFFFFFFFF DUP3 GT OR ISZERO PUSH3 0x4B1 JUMPI PUSH3 0x4B0 PUSH3 0x457 JUMP JUMPDEST JUMPDEST DUP1 PUSH1 0x40 MSTORE POP POP POP JUMP JUMPDEST PUSH0 PUSH3 0x4C5 PUSH3 0x3F6 JUMP JUMPDEST SWAP1 POP PUSH3 0x4D3 DUP3 DUP3 PUSH3 0x484 JUMP JUMPDEST SWAP2 SWAP1 POP JUMP JUMPDEST PUSH0 PUSH8 0xFFFFFFFFFFFFFFFF DUP3 GT ISZERO PUSH3 0x4F5 JUMPI PUSH3 0x4F4 PUSH3 0x457 JUMP JUMPDEST JUMPDEST PUSH3 0x500 DUP3 PUSH3 0x447 JUMP JUMPDEST SWAP1 POP PUSH1 0x20 DUP2 ADD SWAP1 POP SWAP2 SWAP1 POP JUMP JUMPDEST PUSH0 JUMPDEST DUP4 DUP2 LT ISZERO PUSH3 0x52C JUMPI DUP1 DUP3 ADD MLOAD DUP2 DUP5 ADD MSTORE PUSH1 0x20 DUP2 ADD SWAP1 POP PUSH3 0x50F JUMP JUMPDEST PUSH0 DUP5 DUP5 ADD MSTORE POP POP POP POP JUMP JUMPDEST PUSH0 PUSH3 0x54D PUSH3 0x547 DUP5 PUSH3 0x4D8 JUMP JUMPDEST PUSH3 0x4BA JUMP JUMPDEST SWAP1 POP DUP3 DUP2 MSTORE PUSH1 0x20 DUP2 ADD DUP5 DUP5 DUP5 ADD GT ISZERO PUSH3 0x56C JUMPI PUSH3 0x56B PUSH3 0x443 JUMP JUMPDEST JUMPDEST PUSH3 0x579 DUP5 DUP3 DUP6 PUSH3 0x50D JUMP JUMPDEST POP SWAP4 SWAP3 POP POP POP JUMP JUMPDEST PUSH0 DUP3 PUSH1 0x1F DUP4 ADD SLT PUSH3 0x598 JUMPI PUSH3 0x597 PUSH3 0x43F JUMP JUMPDEST JUMPDEST DUP2 MLOAD PUSH3 0x5AA DUP5 DUP3 PUSH1 0x20 DUP7 ADD PUSH3 0x537 JUMP JUMPDEST SWAP2 POP POP SWAP3 SWAP2 POP POP JUMP JUMPDEST PUSH0 DUP1 PUSH0 PUSH1 0x60 DUP5 DUP7 SUB SLT ISZERO PUSH3 0x5CD JUMPI PUSH3 0x5CC PUSH3 0x3FF JUMP JUMPDEST JUMPDEST PUSH0 PUSH3 0x5DC DUP7 DUP3 DUP8 ADD PUSH3 0x429 JUMP JUMPDEST SWAP4 POP POP PUSH1 0x20 DUP5 ADD MLOAD PUSH8 0xFFFFFFFFFFFFFFFF DUP2 GT ISZERO PUSH3 0x600 JUMPI PUSH3 0x5FF PUSH3 0x403 JUMP JUMPDEST JUMPDEST PUSH3 0x60E DUP7 DUP3 DUP8 ADD PUSH3 0x581 JUMP JUMPDEST SWAP3 POP POP PUSH1 0x40 DUP5 ADD MLOAD PUSH8 0xFFFFFFFFFFFFFFFF DUP2 GT ISZERO PUSH3 0x632 JUMPI PUSH3 0x631 PUSH3 0x403 JUMP JUMPDEST JUMPDEST PUSH3 0x640 DUP7 DUP3 DUP8 ADD PUSH3 0x581 JUMP JUMPDEST SWAP2 POP POP SWAP3 POP SWAP3 POP SWAP3 JUMP JUMPDEST PUSH0 DUP2 MLOAD SWAP1 POP SWAP2 SWAP1 POP JUMP JUMPDEST PUSH32 0x4E487B7100000000000000000000000000000000000000000000000000000000 PUSH0 MSTORE PUSH1 0x22 PUSH1 0x4 MSTORE PUSH1 0x24 PUSH0 REVERT JUMPDEST PUSH0 PUSH1 0x2 DUP3 DIV SWAP1 POP PUSH1 0x1 DUP3 AND DUP1 PUSH3 0x699 JUMPI PUSH1 0x7F DUP3 AND SWAP2 POP JUMPDEST PUSH1 0x20 DUP3 LT DUP2 SUB PUSH3 0x6AF JUMPI PUSH3 0x6AE PUSH3 0x654 JUMP JUMPDEST JUMPDEST POP SWAP2 SWAP1 POP JUMP JUMPDEST PUSH0 DUP2 SWAP1 POP DUP2 PUSH0 MSTORE PUSH1 0x20 PUSH0 KECCAK256 SWAP1 POP SWAP2 SWAP1 POP JUMP JUMPDEST PUSH0 PUSH1 0x20 PUSH1 0x1F DUP4 ADD DIV SWAP1 POP SWAP2 SWAP1 POP JUMP JUMPDEST PUSH0 DUP3 DUP3 SHL SWAP1 POP SWAP3 SWAP2 POP POP JUMP JUMPDEST PUSH0 PUSH1 0x8 DUP4 MUL PUSH3 0x713 PUSH32 0xFFFFFFFFFFFFFFFFFFFFFFFFFFFFFFFFFFFFFFFFFFFFFFFFFFFFFFFFFFFFFFFF DUP3 PUSH3 0x6D6 JUMP JUMPDEST PUSH3 0x71F DUP7 DUP4 PUSH3 0x6D6 JUMP JUMPDEST SWAP6 POP DUP1 NOT DUP5 AND SWAP4 POP DUP1 DUP7 AND DUP5 OR SWAP3 POP POP POP SWAP4 SWAP3 POP POP POP JUMP JUMPDEST PUSH0 DUP2 SWAP1 POP SWAP2 SWAP1 POP JUMP JUMPDEST PUSH0 PUSH3 0x760 PUSH3 0x75A PUSH3 0x754 DUP5 PUSH3 0x407 JUMP JUMPDEST PUSH3 0x737 JUMP JUMPDEST PUSH3 0x407 JUMP JUMPDEST SWAP1 POP SWAP2 SWAP1 POP JUMP JUMPDEST PUSH0 DUP2 SWAP1 POP SWAP2 SWAP1 POP JUMP JUMPDEST PUSH3 0x77B DUP4 PUSH3 0x740 JUMP JUMPDEST PUSH3 0x793 PUSH3 0x78A DUP3 PUSH3 0x767 JUMP JUMPDEST DUP5 DUP5 SLOAD PUSH3 0x6E2 JUMP JUMPDEST DUP3 SSTORE POP POP POP POP JUMP JUMPDEST PUSH0 SWAP1 JUMP JUMPDEST PUSH3 0x7A9 PUSH3 0x79B JUMP JUMPDEST PUSH3 0x7B6 DUP2 DUP5 DUP5 PUSH3 0x770 JUMP JUMPDEST POP POP POP JUMP JUMPDEST JUMPDEST DUP2 DUP2 LT ISZERO PUSH3 0x7DD JUMPI PUSH3 0x7D1 PUSH0 DUP3 PUSH3 0x79F JUMP JUMPDEST PUSH1 0x1 DUP2 ADD SWAP1 POP PUSH3 0x7BC JUMP JUMPDEST POP POP JUMP JUMPDEST PUSH1 0x1F DUP3 GT ISZERO PUSH3 0x82C JUMPI PUSH3 0x7F6 DUP2 PUSH3 0x6B5 JUMP JUMPDEST PUSH3 0x801 DUP5 PUSH3 0x6C7 JUMP JUMPDEST DUP2 ADD PUSH1 0x20 DUP6 LT ISZERO PUSH3 0x811 JUMPI DUP2 SWAP1 POP JUMPDEST PUSH3 0x829 PUSH3 0x820 DUP6 PUSH3 0x6C7 JUMP JUMPDEST DUP4 ADD DUP3 PUSH3 0x7BB JUMP JUMPDEST POP POP JUMPDEST POP POP POP JUMP JUMPDEST PUSH0 DUP3 DUP3 SHR SWAP1 POP SWAP3 SWAP2 POP POP JUMP JUMPDEST PUSH0 PUSH3 0x84E PUSH0 NOT DUP5 PUSH1 0x8 MUL PUSH3 0x831 JUMP JUMPDEST NOT DUP1 DUP4 AND SWAP2 POP POP SWAP3 SWAP2 POP POP JUMP JUMPDEST PUSH0 PUSH3 0x868 DUP4 DUP4 PUSH3 0x83D JUMP JUMPDEST SWAP2 POP DUP3 PUSH1 0x2 MUL DUP3 OR SWAP1 POP SWAP3 SWAP2 POP POP JUMP JUMPDEST PUSH3 0x883 DUP3 PUSH3 0x64A JUMP JUMPDEST PUSH8 0xFFFFFFFFFFFFFFFF DUP2 GT ISZERO PUSH3 0x89F JUMPI PUSH3 0x89E PUSH3 0x457 JUMP JUMPDEST JUMPDEST PUSH3 0x8AB DUP3 SLOAD PUSH3 0x681 JUMP JUMPDEST PUSH3 0x8B8 DUP3 DUP3 DUP6 PUSH3 0x7E1 JUMP JUMPDEST PUSH0 PUSH1 0x20 SWAP1 POP PUSH1 0x1F DUP4 GT PUSH1 0x1 DUP2 EQ PUSH3 0x8EE JUMPI PUSH0 DUP5 ISZERO PUSH3 0x8D9 JUMPI DUP3 DUP8 ADD MLOAD SWAP1 POP JUMPDEST PUSH3 0x8E5 DUP6 DUP3 PUSH3 0x85B JUMP JUMPDEST DUP7 SSTORE POP PUSH3 0x954 JUMP JUMPDEST PUSH1 0x1F NOT DUP5 AND PUSH3 0x8FE DUP7 PUSH3 0x6B5 JUMP JUMPDEST PUSH0 JUMPDEST DUP3 DUP2 LT ISZERO PUSH3 0x927 JUMPI DUP5 DUP10 ADD MLOAD DUP3 SSTORE PUSH1 0x1 DUP3 ADD SWAP2 POP PUSH1 0x20 DUP6 ADD SWAP5 POP PUSH1 0x20 DUP2 ADD SWAP1 POP PUSH3 0x900 JUMP JUMPDEST DUP7 DUP4 LT ISZERO PUSH3 0x947 JUMPI DUP5 DUP10 ADD MLOAD PUSH3 0x943 PUSH1 0x1F DUP10 AND DUP3 PUSH3 0x83D JUMP JUMPDEST DUP4 SSTORE POP JUMPDEST PUSH1 0x1 PUSH1 0x2 DUP9 MUL ADD DUP9 SSTORE POP POP POP JUMPDEST POP POP POP POP POP POP JUMP JUMPDEST PUSH0 DUP2 SWAP1 POP SWAP2 SWAP1 POP JUMP JUMPDEST PUSH3 0x970 DUP2 PUSH3 0x95C JUMP JUMPDEST DUP3 MSTORE POP POP JUMP JUMPDEST PUSH3 0x981 DUP2 PUSH3 0x407 JUMP JUMPDEST DUP3 MSTORE POP POP JUMP JUMPDEST PUSH0 PUSH20 0xFFFFFFFFFFFFFFFFFFFFFFFFFFFFFFFFFFFFFFFF DUP3 AND SWAP1 POP SWAP2 SWAP1 POP JUMP JUMPDEST PUSH0 PUSH3 0x9B2 DUP3 PUSH3 0x987 JUMP JUMPDEST SWAP1 POP SWAP2 SWAP1 POP JUMP JUMPDEST PUSH3 0x9C4 DUP2 PUSH3 0x9A6 JUMP JUMPDEST DUP3 MSTORE POP POP JUMP JUMPDEST PUSH0 PUSH1 0xA0 DUP3 ADD SWAP1 POP PUSH3 0x9DF PUSH0 DUP4 ADD DUP9 PUSH3 0x965 JUMP JUMPDEST PUSH3 0x9EE PUSH1 0x20 DUP4 ADD DUP8 PUSH3 0x965 JUMP JUMPDEST PUSH3 0x9FD PUSH1 0x40 DUP4 ADD DUP7 PUSH3 0x965 JUMP JUMPDEST PUSH3 0xA0C PUSH1 0x60 DUP4 ADD DUP6 PUSH3 0x976 JUMP JUMPDEST PUSH3 0xA1B PUSH1 0x80 DUP4 ADD DUP5 PUSH3 0x9B9 JUMP JUMPDEST SWAP7 SWAP6 POP POP POP POP POP POP JUMP JUMPDEST PUSH0 DUP3 DUP3 MSTORE PUSH1 0x20 DUP3 ADD SWAP1 POP SWAP3 SWAP2 POP POP JUMP JUMPDEST PUSH32 0x45524332303A206D696E7420746F20746865207A65726F206164647265737300 PUSH0 DUP3 ADD MSTORE POP JUMP JUMPDEST PUSH0 PUSH3 0xA6B PUSH1 0x1F DUP4 PUSH3 0xA25 JUMP JUMPDEST SWAP2 POP PUSH3 0xA78 DUP3 PUSH3 0xA35 JUMP JUMPDEST PUSH1 0x20 DUP3 ADD SWAP1 POP SWAP2 SWAP1 POP JUMP JUMPDEST PUSH0 PUSH1 0x20 DUP3 ADD SWAP1 POP DUP2 DUP2 SUB PUSH0 DUP4 ADD MSTORE PUSH3 0xA9C DUP2 PUSH3 0xA5D JUMP JUMPDEST SWAP1 POP SWAP2 SWAP1 POP JUMP JUMPDEST PUSH32 0x4E487B7100000000000000000000000000000000000000000000000000000000 PUSH0 MSTORE PUSH1 0x11 PUSH1 0x4 MSTORE PUSH1 0x24 PUSH0 REVERT JUMPDEST PUSH0 PUSH3 0xADC DUP3 PUSH3 0x407 JUMP JUMPDEST SWAP2 POP PUSH3 0xAE9 DUP4 PUSH3 0x407 JUMP JUMPDEST SWAP3 POP DUP3 DUP3 ADD SWAP1 POP DUP1 DUP3 GT ISZERO PUSH3 0xB04 JUMPI PUSH3 0xB03 PUSH3 0xAA3 JUMP JUMPDEST JUMPDEST SWAP3 SWAP2 POP POP JUMP JUMPDEST PUSH0 PUSH1 0x20 DUP3 ADD SWAP1 POP PUSH3 0xB1F PUSH0 DUP4 ADD DUP5 PUSH3 0x976 JUMP JUMPDEST SWAP3 SWAP2 POP POP JUMP JUMPDEST PUSH0 PUSH3 0xB31 DUP3 PUSH3 0x64A JUMP JUMPDEST PUSH3 0xB3D DUP2 DUP6 PUSH3 0xA25 JUMP JUMPDEST SWAP4 POP PUSH3 0xB4F DUP2 DUP6 PUSH1 0x20 DUP7 ADD PUSH3 0x50D JUMP JUMPDEST PUSH3 0xB5A DUP2 PUSH3 0x447 JUMP JUMPDEST DUP5 ADD SWAP2 POP POP SWAP3 SWAP2 POP POP JUMP JUMPDEST PUSH0 PUSH1 0x20 DUP3 ADD SWAP1 POP DUP2 DUP2 SUB PUSH0 DUP4 ADD MSTORE PUSH3 0xB7F DUP2 DUP5 PUSH3 0xB25 JUMP JUMPDEST SWAP1 POP SWAP3 SWAP2 POP POP JUMP JUMPDEST PUSH0 DUP2 MLOAD SWAP1 POP SWAP2 SWAP1 POP JUMP JUMPDEST PUSH0 DUP2 SWAP1 POP PUSH1 0x20 DUP3 ADD SWAP1 POP SWAP2 SWAP1 POP JUMP JUMPDEST PUSH0 PUSH3 0xBAD DUP3 MLOAD PUSH3 0x95C JUMP JUMPDEST DUP1 SWAP2 POP POP SWAP2 SWAP1 POP JUMP JUMPDEST PUSH0 PUSH3 0xBC2 DUP3 PUSH3 0xB87 JUMP JUMPDEST DUP3 PUSH3 0xBCE DUP5 PUSH3 0xB91 JUMP JUMPDEST SWAP1 POP PUSH3 0xBDB DUP2 PUSH3 0xBA0 JUMP JUMPDEST SWAP3 POP PUSH1 0x20 DUP3 LT ISZERO PUSH3 0xC1E JUMPI PUSH3 0xC19 PUSH32 0xFFFFFFFFFFFFFFFFFFFFFFFFFFFFFFFFFFFFFFFFFFFFFFFFFFFFFFFFFFFFFFFF DUP4 PUSH1 0x20 SUB PUSH1 0x8 MUL PUSH3 0x6D6 JUMP JUMPDEST DUP4 AND SWAP3 POP JUMPDEST POP POP SWAP2 SWAP1 POP JUMP JUMPDEST PUSH1 0x80 MLOAD PUSH1 0xA0 MLOAD PUSH1 0xC0 MLOAD PUSH1 0xE0 MLOAD PUSH2 0x100 MLOAD PUSH2 0x120 MLOAD PUSH2 0x140 MLOAD PUSH2 0x2084 PUSH3 0xC77 PUSH0 CODECOPY PUSH0 PUSH2 0x51C ADD MSTORE PUSH0 PUSH2 0x4E8 ADD MSTORE PUSH0 PUSH2 0x1011 ADD MSTORE PUSH0 PUSH2 0xFF0 ADD MSTORE PUSH0 PUSH2 0xD87 ADD MSTORE PUSH0 PUSH2 0xDDD ADD MSTORE PUSH0 PUSH2 0xE06 ADD MSTORE PUSH2 0x2084 PUSH0 RETURN INVALID PUSH1 0x80 PUSH1 0x40 MSTORE CALLVALUE DUP1 ISZERO PUSH2 0xF JUMPI PUSH0 DUP1 REVERT JUMPDEST POP PUSH1 0x4 CALLDATASIZE LT PUSH2 0xF3 JUMPI PUSH0 CALLDATALOAD PUSH1 0xE0 SHR DUP1 PUSH4 0x70A08231 GT PUSH2 0x95 JUMPI DUP1 PUSH4 0xA457C2D7 GT PUSH2 0x64 JUMPI DUP1 PUSH4 0xA457C2D7 EQ PUSH2 0x2A1 JUMPI DUP1 PUSH4 0xA9059CBB EQ PUSH2 0x2D1 JUMPI DUP1 PUSH4 0xD505ACCF EQ PUSH2 0x301 JUMPI DUP1 PUSH4 0xDD62ED3E EQ PUSH2 0x31D JUMPI PUSH2 0xF3 JUMP JUMPDEST DUP1 PUSH4 0x70A08231 EQ PUSH2 0x1FF JUMPI DUP1 PUSH4 0x7ECEBE00 EQ PUSH2 0x22F JUMPI DUP1 PUSH4 0x84B0196E EQ PUSH2 0x25F JUMPI DUP1 PUSH4 0x95D89B41 EQ PUSH2 0x283 JUMPI PUSH2 0xF3 JUMP JUMPDEST DUP1 PUSH4 0x23B872DD GT PUSH2 0xD1 JUMPI DUP1 PUSH4 0x23B872DD EQ PUSH2 0x163 JUMPI DUP1 PUSH4 0x313CE567 EQ PUSH2 0x193 JUMPI DUP1 PUSH4 0x3644E515 EQ PUSH2 0x1B1 JUMPI DUP1 PUSH4 0x39509351 EQ PUSH2 0x1CF JUMPI PUSH2 0xF3 JUMP JUMPDEST DUP1 PUSH4 0x6FDDE03 EQ PUSH2 0xF7 JUMPI DUP1 PUSH4 0x95EA7B3 EQ PUSH2 0x115 JUMPI DUP1 PUSH4 0x18160DDD EQ PUSH2 0x145 JUMPI JUMPDEST PUSH0 DUP1 REVERT JUMPDEST PUSH2 0xFF PUSH2 0x34D JUMP JUMPDEST PUSH1 0x40 MLOAD PUSH2 0x10C SWAP2 SWAP1 PUSH2 0x1428 JUMP JUMPDEST PUSH1 0x40 MLOAD DUP1 SWAP2 SUB SWAP1 RETURN JUMPDEST PUSH2 0x12F PUSH1 0x4 DUP1 CALLDATASIZE SUB DUP2 ADD SWAP1 PUSH2 0x12A SWAP2 SWAP1 PUSH2 0x14D9 JUMP JUMPDEST PUSH2 0x3DD JUMP JUMPDEST PUSH1 0x40 MLOAD PUSH2 0x13C SWAP2 SWAP1 PUSH2 0x1531 JUMP JUMPDEST PUSH1 0x40 MLOAD DUP1 SWAP2 SUB SWAP1 RETURN JUMPDEST PUSH2 0x14D PUSH2 0x3FF JUMP JUMPDEST PUSH1 0x40 MLOAD PUSH2 0x15A SWAP2 SWAP1 PUSH2 0x1559 JUMP JUMPDEST PUSH1 0x40 MLOAD DUP1 SWAP2 SUB SWAP1 RETURN JUMPDEST PUSH2 0x17D PUSH1 0x4 DUP1 CALLDATASIZE SUB DUP2 ADD SWAP1 PUSH2 0x178 SWAP2 SWAP1 PUSH2 0x1572 JUMP JUMPDEST PUSH2 0x408 JUMP JUMPDEST PUSH1 0x40 MLOAD PUSH2 0x18A SWAP2 SWAP1 PUSH2 0x1531 JUMP JUMPDEST PUSH1 0x40 MLOAD DUP1 SWAP2 SUB SWAP1 RETURN JUMPDEST PUSH2 0x19B PUSH2 0x436 JUMP JUMPDEST PUSH1 0x40 MLOAD PUSH2 0x1A8 SWAP2 SWAP1 PUSH2 0x15DD JUMP JUMPDEST PUSH1 0x40 MLOAD DUP1 SWAP2 SUB SWAP1 RETURN JUMPDEST PUSH2 0x1B9 PUSH2 0x43E JUMP JUMPDEST PUSH1 0x40 MLOAD PUSH2 0x1C6 SWAP2 SWAP1 PUSH2 0x160E JUMP JUMPDEST PUSH1 0x40 MLOAD DUP1 SWAP2 SUB SWAP1 RETURN JUMPDEST PUSH2 0x1E9 PUSH1 0x4 DUP1 CALLDATASIZE SUB DUP2 ADD SWAP1 PUSH2 0x1E4 SWAP2 SWAP1 PUSH2 0x14D9 JUMP JUMPDEST PUSH2 0x44C JUMP JUMPDEST PUSH1 0x40 MLOAD PUSH2 0x1F6 SWAP2 SWAP1 PUSH2 0x1531 JUMP JUMPDEST PUSH1 0x40 MLOAD DUP1 SWAP2 SUB SWAP1 RETURN JUMPDEST PUSH2 0x219 PUSH1 0x4 DUP1 CALLDATASIZE SUB DUP2 ADD SWAP1 PUSH2 0x214 SWAP2 SWAP1 PUSH2 0x1627 JUMP JUMPDEST PUSH2 0x482 JUMP JUMPDEST PUSH1 0x40 MLOAD PUSH2 0x226 SWAP2 SWAP1 PUSH2 0x1559 JUMP JUMPDEST PUSH1 0x40 MLOAD DUP1 SWAP2 SUB SWAP1 RETURN JUMPDEST PUSH2 0x249 PUSH1 0x4 DUP1 CALLDATASIZE SUB DUP2 ADD SWAP1 PUSH2 0x244 SWAP2 SWAP1 PUSH2 0x1627 JUMP JUMPDEST PUSH2 0x4C7 JUMP JUMPDEST PUSH1 0x40 MLOAD PUSH2 0x256 SWAP2 SWAP1 PUSH2 0x1559 JUMP JUMPDEST PUSH1 0x40 MLOAD DUP1 SWAP2 SUB SWAP1 RETURN JUMPDEST PUSH2 0x267 PUSH2 0x4D8 JUMP JUMPDEST PUSH1 0x40 MLOAD PUSH2 0x27A SWAP8 SWAP7 SWAP6 SWAP5 SWAP4 SWAP3 SWAP2 SWAP1 PUSH2 0x1752 JUMP JUMPDEST PUSH1 0x40 MLOAD DUP1 SWAP2 SUB SWAP1 RETURN JUMPDEST PUSH2 0x28B PUSH2 0x5D5 JUMP JUMPDEST PUSH1 0x40 MLOAD PUSH2 0x298 SWAP2 SWAP1 PUSH2 0x1428 JUMP JUMPDEST PUSH1 0x40 MLOAD DUP1 SWAP2 SUB SWAP1 RETURN JUMPDEST PUSH2 0x2BB PUSH1 0x4 DUP1 CALLDATASIZE SUB DUP2 ADD SWAP1 PUSH2 0x2B6 SWAP2 SWAP1 PUSH2 0x14D9 JUMP JUMPDEST PUSH2 0x665 JUMP JUMPDEST PUSH1 0x40 MLOAD PUSH2 0x2C8 SWAP2 SWAP1 PUSH2 0x1531 JUMP JUMPDEST PUSH1 0x40 MLOAD DUP1 SWAP2 SUB SWAP1 RETURN JUMPDEST PUSH2 0x2EB PUSH1 0x4 DUP1 CALLDATASIZE SUB DUP2 ADD SWAP1 PUSH2 0x2E6 SWAP2 SWAP1 PUSH2 0x14D9 JUMP JUMPDEST PUSH2 0x6DA JUMP JUMPDEST PUSH1 0x40 MLOAD PUSH2 0x2F8 SWAP2 SWAP1 PUSH2 0x1531 JUMP JUMPDEST PUSH1 0x40 MLOAD DUP1 SWAP2 SUB SWAP1 RETURN JUMPDEST PUSH2 0x31B PUSH1 0x4 DUP1 CALLDATASIZE SUB DUP2 ADD SWAP1 PUSH2 0x316 SWAP2 SWAP1 PUSH2 0x1828 JUMP JUMPDEST PUSH2 0x6FC JUMP JUMPDEST STOP JUMPDEST PUSH2 0x337 PUSH1 0x4 DUP1 CALLDATASIZE SUB DUP2 ADD SWAP1 PUSH2 0x332 SWAP2 SWAP1 PUSH2 0x18C5 JUMP JUMPDEST PUSH2 0x841 JUMP JUMPDEST PUSH1 0x40 MLOAD PUSH2 0x344 SWAP2 SWAP1 PUSH2 0x1559 JUMP JUMPDEST PUSH1 0x40 MLOAD DUP1 SWAP2 SUB SWAP1 RETURN JUMPDEST PUSH1 0x60 PUSH1 0x3 DUP1 SLOAD PUSH2 0x35C SWAP1 PUSH2 0x1930 JUMP JUMPDEST DUP1 PUSH1 0x1F ADD PUSH1 0x20 DUP1 SWAP2 DIV MUL PUSH1 0x20 ADD PUSH1 0x40 MLOAD SWAP1 DUP2 ADD PUSH1 0x40 MSTORE DUP1 SWAP3 SWAP2 SWAP1 DUP2 DUP2 MSTORE PUSH1 0x20 ADD DUP3 DUP1 SLOAD PUSH2 0x388 SWAP1 PUSH2 0x1930 JUMP JUMPDEST DUP1 ISZERO PUSH2 0x3D3 JUMPI DUP1 PUSH1 0x1F LT PUSH2 0x3AA JUMPI PUSH2 0x100 DUP1 DUP4 SLOAD DIV MUL DUP4 MSTORE SWAP2 PUSH1 0x20 ADD SWAP2 PUSH2 0x3D3 JUMP JUMPDEST DUP3 ADD SWAP2 SWAP1 PUSH0 MSTORE PUSH1 0x20 PUSH0 KECCAK256 SWAP1 JUMPDEST DUP2 SLOAD DUP2 MSTORE SWAP1 PUSH1 0x1 ADD SWAP1 PUSH1 0x20 ADD DUP1 DUP4 GT PUSH2 0x3B6 JUMPI DUP3 SWAP1 SUB PUSH1 0x1F AND DUP3 ADD SWAP2 JUMPDEST POP POP POP POP POP SWAP1 POP SWAP1 JUMP JUMPDEST PUSH0 DUP1 PUSH2 0x3E7 PUSH2 0x8C3 JUMP JUMPDEST SWAP1 POP PUSH2 0x3F4 DUP2 DUP6 DUP6 PUSH2 0x8CA JUMP JUMPDEST PUSH1 0x1 SWAP2 POP POP SWAP3 SWAP2 POP POP JUMP JUMPDEST PUSH0 PUSH1 0x2 SLOAD SWAP1 POP SWAP1 JUMP JUMPDEST PUSH0 DUP1 PUSH2 0x412 PUSH2 0x8C3 JUMP JUMPDEST SWAP1 POP PUSH2 0x41F DUP6 DUP3 DUP6 PUSH2 0xA8D JUMP JUMPDEST PUSH2 0x42A DUP6 DUP6 DUP6 PUSH2 0xB18 JUMP JUMPDEST PUSH1 0x1 SWAP2 POP POP SWAP4 SWAP3 POP POP POP JUMP JUMPDEST PUSH0 PUSH1 0x12 SWAP1 POP SWAP1 JUMP JUMPDEST PUSH0 PUSH2 0x447 PUSH2 0xD84 JUMP JUMPDEST SWAP1 POP SWAP1 JUMP JUMPDEST PUSH0 DUP1 PUSH2 0x456 PUSH2 0x8C3 JUMP JUMPDEST SWAP1 POP PUSH2 0x477 DUP2 DUP6 DUP6 PUSH2 0x468 DUP6 DUP10 PUSH2 0x841 JUMP JUMPDEST PUSH2 0x472 SWAP2 SWAP1 PUSH2 0x198D JUMP JUMPDEST PUSH2 0x8CA JUMP JUMPDEST PUSH1 0x1 SWAP2 POP POP SWAP3 SWAP2 POP POP JUMP JUMPDEST PUSH0 DUP1 PUSH0 DUP4 PUSH20 0xFFFFFFFFFFFFFFFFFFFFFFFFFFFFFFFFFFFFFFFF AND PUSH20 0xFFFFFFFFFFFFFFFFFFFFFFFFFFFFFFFFFFFFFFFF AND DUP2 MSTORE PUSH1 0x20 ADD SWAP1 DUP2 MSTORE PUSH1 0x20 ADD PUSH0 KECCAK256 SLOAD SWAP1 POP SWAP2 SWAP1 POP JUMP JUMPDEST PUSH0 PUSH2 0x4D1 DUP3 PUSH2 0xE3A JUMP JUMPDEST SWAP1 POP SWAP2 SWAP1 POP JUMP JUMPDEST PUSH0 PUSH1 0x60 DUP1 PUSH0 DUP1 PUSH0 PUSH1 0x60 PUSH2 0x515 PUSH1 0x5 PUSH32 0x0 PUSH2 0xE80 SWAP1 SWAP2 SWAP1 PUSH4 0xFFFFFFFF AND JUMP JUMPDEST PUSH2 0x549 PUSH1 0x6 PUSH32 0x0 PUSH2 0xE80 SWAP1 SWAP2 SWAP1 PUSH4 0xFFFFFFFF AND JUMP JUMPDEST CHAINID ADDRESS PUSH0 DUP1 SHL PUSH0 PUSH8 0xFFFFFFFFFFFFFFFF DUP2 GT ISZERO PUSH2 0x568 JUMPI PUSH2 0x567 PUSH2 0x19C0 JUMP JUMPDEST JUMPDEST PUSH1 0x40 MLOAD SWAP1 DUP1 DUP3 MSTORE DUP1 PUSH1 0x20 MUL PUSH1 0x20 ADD DUP3 ADD PUSH1 0x40 MSTORE DUP1 ISZERO PUSH2 0x596 JUMPI DUP2 PUSH1 0x20 ADD PUSH1 0x20 DUP3 MUL DUP1 CALLDATASIZE DUP4 CALLDATACOPY DUP1 DUP3 ADD SWAP2 POP POP SWAP1 POP JUMPDEST POP PUSH32 0xF00000000000000000000000000000000000000000000000000000000000000 SWAP6 SWAP5 SWAP4 SWAP3 SWAP2 SWAP1 SWAP7 POP SWAP7 POP SWAP7 POP SWAP7 POP SWAP7 POP SWAP7 POP SWAP7 POP SWAP1 SWAP2 SWAP3 SWAP4 SWAP5 SWAP6 SWAP7 JUMP JUMPDEST PUSH1 0x60 PUSH1 0x4 DUP1 SLOAD PUSH2 0x5E4 SWAP1 PUSH2 0x1930 JUMP JUMPDEST DUP1 PUSH1 0x1F ADD PUSH1 0x20 DUP1 SWAP2 DIV MUL PUSH1 0x20 ADD PUSH1 0x40 MLOAD SWAP1 DUP2 ADD PUSH1 0x40 MSTORE DUP1 SWAP3 SWAP2 SWAP1 DUP2 DUP2 MSTORE PUSH1 0x20 ADD DUP3 DUP1 SLOAD PUSH2 0x610 SWAP1 PUSH2 0x1930 JUMP JUMPDEST DUP1 ISZERO PUSH2 0x65B JUMPI DUP1 PUSH1 0x1F LT PUSH2 0x632 JUMPI PUSH2 0x100 DUP1 DUP4 SLOAD DIV MUL DUP4 MSTORE SWAP2 PUSH1 0x20 ADD SWAP2 PUSH2 0x65B JUMP JUMPDEST DUP3 ADD SWAP2 SWAP1 PUSH0 MSTORE PUSH1 0x20 PUSH0 KECCAK256 SWAP1 JUMPDEST DUP2 SLOAD DUP2 MSTORE SWAP1 PUSH1 0x1 ADD SWAP1 PUSH1 0x20 ADD DUP1 DUP4 GT PUSH2 0x63E JUMPI DUP3 SWAP1 SUB PUSH1 0x1F AND DUP3 ADD SWAP2 JUMPDEST POP POP POP POP POP SWAP1 POP SWAP1 JUMP JUMPDEST PUSH0 DUP1 PUSH2 0x66F PUSH2 0x8C3 JUMP JUMPDEST SWAP1 POP PUSH0 PUSH2 0x67C DUP3 DUP7 PUSH2 0x841 JUMP JUMPDEST SWAP1 POP DUP4 DUP2 LT ISZERO PUSH2 0x6C1 JUMPI PUSH1 0x40 MLOAD PUSH32 0x8C379A000000000000000000000000000000000000000000000000000000000 DUP2 MSTORE PUSH1 0x4 ADD PUSH2 0x6B8 SWAP1 PUSH2 0x1A5D JUMP JUMPDEST PUSH1 0x40 MLOAD DUP1 SWAP2 SUB SWAP1 REVERT JUMPDEST PUSH2 0x6CE DUP3 DUP7 DUP7 DUP5 SUB PUSH2 0x8CA JUMP JUMPDEST PUSH1 0x1 SWAP3 POP POP POP SWAP3 SWAP2 POP POP JUMP JUMPDEST PUSH0 DUP1 PUSH2 0x6E4 PUSH2 0x8C3 JUMP JUMPDEST SWAP1 POP PUSH2 0x6F1 DUP2 DUP6 DUP6 PUSH2 0xB18 JUMP JUMPDEST PUSH1 0x1 SWAP2 POP POP SWAP3 SWAP2 POP POP JUMP JUMPDEST DUP4 TIMESTAMP GT ISZERO PUSH2 0x741 JUMPI DUP4 PUSH1 0x40 MLOAD PUSH32 0x6279130200000000000000000000000000000000000000000000000000000000 DUP2 MSTORE PUSH1 0x4 ADD PUSH2 0x738 SWAP2 SWAP1 PUSH2 0x1559 JUMP JUMPDEST PUSH1 0x40 MLOAD DUP1 SWAP2 SUB SWAP1 REVERT JUMPDEST PUSH0 PUSH32 0x6E71EDAE12B1B97F4D1F60370FEF10105FA2FAAE0126114A169C64845D6126C9 DUP9 DUP9 DUP9 PUSH2 0x76F DUP13 PUSH2 0xF2D JUMP JUMPDEST DUP10 PUSH1 0x40 MLOAD PUSH1 0x20 ADD PUSH2 0x785 SWAP7 SWAP6 SWAP5 SWAP4 SWAP3 SWAP2 SWAP1 PUSH2 0x1A7B JUMP JUMPDEST PUSH1 0x40 MLOAD PUSH1 0x20 DUP2 DUP4 SUB SUB DUP2 MSTORE SWAP1 PUSH1 0x40 MSTORE DUP1 MLOAD SWAP1 PUSH1 0x20 ADD KECCAK256 SWAP1 POP PUSH0 PUSH2 0x7A7 DUP3 PUSH2 0xF80 JUMP JUMPDEST SWAP1 POP PUSH0 PUSH2 0x7B6 DUP3 DUP8 DUP8 DUP8 PUSH2 0xF99 JUMP JUMPDEST SWAP1 POP DUP10 PUSH20 0xFFFFFFFFFFFFFFFFFFFFFFFFFFFFFFFFFFFFFFFF AND DUP2 PUSH20 0xFFFFFFFFFFFFFFFFFFFFFFFFFFFFFFFFFFFFFFFF AND EQ PUSH2 0x82A JUMPI DUP1 DUP11 PUSH1 0x40 MLOAD PUSH32 0x4B800E4600000000000000000000000000000000000000000000000000000000 DUP2 MSTORE PUSH1 0x4 ADD PUSH2 0x821 SWAP3 SWAP2 SWAP1 PUSH2 0x1ADA JUMP JUMPDEST PUSH1 0x40 MLOAD DUP1 SWAP2 SUB SWAP1 REVERT JUMPDEST PUSH2 0x835 DUP11 DUP11 DUP11 PUSH2 0x8CA JUMP JUMPDEST POP POP POP POP POP POP POP POP POP POP JUMP JUMPDEST PUSH0 PUSH1 0x1 PUSH0 DUP5 PUSH20 0xFFFFFFFFFFFFFFFFFFFFFFFFFFFFFFFFFFFFFFFF AND PUSH20 0xFFFFFFFFFFFFFFFFFFFFFFFFFFFFFFFFFFFFFFFF AND DUP2 MSTORE PUSH1 0x20 ADD SWAP1 DUP2 MSTORE PUSH1 0x20 ADD PUSH0 KECCAK256 PUSH0 DUP4 PUSH20 0xFFFFFFFFFFFFFFFFFFFFFFFFFFFFFFFFFFFFFFFF AND PUSH20 0xFFFFFFFFFFFFFFFFFFFFFFFFFFFFFFFFFFFFFFFF AND DUP2 MSTORE PUSH1 0x20 ADD SWAP1 DUP2 MSTORE PUSH1 0x20 ADD PUSH0 KECCAK256 SLOAD SWAP1 POP SWAP3 SWAP2 POP POP JUMP JUMPDEST PUSH0 CALLER SWAP1 POP SWAP1 JUMP JUMPDEST PUSH0 PUSH20 0xFFFFFFFFFFFFFFFFFFFFFFFFFFFFFFFFFFFFFFFF AND DUP4 PUSH20 0xFFFFFFFFFFFFFFFFFFFFFFFFFFFFFFFFFFFFFFFF AND SUB PUSH2 0x938 JUMPI PUSH1 0x40 MLOAD PUSH32 0x8C379A000000000000000000000000000000000000000000000000000000000 DUP2 MSTORE PUSH1 0x4 ADD PUSH2 0x92F SWAP1 PUSH2 0x1B71 JUMP JUMPDEST PUSH1 0x40 MLOAD DUP1 SWAP2 SUB SWAP1 REVERT JUMPDEST PUSH0 PUSH20 0xFFFFFFFFFFFFFFFFFFFFFFFFFFFFFFFFFFFFFFFF AND DUP3 PUSH20 0xFFFFFFFFFFFFFFFFFFFFFFFFFFFFFFFFFFFFFFFF AND SUB PUSH2 0x9A6 JUMPI PUSH1 0x40 MLOAD PUSH32 0x8C379A000000000000000000000000000000000000000000000000000000000 DUP2 MSTORE PUSH1 0x4 ADD PUSH2 0x99D SWAP1 PUSH2 0x1BFF JUMP JUMPDEST PUSH1 0x40 MLOAD DUP1 SWAP2 SUB SWAP1 REVERT JUMPDEST DUP1 PUSH1 0x1 PUSH0 DUP6 PUSH20 0xFFFFFFFFFFFFFFFFFFFFFFFFFFFFFFFFFFFFFFFF AND PUSH20 0xFFFFFFFFFFFFFFFFFFFFFFFFFFFFFFFFFFFFFFFF AND DUP2 MSTORE PUSH1 0x20 ADD SWAP1 DUP2 MSTORE PUSH1 0x20 ADD PUSH0 KECCAK256 PUSH0 DUP5 PUSH20 0xFFFFFFFFFFFFFFFFFFFFFFFFFFFFFFFFFFFFFFFF AND PUSH20 0xFFFFFFFFFFFFFFFFFFFFFFFFFFFFFFFFFFFFFFFF AND DUP2 MSTORE PUSH1 0x20 ADD SWAP1 DUP2 MSTORE PUSH1 0x20 ADD PUSH0 KECCAK256 DUP2 SWAP1 SSTORE POP DUP2 PUSH20 0xFFFFFFFFFFFFFFFFFFFFFFFFFFFFFFFFFFFFFFFF AND DUP4 PUSH20 0xFFFFFFFFFFFFFFFFFFFFFFFFFFFFFFFFFFFFFFFF AND PUSH32 0x8C5BE1E5EBEC7D5BD14F71427D1E84F3DD0314C0F7B2291E5B200AC8C7C3B925 DUP4 PUSH1 0x40 MLOAD PUSH2 0xA80 SWAP2 SWAP1 PUSH2 0x1559 JUMP JUMPDEST PUSH1 0x40 MLOAD DUP1 SWAP2 SUB SWAP1 LOG3 POP POP POP JUMP JUMPDEST PUSH0 PUSH2 0xA98 DUP5 DUP5 PUSH2 0x841 JUMP JUMPDEST SWAP1 POP PUSH32 0xFFFFFFFFFFFFFFFFFFFFFFFFFFFFFFFFFFFFFFFFFFFFFFFFFFFFFFFFFFFFFFFF DUP2 EQ PUSH2 0xB12 JUMPI DUP2 DUP2 LT ISZERO PUSH2 0xB04 JUMPI PUSH1 0x40 MLOAD PUSH32 0x8C379A000000000000000000000000000000000000000000000000000000000 DUP2 MSTORE PUSH1 0x4 ADD PUSH2 0xAFB SWAP1 PUSH2 0x1C67 JUMP JUMPDEST PUSH1 0x40 MLOAD DUP1 SWAP2 SUB SWAP1 REVERT JUMPDEST PUSH2 0xB11 DUP5 DUP5 DUP5 DUP5 SUB PUSH2 0x8CA JUMP JUMPDEST JUMPDEST POP POP POP POP JUMP JUMPDEST PUSH0 PUSH20 0xFFFFFFFFFFFFFFFFFFFFFFFFFFFFFFFFFFFFFFFF AND DUP4 PUSH20 0xFFFFFFFFFFFFFFFFFFFFFFFFFFFFFFFFFFFFFFFF AND SUB PUSH2 0xB86 JUMPI PUSH1 0x40 MLOAD PUSH32 0x8C379A000000000000000000000000000000000000000000000000000000000 DUP2 MSTORE PUSH1 0x4 ADD PUSH2 0xB7D SWAP1 PUSH2 0x1CF5 JUMP JUMPDEST PUSH1 0x40 MLOAD DUP1 SWAP2 SUB SWAP1 REVERT JUMPDEST PUSH0 PUSH20 0xFFFFFFFFFFFFFFFFFFFFFFFFFFFFFFFFFFFFFFFF AND DUP3 PUSH20 0xFFFFFFFFFFFFFFFFFFFFFFFFFFFFFFFFFFFFFFFF AND SUB PUSH2 0xBF4 JUMPI PUSH1 0x40 MLOAD PUSH32 0x8C379A000000000000000000000000000000000000000000000000000000000 DUP2 MSTORE PUSH1 0x4 ADD PUSH2 0xBEB SWAP1 PUSH2 0x1D83 JUMP JUMPDEST PUSH1 0x40 MLOAD DUP1 SWAP2 SUB SWAP1 REVERT JUMPDEST PUSH2 0xBFF DUP4 DUP4 DUP4 PUSH2 0xFC2 JUMP JUMPDEST PUSH0 DUP1 PUSH0 DUP6 PUSH20 0xFFFFFFFFFFFFFFFFFFFFFFFFFFFFFFFFFFFFFFFF AND PUSH20 0xFFFFFFFFFFFFFFFFFFFFFFFFFFFFFFFFFFFFFFFF AND DUP2 MSTORE PUSH1 0x20 ADD SWAP1 DUP2 MSTORE PUSH1 0x20 ADD PUSH0 KECCAK256 SLOAD SWAP1 POP DUP2 DUP2 LT ISZERO PUSH2 0xC82 JUMPI PUSH1 0x40 MLOAD PUSH32 0x8C379A000000000000000000000000000000000000000000000000000000000 DUP2 MSTORE PUSH1 0x4 ADD PUSH2 0xC79 SWAP1 PUSH2 0x1E11 JUMP JUMPDEST PUSH1 0x40 MLOAD DUP1 SWAP2 SUB SWAP1 REVERT JUMPDEST DUP2 DUP2 SUB PUSH0 DUP1 DUP7 PUSH20 0xFFFFFFFFFFFFFFFFFFFFFFFFFFFFFFFFFFFFFFFF AND PUSH20 0xFFFFFFFFFFFFFFFFFFFFFFFFFFFFFFFFFFFFFFFF AND DUP2 MSTORE PUSH1 0x20 ADD SWAP1 DUP2 MSTORE PUSH1 0x20 ADD PUSH0 KECCAK256 DUP2 SWAP1 SSTORE POP DUP2 PUSH0 DUP1 DUP6 PUSH20 0xFFFFFFFFFFFFFFFFFFFFFFFFFFFFFFFFFFFFFFFF AND PUSH20 0xFFFFFFFFFFFFFFFFFFFFFFFFFFFFFFFFFFFFFFFF AND DUP2 MSTORE PUSH1 0x20 ADD SWAP1 DUP2 MSTORE PUSH1 0x20 ADD PUSH0 KECCAK256 PUSH0 DUP3 DUP3 SLOAD ADD SWAP3 POP POP DUP2 SWAP1 SSTORE POP DUP3 PUSH20 0xFFFFFFFFFFFFFFFFFFFFFFFFFFFFFFFFFFFFFFFF AND DUP5 PUSH20 0xFFFFFFFFFFFFFFFFFFFFFFFFFFFFFFFFFFFFFFFF AND PUSH32 0xDDF252AD1BE2C89B69C2B068FC378DAA952BA7F163C4A11628F55A4DF523B3EF DUP5 PUSH1 0x40 MLOAD PUSH2 0xD6B SWAP2 SWAP1 PUSH2 0x1559 JUMP JUMPDEST PUSH1 0x40 MLOAD DUP1 SWAP2 SUB SWAP1 LOG3 PUSH2 0xD7E DUP5 DUP5 DUP5 PUSH2 0xFC7 JUMP JUMPDEST POP POP POP POP JUMP JUMPDEST PUSH0 PUSH32 0x0 PUSH20 0xFFFFFFFFFFFFFFFFFFFFFFFFFFFFFFFFFFFFFFFF AND ADDRESS PUSH20 0xFFFFFFFFFFFFFFFFFFFFFFFFFFFFFFFFFFFFFFFF AND EQ DUP1 ISZERO PUSH2 0xDFF JUMPI POP PUSH32 0x0 CHAINID EQ JUMPDEST ISZERO PUSH2 0xE2C JUMPI PUSH32 0x0 SWAP1 POP PUSH2 0xE37 JUMP JUMPDEST PUSH2 0xE34 PUSH2 0xFCC JUMP JUMPDEST SWAP1 POP JUMPDEST SWAP1 JUMP JUMPDEST PUSH0 PUSH1 0x7 PUSH0 DUP4 PUSH20 0xFFFFFFFFFFFFFFFFFFFFFFFFFFFFFFFFFFFFFFFF AND PUSH20 0xFFFFFFFFFFFFFFFFFFFFFFFFFFFFFFFFFFFFFFFF AND DUP2 MSTORE PUSH1 0x20 ADD SWAP1 DUP2 MSTORE PUSH1 0x20 ADD PUSH0 KECCAK256 SLOAD SWAP1 POP SWAP2 SWAP1 POP JUMP JUMPDEST PUSH1 0x60 PUSH1 0xFF PUSH0 SHL DUP4 EQ PUSH2 0xE9C JUMPI PUSH2 0xE95 DUP4 PUSH2 0x1061 JUMP JUMPDEST SWAP1 POP PUSH2 0xF27 JUMP JUMPDEST DUP2 DUP1 SLOAD PUSH2 0xEA8 SWAP1 PUSH2 0x1930 JUMP JUMPDEST DUP1 PUSH1 0x1F ADD PUSH1 0x20 DUP1 SWAP2 DIV MUL PUSH1 0x20 ADD PUSH1 0x40 MLOAD SWAP1 DUP2 ADD PUSH1 0x40 MSTORE DUP1 SWAP3 SWAP2 SWAP1 DUP2 DUP2 MSTORE PUSH1 0x20 ADD DUP3 DUP1 SLOAD PUSH2 0xED4 SWAP1 PUSH2 0x1930 JUMP JUMPDEST DUP1 ISZERO PUSH2 0xF1F JUMPI DUP1 PUSH1 0x1F LT PUSH2 0xEF6 JUMPI PUSH2 0x100 DUP1 DUP4 SLOAD DIV MUL DUP4 MSTORE SWAP2 PUSH1 0x20 ADD SWAP2 PUSH2 0xF1F JUMP JUMPDEST DUP3 ADD SWAP2 SWAP1 PUSH0 MSTORE PUSH1 0x20 PUSH0 KECCAK256 SWAP1 JUMPDEST DUP2 SLOAD DUP2 MSTORE SWAP1 PUSH1 0x1 ADD SWAP1 PUSH1 0x20 ADD DUP1 DUP4 GT PUSH2 0xF02 JUMPI DUP3 SWAP1 SUB PUSH1 0x1F AND DUP3 ADD SWAP2 JUMPDEST POP POP POP POP POP SWAP1 POP JUMPDEST SWAP3 SWAP2 POP POP JUMP JUMPDEST PUSH0 PUSH1 0x7 PUSH0 DUP4 PUSH20 0xFFFFFFFFFFFFFFFFFFFFFFFFFFFFFFFFFFFFFFFF AND PUSH20 0xFFFFFFFFFFFFFFFFFFFFFFFFFFFFFFFFFFFFFFFF AND DUP2 MSTORE PUSH1 0x20 ADD SWAP1 DUP2 MSTORE PUSH1 0x20 ADD PUSH0 KECCAK256 PUSH0 DUP2 SLOAD DUP1 SWAP3 SWAP2 SWAP1 PUSH1 0x1 ADD SWAP2 SWAP1 POP SSTORE SWAP1 POP SWAP2 SWAP1 POP JUMP JUMPDEST PUSH0 PUSH2 0xF92 PUSH2 0xF8C PUSH2 0xD84 JUMP JUMPDEST DUP4 PUSH2 0x10D3 JUMP JUMPDEST SWAP1 POP SWAP2 SWAP1 POP JUMP JUMPDEST PUSH0 DUP1 PUSH0 PUSH2 0xFA8 DUP8 DUP8 DUP8 DUP8 PUSH2 0x1113 JUMP JUMPDEST SWAP2 POP SWAP2 POP PUSH2 0xFB5 DUP2 PUSH2 0x11EB JUMP JUMPDEST DUP2 SWAP3 POP POP POP SWAP5 SWAP4 POP POP POP POP JUMP JUMPDEST POP POP POP JUMP JUMPDEST POP POP POP JUMP JUMPDEST PUSH0 PUSH32 0x8B73C3C69BB8FE3D512ECC4CF759CC79239F7B179B0FFACAA9A75D522B39400F PUSH32 0x0 PUSH32 0x0 CHAINID ADDRESS PUSH1 0x40 MLOAD PUSH1 0x20 ADD PUSH2 0x1046 SWAP6 SWAP5 SWAP4 SWAP3 SWAP2 SWAP1 PUSH2 0x1E2F JUMP JUMPDEST PUSH1 0x40 MLOAD PUSH1 0x20 DUP2 DUP4 SUB SUB DUP2 MSTORE SWAP1 PUSH1 0x40 MSTORE DUP1 MLOAD SWAP1 PUSH1 0x20 ADD KECCAK256 SWAP1 POP SWAP1 JUMP JUMPDEST PUSH1 0x60 PUSH0 PUSH2 0x106D DUP4 PUSH2 0x1350 JUMP JUMPDEST SWAP1 POP PUSH0 PUSH1 0x20 PUSH8 0xFFFFFFFFFFFFFFFF DUP2 GT ISZERO PUSH2 0x108B JUMPI PUSH2 0x108A PUSH2 0x19C0 JUMP JUMPDEST JUMPDEST PUSH1 0x40 MLOAD SWAP1 DUP1 DUP3 MSTORE DUP1 PUSH1 0x1F ADD PUSH1 0x1F NOT AND PUSH1 0x20 ADD DUP3 ADD PUSH1 0x40 MSTORE DUP1 ISZERO PUSH2 0x10BD JUMPI DUP2 PUSH1 0x20 ADD PUSH1 0x1 DUP3 MUL DUP1 CALLDATASIZE DUP4 CALLDATACOPY DUP1 DUP3 ADD SWAP2 POP POP SWAP1 POP JUMPDEST POP SWAP1 POP DUP2 DUP2 MSTORE DUP4 PUSH1 0x20 DUP3 ADD MSTORE DUP1 SWAP3 POP POP POP SWAP2 SWAP1 POP JUMP JUMPDEST PUSH0 PUSH1 0x40 MLOAD PUSH32 0x1901000000000000000000000000000000000000000000000000000000000000 DUP2 MSTORE DUP4 PUSH1 0x2 DUP3 ADD MSTORE DUP3 PUSH1 0x22 DUP3 ADD MSTORE PUSH1 0x42 DUP2 KECCAK256 SWAP2 POP POP SWAP3 SWAP2 POP POP JUMP JUMPDEST PUSH0 DUP1 PUSH32 0x7FFFFFFFFFFFFFFFFFFFFFFFFFFFFFFF5D576E7357A4501DDFE92F46681B20A0 DUP4 PUSH0 SHR GT ISZERO PUSH2 0x114B JUMPI PUSH0 PUSH1 0x3 SWAP2 POP SWAP2 POP PUSH2 0x11E2 JUMP JUMPDEST PUSH0 PUSH1 0x1 DUP8 DUP8 DUP8 DUP8 PUSH1 0x40 MLOAD PUSH0 DUP2 MSTORE PUSH1 0x20 ADD PUSH1 0x40 MSTORE PUSH1 0x40 MLOAD PUSH2 0x116E SWAP5 SWAP4 SWAP3 SWAP2 SWAP1 PUSH2 0x1E80 JUMP JUMPDEST PUSH1 0x20 PUSH1 0x40 MLOAD PUSH1 0x20 DUP2 SUB SWAP1 DUP1 DUP5 SUB SWAP1 DUP6 GAS STATICCALL ISZERO DUP1 ISZERO PUSH2 0x118E JUMPI RETURNDATASIZE PUSH0 DUP1 RETURNDATACOPY RETURNDATASIZE PUSH0 REVERT JUMPDEST POP POP POP PUSH1 0x20 PUSH1 0x40 MLOAD SUB MLOAD SWAP1 POP PUSH0 PUSH20 0xFFFFFFFFFFFFFFFFFFFFFFFFFFFFFFFFFFFFFFFF AND DUP2 PUSH20 0xFFFFFFFFFFFFFFFFFFFFFFFFFFFFFFFFFFFFFFFF AND SUB PUSH2 0x11DA JUMPI PUSH0 PUSH1 0x1 SWAP3 POP SWAP3 POP POP PUSH2 0x11E2 JUMP JUMPDEST DUP1 PUSH0 SWAP3 POP SWAP3 POP POP JUMPDEST SWAP5 POP SWAP5 SWAP3 POP POP POP JUMP JUMPDEST PUSH0 PUSH1 0x4 DUP2 GT ISZERO PUSH2 0x11FE JUMPI PUSH2 0x11FD PUSH2 0x1EC3 JUMP JUMPDEST JUMPDEST DUP2 PUSH1 0x4 DUP2 GT ISZERO PUSH2 0x1211 JUMPI PUSH2 0x1210 PUSH2 0x1EC3 JUMP JUMPDEST JUMPDEST SUB ISZERO PUSH2 0x134D JUMPI PUSH1 0x1 PUSH1 0x4 DUP2 GT ISZERO PUSH2 0x122B JUMPI PUSH2 0x122A PUSH2 0x1EC3 JUMP JUMPDEST JUMPDEST DUP2 PUSH1 0x4 DUP2 GT ISZERO PUSH2 0x123E JUMPI PUSH2 0x123D PUSH2 0x1EC3 JUMP JUMPDEST JUMPDEST SUB PUSH2 0x127E JUMPI PUSH1 0x40 MLOAD PUSH32 0x8C379A000000000000000000000000000000000000000000000000000000000 DUP2 MSTORE PUSH1 0x4 ADD PUSH2 0x1275 SWAP1 PUSH2 0x1F3A JUMP JUMPDEST PUSH1 0x40 MLOAD DUP1 SWAP2 SUB SWAP1 REVERT JUMPDEST PUSH1 0x2 PUSH1 0x4 DUP2 GT ISZERO PUSH2 0x1292 JUMPI PUSH2 0x1291 PUSH2 0x1EC3 JUMP JUMPDEST JUMPDEST DUP2 PUSH1 0x4 DUP2 GT ISZERO PUSH2 0x12A5 JUMPI PUSH2 0x12A4 PUSH2 0x1EC3 JUMP JUMPDEST JUMPDEST SUB PUSH2 0x12E5 JUMPI PUSH1 0x40 MLOAD PUSH32 0x8C379A000000000000000000000000000000000000000000000000000000000 DUP2 MSTORE PUSH1 0x4 ADD PUSH2 0x12DC SWAP1 PUSH2 0x1FA2 JUMP JUMPDEST PUSH1 0x40 MLOAD DUP1 SWAP2 SUB SWAP1 REVERT JUMPDEST PUSH1 0x3 PUSH1 0x4 DUP2 GT ISZERO PUSH2 0x12F9 JUMPI PUSH2 0x12F8 PUSH2 0x1EC3 JUMP JUMPDEST JUMPDEST DUP2 PUSH1 0x4 DUP2 GT ISZERO PUSH2 0x130C JUMPI PUSH2 0x130B PUSH2 0x1EC3 JUMP JUMPDEST JUMPDEST SUB PUSH2 0x134C JUMPI PUSH1 0x40 MLOAD PUSH32 0x8C379A000000000000000000000000000000000000000000000000000000000 DUP2 MSTORE PUSH1 0x4 ADD PUSH2 0x1343 SWAP1 PUSH2 0x2030 JUMP JUMPDEST PUSH1 0x40 MLOAD DUP1 SWAP2 SUB SWAP1 REVERT JUMPDEST JUMPDEST POP JUMP JUMPDEST PUSH0 DUP1 PUSH1 0xFF DUP4 PUSH0 SHR AND SWAP1 POP PUSH1 0x1F DUP2 GT ISZERO PUSH2 0x1395 JUMPI PUSH1 0x40 MLOAD PUSH32 0xB3512B0C00000000000000000000000000000000000000000000000000000000 DUP2 MSTORE PUSH1 0x4 ADD PUSH1 0x40 MLOAD DUP1 SWAP2 SUB SWAP1 REVERT JUMPDEST DUP1 SWAP2 POP POP SWAP2 SWAP1 POP JUMP JUMPDEST PUSH0 DUP2 MLOAD SWAP1 POP SWAP2 SWAP1 POP JUMP JUMPDEST PUSH0 DUP3 DUP3 MSTORE PUSH1 0x20 DUP3 ADD SWAP1 POP SWAP3 SWAP2 POP POP JUMP JUMPDEST PUSH0 JUMPDEST DUP4 DUP2 LT ISZERO PUSH2 0x13D5 JUMPI DUP1 DUP3 ADD MLOAD DUP2 DUP5 ADD MSTORE PUSH1 0x20 DUP2 ADD SWAP1 POP PUSH2 0x13BA JUMP JUMPDEST PUSH0 DUP5 DUP5 ADD MSTORE POP POP POP POP JUMP JUMPDEST PUSH0 PUSH1 0x1F NOT PUSH1 0x1F DUP4 ADD AND SWAP1 POP SWAP2 SWAP1 POP JUMP JUMPDEST PUSH0 PUSH2 0x13FA DUP3 PUSH2 0x139E JUMP JUMPDEST PUSH2 0x1404 DUP2 DUP6 PUSH2 0x13A8 JUMP JUMPDEST SWAP4 POP PUSH2 0x1414 DUP2 DUP6 PUSH1 0x20 DUP7 ADD PUSH2 0x13B8 JUMP JUMPDEST PUSH2 0x141D DUP2 PUSH2 0x13E0 JUMP JUMPDEST DUP5 ADD SWAP2 POP POP SWAP3 SWAP2 POP POP JUMP JUMPDEST PUSH0 PUSH1 0x20 DUP3 ADD SWAP1 POP DUP2 DUP2 SUB PUSH0 DUP4 ADD MSTORE PUSH2 0x1440 DUP2 DUP5 PUSH2 0x13F0 JUMP JUMPDEST SWAP1 POP SWAP3 SWAP2 POP POP JUMP JUMPDEST PUSH0 DUP1 REVERT JUMPDEST PUSH0 PUSH20 0xFFFFFFFFFFFFFFFFFFFFFFFFFFFFFFFFFFFFFFFF DUP3 AND SWAP1 POP SWAP2 SWAP1 POP JUMP JUMPDEST PUSH0 PUSH2 0x1475 DUP3 PUSH2 0x144C JUMP JUMPDEST SWAP1 POP SWAP2 SWAP1 POP JUMP JUMPDEST PUSH2 0x1485 DUP2 PUSH2 0x146B JUMP JUMPDEST DUP2 EQ PUSH2 0x148F JUMPI PUSH0 DUP1 REVERT JUMPDEST POP JUMP JUMPDEST PUSH0 DUP2 CALLDATALOAD SWAP1 POP PUSH2 0x14A0 DUP2 PUSH2 0x147C JUMP JUMPDEST SWAP3 SWAP2 POP POP JUMP JUMPDEST PUSH0 DUP2 SWAP1 POP SWAP2 SWAP1 POP JUMP JUMPDEST PUSH2 0x14B8 DUP2 PUSH2 0x14A6 JUMP JUMPDEST DUP2 EQ PUSH2 0x14C2 JUMPI PUSH0 DUP1 REVERT JUMPDEST POP JUMP JUMPDEST PUSH0 DUP2 CALLDATALOAD SWAP1 POP PUSH2 0x14D3 DUP2 PUSH2 0x14AF JUMP JUMPDEST SWAP3 SWAP2 POP POP JUMP JUMPDEST PUSH0 DUP1 PUSH1 0x40 DUP4 DUP6 SUB SLT ISZERO PUSH2 0x14EF JUMPI PUSH2 0x14EE PUSH2 0x1448 JUMP JUMPDEST JUMPDEST PUSH0 PUSH2 0x14FC DUP6 DUP3 DUP7 ADD PUSH2 0x1492 JUMP JUMPDEST SWAP3 POP POP PUSH1 0x20 PUSH2 0x150D DUP6 DUP3 DUP7 ADD PUSH2 0x14C5 JUMP JUMPDEST SWAP2 POP POP SWAP3 POP SWAP3 SWAP1 POP JUMP JUMPDEST PUSH0 DUP2 ISZERO ISZERO SWAP1 POP SWAP2 SWAP1 POP JUMP JUMPDEST PUSH2 0x152B DUP2 PUSH2 0x1517 JUMP JUMPDEST DUP3 MSTORE POP POP JUMP JUMPDEST PUSH0 PUSH1 0x20 DUP3 ADD SWAP1 POP PUSH2 0x1544 PUSH0 DUP4 ADD DUP5 PUSH2 0x1522 JUMP JUMPDEST SWAP3 SWAP2 POP POP JUMP JUMPDEST PUSH2 0x1553 DUP2 PUSH2 0x14A6 JUMP JUMPDEST DUP3 MSTORE POP POP JUMP JUMPDEST PUSH0 PUSH1 0x20 DUP3 ADD SWAP1 POP PUSH2 0x156C PUSH0 DUP4 ADD DUP5 PUSH2 0x154A JUMP JUMPDEST SWAP3 SWAP2 POP POP JUMP JUMPDEST PUSH0 DUP1 PUSH0 PUSH1 0x60 DUP5 DUP7 SUB SLT ISZERO PUSH2 0x1589 JUMPI PUSH2 0x1588 PUSH2 0x1448 JUMP JUMPDEST JUMPDEST PUSH0 PUSH2 0x1596 DUP7 DUP3 DUP8 ADD PUSH2 0x1492 JUMP JUMPDEST SWAP4 POP POP PUSH1 0x20 PUSH2 0x15A7 DUP7 DUP3 DUP8 ADD PUSH2 0x1492 JUMP JUMPDEST SWAP3 POP POP PUSH1 0x40 PUSH2 0x15B8 DUP7 DUP3 DUP8 ADD PUSH2 0x14C5 JUMP JUMPDEST SWAP2 POP POP SWAP3 POP SWAP3 POP SWAP3 JUMP JUMPDEST PUSH0 PUSH1 0xFF DUP3 AND SWAP1 POP SWAP2 SWAP1 POP JUMP JUMPDEST PUSH2 0x15D7 DUP2 PUSH2 0x15C2 JUMP JUMPDEST DUP3 MSTORE POP POP JUMP JUMPDEST PUSH0 PUSH1 0x20 DUP3 ADD SWAP1 POP PUSH2 0x15F0 PUSH0 DUP4 ADD DUP5 PUSH2 0x15CE JUMP JUMPDEST SWAP3 SWAP2 POP POP JUMP JUMPDEST PUSH0 DUP2 SWAP1 POP SWAP2 SWAP1 POP JUMP JUMPDEST PUSH2 0x1608 DUP2 PUSH2 0x15F6 JUMP JUMPDEST DUP3 MSTORE POP POP JUMP JUMPDEST PUSH0 PUSH1 0x20 DUP3 ADD SWAP1 POP PUSH2 0x1621 PUSH0 DUP4 ADD DUP5 PUSH2 0x15FF JUMP JUMPDEST SWAP3 SWAP2 POP POP JUMP JUMPDEST PUSH0 PUSH1 0x20 DUP3 DUP5 SUB SLT ISZERO PUSH2 0x163C JUMPI PUSH2 0x163B PUSH2 0x1448 JUMP JUMPDEST JUMPDEST PUSH0 PUSH2 0x1649 DUP5 DUP3 DUP6 ADD PUSH2 0x1492 JUMP JUMPDEST SWAP2 POP POP SWAP3 SWAP2 POP POP JUMP JUMPDEST PUSH0 PUSH32 0xFF00000000000000000000000000000000000000000000000000000000000000 DUP3 AND SWAP1 POP SWAP2 SWAP1 POP JUMP JUMPDEST PUSH2 0x1686 DUP2 PUSH2 0x1652 JUMP JUMPDEST DUP3 MSTORE POP POP JUMP JUMPDEST PUSH2 0x1695 DUP2 PUSH2 0x146B JUMP JUMPDEST DUP3 MSTORE POP POP JUMP JUMPDEST PUSH0 DUP2 MLOAD SWAP1 POP SWAP2 SWAP1 POP JUMP JUMPDEST PUSH0 DUP3 DUP3 MSTORE PUSH1 0x20 DUP3 ADD SWAP1 POP SWAP3 SWAP2 POP POP JUMP JUMPDEST PUSH0 DUP2 SWAP1 POP PUSH1 0x20 DUP3 ADD SWAP1 POP SWAP2 SWAP1 POP JUMP JUMPDEST PUSH2 0x16CD DUP2 PUSH2 0x14A6 JUMP JUMPDEST DUP3 MSTORE POP POP JUMP JUMPDEST PUSH0 PUSH2 0x16DE DUP4 DUP4 PUSH2 0x16C4 JUMP JUMPDEST PUSH1 0x20 DUP4 ADD SWAP1 POP SWAP3 SWAP2 POP POP JUMP JUMPDEST PUSH0 PUSH1 0x20 DUP3 ADD SWAP1 POP SWAP2 SWAP1 POP JUMP JUMPDEST PUSH0 PUSH2 0x1700 DUP3 PUSH2 0x169B JUMP JUMPDEST PUSH2 0x170A DUP2 DUP6 PUSH2 0x16A5 JUMP JUMPDEST SWAP4 POP PUSH2 0x1715 DUP4 PUSH2 0x16B5 JUMP JUMPDEST DUP1 PUSH0 JUMPDEST DUP4 DUP2 LT ISZERO PUSH2 0x1745 JUMPI DUP2 MLOAD PUSH2 0x172C DUP9 DUP3 PUSH2 0x16D3 JUMP JUMPDEST SWAP8 POP PUSH2 0x1737 DUP4 PUSH2 0x16EA JUMP JUMPDEST SWAP3 POP POP PUSH1 0x1 DUP2 ADD SWAP1 POP PUSH2 0x1718 JUMP JUMPDEST POP DUP6 SWAP4 POP POP POP POP SWAP3 SWAP2 POP POP JUMP JUMPDEST PUSH0 PUSH1 0xE0 DUP3 ADD SWAP1 POP PUSH2 0x1765 PUSH0 DUP4 ADD DUP11 PUSH2 0x167D JUMP JUMPDEST DUP2 DUP2 SUB PUSH1 0x20 DUP4 ADD MSTORE PUSH2 0x1777 DUP2 DUP10 PUSH2 0x13F0 JUMP JUMPDEST SWAP1 POP DUP2 DUP2 SUB PUSH1 0x40 DUP4 ADD MSTORE PUSH2 0x178B DUP2 DUP9 PUSH2 0x13F0 JUMP JUMPDEST SWAP1 POP PUSH2 0x179A PUSH1 0x60 DUP4 ADD DUP8 PUSH2 0x154A JUMP JUMPDEST PUSH2 0x17A7 PUSH1 0x80 DUP4 ADD DUP7 PUSH2 0x168C JUMP JUMPDEST PUSH2 0x17B4 PUSH1 0xA0 DUP4 ADD DUP6 PUSH2 0x15FF JUMP JUMPDEST DUP2 DUP2 SUB PUSH1 0xC0 DUP4 ADD MSTORE PUSH2 0x17C6 DUP2 DUP5 PUSH2 0x16F6 JUMP JUMPDEST SWAP1 POP SWAP9 SWAP8 POP POP POP POP POP POP POP POP JUMP JUMPDEST PUSH2 0x17DD DUP2 PUSH2 0x15C2 JUMP JUMPDEST DUP2 EQ PUSH2 0x17E7 JUMPI PUSH0 DUP1 REVERT JUMPDEST POP JUMP JUMPDEST PUSH0 DUP2 CALLDATALOAD SWAP1 POP PUSH2 0x17F8 DUP2 PUSH2 0x17D4 JUMP JUMPDEST SWAP3 SWAP2 POP POP JUMP JUMPDEST PUSH2 0x1807 DUP2 PUSH2 0x15F6 JUMP JUMPDEST DUP2 EQ PUSH2 0x1811 JUMPI PUSH0 DUP1 REVERT JUMPDEST POP JUMP JUMPDEST PUSH0 DUP2 CALLDATALOAD SWAP1 POP PUSH2 0x1822 DUP2 PUSH2 0x17FE JUMP JUMPDEST SWAP3 SWAP2 POP POP JUMP JUMPDEST PUSH0 DUP1 PUSH0 DUP1 PUSH0 DUP1 PUSH0 PUSH1 0xE0 DUP9 DUP11 SUB SLT ISZERO PUSH2 0x1843 JUMPI PUSH2 0x1842 PUSH2 0x1448 JUMP JUMPDEST JUMPDEST PUSH0 PUSH2 0x1850 DUP11 DUP3 DUP12 ADD PUSH2 0x1492 JUMP JUMPDEST SWAP8 POP POP PUSH1 0x20 PUSH2 0x1861 DUP11 DUP3 DUP12 ADD PUSH2 0x1492 JUMP JUMPDEST SWAP7 POP POP PUSH1 0x40 PUSH2 0x1872 DUP11 DUP3 DUP12 ADD PUSH2 0x14C5 JUMP JUMPDEST SWAP6 POP POP PUSH1 0x60 PUSH2 0x1883 DUP11 DUP3 DUP12 ADD PUSH2 0x14C5 JUMP JUMPDEST SWAP5 POP POP PUSH1 0x80 PUSH2 0x1894 DUP11 DUP3 DUP12 ADD PUSH2 0x17EA JUMP JUMPDEST SWAP4 POP POP PUSH1 0xA0 PUSH2 0x18A5 DUP11 DUP3 DUP12 ADD PUSH2 0x1814 JUMP JUMPDEST SWAP3 POP POP PUSH1 0xC0 PUSH2 0x18B6 DUP11 DUP3 DUP12 ADD PUSH2 0x1814 JUMP JUMPDEST SWAP2 POP POP SWAP3 SWAP6 SWAP9 SWAP2 SWAP5 SWAP8 POP SWAP3 SWAP6 POP JUMP JUMPDEST PUSH0 DUP1 PUSH1 0x40 DUP4 DUP6 SUB SLT ISZERO PUSH2 0x18DB JUMPI PUSH2 0x18DA PUSH2 0x1448 JUMP JUMPDEST JUMPDEST PUSH0 PUSH2 0x18E8 DUP6 DUP3 DUP7 ADD PUSH2 0x1492 JUMP JUMPDEST SWAP3 POP POP PUSH1 0x20 PUSH2 0x18F9 DUP6 DUP3 DUP7 ADD PUSH2 0x1492 JUMP JUMPDEST SWAP2 POP POP SWAP3 POP SWAP3 SWAP1 POP JUMP JUMPDEST PUSH32 0x4E487B7100000000000000000000000000000000000000000000000000000000 PUSH0 MSTORE PUSH1 0x22 PUSH1 0x4 MSTORE PUSH1 0x24 PUSH0 REVERT JUMPDEST PUSH0 PUSH1 0x2 DUP3 DIV SWAP1 POP PUSH1 0x1 DUP3 AND DUP1 PUSH2 0x1947 JUMPI PUSH1 0x7F DUP3 AND SWAP2 POP JUMPDEST PUSH1 0x20 DUP3 LT DUP2 SUB PUSH2 0x195A JUMPI PUSH2 0x1959 PUSH2 0x1903 JUMP JUMPDEST JUMPDEST POP SWAP2 SWAP1 POP JUMP JUMPDEST PUSH32 0x4E487B7100000000000000000000000000000000000000000000000000000000 PUSH0 MSTORE PUSH1 0x11 PUSH1 0x4 MSTORE PUSH1 0x24 PUSH0 REVERT JUMPDEST PUSH0 PUSH2 0x1997 DUP3 PUSH2 0x14A6 JUMP JUMPDEST SWAP2 POP PUSH2 0x19A2 DUP4 PUSH2 0x14A6 JUMP JUMPDEST SWAP3 POP DUP3 DUP3 ADD SWAP1 POP DUP1 DUP3 GT ISZERO PUSH2 0x19BA JUMPI PUSH2 0x19B9 PUSH2 0x1960 JUMP JUMPDEST JUMPDEST SWAP3 SWAP2 POP POP JUMP JUMPDEST PUSH32 0x4E487B7100000000000000000000000000000000000000000000000000000000 PUSH0 MSTORE PUSH1 0x41 PUSH1 0x4 MSTORE PUSH1 0x24 PUSH0 REVERT JUMPDEST PUSH32 0x45524332303A2064656372656173656420616C6C6F77616E63652062656C6F77 PUSH0 DUP3 ADD MSTORE PUSH32 0x207A65726F000000000000000000000000000000000000000000000000000000 PUSH1 0x20 DUP3 ADD MSTORE POP JUMP JUMPDEST PUSH0 PUSH2 0x1A47 PUSH1 0x25 DUP4 PUSH2 0x13A8 JUMP JUMPDEST SWAP2 POP PUSH2 0x1A52 DUP3 PUSH2 0x19ED JUMP JUMPDEST PUSH1 0x40 DUP3 ADD SWAP1 POP SWAP2 SWAP1 POP JUMP JUMPDEST PUSH0 PUSH1 0x20 DUP3 ADD SWAP1 POP DUP2 DUP2 SUB PUSH0 DUP4 ADD MSTORE PUSH2 0x1A74 DUP2 PUSH2 0x1A3B JUMP JUMPDEST SWAP1 POP SWAP2 SWAP1 POP JUMP JUMPDEST PUSH0 PUSH1 0xC0 DUP3 ADD SWAP1 POP PUSH2 0x1A8E PUSH0 DUP4 ADD DUP10 PUSH2 0x15FF JUMP JUMPDEST PUSH2 0x1A9B PUSH1 0x20 DUP4 ADD DUP9 PUSH2 0x168C JUMP JUMPDEST PUSH2 0x1AA8 PUSH1 0x40 DUP4 ADD DUP8 PUSH2 0x168C JUMP JUMPDEST PUSH2 0x1AB5 PUSH1 0x60 DUP4 ADD DUP7 PUSH2 0x154A JUMP JUMPDEST PUSH2 0x1AC2 PUSH1 0x80 DUP4 ADD DUP6 PUSH2 0x154A JUMP JUMPDEST PUSH2 0x1ACF PUSH1 0xA0 DUP4 ADD DUP5 PUSH2 0x154A JUMP JUMPDEST SWAP8 SWAP7 POP POP POP POP POP POP POP JUMP JUMPDEST PUSH0 PUSH1 0x40 DUP3 ADD SWAP1 POP PUSH2 0x1AED PUSH0 DUP4 ADD DUP6 PUSH2 0x168C JUMP JUMPDEST PUSH2 0x1AFA PUSH1 0x20 DUP4 ADD DUP5 PUSH2 0x168C JUMP JUMPDEST SWAP4 SWAP3 POP POP POP JUMP JUMPDEST PUSH32 0x45524332303A20617070726F76652066726F6D20746865207A65726F20616464 PUSH0 DUP3 ADD MSTORE PUSH32 0x7265737300000000000000000000000000000000000000000000000000000000 PUSH1 0x20 DUP3 ADD MSTORE POP JUMP JUMPDEST PUSH0 PUSH2 0x1B5B PUSH1 0x24 DUP4 PUSH2 0x13A8 JUMP JUMPDEST SWAP2 POP PUSH2 0x1B66 DUP3 PUSH2 0x1B01 JUMP JUMPDEST PUSH1 0x40 DUP3 ADD SWAP1 POP SWAP2 SWAP1 POP JUMP JUMPDEST PUSH0 PUSH1 0x20 DUP3 ADD SWAP1 POP DUP2 DUP2 SUB PUSH0 DUP4 ADD MSTORE PUSH2 0x1B88 DUP2 PUSH2 0x1B4F JUMP JUMPDEST SWAP1 POP SWAP2 SWAP1 POP JUMP JUMPDEST PUSH32 0x45524332303A20617070726F766520746F20746865207A65726F206164647265 PUSH0 DUP3 ADD MSTORE PUSH32 0x7373000000000000000000000000000000000000000000000000000000000000 PUSH1 0x20 DUP3 ADD MSTORE POP JUMP JUMPDEST PUSH0 PUSH2 0x1BE9 PUSH1 0x22 DUP4 PUSH2 0x13A8 JUMP JUMPDEST SWAP2 POP PUSH2 0x1BF4 DUP3 PUSH2 0x1B8F JUMP JUMPDEST PUSH1 0x40 DUP3 ADD SWAP1 POP SWAP2 SWAP1 POP JUMP JUMPDEST PUSH0 PUSH1 0x20 DUP3 ADD SWAP1 POP DUP2 DUP2 SUB PUSH0 DUP4 ADD MSTORE PUSH2 0x1C16 DUP2 PUSH2 0x1BDD JUMP JUMPDEST SWAP1 POP SWAP2 SWAP1 POP JUMP JUMPDEST PUSH32 0x45524332303A20696E73756666696369656E7420616C6C6F77616E6365000000 PUSH0 DUP3 ADD MSTORE POP JUMP JUMPDEST PUSH0 PUSH2 0x1C51 PUSH1 0x1D DUP4 PUSH2 0x13A8 JUMP JUMPDEST SWAP2 POP PUSH2 0x1C5C DUP3 PUSH2 0x1C1D JUMP JUMPDEST PUSH1 0x20 DUP3 ADD SWAP1 POP SWAP2 SWAP1 POP JUMP JUMPDEST PUSH0 PUSH1 0x20 DUP3 ADD SWAP1 POP DUP2 DUP2 SUB PUSH0 DUP4 ADD MSTORE PUSH2 0x1C7E DUP2 PUSH2 0x1C45 JUMP JUMPDEST SWAP1 POP SWAP2 SWAP1 POP JUMP JUMPDEST PUSH32 0x45524332303A207472616E736665722066726F6D20746865207A65726F206164 PUSH0 DUP3 ADD MSTORE PUSH32 0x6472657373000000000000000000000000000000000000000000000000000000 PUSH1 0x20 DUP3 ADD MSTORE POP JUMP JUMPDEST PUSH0 PUSH2 0x1CDF PUSH1 0x25 DUP4 PUSH2 0x13A8 JUMP JUMPDEST SWAP2 POP PUSH2 0x1CEA DUP3 PUSH2 0x1C85 JUMP JUMPDEST PUSH1 0x40 DUP3 ADD SWAP1 POP SWAP2 SWAP1 POP JUMP JUMPDEST PUSH0 PUSH1 0x20 DUP3 ADD SWAP1 POP DUP2 DUP2 SUB PUSH0 DUP4 ADD MSTORE PUSH2 0x1D0C DUP2 PUSH2 0x1CD3 JUMP JUMPDEST SWAP1 POP SWAP2 SWAP1 POP JUMP JUMPDEST PUSH32 0x45524332303A207472616E7366657220746F20746865207A65726F2061646472 PUSH0 DUP3 ADD MSTORE PUSH32 0x6573730000000000000000000000000000000000000000000000000000000000 PUSH1 0x20 DUP3 ADD MSTORE POP JUMP JUMPDEST PUSH0 PUSH2 0x1D6D PUSH1 0x23 DUP4 PUSH2 0x13A8 JUMP JUMPDEST SWAP2 POP PUSH2 0x1D78 DUP3 PUSH2 0x1D13 JUMP JUMPDEST PUSH1 0x40 DUP3 ADD SWAP1 POP SWAP2 SWAP1 POP JUMP JUMPDEST PUSH0 PUSH1 0x20 DUP3 ADD SWAP1 POP DUP2 DUP2 SUB PUSH0 DUP4 ADD MSTORE PUSH2 0x1D9A DUP2 PUSH2 0x1D61 JUMP JUMPDEST SWAP1 POP SWAP2 SWAP1 POP JUMP JUMPDEST PUSH32 0x45524332303A207472616E7366657220616D6F756E7420657863656564732062 PUSH0 DUP3 ADD MSTORE PUSH32 0x616C616E63650000000000000000000000000000000000000000000000000000 PUSH1 0x20 DUP3 ADD MSTORE POP JUMP JUMPDEST PUSH0 PUSH2 0x1DFB PUSH1 0x26 DUP4 PUSH2 0x13A8 JUMP JUMPDEST SWAP2 POP PUSH2 0x1E06 DUP3 PUSH2 0x1DA1 JUMP JUMPDEST PUSH1 0x40 DUP3 ADD SWAP1 POP SWAP2 SWAP1 POP JUMP JUMPDEST PUSH0 PUSH1 0x20 DUP3 ADD SWAP1 POP DUP2 DUP2 SUB PUSH0 DUP4 ADD MSTORE PUSH2 0x1E28 DUP2 PUSH2 0x1DEF JUMP JUMPDEST SWAP1 POP SWAP2 SWAP1 POP JUMP JUMPDEST PUSH0 PUSH1 0xA0 DUP3 ADD SWAP1 POP PUSH2 0x1E42 PUSH0 DUP4 ADD DUP9 PUSH2 0x15FF JUMP JUMPDEST PUSH2 0x1E4F PUSH1 0x20 DUP4 ADD DUP8 PUSH2 0x15FF JUMP JUMPDEST PUSH2 0x1E5C PUSH1 0x40 DUP4 ADD DUP7 PUSH2 0x15FF JUMP JUMPDEST PUSH2 0x1E69 PUSH1 0x60 DUP4 ADD DUP6 PUSH2 0x154A JUMP JUMPDEST PUSH2 0x1E76 PUSH1 0x80 DUP4 ADD DUP5 PUSH2 0x168C JUMP JUMPDEST SWAP7 SWAP6 POP POP POP POP POP POP JUMP JUMPDEST PUSH0 PUSH1 0x80 DUP3 ADD SWAP1 POP PUSH2 0x1E93 PUSH0 DUP4 ADD DUP8 PUSH2 0x15FF JUMP JUMPDEST PUSH2 0x1EA0 PUSH1 0x20 DUP4 ADD DUP7 PUSH2 0x15CE JUMP JUMPDEST PUSH2 0x1EAD PUSH1 0x40 DUP4 ADD DUP6 PUSH2 0x15FF JUMP JUMPDEST PUSH2 0x1EBA PUSH1 0x60 DUP4 ADD DUP5 PUSH2 0x15FF JUMP JUMPDEST SWAP6 SWAP5 POP POP POP POP POP JUMP JUMPDEST PUSH32 0x4E487B7100000000000000000000000000000000000000000000000000000000 PUSH0 MSTORE PUSH1 0x21 PUSH1 0x4 MSTORE PUSH1 0x24 PUSH0 REVERT JUMPDEST PUSH32 0x45434453413A20696E76616C6964207369676E61747572650000000000000000 PUSH0 DUP3 ADD MSTORE POP JUMP JUMPDEST PUSH0 PUSH2 0x1F24 PUSH1 0x18 DUP4 PUSH2 0x13A8 JUMP JUMPDEST SWAP2 POP PUSH2 0x1F2F DUP3 PUSH2 0x1EF0 JUMP JUMPDEST PUSH1 0x20 DUP3 ADD SWAP1 POP SWAP2 SWAP1 POP JUMP JUMPDEST PUSH0 PUSH1 0x20 DUP3 ADD SWAP1 POP DUP2 DUP2 SUB PUSH0 DUP4 ADD MSTORE PUSH2 0x1F51 DUP2 PUSH2 0x1F18 JUMP JUMPDEST SWAP1 POP SWAP2 SWAP1 POP JUMP JUMPDEST PUSH32 0x45434453413A20696E76616C6964207369676E6174757265206C656E67746800 PUSH0 DUP3 ADD MSTORE POP JUMP JUMPDEST PUSH0 PUSH2 0x1F8C PUSH1 0x1F DUP4 PUSH2 0x13A8 JUMP JUMPDEST SWAP2 POP PUSH2 0x1F97 DUP3 PUSH2 0x1F58 JUMP JUMPDEST PUSH1 0x20 DUP3 ADD SWAP1 POP SWAP2 SWAP1 POP JUMP JUMPDEST PUSH0 PUSH1 0x20 DUP3 ADD SWAP1 POP DUP2 DUP2 SUB PUSH0 DUP4 ADD MSTORE PUSH2 0x1FB9 DUP2 PUSH2 0x1F80 JUMP JUMPDEST SWAP1 POP SWAP2 SWAP1 POP JUMP JUMPDEST PUSH32 0x45434453413A20696E76616C6964207369676E6174757265202773272076616C PUSH0 DUP3 ADD MSTORE PUSH32 0x7565000000000000000000000000000000000000000000000000000000000000 PUSH1 0x20 DUP3 ADD MSTORE POP JUMP JUMPDEST PUSH0 PUSH2 0x201A PUSH1 0x22 DUP4 PUSH2 0x13A8 JUMP JUMPDEST SWAP2 POP PUSH2 0x2025 DUP3 PUSH2 0x1FC0 JUMP JUMPDEST PUSH1 0x40 DUP3 ADD SWAP1 POP SWAP2 SWAP1 POP JUMP JUMPDEST PUSH0 PUSH1 0x20 DUP3 ADD SWAP1 POP DUP2 DUP2 SUB PUSH0 DUP4 ADD MSTORE PUSH2 0x2047 DUP2 PUSH2 0x200E JUMP JUMPDEST SWAP1 POP SWAP2 SWAP1 POP JUMP INVALID LOG2 PUSH5 0x6970667358 0x22 SLT KECCAK256 LOG0 0x4D DUP8 0x26 AND 0xB4 0xA7 0xD9 CALLDATASIZE 0xA5 DUP13 CREATE 0x2D PUSH10 0xCB34601F86D8E97B1FB3 DUP6 LOG1 0xE9 RETURNDATACOPY EQ MUL 0xAC GAS PUSH5 0x736F6C6343 STOP ADDMOD EQ STOP CALLER "
				},
				"gasEstimates": {
					"creation": {
						"codeDepositCost": "1664800",
						"executionCost": "infinite",
						"totalCost": "infinite"
					},
					"external": {
						"DOMAIN_SEPARATOR()": "infinite",
						"allowance(address,address)": "infinite",
						"approve(address,uint256)": "infinite",
						"balanceOf(address)": "2852",
						"decimals()": "383",
						"decreaseAllowance(address,uint256)": "infinite",
						"eip712Domain()": "infinite",
						"increaseAllowance(address,uint256)": "infinite",
						"name()": "infinite",
						"nonces(address)": "2916",
						"permit(address,address,uint256,uint256,uint8,bytes32,bytes32)": "infinite",
						"symbol()": "infinite",
						"totalSupply()": "2500",
						"transfer(address,uint256)": "infinite",
						"transferFrom(address,address,uint256)": "infinite"
					}
				},
				"methodIdentifiers": {
					"DOMAIN_SEPARATOR()": "3644e515",
					"allowance(address,address)": "dd62ed3e",
					"approve(address,uint256)": "095ea7b3",
					"balanceOf(address)": "70a08231",
					"decimals()": "313ce567",
					"decreaseAllowance(address,uint256)": "a457c2d7",
					"eip712Domain()": "84b0196e",
					"increaseAllowance(address,uint256)": "39509351",
					"name()": "06fdde03",
					"nonces(address)": "7ecebe00",
					"permit(address,address,uint256,uint256,uint8,bytes32,bytes32)": "d505accf",
					"symbol()": "95d89b41",
					"totalSupply()": "18160ddd",
					"transfer(address,uint256)": "a9059cbb",
					"transferFrom(address,address,uint256)": "23b872dd"
				}
			},
			"storageLayout": {
				"storage": [
					{
						"astId": 2254,
						"contract": "saleIDO\\ZNS.sol:ZNS",
						"label": "_balances",
						"offset": 0,
						"slot": "0",
						"type": "t_mapping(t_address,t_uint256)"
					},
					{
						"astId": 2260,
						"contract": "saleIDO\\ZNS.sol:ZNS",
						"label": "_allowances",
						"offset": 0,
						"slot": "1",
						"type": "t_mapping(t_address,t_mapping(t_address,t_uint256))"
					},
					{
						"astId": 2262,
						"contract": "saleIDO\\ZNS.sol:ZNS",
						"label": "_totalSupply",
						"offset": 0,
						"slot": "2",
						"type": "t_uint256"
					},
					{
						"astId": 2264,
						"contract": "saleIDO\\ZNS.sol:ZNS",
						"label": "_name",
						"offset": 0,
						"slot": "3",
						"type": "t_string_storage"
					},
					{
						"astId": 2266,
						"contract": "saleIDO\\ZNS.sol:ZNS",
						"label": "_symbol",
						"offset": 0,
						"slot": "4",
						"type": "t_string_storage"
					},
					{
						"astId": 978,
						"contract": "saleIDO\\ZNS.sol:ZNS",
						"label": "_nameFallback",
						"offset": 0,
						"slot": "5",
						"type": "t_string_storage"
					},
					{
						"astId": 980,
						"contract": "saleIDO\\ZNS.sol:ZNS",
						"label": "_versionFallback",
						"offset": 0,
						"slot": "6",
						"type": "t_string_storage"
					},
					{
						"astId": 2872,
						"contract": "saleIDO\\ZNS.sol:ZNS",
						"label": "_nonces",
						"offset": 0,
						"slot": "7",
						"type": "t_mapping(t_address,t_uint256)"
					}
				],
				"types": {
					"t_address": {
						"encoding": "inplace",
						"label": "address",
						"numberOfBytes": "20"
					},
					"t_mapping(t_address,t_mapping(t_address,t_uint256))": {
						"encoding": "mapping",
						"key": "t_address",
						"label": "mapping(address => mapping(address => uint256))",
						"numberOfBytes": "32",
						"value": "t_mapping(t_address,t_uint256)"
					},
					"t_mapping(t_address,t_uint256)": {
						"encoding": "mapping",
						"key": "t_address",
						"label": "mapping(address => uint256)",
						"numberOfBytes": "32",
						"value": "t_uint256"
					},
					"t_string_storage": {
						"encoding": "bytes",
						"label": "string",
						"numberOfBytes": "32"
					},
					"t_uint256": {
						"encoding": "inplace",
						"label": "uint256",
						"numberOfBytes": "32"
					}
				}
			},
			"userdoc": {
				"kind": "user",
				"methods": {},
				"version": 1
			}
		}
	}
}