{
	"hash.sol": {
		"test": {
			"abi": [
				{
					"inputs": [
						{
							"internalType": "uint256",
							"name": "_num",
							"type": "uint256"
						},
						{
							"internalType": "string",
							"name": "_string",
							"type": "string"
						},
						{
							"internalType": "address",
							"name": "_addr",
							"type": "address"
						}
					],
					"name": "hash",
					"outputs": [
						{
							"internalType": "bytes32",
							"name": "",
							"type": "bytes32"
						}
					],
					"stateMutability": "pure",
					"type": "function"
				},
				{
					"inputs": [
						{
							"internalType": "string",
							"name": "string1",
							"type": "string"
						}
					],
					"name": "weak",
					"outputs": [
						{
							"internalType": "bool",
							"name": "",
							"type": "bool"
						}
					],
					"stateMutability": "view",
					"type": "function"
				}
			],
			"devdoc": {
				"kind": "dev",
				"methods": {},
				"version": 1
			},
			"evm": {
				"assembly": "    /* \"hash.sol\":72:536  contract test{\r... */\n  mstore(0x40, 0x80)\n    /* \"hash.sol\":117:141  abi.encodePacked('0xAA') */\n  add(0x20, mload(0x40))\n  tag_1\n  swap1\n  tag_2\n  jump\t// in\ntag_1:\n  mload(0x40)\n  0x20\n  dup2\n  dup4\n  sub\n  sub\n  dup2\n  mstore\n  swap1\n  0x40\n  mstore\n    /* \"hash.sol\":107:142  keccak256(abi.encodePacked('0xAA')) */\n  dup1\n  mload\n  swap1\n  0x20\n  add\n  keccak256\n    /* \"hash.sol\":92:142  bytes32 _msg = keccak256(abi.encodePacked('0xAA')) */\n  0x00\n  sstore\n    /* \"hash.sol\":72:536  contract test{\r... */\n  callvalue\n  dup1\n  iszero\n  tag_3\n  jumpi\n  0x00\n  dup1\n  revert\ntag_3:\n  pop\n  jump(tag_4)\n    /* \"#utility.yul\":7:407   */\ntag_6:\n    /* \"#utility.yul\":167:170   */\n  0x00\n    /* \"#utility.yul\":188:272   */\n  tag_8\n    /* \"#utility.yul\":270:271   */\n  0x04\n    /* \"#utility.yul\":265:268   */\n  dup4\n    /* \"#utility.yul\":188:272   */\n  tag_9\n  jump\t// in\ntag_8:\n    /* \"#utility.yul\":181:272   */\n  swap2\n  pop\n    /* \"#utility.yul\":281:374   */\n  tag_10\n    /* \"#utility.yul\":370:373   */\n  dup3\n    /* \"#utility.yul\":281:374   */\n  tag_11\n  jump\t// in\ntag_10:\n    /* \"#utility.yul\":399:400   */\n  0x04\n    /* \"#utility.yul\":394:397   */\n  dup3\n    /* \"#utility.yul\":390:401   */\n  add\n    /* \"#utility.yul\":383:401   */\n  swap1\n  pop\n    /* \"#utility.yul\":7:407   */\n  swap2\n  swap1\n  pop\n  jump\t// out\n    /* \"#utility.yul\":413:794   */\ntag_2:\n    /* \"#utility.yul\":598:601   */\n  0x00\n    /* \"#utility.yul\":620:768   */\n  tag_13\n    /* \"#utility.yul\":764:767   */\n  dup3\n    /* \"#utility.yul\":620:768   */\n  tag_6\n  jump\t// in\ntag_13:\n    /* \"#utility.yul\":613:768   */\n  swap2\n  pop\n    /* \"#utility.yul\":785:788   */\n  dup2\n    /* \"#utility.yul\":778:788   */\n  swap1\n  pop\n    /* \"#utility.yul\":413:794   */\n  swap2\n  swap1\n  pop\n  jump\t// out\n    /* \"#utility.yul\":800:948   */\ntag_9:\n    /* \"#utility.yul\":902:913   */\n  0x00\n    /* \"#utility.yul\":939:942   */\n  dup2\n    /* \"#utility.yul\":924:942   */\n  swap1\n  pop\n    /* \"#utility.yul\":800:948   */\n  swap3\n  swap2\n  pop\n  pop\n  jump\t// out\n    /* \"#utility.yul\":954:1108   */\ntag_11:\n    /* \"#utility.yul\":1094:1100   */\n  0x3078414100000000000000000000000000000000000000000000000000000000\n    /* \"#utility.yul\":1090:1091   */\n  0x00\n    /* \"#utility.yul\":1082:1088   */\n  dup3\n    /* \"#utility.yul\":1078:1092   */\n  add\n    /* \"#utility.yul\":1071:1101   */\n  mstore\n    /* \"#utility.yul\":954:1108   */\n  pop\n  jump\t// out\n    /* \"hash.sol\":72:536  contract test{\r... */\ntag_4:\n  dataSize(sub_0)\n  dup1\n  dataOffset(sub_0)\n  0x00\n  codecopy\n  0x00\n  return\nstop\n\nsub_0: assembly {\n        /* \"hash.sol\":72:536  contract test{\r... */\n      mstore(0x40, 0x80)\n      callvalue\n      dup1\n      iszero\n      tag_1\n      jumpi\n      0x00\n      dup1\n      revert\n    tag_1:\n      pop\n      jumpi(tag_2, lt(calldatasize, 0x04))\n      shr(0xe0, calldataload(0x00))\n      dup1\n      0x4f6b068d\n      eq\n      tag_3\n      jumpi\n      dup1\n      0xd6abfc7b\n      eq\n      tag_4\n      jumpi\n    tag_2:\n      0x00\n      dup1\n      revert\n        /* \"hash.sol\":151:353  function hash(\r... */\n    tag_3:\n      tag_5\n      0x04\n      dup1\n      calldatasize\n      sub\n      dup2\n      add\n      swap1\n      tag_6\n      swap2\n      swap1\n      tag_7\n      jump\t// in\n    tag_6:\n      tag_8\n      jump\t// in\n    tag_5:\n      mload(0x40)\n      tag_9\n      swap2\n      swap1\n      tag_10\n      jump\t// in\n    tag_9:\n      mload(0x40)\n      dup1\n      swap2\n      sub\n      swap1\n      return\n        /* \"hash.sol\":385:533  function weak(\r... */\n    tag_4:\n      tag_11\n      0x04\n      dup1\n      calldatasize\n      sub\n      dup2\n      add\n      swap1\n      tag_12\n      swap2\n      swap1\n      tag_13\n      jump\t// in\n    tag_12:\n      tag_14\n      jump\t// in\n    tag_11:\n      mload(0x40)\n      tag_15\n      swap2\n      swap1\n      tag_16\n      jump\t// in\n    tag_15:\n      mload(0x40)\n      dup1\n      swap2\n      sub\n      swap1\n      return\n        /* \"hash.sol\":151:353  function hash(\r... */\n    tag_8:\n        /* \"hash.sol\":269:276  bytes32 */\n      0x00\n        /* \"hash.sol\":323:327  _num */\n      dup4\n        /* \"hash.sol\":329:336  _string */\n      dup4\n        /* \"hash.sol\":338:343  _addr */\n      dup4\n        /* \"hash.sol\":306:344  abi.encodePacked(_num, _string, _addr) */\n      add(0x20, mload(0x40))\n      tag_18\n      swap4\n      swap3\n      swap2\n      swap1\n      tag_19\n      jump\t// in\n    tag_18:\n      mload(0x40)\n      0x20\n      dup2\n      dup4\n      sub\n      sub\n      dup2\n      mstore\n      swap1\n      0x40\n      mstore\n        /* \"hash.sol\":296:345  keccak256(abi.encodePacked(_num, _string, _addr)) */\n      dup1\n      mload\n      swap1\n      0x20\n      add\n      keccak256\n        /* \"hash.sol\":289:345  return keccak256(abi.encodePacked(_num, _string, _addr)) */\n      swap1\n      pop\n        /* \"hash.sol\":151:353  function hash(\r... */\n      swap4\n      swap3\n      pop\n      pop\n      pop\n      jump\t// out\n        /* \"hash.sol\":385:533  function weak(\r... */\n    tag_14:\n        /* \"hash.sol\":458:462  bool */\n      0x00\n        /* \"hash.sol\":521:525  _msg */\n      dup1\n      sload\n        /* \"hash.sol\":508:515  string1 */\n      dup3\n        /* \"hash.sol\":491:516  abi.encodePacked(string1) */\n      add(0x20, mload(0x40))\n      tag_21\n      swap2\n      swap1\n      tag_22\n      jump\t// in\n    tag_21:\n      mload(0x40)\n      0x20\n      dup2\n      dup4\n      sub\n      sub\n      dup2\n      mstore\n      swap1\n      0x40\n      mstore\n        /* \"hash.sol\":481:517  keccak256(abi.encodePacked(string1)) */\n      dup1\n      mload\n      swap1\n      0x20\n      add\n      keccak256\n        /* \"hash.sol\":481:525  keccak256(abi.encodePacked(string1)) == _msg */\n      eq\n        /* \"hash.sol\":474:525  return keccak256(abi.encodePacked(string1)) == _msg */\n      swap1\n      pop\n        /* \"hash.sol\":385:533  function weak(\r... */\n      swap2\n      swap1\n      pop\n      jump\t// out\n        /* \"#utility.yul\":7:419   */\n    tag_24:\n        /* \"#utility.yul\":85:90   */\n      0x00\n        /* \"#utility.yul\":110:176   */\n      tag_26\n        /* \"#utility.yul\":126:175   */\n      tag_27\n        /* \"#utility.yul\":168:174   */\n      dup5\n        /* \"#utility.yul\":126:175   */\n      tag_28\n      jump\t// in\n    tag_27:\n        /* \"#utility.yul\":110:176   */\n      tag_29\n      jump\t// in\n    tag_26:\n        /* \"#utility.yul\":101:176   */\n      swap1\n      pop\n        /* \"#utility.yul\":199:205   */\n      dup3\n        /* \"#utility.yul\":192:197   */\n      dup2\n        /* \"#utility.yul\":185:206   */\n      mstore\n        /* \"#utility.yul\":237:241   */\n      0x20\n        /* \"#utility.yul\":230:235   */\n      dup2\n        /* \"#utility.yul\":226:242   */\n      add\n        /* \"#utility.yul\":275:278   */\n      dup5\n        /* \"#utility.yul\":266:272   */\n      dup5\n        /* \"#utility.yul\":261:264   */\n      dup5\n        /* \"#utility.yul\":257:273   */\n      add\n        /* \"#utility.yul\":254:279   */\n      gt\n        /* \"#utility.yul\":251:363   */\n      iszero\n      tag_30\n      jumpi\n        /* \"#utility.yul\":282:361   */\n      tag_31\n      tag_32\n      jump\t// in\n    tag_31:\n        /* \"#utility.yul\":251:363   */\n    tag_30:\n        /* \"#utility.yul\":372:413   */\n      tag_33\n        /* \"#utility.yul\":406:412   */\n      dup5\n        /* \"#utility.yul\":401:404   */\n      dup3\n        /* \"#utility.yul\":396:399   */\n      dup6\n        /* \"#utility.yul\":372:413   */\n      tag_34\n      jump\t// in\n    tag_33:\n        /* \"#utility.yul\":91:419   */\n      pop\n        /* \"#utility.yul\":7:419   */\n      swap4\n      swap3\n      pop\n      pop\n      pop\n      jump\t// out\n        /* \"#utility.yul\":425:564   */\n    tag_35:\n        /* \"#utility.yul\":471:476   */\n      0x00\n        /* \"#utility.yul\":509:515   */\n      dup2\n        /* \"#utility.yul\":496:516   */\n      calldataload\n        /* \"#utility.yul\":487:516   */\n      swap1\n      pop\n        /* \"#utility.yul\":525:558   */\n      tag_37\n        /* \"#utility.yul\":552:557   */\n      dup2\n        /* \"#utility.yul\":525:558   */\n      tag_38\n      jump\t// in\n    tag_37:\n        /* \"#utility.yul\":425:564   */\n      swap3\n      swap2\n      pop\n      pop\n      jump\t// out\n        /* \"#utility.yul\":584:924   */\n    tag_39:\n        /* \"#utility.yul\":640:645   */\n      0x00\n        /* \"#utility.yul\":689:692   */\n      dup3\n        /* \"#utility.yul\":682:686   */\n      0x1f\n        /* \"#utility.yul\":674:680   */\n      dup4\n        /* \"#utility.yul\":670:687   */\n      add\n        /* \"#utility.yul\":666:693   */\n      slt\n        /* \"#utility.yul\":656:778   */\n      tag_41\n      jumpi\n        /* \"#utility.yul\":697:776   */\n      tag_42\n      tag_43\n      jump\t// in\n    tag_42:\n        /* \"#utility.yul\":656:778   */\n    tag_41:\n        /* \"#utility.yul\":814:820   */\n      dup2\n        /* \"#utility.yul\":801:821   */\n      calldataload\n        /* \"#utility.yul\":839:918   */\n      tag_44\n        /* \"#utility.yul\":914:917   */\n      dup5\n        /* \"#utility.yul\":906:912   */\n      dup3\n        /* \"#utility.yul\":899:903   */\n      0x20\n        /* \"#utility.yul\":891:897   */\n      dup7\n        /* \"#utility.yul\":887:904   */\n      add\n        /* \"#utility.yul\":839:918   */\n      tag_24\n      jump\t// in\n    tag_44:\n        /* \"#utility.yul\":830:918   */\n      swap2\n      pop\n        /* \"#utility.yul\":646:924   */\n      pop\n        /* \"#utility.yul\":584:924   */\n      swap3\n      swap2\n      pop\n      pop\n      jump\t// out\n        /* \"#utility.yul\":930:1069   */\n    tag_45:\n        /* \"#utility.yul\":976:981   */\n      0x00\n        /* \"#utility.yul\":1014:1020   */\n      dup2\n        /* \"#utility.yul\":1001:1021   */\n      calldataload\n        /* \"#utility.yul\":992:1021   */\n      swap1\n      pop\n        /* \"#utility.yul\":1030:1063   */\n      tag_47\n        /* \"#utility.yul\":1057:1062   */\n      dup2\n        /* \"#utility.yul\":1030:1063   */\n      tag_48\n      jump\t// in\n    tag_47:\n        /* \"#utility.yul\":930:1069   */\n      swap3\n      swap2\n      pop\n      pop\n      jump\t// out\n        /* \"#utility.yul\":1075:1584   */\n    tag_13:\n        /* \"#utility.yul\":1144:1150   */\n      0x00\n        /* \"#utility.yul\":1193:1195   */\n      0x20\n        /* \"#utility.yul\":1181:1190   */\n      dup3\n        /* \"#utility.yul\":1172:1179   */\n      dup5\n        /* \"#utility.yul\":1168:1191   */\n      sub\n        /* \"#utility.yul\":1164:1196   */\n      slt\n        /* \"#utility.yul\":1161:1280   */\n      iszero\n      tag_50\n      jumpi\n        /* \"#utility.yul\":1199:1278   */\n      tag_51\n      tag_52\n      jump\t// in\n    tag_51:\n        /* \"#utility.yul\":1161:1280   */\n    tag_50:\n        /* \"#utility.yul\":1347:1348   */\n      0x00\n        /* \"#utility.yul\":1336:1345   */\n      dup3\n        /* \"#utility.yul\":1332:1349   */\n      add\n        /* \"#utility.yul\":1319:1350   */\n      calldataload\n        /* \"#utility.yul\":1377:1395   */\n      0xffffffffffffffff\n        /* \"#utility.yul\":1369:1375   */\n      dup2\n        /* \"#utility.yul\":1366:1396   */\n      gt\n        /* \"#utility.yul\":1363:1480   */\n      iszero\n      tag_53\n      jumpi\n        /* \"#utility.yul\":1399:1478   */\n      tag_54\n      tag_55\n      jump\t// in\n    tag_54:\n        /* \"#utility.yul\":1363:1480   */\n    tag_53:\n        /* \"#utility.yul\":1504:1567   */\n      tag_56\n        /* \"#utility.yul\":1559:1566   */\n      dup5\n        /* \"#utility.yul\":1550:1556   */\n      dup3\n        /* \"#utility.yul\":1539:1548   */\n      dup6\n        /* \"#utility.yul\":1535:1557   */\n      add\n        /* \"#utility.yul\":1504:1567   */\n      tag_39\n      jump\t// in\n    tag_56:\n        /* \"#utility.yul\":1494:1567   */\n      swap2\n      pop\n        /* \"#utility.yul\":1290:1577   */\n      pop\n        /* \"#utility.yul\":1075:1584   */\n      swap3\n      swap2\n      pop\n      pop\n      jump\t// out\n        /* \"#utility.yul\":1590:2389   */\n    tag_7:\n        /* \"#utility.yul\":1677:1683   */\n      0x00\n        /* \"#utility.yul\":1685:1691   */\n      dup1\n        /* \"#utility.yul\":1693:1699   */\n      0x00\n        /* \"#utility.yul\":1742:1744   */\n      0x60\n        /* \"#utility.yul\":1730:1739   */\n      dup5\n        /* \"#utility.yul\":1721:1728   */\n      dup7\n        /* \"#utility.yul\":1717:1740   */\n      sub\n        /* \"#utility.yul\":1713:1745   */\n      slt\n        /* \"#utility.yul\":1710:1829   */\n      iszero\n      tag_58\n      jumpi\n        /* \"#utility.yul\":1748:1827   */\n      tag_59\n      tag_52\n      jump\t// in\n    tag_59:\n        /* \"#utility.yul\":1710:1829   */\n    tag_58:\n        /* \"#utility.yul\":1868:1869   */\n      0x00\n        /* \"#utility.yul\":1893:1946   */\n      tag_60\n        /* \"#utility.yul\":1938:1945   */\n      dup7\n        /* \"#utility.yul\":1929:1935   */\n      dup3\n        /* \"#utility.yul\":1918:1927   */\n      dup8\n        /* \"#utility.yul\":1914:1936   */\n      add\n        /* \"#utility.yul\":1893:1946   */\n      tag_45\n      jump\t// in\n    tag_60:\n        /* \"#utility.yul\":1883:1946   */\n      swap4\n      pop\n        /* \"#utility.yul\":1839:1956   */\n      pop\n        /* \"#utility.yul\":2023:2025   */\n      0x20\n        /* \"#utility.yul\":2012:2021   */\n      dup5\n        /* \"#utility.yul\":2008:2026   */\n      add\n        /* \"#utility.yul\":1995:2027   */\n      calldataload\n        /* \"#utility.yul\":2054:2072   */\n      0xffffffffffffffff\n        /* \"#utility.yul\":2046:2052   */\n      dup2\n        /* \"#utility.yul\":2043:2073   */\n      gt\n        /* \"#utility.yul\":2040:2157   */\n      iszero\n      tag_61\n      jumpi\n        /* \"#utility.yul\":2076:2155   */\n      tag_62\n      tag_55\n      jump\t// in\n    tag_62:\n        /* \"#utility.yul\":2040:2157   */\n    tag_61:\n        /* \"#utility.yul\":2181:2244   */\n      tag_63\n        /* \"#utility.yul\":2236:2243   */\n      dup7\n        /* \"#utility.yul\":2227:2233   */\n      dup3\n        /* \"#utility.yul\":2216:2225   */\n      dup8\n        /* \"#utility.yul\":2212:2234   */\n      add\n        /* \"#utility.yul\":2181:2244   */\n      tag_39\n      jump\t// in\n    tag_63:\n        /* \"#utility.yul\":2171:2244   */\n      swap3\n      pop\n        /* \"#utility.yul\":1966:2254   */\n      pop\n        /* \"#utility.yul\":2293:2295   */\n      0x40\n        /* \"#utility.yul\":2319:2372   */\n      tag_64\n        /* \"#utility.yul\":2364:2371   */\n      dup7\n        /* \"#utility.yul\":2355:2361   */\n      dup3\n        /* \"#utility.yul\":2344:2353   */\n      dup8\n        /* \"#utility.yul\":2340:2362   */\n      add\n        /* \"#utility.yul\":2319:2372   */\n      tag_35\n      jump\t// in\n    tag_64:\n        /* \"#utility.yul\":2309:2372   */\n      swap2\n      pop\n        /* \"#utility.yul\":2264:2382   */\n      pop\n        /* \"#utility.yul\":1590:2389   */\n      swap3\n      pop\n      swap3\n      pop\n      swap3\n      jump\t// out\n        /* \"#utility.yul\":2395:2552   */\n    tag_65:\n        /* \"#utility.yul\":2500:2545   */\n      tag_67\n        /* \"#utility.yul\":2520:2544   */\n      tag_68\n        /* \"#utility.yul\":2538:2543   */\n      dup3\n        /* \"#utility.yul\":2520:2544   */\n      tag_69\n      jump\t// in\n    tag_68:\n        /* \"#utility.yul\":2500:2545   */\n      tag_70\n      jump\t// in\n    tag_67:\n        /* \"#utility.yul\":2495:2498   */\n      dup3\n        /* \"#utility.yul\":2488:2546   */\n      mstore\n        /* \"#utility.yul\":2395:2552   */\n      pop\n      pop\n      jump\t// out\n        /* \"#utility.yul\":2558:2667   */\n    tag_71:\n        /* \"#utility.yul\":2639:2660   */\n      tag_73\n        /* \"#utility.yul\":2654:2659   */\n      dup2\n        /* \"#utility.yul\":2639:2660   */\n      tag_74\n      jump\t// in\n    tag_73:\n        /* \"#utility.yul\":2634:2637   */\n      dup3\n        /* \"#utility.yul\":2627:2661   */\n      mstore\n        /* \"#utility.yul\":2558:2667   */\n      pop\n      pop\n      jump\t// out\n        /* \"#utility.yul\":2673:2791   */\n    tag_75:\n        /* \"#utility.yul\":2760:2784   */\n      tag_77\n        /* \"#utility.yul\":2778:2783   */\n      dup2\n        /* \"#utility.yul\":2760:2784   */\n      tag_78\n      jump\t// in\n    tag_77:\n        /* \"#utility.yul\":2755:2758   */\n      dup3\n        /* \"#utility.yul\":2748:2785   */\n      mstore\n        /* \"#utility.yul\":2673:2791   */\n      pop\n      pop\n      jump\t// out\n        /* \"#utility.yul\":2797:3174   */\n    tag_79:\n        /* \"#utility.yul\":2903:2906   */\n      0x00\n        /* \"#utility.yul\":2931:2970   */\n      tag_81\n        /* \"#utility.yul\":2964:2969   */\n      dup3\n        /* \"#utility.yul\":2931:2970   */\n      tag_82\n      jump\t// in\n    tag_81:\n        /* \"#utility.yul\":2986:3075   */\n      tag_83\n        /* \"#utility.yul\":3068:3074   */\n      dup2\n        /* \"#utility.yul\":3063:3066   */\n      dup6\n        /* \"#utility.yul\":2986:3075   */\n      tag_84\n      jump\t// in\n    tag_83:\n        /* \"#utility.yul\":2979:3075   */\n      swap4\n      pop\n        /* \"#utility.yul\":3084:3136   */\n      tag_85\n        /* \"#utility.yul\":3129:3135   */\n      dup2\n        /* \"#utility.yul\":3124:3127   */\n      dup6\n        /* \"#utility.yul\":3117:3121   */\n      0x20\n        /* \"#utility.yul\":3110:3115   */\n      dup7\n        /* \"#utility.yul\":3106:3122   */\n      add\n        /* \"#utility.yul\":3084:3136   */\n      tag_86\n      jump\t// in\n    tag_85:\n        /* \"#utility.yul\":3161:3167   */\n      dup1\n        /* \"#utility.yul\":3156:3159   */\n      dup5\n        /* \"#utility.yul\":3152:3168   */\n      add\n        /* \"#utility.yul\":3145:3168   */\n      swap2\n      pop\n        /* \"#utility.yul\":2907:3174   */\n      pop\n        /* \"#utility.yul\":2797:3174   */\n      swap3\n      swap2\n      pop\n      pop\n      jump\t// out\n        /* \"#utility.yul\":3180:3337   */\n    tag_87:\n        /* \"#utility.yul\":3285:3330   */\n      tag_89\n        /* \"#utility.yul\":3305:3329   */\n      tag_90\n        /* \"#utility.yul\":3323:3328   */\n      dup3\n        /* \"#utility.yul\":3305:3329   */\n      tag_91\n      jump\t// in\n    tag_90:\n        /* \"#utility.yul\":3285:3330   */\n      tag_92\n      jump\t// in\n    tag_89:\n        /* \"#utility.yul\":3280:3283   */\n      dup3\n        /* \"#utility.yul\":3273:3331   */\n      mstore\n        /* \"#utility.yul\":3180:3337   */\n      pop\n      pop\n      jump\t// out\n        /* \"#utility.yul\":3343:3618   */\n    tag_22:\n        /* \"#utility.yul\":3475:3478   */\n      0x00\n        /* \"#utility.yul\":3497:3592   */\n      tag_94\n        /* \"#utility.yul\":3588:3591   */\n      dup3\n        /* \"#utility.yul\":3579:3585   */\n      dup5\n        /* \"#utility.yul\":3497:3592   */\n      tag_79\n      jump\t// in\n    tag_94:\n        /* \"#utility.yul\":3490:3592   */\n      swap2\n      pop\n        /* \"#utility.yul\":3609:3612   */\n      dup2\n        /* \"#utility.yul\":3602:3612   */\n      swap1\n      pop\n        /* \"#utility.yul\":3343:3618   */\n      swap3\n      swap2\n      pop\n      pop\n      jump\t// out\n        /* \"#utility.yul\":3624:4181   */\n    tag_19:\n        /* \"#utility.yul\":3812:3815   */\n      0x00\n        /* \"#utility.yul\":3827:3902   */\n      tag_96\n        /* \"#utility.yul\":3898:3901   */\n      dup3\n        /* \"#utility.yul\":3889:3895   */\n      dup7\n        /* \"#utility.yul\":3827:3902   */\n      tag_87\n      jump\t// in\n    tag_96:\n        /* \"#utility.yul\":3927:3929   */\n      0x20\n        /* \"#utility.yul\":3922:3925   */\n      dup3\n        /* \"#utility.yul\":3918:3930   */\n      add\n        /* \"#utility.yul\":3911:3930   */\n      swap2\n      pop\n        /* \"#utility.yul\":3947:4042   */\n      tag_97\n        /* \"#utility.yul\":4038:4041   */\n      dup3\n        /* \"#utility.yul\":4029:4035   */\n      dup6\n        /* \"#utility.yul\":3947:4042   */\n      tag_79\n      jump\t// in\n    tag_97:\n        /* \"#utility.yul\":3940:4042   */\n      swap2\n      pop\n        /* \"#utility.yul\":4052:4127   */\n      tag_98\n        /* \"#utility.yul\":4123:4126   */\n      dup3\n        /* \"#utility.yul\":4114:4120   */\n      dup5\n        /* \"#utility.yul\":4052:4127   */\n      tag_65\n      jump\t// in\n    tag_98:\n        /* \"#utility.yul\":4152:4154   */\n      0x14\n        /* \"#utility.yul\":4147:4150   */\n      dup3\n        /* \"#utility.yul\":4143:4155   */\n      add\n        /* \"#utility.yul\":4136:4155   */\n      swap2\n      pop\n        /* \"#utility.yul\":4172:4175   */\n      dup2\n        /* \"#utility.yul\":4165:4175   */\n      swap1\n      pop\n        /* \"#utility.yul\":3624:4181   */\n      swap5\n      swap4\n      pop\n      pop\n      pop\n      pop\n      jump\t// out\n        /* \"#utility.yul\":4187:4397   */\n    tag_16:\n        /* \"#utility.yul\":4274:4278   */\n      0x00\n        /* \"#utility.yul\":4312:4314   */\n      0x20\n        /* \"#utility.yul\":4301:4310   */\n      dup3\n        /* \"#utility.yul\":4297:4315   */\n      add\n        /* \"#utility.yul\":4289:4315   */\n      swap1\n      pop\n        /* \"#utility.yul\":4325:4390   */\n      tag_100\n        /* \"#utility.yul\":4387:4388   */\n      0x00\n        /* \"#utility.yul\":4376:4385   */\n      dup4\n        /* \"#utility.yul\":4372:4389   */\n      add\n        /* \"#utility.yul\":4363:4369   */\n      dup5\n        /* \"#utility.yul\":4325:4390   */\n      tag_71\n      jump\t// in\n    tag_100:\n        /* \"#utility.yul\":4187:4397   */\n      swap3\n      swap2\n      pop\n      pop\n      jump\t// out\n        /* \"#utility.yul\":4403:4625   */\n    tag_10:\n        /* \"#utility.yul\":4496:4500   */\n      0x00\n        /* \"#utility.yul\":4534:4536   */\n      0x20\n        /* \"#utility.yul\":4523:4532   */\n      dup3\n        /* \"#utility.yul\":4519:4537   */\n      add\n        /* \"#utility.yul\":4511:4537   */\n      swap1\n      pop\n        /* \"#utility.yul\":4547:4618   */\n      tag_102\n        /* \"#utility.yul\":4615:4616   */\n      0x00\n        /* \"#utility.yul\":4604:4613   */\n      dup4\n        /* \"#utility.yul\":4600:4617   */\n      add\n        /* \"#utility.yul\":4591:4597   */\n      dup5\n        /* \"#utility.yul\":4547:4618   */\n      tag_75\n      jump\t// in\n    tag_102:\n        /* \"#utility.yul\":4403:4625   */\n      swap3\n      swap2\n      pop\n      pop\n      jump\t// out\n        /* \"#utility.yul\":4631:4760   */\n    tag_29:\n        /* \"#utility.yul\":4665:4671   */\n      0x00\n        /* \"#utility.yul\":4692:4712   */\n      tag_104\n      tag_105\n      jump\t// in\n    tag_104:\n        /* \"#utility.yul\":4682:4712   */\n      swap1\n      pop\n        /* \"#utility.yul\":4721:4754   */\n      tag_106\n        /* \"#utility.yul\":4749:4753   */\n      dup3\n        /* \"#utility.yul\":4741:4747   */\n      dup3\n        /* \"#utility.yul\":4721:4754   */\n      tag_107\n      jump\t// in\n    tag_106:\n        /* \"#utility.yul\":4631:4760   */\n      swap2\n      swap1\n      pop\n      jump\t// out\n        /* \"#utility.yul\":4766:4841   */\n    tag_105:\n        /* \"#utility.yul\":4799:4805   */\n      0x00\n        /* \"#utility.yul\":4832:4834   */\n      0x40\n        /* \"#utility.yul\":4826:4835   */\n      mload\n        /* \"#utility.yul\":4816:4835   */\n      swap1\n      pop\n        /* \"#utility.yul\":4766:4841   */\n      swap1\n      jump\t// out\n        /* \"#utility.yul\":4847:5155   */\n    tag_28:\n        /* \"#utility.yul\":4909:4913   */\n      0x00\n        /* \"#utility.yul\":4999:5017   */\n      0xffffffffffffffff\n        /* \"#utility.yul\":4991:4997   */\n      dup3\n        /* \"#utility.yul\":4988:5018   */\n      gt\n        /* \"#utility.yul\":4985:5041   */\n      iszero\n      tag_110\n      jumpi\n        /* \"#utility.yul\":5021:5039   */\n      tag_111\n      tag_112\n      jump\t// in\n    tag_111:\n        /* \"#utility.yul\":4985:5041   */\n    tag_110:\n        /* \"#utility.yul\":5059:5088   */\n      tag_113\n        /* \"#utility.yul\":5081:5087   */\n      dup3\n        /* \"#utility.yul\":5059:5088   */\n      tag_114\n      jump\t// in\n    tag_113:\n        /* \"#utility.yul\":5051:5088   */\n      swap1\n      pop\n        /* \"#utility.yul\":5143:5147   */\n      0x20\n        /* \"#utility.yul\":5137:5141   */\n      dup2\n        /* \"#utility.yul\":5133:5148   */\n      add\n        /* \"#utility.yul\":5125:5148   */\n      swap1\n      pop\n        /* \"#utility.yul\":4847:5155   */\n      swap2\n      swap1\n      pop\n      jump\t// out\n        /* \"#utility.yul\":5161:5260   */\n    tag_82:\n        /* \"#utility.yul\":5213:5219   */\n      0x00\n        /* \"#utility.yul\":5247:5252   */\n      dup2\n        /* \"#utility.yul\":5241:5253   */\n      mload\n        /* \"#utility.yul\":5231:5253   */\n      swap1\n      pop\n        /* \"#utility.yul\":5161:5260   */\n      swap2\n      swap1\n      pop\n      jump\t// out\n        /* \"#utility.yul\":5266:5414   */\n    tag_84:\n        /* \"#utility.yul\":5368:5379   */\n      0x00\n        /* \"#utility.yul\":5405:5408   */\n      dup2\n        /* \"#utility.yul\":5390:5408   */\n      swap1\n      pop\n        /* \"#utility.yul\":5266:5414   */\n      swap3\n      swap2\n      pop\n      pop\n      jump\t// out\n        /* \"#utility.yul\":5420:5516   */\n    tag_69:\n        /* \"#utility.yul\":5457:5464   */\n      0x00\n        /* \"#utility.yul\":5486:5510   */\n      tag_118\n        /* \"#utility.yul\":5504:5509   */\n      dup3\n        /* \"#utility.yul\":5486:5510   */\n      tag_119\n      jump\t// in\n    tag_118:\n        /* \"#utility.yul\":5475:5510   */\n      swap1\n      pop\n        /* \"#utility.yul\":5420:5516   */\n      swap2\n      swap1\n      pop\n      jump\t// out\n        /* \"#utility.yul\":5522:5612   */\n    tag_74:\n        /* \"#utility.yul\":5556:5563   */\n      0x00\n        /* \"#utility.yul\":5599:5604   */\n      dup2\n        /* \"#utility.yul\":5592:5605   */\n      iszero\n        /* \"#utility.yul\":5585:5606   */\n      iszero\n        /* \"#utility.yul\":5574:5606   */\n      swap1\n      pop\n        /* \"#utility.yul\":5522:5612   */\n      swap2\n      swap1\n      pop\n      jump\t// out\n        /* \"#utility.yul\":5618:5695   */\n    tag_78:\n        /* \"#utility.yul\":5655:5662   */\n      0x00\n        /* \"#utility.yul\":5684:5689   */\n      dup2\n        /* \"#utility.yul\":5673:5689   */\n      swap1\n      pop\n        /* \"#utility.yul\":5618:5695   */\n      swap2\n      swap1\n      pop\n      jump\t// out\n        /* \"#utility.yul\":5701:5827   */\n    tag_119:\n        /* \"#utility.yul\":5738:5745   */\n      0x00\n        /* \"#utility.yul\":5778:5820   */\n      0xffffffffffffffffffffffffffffffffffffffff\n        /* \"#utility.yul\":5771:5776   */\n      dup3\n        /* \"#utility.yul\":5767:5821   */\n      and\n        /* \"#utility.yul\":5756:5821   */\n      swap1\n      pop\n        /* \"#utility.yul\":5701:5827   */\n      swap2\n      swap1\n      pop\n      jump\t// out\n        /* \"#utility.yul\":5833:5910   */\n    tag_91:\n        /* \"#utility.yul\":5870:5877   */\n      0x00\n        /* \"#utility.yul\":5899:5904   */\n      dup2\n        /* \"#utility.yul\":5888:5904   */\n      swap1\n      pop\n        /* \"#utility.yul\":5833:5910   */\n      swap2\n      swap1\n      pop\n      jump\t// out\n        /* \"#utility.yul\":5916:6070   */\n    tag_34:\n        /* \"#utility.yul\":6000:6006   */\n      dup3\n        /* \"#utility.yul\":5995:5998   */\n      dup2\n        /* \"#utility.yul\":5990:5993   */\n      dup4\n        /* \"#utility.yul\":5977:6007   */\n      calldatacopy\n        /* \"#utility.yul\":6062:6063   */\n      0x00\n        /* \"#utility.yul\":6053:6059   */\n      dup4\n        /* \"#utility.yul\":6048:6051   */\n      dup4\n        /* \"#utility.yul\":6044:6060   */\n      add\n        /* \"#utility.yul\":6037:6064   */\n      mstore\n        /* \"#utility.yul\":5916:6070   */\n      pop\n      pop\n      pop\n      jump\t// out\n        /* \"#utility.yul\":6076:6383   */\n    tag_86:\n        /* \"#utility.yul\":6144:6145   */\n      0x00\n        /* \"#utility.yul\":6154:6267   */\n    tag_126:\n        /* \"#utility.yul\":6168:6174   */\n      dup4\n        /* \"#utility.yul\":6165:6166   */\n      dup2\n        /* \"#utility.yul\":6162:6175   */\n      lt\n        /* \"#utility.yul\":6154:6267   */\n      iszero\n      tag_128\n      jumpi\n        /* \"#utility.yul\":6253:6254   */\n      dup1\n        /* \"#utility.yul\":6248:6251   */\n      dup3\n        /* \"#utility.yul\":6244:6255   */\n      add\n        /* \"#utility.yul\":6238:6256   */\n      mload\n        /* \"#utility.yul\":6234:6235   */\n      dup2\n        /* \"#utility.yul\":6229:6232   */\n      dup5\n        /* \"#utility.yul\":6225:6236   */\n      add\n        /* \"#utility.yul\":6218:6257   */\n      mstore\n        /* \"#utility.yul\":6190:6192   */\n      0x20\n        /* \"#utility.yul\":6187:6188   */\n      dup2\n        /* \"#utility.yul\":6183:6193   */\n      add\n        /* \"#utility.yul\":6178:6193   */\n      swap1\n      pop\n        /* \"#utility.yul\":6154:6267   */\n      jump(tag_126)\n    tag_128:\n        /* \"#utility.yul\":6285:6291   */\n      dup4\n        /* \"#utility.yul\":6282:6283   */\n      dup2\n        /* \"#utility.yul\":6279:6292   */\n      gt\n        /* \"#utility.yul\":6276:6377   */\n      iszero\n      tag_129\n      jumpi\n        /* \"#utility.yul\":6365:6366   */\n      0x00\n        /* \"#utility.yul\":6356:6362   */\n      dup5\n        /* \"#utility.yul\":6351:6354   */\n      dup5\n        /* \"#utility.yul\":6347:6363   */\n      add\n        /* \"#utility.yul\":6340:6367   */\n      mstore\n        /* \"#utility.yul\":6276:6377   */\n    tag_129:\n        /* \"#utility.yul\":6125:6383   */\n      pop\n        /* \"#utility.yul\":6076:6383   */\n      pop\n      pop\n      pop\n      jump\t// out\n        /* \"#utility.yul\":6389:6670   */\n    tag_107:\n        /* \"#utility.yul\":6472:6499   */\n      tag_131\n        /* \"#utility.yul\":6494:6498   */\n      dup3\n        /* \"#utility.yul\":6472:6499   */\n      tag_114\n      jump\t// in\n    tag_131:\n        /* \"#utility.yul\":6464:6470   */\n      dup2\n        /* \"#utility.yul\":6460:6500   */\n      add\n        /* \"#utility.yul\":6602:6608   */\n      dup2\n        /* \"#utility.yul\":6590:6600   */\n      dup2\n        /* \"#utility.yul\":6587:6609   */\n      lt\n        /* \"#utility.yul\":6566:6584   */\n      0xffffffffffffffff\n        /* \"#utility.yul\":6554:6564   */\n      dup3\n        /* \"#utility.yul\":6551:6585   */\n      gt\n        /* \"#utility.yul\":6548:6610   */\n      or\n        /* \"#utility.yul\":6545:6633   */\n      iszero\n      tag_132\n      jumpi\n        /* \"#utility.yul\":6613:6631   */\n      tag_133\n      tag_112\n      jump\t// in\n    tag_133:\n        /* \"#utility.yul\":6545:6633   */\n    tag_132:\n        /* \"#utility.yul\":6653:6663   */\n      dup1\n        /* \"#utility.yul\":6649:6651   */\n      0x40\n        /* \"#utility.yul\":6642:6664   */\n      mstore\n        /* \"#utility.yul\":6432:6670   */\n      pop\n        /* \"#utility.yul\":6389:6670   */\n      pop\n      pop\n      jump\t// out\n        /* \"#utility.yul\":6676:6776   */\n    tag_70:\n        /* \"#utility.yul\":6715:6722   */\n      0x00\n        /* \"#utility.yul\":6744:6770   */\n      tag_135\n        /* \"#utility.yul\":6764:6769   */\n      dup3\n        /* \"#utility.yul\":6744:6770   */\n      tag_136\n      jump\t// in\n    tag_135:\n        /* \"#utility.yul\":6733:6770   */\n      swap1\n      pop\n        /* \"#utility.yul\":6676:6776   */\n      swap2\n      swap1\n      pop\n      jump\t// out\n        /* \"#utility.yul\":6782:6876   */\n    tag_136:\n        /* \"#utility.yul\":6821:6828   */\n      0x00\n        /* \"#utility.yul\":6850:6870   */\n      tag_138\n        /* \"#utility.yul\":6864:6869   */\n      dup3\n        /* \"#utility.yul\":6850:6870   */\n      tag_139\n      jump\t// in\n    tag_138:\n        /* \"#utility.yul\":6839:6870   */\n      swap1\n      pop\n        /* \"#utility.yul\":6782:6876   */\n      swap2\n      swap1\n      pop\n      jump\t// out\n        /* \"#utility.yul\":6882:6961   */\n    tag_92:\n        /* \"#utility.yul\":6921:6928   */\n      0x00\n        /* \"#utility.yul\":6950:6955   */\n      dup2\n        /* \"#utility.yul\":6939:6955   */\n      swap1\n      pop\n        /* \"#utility.yul\":6882:6961   */\n      swap2\n      swap1\n      pop\n      jump\t// out\n        /* \"#utility.yul\":6967:7147   */\n    tag_112:\n        /* \"#utility.yul\":7015:7092   */\n      0x4e487b7100000000000000000000000000000000000000000000000000000000\n        /* \"#utility.yul\":7012:7013   */\n      0x00\n        /* \"#utility.yul\":7005:7093   */\n      mstore\n        /* \"#utility.yul\":7112:7116   */\n      0x41\n        /* \"#utility.yul\":7109:7110   */\n      0x04\n        /* \"#utility.yul\":7102:7117   */\n      mstore\n        /* \"#utility.yul\":7136:7140   */\n      0x24\n        /* \"#utility.yul\":7133:7134   */\n      0x00\n        /* \"#utility.yul\":7126:7141   */\n      revert\n        /* \"#utility.yul\":7153:7270   */\n    tag_43:\n        /* \"#utility.yul\":7262:7263   */\n      0x00\n        /* \"#utility.yul\":7259:7260   */\n      dup1\n        /* \"#utility.yul\":7252:7264   */\n      revert\n        /* \"#utility.yul\":7276:7393   */\n    tag_32:\n        /* \"#utility.yul\":7385:7386   */\n      0x00\n        /* \"#utility.yul\":7382:7383   */\n      dup1\n        /* \"#utility.yul\":7375:7387   */\n      revert\n        /* \"#utility.yul\":7399:7516   */\n    tag_55:\n        /* \"#utility.yul\":7508:7509   */\n      0x00\n        /* \"#utility.yul\":7505:7506   */\n      dup1\n        /* \"#utility.yul\":7498:7510   */\n      revert\n        /* \"#utility.yul\":7522:7639   */\n    tag_52:\n        /* \"#utility.yul\":7631:7632   */\n      0x00\n        /* \"#utility.yul\":7628:7629   */\n      dup1\n        /* \"#utility.yul\":7621:7633   */\n      revert\n        /* \"#utility.yul\":7645:7747   */\n    tag_114:\n        /* \"#utility.yul\":7686:7692   */\n      0x00\n        /* \"#utility.yul\":7737:7739   */\n      0x1f\n        /* \"#utility.yul\":7733:7740   */\n      not\n        /* \"#utility.yul\":7728:7730   */\n      0x1f\n        /* \"#utility.yul\":7721:7726   */\n      dup4\n        /* \"#utility.yul\":7717:7731   */\n      add\n        /* \"#utility.yul\":7713:7741   */\n      and\n        /* \"#utility.yul\":7703:7741   */\n      swap1\n      pop\n        /* \"#utility.yul\":7645:7747   */\n      swap2\n      swap1\n      pop\n      jump\t// out\n        /* \"#utility.yul\":7753:7847   */\n    tag_139:\n        /* \"#utility.yul\":7786:7794   */\n      0x00\n        /* \"#utility.yul\":7834:7839   */\n      dup2\n        /* \"#utility.yul\":7830:7832   */\n      0x60\n        /* \"#utility.yul\":7826:7840   */\n      shl\n        /* \"#utility.yul\":7805:7840   */\n      swap1\n      pop\n        /* \"#utility.yul\":7753:7847   */\n      swap2\n      swap1\n      pop\n      jump\t// out\n        /* \"#utility.yul\":7853:7975   */\n    tag_38:\n        /* \"#utility.yul\":7926:7950   */\n      tag_149\n        /* \"#utility.yul\":7944:7949   */\n      dup2\n        /* \"#utility.yul\":7926:7950   */\n      tag_69\n      jump\t// in\n    tag_149:\n        /* \"#utility.yul\":7919:7924   */\n      dup2\n        /* \"#utility.yul\":7916:7951   */\n      eq\n        /* \"#utility.yul\":7906:7969   */\n      tag_150\n      jumpi\n        /* \"#utility.yul\":7965:7966   */\n      0x00\n        /* \"#utility.yul\":7962:7963   */\n      dup1\n        /* \"#utility.yul\":7955:7967   */\n      revert\n        /* \"#utility.yul\":7906:7969   */\n    tag_150:\n        /* \"#utility.yul\":7853:7975   */\n      pop\n      jump\t// out\n        /* \"#utility.yul\":7981:8103   */\n    tag_48:\n        /* \"#utility.yul\":8054:8078   */\n      tag_152\n        /* \"#utility.yul\":8072:8077   */\n      dup2\n        /* \"#utility.yul\":8054:8078   */\n      tag_91\n      jump\t// in\n    tag_152:\n        /* \"#utility.yul\":8047:8052   */\n      dup2\n        /* \"#utility.yul\":8044:8079   */\n      eq\n        /* \"#utility.yul\":8034:8097   */\n      tag_153\n      jumpi\n        /* \"#utility.yul\":8093:8094   */\n      0x00\n        /* \"#utility.yul\":8090:8091   */\n      dup1\n        /* \"#utility.yul\":8083:8095   */\n      revert\n        /* \"#utility.yul\":8034:8097   */\n    tag_153:\n        /* \"#utility.yul\":7981:8103   */\n      pop\n      jump\t// out\n\n    auxdata: 0xa2646970667358221220f7eb975ff70c11002798d00b0a97843c30bc75ed75cb9a180261bb750d7f9aaf64736f6c63430008070033\n}\n",
				"bytecode": {
					"linkReferences": {},
					"object": "608060405260405160200161001390610061565b6040516020818303038152906040528051906020012060005534801561003857600080fd5b506100aa565b600061004b600483610076565b915061005682610081565b600482019050919050565b600061006c8261003e565b9150819050919050565b600081905092915050565b7f3078414100000000000000000000000000000000000000000000000000000000600082015250565b61057d806100b96000396000f3fe608060405234801561001057600080fd5b50600436106100365760003560e01c80634f6b068d1461003b578063d6abfc7b1461006b575b600080fd5b610055600480360381019061005091906101e7565b61009b565b604051610062919061033e565b60405180910390f35b6100856004803603810190610080919061019e565b6100d1565b6040516100929190610323565b60405180910390f35b60008383836040516020016100b2939291906102ea565b6040516020818303038152906040528051906020012090509392505050565b60008054826040516020016100e691906102d3565b60405160208183030381529060405280519060200120149050919050565b60006101176101128461037e565b610359565b905082815260208101848484011115610133576101326104ec565b5b61013e848285610417565b509392505050565b60008135905061015581610519565b92915050565b600082601f8301126101705761016f6104e7565b5b8135610180848260208601610104565b91505092915050565b60008135905061019881610530565b92915050565b6000602082840312156101b4576101b36104f6565b5b600082013567ffffffffffffffff8111156101d2576101d16104f1565b5b6101de8482850161015b565b91505092915050565b600080600060608486031215610200576101ff6104f6565b5b600061020e86828701610189565b935050602084013567ffffffffffffffff81111561022f5761022e6104f1565b5b61023b8682870161015b565b925050604061024c86828701610146565b9150509250925092565b610267610262826103c5565b61048a565b82525050565b610276816103d7565b82525050565b610285816103e3565b82525050565b6000610296826103af565b6102a081856103ba565b93506102b0818560208601610426565b80840191505092915050565b6102cd6102c88261040d565b6104ae565b82525050565b60006102df828461028b565b915081905092915050565b60006102f682866102bc565b602082019150610306828561028b565b91506103128284610256565b601482019150819050949350505050565b6000602082019050610338600083018461026d565b92915050565b6000602082019050610353600083018461027c565b92915050565b6000610363610374565b905061036f8282610459565b919050565b6000604051905090565b600067ffffffffffffffff821115610399576103986104b8565b5b6103a2826104fb565b9050602081019050919050565b600081519050919050565b600081905092915050565b60006103d0826103ed565b9050919050565b60008115159050919050565b6000819050919050565b600073ffffffffffffffffffffffffffffffffffffffff82169050919050565b6000819050919050565b82818337600083830152505050565b60005b83811015610444578082015181840152602081019050610429565b83811115610453576000848401525b50505050565b610462826104fb565b810181811067ffffffffffffffff82111715610481576104806104b8565b5b80604052505050565b60006104958261049c565b9050919050565b60006104a78261050c565b9050919050565b6000819050919050565b7f4e487b7100000000000000000000000000000000000000000000000000000000600052604160045260246000fd5b600080fd5b600080fd5b600080fd5b600080fd5b6000601f19601f8301169050919050565b60008160601b9050919050565b610522816103c5565b811461052d57600080fd5b50565b6105398161040d565b811461054457600080fd5b5056fea2646970667358221220f7eb975ff70c11002798d00b0a97843c30bc75ed75cb9a180261bb750d7f9aaf64736f6c63430008070033",
					"opcodes": "PUSH1 0x80 PUSH1 0x40 MSTORE PUSH1 0x40 MLOAD PUSH1 0x20 ADD PUSH2 0x13 SWAP1 PUSH2 0x61 JUMP JUMPDEST PUSH1 0x40 MLOAD PUSH1 0x20 DUP2 DUP4 SUB SUB DUP2 MSTORE SWAP1 PUSH1 0x40 MSTORE DUP1 MLOAD SWAP1 PUSH1 0x20 ADD KECCAK256 PUSH1 0x0 SSTORE CALLVALUE DUP1 ISZERO PUSH2 0x38 JUMPI PUSH1 0x0 DUP1 REVERT JUMPDEST POP PUSH2 0xAA JUMP JUMPDEST PUSH1 0x0 PUSH2 0x4B PUSH1 0x4 DUP4 PUSH2 0x76 JUMP JUMPDEST SWAP2 POP PUSH2 0x56 DUP3 PUSH2 0x81 JUMP JUMPDEST PUSH1 0x4 DUP3 ADD SWAP1 POP SWAP2 SWAP1 POP JUMP JUMPDEST PUSH1 0x0 PUSH2 0x6C DUP3 PUSH2 0x3E JUMP JUMPDEST SWAP2 POP DUP2 SWAP1 POP SWAP2 SWAP1 POP JUMP JUMPDEST PUSH1 0x0 DUP2 SWAP1 POP SWAP3 SWAP2 POP POP JUMP JUMPDEST PUSH32 0x3078414100000000000000000000000000000000000000000000000000000000 PUSH1 0x0 DUP3 ADD MSTORE POP JUMP JUMPDEST PUSH2 0x57D DUP1 PUSH2 0xB9 PUSH1 0x0 CODECOPY PUSH1 0x0 RETURN INVALID PUSH1 0x80 PUSH1 0x40 MSTORE CALLVALUE DUP1 ISZERO PUSH2 0x10 JUMPI PUSH1 0x0 DUP1 REVERT JUMPDEST POP PUSH1 0x4 CALLDATASIZE LT PUSH2 0x36 JUMPI PUSH1 0x0 CALLDATALOAD PUSH1 0xE0 SHR DUP1 PUSH4 0x4F6B068D EQ PUSH2 0x3B JUMPI DUP1 PUSH4 0xD6ABFC7B EQ PUSH2 0x6B JUMPI JUMPDEST PUSH1 0x0 DUP1 REVERT JUMPDEST PUSH2 0x55 PUSH1 0x4 DUP1 CALLDATASIZE SUB DUP2 ADD SWAP1 PUSH2 0x50 SWAP2 SWAP1 PUSH2 0x1E7 JUMP JUMPDEST PUSH2 0x9B JUMP JUMPDEST PUSH1 0x40 MLOAD PUSH2 0x62 SWAP2 SWAP1 PUSH2 0x33E JUMP JUMPDEST PUSH1 0x40 MLOAD DUP1 SWAP2 SUB SWAP1 RETURN JUMPDEST PUSH2 0x85 PUSH1 0x4 DUP1 CALLDATASIZE SUB DUP2 ADD SWAP1 PUSH2 0x80 SWAP2 SWAP1 PUSH2 0x19E JUMP JUMPDEST PUSH2 0xD1 JUMP JUMPDEST PUSH1 0x40 MLOAD PUSH2 0x92 SWAP2 SWAP1 PUSH2 0x323 JUMP JUMPDEST PUSH1 0x40 MLOAD DUP1 SWAP2 SUB SWAP1 RETURN JUMPDEST PUSH1 0x0 DUP4 DUP4 DUP4 PUSH1 0x40 MLOAD PUSH1 0x20 ADD PUSH2 0xB2 SWAP4 SWAP3 SWAP2 SWAP1 PUSH2 0x2EA JUMP JUMPDEST PUSH1 0x40 MLOAD PUSH1 0x20 DUP2 DUP4 SUB SUB DUP2 MSTORE SWAP1 PUSH1 0x40 MSTORE DUP1 MLOAD SWAP1 PUSH1 0x20 ADD KECCAK256 SWAP1 POP SWAP4 SWAP3 POP POP POP JUMP JUMPDEST PUSH1 0x0 DUP1 SLOAD DUP3 PUSH1 0x40 MLOAD PUSH1 0x20 ADD PUSH2 0xE6 SWAP2 SWAP1 PUSH2 0x2D3 JUMP JUMPDEST PUSH1 0x40 MLOAD PUSH1 0x20 DUP2 DUP4 SUB SUB DUP2 MSTORE SWAP1 PUSH1 0x40 MSTORE DUP1 MLOAD SWAP1 PUSH1 0x20 ADD KECCAK256 EQ SWAP1 POP SWAP2 SWAP1 POP JUMP JUMPDEST PUSH1 0x0 PUSH2 0x117 PUSH2 0x112 DUP5 PUSH2 0x37E JUMP JUMPDEST PUSH2 0x359 JUMP JUMPDEST SWAP1 POP DUP3 DUP2 MSTORE PUSH1 0x20 DUP2 ADD DUP5 DUP5 DUP5 ADD GT ISZERO PUSH2 0x133 JUMPI PUSH2 0x132 PUSH2 0x4EC JUMP JUMPDEST JUMPDEST PUSH2 0x13E DUP5 DUP3 DUP6 PUSH2 0x417 JUMP JUMPDEST POP SWAP4 SWAP3 POP POP POP JUMP JUMPDEST PUSH1 0x0 DUP2 CALLDATALOAD SWAP1 POP PUSH2 0x155 DUP2 PUSH2 0x519 JUMP JUMPDEST SWAP3 SWAP2 POP POP JUMP JUMPDEST PUSH1 0x0 DUP3 PUSH1 0x1F DUP4 ADD SLT PUSH2 0x170 JUMPI PUSH2 0x16F PUSH2 0x4E7 JUMP JUMPDEST JUMPDEST DUP2 CALLDATALOAD PUSH2 0x180 DUP5 DUP3 PUSH1 0x20 DUP7 ADD PUSH2 0x104 JUMP JUMPDEST SWAP2 POP POP SWAP3 SWAP2 POP POP JUMP JUMPDEST PUSH1 0x0 DUP2 CALLDATALOAD SWAP1 POP PUSH2 0x198 DUP2 PUSH2 0x530 JUMP JUMPDEST SWAP3 SWAP2 POP POP JUMP JUMPDEST PUSH1 0x0 PUSH1 0x20 DUP3 DUP5 SUB SLT ISZERO PUSH2 0x1B4 JUMPI PUSH2 0x1B3 PUSH2 0x4F6 JUMP JUMPDEST JUMPDEST PUSH1 0x0 DUP3 ADD CALLDATALOAD PUSH8 0xFFFFFFFFFFFFFFFF DUP2 GT ISZERO PUSH2 0x1D2 JUMPI PUSH2 0x1D1 PUSH2 0x4F1 JUMP JUMPDEST JUMPDEST PUSH2 0x1DE DUP5 DUP3 DUP6 ADD PUSH2 0x15B JUMP JUMPDEST SWAP2 POP POP SWAP3 SWAP2 POP POP JUMP JUMPDEST PUSH1 0x0 DUP1 PUSH1 0x0 PUSH1 0x60 DUP5 DUP7 SUB SLT ISZERO PUSH2 0x200 JUMPI PUSH2 0x1FF PUSH2 0x4F6 JUMP JUMPDEST JUMPDEST PUSH1 0x0 PUSH2 0x20E DUP7 DUP3 DUP8 ADD PUSH2 0x189 JUMP JUMPDEST SWAP4 POP POP PUSH1 0x20 DUP5 ADD CALLDATALOAD PUSH8 0xFFFFFFFFFFFFFFFF DUP2 GT ISZERO PUSH2 0x22F JUMPI PUSH2 0x22E PUSH2 0x4F1 JUMP JUMPDEST JUMPDEST PUSH2 0x23B DUP7 DUP3 DUP8 ADD PUSH2 0x15B JUMP JUMPDEST SWAP3 POP POP PUSH1 0x40 PUSH2 0x24C DUP7 DUP3 DUP8 ADD PUSH2 0x146 JUMP JUMPDEST SWAP2 POP POP SWAP3 POP SWAP3 POP SWAP3 JUMP JUMPDEST PUSH2 0x267 PUSH2 0x262 DUP3 PUSH2 0x3C5 JUMP JUMPDEST PUSH2 0x48A JUMP JUMPDEST DUP3 MSTORE POP POP JUMP JUMPDEST PUSH2 0x276 DUP2 PUSH2 0x3D7 JUMP JUMPDEST DUP3 MSTORE POP POP JUMP JUMPDEST PUSH2 0x285 DUP2 PUSH2 0x3E3 JUMP JUMPDEST DUP3 MSTORE POP POP JUMP JUMPDEST PUSH1 0x0 PUSH2 0x296 DUP3 PUSH2 0x3AF JUMP JUMPDEST PUSH2 0x2A0 DUP2 DUP6 PUSH2 0x3BA JUMP JUMPDEST SWAP4 POP PUSH2 0x2B0 DUP2 DUP6 PUSH1 0x20 DUP7 ADD PUSH2 0x426 JUMP JUMPDEST DUP1 DUP5 ADD SWAP2 POP POP SWAP3 SWAP2 POP POP JUMP JUMPDEST PUSH2 0x2CD PUSH2 0x2C8 DUP3 PUSH2 0x40D JUMP JUMPDEST PUSH2 0x4AE JUMP JUMPDEST DUP3 MSTORE POP POP JUMP JUMPDEST PUSH1 0x0 PUSH2 0x2DF DUP3 DUP5 PUSH2 0x28B JUMP JUMPDEST SWAP2 POP DUP2 SWAP1 POP SWAP3 SWAP2 POP POP JUMP JUMPDEST PUSH1 0x0 PUSH2 0x2F6 DUP3 DUP7 PUSH2 0x2BC JUMP JUMPDEST PUSH1 0x20 DUP3 ADD SWAP2 POP PUSH2 0x306 DUP3 DUP6 PUSH2 0x28B JUMP JUMPDEST SWAP2 POP PUSH2 0x312 DUP3 DUP5 PUSH2 0x256 JUMP JUMPDEST PUSH1 0x14 DUP3 ADD SWAP2 POP DUP2 SWAP1 POP SWAP5 SWAP4 POP POP POP POP JUMP JUMPDEST PUSH1 0x0 PUSH1 0x20 DUP3 ADD SWAP1 POP PUSH2 0x338 PUSH1 0x0 DUP4 ADD DUP5 PUSH2 0x26D JUMP JUMPDEST SWAP3 SWAP2 POP POP JUMP JUMPDEST PUSH1 0x0 PUSH1 0x20 DUP3 ADD SWAP1 POP PUSH2 0x353 PUSH1 0x0 DUP4 ADD DUP5 PUSH2 0x27C JUMP JUMPDEST SWAP3 SWAP2 POP POP JUMP JUMPDEST PUSH1 0x0 PUSH2 0x363 PUSH2 0x374 JUMP JUMPDEST SWAP1 POP PUSH2 0x36F DUP3 DUP3 PUSH2 0x459 JUMP JUMPDEST SWAP2 SWAP1 POP JUMP JUMPDEST PUSH1 0x0 PUSH1 0x40 MLOAD SWAP1 POP SWAP1 JUMP JUMPDEST PUSH1 0x0 PUSH8 0xFFFFFFFFFFFFFFFF DUP3 GT ISZERO PUSH2 0x399 JUMPI PUSH2 0x398 PUSH2 0x4B8 JUMP JUMPDEST JUMPDEST PUSH2 0x3A2 DUP3 PUSH2 0x4FB JUMP JUMPDEST SWAP1 POP PUSH1 0x20 DUP2 ADD SWAP1 POP SWAP2 SWAP1 POP JUMP JUMPDEST PUSH1 0x0 DUP2 MLOAD SWAP1 POP SWAP2 SWAP1 POP JUMP JUMPDEST PUSH1 0x0 DUP2 SWAP1 POP SWAP3 SWAP2 POP POP JUMP JUMPDEST PUSH1 0x0 PUSH2 0x3D0 DUP3 PUSH2 0x3ED JUMP JUMPDEST SWAP1 POP SWAP2 SWAP1 POP JUMP JUMPDEST PUSH1 0x0 DUP2 ISZERO ISZERO SWAP1 POP SWAP2 SWAP1 POP JUMP JUMPDEST PUSH1 0x0 DUP2 SWAP1 POP SWAP2 SWAP1 POP JUMP JUMPDEST PUSH1 0x0 PUSH20 0xFFFFFFFFFFFFFFFFFFFFFFFFFFFFFFFFFFFFFFFF DUP3 AND SWAP1 POP SWAP2 SWAP1 POP JUMP JUMPDEST PUSH1 0x0 DUP2 SWAP1 POP SWAP2 SWAP1 POP JUMP JUMPDEST DUP3 DUP2 DUP4 CALLDATACOPY PUSH1 0x0 DUP4 DUP4 ADD MSTORE POP POP POP JUMP JUMPDEST PUSH1 0x0 JUMPDEST DUP4 DUP2 LT ISZERO PUSH2 0x444 JUMPI DUP1 DUP3 ADD MLOAD DUP2 DUP5 ADD MSTORE PUSH1 0x20 DUP2 ADD SWAP1 POP PUSH2 0x429 JUMP JUMPDEST DUP4 DUP2 GT ISZERO PUSH2 0x453 JUMPI PUSH1 0x0 DUP5 DUP5 ADD MSTORE JUMPDEST POP POP POP POP JUMP JUMPDEST PUSH2 0x462 DUP3 PUSH2 0x4FB JUMP JUMPDEST DUP2 ADD DUP2 DUP2 LT PUSH8 0xFFFFFFFFFFFFFFFF DUP3 GT OR ISZERO PUSH2 0x481 JUMPI PUSH2 0x480 PUSH2 0x4B8 JUMP JUMPDEST JUMPDEST DUP1 PUSH1 0x40 MSTORE POP POP POP JUMP JUMPDEST PUSH1 0x0 PUSH2 0x495 DUP3 PUSH2 0x49C JUMP JUMPDEST SWAP1 POP SWAP2 SWAP1 POP JUMP JUMPDEST PUSH1 0x0 PUSH2 0x4A7 DUP3 PUSH2 0x50C JUMP JUMPDEST SWAP1 POP SWAP2 SWAP1 POP JUMP JUMPDEST PUSH1 0x0 DUP2 SWAP1 POP SWAP2 SWAP1 POP JUMP JUMPDEST PUSH32 0x4E487B7100000000000000000000000000000000000000000000000000000000 PUSH1 0x0 MSTORE PUSH1 0x41 PUSH1 0x4 MSTORE PUSH1 0x24 PUSH1 0x0 REVERT JUMPDEST PUSH1 0x0 DUP1 REVERT JUMPDEST PUSH1 0x0 DUP1 REVERT JUMPDEST PUSH1 0x0 DUP1 REVERT JUMPDEST PUSH1 0x0 DUP1 REVERT JUMPDEST PUSH1 0x0 PUSH1 0x1F NOT PUSH1 0x1F DUP4 ADD AND SWAP1 POP SWAP2 SWAP1 POP JUMP JUMPDEST PUSH1 0x0 DUP2 PUSH1 0x60 SHL SWAP1 POP SWAP2 SWAP1 POP JUMP JUMPDEST PUSH2 0x522 DUP2 PUSH2 0x3C5 JUMP JUMPDEST DUP2 EQ PUSH2 0x52D JUMPI PUSH1 0x0 DUP1 REVERT JUMPDEST POP JUMP JUMPDEST PUSH2 0x539 DUP2 PUSH2 0x40D JUMP JUMPDEST DUP2 EQ PUSH2 0x544 JUMPI PUSH1 0x0 DUP1 REVERT JUMPDEST POP JUMP INVALID LOG2 PUSH5 0x6970667358 0x22 SLT KECCAK256 0xF7 0xEB SWAP8 0x5F 0xF7 0xC GT STOP 0x27 SWAP9 0xD0 SIGNEXTEND EXP SWAP8 DUP5 EXTCODECOPY ADDRESS 0xBC PUSH22 0xED75CB9A180261BB750D7F9AAF64736F6C6343000807 STOP CALLER "
				},
				"gasEstimates": {
					"creation": {
						"codeDepositCost": "281000",
						"executionCost": "22735",
						"totalCost": "303735"
					},
					"external": {
						"hash(uint256,string,address)": "infinite",
						"weak(string)": "infinite"
					}
				},
				"methodIdentifiers": {
					"hash(uint256,string,address)": "4f6b068d",
					"weak(string)": "d6abfc7b"
				}
			},
			"storageLayout": {
				"storage": [
					{
						"astId": 9,
						"contract": "hash.sol:test",
						"label": "_msg",
						"offset": 0,
						"slot": "0",
						"type": "t_bytes32"
					}
				],
				"types": {
					"t_bytes32": {
						"encoding": "inplace",
						"label": "bytes32",
						"numberOfBytes": "32"
					}
				}
			},
			"userdoc": {
				"kind": "user",
				"methods": {},
				"version": 1
			}
		}
	}
}