{
	"ABI编码.sol": {
		"test": {
			"abi": [
				{
					"inputs": [],
					"name": "encode",
					"outputs": [
						{
							"internalType": "bytes",
							"name": "result",
							"type": "bytes"
						}
					],
					"stateMutability": "view",
					"type": "function"
				}
			],
			"devdoc": {
				"kind": "dev",
				"methods": {},
				"version": 1
			},
			"evm": {
				"assembly": "    /* \"ABI\\xe7\\xbc\\x96\\xe7\\xa0\\x81.sol\":72:373  contract test{\r... */\n  mstore(0x40, 0x80)\n    /* \"ABI\\xe7\\xbc\\x96\\xe7\\xa0\\x81.sol\":101:103  10 */\n  0x0a\n    /* \"ABI\\xe7\\xbc\\x96\\xe7\\xa0\\x81.sol\":92:103  uint x = 10 */\n  0x00\n  sstore\n    /* \"ABI\\xe7\\xbc\\x96\\xe7\\xa0\\x81.sol\":125:167  0x7A58c0Be72BE218B41C608b7Fe7C5bB630736C71 */\n  0x7a58c0be72be218b41c608b7fe7c5bb630736c71\n    /* \"ABI\\xe7\\xbc\\x96\\xe7\\xa0\\x81.sol\":110:167  address addr = 0x7A58c0Be72BE218B41C608b7Fe7C5bB630736C71 */\n  0x01\n  exp(0x0100, 0x00)\n  dup2\n  sload\n  dup2\n  0xffffffffffffffffffffffffffffffffffffffff\n  mul\n  not\n  and\n  swap1\n  dup4\n  0xffffffffffffffffffffffffffffffffffffffff\n  and\n  mul\n  or\n  swap1\n  sstore\n  pop\n    /* \"ABI\\xe7\\xbc\\x96\\xe7\\xa0\\x81.sol\":174:194  string name = \"0xAA\" */\n  mload(0x40)\n  dup1\n  0x40\n  add\n  0x40\n  mstore\n  dup1\n  0x04\n  dup2\n  mstore\n  0x20\n  add\n  0x3078414100000000000000000000000000000000000000000000000000000000\n  dup2\n  mstore\n  pop\n  0x02\n  swap1\n  dup1\n  mload\n  swap1\n  0x20\n  add\n  swap1\n  tag_1\n  swap3\n  swap2\n  swap1\n  tag_2\n  jump\t// in\ntag_1:\n  pop\n    /* \"ABI\\xe7\\xbc\\x96\\xe7\\xa0\\x81.sol\":201:223  uint[2] array = [5, 6] */\n  mload(0x40)\n  dup1\n  0x40\n  add\n  0x40\n  mstore\n  dup1\n    /* \"ABI\\xe7\\xbc\\x96\\xe7\\xa0\\x81.sol\":218:219  5 */\n  0x05\n    /* \"ABI\\xe7\\xbc\\x96\\xe7\\xa0\\x81.sol\":201:223  uint[2] array = [5, 6] */\n  0xff\n  and\n  dup2\n  mstore\n  0x20\n  add\n    /* \"ABI\\xe7\\xbc\\x96\\xe7\\xa0\\x81.sol\":221:222  6 */\n  0x06\n    /* \"ABI\\xe7\\xbc\\x96\\xe7\\xa0\\x81.sol\":201:223  uint[2] array = [5, 6] */\n  0xff\n  and\n  dup2\n  mstore\n  pop\n  0x03\n  swap1\n  0x02\n  tag_3\n  swap3\n  swap2\n  swap1\n  tag_4\n  jump\t// in\ntag_3:\n  pop\n    /* \"ABI\\xe7\\xbc\\x96\\xe7\\xa0\\x81.sol\":72:373  contract test{\r... */\n  callvalue\n  dup1\n  iszero\n  tag_5\n  jumpi\n  0x00\n  dup1\n  revert\ntag_5:\n  pop\n  jump(tag_6)\ntag_2:\n  dup3\n  dup1\n  sload\n  tag_7\n  swap1\n  tag_8\n  jump\t// in\ntag_7:\n  swap1\n  0x00\n  mstore\n  keccak256(0x00, 0x20)\n  swap1\n  0x1f\n  add\n  0x20\n  swap1\n  div\n  dup2\n  add\n  swap3\n  dup3\n  tag_10\n  jumpi\n  0x00\n  dup6\n  sstore\n  jump(tag_9)\ntag_10:\n  dup3\n  0x1f\n  lt\n  tag_11\n  jumpi\n  dup1\n  mload\n  not(0xff)\n  and\n  dup4\n  dup1\n  add\n  or\n  dup6\n  sstore\n  jump(tag_9)\ntag_11:\n  dup3\n  dup1\n  add\n  0x01\n  add\n  dup6\n  sstore\n  dup3\n  iszero\n  tag_9\n  jumpi\n  swap2\n  dup3\n  add\ntag_12:\n  dup3\n  dup2\n  gt\n  iszero\n  tag_13\n  jumpi\n  dup3\n  mload\n  dup3\n  sstore\n  swap2\n  0x20\n  add\n  swap2\n  swap1\n  0x01\n  add\n  swap1\n  jump(tag_12)\ntag_13:\ntag_9:\n  pop\n  swap1\n  pop\n  tag_14\n  swap2\n  swap1\n  tag_15\n  jump\t// in\ntag_14:\n  pop\n  swap1\n  jump\t// out\ntag_4:\n  dup3\n  0x02\n  dup2\n  add\n  swap3\n  dup3\n  iszero\n  tag_16\n  jumpi\n  swap2\n  0x20\n  mul\n  dup3\n  add\ntag_17:\n  dup3\n  dup2\n  gt\n  iszero\n  tag_18\n  jumpi\n  dup3\n  mload\n  dup3\n  swap1\n  0xff\n  and\n  swap1\n  sstore\n  swap2\n  0x20\n  add\n  swap2\n  swap1\n  0x01\n  add\n  swap1\n  jump(tag_17)\ntag_18:\ntag_16:\n  pop\n  swap1\n  pop\n  tag_19\n  swap2\n  swap1\n  tag_15\n  jump\t// in\ntag_19:\n  pop\n  swap1\n  jump\t// out\ntag_15:\ntag_20:\n  dup1\n  dup3\n  gt\n  iszero\n  tag_21\n  jumpi\n  0x00\n  dup2\n  0x00\n  swap1\n  sstore\n  pop\n  0x01\n  add\n  jump(tag_20)\ntag_21:\n  pop\n  swap1\n  jump\t// out\n    /* \"#utility.yul\":7:327   */\ntag_8:\n    /* \"#utility.yul\":51:57   */\n  0x00\n    /* \"#utility.yul\":88:89   */\n  0x02\n    /* \"#utility.yul\":82:86   */\n  dup3\n    /* \"#utility.yul\":78:90   */\n  div\n    /* \"#utility.yul\":68:90   */\n  swap1\n  pop\n    /* \"#utility.yul\":135:136   */\n  0x01\n    /* \"#utility.yul\":129:133   */\n  dup3\n    /* \"#utility.yul\":125:137   */\n  and\n    /* \"#utility.yul\":156:174   */\n  dup1\n    /* \"#utility.yul\":146:227   */\n  tag_24\n  jumpi\n    /* \"#utility.yul\":212:216   */\n  0x7f\n    /* \"#utility.yul\":204:210   */\n  dup3\n    /* \"#utility.yul\":200:217   */\n  and\n    /* \"#utility.yul\":190:217   */\n  swap2\n  pop\n    /* \"#utility.yul\":146:227   */\ntag_24:\n    /* \"#utility.yul\":274:276   */\n  0x20\n    /* \"#utility.yul\":266:272   */\n  dup3\n    /* \"#utility.yul\":263:277   */\n  lt\n    /* \"#utility.yul\":243:261   */\n  dup2\n    /* \"#utility.yul\":240:278   */\n  eq\n    /* \"#utility.yul\":237:321   */\n  iszero\n  tag_25\n  jumpi\n    /* \"#utility.yul\":293:311   */\n  tag_26\n  tag_27\n  jump\t// in\ntag_26:\n    /* \"#utility.yul\":237:321   */\ntag_25:\n    /* \"#utility.yul\":58:327   */\n  pop\n    /* \"#utility.yul\":7:327   */\n  swap2\n  swap1\n  pop\n  jump\t// out\n    /* \"#utility.yul\":333:513   */\ntag_27:\n    /* \"#utility.yul\":381:458   */\n  0x4e487b7100000000000000000000000000000000000000000000000000000000\n    /* \"#utility.yul\":378:379   */\n  0x00\n    /* \"#utility.yul\":371:459   */\n  mstore\n    /* \"#utility.yul\":478:482   */\n  0x22\n    /* \"#utility.yul\":475:476   */\n  0x04\n    /* \"#utility.yul\":468:483   */\n  mstore\n    /* \"#utility.yul\":502:506   */\n  0x24\n    /* \"#utility.yul\":499:500   */\n  0x00\n    /* \"#utility.yul\":492:507   */\n  revert\n    /* \"ABI\\xe7\\xbc\\x96\\xe7\\xa0\\x81.sol\":72:373  contract test{\r... */\ntag_6:\n  dataSize(sub_0)\n  dup1\n  dataOffset(sub_0)\n  0x00\n  codecopy\n  0x00\n  return\nstop\n\nsub_0: assembly {\n        /* \"ABI\\xe7\\xbc\\x96\\xe7\\xa0\\x81.sol\":72:373  contract test{\r... */\n      mstore(0x40, 0x80)\n      callvalue\n      dup1\n      iszero\n      tag_1\n      jumpi\n      0x00\n      dup1\n      revert\n    tag_1:\n      pop\n      jumpi(tag_2, lt(calldatasize, 0x04))\n      shr(0xe0, calldataload(0x00))\n      dup1\n      0xbd14598f\n      eq\n      tag_3\n      jumpi\n    tag_2:\n      0x00\n      dup1\n      revert\n        /* \"ABI\\xe7\\xbc\\x96\\xe7\\xa0\\x81.sol\":251:370  function encode() public view returns(bytes memory result) {\r... */\n    tag_3:\n      tag_4\n      tag_5\n      jump\t// in\n    tag_4:\n      mload(0x40)\n      tag_6\n      swap2\n      swap1\n      tag_7\n      jump\t// in\n    tag_6:\n      mload(0x40)\n      dup1\n      swap2\n      sub\n      swap1\n      return\n    tag_5:\n        /* \"ABI\\xe7\\xbc\\x96\\xe7\\xa0\\x81.sol\":289:308  bytes memory result */\n      0x60\n        /* \"ABI\\xe7\\xbc\\x96\\xe7\\xa0\\x81.sol\":341:342  x */\n      sload(0x00)\n        /* \"ABI\\xe7\\xbc\\x96\\xe7\\xa0\\x81.sol\":344:348  addr */\n      0x01\n      0x00\n      swap1\n      sload\n      swap1\n      0x0100\n      exp\n      swap1\n      div\n      0xffffffffffffffffffffffffffffffffffffffff\n      and\n        /* \"ABI\\xe7\\xbc\\x96\\xe7\\xa0\\x81.sol\":350:354  name */\n      0x02\n        /* \"ABI\\xe7\\xbc\\x96\\xe7\\xa0\\x81.sol\":356:361  array */\n      0x03\n        /* \"ABI\\xe7\\xbc\\x96\\xe7\\xa0\\x81.sol\":330:362  abi.encode(x, addr, name, array) */\n      add(0x20, mload(0x40))\n      tag_9\n      swap5\n      swap4\n      swap3\n      swap2\n      swap1\n      tag_10\n      jump\t// in\n    tag_9:\n      mload(0x40)\n      0x20\n      dup2\n      dup4\n      sub\n      sub\n      dup2\n      mstore\n      swap1\n      0x40\n      mstore\n        /* \"ABI\\xe7\\xbc\\x96\\xe7\\xa0\\x81.sol\":321:362  result = abi.encode(x, addr, name, array) */\n      swap1\n      pop\n        /* \"ABI\\xe7\\xbc\\x96\\xe7\\xa0\\x81.sol\":251:370  function encode() public view returns(bytes memory result) {\r... */\n      swap1\n      jump\t// out\n        /* \"#utility.yul\":7:186   */\n    tag_12:\n        /* \"#utility.yul\":76:86   */\n      0x00\n        /* \"#utility.yul\":97:143   */\n      tag_14\n        /* \"#utility.yul\":139:142   */\n      dup4\n        /* \"#utility.yul\":131:137   */\n      dup4\n        /* \"#utility.yul\":97:143   */\n      tag_15\n      jump\t// in\n    tag_14:\n        /* \"#utility.yul\":175:179   */\n      0x20\n        /* \"#utility.yul\":170:173   */\n      dup4\n        /* \"#utility.yul\":166:180   */\n      add\n        /* \"#utility.yul\":152:180   */\n      swap1\n      pop\n        /* \"#utility.yul\":7:186   */\n      swap3\n      swap2\n      pop\n      pop\n      jump\t// out\n        /* \"#utility.yul\":192:310   */\n    tag_16:\n        /* \"#utility.yul\":279:303   */\n      tag_18\n        /* \"#utility.yul\":297:302   */\n      dup2\n        /* \"#utility.yul\":279:303   */\n      tag_19\n      jump\t// in\n    tag_18:\n        /* \"#utility.yul\":274:277   */\n      dup3\n        /* \"#utility.yul\":267:304   */\n      mstore\n        /* \"#utility.yul\":192:310   */\n      pop\n      pop\n      jump\t// out\n        /* \"#utility.yul\":348:1061   */\n    tag_20:\n        /* \"#utility.yul\":481:530   */\n      tag_22\n        /* \"#utility.yul\":524:529   */\n      dup2\n        /* \"#utility.yul\":481:530   */\n      tag_23\n      jump\t// in\n    tag_22:\n        /* \"#utility.yul\":546:630   */\n      tag_24\n        /* \"#utility.yul\":623:629   */\n      dup2\n        /* \"#utility.yul\":618:621   */\n      dup5\n        /* \"#utility.yul\":546:630   */\n      tag_25\n      jump\t// in\n    tag_24:\n        /* \"#utility.yul\":539:630   */\n      swap3\n      pop\n        /* \"#utility.yul\":654:705   */\n      tag_26\n        /* \"#utility.yul\":699:704   */\n      dup3\n        /* \"#utility.yul\":654:705   */\n      tag_27\n      jump\t// in\n    tag_26:\n        /* \"#utility.yul\":728:735   */\n      dup1\n        /* \"#utility.yul\":759:760   */\n      0x00\n        /* \"#utility.yul\":744:1054   */\n    tag_28:\n        /* \"#utility.yul\":769:775   */\n      dup4\n        /* \"#utility.yul\":766:767   */\n      dup2\n        /* \"#utility.yul\":763:776   */\n      lt\n        /* \"#utility.yul\":744:1054   */\n      iszero\n      tag_30\n      jumpi\n        /* \"#utility.yul\":839:883   */\n      tag_31\n        /* \"#utility.yul\":876:882   */\n      dup3\n        /* \"#utility.yul\":839:883   */\n      tag_32\n      jump\t// in\n    tag_31:\n        /* \"#utility.yul\":903:966   */\n      tag_33\n        /* \"#utility.yul\":962:965   */\n      dup8\n        /* \"#utility.yul\":947:960   */\n      dup3\n        /* \"#utility.yul\":903:966   */\n      tag_12\n      jump\t// in\n    tag_33:\n        /* \"#utility.yul\":896:966   */\n      swap7\n      pop\n        /* \"#utility.yul\":989:1044   */\n      tag_34\n        /* \"#utility.yul\":1037:1043   */\n      dup4\n        /* \"#utility.yul\":989:1044   */\n      tag_35\n      jump\t// in\n    tag_34:\n        /* \"#utility.yul\":979:1044   */\n      swap3\n      pop\n        /* \"#utility.yul\":804:1054   */\n      pop\n        /* \"#utility.yul\":791:792   */\n      0x01\n        /* \"#utility.yul\":788:789   */\n      dup2\n        /* \"#utility.yul\":784:793   */\n      add\n        /* \"#utility.yul\":779:793   */\n      swap1\n      pop\n        /* \"#utility.yul\":744:1054   */\n      jump(tag_28)\n    tag_30:\n        /* \"#utility.yul\":748:762   */\n      pop\n        /* \"#utility.yul\":457:1061   */\n      pop\n      pop\n      pop\n        /* \"#utility.yul\":348:1061   */\n      pop\n      pop\n      jump\t// out\n        /* \"#utility.yul\":1067:1427   */\n    tag_36:\n        /* \"#utility.yul\":1153:1156   */\n      0x00\n        /* \"#utility.yul\":1181:1219   */\n      tag_38\n        /* \"#utility.yul\":1213:1218   */\n      dup3\n        /* \"#utility.yul\":1181:1219   */\n      tag_39\n      jump\t// in\n    tag_38:\n        /* \"#utility.yul\":1235:1305   */\n      tag_40\n        /* \"#utility.yul\":1298:1304   */\n      dup2\n        /* \"#utility.yul\":1293:1296   */\n      dup6\n        /* \"#utility.yul\":1235:1305   */\n      tag_41\n      jump\t// in\n    tag_40:\n        /* \"#utility.yul\":1228:1305   */\n      swap4\n      pop\n        /* \"#utility.yul\":1314:1366   */\n      tag_42\n        /* \"#utility.yul\":1359:1365   */\n      dup2\n        /* \"#utility.yul\":1354:1357   */\n      dup6\n        /* \"#utility.yul\":1347:1351   */\n      0x20\n        /* \"#utility.yul\":1340:1345   */\n      dup7\n        /* \"#utility.yul\":1336:1352   */\n      add\n        /* \"#utility.yul\":1314:1366   */\n      tag_43\n      jump\t// in\n    tag_42:\n        /* \"#utility.yul\":1391:1420   */\n      tag_44\n        /* \"#utility.yul\":1413:1419   */\n      dup2\n        /* \"#utility.yul\":1391:1420   */\n      tag_45\n      jump\t// in\n    tag_44:\n        /* \"#utility.yul\":1386:1389   */\n      dup5\n        /* \"#utility.yul\":1382:1421   */\n      add\n        /* \"#utility.yul\":1375:1421   */\n      swap2\n      pop\n        /* \"#utility.yul\":1157:1427   */\n      pop\n        /* \"#utility.yul\":1067:1427   */\n      swap3\n      swap2\n      pop\n      pop\n      jump\t// out\n        /* \"#utility.yul\":1457:2259   */\n    tag_46:\n        /* \"#utility.yul\":1542:1545   */\n      0x00\n        /* \"#utility.yul\":1579:1584   */\n      dup2\n        /* \"#utility.yul\":1573:1585   */\n      sload\n        /* \"#utility.yul\":1608:1644   */\n      tag_48\n        /* \"#utility.yul\":1634:1643   */\n      dup2\n        /* \"#utility.yul\":1608:1644   */\n      tag_49\n      jump\t// in\n    tag_48:\n        /* \"#utility.yul\":1660:1731   */\n      tag_50\n        /* \"#utility.yul\":1724:1730   */\n      dup2\n        /* \"#utility.yul\":1719:1722   */\n      dup7\n        /* \"#utility.yul\":1660:1731   */\n      tag_51\n      jump\t// in\n    tag_50:\n        /* \"#utility.yul\":1653:1731   */\n      swap5\n      pop\n        /* \"#utility.yul\":1762:1763   */\n      0x01\n        /* \"#utility.yul\":1751:1760   */\n      dup3\n        /* \"#utility.yul\":1747:1764   */\n      and\n        /* \"#utility.yul\":1778:1779   */\n      0x00\n        /* \"#utility.yul\":1773:1908   */\n      dup2\n      eq\n      tag_53\n      jumpi\n        /* \"#utility.yul\":1922:1923   */\n      0x01\n        /* \"#utility.yul\":1917:2253   */\n      dup2\n      eq\n      tag_54\n      jumpi\n        /* \"#utility.yul\":1740:2253   */\n      jump(tag_52)\n        /* \"#utility.yul\":1773:1908   */\n    tag_53:\n        /* \"#utility.yul\":1857:1861   */\n      0xff\n        /* \"#utility.yul\":1853:1862   */\n      not\n        /* \"#utility.yul\":1842:1851   */\n      dup4\n        /* \"#utility.yul\":1838:1863   */\n      and\n        /* \"#utility.yul\":1833:1836   */\n      dup7\n        /* \"#utility.yul\":1826:1864   */\n      mstore\n        /* \"#utility.yul\":1893:1897   */\n      0x20\n        /* \"#utility.yul\":1888:1891   */\n      dup7\n        /* \"#utility.yul\":1884:1898   */\n      add\n        /* \"#utility.yul\":1877:1898   */\n      swap4\n      pop\n        /* \"#utility.yul\":1773:1908   */\n      jump(tag_52)\n        /* \"#utility.yul\":1917:2253   */\n    tag_54:\n        /* \"#utility.yul\":1984:2022   */\n      tag_55\n        /* \"#utility.yul\":2016:2021   */\n      dup6\n        /* \"#utility.yul\":1984:2022   */\n      tag_56\n      jump\t// in\n    tag_55:\n        /* \"#utility.yul\":2044:2045   */\n      0x00\n        /* \"#utility.yul\":2058:2212   */\n    tag_57:\n        /* \"#utility.yul\":2072:2078   */\n      dup4\n        /* \"#utility.yul\":2069:2070   */\n      dup2\n        /* \"#utility.yul\":2066:2079   */\n      lt\n        /* \"#utility.yul\":2058:2212   */\n      iszero\n      tag_59\n      jumpi\n        /* \"#utility.yul\":2146:2153   */\n      dup2\n        /* \"#utility.yul\":2140:2154   */\n      sload\n        /* \"#utility.yul\":2136:2137   */\n      dup2\n        /* \"#utility.yul\":2131:2134   */\n      dup10\n        /* \"#utility.yul\":2127:2138   */\n      add\n        /* \"#utility.yul\":2120:2155   */\n      mstore\n        /* \"#utility.yul\":2196:2197   */\n      0x01\n        /* \"#utility.yul\":2187:2194   */\n      dup3\n        /* \"#utility.yul\":2183:2198   */\n      add\n        /* \"#utility.yul\":2172:2198   */\n      swap2\n      pop\n        /* \"#utility.yul\":2094:2098   */\n      0x20\n        /* \"#utility.yul\":2091:2092   */\n      dup2\n        /* \"#utility.yul\":2087:2099   */\n      add\n        /* \"#utility.yul\":2082:2099   */\n      swap1\n      pop\n        /* \"#utility.yul\":2058:2212   */\n      jump(tag_57)\n    tag_59:\n        /* \"#utility.yul\":2241:2242   */\n      dup1\n        /* \"#utility.yul\":2236:2239   */\n      dup9\n        /* \"#utility.yul\":2232:2243   */\n      add\n        /* \"#utility.yul\":2225:2243   */\n      swap6\n      pop\n        /* \"#utility.yul\":1924:2253   */\n      pop\n      pop\n        /* \"#utility.yul\":1740:2253   */\n    tag_52:\n      pop\n        /* \"#utility.yul\":1546:2259   */\n      pop\n      pop\n        /* \"#utility.yul\":1457:2259   */\n      swap3\n      swap2\n      pop\n      pop\n      jump\t// out\n        /* \"#utility.yul\":2265:2373   */\n    tag_15:\n        /* \"#utility.yul\":2342:2366   */\n      tag_61\n        /* \"#utility.yul\":2360:2365   */\n      dup2\n        /* \"#utility.yul\":2342:2366   */\n      tag_62\n      jump\t// in\n    tag_61:\n        /* \"#utility.yul\":2337:2340   */\n      dup3\n        /* \"#utility.yul\":2330:2367   */\n      mstore\n        /* \"#utility.yul\":2265:2373   */\n      pop\n      pop\n      jump\t// out\n        /* \"#utility.yul\":2379:2497   */\n    tag_63:\n        /* \"#utility.yul\":2466:2490   */\n      tag_65\n        /* \"#utility.yul\":2484:2489   */\n      dup2\n        /* \"#utility.yul\":2466:2490   */\n      tag_62\n      jump\t// in\n    tag_65:\n        /* \"#utility.yul\":2461:2464   */\n      dup3\n        /* \"#utility.yul\":2454:2491   */\n      mstore\n        /* \"#utility.yul\":2379:2497   */\n      pop\n      pop\n      jump\t// out\n        /* \"#utility.yul\":2503:2812   */\n    tag_7:\n        /* \"#utility.yul\":2614:2618   */\n      0x00\n        /* \"#utility.yul\":2652:2654   */\n      0x20\n        /* \"#utility.yul\":2641:2650   */\n      dup3\n        /* \"#utility.yul\":2637:2655   */\n      add\n        /* \"#utility.yul\":2629:2655   */\n      swap1\n      pop\n        /* \"#utility.yul\":2701:2710   */\n      dup2\n        /* \"#utility.yul\":2695:2699   */\n      dup2\n        /* \"#utility.yul\":2691:2711   */\n      sub\n        /* \"#utility.yul\":2687:2688   */\n      0x00\n        /* \"#utility.yul\":2676:2685   */\n      dup4\n        /* \"#utility.yul\":2672:2689   */\n      add\n        /* \"#utility.yul\":2665:2712   */\n      mstore\n        /* \"#utility.yul\":2729:2805   */\n      tag_67\n        /* \"#utility.yul\":2800:2804   */\n      dup2\n        /* \"#utility.yul\":2791:2797   */\n      dup5\n        /* \"#utility.yul\":2729:2805   */\n      tag_36\n      jump\t// in\n    tag_67:\n        /* \"#utility.yul\":2721:2805   */\n      swap1\n      pop\n        /* \"#utility.yul\":2503:2812   */\n      swap3\n      swap2\n      pop\n      pop\n      jump\t// out\n        /* \"#utility.yul\":2818:3542   */\n    tag_10:\n        /* \"#utility.yul\":3055:3059   */\n      0x00\n        /* \"#utility.yul\":3093:3096   */\n      0xa0\n        /* \"#utility.yul\":3082:3091   */\n      dup3\n        /* \"#utility.yul\":3078:3097   */\n      add\n        /* \"#utility.yul\":3070:3097   */\n      swap1\n      pop\n        /* \"#utility.yul\":3107:3178   */\n      tag_69\n        /* \"#utility.yul\":3175:3176   */\n      0x00\n        /* \"#utility.yul\":3164:3173   */\n      dup4\n        /* \"#utility.yul\":3160:3177   */\n      add\n        /* \"#utility.yul\":3151:3157   */\n      dup8\n        /* \"#utility.yul\":3107:3178   */\n      tag_63\n      jump\t// in\n    tag_69:\n        /* \"#utility.yul\":3188:3260   */\n      tag_70\n        /* \"#utility.yul\":3256:3258   */\n      0x20\n        /* \"#utility.yul\":3245:3254   */\n      dup4\n        /* \"#utility.yul\":3241:3259   */\n      add\n        /* \"#utility.yul\":3232:3238   */\n      dup7\n        /* \"#utility.yul\":3188:3260   */\n      tag_16\n      jump\t// in\n    tag_70:\n        /* \"#utility.yul\":3307:3316   */\n      dup2\n        /* \"#utility.yul\":3301:3305   */\n      dup2\n        /* \"#utility.yul\":3297:3317   */\n      sub\n        /* \"#utility.yul\":3292:3294   */\n      0x40\n        /* \"#utility.yul\":3281:3290   */\n      dup4\n        /* \"#utility.yul\":3277:3295   */\n      add\n        /* \"#utility.yul\":3270:3318   */\n      mstore\n        /* \"#utility.yul\":3335:3410   */\n      tag_71\n        /* \"#utility.yul\":3405:3409   */\n      dup2\n        /* \"#utility.yul\":3396:3402   */\n      dup6\n        /* \"#utility.yul\":3335:3410   */\n      tag_46\n      jump\t// in\n    tag_71:\n        /* \"#utility.yul\":3327:3410   */\n      swap1\n      pop\n        /* \"#utility.yul\":3420:3535   */\n      tag_72\n        /* \"#utility.yul\":3531:3533   */\n      0x60\n        /* \"#utility.yul\":3520:3529   */\n      dup4\n        /* \"#utility.yul\":3516:3534   */\n      add\n        /* \"#utility.yul\":3507:3513   */\n      dup5\n        /* \"#utility.yul\":3420:3535   */\n      tag_20\n      jump\t// in\n    tag_72:\n        /* \"#utility.yul\":2818:3542   */\n      swap6\n      swap5\n      pop\n      pop\n      pop\n      pop\n      pop\n      jump\t// out\n        /* \"#utility.yul\":3548:3643   */\n    tag_27:\n        /* \"#utility.yul\":3610:3614   */\n      0x00\n        /* \"#utility.yul\":3633:3636   */\n      dup2\n        /* \"#utility.yul\":3625:3636   */\n      swap1\n      pop\n        /* \"#utility.yul\":3548:3643   */\n      swap2\n      swap1\n      pop\n      jump\t// out\n        /* \"#utility.yul\":3649:3790   */\n    tag_56:\n        /* \"#utility.yul\":3698:3702   */\n      0x00\n        /* \"#utility.yul\":3721:3724   */\n      dup2\n        /* \"#utility.yul\":3713:3724   */\n      swap1\n      pop\n        /* \"#utility.yul\":3744:3747   */\n      dup2\n        /* \"#utility.yul\":3741:3742   */\n      0x00\n        /* \"#utility.yul\":3734:3748   */\n      mstore\n        /* \"#utility.yul\":3778:3782   */\n      0x20\n        /* \"#utility.yul\":3775:3776   */\n      0x00\n        /* \"#utility.yul\":3765:3783   */\n      keccak256\n        /* \"#utility.yul\":3757:3783   */\n      swap1\n      pop\n        /* \"#utility.yul\":3649:3790   */\n      swap2\n      swap1\n      pop\n      jump\t// out\n        /* \"#utility.yul\":3796:3897   */\n    tag_23:\n        /* \"#utility.yul\":3858:3864   */\n      0x00\n        /* \"#utility.yul\":3886:3890   */\n      0x02\n        /* \"#utility.yul\":3876:3890   */\n      swap1\n      pop\n        /* \"#utility.yul\":3796:3897   */\n      swap2\n      swap1\n      pop\n      jump\t// out\n        /* \"#utility.yul\":3903:4001   */\n    tag_39:\n        /* \"#utility.yul\":3954:3960   */\n      0x00\n        /* \"#utility.yul\":3988:3993   */\n      dup2\n        /* \"#utility.yul\":3982:3994   */\n      mload\n        /* \"#utility.yul\":3972:3994   */\n      swap1\n      pop\n        /* \"#utility.yul\":3903:4001   */\n      swap2\n      swap1\n      pop\n      jump\t// out\n        /* \"#utility.yul\":4007:4115   */\n    tag_35:\n        /* \"#utility.yul\":4072:4076   */\n      0x00\n        /* \"#utility.yul\":4104:4108   */\n      0x01\n        /* \"#utility.yul\":4099:4102   */\n      dup3\n        /* \"#utility.yul\":4095:4109   */\n      add\n        /* \"#utility.yul\":4087:4109   */\n      swap1\n      pop\n        /* \"#utility.yul\":4007:4115   */\n      swap2\n      swap1\n      pop\n      jump\t// out\n        /* \"#utility.yul\":4121:4264   */\n    tag_25:\n        /* \"#utility.yul\":4218:4229   */\n      0x00\n        /* \"#utility.yul\":4255:4258   */\n      dup2\n        /* \"#utility.yul\":4240:4258   */\n      swap1\n      pop\n        /* \"#utility.yul\":4121:4264   */\n      swap3\n      swap2\n      pop\n      pop\n      jump\t// out\n        /* \"#utility.yul\":4270:4438   */\n    tag_41:\n        /* \"#utility.yul\":4353:4364   */\n      0x00\n        /* \"#utility.yul\":4387:4393   */\n      dup3\n        /* \"#utility.yul\":4382:4385   */\n      dup3\n        /* \"#utility.yul\":4375:4394   */\n      mstore\n        /* \"#utility.yul\":4427:4431   */\n      0x20\n        /* \"#utility.yul\":4422:4425   */\n      dup3\n        /* \"#utility.yul\":4418:4432   */\n      add\n        /* \"#utility.yul\":4403:4432   */\n      swap1\n      pop\n        /* \"#utility.yul\":4270:4438   */\n      swap3\n      swap2\n      pop\n      pop\n      jump\t// out\n        /* \"#utility.yul\":4444:4613   */\n    tag_51:\n        /* \"#utility.yul\":4528:4539   */\n      0x00\n        /* \"#utility.yul\":4562:4568   */\n      dup3\n        /* \"#utility.yul\":4557:4560   */\n      dup3\n        /* \"#utility.yul\":4550:4569   */\n      mstore\n        /* \"#utility.yul\":4602:4606   */\n      0x20\n        /* \"#utility.yul\":4597:4600   */\n      dup3\n        /* \"#utility.yul\":4593:4607   */\n      add\n        /* \"#utility.yul\":4578:4607   */\n      swap1\n      pop\n        /* \"#utility.yul\":4444:4613   */\n      swap3\n      swap2\n      pop\n      pop\n      jump\t// out\n        /* \"#utility.yul\":4619:4709   */\n    tag_81:\n        /* \"#utility.yul\":4669:4676   */\n      0x00\n        /* \"#utility.yul\":4698:4703   */\n      dup2\n        /* \"#utility.yul\":4687:4703   */\n      swap1\n      pop\n        /* \"#utility.yul\":4619:4709   */\n      swap2\n      swap1\n      pop\n      jump\t// out\n        /* \"#utility.yul\":4715:4811   */\n    tag_19:\n        /* \"#utility.yul\":4752:4759   */\n      0x00\n        /* \"#utility.yul\":4781:4805   */\n      tag_84\n        /* \"#utility.yul\":4799:4804   */\n      dup3\n        /* \"#utility.yul\":4781:4805   */\n      tag_85\n      jump\t// in\n    tag_84:\n        /* \"#utility.yul\":4770:4805   */\n      swap1\n      pop\n        /* \"#utility.yul\":4715:4811   */\n      swap2\n      swap1\n      pop\n      jump\t// out\n        /* \"#utility.yul\":4817:4943   */\n    tag_85:\n        /* \"#utility.yul\":4854:4861   */\n      0x00\n        /* \"#utility.yul\":4894:4936   */\n      0xffffffffffffffffffffffffffffffffffffffff\n        /* \"#utility.yul\":4887:4892   */\n      dup3\n        /* \"#utility.yul\":4883:4937   */\n      and\n        /* \"#utility.yul\":4872:4937   */\n      swap1\n      pop\n        /* \"#utility.yul\":4817:4943   */\n      swap2\n      swap1\n      pop\n      jump\t// out\n        /* \"#utility.yul\":4949:5026   */\n    tag_62:\n        /* \"#utility.yul\":4986:4993   */\n      0x00\n        /* \"#utility.yul\":5015:5020   */\n      dup2\n        /* \"#utility.yul\":5004:5020   */\n      swap1\n      pop\n        /* \"#utility.yul\":4949:5026   */\n      swap2\n      swap1\n      pop\n      jump\t// out\n        /* \"#utility.yul\":5032:5339   */\n    tag_43:\n        /* \"#utility.yul\":5100:5101   */\n      0x00\n        /* \"#utility.yul\":5110:5223   */\n    tag_89:\n        /* \"#utility.yul\":5124:5130   */\n      dup4\n        /* \"#utility.yul\":5121:5122   */\n      dup2\n        /* \"#utility.yul\":5118:5131   */\n      lt\n        /* \"#utility.yul\":5110:5223   */\n      iszero\n      tag_91\n      jumpi\n        /* \"#utility.yul\":5209:5210   */\n      dup1\n        /* \"#utility.yul\":5204:5207   */\n      dup3\n        /* \"#utility.yul\":5200:5211   */\n      add\n        /* \"#utility.yul\":5194:5212   */\n      mload\n        /* \"#utility.yul\":5190:5191   */\n      dup2\n        /* \"#utility.yul\":5185:5188   */\n      dup5\n        /* \"#utility.yul\":5181:5192   */\n      add\n        /* \"#utility.yul\":5174:5213   */\n      mstore\n        /* \"#utility.yul\":5146:5148   */\n      0x20\n        /* \"#utility.yul\":5143:5144   */\n      dup2\n        /* \"#utility.yul\":5139:5149   */\n      add\n        /* \"#utility.yul\":5134:5149   */\n      swap1\n      pop\n        /* \"#utility.yul\":5110:5223   */\n      jump(tag_89)\n    tag_91:\n        /* \"#utility.yul\":5241:5247   */\n      dup4\n        /* \"#utility.yul\":5238:5239   */\n      dup2\n        /* \"#utility.yul\":5235:5248   */\n      gt\n        /* \"#utility.yul\":5232:5333   */\n      iszero\n      tag_92\n      jumpi\n        /* \"#utility.yul\":5321:5322   */\n      0x00\n        /* \"#utility.yul\":5312:5318   */\n      dup5\n        /* \"#utility.yul\":5307:5310   */\n      dup5\n        /* \"#utility.yul\":5303:5319   */\n      add\n        /* \"#utility.yul\":5296:5323   */\n      mstore\n        /* \"#utility.yul\":5232:5333   */\n    tag_92:\n        /* \"#utility.yul\":5081:5339   */\n      pop\n        /* \"#utility.yul\":5032:5339   */\n      pop\n      pop\n      pop\n      jump\t// out\n        /* \"#utility.yul\":5345:5665   */\n    tag_49:\n        /* \"#utility.yul\":5389:5395   */\n      0x00\n        /* \"#utility.yul\":5426:5427   */\n      0x02\n        /* \"#utility.yul\":5420:5424   */\n      dup3\n        /* \"#utility.yul\":5416:5428   */\n      div\n        /* \"#utility.yul\":5406:5428   */\n      swap1\n      pop\n        /* \"#utility.yul\":5473:5474   */\n      0x01\n        /* \"#utility.yul\":5467:5471   */\n      dup3\n        /* \"#utility.yul\":5463:5475   */\n      and\n        /* \"#utility.yul\":5494:5512   */\n      dup1\n        /* \"#utility.yul\":5484:5565   */\n      tag_94\n      jumpi\n        /* \"#utility.yul\":5550:5554   */\n      0x7f\n        /* \"#utility.yul\":5542:5548   */\n      dup3\n        /* \"#utility.yul\":5538:5555   */\n      and\n        /* \"#utility.yul\":5528:5555   */\n      swap2\n      pop\n        /* \"#utility.yul\":5484:5565   */\n    tag_94:\n        /* \"#utility.yul\":5612:5614   */\n      0x20\n        /* \"#utility.yul\":5604:5610   */\n      dup3\n        /* \"#utility.yul\":5601:5615   */\n      lt\n        /* \"#utility.yul\":5581:5599   */\n      dup2\n        /* \"#utility.yul\":5578:5616   */\n      eq\n        /* \"#utility.yul\":5575:5659   */\n      iszero\n      tag_95\n      jumpi\n        /* \"#utility.yul\":5631:5649   */\n      tag_96\n      tag_97\n      jump\t// in\n    tag_96:\n        /* \"#utility.yul\":5575:5659   */\n    tag_95:\n        /* \"#utility.yul\":5396:5665   */\n      pop\n        /* \"#utility.yul\":5345:5665   */\n      swap2\n      swap1\n      pop\n      jump\t// out\n        /* \"#utility.yul\":5671:5837   */\n    tag_98:\n        /* \"#utility.yul\":5740:5745   */\n      0x00\n        /* \"#utility.yul\":5765:5831   */\n      tag_100\n        /* \"#utility.yul\":5796:5830   */\n      tag_101\n        /* \"#utility.yul\":5819:5829   */\n      dup4\n        /* \"#utility.yul\":5796:5830   */\n      tag_102\n      jump\t// in\n    tag_101:\n        /* \"#utility.yul\":5765:5831   */\n      tag_81\n      jump\t// in\n    tag_100:\n        /* \"#utility.yul\":5756:5831   */\n      swap1\n      pop\n        /* \"#utility.yul\":5671:5837   */\n      swap2\n      swap1\n      pop\n      jump\t// out\n        /* \"#utility.yul\":5843:6023   */\n    tag_97:\n        /* \"#utility.yul\":5891:5968   */\n      0x4e487b7100000000000000000000000000000000000000000000000000000000\n        /* \"#utility.yul\":5888:5889   */\n      0x00\n        /* \"#utility.yul\":5881:5969   */\n      mstore\n        /* \"#utility.yul\":5988:5992   */\n      0x22\n        /* \"#utility.yul\":5985:5986   */\n      0x04\n        /* \"#utility.yul\":5978:5993   */\n      mstore\n        /* \"#utility.yul\":6012:6016   */\n      0x24\n        /* \"#utility.yul\":6009:6010   */\n      0x00\n        /* \"#utility.yul\":6002:6017   */\n      revert\n        /* \"#utility.yul\":6029:6173   */\n    tag_32:\n        /* \"#utility.yul\":6084:6089   */\n      0x00\n        /* \"#utility.yul\":6109:6166   */\n      tag_105\n        /* \"#utility.yul\":6160:6164   */\n      dup3\n        /* \"#utility.yul\":6154:6165   */\n      sload\n        /* \"#utility.yul\":6109:6166   */\n      tag_98\n      jump\t// in\n    tag_105:\n        /* \"#utility.yul\":6100:6166   */\n      swap1\n      pop\n        /* \"#utility.yul\":6029:6173   */\n      swap2\n      swap1\n      pop\n      jump\t// out\n        /* \"#utility.yul\":6179:6281   */\n    tag_45:\n        /* \"#utility.yul\":6220:6226   */\n      0x00\n        /* \"#utility.yul\":6271:6273   */\n      0x1f\n        /* \"#utility.yul\":6267:6274   */\n      not\n        /* \"#utility.yul\":6262:6264   */\n      0x1f\n        /* \"#utility.yul\":6255:6260   */\n      dup4\n        /* \"#utility.yul\":6251:6265   */\n      add\n        /* \"#utility.yul\":6247:6275   */\n      and\n        /* \"#utility.yul\":6237:6275   */\n      swap1\n      pop\n        /* \"#utility.yul\":6179:6281   */\n      swap2\n      swap1\n      pop\n      jump\t// out\n        /* \"#utility.yul\":6287:6389   */\n    tag_102:\n        /* \"#utility.yul\":6329:6337   */\n      0x00\n        /* \"#utility.yul\":6376:6381   */\n      dup2\n        /* \"#utility.yul\":6373:6374   */\n      0x00\n        /* \"#utility.yul\":6369:6382   */\n      shr\n        /* \"#utility.yul\":6348:6382   */\n      swap1\n      pop\n        /* \"#utility.yul\":6287:6389   */\n      swap2\n      swap1\n      pop\n      jump\t// out\n\n    auxdata: 0xa26469706673582212208d1b395e15967691e7a3718dde01280d83a7bbe88779ff10eb079fd836f8e4b064736f6c63430008070033\n}\n",
				"bytecode": {
					"linkReferences": {},
					"object": "6080604052600a600055737a58c0be72be218b41c608b7fe7c5bb630736c71600160006101000a81548173ffffffffffffffffffffffffffffffffffffffff021916908373ffffffffffffffffffffffffffffffffffffffff1602179055506040518060400160405280600481526020017f3078414100000000000000000000000000000000000000000000000000000000815250600290805190602001906100a99291906100ea565b506040518060400160405280600560ff168152602001600660ff1681525060039060026100d7929190610170565b503480156100e457600080fd5b50610233565b8280546100f6906101d2565b90600052602060002090601f016020900481019282610118576000855561015f565b82601f1061013157805160ff191683800117855561015f565b8280016001018555821561015f579182015b8281111561015e578251825591602001919060010190610143565b5b50905061016c91906101b5565b5090565b82600281019282156101a4579160200282015b828111156101a3578251829060ff16905591602001919060010190610183565b5b5090506101b191906101b5565b5090565b5b808211156101ce5760008160009055506001016101b6565b5090565b600060028204905060018216806101ea57607f821691505b602082108114156101fe576101fd610204565b5b50919050565b7f4e487b7100000000000000000000000000000000000000000000000000000000600052602260045260246000fd5b610435806102426000396000f3fe608060405234801561001057600080fd5b506004361061002b5760003560e01c8063bd14598f14610030575b600080fd5b61003861004e565b60405161004591906101fd565b60405180910390f35b6060600054600160009054906101000a900473ffffffffffffffffffffffffffffffffffffffff166002600360405160200161008d949392919061021f565b604051602081830303815290604052905090565b60006100ad83836101df565b60208301905092915050565b6100c2816102e4565b82525050565b6100d18161028a565b6100db81846102ad565b92506100e68261026b565b8060005b8381101561011e576100fb826103ce565b61010587826100a1565b9650610110836102a0565b9250506001810190506100ea565b505050505050565b600061013182610295565b61013b81856102b8565b935061014b818560208601610320565b610154816103e1565b840191505092915050565b6000815461016c81610353565b61017681866102c9565b9450600182166000811461019157600181146101a3576101d6565b60ff19831686526020860193506101d6565b6101ac85610275565b60005b838110156101ce578154818901526001820191506020810190506101af565b808801955050505b50505092915050565b6101e881610316565b82525050565b6101f781610316565b82525050565b600060208201905081810360008301526102178184610126565b905092915050565b600060a08201905061023460008301876101ee565b61024160208301866100b9565b8181036040830152610253818561015f565b905061026260608301846100c8565b95945050505050565b6000819050919050565b60008190508160005260206000209050919050565b600060029050919050565b600081519050919050565b6000600182019050919050565b600081905092915050565b600082825260208201905092915050565b600082825260208201905092915050565b6000819050919050565b60006102ef826102f6565b9050919050565b600073ffffffffffffffffffffffffffffffffffffffff82169050919050565b6000819050919050565b60005b8381101561033e578082015181840152602081019050610323565b8381111561034d576000848401525b50505050565b6000600282049050600182168061036b57607f821691505b6020821081141561037f5761037e61039f565b5b50919050565b6000610398610393836103f2565b6102da565b9050919050565b7f4e487b7100000000000000000000000000000000000000000000000000000000600052602260045260246000fd5b60006103da8254610385565b9050919050565b6000601f19601f8301169050919050565b60008160001c905091905056fea26469706673582212208d1b395e15967691e7a3718dde01280d83a7bbe88779ff10eb079fd836f8e4b064736f6c63430008070033",
					"opcodes": "PUSH1 0x80 PUSH1 0x40 MSTORE PUSH1 0xA PUSH1 0x0 SSTORE PUSH20 0x7A58C0BE72BE218B41C608B7FE7C5BB630736C71 PUSH1 0x1 PUSH1 0x0 PUSH2 0x100 EXP DUP2 SLOAD DUP2 PUSH20 0xFFFFFFFFFFFFFFFFFFFFFFFFFFFFFFFFFFFFFFFF MUL NOT AND SWAP1 DUP4 PUSH20 0xFFFFFFFFFFFFFFFFFFFFFFFFFFFFFFFFFFFFFFFF AND MUL OR SWAP1 SSTORE POP PUSH1 0x40 MLOAD DUP1 PUSH1 0x40 ADD PUSH1 0x40 MSTORE DUP1 PUSH1 0x4 DUP2 MSTORE PUSH1 0x20 ADD PUSH32 0x3078414100000000000000000000000000000000000000000000000000000000 DUP2 MSTORE POP PUSH1 0x2 SWAP1 DUP1 MLOAD SWAP1 PUSH1 0x20 ADD SWAP1 PUSH2 0xA9 SWAP3 SWAP2 SWAP1 PUSH2 0xEA JUMP JUMPDEST POP PUSH1 0x40 MLOAD DUP1 PUSH1 0x40 ADD PUSH1 0x40 MSTORE DUP1 PUSH1 0x5 PUSH1 0xFF AND DUP2 MSTORE PUSH1 0x20 ADD PUSH1 0x6 PUSH1 0xFF AND DUP2 MSTORE POP PUSH1 0x3 SWAP1 PUSH1 0x2 PUSH2 0xD7 SWAP3 SWAP2 SWAP1 PUSH2 0x170 JUMP JUMPDEST POP CALLVALUE DUP1 ISZERO PUSH2 0xE4 JUMPI PUSH1 0x0 DUP1 REVERT JUMPDEST POP PUSH2 0x233 JUMP JUMPDEST DUP3 DUP1 SLOAD PUSH2 0xF6 SWAP1 PUSH2 0x1D2 JUMP JUMPDEST SWAP1 PUSH1 0x0 MSTORE PUSH1 0x20 PUSH1 0x0 KECCAK256 SWAP1 PUSH1 0x1F ADD PUSH1 0x20 SWAP1 DIV DUP2 ADD SWAP3 DUP3 PUSH2 0x118 JUMPI PUSH1 0x0 DUP6 SSTORE PUSH2 0x15F JUMP JUMPDEST DUP3 PUSH1 0x1F LT PUSH2 0x131 JUMPI DUP1 MLOAD PUSH1 0xFF NOT AND DUP4 DUP1 ADD OR DUP6 SSTORE PUSH2 0x15F JUMP JUMPDEST DUP3 DUP1 ADD PUSH1 0x1 ADD DUP6 SSTORE DUP3 ISZERO PUSH2 0x15F JUMPI SWAP2 DUP3 ADD JUMPDEST DUP3 DUP2 GT ISZERO PUSH2 0x15E JUMPI DUP3 MLOAD DUP3 SSTORE SWAP2 PUSH1 0x20 ADD SWAP2 SWAP1 PUSH1 0x1 ADD SWAP1 PUSH2 0x143 JUMP JUMPDEST JUMPDEST POP SWAP1 POP PUSH2 0x16C SWAP2 SWAP1 PUSH2 0x1B5 JUMP JUMPDEST POP SWAP1 JUMP JUMPDEST DUP3 PUSH1 0x2 DUP2 ADD SWAP3 DUP3 ISZERO PUSH2 0x1A4 JUMPI SWAP2 PUSH1 0x20 MUL DUP3 ADD JUMPDEST DUP3 DUP2 GT ISZERO PUSH2 0x1A3 JUMPI DUP3 MLOAD DUP3 SWAP1 PUSH1 0xFF AND SWAP1 SSTORE SWAP2 PUSH1 0x20 ADD SWAP2 SWAP1 PUSH1 0x1 ADD SWAP1 PUSH2 0x183 JUMP JUMPDEST JUMPDEST POP SWAP1 POP PUSH2 0x1B1 SWAP2 SWAP1 PUSH2 0x1B5 JUMP JUMPDEST POP SWAP1 JUMP JUMPDEST JUMPDEST DUP1 DUP3 GT ISZERO PUSH2 0x1CE JUMPI PUSH1 0x0 DUP2 PUSH1 0x0 SWAP1 SSTORE POP PUSH1 0x1 ADD PUSH2 0x1B6 JUMP JUMPDEST POP SWAP1 JUMP JUMPDEST PUSH1 0x0 PUSH1 0x2 DUP3 DIV SWAP1 POP PUSH1 0x1 DUP3 AND DUP1 PUSH2 0x1EA JUMPI PUSH1 0x7F DUP3 AND SWAP2 POP JUMPDEST PUSH1 0x20 DUP3 LT DUP2 EQ ISZERO PUSH2 0x1FE JUMPI PUSH2 0x1FD PUSH2 0x204 JUMP JUMPDEST JUMPDEST POP SWAP2 SWAP1 POP JUMP JUMPDEST PUSH32 0x4E487B7100000000000000000000000000000000000000000000000000000000 PUSH1 0x0 MSTORE PUSH1 0x22 PUSH1 0x4 MSTORE PUSH1 0x24 PUSH1 0x0 REVERT JUMPDEST PUSH2 0x435 DUP1 PUSH2 0x242 PUSH1 0x0 CODECOPY PUSH1 0x0 RETURN INVALID PUSH1 0x80 PUSH1 0x40 MSTORE CALLVALUE DUP1 ISZERO PUSH2 0x10 JUMPI PUSH1 0x0 DUP1 REVERT JUMPDEST POP PUSH1 0x4 CALLDATASIZE LT PUSH2 0x2B JUMPI PUSH1 0x0 CALLDATALOAD PUSH1 0xE0 SHR DUP1 PUSH4 0xBD14598F EQ PUSH2 0x30 JUMPI JUMPDEST PUSH1 0x0 DUP1 REVERT JUMPDEST PUSH2 0x38 PUSH2 0x4E JUMP JUMPDEST PUSH1 0x40 MLOAD PUSH2 0x45 SWAP2 SWAP1 PUSH2 0x1FD JUMP JUMPDEST PUSH1 0x40 MLOAD DUP1 SWAP2 SUB SWAP1 RETURN JUMPDEST PUSH1 0x60 PUSH1 0x0 SLOAD PUSH1 0x1 PUSH1 0x0 SWAP1 SLOAD SWAP1 PUSH2 0x100 EXP SWAP1 DIV PUSH20 0xFFFFFFFFFFFFFFFFFFFFFFFFFFFFFFFFFFFFFFFF AND PUSH1 0x2 PUSH1 0x3 PUSH1 0x40 MLOAD PUSH1 0x20 ADD PUSH2 0x8D SWAP5 SWAP4 SWAP3 SWAP2 SWAP1 PUSH2 0x21F JUMP JUMPDEST PUSH1 0x40 MLOAD PUSH1 0x20 DUP2 DUP4 SUB SUB DUP2 MSTORE SWAP1 PUSH1 0x40 MSTORE SWAP1 POP SWAP1 JUMP JUMPDEST PUSH1 0x0 PUSH2 0xAD DUP4 DUP4 PUSH2 0x1DF JUMP JUMPDEST PUSH1 0x20 DUP4 ADD SWAP1 POP SWAP3 SWAP2 POP POP JUMP JUMPDEST PUSH2 0xC2 DUP2 PUSH2 0x2E4 JUMP JUMPDEST DUP3 MSTORE POP POP JUMP JUMPDEST PUSH2 0xD1 DUP2 PUSH2 0x28A JUMP JUMPDEST PUSH2 0xDB DUP2 DUP5 PUSH2 0x2AD JUMP JUMPDEST SWAP3 POP PUSH2 0xE6 DUP3 PUSH2 0x26B JUMP JUMPDEST DUP1 PUSH1 0x0 JUMPDEST DUP4 DUP2 LT ISZERO PUSH2 0x11E JUMPI PUSH2 0xFB DUP3 PUSH2 0x3CE JUMP JUMPDEST PUSH2 0x105 DUP8 DUP3 PUSH2 0xA1 JUMP JUMPDEST SWAP7 POP PUSH2 0x110 DUP4 PUSH2 0x2A0 JUMP JUMPDEST SWAP3 POP POP PUSH1 0x1 DUP2 ADD SWAP1 POP PUSH2 0xEA JUMP JUMPDEST POP POP POP POP POP POP JUMP JUMPDEST PUSH1 0x0 PUSH2 0x131 DUP3 PUSH2 0x295 JUMP JUMPDEST PUSH2 0x13B DUP2 DUP6 PUSH2 0x2B8 JUMP JUMPDEST SWAP4 POP PUSH2 0x14B DUP2 DUP6 PUSH1 0x20 DUP7 ADD PUSH2 0x320 JUMP JUMPDEST PUSH2 0x154 DUP2 PUSH2 0x3E1 JUMP JUMPDEST DUP5 ADD SWAP2 POP POP SWAP3 SWAP2 POP POP JUMP JUMPDEST PUSH1 0x0 DUP2 SLOAD PUSH2 0x16C DUP2 PUSH2 0x353 JUMP JUMPDEST PUSH2 0x176 DUP2 DUP7 PUSH2 0x2C9 JUMP JUMPDEST SWAP5 POP PUSH1 0x1 DUP3 AND PUSH1 0x0 DUP2 EQ PUSH2 0x191 JUMPI PUSH1 0x1 DUP2 EQ PUSH2 0x1A3 JUMPI PUSH2 0x1D6 JUMP JUMPDEST PUSH1 0xFF NOT DUP4 AND DUP7 MSTORE PUSH1 0x20 DUP7 ADD SWAP4 POP PUSH2 0x1D6 JUMP JUMPDEST PUSH2 0x1AC DUP6 PUSH2 0x275 JUMP JUMPDEST PUSH1 0x0 JUMPDEST DUP4 DUP2 LT ISZERO PUSH2 0x1CE JUMPI DUP2 SLOAD DUP2 DUP10 ADD MSTORE PUSH1 0x1 DUP3 ADD SWAP2 POP PUSH1 0x20 DUP2 ADD SWAP1 POP PUSH2 0x1AF JUMP JUMPDEST DUP1 DUP9 ADD SWAP6 POP POP POP JUMPDEST POP POP POP SWAP3 SWAP2 POP POP JUMP JUMPDEST PUSH2 0x1E8 DUP2 PUSH2 0x316 JUMP JUMPDEST DUP3 MSTORE POP POP JUMP JUMPDEST PUSH2 0x1F7 DUP2 PUSH2 0x316 JUMP JUMPDEST DUP3 MSTORE POP POP JUMP JUMPDEST PUSH1 0x0 PUSH1 0x20 DUP3 ADD SWAP1 POP DUP2 DUP2 SUB PUSH1 0x0 DUP4 ADD MSTORE PUSH2 0x217 DUP2 DUP5 PUSH2 0x126 JUMP JUMPDEST SWAP1 POP SWAP3 SWAP2 POP POP JUMP JUMPDEST PUSH1 0x0 PUSH1 0xA0 DUP3 ADD SWAP1 POP PUSH2 0x234 PUSH1 0x0 DUP4 ADD DUP8 PUSH2 0x1EE JUMP JUMPDEST PUSH2 0x241 PUSH1 0x20 DUP4 ADD DUP7 PUSH2 0xB9 JUMP JUMPDEST DUP2 DUP2 SUB PUSH1 0x40 DUP4 ADD MSTORE PUSH2 0x253 DUP2 DUP6 PUSH2 0x15F JUMP JUMPDEST SWAP1 POP PUSH2 0x262 PUSH1 0x60 DUP4 ADD DUP5 PUSH2 0xC8 JUMP JUMPDEST SWAP6 SWAP5 POP POP POP POP POP JUMP JUMPDEST PUSH1 0x0 DUP2 SWAP1 POP SWAP2 SWAP1 POP JUMP JUMPDEST PUSH1 0x0 DUP2 SWAP1 POP DUP2 PUSH1 0x0 MSTORE PUSH1 0x20 PUSH1 0x0 KECCAK256 SWAP1 POP SWAP2 SWAP1 POP JUMP JUMPDEST PUSH1 0x0 PUSH1 0x2 SWAP1 POP SWAP2 SWAP1 POP JUMP JUMPDEST PUSH1 0x0 DUP2 MLOAD SWAP1 POP SWAP2 SWAP1 POP JUMP JUMPDEST PUSH1 0x0 PUSH1 0x1 DUP3 ADD SWAP1 POP SWAP2 SWAP1 POP JUMP JUMPDEST PUSH1 0x0 DUP2 SWAP1 POP SWAP3 SWAP2 POP POP JUMP JUMPDEST PUSH1 0x0 DUP3 DUP3 MSTORE PUSH1 0x20 DUP3 ADD SWAP1 POP SWAP3 SWAP2 POP POP JUMP JUMPDEST PUSH1 0x0 DUP3 DUP3 MSTORE PUSH1 0x20 DUP3 ADD SWAP1 POP SWAP3 SWAP2 POP POP JUMP JUMPDEST PUSH1 0x0 DUP2 SWAP1 POP SWAP2 SWAP1 POP JUMP JUMPDEST PUSH1 0x0 PUSH2 0x2EF DUP3 PUSH2 0x2F6 JUMP JUMPDEST SWAP1 POP SWAP2 SWAP1 POP JUMP JUMPDEST PUSH1 0x0 PUSH20 0xFFFFFFFFFFFFFFFFFFFFFFFFFFFFFFFFFFFFFFFF DUP3 AND SWAP1 POP SWAP2 SWAP1 POP JUMP JUMPDEST PUSH1 0x0 DUP2 SWAP1 POP SWAP2 SWAP1 POP JUMP JUMPDEST PUSH1 0x0 JUMPDEST DUP4 DUP2 LT ISZERO PUSH2 0x33E JUMPI DUP1 DUP3 ADD MLOAD DUP2 DUP5 ADD MSTORE PUSH1 0x20 DUP2 ADD SWAP1 POP PUSH2 0x323 JUMP JUMPDEST DUP4 DUP2 GT ISZERO PUSH2 0x34D JUMPI PUSH1 0x0 DUP5 DUP5 ADD MSTORE JUMPDEST POP POP POP POP JUMP JUMPDEST PUSH1 0x0 PUSH1 0x2 DUP3 DIV SWAP1 POP PUSH1 0x1 DUP3 AND DUP1 PUSH2 0x36B JUMPI PUSH1 0x7F DUP3 AND SWAP2 POP JUMPDEST PUSH1 0x20 DUP3 LT DUP2 EQ ISZERO PUSH2 0x37F JUMPI PUSH2 0x37E PUSH2 0x39F JUMP JUMPDEST JUMPDEST POP SWAP2 SWAP1 POP JUMP JUMPDEST PUSH1 0x0 PUSH2 0x398 PUSH2 0x393 DUP4 PUSH2 0x3F2 JUMP JUMPDEST PUSH2 0x2DA JUMP JUMPDEST SWAP1 POP SWAP2 SWAP1 POP JUMP JUMPDEST PUSH32 0x4E487B7100000000000000000000000000000000000000000000000000000000 PUSH1 0x0 MSTORE PUSH1 0x22 PUSH1 0x4 MSTORE PUSH1 0x24 PUSH1 0x0 REVERT JUMPDEST PUSH1 0x0 PUSH2 0x3DA DUP3 SLOAD PUSH2 0x385 JUMP JUMPDEST SWAP1 POP SWAP2 SWAP1 POP JUMP JUMPDEST PUSH1 0x0 PUSH1 0x1F NOT PUSH1 0x1F DUP4 ADD AND SWAP1 POP SWAP2 SWAP1 POP JUMP JUMPDEST PUSH1 0x0 DUP2 PUSH1 0x0 SHR SWAP1 POP SWAP2 SWAP1 POP JUMP INVALID LOG2 PUSH5 0x6970667358 0x22 SLT KECCAK256 DUP14 SHL CODECOPY 0x5E ISZERO SWAP7 PUSH23 0x91E7A3718DDE01280D83A7BBE88779FF10EB079FD836F8 0xE4 0xB0 PUSH5 0x736F6C6343 STOP ADDMOD SMOD STOP CALLER "
				},
				"gasEstimates": {
					"creation": {
						"codeDepositCost": "215400",
						"executionCost": "infinite",
						"totalCost": "infinite"
					},
					"external": {
						"encode()": "infinite"
					}
				},
				"methodIdentifiers": {
					"encode()": "bd14598f"
				}
			},
			"storageLayout": {
				"storage": [
					{
						"astId": 4,
						"contract": "ABI编码.sol:test",
						"label": "x",
						"offset": 0,
						"slot": "0",
						"type": "t_uint256"
					},
					{
						"astId": 7,
						"contract": "ABI编码.sol:test",
						"label": "addr",
						"offset": 0,
						"slot": "1",
						"type": "t_address"
					},
					{
						"astId": 10,
						"contract": "ABI编码.sol:test",
						"label": "name",
						"offset": 0,
						"slot": "2",
						"type": "t_string_storage"
					},
					{
						"astId": 17,
						"contract": "ABI编码.sol:test",
						"label": "array",
						"offset": 0,
						"slot": "3",
						"type": "t_array(t_uint256)2_storage"
					}
				],
				"types": {
					"t_address": {
						"encoding": "inplace",
						"label": "address",
						"numberOfBytes": "20"
					},
					"t_array(t_uint256)2_storage": {
						"base": "t_uint256",
						"encoding": "inplace",
						"label": "uint256[2]",
						"numberOfBytes": "64"
					},
					"t_string_storage": {
						"encoding": "bytes",
						"label": "string",
						"numberOfBytes": "32"
					},
					"t_uint256": {
						"encoding": "inplace",
						"label": "uint256",
						"numberOfBytes": "32"
					}
				}
			},
			"userdoc": {
				"kind": "user",
				"methods": {},
				"version": 1
			}
		}
	}
}