{
	"delegatecall.sol": {
		"A": {
			"abi": [
				{
					"inputs": [
						{
							"internalType": "address",
							"name": "_addr",
							"type": "address"
						},
						{
							"internalType": "uint256",
							"name": "_num",
							"type": "uint256"
						}
					],
					"name": "callSetVars",
					"outputs": [],
					"stateMutability": "payable",
					"type": "function"
				},
				{
					"inputs": [
						{
							"internalType": "address",
							"name": "_addr",
							"type": "address"
						},
						{
							"internalType": "uint256",
							"name": "_num",
							"type": "uint256"
						}
					],
					"name": "delegatecallSetVars",
					"outputs": [],
					"stateMutability": "payable",
					"type": "function"
				}
			],
			"devdoc": {
				"kind": "dev",
				"methods": {},
				"version": 1
			},
			"evm": {
				"assembly": "    /* \"delegatecall.sol\":346:1036  contract A{\r... */\n  mstore(0x40, 0x80)\n  callvalue\n  dup1\n  iszero\n  tag_1\n  jumpi\n  0x00\n  dup1\n  revert\ntag_1:\n  pop\n  dataSize(sub_0)\n  dup1\n  dataOffset(sub_0)\n  0x00\n  codecopy\n  0x00\n  return\nstop\n\nsub_0: assembly {\n        /* \"delegatecall.sol\":346:1036  contract A{\r... */\n      mstore(0x40, 0x80)\n      jumpi(tag_1, lt(calldatasize, 0x04))\n      shr(0xe0, calldataload(0x00))\n      dup1\n      0x1c1cba57\n      eq\n      tag_2\n      jumpi\n      dup1\n      0xb39a9641\n      eq\n      tag_3\n      jumpi\n    tag_1:\n      0x00\n      dup1\n      revert\n        /* \"delegatecall.sol\":779:1033  function delegatecallSetVars(address _addr, uint _num) external payable{\r... */\n    tag_2:\n      tag_4\n      0x04\n      dup1\n      calldatasize\n      sub\n      dup2\n      add\n      swap1\n      tag_5\n      swap2\n      swap1\n      tag_6\n      jump\t// in\n    tag_5:\n      tag_7\n      jump\t// in\n    tag_4:\n      stop\n        /* \"delegatecall.sol\":449:679  function callSetVars(address _addr, uint _num) external payable{\r... */\n    tag_3:\n      tag_8\n      0x04\n      dup1\n      calldatasize\n      sub\n      dup2\n      add\n      swap1\n      tag_9\n      swap2\n      swap1\n      tag_6\n      jump\t// in\n    tag_9:\n      tag_10\n      jump\t// in\n    tag_8:\n      stop\n        /* \"delegatecall.sol\":779:1033  function delegatecallSetVars(address _addr, uint _num) external payable{\r... */\n    tag_7:\n        /* \"delegatecall.sol\":897:909  bool success */\n      0x00\n        /* \"delegatecall.sol\":911:928  bytes memory data */\n      dup1\n        /* \"delegatecall.sol\":932:937  _addr */\n      dup4\n        /* \"delegatecall.sol\":932:950  _addr.delegatecall */\n      0xffffffffffffffffffffffffffffffffffffffff\n      and\n        /* \"delegatecall.sol\":1009:1013  _num */\n      dup4\n        /* \"delegatecall.sol\":965:1014  abi.encodeWithSignature(\"setVars(uint256)\", _num) */\n      add(0x24, mload(0x40))\n      tag_12\n      swap2\n      swap1\n      tag_13\n      jump\t// in\n    tag_12:\n      mload(0x40)\n      0x20\n      dup2\n      dup4\n      sub\n      sub\n      dup2\n      mstore\n      swap1\n      0x40\n      mstore\n      and(not(0xffffffffffffffffffffffffffffffffffffffffffffffffffffffff), 0x6466414b00000000000000000000000000000000000000000000000000000000)\n      0x20\n      dup3\n      add\n      dup1\n      mload\n      0xffffffffffffffffffffffffffffffffffffffffffffffffffffffff\n      dup4\n      dup2\n      dup4\n      and\n      or\n      dup4\n      mstore\n      pop\n      pop\n      pop\n      pop\n        /* \"delegatecall.sol\":932:1025  _addr.delegatecall(\r... */\n      mload(0x40)\n      tag_14\n      swap2\n      swap1\n      tag_15\n      jump\t// in\n    tag_14:\n      0x00\n      mload(0x40)\n      dup1\n      dup4\n      sub\n      dup2\n      dup6\n      gas\n      delegatecall\n      swap2\n      pop\n      pop\n      returndatasize\n      dup1\n      0x00\n      dup2\n      eq\n      tag_18\n      jumpi\n      mload(0x40)\n      swap2\n      pop\n      and(add(returndatasize, 0x3f), not(0x1f))\n      dup3\n      add\n      0x40\n      mstore\n      returndatasize\n      dup3\n      mstore\n      returndatasize\n      0x00\n      0x20\n      dup5\n      add\n      returndatacopy\n      jump(tag_17)\n    tag_18:\n      0x60\n      swap2\n      pop\n    tag_17:\n      pop\n        /* \"delegatecall.sol\":896:1025  (bool success, bytes memory data) = _addr.delegatecall(\r... */\n      swap2\n      pop\n      swap2\n      pop\n        /* \"delegatecall.sol\":850:1033  {\r... */\n      pop\n      pop\n        /* \"delegatecall.sol\":779:1033  function delegatecallSetVars(address _addr, uint _num) external payable{\r... */\n      pop\n      pop\n      jump\t// out\n        /* \"delegatecall.sol\":449:679  function callSetVars(address _addr, uint _num) external payable{\r... */\n    tag_10:\n        /* \"delegatecall.sol\":551:563  bool success */\n      0x00\n        /* \"delegatecall.sol\":565:582  bytes memory data */\n      dup1\n        /* \"delegatecall.sol\":586:591  _addr */\n      dup4\n        /* \"delegatecall.sol\":586:596  _addr.call */\n      0xffffffffffffffffffffffffffffffffffffffff\n      and\n        /* \"delegatecall.sol\":655:659  _num */\n      dup4\n        /* \"delegatecall.sol\":611:660  abi.encodeWithSignature(\"setVars(uint256)\", _num) */\n      add(0x24, mload(0x40))\n      tag_20\n      swap2\n      swap1\n      tag_13\n      jump\t// in\n    tag_20:\n      mload(0x40)\n      0x20\n      dup2\n      dup4\n      sub\n      sub\n      dup2\n      mstore\n      swap1\n      0x40\n      mstore\n      and(not(0xffffffffffffffffffffffffffffffffffffffffffffffffffffffff), 0x6466414b00000000000000000000000000000000000000000000000000000000)\n      0x20\n      dup3\n      add\n      dup1\n      mload\n      0xffffffffffffffffffffffffffffffffffffffffffffffffffffffff\n      dup4\n      dup2\n      dup4\n      and\n      or\n      dup4\n      mstore\n      pop\n      pop\n      pop\n      pop\n        /* \"delegatecall.sol\":586:671  _addr.call(\r... */\n      mload(0x40)\n      tag_21\n      swap2\n      swap1\n      tag_15\n      jump\t// in\n    tag_21:\n      0x00\n      mload(0x40)\n      dup1\n      dup4\n      sub\n      dup2\n      0x00\n      dup7\n      gas\n      call\n      swap2\n      pop\n      pop\n      returndatasize\n      dup1\n      0x00\n      dup2\n      eq\n      tag_24\n      jumpi\n      mload(0x40)\n      swap2\n      pop\n      and(add(returndatasize, 0x3f), not(0x1f))\n      dup3\n      add\n      0x40\n      mstore\n      returndatasize\n      dup3\n      mstore\n      returndatasize\n      0x00\n      0x20\n      dup5\n      add\n      returndatacopy\n      jump(tag_23)\n    tag_24:\n      0x60\n      swap2\n      pop\n    tag_23:\n      pop\n        /* \"delegatecall.sol\":550:671  (bool success, bytes memory data) = _addr.call(\r... */\n      swap2\n      pop\n      swap2\n      pop\n        /* \"delegatecall.sol\":512:679  {\r... */\n      pop\n      pop\n        /* \"delegatecall.sol\":449:679  function callSetVars(address _addr, uint _num) external payable{\r... */\n      pop\n      pop\n      jump\t// out\n        /* \"#utility.yul\":7:146   */\n    tag_26:\n        /* \"#utility.yul\":53:58   */\n      0x00\n        /* \"#utility.yul\":91:97   */\n      dup2\n        /* \"#utility.yul\":78:98   */\n      calldataload\n        /* \"#utility.yul\":69:98   */\n      swap1\n      pop\n        /* \"#utility.yul\":107:140   */\n      tag_28\n        /* \"#utility.yul\":134:139   */\n      dup2\n        /* \"#utility.yul\":107:140   */\n      tag_29\n      jump\t// in\n    tag_28:\n        /* \"#utility.yul\":7:146   */\n      swap3\n      swap2\n      pop\n      pop\n      jump\t// out\n        /* \"#utility.yul\":152:291   */\n    tag_30:\n        /* \"#utility.yul\":198:203   */\n      0x00\n        /* \"#utility.yul\":236:242   */\n      dup2\n        /* \"#utility.yul\":223:243   */\n      calldataload\n        /* \"#utility.yul\":214:243   */\n      swap1\n      pop\n        /* \"#utility.yul\":252:285   */\n      tag_32\n        /* \"#utility.yul\":279:284   */\n      dup2\n        /* \"#utility.yul\":252:285   */\n      tag_33\n      jump\t// in\n    tag_32:\n        /* \"#utility.yul\":152:291   */\n      swap3\n      swap2\n      pop\n      pop\n      jump\t// out\n        /* \"#utility.yul\":297:771   */\n    tag_6:\n        /* \"#utility.yul\":365:371   */\n      0x00\n        /* \"#utility.yul\":373:379   */\n      dup1\n        /* \"#utility.yul\":422:424   */\n      0x40\n        /* \"#utility.yul\":410:419   */\n      dup4\n        /* \"#utility.yul\":401:408   */\n      dup6\n        /* \"#utility.yul\":397:420   */\n      sub\n        /* \"#utility.yul\":393:425   */\n      slt\n        /* \"#utility.yul\":390:509   */\n      iszero\n      tag_35\n      jumpi\n        /* \"#utility.yul\":428:507   */\n      tag_36\n      tag_37\n      jump\t// in\n    tag_36:\n        /* \"#utility.yul\":390:509   */\n    tag_35:\n        /* \"#utility.yul\":548:549   */\n      0x00\n        /* \"#utility.yul\":573:626   */\n      tag_38\n        /* \"#utility.yul\":618:625   */\n      dup6\n        /* \"#utility.yul\":609:615   */\n      dup3\n        /* \"#utility.yul\":598:607   */\n      dup7\n        /* \"#utility.yul\":594:616   */\n      add\n        /* \"#utility.yul\":573:626   */\n      tag_26\n      jump\t// in\n    tag_38:\n        /* \"#utility.yul\":563:626   */\n      swap3\n      pop\n        /* \"#utility.yul\":519:636   */\n      pop\n        /* \"#utility.yul\":675:677   */\n      0x20\n        /* \"#utility.yul\":701:754   */\n      tag_39\n        /* \"#utility.yul\":746:753   */\n      dup6\n        /* \"#utility.yul\":737:743   */\n      dup3\n        /* \"#utility.yul\":726:735   */\n      dup7\n        /* \"#utility.yul\":722:744   */\n      add\n        /* \"#utility.yul\":701:754   */\n      tag_30\n      jump\t// in\n    tag_39:\n        /* \"#utility.yul\":691:754   */\n      swap2\n      pop\n        /* \"#utility.yul\":646:764   */\n      pop\n        /* \"#utility.yul\":297:771   */\n      swap3\n      pop\n      swap3\n      swap1\n      pop\n      jump\t// out\n        /* \"#utility.yul\":777:1150   */\n    tag_40:\n        /* \"#utility.yul\":881:884   */\n      0x00\n        /* \"#utility.yul\":909:947   */\n      tag_42\n        /* \"#utility.yul\":941:946   */\n      dup3\n        /* \"#utility.yul\":909:947   */\n      tag_43\n      jump\t// in\n    tag_42:\n        /* \"#utility.yul\":963:1051   */\n      tag_44\n        /* \"#utility.yul\":1044:1050   */\n      dup2\n        /* \"#utility.yul\":1039:1042   */\n      dup6\n        /* \"#utility.yul\":963:1051   */\n      tag_45\n      jump\t// in\n    tag_44:\n        /* \"#utility.yul\":956:1051   */\n      swap4\n      pop\n        /* \"#utility.yul\":1060:1112   */\n      tag_46\n        /* \"#utility.yul\":1105:1111   */\n      dup2\n        /* \"#utility.yul\":1100:1103   */\n      dup6\n        /* \"#utility.yul\":1093:1097   */\n      0x20\n        /* \"#utility.yul\":1086:1091   */\n      dup7\n        /* \"#utility.yul\":1082:1098   */\n      add\n        /* \"#utility.yul\":1060:1112   */\n      tag_47\n      jump\t// in\n    tag_46:\n        /* \"#utility.yul\":1137:1143   */\n      dup1\n        /* \"#utility.yul\":1132:1135   */\n      dup5\n        /* \"#utility.yul\":1128:1144   */\n      add\n        /* \"#utility.yul\":1121:1144   */\n      swap2\n      pop\n        /* \"#utility.yul\":885:1150   */\n      pop\n        /* \"#utility.yul\":777:1150   */\n      swap3\n      swap2\n      pop\n      pop\n      jump\t// out\n        /* \"#utility.yul\":1156:1274   */\n    tag_48:\n        /* \"#utility.yul\":1243:1267   */\n      tag_50\n        /* \"#utility.yul\":1261:1266   */\n      dup2\n        /* \"#utility.yul\":1243:1267   */\n      tag_51\n      jump\t// in\n    tag_50:\n        /* \"#utility.yul\":1238:1241   */\n      dup3\n        /* \"#utility.yul\":1231:1268   */\n      mstore\n        /* \"#utility.yul\":1156:1274   */\n      pop\n      pop\n      jump\t// out\n        /* \"#utility.yul\":1280:1551   */\n    tag_15:\n        /* \"#utility.yul\":1410:1413   */\n      0x00\n        /* \"#utility.yul\":1432:1525   */\n      tag_53\n        /* \"#utility.yul\":1521:1524   */\n      dup3\n        /* \"#utility.yul\":1512:1518   */\n      dup5\n        /* \"#utility.yul\":1432:1525   */\n      tag_40\n      jump\t// in\n    tag_53:\n        /* \"#utility.yul\":1425:1525   */\n      swap2\n      pop\n        /* \"#utility.yul\":1542:1545   */\n      dup2\n        /* \"#utility.yul\":1535:1545   */\n      swap1\n      pop\n        /* \"#utility.yul\":1280:1551   */\n      swap3\n      swap2\n      pop\n      pop\n      jump\t// out\n        /* \"#utility.yul\":1557:1779   */\n    tag_13:\n        /* \"#utility.yul\":1650:1654   */\n      0x00\n        /* \"#utility.yul\":1688:1690   */\n      0x20\n        /* \"#utility.yul\":1677:1686   */\n      dup3\n        /* \"#utility.yul\":1673:1691   */\n      add\n        /* \"#utility.yul\":1665:1691   */\n      swap1\n      pop\n        /* \"#utility.yul\":1701:1772   */\n      tag_55\n        /* \"#utility.yul\":1769:1770   */\n      0x00\n        /* \"#utility.yul\":1758:1767   */\n      dup4\n        /* \"#utility.yul\":1754:1771   */\n      add\n        /* \"#utility.yul\":1745:1751   */\n      dup5\n        /* \"#utility.yul\":1701:1772   */\n      tag_48\n      jump\t// in\n    tag_55:\n        /* \"#utility.yul\":1557:1779   */\n      swap3\n      swap2\n      pop\n      pop\n      jump\t// out\n        /* \"#utility.yul\":1866:1964   */\n    tag_43:\n        /* \"#utility.yul\":1917:1923   */\n      0x00\n        /* \"#utility.yul\":1951:1956   */\n      dup2\n        /* \"#utility.yul\":1945:1957   */\n      mload\n        /* \"#utility.yul\":1935:1957   */\n      swap1\n      pop\n        /* \"#utility.yul\":1866:1964   */\n      swap2\n      swap1\n      pop\n      jump\t// out\n        /* \"#utility.yul\":1970:2117   */\n    tag_45:\n        /* \"#utility.yul\":2071:2082   */\n      0x00\n        /* \"#utility.yul\":2108:2111   */\n      dup2\n        /* \"#utility.yul\":2093:2111   */\n      swap1\n      pop\n        /* \"#utility.yul\":1970:2117   */\n      swap3\n      swap2\n      pop\n      pop\n      jump\t// out\n        /* \"#utility.yul\":2123:2219   */\n    tag_60:\n        /* \"#utility.yul\":2160:2167   */\n      0x00\n        /* \"#utility.yul\":2189:2213   */\n      tag_62\n        /* \"#utility.yul\":2207:2212   */\n      dup3\n        /* \"#utility.yul\":2189:2213   */\n      tag_63\n      jump\t// in\n    tag_62:\n        /* \"#utility.yul\":2178:2213   */\n      swap1\n      pop\n        /* \"#utility.yul\":2123:2219   */\n      swap2\n      swap1\n      pop\n      jump\t// out\n        /* \"#utility.yul\":2225:2351   */\n    tag_63:\n        /* \"#utility.yul\":2262:2269   */\n      0x00\n        /* \"#utility.yul\":2302:2344   */\n      0xffffffffffffffffffffffffffffffffffffffff\n        /* \"#utility.yul\":2295:2300   */\n      dup3\n        /* \"#utility.yul\":2291:2345   */\n      and\n        /* \"#utility.yul\":2280:2345   */\n      swap1\n      pop\n        /* \"#utility.yul\":2225:2351   */\n      swap2\n      swap1\n      pop\n      jump\t// out\n        /* \"#utility.yul\":2357:2434   */\n    tag_51:\n        /* \"#utility.yul\":2394:2401   */\n      0x00\n        /* \"#utility.yul\":2423:2428   */\n      dup2\n        /* \"#utility.yul\":2412:2428   */\n      swap1\n      pop\n        /* \"#utility.yul\":2357:2434   */\n      swap2\n      swap1\n      pop\n      jump\t// out\n        /* \"#utility.yul\":2440:2747   */\n    tag_47:\n        /* \"#utility.yul\":2508:2509   */\n      0x00\n        /* \"#utility.yul\":2518:2631   */\n    tag_67:\n        /* \"#utility.yul\":2532:2538   */\n      dup4\n        /* \"#utility.yul\":2529:2530   */\n      dup2\n        /* \"#utility.yul\":2526:2539   */\n      lt\n        /* \"#utility.yul\":2518:2631   */\n      iszero\n      tag_69\n      jumpi\n        /* \"#utility.yul\":2617:2618   */\n      dup1\n        /* \"#utility.yul\":2612:2615   */\n      dup3\n        /* \"#utility.yul\":2608:2619   */\n      add\n        /* \"#utility.yul\":2602:2620   */\n      mload\n        /* \"#utility.yul\":2598:2599   */\n      dup2\n        /* \"#utility.yul\":2593:2596   */\n      dup5\n        /* \"#utility.yul\":2589:2600   */\n      add\n        /* \"#utility.yul\":2582:2621   */\n      mstore\n        /* \"#utility.yul\":2554:2556   */\n      0x20\n        /* \"#utility.yul\":2551:2552   */\n      dup2\n        /* \"#utility.yul\":2547:2557   */\n      add\n        /* \"#utility.yul\":2542:2557   */\n      swap1\n      pop\n        /* \"#utility.yul\":2518:2631   */\n      jump(tag_67)\n    tag_69:\n        /* \"#utility.yul\":2649:2655   */\n      dup4\n        /* \"#utility.yul\":2646:2647   */\n      dup2\n        /* \"#utility.yul\":2643:2656   */\n      gt\n        /* \"#utility.yul\":2640:2741   */\n      iszero\n      tag_70\n      jumpi\n        /* \"#utility.yul\":2729:2730   */\n      0x00\n        /* \"#utility.yul\":2720:2726   */\n      dup5\n        /* \"#utility.yul\":2715:2718   */\n      dup5\n        /* \"#utility.yul\":2711:2727   */\n      add\n        /* \"#utility.yul\":2704:2731   */\n      mstore\n        /* \"#utility.yul\":2640:2741   */\n    tag_70:\n        /* \"#utility.yul\":2489:2747   */\n      pop\n        /* \"#utility.yul\":2440:2747   */\n      pop\n      pop\n      pop\n      jump\t// out\n        /* \"#utility.yul\":2876:2993   */\n    tag_37:\n        /* \"#utility.yul\":2985:2986   */\n      0x00\n        /* \"#utility.yul\":2982:2983   */\n      dup1\n        /* \"#utility.yul\":2975:2987   */\n      revert\n        /* \"#utility.yul\":2999:3121   */\n    tag_29:\n        /* \"#utility.yul\":3072:3096   */\n      tag_75\n        /* \"#utility.yul\":3090:3095   */\n      dup2\n        /* \"#utility.yul\":3072:3096   */\n      tag_60\n      jump\t// in\n    tag_75:\n        /* \"#utility.yul\":3065:3070   */\n      dup2\n        /* \"#utility.yul\":3062:3097   */\n      eq\n        /* \"#utility.yul\":3052:3115   */\n      tag_76\n      jumpi\n        /* \"#utility.yul\":3111:3112   */\n      0x00\n        /* \"#utility.yul\":3108:3109   */\n      dup1\n        /* \"#utility.yul\":3101:3113   */\n      revert\n        /* \"#utility.yul\":3052:3115   */\n    tag_76:\n        /* \"#utility.yul\":2999:3121   */\n      pop\n      jump\t// out\n        /* \"#utility.yul\":3127:3249   */\n    tag_33:\n        /* \"#utility.yul\":3200:3224   */\n      tag_78\n        /* \"#utility.yul\":3218:3223   */\n      dup2\n        /* \"#utility.yul\":3200:3224   */\n      tag_51\n      jump\t// in\n    tag_78:\n        /* \"#utility.yul\":3193:3198   */\n      dup2\n        /* \"#utility.yul\":3190:3225   */\n      eq\n        /* \"#utility.yul\":3180:3243   */\n      tag_79\n      jumpi\n        /* \"#utility.yul\":3239:3240   */\n      0x00\n        /* \"#utility.yul\":3236:3237   */\n      dup1\n        /* \"#utility.yul\":3229:3241   */\n      revert\n        /* \"#utility.yul\":3180:3243   */\n    tag_79:\n        /* \"#utility.yul\":3127:3249   */\n      pop\n      jump\t// out\n\n    auxdata: 0xa2646970667358221220e086d542c86b5a7ce991119586e9e3c17aa2df5b8c4ea6d8cbb36b367d3af0e764736f6c63430008070033\n}\n",
				"bytecode": {
					"linkReferences": {},
					"object": "608060405234801561001057600080fd5b50610432806100206000396000f3fe6080604052600436106100295760003560e01c80631c1cba571461002e578063b39a96411461004a575b600080fd5b61004860048036038101906100439190610292565b610066565b005b610064600480360381019061005f9190610292565b610166565b005b6000808373ffffffffffffffffffffffffffffffffffffffff16836040516024016100919190610329565b6040516020818303038152906040527f6466414b000000000000000000000000000000000000000000000000000000007bffffffffffffffffffffffffffffffffffffffffffffffffffffffff19166020820180517bffffffffffffffffffffffffffffffffffffffffffffffffffffffff838183161783525050505060405161011b9190610312565b600060405180830381855af49150503d8060008114610156576040519150601f19603f3d011682016040523d82523d6000602084013e61015b565b606091505b509150915050505050565b6000808373ffffffffffffffffffffffffffffffffffffffff16836040516024016101919190610329565b6040516020818303038152906040527f6466414b000000000000000000000000000000000000000000000000000000007bffffffffffffffffffffffffffffffffffffffffffffffffffffffff19166020820180517bffffffffffffffffffffffffffffffffffffffffffffffffffffffff838183161783525050505060405161021b9190610312565b6000604051808303816000865af19150503d8060008114610258576040519150601f19603f3d011682016040523d82523d6000602084013e61025d565b606091505b509150915050505050565b600081359050610277816103ce565b92915050565b60008135905061028c816103e5565b92915050565b600080604083850312156102a9576102a86103c9565b5b60006102b785828601610268565b92505060206102c88582860161027d565b9150509250929050565b60006102dd82610344565b6102e7818561034f565b93506102f7818560208601610396565b80840191505092915050565b61030c8161038c565b82525050565b600061031e82846102d2565b915081905092915050565b600060208201905061033e6000830184610303565b92915050565b600081519050919050565b600081905092915050565b60006103658261036c565b9050919050565b600073ffffffffffffffffffffffffffffffffffffffff82169050919050565b6000819050919050565b60005b838110156103b4578082015181840152602081019050610399565b838111156103c3576000848401525b50505050565b600080fd5b6103d78161035a565b81146103e257600080fd5b50565b6103ee8161038c565b81146103f957600080fd5b5056fea2646970667358221220e086d542c86b5a7ce991119586e9e3c17aa2df5b8c4ea6d8cbb36b367d3af0e764736f6c63430008070033",
					"opcodes": "PUSH1 0x80 PUSH1 0x40 MSTORE CALLVALUE DUP1 ISZERO PUSH2 0x10 JUMPI PUSH1 0x0 DUP1 REVERT JUMPDEST POP PUSH2 0x432 DUP1 PUSH2 0x20 PUSH1 0x0 CODECOPY PUSH1 0x0 RETURN INVALID PUSH1 0x80 PUSH1 0x40 MSTORE PUSH1 0x4 CALLDATASIZE LT PUSH2 0x29 JUMPI PUSH1 0x0 CALLDATALOAD PUSH1 0xE0 SHR DUP1 PUSH4 0x1C1CBA57 EQ PUSH2 0x2E JUMPI DUP1 PUSH4 0xB39A9641 EQ PUSH2 0x4A JUMPI JUMPDEST PUSH1 0x0 DUP1 REVERT JUMPDEST PUSH2 0x48 PUSH1 0x4 DUP1 CALLDATASIZE SUB DUP2 ADD SWAP1 PUSH2 0x43 SWAP2 SWAP1 PUSH2 0x292 JUMP JUMPDEST PUSH2 0x66 JUMP JUMPDEST STOP JUMPDEST PUSH2 0x64 PUSH1 0x4 DUP1 CALLDATASIZE SUB DUP2 ADD SWAP1 PUSH2 0x5F SWAP2 SWAP1 PUSH2 0x292 JUMP JUMPDEST PUSH2 0x166 JUMP JUMPDEST STOP JUMPDEST PUSH1 0x0 DUP1 DUP4 PUSH20 0xFFFFFFFFFFFFFFFFFFFFFFFFFFFFFFFFFFFFFFFF AND DUP4 PUSH1 0x40 MLOAD PUSH1 0x24 ADD PUSH2 0x91 SWAP2 SWAP1 PUSH2 0x329 JUMP JUMPDEST PUSH1 0x40 MLOAD PUSH1 0x20 DUP2 DUP4 SUB SUB DUP2 MSTORE SWAP1 PUSH1 0x40 MSTORE PUSH32 0x6466414B00000000000000000000000000000000000000000000000000000000 PUSH28 0xFFFFFFFFFFFFFFFFFFFFFFFFFFFFFFFFFFFFFFFFFFFFFFFFFFFFFFFF NOT AND PUSH1 0x20 DUP3 ADD DUP1 MLOAD PUSH28 0xFFFFFFFFFFFFFFFFFFFFFFFFFFFFFFFFFFFFFFFFFFFFFFFFFFFFFFFF DUP4 DUP2 DUP4 AND OR DUP4 MSTORE POP POP POP POP PUSH1 0x40 MLOAD PUSH2 0x11B SWAP2 SWAP1 PUSH2 0x312 JUMP JUMPDEST PUSH1 0x0 PUSH1 0x40 MLOAD DUP1 DUP4 SUB DUP2 DUP6 GAS DELEGATECALL SWAP2 POP POP RETURNDATASIZE DUP1 PUSH1 0x0 DUP2 EQ PUSH2 0x156 JUMPI PUSH1 0x40 MLOAD SWAP2 POP PUSH1 0x1F NOT PUSH1 0x3F RETURNDATASIZE ADD AND DUP3 ADD PUSH1 0x40 MSTORE RETURNDATASIZE DUP3 MSTORE RETURNDATASIZE PUSH1 0x0 PUSH1 0x20 DUP5 ADD RETURNDATACOPY PUSH2 0x15B JUMP JUMPDEST PUSH1 0x60 SWAP2 POP JUMPDEST POP SWAP2 POP SWAP2 POP POP POP POP POP JUMP JUMPDEST PUSH1 0x0 DUP1 DUP4 PUSH20 0xFFFFFFFFFFFFFFFFFFFFFFFFFFFFFFFFFFFFFFFF AND DUP4 PUSH1 0x40 MLOAD PUSH1 0x24 ADD PUSH2 0x191 SWAP2 SWAP1 PUSH2 0x329 JUMP JUMPDEST PUSH1 0x40 MLOAD PUSH1 0x20 DUP2 DUP4 SUB SUB DUP2 MSTORE SWAP1 PUSH1 0x40 MSTORE PUSH32 0x6466414B00000000000000000000000000000000000000000000000000000000 PUSH28 0xFFFFFFFFFFFFFFFFFFFFFFFFFFFFFFFFFFFFFFFFFFFFFFFFFFFFFFFF NOT AND PUSH1 0x20 DUP3 ADD DUP1 MLOAD PUSH28 0xFFFFFFFFFFFFFFFFFFFFFFFFFFFFFFFFFFFFFFFFFFFFFFFFFFFFFFFF DUP4 DUP2 DUP4 AND OR DUP4 MSTORE POP POP POP POP PUSH1 0x40 MLOAD PUSH2 0x21B SWAP2 SWAP1 PUSH2 0x312 JUMP JUMPDEST PUSH1 0x0 PUSH1 0x40 MLOAD DUP1 DUP4 SUB DUP2 PUSH1 0x0 DUP7 GAS CALL SWAP2 POP POP RETURNDATASIZE DUP1 PUSH1 0x0 DUP2 EQ PUSH2 0x258 JUMPI PUSH1 0x40 MLOAD SWAP2 POP PUSH1 0x1F NOT PUSH1 0x3F RETURNDATASIZE ADD AND DUP3 ADD PUSH1 0x40 MSTORE RETURNDATASIZE DUP3 MSTORE RETURNDATASIZE PUSH1 0x0 PUSH1 0x20 DUP5 ADD RETURNDATACOPY PUSH2 0x25D JUMP JUMPDEST PUSH1 0x60 SWAP2 POP JUMPDEST POP SWAP2 POP SWAP2 POP POP POP POP POP JUMP JUMPDEST PUSH1 0x0 DUP2 CALLDATALOAD SWAP1 POP PUSH2 0x277 DUP2 PUSH2 0x3CE JUMP JUMPDEST SWAP3 SWAP2 POP POP JUMP JUMPDEST PUSH1 0x0 DUP2 CALLDATALOAD SWAP1 POP PUSH2 0x28C DUP2 PUSH2 0x3E5 JUMP JUMPDEST SWAP3 SWAP2 POP POP JUMP JUMPDEST PUSH1 0x0 DUP1 PUSH1 0x40 DUP4 DUP6 SUB SLT ISZERO PUSH2 0x2A9 JUMPI PUSH2 0x2A8 PUSH2 0x3C9 JUMP JUMPDEST JUMPDEST PUSH1 0x0 PUSH2 0x2B7 DUP6 DUP3 DUP7 ADD PUSH2 0x268 JUMP JUMPDEST SWAP3 POP POP PUSH1 0x20 PUSH2 0x2C8 DUP6 DUP3 DUP7 ADD PUSH2 0x27D JUMP JUMPDEST SWAP2 POP POP SWAP3 POP SWAP3 SWAP1 POP JUMP JUMPDEST PUSH1 0x0 PUSH2 0x2DD DUP3 PUSH2 0x344 JUMP JUMPDEST PUSH2 0x2E7 DUP2 DUP6 PUSH2 0x34F JUMP JUMPDEST SWAP4 POP PUSH2 0x2F7 DUP2 DUP6 PUSH1 0x20 DUP7 ADD PUSH2 0x396 JUMP JUMPDEST DUP1 DUP5 ADD SWAP2 POP POP SWAP3 SWAP2 POP POP JUMP JUMPDEST PUSH2 0x30C DUP2 PUSH2 0x38C JUMP JUMPDEST DUP3 MSTORE POP POP JUMP JUMPDEST PUSH1 0x0 PUSH2 0x31E DUP3 DUP5 PUSH2 0x2D2 JUMP JUMPDEST SWAP2 POP DUP2 SWAP1 POP SWAP3 SWAP2 POP POP JUMP JUMPDEST PUSH1 0x0 PUSH1 0x20 DUP3 ADD SWAP1 POP PUSH2 0x33E PUSH1 0x0 DUP4 ADD DUP5 PUSH2 0x303 JUMP JUMPDEST SWAP3 SWAP2 POP POP JUMP JUMPDEST PUSH1 0x0 DUP2 MLOAD SWAP1 POP SWAP2 SWAP1 POP JUMP JUMPDEST PUSH1 0x0 DUP2 SWAP1 POP SWAP3 SWAP2 POP POP JUMP JUMPDEST PUSH1 0x0 PUSH2 0x365 DUP3 PUSH2 0x36C JUMP JUMPDEST SWAP1 POP SWAP2 SWAP1 POP JUMP JUMPDEST PUSH1 0x0 PUSH20 0xFFFFFFFFFFFFFFFFFFFFFFFFFFFFFFFFFFFFFFFF DUP3 AND SWAP1 POP SWAP2 SWAP1 POP JUMP JUMPDEST PUSH1 0x0 DUP2 SWAP1 POP SWAP2 SWAP1 POP JUMP JUMPDEST PUSH1 0x0 JUMPDEST DUP4 DUP2 LT ISZERO PUSH2 0x3B4 JUMPI DUP1 DUP3 ADD MLOAD DUP2 DUP5 ADD MSTORE PUSH1 0x20 DUP2 ADD SWAP1 POP PUSH2 0x399 JUMP JUMPDEST DUP4 DUP2 GT ISZERO PUSH2 0x3C3 JUMPI PUSH1 0x0 DUP5 DUP5 ADD MSTORE JUMPDEST POP POP POP POP JUMP JUMPDEST PUSH1 0x0 DUP1 REVERT JUMPDEST PUSH2 0x3D7 DUP2 PUSH2 0x35A JUMP JUMPDEST DUP2 EQ PUSH2 0x3E2 JUMPI PUSH1 0x0 DUP1 REVERT JUMPDEST POP JUMP JUMPDEST PUSH2 0x3EE DUP2 PUSH2 0x38C JUMP JUMPDEST DUP2 EQ PUSH2 0x3F9 JUMPI PUSH1 0x0 DUP1 REVERT JUMPDEST POP JUMP INVALID LOG2 PUSH5 0x6970667358 0x22 SLT KECCAK256 0xE0 DUP7 0xD5 TIMESTAMP 0xC8 PUSH12 0x5A7CE991119586E9E3C17AA2 0xDF JUMPDEST DUP13 0x4E 0xA6 0xD8 0xCB 0xB3 PUSH12 0x367D3AF0E764736F6C634300 ADDMOD SMOD STOP CALLER "
				},
				"gasEstimates": {
					"creation": {
						"codeDepositCost": "214800",
						"executionCost": "257",
						"totalCost": "215057"
					},
					"external": {
						"callSetVars(address,uint256)": "infinite",
						"delegatecallSetVars(address,uint256)": "infinite"
					}
				},
				"methodIdentifiers": {
					"callSetVars(address,uint256)": "b39a9641",
					"delegatecallSetVars(address,uint256)": "1c1cba57"
				}
			},
			"storageLayout": {
				"storage": [],
				"types": null
			},
			"userdoc": {
				"kind": "user",
				"methods": {},
				"version": 1
			}
		}
	}
}