{
	"hash.sol": {
		"test": {
			"abi": [
				{
					"inputs": [
						{
							"internalType": "uint256",
							"name": "_num",
							"type": "uint256"
						},
						{
							"internalType": "string",
							"name": "_string",
							"type": "string"
						},
						{
							"internalType": "address",
							"name": "_addr",
							"type": "address"
						}
					],
					"name": "hash",
					"outputs": [
						{
							"internalType": "bytes32",
							"name": "",
							"type": "bytes32"
						}
					],
					"stateMutability": "pure",
					"type": "function"
				},
				{
					"inputs": [
						{
							"internalType": "string",
							"name": "string1",
							"type": "string"
						},
						{
							"internalType": "string",
							"name": "string2",
							"type": "string"
						}
					],
					"name": "strong",
					"outputs": [
						{
							"internalType": "bool",
							"name": "",
							"type": "bool"
						}
					],
					"stateMutability": "pure",
					"type": "function"
				},
				{
					"inputs": [
						{
							"internalType": "string",
							"name": "string1",
							"type": "string"
						}
					],
					"name": "weak",
					"outputs": [
						{
							"internalType": "bool",
							"name": "",
							"type": "bool"
						}
					],
					"stateMutability": "view",
					"type": "function"
				}
			],
			"devdoc": {
				"kind": "dev",
				"methods": {},
				"version": 1
			},
			"evm": {
				"assembly": "    /* \"hash.sol\":72:782  contract test{\r... */\n  mstore(0x40, 0x80)\n    /* \"hash.sol\":117:141  abi.encodePacked('0xAA') */\n  add(0x20, mload(0x40))\n  tag_1\n  swap1\n  tag_2\n  jump\t// in\ntag_1:\n  mload(0x40)\n  0x20\n  dup2\n  dup4\n  sub\n  sub\n  dup2\n  mstore\n  swap1\n  0x40\n  mstore\n    /* \"hash.sol\":107:142  keccak256(abi.encodePacked('0xAA')) */\n  dup1\n  mload\n  swap1\n  0x20\n  add\n  keccak256\n    /* \"hash.sol\":92:142  bytes32 _msg = keccak256(abi.encodePacked('0xAA')) */\n  0x00\n  sstore\n    /* \"hash.sol\":72:782  contract test{\r... */\n  callvalue\n  dup1\n  iszero\n  tag_3\n  jumpi\n  0x00\n  dup1\n  revert\ntag_3:\n  pop\n  jump(tag_4)\n    /* \"#utility.yul\":7:407   */\ntag_6:\n    /* \"#utility.yul\":167:170   */\n  0x00\n    /* \"#utility.yul\":188:272   */\n  tag_8\n    /* \"#utility.yul\":270:271   */\n  0x04\n    /* \"#utility.yul\":265:268   */\n  dup4\n    /* \"#utility.yul\":188:272   */\n  tag_9\n  jump\t// in\ntag_8:\n    /* \"#utility.yul\":181:272   */\n  swap2\n  pop\n    /* \"#utility.yul\":281:374   */\n  tag_10\n    /* \"#utility.yul\":370:373   */\n  dup3\n    /* \"#utility.yul\":281:374   */\n  tag_11\n  jump\t// in\ntag_10:\n    /* \"#utility.yul\":399:400   */\n  0x04\n    /* \"#utility.yul\":394:397   */\n  dup3\n    /* \"#utility.yul\":390:401   */\n  add\n    /* \"#utility.yul\":383:401   */\n  swap1\n  pop\n    /* \"#utility.yul\":7:407   */\n  swap2\n  swap1\n  pop\n  jump\t// out\n    /* \"#utility.yul\":413:794   */\ntag_2:\n    /* \"#utility.yul\":598:601   */\n  0x00\n    /* \"#utility.yul\":620:768   */\n  tag_13\n    /* \"#utility.yul\":764:767   */\n  dup3\n    /* \"#utility.yul\":620:768   */\n  tag_6\n  jump\t// in\ntag_13:\n    /* \"#utility.yul\":613:768   */\n  swap2\n  pop\n    /* \"#utility.yul\":785:788   */\n  dup2\n    /* \"#utility.yul\":778:788   */\n  swap1\n  pop\n    /* \"#utility.yul\":413:794   */\n  swap2\n  swap1\n  pop\n  jump\t// out\n    /* \"#utility.yul\":800:948   */\ntag_9:\n    /* \"#utility.yul\":902:913   */\n  0x00\n    /* \"#utility.yul\":939:942   */\n  dup2\n    /* \"#utility.yul\":924:942   */\n  swap1\n  pop\n    /* \"#utility.yul\":800:948   */\n  swap3\n  swap2\n  pop\n  pop\n  jump\t// out\n    /* \"#utility.yul\":954:1108   */\ntag_11:\n    /* \"#utility.yul\":1094:1100   */\n  0x3078414100000000000000000000000000000000000000000000000000000000\n    /* \"#utility.yul\":1090:1091   */\n  0x00\n    /* \"#utility.yul\":1082:1088   */\n  dup3\n    /* \"#utility.yul\":1078:1092   */\n  add\n    /* \"#utility.yul\":1071:1101   */\n  mstore\n    /* \"#utility.yul\":954:1108   */\n  pop\n  jump\t// out\n    /* \"hash.sol\":72:782  contract test{\r... */\ntag_4:\n  dataSize(sub_0)\n  dup1\n  dataOffset(sub_0)\n  0x00\n  codecopy\n  0x00\n  return\nstop\n\nsub_0: assembly {\n        /* \"hash.sol\":72:782  contract test{\r... */\n      mstore(0x40, 0x80)\n      callvalue\n      dup1\n      iszero\n      tag_1\n      jumpi\n      0x00\n      dup1\n      revert\n    tag_1:\n      pop\n      jumpi(tag_2, lt(calldatasize, 0x04))\n      shr(0xe0, calldataload(0x00))\n      dup1\n      0x10be181c\n      eq\n      tag_3\n      jumpi\n      dup1\n      0x4f6b068d\n      eq\n      tag_4\n      jumpi\n      dup1\n      0xd6abfc7b\n      eq\n      tag_5\n      jumpi\n    tag_2:\n      0x00\n      dup1\n      revert\n        /* \"hash.sol\":565:779  function strong(\r... */\n    tag_3:\n      tag_6\n      0x04\n      dup1\n      calldatasize\n      sub\n      dup2\n      add\n      swap1\n      tag_7\n      swap2\n      swap1\n      tag_8\n      jump\t// in\n    tag_7:\n      tag_9\n      jump\t// in\n    tag_6:\n      mload(0x40)\n      tag_10\n      swap2\n      swap1\n      tag_11\n      jump\t// in\n    tag_10:\n      mload(0x40)\n      dup1\n      swap2\n      sub\n      swap1\n      return\n        /* \"hash.sol\":151:353  function hash(\r... */\n    tag_4:\n      tag_12\n      0x04\n      dup1\n      calldatasize\n      sub\n      dup2\n      add\n      swap1\n      tag_13\n      swap2\n      swap1\n      tag_14\n      jump\t// in\n    tag_13:\n      tag_15\n      jump\t// in\n    tag_12:\n      mload(0x40)\n      tag_16\n      swap2\n      swap1\n      tag_17\n      jump\t// in\n    tag_16:\n      mload(0x40)\n      dup1\n      swap2\n      sub\n      swap1\n      return\n        /* \"hash.sol\":385:533  function weak(\r... */\n    tag_5:\n      tag_18\n      0x04\n      dup1\n      calldatasize\n      sub\n      dup2\n      add\n      swap1\n      tag_19\n      swap2\n      swap1\n      tag_20\n      jump\t// in\n    tag_19:\n      tag_21\n      jump\t// in\n    tag_18:\n      mload(0x40)\n      tag_22\n      swap2\n      swap1\n      tag_11\n      jump\t// in\n    tag_22:\n      mload(0x40)\n      dup1\n      swap2\n      sub\n      swap1\n      return\n        /* \"hash.sol\":565:779  function strong(\r... */\n    tag_9:\n        /* \"hash.sol\":672:676  bool */\n      0x00\n        /* \"hash.sol\":762:769  string2 */\n      dup2\n        /* \"hash.sol\":745:770  abi.encodePacked(string2) */\n      add(0x20, mload(0x40))\n      tag_24\n      swap2\n      swap1\n      tag_25\n      jump\t// in\n    tag_24:\n      mload(0x40)\n      0x20\n      dup2\n      dup4\n      sub\n      sub\n      dup2\n      mstore\n      swap1\n      0x40\n      mstore\n        /* \"hash.sol\":735:771  keccak256(abi.encodePacked(string2)) */\n      dup1\n      mload\n      swap1\n      0x20\n      add\n      keccak256\n        /* \"hash.sol\":722:729  string1 */\n      dup4\n        /* \"hash.sol\":705:730  abi.encodePacked(string1) */\n      add(0x20, mload(0x40))\n      tag_26\n      swap2\n      swap1\n      tag_25\n      jump\t// in\n    tag_26:\n      mload(0x40)\n      0x20\n      dup2\n      dup4\n      sub\n      sub\n      dup2\n      mstore\n      swap1\n      0x40\n      mstore\n        /* \"hash.sol\":695:731  keccak256(abi.encodePacked(string1)) */\n      dup1\n      mload\n      swap1\n      0x20\n      add\n      keccak256\n        /* \"hash.sol\":695:771  keccak256(abi.encodePacked(string1)) == keccak256(abi.encodePacked(string2)) */\n      eq\n        /* \"hash.sol\":688:771  return keccak256(abi.encodePacked(string1)) == keccak256(abi.encodePacked(string2)) */\n      swap1\n      pop\n        /* \"hash.sol\":565:779  function strong(\r... */\n      swap3\n      swap2\n      pop\n      pop\n      jump\t// out\n        /* \"hash.sol\":151:353  function hash(\r... */\n    tag_15:\n        /* \"hash.sol\":269:276  bytes32 */\n      0x00\n        /* \"hash.sol\":323:327  _num */\n      dup4\n        /* \"hash.sol\":329:336  _string */\n      dup4\n        /* \"hash.sol\":338:343  _addr */\n      dup4\n        /* \"hash.sol\":306:344  abi.encodePacked(_num, _string, _addr) */\n      add(0x20, mload(0x40))\n      tag_28\n      swap4\n      swap3\n      swap2\n      swap1\n      tag_29\n      jump\t// in\n    tag_28:\n      mload(0x40)\n      0x20\n      dup2\n      dup4\n      sub\n      sub\n      dup2\n      mstore\n      swap1\n      0x40\n      mstore\n        /* \"hash.sol\":296:345  keccak256(abi.encodePacked(_num, _string, _addr)) */\n      dup1\n      mload\n      swap1\n      0x20\n      add\n      keccak256\n        /* \"hash.sol\":289:345  return keccak256(abi.encodePacked(_num, _string, _addr)) */\n      swap1\n      pop\n        /* \"hash.sol\":151:353  function hash(\r... */\n      swap4\n      swap3\n      pop\n      pop\n      pop\n      jump\t// out\n        /* \"hash.sol\":385:533  function weak(\r... */\n    tag_21:\n        /* \"hash.sol\":458:462  bool */\n      0x00\n        /* \"hash.sol\":521:525  _msg */\n      dup1\n      sload\n        /* \"hash.sol\":508:515  string1 */\n      dup3\n        /* \"hash.sol\":491:516  abi.encodePacked(string1) */\n      add(0x20, mload(0x40))\n      tag_31\n      swap2\n      swap1\n      tag_25\n      jump\t// in\n    tag_31:\n      mload(0x40)\n      0x20\n      dup2\n      dup4\n      sub\n      sub\n      dup2\n      mstore\n      swap1\n      0x40\n      mstore\n        /* \"hash.sol\":481:517  keccak256(abi.encodePacked(string1)) */\n      dup1\n      mload\n      swap1\n      0x20\n      add\n      keccak256\n        /* \"hash.sol\":481:525  keccak256(abi.encodePacked(string1)) == _msg */\n      eq\n        /* \"hash.sol\":474:525  return keccak256(abi.encodePacked(string1)) == _msg */\n      swap1\n      pop\n        /* \"hash.sol\":385:533  function weak(\r... */\n      swap2\n      swap1\n      pop\n      jump\t// out\n        /* \"#utility.yul\":7:419   */\n    tag_33:\n        /* \"#utility.yul\":85:90   */\n      0x00\n        /* \"#utility.yul\":110:176   */\n      tag_35\n        /* \"#utility.yul\":126:175   */\n      tag_36\n        /* \"#utility.yul\":168:174   */\n      dup5\n        /* \"#utility.yul\":126:175   */\n      tag_37\n      jump\t// in\n    tag_36:\n        /* \"#utility.yul\":110:176   */\n      tag_38\n      jump\t// in\n    tag_35:\n        /* \"#utility.yul\":101:176   */\n      swap1\n      pop\n        /* \"#utility.yul\":199:205   */\n      dup3\n        /* \"#utility.yul\":192:197   */\n      dup2\n        /* \"#utility.yul\":185:206   */\n      mstore\n        /* \"#utility.yul\":237:241   */\n      0x20\n        /* \"#utility.yul\":230:235   */\n      dup2\n        /* \"#utility.yul\":226:242   */\n      add\n        /* \"#utility.yul\":275:278   */\n      dup5\n        /* \"#utility.yul\":266:272   */\n      dup5\n        /* \"#utility.yul\":261:264   */\n      dup5\n        /* \"#utility.yul\":257:273   */\n      add\n        /* \"#utility.yul\":254:279   */\n      gt\n        /* \"#utility.yul\":251:363   */\n      iszero\n      tag_39\n      jumpi\n        /* \"#utility.yul\":282:361   */\n      tag_40\n      tag_41\n      jump\t// in\n    tag_40:\n        /* \"#utility.yul\":251:363   */\n    tag_39:\n        /* \"#utility.yul\":372:413   */\n      tag_42\n        /* \"#utility.yul\":406:412   */\n      dup5\n        /* \"#utility.yul\":401:404   */\n      dup3\n        /* \"#utility.yul\":396:399   */\n      dup6\n        /* \"#utility.yul\":372:413   */\n      tag_43\n      jump\t// in\n    tag_42:\n        /* \"#utility.yul\":91:419   */\n      pop\n        /* \"#utility.yul\":7:419   */\n      swap4\n      swap3\n      pop\n      pop\n      pop\n      jump\t// out\n        /* \"#utility.yul\":425:564   */\n    tag_44:\n        /* \"#utility.yul\":471:476   */\n      0x00\n        /* \"#utility.yul\":509:515   */\n      dup2\n        /* \"#utility.yul\":496:516   */\n      calldataload\n        /* \"#utility.yul\":487:516   */\n      swap1\n      pop\n        /* \"#utility.yul\":525:558   */\n      tag_46\n        /* \"#utility.yul\":552:557   */\n      dup2\n        /* \"#utility.yul\":525:558   */\n      tag_47\n      jump\t// in\n    tag_46:\n        /* \"#utility.yul\":425:564   */\n      swap3\n      swap2\n      pop\n      pop\n      jump\t// out\n        /* \"#utility.yul\":584:924   */\n    tag_48:\n        /* \"#utility.yul\":640:645   */\n      0x00\n        /* \"#utility.yul\":689:692   */\n      dup3\n        /* \"#utility.yul\":682:686   */\n      0x1f\n        /* \"#utility.yul\":674:680   */\n      dup4\n        /* \"#utility.yul\":670:687   */\n      add\n        /* \"#utility.yul\":666:693   */\n      slt\n        /* \"#utility.yul\":656:778   */\n      tag_50\n      jumpi\n        /* \"#utility.yul\":697:776   */\n      tag_51\n      tag_52\n      jump\t// in\n    tag_51:\n        /* \"#utility.yul\":656:778   */\n    tag_50:\n        /* \"#utility.yul\":814:820   */\n      dup2\n        /* \"#utility.yul\":801:821   */\n      calldataload\n        /* \"#utility.yul\":839:918   */\n      tag_53\n        /* \"#utility.yul\":914:917   */\n      dup5\n        /* \"#utility.yul\":906:912   */\n      dup3\n        /* \"#utility.yul\":899:903   */\n      0x20\n        /* \"#utility.yul\":891:897   */\n      dup7\n        /* \"#utility.yul\":887:904   */\n      add\n        /* \"#utility.yul\":839:918   */\n      tag_33\n      jump\t// in\n    tag_53:\n        /* \"#utility.yul\":830:918   */\n      swap2\n      pop\n        /* \"#utility.yul\":646:924   */\n      pop\n        /* \"#utility.yul\":584:924   */\n      swap3\n      swap2\n      pop\n      pop\n      jump\t// out\n        /* \"#utility.yul\":930:1069   */\n    tag_54:\n        /* \"#utility.yul\":976:981   */\n      0x00\n        /* \"#utility.yul\":1014:1020   */\n      dup2\n        /* \"#utility.yul\":1001:1021   */\n      calldataload\n        /* \"#utility.yul\":992:1021   */\n      swap1\n      pop\n        /* \"#utility.yul\":1030:1063   */\n      tag_56\n        /* \"#utility.yul\":1057:1062   */\n      dup2\n        /* \"#utility.yul\":1030:1063   */\n      tag_57\n      jump\t// in\n    tag_56:\n        /* \"#utility.yul\":930:1069   */\n      swap3\n      swap2\n      pop\n      pop\n      jump\t// out\n        /* \"#utility.yul\":1075:1584   */\n    tag_20:\n        /* \"#utility.yul\":1144:1150   */\n      0x00\n        /* \"#utility.yul\":1193:1195   */\n      0x20\n        /* \"#utility.yul\":1181:1190   */\n      dup3\n        /* \"#utility.yul\":1172:1179   */\n      dup5\n        /* \"#utility.yul\":1168:1191   */\n      sub\n        /* \"#utility.yul\":1164:1196   */\n      slt\n        /* \"#utility.yul\":1161:1280   */\n      iszero\n      tag_59\n      jumpi\n        /* \"#utility.yul\":1199:1278   */\n      tag_60\n      tag_61\n      jump\t// in\n    tag_60:\n        /* \"#utility.yul\":1161:1280   */\n    tag_59:\n        /* \"#utility.yul\":1347:1348   */\n      0x00\n        /* \"#utility.yul\":1336:1345   */\n      dup3\n        /* \"#utility.yul\":1332:1349   */\n      add\n        /* \"#utility.yul\":1319:1350   */\n      calldataload\n        /* \"#utility.yul\":1377:1395   */\n      0xffffffffffffffff\n        /* \"#utility.yul\":1369:1375   */\n      dup2\n        /* \"#utility.yul\":1366:1396   */\n      gt\n        /* \"#utility.yul\":1363:1480   */\n      iszero\n      tag_62\n      jumpi\n        /* \"#utility.yul\":1399:1478   */\n      tag_63\n      tag_64\n      jump\t// in\n    tag_63:\n        /* \"#utility.yul\":1363:1480   */\n    tag_62:\n        /* \"#utility.yul\":1504:1567   */\n      tag_65\n        /* \"#utility.yul\":1559:1566   */\n      dup5\n        /* \"#utility.yul\":1550:1556   */\n      dup3\n        /* \"#utility.yul\":1539:1548   */\n      dup6\n        /* \"#utility.yul\":1535:1557   */\n      add\n        /* \"#utility.yul\":1504:1567   */\n      tag_48\n      jump\t// in\n    tag_65:\n        /* \"#utility.yul\":1494:1567   */\n      swap2\n      pop\n        /* \"#utility.yul\":1290:1577   */\n      pop\n        /* \"#utility.yul\":1075:1584   */\n      swap3\n      swap2\n      pop\n      pop\n      jump\t// out\n        /* \"#utility.yul\":1590:2424   */\n    tag_8:\n        /* \"#utility.yul\":1678:1684   */\n      0x00\n        /* \"#utility.yul\":1686:1692   */\n      dup1\n        /* \"#utility.yul\":1735:1737   */\n      0x40\n        /* \"#utility.yul\":1723:1732   */\n      dup4\n        /* \"#utility.yul\":1714:1721   */\n      dup6\n        /* \"#utility.yul\":1710:1733   */\n      sub\n        /* \"#utility.yul\":1706:1738   */\n      slt\n        /* \"#utility.yul\":1703:1822   */\n      iszero\n      tag_67\n      jumpi\n        /* \"#utility.yul\":1741:1820   */\n      tag_68\n      tag_61\n      jump\t// in\n    tag_68:\n        /* \"#utility.yul\":1703:1822   */\n    tag_67:\n        /* \"#utility.yul\":1889:1890   */\n      0x00\n        /* \"#utility.yul\":1878:1887   */\n      dup4\n        /* \"#utility.yul\":1874:1891   */\n      add\n        /* \"#utility.yul\":1861:1892   */\n      calldataload\n        /* \"#utility.yul\":1919:1937   */\n      0xffffffffffffffff\n        /* \"#utility.yul\":1911:1917   */\n      dup2\n        /* \"#utility.yul\":1908:1938   */\n      gt\n        /* \"#utility.yul\":1905:2022   */\n      iszero\n      tag_69\n      jumpi\n        /* \"#utility.yul\":1941:2020   */\n      tag_70\n      tag_64\n      jump\t// in\n    tag_70:\n        /* \"#utility.yul\":1905:2022   */\n    tag_69:\n        /* \"#utility.yul\":2046:2109   */\n      tag_71\n        /* \"#utility.yul\":2101:2108   */\n      dup6\n        /* \"#utility.yul\":2092:2098   */\n      dup3\n        /* \"#utility.yul\":2081:2090   */\n      dup7\n        /* \"#utility.yul\":2077:2099   */\n      add\n        /* \"#utility.yul\":2046:2109   */\n      tag_48\n      jump\t// in\n    tag_71:\n        /* \"#utility.yul\":2036:2109   */\n      swap3\n      pop\n        /* \"#utility.yul\":1832:2119   */\n      pop\n        /* \"#utility.yul\":2186:2188   */\n      0x20\n        /* \"#utility.yul\":2175:2184   */\n      dup4\n        /* \"#utility.yul\":2171:2189   */\n      add\n        /* \"#utility.yul\":2158:2190   */\n      calldataload\n        /* \"#utility.yul\":2217:2235   */\n      0xffffffffffffffff\n        /* \"#utility.yul\":2209:2215   */\n      dup2\n        /* \"#utility.yul\":2206:2236   */\n      gt\n        /* \"#utility.yul\":2203:2320   */\n      iszero\n      tag_72\n      jumpi\n        /* \"#utility.yul\":2239:2318   */\n      tag_73\n      tag_64\n      jump\t// in\n    tag_73:\n        /* \"#utility.yul\":2203:2320   */\n    tag_72:\n        /* \"#utility.yul\":2344:2407   */\n      tag_74\n        /* \"#utility.yul\":2399:2406   */\n      dup6\n        /* \"#utility.yul\":2390:2396   */\n      dup3\n        /* \"#utility.yul\":2379:2388   */\n      dup7\n        /* \"#utility.yul\":2375:2397   */\n      add\n        /* \"#utility.yul\":2344:2407   */\n      tag_48\n      jump\t// in\n    tag_74:\n        /* \"#utility.yul\":2334:2407   */\n      swap2\n      pop\n        /* \"#utility.yul\":2129:2417   */\n      pop\n        /* \"#utility.yul\":1590:2424   */\n      swap3\n      pop\n      swap3\n      swap1\n      pop\n      jump\t// out\n        /* \"#utility.yul\":2430:3229   */\n    tag_14:\n        /* \"#utility.yul\":2517:2523   */\n      0x00\n        /* \"#utility.yul\":2525:2531   */\n      dup1\n        /* \"#utility.yul\":2533:2539   */\n      0x00\n        /* \"#utility.yul\":2582:2584   */\n      0x60\n        /* \"#utility.yul\":2570:2579   */\n      dup5\n        /* \"#utility.yul\":2561:2568   */\n      dup7\n        /* \"#utility.yul\":2557:2580   */\n      sub\n        /* \"#utility.yul\":2553:2585   */\n      slt\n        /* \"#utility.yul\":2550:2669   */\n      iszero\n      tag_76\n      jumpi\n        /* \"#utility.yul\":2588:2667   */\n      tag_77\n      tag_61\n      jump\t// in\n    tag_77:\n        /* \"#utility.yul\":2550:2669   */\n    tag_76:\n        /* \"#utility.yul\":2708:2709   */\n      0x00\n        /* \"#utility.yul\":2733:2786   */\n      tag_78\n        /* \"#utility.yul\":2778:2785   */\n      dup7\n        /* \"#utility.yul\":2769:2775   */\n      dup3\n        /* \"#utility.yul\":2758:2767   */\n      dup8\n        /* \"#utility.yul\":2754:2776   */\n      add\n        /* \"#utility.yul\":2733:2786   */\n      tag_54\n      jump\t// in\n    tag_78:\n        /* \"#utility.yul\":2723:2786   */\n      swap4\n      pop\n        /* \"#utility.yul\":2679:2796   */\n      pop\n        /* \"#utility.yul\":2863:2865   */\n      0x20\n        /* \"#utility.yul\":2852:2861   */\n      dup5\n        /* \"#utility.yul\":2848:2866   */\n      add\n        /* \"#utility.yul\":2835:2867   */\n      calldataload\n        /* \"#utility.yul\":2894:2912   */\n      0xffffffffffffffff\n        /* \"#utility.yul\":2886:2892   */\n      dup2\n        /* \"#utility.yul\":2883:2913   */\n      gt\n        /* \"#utility.yul\":2880:2997   */\n      iszero\n      tag_79\n      jumpi\n        /* \"#utility.yul\":2916:2995   */\n      tag_80\n      tag_64\n      jump\t// in\n    tag_80:\n        /* \"#utility.yul\":2880:2997   */\n    tag_79:\n        /* \"#utility.yul\":3021:3084   */\n      tag_81\n        /* \"#utility.yul\":3076:3083   */\n      dup7\n        /* \"#utility.yul\":3067:3073   */\n      dup3\n        /* \"#utility.yul\":3056:3065   */\n      dup8\n        /* \"#utility.yul\":3052:3074   */\n      add\n        /* \"#utility.yul\":3021:3084   */\n      tag_48\n      jump\t// in\n    tag_81:\n        /* \"#utility.yul\":3011:3084   */\n      swap3\n      pop\n        /* \"#utility.yul\":2806:3094   */\n      pop\n        /* \"#utility.yul\":3133:3135   */\n      0x40\n        /* \"#utility.yul\":3159:3212   */\n      tag_82\n        /* \"#utility.yul\":3204:3211   */\n      dup7\n        /* \"#utility.yul\":3195:3201   */\n      dup3\n        /* \"#utility.yul\":3184:3193   */\n      dup8\n        /* \"#utility.yul\":3180:3202   */\n      add\n        /* \"#utility.yul\":3159:3212   */\n      tag_44\n      jump\t// in\n    tag_82:\n        /* \"#utility.yul\":3149:3212   */\n      swap2\n      pop\n        /* \"#utility.yul\":3104:3222   */\n      pop\n        /* \"#utility.yul\":2430:3229   */\n      swap3\n      pop\n      swap3\n      pop\n      swap3\n      jump\t// out\n        /* \"#utility.yul\":3235:3392   */\n    tag_83:\n        /* \"#utility.yul\":3340:3385   */\n      tag_85\n        /* \"#utility.yul\":3360:3384   */\n      tag_86\n        /* \"#utility.yul\":3378:3383   */\n      dup3\n        /* \"#utility.yul\":3360:3384   */\n      tag_87\n      jump\t// in\n    tag_86:\n        /* \"#utility.yul\":3340:3385   */\n      tag_88\n      jump\t// in\n    tag_85:\n        /* \"#utility.yul\":3335:3338   */\n      dup3\n        /* \"#utility.yul\":3328:3386   */\n      mstore\n        /* \"#utility.yul\":3235:3392   */\n      pop\n      pop\n      jump\t// out\n        /* \"#utility.yul\":3398:3507   */\n    tag_89:\n        /* \"#utility.yul\":3479:3500   */\n      tag_91\n        /* \"#utility.yul\":3494:3499   */\n      dup2\n        /* \"#utility.yul\":3479:3500   */\n      tag_92\n      jump\t// in\n    tag_91:\n        /* \"#utility.yul\":3474:3477   */\n      dup3\n        /* \"#utility.yul\":3467:3501   */\n      mstore\n        /* \"#utility.yul\":3398:3507   */\n      pop\n      pop\n      jump\t// out\n        /* \"#utility.yul\":3513:3631   */\n    tag_93:\n        /* \"#utility.yul\":3600:3624   */\n      tag_95\n        /* \"#utility.yul\":3618:3623   */\n      dup2\n        /* \"#utility.yul\":3600:3624   */\n      tag_96\n      jump\t// in\n    tag_95:\n        /* \"#utility.yul\":3595:3598   */\n      dup3\n        /* \"#utility.yul\":3588:3625   */\n      mstore\n        /* \"#utility.yul\":3513:3631   */\n      pop\n      pop\n      jump\t// out\n        /* \"#utility.yul\":3637:4014   */\n    tag_97:\n        /* \"#utility.yul\":3743:3746   */\n      0x00\n        /* \"#utility.yul\":3771:3810   */\n      tag_99\n        /* \"#utility.yul\":3804:3809   */\n      dup3\n        /* \"#utility.yul\":3771:3810   */\n      tag_100\n      jump\t// in\n    tag_99:\n        /* \"#utility.yul\":3826:3915   */\n      tag_101\n        /* \"#utility.yul\":3908:3914   */\n      dup2\n        /* \"#utility.yul\":3903:3906   */\n      dup6\n        /* \"#utility.yul\":3826:3915   */\n      tag_102\n      jump\t// in\n    tag_101:\n        /* \"#utility.yul\":3819:3915   */\n      swap4\n      pop\n        /* \"#utility.yul\":3924:3976   */\n      tag_103\n        /* \"#utility.yul\":3969:3975   */\n      dup2\n        /* \"#utility.yul\":3964:3967   */\n      dup6\n        /* \"#utility.yul\":3957:3961   */\n      0x20\n        /* \"#utility.yul\":3950:3955   */\n      dup7\n        /* \"#utility.yul\":3946:3962   */\n      add\n        /* \"#utility.yul\":3924:3976   */\n      tag_104\n      jump\t// in\n    tag_103:\n        /* \"#utility.yul\":4001:4007   */\n      dup1\n        /* \"#utility.yul\":3996:3999   */\n      dup5\n        /* \"#utility.yul\":3992:4008   */\n      add\n        /* \"#utility.yul\":3985:4008   */\n      swap2\n      pop\n        /* \"#utility.yul\":3747:4014   */\n      pop\n        /* \"#utility.yul\":3637:4014   */\n      swap3\n      swap2\n      pop\n      pop\n      jump\t// out\n        /* \"#utility.yul\":4020:4177   */\n    tag_105:\n        /* \"#utility.yul\":4125:4170   */\n      tag_107\n        /* \"#utility.yul\":4145:4169   */\n      tag_108\n        /* \"#utility.yul\":4163:4168   */\n      dup3\n        /* \"#utility.yul\":4145:4169   */\n      tag_109\n      jump\t// in\n    tag_108:\n        /* \"#utility.yul\":4125:4170   */\n      tag_110\n      jump\t// in\n    tag_107:\n        /* \"#utility.yul\":4120:4123   */\n      dup3\n        /* \"#utility.yul\":4113:4171   */\n      mstore\n        /* \"#utility.yul\":4020:4177   */\n      pop\n      pop\n      jump\t// out\n        /* \"#utility.yul\":4183:4458   */\n    tag_25:\n        /* \"#utility.yul\":4315:4318   */\n      0x00\n        /* \"#utility.yul\":4337:4432   */\n      tag_112\n        /* \"#utility.yul\":4428:4431   */\n      dup3\n        /* \"#utility.yul\":4419:4425   */\n      dup5\n        /* \"#utility.yul\":4337:4432   */\n      tag_97\n      jump\t// in\n    tag_112:\n        /* \"#utility.yul\":4330:4432   */\n      swap2\n      pop\n        /* \"#utility.yul\":4449:4452   */\n      dup2\n        /* \"#utility.yul\":4442:4452   */\n      swap1\n      pop\n        /* \"#utility.yul\":4183:4458   */\n      swap3\n      swap2\n      pop\n      pop\n      jump\t// out\n        /* \"#utility.yul\":4464:5021   */\n    tag_29:\n        /* \"#utility.yul\":4652:4655   */\n      0x00\n        /* \"#utility.yul\":4667:4742   */\n      tag_114\n        /* \"#utility.yul\":4738:4741   */\n      dup3\n        /* \"#utility.yul\":4729:4735   */\n      dup7\n        /* \"#utility.yul\":4667:4742   */\n      tag_105\n      jump\t// in\n    tag_114:\n        /* \"#utility.yul\":4767:4769   */\n      0x20\n        /* \"#utility.yul\":4762:4765   */\n      dup3\n        /* \"#utility.yul\":4758:4770   */\n      add\n        /* \"#utility.yul\":4751:4770   */\n      swap2\n      pop\n        /* \"#utility.yul\":4787:4882   */\n      tag_115\n        /* \"#utility.yul\":4878:4881   */\n      dup3\n        /* \"#utility.yul\":4869:4875   */\n      dup6\n        /* \"#utility.yul\":4787:4882   */\n      tag_97\n      jump\t// in\n    tag_115:\n        /* \"#utility.yul\":4780:4882   */\n      swap2\n      pop\n        /* \"#utility.yul\":4892:4967   */\n      tag_116\n        /* \"#utility.yul\":4963:4966   */\n      dup3\n        /* \"#utility.yul\":4954:4960   */\n      dup5\n        /* \"#utility.yul\":4892:4967   */\n      tag_83\n      jump\t// in\n    tag_116:\n        /* \"#utility.yul\":4992:4994   */\n      0x14\n        /* \"#utility.yul\":4987:4990   */\n      dup3\n        /* \"#utility.yul\":4983:4995   */\n      add\n        /* \"#utility.yul\":4976:4995   */\n      swap2\n      pop\n        /* \"#utility.yul\":5012:5015   */\n      dup2\n        /* \"#utility.yul\":5005:5015   */\n      swap1\n      pop\n        /* \"#utility.yul\":4464:5021   */\n      swap5\n      swap4\n      pop\n      pop\n      pop\n      pop\n      jump\t// out\n        /* \"#utility.yul\":5027:5237   */\n    tag_11:\n        /* \"#utility.yul\":5114:5118   */\n      0x00\n        /* \"#utility.yul\":5152:5154   */\n      0x20\n        /* \"#utility.yul\":5141:5150   */\n      dup3\n        /* \"#utility.yul\":5137:5155   */\n      add\n        /* \"#utility.yul\":5129:5155   */\n      swap1\n      pop\n        /* \"#utility.yul\":5165:5230   */\n      tag_118\n        /* \"#utility.yul\":5227:5228   */\n      0x00\n        /* \"#utility.yul\":5216:5225   */\n      dup4\n        /* \"#utility.yul\":5212:5229   */\n      add\n        /* \"#utility.yul\":5203:5209   */\n      dup5\n        /* \"#utility.yul\":5165:5230   */\n      tag_89\n      jump\t// in\n    tag_118:\n        /* \"#utility.yul\":5027:5237   */\n      swap3\n      swap2\n      pop\n      pop\n      jump\t// out\n        /* \"#utility.yul\":5243:5465   */\n    tag_17:\n        /* \"#utility.yul\":5336:5340   */\n      0x00\n        /* \"#utility.yul\":5374:5376   */\n      0x20\n        /* \"#utility.yul\":5363:5372   */\n      dup3\n        /* \"#utility.yul\":5359:5377   */\n      add\n        /* \"#utility.yul\":5351:5377   */\n      swap1\n      pop\n        /* \"#utility.yul\":5387:5458   */\n      tag_120\n        /* \"#utility.yul\":5455:5456   */\n      0x00\n        /* \"#utility.yul\":5444:5453   */\n      dup4\n        /* \"#utility.yul\":5440:5457   */\n      add\n        /* \"#utility.yul\":5431:5437   */\n      dup5\n        /* \"#utility.yul\":5387:5458   */\n      tag_93\n      jump\t// in\n    tag_120:\n        /* \"#utility.yul\":5243:5465   */\n      swap3\n      swap2\n      pop\n      pop\n      jump\t// out\n        /* \"#utility.yul\":5471:5600   */\n    tag_38:\n        /* \"#utility.yul\":5505:5511   */\n      0x00\n        /* \"#utility.yul\":5532:5552   */\n      tag_122\n      tag_123\n      jump\t// in\n    tag_122:\n        /* \"#utility.yul\":5522:5552   */\n      swap1\n      pop\n        /* \"#utility.yul\":5561:5594   */\n      tag_124\n        /* \"#utility.yul\":5589:5593   */\n      dup3\n        /* \"#utility.yul\":5581:5587   */\n      dup3\n        /* \"#utility.yul\":5561:5594   */\n      tag_125\n      jump\t// in\n    tag_124:\n        /* \"#utility.yul\":5471:5600   */\n      swap2\n      swap1\n      pop\n      jump\t// out\n        /* \"#utility.yul\":5606:5681   */\n    tag_123:\n        /* \"#utility.yul\":5639:5645   */\n      0x00\n        /* \"#utility.yul\":5672:5674   */\n      0x40\n        /* \"#utility.yul\":5666:5675   */\n      mload\n        /* \"#utility.yul\":5656:5675   */\n      swap1\n      pop\n        /* \"#utility.yul\":5606:5681   */\n      swap1\n      jump\t// out\n        /* \"#utility.yul\":5687:5995   */\n    tag_37:\n        /* \"#utility.yul\":5749:5753   */\n      0x00\n        /* \"#utility.yul\":5839:5857   */\n      0xffffffffffffffff\n        /* \"#utility.yul\":5831:5837   */\n      dup3\n        /* \"#utility.yul\":5828:5858   */\n      gt\n        /* \"#utility.yul\":5825:5881   */\n      iszero\n      tag_128\n      jumpi\n        /* \"#utility.yul\":5861:5879   */\n      tag_129\n      tag_130\n      jump\t// in\n    tag_129:\n        /* \"#utility.yul\":5825:5881   */\n    tag_128:\n        /* \"#utility.yul\":5899:5928   */\n      tag_131\n        /* \"#utility.yul\":5921:5927   */\n      dup3\n        /* \"#utility.yul\":5899:5928   */\n      tag_132\n      jump\t// in\n    tag_131:\n        /* \"#utility.yul\":5891:5928   */\n      swap1\n      pop\n        /* \"#utility.yul\":5983:5987   */\n      0x20\n        /* \"#utility.yul\":5977:5981   */\n      dup2\n        /* \"#utility.yul\":5973:5988   */\n      add\n        /* \"#utility.yul\":5965:5988   */\n      swap1\n      pop\n        /* \"#utility.yul\":5687:5995   */\n      swap2\n      swap1\n      pop\n      jump\t// out\n        /* \"#utility.yul\":6001:6100   */\n    tag_100:\n        /* \"#utility.yul\":6053:6059   */\n      0x00\n        /* \"#utility.yul\":6087:6092   */\n      dup2\n        /* \"#utility.yul\":6081:6093   */\n      mload\n        /* \"#utility.yul\":6071:6093   */\n      swap1\n      pop\n        /* \"#utility.yul\":6001:6100   */\n      swap2\n      swap1\n      pop\n      jump\t// out\n        /* \"#utility.yul\":6106:6254   */\n    tag_102:\n        /* \"#utility.yul\":6208:6219   */\n      0x00\n        /* \"#utility.yul\":6245:6248   */\n      dup2\n        /* \"#utility.yul\":6230:6248   */\n      swap1\n      pop\n        /* \"#utility.yul\":6106:6254   */\n      swap3\n      swap2\n      pop\n      pop\n      jump\t// out\n        /* \"#utility.yul\":6260:6356   */\n    tag_87:\n        /* \"#utility.yul\":6297:6304   */\n      0x00\n        /* \"#utility.yul\":6326:6350   */\n      tag_136\n        /* \"#utility.yul\":6344:6349   */\n      dup3\n        /* \"#utility.yul\":6326:6350   */\n      tag_137\n      jump\t// in\n    tag_136:\n        /* \"#utility.yul\":6315:6350   */\n      swap1\n      pop\n        /* \"#utility.yul\":6260:6356   */\n      swap2\n      swap1\n      pop\n      jump\t// out\n        /* \"#utility.yul\":6362:6452   */\n    tag_92:\n        /* \"#utility.yul\":6396:6403   */\n      0x00\n        /* \"#utility.yul\":6439:6444   */\n      dup2\n        /* \"#utility.yul\":6432:6445   */\n      iszero\n        /* \"#utility.yul\":6425:6446   */\n      iszero\n        /* \"#utility.yul\":6414:6446   */\n      swap1\n      pop\n        /* \"#utility.yul\":6362:6452   */\n      swap2\n      swap1\n      pop\n      jump\t// out\n        /* \"#utility.yul\":6458:6535   */\n    tag_96:\n        /* \"#utility.yul\":6495:6502   */\n      0x00\n        /* \"#utility.yul\":6524:6529   */\n      dup2\n        /* \"#utility.yul\":6513:6529   */\n      swap1\n      pop\n        /* \"#utility.yul\":6458:6535   */\n      swap2\n      swap1\n      pop\n      jump\t// out\n        /* \"#utility.yul\":6541:6667   */\n    tag_137:\n        /* \"#utility.yul\":6578:6585   */\n      0x00\n        /* \"#utility.yul\":6618:6660   */\n      0xffffffffffffffffffffffffffffffffffffffff\n        /* \"#utility.yul\":6611:6616   */\n      dup3\n        /* \"#utility.yul\":6607:6661   */\n      and\n        /* \"#utility.yul\":6596:6661   */\n      swap1\n      pop\n        /* \"#utility.yul\":6541:6667   */\n      swap2\n      swap1\n      pop\n      jump\t// out\n        /* \"#utility.yul\":6673:6750   */\n    tag_109:\n        /* \"#utility.yul\":6710:6717   */\n      0x00\n        /* \"#utility.yul\":6739:6744   */\n      dup2\n        /* \"#utility.yul\":6728:6744   */\n      swap1\n      pop\n        /* \"#utility.yul\":6673:6750   */\n      swap2\n      swap1\n      pop\n      jump\t// out\n        /* \"#utility.yul\":6756:6910   */\n    tag_43:\n        /* \"#utility.yul\":6840:6846   */\n      dup3\n        /* \"#utility.yul\":6835:6838   */\n      dup2\n        /* \"#utility.yul\":6830:6833   */\n      dup4\n        /* \"#utility.yul\":6817:6847   */\n      calldatacopy\n        /* \"#utility.yul\":6902:6903   */\n      0x00\n        /* \"#utility.yul\":6893:6899   */\n      dup4\n        /* \"#utility.yul\":6888:6891   */\n      dup4\n        /* \"#utility.yul\":6884:6900   */\n      add\n        /* \"#utility.yul\":6877:6904   */\n      mstore\n        /* \"#utility.yul\":6756:6910   */\n      pop\n      pop\n      pop\n      jump\t// out\n        /* \"#utility.yul\":6916:7223   */\n    tag_104:\n        /* \"#utility.yul\":6984:6985   */\n      0x00\n        /* \"#utility.yul\":6994:7107   */\n    tag_144:\n        /* \"#utility.yul\":7008:7014   */\n      dup4\n        /* \"#utility.yul\":7005:7006   */\n      dup2\n        /* \"#utility.yul\":7002:7015   */\n      lt\n        /* \"#utility.yul\":6994:7107   */\n      iszero\n      tag_146\n      jumpi\n        /* \"#utility.yul\":7093:7094   */\n      dup1\n        /* \"#utility.yul\":7088:7091   */\n      dup3\n        /* \"#utility.yul\":7084:7095   */\n      add\n        /* \"#utility.yul\":7078:7096   */\n      mload\n        /* \"#utility.yul\":7074:7075   */\n      dup2\n        /* \"#utility.yul\":7069:7072   */\n      dup5\n        /* \"#utility.yul\":7065:7076   */\n      add\n        /* \"#utility.yul\":7058:7097   */\n      mstore\n        /* \"#utility.yul\":7030:7032   */\n      0x20\n        /* \"#utility.yul\":7027:7028   */\n      dup2\n        /* \"#utility.yul\":7023:7033   */\n      add\n        /* \"#utility.yul\":7018:7033   */\n      swap1\n      pop\n        /* \"#utility.yul\":6994:7107   */\n      jump(tag_144)\n    tag_146:\n        /* \"#utility.yul\":7125:7131   */\n      dup4\n        /* \"#utility.yul\":7122:7123   */\n      dup2\n        /* \"#utility.yul\":7119:7132   */\n      gt\n        /* \"#utility.yul\":7116:7217   */\n      iszero\n      tag_147\n      jumpi\n        /* \"#utility.yul\":7205:7206   */\n      0x00\n        /* \"#utility.yul\":7196:7202   */\n      dup5\n        /* \"#utility.yul\":7191:7194   */\n      dup5\n        /* \"#utility.yul\":7187:7203   */\n      add\n        /* \"#utility.yul\":7180:7207   */\n      mstore\n        /* \"#utility.yul\":7116:7217   */\n    tag_147:\n        /* \"#utility.yul\":6965:7223   */\n      pop\n        /* \"#utility.yul\":6916:7223   */\n      pop\n      pop\n      pop\n      jump\t// out\n        /* \"#utility.yul\":7229:7510   */\n    tag_125:\n        /* \"#utility.yul\":7312:7339   */\n      tag_149\n        /* \"#utility.yul\":7334:7338   */\n      dup3\n        /* \"#utility.yul\":7312:7339   */\n      tag_132\n      jump\t// in\n    tag_149:\n        /* \"#utility.yul\":7304:7310   */\n      dup2\n        /* \"#utility.yul\":7300:7340   */\n      add\n        /* \"#utility.yul\":7442:7448   */\n      dup2\n        /* \"#utility.yul\":7430:7440   */\n      dup2\n        /* \"#utility.yul\":7427:7449   */\n      lt\n        /* \"#utility.yul\":7406:7424   */\n      0xffffffffffffffff\n        /* \"#utility.yul\":7394:7404   */\n      dup3\n        /* \"#utility.yul\":7391:7425   */\n      gt\n        /* \"#utility.yul\":7388:7450   */\n      or\n        /* \"#utility.yul\":7385:7473   */\n      iszero\n      tag_150\n      jumpi\n        /* \"#utility.yul\":7453:7471   */\n      tag_151\n      tag_130\n      jump\t// in\n    tag_151:\n        /* \"#utility.yul\":7385:7473   */\n    tag_150:\n        /* \"#utility.yul\":7493:7503   */\n      dup1\n        /* \"#utility.yul\":7489:7491   */\n      0x40\n        /* \"#utility.yul\":7482:7504   */\n      mstore\n        /* \"#utility.yul\":7272:7510   */\n      pop\n        /* \"#utility.yul\":7229:7510   */\n      pop\n      pop\n      jump\t// out\n        /* \"#utility.yul\":7516:7616   */\n    tag_88:\n        /* \"#utility.yul\":7555:7562   */\n      0x00\n        /* \"#utility.yul\":7584:7610   */\n      tag_153\n        /* \"#utility.yul\":7604:7609   */\n      dup3\n        /* \"#utility.yul\":7584:7610   */\n      tag_154\n      jump\t// in\n    tag_153:\n        /* \"#utility.yul\":7573:7610   */\n      swap1\n      pop\n        /* \"#utility.yul\":7516:7616   */\n      swap2\n      swap1\n      pop\n      jump\t// out\n        /* \"#utility.yul\":7622:7716   */\n    tag_154:\n        /* \"#utility.yul\":7661:7668   */\n      0x00\n        /* \"#utility.yul\":7690:7710   */\n      tag_156\n        /* \"#utility.yul\":7704:7709   */\n      dup3\n        /* \"#utility.yul\":7690:7710   */\n      tag_157\n      jump\t// in\n    tag_156:\n        /* \"#utility.yul\":7679:7710   */\n      swap1\n      pop\n        /* \"#utility.yul\":7622:7716   */\n      swap2\n      swap1\n      pop\n      jump\t// out\n        /* \"#utility.yul\":7722:7801   */\n    tag_110:\n        /* \"#utility.yul\":7761:7768   */\n      0x00\n        /* \"#utility.yul\":7790:7795   */\n      dup2\n        /* \"#utility.yul\":7779:7795   */\n      swap1\n      pop\n        /* \"#utility.yul\":7722:7801   */\n      swap2\n      swap1\n      pop\n      jump\t// out\n        /* \"#utility.yul\":7807:7987   */\n    tag_130:\n        /* \"#utility.yul\":7855:7932   */\n      0x4e487b7100000000000000000000000000000000000000000000000000000000\n        /* \"#utility.yul\":7852:7853   */\n      0x00\n        /* \"#utility.yul\":7845:7933   */\n      mstore\n        /* \"#utility.yul\":7952:7956   */\n      0x41\n        /* \"#utility.yul\":7949:7950   */\n      0x04\n        /* \"#utility.yul\":7942:7957   */\n      mstore\n        /* \"#utility.yul\":7976:7980   */\n      0x24\n        /* \"#utility.yul\":7973:7974   */\n      0x00\n        /* \"#utility.yul\":7966:7981   */\n      revert\n        /* \"#utility.yul\":7993:8110   */\n    tag_52:\n        /* \"#utility.yul\":8102:8103   */\n      0x00\n        /* \"#utility.yul\":8099:8100   */\n      dup1\n        /* \"#utility.yul\":8092:8104   */\n      revert\n        /* \"#utility.yul\":8116:8233   */\n    tag_41:\n        /* \"#utility.yul\":8225:8226   */\n      0x00\n        /* \"#utility.yul\":8222:8223   */\n      dup1\n        /* \"#utility.yul\":8215:8227   */\n      revert\n        /* \"#utility.yul\":8239:8356   */\n    tag_64:\n        /* \"#utility.yul\":8348:8349   */\n      0x00\n        /* \"#utility.yul\":8345:8346   */\n      dup1\n        /* \"#utility.yul\":8338:8350   */\n      revert\n        /* \"#utility.yul\":8362:8479   */\n    tag_61:\n        /* \"#utility.yul\":8471:8472   */\n      0x00\n        /* \"#utility.yul\":8468:8469   */\n      dup1\n        /* \"#utility.yul\":8461:8473   */\n      revert\n        /* \"#utility.yul\":8485:8587   */\n    tag_132:\n        /* \"#utility.yul\":8526:8532   */\n      0x00\n        /* \"#utility.yul\":8577:8579   */\n      0x1f\n        /* \"#utility.yul\":8573:8580   */\n      not\n        /* \"#utility.yul\":8568:8570   */\n      0x1f\n        /* \"#utility.yul\":8561:8566   */\n      dup4\n        /* \"#utility.yul\":8557:8571   */\n      add\n        /* \"#utility.yul\":8553:8581   */\n      and\n        /* \"#utility.yul\":8543:8581   */\n      swap1\n      pop\n        /* \"#utility.yul\":8485:8587   */\n      swap2\n      swap1\n      pop\n      jump\t// out\n        /* \"#utility.yul\":8593:8687   */\n    tag_157:\n        /* \"#utility.yul\":8626:8634   */\n      0x00\n        /* \"#utility.yul\":8674:8679   */\n      dup2\n        /* \"#utility.yul\":8670:8672   */\n      0x60\n        /* \"#utility.yul\":8666:8680   */\n      shl\n        /* \"#utility.yul\":8645:8680   */\n      swap1\n      pop\n        /* \"#utility.yul\":8593:8687   */\n      swap2\n      swap1\n      pop\n      jump\t// out\n        /* \"#utility.yul\":8693:8815   */\n    tag_47:\n        /* \"#utility.yul\":8766:8790   */\n      tag_167\n        /* \"#utility.yul\":8784:8789   */\n      dup2\n        /* \"#utility.yul\":8766:8790   */\n      tag_87\n      jump\t// in\n    tag_167:\n        /* \"#utility.yul\":8759:8764   */\n      dup2\n        /* \"#utility.yul\":8756:8791   */\n      eq\n        /* \"#utility.yul\":8746:8809   */\n      tag_168\n      jumpi\n        /* \"#utility.yul\":8805:8806   */\n      0x00\n        /* \"#utility.yul\":8802:8803   */\n      dup1\n        /* \"#utility.yul\":8795:8807   */\n      revert\n        /* \"#utility.yul\":8746:8809   */\n    tag_168:\n        /* \"#utility.yul\":8693:8815   */\n      pop\n      jump\t// out\n        /* \"#utility.yul\":8821:8943   */\n    tag_57:\n        /* \"#utility.yul\":8894:8918   */\n      tag_170\n        /* \"#utility.yul\":8912:8917   */\n      dup2\n        /* \"#utility.yul\":8894:8918   */\n      tag_109\n      jump\t// in\n    tag_170:\n        /* \"#utility.yul\":8887:8892   */\n      dup2\n        /* \"#utility.yul\":8884:8919   */\n      eq\n        /* \"#utility.yul\":8874:8937   */\n      tag_171\n      jumpi\n        /* \"#utility.yul\":8933:8934   */\n      0x00\n        /* \"#utility.yul\":8930:8931   */\n      dup1\n        /* \"#utility.yul\":8923:8935   */\n      revert\n        /* \"#utility.yul\":8874:8937   */\n    tag_171:\n        /* \"#utility.yul\":8821:8943   */\n      pop\n      jump\t// out\n\n    auxdata: 0xa2646970667358221220f3bce2509777366c9f1742312c7c0d36908e98034bb739049a4876faa740e02164736f6c63430008070033\n}\n",
				"bytecode": {
					"linkReferences": {},
					"object": "608060405260405160200161001390610061565b6040516020818303038152906040528051906020012060005534801561003857600080fd5b506100aa565b600061004b600483610076565b915061005682610081565b600482019050919050565b600061006c8261003e565b9150819050919050565b600081905092915050565b7f3078414100000000000000000000000000000000000000000000000000000000600082015250565b610689806100b96000396000f3fe608060405234801561001057600080fd5b50600436106100415760003560e01c806310be181c146100465780634f6b068d14610076578063d6abfc7b146100a6575b600080fd5b610060600480360381019061005b919061027b565b6100d6565b60405161006d919061042f565b60405180910390f35b610090600480360381019061008b91906102f3565b61012f565b60405161009d919061044a565b60405180910390f35b6100c060048036038101906100bb9190610232565b610165565b6040516100cd919061042f565b60405180910390f35b6000816040516020016100e991906103df565b604051602081830303815290604052805190602001208360405160200161011091906103df565b6040516020818303038152906040528051906020012014905092915050565b6000838383604051602001610146939291906103f6565b6040516020818303038152906040528051906020012090509392505050565b600080548260405160200161017a91906103df565b60405160208183030381529060405280519060200120149050919050565b60006101ab6101a68461048a565b610465565b9050828152602081018484840111156101c7576101c66105f8565b5b6101d2848285610523565b509392505050565b6000813590506101e981610625565b92915050565b600082601f830112610204576102036105f3565b5b8135610214848260208601610198565b91505092915050565b60008135905061022c8161063c565b92915050565b60006020828403121561024857610247610602565b5b600082013567ffffffffffffffff811115610266576102656105fd565b5b610272848285016101ef565b91505092915050565b6000806040838503121561029257610291610602565b5b600083013567ffffffffffffffff8111156102b0576102af6105fd565b5b6102bc858286016101ef565b925050602083013567ffffffffffffffff8111156102dd576102dc6105fd565b5b6102e9858286016101ef565b9150509250929050565b60008060006060848603121561030c5761030b610602565b5b600061031a8682870161021d565b935050602084013567ffffffffffffffff81111561033b5761033a6105fd565b5b610347868287016101ef565b9250506040610358868287016101da565b9150509250925092565b61037361036e826104d1565b610596565b82525050565b610382816104e3565b82525050565b610391816104ef565b82525050565b60006103a2826104bb565b6103ac81856104c6565b93506103bc818560208601610532565b80840191505092915050565b6103d96103d482610519565b6105ba565b82525050565b60006103eb8284610397565b915081905092915050565b600061040282866103c8565b6020820191506104128285610397565b915061041e8284610362565b601482019150819050949350505050565b60006020820190506104446000830184610379565b92915050565b600060208201905061045f6000830184610388565b92915050565b600061046f610480565b905061047b8282610565565b919050565b6000604051905090565b600067ffffffffffffffff8211156104a5576104a46105c4565b5b6104ae82610607565b9050602081019050919050565b600081519050919050565b600081905092915050565b60006104dc826104f9565b9050919050565b60008115159050919050565b6000819050919050565b600073ffffffffffffffffffffffffffffffffffffffff82169050919050565b6000819050919050565b82818337600083830152505050565b60005b83811015610550578082015181840152602081019050610535565b8381111561055f576000848401525b50505050565b61056e82610607565b810181811067ffffffffffffffff8211171561058d5761058c6105c4565b5b80604052505050565b60006105a1826105a8565b9050919050565b60006105b382610618565b9050919050565b6000819050919050565b7f4e487b7100000000000000000000000000000000000000000000000000000000600052604160045260246000fd5b600080fd5b600080fd5b600080fd5b600080fd5b6000601f19601f8301169050919050565b60008160601b9050919050565b61062e816104d1565b811461063957600080fd5b50565b61064581610519565b811461065057600080fd5b5056fea2646970667358221220f3bce2509777366c9f1742312c7c0d36908e98034bb739049a4876faa740e02164736f6c63430008070033",
					"opcodes": "PUSH1 0x80 PUSH1 0x40 MSTORE PUSH1 0x40 MLOAD PUSH1 0x20 ADD PUSH2 0x13 SWAP1 PUSH2 0x61 JUMP JUMPDEST PUSH1 0x40 MLOAD PUSH1 0x20 DUP2 DUP4 SUB SUB DUP2 MSTORE SWAP1 PUSH1 0x40 MSTORE DUP1 MLOAD SWAP1 PUSH1 0x20 ADD KECCAK256 PUSH1 0x0 SSTORE CALLVALUE DUP1 ISZERO PUSH2 0x38 JUMPI PUSH1 0x0 DUP1 REVERT JUMPDEST POP PUSH2 0xAA JUMP JUMPDEST PUSH1 0x0 PUSH2 0x4B PUSH1 0x4 DUP4 PUSH2 0x76 JUMP JUMPDEST SWAP2 POP PUSH2 0x56 DUP3 PUSH2 0x81 JUMP JUMPDEST PUSH1 0x4 DUP3 ADD SWAP1 POP SWAP2 SWAP1 POP JUMP JUMPDEST PUSH1 0x0 PUSH2 0x6C DUP3 PUSH2 0x3E JUMP JUMPDEST SWAP2 POP DUP2 SWAP1 POP SWAP2 SWAP1 POP JUMP JUMPDEST PUSH1 0x0 DUP2 SWAP1 POP SWAP3 SWAP2 POP POP JUMP JUMPDEST PUSH32 0x3078414100000000000000000000000000000000000000000000000000000000 PUSH1 0x0 DUP3 ADD MSTORE POP JUMP JUMPDEST PUSH2 0x689 DUP1 PUSH2 0xB9 PUSH1 0x0 CODECOPY PUSH1 0x0 RETURN INVALID PUSH1 0x80 PUSH1 0x40 MSTORE CALLVALUE DUP1 ISZERO PUSH2 0x10 JUMPI PUSH1 0x0 DUP1 REVERT JUMPDEST POP PUSH1 0x4 CALLDATASIZE LT PUSH2 0x41 JUMPI PUSH1 0x0 CALLDATALOAD PUSH1 0xE0 SHR DUP1 PUSH4 0x10BE181C EQ PUSH2 0x46 JUMPI DUP1 PUSH4 0x4F6B068D EQ PUSH2 0x76 JUMPI DUP1 PUSH4 0xD6ABFC7B EQ PUSH2 0xA6 JUMPI JUMPDEST PUSH1 0x0 DUP1 REVERT JUMPDEST PUSH2 0x60 PUSH1 0x4 DUP1 CALLDATASIZE SUB DUP2 ADD SWAP1 PUSH2 0x5B SWAP2 SWAP1 PUSH2 0x27B JUMP JUMPDEST PUSH2 0xD6 JUMP JUMPDEST PUSH1 0x40 MLOAD PUSH2 0x6D SWAP2 SWAP1 PUSH2 0x42F JUMP JUMPDEST PUSH1 0x40 MLOAD DUP1 SWAP2 SUB SWAP1 RETURN JUMPDEST PUSH2 0x90 PUSH1 0x4 DUP1 CALLDATASIZE SUB DUP2 ADD SWAP1 PUSH2 0x8B SWAP2 SWAP1 PUSH2 0x2F3 JUMP JUMPDEST PUSH2 0x12F JUMP JUMPDEST PUSH1 0x40 MLOAD PUSH2 0x9D SWAP2 SWAP1 PUSH2 0x44A JUMP JUMPDEST PUSH1 0x40 MLOAD DUP1 SWAP2 SUB SWAP1 RETURN JUMPDEST PUSH2 0xC0 PUSH1 0x4 DUP1 CALLDATASIZE SUB DUP2 ADD SWAP1 PUSH2 0xBB SWAP2 SWAP1 PUSH2 0x232 JUMP JUMPDEST PUSH2 0x165 JUMP JUMPDEST PUSH1 0x40 MLOAD PUSH2 0xCD SWAP2 SWAP1 PUSH2 0x42F JUMP JUMPDEST PUSH1 0x40 MLOAD DUP1 SWAP2 SUB SWAP1 RETURN JUMPDEST PUSH1 0x0 DUP2 PUSH1 0x40 MLOAD PUSH1 0x20 ADD PUSH2 0xE9 SWAP2 SWAP1 PUSH2 0x3DF JUMP JUMPDEST PUSH1 0x40 MLOAD PUSH1 0x20 DUP2 DUP4 SUB SUB DUP2 MSTORE SWAP1 PUSH1 0x40 MSTORE DUP1 MLOAD SWAP1 PUSH1 0x20 ADD KECCAK256 DUP4 PUSH1 0x40 MLOAD PUSH1 0x20 ADD PUSH2 0x110 SWAP2 SWAP1 PUSH2 0x3DF JUMP JUMPDEST PUSH1 0x40 MLOAD PUSH1 0x20 DUP2 DUP4 SUB SUB DUP2 MSTORE SWAP1 PUSH1 0x40 MSTORE DUP1 MLOAD SWAP1 PUSH1 0x20 ADD KECCAK256 EQ SWAP1 POP SWAP3 SWAP2 POP POP JUMP JUMPDEST PUSH1 0x0 DUP4 DUP4 DUP4 PUSH1 0x40 MLOAD PUSH1 0x20 ADD PUSH2 0x146 SWAP4 SWAP3 SWAP2 SWAP1 PUSH2 0x3F6 JUMP JUMPDEST PUSH1 0x40 MLOAD PUSH1 0x20 DUP2 DUP4 SUB SUB DUP2 MSTORE SWAP1 PUSH1 0x40 MSTORE DUP1 MLOAD SWAP1 PUSH1 0x20 ADD KECCAK256 SWAP1 POP SWAP4 SWAP3 POP POP POP JUMP JUMPDEST PUSH1 0x0 DUP1 SLOAD DUP3 PUSH1 0x40 MLOAD PUSH1 0x20 ADD PUSH2 0x17A SWAP2 SWAP1 PUSH2 0x3DF JUMP JUMPDEST PUSH1 0x40 MLOAD PUSH1 0x20 DUP2 DUP4 SUB SUB DUP2 MSTORE SWAP1 PUSH1 0x40 MSTORE DUP1 MLOAD SWAP1 PUSH1 0x20 ADD KECCAK256 EQ SWAP1 POP SWAP2 SWAP1 POP JUMP JUMPDEST PUSH1 0x0 PUSH2 0x1AB PUSH2 0x1A6 DUP5 PUSH2 0x48A JUMP JUMPDEST PUSH2 0x465 JUMP JUMPDEST SWAP1 POP DUP3 DUP2 MSTORE PUSH1 0x20 DUP2 ADD DUP5 DUP5 DUP5 ADD GT ISZERO PUSH2 0x1C7 JUMPI PUSH2 0x1C6 PUSH2 0x5F8 JUMP JUMPDEST JUMPDEST PUSH2 0x1D2 DUP5 DUP3 DUP6 PUSH2 0x523 JUMP JUMPDEST POP SWAP4 SWAP3 POP POP POP JUMP JUMPDEST PUSH1 0x0 DUP2 CALLDATALOAD SWAP1 POP PUSH2 0x1E9 DUP2 PUSH2 0x625 JUMP JUMPDEST SWAP3 SWAP2 POP POP JUMP JUMPDEST PUSH1 0x0 DUP3 PUSH1 0x1F DUP4 ADD SLT PUSH2 0x204 JUMPI PUSH2 0x203 PUSH2 0x5F3 JUMP JUMPDEST JUMPDEST DUP2 CALLDATALOAD PUSH2 0x214 DUP5 DUP3 PUSH1 0x20 DUP7 ADD PUSH2 0x198 JUMP JUMPDEST SWAP2 POP POP SWAP3 SWAP2 POP POP JUMP JUMPDEST PUSH1 0x0 DUP2 CALLDATALOAD SWAP1 POP PUSH2 0x22C DUP2 PUSH2 0x63C JUMP JUMPDEST SWAP3 SWAP2 POP POP JUMP JUMPDEST PUSH1 0x0 PUSH1 0x20 DUP3 DUP5 SUB SLT ISZERO PUSH2 0x248 JUMPI PUSH2 0x247 PUSH2 0x602 JUMP JUMPDEST JUMPDEST PUSH1 0x0 DUP3 ADD CALLDATALOAD PUSH8 0xFFFFFFFFFFFFFFFF DUP2 GT ISZERO PUSH2 0x266 JUMPI PUSH2 0x265 PUSH2 0x5FD JUMP JUMPDEST JUMPDEST PUSH2 0x272 DUP5 DUP3 DUP6 ADD PUSH2 0x1EF JUMP JUMPDEST SWAP2 POP POP SWAP3 SWAP2 POP POP JUMP JUMPDEST PUSH1 0x0 DUP1 PUSH1 0x40 DUP4 DUP6 SUB SLT ISZERO PUSH2 0x292 JUMPI PUSH2 0x291 PUSH2 0x602 JUMP JUMPDEST JUMPDEST PUSH1 0x0 DUP4 ADD CALLDATALOAD PUSH8 0xFFFFFFFFFFFFFFFF DUP2 GT ISZERO PUSH2 0x2B0 JUMPI PUSH2 0x2AF PUSH2 0x5FD JUMP JUMPDEST JUMPDEST PUSH2 0x2BC DUP6 DUP3 DUP7 ADD PUSH2 0x1EF JUMP JUMPDEST SWAP3 POP POP PUSH1 0x20 DUP4 ADD CALLDATALOAD PUSH8 0xFFFFFFFFFFFFFFFF DUP2 GT ISZERO PUSH2 0x2DD JUMPI PUSH2 0x2DC PUSH2 0x5FD JUMP JUMPDEST JUMPDEST PUSH2 0x2E9 DUP6 DUP3 DUP7 ADD PUSH2 0x1EF JUMP JUMPDEST SWAP2 POP POP SWAP3 POP SWAP3 SWAP1 POP JUMP JUMPDEST PUSH1 0x0 DUP1 PUSH1 0x0 PUSH1 0x60 DUP5 DUP7 SUB SLT ISZERO PUSH2 0x30C JUMPI PUSH2 0x30B PUSH2 0x602 JUMP JUMPDEST JUMPDEST PUSH1 0x0 PUSH2 0x31A DUP7 DUP3 DUP8 ADD PUSH2 0x21D JUMP JUMPDEST SWAP4 POP POP PUSH1 0x20 DUP5 ADD CALLDATALOAD PUSH8 0xFFFFFFFFFFFFFFFF DUP2 GT ISZERO PUSH2 0x33B JUMPI PUSH2 0x33A PUSH2 0x5FD JUMP JUMPDEST JUMPDEST PUSH2 0x347 DUP7 DUP3 DUP8 ADD PUSH2 0x1EF JUMP JUMPDEST SWAP3 POP POP PUSH1 0x40 PUSH2 0x358 DUP7 DUP3 DUP8 ADD PUSH2 0x1DA JUMP JUMPDEST SWAP2 POP POP SWAP3 POP SWAP3 POP SWAP3 JUMP JUMPDEST PUSH2 0x373 PUSH2 0x36E DUP3 PUSH2 0x4D1 JUMP JUMPDEST PUSH2 0x596 JUMP JUMPDEST DUP3 MSTORE POP POP JUMP JUMPDEST PUSH2 0x382 DUP2 PUSH2 0x4E3 JUMP JUMPDEST DUP3 MSTORE POP POP JUMP JUMPDEST PUSH2 0x391 DUP2 PUSH2 0x4EF JUMP JUMPDEST DUP3 MSTORE POP POP JUMP JUMPDEST PUSH1 0x0 PUSH2 0x3A2 DUP3 PUSH2 0x4BB JUMP JUMPDEST PUSH2 0x3AC DUP2 DUP6 PUSH2 0x4C6 JUMP JUMPDEST SWAP4 POP PUSH2 0x3BC DUP2 DUP6 PUSH1 0x20 DUP7 ADD PUSH2 0x532 JUMP JUMPDEST DUP1 DUP5 ADD SWAP2 POP POP SWAP3 SWAP2 POP POP JUMP JUMPDEST PUSH2 0x3D9 PUSH2 0x3D4 DUP3 PUSH2 0x519 JUMP JUMPDEST PUSH2 0x5BA JUMP JUMPDEST DUP3 MSTORE POP POP JUMP JUMPDEST PUSH1 0x0 PUSH2 0x3EB DUP3 DUP5 PUSH2 0x397 JUMP JUMPDEST SWAP2 POP DUP2 SWAP1 POP SWAP3 SWAP2 POP POP JUMP JUMPDEST PUSH1 0x0 PUSH2 0x402 DUP3 DUP7 PUSH2 0x3C8 JUMP JUMPDEST PUSH1 0x20 DUP3 ADD SWAP2 POP PUSH2 0x412 DUP3 DUP6 PUSH2 0x397 JUMP JUMPDEST SWAP2 POP PUSH2 0x41E DUP3 DUP5 PUSH2 0x362 JUMP JUMPDEST PUSH1 0x14 DUP3 ADD SWAP2 POP DUP2 SWAP1 POP SWAP5 SWAP4 POP POP POP POP JUMP JUMPDEST PUSH1 0x0 PUSH1 0x20 DUP3 ADD SWAP1 POP PUSH2 0x444 PUSH1 0x0 DUP4 ADD DUP5 PUSH2 0x379 JUMP JUMPDEST SWAP3 SWAP2 POP POP JUMP JUMPDEST PUSH1 0x0 PUSH1 0x20 DUP3 ADD SWAP1 POP PUSH2 0x45F PUSH1 0x0 DUP4 ADD DUP5 PUSH2 0x388 JUMP JUMPDEST SWAP3 SWAP2 POP POP JUMP JUMPDEST PUSH1 0x0 PUSH2 0x46F PUSH2 0x480 JUMP JUMPDEST SWAP1 POP PUSH2 0x47B DUP3 DUP3 PUSH2 0x565 JUMP JUMPDEST SWAP2 SWAP1 POP JUMP JUMPDEST PUSH1 0x0 PUSH1 0x40 MLOAD SWAP1 POP SWAP1 JUMP JUMPDEST PUSH1 0x0 PUSH8 0xFFFFFFFFFFFFFFFF DUP3 GT ISZERO PUSH2 0x4A5 JUMPI PUSH2 0x4A4 PUSH2 0x5C4 JUMP JUMPDEST JUMPDEST PUSH2 0x4AE DUP3 PUSH2 0x607 JUMP JUMPDEST SWAP1 POP PUSH1 0x20 DUP2 ADD SWAP1 POP SWAP2 SWAP1 POP JUMP JUMPDEST PUSH1 0x0 DUP2 MLOAD SWAP1 POP SWAP2 SWAP1 POP JUMP JUMPDEST PUSH1 0x0 DUP2 SWAP1 POP SWAP3 SWAP2 POP POP JUMP JUMPDEST PUSH1 0x0 PUSH2 0x4DC DUP3 PUSH2 0x4F9 JUMP JUMPDEST SWAP1 POP SWAP2 SWAP1 POP JUMP JUMPDEST PUSH1 0x0 DUP2 ISZERO ISZERO SWAP1 POP SWAP2 SWAP1 POP JUMP JUMPDEST PUSH1 0x0 DUP2 SWAP1 POP SWAP2 SWAP1 POP JUMP JUMPDEST PUSH1 0x0 PUSH20 0xFFFFFFFFFFFFFFFFFFFFFFFFFFFFFFFFFFFFFFFF DUP3 AND SWAP1 POP SWAP2 SWAP1 POP JUMP JUMPDEST PUSH1 0x0 DUP2 SWAP1 POP SWAP2 SWAP1 POP JUMP JUMPDEST DUP3 DUP2 DUP4 CALLDATACOPY PUSH1 0x0 DUP4 DUP4 ADD MSTORE POP POP POP JUMP JUMPDEST PUSH1 0x0 JUMPDEST DUP4 DUP2 LT ISZERO PUSH2 0x550 JUMPI DUP1 DUP3 ADD MLOAD DUP2 DUP5 ADD MSTORE PUSH1 0x20 DUP2 ADD SWAP1 POP PUSH2 0x535 JUMP JUMPDEST DUP4 DUP2 GT ISZERO PUSH2 0x55F JUMPI PUSH1 0x0 DUP5 DUP5 ADD MSTORE JUMPDEST POP POP POP POP JUMP JUMPDEST PUSH2 0x56E DUP3 PUSH2 0x607 JUMP JUMPDEST DUP2 ADD DUP2 DUP2 LT PUSH8 0xFFFFFFFFFFFFFFFF DUP3 GT OR ISZERO PUSH2 0x58D JUMPI PUSH2 0x58C PUSH2 0x5C4 JUMP JUMPDEST JUMPDEST DUP1 PUSH1 0x40 MSTORE POP POP POP JUMP JUMPDEST PUSH1 0x0 PUSH2 0x5A1 DUP3 PUSH2 0x5A8 JUMP JUMPDEST SWAP1 POP SWAP2 SWAP1 POP JUMP JUMPDEST PUSH1 0x0 PUSH2 0x5B3 DUP3 PUSH2 0x618 JUMP JUMPDEST SWAP1 POP SWAP2 SWAP1 POP JUMP JUMPDEST PUSH1 0x0 DUP2 SWAP1 POP SWAP2 SWAP1 POP JUMP JUMPDEST PUSH32 0x4E487B7100000000000000000000000000000000000000000000000000000000 PUSH1 0x0 MSTORE PUSH1 0x41 PUSH1 0x4 MSTORE PUSH1 0x24 PUSH1 0x0 REVERT JUMPDEST PUSH1 0x0 DUP1 REVERT JUMPDEST PUSH1 0x0 DUP1 REVERT JUMPDEST PUSH1 0x0 DUP1 REVERT JUMPDEST PUSH1 0x0 DUP1 REVERT JUMPDEST PUSH1 0x0 PUSH1 0x1F NOT PUSH1 0x1F DUP4 ADD AND SWAP1 POP SWAP2 SWAP1 POP JUMP JUMPDEST PUSH1 0x0 DUP2 PUSH1 0x60 SHL SWAP1 POP SWAP2 SWAP1 POP JUMP JUMPDEST PUSH2 0x62E DUP2 PUSH2 0x4D1 JUMP JUMPDEST DUP2 EQ PUSH2 0x639 JUMPI PUSH1 0x0 DUP1 REVERT JUMPDEST POP JUMP JUMPDEST PUSH2 0x645 DUP2 PUSH2 0x519 JUMP JUMPDEST DUP2 EQ PUSH2 0x650 JUMPI PUSH1 0x0 DUP1 REVERT JUMPDEST POP JUMP INVALID LOG2 PUSH5 0x6970667358 0x22 SLT KECCAK256 RETURN 0xBC 0xE2 POP SWAP8 PUSH24 0x366C9F1742312C7C0D36908E98034BB739049A4876FAA740 0xE0 0x21 PUSH5 0x736F6C6343 STOP ADDMOD SMOD STOP CALLER "
				},
				"gasEstimates": {
					"creation": {
						"codeDepositCost": "334600",
						"executionCost": "22791",
						"totalCost": "357391"
					},
					"external": {
						"hash(uint256,string,address)": "infinite",
						"strong(string,string)": "infinite",
						"weak(string)": "infinite"
					}
				},
				"methodIdentifiers": {
					"hash(uint256,string,address)": "4f6b068d",
					"strong(string,string)": "10be181c",
					"weak(string)": "d6abfc7b"
				}
			},
			"storageLayout": {
				"storage": [
					{
						"astId": 9,
						"contract": "hash.sol:test",
						"label": "_msg",
						"offset": 0,
						"slot": "0",
						"type": "t_bytes32"
					}
				],
				"types": {
					"t_bytes32": {
						"encoding": "inplace",
						"label": "bytes32",
						"numberOfBytes": "32"
					}
				}
			},
			"userdoc": {
				"kind": "user",
				"methods": {},
				"version": 1
			}
		}
	}
}