{
	"ABI编码.sol": {
		"test": {
			"abi": [
				{
					"inputs": [],
					"name": "encode",
					"outputs": [
						{
							"internalType": "bytes",
							"name": "result",
							"type": "bytes"
						}
					],
					"stateMutability": "view",
					"type": "function"
				},
				{
					"inputs": [],
					"name": "encodePacked",
					"outputs": [
						{
							"internalType": "bytes",
							"name": "result",
							"type": "bytes"
						}
					],
					"stateMutability": "view",
					"type": "function"
				},
				{
					"inputs": [],
					"name": "encodeWithSignature",
					"outputs": [
						{
							"internalType": "bytes",
							"name": "result",
							"type": "bytes"
						}
					],
					"stateMutability": "view",
					"type": "function"
				}
			],
			"devdoc": {
				"kind": "dev",
				"methods": {},
				"version": 1
			},
			"evm": {
				"assembly": "    /* \"ABI\\xe7\\xbc\\x96\\xe7\\xa0\\x81.sol\":72:784  contract test{\r... */\n  mstore(0x40, 0x80)\n    /* \"ABI\\xe7\\xbc\\x96\\xe7\\xa0\\x81.sol\":121:123  10 */\n  0x0a\n    /* \"ABI\\xe7\\xbc\\x96\\xe7\\xa0\\x81.sol\":112:123  uint x = 10 */\n  0x00\n  sstore\n    /* \"ABI\\xe7\\xbc\\x96\\xe7\\xa0\\x81.sol\":145:187  0x7A58c0Be72BE218B41C608b7Fe7C5bB630736C71 */\n  0x7a58c0be72be218b41c608b7fe7c5bb630736c71\n    /* \"ABI\\xe7\\xbc\\x96\\xe7\\xa0\\x81.sol\":130:187  address addr = 0x7A58c0Be72BE218B41C608b7Fe7C5bB630736C71 */\n  0x01\n  exp(0x0100, 0x00)\n  dup2\n  sload\n  dup2\n  0xffffffffffffffffffffffffffffffffffffffff\n  mul\n  not\n  and\n  swap1\n  dup4\n  0xffffffffffffffffffffffffffffffffffffffff\n  and\n  mul\n  or\n  swap1\n  sstore\n  pop\n    /* \"ABI\\xe7\\xbc\\x96\\xe7\\xa0\\x81.sol\":194:214  string name = \"0xAA\" */\n  mload(0x40)\n  dup1\n  0x40\n  add\n  0x40\n  mstore\n  dup1\n  0x04\n  dup2\n  mstore\n  0x20\n  add\n  0x3078414100000000000000000000000000000000000000000000000000000000\n  dup2\n  mstore\n  pop\n  0x02\n  swap1\n  dup1\n  mload\n  swap1\n  0x20\n  add\n  swap1\n  tag_1\n  swap3\n  swap2\n  swap1\n  tag_2\n  jump\t// in\ntag_1:\n  pop\n    /* \"ABI\\xe7\\xbc\\x96\\xe7\\xa0\\x81.sol\":221:243  uint[2] array = [5, 6] */\n  mload(0x40)\n  dup1\n  0x40\n  add\n  0x40\n  mstore\n  dup1\n    /* \"ABI\\xe7\\xbc\\x96\\xe7\\xa0\\x81.sol\":238:239  5 */\n  0x05\n    /* \"ABI\\xe7\\xbc\\x96\\xe7\\xa0\\x81.sol\":221:243  uint[2] array = [5, 6] */\n  0xff\n  and\n  dup2\n  mstore\n  0x20\n  add\n    /* \"ABI\\xe7\\xbc\\x96\\xe7\\xa0\\x81.sol\":241:242  6 */\n  0x06\n    /* \"ABI\\xe7\\xbc\\x96\\xe7\\xa0\\x81.sol\":221:243  uint[2] array = [5, 6] */\n  0xff\n  and\n  dup2\n  mstore\n  pop\n  0x03\n  swap1\n  0x02\n  tag_3\n  swap3\n  swap2\n  swap1\n  tag_4\n  jump\t// in\ntag_3:\n  pop\n    /* \"ABI\\xe7\\xbc\\x96\\xe7\\xa0\\x81.sol\":72:784  contract test{\r... */\n  callvalue\n  dup1\n  iszero\n  tag_5\n  jumpi\n  0x00\n  dup1\n  revert\ntag_5:\n  pop\n  jump(tag_6)\ntag_2:\n  dup3\n  dup1\n  sload\n  tag_7\n  swap1\n  tag_8\n  jump\t// in\ntag_7:\n  swap1\n  0x00\n  mstore\n  keccak256(0x00, 0x20)\n  swap1\n  0x1f\n  add\n  0x20\n  swap1\n  div\n  dup2\n  add\n  swap3\n  dup3\n  tag_10\n  jumpi\n  0x00\n  dup6\n  sstore\n  jump(tag_9)\ntag_10:\n  dup3\n  0x1f\n  lt\n  tag_11\n  jumpi\n  dup1\n  mload\n  not(0xff)\n  and\n  dup4\n  dup1\n  add\n  or\n  dup6\n  sstore\n  jump(tag_9)\ntag_11:\n  dup3\n  dup1\n  add\n  0x01\n  add\n  dup6\n  sstore\n  dup3\n  iszero\n  tag_9\n  jumpi\n  swap2\n  dup3\n  add\ntag_12:\n  dup3\n  dup2\n  gt\n  iszero\n  tag_13\n  jumpi\n  dup3\n  mload\n  dup3\n  sstore\n  swap2\n  0x20\n  add\n  swap2\n  swap1\n  0x01\n  add\n  swap1\n  jump(tag_12)\ntag_13:\ntag_9:\n  pop\n  swap1\n  pop\n  tag_14\n  swap2\n  swap1\n  tag_15\n  jump\t// in\ntag_14:\n  pop\n  swap1\n  jump\t// out\ntag_4:\n  dup3\n  0x02\n  dup2\n  add\n  swap3\n  dup3\n  iszero\n  tag_16\n  jumpi\n  swap2\n  0x20\n  mul\n  dup3\n  add\ntag_17:\n  dup3\n  dup2\n  gt\n  iszero\n  tag_18\n  jumpi\n  dup3\n  mload\n  dup3\n  swap1\n  0xff\n  and\n  swap1\n  sstore\n  swap2\n  0x20\n  add\n  swap2\n  swap1\n  0x01\n  add\n  swap1\n  jump(tag_17)\ntag_18:\ntag_16:\n  pop\n  swap1\n  pop\n  tag_19\n  swap2\n  swap1\n  tag_15\n  jump\t// in\ntag_19:\n  pop\n  swap1\n  jump\t// out\ntag_15:\ntag_20:\n  dup1\n  dup3\n  gt\n  iszero\n  tag_21\n  jumpi\n  0x00\n  dup2\n  0x00\n  swap1\n  sstore\n  pop\n  0x01\n  add\n  jump(tag_20)\ntag_21:\n  pop\n  swap1\n  jump\t// out\n    /* \"#utility.yul\":7:327   */\ntag_8:\n    /* \"#utility.yul\":51:57   */\n  0x00\n    /* \"#utility.yul\":88:89   */\n  0x02\n    /* \"#utility.yul\":82:86   */\n  dup3\n    /* \"#utility.yul\":78:90   */\n  div\n    /* \"#utility.yul\":68:90   */\n  swap1\n  pop\n    /* \"#utility.yul\":135:136   */\n  0x01\n    /* \"#utility.yul\":129:133   */\n  dup3\n    /* \"#utility.yul\":125:137   */\n  and\n    /* \"#utility.yul\":156:174   */\n  dup1\n    /* \"#utility.yul\":146:227   */\n  tag_24\n  jumpi\n    /* \"#utility.yul\":212:216   */\n  0x7f\n    /* \"#utility.yul\":204:210   */\n  dup3\n    /* \"#utility.yul\":200:217   */\n  and\n    /* \"#utility.yul\":190:217   */\n  swap2\n  pop\n    /* \"#utility.yul\":146:227   */\ntag_24:\n    /* \"#utility.yul\":274:276   */\n  0x20\n    /* \"#utility.yul\":266:272   */\n  dup3\n    /* \"#utility.yul\":263:277   */\n  lt\n    /* \"#utility.yul\":243:261   */\n  dup2\n    /* \"#utility.yul\":240:278   */\n  eq\n    /* \"#utility.yul\":237:321   */\n  iszero\n  tag_25\n  jumpi\n    /* \"#utility.yul\":293:311   */\n  tag_26\n  tag_27\n  jump\t// in\ntag_26:\n    /* \"#utility.yul\":237:321   */\ntag_25:\n    /* \"#utility.yul\":58:327   */\n  pop\n    /* \"#utility.yul\":7:327   */\n  swap2\n  swap1\n  pop\n  jump\t// out\n    /* \"#utility.yul\":333:513   */\ntag_27:\n    /* \"#utility.yul\":381:458   */\n  0x4e487b7100000000000000000000000000000000000000000000000000000000\n    /* \"#utility.yul\":378:379   */\n  0x00\n    /* \"#utility.yul\":371:459   */\n  mstore\n    /* \"#utility.yul\":478:482   */\n  0x22\n    /* \"#utility.yul\":475:476   */\n  0x04\n    /* \"#utility.yul\":468:483   */\n  mstore\n    /* \"#utility.yul\":502:506   */\n  0x24\n    /* \"#utility.yul\":499:500   */\n  0x00\n    /* \"#utility.yul\":492:507   */\n  revert\n    /* \"ABI\\xe7\\xbc\\x96\\xe7\\xa0\\x81.sol\":72:784  contract test{\r... */\ntag_6:\n  dataSize(sub_0)\n  dup1\n  dataOffset(sub_0)\n  0x00\n  codecopy\n  0x00\n  return\nstop\n\nsub_0: assembly {\n        /* \"ABI\\xe7\\xbc\\x96\\xe7\\xa0\\x81.sol\":72:784  contract test{\r... */\n      mstore(0x40, 0x80)\n      callvalue\n      dup1\n      iszero\n      tag_1\n      jumpi\n      0x00\n      dup1\n      revert\n    tag_1:\n      pop\n      jumpi(tag_2, lt(calldatasize, 0x04))\n      shr(0xe0, calldataload(0x00))\n      dup1\n      0x53d9c506\n      eq\n      tag_3\n      jumpi\n      dup1\n      0xbd14598f\n      eq\n      tag_4\n      jumpi\n      dup1\n      0xe4f2a84a\n      eq\n      tag_5\n      jumpi\n    tag_2:\n      0x00\n      dup1\n      revert\n        /* \"ABI\\xe7\\xbc\\x96\\xe7\\xa0\\x81.sol\":422:553  function encodePacked() public view returns(bytes memory result) {\r... */\n    tag_3:\n      tag_6\n      tag_7\n      jump\t// in\n    tag_6:\n      mload(0x40)\n      tag_8\n      swap2\n      swap1\n      tag_9\n      jump\t// in\n    tag_8:\n      mload(0x40)\n      dup1\n      swap2\n      sub\n      swap1\n      return\n        /* \"ABI\\xe7\\xbc\\x96\\xe7\\xa0\\x81.sol\":271:390  function encode() public view returns(bytes memory result) {\r... */\n    tag_4:\n      tag_10\n      tag_11\n      jump\t// in\n    tag_10:\n      mload(0x40)\n      tag_12\n      swap2\n      swap1\n      tag_9\n      jump\t// in\n    tag_12:\n      mload(0x40)\n      dup1\n      swap2\n      sub\n      swap1\n      return\n        /* \"ABI\\xe7\\xbc\\x96\\xe7\\xa0\\x81.sol\":592:779  function encodeWithSignature() public view returns(bytes memory result) {\r... */\n    tag_5:\n      tag_13\n      tag_14\n      jump\t// in\n    tag_13:\n      mload(0x40)\n      tag_15\n      swap2\n      swap1\n      tag_9\n      jump\t// in\n    tag_15:\n      mload(0x40)\n      dup1\n      swap2\n      sub\n      swap1\n      return\n        /* \"ABI\\xe7\\xbc\\x96\\xe7\\xa0\\x81.sol\":422:553  function encodePacked() public view returns(bytes memory result) {\r... */\n    tag_7:\n        /* \"ABI\\xe7\\xbc\\x96\\xe7\\xa0\\x81.sol\":466:485  bytes memory result */\n      0x60\n        /* \"ABI\\xe7\\xbc\\x96\\xe7\\xa0\\x81.sol\":524:525  x */\n      sload(0x00)\n        /* \"ABI\\xe7\\xbc\\x96\\xe7\\xa0\\x81.sol\":527:531  addr */\n      0x01\n      0x00\n      swap1\n      sload\n      swap1\n      0x0100\n      exp\n      swap1\n      div\n      0xffffffffffffffffffffffffffffffffffffffff\n      and\n        /* \"ABI\\xe7\\xbc\\x96\\xe7\\xa0\\x81.sol\":533:537  name */\n      0x02\n        /* \"ABI\\xe7\\xbc\\x96\\xe7\\xa0\\x81.sol\":539:544  array */\n      0x03\n        /* \"ABI\\xe7\\xbc\\x96\\xe7\\xa0\\x81.sol\":507:545  abi.encodePacked(x, addr, name, array) */\n      add(0x20, mload(0x40))\n      tag_17\n      swap5\n      swap4\n      swap3\n      swap2\n      swap1\n      tag_18\n      jump\t// in\n    tag_17:\n      mload(0x40)\n      0x20\n      dup2\n      dup4\n      sub\n      sub\n      dup2\n      mstore\n      swap1\n      0x40\n      mstore\n        /* \"ABI\\xe7\\xbc\\x96\\xe7\\xa0\\x81.sol\":498:545  result = abi.encodePacked(x, addr, name, array) */\n      swap1\n      pop\n        /* \"ABI\\xe7\\xbc\\x96\\xe7\\xa0\\x81.sol\":422:553  function encodePacked() public view returns(bytes memory result) {\r... */\n      swap1\n      jump\t// out\n        /* \"ABI\\xe7\\xbc\\x96\\xe7\\xa0\\x81.sol\":271:390  function encode() public view returns(bytes memory result) {\r... */\n    tag_11:\n        /* \"ABI\\xe7\\xbc\\x96\\xe7\\xa0\\x81.sol\":309:328  bytes memory result */\n      0x60\n        /* \"ABI\\xe7\\xbc\\x96\\xe7\\xa0\\x81.sol\":361:362  x */\n      sload(0x00)\n        /* \"ABI\\xe7\\xbc\\x96\\xe7\\xa0\\x81.sol\":364:368  addr */\n      0x01\n      0x00\n      swap1\n      sload\n      swap1\n      0x0100\n      exp\n      swap1\n      div\n      0xffffffffffffffffffffffffffffffffffffffff\n      and\n        /* \"ABI\\xe7\\xbc\\x96\\xe7\\xa0\\x81.sol\":370:374  name */\n      0x02\n        /* \"ABI\\xe7\\xbc\\x96\\xe7\\xa0\\x81.sol\":376:381  array */\n      0x03\n        /* \"ABI\\xe7\\xbc\\x96\\xe7\\xa0\\x81.sol\":350:382  abi.encode(x, addr, name, array) */\n      add(0x20, mload(0x40))\n      tag_20\n      swap5\n      swap4\n      swap3\n      swap2\n      swap1\n      tag_21\n      jump\t// in\n    tag_20:\n      mload(0x40)\n      0x20\n      dup2\n      dup4\n      sub\n      sub\n      dup2\n      mstore\n      swap1\n      0x40\n      mstore\n        /* \"ABI\\xe7\\xbc\\x96\\xe7\\xa0\\x81.sol\":341:382  result = abi.encode(x, addr, name, array) */\n      swap1\n      pop\n        /* \"ABI\\xe7\\xbc\\x96\\xe7\\xa0\\x81.sol\":271:390  function encode() public view returns(bytes memory result) {\r... */\n      swap1\n      jump\t// out\n        /* \"ABI\\xe7\\xbc\\x96\\xe7\\xa0\\x81.sol\":592:779  function encodeWithSignature() public view returns(bytes memory result) {\r... */\n    tag_14:\n        /* \"ABI\\xe7\\xbc\\x96\\xe7\\xa0\\x81.sol\":643:662  bytes memory result */\n      0x60\n        /* \"ABI\\xe7\\xbc\\x96\\xe7\\xa0\\x81.sol\":750:751  x */\n      sload(0x00)\n        /* \"ABI\\xe7\\xbc\\x96\\xe7\\xa0\\x81.sol\":753:757  addr */\n      0x01\n      0x00\n      swap1\n      sload\n      swap1\n      0x0100\n      exp\n      swap1\n      div\n      0xffffffffffffffffffffffffffffffffffffffff\n      and\n        /* \"ABI\\xe7\\xbc\\x96\\xe7\\xa0\\x81.sol\":759:763  name */\n      0x02\n        /* \"ABI\\xe7\\xbc\\x96\\xe7\\xa0\\x81.sol\":765:770  array */\n      0x03\n        /* \"ABI\\xe7\\xbc\\x96\\xe7\\xa0\\x81.sol\":684:771  abi.encodeWithSignature(\"foo(uint256,address,string,uint256[2])\", x, addr, name, array) */\n      add(0x24, mload(0x40))\n      tag_23\n      swap5\n      swap4\n      swap3\n      swap2\n      swap1\n      tag_21\n      jump\t// in\n    tag_23:\n      mload(0x40)\n      0x20\n      dup2\n      dup4\n      sub\n      sub\n      dup2\n      mstore\n      swap1\n      0x40\n      mstore\n      and(not(0xffffffffffffffffffffffffffffffffffffffffffffffffffffffff), 0xe87082f100000000000000000000000000000000000000000000000000000000)\n      0x20\n      dup3\n      add\n      dup1\n      mload\n      0xffffffffffffffffffffffffffffffffffffffffffffffffffffffff\n      dup4\n      dup2\n      dup4\n      and\n      or\n      dup4\n      mstore\n      pop\n      pop\n      pop\n      pop\n        /* \"ABI\\xe7\\xbc\\x96\\xe7\\xa0\\x81.sol\":675:771  result = abi.encodeWithSignature(\"foo(uint256,address,string,uint256[2])\", x, addr, name, array) */\n      swap1\n      pop\n        /* \"ABI\\xe7\\xbc\\x96\\xe7\\xa0\\x81.sol\":592:779  function encodeWithSignature() public view returns(bytes memory result) {\r... */\n      swap1\n      jump\t// out\n        /* \"#utility.yul\":7:186   */\n    tag_25:\n        /* \"#utility.yul\":76:86   */\n      0x00\n        /* \"#utility.yul\":97:143   */\n      tag_27\n        /* \"#utility.yul\":139:142   */\n      dup4\n        /* \"#utility.yul\":131:137   */\n      dup4\n        /* \"#utility.yul\":97:143   */\n      tag_28\n      jump\t// in\n    tag_27:\n        /* \"#utility.yul\":175:179   */\n      0x20\n        /* \"#utility.yul\":170:173   */\n      dup4\n        /* \"#utility.yul\":166:180   */\n      add\n        /* \"#utility.yul\":152:180   */\n      swap1\n      pop\n        /* \"#utility.yul\":7:186   */\n      swap3\n      swap2\n      pop\n      pop\n      jump\t// out\n        /* \"#utility.yul\":192:387   */\n    tag_29:\n        /* \"#utility.yul\":269:279   */\n      0x00\n        /* \"#utility.yul\":290:344   */\n      tag_31\n        /* \"#utility.yul\":340:343   */\n      dup4\n        /* \"#utility.yul\":332:338   */\n      dup4\n        /* \"#utility.yul\":290:344   */\n      tag_32\n      jump\t// in\n    tag_31:\n        /* \"#utility.yul\":376:380   */\n      0x20\n        /* \"#utility.yul\":371:374   */\n      dup4\n        /* \"#utility.yul\":367:381   */\n      add\n        /* \"#utility.yul\":353:381   */\n      swap1\n      pop\n        /* \"#utility.yul\":192:387   */\n      swap3\n      swap2\n      pop\n      pop\n      jump\t// out\n        /* \"#utility.yul\":393:511   */\n    tag_33:\n        /* \"#utility.yul\":480:504   */\n      tag_35\n        /* \"#utility.yul\":498:503   */\n      dup2\n        /* \"#utility.yul\":480:504   */\n      tag_36\n      jump\t// in\n    tag_35:\n        /* \"#utility.yul\":475:478   */\n      dup3\n        /* \"#utility.yul\":468:505   */\n      mstore\n        /* \"#utility.yul\":393:511   */\n      pop\n      pop\n      jump\t// out\n        /* \"#utility.yul\":517:674   */\n    tag_37:\n        /* \"#utility.yul\":622:667   */\n      tag_39\n        /* \"#utility.yul\":642:666   */\n      tag_40\n        /* \"#utility.yul\":660:665   */\n      dup3\n        /* \"#utility.yul\":642:666   */\n      tag_36\n      jump\t// in\n    tag_40:\n        /* \"#utility.yul\":622:667   */\n      tag_41\n      jump\t// in\n    tag_39:\n        /* \"#utility.yul\":617:620   */\n      dup3\n        /* \"#utility.yul\":610:668   */\n      mstore\n        /* \"#utility.yul\":517:674   */\n      pop\n      pop\n      jump\t// out\n        /* \"#utility.yul\":712:1425   */\n    tag_42:\n        /* \"#utility.yul\":845:894   */\n      tag_44\n        /* \"#utility.yul\":888:893   */\n      dup2\n        /* \"#utility.yul\":845:894   */\n      tag_45\n      jump\t// in\n    tag_44:\n        /* \"#utility.yul\":910:994   */\n      tag_46\n        /* \"#utility.yul\":987:993   */\n      dup2\n        /* \"#utility.yul\":982:985   */\n      dup5\n        /* \"#utility.yul\":910:994   */\n      tag_47\n      jump\t// in\n    tag_46:\n        /* \"#utility.yul\":903:994   */\n      swap3\n      pop\n        /* \"#utility.yul\":1018:1069   */\n      tag_48\n        /* \"#utility.yul\":1063:1068   */\n      dup3\n        /* \"#utility.yul\":1018:1069   */\n      tag_49\n      jump\t// in\n    tag_48:\n        /* \"#utility.yul\":1092:1099   */\n      dup1\n        /* \"#utility.yul\":1123:1124   */\n      0x00\n        /* \"#utility.yul\":1108:1418   */\n    tag_50:\n        /* \"#utility.yul\":1133:1139   */\n      dup4\n        /* \"#utility.yul\":1130:1131   */\n      dup2\n        /* \"#utility.yul\":1127:1140   */\n      lt\n        /* \"#utility.yul\":1108:1418   */\n      iszero\n      tag_52\n      jumpi\n        /* \"#utility.yul\":1203:1247   */\n      tag_53\n        /* \"#utility.yul\":1240:1246   */\n      dup3\n        /* \"#utility.yul\":1203:1247   */\n      tag_54\n      jump\t// in\n    tag_53:\n        /* \"#utility.yul\":1267:1330   */\n      tag_55\n        /* \"#utility.yul\":1326:1329   */\n      dup8\n        /* \"#utility.yul\":1311:1324   */\n      dup3\n        /* \"#utility.yul\":1267:1330   */\n      tag_25\n      jump\t// in\n    tag_55:\n        /* \"#utility.yul\":1260:1330   */\n      swap7\n      pop\n        /* \"#utility.yul\":1353:1408   */\n      tag_56\n        /* \"#utility.yul\":1401:1407   */\n      dup4\n        /* \"#utility.yul\":1353:1408   */\n      tag_57\n      jump\t// in\n    tag_56:\n        /* \"#utility.yul\":1343:1408   */\n      swap3\n      pop\n        /* \"#utility.yul\":1168:1418   */\n      pop\n        /* \"#utility.yul\":1155:1156   */\n      0x01\n        /* \"#utility.yul\":1152:1153   */\n      dup2\n        /* \"#utility.yul\":1148:1157   */\n      add\n        /* \"#utility.yul\":1143:1157   */\n      swap1\n      pop\n        /* \"#utility.yul\":1108:1418   */\n      jump(tag_50)\n    tag_52:\n        /* \"#utility.yul\":1112:1126   */\n      pop\n        /* \"#utility.yul\":821:1425   */\n      pop\n      pop\n      pop\n        /* \"#utility.yul\":712:1425   */\n      pop\n      pop\n      jump\t// out\n        /* \"#utility.yul\":1463:2220   */\n    tag_58:\n        /* \"#utility.yul\":1614:1663   */\n      tag_60\n        /* \"#utility.yul\":1657:1662   */\n      dup2\n        /* \"#utility.yul\":1614:1663   */\n      tag_45\n      jump\t// in\n    tag_60:\n        /* \"#utility.yul\":1679:1781   */\n      tag_61\n        /* \"#utility.yul\":1774:1780   */\n      dup2\n        /* \"#utility.yul\":1769:1772   */\n      dup5\n        /* \"#utility.yul\":1679:1781   */\n      tag_62\n      jump\t// in\n    tag_61:\n        /* \"#utility.yul\":1672:1781   */\n      swap3\n      pop\n        /* \"#utility.yul\":1805:1856   */\n      tag_63\n        /* \"#utility.yul\":1850:1855   */\n      dup3\n        /* \"#utility.yul\":1805:1856   */\n      tag_49\n      jump\t// in\n    tag_63:\n        /* \"#utility.yul\":1879:1886   */\n      dup1\n        /* \"#utility.yul\":1910:1911   */\n      0x00\n        /* \"#utility.yul\":1895:2213   */\n    tag_64:\n        /* \"#utility.yul\":1920:1926   */\n      dup4\n        /* \"#utility.yul\":1917:1918   */\n      dup2\n        /* \"#utility.yul\":1914:1927   */\n      lt\n        /* \"#utility.yul\":1895:2213   */\n      iszero\n      tag_66\n      jumpi\n        /* \"#utility.yul\":1990:2034   */\n      tag_67\n        /* \"#utility.yul\":2027:2033   */\n      dup3\n        /* \"#utility.yul\":1990:2034   */\n      tag_54\n      jump\t// in\n    tag_67:\n        /* \"#utility.yul\":2054:2125   */\n      tag_68\n        /* \"#utility.yul\":2121:2124   */\n      dup8\n        /* \"#utility.yul\":2106:2119   */\n      dup3\n        /* \"#utility.yul\":2054:2125   */\n      tag_29\n      jump\t// in\n    tag_68:\n        /* \"#utility.yul\":2047:2125   */\n      swap7\n      pop\n        /* \"#utility.yul\":2148:2203   */\n      tag_69\n        /* \"#utility.yul\":2196:2202   */\n      dup4\n        /* \"#utility.yul\":2148:2203   */\n      tag_57\n      jump\t// in\n    tag_69:\n        /* \"#utility.yul\":2138:2203   */\n      swap3\n      pop\n        /* \"#utility.yul\":1955:2213   */\n      pop\n        /* \"#utility.yul\":1942:1943   */\n      0x01\n        /* \"#utility.yul\":1939:1940   */\n      dup2\n        /* \"#utility.yul\":1935:1944   */\n      add\n        /* \"#utility.yul\":1930:1944   */\n      swap1\n      pop\n        /* \"#utility.yul\":1895:2213   */\n      jump(tag_64)\n    tag_66:\n        /* \"#utility.yul\":1899:1913   */\n      pop\n        /* \"#utility.yul\":1590:2220   */\n      pop\n      pop\n      pop\n        /* \"#utility.yul\":1463:2220   */\n      pop\n      pop\n      jump\t// out\n        /* \"#utility.yul\":2226:2586   */\n    tag_70:\n        /* \"#utility.yul\":2312:2315   */\n      0x00\n        /* \"#utility.yul\":2340:2378   */\n      tag_72\n        /* \"#utility.yul\":2372:2377   */\n      dup3\n        /* \"#utility.yul\":2340:2378   */\n      tag_73\n      jump\t// in\n    tag_72:\n        /* \"#utility.yul\":2394:2464   */\n      tag_74\n        /* \"#utility.yul\":2457:2463   */\n      dup2\n        /* \"#utility.yul\":2452:2455   */\n      dup6\n        /* \"#utility.yul\":2394:2464   */\n      tag_75\n      jump\t// in\n    tag_74:\n        /* \"#utility.yul\":2387:2464   */\n      swap4\n      pop\n        /* \"#utility.yul\":2473:2525   */\n      tag_76\n        /* \"#utility.yul\":2518:2524   */\n      dup2\n        /* \"#utility.yul\":2513:2516   */\n      dup6\n        /* \"#utility.yul\":2506:2510   */\n      0x20\n        /* \"#utility.yul\":2499:2504   */\n      dup7\n        /* \"#utility.yul\":2495:2511   */\n      add\n        /* \"#utility.yul\":2473:2525   */\n      tag_77\n      jump\t// in\n    tag_76:\n        /* \"#utility.yul\":2550:2579   */\n      tag_78\n        /* \"#utility.yul\":2572:2578   */\n      dup2\n        /* \"#utility.yul\":2550:2579   */\n      tag_79\n      jump\t// in\n    tag_78:\n        /* \"#utility.yul\":2545:2548   */\n      dup5\n        /* \"#utility.yul\":2541:2580   */\n      add\n        /* \"#utility.yul\":2534:2580   */\n      swap2\n      pop\n        /* \"#utility.yul\":2316:2586   */\n      pop\n        /* \"#utility.yul\":2226:2586   */\n      swap3\n      swap2\n      pop\n      pop\n      jump\t// out\n        /* \"#utility.yul\":2616:3418   */\n    tag_80:\n        /* \"#utility.yul\":2701:2704   */\n      0x00\n        /* \"#utility.yul\":2738:2743   */\n      dup2\n        /* \"#utility.yul\":2732:2744   */\n      sload\n        /* \"#utility.yul\":2767:2803   */\n      tag_82\n        /* \"#utility.yul\":2793:2802   */\n      dup2\n        /* \"#utility.yul\":2767:2803   */\n      tag_83\n      jump\t// in\n    tag_82:\n        /* \"#utility.yul\":2819:2890   */\n      tag_84\n        /* \"#utility.yul\":2883:2889   */\n      dup2\n        /* \"#utility.yul\":2878:2881   */\n      dup7\n        /* \"#utility.yul\":2819:2890   */\n      tag_85\n      jump\t// in\n    tag_84:\n        /* \"#utility.yul\":2812:2890   */\n      swap5\n      pop\n        /* \"#utility.yul\":2921:2922   */\n      0x01\n        /* \"#utility.yul\":2910:2919   */\n      dup3\n        /* \"#utility.yul\":2906:2923   */\n      and\n        /* \"#utility.yul\":2937:2938   */\n      0x00\n        /* \"#utility.yul\":2932:3067   */\n      dup2\n      eq\n      tag_87\n      jumpi\n        /* \"#utility.yul\":3081:3082   */\n      0x01\n        /* \"#utility.yul\":3076:3412   */\n      dup2\n      eq\n      tag_88\n      jumpi\n        /* \"#utility.yul\":2899:3412   */\n      jump(tag_86)\n        /* \"#utility.yul\":2932:3067   */\n    tag_87:\n        /* \"#utility.yul\":3016:3020   */\n      0xff\n        /* \"#utility.yul\":3012:3021   */\n      not\n        /* \"#utility.yul\":3001:3010   */\n      dup4\n        /* \"#utility.yul\":2997:3022   */\n      and\n        /* \"#utility.yul\":2992:2995   */\n      dup7\n        /* \"#utility.yul\":2985:3023   */\n      mstore\n        /* \"#utility.yul\":3052:3056   */\n      0x20\n        /* \"#utility.yul\":3047:3050   */\n      dup7\n        /* \"#utility.yul\":3043:3057   */\n      add\n        /* \"#utility.yul\":3036:3057   */\n      swap4\n      pop\n        /* \"#utility.yul\":2932:3067   */\n      jump(tag_86)\n        /* \"#utility.yul\":3076:3412   */\n    tag_88:\n        /* \"#utility.yul\":3143:3181   */\n      tag_89\n        /* \"#utility.yul\":3175:3180   */\n      dup6\n        /* \"#utility.yul\":3143:3181   */\n      tag_90\n      jump\t// in\n    tag_89:\n        /* \"#utility.yul\":3203:3204   */\n      0x00\n        /* \"#utility.yul\":3217:3371   */\n    tag_91:\n        /* \"#utility.yul\":3231:3237   */\n      dup4\n        /* \"#utility.yul\":3228:3229   */\n      dup2\n        /* \"#utility.yul\":3225:3238   */\n      lt\n        /* \"#utility.yul\":3217:3371   */\n      iszero\n      tag_93\n      jumpi\n        /* \"#utility.yul\":3305:3312   */\n      dup2\n        /* \"#utility.yul\":3299:3313   */\n      sload\n        /* \"#utility.yul\":3295:3296   */\n      dup2\n        /* \"#utility.yul\":3290:3293   */\n      dup10\n        /* \"#utility.yul\":3286:3297   */\n      add\n        /* \"#utility.yul\":3279:3314   */\n      mstore\n        /* \"#utility.yul\":3355:3356   */\n      0x01\n        /* \"#utility.yul\":3346:3353   */\n      dup3\n        /* \"#utility.yul\":3342:3357   */\n      add\n        /* \"#utility.yul\":3331:3357   */\n      swap2\n      pop\n        /* \"#utility.yul\":3253:3257   */\n      0x20\n        /* \"#utility.yul\":3250:3251   */\n      dup2\n        /* \"#utility.yul\":3246:3258   */\n      add\n        /* \"#utility.yul\":3241:3258   */\n      swap1\n      pop\n        /* \"#utility.yul\":3217:3371   */\n      jump(tag_91)\n    tag_93:\n        /* \"#utility.yul\":3400:3401   */\n      dup1\n        /* \"#utility.yul\":3395:3398   */\n      dup9\n        /* \"#utility.yul\":3391:3402   */\n      add\n        /* \"#utility.yul\":3384:3402   */\n      swap6\n      pop\n        /* \"#utility.yul\":3083:3412   */\n      pop\n      pop\n        /* \"#utility.yul\":2899:3412   */\n    tag_86:\n      pop\n        /* \"#utility.yul\":2705:3418   */\n      pop\n      pop\n        /* \"#utility.yul\":2616:3418   */\n      swap3\n      swap2\n      pop\n      pop\n      jump\t// out\n        /* \"#utility.yul\":3448:4293   */\n    tag_94:\n        /* \"#utility.yul\":3551:3554   */\n      0x00\n        /* \"#utility.yul\":3588:3593   */\n      dup2\n        /* \"#utility.yul\":3582:3594   */\n      sload\n        /* \"#utility.yul\":3617:3653   */\n      tag_96\n        /* \"#utility.yul\":3643:3652   */\n      dup2\n        /* \"#utility.yul\":3617:3653   */\n      tag_83\n      jump\t// in\n    tag_96:\n        /* \"#utility.yul\":3669:3758   */\n      tag_97\n        /* \"#utility.yul\":3751:3757   */\n      dup2\n        /* \"#utility.yul\":3746:3749   */\n      dup7\n        /* \"#utility.yul\":3669:3758   */\n      tag_98\n      jump\t// in\n    tag_97:\n        /* \"#utility.yul\":3662:3758   */\n      swap5\n      pop\n        /* \"#utility.yul\":3789:3790   */\n      0x01\n        /* \"#utility.yul\":3778:3787   */\n      dup3\n        /* \"#utility.yul\":3774:3791   */\n      and\n        /* \"#utility.yul\":3805:3806   */\n      0x00\n        /* \"#utility.yul\":3800:3937   */\n      dup2\n      eq\n      tag_100\n      jumpi\n        /* \"#utility.yul\":3951:3952   */\n      0x01\n        /* \"#utility.yul\":3946:4287   */\n      dup2\n      eq\n      tag_101\n      jumpi\n        /* \"#utility.yul\":3767:4287   */\n      jump(tag_99)\n        /* \"#utility.yul\":3800:3937   */\n    tag_100:\n        /* \"#utility.yul\":3884:3888   */\n      0xff\n        /* \"#utility.yul\":3880:3889   */\n      not\n        /* \"#utility.yul\":3869:3878   */\n      dup4\n        /* \"#utility.yul\":3865:3890   */\n      and\n        /* \"#utility.yul\":3860:3863   */\n      dup7\n        /* \"#utility.yul\":3853:3891   */\n      mstore\n        /* \"#utility.yul\":3920:3926   */\n      dup2\n        /* \"#utility.yul\":3915:3918   */\n      dup7\n        /* \"#utility.yul\":3911:3927   */\n      add\n        /* \"#utility.yul\":3904:3927   */\n      swap4\n      pop\n        /* \"#utility.yul\":3800:3937   */\n      jump(tag_99)\n        /* \"#utility.yul\":3946:4287   */\n    tag_101:\n        /* \"#utility.yul\":4013:4051   */\n      tag_102\n        /* \"#utility.yul\":4045:4050   */\n      dup6\n        /* \"#utility.yul\":4013:4051   */\n      tag_90\n      jump\t// in\n    tag_102:\n        /* \"#utility.yul\":4073:4074   */\n      0x00\n        /* \"#utility.yul\":4087:4241   */\n    tag_103:\n        /* \"#utility.yul\":4101:4107   */\n      dup4\n        /* \"#utility.yul\":4098:4099   */\n      dup2\n        /* \"#utility.yul\":4095:4108   */\n      lt\n        /* \"#utility.yul\":4087:4241   */\n      iszero\n      tag_105\n      jumpi\n        /* \"#utility.yul\":4175:4182   */\n      dup2\n        /* \"#utility.yul\":4169:4183   */\n      sload\n        /* \"#utility.yul\":4165:4166   */\n      dup2\n        /* \"#utility.yul\":4160:4163   */\n      dup10\n        /* \"#utility.yul\":4156:4167   */\n      add\n        /* \"#utility.yul\":4149:4184   */\n      mstore\n        /* \"#utility.yul\":4225:4226   */\n      0x01\n        /* \"#utility.yul\":4216:4223   */\n      dup3\n        /* \"#utility.yul\":4212:4227   */\n      add\n        /* \"#utility.yul\":4201:4227   */\n      swap2\n      pop\n        /* \"#utility.yul\":4123:4127   */\n      0x20\n        /* \"#utility.yul\":4120:4121   */\n      dup2\n        /* \"#utility.yul\":4116:4128   */\n      add\n        /* \"#utility.yul\":4111:4128   */\n      swap1\n      pop\n        /* \"#utility.yul\":4087:4241   */\n      jump(tag_103)\n    tag_105:\n        /* \"#utility.yul\":4270:4276   */\n      dup4\n        /* \"#utility.yul\":4265:4268   */\n      dup9\n        /* \"#utility.yul\":4261:4277   */\n      add\n        /* \"#utility.yul\":4254:4277   */\n      swap6\n      pop\n        /* \"#utility.yul\":3953:4287   */\n      pop\n      pop\n        /* \"#utility.yul\":3767:4287   */\n    tag_99:\n      pop\n        /* \"#utility.yul\":3555:4293   */\n      pop\n      pop\n        /* \"#utility.yul\":3448:4293   */\n      swap3\n      swap2\n      pop\n      pop\n      jump\t// out\n        /* \"#utility.yul\":4299:4407   */\n    tag_28:\n        /* \"#utility.yul\":4376:4400   */\n      tag_107\n        /* \"#utility.yul\":4394:4399   */\n      dup2\n        /* \"#utility.yul\":4376:4400   */\n      tag_108\n      jump\t// in\n    tag_107:\n        /* \"#utility.yul\":4371:4374   */\n      dup3\n        /* \"#utility.yul\":4364:4401   */\n      mstore\n        /* \"#utility.yul\":4299:4407   */\n      pop\n      pop\n      jump\t// out\n        /* \"#utility.yul\":4413:4531   */\n    tag_109:\n        /* \"#utility.yul\":4500:4524   */\n      tag_111\n        /* \"#utility.yul\":4518:4523   */\n      dup2\n        /* \"#utility.yul\":4500:4524   */\n      tag_108\n      jump\t// in\n    tag_111:\n        /* \"#utility.yul\":4495:4498   */\n      dup3\n        /* \"#utility.yul\":4488:4525   */\n      mstore\n        /* \"#utility.yul\":4413:4531   */\n      pop\n      pop\n      jump\t// out\n        /* \"#utility.yul\":4537:4653   */\n    tag_32:\n        /* \"#utility.yul\":4622:4646   */\n      tag_113\n        /* \"#utility.yul\":4640:4645   */\n      dup2\n        /* \"#utility.yul\":4622:4646   */\n      tag_108\n      jump\t// in\n    tag_113:\n        /* \"#utility.yul\":4617:4620   */\n      dup3\n        /* \"#utility.yul\":4610:4647   */\n      mstore\n        /* \"#utility.yul\":4537:4653   */\n      pop\n      pop\n      jump\t// out\n        /* \"#utility.yul\":4659:4816   */\n    tag_114:\n        /* \"#utility.yul\":4764:4809   */\n      tag_116\n        /* \"#utility.yul\":4784:4808   */\n      tag_117\n        /* \"#utility.yul\":4802:4807   */\n      dup3\n        /* \"#utility.yul\":4784:4808   */\n      tag_108\n      jump\t// in\n    tag_117:\n        /* \"#utility.yul\":4764:4809   */\n      tag_118\n      jump\t// in\n    tag_116:\n        /* \"#utility.yul\":4759:4762   */\n      dup3\n        /* \"#utility.yul\":4752:4810   */\n      mstore\n        /* \"#utility.yul\":4659:4816   */\n      pop\n      pop\n      jump\t// out\n        /* \"#utility.yul\":4822:5600   */\n    tag_18:\n        /* \"#utility.yul\":5078:5081   */\n      0x00\n        /* \"#utility.yul\":5093:5168   */\n      tag_120\n        /* \"#utility.yul\":5164:5167   */\n      dup3\n        /* \"#utility.yul\":5155:5161   */\n      dup8\n        /* \"#utility.yul\":5093:5168   */\n      tag_114\n      jump\t// in\n    tag_120:\n        /* \"#utility.yul\":5193:5195   */\n      0x20\n        /* \"#utility.yul\":5188:5191   */\n      dup3\n        /* \"#utility.yul\":5184:5196   */\n      add\n        /* \"#utility.yul\":5177:5196   */\n      swap2\n      pop\n        /* \"#utility.yul\":5206:5281   */\n      tag_121\n        /* \"#utility.yul\":5277:5280   */\n      dup3\n        /* \"#utility.yul\":5268:5274   */\n      dup7\n        /* \"#utility.yul\":5206:5281   */\n      tag_37\n      jump\t// in\n    tag_121:\n        /* \"#utility.yul\":5306:5308   */\n      0x14\n        /* \"#utility.yul\":5301:5304   */\n      dup3\n        /* \"#utility.yul\":5297:5309   */\n      add\n        /* \"#utility.yul\":5290:5309   */\n      swap2\n      pop\n        /* \"#utility.yul\":5326:5418   */\n      tag_122\n        /* \"#utility.yul\":5414:5417   */\n      dup3\n        /* \"#utility.yul\":5405:5411   */\n      dup6\n        /* \"#utility.yul\":5326:5418   */\n      tag_94\n      jump\t// in\n    tag_122:\n        /* \"#utility.yul\":5319:5418   */\n      swap2\n      pop\n        /* \"#utility.yul\":5428:5546   */\n      tag_123\n        /* \"#utility.yul\":5542:5545   */\n      dup3\n        /* \"#utility.yul\":5533:5539   */\n      dup5\n        /* \"#utility.yul\":5428:5546   */\n      tag_58\n      jump\t// in\n    tag_123:\n        /* \"#utility.yul\":5571:5573   */\n      0x40\n        /* \"#utility.yul\":5566:5569   */\n      dup3\n        /* \"#utility.yul\":5562:5574   */\n      add\n        /* \"#utility.yul\":5555:5574   */\n      swap2\n      pop\n        /* \"#utility.yul\":5591:5594   */\n      dup2\n        /* \"#utility.yul\":5584:5594   */\n      swap1\n      pop\n        /* \"#utility.yul\":4822:5600   */\n      swap6\n      swap5\n      pop\n      pop\n      pop\n      pop\n      pop\n      jump\t// out\n        /* \"#utility.yul\":5606:5915   */\n    tag_9:\n        /* \"#utility.yul\":5717:5721   */\n      0x00\n        /* \"#utility.yul\":5755:5757   */\n      0x20\n        /* \"#utility.yul\":5744:5753   */\n      dup3\n        /* \"#utility.yul\":5740:5758   */\n      add\n        /* \"#utility.yul\":5732:5758   */\n      swap1\n      pop\n        /* \"#utility.yul\":5804:5813   */\n      dup2\n        /* \"#utility.yul\":5798:5802   */\n      dup2\n        /* \"#utility.yul\":5794:5814   */\n      sub\n        /* \"#utility.yul\":5790:5791   */\n      0x00\n        /* \"#utility.yul\":5779:5788   */\n      dup4\n        /* \"#utility.yul\":5775:5792   */\n      add\n        /* \"#utility.yul\":5768:5815   */\n      mstore\n        /* \"#utility.yul\":5832:5908   */\n      tag_125\n        /* \"#utility.yul\":5903:5907   */\n      dup2\n        /* \"#utility.yul\":5894:5900   */\n      dup5\n        /* \"#utility.yul\":5832:5908   */\n      tag_70\n      jump\t// in\n    tag_125:\n        /* \"#utility.yul\":5824:5908   */\n      swap1\n      pop\n        /* \"#utility.yul\":5606:5915   */\n      swap3\n      swap2\n      pop\n      pop\n      jump\t// out\n        /* \"#utility.yul\":5921:6645   */\n    tag_21:\n        /* \"#utility.yul\":6158:6162   */\n      0x00\n        /* \"#utility.yul\":6196:6199   */\n      0xa0\n        /* \"#utility.yul\":6185:6194   */\n      dup3\n        /* \"#utility.yul\":6181:6200   */\n      add\n        /* \"#utility.yul\":6173:6200   */\n      swap1\n      pop\n        /* \"#utility.yul\":6210:6281   */\n      tag_127\n        /* \"#utility.yul\":6278:6279   */\n      0x00\n        /* \"#utility.yul\":6267:6276   */\n      dup4\n        /* \"#utility.yul\":6263:6280   */\n      add\n        /* \"#utility.yul\":6254:6260   */\n      dup8\n        /* \"#utility.yul\":6210:6281   */\n      tag_109\n      jump\t// in\n    tag_127:\n        /* \"#utility.yul\":6291:6363   */\n      tag_128\n        /* \"#utility.yul\":6359:6361   */\n      0x20\n        /* \"#utility.yul\":6348:6357   */\n      dup4\n        /* \"#utility.yul\":6344:6362   */\n      add\n        /* \"#utility.yul\":6335:6341   */\n      dup7\n        /* \"#utility.yul\":6291:6363   */\n      tag_33\n      jump\t// in\n    tag_128:\n        /* \"#utility.yul\":6410:6419   */\n      dup2\n        /* \"#utility.yul\":6404:6408   */\n      dup2\n        /* \"#utility.yul\":6400:6420   */\n      sub\n        /* \"#utility.yul\":6395:6397   */\n      0x40\n        /* \"#utility.yul\":6384:6393   */\n      dup4\n        /* \"#utility.yul\":6380:6398   */\n      add\n        /* \"#utility.yul\":6373:6421   */\n      mstore\n        /* \"#utility.yul\":6438:6513   */\n      tag_129\n        /* \"#utility.yul\":6508:6512   */\n      dup2\n        /* \"#utility.yul\":6499:6505   */\n      dup6\n        /* \"#utility.yul\":6438:6513   */\n      tag_80\n      jump\t// in\n    tag_129:\n        /* \"#utility.yul\":6430:6513   */\n      swap1\n      pop\n        /* \"#utility.yul\":6523:6638   */\n      tag_130\n        /* \"#utility.yul\":6634:6636   */\n      0x60\n        /* \"#utility.yul\":6623:6632   */\n      dup4\n        /* \"#utility.yul\":6619:6637   */\n      add\n        /* \"#utility.yul\":6610:6616   */\n      dup5\n        /* \"#utility.yul\":6523:6638   */\n      tag_42\n      jump\t// in\n    tag_130:\n        /* \"#utility.yul\":5921:6645   */\n      swap6\n      swap5\n      pop\n      pop\n      pop\n      pop\n      pop\n      jump\t// out\n        /* \"#utility.yul\":6651:6746   */\n    tag_49:\n        /* \"#utility.yul\":6713:6717   */\n      0x00\n        /* \"#utility.yul\":6736:6739   */\n      dup2\n        /* \"#utility.yul\":6728:6739   */\n      swap1\n      pop\n        /* \"#utility.yul\":6651:6746   */\n      swap2\n      swap1\n      pop\n      jump\t// out\n        /* \"#utility.yul\":6752:6893   */\n    tag_90:\n        /* \"#utility.yul\":6801:6805   */\n      0x00\n        /* \"#utility.yul\":6824:6827   */\n      dup2\n        /* \"#utility.yul\":6816:6827   */\n      swap1\n      pop\n        /* \"#utility.yul\":6847:6850   */\n      dup2\n        /* \"#utility.yul\":6844:6845   */\n      0x00\n        /* \"#utility.yul\":6837:6851   */\n      mstore\n        /* \"#utility.yul\":6881:6885   */\n      0x20\n        /* \"#utility.yul\":6878:6879   */\n      0x00\n        /* \"#utility.yul\":6868:6886   */\n      keccak256\n        /* \"#utility.yul\":6860:6886   */\n      swap1\n      pop\n        /* \"#utility.yul\":6752:6893   */\n      swap2\n      swap1\n      pop\n      jump\t// out\n        /* \"#utility.yul\":6899:7000   */\n    tag_45:\n        /* \"#utility.yul\":6961:6967   */\n      0x00\n        /* \"#utility.yul\":6989:6993   */\n      0x02\n        /* \"#utility.yul\":6979:6993   */\n      swap1\n      pop\n        /* \"#utility.yul\":6899:7000   */\n      swap2\n      swap1\n      pop\n      jump\t// out\n        /* \"#utility.yul\":7006:7104   */\n    tag_73:\n        /* \"#utility.yul\":7057:7063   */\n      0x00\n        /* \"#utility.yul\":7091:7096   */\n      dup2\n        /* \"#utility.yul\":7085:7097   */\n      mload\n        /* \"#utility.yul\":7075:7097   */\n      swap1\n      pop\n        /* \"#utility.yul\":7006:7104   */\n      swap2\n      swap1\n      pop\n      jump\t// out\n        /* \"#utility.yul\":7110:7218   */\n    tag_57:\n        /* \"#utility.yul\":7175:7179   */\n      0x00\n        /* \"#utility.yul\":7207:7211   */\n      0x01\n        /* \"#utility.yul\":7202:7205   */\n      dup3\n        /* \"#utility.yul\":7198:7212   */\n      add\n        /* \"#utility.yul\":7190:7212   */\n      swap1\n      pop\n        /* \"#utility.yul\":7110:7218   */\n      swap2\n      swap1\n      pop\n      jump\t// out\n        /* \"#utility.yul\":7224:7367   */\n    tag_47:\n        /* \"#utility.yul\":7321:7332   */\n      0x00\n        /* \"#utility.yul\":7358:7361   */\n      dup2\n        /* \"#utility.yul\":7343:7361   */\n      swap1\n      pop\n        /* \"#utility.yul\":7224:7367   */\n      swap3\n      swap2\n      pop\n      pop\n      jump\t// out\n        /* \"#utility.yul\":7373:7534   */\n    tag_62:\n        /* \"#utility.yul\":7488:7499   */\n      0x00\n        /* \"#utility.yul\":7525:7528   */\n      dup2\n        /* \"#utility.yul\":7510:7528   */\n      swap1\n      pop\n        /* \"#utility.yul\":7373:7534   */\n      swap3\n      swap2\n      pop\n      pop\n      jump\t// out\n        /* \"#utility.yul\":7540:7708   */\n    tag_75:\n        /* \"#utility.yul\":7623:7634   */\n      0x00\n        /* \"#utility.yul\":7657:7663   */\n      dup3\n        /* \"#utility.yul\":7652:7655   */\n      dup3\n        /* \"#utility.yul\":7645:7664   */\n      mstore\n        /* \"#utility.yul\":7697:7701   */\n      0x20\n        /* \"#utility.yul\":7692:7695   */\n      dup3\n        /* \"#utility.yul\":7688:7702   */\n      add\n        /* \"#utility.yul\":7673:7702   */\n      swap1\n      pop\n        /* \"#utility.yul\":7540:7708   */\n      swap3\n      swap2\n      pop\n      pop\n      jump\t// out\n        /* \"#utility.yul\":7714:7883   */\n    tag_85:\n        /* \"#utility.yul\":7798:7809   */\n      0x00\n        /* \"#utility.yul\":7832:7838   */\n      dup3\n        /* \"#utility.yul\":7827:7830   */\n      dup3\n        /* \"#utility.yul\":7820:7839   */\n      mstore\n        /* \"#utility.yul\":7872:7876   */\n      0x20\n        /* \"#utility.yul\":7867:7870   */\n      dup3\n        /* \"#utility.yul\":7863:7877   */\n      add\n        /* \"#utility.yul\":7848:7877   */\n      swap1\n      pop\n        /* \"#utility.yul\":7714:7883   */\n      swap3\n      swap2\n      pop\n      pop\n      jump\t// out\n        /* \"#utility.yul\":7889:8037   */\n    tag_98:\n        /* \"#utility.yul\":7991:8002   */\n      0x00\n        /* \"#utility.yul\":8028:8031   */\n      dup2\n        /* \"#utility.yul\":8013:8031   */\n      swap1\n      pop\n        /* \"#utility.yul\":7889:8037   */\n      swap3\n      swap2\n      pop\n      pop\n      jump\t// out\n        /* \"#utility.yul\":8043:8133   */\n    tag_141:\n        /* \"#utility.yul\":8093:8100   */\n      0x00\n        /* \"#utility.yul\":8122:8127   */\n      dup2\n        /* \"#utility.yul\":8111:8127   */\n      swap1\n      pop\n        /* \"#utility.yul\":8043:8133   */\n      swap2\n      swap1\n      pop\n      jump\t// out\n        /* \"#utility.yul\":8139:8235   */\n    tag_36:\n        /* \"#utility.yul\":8176:8183   */\n      0x00\n        /* \"#utility.yul\":8205:8229   */\n      tag_144\n        /* \"#utility.yul\":8223:8228   */\n      dup3\n        /* \"#utility.yul\":8205:8229   */\n      tag_145\n      jump\t// in\n    tag_144:\n        /* \"#utility.yul\":8194:8229   */\n      swap1\n      pop\n        /* \"#utility.yul\":8139:8235   */\n      swap2\n      swap1\n      pop\n      jump\t// out\n        /* \"#utility.yul\":8241:8367   */\n    tag_145:\n        /* \"#utility.yul\":8278:8285   */\n      0x00\n        /* \"#utility.yul\":8318:8360   */\n      0xffffffffffffffffffffffffffffffffffffffff\n        /* \"#utility.yul\":8311:8316   */\n      dup3\n        /* \"#utility.yul\":8307:8361   */\n      and\n        /* \"#utility.yul\":8296:8361   */\n      swap1\n      pop\n        /* \"#utility.yul\":8241:8367   */\n      swap2\n      swap1\n      pop\n      jump\t// out\n        /* \"#utility.yul\":8373:8450   */\n    tag_108:\n        /* \"#utility.yul\":8410:8417   */\n      0x00\n        /* \"#utility.yul\":8439:8444   */\n      dup2\n        /* \"#utility.yul\":8428:8444   */\n      swap1\n      pop\n        /* \"#utility.yul\":8373:8450   */\n      swap2\n      swap1\n      pop\n      jump\t// out\n        /* \"#utility.yul\":8456:8763   */\n    tag_77:\n        /* \"#utility.yul\":8524:8525   */\n      0x00\n        /* \"#utility.yul\":8534:8647   */\n    tag_149:\n        /* \"#utility.yul\":8548:8554   */\n      dup4\n        /* \"#utility.yul\":8545:8546   */\n      dup2\n        /* \"#utility.yul\":8542:8555   */\n      lt\n        /* \"#utility.yul\":8534:8647   */\n      iszero\n      tag_151\n      jumpi\n        /* \"#utility.yul\":8633:8634   */\n      dup1\n        /* \"#utility.yul\":8628:8631   */\n      dup3\n        /* \"#utility.yul\":8624:8635   */\n      add\n        /* \"#utility.yul\":8618:8636   */\n      mload\n        /* \"#utility.yul\":8614:8615   */\n      dup2\n        /* \"#utility.yul\":8609:8612   */\n      dup5\n        /* \"#utility.yul\":8605:8616   */\n      add\n        /* \"#utility.yul\":8598:8637   */\n      mstore\n        /* \"#utility.yul\":8570:8572   */\n      0x20\n        /* \"#utility.yul\":8567:8568   */\n      dup2\n        /* \"#utility.yul\":8563:8573   */\n      add\n        /* \"#utility.yul\":8558:8573   */\n      swap1\n      pop\n        /* \"#utility.yul\":8534:8647   */\n      jump(tag_149)\n    tag_151:\n        /* \"#utility.yul\":8665:8671   */\n      dup4\n        /* \"#utility.yul\":8662:8663   */\n      dup2\n        /* \"#utility.yul\":8659:8672   */\n      gt\n        /* \"#utility.yul\":8656:8757   */\n      iszero\n      tag_152\n      jumpi\n        /* \"#utility.yul\":8745:8746   */\n      0x00\n        /* \"#utility.yul\":8736:8742   */\n      dup5\n        /* \"#utility.yul\":8731:8734   */\n      dup5\n        /* \"#utility.yul\":8727:8743   */\n      add\n        /* \"#utility.yul\":8720:8747   */\n      mstore\n        /* \"#utility.yul\":8656:8757   */\n    tag_152:\n        /* \"#utility.yul\":8505:8763   */\n      pop\n        /* \"#utility.yul\":8456:8763   */\n      pop\n      pop\n      pop\n      jump\t// out\n        /* \"#utility.yul\":8769:9089   */\n    tag_83:\n        /* \"#utility.yul\":8813:8819   */\n      0x00\n        /* \"#utility.yul\":8850:8851   */\n      0x02\n        /* \"#utility.yul\":8844:8848   */\n      dup3\n        /* \"#utility.yul\":8840:8852   */\n      div\n        /* \"#utility.yul\":8830:8852   */\n      swap1\n      pop\n        /* \"#utility.yul\":8897:8898   */\n      0x01\n        /* \"#utility.yul\":8891:8895   */\n      dup3\n        /* \"#utility.yul\":8887:8899   */\n      and\n        /* \"#utility.yul\":8918:8936   */\n      dup1\n        /* \"#utility.yul\":8908:8989   */\n      tag_154\n      jumpi\n        /* \"#utility.yul\":8974:8978   */\n      0x7f\n        /* \"#utility.yul\":8966:8972   */\n      dup3\n        /* \"#utility.yul\":8962:8979   */\n      and\n        /* \"#utility.yul\":8952:8979   */\n      swap2\n      pop\n        /* \"#utility.yul\":8908:8989   */\n    tag_154:\n        /* \"#utility.yul\":9036:9038   */\n      0x20\n        /* \"#utility.yul\":9028:9034   */\n      dup3\n        /* \"#utility.yul\":9025:9039   */\n      lt\n        /* \"#utility.yul\":9005:9023   */\n      dup2\n        /* \"#utility.yul\":9002:9040   */\n      eq\n        /* \"#utility.yul\":8999:9083   */\n      iszero\n      tag_155\n      jumpi\n        /* \"#utility.yul\":9055:9073   */\n      tag_156\n      tag_157\n      jump\t// in\n    tag_156:\n        /* \"#utility.yul\":8999:9083   */\n    tag_155:\n        /* \"#utility.yul\":8820:9089   */\n      pop\n        /* \"#utility.yul\":8769:9089   */\n      swap2\n      swap1\n      pop\n      jump\t// out\n        /* \"#utility.yul\":9095:9261   */\n    tag_158:\n        /* \"#utility.yul\":9164:9169   */\n      0x00\n        /* \"#utility.yul\":9189:9255   */\n      tag_160\n        /* \"#utility.yul\":9220:9254   */\n      tag_161\n        /* \"#utility.yul\":9243:9253   */\n      dup4\n        /* \"#utility.yul\":9220:9254   */\n      tag_162\n      jump\t// in\n    tag_161:\n        /* \"#utility.yul\":9189:9255   */\n      tag_141\n      jump\t// in\n    tag_160:\n        /* \"#utility.yul\":9180:9255   */\n      swap1\n      pop\n        /* \"#utility.yul\":9095:9261   */\n      swap2\n      swap1\n      pop\n      jump\t// out\n        /* \"#utility.yul\":9267:9367   */\n    tag_41:\n        /* \"#utility.yul\":9306:9313   */\n      0x00\n        /* \"#utility.yul\":9335:9361   */\n      tag_164\n        /* \"#utility.yul\":9355:9360   */\n      dup3\n        /* \"#utility.yul\":9335:9361   */\n      tag_165\n      jump\t// in\n    tag_164:\n        /* \"#utility.yul\":9324:9361   */\n      swap1\n      pop\n        /* \"#utility.yul\":9267:9367   */\n      swap2\n      swap1\n      pop\n      jump\t// out\n        /* \"#utility.yul\":9373:9467   */\n    tag_165:\n        /* \"#utility.yul\":9412:9419   */\n      0x00\n        /* \"#utility.yul\":9441:9461   */\n      tag_167\n        /* \"#utility.yul\":9455:9460   */\n      dup3\n        /* \"#utility.yul\":9441:9461   */\n      tag_168\n      jump\t// in\n    tag_167:\n        /* \"#utility.yul\":9430:9461   */\n      swap1\n      pop\n        /* \"#utility.yul\":9373:9467   */\n      swap2\n      swap1\n      pop\n      jump\t// out\n        /* \"#utility.yul\":9473:9552   */\n    tag_118:\n        /* \"#utility.yul\":9512:9519   */\n      0x00\n        /* \"#utility.yul\":9541:9546   */\n      dup2\n        /* \"#utility.yul\":9530:9546   */\n      swap1\n      pop\n        /* \"#utility.yul\":9473:9552   */\n      swap2\n      swap1\n      pop\n      jump\t// out\n        /* \"#utility.yul\":9558:9738   */\n    tag_157:\n        /* \"#utility.yul\":9606:9683   */\n      0x4e487b7100000000000000000000000000000000000000000000000000000000\n        /* \"#utility.yul\":9603:9604   */\n      0x00\n        /* \"#utility.yul\":9596:9684   */\n      mstore\n        /* \"#utility.yul\":9703:9707   */\n      0x22\n        /* \"#utility.yul\":9700:9701   */\n      0x04\n        /* \"#utility.yul\":9693:9708   */\n      mstore\n        /* \"#utility.yul\":9727:9731   */\n      0x24\n        /* \"#utility.yul\":9724:9725   */\n      0x00\n        /* \"#utility.yul\":9717:9732   */\n      revert\n        /* \"#utility.yul\":9744:9888   */\n    tag_54:\n        /* \"#utility.yul\":9799:9804   */\n      0x00\n        /* \"#utility.yul\":9824:9881   */\n      tag_172\n        /* \"#utility.yul\":9875:9879   */\n      dup3\n        /* \"#utility.yul\":9869:9880   */\n      sload\n        /* \"#utility.yul\":9824:9881   */\n      tag_158\n      jump\t// in\n    tag_172:\n        /* \"#utility.yul\":9815:9881   */\n      swap1\n      pop\n        /* \"#utility.yul\":9744:9888   */\n      swap2\n      swap1\n      pop\n      jump\t// out\n        /* \"#utility.yul\":9894:9996   */\n    tag_79:\n        /* \"#utility.yul\":9935:9941   */\n      0x00\n        /* \"#utility.yul\":9986:9988   */\n      0x1f\n        /* \"#utility.yul\":9982:9989   */\n      not\n        /* \"#utility.yul\":9977:9979   */\n      0x1f\n        /* \"#utility.yul\":9970:9975   */\n      dup4\n        /* \"#utility.yul\":9966:9980   */\n      add\n        /* \"#utility.yul\":9962:9990   */\n      and\n        /* \"#utility.yul\":9952:9990   */\n      swap1\n      pop\n        /* \"#utility.yul\":9894:9996   */\n      swap2\n      swap1\n      pop\n      jump\t// out\n        /* \"#utility.yul\":10002:10096   */\n    tag_168:\n        /* \"#utility.yul\":10035:10043   */\n      0x00\n        /* \"#utility.yul\":10083:10088   */\n      dup2\n        /* \"#utility.yul\":10079:10081   */\n      0x60\n        /* \"#utility.yul\":10075:10089   */\n      shl\n        /* \"#utility.yul\":10054:10089   */\n      swap1\n      pop\n        /* \"#utility.yul\":10002:10096   */\n      swap2\n      swap1\n      pop\n      jump\t// out\n        /* \"#utility.yul\":10102:10204   */\n    tag_162:\n        /* \"#utility.yul\":10144:10152   */\n      0x00\n        /* \"#utility.yul\":10191:10196   */\n      dup2\n        /* \"#utility.yul\":10188:10189   */\n      0x00\n        /* \"#utility.yul\":10184:10197   */\n      shr\n        /* \"#utility.yul\":10163:10197   */\n      swap1\n      pop\n        /* \"#utility.yul\":10102:10204   */\n      swap2\n      swap1\n      pop\n      jump\t// out\n\n    auxdata: 0xa2646970667358221220e45cbc7e74f6e4526267ed340c965d06de03e12638b18f4a121c0b3655d26afd64736f6c63430008070033\n}\n",
				"bytecode": {
					"linkReferences": {},
					"object": "6080604052600a600055737a58c0be72be218b41c608b7fe7c5bb630736c71600160006101000a81548173ffffffffffffffffffffffffffffffffffffffff021916908373ffffffffffffffffffffffffffffffffffffffff1602179055506040518060400160405280600481526020017f3078414100000000000000000000000000000000000000000000000000000000815250600290805190602001906100a99291906100ea565b506040518060400160405280600560ff168152602001600660ff1681525060039060026100d7929190610170565b503480156100e457600080fd5b50610233565b8280546100f6906101d2565b90600052602060002090601f016020900481019282610118576000855561015f565b82601f1061013157805160ff191683800117855561015f565b8280016001018555821561015f579182015b8281111561015e578251825591602001919060010190610143565b5b50905061016c91906101b5565b5090565b82600281019282156101a4579160200282015b828111156101a3578251829060ff16905591602001919060010190610183565b5b5090506101b191906101b5565b5090565b5b808211156101ce5760008160009055506001016101b6565b5090565b600060028204905060018216806101ea57607f821691505b602082108114156101fe576101fd610204565b5b50919050565b7f4e487b7100000000000000000000000000000000000000000000000000000000600052602260045260246000fd5b610768806102426000396000f3fe608060405234801561001057600080fd5b50600436106100415760003560e01c806353d9c50614610046578063bd14598f14610064578063e4f2a84a14610082575b600080fd5b61004e6100a0565b60405161005b91906104df565b60405180910390f35b61006c6100f3565b60405161007991906104df565b60405180910390f35b61008a610146565b60405161009791906104df565b60405180910390f35b6060600054600160009054906101000a900473ffffffffffffffffffffffffffffffffffffffff16600260036040516020016100df9493929190610495565b604051602081830303815290604052905090565b6060600054600160009054906101000a900473ffffffffffffffffffffffffffffffffffffffff16600260036040516020016101329493929190610501565b604051602081830303815290604052905090565b6060600054600160009054906101000a900473ffffffffffffffffffffffffffffffffffffffff16600260036040516024016101859493929190610501565b6040516020818303038152906040527fe87082f1000000000000000000000000000000000000000000000000000000007bffffffffffffffffffffffffffffffffffffffffffffffffffffffff19166020820180517bffffffffffffffffffffffffffffffffffffffffffffffffffffffff8381831617835250505050905090565b60006102138383610451565b60208301905092915050565b600061022b838361046f565b60208301905092915050565b610240816105dc565b82525050565b610257610252826105dc565b610697565b82525050565b6102668161056c565b610270818461058f565b925061027b8261054d565b8060005b838110156102b357610290826106f4565b61029a8782610207565b96506102a583610582565b92505060018101905061027f565b505050505050565b6102c48161056c565b6102ce818461059a565b92506102d98261054d565b8060005b83811015610311576102ee826106f4565b6102f8878261021f565b965061030383610582565b9250506001810190506102dd565b505050505050565b600061032482610577565b61032e81856105a5565b935061033e818560208601610618565b61034781610707565b840191505092915050565b6000815461035f8161064b565b61036981866105b6565b945060018216600081146103845760018114610396576103c9565b60ff19831686526020860193506103c9565b61039f85610557565b60005b838110156103c1578154818901526001820191506020810190506103a2565b808801955050505b50505092915050565b600081546103df8161064b565b6103e981866105c7565b94506001821660008114610404576001811461041557610448565b60ff19831686528186019350610448565b61041e85610557565b60005b8381101561044057815481890152600182019150602081019050610421565b838801955050505b50505092915050565b61045a8161060e565b82525050565b6104698161060e565b82525050565b6104788161060e565b82525050565b61048f61048a8261060e565b6106bb565b82525050565b60006104a1828761047e565b6020820191506104b18286610246565b6014820191506104c182856103d2565b91506104cd82846102bb565b60408201915081905095945050505050565b600060208201905081810360008301526104f98184610319565b905092915050565b600060a0820190506105166000830187610460565b6105236020830186610237565b81810360408301526105358185610352565b9050610544606083018461025d565b95945050505050565b6000819050919050565b60008190508160005260206000209050919050565b600060029050919050565b600081519050919050565b6000600182019050919050565b600081905092915050565b600081905092915050565b600082825260208201905092915050565b600082825260208201905092915050565b600081905092915050565b6000819050919050565b60006105e7826105ee565b9050919050565b600073ffffffffffffffffffffffffffffffffffffffff82169050919050565b6000819050919050565b60005b8381101561063657808201518184015260208101905061061b565b83811115610645576000848401525b50505050565b6000600282049050600182168061066357607f821691505b60208210811415610677576106766106c5565b5b50919050565b600061069061068b83610725565b6105d2565b9050919050565b60006106a2826106a9565b9050919050565b60006106b482610718565b9050919050565b6000819050919050565b7f4e487b7100000000000000000000000000000000000000000000000000000000600052602260045260246000fd5b6000610700825461067d565b9050919050565b6000601f19601f8301169050919050565b60008160601b9050919050565b60008160001c905091905056fea2646970667358221220e45cbc7e74f6e4526267ed340c965d06de03e12638b18f4a121c0b3655d26afd64736f6c63430008070033",
					"opcodes": "PUSH1 0x80 PUSH1 0x40 MSTORE PUSH1 0xA PUSH1 0x0 SSTORE PUSH20 0x7A58C0BE72BE218B41C608B7FE7C5BB630736C71 PUSH1 0x1 PUSH1 0x0 PUSH2 0x100 EXP DUP2 SLOAD DUP2 PUSH20 0xFFFFFFFFFFFFFFFFFFFFFFFFFFFFFFFFFFFFFFFF MUL NOT AND SWAP1 DUP4 PUSH20 0xFFFFFFFFFFFFFFFFFFFFFFFFFFFFFFFFFFFFFFFF AND MUL OR SWAP1 SSTORE POP PUSH1 0x40 MLOAD DUP1 PUSH1 0x40 ADD PUSH1 0x40 MSTORE DUP1 PUSH1 0x4 DUP2 MSTORE PUSH1 0x20 ADD PUSH32 0x3078414100000000000000000000000000000000000000000000000000000000 DUP2 MSTORE POP PUSH1 0x2 SWAP1 DUP1 MLOAD SWAP1 PUSH1 0x20 ADD SWAP1 PUSH2 0xA9 SWAP3 SWAP2 SWAP1 PUSH2 0xEA JUMP JUMPDEST POP PUSH1 0x40 MLOAD DUP1 PUSH1 0x40 ADD PUSH1 0x40 MSTORE DUP1 PUSH1 0x5 PUSH1 0xFF AND DUP2 MSTORE PUSH1 0x20 ADD PUSH1 0x6 PUSH1 0xFF AND DUP2 MSTORE POP PUSH1 0x3 SWAP1 PUSH1 0x2 PUSH2 0xD7 SWAP3 SWAP2 SWAP1 PUSH2 0x170 JUMP JUMPDEST POP CALLVALUE DUP1 ISZERO PUSH2 0xE4 JUMPI PUSH1 0x0 DUP1 REVERT JUMPDEST POP PUSH2 0x233 JUMP JUMPDEST DUP3 DUP1 SLOAD PUSH2 0xF6 SWAP1 PUSH2 0x1D2 JUMP JUMPDEST SWAP1 PUSH1 0x0 MSTORE PUSH1 0x20 PUSH1 0x0 KECCAK256 SWAP1 PUSH1 0x1F ADD PUSH1 0x20 SWAP1 DIV DUP2 ADD SWAP3 DUP3 PUSH2 0x118 JUMPI PUSH1 0x0 DUP6 SSTORE PUSH2 0x15F JUMP JUMPDEST DUP3 PUSH1 0x1F LT PUSH2 0x131 JUMPI DUP1 MLOAD PUSH1 0xFF NOT AND DUP4 DUP1 ADD OR DUP6 SSTORE PUSH2 0x15F JUMP JUMPDEST DUP3 DUP1 ADD PUSH1 0x1 ADD DUP6 SSTORE DUP3 ISZERO PUSH2 0x15F JUMPI SWAP2 DUP3 ADD JUMPDEST DUP3 DUP2 GT ISZERO PUSH2 0x15E JUMPI DUP3 MLOAD DUP3 SSTORE SWAP2 PUSH1 0x20 ADD SWAP2 SWAP1 PUSH1 0x1 ADD SWAP1 PUSH2 0x143 JUMP JUMPDEST JUMPDEST POP SWAP1 POP PUSH2 0x16C SWAP2 SWAP1 PUSH2 0x1B5 JUMP JUMPDEST POP SWAP1 JUMP JUMPDEST DUP3 PUSH1 0x2 DUP2 ADD SWAP3 DUP3 ISZERO PUSH2 0x1A4 JUMPI SWAP2 PUSH1 0x20 MUL DUP3 ADD JUMPDEST DUP3 DUP2 GT ISZERO PUSH2 0x1A3 JUMPI DUP3 MLOAD DUP3 SWAP1 PUSH1 0xFF AND SWAP1 SSTORE SWAP2 PUSH1 0x20 ADD SWAP2 SWAP1 PUSH1 0x1 ADD SWAP1 PUSH2 0x183 JUMP JUMPDEST JUMPDEST POP SWAP1 POP PUSH2 0x1B1 SWAP2 SWAP1 PUSH2 0x1B5 JUMP JUMPDEST POP SWAP1 JUMP JUMPDEST JUMPDEST DUP1 DUP3 GT ISZERO PUSH2 0x1CE JUMPI PUSH1 0x0 DUP2 PUSH1 0x0 SWAP1 SSTORE POP PUSH1 0x1 ADD PUSH2 0x1B6 JUMP JUMPDEST POP SWAP1 JUMP JUMPDEST PUSH1 0x0 PUSH1 0x2 DUP3 DIV SWAP1 POP PUSH1 0x1 DUP3 AND DUP1 PUSH2 0x1EA JUMPI PUSH1 0x7F DUP3 AND SWAP2 POP JUMPDEST PUSH1 0x20 DUP3 LT DUP2 EQ ISZERO PUSH2 0x1FE JUMPI PUSH2 0x1FD PUSH2 0x204 JUMP JUMPDEST JUMPDEST POP SWAP2 SWAP1 POP JUMP JUMPDEST PUSH32 0x4E487B7100000000000000000000000000000000000000000000000000000000 PUSH1 0x0 MSTORE PUSH1 0x22 PUSH1 0x4 MSTORE PUSH1 0x24 PUSH1 0x0 REVERT JUMPDEST PUSH2 0x768 DUP1 PUSH2 0x242 PUSH1 0x0 CODECOPY PUSH1 0x0 RETURN INVALID PUSH1 0x80 PUSH1 0x40 MSTORE CALLVALUE DUP1 ISZERO PUSH2 0x10 JUMPI PUSH1 0x0 DUP1 REVERT JUMPDEST POP PUSH1 0x4 CALLDATASIZE LT PUSH2 0x41 JUMPI PUSH1 0x0 CALLDATALOAD PUSH1 0xE0 SHR DUP1 PUSH4 0x53D9C506 EQ PUSH2 0x46 JUMPI DUP1 PUSH4 0xBD14598F EQ PUSH2 0x64 JUMPI DUP1 PUSH4 0xE4F2A84A EQ PUSH2 0x82 JUMPI JUMPDEST PUSH1 0x0 DUP1 REVERT JUMPDEST PUSH2 0x4E PUSH2 0xA0 JUMP JUMPDEST PUSH1 0x40 MLOAD PUSH2 0x5B SWAP2 SWAP1 PUSH2 0x4DF JUMP JUMPDEST PUSH1 0x40 MLOAD DUP1 SWAP2 SUB SWAP1 RETURN JUMPDEST PUSH2 0x6C PUSH2 0xF3 JUMP JUMPDEST PUSH1 0x40 MLOAD PUSH2 0x79 SWAP2 SWAP1 PUSH2 0x4DF JUMP JUMPDEST PUSH1 0x40 MLOAD DUP1 SWAP2 SUB SWAP1 RETURN JUMPDEST PUSH2 0x8A PUSH2 0x146 JUMP JUMPDEST PUSH1 0x40 MLOAD PUSH2 0x97 SWAP2 SWAP1 PUSH2 0x4DF JUMP JUMPDEST PUSH1 0x40 MLOAD DUP1 SWAP2 SUB SWAP1 RETURN JUMPDEST PUSH1 0x60 PUSH1 0x0 SLOAD PUSH1 0x1 PUSH1 0x0 SWAP1 SLOAD SWAP1 PUSH2 0x100 EXP SWAP1 DIV PUSH20 0xFFFFFFFFFFFFFFFFFFFFFFFFFFFFFFFFFFFFFFFF AND PUSH1 0x2 PUSH1 0x3 PUSH1 0x40 MLOAD PUSH1 0x20 ADD PUSH2 0xDF SWAP5 SWAP4 SWAP3 SWAP2 SWAP1 PUSH2 0x495 JUMP JUMPDEST PUSH1 0x40 MLOAD PUSH1 0x20 DUP2 DUP4 SUB SUB DUP2 MSTORE SWAP1 PUSH1 0x40 MSTORE SWAP1 POP SWAP1 JUMP JUMPDEST PUSH1 0x60 PUSH1 0x0 SLOAD PUSH1 0x1 PUSH1 0x0 SWAP1 SLOAD SWAP1 PUSH2 0x100 EXP SWAP1 DIV PUSH20 0xFFFFFFFFFFFFFFFFFFFFFFFFFFFFFFFFFFFFFFFF AND PUSH1 0x2 PUSH1 0x3 PUSH1 0x40 MLOAD PUSH1 0x20 ADD PUSH2 0x132 SWAP5 SWAP4 SWAP3 SWAP2 SWAP1 PUSH2 0x501 JUMP JUMPDEST PUSH1 0x40 MLOAD PUSH1 0x20 DUP2 DUP4 SUB SUB DUP2 MSTORE SWAP1 PUSH1 0x40 MSTORE SWAP1 POP SWAP1 JUMP JUMPDEST PUSH1 0x60 PUSH1 0x0 SLOAD PUSH1 0x1 PUSH1 0x0 SWAP1 SLOAD SWAP1 PUSH2 0x100 EXP SWAP1 DIV PUSH20 0xFFFFFFFFFFFFFFFFFFFFFFFFFFFFFFFFFFFFFFFF AND PUSH1 0x2 PUSH1 0x3 PUSH1 0x40 MLOAD PUSH1 0x24 ADD PUSH2 0x185 SWAP5 SWAP4 SWAP3 SWAP2 SWAP1 PUSH2 0x501 JUMP JUMPDEST PUSH1 0x40 MLOAD PUSH1 0x20 DUP2 DUP4 SUB SUB DUP2 MSTORE SWAP1 PUSH1 0x40 MSTORE PUSH32 0xE87082F100000000000000000000000000000000000000000000000000000000 PUSH28 0xFFFFFFFFFFFFFFFFFFFFFFFFFFFFFFFFFFFFFFFFFFFFFFFFFFFFFFFF NOT AND PUSH1 0x20 DUP3 ADD DUP1 MLOAD PUSH28 0xFFFFFFFFFFFFFFFFFFFFFFFFFFFFFFFFFFFFFFFFFFFFFFFFFFFFFFFF DUP4 DUP2 DUP4 AND OR DUP4 MSTORE POP POP POP POP SWAP1 POP SWAP1 JUMP JUMPDEST PUSH1 0x0 PUSH2 0x213 DUP4 DUP4 PUSH2 0x451 JUMP JUMPDEST PUSH1 0x20 DUP4 ADD SWAP1 POP SWAP3 SWAP2 POP POP JUMP JUMPDEST PUSH1 0x0 PUSH2 0x22B DUP4 DUP4 PUSH2 0x46F JUMP JUMPDEST PUSH1 0x20 DUP4 ADD SWAP1 POP SWAP3 SWAP2 POP POP JUMP JUMPDEST PUSH2 0x240 DUP2 PUSH2 0x5DC JUMP JUMPDEST DUP3 MSTORE POP POP JUMP JUMPDEST PUSH2 0x257 PUSH2 0x252 DUP3 PUSH2 0x5DC JUMP JUMPDEST PUSH2 0x697 JUMP JUMPDEST DUP3 MSTORE POP POP JUMP JUMPDEST PUSH2 0x266 DUP2 PUSH2 0x56C JUMP JUMPDEST PUSH2 0x270 DUP2 DUP5 PUSH2 0x58F JUMP JUMPDEST SWAP3 POP PUSH2 0x27B DUP3 PUSH2 0x54D JUMP JUMPDEST DUP1 PUSH1 0x0 JUMPDEST DUP4 DUP2 LT ISZERO PUSH2 0x2B3 JUMPI PUSH2 0x290 DUP3 PUSH2 0x6F4 JUMP JUMPDEST PUSH2 0x29A DUP8 DUP3 PUSH2 0x207 JUMP JUMPDEST SWAP7 POP PUSH2 0x2A5 DUP4 PUSH2 0x582 JUMP JUMPDEST SWAP3 POP POP PUSH1 0x1 DUP2 ADD SWAP1 POP PUSH2 0x27F JUMP JUMPDEST POP POP POP POP POP POP JUMP JUMPDEST PUSH2 0x2C4 DUP2 PUSH2 0x56C JUMP JUMPDEST PUSH2 0x2CE DUP2 DUP5 PUSH2 0x59A JUMP JUMPDEST SWAP3 POP PUSH2 0x2D9 DUP3 PUSH2 0x54D JUMP JUMPDEST DUP1 PUSH1 0x0 JUMPDEST DUP4 DUP2 LT ISZERO PUSH2 0x311 JUMPI PUSH2 0x2EE DUP3 PUSH2 0x6F4 JUMP JUMPDEST PUSH2 0x2F8 DUP8 DUP3 PUSH2 0x21F JUMP JUMPDEST SWAP7 POP PUSH2 0x303 DUP4 PUSH2 0x582 JUMP JUMPDEST SWAP3 POP POP PUSH1 0x1 DUP2 ADD SWAP1 POP PUSH2 0x2DD JUMP JUMPDEST POP POP POP POP POP POP JUMP JUMPDEST PUSH1 0x0 PUSH2 0x324 DUP3 PUSH2 0x577 JUMP JUMPDEST PUSH2 0x32E DUP2 DUP6 PUSH2 0x5A5 JUMP JUMPDEST SWAP4 POP PUSH2 0x33E DUP2 DUP6 PUSH1 0x20 DUP7 ADD PUSH2 0x618 JUMP JUMPDEST PUSH2 0x347 DUP2 PUSH2 0x707 JUMP JUMPDEST DUP5 ADD SWAP2 POP POP SWAP3 SWAP2 POP POP JUMP JUMPDEST PUSH1 0x0 DUP2 SLOAD PUSH2 0x35F DUP2 PUSH2 0x64B JUMP JUMPDEST PUSH2 0x369 DUP2 DUP7 PUSH2 0x5B6 JUMP JUMPDEST SWAP5 POP PUSH1 0x1 DUP3 AND PUSH1 0x0 DUP2 EQ PUSH2 0x384 JUMPI PUSH1 0x1 DUP2 EQ PUSH2 0x396 JUMPI PUSH2 0x3C9 JUMP JUMPDEST PUSH1 0xFF NOT DUP4 AND DUP7 MSTORE PUSH1 0x20 DUP7 ADD SWAP4 POP PUSH2 0x3C9 JUMP JUMPDEST PUSH2 0x39F DUP6 PUSH2 0x557 JUMP JUMPDEST PUSH1 0x0 JUMPDEST DUP4 DUP2 LT ISZERO PUSH2 0x3C1 JUMPI DUP2 SLOAD DUP2 DUP10 ADD MSTORE PUSH1 0x1 DUP3 ADD SWAP2 POP PUSH1 0x20 DUP2 ADD SWAP1 POP PUSH2 0x3A2 JUMP JUMPDEST DUP1 DUP9 ADD SWAP6 POP POP POP JUMPDEST POP POP POP SWAP3 SWAP2 POP POP JUMP JUMPDEST PUSH1 0x0 DUP2 SLOAD PUSH2 0x3DF DUP2 PUSH2 0x64B JUMP JUMPDEST PUSH2 0x3E9 DUP2 DUP7 PUSH2 0x5C7 JUMP JUMPDEST SWAP5 POP PUSH1 0x1 DUP3 AND PUSH1 0x0 DUP2 EQ PUSH2 0x404 JUMPI PUSH1 0x1 DUP2 EQ PUSH2 0x415 JUMPI PUSH2 0x448 JUMP JUMPDEST PUSH1 0xFF NOT DUP4 AND DUP7 MSTORE DUP2 DUP7 ADD SWAP4 POP PUSH2 0x448 JUMP JUMPDEST PUSH2 0x41E DUP6 PUSH2 0x557 JUMP JUMPDEST PUSH1 0x0 JUMPDEST DUP4 DUP2 LT ISZERO PUSH2 0x440 JUMPI DUP2 SLOAD DUP2 DUP10 ADD MSTORE PUSH1 0x1 DUP3 ADD SWAP2 POP PUSH1 0x20 DUP2 ADD SWAP1 POP PUSH2 0x421 JUMP JUMPDEST DUP4 DUP9 ADD SWAP6 POP POP POP JUMPDEST POP POP POP SWAP3 SWAP2 POP POP JUMP JUMPDEST PUSH2 0x45A DUP2 PUSH2 0x60E JUMP JUMPDEST DUP3 MSTORE POP POP JUMP JUMPDEST PUSH2 0x469 DUP2 PUSH2 0x60E JUMP JUMPDEST DUP3 MSTORE POP POP JUMP JUMPDEST PUSH2 0x478 DUP2 PUSH2 0x60E JUMP JUMPDEST DUP3 MSTORE POP POP JUMP JUMPDEST PUSH2 0x48F PUSH2 0x48A DUP3 PUSH2 0x60E JUMP JUMPDEST PUSH2 0x6BB JUMP JUMPDEST DUP3 MSTORE POP POP JUMP JUMPDEST PUSH1 0x0 PUSH2 0x4A1 DUP3 DUP8 PUSH2 0x47E JUMP JUMPDEST PUSH1 0x20 DUP3 ADD SWAP2 POP PUSH2 0x4B1 DUP3 DUP7 PUSH2 0x246 JUMP JUMPDEST PUSH1 0x14 DUP3 ADD SWAP2 POP PUSH2 0x4C1 DUP3 DUP6 PUSH2 0x3D2 JUMP JUMPDEST SWAP2 POP PUSH2 0x4CD DUP3 DUP5 PUSH2 0x2BB JUMP JUMPDEST PUSH1 0x40 DUP3 ADD SWAP2 POP DUP2 SWAP1 POP SWAP6 SWAP5 POP POP POP POP POP JUMP JUMPDEST PUSH1 0x0 PUSH1 0x20 DUP3 ADD SWAP1 POP DUP2 DUP2 SUB PUSH1 0x0 DUP4 ADD MSTORE PUSH2 0x4F9 DUP2 DUP5 PUSH2 0x319 JUMP JUMPDEST SWAP1 POP SWAP3 SWAP2 POP POP JUMP JUMPDEST PUSH1 0x0 PUSH1 0xA0 DUP3 ADD SWAP1 POP PUSH2 0x516 PUSH1 0x0 DUP4 ADD DUP8 PUSH2 0x460 JUMP JUMPDEST PUSH2 0x523 PUSH1 0x20 DUP4 ADD DUP7 PUSH2 0x237 JUMP JUMPDEST DUP2 DUP2 SUB PUSH1 0x40 DUP4 ADD MSTORE PUSH2 0x535 DUP2 DUP6 PUSH2 0x352 JUMP JUMPDEST SWAP1 POP PUSH2 0x544 PUSH1 0x60 DUP4 ADD DUP5 PUSH2 0x25D JUMP JUMPDEST SWAP6 SWAP5 POP POP POP POP POP JUMP JUMPDEST PUSH1 0x0 DUP2 SWAP1 POP SWAP2 SWAP1 POP JUMP JUMPDEST PUSH1 0x0 DUP2 SWAP1 POP DUP2 PUSH1 0x0 MSTORE PUSH1 0x20 PUSH1 0x0 KECCAK256 SWAP1 POP SWAP2 SWAP1 POP JUMP JUMPDEST PUSH1 0x0 PUSH1 0x2 SWAP1 POP SWAP2 SWAP1 POP JUMP JUMPDEST PUSH1 0x0 DUP2 MLOAD SWAP1 POP SWAP2 SWAP1 POP JUMP JUMPDEST PUSH1 0x0 PUSH1 0x1 DUP3 ADD SWAP1 POP SWAP2 SWAP1 POP JUMP JUMPDEST PUSH1 0x0 DUP2 SWAP1 POP SWAP3 SWAP2 POP POP JUMP JUMPDEST PUSH1 0x0 DUP2 SWAP1 POP SWAP3 SWAP2 POP POP JUMP JUMPDEST PUSH1 0x0 DUP3 DUP3 MSTORE PUSH1 0x20 DUP3 ADD SWAP1 POP SWAP3 SWAP2 POP POP JUMP JUMPDEST PUSH1 0x0 DUP3 DUP3 MSTORE PUSH1 0x20 DUP3 ADD SWAP1 POP SWAP3 SWAP2 POP POP JUMP JUMPDEST PUSH1 0x0 DUP2 SWAP1 POP SWAP3 SWAP2 POP POP JUMP JUMPDEST PUSH1 0x0 DUP2 SWAP1 POP SWAP2 SWAP1 POP JUMP JUMPDEST PUSH1 0x0 PUSH2 0x5E7 DUP3 PUSH2 0x5EE JUMP JUMPDEST SWAP1 POP SWAP2 SWAP1 POP JUMP JUMPDEST PUSH1 0x0 PUSH20 0xFFFFFFFFFFFFFFFFFFFFFFFFFFFFFFFFFFFFFFFF DUP3 AND SWAP1 POP SWAP2 SWAP1 POP JUMP JUMPDEST PUSH1 0x0 DUP2 SWAP1 POP SWAP2 SWAP1 POP JUMP JUMPDEST PUSH1 0x0 JUMPDEST DUP4 DUP2 LT ISZERO PUSH2 0x636 JUMPI DUP1 DUP3 ADD MLOAD DUP2 DUP5 ADD MSTORE PUSH1 0x20 DUP2 ADD SWAP1 POP PUSH2 0x61B JUMP JUMPDEST DUP4 DUP2 GT ISZERO PUSH2 0x645 JUMPI PUSH1 0x0 DUP5 DUP5 ADD MSTORE JUMPDEST POP POP POP POP JUMP JUMPDEST PUSH1 0x0 PUSH1 0x2 DUP3 DIV SWAP1 POP PUSH1 0x1 DUP3 AND DUP1 PUSH2 0x663 JUMPI PUSH1 0x7F DUP3 AND SWAP2 POP JUMPDEST PUSH1 0x20 DUP3 LT DUP2 EQ ISZERO PUSH2 0x677 JUMPI PUSH2 0x676 PUSH2 0x6C5 JUMP JUMPDEST JUMPDEST POP SWAP2 SWAP1 POP JUMP JUMPDEST PUSH1 0x0 PUSH2 0x690 PUSH2 0x68B DUP4 PUSH2 0x725 JUMP JUMPDEST PUSH2 0x5D2 JUMP JUMPDEST SWAP1 POP SWAP2 SWAP1 POP JUMP JUMPDEST PUSH1 0x0 PUSH2 0x6A2 DUP3 PUSH2 0x6A9 JUMP JUMPDEST SWAP1 POP SWAP2 SWAP1 POP JUMP JUMPDEST PUSH1 0x0 PUSH2 0x6B4 DUP3 PUSH2 0x718 JUMP JUMPDEST SWAP1 POP SWAP2 SWAP1 POP JUMP JUMPDEST PUSH1 0x0 DUP2 SWAP1 POP SWAP2 SWAP1 POP JUMP JUMPDEST PUSH32 0x4E487B7100000000000000000000000000000000000000000000000000000000 PUSH1 0x0 MSTORE PUSH1 0x22 PUSH1 0x4 MSTORE PUSH1 0x24 PUSH1 0x0 REVERT JUMPDEST PUSH1 0x0 PUSH2 0x700 DUP3 SLOAD PUSH2 0x67D JUMP JUMPDEST SWAP1 POP SWAP2 SWAP1 POP JUMP JUMPDEST PUSH1 0x0 PUSH1 0x1F NOT PUSH1 0x1F DUP4 ADD AND SWAP1 POP SWAP2 SWAP1 POP JUMP JUMPDEST PUSH1 0x0 DUP2 PUSH1 0x60 SHL SWAP1 POP SWAP2 SWAP1 POP JUMP JUMPDEST PUSH1 0x0 DUP2 PUSH1 0x0 SHR SWAP1 POP SWAP2 SWAP1 POP JUMP INVALID LOG2 PUSH5 0x6970667358 0x22 SLT KECCAK256 0xE4 0x5C 0xBC PUSH31 0x74F6E4526267ED340C965D06DE03E12638B18F4A121C0B3655D26AFD64736F PUSH13 0x63430008070033000000000000 "
				},
				"gasEstimates": {
					"creation": {
						"codeDepositCost": "379200",
						"executionCost": "infinite",
						"totalCost": "infinite"
					},
					"external": {
						"encode()": "infinite",
						"encodePacked()": "infinite",
						"encodeWithSignature()": "infinite"
					}
				},
				"methodIdentifiers": {
					"encode()": "bd14598f",
					"encodePacked()": "53d9c506",
					"encodeWithSignature()": "e4f2a84a"
				}
			},
			"storageLayout": {
				"storage": [
					{
						"astId": 4,
						"contract": "ABI编码.sol:test",
						"label": "x",
						"offset": 0,
						"slot": "0",
						"type": "t_uint256"
					},
					{
						"astId": 7,
						"contract": "ABI编码.sol:test",
						"label": "addr",
						"offset": 0,
						"slot": "1",
						"type": "t_address"
					},
					{
						"astId": 10,
						"contract": "ABI编码.sol:test",
						"label": "name",
						"offset": 0,
						"slot": "2",
						"type": "t_string_storage"
					},
					{
						"astId": 17,
						"contract": "ABI编码.sol:test",
						"label": "array",
						"offset": 0,
						"slot": "3",
						"type": "t_array(t_uint256)2_storage"
					}
				],
				"types": {
					"t_address": {
						"encoding": "inplace",
						"label": "address",
						"numberOfBytes": "20"
					},
					"t_array(t_uint256)2_storage": {
						"base": "t_uint256",
						"encoding": "inplace",
						"label": "uint256[2]",
						"numberOfBytes": "64"
					},
					"t_string_storage": {
						"encoding": "bytes",
						"label": "string",
						"numberOfBytes": "32"
					},
					"t_uint256": {
						"encoding": "inplace",
						"label": "uint256",
						"numberOfBytes": "32"
					}
				}
			},
			"userdoc": {
				"kind": "user",
				"methods": {},
				"version": 1
			}
		}
	}
}