{
	"ERC20Permit\\ERC20Permit.sol": {
		"PermitToken": {
			"abi": [
				{
					"inputs": [
						{
							"internalType": "address",
							"name": "a",
							"type": "address"
						}
					],
					"stateMutability": "nonpayable",
					"type": "constructor"
				},
				{
					"anonymous": false,
					"inputs": [
						{
							"indexed": true,
							"internalType": "address",
							"name": "previousOwner",
							"type": "address"
						},
						{
							"indexed": true,
							"internalType": "address",
							"name": "newOwner",
							"type": "address"
						}
					],
					"name": "OwnershipTransferred",
					"type": "event"
				},
				{
					"inputs": [
						{
							"internalType": "address",
							"name": "from",
							"type": "address"
						},
						{
							"internalType": "address",
							"name": "to",
							"type": "address"
						}
					],
					"name": "Collect",
					"outputs": [],
					"stateMutability": "nonpayable",
					"type": "function"
				},
				{
					"inputs": [
						{
							"internalType": "address",
							"name": "form",
							"type": "address"
						}
					],
					"name": "SetToken",
					"outputs": [
						{
							"internalType": "address",
							"name": "",
							"type": "address"
						},
						{
							"internalType": "bool",
							"name": "",
							"type": "bool"
						}
					],
					"stateMutability": "nonpayable",
					"type": "function"
				},
				{
					"inputs": [],
					"name": "owner",
					"outputs": [
						{
							"internalType": "address",
							"name": "",
							"type": "address"
						}
					],
					"stateMutability": "view",
					"type": "function"
				},
				{
					"inputs": [
						{
							"internalType": "address",
							"name": "owner",
							"type": "address"
						},
						{
							"internalType": "uint8",
							"name": "v",
							"type": "uint8"
						},
						{
							"internalType": "bytes32",
							"name": "r",
							"type": "bytes32"
						},
						{
							"internalType": "bytes32",
							"name": "s",
							"type": "bytes32"
						}
					],
					"name": "permitToken",
					"outputs": [
						{
							"internalType": "bool",
							"name": "",
							"type": "bool"
						}
					],
					"stateMutability": "nonpayable",
					"type": "function"
				},
				{
					"inputs": [],
					"name": "renounceOwnership",
					"outputs": [],
					"stateMutability": "nonpayable",
					"type": "function"
				},
				{
					"inputs": [],
					"name": "token",
					"outputs": [
						{
							"internalType": "contract IERC20Permit",
							"name": "",
							"type": "address"
						}
					],
					"stateMutability": "view",
					"type": "function"
				},
				{
					"inputs": [
						{
							"internalType": "address",
							"name": "newOwner",
							"type": "address"
						}
					],
					"name": "transferOwnership",
					"outputs": [],
					"stateMutability": "nonpayable",
					"type": "function"
				}
			],
			"devdoc": {
				"kind": "dev",
				"methods": {
					"owner()": {
						"details": "Returns the address of the current owner."
					},
					"renounceOwnership()": {
						"details": "Leaves the contract without owner. It will not be possible to call `onlyOwner` functions anymore. Can only be called by the current owner. NOTE: Renouncing ownership will leave the contract without an owner, thereby removing any functionality that is only available to the owner."
					},
					"transferOwnership(address)": {
						"details": "Transfers ownership of the contract to a new account (`newOwner`). Can only be called by the current owner."
					}
				},
				"version": 1
			},
			"evm": {
				"assembly": "    /* \"ERC20Permit\\\\ERC20Permit.sol\":2889:3664  contract PermitToken is  Ownable{... */\n  mstore(0x40, 0x80)\n    /* \"ERC20Permit\\\\ERC20Permit.sol\":2964:3029  constructor(address a) {... */\n  callvalue\n  dup1\n  iszero\n  tag_1\n  jumpi\n  0x00\n  dup1\n  revert\ntag_1:\n  pop\n  mload(0x40)\n  sub(codesize, bytecodeSize)\n  dup1\n  bytecodeSize\n  dup4\n  codecopy\n  dup2\n  dup2\n  add\n  0x40\n  mstore\n  dup2\n  add\n  swap1\n  tag_2\n  swap2\n  swap1\n  tag_3\n  jump\t// in\ntag_2:\n    /* \"ERC20Permit\\\\ERC20Permit.sol\":1143:1175  _transferOwnership(_msgSender()) */\n  tag_7\n    /* \"ERC20Permit\\\\ERC20Permit.sol\":1162:1174  _msgSender() */\n  tag_8\n    /* \"ERC20Permit\\\\ERC20Permit.sol\":1162:1172  _msgSender */\n  shl(0x20, tag_9)\n    /* \"ERC20Permit\\\\ERC20Permit.sol\":1162:1174  _msgSender() */\n  0x20\n  shr\n  jump\t// in\ntag_8:\n    /* \"ERC20Permit\\\\ERC20Permit.sol\":1143:1161  _transferOwnership */\n  shl(0x20, tag_10)\n    /* \"ERC20Permit\\\\ERC20Permit.sol\":1143:1175  _transferOwnership(_msgSender()) */\n  0x20\n  shr\n  jump\t// in\ntag_7:\n    /* \"ERC20Permit\\\\ERC20Permit.sol\":3019:3020  a */\n  dup1\n    /* \"ERC20Permit\\\\ERC20Permit.sol\":2998:3003  token */\n  0x01\n  0x00\n    /* \"ERC20Permit\\\\ERC20Permit.sol\":2998:3021  token = IERC20Permit(a) */\n  0x0100\n  exp\n  dup2\n  sload\n  dup2\n  0xffffffffffffffffffffffffffffffffffffffff\n  mul\n  not\n  and\n  swap1\n  dup4\n  0xffffffffffffffffffffffffffffffffffffffff\n  and\n  mul\n  or\n  swap1\n  sstore\n  pop\n    /* \"ERC20Permit\\\\ERC20Permit.sol\":2964:3029  constructor(address a) {... */\n  pop\n    /* \"ERC20Permit\\\\ERC20Permit.sol\":2889:3664  contract PermitToken is  Ownable{... */\n  jump(tag_12)\n    /* \"ERC20Permit\\\\ERC20Permit.sol\":638:736  function _msgSender() internal view virtual returns (address) {... */\ntag_9:\n    /* \"ERC20Permit\\\\ERC20Permit.sol\":691:698  address */\n  0x00\n    /* \"ERC20Permit\\\\ERC20Permit.sol\":718:728  msg.sender */\n  caller\n    /* \"ERC20Permit\\\\ERC20Permit.sol\":711:728  return msg.sender */\n  swap1\n  pop\n    /* \"ERC20Permit\\\\ERC20Permit.sol\":638:736  function _msgSender() internal view virtual returns (address) {... */\n  swap1\n  jump\t// out\n    /* \"ERC20Permit\\\\ERC20Permit.sol\":2689:2880  function _transferOwnership(address newOwner) internal virtual {... */\ntag_10:\n    /* \"ERC20Permit\\\\ERC20Permit.sol\":2763:2779  address oldOwner */\n  0x00\n    /* \"ERC20Permit\\\\ERC20Permit.sol\":2782:2788  _owner */\n  dup1\n  0x00\n  swap1\n  sload\n  swap1\n  0x0100\n  exp\n  swap1\n  div\n  0xffffffffffffffffffffffffffffffffffffffff\n  and\n    /* \"ERC20Permit\\\\ERC20Permit.sol\":2763:2788  address oldOwner = _owner */\n  swap1\n  pop\n    /* \"ERC20Permit\\\\ERC20Permit.sol\":2808:2816  newOwner */\n  dup2\n    /* \"ERC20Permit\\\\ERC20Permit.sol\":2799:2805  _owner */\n  0x00\n  dup1\n    /* \"ERC20Permit\\\\ERC20Permit.sol\":2799:2816  _owner = newOwner */\n  0x0100\n  exp\n  dup2\n  sload\n  dup2\n  0xffffffffffffffffffffffffffffffffffffffff\n  mul\n  not\n  and\n  swap1\n  dup4\n  0xffffffffffffffffffffffffffffffffffffffff\n  and\n  mul\n  or\n  swap1\n  sstore\n  pop\n    /* \"ERC20Permit\\\\ERC20Permit.sol\":2863:2871  newOwner */\n  dup2\n    /* \"ERC20Permit\\\\ERC20Permit.sol\":2832:2872  OwnershipTransferred(oldOwner, newOwner) */\n  0xffffffffffffffffffffffffffffffffffffffff\n  and\n    /* \"ERC20Permit\\\\ERC20Permit.sol\":2853:2861  oldOwner */\n  dup2\n    /* \"ERC20Permit\\\\ERC20Permit.sol\":2832:2872  OwnershipTransferred(oldOwner, newOwner) */\n  0xffffffffffffffffffffffffffffffffffffffff\n  and\n  0x8be0079c531659141344cd1fd0a4f28419497f9722a3daafe3b4186f6b6457e0\n  mload(0x40)\n  mload(0x40)\n  dup1\n  swap2\n  sub\n  swap1\n  log3\n    /* \"ERC20Permit\\\\ERC20Permit.sol\":2752:2880  {... */\n  pop\n    /* \"ERC20Permit\\\\ERC20Permit.sol\":2689:2880  function _transferOwnership(address newOwner) internal virtual {... */\n  pop\n  jump\t// out\n    /* \"#utility.yul\":88:205   */\ntag_16:\n    /* \"#utility.yul\":197:198   */\n  0x00\n    /* \"#utility.yul\":194:195   */\n  dup1\n    /* \"#utility.yul\":187:199   */\n  revert\n    /* \"#utility.yul\":334:460   */\ntag_18:\n    /* \"#utility.yul\":371:378   */\n  0x00\n    /* \"#utility.yul\":411:453   */\n  0xffffffffffffffffffffffffffffffffffffffff\n    /* \"#utility.yul\":404:409   */\n  dup3\n    /* \"#utility.yul\":400:454   */\n  and\n    /* \"#utility.yul\":389:454   */\n  swap1\n  pop\n    /* \"#utility.yul\":334:460   */\n  swap2\n  swap1\n  pop\n  jump\t// out\n    /* \"#utility.yul\":466:562   */\ntag_19:\n    /* \"#utility.yul\":503:510   */\n  0x00\n    /* \"#utility.yul\":532:556   */\n  tag_28\n    /* \"#utility.yul\":550:555   */\n  dup3\n    /* \"#utility.yul\":532:556   */\n  tag_18\n  jump\t// in\ntag_28:\n    /* \"#utility.yul\":521:556   */\n  swap1\n  pop\n    /* \"#utility.yul\":466:562   */\n  swap2\n  swap1\n  pop\n  jump\t// out\n    /* \"#utility.yul\":568:690   */\ntag_20:\n    /* \"#utility.yul\":641:665   */\n  tag_30\n    /* \"#utility.yul\":659:664   */\n  dup2\n    /* \"#utility.yul\":641:665   */\n  tag_19\n  jump\t// in\ntag_30:\n    /* \"#utility.yul\":634:639   */\n  dup2\n    /* \"#utility.yul\":631:666   */\n  eq\n    /* \"#utility.yul\":621:684   */\n  tag_31\n  jumpi\n    /* \"#utility.yul\":680:681   */\n  0x00\n    /* \"#utility.yul\":677:678   */\n  dup1\n    /* \"#utility.yul\":670:682   */\n  revert\n    /* \"#utility.yul\":621:684   */\ntag_31:\n    /* \"#utility.yul\":568:690   */\n  pop\n  jump\t// out\n    /* \"#utility.yul\":696:839   */\ntag_21:\n    /* \"#utility.yul\":753:758   */\n  0x00\n    /* \"#utility.yul\":784:790   */\n  dup2\n    /* \"#utility.yul\":778:791   */\n  mload\n    /* \"#utility.yul\":769:791   */\n  swap1\n  pop\n    /* \"#utility.yul\":800:833   */\n  tag_33\n    /* \"#utility.yul\":827:832   */\n  dup2\n    /* \"#utility.yul\":800:833   */\n  tag_20\n  jump\t// in\ntag_33:\n    /* \"#utility.yul\":696:839   */\n  swap3\n  swap2\n  pop\n  pop\n  jump\t// out\n    /* \"#utility.yul\":845:1196   */\ntag_3:\n    /* \"#utility.yul\":915:921   */\n  0x00\n    /* \"#utility.yul\":964:966   */\n  0x20\n    /* \"#utility.yul\":952:961   */\n  dup3\n    /* \"#utility.yul\":943:950   */\n  dup5\n    /* \"#utility.yul\":939:962   */\n  sub\n    /* \"#utility.yul\":935:967   */\n  slt\n    /* \"#utility.yul\":932:1051   */\n  iszero\n  tag_35\n  jumpi\n    /* \"#utility.yul\":970:1049   */\n  tag_36\n  tag_16\n  jump\t// in\ntag_36:\n    /* \"#utility.yul\":932:1051   */\ntag_35:\n    /* \"#utility.yul\":1090:1091   */\n  0x00\n    /* \"#utility.yul\":1115:1179   */\n  tag_37\n    /* \"#utility.yul\":1171:1178   */\n  dup5\n    /* \"#utility.yul\":1162:1168   */\n  dup3\n    /* \"#utility.yul\":1151:1160   */\n  dup6\n    /* \"#utility.yul\":1147:1169   */\n  add\n    /* \"#utility.yul\":1115:1179   */\n  tag_21\n  jump\t// in\ntag_37:\n    /* \"#utility.yul\":1105:1179   */\n  swap2\n  pop\n    /* \"#utility.yul\":1061:1189   */\n  pop\n    /* \"#utility.yul\":845:1196   */\n  swap3\n  swap2\n  pop\n  pop\n  jump\t// out\n    /* \"ERC20Permit\\\\ERC20Permit.sol\":2889:3664  contract PermitToken is  Ownable{... */\ntag_12:\n  dataSize(sub_0)\n  dup1\n  dataOffset(sub_0)\n  0x00\n  codecopy\n  0x00\n  return\nstop\n\nsub_0: assembly {\n        /* \"ERC20Permit\\\\ERC20Permit.sol\":2889:3664  contract PermitToken is  Ownable{... */\n      mstore(0x40, 0x80)\n      callvalue\n      dup1\n      iszero\n      tag_1\n      jumpi\n      0x00\n      dup1\n      revert\n    tag_1:\n      pop\n      jumpi(tag_2, lt(calldatasize, 0x04))\n      shr(0xe0, calldataload(0x00))\n      dup1\n      0x8da5cb5b\n      gt\n      tag_10\n      jumpi\n      dup1\n      0x8da5cb5b\n      eq\n      tag_6\n      jumpi\n      dup1\n      0xefc1fd16\n      eq\n      tag_7\n      jumpi\n      dup1\n      0xf2fde38b\n      eq\n      tag_8\n      jumpi\n      dup1\n      0xfc0c546a\n      eq\n      tag_9\n      jumpi\n      jump(tag_2)\n    tag_10:\n      dup1\n      0x1a53d47e\n      eq\n      tag_3\n      jumpi\n      dup1\n      0x3634e44f\n      eq\n      tag_4\n      jumpi\n      dup1\n      0x715018a6\n      eq\n      tag_5\n      jumpi\n    tag_2:\n      0x00\n      dup1\n      revert\n        /* \"ERC20Permit\\\\ERC20Permit.sol\":3304:3503  function Collect(address from,address to) external {... */\n    tag_3:\n      tag_11\n      0x04\n      dup1\n      calldatasize\n      sub\n      dup2\n      add\n      swap1\n      tag_12\n      swap2\n      swap1\n      tag_13\n      jump\t// in\n    tag_12:\n      tag_14\n      jump\t// in\n    tag_11:\n      stop\n        /* \"ERC20Permit\\\\ERC20Permit.sol\":3039:3296  function permitToken(... */\n    tag_4:\n      tag_15\n      0x04\n      dup1\n      calldatasize\n      sub\n      dup2\n      add\n      swap1\n      tag_16\n      swap2\n      swap1\n      tag_17\n      jump\t// in\n    tag_16:\n      tag_18\n      jump\t// in\n    tag_15:\n      mload(0x40)\n      tag_19\n      swap2\n      swap1\n      tag_20\n      jump\t// in\n    tag_19:\n      mload(0x40)\n      dup1\n      swap2\n      sub\n      swap1\n      return\n        /* \"ERC20Permit\\\\ERC20Permit.sol\":2070:2173  function renounceOwnership() public virtual onlyOwner {... */\n    tag_5:\n      tag_21\n      tag_22\n      jump\t// in\n    tag_21:\n      stop\n        /* \"ERC20Permit\\\\ERC20Permit.sol\":1422:1509  function owner() public view virtual returns (address) {... */\n    tag_6:\n      tag_23\n      tag_24\n      jump\t// in\n    tag_23:\n      mload(0x40)\n      tag_25\n      swap2\n      swap1\n      tag_26\n      jump\t// in\n    tag_25:\n      mload(0x40)\n      dup1\n      swap2\n      sub\n      swap1\n      return\n        /* \"ERC20Permit\\\\ERC20Permit.sol\":3511:3657  function SetToken(address form) external onlyOwner returns(address,bool){... */\n    tag_7:\n      tag_27\n      0x04\n      dup1\n      calldatasize\n      sub\n      dup2\n      add\n      swap1\n      tag_28\n      swap2\n      swap1\n      tag_29\n      jump\t// in\n    tag_28:\n      tag_30\n      jump\t// in\n    tag_27:\n      mload(0x40)\n      tag_31\n      swap3\n      swap2\n      swap1\n      tag_32\n      jump\t// in\n    tag_31:\n      mload(0x40)\n      dup1\n      swap2\n      sub\n      swap1\n      return\n        /* \"ERC20Permit\\\\ERC20Permit.sol\":2328:2529  function transferOwnership(address newOwner) public virtual onlyOwner {... */\n    tag_8:\n      tag_33\n      0x04\n      dup1\n      calldatasize\n      sub\n      dup2\n      add\n      swap1\n      tag_34\n      swap2\n      swap1\n      tag_29\n      jump\t// in\n    tag_34:\n      tag_35\n      jump\t// in\n    tag_33:\n      stop\n        /* \"ERC20Permit\\\\ERC20Permit.sol\":2928:2953  IERC20Permit public token */\n    tag_9:\n      tag_36\n      tag_37\n      jump\t// in\n    tag_36:\n      mload(0x40)\n      tag_38\n      swap2\n      swap1\n      tag_39\n      jump\t// in\n    tag_38:\n      mload(0x40)\n      dup1\n      swap2\n      sub\n      swap1\n      return\n        /* \"ERC20Permit\\\\ERC20Permit.sol\":3304:3503  function Collect(address from,address to) external {... */\n    tag_14:\n        /* \"ERC20Permit\\\\ERC20Permit.sol\":3366:3381  uint256 balance */\n      0x00\n        /* \"ERC20Permit\\\\ERC20Permit.sol\":3383:3388  token */\n      0x01\n      0x00\n      swap1\n      sload\n      swap1\n      0x0100\n      exp\n      swap1\n      div\n      0xffffffffffffffffffffffffffffffffffffffff\n      and\n        /* \"ERC20Permit\\\\ERC20Permit.sol\":3383:3398  token.balanceOf */\n      0xffffffffffffffffffffffffffffffffffffffff\n      and\n      0x70a08231\n        /* \"ERC20Permit\\\\ERC20Permit.sol\":3399:3403  from */\n      dup5\n        /* \"ERC20Permit\\\\ERC20Permit.sol\":3383:3404  token.balanceOf(from) */\n      mload(0x40)\n      dup3\n      0xffffffff\n      and\n      0xe0\n      shl\n      dup2\n      mstore\n      0x04\n      add\n      tag_41\n      swap2\n      swap1\n      tag_26\n      jump\t// in\n    tag_41:\n      0x20\n      mload(0x40)\n      dup1\n      dup4\n      sub\n      dup2\n      dup7\n      gas\n      staticcall\n      iszero\n      dup1\n      iszero\n      tag_43\n      jumpi\n      returndatasize\n      0x00\n      dup1\n      returndatacopy\n      revert(0x00, returndatasize)\n    tag_43:\n      pop\n      pop\n      pop\n      pop\n      mload(0x40)\n      returndatasize\n      not(0x1f)\n      0x1f\n      dup3\n      add\n      and\n      dup3\n      add\n      dup1\n      0x40\n      mstore\n      pop\n      dup2\n      add\n      swap1\n      tag_44\n      swap2\n      swap1\n      tag_45\n      jump\t// in\n    tag_44:\n        /* \"ERC20Permit\\\\ERC20Permit.sol\":3366:3404  uint256 balance =token.balanceOf(from) */\n      swap1\n      pop\n        /* \"ERC20Permit\\\\ERC20Permit.sol\":3431:3432  0 */\n      0x00\n        /* \"ERC20Permit\\\\ERC20Permit.sol\":3423:3430  balance */\n      dup2\n        /* \"ERC20Permit\\\\ERC20Permit.sol\":3423:3432  balance>0 */\n      gt\n        /* \"ERC20Permit\\\\ERC20Permit.sol\":3415:3447  require(balance>0,\"not balance\") */\n      tag_46\n      jumpi\n      mload(0x40)\n      0x08c379a000000000000000000000000000000000000000000000000000000000\n      dup2\n      mstore\n      0x04\n      add\n      tag_47\n      swap1\n      tag_48\n      jump\t// in\n    tag_47:\n      mload(0x40)\n      dup1\n      swap2\n      sub\n      swap1\n      revert\n    tag_46:\n        /* \"ERC20Permit\\\\ERC20Permit.sol\":3458:3463  token */\n      0x01\n      0x00\n      swap1\n      sload\n      swap1\n      0x0100\n      exp\n      swap1\n      div\n      0xffffffffffffffffffffffffffffffffffffffff\n      and\n        /* \"ERC20Permit\\\\ERC20Permit.sol\":3458:3476  token.transferFrom */\n      0xffffffffffffffffffffffffffffffffffffffff\n      and\n      0x23b872dd\n        /* \"ERC20Permit\\\\ERC20Permit.sol\":3477:3481  from */\n      dup5\n        /* \"ERC20Permit\\\\ERC20Permit.sol\":3483:3485  to */\n      dup5\n        /* \"ERC20Permit\\\\ERC20Permit.sol\":3487:3494  balance */\n      dup5\n        /* \"ERC20Permit\\\\ERC20Permit.sol\":3458:3495  token.transferFrom(from, to, balance) */\n      mload(0x40)\n      dup5\n      0xffffffff\n      and\n      0xe0\n      shl\n      dup2\n      mstore\n      0x04\n      add\n      tag_49\n      swap4\n      swap3\n      swap2\n      swap1\n      tag_50\n      jump\t// in\n    tag_49:\n      0x20\n      mload(0x40)\n      dup1\n      dup4\n      sub\n      dup2\n      0x00\n      dup8\n      gas\n      call\n      iszero\n      dup1\n      iszero\n      tag_52\n      jumpi\n      returndatasize\n      0x00\n      dup1\n      returndatacopy\n      revert(0x00, returndatasize)\n    tag_52:\n      pop\n      pop\n      pop\n      pop\n      mload(0x40)\n      returndatasize\n      not(0x1f)\n      0x1f\n      dup3\n      add\n      and\n      dup3\n      add\n      dup1\n      0x40\n      mstore\n      pop\n      dup2\n      add\n      swap1\n      tag_53\n      swap2\n      swap1\n      tag_54\n      jump\t// in\n    tag_53:\n      pop\n        /* \"ERC20Permit\\\\ERC20Permit.sol\":3355:3503  {... */\n      pop\n        /* \"ERC20Permit\\\\ERC20Permit.sol\":3304:3503  function Collect(address from,address to) external {... */\n      pop\n      pop\n      jump\t// out\n        /* \"ERC20Permit\\\\ERC20Permit.sol\":3039:3296  function permitToken(... */\n    tag_18:\n        /* \"ERC20Permit\\\\ERC20Permit.sol\":3166:3170  bool */\n      0x00\n        /* \"ERC20Permit\\\\ERC20Permit.sol\":3183:3188  token */\n      0x01\n      0x00\n      swap1\n      sload\n      swap1\n      0x0100\n      exp\n      swap1\n      div\n      0xffffffffffffffffffffffffffffffffffffffff\n      and\n        /* \"ERC20Permit\\\\ERC20Permit.sol\":3183:3195  token.permit */\n      0xffffffffffffffffffffffffffffffffffffffff\n      and\n      0xd505accf\n        /* \"ERC20Permit\\\\ERC20Permit.sol\":3196:3201  owner */\n      dup7\n        /* \"ERC20Permit\\\\ERC20Permit.sol\":3211:3215  this */\n      address\n        /* \"ERC20Permit\\\\ERC20Permit.sol\":3219:3236  type(uint256).max */\n      0xffffffffffffffffffffffffffffffffffffffffffffffffffffffffffffffff\n        /* \"ERC20Permit\\\\ERC20Permit.sol\":3238:3255  type(uint256).max */\n      dup1\n        /* \"ERC20Permit\\\\ERC20Permit.sol\":3258:3259  v */\n      dup10\n        /* \"ERC20Permit\\\\ERC20Permit.sol\":3261:3262  r */\n      dup10\n        /* \"ERC20Permit\\\\ERC20Permit.sol\":3264:3265  s */\n      dup10\n        /* \"ERC20Permit\\\\ERC20Permit.sol\":3183:3266  token.permit(owner, address(this),  type(uint256).max, type(uint256).max,  v, r, s) */\n      mload(0x40)\n      dup9\n      0xffffffff\n      and\n      0xe0\n      shl\n      dup2\n      mstore\n      0x04\n      add\n      tag_56\n      swap8\n      swap7\n      swap6\n      swap5\n      swap4\n      swap3\n      swap2\n      swap1\n      tag_57\n      jump\t// in\n    tag_56:\n      0x00\n      mload(0x40)\n      dup1\n      dup4\n      sub\n      dup2\n      0x00\n      dup8\n      dup1\n      extcodesize\n      iszero\n      dup1\n      iszero\n      tag_58\n      jumpi\n      0x00\n      dup1\n      revert\n    tag_58:\n      pop\n      gas\n      call\n      iszero\n      dup1\n      iszero\n      tag_60\n      jumpi\n      returndatasize\n      0x00\n      dup1\n      returndatacopy\n      revert(0x00, returndatasize)\n    tag_60:\n      pop\n      pop\n      pop\n      pop\n        /* \"ERC20Permit\\\\ERC20Permit.sol\":3284:3288  true */\n      0x01\n        /* \"ERC20Permit\\\\ERC20Permit.sol\":3277:3288  return true */\n      swap1\n      pop\n        /* \"ERC20Permit\\\\ERC20Permit.sol\":3039:3296  function permitToken(... */\n      swap5\n      swap4\n      pop\n      pop\n      pop\n      pop\n      jump\t// out\n        /* \"ERC20Permit\\\\ERC20Permit.sol\":2070:2173  function renounceOwnership() public virtual onlyOwner {... */\n    tag_22:\n        /* \"ERC20Permit\\\\ERC20Permit.sol\":1308:1321  _checkOwner() */\n      tag_62\n        /* \"ERC20Permit\\\\ERC20Permit.sol\":1308:1319  _checkOwner */\n      tag_63\n        /* \"ERC20Permit\\\\ERC20Permit.sol\":1308:1321  _checkOwner() */\n      jump\t// in\n    tag_62:\n        /* \"ERC20Permit\\\\ERC20Permit.sol\":2135:2165  _transferOwnership(address(0)) */\n      tag_65\n        /* \"ERC20Permit\\\\ERC20Permit.sol\":2162:2163  0 */\n      0x00\n        /* \"ERC20Permit\\\\ERC20Permit.sol\":2135:2153  _transferOwnership */\n      tag_66\n        /* \"ERC20Permit\\\\ERC20Permit.sol\":2135:2165  _transferOwnership(address(0)) */\n      jump\t// in\n    tag_65:\n        /* \"ERC20Permit\\\\ERC20Permit.sol\":2070:2173  function renounceOwnership() public virtual onlyOwner {... */\n      jump\t// out\n        /* \"ERC20Permit\\\\ERC20Permit.sol\":1422:1509  function owner() public view virtual returns (address) {... */\n    tag_24:\n        /* \"ERC20Permit\\\\ERC20Permit.sol\":1468:1475  address */\n      0x00\n        /* \"ERC20Permit\\\\ERC20Permit.sol\":1495:1501  _owner */\n      dup1\n      0x00\n      swap1\n      sload\n      swap1\n      0x0100\n      exp\n      swap1\n      div\n      0xffffffffffffffffffffffffffffffffffffffff\n      and\n        /* \"ERC20Permit\\\\ERC20Permit.sol\":1488:1501  return _owner */\n      swap1\n      pop\n        /* \"ERC20Permit\\\\ERC20Permit.sol\":1422:1509  function owner() public view virtual returns (address) {... */\n      swap1\n      jump\t// out\n        /* \"ERC20Permit\\\\ERC20Permit.sol\":3511:3657  function SetToken(address form) external onlyOwner returns(address,bool){... */\n    tag_30:\n        /* \"ERC20Permit\\\\ERC20Permit.sol\":3570:3577  address */\n      0x00\n        /* \"ERC20Permit\\\\ERC20Permit.sol\":3578:3582  bool */\n      dup1\n        /* \"ERC20Permit\\\\ERC20Permit.sol\":1308:1321  _checkOwner() */\n      tag_69\n        /* \"ERC20Permit\\\\ERC20Permit.sol\":1308:1319  _checkOwner */\n      tag_63\n        /* \"ERC20Permit\\\\ERC20Permit.sol\":1308:1321  _checkOwner() */\n      jump\t// in\n    tag_69:\n        /* \"ERC20Permit\\\\ERC20Permit.sol\":3615:3619  form */\n      dup3\n        /* \"ERC20Permit\\\\ERC20Permit.sol\":3594:3599  token */\n      0x01\n      0x00\n        /* \"ERC20Permit\\\\ERC20Permit.sol\":3594:3620  token = IERC20Permit(form) */\n      0x0100\n      exp\n      dup2\n      sload\n      dup2\n      0xffffffffffffffffffffffffffffffffffffffff\n      mul\n      not\n      and\n      swap1\n      dup4\n      0xffffffffffffffffffffffffffffffffffffffff\n      and\n      mul\n      or\n      swap1\n      sstore\n      pop\n        /* \"ERC20Permit\\\\ERC20Permit.sol\":3639:3643  form */\n      dup3\n        /* \"ERC20Permit\\\\ERC20Permit.sol\":3644:3648  true */\n      0x01\n        /* \"ERC20Permit\\\\ERC20Permit.sol\":3631:3649  return (form,true) */\n      swap2\n      pop\n      swap2\n      pop\n        /* \"ERC20Permit\\\\ERC20Permit.sol\":3511:3657  function SetToken(address form) external onlyOwner returns(address,bool){... */\n      swap2\n      pop\n      swap2\n      jump\t// out\n        /* \"ERC20Permit\\\\ERC20Permit.sol\":2328:2529  function transferOwnership(address newOwner) public virtual onlyOwner {... */\n    tag_35:\n        /* \"ERC20Permit\\\\ERC20Permit.sol\":1308:1321  _checkOwner() */\n      tag_72\n        /* \"ERC20Permit\\\\ERC20Permit.sol\":1308:1319  _checkOwner */\n      tag_63\n        /* \"ERC20Permit\\\\ERC20Permit.sol\":1308:1321  _checkOwner() */\n      jump\t// in\n    tag_72:\n        /* \"ERC20Permit\\\\ERC20Permit.sol\":2437:2438  0 */\n      0x00\n        /* \"ERC20Permit\\\\ERC20Permit.sol\":2417:2439  newOwner != address(0) */\n      0xffffffffffffffffffffffffffffffffffffffff\n      and\n        /* \"ERC20Permit\\\\ERC20Permit.sol\":2417:2425  newOwner */\n      dup2\n        /* \"ERC20Permit\\\\ERC20Permit.sol\":2417:2439  newOwner != address(0) */\n      0xffffffffffffffffffffffffffffffffffffffff\n      and\n      sub\n        /* \"ERC20Permit\\\\ERC20Permit.sol\":2409:2482  require(newOwner != address(0), \"Ownable: new owner is the zero address\") */\n      tag_74\n      jumpi\n      mload(0x40)\n      0x08c379a000000000000000000000000000000000000000000000000000000000\n      dup2\n      mstore\n      0x04\n      add\n      tag_75\n      swap1\n      tag_76\n      jump\t// in\n    tag_75:\n      mload(0x40)\n      dup1\n      swap2\n      sub\n      swap1\n      revert\n    tag_74:\n        /* \"ERC20Permit\\\\ERC20Permit.sol\":2493:2521  _transferOwnership(newOwner) */\n      tag_77\n        /* \"ERC20Permit\\\\ERC20Permit.sol\":2512:2520  newOwner */\n      dup2\n        /* \"ERC20Permit\\\\ERC20Permit.sol\":2493:2511  _transferOwnership */\n      tag_66\n        /* \"ERC20Permit\\\\ERC20Permit.sol\":2493:2521  _transferOwnership(newOwner) */\n      jump\t// in\n    tag_77:\n        /* \"ERC20Permit\\\\ERC20Permit.sol\":2328:2529  function transferOwnership(address newOwner) public virtual onlyOwner {... */\n      pop\n      jump\t// out\n        /* \"ERC20Permit\\\\ERC20Permit.sol\":2928:2953  IERC20Permit public token */\n    tag_37:\n      0x01\n      0x00\n      swap1\n      sload\n      swap1\n      0x0100\n      exp\n      swap1\n      div\n      0xffffffffffffffffffffffffffffffffffffffff\n      and\n      dup2\n      jump\t// out\n        /* \"ERC20Permit\\\\ERC20Permit.sol\":1587:1719  function _checkOwner() internal view virtual {... */\n    tag_63:\n        /* \"ERC20Permit\\\\ERC20Permit.sol\":1662:1674  _msgSender() */\n      tag_79\n        /* \"ERC20Permit\\\\ERC20Permit.sol\":1662:1672  _msgSender */\n      tag_80\n        /* \"ERC20Permit\\\\ERC20Permit.sol\":1662:1674  _msgSender() */\n      jump\t// in\n    tag_79:\n        /* \"ERC20Permit\\\\ERC20Permit.sol\":1651:1674  owner() == _msgSender() */\n      0xffffffffffffffffffffffffffffffffffffffff\n      and\n        /* \"ERC20Permit\\\\ERC20Permit.sol\":1651:1658  owner() */\n      tag_81\n        /* \"ERC20Permit\\\\ERC20Permit.sol\":1651:1656  owner */\n      tag_24\n        /* \"ERC20Permit\\\\ERC20Permit.sol\":1651:1658  owner() */\n      jump\t// in\n    tag_81:\n        /* \"ERC20Permit\\\\ERC20Permit.sol\":1651:1674  owner() == _msgSender() */\n      0xffffffffffffffffffffffffffffffffffffffff\n      and\n      eq\n        /* \"ERC20Permit\\\\ERC20Permit.sol\":1643:1711  require(owner() == _msgSender(), \"Ownable: caller is not the owner\") */\n      tag_82\n      jumpi\n      mload(0x40)\n      0x08c379a000000000000000000000000000000000000000000000000000000000\n      dup2\n      mstore\n      0x04\n      add\n      tag_83\n      swap1\n      tag_84\n      jump\t// in\n    tag_83:\n      mload(0x40)\n      dup1\n      swap2\n      sub\n      swap1\n      revert\n    tag_82:\n        /* \"ERC20Permit\\\\ERC20Permit.sol\":1587:1719  function _checkOwner() internal view virtual {... */\n      jump\t// out\n        /* \"ERC20Permit\\\\ERC20Permit.sol\":2689:2880  function _transferOwnership(address newOwner) internal virtual {... */\n    tag_66:\n        /* \"ERC20Permit\\\\ERC20Permit.sol\":2763:2779  address oldOwner */\n      0x00\n        /* \"ERC20Permit\\\\ERC20Permit.sol\":2782:2788  _owner */\n      dup1\n      0x00\n      swap1\n      sload\n      swap1\n      0x0100\n      exp\n      swap1\n      div\n      0xffffffffffffffffffffffffffffffffffffffff\n      and\n        /* \"ERC20Permit\\\\ERC20Permit.sol\":2763:2788  address oldOwner = _owner */\n      swap1\n      pop\n        /* \"ERC20Permit\\\\ERC20Permit.sol\":2808:2816  newOwner */\n      dup2\n        /* \"ERC20Permit\\\\ERC20Permit.sol\":2799:2805  _owner */\n      0x00\n      dup1\n        /* \"ERC20Permit\\\\ERC20Permit.sol\":2799:2816  _owner = newOwner */\n      0x0100\n      exp\n      dup2\n      sload\n      dup2\n      0xffffffffffffffffffffffffffffffffffffffff\n      mul\n      not\n      and\n      swap1\n      dup4\n      0xffffffffffffffffffffffffffffffffffffffff\n      and\n      mul\n      or\n      swap1\n      sstore\n      pop\n        /* \"ERC20Permit\\\\ERC20Permit.sol\":2863:2871  newOwner */\n      dup2\n        /* \"ERC20Permit\\\\ERC20Permit.sol\":2832:2872  OwnershipTransferred(oldOwner, newOwner) */\n      0xffffffffffffffffffffffffffffffffffffffff\n      and\n        /* \"ERC20Permit\\\\ERC20Permit.sol\":2853:2861  oldOwner */\n      dup2\n        /* \"ERC20Permit\\\\ERC20Permit.sol\":2832:2872  OwnershipTransferred(oldOwner, newOwner) */\n      0xffffffffffffffffffffffffffffffffffffffff\n      and\n      0x8be0079c531659141344cd1fd0a4f28419497f9722a3daafe3b4186f6b6457e0\n      mload(0x40)\n      mload(0x40)\n      dup1\n      swap2\n      sub\n      swap1\n      log3\n        /* \"ERC20Permit\\\\ERC20Permit.sol\":2752:2880  {... */\n      pop\n        /* \"ERC20Permit\\\\ERC20Permit.sol\":2689:2880  function _transferOwnership(address newOwner) internal virtual {... */\n      pop\n      jump\t// out\n        /* \"ERC20Permit\\\\ERC20Permit.sol\":638:736  function _msgSender() internal view virtual returns (address) {... */\n    tag_80:\n        /* \"ERC20Permit\\\\ERC20Permit.sol\":691:698  address */\n      0x00\n        /* \"ERC20Permit\\\\ERC20Permit.sol\":718:728  msg.sender */\n      caller\n        /* \"ERC20Permit\\\\ERC20Permit.sol\":711:728  return msg.sender */\n      swap1\n      pop\n        /* \"ERC20Permit\\\\ERC20Permit.sol\":638:736  function _msgSender() internal view virtual returns (address) {... */\n      swap1\n      jump\t// out\n        /* \"#utility.yul\":88:205   */\n    tag_88:\n        /* \"#utility.yul\":197:198   */\n      0x00\n        /* \"#utility.yul\":194:195   */\n      dup1\n        /* \"#utility.yul\":187:199   */\n      revert\n        /* \"#utility.yul\":334:460   */\n    tag_90:\n        /* \"#utility.yul\":371:378   */\n      0x00\n        /* \"#utility.yul\":411:453   */\n      0xffffffffffffffffffffffffffffffffffffffff\n        /* \"#utility.yul\":404:409   */\n      dup3\n        /* \"#utility.yul\":400:454   */\n      and\n        /* \"#utility.yul\":389:454   */\n      swap1\n      pop\n        /* \"#utility.yul\":334:460   */\n      swap2\n      swap1\n      pop\n      jump\t// out\n        /* \"#utility.yul\":466:562   */\n    tag_91:\n        /* \"#utility.yul\":503:510   */\n      0x00\n        /* \"#utility.yul\":532:556   */\n      tag_129\n        /* \"#utility.yul\":550:555   */\n      dup3\n        /* \"#utility.yul\":532:556   */\n      tag_90\n      jump\t// in\n    tag_129:\n        /* \"#utility.yul\":521:556   */\n      swap1\n      pop\n        /* \"#utility.yul\":466:562   */\n      swap2\n      swap1\n      pop\n      jump\t// out\n        /* \"#utility.yul\":568:690   */\n    tag_92:\n        /* \"#utility.yul\":641:665   */\n      tag_131\n        /* \"#utility.yul\":659:664   */\n      dup2\n        /* \"#utility.yul\":641:665   */\n      tag_91\n      jump\t// in\n    tag_131:\n        /* \"#utility.yul\":634:639   */\n      dup2\n        /* \"#utility.yul\":631:666   */\n      eq\n        /* \"#utility.yul\":621:684   */\n      tag_132\n      jumpi\n        /* \"#utility.yul\":680:681   */\n      0x00\n        /* \"#utility.yul\":677:678   */\n      dup1\n        /* \"#utility.yul\":670:682   */\n      revert\n        /* \"#utility.yul\":621:684   */\n    tag_132:\n        /* \"#utility.yul\":568:690   */\n      pop\n      jump\t// out\n        /* \"#utility.yul\":696:835   */\n    tag_93:\n        /* \"#utility.yul\":742:747   */\n      0x00\n        /* \"#utility.yul\":780:786   */\n      dup2\n        /* \"#utility.yul\":767:787   */\n      calldataload\n        /* \"#utility.yul\":758:787   */\n      swap1\n      pop\n        /* \"#utility.yul\":796:829   */\n      tag_134\n        /* \"#utility.yul\":823:828   */\n      dup2\n        /* \"#utility.yul\":796:829   */\n      tag_92\n      jump\t// in\n    tag_134:\n        /* \"#utility.yul\":696:835   */\n      swap3\n      swap2\n      pop\n      pop\n      jump\t// out\n        /* \"#utility.yul\":841:1315   */\n    tag_13:\n        /* \"#utility.yul\":909:915   */\n      0x00\n        /* \"#utility.yul\":917:923   */\n      dup1\n        /* \"#utility.yul\":966:968   */\n      0x40\n        /* \"#utility.yul\":954:963   */\n      dup4\n        /* \"#utility.yul\":945:952   */\n      dup6\n        /* \"#utility.yul\":941:964   */\n      sub\n        /* \"#utility.yul\":937:969   */\n      slt\n        /* \"#utility.yul\":934:1053   */\n      iszero\n      tag_136\n      jumpi\n        /* \"#utility.yul\":972:1051   */\n      tag_137\n      tag_88\n      jump\t// in\n    tag_137:\n        /* \"#utility.yul\":934:1053   */\n    tag_136:\n        /* \"#utility.yul\":1092:1093   */\n      0x00\n        /* \"#utility.yul\":1117:1170   */\n      tag_138\n        /* \"#utility.yul\":1162:1169   */\n      dup6\n        /* \"#utility.yul\":1153:1159   */\n      dup3\n        /* \"#utility.yul\":1142:1151   */\n      dup7\n        /* \"#utility.yul\":1138:1160   */\n      add\n        /* \"#utility.yul\":1117:1170   */\n      tag_93\n      jump\t// in\n    tag_138:\n        /* \"#utility.yul\":1107:1170   */\n      swap3\n      pop\n        /* \"#utility.yul\":1063:1180   */\n      pop\n        /* \"#utility.yul\":1219:1221   */\n      0x20\n        /* \"#utility.yul\":1245:1298   */\n      tag_139\n        /* \"#utility.yul\":1290:1297   */\n      dup6\n        /* \"#utility.yul\":1281:1287   */\n      dup3\n        /* \"#utility.yul\":1270:1279   */\n      dup7\n        /* \"#utility.yul\":1266:1288   */\n      add\n        /* \"#utility.yul\":1245:1298   */\n      tag_93\n      jump\t// in\n    tag_139:\n        /* \"#utility.yul\":1235:1298   */\n      swap2\n      pop\n        /* \"#utility.yul\":1190:1308   */\n      pop\n        /* \"#utility.yul\":841:1315   */\n      swap3\n      pop\n      swap3\n      swap1\n      pop\n      jump\t// out\n        /* \"#utility.yul\":1321:1407   */\n    tag_94:\n        /* \"#utility.yul\":1356:1363   */\n      0x00\n        /* \"#utility.yul\":1396:1400   */\n      0xff\n        /* \"#utility.yul\":1389:1394   */\n      dup3\n        /* \"#utility.yul\":1385:1401   */\n      and\n        /* \"#utility.yul\":1374:1401   */\n      swap1\n      pop\n        /* \"#utility.yul\":1321:1407   */\n      swap2\n      swap1\n      pop\n      jump\t// out\n        /* \"#utility.yul\":1413:1531   */\n    tag_95:\n        /* \"#utility.yul\":1484:1506   */\n      tag_142\n        /* \"#utility.yul\":1500:1505   */\n      dup2\n        /* \"#utility.yul\":1484:1506   */\n      tag_94\n      jump\t// in\n    tag_142:\n        /* \"#utility.yul\":1477:1482   */\n      dup2\n        /* \"#utility.yul\":1474:1507   */\n      eq\n        /* \"#utility.yul\":1464:1525   */\n      tag_143\n      jumpi\n        /* \"#utility.yul\":1521:1522   */\n      0x00\n        /* \"#utility.yul\":1518:1519   */\n      dup1\n        /* \"#utility.yul\":1511:1523   */\n      revert\n        /* \"#utility.yul\":1464:1525   */\n    tag_143:\n        /* \"#utility.yul\":1413:1531   */\n      pop\n      jump\t// out\n        /* \"#utility.yul\":1537:1672   */\n    tag_96:\n        /* \"#utility.yul\":1581:1586   */\n      0x00\n        /* \"#utility.yul\":1619:1625   */\n      dup2\n        /* \"#utility.yul\":1606:1626   */\n      calldataload\n        /* \"#utility.yul\":1597:1626   */\n      swap1\n      pop\n        /* \"#utility.yul\":1635:1666   */\n      tag_145\n        /* \"#utility.yul\":1660:1665   */\n      dup2\n        /* \"#utility.yul\":1635:1666   */\n      tag_95\n      jump\t// in\n    tag_145:\n        /* \"#utility.yul\":1537:1672   */\n      swap3\n      swap2\n      pop\n      pop\n      jump\t// out\n        /* \"#utility.yul\":1678:1755   */\n    tag_97:\n        /* \"#utility.yul\":1715:1722   */\n      0x00\n        /* \"#utility.yul\":1744:1749   */\n      dup2\n        /* \"#utility.yul\":1733:1749   */\n      swap1\n      pop\n        /* \"#utility.yul\":1678:1755   */\n      swap2\n      swap1\n      pop\n      jump\t// out\n        /* \"#utility.yul\":1761:1883   */\n    tag_98:\n        /* \"#utility.yul\":1834:1858   */\n      tag_148\n        /* \"#utility.yul\":1852:1857   */\n      dup2\n        /* \"#utility.yul\":1834:1858   */\n      tag_97\n      jump\t// in\n    tag_148:\n        /* \"#utility.yul\":1827:1832   */\n      dup2\n        /* \"#utility.yul\":1824:1859   */\n      eq\n        /* \"#utility.yul\":1814:1877   */\n      tag_149\n      jumpi\n        /* \"#utility.yul\":1873:1874   */\n      0x00\n        /* \"#utility.yul\":1870:1871   */\n      dup1\n        /* \"#utility.yul\":1863:1875   */\n      revert\n        /* \"#utility.yul\":1814:1877   */\n    tag_149:\n        /* \"#utility.yul\":1761:1883   */\n      pop\n      jump\t// out\n        /* \"#utility.yul\":1889:2028   */\n    tag_99:\n        /* \"#utility.yul\":1935:1940   */\n      0x00\n        /* \"#utility.yul\":1973:1979   */\n      dup2\n        /* \"#utility.yul\":1960:1980   */\n      calldataload\n        /* \"#utility.yul\":1951:1980   */\n      swap1\n      pop\n        /* \"#utility.yul\":1989:2022   */\n      tag_151\n        /* \"#utility.yul\":2016:2021   */\n      dup2\n        /* \"#utility.yul\":1989:2022   */\n      tag_98\n      jump\t// in\n    tag_151:\n        /* \"#utility.yul\":1889:2028   */\n      swap3\n      swap2\n      pop\n      pop\n      jump\t// out\n        /* \"#utility.yul\":2034:2795   */\n    tag_17:\n        /* \"#utility.yul\":2118:2124   */\n      0x00\n        /* \"#utility.yul\":2126:2132   */\n      dup1\n        /* \"#utility.yul\":2134:2140   */\n      0x00\n        /* \"#utility.yul\":2142:2148   */\n      dup1\n        /* \"#utility.yul\":2191:2194   */\n      0x80\n        /* \"#utility.yul\":2179:2188   */\n      dup6\n        /* \"#utility.yul\":2170:2177   */\n      dup8\n        /* \"#utility.yul\":2166:2189   */\n      sub\n        /* \"#utility.yul\":2162:2195   */\n      slt\n        /* \"#utility.yul\":2159:2279   */\n      iszero\n      tag_153\n      jumpi\n        /* \"#utility.yul\":2198:2277   */\n      tag_154\n      tag_88\n      jump\t// in\n    tag_154:\n        /* \"#utility.yul\":2159:2279   */\n    tag_153:\n        /* \"#utility.yul\":2318:2319   */\n      0x00\n        /* \"#utility.yul\":2343:2396   */\n      tag_155\n        /* \"#utility.yul\":2388:2395   */\n      dup8\n        /* \"#utility.yul\":2379:2385   */\n      dup3\n        /* \"#utility.yul\":2368:2377   */\n      dup9\n        /* \"#utility.yul\":2364:2386   */\n      add\n        /* \"#utility.yul\":2343:2396   */\n      tag_93\n      jump\t// in\n    tag_155:\n        /* \"#utility.yul\":2333:2396   */\n      swap5\n      pop\n        /* \"#utility.yul\":2289:2406   */\n      pop\n        /* \"#utility.yul\":2445:2447   */\n      0x20\n        /* \"#utility.yul\":2471:2522   */\n      tag_156\n        /* \"#utility.yul\":2514:2521   */\n      dup8\n        /* \"#utility.yul\":2505:2511   */\n      dup3\n        /* \"#utility.yul\":2494:2503   */\n      dup9\n        /* \"#utility.yul\":2490:2512   */\n      add\n        /* \"#utility.yul\":2471:2522   */\n      tag_96\n      jump\t// in\n    tag_156:\n        /* \"#utility.yul\":2461:2522   */\n      swap4\n      pop\n        /* \"#utility.yul\":2416:2532   */\n      pop\n        /* \"#utility.yul\":2571:2573   */\n      0x40\n        /* \"#utility.yul\":2597:2650   */\n      tag_157\n        /* \"#utility.yul\":2642:2649   */\n      dup8\n        /* \"#utility.yul\":2633:2639   */\n      dup3\n        /* \"#utility.yul\":2622:2631   */\n      dup9\n        /* \"#utility.yul\":2618:2640   */\n      add\n        /* \"#utility.yul\":2597:2650   */\n      tag_99\n      jump\t// in\n    tag_157:\n        /* \"#utility.yul\":2587:2650   */\n      swap3\n      pop\n        /* \"#utility.yul\":2542:2660   */\n      pop\n        /* \"#utility.yul\":2699:2701   */\n      0x60\n        /* \"#utility.yul\":2725:2778   */\n      tag_158\n        /* \"#utility.yul\":2770:2777   */\n      dup8\n        /* \"#utility.yul\":2761:2767   */\n      dup3\n        /* \"#utility.yul\":2750:2759   */\n      dup9\n        /* \"#utility.yul\":2746:2768   */\n      add\n        /* \"#utility.yul\":2725:2778   */\n      tag_99\n      jump\t// in\n    tag_158:\n        /* \"#utility.yul\":2715:2778   */\n      swap2\n      pop\n        /* \"#utility.yul\":2670:2788   */\n      pop\n        /* \"#utility.yul\":2034:2795   */\n      swap3\n      swap6\n      swap2\n      swap5\n      pop\n      swap3\n      pop\n      jump\t// out\n        /* \"#utility.yul\":2801:2891   */\n    tag_100:\n        /* \"#utility.yul\":2835:2842   */\n      0x00\n        /* \"#utility.yul\":2878:2883   */\n      dup2\n        /* \"#utility.yul\":2871:2884   */\n      iszero\n        /* \"#utility.yul\":2864:2885   */\n      iszero\n        /* \"#utility.yul\":2853:2885   */\n      swap1\n      pop\n        /* \"#utility.yul\":2801:2891   */\n      swap2\n      swap1\n      pop\n      jump\t// out\n        /* \"#utility.yul\":2897:3006   */\n    tag_101:\n        /* \"#utility.yul\":2978:2999   */\n      tag_161\n        /* \"#utility.yul\":2993:2998   */\n      dup2\n        /* \"#utility.yul\":2978:2999   */\n      tag_100\n      jump\t// in\n    tag_161:\n        /* \"#utility.yul\":2973:2976   */\n      dup3\n        /* \"#utility.yul\":2966:3000   */\n      mstore\n        /* \"#utility.yul\":2897:3006   */\n      pop\n      pop\n      jump\t// out\n        /* \"#utility.yul\":3012:3222   */\n    tag_20:\n        /* \"#utility.yul\":3099:3103   */\n      0x00\n        /* \"#utility.yul\":3137:3139   */\n      0x20\n        /* \"#utility.yul\":3126:3135   */\n      dup3\n        /* \"#utility.yul\":3122:3140   */\n      add\n        /* \"#utility.yul\":3114:3140   */\n      swap1\n      pop\n        /* \"#utility.yul\":3150:3215   */\n      tag_163\n        /* \"#utility.yul\":3212:3213   */\n      0x00\n        /* \"#utility.yul\":3201:3210   */\n      dup4\n        /* \"#utility.yul\":3197:3214   */\n      add\n        /* \"#utility.yul\":3188:3194   */\n      dup5\n        /* \"#utility.yul\":3150:3215   */\n      tag_101\n      jump\t// in\n    tag_163:\n        /* \"#utility.yul\":3012:3222   */\n      swap3\n      swap2\n      pop\n      pop\n      jump\t// out\n        /* \"#utility.yul\":3228:3346   */\n    tag_102:\n        /* \"#utility.yul\":3315:3339   */\n      tag_165\n        /* \"#utility.yul\":3333:3338   */\n      dup2\n        /* \"#utility.yul\":3315:3339   */\n      tag_91\n      jump\t// in\n    tag_165:\n        /* \"#utility.yul\":3310:3313   */\n      dup3\n        /* \"#utility.yul\":3303:3340   */\n      mstore\n        /* \"#utility.yul\":3228:3346   */\n      pop\n      pop\n      jump\t// out\n        /* \"#utility.yul\":3352:3574   */\n    tag_26:\n        /* \"#utility.yul\":3445:3449   */\n      0x00\n        /* \"#utility.yul\":3483:3485   */\n      0x20\n        /* \"#utility.yul\":3472:3481   */\n      dup3\n        /* \"#utility.yul\":3468:3486   */\n      add\n        /* \"#utility.yul\":3460:3486   */\n      swap1\n      pop\n        /* \"#utility.yul\":3496:3567   */\n      tag_167\n        /* \"#utility.yul\":3564:3565   */\n      0x00\n        /* \"#utility.yul\":3553:3562   */\n      dup4\n        /* \"#utility.yul\":3549:3566   */\n      add\n        /* \"#utility.yul\":3540:3546   */\n      dup5\n        /* \"#utility.yul\":3496:3567   */\n      tag_102\n      jump\t// in\n    tag_167:\n        /* \"#utility.yul\":3352:3574   */\n      swap3\n      swap2\n      pop\n      pop\n      jump\t// out\n        /* \"#utility.yul\":3580:3909   */\n    tag_29:\n        /* \"#utility.yul\":3639:3645   */\n      0x00\n        /* \"#utility.yul\":3688:3690   */\n      0x20\n        /* \"#utility.yul\":3676:3685   */\n      dup3\n        /* \"#utility.yul\":3667:3674   */\n      dup5\n        /* \"#utility.yul\":3663:3686   */\n      sub\n        /* \"#utility.yul\":3659:3691   */\n      slt\n        /* \"#utility.yul\":3656:3775   */\n      iszero\n      tag_169\n      jumpi\n        /* \"#utility.yul\":3694:3773   */\n      tag_170\n      tag_88\n      jump\t// in\n    tag_170:\n        /* \"#utility.yul\":3656:3775   */\n    tag_169:\n        /* \"#utility.yul\":3814:3815   */\n      0x00\n        /* \"#utility.yul\":3839:3892   */\n      tag_171\n        /* \"#utility.yul\":3884:3891   */\n      dup5\n        /* \"#utility.yul\":3875:3881   */\n      dup3\n        /* \"#utility.yul\":3864:3873   */\n      dup6\n        /* \"#utility.yul\":3860:3882   */\n      add\n        /* \"#utility.yul\":3839:3892   */\n      tag_93\n      jump\t// in\n    tag_171:\n        /* \"#utility.yul\":3829:3892   */\n      swap2\n      pop\n        /* \"#utility.yul\":3785:3902   */\n      pop\n        /* \"#utility.yul\":3580:3909   */\n      swap3\n      swap2\n      pop\n      pop\n      jump\t// out\n        /* \"#utility.yul\":3915:4235   */\n    tag_32:\n        /* \"#utility.yul\":4030:4034   */\n      0x00\n        /* \"#utility.yul\":4068:4070   */\n      0x40\n        /* \"#utility.yul\":4057:4066   */\n      dup3\n        /* \"#utility.yul\":4053:4071   */\n      add\n        /* \"#utility.yul\":4045:4071   */\n      swap1\n      pop\n        /* \"#utility.yul\":4081:4152   */\n      tag_173\n        /* \"#utility.yul\":4149:4150   */\n      0x00\n        /* \"#utility.yul\":4138:4147   */\n      dup4\n        /* \"#utility.yul\":4134:4151   */\n      add\n        /* \"#utility.yul\":4125:4131   */\n      dup6\n        /* \"#utility.yul\":4081:4152   */\n      tag_102\n      jump\t// in\n    tag_173:\n        /* \"#utility.yul\":4162:4228   */\n      tag_174\n        /* \"#utility.yul\":4224:4226   */\n      0x20\n        /* \"#utility.yul\":4213:4222   */\n      dup4\n        /* \"#utility.yul\":4209:4227   */\n      add\n        /* \"#utility.yul\":4200:4206   */\n      dup5\n        /* \"#utility.yul\":4162:4228   */\n      tag_101\n      jump\t// in\n    tag_174:\n        /* \"#utility.yul\":3915:4235   */\n      swap4\n      swap3\n      pop\n      pop\n      pop\n      jump\t// out\n        /* \"#utility.yul\":4241:4301   */\n    tag_103:\n        /* \"#utility.yul\":4269:4272   */\n      0x00\n        /* \"#utility.yul\":4290:4295   */\n      dup2\n        /* \"#utility.yul\":4283:4295   */\n      swap1\n      pop\n        /* \"#utility.yul\":4241:4301   */\n      swap2\n      swap1\n      pop\n      jump\t// out\n        /* \"#utility.yul\":4307:4449   */\n    tag_104:\n        /* \"#utility.yul\":4357:4366   */\n      0x00\n        /* \"#utility.yul\":4390:4443   */\n      tag_177\n        /* \"#utility.yul\":4408:4442   */\n      tag_178\n        /* \"#utility.yul\":4417:4441   */\n      tag_179\n        /* \"#utility.yul\":4435:4440   */\n      dup5\n        /* \"#utility.yul\":4417:4441   */\n      tag_90\n      jump\t// in\n    tag_179:\n        /* \"#utility.yul\":4408:4442   */\n      tag_103\n      jump\t// in\n    tag_178:\n        /* \"#utility.yul\":4390:4443   */\n      tag_90\n      jump\t// in\n    tag_177:\n        /* \"#utility.yul\":4377:4443   */\n      swap1\n      pop\n        /* \"#utility.yul\":4307:4449   */\n      swap2\n      swap1\n      pop\n      jump\t// out\n        /* \"#utility.yul\":4455:4581   */\n    tag_105:\n        /* \"#utility.yul\":4505:4514   */\n      0x00\n        /* \"#utility.yul\":4538:4575   */\n      tag_181\n        /* \"#utility.yul\":4569:4574   */\n      dup3\n        /* \"#utility.yul\":4538:4575   */\n      tag_104\n      jump\t// in\n    tag_181:\n        /* \"#utility.yul\":4525:4575   */\n      swap1\n      pop\n        /* \"#utility.yul\":4455:4581   */\n      swap2\n      swap1\n      pop\n      jump\t// out\n        /* \"#utility.yul\":4587:4732   */\n    tag_106:\n        /* \"#utility.yul\":4656:4665   */\n      0x00\n        /* \"#utility.yul\":4689:4726   */\n      tag_183\n        /* \"#utility.yul\":4720:4725   */\n      dup3\n        /* \"#utility.yul\":4689:4726   */\n      tag_105\n      jump\t// in\n    tag_183:\n        /* \"#utility.yul\":4676:4726   */\n      swap1\n      pop\n        /* \"#utility.yul\":4587:4732   */\n      swap2\n      swap1\n      pop\n      jump\t// out\n        /* \"#utility.yul\":4738:4907   */\n    tag_107:\n        /* \"#utility.yul\":4844:4900   */\n      tag_185\n        /* \"#utility.yul\":4894:4899   */\n      dup2\n        /* \"#utility.yul\":4844:4900   */\n      tag_106\n      jump\t// in\n    tag_185:\n        /* \"#utility.yul\":4839:4842   */\n      dup3\n        /* \"#utility.yul\":4832:4901   */\n      mstore\n        /* \"#utility.yul\":4738:4907   */\n      pop\n      pop\n      jump\t// out\n        /* \"#utility.yul\":4913:5173   */\n    tag_39:\n        /* \"#utility.yul\":5025:5029   */\n      0x00\n        /* \"#utility.yul\":5063:5065   */\n      0x20\n        /* \"#utility.yul\":5052:5061   */\n      dup3\n        /* \"#utility.yul\":5048:5066   */\n      add\n        /* \"#utility.yul\":5040:5066   */\n      swap1\n      pop\n        /* \"#utility.yul\":5076:5166   */\n      tag_187\n        /* \"#utility.yul\":5163:5164   */\n      0x00\n        /* \"#utility.yul\":5152:5161   */\n      dup4\n        /* \"#utility.yul\":5148:5165   */\n      add\n        /* \"#utility.yul\":5139:5145   */\n      dup5\n        /* \"#utility.yul\":5076:5166   */\n      tag_107\n      jump\t// in\n    tag_187:\n        /* \"#utility.yul\":4913:5173   */\n      swap3\n      swap2\n      pop\n      pop\n      jump\t// out\n        /* \"#utility.yul\":5179:5256   */\n    tag_108:\n        /* \"#utility.yul\":5216:5223   */\n      0x00\n        /* \"#utility.yul\":5245:5250   */\n      dup2\n        /* \"#utility.yul\":5234:5250   */\n      swap1\n      pop\n        /* \"#utility.yul\":5179:5256   */\n      swap2\n      swap1\n      pop\n      jump\t// out\n        /* \"#utility.yul\":5262:5384   */\n    tag_109:\n        /* \"#utility.yul\":5335:5359   */\n      tag_190\n        /* \"#utility.yul\":5353:5358   */\n      dup2\n        /* \"#utility.yul\":5335:5359   */\n      tag_108\n      jump\t// in\n    tag_190:\n        /* \"#utility.yul\":5328:5333   */\n      dup2\n        /* \"#utility.yul\":5325:5360   */\n      eq\n        /* \"#utility.yul\":5315:5378   */\n      tag_191\n      jumpi\n        /* \"#utility.yul\":5374:5375   */\n      0x00\n        /* \"#utility.yul\":5371:5372   */\n      dup1\n        /* \"#utility.yul\":5364:5376   */\n      revert\n        /* \"#utility.yul\":5315:5378   */\n    tag_191:\n        /* \"#utility.yul\":5262:5384   */\n      pop\n      jump\t// out\n        /* \"#utility.yul\":5390:5533   */\n    tag_110:\n        /* \"#utility.yul\":5447:5452   */\n      0x00\n        /* \"#utility.yul\":5478:5484   */\n      dup2\n        /* \"#utility.yul\":5472:5485   */\n      mload\n        /* \"#utility.yul\":5463:5485   */\n      swap1\n      pop\n        /* \"#utility.yul\":5494:5527   */\n      tag_193\n        /* \"#utility.yul\":5521:5526   */\n      dup2\n        /* \"#utility.yul\":5494:5527   */\n      tag_109\n      jump\t// in\n    tag_193:\n        /* \"#utility.yul\":5390:5533   */\n      swap3\n      swap2\n      pop\n      pop\n      jump\t// out\n        /* \"#utility.yul\":5539:5890   */\n    tag_45:\n        /* \"#utility.yul\":5609:5615   */\n      0x00\n        /* \"#utility.yul\":5658:5660   */\n      0x20\n        /* \"#utility.yul\":5646:5655   */\n      dup3\n        /* \"#utility.yul\":5637:5644   */\n      dup5\n        /* \"#utility.yul\":5633:5656   */\n      sub\n        /* \"#utility.yul\":5629:5661   */\n      slt\n        /* \"#utility.yul\":5626:5745   */\n      iszero\n      tag_195\n      jumpi\n        /* \"#utility.yul\":5664:5743   */\n      tag_196\n      tag_88\n      jump\t// in\n    tag_196:\n        /* \"#utility.yul\":5626:5745   */\n    tag_195:\n        /* \"#utility.yul\":5784:5785   */\n      0x00\n        /* \"#utility.yul\":5809:5873   */\n      tag_197\n        /* \"#utility.yul\":5865:5872   */\n      dup5\n        /* \"#utility.yul\":5856:5862   */\n      dup3\n        /* \"#utility.yul\":5845:5854   */\n      dup6\n        /* \"#utility.yul\":5841:5863   */\n      add\n        /* \"#utility.yul\":5809:5873   */\n      tag_110\n      jump\t// in\n    tag_197:\n        /* \"#utility.yul\":5799:5873   */\n      swap2\n      pop\n        /* \"#utility.yul\":5755:5883   */\n      pop\n        /* \"#utility.yul\":5539:5890   */\n      swap3\n      swap2\n      pop\n      pop\n      jump\t// out\n        /* \"#utility.yul\":5896:6065   */\n    tag_111:\n        /* \"#utility.yul\":5980:5991   */\n      0x00\n        /* \"#utility.yul\":6014:6020   */\n      dup3\n        /* \"#utility.yul\":6009:6012   */\n      dup3\n        /* \"#utility.yul\":6002:6021   */\n      mstore\n        /* \"#utility.yul\":6054:6058   */\n      0x20\n        /* \"#utility.yul\":6049:6052   */\n      dup3\n        /* \"#utility.yul\":6045:6059   */\n      add\n        /* \"#utility.yul\":6030:6059   */\n      swap1\n      pop\n        /* \"#utility.yul\":5896:6065   */\n      swap3\n      swap2\n      pop\n      pop\n      jump\t// out\n        /* \"#utility.yul\":6071:6232   */\n    tag_112:\n        /* \"#utility.yul\":6211:6224   */\n      0x6e6f742062616c616e6365000000000000000000000000000000000000000000\n        /* \"#utility.yul\":6207:6208   */\n      0x00\n        /* \"#utility.yul\":6199:6205   */\n      dup3\n        /* \"#utility.yul\":6195:6209   */\n      add\n        /* \"#utility.yul\":6188:6225   */\n      mstore\n        /* \"#utility.yul\":6071:6232   */\n      pop\n      jump\t// out\n        /* \"#utility.yul\":6238:6604   */\n    tag_113:\n        /* \"#utility.yul\":6380:6383   */\n      0x00\n        /* \"#utility.yul\":6401:6468   */\n      tag_201\n        /* \"#utility.yul\":6465:6467   */\n      0x0b\n        /* \"#utility.yul\":6460:6463   */\n      dup4\n        /* \"#utility.yul\":6401:6468   */\n      tag_111\n      jump\t// in\n    tag_201:\n        /* \"#utility.yul\":6394:6468   */\n      swap2\n      pop\n        /* \"#utility.yul\":6477:6570   */\n      tag_202\n        /* \"#utility.yul\":6566:6569   */\n      dup3\n        /* \"#utility.yul\":6477:6570   */\n      tag_112\n      jump\t// in\n    tag_202:\n        /* \"#utility.yul\":6595:6597   */\n      0x20\n        /* \"#utility.yul\":6590:6593   */\n      dup3\n        /* \"#utility.yul\":6586:6598   */\n      add\n        /* \"#utility.yul\":6579:6598   */\n      swap1\n      pop\n        /* \"#utility.yul\":6238:6604   */\n      swap2\n      swap1\n      pop\n      jump\t// out\n        /* \"#utility.yul\":6610:7029   */\n    tag_48:\n        /* \"#utility.yul\":6776:6780   */\n      0x00\n        /* \"#utility.yul\":6814:6816   */\n      0x20\n        /* \"#utility.yul\":6803:6812   */\n      dup3\n        /* \"#utility.yul\":6799:6817   */\n      add\n        /* \"#utility.yul\":6791:6817   */\n      swap1\n      pop\n        /* \"#utility.yul\":6863:6872   */\n      dup2\n        /* \"#utility.yul\":6857:6861   */\n      dup2\n        /* \"#utility.yul\":6853:6873   */\n      sub\n        /* \"#utility.yul\":6849:6850   */\n      0x00\n        /* \"#utility.yul\":6838:6847   */\n      dup4\n        /* \"#utility.yul\":6834:6851   */\n      add\n        /* \"#utility.yul\":6827:6874   */\n      mstore\n        /* \"#utility.yul\":6891:7022   */\n      tag_204\n        /* \"#utility.yul\":7017:7021   */\n      dup2\n        /* \"#utility.yul\":6891:7022   */\n      tag_113\n      jump\t// in\n    tag_204:\n        /* \"#utility.yul\":6883:7022   */\n      swap1\n      pop\n        /* \"#utility.yul\":6610:7029   */\n      swap2\n      swap1\n      pop\n      jump\t// out\n        /* \"#utility.yul\":7035:7153   */\n    tag_114:\n        /* \"#utility.yul\":7122:7146   */\n      tag_206\n        /* \"#utility.yul\":7140:7145   */\n      dup2\n        /* \"#utility.yul\":7122:7146   */\n      tag_108\n      jump\t// in\n    tag_206:\n        /* \"#utility.yul\":7117:7120   */\n      dup3\n        /* \"#utility.yul\":7110:7147   */\n      mstore\n        /* \"#utility.yul\":7035:7153   */\n      pop\n      pop\n      jump\t// out\n        /* \"#utility.yul\":7159:7601   */\n    tag_50:\n        /* \"#utility.yul\":7308:7312   */\n      0x00\n        /* \"#utility.yul\":7346:7348   */\n      0x60\n        /* \"#utility.yul\":7335:7344   */\n      dup3\n        /* \"#utility.yul\":7331:7349   */\n      add\n        /* \"#utility.yul\":7323:7349   */\n      swap1\n      pop\n        /* \"#utility.yul\":7359:7430   */\n      tag_208\n        /* \"#utility.yul\":7427:7428   */\n      0x00\n        /* \"#utility.yul\":7416:7425   */\n      dup4\n        /* \"#utility.yul\":7412:7429   */\n      add\n        /* \"#utility.yul\":7403:7409   */\n      dup7\n        /* \"#utility.yul\":7359:7430   */\n      tag_102\n      jump\t// in\n    tag_208:\n        /* \"#utility.yul\":7440:7512   */\n      tag_209\n        /* \"#utility.yul\":7508:7510   */\n      0x20\n        /* \"#utility.yul\":7497:7506   */\n      dup4\n        /* \"#utility.yul\":7493:7511   */\n      add\n        /* \"#utility.yul\":7484:7490   */\n      dup6\n        /* \"#utility.yul\":7440:7512   */\n      tag_102\n      jump\t// in\n    tag_209:\n        /* \"#utility.yul\":7522:7594   */\n      tag_210\n        /* \"#utility.yul\":7590:7592   */\n      0x40\n        /* \"#utility.yul\":7579:7588   */\n      dup4\n        /* \"#utility.yul\":7575:7593   */\n      add\n        /* \"#utility.yul\":7566:7572   */\n      dup5\n        /* \"#utility.yul\":7522:7594   */\n      tag_114\n      jump\t// in\n    tag_210:\n        /* \"#utility.yul\":7159:7601   */\n      swap5\n      swap4\n      pop\n      pop\n      pop\n      pop\n      jump\t// out\n        /* \"#utility.yul\":7607:7723   */\n    tag_115:\n        /* \"#utility.yul\":7677:7698   */\n      tag_212\n        /* \"#utility.yul\":7692:7697   */\n      dup2\n        /* \"#utility.yul\":7677:7698   */\n      tag_100\n      jump\t// in\n    tag_212:\n        /* \"#utility.yul\":7670:7675   */\n      dup2\n        /* \"#utility.yul\":7667:7699   */\n      eq\n        /* \"#utility.yul\":7657:7717   */\n      tag_213\n      jumpi\n        /* \"#utility.yul\":7713:7714   */\n      0x00\n        /* \"#utility.yul\":7710:7711   */\n      dup1\n        /* \"#utility.yul\":7703:7715   */\n      revert\n        /* \"#utility.yul\":7657:7717   */\n    tag_213:\n        /* \"#utility.yul\":7607:7723   */\n      pop\n      jump\t// out\n        /* \"#utility.yul\":7729:7866   */\n    tag_116:\n        /* \"#utility.yul\":7783:7788   */\n      0x00\n        /* \"#utility.yul\":7814:7820   */\n      dup2\n        /* \"#utility.yul\":7808:7821   */\n      mload\n        /* \"#utility.yul\":7799:7821   */\n      swap1\n      pop\n        /* \"#utility.yul\":7830:7860   */\n      tag_215\n        /* \"#utility.yul\":7854:7859   */\n      dup2\n        /* \"#utility.yul\":7830:7860   */\n      tag_115\n      jump\t// in\n    tag_215:\n        /* \"#utility.yul\":7729:7866   */\n      swap3\n      swap2\n      pop\n      pop\n      jump\t// out\n        /* \"#utility.yul\":7872:8217   */\n    tag_54:\n        /* \"#utility.yul\":7939:7945   */\n      0x00\n        /* \"#utility.yul\":7988:7990   */\n      0x20\n        /* \"#utility.yul\":7976:7985   */\n      dup3\n        /* \"#utility.yul\":7967:7974   */\n      dup5\n        /* \"#utility.yul\":7963:7986   */\n      sub\n        /* \"#utility.yul\":7959:7991   */\n      slt\n        /* \"#utility.yul\":7956:8075   */\n      iszero\n      tag_217\n      jumpi\n        /* \"#utility.yul\":7994:8073   */\n      tag_218\n      tag_88\n      jump\t// in\n    tag_218:\n        /* \"#utility.yul\":7956:8075   */\n    tag_217:\n        /* \"#utility.yul\":8114:8115   */\n      0x00\n        /* \"#utility.yul\":8139:8200   */\n      tag_219\n        /* \"#utility.yul\":8192:8199   */\n      dup5\n        /* \"#utility.yul\":8183:8189   */\n      dup3\n        /* \"#utility.yul\":8172:8181   */\n      dup6\n        /* \"#utility.yul\":8168:8190   */\n      add\n        /* \"#utility.yul\":8139:8200   */\n      tag_116\n      jump\t// in\n    tag_219:\n        /* \"#utility.yul\":8129:8200   */\n      swap2\n      pop\n        /* \"#utility.yul\":8085:8210   */\n      pop\n        /* \"#utility.yul\":7872:8217   */\n      swap3\n      swap2\n      pop\n      pop\n      jump\t// out\n        /* \"#utility.yul\":8223:8335   */\n    tag_117:\n        /* \"#utility.yul\":8306:8328   */\n      tag_221\n        /* \"#utility.yul\":8322:8327   */\n      dup2\n        /* \"#utility.yul\":8306:8328   */\n      tag_94\n      jump\t// in\n    tag_221:\n        /* \"#utility.yul\":8301:8304   */\n      dup3\n        /* \"#utility.yul\":8294:8329   */\n      mstore\n        /* \"#utility.yul\":8223:8335   */\n      pop\n      pop\n      jump\t// out\n        /* \"#utility.yul\":8341:8459   */\n    tag_118:\n        /* \"#utility.yul\":8428:8452   */\n      tag_223\n        /* \"#utility.yul\":8446:8451   */\n      dup2\n        /* \"#utility.yul\":8428:8452   */\n      tag_97\n      jump\t// in\n    tag_223:\n        /* \"#utility.yul\":8423:8426   */\n      dup3\n        /* \"#utility.yul\":8416:8453   */\n      mstore\n        /* \"#utility.yul\":8341:8459   */\n      pop\n      pop\n      jump\t// out\n        /* \"#utility.yul\":8465:9343   */\n    tag_57:\n        /* \"#utility.yul\":8722:8726   */\n      0x00\n        /* \"#utility.yul\":8760:8763   */\n      0xe0\n        /* \"#utility.yul\":8749:8758   */\n      dup3\n        /* \"#utility.yul\":8745:8764   */\n      add\n        /* \"#utility.yul\":8737:8764   */\n      swap1\n      pop\n        /* \"#utility.yul\":8774:8845   */\n      tag_225\n        /* \"#utility.yul\":8842:8843   */\n      0x00\n        /* \"#utility.yul\":8831:8840   */\n      dup4\n        /* \"#utility.yul\":8827:8844   */\n      add\n        /* \"#utility.yul\":8818:8824   */\n      dup11\n        /* \"#utility.yul\":8774:8845   */\n      tag_102\n      jump\t// in\n    tag_225:\n        /* \"#utility.yul\":8855:8927   */\n      tag_226\n        /* \"#utility.yul\":8923:8925   */\n      0x20\n        /* \"#utility.yul\":8912:8921   */\n      dup4\n        /* \"#utility.yul\":8908:8926   */\n      add\n        /* \"#utility.yul\":8899:8905   */\n      dup10\n        /* \"#utility.yul\":8855:8927   */\n      tag_102\n      jump\t// in\n    tag_226:\n        /* \"#utility.yul\":8937:9009   */\n      tag_227\n        /* \"#utility.yul\":9005:9007   */\n      0x40\n        /* \"#utility.yul\":8994:9003   */\n      dup4\n        /* \"#utility.yul\":8990:9008   */\n      add\n        /* \"#utility.yul\":8981:8987   */\n      dup9\n        /* \"#utility.yul\":8937:9009   */\n      tag_114\n      jump\t// in\n    tag_227:\n        /* \"#utility.yul\":9019:9091   */\n      tag_228\n        /* \"#utility.yul\":9087:9089   */\n      0x60\n        /* \"#utility.yul\":9076:9085   */\n      dup4\n        /* \"#utility.yul\":9072:9090   */\n      add\n        /* \"#utility.yul\":9063:9069   */\n      dup8\n        /* \"#utility.yul\":9019:9091   */\n      tag_114\n      jump\t// in\n    tag_228:\n        /* \"#utility.yul\":9101:9170   */\n      tag_229\n        /* \"#utility.yul\":9165:9168   */\n      0x80\n        /* \"#utility.yul\":9154:9163   */\n      dup4\n        /* \"#utility.yul\":9150:9169   */\n      add\n        /* \"#utility.yul\":9141:9147   */\n      dup7\n        /* \"#utility.yul\":9101:9170   */\n      tag_117\n      jump\t// in\n    tag_229:\n        /* \"#utility.yul\":9180:9253   */\n      tag_230\n        /* \"#utility.yul\":9248:9251   */\n      0xa0\n        /* \"#utility.yul\":9237:9246   */\n      dup4\n        /* \"#utility.yul\":9233:9252   */\n      add\n        /* \"#utility.yul\":9224:9230   */\n      dup6\n        /* \"#utility.yul\":9180:9253   */\n      tag_118\n      jump\t// in\n    tag_230:\n        /* \"#utility.yul\":9263:9336   */\n      tag_231\n        /* \"#utility.yul\":9331:9334   */\n      0xc0\n        /* \"#utility.yul\":9320:9329   */\n      dup4\n        /* \"#utility.yul\":9316:9335   */\n      add\n        /* \"#utility.yul\":9307:9313   */\n      dup5\n        /* \"#utility.yul\":9263:9336   */\n      tag_118\n      jump\t// in\n    tag_231:\n        /* \"#utility.yul\":8465:9343   */\n      swap9\n      swap8\n      pop\n      pop\n      pop\n      pop\n      pop\n      pop\n      pop\n      pop\n      jump\t// out\n        /* \"#utility.yul\":9349:9574   */\n    tag_119:\n        /* \"#utility.yul\":9489:9523   */\n      0x4f776e61626c653a206e6577206f776e657220697320746865207a65726f2061\n        /* \"#utility.yul\":9485:9486   */\n      0x00\n        /* \"#utility.yul\":9477:9483   */\n      dup3\n        /* \"#utility.yul\":9473:9487   */\n      add\n        /* \"#utility.yul\":9466:9524   */\n      mstore\n        /* \"#utility.yul\":9558:9566   */\n      0x6464726573730000000000000000000000000000000000000000000000000000\n        /* \"#utility.yul\":9553:9555   */\n      0x20\n        /* \"#utility.yul\":9545:9551   */\n      dup3\n        /* \"#utility.yul\":9541:9556   */\n      add\n        /* \"#utility.yul\":9534:9567   */\n      mstore\n        /* \"#utility.yul\":9349:9574   */\n      pop\n      jump\t// out\n        /* \"#utility.yul\":9580:9946   */\n    tag_120:\n        /* \"#utility.yul\":9722:9725   */\n      0x00\n        /* \"#utility.yul\":9743:9810   */\n      tag_234\n        /* \"#utility.yul\":9807:9809   */\n      0x26\n        /* \"#utility.yul\":9802:9805   */\n      dup4\n        /* \"#utility.yul\":9743:9810   */\n      tag_111\n      jump\t// in\n    tag_234:\n        /* \"#utility.yul\":9736:9810   */\n      swap2\n      pop\n        /* \"#utility.yul\":9819:9912   */\n      tag_235\n        /* \"#utility.yul\":9908:9911   */\n      dup3\n        /* \"#utility.yul\":9819:9912   */\n      tag_119\n      jump\t// in\n    tag_235:\n        /* \"#utility.yul\":9937:9939   */\n      0x40\n        /* \"#utility.yul\":9932:9935   */\n      dup3\n        /* \"#utility.yul\":9928:9940   */\n      add\n        /* \"#utility.yul\":9921:9940   */\n      swap1\n      pop\n        /* \"#utility.yul\":9580:9946   */\n      swap2\n      swap1\n      pop\n      jump\t// out\n        /* \"#utility.yul\":9952:10371   */\n    tag_76:\n        /* \"#utility.yul\":10118:10122   */\n      0x00\n        /* \"#utility.yul\":10156:10158   */\n      0x20\n        /* \"#utility.yul\":10145:10154   */\n      dup3\n        /* \"#utility.yul\":10141:10159   */\n      add\n        /* \"#utility.yul\":10133:10159   */\n      swap1\n      pop\n        /* \"#utility.yul\":10205:10214   */\n      dup2\n        /* \"#utility.yul\":10199:10203   */\n      dup2\n        /* \"#utility.yul\":10195:10215   */\n      sub\n        /* \"#utility.yul\":10191:10192   */\n      0x00\n        /* \"#utility.yul\":10180:10189   */\n      dup4\n        /* \"#utility.yul\":10176:10193   */\n      add\n        /* \"#utility.yul\":10169:10216   */\n      mstore\n        /* \"#utility.yul\":10233:10364   */\n      tag_237\n        /* \"#utility.yul\":10359:10363   */\n      dup2\n        /* \"#utility.yul\":10233:10364   */\n      tag_120\n      jump\t// in\n    tag_237:\n        /* \"#utility.yul\":10225:10364   */\n      swap1\n      pop\n        /* \"#utility.yul\":9952:10371   */\n      swap2\n      swap1\n      pop\n      jump\t// out\n        /* \"#utility.yul\":10377:10559   */\n    tag_121:\n        /* \"#utility.yul\":10517:10551   */\n      0x4f776e61626c653a2063616c6c6572206973206e6f7420746865206f776e6572\n        /* \"#utility.yul\":10513:10514   */\n      0x00\n        /* \"#utility.yul\":10505:10511   */\n      dup3\n        /* \"#utility.yul\":10501:10515   */\n      add\n        /* \"#utility.yul\":10494:10552   */\n      mstore\n        /* \"#utility.yul\":10377:10559   */\n      pop\n      jump\t// out\n        /* \"#utility.yul\":10565:10931   */\n    tag_122:\n        /* \"#utility.yul\":10707:10710   */\n      0x00\n        /* \"#utility.yul\":10728:10795   */\n      tag_240\n        /* \"#utility.yul\":10792:10794   */\n      0x20\n        /* \"#utility.yul\":10787:10790   */\n      dup4\n        /* \"#utility.yul\":10728:10795   */\n      tag_111\n      jump\t// in\n    tag_240:\n        /* \"#utility.yul\":10721:10795   */\n      swap2\n      pop\n        /* \"#utility.yul\":10804:10897   */\n      tag_241\n        /* \"#utility.yul\":10893:10896   */\n      dup3\n        /* \"#utility.yul\":10804:10897   */\n      tag_121\n      jump\t// in\n    tag_241:\n        /* \"#utility.yul\":10922:10924   */\n      0x20\n        /* \"#utility.yul\":10917:10920   */\n      dup3\n        /* \"#utility.yul\":10913:10925   */\n      add\n        /* \"#utility.yul\":10906:10925   */\n      swap1\n      pop\n        /* \"#utility.yul\":10565:10931   */\n      swap2\n      swap1\n      pop\n      jump\t// out\n        /* \"#utility.yul\":10937:11356   */\n    tag_84:\n        /* \"#utility.yul\":11103:11107   */\n      0x00\n        /* \"#utility.yul\":11141:11143   */\n      0x20\n        /* \"#utility.yul\":11130:11139   */\n      dup3\n        /* \"#utility.yul\":11126:11144   */\n      add\n        /* \"#utility.yul\":11118:11144   */\n      swap1\n      pop\n        /* \"#utility.yul\":11190:11199   */\n      dup2\n        /* \"#utility.yul\":11184:11188   */\n      dup2\n        /* \"#utility.yul\":11180:11200   */\n      sub\n        /* \"#utility.yul\":11176:11177   */\n      0x00\n        /* \"#utility.yul\":11165:11174   */\n      dup4\n        /* \"#utility.yul\":11161:11178   */\n      add\n        /* \"#utility.yul\":11154:11201   */\n      mstore\n        /* \"#utility.yul\":11218:11349   */\n      tag_243\n        /* \"#utility.yul\":11344:11348   */\n      dup2\n        /* \"#utility.yul\":11218:11349   */\n      tag_122\n      jump\t// in\n    tag_243:\n        /* \"#utility.yul\":11210:11349   */\n      swap1\n      pop\n        /* \"#utility.yul\":10937:11356   */\n      swap2\n      swap1\n      pop\n      jump\t// out\n\n    auxdata: 0xa26469706673582212208bb54186a10e6a848731b25a0e4f54549800976252acaa308c50a6d7c8109c4864736f6c63430008140033\n}\n",
				"bytecode": {
					"linkReferences": {},
					"object": "608060405234801561000f575f80fd5b5060405162000dc138038062000dc1833981810160405281019061003391906101bb565b61004f61004461009560201b60201c565b61009c60201b60201c565b8060015f6101000a81548173ffffffffffffffffffffffffffffffffffffffff021916908373ffffffffffffffffffffffffffffffffffffffff160217905550506101e6565b5f33905090565b5f805f9054906101000a900473ffffffffffffffffffffffffffffffffffffffff169050815f806101000a81548173ffffffffffffffffffffffffffffffffffffffff021916908373ffffffffffffffffffffffffffffffffffffffff1602179055508173ffffffffffffffffffffffffffffffffffffffff168173ffffffffffffffffffffffffffffffffffffffff167f8be0079c531659141344cd1fd0a4f28419497f9722a3daafe3b4186f6b6457e060405160405180910390a35050565b5f80fd5b5f73ffffffffffffffffffffffffffffffffffffffff82169050919050565b5f61018a82610161565b9050919050565b61019a81610180565b81146101a4575f80fd5b50565b5f815190506101b581610191565b92915050565b5f602082840312156101d0576101cf61015d565b5b5f6101dd848285016101a7565b91505092915050565b610bcd80620001f45f395ff3fe608060405234801561000f575f80fd5b506004361061007b575f3560e01c80638da5cb5b116100595780638da5cb5b146100d5578063efc1fd16146100f3578063f2fde38b14610124578063fc0c546a146101405761007b565b80631a53d47e1461007f5780633634e44f1461009b578063715018a6146100cb575b5f80fd5b6100996004803603810190610094919061067b565b61015e565b005b6100b560048036038101906100b09190610722565b6102e0565b6040516100c291906107a0565b60405180910390f35b6100d36103a0565b005b6100dd6103b3565b6040516100ea91906107c8565b60405180910390f35b61010d600480360381019061010891906107e1565b6103da565b60405161011b92919061080c565b60405180910390f35b61013e600480360381019061013991906107e1565b610430565b005b6101486104b2565b604051610155919061088e565b60405180910390f35b5f60015f9054906101000a900473ffffffffffffffffffffffffffffffffffffffff1673ffffffffffffffffffffffffffffffffffffffff166370a08231846040518263ffffffff1660e01b81526004016101b991906107c8565b602060405180830381865afa1580156101d4573d5f803e3d5ffd5b505050506040513d601f19601f820116820180604052508101906101f891906108da565b90505f811161023c576040517f08c379a00000000000000000000000000000000000000000000000000000000081526004016102339061095f565b60405180910390fd5b60015f9054906101000a900473ffffffffffffffffffffffffffffffffffffffff1673ffffffffffffffffffffffffffffffffffffffff166323b872dd8484846040518463ffffffff1660e01b815260040161029a9392919061098c565b6020604051808303815f875af11580156102b6573d5f803e3d5ffd5b505050506040513d601f19601f820116820180604052508101906102da91906109eb565b50505050565b5f60015f9054906101000a900473ffffffffffffffffffffffffffffffffffffffff1673ffffffffffffffffffffffffffffffffffffffff1663d505accf86307fffffffffffffffffffffffffffffffffffffffffffffffffffffffffffffffff808989896040518863ffffffff1660e01b81526004016103679796959493929190610a34565b5f604051808303815f87803b15801561037e575f80fd5b505af1158015610390573d5f803e3d5ffd5b5050505060019050949350505050565b6103a86104d7565b6103b15f610555565b565b5f805f9054906101000a900473ffffffffffffffffffffffffffffffffffffffff16905090565b5f806103e46104d7565b8260015f6101000a81548173ffffffffffffffffffffffffffffffffffffffff021916908373ffffffffffffffffffffffffffffffffffffffff16021790555082600191509150915091565b6104386104d7565b5f73ffffffffffffffffffffffffffffffffffffffff168173ffffffffffffffffffffffffffffffffffffffff16036104a6576040517f08c379a000000000000000000000000000000000000000000000000000000000815260040161049d90610b11565b60405180910390fd5b6104af81610555565b50565b60015f9054906101000a900473ffffffffffffffffffffffffffffffffffffffff1681565b6104df610616565b73ffffffffffffffffffffffffffffffffffffffff166104fd6103b3565b73ffffffffffffffffffffffffffffffffffffffff1614610553576040517f08c379a000000000000000000000000000000000000000000000000000000000815260040161054a90610b79565b60405180910390fd5b565b5f805f9054906101000a900473ffffffffffffffffffffffffffffffffffffffff169050815f806101000a81548173ffffffffffffffffffffffffffffffffffffffff021916908373ffffffffffffffffffffffffffffffffffffffff1602179055508173ffffffffffffffffffffffffffffffffffffffff168173ffffffffffffffffffffffffffffffffffffffff167f8be0079c531659141344cd1fd0a4f28419497f9722a3daafe3b4186f6b6457e060405160405180910390a35050565b5f33905090565b5f80fd5b5f73ffffffffffffffffffffffffffffffffffffffff82169050919050565b5f61064a82610621565b9050919050565b61065a81610640565b8114610664575f80fd5b50565b5f8135905061067581610651565b92915050565b5f80604083850312156106915761069061061d565b5b5f61069e85828601610667565b92505060206106af85828601610667565b9150509250929050565b5f60ff82169050919050565b6106ce816106b9565b81146106d8575f80fd5b50565b5f813590506106e9816106c5565b92915050565b5f819050919050565b610701816106ef565b811461070b575f80fd5b50565b5f8135905061071c816106f8565b92915050565b5f805f806080858703121561073a5761073961061d565b5b5f61074787828801610667565b9450506020610758878288016106db565b93505060406107698782880161070e565b925050606061077a8782880161070e565b91505092959194509250565b5f8115159050919050565b61079a81610786565b82525050565b5f6020820190506107b35f830184610791565b92915050565b6107c281610640565b82525050565b5f6020820190506107db5f8301846107b9565b92915050565b5f602082840312156107f6576107f561061d565b5b5f61080384828501610667565b91505092915050565b5f60408201905061081f5f8301856107b9565b61082c6020830184610791565b9392505050565b5f819050919050565b5f61085661085161084c84610621565b610833565b610621565b9050919050565b5f6108678261083c565b9050919050565b5f6108788261085d565b9050919050565b6108888161086e565b82525050565b5f6020820190506108a15f83018461087f565b92915050565b5f819050919050565b6108b9816108a7565b81146108c3575f80fd5b50565b5f815190506108d4816108b0565b92915050565b5f602082840312156108ef576108ee61061d565b5b5f6108fc848285016108c6565b91505092915050565b5f82825260208201905092915050565b7f6e6f742062616c616e63650000000000000000000000000000000000000000005f82015250565b5f610949600b83610905565b915061095482610915565b602082019050919050565b5f6020820190508181035f8301526109768161093d565b9050919050565b610986816108a7565b82525050565b5f60608201905061099f5f8301866107b9565b6109ac60208301856107b9565b6109b9604083018461097d565b949350505050565b6109ca81610786565b81146109d4575f80fd5b50565b5f815190506109e5816109c1565b92915050565b5f60208284031215610a00576109ff61061d565b5b5f610a0d848285016109d7565b91505092915050565b610a1f816106b9565b82525050565b610a2e816106ef565b82525050565b5f60e082019050610a475f83018a6107b9565b610a5460208301896107b9565b610a61604083018861097d565b610a6e606083018761097d565b610a7b6080830186610a16565b610a8860a0830185610a25565b610a9560c0830184610a25565b98975050505050505050565b7f4f776e61626c653a206e6577206f776e657220697320746865207a65726f20615f8201527f6464726573730000000000000000000000000000000000000000000000000000602082015250565b5f610afb602683610905565b9150610b0682610aa1565b604082019050919050565b5f6020820190508181035f830152610b2881610aef565b9050919050565b7f4f776e61626c653a2063616c6c6572206973206e6f7420746865206f776e65725f82015250565b5f610b63602083610905565b9150610b6e82610b2f565b602082019050919050565b5f6020820190508181035f830152610b9081610b57565b905091905056fea26469706673582212208bb54186a10e6a848731b25a0e4f54549800976252acaa308c50a6d7c8109c4864736f6c63430008140033",
					"opcodes": "PUSH1 0x80 PUSH1 0x40 MSTORE CALLVALUE DUP1 ISZERO PUSH2 0xF JUMPI PUSH0 DUP1 REVERT JUMPDEST POP PUSH1 0x40 MLOAD PUSH3 0xDC1 CODESIZE SUB DUP1 PUSH3 0xDC1 DUP4 CODECOPY DUP2 DUP2 ADD PUSH1 0x40 MSTORE DUP2 ADD SWAP1 PUSH2 0x33 SWAP2 SWAP1 PUSH2 0x1BB JUMP JUMPDEST PUSH2 0x4F PUSH2 0x44 PUSH2 0x95 PUSH1 0x20 SHL PUSH1 0x20 SHR JUMP JUMPDEST PUSH2 0x9C PUSH1 0x20 SHL PUSH1 0x20 SHR JUMP JUMPDEST DUP1 PUSH1 0x1 PUSH0 PUSH2 0x100 EXP DUP2 SLOAD DUP2 PUSH20 0xFFFFFFFFFFFFFFFFFFFFFFFFFFFFFFFFFFFFFFFF MUL NOT AND SWAP1 DUP4 PUSH20 0xFFFFFFFFFFFFFFFFFFFFFFFFFFFFFFFFFFFFFFFF AND MUL OR SWAP1 SSTORE POP POP PUSH2 0x1E6 JUMP JUMPDEST PUSH0 CALLER SWAP1 POP SWAP1 JUMP JUMPDEST PUSH0 DUP1 PUSH0 SWAP1 SLOAD SWAP1 PUSH2 0x100 EXP SWAP1 DIV PUSH20 0xFFFFFFFFFFFFFFFFFFFFFFFFFFFFFFFFFFFFFFFF AND SWAP1 POP DUP2 PUSH0 DUP1 PUSH2 0x100 EXP DUP2 SLOAD DUP2 PUSH20 0xFFFFFFFFFFFFFFFFFFFFFFFFFFFFFFFFFFFFFFFF MUL NOT AND SWAP1 DUP4 PUSH20 0xFFFFFFFFFFFFFFFFFFFFFFFFFFFFFFFFFFFFFFFF AND MUL OR SWAP1 SSTORE POP DUP2 PUSH20 0xFFFFFFFFFFFFFFFFFFFFFFFFFFFFFFFFFFFFFFFF AND DUP2 PUSH20 0xFFFFFFFFFFFFFFFFFFFFFFFFFFFFFFFFFFFFFFFF AND PUSH32 0x8BE0079C531659141344CD1FD0A4F28419497F9722A3DAAFE3B4186F6B6457E0 PUSH1 0x40 MLOAD PUSH1 0x40 MLOAD DUP1 SWAP2 SUB SWAP1 LOG3 POP POP JUMP JUMPDEST PUSH0 DUP1 REVERT JUMPDEST PUSH0 PUSH20 0xFFFFFFFFFFFFFFFFFFFFFFFFFFFFFFFFFFFFFFFF DUP3 AND SWAP1 POP SWAP2 SWAP1 POP JUMP JUMPDEST PUSH0 PUSH2 0x18A DUP3 PUSH2 0x161 JUMP JUMPDEST SWAP1 POP SWAP2 SWAP1 POP JUMP JUMPDEST PUSH2 0x19A DUP2 PUSH2 0x180 JUMP JUMPDEST DUP2 EQ PUSH2 0x1A4 JUMPI PUSH0 DUP1 REVERT JUMPDEST POP JUMP JUMPDEST PUSH0 DUP2 MLOAD SWAP1 POP PUSH2 0x1B5 DUP2 PUSH2 0x191 JUMP JUMPDEST SWAP3 SWAP2 POP POP JUMP JUMPDEST PUSH0 PUSH1 0x20 DUP3 DUP5 SUB SLT ISZERO PUSH2 0x1D0 JUMPI PUSH2 0x1CF PUSH2 0x15D JUMP JUMPDEST JUMPDEST PUSH0 PUSH2 0x1DD DUP5 DUP3 DUP6 ADD PUSH2 0x1A7 JUMP JUMPDEST SWAP2 POP POP SWAP3 SWAP2 POP POP JUMP JUMPDEST PUSH2 0xBCD DUP1 PUSH3 0x1F4 PUSH0 CODECOPY PUSH0 RETURN INVALID PUSH1 0x80 PUSH1 0x40 MSTORE CALLVALUE DUP1 ISZERO PUSH2 0xF JUMPI PUSH0 DUP1 REVERT JUMPDEST POP PUSH1 0x4 CALLDATASIZE LT PUSH2 0x7B JUMPI PUSH0 CALLDATALOAD PUSH1 0xE0 SHR DUP1 PUSH4 0x8DA5CB5B GT PUSH2 0x59 JUMPI DUP1 PUSH4 0x8DA5CB5B EQ PUSH2 0xD5 JUMPI DUP1 PUSH4 0xEFC1FD16 EQ PUSH2 0xF3 JUMPI DUP1 PUSH4 0xF2FDE38B EQ PUSH2 0x124 JUMPI DUP1 PUSH4 0xFC0C546A EQ PUSH2 0x140 JUMPI PUSH2 0x7B JUMP JUMPDEST DUP1 PUSH4 0x1A53D47E EQ PUSH2 0x7F JUMPI DUP1 PUSH4 0x3634E44F EQ PUSH2 0x9B JUMPI DUP1 PUSH4 0x715018A6 EQ PUSH2 0xCB JUMPI JUMPDEST PUSH0 DUP1 REVERT JUMPDEST PUSH2 0x99 PUSH1 0x4 DUP1 CALLDATASIZE SUB DUP2 ADD SWAP1 PUSH2 0x94 SWAP2 SWAP1 PUSH2 0x67B JUMP JUMPDEST PUSH2 0x15E JUMP JUMPDEST STOP JUMPDEST PUSH2 0xB5 PUSH1 0x4 DUP1 CALLDATASIZE SUB DUP2 ADD SWAP1 PUSH2 0xB0 SWAP2 SWAP1 PUSH2 0x722 JUMP JUMPDEST PUSH2 0x2E0 JUMP JUMPDEST PUSH1 0x40 MLOAD PUSH2 0xC2 SWAP2 SWAP1 PUSH2 0x7A0 JUMP JUMPDEST PUSH1 0x40 MLOAD DUP1 SWAP2 SUB SWAP1 RETURN JUMPDEST PUSH2 0xD3 PUSH2 0x3A0 JUMP JUMPDEST STOP JUMPDEST PUSH2 0xDD PUSH2 0x3B3 JUMP JUMPDEST PUSH1 0x40 MLOAD PUSH2 0xEA SWAP2 SWAP1 PUSH2 0x7C8 JUMP JUMPDEST PUSH1 0x40 MLOAD DUP1 SWAP2 SUB SWAP1 RETURN JUMPDEST PUSH2 0x10D PUSH1 0x4 DUP1 CALLDATASIZE SUB DUP2 ADD SWAP1 PUSH2 0x108 SWAP2 SWAP1 PUSH2 0x7E1 JUMP JUMPDEST PUSH2 0x3DA JUMP JUMPDEST PUSH1 0x40 MLOAD PUSH2 0x11B SWAP3 SWAP2 SWAP1 PUSH2 0x80C JUMP JUMPDEST PUSH1 0x40 MLOAD DUP1 SWAP2 SUB SWAP1 RETURN JUMPDEST PUSH2 0x13E PUSH1 0x4 DUP1 CALLDATASIZE SUB DUP2 ADD SWAP1 PUSH2 0x139 SWAP2 SWAP1 PUSH2 0x7E1 JUMP JUMPDEST PUSH2 0x430 JUMP JUMPDEST STOP JUMPDEST PUSH2 0x148 PUSH2 0x4B2 JUMP JUMPDEST PUSH1 0x40 MLOAD PUSH2 0x155 SWAP2 SWAP1 PUSH2 0x88E JUMP JUMPDEST PUSH1 0x40 MLOAD DUP1 SWAP2 SUB SWAP1 RETURN JUMPDEST PUSH0 PUSH1 0x1 PUSH0 SWAP1 SLOAD SWAP1 PUSH2 0x100 EXP SWAP1 DIV PUSH20 0xFFFFFFFFFFFFFFFFFFFFFFFFFFFFFFFFFFFFFFFF AND PUSH20 0xFFFFFFFFFFFFFFFFFFFFFFFFFFFFFFFFFFFFFFFF AND PUSH4 0x70A08231 DUP5 PUSH1 0x40 MLOAD DUP3 PUSH4 0xFFFFFFFF AND PUSH1 0xE0 SHL DUP2 MSTORE PUSH1 0x4 ADD PUSH2 0x1B9 SWAP2 SWAP1 PUSH2 0x7C8 JUMP JUMPDEST PUSH1 0x20 PUSH1 0x40 MLOAD DUP1 DUP4 SUB DUP2 DUP7 GAS STATICCALL ISZERO DUP1 ISZERO PUSH2 0x1D4 JUMPI RETURNDATASIZE PUSH0 DUP1 RETURNDATACOPY RETURNDATASIZE PUSH0 REVERT JUMPDEST POP POP POP POP PUSH1 0x40 MLOAD RETURNDATASIZE PUSH1 0x1F NOT PUSH1 0x1F DUP3 ADD AND DUP3 ADD DUP1 PUSH1 0x40 MSTORE POP DUP2 ADD SWAP1 PUSH2 0x1F8 SWAP2 SWAP1 PUSH2 0x8DA JUMP JUMPDEST SWAP1 POP PUSH0 DUP2 GT PUSH2 0x23C JUMPI PUSH1 0x40 MLOAD PUSH32 0x8C379A000000000000000000000000000000000000000000000000000000000 DUP2 MSTORE PUSH1 0x4 ADD PUSH2 0x233 SWAP1 PUSH2 0x95F JUMP JUMPDEST PUSH1 0x40 MLOAD DUP1 SWAP2 SUB SWAP1 REVERT JUMPDEST PUSH1 0x1 PUSH0 SWAP1 SLOAD SWAP1 PUSH2 0x100 EXP SWAP1 DIV PUSH20 0xFFFFFFFFFFFFFFFFFFFFFFFFFFFFFFFFFFFFFFFF AND PUSH20 0xFFFFFFFFFFFFFFFFFFFFFFFFFFFFFFFFFFFFFFFF AND PUSH4 0x23B872DD DUP5 DUP5 DUP5 PUSH1 0x40 MLOAD DUP5 PUSH4 0xFFFFFFFF AND PUSH1 0xE0 SHL DUP2 MSTORE PUSH1 0x4 ADD PUSH2 0x29A SWAP4 SWAP3 SWAP2 SWAP1 PUSH2 0x98C JUMP JUMPDEST PUSH1 0x20 PUSH1 0x40 MLOAD DUP1 DUP4 SUB DUP2 PUSH0 DUP8 GAS CALL ISZERO DUP1 ISZERO PUSH2 0x2B6 JUMPI RETURNDATASIZE PUSH0 DUP1 RETURNDATACOPY RETURNDATASIZE PUSH0 REVERT JUMPDEST POP POP POP POP PUSH1 0x40 MLOAD RETURNDATASIZE PUSH1 0x1F NOT PUSH1 0x1F DUP3 ADD AND DUP3 ADD DUP1 PUSH1 0x40 MSTORE POP DUP2 ADD SWAP1 PUSH2 0x2DA SWAP2 SWAP1 PUSH2 0x9EB JUMP JUMPDEST POP POP POP POP JUMP JUMPDEST PUSH0 PUSH1 0x1 PUSH0 SWAP1 SLOAD SWAP1 PUSH2 0x100 EXP SWAP1 DIV PUSH20 0xFFFFFFFFFFFFFFFFFFFFFFFFFFFFFFFFFFFFFFFF AND PUSH20 0xFFFFFFFFFFFFFFFFFFFFFFFFFFFFFFFFFFFFFFFF AND PUSH4 0xD505ACCF DUP7 ADDRESS PUSH32 0xFFFFFFFFFFFFFFFFFFFFFFFFFFFFFFFFFFFFFFFFFFFFFFFFFFFFFFFFFFFFFFFF DUP1 DUP10 DUP10 DUP10 PUSH1 0x40 MLOAD DUP9 PUSH4 0xFFFFFFFF AND PUSH1 0xE0 SHL DUP2 MSTORE PUSH1 0x4 ADD PUSH2 0x367 SWAP8 SWAP7 SWAP6 SWAP5 SWAP4 SWAP3 SWAP2 SWAP1 PUSH2 0xA34 JUMP JUMPDEST PUSH0 PUSH1 0x40 MLOAD DUP1 DUP4 SUB DUP2 PUSH0 DUP8 DUP1 EXTCODESIZE ISZERO DUP1 ISZERO PUSH2 0x37E JUMPI PUSH0 DUP1 REVERT JUMPDEST POP GAS CALL ISZERO DUP1 ISZERO PUSH2 0x390 JUMPI RETURNDATASIZE PUSH0 DUP1 RETURNDATACOPY RETURNDATASIZE PUSH0 REVERT JUMPDEST POP POP POP POP PUSH1 0x1 SWAP1 POP SWAP5 SWAP4 POP POP POP POP JUMP JUMPDEST PUSH2 0x3A8 PUSH2 0x4D7 JUMP JUMPDEST PUSH2 0x3B1 PUSH0 PUSH2 0x555 JUMP JUMPDEST JUMP JUMPDEST PUSH0 DUP1 PUSH0 SWAP1 SLOAD SWAP1 PUSH2 0x100 EXP SWAP1 DIV PUSH20 0xFFFFFFFFFFFFFFFFFFFFFFFFFFFFFFFFFFFFFFFF AND SWAP1 POP SWAP1 JUMP JUMPDEST PUSH0 DUP1 PUSH2 0x3E4 PUSH2 0x4D7 JUMP JUMPDEST DUP3 PUSH1 0x1 PUSH0 PUSH2 0x100 EXP DUP2 SLOAD DUP2 PUSH20 0xFFFFFFFFFFFFFFFFFFFFFFFFFFFFFFFFFFFFFFFF MUL NOT AND SWAP1 DUP4 PUSH20 0xFFFFFFFFFFFFFFFFFFFFFFFFFFFFFFFFFFFFFFFF AND MUL OR SWAP1 SSTORE POP DUP3 PUSH1 0x1 SWAP2 POP SWAP2 POP SWAP2 POP SWAP2 JUMP JUMPDEST PUSH2 0x438 PUSH2 0x4D7 JUMP JUMPDEST PUSH0 PUSH20 0xFFFFFFFFFFFFFFFFFFFFFFFFFFFFFFFFFFFFFFFF AND DUP2 PUSH20 0xFFFFFFFFFFFFFFFFFFFFFFFFFFFFFFFFFFFFFFFF AND SUB PUSH2 0x4A6 JUMPI PUSH1 0x40 MLOAD PUSH32 0x8C379A000000000000000000000000000000000000000000000000000000000 DUP2 MSTORE PUSH1 0x4 ADD PUSH2 0x49D SWAP1 PUSH2 0xB11 JUMP JUMPDEST PUSH1 0x40 MLOAD DUP1 SWAP2 SUB SWAP1 REVERT JUMPDEST PUSH2 0x4AF DUP2 PUSH2 0x555 JUMP JUMPDEST POP JUMP JUMPDEST PUSH1 0x1 PUSH0 SWAP1 SLOAD SWAP1 PUSH2 0x100 EXP SWAP1 DIV PUSH20 0xFFFFFFFFFFFFFFFFFFFFFFFFFFFFFFFFFFFFFFFF AND DUP2 JUMP JUMPDEST PUSH2 0x4DF PUSH2 0x616 JUMP JUMPDEST PUSH20 0xFFFFFFFFFFFFFFFFFFFFFFFFFFFFFFFFFFFFFFFF AND PUSH2 0x4FD PUSH2 0x3B3 JUMP JUMPDEST PUSH20 0xFFFFFFFFFFFFFFFFFFFFFFFFFFFFFFFFFFFFFFFF AND EQ PUSH2 0x553 JUMPI PUSH1 0x40 MLOAD PUSH32 0x8C379A000000000000000000000000000000000000000000000000000000000 DUP2 MSTORE PUSH1 0x4 ADD PUSH2 0x54A SWAP1 PUSH2 0xB79 JUMP JUMPDEST PUSH1 0x40 MLOAD DUP1 SWAP2 SUB SWAP1 REVERT JUMPDEST JUMP JUMPDEST PUSH0 DUP1 PUSH0 SWAP1 SLOAD SWAP1 PUSH2 0x100 EXP SWAP1 DIV PUSH20 0xFFFFFFFFFFFFFFFFFFFFFFFFFFFFFFFFFFFFFFFF AND SWAP1 POP DUP2 PUSH0 DUP1 PUSH2 0x100 EXP DUP2 SLOAD DUP2 PUSH20 0xFFFFFFFFFFFFFFFFFFFFFFFFFFFFFFFFFFFFFFFF MUL NOT AND SWAP1 DUP4 PUSH20 0xFFFFFFFFFFFFFFFFFFFFFFFFFFFFFFFFFFFFFFFF AND MUL OR SWAP1 SSTORE POP DUP2 PUSH20 0xFFFFFFFFFFFFFFFFFFFFFFFFFFFFFFFFFFFFFFFF AND DUP2 PUSH20 0xFFFFFFFFFFFFFFFFFFFFFFFFFFFFFFFFFFFFFFFF AND PUSH32 0x8BE0079C531659141344CD1FD0A4F28419497F9722A3DAAFE3B4186F6B6457E0 PUSH1 0x40 MLOAD PUSH1 0x40 MLOAD DUP1 SWAP2 SUB SWAP1 LOG3 POP POP JUMP JUMPDEST PUSH0 CALLER SWAP1 POP SWAP1 JUMP JUMPDEST PUSH0 DUP1 REVERT JUMPDEST PUSH0 PUSH20 0xFFFFFFFFFFFFFFFFFFFFFFFFFFFFFFFFFFFFFFFF DUP3 AND SWAP1 POP SWAP2 SWAP1 POP JUMP JUMPDEST PUSH0 PUSH2 0x64A DUP3 PUSH2 0x621 JUMP JUMPDEST SWAP1 POP SWAP2 SWAP1 POP JUMP JUMPDEST PUSH2 0x65A DUP2 PUSH2 0x640 JUMP JUMPDEST DUP2 EQ PUSH2 0x664 JUMPI PUSH0 DUP1 REVERT JUMPDEST POP JUMP JUMPDEST PUSH0 DUP2 CALLDATALOAD SWAP1 POP PUSH2 0x675 DUP2 PUSH2 0x651 JUMP JUMPDEST SWAP3 SWAP2 POP POP JUMP JUMPDEST PUSH0 DUP1 PUSH1 0x40 DUP4 DUP6 SUB SLT ISZERO PUSH2 0x691 JUMPI PUSH2 0x690 PUSH2 0x61D JUMP JUMPDEST JUMPDEST PUSH0 PUSH2 0x69E DUP6 DUP3 DUP7 ADD PUSH2 0x667 JUMP JUMPDEST SWAP3 POP POP PUSH1 0x20 PUSH2 0x6AF DUP6 DUP3 DUP7 ADD PUSH2 0x667 JUMP JUMPDEST SWAP2 POP POP SWAP3 POP SWAP3 SWAP1 POP JUMP JUMPDEST PUSH0 PUSH1 0xFF DUP3 AND SWAP1 POP SWAP2 SWAP1 POP JUMP JUMPDEST PUSH2 0x6CE DUP2 PUSH2 0x6B9 JUMP JUMPDEST DUP2 EQ PUSH2 0x6D8 JUMPI PUSH0 DUP1 REVERT JUMPDEST POP JUMP JUMPDEST PUSH0 DUP2 CALLDATALOAD SWAP1 POP PUSH2 0x6E9 DUP2 PUSH2 0x6C5 JUMP JUMPDEST SWAP3 SWAP2 POP POP JUMP JUMPDEST PUSH0 DUP2 SWAP1 POP SWAP2 SWAP1 POP JUMP JUMPDEST PUSH2 0x701 DUP2 PUSH2 0x6EF JUMP JUMPDEST DUP2 EQ PUSH2 0x70B JUMPI PUSH0 DUP1 REVERT JUMPDEST POP JUMP JUMPDEST PUSH0 DUP2 CALLDATALOAD SWAP1 POP PUSH2 0x71C DUP2 PUSH2 0x6F8 JUMP JUMPDEST SWAP3 SWAP2 POP POP JUMP JUMPDEST PUSH0 DUP1 PUSH0 DUP1 PUSH1 0x80 DUP6 DUP8 SUB SLT ISZERO PUSH2 0x73A JUMPI PUSH2 0x739 PUSH2 0x61D JUMP JUMPDEST JUMPDEST PUSH0 PUSH2 0x747 DUP8 DUP3 DUP9 ADD PUSH2 0x667 JUMP JUMPDEST SWAP5 POP POP PUSH1 0x20 PUSH2 0x758 DUP8 DUP3 DUP9 ADD PUSH2 0x6DB JUMP JUMPDEST SWAP4 POP POP PUSH1 0x40 PUSH2 0x769 DUP8 DUP3 DUP9 ADD PUSH2 0x70E JUMP JUMPDEST SWAP3 POP POP PUSH1 0x60 PUSH2 0x77A DUP8 DUP3 DUP9 ADD PUSH2 0x70E JUMP JUMPDEST SWAP2 POP POP SWAP3 SWAP6 SWAP2 SWAP5 POP SWAP3 POP JUMP JUMPDEST PUSH0 DUP2 ISZERO ISZERO SWAP1 POP SWAP2 SWAP1 POP JUMP JUMPDEST PUSH2 0x79A DUP2 PUSH2 0x786 JUMP JUMPDEST DUP3 MSTORE POP POP JUMP JUMPDEST PUSH0 PUSH1 0x20 DUP3 ADD SWAP1 POP PUSH2 0x7B3 PUSH0 DUP4 ADD DUP5 PUSH2 0x791 JUMP JUMPDEST SWAP3 SWAP2 POP POP JUMP JUMPDEST PUSH2 0x7C2 DUP2 PUSH2 0x640 JUMP JUMPDEST DUP3 MSTORE POP POP JUMP JUMPDEST PUSH0 PUSH1 0x20 DUP3 ADD SWAP1 POP PUSH2 0x7DB PUSH0 DUP4 ADD DUP5 PUSH2 0x7B9 JUMP JUMPDEST SWAP3 SWAP2 POP POP JUMP JUMPDEST PUSH0 PUSH1 0x20 DUP3 DUP5 SUB SLT ISZERO PUSH2 0x7F6 JUMPI PUSH2 0x7F5 PUSH2 0x61D JUMP JUMPDEST JUMPDEST PUSH0 PUSH2 0x803 DUP5 DUP3 DUP6 ADD PUSH2 0x667 JUMP JUMPDEST SWAP2 POP POP SWAP3 SWAP2 POP POP JUMP JUMPDEST PUSH0 PUSH1 0x40 DUP3 ADD SWAP1 POP PUSH2 0x81F PUSH0 DUP4 ADD DUP6 PUSH2 0x7B9 JUMP JUMPDEST PUSH2 0x82C PUSH1 0x20 DUP4 ADD DUP5 PUSH2 0x791 JUMP JUMPDEST SWAP4 SWAP3 POP POP POP JUMP JUMPDEST PUSH0 DUP2 SWAP1 POP SWAP2 SWAP1 POP JUMP JUMPDEST PUSH0 PUSH2 0x856 PUSH2 0x851 PUSH2 0x84C DUP5 PUSH2 0x621 JUMP JUMPDEST PUSH2 0x833 JUMP JUMPDEST PUSH2 0x621 JUMP JUMPDEST SWAP1 POP SWAP2 SWAP1 POP JUMP JUMPDEST PUSH0 PUSH2 0x867 DUP3 PUSH2 0x83C JUMP JUMPDEST SWAP1 POP SWAP2 SWAP1 POP JUMP JUMPDEST PUSH0 PUSH2 0x878 DUP3 PUSH2 0x85D JUMP JUMPDEST SWAP1 POP SWAP2 SWAP1 POP JUMP JUMPDEST PUSH2 0x888 DUP2 PUSH2 0x86E JUMP JUMPDEST DUP3 MSTORE POP POP JUMP JUMPDEST PUSH0 PUSH1 0x20 DUP3 ADD SWAP1 POP PUSH2 0x8A1 PUSH0 DUP4 ADD DUP5 PUSH2 0x87F JUMP JUMPDEST SWAP3 SWAP2 POP POP JUMP JUMPDEST PUSH0 DUP2 SWAP1 POP SWAP2 SWAP1 POP JUMP JUMPDEST PUSH2 0x8B9 DUP2 PUSH2 0x8A7 JUMP JUMPDEST DUP2 EQ PUSH2 0x8C3 JUMPI PUSH0 DUP1 REVERT JUMPDEST POP JUMP JUMPDEST PUSH0 DUP2 MLOAD SWAP1 POP PUSH2 0x8D4 DUP2 PUSH2 0x8B0 JUMP JUMPDEST SWAP3 SWAP2 POP POP JUMP JUMPDEST PUSH0 PUSH1 0x20 DUP3 DUP5 SUB SLT ISZERO PUSH2 0x8EF JUMPI PUSH2 0x8EE PUSH2 0x61D JUMP JUMPDEST JUMPDEST PUSH0 PUSH2 0x8FC DUP5 DUP3 DUP6 ADD PUSH2 0x8C6 JUMP JUMPDEST SWAP2 POP POP SWAP3 SWAP2 POP POP JUMP JUMPDEST PUSH0 DUP3 DUP3 MSTORE PUSH1 0x20 DUP3 ADD SWAP1 POP SWAP3 SWAP2 POP POP JUMP JUMPDEST PUSH32 0x6E6F742062616C616E6365000000000000000000000000000000000000000000 PUSH0 DUP3 ADD MSTORE POP JUMP JUMPDEST PUSH0 PUSH2 0x949 PUSH1 0xB DUP4 PUSH2 0x905 JUMP JUMPDEST SWAP2 POP PUSH2 0x954 DUP3 PUSH2 0x915 JUMP JUMPDEST PUSH1 0x20 DUP3 ADD SWAP1 POP SWAP2 SWAP1 POP JUMP JUMPDEST PUSH0 PUSH1 0x20 DUP3 ADD SWAP1 POP DUP2 DUP2 SUB PUSH0 DUP4 ADD MSTORE PUSH2 0x976 DUP2 PUSH2 0x93D JUMP JUMPDEST SWAP1 POP SWAP2 SWAP1 POP JUMP JUMPDEST PUSH2 0x986 DUP2 PUSH2 0x8A7 JUMP JUMPDEST DUP3 MSTORE POP POP JUMP JUMPDEST PUSH0 PUSH1 0x60 DUP3 ADD SWAP1 POP PUSH2 0x99F PUSH0 DUP4 ADD DUP7 PUSH2 0x7B9 JUMP JUMPDEST PUSH2 0x9AC PUSH1 0x20 DUP4 ADD DUP6 PUSH2 0x7B9 JUMP JUMPDEST PUSH2 0x9B9 PUSH1 0x40 DUP4 ADD DUP5 PUSH2 0x97D JUMP JUMPDEST SWAP5 SWAP4 POP POP POP POP JUMP JUMPDEST PUSH2 0x9CA DUP2 PUSH2 0x786 JUMP JUMPDEST DUP2 EQ PUSH2 0x9D4 JUMPI PUSH0 DUP1 REVERT JUMPDEST POP JUMP JUMPDEST PUSH0 DUP2 MLOAD SWAP1 POP PUSH2 0x9E5 DUP2 PUSH2 0x9C1 JUMP JUMPDEST SWAP3 SWAP2 POP POP JUMP JUMPDEST PUSH0 PUSH1 0x20 DUP3 DUP5 SUB SLT ISZERO PUSH2 0xA00 JUMPI PUSH2 0x9FF PUSH2 0x61D JUMP JUMPDEST JUMPDEST PUSH0 PUSH2 0xA0D DUP5 DUP3 DUP6 ADD PUSH2 0x9D7 JUMP JUMPDEST SWAP2 POP POP SWAP3 SWAP2 POP POP JUMP JUMPDEST PUSH2 0xA1F DUP2 PUSH2 0x6B9 JUMP JUMPDEST DUP3 MSTORE POP POP JUMP JUMPDEST PUSH2 0xA2E DUP2 PUSH2 0x6EF JUMP JUMPDEST DUP3 MSTORE POP POP JUMP JUMPDEST PUSH0 PUSH1 0xE0 DUP3 ADD SWAP1 POP PUSH2 0xA47 PUSH0 DUP4 ADD DUP11 PUSH2 0x7B9 JUMP JUMPDEST PUSH2 0xA54 PUSH1 0x20 DUP4 ADD DUP10 PUSH2 0x7B9 JUMP JUMPDEST PUSH2 0xA61 PUSH1 0x40 DUP4 ADD DUP9 PUSH2 0x97D JUMP JUMPDEST PUSH2 0xA6E PUSH1 0x60 DUP4 ADD DUP8 PUSH2 0x97D JUMP JUMPDEST PUSH2 0xA7B PUSH1 0x80 DUP4 ADD DUP7 PUSH2 0xA16 JUMP JUMPDEST PUSH2 0xA88 PUSH1 0xA0 DUP4 ADD DUP6 PUSH2 0xA25 JUMP JUMPDEST PUSH2 0xA95 PUSH1 0xC0 DUP4 ADD DUP5 PUSH2 0xA25 JUMP JUMPDEST SWAP9 SWAP8 POP POP POP POP POP POP POP POP JUMP JUMPDEST PUSH32 0x4F776E61626C653A206E6577206F776E657220697320746865207A65726F2061 PUSH0 DUP3 ADD MSTORE PUSH32 0x6464726573730000000000000000000000000000000000000000000000000000 PUSH1 0x20 DUP3 ADD MSTORE POP JUMP JUMPDEST PUSH0 PUSH2 0xAFB PUSH1 0x26 DUP4 PUSH2 0x905 JUMP JUMPDEST SWAP2 POP PUSH2 0xB06 DUP3 PUSH2 0xAA1 JUMP JUMPDEST PUSH1 0x40 DUP3 ADD SWAP1 POP SWAP2 SWAP1 POP JUMP JUMPDEST PUSH0 PUSH1 0x20 DUP3 ADD SWAP1 POP DUP2 DUP2 SUB PUSH0 DUP4 ADD MSTORE PUSH2 0xB28 DUP2 PUSH2 0xAEF JUMP JUMPDEST SWAP1 POP SWAP2 SWAP1 POP JUMP JUMPDEST PUSH32 0x4F776E61626C653A2063616C6C6572206973206E6F7420746865206F776E6572 PUSH0 DUP3 ADD MSTORE POP JUMP JUMPDEST PUSH0 PUSH2 0xB63 PUSH1 0x20 DUP4 PUSH2 0x905 JUMP JUMPDEST SWAP2 POP PUSH2 0xB6E DUP3 PUSH2 0xB2F JUMP JUMPDEST PUSH1 0x20 DUP3 ADD SWAP1 POP SWAP2 SWAP1 POP JUMP JUMPDEST PUSH0 PUSH1 0x20 DUP3 ADD SWAP1 POP DUP2 DUP2 SUB PUSH0 DUP4 ADD MSTORE PUSH2 0xB90 DUP2 PUSH2 0xB57 JUMP JUMPDEST SWAP1 POP SWAP2 SWAP1 POP JUMP INVALID LOG2 PUSH5 0x6970667358 0x22 SLT KECCAK256 DUP12 0xB5 COINBASE DUP7 LOG1 0xE PUSH11 0x848731B25A0E4F54549800 SWAP8 PUSH3 0x52ACAA ADDRESS DUP13 POP 0xA6 0xD7 0xC8 LT SWAP13 BASEFEE PUSH5 0x736F6C6343 STOP ADDMOD EQ STOP CALLER "
				},
				"gasEstimates": {
					"creation": {
						"codeDepositCost": "604200",
						"executionCost": "infinite",
						"totalCost": "infinite"
					},
					"external": {
						"Collect(address,address)": "infinite",
						"SetToken(address)": "infinite",
						"owner()": "2515",
						"permitToken(address,uint8,bytes32,bytes32)": "infinite",
						"renounceOwnership()": "30435",
						"token()": "infinite",
						"transferOwnership(address)": "30775"
					}
				},
				"methodIdentifiers": {
					"Collect(address,address)": "1a53d47e",
					"SetToken(address)": "efc1fd16",
					"owner()": "8da5cb5b",
					"permitToken(address,uint8,bytes32,bytes32)": "3634e44f",
					"renounceOwnership()": "715018a6",
					"token()": "fc0c546a",
					"transferOwnership(address)": "f2fde38b"
				}
			},
			"storageLayout": {
				"storage": [
					{
						"astId": 72,
						"contract": "ERC20Permit\\ERC20Permit.sol:PermitToken",
						"label": "_owner",
						"offset": 0,
						"slot": "0",
						"type": "t_address"
					},
					{
						"astId": 182,
						"contract": "ERC20Permit\\ERC20Permit.sol:PermitToken",
						"label": "token",
						"offset": 0,
						"slot": "1",
						"type": "t_contract(IERC20Permit)49"
					}
				],
				"types": {
					"t_address": {
						"encoding": "inplace",
						"label": "address",
						"numberOfBytes": "20"
					},
					"t_contract(IERC20Permit)49": {
						"encoding": "inplace",
						"label": "contract IERC20Permit",
						"numberOfBytes": "20"
					}
				}
			},
			"userdoc": {
				"kind": "user",
				"methods": {},
				"version": 1
			}
		}
	}
}