{
	"selector.sol": {
		"test": {
			"abi": [
				{
					"anonymous": false,
					"inputs": [
						{
							"indexed": false,
							"internalType": "bytes",
							"name": "data",
							"type": "bytes"
						}
					],
					"name": "Log",
					"type": "event"
				},
				{
					"anonymous": false,
					"inputs": [
						{
							"indexed": false,
							"internalType": "address",
							"name": "sender",
							"type": "address"
						},
						{
							"indexed": false,
							"internalType": "address",
							"name": "recipient",
							"type": "address"
						},
						{
							"indexed": false,
							"internalType": "uint256",
							"name": "amount",
							"type": "uint256"
						}
					],
					"name": "Transfer",
					"type": "event"
				},
				{
					"inputs": [
						{
							"internalType": "address",
							"name": "to",
							"type": "address"
						}
					],
					"name": "mint",
					"outputs": [],
					"stateMutability": "nonpayable",
					"type": "function"
				},
				{
					"inputs": [
						{
							"internalType": "address",
							"name": "recipient",
							"type": "address"
						},
						{
							"internalType": "uint256",
							"name": "amount",
							"type": "uint256"
						}
					],
					"name": "transfer",
					"outputs": [
						{
							"internalType": "bool",
							"name": "",
							"type": "bool"
						}
					],
					"stateMutability": "nonpayable",
					"type": "function"
				}
			],
			"devdoc": {
				"kind": "dev",
				"methods": {},
				"version": 1
			},
			"evm": {
				"assembly": "    /* \"selector.sol\":75:586  contract test{\r... */\n  mstore(0x40, 0x80)\n  callvalue\n  dup1\n  iszero\n  tag_1\n  jumpi\n  0x00\n  dup1\n  revert\ntag_1:\n  pop\n  dataSize(sub_0)\n  dup1\n  dataOffset(sub_0)\n  0x00\n  codecopy\n  0x00\n  return\nstop\n\nsub_0: assembly {\n        /* \"selector.sol\":75:586  contract test{\r... */\n      mstore(0x40, 0x80)\n      callvalue\n      dup1\n      iszero\n      tag_1\n      jumpi\n      0x00\n      dup1\n      revert\n    tag_1:\n      pop\n      jumpi(tag_2, lt(calldatasize, 0x04))\n      shr(0xe0, calldataload(0x00))\n      dup1\n      0x6a627842\n      eq\n      tag_3\n      jumpi\n      dup1\n      0xa9059cbb\n      eq\n      tag_4\n      jumpi\n    tag_2:\n      0x00\n      dup1\n      revert\n        /* \"selector.sol\":262:333  function mint(address to) external{\r... */\n    tag_3:\n      tag_5\n      0x04\n      dup1\n      calldatasize\n      sub\n      dup2\n      add\n      swap1\n      tag_6\n      swap2\n      swap1\n      tag_7\n      jump\t// in\n    tag_6:\n      tag_8\n      jump\t// in\n    tag_5:\n      stop\n        /* \"selector.sol\":341:583  function transfer(address recipient, uint amount) external returns (bool) {\r... */\n    tag_4:\n      tag_9\n      0x04\n      dup1\n      calldatasize\n      sub\n      dup2\n      add\n      swap1\n      tag_10\n      swap2\n      swap1\n      tag_11\n      jump\t// in\n    tag_10:\n      tag_12\n      jump\t// in\n    tag_9:\n      mload(0x40)\n      tag_13\n      swap2\n      swap1\n      tag_14\n      jump\t// in\n    tag_13:\n      mload(0x40)\n      dup1\n      swap2\n      sub\n      swap1\n      return\n        /* \"selector.sol\":262:333  function mint(address to) external{\r... */\n    tag_8:\n        /* \"selector.sol\":312:325  Log(msg.data) */\n      0xafabcf2dd47e06a477a89e49c03f8ebe8e0a7e94f775b25bbb24227c9d0110b2\n        /* \"selector.sol\":316:324  msg.data */\n      0x00\n      calldatasize\n        /* \"selector.sol\":312:325  Log(msg.data) */\n      mload(0x40)\n      tag_16\n      swap3\n      swap2\n      swap1\n      tag_17\n      jump\t// in\n    tag_16:\n      mload(0x40)\n      dup1\n      swap2\n      sub\n      swap1\n      log1\n        /* \"selector.sol\":262:333  function mint(address to) external{\r... */\n      pop\n      jump\t// out\n        /* \"selector.sol\":341:583  function transfer(address recipient, uint amount) external returns (bool) {\r... */\n    tag_12:\n        /* \"selector.sol\":409:413  bool */\n      0x00\n        /* \"selector.sol\":451:457  amount */\n      dup2\n        /* \"selector.sol\":426:435  balanceOf */\n      0x00\n        /* \"selector.sol\":426:447  balanceOf[msg.sender] */\n      dup1\n        /* \"selector.sol\":436:446  msg.sender */\n      caller\n        /* \"selector.sol\":426:447  balanceOf[msg.sender] */\n      0xffffffffffffffffffffffffffffffffffffffff\n      and\n      0xffffffffffffffffffffffffffffffffffffffff\n      and\n      dup2\n      mstore\n      0x20\n      add\n      swap1\n      dup2\n      mstore\n      0x20\n      add\n      0x00\n      keccak256\n      0x00\n        /* \"selector.sol\":426:457  balanceOf[msg.sender] -= amount */\n      dup3\n      dup3\n      sload\n      tag_19\n      swap2\n      swap1\n      tag_20\n      jump\t// in\n    tag_19:\n      swap3\n      pop\n      pop\n      dup2\n      swap1\n      sstore\n      pop\n        /* \"selector.sol\":492:498  amount */\n      dup2\n        /* \"selector.sol\":468:477  balanceOf */\n      0x00\n        /* \"selector.sol\":468:488  balanceOf[recipient] */\n      dup1\n        /* \"selector.sol\":478:487  recipient */\n      dup6\n        /* \"selector.sol\":468:488  balanceOf[recipient] */\n      0xffffffffffffffffffffffffffffffffffffffff\n      and\n      0xffffffffffffffffffffffffffffffffffffffff\n      and\n      dup2\n      mstore\n      0x20\n      add\n      swap1\n      dup2\n      mstore\n      0x20\n      add\n      0x00\n      keccak256\n      0x00\n        /* \"selector.sol\":468:498  balanceOf[recipient] += amount */\n      dup3\n      dup3\n      sload\n      tag_21\n      swap2\n      swap1\n      tag_22\n      jump\t// in\n    tag_21:\n      swap3\n      pop\n      pop\n      dup2\n      swap1\n      sstore\n      pop\n        /* \"selector.sol\":514:553  Transfer(msg.sender, recipient, amount) */\n      0xddf252ad1be2c89b69c2b068fc378daa952ba7f163c4a11628f55a4df523b3ef\n        /* \"selector.sol\":523:533  msg.sender */\n      caller\n        /* \"selector.sol\":535:544  recipient */\n      dup5\n        /* \"selector.sol\":546:552  amount */\n      dup5\n        /* \"selector.sol\":514:553  Transfer(msg.sender, recipient, amount) */\n      mload(0x40)\n      tag_23\n      swap4\n      swap3\n      swap2\n      swap1\n      tag_24\n      jump\t// in\n    tag_23:\n      mload(0x40)\n      dup1\n      swap2\n      sub\n      swap1\n      log1\n        /* \"selector.sol\":571:575  true */\n      0x01\n        /* \"selector.sol\":564:575  return true */\n      swap1\n      pop\n        /* \"selector.sol\":341:583  function transfer(address recipient, uint amount) external returns (bool) {\r... */\n      swap3\n      swap2\n      pop\n      pop\n      jump\t// out\n        /* \"#utility.yul\":7:146   */\n    tag_26:\n        /* \"#utility.yul\":53:58   */\n      0x00\n        /* \"#utility.yul\":91:97   */\n      dup2\n        /* \"#utility.yul\":78:98   */\n      calldataload\n        /* \"#utility.yul\":69:98   */\n      swap1\n      pop\n        /* \"#utility.yul\":107:140   */\n      tag_28\n        /* \"#utility.yul\":134:139   */\n      dup2\n        /* \"#utility.yul\":107:140   */\n      tag_29\n      jump\t// in\n    tag_28:\n        /* \"#utility.yul\":7:146   */\n      swap3\n      swap2\n      pop\n      pop\n      jump\t// out\n        /* \"#utility.yul\":152:291   */\n    tag_30:\n        /* \"#utility.yul\":198:203   */\n      0x00\n        /* \"#utility.yul\":236:242   */\n      dup2\n        /* \"#utility.yul\":223:243   */\n      calldataload\n        /* \"#utility.yul\":214:243   */\n      swap1\n      pop\n        /* \"#utility.yul\":252:285   */\n      tag_32\n        /* \"#utility.yul\":279:284   */\n      dup2\n        /* \"#utility.yul\":252:285   */\n      tag_33\n      jump\t// in\n    tag_32:\n        /* \"#utility.yul\":152:291   */\n      swap3\n      swap2\n      pop\n      pop\n      jump\t// out\n        /* \"#utility.yul\":297:626   */\n    tag_7:\n        /* \"#utility.yul\":356:362   */\n      0x00\n        /* \"#utility.yul\":405:407   */\n      0x20\n        /* \"#utility.yul\":393:402   */\n      dup3\n        /* \"#utility.yul\":384:391   */\n      dup5\n        /* \"#utility.yul\":380:403   */\n      sub\n        /* \"#utility.yul\":376:408   */\n      slt\n        /* \"#utility.yul\":373:492   */\n      iszero\n      tag_35\n      jumpi\n        /* \"#utility.yul\":411:490   */\n      tag_36\n      tag_37\n      jump\t// in\n    tag_36:\n        /* \"#utility.yul\":373:492   */\n    tag_35:\n        /* \"#utility.yul\":531:532   */\n      0x00\n        /* \"#utility.yul\":556:609   */\n      tag_38\n        /* \"#utility.yul\":601:608   */\n      dup5\n        /* \"#utility.yul\":592:598   */\n      dup3\n        /* \"#utility.yul\":581:590   */\n      dup6\n        /* \"#utility.yul\":577:599   */\n      add\n        /* \"#utility.yul\":556:609   */\n      tag_26\n      jump\t// in\n    tag_38:\n        /* \"#utility.yul\":546:609   */\n      swap2\n      pop\n        /* \"#utility.yul\":502:619   */\n      pop\n        /* \"#utility.yul\":297:626   */\n      swap3\n      swap2\n      pop\n      pop\n      jump\t// out\n        /* \"#utility.yul\":632:1106   */\n    tag_11:\n        /* \"#utility.yul\":700:706   */\n      0x00\n        /* \"#utility.yul\":708:714   */\n      dup1\n        /* \"#utility.yul\":757:759   */\n      0x40\n        /* \"#utility.yul\":745:754   */\n      dup4\n        /* \"#utility.yul\":736:743   */\n      dup6\n        /* \"#utility.yul\":732:755   */\n      sub\n        /* \"#utility.yul\":728:760   */\n      slt\n        /* \"#utility.yul\":725:844   */\n      iszero\n      tag_40\n      jumpi\n        /* \"#utility.yul\":763:842   */\n      tag_41\n      tag_37\n      jump\t// in\n    tag_41:\n        /* \"#utility.yul\":725:844   */\n    tag_40:\n        /* \"#utility.yul\":883:884   */\n      0x00\n        /* \"#utility.yul\":908:961   */\n      tag_42\n        /* \"#utility.yul\":953:960   */\n      dup6\n        /* \"#utility.yul\":944:950   */\n      dup3\n        /* \"#utility.yul\":933:942   */\n      dup7\n        /* \"#utility.yul\":929:951   */\n      add\n        /* \"#utility.yul\":908:961   */\n      tag_26\n      jump\t// in\n    tag_42:\n        /* \"#utility.yul\":898:961   */\n      swap3\n      pop\n        /* \"#utility.yul\":854:971   */\n      pop\n        /* \"#utility.yul\":1010:1012   */\n      0x20\n        /* \"#utility.yul\":1036:1089   */\n      tag_43\n        /* \"#utility.yul\":1081:1088   */\n      dup6\n        /* \"#utility.yul\":1072:1078   */\n      dup3\n        /* \"#utility.yul\":1061:1070   */\n      dup7\n        /* \"#utility.yul\":1057:1079   */\n      add\n        /* \"#utility.yul\":1036:1089   */\n      tag_30\n      jump\t// in\n    tag_43:\n        /* \"#utility.yul\":1026:1089   */\n      swap2\n      pop\n        /* \"#utility.yul\":981:1099   */\n      pop\n        /* \"#utility.yul\":632:1106   */\n      swap3\n      pop\n      swap3\n      swap1\n      pop\n      jump\t// out\n        /* \"#utility.yul\":1112:1230   */\n    tag_44:\n        /* \"#utility.yul\":1199:1223   */\n      tag_46\n        /* \"#utility.yul\":1217:1222   */\n      dup2\n        /* \"#utility.yul\":1199:1223   */\n      tag_47\n      jump\t// in\n    tag_46:\n        /* \"#utility.yul\":1194:1197   */\n      dup3\n        /* \"#utility.yul\":1187:1224   */\n      mstore\n        /* \"#utility.yul\":1112:1230   */\n      pop\n      pop\n      jump\t// out\n        /* \"#utility.yul\":1236:1345   */\n    tag_48:\n        /* \"#utility.yul\":1317:1338   */\n      tag_50\n        /* \"#utility.yul\":1332:1337   */\n      dup2\n        /* \"#utility.yul\":1317:1338   */\n      tag_51\n      jump\t// in\n    tag_50:\n        /* \"#utility.yul\":1312:1315   */\n      dup3\n        /* \"#utility.yul\":1305:1339   */\n      mstore\n        /* \"#utility.yul\":1236:1345   */\n      pop\n      pop\n      jump\t// out\n        /* \"#utility.yul\":1373:1674   */\n    tag_52:\n        /* \"#utility.yul\":1469:1472   */\n      0x00\n        /* \"#utility.yul\":1490:1560   */\n      tag_54\n        /* \"#utility.yul\":1553:1559   */\n      dup4\n        /* \"#utility.yul\":1548:1551   */\n      dup6\n        /* \"#utility.yul\":1490:1560   */\n      tag_55\n      jump\t// in\n    tag_54:\n        /* \"#utility.yul\":1483:1560   */\n      swap4\n      pop\n        /* \"#utility.yul\":1570:1613   */\n      tag_56\n        /* \"#utility.yul\":1606:1612   */\n      dup4\n        /* \"#utility.yul\":1601:1604   */\n      dup6\n        /* \"#utility.yul\":1594:1599   */\n      dup5\n        /* \"#utility.yul\":1570:1613   */\n      tag_57\n      jump\t// in\n    tag_56:\n        /* \"#utility.yul\":1638:1667   */\n      tag_58\n        /* \"#utility.yul\":1660:1666   */\n      dup4\n        /* \"#utility.yul\":1638:1667   */\n      tag_59\n      jump\t// in\n    tag_58:\n        /* \"#utility.yul\":1633:1636   */\n      dup5\n        /* \"#utility.yul\":1629:1668   */\n      add\n        /* \"#utility.yul\":1622:1668   */\n      swap1\n      pop\n        /* \"#utility.yul\":1373:1674   */\n      swap4\n      swap3\n      pop\n      pop\n      pop\n      jump\t// out\n        /* \"#utility.yul\":1680:1798   */\n    tag_60:\n        /* \"#utility.yul\":1767:1791   */\n      tag_62\n        /* \"#utility.yul\":1785:1790   */\n      dup2\n        /* \"#utility.yul\":1767:1791   */\n      tag_63\n      jump\t// in\n    tag_62:\n        /* \"#utility.yul\":1762:1765   */\n      dup3\n        /* \"#utility.yul\":1755:1792   */\n      mstore\n        /* \"#utility.yul\":1680:1798   */\n      pop\n      pop\n      jump\t// out\n        /* \"#utility.yul\":1804:2246   */\n    tag_24:\n        /* \"#utility.yul\":1953:1957   */\n      0x00\n        /* \"#utility.yul\":1991:1993   */\n      0x60\n        /* \"#utility.yul\":1980:1989   */\n      dup3\n        /* \"#utility.yul\":1976:1994   */\n      add\n        /* \"#utility.yul\":1968:1994   */\n      swap1\n      pop\n        /* \"#utility.yul\":2004:2075   */\n      tag_65\n        /* \"#utility.yul\":2072:2073   */\n      0x00\n        /* \"#utility.yul\":2061:2070   */\n      dup4\n        /* \"#utility.yul\":2057:2074   */\n      add\n        /* \"#utility.yul\":2048:2054   */\n      dup7\n        /* \"#utility.yul\":2004:2075   */\n      tag_44\n      jump\t// in\n    tag_65:\n        /* \"#utility.yul\":2085:2157   */\n      tag_66\n        /* \"#utility.yul\":2153:2155   */\n      0x20\n        /* \"#utility.yul\":2142:2151   */\n      dup4\n        /* \"#utility.yul\":2138:2156   */\n      add\n        /* \"#utility.yul\":2129:2135   */\n      dup6\n        /* \"#utility.yul\":2085:2157   */\n      tag_44\n      jump\t// in\n    tag_66:\n        /* \"#utility.yul\":2167:2239   */\n      tag_67\n        /* \"#utility.yul\":2235:2237   */\n      0x40\n        /* \"#utility.yul\":2224:2233   */\n      dup4\n        /* \"#utility.yul\":2220:2238   */\n      add\n        /* \"#utility.yul\":2211:2217   */\n      dup5\n        /* \"#utility.yul\":2167:2239   */\n      tag_60\n      jump\t// in\n    tag_67:\n        /* \"#utility.yul\":1804:2246   */\n      swap5\n      swap4\n      pop\n      pop\n      pop\n      pop\n      jump\t// out\n        /* \"#utility.yul\":2252:2462   */\n    tag_14:\n        /* \"#utility.yul\":2339:2343   */\n      0x00\n        /* \"#utility.yul\":2377:2379   */\n      0x20\n        /* \"#utility.yul\":2366:2375   */\n      dup3\n        /* \"#utility.yul\":2362:2380   */\n      add\n        /* \"#utility.yul\":2354:2380   */\n      swap1\n      pop\n        /* \"#utility.yul\":2390:2455   */\n      tag_69\n        /* \"#utility.yul\":2452:2453   */\n      0x00\n        /* \"#utility.yul\":2441:2450   */\n      dup4\n        /* \"#utility.yul\":2437:2454   */\n      add\n        /* \"#utility.yul\":2428:2434   */\n      dup5\n        /* \"#utility.yul\":2390:2455   */\n      tag_48\n      jump\t// in\n    tag_69:\n        /* \"#utility.yul\":2252:2462   */\n      swap3\n      swap2\n      pop\n      pop\n      jump\t// out\n        /* \"#utility.yul\":2468:2797   */\n    tag_17:\n        /* \"#utility.yul\":2589:2593   */\n      0x00\n        /* \"#utility.yul\":2627:2629   */\n      0x20\n        /* \"#utility.yul\":2616:2625   */\n      dup3\n        /* \"#utility.yul\":2612:2630   */\n      add\n        /* \"#utility.yul\":2604:2630   */\n      swap1\n      pop\n        /* \"#utility.yul\":2676:2685   */\n      dup2\n        /* \"#utility.yul\":2670:2674   */\n      dup2\n        /* \"#utility.yul\":2666:2686   */\n      sub\n        /* \"#utility.yul\":2662:2663   */\n      0x00\n        /* \"#utility.yul\":2651:2660   */\n      dup4\n        /* \"#utility.yul\":2647:2664   */\n      add\n        /* \"#utility.yul\":2640:2687   */\n      mstore\n        /* \"#utility.yul\":2704:2790   */\n      tag_71\n        /* \"#utility.yul\":2785:2789   */\n      dup2\n        /* \"#utility.yul\":2776:2782   */\n      dup5\n        /* \"#utility.yul\":2768:2774   */\n      dup7\n        /* \"#utility.yul\":2704:2790   */\n      tag_52\n      jump\t// in\n    tag_71:\n        /* \"#utility.yul\":2696:2790   */\n      swap1\n      pop\n        /* \"#utility.yul\":2468:2797   */\n      swap4\n      swap3\n      pop\n      pop\n      pop\n      jump\t// out\n        /* \"#utility.yul\":2884:3052   */\n    tag_55:\n        /* \"#utility.yul\":2967:2978   */\n      0x00\n        /* \"#utility.yul\":3001:3007   */\n      dup3\n        /* \"#utility.yul\":2996:2999   */\n      dup3\n        /* \"#utility.yul\":2989:3008   */\n      mstore\n        /* \"#utility.yul\":3041:3045   */\n      0x20\n        /* \"#utility.yul\":3036:3039   */\n      dup3\n        /* \"#utility.yul\":3032:3046   */\n      add\n        /* \"#utility.yul\":3017:3046   */\n      swap1\n      pop\n        /* \"#utility.yul\":2884:3052   */\n      swap3\n      swap2\n      pop\n      pop\n      jump\t// out\n        /* \"#utility.yul\":3058:3363   */\n    tag_22:\n        /* \"#utility.yul\":3098:3101   */\n      0x00\n        /* \"#utility.yul\":3117:3137   */\n      tag_76\n        /* \"#utility.yul\":3135:3136   */\n      dup3\n        /* \"#utility.yul\":3117:3137   */\n      tag_63\n      jump\t// in\n    tag_76:\n        /* \"#utility.yul\":3112:3137   */\n      swap2\n      pop\n        /* \"#utility.yul\":3151:3171   */\n      tag_77\n        /* \"#utility.yul\":3169:3170   */\n      dup4\n        /* \"#utility.yul\":3151:3171   */\n      tag_63\n      jump\t// in\n    tag_77:\n        /* \"#utility.yul\":3146:3171   */\n      swap3\n      pop\n        /* \"#utility.yul\":3305:3306   */\n      dup3\n        /* \"#utility.yul\":3237:3303   */\n      0xffffffffffffffffffffffffffffffffffffffffffffffffffffffffffffffff\n        /* \"#utility.yul\":3233:3307   */\n      sub\n        /* \"#utility.yul\":3230:3231   */\n      dup3\n        /* \"#utility.yul\":3227:3308   */\n      gt\n        /* \"#utility.yul\":3224:3331   */\n      iszero\n      tag_78\n      jumpi\n        /* \"#utility.yul\":3311:3329   */\n      tag_79\n      tag_80\n      jump\t// in\n    tag_79:\n        /* \"#utility.yul\":3224:3331   */\n    tag_78:\n        /* \"#utility.yul\":3355:3356   */\n      dup3\n        /* \"#utility.yul\":3352:3353   */\n      dup3\n        /* \"#utility.yul\":3348:3357   */\n      add\n        /* \"#utility.yul\":3341:3357   */\n      swap1\n      pop\n        /* \"#utility.yul\":3058:3363   */\n      swap3\n      swap2\n      pop\n      pop\n      jump\t// out\n        /* \"#utility.yul\":3369:3560   */\n    tag_20:\n        /* \"#utility.yul\":3409:3413   */\n      0x00\n        /* \"#utility.yul\":3429:3449   */\n      tag_82\n        /* \"#utility.yul\":3447:3448   */\n      dup3\n        /* \"#utility.yul\":3429:3449   */\n      tag_63\n      jump\t// in\n    tag_82:\n        /* \"#utility.yul\":3424:3449   */\n      swap2\n      pop\n        /* \"#utility.yul\":3463:3483   */\n      tag_83\n        /* \"#utility.yul\":3481:3482   */\n      dup4\n        /* \"#utility.yul\":3463:3483   */\n      tag_63\n      jump\t// in\n    tag_83:\n        /* \"#utility.yul\":3458:3483   */\n      swap3\n      pop\n        /* \"#utility.yul\":3502:3503   */\n      dup3\n        /* \"#utility.yul\":3499:3500   */\n      dup3\n        /* \"#utility.yul\":3496:3504   */\n      lt\n        /* \"#utility.yul\":3493:3527   */\n      iszero\n      tag_84\n      jumpi\n        /* \"#utility.yul\":3507:3525   */\n      tag_85\n      tag_80\n      jump\t// in\n    tag_85:\n        /* \"#utility.yul\":3493:3527   */\n    tag_84:\n        /* \"#utility.yul\":3552:3553   */\n      dup3\n        /* \"#utility.yul\":3549:3550   */\n      dup3\n        /* \"#utility.yul\":3545:3554   */\n      sub\n        /* \"#utility.yul\":3537:3554   */\n      swap1\n      pop\n        /* \"#utility.yul\":3369:3560   */\n      swap3\n      swap2\n      pop\n      pop\n      jump\t// out\n        /* \"#utility.yul\":3566:3662   */\n    tag_47:\n        /* \"#utility.yul\":3603:3610   */\n      0x00\n        /* \"#utility.yul\":3632:3656   */\n      tag_87\n        /* \"#utility.yul\":3650:3655   */\n      dup3\n        /* \"#utility.yul\":3632:3656   */\n      tag_88\n      jump\t// in\n    tag_87:\n        /* \"#utility.yul\":3621:3656   */\n      swap1\n      pop\n        /* \"#utility.yul\":3566:3662   */\n      swap2\n      swap1\n      pop\n      jump\t// out\n        /* \"#utility.yul\":3668:3758   */\n    tag_51:\n        /* \"#utility.yul\":3702:3709   */\n      0x00\n        /* \"#utility.yul\":3745:3750   */\n      dup2\n        /* \"#utility.yul\":3738:3751   */\n      iszero\n        /* \"#utility.yul\":3731:3752   */\n      iszero\n        /* \"#utility.yul\":3720:3752   */\n      swap1\n      pop\n        /* \"#utility.yul\":3668:3758   */\n      swap2\n      swap1\n      pop\n      jump\t// out\n        /* \"#utility.yul\":3764:3890   */\n    tag_88:\n        /* \"#utility.yul\":3801:3808   */\n      0x00\n        /* \"#utility.yul\":3841:3883   */\n      0xffffffffffffffffffffffffffffffffffffffff\n        /* \"#utility.yul\":3834:3839   */\n      dup3\n        /* \"#utility.yul\":3830:3884   */\n      and\n        /* \"#utility.yul\":3819:3884   */\n      swap1\n      pop\n        /* \"#utility.yul\":3764:3890   */\n      swap2\n      swap1\n      pop\n      jump\t// out\n        /* \"#utility.yul\":3896:3973   */\n    tag_63:\n        /* \"#utility.yul\":3933:3940   */\n      0x00\n        /* \"#utility.yul\":3962:3967   */\n      dup2\n        /* \"#utility.yul\":3951:3967   */\n      swap1\n      pop\n        /* \"#utility.yul\":3896:3973   */\n      swap2\n      swap1\n      pop\n      jump\t// out\n        /* \"#utility.yul\":3979:4133   */\n    tag_57:\n        /* \"#utility.yul\":4063:4069   */\n      dup3\n        /* \"#utility.yul\":4058:4061   */\n      dup2\n        /* \"#utility.yul\":4053:4056   */\n      dup4\n        /* \"#utility.yul\":4040:4070   */\n      calldatacopy\n        /* \"#utility.yul\":4125:4126   */\n      0x00\n        /* \"#utility.yul\":4116:4122   */\n      dup4\n        /* \"#utility.yul\":4111:4114   */\n      dup4\n        /* \"#utility.yul\":4107:4123   */\n      add\n        /* \"#utility.yul\":4100:4127   */\n      mstore\n        /* \"#utility.yul\":3979:4133   */\n      pop\n      pop\n      pop\n      jump\t// out\n        /* \"#utility.yul\":4139:4319   */\n    tag_80:\n        /* \"#utility.yul\":4187:4264   */\n      0x4e487b7100000000000000000000000000000000000000000000000000000000\n        /* \"#utility.yul\":4184:4185   */\n      0x00\n        /* \"#utility.yul\":4177:4265   */\n      mstore\n        /* \"#utility.yul\":4284:4288   */\n      0x11\n        /* \"#utility.yul\":4281:4282   */\n      0x04\n        /* \"#utility.yul\":4274:4289   */\n      mstore\n        /* \"#utility.yul\":4308:4312   */\n      0x24\n        /* \"#utility.yul\":4305:4306   */\n      0x00\n        /* \"#utility.yul\":4298:4313   */\n      revert\n        /* \"#utility.yul\":4448:4565   */\n    tag_37:\n        /* \"#utility.yul\":4557:4558   */\n      0x00\n        /* \"#utility.yul\":4554:4555   */\n      dup1\n        /* \"#utility.yul\":4547:4559   */\n      revert\n        /* \"#utility.yul\":4571:4673   */\n    tag_59:\n        /* \"#utility.yul\":4612:4618   */\n      0x00\n        /* \"#utility.yul\":4663:4665   */\n      0x1f\n        /* \"#utility.yul\":4659:4666   */\n      not\n        /* \"#utility.yul\":4654:4656   */\n      0x1f\n        /* \"#utility.yul\":4647:4652   */\n      dup4\n        /* \"#utility.yul\":4643:4657   */\n      add\n        /* \"#utility.yul\":4639:4667   */\n      and\n        /* \"#utility.yul\":4629:4667   */\n      swap1\n      pop\n        /* \"#utility.yul\":4571:4673   */\n      swap2\n      swap1\n      pop\n      jump\t// out\n        /* \"#utility.yul\":4679:4801   */\n    tag_29:\n        /* \"#utility.yul\":4752:4776   */\n      tag_99\n        /* \"#utility.yul\":4770:4775   */\n      dup2\n        /* \"#utility.yul\":4752:4776   */\n      tag_47\n      jump\t// in\n    tag_99:\n        /* \"#utility.yul\":4745:4750   */\n      dup2\n        /* \"#utility.yul\":4742:4777   */\n      eq\n        /* \"#utility.yul\":4732:4795   */\n      tag_100\n      jumpi\n        /* \"#utility.yul\":4791:4792   */\n      0x00\n        /* \"#utility.yul\":4788:4789   */\n      dup1\n        /* \"#utility.yul\":4781:4793   */\n      revert\n        /* \"#utility.yul\":4732:4795   */\n    tag_100:\n        /* \"#utility.yul\":4679:4801   */\n      pop\n      jump\t// out\n        /* \"#utility.yul\":4807:4929   */\n    tag_33:\n        /* \"#utility.yul\":4880:4904   */\n      tag_102\n        /* \"#utility.yul\":4898:4903   */\n      dup2\n        /* \"#utility.yul\":4880:4904   */\n      tag_63\n      jump\t// in\n    tag_102:\n        /* \"#utility.yul\":4873:4878   */\n      dup2\n        /* \"#utility.yul\":4870:4905   */\n      eq\n        /* \"#utility.yul\":4860:4923   */\n      tag_103\n      jumpi\n        /* \"#utility.yul\":4919:4920   */\n      0x00\n        /* \"#utility.yul\":4916:4917   */\n      dup1\n        /* \"#utility.yul\":4909:4921   */\n      revert\n        /* \"#utility.yul\":4860:4923   */\n    tag_103:\n        /* \"#utility.yul\":4807:4929   */\n      pop\n      jump\t// out\n\n    auxdata: 0xa2646970667358221220ce6b0e5ece864c9775174196f412fb4cd419424850ab94284881fed48d1f8cfc64736f6c63430008070033\n}\n",
				"bytecode": {
					"linkReferences": {},
					"object": "608060405234801561001057600080fd5b506104b7806100206000396000f3fe608060405234801561001057600080fd5b50600436106100365760003560e01c80636a6278421461003b578063a9059cbb14610057575b600080fd5b610055600480360381019061005091906101df565b610087565b005b610071600480360381019061006c919061020c565b6100c4565b60405161007e91906102dd565b60405180910390f35b7fafabcf2dd47e06a477a89e49c03f8ebe8e0a7e94f775b25bbb24227c9d0110b26000366040516100b99291906102f8565b60405180910390a150565b6000816000803373ffffffffffffffffffffffffffffffffffffffff1673ffffffffffffffffffffffffffffffffffffffff16815260200190815260200160002060008282546101149190610383565b92505081905550816000808573ffffffffffffffffffffffffffffffffffffffff1673ffffffffffffffffffffffffffffffffffffffff1681526020019081526020016000206000828254610169919061032d565b925050819055507fddf252ad1be2c89b69c2b068fc378daa952ba7f163c4a11628f55a4df523b3ef3384846040516101a3939291906102a6565b60405180910390a16001905092915050565b6000813590506101c481610453565b92915050565b6000813590506101d98161046a565b92915050565b6000602082840312156101f5576101f461043d565b5b6000610203848285016101b5565b91505092915050565b600080604083850312156102235761022261043d565b5b6000610231858286016101b5565b9250506020610242858286016101ca565b9150509250929050565b610255816103b7565b82525050565b610264816103c9565b82525050565b6000610276838561031c565b93506102838385846103ff565b61028c83610442565b840190509392505050565b6102a0816103f5565b82525050565b60006060820190506102bb600083018661024c565b6102c8602083018561024c565b6102d56040830184610297565b949350505050565b60006020820190506102f2600083018461025b565b92915050565b6000602082019050818103600083015261031381848661026a565b90509392505050565b600082825260208201905092915050565b6000610338826103f5565b9150610343836103f5565b9250827fffffffffffffffffffffffffffffffffffffffffffffffffffffffffffffffff038211156103785761037761040e565b5b828201905092915050565b600061038e826103f5565b9150610399836103f5565b9250828210156103ac576103ab61040e565b5b828203905092915050565b60006103c2826103d5565b9050919050565b60008115159050919050565b600073ffffffffffffffffffffffffffffffffffffffff82169050919050565b6000819050919050565b82818337600083830152505050565b7f4e487b7100000000000000000000000000000000000000000000000000000000600052601160045260246000fd5b600080fd5b6000601f19601f8301169050919050565b61045c816103b7565b811461046757600080fd5b50565b610473816103f5565b811461047e57600080fd5b5056fea2646970667358221220ce6b0e5ece864c9775174196f412fb4cd419424850ab94284881fed48d1f8cfc64736f6c63430008070033",
					"opcodes": "PUSH1 0x80 PUSH1 0x40 MSTORE CALLVALUE DUP1 ISZERO PUSH2 0x10 JUMPI PUSH1 0x0 DUP1 REVERT JUMPDEST POP PUSH2 0x4B7 DUP1 PUSH2 0x20 PUSH1 0x0 CODECOPY PUSH1 0x0 RETURN INVALID PUSH1 0x80 PUSH1 0x40 MSTORE CALLVALUE DUP1 ISZERO PUSH2 0x10 JUMPI PUSH1 0x0 DUP1 REVERT JUMPDEST POP PUSH1 0x4 CALLDATASIZE LT PUSH2 0x36 JUMPI PUSH1 0x0 CALLDATALOAD PUSH1 0xE0 SHR DUP1 PUSH4 0x6A627842 EQ PUSH2 0x3B JUMPI DUP1 PUSH4 0xA9059CBB EQ PUSH2 0x57 JUMPI JUMPDEST PUSH1 0x0 DUP1 REVERT JUMPDEST PUSH2 0x55 PUSH1 0x4 DUP1 CALLDATASIZE SUB DUP2 ADD SWAP1 PUSH2 0x50 SWAP2 SWAP1 PUSH2 0x1DF JUMP JUMPDEST PUSH2 0x87 JUMP JUMPDEST STOP JUMPDEST PUSH2 0x71 PUSH1 0x4 DUP1 CALLDATASIZE SUB DUP2 ADD SWAP1 PUSH2 0x6C SWAP2 SWAP1 PUSH2 0x20C JUMP JUMPDEST PUSH2 0xC4 JUMP JUMPDEST PUSH1 0x40 MLOAD PUSH2 0x7E SWAP2 SWAP1 PUSH2 0x2DD JUMP JUMPDEST PUSH1 0x40 MLOAD DUP1 SWAP2 SUB SWAP1 RETURN JUMPDEST PUSH32 0xAFABCF2DD47E06A477A89E49C03F8EBE8E0A7E94F775B25BBB24227C9D0110B2 PUSH1 0x0 CALLDATASIZE PUSH1 0x40 MLOAD PUSH2 0xB9 SWAP3 SWAP2 SWAP1 PUSH2 0x2F8 JUMP JUMPDEST PUSH1 0x40 MLOAD DUP1 SWAP2 SUB SWAP1 LOG1 POP JUMP JUMPDEST PUSH1 0x0 DUP2 PUSH1 0x0 DUP1 CALLER PUSH20 0xFFFFFFFFFFFFFFFFFFFFFFFFFFFFFFFFFFFFFFFF AND PUSH20 0xFFFFFFFFFFFFFFFFFFFFFFFFFFFFFFFFFFFFFFFF AND DUP2 MSTORE PUSH1 0x20 ADD SWAP1 DUP2 MSTORE PUSH1 0x20 ADD PUSH1 0x0 KECCAK256 PUSH1 0x0 DUP3 DUP3 SLOAD PUSH2 0x114 SWAP2 SWAP1 PUSH2 0x383 JUMP JUMPDEST SWAP3 POP POP DUP2 SWAP1 SSTORE POP DUP2 PUSH1 0x0 DUP1 DUP6 PUSH20 0xFFFFFFFFFFFFFFFFFFFFFFFFFFFFFFFFFFFFFFFF AND PUSH20 0xFFFFFFFFFFFFFFFFFFFFFFFFFFFFFFFFFFFFFFFF AND DUP2 MSTORE PUSH1 0x20 ADD SWAP1 DUP2 MSTORE PUSH1 0x20 ADD PUSH1 0x0 KECCAK256 PUSH1 0x0 DUP3 DUP3 SLOAD PUSH2 0x169 SWAP2 SWAP1 PUSH2 0x32D JUMP JUMPDEST SWAP3 POP POP DUP2 SWAP1 SSTORE POP PUSH32 0xDDF252AD1BE2C89B69C2B068FC378DAA952BA7F163C4A11628F55A4DF523B3EF CALLER DUP5 DUP5 PUSH1 0x40 MLOAD PUSH2 0x1A3 SWAP4 SWAP3 SWAP2 SWAP1 PUSH2 0x2A6 JUMP JUMPDEST PUSH1 0x40 MLOAD DUP1 SWAP2 SUB SWAP1 LOG1 PUSH1 0x1 SWAP1 POP SWAP3 SWAP2 POP POP JUMP JUMPDEST PUSH1 0x0 DUP2 CALLDATALOAD SWAP1 POP PUSH2 0x1C4 DUP2 PUSH2 0x453 JUMP JUMPDEST SWAP3 SWAP2 POP POP JUMP JUMPDEST PUSH1 0x0 DUP2 CALLDATALOAD SWAP1 POP PUSH2 0x1D9 DUP2 PUSH2 0x46A JUMP JUMPDEST SWAP3 SWAP2 POP POP JUMP JUMPDEST PUSH1 0x0 PUSH1 0x20 DUP3 DUP5 SUB SLT ISZERO PUSH2 0x1F5 JUMPI PUSH2 0x1F4 PUSH2 0x43D JUMP JUMPDEST JUMPDEST PUSH1 0x0 PUSH2 0x203 DUP5 DUP3 DUP6 ADD PUSH2 0x1B5 JUMP JUMPDEST SWAP2 POP POP SWAP3 SWAP2 POP POP JUMP JUMPDEST PUSH1 0x0 DUP1 PUSH1 0x40 DUP4 DUP6 SUB SLT ISZERO PUSH2 0x223 JUMPI PUSH2 0x222 PUSH2 0x43D JUMP JUMPDEST JUMPDEST PUSH1 0x0 PUSH2 0x231 DUP6 DUP3 DUP7 ADD PUSH2 0x1B5 JUMP JUMPDEST SWAP3 POP POP PUSH1 0x20 PUSH2 0x242 DUP6 DUP3 DUP7 ADD PUSH2 0x1CA JUMP JUMPDEST SWAP2 POP POP SWAP3 POP SWAP3 SWAP1 POP JUMP JUMPDEST PUSH2 0x255 DUP2 PUSH2 0x3B7 JUMP JUMPDEST DUP3 MSTORE POP POP JUMP JUMPDEST PUSH2 0x264 DUP2 PUSH2 0x3C9 JUMP JUMPDEST DUP3 MSTORE POP POP JUMP JUMPDEST PUSH1 0x0 PUSH2 0x276 DUP4 DUP6 PUSH2 0x31C JUMP JUMPDEST SWAP4 POP PUSH2 0x283 DUP4 DUP6 DUP5 PUSH2 0x3FF JUMP JUMPDEST PUSH2 0x28C DUP4 PUSH2 0x442 JUMP JUMPDEST DUP5 ADD SWAP1 POP SWAP4 SWAP3 POP POP POP JUMP JUMPDEST PUSH2 0x2A0 DUP2 PUSH2 0x3F5 JUMP JUMPDEST DUP3 MSTORE POP POP JUMP JUMPDEST PUSH1 0x0 PUSH1 0x60 DUP3 ADD SWAP1 POP PUSH2 0x2BB PUSH1 0x0 DUP4 ADD DUP7 PUSH2 0x24C JUMP JUMPDEST PUSH2 0x2C8 PUSH1 0x20 DUP4 ADD DUP6 PUSH2 0x24C JUMP JUMPDEST PUSH2 0x2D5 PUSH1 0x40 DUP4 ADD DUP5 PUSH2 0x297 JUMP JUMPDEST SWAP5 SWAP4 POP POP POP POP JUMP JUMPDEST PUSH1 0x0 PUSH1 0x20 DUP3 ADD SWAP1 POP PUSH2 0x2F2 PUSH1 0x0 DUP4 ADD DUP5 PUSH2 0x25B JUMP JUMPDEST SWAP3 SWAP2 POP POP JUMP JUMPDEST PUSH1 0x0 PUSH1 0x20 DUP3 ADD SWAP1 POP DUP2 DUP2 SUB PUSH1 0x0 DUP4 ADD MSTORE PUSH2 0x313 DUP2 DUP5 DUP7 PUSH2 0x26A JUMP JUMPDEST SWAP1 POP SWAP4 SWAP3 POP POP POP JUMP JUMPDEST PUSH1 0x0 DUP3 DUP3 MSTORE PUSH1 0x20 DUP3 ADD SWAP1 POP SWAP3 SWAP2 POP POP JUMP JUMPDEST PUSH1 0x0 PUSH2 0x338 DUP3 PUSH2 0x3F5 JUMP JUMPDEST SWAP2 POP PUSH2 0x343 DUP4 PUSH2 0x3F5 JUMP JUMPDEST SWAP3 POP DUP3 PUSH32 0xFFFFFFFFFFFFFFFFFFFFFFFFFFFFFFFFFFFFFFFFFFFFFFFFFFFFFFFFFFFFFFFF SUB DUP3 GT ISZERO PUSH2 0x378 JUMPI PUSH2 0x377 PUSH2 0x40E JUMP JUMPDEST JUMPDEST DUP3 DUP3 ADD SWAP1 POP SWAP3 SWAP2 POP POP JUMP JUMPDEST PUSH1 0x0 PUSH2 0x38E DUP3 PUSH2 0x3F5 JUMP JUMPDEST SWAP2 POP PUSH2 0x399 DUP4 PUSH2 0x3F5 JUMP JUMPDEST SWAP3 POP DUP3 DUP3 LT ISZERO PUSH2 0x3AC JUMPI PUSH2 0x3AB PUSH2 0x40E JUMP JUMPDEST JUMPDEST DUP3 DUP3 SUB SWAP1 POP SWAP3 SWAP2 POP POP JUMP JUMPDEST PUSH1 0x0 PUSH2 0x3C2 DUP3 PUSH2 0x3D5 JUMP JUMPDEST SWAP1 POP SWAP2 SWAP1 POP JUMP JUMPDEST PUSH1 0x0 DUP2 ISZERO ISZERO SWAP1 POP SWAP2 SWAP1 POP JUMP JUMPDEST PUSH1 0x0 PUSH20 0xFFFFFFFFFFFFFFFFFFFFFFFFFFFFFFFFFFFFFFFF DUP3 AND SWAP1 POP SWAP2 SWAP1 POP JUMP JUMPDEST PUSH1 0x0 DUP2 SWAP1 POP SWAP2 SWAP1 POP JUMP JUMPDEST DUP3 DUP2 DUP4 CALLDATACOPY PUSH1 0x0 DUP4 DUP4 ADD MSTORE POP POP POP JUMP JUMPDEST PUSH32 0x4E487B7100000000000000000000000000000000000000000000000000000000 PUSH1 0x0 MSTORE PUSH1 0x11 PUSH1 0x4 MSTORE PUSH1 0x24 PUSH1 0x0 REVERT JUMPDEST PUSH1 0x0 DUP1 REVERT JUMPDEST PUSH1 0x0 PUSH1 0x1F NOT PUSH1 0x1F DUP4 ADD AND SWAP1 POP SWAP2 SWAP1 POP JUMP JUMPDEST PUSH2 0x45C DUP2 PUSH2 0x3B7 JUMP JUMPDEST DUP2 EQ PUSH2 0x467 JUMPI PUSH1 0x0 DUP1 REVERT JUMPDEST POP JUMP JUMPDEST PUSH2 0x473 DUP2 PUSH2 0x3F5 JUMP JUMPDEST DUP2 EQ PUSH2 0x47E JUMPI PUSH1 0x0 DUP1 REVERT JUMPDEST POP JUMP INVALID LOG2 PUSH5 0x6970667358 0x22 SLT KECCAK256 0xCE PUSH12 0xE5ECE864C9775174196F412 0xFB 0x4C 0xD4 NOT TIMESTAMP BASEFEE POP 0xAB SWAP5 0x28 BASEFEE DUP2 INVALID 0xD4 DUP14 0x1F DUP13 0xFC PUSH5 0x736F6C6343 STOP ADDMOD SMOD STOP CALLER "
				},
				"gasEstimates": {
					"creation": {
						"codeDepositCost": "241400",
						"executionCost": "281",
						"totalCost": "241681"
					},
					"external": {
						"mint(address)": "infinite",
						"transfer(address,uint256)": "infinite"
					}
				},
				"methodIdentifiers": {
					"mint(address)": "6a627842",
					"transfer(address,uint256)": "a9059cbb"
				}
			},
			"storageLayout": {
				"storage": [
					{
						"astId": 17,
						"contract": "selector.sol:test",
						"label": "balanceOf",
						"offset": 0,
						"slot": "0",
						"type": "t_mapping(t_address,t_uint256)"
					}
				],
				"types": {
					"t_address": {
						"encoding": "inplace",
						"label": "address",
						"numberOfBytes": "20"
					},
					"t_mapping(t_address,t_uint256)": {
						"encoding": "mapping",
						"key": "t_address",
						"label": "mapping(address => uint256)",
						"numberOfBytes": "32",
						"value": "t_uint256"
					},
					"t_uint256": {
						"encoding": "inplace",
						"label": "uint256",
						"numberOfBytes": "32"
					}
				}
			},
			"userdoc": {
				"kind": "user",
				"methods": {},
				"version": 1
			}
		}
	}
}