{
	"ABI编码.sol": {
		"test": {
			"abi": [
				{
					"inputs": [
						{
							"internalType": "bytes",
							"name": "data",
							"type": "bytes"
						}
					],
					"name": "decode",
					"outputs": [
						{
							"internalType": "uint256",
							"name": "dx",
							"type": "uint256"
						},
						{
							"internalType": "address",
							"name": "daddr",
							"type": "address"
						},
						{
							"internalType": "string",
							"name": "dname",
							"type": "string"
						},
						{
							"internalType": "uint256[2]",
							"name": "darray",
							"type": "uint256[2]"
						}
					],
					"stateMutability": "pure",
					"type": "function"
				},
				{
					"inputs": [],
					"name": "encode",
					"outputs": [
						{
							"internalType": "bytes",
							"name": "result",
							"type": "bytes"
						}
					],
					"stateMutability": "view",
					"type": "function"
				},
				{
					"inputs": [],
					"name": "encodePacked",
					"outputs": [
						{
							"internalType": "bytes",
							"name": "result",
							"type": "bytes"
						}
					],
					"stateMutability": "view",
					"type": "function"
				},
				{
					"inputs": [],
					"name": "encodeWithSelector",
					"outputs": [
						{
							"internalType": "bytes",
							"name": "result",
							"type": "bytes"
						}
					],
					"stateMutability": "view",
					"type": "function"
				},
				{
					"inputs": [],
					"name": "encodeWithSignature",
					"outputs": [
						{
							"internalType": "bytes",
							"name": "result",
							"type": "bytes"
						}
					],
					"stateMutability": "view",
					"type": "function"
				}
			],
			"devdoc": {
				"kind": "dev",
				"methods": {},
				"version": 1
			},
			"evm": {
				"assembly": "    /* \"ABI\\xe7\\xbc\\x96\\xe7\\xa0\\x81.sol\":72:1335  contract test{\r... */\n  mstore(0x40, 0x80)\n    /* \"ABI\\xe7\\xbc\\x96\\xe7\\xa0\\x81.sol\":121:123  10 */\n  0x0a\n    /* \"ABI\\xe7\\xbc\\x96\\xe7\\xa0\\x81.sol\":112:123  uint x = 10 */\n  0x00\n  sstore\n    /* \"ABI\\xe7\\xbc\\x96\\xe7\\xa0\\x81.sol\":145:187  0x7A58c0Be72BE218B41C608b7Fe7C5bB630736C71 */\n  0x7a58c0be72be218b41c608b7fe7c5bb630736c71\n    /* \"ABI\\xe7\\xbc\\x96\\xe7\\xa0\\x81.sol\":130:187  address addr = 0x7A58c0Be72BE218B41C608b7Fe7C5bB630736C71 */\n  0x01\n  exp(0x0100, 0x00)\n  dup2\n  sload\n  dup2\n  0xffffffffffffffffffffffffffffffffffffffff\n  mul\n  not\n  and\n  swap1\n  dup4\n  0xffffffffffffffffffffffffffffffffffffffff\n  and\n  mul\n  or\n  swap1\n  sstore\n  pop\n    /* \"ABI\\xe7\\xbc\\x96\\xe7\\xa0\\x81.sol\":194:214  string name = \"0xAA\" */\n  mload(0x40)\n  dup1\n  0x40\n  add\n  0x40\n  mstore\n  dup1\n  0x04\n  dup2\n  mstore\n  0x20\n  add\n  0x3078414100000000000000000000000000000000000000000000000000000000\n  dup2\n  mstore\n  pop\n  0x02\n  swap1\n  dup1\n  mload\n  swap1\n  0x20\n  add\n  swap1\n  tag_1\n  swap3\n  swap2\n  swap1\n  tag_2\n  jump\t// in\ntag_1:\n  pop\n    /* \"ABI\\xe7\\xbc\\x96\\xe7\\xa0\\x81.sol\":221:243  uint[2] array = [5, 6] */\n  mload(0x40)\n  dup1\n  0x40\n  add\n  0x40\n  mstore\n  dup1\n    /* \"ABI\\xe7\\xbc\\x96\\xe7\\xa0\\x81.sol\":238:239  5 */\n  0x05\n    /* \"ABI\\xe7\\xbc\\x96\\xe7\\xa0\\x81.sol\":221:243  uint[2] array = [5, 6] */\n  0xff\n  and\n  dup2\n  mstore\n  0x20\n  add\n    /* \"ABI\\xe7\\xbc\\x96\\xe7\\xa0\\x81.sol\":241:242  6 */\n  0x06\n    /* \"ABI\\xe7\\xbc\\x96\\xe7\\xa0\\x81.sol\":221:243  uint[2] array = [5, 6] */\n  0xff\n  and\n  dup2\n  mstore\n  pop\n  0x03\n  swap1\n  0x02\n  tag_3\n  swap3\n  swap2\n  swap1\n  tag_4\n  jump\t// in\ntag_3:\n  pop\n    /* \"ABI\\xe7\\xbc\\x96\\xe7\\xa0\\x81.sol\":72:1335  contract test{\r... */\n  callvalue\n  dup1\n  iszero\n  tag_5\n  jumpi\n  0x00\n  dup1\n  revert\ntag_5:\n  pop\n  jump(tag_6)\ntag_2:\n  dup3\n  dup1\n  sload\n  tag_7\n  swap1\n  tag_8\n  jump\t// in\ntag_7:\n  swap1\n  0x00\n  mstore\n  keccak256(0x00, 0x20)\n  swap1\n  0x1f\n  add\n  0x20\n  swap1\n  div\n  dup2\n  add\n  swap3\n  dup3\n  tag_10\n  jumpi\n  0x00\n  dup6\n  sstore\n  jump(tag_9)\ntag_10:\n  dup3\n  0x1f\n  lt\n  tag_11\n  jumpi\n  dup1\n  mload\n  not(0xff)\n  and\n  dup4\n  dup1\n  add\n  or\n  dup6\n  sstore\n  jump(tag_9)\ntag_11:\n  dup3\n  dup1\n  add\n  0x01\n  add\n  dup6\n  sstore\n  dup3\n  iszero\n  tag_9\n  jumpi\n  swap2\n  dup3\n  add\ntag_12:\n  dup3\n  dup2\n  gt\n  iszero\n  tag_13\n  jumpi\n  dup3\n  mload\n  dup3\n  sstore\n  swap2\n  0x20\n  add\n  swap2\n  swap1\n  0x01\n  add\n  swap1\n  jump(tag_12)\ntag_13:\ntag_9:\n  pop\n  swap1\n  pop\n  tag_14\n  swap2\n  swap1\n  tag_15\n  jump\t// in\ntag_14:\n  pop\n  swap1\n  jump\t// out\ntag_4:\n  dup3\n  0x02\n  dup2\n  add\n  swap3\n  dup3\n  iszero\n  tag_16\n  jumpi\n  swap2\n  0x20\n  mul\n  dup3\n  add\ntag_17:\n  dup3\n  dup2\n  gt\n  iszero\n  tag_18\n  jumpi\n  dup3\n  mload\n  dup3\n  swap1\n  0xff\n  and\n  swap1\n  sstore\n  swap2\n  0x20\n  add\n  swap2\n  swap1\n  0x01\n  add\n  swap1\n  jump(tag_17)\ntag_18:\ntag_16:\n  pop\n  swap1\n  pop\n  tag_19\n  swap2\n  swap1\n  tag_15\n  jump\t// in\ntag_19:\n  pop\n  swap1\n  jump\t// out\ntag_15:\ntag_20:\n  dup1\n  dup3\n  gt\n  iszero\n  tag_21\n  jumpi\n  0x00\n  dup2\n  0x00\n  swap1\n  sstore\n  pop\n  0x01\n  add\n  jump(tag_20)\ntag_21:\n  pop\n  swap1\n  jump\t// out\n    /* \"#utility.yul\":7:327   */\ntag_8:\n    /* \"#utility.yul\":51:57   */\n  0x00\n    /* \"#utility.yul\":88:89   */\n  0x02\n    /* \"#utility.yul\":82:86   */\n  dup3\n    /* \"#utility.yul\":78:90   */\n  div\n    /* \"#utility.yul\":68:90   */\n  swap1\n  pop\n    /* \"#utility.yul\":135:136   */\n  0x01\n    /* \"#utility.yul\":129:133   */\n  dup3\n    /* \"#utility.yul\":125:137   */\n  and\n    /* \"#utility.yul\":156:174   */\n  dup1\n    /* \"#utility.yul\":146:227   */\n  tag_24\n  jumpi\n    /* \"#utility.yul\":212:216   */\n  0x7f\n    /* \"#utility.yul\":204:210   */\n  dup3\n    /* \"#utility.yul\":200:217   */\n  and\n    /* \"#utility.yul\":190:217   */\n  swap2\n  pop\n    /* \"#utility.yul\":146:227   */\ntag_24:\n    /* \"#utility.yul\":274:276   */\n  0x20\n    /* \"#utility.yul\":266:272   */\n  dup3\n    /* \"#utility.yul\":263:277   */\n  lt\n    /* \"#utility.yul\":243:261   */\n  dup2\n    /* \"#utility.yul\":240:278   */\n  eq\n    /* \"#utility.yul\":237:321   */\n  iszero\n  tag_25\n  jumpi\n    /* \"#utility.yul\":293:311   */\n  tag_26\n  tag_27\n  jump\t// in\ntag_26:\n    /* \"#utility.yul\":237:321   */\ntag_25:\n    /* \"#utility.yul\":58:327   */\n  pop\n    /* \"#utility.yul\":7:327   */\n  swap2\n  swap1\n  pop\n  jump\t// out\n    /* \"#utility.yul\":333:513   */\ntag_27:\n    /* \"#utility.yul\":381:458   */\n  0x4e487b7100000000000000000000000000000000000000000000000000000000\n    /* \"#utility.yul\":378:379   */\n  0x00\n    /* \"#utility.yul\":371:459   */\n  mstore\n    /* \"#utility.yul\":478:482   */\n  0x22\n    /* \"#utility.yul\":475:476   */\n  0x04\n    /* \"#utility.yul\":468:483   */\n  mstore\n    /* \"#utility.yul\":502:506   */\n  0x24\n    /* \"#utility.yul\":499:500   */\n  0x00\n    /* \"#utility.yul\":492:507   */\n  revert\n    /* \"ABI\\xe7\\xbc\\x96\\xe7\\xa0\\x81.sol\":72:1335  contract test{\r... */\ntag_6:\n  dataSize(sub_0)\n  dup1\n  dataOffset(sub_0)\n  0x00\n  codecopy\n  0x00\n  return\nstop\n\nsub_0: assembly {\n        /* \"ABI\\xe7\\xbc\\x96\\xe7\\xa0\\x81.sol\":72:1335  contract test{\r... */\n      mstore(0x40, 0x80)\n      callvalue\n      dup1\n      iszero\n      tag_1\n      jumpi\n      0x00\n      dup1\n      revert\n    tag_1:\n      pop\n      jumpi(tag_2, lt(calldatasize, 0x04))\n      shr(0xe0, calldataload(0x00))\n      dup1\n      0x53d9c506\n      eq\n      tag_3\n      jumpi\n      dup1\n      0xbd14598f\n      eq\n      tag_4\n      jumpi\n      dup1\n      0xd1bd363d\n      eq\n      tag_5\n      jumpi\n      dup1\n      0xe4f2a84a\n      eq\n      tag_6\n      jumpi\n      dup1\n      0xe5c5e9a3\n      eq\n      tag_7\n      jumpi\n    tag_2:\n      0x00\n      dup1\n      revert\n        /* \"ABI\\xe7\\xbc\\x96\\xe7\\xa0\\x81.sol\":422:553  function encodePacked() public view returns(bytes memory result) {\r... */\n    tag_3:\n      tag_8\n      tag_9\n      jump\t// in\n    tag_8:\n      mload(0x40)\n      tag_10\n      swap2\n      swap1\n      tag_11\n      jump\t// in\n    tag_10:\n      mload(0x40)\n      dup1\n      swap2\n      sub\n      swap1\n      return\n        /* \"ABI\\xe7\\xbc\\x96\\xe7\\xa0\\x81.sol\":271:390  function encode() public view returns(bytes memory result) {\r... */\n    tag_4:\n      tag_12\n      tag_13\n      jump\t// in\n    tag_12:\n      mload(0x40)\n      tag_14\n      swap2\n      swap1\n      tag_11\n      jump\t// in\n    tag_14:\n      mload(0x40)\n      dup1\n      swap2\n      sub\n      swap1\n      return\n        /* \"ABI\\xe7\\xbc\\x96\\xe7\\xa0\\x81.sol\":863:1067  function encodeWithSelector() public view returns(bytes memory result) {\r... */\n    tag_5:\n      tag_15\n      tag_16\n      jump\t// in\n    tag_15:\n      mload(0x40)\n      tag_17\n      swap2\n      swap1\n      tag_11\n      jump\t// in\n    tag_17:\n      mload(0x40)\n      dup1\n      swap2\n      sub\n      swap1\n      return\n        /* \"ABI\\xe7\\xbc\\x96\\xe7\\xa0\\x81.sol\":639:826  function encodeWithSignature() public view returns(bytes memory result) {\r... */\n    tag_6:\n      tag_18\n      tag_19\n      jump\t// in\n    tag_18:\n      mload(0x40)\n      tag_20\n      swap2\n      swap1\n      tag_11\n      jump\t// in\n    tag_20:\n      mload(0x40)\n      dup1\n      swap2\n      sub\n      swap1\n      return\n        /* \"ABI\\xe7\\xbc\\x96\\xe7\\xa0\\x81.sol\":1109:1330  function decode(bytes memory data) public pure returns(uint dx, address daddr, string memory dname, uint[2] memory darray) {\r... */\n    tag_7:\n      tag_21\n      0x04\n      dup1\n      calldatasize\n      sub\n      dup2\n      add\n      swap1\n      tag_22\n      swap2\n      swap1\n      tag_23\n      jump\t// in\n    tag_22:\n      tag_24\n      jump\t// in\n    tag_21:\n      mload(0x40)\n      tag_25\n      swap5\n      swap4\n      swap3\n      swap2\n      swap1\n      tag_26\n      jump\t// in\n    tag_25:\n      mload(0x40)\n      dup1\n      swap2\n      sub\n      swap1\n      return\n        /* \"ABI\\xe7\\xbc\\x96\\xe7\\xa0\\x81.sol\":422:553  function encodePacked() public view returns(bytes memory result) {\r... */\n    tag_9:\n        /* \"ABI\\xe7\\xbc\\x96\\xe7\\xa0\\x81.sol\":466:485  bytes memory result */\n      0x60\n        /* \"ABI\\xe7\\xbc\\x96\\xe7\\xa0\\x81.sol\":524:525  x */\n      sload(0x00)\n        /* \"ABI\\xe7\\xbc\\x96\\xe7\\xa0\\x81.sol\":527:531  addr */\n      0x01\n      0x00\n      swap1\n      sload\n      swap1\n      0x0100\n      exp\n      swap1\n      div\n      0xffffffffffffffffffffffffffffffffffffffff\n      and\n        /* \"ABI\\xe7\\xbc\\x96\\xe7\\xa0\\x81.sol\":533:537  name */\n      0x02\n        /* \"ABI\\xe7\\xbc\\x96\\xe7\\xa0\\x81.sol\":539:544  array */\n      0x03\n        /* \"ABI\\xe7\\xbc\\x96\\xe7\\xa0\\x81.sol\":507:545  abi.encodePacked(x, addr, name, array) */\n      add(0x20, mload(0x40))\n      tag_28\n      swap5\n      swap4\n      swap3\n      swap2\n      swap1\n      tag_29\n      jump\t// in\n    tag_28:\n      mload(0x40)\n      0x20\n      dup2\n      dup4\n      sub\n      sub\n      dup2\n      mstore\n      swap1\n      0x40\n      mstore\n        /* \"ABI\\xe7\\xbc\\x96\\xe7\\xa0\\x81.sol\":498:545  result = abi.encodePacked(x, addr, name, array) */\n      swap1\n      pop\n        /* \"ABI\\xe7\\xbc\\x96\\xe7\\xa0\\x81.sol\":422:553  function encodePacked() public view returns(bytes memory result) {\r... */\n      swap1\n      jump\t// out\n        /* \"ABI\\xe7\\xbc\\x96\\xe7\\xa0\\x81.sol\":271:390  function encode() public view returns(bytes memory result) {\r... */\n    tag_13:\n        /* \"ABI\\xe7\\xbc\\x96\\xe7\\xa0\\x81.sol\":309:328  bytes memory result */\n      0x60\n        /* \"ABI\\xe7\\xbc\\x96\\xe7\\xa0\\x81.sol\":361:362  x */\n      sload(0x00)\n        /* \"ABI\\xe7\\xbc\\x96\\xe7\\xa0\\x81.sol\":364:368  addr */\n      0x01\n      0x00\n      swap1\n      sload\n      swap1\n      0x0100\n      exp\n      swap1\n      div\n      0xffffffffffffffffffffffffffffffffffffffff\n      and\n        /* \"ABI\\xe7\\xbc\\x96\\xe7\\xa0\\x81.sol\":370:374  name */\n      0x02\n        /* \"ABI\\xe7\\xbc\\x96\\xe7\\xa0\\x81.sol\":376:381  array */\n      0x03\n        /* \"ABI\\xe7\\xbc\\x96\\xe7\\xa0\\x81.sol\":350:382  abi.encode(x, addr, name, array) */\n      add(0x20, mload(0x40))\n      tag_31\n      swap5\n      swap4\n      swap3\n      swap2\n      swap1\n      tag_32\n      jump\t// in\n    tag_31:\n      mload(0x40)\n      0x20\n      dup2\n      dup4\n      sub\n      sub\n      dup2\n      mstore\n      swap1\n      0x40\n      mstore\n        /* \"ABI\\xe7\\xbc\\x96\\xe7\\xa0\\x81.sol\":341:382  result = abi.encode(x, addr, name, array) */\n      swap1\n      pop\n        /* \"ABI\\xe7\\xbc\\x96\\xe7\\xa0\\x81.sol\":271:390  function encode() public view returns(bytes memory result) {\r... */\n      swap1\n      jump\t// out\n        /* \"ABI\\xe7\\xbc\\x96\\xe7\\xa0\\x81.sol\":863:1067  function encodeWithSelector() public view returns(bytes memory result) {\r... */\n    tag_16:\n        /* \"ABI\\xe7\\xbc\\x96\\xe7\\xa0\\x81.sol\":913:932  bytes memory result */\n      0x60\n        /* \"ABI\\xe7\\xbc\\x96\\xe7\\xa0\\x81.sol\":984:1035  keccak256(\"foo(uint256,address,string,uint256[2])\") */\n      0xe87082f1450a46f8f3150d7bda55bda41a2b08d68abde6797ccc68be30567335\n        /* \"ABI\\xe7\\xbc\\x96\\xe7\\xa0\\x81.sol\":1038:1039  x */\n      sload(0x00)\n        /* \"ABI\\xe7\\xbc\\x96\\xe7\\xa0\\x81.sol\":1041:1045  addr */\n      0x01\n      0x00\n      swap1\n      sload\n      swap1\n      0x0100\n      exp\n      swap1\n      div\n      0xffffffffffffffffffffffffffffffffffffffff\n      and\n        /* \"ABI\\xe7\\xbc\\x96\\xe7\\xa0\\x81.sol\":1047:1051  name */\n      0x02\n        /* \"ABI\\xe7\\xbc\\x96\\xe7\\xa0\\x81.sol\":1053:1058  array */\n      0x03\n        /* \"ABI\\xe7\\xbc\\x96\\xe7\\xa0\\x81.sol\":954:1059  abi.encodeWithSelector(bytes4(keccak256(\"foo(uint256,address,string,uint256[2])\")), x, addr, name, array) */\n      add(0x24, mload(0x40))\n      tag_34\n      swap5\n      swap4\n      swap3\n      swap2\n      swap1\n      tag_32\n      jump\t// in\n    tag_34:\n      mload(0x40)\n      0x20\n      dup2\n      dup4\n      sub\n      sub\n      dup2\n      mstore\n      swap1\n      0x40\n      mstore\n      swap1\n      not(0xffffffffffffffffffffffffffffffffffffffffffffffffffffffff)\n      and\n      0x20\n      dup3\n      add\n      dup1\n      mload\n      0xffffffffffffffffffffffffffffffffffffffffffffffffffffffff\n      dup4\n      dup2\n      dup4\n      and\n      or\n      dup4\n      mstore\n      pop\n      pop\n      pop\n      pop\n        /* \"ABI\\xe7\\xbc\\x96\\xe7\\xa0\\x81.sol\":945:1059  result = abi.encodeWithSelector(bytes4(keccak256(\"foo(uint256,address,string,uint256[2])\")), x, addr, name, array) */\n      swap1\n      pop\n        /* \"ABI\\xe7\\xbc\\x96\\xe7\\xa0\\x81.sol\":863:1067  function encodeWithSelector() public view returns(bytes memory result) {\r... */\n      swap1\n      jump\t// out\n        /* \"ABI\\xe7\\xbc\\x96\\xe7\\xa0\\x81.sol\":639:826  function encodeWithSignature() public view returns(bytes memory result) {\r... */\n    tag_19:\n        /* \"ABI\\xe7\\xbc\\x96\\xe7\\xa0\\x81.sol\":690:709  bytes memory result */\n      0x60\n        /* \"ABI\\xe7\\xbc\\x96\\xe7\\xa0\\x81.sol\":797:798  x */\n      sload(0x00)\n        /* \"ABI\\xe7\\xbc\\x96\\xe7\\xa0\\x81.sol\":800:804  addr */\n      0x01\n      0x00\n      swap1\n      sload\n      swap1\n      0x0100\n      exp\n      swap1\n      div\n      0xffffffffffffffffffffffffffffffffffffffff\n      and\n        /* \"ABI\\xe7\\xbc\\x96\\xe7\\xa0\\x81.sol\":806:810  name */\n      0x02\n        /* \"ABI\\xe7\\xbc\\x96\\xe7\\xa0\\x81.sol\":812:817  array */\n      0x03\n        /* \"ABI\\xe7\\xbc\\x96\\xe7\\xa0\\x81.sol\":731:818  abi.encodeWithSignature(\"foo(uint256,address,string,uint256[2])\", x, addr, name, array) */\n      add(0x24, mload(0x40))\n      tag_36\n      swap5\n      swap4\n      swap3\n      swap2\n      swap1\n      tag_32\n      jump\t// in\n    tag_36:\n      mload(0x40)\n      0x20\n      dup2\n      dup4\n      sub\n      sub\n      dup2\n      mstore\n      swap1\n      0x40\n      mstore\n      and(not(0xffffffffffffffffffffffffffffffffffffffffffffffffffffffff), 0xe87082f100000000000000000000000000000000000000000000000000000000)\n      0x20\n      dup3\n      add\n      dup1\n      mload\n      0xffffffffffffffffffffffffffffffffffffffffffffffffffffffff\n      dup4\n      dup2\n      dup4\n      and\n      or\n      dup4\n      mstore\n      pop\n      pop\n      pop\n      pop\n        /* \"ABI\\xe7\\xbc\\x96\\xe7\\xa0\\x81.sol\":722:818  result = abi.encodeWithSignature(\"foo(uint256,address,string,uint256[2])\", x, addr, name, array) */\n      swap1\n      pop\n        /* \"ABI\\xe7\\xbc\\x96\\xe7\\xa0\\x81.sol\":639:826  function encodeWithSignature() public view returns(bytes memory result) {\r... */\n      swap1\n      jump\t// out\n        /* \"ABI\\xe7\\xbc\\x96\\xe7\\xa0\\x81.sol\":1109:1330  function decode(bytes memory data) public pure returns(uint dx, address daddr, string memory dname, uint[2] memory darray) {\r... */\n    tag_24:\n        /* \"ABI\\xe7\\xbc\\x96\\xe7\\xa0\\x81.sol\":1164:1171  uint dx */\n      0x00\n        /* \"ABI\\xe7\\xbc\\x96\\xe7\\xa0\\x81.sol\":1173:1186  address daddr */\n      dup1\n        /* \"ABI\\xe7\\xbc\\x96\\xe7\\xa0\\x81.sol\":1188:1207  string memory dname */\n      0x60\n        /* \"ABI\\xe7\\xbc\\x96\\xe7\\xa0\\x81.sol\":1209:1230  uint[2] memory darray */\n      tag_37\n      tag_38\n      jump\t// in\n    tag_37:\n        /* \"ABI\\xe7\\xbc\\x96\\xe7\\xa0\\x81.sol\":1283:1287  data */\n      dup5\n        /* \"ABI\\xe7\\xbc\\x96\\xe7\\xa0\\x81.sol\":1272:1322  abi.decode(data, (uint, address, string, uint[2])) */\n      dup1\n      0x20\n      add\n      swap1\n      mload\n      dup2\n      add\n      swap1\n      tag_40\n      swap2\n      swap1\n      tag_41\n      jump\t// in\n    tag_40:\n        /* \"ABI\\xe7\\xbc\\x96\\xe7\\xa0\\x81.sol\":1243:1322  (dx, daddr, dname, darray) = abi.decode(data, (uint, address, string, uint[2])) */\n      dup1\n      swap5\n      pop\n      dup2\n      swap6\n      pop\n      dup3\n      swap7\n      pop\n      dup4\n      swap8\n      pop\n      pop\n      pop\n      pop\n      pop\n        /* \"ABI\\xe7\\xbc\\x96\\xe7\\xa0\\x81.sol\":1109:1330  function decode(bytes memory data) public pure returns(uint dx, address daddr, string memory dname, uint[2] memory darray) {\r... */\n      swap2\n      swap4\n      pop\n      swap2\n      swap4\n      jump\t// out\n    tag_38:\n      mload(0x40)\n      dup1\n      0x40\n      add\n      0x40\n      mstore\n      dup1\n      0x02\n      swap1\n      0x20\n      dup3\n      mul\n      dup1\n      calldatasize\n      dup4\n      calldatacopy\n      dup1\n      dup3\n      add\n      swap2\n      pop\n      pop\n      swap1\n      pop\n      pop\n      swap1\n      jump\t// out\n        /* \"#utility.yul\":25:702   */\n    tag_43:\n        /* \"#utility.yul\":130:135   */\n      0x00\n        /* \"#utility.yul\":155:234   */\n      tag_45\n        /* \"#utility.yul\":171:233   */\n      tag_46\n        /* \"#utility.yul\":226:232   */\n      dup5\n        /* \"#utility.yul\":171:233   */\n      tag_47\n      jump\t// in\n    tag_46:\n        /* \"#utility.yul\":155:234   */\n      tag_48\n      jump\t// in\n    tag_45:\n        /* \"#utility.yul\":146:234   */\n      swap1\n      pop\n        /* \"#utility.yul\":254:259   */\n      dup1\n        /* \"#utility.yul\":280:286   */\n      dup3\n        /* \"#utility.yul\":330:333   */\n      dup6\n        /* \"#utility.yul\":322:326   */\n      0x20\n        /* \"#utility.yul\":314:320   */\n      dup7\n        /* \"#utility.yul\":310:327   */\n      mul\n        /* \"#utility.yul\":305:308   */\n      dup3\n        /* \"#utility.yul\":301:328   */\n      add\n        /* \"#utility.yul\":298:334   */\n      gt\n        /* \"#utility.yul\":295:438   */\n      iszero\n      tag_49\n      jumpi\n        /* \"#utility.yul\":349:428   */\n      tag_50\n      tag_51\n      jump\t// in\n    tag_50:\n        /* \"#utility.yul\":295:438   */\n    tag_49:\n        /* \"#utility.yul\":462:463   */\n      0x00\n        /* \"#utility.yul\":447:696   */\n    tag_52:\n        /* \"#utility.yul\":472:478   */\n      dup6\n        /* \"#utility.yul\":469:470   */\n      dup2\n        /* \"#utility.yul\":466:479   */\n      lt\n        /* \"#utility.yul\":447:696   */\n      iszero\n      tag_54\n      jumpi\n        /* \"#utility.yul\":540:543   */\n      dup2\n        /* \"#utility.yul\":569:617   */\n      tag_55\n        /* \"#utility.yul\":613:616   */\n      dup9\n        /* \"#utility.yul\":601:611   */\n      dup3\n        /* \"#utility.yul\":569:617   */\n      tag_56\n      jump\t// in\n    tag_55:\n        /* \"#utility.yul\":564:567   */\n      dup5\n        /* \"#utility.yul\":557:618   */\n      mstore\n        /* \"#utility.yul\":647:651   */\n      0x20\n        /* \"#utility.yul\":642:645   */\n      dup5\n        /* \"#utility.yul\":638:652   */\n      add\n        /* \"#utility.yul\":631:652   */\n      swap4\n      pop\n        /* \"#utility.yul\":681:685   */\n      0x20\n        /* \"#utility.yul\":676:679   */\n      dup4\n        /* \"#utility.yul\":672:686   */\n      add\n        /* \"#utility.yul\":665:686   */\n      swap3\n      pop\n        /* \"#utility.yul\":507:696   */\n      pop\n        /* \"#utility.yul\":494:495   */\n      0x01\n        /* \"#utility.yul\":491:492   */\n      dup2\n        /* \"#utility.yul\":487:496   */\n      add\n        /* \"#utility.yul\":482:496   */\n      swap1\n      pop\n        /* \"#utility.yul\":447:696   */\n      jump(tag_52)\n    tag_54:\n        /* \"#utility.yul\":451:465   */\n      pop\n        /* \"#utility.yul\":136:702   */\n      pop\n      pop\n        /* \"#utility.yul\":25:702   */\n      swap4\n      swap3\n      pop\n      pop\n      pop\n      jump\t// out\n        /* \"#utility.yul\":708:1118   */\n    tag_57:\n        /* \"#utility.yul\":785:790   */\n      0x00\n        /* \"#utility.yul\":810:875   */\n      tag_59\n        /* \"#utility.yul\":826:874   */\n      tag_60\n        /* \"#utility.yul\":867:873   */\n      dup5\n        /* \"#utility.yul\":826:874   */\n      tag_61\n      jump\t// in\n    tag_60:\n        /* \"#utility.yul\":810:875   */\n      tag_48\n      jump\t// in\n    tag_59:\n        /* \"#utility.yul\":801:875   */\n      swap1\n      pop\n        /* \"#utility.yul\":898:904   */\n      dup3\n        /* \"#utility.yul\":891:896   */\n      dup2\n        /* \"#utility.yul\":884:905   */\n      mstore\n        /* \"#utility.yul\":936:940   */\n      0x20\n        /* \"#utility.yul\":929:934   */\n      dup2\n        /* \"#utility.yul\":925:941   */\n      add\n        /* \"#utility.yul\":974:977   */\n      dup5\n        /* \"#utility.yul\":965:971   */\n      dup5\n        /* \"#utility.yul\":960:963   */\n      dup5\n        /* \"#utility.yul\":956:972   */\n      add\n        /* \"#utility.yul\":953:978   */\n      gt\n        /* \"#utility.yul\":950:1062   */\n      iszero\n      tag_62\n      jumpi\n        /* \"#utility.yul\":981:1060   */\n      tag_63\n      tag_64\n      jump\t// in\n    tag_63:\n        /* \"#utility.yul\":950:1062   */\n    tag_62:\n        /* \"#utility.yul\":1071:1112   */\n      tag_65\n        /* \"#utility.yul\":1105:1111   */\n      dup5\n        /* \"#utility.yul\":1100:1103   */\n      dup3\n        /* \"#utility.yul\":1095:1098   */\n      dup6\n        /* \"#utility.yul\":1071:1112   */\n      tag_66\n      jump\t// in\n    tag_65:\n        /* \"#utility.yul\":791:1118   */\n      pop\n        /* \"#utility.yul\":708:1118   */\n      swap4\n      swap3\n      pop\n      pop\n      pop\n      jump\t// out\n        /* \"#utility.yul\":1124:1545   */\n    tag_67:\n        /* \"#utility.yul\":1213:1218   */\n      0x00\n        /* \"#utility.yul\":1238:1304   */\n      tag_69\n        /* \"#utility.yul\":1254:1303   */\n      tag_70\n        /* \"#utility.yul\":1296:1302   */\n      dup5\n        /* \"#utility.yul\":1254:1303   */\n      tag_71\n      jump\t// in\n    tag_70:\n        /* \"#utility.yul\":1238:1304   */\n      tag_48\n      jump\t// in\n    tag_69:\n        /* \"#utility.yul\":1229:1304   */\n      swap1\n      pop\n        /* \"#utility.yul\":1327:1333   */\n      dup3\n        /* \"#utility.yul\":1320:1325   */\n      dup2\n        /* \"#utility.yul\":1313:1334   */\n      mstore\n        /* \"#utility.yul\":1365:1369   */\n      0x20\n        /* \"#utility.yul\":1358:1363   */\n      dup2\n        /* \"#utility.yul\":1354:1370   */\n      add\n        /* \"#utility.yul\":1403:1406   */\n      dup5\n        /* \"#utility.yul\":1394:1400   */\n      dup5\n        /* \"#utility.yul\":1389:1392   */\n      dup5\n        /* \"#utility.yul\":1385:1401   */\n      add\n        /* \"#utility.yul\":1382:1407   */\n      gt\n        /* \"#utility.yul\":1379:1491   */\n      iszero\n      tag_72\n      jumpi\n        /* \"#utility.yul\":1410:1489   */\n      tag_73\n      tag_64\n      jump\t// in\n    tag_73:\n        /* \"#utility.yul\":1379:1491   */\n    tag_72:\n        /* \"#utility.yul\":1500:1539   */\n      tag_74\n        /* \"#utility.yul\":1532:1538   */\n      dup5\n        /* \"#utility.yul\":1527:1530   */\n      dup3\n        /* \"#utility.yul\":1522:1525   */\n      dup6\n        /* \"#utility.yul\":1500:1539   */\n      tag_75\n      jump\t// in\n    tag_74:\n        /* \"#utility.yul\":1219:1545   */\n      pop\n        /* \"#utility.yul\":1124:1545   */\n      swap4\n      swap3\n      pop\n      pop\n      pop\n      jump\t// out\n        /* \"#utility.yul\":1551:1710   */\n    tag_76:\n        /* \"#utility.yul\":1616:1621   */\n      0x00\n        /* \"#utility.yul\":1647:1653   */\n      dup2\n        /* \"#utility.yul\":1641:1654   */\n      mload\n        /* \"#utility.yul\":1632:1654   */\n      swap1\n      pop\n        /* \"#utility.yul\":1663:1704   */\n      tag_78\n        /* \"#utility.yul\":1698:1703   */\n      dup2\n        /* \"#utility.yul\":1663:1704   */\n      tag_79\n      jump\t// in\n    tag_78:\n        /* \"#utility.yul\":1551:1710   */\n      swap3\n      swap2\n      pop\n      pop\n      jump\t// out\n        /* \"#utility.yul\":1734:2095   */\n    tag_80:\n        /* \"#utility.yul\":1814:1819   */\n      0x00\n        /* \"#utility.yul\":1863:1866   */\n      dup3\n        /* \"#utility.yul\":1856:1860   */\n      0x1f\n        /* \"#utility.yul\":1848:1854   */\n      dup4\n        /* \"#utility.yul\":1844:1861   */\n      add\n        /* \"#utility.yul\":1840:1867   */\n      slt\n        /* \"#utility.yul\":1830:1952   */\n      tag_82\n      jumpi\n        /* \"#utility.yul\":1871:1950   */\n      tag_83\n      tag_84\n      jump\t// in\n    tag_83:\n        /* \"#utility.yul\":1830:1952   */\n    tag_82:\n        /* \"#utility.yul\":1975:1979   */\n      0x02\n        /* \"#utility.yul\":1997:2089   */\n      tag_85\n        /* \"#utility.yul\":2085:2088   */\n      dup5\n        /* \"#utility.yul\":2077:2083   */\n      dup3\n        /* \"#utility.yul\":2069:2075   */\n      dup6\n        /* \"#utility.yul\":1997:2089   */\n      tag_43\n      jump\t// in\n    tag_85:\n        /* \"#utility.yul\":1988:2089   */\n      swap2\n      pop\n        /* \"#utility.yul\":1820:2095   */\n      pop\n        /* \"#utility.yul\":1734:2095   */\n      swap3\n      swap2\n      pop\n      pop\n      jump\t// out\n        /* \"#utility.yul\":2114:2452   */\n    tag_86:\n        /* \"#utility.yul\":2169:2174   */\n      0x00\n        /* \"#utility.yul\":2218:2221   */\n      dup3\n        /* \"#utility.yul\":2211:2215   */\n      0x1f\n        /* \"#utility.yul\":2203:2209   */\n      dup4\n        /* \"#utility.yul\":2199:2216   */\n      add\n        /* \"#utility.yul\":2195:2222   */\n      slt\n        /* \"#utility.yul\":2185:2307   */\n      tag_88\n      jumpi\n        /* \"#utility.yul\":2226:2305   */\n      tag_89\n      tag_84\n      jump\t// in\n    tag_89:\n        /* \"#utility.yul\":2185:2307   */\n    tag_88:\n        /* \"#utility.yul\":2343:2349   */\n      dup2\n        /* \"#utility.yul\":2330:2350   */\n      calldataload\n        /* \"#utility.yul\":2368:2446   */\n      tag_90\n        /* \"#utility.yul\":2442:2445   */\n      dup5\n        /* \"#utility.yul\":2434:2440   */\n      dup3\n        /* \"#utility.yul\":2427:2431   */\n      0x20\n        /* \"#utility.yul\":2419:2425   */\n      dup7\n        /* \"#utility.yul\":2415:2432   */\n      add\n        /* \"#utility.yul\":2368:2446   */\n      tag_57\n      jump\t// in\n    tag_90:\n        /* \"#utility.yul\":2359:2446   */\n      swap2\n      pop\n        /* \"#utility.yul\":2175:2452   */\n      pop\n        /* \"#utility.yul\":2114:2452   */\n      swap3\n      swap2\n      pop\n      pop\n      jump\t// out\n        /* \"#utility.yul\":2472:2827   */\n    tag_91:\n        /* \"#utility.yul\":2539:2544   */\n      0x00\n        /* \"#utility.yul\":2588:2591   */\n      dup3\n        /* \"#utility.yul\":2581:2585   */\n      0x1f\n        /* \"#utility.yul\":2573:2579   */\n      dup4\n        /* \"#utility.yul\":2569:2586   */\n      add\n        /* \"#utility.yul\":2565:2592   */\n      slt\n        /* \"#utility.yul\":2555:2677   */\n      tag_93\n      jumpi\n        /* \"#utility.yul\":2596:2675   */\n      tag_94\n      tag_84\n      jump\t// in\n    tag_94:\n        /* \"#utility.yul\":2555:2677   */\n    tag_93:\n        /* \"#utility.yul\":2706:2712   */\n      dup2\n        /* \"#utility.yul\":2700:2713   */\n      mload\n        /* \"#utility.yul\":2731:2821   */\n      tag_95\n        /* \"#utility.yul\":2817:2820   */\n      dup5\n        /* \"#utility.yul\":2809:2815   */\n      dup3\n        /* \"#utility.yul\":2802:2806   */\n      0x20\n        /* \"#utility.yul\":2794:2800   */\n      dup7\n        /* \"#utility.yul\":2790:2807   */\n      add\n        /* \"#utility.yul\":2731:2821   */\n      tag_67\n      jump\t// in\n    tag_95:\n        /* \"#utility.yul\":2722:2821   */\n      swap2\n      pop\n        /* \"#utility.yul\":2545:2827   */\n      pop\n        /* \"#utility.yul\":2472:2827   */\n      swap3\n      swap2\n      pop\n      pop\n      jump\t// out\n        /* \"#utility.yul\":2833:2976   */\n    tag_56:\n        /* \"#utility.yul\":2890:2895   */\n      0x00\n        /* \"#utility.yul\":2921:2927   */\n      dup2\n        /* \"#utility.yul\":2915:2928   */\n      mload\n        /* \"#utility.yul\":2906:2928   */\n      swap1\n      pop\n        /* \"#utility.yul\":2937:2970   */\n      tag_97\n        /* \"#utility.yul\":2964:2969   */\n      dup2\n        /* \"#utility.yul\":2937:2970   */\n      tag_98\n      jump\t// in\n    tag_97:\n        /* \"#utility.yul\":2833:2976   */\n      swap3\n      swap2\n      pop\n      pop\n      jump\t// out\n        /* \"#utility.yul\":2982:3489   */\n    tag_23:\n        /* \"#utility.yul\":3050:3056   */\n      0x00\n        /* \"#utility.yul\":3099:3101   */\n      0x20\n        /* \"#utility.yul\":3087:3096   */\n      dup3\n        /* \"#utility.yul\":3078:3085   */\n      dup5\n        /* \"#utility.yul\":3074:3097   */\n      sub\n        /* \"#utility.yul\":3070:3102   */\n      slt\n        /* \"#utility.yul\":3067:3186   */\n      iszero\n      tag_100\n      jumpi\n        /* \"#utility.yul\":3105:3184   */\n      tag_101\n      tag_102\n      jump\t// in\n    tag_101:\n        /* \"#utility.yul\":3067:3186   */\n    tag_100:\n        /* \"#utility.yul\":3253:3254   */\n      0x00\n        /* \"#utility.yul\":3242:3251   */\n      dup3\n        /* \"#utility.yul\":3238:3255   */\n      add\n        /* \"#utility.yul\":3225:3256   */\n      calldataload\n        /* \"#utility.yul\":3283:3301   */\n      0xffffffffffffffff\n        /* \"#utility.yul\":3275:3281   */\n      dup2\n        /* \"#utility.yul\":3272:3302   */\n      gt\n        /* \"#utility.yul\":3269:3386   */\n      iszero\n      tag_103\n      jumpi\n        /* \"#utility.yul\":3305:3384   */\n      tag_104\n      tag_105\n      jump\t// in\n    tag_104:\n        /* \"#utility.yul\":3269:3386   */\n    tag_103:\n        /* \"#utility.yul\":3410:3472   */\n      tag_106\n        /* \"#utility.yul\":3464:3471   */\n      dup5\n        /* \"#utility.yul\":3455:3461   */\n      dup3\n        /* \"#utility.yul\":3444:3453   */\n      dup6\n        /* \"#utility.yul\":3440:3462   */\n      add\n        /* \"#utility.yul\":3410:3472   */\n      tag_86\n      jump\t// in\n    tag_106:\n        /* \"#utility.yul\":3400:3472   */\n      swap2\n      pop\n        /* \"#utility.yul\":3196:3482   */\n      pop\n        /* \"#utility.yul\":2982:3489   */\n      swap3\n      swap2\n      pop\n      pop\n      jump\t// out\n        /* \"#utility.yul\":3495:4550   */\n    tag_41:\n        /* \"#utility.yul\":3633:3639   */\n      0x00\n        /* \"#utility.yul\":3641:3647   */\n      dup1\n        /* \"#utility.yul\":3649:3655   */\n      0x00\n        /* \"#utility.yul\":3657:3663   */\n      dup1\n        /* \"#utility.yul\":3706:3709   */\n      0xa0\n        /* \"#utility.yul\":3694:3703   */\n      dup6\n        /* \"#utility.yul\":3685:3692   */\n      dup8\n        /* \"#utility.yul\":3681:3704   */\n      sub\n        /* \"#utility.yul\":3677:3710   */\n      slt\n        /* \"#utility.yul\":3674:3794   */\n      iszero\n      tag_108\n      jumpi\n        /* \"#utility.yul\":3713:3792   */\n      tag_109\n      tag_102\n      jump\t// in\n    tag_109:\n        /* \"#utility.yul\":3674:3794   */\n    tag_108:\n        /* \"#utility.yul\":3833:3834   */\n      0x00\n        /* \"#utility.yul\":3858:3922   */\n      tag_110\n        /* \"#utility.yul\":3914:3921   */\n      dup8\n        /* \"#utility.yul\":3905:3911   */\n      dup3\n        /* \"#utility.yul\":3894:3903   */\n      dup9\n        /* \"#utility.yul\":3890:3912   */\n      add\n        /* \"#utility.yul\":3858:3922   */\n      tag_56\n      jump\t// in\n    tag_110:\n        /* \"#utility.yul\":3848:3922   */\n      swap5\n      pop\n        /* \"#utility.yul\":3804:3932   */\n      pop\n        /* \"#utility.yul\":3971:3973   */\n      0x20\n        /* \"#utility.yul\":3997:4069   */\n      tag_111\n        /* \"#utility.yul\":4061:4068   */\n      dup8\n        /* \"#utility.yul\":4052:4058   */\n      dup3\n        /* \"#utility.yul\":4041:4050   */\n      dup9\n        /* \"#utility.yul\":4037:4059   */\n      add\n        /* \"#utility.yul\":3997:4069   */\n      tag_76\n      jump\t// in\n    tag_111:\n        /* \"#utility.yul\":3987:4069   */\n      swap4\n      pop\n        /* \"#utility.yul\":3942:4079   */\n      pop\n        /* \"#utility.yul\":4139:4141   */\n      0x40\n        /* \"#utility.yul\":4128:4137   */\n      dup6\n        /* \"#utility.yul\":4124:4142   */\n      add\n        /* \"#utility.yul\":4118:4143   */\n      mload\n        /* \"#utility.yul\":4170:4188   */\n      0xffffffffffffffff\n        /* \"#utility.yul\":4162:4168   */\n      dup2\n        /* \"#utility.yul\":4159:4189   */\n      gt\n        /* \"#utility.yul\":4156:4273   */\n      iszero\n      tag_112\n      jumpi\n        /* \"#utility.yul\":4192:4271   */\n      tag_113\n      tag_105\n      jump\t// in\n    tag_113:\n        /* \"#utility.yul\":4156:4273   */\n    tag_112:\n        /* \"#utility.yul\":4297:4371   */\n      tag_114\n        /* \"#utility.yul\":4363:4370   */\n      dup8\n        /* \"#utility.yul\":4354:4360   */\n      dup3\n        /* \"#utility.yul\":4343:4352   */\n      dup9\n        /* \"#utility.yul\":4339:4361   */\n      add\n        /* \"#utility.yul\":4297:4371   */\n      tag_91\n      jump\t// in\n    tag_114:\n        /* \"#utility.yul\":4287:4371   */\n      swap3\n      pop\n        /* \"#utility.yul\":4089:4381   */\n      pop\n        /* \"#utility.yul\":4420:4422   */\n      0x60\n        /* \"#utility.yul\":4446:4533   */\n      tag_115\n        /* \"#utility.yul\":4525:4532   */\n      dup8\n        /* \"#utility.yul\":4516:4522   */\n      dup3\n        /* \"#utility.yul\":4505:4514   */\n      dup9\n        /* \"#utility.yul\":4501:4523   */\n      add\n        /* \"#utility.yul\":4446:4533   */\n      tag_80\n      jump\t// in\n    tag_115:\n        /* \"#utility.yul\":4436:4533   */\n      swap2\n      pop\n        /* \"#utility.yul\":4391:4543   */\n      pop\n        /* \"#utility.yul\":3495:4550   */\n      swap3\n      swap6\n      swap2\n      swap5\n      pop\n      swap3\n      pop\n      jump\t// out\n        /* \"#utility.yul\":4556:4735   */\n    tag_116:\n        /* \"#utility.yul\":4625:4635   */\n      0x00\n        /* \"#utility.yul\":4646:4692   */\n      tag_118\n        /* \"#utility.yul\":4688:4691   */\n      dup4\n        /* \"#utility.yul\":4680:4686   */\n      dup4\n        /* \"#utility.yul\":4646:4692   */\n      tag_119\n      jump\t// in\n    tag_118:\n        /* \"#utility.yul\":4724:4728   */\n      0x20\n        /* \"#utility.yul\":4719:4722   */\n      dup4\n        /* \"#utility.yul\":4715:4729   */\n      add\n        /* \"#utility.yul\":4701:4729   */\n      swap1\n      pop\n        /* \"#utility.yul\":4556:4735   */\n      swap3\n      swap2\n      pop\n      pop\n      jump\t// out\n        /* \"#utility.yul\":4741:4936   */\n    tag_120:\n        /* \"#utility.yul\":4818:4828   */\n      0x00\n        /* \"#utility.yul\":4839:4893   */\n      tag_122\n        /* \"#utility.yul\":4889:4892   */\n      dup4\n        /* \"#utility.yul\":4881:4887   */\n      dup4\n        /* \"#utility.yul\":4839:4893   */\n      tag_123\n      jump\t// in\n    tag_122:\n        /* \"#utility.yul\":4925:4929   */\n      0x20\n        /* \"#utility.yul\":4920:4923   */\n      dup4\n        /* \"#utility.yul\":4916:4930   */\n      add\n        /* \"#utility.yul\":4902:4930   */\n      swap1\n      pop\n        /* \"#utility.yul\":4741:4936   */\n      swap3\n      swap2\n      pop\n      pop\n      jump\t// out\n        /* \"#utility.yul\":4942:5060   */\n    tag_124:\n        /* \"#utility.yul\":5029:5053   */\n      tag_126\n        /* \"#utility.yul\":5047:5052   */\n      dup2\n        /* \"#utility.yul\":5029:5053   */\n      tag_127\n      jump\t// in\n    tag_126:\n        /* \"#utility.yul\":5024:5027   */\n      dup3\n        /* \"#utility.yul\":5017:5054   */\n      mstore\n        /* \"#utility.yul\":4942:5060   */\n      pop\n      pop\n      jump\t// out\n        /* \"#utility.yul\":5066:5223   */\n    tag_128:\n        /* \"#utility.yul\":5171:5216   */\n      tag_130\n        /* \"#utility.yul\":5191:5215   */\n      tag_131\n        /* \"#utility.yul\":5209:5214   */\n      dup3\n        /* \"#utility.yul\":5191:5215   */\n      tag_127\n      jump\t// in\n    tag_131:\n        /* \"#utility.yul\":5171:5216   */\n      tag_132\n      jump\t// in\n    tag_130:\n        /* \"#utility.yul\":5166:5169   */\n      dup3\n        /* \"#utility.yul\":5159:5217   */\n      mstore\n        /* \"#utility.yul\":5066:5223   */\n      pop\n      pop\n      jump\t// out\n        /* \"#utility.yul\":5261:5955   */\n    tag_133:\n        /* \"#utility.yul\":5397:5449   */\n      tag_135\n        /* \"#utility.yul\":5443:5448   */\n      dup2\n        /* \"#utility.yul\":5397:5449   */\n      tag_136\n      jump\t// in\n    tag_135:\n        /* \"#utility.yul\":5465:5549   */\n      tag_137\n        /* \"#utility.yul\":5542:5548   */\n      dup2\n        /* \"#utility.yul\":5537:5540   */\n      dup5\n        /* \"#utility.yul\":5465:5549   */\n      tag_138\n      jump\t// in\n    tag_137:\n        /* \"#utility.yul\":5458:5549   */\n      swap3\n      pop\n        /* \"#utility.yul\":5573:5627   */\n      tag_139\n        /* \"#utility.yul\":5621:5626   */\n      dup3\n        /* \"#utility.yul\":5573:5627   */\n      tag_140\n      jump\t// in\n    tag_139:\n        /* \"#utility.yul\":5650:5657   */\n      dup1\n        /* \"#utility.yul\":5681:5682   */\n      0x00\n        /* \"#utility.yul\":5666:5948   */\n    tag_141:\n        /* \"#utility.yul\":5691:5697   */\n      dup4\n        /* \"#utility.yul\":5688:5689   */\n      dup2\n        /* \"#utility.yul\":5685:5698   */\n      lt\n        /* \"#utility.yul\":5666:5948   */\n      iszero\n      tag_143\n      jumpi\n        /* \"#utility.yul\":5767:5773   */\n      dup2\n        /* \"#utility.yul\":5761:5774   */\n      mload\n        /* \"#utility.yul\":5794:5857   */\n      tag_144\n        /* \"#utility.yul\":5853:5856   */\n      dup8\n        /* \"#utility.yul\":5838:5851   */\n      dup3\n        /* \"#utility.yul\":5794:5857   */\n      tag_116\n      jump\t// in\n    tag_144:\n        /* \"#utility.yul\":5787:5857   */\n      swap7\n      pop\n        /* \"#utility.yul\":5880:5938   */\n      tag_145\n        /* \"#utility.yul\":5931:5937   */\n      dup4\n        /* \"#utility.yul\":5880:5938   */\n      tag_146\n      jump\t// in\n    tag_145:\n        /* \"#utility.yul\":5870:5938   */\n      swap3\n      pop\n        /* \"#utility.yul\":5726:5948   */\n      pop\n        /* \"#utility.yul\":5713:5714   */\n      0x01\n        /* \"#utility.yul\":5710:5711   */\n      dup2\n        /* \"#utility.yul\":5706:5715   */\n      add\n        /* \"#utility.yul\":5701:5715   */\n      swap1\n      pop\n        /* \"#utility.yul\":5666:5948   */\n      jump(tag_141)\n    tag_143:\n        /* \"#utility.yul\":5670:5684   */\n      pop\n        /* \"#utility.yul\":5373:5955   */\n      pop\n      pop\n      pop\n        /* \"#utility.yul\":5261:5955   */\n      pop\n      pop\n      jump\t// out\n        /* \"#utility.yul\":5993:6706   */\n    tag_147:\n        /* \"#utility.yul\":6126:6175   */\n      tag_149\n        /* \"#utility.yul\":6169:6174   */\n      dup2\n        /* \"#utility.yul\":6126:6175   */\n      tag_150\n      jump\t// in\n    tag_149:\n        /* \"#utility.yul\":6191:6275   */\n      tag_151\n        /* \"#utility.yul\":6268:6274   */\n      dup2\n        /* \"#utility.yul\":6263:6266   */\n      dup5\n        /* \"#utility.yul\":6191:6275   */\n      tag_138\n      jump\t// in\n    tag_151:\n        /* \"#utility.yul\":6184:6275   */\n      swap3\n      pop\n        /* \"#utility.yul\":6299:6350   */\n      tag_152\n        /* \"#utility.yul\":6344:6349   */\n      dup3\n        /* \"#utility.yul\":6299:6350   */\n      tag_153\n      jump\t// in\n    tag_152:\n        /* \"#utility.yul\":6373:6380   */\n      dup1\n        /* \"#utility.yul\":6404:6405   */\n      0x00\n        /* \"#utility.yul\":6389:6699   */\n    tag_154:\n        /* \"#utility.yul\":6414:6420   */\n      dup4\n        /* \"#utility.yul\":6411:6412   */\n      dup2\n        /* \"#utility.yul\":6408:6421   */\n      lt\n        /* \"#utility.yul\":6389:6699   */\n      iszero\n      tag_156\n      jumpi\n        /* \"#utility.yul\":6484:6528   */\n      tag_157\n        /* \"#utility.yul\":6521:6527   */\n      dup3\n        /* \"#utility.yul\":6484:6528   */\n      tag_158\n      jump\t// in\n    tag_157:\n        /* \"#utility.yul\":6548:6611   */\n      tag_159\n        /* \"#utility.yul\":6607:6610   */\n      dup8\n        /* \"#utility.yul\":6592:6605   */\n      dup3\n        /* \"#utility.yul\":6548:6611   */\n      tag_116\n      jump\t// in\n    tag_159:\n        /* \"#utility.yul\":6541:6611   */\n      swap7\n      pop\n        /* \"#utility.yul\":6634:6689   */\n      tag_160\n        /* \"#utility.yul\":6682:6688   */\n      dup4\n        /* \"#utility.yul\":6634:6689   */\n      tag_161\n      jump\t// in\n    tag_160:\n        /* \"#utility.yul\":6624:6689   */\n      swap3\n      pop\n        /* \"#utility.yul\":6449:6699   */\n      pop\n        /* \"#utility.yul\":6436:6437   */\n      0x01\n        /* \"#utility.yul\":6433:6434   */\n      dup2\n        /* \"#utility.yul\":6429:6438   */\n      add\n        /* \"#utility.yul\":6424:6438   */\n      swap1\n      pop\n        /* \"#utility.yul\":6389:6699   */\n      jump(tag_154)\n    tag_156:\n        /* \"#utility.yul\":6393:6407   */\n      pop\n        /* \"#utility.yul\":6102:6706   */\n      pop\n      pop\n      pop\n        /* \"#utility.yul\":5993:6706   */\n      pop\n      pop\n      jump\t// out\n        /* \"#utility.yul\":6744:7501   */\n    tag_162:\n        /* \"#utility.yul\":6895:6944   */\n      tag_164\n        /* \"#utility.yul\":6938:6943   */\n      dup2\n        /* \"#utility.yul\":6895:6944   */\n      tag_150\n      jump\t// in\n    tag_164:\n        /* \"#utility.yul\":6960:7062   */\n      tag_165\n        /* \"#utility.yul\":7055:7061   */\n      dup2\n        /* \"#utility.yul\":7050:7053   */\n      dup5\n        /* \"#utility.yul\":6960:7062   */\n      tag_166\n      jump\t// in\n    tag_165:\n        /* \"#utility.yul\":6953:7062   */\n      swap3\n      pop\n        /* \"#utility.yul\":7086:7137   */\n      tag_167\n        /* \"#utility.yul\":7131:7136   */\n      dup3\n        /* \"#utility.yul\":7086:7137   */\n      tag_153\n      jump\t// in\n    tag_167:\n        /* \"#utility.yul\":7160:7167   */\n      dup1\n        /* \"#utility.yul\":7191:7192   */\n      0x00\n        /* \"#utility.yul\":7176:7494   */\n    tag_168:\n        /* \"#utility.yul\":7201:7207   */\n      dup4\n        /* \"#utility.yul\":7198:7199   */\n      dup2\n        /* \"#utility.yul\":7195:7208   */\n      lt\n        /* \"#utility.yul\":7176:7494   */\n      iszero\n      tag_170\n      jumpi\n        /* \"#utility.yul\":7271:7315   */\n      tag_171\n        /* \"#utility.yul\":7308:7314   */\n      dup3\n        /* \"#utility.yul\":7271:7315   */\n      tag_158\n      jump\t// in\n    tag_171:\n        /* \"#utility.yul\":7335:7406   */\n      tag_172\n        /* \"#utility.yul\":7402:7405   */\n      dup8\n        /* \"#utility.yul\":7387:7400   */\n      dup3\n        /* \"#utility.yul\":7335:7406   */\n      tag_120\n      jump\t// in\n    tag_172:\n        /* \"#utility.yul\":7328:7406   */\n      swap7\n      pop\n        /* \"#utility.yul\":7429:7484   */\n      tag_173\n        /* \"#utility.yul\":7477:7483   */\n      dup4\n        /* \"#utility.yul\":7429:7484   */\n      tag_161\n      jump\t// in\n    tag_173:\n        /* \"#utility.yul\":7419:7484   */\n      swap3\n      pop\n        /* \"#utility.yul\":7236:7494   */\n      pop\n        /* \"#utility.yul\":7223:7224   */\n      0x01\n        /* \"#utility.yul\":7220:7221   */\n      dup2\n        /* \"#utility.yul\":7216:7225   */\n      add\n        /* \"#utility.yul\":7211:7225   */\n      swap1\n      pop\n        /* \"#utility.yul\":7176:7494   */\n      jump(tag_168)\n    tag_170:\n        /* \"#utility.yul\":7180:7194   */\n      pop\n        /* \"#utility.yul\":6871:7501   */\n      pop\n      pop\n      pop\n        /* \"#utility.yul\":6744:7501   */\n      pop\n      pop\n      jump\t// out\n        /* \"#utility.yul\":7507:7867   */\n    tag_174:\n        /* \"#utility.yul\":7593:7596   */\n      0x00\n        /* \"#utility.yul\":7621:7659   */\n      tag_176\n        /* \"#utility.yul\":7653:7658   */\n      dup3\n        /* \"#utility.yul\":7621:7659   */\n      tag_177\n      jump\t// in\n    tag_176:\n        /* \"#utility.yul\":7675:7745   */\n      tag_178\n        /* \"#utility.yul\":7738:7744   */\n      dup2\n        /* \"#utility.yul\":7733:7736   */\n      dup6\n        /* \"#utility.yul\":7675:7745   */\n      tag_179\n      jump\t// in\n    tag_178:\n        /* \"#utility.yul\":7668:7745   */\n      swap4\n      pop\n        /* \"#utility.yul\":7754:7806   */\n      tag_180\n        /* \"#utility.yul\":7799:7805   */\n      dup2\n        /* \"#utility.yul\":7794:7797   */\n      dup6\n        /* \"#utility.yul\":7787:7791   */\n      0x20\n        /* \"#utility.yul\":7780:7785   */\n      dup7\n        /* \"#utility.yul\":7776:7792   */\n      add\n        /* \"#utility.yul\":7754:7806   */\n      tag_75\n      jump\t// in\n    tag_180:\n        /* \"#utility.yul\":7831:7860   */\n      tag_181\n        /* \"#utility.yul\":7853:7859   */\n      dup2\n        /* \"#utility.yul\":7831:7860   */\n      tag_182\n      jump\t// in\n    tag_181:\n        /* \"#utility.yul\":7826:7829   */\n      dup5\n        /* \"#utility.yul\":7822:7861   */\n      add\n        /* \"#utility.yul\":7815:7861   */\n      swap2\n      pop\n        /* \"#utility.yul\":7597:7867   */\n      pop\n        /* \"#utility.yul\":7507:7867   */\n      swap3\n      swap2\n      pop\n      pop\n      jump\t// out\n        /* \"#utility.yul\":7873:8237   */\n    tag_183:\n        /* \"#utility.yul\":7961:7964   */\n      0x00\n        /* \"#utility.yul\":7989:8028   */\n      tag_185\n        /* \"#utility.yul\":8022:8027   */\n      dup3\n        /* \"#utility.yul\":7989:8028   */\n      tag_186\n      jump\t// in\n    tag_185:\n        /* \"#utility.yul\":8044:8115   */\n      tag_187\n        /* \"#utility.yul\":8108:8114   */\n      dup2\n        /* \"#utility.yul\":8103:8106   */\n      dup6\n        /* \"#utility.yul\":8044:8115   */\n      tag_188\n      jump\t// in\n    tag_187:\n        /* \"#utility.yul\":8037:8115   */\n      swap4\n      pop\n        /* \"#utility.yul\":8124:8176   */\n      tag_189\n        /* \"#utility.yul\":8169:8175   */\n      dup2\n        /* \"#utility.yul\":8164:8167   */\n      dup6\n        /* \"#utility.yul\":8157:8161   */\n      0x20\n        /* \"#utility.yul\":8150:8155   */\n      dup7\n        /* \"#utility.yul\":8146:8162   */\n      add\n        /* \"#utility.yul\":8124:8176   */\n      tag_75\n      jump\t// in\n    tag_189:\n        /* \"#utility.yul\":8201:8230   */\n      tag_190\n        /* \"#utility.yul\":8223:8229   */\n      dup2\n        /* \"#utility.yul\":8201:8230   */\n      tag_182\n      jump\t// in\n    tag_190:\n        /* \"#utility.yul\":8196:8199   */\n      dup5\n        /* \"#utility.yul\":8192:8231   */\n      add\n        /* \"#utility.yul\":8185:8231   */\n      swap2\n      pop\n        /* \"#utility.yul\":7965:8237   */\n      pop\n        /* \"#utility.yul\":7873:8237   */\n      swap3\n      swap2\n      pop\n      pop\n      jump\t// out\n        /* \"#utility.yul\":8267:9069   */\n    tag_191:\n        /* \"#utility.yul\":8352:8355   */\n      0x00\n        /* \"#utility.yul\":8389:8394   */\n      dup2\n        /* \"#utility.yul\":8383:8395   */\n      sload\n        /* \"#utility.yul\":8418:8454   */\n      tag_193\n        /* \"#utility.yul\":8444:8453   */\n      dup2\n        /* \"#utility.yul\":8418:8454   */\n      tag_194\n      jump\t// in\n    tag_193:\n        /* \"#utility.yul\":8470:8541   */\n      tag_195\n        /* \"#utility.yul\":8534:8540   */\n      dup2\n        /* \"#utility.yul\":8529:8532   */\n      dup7\n        /* \"#utility.yul\":8470:8541   */\n      tag_188\n      jump\t// in\n    tag_195:\n        /* \"#utility.yul\":8463:8541   */\n      swap5\n      pop\n        /* \"#utility.yul\":8572:8573   */\n      0x01\n        /* \"#utility.yul\":8561:8570   */\n      dup3\n        /* \"#utility.yul\":8557:8574   */\n      and\n        /* \"#utility.yul\":8588:8589   */\n      0x00\n        /* \"#utility.yul\":8583:8718   */\n      dup2\n      eq\n      tag_197\n      jumpi\n        /* \"#utility.yul\":8732:8733   */\n      0x01\n        /* \"#utility.yul\":8727:9063   */\n      dup2\n      eq\n      tag_198\n      jumpi\n        /* \"#utility.yul\":8550:9063   */\n      jump(tag_196)\n        /* \"#utility.yul\":8583:8718   */\n    tag_197:\n        /* \"#utility.yul\":8667:8671   */\n      0xff\n        /* \"#utility.yul\":8663:8672   */\n      not\n        /* \"#utility.yul\":8652:8661   */\n      dup4\n        /* \"#utility.yul\":8648:8673   */\n      and\n        /* \"#utility.yul\":8643:8646   */\n      dup7\n        /* \"#utility.yul\":8636:8674   */\n      mstore\n        /* \"#utility.yul\":8703:8707   */\n      0x20\n        /* \"#utility.yul\":8698:8701   */\n      dup7\n        /* \"#utility.yul\":8694:8708   */\n      add\n        /* \"#utility.yul\":8687:8708   */\n      swap4\n      pop\n        /* \"#utility.yul\":8583:8718   */\n      jump(tag_196)\n        /* \"#utility.yul\":8727:9063   */\n    tag_198:\n        /* \"#utility.yul\":8794:8832   */\n      tag_199\n        /* \"#utility.yul\":8826:8831   */\n      dup6\n        /* \"#utility.yul\":8794:8832   */\n      tag_200\n      jump\t// in\n    tag_199:\n        /* \"#utility.yul\":8854:8855   */\n      0x00\n        /* \"#utility.yul\":8868:9022   */\n    tag_201:\n        /* \"#utility.yul\":8882:8888   */\n      dup4\n        /* \"#utility.yul\":8879:8880   */\n      dup2\n        /* \"#utility.yul\":8876:8889   */\n      lt\n        /* \"#utility.yul\":8868:9022   */\n      iszero\n      tag_203\n      jumpi\n        /* \"#utility.yul\":8956:8963   */\n      dup2\n        /* \"#utility.yul\":8950:8964   */\n      sload\n        /* \"#utility.yul\":8946:8947   */\n      dup2\n        /* \"#utility.yul\":8941:8944   */\n      dup10\n        /* \"#utility.yul\":8937:8948   */\n      add\n        /* \"#utility.yul\":8930:8965   */\n      mstore\n        /* \"#utility.yul\":9006:9007   */\n      0x01\n        /* \"#utility.yul\":8997:9004   */\n      dup3\n        /* \"#utility.yul\":8993:9008   */\n      add\n        /* \"#utility.yul\":8982:9008   */\n      swap2\n      pop\n        /* \"#utility.yul\":8904:8908   */\n      0x20\n        /* \"#utility.yul\":8901:8902   */\n      dup2\n        /* \"#utility.yul\":8897:8909   */\n      add\n        /* \"#utility.yul\":8892:8909   */\n      swap1\n      pop\n        /* \"#utility.yul\":8868:9022   */\n      jump(tag_201)\n    tag_203:\n        /* \"#utility.yul\":9051:9052   */\n      dup1\n        /* \"#utility.yul\":9046:9049   */\n      dup9\n        /* \"#utility.yul\":9042:9053   */\n      add\n        /* \"#utility.yul\":9035:9053   */\n      swap6\n      pop\n        /* \"#utility.yul\":8734:9063   */\n      pop\n      pop\n        /* \"#utility.yul\":8550:9063   */\n    tag_196:\n      pop\n        /* \"#utility.yul\":8356:9069   */\n      pop\n      pop\n        /* \"#utility.yul\":8267:9069   */\n      swap3\n      swap2\n      pop\n      pop\n      jump\t// out\n        /* \"#utility.yul\":9099:9944   */\n    tag_204:\n        /* \"#utility.yul\":9202:9205   */\n      0x00\n        /* \"#utility.yul\":9239:9244   */\n      dup2\n        /* \"#utility.yul\":9233:9245   */\n      sload\n        /* \"#utility.yul\":9268:9304   */\n      tag_206\n        /* \"#utility.yul\":9294:9303   */\n      dup2\n        /* \"#utility.yul\":9268:9304   */\n      tag_194\n      jump\t// in\n    tag_206:\n        /* \"#utility.yul\":9320:9409   */\n      tag_207\n        /* \"#utility.yul\":9402:9408   */\n      dup2\n        /* \"#utility.yul\":9397:9400   */\n      dup7\n        /* \"#utility.yul\":9320:9409   */\n      tag_208\n      jump\t// in\n    tag_207:\n        /* \"#utility.yul\":9313:9409   */\n      swap5\n      pop\n        /* \"#utility.yul\":9440:9441   */\n      0x01\n        /* \"#utility.yul\":9429:9438   */\n      dup3\n        /* \"#utility.yul\":9425:9442   */\n      and\n        /* \"#utility.yul\":9456:9457   */\n      0x00\n        /* \"#utility.yul\":9451:9588   */\n      dup2\n      eq\n      tag_210\n      jumpi\n        /* \"#utility.yul\":9602:9603   */\n      0x01\n        /* \"#utility.yul\":9597:9938   */\n      dup2\n      eq\n      tag_211\n      jumpi\n        /* \"#utility.yul\":9418:9938   */\n      jump(tag_209)\n        /* \"#utility.yul\":9451:9588   */\n    tag_210:\n        /* \"#utility.yul\":9535:9539   */\n      0xff\n        /* \"#utility.yul\":9531:9540   */\n      not\n        /* \"#utility.yul\":9520:9529   */\n      dup4\n        /* \"#utility.yul\":9516:9541   */\n      and\n        /* \"#utility.yul\":9511:9514   */\n      dup7\n        /* \"#utility.yul\":9504:9542   */\n      mstore\n        /* \"#utility.yul\":9571:9577   */\n      dup2\n        /* \"#utility.yul\":9566:9569   */\n      dup7\n        /* \"#utility.yul\":9562:9578   */\n      add\n        /* \"#utility.yul\":9555:9578   */\n      swap4\n      pop\n        /* \"#utility.yul\":9451:9588   */\n      jump(tag_209)\n        /* \"#utility.yul\":9597:9938   */\n    tag_211:\n        /* \"#utility.yul\":9664:9702   */\n      tag_212\n        /* \"#utility.yul\":9696:9701   */\n      dup6\n        /* \"#utility.yul\":9664:9702   */\n      tag_200\n      jump\t// in\n    tag_212:\n        /* \"#utility.yul\":9724:9725   */\n      0x00\n        /* \"#utility.yul\":9738:9892   */\n    tag_213:\n        /* \"#utility.yul\":9752:9758   */\n      dup4\n        /* \"#utility.yul\":9749:9750   */\n      dup2\n        /* \"#utility.yul\":9746:9759   */\n      lt\n        /* \"#utility.yul\":9738:9892   */\n      iszero\n      tag_215\n      jumpi\n        /* \"#utility.yul\":9826:9833   */\n      dup2\n        /* \"#utility.yul\":9820:9834   */\n      sload\n        /* \"#utility.yul\":9816:9817   */\n      dup2\n        /* \"#utility.yul\":9811:9814   */\n      dup10\n        /* \"#utility.yul\":9807:9818   */\n      add\n        /* \"#utility.yul\":9800:9835   */\n      mstore\n        /* \"#utility.yul\":9876:9877   */\n      0x01\n        /* \"#utility.yul\":9867:9874   */\n      dup3\n        /* \"#utility.yul\":9863:9878   */\n      add\n        /* \"#utility.yul\":9852:9878   */\n      swap2\n      pop\n        /* \"#utility.yul\":9774:9778   */\n      0x20\n        /* \"#utility.yul\":9771:9772   */\n      dup2\n        /* \"#utility.yul\":9767:9779   */\n      add\n        /* \"#utility.yul\":9762:9779   */\n      swap1\n      pop\n        /* \"#utility.yul\":9738:9892   */\n      jump(tag_213)\n    tag_215:\n        /* \"#utility.yul\":9921:9927   */\n      dup4\n        /* \"#utility.yul\":9916:9919   */\n      dup9\n        /* \"#utility.yul\":9912:9928   */\n      add\n        /* \"#utility.yul\":9905:9928   */\n      swap6\n      pop\n        /* \"#utility.yul\":9604:9938   */\n      pop\n      pop\n        /* \"#utility.yul\":9418:9938   */\n    tag_209:\n      pop\n        /* \"#utility.yul\":9206:9944   */\n      pop\n      pop\n        /* \"#utility.yul\":9099:9944   */\n      swap3\n      swap2\n      pop\n      pop\n      jump\t// out\n        /* \"#utility.yul\":9950:10058   */\n    tag_119:\n        /* \"#utility.yul\":10027:10051   */\n      tag_217\n        /* \"#utility.yul\":10045:10050   */\n      dup2\n        /* \"#utility.yul\":10027:10051   */\n      tag_218\n      jump\t// in\n    tag_217:\n        /* \"#utility.yul\":10022:10025   */\n      dup3\n        /* \"#utility.yul\":10015:10052   */\n      mstore\n        /* \"#utility.yul\":9950:10058   */\n      pop\n      pop\n      jump\t// out\n        /* \"#utility.yul\":10064:10182   */\n    tag_219:\n        /* \"#utility.yul\":10151:10175   */\n      tag_221\n        /* \"#utility.yul\":10169:10174   */\n      dup2\n        /* \"#utility.yul\":10151:10175   */\n      tag_218\n      jump\t// in\n    tag_221:\n        /* \"#utility.yul\":10146:10149   */\n      dup3\n        /* \"#utility.yul\":10139:10176   */\n      mstore\n        /* \"#utility.yul\":10064:10182   */\n      pop\n      pop\n      jump\t// out\n        /* \"#utility.yul\":10188:10304   */\n    tag_123:\n        /* \"#utility.yul\":10273:10297   */\n      tag_223\n        /* \"#utility.yul\":10291:10296   */\n      dup2\n        /* \"#utility.yul\":10273:10297   */\n      tag_218\n      jump\t// in\n    tag_223:\n        /* \"#utility.yul\":10268:10271   */\n      dup3\n        /* \"#utility.yul\":10261:10298   */\n      mstore\n        /* \"#utility.yul\":10188:10304   */\n      pop\n      pop\n      jump\t// out\n        /* \"#utility.yul\":10310:10467   */\n    tag_224:\n        /* \"#utility.yul\":10415:10460   */\n      tag_226\n        /* \"#utility.yul\":10435:10459   */\n      tag_227\n        /* \"#utility.yul\":10453:10458   */\n      dup3\n        /* \"#utility.yul\":10435:10459   */\n      tag_218\n      jump\t// in\n    tag_227:\n        /* \"#utility.yul\":10415:10460   */\n      tag_228\n      jump\t// in\n    tag_226:\n        /* \"#utility.yul\":10410:10413   */\n      dup3\n        /* \"#utility.yul\":10403:10461   */\n      mstore\n        /* \"#utility.yul\":10310:10467   */\n      pop\n      pop\n      jump\t// out\n        /* \"#utility.yul\":10473:11251   */\n    tag_29:\n        /* \"#utility.yul\":10729:10732   */\n      0x00\n        /* \"#utility.yul\":10744:10819   */\n      tag_230\n        /* \"#utility.yul\":10815:10818   */\n      dup3\n        /* \"#utility.yul\":10806:10812   */\n      dup8\n        /* \"#utility.yul\":10744:10819   */\n      tag_224\n      jump\t// in\n    tag_230:\n        /* \"#utility.yul\":10844:10846   */\n      0x20\n        /* \"#utility.yul\":10839:10842   */\n      dup3\n        /* \"#utility.yul\":10835:10847   */\n      add\n        /* \"#utility.yul\":10828:10847   */\n      swap2\n      pop\n        /* \"#utility.yul\":10857:10932   */\n      tag_231\n        /* \"#utility.yul\":10928:10931   */\n      dup3\n        /* \"#utility.yul\":10919:10925   */\n      dup7\n        /* \"#utility.yul\":10857:10932   */\n      tag_128\n      jump\t// in\n    tag_231:\n        /* \"#utility.yul\":10957:10959   */\n      0x14\n        /* \"#utility.yul\":10952:10955   */\n      dup3\n        /* \"#utility.yul\":10948:10960   */\n      add\n        /* \"#utility.yul\":10941:10960   */\n      swap2\n      pop\n        /* \"#utility.yul\":10977:11069   */\n      tag_232\n        /* \"#utility.yul\":11065:11068   */\n      dup3\n        /* \"#utility.yul\":11056:11062   */\n      dup6\n        /* \"#utility.yul\":10977:11069   */\n      tag_204\n      jump\t// in\n    tag_232:\n        /* \"#utility.yul\":10970:11069   */\n      swap2\n      pop\n        /* \"#utility.yul\":11079:11197   */\n      tag_233\n        /* \"#utility.yul\":11193:11196   */\n      dup3\n        /* \"#utility.yul\":11184:11190   */\n      dup5\n        /* \"#utility.yul\":11079:11197   */\n      tag_162\n      jump\t// in\n    tag_233:\n        /* \"#utility.yul\":11222:11224   */\n      0x40\n        /* \"#utility.yul\":11217:11220   */\n      dup3\n        /* \"#utility.yul\":11213:11225   */\n      add\n        /* \"#utility.yul\":11206:11225   */\n      swap2\n      pop\n        /* \"#utility.yul\":11242:11245   */\n      dup2\n        /* \"#utility.yul\":11235:11245   */\n      swap1\n      pop\n        /* \"#utility.yul\":10473:11251   */\n      swap6\n      swap5\n      pop\n      pop\n      pop\n      pop\n      pop\n      jump\t// out\n        /* \"#utility.yul\":11257:11566   */\n    tag_11:\n        /* \"#utility.yul\":11368:11372   */\n      0x00\n        /* \"#utility.yul\":11406:11408   */\n      0x20\n        /* \"#utility.yul\":11395:11404   */\n      dup3\n        /* \"#utility.yul\":11391:11409   */\n      add\n        /* \"#utility.yul\":11383:11409   */\n      swap1\n      pop\n        /* \"#utility.yul\":11455:11464   */\n      dup2\n        /* \"#utility.yul\":11449:11453   */\n      dup2\n        /* \"#utility.yul\":11445:11465   */\n      sub\n        /* \"#utility.yul\":11441:11442   */\n      0x00\n        /* \"#utility.yul\":11430:11439   */\n      dup4\n        /* \"#utility.yul\":11426:11443   */\n      add\n        /* \"#utility.yul\":11419:11466   */\n      mstore\n        /* \"#utility.yul\":11483:11559   */\n      tag_235\n        /* \"#utility.yul\":11554:11558   */\n      dup2\n        /* \"#utility.yul\":11545:11551   */\n      dup5\n        /* \"#utility.yul\":11483:11559   */\n      tag_174\n      jump\t// in\n    tag_235:\n        /* \"#utility.yul\":11475:11559   */\n      swap1\n      pop\n        /* \"#utility.yul\":11257:11566   */\n      swap3\n      swap2\n      pop\n      pop\n      jump\t// out\n        /* \"#utility.yul\":11572:12308   */\n    tag_26:\n        /* \"#utility.yul\":11815:11819   */\n      0x00\n        /* \"#utility.yul\":11853:11856   */\n      0xa0\n        /* \"#utility.yul\":11842:11851   */\n      dup3\n        /* \"#utility.yul\":11838:11857   */\n      add\n        /* \"#utility.yul\":11830:11857   */\n      swap1\n      pop\n        /* \"#utility.yul\":11867:11938   */\n      tag_237\n        /* \"#utility.yul\":11935:11936   */\n      0x00\n        /* \"#utility.yul\":11924:11933   */\n      dup4\n        /* \"#utility.yul\":11920:11937   */\n      add\n        /* \"#utility.yul\":11911:11917   */\n      dup8\n        /* \"#utility.yul\":11867:11938   */\n      tag_219\n      jump\t// in\n    tag_237:\n        /* \"#utility.yul\":11948:12020   */\n      tag_238\n        /* \"#utility.yul\":12016:12018   */\n      0x20\n        /* \"#utility.yul\":12005:12014   */\n      dup4\n        /* \"#utility.yul\":12001:12019   */\n      add\n        /* \"#utility.yul\":11992:11998   */\n      dup7\n        /* \"#utility.yul\":11948:12020   */\n      tag_124\n      jump\t// in\n    tag_238:\n        /* \"#utility.yul\":12067:12076   */\n      dup2\n        /* \"#utility.yul\":12061:12065   */\n      dup2\n        /* \"#utility.yul\":12057:12077   */\n      sub\n        /* \"#utility.yul\":12052:12054   */\n      0x40\n        /* \"#utility.yul\":12041:12050   */\n      dup4\n        /* \"#utility.yul\":12037:12055   */\n      add\n        /* \"#utility.yul\":12030:12078   */\n      mstore\n        /* \"#utility.yul\":12095:12173   */\n      tag_239\n        /* \"#utility.yul\":12168:12172   */\n      dup2\n        /* \"#utility.yul\":12159:12165   */\n      dup6\n        /* \"#utility.yul\":12095:12173   */\n      tag_183\n      jump\t// in\n    tag_239:\n        /* \"#utility.yul\":12087:12173   */\n      swap1\n      pop\n        /* \"#utility.yul\":12183:12301   */\n      tag_240\n        /* \"#utility.yul\":12297:12299   */\n      0x60\n        /* \"#utility.yul\":12286:12295   */\n      dup4\n        /* \"#utility.yul\":12282:12300   */\n      add\n        /* \"#utility.yul\":12273:12279   */\n      dup5\n        /* \"#utility.yul\":12183:12301   */\n      tag_133\n      jump\t// in\n    tag_240:\n        /* \"#utility.yul\":11572:12308   */\n      swap6\n      swap5\n      pop\n      pop\n      pop\n      pop\n      pop\n      jump\t// out\n        /* \"#utility.yul\":12314:13038   */\n    tag_32:\n        /* \"#utility.yul\":12551:12555   */\n      0x00\n        /* \"#utility.yul\":12589:12592   */\n      0xa0\n        /* \"#utility.yul\":12578:12587   */\n      dup3\n        /* \"#utility.yul\":12574:12593   */\n      add\n        /* \"#utility.yul\":12566:12593   */\n      swap1\n      pop\n        /* \"#utility.yul\":12603:12674   */\n      tag_242\n        /* \"#utility.yul\":12671:12672   */\n      0x00\n        /* \"#utility.yul\":12660:12669   */\n      dup4\n        /* \"#utility.yul\":12656:12673   */\n      add\n        /* \"#utility.yul\":12647:12653   */\n      dup8\n        /* \"#utility.yul\":12603:12674   */\n      tag_219\n      jump\t// in\n    tag_242:\n        /* \"#utility.yul\":12684:12756   */\n      tag_243\n        /* \"#utility.yul\":12752:12754   */\n      0x20\n        /* \"#utility.yul\":12741:12750   */\n      dup4\n        /* \"#utility.yul\":12737:12755   */\n      add\n        /* \"#utility.yul\":12728:12734   */\n      dup7\n        /* \"#utility.yul\":12684:12756   */\n      tag_124\n      jump\t// in\n    tag_243:\n        /* \"#utility.yul\":12803:12812   */\n      dup2\n        /* \"#utility.yul\":12797:12801   */\n      dup2\n        /* \"#utility.yul\":12793:12813   */\n      sub\n        /* \"#utility.yul\":12788:12790   */\n      0x40\n        /* \"#utility.yul\":12777:12786   */\n      dup4\n        /* \"#utility.yul\":12773:12791   */\n      add\n        /* \"#utility.yul\":12766:12814   */\n      mstore\n        /* \"#utility.yul\":12831:12906   */\n      tag_244\n        /* \"#utility.yul\":12901:12905   */\n      dup2\n        /* \"#utility.yul\":12892:12898   */\n      dup6\n        /* \"#utility.yul\":12831:12906   */\n      tag_191\n      jump\t// in\n    tag_244:\n        /* \"#utility.yul\":12823:12906   */\n      swap1\n      pop\n        /* \"#utility.yul\":12916:13031   */\n      tag_245\n        /* \"#utility.yul\":13027:13029   */\n      0x60\n        /* \"#utility.yul\":13016:13025   */\n      dup4\n        /* \"#utility.yul\":13012:13030   */\n      add\n        /* \"#utility.yul\":13003:13009   */\n      dup5\n        /* \"#utility.yul\":12916:13031   */\n      tag_147\n      jump\t// in\n    tag_245:\n        /* \"#utility.yul\":12314:13038   */\n      swap6\n      swap5\n      pop\n      pop\n      pop\n      pop\n      pop\n      jump\t// out\n        /* \"#utility.yul\":13044:13173   */\n    tag_48:\n        /* \"#utility.yul\":13078:13084   */\n      0x00\n        /* \"#utility.yul\":13105:13125   */\n      tag_247\n      tag_248\n      jump\t// in\n    tag_247:\n        /* \"#utility.yul\":13095:13125   */\n      swap1\n      pop\n        /* \"#utility.yul\":13134:13167   */\n      tag_249\n        /* \"#utility.yul\":13162:13166   */\n      dup3\n        /* \"#utility.yul\":13154:13160   */\n      dup3\n        /* \"#utility.yul\":13134:13167   */\n      tag_250\n      jump\t// in\n    tag_249:\n        /* \"#utility.yul\":13044:13173   */\n      swap2\n      swap1\n      pop\n      jump\t// out\n        /* \"#utility.yul\":13179:13254   */\n    tag_248:\n        /* \"#utility.yul\":13212:13218   */\n      0x00\n        /* \"#utility.yul\":13245:13247   */\n      0x40\n        /* \"#utility.yul\":13239:13248   */\n      mload\n        /* \"#utility.yul\":13229:13248   */\n      swap1\n      pop\n        /* \"#utility.yul\":13179:13254   */\n      swap1\n      jump\t// out\n        /* \"#utility.yul\":13260:13509   */\n    tag_47:\n        /* \"#utility.yul\":13335:13339   */\n      0x00\n        /* \"#utility.yul\":13425:13443   */\n      0xffffffffffffffff\n        /* \"#utility.yul\":13417:13423   */\n      dup3\n        /* \"#utility.yul\":13414:13444   */\n      gt\n        /* \"#utility.yul\":13411:13467   */\n      iszero\n      tag_253\n      jumpi\n        /* \"#utility.yul\":13447:13465   */\n      tag_254\n      tag_255\n      jump\t// in\n    tag_254:\n        /* \"#utility.yul\":13411:13467   */\n    tag_253:\n        /* \"#utility.yul\":13497:13501   */\n      0x20\n        /* \"#utility.yul\":13489:13495   */\n      dup3\n        /* \"#utility.yul\":13485:13502   */\n      mul\n        /* \"#utility.yul\":13477:13502   */\n      swap1\n      pop\n        /* \"#utility.yul\":13260:13509   */\n      swap2\n      swap1\n      pop\n      jump\t// out\n        /* \"#utility.yul\":13515:13822   */\n    tag_61:\n        /* \"#utility.yul\":13576:13580   */\n      0x00\n        /* \"#utility.yul\":13666:13684   */\n      0xffffffffffffffff\n        /* \"#utility.yul\":13658:13664   */\n      dup3\n        /* \"#utility.yul\":13655:13685   */\n      gt\n        /* \"#utility.yul\":13652:13708   */\n      iszero\n      tag_257\n      jumpi\n        /* \"#utility.yul\":13688:13706   */\n      tag_258\n      tag_255\n      jump\t// in\n    tag_258:\n        /* \"#utility.yul\":13652:13708   */\n    tag_257:\n        /* \"#utility.yul\":13726:13755   */\n      tag_259\n        /* \"#utility.yul\":13748:13754   */\n      dup3\n        /* \"#utility.yul\":13726:13755   */\n      tag_182\n      jump\t// in\n    tag_259:\n        /* \"#utility.yul\":13718:13755   */\n      swap1\n      pop\n        /* \"#utility.yul\":13810:13814   */\n      0x20\n        /* \"#utility.yul\":13804:13808   */\n      dup2\n        /* \"#utility.yul\":13800:13815   */\n      add\n        /* \"#utility.yul\":13792:13815   */\n      swap1\n      pop\n        /* \"#utility.yul\":13515:13822   */\n      swap2\n      swap1\n      pop\n      jump\t// out\n        /* \"#utility.yul\":13828:14136   */\n    tag_71:\n        /* \"#utility.yul\":13890:13894   */\n      0x00\n        /* \"#utility.yul\":13980:13998   */\n      0xffffffffffffffff\n        /* \"#utility.yul\":13972:13978   */\n      dup3\n        /* \"#utility.yul\":13969:13999   */\n      gt\n        /* \"#utility.yul\":13966:14022   */\n      iszero\n      tag_261\n      jumpi\n        /* \"#utility.yul\":14002:14020   */\n      tag_262\n      tag_255\n      jump\t// in\n    tag_262:\n        /* \"#utility.yul\":13966:14022   */\n    tag_261:\n        /* \"#utility.yul\":14040:14069   */\n      tag_263\n        /* \"#utility.yul\":14062:14068   */\n      dup3\n        /* \"#utility.yul\":14040:14069   */\n      tag_182\n      jump\t// in\n    tag_263:\n        /* \"#utility.yul\":14032:14069   */\n      swap1\n      pop\n        /* \"#utility.yul\":14124:14128   */\n      0x20\n        /* \"#utility.yul\":14118:14122   */\n      dup2\n        /* \"#utility.yul\":14114:14129   */\n      add\n        /* \"#utility.yul\":14106:14129   */\n      swap1\n      pop\n        /* \"#utility.yul\":13828:14136   */\n      swap2\n      swap1\n      pop\n      jump\t// out\n        /* \"#utility.yul\":14142:14240   */\n    tag_140:\n        /* \"#utility.yul\":14207:14211   */\n      0x00\n        /* \"#utility.yul\":14230:14233   */\n      dup2\n        /* \"#utility.yul\":14222:14233   */\n      swap1\n      pop\n        /* \"#utility.yul\":14142:14240   */\n      swap2\n      swap1\n      pop\n      jump\t// out\n        /* \"#utility.yul\":14246:14341   */\n    tag_153:\n        /* \"#utility.yul\":14308:14312   */\n      0x00\n        /* \"#utility.yul\":14331:14334   */\n      dup2\n        /* \"#utility.yul\":14323:14334   */\n      swap1\n      pop\n        /* \"#utility.yul\":14246:14341   */\n      swap2\n      swap1\n      pop\n      jump\t// out\n        /* \"#utility.yul\":14347:14488   */\n    tag_200:\n        /* \"#utility.yul\":14396:14400   */\n      0x00\n        /* \"#utility.yul\":14419:14422   */\n      dup2\n        /* \"#utility.yul\":14411:14422   */\n      swap1\n      pop\n        /* \"#utility.yul\":14442:14445   */\n      dup2\n        /* \"#utility.yul\":14439:14440   */\n      0x00\n        /* \"#utility.yul\":14432:14446   */\n      mstore\n        /* \"#utility.yul\":14476:14480   */\n      0x20\n        /* \"#utility.yul\":14473:14474   */\n      0x00\n        /* \"#utility.yul\":14463:14481   */\n      keccak256\n        /* \"#utility.yul\":14455:14481   */\n      swap1\n      pop\n        /* \"#utility.yul\":14347:14488   */\n      swap2\n      swap1\n      pop\n      jump\t// out\n        /* \"#utility.yul\":14494:14598   */\n    tag_136:\n        /* \"#utility.yul\":14559:14565   */\n      0x00\n        /* \"#utility.yul\":14587:14591   */\n      0x02\n        /* \"#utility.yul\":14577:14591   */\n      swap1\n      pop\n        /* \"#utility.yul\":14494:14598   */\n      swap2\n      swap1\n      pop\n      jump\t// out\n        /* \"#utility.yul\":14604:14705   */\n    tag_150:\n        /* \"#utility.yul\":14666:14672   */\n      0x00\n        /* \"#utility.yul\":14694:14698   */\n      0x02\n        /* \"#utility.yul\":14684:14698   */\n      swap1\n      pop\n        /* \"#utility.yul\":14604:14705   */\n      swap2\n      swap1\n      pop\n      jump\t// out\n        /* \"#utility.yul\":14711:14809   */\n    tag_177:\n        /* \"#utility.yul\":14762:14768   */\n      0x00\n        /* \"#utility.yul\":14796:14801   */\n      dup2\n        /* \"#utility.yul\":14790:14802   */\n      mload\n        /* \"#utility.yul\":14780:14802   */\n      swap1\n      pop\n        /* \"#utility.yul\":14711:14809   */\n      swap2\n      swap1\n      pop\n      jump\t// out\n        /* \"#utility.yul\":14815:14914   */\n    tag_186:\n        /* \"#utility.yul\":14867:14873   */\n      0x00\n        /* \"#utility.yul\":14901:14906   */\n      dup2\n        /* \"#utility.yul\":14895:14907   */\n      mload\n        /* \"#utility.yul\":14885:14907   */\n      swap1\n      pop\n        /* \"#utility.yul\":14815:14914   */\n      swap2\n      swap1\n      pop\n      jump\t// out\n        /* \"#utility.yul\":14920:15031   */\n    tag_146:\n        /* \"#utility.yul\":14988:14992   */\n      0x00\n        /* \"#utility.yul\":15020:15024   */\n      0x20\n        /* \"#utility.yul\":15015:15018   */\n      dup3\n        /* \"#utility.yul\":15011:15025   */\n      add\n        /* \"#utility.yul\":15003:15025   */\n      swap1\n      pop\n        /* \"#utility.yul\":14920:15031   */\n      swap2\n      swap1\n      pop\n      jump\t// out\n        /* \"#utility.yul\":15037:15145   */\n    tag_161:\n        /* \"#utility.yul\":15102:15106   */\n      0x00\n        /* \"#utility.yul\":15134:15138   */\n      0x01\n        /* \"#utility.yul\":15129:15132   */\n      dup3\n        /* \"#utility.yul\":15125:15139   */\n      add\n        /* \"#utility.yul\":15117:15139   */\n      swap1\n      pop\n        /* \"#utility.yul\":15037:15145   */\n      swap2\n      swap1\n      pop\n      jump\t// out\n        /* \"#utility.yul\":15151:15294   */\n    tag_138:\n        /* \"#utility.yul\":15248:15259   */\n      0x00\n        /* \"#utility.yul\":15285:15288   */\n      dup2\n        /* \"#utility.yul\":15270:15288   */\n      swap1\n      pop\n        /* \"#utility.yul\":15151:15294   */\n      swap3\n      swap2\n      pop\n      pop\n      jump\t// out\n        /* \"#utility.yul\":15300:15461   */\n    tag_166:\n        /* \"#utility.yul\":15415:15426   */\n      0x00\n        /* \"#utility.yul\":15452:15455   */\n      dup2\n        /* \"#utility.yul\":15437:15455   */\n      swap1\n      pop\n        /* \"#utility.yul\":15300:15461   */\n      swap3\n      swap2\n      pop\n      pop\n      jump\t// out\n        /* \"#utility.yul\":15467:15635   */\n    tag_179:\n        /* \"#utility.yul\":15550:15561   */\n      0x00\n        /* \"#utility.yul\":15584:15590   */\n      dup3\n        /* \"#utility.yul\":15579:15582   */\n      dup3\n        /* \"#utility.yul\":15572:15591   */\n      mstore\n        /* \"#utility.yul\":15624:15628   */\n      0x20\n        /* \"#utility.yul\":15619:15622   */\n      dup3\n        /* \"#utility.yul\":15615:15629   */\n      add\n        /* \"#utility.yul\":15600:15629   */\n      swap1\n      pop\n        /* \"#utility.yul\":15467:15635   */\n      swap3\n      swap2\n      pop\n      pop\n      jump\t// out\n        /* \"#utility.yul\":15641:15810   */\n    tag_188:\n        /* \"#utility.yul\":15725:15736   */\n      0x00\n        /* \"#utility.yul\":15759:15765   */\n      dup3\n        /* \"#utility.yul\":15754:15757   */\n      dup3\n        /* \"#utility.yul\":15747:15766   */\n      mstore\n        /* \"#utility.yul\":15799:15803   */\n      0x20\n        /* \"#utility.yul\":15794:15797   */\n      dup3\n        /* \"#utility.yul\":15790:15804   */\n      add\n        /* \"#utility.yul\":15775:15804   */\n      swap1\n      pop\n        /* \"#utility.yul\":15641:15810   */\n      swap3\n      swap2\n      pop\n      pop\n      jump\t// out\n        /* \"#utility.yul\":15816:15964   */\n    tag_208:\n        /* \"#utility.yul\":15918:15929   */\n      0x00\n        /* \"#utility.yul\":15955:15958   */\n      dup2\n        /* \"#utility.yul\":15940:15958   */\n      swap1\n      pop\n        /* \"#utility.yul\":15816:15964   */\n      swap3\n      swap2\n      pop\n      pop\n      jump\t// out\n        /* \"#utility.yul\":15970:16060   */\n    tag_278:\n        /* \"#utility.yul\":16020:16027   */\n      0x00\n        /* \"#utility.yul\":16049:16054   */\n      dup2\n        /* \"#utility.yul\":16038:16054   */\n      swap1\n      pop\n        /* \"#utility.yul\":15970:16060   */\n      swap2\n      swap1\n      pop\n      jump\t// out\n        /* \"#utility.yul\":16066:16162   */\n    tag_127:\n        /* \"#utility.yul\":16103:16110   */\n      0x00\n        /* \"#utility.yul\":16132:16156   */\n      tag_281\n        /* \"#utility.yul\":16150:16155   */\n      dup3\n        /* \"#utility.yul\":16132:16156   */\n      tag_282\n      jump\t// in\n    tag_281:\n        /* \"#utility.yul\":16121:16156   */\n      swap1\n      pop\n        /* \"#utility.yul\":16066:16162   */\n      swap2\n      swap1\n      pop\n      jump\t// out\n        /* \"#utility.yul\":16168:16272   */\n    tag_283:\n        /* \"#utility.yul\":16213:16220   */\n      0x00\n        /* \"#utility.yul\":16242:16266   */\n      tag_285\n        /* \"#utility.yul\":16260:16265   */\n      dup3\n        /* \"#utility.yul\":16242:16266   */\n      tag_282\n      jump\t// in\n    tag_285:\n        /* \"#utility.yul\":16231:16266   */\n      swap1\n      pop\n        /* \"#utility.yul\":16168:16272   */\n      swap2\n      swap1\n      pop\n      jump\t// out\n        /* \"#utility.yul\":16278:16404   */\n    tag_282:\n        /* \"#utility.yul\":16315:16322   */\n      0x00\n        /* \"#utility.yul\":16355:16397   */\n      0xffffffffffffffffffffffffffffffffffffffff\n        /* \"#utility.yul\":16348:16353   */\n      dup3\n        /* \"#utility.yul\":16344:16398   */\n      and\n        /* \"#utility.yul\":16333:16398   */\n      swap1\n      pop\n        /* \"#utility.yul\":16278:16404   */\n      swap2\n      swap1\n      pop\n      jump\t// out\n        /* \"#utility.yul\":16410:16487   */\n    tag_218:\n        /* \"#utility.yul\":16447:16454   */\n      0x00\n        /* \"#utility.yul\":16476:16481   */\n      dup2\n        /* \"#utility.yul\":16465:16481   */\n      swap1\n      pop\n        /* \"#utility.yul\":16410:16487   */\n      swap2\n      swap1\n      pop\n      jump\t// out\n        /* \"#utility.yul\":16493:16647   */\n    tag_66:\n        /* \"#utility.yul\":16577:16583   */\n      dup3\n        /* \"#utility.yul\":16572:16575   */\n      dup2\n        /* \"#utility.yul\":16567:16570   */\n      dup4\n        /* \"#utility.yul\":16554:16584   */\n      calldatacopy\n        /* \"#utility.yul\":16639:16640   */\n      0x00\n        /* \"#utility.yul\":16630:16636   */\n      dup4\n        /* \"#utility.yul\":16625:16628   */\n      dup4\n        /* \"#utility.yul\":16621:16637   */\n      add\n        /* \"#utility.yul\":16614:16641   */\n      mstore\n        /* \"#utility.yul\":16493:16647   */\n      pop\n      pop\n      pop\n      jump\t// out\n        /* \"#utility.yul\":16653:16960   */\n    tag_75:\n        /* \"#utility.yul\":16721:16722   */\n      0x00\n        /* \"#utility.yul\":16731:16844   */\n    tag_290:\n        /* \"#utility.yul\":16745:16751   */\n      dup4\n        /* \"#utility.yul\":16742:16743   */\n      dup2\n        /* \"#utility.yul\":16739:16752   */\n      lt\n        /* \"#utility.yul\":16731:16844   */\n      iszero\n      tag_292\n      jumpi\n        /* \"#utility.yul\":16830:16831   */\n      dup1\n        /* \"#utility.yul\":16825:16828   */\n      dup3\n        /* \"#utility.yul\":16821:16832   */\n      add\n        /* \"#utility.yul\":16815:16833   */\n      mload\n        /* \"#utility.yul\":16811:16812   */\n      dup2\n        /* \"#utility.yul\":16806:16809   */\n      dup5\n        /* \"#utility.yul\":16802:16813   */\n      add\n        /* \"#utility.yul\":16795:16834   */\n      mstore\n        /* \"#utility.yul\":16767:16769   */\n      0x20\n        /* \"#utility.yul\":16764:16765   */\n      dup2\n        /* \"#utility.yul\":16760:16770   */\n      add\n        /* \"#utility.yul\":16755:16770   */\n      swap1\n      pop\n        /* \"#utility.yul\":16731:16844   */\n      jump(tag_290)\n    tag_292:\n        /* \"#utility.yul\":16862:16868   */\n      dup4\n        /* \"#utility.yul\":16859:16860   */\n      dup2\n        /* \"#utility.yul\":16856:16869   */\n      gt\n        /* \"#utility.yul\":16853:16954   */\n      iszero\n      tag_293\n      jumpi\n        /* \"#utility.yul\":16942:16943   */\n      0x00\n        /* \"#utility.yul\":16933:16939   */\n      dup5\n        /* \"#utility.yul\":16928:16931   */\n      dup5\n        /* \"#utility.yul\":16924:16940   */\n      add\n        /* \"#utility.yul\":16917:16944   */\n      mstore\n        /* \"#utility.yul\":16853:16954   */\n    tag_293:\n        /* \"#utility.yul\":16702:16960   */\n      pop\n        /* \"#utility.yul\":16653:16960   */\n      pop\n      pop\n      pop\n      jump\t// out\n        /* \"#utility.yul\":16966:17286   */\n    tag_194:\n        /* \"#utility.yul\":17010:17016   */\n      0x00\n        /* \"#utility.yul\":17047:17048   */\n      0x02\n        /* \"#utility.yul\":17041:17045   */\n      dup3\n        /* \"#utility.yul\":17037:17049   */\n      div\n        /* \"#utility.yul\":17027:17049   */\n      swap1\n      pop\n        /* \"#utility.yul\":17094:17095   */\n      0x01\n        /* \"#utility.yul\":17088:17092   */\n      dup3\n        /* \"#utility.yul\":17084:17096   */\n      and\n        /* \"#utility.yul\":17115:17133   */\n      dup1\n        /* \"#utility.yul\":17105:17186   */\n      tag_295\n      jumpi\n        /* \"#utility.yul\":17171:17175   */\n      0x7f\n        /* \"#utility.yul\":17163:17169   */\n      dup3\n        /* \"#utility.yul\":17159:17176   */\n      and\n        /* \"#utility.yul\":17149:17176   */\n      swap2\n      pop\n        /* \"#utility.yul\":17105:17186   */\n    tag_295:\n        /* \"#utility.yul\":17233:17235   */\n      0x20\n        /* \"#utility.yul\":17225:17231   */\n      dup3\n        /* \"#utility.yul\":17222:17236   */\n      lt\n        /* \"#utility.yul\":17202:17220   */\n      dup2\n        /* \"#utility.yul\":17199:17237   */\n      eq\n        /* \"#utility.yul\":17196:17280   */\n      iszero\n      tag_296\n      jumpi\n        /* \"#utility.yul\":17252:17270   */\n      tag_297\n      tag_298\n      jump\t// in\n    tag_297:\n        /* \"#utility.yul\":17196:17280   */\n    tag_296:\n        /* \"#utility.yul\":17017:17286   */\n      pop\n        /* \"#utility.yul\":16966:17286   */\n      swap2\n      swap1\n      pop\n      jump\t// out\n        /* \"#utility.yul\":17292:17458   */\n    tag_299:\n        /* \"#utility.yul\":17361:17366   */\n      0x00\n        /* \"#utility.yul\":17386:17452   */\n      tag_301\n        /* \"#utility.yul\":17417:17451   */\n      tag_302\n        /* \"#utility.yul\":17440:17450   */\n      dup4\n        /* \"#utility.yul\":17417:17451   */\n      tag_303\n      jump\t// in\n    tag_302:\n        /* \"#utility.yul\":17386:17452   */\n      tag_278\n      jump\t// in\n    tag_301:\n        /* \"#utility.yul\":17377:17452   */\n      swap1\n      pop\n        /* \"#utility.yul\":17292:17458   */\n      swap2\n      swap1\n      pop\n      jump\t// out\n        /* \"#utility.yul\":17464:17745   */\n    tag_250:\n        /* \"#utility.yul\":17547:17574   */\n      tag_305\n        /* \"#utility.yul\":17569:17573   */\n      dup3\n        /* \"#utility.yul\":17547:17574   */\n      tag_182\n      jump\t// in\n    tag_305:\n        /* \"#utility.yul\":17539:17545   */\n      dup2\n        /* \"#utility.yul\":17535:17575   */\n      add\n        /* \"#utility.yul\":17677:17683   */\n      dup2\n        /* \"#utility.yul\":17665:17675   */\n      dup2\n        /* \"#utility.yul\":17662:17684   */\n      lt\n        /* \"#utility.yul\":17641:17659   */\n      0xffffffffffffffff\n        /* \"#utility.yul\":17629:17639   */\n      dup3\n        /* \"#utility.yul\":17626:17660   */\n      gt\n        /* \"#utility.yul\":17623:17685   */\n      or\n        /* \"#utility.yul\":17620:17708   */\n      iszero\n      tag_306\n      jumpi\n        /* \"#utility.yul\":17688:17706   */\n      tag_307\n      tag_255\n      jump\t// in\n    tag_307:\n        /* \"#utility.yul\":17620:17708   */\n    tag_306:\n        /* \"#utility.yul\":17728:17738   */\n      dup1\n        /* \"#utility.yul\":17724:17726   */\n      0x40\n        /* \"#utility.yul\":17717:17739   */\n      mstore\n        /* \"#utility.yul\":17507:17745   */\n      pop\n        /* \"#utility.yul\":17464:17745   */\n      pop\n      pop\n      jump\t// out\n        /* \"#utility.yul\":17751:17851   */\n    tag_132:\n        /* \"#utility.yul\":17790:17797   */\n      0x00\n        /* \"#utility.yul\":17819:17845   */\n      tag_309\n        /* \"#utility.yul\":17839:17844   */\n      dup3\n        /* \"#utility.yul\":17819:17845   */\n      tag_310\n      jump\t// in\n    tag_309:\n        /* \"#utility.yul\":17808:17845   */\n      swap1\n      pop\n        /* \"#utility.yul\":17751:17851   */\n      swap2\n      swap1\n      pop\n      jump\t// out\n        /* \"#utility.yul\":17857:17951   */\n    tag_310:\n        /* \"#utility.yul\":17896:17903   */\n      0x00\n        /* \"#utility.yul\":17925:17945   */\n      tag_312\n        /* \"#utility.yul\":17939:17944   */\n      dup3\n        /* \"#utility.yul\":17925:17945   */\n      tag_313\n      jump\t// in\n    tag_312:\n        /* \"#utility.yul\":17914:17945   */\n      swap1\n      pop\n        /* \"#utility.yul\":17857:17951   */\n      swap2\n      swap1\n      pop\n      jump\t// out\n        /* \"#utility.yul\":17957:18036   */\n    tag_228:\n        /* \"#utility.yul\":17996:18003   */\n      0x00\n        /* \"#utility.yul\":18025:18030   */\n      dup2\n        /* \"#utility.yul\":18014:18030   */\n      swap1\n      pop\n        /* \"#utility.yul\":17957:18036   */\n      swap2\n      swap1\n      pop\n      jump\t// out\n        /* \"#utility.yul\":18042:18222   */\n    tag_298:\n        /* \"#utility.yul\":18090:18167   */\n      0x4e487b7100000000000000000000000000000000000000000000000000000000\n        /* \"#utility.yul\":18087:18088   */\n      0x00\n        /* \"#utility.yul\":18080:18168   */\n      mstore\n        /* \"#utility.yul\":18187:18191   */\n      0x22\n        /* \"#utility.yul\":18184:18185   */\n      0x04\n        /* \"#utility.yul\":18177:18192   */\n      mstore\n        /* \"#utility.yul\":18211:18215   */\n      0x24\n        /* \"#utility.yul\":18208:18209   */\n      0x00\n        /* \"#utility.yul\":18201:18216   */\n      revert\n        /* \"#utility.yul\":18228:18408   */\n    tag_255:\n        /* \"#utility.yul\":18276:18353   */\n      0x4e487b7100000000000000000000000000000000000000000000000000000000\n        /* \"#utility.yul\":18273:18274   */\n      0x00\n        /* \"#utility.yul\":18266:18354   */\n      mstore\n        /* \"#utility.yul\":18373:18377   */\n      0x41\n        /* \"#utility.yul\":18370:18371   */\n      0x04\n        /* \"#utility.yul\":18363:18378   */\n      mstore\n        /* \"#utility.yul\":18397:18401   */\n      0x24\n        /* \"#utility.yul\":18394:18395   */\n      0x00\n        /* \"#utility.yul\":18387:18402   */\n      revert\n        /* \"#utility.yul\":18414:18558   */\n    tag_158:\n        /* \"#utility.yul\":18469:18474   */\n      0x00\n        /* \"#utility.yul\":18494:18551   */\n      tag_318\n        /* \"#utility.yul\":18545:18549   */\n      dup3\n        /* \"#utility.yul\":18539:18550   */\n      sload\n        /* \"#utility.yul\":18494:18551   */\n      tag_299\n      jump\t// in\n    tag_318:\n        /* \"#utility.yul\":18485:18551   */\n      swap1\n      pop\n        /* \"#utility.yul\":18414:18558   */\n      swap2\n      swap1\n      pop\n      jump\t// out\n        /* \"#utility.yul\":18564:18681   */\n    tag_84:\n        /* \"#utility.yul\":18673:18674   */\n      0x00\n        /* \"#utility.yul\":18670:18671   */\n      dup1\n        /* \"#utility.yul\":18663:18675   */\n      revert\n        /* \"#utility.yul\":18687:18804   */\n    tag_51:\n        /* \"#utility.yul\":18796:18797   */\n      0x00\n        /* \"#utility.yul\":18793:18794   */\n      dup1\n        /* \"#utility.yul\":18786:18798   */\n      revert\n        /* \"#utility.yul\":18810:18927   */\n    tag_64:\n        /* \"#utility.yul\":18919:18920   */\n      0x00\n        /* \"#utility.yul\":18916:18917   */\n      dup1\n        /* \"#utility.yul\":18909:18921   */\n      revert\n        /* \"#utility.yul\":18933:19050   */\n    tag_105:\n        /* \"#utility.yul\":19042:19043   */\n      0x00\n        /* \"#utility.yul\":19039:19040   */\n      dup1\n        /* \"#utility.yul\":19032:19044   */\n      revert\n        /* \"#utility.yul\":19056:19173   */\n    tag_102:\n        /* \"#utility.yul\":19165:19166   */\n      0x00\n        /* \"#utility.yul\":19162:19163   */\n      dup1\n        /* \"#utility.yul\":19155:19167   */\n      revert\n        /* \"#utility.yul\":19179:19281   */\n    tag_182:\n        /* \"#utility.yul\":19220:19226   */\n      0x00\n        /* \"#utility.yul\":19271:19273   */\n      0x1f\n        /* \"#utility.yul\":19267:19274   */\n      not\n        /* \"#utility.yul\":19262:19264   */\n      0x1f\n        /* \"#utility.yul\":19255:19260   */\n      dup4\n        /* \"#utility.yul\":19251:19265   */\n      add\n        /* \"#utility.yul\":19247:19275   */\n      and\n        /* \"#utility.yul\":19237:19275   */\n      swap1\n      pop\n        /* \"#utility.yul\":19179:19281   */\n      swap2\n      swap1\n      pop\n      jump\t// out\n        /* \"#utility.yul\":19287:19381   */\n    tag_313:\n        /* \"#utility.yul\":19320:19328   */\n      0x00\n        /* \"#utility.yul\":19368:19373   */\n      dup2\n        /* \"#utility.yul\":19364:19366   */\n      0x60\n        /* \"#utility.yul\":19360:19374   */\n      shl\n        /* \"#utility.yul\":19339:19374   */\n      swap1\n      pop\n        /* \"#utility.yul\":19287:19381   */\n      swap2\n      swap1\n      pop\n      jump\t// out\n        /* \"#utility.yul\":19387:19489   */\n    tag_303:\n        /* \"#utility.yul\":19429:19437   */\n      0x00\n        /* \"#utility.yul\":19476:19481   */\n      dup2\n        /* \"#utility.yul\":19473:19474   */\n      0x00\n        /* \"#utility.yul\":19469:19482   */\n      shr\n        /* \"#utility.yul\":19448:19482   */\n      swap1\n      pop\n        /* \"#utility.yul\":19387:19489   */\n      swap2\n      swap1\n      pop\n      jump\t// out\n        /* \"#utility.yul\":19495:19633   */\n    tag_79:\n        /* \"#utility.yul\":19576:19608   */\n      tag_328\n        /* \"#utility.yul\":19602:19607   */\n      dup2\n        /* \"#utility.yul\":19576:19608   */\n      tag_283\n      jump\t// in\n    tag_328:\n        /* \"#utility.yul\":19569:19574   */\n      dup2\n        /* \"#utility.yul\":19566:19609   */\n      eq\n        /* \"#utility.yul\":19556:19627   */\n      tag_329\n      jumpi\n        /* \"#utility.yul\":19623:19624   */\n      0x00\n        /* \"#utility.yul\":19620:19621   */\n      dup1\n        /* \"#utility.yul\":19613:19625   */\n      revert\n        /* \"#utility.yul\":19556:19627   */\n    tag_329:\n        /* \"#utility.yul\":19495:19633   */\n      pop\n      jump\t// out\n        /* \"#utility.yul\":19639:19761   */\n    tag_98:\n        /* \"#utility.yul\":19712:19736   */\n      tag_331\n        /* \"#utility.yul\":19730:19735   */\n      dup2\n        /* \"#utility.yul\":19712:19736   */\n      tag_218\n      jump\t// in\n    tag_331:\n        /* \"#utility.yul\":19705:19710   */\n      dup2\n        /* \"#utility.yul\":19702:19737   */\n      eq\n        /* \"#utility.yul\":19692:19755   */\n      tag_332\n      jumpi\n        /* \"#utility.yul\":19751:19752   */\n      0x00\n        /* \"#utility.yul\":19748:19749   */\n      dup1\n        /* \"#utility.yul\":19741:19753   */\n      revert\n        /* \"#utility.yul\":19692:19755   */\n    tag_332:\n        /* \"#utility.yul\":19639:19761   */\n      pop\n      jump\t// out\n\n    auxdata: 0xa26469706673582212209f9ea969d29da89e6c4b6b3babab069b16701e0f8379167d6e2c75c7698fc0a864736f6c63430008070033\n}\n",
				"bytecode": {
					"linkReferences": {},
					"object": "6080604052600a600055737a58c0be72be218b41c608b7fe7c5bb630736c71600160006101000a81548173ffffffffffffffffffffffffffffffffffffffff021916908373ffffffffffffffffffffffffffffffffffffffff1602179055506040518060400160405280600481526020017f307841410000000000000000000000000000000000000000000000000000000081525060029080519060200190620000ab929190620000f0565b506040518060400160405280600560ff168152602001600660ff168152506003906002620000db92919062000181565b50348015620000e957600080fd5b506200024f565b828054620000fe90620001ea565b90600052602060002090601f0160209004810192826200012257600085556200016e565b82601f106200013d57805160ff19168380011785556200016e565b828001600101855582156200016e579182015b828111156200016d57825182559160200191906001019062000150565b5b5090506200017d9190620001cb565b5090565b8260028101928215620001b8579160200282015b82811115620001b7578251829060ff1690559160200191906001019062000195565b5b509050620001c79190620001cb565b5090565b5b80821115620001e6576000816000905550600101620001cc565b5090565b600060028204905060018216806200020357607f821691505b602082108114156200021a576200021962000220565b5b50919050565b7f4e487b7100000000000000000000000000000000000000000000000000000000600052602260045260246000fd5b610dd1806200025f6000396000f3fe608060405234801561001057600080fd5b50600436106100575760003560e01c806353d9c5061461005c578063bd14598f1461007a578063d1bd363d14610098578063e4f2a84a146100b6578063e5c5e9a3146100d4575b600080fd5b610064610107565b604051610071919061095a565b60405180910390f35b61008261015a565b60405161008f919061095a565b60405180910390f35b6100a06101ad565b6040516100ad919061095a565b60405180910390f35b6100be61026f565b6040516100cb919061095a565b60405180910390f35b6100ee60048036038101906100e99190610526565b610330565b6040516100fe949392919061097c565b60405180910390f35b6060600054600160009054906101000a900473ffffffffffffffffffffffffffffffffffffffff16600260036040516020016101469493929190610910565b604051602081830303815290604052905090565b6060600054600160009054906101000a900473ffffffffffffffffffffffffffffffffffffffff166002600360405160200161019994939291906109c8565b604051602081830303815290604052905090565b60607fe87082f1450a46f8f3150d7bda55bda41a2b08d68abde6797ccc68be30567335600054600160009054906101000a900473ffffffffffffffffffffffffffffffffffffffff166002600360405160240161020d94939291906109c8565b604051602081830303815290604052907bffffffffffffffffffffffffffffffffffffffffffffffffffffffff19166020820180517bffffffffffffffffffffffffffffffffffffffffffffffffffffffff8381831617835250505050905090565b6060600054600160009054906101000a900473ffffffffffffffffffffffffffffffffffffffff16600260036040516024016102ae94939291906109c8565b6040516020818303038152906040527fe87082f1000000000000000000000000000000000000000000000000000000007bffffffffffffffffffffffffffffffffffffffffffffffffffffffff19166020820180517bffffffffffffffffffffffffffffffffffffffffffffffffffffffff8381831617835250505050905090565b600080606061033d610368565b84806020019051810190610351919061056f565b809450819550829650839750505050509193509193565b6040518060400160405280600290602082028036833780820191505090505090565b600061039d61039884610a39565b610a14565b905080828560208602820111156103b7576103b6610d2e565b5b60005b858110156103e757816103cd8882610511565b8452602084019350602083019250506001810190506103ba565b5050509392505050565b60006104046103ff84610a5f565b610a14565b9050828152602081018484840111156104205761041f610d33565b5b61042b848285610bcb565b509392505050565b600061044661044184610a90565b610a14565b90508281526020810184848401111561046257610461610d33565b5b61046d848285610bda565b509392505050565b60008151905061048481610d6d565b92915050565b600082601f83011261049f5761049e610d29565b5b60026104ac84828561038a565b91505092915050565b600082601f8301126104ca576104c9610d29565b5b81356104da8482602086016103f1565b91505092915050565b600082601f8301126104f8576104f7610d29565b5b8151610508848260208601610433565b91505092915050565b60008151905061052081610d84565b92915050565b60006020828403121561053c5761053b610d3d565b5b600082013567ffffffffffffffff81111561055a57610559610d38565b5b610566848285016104b5565b91505092915050565b60008060008060a0858703121561058957610588610d3d565b5b600061059787828801610511565b94505060206105a887828801610475565b935050604085015167ffffffffffffffff8111156105c9576105c8610d38565b5b6105d5878288016104e3565b92505060606105e68782880161048a565b91505092959194509250565b60006105fe83836108cc565b60208301905092915050565b600061061683836108ea565b60208301905092915050565b61062b81610b7d565b82525050565b61064261063d82610b7d565b610c8a565b82525050565b61065181610aea565b61065b8184610b30565b925061066682610ac1565b8060005b8381101561069757815161067e87826105f2565b965061068983610b16565b92505060018101905061066a565b505050505050565b6106a881610af5565b6106b28184610b30565b92506106bd82610acb565b8060005b838110156106f5576106d282610d16565b6106dc87826105f2565b96506106e783610b23565b9250506001810190506106c1565b505050505050565b61070681610af5565b6107108184610b3b565b925061071b82610acb565b8060005b838110156107535761073082610d16565b61073a878261060a565b965061074583610b23565b92505060018101905061071f565b505050505050565b600061076682610b00565b6107708185610b46565b9350610780818560208601610bda565b61078981610d42565b840191505092915050565b600061079f82610b0b565b6107a98185610b57565b93506107b9818560208601610bda565b6107c281610d42565b840191505092915050565b600081546107da81610c0d565b6107e48186610b57565b945060018216600081146107ff576001811461081157610844565b60ff1983168652602086019350610844565b61081a85610ad5565b60005b8381101561083c5781548189015260018201915060208101905061081d565b808801955050505b50505092915050565b6000815461085a81610c0d565b6108648186610b68565b9450600182166000811461087f5760018114610890576108c3565b60ff198316865281860193506108c3565b61089985610ad5565b60005b838110156108bb5781548189015260018201915060208101905061089c565b838801955050505b50505092915050565b6108d581610bc1565b82525050565b6108e481610bc1565b82525050565b6108f381610bc1565b82525050565b61090a61090582610bc1565b610cae565b82525050565b600061091c82876108f9565b60208201915061092c8286610631565b60148201915061093c828561084d565b915061094882846106fd565b60408201915081905095945050505050565b60006020820190508181036000830152610974818461075b565b905092915050565b600060a08201905061099160008301876108db565b61099e6020830186610622565b81810360408301526109b08185610794565b90506109bf6060830184610648565b95945050505050565b600060a0820190506109dd60008301876108db565b6109ea6020830186610622565b81810360408301526109fc81856107cd565b9050610a0b606083018461069f565b95945050505050565b6000610a1e610a2f565b9050610a2a8282610c59565b919050565b6000604051905090565b600067ffffffffffffffff821115610a5457610a53610ce7565b5b602082029050919050565b600067ffffffffffffffff821115610a7a57610a79610ce7565b5b610a8382610d42565b9050602081019050919050565b600067ffffffffffffffff821115610aab57610aaa610ce7565b5b610ab482610d42565b9050602081019050919050565b6000819050919050565b6000819050919050565b60008190508160005260206000209050919050565b600060029050919050565b600060029050919050565b600081519050919050565b600081519050919050565b6000602082019050919050565b6000600182019050919050565b600081905092915050565b600081905092915050565b600082825260208201905092915050565b600082825260208201905092915050565b600081905092915050565b6000819050919050565b6000610b8882610ba1565b9050919050565b6000610b9a82610ba1565b9050919050565b600073ffffffffffffffffffffffffffffffffffffffff82169050919050565b6000819050919050565b82818337600083830152505050565b60005b83811015610bf8578082015181840152602081019050610bdd565b83811115610c07576000848401525b50505050565b60006002820490506001821680610c2557607f821691505b60208210811415610c3957610c38610cb8565b5b50919050565b6000610c52610c4d83610d60565b610b73565b9050919050565b610c6282610d42565b810181811067ffffffffffffffff82111715610c8157610c80610ce7565b5b80604052505050565b6000610c9582610c9c565b9050919050565b6000610ca782610d53565b9050919050565b6000819050919050565b7f4e487b7100000000000000000000000000000000000000000000000000000000600052602260045260246000fd5b7f4e487b7100000000000000000000000000000000000000000000000000000000600052604160045260246000fd5b6000610d228254610c3f565b9050919050565b600080fd5b600080fd5b600080fd5b600080fd5b600080fd5b6000601f19601f8301169050919050565b60008160601b9050919050565b60008160001c9050919050565b610d7681610b8f565b8114610d8157600080fd5b50565b610d8d81610bc1565b8114610d9857600080fd5b5056fea26469706673582212209f9ea969d29da89e6c4b6b3babab069b16701e0f8379167d6e2c75c7698fc0a864736f6c63430008070033",
					"opcodes": "PUSH1 0x80 PUSH1 0x40 MSTORE PUSH1 0xA PUSH1 0x0 SSTORE PUSH20 0x7A58C0BE72BE218B41C608B7FE7C5BB630736C71 PUSH1 0x1 PUSH1 0x0 PUSH2 0x100 EXP DUP2 SLOAD DUP2 PUSH20 0xFFFFFFFFFFFFFFFFFFFFFFFFFFFFFFFFFFFFFFFF MUL NOT AND SWAP1 DUP4 PUSH20 0xFFFFFFFFFFFFFFFFFFFFFFFFFFFFFFFFFFFFFFFF AND MUL OR SWAP1 SSTORE POP PUSH1 0x40 MLOAD DUP1 PUSH1 0x40 ADD PUSH1 0x40 MSTORE DUP1 PUSH1 0x4 DUP2 MSTORE PUSH1 0x20 ADD PUSH32 0x3078414100000000000000000000000000000000000000000000000000000000 DUP2 MSTORE POP PUSH1 0x2 SWAP1 DUP1 MLOAD SWAP1 PUSH1 0x20 ADD SWAP1 PUSH3 0xAB SWAP3 SWAP2 SWAP1 PUSH3 0xF0 JUMP JUMPDEST POP PUSH1 0x40 MLOAD DUP1 PUSH1 0x40 ADD PUSH1 0x40 MSTORE DUP1 PUSH1 0x5 PUSH1 0xFF AND DUP2 MSTORE PUSH1 0x20 ADD PUSH1 0x6 PUSH1 0xFF AND DUP2 MSTORE POP PUSH1 0x3 SWAP1 PUSH1 0x2 PUSH3 0xDB SWAP3 SWAP2 SWAP1 PUSH3 0x181 JUMP JUMPDEST POP CALLVALUE DUP1 ISZERO PUSH3 0xE9 JUMPI PUSH1 0x0 DUP1 REVERT JUMPDEST POP PUSH3 0x24F JUMP JUMPDEST DUP3 DUP1 SLOAD PUSH3 0xFE SWAP1 PUSH3 0x1EA JUMP JUMPDEST SWAP1 PUSH1 0x0 MSTORE PUSH1 0x20 PUSH1 0x0 KECCAK256 SWAP1 PUSH1 0x1F ADD PUSH1 0x20 SWAP1 DIV DUP2 ADD SWAP3 DUP3 PUSH3 0x122 JUMPI PUSH1 0x0 DUP6 SSTORE PUSH3 0x16E JUMP JUMPDEST DUP3 PUSH1 0x1F LT PUSH3 0x13D JUMPI DUP1 MLOAD PUSH1 0xFF NOT AND DUP4 DUP1 ADD OR DUP6 SSTORE PUSH3 0x16E JUMP JUMPDEST DUP3 DUP1 ADD PUSH1 0x1 ADD DUP6 SSTORE DUP3 ISZERO PUSH3 0x16E JUMPI SWAP2 DUP3 ADD JUMPDEST DUP3 DUP2 GT ISZERO PUSH3 0x16D JUMPI DUP3 MLOAD DUP3 SSTORE SWAP2 PUSH1 0x20 ADD SWAP2 SWAP1 PUSH1 0x1 ADD SWAP1 PUSH3 0x150 JUMP JUMPDEST JUMPDEST POP SWAP1 POP PUSH3 0x17D SWAP2 SWAP1 PUSH3 0x1CB JUMP JUMPDEST POP SWAP1 JUMP JUMPDEST DUP3 PUSH1 0x2 DUP2 ADD SWAP3 DUP3 ISZERO PUSH3 0x1B8 JUMPI SWAP2 PUSH1 0x20 MUL DUP3 ADD JUMPDEST DUP3 DUP2 GT ISZERO PUSH3 0x1B7 JUMPI DUP3 MLOAD DUP3 SWAP1 PUSH1 0xFF AND SWAP1 SSTORE SWAP2 PUSH1 0x20 ADD SWAP2 SWAP1 PUSH1 0x1 ADD SWAP1 PUSH3 0x195 JUMP JUMPDEST JUMPDEST POP SWAP1 POP PUSH3 0x1C7 SWAP2 SWAP1 PUSH3 0x1CB JUMP JUMPDEST POP SWAP1 JUMP JUMPDEST JUMPDEST DUP1 DUP3 GT ISZERO PUSH3 0x1E6 JUMPI PUSH1 0x0 DUP2 PUSH1 0x0 SWAP1 SSTORE POP PUSH1 0x1 ADD PUSH3 0x1CC JUMP JUMPDEST POP SWAP1 JUMP JUMPDEST PUSH1 0x0 PUSH1 0x2 DUP3 DIV SWAP1 POP PUSH1 0x1 DUP3 AND DUP1 PUSH3 0x203 JUMPI PUSH1 0x7F DUP3 AND SWAP2 POP JUMPDEST PUSH1 0x20 DUP3 LT DUP2 EQ ISZERO PUSH3 0x21A JUMPI PUSH3 0x219 PUSH3 0x220 JUMP JUMPDEST JUMPDEST POP SWAP2 SWAP1 POP JUMP JUMPDEST PUSH32 0x4E487B7100000000000000000000000000000000000000000000000000000000 PUSH1 0x0 MSTORE PUSH1 0x22 PUSH1 0x4 MSTORE PUSH1 0x24 PUSH1 0x0 REVERT JUMPDEST PUSH2 0xDD1 DUP1 PUSH3 0x25F PUSH1 0x0 CODECOPY PUSH1 0x0 RETURN INVALID PUSH1 0x80 PUSH1 0x40 MSTORE CALLVALUE DUP1 ISZERO PUSH2 0x10 JUMPI PUSH1 0x0 DUP1 REVERT JUMPDEST POP PUSH1 0x4 CALLDATASIZE LT PUSH2 0x57 JUMPI PUSH1 0x0 CALLDATALOAD PUSH1 0xE0 SHR DUP1 PUSH4 0x53D9C506 EQ PUSH2 0x5C JUMPI DUP1 PUSH4 0xBD14598F EQ PUSH2 0x7A JUMPI DUP1 PUSH4 0xD1BD363D EQ PUSH2 0x98 JUMPI DUP1 PUSH4 0xE4F2A84A EQ PUSH2 0xB6 JUMPI DUP1 PUSH4 0xE5C5E9A3 EQ PUSH2 0xD4 JUMPI JUMPDEST PUSH1 0x0 DUP1 REVERT JUMPDEST PUSH2 0x64 PUSH2 0x107 JUMP JUMPDEST PUSH1 0x40 MLOAD PUSH2 0x71 SWAP2 SWAP1 PUSH2 0x95A JUMP JUMPDEST PUSH1 0x40 MLOAD DUP1 SWAP2 SUB SWAP1 RETURN JUMPDEST PUSH2 0x82 PUSH2 0x15A JUMP JUMPDEST PUSH1 0x40 MLOAD PUSH2 0x8F SWAP2 SWAP1 PUSH2 0x95A JUMP JUMPDEST PUSH1 0x40 MLOAD DUP1 SWAP2 SUB SWAP1 RETURN JUMPDEST PUSH2 0xA0 PUSH2 0x1AD JUMP JUMPDEST PUSH1 0x40 MLOAD PUSH2 0xAD SWAP2 SWAP1 PUSH2 0x95A JUMP JUMPDEST PUSH1 0x40 MLOAD DUP1 SWAP2 SUB SWAP1 RETURN JUMPDEST PUSH2 0xBE PUSH2 0x26F JUMP JUMPDEST PUSH1 0x40 MLOAD PUSH2 0xCB SWAP2 SWAP1 PUSH2 0x95A JUMP JUMPDEST PUSH1 0x40 MLOAD DUP1 SWAP2 SUB SWAP1 RETURN JUMPDEST PUSH2 0xEE PUSH1 0x4 DUP1 CALLDATASIZE SUB DUP2 ADD SWAP1 PUSH2 0xE9 SWAP2 SWAP1 PUSH2 0x526 JUMP JUMPDEST PUSH2 0x330 JUMP JUMPDEST PUSH1 0x40 MLOAD PUSH2 0xFE SWAP5 SWAP4 SWAP3 SWAP2 SWAP1 PUSH2 0x97C JUMP JUMPDEST PUSH1 0x40 MLOAD DUP1 SWAP2 SUB SWAP1 RETURN JUMPDEST PUSH1 0x60 PUSH1 0x0 SLOAD PUSH1 0x1 PUSH1 0x0 SWAP1 SLOAD SWAP1 PUSH2 0x100 EXP SWAP1 DIV PUSH20 0xFFFFFFFFFFFFFFFFFFFFFFFFFFFFFFFFFFFFFFFF AND PUSH1 0x2 PUSH1 0x3 PUSH1 0x40 MLOAD PUSH1 0x20 ADD PUSH2 0x146 SWAP5 SWAP4 SWAP3 SWAP2 SWAP1 PUSH2 0x910 JUMP JUMPDEST PUSH1 0x40 MLOAD PUSH1 0x20 DUP2 DUP4 SUB SUB DUP2 MSTORE SWAP1 PUSH1 0x40 MSTORE SWAP1 POP SWAP1 JUMP JUMPDEST PUSH1 0x60 PUSH1 0x0 SLOAD PUSH1 0x1 PUSH1 0x0 SWAP1 SLOAD SWAP1 PUSH2 0x100 EXP SWAP1 DIV PUSH20 0xFFFFFFFFFFFFFFFFFFFFFFFFFFFFFFFFFFFFFFFF AND PUSH1 0x2 PUSH1 0x3 PUSH1 0x40 MLOAD PUSH1 0x20 ADD PUSH2 0x199 SWAP5 SWAP4 SWAP3 SWAP2 SWAP1 PUSH2 0x9C8 JUMP JUMPDEST PUSH1 0x40 MLOAD PUSH1 0x20 DUP2 DUP4 SUB SUB DUP2 MSTORE SWAP1 PUSH1 0x40 MSTORE SWAP1 POP SWAP1 JUMP JUMPDEST PUSH1 0x60 PUSH32 0xE87082F1450A46F8F3150D7BDA55BDA41A2B08D68ABDE6797CCC68BE30567335 PUSH1 0x0 SLOAD PUSH1 0x1 PUSH1 0x0 SWAP1 SLOAD SWAP1 PUSH2 0x100 EXP SWAP1 DIV PUSH20 0xFFFFFFFFFFFFFFFFFFFFFFFFFFFFFFFFFFFFFFFF AND PUSH1 0x2 PUSH1 0x3 PUSH1 0x40 MLOAD PUSH1 0x24 ADD PUSH2 0x20D SWAP5 SWAP4 SWAP3 SWAP2 SWAP1 PUSH2 0x9C8 JUMP JUMPDEST PUSH1 0x40 MLOAD PUSH1 0x20 DUP2 DUP4 SUB SUB DUP2 MSTORE SWAP1 PUSH1 0x40 MSTORE SWAP1 PUSH28 0xFFFFFFFFFFFFFFFFFFFFFFFFFFFFFFFFFFFFFFFFFFFFFFFFFFFFFFFF NOT AND PUSH1 0x20 DUP3 ADD DUP1 MLOAD PUSH28 0xFFFFFFFFFFFFFFFFFFFFFFFFFFFFFFFFFFFFFFFFFFFFFFFFFFFFFFFF DUP4 DUP2 DUP4 AND OR DUP4 MSTORE POP POP POP POP SWAP1 POP SWAP1 JUMP JUMPDEST PUSH1 0x60 PUSH1 0x0 SLOAD PUSH1 0x1 PUSH1 0x0 SWAP1 SLOAD SWAP1 PUSH2 0x100 EXP SWAP1 DIV PUSH20 0xFFFFFFFFFFFFFFFFFFFFFFFFFFFFFFFFFFFFFFFF AND PUSH1 0x2 PUSH1 0x3 PUSH1 0x40 MLOAD PUSH1 0x24 ADD PUSH2 0x2AE SWAP5 SWAP4 SWAP3 SWAP2 SWAP1 PUSH2 0x9C8 JUMP JUMPDEST PUSH1 0x40 MLOAD PUSH1 0x20 DUP2 DUP4 SUB SUB DUP2 MSTORE SWAP1 PUSH1 0x40 MSTORE PUSH32 0xE87082F100000000000000000000000000000000000000000000000000000000 PUSH28 0xFFFFFFFFFFFFFFFFFFFFFFFFFFFFFFFFFFFFFFFFFFFFFFFFFFFFFFFF NOT AND PUSH1 0x20 DUP3 ADD DUP1 MLOAD PUSH28 0xFFFFFFFFFFFFFFFFFFFFFFFFFFFFFFFFFFFFFFFFFFFFFFFFFFFFFFFF DUP4 DUP2 DUP4 AND OR DUP4 MSTORE POP POP POP POP SWAP1 POP SWAP1 JUMP JUMPDEST PUSH1 0x0 DUP1 PUSH1 0x60 PUSH2 0x33D PUSH2 0x368 JUMP JUMPDEST DUP5 DUP1 PUSH1 0x20 ADD SWAP1 MLOAD DUP2 ADD SWAP1 PUSH2 0x351 SWAP2 SWAP1 PUSH2 0x56F JUMP JUMPDEST DUP1 SWAP5 POP DUP2 SWAP6 POP DUP3 SWAP7 POP DUP4 SWAP8 POP POP POP POP POP SWAP2 SWAP4 POP SWAP2 SWAP4 JUMP JUMPDEST PUSH1 0x40 MLOAD DUP1 PUSH1 0x40 ADD PUSH1 0x40 MSTORE DUP1 PUSH1 0x2 SWAP1 PUSH1 0x20 DUP3 MUL DUP1 CALLDATASIZE DUP4 CALLDATACOPY DUP1 DUP3 ADD SWAP2 POP POP SWAP1 POP POP SWAP1 JUMP JUMPDEST PUSH1 0x0 PUSH2 0x39D PUSH2 0x398 DUP5 PUSH2 0xA39 JUMP JUMPDEST PUSH2 0xA14 JUMP JUMPDEST SWAP1 POP DUP1 DUP3 DUP6 PUSH1 0x20 DUP7 MUL DUP3 ADD GT ISZERO PUSH2 0x3B7 JUMPI PUSH2 0x3B6 PUSH2 0xD2E JUMP JUMPDEST JUMPDEST PUSH1 0x0 JUMPDEST DUP6 DUP2 LT ISZERO PUSH2 0x3E7 JUMPI DUP2 PUSH2 0x3CD DUP9 DUP3 PUSH2 0x511 JUMP JUMPDEST DUP5 MSTORE PUSH1 0x20 DUP5 ADD SWAP4 POP PUSH1 0x20 DUP4 ADD SWAP3 POP POP PUSH1 0x1 DUP2 ADD SWAP1 POP PUSH2 0x3BA JUMP JUMPDEST POP POP POP SWAP4 SWAP3 POP POP POP JUMP JUMPDEST PUSH1 0x0 PUSH2 0x404 PUSH2 0x3FF DUP5 PUSH2 0xA5F JUMP JUMPDEST PUSH2 0xA14 JUMP JUMPDEST SWAP1 POP DUP3 DUP2 MSTORE PUSH1 0x20 DUP2 ADD DUP5 DUP5 DUP5 ADD GT ISZERO PUSH2 0x420 JUMPI PUSH2 0x41F PUSH2 0xD33 JUMP JUMPDEST JUMPDEST PUSH2 0x42B DUP5 DUP3 DUP6 PUSH2 0xBCB JUMP JUMPDEST POP SWAP4 SWAP3 POP POP POP JUMP JUMPDEST PUSH1 0x0 PUSH2 0x446 PUSH2 0x441 DUP5 PUSH2 0xA90 JUMP JUMPDEST PUSH2 0xA14 JUMP JUMPDEST SWAP1 POP DUP3 DUP2 MSTORE PUSH1 0x20 DUP2 ADD DUP5 DUP5 DUP5 ADD GT ISZERO PUSH2 0x462 JUMPI PUSH2 0x461 PUSH2 0xD33 JUMP JUMPDEST JUMPDEST PUSH2 0x46D DUP5 DUP3 DUP6 PUSH2 0xBDA JUMP JUMPDEST POP SWAP4 SWAP3 POP POP POP JUMP JUMPDEST PUSH1 0x0 DUP2 MLOAD SWAP1 POP PUSH2 0x484 DUP2 PUSH2 0xD6D JUMP JUMPDEST SWAP3 SWAP2 POP POP JUMP JUMPDEST PUSH1 0x0 DUP3 PUSH1 0x1F DUP4 ADD SLT PUSH2 0x49F JUMPI PUSH2 0x49E PUSH2 0xD29 JUMP JUMPDEST JUMPDEST PUSH1 0x2 PUSH2 0x4AC DUP5 DUP3 DUP6 PUSH2 0x38A JUMP JUMPDEST SWAP2 POP POP SWAP3 SWAP2 POP POP JUMP JUMPDEST PUSH1 0x0 DUP3 PUSH1 0x1F DUP4 ADD SLT PUSH2 0x4CA JUMPI PUSH2 0x4C9 PUSH2 0xD29 JUMP JUMPDEST JUMPDEST DUP2 CALLDATALOAD PUSH2 0x4DA DUP5 DUP3 PUSH1 0x20 DUP7 ADD PUSH2 0x3F1 JUMP JUMPDEST SWAP2 POP POP SWAP3 SWAP2 POP POP JUMP JUMPDEST PUSH1 0x0 DUP3 PUSH1 0x1F DUP4 ADD SLT PUSH2 0x4F8 JUMPI PUSH2 0x4F7 PUSH2 0xD29 JUMP JUMPDEST JUMPDEST DUP2 MLOAD PUSH2 0x508 DUP5 DUP3 PUSH1 0x20 DUP7 ADD PUSH2 0x433 JUMP JUMPDEST SWAP2 POP POP SWAP3 SWAP2 POP POP JUMP JUMPDEST PUSH1 0x0 DUP2 MLOAD SWAP1 POP PUSH2 0x520 DUP2 PUSH2 0xD84 JUMP JUMPDEST SWAP3 SWAP2 POP POP JUMP JUMPDEST PUSH1 0x0 PUSH1 0x20 DUP3 DUP5 SUB SLT ISZERO PUSH2 0x53C JUMPI PUSH2 0x53B PUSH2 0xD3D JUMP JUMPDEST JUMPDEST PUSH1 0x0 DUP3 ADD CALLDATALOAD PUSH8 0xFFFFFFFFFFFFFFFF DUP2 GT ISZERO PUSH2 0x55A JUMPI PUSH2 0x559 PUSH2 0xD38 JUMP JUMPDEST JUMPDEST PUSH2 0x566 DUP5 DUP3 DUP6 ADD PUSH2 0x4B5 JUMP JUMPDEST SWAP2 POP POP SWAP3 SWAP2 POP POP JUMP JUMPDEST PUSH1 0x0 DUP1 PUSH1 0x0 DUP1 PUSH1 0xA0 DUP6 DUP8 SUB SLT ISZERO PUSH2 0x589 JUMPI PUSH2 0x588 PUSH2 0xD3D JUMP JUMPDEST JUMPDEST PUSH1 0x0 PUSH2 0x597 DUP8 DUP3 DUP9 ADD PUSH2 0x511 JUMP JUMPDEST SWAP5 POP POP PUSH1 0x20 PUSH2 0x5A8 DUP8 DUP3 DUP9 ADD PUSH2 0x475 JUMP JUMPDEST SWAP4 POP POP PUSH1 0x40 DUP6 ADD MLOAD PUSH8 0xFFFFFFFFFFFFFFFF DUP2 GT ISZERO PUSH2 0x5C9 JUMPI PUSH2 0x5C8 PUSH2 0xD38 JUMP JUMPDEST JUMPDEST PUSH2 0x5D5 DUP8 DUP3 DUP9 ADD PUSH2 0x4E3 JUMP JUMPDEST SWAP3 POP POP PUSH1 0x60 PUSH2 0x5E6 DUP8 DUP3 DUP9 ADD PUSH2 0x48A JUMP JUMPDEST SWAP2 POP POP SWAP3 SWAP6 SWAP2 SWAP5 POP SWAP3 POP JUMP JUMPDEST PUSH1 0x0 PUSH2 0x5FE DUP4 DUP4 PUSH2 0x8CC JUMP JUMPDEST PUSH1 0x20 DUP4 ADD SWAP1 POP SWAP3 SWAP2 POP POP JUMP JUMPDEST PUSH1 0x0 PUSH2 0x616 DUP4 DUP4 PUSH2 0x8EA JUMP JUMPDEST PUSH1 0x20 DUP4 ADD SWAP1 POP SWAP3 SWAP2 POP POP JUMP JUMPDEST PUSH2 0x62B DUP2 PUSH2 0xB7D JUMP JUMPDEST DUP3 MSTORE POP POP JUMP JUMPDEST PUSH2 0x642 PUSH2 0x63D DUP3 PUSH2 0xB7D JUMP JUMPDEST PUSH2 0xC8A JUMP JUMPDEST DUP3 MSTORE POP POP JUMP JUMPDEST PUSH2 0x651 DUP2 PUSH2 0xAEA JUMP JUMPDEST PUSH2 0x65B DUP2 DUP5 PUSH2 0xB30 JUMP JUMPDEST SWAP3 POP PUSH2 0x666 DUP3 PUSH2 0xAC1 JUMP JUMPDEST DUP1 PUSH1 0x0 JUMPDEST DUP4 DUP2 LT ISZERO PUSH2 0x697 JUMPI DUP2 MLOAD PUSH2 0x67E DUP8 DUP3 PUSH2 0x5F2 JUMP JUMPDEST SWAP7 POP PUSH2 0x689 DUP4 PUSH2 0xB16 JUMP JUMPDEST SWAP3 POP POP PUSH1 0x1 DUP2 ADD SWAP1 POP PUSH2 0x66A JUMP JUMPDEST POP POP POP POP POP POP JUMP JUMPDEST PUSH2 0x6A8 DUP2 PUSH2 0xAF5 JUMP JUMPDEST PUSH2 0x6B2 DUP2 DUP5 PUSH2 0xB30 JUMP JUMPDEST SWAP3 POP PUSH2 0x6BD DUP3 PUSH2 0xACB JUMP JUMPDEST DUP1 PUSH1 0x0 JUMPDEST DUP4 DUP2 LT ISZERO PUSH2 0x6F5 JUMPI PUSH2 0x6D2 DUP3 PUSH2 0xD16 JUMP JUMPDEST PUSH2 0x6DC DUP8 DUP3 PUSH2 0x5F2 JUMP JUMPDEST SWAP7 POP PUSH2 0x6E7 DUP4 PUSH2 0xB23 JUMP JUMPDEST SWAP3 POP POP PUSH1 0x1 DUP2 ADD SWAP1 POP PUSH2 0x6C1 JUMP JUMPDEST POP POP POP POP POP POP JUMP JUMPDEST PUSH2 0x706 DUP2 PUSH2 0xAF5 JUMP JUMPDEST PUSH2 0x710 DUP2 DUP5 PUSH2 0xB3B JUMP JUMPDEST SWAP3 POP PUSH2 0x71B DUP3 PUSH2 0xACB JUMP JUMPDEST DUP1 PUSH1 0x0 JUMPDEST DUP4 DUP2 LT ISZERO PUSH2 0x753 JUMPI PUSH2 0x730 DUP3 PUSH2 0xD16 JUMP JUMPDEST PUSH2 0x73A DUP8 DUP3 PUSH2 0x60A JUMP JUMPDEST SWAP7 POP PUSH2 0x745 DUP4 PUSH2 0xB23 JUMP JUMPDEST SWAP3 POP POP PUSH1 0x1 DUP2 ADD SWAP1 POP PUSH2 0x71F JUMP JUMPDEST POP POP POP POP POP POP JUMP JUMPDEST PUSH1 0x0 PUSH2 0x766 DUP3 PUSH2 0xB00 JUMP JUMPDEST PUSH2 0x770 DUP2 DUP6 PUSH2 0xB46 JUMP JUMPDEST SWAP4 POP PUSH2 0x780 DUP2 DUP6 PUSH1 0x20 DUP7 ADD PUSH2 0xBDA JUMP JUMPDEST PUSH2 0x789 DUP2 PUSH2 0xD42 JUMP JUMPDEST DUP5 ADD SWAP2 POP POP SWAP3 SWAP2 POP POP JUMP JUMPDEST PUSH1 0x0 PUSH2 0x79F DUP3 PUSH2 0xB0B JUMP JUMPDEST PUSH2 0x7A9 DUP2 DUP6 PUSH2 0xB57 JUMP JUMPDEST SWAP4 POP PUSH2 0x7B9 DUP2 DUP6 PUSH1 0x20 DUP7 ADD PUSH2 0xBDA JUMP JUMPDEST PUSH2 0x7C2 DUP2 PUSH2 0xD42 JUMP JUMPDEST DUP5 ADD SWAP2 POP POP SWAP3 SWAP2 POP POP JUMP JUMPDEST PUSH1 0x0 DUP2 SLOAD PUSH2 0x7DA DUP2 PUSH2 0xC0D JUMP JUMPDEST PUSH2 0x7E4 DUP2 DUP7 PUSH2 0xB57 JUMP JUMPDEST SWAP5 POP PUSH1 0x1 DUP3 AND PUSH1 0x0 DUP2 EQ PUSH2 0x7FF JUMPI PUSH1 0x1 DUP2 EQ PUSH2 0x811 JUMPI PUSH2 0x844 JUMP JUMPDEST PUSH1 0xFF NOT DUP4 AND DUP7 MSTORE PUSH1 0x20 DUP7 ADD SWAP4 POP PUSH2 0x844 JUMP JUMPDEST PUSH2 0x81A DUP6 PUSH2 0xAD5 JUMP JUMPDEST PUSH1 0x0 JUMPDEST DUP4 DUP2 LT ISZERO PUSH2 0x83C JUMPI DUP2 SLOAD DUP2 DUP10 ADD MSTORE PUSH1 0x1 DUP3 ADD SWAP2 POP PUSH1 0x20 DUP2 ADD SWAP1 POP PUSH2 0x81D JUMP JUMPDEST DUP1 DUP9 ADD SWAP6 POP POP POP JUMPDEST POP POP POP SWAP3 SWAP2 POP POP JUMP JUMPDEST PUSH1 0x0 DUP2 SLOAD PUSH2 0x85A DUP2 PUSH2 0xC0D JUMP JUMPDEST PUSH2 0x864 DUP2 DUP7 PUSH2 0xB68 JUMP JUMPDEST SWAP5 POP PUSH1 0x1 DUP3 AND PUSH1 0x0 DUP2 EQ PUSH2 0x87F JUMPI PUSH1 0x1 DUP2 EQ PUSH2 0x890 JUMPI PUSH2 0x8C3 JUMP JUMPDEST PUSH1 0xFF NOT DUP4 AND DUP7 MSTORE DUP2 DUP7 ADD SWAP4 POP PUSH2 0x8C3 JUMP JUMPDEST PUSH2 0x899 DUP6 PUSH2 0xAD5 JUMP JUMPDEST PUSH1 0x0 JUMPDEST DUP4 DUP2 LT ISZERO PUSH2 0x8BB JUMPI DUP2 SLOAD DUP2 DUP10 ADD MSTORE PUSH1 0x1 DUP3 ADD SWAP2 POP PUSH1 0x20 DUP2 ADD SWAP1 POP PUSH2 0x89C JUMP JUMPDEST DUP4 DUP9 ADD SWAP6 POP POP POP JUMPDEST POP POP POP SWAP3 SWAP2 POP POP JUMP JUMPDEST PUSH2 0x8D5 DUP2 PUSH2 0xBC1 JUMP JUMPDEST DUP3 MSTORE POP POP JUMP JUMPDEST PUSH2 0x8E4 DUP2 PUSH2 0xBC1 JUMP JUMPDEST DUP3 MSTORE POP POP JUMP JUMPDEST PUSH2 0x8F3 DUP2 PUSH2 0xBC1 JUMP JUMPDEST DUP3 MSTORE POP POP JUMP JUMPDEST PUSH2 0x90A PUSH2 0x905 DUP3 PUSH2 0xBC1 JUMP JUMPDEST PUSH2 0xCAE JUMP JUMPDEST DUP3 MSTORE POP POP JUMP JUMPDEST PUSH1 0x0 PUSH2 0x91C DUP3 DUP8 PUSH2 0x8F9 JUMP JUMPDEST PUSH1 0x20 DUP3 ADD SWAP2 POP PUSH2 0x92C DUP3 DUP7 PUSH2 0x631 JUMP JUMPDEST PUSH1 0x14 DUP3 ADD SWAP2 POP PUSH2 0x93C DUP3 DUP6 PUSH2 0x84D JUMP JUMPDEST SWAP2 POP PUSH2 0x948 DUP3 DUP5 PUSH2 0x6FD JUMP JUMPDEST PUSH1 0x40 DUP3 ADD SWAP2 POP DUP2 SWAP1 POP SWAP6 SWAP5 POP POP POP POP POP JUMP JUMPDEST PUSH1 0x0 PUSH1 0x20 DUP3 ADD SWAP1 POP DUP2 DUP2 SUB PUSH1 0x0 DUP4 ADD MSTORE PUSH2 0x974 DUP2 DUP5 PUSH2 0x75B JUMP JUMPDEST SWAP1 POP SWAP3 SWAP2 POP POP JUMP JUMPDEST PUSH1 0x0 PUSH1 0xA0 DUP3 ADD SWAP1 POP PUSH2 0x991 PUSH1 0x0 DUP4 ADD DUP8 PUSH2 0x8DB JUMP JUMPDEST PUSH2 0x99E PUSH1 0x20 DUP4 ADD DUP7 PUSH2 0x622 JUMP JUMPDEST DUP2 DUP2 SUB PUSH1 0x40 DUP4 ADD MSTORE PUSH2 0x9B0 DUP2 DUP6 PUSH2 0x794 JUMP JUMPDEST SWAP1 POP PUSH2 0x9BF PUSH1 0x60 DUP4 ADD DUP5 PUSH2 0x648 JUMP JUMPDEST SWAP6 SWAP5 POP POP POP POP POP JUMP JUMPDEST PUSH1 0x0 PUSH1 0xA0 DUP3 ADD SWAP1 POP PUSH2 0x9DD PUSH1 0x0 DUP4 ADD DUP8 PUSH2 0x8DB JUMP JUMPDEST PUSH2 0x9EA PUSH1 0x20 DUP4 ADD DUP7 PUSH2 0x622 JUMP JUMPDEST DUP2 DUP2 SUB PUSH1 0x40 DUP4 ADD MSTORE PUSH2 0x9FC DUP2 DUP6 PUSH2 0x7CD JUMP JUMPDEST SWAP1 POP PUSH2 0xA0B PUSH1 0x60 DUP4 ADD DUP5 PUSH2 0x69F JUMP JUMPDEST SWAP6 SWAP5 POP POP POP POP POP JUMP JUMPDEST PUSH1 0x0 PUSH2 0xA1E PUSH2 0xA2F JUMP JUMPDEST SWAP1 POP PUSH2 0xA2A DUP3 DUP3 PUSH2 0xC59 JUMP JUMPDEST SWAP2 SWAP1 POP JUMP JUMPDEST PUSH1 0x0 PUSH1 0x40 MLOAD SWAP1 POP SWAP1 JUMP JUMPDEST PUSH1 0x0 PUSH8 0xFFFFFFFFFFFFFFFF DUP3 GT ISZERO PUSH2 0xA54 JUMPI PUSH2 0xA53 PUSH2 0xCE7 JUMP JUMPDEST JUMPDEST PUSH1 0x20 DUP3 MUL SWAP1 POP SWAP2 SWAP1 POP JUMP JUMPDEST PUSH1 0x0 PUSH8 0xFFFFFFFFFFFFFFFF DUP3 GT ISZERO PUSH2 0xA7A JUMPI PUSH2 0xA79 PUSH2 0xCE7 JUMP JUMPDEST JUMPDEST PUSH2 0xA83 DUP3 PUSH2 0xD42 JUMP JUMPDEST SWAP1 POP PUSH1 0x20 DUP2 ADD SWAP1 POP SWAP2 SWAP1 POP JUMP JUMPDEST PUSH1 0x0 PUSH8 0xFFFFFFFFFFFFFFFF DUP3 GT ISZERO PUSH2 0xAAB JUMPI PUSH2 0xAAA PUSH2 0xCE7 JUMP JUMPDEST JUMPDEST PUSH2 0xAB4 DUP3 PUSH2 0xD42 JUMP JUMPDEST SWAP1 POP PUSH1 0x20 DUP2 ADD SWAP1 POP SWAP2 SWAP1 POP JUMP JUMPDEST PUSH1 0x0 DUP2 SWAP1 POP SWAP2 SWAP1 POP JUMP JUMPDEST PUSH1 0x0 DUP2 SWAP1 POP SWAP2 SWAP1 POP JUMP JUMPDEST PUSH1 0x0 DUP2 SWAP1 POP DUP2 PUSH1 0x0 MSTORE PUSH1 0x20 PUSH1 0x0 KECCAK256 SWAP1 POP SWAP2 SWAP1 POP JUMP JUMPDEST PUSH1 0x0 PUSH1 0x2 SWAP1 POP SWAP2 SWAP1 POP JUMP JUMPDEST PUSH1 0x0 PUSH1 0x2 SWAP1 POP SWAP2 SWAP1 POP JUMP JUMPDEST PUSH1 0x0 DUP2 MLOAD SWAP1 POP SWAP2 SWAP1 POP JUMP JUMPDEST PUSH1 0x0 DUP2 MLOAD SWAP1 POP SWAP2 SWAP1 POP JUMP JUMPDEST PUSH1 0x0 PUSH1 0x20 DUP3 ADD SWAP1 POP SWAP2 SWAP1 POP JUMP JUMPDEST PUSH1 0x0 PUSH1 0x1 DUP3 ADD SWAP1 POP SWAP2 SWAP1 POP JUMP JUMPDEST PUSH1 0x0 DUP2 SWAP1 POP SWAP3 SWAP2 POP POP JUMP JUMPDEST PUSH1 0x0 DUP2 SWAP1 POP SWAP3 SWAP2 POP POP JUMP JUMPDEST PUSH1 0x0 DUP3 DUP3 MSTORE PUSH1 0x20 DUP3 ADD SWAP1 POP SWAP3 SWAP2 POP POP JUMP JUMPDEST PUSH1 0x0 DUP3 DUP3 MSTORE PUSH1 0x20 DUP3 ADD SWAP1 POP SWAP3 SWAP2 POP POP JUMP JUMPDEST PUSH1 0x0 DUP2 SWAP1 POP SWAP3 SWAP2 POP POP JUMP JUMPDEST PUSH1 0x0 DUP2 SWAP1 POP SWAP2 SWAP1 POP JUMP JUMPDEST PUSH1 0x0 PUSH2 0xB88 DUP3 PUSH2 0xBA1 JUMP JUMPDEST SWAP1 POP SWAP2 SWAP1 POP JUMP JUMPDEST PUSH1 0x0 PUSH2 0xB9A DUP3 PUSH2 0xBA1 JUMP JUMPDEST SWAP1 POP SWAP2 SWAP1 POP JUMP JUMPDEST PUSH1 0x0 PUSH20 0xFFFFFFFFFFFFFFFFFFFFFFFFFFFFFFFFFFFFFFFF DUP3 AND SWAP1 POP SWAP2 SWAP1 POP JUMP JUMPDEST PUSH1 0x0 DUP2 SWAP1 POP SWAP2 SWAP1 POP JUMP JUMPDEST DUP3 DUP2 DUP4 CALLDATACOPY PUSH1 0x0 DUP4 DUP4 ADD MSTORE POP POP POP JUMP JUMPDEST PUSH1 0x0 JUMPDEST DUP4 DUP2 LT ISZERO PUSH2 0xBF8 JUMPI DUP1 DUP3 ADD MLOAD DUP2 DUP5 ADD MSTORE PUSH1 0x20 DUP2 ADD SWAP1 POP PUSH2 0xBDD JUMP JUMPDEST DUP4 DUP2 GT ISZERO PUSH2 0xC07 JUMPI PUSH1 0x0 DUP5 DUP5 ADD MSTORE JUMPDEST POP POP POP POP JUMP JUMPDEST PUSH1 0x0 PUSH1 0x2 DUP3 DIV SWAP1 POP PUSH1 0x1 DUP3 AND DUP1 PUSH2 0xC25 JUMPI PUSH1 0x7F DUP3 AND SWAP2 POP JUMPDEST PUSH1 0x20 DUP3 LT DUP2 EQ ISZERO PUSH2 0xC39 JUMPI PUSH2 0xC38 PUSH2 0xCB8 JUMP JUMPDEST JUMPDEST POP SWAP2 SWAP1 POP JUMP JUMPDEST PUSH1 0x0 PUSH2 0xC52 PUSH2 0xC4D DUP4 PUSH2 0xD60 JUMP JUMPDEST PUSH2 0xB73 JUMP JUMPDEST SWAP1 POP SWAP2 SWAP1 POP JUMP JUMPDEST PUSH2 0xC62 DUP3 PUSH2 0xD42 JUMP JUMPDEST DUP2 ADD DUP2 DUP2 LT PUSH8 0xFFFFFFFFFFFFFFFF DUP3 GT OR ISZERO PUSH2 0xC81 JUMPI PUSH2 0xC80 PUSH2 0xCE7 JUMP JUMPDEST JUMPDEST DUP1 PUSH1 0x40 MSTORE POP POP POP JUMP JUMPDEST PUSH1 0x0 PUSH2 0xC95 DUP3 PUSH2 0xC9C JUMP JUMPDEST SWAP1 POP SWAP2 SWAP1 POP JUMP JUMPDEST PUSH1 0x0 PUSH2 0xCA7 DUP3 PUSH2 0xD53 JUMP JUMPDEST SWAP1 POP SWAP2 SWAP1 POP JUMP JUMPDEST PUSH1 0x0 DUP2 SWAP1 POP SWAP2 SWAP1 POP JUMP JUMPDEST PUSH32 0x4E487B7100000000000000000000000000000000000000000000000000000000 PUSH1 0x0 MSTORE PUSH1 0x22 PUSH1 0x4 MSTORE PUSH1 0x24 PUSH1 0x0 REVERT JUMPDEST PUSH32 0x4E487B7100000000000000000000000000000000000000000000000000000000 PUSH1 0x0 MSTORE PUSH1 0x41 PUSH1 0x4 MSTORE PUSH1 0x24 PUSH1 0x0 REVERT JUMPDEST PUSH1 0x0 PUSH2 0xD22 DUP3 SLOAD PUSH2 0xC3F JUMP JUMPDEST SWAP1 POP SWAP2 SWAP1 POP JUMP JUMPDEST PUSH1 0x0 DUP1 REVERT JUMPDEST PUSH1 0x0 DUP1 REVERT JUMPDEST PUSH1 0x0 DUP1 REVERT JUMPDEST PUSH1 0x0 DUP1 REVERT JUMPDEST PUSH1 0x0 DUP1 REVERT JUMPDEST PUSH1 0x0 PUSH1 0x1F NOT PUSH1 0x1F DUP4 ADD AND SWAP1 POP SWAP2 SWAP1 POP JUMP JUMPDEST PUSH1 0x0 DUP2 PUSH1 0x60 SHL SWAP1 POP SWAP2 SWAP1 POP JUMP JUMPDEST PUSH1 0x0 DUP2 PUSH1 0x0 SHR SWAP1 POP SWAP2 SWAP1 POP JUMP JUMPDEST PUSH2 0xD76 DUP2 PUSH2 0xB8F JUMP JUMPDEST DUP2 EQ PUSH2 0xD81 JUMPI PUSH1 0x0 DUP1 REVERT JUMPDEST POP JUMP JUMPDEST PUSH2 0xD8D DUP2 PUSH2 0xBC1 JUMP JUMPDEST DUP2 EQ PUSH2 0xD98 JUMPI PUSH1 0x0 DUP1 REVERT JUMPDEST POP JUMP INVALID LOG2 PUSH5 0x6970667358 0x22 SLT KECCAK256 SWAP16 SWAP15 0xA9 PUSH10 0xD29DA89E6C4B6B3BABAB MOD SWAP12 AND PUSH17 0x1E0F8379167D6E2C75C7698FC0A864736F PUSH13 0x63430008070033000000000000 "
				},
				"gasEstimates": {
					"creation": {
						"codeDepositCost": "707400",
						"executionCost": "infinite",
						"totalCost": "infinite"
					},
					"external": {
						"decode(bytes)": "infinite",
						"encode()": "infinite",
						"encodePacked()": "infinite",
						"encodeWithSelector()": "infinite",
						"encodeWithSignature()": "infinite"
					}
				},
				"methodIdentifiers": {
					"decode(bytes)": "e5c5e9a3",
					"encode()": "bd14598f",
					"encodePacked()": "53d9c506",
					"encodeWithSelector()": "d1bd363d",
					"encodeWithSignature()": "e4f2a84a"
				}
			},
			"storageLayout": {
				"storage": [
					{
						"astId": 4,
						"contract": "ABI编码.sol:test",
						"label": "x",
						"offset": 0,
						"slot": "0",
						"type": "t_uint256"
					},
					{
						"astId": 7,
						"contract": "ABI编码.sol:test",
						"label": "addr",
						"offset": 0,
						"slot": "1",
						"type": "t_address"
					},
					{
						"astId": 10,
						"contract": "ABI编码.sol:test",
						"label": "name",
						"offset": 0,
						"slot": "2",
						"type": "t_string_storage"
					},
					{
						"astId": 17,
						"contract": "ABI编码.sol:test",
						"label": "array",
						"offset": 0,
						"slot": "3",
						"type": "t_array(t_uint256)2_storage"
					}
				],
				"types": {
					"t_address": {
						"encoding": "inplace",
						"label": "address",
						"numberOfBytes": "20"
					},
					"t_array(t_uint256)2_storage": {
						"base": "t_uint256",
						"encoding": "inplace",
						"label": "uint256[2]",
						"numberOfBytes": "64"
					},
					"t_string_storage": {
						"encoding": "bytes",
						"label": "string",
						"numberOfBytes": "32"
					},
					"t_uint256": {
						"encoding": "inplace",
						"label": "uint256",
						"numberOfBytes": "32"
					}
				}
			},
			"userdoc": {
				"kind": "user",
				"methods": {},
				"version": 1
			}
		}
	}
}