{
	"receive-fallback.sol": {
		"ab": {
			"abi": [
				{
					"anonymous": false,
					"inputs": [
						{
							"indexed": false,
							"internalType": "address",
							"name": "Sender",
							"type": "address"
						},
						{
							"indexed": false,
							"internalType": "uint256",
							"name": "Value",
							"type": "uint256"
						}
					],
					"name": "Received",
					"type": "event"
				},
				{
					"anonymous": false,
					"inputs": [
						{
							"indexed": false,
							"internalType": "address",
							"name": "Sender",
							"type": "address"
						},
						{
							"indexed": false,
							"internalType": "uint256",
							"name": "Value",
							"type": "uint256"
						},
						{
							"indexed": false,
							"internalType": "bytes",
							"name": "data",
							"type": "bytes"
						}
					],
					"name": "fallbackCalled",
					"type": "event"
				},
				{
					"stateMutability": "payable",
					"type": "fallback"
				},
				{
					"inputs": [],
					"name": "getBalance",
					"outputs": [
						{
							"internalType": "uint256",
							"name": "",
							"type": "uint256"
						}
					],
					"stateMutability": "view",
					"type": "function"
				},
				{
					"inputs": [
						{
							"internalType": "address payable",
							"name": "_address",
							"type": "address"
						}
					],
					"name": "withdraw",
					"outputs": [],
					"stateMutability": "nonpayable",
					"type": "function"
				},
				{
					"stateMutability": "payable",
					"type": "receive"
				}
			],
			"devdoc": {
				"kind": "dev",
				"methods": {},
				"version": 1
			},
			"evm": {
				"assembly": "    /* \"receive-fallback.sol\":87:804  contract ab{... */\n  mstore(0x40, 0x80)\n  callvalue\n  dup1\n  iszero\n  tag_1\n  jumpi\n  0x00\n  dup1\n  revert\ntag_1:\n  pop\n  dataSize(sub_0)\n  dup1\n  dataOffset(sub_0)\n  0x00\n  codecopy\n  0x00\n  return\nstop\n\nsub_0: assembly {\n        /* \"receive-fallback.sol\":87:804  contract ab{... */\n      mstore(0x40, 0x80)\n      jumpi(tag_1, lt(calldatasize, 0x04))\n      shr(0xe0, calldataload(0x00))\n      dup1\n      0x12065fe0\n      eq\n      tag_3\n      jumpi\n      dup1\n      0x51cff8d9\n      eq\n      tag_4\n      jumpi\n      jump(tag_2)\n    tag_1:\n      jumpi(tag_2, calldatasize)\n        /* \"receive-fallback.sol\":337:368  Received(msg.sender, msg.value) */\n      0x88a5966d370b9919b20f3e2c13ff65706f196a4e32cc2c12bf57088f88525874\n        /* \"receive-fallback.sol\":346:356  msg.sender */\n      caller\n        /* \"receive-fallback.sol\":358:367  msg.value */\n      callvalue\n        /* \"receive-fallback.sol\":337:368  Received(msg.sender, msg.value) */\n      mload(0x40)\n      tag_7\n      swap3\n      swap2\n      swap1\n      tag_8\n      jump\t// in\n    tag_7:\n      mload(0x40)\n      dup1\n      swap2\n      sub\n      swap1\n      log1\n        /* \"receive-fallback.sol\":87:804  contract ab{... */\n      stop\n    tag_2:\n        /* \"receive-fallback.sol\":444:491  fallbackCalled(msg.sender, msg.value, msg.data) */\n      0x7bf8121d238f1338d4842c396807cbe93f5a2396e2b3cad1639735997867b1f5\n        /* \"receive-fallback.sol\":459:469  msg.sender */\n      caller\n        /* \"receive-fallback.sol\":471:480  msg.value */\n      callvalue\n        /* \"receive-fallback.sol\":482:490  msg.data */\n      0x00\n      calldatasize\n        /* \"receive-fallback.sol\":444:491  fallbackCalled(msg.sender, msg.value, msg.data) */\n      mload(0x40)\n      tag_11\n      swap5\n      swap4\n      swap3\n      swap2\n      swap1\n      tag_12\n      jump\t// in\n    tag_11:\n      mload(0x40)\n      dup1\n      swap2\n      sub\n      swap1\n      log1\n        /* \"receive-fallback.sol\":87:804  contract ab{... */\n      stop\n        /* \"receive-fallback.sol\":549:644  function getBalance() view public returns(uint) {... */\n    tag_3:\n      callvalue\n      dup1\n      iszero\n      tag_13\n      jumpi\n      0x00\n      dup1\n      revert\n    tag_13:\n      pop\n      tag_14\n      tag_15\n      jump\t// in\n    tag_14:\n      mload(0x40)\n      tag_16\n      swap2\n      swap1\n      tag_17\n      jump\t// in\n    tag_16:\n      mload(0x40)\n      dup1\n      swap2\n      sub\n      swap1\n      return\n        /* \"receive-fallback.sol\":685:795  function withdraw(address payable _address) public {... */\n    tag_4:\n      callvalue\n      dup1\n      iszero\n      tag_18\n      jumpi\n      0x00\n      dup1\n      revert\n    tag_18:\n      pop\n      tag_19\n      0x04\n      dup1\n      calldatasize\n      sub\n      dup2\n      add\n      swap1\n      tag_20\n      swap2\n      swap1\n      tag_21\n      jump\t// in\n    tag_20:\n      tag_22\n      jump\t// in\n    tag_19:\n      stop\n        /* \"receive-fallback.sol\":549:644  function getBalance() view public returns(uint) {... */\n    tag_15:\n        /* \"receive-fallback.sol\":591:595  uint */\n      0x00\n        /* \"receive-fallback.sol\":615:636  address(this).balance */\n      selfbalance\n        /* \"receive-fallback.sol\":608:636  return address(this).balance */\n      swap1\n      pop\n        /* \"receive-fallback.sol\":549:644  function getBalance() view public returns(uint) {... */\n      swap1\n      jump\t// out\n        /* \"receive-fallback.sol\":685:795  function withdraw(address payable _address) public {... */\n    tag_22:\n        /* \"receive-fallback.sol\":747:755  _address */\n      dup1\n        /* \"receive-fallback.sol\":747:764  _address.transfer */\n      0xffffffffffffffffffffffffffffffffffffffff\n      and\n        /* \"receive-fallback.sol\":747:787  _address.transfer(address(this).balance) */\n      0x08fc\n        /* \"receive-fallback.sol\":765:786  address(this).balance */\n      selfbalance\n        /* \"receive-fallback.sol\":747:787  _address.transfer(address(this).balance) */\n      swap1\n      dup2\n      iszero\n      mul\n      swap1\n      mload(0x40)\n      0x00\n      mload(0x40)\n      dup1\n      dup4\n      sub\n      dup2\n      dup6\n      dup9\n      dup9\n      call\n      swap4\n      pop\n      pop\n      pop\n      pop\n      iszero\n      dup1\n      iszero\n      tag_26\n      jumpi\n      returndatasize\n      0x00\n      dup1\n      returndatacopy\n      revert(0x00, returndatasize)\n    tag_26:\n      pop\n        /* \"receive-fallback.sol\":685:795  function withdraw(address payable _address) public {... */\n      pop\n      jump\t// out\n        /* \"#utility.yul\":7:133   */\n    tag_27:\n        /* \"#utility.yul\":44:51   */\n      0x00\n        /* \"#utility.yul\":84:126   */\n      0xffffffffffffffffffffffffffffffffffffffff\n        /* \"#utility.yul\":77:82   */\n      dup3\n        /* \"#utility.yul\":73:127   */\n      and\n        /* \"#utility.yul\":62:127   */\n      swap1\n      pop\n        /* \"#utility.yul\":7:133   */\n      swap2\n      swap1\n      pop\n      jump\t// out\n        /* \"#utility.yul\":139:235   */\n    tag_28:\n        /* \"#utility.yul\":176:183   */\n      0x00\n        /* \"#utility.yul\":205:229   */\n      tag_45\n        /* \"#utility.yul\":223:228   */\n      dup3\n        /* \"#utility.yul\":205:229   */\n      tag_27\n      jump\t// in\n    tag_45:\n        /* \"#utility.yul\":194:229   */\n      swap1\n      pop\n        /* \"#utility.yul\":139:235   */\n      swap2\n      swap1\n      pop\n      jump\t// out\n        /* \"#utility.yul\":241:359   */\n    tag_29:\n        /* \"#utility.yul\":328:352   */\n      tag_47\n        /* \"#utility.yul\":346:351   */\n      dup2\n        /* \"#utility.yul\":328:352   */\n      tag_28\n      jump\t// in\n    tag_47:\n        /* \"#utility.yul\":323:326   */\n      dup3\n        /* \"#utility.yul\":316:353   */\n      mstore\n        /* \"#utility.yul\":241:359   */\n      pop\n      pop\n      jump\t// out\n        /* \"#utility.yul\":365:442   */\n    tag_30:\n        /* \"#utility.yul\":402:409   */\n      0x00\n        /* \"#utility.yul\":431:436   */\n      dup2\n        /* \"#utility.yul\":420:436   */\n      swap1\n      pop\n        /* \"#utility.yul\":365:442   */\n      swap2\n      swap1\n      pop\n      jump\t// out\n        /* \"#utility.yul\":448:566   */\n    tag_31:\n        /* \"#utility.yul\":535:559   */\n      tag_50\n        /* \"#utility.yul\":553:558   */\n      dup2\n        /* \"#utility.yul\":535:559   */\n      tag_30\n      jump\t// in\n    tag_50:\n        /* \"#utility.yul\":530:533   */\n      dup3\n        /* \"#utility.yul\":523:560   */\n      mstore\n        /* \"#utility.yul\":448:566   */\n      pop\n      pop\n      jump\t// out\n        /* \"#utility.yul\":572:904   */\n    tag_8:\n        /* \"#utility.yul\":693:697   */\n      0x00\n        /* \"#utility.yul\":731:733   */\n      0x40\n        /* \"#utility.yul\":720:729   */\n      dup3\n        /* \"#utility.yul\":716:734   */\n      add\n        /* \"#utility.yul\":708:734   */\n      swap1\n      pop\n        /* \"#utility.yul\":744:815   */\n      tag_52\n        /* \"#utility.yul\":812:813   */\n      0x00\n        /* \"#utility.yul\":801:810   */\n      dup4\n        /* \"#utility.yul\":797:814   */\n      add\n        /* \"#utility.yul\":788:794   */\n      dup6\n        /* \"#utility.yul\":744:815   */\n      tag_29\n      jump\t// in\n    tag_52:\n        /* \"#utility.yul\":825:897   */\n      tag_53\n        /* \"#utility.yul\":893:895   */\n      0x20\n        /* \"#utility.yul\":882:891   */\n      dup4\n        /* \"#utility.yul\":878:896   */\n      add\n        /* \"#utility.yul\":869:875   */\n      dup5\n        /* \"#utility.yul\":825:897   */\n      tag_31\n      jump\t// in\n    tag_53:\n        /* \"#utility.yul\":572:904   */\n      swap4\n      swap3\n      pop\n      pop\n      pop\n      jump\t// out\n        /* \"#utility.yul\":910:1078   */\n    tag_32:\n        /* \"#utility.yul\":993:1004   */\n      0x00\n        /* \"#utility.yul\":1027:1033   */\n      dup3\n        /* \"#utility.yul\":1022:1025   */\n      dup3\n        /* \"#utility.yul\":1015:1034   */\n      mstore\n        /* \"#utility.yul\":1067:1071   */\n      0x20\n        /* \"#utility.yul\":1062:1065   */\n      dup3\n        /* \"#utility.yul\":1058:1072   */\n      add\n        /* \"#utility.yul\":1043:1072   */\n      swap1\n      pop\n        /* \"#utility.yul\":910:1078   */\n      swap3\n      swap2\n      pop\n      pop\n      jump\t// out\n        /* \"#utility.yul\":1084:1230   */\n    tag_33:\n        /* \"#utility.yul\":1181:1187   */\n      dup3\n        /* \"#utility.yul\":1176:1179   */\n      dup2\n        /* \"#utility.yul\":1171:1174   */\n      dup4\n        /* \"#utility.yul\":1158:1188   */\n      calldatacopy\n        /* \"#utility.yul\":1222:1223   */\n      0x00\n        /* \"#utility.yul\":1213:1219   */\n      dup4\n        /* \"#utility.yul\":1208:1211   */\n      dup4\n        /* \"#utility.yul\":1204:1220   */\n      add\n        /* \"#utility.yul\":1197:1224   */\n      mstore\n        /* \"#utility.yul\":1084:1230   */\n      pop\n      pop\n      pop\n      jump\t// out\n        /* \"#utility.yul\":1236:1338   */\n    tag_34:\n        /* \"#utility.yul\":1277:1283   */\n      0x00\n        /* \"#utility.yul\":1328:1330   */\n      0x1f\n        /* \"#utility.yul\":1324:1331   */\n      not\n        /* \"#utility.yul\":1319:1321   */\n      0x1f\n        /* \"#utility.yul\":1312:1317   */\n      dup4\n        /* \"#utility.yul\":1308:1322   */\n      add\n        /* \"#utility.yul\":1304:1332   */\n      and\n        /* \"#utility.yul\":1294:1332   */\n      swap1\n      pop\n        /* \"#utility.yul\":1236:1338   */\n      swap2\n      swap1\n      pop\n      jump\t// out\n        /* \"#utility.yul\":1366:1680   */\n    tag_35:\n        /* \"#utility.yul\":1462:1465   */\n      0x00\n        /* \"#utility.yul\":1483:1553   */\n      tag_58\n        /* \"#utility.yul\":1546:1552   */\n      dup4\n        /* \"#utility.yul\":1541:1544   */\n      dup6\n        /* \"#utility.yul\":1483:1553   */\n      tag_32\n      jump\t// in\n    tag_58:\n        /* \"#utility.yul\":1476:1553   */\n      swap4\n      pop\n        /* \"#utility.yul\":1563:1619   */\n      tag_59\n        /* \"#utility.yul\":1612:1618   */\n      dup4\n        /* \"#utility.yul\":1607:1610   */\n      dup6\n        /* \"#utility.yul\":1600:1605   */\n      dup5\n        /* \"#utility.yul\":1563:1619   */\n      tag_33\n      jump\t// in\n    tag_59:\n        /* \"#utility.yul\":1644:1673   */\n      tag_60\n        /* \"#utility.yul\":1666:1672   */\n      dup4\n        /* \"#utility.yul\":1644:1673   */\n      tag_34\n      jump\t// in\n    tag_60:\n        /* \"#utility.yul\":1639:1642   */\n      dup5\n        /* \"#utility.yul\":1635:1674   */\n      add\n        /* \"#utility.yul\":1628:1674   */\n      swap1\n      pop\n        /* \"#utility.yul\":1366:1680   */\n      swap4\n      swap3\n      pop\n      pop\n      pop\n      jump\t// out\n        /* \"#utility.yul\":1686:2235   */\n    tag_12:\n        /* \"#utility.yul\":1863:1867   */\n      0x00\n        /* \"#utility.yul\":1901:1903   */\n      0x60\n        /* \"#utility.yul\":1890:1899   */\n      dup3\n        /* \"#utility.yul\":1886:1904   */\n      add\n        /* \"#utility.yul\":1878:1904   */\n      swap1\n      pop\n        /* \"#utility.yul\":1914:1985   */\n      tag_62\n        /* \"#utility.yul\":1982:1983   */\n      0x00\n        /* \"#utility.yul\":1971:1980   */\n      dup4\n        /* \"#utility.yul\":1967:1984   */\n      add\n        /* \"#utility.yul\":1958:1964   */\n      dup8\n        /* \"#utility.yul\":1914:1985   */\n      tag_29\n      jump\t// in\n    tag_62:\n        /* \"#utility.yul\":1995:2067   */\n      tag_63\n        /* \"#utility.yul\":2063:2065   */\n      0x20\n        /* \"#utility.yul\":2052:2061   */\n      dup4\n        /* \"#utility.yul\":2048:2066   */\n      add\n        /* \"#utility.yul\":2039:2045   */\n      dup7\n        /* \"#utility.yul\":1995:2067   */\n      tag_31\n      jump\t// in\n    tag_63:\n        /* \"#utility.yul\":2114:2123   */\n      dup2\n        /* \"#utility.yul\":2108:2112   */\n      dup2\n        /* \"#utility.yul\":2104:2124   */\n      sub\n        /* \"#utility.yul\":2099:2101   */\n      0x40\n        /* \"#utility.yul\":2088:2097   */\n      dup4\n        /* \"#utility.yul\":2084:2102   */\n      add\n        /* \"#utility.yul\":2077:2125   */\n      mstore\n        /* \"#utility.yul\":2142:2228   */\n      tag_64\n        /* \"#utility.yul\":2223:2227   */\n      dup2\n        /* \"#utility.yul\":2214:2220   */\n      dup5\n        /* \"#utility.yul\":2206:2212   */\n      dup7\n        /* \"#utility.yul\":2142:2228   */\n      tag_35\n      jump\t// in\n    tag_64:\n        /* \"#utility.yul\":2134:2228   */\n      swap1\n      pop\n        /* \"#utility.yul\":1686:2235   */\n      swap6\n      swap5\n      pop\n      pop\n      pop\n      pop\n      pop\n      jump\t// out\n        /* \"#utility.yul\":2241:2463   */\n    tag_17:\n        /* \"#utility.yul\":2334:2338   */\n      0x00\n        /* \"#utility.yul\":2372:2374   */\n      0x20\n        /* \"#utility.yul\":2361:2370   */\n      dup3\n        /* \"#utility.yul\":2357:2375   */\n      add\n        /* \"#utility.yul\":2349:2375   */\n      swap1\n      pop\n        /* \"#utility.yul\":2385:2456   */\n      tag_66\n        /* \"#utility.yul\":2453:2454   */\n      0x00\n        /* \"#utility.yul\":2442:2451   */\n      dup4\n        /* \"#utility.yul\":2438:2455   */\n      add\n        /* \"#utility.yul\":2429:2435   */\n      dup5\n        /* \"#utility.yul\":2385:2456   */\n      tag_31\n      jump\t// in\n    tag_66:\n        /* \"#utility.yul\":2241:2463   */\n      swap3\n      swap2\n      pop\n      pop\n      jump\t// out\n        /* \"#utility.yul\":2550:2667   */\n    tag_37:\n        /* \"#utility.yul\":2659:2660   */\n      0x00\n        /* \"#utility.yul\":2656:2657   */\n      dup1\n        /* \"#utility.yul\":2649:2661   */\n      revert\n        /* \"#utility.yul\":2796:2900   */\n    tag_39:\n        /* \"#utility.yul\":2841:2848   */\n      0x00\n        /* \"#utility.yul\":2870:2894   */\n      tag_71\n        /* \"#utility.yul\":2888:2893   */\n      dup3\n        /* \"#utility.yul\":2870:2894   */\n      tag_27\n      jump\t// in\n    tag_71:\n        /* \"#utility.yul\":2859:2894   */\n      swap1\n      pop\n        /* \"#utility.yul\":2796:2900   */\n      swap2\n      swap1\n      pop\n      jump\t// out\n        /* \"#utility.yul\":2906:3044   */\n    tag_40:\n        /* \"#utility.yul\":2987:3019   */\n      tag_73\n        /* \"#utility.yul\":3013:3018   */\n      dup2\n        /* \"#utility.yul\":2987:3019   */\n      tag_39\n      jump\t// in\n    tag_73:\n        /* \"#utility.yul\":2980:2985   */\n      dup2\n        /* \"#utility.yul\":2977:3020   */\n      eq\n        /* \"#utility.yul\":2967:3038   */\n      tag_74\n      jumpi\n        /* \"#utility.yul\":3034:3035   */\n      0x00\n        /* \"#utility.yul\":3031:3032   */\n      dup1\n        /* \"#utility.yul\":3024:3036   */\n      revert\n        /* \"#utility.yul\":2967:3038   */\n    tag_74:\n        /* \"#utility.yul\":2906:3044   */\n      pop\n      jump\t// out\n        /* \"#utility.yul\":3050:3205   */\n    tag_41:\n        /* \"#utility.yul\":3104:3109   */\n      0x00\n        /* \"#utility.yul\":3142:3148   */\n      dup2\n        /* \"#utility.yul\":3129:3149   */\n      calldataload\n        /* \"#utility.yul\":3120:3149   */\n      swap1\n      pop\n        /* \"#utility.yul\":3158:3199   */\n      tag_76\n        /* \"#utility.yul\":3193:3198   */\n      dup2\n        /* \"#utility.yul\":3158:3199   */\n      tag_40\n      jump\t// in\n    tag_76:\n        /* \"#utility.yul\":3050:3205   */\n      swap3\n      swap2\n      pop\n      pop\n      jump\t// out\n        /* \"#utility.yul\":3211:3556   */\n    tag_21:\n        /* \"#utility.yul\":3278:3284   */\n      0x00\n        /* \"#utility.yul\":3327:3329   */\n      0x20\n        /* \"#utility.yul\":3315:3324   */\n      dup3\n        /* \"#utility.yul\":3306:3313   */\n      dup5\n        /* \"#utility.yul\":3302:3325   */\n      sub\n        /* \"#utility.yul\":3298:3330   */\n      slt\n        /* \"#utility.yul\":3295:3414   */\n      iszero\n      tag_78\n      jumpi\n        /* \"#utility.yul\":3333:3412   */\n      tag_79\n      tag_37\n      jump\t// in\n    tag_79:\n        /* \"#utility.yul\":3295:3414   */\n    tag_78:\n        /* \"#utility.yul\":3453:3454   */\n      0x00\n        /* \"#utility.yul\":3478:3539   */\n      tag_80\n        /* \"#utility.yul\":3531:3538   */\n      dup5\n        /* \"#utility.yul\":3522:3528   */\n      dup3\n        /* \"#utility.yul\":3511:3520   */\n      dup6\n        /* \"#utility.yul\":3507:3529   */\n      add\n        /* \"#utility.yul\":3478:3539   */\n      tag_41\n      jump\t// in\n    tag_80:\n        /* \"#utility.yul\":3468:3539   */\n      swap2\n      pop\n        /* \"#utility.yul\":3424:3549   */\n      pop\n        /* \"#utility.yul\":3211:3556   */\n      swap3\n      swap2\n      pop\n      pop\n      jump\t// out\n\n    auxdata: 0xa264697066735822122080e00a8804039a028ad0f9d319592ad48d15df23efcef0a6fc76045737e6048164736f6c63430008110033\n}\n",
				"bytecode": {
					"linkReferences": {},
					"object": "608060405234801561001057600080fd5b50610335806100206000396000f3fe60806040526004361061002d5760003560e01c806312065fe0146100ad57806351cff8d9146100d85761006d565b3661006d577f88a5966d370b9919b20f3e2c13ff65706f196a4e32cc2c12bf57088f8852587433346040516100639291906101ad565b60405180910390a1005b7f7bf8121d238f1338d4842c396807cbe93f5a2396e2b3cad1639735997867b1f533346000366040516100a39493929190610234565b60405180910390a1005b3480156100b957600080fd5b506100c2610101565b6040516100cf9190610274565b60405180910390f35b3480156100e457600080fd5b506100ff60048036038101906100fa91906102d2565b610109565b005b600047905090565b8073ffffffffffffffffffffffffffffffffffffffff166108fc479081150290604051600060405180830381858888f1935050505015801561014f573d6000803e3d6000fd5b5050565b600073ffffffffffffffffffffffffffffffffffffffff82169050919050565b600061017e82610153565b9050919050565b61018e81610173565b82525050565b6000819050919050565b6101a781610194565b82525050565b60006040820190506101c26000830185610185565b6101cf602083018461019e565b9392505050565b600082825260208201905092915050565b82818337600083830152505050565b6000601f19601f8301169050919050565b600061021383856101d6565b93506102208385846101e7565b610229836101f6565b840190509392505050565b60006060820190506102496000830187610185565b610256602083018661019e565b8181036040830152610269818486610207565b905095945050505050565b6000602082019050610289600083018461019e565b92915050565b600080fd5b600061029f82610153565b9050919050565b6102af81610294565b81146102ba57600080fd5b50565b6000813590506102cc816102a6565b92915050565b6000602082840312156102e8576102e761028f565b5b60006102f6848285016102bd565b9150509291505056fea264697066735822122080e00a8804039a028ad0f9d319592ad48d15df23efcef0a6fc76045737e6048164736f6c63430008110033",
					"opcodes": "PUSH1 0x80 PUSH1 0x40 MSTORE CALLVALUE DUP1 ISZERO PUSH2 0x10 JUMPI PUSH1 0x0 DUP1 REVERT JUMPDEST POP PUSH2 0x335 DUP1 PUSH2 0x20 PUSH1 0x0 CODECOPY PUSH1 0x0 RETURN INVALID PUSH1 0x80 PUSH1 0x40 MSTORE PUSH1 0x4 CALLDATASIZE LT PUSH2 0x2D JUMPI PUSH1 0x0 CALLDATALOAD PUSH1 0xE0 SHR DUP1 PUSH4 0x12065FE0 EQ PUSH2 0xAD JUMPI DUP1 PUSH4 0x51CFF8D9 EQ PUSH2 0xD8 JUMPI PUSH2 0x6D JUMP JUMPDEST CALLDATASIZE PUSH2 0x6D JUMPI PUSH32 0x88A5966D370B9919B20F3E2C13FF65706F196A4E32CC2C12BF57088F88525874 CALLER CALLVALUE PUSH1 0x40 MLOAD PUSH2 0x63 SWAP3 SWAP2 SWAP1 PUSH2 0x1AD JUMP JUMPDEST PUSH1 0x40 MLOAD DUP1 SWAP2 SUB SWAP1 LOG1 STOP JUMPDEST PUSH32 0x7BF8121D238F1338D4842C396807CBE93F5A2396E2B3CAD1639735997867B1F5 CALLER CALLVALUE PUSH1 0x0 CALLDATASIZE PUSH1 0x40 MLOAD PUSH2 0xA3 SWAP5 SWAP4 SWAP3 SWAP2 SWAP1 PUSH2 0x234 JUMP JUMPDEST PUSH1 0x40 MLOAD DUP1 SWAP2 SUB SWAP1 LOG1 STOP JUMPDEST CALLVALUE DUP1 ISZERO PUSH2 0xB9 JUMPI PUSH1 0x0 DUP1 REVERT JUMPDEST POP PUSH2 0xC2 PUSH2 0x101 JUMP JUMPDEST PUSH1 0x40 MLOAD PUSH2 0xCF SWAP2 SWAP1 PUSH2 0x274 JUMP JUMPDEST PUSH1 0x40 MLOAD DUP1 SWAP2 SUB SWAP1 RETURN JUMPDEST CALLVALUE DUP1 ISZERO PUSH2 0xE4 JUMPI PUSH1 0x0 DUP1 REVERT JUMPDEST POP PUSH2 0xFF PUSH1 0x4 DUP1 CALLDATASIZE SUB DUP2 ADD SWAP1 PUSH2 0xFA SWAP2 SWAP1 PUSH2 0x2D2 JUMP JUMPDEST PUSH2 0x109 JUMP JUMPDEST STOP JUMPDEST PUSH1 0x0 SELFBALANCE SWAP1 POP SWAP1 JUMP JUMPDEST DUP1 PUSH20 0xFFFFFFFFFFFFFFFFFFFFFFFFFFFFFFFFFFFFFFFF AND PUSH2 0x8FC SELFBALANCE SWAP1 DUP2 ISZERO MUL SWAP1 PUSH1 0x40 MLOAD PUSH1 0x0 PUSH1 0x40 MLOAD DUP1 DUP4 SUB DUP2 DUP6 DUP9 DUP9 CALL SWAP4 POP POP POP POP ISZERO DUP1 ISZERO PUSH2 0x14F JUMPI RETURNDATASIZE PUSH1 0x0 DUP1 RETURNDATACOPY RETURNDATASIZE PUSH1 0x0 REVERT JUMPDEST POP POP JUMP JUMPDEST PUSH1 0x0 PUSH20 0xFFFFFFFFFFFFFFFFFFFFFFFFFFFFFFFFFFFFFFFF DUP3 AND SWAP1 POP SWAP2 SWAP1 POP JUMP JUMPDEST PUSH1 0x0 PUSH2 0x17E DUP3 PUSH2 0x153 JUMP JUMPDEST SWAP1 POP SWAP2 SWAP1 POP JUMP JUMPDEST PUSH2 0x18E DUP2 PUSH2 0x173 JUMP JUMPDEST DUP3 MSTORE POP POP JUMP JUMPDEST PUSH1 0x0 DUP2 SWAP1 POP SWAP2 SWAP1 POP JUMP JUMPDEST PUSH2 0x1A7 DUP2 PUSH2 0x194 JUMP JUMPDEST DUP3 MSTORE POP POP JUMP JUMPDEST PUSH1 0x0 PUSH1 0x40 DUP3 ADD SWAP1 POP PUSH2 0x1C2 PUSH1 0x0 DUP4 ADD DUP6 PUSH2 0x185 JUMP JUMPDEST PUSH2 0x1CF PUSH1 0x20 DUP4 ADD DUP5 PUSH2 0x19E JUMP JUMPDEST SWAP4 SWAP3 POP POP POP JUMP JUMPDEST PUSH1 0x0 DUP3 DUP3 MSTORE PUSH1 0x20 DUP3 ADD SWAP1 POP SWAP3 SWAP2 POP POP JUMP JUMPDEST DUP3 DUP2 DUP4 CALLDATACOPY PUSH1 0x0 DUP4 DUP4 ADD MSTORE POP POP POP JUMP JUMPDEST PUSH1 0x0 PUSH1 0x1F NOT PUSH1 0x1F DUP4 ADD AND SWAP1 POP SWAP2 SWAP1 POP JUMP JUMPDEST PUSH1 0x0 PUSH2 0x213 DUP4 DUP6 PUSH2 0x1D6 JUMP JUMPDEST SWAP4 POP PUSH2 0x220 DUP4 DUP6 DUP5 PUSH2 0x1E7 JUMP JUMPDEST PUSH2 0x229 DUP4 PUSH2 0x1F6 JUMP JUMPDEST DUP5 ADD SWAP1 POP SWAP4 SWAP3 POP POP POP JUMP JUMPDEST PUSH1 0x0 PUSH1 0x60 DUP3 ADD SWAP1 POP PUSH2 0x249 PUSH1 0x0 DUP4 ADD DUP8 PUSH2 0x185 JUMP JUMPDEST PUSH2 0x256 PUSH1 0x20 DUP4 ADD DUP7 PUSH2 0x19E JUMP JUMPDEST DUP2 DUP2 SUB PUSH1 0x40 DUP4 ADD MSTORE PUSH2 0x269 DUP2 DUP5 DUP7 PUSH2 0x207 JUMP JUMPDEST SWAP1 POP SWAP6 SWAP5 POP POP POP POP POP JUMP JUMPDEST PUSH1 0x0 PUSH1 0x20 DUP3 ADD SWAP1 POP PUSH2 0x289 PUSH1 0x0 DUP4 ADD DUP5 PUSH2 0x19E JUMP JUMPDEST SWAP3 SWAP2 POP POP JUMP JUMPDEST PUSH1 0x0 DUP1 REVERT JUMPDEST PUSH1 0x0 PUSH2 0x29F DUP3 PUSH2 0x153 JUMP JUMPDEST SWAP1 POP SWAP2 SWAP1 POP JUMP JUMPDEST PUSH2 0x2AF DUP2 PUSH2 0x294 JUMP JUMPDEST DUP2 EQ PUSH2 0x2BA JUMPI PUSH1 0x0 DUP1 REVERT JUMPDEST POP JUMP JUMPDEST PUSH1 0x0 DUP2 CALLDATALOAD SWAP1 POP PUSH2 0x2CC DUP2 PUSH2 0x2A6 JUMP JUMPDEST SWAP3 SWAP2 POP POP JUMP JUMPDEST PUSH1 0x0 PUSH1 0x20 DUP3 DUP5 SUB SLT ISZERO PUSH2 0x2E8 JUMPI PUSH2 0x2E7 PUSH2 0x28F JUMP JUMPDEST JUMPDEST PUSH1 0x0 PUSH2 0x2F6 DUP5 DUP3 DUP6 ADD PUSH2 0x2BD JUMP JUMPDEST SWAP2 POP POP SWAP3 SWAP2 POP POP JUMP INVALID LOG2 PUSH5 0x6970667358 0x22 SLT KECCAK256 DUP1 0xE0 EXP DUP9 DIV SUB SWAP11 MUL DUP11 0xD0 0xF9 0xD3 NOT MSIZE 0x2A 0xD4 DUP14 ISZERO 0xDF 0x23 0xEF 0xCE CREATE 0xA6 0xFC PUSH23 0x45737E6048164736F6C63430008110033000000000000 "
				},
				"gasEstimates": {
					"creation": {
						"codeDepositCost": "164200",
						"executionCost": "208",
						"totalCost": "164408"
					},
					"external": {
						"": "infinite",
						"getBalance()": "317",
						"withdraw(address)": "infinite"
					}
				},
				"methodIdentifiers": {
					"getBalance()": "12065fe0",
					"withdraw(address)": "51cff8d9"
				}
			},
			"storageLayout": {
				"storage": [],
				"types": null
			},
			"userdoc": {
				"kind": "user",
				"methods": {},
				"version": 1
			}
		}
	}
}