{
	"data": {
		"bytecode": {
			"linkReferences": {},
			"object": "608060405234801561001057600080fd5b506108a1806100206000396000f3fe608060405234801561001057600080fd5b506004361061004c5760003560e01c8063512c91df14610051578063823ac37314610081578063918a15cf146100b157806397aba7f9146100e1575b600080fd5b61006b60048036038101906100669190610323565b610111565b60405161007891906105aa565b60405180910390f35b61009b600480360381019061009691906103ec565b610144565b6040516100a8919061058f565b60405180910390f35b6100cb60048036038101906100c69190610363565b610187565b6040516100d891906105aa565b60405180910390f35b6100fb60048036038101906100f69190610390565b6101b7565b6040516101089190610574565b60405180910390f35b60008282604051602001610126929190610522565b60405160208183030381529060405280519060200120905092915050565b60008173ffffffffffffffffffffffffffffffffffffffff1661016785856101b7565b73ffffffffffffffffffffffffffffffffffffffff161490509392505050565b60008160405160200161019a919061054e565b604051602081830303815290604052805190602001209050919050565b600060418251146101fd576040517f08c379a00000000000000000000000000000000000000000000000000000000081526004016101f49061060a565b60405180910390fd5b60008060006020850151925060408501519150606085015160001a90506001868285856040516000815260200160405260405161023d94939291906105c5565b6020604051602081039080840390855afa15801561025f573d6000803e3d6000fd5b50505060206040510351935050505092915050565b60006102876102828461064f565b61062a565b9050828152602081018484840111156102a3576102a26107a7565b5b6102ae8482856106fb565b509392505050565b6000813590506102c581610826565b92915050565b6000813590506102da8161083d565b92915050565b600082601f8301126102f5576102f46107a2565b5b8135610305848260208601610274565b91505092915050565b60008135905061031d81610854565b92915050565b6000806040838503121561033a576103396107b1565b5b6000610348858286016102b6565b92505060206103598582860161030e565b9150509250929050565b600060208284031215610379576103786107b1565b5b6000610387848285016102cb565b91505092915050565b600080604083850312156103a7576103a66107b1565b5b60006103b5858286016102cb565b925050602083013567ffffffffffffffff8111156103d6576103d56107ac565b5b6103e2858286016102e0565b9150509250929050565b600080600060608486031215610405576104046107b1565b5b6000610413868287016102cb565b935050602084013567ffffffffffffffff811115610434576104336107ac565b5b610440868287016102e0565b9250506040610451868287016102b6565b9150509250925092565b6104648161069c565b82525050565b61047b6104768261069c565b61073b565b82525050565b61048a816106ae565b82525050565b610499816106ba565b82525050565b6104b06104ab826106ba565b61074d565b82525050565b60006104c3601c83610691565b91506104ce826107d4565b601c82019050919050565b60006104e6601883610680565b91506104f1826107fd565b602082019050919050565b61050d610508826106e4565b610769565b82525050565b61051c816106ee565b82525050565b600061052e828561046a565b60148201915061053e82846104fc565b6020820191508190509392505050565b6000610559826104b6565b9150610565828461049f565b60208201915081905092915050565b6000602082019050610589600083018461045b565b92915050565b60006020820190506105a46000830184610481565b92915050565b60006020820190506105bf6000830184610490565b92915050565b60006080820190506105da6000830187610490565b6105e76020830186610513565b6105f46040830185610490565b6106016060830184610490565b95945050505050565b60006020820190508181036000830152610623816104d9565b9050919050565b6000610634610645565b9050610640828261070a565b919050565b6000604051905090565b600067ffffffffffffffff82111561066a57610669610773565b5b610673826107b6565b9050602081019050919050565b600082825260208201905092915050565b600081905092915050565b60006106a7826106c4565b9050919050565b60008115159050919050565b6000819050919050565b600073ffffffffffffffffffffffffffffffffffffffff82169050919050565b6000819050919050565b600060ff82169050919050565b82818337600083830152505050565b610713826107b6565b810181811067ffffffffffffffff8211171561073257610731610773565b5b80604052505050565b600061074682610757565b9050919050565b6000819050919050565b6000610762826107c7565b9050919050565b6000819050919050565b7f4e487b7100000000000000000000000000000000000000000000000000000000600052604160045260246000fd5b600080fd5b600080fd5b600080fd5b600080fd5b6000601f19601f8301169050919050565b60008160601b9050919050565b7f19457468657265756d205369676e6564204d6573736167653a0a333200000000600082015250565b7f696e76616c6964207369676e6174757265206c656e6774680000000000000000600082015250565b61082f8161069c565b811461083a57600080fd5b50565b610846816106ba565b811461085157600080fd5b50565b61085d816106e4565b811461086857600080fd5b5056fea26469706673582212201b726c84a4ee05fd49d61fb0fb992b469c19b9bde2cbca252f087f407fae72bf64736f6c63430008070033",
			"opcodes": "PUSH1 0x80 PUSH1 0x40 MSTORE CALLVALUE DUP1 ISZERO PUSH2 0x10 JUMPI PUSH1 0x0 DUP1 REVERT JUMPDEST POP PUSH2 0x8A1 DUP1 PUSH2 0x20 PUSH1 0x0 CODECOPY PUSH1 0x0 RETURN INVALID PUSH1 0x80 PUSH1 0x40 MSTORE CALLVALUE DUP1 ISZERO PUSH2 0x10 JUMPI PUSH1 0x0 DUP1 REVERT JUMPDEST POP PUSH1 0x4 CALLDATASIZE LT PUSH2 0x4C JUMPI PUSH1 0x0 CALLDATALOAD PUSH1 0xE0 SHR DUP1 PUSH4 0x512C91DF EQ PUSH2 0x51 JUMPI DUP1 PUSH4 0x823AC373 EQ PUSH2 0x81 JUMPI DUP1 PUSH4 0x918A15CF EQ PUSH2 0xB1 JUMPI DUP1 PUSH4 0x97ABA7F9 EQ PUSH2 0xE1 JUMPI JUMPDEST PUSH1 0x0 DUP1 REVERT JUMPDEST PUSH2 0x6B PUSH1 0x4 DUP1 CALLDATASIZE SUB DUP2 ADD SWAP1 PUSH2 0x66 SWAP2 SWAP1 PUSH2 0x323 JUMP JUMPDEST PUSH2 0x111 JUMP JUMPDEST PUSH1 0x40 MLOAD PUSH2 0x78 SWAP2 SWAP1 PUSH2 0x5AA JUMP JUMPDEST PUSH1 0x40 MLOAD DUP1 SWAP2 SUB SWAP1 RETURN JUMPDEST PUSH2 0x9B PUSH1 0x4 DUP1 CALLDATASIZE SUB DUP2 ADD SWAP1 PUSH2 0x96 SWAP2 SWAP1 PUSH2 0x3EC JUMP JUMPDEST PUSH2 0x144 JUMP JUMPDEST PUSH1 0x40 MLOAD PUSH2 0xA8 SWAP2 SWAP1 PUSH2 0x58F JUMP JUMPDEST PUSH1 0x40 MLOAD DUP1 SWAP2 SUB SWAP1 RETURN JUMPDEST PUSH2 0xCB PUSH1 0x4 DUP1 CALLDATASIZE SUB DUP2 ADD SWAP1 PUSH2 0xC6 SWAP2 SWAP1 PUSH2 0x363 JUMP JUMPDEST PUSH2 0x187 JUMP JUMPDEST PUSH1 0x40 MLOAD PUSH2 0xD8 SWAP2 SWAP1 PUSH2 0x5AA JUMP JUMPDEST PUSH1 0x40 MLOAD DUP1 SWAP2 SUB SWAP1 RETURN JUMPDEST PUSH2 0xFB PUSH1 0x4 DUP1 CALLDATASIZE SUB DUP2 ADD SWAP1 PUSH2 0xF6 SWAP2 SWAP1 PUSH2 0x390 JUMP JUMPDEST PUSH2 0x1B7 JUMP JUMPDEST PUSH1 0x40 MLOAD PUSH2 0x108 SWAP2 SWAP1 PUSH2 0x574 JUMP JUMPDEST PUSH1 0x40 MLOAD DUP1 SWAP2 SUB SWAP1 RETURN JUMPDEST PUSH1 0x0 DUP3 DUP3 PUSH1 0x40 MLOAD PUSH1 0x20 ADD PUSH2 0x126 SWAP3 SWAP2 SWAP1 PUSH2 0x522 JUMP JUMPDEST PUSH1 0x40 MLOAD PUSH1 0x20 DUP2 DUP4 SUB SUB DUP2 MSTORE SWAP1 PUSH1 0x40 MSTORE DUP1 MLOAD SWAP1 PUSH1 0x20 ADD KECCAK256 SWAP1 POP SWAP3 SWAP2 POP POP JUMP JUMPDEST PUSH1 0x0 DUP2 PUSH20 0xFFFFFFFFFFFFFFFFFFFFFFFFFFFFFFFFFFFFFFFF AND PUSH2 0x167 DUP6 DUP6 PUSH2 0x1B7 JUMP JUMPDEST PUSH20 0xFFFFFFFFFFFFFFFFFFFFFFFFFFFFFFFFFFFFFFFF AND EQ SWAP1 POP SWAP4 SWAP3 POP POP POP JUMP JUMPDEST PUSH1 0x0 DUP2 PUSH1 0x40 MLOAD PUSH1 0x20 ADD PUSH2 0x19A SWAP2 SWAP1 PUSH2 0x54E JUMP JUMPDEST PUSH1 0x40 MLOAD PUSH1 0x20 DUP2 DUP4 SUB SUB DUP2 MSTORE SWAP1 PUSH1 0x40 MSTORE DUP1 MLOAD SWAP1 PUSH1 0x20 ADD KECCAK256 SWAP1 POP SWAP2 SWAP1 POP JUMP JUMPDEST PUSH1 0x0 PUSH1 0x41 DUP3 MLOAD EQ PUSH2 0x1FD JUMPI PUSH1 0x40 MLOAD PUSH32 0x8C379A000000000000000000000000000000000000000000000000000000000 DUP2 MSTORE PUSH1 0x4 ADD PUSH2 0x1F4 SWAP1 PUSH2 0x60A JUMP JUMPDEST PUSH1 0x40 MLOAD DUP1 SWAP2 SUB SWAP1 REVERT JUMPDEST PUSH1 0x0 DUP1 PUSH1 0x0 PUSH1 0x20 DUP6 ADD MLOAD SWAP3 POP PUSH1 0x40 DUP6 ADD MLOAD SWAP2 POP PUSH1 0x60 DUP6 ADD MLOAD PUSH1 0x0 BYTE SWAP1 POP PUSH1 0x1 DUP7 DUP3 DUP6 DUP6 PUSH1 0x40 MLOAD PUSH1 0x0 DUP2 MSTORE PUSH1 0x20 ADD PUSH1 0x40 MSTORE PUSH1 0x40 MLOAD PUSH2 0x23D SWAP5 SWAP4 SWAP3 SWAP2 SWAP1 PUSH2 0x5C5 JUMP JUMPDEST PUSH1 0x20 PUSH1 0x40 MLOAD PUSH1 0x20 DUP2 SUB SWAP1 DUP1 DUP5 SUB SWAP1 DUP6 GAS STATICCALL ISZERO DUP1 ISZERO PUSH2 0x25F JUMPI RETURNDATASIZE PUSH1 0x0 DUP1 RETURNDATACOPY RETURNDATASIZE PUSH1 0x0 REVERT JUMPDEST POP POP POP PUSH1 0x20 PUSH1 0x40 MLOAD SUB MLOAD SWAP4 POP POP POP POP SWAP3 SWAP2 POP POP JUMP JUMPDEST PUSH1 0x0 PUSH2 0x287 PUSH2 0x282 DUP5 PUSH2 0x64F JUMP JUMPDEST PUSH2 0x62A JUMP JUMPDEST SWAP1 POP DUP3 DUP2 MSTORE PUSH1 0x20 DUP2 ADD DUP5 DUP5 DUP5 ADD GT ISZERO PUSH2 0x2A3 JUMPI PUSH2 0x2A2 PUSH2 0x7A7 JUMP JUMPDEST JUMPDEST PUSH2 0x2AE DUP5 DUP3 DUP6 PUSH2 0x6FB JUMP JUMPDEST POP SWAP4 SWAP3 POP POP POP JUMP JUMPDEST PUSH1 0x0 DUP2 CALLDATALOAD SWAP1 POP PUSH2 0x2C5 DUP2 PUSH2 0x826 JUMP JUMPDEST SWAP3 SWAP2 POP POP JUMP JUMPDEST PUSH1 0x0 DUP2 CALLDATALOAD SWAP1 POP PUSH2 0x2DA DUP2 PUSH2 0x83D JUMP JUMPDEST SWAP3 SWAP2 POP POP JUMP JUMPDEST PUSH1 0x0 DUP3 PUSH1 0x1F DUP4 ADD SLT PUSH2 0x2F5 JUMPI PUSH2 0x2F4 PUSH2 0x7A2 JUMP JUMPDEST JUMPDEST DUP2 CALLDATALOAD PUSH2 0x305 DUP5 DUP3 PUSH1 0x20 DUP7 ADD PUSH2 0x274 JUMP JUMPDEST SWAP2 POP POP SWAP3 SWAP2 POP POP JUMP JUMPDEST PUSH1 0x0 DUP2 CALLDATALOAD SWAP1 POP PUSH2 0x31D DUP2 PUSH2 0x854 JUMP JUMPDEST SWAP3 SWAP2 POP POP JUMP JUMPDEST PUSH1 0x0 DUP1 PUSH1 0x40 DUP4 DUP6 SUB SLT ISZERO PUSH2 0x33A JUMPI PUSH2 0x339 PUSH2 0x7B1 JUMP JUMPDEST JUMPDEST PUSH1 0x0 PUSH2 0x348 DUP6 DUP3 DUP7 ADD PUSH2 0x2B6 JUMP JUMPDEST SWAP3 POP POP PUSH1 0x20 PUSH2 0x359 DUP6 DUP3 DUP7 ADD PUSH2 0x30E JUMP JUMPDEST SWAP2 POP POP SWAP3 POP SWAP3 SWAP1 POP JUMP JUMPDEST PUSH1 0x0 PUSH1 0x20 DUP3 DUP5 SUB SLT ISZERO PUSH2 0x379 JUMPI PUSH2 0x378 PUSH2 0x7B1 JUMP JUMPDEST JUMPDEST PUSH1 0x0 PUSH2 0x387 DUP5 DUP3 DUP6 ADD PUSH2 0x2CB JUMP JUMPDEST SWAP2 POP POP SWAP3 SWAP2 POP POP JUMP JUMPDEST PUSH1 0x0 DUP1 PUSH1 0x40 DUP4 DUP6 SUB SLT ISZERO PUSH2 0x3A7 JUMPI PUSH2 0x3A6 PUSH2 0x7B1 JUMP JUMPDEST JUMPDEST PUSH1 0x0 PUSH2 0x3B5 DUP6 DUP3 DUP7 ADD PUSH2 0x2CB JUMP JUMPDEST SWAP3 POP POP PUSH1 0x20 DUP4 ADD CALLDATALOAD PUSH8 0xFFFFFFFFFFFFFFFF DUP2 GT ISZERO PUSH2 0x3D6 JUMPI PUSH2 0x3D5 PUSH2 0x7AC JUMP JUMPDEST JUMPDEST PUSH2 0x3E2 DUP6 DUP3 DUP7 ADD PUSH2 0x2E0 JUMP JUMPDEST SWAP2 POP POP SWAP3 POP SWAP3 SWAP1 POP JUMP JUMPDEST PUSH1 0x0 DUP1 PUSH1 0x0 PUSH1 0x60 DUP5 DUP7 SUB SLT ISZERO PUSH2 0x405 JUMPI PUSH2 0x404 PUSH2 0x7B1 JUMP JUMPDEST JUMPDEST PUSH1 0x0 PUSH2 0x413 DUP7 DUP3 DUP8 ADD PUSH2 0x2CB JUMP JUMPDEST SWAP4 POP POP PUSH1 0x20 DUP5 ADD CALLDATALOAD PUSH8 0xFFFFFFFFFFFFFFFF DUP2 GT ISZERO PUSH2 0x434 JUMPI PUSH2 0x433 PUSH2 0x7AC JUMP JUMPDEST JUMPDEST PUSH2 0x440 DUP7 DUP3 DUP8 ADD PUSH2 0x2E0 JUMP JUMPDEST SWAP3 POP POP PUSH1 0x40 PUSH2 0x451 DUP7 DUP3 DUP8 ADD PUSH2 0x2B6 JUMP JUMPDEST SWAP2 POP POP SWAP3 POP SWAP3 POP SWAP3 JUMP JUMPDEST PUSH2 0x464 DUP2 PUSH2 0x69C JUMP JUMPDEST DUP3 MSTORE POP POP JUMP JUMPDEST PUSH2 0x47B PUSH2 0x476 DUP3 PUSH2 0x69C JUMP JUMPDEST PUSH2 0x73B JUMP JUMPDEST DUP3 MSTORE POP POP JUMP JUMPDEST PUSH2 0x48A DUP2 PUSH2 0x6AE JUMP JUMPDEST DUP3 MSTORE POP POP JUMP JUMPDEST PUSH2 0x499 DUP2 PUSH2 0x6BA JUMP JUMPDEST DUP3 MSTORE POP POP JUMP JUMPDEST PUSH2 0x4B0 PUSH2 0x4AB DUP3 PUSH2 0x6BA JUMP JUMPDEST PUSH2 0x74D JUMP JUMPDEST DUP3 MSTORE POP POP JUMP JUMPDEST PUSH1 0x0 PUSH2 0x4C3 PUSH1 0x1C DUP4 PUSH2 0x691 JUMP JUMPDEST SWAP2 POP PUSH2 0x4CE DUP3 PUSH2 0x7D4 JUMP JUMPDEST PUSH1 0x1C DUP3 ADD SWAP1 POP SWAP2 SWAP1 POP JUMP JUMPDEST PUSH1 0x0 PUSH2 0x4E6 PUSH1 0x18 DUP4 PUSH2 0x680 JUMP JUMPDEST SWAP2 POP PUSH2 0x4F1 DUP3 PUSH2 0x7FD JUMP JUMPDEST PUSH1 0x20 DUP3 ADD SWAP1 POP SWAP2 SWAP1 POP JUMP JUMPDEST PUSH2 0x50D PUSH2 0x508 DUP3 PUSH2 0x6E4 JUMP JUMPDEST PUSH2 0x769 JUMP JUMPDEST DUP3 MSTORE POP POP JUMP JUMPDEST PUSH2 0x51C DUP2 PUSH2 0x6EE JUMP JUMPDEST DUP3 MSTORE POP POP JUMP JUMPDEST PUSH1 0x0 PUSH2 0x52E DUP3 DUP6 PUSH2 0x46A JUMP JUMPDEST PUSH1 0x14 DUP3 ADD SWAP2 POP PUSH2 0x53E DUP3 DUP5 PUSH2 0x4FC JUMP JUMPDEST PUSH1 0x20 DUP3 ADD SWAP2 POP DUP2 SWAP1 POP SWAP4 SWAP3 POP POP POP JUMP JUMPDEST PUSH1 0x0 PUSH2 0x559 DUP3 PUSH2 0x4B6 JUMP JUMPDEST SWAP2 POP PUSH2 0x565 DUP3 DUP5 PUSH2 0x49F JUMP JUMPDEST PUSH1 0x20 DUP3 ADD SWAP2 POP DUP2 SWAP1 POP SWAP3 SWAP2 POP POP JUMP JUMPDEST PUSH1 0x0 PUSH1 0x20 DUP3 ADD SWAP1 POP PUSH2 0x589 PUSH1 0x0 DUP4 ADD DUP5 PUSH2 0x45B JUMP JUMPDEST SWAP3 SWAP2 POP POP JUMP JUMPDEST PUSH1 0x0 PUSH1 0x20 DUP3 ADD SWAP1 POP PUSH2 0x5A4 PUSH1 0x0 DUP4 ADD DUP5 PUSH2 0x481 JUMP JUMPDEST SWAP3 SWAP2 POP POP JUMP JUMPDEST PUSH1 0x0 PUSH1 0x20 DUP3 ADD SWAP1 POP PUSH2 0x5BF PUSH1 0x0 DUP4 ADD DUP5 PUSH2 0x490 JUMP JUMPDEST SWAP3 SWAP2 POP POP JUMP JUMPDEST PUSH1 0x0 PUSH1 0x80 DUP3 ADD SWAP1 POP PUSH2 0x5DA PUSH1 0x0 DUP4 ADD DUP8 PUSH2 0x490 JUMP JUMPDEST PUSH2 0x5E7 PUSH1 0x20 DUP4 ADD DUP7 PUSH2 0x513 JUMP JUMPDEST PUSH2 0x5F4 PUSH1 0x40 DUP4 ADD DUP6 PUSH2 0x490 JUMP JUMPDEST PUSH2 0x601 PUSH1 0x60 DUP4 ADD DUP5 PUSH2 0x490 JUMP JUMPDEST SWAP6 SWAP5 POP POP POP POP POP JUMP JUMPDEST PUSH1 0x0 PUSH1 0x20 DUP3 ADD SWAP1 POP DUP2 DUP2 SUB PUSH1 0x0 DUP4 ADD MSTORE PUSH2 0x623 DUP2 PUSH2 0x4D9 JUMP JUMPDEST SWAP1 POP SWAP2 SWAP1 POP JUMP JUMPDEST PUSH1 0x0 PUSH2 0x634 PUSH2 0x645 JUMP JUMPDEST SWAP1 POP PUSH2 0x640 DUP3 DUP3 PUSH2 0x70A JUMP JUMPDEST SWAP2 SWAP1 POP JUMP JUMPDEST PUSH1 0x0 PUSH1 0x40 MLOAD SWAP1 POP SWAP1 JUMP JUMPDEST PUSH1 0x0 PUSH8 0xFFFFFFFFFFFFFFFF DUP3 GT ISZERO PUSH2 0x66A JUMPI PUSH2 0x669 PUSH2 0x773 JUMP JUMPDEST JUMPDEST PUSH2 0x673 DUP3 PUSH2 0x7B6 JUMP JUMPDEST SWAP1 POP PUSH1 0x20 DUP2 ADD SWAP1 POP SWAP2 SWAP1 POP JUMP JUMPDEST PUSH1 0x0 DUP3 DUP3 MSTORE PUSH1 0x20 DUP3 ADD SWAP1 POP SWAP3 SWAP2 POP POP JUMP JUMPDEST PUSH1 0x0 DUP2 SWAP1 POP SWAP3 SWAP2 POP POP JUMP JUMPDEST PUSH1 0x0 PUSH2 0x6A7 DUP3 PUSH2 0x6C4 JUMP JUMPDEST SWAP1 POP SWAP2 SWAP1 POP JUMP JUMPDEST PUSH1 0x0 DUP2 ISZERO ISZERO SWAP1 POP SWAP2 SWAP1 POP JUMP JUMPDEST PUSH1 0x0 DUP2 SWAP1 POP SWAP2 SWAP1 POP JUMP JUMPDEST PUSH1 0x0 PUSH20 0xFFFFFFFFFFFFFFFFFFFFFFFFFFFFFFFFFFFFFFFF DUP3 AND SWAP1 POP SWAP2 SWAP1 POP JUMP JUMPDEST PUSH1 0x0 DUP2 SWAP1 POP SWAP2 SWAP1 POP JUMP JUMPDEST PUSH1 0x0 PUSH1 0xFF DUP3 AND SWAP1 POP SWAP2 SWAP1 POP JUMP JUMPDEST DUP3 DUP2 DUP4 CALLDATACOPY PUSH1 0x0 DUP4 DUP4 ADD MSTORE POP POP POP JUMP JUMPDEST PUSH2 0x713 DUP3 PUSH2 0x7B6 JUMP JUMPDEST DUP2 ADD DUP2 DUP2 LT PUSH8 0xFFFFFFFFFFFFFFFF DUP3 GT OR ISZERO PUSH2 0x732 JUMPI PUSH2 0x731 PUSH2 0x773 JUMP JUMPDEST JUMPDEST DUP1 PUSH1 0x40 MSTORE POP POP POP JUMP JUMPDEST PUSH1 0x0 PUSH2 0x746 DUP3 PUSH2 0x757 JUMP JUMPDEST SWAP1 POP SWAP2 SWAP1 POP JUMP JUMPDEST PUSH1 0x0 DUP2 SWAP1 POP SWAP2 SWAP1 POP JUMP JUMPDEST PUSH1 0x0 PUSH2 0x762 DUP3 PUSH2 0x7C7 JUMP JUMPDEST SWAP1 POP SWAP2 SWAP1 POP JUMP JUMPDEST PUSH1 0x0 DUP2 SWAP1 POP SWAP2 SWAP1 POP JUMP JUMPDEST PUSH32 0x4E487B7100000000000000000000000000000000000000000000000000000000 PUSH1 0x0 MSTORE PUSH1 0x41 PUSH1 0x4 MSTORE PUSH1 0x24 PUSH1 0x0 REVERT JUMPDEST PUSH1 0x0 DUP1 REVERT JUMPDEST PUSH1 0x0 DUP1 REVERT JUMPDEST PUSH1 0x0 DUP1 REVERT JUMPDEST PUSH1 0x0 DUP1 REVERT JUMPDEST PUSH1 0x0 PUSH1 0x1F NOT PUSH1 0x1F DUP4 ADD AND SWAP1 POP SWAP2 SWAP1 POP JUMP JUMPDEST PUSH1 0x0 DUP2 PUSH1 0x60 SHL SWAP1 POP SWAP2 SWAP1 POP JUMP JUMPDEST PUSH32 0x19457468657265756D205369676E6564204D6573736167653A0A333200000000 PUSH1 0x0 DUP3 ADD MSTORE POP JUMP JUMPDEST PUSH32 0x696E76616C6964207369676E6174757265206C656E6774680000000000000000 PUSH1 0x0 DUP3 ADD MSTORE POP JUMP JUMPDEST PUSH2 0x82F DUP2 PUSH2 0x69C JUMP JUMPDEST DUP2 EQ PUSH2 0x83A JUMPI PUSH1 0x0 DUP1 REVERT JUMPDEST POP JUMP JUMPDEST PUSH2 0x846 DUP2 PUSH2 0x6BA JUMP JUMPDEST DUP2 EQ PUSH2 0x851 JUMPI PUSH1 0x0 DUP1 REVERT JUMPDEST POP JUMP JUMPDEST PUSH2 0x85D DUP2 PUSH2 0x6E4 JUMP JUMPDEST DUP2 EQ PUSH2 0x868 JUMPI PUSH1 0x0 DUP1 REVERT JUMPDEST POP JUMP INVALID LOG2 PUSH5 0x6970667358 0x22 SLT KECCAK256 SHL PUSH19 0x6C84A4EE05FD49D61FB0FB992B469C19B9BDE2 0xCB 0xCA 0x25 0x2F ADDMOD PUSH32 0x407FAE72BF64736F6C6343000807003300000000000000000000000000000000 "
		},
		"gasEstimates": {
			"creation": {
				"codeDepositCost": "441800",
				"executionCost": "480",
				"totalCost": "442280"
			},
			"external": {
				"getMessageHash(address,uint256)": "infinite",
				"recoverSigner(bytes32,bytes)": "infinite",
				"toEthSignedMessageHash(bytes32)": "infinite",
				"verify(bytes32,bytes,address)": "infinite"
			}
		},
		"methodIdentifiers": {
			"getMessageHash(address,uint256)": "512c91df",
			"recoverSigner(bytes32,bytes)": "97aba7f9",
			"toEthSignedMessageHash(bytes32)": "918a15cf",
			"verify(bytes32,bytes,address)": "823ac373"
		}
	},
	"abi": [
		{
			"inputs": [
				{
					"internalType": "address",
					"name": "_account",
					"type": "address"
				},
				{
					"internalType": "uint256",
					"name": "_tokenId",
					"type": "uint256"
				}
			],
			"name": "getMessageHash",
			"outputs": [
				{
					"internalType": "bytes32",
					"name": "",
					"type": "bytes32"
				}
			],
			"stateMutability": "pure",
			"type": "function"
		},
		{
			"inputs": [
				{
					"internalType": "bytes32",
					"name": "_msgHash",
					"type": "bytes32"
				},
				{
					"internalType": "bytes",
					"name": "_signature",
					"type": "bytes"
				}
			],
			"name": "recoverSigner",
			"outputs": [
				{
					"internalType": "address",
					"name": "",
					"type": "address"
				}
			],
			"stateMutability": "pure",
			"type": "function"
		},
		{
			"inputs": [
				{
					"internalType": "bytes32",
					"name": "hash",
					"type": "bytes32"
				}
			],
			"name": "toEthSignedMessageHash",
			"outputs": [
				{
					"internalType": "bytes32",
					"name": "",
					"type": "bytes32"
				}
			],
			"stateMutability": "pure",
			"type": "function"
		},
		{
			"inputs": [
				{
					"internalType": "bytes32",
					"name": "_msgHash",
					"type": "bytes32"
				},
				{
					"internalType": "bytes",
					"name": "_signature",
					"type": "bytes"
				},
				{
					"internalType": "address",
					"name": "_signer",
					"type": "address"
				}
			],
			"name": "verify",
			"outputs": [
				{
					"internalType": "bool",
					"name": "",
					"type": "bool"
				}
			],
			"stateMutability": "pure",
			"type": "function"
		}
	]
}