{
	"默克尔树/MerkleTree.sol": {
		"MerkleTree": {
			"abi": [
				{
					"inputs": [
						{
							"internalType": "string",
							"name": "name",
							"type": "string"
						},
						{
							"internalType": "string",
							"name": "symbol",
							"type": "string"
						},
						{
							"internalType": "bytes32",
							"name": "merkleroot",
							"type": "bytes32"
						}
					],
					"stateMutability": "nonpayable",
					"type": "constructor"
				},
				{
					"anonymous": false,
					"inputs": [
						{
							"indexed": true,
							"internalType": "address",
							"name": "owner",
							"type": "address"
						},
						{
							"indexed": true,
							"internalType": "address",
							"name": "approved",
							"type": "address"
						},
						{
							"indexed": true,
							"internalType": "uint256",
							"name": "tokenId",
							"type": "uint256"
						}
					],
					"name": "Approval",
					"type": "event"
				},
				{
					"anonymous": false,
					"inputs": [
						{
							"indexed": true,
							"internalType": "address",
							"name": "owner",
							"type": "address"
						},
						{
							"indexed": true,
							"internalType": "address",
							"name": "operator",
							"type": "address"
						},
						{
							"indexed": false,
							"internalType": "bool",
							"name": "approved",
							"type": "bool"
						}
					],
					"name": "ApprovalForAll",
					"type": "event"
				},
				{
					"anonymous": false,
					"inputs": [
						{
							"indexed": true,
							"internalType": "address",
							"name": "from",
							"type": "address"
						},
						{
							"indexed": true,
							"internalType": "address",
							"name": "to",
							"type": "address"
						},
						{
							"indexed": true,
							"internalType": "uint256",
							"name": "tokenId",
							"type": "uint256"
						}
					],
					"name": "Transfer",
					"type": "event"
				},
				{
					"inputs": [
						{
							"internalType": "address",
							"name": "to",
							"type": "address"
						},
						{
							"internalType": "uint256",
							"name": "tokenId",
							"type": "uint256"
						}
					],
					"name": "approve",
					"outputs": [],
					"stateMutability": "nonpayable",
					"type": "function"
				},
				{
					"inputs": [
						{
							"internalType": "address",
							"name": "owner",
							"type": "address"
						}
					],
					"name": "balanceOf",
					"outputs": [
						{
							"internalType": "uint256",
							"name": "",
							"type": "uint256"
						}
					],
					"stateMutability": "view",
					"type": "function"
				},
				{
					"inputs": [
						{
							"internalType": "uint256",
							"name": "tokenId",
							"type": "uint256"
						}
					],
					"name": "getApproved",
					"outputs": [
						{
							"internalType": "address",
							"name": "",
							"type": "address"
						}
					],
					"stateMutability": "view",
					"type": "function"
				},
				{
					"inputs": [
						{
							"internalType": "address",
							"name": "owner",
							"type": "address"
						},
						{
							"internalType": "address",
							"name": "operator",
							"type": "address"
						}
					],
					"name": "isApprovedForAll",
					"outputs": [
						{
							"internalType": "bool",
							"name": "",
							"type": "bool"
						}
					],
					"stateMutability": "view",
					"type": "function"
				},
				{
					"inputs": [
						{
							"internalType": "address",
							"name": "account",
							"type": "address"
						},
						{
							"internalType": "uint256",
							"name": "tokenId",
							"type": "uint256"
						},
						{
							"internalType": "bytes32[]",
							"name": "proof",
							"type": "bytes32[]"
						}
					],
					"name": "mint",
					"outputs": [],
					"stateMutability": "nonpayable",
					"type": "function"
				},
				{
					"inputs": [
						{
							"internalType": "address",
							"name": "",
							"type": "address"
						}
					],
					"name": "mintedAddress",
					"outputs": [
						{
							"internalType": "bool",
							"name": "",
							"type": "bool"
						}
					],
					"stateMutability": "view",
					"type": "function"
				},
				{
					"inputs": [],
					"name": "name",
					"outputs": [
						{
							"internalType": "string",
							"name": "",
							"type": "string"
						}
					],
					"stateMutability": "view",
					"type": "function"
				},
				{
					"inputs": [
						{
							"internalType": "uint256",
							"name": "tokenId",
							"type": "uint256"
						}
					],
					"name": "ownerOf",
					"outputs": [
						{
							"internalType": "address",
							"name": "owner",
							"type": "address"
						}
					],
					"stateMutability": "view",
					"type": "function"
				},
				{
					"inputs": [],
					"name": "root",
					"outputs": [
						{
							"internalType": "bytes32",
							"name": "",
							"type": "bytes32"
						}
					],
					"stateMutability": "view",
					"type": "function"
				},
				{
					"inputs": [
						{
							"internalType": "address",
							"name": "from",
							"type": "address"
						},
						{
							"internalType": "address",
							"name": "to",
							"type": "address"
						},
						{
							"internalType": "uint256",
							"name": "tokenId",
							"type": "uint256"
						}
					],
					"name": "safeTransferFrom",
					"outputs": [],
					"stateMutability": "nonpayable",
					"type": "function"
				},
				{
					"inputs": [
						{
							"internalType": "address",
							"name": "from",
							"type": "address"
						},
						{
							"internalType": "address",
							"name": "to",
							"type": "address"
						},
						{
							"internalType": "uint256",
							"name": "tokenId",
							"type": "uint256"
						},
						{
							"internalType": "bytes",
							"name": "_data",
							"type": "bytes"
						}
					],
					"name": "safeTransferFrom",
					"outputs": [],
					"stateMutability": "nonpayable",
					"type": "function"
				},
				{
					"inputs": [
						{
							"internalType": "address",
							"name": "operator",
							"type": "address"
						},
						{
							"internalType": "bool",
							"name": "approved",
							"type": "bool"
						}
					],
					"name": "setApprovalForAll",
					"outputs": [],
					"stateMutability": "nonpayable",
					"type": "function"
				},
				{
					"inputs": [
						{
							"internalType": "bytes4",
							"name": "interfaceId",
							"type": "bytes4"
						}
					],
					"name": "supportsInterface",
					"outputs": [
						{
							"internalType": "bool",
							"name": "",
							"type": "bool"
						}
					],
					"stateMutability": "pure",
					"type": "function"
				},
				{
					"inputs": [],
					"name": "symbol",
					"outputs": [
						{
							"internalType": "string",
							"name": "",
							"type": "string"
						}
					],
					"stateMutability": "view",
					"type": "function"
				},
				{
					"inputs": [
						{
							"internalType": "uint256",
							"name": "tokenId",
							"type": "uint256"
						}
					],
					"name": "tokenURI",
					"outputs": [
						{
							"internalType": "string",
							"name": "",
							"type": "string"
						}
					],
					"stateMutability": "view",
					"type": "function"
				},
				{
					"inputs": [
						{
							"internalType": "address",
							"name": "from",
							"type": "address"
						},
						{
							"internalType": "address",
							"name": "to",
							"type": "address"
						},
						{
							"internalType": "uint256",
							"name": "tokenId",
							"type": "uint256"
						}
					],
					"name": "transferFrom",
					"outputs": [],
					"stateMutability": "nonpayable",
					"type": "function"
				}
			],
			"devdoc": {
				"kind": "dev",
				"methods": {
					"supportsInterface(bytes4)": {
						"details": "如果合约实现了查询的`interfaceId`，则返回true 规则详见：https://eips.ethereum.org/EIPS/eip-165#how-interfaces-are-identified[EIP section]"
					}
				},
				"version": 1
			},
			"evm": {
				"assembly": "    /* \"默克尔树/MerkleTree.sol\":1276:2537  contract MerkleTree is ERC721 {\r... */\n  mstore(0x40, 0xa0)\n    /* \"默克尔树/MerkleTree.sol\":1531:1672  constructor(string memory name, string memory symbol, bytes32 merkleroot)\r... */\n  callvalue\n  dup1\n  iszero\n  tag_1\n  jumpi\n  0x00\n  dup1\n  revert\ntag_1:\n  pop\n  mload(0x40)\n  sub(codesize, bytecodeSize)\n  dup1\n  bytecodeSize\n  dup4\n  codecopy\n  dup2\n  dup2\n  add\n  0x40\n  mstore\n  dup2\n  add\n  swap1\n  tag_2\n  swap2\n  swap1\n  tag_3\n  jump\t// in\ntag_2:\n    /* \"默克尔树/MerkleTree.sol\":1617:1621  name */\n  dup3\n    /* \"默克尔树/MerkleTree.sol\":1623:1629  symbol */\n  dup3\n    /* \"ERC721/ERC721.sol\":1142:1147  name_ */\n  dup2\n    /* \"ERC721/ERC721.sol\":1135:1139  name */\n  0x00\n    /* \"ERC721/ERC721.sol\":1135:1147  name = name_ */\n  swap1\n  dup1\n  mload\n  swap1\n  0x20\n  add\n  swap1\n  tag_7\n  swap3\n  swap2\n  swap1\n  tag_8\n  jump\t// in\ntag_7:\n  pop\n    /* \"ERC721/ERC721.sol\":1167:1174  symbol_ */\n  dup1\n    /* \"ERC721/ERC721.sol\":1158:1164  symbol */\n  0x01\n    /* \"ERC721/ERC721.sol\":1158:1174  symbol = symbol_ */\n  swap1\n  dup1\n  mload\n  swap1\n  0x20\n  add\n  swap1\n  tag_9\n  swap3\n  swap2\n  swap1\n  tag_8\n  jump\t// in\ntag_9:\n  pop\n    /* \"ERC721/ERC721.sol\":1068:1182  constructor(string memory name_, string memory symbol_) {\r... */\n  pop\n  pop\n    /* \"默克尔树/MerkleTree.sol\":1654:1664  merkleroot */\n  dup1\n    /* \"默克尔树/MerkleTree.sol\":1647:1664  root = merkleroot */\n  0x80\n  dup2\n  dup2\n  mstore\n  pop\n  pop\n    /* \"默克尔树/MerkleTree.sol\":1531:1672  constructor(string memory name, string memory symbol, bytes32 merkleroot)\r... */\n  pop\n  pop\n  pop\n    /* \"默克尔树/MerkleTree.sol\":1276:2537  contract MerkleTree is ERC721 {\r... */\n  jump(tag_11)\ntag_8:\n  dup3\n  dup1\n  sload\n  tag_12\n  swap1\n  tag_13\n  jump\t// in\ntag_12:\n  swap1\n  0x00\n  mstore\n  keccak256(0x00, 0x20)\n  swap1\n  0x1f\n  add\n  0x20\n  swap1\n  div\n  dup2\n  add\n  swap3\n  dup3\n  tag_15\n  jumpi\n  0x00\n  dup6\n  sstore\n  jump(tag_14)\ntag_15:\n  dup3\n  0x1f\n  lt\n  tag_16\n  jumpi\n  dup1\n  mload\n  not(0xff)\n  and\n  dup4\n  dup1\n  add\n  or\n  dup6\n  sstore\n  jump(tag_14)\ntag_16:\n  dup3\n  dup1\n  add\n  0x01\n  add\n  dup6\n  sstore\n  dup3\n  iszero\n  tag_14\n  jumpi\n  swap2\n  dup3\n  add\ntag_17:\n  dup3\n  dup2\n  gt\n  iszero\n  tag_18\n  jumpi\n  dup3\n  mload\n  dup3\n  sstore\n  swap2\n  0x20\n  add\n  swap2\n  swap1\n  0x01\n  add\n  swap1\n  jump(tag_17)\ntag_18:\ntag_14:\n  pop\n  swap1\n  pop\n  tag_19\n  swap2\n  swap1\n  tag_20\n  jump\t// in\ntag_19:\n  pop\n  swap1\n  jump\t// out\ntag_20:\ntag_21:\n  dup1\n  dup3\n  gt\n  iszero\n  tag_22\n  jumpi\n  0x00\n  dup2\n  0x00\n  swap1\n  sstore\n  pop\n  0x01\n  add\n  jump(tag_21)\ntag_22:\n  pop\n  swap1\n  jump\t// out\n    /* \"#utility.yul\":7:361   */\ntag_24:\n    /* \"#utility.yul\":96:101   */\n  0x00\n    /* \"#utility.yul\":121:187   */\n  tag_26\n    /* \"#utility.yul\":137:186   */\n  tag_27\n    /* \"#utility.yul\":179:185   */\n  dup5\n    /* \"#utility.yul\":137:186   */\n  tag_28\n  jump\t// in\ntag_27:\n    /* \"#utility.yul\":121:187   */\n  tag_29\n  jump\t// in\ntag_26:\n    /* \"#utility.yul\":112:187   */\n  swap1\n  pop\n    /* \"#utility.yul\":210:216   */\n  dup3\n    /* \"#utility.yul\":203:208   */\n  dup2\n    /* \"#utility.yul\":196:217   */\n  mstore\n    /* \"#utility.yul\":248:252   */\n  0x20\n    /* \"#utility.yul\":241:246   */\n  dup2\n    /* \"#utility.yul\":237:253   */\n  add\n    /* \"#utility.yul\":286:289   */\n  dup5\n    /* \"#utility.yul\":277:283   */\n  dup5\n    /* \"#utility.yul\":272:275   */\n  dup5\n    /* \"#utility.yul\":268:284   */\n  add\n    /* \"#utility.yul\":265:290   */\n  gt\n    /* \"#utility.yul\":262:264   */\n  iszero\n  tag_30\n  jumpi\n    /* \"#utility.yul\":303:304   */\n  0x00\n    /* \"#utility.yul\":300:301   */\n  dup1\n    /* \"#utility.yul\":293:305   */\n  revert\n    /* \"#utility.yul\":262:264   */\ntag_30:\n    /* \"#utility.yul\":316:355   */\n  tag_31\n    /* \"#utility.yul\":348:354   */\n  dup5\n    /* \"#utility.yul\":343:346   */\n  dup3\n    /* \"#utility.yul\":338:341   */\n  dup6\n    /* \"#utility.yul\":316:355   */\n  tag_32\n  jump\t// in\ntag_31:\n    /* \"#utility.yul\":102:361   */\n  pop\n  swap4\n  swap3\n  pop\n  pop\n  pop\n  jump\t// out\n    /* \"#utility.yul\":367:510   */\ntag_33:\n    /* \"#utility.yul\":424:429   */\n  0x00\n    /* \"#utility.yul\":455:461   */\n  dup2\n    /* \"#utility.yul\":449:462   */\n  mload\n    /* \"#utility.yul\":440:462   */\n  swap1\n  pop\n    /* \"#utility.yul\":471:504   */\n  tag_35\n    /* \"#utility.yul\":498:503   */\n  dup2\n    /* \"#utility.yul\":471:504   */\n  tag_36\n  jump\t// in\ntag_35:\n    /* \"#utility.yul\":430:510   */\n  swap3\n  swap2\n  pop\n  pop\n  jump\t// out\n    /* \"#utility.yul\":530:818   */\ntag_37:\n    /* \"#utility.yul\":597:602   */\n  0x00\n    /* \"#utility.yul\":646:649   */\n  dup3\n    /* \"#utility.yul\":639:643   */\n  0x1f\n    /* \"#utility.yul\":631:637   */\n  dup4\n    /* \"#utility.yul\":627:644   */\n  add\n    /* \"#utility.yul\":623:650   */\n  slt\n    /* \"#utility.yul\":613:615   */\n  tag_39\n  jumpi\n    /* \"#utility.yul\":664:665   */\n  0x00\n    /* \"#utility.yul\":661:662   */\n  dup1\n    /* \"#utility.yul\":654:666   */\n  revert\n    /* \"#utility.yul\":613:615   */\ntag_39:\n    /* \"#utility.yul\":697:703   */\n  dup2\n    /* \"#utility.yul\":691:704   */\n  mload\n    /* \"#utility.yul\":722:812   */\n  tag_40\n    /* \"#utility.yul\":808:811   */\n  dup5\n    /* \"#utility.yul\":800:806   */\n  dup3\n    /* \"#utility.yul\":793:797   */\n  0x20\n    /* \"#utility.yul\":785:791   */\n  dup7\n    /* \"#utility.yul\":781:798   */\n  add\n    /* \"#utility.yul\":722:812   */\n  tag_24\n  jump\t// in\ntag_40:\n    /* \"#utility.yul\":713:812   */\n  swap2\n  pop\n    /* \"#utility.yul\":603:818   */\n  pop\n  swap3\n  swap2\n  pop\n  pop\n  jump\t// out\n    /* \"#utility.yul\":824:1632   */\ntag_3:\n    /* \"#utility.yul\":932:938   */\n  0x00\n    /* \"#utility.yul\":940:946   */\n  dup1\n    /* \"#utility.yul\":948:954   */\n  0x00\n    /* \"#utility.yul\":997:999   */\n  0x60\n    /* \"#utility.yul\":985:994   */\n  dup5\n    /* \"#utility.yul\":976:983   */\n  dup7\n    /* \"#utility.yul\":972:995   */\n  sub\n    /* \"#utility.yul\":968:1000   */\n  slt\n    /* \"#utility.yul\":965:967   */\n  iszero\n  tag_42\n  jumpi\n    /* \"#utility.yul\":1013:1014   */\n  0x00\n    /* \"#utility.yul\":1010:1011   */\n  dup1\n    /* \"#utility.yul\":1003:1015   */\n  revert\n    /* \"#utility.yul\":965:967   */\ntag_42:\n    /* \"#utility.yul\":1077:1078   */\n  0x00\n    /* \"#utility.yul\":1066:1075   */\n  dup5\n    /* \"#utility.yul\":1062:1079   */\n  add\n    /* \"#utility.yul\":1056:1080   */\n  mload\n    /* \"#utility.yul\":1107:1125   */\n  0xffffffffffffffff\n    /* \"#utility.yul\":1099:1105   */\n  dup2\n    /* \"#utility.yul\":1096:1126   */\n  gt\n    /* \"#utility.yul\":1093:1095   */\n  iszero\n  tag_43\n  jumpi\n    /* \"#utility.yul\":1139:1140   */\n  0x00\n    /* \"#utility.yul\":1136:1137   */\n  dup1\n    /* \"#utility.yul\":1129:1141   */\n  revert\n    /* \"#utility.yul\":1093:1095   */\ntag_43:\n    /* \"#utility.yul\":1167:1241   */\n  tag_44\n    /* \"#utility.yul\":1233:1240   */\n  dup7\n    /* \"#utility.yul\":1224:1230   */\n  dup3\n    /* \"#utility.yul\":1213:1222   */\n  dup8\n    /* \"#utility.yul\":1209:1231   */\n  add\n    /* \"#utility.yul\":1167:1241   */\n  tag_37\n  jump\t// in\ntag_44:\n    /* \"#utility.yul\":1157:1241   */\n  swap4\n  pop\n    /* \"#utility.yul\":1027:1251   */\n  pop\n    /* \"#utility.yul\":1311:1313   */\n  0x20\n    /* \"#utility.yul\":1300:1309   */\n  dup5\n    /* \"#utility.yul\":1296:1314   */\n  add\n    /* \"#utility.yul\":1290:1315   */\n  mload\n    /* \"#utility.yul\":1342:1360   */\n  0xffffffffffffffff\n    /* \"#utility.yul\":1334:1340   */\n  dup2\n    /* \"#utility.yul\":1331:1361   */\n  gt\n    /* \"#utility.yul\":1328:1330   */\n  iszero\n  tag_45\n  jumpi\n    /* \"#utility.yul\":1374:1375   */\n  0x00\n    /* \"#utility.yul\":1371:1372   */\n  dup1\n    /* \"#utility.yul\":1364:1376   */\n  revert\n    /* \"#utility.yul\":1328:1330   */\ntag_45:\n    /* \"#utility.yul\":1402:1476   */\n  tag_46\n    /* \"#utility.yul\":1468:1475   */\n  dup7\n    /* \"#utility.yul\":1459:1465   */\n  dup3\n    /* \"#utility.yul\":1448:1457   */\n  dup8\n    /* \"#utility.yul\":1444:1466   */\n  add\n    /* \"#utility.yul\":1402:1476   */\n  tag_37\n  jump\t// in\ntag_46:\n    /* \"#utility.yul\":1392:1476   */\n  swap3\n  pop\n    /* \"#utility.yul\":1261:1486   */\n  pop\n    /* \"#utility.yul\":1525:1527   */\n  0x40\n    /* \"#utility.yul\":1551:1615   */\n  tag_47\n    /* \"#utility.yul\":1607:1614   */\n  dup7\n    /* \"#utility.yul\":1598:1604   */\n  dup3\n    /* \"#utility.yul\":1587:1596   */\n  dup8\n    /* \"#utility.yul\":1583:1605   */\n  add\n    /* \"#utility.yul\":1551:1615   */\n  tag_33\n  jump\t// in\ntag_47:\n    /* \"#utility.yul\":1541:1615   */\n  swap2\n  pop\n    /* \"#utility.yul\":1496:1625   */\n  pop\n    /* \"#utility.yul\":955:1632   */\n  swap3\n  pop\n  swap3\n  pop\n  swap3\n  jump\t// out\n    /* \"#utility.yul\":1638:1767   */\ntag_29:\n    /* \"#utility.yul\":1672:1678   */\n  0x00\n    /* \"#utility.yul\":1699:1719   */\n  tag_49\n  tag_50\n  jump\t// in\ntag_49:\n    /* \"#utility.yul\":1689:1719   */\n  swap1\n  pop\n    /* \"#utility.yul\":1728:1761   */\n  tag_51\n    /* \"#utility.yul\":1756:1760   */\n  dup3\n    /* \"#utility.yul\":1748:1754   */\n  dup3\n    /* \"#utility.yul\":1728:1761   */\n  tag_52\n  jump\t// in\ntag_51:\n    /* \"#utility.yul\":1679:1767   */\n  swap2\n  swap1\n  pop\n  jump\t// out\n    /* \"#utility.yul\":1773:1848   */\ntag_50:\n    /* \"#utility.yul\":1806:1812   */\n  0x00\n    /* \"#utility.yul\":1839:1841   */\n  0x40\n    /* \"#utility.yul\":1833:1842   */\n  mload\n    /* \"#utility.yul\":1823:1842   */\n  swap1\n  pop\n    /* \"#utility.yul\":1813:1848   */\n  swap1\n  jump\t// out\n    /* \"#utility.yul\":1854:2162   */\ntag_28:\n    /* \"#utility.yul\":1916:1920   */\n  0x00\n    /* \"#utility.yul\":2006:2024   */\n  0xffffffffffffffff\n    /* \"#utility.yul\":1998:2004   */\n  dup3\n    /* \"#utility.yul\":1995:2025   */\n  gt\n    /* \"#utility.yul\":1992:1994   */\n  iszero\n  tag_55\n  jumpi\n    /* \"#utility.yul\":2028:2046   */\n  tag_56\n  tag_57\n  jump\t// in\ntag_56:\n    /* \"#utility.yul\":1992:1994   */\ntag_55:\n    /* \"#utility.yul\":2066:2095   */\n  tag_58\n    /* \"#utility.yul\":2088:2094   */\n  dup3\n    /* \"#utility.yul\":2066:2095   */\n  tag_59\n  jump\t// in\ntag_58:\n    /* \"#utility.yul\":2058:2095   */\n  swap1\n  pop\n    /* \"#utility.yul\":2150:2154   */\n  0x20\n    /* \"#utility.yul\":2144:2148   */\n  dup2\n    /* \"#utility.yul\":2140:2155   */\n  add\n    /* \"#utility.yul\":2132:2155   */\n  swap1\n  pop\n    /* \"#utility.yul\":1921:2162   */\n  swap2\n  swap1\n  pop\n  jump\t// out\n    /* \"#utility.yul\":2168:2245   */\ntag_60:\n    /* \"#utility.yul\":2205:2212   */\n  0x00\n    /* \"#utility.yul\":2234:2239   */\n  dup2\n    /* \"#utility.yul\":2223:2239   */\n  swap1\n  pop\n    /* \"#utility.yul\":2213:2245   */\n  swap2\n  swap1\n  pop\n  jump\t// out\n    /* \"#utility.yul\":2251:2558   */\ntag_32:\n    /* \"#utility.yul\":2319:2320   */\n  0x00\n    /* \"#utility.yul\":2329:2442   */\ntag_63:\n    /* \"#utility.yul\":2343:2349   */\n  dup4\n    /* \"#utility.yul\":2340:2341   */\n  dup2\n    /* \"#utility.yul\":2337:2350   */\n  lt\n    /* \"#utility.yul\":2329:2442   */\n  iszero\n  tag_65\n  jumpi\n    /* \"#utility.yul\":2428:2429   */\n  dup1\n    /* \"#utility.yul\":2423:2426   */\n  dup3\n    /* \"#utility.yul\":2419:2430   */\n  add\n    /* \"#utility.yul\":2413:2431   */\n  mload\n    /* \"#utility.yul\":2409:2410   */\n  dup2\n    /* \"#utility.yul\":2404:2407   */\n  dup5\n    /* \"#utility.yul\":2400:2411   */\n  add\n    /* \"#utility.yul\":2393:2432   */\n  mstore\n    /* \"#utility.yul\":2365:2367   */\n  0x20\n    /* \"#utility.yul\":2362:2363   */\n  dup2\n    /* \"#utility.yul\":2358:2368   */\n  add\n    /* \"#utility.yul\":2353:2368   */\n  swap1\n  pop\n    /* \"#utility.yul\":2329:2442   */\n  jump(tag_63)\ntag_65:\n    /* \"#utility.yul\":2460:2466   */\n  dup4\n    /* \"#utility.yul\":2457:2458   */\n  dup2\n    /* \"#utility.yul\":2454:2467   */\n  gt\n    /* \"#utility.yul\":2451:2453   */\n  iszero\n  tag_66\n  jumpi\n    /* \"#utility.yul\":2540:2541   */\n  0x00\n    /* \"#utility.yul\":2531:2537   */\n  dup5\n    /* \"#utility.yul\":2526:2529   */\n  dup5\n    /* \"#utility.yul\":2522:2538   */\n  add\n    /* \"#utility.yul\":2515:2542   */\n  mstore\n    /* \"#utility.yul\":2451:2453   */\ntag_66:\n    /* \"#utility.yul\":2300:2558   */\n  pop\n  pop\n  pop\n  pop\n  jump\t// out\n    /* \"#utility.yul\":2564:2884   */\ntag_13:\n    /* \"#utility.yul\":2608:2614   */\n  0x00\n    /* \"#utility.yul\":2645:2646   */\n  0x02\n    /* \"#utility.yul\":2639:2643   */\n  dup3\n    /* \"#utility.yul\":2635:2647   */\n  div\n    /* \"#utility.yul\":2625:2647   */\n  swap1\n  pop\n    /* \"#utility.yul\":2692:2693   */\n  0x01\n    /* \"#utility.yul\":2686:2690   */\n  dup3\n    /* \"#utility.yul\":2682:2694   */\n  and\n    /* \"#utility.yul\":2713:2731   */\n  dup1\n    /* \"#utility.yul\":2703:2705   */\n  tag_68\n  jumpi\n    /* \"#utility.yul\":2769:2773   */\n  0x7f\n    /* \"#utility.yul\":2761:2767   */\n  dup3\n    /* \"#utility.yul\":2757:2774   */\n  and\n    /* \"#utility.yul\":2747:2774   */\n  swap2\n  pop\n    /* \"#utility.yul\":2703:2705   */\ntag_68:\n    /* \"#utility.yul\":2831:2833   */\n  0x20\n    /* \"#utility.yul\":2823:2829   */\n  dup3\n    /* \"#utility.yul\":2820:2834   */\n  lt\n    /* \"#utility.yul\":2800:2818   */\n  dup2\n    /* \"#utility.yul\":2797:2835   */\n  eq\n    /* \"#utility.yul\":2794:2796   */\n  iszero\n  tag_69\n  jumpi\n    /* \"#utility.yul\":2850:2868   */\n  tag_70\n  tag_71\n  jump\t// in\ntag_70:\n    /* \"#utility.yul\":2794:2796   */\ntag_69:\n    /* \"#utility.yul\":2615:2884   */\n  pop\n  swap2\n  swap1\n  pop\n  jump\t// out\n    /* \"#utility.yul\":2890:3171   */\ntag_52:\n    /* \"#utility.yul\":2973:3000   */\n  tag_73\n    /* \"#utility.yul\":2995:2999   */\n  dup3\n    /* \"#utility.yul\":2973:3000   */\n  tag_59\n  jump\t// in\ntag_73:\n    /* \"#utility.yul\":2965:2971   */\n  dup2\n    /* \"#utility.yul\":2961:3001   */\n  add\n    /* \"#utility.yul\":3103:3109   */\n  dup2\n    /* \"#utility.yul\":3091:3101   */\n  dup2\n    /* \"#utility.yul\":3088:3110   */\n  lt\n    /* \"#utility.yul\":3067:3085   */\n  0xffffffffffffffff\n    /* \"#utility.yul\":3055:3065   */\n  dup3\n    /* \"#utility.yul\":3052:3086   */\n  gt\n    /* \"#utility.yul\":3049:3111   */\n  or\n    /* \"#utility.yul\":3046:3048   */\n  iszero\n  tag_74\n  jumpi\n    /* \"#utility.yul\":3114:3132   */\n  tag_75\n  tag_57\n  jump\t// in\ntag_75:\n    /* \"#utility.yul\":3046:3048   */\ntag_74:\n    /* \"#utility.yul\":3154:3164   */\n  dup1\n    /* \"#utility.yul\":3150:3152   */\n  0x40\n    /* \"#utility.yul\":3143:3165   */\n  mstore\n    /* \"#utility.yul\":2933:3171   */\n  pop\n  pop\n  pop\n  jump\t// out\n    /* \"#utility.yul\":3177:3357   */\ntag_71:\n    /* \"#utility.yul\":3225:3302   */\n  0x4e487b7100000000000000000000000000000000000000000000000000000000\n    /* \"#utility.yul\":3222:3223   */\n  0x00\n    /* \"#utility.yul\":3215:3303   */\n  mstore\n    /* \"#utility.yul\":3322:3326   */\n  0x22\n    /* \"#utility.yul\":3319:3320   */\n  0x04\n    /* \"#utility.yul\":3312:3327   */\n  mstore\n    /* \"#utility.yul\":3346:3350   */\n  0x24\n    /* \"#utility.yul\":3343:3344   */\n  0x00\n    /* \"#utility.yul\":3336:3351   */\n  revert\n    /* \"#utility.yul\":3363:3543   */\ntag_57:\n    /* \"#utility.yul\":3411:3488   */\n  0x4e487b7100000000000000000000000000000000000000000000000000000000\n    /* \"#utility.yul\":3408:3409   */\n  0x00\n    /* \"#utility.yul\":3401:3489   */\n  mstore\n    /* \"#utility.yul\":3508:3512   */\n  0x41\n    /* \"#utility.yul\":3505:3506   */\n  0x04\n    /* \"#utility.yul\":3498:3513   */\n  mstore\n    /* \"#utility.yul\":3532:3536   */\n  0x24\n    /* \"#utility.yul\":3529:3530   */\n  0x00\n    /* \"#utility.yul\":3522:3537   */\n  revert\n    /* \"#utility.yul\":3549:3651   */\ntag_59:\n    /* \"#utility.yul\":3590:3596   */\n  0x00\n    /* \"#utility.yul\":3641:3643   */\n  0x1f\n    /* \"#utility.yul\":3637:3644   */\n  not\n    /* \"#utility.yul\":3632:3634   */\n  0x1f\n    /* \"#utility.yul\":3625:3630   */\n  dup4\n    /* \"#utility.yul\":3621:3635   */\n  add\n    /* \"#utility.yul\":3617:3645   */\n  and\n    /* \"#utility.yul\":3607:3645   */\n  swap1\n  pop\n    /* \"#utility.yul\":3597:3651   */\n  swap2\n  swap1\n  pop\n  jump\t// out\n    /* \"#utility.yul\":3657:3779   */\ntag_36:\n    /* \"#utility.yul\":3730:3754   */\n  tag_80\n    /* \"#utility.yul\":3748:3753   */\n  dup2\n    /* \"#utility.yul\":3730:3754   */\n  tag_60\n  jump\t// in\ntag_80:\n    /* \"#utility.yul\":3723:3728   */\n  dup2\n    /* \"#utility.yul\":3720:3755   */\n  eq\n    /* \"#utility.yul\":3710:3712   */\n  tag_81\n  jumpi\n    /* \"#utility.yul\":3769:3770   */\n  0x00\n    /* \"#utility.yul\":3766:3767   */\n  dup1\n    /* \"#utility.yul\":3759:3771   */\n  revert\n    /* \"#utility.yul\":3710:3712   */\ntag_81:\n    /* \"#utility.yul\":3700:3779   */\n  pop\n  jump\t// out\n    /* \"默克尔树/MerkleTree.sol\":1276:2537  contract MerkleTree is ERC721 {\r... */\ntag_11:\n  mload(0x80)\n  codecopy(0x00, dataOffset(sub_0), dataSize(sub_0))\n  0x00\n  assignImmutable(\"0x70a74b75c4920e9bbb759cb5023e4c2f48a43033fa115214c8c6611c710b14c4\")\n  return(0x00, dataSize(sub_0))\nstop\n\nsub_0: assembly {\n        /* \"默克尔树/MerkleTree.sol\":1276:2537  contract MerkleTree is ERC721 {\r... */\n      mstore(0x40, 0x80)\n      callvalue\n      dup1\n      iszero\n      tag_1\n      jumpi\n      0x00\n      dup1\n      revert\n    tag_1:\n      pop\n      jumpi(tag_2, lt(calldatasize, 0x04))\n      shr(0xe0, calldataload(0x00))\n      dup1\n      0x641ce140\n      gt\n      tag_19\n      jumpi\n      dup1\n      0xb88d4fde\n      gt\n      tag_20\n      jumpi\n      dup1\n      0xb88d4fde\n      eq\n      tag_15\n      jumpi\n      dup1\n      0xc87b56dd\n      eq\n      tag_16\n      jumpi\n      dup1\n      0xe985e9c5\n      eq\n      tag_17\n      jumpi\n      dup1\n      0xebf0c717\n      eq\n      tag_18\n      jumpi\n      jump(tag_2)\n    tag_20:\n      dup1\n      0x641ce140\n      eq\n      tag_11\n      jumpi\n      dup1\n      0x70a08231\n      eq\n      tag_12\n      jumpi\n      dup1\n      0x95d89b41\n      eq\n      tag_13\n      jumpi\n      dup1\n      0xa22cb465\n      eq\n      tag_14\n      jumpi\n      jump(tag_2)\n    tag_19:\n      dup1\n      0x23b872dd\n      gt\n      tag_21\n      jumpi\n      dup1\n      0x23b872dd\n      eq\n      tag_7\n      jumpi\n      dup1\n      0x42842e0e\n      eq\n      tag_8\n      jumpi\n      dup1\n      0x630303c6\n      eq\n      tag_9\n      jumpi\n      dup1\n      0x6352211e\n      eq\n      tag_10\n      jumpi\n      jump(tag_2)\n    tag_21:\n      dup1\n      0x01ffc9a7\n      eq\n      tag_3\n      jumpi\n      dup1\n      0x06fdde03\n      eq\n      tag_4\n      jumpi\n      dup1\n      0x081812fc\n      eq\n      tag_5\n      jumpi\n      dup1\n      0x095ea7b3\n      eq\n      tag_6\n      jumpi\n    tag_2:\n      0x00\n      dup1\n      revert\n        /* \"ERC721/ERC721.sol\":1235:1562  function supportsInterface(bytes4 interfaceId)\r... */\n    tag_3:\n      tag_22\n      0x04\n      dup1\n      calldatasize\n      sub\n      dup2\n      add\n      swap1\n      tag_23\n      swap2\n      swap1\n      tag_24\n      jump\t// in\n    tag_23:\n      tag_25\n      jump\t// in\n    tag_22:\n      mload(0x40)\n      tag_26\n      swap2\n      swap1\n      tag_27\n      jump\t// in\n    tag_26:\n      mload(0x40)\n      dup1\n      swap2\n      sub\n      swap1\n      return\n        /* \"ERC721/ERC721.sol\":459:486  string public override name */\n    tag_4:\n      tag_28\n      tag_29\n      jump\t// in\n    tag_28:\n      mload(0x40)\n      tag_30\n      swap2\n      swap1\n      tag_31\n      jump\t// in\n    tag_30:\n      mload(0x40)\n      dup1\n      swap2\n      sub\n      swap1\n      return\n        /* \"ERC721/ERC721.sol\":2901:3100  function getApproved(uint tokenId) external view override returns (address) {\r... */\n    tag_5:\n      tag_32\n      0x04\n      dup1\n      calldatasize\n      sub\n      dup2\n      add\n      swap1\n      tag_33\n      swap2\n      swap1\n      tag_34\n      jump\t// in\n    tag_33:\n      tag_35\n      jump\t// in\n    tag_32:\n      mload(0x40)\n      tag_36\n      swap2\n      swap1\n      tag_37\n      jump\t// in\n    tag_36:\n      mload(0x40)\n      dup1\n      swap2\n      sub\n      swap1\n      return\n        /* \"ERC721/ERC721.sol\":3587:3889  function approve(address to, uint tokenId) external override {\r... */\n    tag_6:\n      tag_38\n      0x04\n      dup1\n      calldatasize\n      sub\n      dup2\n      add\n      swap1\n      tag_39\n      swap2\n      swap1\n      tag_40\n      jump\t// in\n    tag_39:\n      tag_41\n      jump\t// in\n    tag_38:\n      stop\n        /* \"ERC721/ERC721.sol\":5045:5385  function transferFrom(\r... */\n    tag_7:\n      tag_42\n      0x04\n      dup1\n      calldatasize\n      sub\n      dup2\n      add\n      swap1\n      tag_43\n      swap2\n      swap1\n      tag_44\n      jump\t// in\n    tag_43:\n      tag_45\n      jump\t// in\n    tag_42:\n      stop\n        /* \"ERC721/ERC721.sol\":6688:6864  function safeTransferFrom(\r... */\n    tag_8:\n      tag_46\n      0x04\n      dup1\n      calldatasize\n      sub\n      dup2\n      add\n      swap1\n      tag_47\n      swap2\n      swap1\n      tag_44\n      jump\t// in\n    tag_47:\n      tag_48\n      jump\t// in\n    tag_46:\n      stop\n        /* \"默克尔树/MerkleTree.sol\":1368:1413  mapping(address => bool) public mintedAddress */\n    tag_9:\n      tag_49\n      0x04\n      dup1\n      calldatasize\n      sub\n      dup2\n      add\n      swap1\n      tag_50\n      swap2\n      swap1\n      tag_51\n      jump\t// in\n    tag_50:\n      tag_52\n      jump\t// in\n    tag_49:\n      mload(0x40)\n      tag_53\n      swap2\n      swap1\n      tag_27\n      jump\t// in\n    tag_53:\n      mload(0x40)\n      dup1\n      swap2\n      sub\n      swap1\n      return\n        /* \"ERC721/ERC721.sol\":1921:2102  function ownerOf(uint tokenId) public view override returns (address owner) {\r... */\n    tag_10:\n      tag_54\n      0x04\n      dup1\n      calldatasize\n      sub\n      dup2\n      add\n      swap1\n      tag_55\n      swap2\n      swap1\n      tag_34\n      jump\t// in\n    tag_55:\n      tag_56\n      jump\t// in\n    tag_54:\n      mload(0x40)\n      tag_57\n      swap2\n      swap1\n      tag_37\n      jump\t// in\n    tag_57:\n      mload(0x40)\n      dup1\n      swap2\n      sub\n      swap1\n      return\n        /* \"默克尔树/MerkleTree.sol\":1729:2119  function mint(address account, uint256 tokenId, bytes32[] calldata proof)\r... */\n    tag_11:\n      tag_58\n      0x04\n      dup1\n      calldatasize\n      sub\n      dup2\n      add\n      swap1\n      tag_59\n      swap2\n      swap1\n      tag_60\n      jump\t// in\n    tag_59:\n      tag_61\n      jump\t// in\n    tag_58:\n      stop\n        /* \"ERC721/ERC721.sol\":1658:1835  function balanceOf(address owner) external view override returns (uint) {\r... */\n    tag_12:\n      tag_62\n      0x04\n      dup1\n      calldatasize\n      sub\n      dup2\n      add\n      swap1\n      tag_63\n      swap2\n      swap1\n      tag_51\n      jump\t// in\n    tag_63:\n      tag_64\n      jump\t// in\n    tag_62:\n      mload(0x40)\n      tag_65\n      swap2\n      swap1\n      tag_66\n      jump\t// in\n    tag_65:\n      mload(0x40)\n      dup1\n      swap2\n      sub\n      swap1\n      return\n        /* \"ERC721/ERC721.sol\":513:542  string public override symbol */\n    tag_13:\n      tag_67\n      tag_68\n      jump\t// in\n    tag_67:\n      mload(0x40)\n      tag_69\n      swap2\n      swap1\n      tag_31\n      jump\t// in\n    tag_69:\n      mload(0x40)\n      dup1\n      swap2\n      sub\n      swap1\n      return\n        /* \"ERC721/ERC721.sol\":2586:2796  function setApprovalForAll(address operator, bool approved) external override {\r... */\n    tag_14:\n      tag_70\n      0x04\n      dup1\n      calldatasize\n      sub\n      dup2\n      add\n      swap1\n      tag_71\n      swap2\n      swap1\n      tag_72\n      jump\t// in\n    tag_71:\n      tag_73\n      jump\t// in\n    tag_70:\n      stop\n        /* \"ERC721/ERC721.sol\":6261:6643  function safeTransferFrom(\r... */\n    tag_15:\n      tag_74\n      0x04\n      dup1\n      calldatasize\n      sub\n      dup2\n      add\n      swap1\n      tag_75\n      swap2\n      swap1\n      tag_76\n      jump\t// in\n    tag_75:\n      tag_77\n      jump\t// in\n    tag_74:\n      stop\n        /* \"ERC721/ERC721.sol\":8869:9185  function tokenURI(uint256 tokenId) public view virtual override returns (string memory) {\r... */\n    tag_16:\n      tag_78\n      0x04\n      dup1\n      calldatasize\n      sub\n      dup2\n      add\n      swap1\n      tag_79\n      swap2\n      swap1\n      tag_34\n      jump\t// in\n    tag_79:\n      tag_80\n      jump\t// in\n    tag_78:\n      mload(0x40)\n      tag_81\n      swap2\n      swap1\n      tag_31\n      jump\t// in\n    tag_81:\n      mload(0x40)\n      dup1\n      swap2\n      sub\n      swap1\n      return\n        /* \"ERC721/ERC721.sol\":2254:2453  function isApprovedForAll(address owner, address operator)\r... */\n    tag_17:\n      tag_82\n      0x04\n      dup1\n      calldatasize\n      sub\n      dup2\n      add\n      swap1\n      tag_83\n      swap2\n      swap1\n      tag_84\n      jump\t// in\n    tag_83:\n      tag_85\n      jump\t// in\n    tag_82:\n      mload(0x40)\n      tag_86\n      swap2\n      swap1\n      tag_27\n      jump\t// in\n    tag_86:\n      mload(0x40)\n      dup1\n      swap2\n      sub\n      swap1\n      return\n        /* \"默克尔树/MerkleTree.sol\":1313:1342  bytes32 immutable public root */\n    tag_18:\n      tag_87\n      tag_88\n      jump\t// in\n    tag_87:\n      mload(0x40)\n      tag_89\n      swap2\n      swap1\n      tag_90\n      jump\t// in\n    tag_89:\n      mload(0x40)\n      dup1\n      swap2\n      sub\n      swap1\n      return\n        /* \"ERC721/ERC721.sol\":1235:1562  function supportsInterface(bytes4 interfaceId)\r... */\n    tag_25:\n        /* \"ERC721/ERC721.sol\":1350:1354  bool */\n      0x00\n        /* \"ERC721/ERC721.sol\":1407:1432  type(IERC721).interfaceId */\n      0x80ac58cd00000000000000000000000000000000000000000000000000000000\n        /* \"ERC721/ERC721.sol\":1392:1432  interfaceId == type(IERC721).interfaceId */\n      not(0xffffffffffffffffffffffffffffffffffffffffffffffffffffffff)\n      and\n        /* \"ERC721/ERC721.sol\":1392:1403  interfaceId */\n      dup3\n        /* \"ERC721/ERC721.sol\":1392:1432  interfaceId == type(IERC721).interfaceId */\n      not(0xffffffffffffffffffffffffffffffffffffffffffffffffffffffff)\n      and\n      eq\n        /* \"ERC721/ERC721.sol\":1392:1489  interfaceId == type(IERC721).interfaceId ||\r... */\n      dup1\n      tag_92\n      jumpi\n      pop\n        /* \"ERC721/ERC721.sol\":1464:1489  type(IERC165).interfaceId */\n      0x01ffc9a700000000000000000000000000000000000000000000000000000000\n        /* \"ERC721/ERC721.sol\":1449:1489  interfaceId == type(IERC165).interfaceId */\n      not(0xffffffffffffffffffffffffffffffffffffffffffffffffffffffff)\n      and\n        /* \"ERC721/ERC721.sol\":1449:1460  interfaceId */\n      dup3\n        /* \"ERC721/ERC721.sol\":1449:1489  interfaceId == type(IERC165).interfaceId */\n      not(0xffffffffffffffffffffffffffffffffffffffffffffffffffffffff)\n      and\n      eq\n        /* \"ERC721/ERC721.sol\":1392:1489  interfaceId == type(IERC721).interfaceId ||\r... */\n    tag_92:\n        /* \"ERC721/ERC721.sol\":1392:1554  interfaceId == type(IERC721).interfaceId ||\r... */\n      dup1\n      tag_93\n      jumpi\n      pop\n        /* \"ERC721/ERC721.sol\":1521:1554  type(IERC721Metadata).interfaceId */\n      0x5b5e139f00000000000000000000000000000000000000000000000000000000\n        /* \"ERC721/ERC721.sol\":1506:1554  interfaceId == type(IERC721Metadata).interfaceId */\n      not(0xffffffffffffffffffffffffffffffffffffffffffffffffffffffff)\n      and\n        /* \"ERC721/ERC721.sol\":1506:1517  interfaceId */\n      dup3\n        /* \"ERC721/ERC721.sol\":1506:1554  interfaceId == type(IERC721Metadata).interfaceId */\n      not(0xffffffffffffffffffffffffffffffffffffffffffffffffffffffff)\n      and\n      eq\n        /* \"ERC721/ERC721.sol\":1392:1554  interfaceId == type(IERC721).interfaceId ||\r... */\n    tag_93:\n        /* \"ERC721/ERC721.sol\":1372:1554  return\r... */\n      swap1\n      pop\n        /* \"ERC721/ERC721.sol\":1235:1562  function supportsInterface(bytes4 interfaceId)\r... */\n      swap2\n      swap1\n      pop\n      jump\t// out\n        /* \"ERC721/ERC721.sol\":459:486  string public override name */\n    tag_29:\n      0x00\n      dup1\n      sload\n      tag_94\n      swap1\n      tag_95\n      jump\t// in\n    tag_94:\n      dup1\n      0x1f\n      add\n      0x20\n      dup1\n      swap2\n      div\n      mul\n      0x20\n      add\n      mload(0x40)\n      swap1\n      dup2\n      add\n      0x40\n      mstore\n      dup1\n      swap3\n      swap2\n      swap1\n      dup2\n      dup2\n      mstore\n      0x20\n      add\n      dup3\n      dup1\n      sload\n      tag_96\n      swap1\n      tag_95\n      jump\t// in\n    tag_96:\n      dup1\n      iszero\n      tag_97\n      jumpi\n      dup1\n      0x1f\n      lt\n      tag_98\n      jumpi\n      0x0100\n      dup1\n      dup4\n      sload\n      div\n      mul\n      dup4\n      mstore\n      swap2\n      0x20\n      add\n      swap2\n      jump(tag_97)\n    tag_98:\n      dup3\n      add\n      swap2\n      swap1\n      0x00\n      mstore\n      keccak256(0x00, 0x20)\n      swap1\n    tag_99:\n      dup2\n      sload\n      dup2\n      mstore\n      swap1\n      0x01\n      add\n      swap1\n      0x20\n      add\n      dup1\n      dup4\n      gt\n      tag_99\n      jumpi\n      dup3\n      swap1\n      sub\n      0x1f\n      and\n      dup3\n      add\n      swap2\n    tag_97:\n      pop\n      pop\n      pop\n      pop\n      pop\n      dup2\n      jump\t// out\n        /* \"ERC721/ERC721.sol\":2901:3100  function getApproved(uint tokenId) external view override returns (address) {\r... */\n    tag_35:\n        /* \"ERC721/ERC721.sol\":2968:2975  address */\n      0x00\n        /* \"ERC721/ERC721.sol\":3024:3025  0 */\n      dup1\n        /* \"ERC721/ERC721.sol\":2996:3026  _owners[tokenId] != address(0) */\n      0xffffffffffffffffffffffffffffffffffffffff\n      and\n        /* \"ERC721/ERC721.sol\":2996:3003  _owners */\n      0x02\n        /* \"ERC721/ERC721.sol\":2996:3012  _owners[tokenId] */\n      0x00\n        /* \"ERC721/ERC721.sol\":3004:3011  tokenId */\n      dup5\n        /* \"ERC721/ERC721.sol\":2996:3012  _owners[tokenId] */\n      dup2\n      mstore\n      0x20\n      add\n      swap1\n      dup2\n      mstore\n      0x20\n      add\n      0x00\n      keccak256\n      0x00\n      swap1\n      sload\n      swap1\n      0x0100\n      exp\n      swap1\n      div\n      0xffffffffffffffffffffffffffffffffffffffff\n      and\n        /* \"ERC721/ERC721.sol\":2996:3026  _owners[tokenId] != address(0) */\n      0xffffffffffffffffffffffffffffffffffffffff\n      and\n      eq\n      iszero\n        /* \"ERC721/ERC721.sol\":2988:3050  require(_owners[tokenId] != address(0), \"token doesn't exist\") */\n      tag_101\n      jumpi\n      mload(0x40)\n      0x08c379a000000000000000000000000000000000000000000000000000000000\n      dup2\n      mstore\n      0x04\n      add\n      tag_102\n      swap1\n      tag_103\n      jump\t// in\n    tag_102:\n      mload(0x40)\n      dup1\n      swap2\n      sub\n      swap1\n      revert\n    tag_101:\n        /* \"ERC721/ERC721.sol\":3068:3083  _tokenApprovals */\n      0x04\n        /* \"ERC721/ERC721.sol\":3068:3092  _tokenApprovals[tokenId] */\n      0x00\n        /* \"ERC721/ERC721.sol\":3084:3091  tokenId */\n      dup4\n        /* \"ERC721/ERC721.sol\":3068:3092  _tokenApprovals[tokenId] */\n      dup2\n      mstore\n      0x20\n      add\n      swap1\n      dup2\n      mstore\n      0x20\n      add\n      0x00\n      keccak256\n      0x00\n      swap1\n      sload\n      swap1\n      0x0100\n      exp\n      swap1\n      div\n      0xffffffffffffffffffffffffffffffffffffffff\n      and\n        /* \"ERC721/ERC721.sol\":3061:3092  return _tokenApprovals[tokenId] */\n      swap1\n      pop\n        /* \"ERC721/ERC721.sol\":2901:3100  function getApproved(uint tokenId) external view override returns (address) {\r... */\n      swap2\n      swap1\n      pop\n      jump\t// out\n        /* \"ERC721/ERC721.sol\":3587:3889  function approve(address to, uint tokenId) external override {\r... */\n    tag_41:\n        /* \"ERC721/ERC721.sol\":3659:3672  address owner */\n      0x00\n        /* \"ERC721/ERC721.sol\":3675:3682  _owners */\n      0x02\n        /* \"ERC721/ERC721.sol\":3675:3691  _owners[tokenId] */\n      0x00\n        /* \"ERC721/ERC721.sol\":3683:3690  tokenId */\n      dup4\n        /* \"ERC721/ERC721.sol\":3675:3691  _owners[tokenId] */\n      dup2\n      mstore\n      0x20\n      add\n      swap1\n      dup2\n      mstore\n      0x20\n      add\n      0x00\n      keccak256\n      0x00\n      swap1\n      sload\n      swap1\n      0x0100\n      exp\n      swap1\n      div\n      0xffffffffffffffffffffffffffffffffffffffff\n      and\n        /* \"ERC721/ERC721.sol\":3659:3691  address owner = _owners[tokenId] */\n      swap1\n      pop\n        /* \"ERC721/ERC721.sol\":3738:3743  owner */\n      dup1\n        /* \"ERC721/ERC721.sol\":3724:3743  msg.sender == owner */\n      0xffffffffffffffffffffffffffffffffffffffff\n      and\n        /* \"ERC721/ERC721.sol\":3724:3734  msg.sender */\n      caller\n        /* \"ERC721/ERC721.sol\":3724:3743  msg.sender == owner */\n      0xffffffffffffffffffffffffffffffffffffffff\n      and\n      eq\n        /* \"ERC721/ERC721.sol\":3724:3784  msg.sender == owner || _operatorApprovals[owner][msg.sender] */\n      dup1\n      tag_105\n      jumpi\n      pop\n        /* \"ERC721/ERC721.sol\":3747:3765  _operatorApprovals */\n      0x05\n        /* \"ERC721/ERC721.sol\":3747:3772  _operatorApprovals[owner] */\n      0x00\n        /* \"ERC721/ERC721.sol\":3766:3771  owner */\n      dup3\n        /* \"ERC721/ERC721.sol\":3747:3772  _operatorApprovals[owner] */\n      0xffffffffffffffffffffffffffffffffffffffff\n      and\n      0xffffffffffffffffffffffffffffffffffffffff\n      and\n      dup2\n      mstore\n      0x20\n      add\n      swap1\n      dup2\n      mstore\n      0x20\n      add\n      0x00\n      keccak256\n        /* \"ERC721/ERC721.sol\":3747:3784  _operatorApprovals[owner][msg.sender] */\n      0x00\n        /* \"ERC721/ERC721.sol\":3773:3783  msg.sender */\n      caller\n        /* \"ERC721/ERC721.sol\":3747:3784  _operatorApprovals[owner][msg.sender] */\n      0xffffffffffffffffffffffffffffffffffffffff\n      and\n      0xffffffffffffffffffffffffffffffffffffffff\n      and\n      dup2\n      mstore\n      0x20\n      add\n      swap1\n      dup2\n      mstore\n      0x20\n      add\n      0x00\n      keccak256\n      0x00\n      swap1\n      sload\n      swap1\n      0x0100\n      exp\n      swap1\n      div\n      0xff\n      and\n        /* \"ERC721/ERC721.sol\":3724:3784  msg.sender == owner || _operatorApprovals[owner][msg.sender] */\n    tag_105:\n        /* \"ERC721/ERC721.sol\":3702:3842  require(\r... */\n      tag_106\n      jumpi\n      mload(0x40)\n      0x08c379a000000000000000000000000000000000000000000000000000000000\n      dup2\n      mstore\n      0x04\n      add\n      tag_107\n      swap1\n      tag_108\n      jump\t// in\n    tag_107:\n      mload(0x40)\n      dup1\n      swap2\n      sub\n      swap1\n      revert\n    tag_106:\n        /* \"ERC721/ERC721.sol\":3853:3881  _approve(owner, to, tokenId) */\n      tag_109\n        /* \"ERC721/ERC721.sol\":3862:3867  owner */\n      dup2\n        /* \"ERC721/ERC721.sol\":3869:3871  to */\n      dup5\n        /* \"ERC721/ERC721.sol\":3873:3880  tokenId */\n      dup5\n        /* \"ERC721/ERC721.sol\":3853:3861  _approve */\n      tag_110\n        /* \"ERC721/ERC721.sol\":3853:3881  _approve(owner, to, tokenId) */\n      jump\t// in\n    tag_109:\n        /* \"ERC721/ERC721.sol\":3587:3889  function approve(address to, uint tokenId) external override {\r... */\n      pop\n      pop\n      pop\n      jump\t// out\n        /* \"ERC721/ERC721.sol\":5045:5385  function transferFrom(\r... */\n    tag_45:\n        /* \"ERC721/ERC721.sol\":5170:5183  address owner */\n      0x00\n        /* \"ERC721/ERC721.sol\":5186:5202  ownerOf(tokenId) */\n      tag_112\n        /* \"ERC721/ERC721.sol\":5194:5201  tokenId */\n      dup3\n        /* \"ERC721/ERC721.sol\":5186:5193  ownerOf */\n      tag_56\n        /* \"ERC721/ERC721.sol\":5186:5202  ownerOf(tokenId) */\n      jump\t// in\n    tag_112:\n        /* \"ERC721/ERC721.sol\":5170:5202  address owner = ownerOf(tokenId) */\n      swap1\n      pop\n        /* \"ERC721/ERC721.sol\":5235:5281  _isApprovedOrOwner(owner, msg.sender, tokenId) */\n      tag_113\n        /* \"ERC721/ERC721.sol\":5254:5259  owner */\n      dup2\n        /* \"ERC721/ERC721.sol\":5261:5271  msg.sender */\n      caller\n        /* \"ERC721/ERC721.sol\":5273:5280  tokenId */\n      dup5\n        /* \"ERC721/ERC721.sol\":5235:5253  _isApprovedOrOwner */\n      tag_114\n        /* \"ERC721/ERC721.sol\":5235:5281  _isApprovedOrOwner(owner, msg.sender, tokenId) */\n      jump\t// in\n    tag_113:\n        /* \"ERC721/ERC721.sol\":5213:5331  require(\r... */\n      tag_115\n      jumpi\n      mload(0x40)\n      0x08c379a000000000000000000000000000000000000000000000000000000000\n      dup2\n      mstore\n      0x04\n      add\n      tag_116\n      swap1\n      tag_117\n      jump\t// in\n    tag_116:\n      mload(0x40)\n      dup1\n      swap2\n      sub\n      swap1\n      revert\n    tag_115:\n        /* \"ERC721/ERC721.sol\":5342:5377  _transfer(owner, from, to, tokenId) */\n      tag_118\n        /* \"ERC721/ERC721.sol\":5352:5357  owner */\n      dup2\n        /* \"ERC721/ERC721.sol\":5359:5363  from */\n      dup6\n        /* \"ERC721/ERC721.sol\":5365:5367  to */\n      dup6\n        /* \"ERC721/ERC721.sol\":5369:5376  tokenId */\n      dup6\n        /* \"ERC721/ERC721.sol\":5342:5351  _transfer */\n      tag_119\n        /* \"ERC721/ERC721.sol\":5342:5377  _transfer(owner, from, to, tokenId) */\n      jump\t// in\n    tag_118:\n        /* \"ERC721/ERC721.sol\":5045:5385  function transferFrom(\r... */\n      pop\n      pop\n      pop\n      pop\n      jump\t// out\n        /* \"ERC721/ERC721.sol\":6688:6864  function safeTransferFrom(\r... */\n    tag_48:\n        /* \"ERC721/ERC721.sol\":6817:6856  safeTransferFrom(from, to, tokenId, \"\") */\n      tag_121\n        /* \"ERC721/ERC721.sol\":6834:6838  from */\n      dup4\n        /* \"ERC721/ERC721.sol\":6840:6842  to */\n      dup4\n        /* \"ERC721/ERC721.sol\":6844:6851  tokenId */\n      dup4\n        /* \"ERC721/ERC721.sol\":6817:6856  safeTransferFrom(from, to, tokenId, \"\") */\n      mload(0x40)\n      dup1\n      0x20\n      add\n      0x40\n      mstore\n      dup1\n      0x00\n      dup2\n      mstore\n      pop\n        /* \"ERC721/ERC721.sol\":6817:6833  safeTransferFrom */\n      tag_77\n        /* \"ERC721/ERC721.sol\":6817:6856  safeTransferFrom(from, to, tokenId, \"\") */\n      jump\t// in\n    tag_121:\n        /* \"ERC721/ERC721.sol\":6688:6864  function safeTransferFrom(\r... */\n      pop\n      pop\n      pop\n      jump\t// out\n        /* \"默克尔树/MerkleTree.sol\":1368:1413  mapping(address => bool) public mintedAddress */\n    tag_52:\n      mstore(0x20, 0x06)\n      dup1\n      0x00\n      mstore\n      keccak256(0x00, 0x40)\n      0x00\n      swap2\n      pop\n      sload\n      swap1\n      0x0100\n      exp\n      swap1\n      div\n      0xff\n      and\n      dup2\n      jump\t// out\n        /* \"ERC721/ERC721.sol\":1921:2102  function ownerOf(uint tokenId) public view override returns (address owner) {\r... */\n    tag_56:\n        /* \"ERC721/ERC721.sol\":1982:1995  address owner */\n      0x00\n        /* \"ERC721/ERC721.sol\":2016:2023  _owners */\n      0x02\n        /* \"ERC721/ERC721.sol\":2016:2032  _owners[tokenId] */\n      0x00\n        /* \"ERC721/ERC721.sol\":2024:2031  tokenId */\n      dup4\n        /* \"ERC721/ERC721.sol\":2016:2032  _owners[tokenId] */\n      dup2\n      mstore\n      0x20\n      add\n      swap1\n      dup2\n      mstore\n      0x20\n      add\n      0x00\n      keccak256\n      0x00\n      swap1\n      sload\n      swap1\n      0x0100\n      exp\n      swap1\n      div\n      0xffffffffffffffffffffffffffffffffffffffff\n      and\n        /* \"ERC721/ERC721.sol\":2008:2032  owner = _owners[tokenId] */\n      swap1\n      pop\n        /* \"ERC721/ERC721.sol\":2068:2069  0 */\n      0x00\n        /* \"ERC721/ERC721.sol\":2051:2070  owner != address(0) */\n      0xffffffffffffffffffffffffffffffffffffffff\n      and\n        /* \"ERC721/ERC721.sol\":2051:2056  owner */\n      dup2\n        /* \"ERC721/ERC721.sol\":2051:2070  owner != address(0) */\n      0xffffffffffffffffffffffffffffffffffffffff\n      and\n      eq\n      iszero\n        /* \"ERC721/ERC721.sol\":2043:2094  require(owner != address(0), \"token doesn't exist\") */\n      tag_123\n      jumpi\n      mload(0x40)\n      0x08c379a000000000000000000000000000000000000000000000000000000000\n      dup2\n      mstore\n      0x04\n      add\n      tag_124\n      swap1\n      tag_103\n      jump\t// in\n    tag_124:\n      mload(0x40)\n      dup1\n      swap2\n      sub\n      swap1\n      revert\n    tag_123:\n        /* \"ERC721/ERC721.sol\":1921:2102  function ownerOf(uint tokenId) public view override returns (address owner) {\r... */\n      swap2\n      swap1\n      pop\n      jump\t// out\n        /* \"默克尔树/MerkleTree.sol\":1729:2119  function mint(address account, uint256 tokenId, bytes32[] calldata proof)\r... */\n    tag_61:\n        /* \"默克尔树/MerkleTree.sol\":1841:1871  _verify(_leaf(account), proof) */\n      tag_126\n        /* \"默克尔树/MerkleTree.sol\":1849:1863  _leaf(account) */\n      tag_127\n        /* \"默克尔树/MerkleTree.sol\":1855:1862  account */\n      dup6\n        /* \"默克尔树/MerkleTree.sol\":1849:1854  _leaf */\n      tag_128\n        /* \"默克尔树/MerkleTree.sol\":1849:1863  _leaf(account) */\n      jump\t// in\n    tag_127:\n        /* \"默克尔树/MerkleTree.sol\":1865:1870  proof */\n      dup4\n      dup4\n        /* \"默克尔树/MerkleTree.sol\":1841:1871  _verify(_leaf(account), proof) */\n      dup1\n      dup1\n      0x20\n      mul\n      0x20\n      add\n      mload(0x40)\n      swap1\n      dup2\n      add\n      0x40\n      mstore\n      dup1\n      swap4\n      swap3\n      swap2\n      swap1\n      dup2\n      dup2\n      mstore\n      0x20\n      add\n      dup4\n      dup4\n      0x20\n      mul\n      dup1\n      dup3\n      dup5\n      calldatacopy\n      0x00\n      dup2\n      dup5\n      add\n      mstore\n      not(0x1f)\n      0x1f\n      dup3\n      add\n      and\n      swap1\n      pop\n      dup1\n      dup4\n      add\n      swap3\n      pop\n      pop\n      pop\n      pop\n      pop\n      pop\n      pop\n        /* \"默克尔树/MerkleTree.sol\":1841:1848  _verify */\n      tag_129\n        /* \"默克尔树/MerkleTree.sol\":1841:1871  _verify(_leaf(account), proof) */\n      jump\t// in\n    tag_126:\n        /* \"默克尔树/MerkleTree.sol\":1833:1896  require(_verify(_leaf(account), proof), \"Invalid merkle proof\") */\n      tag_130\n      jumpi\n      mload(0x40)\n      0x08c379a000000000000000000000000000000000000000000000000000000000\n      dup2\n      mstore\n      0x04\n      add\n      tag_131\n      swap1\n      tag_132\n      jump\t// in\n    tag_131:\n      mload(0x40)\n      dup1\n      swap2\n      sub\n      swap1\n      revert\n    tag_130:\n        /* \"默克尔树/MerkleTree.sol\":1938:1951  mintedAddress */\n      0x06\n        /* \"默克尔树/MerkleTree.sol\":1938:1960  mintedAddress[account] */\n      0x00\n        /* \"默克尔树/MerkleTree.sol\":1952:1959  account */\n      dup6\n        /* \"默克尔树/MerkleTree.sol\":1938:1960  mintedAddress[account] */\n      0xffffffffffffffffffffffffffffffffffffffff\n      and\n      0xffffffffffffffffffffffffffffffffffffffff\n      and\n      dup2\n      mstore\n      0x20\n      add\n      swap1\n      dup2\n      mstore\n      0x20\n      add\n      0x00\n      keccak256\n      0x00\n      swap1\n      sload\n      swap1\n      0x0100\n      exp\n      swap1\n      div\n      0xff\n      and\n        /* \"默克尔树/MerkleTree.sol\":1937:1960  !mintedAddress[account] */\n      iszero\n        /* \"默克尔树/MerkleTree.sol\":1929:1980  require(!mintedAddress[account], \"Already minted!\") */\n      tag_133\n      jumpi\n      mload(0x40)\n      0x08c379a000000000000000000000000000000000000000000000000000000000\n      dup2\n      mstore\n      0x04\n      add\n      tag_134\n      swap1\n      tag_135\n      jump\t// in\n    tag_134:\n      mload(0x40)\n      dup1\n      swap2\n      sub\n      swap1\n      revert\n    tag_133:\n        /* \"默克尔树/MerkleTree.sol\":2014:2037  _mint(account, tokenId) */\n      tag_136\n        /* \"默克尔树/MerkleTree.sol\":2020:2027  account */\n      dup5\n        /* \"默克尔树/MerkleTree.sol\":2029:2036  tokenId */\n      dup5\n        /* \"默克尔树/MerkleTree.sol\":2014:2019  _mint */\n      tag_137\n        /* \"默克尔树/MerkleTree.sol\":2014:2037  _mint(account, tokenId) */\n      jump\t// in\n    tag_136:\n        /* \"默克尔树/MerkleTree.sol\":2081:2085  true */\n      0x01\n        /* \"默克尔树/MerkleTree.sol\":2056:2069  mintedAddress */\n      0x06\n        /* \"默克尔树/MerkleTree.sol\":2056:2078  mintedAddress[account] */\n      0x00\n        /* \"默克尔树/MerkleTree.sol\":2070:2077  account */\n      dup7\n        /* \"默克尔树/MerkleTree.sol\":2056:2078  mintedAddress[account] */\n      0xffffffffffffffffffffffffffffffffffffffff\n      and\n      0xffffffffffffffffffffffffffffffffffffffff\n      and\n      dup2\n      mstore\n      0x20\n      add\n      swap1\n      dup2\n      mstore\n      0x20\n      add\n      0x00\n      keccak256\n      0x00\n        /* \"默克尔树/MerkleTree.sol\":2056:2085  mintedAddress[account] = true */\n      0x0100\n      exp\n      dup2\n      sload\n      dup2\n      0xff\n      mul\n      not\n      and\n      swap1\n      dup4\n      iszero\n      iszero\n      mul\n      or\n      swap1\n      sstore\n      pop\n        /* \"默克尔树/MerkleTree.sol\":1729:2119  function mint(address account, uint256 tokenId, bytes32[] calldata proof)\r... */\n      pop\n      pop\n      pop\n      pop\n      jump\t// out\n        /* \"ERC721/ERC721.sol\":1658:1835  function balanceOf(address owner) external view override returns (uint) {\r... */\n    tag_64:\n        /* \"ERC721/ERC721.sol\":1724:1728  uint */\n      0x00\n        /* \"ERC721/ERC721.sol\":1766:1767  0 */\n      dup1\n        /* \"ERC721/ERC721.sol\":1749:1768  owner != address(0) */\n      0xffffffffffffffffffffffffffffffffffffffff\n      and\n        /* \"ERC721/ERC721.sol\":1749:1754  owner */\n      dup3\n        /* \"ERC721/ERC721.sol\":1749:1768  owner != address(0) */\n      0xffffffffffffffffffffffffffffffffffffffff\n      and\n      eq\n      iszero\n        /* \"ERC721/ERC721.sol\":1741:1793  require(owner != address(0), \"owner = zero address\") */\n      tag_139\n      jumpi\n      mload(0x40)\n      0x08c379a000000000000000000000000000000000000000000000000000000000\n      dup2\n      mstore\n      0x04\n      add\n      tag_140\n      swap1\n      tag_141\n      jump\t// in\n    tag_140:\n      mload(0x40)\n      dup1\n      swap2\n      sub\n      swap1\n      revert\n    tag_139:\n        /* \"ERC721/ERC721.sol\":1811:1820  _balances */\n      0x03\n        /* \"ERC721/ERC721.sol\":1811:1827  _balances[owner] */\n      0x00\n        /* \"ERC721/ERC721.sol\":1821:1826  owner */\n      dup4\n        /* \"ERC721/ERC721.sol\":1811:1827  _balances[owner] */\n      0xffffffffffffffffffffffffffffffffffffffff\n      and\n      0xffffffffffffffffffffffffffffffffffffffff\n      and\n      dup2\n      mstore\n      0x20\n      add\n      swap1\n      dup2\n      mstore\n      0x20\n      add\n      0x00\n      keccak256\n      sload\n        /* \"ERC721/ERC721.sol\":1804:1827  return _balances[owner] */\n      swap1\n      pop\n        /* \"ERC721/ERC721.sol\":1658:1835  function balanceOf(address owner) external view override returns (uint) {\r... */\n      swap2\n      swap1\n      pop\n      jump\t// out\n        /* \"ERC721/ERC721.sol\":513:542  string public override symbol */\n    tag_68:\n      0x01\n      dup1\n      sload\n      tag_142\n      swap1\n      tag_95\n      jump\t// in\n    tag_142:\n      dup1\n      0x1f\n      add\n      0x20\n      dup1\n      swap2\n      div\n      mul\n      0x20\n      add\n      mload(0x40)\n      swap1\n      dup2\n      add\n      0x40\n      mstore\n      dup1\n      swap3\n      swap2\n      swap1\n      dup2\n      dup2\n      mstore\n      0x20\n      add\n      dup3\n      dup1\n      sload\n      tag_143\n      swap1\n      tag_95\n      jump\t// in\n    tag_143:\n      dup1\n      iszero\n      tag_144\n      jumpi\n      dup1\n      0x1f\n      lt\n      tag_145\n      jumpi\n      0x0100\n      dup1\n      dup4\n      sload\n      div\n      mul\n      dup4\n      mstore\n      swap2\n      0x20\n      add\n      swap2\n      jump(tag_144)\n    tag_145:\n      dup3\n      add\n      swap2\n      swap1\n      0x00\n      mstore\n      keccak256(0x00, 0x20)\n      swap1\n    tag_146:\n      dup2\n      sload\n      dup2\n      mstore\n      swap1\n      0x01\n      add\n      swap1\n      0x20\n      add\n      dup1\n      dup4\n      gt\n      tag_146\n      jumpi\n      dup3\n      swap1\n      sub\n      0x1f\n      and\n      dup3\n      add\n      swap2\n    tag_144:\n      pop\n      pop\n      pop\n      pop\n      pop\n      dup2\n      jump\t// out\n        /* \"ERC721/ERC721.sol\":2586:2796  function setApprovalForAll(address operator, bool approved) external override {\r... */\n    tag_73:\n        /* \"ERC721/ERC721.sol\":2718:2726  approved */\n      dup1\n        /* \"ERC721/ERC721.sol\":2675:2693  _operatorApprovals */\n      0x05\n        /* \"ERC721/ERC721.sol\":2675:2705  _operatorApprovals[msg.sender] */\n      0x00\n        /* \"ERC721/ERC721.sol\":2694:2704  msg.sender */\n      caller\n        /* \"ERC721/ERC721.sol\":2675:2705  _operatorApprovals[msg.sender] */\n      0xffffffffffffffffffffffffffffffffffffffff\n      and\n      0xffffffffffffffffffffffffffffffffffffffff\n      and\n      dup2\n      mstore\n      0x20\n      add\n      swap1\n      dup2\n      mstore\n      0x20\n      add\n      0x00\n      keccak256\n        /* \"ERC721/ERC721.sol\":2675:2715  _operatorApprovals[msg.sender][operator] */\n      0x00\n        /* \"ERC721/ERC721.sol\":2706:2714  operator */\n      dup5\n        /* \"ERC721/ERC721.sol\":2675:2715  _operatorApprovals[msg.sender][operator] */\n      0xffffffffffffffffffffffffffffffffffffffff\n      and\n      0xffffffffffffffffffffffffffffffffffffffff\n      and\n      dup2\n      mstore\n      0x20\n      add\n      swap1\n      dup2\n      mstore\n      0x20\n      add\n      0x00\n      keccak256\n      0x00\n        /* \"ERC721/ERC721.sol\":2675:2726  _operatorApprovals[msg.sender][operator] = approved */\n      0x0100\n      exp\n      dup2\n      sload\n      dup2\n      0xff\n      mul\n      not\n      and\n      swap1\n      dup4\n      iszero\n      iszero\n      mul\n      or\n      swap1\n      sstore\n      pop\n        /* \"ERC721/ERC721.sol\":2769:2777  operator */\n      dup2\n        /* \"ERC721/ERC721.sol\":2742:2788  ApprovalForAll(msg.sender, operator, approved) */\n      0xffffffffffffffffffffffffffffffffffffffff\n      and\n        /* \"ERC721/ERC721.sol\":2757:2767  msg.sender */\n      caller\n        /* \"ERC721/ERC721.sol\":2742:2788  ApprovalForAll(msg.sender, operator, approved) */\n      0xffffffffffffffffffffffffffffffffffffffff\n      and\n      0x17307eab39ab6107e8899845ad3d59bd9653f200f220920489ca2b5937696c31\n        /* \"ERC721/ERC721.sol\":2779:2787  approved */\n      dup4\n        /* \"ERC721/ERC721.sol\":2742:2788  ApprovalForAll(msg.sender, operator, approved) */\n      mload(0x40)\n      tag_148\n      swap2\n      swap1\n      tag_27\n      jump\t// in\n    tag_148:\n      mload(0x40)\n      dup1\n      swap2\n      sub\n      swap1\n      log3\n        /* \"ERC721/ERC721.sol\":2586:2796  function setApprovalForAll(address operator, bool approved) external override {\r... */\n      pop\n      pop\n      jump\t// out\n        /* \"ERC721/ERC721.sol\":6261:6643  function safeTransferFrom(\r... */\n    tag_77:\n        /* \"ERC721/ERC721.sol\":6417:6430  address owner */\n      0x00\n        /* \"ERC721/ERC721.sol\":6433:6449  ownerOf(tokenId) */\n      tag_150\n        /* \"ERC721/ERC721.sol\":6441:6448  tokenId */\n      dup4\n        /* \"ERC721/ERC721.sol\":6433:6440  ownerOf */\n      tag_56\n        /* \"ERC721/ERC721.sol\":6433:6449  ownerOf(tokenId) */\n      jump\t// in\n    tag_150:\n        /* \"ERC721/ERC721.sol\":6417:6449  address owner = ownerOf(tokenId) */\n      swap1\n      pop\n        /* \"ERC721/ERC721.sol\":6482:6528  _isApprovedOrOwner(owner, msg.sender, tokenId) */\n      tag_151\n        /* \"ERC721/ERC721.sol\":6501:6506  owner */\n      dup2\n        /* \"ERC721/ERC721.sol\":6508:6518  msg.sender */\n      caller\n        /* \"ERC721/ERC721.sol\":6520:6527  tokenId */\n      dup6\n        /* \"ERC721/ERC721.sol\":6482:6500  _isApprovedOrOwner */\n      tag_114\n        /* \"ERC721/ERC721.sol\":6482:6528  _isApprovedOrOwner(owner, msg.sender, tokenId) */\n      jump\t// in\n    tag_151:\n        /* \"ERC721/ERC721.sol\":6460:6578  require(\r... */\n      tag_152\n      jumpi\n      mload(0x40)\n      0x08c379a000000000000000000000000000000000000000000000000000000000\n      dup2\n      mstore\n      0x04\n      add\n      tag_153\n      swap1\n      tag_117\n      jump\t// in\n    tag_153:\n      mload(0x40)\n      dup1\n      swap2\n      sub\n      swap1\n      revert\n    tag_152:\n        /* \"ERC721/ERC721.sol\":6589:6635  _safeTransfer(owner, from, to, tokenId, _data) */\n      tag_154\n        /* \"ERC721/ERC721.sol\":6603:6608  owner */\n      dup2\n        /* \"ERC721/ERC721.sol\":6610:6614  from */\n      dup7\n        /* \"ERC721/ERC721.sol\":6616:6618  to */\n      dup7\n        /* \"ERC721/ERC721.sol\":6620:6627  tokenId */\n      dup7\n        /* \"ERC721/ERC721.sol\":6629:6634  _data */\n      dup7\n        /* \"ERC721/ERC721.sol\":6589:6602  _safeTransfer */\n      tag_155\n        /* \"ERC721/ERC721.sol\":6589:6635  _safeTransfer(owner, from, to, tokenId, _data) */\n      jump\t// in\n    tag_154:\n        /* \"ERC721/ERC721.sol\":6261:6643  function safeTransferFrom(\r... */\n      pop\n      pop\n      pop\n      pop\n      pop\n      jump\t// out\n        /* \"ERC721/ERC721.sol\":8869:9185  function tokenURI(uint256 tokenId) public view virtual override returns (string memory) {\r... */\n    tag_80:\n        /* \"ERC721/ERC721.sol\":8942:8955  string memory */\n      0x60\n        /* \"ERC721/ERC721.sol\":9004:9005  0 */\n      0x00\n        /* \"ERC721/ERC721.sol\":8976:9006  _owners[tokenId] != address(0) */\n      0xffffffffffffffffffffffffffffffffffffffff\n      and\n        /* \"ERC721/ERC721.sol\":8976:8983  _owners */\n      0x02\n        /* \"ERC721/ERC721.sol\":8976:8992  _owners[tokenId] */\n      0x00\n        /* \"ERC721/ERC721.sol\":8984:8991  tokenId */\n      dup5\n        /* \"ERC721/ERC721.sol\":8976:8992  _owners[tokenId] */\n      dup2\n      mstore\n      0x20\n      add\n      swap1\n      dup2\n      mstore\n      0x20\n      add\n      0x00\n      keccak256\n      0x00\n      swap1\n      sload\n      swap1\n      0x0100\n      exp\n      swap1\n      div\n      0xffffffffffffffffffffffffffffffffffffffff\n      and\n        /* \"ERC721/ERC721.sol\":8976:9006  _owners[tokenId] != address(0) */\n      0xffffffffffffffffffffffffffffffffffffffff\n      and\n      eq\n      iszero\n        /* \"ERC721/ERC721.sol\":8968:9026  require(_owners[tokenId] != address(0), \"Token Not Exist\") */\n      tag_157\n      jumpi\n      mload(0x40)\n      0x08c379a000000000000000000000000000000000000000000000000000000000\n      dup2\n      mstore\n      0x04\n      add\n      tag_158\n      swap1\n      tag_159\n      jump\t// in\n    tag_158:\n      mload(0x40)\n      dup1\n      swap2\n      sub\n      swap1\n      revert\n    tag_157:\n        /* \"ERC721/ERC721.sol\":9039:9060  string memory baseURI */\n      0x00\n        /* \"ERC721/ERC721.sol\":9063:9073  _baseURI() */\n      tag_160\n        /* \"ERC721/ERC721.sol\":9063:9071  _baseURI */\n      tag_161\n        /* \"ERC721/ERC721.sol\":9063:9073  _baseURI() */\n      jump\t// in\n    tag_160:\n        /* \"ERC721/ERC721.sol\":9039:9073  string memory baseURI = _baseURI() */\n      swap1\n      pop\n        /* \"ERC721/ERC721.sol\":9115:9116  0 */\n      0x00\n        /* \"ERC721/ERC721.sol\":9097:9104  baseURI */\n      dup2\n        /* \"ERC721/ERC721.sol\":9091:9112  bytes(baseURI).length */\n      mload\n        /* \"ERC721/ERC721.sol\":9091:9116  bytes(baseURI).length > 0 */\n      gt\n        /* \"ERC721/ERC721.sol\":9091:9177  bytes(baseURI).length > 0 ? string(abi.encodePacked(baseURI, tokenId.toString())) : \"\" */\n      tag_162\n      jumpi\n      mload(0x40)\n      dup1\n      0x20\n      add\n      0x40\n      mstore\n      dup1\n      0x00\n      dup2\n      mstore\n      pop\n      jump(tag_163)\n    tag_162:\n        /* \"ERC721/ERC721.sol\":9143:9150  baseURI */\n      dup1\n        /* \"ERC721/ERC721.sol\":9152:9170  tokenId.toString() */\n      tag_164\n        /* \"ERC721/ERC721.sol\":9152:9159  tokenId */\n      dup5\n        /* \"ERC721/ERC721.sol\":9152:9168  tokenId.toString */\n      tag_165\n        /* \"ERC721/ERC721.sol\":9152:9170  tokenId.toString() */\n      jump\t// in\n    tag_164:\n        /* \"ERC721/ERC721.sol\":9126:9171  abi.encodePacked(baseURI, tokenId.toString()) */\n      add(0x20, mload(0x40))\n      tag_166\n      swap3\n      swap2\n      swap1\n      tag_167\n      jump\t// in\n    tag_166:\n      mload(0x40)\n      0x20\n      dup2\n      dup4\n      sub\n      sub\n      dup2\n      mstore\n      swap1\n      0x40\n      mstore\n        /* \"ERC721/ERC721.sol\":9091:9177  bytes(baseURI).length > 0 ? string(abi.encodePacked(baseURI, tokenId.toString())) : \"\" */\n    tag_163:\n        /* \"ERC721/ERC721.sol\":9084:9177  return bytes(baseURI).length > 0 ? string(abi.encodePacked(baseURI, tokenId.toString())) : \"\" */\n      swap2\n      pop\n      pop\n        /* \"ERC721/ERC721.sol\":8869:9185  function tokenURI(uint256 tokenId) public view virtual override returns (string memory) {\r... */\n      swap2\n      swap1\n      pop\n      jump\t// out\n        /* \"ERC721/ERC721.sol\":2254:2453  function isApprovedForAll(address owner, address operator)\r... */\n    tag_85:\n        /* \"ERC721/ERC721.sol\":2381:2385  bool */\n      0x00\n        /* \"ERC721/ERC721.sol\":2410:2428  _operatorApprovals */\n      0x05\n        /* \"ERC721/ERC721.sol\":2410:2435  _operatorApprovals[owner] */\n      0x00\n        /* \"ERC721/ERC721.sol\":2429:2434  owner */\n      dup5\n        /* \"ERC721/ERC721.sol\":2410:2435  _operatorApprovals[owner] */\n      0xffffffffffffffffffffffffffffffffffffffff\n      and\n      0xffffffffffffffffffffffffffffffffffffffff\n      and\n      dup2\n      mstore\n      0x20\n      add\n      swap1\n      dup2\n      mstore\n      0x20\n      add\n      0x00\n      keccak256\n        /* \"ERC721/ERC721.sol\":2410:2445  _operatorApprovals[owner][operator] */\n      0x00\n        /* \"ERC721/ERC721.sol\":2436:2444  operator */\n      dup4\n        /* \"ERC721/ERC721.sol\":2410:2445  _operatorApprovals[owner][operator] */\n      0xffffffffffffffffffffffffffffffffffffffff\n      and\n      0xffffffffffffffffffffffffffffffffffffffff\n      and\n      dup2\n      mstore\n      0x20\n      add\n      swap1\n      dup2\n      mstore\n      0x20\n      add\n      0x00\n      keccak256\n      0x00\n      swap1\n      sload\n      swap1\n      0x0100\n      exp\n      swap1\n      div\n      0xff\n      and\n        /* \"ERC721/ERC721.sol\":2403:2445  return _operatorApprovals[owner][operator] */\n      swap1\n      pop\n        /* \"ERC721/ERC721.sol\":2254:2453  function isApprovedForAll(address owner, address operator)\r... */\n      swap3\n      swap2\n      pop\n      pop\n      jump\t// out\n        /* \"默克尔树/MerkleTree.sol\":1313:1342  bytes32 immutable public root */\n    tag_88:\n      immutable(\"0x70a74b75c4920e9bbb759cb5023e4c2f48a43033fa115214c8c6611c710b14c4\")\n      dup2\n      jump\t// out\n        /* \"ERC721/ERC721.sol\":3232:3425  function _approve(\r... */\n    tag_110:\n        /* \"ERC721/ERC721.sol\":3371:3373  to */\n      dup2\n        /* \"ERC721/ERC721.sol\":3344:3359  _tokenApprovals */\n      0x04\n        /* \"ERC721/ERC721.sol\":3344:3368  _tokenApprovals[tokenId] */\n      0x00\n        /* \"ERC721/ERC721.sol\":3360:3367  tokenId */\n      dup4\n        /* \"ERC721/ERC721.sol\":3344:3368  _tokenApprovals[tokenId] */\n      dup2\n      mstore\n      0x20\n      add\n      swap1\n      dup2\n      mstore\n      0x20\n      add\n      0x00\n      keccak256\n      0x00\n        /* \"ERC721/ERC721.sol\":3344:3373  _tokenApprovals[tokenId] = to */\n      0x0100\n      exp\n      dup2\n      sload\n      dup2\n      0xffffffffffffffffffffffffffffffffffffffff\n      mul\n      not\n      and\n      swap1\n      dup4\n      0xffffffffffffffffffffffffffffffffffffffff\n      and\n      mul\n      or\n      swap1\n      sstore\n      pop\n        /* \"ERC721/ERC721.sol\":3409:3416  tokenId */\n      dup1\n        /* \"ERC721/ERC721.sol\":3405:3407  to */\n      dup3\n        /* \"ERC721/ERC721.sol\":3389:3417  Approval(owner, to, tokenId) */\n      0xffffffffffffffffffffffffffffffffffffffff\n      and\n        /* \"ERC721/ERC721.sol\":3398:3403  owner */\n      dup5\n        /* \"ERC721/ERC721.sol\":3389:3417  Approval(owner, to, tokenId) */\n      0xffffffffffffffffffffffffffffffffffffffff\n      and\n      0x8c5be1e5ebec7d5bd14f71427d1e84f3dd0314c0f7b2291e5b200ac8c7c3b925\n      mload(0x40)\n      mload(0x40)\n      dup1\n      swap2\n      sub\n      swap1\n      log4\n        /* \"ERC721/ERC721.sol\":3232:3425  function _approve(\r... */\n      pop\n      pop\n      pop\n      jump\t// out\n        /* \"ERC721/ERC721.sol\":3989:4272  function _isApprovedOrOwner(\r... */\n    tag_114:\n        /* \"ERC721/ERC721.sol\":4119:4123  bool */\n      0x00\n        /* \"ERC721/ERC721.sol\":4155:4160  owner */\n      dup4\n        /* \"ERC721/ERC721.sol\":4144:4160  spender == owner */\n      0xffffffffffffffffffffffffffffffffffffffff\n      and\n        /* \"ERC721/ERC721.sol\":4144:4151  spender */\n      dup4\n        /* \"ERC721/ERC721.sol\":4144:4160  spender == owner */\n      0xffffffffffffffffffffffffffffffffffffffff\n      and\n      eq\n        /* \"ERC721/ERC721.sol\":4144:4212  spender == owner ||\r... */\n      dup1\n      tag_171\n      jumpi\n      pop\n        /* \"ERC721/ERC721.sol\":4205:4212  spender */\n      dup3\n        /* \"ERC721/ERC721.sol\":4177:4212  _tokenApprovals[tokenId] == spender */\n      0xffffffffffffffffffffffffffffffffffffffff\n      and\n        /* \"ERC721/ERC721.sol\":4177:4192  _tokenApprovals */\n      0x04\n        /* \"ERC721/ERC721.sol\":4177:4201  _tokenApprovals[tokenId] */\n      0x00\n        /* \"ERC721/ERC721.sol\":4193:4200  tokenId */\n      dup5\n        /* \"ERC721/ERC721.sol\":4177:4201  _tokenApprovals[tokenId] */\n      dup2\n      mstore\n      0x20\n      add\n      swap1\n      dup2\n      mstore\n      0x20\n      add\n      0x00\n      keccak256\n      0x00\n      swap1\n      sload\n      swap1\n      0x0100\n      exp\n      swap1\n      div\n      0xffffffffffffffffffffffffffffffffffffffff\n      and\n        /* \"ERC721/ERC721.sol\":4177:4212  _tokenApprovals[tokenId] == spender */\n      0xffffffffffffffffffffffffffffffffffffffff\n      and\n      eq\n        /* \"ERC721/ERC721.sol\":4144:4212  spender == owner ||\r... */\n    tag_171:\n        /* \"ERC721/ERC721.sol\":4144:4263  spender == owner ||\r... */\n      dup1\n      tag_172\n      jumpi\n      pop\n        /* \"ERC721/ERC721.sol\":4229:4247  _operatorApprovals */\n      0x05\n        /* \"ERC721/ERC721.sol\":4229:4254  _operatorApprovals[owner] */\n      0x00\n        /* \"ERC721/ERC721.sol\":4248:4253  owner */\n      dup6\n        /* \"ERC721/ERC721.sol\":4229:4254  _operatorApprovals[owner] */\n      0xffffffffffffffffffffffffffffffffffffffff\n      and\n      0xffffffffffffffffffffffffffffffffffffffff\n      and\n      dup2\n      mstore\n      0x20\n      add\n      swap1\n      dup2\n      mstore\n      0x20\n      add\n      0x00\n      keccak256\n        /* \"ERC721/ERC721.sol\":4229:4263  _operatorApprovals[owner][spender] */\n      0x00\n        /* \"ERC721/ERC721.sol\":4255:4262  spender */\n      dup5\n        /* \"ERC721/ERC721.sol\":4229:4263  _operatorApprovals[owner][spender] */\n      0xffffffffffffffffffffffffffffffffffffffff\n      and\n      0xffffffffffffffffffffffffffffffffffffffff\n      and\n      dup2\n      mstore\n      0x20\n      add\n      swap1\n      dup2\n      mstore\n      0x20\n      add\n      0x00\n      keccak256\n      0x00\n      swap1\n      sload\n      swap1\n      0x0100\n      exp\n      swap1\n      div\n      0xff\n      and\n        /* \"ERC721/ERC721.sol\":4144:4263  spender == owner ||\r... */\n    tag_172:\n        /* \"ERC721/ERC721.sol\":4136:4264  return (spender == owner ||\r... */\n      swap1\n      pop\n        /* \"ERC721/ERC721.sol\":3989:4272  function _isApprovedOrOwner(\r... */\n      swap4\n      swap3\n      pop\n      pop\n      pop\n      jump\t// out\n        /* \"ERC721/ERC721.sol\":4501:4936  function _transfer(\r... */\n    tag_119:\n        /* \"ERC721/ERC721.sol\":4653:4658  owner */\n      dup4\n        /* \"ERC721/ERC721.sol\":4645:4658  from == owner */\n      0xffffffffffffffffffffffffffffffffffffffff\n      and\n        /* \"ERC721/ERC721.sol\":4645:4649  from */\n      dup4\n        /* \"ERC721/ERC721.sol\":4645:4658  from == owner */\n      0xffffffffffffffffffffffffffffffffffffffff\n      and\n      eq\n        /* \"ERC721/ERC721.sol\":4637:4672  require(from == owner, \"not owner\") */\n      tag_174\n      jumpi\n      mload(0x40)\n      0x08c379a000000000000000000000000000000000000000000000000000000000\n      dup2\n      mstore\n      0x04\n      add\n      tag_175\n      swap1\n      tag_176\n      jump\t// in\n    tag_175:\n      mload(0x40)\n      dup1\n      swap2\n      sub\n      swap1\n      revert\n    tag_174:\n        /* \"ERC721/ERC721.sol\":4705:4706  0 */\n      0x00\n        /* \"ERC721/ERC721.sol\":4691:4707  to != address(0) */\n      0xffffffffffffffffffffffffffffffffffffffff\n      and\n        /* \"ERC721/ERC721.sol\":4691:4693  to */\n      dup3\n        /* \"ERC721/ERC721.sol\":4691:4707  to != address(0) */\n      0xffffffffffffffffffffffffffffffffffffffff\n      and\n      eq\n      iszero\n        /* \"ERC721/ERC721.sol\":4683:4740  require(to != address(0), \"transfer to the zero address\") */\n      tag_177\n      jumpi\n      mload(0x40)\n      0x08c379a000000000000000000000000000000000000000000000000000000000\n      dup2\n      mstore\n      0x04\n      add\n      tag_178\n      swap1\n      tag_179\n      jump\t// in\n    tag_178:\n      mload(0x40)\n      dup1\n      swap2\n      sub\n      swap1\n      revert\n    tag_177:\n        /* \"ERC721/ERC721.sol\":4753:4789  _approve(owner, address(0), tokenId) */\n      tag_180\n        /* \"ERC721/ERC721.sol\":4762:4767  owner */\n      dup5\n        /* \"ERC721/ERC721.sol\":4777:4778  0 */\n      0x00\n        /* \"ERC721/ERC721.sol\":4781:4788  tokenId */\n      dup4\n        /* \"ERC721/ERC721.sol\":4753:4761  _approve */\n      tag_110\n        /* \"ERC721/ERC721.sol\":4753:4789  _approve(owner, address(0), tokenId) */\n      jump\t// in\n    tag_180:\n        /* \"ERC721/ERC721.sol\":4821:4822  1 */\n      0x01\n        /* \"ERC721/ERC721.sol\":4802:4811  _balances */\n      0x03\n        /* \"ERC721/ERC721.sol\":4802:4817  _balances[from] */\n      0x00\n        /* \"ERC721/ERC721.sol\":4812:4816  from */\n      dup6\n        /* \"ERC721/ERC721.sol\":4802:4817  _balances[from] */\n      0xffffffffffffffffffffffffffffffffffffffff\n      and\n      0xffffffffffffffffffffffffffffffffffffffff\n      and\n      dup2\n      mstore\n      0x20\n      add\n      swap1\n      dup2\n      mstore\n      0x20\n      add\n      0x00\n      keccak256\n      0x00\n        /* \"ERC721/ERC721.sol\":4802:4822  _balances[from] -= 1 */\n      dup3\n      dup3\n      sload\n      tag_181\n      swap2\n      swap1\n      tag_182\n      jump\t// in\n    tag_181:\n      swap3\n      pop\n      pop\n      dup2\n      swap1\n      sstore\n      pop\n        /* \"ERC721/ERC721.sol\":4850:4851  1 */\n      0x01\n        /* \"ERC721/ERC721.sol\":4833:4842  _balances */\n      0x03\n        /* \"ERC721/ERC721.sol\":4833:4846  _balances[to] */\n      0x00\n        /* \"ERC721/ERC721.sol\":4843:4845  to */\n      dup5\n        /* \"ERC721/ERC721.sol\":4833:4846  _balances[to] */\n      0xffffffffffffffffffffffffffffffffffffffff\n      and\n      0xffffffffffffffffffffffffffffffffffffffff\n      and\n      dup2\n      mstore\n      0x20\n      add\n      swap1\n      dup2\n      mstore\n      0x20\n      add\n      0x00\n      keccak256\n      0x00\n        /* \"ERC721/ERC721.sol\":4833:4851  _balances[to] += 1 */\n      dup3\n      dup3\n      sload\n      tag_183\n      swap2\n      swap1\n      tag_184\n      jump\t// in\n    tag_183:\n      swap3\n      pop\n      pop\n      dup2\n      swap1\n      sstore\n      pop\n        /* \"ERC721/ERC721.sol\":4881:4883  to */\n      dup2\n        /* \"ERC721/ERC721.sol\":4862:4869  _owners */\n      0x02\n        /* \"ERC721/ERC721.sol\":4862:4878  _owners[tokenId] */\n      0x00\n        /* \"ERC721/ERC721.sol\":4870:4877  tokenId */\n      dup4\n        /* \"ERC721/ERC721.sol\":4862:4878  _owners[tokenId] */\n      dup2\n      mstore\n      0x20\n      add\n      swap1\n      dup2\n      mstore\n      0x20\n      add\n      0x00\n      keccak256\n      0x00\n        /* \"ERC721/ERC721.sol\":4862:4883  _owners[tokenId] = to */\n      0x0100\n      exp\n      dup2\n      sload\n      dup2\n      0xffffffffffffffffffffffffffffffffffffffff\n      mul\n      not\n      and\n      swap1\n      dup4\n      0xffffffffffffffffffffffffffffffffffffffff\n      and\n      mul\n      or\n      swap1\n      sstore\n      pop\n        /* \"ERC721/ERC721.sol\":4920:4927  tokenId */\n      dup1\n        /* \"ERC721/ERC721.sol\":4916:4918  to */\n      dup3\n        /* \"ERC721/ERC721.sol\":4901:4928  Transfer(from, to, tokenId) */\n      0xffffffffffffffffffffffffffffffffffffffff\n      and\n        /* \"ERC721/ERC721.sol\":4910:4914  from */\n      dup5\n        /* \"ERC721/ERC721.sol\":4901:4928  Transfer(from, to, tokenId) */\n      0xffffffffffffffffffffffffffffffffffffffff\n      and\n      0xddf252ad1be2c89b69c2b068fc378daa952ba7f163c4a11628f55a4df523b3ef\n      mload(0x40)\n      mload(0x40)\n      dup1\n      swap2\n      sub\n      swap1\n      log4\n        /* \"ERC721/ERC721.sol\":4501:4936  function _transfer(\r... */\n      pop\n      pop\n      pop\n      pop\n      jump\t// out\n        /* \"默克尔树/MerkleTree.sol\":2169:2305  function _leaf(address account)\r... */\n    tag_128:\n        /* \"默克尔树/MerkleTree.sol\":2229:2236  bytes32 */\n      0x00\n        /* \"默克尔树/MerkleTree.sol\":2288:2295  account */\n      dup2\n        /* \"默克尔树/MerkleTree.sol\":2271:2296  abi.encodePacked(account) */\n      add(0x20, mload(0x40))\n      tag_186\n      swap2\n      swap1\n      tag_187\n      jump\t// in\n    tag_186:\n      mload(0x40)\n      0x20\n      dup2\n      dup4\n      sub\n      sub\n      dup2\n      mstore\n      swap1\n      0x40\n      mstore\n        /* \"默克尔树/MerkleTree.sol\":2261:2297  keccak256(abi.encodePacked(account)) */\n      dup1\n      mload\n      swap1\n      0x20\n      add\n      keccak256\n        /* \"默克尔树/MerkleTree.sol\":2254:2297  return keccak256(abi.encodePacked(account)) */\n      swap1\n      pop\n        /* \"默克尔树/MerkleTree.sol\":2169:2305  function _leaf(address account)\r... */\n      swap2\n      swap1\n      pop\n      jump\t// out\n        /* \"默克尔树/MerkleTree.sol\":2377:2534  function _verify(bytes32 leaf, bytes32[] memory proof)\r... */\n    tag_129:\n        /* \"默克尔树/MerkleTree.sol\":2460:2464  bool */\n      0x00\n        /* \"默克尔树/MerkleTree.sol\":2489:2526  MerkleProof.verify(proof, root, leaf) */\n      tag_189\n        /* \"默克尔树/MerkleTree.sol\":2508:2513  proof */\n      dup3\n        /* \"默克尔树/MerkleTree.sol\":2515:2519  root */\n      immutable(\"0x70a74b75c4920e9bbb759cb5023e4c2f48a43033fa115214c8c6611c710b14c4\")\n        /* \"默克尔树/MerkleTree.sol\":2521:2525  leaf */\n      dup6\n        /* \"默克尔树/MerkleTree.sol\":2489:2507  MerkleProof.verify */\n      tag_190\n        /* \"默克尔树/MerkleTree.sol\":2489:2526  MerkleProof.verify(proof, root, leaf) */\n      jump\t// in\n    tag_189:\n        /* \"默克尔树/MerkleTree.sol\":2482:2526  return MerkleProof.verify(proof, root, leaf) */\n      swap1\n      pop\n        /* \"默克尔树/MerkleTree.sol\":2377:2534  function _verify(bytes32 leaf, bytes32[] memory proof)\r... */\n      swap3\n      swap2\n      pop\n      pop\n      jump\t// out\n        /* \"ERC721/ERC721.sol\":7317:7631  function _mint(address to, uint tokenId) internal virtual {\r... */\n    tag_137:\n        /* \"ERC721/ERC721.sol\":7408:7409  0 */\n      0x00\n        /* \"ERC721/ERC721.sol\":7394:7410  to != address(0) */\n      0xffffffffffffffffffffffffffffffffffffffff\n      and\n        /* \"ERC721/ERC721.sol\":7394:7396  to */\n      dup3\n        /* \"ERC721/ERC721.sol\":7394:7410  to != address(0) */\n      0xffffffffffffffffffffffffffffffffffffffff\n      and\n      eq\n      iszero\n        /* \"ERC721/ERC721.sol\":7386:7435  require(to != address(0), \"mint to zero address\") */\n      tag_192\n      jumpi\n      mload(0x40)\n      0x08c379a000000000000000000000000000000000000000000000000000000000\n      dup2\n      mstore\n      0x04\n      add\n      tag_193\n      swap1\n      tag_194\n      jump\t// in\n    tag_193:\n      mload(0x40)\n      dup1\n      swap2\n      sub\n      swap1\n      revert\n    tag_192:\n        /* \"ERC721/ERC721.sol\":7482:7483  0 */\n      0x00\n        /* \"ERC721/ERC721.sol\":7454:7484  _owners[tokenId] == address(0) */\n      0xffffffffffffffffffffffffffffffffffffffff\n      and\n        /* \"ERC721/ERC721.sol\":7454:7461  _owners */\n      0x02\n        /* \"ERC721/ERC721.sol\":7454:7470  _owners[tokenId] */\n      0x00\n        /* \"ERC721/ERC721.sol\":7462:7469  tokenId */\n      dup4\n        /* \"ERC721/ERC721.sol\":7454:7470  _owners[tokenId] */\n      dup2\n      mstore\n      0x20\n      add\n      swap1\n      dup2\n      mstore\n      0x20\n      add\n      0x00\n      keccak256\n      0x00\n      swap1\n      sload\n      swap1\n      0x0100\n      exp\n      swap1\n      div\n      0xffffffffffffffffffffffffffffffffffffffff\n      and\n        /* \"ERC721/ERC721.sol\":7454:7484  _owners[tokenId] == address(0) */\n      0xffffffffffffffffffffffffffffffffffffffff\n      and\n      eq\n        /* \"ERC721/ERC721.sol\":7446:7509  require(_owners[tokenId] == address(0), \"token already minted\") */\n      tag_195\n      jumpi\n      mload(0x40)\n      0x08c379a000000000000000000000000000000000000000000000000000000000\n      dup2\n      mstore\n      0x04\n      add\n      tag_196\n      swap1\n      tag_197\n      jump\t// in\n    tag_196:\n      mload(0x40)\n      dup1\n      swap2\n      sub\n      swap1\n      revert\n    tag_195:\n        /* \"ERC721/ERC721.sol\":7539:7540  1 */\n      0x01\n        /* \"ERC721/ERC721.sol\":7522:7531  _balances */\n      0x03\n        /* \"ERC721/ERC721.sol\":7522:7535  _balances[to] */\n      0x00\n        /* \"ERC721/ERC721.sol\":7532:7534  to */\n      dup5\n        /* \"ERC721/ERC721.sol\":7522:7535  _balances[to] */\n      0xffffffffffffffffffffffffffffffffffffffff\n      and\n      0xffffffffffffffffffffffffffffffffffffffff\n      and\n      dup2\n      mstore\n      0x20\n      add\n      swap1\n      dup2\n      mstore\n      0x20\n      add\n      0x00\n      keccak256\n      0x00\n        /* \"ERC721/ERC721.sol\":7522:7540  _balances[to] += 1 */\n      dup3\n      dup3\n      sload\n      tag_198\n      swap2\n      swap1\n      tag_184\n      jump\t// in\n    tag_198:\n      swap3\n      pop\n      pop\n      dup2\n      swap1\n      sstore\n      pop\n        /* \"ERC721/ERC721.sol\":7570:7572  to */\n      dup2\n        /* \"ERC721/ERC721.sol\":7551:7558  _owners */\n      0x02\n        /* \"ERC721/ERC721.sol\":7551:7567  _owners[tokenId] */\n      0x00\n        /* \"ERC721/ERC721.sol\":7559:7566  tokenId */\n      dup4\n        /* \"ERC721/ERC721.sol\":7551:7567  _owners[tokenId] */\n      dup2\n      mstore\n      0x20\n      add\n      swap1\n      dup2\n      mstore\n      0x20\n      add\n      0x00\n      keccak256\n      0x00\n        /* \"ERC721/ERC721.sol\":7551:7572  _owners[tokenId] = to */\n      0x0100\n      exp\n      dup2\n      sload\n      dup2\n      0xffffffffffffffffffffffffffffffffffffffff\n      mul\n      not\n      and\n      swap1\n      dup4\n      0xffffffffffffffffffffffffffffffffffffffff\n      and\n      mul\n      or\n      swap1\n      sstore\n      pop\n        /* \"ERC721/ERC721.sol\":7615:7622  tokenId */\n      dup1\n        /* \"ERC721/ERC721.sol\":7611:7613  to */\n      dup3\n        /* \"ERC721/ERC721.sol\":7590:7623  Transfer(address(0), to, tokenId) */\n      0xffffffffffffffffffffffffffffffffffffffff\n      and\n        /* \"ERC721/ERC721.sol\":7607:7608  0 */\n      0x00\n        /* \"ERC721/ERC721.sol\":7590:7623  Transfer(address(0), to, tokenId) */\n      0xffffffffffffffffffffffffffffffffffffffff\n      and\n      0xddf252ad1be2c89b69c2b068fc378daa952ba7f163c4a11628f55a4df523b3ef\n      mload(0x40)\n      mload(0x40)\n      dup1\n      swap2\n      sub\n      swap1\n      log4\n        /* \"ERC721/ERC721.sol\":7317:7631  function _mint(address to, uint tokenId) internal virtual {\r... */\n      pop\n      pop\n      jump\t// out\n        /* \"ERC721/ERC721.sol\":5843:6145  function _safeTransfer(\r... */\n    tag_155:\n        /* \"ERC721/ERC721.sol\":6012:6047  _transfer(owner, from, to, tokenId) */\n      tag_200\n        /* \"ERC721/ERC721.sol\":6022:6027  owner */\n      dup6\n        /* \"ERC721/ERC721.sol\":6029:6033  from */\n      dup6\n        /* \"ERC721/ERC721.sol\":6035:6037  to */\n      dup6\n        /* \"ERC721/ERC721.sol\":6039:6046  tokenId */\n      dup6\n        /* \"ERC721/ERC721.sol\":6012:6021  _transfer */\n      tag_119\n        /* \"ERC721/ERC721.sol\":6012:6047  _transfer(owner, from, to, tokenId) */\n      jump\t// in\n    tag_200:\n        /* \"ERC721/ERC721.sol\":6066:6114  _checkOnERC721Received(from, to, tokenId, _data) */\n      tag_201\n        /* \"ERC721/ERC721.sol\":6089:6093  from */\n      dup5\n        /* \"ERC721/ERC721.sol\":6095:6097  to */\n      dup5\n        /* \"ERC721/ERC721.sol\":6099:6106  tokenId */\n      dup5\n        /* \"ERC721/ERC721.sol\":6108:6113  _data */\n      dup5\n        /* \"ERC721/ERC721.sol\":6066:6088  _checkOnERC721Received */\n      tag_202\n        /* \"ERC721/ERC721.sol\":6066:6114  _checkOnERC721Received(from, to, tokenId, _data) */\n      jump\t// in\n    tag_201:\n        /* \"ERC721/ERC721.sol\":6058:6137  require(_checkOnERC721Received(from, to, tokenId, _data), \"not ERC721Receiver\") */\n      tag_203\n      jumpi\n      mload(0x40)\n      0x08c379a000000000000000000000000000000000000000000000000000000000\n      dup2\n      mstore\n      0x04\n      add\n      tag_204\n      swap1\n      tag_205\n      jump\t// in\n    tag_204:\n      mload(0x40)\n      dup1\n      swap2\n      sub\n      swap1\n      revert\n    tag_203:\n        /* \"ERC721/ERC721.sol\":5843:6145  function _safeTransfer(\r... */\n      pop\n      pop\n      pop\n      pop\n      pop\n      jump\t// out\n        /* \"ERC721/ERC721.sol\":9403:9497  function _baseURI() internal view virtual returns (string memory) {\r... */\n    tag_161:\n        /* \"ERC721/ERC721.sol\":9454:9467  string memory */\n      0x60\n        /* \"ERC721/ERC721.sol\":9480:9489  return \"\" */\n      mload(0x40)\n      dup1\n      0x20\n      add\n      0x40\n      mstore\n      dup1\n      0x00\n      dup2\n      mstore\n      pop\n      swap1\n      pop\n        /* \"ERC721/ERC721.sol\":9403:9497  function _baseURI() internal view virtual returns (string memory) {\r... */\n      swap1\n      jump\t// out\n        /* \"ERC721/String.sol\":407:1130  function toString(uint256 value) internal pure returns (string memory) {\r... */\n    tag_165:\n        /* \"ERC721/String.sol\":463:476  string memory */\n      0x60\n        /* \"ERC721/String.sol\":693:694  0 */\n      0x00\n        /* \"ERC721/String.sol\":684:689  value */\n      dup3\n        /* \"ERC721/String.sol\":684:694  value == 0 */\n      eq\n        /* \"ERC721/String.sol\":680:733  if (value == 0) {\r... */\n      iszero\n      tag_208\n      jumpi\n        /* \"ERC721/String.sol\":711:721  return \"0\" */\n      mload(0x40)\n      dup1\n      0x40\n      add\n      0x40\n      mstore\n      dup1\n      0x01\n      dup2\n      mstore\n      0x20\n      add\n      0x3000000000000000000000000000000000000000000000000000000000000000\n      dup2\n      mstore\n      pop\n      swap1\n      pop\n      jump(tag_207)\n        /* \"ERC721/String.sol\":680:733  if (value == 0) {\r... */\n    tag_208:\n        /* \"ERC721/String.sol\":743:755  uint256 temp */\n      0x00\n        /* \"ERC721/String.sol\":758:763  value */\n      dup3\n        /* \"ERC721/String.sol\":743:763  uint256 temp = value */\n      swap1\n      pop\n        /* \"ERC721/String.sol\":774:788  uint256 digits */\n      0x00\n        /* \"ERC721/String.sol\":799:877  while (temp != 0) {\r... */\n    tag_209:\n        /* \"ERC721/String.sol\":814:815  0 */\n      0x00\n        /* \"ERC721/String.sol\":806:810  temp */\n      dup3\n        /* \"ERC721/String.sol\":806:815  temp != 0 */\n      eq\n        /* \"ERC721/String.sol\":799:877  while (temp != 0) {\r... */\n      tag_210\n      jumpi\n        /* \"ERC721/String.sol\":832:840  digits++ */\n      dup1\n      dup1\n      tag_211\n      swap1\n      tag_212\n      jump\t// in\n    tag_211:\n      swap2\n      pop\n      pop\n        /* \"ERC721/String.sol\":863:865  10 */\n      0x0a\n        /* \"ERC721/String.sol\":855:865  temp /= 10 */\n      dup3\n      tag_213\n      swap2\n      swap1\n      tag_214\n      jump\t// in\n    tag_213:\n      swap2\n      pop\n        /* \"ERC721/String.sol\":799:877  while (temp != 0) {\r... */\n      jump(tag_209)\n    tag_210:\n        /* \"ERC721/String.sol\":887:906  bytes memory buffer */\n      0x00\n        /* \"ERC721/String.sol\":919:925  digits */\n      dup2\n        /* \"ERC721/String.sol\":909:926  new bytes(digits) */\n      0xffffffffffffffff\n      dup2\n      gt\n      iszero\n      tag_215\n      jumpi\n      mstore(0x00, 0x4e487b7100000000000000000000000000000000000000000000000000000000)\n      mstore(0x04, 0x41)\n      revert(0x00, 0x24)\n    tag_215:\n      mload(0x40)\n      swap1\n      dup1\n      dup3\n      mstore\n      dup1\n      0x1f\n      add\n      not(0x1f)\n      and\n      0x20\n      add\n      dup3\n      add\n      0x40\n      mstore\n      dup1\n      iszero\n      tag_216\n      jumpi\n      dup2\n      0x20\n      add\n      0x01\n      dup3\n      mul\n      dup1\n      calldatasize\n      dup4\n      calldatacopy\n      dup1\n      dup3\n      add\n      swap2\n      pop\n      pop\n      swap1\n      pop\n    tag_216:\n      pop\n        /* \"ERC721/String.sol\":887:926  bytes memory buffer = new bytes(digits) */\n      swap1\n      pop\n        /* \"ERC721/String.sol\":937:1091  while (value != 0) {\r... */\n    tag_217:\n        /* \"ERC721/String.sol\":953:954  0 */\n      0x00\n        /* \"ERC721/String.sol\":944:949  value */\n      dup6\n        /* \"ERC721/String.sol\":944:954  value != 0 */\n      eq\n        /* \"ERC721/String.sol\":937:1091  while (value != 0) {\r... */\n      tag_218\n      jumpi\n        /* \"ERC721/String.sol\":981:982  1 */\n      0x01\n        /* \"ERC721/String.sol\":971:982  digits -= 1 */\n      dup3\n      tag_219\n      swap2\n      swap1\n      tag_182\n      jump\t// in\n    tag_219:\n      swap2\n      pop\n        /* \"ERC721/String.sol\":1048:1050  10 */\n      0x0a\n        /* \"ERC721/String.sol\":1040:1045  value */\n      dup6\n        /* \"ERC721/String.sol\":1040:1050  value % 10 */\n      tag_220\n      swap2\n      swap1\n      tag_221\n      jump\t// in\n    tag_220:\n        /* \"ERC721/String.sol\":1027:1029  48 */\n      0x30\n        /* \"ERC721/String.sol\":1027:1051  48 + uint256(value % 10) */\n      tag_222\n      swap2\n      swap1\n      tag_184\n      jump\t// in\n    tag_222:\n        /* \"ERC721/String.sol\":1014:1053  bytes1(uint8(48 + uint256(value % 10))) */\n      0xf8\n      shl\n        /* \"ERC721/String.sol\":997:1003  buffer */\n      dup2\n        /* \"ERC721/String.sol\":1004:1010  digits */\n      dup4\n        /* \"ERC721/String.sol\":997:1011  buffer[digits] */\n      dup2\n      mload\n      dup2\n      lt\n      tag_223\n      jumpi\n      mstore(0x00, 0x4e487b7100000000000000000000000000000000000000000000000000000000)\n      mstore(0x04, 0x32)\n      revert(0x00, 0x24)\n    tag_223:\n      0x20\n      add\n      add\n        /* \"ERC721/String.sol\":997:1053  buffer[digits] = bytes1(uint8(48 + uint256(value % 10))) */\n      swap1\n      not(0xffffffffffffffffffffffffffffffffffffffffffffffffffffffffffffff)\n      and\n      swap1\n      dup2\n      0x00\n      byte\n      swap1\n      mstore8\n      pop\n        /* \"ERC721/String.sol\":1077:1079  10 */\n      0x0a\n        /* \"ERC721/String.sol\":1068:1079  value /= 10 */\n      dup6\n      tag_224\n      swap2\n      swap1\n      tag_214\n      jump\t// in\n    tag_224:\n      swap5\n      pop\n        /* \"ERC721/String.sol\":937:1091  while (value != 0) {\r... */\n      jump(tag_217)\n    tag_218:\n        /* \"ERC721/String.sol\":1115:1121  buffer */\n      dup1\n        /* \"ERC721/String.sol\":1101:1122  return string(buffer) */\n      swap4\n      pop\n      pop\n      pop\n      pop\n        /* \"ERC721/String.sol\":407:1130  function toString(uint256 value) internal pure returns (string memory) {\r... */\n    tag_207:\n      swap2\n      swap1\n      pop\n      jump\t// out\n        /* \"默克尔树/MerkleTree.sol\":328:518  function verify(\r... */\n    tag_190:\n        /* \"默克尔树/MerkleTree.sol\":453:457  bool */\n      0x00\n        /* \"默克尔树/MerkleTree.sol\":506:510  root */\n      dup3\n        /* \"默克尔树/MerkleTree.sol\":477:502  processProof(proof, leaf) */\n      tag_226\n        /* \"默克尔树/MerkleTree.sol\":490:495  proof */\n      dup6\n        /* \"默克尔树/MerkleTree.sol\":497:501  leaf */\n      dup5\n        /* \"默克尔树/MerkleTree.sol\":477:489  processProof */\n      tag_227\n        /* \"默克尔树/MerkleTree.sol\":477:502  processProof(proof, leaf) */\n      jump\t// in\n    tag_226:\n        /* \"默克尔树/MerkleTree.sol\":477:510  processProof(proof, leaf) == root */\n      eq\n        /* \"默克尔树/MerkleTree.sol\":470:510  return processProof(proof, leaf) == root */\n      swap1\n      pop\n        /* \"默克尔树/MerkleTree.sol\":328:518  function verify(\r... */\n      swap4\n      swap3\n      pop\n      pop\n      pop\n      jump\t// out\n        /* \"ERC721/ERC721.sol\":8266:8776  function _checkOnERC721Received(\r... */\n    tag_202:\n        /* \"ERC721/ERC721.sol\":8418:8422  bool */\n      0x00\n        /* \"ERC721/ERC721.sol\":8439:8454  to.isContract() */\n      tag_229\n        /* \"ERC721/ERC721.sol\":8439:8441  to */\n      dup5\n        /* \"ERC721/ERC721.sol\":8439:8452  to.isContract */\n      0xffffffffffffffffffffffffffffffffffffffff\n      and\n      tag_230\n        /* \"ERC721/ERC721.sol\":8439:8454  to.isContract() */\n      jump\t// in\n    tag_229:\n        /* \"ERC721/ERC721.sol\":8435:8769  if (to.isContract()) {\r... */\n      iszero\n      tag_231\n      jumpi\n        /* \"ERC721/ERC721.sol\":8672:8713  IERC721Receiver.onERC721Received.selector */\n      shl(0xe0, 0x150b7a02)\n        /* \"ERC721/ERC721.sol\":8495:8713  IERC721Receiver(to).onERC721Received(\r... */\n      not(0xffffffffffffffffffffffffffffffffffffffffffffffffffffffff)\n      and\n        /* \"ERC721/ERC721.sol\":8511:8513  to */\n      dup5\n        /* \"ERC721/ERC721.sol\":8495:8531  IERC721Receiver(to).onERC721Received */\n      0xffffffffffffffffffffffffffffffffffffffff\n      and\n      0x150b7a02\n        /* \"ERC721/ERC721.sol\":8554:8564  msg.sender */\n      caller\n        /* \"ERC721/ERC721.sol\":8587:8591  from */\n      dup9\n        /* \"ERC721/ERC721.sol\":8614:8621  tokenId */\n      dup8\n        /* \"ERC721/ERC721.sol\":8644:8649  _data */\n      dup8\n        /* \"ERC721/ERC721.sol\":8495:8668  IERC721Receiver(to).onERC721Received(\r... */\n      mload(0x40)\n      dup6\n      0xffffffff\n      and\n      0xe0\n      shl\n      dup2\n      mstore\n      0x04\n      add\n      tag_232\n      swap5\n      swap4\n      swap3\n      swap2\n      swap1\n      tag_233\n      jump\t// in\n    tag_232:\n      0x20\n      mload(0x40)\n      dup1\n      dup4\n      sub\n      dup2\n      0x00\n      dup8\n      dup1\n      extcodesize\n      iszero\n      dup1\n      iszero\n      tag_234\n      jumpi\n      0x00\n      dup1\n      revert\n    tag_234:\n      pop\n      gas\n      call\n      iszero\n      dup1\n      iszero\n      tag_236\n      jumpi\n      returndatasize\n      0x00\n      dup1\n      returndatacopy\n      revert(0x00, returndatasize)\n    tag_236:\n      pop\n      pop\n      pop\n      pop\n      mload(0x40)\n      returndatasize\n      not(0x1f)\n      0x1f\n      dup3\n      add\n      and\n      dup3\n      add\n      dup1\n      0x40\n      mstore\n      pop\n      dup2\n      add\n      swap1\n      tag_237\n      swap2\n      swap1\n      tag_238\n      jump\t// in\n    tag_237:\n        /* \"ERC721/ERC721.sol\":8495:8713  IERC721Receiver(to).onERC721Received(\r... */\n      not(0xffffffffffffffffffffffffffffffffffffffffffffffffffffffff)\n      and\n      eq\n        /* \"ERC721/ERC721.sol\":8471:8713  return\r... */\n      swap1\n      pop\n      jump(tag_228)\n        /* \"ERC721/ERC721.sol\":8435:8769  if (to.isContract()) {\r... */\n    tag_231:\n        /* \"ERC721/ERC721.sol\":8753:8757  true */\n      0x01\n        /* \"ERC721/ERC721.sol\":8746:8757  return true */\n      swap1\n      pop\n        /* \"ERC721/ERC721.sol\":8266:8776  function _checkOnERC721Received(\r... */\n    tag_228:\n      swap5\n      swap4\n      pop\n      pop\n      pop\n      pop\n      jump\t// out\n        /* \"默克尔树/MerkleTree.sol\":765:1061  function processProof(bytes32[] memory proof, bytes32 leaf) internal pure returns (bytes32) {\r... */\n    tag_227:\n        /* \"默克尔树/MerkleTree.sol\":848:855  bytes32 */\n      0x00\n        /* \"默克尔树/MerkleTree.sol\":868:888  bytes32 computedHash */\n      dup1\n        /* \"默克尔树/MerkleTree.sol\":891:895  leaf */\n      dup3\n        /* \"默克尔树/MerkleTree.sol\":868:895  bytes32 computedHash = leaf */\n      swap1\n      pop\n        /* \"默克尔树/MerkleTree.sol\":911:920  uint256 i */\n      0x00\n        /* \"默克尔树/MerkleTree.sol\":906:1024  for (uint256 i = 0; i < proof.length; i++) {\r... */\n    tag_241:\n        /* \"默克尔树/MerkleTree.sol\":930:935  proof */\n      dup5\n        /* \"默克尔树/MerkleTree.sol\":930:942  proof.length */\n      mload\n        /* \"默克尔树/MerkleTree.sol\":926:927  i */\n      dup2\n        /* \"默克尔树/MerkleTree.sol\":926:942  i < proof.length */\n      lt\n        /* \"默克尔树/MerkleTree.sol\":906:1024  for (uint256 i = 0; i < proof.length; i++) {\r... */\n      iszero\n      tag_242\n      jumpi\n        /* \"默克尔树/MerkleTree.sol\":979:1012  _hashPair(computedHash, proof[i]) */\n      tag_244\n        /* \"默克尔树/MerkleTree.sol\":989:1001  computedHash */\n      dup3\n        /* \"默克尔树/MerkleTree.sol\":1003:1008  proof */\n      dup7\n        /* \"默克尔树/MerkleTree.sol\":1009:1010  i */\n      dup4\n        /* \"默克尔树/MerkleTree.sol\":1003:1011  proof[i] */\n      dup2\n      mload\n      dup2\n      lt\n      tag_245\n      jumpi\n      mstore(0x00, 0x4e487b7100000000000000000000000000000000000000000000000000000000)\n      mstore(0x04, 0x32)\n      revert(0x00, 0x24)\n    tag_245:\n      0x20\n      mul\n      0x20\n      add\n      add\n      mload\n        /* \"默克尔树/MerkleTree.sol\":979:988  _hashPair */\n      tag_246\n        /* \"默克尔树/MerkleTree.sol\":979:1012  _hashPair(computedHash, proof[i]) */\n      jump\t// in\n    tag_244:\n        /* \"默克尔树/MerkleTree.sol\":964:1012  computedHash = _hashPair(computedHash, proof[i]) */\n      swap2\n      pop\n        /* \"默克尔树/MerkleTree.sol\":944:947  i++ */\n      dup1\n      dup1\n      tag_247\n      swap1\n      tag_212\n      jump\t// in\n    tag_247:\n      swap2\n      pop\n      pop\n        /* \"默克尔树/MerkleTree.sol\":906:1024  for (uint256 i = 0; i < proof.length; i++) {\r... */\n      jump(tag_241)\n    tag_242:\n      pop\n        /* \"默克尔树/MerkleTree.sol\":1041:1053  computedHash */\n      dup1\n        /* \"默克尔树/MerkleTree.sol\":1034:1053  return computedHash */\n      swap2\n      pop\n      pop\n        /* \"默克尔树/MerkleTree.sol\":765:1061  function processProof(bytes32[] memory proof, bytes32 leaf) internal pure returns (bytes32) {\r... */\n      swap3\n      swap2\n      pop\n      pop\n      jump\t// out\n        /* \"ERC721/Address.sol\":163:356  function isContract(address account) internal view returns (bool) {\r... */\n    tag_230:\n        /* \"ERC721/Address.sol\":223:227  bool */\n      0x00\n        /* \"ERC721/Address.sol\":240:249  uint size */\n      dup1\n        /* \"ERC721/Address.sol\":304:311  account */\n      dup3\n        /* \"ERC721/Address.sol\":292:312  extcodesize(account) */\n      extcodesize\n        /* \"ERC721/Address.sol\":284:312  size := extcodesize(account) */\n      swap1\n      pop\n        /* \"ERC721/Address.sol\":347:348  0 */\n      0x00\n        /* \"ERC721/Address.sol\":340:344  size */\n      dup2\n        /* \"ERC721/Address.sol\":340:348  size > 0 */\n      gt\n        /* \"ERC721/Address.sol\":333:348  return size > 0 */\n      swap2\n      pop\n      pop\n        /* \"ERC721/Address.sol\":163:356  function isContract(address account) internal view returns (bool) {\r... */\n      swap2\n      swap1\n      pop\n      jump\t// out\n        /* \"默克尔树/MerkleTree.sol\":1094:1269  function _hashPair(bytes32 a, bytes32 b) private pure returns (bytes32) {\r... */\n    tag_246:\n        /* \"默克尔树/MerkleTree.sol\":1157:1164  bytes32 */\n      0x00\n        /* \"默克尔树/MerkleTree.sol\":1188:1189  b */\n      dup2\n        /* \"默克尔树/MerkleTree.sol\":1184:1185  a */\n      dup4\n        /* \"默克尔树/MerkleTree.sol\":1184:1189  a < b */\n      lt\n        /* \"默克尔树/MerkleTree.sol\":1184:1261  a < b ? keccak256(abi.encodePacked(a, b)) : keccak256(abi.encodePacked(b, a)) */\n      tag_250\n      jumpi\n        /* \"默克尔树/MerkleTree.sol\":1255:1256  b */\n      dup2\n        /* \"默克尔树/MerkleTree.sol\":1258:1259  a */\n      dup4\n        /* \"默克尔树/MerkleTree.sol\":1238:1260  abi.encodePacked(b, a) */\n      add(0x20, mload(0x40))\n      tag_251\n      swap3\n      swap2\n      swap1\n      tag_252\n      jump\t// in\n    tag_251:\n      mload(0x40)\n      0x20\n      dup2\n      dup4\n      sub\n      sub\n      dup2\n      mstore\n      swap1\n      0x40\n      mstore\n        /* \"默克尔树/MerkleTree.sol\":1228:1261  keccak256(abi.encodePacked(b, a)) */\n      dup1\n      mload\n      swap1\n      0x20\n      add\n      keccak256\n        /* \"默克尔树/MerkleTree.sol\":1184:1261  a < b ? keccak256(abi.encodePacked(a, b)) : keccak256(abi.encodePacked(b, a)) */\n      jump(tag_253)\n    tag_250:\n        /* \"默克尔树/MerkleTree.sol\":1219:1220  a */\n      dup3\n        /* \"默克尔树/MerkleTree.sol\":1222:1223  b */\n      dup3\n        /* \"默克尔树/MerkleTree.sol\":1202:1224  abi.encodePacked(a, b) */\n      add(0x20, mload(0x40))\n      tag_254\n      swap3\n      swap2\n      swap1\n      tag_252\n      jump\t// in\n    tag_254:\n      mload(0x40)\n      0x20\n      dup2\n      dup4\n      sub\n      sub\n      dup2\n      mstore\n      swap1\n      0x40\n      mstore\n        /* \"默克尔树/MerkleTree.sol\":1192:1225  keccak256(abi.encodePacked(a, b)) */\n      dup1\n      mload\n      swap1\n      0x20\n      add\n      keccak256\n        /* \"默克尔树/MerkleTree.sol\":1184:1261  a < b ? keccak256(abi.encodePacked(a, b)) : keccak256(abi.encodePacked(b, a)) */\n    tag_253:\n        /* \"默克尔树/MerkleTree.sol\":1177:1261  return a < b ? keccak256(abi.encodePacked(a, b)) : keccak256(abi.encodePacked(b, a)) */\n      swap1\n      pop\n        /* \"默克尔树/MerkleTree.sol\":1094:1269  function _hashPair(bytes32 a, bytes32 b) private pure returns (bytes32) {\r... */\n      swap3\n      swap2\n      pop\n      pop\n      jump\t// out\n        /* \"#utility.yul\":7:350   */\n    tag_256:\n        /* \"#utility.yul\":84:89   */\n      0x00\n        /* \"#utility.yul\":109:174   */\n      tag_258\n        /* \"#utility.yul\":125:173   */\n      tag_259\n        /* \"#utility.yul\":166:172   */\n      dup5\n        /* \"#utility.yul\":125:173   */\n      tag_260\n      jump\t// in\n    tag_259:\n        /* \"#utility.yul\":109:174   */\n      tag_261\n      jump\t// in\n    tag_258:\n        /* \"#utility.yul\":100:174   */\n      swap1\n      pop\n        /* \"#utility.yul\":197:203   */\n      dup3\n        /* \"#utility.yul\":190:195   */\n      dup2\n        /* \"#utility.yul\":183:204   */\n      mstore\n        /* \"#utility.yul\":235:239   */\n      0x20\n        /* \"#utility.yul\":228:233   */\n      dup2\n        /* \"#utility.yul\":224:240   */\n      add\n        /* \"#utility.yul\":273:276   */\n      dup5\n        /* \"#utility.yul\":264:270   */\n      dup5\n        /* \"#utility.yul\":259:262   */\n      dup5\n        /* \"#utility.yul\":255:271   */\n      add\n        /* \"#utility.yul\":252:277   */\n      gt\n        /* \"#utility.yul\":249:251   */\n      iszero\n      tag_262\n      jumpi\n        /* \"#utility.yul\":290:291   */\n      0x00\n        /* \"#utility.yul\":287:288   */\n      dup1\n        /* \"#utility.yul\":280:292   */\n      revert\n        /* \"#utility.yul\":249:251   */\n    tag_262:\n        /* \"#utility.yul\":303:344   */\n      tag_263\n        /* \"#utility.yul\":337:343   */\n      dup5\n        /* \"#utility.yul\":332:335   */\n      dup3\n        /* \"#utility.yul\":327:330   */\n      dup6\n        /* \"#utility.yul\":303:344   */\n      tag_264\n      jump\t// in\n    tag_263:\n        /* \"#utility.yul\":90:350   */\n      pop\n      swap4\n      swap3\n      pop\n      pop\n      pop\n      jump\t// out\n        /* \"#utility.yul\":356:495   */\n    tag_265:\n        /* \"#utility.yul\":402:407   */\n      0x00\n        /* \"#utility.yul\":440:446   */\n      dup2\n        /* \"#utility.yul\":427:447   */\n      calldataload\n        /* \"#utility.yul\":418:447   */\n      swap1\n      pop\n        /* \"#utility.yul\":456:489   */\n      tag_267\n        /* \"#utility.yul\":483:488   */\n      dup2\n        /* \"#utility.yul\":456:489   */\n      tag_268\n      jump\t// in\n    tag_267:\n        /* \"#utility.yul\":408:495   */\n      swap3\n      swap2\n      pop\n      pop\n      jump\t// out\n        /* \"#utility.yul\":518:885   */\n    tag_269:\n        /* \"#utility.yul\":591:599   */\n      0x00\n        /* \"#utility.yul\":601:607   */\n      dup1\n        /* \"#utility.yul\":651:654   */\n      dup4\n        /* \"#utility.yul\":644:648   */\n      0x1f\n        /* \"#utility.yul\":636:642   */\n      dup5\n        /* \"#utility.yul\":632:649   */\n      add\n        /* \"#utility.yul\":628:655   */\n      slt\n        /* \"#utility.yul\":618:620   */\n      tag_271\n      jumpi\n        /* \"#utility.yul\":669:670   */\n      0x00\n        /* \"#utility.yul\":666:667   */\n      dup1\n        /* \"#utility.yul\":659:671   */\n      revert\n        /* \"#utility.yul\":618:620   */\n    tag_271:\n        /* \"#utility.yul\":705:711   */\n      dup3\n        /* \"#utility.yul\":692:712   */\n      calldataload\n        /* \"#utility.yul\":682:712   */\n      swap1\n      pop\n        /* \"#utility.yul\":735:753   */\n      0xffffffffffffffff\n        /* \"#utility.yul\":727:733   */\n      dup2\n        /* \"#utility.yul\":724:754   */\n      gt\n        /* \"#utility.yul\":721:723   */\n      iszero\n      tag_272\n      jumpi\n        /* \"#utility.yul\":767:768   */\n      0x00\n        /* \"#utility.yul\":764:765   */\n      dup1\n        /* \"#utility.yul\":757:769   */\n      revert\n        /* \"#utility.yul\":721:723   */\n    tag_272:\n        /* \"#utility.yul\":804:808   */\n      0x20\n        /* \"#utility.yul\":796:802   */\n      dup4\n        /* \"#utility.yul\":792:809   */\n      add\n        /* \"#utility.yul\":780:809   */\n      swap2\n      pop\n        /* \"#utility.yul\":858:861   */\n      dup4\n        /* \"#utility.yul\":850:854   */\n      0x20\n        /* \"#utility.yul\":842:848   */\n      dup3\n        /* \"#utility.yul\":838:855   */\n      mul\n        /* \"#utility.yul\":828:836   */\n      dup4\n        /* \"#utility.yul\":824:856   */\n      add\n        /* \"#utility.yul\":821:862   */\n      gt\n        /* \"#utility.yul\":818:820   */\n      iszero\n      tag_273\n      jumpi\n        /* \"#utility.yul\":875:876   */\n      0x00\n        /* \"#utility.yul\":872:873   */\n      dup1\n        /* \"#utility.yul\":865:877   */\n      revert\n        /* \"#utility.yul\":818:820   */\n    tag_273:\n        /* \"#utility.yul\":608:885   */\n      swap3\n      pop\n      swap3\n      swap1\n      pop\n      jump\t// out\n        /* \"#utility.yul\":891:1024   */\n    tag_274:\n        /* \"#utility.yul\":934:939   */\n      0x00\n        /* \"#utility.yul\":972:978   */\n      dup2\n        /* \"#utility.yul\":959:979   */\n      calldataload\n        /* \"#utility.yul\":950:979   */\n      swap1\n      pop\n        /* \"#utility.yul\":988:1018   */\n      tag_276\n        /* \"#utility.yul\":1012:1017   */\n      dup2\n        /* \"#utility.yul\":988:1018   */\n      tag_277\n      jump\t// in\n    tag_276:\n        /* \"#utility.yul\":940:1024   */\n      swap3\n      swap2\n      pop\n      pop\n      jump\t// out\n        /* \"#utility.yul\":1030:1167   */\n    tag_278:\n        /* \"#utility.yul\":1075:1080   */\n      0x00\n        /* \"#utility.yul\":1113:1119   */\n      dup2\n        /* \"#utility.yul\":1100:1120   */\n      calldataload\n        /* \"#utility.yul\":1091:1120   */\n      swap1\n      pop\n        /* \"#utility.yul\":1129:1161   */\n      tag_280\n        /* \"#utility.yul\":1155:1160   */\n      dup2\n        /* \"#utility.yul\":1129:1161   */\n      tag_281\n      jump\t// in\n    tag_280:\n        /* \"#utility.yul\":1081:1167   */\n      swap3\n      swap2\n      pop\n      pop\n      jump\t// out\n        /* \"#utility.yul\":1173:1314   */\n    tag_282:\n        /* \"#utility.yul\":1229:1234   */\n      0x00\n        /* \"#utility.yul\":1260:1266   */\n      dup2\n        /* \"#utility.yul\":1254:1267   */\n      mload\n        /* \"#utility.yul\":1245:1267   */\n      swap1\n      pop\n        /* \"#utility.yul\":1276:1308   */\n      tag_284\n        /* \"#utility.yul\":1302:1307   */\n      dup2\n        /* \"#utility.yul\":1276:1308   */\n      tag_281\n      jump\t// in\n    tag_284:\n        /* \"#utility.yul\":1235:1314   */\n      swap3\n      swap2\n      pop\n      pop\n      jump\t// out\n        /* \"#utility.yul\":1333:1604   */\n    tag_285:\n        /* \"#utility.yul\":1388:1393   */\n      0x00\n        /* \"#utility.yul\":1437:1440   */\n      dup3\n        /* \"#utility.yul\":1430:1434   */\n      0x1f\n        /* \"#utility.yul\":1422:1428   */\n      dup4\n        /* \"#utility.yul\":1418:1435   */\n      add\n        /* \"#utility.yul\":1414:1441   */\n      slt\n        /* \"#utility.yul\":1404:1406   */\n      tag_287\n      jumpi\n        /* \"#utility.yul\":1455:1456   */\n      0x00\n        /* \"#utility.yul\":1452:1453   */\n      dup1\n        /* \"#utility.yul\":1445:1457   */\n      revert\n        /* \"#utility.yul\":1404:1406   */\n    tag_287:\n        /* \"#utility.yul\":1495:1501   */\n      dup2\n        /* \"#utility.yul\":1482:1502   */\n      calldataload\n        /* \"#utility.yul\":1520:1598   */\n      tag_288\n        /* \"#utility.yul\":1594:1597   */\n      dup5\n        /* \"#utility.yul\":1586:1592   */\n      dup3\n        /* \"#utility.yul\":1579:1583   */\n      0x20\n        /* \"#utility.yul\":1571:1577   */\n      dup7\n        /* \"#utility.yul\":1567:1584   */\n      add\n        /* \"#utility.yul\":1520:1598   */\n      tag_256\n      jump\t// in\n    tag_288:\n        /* \"#utility.yul\":1511:1598   */\n      swap2\n      pop\n        /* \"#utility.yul\":1394:1604   */\n      pop\n      swap3\n      swap2\n      pop\n      pop\n      jump\t// out\n        /* \"#utility.yul\":1610:1749   */\n    tag_289:\n        /* \"#utility.yul\":1656:1661   */\n      0x00\n        /* \"#utility.yul\":1694:1700   */\n      dup2\n        /* \"#utility.yul\":1681:1701   */\n      calldataload\n        /* \"#utility.yul\":1672:1701   */\n      swap1\n      pop\n        /* \"#utility.yul\":1710:1743   */\n      tag_291\n        /* \"#utility.yul\":1737:1742   */\n      dup2\n        /* \"#utility.yul\":1710:1743   */\n      tag_292\n      jump\t// in\n    tag_291:\n        /* \"#utility.yul\":1662:1749   */\n      swap3\n      swap2\n      pop\n      pop\n      jump\t// out\n        /* \"#utility.yul\":1755:2017   */\n    tag_51:\n        /* \"#utility.yul\":1814:1820   */\n      0x00\n        /* \"#utility.yul\":1863:1865   */\n      0x20\n        /* \"#utility.yul\":1851:1860   */\n      dup3\n        /* \"#utility.yul\":1842:1849   */\n      dup5\n        /* \"#utility.yul\":1838:1861   */\n      sub\n        /* \"#utility.yul\":1834:1866   */\n      slt\n        /* \"#utility.yul\":1831:1833   */\n      iszero\n      tag_294\n      jumpi\n        /* \"#utility.yul\":1879:1880   */\n      0x00\n        /* \"#utility.yul\":1876:1877   */\n      dup1\n        /* \"#utility.yul\":1869:1881   */\n      revert\n        /* \"#utility.yul\":1831:1833   */\n    tag_294:\n        /* \"#utility.yul\":1922:1923   */\n      0x00\n        /* \"#utility.yul\":1947:2000   */\n      tag_295\n        /* \"#utility.yul\":1992:1999   */\n      dup5\n        /* \"#utility.yul\":1983:1989   */\n      dup3\n        /* \"#utility.yul\":1972:1981   */\n      dup6\n        /* \"#utility.yul\":1968:1990   */\n      add\n        /* \"#utility.yul\":1947:2000   */\n      tag_265\n      jump\t// in\n    tag_295:\n        /* \"#utility.yul\":1937:2000   */\n      swap2\n      pop\n        /* \"#utility.yul\":1893:2010   */\n      pop\n        /* \"#utility.yul\":1821:2017   */\n      swap3\n      swap2\n      pop\n      pop\n      jump\t// out\n        /* \"#utility.yul\":2023:2430   */\n    tag_84:\n        /* \"#utility.yul\":2091:2097   */\n      0x00\n        /* \"#utility.yul\":2099:2105   */\n      dup1\n        /* \"#utility.yul\":2148:2150   */\n      0x40\n        /* \"#utility.yul\":2136:2145   */\n      dup4\n        /* \"#utility.yul\":2127:2134   */\n      dup6\n        /* \"#utility.yul\":2123:2146   */\n      sub\n        /* \"#utility.yul\":2119:2151   */\n      slt\n        /* \"#utility.yul\":2116:2118   */\n      iszero\n      tag_297\n      jumpi\n        /* \"#utility.yul\":2164:2165   */\n      0x00\n        /* \"#utility.yul\":2161:2162   */\n      dup1\n        /* \"#utility.yul\":2154:2166   */\n      revert\n        /* \"#utility.yul\":2116:2118   */\n    tag_297:\n        /* \"#utility.yul\":2207:2208   */\n      0x00\n        /* \"#utility.yul\":2232:2285   */\n      tag_298\n        /* \"#utility.yul\":2277:2284   */\n      dup6\n        /* \"#utility.yul\":2268:2274   */\n      dup3\n        /* \"#utility.yul\":2257:2266   */\n      dup7\n        /* \"#utility.yul\":2253:2275   */\n      add\n        /* \"#utility.yul\":2232:2285   */\n      tag_265\n      jump\t// in\n    tag_298:\n        /* \"#utility.yul\":2222:2285   */\n      swap3\n      pop\n        /* \"#utility.yul\":2178:2295   */\n      pop\n        /* \"#utility.yul\":2334:2336   */\n      0x20\n        /* \"#utility.yul\":2360:2413   */\n      tag_299\n        /* \"#utility.yul\":2405:2412   */\n      dup6\n        /* \"#utility.yul\":2396:2402   */\n      dup3\n        /* \"#utility.yul\":2385:2394   */\n      dup7\n        /* \"#utility.yul\":2381:2403   */\n      add\n        /* \"#utility.yul\":2360:2413   */\n      tag_265\n      jump\t// in\n    tag_299:\n        /* \"#utility.yul\":2350:2413   */\n      swap2\n      pop\n        /* \"#utility.yul\":2305:2423   */\n      pop\n        /* \"#utility.yul\":2106:2430   */\n      swap3\n      pop\n      swap3\n      swap1\n      pop\n      jump\t// out\n        /* \"#utility.yul\":2436:2988   */\n    tag_44:\n        /* \"#utility.yul\":2513:2519   */\n      0x00\n        /* \"#utility.yul\":2521:2527   */\n      dup1\n        /* \"#utility.yul\":2529:2535   */\n      0x00\n        /* \"#utility.yul\":2578:2580   */\n      0x60\n        /* \"#utility.yul\":2566:2575   */\n      dup5\n        /* \"#utility.yul\":2557:2564   */\n      dup7\n        /* \"#utility.yul\":2553:2576   */\n      sub\n        /* \"#utility.yul\":2549:2581   */\n      slt\n        /* \"#utility.yul\":2546:2548   */\n      iszero\n      tag_301\n      jumpi\n        /* \"#utility.yul\":2594:2595   */\n      0x00\n        /* \"#utility.yul\":2591:2592   */\n      dup1\n        /* \"#utility.yul\":2584:2596   */\n      revert\n        /* \"#utility.yul\":2546:2548   */\n    tag_301:\n        /* \"#utility.yul\":2637:2638   */\n      0x00\n        /* \"#utility.yul\":2662:2715   */\n      tag_302\n        /* \"#utility.yul\":2707:2714   */\n      dup7\n        /* \"#utility.yul\":2698:2704   */\n      dup3\n        /* \"#utility.yul\":2687:2696   */\n      dup8\n        /* \"#utility.yul\":2683:2705   */\n      add\n        /* \"#utility.yul\":2662:2715   */\n      tag_265\n      jump\t// in\n    tag_302:\n        /* \"#utility.yul\":2652:2715   */\n      swap4\n      pop\n        /* \"#utility.yul\":2608:2725   */\n      pop\n        /* \"#utility.yul\":2764:2766   */\n      0x20\n        /* \"#utility.yul\":2790:2843   */\n      tag_303\n        /* \"#utility.yul\":2835:2842   */\n      dup7\n        /* \"#utility.yul\":2826:2832   */\n      dup3\n        /* \"#utility.yul\":2815:2824   */\n      dup8\n        /* \"#utility.yul\":2811:2833   */\n      add\n        /* \"#utility.yul\":2790:2843   */\n      tag_265\n      jump\t// in\n    tag_303:\n        /* \"#utility.yul\":2780:2843   */\n      swap3\n      pop\n        /* \"#utility.yul\":2735:2853   */\n      pop\n        /* \"#utility.yul\":2892:2894   */\n      0x40\n        /* \"#utility.yul\":2918:2971   */\n      tag_304\n        /* \"#utility.yul\":2963:2970   */\n      dup7\n        /* \"#utility.yul\":2954:2960   */\n      dup3\n        /* \"#utility.yul\":2943:2952   */\n      dup8\n        /* \"#utility.yul\":2939:2961   */\n      add\n        /* \"#utility.yul\":2918:2971   */\n      tag_289\n      jump\t// in\n    tag_304:\n        /* \"#utility.yul\":2908:2971   */\n      swap2\n      pop\n        /* \"#utility.yul\":2863:2981   */\n      pop\n        /* \"#utility.yul\":2536:2988   */\n      swap3\n      pop\n      swap3\n      pop\n      swap3\n      jump\t// out\n        /* \"#utility.yul\":2994:3803   */\n    tag_76:\n        /* \"#utility.yul\":3089:3095   */\n      0x00\n        /* \"#utility.yul\":3097:3103   */\n      dup1\n        /* \"#utility.yul\":3105:3111   */\n      0x00\n        /* \"#utility.yul\":3113:3119   */\n      dup1\n        /* \"#utility.yul\":3162:3165   */\n      0x80\n        /* \"#utility.yul\":3150:3159   */\n      dup6\n        /* \"#utility.yul\":3141:3148   */\n      dup8\n        /* \"#utility.yul\":3137:3160   */\n      sub\n        /* \"#utility.yul\":3133:3166   */\n      slt\n        /* \"#utility.yul\":3130:3132   */\n      iszero\n      tag_306\n      jumpi\n        /* \"#utility.yul\":3179:3180   */\n      0x00\n        /* \"#utility.yul\":3176:3177   */\n      dup1\n        /* \"#utility.yul\":3169:3181   */\n      revert\n        /* \"#utility.yul\":3130:3132   */\n    tag_306:\n        /* \"#utility.yul\":3222:3223   */\n      0x00\n        /* \"#utility.yul\":3247:3300   */\n      tag_307\n        /* \"#utility.yul\":3292:3299   */\n      dup8\n        /* \"#utility.yul\":3283:3289   */\n      dup3\n        /* \"#utility.yul\":3272:3281   */\n      dup9\n        /* \"#utility.yul\":3268:3290   */\n      add\n        /* \"#utility.yul\":3247:3300   */\n      tag_265\n      jump\t// in\n    tag_307:\n        /* \"#utility.yul\":3237:3300   */\n      swap5\n      pop\n        /* \"#utility.yul\":3193:3310   */\n      pop\n        /* \"#utility.yul\":3349:3351   */\n      0x20\n        /* \"#utility.yul\":3375:3428   */\n      tag_308\n        /* \"#utility.yul\":3420:3427   */\n      dup8\n        /* \"#utility.yul\":3411:3417   */\n      dup3\n        /* \"#utility.yul\":3400:3409   */\n      dup9\n        /* \"#utility.yul\":3396:3418   */\n      add\n        /* \"#utility.yul\":3375:3428   */\n      tag_265\n      jump\t// in\n    tag_308:\n        /* \"#utility.yul\":3365:3428   */\n      swap4\n      pop\n        /* \"#utility.yul\":3320:3438   */\n      pop\n        /* \"#utility.yul\":3477:3479   */\n      0x40\n        /* \"#utility.yul\":3503:3556   */\n      tag_309\n        /* \"#utility.yul\":3548:3555   */\n      dup8\n        /* \"#utility.yul\":3539:3545   */\n      dup3\n        /* \"#utility.yul\":3528:3537   */\n      dup9\n        /* \"#utility.yul\":3524:3546   */\n      add\n        /* \"#utility.yul\":3503:3556   */\n      tag_289\n      jump\t// in\n    tag_309:\n        /* \"#utility.yul\":3493:3556   */\n      swap3\n      pop\n        /* \"#utility.yul\":3448:3566   */\n      pop\n        /* \"#utility.yul\":3633:3635   */\n      0x60\n        /* \"#utility.yul\":3622:3631   */\n      dup6\n        /* \"#utility.yul\":3618:3636   */\n      add\n        /* \"#utility.yul\":3605:3637   */\n      calldataload\n        /* \"#utility.yul\":3664:3682   */\n      0xffffffffffffffff\n        /* \"#utility.yul\":3656:3662   */\n      dup2\n        /* \"#utility.yul\":3653:3683   */\n      gt\n        /* \"#utility.yul\":3650:3652   */\n      iszero\n      tag_310\n      jumpi\n        /* \"#utility.yul\":3696:3697   */\n      0x00\n        /* \"#utility.yul\":3693:3694   */\n      dup1\n        /* \"#utility.yul\":3686:3698   */\n      revert\n        /* \"#utility.yul\":3650:3652   */\n    tag_310:\n        /* \"#utility.yul\":3724:3786   */\n      tag_311\n        /* \"#utility.yul\":3778:3785   */\n      dup8\n        /* \"#utility.yul\":3769:3775   */\n      dup3\n        /* \"#utility.yul\":3758:3767   */\n      dup9\n        /* \"#utility.yul\":3754:3776   */\n      add\n        /* \"#utility.yul\":3724:3786   */\n      tag_285\n      jump\t// in\n    tag_311:\n        /* \"#utility.yul\":3714:3786   */\n      swap2\n      pop\n        /* \"#utility.yul\":3576:3796   */\n      pop\n        /* \"#utility.yul\":3120:3803   */\n      swap3\n      swap6\n      swap2\n      swap5\n      pop\n      swap3\n      pop\n      jump\t// out\n        /* \"#utility.yul\":3809:4210   */\n    tag_72:\n        /* \"#utility.yul\":3874:3880   */\n      0x00\n        /* \"#utility.yul\":3882:3888   */\n      dup1\n        /* \"#utility.yul\":3931:3933   */\n      0x40\n        /* \"#utility.yul\":3919:3928   */\n      dup4\n        /* \"#utility.yul\":3910:3917   */\n      dup6\n        /* \"#utility.yul\":3906:3929   */\n      sub\n        /* \"#utility.yul\":3902:3934   */\n      slt\n        /* \"#utility.yul\":3899:3901   */\n      iszero\n      tag_313\n      jumpi\n        /* \"#utility.yul\":3947:3948   */\n      0x00\n        /* \"#utility.yul\":3944:3945   */\n      dup1\n        /* \"#utility.yul\":3937:3949   */\n      revert\n        /* \"#utility.yul\":3899:3901   */\n    tag_313:\n        /* \"#utility.yul\":3990:3991   */\n      0x00\n        /* \"#utility.yul\":4015:4068   */\n      tag_314\n        /* \"#utility.yul\":4060:4067   */\n      dup6\n        /* \"#utility.yul\":4051:4057   */\n      dup3\n        /* \"#utility.yul\":4040:4049   */\n      dup7\n        /* \"#utility.yul\":4036:4058   */\n      add\n        /* \"#utility.yul\":4015:4068   */\n      tag_265\n      jump\t// in\n    tag_314:\n        /* \"#utility.yul\":4005:4068   */\n      swap3\n      pop\n        /* \"#utility.yul\":3961:4078   */\n      pop\n        /* \"#utility.yul\":4117:4119   */\n      0x20\n        /* \"#utility.yul\":4143:4193   */\n      tag_315\n        /* \"#utility.yul\":4185:4192   */\n      dup6\n        /* \"#utility.yul\":4176:4182   */\n      dup3\n        /* \"#utility.yul\":4165:4174   */\n      dup7\n        /* \"#utility.yul\":4161:4183   */\n      add\n        /* \"#utility.yul\":4143:4193   */\n      tag_274\n      jump\t// in\n    tag_315:\n        /* \"#utility.yul\":4133:4193   */\n      swap2\n      pop\n        /* \"#utility.yul\":4088:4203   */\n      pop\n        /* \"#utility.yul\":3889:4210   */\n      swap3\n      pop\n      swap3\n      swap1\n      pop\n      jump\t// out\n        /* \"#utility.yul\":4216:4623   */\n    tag_40:\n        /* \"#utility.yul\":4284:4290   */\n      0x00\n        /* \"#utility.yul\":4292:4298   */\n      dup1\n        /* \"#utility.yul\":4341:4343   */\n      0x40\n        /* \"#utility.yul\":4329:4338   */\n      dup4\n        /* \"#utility.yul\":4320:4327   */\n      dup6\n        /* \"#utility.yul\":4316:4339   */\n      sub\n        /* \"#utility.yul\":4312:4344   */\n      slt\n        /* \"#utility.yul\":4309:4311   */\n      iszero\n      tag_317\n      jumpi\n        /* \"#utility.yul\":4357:4358   */\n      0x00\n        /* \"#utility.yul\":4354:4355   */\n      dup1\n        /* \"#utility.yul\":4347:4359   */\n      revert\n        /* \"#utility.yul\":4309:4311   */\n    tag_317:\n        /* \"#utility.yul\":4400:4401   */\n      0x00\n        /* \"#utility.yul\":4425:4478   */\n      tag_318\n        /* \"#utility.yul\":4470:4477   */\n      dup6\n        /* \"#utility.yul\":4461:4467   */\n      dup3\n        /* \"#utility.yul\":4450:4459   */\n      dup7\n        /* \"#utility.yul\":4446:4468   */\n      add\n        /* \"#utility.yul\":4425:4478   */\n      tag_265\n      jump\t// in\n    tag_318:\n        /* \"#utility.yul\":4415:4478   */\n      swap3\n      pop\n        /* \"#utility.yul\":4371:4488   */\n      pop\n        /* \"#utility.yul\":4527:4529   */\n      0x20\n        /* \"#utility.yul\":4553:4606   */\n      tag_319\n        /* \"#utility.yul\":4598:4605   */\n      dup6\n        /* \"#utility.yul\":4589:4595   */\n      dup3\n        /* \"#utility.yul\":4578:4587   */\n      dup7\n        /* \"#utility.yul\":4574:4596   */\n      add\n        /* \"#utility.yul\":4553:4606   */\n      tag_289\n      jump\t// in\n    tag_319:\n        /* \"#utility.yul\":4543:4606   */\n      swap2\n      pop\n        /* \"#utility.yul\":4498:4616   */\n      pop\n        /* \"#utility.yul\":4299:4623   */\n      swap3\n      pop\n      swap3\n      swap1\n      pop\n      jump\t// out\n        /* \"#utility.yul\":4629:5344   */\n    tag_60:\n        /* \"#utility.yul\":4733:4739   */\n      0x00\n        /* \"#utility.yul\":4741:4747   */\n      dup1\n        /* \"#utility.yul\":4749:4755   */\n      0x00\n        /* \"#utility.yul\":4757:4763   */\n      dup1\n        /* \"#utility.yul\":4806:4808   */\n      0x60\n        /* \"#utility.yul\":4794:4803   */\n      dup6\n        /* \"#utility.yul\":4785:4792   */\n      dup8\n        /* \"#utility.yul\":4781:4804   */\n      sub\n        /* \"#utility.yul\":4777:4809   */\n      slt\n        /* \"#utility.yul\":4774:4776   */\n      iszero\n      tag_321\n      jumpi\n        /* \"#utility.yul\":4822:4823   */\n      0x00\n        /* \"#utility.yul\":4819:4820   */\n      dup1\n        /* \"#utility.yul\":4812:4824   */\n      revert\n        /* \"#utility.yul\":4774:4776   */\n    tag_321:\n        /* \"#utility.yul\":4865:4866   */\n      0x00\n        /* \"#utility.yul\":4890:4943   */\n      tag_322\n        /* \"#utility.yul\":4935:4942   */\n      dup8\n        /* \"#utility.yul\":4926:4932   */\n      dup3\n        /* \"#utility.yul\":4915:4924   */\n      dup9\n        /* \"#utility.yul\":4911:4933   */\n      add\n        /* \"#utility.yul\":4890:4943   */\n      tag_265\n      jump\t// in\n    tag_322:\n        /* \"#utility.yul\":4880:4943   */\n      swap5\n      pop\n        /* \"#utility.yul\":4836:4953   */\n      pop\n        /* \"#utility.yul\":4992:4994   */\n      0x20\n        /* \"#utility.yul\":5018:5071   */\n      tag_323\n        /* \"#utility.yul\":5063:5070   */\n      dup8\n        /* \"#utility.yul\":5054:5060   */\n      dup3\n        /* \"#utility.yul\":5043:5052   */\n      dup9\n        /* \"#utility.yul\":5039:5061   */\n      add\n        /* \"#utility.yul\":5018:5071   */\n      tag_289\n      jump\t// in\n    tag_323:\n        /* \"#utility.yul\":5008:5071   */\n      swap4\n      pop\n        /* \"#utility.yul\":4963:5081   */\n      pop\n        /* \"#utility.yul\":5148:5150   */\n      0x40\n        /* \"#utility.yul\":5137:5146   */\n      dup6\n        /* \"#utility.yul\":5133:5151   */\n      add\n        /* \"#utility.yul\":5120:5152   */\n      calldataload\n        /* \"#utility.yul\":5179:5197   */\n      0xffffffffffffffff\n        /* \"#utility.yul\":5171:5177   */\n      dup2\n        /* \"#utility.yul\":5168:5198   */\n      gt\n        /* \"#utility.yul\":5165:5167   */\n      iszero\n      tag_324\n      jumpi\n        /* \"#utility.yul\":5211:5212   */\n      0x00\n        /* \"#utility.yul\":5208:5209   */\n      dup1\n        /* \"#utility.yul\":5201:5213   */\n      revert\n        /* \"#utility.yul\":5165:5167   */\n    tag_324:\n        /* \"#utility.yul\":5247:5327   */\n      tag_325\n        /* \"#utility.yul\":5319:5326   */\n      dup8\n        /* \"#utility.yul\":5310:5316   */\n      dup3\n        /* \"#utility.yul\":5299:5308   */\n      dup9\n        /* \"#utility.yul\":5295:5317   */\n      add\n        /* \"#utility.yul\":5247:5327   */\n      tag_269\n      jump\t// in\n    tag_325:\n        /* \"#utility.yul\":5229:5327   */\n      swap3\n      pop\n      swap3\n      pop\n        /* \"#utility.yul\":5091:5337   */\n      pop\n        /* \"#utility.yul\":4764:5344   */\n      swap3\n      swap6\n      swap2\n      swap5\n      pop\n      swap3\n      pop\n      jump\t// out\n        /* \"#utility.yul\":5350:5610   */\n    tag_24:\n        /* \"#utility.yul\":5408:5414   */\n      0x00\n        /* \"#utility.yul\":5457:5459   */\n      0x20\n        /* \"#utility.yul\":5445:5454   */\n      dup3\n        /* \"#utility.yul\":5436:5443   */\n      dup5\n        /* \"#utility.yul\":5432:5455   */\n      sub\n        /* \"#utility.yul\":5428:5460   */\n      slt\n        /* \"#utility.yul\":5425:5427   */\n      iszero\n      tag_327\n      jumpi\n        /* \"#utility.yul\":5473:5474   */\n      0x00\n        /* \"#utility.yul\":5470:5471   */\n      dup1\n        /* \"#utility.yul\":5463:5475   */\n      revert\n        /* \"#utility.yul\":5425:5427   */\n    tag_327:\n        /* \"#utility.yul\":5516:5517   */\n      0x00\n        /* \"#utility.yul\":5541:5593   */\n      tag_328\n        /* \"#utility.yul\":5585:5592   */\n      dup5\n        /* \"#utility.yul\":5576:5582   */\n      dup3\n        /* \"#utility.yul\":5565:5574   */\n      dup6\n        /* \"#utility.yul\":5561:5583   */\n      add\n        /* \"#utility.yul\":5541:5593   */\n      tag_278\n      jump\t// in\n    tag_328:\n        /* \"#utility.yul\":5531:5593   */\n      swap2\n      pop\n        /* \"#utility.yul\":5487:5603   */\n      pop\n        /* \"#utility.yul\":5415:5610   */\n      swap3\n      swap2\n      pop\n      pop\n      jump\t// out\n        /* \"#utility.yul\":5616:5898   */\n    tag_238:\n        /* \"#utility.yul\":5685:5691   */\n      0x00\n        /* \"#utility.yul\":5734:5736   */\n      0x20\n        /* \"#utility.yul\":5722:5731   */\n      dup3\n        /* \"#utility.yul\":5713:5720   */\n      dup5\n        /* \"#utility.yul\":5709:5732   */\n      sub\n        /* \"#utility.yul\":5705:5737   */\n      slt\n        /* \"#utility.yul\":5702:5704   */\n      iszero\n      tag_330\n      jumpi\n        /* \"#utility.yul\":5750:5751   */\n      0x00\n        /* \"#utility.yul\":5747:5748   */\n      dup1\n        /* \"#utility.yul\":5740:5752   */\n      revert\n        /* \"#utility.yul\":5702:5704   */\n    tag_330:\n        /* \"#utility.yul\":5793:5794   */\n      0x00\n        /* \"#utility.yul\":5818:5881   */\n      tag_331\n        /* \"#utility.yul\":5873:5880   */\n      dup5\n        /* \"#utility.yul\":5864:5870   */\n      dup3\n        /* \"#utility.yul\":5853:5862   */\n      dup6\n        /* \"#utility.yul\":5849:5871   */\n      add\n        /* \"#utility.yul\":5818:5881   */\n      tag_282\n      jump\t// in\n    tag_331:\n        /* \"#utility.yul\":5808:5881   */\n      swap2\n      pop\n        /* \"#utility.yul\":5764:5891   */\n      pop\n        /* \"#utility.yul\":5692:5898   */\n      swap3\n      swap2\n      pop\n      pop\n      jump\t// out\n        /* \"#utility.yul\":5904:6166   */\n    tag_34:\n        /* \"#utility.yul\":5963:5969   */\n      0x00\n        /* \"#utility.yul\":6012:6014   */\n      0x20\n        /* \"#utility.yul\":6000:6009   */\n      dup3\n        /* \"#utility.yul\":5991:5998   */\n      dup5\n        /* \"#utility.yul\":5987:6010   */\n      sub\n        /* \"#utility.yul\":5983:6015   */\n      slt\n        /* \"#utility.yul\":5980:5982   */\n      iszero\n      tag_333\n      jumpi\n        /* \"#utility.yul\":6028:6029   */\n      0x00\n        /* \"#utility.yul\":6025:6026   */\n      dup1\n        /* \"#utility.yul\":6018:6030   */\n      revert\n        /* \"#utility.yul\":5980:5982   */\n    tag_333:\n        /* \"#utility.yul\":6071:6072   */\n      0x00\n        /* \"#utility.yul\":6096:6149   */\n      tag_334\n        /* \"#utility.yul\":6141:6148   */\n      dup5\n        /* \"#utility.yul\":6132:6138   */\n      dup3\n        /* \"#utility.yul\":6121:6130   */\n      dup6\n        /* \"#utility.yul\":6117:6139   */\n      add\n        /* \"#utility.yul\":6096:6149   */\n      tag_289\n      jump\t// in\n    tag_334:\n        /* \"#utility.yul\":6086:6149   */\n      swap2\n      pop\n        /* \"#utility.yul\":6042:6159   */\n      pop\n        /* \"#utility.yul\":5970:6166   */\n      swap3\n      swap2\n      pop\n      pop\n      jump\t// out\n        /* \"#utility.yul\":6172:6290   */\n    tag_335:\n        /* \"#utility.yul\":6259:6283   */\n      tag_337\n        /* \"#utility.yul\":6277:6282   */\n      dup2\n        /* \"#utility.yul\":6259:6283   */\n      tag_338\n      jump\t// in\n    tag_337:\n        /* \"#utility.yul\":6254:6257   */\n      dup3\n        /* \"#utility.yul\":6247:6284   */\n      mstore\n        /* \"#utility.yul\":6237:6290   */\n      pop\n      pop\n      jump\t// out\n        /* \"#utility.yul\":6296:6453   */\n    tag_339:\n        /* \"#utility.yul\":6401:6446   */\n      tag_341\n        /* \"#utility.yul\":6421:6445   */\n      tag_342\n        /* \"#utility.yul\":6439:6444   */\n      dup3\n        /* \"#utility.yul\":6421:6445   */\n      tag_338\n      jump\t// in\n    tag_342:\n        /* \"#utility.yul\":6401:6446   */\n      tag_343\n      jump\t// in\n    tag_341:\n        /* \"#utility.yul\":6396:6399   */\n      dup3\n        /* \"#utility.yul\":6389:6447   */\n      mstore\n        /* \"#utility.yul\":6379:6453   */\n      pop\n      pop\n      jump\t// out\n        /* \"#utility.yul\":6459:6568   */\n    tag_344:\n        /* \"#utility.yul\":6540:6561   */\n      tag_346\n        /* \"#utility.yul\":6555:6560   */\n      dup2\n        /* \"#utility.yul\":6540:6561   */\n      tag_347\n      jump\t// in\n    tag_346:\n        /* \"#utility.yul\":6535:6538   */\n      dup3\n        /* \"#utility.yul\":6528:6562   */\n      mstore\n        /* \"#utility.yul\":6518:6568   */\n      pop\n      pop\n      jump\t// out\n        /* \"#utility.yul\":6574:6692   */\n    tag_348:\n        /* \"#utility.yul\":6661:6685   */\n      tag_350\n        /* \"#utility.yul\":6679:6684   */\n      dup2\n        /* \"#utility.yul\":6661:6685   */\n      tag_351\n      jump\t// in\n    tag_350:\n        /* \"#utility.yul\":6656:6659   */\n      dup3\n        /* \"#utility.yul\":6649:6686   */\n      mstore\n        /* \"#utility.yul\":6639:6692   */\n      pop\n      pop\n      jump\t// out\n        /* \"#utility.yul\":6698:6855   */\n    tag_352:\n        /* \"#utility.yul\":6803:6848   */\n      tag_354\n        /* \"#utility.yul\":6823:6847   */\n      tag_355\n        /* \"#utility.yul\":6841:6846   */\n      dup3\n        /* \"#utility.yul\":6823:6847   */\n      tag_351\n      jump\t// in\n    tag_355:\n        /* \"#utility.yul\":6803:6848   */\n      tag_356\n      jump\t// in\n    tag_354:\n        /* \"#utility.yul\":6798:6801   */\n      dup3\n        /* \"#utility.yul\":6791:6849   */\n      mstore\n        /* \"#utility.yul\":6781:6855   */\n      pop\n      pop\n      jump\t// out\n        /* \"#utility.yul\":6861:7221   */\n    tag_357:\n        /* \"#utility.yul\":6947:6950   */\n      0x00\n        /* \"#utility.yul\":6975:7013   */\n      tag_359\n        /* \"#utility.yul\":7007:7012   */\n      dup3\n        /* \"#utility.yul\":6975:7013   */\n      tag_360\n      jump\t// in\n    tag_359:\n        /* \"#utility.yul\":7029:7099   */\n      tag_361\n        /* \"#utility.yul\":7092:7098   */\n      dup2\n        /* \"#utility.yul\":7087:7090   */\n      dup6\n        /* \"#utility.yul\":7029:7099   */\n      tag_362\n      jump\t// in\n    tag_361:\n        /* \"#utility.yul\":7022:7099   */\n      swap4\n      pop\n        /* \"#utility.yul\":7108:7160   */\n      tag_363\n        /* \"#utility.yul\":7153:7159   */\n      dup2\n        /* \"#utility.yul\":7148:7151   */\n      dup6\n        /* \"#utility.yul\":7141:7145   */\n      0x20\n        /* \"#utility.yul\":7134:7139   */\n      dup7\n        /* \"#utility.yul\":7130:7146   */\n      add\n        /* \"#utility.yul\":7108:7160   */\n      tag_364\n      jump\t// in\n    tag_363:\n        /* \"#utility.yul\":7185:7214   */\n      tag_365\n        /* \"#utility.yul\":7207:7213   */\n      dup2\n        /* \"#utility.yul\":7185:7214   */\n      tag_366\n      jump\t// in\n    tag_365:\n        /* \"#utility.yul\":7180:7183   */\n      dup5\n        /* \"#utility.yul\":7176:7215   */\n      add\n        /* \"#utility.yul\":7169:7215   */\n      swap2\n      pop\n        /* \"#utility.yul\":6951:7221   */\n      pop\n      swap3\n      swap2\n      pop\n      pop\n      jump\t// out\n        /* \"#utility.yul\":7227:7591   */\n    tag_367:\n        /* \"#utility.yul\":7315:7318   */\n      0x00\n        /* \"#utility.yul\":7343:7382   */\n      tag_369\n        /* \"#utility.yul\":7376:7381   */\n      dup3\n        /* \"#utility.yul\":7343:7382   */\n      tag_370\n      jump\t// in\n    tag_369:\n        /* \"#utility.yul\":7398:7469   */\n      tag_371\n        /* \"#utility.yul\":7462:7468   */\n      dup2\n        /* \"#utility.yul\":7457:7460   */\n      dup6\n        /* \"#utility.yul\":7398:7469   */\n      tag_372\n      jump\t// in\n    tag_371:\n        /* \"#utility.yul\":7391:7469   */\n      swap4\n      pop\n        /* \"#utility.yul\":7478:7530   */\n      tag_373\n        /* \"#utility.yul\":7523:7529   */\n      dup2\n        /* \"#utility.yul\":7518:7521   */\n      dup6\n        /* \"#utility.yul\":7511:7515   */\n      0x20\n        /* \"#utility.yul\":7504:7509   */\n      dup7\n        /* \"#utility.yul\":7500:7516   */\n      add\n        /* \"#utility.yul\":7478:7530   */\n      tag_364\n      jump\t// in\n    tag_373:\n        /* \"#utility.yul\":7555:7584   */\n      tag_374\n        /* \"#utility.yul\":7577:7583   */\n      dup2\n        /* \"#utility.yul\":7555:7584   */\n      tag_366\n      jump\t// in\n    tag_374:\n        /* \"#utility.yul\":7550:7553   */\n      dup5\n        /* \"#utility.yul\":7546:7585   */\n      add\n        /* \"#utility.yul\":7539:7585   */\n      swap2\n      pop\n        /* \"#utility.yul\":7319:7591   */\n      pop\n      swap3\n      swap2\n      pop\n      pop\n      jump\t// out\n        /* \"#utility.yul\":7597:7974   */\n    tag_375:\n        /* \"#utility.yul\":7703:7706   */\n      0x00\n        /* \"#utility.yul\":7731:7770   */\n      tag_377\n        /* \"#utility.yul\":7764:7769   */\n      dup3\n        /* \"#utility.yul\":7731:7770   */\n      tag_370\n      jump\t// in\n    tag_377:\n        /* \"#utility.yul\":7786:7875   */\n      tag_378\n        /* \"#utility.yul\":7868:7874   */\n      dup2\n        /* \"#utility.yul\":7863:7866   */\n      dup6\n        /* \"#utility.yul\":7786:7875   */\n      tag_379\n      jump\t// in\n    tag_378:\n        /* \"#utility.yul\":7779:7875   */\n      swap4\n      pop\n        /* \"#utility.yul\":7884:7936   */\n      tag_380\n        /* \"#utility.yul\":7929:7935   */\n      dup2\n        /* \"#utility.yul\":7924:7927   */\n      dup6\n        /* \"#utility.yul\":7917:7921   */\n      0x20\n        /* \"#utility.yul\":7910:7915   */\n      dup7\n        /* \"#utility.yul\":7906:7922   */\n      add\n        /* \"#utility.yul\":7884:7936   */\n      tag_364\n      jump\t// in\n    tag_380:\n        /* \"#utility.yul\":7961:7967   */\n      dup1\n        /* \"#utility.yul\":7956:7959   */\n      dup5\n        /* \"#utility.yul\":7952:7968   */\n      add\n        /* \"#utility.yul\":7945:7968   */\n      swap2\n      pop\n        /* \"#utility.yul\":7707:7974   */\n      pop\n      swap3\n      swap2\n      pop\n      pop\n      jump\t// out\n        /* \"#utility.yul\":7980:8346   */\n    tag_381:\n        /* \"#utility.yul\":8122:8125   */\n      0x00\n        /* \"#utility.yul\":8143:8210   */\n      tag_383\n        /* \"#utility.yul\":8207:8209   */\n      0x16\n        /* \"#utility.yul\":8202:8205   */\n      dup4\n        /* \"#utility.yul\":8143:8210   */\n      tag_372\n      jump\t// in\n    tag_383:\n        /* \"#utility.yul\":8136:8210   */\n      swap2\n      pop\n        /* \"#utility.yul\":8219:8312   */\n      tag_384\n        /* \"#utility.yul\":8308:8311   */\n      dup3\n        /* \"#utility.yul\":8219:8312   */\n      tag_385\n      jump\t// in\n    tag_384:\n        /* \"#utility.yul\":8337:8339   */\n      0x20\n        /* \"#utility.yul\":8332:8335   */\n      dup3\n        /* \"#utility.yul\":8328:8340   */\n      add\n        /* \"#utility.yul\":8321:8340   */\n      swap1\n      pop\n        /* \"#utility.yul\":8126:8346   */\n      swap2\n      swap1\n      pop\n      jump\t// out\n        /* \"#utility.yul\":8352:8718   */\n    tag_386:\n        /* \"#utility.yul\":8494:8497   */\n      0x00\n        /* \"#utility.yul\":8515:8582   */\n      tag_388\n        /* \"#utility.yul\":8579:8581   */\n      0x1c\n        /* \"#utility.yul\":8574:8577   */\n      dup4\n        /* \"#utility.yul\":8515:8582   */\n      tag_372\n      jump\t// in\n    tag_388:\n        /* \"#utility.yul\":8508:8582   */\n      swap2\n      pop\n        /* \"#utility.yul\":8591:8684   */\n      tag_389\n        /* \"#utility.yul\":8680:8683   */\n      dup3\n        /* \"#utility.yul\":8591:8684   */\n      tag_390\n      jump\t// in\n    tag_389:\n        /* \"#utility.yul\":8709:8711   */\n      0x20\n        /* \"#utility.yul\":8704:8707   */\n      dup3\n        /* \"#utility.yul\":8700:8712   */\n      add\n        /* \"#utility.yul\":8693:8712   */\n      swap1\n      pop\n        /* \"#utility.yul\":8498:8718   */\n      swap2\n      swap1\n      pop\n      jump\t// out\n        /* \"#utility.yul\":8724:9090   */\n    tag_391:\n        /* \"#utility.yul\":8866:8869   */\n      0x00\n        /* \"#utility.yul\":8887:8954   */\n      tag_393\n        /* \"#utility.yul\":8951:8953   */\n      0x1e\n        /* \"#utility.yul\":8946:8949   */\n      dup4\n        /* \"#utility.yul\":8887:8954   */\n      tag_372\n      jump\t// in\n    tag_393:\n        /* \"#utility.yul\":8880:8954   */\n      swap2\n      pop\n        /* \"#utility.yul\":8963:9056   */\n      tag_394\n        /* \"#utility.yul\":9052:9055   */\n      dup3\n        /* \"#utility.yul\":8963:9056   */\n      tag_395\n      jump\t// in\n    tag_394:\n        /* \"#utility.yul\":9081:9083   */\n      0x20\n        /* \"#utility.yul\":9076:9079   */\n      dup3\n        /* \"#utility.yul\":9072:9084   */\n      add\n        /* \"#utility.yul\":9065:9084   */\n      swap1\n      pop\n        /* \"#utility.yul\":8870:9090   */\n      swap2\n      swap1\n      pop\n      jump\t// out\n        /* \"#utility.yul\":9096:9462   */\n    tag_396:\n        /* \"#utility.yul\":9238:9241   */\n      0x00\n        /* \"#utility.yul\":9259:9326   */\n      tag_398\n        /* \"#utility.yul\":9323:9325   */\n      0x14\n        /* \"#utility.yul\":9318:9321   */\n      dup4\n        /* \"#utility.yul\":9259:9326   */\n      tag_372\n      jump\t// in\n    tag_398:\n        /* \"#utility.yul\":9252:9326   */\n      swap2\n      pop\n        /* \"#utility.yul\":9335:9428   */\n      tag_399\n        /* \"#utility.yul\":9424:9427   */\n      dup3\n        /* \"#utility.yul\":9335:9428   */\n      tag_400\n      jump\t// in\n    tag_399:\n        /* \"#utility.yul\":9453:9455   */\n      0x20\n        /* \"#utility.yul\":9448:9451   */\n      dup3\n        /* \"#utility.yul\":9444:9456   */\n      add\n        /* \"#utility.yul\":9437:9456   */\n      swap1\n      pop\n        /* \"#utility.yul\":9242:9462   */\n      swap2\n      swap1\n      pop\n      jump\t// out\n        /* \"#utility.yul\":9468:9834   */\n    tag_401:\n        /* \"#utility.yul\":9610:9613   */\n      0x00\n        /* \"#utility.yul\":9631:9698   */\n      tag_403\n        /* \"#utility.yul\":9695:9697   */\n      0x13\n        /* \"#utility.yul\":9690:9693   */\n      dup4\n        /* \"#utility.yul\":9631:9698   */\n      tag_372\n      jump\t// in\n    tag_403:\n        /* \"#utility.yul\":9624:9698   */\n      swap2\n      pop\n        /* \"#utility.yul\":9707:9800   */\n      tag_404\n        /* \"#utility.yul\":9796:9799   */\n      dup3\n        /* \"#utility.yul\":9707:9800   */\n      tag_405\n      jump\t// in\n    tag_404:\n        /* \"#utility.yul\":9825:9827   */\n      0x20\n        /* \"#utility.yul\":9820:9823   */\n      dup3\n        /* \"#utility.yul\":9816:9828   */\n      add\n        /* \"#utility.yul\":9809:9828   */\n      swap1\n      pop\n        /* \"#utility.yul\":9614:9834   */\n      swap2\n      swap1\n      pop\n      jump\t// out\n        /* \"#utility.yul\":9840:10206   */\n    tag_406:\n        /* \"#utility.yul\":9982:9985   */\n      0x00\n        /* \"#utility.yul\":10003:10070   */\n      tag_408\n        /* \"#utility.yul\":10067:10069   */\n      0x14\n        /* \"#utility.yul\":10062:10065   */\n      dup4\n        /* \"#utility.yul\":10003:10070   */\n      tag_372\n      jump\t// in\n    tag_408:\n        /* \"#utility.yul\":9996:10070   */\n      swap2\n      pop\n        /* \"#utility.yul\":10079:10172   */\n      tag_409\n        /* \"#utility.yul\":10168:10171   */\n      dup3\n        /* \"#utility.yul\":10079:10172   */\n      tag_410\n      jump\t// in\n    tag_409:\n        /* \"#utility.yul\":10197:10199   */\n      0x20\n        /* \"#utility.yul\":10192:10195   */\n      dup3\n        /* \"#utility.yul\":10188:10200   */\n      add\n        /* \"#utility.yul\":10181:10200   */\n      swap1\n      pop\n        /* \"#utility.yul\":9986:10206   */\n      swap2\n      swap1\n      pop\n      jump\t// out\n        /* \"#utility.yul\":10212:10578   */\n    tag_411:\n        /* \"#utility.yul\":10354:10357   */\n      0x00\n        /* \"#utility.yul\":10375:10442   */\n      tag_413\n        /* \"#utility.yul\":10439:10441   */\n      0x14\n        /* \"#utility.yul\":10434:10437   */\n      dup4\n        /* \"#utility.yul\":10375:10442   */\n      tag_372\n      jump\t// in\n    tag_413:\n        /* \"#utility.yul\":10368:10442   */\n      swap2\n      pop\n        /* \"#utility.yul\":10451:10544   */\n      tag_414\n        /* \"#utility.yul\":10540:10543   */\n      dup3\n        /* \"#utility.yul\":10451:10544   */\n      tag_415\n      jump\t// in\n    tag_414:\n        /* \"#utility.yul\":10569:10571   */\n      0x20\n        /* \"#utility.yul\":10564:10567   */\n      dup3\n        /* \"#utility.yul\":10560:10572   */\n      add\n        /* \"#utility.yul\":10553:10572   */\n      swap1\n      pop\n        /* \"#utility.yul\":10358:10578   */\n      swap2\n      swap1\n      pop\n      jump\t// out\n        /* \"#utility.yul\":10584:10950   */\n    tag_416:\n        /* \"#utility.yul\":10726:10729   */\n      0x00\n        /* \"#utility.yul\":10747:10814   */\n      tag_418\n        /* \"#utility.yul\":10811:10813   */\n      0x0f\n        /* \"#utility.yul\":10806:10809   */\n      dup4\n        /* \"#utility.yul\":10747:10814   */\n      tag_372\n      jump\t// in\n    tag_418:\n        /* \"#utility.yul\":10740:10814   */\n      swap2\n      pop\n        /* \"#utility.yul\":10823:10916   */\n      tag_419\n        /* \"#utility.yul\":10912:10915   */\n      dup3\n        /* \"#utility.yul\":10823:10916   */\n      tag_420\n      jump\t// in\n    tag_419:\n        /* \"#utility.yul\":10941:10943   */\n      0x20\n        /* \"#utility.yul\":10936:10939   */\n      dup3\n        /* \"#utility.yul\":10932:10944   */\n      add\n        /* \"#utility.yul\":10925:10944   */\n      swap1\n      pop\n        /* \"#utility.yul\":10730:10950   */\n      swap2\n      swap1\n      pop\n      jump\t// out\n        /* \"#utility.yul\":10956:11322   */\n    tag_421:\n        /* \"#utility.yul\":11098:11101   */\n      0x00\n        /* \"#utility.yul\":11119:11186   */\n      tag_423\n        /* \"#utility.yul\":11183:11185   */\n      0x14\n        /* \"#utility.yul\":11178:11181   */\n      dup4\n        /* \"#utility.yul\":11119:11186   */\n      tag_372\n      jump\t// in\n    tag_423:\n        /* \"#utility.yul\":11112:11186   */\n      swap2\n      pop\n        /* \"#utility.yul\":11195:11288   */\n      tag_424\n        /* \"#utility.yul\":11284:11287   */\n      dup3\n        /* \"#utility.yul\":11195:11288   */\n      tag_425\n      jump\t// in\n    tag_424:\n        /* \"#utility.yul\":11313:11315   */\n      0x20\n        /* \"#utility.yul\":11308:11311   */\n      dup3\n        /* \"#utility.yul\":11304:11316   */\n      add\n        /* \"#utility.yul\":11297:11316   */\n      swap1\n      pop\n        /* \"#utility.yul\":11102:11322   */\n      swap2\n      swap1\n      pop\n      jump\t// out\n        /* \"#utility.yul\":11328:11694   */\n    tag_426:\n        /* \"#utility.yul\":11470:11473   */\n      0x00\n        /* \"#utility.yul\":11491:11558   */\n      tag_428\n        /* \"#utility.yul\":11555:11557   */\n      0x12\n        /* \"#utility.yul\":11550:11553   */\n      dup4\n        /* \"#utility.yul\":11491:11558   */\n      tag_372\n      jump\t// in\n    tag_428:\n        /* \"#utility.yul\":11484:11558   */\n      swap2\n      pop\n        /* \"#utility.yul\":11567:11660   */\n      tag_429\n        /* \"#utility.yul\":11656:11659   */\n      dup3\n        /* \"#utility.yul\":11567:11660   */\n      tag_430\n      jump\t// in\n    tag_429:\n        /* \"#utility.yul\":11685:11687   */\n      0x20\n        /* \"#utility.yul\":11680:11683   */\n      dup3\n        /* \"#utility.yul\":11676:11688   */\n      add\n        /* \"#utility.yul\":11669:11688   */\n      swap1\n      pop\n        /* \"#utility.yul\":11474:11694   */\n      swap2\n      swap1\n      pop\n      jump\t// out\n        /* \"#utility.yul\":11700:12065   */\n    tag_431:\n        /* \"#utility.yul\":11842:11845   */\n      0x00\n        /* \"#utility.yul\":11863:11929   */\n      tag_433\n        /* \"#utility.yul\":11927:11928   */\n      0x09\n        /* \"#utility.yul\":11922:11925   */\n      dup4\n        /* \"#utility.yul\":11863:11929   */\n      tag_372\n      jump\t// in\n    tag_433:\n        /* \"#utility.yul\":11856:11929   */\n      swap2\n      pop\n        /* \"#utility.yul\":11938:12031   */\n      tag_434\n        /* \"#utility.yul\":12027:12030   */\n      dup3\n        /* \"#utility.yul\":11938:12031   */\n      tag_435\n      jump\t// in\n    tag_434:\n        /* \"#utility.yul\":12056:12058   */\n      0x20\n        /* \"#utility.yul\":12051:12054   */\n      dup3\n        /* \"#utility.yul\":12047:12059   */\n      add\n        /* \"#utility.yul\":12040:12059   */\n      swap1\n      pop\n        /* \"#utility.yul\":11846:12065   */\n      swap2\n      swap1\n      pop\n      jump\t// out\n        /* \"#utility.yul\":12071:12437   */\n    tag_436:\n        /* \"#utility.yul\":12213:12216   */\n      0x00\n        /* \"#utility.yul\":12234:12301   */\n      tag_438\n        /* \"#utility.yul\":12298:12300   */\n      0x0f\n        /* \"#utility.yul\":12293:12296   */\n      dup4\n        /* \"#utility.yul\":12234:12301   */\n      tag_372\n      jump\t// in\n    tag_438:\n        /* \"#utility.yul\":12227:12301   */\n      swap2\n      pop\n        /* \"#utility.yul\":12310:12403   */\n      tag_439\n        /* \"#utility.yul\":12399:12402   */\n      dup3\n        /* \"#utility.yul\":12310:12403   */\n      tag_440\n      jump\t// in\n    tag_439:\n        /* \"#utility.yul\":12428:12430   */\n      0x20\n        /* \"#utility.yul\":12423:12426   */\n      dup3\n        /* \"#utility.yul\":12419:12431   */\n      add\n        /* \"#utility.yul\":12412:12431   */\n      swap1\n      pop\n        /* \"#utility.yul\":12217:12437   */\n      swap2\n      swap1\n      pop\n      jump\t// out\n        /* \"#utility.yul\":12443:12561   */\n    tag_441:\n        /* \"#utility.yul\":12530:12554   */\n      tag_443\n        /* \"#utility.yul\":12548:12553   */\n      dup2\n        /* \"#utility.yul\":12530:12554   */\n      tag_444\n      jump\t// in\n    tag_443:\n        /* \"#utility.yul\":12525:12528   */\n      dup3\n        /* \"#utility.yul\":12518:12555   */\n      mstore\n        /* \"#utility.yul\":12508:12561   */\n      pop\n      pop\n      jump\t// out\n        /* \"#utility.yul\":12567:12823   */\n    tag_187:\n        /* \"#utility.yul\":12679:12682   */\n      0x00\n        /* \"#utility.yul\":12694:12769   */\n      tag_446\n        /* \"#utility.yul\":12765:12768   */\n      dup3\n        /* \"#utility.yul\":12756:12762   */\n      dup5\n        /* \"#utility.yul\":12694:12769   */\n      tag_339\n      jump\t// in\n    tag_446:\n        /* \"#utility.yul\":12794:12796   */\n      0x14\n        /* \"#utility.yul\":12789:12792   */\n      dup3\n        /* \"#utility.yul\":12785:12797   */\n      add\n        /* \"#utility.yul\":12778:12797   */\n      swap2\n      pop\n        /* \"#utility.yul\":12814:12817   */\n      dup2\n        /* \"#utility.yul\":12807:12817   */\n      swap1\n      pop\n        /* \"#utility.yul\":12683:12823   */\n      swap3\n      swap2\n      pop\n      pop\n      jump\t// out\n        /* \"#utility.yul\":12829:13226   */\n    tag_252:\n        /* \"#utility.yul\":12969:12972   */\n      0x00\n        /* \"#utility.yul\":12984:13059   */\n      tag_448\n        /* \"#utility.yul\":13055:13058   */\n      dup3\n        /* \"#utility.yul\":13046:13052   */\n      dup6\n        /* \"#utility.yul\":12984:13059   */\n      tag_352\n      jump\t// in\n    tag_448:\n        /* \"#utility.yul\":13084:13086   */\n      0x20\n        /* \"#utility.yul\":13079:13082   */\n      dup3\n        /* \"#utility.yul\":13075:13087   */\n      add\n        /* \"#utility.yul\":13068:13087   */\n      swap2\n      pop\n        /* \"#utility.yul\":13097:13172   */\n      tag_449\n        /* \"#utility.yul\":13168:13171   */\n      dup3\n        /* \"#utility.yul\":13159:13165   */\n      dup5\n        /* \"#utility.yul\":13097:13172   */\n      tag_352\n      jump\t// in\n    tag_449:\n        /* \"#utility.yul\":13197:13199   */\n      0x20\n        /* \"#utility.yul\":13192:13195   */\n      dup3\n        /* \"#utility.yul\":13188:13200   */\n      add\n        /* \"#utility.yul\":13181:13200   */\n      swap2\n      pop\n        /* \"#utility.yul\":13217:13220   */\n      dup2\n        /* \"#utility.yul\":13210:13220   */\n      swap1\n      pop\n        /* \"#utility.yul\":12973:13226   */\n      swap4\n      swap3\n      pop\n      pop\n      pop\n      jump\t// out\n        /* \"#utility.yul\":13232:13667   */\n    tag_167:\n        /* \"#utility.yul\":13412:13415   */\n      0x00\n        /* \"#utility.yul\":13434:13529   */\n      tag_451\n        /* \"#utility.yul\":13525:13528   */\n      dup3\n        /* \"#utility.yul\":13516:13522   */\n      dup6\n        /* \"#utility.yul\":13434:13529   */\n      tag_375\n      jump\t// in\n    tag_451:\n        /* \"#utility.yul\":13427:13529   */\n      swap2\n      pop\n        /* \"#utility.yul\":13546:13641   */\n      tag_452\n        /* \"#utility.yul\":13637:13640   */\n      dup3\n        /* \"#utility.yul\":13628:13634   */\n      dup5\n        /* \"#utility.yul\":13546:13641   */\n      tag_375\n      jump\t// in\n    tag_452:\n        /* \"#utility.yul\":13539:13641   */\n      swap2\n      pop\n        /* \"#utility.yul\":13658:13661   */\n      dup2\n        /* \"#utility.yul\":13651:13661   */\n      swap1\n      pop\n        /* \"#utility.yul\":13416:13667   */\n      swap4\n      swap3\n      pop\n      pop\n      pop\n      jump\t// out\n        /* \"#utility.yul\":13673:13895   */\n    tag_37:\n        /* \"#utility.yul\":13766:13770   */\n      0x00\n        /* \"#utility.yul\":13804:13806   */\n      0x20\n        /* \"#utility.yul\":13793:13802   */\n      dup3\n        /* \"#utility.yul\":13789:13807   */\n      add\n        /* \"#utility.yul\":13781:13807   */\n      swap1\n      pop\n        /* \"#utility.yul\":13817:13888   */\n      tag_454\n        /* \"#utility.yul\":13885:13886   */\n      0x00\n        /* \"#utility.yul\":13874:13883   */\n      dup4\n        /* \"#utility.yul\":13870:13887   */\n      add\n        /* \"#utility.yul\":13861:13867   */\n      dup5\n        /* \"#utility.yul\":13817:13888   */\n      tag_335\n      jump\t// in\n    tag_454:\n        /* \"#utility.yul\":13771:13895   */\n      swap3\n      swap2\n      pop\n      pop\n      jump\t// out\n        /* \"#utility.yul\":13901:14541   */\n    tag_233:\n        /* \"#utility.yul\":14096:14100   */\n      0x00\n        /* \"#utility.yul\":14134:14137   */\n      0x80\n        /* \"#utility.yul\":14123:14132   */\n      dup3\n        /* \"#utility.yul\":14119:14138   */\n      add\n        /* \"#utility.yul\":14111:14138   */\n      swap1\n      pop\n        /* \"#utility.yul\":14148:14219   */\n      tag_456\n        /* \"#utility.yul\":14216:14217   */\n      0x00\n        /* \"#utility.yul\":14205:14214   */\n      dup4\n        /* \"#utility.yul\":14201:14218   */\n      add\n        /* \"#utility.yul\":14192:14198   */\n      dup8\n        /* \"#utility.yul\":14148:14219   */\n      tag_335\n      jump\t// in\n    tag_456:\n        /* \"#utility.yul\":14229:14301   */\n      tag_457\n        /* \"#utility.yul\":14297:14299   */\n      0x20\n        /* \"#utility.yul\":14286:14295   */\n      dup4\n        /* \"#utility.yul\":14282:14300   */\n      add\n        /* \"#utility.yul\":14273:14279   */\n      dup7\n        /* \"#utility.yul\":14229:14301   */\n      tag_335\n      jump\t// in\n    tag_457:\n        /* \"#utility.yul\":14311:14383   */\n      tag_458\n        /* \"#utility.yul\":14379:14381   */\n      0x40\n        /* \"#utility.yul\":14368:14377   */\n      dup4\n        /* \"#utility.yul\":14364:14382   */\n      add\n        /* \"#utility.yul\":14355:14361   */\n      dup6\n        /* \"#utility.yul\":14311:14383   */\n      tag_441\n      jump\t// in\n    tag_458:\n        /* \"#utility.yul\":14430:14439   */\n      dup2\n        /* \"#utility.yul\":14424:14428   */\n      dup2\n        /* \"#utility.yul\":14420:14440   */\n      sub\n        /* \"#utility.yul\":14415:14417   */\n      0x60\n        /* \"#utility.yul\":14404:14413   */\n      dup4\n        /* \"#utility.yul\":14400:14418   */\n      add\n        /* \"#utility.yul\":14393:14441   */\n      mstore\n        /* \"#utility.yul\":14458:14534   */\n      tag_459\n        /* \"#utility.yul\":14529:14533   */\n      dup2\n        /* \"#utility.yul\":14520:14526   */\n      dup5\n        /* \"#utility.yul\":14458:14534   */\n      tag_357\n      jump\t// in\n    tag_459:\n        /* \"#utility.yul\":14450:14534   */\n      swap1\n      pop\n        /* \"#utility.yul\":14101:14541   */\n      swap6\n      swap5\n      pop\n      pop\n      pop\n      pop\n      pop\n      jump\t// out\n        /* \"#utility.yul\":14547:14757   */\n    tag_27:\n        /* \"#utility.yul\":14634:14638   */\n      0x00\n        /* \"#utility.yul\":14672:14674   */\n      0x20\n        /* \"#utility.yul\":14661:14670   */\n      dup3\n        /* \"#utility.yul\":14657:14675   */\n      add\n        /* \"#utility.yul\":14649:14675   */\n      swap1\n      pop\n        /* \"#utility.yul\":14685:14750   */\n      tag_461\n        /* \"#utility.yul\":14747:14748   */\n      0x00\n        /* \"#utility.yul\":14736:14745   */\n      dup4\n        /* \"#utility.yul\":14732:14749   */\n      add\n        /* \"#utility.yul\":14723:14729   */\n      dup5\n        /* \"#utility.yul\":14685:14750   */\n      tag_344\n      jump\t// in\n    tag_461:\n        /* \"#utility.yul\":14639:14757   */\n      swap3\n      swap2\n      pop\n      pop\n      jump\t// out\n        /* \"#utility.yul\":14763:14985   */\n    tag_90:\n        /* \"#utility.yul\":14856:14860   */\n      0x00\n        /* \"#utility.yul\":14894:14896   */\n      0x20\n        /* \"#utility.yul\":14883:14892   */\n      dup3\n        /* \"#utility.yul\":14879:14897   */\n      add\n        /* \"#utility.yul\":14871:14897   */\n      swap1\n      pop\n        /* \"#utility.yul\":14907:14978   */\n      tag_463\n        /* \"#utility.yul\":14975:14976   */\n      0x00\n        /* \"#utility.yul\":14964:14973   */\n      dup4\n        /* \"#utility.yul\":14960:14977   */\n      add\n        /* \"#utility.yul\":14951:14957   */\n      dup5\n        /* \"#utility.yul\":14907:14978   */\n      tag_348\n      jump\t// in\n    tag_463:\n        /* \"#utility.yul\":14861:14985   */\n      swap3\n      swap2\n      pop\n      pop\n      jump\t// out\n        /* \"#utility.yul\":14991:15304   */\n    tag_31:\n        /* \"#utility.yul\":15104:15108   */\n      0x00\n        /* \"#utility.yul\":15142:15144   */\n      0x20\n        /* \"#utility.yul\":15131:15140   */\n      dup3\n        /* \"#utility.yul\":15127:15145   */\n      add\n        /* \"#utility.yul\":15119:15145   */\n      swap1\n      pop\n        /* \"#utility.yul\":15191:15200   */\n      dup2\n        /* \"#utility.yul\":15185:15189   */\n      dup2\n        /* \"#utility.yul\":15181:15201   */\n      sub\n        /* \"#utility.yul\":15177:15178   */\n      0x00\n        /* \"#utility.yul\":15166:15175   */\n      dup4\n        /* \"#utility.yul\":15162:15179   */\n      add\n        /* \"#utility.yul\":15155:15202   */\n      mstore\n        /* \"#utility.yul\":15219:15297   */\n      tag_465\n        /* \"#utility.yul\":15292:15296   */\n      dup2\n        /* \"#utility.yul\":15283:15289   */\n      dup5\n        /* \"#utility.yul\":15219:15297   */\n      tag_367\n      jump\t// in\n    tag_465:\n        /* \"#utility.yul\":15211:15297   */\n      swap1\n      pop\n        /* \"#utility.yul\":15109:15304   */\n      swap3\n      swap2\n      pop\n      pop\n      jump\t// out\n        /* \"#utility.yul\":15310:15729   */\n    tag_117:\n        /* \"#utility.yul\":15476:15480   */\n      0x00\n        /* \"#utility.yul\":15514:15516   */\n      0x20\n        /* \"#utility.yul\":15503:15512   */\n      dup3\n        /* \"#utility.yul\":15499:15517   */\n      add\n        /* \"#utility.yul\":15491:15517   */\n      swap1\n      pop\n        /* \"#utility.yul\":15563:15572   */\n      dup2\n        /* \"#utility.yul\":15557:15561   */\n      dup2\n        /* \"#utility.yul\":15553:15573   */\n      sub\n        /* \"#utility.yul\":15549:15550   */\n      0x00\n        /* \"#utility.yul\":15538:15547   */\n      dup4\n        /* \"#utility.yul\":15534:15551   */\n      add\n        /* \"#utility.yul\":15527:15574   */\n      mstore\n        /* \"#utility.yul\":15591:15722   */\n      tag_467\n        /* \"#utility.yul\":15717:15721   */\n      dup2\n        /* \"#utility.yul\":15591:15722   */\n      tag_381\n      jump\t// in\n    tag_467:\n        /* \"#utility.yul\":15583:15722   */\n      swap1\n      pop\n        /* \"#utility.yul\":15481:15729   */\n      swap2\n      swap1\n      pop\n      jump\t// out\n        /* \"#utility.yul\":15735:16154   */\n    tag_179:\n        /* \"#utility.yul\":15901:15905   */\n      0x00\n        /* \"#utility.yul\":15939:15941   */\n      0x20\n        /* \"#utility.yul\":15928:15937   */\n      dup3\n        /* \"#utility.yul\":15924:15942   */\n      add\n        /* \"#utility.yul\":15916:15942   */\n      swap1\n      pop\n        /* \"#utility.yul\":15988:15997   */\n      dup2\n        /* \"#utility.yul\":15982:15986   */\n      dup2\n        /* \"#utility.yul\":15978:15998   */\n      sub\n        /* \"#utility.yul\":15974:15975   */\n      0x00\n        /* \"#utility.yul\":15963:15972   */\n      dup4\n        /* \"#utility.yul\":15959:15976   */\n      add\n        /* \"#utility.yul\":15952:15999   */\n      mstore\n        /* \"#utility.yul\":16016:16147   */\n      tag_469\n        /* \"#utility.yul\":16142:16146   */\n      dup2\n        /* \"#utility.yul\":16016:16147   */\n      tag_386\n      jump\t// in\n    tag_469:\n        /* \"#utility.yul\":16008:16147   */\n      swap1\n      pop\n        /* \"#utility.yul\":15906:16154   */\n      swap2\n      swap1\n      pop\n      jump\t// out\n        /* \"#utility.yul\":16160:16579   */\n    tag_108:\n        /* \"#utility.yul\":16326:16330   */\n      0x00\n        /* \"#utility.yul\":16364:16366   */\n      0x20\n        /* \"#utility.yul\":16353:16362   */\n      dup3\n        /* \"#utility.yul\":16349:16367   */\n      add\n        /* \"#utility.yul\":16341:16367   */\n      swap1\n      pop\n        /* \"#utility.yul\":16413:16422   */\n      dup2\n        /* \"#utility.yul\":16407:16411   */\n      dup2\n        /* \"#utility.yul\":16403:16423   */\n      sub\n        /* \"#utility.yul\":16399:16400   */\n      0x00\n        /* \"#utility.yul\":16388:16397   */\n      dup4\n        /* \"#utility.yul\":16384:16401   */\n      add\n        /* \"#utility.yul\":16377:16424   */\n      mstore\n        /* \"#utility.yul\":16441:16572   */\n      tag_471\n        /* \"#utility.yul\":16567:16571   */\n      dup2\n        /* \"#utility.yul\":16441:16572   */\n      tag_391\n      jump\t// in\n    tag_471:\n        /* \"#utility.yul\":16433:16572   */\n      swap1\n      pop\n        /* \"#utility.yul\":16331:16579   */\n      swap2\n      swap1\n      pop\n      jump\t// out\n        /* \"#utility.yul\":16585:17004   */\n    tag_194:\n        /* \"#utility.yul\":16751:16755   */\n      0x00\n        /* \"#utility.yul\":16789:16791   */\n      0x20\n        /* \"#utility.yul\":16778:16787   */\n      dup3\n        /* \"#utility.yul\":16774:16792   */\n      add\n        /* \"#utility.yul\":16766:16792   */\n      swap1\n      pop\n        /* \"#utility.yul\":16838:16847   */\n      dup2\n        /* \"#utility.yul\":16832:16836   */\n      dup2\n        /* \"#utility.yul\":16828:16848   */\n      sub\n        /* \"#utility.yul\":16824:16825   */\n      0x00\n        /* \"#utility.yul\":16813:16822   */\n      dup4\n        /* \"#utility.yul\":16809:16826   */\n      add\n        /* \"#utility.yul\":16802:16849   */\n      mstore\n        /* \"#utility.yul\":16866:16997   */\n      tag_473\n        /* \"#utility.yul\":16992:16996   */\n      dup2\n        /* \"#utility.yul\":16866:16997   */\n      tag_396\n      jump\t// in\n    tag_473:\n        /* \"#utility.yul\":16858:16997   */\n      swap1\n      pop\n        /* \"#utility.yul\":16756:17004   */\n      swap2\n      swap1\n      pop\n      jump\t// out\n        /* \"#utility.yul\":17010:17429   */\n    tag_103:\n        /* \"#utility.yul\":17176:17180   */\n      0x00\n        /* \"#utility.yul\":17214:17216   */\n      0x20\n        /* \"#utility.yul\":17203:17212   */\n      dup3\n        /* \"#utility.yul\":17199:17217   */\n      add\n        /* \"#utility.yul\":17191:17217   */\n      swap1\n      pop\n        /* \"#utility.yul\":17263:17272   */\n      dup2\n        /* \"#utility.yul\":17257:17261   */\n      dup2\n        /* \"#utility.yul\":17253:17273   */\n      sub\n        /* \"#utility.yul\":17249:17250   */\n      0x00\n        /* \"#utility.yul\":17238:17247   */\n      dup4\n        /* \"#utility.yul\":17234:17251   */\n      add\n        /* \"#utility.yul\":17227:17274   */\n      mstore\n        /* \"#utility.yul\":17291:17422   */\n      tag_475\n        /* \"#utility.yul\":17417:17421   */\n      dup2\n        /* \"#utility.yul\":17291:17422   */\n      tag_401\n      jump\t// in\n    tag_475:\n        /* \"#utility.yul\":17283:17422   */\n      swap1\n      pop\n        /* \"#utility.yul\":17181:17429   */\n      swap2\n      swap1\n      pop\n      jump\t// out\n        /* \"#utility.yul\":17435:17854   */\n    tag_141:\n        /* \"#utility.yul\":17601:17605   */\n      0x00\n        /* \"#utility.yul\":17639:17641   */\n      0x20\n        /* \"#utility.yul\":17628:17637   */\n      dup3\n        /* \"#utility.yul\":17624:17642   */\n      add\n        /* \"#utility.yul\":17616:17642   */\n      swap1\n      pop\n        /* \"#utility.yul\":17688:17697   */\n      dup2\n        /* \"#utility.yul\":17682:17686   */\n      dup2\n        /* \"#utility.yul\":17678:17698   */\n      sub\n        /* \"#utility.yul\":17674:17675   */\n      0x00\n        /* \"#utility.yul\":17663:17672   */\n      dup4\n        /* \"#utility.yul\":17659:17676   */\n      add\n        /* \"#utility.yul\":17652:17699   */\n      mstore\n        /* \"#utility.yul\":17716:17847   */\n      tag_477\n        /* \"#utility.yul\":17842:17846   */\n      dup2\n        /* \"#utility.yul\":17716:17847   */\n      tag_406\n      jump\t// in\n    tag_477:\n        /* \"#utility.yul\":17708:17847   */\n      swap1\n      pop\n        /* \"#utility.yul\":17606:17854   */\n      swap2\n      swap1\n      pop\n      jump\t// out\n        /* \"#utility.yul\":17860:18279   */\n    tag_132:\n        /* \"#utility.yul\":18026:18030   */\n      0x00\n        /* \"#utility.yul\":18064:18066   */\n      0x20\n        /* \"#utility.yul\":18053:18062   */\n      dup3\n        /* \"#utility.yul\":18049:18067   */\n      add\n        /* \"#utility.yul\":18041:18067   */\n      swap1\n      pop\n        /* \"#utility.yul\":18113:18122   */\n      dup2\n        /* \"#utility.yul\":18107:18111   */\n      dup2\n        /* \"#utility.yul\":18103:18123   */\n      sub\n        /* \"#utility.yul\":18099:18100   */\n      0x00\n        /* \"#utility.yul\":18088:18097   */\n      dup4\n        /* \"#utility.yul\":18084:18101   */\n      add\n        /* \"#utility.yul\":18077:18124   */\n      mstore\n        /* \"#utility.yul\":18141:18272   */\n      tag_479\n        /* \"#utility.yul\":18267:18271   */\n      dup2\n        /* \"#utility.yul\":18141:18272   */\n      tag_411\n      jump\t// in\n    tag_479:\n        /* \"#utility.yul\":18133:18272   */\n      swap1\n      pop\n        /* \"#utility.yul\":18031:18279   */\n      swap2\n      swap1\n      pop\n      jump\t// out\n        /* \"#utility.yul\":18285:18704   */\n    tag_159:\n        /* \"#utility.yul\":18451:18455   */\n      0x00\n        /* \"#utility.yul\":18489:18491   */\n      0x20\n        /* \"#utility.yul\":18478:18487   */\n      dup3\n        /* \"#utility.yul\":18474:18492   */\n      add\n        /* \"#utility.yul\":18466:18492   */\n      swap1\n      pop\n        /* \"#utility.yul\":18538:18547   */\n      dup2\n        /* \"#utility.yul\":18532:18536   */\n      dup2\n        /* \"#utility.yul\":18528:18548   */\n      sub\n        /* \"#utility.yul\":18524:18525   */\n      0x00\n        /* \"#utility.yul\":18513:18522   */\n      dup4\n        /* \"#utility.yul\":18509:18526   */\n      add\n        /* \"#utility.yul\":18502:18549   */\n      mstore\n        /* \"#utility.yul\":18566:18697   */\n      tag_481\n        /* \"#utility.yul\":18692:18696   */\n      dup2\n        /* \"#utility.yul\":18566:18697   */\n      tag_416\n      jump\t// in\n    tag_481:\n        /* \"#utility.yul\":18558:18697   */\n      swap1\n      pop\n        /* \"#utility.yul\":18456:18704   */\n      swap2\n      swap1\n      pop\n      jump\t// out\n        /* \"#utility.yul\":18710:19129   */\n    tag_197:\n        /* \"#utility.yul\":18876:18880   */\n      0x00\n        /* \"#utility.yul\":18914:18916   */\n      0x20\n        /* \"#utility.yul\":18903:18912   */\n      dup3\n        /* \"#utility.yul\":18899:18917   */\n      add\n        /* \"#utility.yul\":18891:18917   */\n      swap1\n      pop\n        /* \"#utility.yul\":18963:18972   */\n      dup2\n        /* \"#utility.yul\":18957:18961   */\n      dup2\n        /* \"#utility.yul\":18953:18973   */\n      sub\n        /* \"#utility.yul\":18949:18950   */\n      0x00\n        /* \"#utility.yul\":18938:18947   */\n      dup4\n        /* \"#utility.yul\":18934:18951   */\n      add\n        /* \"#utility.yul\":18927:18974   */\n      mstore\n        /* \"#utility.yul\":18991:19122   */\n      tag_483\n        /* \"#utility.yul\":19117:19121   */\n      dup2\n        /* \"#utility.yul\":18991:19122   */\n      tag_421\n      jump\t// in\n    tag_483:\n        /* \"#utility.yul\":18983:19122   */\n      swap1\n      pop\n        /* \"#utility.yul\":18881:19129   */\n      swap2\n      swap1\n      pop\n      jump\t// out\n        /* \"#utility.yul\":19135:19554   */\n    tag_205:\n        /* \"#utility.yul\":19301:19305   */\n      0x00\n        /* \"#utility.yul\":19339:19341   */\n      0x20\n        /* \"#utility.yul\":19328:19337   */\n      dup3\n        /* \"#utility.yul\":19324:19342   */\n      add\n        /* \"#utility.yul\":19316:19342   */\n      swap1\n      pop\n        /* \"#utility.yul\":19388:19397   */\n      dup2\n        /* \"#utility.yul\":19382:19386   */\n      dup2\n        /* \"#utility.yul\":19378:19398   */\n      sub\n        /* \"#utility.yul\":19374:19375   */\n      0x00\n        /* \"#utility.yul\":19363:19372   */\n      dup4\n        /* \"#utility.yul\":19359:19376   */\n      add\n        /* \"#utility.yul\":19352:19399   */\n      mstore\n        /* \"#utility.yul\":19416:19547   */\n      tag_485\n        /* \"#utility.yul\":19542:19546   */\n      dup2\n        /* \"#utility.yul\":19416:19547   */\n      tag_426\n      jump\t// in\n    tag_485:\n        /* \"#utility.yul\":19408:19547   */\n      swap1\n      pop\n        /* \"#utility.yul\":19306:19554   */\n      swap2\n      swap1\n      pop\n      jump\t// out\n        /* \"#utility.yul\":19560:19979   */\n    tag_176:\n        /* \"#utility.yul\":19726:19730   */\n      0x00\n        /* \"#utility.yul\":19764:19766   */\n      0x20\n        /* \"#utility.yul\":19753:19762   */\n      dup3\n        /* \"#utility.yul\":19749:19767   */\n      add\n        /* \"#utility.yul\":19741:19767   */\n      swap1\n      pop\n        /* \"#utility.yul\":19813:19822   */\n      dup2\n        /* \"#utility.yul\":19807:19811   */\n      dup2\n        /* \"#utility.yul\":19803:19823   */\n      sub\n        /* \"#utility.yul\":19799:19800   */\n      0x00\n        /* \"#utility.yul\":19788:19797   */\n      dup4\n        /* \"#utility.yul\":19784:19801   */\n      add\n        /* \"#utility.yul\":19777:19824   */\n      mstore\n        /* \"#utility.yul\":19841:19972   */\n      tag_487\n        /* \"#utility.yul\":19967:19971   */\n      dup2\n        /* \"#utility.yul\":19841:19972   */\n      tag_431\n      jump\t// in\n    tag_487:\n        /* \"#utility.yul\":19833:19972   */\n      swap1\n      pop\n        /* \"#utility.yul\":19731:19979   */\n      swap2\n      swap1\n      pop\n      jump\t// out\n        /* \"#utility.yul\":19985:20404   */\n    tag_135:\n        /* \"#utility.yul\":20151:20155   */\n      0x00\n        /* \"#utility.yul\":20189:20191   */\n      0x20\n        /* \"#utility.yul\":20178:20187   */\n      dup3\n        /* \"#utility.yul\":20174:20192   */\n      add\n        /* \"#utility.yul\":20166:20192   */\n      swap1\n      pop\n        /* \"#utility.yul\":20238:20247   */\n      dup2\n        /* \"#utility.yul\":20232:20236   */\n      dup2\n        /* \"#utility.yul\":20228:20248   */\n      sub\n        /* \"#utility.yul\":20224:20225   */\n      0x00\n        /* \"#utility.yul\":20213:20222   */\n      dup4\n        /* \"#utility.yul\":20209:20226   */\n      add\n        /* \"#utility.yul\":20202:20249   */\n      mstore\n        /* \"#utility.yul\":20266:20397   */\n      tag_489\n        /* \"#utility.yul\":20392:20396   */\n      dup2\n        /* \"#utility.yul\":20266:20397   */\n      tag_436\n      jump\t// in\n    tag_489:\n        /* \"#utility.yul\":20258:20397   */\n      swap1\n      pop\n        /* \"#utility.yul\":20156:20404   */\n      swap2\n      swap1\n      pop\n      jump\t// out\n        /* \"#utility.yul\":20410:20632   */\n    tag_66:\n        /* \"#utility.yul\":20503:20507   */\n      0x00\n        /* \"#utility.yul\":20541:20543   */\n      0x20\n        /* \"#utility.yul\":20530:20539   */\n      dup3\n        /* \"#utility.yul\":20526:20544   */\n      add\n        /* \"#utility.yul\":20518:20544   */\n      swap1\n      pop\n        /* \"#utility.yul\":20554:20625   */\n      tag_491\n        /* \"#utility.yul\":20622:20623   */\n      0x00\n        /* \"#utility.yul\":20611:20620   */\n      dup4\n        /* \"#utility.yul\":20607:20624   */\n      add\n        /* \"#utility.yul\":20598:20604   */\n      dup5\n        /* \"#utility.yul\":20554:20625   */\n      tag_441\n      jump\t// in\n    tag_491:\n        /* \"#utility.yul\":20508:20632   */\n      swap3\n      swap2\n      pop\n      pop\n      jump\t// out\n        /* \"#utility.yul\":20638:20767   */\n    tag_261:\n        /* \"#utility.yul\":20672:20678   */\n      0x00\n        /* \"#utility.yul\":20699:20719   */\n      tag_493\n      tag_494\n      jump\t// in\n    tag_493:\n        /* \"#utility.yul\":20689:20719   */\n      swap1\n      pop\n        /* \"#utility.yul\":20728:20761   */\n      tag_495\n        /* \"#utility.yul\":20756:20760   */\n      dup3\n        /* \"#utility.yul\":20748:20754   */\n      dup3\n        /* \"#utility.yul\":20728:20761   */\n      tag_496\n      jump\t// in\n    tag_495:\n        /* \"#utility.yul\":20679:20767   */\n      swap2\n      swap1\n      pop\n      jump\t// out\n        /* \"#utility.yul\":20773:20848   */\n    tag_494:\n        /* \"#utility.yul\":20806:20812   */\n      0x00\n        /* \"#utility.yul\":20839:20841   */\n      0x40\n        /* \"#utility.yul\":20833:20842   */\n      mload\n        /* \"#utility.yul\":20823:20842   */\n      swap1\n      pop\n        /* \"#utility.yul\":20813:20848   */\n      swap1\n      jump\t// out\n        /* \"#utility.yul\":20854:21161   */\n    tag_260:\n        /* \"#utility.yul\":20915:20919   */\n      0x00\n        /* \"#utility.yul\":21005:21023   */\n      0xffffffffffffffff\n        /* \"#utility.yul\":20997:21003   */\n      dup3\n        /* \"#utility.yul\":20994:21024   */\n      gt\n        /* \"#utility.yul\":20991:20993   */\n      iszero\n      tag_499\n      jumpi\n        /* \"#utility.yul\":21027:21045   */\n      tag_500\n      tag_501\n      jump\t// in\n    tag_500:\n        /* \"#utility.yul\":20991:20993   */\n    tag_499:\n        /* \"#utility.yul\":21065:21094   */\n      tag_502\n        /* \"#utility.yul\":21087:21093   */\n      dup3\n        /* \"#utility.yul\":21065:21094   */\n      tag_366\n      jump\t// in\n    tag_502:\n        /* \"#utility.yul\":21057:21094   */\n      swap1\n      pop\n        /* \"#utility.yul\":21149:21153   */\n      0x20\n        /* \"#utility.yul\":21143:21147   */\n      dup2\n        /* \"#utility.yul\":21139:21154   */\n      add\n        /* \"#utility.yul\":21131:21154   */\n      swap1\n      pop\n        /* \"#utility.yul\":20920:21161   */\n      swap2\n      swap1\n      pop\n      jump\t// out\n        /* \"#utility.yul\":21167:21265   */\n    tag_360:\n        /* \"#utility.yul\":21218:21224   */\n      0x00\n        /* \"#utility.yul\":21252:21257   */\n      dup2\n        /* \"#utility.yul\":21246:21258   */\n      mload\n        /* \"#utility.yul\":21236:21258   */\n      swap1\n      pop\n        /* \"#utility.yul\":21225:21265   */\n      swap2\n      swap1\n      pop\n      jump\t// out\n        /* \"#utility.yul\":21271:21370   */\n    tag_370:\n        /* \"#utility.yul\":21323:21329   */\n      0x00\n        /* \"#utility.yul\":21357:21362   */\n      dup2\n        /* \"#utility.yul\":21351:21363   */\n      mload\n        /* \"#utility.yul\":21341:21363   */\n      swap1\n      pop\n        /* \"#utility.yul\":21330:21370   */\n      swap2\n      swap1\n      pop\n      jump\t// out\n        /* \"#utility.yul\":21376:21544   */\n    tag_362:\n        /* \"#utility.yul\":21459:21470   */\n      0x00\n        /* \"#utility.yul\":21493:21499   */\n      dup3\n        /* \"#utility.yul\":21488:21491   */\n      dup3\n        /* \"#utility.yul\":21481:21500   */\n      mstore\n        /* \"#utility.yul\":21533:21537   */\n      0x20\n        /* \"#utility.yul\":21528:21531   */\n      dup3\n        /* \"#utility.yul\":21524:21538   */\n      add\n        /* \"#utility.yul\":21509:21538   */\n      swap1\n      pop\n        /* \"#utility.yul\":21471:21544   */\n      swap3\n      swap2\n      pop\n      pop\n      jump\t// out\n        /* \"#utility.yul\":21550:21719   */\n    tag_372:\n        /* \"#utility.yul\":21634:21645   */\n      0x00\n        /* \"#utility.yul\":21668:21674   */\n      dup3\n        /* \"#utility.yul\":21663:21666   */\n      dup3\n        /* \"#utility.yul\":21656:21675   */\n      mstore\n        /* \"#utility.yul\":21708:21712   */\n      0x20\n        /* \"#utility.yul\":21703:21706   */\n      dup3\n        /* \"#utility.yul\":21699:21713   */\n      add\n        /* \"#utility.yul\":21684:21713   */\n      swap1\n      pop\n        /* \"#utility.yul\":21646:21719   */\n      swap3\n      swap2\n      pop\n      pop\n      jump\t// out\n        /* \"#utility.yul\":21725:21873   */\n    tag_379:\n        /* \"#utility.yul\":21827:21838   */\n      0x00\n        /* \"#utility.yul\":21864:21867   */\n      dup2\n        /* \"#utility.yul\":21849:21867   */\n      swap1\n      pop\n        /* \"#utility.yul\":21839:21873   */\n      swap3\n      swap2\n      pop\n      pop\n      jump\t// out\n        /* \"#utility.yul\":21879:22184   */\n    tag_184:\n        /* \"#utility.yul\":21919:21922   */\n      0x00\n        /* \"#utility.yul\":21938:21958   */\n      tag_509\n        /* \"#utility.yul\":21956:21957   */\n      dup3\n        /* \"#utility.yul\":21938:21958   */\n      tag_444\n      jump\t// in\n    tag_509:\n        /* \"#utility.yul\":21933:21958   */\n      swap2\n      pop\n        /* \"#utility.yul\":21972:21992   */\n      tag_510\n        /* \"#utility.yul\":21990:21991   */\n      dup4\n        /* \"#utility.yul\":21972:21992   */\n      tag_444\n      jump\t// in\n    tag_510:\n        /* \"#utility.yul\":21967:21992   */\n      swap3\n      pop\n        /* \"#utility.yul\":22126:22127   */\n      dup3\n        /* \"#utility.yul\":22058:22124   */\n      0xffffffffffffffffffffffffffffffffffffffffffffffffffffffffffffffff\n        /* \"#utility.yul\":22054:22128   */\n      sub\n        /* \"#utility.yul\":22051:22052   */\n      dup3\n        /* \"#utility.yul\":22048:22129   */\n      gt\n        /* \"#utility.yul\":22045:22047   */\n      iszero\n      tag_511\n      jumpi\n        /* \"#utility.yul\":22132:22150   */\n      tag_512\n      tag_513\n      jump\t// in\n    tag_512:\n        /* \"#utility.yul\":22045:22047   */\n    tag_511:\n        /* \"#utility.yul\":22176:22177   */\n      dup3\n        /* \"#utility.yul\":22173:22174   */\n      dup3\n        /* \"#utility.yul\":22169:22178   */\n      add\n        /* \"#utility.yul\":22162:22178   */\n      swap1\n      pop\n        /* \"#utility.yul\":21923:22184   */\n      swap3\n      swap2\n      pop\n      pop\n      jump\t// out\n        /* \"#utility.yul\":22190:22375   */\n    tag_214:\n        /* \"#utility.yul\":22230:22231   */\n      0x00\n        /* \"#utility.yul\":22247:22267   */\n      tag_515\n        /* \"#utility.yul\":22265:22266   */\n      dup3\n        /* \"#utility.yul\":22247:22267   */\n      tag_444\n      jump\t// in\n    tag_515:\n        /* \"#utility.yul\":22242:22267   */\n      swap2\n      pop\n        /* \"#utility.yul\":22281:22301   */\n      tag_516\n        /* \"#utility.yul\":22299:22300   */\n      dup4\n        /* \"#utility.yul\":22281:22301   */\n      tag_444\n      jump\t// in\n    tag_516:\n        /* \"#utility.yul\":22276:22301   */\n      swap3\n      pop\n        /* \"#utility.yul\":22320:22321   */\n      dup3\n        /* \"#utility.yul\":22310:22312   */\n      tag_517\n      jumpi\n        /* \"#utility.yul\":22325:22343   */\n      tag_518\n      tag_519\n      jump\t// in\n    tag_518:\n        /* \"#utility.yul\":22310:22312   */\n    tag_517:\n        /* \"#utility.yul\":22367:22368   */\n      dup3\n        /* \"#utility.yul\":22364:22365   */\n      dup3\n        /* \"#utility.yul\":22360:22369   */\n      div\n        /* \"#utility.yul\":22355:22369   */\n      swap1\n      pop\n        /* \"#utility.yul\":22232:22375   */\n      swap3\n      swap2\n      pop\n      pop\n      jump\t// out\n        /* \"#utility.yul\":22381:22572   */\n    tag_182:\n        /* \"#utility.yul\":22421:22425   */\n      0x00\n        /* \"#utility.yul\":22441:22461   */\n      tag_521\n        /* \"#utility.yul\":22459:22460   */\n      dup3\n        /* \"#utility.yul\":22441:22461   */\n      tag_444\n      jump\t// in\n    tag_521:\n        /* \"#utility.yul\":22436:22461   */\n      swap2\n      pop\n        /* \"#utility.yul\":22475:22495   */\n      tag_522\n        /* \"#utility.yul\":22493:22494   */\n      dup4\n        /* \"#utility.yul\":22475:22495   */\n      tag_444\n      jump\t// in\n    tag_522:\n        /* \"#utility.yul\":22470:22495   */\n      swap3\n      pop\n        /* \"#utility.yul\":22514:22515   */\n      dup3\n        /* \"#utility.yul\":22511:22512   */\n      dup3\n        /* \"#utility.yul\":22508:22516   */\n      lt\n        /* \"#utility.yul\":22505:22507   */\n      iszero\n      tag_523\n      jumpi\n        /* \"#utility.yul\":22519:22537   */\n      tag_524\n      tag_513\n      jump\t// in\n    tag_524:\n        /* \"#utility.yul\":22505:22507   */\n    tag_523:\n        /* \"#utility.yul\":22564:22565   */\n      dup3\n        /* \"#utility.yul\":22561:22562   */\n      dup3\n        /* \"#utility.yul\":22557:22566   */\n      sub\n        /* \"#utility.yul\":22549:22566   */\n      swap1\n      pop\n        /* \"#utility.yul\":22426:22572   */\n      swap3\n      swap2\n      pop\n      pop\n      jump\t// out\n        /* \"#utility.yul\":22578:22674   */\n    tag_338:\n        /* \"#utility.yul\":22615:22622   */\n      0x00\n        /* \"#utility.yul\":22644:22668   */\n      tag_526\n        /* \"#utility.yul\":22662:22667   */\n      dup3\n        /* \"#utility.yul\":22644:22668   */\n      tag_527\n      jump\t// in\n    tag_526:\n        /* \"#utility.yul\":22633:22668   */\n      swap1\n      pop\n        /* \"#utility.yul\":22623:22674   */\n      swap2\n      swap1\n      pop\n      jump\t// out\n        /* \"#utility.yul\":22680:22770   */\n    tag_347:\n        /* \"#utility.yul\":22714:22721   */\n      0x00\n        /* \"#utility.yul\":22757:22762   */\n      dup2\n        /* \"#utility.yul\":22750:22763   */\n      iszero\n        /* \"#utility.yul\":22743:22764   */\n      iszero\n        /* \"#utility.yul\":22732:22764   */\n      swap1\n      pop\n        /* \"#utility.yul\":22722:22770   */\n      swap2\n      swap1\n      pop\n      jump\t// out\n        /* \"#utility.yul\":22776:22853   */\n    tag_351:\n        /* \"#utility.yul\":22813:22820   */\n      0x00\n        /* \"#utility.yul\":22842:22847   */\n      dup2\n        /* \"#utility.yul\":22831:22847   */\n      swap1\n      pop\n        /* \"#utility.yul\":22821:22853   */\n      swap2\n      swap1\n      pop\n      jump\t// out\n        /* \"#utility.yul\":22859:23008   */\n    tag_530:\n        /* \"#utility.yul\":22895:22902   */\n      0x00\n        /* \"#utility.yul\":22935:23001   */\n      0xffffffff00000000000000000000000000000000000000000000000000000000\n        /* \"#utility.yul\":22928:22933   */\n      dup3\n        /* \"#utility.yul\":22924:23002   */\n      and\n        /* \"#utility.yul\":22913:23002   */\n      swap1\n      pop\n        /* \"#utility.yul\":22903:23008   */\n      swap2\n      swap1\n      pop\n      jump\t// out\n        /* \"#utility.yul\":23014:23140   */\n    tag_527:\n        /* \"#utility.yul\":23051:23058   */\n      0x00\n        /* \"#utility.yul\":23091:23133   */\n      0xffffffffffffffffffffffffffffffffffffffff\n        /* \"#utility.yul\":23084:23089   */\n      dup3\n        /* \"#utility.yul\":23080:23134   */\n      and\n        /* \"#utility.yul\":23069:23134   */\n      swap1\n      pop\n        /* \"#utility.yul\":23059:23140   */\n      swap2\n      swap1\n      pop\n      jump\t// out\n        /* \"#utility.yul\":23146:23223   */\n    tag_444:\n        /* \"#utility.yul\":23183:23190   */\n      0x00\n        /* \"#utility.yul\":23212:23217   */\n      dup2\n        /* \"#utility.yul\":23201:23217   */\n      swap1\n      pop\n        /* \"#utility.yul\":23191:23223   */\n      swap2\n      swap1\n      pop\n      jump\t// out\n        /* \"#utility.yul\":23229:23383   */\n    tag_264:\n        /* \"#utility.yul\":23313:23319   */\n      dup3\n        /* \"#utility.yul\":23308:23311   */\n      dup2\n        /* \"#utility.yul\":23303:23306   */\n      dup4\n        /* \"#utility.yul\":23290:23320   */\n      calldatacopy\n        /* \"#utility.yul\":23375:23376   */\n      0x00\n        /* \"#utility.yul\":23366:23372   */\n      dup4\n        /* \"#utility.yul\":23361:23364   */\n      dup4\n        /* \"#utility.yul\":23357:23373   */\n      add\n        /* \"#utility.yul\":23350:23377   */\n      mstore\n        /* \"#utility.yul\":23280:23383   */\n      pop\n      pop\n      pop\n      jump\t// out\n        /* \"#utility.yul\":23389:23696   */\n    tag_364:\n        /* \"#utility.yul\":23457:23458   */\n      0x00\n        /* \"#utility.yul\":23467:23580   */\n    tag_536:\n        /* \"#utility.yul\":23481:23487   */\n      dup4\n        /* \"#utility.yul\":23478:23479   */\n      dup2\n        /* \"#utility.yul\":23475:23488   */\n      lt\n        /* \"#utility.yul\":23467:23580   */\n      iszero\n      tag_538\n      jumpi\n        /* \"#utility.yul\":23566:23567   */\n      dup1\n        /* \"#utility.yul\":23561:23564   */\n      dup3\n        /* \"#utility.yul\":23557:23568   */\n      add\n        /* \"#utility.yul\":23551:23569   */\n      mload\n        /* \"#utility.yul\":23547:23548   */\n      dup2\n        /* \"#utility.yul\":23542:23545   */\n      dup5\n        /* \"#utility.yul\":23538:23549   */\n      add\n        /* \"#utility.yul\":23531:23570   */\n      mstore\n        /* \"#utility.yul\":23503:23505   */\n      0x20\n        /* \"#utility.yul\":23500:23501   */\n      dup2\n        /* \"#utility.yul\":23496:23506   */\n      add\n        /* \"#utility.yul\":23491:23506   */\n      swap1\n      pop\n        /* \"#utility.yul\":23467:23580   */\n      jump(tag_536)\n    tag_538:\n        /* \"#utility.yul\":23598:23604   */\n      dup4\n        /* \"#utility.yul\":23595:23596   */\n      dup2\n        /* \"#utility.yul\":23592:23605   */\n      gt\n        /* \"#utility.yul\":23589:23591   */\n      iszero\n      tag_539\n      jumpi\n        /* \"#utility.yul\":23678:23679   */\n      0x00\n        /* \"#utility.yul\":23669:23675   */\n      dup5\n        /* \"#utility.yul\":23664:23667   */\n      dup5\n        /* \"#utility.yul\":23660:23676   */\n      add\n        /* \"#utility.yul\":23653:23680   */\n      mstore\n        /* \"#utility.yul\":23589:23591   */\n    tag_539:\n        /* \"#utility.yul\":23438:23696   */\n      pop\n      pop\n      pop\n      pop\n      jump\t// out\n        /* \"#utility.yul\":23702:24022   */\n    tag_95:\n        /* \"#utility.yul\":23746:23752   */\n      0x00\n        /* \"#utility.yul\":23783:23784   */\n      0x02\n        /* \"#utility.yul\":23777:23781   */\n      dup3\n        /* \"#utility.yul\":23773:23785   */\n      div\n        /* \"#utility.yul\":23763:23785   */\n      swap1\n      pop\n        /* \"#utility.yul\":23830:23831   */\n      0x01\n        /* \"#utility.yul\":23824:23828   */\n      dup3\n        /* \"#utility.yul\":23820:23832   */\n      and\n        /* \"#utility.yul\":23851:23869   */\n      dup1\n        /* \"#utility.yul\":23841:23843   */\n      tag_541\n      jumpi\n        /* \"#utility.yul\":23907:23911   */\n      0x7f\n        /* \"#utility.yul\":23899:23905   */\n      dup3\n        /* \"#utility.yul\":23895:23912   */\n      and\n        /* \"#utility.yul\":23885:23912   */\n      swap2\n      pop\n        /* \"#utility.yul\":23841:23843   */\n    tag_541:\n        /* \"#utility.yul\":23969:23971   */\n      0x20\n        /* \"#utility.yul\":23961:23967   */\n      dup3\n        /* \"#utility.yul\":23958:23972   */\n      lt\n        /* \"#utility.yul\":23938:23956   */\n      dup2\n        /* \"#utility.yul\":23935:23973   */\n      eq\n        /* \"#utility.yul\":23932:23934   */\n      iszero\n      tag_542\n      jumpi\n        /* \"#utility.yul\":23988:24006   */\n      tag_543\n      tag_544\n      jump\t// in\n    tag_543:\n        /* \"#utility.yul\":23932:23934   */\n    tag_542:\n        /* \"#utility.yul\":23753:24022   */\n      pop\n      swap2\n      swap1\n      pop\n      jump\t// out\n        /* \"#utility.yul\":24028:24309   */\n    tag_496:\n        /* \"#utility.yul\":24111:24138   */\n      tag_546\n        /* \"#utility.yul\":24133:24137   */\n      dup3\n        /* \"#utility.yul\":24111:24138   */\n      tag_366\n      jump\t// in\n    tag_546:\n        /* \"#utility.yul\":24103:24109   */\n      dup2\n        /* \"#utility.yul\":24099:24139   */\n      add\n        /* \"#utility.yul\":24241:24247   */\n      dup2\n        /* \"#utility.yul\":24229:24239   */\n      dup2\n        /* \"#utility.yul\":24226:24248   */\n      lt\n        /* \"#utility.yul\":24205:24223   */\n      0xffffffffffffffff\n        /* \"#utility.yul\":24193:24203   */\n      dup3\n        /* \"#utility.yul\":24190:24224   */\n      gt\n        /* \"#utility.yul\":24187:24249   */\n      or\n        /* \"#utility.yul\":24184:24186   */\n      iszero\n      tag_547\n      jumpi\n        /* \"#utility.yul\":24252:24270   */\n      tag_548\n      tag_501\n      jump\t// in\n    tag_548:\n        /* \"#utility.yul\":24184:24186   */\n    tag_547:\n        /* \"#utility.yul\":24292:24302   */\n      dup1\n        /* \"#utility.yul\":24288:24290   */\n      0x40\n        /* \"#utility.yul\":24281:24303   */\n      mstore\n        /* \"#utility.yul\":24071:24309   */\n      pop\n      pop\n      pop\n      jump\t// out\n        /* \"#utility.yul\":24315:24548   */\n    tag_212:\n        /* \"#utility.yul\":24354:24357   */\n      0x00\n        /* \"#utility.yul\":24377:24401   */\n      tag_550\n        /* \"#utility.yul\":24395:24400   */\n      dup3\n        /* \"#utility.yul\":24377:24401   */\n      tag_444\n      jump\t// in\n    tag_550:\n        /* \"#utility.yul\":24368:24401   */\n      swap2\n      pop\n        /* \"#utility.yul\":24423:24489   */\n      0xffffffffffffffffffffffffffffffffffffffffffffffffffffffffffffffff\n        /* \"#utility.yul\":24416:24421   */\n      dup3\n        /* \"#utility.yul\":24413:24490   */\n      eq\n        /* \"#utility.yul\":24410:24412   */\n      iszero\n      tag_551\n      jumpi\n        /* \"#utility.yul\":24493:24511   */\n      tag_552\n      tag_513\n      jump\t// in\n    tag_552:\n        /* \"#utility.yul\":24410:24412   */\n    tag_551:\n        /* \"#utility.yul\":24540:24541   */\n      0x01\n        /* \"#utility.yul\":24533:24538   */\n      dup3\n        /* \"#utility.yul\":24529:24542   */\n      add\n        /* \"#utility.yul\":24522:24542   */\n      swap1\n      pop\n        /* \"#utility.yul\":24358:24548   */\n      swap2\n      swap1\n      pop\n      jump\t// out\n        /* \"#utility.yul\":24554:24654   */\n    tag_343:\n        /* \"#utility.yul\":24593:24600   */\n      0x00\n        /* \"#utility.yul\":24622:24648   */\n      tag_554\n        /* \"#utility.yul\":24642:24647   */\n      dup3\n        /* \"#utility.yul\":24622:24648   */\n      tag_555\n      jump\t// in\n    tag_554:\n        /* \"#utility.yul\":24611:24648   */\n      swap1\n      pop\n        /* \"#utility.yul\":24601:24654   */\n      swap2\n      swap1\n      pop\n      jump\t// out\n        /* \"#utility.yul\":24660:24739   */\n    tag_356:\n        /* \"#utility.yul\":24699:24706   */\n      0x00\n        /* \"#utility.yul\":24728:24733   */\n      dup2\n        /* \"#utility.yul\":24717:24733   */\n      swap1\n      pop\n        /* \"#utility.yul\":24707:24739   */\n      swap2\n      swap1\n      pop\n      jump\t// out\n        /* \"#utility.yul\":24745:24839   */\n    tag_555:\n        /* \"#utility.yul\":24784:24791   */\n      0x00\n        /* \"#utility.yul\":24813:24833   */\n      tag_558\n        /* \"#utility.yul\":24827:24832   */\n      dup3\n        /* \"#utility.yul\":24813:24833   */\n      tag_559\n      jump\t// in\n    tag_558:\n        /* \"#utility.yul\":24802:24833   */\n      swap1\n      pop\n        /* \"#utility.yul\":24792:24839   */\n      swap2\n      swap1\n      pop\n      jump\t// out\n        /* \"#utility.yul\":24845:25021   */\n    tag_221:\n        /* \"#utility.yul\":24877:24878   */\n      0x00\n        /* \"#utility.yul\":24894:24914   */\n      tag_561\n        /* \"#utility.yul\":24912:24913   */\n      dup3\n        /* \"#utility.yul\":24894:24914   */\n      tag_444\n      jump\t// in\n    tag_561:\n        /* \"#utility.yul\":24889:24914   */\n      swap2\n      pop\n        /* \"#utility.yul\":24928:24948   */\n      tag_562\n        /* \"#utility.yul\":24946:24947   */\n      dup4\n        /* \"#utility.yul\":24928:24948   */\n      tag_444\n      jump\t// in\n    tag_562:\n        /* \"#utility.yul\":24923:24948   */\n      swap3\n      pop\n        /* \"#utility.yul\":24967:24968   */\n      dup3\n        /* \"#utility.yul\":24957:24959   */\n      tag_563\n      jumpi\n        /* \"#utility.yul\":24972:24990   */\n      tag_564\n      tag_519\n      jump\t// in\n    tag_564:\n        /* \"#utility.yul\":24957:24959   */\n    tag_563:\n        /* \"#utility.yul\":25013:25014   */\n      dup3\n        /* \"#utility.yul\":25010:25011   */\n      dup3\n        /* \"#utility.yul\":25006:25015   */\n      mod\n        /* \"#utility.yul\":25001:25015   */\n      swap1\n      pop\n        /* \"#utility.yul\":24879:25021   */\n      swap3\n      swap2\n      pop\n      pop\n      jump\t// out\n        /* \"#utility.yul\":25027:25207   */\n    tag_513:\n        /* \"#utility.yul\":25075:25152   */\n      0x4e487b7100000000000000000000000000000000000000000000000000000000\n        /* \"#utility.yul\":25072:25073   */\n      0x00\n        /* \"#utility.yul\":25065:25153   */\n      mstore\n        /* \"#utility.yul\":25172:25176   */\n      0x11\n        /* \"#utility.yul\":25169:25170   */\n      0x04\n        /* \"#utility.yul\":25162:25177   */\n      mstore\n        /* \"#utility.yul\":25196:25200   */\n      0x24\n        /* \"#utility.yul\":25193:25194   */\n      0x00\n        /* \"#utility.yul\":25186:25201   */\n      revert\n        /* \"#utility.yul\":25213:25393   */\n    tag_519:\n        /* \"#utility.yul\":25261:25338   */\n      0x4e487b7100000000000000000000000000000000000000000000000000000000\n        /* \"#utility.yul\":25258:25259   */\n      0x00\n        /* \"#utility.yul\":25251:25339   */\n      mstore\n        /* \"#utility.yul\":25358:25362   */\n      0x12\n        /* \"#utility.yul\":25355:25356   */\n      0x04\n        /* \"#utility.yul\":25348:25363   */\n      mstore\n        /* \"#utility.yul\":25382:25386   */\n      0x24\n        /* \"#utility.yul\":25379:25380   */\n      0x00\n        /* \"#utility.yul\":25372:25387   */\n      revert\n        /* \"#utility.yul\":25399:25579   */\n    tag_544:\n        /* \"#utility.yul\":25447:25524   */\n      0x4e487b7100000000000000000000000000000000000000000000000000000000\n        /* \"#utility.yul\":25444:25445   */\n      0x00\n        /* \"#utility.yul\":25437:25525   */\n      mstore\n        /* \"#utility.yul\":25544:25548   */\n      0x22\n        /* \"#utility.yul\":25541:25542   */\n      0x04\n        /* \"#utility.yul\":25534:25549   */\n      mstore\n        /* \"#utility.yul\":25568:25572   */\n      0x24\n        /* \"#utility.yul\":25565:25566   */\n      0x00\n        /* \"#utility.yul\":25558:25573   */\n      revert\n        /* \"#utility.yul\":25585:25765   */\n    tag_501:\n        /* \"#utility.yul\":25633:25710   */\n      0x4e487b7100000000000000000000000000000000000000000000000000000000\n        /* \"#utility.yul\":25630:25631   */\n      0x00\n        /* \"#utility.yul\":25623:25711   */\n      mstore\n        /* \"#utility.yul\":25730:25734   */\n      0x41\n        /* \"#utility.yul\":25727:25728   */\n      0x04\n        /* \"#utility.yul\":25720:25735   */\n      mstore\n        /* \"#utility.yul\":25754:25758   */\n      0x24\n        /* \"#utility.yul\":25751:25752   */\n      0x00\n        /* \"#utility.yul\":25744:25759   */\n      revert\n        /* \"#utility.yul\":25771:25873   */\n    tag_366:\n        /* \"#utility.yul\":25812:25818   */\n      0x00\n        /* \"#utility.yul\":25863:25865   */\n      0x1f\n        /* \"#utility.yul\":25859:25866   */\n      not\n        /* \"#utility.yul\":25854:25856   */\n      0x1f\n        /* \"#utility.yul\":25847:25852   */\n      dup4\n        /* \"#utility.yul\":25843:25857   */\n      add\n        /* \"#utility.yul\":25839:25867   */\n      and\n        /* \"#utility.yul\":25829:25867   */\n      swap1\n      pop\n        /* \"#utility.yul\":25819:25873   */\n      swap2\n      swap1\n      pop\n      jump\t// out\n        /* \"#utility.yul\":25879:25973   */\n    tag_559:\n        /* \"#utility.yul\":25912:25920   */\n      0x00\n        /* \"#utility.yul\":25960:25965   */\n      dup2\n        /* \"#utility.yul\":25956:25958   */\n      0x60\n        /* \"#utility.yul\":25952:25966   */\n      shl\n        /* \"#utility.yul\":25931:25966   */\n      swap1\n      pop\n        /* \"#utility.yul\":25921:25973   */\n      swap2\n      swap1\n      pop\n      jump\t// out\n        /* \"#utility.yul\":25979:26151   */\n    tag_385:\n        /* \"#utility.yul\":26119:26143   */\n      0x6e6f74206f776e6572206e6f7220617070726f76656400000000000000000000\n        /* \"#utility.yul\":26115:26116   */\n      0x00\n        /* \"#utility.yul\":26107:26113   */\n      dup3\n        /* \"#utility.yul\":26103:26117   */\n      add\n        /* \"#utility.yul\":26096:26144   */\n      mstore\n        /* \"#utility.yul\":26085:26151   */\n      pop\n      jump\t// out\n        /* \"#utility.yul\":26157:26335   */\n    tag_390:\n        /* \"#utility.yul\":26297:26327   */\n      0x7472616e7366657220746f20746865207a65726f206164647265737300000000\n        /* \"#utility.yul\":26293:26294   */\n      0x00\n        /* \"#utility.yul\":26285:26291   */\n      dup3\n        /* \"#utility.yul\":26281:26295   */\n      add\n        /* \"#utility.yul\":26274:26328   */\n      mstore\n        /* \"#utility.yul\":26263:26335   */\n      pop\n      jump\t// out\n        /* \"#utility.yul\":26341:26521   */\n    tag_395:\n        /* \"#utility.yul\":26481:26513   */\n      0x6e6f74206f776e6572206e6f7220617070726f76656420666f7220616c6c0000\n        /* \"#utility.yul\":26477:26478   */\n      0x00\n        /* \"#utility.yul\":26469:26475   */\n      dup3\n        /* \"#utility.yul\":26465:26479   */\n      add\n        /* \"#utility.yul\":26458:26514   */\n      mstore\n        /* \"#utility.yul\":26447:26521   */\n      pop\n      jump\t// out\n        /* \"#utility.yul\":26527:26697   */\n    tag_400:\n        /* \"#utility.yul\":26667:26689   */\n      0x6d696e7420746f207a65726f2061646472657373000000000000000000000000\n        /* \"#utility.yul\":26663:26664   */\n      0x00\n        /* \"#utility.yul\":26655:26661   */\n      dup3\n        /* \"#utility.yul\":26651:26665   */\n      add\n        /* \"#utility.yul\":26644:26690   */\n      mstore\n        /* \"#utility.yul\":26633:26697   */\n      pop\n      jump\t// out\n        /* \"#utility.yul\":26703:26872   */\n    tag_405:\n        /* \"#utility.yul\":26843:26864   */\n      0x746f6b656e20646f65736e277420657869737400000000000000000000000000\n        /* \"#utility.yul\":26839:26840   */\n      0x00\n        /* \"#utility.yul\":26831:26837   */\n      dup3\n        /* \"#utility.yul\":26827:26841   */\n      add\n        /* \"#utility.yul\":26820:26865   */\n      mstore\n        /* \"#utility.yul\":26809:26872   */\n      pop\n      jump\t// out\n        /* \"#utility.yul\":26878:27048   */\n    tag_410:\n        /* \"#utility.yul\":27018:27040   */\n      0x6f776e6572203d207a65726f2061646472657373000000000000000000000000\n        /* \"#utility.yul\":27014:27015   */\n      0x00\n        /* \"#utility.yul\":27006:27012   */\n      dup3\n        /* \"#utility.yul\":27002:27016   */\n      add\n        /* \"#utility.yul\":26995:27041   */\n      mstore\n        /* \"#utility.yul\":26984:27048   */\n      pop\n      jump\t// out\n        /* \"#utility.yul\":27054:27224   */\n    tag_415:\n        /* \"#utility.yul\":27194:27216   */\n      0x496e76616c6964206d65726b6c652070726f6f66000000000000000000000000\n        /* \"#utility.yul\":27190:27191   */\n      0x00\n        /* \"#utility.yul\":27182:27188   */\n      dup3\n        /* \"#utility.yul\":27178:27192   */\n      add\n        /* \"#utility.yul\":27171:27217   */\n      mstore\n        /* \"#utility.yul\":27160:27224   */\n      pop\n      jump\t// out\n        /* \"#utility.yul\":27230:27395   */\n    tag_420:\n        /* \"#utility.yul\":27370:27387   */\n      0x546f6b656e204e6f742045786973740000000000000000000000000000000000\n        /* \"#utility.yul\":27366:27367   */\n      0x00\n        /* \"#utility.yul\":27358:27364   */\n      dup3\n        /* \"#utility.yul\":27354:27368   */\n      add\n        /* \"#utility.yul\":27347:27388   */\n      mstore\n        /* \"#utility.yul\":27336:27395   */\n      pop\n      jump\t// out\n        /* \"#utility.yul\":27401:27571   */\n    tag_425:\n        /* \"#utility.yul\":27541:27563   */\n      0x746f6b656e20616c7265616479206d696e746564000000000000000000000000\n        /* \"#utility.yul\":27537:27538   */\n      0x00\n        /* \"#utility.yul\":27529:27535   */\n      dup3\n        /* \"#utility.yul\":27525:27539   */\n      add\n        /* \"#utility.yul\":27518:27564   */\n      mstore\n        /* \"#utility.yul\":27507:27571   */\n      pop\n      jump\t// out\n        /* \"#utility.yul\":27577:27745   */\n    tag_430:\n        /* \"#utility.yul\":27717:27737   */\n      0x6e6f742045524337323152656365697665720000000000000000000000000000\n        /* \"#utility.yul\":27713:27714   */\n      0x00\n        /* \"#utility.yul\":27705:27711   */\n      dup3\n        /* \"#utility.yul\":27701:27715   */\n      add\n        /* \"#utility.yul\":27694:27738   */\n      mstore\n        /* \"#utility.yul\":27683:27745   */\n      pop\n      jump\t// out\n        /* \"#utility.yul\":27751:27910   */\n    tag_435:\n        /* \"#utility.yul\":27891:27902   */\n      0x6e6f74206f776e65720000000000000000000000000000000000000000000000\n        /* \"#utility.yul\":27887:27888   */\n      0x00\n        /* \"#utility.yul\":27879:27885   */\n      dup3\n        /* \"#utility.yul\":27875:27889   */\n      add\n        /* \"#utility.yul\":27868:27903   */\n      mstore\n        /* \"#utility.yul\":27857:27910   */\n      pop\n      jump\t// out\n        /* \"#utility.yul\":27916:28081   */\n    tag_440:\n        /* \"#utility.yul\":28056:28073   */\n      0x416c7265616479206d696e746564210000000000000000000000000000000000\n        /* \"#utility.yul\":28052:28053   */\n      0x00\n        /* \"#utility.yul\":28044:28050   */\n      dup3\n        /* \"#utility.yul\":28040:28054   */\n      add\n        /* \"#utility.yul\":28033:28074   */\n      mstore\n        /* \"#utility.yul\":28022:28081   */\n      pop\n      jump\t// out\n        /* \"#utility.yul\":28087:28209   */\n    tag_268:\n        /* \"#utility.yul\":28160:28184   */\n      tag_584\n        /* \"#utility.yul\":28178:28183   */\n      dup2\n        /* \"#utility.yul\":28160:28184   */\n      tag_338\n      jump\t// in\n    tag_584:\n        /* \"#utility.yul\":28153:28158   */\n      dup2\n        /* \"#utility.yul\":28150:28185   */\n      eq\n        /* \"#utility.yul\":28140:28142   */\n      tag_585\n      jumpi\n        /* \"#utility.yul\":28199:28200   */\n      0x00\n        /* \"#utility.yul\":28196:28197   */\n      dup1\n        /* \"#utility.yul\":28189:28201   */\n      revert\n        /* \"#utility.yul\":28140:28142   */\n    tag_585:\n        /* \"#utility.yul\":28130:28209   */\n      pop\n      jump\t// out\n        /* \"#utility.yul\":28215:28331   */\n    tag_277:\n        /* \"#utility.yul\":28285:28306   */\n      tag_587\n        /* \"#utility.yul\":28300:28305   */\n      dup2\n        /* \"#utility.yul\":28285:28306   */\n      tag_347\n      jump\t// in\n    tag_587:\n        /* \"#utility.yul\":28278:28283   */\n      dup2\n        /* \"#utility.yul\":28275:28307   */\n      eq\n        /* \"#utility.yul\":28265:28267   */\n      tag_588\n      jumpi\n        /* \"#utility.yul\":28321:28322   */\n      0x00\n        /* \"#utility.yul\":28318:28319   */\n      dup1\n        /* \"#utility.yul\":28311:28323   */\n      revert\n        /* \"#utility.yul\":28265:28267   */\n    tag_588:\n        /* \"#utility.yul\":28255:28331   */\n      pop\n      jump\t// out\n        /* \"#utility.yul\":28337:28457   */\n    tag_281:\n        /* \"#utility.yul\":28409:28432   */\n      tag_590\n        /* \"#utility.yul\":28426:28431   */\n      dup2\n        /* \"#utility.yul\":28409:28432   */\n      tag_530\n      jump\t// in\n    tag_590:\n        /* \"#utility.yul\":28402:28407   */\n      dup2\n        /* \"#utility.yul\":28399:28433   */\n      eq\n        /* \"#utility.yul\":28389:28391   */\n      tag_591\n      jumpi\n        /* \"#utility.yul\":28447:28448   */\n      0x00\n        /* \"#utility.yul\":28444:28445   */\n      dup1\n        /* \"#utility.yul\":28437:28449   */\n      revert\n        /* \"#utility.yul\":28389:28391   */\n    tag_591:\n        /* \"#utility.yul\":28379:28457   */\n      pop\n      jump\t// out\n        /* \"#utility.yul\":28463:28585   */\n    tag_292:\n        /* \"#utility.yul\":28536:28560   */\n      tag_593\n        /* \"#utility.yul\":28554:28559   */\n      dup2\n        /* \"#utility.yul\":28536:28560   */\n      tag_444\n      jump\t// in\n    tag_593:\n        /* \"#utility.yul\":28529:28534   */\n      dup2\n        /* \"#utility.yul\":28526:28561   */\n      eq\n        /* \"#utility.yul\":28516:28518   */\n      tag_594\n      jumpi\n        /* \"#utility.yul\":28575:28576   */\n      0x00\n        /* \"#utility.yul\":28572:28573   */\n      dup1\n        /* \"#utility.yul\":28565:28577   */\n      revert\n        /* \"#utility.yul\":28516:28518   */\n    tag_594:\n        /* \"#utility.yul\":28506:28585   */\n      pop\n      jump\t// out\n\n    auxdata: 0xa2646970667358221220795cc99edb637f511fd07bf8428d40ff6d40416ba52adc8ee411702885beabfd64736f6c63430008040033\n}\n",
				"bytecode": {
					"linkReferences": {},
					"object": "60a06040523480156200001157600080fd5b5060405162002d0a38038062002d0a8339818101604052810190620000379190620001b7565b82828160009080519060200190620000519291906200007e565b5080600190805190602001906200006a9291906200007e565b5050508060808181525050505050620003d3565b8280546200008c90620002de565b90600052602060002090601f016020900481019282620000b05760008555620000fc565b82601f10620000cb57805160ff1916838001178555620000fc565b82800160010185558215620000fc579182015b82811115620000fb578251825591602001919060010190620000de565b5b5090506200010b91906200010f565b5090565b5b808211156200012a57600081600090555060010162000110565b5090565b6000620001456200013f8462000268565b6200023f565b9050828152602081018484840111156200015e57600080fd5b6200016b848285620002a8565b509392505050565b6000815190506200018481620003b9565b92915050565b600082601f8301126200019c57600080fd5b8151620001ae8482602086016200012e565b91505092915050565b600080600060608486031215620001cd57600080fd5b600084015167ffffffffffffffff811115620001e857600080fd5b620001f6868287016200018a565b935050602084015167ffffffffffffffff8111156200021457600080fd5b62000222868287016200018a565b9250506040620002358682870162000173565b9150509250925092565b60006200024b6200025e565b905062000259828262000314565b919050565b6000604051905090565b600067ffffffffffffffff82111562000286576200028562000379565b5b6200029182620003a8565b9050602081019050919050565b6000819050919050565b60005b83811015620002c8578082015181840152602081019050620002ab565b83811115620002d8576000848401525b50505050565b60006002820490506001821680620002f757607f821691505b602082108114156200030e576200030d6200034a565b5b50919050565b6200031f82620003a8565b810181811067ffffffffffffffff8211171562000341576200034062000379565b5b80604052505050565b7f4e487b7100000000000000000000000000000000000000000000000000000000600052602260045260246000fd5b7f4e487b7100000000000000000000000000000000000000000000000000000000600052604160045260246000fd5b6000601f19601f8301169050919050565b620003c4816200029e565b8114620003d057600080fd5b50565b608051612914620003f660003960008181610e6801526112f301526129146000f3fe608060405234801561001057600080fd5b50600436106101005760003560e01c8063641ce14011610097578063b88d4fde11610066578063b88d4fde146102bd578063c87b56dd146102d9578063e985e9c514610309578063ebf0c7171461033957610100565b8063641ce1401461023757806370a082311461025357806395d89b4114610283578063a22cb465146102a157610100565b806323b872dd116100d357806323b872dd1461019f57806342842e0e146101bb578063630303c6146101d75780636352211e1461020757610100565b806301ffc9a71461010557806306fdde0314610135578063081812fc14610153578063095ea7b314610183575b600080fd5b61011f600480360381019061011a9190611cac565b610357565b60405161012c91906120aa565b60405180910390f35b61013d610491565b60405161014a91906120e0565b60405180910390f35b61016d60048036038101906101689190611cfe565b61051f565b60405161017a9190612043565b60405180910390f35b61019d60048036038101906101989190611c04565b6105fe565b005b6101b960048036038101906101b49190611afe565b610745565b005b6101d560048036038101906101d09190611afe565b6107ae565b005b6101f160048036038101906101ec9190611a99565b6107ce565b6040516101fe91906120aa565b60405180910390f35b610221600480360381019061021c9190611cfe565b6107ee565b60405161022e9190612043565b60405180910390f35b610251600480360381019061024c9190611c40565b61089b565b005b61026d60048036038101906102689190611a99565b610a22565b60405161027a9190612282565b60405180910390f35b61028b610ada565b60405161029891906120e0565b60405180910390f35b6102bb60048036038101906102b69190611bc8565b610b68565b005b6102d760048036038101906102d29190611b4d565b610c65565b005b6102f360048036038101906102ee9190611cfe565b610cd0565b60405161030091906120e0565b60405180910390f35b610323600480360381019061031e9190611ac2565b610dd2565b60405161033091906120aa565b60405180910390f35b610341610e66565b60405161034e91906120c5565b60405180910390f35b60007f80ac58cd000000000000000000000000000000000000000000000000000000007bffffffffffffffffffffffffffffffffffffffffffffffffffffffff1916827bffffffffffffffffffffffffffffffffffffffffffffffffffffffff1916148061042257507f01ffc9a7000000000000000000000000000000000000000000000000000000007bffffffffffffffffffffffffffffffffffffffffffffffffffffffff1916827bffffffffffffffffffffffffffffffffffffffffffffffffffffffff1916145b8061048a57507f5b5e139f000000000000000000000000000000000000000000000000000000007bffffffffffffffffffffffffffffffffffffffffffffffffffffffff1916827bffffffffffffffffffffffffffffffffffffffffffffffffffffffff1916145b9050919050565b6000805461049e906124b1565b80601f01602080910402602001604051908101604052809291908181526020018280546104ca906124b1565b80156105175780601f106104ec57610100808354040283529160200191610517565b820191906000526020600020905b8154815290600101906020018083116104fa57829003601f168201915b505050505081565b60008073ffffffffffffffffffffffffffffffffffffffff166002600084815260200190815260200160002060009054906101000a900473ffffffffffffffffffffffffffffffffffffffff1673ffffffffffffffffffffffffffffffffffffffff1614156105c3576040517f08c379a00000000000000000000000000000000000000000000000000000000081526004016105ba90612182565b60405180910390fd5b6004600083815260200190815260200160002060009054906101000a900473ffffffffffffffffffffffffffffffffffffffff169050919050565b60006002600083815260200190815260200160002060009054906101000a900473ffffffffffffffffffffffffffffffffffffffff1690508073ffffffffffffffffffffffffffffffffffffffff163373ffffffffffffffffffffffffffffffffffffffff1614806106f65750600560008273ffffffffffffffffffffffffffffffffffffffff1673ffffffffffffffffffffffffffffffffffffffff16815260200190815260200160002060003373ffffffffffffffffffffffffffffffffffffffff1673ffffffffffffffffffffffffffffffffffffffff16815260200190815260200160002060009054906101000a900460ff165b610735576040517f08c379a000000000000000000000000000000000000000000000000000000000815260040161072c90612142565b60405180910390fd5b610740818484610e8a565b505050565b6000610750826107ee565b905061075d813384610f3c565b61079c576040517f08c379a000000000000000000000000000000000000000000000000000000000815260040161079390612102565b60405180910390fd5b6107a881858585611070565b50505050565b6107c983838360405180602001604052806000815250610c65565b505050565b60066020528060005260406000206000915054906101000a900460ff1681565b60006002600083815260200190815260200160002060009054906101000a900473ffffffffffffffffffffffffffffffffffffffff169050600073ffffffffffffffffffffffffffffffffffffffff168173ffffffffffffffffffffffffffffffffffffffff161415610896576040517f08c379a000000000000000000000000000000000000000000000000000000000815260040161088d90612182565b60405180910390fd5b919050565b6108ee6108a7856112bb565b838380806020026020016040519081016040528093929190818152602001838360200280828437600081840152601f19601f820116905080830192505050505050506112eb565b61092d576040517f08c379a0000000000000000000000000000000000000000000000000000000008152600401610924906121c2565b60405180910390fd5b600660008573ffffffffffffffffffffffffffffffffffffffff1673ffffffffffffffffffffffffffffffffffffffff16815260200190815260200160002060009054906101000a900460ff16156109ba576040517f08c379a00000000000000000000000000000000000000000000000000000000081526004016109b190612262565b60405180910390fd5b6109c48484611320565b6001600660008673ffffffffffffffffffffffffffffffffffffffff1673ffffffffffffffffffffffffffffffffffffffff16815260200190815260200160002060006101000a81548160ff02191690831515021790555050505050565b60008073ffffffffffffffffffffffffffffffffffffffff168273ffffffffffffffffffffffffffffffffffffffff161415610a93576040517f08c379a0000000000000000000000000000000000000000000000000000000008152600401610a8a906121a2565b60405180910390fd5b600360008373ffffffffffffffffffffffffffffffffffffffff1673ffffffffffffffffffffffffffffffffffffffff168152602001908152602001600020549050919050565b60018054610ae7906124b1565b80601f0160208091040260200160405190810160405280929190818152602001828054610b13906124b1565b8015610b605780601f10610b3557610100808354040283529160200191610b60565b820191906000526020600020905b815481529060010190602001808311610b4357829003601f168201915b505050505081565b80600560003373ffffffffffffffffffffffffffffffffffffffff1673ffffffffffffffffffffffffffffffffffffffff16815260200190815260200160002060008473ffffffffffffffffffffffffffffffffffffffff1673ffffffffffffffffffffffffffffffffffffffff16815260200190815260200160002060006101000a81548160ff0219169083151502179055508173ffffffffffffffffffffffffffffffffffffffff163373ffffffffffffffffffffffffffffffffffffffff167f17307eab39ab6107e8899845ad3d59bd9653f200f220920489ca2b5937696c3183604051610c5991906120aa565b60405180910390a35050565b6000610c70836107ee565b9050610c7d813385610f3c565b610cbc576040517f08c379a0000000000000000000000000000000000000000000000000000000008152600401610cb390612102565b60405180910390fd5b610cc9818686868661153b565b5050505050565b6060600073ffffffffffffffffffffffffffffffffffffffff166002600084815260200190815260200160002060009054906101000a900473ffffffffffffffffffffffffffffffffffffffff1673ffffffffffffffffffffffffffffffffffffffff161415610d75576040517f08c379a0000000000000000000000000000000000000000000000000000000008152600401610d6c906121e2565b60405180910390fd5b6000610d7f611599565b90506000815111610d9f5760405180602001604052806000815250610dca565b80610da9846115b0565b604051602001610dba92919061201f565b6040516020818303038152906040525b915050919050565b6000600560008473ffffffffffffffffffffffffffffffffffffffff1673ffffffffffffffffffffffffffffffffffffffff16815260200190815260200160002060008373ffffffffffffffffffffffffffffffffffffffff1673ffffffffffffffffffffffffffffffffffffffff16815260200190815260200160002060009054906101000a900460ff16905092915050565b7f000000000000000000000000000000000000000000000000000000000000000081565b816004600083815260200190815260200160002060006101000a81548173ffffffffffffffffffffffffffffffffffffffff021916908373ffffffffffffffffffffffffffffffffffffffff160217905550808273ffffffffffffffffffffffffffffffffffffffff168473ffffffffffffffffffffffffffffffffffffffff167f8c5be1e5ebec7d5bd14f71427d1e84f3dd0314c0f7b2291e5b200ac8c7c3b92560405160405180910390a4505050565b60008373ffffffffffffffffffffffffffffffffffffffff168373ffffffffffffffffffffffffffffffffffffffff161480610fd657508273ffffffffffffffffffffffffffffffffffffffff166004600084815260200190815260200160002060009054906101000a900473ffffffffffffffffffffffffffffffffffffffff1673ffffffffffffffffffffffffffffffffffffffff16145b806110675750600560008573ffffffffffffffffffffffffffffffffffffffff1673ffffffffffffffffffffffffffffffffffffffff16815260200190815260200160002060008473ffffffffffffffffffffffffffffffffffffffff1673ffffffffffffffffffffffffffffffffffffffff16815260200190815260200160002060009054906101000a900460ff165b90509392505050565b8373ffffffffffffffffffffffffffffffffffffffff168373ffffffffffffffffffffffffffffffffffffffff16146110de576040517f08c379a00000000000000000000000000000000000000000000000000000000081526004016110d590612242565b60405180910390fd5b600073ffffffffffffffffffffffffffffffffffffffff168273ffffffffffffffffffffffffffffffffffffffff16141561114e576040517f08c379a000000000000000000000000000000000000000000000000000000000815260040161114590612122565b60405180910390fd5b61115a84600083610e8a565b6001600360008573ffffffffffffffffffffffffffffffffffffffff1673ffffffffffffffffffffffffffffffffffffffff16815260200190815260200160002060008282546111aa91906123bd565b925050819055506001600360008473ffffffffffffffffffffffffffffffffffffffff1673ffffffffffffffffffffffffffffffffffffffff16815260200190815260200160002060008282546112019190612336565b92505081905550816002600083815260200190815260200160002060006101000a81548173ffffffffffffffffffffffffffffffffffffffff021916908373ffffffffffffffffffffffffffffffffffffffff160217905550808273ffffffffffffffffffffffffffffffffffffffff168473ffffffffffffffffffffffffffffffffffffffff167fddf252ad1be2c89b69c2b068fc378daa952ba7f163c4a11628f55a4df523b3ef60405160405180910390a450505050565b6000816040516020016112ce9190611fd8565b604051602081830303815290604052805190602001209050919050565b6000611318827f00000000000000000000000000000000000000000000000000000000000000008561175d565b905092915050565b600073ffffffffffffffffffffffffffffffffffffffff168273ffffffffffffffffffffffffffffffffffffffff161415611390576040517f08c379a000000000000000000000000000000000000000000000000000000000815260040161138790612162565b60405180910390fd5b600073ffffffffffffffffffffffffffffffffffffffff166002600083815260200190815260200160002060009054906101000a900473ffffffffffffffffffffffffffffffffffffffff1673ffffffffffffffffffffffffffffffffffffffff1614611432576040517f08c379a000000000000000000000000000000000000000000000000000000000815260040161142990612202565b60405180910390fd5b6001600360008473ffffffffffffffffffffffffffffffffffffffff1673ffffffffffffffffffffffffffffffffffffffff16815260200190815260200160002060008282546114829190612336565b92505081905550816002600083815260200190815260200160002060006101000a81548173ffffffffffffffffffffffffffffffffffffffff021916908373ffffffffffffffffffffffffffffffffffffffff160217905550808273ffffffffffffffffffffffffffffffffffffffff16600073ffffffffffffffffffffffffffffffffffffffff167fddf252ad1be2c89b69c2b068fc378daa952ba7f163c4a11628f55a4df523b3ef60405160405180910390a45050565b61154785858585611070565b61155384848484611774565b611592576040517f08c379a000000000000000000000000000000000000000000000000000000000815260040161158990612222565b60405180910390fd5b5050505050565b606060405180602001604052806000815250905090565b606060008214156115f8576040518060400160405280600181526020017f30000000000000000000000000000000000000000000000000000000000000008152509050611758565b600082905060005b6000821461162a57808061161390612514565b915050600a82611623919061238c565b9150611600565b60008167ffffffffffffffff81111561166c577f4e487b7100000000000000000000000000000000000000000000000000000000600052604160045260246000fd5b6040519080825280601f01601f19166020018201604052801561169e5781602001600182028036833780820191505090505b5090505b60008514611751576001826116b791906123bd565b9150600a856116c6919061258b565b60306116d29190612336565b60f81b81838151811061170e577f4e487b7100000000000000000000000000000000000000000000000000000000600052603260045260246000fd5b60200101907effffffffffffffffffffffffffffffffffffffffffffffffffffffffffffff1916908160001a905350600a8561174a919061238c565b94506116a2565b8093505050505b919050565b60008261176a8584611886565b1490509392505050565b60006117958473ffffffffffffffffffffffffffffffffffffffff16611902565b156118795763150b7a0260e01b7bffffffffffffffffffffffffffffffffffffffffffffffffffffffff19168473ffffffffffffffffffffffffffffffffffffffff1663150b7a02338887876040518563ffffffff1660e01b8152600401611800949392919061205e565b602060405180830381600087803b15801561181a57600080fd5b505af115801561182e573d6000803e3d6000fd5b505050506040513d601f19601f820116820180604052508101906118529190611cd5565b7bffffffffffffffffffffffffffffffffffffffffffffffffffffffff191614905061187e565b600190505b949350505050565b60008082905060005b84518110156118f7576118e2828683815181106118d5577f4e487b7100000000000000000000000000000000000000000000000000000000600052603260045260246000fd5b6020026020010151611915565b915080806118ef90612514565b91505061188f565b508091505092915050565b600080823b905060008111915050919050565b600081831061194c578183604051602001611931929190611ff3565b60405160208183030381529060405280519060200120611976565b828260405160200161195f929190611ff3565b604051602081830303815290604052805190602001205b905092915050565b600061199161198c846122c2565b61229d565b9050828152602081018484840111156119a957600080fd5b6119b484828561246f565b509392505050565b6000813590506119cb81612882565b92915050565b60008083601f8401126119e357600080fd5b8235905067ffffffffffffffff8111156119fc57600080fd5b602083019150836020820283011115611a1457600080fd5b9250929050565b600081359050611a2a81612899565b92915050565b600081359050611a3f816128b0565b92915050565b600081519050611a54816128b0565b92915050565b600082601f830112611a6b57600080fd5b8135611a7b84826020860161197e565b91505092915050565b600081359050611a93816128c7565b92915050565b600060208284031215611aab57600080fd5b6000611ab9848285016119bc565b91505092915050565b60008060408385031215611ad557600080fd5b6000611ae3858286016119bc565b9250506020611af4858286016119bc565b9150509250929050565b600080600060608486031215611b1357600080fd5b6000611b21868287016119bc565b9350506020611b32868287016119bc565b9250506040611b4386828701611a84565b9150509250925092565b60008060008060808587031215611b6357600080fd5b6000611b71878288016119bc565b9450506020611b82878288016119bc565b9350506040611b9387828801611a84565b925050606085013567ffffffffffffffff811115611bb057600080fd5b611bbc87828801611a5a565b91505092959194509250565b60008060408385031215611bdb57600080fd5b6000611be9858286016119bc565b9250506020611bfa85828601611a1b565b9150509250929050565b60008060408385031215611c1757600080fd5b6000611c25858286016119bc565b9250506020611c3685828601611a84565b9150509250929050565b60008060008060608587031215611c5657600080fd5b6000611c64878288016119bc565b9450506020611c7587828801611a84565b935050604085013567ffffffffffffffff811115611c9257600080fd5b611c9e878288016119d1565b925092505092959194509250565b600060208284031215611cbe57600080fd5b6000611ccc84828501611a30565b91505092915050565b600060208284031215611ce757600080fd5b6000611cf584828501611a45565b91505092915050565b600060208284031215611d1057600080fd5b6000611d1e84828501611a84565b91505092915050565b611d30816123f1565b82525050565b611d47611d42826123f1565b61255d565b82525050565b611d5681612403565b82525050565b611d658161240f565b82525050565b611d7c611d778261240f565b61256f565b82525050565b6000611d8d826122f3565b611d978185612309565b9350611da781856020860161247e565b611db081612678565b840191505092915050565b6000611dc6826122fe565b611dd0818561231a565b9350611de081856020860161247e565b611de981612678565b840191505092915050565b6000611dff826122fe565b611e09818561232b565b9350611e1981856020860161247e565b80840191505092915050565b6000611e3260168361231a565b9150611e3d82612696565b602082019050919050565b6000611e55601c8361231a565b9150611e60826126bf565b602082019050919050565b6000611e78601e8361231a565b9150611e83826126e8565b602082019050919050565b6000611e9b60148361231a565b9150611ea682612711565b602082019050919050565b6000611ebe60138361231a565b9150611ec98261273a565b602082019050919050565b6000611ee160148361231a565b9150611eec82612763565b602082019050919050565b6000611f0460148361231a565b9150611f0f8261278c565b602082019050919050565b6000611f27600f8361231a565b9150611f32826127b5565b602082019050919050565b6000611f4a60148361231a565b9150611f55826127de565b602082019050919050565b6000611f6d60128361231a565b9150611f7882612807565b602082019050919050565b6000611f9060098361231a565b9150611f9b82612830565b602082019050919050565b6000611fb3600f8361231a565b9150611fbe82612859565b602082019050919050565b611fd281612465565b82525050565b6000611fe48284611d36565b60148201915081905092915050565b6000611fff8285611d6b565b60208201915061200f8284611d6b565b6020820191508190509392505050565b600061202b8285611df4565b91506120378284611df4565b91508190509392505050565b60006020820190506120586000830184611d27565b92915050565b60006080820190506120736000830187611d27565b6120806020830186611d27565b61208d6040830185611fc9565b818103606083015261209f8184611d82565b905095945050505050565b60006020820190506120bf6000830184611d4d565b92915050565b60006020820190506120da6000830184611d5c565b92915050565b600060208201905081810360008301526120fa8184611dbb565b905092915050565b6000602082019050818103600083015261211b81611e25565b9050919050565b6000602082019050818103600083015261213b81611e48565b9050919050565b6000602082019050818103600083015261215b81611e6b565b9050919050565b6000602082019050818103600083015261217b81611e8e565b9050919050565b6000602082019050818103600083015261219b81611eb1565b9050919050565b600060208201905081810360008301526121bb81611ed4565b9050919050565b600060208201905081810360008301526121db81611ef7565b9050919050565b600060208201905081810360008301526121fb81611f1a565b9050919050565b6000602082019050818103600083015261221b81611f3d565b9050919050565b6000602082019050818103600083015261223b81611f60565b9050919050565b6000602082019050818103600083015261225b81611f83565b9050919050565b6000602082019050818103600083015261227b81611fa6565b9050919050565b60006020820190506122976000830184611fc9565b92915050565b60006122a76122b8565b90506122b382826124e3565b919050565b6000604051905090565b600067ffffffffffffffff8211156122dd576122dc612649565b5b6122e682612678565b9050602081019050919050565b600081519050919050565b600081519050919050565b600082825260208201905092915050565b600082825260208201905092915050565b600081905092915050565b600061234182612465565b915061234c83612465565b9250827fffffffffffffffffffffffffffffffffffffffffffffffffffffffffffffffff03821115612381576123806125bc565b5b828201905092915050565b600061239782612465565b91506123a283612465565b9250826123b2576123b16125eb565b5b828204905092915050565b60006123c882612465565b91506123d383612465565b9250828210156123e6576123e56125bc565b5b828203905092915050565b60006123fc82612445565b9050919050565b60008115159050919050565b6000819050919050565b60007fffffffff0000000000000000000000000000000000000000000000000000000082169050919050565b600073ffffffffffffffffffffffffffffffffffffffff82169050919050565b6000819050919050565b82818337600083830152505050565b60005b8381101561249c578082015181840152602081019050612481565b838111156124ab576000848401525b50505050565b600060028204905060018216806124c957607f821691505b602082108114156124dd576124dc61261a565b5b50919050565b6124ec82612678565b810181811067ffffffffffffffff8211171561250b5761250a612649565b5b80604052505050565b600061251f82612465565b91507fffffffffffffffffffffffffffffffffffffffffffffffffffffffffffffffff821415612552576125516125bc565b5b600182019050919050565b600061256882612579565b9050919050565b6000819050919050565b600061258482612689565b9050919050565b600061259682612465565b91506125a183612465565b9250826125b1576125b06125eb565b5b828206905092915050565b7f4e487b7100000000000000000000000000000000000000000000000000000000600052601160045260246000fd5b7f4e487b7100000000000000000000000000000000000000000000000000000000600052601260045260246000fd5b7f4e487b7100000000000000000000000000000000000000000000000000000000600052602260045260246000fd5b7f4e487b7100000000000000000000000000000000000000000000000000000000600052604160045260246000fd5b6000601f19601f8301169050919050565b60008160601b9050919050565b7f6e6f74206f776e6572206e6f7220617070726f76656400000000000000000000600082015250565b7f7472616e7366657220746f20746865207a65726f206164647265737300000000600082015250565b7f6e6f74206f776e6572206e6f7220617070726f76656420666f7220616c6c0000600082015250565b7f6d696e7420746f207a65726f2061646472657373000000000000000000000000600082015250565b7f746f6b656e20646f65736e277420657869737400000000000000000000000000600082015250565b7f6f776e6572203d207a65726f2061646472657373000000000000000000000000600082015250565b7f496e76616c6964206d65726b6c652070726f6f66000000000000000000000000600082015250565b7f546f6b656e204e6f742045786973740000000000000000000000000000000000600082015250565b7f746f6b656e20616c7265616479206d696e746564000000000000000000000000600082015250565b7f6e6f742045524337323152656365697665720000000000000000000000000000600082015250565b7f6e6f74206f776e65720000000000000000000000000000000000000000000000600082015250565b7f416c7265616479206d696e746564210000000000000000000000000000000000600082015250565b61288b816123f1565b811461289657600080fd5b50565b6128a281612403565b81146128ad57600080fd5b50565b6128b981612419565b81146128c457600080fd5b50565b6128d081612465565b81146128db57600080fd5b5056fea2646970667358221220795cc99edb637f511fd07bf8428d40ff6d40416ba52adc8ee411702885beabfd64736f6c63430008040033",
					"opcodes": "PUSH1 0xA0 PUSH1 0x40 MSTORE CALLVALUE DUP1 ISZERO PUSH3 0x11 JUMPI PUSH1 0x0 DUP1 REVERT JUMPDEST POP PUSH1 0x40 MLOAD PUSH3 0x2D0A CODESIZE SUB DUP1 PUSH3 0x2D0A DUP4 CODECOPY DUP2 DUP2 ADD PUSH1 0x40 MSTORE DUP2 ADD SWAP1 PUSH3 0x37 SWAP2 SWAP1 PUSH3 0x1B7 JUMP JUMPDEST DUP3 DUP3 DUP2 PUSH1 0x0 SWAP1 DUP1 MLOAD SWAP1 PUSH1 0x20 ADD SWAP1 PUSH3 0x51 SWAP3 SWAP2 SWAP1 PUSH3 0x7E JUMP JUMPDEST POP DUP1 PUSH1 0x1 SWAP1 DUP1 MLOAD SWAP1 PUSH1 0x20 ADD SWAP1 PUSH3 0x6A SWAP3 SWAP2 SWAP1 PUSH3 0x7E JUMP JUMPDEST POP POP POP DUP1 PUSH1 0x80 DUP2 DUP2 MSTORE POP POP POP POP POP PUSH3 0x3D3 JUMP JUMPDEST DUP3 DUP1 SLOAD PUSH3 0x8C SWAP1 PUSH3 0x2DE JUMP JUMPDEST SWAP1 PUSH1 0x0 MSTORE PUSH1 0x20 PUSH1 0x0 KECCAK256 SWAP1 PUSH1 0x1F ADD PUSH1 0x20 SWAP1 DIV DUP2 ADD SWAP3 DUP3 PUSH3 0xB0 JUMPI PUSH1 0x0 DUP6 SSTORE PUSH3 0xFC JUMP JUMPDEST DUP3 PUSH1 0x1F LT PUSH3 0xCB JUMPI DUP1 MLOAD PUSH1 0xFF NOT AND DUP4 DUP1 ADD OR DUP6 SSTORE PUSH3 0xFC JUMP JUMPDEST DUP3 DUP1 ADD PUSH1 0x1 ADD DUP6 SSTORE DUP3 ISZERO PUSH3 0xFC JUMPI SWAP2 DUP3 ADD JUMPDEST DUP3 DUP2 GT ISZERO PUSH3 0xFB JUMPI DUP3 MLOAD DUP3 SSTORE SWAP2 PUSH1 0x20 ADD SWAP2 SWAP1 PUSH1 0x1 ADD SWAP1 PUSH3 0xDE JUMP JUMPDEST JUMPDEST POP SWAP1 POP PUSH3 0x10B SWAP2 SWAP1 PUSH3 0x10F JUMP JUMPDEST POP SWAP1 JUMP JUMPDEST JUMPDEST DUP1 DUP3 GT ISZERO PUSH3 0x12A JUMPI PUSH1 0x0 DUP2 PUSH1 0x0 SWAP1 SSTORE POP PUSH1 0x1 ADD PUSH3 0x110 JUMP JUMPDEST POP SWAP1 JUMP JUMPDEST PUSH1 0x0 PUSH3 0x145 PUSH3 0x13F DUP5 PUSH3 0x268 JUMP JUMPDEST PUSH3 0x23F JUMP JUMPDEST SWAP1 POP DUP3 DUP2 MSTORE PUSH1 0x20 DUP2 ADD DUP5 DUP5 DUP5 ADD GT ISZERO PUSH3 0x15E JUMPI PUSH1 0x0 DUP1 REVERT JUMPDEST PUSH3 0x16B DUP5 DUP3 DUP6 PUSH3 0x2A8 JUMP JUMPDEST POP SWAP4 SWAP3 POP POP POP JUMP JUMPDEST PUSH1 0x0 DUP2 MLOAD SWAP1 POP PUSH3 0x184 DUP2 PUSH3 0x3B9 JUMP JUMPDEST SWAP3 SWAP2 POP POP JUMP JUMPDEST PUSH1 0x0 DUP3 PUSH1 0x1F DUP4 ADD SLT PUSH3 0x19C JUMPI PUSH1 0x0 DUP1 REVERT JUMPDEST DUP2 MLOAD PUSH3 0x1AE DUP5 DUP3 PUSH1 0x20 DUP7 ADD PUSH3 0x12E JUMP JUMPDEST SWAP2 POP POP SWAP3 SWAP2 POP POP JUMP JUMPDEST PUSH1 0x0 DUP1 PUSH1 0x0 PUSH1 0x60 DUP5 DUP7 SUB SLT ISZERO PUSH3 0x1CD JUMPI PUSH1 0x0 DUP1 REVERT JUMPDEST PUSH1 0x0 DUP5 ADD MLOAD PUSH8 0xFFFFFFFFFFFFFFFF DUP2 GT ISZERO PUSH3 0x1E8 JUMPI PUSH1 0x0 DUP1 REVERT JUMPDEST PUSH3 0x1F6 DUP7 DUP3 DUP8 ADD PUSH3 0x18A JUMP JUMPDEST SWAP4 POP POP PUSH1 0x20 DUP5 ADD MLOAD PUSH8 0xFFFFFFFFFFFFFFFF DUP2 GT ISZERO PUSH3 0x214 JUMPI PUSH1 0x0 DUP1 REVERT JUMPDEST PUSH3 0x222 DUP7 DUP3 DUP8 ADD PUSH3 0x18A JUMP JUMPDEST SWAP3 POP POP PUSH1 0x40 PUSH3 0x235 DUP7 DUP3 DUP8 ADD PUSH3 0x173 JUMP JUMPDEST SWAP2 POP POP SWAP3 POP SWAP3 POP SWAP3 JUMP JUMPDEST PUSH1 0x0 PUSH3 0x24B PUSH3 0x25E JUMP JUMPDEST SWAP1 POP PUSH3 0x259 DUP3 DUP3 PUSH3 0x314 JUMP JUMPDEST SWAP2 SWAP1 POP JUMP JUMPDEST PUSH1 0x0 PUSH1 0x40 MLOAD SWAP1 POP SWAP1 JUMP JUMPDEST PUSH1 0x0 PUSH8 0xFFFFFFFFFFFFFFFF DUP3 GT ISZERO PUSH3 0x286 JUMPI PUSH3 0x285 PUSH3 0x379 JUMP JUMPDEST JUMPDEST PUSH3 0x291 DUP3 PUSH3 0x3A8 JUMP JUMPDEST SWAP1 POP PUSH1 0x20 DUP2 ADD SWAP1 POP SWAP2 SWAP1 POP JUMP JUMPDEST PUSH1 0x0 DUP2 SWAP1 POP SWAP2 SWAP1 POP JUMP JUMPDEST PUSH1 0x0 JUMPDEST DUP4 DUP2 LT ISZERO PUSH3 0x2C8 JUMPI DUP1 DUP3 ADD MLOAD DUP2 DUP5 ADD MSTORE PUSH1 0x20 DUP2 ADD SWAP1 POP PUSH3 0x2AB JUMP JUMPDEST DUP4 DUP2 GT ISZERO PUSH3 0x2D8 JUMPI PUSH1 0x0 DUP5 DUP5 ADD MSTORE JUMPDEST POP POP POP POP JUMP JUMPDEST PUSH1 0x0 PUSH1 0x2 DUP3 DIV SWAP1 POP PUSH1 0x1 DUP3 AND DUP1 PUSH3 0x2F7 JUMPI PUSH1 0x7F DUP3 AND SWAP2 POP JUMPDEST PUSH1 0x20 DUP3 LT DUP2 EQ ISZERO PUSH3 0x30E JUMPI PUSH3 0x30D PUSH3 0x34A JUMP JUMPDEST JUMPDEST POP SWAP2 SWAP1 POP JUMP JUMPDEST PUSH3 0x31F DUP3 PUSH3 0x3A8 JUMP JUMPDEST DUP2 ADD DUP2 DUP2 LT PUSH8 0xFFFFFFFFFFFFFFFF DUP3 GT OR ISZERO PUSH3 0x341 JUMPI PUSH3 0x340 PUSH3 0x379 JUMP JUMPDEST JUMPDEST DUP1 PUSH1 0x40 MSTORE POP POP POP JUMP JUMPDEST PUSH32 0x4E487B7100000000000000000000000000000000000000000000000000000000 PUSH1 0x0 MSTORE PUSH1 0x22 PUSH1 0x4 MSTORE PUSH1 0x24 PUSH1 0x0 REVERT JUMPDEST PUSH32 0x4E487B7100000000000000000000000000000000000000000000000000000000 PUSH1 0x0 MSTORE PUSH1 0x41 PUSH1 0x4 MSTORE PUSH1 0x24 PUSH1 0x0 REVERT JUMPDEST PUSH1 0x0 PUSH1 0x1F NOT PUSH1 0x1F DUP4 ADD AND SWAP1 POP SWAP2 SWAP1 POP JUMP JUMPDEST PUSH3 0x3C4 DUP2 PUSH3 0x29E JUMP JUMPDEST DUP2 EQ PUSH3 0x3D0 JUMPI PUSH1 0x0 DUP1 REVERT JUMPDEST POP JUMP JUMPDEST PUSH1 0x80 MLOAD PUSH2 0x2914 PUSH3 0x3F6 PUSH1 0x0 CODECOPY PUSH1 0x0 DUP2 DUP2 PUSH2 0xE68 ADD MSTORE PUSH2 0x12F3 ADD MSTORE PUSH2 0x2914 PUSH1 0x0 RETURN INVALID PUSH1 0x80 PUSH1 0x40 MSTORE CALLVALUE DUP1 ISZERO PUSH2 0x10 JUMPI PUSH1 0x0 DUP1 REVERT JUMPDEST POP PUSH1 0x4 CALLDATASIZE LT PUSH2 0x100 JUMPI PUSH1 0x0 CALLDATALOAD PUSH1 0xE0 SHR DUP1 PUSH4 0x641CE140 GT PUSH2 0x97 JUMPI DUP1 PUSH4 0xB88D4FDE GT PUSH2 0x66 JUMPI DUP1 PUSH4 0xB88D4FDE EQ PUSH2 0x2BD JUMPI DUP1 PUSH4 0xC87B56DD EQ PUSH2 0x2D9 JUMPI DUP1 PUSH4 0xE985E9C5 EQ PUSH2 0x309 JUMPI DUP1 PUSH4 0xEBF0C717 EQ PUSH2 0x339 JUMPI PUSH2 0x100 JUMP JUMPDEST DUP1 PUSH4 0x641CE140 EQ PUSH2 0x237 JUMPI DUP1 PUSH4 0x70A08231 EQ PUSH2 0x253 JUMPI DUP1 PUSH4 0x95D89B41 EQ PUSH2 0x283 JUMPI DUP1 PUSH4 0xA22CB465 EQ PUSH2 0x2A1 JUMPI PUSH2 0x100 JUMP JUMPDEST DUP1 PUSH4 0x23B872DD GT PUSH2 0xD3 JUMPI DUP1 PUSH4 0x23B872DD EQ PUSH2 0x19F JUMPI DUP1 PUSH4 0x42842E0E EQ PUSH2 0x1BB JUMPI DUP1 PUSH4 0x630303C6 EQ PUSH2 0x1D7 JUMPI DUP1 PUSH4 0x6352211E EQ PUSH2 0x207 JUMPI PUSH2 0x100 JUMP JUMPDEST DUP1 PUSH4 0x1FFC9A7 EQ PUSH2 0x105 JUMPI DUP1 PUSH4 0x6FDDE03 EQ PUSH2 0x135 JUMPI DUP1 PUSH4 0x81812FC EQ PUSH2 0x153 JUMPI DUP1 PUSH4 0x95EA7B3 EQ PUSH2 0x183 JUMPI JUMPDEST PUSH1 0x0 DUP1 REVERT JUMPDEST PUSH2 0x11F PUSH1 0x4 DUP1 CALLDATASIZE SUB DUP2 ADD SWAP1 PUSH2 0x11A SWAP2 SWAP1 PUSH2 0x1CAC JUMP JUMPDEST PUSH2 0x357 JUMP JUMPDEST PUSH1 0x40 MLOAD PUSH2 0x12C SWAP2 SWAP1 PUSH2 0x20AA JUMP JUMPDEST PUSH1 0x40 MLOAD DUP1 SWAP2 SUB SWAP1 RETURN JUMPDEST PUSH2 0x13D PUSH2 0x491 JUMP JUMPDEST PUSH1 0x40 MLOAD PUSH2 0x14A SWAP2 SWAP1 PUSH2 0x20E0 JUMP JUMPDEST PUSH1 0x40 MLOAD DUP1 SWAP2 SUB SWAP1 RETURN JUMPDEST PUSH2 0x16D PUSH1 0x4 DUP1 CALLDATASIZE SUB DUP2 ADD SWAP1 PUSH2 0x168 SWAP2 SWAP1 PUSH2 0x1CFE JUMP JUMPDEST PUSH2 0x51F JUMP JUMPDEST PUSH1 0x40 MLOAD PUSH2 0x17A SWAP2 SWAP1 PUSH2 0x2043 JUMP JUMPDEST PUSH1 0x40 MLOAD DUP1 SWAP2 SUB SWAP1 RETURN JUMPDEST PUSH2 0x19D PUSH1 0x4 DUP1 CALLDATASIZE SUB DUP2 ADD SWAP1 PUSH2 0x198 SWAP2 SWAP1 PUSH2 0x1C04 JUMP JUMPDEST PUSH2 0x5FE JUMP JUMPDEST STOP JUMPDEST PUSH2 0x1B9 PUSH1 0x4 DUP1 CALLDATASIZE SUB DUP2 ADD SWAP1 PUSH2 0x1B4 SWAP2 SWAP1 PUSH2 0x1AFE JUMP JUMPDEST PUSH2 0x745 JUMP JUMPDEST STOP JUMPDEST PUSH2 0x1D5 PUSH1 0x4 DUP1 CALLDATASIZE SUB DUP2 ADD SWAP1 PUSH2 0x1D0 SWAP2 SWAP1 PUSH2 0x1AFE JUMP JUMPDEST PUSH2 0x7AE JUMP JUMPDEST STOP JUMPDEST PUSH2 0x1F1 PUSH1 0x4 DUP1 CALLDATASIZE SUB DUP2 ADD SWAP1 PUSH2 0x1EC SWAP2 SWAP1 PUSH2 0x1A99 JUMP JUMPDEST PUSH2 0x7CE JUMP JUMPDEST PUSH1 0x40 MLOAD PUSH2 0x1FE SWAP2 SWAP1 PUSH2 0x20AA JUMP JUMPDEST PUSH1 0x40 MLOAD DUP1 SWAP2 SUB SWAP1 RETURN JUMPDEST PUSH2 0x221 PUSH1 0x4 DUP1 CALLDATASIZE SUB DUP2 ADD SWAP1 PUSH2 0x21C SWAP2 SWAP1 PUSH2 0x1CFE JUMP JUMPDEST PUSH2 0x7EE JUMP JUMPDEST PUSH1 0x40 MLOAD PUSH2 0x22E SWAP2 SWAP1 PUSH2 0x2043 JUMP JUMPDEST PUSH1 0x40 MLOAD DUP1 SWAP2 SUB SWAP1 RETURN JUMPDEST PUSH2 0x251 PUSH1 0x4 DUP1 CALLDATASIZE SUB DUP2 ADD SWAP1 PUSH2 0x24C SWAP2 SWAP1 PUSH2 0x1C40 JUMP JUMPDEST PUSH2 0x89B JUMP JUMPDEST STOP JUMPDEST PUSH2 0x26D PUSH1 0x4 DUP1 CALLDATASIZE SUB DUP2 ADD SWAP1 PUSH2 0x268 SWAP2 SWAP1 PUSH2 0x1A99 JUMP JUMPDEST PUSH2 0xA22 JUMP JUMPDEST PUSH1 0x40 MLOAD PUSH2 0x27A SWAP2 SWAP1 PUSH2 0x2282 JUMP JUMPDEST PUSH1 0x40 MLOAD DUP1 SWAP2 SUB SWAP1 RETURN JUMPDEST PUSH2 0x28B PUSH2 0xADA JUMP JUMPDEST PUSH1 0x40 MLOAD PUSH2 0x298 SWAP2 SWAP1 PUSH2 0x20E0 JUMP JUMPDEST PUSH1 0x40 MLOAD DUP1 SWAP2 SUB SWAP1 RETURN JUMPDEST PUSH2 0x2BB PUSH1 0x4 DUP1 CALLDATASIZE SUB DUP2 ADD SWAP1 PUSH2 0x2B6 SWAP2 SWAP1 PUSH2 0x1BC8 JUMP JUMPDEST PUSH2 0xB68 JUMP JUMPDEST STOP JUMPDEST PUSH2 0x2D7 PUSH1 0x4 DUP1 CALLDATASIZE SUB DUP2 ADD SWAP1 PUSH2 0x2D2 SWAP2 SWAP1 PUSH2 0x1B4D JUMP JUMPDEST PUSH2 0xC65 JUMP JUMPDEST STOP JUMPDEST PUSH2 0x2F3 PUSH1 0x4 DUP1 CALLDATASIZE SUB DUP2 ADD SWAP1 PUSH2 0x2EE SWAP2 SWAP1 PUSH2 0x1CFE JUMP JUMPDEST PUSH2 0xCD0 JUMP JUMPDEST PUSH1 0x40 MLOAD PUSH2 0x300 SWAP2 SWAP1 PUSH2 0x20E0 JUMP JUMPDEST PUSH1 0x40 MLOAD DUP1 SWAP2 SUB SWAP1 RETURN JUMPDEST PUSH2 0x323 PUSH1 0x4 DUP1 CALLDATASIZE SUB DUP2 ADD SWAP1 PUSH2 0x31E SWAP2 SWAP1 PUSH2 0x1AC2 JUMP JUMPDEST PUSH2 0xDD2 JUMP JUMPDEST PUSH1 0x40 MLOAD PUSH2 0x330 SWAP2 SWAP1 PUSH2 0x20AA JUMP JUMPDEST PUSH1 0x40 MLOAD DUP1 SWAP2 SUB SWAP1 RETURN JUMPDEST PUSH2 0x341 PUSH2 0xE66 JUMP JUMPDEST PUSH1 0x40 MLOAD PUSH2 0x34E SWAP2 SWAP1 PUSH2 0x20C5 JUMP JUMPDEST PUSH1 0x40 MLOAD DUP1 SWAP2 SUB SWAP1 RETURN JUMPDEST PUSH1 0x0 PUSH32 0x80AC58CD00000000000000000000000000000000000000000000000000000000 PUSH28 0xFFFFFFFFFFFFFFFFFFFFFFFFFFFFFFFFFFFFFFFFFFFFFFFFFFFFFFFF NOT AND DUP3 PUSH28 0xFFFFFFFFFFFFFFFFFFFFFFFFFFFFFFFFFFFFFFFFFFFFFFFFFFFFFFFF NOT AND EQ DUP1 PUSH2 0x422 JUMPI POP PUSH32 0x1FFC9A700000000000000000000000000000000000000000000000000000000 PUSH28 0xFFFFFFFFFFFFFFFFFFFFFFFFFFFFFFFFFFFFFFFFFFFFFFFFFFFFFFFF NOT AND DUP3 PUSH28 0xFFFFFFFFFFFFFFFFFFFFFFFFFFFFFFFFFFFFFFFFFFFFFFFFFFFFFFFF NOT AND EQ JUMPDEST DUP1 PUSH2 0x48A JUMPI POP PUSH32 0x5B5E139F00000000000000000000000000000000000000000000000000000000 PUSH28 0xFFFFFFFFFFFFFFFFFFFFFFFFFFFFFFFFFFFFFFFFFFFFFFFFFFFFFFFF NOT AND DUP3 PUSH28 0xFFFFFFFFFFFFFFFFFFFFFFFFFFFFFFFFFFFFFFFFFFFFFFFFFFFFFFFF NOT AND EQ JUMPDEST SWAP1 POP SWAP2 SWAP1 POP JUMP JUMPDEST PUSH1 0x0 DUP1 SLOAD PUSH2 0x49E SWAP1 PUSH2 0x24B1 JUMP JUMPDEST DUP1 PUSH1 0x1F ADD PUSH1 0x20 DUP1 SWAP2 DIV MUL PUSH1 0x20 ADD PUSH1 0x40 MLOAD SWAP1 DUP2 ADD PUSH1 0x40 MSTORE DUP1 SWAP3 SWAP2 SWAP1 DUP2 DUP2 MSTORE PUSH1 0x20 ADD DUP3 DUP1 SLOAD PUSH2 0x4CA SWAP1 PUSH2 0x24B1 JUMP JUMPDEST DUP1 ISZERO PUSH2 0x517 JUMPI DUP1 PUSH1 0x1F LT PUSH2 0x4EC JUMPI PUSH2 0x100 DUP1 DUP4 SLOAD DIV MUL DUP4 MSTORE SWAP2 PUSH1 0x20 ADD SWAP2 PUSH2 0x517 JUMP JUMPDEST DUP3 ADD SWAP2 SWAP1 PUSH1 0x0 MSTORE PUSH1 0x20 PUSH1 0x0 KECCAK256 SWAP1 JUMPDEST DUP2 SLOAD DUP2 MSTORE SWAP1 PUSH1 0x1 ADD SWAP1 PUSH1 0x20 ADD DUP1 DUP4 GT PUSH2 0x4FA JUMPI DUP3 SWAP1 SUB PUSH1 0x1F AND DUP3 ADD SWAP2 JUMPDEST POP POP POP POP POP DUP2 JUMP JUMPDEST PUSH1 0x0 DUP1 PUSH20 0xFFFFFFFFFFFFFFFFFFFFFFFFFFFFFFFFFFFFFFFF AND PUSH1 0x2 PUSH1 0x0 DUP5 DUP2 MSTORE PUSH1 0x20 ADD SWAP1 DUP2 MSTORE PUSH1 0x20 ADD PUSH1 0x0 KECCAK256 PUSH1 0x0 SWAP1 SLOAD SWAP1 PUSH2 0x100 EXP SWAP1 DIV PUSH20 0xFFFFFFFFFFFFFFFFFFFFFFFFFFFFFFFFFFFFFFFF AND PUSH20 0xFFFFFFFFFFFFFFFFFFFFFFFFFFFFFFFFFFFFFFFF AND EQ ISZERO PUSH2 0x5C3 JUMPI PUSH1 0x40 MLOAD PUSH32 0x8C379A000000000000000000000000000000000000000000000000000000000 DUP2 MSTORE PUSH1 0x4 ADD PUSH2 0x5BA SWAP1 PUSH2 0x2182 JUMP JUMPDEST PUSH1 0x40 MLOAD DUP1 SWAP2 SUB SWAP1 REVERT JUMPDEST PUSH1 0x4 PUSH1 0x0 DUP4 DUP2 MSTORE PUSH1 0x20 ADD SWAP1 DUP2 MSTORE PUSH1 0x20 ADD PUSH1 0x0 KECCAK256 PUSH1 0x0 SWAP1 SLOAD SWAP1 PUSH2 0x100 EXP SWAP1 DIV PUSH20 0xFFFFFFFFFFFFFFFFFFFFFFFFFFFFFFFFFFFFFFFF AND SWAP1 POP SWAP2 SWAP1 POP JUMP JUMPDEST PUSH1 0x0 PUSH1 0x2 PUSH1 0x0 DUP4 DUP2 MSTORE PUSH1 0x20 ADD SWAP1 DUP2 MSTORE PUSH1 0x20 ADD PUSH1 0x0 KECCAK256 PUSH1 0x0 SWAP1 SLOAD SWAP1 PUSH2 0x100 EXP SWAP1 DIV PUSH20 0xFFFFFFFFFFFFFFFFFFFFFFFFFFFFFFFFFFFFFFFF AND SWAP1 POP DUP1 PUSH20 0xFFFFFFFFFFFFFFFFFFFFFFFFFFFFFFFFFFFFFFFF AND CALLER PUSH20 0xFFFFFFFFFFFFFFFFFFFFFFFFFFFFFFFFFFFFFFFF AND EQ DUP1 PUSH2 0x6F6 JUMPI POP PUSH1 0x5 PUSH1 0x0 DUP3 PUSH20 0xFFFFFFFFFFFFFFFFFFFFFFFFFFFFFFFFFFFFFFFF AND PUSH20 0xFFFFFFFFFFFFFFFFFFFFFFFFFFFFFFFFFFFFFFFF AND DUP2 MSTORE PUSH1 0x20 ADD SWAP1 DUP2 MSTORE PUSH1 0x20 ADD PUSH1 0x0 KECCAK256 PUSH1 0x0 CALLER PUSH20 0xFFFFFFFFFFFFFFFFFFFFFFFFFFFFFFFFFFFFFFFF AND PUSH20 0xFFFFFFFFFFFFFFFFFFFFFFFFFFFFFFFFFFFFFFFF AND DUP2 MSTORE PUSH1 0x20 ADD SWAP1 DUP2 MSTORE PUSH1 0x20 ADD PUSH1 0x0 KECCAK256 PUSH1 0x0 SWAP1 SLOAD SWAP1 PUSH2 0x100 EXP SWAP1 DIV PUSH1 0xFF AND JUMPDEST PUSH2 0x735 JUMPI PUSH1 0x40 MLOAD PUSH32 0x8C379A000000000000000000000000000000000000000000000000000000000 DUP2 MSTORE PUSH1 0x4 ADD PUSH2 0x72C SWAP1 PUSH2 0x2142 JUMP JUMPDEST PUSH1 0x40 MLOAD DUP1 SWAP2 SUB SWAP1 REVERT JUMPDEST PUSH2 0x740 DUP2 DUP5 DUP5 PUSH2 0xE8A JUMP JUMPDEST POP POP POP JUMP JUMPDEST PUSH1 0x0 PUSH2 0x750 DUP3 PUSH2 0x7EE JUMP JUMPDEST SWAP1 POP PUSH2 0x75D DUP2 CALLER DUP5 PUSH2 0xF3C JUMP JUMPDEST PUSH2 0x79C JUMPI PUSH1 0x40 MLOAD PUSH32 0x8C379A000000000000000000000000000000000000000000000000000000000 DUP2 MSTORE PUSH1 0x4 ADD PUSH2 0x793 SWAP1 PUSH2 0x2102 JUMP JUMPDEST PUSH1 0x40 MLOAD DUP1 SWAP2 SUB SWAP1 REVERT JUMPDEST PUSH2 0x7A8 DUP2 DUP6 DUP6 DUP6 PUSH2 0x1070 JUMP JUMPDEST POP POP POP POP JUMP JUMPDEST PUSH2 0x7C9 DUP4 DUP4 DUP4 PUSH1 0x40 MLOAD DUP1 PUSH1 0x20 ADD PUSH1 0x40 MSTORE DUP1 PUSH1 0x0 DUP2 MSTORE POP PUSH2 0xC65 JUMP JUMPDEST POP POP POP JUMP JUMPDEST PUSH1 0x6 PUSH1 0x20 MSTORE DUP1 PUSH1 0x0 MSTORE PUSH1 0x40 PUSH1 0x0 KECCAK256 PUSH1 0x0 SWAP2 POP SLOAD SWAP1 PUSH2 0x100 EXP SWAP1 DIV PUSH1 0xFF AND DUP2 JUMP JUMPDEST PUSH1 0x0 PUSH1 0x2 PUSH1 0x0 DUP4 DUP2 MSTORE PUSH1 0x20 ADD SWAP1 DUP2 MSTORE PUSH1 0x20 ADD PUSH1 0x0 KECCAK256 PUSH1 0x0 SWAP1 SLOAD SWAP1 PUSH2 0x100 EXP SWAP1 DIV PUSH20 0xFFFFFFFFFFFFFFFFFFFFFFFFFFFFFFFFFFFFFFFF AND SWAP1 POP PUSH1 0x0 PUSH20 0xFFFFFFFFFFFFFFFFFFFFFFFFFFFFFFFFFFFFFFFF AND DUP2 PUSH20 0xFFFFFFFFFFFFFFFFFFFFFFFFFFFFFFFFFFFFFFFF AND EQ ISZERO PUSH2 0x896 JUMPI PUSH1 0x40 MLOAD PUSH32 0x8C379A000000000000000000000000000000000000000000000000000000000 DUP2 MSTORE PUSH1 0x4 ADD PUSH2 0x88D SWAP1 PUSH2 0x2182 JUMP JUMPDEST PUSH1 0x40 MLOAD DUP1 SWAP2 SUB SWAP1 REVERT JUMPDEST SWAP2 SWAP1 POP JUMP JUMPDEST PUSH2 0x8EE PUSH2 0x8A7 DUP6 PUSH2 0x12BB JUMP JUMPDEST DUP4 DUP4 DUP1 DUP1 PUSH1 0x20 MUL PUSH1 0x20 ADD PUSH1 0x40 MLOAD SWAP1 DUP2 ADD PUSH1 0x40 MSTORE DUP1 SWAP4 SWAP3 SWAP2 SWAP1 DUP2 DUP2 MSTORE PUSH1 0x20 ADD DUP4 DUP4 PUSH1 0x20 MUL DUP1 DUP3 DUP5 CALLDATACOPY PUSH1 0x0 DUP2 DUP5 ADD MSTORE PUSH1 0x1F NOT PUSH1 0x1F DUP3 ADD AND SWAP1 POP DUP1 DUP4 ADD SWAP3 POP POP POP POP POP POP POP PUSH2 0x12EB JUMP JUMPDEST PUSH2 0x92D JUMPI PUSH1 0x40 MLOAD PUSH32 0x8C379A000000000000000000000000000000000000000000000000000000000 DUP2 MSTORE PUSH1 0x4 ADD PUSH2 0x924 SWAP1 PUSH2 0x21C2 JUMP JUMPDEST PUSH1 0x40 MLOAD DUP1 SWAP2 SUB SWAP1 REVERT JUMPDEST PUSH1 0x6 PUSH1 0x0 DUP6 PUSH20 0xFFFFFFFFFFFFFFFFFFFFFFFFFFFFFFFFFFFFFFFF AND PUSH20 0xFFFFFFFFFFFFFFFFFFFFFFFFFFFFFFFFFFFFFFFF AND DUP2 MSTORE PUSH1 0x20 ADD SWAP1 DUP2 MSTORE PUSH1 0x20 ADD PUSH1 0x0 KECCAK256 PUSH1 0x0 SWAP1 SLOAD SWAP1 PUSH2 0x100 EXP SWAP1 DIV PUSH1 0xFF AND ISZERO PUSH2 0x9BA JUMPI PUSH1 0x40 MLOAD PUSH32 0x8C379A000000000000000000000000000000000000000000000000000000000 DUP2 MSTORE PUSH1 0x4 ADD PUSH2 0x9B1 SWAP1 PUSH2 0x2262 JUMP JUMPDEST PUSH1 0x40 MLOAD DUP1 SWAP2 SUB SWAP1 REVERT JUMPDEST PUSH2 0x9C4 DUP5 DUP5 PUSH2 0x1320 JUMP JUMPDEST PUSH1 0x1 PUSH1 0x6 PUSH1 0x0 DUP7 PUSH20 0xFFFFFFFFFFFFFFFFFFFFFFFFFFFFFFFFFFFFFFFF AND PUSH20 0xFFFFFFFFFFFFFFFFFFFFFFFFFFFFFFFFFFFFFFFF AND DUP2 MSTORE PUSH1 0x20 ADD SWAP1 DUP2 MSTORE PUSH1 0x20 ADD PUSH1 0x0 KECCAK256 PUSH1 0x0 PUSH2 0x100 EXP DUP2 SLOAD DUP2 PUSH1 0xFF MUL NOT AND SWAP1 DUP4 ISZERO ISZERO MUL OR SWAP1 SSTORE POP POP POP POP POP JUMP JUMPDEST PUSH1 0x0 DUP1 PUSH20 0xFFFFFFFFFFFFFFFFFFFFFFFFFFFFFFFFFFFFFFFF AND DUP3 PUSH20 0xFFFFFFFFFFFFFFFFFFFFFFFFFFFFFFFFFFFFFFFF AND EQ ISZERO PUSH2 0xA93 JUMPI PUSH1 0x40 MLOAD PUSH32 0x8C379A000000000000000000000000000000000000000000000000000000000 DUP2 MSTORE PUSH1 0x4 ADD PUSH2 0xA8A SWAP1 PUSH2 0x21A2 JUMP JUMPDEST PUSH1 0x40 MLOAD DUP1 SWAP2 SUB SWAP1 REVERT JUMPDEST PUSH1 0x3 PUSH1 0x0 DUP4 PUSH20 0xFFFFFFFFFFFFFFFFFFFFFFFFFFFFFFFFFFFFFFFF AND PUSH20 0xFFFFFFFFFFFFFFFFFFFFFFFFFFFFFFFFFFFFFFFF AND DUP2 MSTORE PUSH1 0x20 ADD SWAP1 DUP2 MSTORE PUSH1 0x20 ADD PUSH1 0x0 KECCAK256 SLOAD SWAP1 POP SWAP2 SWAP1 POP JUMP JUMPDEST PUSH1 0x1 DUP1 SLOAD PUSH2 0xAE7 SWAP1 PUSH2 0x24B1 JUMP JUMPDEST DUP1 PUSH1 0x1F ADD PUSH1 0x20 DUP1 SWAP2 DIV MUL PUSH1 0x20 ADD PUSH1 0x40 MLOAD SWAP1 DUP2 ADD PUSH1 0x40 MSTORE DUP1 SWAP3 SWAP2 SWAP1 DUP2 DUP2 MSTORE PUSH1 0x20 ADD DUP3 DUP1 SLOAD PUSH2 0xB13 SWAP1 PUSH2 0x24B1 JUMP JUMPDEST DUP1 ISZERO PUSH2 0xB60 JUMPI DUP1 PUSH1 0x1F LT PUSH2 0xB35 JUMPI PUSH2 0x100 DUP1 DUP4 SLOAD DIV MUL DUP4 MSTORE SWAP2 PUSH1 0x20 ADD SWAP2 PUSH2 0xB60 JUMP JUMPDEST DUP3 ADD SWAP2 SWAP1 PUSH1 0x0 MSTORE PUSH1 0x20 PUSH1 0x0 KECCAK256 SWAP1 JUMPDEST DUP2 SLOAD DUP2 MSTORE SWAP1 PUSH1 0x1 ADD SWAP1 PUSH1 0x20 ADD DUP1 DUP4 GT PUSH2 0xB43 JUMPI DUP3 SWAP1 SUB PUSH1 0x1F AND DUP3 ADD SWAP2 JUMPDEST POP POP POP POP POP DUP2 JUMP JUMPDEST DUP1 PUSH1 0x5 PUSH1 0x0 CALLER PUSH20 0xFFFFFFFFFFFFFFFFFFFFFFFFFFFFFFFFFFFFFFFF AND PUSH20 0xFFFFFFFFFFFFFFFFFFFFFFFFFFFFFFFFFFFFFFFF AND DUP2 MSTORE PUSH1 0x20 ADD SWAP1 DUP2 MSTORE PUSH1 0x20 ADD PUSH1 0x0 KECCAK256 PUSH1 0x0 DUP5 PUSH20 0xFFFFFFFFFFFFFFFFFFFFFFFFFFFFFFFFFFFFFFFF AND PUSH20 0xFFFFFFFFFFFFFFFFFFFFFFFFFFFFFFFFFFFFFFFF AND DUP2 MSTORE PUSH1 0x20 ADD SWAP1 DUP2 MSTORE PUSH1 0x20 ADD PUSH1 0x0 KECCAK256 PUSH1 0x0 PUSH2 0x100 EXP DUP2 SLOAD DUP2 PUSH1 0xFF MUL NOT AND SWAP1 DUP4 ISZERO ISZERO MUL OR SWAP1 SSTORE POP DUP2 PUSH20 0xFFFFFFFFFFFFFFFFFFFFFFFFFFFFFFFFFFFFFFFF AND CALLER PUSH20 0xFFFFFFFFFFFFFFFFFFFFFFFFFFFFFFFFFFFFFFFF AND PUSH32 0x17307EAB39AB6107E8899845AD3D59BD9653F200F220920489CA2B5937696C31 DUP4 PUSH1 0x40 MLOAD PUSH2 0xC59 SWAP2 SWAP1 PUSH2 0x20AA JUMP JUMPDEST PUSH1 0x40 MLOAD DUP1 SWAP2 SUB SWAP1 LOG3 POP POP JUMP JUMPDEST PUSH1 0x0 PUSH2 0xC70 DUP4 PUSH2 0x7EE JUMP JUMPDEST SWAP1 POP PUSH2 0xC7D DUP2 CALLER DUP6 PUSH2 0xF3C JUMP JUMPDEST PUSH2 0xCBC JUMPI PUSH1 0x40 MLOAD PUSH32 0x8C379A000000000000000000000000000000000000000000000000000000000 DUP2 MSTORE PUSH1 0x4 ADD PUSH2 0xCB3 SWAP1 PUSH2 0x2102 JUMP JUMPDEST PUSH1 0x40 MLOAD DUP1 SWAP2 SUB SWAP1 REVERT JUMPDEST PUSH2 0xCC9 DUP2 DUP7 DUP7 DUP7 DUP7 PUSH2 0x153B JUMP JUMPDEST POP POP POP POP POP JUMP JUMPDEST PUSH1 0x60 PUSH1 0x0 PUSH20 0xFFFFFFFFFFFFFFFFFFFFFFFFFFFFFFFFFFFFFFFF AND PUSH1 0x2 PUSH1 0x0 DUP5 DUP2 MSTORE PUSH1 0x20 ADD SWAP1 DUP2 MSTORE PUSH1 0x20 ADD PUSH1 0x0 KECCAK256 PUSH1 0x0 SWAP1 SLOAD SWAP1 PUSH2 0x100 EXP SWAP1 DIV PUSH20 0xFFFFFFFFFFFFFFFFFFFFFFFFFFFFFFFFFFFFFFFF AND PUSH20 0xFFFFFFFFFFFFFFFFFFFFFFFFFFFFFFFFFFFFFFFF AND EQ ISZERO PUSH2 0xD75 JUMPI PUSH1 0x40 MLOAD PUSH32 0x8C379A000000000000000000000000000000000000000000000000000000000 DUP2 MSTORE PUSH1 0x4 ADD PUSH2 0xD6C SWAP1 PUSH2 0x21E2 JUMP JUMPDEST PUSH1 0x40 MLOAD DUP1 SWAP2 SUB SWAP1 REVERT JUMPDEST PUSH1 0x0 PUSH2 0xD7F PUSH2 0x1599 JUMP JUMPDEST SWAP1 POP PUSH1 0x0 DUP2 MLOAD GT PUSH2 0xD9F JUMPI PUSH1 0x40 MLOAD DUP1 PUSH1 0x20 ADD PUSH1 0x40 MSTORE DUP1 PUSH1 0x0 DUP2 MSTORE POP PUSH2 0xDCA JUMP JUMPDEST DUP1 PUSH2 0xDA9 DUP5 PUSH2 0x15B0 JUMP JUMPDEST PUSH1 0x40 MLOAD PUSH1 0x20 ADD PUSH2 0xDBA SWAP3 SWAP2 SWAP1 PUSH2 0x201F JUMP JUMPDEST PUSH1 0x40 MLOAD PUSH1 0x20 DUP2 DUP4 SUB SUB DUP2 MSTORE SWAP1 PUSH1 0x40 MSTORE JUMPDEST SWAP2 POP POP SWAP2 SWAP1 POP JUMP JUMPDEST PUSH1 0x0 PUSH1 0x5 PUSH1 0x0 DUP5 PUSH20 0xFFFFFFFFFFFFFFFFFFFFFFFFFFFFFFFFFFFFFFFF AND PUSH20 0xFFFFFFFFFFFFFFFFFFFFFFFFFFFFFFFFFFFFFFFF AND DUP2 MSTORE PUSH1 0x20 ADD SWAP1 DUP2 MSTORE PUSH1 0x20 ADD PUSH1 0x0 KECCAK256 PUSH1 0x0 DUP4 PUSH20 0xFFFFFFFFFFFFFFFFFFFFFFFFFFFFFFFFFFFFFFFF AND PUSH20 0xFFFFFFFFFFFFFFFFFFFFFFFFFFFFFFFFFFFFFFFF AND DUP2 MSTORE PUSH1 0x20 ADD SWAP1 DUP2 MSTORE PUSH1 0x20 ADD PUSH1 0x0 KECCAK256 PUSH1 0x0 SWAP1 SLOAD SWAP1 PUSH2 0x100 EXP SWAP1 DIV PUSH1 0xFF AND SWAP1 POP SWAP3 SWAP2 POP POP JUMP JUMPDEST PUSH32 0x0 DUP2 JUMP JUMPDEST DUP2 PUSH1 0x4 PUSH1 0x0 DUP4 DUP2 MSTORE PUSH1 0x20 ADD SWAP1 DUP2 MSTORE PUSH1 0x20 ADD PUSH1 0x0 KECCAK256 PUSH1 0x0 PUSH2 0x100 EXP DUP2 SLOAD DUP2 PUSH20 0xFFFFFFFFFFFFFFFFFFFFFFFFFFFFFFFFFFFFFFFF MUL NOT AND SWAP1 DUP4 PUSH20 0xFFFFFFFFFFFFFFFFFFFFFFFFFFFFFFFFFFFFFFFF AND MUL OR SWAP1 SSTORE POP DUP1 DUP3 PUSH20 0xFFFFFFFFFFFFFFFFFFFFFFFFFFFFFFFFFFFFFFFF AND DUP5 PUSH20 0xFFFFFFFFFFFFFFFFFFFFFFFFFFFFFFFFFFFFFFFF AND PUSH32 0x8C5BE1E5EBEC7D5BD14F71427D1E84F3DD0314C0F7B2291E5B200AC8C7C3B925 PUSH1 0x40 MLOAD PUSH1 0x40 MLOAD DUP1 SWAP2 SUB SWAP1 LOG4 POP POP POP JUMP JUMPDEST PUSH1 0x0 DUP4 PUSH20 0xFFFFFFFFFFFFFFFFFFFFFFFFFFFFFFFFFFFFFFFF AND DUP4 PUSH20 0xFFFFFFFFFFFFFFFFFFFFFFFFFFFFFFFFFFFFFFFF AND EQ DUP1 PUSH2 0xFD6 JUMPI POP DUP3 PUSH20 0xFFFFFFFFFFFFFFFFFFFFFFFFFFFFFFFFFFFFFFFF AND PUSH1 0x4 PUSH1 0x0 DUP5 DUP2 MSTORE PUSH1 0x20 ADD SWAP1 DUP2 MSTORE PUSH1 0x20 ADD PUSH1 0x0 KECCAK256 PUSH1 0x0 SWAP1 SLOAD SWAP1 PUSH2 0x100 EXP SWAP1 DIV PUSH20 0xFFFFFFFFFFFFFFFFFFFFFFFFFFFFFFFFFFFFFFFF AND PUSH20 0xFFFFFFFFFFFFFFFFFFFFFFFFFFFFFFFFFFFFFFFF AND EQ JUMPDEST DUP1 PUSH2 0x1067 JUMPI POP PUSH1 0x5 PUSH1 0x0 DUP6 PUSH20 0xFFFFFFFFFFFFFFFFFFFFFFFFFFFFFFFFFFFFFFFF AND PUSH20 0xFFFFFFFFFFFFFFFFFFFFFFFFFFFFFFFFFFFFFFFF AND DUP2 MSTORE PUSH1 0x20 ADD SWAP1 DUP2 MSTORE PUSH1 0x20 ADD PUSH1 0x0 KECCAK256 PUSH1 0x0 DUP5 PUSH20 0xFFFFFFFFFFFFFFFFFFFFFFFFFFFFFFFFFFFFFFFF AND PUSH20 0xFFFFFFFFFFFFFFFFFFFFFFFFFFFFFFFFFFFFFFFF AND DUP2 MSTORE PUSH1 0x20 ADD SWAP1 DUP2 MSTORE PUSH1 0x20 ADD PUSH1 0x0 KECCAK256 PUSH1 0x0 SWAP1 SLOAD SWAP1 PUSH2 0x100 EXP SWAP1 DIV PUSH1 0xFF AND JUMPDEST SWAP1 POP SWAP4 SWAP3 POP POP POP JUMP JUMPDEST DUP4 PUSH20 0xFFFFFFFFFFFFFFFFFFFFFFFFFFFFFFFFFFFFFFFF AND DUP4 PUSH20 0xFFFFFFFFFFFFFFFFFFFFFFFFFFFFFFFFFFFFFFFF AND EQ PUSH2 0x10DE JUMPI PUSH1 0x40 MLOAD PUSH32 0x8C379A000000000000000000000000000000000000000000000000000000000 DUP2 MSTORE PUSH1 0x4 ADD PUSH2 0x10D5 SWAP1 PUSH2 0x2242 JUMP JUMPDEST PUSH1 0x40 MLOAD DUP1 SWAP2 SUB SWAP1 REVERT JUMPDEST PUSH1 0x0 PUSH20 0xFFFFFFFFFFFFFFFFFFFFFFFFFFFFFFFFFFFFFFFF AND DUP3 PUSH20 0xFFFFFFFFFFFFFFFFFFFFFFFFFFFFFFFFFFFFFFFF AND EQ ISZERO PUSH2 0x114E JUMPI PUSH1 0x40 MLOAD PUSH32 0x8C379A000000000000000000000000000000000000000000000000000000000 DUP2 MSTORE PUSH1 0x4 ADD PUSH2 0x1145 SWAP1 PUSH2 0x2122 JUMP JUMPDEST PUSH1 0x40 MLOAD DUP1 SWAP2 SUB SWAP1 REVERT JUMPDEST PUSH2 0x115A DUP5 PUSH1 0x0 DUP4 PUSH2 0xE8A JUMP JUMPDEST PUSH1 0x1 PUSH1 0x3 PUSH1 0x0 DUP6 PUSH20 0xFFFFFFFFFFFFFFFFFFFFFFFFFFFFFFFFFFFFFFFF AND PUSH20 0xFFFFFFFFFFFFFFFFFFFFFFFFFFFFFFFFFFFFFFFF AND DUP2 MSTORE PUSH1 0x20 ADD SWAP1 DUP2 MSTORE PUSH1 0x20 ADD PUSH1 0x0 KECCAK256 PUSH1 0x0 DUP3 DUP3 SLOAD PUSH2 0x11AA SWAP2 SWAP1 PUSH2 0x23BD JUMP JUMPDEST SWAP3 POP POP DUP2 SWAP1 SSTORE POP PUSH1 0x1 PUSH1 0x3 PUSH1 0x0 DUP5 PUSH20 0xFFFFFFFFFFFFFFFFFFFFFFFFFFFFFFFFFFFFFFFF AND PUSH20 0xFFFFFFFFFFFFFFFFFFFFFFFFFFFFFFFFFFFFFFFF AND DUP2 MSTORE PUSH1 0x20 ADD SWAP1 DUP2 MSTORE PUSH1 0x20 ADD PUSH1 0x0 KECCAK256 PUSH1 0x0 DUP3 DUP3 SLOAD PUSH2 0x1201 SWAP2 SWAP1 PUSH2 0x2336 JUMP JUMPDEST SWAP3 POP POP DUP2 SWAP1 SSTORE POP DUP2 PUSH1 0x2 PUSH1 0x0 DUP4 DUP2 MSTORE PUSH1 0x20 ADD SWAP1 DUP2 MSTORE PUSH1 0x20 ADD PUSH1 0x0 KECCAK256 PUSH1 0x0 PUSH2 0x100 EXP DUP2 SLOAD DUP2 PUSH20 0xFFFFFFFFFFFFFFFFFFFFFFFFFFFFFFFFFFFFFFFF MUL NOT AND SWAP1 DUP4 PUSH20 0xFFFFFFFFFFFFFFFFFFFFFFFFFFFFFFFFFFFFFFFF AND MUL OR SWAP1 SSTORE POP DUP1 DUP3 PUSH20 0xFFFFFFFFFFFFFFFFFFFFFFFFFFFFFFFFFFFFFFFF AND DUP5 PUSH20 0xFFFFFFFFFFFFFFFFFFFFFFFFFFFFFFFFFFFFFFFF AND PUSH32 0xDDF252AD1BE2C89B69C2B068FC378DAA952BA7F163C4A11628F55A4DF523B3EF PUSH1 0x40 MLOAD PUSH1 0x40 MLOAD DUP1 SWAP2 SUB SWAP1 LOG4 POP POP POP POP JUMP JUMPDEST PUSH1 0x0 DUP2 PUSH1 0x40 MLOAD PUSH1 0x20 ADD PUSH2 0x12CE SWAP2 SWAP1 PUSH2 0x1FD8 JUMP JUMPDEST PUSH1 0x40 MLOAD PUSH1 0x20 DUP2 DUP4 SUB SUB DUP2 MSTORE SWAP1 PUSH1 0x40 MSTORE DUP1 MLOAD SWAP1 PUSH1 0x20 ADD KECCAK256 SWAP1 POP SWAP2 SWAP1 POP JUMP JUMPDEST PUSH1 0x0 PUSH2 0x1318 DUP3 PUSH32 0x0 DUP6 PUSH2 0x175D JUMP JUMPDEST SWAP1 POP SWAP3 SWAP2 POP POP JUMP JUMPDEST PUSH1 0x0 PUSH20 0xFFFFFFFFFFFFFFFFFFFFFFFFFFFFFFFFFFFFFFFF AND DUP3 PUSH20 0xFFFFFFFFFFFFFFFFFFFFFFFFFFFFFFFFFFFFFFFF AND EQ ISZERO PUSH2 0x1390 JUMPI PUSH1 0x40 MLOAD PUSH32 0x8C379A000000000000000000000000000000000000000000000000000000000 DUP2 MSTORE PUSH1 0x4 ADD PUSH2 0x1387 SWAP1 PUSH2 0x2162 JUMP JUMPDEST PUSH1 0x40 MLOAD DUP1 SWAP2 SUB SWAP1 REVERT JUMPDEST PUSH1 0x0 PUSH20 0xFFFFFFFFFFFFFFFFFFFFFFFFFFFFFFFFFFFFFFFF AND PUSH1 0x2 PUSH1 0x0 DUP4 DUP2 MSTORE PUSH1 0x20 ADD SWAP1 DUP2 MSTORE PUSH1 0x20 ADD PUSH1 0x0 KECCAK256 PUSH1 0x0 SWAP1 SLOAD SWAP1 PUSH2 0x100 EXP SWAP1 DIV PUSH20 0xFFFFFFFFFFFFFFFFFFFFFFFFFFFFFFFFFFFFFFFF AND PUSH20 0xFFFFFFFFFFFFFFFFFFFFFFFFFFFFFFFFFFFFFFFF AND EQ PUSH2 0x1432 JUMPI PUSH1 0x40 MLOAD PUSH32 0x8C379A000000000000000000000000000000000000000000000000000000000 DUP2 MSTORE PUSH1 0x4 ADD PUSH2 0x1429 SWAP1 PUSH2 0x2202 JUMP JUMPDEST PUSH1 0x40 MLOAD DUP1 SWAP2 SUB SWAP1 REVERT JUMPDEST PUSH1 0x1 PUSH1 0x3 PUSH1 0x0 DUP5 PUSH20 0xFFFFFFFFFFFFFFFFFFFFFFFFFFFFFFFFFFFFFFFF AND PUSH20 0xFFFFFFFFFFFFFFFFFFFFFFFFFFFFFFFFFFFFFFFF AND DUP2 MSTORE PUSH1 0x20 ADD SWAP1 DUP2 MSTORE PUSH1 0x20 ADD PUSH1 0x0 KECCAK256 PUSH1 0x0 DUP3 DUP3 SLOAD PUSH2 0x1482 SWAP2 SWAP1 PUSH2 0x2336 JUMP JUMPDEST SWAP3 POP POP DUP2 SWAP1 SSTORE POP DUP2 PUSH1 0x2 PUSH1 0x0 DUP4 DUP2 MSTORE PUSH1 0x20 ADD SWAP1 DUP2 MSTORE PUSH1 0x20 ADD PUSH1 0x0 KECCAK256 PUSH1 0x0 PUSH2 0x100 EXP DUP2 SLOAD DUP2 PUSH20 0xFFFFFFFFFFFFFFFFFFFFFFFFFFFFFFFFFFFFFFFF MUL NOT AND SWAP1 DUP4 PUSH20 0xFFFFFFFFFFFFFFFFFFFFFFFFFFFFFFFFFFFFFFFF AND MUL OR SWAP1 SSTORE POP DUP1 DUP3 PUSH20 0xFFFFFFFFFFFFFFFFFFFFFFFFFFFFFFFFFFFFFFFF AND PUSH1 0x0 PUSH20 0xFFFFFFFFFFFFFFFFFFFFFFFFFFFFFFFFFFFFFFFF AND PUSH32 0xDDF252AD1BE2C89B69C2B068FC378DAA952BA7F163C4A11628F55A4DF523B3EF PUSH1 0x40 MLOAD PUSH1 0x40 MLOAD DUP1 SWAP2 SUB SWAP1 LOG4 POP POP JUMP JUMPDEST PUSH2 0x1547 DUP6 DUP6 DUP6 DUP6 PUSH2 0x1070 JUMP JUMPDEST PUSH2 0x1553 DUP5 DUP5 DUP5 DUP5 PUSH2 0x1774 JUMP JUMPDEST PUSH2 0x1592 JUMPI PUSH1 0x40 MLOAD PUSH32 0x8C379A000000000000000000000000000000000000000000000000000000000 DUP2 MSTORE PUSH1 0x4 ADD PUSH2 0x1589 SWAP1 PUSH2 0x2222 JUMP JUMPDEST PUSH1 0x40 MLOAD DUP1 SWAP2 SUB SWAP1 REVERT JUMPDEST POP POP POP POP POP JUMP JUMPDEST PUSH1 0x60 PUSH1 0x40 MLOAD DUP1 PUSH1 0x20 ADD PUSH1 0x40 MSTORE DUP1 PUSH1 0x0 DUP2 MSTORE POP SWAP1 POP SWAP1 JUMP JUMPDEST PUSH1 0x60 PUSH1 0x0 DUP3 EQ ISZERO PUSH2 0x15F8 JUMPI PUSH1 0x40 MLOAD DUP1 PUSH1 0x40 ADD PUSH1 0x40 MSTORE DUP1 PUSH1 0x1 DUP2 MSTORE PUSH1 0x20 ADD PUSH32 0x3000000000000000000000000000000000000000000000000000000000000000 DUP2 MSTORE POP SWAP1 POP PUSH2 0x1758 JUMP JUMPDEST PUSH1 0x0 DUP3 SWAP1 POP PUSH1 0x0 JUMPDEST PUSH1 0x0 DUP3 EQ PUSH2 0x162A JUMPI DUP1 DUP1 PUSH2 0x1613 SWAP1 PUSH2 0x2514 JUMP JUMPDEST SWAP2 POP POP PUSH1 0xA DUP3 PUSH2 0x1623 SWAP2 SWAP1 PUSH2 0x238C JUMP JUMPDEST SWAP2 POP PUSH2 0x1600 JUMP JUMPDEST PUSH1 0x0 DUP2 PUSH8 0xFFFFFFFFFFFFFFFF DUP2 GT ISZERO PUSH2 0x166C JUMPI PUSH32 0x4E487B7100000000000000000000000000000000000000000000000000000000 PUSH1 0x0 MSTORE PUSH1 0x41 PUSH1 0x4 MSTORE PUSH1 0x24 PUSH1 0x0 REVERT JUMPDEST PUSH1 0x40 MLOAD SWAP1 DUP1 DUP3 MSTORE DUP1 PUSH1 0x1F ADD PUSH1 0x1F NOT AND PUSH1 0x20 ADD DUP3 ADD PUSH1 0x40 MSTORE DUP1 ISZERO PUSH2 0x169E JUMPI DUP2 PUSH1 0x20 ADD PUSH1 0x1 DUP3 MUL DUP1 CALLDATASIZE DUP4 CALLDATACOPY DUP1 DUP3 ADD SWAP2 POP POP SWAP1 POP JUMPDEST POP SWAP1 POP JUMPDEST PUSH1 0x0 DUP6 EQ PUSH2 0x1751 JUMPI PUSH1 0x1 DUP3 PUSH2 0x16B7 SWAP2 SWAP1 PUSH2 0x23BD JUMP JUMPDEST SWAP2 POP PUSH1 0xA DUP6 PUSH2 0x16C6 SWAP2 SWAP1 PUSH2 0x258B JUMP JUMPDEST PUSH1 0x30 PUSH2 0x16D2 SWAP2 SWAP1 PUSH2 0x2336 JUMP JUMPDEST PUSH1 0xF8 SHL DUP2 DUP4 DUP2 MLOAD DUP2 LT PUSH2 0x170E JUMPI PUSH32 0x4E487B7100000000000000000000000000000000000000000000000000000000 PUSH1 0x0 MSTORE PUSH1 0x32 PUSH1 0x4 MSTORE PUSH1 0x24 PUSH1 0x0 REVERT JUMPDEST PUSH1 0x20 ADD ADD SWAP1 PUSH31 0xFFFFFFFFFFFFFFFFFFFFFFFFFFFFFFFFFFFFFFFFFFFFFFFFFFFFFFFFFFFFFF NOT AND SWAP1 DUP2 PUSH1 0x0 BYTE SWAP1 MSTORE8 POP PUSH1 0xA DUP6 PUSH2 0x174A SWAP2 SWAP1 PUSH2 0x238C JUMP JUMPDEST SWAP5 POP PUSH2 0x16A2 JUMP JUMPDEST DUP1 SWAP4 POP POP POP POP JUMPDEST SWAP2 SWAP1 POP JUMP JUMPDEST PUSH1 0x0 DUP3 PUSH2 0x176A DUP6 DUP5 PUSH2 0x1886 JUMP JUMPDEST EQ SWAP1 POP SWAP4 SWAP3 POP POP POP JUMP JUMPDEST PUSH1 0x0 PUSH2 0x1795 DUP5 PUSH20 0xFFFFFFFFFFFFFFFFFFFFFFFFFFFFFFFFFFFFFFFF AND PUSH2 0x1902 JUMP JUMPDEST ISZERO PUSH2 0x1879 JUMPI PUSH4 0x150B7A02 PUSH1 0xE0 SHL PUSH28 0xFFFFFFFFFFFFFFFFFFFFFFFFFFFFFFFFFFFFFFFFFFFFFFFFFFFFFFFF NOT AND DUP5 PUSH20 0xFFFFFFFFFFFFFFFFFFFFFFFFFFFFFFFFFFFFFFFF AND PUSH4 0x150B7A02 CALLER DUP9 DUP8 DUP8 PUSH1 0x40 MLOAD DUP6 PUSH4 0xFFFFFFFF AND PUSH1 0xE0 SHL DUP2 MSTORE PUSH1 0x4 ADD PUSH2 0x1800 SWAP5 SWAP4 SWAP3 SWAP2 SWAP1 PUSH2 0x205E JUMP JUMPDEST PUSH1 0x20 PUSH1 0x40 MLOAD DUP1 DUP4 SUB DUP2 PUSH1 0x0 DUP8 DUP1 EXTCODESIZE ISZERO DUP1 ISZERO PUSH2 0x181A JUMPI PUSH1 0x0 DUP1 REVERT JUMPDEST POP GAS CALL ISZERO DUP1 ISZERO PUSH2 0x182E JUMPI RETURNDATASIZE PUSH1 0x0 DUP1 RETURNDATACOPY RETURNDATASIZE PUSH1 0x0 REVERT JUMPDEST POP POP POP POP PUSH1 0x40 MLOAD RETURNDATASIZE PUSH1 0x1F NOT PUSH1 0x1F DUP3 ADD AND DUP3 ADD DUP1 PUSH1 0x40 MSTORE POP DUP2 ADD SWAP1 PUSH2 0x1852 SWAP2 SWAP1 PUSH2 0x1CD5 JUMP JUMPDEST PUSH28 0xFFFFFFFFFFFFFFFFFFFFFFFFFFFFFFFFFFFFFFFFFFFFFFFFFFFFFFFF NOT AND EQ SWAP1 POP PUSH2 0x187E JUMP JUMPDEST PUSH1 0x1 SWAP1 POP JUMPDEST SWAP5 SWAP4 POP POP POP POP JUMP JUMPDEST PUSH1 0x0 DUP1 DUP3 SWAP1 POP PUSH1 0x0 JUMPDEST DUP5 MLOAD DUP2 LT ISZERO PUSH2 0x18F7 JUMPI PUSH2 0x18E2 DUP3 DUP7 DUP4 DUP2 MLOAD DUP2 LT PUSH2 0x18D5 JUMPI PUSH32 0x4E487B7100000000000000000000000000000000000000000000000000000000 PUSH1 0x0 MSTORE PUSH1 0x32 PUSH1 0x4 MSTORE PUSH1 0x24 PUSH1 0x0 REVERT JUMPDEST PUSH1 0x20 MUL PUSH1 0x20 ADD ADD MLOAD PUSH2 0x1915 JUMP JUMPDEST SWAP2 POP DUP1 DUP1 PUSH2 0x18EF SWAP1 PUSH2 0x2514 JUMP JUMPDEST SWAP2 POP POP PUSH2 0x188F JUMP JUMPDEST POP DUP1 SWAP2 POP POP SWAP3 SWAP2 POP POP JUMP JUMPDEST PUSH1 0x0 DUP1 DUP3 EXTCODESIZE SWAP1 POP PUSH1 0x0 DUP2 GT SWAP2 POP POP SWAP2 SWAP1 POP JUMP JUMPDEST PUSH1 0x0 DUP2 DUP4 LT PUSH2 0x194C JUMPI DUP2 DUP4 PUSH1 0x40 MLOAD PUSH1 0x20 ADD PUSH2 0x1931 SWAP3 SWAP2 SWAP1 PUSH2 0x1FF3 JUMP JUMPDEST PUSH1 0x40 MLOAD PUSH1 0x20 DUP2 DUP4 SUB SUB DUP2 MSTORE SWAP1 PUSH1 0x40 MSTORE DUP1 MLOAD SWAP1 PUSH1 0x20 ADD KECCAK256 PUSH2 0x1976 JUMP JUMPDEST DUP3 DUP3 PUSH1 0x40 MLOAD PUSH1 0x20 ADD PUSH2 0x195F SWAP3 SWAP2 SWAP1 PUSH2 0x1FF3 JUMP JUMPDEST PUSH1 0x40 MLOAD PUSH1 0x20 DUP2 DUP4 SUB SUB DUP2 MSTORE SWAP1 PUSH1 0x40 MSTORE DUP1 MLOAD SWAP1 PUSH1 0x20 ADD KECCAK256 JUMPDEST SWAP1 POP SWAP3 SWAP2 POP POP JUMP JUMPDEST PUSH1 0x0 PUSH2 0x1991 PUSH2 0x198C DUP5 PUSH2 0x22C2 JUMP JUMPDEST PUSH2 0x229D JUMP JUMPDEST SWAP1 POP DUP3 DUP2 MSTORE PUSH1 0x20 DUP2 ADD DUP5 DUP5 DUP5 ADD GT ISZERO PUSH2 0x19A9 JUMPI PUSH1 0x0 DUP1 REVERT JUMPDEST PUSH2 0x19B4 DUP5 DUP3 DUP6 PUSH2 0x246F JUMP JUMPDEST POP SWAP4 SWAP3 POP POP POP JUMP JUMPDEST PUSH1 0x0 DUP2 CALLDATALOAD SWAP1 POP PUSH2 0x19CB DUP2 PUSH2 0x2882 JUMP JUMPDEST SWAP3 SWAP2 POP POP JUMP JUMPDEST PUSH1 0x0 DUP1 DUP4 PUSH1 0x1F DUP5 ADD SLT PUSH2 0x19E3 JUMPI PUSH1 0x0 DUP1 REVERT JUMPDEST DUP3 CALLDATALOAD SWAP1 POP PUSH8 0xFFFFFFFFFFFFFFFF DUP2 GT ISZERO PUSH2 0x19FC JUMPI PUSH1 0x0 DUP1 REVERT JUMPDEST PUSH1 0x20 DUP4 ADD SWAP2 POP DUP4 PUSH1 0x20 DUP3 MUL DUP4 ADD GT ISZERO PUSH2 0x1A14 JUMPI PUSH1 0x0 DUP1 REVERT JUMPDEST SWAP3 POP SWAP3 SWAP1 POP JUMP JUMPDEST PUSH1 0x0 DUP2 CALLDATALOAD SWAP1 POP PUSH2 0x1A2A DUP2 PUSH2 0x2899 JUMP JUMPDEST SWAP3 SWAP2 POP POP JUMP JUMPDEST PUSH1 0x0 DUP2 CALLDATALOAD SWAP1 POP PUSH2 0x1A3F DUP2 PUSH2 0x28B0 JUMP JUMPDEST SWAP3 SWAP2 POP POP JUMP JUMPDEST PUSH1 0x0 DUP2 MLOAD SWAP1 POP PUSH2 0x1A54 DUP2 PUSH2 0x28B0 JUMP JUMPDEST SWAP3 SWAP2 POP POP JUMP JUMPDEST PUSH1 0x0 DUP3 PUSH1 0x1F DUP4 ADD SLT PUSH2 0x1A6B JUMPI PUSH1 0x0 DUP1 REVERT JUMPDEST DUP2 CALLDATALOAD PUSH2 0x1A7B DUP5 DUP3 PUSH1 0x20 DUP7 ADD PUSH2 0x197E JUMP JUMPDEST SWAP2 POP POP SWAP3 SWAP2 POP POP JUMP JUMPDEST PUSH1 0x0 DUP2 CALLDATALOAD SWAP1 POP PUSH2 0x1A93 DUP2 PUSH2 0x28C7 JUMP JUMPDEST SWAP3 SWAP2 POP POP JUMP JUMPDEST PUSH1 0x0 PUSH1 0x20 DUP3 DUP5 SUB SLT ISZERO PUSH2 0x1AAB JUMPI PUSH1 0x0 DUP1 REVERT JUMPDEST PUSH1 0x0 PUSH2 0x1AB9 DUP5 DUP3 DUP6 ADD PUSH2 0x19BC JUMP JUMPDEST SWAP2 POP POP SWAP3 SWAP2 POP POP JUMP JUMPDEST PUSH1 0x0 DUP1 PUSH1 0x40 DUP4 DUP6 SUB SLT ISZERO PUSH2 0x1AD5 JUMPI PUSH1 0x0 DUP1 REVERT JUMPDEST PUSH1 0x0 PUSH2 0x1AE3 DUP6 DUP3 DUP7 ADD PUSH2 0x19BC JUMP JUMPDEST SWAP3 POP POP PUSH1 0x20 PUSH2 0x1AF4 DUP6 DUP3 DUP7 ADD PUSH2 0x19BC JUMP JUMPDEST SWAP2 POP POP SWAP3 POP SWAP3 SWAP1 POP JUMP JUMPDEST PUSH1 0x0 DUP1 PUSH1 0x0 PUSH1 0x60 DUP5 DUP7 SUB SLT ISZERO PUSH2 0x1B13 JUMPI PUSH1 0x0 DUP1 REVERT JUMPDEST PUSH1 0x0 PUSH2 0x1B21 DUP7 DUP3 DUP8 ADD PUSH2 0x19BC JUMP JUMPDEST SWAP4 POP POP PUSH1 0x20 PUSH2 0x1B32 DUP7 DUP3 DUP8 ADD PUSH2 0x19BC JUMP JUMPDEST SWAP3 POP POP PUSH1 0x40 PUSH2 0x1B43 DUP7 DUP3 DUP8 ADD PUSH2 0x1A84 JUMP JUMPDEST SWAP2 POP POP SWAP3 POP SWAP3 POP SWAP3 JUMP JUMPDEST PUSH1 0x0 DUP1 PUSH1 0x0 DUP1 PUSH1 0x80 DUP6 DUP8 SUB SLT ISZERO PUSH2 0x1B63 JUMPI PUSH1 0x0 DUP1 REVERT JUMPDEST PUSH1 0x0 PUSH2 0x1B71 DUP8 DUP3 DUP9 ADD PUSH2 0x19BC JUMP JUMPDEST SWAP5 POP POP PUSH1 0x20 PUSH2 0x1B82 DUP8 DUP3 DUP9 ADD PUSH2 0x19BC JUMP JUMPDEST SWAP4 POP POP PUSH1 0x40 PUSH2 0x1B93 DUP8 DUP3 DUP9 ADD PUSH2 0x1A84 JUMP JUMPDEST SWAP3 POP POP PUSH1 0x60 DUP6 ADD CALLDATALOAD PUSH8 0xFFFFFFFFFFFFFFFF DUP2 GT ISZERO PUSH2 0x1BB0 JUMPI PUSH1 0x0 DUP1 REVERT JUMPDEST PUSH2 0x1BBC DUP8 DUP3 DUP9 ADD PUSH2 0x1A5A JUMP JUMPDEST SWAP2 POP POP SWAP3 SWAP6 SWAP2 SWAP5 POP SWAP3 POP JUMP JUMPDEST PUSH1 0x0 DUP1 PUSH1 0x40 DUP4 DUP6 SUB SLT ISZERO PUSH2 0x1BDB JUMPI PUSH1 0x0 DUP1 REVERT JUMPDEST PUSH1 0x0 PUSH2 0x1BE9 DUP6 DUP3 DUP7 ADD PUSH2 0x19BC JUMP JUMPDEST SWAP3 POP POP PUSH1 0x20 PUSH2 0x1BFA DUP6 DUP3 DUP7 ADD PUSH2 0x1A1B JUMP JUMPDEST SWAP2 POP POP SWAP3 POP SWAP3 SWAP1 POP JUMP JUMPDEST PUSH1 0x0 DUP1 PUSH1 0x40 DUP4 DUP6 SUB SLT ISZERO PUSH2 0x1C17 JUMPI PUSH1 0x0 DUP1 REVERT JUMPDEST PUSH1 0x0 PUSH2 0x1C25 DUP6 DUP3 DUP7 ADD PUSH2 0x19BC JUMP JUMPDEST SWAP3 POP POP PUSH1 0x20 PUSH2 0x1C36 DUP6 DUP3 DUP7 ADD PUSH2 0x1A84 JUMP JUMPDEST SWAP2 POP POP SWAP3 POP SWAP3 SWAP1 POP JUMP JUMPDEST PUSH1 0x0 DUP1 PUSH1 0x0 DUP1 PUSH1 0x60 DUP6 DUP8 SUB SLT ISZERO PUSH2 0x1C56 JUMPI PUSH1 0x0 DUP1 REVERT JUMPDEST PUSH1 0x0 PUSH2 0x1C64 DUP8 DUP3 DUP9 ADD PUSH2 0x19BC JUMP JUMPDEST SWAP5 POP POP PUSH1 0x20 PUSH2 0x1C75 DUP8 DUP3 DUP9 ADD PUSH2 0x1A84 JUMP JUMPDEST SWAP4 POP POP PUSH1 0x40 DUP6 ADD CALLDATALOAD PUSH8 0xFFFFFFFFFFFFFFFF DUP2 GT ISZERO PUSH2 0x1C92 JUMPI PUSH1 0x0 DUP1 REVERT JUMPDEST PUSH2 0x1C9E DUP8 DUP3 DUP9 ADD PUSH2 0x19D1 JUMP JUMPDEST SWAP3 POP SWAP3 POP POP SWAP3 SWAP6 SWAP2 SWAP5 POP SWAP3 POP JUMP JUMPDEST PUSH1 0x0 PUSH1 0x20 DUP3 DUP5 SUB SLT ISZERO PUSH2 0x1CBE JUMPI PUSH1 0x0 DUP1 REVERT JUMPDEST PUSH1 0x0 PUSH2 0x1CCC DUP5 DUP3 DUP6 ADD PUSH2 0x1A30 JUMP JUMPDEST SWAP2 POP POP SWAP3 SWAP2 POP POP JUMP JUMPDEST PUSH1 0x0 PUSH1 0x20 DUP3 DUP5 SUB SLT ISZERO PUSH2 0x1CE7 JUMPI PUSH1 0x0 DUP1 REVERT JUMPDEST PUSH1 0x0 PUSH2 0x1CF5 DUP5 DUP3 DUP6 ADD PUSH2 0x1A45 JUMP JUMPDEST SWAP2 POP POP SWAP3 SWAP2 POP POP JUMP JUMPDEST PUSH1 0x0 PUSH1 0x20 DUP3 DUP5 SUB SLT ISZERO PUSH2 0x1D10 JUMPI PUSH1 0x0 DUP1 REVERT JUMPDEST PUSH1 0x0 PUSH2 0x1D1E DUP5 DUP3 DUP6 ADD PUSH2 0x1A84 JUMP JUMPDEST SWAP2 POP POP SWAP3 SWAP2 POP POP JUMP JUMPDEST PUSH2 0x1D30 DUP2 PUSH2 0x23F1 JUMP JUMPDEST DUP3 MSTORE POP POP JUMP JUMPDEST PUSH2 0x1D47 PUSH2 0x1D42 DUP3 PUSH2 0x23F1 JUMP JUMPDEST PUSH2 0x255D JUMP JUMPDEST DUP3 MSTORE POP POP JUMP JUMPDEST PUSH2 0x1D56 DUP2 PUSH2 0x2403 JUMP JUMPDEST DUP3 MSTORE POP POP JUMP JUMPDEST PUSH2 0x1D65 DUP2 PUSH2 0x240F JUMP JUMPDEST DUP3 MSTORE POP POP JUMP JUMPDEST PUSH2 0x1D7C PUSH2 0x1D77 DUP3 PUSH2 0x240F JUMP JUMPDEST PUSH2 0x256F JUMP JUMPDEST DUP3 MSTORE POP POP JUMP JUMPDEST PUSH1 0x0 PUSH2 0x1D8D DUP3 PUSH2 0x22F3 JUMP JUMPDEST PUSH2 0x1D97 DUP2 DUP6 PUSH2 0x2309 JUMP JUMPDEST SWAP4 POP PUSH2 0x1DA7 DUP2 DUP6 PUSH1 0x20 DUP7 ADD PUSH2 0x247E JUMP JUMPDEST PUSH2 0x1DB0 DUP2 PUSH2 0x2678 JUMP JUMPDEST DUP5 ADD SWAP2 POP POP SWAP3 SWAP2 POP POP JUMP JUMPDEST PUSH1 0x0 PUSH2 0x1DC6 DUP3 PUSH2 0x22FE JUMP JUMPDEST PUSH2 0x1DD0 DUP2 DUP6 PUSH2 0x231A JUMP JUMPDEST SWAP4 POP PUSH2 0x1DE0 DUP2 DUP6 PUSH1 0x20 DUP7 ADD PUSH2 0x247E JUMP JUMPDEST PUSH2 0x1DE9 DUP2 PUSH2 0x2678 JUMP JUMPDEST DUP5 ADD SWAP2 POP POP SWAP3 SWAP2 POP POP JUMP JUMPDEST PUSH1 0x0 PUSH2 0x1DFF DUP3 PUSH2 0x22FE JUMP JUMPDEST PUSH2 0x1E09 DUP2 DUP6 PUSH2 0x232B JUMP JUMPDEST SWAP4 POP PUSH2 0x1E19 DUP2 DUP6 PUSH1 0x20 DUP7 ADD PUSH2 0x247E JUMP JUMPDEST DUP1 DUP5 ADD SWAP2 POP POP SWAP3 SWAP2 POP POP JUMP JUMPDEST PUSH1 0x0 PUSH2 0x1E32 PUSH1 0x16 DUP4 PUSH2 0x231A JUMP JUMPDEST SWAP2 POP PUSH2 0x1E3D DUP3 PUSH2 0x2696 JUMP JUMPDEST PUSH1 0x20 DUP3 ADD SWAP1 POP SWAP2 SWAP1 POP JUMP JUMPDEST PUSH1 0x0 PUSH2 0x1E55 PUSH1 0x1C DUP4 PUSH2 0x231A JUMP JUMPDEST SWAP2 POP PUSH2 0x1E60 DUP3 PUSH2 0x26BF JUMP JUMPDEST PUSH1 0x20 DUP3 ADD SWAP1 POP SWAP2 SWAP1 POP JUMP JUMPDEST PUSH1 0x0 PUSH2 0x1E78 PUSH1 0x1E DUP4 PUSH2 0x231A JUMP JUMPDEST SWAP2 POP PUSH2 0x1E83 DUP3 PUSH2 0x26E8 JUMP JUMPDEST PUSH1 0x20 DUP3 ADD SWAP1 POP SWAP2 SWAP1 POP JUMP JUMPDEST PUSH1 0x0 PUSH2 0x1E9B PUSH1 0x14 DUP4 PUSH2 0x231A JUMP JUMPDEST SWAP2 POP PUSH2 0x1EA6 DUP3 PUSH2 0x2711 JUMP JUMPDEST PUSH1 0x20 DUP3 ADD SWAP1 POP SWAP2 SWAP1 POP JUMP JUMPDEST PUSH1 0x0 PUSH2 0x1EBE PUSH1 0x13 DUP4 PUSH2 0x231A JUMP JUMPDEST SWAP2 POP PUSH2 0x1EC9 DUP3 PUSH2 0x273A JUMP JUMPDEST PUSH1 0x20 DUP3 ADD SWAP1 POP SWAP2 SWAP1 POP JUMP JUMPDEST PUSH1 0x0 PUSH2 0x1EE1 PUSH1 0x14 DUP4 PUSH2 0x231A JUMP JUMPDEST SWAP2 POP PUSH2 0x1EEC DUP3 PUSH2 0x2763 JUMP JUMPDEST PUSH1 0x20 DUP3 ADD SWAP1 POP SWAP2 SWAP1 POP JUMP JUMPDEST PUSH1 0x0 PUSH2 0x1F04 PUSH1 0x14 DUP4 PUSH2 0x231A JUMP JUMPDEST SWAP2 POP PUSH2 0x1F0F DUP3 PUSH2 0x278C JUMP JUMPDEST PUSH1 0x20 DUP3 ADD SWAP1 POP SWAP2 SWAP1 POP JUMP JUMPDEST PUSH1 0x0 PUSH2 0x1F27 PUSH1 0xF DUP4 PUSH2 0x231A JUMP JUMPDEST SWAP2 POP PUSH2 0x1F32 DUP3 PUSH2 0x27B5 JUMP JUMPDEST PUSH1 0x20 DUP3 ADD SWAP1 POP SWAP2 SWAP1 POP JUMP JUMPDEST PUSH1 0x0 PUSH2 0x1F4A PUSH1 0x14 DUP4 PUSH2 0x231A JUMP JUMPDEST SWAP2 POP PUSH2 0x1F55 DUP3 PUSH2 0x27DE JUMP JUMPDEST PUSH1 0x20 DUP3 ADD SWAP1 POP SWAP2 SWAP1 POP JUMP JUMPDEST PUSH1 0x0 PUSH2 0x1F6D PUSH1 0x12 DUP4 PUSH2 0x231A JUMP JUMPDEST SWAP2 POP PUSH2 0x1F78 DUP3 PUSH2 0x2807 JUMP JUMPDEST PUSH1 0x20 DUP3 ADD SWAP1 POP SWAP2 SWAP1 POP JUMP JUMPDEST PUSH1 0x0 PUSH2 0x1F90 PUSH1 0x9 DUP4 PUSH2 0x231A JUMP JUMPDEST SWAP2 POP PUSH2 0x1F9B DUP3 PUSH2 0x2830 JUMP JUMPDEST PUSH1 0x20 DUP3 ADD SWAP1 POP SWAP2 SWAP1 POP JUMP JUMPDEST PUSH1 0x0 PUSH2 0x1FB3 PUSH1 0xF DUP4 PUSH2 0x231A JUMP JUMPDEST SWAP2 POP PUSH2 0x1FBE DUP3 PUSH2 0x2859 JUMP JUMPDEST PUSH1 0x20 DUP3 ADD SWAP1 POP SWAP2 SWAP1 POP JUMP JUMPDEST PUSH2 0x1FD2 DUP2 PUSH2 0x2465 JUMP JUMPDEST DUP3 MSTORE POP POP JUMP JUMPDEST PUSH1 0x0 PUSH2 0x1FE4 DUP3 DUP5 PUSH2 0x1D36 JUMP JUMPDEST PUSH1 0x14 DUP3 ADD SWAP2 POP DUP2 SWAP1 POP SWAP3 SWAP2 POP POP JUMP JUMPDEST PUSH1 0x0 PUSH2 0x1FFF DUP3 DUP6 PUSH2 0x1D6B JUMP JUMPDEST PUSH1 0x20 DUP3 ADD SWAP2 POP PUSH2 0x200F DUP3 DUP5 PUSH2 0x1D6B JUMP JUMPDEST PUSH1 0x20 DUP3 ADD SWAP2 POP DUP2 SWAP1 POP SWAP4 SWAP3 POP POP POP JUMP JUMPDEST PUSH1 0x0 PUSH2 0x202B DUP3 DUP6 PUSH2 0x1DF4 JUMP JUMPDEST SWAP2 POP PUSH2 0x2037 DUP3 DUP5 PUSH2 0x1DF4 JUMP JUMPDEST SWAP2 POP DUP2 SWAP1 POP SWAP4 SWAP3 POP POP POP JUMP JUMPDEST PUSH1 0x0 PUSH1 0x20 DUP3 ADD SWAP1 POP PUSH2 0x2058 PUSH1 0x0 DUP4 ADD DUP5 PUSH2 0x1D27 JUMP JUMPDEST SWAP3 SWAP2 POP POP JUMP JUMPDEST PUSH1 0x0 PUSH1 0x80 DUP3 ADD SWAP1 POP PUSH2 0x2073 PUSH1 0x0 DUP4 ADD DUP8 PUSH2 0x1D27 JUMP JUMPDEST PUSH2 0x2080 PUSH1 0x20 DUP4 ADD DUP7 PUSH2 0x1D27 JUMP JUMPDEST PUSH2 0x208D PUSH1 0x40 DUP4 ADD DUP6 PUSH2 0x1FC9 JUMP JUMPDEST DUP2 DUP2 SUB PUSH1 0x60 DUP4 ADD MSTORE PUSH2 0x209F DUP2 DUP5 PUSH2 0x1D82 JUMP JUMPDEST SWAP1 POP SWAP6 SWAP5 POP POP POP POP POP JUMP JUMPDEST PUSH1 0x0 PUSH1 0x20 DUP3 ADD SWAP1 POP PUSH2 0x20BF PUSH1 0x0 DUP4 ADD DUP5 PUSH2 0x1D4D JUMP JUMPDEST SWAP3 SWAP2 POP POP JUMP JUMPDEST PUSH1 0x0 PUSH1 0x20 DUP3 ADD SWAP1 POP PUSH2 0x20DA PUSH1 0x0 DUP4 ADD DUP5 PUSH2 0x1D5C JUMP JUMPDEST SWAP3 SWAP2 POP POP JUMP JUMPDEST PUSH1 0x0 PUSH1 0x20 DUP3 ADD SWAP1 POP DUP2 DUP2 SUB PUSH1 0x0 DUP4 ADD MSTORE PUSH2 0x20FA DUP2 DUP5 PUSH2 0x1DBB JUMP JUMPDEST SWAP1 POP SWAP3 SWAP2 POP POP JUMP JUMPDEST PUSH1 0x0 PUSH1 0x20 DUP3 ADD SWAP1 POP DUP2 DUP2 SUB PUSH1 0x0 DUP4 ADD MSTORE PUSH2 0x211B DUP2 PUSH2 0x1E25 JUMP JUMPDEST SWAP1 POP SWAP2 SWAP1 POP JUMP JUMPDEST PUSH1 0x0 PUSH1 0x20 DUP3 ADD SWAP1 POP DUP2 DUP2 SUB PUSH1 0x0 DUP4 ADD MSTORE PUSH2 0x213B DUP2 PUSH2 0x1E48 JUMP JUMPDEST SWAP1 POP SWAP2 SWAP1 POP JUMP JUMPDEST PUSH1 0x0 PUSH1 0x20 DUP3 ADD SWAP1 POP DUP2 DUP2 SUB PUSH1 0x0 DUP4 ADD MSTORE PUSH2 0x215B DUP2 PUSH2 0x1E6B JUMP JUMPDEST SWAP1 POP SWAP2 SWAP1 POP JUMP JUMPDEST PUSH1 0x0 PUSH1 0x20 DUP3 ADD SWAP1 POP DUP2 DUP2 SUB PUSH1 0x0 DUP4 ADD MSTORE PUSH2 0x217B DUP2 PUSH2 0x1E8E JUMP JUMPDEST SWAP1 POP SWAP2 SWAP1 POP JUMP JUMPDEST PUSH1 0x0 PUSH1 0x20 DUP3 ADD SWAP1 POP DUP2 DUP2 SUB PUSH1 0x0 DUP4 ADD MSTORE PUSH2 0x219B DUP2 PUSH2 0x1EB1 JUMP JUMPDEST SWAP1 POP SWAP2 SWAP1 POP JUMP JUMPDEST PUSH1 0x0 PUSH1 0x20 DUP3 ADD SWAP1 POP DUP2 DUP2 SUB PUSH1 0x0 DUP4 ADD MSTORE PUSH2 0x21BB DUP2 PUSH2 0x1ED4 JUMP JUMPDEST SWAP1 POP SWAP2 SWAP1 POP JUMP JUMPDEST PUSH1 0x0 PUSH1 0x20 DUP3 ADD SWAP1 POP DUP2 DUP2 SUB PUSH1 0x0 DUP4 ADD MSTORE PUSH2 0x21DB DUP2 PUSH2 0x1EF7 JUMP JUMPDEST SWAP1 POP SWAP2 SWAP1 POP JUMP JUMPDEST PUSH1 0x0 PUSH1 0x20 DUP3 ADD SWAP1 POP DUP2 DUP2 SUB PUSH1 0x0 DUP4 ADD MSTORE PUSH2 0x21FB DUP2 PUSH2 0x1F1A JUMP JUMPDEST SWAP1 POP SWAP2 SWAP1 POP JUMP JUMPDEST PUSH1 0x0 PUSH1 0x20 DUP3 ADD SWAP1 POP DUP2 DUP2 SUB PUSH1 0x0 DUP4 ADD MSTORE PUSH2 0x221B DUP2 PUSH2 0x1F3D JUMP JUMPDEST SWAP1 POP SWAP2 SWAP1 POP JUMP JUMPDEST PUSH1 0x0 PUSH1 0x20 DUP3 ADD SWAP1 POP DUP2 DUP2 SUB PUSH1 0x0 DUP4 ADD MSTORE PUSH2 0x223B DUP2 PUSH2 0x1F60 JUMP JUMPDEST SWAP1 POP SWAP2 SWAP1 POP JUMP JUMPDEST PUSH1 0x0 PUSH1 0x20 DUP3 ADD SWAP1 POP DUP2 DUP2 SUB PUSH1 0x0 DUP4 ADD MSTORE PUSH2 0x225B DUP2 PUSH2 0x1F83 JUMP JUMPDEST SWAP1 POP SWAP2 SWAP1 POP JUMP JUMPDEST PUSH1 0x0 PUSH1 0x20 DUP3 ADD SWAP1 POP DUP2 DUP2 SUB PUSH1 0x0 DUP4 ADD MSTORE PUSH2 0x227B DUP2 PUSH2 0x1FA6 JUMP JUMPDEST SWAP1 POP SWAP2 SWAP1 POP JUMP JUMPDEST PUSH1 0x0 PUSH1 0x20 DUP3 ADD SWAP1 POP PUSH2 0x2297 PUSH1 0x0 DUP4 ADD DUP5 PUSH2 0x1FC9 JUMP JUMPDEST SWAP3 SWAP2 POP POP JUMP JUMPDEST PUSH1 0x0 PUSH2 0x22A7 PUSH2 0x22B8 JUMP JUMPDEST SWAP1 POP PUSH2 0x22B3 DUP3 DUP3 PUSH2 0x24E3 JUMP JUMPDEST SWAP2 SWAP1 POP JUMP JUMPDEST PUSH1 0x0 PUSH1 0x40 MLOAD SWAP1 POP SWAP1 JUMP JUMPDEST PUSH1 0x0 PUSH8 0xFFFFFFFFFFFFFFFF DUP3 GT ISZERO PUSH2 0x22DD JUMPI PUSH2 0x22DC PUSH2 0x2649 JUMP JUMPDEST JUMPDEST PUSH2 0x22E6 DUP3 PUSH2 0x2678 JUMP JUMPDEST SWAP1 POP PUSH1 0x20 DUP2 ADD SWAP1 POP SWAP2 SWAP1 POP JUMP JUMPDEST PUSH1 0x0 DUP2 MLOAD SWAP1 POP SWAP2 SWAP1 POP JUMP JUMPDEST PUSH1 0x0 DUP2 MLOAD SWAP1 POP SWAP2 SWAP1 POP JUMP JUMPDEST PUSH1 0x0 DUP3 DUP3 MSTORE PUSH1 0x20 DUP3 ADD SWAP1 POP SWAP3 SWAP2 POP POP JUMP JUMPDEST PUSH1 0x0 DUP3 DUP3 MSTORE PUSH1 0x20 DUP3 ADD SWAP1 POP SWAP3 SWAP2 POP POP JUMP JUMPDEST PUSH1 0x0 DUP2 SWAP1 POP SWAP3 SWAP2 POP POP JUMP JUMPDEST PUSH1 0x0 PUSH2 0x2341 DUP3 PUSH2 0x2465 JUMP JUMPDEST SWAP2 POP PUSH2 0x234C DUP4 PUSH2 0x2465 JUMP JUMPDEST SWAP3 POP DUP3 PUSH32 0xFFFFFFFFFFFFFFFFFFFFFFFFFFFFFFFFFFFFFFFFFFFFFFFFFFFFFFFFFFFFFFFF SUB DUP3 GT ISZERO PUSH2 0x2381 JUMPI PUSH2 0x2380 PUSH2 0x25BC JUMP JUMPDEST JUMPDEST DUP3 DUP3 ADD SWAP1 POP SWAP3 SWAP2 POP POP JUMP JUMPDEST PUSH1 0x0 PUSH2 0x2397 DUP3 PUSH2 0x2465 JUMP JUMPDEST SWAP2 POP PUSH2 0x23A2 DUP4 PUSH2 0x2465 JUMP JUMPDEST SWAP3 POP DUP3 PUSH2 0x23B2 JUMPI PUSH2 0x23B1 PUSH2 0x25EB JUMP JUMPDEST JUMPDEST DUP3 DUP3 DIV SWAP1 POP SWAP3 SWAP2 POP POP JUMP JUMPDEST PUSH1 0x0 PUSH2 0x23C8 DUP3 PUSH2 0x2465 JUMP JUMPDEST SWAP2 POP PUSH2 0x23D3 DUP4 PUSH2 0x2465 JUMP JUMPDEST SWAP3 POP DUP3 DUP3 LT ISZERO PUSH2 0x23E6 JUMPI PUSH2 0x23E5 PUSH2 0x25BC JUMP JUMPDEST JUMPDEST DUP3 DUP3 SUB SWAP1 POP SWAP3 SWAP2 POP POP JUMP JUMPDEST PUSH1 0x0 PUSH2 0x23FC DUP3 PUSH2 0x2445 JUMP JUMPDEST SWAP1 POP SWAP2 SWAP1 POP JUMP JUMPDEST PUSH1 0x0 DUP2 ISZERO ISZERO SWAP1 POP SWAP2 SWAP1 POP JUMP JUMPDEST PUSH1 0x0 DUP2 SWAP1 POP SWAP2 SWAP1 POP JUMP JUMPDEST PUSH1 0x0 PUSH32 0xFFFFFFFF00000000000000000000000000000000000000000000000000000000 DUP3 AND SWAP1 POP SWAP2 SWAP1 POP JUMP JUMPDEST PUSH1 0x0 PUSH20 0xFFFFFFFFFFFFFFFFFFFFFFFFFFFFFFFFFFFFFFFF DUP3 AND SWAP1 POP SWAP2 SWAP1 POP JUMP JUMPDEST PUSH1 0x0 DUP2 SWAP1 POP SWAP2 SWAP1 POP JUMP JUMPDEST DUP3 DUP2 DUP4 CALLDATACOPY PUSH1 0x0 DUP4 DUP4 ADD MSTORE POP POP POP JUMP JUMPDEST PUSH1 0x0 JUMPDEST DUP4 DUP2 LT ISZERO PUSH2 0x249C JUMPI DUP1 DUP3 ADD MLOAD DUP2 DUP5 ADD MSTORE PUSH1 0x20 DUP2 ADD SWAP1 POP PUSH2 0x2481 JUMP JUMPDEST DUP4 DUP2 GT ISZERO PUSH2 0x24AB JUMPI PUSH1 0x0 DUP5 DUP5 ADD MSTORE JUMPDEST POP POP POP POP JUMP JUMPDEST PUSH1 0x0 PUSH1 0x2 DUP3 DIV SWAP1 POP PUSH1 0x1 DUP3 AND DUP1 PUSH2 0x24C9 JUMPI PUSH1 0x7F DUP3 AND SWAP2 POP JUMPDEST PUSH1 0x20 DUP3 LT DUP2 EQ ISZERO PUSH2 0x24DD JUMPI PUSH2 0x24DC PUSH2 0x261A JUMP JUMPDEST JUMPDEST POP SWAP2 SWAP1 POP JUMP JUMPDEST PUSH2 0x24EC DUP3 PUSH2 0x2678 JUMP JUMPDEST DUP2 ADD DUP2 DUP2 LT PUSH8 0xFFFFFFFFFFFFFFFF DUP3 GT OR ISZERO PUSH2 0x250B JUMPI PUSH2 0x250A PUSH2 0x2649 JUMP JUMPDEST JUMPDEST DUP1 PUSH1 0x40 MSTORE POP POP POP JUMP JUMPDEST PUSH1 0x0 PUSH2 0x251F DUP3 PUSH2 0x2465 JUMP JUMPDEST SWAP2 POP PUSH32 0xFFFFFFFFFFFFFFFFFFFFFFFFFFFFFFFFFFFFFFFFFFFFFFFFFFFFFFFFFFFFFFFF DUP3 EQ ISZERO PUSH2 0x2552 JUMPI PUSH2 0x2551 PUSH2 0x25BC JUMP JUMPDEST JUMPDEST PUSH1 0x1 DUP3 ADD SWAP1 POP SWAP2 SWAP1 POP JUMP JUMPDEST PUSH1 0x0 PUSH2 0x2568 DUP3 PUSH2 0x2579 JUMP JUMPDEST SWAP1 POP SWAP2 SWAP1 POP JUMP JUMPDEST PUSH1 0x0 DUP2 SWAP1 POP SWAP2 SWAP1 POP JUMP JUMPDEST PUSH1 0x0 PUSH2 0x2584 DUP3 PUSH2 0x2689 JUMP JUMPDEST SWAP1 POP SWAP2 SWAP1 POP JUMP JUMPDEST PUSH1 0x0 PUSH2 0x2596 DUP3 PUSH2 0x2465 JUMP JUMPDEST SWAP2 POP PUSH2 0x25A1 DUP4 PUSH2 0x2465 JUMP JUMPDEST SWAP3 POP DUP3 PUSH2 0x25B1 JUMPI PUSH2 0x25B0 PUSH2 0x25EB JUMP JUMPDEST JUMPDEST DUP3 DUP3 MOD SWAP1 POP SWAP3 SWAP2 POP POP JUMP JUMPDEST PUSH32 0x4E487B7100000000000000000000000000000000000000000000000000000000 PUSH1 0x0 MSTORE PUSH1 0x11 PUSH1 0x4 MSTORE PUSH1 0x24 PUSH1 0x0 REVERT JUMPDEST PUSH32 0x4E487B7100000000000000000000000000000000000000000000000000000000 PUSH1 0x0 MSTORE PUSH1 0x12 PUSH1 0x4 MSTORE PUSH1 0x24 PUSH1 0x0 REVERT JUMPDEST PUSH32 0x4E487B7100000000000000000000000000000000000000000000000000000000 PUSH1 0x0 MSTORE PUSH1 0x22 PUSH1 0x4 MSTORE PUSH1 0x24 PUSH1 0x0 REVERT JUMPDEST PUSH32 0x4E487B7100000000000000000000000000000000000000000000000000000000 PUSH1 0x0 MSTORE PUSH1 0x41 PUSH1 0x4 MSTORE PUSH1 0x24 PUSH1 0x0 REVERT JUMPDEST PUSH1 0x0 PUSH1 0x1F NOT PUSH1 0x1F DUP4 ADD AND SWAP1 POP SWAP2 SWAP1 POP JUMP JUMPDEST PUSH1 0x0 DUP2 PUSH1 0x60 SHL SWAP1 POP SWAP2 SWAP1 POP JUMP JUMPDEST PUSH32 0x6E6F74206F776E6572206E6F7220617070726F76656400000000000000000000 PUSH1 0x0 DUP3 ADD MSTORE POP JUMP JUMPDEST PUSH32 0x7472616E7366657220746F20746865207A65726F206164647265737300000000 PUSH1 0x0 DUP3 ADD MSTORE POP JUMP JUMPDEST PUSH32 0x6E6F74206F776E6572206E6F7220617070726F76656420666F7220616C6C0000 PUSH1 0x0 DUP3 ADD MSTORE POP JUMP JUMPDEST PUSH32 0x6D696E7420746F207A65726F2061646472657373000000000000000000000000 PUSH1 0x0 DUP3 ADD MSTORE POP JUMP JUMPDEST PUSH32 0x746F6B656E20646F65736E277420657869737400000000000000000000000000 PUSH1 0x0 DUP3 ADD MSTORE POP JUMP JUMPDEST PUSH32 0x6F776E6572203D207A65726F2061646472657373000000000000000000000000 PUSH1 0x0 DUP3 ADD MSTORE POP JUMP JUMPDEST PUSH32 0x496E76616C6964206D65726B6C652070726F6F66000000000000000000000000 PUSH1 0x0 DUP3 ADD MSTORE POP JUMP JUMPDEST PUSH32 0x546F6B656E204E6F742045786973740000000000000000000000000000000000 PUSH1 0x0 DUP3 ADD MSTORE POP JUMP JUMPDEST PUSH32 0x746F6B656E20616C7265616479206D696E746564000000000000000000000000 PUSH1 0x0 DUP3 ADD MSTORE POP JUMP JUMPDEST PUSH32 0x6E6F742045524337323152656365697665720000000000000000000000000000 PUSH1 0x0 DUP3 ADD MSTORE POP JUMP JUMPDEST PUSH32 0x6E6F74206F776E65720000000000000000000000000000000000000000000000 PUSH1 0x0 DUP3 ADD MSTORE POP JUMP JUMPDEST PUSH32 0x416C7265616479206D696E746564210000000000000000000000000000000000 PUSH1 0x0 DUP3 ADD MSTORE POP JUMP JUMPDEST PUSH2 0x288B DUP2 PUSH2 0x23F1 JUMP JUMPDEST DUP2 EQ PUSH2 0x2896 JUMPI PUSH1 0x0 DUP1 REVERT JUMPDEST POP JUMP JUMPDEST PUSH2 0x28A2 DUP2 PUSH2 0x2403 JUMP JUMPDEST DUP2 EQ PUSH2 0x28AD JUMPI PUSH1 0x0 DUP1 REVERT JUMPDEST POP JUMP JUMPDEST PUSH2 0x28B9 DUP2 PUSH2 0x2419 JUMP JUMPDEST DUP2 EQ PUSH2 0x28C4 JUMPI PUSH1 0x0 DUP1 REVERT JUMPDEST POP JUMP JUMPDEST PUSH2 0x28D0 DUP2 PUSH2 0x2465 JUMP JUMPDEST DUP2 EQ PUSH2 0x28DB JUMPI PUSH1 0x0 DUP1 REVERT JUMPDEST POP JUMP INVALID LOG2 PUSH5 0x6970667358 0x22 SLT KECCAK256 PUSH26 0x5CC99EDB637F511FD07BF8428D40FF6D40416BA52ADC8EE41170 0x28 DUP6 0xBE 0xAB REVERT PUSH5 0x736F6C6343 STOP ADDMOD DIV STOP CALLER "
				},
				"gasEstimates": {
					"creation": {
						"codeDepositCost": "2103200",
						"executionCost": "infinite",
						"totalCost": "infinite"
					},
					"external": {
						"approve(address,uint256)": "25623",
						"balanceOf(address)": "1624",
						"getApproved(uint256)": "2585",
						"isApprovedForAll(address,address)": "infinite",
						"mint(address,uint256,bytes32[])": "infinite",
						"mintedAddress(address)": "1612",
						"name()": "infinite",
						"ownerOf(uint256)": "1745",
						"root()": "infinite",
						"safeTransferFrom(address,address,uint256)": "infinite",
						"safeTransferFrom(address,address,uint256,bytes)": "infinite",
						"setApprovalForAll(address,bool)": "infinite",
						"supportsInterface(bytes4)": "754",
						"symbol()": "infinite",
						"tokenURI(uint256)": "2030",
						"transferFrom(address,address,uint256)": "infinite"
					},
					"internal": {
						"_leaf(address)": "infinite",
						"_verify(bytes32,bytes32[] memory)": "infinite"
					}
				},
				"methodIdentifiers": {
					"approve(address,uint256)": "095ea7b3",
					"balanceOf(address)": "70a08231",
					"getApproved(uint256)": "081812fc",
					"isApprovedForAll(address,address)": "e985e9c5",
					"mint(address,uint256,bytes32[])": "641ce140",
					"mintedAddress(address)": "630303c6",
					"name()": "06fdde03",
					"ownerOf(uint256)": "6352211e",
					"root()": "ebf0c717",
					"safeTransferFrom(address,address,uint256)": "42842e0e",
					"safeTransferFrom(address,address,uint256,bytes)": "b88d4fde",
					"setApprovalForAll(address,bool)": "a22cb465",
					"supportsInterface(bytes4)": "01ffc9a7",
					"symbol()": "95d89b41",
					"tokenURI(uint256)": "c87b56dd",
					"transferFrom(address,address,uint256)": "23b872dd"
				}
			},
			"storageLayout": {
				"storage": [
					{
						"astId": 39,
						"contract": "默克尔树/MerkleTree.sol:MerkleTree",
						"label": "name",
						"offset": 0,
						"slot": "0",
						"type": "t_string_storage"
					},
					{
						"astId": 42,
						"contract": "默克尔树/MerkleTree.sol:MerkleTree",
						"label": "symbol",
						"offset": 0,
						"slot": "1",
						"type": "t_string_storage"
					},
					{
						"astId": 46,
						"contract": "默克尔树/MerkleTree.sol:MerkleTree",
						"label": "_owners",
						"offset": 0,
						"slot": "2",
						"type": "t_mapping(t_uint256,t_address)"
					},
					{
						"astId": 50,
						"contract": "默克尔树/MerkleTree.sol:MerkleTree",
						"label": "_balances",
						"offset": 0,
						"slot": "3",
						"type": "t_mapping(t_address,t_uint256)"
					},
					{
						"astId": 54,
						"contract": "默克尔树/MerkleTree.sol:MerkleTree",
						"label": "_tokenApprovals",
						"offset": 0,
						"slot": "4",
						"type": "t_mapping(t_uint256,t_address)"
					},
					{
						"astId": 60,
						"contract": "默克尔树/MerkleTree.sol:MerkleTree",
						"label": "_operatorApprovals",
						"offset": 0,
						"slot": "5",
						"type": "t_mapping(t_address,t_mapping(t_address,t_bool))"
					},
					{
						"astId": 1170,
						"contract": "默克尔树/MerkleTree.sol:MerkleTree",
						"label": "mintedAddress",
						"offset": 0,
						"slot": "6",
						"type": "t_mapping(t_address,t_bool)"
					}
				],
				"types": {
					"t_address": {
						"encoding": "inplace",
						"label": "address",
						"numberOfBytes": "20"
					},
					"t_bool": {
						"encoding": "inplace",
						"label": "bool",
						"numberOfBytes": "1"
					},
					"t_mapping(t_address,t_bool)": {
						"encoding": "mapping",
						"key": "t_address",
						"label": "mapping(address => bool)",
						"numberOfBytes": "32",
						"value": "t_bool"
					},
					"t_mapping(t_address,t_mapping(t_address,t_bool))": {
						"encoding": "mapping",
						"key": "t_address",
						"label": "mapping(address => mapping(address => bool))",
						"numberOfBytes": "32",
						"value": "t_mapping(t_address,t_bool)"
					},
					"t_mapping(t_address,t_uint256)": {
						"encoding": "mapping",
						"key": "t_address",
						"label": "mapping(address => uint256)",
						"numberOfBytes": "32",
						"value": "t_uint256"
					},
					"t_mapping(t_uint256,t_address)": {
						"encoding": "mapping",
						"key": "t_uint256",
						"label": "mapping(uint256 => address)",
						"numberOfBytes": "32",
						"value": "t_address"
					},
					"t_string_storage": {
						"encoding": "bytes",
						"label": "string",
						"numberOfBytes": "32"
					},
					"t_uint256": {
						"encoding": "inplace",
						"label": "uint256",
						"numberOfBytes": "32"
					}
				}
			},
			"userdoc": {
				"kind": "user",
				"methods": {
					"safeTransferFrom(address,address,uint256,bytes)": {
						"notice": "实现IERC721的safeTransferFrom，安全转账，调用了_safeTransfer函数。"
					},
					"tokenURI(uint256)": {
						"notice": "实现IERC721Metadata的tokenURI函数，查询metadata。"
					}
				},
				"version": 1
			}
		}
	}
}