{
	"ERC721.sol": {
		"ERC721": {
			"abi": [
				{
					"inputs": [
						{
							"internalType": "string",
							"name": "name_",
							"type": "string"
						},
						{
							"internalType": "string",
							"name": "symbol_",
							"type": "string"
						}
					],
					"stateMutability": "nonpayable",
					"type": "constructor"
				},
				{
					"anonymous": false,
					"inputs": [
						{
							"indexed": true,
							"internalType": "address",
							"name": "owner",
							"type": "address"
						},
						{
							"indexed": true,
							"internalType": "address",
							"name": "approved",
							"type": "address"
						},
						{
							"indexed": true,
							"internalType": "uint256",
							"name": "tokenId",
							"type": "uint256"
						}
					],
					"name": "Approval",
					"type": "event"
				},
				{
					"anonymous": false,
					"inputs": [
						{
							"indexed": true,
							"internalType": "address",
							"name": "owner",
							"type": "address"
						},
						{
							"indexed": true,
							"internalType": "address",
							"name": "operator",
							"type": "address"
						},
						{
							"indexed": false,
							"internalType": "bool",
							"name": "approved",
							"type": "bool"
						}
					],
					"name": "ApprovalForAll",
					"type": "event"
				},
				{
					"anonymous": false,
					"inputs": [
						{
							"indexed": false,
							"internalType": "string",
							"name": "baseURI",
							"type": "string"
						}
					],
					"name": "BaseURIChanged",
					"type": "event"
				},
				{
					"anonymous": false,
					"inputs": [
						{
							"indexed": true,
							"internalType": "uint256",
							"name": "tokenId",
							"type": "uint256"
						},
						{
							"indexed": false,
							"internalType": "string",
							"name": "tokenURI",
							"type": "string"
						}
					],
					"name": "TokenURISet",
					"type": "event"
				},
				{
					"anonymous": false,
					"inputs": [
						{
							"indexed": true,
							"internalType": "address",
							"name": "from",
							"type": "address"
						},
						{
							"indexed": true,
							"internalType": "address",
							"name": "to",
							"type": "address"
						},
						{
							"indexed": true,
							"internalType": "uint256",
							"name": "tokenId",
							"type": "uint256"
						}
					],
					"name": "Transfer",
					"type": "event"
				},
				{
					"inputs": [
						{
							"internalType": "address",
							"name": "to",
							"type": "address"
						},
						{
							"internalType": "uint256",
							"name": "tokenId",
							"type": "uint256"
						}
					],
					"name": "approve",
					"outputs": [],
					"stateMutability": "nonpayable",
					"type": "function"
				},
				{
					"inputs": [
						{
							"internalType": "address",
							"name": "owner",
							"type": "address"
						}
					],
					"name": "balanceOf",
					"outputs": [
						{
							"internalType": "uint256",
							"name": "",
							"type": "uint256"
						}
					],
					"stateMutability": "view",
					"type": "function"
				},
				{
					"inputs": [
						{
							"internalType": "uint256",
							"name": "tokenId",
							"type": "uint256"
						}
					],
					"name": "getApproved",
					"outputs": [
						{
							"internalType": "address",
							"name": "",
							"type": "address"
						}
					],
					"stateMutability": "view",
					"type": "function"
				},
				{
					"inputs": [
						{
							"internalType": "address",
							"name": "owner",
							"type": "address"
						},
						{
							"internalType": "address",
							"name": "operator",
							"type": "address"
						}
					],
					"name": "isApprovedForAll",
					"outputs": [
						{
							"internalType": "bool",
							"name": "",
							"type": "bool"
						}
					],
					"stateMutability": "view",
					"type": "function"
				},
				{
					"inputs": [
						{
							"internalType": "address",
							"name": "to",
							"type": "address"
						},
						{
							"internalType": "string",
							"name": "tokenURI_",
							"type": "string"
						}
					],
					"name": "mint",
					"outputs": [],
					"stateMutability": "nonpayable",
					"type": "function"
				},
				{
					"inputs": [],
					"name": "name",
					"outputs": [
						{
							"internalType": "string",
							"name": "",
							"type": "string"
						}
					],
					"stateMutability": "view",
					"type": "function"
				},
				{
					"inputs": [
						{
							"internalType": "uint256",
							"name": "tokenId",
							"type": "uint256"
						}
					],
					"name": "ownerOf",
					"outputs": [
						{
							"internalType": "address",
							"name": "owner",
							"type": "address"
						}
					],
					"stateMutability": "view",
					"type": "function"
				},
				{
					"inputs": [
						{
							"internalType": "address",
							"name": "from",
							"type": "address"
						},
						{
							"internalType": "address",
							"name": "to",
							"type": "address"
						},
						{
							"internalType": "uint256",
							"name": "tokenId",
							"type": "uint256"
						}
					],
					"name": "safeTransferFrom",
					"outputs": [],
					"stateMutability": "nonpayable",
					"type": "function"
				},
				{
					"inputs": [
						{
							"internalType": "address",
							"name": "from",
							"type": "address"
						},
						{
							"internalType": "address",
							"name": "to",
							"type": "address"
						},
						{
							"internalType": "uint256",
							"name": "tokenId",
							"type": "uint256"
						},
						{
							"internalType": "bytes",
							"name": "_data",
							"type": "bytes"
						}
					],
					"name": "safeTransferFrom",
					"outputs": [],
					"stateMutability": "nonpayable",
					"type": "function"
				},
				{
					"inputs": [
						{
							"internalType": "address",
							"name": "operator",
							"type": "address"
						},
						{
							"internalType": "bool",
							"name": "approved",
							"type": "bool"
						}
					],
					"name": "setApprovalForAll",
					"outputs": [],
					"stateMutability": "nonpayable",
					"type": "function"
				},
				{
					"inputs": [
						{
							"internalType": "string",
							"name": "baseURI_",
							"type": "string"
						}
					],
					"name": "setBaseURI",
					"outputs": [],
					"stateMutability": "nonpayable",
					"type": "function"
				},
				{
					"inputs": [
						{
							"internalType": "uint256",
							"name": "tokenId",
							"type": "uint256"
						},
						{
							"internalType": "string",
							"name": "tokenURI_",
							"type": "string"
						}
					],
					"name": "setTokenURI",
					"outputs": [],
					"stateMutability": "nonpayable",
					"type": "function"
				},
				{
					"inputs": [
						{
							"internalType": "bytes4",
							"name": "interfaceId",
							"type": "bytes4"
						}
					],
					"name": "supportsInterface",
					"outputs": [
						{
							"internalType": "bool",
							"name": "",
							"type": "bool"
						}
					],
					"stateMutability": "pure",
					"type": "function"
				},
				{
					"inputs": [],
					"name": "symbol",
					"outputs": [
						{
							"internalType": "string",
							"name": "",
							"type": "string"
						}
					],
					"stateMutability": "view",
					"type": "function"
				},
				{
					"inputs": [
						{
							"internalType": "uint256",
							"name": "tokenId",
							"type": "uint256"
						}
					],
					"name": "tokenURI",
					"outputs": [
						{
							"internalType": "string",
							"name": "",
							"type": "string"
						}
					],
					"stateMutability": "view",
					"type": "function"
				},
				{
					"inputs": [
						{
							"internalType": "address",
							"name": "from",
							"type": "address"
						},
						{
							"internalType": "address",
							"name": "to",
							"type": "address"
						},
						{
							"internalType": "uint256",
							"name": "tokenId",
							"type": "uint256"
						}
					],
					"name": "transferFrom",
					"outputs": [],
					"stateMutability": "nonpayable",
					"type": "function"
				}
			],
			"devdoc": {
				"kind": "dev",
				"methods": {
					"supportsInterface(bytes4)": {
						"details": "如果合约实现了查询的`interfaceId`，则返回true 规则详见：https://eips.ethereum.org/EIPS/eip-165#how-interfaces-are-identified[EIP section]"
					}
				},
				"version": 1
			},
			"evm": {
				"assembly": "    /* \"ERC721.sol\":233:7712  contract ERC721 is IERC721, IERC721Metadata {... */\n  mstore(0x40, 0x80)\n    /* \"ERC721.sol\":781:782  1 */\n  0x01\n    /* \"ERC721.sol\":750:782  uint256 private _nextTokenId = 1 */\n  0x06\n  sstore\n    /* \"ERC721.sol\":1059:1173  constructor(string memory name_, string memory symbol_) {... */\n  callvalue\n  dup1\n  iszero\n  tag_1\n  jumpi\n  0x00\n  dup1\n  revert\ntag_1:\n  pop\n  mload(0x40)\n  sub(codesize, bytecodeSize)\n  dup1\n  bytecodeSize\n  dup4\n  codecopy\n  dup2\n  dup2\n  add\n  0x40\n  mstore\n  dup2\n  add\n  swap1\n  tag_2\n  swap2\n  swap1\n  tag_3\n  jump\t// in\ntag_2:\n    /* \"ERC721.sol\":1133:1138  name_ */\n  dup2\n    /* \"ERC721.sol\":1126:1130  name */\n  0x00\n    /* \"ERC721.sol\":1126:1138  name = name_ */\n  swap1\n  dup2\n  tag_6\n  swap2\n  swap1\n  tag_7\n  jump\t// in\ntag_6:\n  pop\n    /* \"ERC721.sol\":1158:1165  symbol_ */\n  dup1\n    /* \"ERC721.sol\":1149:1155  symbol */\n  0x01\n    /* \"ERC721.sol\":1149:1165  symbol = symbol_ */\n  swap1\n  dup2\n  tag_8\n  swap2\n  swap1\n  tag_7\n  jump\t// in\ntag_8:\n  pop\n    /* \"ERC721.sol\":1059:1173  constructor(string memory name_, string memory symbol_) {... */\n  pop\n  pop\n    /* \"ERC721.sol\":233:7712  contract ERC721 is IERC721, IERC721Metadata {... */\n  jump(tag_9)\n    /* \"#utility.yul\":7:82   */\ntag_10:\n    /* \"#utility.yul\":40:46   */\n  0x00\n    /* \"#utility.yul\":73:75   */\n  0x40\n    /* \"#utility.yul\":67:76   */\n  mload\n    /* \"#utility.yul\":57:76   */\n  swap1\n  pop\n    /* \"#utility.yul\":7:82   */\n  swap1\n  jump\t// out\n    /* \"#utility.yul\":88:205   */\ntag_11:\n    /* \"#utility.yul\":197:198   */\n  0x00\n    /* \"#utility.yul\":194:195   */\n  dup1\n    /* \"#utility.yul\":187:199   */\n  revert\n    /* \"#utility.yul\":211:328   */\ntag_12:\n    /* \"#utility.yul\":320:321   */\n  0x00\n    /* \"#utility.yul\":317:318   */\n  dup1\n    /* \"#utility.yul\":310:322   */\n  revert\n    /* \"#utility.yul\":334:451   */\ntag_13:\n    /* \"#utility.yul\":443:444   */\n  0x00\n    /* \"#utility.yul\":440:441   */\n  dup1\n    /* \"#utility.yul\":433:445   */\n  revert\n    /* \"#utility.yul\":457:574   */\ntag_14:\n    /* \"#utility.yul\":566:567   */\n  0x00\n    /* \"#utility.yul\":563:564   */\n  dup1\n    /* \"#utility.yul\":556:568   */\n  revert\n    /* \"#utility.yul\":580:682   */\ntag_15:\n    /* \"#utility.yul\":621:627   */\n  0x00\n    /* \"#utility.yul\":672:674   */\n  0x1f\n    /* \"#utility.yul\":668:675   */\n  not\n    /* \"#utility.yul\":663:665   */\n  0x1f\n    /* \"#utility.yul\":656:661   */\n  dup4\n    /* \"#utility.yul\":652:666   */\n  add\n    /* \"#utility.yul\":648:676   */\n  and\n    /* \"#utility.yul\":638:676   */\n  swap1\n  pop\n    /* \"#utility.yul\":580:682   */\n  swap2\n  swap1\n  pop\n  jump\t// out\n    /* \"#utility.yul\":688:868   */\ntag_16:\n    /* \"#utility.yul\":736:813   */\n  0x4e487b7100000000000000000000000000000000000000000000000000000000\n    /* \"#utility.yul\":733:734   */\n  0x00\n    /* \"#utility.yul\":726:814   */\n  mstore\n    /* \"#utility.yul\":833:837   */\n  0x41\n    /* \"#utility.yul\":830:831   */\n  0x04\n    /* \"#utility.yul\":823:838   */\n  mstore\n    /* \"#utility.yul\":857:861   */\n  0x24\n    /* \"#utility.yul\":854:855   */\n  0x00\n    /* \"#utility.yul\":847:862   */\n  revert\n    /* \"#utility.yul\":874:1155   */\ntag_17:\n    /* \"#utility.yul\":957:984   */\n  tag_51\n    /* \"#utility.yul\":979:983   */\n  dup3\n    /* \"#utility.yul\":957:984   */\n  tag_15\n  jump\t// in\ntag_51:\n    /* \"#utility.yul\":949:955   */\n  dup2\n    /* \"#utility.yul\":945:985   */\n  add\n    /* \"#utility.yul\":1087:1093   */\n  dup2\n    /* \"#utility.yul\":1075:1085   */\n  dup2\n    /* \"#utility.yul\":1072:1094   */\n  lt\n    /* \"#utility.yul\":1051:1069   */\n  0xffffffffffffffff\n    /* \"#utility.yul\":1039:1049   */\n  dup3\n    /* \"#utility.yul\":1036:1070   */\n  gt\n    /* \"#utility.yul\":1033:1095   */\n  or\n    /* \"#utility.yul\":1030:1118   */\n  iszero\n  tag_52\n  jumpi\n    /* \"#utility.yul\":1098:1116   */\n  tag_53\n  tag_16\n  jump\t// in\ntag_53:\n    /* \"#utility.yul\":1030:1118   */\ntag_52:\n    /* \"#utility.yul\":1138:1148   */\n  dup1\n    /* \"#utility.yul\":1134:1136   */\n  0x40\n    /* \"#utility.yul\":1127:1149   */\n  mstore\n    /* \"#utility.yul\":917:1155   */\n  pop\n    /* \"#utility.yul\":874:1155   */\n  pop\n  pop\n  jump\t// out\n    /* \"#utility.yul\":1161:1290   */\ntag_18:\n    /* \"#utility.yul\":1195:1201   */\n  0x00\n    /* \"#utility.yul\":1222:1242   */\n  tag_55\n  tag_10\n  jump\t// in\ntag_55:\n    /* \"#utility.yul\":1212:1242   */\n  swap1\n  pop\n    /* \"#utility.yul\":1251:1284   */\n  tag_56\n    /* \"#utility.yul\":1279:1283   */\n  dup3\n    /* \"#utility.yul\":1271:1277   */\n  dup3\n    /* \"#utility.yul\":1251:1284   */\n  tag_17\n  jump\t// in\ntag_56:\n    /* \"#utility.yul\":1161:1290   */\n  swap2\n  swap1\n  pop\n  jump\t// out\n    /* \"#utility.yul\":1296:1604   */\ntag_19:\n    /* \"#utility.yul\":1358:1362   */\n  0x00\n    /* \"#utility.yul\":1448:1466   */\n  0xffffffffffffffff\n    /* \"#utility.yul\":1440:1446   */\n  dup3\n    /* \"#utility.yul\":1437:1467   */\n  gt\n    /* \"#utility.yul\":1434:1490   */\n  iszero\n  tag_58\n  jumpi\n    /* \"#utility.yul\":1470:1488   */\n  tag_59\n  tag_16\n  jump\t// in\ntag_59:\n    /* \"#utility.yul\":1434:1490   */\ntag_58:\n    /* \"#utility.yul\":1508:1537   */\n  tag_60\n    /* \"#utility.yul\":1530:1536   */\n  dup3\n    /* \"#utility.yul\":1508:1537   */\n  tag_15\n  jump\t// in\ntag_60:\n    /* \"#utility.yul\":1500:1537   */\n  swap1\n  pop\n    /* \"#utility.yul\":1592:1596   */\n  0x20\n    /* \"#utility.yul\":1586:1590   */\n  dup2\n    /* \"#utility.yul\":1582:1597   */\n  add\n    /* \"#utility.yul\":1574:1597   */\n  swap1\n  pop\n    /* \"#utility.yul\":1296:1604   */\n  swap2\n  swap1\n  pop\n  jump\t// out\n    /* \"#utility.yul\":1610:1856   */\ntag_20:\n    /* \"#utility.yul\":1691:1692   */\n  0x00\n    /* \"#utility.yul\":1701:1814   */\ntag_62:\n    /* \"#utility.yul\":1715:1721   */\n  dup4\n    /* \"#utility.yul\":1712:1713   */\n  dup2\n    /* \"#utility.yul\":1709:1722   */\n  lt\n    /* \"#utility.yul\":1701:1814   */\n  iszero\n  tag_64\n  jumpi\n    /* \"#utility.yul\":1800:1801   */\n  dup1\n    /* \"#utility.yul\":1795:1798   */\n  dup3\n    /* \"#utility.yul\":1791:1802   */\n  add\n    /* \"#utility.yul\":1785:1803   */\n  mload\n    /* \"#utility.yul\":1781:1782   */\n  dup2\n    /* \"#utility.yul\":1776:1779   */\n  dup5\n    /* \"#utility.yul\":1772:1783   */\n  add\n    /* \"#utility.yul\":1765:1804   */\n  mstore\n    /* \"#utility.yul\":1737:1739   */\n  0x20\n    /* \"#utility.yul\":1734:1735   */\n  dup2\n    /* \"#utility.yul\":1730:1740   */\n  add\n    /* \"#utility.yul\":1725:1740   */\n  swap1\n  pop\n    /* \"#utility.yul\":1701:1814   */\n  jump(tag_62)\ntag_64:\n    /* \"#utility.yul\":1848:1849   */\n  0x00\n    /* \"#utility.yul\":1839:1845   */\n  dup5\n    /* \"#utility.yul\":1834:1837   */\n  dup5\n    /* \"#utility.yul\":1830:1846   */\n  add\n    /* \"#utility.yul\":1823:1850   */\n  mstore\n    /* \"#utility.yul\":1672:1856   */\n  pop\n    /* \"#utility.yul\":1610:1856   */\n  pop\n  pop\n  pop\n  jump\t// out\n    /* \"#utility.yul\":1862:2296   */\ntag_21:\n    /* \"#utility.yul\":1951:1956   */\n  0x00\n    /* \"#utility.yul\":1976:2042   */\n  tag_66\n    /* \"#utility.yul\":1992:2041   */\n  tag_67\n    /* \"#utility.yul\":2034:2040   */\n  dup5\n    /* \"#utility.yul\":1992:2041   */\n  tag_19\n  jump\t// in\ntag_67:\n    /* \"#utility.yul\":1976:2042   */\n  tag_18\n  jump\t// in\ntag_66:\n    /* \"#utility.yul\":1967:2042   */\n  swap1\n  pop\n    /* \"#utility.yul\":2065:2071   */\n  dup3\n    /* \"#utility.yul\":2058:2063   */\n  dup2\n    /* \"#utility.yul\":2051:2072   */\n  mstore\n    /* \"#utility.yul\":2103:2107   */\n  0x20\n    /* \"#utility.yul\":2096:2101   */\n  dup2\n    /* \"#utility.yul\":2092:2108   */\n  add\n    /* \"#utility.yul\":2141:2144   */\n  dup5\n    /* \"#utility.yul\":2132:2138   */\n  dup5\n    /* \"#utility.yul\":2127:2130   */\n  dup5\n    /* \"#utility.yul\":2123:2139   */\n  add\n    /* \"#utility.yul\":2120:2145   */\n  gt\n    /* \"#utility.yul\":2117:2229   */\n  iszero\n  tag_68\n  jumpi\n    /* \"#utility.yul\":2148:2227   */\n  tag_69\n  tag_14\n  jump\t// in\ntag_69:\n    /* \"#utility.yul\":2117:2229   */\ntag_68:\n    /* \"#utility.yul\":2238:2290   */\n  tag_70\n    /* \"#utility.yul\":2283:2289   */\n  dup5\n    /* \"#utility.yul\":2278:2281   */\n  dup3\n    /* \"#utility.yul\":2273:2276   */\n  dup6\n    /* \"#utility.yul\":2238:2290   */\n  tag_20\n  jump\t// in\ntag_70:\n    /* \"#utility.yul\":1957:2296   */\n  pop\n    /* \"#utility.yul\":1862:2296   */\n  swap4\n  swap3\n  pop\n  pop\n  pop\n  jump\t// out\n    /* \"#utility.yul\":2316:2671   */\ntag_22:\n    /* \"#utility.yul\":2383:2388   */\n  0x00\n    /* \"#utility.yul\":2432:2435   */\n  dup3\n    /* \"#utility.yul\":2425:2429   */\n  0x1f\n    /* \"#utility.yul\":2417:2423   */\n  dup4\n    /* \"#utility.yul\":2413:2430   */\n  add\n    /* \"#utility.yul\":2409:2436   */\n  slt\n    /* \"#utility.yul\":2399:2521   */\n  tag_72\n  jumpi\n    /* \"#utility.yul\":2440:2519   */\n  tag_73\n  tag_13\n  jump\t// in\ntag_73:\n    /* \"#utility.yul\":2399:2521   */\ntag_72:\n    /* \"#utility.yul\":2550:2556   */\n  dup2\n    /* \"#utility.yul\":2544:2557   */\n  mload\n    /* \"#utility.yul\":2575:2665   */\n  tag_74\n    /* \"#utility.yul\":2661:2664   */\n  dup5\n    /* \"#utility.yul\":2653:2659   */\n  dup3\n    /* \"#utility.yul\":2646:2650   */\n  0x20\n    /* \"#utility.yul\":2638:2644   */\n  dup7\n    /* \"#utility.yul\":2634:2651   */\n  add\n    /* \"#utility.yul\":2575:2665   */\n  tag_21\n  jump\t// in\ntag_74:\n    /* \"#utility.yul\":2566:2665   */\n  swap2\n  pop\n    /* \"#utility.yul\":2389:2671   */\n  pop\n    /* \"#utility.yul\":2316:2671   */\n  swap3\n  swap2\n  pop\n  pop\n  jump\t// out\n    /* \"#utility.yul\":2677:3530   */\ntag_3:\n    /* \"#utility.yul\":2776:2782   */\n  0x00\n    /* \"#utility.yul\":2784:2790   */\n  dup1\n    /* \"#utility.yul\":2833:2835   */\n  0x40\n    /* \"#utility.yul\":2821:2830   */\n  dup4\n    /* \"#utility.yul\":2812:2819   */\n  dup6\n    /* \"#utility.yul\":2808:2831   */\n  sub\n    /* \"#utility.yul\":2804:2836   */\n  slt\n    /* \"#utility.yul\":2801:2920   */\n  iszero\n  tag_76\n  jumpi\n    /* \"#utility.yul\":2839:2918   */\n  tag_77\n  tag_11\n  jump\t// in\ntag_77:\n    /* \"#utility.yul\":2801:2920   */\ntag_76:\n    /* \"#utility.yul\":2980:2981   */\n  0x00\n    /* \"#utility.yul\":2969:2978   */\n  dup4\n    /* \"#utility.yul\":2965:2982   */\n  add\n    /* \"#utility.yul\":2959:2983   */\n  mload\n    /* \"#utility.yul\":3010:3028   */\n  0xffffffffffffffff\n    /* \"#utility.yul\":3002:3008   */\n  dup2\n    /* \"#utility.yul\":2999:3029   */\n  gt\n    /* \"#utility.yul\":2996:3113   */\n  iszero\n  tag_78\n  jumpi\n    /* \"#utility.yul\":3032:3111   */\n  tag_79\n  tag_12\n  jump\t// in\ntag_79:\n    /* \"#utility.yul\":2996:3113   */\ntag_78:\n    /* \"#utility.yul\":3137:3211   */\n  tag_80\n    /* \"#utility.yul\":3203:3210   */\n  dup6\n    /* \"#utility.yul\":3194:3200   */\n  dup3\n    /* \"#utility.yul\":3183:3192   */\n  dup7\n    /* \"#utility.yul\":3179:3201   */\n  add\n    /* \"#utility.yul\":3137:3211   */\n  tag_22\n  jump\t// in\ntag_80:\n    /* \"#utility.yul\":3127:3211   */\n  swap3\n  pop\n    /* \"#utility.yul\":2930:3221   */\n  pop\n    /* \"#utility.yul\":3281:3283   */\n  0x20\n    /* \"#utility.yul\":3270:3279   */\n  dup4\n    /* \"#utility.yul\":3266:3284   */\n  add\n    /* \"#utility.yul\":3260:3285   */\n  mload\n    /* \"#utility.yul\":3312:3330   */\n  0xffffffffffffffff\n    /* \"#utility.yul\":3304:3310   */\n  dup2\n    /* \"#utility.yul\":3301:3331   */\n  gt\n    /* \"#utility.yul\":3298:3415   */\n  iszero\n  tag_81\n  jumpi\n    /* \"#utility.yul\":3334:3413   */\n  tag_82\n  tag_12\n  jump\t// in\ntag_82:\n    /* \"#utility.yul\":3298:3415   */\ntag_81:\n    /* \"#utility.yul\":3439:3513   */\n  tag_83\n    /* \"#utility.yul\":3505:3512   */\n  dup6\n    /* \"#utility.yul\":3496:3502   */\n  dup3\n    /* \"#utility.yul\":3485:3494   */\n  dup7\n    /* \"#utility.yul\":3481:3503   */\n  add\n    /* \"#utility.yul\":3439:3513   */\n  tag_22\n  jump\t// in\ntag_83:\n    /* \"#utility.yul\":3429:3513   */\n  swap2\n  pop\n    /* \"#utility.yul\":3231:3523   */\n  pop\n    /* \"#utility.yul\":2677:3530   */\n  swap3\n  pop\n  swap3\n  swap1\n  pop\n  jump\t// out\n    /* \"#utility.yul\":3536:3635   */\ntag_23:\n    /* \"#utility.yul\":3588:3594   */\n  0x00\n    /* \"#utility.yul\":3622:3627   */\n  dup2\n    /* \"#utility.yul\":3616:3628   */\n  mload\n    /* \"#utility.yul\":3606:3628   */\n  swap1\n  pop\n    /* \"#utility.yul\":3536:3635   */\n  swap2\n  swap1\n  pop\n  jump\t// out\n    /* \"#utility.yul\":3641:3821   */\ntag_24:\n    /* \"#utility.yul\":3689:3766   */\n  0x4e487b7100000000000000000000000000000000000000000000000000000000\n    /* \"#utility.yul\":3686:3687   */\n  0x00\n    /* \"#utility.yul\":3679:3767   */\n  mstore\n    /* \"#utility.yul\":3786:3790   */\n  0x22\n    /* \"#utility.yul\":3783:3784   */\n  0x04\n    /* \"#utility.yul\":3776:3791   */\n  mstore\n    /* \"#utility.yul\":3810:3814   */\n  0x24\n    /* \"#utility.yul\":3807:3808   */\n  0x00\n    /* \"#utility.yul\":3800:3815   */\n  revert\n    /* \"#utility.yul\":3827:4147   */\ntag_25:\n    /* \"#utility.yul\":3871:3877   */\n  0x00\n    /* \"#utility.yul\":3908:3909   */\n  0x02\n    /* \"#utility.yul\":3902:3906   */\n  dup3\n    /* \"#utility.yul\":3898:3910   */\n  div\n    /* \"#utility.yul\":3888:3910   */\n  swap1\n  pop\n    /* \"#utility.yul\":3955:3956   */\n  0x01\n    /* \"#utility.yul\":3949:3953   */\n  dup3\n    /* \"#utility.yul\":3945:3957   */\n  and\n    /* \"#utility.yul\":3976:3994   */\n  dup1\n    /* \"#utility.yul\":3966:4047   */\n  tag_87\n  jumpi\n    /* \"#utility.yul\":4032:4036   */\n  0x7f\n    /* \"#utility.yul\":4024:4030   */\n  dup3\n    /* \"#utility.yul\":4020:4037   */\n  and\n    /* \"#utility.yul\":4010:4037   */\n  swap2\n  pop\n    /* \"#utility.yul\":3966:4047   */\ntag_87:\n    /* \"#utility.yul\":4094:4096   */\n  0x20\n    /* \"#utility.yul\":4086:4092   */\n  dup3\n    /* \"#utility.yul\":4083:4097   */\n  lt\n    /* \"#utility.yul\":4063:4081   */\n  dup2\n    /* \"#utility.yul\":4060:4098   */\n  sub\n    /* \"#utility.yul\":4057:4141   */\n  tag_88\n  jumpi\n    /* \"#utility.yul\":4113:4131   */\n  tag_89\n  tag_24\n  jump\t// in\ntag_89:\n    /* \"#utility.yul\":4057:4141   */\ntag_88:\n    /* \"#utility.yul\":3878:4147   */\n  pop\n    /* \"#utility.yul\":3827:4147   */\n  swap2\n  swap1\n  pop\n  jump\t// out\n    /* \"#utility.yul\":4153:4294   */\ntag_26:\n    /* \"#utility.yul\":4202:4206   */\n  0x00\n    /* \"#utility.yul\":4225:4228   */\n  dup2\n    /* \"#utility.yul\":4217:4228   */\n  swap1\n  pop\n    /* \"#utility.yul\":4248:4251   */\n  dup2\n    /* \"#utility.yul\":4245:4246   */\n  0x00\n    /* \"#utility.yul\":4238:4252   */\n  mstore\n    /* \"#utility.yul\":4282:4286   */\n  0x20\n    /* \"#utility.yul\":4279:4280   */\n  0x00\n    /* \"#utility.yul\":4269:4287   */\n  keccak256\n    /* \"#utility.yul\":4261:4287   */\n  swap1\n  pop\n    /* \"#utility.yul\":4153:4294   */\n  swap2\n  swap1\n  pop\n  jump\t// out\n    /* \"#utility.yul\":4300:4393   */\ntag_27:\n    /* \"#utility.yul\":4337:4343   */\n  0x00\n    /* \"#utility.yul\":4384:4386   */\n  0x20\n    /* \"#utility.yul\":4379:4381   */\n  0x1f\n    /* \"#utility.yul\":4372:4377   */\n  dup4\n    /* \"#utility.yul\":4368:4382   */\n  add\n    /* \"#utility.yul\":4364:4387   */\n  div\n    /* \"#utility.yul\":4354:4387   */\n  swap1\n  pop\n    /* \"#utility.yul\":4300:4393   */\n  swap2\n  swap1\n  pop\n  jump\t// out\n    /* \"#utility.yul\":4399:4506   */\ntag_28:\n    /* \"#utility.yul\":4443:4451   */\n  0x00\n    /* \"#utility.yul\":4493:4498   */\n  dup3\n    /* \"#utility.yul\":4487:4491   */\n  dup3\n    /* \"#utility.yul\":4483:4499   */\n  shl\n    /* \"#utility.yul\":4462:4499   */\n  swap1\n  pop\n    /* \"#utility.yul\":4399:4506   */\n  swap3\n  swap2\n  pop\n  pop\n  jump\t// out\n    /* \"#utility.yul\":4512:4905   */\ntag_29:\n    /* \"#utility.yul\":4581:4587   */\n  0x00\n    /* \"#utility.yul\":4631:4632   */\n  0x08\n    /* \"#utility.yul\":4619:4629   */\n  dup4\n    /* \"#utility.yul\":4615:4633   */\n  mul\n    /* \"#utility.yul\":4654:4751   */\n  tag_94\n    /* \"#utility.yul\":4684:4750   */\n  0xffffffffffffffffffffffffffffffffffffffffffffffffffffffffffffffff\n    /* \"#utility.yul\":4673:4682   */\n  dup3\n    /* \"#utility.yul\":4654:4751   */\n  tag_28\n  jump\t// in\ntag_94:\n    /* \"#utility.yul\":4772:4811   */\n  tag_95\n    /* \"#utility.yul\":4802:4810   */\n  dup7\n    /* \"#utility.yul\":4791:4800   */\n  dup4\n    /* \"#utility.yul\":4772:4811   */\n  tag_28\n  jump\t// in\ntag_95:\n    /* \"#utility.yul\":4760:4811   */\n  swap6\n  pop\n    /* \"#utility.yul\":4844:4848   */\n  dup1\n    /* \"#utility.yul\":4840:4849   */\n  not\n    /* \"#utility.yul\":4833:4838   */\n  dup5\n    /* \"#utility.yul\":4829:4850   */\n  and\n    /* \"#utility.yul\":4820:4850   */\n  swap4\n  pop\n    /* \"#utility.yul\":4893:4897   */\n  dup1\n    /* \"#utility.yul\":4883:4891   */\n  dup7\n    /* \"#utility.yul\":4879:4898   */\n  and\n    /* \"#utility.yul\":4872:4877   */\n  dup5\n    /* \"#utility.yul\":4869:4899   */\n  or\n    /* \"#utility.yul\":4859:4899   */\n  swap3\n  pop\n    /* \"#utility.yul\":4588:4905   */\n  pop\n  pop\n    /* \"#utility.yul\":4512:4905   */\n  swap4\n  swap3\n  pop\n  pop\n  pop\n  jump\t// out\n    /* \"#utility.yul\":4911:4988   */\ntag_30:\n    /* \"#utility.yul\":4948:4955   */\n  0x00\n    /* \"#utility.yul\":4977:4982   */\n  dup2\n    /* \"#utility.yul\":4966:4982   */\n  swap1\n  pop\n    /* \"#utility.yul\":4911:4988   */\n  swap2\n  swap1\n  pop\n  jump\t// out\n    /* \"#utility.yul\":4994:5054   */\ntag_31:\n    /* \"#utility.yul\":5022:5025   */\n  0x00\n    /* \"#utility.yul\":5043:5048   */\n  dup2\n    /* \"#utility.yul\":5036:5048   */\n  swap1\n  pop\n    /* \"#utility.yul\":4994:5054   */\n  swap2\n  swap1\n  pop\n  jump\t// out\n    /* \"#utility.yul\":5060:5202   */\ntag_32:\n    /* \"#utility.yul\":5110:5119   */\n  0x00\n    /* \"#utility.yul\":5143:5196   */\n  tag_99\n    /* \"#utility.yul\":5161:5195   */\n  tag_100\n    /* \"#utility.yul\":5170:5194   */\n  tag_101\n    /* \"#utility.yul\":5188:5193   */\n  dup5\n    /* \"#utility.yul\":5170:5194   */\n  tag_30\n  jump\t// in\ntag_101:\n    /* \"#utility.yul\":5161:5195   */\n  tag_31\n  jump\t// in\ntag_100:\n    /* \"#utility.yul\":5143:5196   */\n  tag_30\n  jump\t// in\ntag_99:\n    /* \"#utility.yul\":5130:5196   */\n  swap1\n  pop\n    /* \"#utility.yul\":5060:5202   */\n  swap2\n  swap1\n  pop\n  jump\t// out\n    /* \"#utility.yul\":5208:5283   */\ntag_33:\n    /* \"#utility.yul\":5251:5254   */\n  0x00\n    /* \"#utility.yul\":5272:5277   */\n  dup2\n    /* \"#utility.yul\":5265:5277   */\n  swap1\n  pop\n    /* \"#utility.yul\":5208:5283   */\n  swap2\n  swap1\n  pop\n  jump\t// out\n    /* \"#utility.yul\":5289:5558   */\ntag_34:\n    /* \"#utility.yul\":5399:5438   */\n  tag_104\n    /* \"#utility.yul\":5430:5437   */\n  dup4\n    /* \"#utility.yul\":5399:5438   */\n  tag_32\n  jump\t// in\ntag_104:\n    /* \"#utility.yul\":5460:5551   */\n  tag_105\n    /* \"#utility.yul\":5509:5550   */\n  tag_106\n    /* \"#utility.yul\":5533:5549   */\n  dup3\n    /* \"#utility.yul\":5509:5550   */\n  tag_33\n  jump\t// in\ntag_106:\n    /* \"#utility.yul\":5501:5507   */\n  dup5\n    /* \"#utility.yul\":5494:5498   */\n  dup5\n    /* \"#utility.yul\":5488:5499   */\n  sload\n    /* \"#utility.yul\":5460:5551   */\n  tag_29\n  jump\t// in\ntag_105:\n    /* \"#utility.yul\":5454:5458   */\n  dup3\n    /* \"#utility.yul\":5447:5552   */\n  sstore\n    /* \"#utility.yul\":5365:5558   */\n  pop\n    /* \"#utility.yul\":5289:5558   */\n  pop\n  pop\n  pop\n  jump\t// out\n    /* \"#utility.yul\":5564:5637   */\ntag_35:\n    /* \"#utility.yul\":5609:5612   */\n  0x00\n    /* \"#utility.yul\":5564:5637   */\n  swap1\n  jump\t// out\n    /* \"#utility.yul\":5643:5832   */\ntag_36:\n    /* \"#utility.yul\":5720:5752   */\n  tag_109\n  tag_35\n  jump\t// in\ntag_109:\n    /* \"#utility.yul\":5761:5826   */\n  tag_110\n    /* \"#utility.yul\":5819:5825   */\n  dup2\n    /* \"#utility.yul\":5811:5817   */\n  dup5\n    /* \"#utility.yul\":5805:5809   */\n  dup5\n    /* \"#utility.yul\":5761:5826   */\n  tag_34\n  jump\t// in\ntag_110:\n    /* \"#utility.yul\":5696:5832   */\n  pop\n    /* \"#utility.yul\":5643:5832   */\n  pop\n  pop\n  jump\t// out\n    /* \"#utility.yul\":5838:6024   */\ntag_37:\n    /* \"#utility.yul\":5898:6018   */\ntag_112:\n    /* \"#utility.yul\":5915:5918   */\n  dup2\n    /* \"#utility.yul\":5908:5913   */\n  dup2\n    /* \"#utility.yul\":5905:5919   */\n  lt\n    /* \"#utility.yul\":5898:6018   */\n  iszero\n  tag_114\n  jumpi\n    /* \"#utility.yul\":5969:6008   */\n  tag_115\n    /* \"#utility.yul\":6006:6007   */\n  0x00\n    /* \"#utility.yul\":5999:6004   */\n  dup3\n    /* \"#utility.yul\":5969:6008   */\n  tag_36\n  jump\t// in\ntag_115:\n    /* \"#utility.yul\":5942:5943   */\n  0x01\n    /* \"#utility.yul\":5935:5940   */\n  dup2\n    /* \"#utility.yul\":5931:5944   */\n  add\n    /* \"#utility.yul\":5922:5944   */\n  swap1\n  pop\n    /* \"#utility.yul\":5898:6018   */\n  jump(tag_112)\ntag_114:\n    /* \"#utility.yul\":5838:6024   */\n  pop\n  pop\n  jump\t// out\n    /* \"#utility.yul\":6030:6573   */\ntag_38:\n    /* \"#utility.yul\":6131:6133   */\n  0x1f\n    /* \"#utility.yul\":6126:6129   */\n  dup3\n    /* \"#utility.yul\":6123:6134   */\n  gt\n    /* \"#utility.yul\":6120:6566   */\n  iszero\n  tag_117\n  jumpi\n    /* \"#utility.yul\":6165:6203   */\n  tag_118\n    /* \"#utility.yul\":6197:6202   */\n  dup2\n    /* \"#utility.yul\":6165:6203   */\n  tag_26\n  jump\t// in\ntag_118:\n    /* \"#utility.yul\":6249:6278   */\n  tag_119\n    /* \"#utility.yul\":6267:6277   */\n  dup5\n    /* \"#utility.yul\":6249:6278   */\n  tag_27\n  jump\t// in\ntag_119:\n    /* \"#utility.yul\":6239:6247   */\n  dup2\n    /* \"#utility.yul\":6235:6279   */\n  add\n    /* \"#utility.yul\":6432:6434   */\n  0x20\n    /* \"#utility.yul\":6420:6430   */\n  dup6\n    /* \"#utility.yul\":6417:6435   */\n  lt\n    /* \"#utility.yul\":6414:6463   */\n  iszero\n  tag_120\n  jumpi\n    /* \"#utility.yul\":6453:6461   */\n  dup2\n    /* \"#utility.yul\":6438:6461   */\n  swap1\n  pop\n    /* \"#utility.yul\":6414:6463   */\ntag_120:\n    /* \"#utility.yul\":6476:6556   */\n  tag_121\n    /* \"#utility.yul\":6532:6554   */\n  tag_122\n    /* \"#utility.yul\":6550:6553   */\n  dup6\n    /* \"#utility.yul\":6532:6554   */\n  tag_27\n  jump\t// in\ntag_122:\n    /* \"#utility.yul\":6522:6530   */\n  dup4\n    /* \"#utility.yul\":6518:6555   */\n  add\n    /* \"#utility.yul\":6505:6516   */\n  dup3\n    /* \"#utility.yul\":6476:6556   */\n  tag_37\n  jump\t// in\ntag_121:\n    /* \"#utility.yul\":6135:6566   */\n  pop\n  pop\n    /* \"#utility.yul\":6120:6566   */\ntag_117:\n    /* \"#utility.yul\":6030:6573   */\n  pop\n  pop\n  pop\n  jump\t// out\n    /* \"#utility.yul\":6579:6696   */\ntag_39:\n    /* \"#utility.yul\":6633:6641   */\n  0x00\n    /* \"#utility.yul\":6683:6688   */\n  dup3\n    /* \"#utility.yul\":6677:6681   */\n  dup3\n    /* \"#utility.yul\":6673:6689   */\n  shr\n    /* \"#utility.yul\":6652:6689   */\n  swap1\n  pop\n    /* \"#utility.yul\":6579:6696   */\n  swap3\n  swap2\n  pop\n  pop\n  jump\t// out\n    /* \"#utility.yul\":6702:6871   */\ntag_40:\n    /* \"#utility.yul\":6746:6752   */\n  0x00\n    /* \"#utility.yul\":6779:6830   */\n  tag_125\n    /* \"#utility.yul\":6827:6828   */\n  0x00\n    /* \"#utility.yul\":6823:6829   */\n  not\n    /* \"#utility.yul\":6815:6820   */\n  dup5\n    /* \"#utility.yul\":6812:6813   */\n  0x08\n    /* \"#utility.yul\":6808:6821   */\n  mul\n    /* \"#utility.yul\":6779:6830   */\n  tag_39\n  jump\t// in\ntag_125:\n    /* \"#utility.yul\":6775:6831   */\n  not\n    /* \"#utility.yul\":6860:6864   */\n  dup1\n    /* \"#utility.yul\":6854:6858   */\n  dup4\n    /* \"#utility.yul\":6850:6865   */\n  and\n    /* \"#utility.yul\":6840:6865   */\n  swap2\n  pop\n    /* \"#utility.yul\":6753:6871   */\n  pop\n    /* \"#utility.yul\":6702:6871   */\n  swap3\n  swap2\n  pop\n  pop\n  jump\t// out\n    /* \"#utility.yul\":6876:7171   */\ntag_41:\n    /* \"#utility.yul\":6952:6956   */\n  0x00\n    /* \"#utility.yul\":7098:7127   */\n  tag_127\n    /* \"#utility.yul\":7123:7126   */\n  dup4\n    /* \"#utility.yul\":7117:7121   */\n  dup4\n    /* \"#utility.yul\":7098:7127   */\n  tag_40\n  jump\t// in\ntag_127:\n    /* \"#utility.yul\":7090:7127   */\n  swap2\n  pop\n    /* \"#utility.yul\":7160:7163   */\n  dup3\n    /* \"#utility.yul\":7157:7158   */\n  0x02\n    /* \"#utility.yul\":7153:7164   */\n  mul\n    /* \"#utility.yul\":7147:7151   */\n  dup3\n    /* \"#utility.yul\":7144:7165   */\n  or\n    /* \"#utility.yul\":7136:7165   */\n  swap1\n  pop\n    /* \"#utility.yul\":6876:7171   */\n  swap3\n  swap2\n  pop\n  pop\n  jump\t// out\n    /* \"#utility.yul\":7176:8571   */\ntag_7:\n    /* \"#utility.yul\":7293:7330   */\n  tag_129\n    /* \"#utility.yul\":7326:7329   */\n  dup3\n    /* \"#utility.yul\":7293:7330   */\n  tag_23\n  jump\t// in\ntag_129:\n    /* \"#utility.yul\":7395:7413   */\n  0xffffffffffffffff\n    /* \"#utility.yul\":7387:7393   */\n  dup2\n    /* \"#utility.yul\":7384:7414   */\n  gt\n    /* \"#utility.yul\":7381:7437   */\n  iszero\n  tag_130\n  jumpi\n    /* \"#utility.yul\":7417:7435   */\n  tag_131\n  tag_16\n  jump\t// in\ntag_131:\n    /* \"#utility.yul\":7381:7437   */\ntag_130:\n    /* \"#utility.yul\":7461:7499   */\n  tag_132\n    /* \"#utility.yul\":7493:7497   */\n  dup3\n    /* \"#utility.yul\":7487:7498   */\n  sload\n    /* \"#utility.yul\":7461:7499   */\n  tag_25\n  jump\t// in\ntag_132:\n    /* \"#utility.yul\":7546:7613   */\n  tag_133\n    /* \"#utility.yul\":7606:7612   */\n  dup3\n    /* \"#utility.yul\":7598:7604   */\n  dup3\n    /* \"#utility.yul\":7592:7596   */\n  dup6\n    /* \"#utility.yul\":7546:7613   */\n  tag_38\n  jump\t// in\ntag_133:\n    /* \"#utility.yul\":7640:7641   */\n  0x00\n    /* \"#utility.yul\":7664:7668   */\n  0x20\n    /* \"#utility.yul\":7651:7668   */\n  swap1\n  pop\n    /* \"#utility.yul\":7696:7698   */\n  0x1f\n    /* \"#utility.yul\":7688:7694   */\n  dup4\n    /* \"#utility.yul\":7685:7699   */\n  gt\n    /* \"#utility.yul\":7713:7714   */\n  0x01\n    /* \"#utility.yul\":7708:8326   */\n  dup2\n  eq\n  tag_135\n  jumpi\n    /* \"#utility.yul\":8370:8371   */\n  0x00\n    /* \"#utility.yul\":8387:8393   */\n  dup5\n    /* \"#utility.yul\":8384:8461   */\n  iszero\n  tag_136\n  jumpi\n    /* \"#utility.yul\":8436:8445   */\n  dup3\n    /* \"#utility.yul\":8431:8434   */\n  dup8\n    /* \"#utility.yul\":8427:8446   */\n  add\n    /* \"#utility.yul\":8421:8447   */\n  mload\n    /* \"#utility.yul\":8412:8447   */\n  swap1\n  pop\n    /* \"#utility.yul\":8384:8461   */\ntag_136:\n    /* \"#utility.yul\":8487:8554   */\n  tag_137\n    /* \"#utility.yul\":8547:8553   */\n  dup6\n    /* \"#utility.yul\":8540:8545   */\n  dup3\n    /* \"#utility.yul\":8487:8554   */\n  tag_41\n  jump\t// in\ntag_137:\n    /* \"#utility.yul\":8481:8485   */\n  dup7\n    /* \"#utility.yul\":8474:8555   */\n  sstore\n    /* \"#utility.yul\":8343:8565   */\n  pop\n    /* \"#utility.yul\":7678:8565   */\n  jump(tag_134)\n    /* \"#utility.yul\":7708:8326   */\ntag_135:\n    /* \"#utility.yul\":7760:7764   */\n  0x1f\n    /* \"#utility.yul\":7756:7765   */\n  not\n    /* \"#utility.yul\":7748:7754   */\n  dup5\n    /* \"#utility.yul\":7744:7766   */\n  and\n    /* \"#utility.yul\":7794:7831   */\n  tag_138\n    /* \"#utility.yul\":7826:7830   */\n  dup7\n    /* \"#utility.yul\":7794:7831   */\n  tag_26\n  jump\t// in\ntag_138:\n    /* \"#utility.yul\":7853:7854   */\n  0x00\n    /* \"#utility.yul\":7867:8075   */\ntag_139:\n    /* \"#utility.yul\":7881:7888   */\n  dup3\n    /* \"#utility.yul\":7878:7879   */\n  dup2\n    /* \"#utility.yul\":7875:7889   */\n  lt\n    /* \"#utility.yul\":7867:8075   */\n  iszero\n  tag_141\n  jumpi\n    /* \"#utility.yul\":7960:7969   */\n  dup5\n    /* \"#utility.yul\":7955:7958   */\n  dup10\n    /* \"#utility.yul\":7951:7970   */\n  add\n    /* \"#utility.yul\":7945:7971   */\n  mload\n    /* \"#utility.yul\":7937:7943   */\n  dup3\n    /* \"#utility.yul\":7930:7972   */\n  sstore\n    /* \"#utility.yul\":8011:8012   */\n  0x01\n    /* \"#utility.yul\":8003:8009   */\n  dup3\n    /* \"#utility.yul\":7999:8013   */\n  add\n    /* \"#utility.yul\":7989:8013   */\n  swap2\n  pop\n    /* \"#utility.yul\":8058:8060   */\n  0x20\n    /* \"#utility.yul\":8047:8056   */\n  dup6\n    /* \"#utility.yul\":8043:8061   */\n  add\n    /* \"#utility.yul\":8030:8061   */\n  swap5\n  pop\n    /* \"#utility.yul\":7904:7908   */\n  0x20\n    /* \"#utility.yul\":7901:7902   */\n  dup2\n    /* \"#utility.yul\":7897:7909   */\n  add\n    /* \"#utility.yul\":7892:7909   */\n  swap1\n  pop\n    /* \"#utility.yul\":7867:8075   */\n  jump(tag_139)\ntag_141:\n    /* \"#utility.yul\":8103:8109   */\n  dup7\n    /* \"#utility.yul\":8094:8101   */\n  dup4\n    /* \"#utility.yul\":8091:8110   */\n  lt\n    /* \"#utility.yul\":8088:8267   */\n  iszero\n  tag_142\n  jumpi\n    /* \"#utility.yul\":8161:8170   */\n  dup5\n    /* \"#utility.yul\":8156:8159   */\n  dup10\n    /* \"#utility.yul\":8152:8171   */\n  add\n    /* \"#utility.yul\":8146:8172   */\n  mload\n    /* \"#utility.yul\":8204:8252   */\n  tag_143\n    /* \"#utility.yul\":8246:8250   */\n  0x1f\n    /* \"#utility.yul\":8238:8244   */\n  dup10\n    /* \"#utility.yul\":8234:8251   */\n  and\n    /* \"#utility.yul\":8223:8232   */\n  dup3\n    /* \"#utility.yul\":8204:8252   */\n  tag_40\n  jump\t// in\ntag_143:\n    /* \"#utility.yul\":8196:8202   */\n  dup4\n    /* \"#utility.yul\":8189:8253   */\n  sstore\n    /* \"#utility.yul\":8111:8267   */\n  pop\n    /* \"#utility.yul\":8088:8267   */\ntag_142:\n    /* \"#utility.yul\":8313:8314   */\n  0x01\n    /* \"#utility.yul\":8309:8310   */\n  0x02\n    /* \"#utility.yul\":8301:8307   */\n  dup9\n    /* \"#utility.yul\":8297:8311   */\n  mul\n    /* \"#utility.yul\":8293:8315   */\n  add\n    /* \"#utility.yul\":8287:8291   */\n  dup9\n    /* \"#utility.yul\":8280:8316   */\n  sstore\n    /* \"#utility.yul\":7715:8326   */\n  pop\n  pop\n  pop\n    /* \"#utility.yul\":7678:8565   */\ntag_134:\n  pop\n    /* \"#utility.yul\":7268:8571   */\n  pop\n  pop\n  pop\n    /* \"#utility.yul\":7176:8571   */\n  pop\n  pop\n  jump\t// out\n    /* \"ERC721.sol\":233:7712  contract ERC721 is IERC721, IERC721Metadata {... */\ntag_9:\n  dataSize(sub_0)\n  dup1\n  dataOffset(sub_0)\n  0x00\n  codecopy\n  0x00\n  return\nstop\n\nsub_0: assembly {\n        /* \"ERC721.sol\":233:7712  contract ERC721 is IERC721, IERC721Metadata {... */\n      mstore(0x40, 0x80)\n      callvalue\n      dup1\n      iszero\n      tag_1\n      jumpi\n      0x00\n      dup1\n      revert\n    tag_1:\n      pop\n      jumpi(tag_2, lt(calldatasize, 0x04))\n      shr(0xe0, calldataload(0x00))\n      dup1\n      0x6352211e\n      gt\n      tag_19\n      jumpi\n      dup1\n      0xb88d4fde\n      gt\n      tag_20\n      jumpi\n      dup1\n      0xb88d4fde\n      eq\n      tag_15\n      jumpi\n      dup1\n      0xc87b56dd\n      eq\n      tag_16\n      jumpi\n      dup1\n      0xd0def521\n      eq\n      tag_17\n      jumpi\n      dup1\n      0xe985e9c5\n      eq\n      tag_18\n      jumpi\n      jump(tag_2)\n    tag_20:\n      dup1\n      0x6352211e\n      eq\n      tag_11\n      jumpi\n      dup1\n      0x70a08231\n      eq\n      tag_12\n      jumpi\n      dup1\n      0x95d89b41\n      eq\n      tag_13\n      jumpi\n      dup1\n      0xa22cb465\n      eq\n      tag_14\n      jumpi\n      jump(tag_2)\n    tag_19:\n      dup1\n      0x162094c4\n      gt\n      tag_21\n      jumpi\n      dup1\n      0x162094c4\n      eq\n      tag_7\n      jumpi\n      dup1\n      0x23b872dd\n      eq\n      tag_8\n      jumpi\n      dup1\n      0x42842e0e\n      eq\n      tag_9\n      jumpi\n      dup1\n      0x55f804b3\n      eq\n      tag_10\n      jumpi\n      jump(tag_2)\n    tag_21:\n      dup1\n      0x01ffc9a7\n      eq\n      tag_3\n      jumpi\n      dup1\n      0x06fdde03\n      eq\n      tag_4\n      jumpi\n      dup1\n      0x081812fc\n      eq\n      tag_5\n      jumpi\n      dup1\n      0x095ea7b3\n      eq\n      tag_6\n      jumpi\n    tag_2:\n      0x00\n      dup1\n      revert\n        /* \"ERC721.sol\":2065:2392  function supportsInterface(bytes4 interfaceId)... */\n    tag_3:\n      tag_22\n      0x04\n      dup1\n      calldatasize\n      sub\n      dup2\n      add\n      swap1\n      tag_23\n      swap2\n      swap1\n      tag_24\n      jump\t// in\n    tag_23:\n      tag_25\n      jump\t// in\n    tag_22:\n      mload(0x40)\n      tag_26\n      swap2\n      swap1\n      tag_27\n      jump\t// in\n    tag_26:\n      mload(0x40)\n      dup1\n      swap2\n      sub\n      swap1\n      return\n        /* \"ERC721.sol\":379:406  string public override name */\n    tag_4:\n      tag_28\n      tag_29\n      jump\t// in\n    tag_28:\n      mload(0x40)\n      tag_30\n      swap2\n      swap1\n      tag_31\n      jump\t// in\n    tag_30:\n      mload(0x40)\n      dup1\n      swap2\n      sub\n      swap1\n      return\n        /* \"ERC721.sol\":3199:3398  function getApproved(uint tokenId) external view override returns (address) {... */\n    tag_5:\n      tag_32\n      0x04\n      dup1\n      calldatasize\n      sub\n      dup2\n      add\n      swap1\n      tag_33\n      swap2\n      swap1\n      tag_34\n      jump\t// in\n    tag_33:\n      tag_35\n      jump\t// in\n    tag_32:\n      mload(0x40)\n      tag_36\n      swap2\n      swap1\n      tag_37\n      jump\t// in\n    tag_36:\n      mload(0x40)\n      dup1\n      swap2\n      sub\n      swap1\n      return\n        /* \"ERC721.sol\":3612:3914  function approve(address to, uint tokenId) external override {... */\n    tag_6:\n      tag_38\n      0x04\n      dup1\n      calldatasize\n      sub\n      dup2\n      add\n      swap1\n      tag_39\n      swap2\n      swap1\n      tag_40\n      jump\t// in\n    tag_39:\n      tag_41\n      jump\t// in\n    tag_38:\n      stop\n        /* \"ERC721.sol\":1395:1707  function setTokenURI(uint256 tokenId, string memory tokenURI_) external {... */\n    tag_7:\n      tag_42\n      0x04\n      dup1\n      calldatasize\n      sub\n      dup2\n      add\n      swap1\n      tag_43\n      swap2\n      swap1\n      tag_44\n      jump\t// in\n    tag_43:\n      tag_45\n      jump\t// in\n    tag_42:\n      stop\n        /* \"ERC721.sol\":4660:5000  function transferFrom(... */\n    tag_8:\n      tag_46\n      0x04\n      dup1\n      calldatasize\n      sub\n      dup2\n      add\n      swap1\n      tag_47\n      swap2\n      swap1\n      tag_48\n      jump\t// in\n    tag_47:\n      tag_49\n      jump\t// in\n    tag_46:\n      stop\n        /* \"ERC721.sol\":5708:5884  function safeTransferFrom(... */\n    tag_9:\n      tag_50\n      0x04\n      dup1\n      calldatasize\n      sub\n      dup2\n      add\n      swap1\n      tag_51\n      swap2\n      swap1\n      tag_48\n      jump\t// in\n    tag_51:\n      tag_52\n      jump\t// in\n    tag_50:\n      stop\n        /* \"ERC721.sol\":1214:1350  function setBaseURI(string memory baseURI_) external {... */\n    tag_10:\n      tag_53\n      0x04\n      dup1\n      calldatasize\n      sub\n      dup2\n      add\n      swap1\n      tag_54\n      swap2\n      swap1\n      tag_55\n      jump\t// in\n    tag_54:\n      tag_56\n      jump\t// in\n    tag_53:\n      stop\n        /* \"ERC721.sol\":2585:2766  function ownerOf(uint tokenId) public view override returns (address owner) {... */\n    tag_11:\n      tag_57\n      0x04\n      dup1\n      calldatasize\n      sub\n      dup2\n      add\n      swap1\n      tag_58\n      swap2\n      swap1\n      tag_34\n      jump\t// in\n    tag_58:\n      tag_59\n      jump\t// in\n    tag_57:\n      mload(0x40)\n      tag_60\n      swap2\n      swap1\n      tag_37\n      jump\t// in\n    tag_60:\n      mload(0x40)\n      dup1\n      swap2\n      sub\n      swap1\n      return\n        /* \"ERC721.sol\":2400:2577  function balanceOf(address owner) external view override returns (uint) {... */\n    tag_12:\n      tag_61\n      0x04\n      dup1\n      calldatasize\n      sub\n      dup2\n      add\n      swap1\n      tag_62\n      swap2\n      swap1\n      tag_63\n      jump\t// in\n    tag_62:\n      tag_64\n      jump\t// in\n    tag_61:\n      mload(0x40)\n      tag_65\n      swap2\n      swap1\n      tag_66\n      jump\t// in\n    tag_65:\n      mload(0x40)\n      dup1\n      swap2\n      sub\n      swap1\n      return\n        /* \"ERC721.sol\":413:442  string public override symbol */\n    tag_13:\n      tag_67\n      tag_68\n      jump\t// in\n    tag_67:\n      mload(0x40)\n      tag_69\n      swap2\n      swap1\n      tag_31\n      jump\t// in\n    tag_69:\n      mload(0x40)\n      dup1\n      swap2\n      sub\n      swap1\n      return\n        /* \"ERC721.sol\":2981:3191  function setApprovalForAll(address operator, bool approved) external override {... */\n    tag_14:\n      tag_70\n      0x04\n      dup1\n      calldatasize\n      sub\n      dup2\n      add\n      swap1\n      tag_71\n      swap2\n      swap1\n      tag_72\n      jump\t// in\n    tag_71:\n      tag_73\n      jump\t// in\n    tag_70:\n      stop\n        /* \"ERC721.sol\":5318:5700  function safeTransferFrom(... */\n    tag_15:\n      tag_74\n      0x04\n      dup1\n      calldatasize\n      sub\n      dup2\n      add\n      swap1\n      tag_75\n      swap2\n      swap1\n      tag_76\n      jump\t// in\n    tag_75:\n      tag_77\n      jump\t// in\n    tag_74:\n      stop\n        /* \"ERC721.sol\":7146:7709  function tokenURI(uint256 tokenId) public view virtual override returns (string memory) {... */\n    tag_16:\n      tag_78\n      0x04\n      dup1\n      calldatasize\n      sub\n      dup2\n      add\n      swap1\n      tag_79\n      swap2\n      swap1\n      tag_34\n      jump\t// in\n    tag_79:\n      tag_80\n      jump\t// in\n    tag_78:\n      mload(0x40)\n      tag_81\n      swap2\n      swap1\n      tag_31\n      jump\t// in\n    tag_81:\n      mload(0x40)\n      dup1\n      swap2\n      sub\n      swap1\n      return\n        /* \"ERC721.sol\":1750:2002  function mint(address to, string memory tokenURI_) external {... */\n    tag_17:\n      tag_82\n      0x04\n      dup1\n      calldatasize\n      sub\n      dup2\n      add\n      swap1\n      tag_83\n      swap2\n      swap1\n      tag_84\n      jump\t// in\n    tag_83:\n      tag_85\n      jump\t// in\n    tag_82:\n      stop\n        /* \"ERC721.sol\":2774:2973  function isApprovedForAll(address owner, address operator)... */\n    tag_18:\n      tag_86\n      0x04\n      dup1\n      calldatasize\n      sub\n      dup2\n      add\n      swap1\n      tag_87\n      swap2\n      swap1\n      tag_88\n      jump\t// in\n    tag_87:\n      tag_89\n      jump\t// in\n    tag_86:\n      mload(0x40)\n      tag_90\n      swap2\n      swap1\n      tag_27\n      jump\t// in\n    tag_90:\n      mload(0x40)\n      dup1\n      swap2\n      sub\n      swap1\n      return\n        /* \"ERC721.sol\":2065:2392  function supportsInterface(bytes4 interfaceId)... */\n    tag_25:\n        /* \"ERC721.sol\":2180:2184  bool */\n      0x00\n        /* \"ERC721.sol\":2237:2262  type(IERC721).interfaceId */\n      0x80ac58cd00000000000000000000000000000000000000000000000000000000\n        /* \"ERC721.sol\":2222:2262  interfaceId == type(IERC721).interfaceId */\n      not(0xffffffffffffffffffffffffffffffffffffffffffffffffffffffff)\n      and\n        /* \"ERC721.sol\":2222:2233  interfaceId */\n      dup3\n        /* \"ERC721.sol\":2222:2262  interfaceId == type(IERC721).interfaceId */\n      not(0xffffffffffffffffffffffffffffffffffffffffffffffffffffffff)\n      and\n      eq\n        /* \"ERC721.sol\":2222:2319  interfaceId == type(IERC721).interfaceId ||... */\n      dup1\n      tag_92\n      jumpi\n      pop\n        /* \"ERC721.sol\":2294:2319  type(IERC165).interfaceId */\n      0x01ffc9a700000000000000000000000000000000000000000000000000000000\n        /* \"ERC721.sol\":2279:2319  interfaceId == type(IERC165).interfaceId */\n      not(0xffffffffffffffffffffffffffffffffffffffffffffffffffffffff)\n      and\n        /* \"ERC721.sol\":2279:2290  interfaceId */\n      dup3\n        /* \"ERC721.sol\":2279:2319  interfaceId == type(IERC165).interfaceId */\n      not(0xffffffffffffffffffffffffffffffffffffffffffffffffffffffff)\n      and\n      eq\n        /* \"ERC721.sol\":2222:2319  interfaceId == type(IERC721).interfaceId ||... */\n    tag_92:\n        /* \"ERC721.sol\":2222:2384  interfaceId == type(IERC721).interfaceId ||... */\n      dup1\n      tag_93\n      jumpi\n      pop\n        /* \"ERC721.sol\":2351:2384  type(IERC721Metadata).interfaceId */\n      0x5b5e139f00000000000000000000000000000000000000000000000000000000\n        /* \"ERC721.sol\":2336:2384  interfaceId == type(IERC721Metadata).interfaceId */\n      not(0xffffffffffffffffffffffffffffffffffffffffffffffffffffffff)\n      and\n        /* \"ERC721.sol\":2336:2347  interfaceId */\n      dup3\n        /* \"ERC721.sol\":2336:2384  interfaceId == type(IERC721Metadata).interfaceId */\n      not(0xffffffffffffffffffffffffffffffffffffffffffffffffffffffff)\n      and\n      eq\n        /* \"ERC721.sol\":2222:2384  interfaceId == type(IERC721).interfaceId ||... */\n    tag_93:\n        /* \"ERC721.sol\":2202:2384  return... */\n      swap1\n      pop\n        /* \"ERC721.sol\":2065:2392  function supportsInterface(bytes4 interfaceId)... */\n      swap2\n      swap1\n      pop\n      jump\t// out\n        /* \"ERC721.sol\":379:406  string public override name */\n    tag_29:\n      0x00\n      dup1\n      sload\n      tag_94\n      swap1\n      tag_95\n      jump\t// in\n    tag_94:\n      dup1\n      0x1f\n      add\n      0x20\n      dup1\n      swap2\n      div\n      mul\n      0x20\n      add\n      mload(0x40)\n      swap1\n      dup2\n      add\n      0x40\n      mstore\n      dup1\n      swap3\n      swap2\n      swap1\n      dup2\n      dup2\n      mstore\n      0x20\n      add\n      dup3\n      dup1\n      sload\n      tag_96\n      swap1\n      tag_95\n      jump\t// in\n    tag_96:\n      dup1\n      iszero\n      tag_97\n      jumpi\n      dup1\n      0x1f\n      lt\n      tag_98\n      jumpi\n      0x0100\n      dup1\n      dup4\n      sload\n      div\n      mul\n      dup4\n      mstore\n      swap2\n      0x20\n      add\n      swap2\n      jump(tag_97)\n    tag_98:\n      dup3\n      add\n      swap2\n      swap1\n      0x00\n      mstore\n      keccak256(0x00, 0x20)\n      swap1\n    tag_99:\n      dup2\n      sload\n      dup2\n      mstore\n      swap1\n      0x01\n      add\n      swap1\n      0x20\n      add\n      dup1\n      dup4\n      gt\n      tag_99\n      jumpi\n      dup3\n      swap1\n      sub\n      0x1f\n      and\n      dup3\n      add\n      swap2\n    tag_97:\n      pop\n      pop\n      pop\n      pop\n      pop\n      dup2\n      jump\t// out\n        /* \"ERC721.sol\":3199:3398  function getApproved(uint tokenId) external view override returns (address) {... */\n    tag_35:\n        /* \"ERC721.sol\":3266:3273  address */\n      0x00\n        /* \"ERC721.sol\":3322:3323  0 */\n      dup1\n        /* \"ERC721.sol\":3294:3324  _owners[tokenId] != address(0) */\n      0xffffffffffffffffffffffffffffffffffffffff\n      and\n        /* \"ERC721.sol\":3294:3301  _owners */\n      0x02\n        /* \"ERC721.sol\":3294:3310  _owners[tokenId] */\n      0x00\n        /* \"ERC721.sol\":3302:3309  tokenId */\n      dup5\n        /* \"ERC721.sol\":3294:3310  _owners[tokenId] */\n      dup2\n      mstore\n      0x20\n      add\n      swap1\n      dup2\n      mstore\n      0x20\n      add\n      0x00\n      keccak256\n      0x00\n      swap1\n      sload\n      swap1\n      0x0100\n      exp\n      swap1\n      div\n      0xffffffffffffffffffffffffffffffffffffffff\n      and\n        /* \"ERC721.sol\":3294:3324  _owners[tokenId] != address(0) */\n      0xffffffffffffffffffffffffffffffffffffffff\n      and\n      sub\n        /* \"ERC721.sol\":3286:3348  require(_owners[tokenId] != address(0), \"token doesn't exist\") */\n      tag_101\n      jumpi\n      mload(0x40)\n      0x08c379a000000000000000000000000000000000000000000000000000000000\n      dup2\n      mstore\n      0x04\n      add\n      tag_102\n      swap1\n      tag_103\n      jump\t// in\n    tag_102:\n      mload(0x40)\n      dup1\n      swap2\n      sub\n      swap1\n      revert\n    tag_101:\n        /* \"ERC721.sol\":3366:3381  _tokenApprovals */\n      0x04\n        /* \"ERC721.sol\":3366:3390  _tokenApprovals[tokenId] */\n      0x00\n        /* \"ERC721.sol\":3382:3389  tokenId */\n      dup4\n        /* \"ERC721.sol\":3366:3390  _tokenApprovals[tokenId] */\n      dup2\n      mstore\n      0x20\n      add\n      swap1\n      dup2\n      mstore\n      0x20\n      add\n      0x00\n      keccak256\n      0x00\n      swap1\n      sload\n      swap1\n      0x0100\n      exp\n      swap1\n      div\n      0xffffffffffffffffffffffffffffffffffffffff\n      and\n        /* \"ERC721.sol\":3359:3390  return _tokenApprovals[tokenId] */\n      swap1\n      pop\n        /* \"ERC721.sol\":3199:3398  function getApproved(uint tokenId) external view override returns (address) {... */\n      swap2\n      swap1\n      pop\n      jump\t// out\n        /* \"ERC721.sol\":3612:3914  function approve(address to, uint tokenId) external override {... */\n    tag_41:\n        /* \"ERC721.sol\":3684:3697  address owner */\n      0x00\n        /* \"ERC721.sol\":3700:3707  _owners */\n      0x02\n        /* \"ERC721.sol\":3700:3716  _owners[tokenId] */\n      0x00\n        /* \"ERC721.sol\":3708:3715  tokenId */\n      dup4\n        /* \"ERC721.sol\":3700:3716  _owners[tokenId] */\n      dup2\n      mstore\n      0x20\n      add\n      swap1\n      dup2\n      mstore\n      0x20\n      add\n      0x00\n      keccak256\n      0x00\n      swap1\n      sload\n      swap1\n      0x0100\n      exp\n      swap1\n      div\n      0xffffffffffffffffffffffffffffffffffffffff\n      and\n        /* \"ERC721.sol\":3684:3716  address owner = _owners[tokenId] */\n      swap1\n      pop\n        /* \"ERC721.sol\":3763:3768  owner */\n      dup1\n        /* \"ERC721.sol\":3749:3768  msg.sender == owner */\n      0xffffffffffffffffffffffffffffffffffffffff\n      and\n        /* \"ERC721.sol\":3749:3759  msg.sender */\n      caller\n        /* \"ERC721.sol\":3749:3768  msg.sender == owner */\n      0xffffffffffffffffffffffffffffffffffffffff\n      and\n      eq\n        /* \"ERC721.sol\":3749:3809  msg.sender == owner || _operatorApprovals[owner][msg.sender] */\n      dup1\n      tag_105\n      jumpi\n      pop\n        /* \"ERC721.sol\":3772:3790  _operatorApprovals */\n      0x05\n        /* \"ERC721.sol\":3772:3797  _operatorApprovals[owner] */\n      0x00\n        /* \"ERC721.sol\":3791:3796  owner */\n      dup3\n        /* \"ERC721.sol\":3772:3797  _operatorApprovals[owner] */\n      0xffffffffffffffffffffffffffffffffffffffff\n      and\n      0xffffffffffffffffffffffffffffffffffffffff\n      and\n      dup2\n      mstore\n      0x20\n      add\n      swap1\n      dup2\n      mstore\n      0x20\n      add\n      0x00\n      keccak256\n        /* \"ERC721.sol\":3772:3809  _operatorApprovals[owner][msg.sender] */\n      0x00\n        /* \"ERC721.sol\":3798:3808  msg.sender */\n      caller\n        /* \"ERC721.sol\":3772:3809  _operatorApprovals[owner][msg.sender] */\n      0xffffffffffffffffffffffffffffffffffffffff\n      and\n      0xffffffffffffffffffffffffffffffffffffffff\n      and\n      dup2\n      mstore\n      0x20\n      add\n      swap1\n      dup2\n      mstore\n      0x20\n      add\n      0x00\n      keccak256\n      0x00\n      swap1\n      sload\n      swap1\n      0x0100\n      exp\n      swap1\n      div\n      0xff\n      and\n        /* \"ERC721.sol\":3749:3809  msg.sender == owner || _operatorApprovals[owner][msg.sender] */\n    tag_105:\n        /* \"ERC721.sol\":3727:3867  require(... */\n      tag_106\n      jumpi\n      mload(0x40)\n      0x08c379a000000000000000000000000000000000000000000000000000000000\n      dup2\n      mstore\n      0x04\n      add\n      tag_107\n      swap1\n      tag_108\n      jump\t// in\n    tag_107:\n      mload(0x40)\n      dup1\n      swap2\n      sub\n      swap1\n      revert\n    tag_106:\n        /* \"ERC721.sol\":3878:3906  _approve(owner, to, tokenId) */\n      tag_109\n        /* \"ERC721.sol\":3887:3892  owner */\n      dup2\n        /* \"ERC721.sol\":3894:3896  to */\n      dup5\n        /* \"ERC721.sol\":3898:3905  tokenId */\n      dup5\n        /* \"ERC721.sol\":3878:3886  _approve */\n      tag_110\n        /* \"ERC721.sol\":3878:3906  _approve(owner, to, tokenId) */\n      jump\t// in\n    tag_109:\n        /* \"ERC721.sol\":3673:3914  {... */\n      pop\n        /* \"ERC721.sol\":3612:3914  function approve(address to, uint tokenId) external override {... */\n      pop\n      pop\n      jump\t// out\n        /* \"ERC721.sol\":1395:1707  function setTokenURI(uint256 tokenId, string memory tokenURI_) external {... */\n    tag_45:\n        /* \"ERC721.sol\":1514:1515  0 */\n      0x00\n        /* \"ERC721.sol\":1486:1516  _owners[tokenId] != address(0) */\n      0xffffffffffffffffffffffffffffffffffffffff\n      and\n        /* \"ERC721.sol\":1486:1493  _owners */\n      0x02\n        /* \"ERC721.sol\":1486:1502  _owners[tokenId] */\n      0x00\n        /* \"ERC721.sol\":1494:1501  tokenId */\n      dup5\n        /* \"ERC721.sol\":1486:1502  _owners[tokenId] */\n      dup2\n      mstore\n      0x20\n      add\n      swap1\n      dup2\n      mstore\n      0x20\n      add\n      0x00\n      keccak256\n      0x00\n      swap1\n      sload\n      swap1\n      0x0100\n      exp\n      swap1\n      div\n      0xffffffffffffffffffffffffffffffffffffffff\n      and\n        /* \"ERC721.sol\":1486:1516  _owners[tokenId] != address(0) */\n      0xffffffffffffffffffffffffffffffffffffffff\n      and\n      sub\n        /* \"ERC721.sol\":1478:1541  require(_owners[tokenId] != address(0), \"Token does not exist\") */\n      tag_112\n      jumpi\n      mload(0x40)\n      0x08c379a000000000000000000000000000000000000000000000000000000000\n      dup2\n      mstore\n      0x04\n      add\n      tag_113\n      swap1\n      tag_114\n      jump\t// in\n    tag_113:\n      mload(0x40)\n      dup1\n      swap2\n      sub\n      swap1\n      revert\n    tag_112:\n        /* \"ERC721.sol\":1574:1581  _owners */\n      0x02\n        /* \"ERC721.sol\":1574:1590  _owners[tokenId] */\n      0x00\n        /* \"ERC721.sol\":1582:1589  tokenId */\n      dup4\n        /* \"ERC721.sol\":1574:1590  _owners[tokenId] */\n      dup2\n      mstore\n      0x20\n      add\n      swap1\n      dup2\n      mstore\n      0x20\n      add\n      0x00\n      keccak256\n      0x00\n      swap1\n      sload\n      swap1\n      0x0100\n      exp\n      swap1\n      div\n      0xffffffffffffffffffffffffffffffffffffffff\n      and\n        /* \"ERC721.sol\":1560:1590  msg.sender == _owners[tokenId] */\n      0xffffffffffffffffffffffffffffffffffffffff\n      and\n        /* \"ERC721.sol\":1560:1570  msg.sender */\n      caller\n        /* \"ERC721.sol\":1560:1590  msg.sender == _owners[tokenId] */\n      0xffffffffffffffffffffffffffffffffffffffff\n      and\n      eq\n        /* \"ERC721.sol\":1552:1610  require(msg.sender == _owners[tokenId], \"Not token owner\") */\n      tag_115\n      jumpi\n      mload(0x40)\n      0x08c379a000000000000000000000000000000000000000000000000000000000\n      dup2\n      mstore\n      0x04\n      add\n      tag_116\n      swap1\n      tag_117\n      jump\t// in\n    tag_116:\n      mload(0x40)\n      dup1\n      swap2\n      sub\n      swap1\n      revert\n    tag_115:\n        /* \"ERC721.sol\":1643:1652  tokenURI_ */\n      dup1\n        /* \"ERC721.sol\":1621:1631  _tokenURIs */\n      0x08\n        /* \"ERC721.sol\":1621:1640  _tokenURIs[tokenId] */\n      0x00\n        /* \"ERC721.sol\":1632:1639  tokenId */\n      dup5\n        /* \"ERC721.sol\":1621:1640  _tokenURIs[tokenId] */\n      dup2\n      mstore\n      0x20\n      add\n      swap1\n      dup2\n      mstore\n      0x20\n      add\n      0x00\n      keccak256\n        /* \"ERC721.sol\":1621:1652  _tokenURIs[tokenId] = tokenURI_ */\n      swap1\n      dup2\n      tag_118\n      swap2\n      swap1\n      tag_119\n      jump\t// in\n    tag_118:\n      pop\n        /* \"ERC721.sol\":1680:1687  tokenId */\n      dup2\n        /* \"ERC721.sol\":1668:1699  TokenURISet(tokenId, tokenURI_) */\n      0xda84ca2183491f179a603e877b2cb058e42195041c2b9c53d746427e519a34df\n        /* \"ERC721.sol\":1689:1698  tokenURI_ */\n      dup3\n        /* \"ERC721.sol\":1668:1699  TokenURISet(tokenId, tokenURI_) */\n      mload(0x40)\n      tag_120\n      swap2\n      swap1\n      tag_31\n      jump\t// in\n    tag_120:\n      mload(0x40)\n      dup1\n      swap2\n      sub\n      swap1\n      log2\n        /* \"ERC721.sol\":1395:1707  function setTokenURI(uint256 tokenId, string memory tokenURI_) external {... */\n      pop\n      pop\n      jump\t// out\n        /* \"ERC721.sol\":4660:5000  function transferFrom(... */\n    tag_49:\n        /* \"ERC721.sol\":4785:4798  address owner */\n      0x00\n        /* \"ERC721.sol\":4801:4817  ownerOf(tokenId) */\n      tag_122\n        /* \"ERC721.sol\":4809:4816  tokenId */\n      dup3\n        /* \"ERC721.sol\":4801:4808  ownerOf */\n      tag_59\n        /* \"ERC721.sol\":4801:4817  ownerOf(tokenId) */\n      jump\t// in\n    tag_122:\n        /* \"ERC721.sol\":4785:4817  address owner = ownerOf(tokenId) */\n      swap1\n      pop\n        /* \"ERC721.sol\":4850:4896  _isApprovedOrOwner(owner, msg.sender, tokenId) */\n      tag_123\n        /* \"ERC721.sol\":4869:4874  owner */\n      dup2\n        /* \"ERC721.sol\":4876:4886  msg.sender */\n      caller\n        /* \"ERC721.sol\":4888:4895  tokenId */\n      dup5\n        /* \"ERC721.sol\":4850:4868  _isApprovedOrOwner */\n      tag_124\n        /* \"ERC721.sol\":4850:4896  _isApprovedOrOwner(owner, msg.sender, tokenId) */\n      jump\t// in\n    tag_123:\n        /* \"ERC721.sol\":4828:4946  require(... */\n      tag_125\n      jumpi\n      mload(0x40)\n      0x08c379a000000000000000000000000000000000000000000000000000000000\n      dup2\n      mstore\n      0x04\n      add\n      tag_126\n      swap1\n      tag_127\n      jump\t// in\n    tag_126:\n      mload(0x40)\n      dup1\n      swap2\n      sub\n      swap1\n      revert\n    tag_125:\n        /* \"ERC721.sol\":4957:4992  _transfer(owner, from, to, tokenId) */\n      tag_128\n        /* \"ERC721.sol\":4967:4972  owner */\n      dup2\n        /* \"ERC721.sol\":4974:4978  from */\n      dup6\n        /* \"ERC721.sol\":4980:4982  to */\n      dup6\n        /* \"ERC721.sol\":4984:4991  tokenId */\n      dup6\n        /* \"ERC721.sol\":4957:4966  _transfer */\n      tag_129\n        /* \"ERC721.sol\":4957:4992  _transfer(owner, from, to, tokenId) */\n      jump\t// in\n    tag_128:\n        /* \"ERC721.sol\":4774:5000  {... */\n      pop\n        /* \"ERC721.sol\":4660:5000  function transferFrom(... */\n      pop\n      pop\n      pop\n      jump\t// out\n        /* \"ERC721.sol\":5708:5884  function safeTransferFrom(... */\n    tag_52:\n        /* \"ERC721.sol\":5837:5876  safeTransferFrom(from, to, tokenId, \"\") */\n      tag_131\n        /* \"ERC721.sol\":5854:5858  from */\n      dup4\n        /* \"ERC721.sol\":5860:5862  to */\n      dup4\n        /* \"ERC721.sol\":5864:5871  tokenId */\n      dup4\n        /* \"ERC721.sol\":5837:5876  safeTransferFrom(from, to, tokenId, \"\") */\n      mload(0x40)\n      dup1\n      0x20\n      add\n      0x40\n      mstore\n      dup1\n      0x00\n      dup2\n      mstore\n      pop\n        /* \"ERC721.sol\":5837:5853  safeTransferFrom */\n      tag_77\n        /* \"ERC721.sol\":5837:5876  safeTransferFrom(from, to, tokenId, \"\") */\n      jump\t// in\n    tag_131:\n        /* \"ERC721.sol\":5708:5884  function safeTransferFrom(... */\n      pop\n      pop\n      pop\n      jump\t// out\n        /* \"ERC721.sol\":1214:1350  function setBaseURI(string memory baseURI_) external {... */\n    tag_56:\n        /* \"ERC721.sol\":1294:1302  baseURI_ */\n      dup1\n        /* \"ERC721.sol\":1278:1291  _baseTokenURI */\n      0x07\n        /* \"ERC721.sol\":1278:1302  _baseTokenURI = baseURI_ */\n      swap1\n      dup2\n      tag_133\n      swap2\n      swap1\n      tag_119\n      jump\t// in\n    tag_133:\n      pop\n        /* \"ERC721.sol\":1318:1342  BaseURIChanged(baseURI_) */\n      0x5411e8ebf1636d9e83d5fc4900bf80cbac82e8790da2a4c94db4895e889eedf6\n        /* \"ERC721.sol\":1333:1341  baseURI_ */\n      dup2\n        /* \"ERC721.sol\":1318:1342  BaseURIChanged(baseURI_) */\n      mload(0x40)\n      tag_134\n      swap2\n      swap1\n      tag_31\n      jump\t// in\n    tag_134:\n      mload(0x40)\n      dup1\n      swap2\n      sub\n      swap1\n      log1\n        /* \"ERC721.sol\":1214:1350  function setBaseURI(string memory baseURI_) external {... */\n      pop\n      jump\t// out\n        /* \"ERC721.sol\":2585:2766  function ownerOf(uint tokenId) public view override returns (address owner) {... */\n    tag_59:\n        /* \"ERC721.sol\":2646:2659  address owner */\n      0x00\n        /* \"ERC721.sol\":2680:2687  _owners */\n      0x02\n        /* \"ERC721.sol\":2680:2696  _owners[tokenId] */\n      0x00\n        /* \"ERC721.sol\":2688:2695  tokenId */\n      dup4\n        /* \"ERC721.sol\":2680:2696  _owners[tokenId] */\n      dup2\n      mstore\n      0x20\n      add\n      swap1\n      dup2\n      mstore\n      0x20\n      add\n      0x00\n      keccak256\n      0x00\n      swap1\n      sload\n      swap1\n      0x0100\n      exp\n      swap1\n      div\n      0xffffffffffffffffffffffffffffffffffffffff\n      and\n        /* \"ERC721.sol\":2672:2696  owner = _owners[tokenId] */\n      swap1\n      pop\n        /* \"ERC721.sol\":2732:2733  0 */\n      0x00\n        /* \"ERC721.sol\":2715:2734  owner != address(0) */\n      0xffffffffffffffffffffffffffffffffffffffff\n      and\n        /* \"ERC721.sol\":2715:2720  owner */\n      dup2\n        /* \"ERC721.sol\":2715:2734  owner != address(0) */\n      0xffffffffffffffffffffffffffffffffffffffff\n      and\n      sub\n        /* \"ERC721.sol\":2707:2758  require(owner != address(0), \"token doesn't exist\") */\n      tag_136\n      jumpi\n      mload(0x40)\n      0x08c379a000000000000000000000000000000000000000000000000000000000\n      dup2\n      mstore\n      0x04\n      add\n      tag_137\n      swap1\n      tag_103\n      jump\t// in\n    tag_137:\n      mload(0x40)\n      dup1\n      swap2\n      sub\n      swap1\n      revert\n    tag_136:\n        /* \"ERC721.sol\":2585:2766  function ownerOf(uint tokenId) public view override returns (address owner) {... */\n      swap2\n      swap1\n      pop\n      jump\t// out\n        /* \"ERC721.sol\":2400:2577  function balanceOf(address owner) external view override returns (uint) {... */\n    tag_64:\n        /* \"ERC721.sol\":2466:2470  uint */\n      0x00\n        /* \"ERC721.sol\":2508:2509  0 */\n      dup1\n        /* \"ERC721.sol\":2491:2510  owner != address(0) */\n      0xffffffffffffffffffffffffffffffffffffffff\n      and\n        /* \"ERC721.sol\":2491:2496  owner */\n      dup3\n        /* \"ERC721.sol\":2491:2510  owner != address(0) */\n      0xffffffffffffffffffffffffffffffffffffffff\n      and\n      sub\n        /* \"ERC721.sol\":2483:2535  require(owner != address(0), \"owner = zero address\") */\n      tag_139\n      jumpi\n      mload(0x40)\n      0x08c379a000000000000000000000000000000000000000000000000000000000\n      dup2\n      mstore\n      0x04\n      add\n      tag_140\n      swap1\n      tag_141\n      jump\t// in\n    tag_140:\n      mload(0x40)\n      dup1\n      swap2\n      sub\n      swap1\n      revert\n    tag_139:\n        /* \"ERC721.sol\":2553:2562  _balances */\n      0x03\n        /* \"ERC721.sol\":2553:2569  _balances[owner] */\n      0x00\n        /* \"ERC721.sol\":2563:2568  owner */\n      dup4\n        /* \"ERC721.sol\":2553:2569  _balances[owner] */\n      0xffffffffffffffffffffffffffffffffffffffff\n      and\n      0xffffffffffffffffffffffffffffffffffffffff\n      and\n      dup2\n      mstore\n      0x20\n      add\n      swap1\n      dup2\n      mstore\n      0x20\n      add\n      0x00\n      keccak256\n      sload\n        /* \"ERC721.sol\":2546:2569  return _balances[owner] */\n      swap1\n      pop\n        /* \"ERC721.sol\":2400:2577  function balanceOf(address owner) external view override returns (uint) {... */\n      swap2\n      swap1\n      pop\n      jump\t// out\n        /* \"ERC721.sol\":413:442  string public override symbol */\n    tag_68:\n      0x01\n      dup1\n      sload\n      tag_142\n      swap1\n      tag_95\n      jump\t// in\n    tag_142:\n      dup1\n      0x1f\n      add\n      0x20\n      dup1\n      swap2\n      div\n      mul\n      0x20\n      add\n      mload(0x40)\n      swap1\n      dup2\n      add\n      0x40\n      mstore\n      dup1\n      swap3\n      swap2\n      swap1\n      dup2\n      dup2\n      mstore\n      0x20\n      add\n      dup3\n      dup1\n      sload\n      tag_143\n      swap1\n      tag_95\n      jump\t// in\n    tag_143:\n      dup1\n      iszero\n      tag_144\n      jumpi\n      dup1\n      0x1f\n      lt\n      tag_145\n      jumpi\n      0x0100\n      dup1\n      dup4\n      sload\n      div\n      mul\n      dup4\n      mstore\n      swap2\n      0x20\n      add\n      swap2\n      jump(tag_144)\n    tag_145:\n      dup3\n      add\n      swap2\n      swap1\n      0x00\n      mstore\n      keccak256(0x00, 0x20)\n      swap1\n    tag_146:\n      dup2\n      sload\n      dup2\n      mstore\n      swap1\n      0x01\n      add\n      swap1\n      0x20\n      add\n      dup1\n      dup4\n      gt\n      tag_146\n      jumpi\n      dup3\n      swap1\n      sub\n      0x1f\n      and\n      dup3\n      add\n      swap2\n    tag_144:\n      pop\n      pop\n      pop\n      pop\n      pop\n      dup2\n      jump\t// out\n        /* \"ERC721.sol\":2981:3191  function setApprovalForAll(address operator, bool approved) external override {... */\n    tag_73:\n        /* \"ERC721.sol\":3113:3121  approved */\n      dup1\n        /* \"ERC721.sol\":3070:3088  _operatorApprovals */\n      0x05\n        /* \"ERC721.sol\":3070:3100  _operatorApprovals[msg.sender] */\n      0x00\n        /* \"ERC721.sol\":3089:3099  msg.sender */\n      caller\n        /* \"ERC721.sol\":3070:3100  _operatorApprovals[msg.sender] */\n      0xffffffffffffffffffffffffffffffffffffffff\n      and\n      0xffffffffffffffffffffffffffffffffffffffff\n      and\n      dup2\n      mstore\n      0x20\n      add\n      swap1\n      dup2\n      mstore\n      0x20\n      add\n      0x00\n      keccak256\n        /* \"ERC721.sol\":3070:3110  _operatorApprovals[msg.sender][operator] */\n      0x00\n        /* \"ERC721.sol\":3101:3109  operator */\n      dup5\n        /* \"ERC721.sol\":3070:3110  _operatorApprovals[msg.sender][operator] */\n      0xffffffffffffffffffffffffffffffffffffffff\n      and\n      0xffffffffffffffffffffffffffffffffffffffff\n      and\n      dup2\n      mstore\n      0x20\n      add\n      swap1\n      dup2\n      mstore\n      0x20\n      add\n      0x00\n      keccak256\n      0x00\n        /* \"ERC721.sol\":3070:3121  _operatorApprovals[msg.sender][operator] = approved */\n      0x0100\n      exp\n      dup2\n      sload\n      dup2\n      0xff\n      mul\n      not\n      and\n      swap1\n      dup4\n      iszero\n      iszero\n      mul\n      or\n      swap1\n      sstore\n      pop\n        /* \"ERC721.sol\":3164:3172  operator */\n      dup2\n        /* \"ERC721.sol\":3137:3183  ApprovalForAll(msg.sender, operator, approved) */\n      0xffffffffffffffffffffffffffffffffffffffff\n      and\n        /* \"ERC721.sol\":3152:3162  msg.sender */\n      caller\n        /* \"ERC721.sol\":3137:3183  ApprovalForAll(msg.sender, operator, approved) */\n      0xffffffffffffffffffffffffffffffffffffffff\n      and\n      0x17307eab39ab6107e8899845ad3d59bd9653f200f220920489ca2b5937696c31\n        /* \"ERC721.sol\":3174:3182  approved */\n      dup4\n        /* \"ERC721.sol\":3137:3183  ApprovalForAll(msg.sender, operator, approved) */\n      mload(0x40)\n      tag_148\n      swap2\n      swap1\n      tag_27\n      jump\t// in\n    tag_148:\n      mload(0x40)\n      dup1\n      swap2\n      sub\n      swap1\n      log3\n        /* \"ERC721.sol\":2981:3191  function setApprovalForAll(address operator, bool approved) external override {... */\n      pop\n      pop\n      jump\t// out\n        /* \"ERC721.sol\":5318:5700  function safeTransferFrom(... */\n    tag_77:\n        /* \"ERC721.sol\":5474:5487  address owner */\n      0x00\n        /* \"ERC721.sol\":5490:5506  ownerOf(tokenId) */\n      tag_150\n        /* \"ERC721.sol\":5498:5505  tokenId */\n      dup4\n        /* \"ERC721.sol\":5490:5497  ownerOf */\n      tag_59\n        /* \"ERC721.sol\":5490:5506  ownerOf(tokenId) */\n      jump\t// in\n    tag_150:\n        /* \"ERC721.sol\":5474:5506  address owner = ownerOf(tokenId) */\n      swap1\n      pop\n        /* \"ERC721.sol\":5539:5585  _isApprovedOrOwner(owner, msg.sender, tokenId) */\n      tag_151\n        /* \"ERC721.sol\":5558:5563  owner */\n      dup2\n        /* \"ERC721.sol\":5565:5575  msg.sender */\n      caller\n        /* \"ERC721.sol\":5577:5584  tokenId */\n      dup6\n        /* \"ERC721.sol\":5539:5557  _isApprovedOrOwner */\n      tag_124\n        /* \"ERC721.sol\":5539:5585  _isApprovedOrOwner(owner, msg.sender, tokenId) */\n      jump\t// in\n    tag_151:\n        /* \"ERC721.sol\":5517:5635  require(... */\n      tag_152\n      jumpi\n      mload(0x40)\n      0x08c379a000000000000000000000000000000000000000000000000000000000\n      dup2\n      mstore\n      0x04\n      add\n      tag_153\n      swap1\n      tag_127\n      jump\t// in\n    tag_153:\n      mload(0x40)\n      dup1\n      swap2\n      sub\n      swap1\n      revert\n    tag_152:\n        /* \"ERC721.sol\":5646:5692  _safeTransfer(owner, from, to, tokenId, _data) */\n      tag_154\n        /* \"ERC721.sol\":5660:5665  owner */\n      dup2\n        /* \"ERC721.sol\":5667:5671  from */\n      dup7\n        /* \"ERC721.sol\":5673:5675  to */\n      dup7\n        /* \"ERC721.sol\":5677:5684  tokenId */\n      dup7\n        /* \"ERC721.sol\":5686:5691  _data */\n      dup7\n        /* \"ERC721.sol\":5646:5659  _safeTransfer */\n      tag_155\n        /* \"ERC721.sol\":5646:5692  _safeTransfer(owner, from, to, tokenId, _data) */\n      jump\t// in\n    tag_154:\n        /* \"ERC721.sol\":5463:5700  {... */\n      pop\n        /* \"ERC721.sol\":5318:5700  function safeTransferFrom(... */\n      pop\n      pop\n      pop\n      pop\n      jump\t// out\n        /* \"ERC721.sol\":7146:7709  function tokenURI(uint256 tokenId) public view virtual override returns (string memory) {... */\n    tag_80:\n        /* \"ERC721.sol\":7219:7232  string memory */\n      0x60\n        /* \"ERC721.sol\":7281:7282  0 */\n      0x00\n        /* \"ERC721.sol\":7253:7283  _owners[tokenId] != address(0) */\n      0xffffffffffffffffffffffffffffffffffffffff\n      and\n        /* \"ERC721.sol\":7253:7260  _owners */\n      0x02\n        /* \"ERC721.sol\":7253:7269  _owners[tokenId] */\n      0x00\n        /* \"ERC721.sol\":7261:7268  tokenId */\n      dup5\n        /* \"ERC721.sol\":7253:7269  _owners[tokenId] */\n      dup2\n      mstore\n      0x20\n      add\n      swap1\n      dup2\n      mstore\n      0x20\n      add\n      0x00\n      keccak256\n      0x00\n      swap1\n      sload\n      swap1\n      0x0100\n      exp\n      swap1\n      div\n      0xffffffffffffffffffffffffffffffffffffffff\n      and\n        /* \"ERC721.sol\":7253:7283  _owners[tokenId] != address(0) */\n      0xffffffffffffffffffffffffffffffffffffffff\n      and\n      sub\n        /* \"ERC721.sol\":7245:7303  require(_owners[tokenId] != address(0), \"Token Not Exist\") */\n      tag_157\n      jumpi\n      mload(0x40)\n      0x08c379a000000000000000000000000000000000000000000000000000000000\n      dup2\n      mstore\n      0x04\n      add\n      tag_158\n      swap1\n      tag_159\n      jump\t// in\n    tag_158:\n      mload(0x40)\n      dup1\n      swap2\n      sub\n      swap1\n      revert\n    tag_157:\n        /* \"ERC721.sol\":7376:7399  string memory tokenURI_ */\n      0x00\n        /* \"ERC721.sol\":7402:7412  _tokenURIs */\n      0x08\n        /* \"ERC721.sol\":7402:7421  _tokenURIs[tokenId] */\n      0x00\n        /* \"ERC721.sol\":7413:7420  tokenId */\n      dup5\n        /* \"ERC721.sol\":7402:7421  _tokenURIs[tokenId] */\n      dup2\n      mstore\n      0x20\n      add\n      swap1\n      dup2\n      mstore\n      0x20\n      add\n      0x00\n      keccak256\n        /* \"ERC721.sol\":7376:7421  string memory tokenURI_ = _tokenURIs[tokenId] */\n      dup1\n      sload\n      tag_160\n      swap1\n      tag_95\n      jump\t// in\n    tag_160:\n      dup1\n      0x1f\n      add\n      0x20\n      dup1\n      swap2\n      div\n      mul\n      0x20\n      add\n      mload(0x40)\n      swap1\n      dup2\n      add\n      0x40\n      mstore\n      dup1\n      swap3\n      swap2\n      swap1\n      dup2\n      dup2\n      mstore\n      0x20\n      add\n      dup3\n      dup1\n      sload\n      tag_161\n      swap1\n      tag_95\n      jump\t// in\n    tag_161:\n      dup1\n      iszero\n      tag_162\n      jumpi\n      dup1\n      0x1f\n      lt\n      tag_163\n      jumpi\n      0x0100\n      dup1\n      dup4\n      sload\n      div\n      mul\n      dup4\n      mstore\n      swap2\n      0x20\n      add\n      swap2\n      jump(tag_162)\n    tag_163:\n      dup3\n      add\n      swap2\n      swap1\n      0x00\n      mstore\n      keccak256(0x00, 0x20)\n      swap1\n    tag_164:\n      dup2\n      sload\n      dup2\n      mstore\n      swap1\n      0x01\n      add\n      swap1\n      0x20\n      add\n      dup1\n      dup4\n      gt\n      tag_164\n      jumpi\n      dup3\n      swap1\n      sub\n      0x1f\n      and\n      dup3\n      add\n      swap2\n    tag_162:\n      pop\n      pop\n      pop\n      pop\n      pop\n      swap1\n      pop\n        /* \"ERC721.sol\":7462:7463  0 */\n      0x00\n        /* \"ERC721.sol\":7442:7451  tokenURI_ */\n      dup2\n        /* \"ERC721.sol\":7436:7459  bytes(tokenURI_).length */\n      mload\n        /* \"ERC721.sol\":7436:7463  bytes(tokenURI_).length > 0 */\n      gt\n        /* \"ERC721.sol\":7432:7508  if (bytes(tokenURI_).length > 0) {... */\n      iszero\n      tag_165\n      jumpi\n        /* \"ERC721.sol\":7487:7496  tokenURI_ */\n      dup1\n        /* \"ERC721.sol\":7480:7496  return tokenURI_ */\n      swap2\n      pop\n      pop\n      jump(tag_156)\n        /* \"ERC721.sol\":7432:7508  if (bytes(tokenURI_).length > 0) {... */\n    tag_165:\n        /* \"ERC721.sol\":7607:7608  0 */\n      0x00\n        /* \"ERC721.sol\":7583:7596  _baseTokenURI */\n      0x07\n        /* \"ERC721.sol\":7577:7604  bytes(_baseTokenURI).length */\n      dup1\n      sload\n      tag_166\n      swap1\n      tag_95\n      jump\t// in\n    tag_166:\n      swap1\n      pop\n        /* \"ERC721.sol\":7577:7608  bytes(_baseTokenURI).length > 0 */\n      gt\n        /* \"ERC721.sol\":7577:7701  bytes(_baseTokenURI).length > 0... */\n      tag_167\n      jumpi\n      mload(0x40)\n      dup1\n      0x20\n      add\n      0x40\n      mstore\n      dup1\n      0x00\n      dup2\n      mstore\n      pop\n      jump(tag_168)\n    tag_167:\n        /* \"ERC721.sol\":7648:7661  _baseTokenURI */\n      0x07\n        /* \"ERC721.sol\":7663:7681  tokenId.toString() */\n      tag_169\n        /* \"ERC721.sol\":7663:7670  tokenId */\n      dup5\n        /* \"ERC721.sol\":7663:7679  tokenId.toString */\n      tag_170\n        /* \"ERC721.sol\":7663:7681  tokenId.toString() */\n      jump\t// in\n    tag_169:\n        /* \"ERC721.sol\":7631:7682  abi.encodePacked(_baseTokenURI, tokenId.toString()) */\n      add(0x20, mload(0x40))\n      tag_171\n      swap3\n      swap2\n      swap1\n      tag_172\n      jump\t// in\n    tag_171:\n      mload(0x40)\n      0x20\n      dup2\n      dup4\n      sub\n      sub\n      dup2\n      mstore\n      swap1\n      0x40\n      mstore\n        /* \"ERC721.sol\":7577:7701  bytes(_baseTokenURI).length > 0... */\n    tag_168:\n        /* \"ERC721.sol\":7570:7701  return bytes(_baseTokenURI).length > 0... */\n      swap2\n      pop\n      pop\n        /* \"ERC721.sol\":7146:7709  function tokenURI(uint256 tokenId) public view virtual override returns (string memory) {... */\n    tag_156:\n      swap2\n      swap1\n      pop\n      jump\t// out\n        /* \"ERC721.sol\":1750:2002  function mint(address to, string memory tokenURI_) external {... */\n    tag_85:\n        /* \"ERC721.sol\":1821:1836  uint256 tokenId */\n      0x00\n        /* \"ERC721.sol\":1839:1851  _nextTokenId */\n      sload(0x06)\n        /* \"ERC721.sol\":1821:1851  uint256 tokenId = _nextTokenId */\n      swap1\n      pop\n        /* \"ERC721.sol\":1862:1880  _mint(to, tokenId) */\n      tag_174\n        /* \"ERC721.sol\":1868:1870  to */\n      dup4\n        /* \"ERC721.sol\":1872:1879  tokenId */\n      dup3\n        /* \"ERC721.sol\":1862:1867  _mint */\n      tag_175\n        /* \"ERC721.sol\":1862:1880  _mint(to, tokenId) */\n      jump\t// in\n    tag_174:\n        /* \"ERC721.sol\":1913:1922  tokenURI_ */\n      dup2\n        /* \"ERC721.sol\":1891:1901  _tokenURIs */\n      0x08\n        /* \"ERC721.sol\":1891:1910  _tokenURIs[tokenId] */\n      0x00\n        /* \"ERC721.sol\":1902:1909  tokenId */\n      dup4\n        /* \"ERC721.sol\":1891:1910  _tokenURIs[tokenId] */\n      dup2\n      mstore\n      0x20\n      add\n      swap1\n      dup2\n      mstore\n      0x20\n      add\n      0x00\n      keccak256\n        /* \"ERC721.sol\":1891:1922  _tokenURIs[tokenId] = tokenURI_ */\n      swap1\n      dup2\n      tag_176\n      swap2\n      swap1\n      tag_119\n      jump\t// in\n    tag_176:\n      pop\n        /* \"ERC721.sol\":1933:1945  _nextTokenId */\n      0x06\n      0x00\n        /* \"ERC721.sol\":1933:1947  _nextTokenId++ */\n      dup2\n      sload\n      dup1\n      swap3\n      swap2\n      swap1\n      tag_177\n      swap1\n      tag_178\n      jump\t// in\n    tag_177:\n      swap2\n      swap1\n      pop\n      sstore\n      pop\n        /* \"ERC721.sol\":1975:1982  tokenId */\n      dup1\n        /* \"ERC721.sol\":1963:1994  TokenURISet(tokenId, tokenURI_) */\n      0xda84ca2183491f179a603e877b2cb058e42195041c2b9c53d746427e519a34df\n        /* \"ERC721.sol\":1984:1993  tokenURI_ */\n      dup4\n        /* \"ERC721.sol\":1963:1994  TokenURISet(tokenId, tokenURI_) */\n      mload(0x40)\n      tag_179\n      swap2\n      swap1\n      tag_31\n      jump\t// in\n    tag_179:\n      mload(0x40)\n      dup1\n      swap2\n      sub\n      swap1\n      log2\n        /* \"ERC721.sol\":1810:2002  {... */\n      pop\n        /* \"ERC721.sol\":1750:2002  function mint(address to, string memory tokenURI_) external {... */\n      pop\n      pop\n      jump\t// out\n        /* \"ERC721.sol\":2774:2973  function isApprovedForAll(address owner, address operator)... */\n    tag_89:\n        /* \"ERC721.sol\":2901:2905  bool */\n      0x00\n        /* \"ERC721.sol\":2930:2948  _operatorApprovals */\n      0x05\n        /* \"ERC721.sol\":2930:2955  _operatorApprovals[owner] */\n      0x00\n        /* \"ERC721.sol\":2949:2954  owner */\n      dup5\n        /* \"ERC721.sol\":2930:2955  _operatorApprovals[owner] */\n      0xffffffffffffffffffffffffffffffffffffffff\n      and\n      0xffffffffffffffffffffffffffffffffffffffff\n      and\n      dup2\n      mstore\n      0x20\n      add\n      swap1\n      dup2\n      mstore\n      0x20\n      add\n      0x00\n      keccak256\n        /* \"ERC721.sol\":2930:2965  _operatorApprovals[owner][operator] */\n      0x00\n        /* \"ERC721.sol\":2956:2964  operator */\n      dup4\n        /* \"ERC721.sol\":2930:2965  _operatorApprovals[owner][operator] */\n      0xffffffffffffffffffffffffffffffffffffffff\n      and\n      0xffffffffffffffffffffffffffffffffffffffff\n      and\n      dup2\n      mstore\n      0x20\n      add\n      swap1\n      dup2\n      mstore\n      0x20\n      add\n      0x00\n      keccak256\n      0x00\n      swap1\n      sload\n      swap1\n      0x0100\n      exp\n      swap1\n      div\n      0xff\n      and\n        /* \"ERC721.sol\":2923:2965  return _operatorApprovals[owner][operator] */\n      swap1\n      pop\n        /* \"ERC721.sol\":2774:2973  function isApprovedForAll(address owner, address operator)... */\n      swap3\n      swap2\n      pop\n      pop\n      jump\t// out\n        /* \"ERC721.sol\":3411:3604  function _approve(... */\n    tag_110:\n        /* \"ERC721.sol\":3550:3552  to */\n      dup2\n        /* \"ERC721.sol\":3523:3538  _tokenApprovals */\n      0x04\n        /* \"ERC721.sol\":3523:3547  _tokenApprovals[tokenId] */\n      0x00\n        /* \"ERC721.sol\":3539:3546  tokenId */\n      dup4\n        /* \"ERC721.sol\":3523:3547  _tokenApprovals[tokenId] */\n      dup2\n      mstore\n      0x20\n      add\n      swap1\n      dup2\n      mstore\n      0x20\n      add\n      0x00\n      keccak256\n      0x00\n        /* \"ERC721.sol\":3523:3552  _tokenApprovals[tokenId] = to */\n      0x0100\n      exp\n      dup2\n      sload\n      dup2\n      0xffffffffffffffffffffffffffffffffffffffff\n      mul\n      not\n      and\n      swap1\n      dup4\n      0xffffffffffffffffffffffffffffffffffffffff\n      and\n      mul\n      or\n      swap1\n      sstore\n      pop\n        /* \"ERC721.sol\":3588:3595  tokenId */\n      dup1\n        /* \"ERC721.sol\":3584:3586  to */\n      dup3\n        /* \"ERC721.sol\":3568:3596  Approval(owner, to, tokenId) */\n      0xffffffffffffffffffffffffffffffffffffffff\n      and\n        /* \"ERC721.sol\":3577:3582  owner */\n      dup5\n        /* \"ERC721.sol\":3568:3596  Approval(owner, to, tokenId) */\n      0xffffffffffffffffffffffffffffffffffffffff\n      and\n      0x8c5be1e5ebec7d5bd14f71427d1e84f3dd0314c0f7b2291e5b200ac8c7c3b925\n      mload(0x40)\n      mload(0x40)\n      dup1\n      swap2\n      sub\n      swap1\n      log4\n        /* \"ERC721.sol\":3411:3604  function _approve(... */\n      pop\n      pop\n      pop\n      jump\t// out\n        /* \"ERC721.sol\":3922:4205  function _isApprovedOrOwner(... */\n    tag_124:\n        /* \"ERC721.sol\":4052:4056  bool */\n      0x00\n        /* \"ERC721.sol\":4088:4093  owner */\n      dup4\n        /* \"ERC721.sol\":4077:4093  spender == owner */\n      0xffffffffffffffffffffffffffffffffffffffff\n      and\n        /* \"ERC721.sol\":4077:4084  spender */\n      dup4\n        /* \"ERC721.sol\":4077:4093  spender == owner */\n      0xffffffffffffffffffffffffffffffffffffffff\n      and\n      eq\n        /* \"ERC721.sol\":4077:4145  spender == owner ||... */\n      dup1\n      tag_183\n      jumpi\n      pop\n        /* \"ERC721.sol\":4138:4145  spender */\n      dup3\n        /* \"ERC721.sol\":4110:4145  _tokenApprovals[tokenId] == spender */\n      0xffffffffffffffffffffffffffffffffffffffff\n      and\n        /* \"ERC721.sol\":4110:4125  _tokenApprovals */\n      0x04\n        /* \"ERC721.sol\":4110:4134  _tokenApprovals[tokenId] */\n      0x00\n        /* \"ERC721.sol\":4126:4133  tokenId */\n      dup5\n        /* \"ERC721.sol\":4110:4134  _tokenApprovals[tokenId] */\n      dup2\n      mstore\n      0x20\n      add\n      swap1\n      dup2\n      mstore\n      0x20\n      add\n      0x00\n      keccak256\n      0x00\n      swap1\n      sload\n      swap1\n      0x0100\n      exp\n      swap1\n      div\n      0xffffffffffffffffffffffffffffffffffffffff\n      and\n        /* \"ERC721.sol\":4110:4145  _tokenApprovals[tokenId] == spender */\n      0xffffffffffffffffffffffffffffffffffffffff\n      and\n      eq\n        /* \"ERC721.sol\":4077:4145  spender == owner ||... */\n    tag_183:\n        /* \"ERC721.sol\":4077:4196  spender == owner ||... */\n      dup1\n      tag_184\n      jumpi\n      pop\n        /* \"ERC721.sol\":4162:4180  _operatorApprovals */\n      0x05\n        /* \"ERC721.sol\":4162:4187  _operatorApprovals[owner] */\n      0x00\n        /* \"ERC721.sol\":4181:4186  owner */\n      dup6\n        /* \"ERC721.sol\":4162:4187  _operatorApprovals[owner] */\n      0xffffffffffffffffffffffffffffffffffffffff\n      and\n      0xffffffffffffffffffffffffffffffffffffffff\n      and\n      dup2\n      mstore\n      0x20\n      add\n      swap1\n      dup2\n      mstore\n      0x20\n      add\n      0x00\n      keccak256\n        /* \"ERC721.sol\":4162:4196  _operatorApprovals[owner][spender] */\n      0x00\n        /* \"ERC721.sol\":4188:4195  spender */\n      dup5\n        /* \"ERC721.sol\":4162:4196  _operatorApprovals[owner][spender] */\n      0xffffffffffffffffffffffffffffffffffffffff\n      and\n      0xffffffffffffffffffffffffffffffffffffffff\n      and\n      dup2\n      mstore\n      0x20\n      add\n      swap1\n      dup2\n      mstore\n      0x20\n      add\n      0x00\n      keccak256\n      0x00\n      swap1\n      sload\n      swap1\n      0x0100\n      exp\n      swap1\n      div\n      0xff\n      and\n        /* \"ERC721.sol\":4077:4196  spender == owner ||... */\n    tag_184:\n        /* \"ERC721.sol\":4069:4197  return (spender == owner ||... */\n      swap1\n      pop\n        /* \"ERC721.sol\":3922:4205  function _isApprovedOrOwner(... */\n      swap4\n      swap3\n      pop\n      pop\n      pop\n      jump\t// out\n        /* \"ERC721.sol\":4213:4648  function _transfer(... */\n    tag_129:\n        /* \"ERC721.sol\":4365:4370  owner */\n      dup4\n        /* \"ERC721.sol\":4357:4370  from == owner */\n      0xffffffffffffffffffffffffffffffffffffffff\n      and\n        /* \"ERC721.sol\":4357:4361  from */\n      dup4\n        /* \"ERC721.sol\":4357:4370  from == owner */\n      0xffffffffffffffffffffffffffffffffffffffff\n      and\n      eq\n        /* \"ERC721.sol\":4349:4384  require(from == owner, \"not owner\") */\n      tag_186\n      jumpi\n      mload(0x40)\n      0x08c379a000000000000000000000000000000000000000000000000000000000\n      dup2\n      mstore\n      0x04\n      add\n      tag_187\n      swap1\n      tag_188\n      jump\t// in\n    tag_187:\n      mload(0x40)\n      dup1\n      swap2\n      sub\n      swap1\n      revert\n    tag_186:\n        /* \"ERC721.sol\":4417:4418  0 */\n      0x00\n        /* \"ERC721.sol\":4403:4419  to != address(0) */\n      0xffffffffffffffffffffffffffffffffffffffff\n      and\n        /* \"ERC721.sol\":4403:4405  to */\n      dup3\n        /* \"ERC721.sol\":4403:4419  to != address(0) */\n      0xffffffffffffffffffffffffffffffffffffffff\n      and\n      sub\n        /* \"ERC721.sol\":4395:4452  require(to != address(0), \"transfer to the zero address\") */\n      tag_189\n      jumpi\n      mload(0x40)\n      0x08c379a000000000000000000000000000000000000000000000000000000000\n      dup2\n      mstore\n      0x04\n      add\n      tag_190\n      swap1\n      tag_191\n      jump\t// in\n    tag_190:\n      mload(0x40)\n      dup1\n      swap2\n      sub\n      swap1\n      revert\n    tag_189:\n        /* \"ERC721.sol\":4465:4501  _approve(owner, address(0), tokenId) */\n      tag_192\n        /* \"ERC721.sol\":4474:4479  owner */\n      dup5\n        /* \"ERC721.sol\":4489:4490  0 */\n      0x00\n        /* \"ERC721.sol\":4493:4500  tokenId */\n      dup4\n        /* \"ERC721.sol\":4465:4473  _approve */\n      tag_110\n        /* \"ERC721.sol\":4465:4501  _approve(owner, address(0), tokenId) */\n      jump\t// in\n    tag_192:\n        /* \"ERC721.sol\":4533:4534  1 */\n      0x01\n        /* \"ERC721.sol\":4514:4523  _balances */\n      0x03\n        /* \"ERC721.sol\":4514:4529  _balances[from] */\n      0x00\n        /* \"ERC721.sol\":4524:4528  from */\n      dup6\n        /* \"ERC721.sol\":4514:4529  _balances[from] */\n      0xffffffffffffffffffffffffffffffffffffffff\n      and\n      0xffffffffffffffffffffffffffffffffffffffff\n      and\n      dup2\n      mstore\n      0x20\n      add\n      swap1\n      dup2\n      mstore\n      0x20\n      add\n      0x00\n      keccak256\n      0x00\n        /* \"ERC721.sol\":4514:4534  _balances[from] -= 1 */\n      dup3\n      dup3\n      sload\n      tag_193\n      swap2\n      swap1\n      tag_194\n      jump\t// in\n    tag_193:\n      swap3\n      pop\n      pop\n      dup2\n      swap1\n      sstore\n      pop\n        /* \"ERC721.sol\":4562:4563  1 */\n      0x01\n        /* \"ERC721.sol\":4545:4554  _balances */\n      0x03\n        /* \"ERC721.sol\":4545:4558  _balances[to] */\n      0x00\n        /* \"ERC721.sol\":4555:4557  to */\n      dup5\n        /* \"ERC721.sol\":4545:4558  _balances[to] */\n      0xffffffffffffffffffffffffffffffffffffffff\n      and\n      0xffffffffffffffffffffffffffffffffffffffff\n      and\n      dup2\n      mstore\n      0x20\n      add\n      swap1\n      dup2\n      mstore\n      0x20\n      add\n      0x00\n      keccak256\n      0x00\n        /* \"ERC721.sol\":4545:4563  _balances[to] += 1 */\n      dup3\n      dup3\n      sload\n      tag_195\n      swap2\n      swap1\n      tag_196\n      jump\t// in\n    tag_195:\n      swap3\n      pop\n      pop\n      dup2\n      swap1\n      sstore\n      pop\n        /* \"ERC721.sol\":4593:4595  to */\n      dup2\n        /* \"ERC721.sol\":4574:4581  _owners */\n      0x02\n        /* \"ERC721.sol\":4574:4590  _owners[tokenId] */\n      0x00\n        /* \"ERC721.sol\":4582:4589  tokenId */\n      dup4\n        /* \"ERC721.sol\":4574:4590  _owners[tokenId] */\n      dup2\n      mstore\n      0x20\n      add\n      swap1\n      dup2\n      mstore\n      0x20\n      add\n      0x00\n      keccak256\n      0x00\n        /* \"ERC721.sol\":4574:4595  _owners[tokenId] = to */\n      0x0100\n      exp\n      dup2\n      sload\n      dup2\n      0xffffffffffffffffffffffffffffffffffffffff\n      mul\n      not\n      and\n      swap1\n      dup4\n      0xffffffffffffffffffffffffffffffffffffffff\n      and\n      mul\n      or\n      swap1\n      sstore\n      pop\n        /* \"ERC721.sol\":4632:4639  tokenId */\n      dup1\n        /* \"ERC721.sol\":4628:4630  to */\n      dup3\n        /* \"ERC721.sol\":4613:4640  Transfer(from, to, tokenId) */\n      0xffffffffffffffffffffffffffffffffffffffff\n      and\n        /* \"ERC721.sol\":4622:4626  from */\n      dup5\n        /* \"ERC721.sol\":4613:4640  Transfer(from, to, tokenId) */\n      0xffffffffffffffffffffffffffffffffffffffff\n      and\n      0xddf252ad1be2c89b69c2b068fc378daa952ba7f163c4a11628f55a4df523b3ef\n      mload(0x40)\n      mload(0x40)\n      dup1\n      swap2\n      sub\n      swap1\n      log4\n        /* \"ERC721.sol\":4213:4648  function _transfer(... */\n      pop\n      pop\n      pop\n      pop\n      jump\t// out\n        /* \"ERC721.sol\":5008:5310  function _safeTransfer(... */\n    tag_155:\n        /* \"ERC721.sol\":5177:5212  _transfer(owner, from, to, tokenId) */\n      tag_198\n        /* \"ERC721.sol\":5187:5192  owner */\n      dup6\n        /* \"ERC721.sol\":5194:5198  from */\n      dup6\n        /* \"ERC721.sol\":5200:5202  to */\n      dup6\n        /* \"ERC721.sol\":5204:5211  tokenId */\n      dup6\n        /* \"ERC721.sol\":5177:5186  _transfer */\n      tag_129\n        /* \"ERC721.sol\":5177:5212  _transfer(owner, from, to, tokenId) */\n      jump\t// in\n    tag_198:\n        /* \"ERC721.sol\":5231:5279  _checkOnERC721Received(from, to, tokenId, _data) */\n      tag_199\n        /* \"ERC721.sol\":5254:5258  from */\n      dup5\n        /* \"ERC721.sol\":5260:5262  to */\n      dup5\n        /* \"ERC721.sol\":5264:5271  tokenId */\n      dup5\n        /* \"ERC721.sol\":5273:5278  _data */\n      dup5\n        /* \"ERC721.sol\":5231:5253  _checkOnERC721Received */\n      tag_200\n        /* \"ERC721.sol\":5231:5279  _checkOnERC721Received(from, to, tokenId, _data) */\n      jump\t// in\n    tag_199:\n        /* \"ERC721.sol\":5223:5302  require(_checkOnERC721Received(from, to, tokenId, _data), \"not ERC721Receiver\") */\n      tag_201\n      jumpi\n      mload(0x40)\n      0x08c379a000000000000000000000000000000000000000000000000000000000\n      dup2\n      mstore\n      0x04\n      add\n      tag_202\n      swap1\n      tag_203\n      jump\t// in\n    tag_202:\n      mload(0x40)\n      dup1\n      swap2\n      sub\n      swap1\n      revert\n    tag_201:\n        /* \"ERC721.sol\":5008:5310  function _safeTransfer(... */\n      pop\n      pop\n      pop\n      pop\n      pop\n      jump\t// out\n        /* \"String.sol\":407:1130  function toString(uint256 value) internal pure returns (string memory) {... */\n    tag_170:\n        /* \"String.sol\":463:476  string memory */\n      0x60\n        /* \"String.sol\":693:694  0 */\n      0x00\n        /* \"String.sol\":684:689  value */\n      dup3\n        /* \"String.sol\":684:694  value == 0 */\n      sub\n        /* \"String.sol\":680:733  if (value == 0) {... */\n      tag_205\n      jumpi\n        /* \"String.sol\":711:721  return \"0\" */\n      mload(0x40)\n      dup1\n      0x40\n      add\n      0x40\n      mstore\n      dup1\n      0x01\n      dup2\n      mstore\n      0x20\n      add\n      0x3000000000000000000000000000000000000000000000000000000000000000\n      dup2\n      mstore\n      pop\n      swap1\n      pop\n      jump(tag_204)\n        /* \"String.sol\":680:733  if (value == 0) {... */\n    tag_205:\n        /* \"String.sol\":743:755  uint256 temp */\n      0x00\n        /* \"String.sol\":758:763  value */\n      dup3\n        /* \"String.sol\":743:763  uint256 temp = value */\n      swap1\n      pop\n        /* \"String.sol\":774:788  uint256 digits */\n      0x00\n        /* \"String.sol\":799:877  while (temp != 0) {... */\n    tag_206:\n        /* \"String.sol\":814:815  0 */\n      0x00\n        /* \"String.sol\":806:810  temp */\n      dup3\n        /* \"String.sol\":806:815  temp != 0 */\n      eq\n        /* \"String.sol\":799:877  while (temp != 0) {... */\n      tag_207\n      jumpi\n        /* \"String.sol\":832:840  digits++ */\n      dup1\n      dup1\n      tag_208\n      swap1\n      tag_178\n      jump\t// in\n    tag_208:\n      swap2\n      pop\n      pop\n        /* \"String.sol\":863:865  10 */\n      0x0a\n        /* \"String.sol\":855:865  temp /= 10 */\n      dup3\n      tag_209\n      swap2\n      swap1\n      tag_210\n      jump\t// in\n    tag_209:\n      swap2\n      pop\n        /* \"String.sol\":799:877  while (temp != 0) {... */\n      jump(tag_206)\n    tag_207:\n        /* \"String.sol\":887:906  bytes memory buffer */\n      0x00\n        /* \"String.sol\":919:925  digits */\n      dup2\n        /* \"String.sol\":909:926  new bytes(digits) */\n      0xffffffffffffffff\n      dup2\n      gt\n      iszero\n      tag_211\n      jumpi\n      tag_212\n      tag_213\n      jump\t// in\n    tag_212:\n    tag_211:\n      mload(0x40)\n      swap1\n      dup1\n      dup3\n      mstore\n      dup1\n      0x1f\n      add\n      not(0x1f)\n      and\n      0x20\n      add\n      dup3\n      add\n      0x40\n      mstore\n      dup1\n      iszero\n      tag_214\n      jumpi\n      dup2\n      0x20\n      add\n      0x01\n      dup3\n      mul\n      dup1\n      calldatasize\n      dup4\n      calldatacopy\n      dup1\n      dup3\n      add\n      swap2\n      pop\n      pop\n      swap1\n      pop\n    tag_214:\n      pop\n        /* \"String.sol\":887:926  bytes memory buffer = new bytes(digits) */\n      swap1\n      pop\n        /* \"String.sol\":937:1091  while (value != 0) {... */\n    tag_215:\n        /* \"String.sol\":953:954  0 */\n      0x00\n        /* \"String.sol\":944:949  value */\n      dup6\n        /* \"String.sol\":944:954  value != 0 */\n      eq\n        /* \"String.sol\":937:1091  while (value != 0) {... */\n      tag_216\n      jumpi\n        /* \"String.sol\":981:982  1 */\n      0x01\n        /* \"String.sol\":971:982  digits -= 1 */\n      dup3\n      tag_217\n      swap2\n      swap1\n      tag_194\n      jump\t// in\n    tag_217:\n      swap2\n      pop\n        /* \"String.sol\":1048:1050  10 */\n      0x0a\n        /* \"String.sol\":1040:1045  value */\n      dup6\n        /* \"String.sol\":1040:1050  value % 10 */\n      tag_218\n      swap2\n      swap1\n      tag_219\n      jump\t// in\n    tag_218:\n        /* \"String.sol\":1027:1029  48 */\n      0x30\n        /* \"String.sol\":1027:1051  48 + uint256(value % 10) */\n      tag_220\n      swap2\n      swap1\n      tag_196\n      jump\t// in\n    tag_220:\n        /* \"String.sol\":1014:1053  bytes1(uint8(48 + uint256(value % 10))) */\n      0xf8\n      shl\n        /* \"String.sol\":997:1003  buffer */\n      dup2\n        /* \"String.sol\":1004:1010  digits */\n      dup4\n        /* \"String.sol\":997:1011  buffer[digits] */\n      dup2\n      mload\n      dup2\n      lt\n      tag_221\n      jumpi\n      tag_222\n      tag_223\n      jump\t// in\n    tag_222:\n    tag_221:\n      0x20\n      add\n      add\n        /* \"String.sol\":997:1053  buffer[digits] = bytes1(uint8(48 + uint256(value % 10))) */\n      swap1\n      not(0xffffffffffffffffffffffffffffffffffffffffffffffffffffffffffffff)\n      and\n      swap1\n      dup2\n      0x00\n      byte\n      swap1\n      mstore8\n      pop\n        /* \"String.sol\":1077:1079  10 */\n      0x0a\n        /* \"String.sol\":1068:1079  value /= 10 */\n      dup6\n      tag_224\n      swap2\n      swap1\n      tag_210\n      jump\t// in\n    tag_224:\n      swap5\n      pop\n        /* \"String.sol\":937:1091  while (value != 0) {... */\n      jump(tag_215)\n    tag_216:\n        /* \"String.sol\":1115:1121  buffer */\n      dup1\n        /* \"String.sol\":1101:1122  return string(buffer) */\n      swap4\n      pop\n      pop\n      pop\n      pop\n        /* \"String.sol\":407:1130  function toString(uint256 value) internal pure returns (string memory) {... */\n    tag_204:\n      swap2\n      swap1\n      pop\n      jump\t// out\n        /* \"ERC721.sol\":5892:6206  function _mint(address to, uint tokenId) internal virtual {... */\n    tag_175:\n        /* \"ERC721.sol\":5983:5984  0 */\n      0x00\n        /* \"ERC721.sol\":5969:5985  to != address(0) */\n      0xffffffffffffffffffffffffffffffffffffffff\n      and\n        /* \"ERC721.sol\":5969:5971  to */\n      dup3\n        /* \"ERC721.sol\":5969:5985  to != address(0) */\n      0xffffffffffffffffffffffffffffffffffffffff\n      and\n      sub\n        /* \"ERC721.sol\":5961:6010  require(to != address(0), \"mint to zero address\") */\n      tag_226\n      jumpi\n      mload(0x40)\n      0x08c379a000000000000000000000000000000000000000000000000000000000\n      dup2\n      mstore\n      0x04\n      add\n      tag_227\n      swap1\n      tag_228\n      jump\t// in\n    tag_227:\n      mload(0x40)\n      dup1\n      swap2\n      sub\n      swap1\n      revert\n    tag_226:\n        /* \"ERC721.sol\":6057:6058  0 */\n      0x00\n        /* \"ERC721.sol\":6029:6059  _owners[tokenId] == address(0) */\n      0xffffffffffffffffffffffffffffffffffffffff\n      and\n        /* \"ERC721.sol\":6029:6036  _owners */\n      0x02\n        /* \"ERC721.sol\":6029:6045  _owners[tokenId] */\n      0x00\n        /* \"ERC721.sol\":6037:6044  tokenId */\n      dup4\n        /* \"ERC721.sol\":6029:6045  _owners[tokenId] */\n      dup2\n      mstore\n      0x20\n      add\n      swap1\n      dup2\n      mstore\n      0x20\n      add\n      0x00\n      keccak256\n      0x00\n      swap1\n      sload\n      swap1\n      0x0100\n      exp\n      swap1\n      div\n      0xffffffffffffffffffffffffffffffffffffffff\n      and\n        /* \"ERC721.sol\":6029:6059  _owners[tokenId] == address(0) */\n      0xffffffffffffffffffffffffffffffffffffffff\n      and\n      eq\n        /* \"ERC721.sol\":6021:6084  require(_owners[tokenId] == address(0), \"token already minted\") */\n      tag_229\n      jumpi\n      mload(0x40)\n      0x08c379a000000000000000000000000000000000000000000000000000000000\n      dup2\n      mstore\n      0x04\n      add\n      tag_230\n      swap1\n      tag_231\n      jump\t// in\n    tag_230:\n      mload(0x40)\n      dup1\n      swap2\n      sub\n      swap1\n      revert\n    tag_229:\n        /* \"ERC721.sol\":6114:6115  1 */\n      0x01\n        /* \"ERC721.sol\":6097:6106  _balances */\n      0x03\n        /* \"ERC721.sol\":6097:6110  _balances[to] */\n      0x00\n        /* \"ERC721.sol\":6107:6109  to */\n      dup5\n        /* \"ERC721.sol\":6097:6110  _balances[to] */\n      0xffffffffffffffffffffffffffffffffffffffff\n      and\n      0xffffffffffffffffffffffffffffffffffffffff\n      and\n      dup2\n      mstore\n      0x20\n      add\n      swap1\n      dup2\n      mstore\n      0x20\n      add\n      0x00\n      keccak256\n      0x00\n        /* \"ERC721.sol\":6097:6115  _balances[to] += 1 */\n      dup3\n      dup3\n      sload\n      tag_232\n      swap2\n      swap1\n      tag_196\n      jump\t// in\n    tag_232:\n      swap3\n      pop\n      pop\n      dup2\n      swap1\n      sstore\n      pop\n        /* \"ERC721.sol\":6145:6147  to */\n      dup2\n        /* \"ERC721.sol\":6126:6133  _owners */\n      0x02\n        /* \"ERC721.sol\":6126:6142  _owners[tokenId] */\n      0x00\n        /* \"ERC721.sol\":6134:6141  tokenId */\n      dup4\n        /* \"ERC721.sol\":6126:6142  _owners[tokenId] */\n      dup2\n      mstore\n      0x20\n      add\n      swap1\n      dup2\n      mstore\n      0x20\n      add\n      0x00\n      keccak256\n      0x00\n        /* \"ERC721.sol\":6126:6147  _owners[tokenId] = to */\n      0x0100\n      exp\n      dup2\n      sload\n      dup2\n      0xffffffffffffffffffffffffffffffffffffffff\n      mul\n      not\n      and\n      swap1\n      dup4\n      0xffffffffffffffffffffffffffffffffffffffff\n      and\n      mul\n      or\n      swap1\n      sstore\n      pop\n        /* \"ERC721.sol\":6190:6197  tokenId */\n      dup1\n        /* \"ERC721.sol\":6186:6188  to */\n      dup3\n        /* \"ERC721.sol\":6165:6198  Transfer(address(0), to, tokenId) */\n      0xffffffffffffffffffffffffffffffffffffffff\n      and\n        /* \"ERC721.sol\":6182:6183  0 */\n      0x00\n        /* \"ERC721.sol\":6165:6198  Transfer(address(0), to, tokenId) */\n      0xffffffffffffffffffffffffffffffffffffffff\n      and\n      0xddf252ad1be2c89b69c2b068fc378daa952ba7f163c4a11628f55a4df523b3ef\n      mload(0x40)\n      mload(0x40)\n      dup1\n      swap2\n      sub\n      swap1\n      log4\n        /* \"ERC721.sol\":5892:6206  function _mint(address to, uint tokenId) internal virtual {... */\n      pop\n      pop\n      jump\t// out\n        /* \"ERC721.sol\":6588:7098  function _checkOnERC721Received(... */\n    tag_200:\n        /* \"ERC721.sol\":6740:6744  bool */\n      0x00\n        /* \"ERC721.sol\":6761:6776  to.isContract() */\n      tag_234\n        /* \"ERC721.sol\":6761:6763  to */\n      dup5\n        /* \"ERC721.sol\":6761:6774  to.isContract */\n      0xffffffffffffffffffffffffffffffffffffffff\n      and\n      tag_235\n        /* \"ERC721.sol\":6761:6776  to.isContract() */\n      jump\t// in\n    tag_234:\n        /* \"ERC721.sol\":6757:7091  if (to.isContract()) {... */\n      iszero\n      tag_236\n      jumpi\n        /* \"ERC721.sol\":6994:7035  IERC721Receiver.onERC721Received.selector */\n      shl(0xe0, 0x150b7a02)\n        /* \"ERC721.sol\":6817:7035  IERC721Receiver(to).onERC721Received(... */\n      not(0xffffffffffffffffffffffffffffffffffffffffffffffffffffffff)\n      and\n        /* \"ERC721.sol\":6833:6835  to */\n      dup5\n        /* \"ERC721.sol\":6817:6853  IERC721Receiver(to).onERC721Received */\n      0xffffffffffffffffffffffffffffffffffffffff\n      and\n      0x150b7a02\n        /* \"ERC721.sol\":6876:6886  msg.sender */\n      caller\n        /* \"ERC721.sol\":6909:6913  from */\n      dup9\n        /* \"ERC721.sol\":6936:6943  tokenId */\n      dup8\n        /* \"ERC721.sol\":6966:6971  _data */\n      dup8\n        /* \"ERC721.sol\":6817:6990  IERC721Receiver(to).onERC721Received(... */\n      mload(0x40)\n      dup6\n      0xffffffff\n      and\n      0xe0\n      shl\n      dup2\n      mstore\n      0x04\n      add\n      tag_237\n      swap5\n      swap4\n      swap3\n      swap2\n      swap1\n      tag_238\n      jump\t// in\n    tag_237:\n      0x20\n      mload(0x40)\n      dup1\n      dup4\n      sub\n      dup2\n      0x00\n      dup8\n      gas\n      call\n      iszero\n      dup1\n      iszero\n      tag_240\n      jumpi\n      returndatasize\n      0x00\n      dup1\n      returndatacopy\n      revert(0x00, returndatasize)\n    tag_240:\n      pop\n      pop\n      pop\n      pop\n      mload(0x40)\n      returndatasize\n      not(0x1f)\n      0x1f\n      dup3\n      add\n      and\n      dup3\n      add\n      dup1\n      0x40\n      mstore\n      pop\n      dup2\n      add\n      swap1\n      tag_241\n      swap2\n      swap1\n      tag_242\n      jump\t// in\n    tag_241:\n        /* \"ERC721.sol\":6817:7035  IERC721Receiver(to).onERC721Received(... */\n      not(0xffffffffffffffffffffffffffffffffffffffffffffffffffffffff)\n      and\n      eq\n        /* \"ERC721.sol\":6793:7035  return... */\n      swap1\n      pop\n      jump(tag_233)\n        /* \"ERC721.sol\":6757:7091  if (to.isContract()) {... */\n    tag_236:\n        /* \"ERC721.sol\":7075:7079  true */\n      0x01\n        /* \"ERC721.sol\":7068:7079  return true */\n      swap1\n      pop\n        /* \"ERC721.sol\":6588:7098  function _checkOnERC721Received(... */\n    tag_233:\n      swap5\n      swap4\n      pop\n      pop\n      pop\n      pop\n      jump\t// out\n        /* \"Address.sol\":163:356  function isContract(address account) internal view returns (bool) {... */\n    tag_235:\n        /* \"Address.sol\":223:227  bool */\n      0x00\n        /* \"Address.sol\":240:249  uint size */\n      dup1\n        /* \"Address.sol\":304:311  account */\n      dup3\n        /* \"Address.sol\":292:312  extcodesize(account) */\n      extcodesize\n        /* \"Address.sol\":284:312  size := extcodesize(account) */\n      swap1\n      pop\n        /* \"Address.sol\":347:348  0 */\n      0x00\n        /* \"Address.sol\":340:344  size */\n      dup2\n        /* \"Address.sol\":340:348  size > 0 */\n      gt\n        /* \"Address.sol\":333:348  return size > 0 */\n      swap2\n      pop\n      pop\n        /* \"Address.sol\":163:356  function isContract(address account) internal view returns (bool) {... */\n      swap2\n      swap1\n      pop\n      jump\t// out\n        /* \"#utility.yul\":7:82   */\n    tag_245:\n        /* \"#utility.yul\":40:46   */\n      0x00\n        /* \"#utility.yul\":73:75   */\n      0x40\n        /* \"#utility.yul\":67:76   */\n      mload\n        /* \"#utility.yul\":57:76   */\n      swap1\n      pop\n        /* \"#utility.yul\":7:82   */\n      swap1\n      jump\t// out\n        /* \"#utility.yul\":88:205   */\n    tag_246:\n        /* \"#utility.yul\":197:198   */\n      0x00\n        /* \"#utility.yul\":194:195   */\n      dup1\n        /* \"#utility.yul\":187:199   */\n      revert\n        /* \"#utility.yul\":211:328   */\n    tag_247:\n        /* \"#utility.yul\":320:321   */\n      0x00\n        /* \"#utility.yul\":317:318   */\n      dup1\n        /* \"#utility.yul\":310:322   */\n      revert\n        /* \"#utility.yul\":334:483   */\n    tag_248:\n        /* \"#utility.yul\":370:377   */\n      0x00\n        /* \"#utility.yul\":410:476   */\n      0xffffffff00000000000000000000000000000000000000000000000000000000\n        /* \"#utility.yul\":403:408   */\n      dup3\n        /* \"#utility.yul\":399:477   */\n      and\n        /* \"#utility.yul\":388:477   */\n      swap1\n      pop\n        /* \"#utility.yul\":334:483   */\n      swap2\n      swap1\n      pop\n      jump\t// out\n        /* \"#utility.yul\":489:609   */\n    tag_249:\n        /* \"#utility.yul\":561:584   */\n      tag_335\n        /* \"#utility.yul\":578:583   */\n      dup2\n        /* \"#utility.yul\":561:584   */\n      tag_248\n      jump\t// in\n    tag_335:\n        /* \"#utility.yul\":554:559   */\n      dup2\n        /* \"#utility.yul\":551:585   */\n      eq\n        /* \"#utility.yul\":541:603   */\n      tag_336\n      jumpi\n        /* \"#utility.yul\":599:600   */\n      0x00\n        /* \"#utility.yul\":596:597   */\n      dup1\n        /* \"#utility.yul\":589:601   */\n      revert\n        /* \"#utility.yul\":541:603   */\n    tag_336:\n        /* \"#utility.yul\":489:609   */\n      pop\n      jump\t// out\n        /* \"#utility.yul\":615:752   */\n    tag_250:\n        /* \"#utility.yul\":660:665   */\n      0x00\n        /* \"#utility.yul\":698:704   */\n      dup2\n        /* \"#utility.yul\":685:705   */\n      calldataload\n        /* \"#utility.yul\":676:705   */\n      swap1\n      pop\n        /* \"#utility.yul\":714:746   */\n      tag_338\n        /* \"#utility.yul\":740:745   */\n      dup2\n        /* \"#utility.yul\":714:746   */\n      tag_249\n      jump\t// in\n    tag_338:\n        /* \"#utility.yul\":615:752   */\n      swap3\n      swap2\n      pop\n      pop\n      jump\t// out\n        /* \"#utility.yul\":758:1085   */\n    tag_24:\n        /* \"#utility.yul\":816:822   */\n      0x00\n        /* \"#utility.yul\":865:867   */\n      0x20\n        /* \"#utility.yul\":853:862   */\n      dup3\n        /* \"#utility.yul\":844:851   */\n      dup5\n        /* \"#utility.yul\":840:863   */\n      sub\n        /* \"#utility.yul\":836:868   */\n      slt\n        /* \"#utility.yul\":833:952   */\n      iszero\n      tag_340\n      jumpi\n        /* \"#utility.yul\":871:950   */\n      tag_341\n      tag_246\n      jump\t// in\n    tag_341:\n        /* \"#utility.yul\":833:952   */\n    tag_340:\n        /* \"#utility.yul\":991:992   */\n      0x00\n        /* \"#utility.yul\":1016:1068   */\n      tag_342\n        /* \"#utility.yul\":1060:1067   */\n      dup5\n        /* \"#utility.yul\":1051:1057   */\n      dup3\n        /* \"#utility.yul\":1040:1049   */\n      dup6\n        /* \"#utility.yul\":1036:1058   */\n      add\n        /* \"#utility.yul\":1016:1068   */\n      tag_250\n      jump\t// in\n    tag_342:\n        /* \"#utility.yul\":1006:1068   */\n      swap2\n      pop\n        /* \"#utility.yul\":962:1078   */\n      pop\n        /* \"#utility.yul\":758:1085   */\n      swap3\n      swap2\n      pop\n      pop\n      jump\t// out\n        /* \"#utility.yul\":1091:1181   */\n    tag_251:\n        /* \"#utility.yul\":1125:1132   */\n      0x00\n        /* \"#utility.yul\":1168:1173   */\n      dup2\n        /* \"#utility.yul\":1161:1174   */\n      iszero\n        /* \"#utility.yul\":1154:1175   */\n      iszero\n        /* \"#utility.yul\":1143:1175   */\n      swap1\n      pop\n        /* \"#utility.yul\":1091:1181   */\n      swap2\n      swap1\n      pop\n      jump\t// out\n        /* \"#utility.yul\":1187:1296   */\n    tag_252:\n        /* \"#utility.yul\":1268:1289   */\n      tag_345\n        /* \"#utility.yul\":1283:1288   */\n      dup2\n        /* \"#utility.yul\":1268:1289   */\n      tag_251\n      jump\t// in\n    tag_345:\n        /* \"#utility.yul\":1263:1266   */\n      dup3\n        /* \"#utility.yul\":1256:1290   */\n      mstore\n        /* \"#utility.yul\":1187:1296   */\n      pop\n      pop\n      jump\t// out\n        /* \"#utility.yul\":1302:1512   */\n    tag_27:\n        /* \"#utility.yul\":1389:1393   */\n      0x00\n        /* \"#utility.yul\":1427:1429   */\n      0x20\n        /* \"#utility.yul\":1416:1425   */\n      dup3\n        /* \"#utility.yul\":1412:1430   */\n      add\n        /* \"#utility.yul\":1404:1430   */\n      swap1\n      pop\n        /* \"#utility.yul\":1440:1505   */\n      tag_347\n        /* \"#utility.yul\":1502:1503   */\n      0x00\n        /* \"#utility.yul\":1491:1500   */\n      dup4\n        /* \"#utility.yul\":1487:1504   */\n      add\n        /* \"#utility.yul\":1478:1484   */\n      dup5\n        /* \"#utility.yul\":1440:1505   */\n      tag_252\n      jump\t// in\n    tag_347:\n        /* \"#utility.yul\":1302:1512   */\n      swap3\n      swap2\n      pop\n      pop\n      jump\t// out\n        /* \"#utility.yul\":1518:1617   */\n    tag_253:\n        /* \"#utility.yul\":1570:1576   */\n      0x00\n        /* \"#utility.yul\":1604:1609   */\n      dup2\n        /* \"#utility.yul\":1598:1610   */\n      mload\n        /* \"#utility.yul\":1588:1610   */\n      swap1\n      pop\n        /* \"#utility.yul\":1518:1617   */\n      swap2\n      swap1\n      pop\n      jump\t// out\n        /* \"#utility.yul\":1623:1792   */\n    tag_254:\n        /* \"#utility.yul\":1707:1718   */\n      0x00\n        /* \"#utility.yul\":1741:1747   */\n      dup3\n        /* \"#utility.yul\":1736:1739   */\n      dup3\n        /* \"#utility.yul\":1729:1748   */\n      mstore\n        /* \"#utility.yul\":1781:1785   */\n      0x20\n        /* \"#utility.yul\":1776:1779   */\n      dup3\n        /* \"#utility.yul\":1772:1786   */\n      add\n        /* \"#utility.yul\":1757:1786   */\n      swap1\n      pop\n        /* \"#utility.yul\":1623:1792   */\n      swap3\n      swap2\n      pop\n      pop\n      jump\t// out\n        /* \"#utility.yul\":1798:2044   */\n    tag_255:\n        /* \"#utility.yul\":1879:1880   */\n      0x00\n        /* \"#utility.yul\":1889:2002   */\n    tag_351:\n        /* \"#utility.yul\":1903:1909   */\n      dup4\n        /* \"#utility.yul\":1900:1901   */\n      dup2\n        /* \"#utility.yul\":1897:1910   */\n      lt\n        /* \"#utility.yul\":1889:2002   */\n      iszero\n      tag_353\n      jumpi\n        /* \"#utility.yul\":1988:1989   */\n      dup1\n        /* \"#utility.yul\":1983:1986   */\n      dup3\n        /* \"#utility.yul\":1979:1990   */\n      add\n        /* \"#utility.yul\":1973:1991   */\n      mload\n        /* \"#utility.yul\":1969:1970   */\n      dup2\n        /* \"#utility.yul\":1964:1967   */\n      dup5\n        /* \"#utility.yul\":1960:1971   */\n      add\n        /* \"#utility.yul\":1953:1992   */\n      mstore\n        /* \"#utility.yul\":1925:1927   */\n      0x20\n        /* \"#utility.yul\":1922:1923   */\n      dup2\n        /* \"#utility.yul\":1918:1928   */\n      add\n        /* \"#utility.yul\":1913:1928   */\n      swap1\n      pop\n        /* \"#utility.yul\":1889:2002   */\n      jump(tag_351)\n    tag_353:\n        /* \"#utility.yul\":2036:2037   */\n      0x00\n        /* \"#utility.yul\":2027:2033   */\n      dup5\n        /* \"#utility.yul\":2022:2025   */\n      dup5\n        /* \"#utility.yul\":2018:2034   */\n      add\n        /* \"#utility.yul\":2011:2038   */\n      mstore\n        /* \"#utility.yul\":1860:2044   */\n      pop\n        /* \"#utility.yul\":1798:2044   */\n      pop\n      pop\n      pop\n      jump\t// out\n        /* \"#utility.yul\":2050:2152   */\n    tag_256:\n        /* \"#utility.yul\":2091:2097   */\n      0x00\n        /* \"#utility.yul\":2142:2144   */\n      0x1f\n        /* \"#utility.yul\":2138:2145   */\n      not\n        /* \"#utility.yul\":2133:2135   */\n      0x1f\n        /* \"#utility.yul\":2126:2131   */\n      dup4\n        /* \"#utility.yul\":2122:2136   */\n      add\n        /* \"#utility.yul\":2118:2146   */\n      and\n        /* \"#utility.yul\":2108:2146   */\n      swap1\n      pop\n        /* \"#utility.yul\":2050:2152   */\n      swap2\n      swap1\n      pop\n      jump\t// out\n        /* \"#utility.yul\":2158:2535   */\n    tag_257:\n        /* \"#utility.yul\":2246:2249   */\n      0x00\n        /* \"#utility.yul\":2274:2313   */\n      tag_356\n        /* \"#utility.yul\":2307:2312   */\n      dup3\n        /* \"#utility.yul\":2274:2313   */\n      tag_253\n      jump\t// in\n    tag_356:\n        /* \"#utility.yul\":2329:2400   */\n      tag_357\n        /* \"#utility.yul\":2393:2399   */\n      dup2\n        /* \"#utility.yul\":2388:2391   */\n      dup6\n        /* \"#utility.yul\":2329:2400   */\n      tag_254\n      jump\t// in\n    tag_357:\n        /* \"#utility.yul\":2322:2400   */\n      swap4\n      pop\n        /* \"#utility.yul\":2409:2474   */\n      tag_358\n        /* \"#utility.yul\":2467:2473   */\n      dup2\n        /* \"#utility.yul\":2462:2465   */\n      dup6\n        /* \"#utility.yul\":2455:2459   */\n      0x20\n        /* \"#utility.yul\":2448:2453   */\n      dup7\n        /* \"#utility.yul\":2444:2460   */\n      add\n        /* \"#utility.yul\":2409:2474   */\n      tag_255\n      jump\t// in\n    tag_358:\n        /* \"#utility.yul\":2499:2528   */\n      tag_359\n        /* \"#utility.yul\":2521:2527   */\n      dup2\n        /* \"#utility.yul\":2499:2528   */\n      tag_256\n      jump\t// in\n    tag_359:\n        /* \"#utility.yul\":2494:2497   */\n      dup5\n        /* \"#utility.yul\":2490:2529   */\n      add\n        /* \"#utility.yul\":2483:2529   */\n      swap2\n      pop\n        /* \"#utility.yul\":2250:2535   */\n      pop\n        /* \"#utility.yul\":2158:2535   */\n      swap3\n      swap2\n      pop\n      pop\n      jump\t// out\n        /* \"#utility.yul\":2541:2854   */\n    tag_31:\n        /* \"#utility.yul\":2654:2658   */\n      0x00\n        /* \"#utility.yul\":2692:2694   */\n      0x20\n        /* \"#utility.yul\":2681:2690   */\n      dup3\n        /* \"#utility.yul\":2677:2695   */\n      add\n        /* \"#utility.yul\":2669:2695   */\n      swap1\n      pop\n        /* \"#utility.yul\":2741:2750   */\n      dup2\n        /* \"#utility.yul\":2735:2739   */\n      dup2\n        /* \"#utility.yul\":2731:2751   */\n      sub\n        /* \"#utility.yul\":2727:2728   */\n      0x00\n        /* \"#utility.yul\":2716:2725   */\n      dup4\n        /* \"#utility.yul\":2712:2729   */\n      add\n        /* \"#utility.yul\":2705:2752   */\n      mstore\n        /* \"#utility.yul\":2769:2847   */\n      tag_361\n        /* \"#utility.yul\":2842:2846   */\n      dup2\n        /* \"#utility.yul\":2833:2839   */\n      dup5\n        /* \"#utility.yul\":2769:2847   */\n      tag_257\n      jump\t// in\n    tag_361:\n        /* \"#utility.yul\":2761:2847   */\n      swap1\n      pop\n        /* \"#utility.yul\":2541:2854   */\n      swap3\n      swap2\n      pop\n      pop\n      jump\t// out\n        /* \"#utility.yul\":2860:2937   */\n    tag_258:\n        /* \"#utility.yul\":2897:2904   */\n      0x00\n        /* \"#utility.yul\":2926:2931   */\n      dup2\n        /* \"#utility.yul\":2915:2931   */\n      swap1\n      pop\n        /* \"#utility.yul\":2860:2937   */\n      swap2\n      swap1\n      pop\n      jump\t// out\n        /* \"#utility.yul\":2943:3065   */\n    tag_259:\n        /* \"#utility.yul\":3016:3040   */\n      tag_364\n        /* \"#utility.yul\":3034:3039   */\n      dup2\n        /* \"#utility.yul\":3016:3040   */\n      tag_258\n      jump\t// in\n    tag_364:\n        /* \"#utility.yul\":3009:3014   */\n      dup2\n        /* \"#utility.yul\":3006:3041   */\n      eq\n        /* \"#utility.yul\":2996:3059   */\n      tag_365\n      jumpi\n        /* \"#utility.yul\":3055:3056   */\n      0x00\n        /* \"#utility.yul\":3052:3053   */\n      dup1\n        /* \"#utility.yul\":3045:3057   */\n      revert\n        /* \"#utility.yul\":2996:3059   */\n    tag_365:\n        /* \"#utility.yul\":2943:3065   */\n      pop\n      jump\t// out\n        /* \"#utility.yul\":3071:3210   */\n    tag_260:\n        /* \"#utility.yul\":3117:3122   */\n      0x00\n        /* \"#utility.yul\":3155:3161   */\n      dup2\n        /* \"#utility.yul\":3142:3162   */\n      calldataload\n        /* \"#utility.yul\":3133:3162   */\n      swap1\n      pop\n        /* \"#utility.yul\":3171:3204   */\n      tag_367\n        /* \"#utility.yul\":3198:3203   */\n      dup2\n        /* \"#utility.yul\":3171:3204   */\n      tag_259\n      jump\t// in\n    tag_367:\n        /* \"#utility.yul\":3071:3210   */\n      swap3\n      swap2\n      pop\n      pop\n      jump\t// out\n        /* \"#utility.yul\":3216:3545   */\n    tag_34:\n        /* \"#utility.yul\":3275:3281   */\n      0x00\n        /* \"#utility.yul\":3324:3326   */\n      0x20\n        /* \"#utility.yul\":3312:3321   */\n      dup3\n        /* \"#utility.yul\":3303:3310   */\n      dup5\n        /* \"#utility.yul\":3299:3322   */\n      sub\n        /* \"#utility.yul\":3295:3327   */\n      slt\n        /* \"#utility.yul\":3292:3411   */\n      iszero\n      tag_369\n      jumpi\n        /* \"#utility.yul\":3330:3409   */\n      tag_370\n      tag_246\n      jump\t// in\n    tag_370:\n        /* \"#utility.yul\":3292:3411   */\n    tag_369:\n        /* \"#utility.yul\":3450:3451   */\n      0x00\n        /* \"#utility.yul\":3475:3528   */\n      tag_371\n        /* \"#utility.yul\":3520:3527   */\n      dup5\n        /* \"#utility.yul\":3511:3517   */\n      dup3\n        /* \"#utility.yul\":3500:3509   */\n      dup6\n        /* \"#utility.yul\":3496:3518   */\n      add\n        /* \"#utility.yul\":3475:3528   */\n      tag_260\n      jump\t// in\n    tag_371:\n        /* \"#utility.yul\":3465:3528   */\n      swap2\n      pop\n        /* \"#utility.yul\":3421:3538   */\n      pop\n        /* \"#utility.yul\":3216:3545   */\n      swap3\n      swap2\n      pop\n      pop\n      jump\t// out\n        /* \"#utility.yul\":3551:3677   */\n    tag_261:\n        /* \"#utility.yul\":3588:3595   */\n      0x00\n        /* \"#utility.yul\":3628:3670   */\n      0xffffffffffffffffffffffffffffffffffffffff\n        /* \"#utility.yul\":3621:3626   */\n      dup3\n        /* \"#utility.yul\":3617:3671   */\n      and\n        /* \"#utility.yul\":3606:3671   */\n      swap1\n      pop\n        /* \"#utility.yul\":3551:3677   */\n      swap2\n      swap1\n      pop\n      jump\t// out\n        /* \"#utility.yul\":3683:3779   */\n    tag_262:\n        /* \"#utility.yul\":3720:3727   */\n      0x00\n        /* \"#utility.yul\":3749:3773   */\n      tag_374\n        /* \"#utility.yul\":3767:3772   */\n      dup3\n        /* \"#utility.yul\":3749:3773   */\n      tag_261\n      jump\t// in\n    tag_374:\n        /* \"#utility.yul\":3738:3773   */\n      swap1\n      pop\n        /* \"#utility.yul\":3683:3779   */\n      swap2\n      swap1\n      pop\n      jump\t// out\n        /* \"#utility.yul\":3785:3903   */\n    tag_263:\n        /* \"#utility.yul\":3872:3896   */\n      tag_376\n        /* \"#utility.yul\":3890:3895   */\n      dup2\n        /* \"#utility.yul\":3872:3896   */\n      tag_262\n      jump\t// in\n    tag_376:\n        /* \"#utility.yul\":3867:3870   */\n      dup3\n        /* \"#utility.yul\":3860:3897   */\n      mstore\n        /* \"#utility.yul\":3785:3903   */\n      pop\n      pop\n      jump\t// out\n        /* \"#utility.yul\":3909:4131   */\n    tag_37:\n        /* \"#utility.yul\":4002:4006   */\n      0x00\n        /* \"#utility.yul\":4040:4042   */\n      0x20\n        /* \"#utility.yul\":4029:4038   */\n      dup3\n        /* \"#utility.yul\":4025:4043   */\n      add\n        /* \"#utility.yul\":4017:4043   */\n      swap1\n      pop\n        /* \"#utility.yul\":4053:4124   */\n      tag_378\n        /* \"#utility.yul\":4121:4122   */\n      0x00\n        /* \"#utility.yul\":4110:4119   */\n      dup4\n        /* \"#utility.yul\":4106:4123   */\n      add\n        /* \"#utility.yul\":4097:4103   */\n      dup5\n        /* \"#utility.yul\":4053:4124   */\n      tag_263\n      jump\t// in\n    tag_378:\n        /* \"#utility.yul\":3909:4131   */\n      swap3\n      swap2\n      pop\n      pop\n      jump\t// out\n        /* \"#utility.yul\":4137:4259   */\n    tag_264:\n        /* \"#utility.yul\":4210:4234   */\n      tag_380\n        /* \"#utility.yul\":4228:4233   */\n      dup2\n        /* \"#utility.yul\":4210:4234   */\n      tag_262\n      jump\t// in\n    tag_380:\n        /* \"#utility.yul\":4203:4208   */\n      dup2\n        /* \"#utility.yul\":4200:4235   */\n      eq\n        /* \"#utility.yul\":4190:4253   */\n      tag_381\n      jumpi\n        /* \"#utility.yul\":4249:4250   */\n      0x00\n        /* \"#utility.yul\":4246:4247   */\n      dup1\n        /* \"#utility.yul\":4239:4251   */\n      revert\n        /* \"#utility.yul\":4190:4253   */\n    tag_381:\n        /* \"#utility.yul\":4137:4259   */\n      pop\n      jump\t// out\n        /* \"#utility.yul\":4265:4404   */\n    tag_265:\n        /* \"#utility.yul\":4311:4316   */\n      0x00\n        /* \"#utility.yul\":4349:4355   */\n      dup2\n        /* \"#utility.yul\":4336:4356   */\n      calldataload\n        /* \"#utility.yul\":4327:4356   */\n      swap1\n      pop\n        /* \"#utility.yul\":4365:4398   */\n      tag_383\n        /* \"#utility.yul\":4392:4397   */\n      dup2\n        /* \"#utility.yul\":4365:4398   */\n      tag_264\n      jump\t// in\n    tag_383:\n        /* \"#utility.yul\":4265:4404   */\n      swap3\n      swap2\n      pop\n      pop\n      jump\t// out\n        /* \"#utility.yul\":4410:4884   */\n    tag_40:\n        /* \"#utility.yul\":4478:4484   */\n      0x00\n        /* \"#utility.yul\":4486:4492   */\n      dup1\n        /* \"#utility.yul\":4535:4537   */\n      0x40\n        /* \"#utility.yul\":4523:4532   */\n      dup4\n        /* \"#utility.yul\":4514:4521   */\n      dup6\n        /* \"#utility.yul\":4510:4533   */\n      sub\n        /* \"#utility.yul\":4506:4538   */\n      slt\n        /* \"#utility.yul\":4503:4622   */\n      iszero\n      tag_385\n      jumpi\n        /* \"#utility.yul\":4541:4620   */\n      tag_386\n      tag_246\n      jump\t// in\n    tag_386:\n        /* \"#utility.yul\":4503:4622   */\n    tag_385:\n        /* \"#utility.yul\":4661:4662   */\n      0x00\n        /* \"#utility.yul\":4686:4739   */\n      tag_387\n        /* \"#utility.yul\":4731:4738   */\n      dup6\n        /* \"#utility.yul\":4722:4728   */\n      dup3\n        /* \"#utility.yul\":4711:4720   */\n      dup7\n        /* \"#utility.yul\":4707:4729   */\n      add\n        /* \"#utility.yul\":4686:4739   */\n      tag_265\n      jump\t// in\n    tag_387:\n        /* \"#utility.yul\":4676:4739   */\n      swap3\n      pop\n        /* \"#utility.yul\":4632:4749   */\n      pop\n        /* \"#utility.yul\":4788:4790   */\n      0x20\n        /* \"#utility.yul\":4814:4867   */\n      tag_388\n        /* \"#utility.yul\":4859:4866   */\n      dup6\n        /* \"#utility.yul\":4850:4856   */\n      dup3\n        /* \"#utility.yul\":4839:4848   */\n      dup7\n        /* \"#utility.yul\":4835:4857   */\n      add\n        /* \"#utility.yul\":4814:4867   */\n      tag_260\n      jump\t// in\n    tag_388:\n        /* \"#utility.yul\":4804:4867   */\n      swap2\n      pop\n        /* \"#utility.yul\":4759:4877   */\n      pop\n        /* \"#utility.yul\":4410:4884   */\n      swap3\n      pop\n      swap3\n      swap1\n      pop\n      jump\t// out\n        /* \"#utility.yul\":4890:5007   */\n    tag_266:\n        /* \"#utility.yul\":4999:5000   */\n      0x00\n        /* \"#utility.yul\":4996:4997   */\n      dup1\n        /* \"#utility.yul\":4989:5001   */\n      revert\n        /* \"#utility.yul\":5013:5130   */\n    tag_267:\n        /* \"#utility.yul\":5122:5123   */\n      0x00\n        /* \"#utility.yul\":5119:5120   */\n      dup1\n        /* \"#utility.yul\":5112:5124   */\n      revert\n        /* \"#utility.yul\":5136:5316   */\n    tag_213:\n        /* \"#utility.yul\":5184:5261   */\n      0x4e487b7100000000000000000000000000000000000000000000000000000000\n        /* \"#utility.yul\":5181:5182   */\n      0x00\n        /* \"#utility.yul\":5174:5262   */\n      mstore\n        /* \"#utility.yul\":5281:5285   */\n      0x41\n        /* \"#utility.yul\":5278:5279   */\n      0x04\n        /* \"#utility.yul\":5271:5286   */\n      mstore\n        /* \"#utility.yul\":5305:5309   */\n      0x24\n        /* \"#utility.yul\":5302:5303   */\n      0x00\n        /* \"#utility.yul\":5295:5310   */\n      revert\n        /* \"#utility.yul\":5322:5603   */\n    tag_268:\n        /* \"#utility.yul\":5405:5432   */\n      tag_393\n        /* \"#utility.yul\":5427:5431   */\n      dup3\n        /* \"#utility.yul\":5405:5432   */\n      tag_256\n      jump\t// in\n    tag_393:\n        /* \"#utility.yul\":5397:5403   */\n      dup2\n        /* \"#utility.yul\":5393:5433   */\n      add\n        /* \"#utility.yul\":5535:5541   */\n      dup2\n        /* \"#utility.yul\":5523:5533   */\n      dup2\n        /* \"#utility.yul\":5520:5542   */\n      lt\n        /* \"#utility.yul\":5499:5517   */\n      0xffffffffffffffff\n        /* \"#utility.yul\":5487:5497   */\n      dup3\n        /* \"#utility.yul\":5484:5518   */\n      gt\n        /* \"#utility.yul\":5481:5543   */\n      or\n        /* \"#utility.yul\":5478:5566   */\n      iszero\n      tag_394\n      jumpi\n        /* \"#utility.yul\":5546:5564   */\n      tag_395\n      tag_213\n      jump\t// in\n    tag_395:\n        /* \"#utility.yul\":5478:5566   */\n    tag_394:\n        /* \"#utility.yul\":5586:5596   */\n      dup1\n        /* \"#utility.yul\":5582:5584   */\n      0x40\n        /* \"#utility.yul\":5575:5597   */\n      mstore\n        /* \"#utility.yul\":5365:5603   */\n      pop\n        /* \"#utility.yul\":5322:5603   */\n      pop\n      pop\n      jump\t// out\n        /* \"#utility.yul\":5609:5738   */\n    tag_269:\n        /* \"#utility.yul\":5643:5649   */\n      0x00\n        /* \"#utility.yul\":5670:5690   */\n      tag_397\n      tag_245\n      jump\t// in\n    tag_397:\n        /* \"#utility.yul\":5660:5690   */\n      swap1\n      pop\n        /* \"#utility.yul\":5699:5732   */\n      tag_398\n        /* \"#utility.yul\":5727:5731   */\n      dup3\n        /* \"#utility.yul\":5719:5725   */\n      dup3\n        /* \"#utility.yul\":5699:5732   */\n      tag_268\n      jump\t// in\n    tag_398:\n        /* \"#utility.yul\":5609:5738   */\n      swap2\n      swap1\n      pop\n      jump\t// out\n        /* \"#utility.yul\":5744:6052   */\n    tag_270:\n        /* \"#utility.yul\":5806:5810   */\n      0x00\n        /* \"#utility.yul\":5896:5914   */\n      0xffffffffffffffff\n        /* \"#utility.yul\":5888:5894   */\n      dup3\n        /* \"#utility.yul\":5885:5915   */\n      gt\n        /* \"#utility.yul\":5882:5938   */\n      iszero\n      tag_400\n      jumpi\n        /* \"#utility.yul\":5918:5936   */\n      tag_401\n      tag_213\n      jump\t// in\n    tag_401:\n        /* \"#utility.yul\":5882:5938   */\n    tag_400:\n        /* \"#utility.yul\":5956:5985   */\n      tag_402\n        /* \"#utility.yul\":5978:5984   */\n      dup3\n        /* \"#utility.yul\":5956:5985   */\n      tag_256\n      jump\t// in\n    tag_402:\n        /* \"#utility.yul\":5948:5985   */\n      swap1\n      pop\n        /* \"#utility.yul\":6040:6044   */\n      0x20\n        /* \"#utility.yul\":6034:6038   */\n      dup2\n        /* \"#utility.yul\":6030:6045   */\n      add\n        /* \"#utility.yul\":6022:6045   */\n      swap1\n      pop\n        /* \"#utility.yul\":5744:6052   */\n      swap2\n      swap1\n      pop\n      jump\t// out\n        /* \"#utility.yul\":6058:6204   */\n    tag_271:\n        /* \"#utility.yul\":6155:6161   */\n      dup3\n        /* \"#utility.yul\":6150:6153   */\n      dup2\n        /* \"#utility.yul\":6145:6148   */\n      dup4\n        /* \"#utility.yul\":6132:6162   */\n      calldatacopy\n        /* \"#utility.yul\":6196:6197   */\n      0x00\n        /* \"#utility.yul\":6187:6193   */\n      dup4\n        /* \"#utility.yul\":6182:6185   */\n      dup4\n        /* \"#utility.yul\":6178:6194   */\n      add\n        /* \"#utility.yul\":6171:6198   */\n      mstore\n        /* \"#utility.yul\":6058:6204   */\n      pop\n      pop\n      pop\n      jump\t// out\n        /* \"#utility.yul\":6210:6635   */\n    tag_272:\n        /* \"#utility.yul\":6288:6293   */\n      0x00\n        /* \"#utility.yul\":6313:6379   */\n      tag_405\n        /* \"#utility.yul\":6329:6378   */\n      tag_406\n        /* \"#utility.yul\":6371:6377   */\n      dup5\n        /* \"#utility.yul\":6329:6378   */\n      tag_270\n      jump\t// in\n    tag_406:\n        /* \"#utility.yul\":6313:6379   */\n      tag_269\n      jump\t// in\n    tag_405:\n        /* \"#utility.yul\":6304:6379   */\n      swap1\n      pop\n        /* \"#utility.yul\":6402:6408   */\n      dup3\n        /* \"#utility.yul\":6395:6400   */\n      dup2\n        /* \"#utility.yul\":6388:6409   */\n      mstore\n        /* \"#utility.yul\":6440:6444   */\n      0x20\n        /* \"#utility.yul\":6433:6438   */\n      dup2\n        /* \"#utility.yul\":6429:6445   */\n      add\n        /* \"#utility.yul\":6478:6481   */\n      dup5\n        /* \"#utility.yul\":6469:6475   */\n      dup5\n        /* \"#utility.yul\":6464:6467   */\n      dup5\n        /* \"#utility.yul\":6460:6476   */\n      add\n        /* \"#utility.yul\":6457:6482   */\n      gt\n        /* \"#utility.yul\":6454:6566   */\n      iszero\n      tag_407\n      jumpi\n        /* \"#utility.yul\":6485:6564   */\n      tag_408\n      tag_267\n      jump\t// in\n    tag_408:\n        /* \"#utility.yul\":6454:6566   */\n    tag_407:\n        /* \"#utility.yul\":6575:6629   */\n      tag_409\n        /* \"#utility.yul\":6622:6628   */\n      dup5\n        /* \"#utility.yul\":6617:6620   */\n      dup3\n        /* \"#utility.yul\":6612:6615   */\n      dup6\n        /* \"#utility.yul\":6575:6629   */\n      tag_271\n      jump\t// in\n    tag_409:\n        /* \"#utility.yul\":6294:6635   */\n      pop\n        /* \"#utility.yul\":6210:6635   */\n      swap4\n      swap3\n      pop\n      pop\n      pop\n      jump\t// out\n        /* \"#utility.yul\":6655:6995   */\n    tag_273:\n        /* \"#utility.yul\":6711:6716   */\n      0x00\n        /* \"#utility.yul\":6760:6763   */\n      dup3\n        /* \"#utility.yul\":6753:6757   */\n      0x1f\n        /* \"#utility.yul\":6745:6751   */\n      dup4\n        /* \"#utility.yul\":6741:6758   */\n      add\n        /* \"#utility.yul\":6737:6764   */\n      slt\n        /* \"#utility.yul\":6727:6849   */\n      tag_411\n      jumpi\n        /* \"#utility.yul\":6768:6847   */\n      tag_412\n      tag_266\n      jump\t// in\n    tag_412:\n        /* \"#utility.yul\":6727:6849   */\n    tag_411:\n        /* \"#utility.yul\":6885:6891   */\n      dup2\n        /* \"#utility.yul\":6872:6892   */\n      calldataload\n        /* \"#utility.yul\":6910:6989   */\n      tag_413\n        /* \"#utility.yul\":6985:6988   */\n      dup5\n        /* \"#utility.yul\":6977:6983   */\n      dup3\n        /* \"#utility.yul\":6970:6974   */\n      0x20\n        /* \"#utility.yul\":6962:6968   */\n      dup7\n        /* \"#utility.yul\":6958:6975   */\n      add\n        /* \"#utility.yul\":6910:6989   */\n      tag_272\n      jump\t// in\n    tag_413:\n        /* \"#utility.yul\":6901:6989   */\n      swap2\n      pop\n        /* \"#utility.yul\":6717:6995   */\n      pop\n        /* \"#utility.yul\":6655:6995   */\n      swap3\n      swap2\n      pop\n      pop\n      jump\t// out\n        /* \"#utility.yul\":7001:7655   */\n    tag_44:\n        /* \"#utility.yul\":7079:7085   */\n      0x00\n        /* \"#utility.yul\":7087:7093   */\n      dup1\n        /* \"#utility.yul\":7136:7138   */\n      0x40\n        /* \"#utility.yul\":7124:7133   */\n      dup4\n        /* \"#utility.yul\":7115:7122   */\n      dup6\n        /* \"#utility.yul\":7111:7134   */\n      sub\n        /* \"#utility.yul\":7107:7139   */\n      slt\n        /* \"#utility.yul\":7104:7223   */\n      iszero\n      tag_415\n      jumpi\n        /* \"#utility.yul\":7142:7221   */\n      tag_416\n      tag_246\n      jump\t// in\n    tag_416:\n        /* \"#utility.yul\":7104:7223   */\n    tag_415:\n        /* \"#utility.yul\":7262:7263   */\n      0x00\n        /* \"#utility.yul\":7287:7340   */\n      tag_417\n        /* \"#utility.yul\":7332:7339   */\n      dup6\n        /* \"#utility.yul\":7323:7329   */\n      dup3\n        /* \"#utility.yul\":7312:7321   */\n      dup7\n        /* \"#utility.yul\":7308:7330   */\n      add\n        /* \"#utility.yul\":7287:7340   */\n      tag_260\n      jump\t// in\n    tag_417:\n        /* \"#utility.yul\":7277:7340   */\n      swap3\n      pop\n        /* \"#utility.yul\":7233:7350   */\n      pop\n        /* \"#utility.yul\":7417:7419   */\n      0x20\n        /* \"#utility.yul\":7406:7415   */\n      dup4\n        /* \"#utility.yul\":7402:7420   */\n      add\n        /* \"#utility.yul\":7389:7421   */\n      calldataload\n        /* \"#utility.yul\":7448:7466   */\n      0xffffffffffffffff\n        /* \"#utility.yul\":7440:7446   */\n      dup2\n        /* \"#utility.yul\":7437:7467   */\n      gt\n        /* \"#utility.yul\":7434:7551   */\n      iszero\n      tag_418\n      jumpi\n        /* \"#utility.yul\":7470:7549   */\n      tag_419\n      tag_247\n      jump\t// in\n    tag_419:\n        /* \"#utility.yul\":7434:7551   */\n    tag_418:\n        /* \"#utility.yul\":7575:7638   */\n      tag_420\n        /* \"#utility.yul\":7630:7637   */\n      dup6\n        /* \"#utility.yul\":7621:7627   */\n      dup3\n        /* \"#utility.yul\":7610:7619   */\n      dup7\n        /* \"#utility.yul\":7606:7628   */\n      add\n        /* \"#utility.yul\":7575:7638   */\n      tag_273\n      jump\t// in\n    tag_420:\n        /* \"#utility.yul\":7565:7638   */\n      swap2\n      pop\n        /* \"#utility.yul\":7360:7648   */\n      pop\n        /* \"#utility.yul\":7001:7655   */\n      swap3\n      pop\n      swap3\n      swap1\n      pop\n      jump\t// out\n        /* \"#utility.yul\":7661:8280   */\n    tag_48:\n        /* \"#utility.yul\":7738:7744   */\n      0x00\n        /* \"#utility.yul\":7746:7752   */\n      dup1\n        /* \"#utility.yul\":7754:7760   */\n      0x00\n        /* \"#utility.yul\":7803:7805   */\n      0x60\n        /* \"#utility.yul\":7791:7800   */\n      dup5\n        /* \"#utility.yul\":7782:7789   */\n      dup7\n        /* \"#utility.yul\":7778:7801   */\n      sub\n        /* \"#utility.yul\":7774:7806   */\n      slt\n        /* \"#utility.yul\":7771:7890   */\n      iszero\n      tag_422\n      jumpi\n        /* \"#utility.yul\":7809:7888   */\n      tag_423\n      tag_246\n      jump\t// in\n    tag_423:\n        /* \"#utility.yul\":7771:7890   */\n    tag_422:\n        /* \"#utility.yul\":7929:7930   */\n      0x00\n        /* \"#utility.yul\":7954:8007   */\n      tag_424\n        /* \"#utility.yul\":7999:8006   */\n      dup7\n        /* \"#utility.yul\":7990:7996   */\n      dup3\n        /* \"#utility.yul\":7979:7988   */\n      dup8\n        /* \"#utility.yul\":7975:7997   */\n      add\n        /* \"#utility.yul\":7954:8007   */\n      tag_265\n      jump\t// in\n    tag_424:\n        /* \"#utility.yul\":7944:8007   */\n      swap4\n      pop\n        /* \"#utility.yul\":7900:8017   */\n      pop\n        /* \"#utility.yul\":8056:8058   */\n      0x20\n        /* \"#utility.yul\":8082:8135   */\n      tag_425\n        /* \"#utility.yul\":8127:8134   */\n      dup7\n        /* \"#utility.yul\":8118:8124   */\n      dup3\n        /* \"#utility.yul\":8107:8116   */\n      dup8\n        /* \"#utility.yul\":8103:8125   */\n      add\n        /* \"#utility.yul\":8082:8135   */\n      tag_265\n      jump\t// in\n    tag_425:\n        /* \"#utility.yul\":8072:8135   */\n      swap3\n      pop\n        /* \"#utility.yul\":8027:8145   */\n      pop\n        /* \"#utility.yul\":8184:8186   */\n      0x40\n        /* \"#utility.yul\":8210:8263   */\n      tag_426\n        /* \"#utility.yul\":8255:8262   */\n      dup7\n        /* \"#utility.yul\":8246:8252   */\n      dup3\n        /* \"#utility.yul\":8235:8244   */\n      dup8\n        /* \"#utility.yul\":8231:8253   */\n      add\n        /* \"#utility.yul\":8210:8263   */\n      tag_260\n      jump\t// in\n    tag_426:\n        /* \"#utility.yul\":8200:8263   */\n      swap2\n      pop\n        /* \"#utility.yul\":8155:8273   */\n      pop\n        /* \"#utility.yul\":7661:8280   */\n      swap3\n      pop\n      swap3\n      pop\n      swap3\n      jump\t// out\n        /* \"#utility.yul\":8286:8795   */\n    tag_55:\n        /* \"#utility.yul\":8355:8361   */\n      0x00\n        /* \"#utility.yul\":8404:8406   */\n      0x20\n        /* \"#utility.yul\":8392:8401   */\n      dup3\n        /* \"#utility.yul\":8383:8390   */\n      dup5\n        /* \"#utility.yul\":8379:8402   */\n      sub\n        /* \"#utility.yul\":8375:8407   */\n      slt\n        /* \"#utility.yul\":8372:8491   */\n      iszero\n      tag_428\n      jumpi\n        /* \"#utility.yul\":8410:8489   */\n      tag_429\n      tag_246\n      jump\t// in\n    tag_429:\n        /* \"#utility.yul\":8372:8491   */\n    tag_428:\n        /* \"#utility.yul\":8558:8559   */\n      0x00\n        /* \"#utility.yul\":8547:8556   */\n      dup3\n        /* \"#utility.yul\":8543:8560   */\n      add\n        /* \"#utility.yul\":8530:8561   */\n      calldataload\n        /* \"#utility.yul\":8588:8606   */\n      0xffffffffffffffff\n        /* \"#utility.yul\":8580:8586   */\n      dup2\n        /* \"#utility.yul\":8577:8607   */\n      gt\n        /* \"#utility.yul\":8574:8691   */\n      iszero\n      tag_430\n      jumpi\n        /* \"#utility.yul\":8610:8689   */\n      tag_431\n      tag_247\n      jump\t// in\n    tag_431:\n        /* \"#utility.yul\":8574:8691   */\n    tag_430:\n        /* \"#utility.yul\":8715:8778   */\n      tag_432\n        /* \"#utility.yul\":8770:8777   */\n      dup5\n        /* \"#utility.yul\":8761:8767   */\n      dup3\n        /* \"#utility.yul\":8750:8759   */\n      dup6\n        /* \"#utility.yul\":8746:8768   */\n      add\n        /* \"#utility.yul\":8715:8778   */\n      tag_273\n      jump\t// in\n    tag_432:\n        /* \"#utility.yul\":8705:8778   */\n      swap2\n      pop\n        /* \"#utility.yul\":8501:8788   */\n      pop\n        /* \"#utility.yul\":8286:8795   */\n      swap3\n      swap2\n      pop\n      pop\n      jump\t// out\n        /* \"#utility.yul\":8801:9130   */\n    tag_63:\n        /* \"#utility.yul\":8860:8866   */\n      0x00\n        /* \"#utility.yul\":8909:8911   */\n      0x20\n        /* \"#utility.yul\":8897:8906   */\n      dup3\n        /* \"#utility.yul\":8888:8895   */\n      dup5\n        /* \"#utility.yul\":8884:8907   */\n      sub\n        /* \"#utility.yul\":8880:8912   */\n      slt\n        /* \"#utility.yul\":8877:8996   */\n      iszero\n      tag_434\n      jumpi\n        /* \"#utility.yul\":8915:8994   */\n      tag_435\n      tag_246\n      jump\t// in\n    tag_435:\n        /* \"#utility.yul\":8877:8996   */\n    tag_434:\n        /* \"#utility.yul\":9035:9036   */\n      0x00\n        /* \"#utility.yul\":9060:9113   */\n      tag_436\n        /* \"#utility.yul\":9105:9112   */\n      dup5\n        /* \"#utility.yul\":9096:9102   */\n      dup3\n        /* \"#utility.yul\":9085:9094   */\n      dup6\n        /* \"#utility.yul\":9081:9103   */\n      add\n        /* \"#utility.yul\":9060:9113   */\n      tag_265\n      jump\t// in\n    tag_436:\n        /* \"#utility.yul\":9050:9113   */\n      swap2\n      pop\n        /* \"#utility.yul\":9006:9123   */\n      pop\n        /* \"#utility.yul\":8801:9130   */\n      swap3\n      swap2\n      pop\n      pop\n      jump\t// out\n        /* \"#utility.yul\":9136:9254   */\n    tag_274:\n        /* \"#utility.yul\":9223:9247   */\n      tag_438\n        /* \"#utility.yul\":9241:9246   */\n      dup2\n        /* \"#utility.yul\":9223:9247   */\n      tag_258\n      jump\t// in\n    tag_438:\n        /* \"#utility.yul\":9218:9221   */\n      dup3\n        /* \"#utility.yul\":9211:9248   */\n      mstore\n        /* \"#utility.yul\":9136:9254   */\n      pop\n      pop\n      jump\t// out\n        /* \"#utility.yul\":9260:9482   */\n    tag_66:\n        /* \"#utility.yul\":9353:9357   */\n      0x00\n        /* \"#utility.yul\":9391:9393   */\n      0x20\n        /* \"#utility.yul\":9380:9389   */\n      dup3\n        /* \"#utility.yul\":9376:9394   */\n      add\n        /* \"#utility.yul\":9368:9394   */\n      swap1\n      pop\n        /* \"#utility.yul\":9404:9475   */\n      tag_440\n        /* \"#utility.yul\":9472:9473   */\n      0x00\n        /* \"#utility.yul\":9461:9470   */\n      dup4\n        /* \"#utility.yul\":9457:9474   */\n      add\n        /* \"#utility.yul\":9448:9454   */\n      dup5\n        /* \"#utility.yul\":9404:9475   */\n      tag_274\n      jump\t// in\n    tag_440:\n        /* \"#utility.yul\":9260:9482   */\n      swap3\n      swap2\n      pop\n      pop\n      jump\t// out\n        /* \"#utility.yul\":9488:9604   */\n    tag_275:\n        /* \"#utility.yul\":9558:9579   */\n      tag_442\n        /* \"#utility.yul\":9573:9578   */\n      dup2\n        /* \"#utility.yul\":9558:9579   */\n      tag_251\n      jump\t// in\n    tag_442:\n        /* \"#utility.yul\":9551:9556   */\n      dup2\n        /* \"#utility.yul\":9548:9580   */\n      eq\n        /* \"#utility.yul\":9538:9598   */\n      tag_443\n      jumpi\n        /* \"#utility.yul\":9594:9595   */\n      0x00\n        /* \"#utility.yul\":9591:9592   */\n      dup1\n        /* \"#utility.yul\":9584:9596   */\n      revert\n        /* \"#utility.yul\":9538:9598   */\n    tag_443:\n        /* \"#utility.yul\":9488:9604   */\n      pop\n      jump\t// out\n        /* \"#utility.yul\":9610:9743   */\n    tag_276:\n        /* \"#utility.yul\":9653:9658   */\n      0x00\n        /* \"#utility.yul\":9691:9697   */\n      dup2\n        /* \"#utility.yul\":9678:9698   */\n      calldataload\n        /* \"#utility.yul\":9669:9698   */\n      swap1\n      pop\n        /* \"#utility.yul\":9707:9737   */\n      tag_445\n        /* \"#utility.yul\":9731:9736   */\n      dup2\n        /* \"#utility.yul\":9707:9737   */\n      tag_275\n      jump\t// in\n    tag_445:\n        /* \"#utility.yul\":9610:9743   */\n      swap3\n      swap2\n      pop\n      pop\n      jump\t// out\n        /* \"#utility.yul\":9749:10217   */\n    tag_72:\n        /* \"#utility.yul\":9814:9820   */\n      0x00\n        /* \"#utility.yul\":9822:9828   */\n      dup1\n        /* \"#utility.yul\":9871:9873   */\n      0x40\n        /* \"#utility.yul\":9859:9868   */\n      dup4\n        /* \"#utility.yul\":9850:9857   */\n      dup6\n        /* \"#utility.yul\":9846:9869   */\n      sub\n        /* \"#utility.yul\":9842:9874   */\n      slt\n        /* \"#utility.yul\":9839:9958   */\n      iszero\n      tag_447\n      jumpi\n        /* \"#utility.yul\":9877:9956   */\n      tag_448\n      tag_246\n      jump\t// in\n    tag_448:\n        /* \"#utility.yul\":9839:9958   */\n    tag_447:\n        /* \"#utility.yul\":9997:9998   */\n      0x00\n        /* \"#utility.yul\":10022:10075   */\n      tag_449\n        /* \"#utility.yul\":10067:10074   */\n      dup6\n        /* \"#utility.yul\":10058:10064   */\n      dup3\n        /* \"#utility.yul\":10047:10056   */\n      dup7\n        /* \"#utility.yul\":10043:10065   */\n      add\n        /* \"#utility.yul\":10022:10075   */\n      tag_265\n      jump\t// in\n    tag_449:\n        /* \"#utility.yul\":10012:10075   */\n      swap3\n      pop\n        /* \"#utility.yul\":9968:10085   */\n      pop\n        /* \"#utility.yul\":10124:10126   */\n      0x20\n        /* \"#utility.yul\":10150:10200   */\n      tag_450\n        /* \"#utility.yul\":10192:10199   */\n      dup6\n        /* \"#utility.yul\":10183:10189   */\n      dup3\n        /* \"#utility.yul\":10172:10181   */\n      dup7\n        /* \"#utility.yul\":10168:10190   */\n      add\n        /* \"#utility.yul\":10150:10200   */\n      tag_276\n      jump\t// in\n    tag_450:\n        /* \"#utility.yul\":10140:10200   */\n      swap2\n      pop\n        /* \"#utility.yul\":10095:10210   */\n      pop\n        /* \"#utility.yul\":9749:10217   */\n      swap3\n      pop\n      swap3\n      swap1\n      pop\n      jump\t// out\n        /* \"#utility.yul\":10223:10530   */\n    tag_277:\n        /* \"#utility.yul\":10284:10288   */\n      0x00\n        /* \"#utility.yul\":10374:10392   */\n      0xffffffffffffffff\n        /* \"#utility.yul\":10366:10372   */\n      dup3\n        /* \"#utility.yul\":10363:10393   */\n      gt\n        /* \"#utility.yul\":10360:10416   */\n      iszero\n      tag_452\n      jumpi\n        /* \"#utility.yul\":10396:10414   */\n      tag_453\n      tag_213\n      jump\t// in\n    tag_453:\n        /* \"#utility.yul\":10360:10416   */\n    tag_452:\n        /* \"#utility.yul\":10434:10463   */\n      tag_454\n        /* \"#utility.yul\":10456:10462   */\n      dup3\n        /* \"#utility.yul\":10434:10463   */\n      tag_256\n      jump\t// in\n    tag_454:\n        /* \"#utility.yul\":10426:10463   */\n      swap1\n      pop\n        /* \"#utility.yul\":10518:10522   */\n      0x20\n        /* \"#utility.yul\":10512:10516   */\n      dup2\n        /* \"#utility.yul\":10508:10523   */\n      add\n        /* \"#utility.yul\":10500:10523   */\n      swap1\n      pop\n        /* \"#utility.yul\":10223:10530   */\n      swap2\n      swap1\n      pop\n      jump\t// out\n        /* \"#utility.yul\":10536:10959   */\n    tag_278:\n        /* \"#utility.yul\":10613:10618   */\n      0x00\n        /* \"#utility.yul\":10638:10703   */\n      tag_456\n        /* \"#utility.yul\":10654:10702   */\n      tag_457\n        /* \"#utility.yul\":10695:10701   */\n      dup5\n        /* \"#utility.yul\":10654:10702   */\n      tag_277\n      jump\t// in\n    tag_457:\n        /* \"#utility.yul\":10638:10703   */\n      tag_269\n      jump\t// in\n    tag_456:\n        /* \"#utility.yul\":10629:10703   */\n      swap1\n      pop\n        /* \"#utility.yul\":10726:10732   */\n      dup3\n        /* \"#utility.yul\":10719:10724   */\n      dup2\n        /* \"#utility.yul\":10712:10733   */\n      mstore\n        /* \"#utility.yul\":10764:10768   */\n      0x20\n        /* \"#utility.yul\":10757:10762   */\n      dup2\n        /* \"#utility.yul\":10753:10769   */\n      add\n        /* \"#utility.yul\":10802:10805   */\n      dup5\n        /* \"#utility.yul\":10793:10799   */\n      dup5\n        /* \"#utility.yul\":10788:10791   */\n      dup5\n        /* \"#utility.yul\":10784:10800   */\n      add\n        /* \"#utility.yul\":10781:10806   */\n      gt\n        /* \"#utility.yul\":10778:10890   */\n      iszero\n      tag_458\n      jumpi\n        /* \"#utility.yul\":10809:10888   */\n      tag_459\n      tag_267\n      jump\t// in\n    tag_459:\n        /* \"#utility.yul\":10778:10890   */\n    tag_458:\n        /* \"#utility.yul\":10899:10953   */\n      tag_460\n        /* \"#utility.yul\":10946:10952   */\n      dup5\n        /* \"#utility.yul\":10941:10944   */\n      dup3\n        /* \"#utility.yul\":10936:10939   */\n      dup6\n        /* \"#utility.yul\":10899:10953   */\n      tag_271\n      jump\t// in\n    tag_460:\n        /* \"#utility.yul\":10619:10959   */\n      pop\n        /* \"#utility.yul\":10536:10959   */\n      swap4\n      swap3\n      pop\n      pop\n      pop\n      jump\t// out\n        /* \"#utility.yul\":10978:11316   */\n    tag_279:\n        /* \"#utility.yul\":11033:11038   */\n      0x00\n        /* \"#utility.yul\":11082:11085   */\n      dup3\n        /* \"#utility.yul\":11075:11079   */\n      0x1f\n        /* \"#utility.yul\":11067:11073   */\n      dup4\n        /* \"#utility.yul\":11063:11080   */\n      add\n        /* \"#utility.yul\":11059:11086   */\n      slt\n        /* \"#utility.yul\":11049:11171   */\n      tag_462\n      jumpi\n        /* \"#utility.yul\":11090:11169   */\n      tag_463\n      tag_266\n      jump\t// in\n    tag_463:\n        /* \"#utility.yul\":11049:11171   */\n    tag_462:\n        /* \"#utility.yul\":11207:11213   */\n      dup2\n        /* \"#utility.yul\":11194:11214   */\n      calldataload\n        /* \"#utility.yul\":11232:11310   */\n      tag_464\n        /* \"#utility.yul\":11306:11309   */\n      dup5\n        /* \"#utility.yul\":11298:11304   */\n      dup3\n        /* \"#utility.yul\":11291:11295   */\n      0x20\n        /* \"#utility.yul\":11283:11289   */\n      dup7\n        /* \"#utility.yul\":11279:11296   */\n      add\n        /* \"#utility.yul\":11232:11310   */\n      tag_278\n      jump\t// in\n    tag_464:\n        /* \"#utility.yul\":11223:11310   */\n      swap2\n      pop\n        /* \"#utility.yul\":11039:11316   */\n      pop\n        /* \"#utility.yul\":10978:11316   */\n      swap3\n      swap2\n      pop\n      pop\n      jump\t// out\n        /* \"#utility.yul\":11322:12265   */\n    tag_76:\n        /* \"#utility.yul\":11417:11423   */\n      0x00\n        /* \"#utility.yul\":11425:11431   */\n      dup1\n        /* \"#utility.yul\":11433:11439   */\n      0x00\n        /* \"#utility.yul\":11441:11447   */\n      dup1\n        /* \"#utility.yul\":11490:11493   */\n      0x80\n        /* \"#utility.yul\":11478:11487   */\n      dup6\n        /* \"#utility.yul\":11469:11476   */\n      dup8\n        /* \"#utility.yul\":11465:11488   */\n      sub\n        /* \"#utility.yul\":11461:11494   */\n      slt\n        /* \"#utility.yul\":11458:11578   */\n      iszero\n      tag_466\n      jumpi\n        /* \"#utility.yul\":11497:11576   */\n      tag_467\n      tag_246\n      jump\t// in\n    tag_467:\n        /* \"#utility.yul\":11458:11578   */\n    tag_466:\n        /* \"#utility.yul\":11617:11618   */\n      0x00\n        /* \"#utility.yul\":11642:11695   */\n      tag_468\n        /* \"#utility.yul\":11687:11694   */\n      dup8\n        /* \"#utility.yul\":11678:11684   */\n      dup3\n        /* \"#utility.yul\":11667:11676   */\n      dup9\n        /* \"#utility.yul\":11663:11685   */\n      add\n        /* \"#utility.yul\":11642:11695   */\n      tag_265\n      jump\t// in\n    tag_468:\n        /* \"#utility.yul\":11632:11695   */\n      swap5\n      pop\n        /* \"#utility.yul\":11588:11705   */\n      pop\n        /* \"#utility.yul\":11744:11746   */\n      0x20\n        /* \"#utility.yul\":11770:11823   */\n      tag_469\n        /* \"#utility.yul\":11815:11822   */\n      dup8\n        /* \"#utility.yul\":11806:11812   */\n      dup3\n        /* \"#utility.yul\":11795:11804   */\n      dup9\n        /* \"#utility.yul\":11791:11813   */\n      add\n        /* \"#utility.yul\":11770:11823   */\n      tag_265\n      jump\t// in\n    tag_469:\n        /* \"#utility.yul\":11760:11823   */\n      swap4\n      pop\n        /* \"#utility.yul\":11715:11833   */\n      pop\n        /* \"#utility.yul\":11872:11874   */\n      0x40\n        /* \"#utility.yul\":11898:11951   */\n      tag_470\n        /* \"#utility.yul\":11943:11950   */\n      dup8\n        /* \"#utility.yul\":11934:11940   */\n      dup3\n        /* \"#utility.yul\":11923:11932   */\n      dup9\n        /* \"#utility.yul\":11919:11941   */\n      add\n        /* \"#utility.yul\":11898:11951   */\n      tag_260\n      jump\t// in\n    tag_470:\n        /* \"#utility.yul\":11888:11951   */\n      swap3\n      pop\n        /* \"#utility.yul\":11843:11961   */\n      pop\n        /* \"#utility.yul\":12028:12030   */\n      0x60\n        /* \"#utility.yul\":12017:12026   */\n      dup6\n        /* \"#utility.yul\":12013:12031   */\n      add\n        /* \"#utility.yul\":12000:12032   */\n      calldataload\n        /* \"#utility.yul\":12059:12077   */\n      0xffffffffffffffff\n        /* \"#utility.yul\":12051:12057   */\n      dup2\n        /* \"#utility.yul\":12048:12078   */\n      gt\n        /* \"#utility.yul\":12045:12162   */\n      iszero\n      tag_471\n      jumpi\n        /* \"#utility.yul\":12081:12160   */\n      tag_472\n      tag_247\n      jump\t// in\n    tag_472:\n        /* \"#utility.yul\":12045:12162   */\n    tag_471:\n        /* \"#utility.yul\":12186:12248   */\n      tag_473\n        /* \"#utility.yul\":12240:12247   */\n      dup8\n        /* \"#utility.yul\":12231:12237   */\n      dup3\n        /* \"#utility.yul\":12220:12229   */\n      dup9\n        /* \"#utility.yul\":12216:12238   */\n      add\n        /* \"#utility.yul\":12186:12248   */\n      tag_279\n      jump\t// in\n    tag_473:\n        /* \"#utility.yul\":12176:12248   */\n      swap2\n      pop\n        /* \"#utility.yul\":11971:12258   */\n      pop\n        /* \"#utility.yul\":11322:12265   */\n      swap3\n      swap6\n      swap2\n      swap5\n      pop\n      swap3\n      pop\n      jump\t// out\n        /* \"#utility.yul\":12271:12925   */\n    tag_84:\n        /* \"#utility.yul\":12349:12355   */\n      0x00\n        /* \"#utility.yul\":12357:12363   */\n      dup1\n        /* \"#utility.yul\":12406:12408   */\n      0x40\n        /* \"#utility.yul\":12394:12403   */\n      dup4\n        /* \"#utility.yul\":12385:12392   */\n      dup6\n        /* \"#utility.yul\":12381:12404   */\n      sub\n        /* \"#utility.yul\":12377:12409   */\n      slt\n        /* \"#utility.yul\":12374:12493   */\n      iszero\n      tag_475\n      jumpi\n        /* \"#utility.yul\":12412:12491   */\n      tag_476\n      tag_246\n      jump\t// in\n    tag_476:\n        /* \"#utility.yul\":12374:12493   */\n    tag_475:\n        /* \"#utility.yul\":12532:12533   */\n      0x00\n        /* \"#utility.yul\":12557:12610   */\n      tag_477\n        /* \"#utility.yul\":12602:12609   */\n      dup6\n        /* \"#utility.yul\":12593:12599   */\n      dup3\n        /* \"#utility.yul\":12582:12591   */\n      dup7\n        /* \"#utility.yul\":12578:12600   */\n      add\n        /* \"#utility.yul\":12557:12610   */\n      tag_265\n      jump\t// in\n    tag_477:\n        /* \"#utility.yul\":12547:12610   */\n      swap3\n      pop\n        /* \"#utility.yul\":12503:12620   */\n      pop\n        /* \"#utility.yul\":12687:12689   */\n      0x20\n        /* \"#utility.yul\":12676:12685   */\n      dup4\n        /* \"#utility.yul\":12672:12690   */\n      add\n        /* \"#utility.yul\":12659:12691   */\n      calldataload\n        /* \"#utility.yul\":12718:12736   */\n      0xffffffffffffffff\n        /* \"#utility.yul\":12710:12716   */\n      dup2\n        /* \"#utility.yul\":12707:12737   */\n      gt\n        /* \"#utility.yul\":12704:12821   */\n      iszero\n      tag_478\n      jumpi\n        /* \"#utility.yul\":12740:12819   */\n      tag_479\n      tag_247\n      jump\t// in\n    tag_479:\n        /* \"#utility.yul\":12704:12821   */\n    tag_478:\n        /* \"#utility.yul\":12845:12908   */\n      tag_480\n        /* \"#utility.yul\":12900:12907   */\n      dup6\n        /* \"#utility.yul\":12891:12897   */\n      dup3\n        /* \"#utility.yul\":12880:12889   */\n      dup7\n        /* \"#utility.yul\":12876:12898   */\n      add\n        /* \"#utility.yul\":12845:12908   */\n      tag_273\n      jump\t// in\n    tag_480:\n        /* \"#utility.yul\":12835:12908   */\n      swap2\n      pop\n        /* \"#utility.yul\":12630:12918   */\n      pop\n        /* \"#utility.yul\":12271:12925   */\n      swap3\n      pop\n      swap3\n      swap1\n      pop\n      jump\t// out\n        /* \"#utility.yul\":12931:13405   */\n    tag_88:\n        /* \"#utility.yul\":12999:13005   */\n      0x00\n        /* \"#utility.yul\":13007:13013   */\n      dup1\n        /* \"#utility.yul\":13056:13058   */\n      0x40\n        /* \"#utility.yul\":13044:13053   */\n      dup4\n        /* \"#utility.yul\":13035:13042   */\n      dup6\n        /* \"#utility.yul\":13031:13054   */\n      sub\n        /* \"#utility.yul\":13027:13059   */\n      slt\n        /* \"#utility.yul\":13024:13143   */\n      iszero\n      tag_482\n      jumpi\n        /* \"#utility.yul\":13062:13141   */\n      tag_483\n      tag_246\n      jump\t// in\n    tag_483:\n        /* \"#utility.yul\":13024:13143   */\n    tag_482:\n        /* \"#utility.yul\":13182:13183   */\n      0x00\n        /* \"#utility.yul\":13207:13260   */\n      tag_484\n        /* \"#utility.yul\":13252:13259   */\n      dup6\n        /* \"#utility.yul\":13243:13249   */\n      dup3\n        /* \"#utility.yul\":13232:13241   */\n      dup7\n        /* \"#utility.yul\":13228:13250   */\n      add\n        /* \"#utility.yul\":13207:13260   */\n      tag_265\n      jump\t// in\n    tag_484:\n        /* \"#utility.yul\":13197:13260   */\n      swap3\n      pop\n        /* \"#utility.yul\":13153:13270   */\n      pop\n        /* \"#utility.yul\":13309:13311   */\n      0x20\n        /* \"#utility.yul\":13335:13388   */\n      tag_485\n        /* \"#utility.yul\":13380:13387   */\n      dup6\n        /* \"#utility.yul\":13371:13377   */\n      dup3\n        /* \"#utility.yul\":13360:13369   */\n      dup7\n        /* \"#utility.yul\":13356:13378   */\n      add\n        /* \"#utility.yul\":13335:13388   */\n      tag_265\n      jump\t// in\n    tag_485:\n        /* \"#utility.yul\":13325:13388   */\n      swap2\n      pop\n        /* \"#utility.yul\":13280:13398   */\n      pop\n        /* \"#utility.yul\":12931:13405   */\n      swap3\n      pop\n      swap3\n      swap1\n      pop\n      jump\t// out\n        /* \"#utility.yul\":13411:13591   */\n    tag_280:\n        /* \"#utility.yul\":13459:13536   */\n      0x4e487b7100000000000000000000000000000000000000000000000000000000\n        /* \"#utility.yul\":13456:13457   */\n      0x00\n        /* \"#utility.yul\":13449:13537   */\n      mstore\n        /* \"#utility.yul\":13556:13560   */\n      0x22\n        /* \"#utility.yul\":13553:13554   */\n      0x04\n        /* \"#utility.yul\":13546:13561   */\n      mstore\n        /* \"#utility.yul\":13580:13584   */\n      0x24\n        /* \"#utility.yul\":13577:13578   */\n      0x00\n        /* \"#utility.yul\":13570:13585   */\n      revert\n        /* \"#utility.yul\":13597:13917   */\n    tag_95:\n        /* \"#utility.yul\":13641:13647   */\n      0x00\n        /* \"#utility.yul\":13678:13679   */\n      0x02\n        /* \"#utility.yul\":13672:13676   */\n      dup3\n        /* \"#utility.yul\":13668:13680   */\n      div\n        /* \"#utility.yul\":13658:13680   */\n      swap1\n      pop\n        /* \"#utility.yul\":13725:13726   */\n      0x01\n        /* \"#utility.yul\":13719:13723   */\n      dup3\n        /* \"#utility.yul\":13715:13727   */\n      and\n        /* \"#utility.yul\":13746:13764   */\n      dup1\n        /* \"#utility.yul\":13736:13817   */\n      tag_488\n      jumpi\n        /* \"#utility.yul\":13802:13806   */\n      0x7f\n        /* \"#utility.yul\":13794:13800   */\n      dup3\n        /* \"#utility.yul\":13790:13807   */\n      and\n        /* \"#utility.yul\":13780:13807   */\n      swap2\n      pop\n        /* \"#utility.yul\":13736:13817   */\n    tag_488:\n        /* \"#utility.yul\":13864:13866   */\n      0x20\n        /* \"#utility.yul\":13856:13862   */\n      dup3\n        /* \"#utility.yul\":13853:13867   */\n      lt\n        /* \"#utility.yul\":13833:13851   */\n      dup2\n        /* \"#utility.yul\":13830:13868   */\n      sub\n        /* \"#utility.yul\":13827:13911   */\n      tag_489\n      jumpi\n        /* \"#utility.yul\":13883:13901   */\n      tag_490\n      tag_280\n      jump\t// in\n    tag_490:\n        /* \"#utility.yul\":13827:13911   */\n    tag_489:\n        /* \"#utility.yul\":13648:13917   */\n      pop\n        /* \"#utility.yul\":13597:13917   */\n      swap2\n      swap1\n      pop\n      jump\t// out\n        /* \"#utility.yul\":13923:14092   */\n    tag_281:\n        /* \"#utility.yul\":14063:14084   */\n      0x746f6b656e20646f65736e277420657869737400000000000000000000000000\n        /* \"#utility.yul\":14059:14060   */\n      0x00\n        /* \"#utility.yul\":14051:14057   */\n      dup3\n        /* \"#utility.yul\":14047:14061   */\n      add\n        /* \"#utility.yul\":14040:14085   */\n      mstore\n        /* \"#utility.yul\":13923:14092   */\n      pop\n      jump\t// out\n        /* \"#utility.yul\":14098:14464   */\n    tag_282:\n        /* \"#utility.yul\":14240:14243   */\n      0x00\n        /* \"#utility.yul\":14261:14328   */\n      tag_493\n        /* \"#utility.yul\":14325:14327   */\n      0x13\n        /* \"#utility.yul\":14320:14323   */\n      dup4\n        /* \"#utility.yul\":14261:14328   */\n      tag_254\n      jump\t// in\n    tag_493:\n        /* \"#utility.yul\":14254:14328   */\n      swap2\n      pop\n        /* \"#utility.yul\":14337:14430   */\n      tag_494\n        /* \"#utility.yul\":14426:14429   */\n      dup3\n        /* \"#utility.yul\":14337:14430   */\n      tag_281\n      jump\t// in\n    tag_494:\n        /* \"#utility.yul\":14455:14457   */\n      0x20\n        /* \"#utility.yul\":14450:14453   */\n      dup3\n        /* \"#utility.yul\":14446:14458   */\n      add\n        /* \"#utility.yul\":14439:14458   */\n      swap1\n      pop\n        /* \"#utility.yul\":14098:14464   */\n      swap2\n      swap1\n      pop\n      jump\t// out\n        /* \"#utility.yul\":14470:14889   */\n    tag_103:\n        /* \"#utility.yul\":14636:14640   */\n      0x00\n        /* \"#utility.yul\":14674:14676   */\n      0x20\n        /* \"#utility.yul\":14663:14672   */\n      dup3\n        /* \"#utility.yul\":14659:14677   */\n      add\n        /* \"#utility.yul\":14651:14677   */\n      swap1\n      pop\n        /* \"#utility.yul\":14723:14732   */\n      dup2\n        /* \"#utility.yul\":14717:14721   */\n      dup2\n        /* \"#utility.yul\":14713:14733   */\n      sub\n        /* \"#utility.yul\":14709:14710   */\n      0x00\n        /* \"#utility.yul\":14698:14707   */\n      dup4\n        /* \"#utility.yul\":14694:14711   */\n      add\n        /* \"#utility.yul\":14687:14734   */\n      mstore\n        /* \"#utility.yul\":14751:14882   */\n      tag_496\n        /* \"#utility.yul\":14877:14881   */\n      dup2\n        /* \"#utility.yul\":14751:14882   */\n      tag_282\n      jump\t// in\n    tag_496:\n        /* \"#utility.yul\":14743:14882   */\n      swap1\n      pop\n        /* \"#utility.yul\":14470:14889   */\n      swap2\n      swap1\n      pop\n      jump\t// out\n        /* \"#utility.yul\":14895:15075   */\n    tag_283:\n        /* \"#utility.yul\":15035:15067   */\n      0x6e6f74206f776e6572206e6f7220617070726f76656420666f7220616c6c0000\n        /* \"#utility.yul\":15031:15032   */\n      0x00\n        /* \"#utility.yul\":15023:15029   */\n      dup3\n        /* \"#utility.yul\":15019:15033   */\n      add\n        /* \"#utility.yul\":15012:15068   */\n      mstore\n        /* \"#utility.yul\":14895:15075   */\n      pop\n      jump\t// out\n        /* \"#utility.yul\":15081:15447   */\n    tag_284:\n        /* \"#utility.yul\":15223:15226   */\n      0x00\n        /* \"#utility.yul\":15244:15311   */\n      tag_499\n        /* \"#utility.yul\":15308:15310   */\n      0x1e\n        /* \"#utility.yul\":15303:15306   */\n      dup4\n        /* \"#utility.yul\":15244:15311   */\n      tag_254\n      jump\t// in\n    tag_499:\n        /* \"#utility.yul\":15237:15311   */\n      swap2\n      pop\n        /* \"#utility.yul\":15320:15413   */\n      tag_500\n        /* \"#utility.yul\":15409:15412   */\n      dup3\n        /* \"#utility.yul\":15320:15413   */\n      tag_283\n      jump\t// in\n    tag_500:\n        /* \"#utility.yul\":15438:15440   */\n      0x20\n        /* \"#utility.yul\":15433:15436   */\n      dup3\n        /* \"#utility.yul\":15429:15441   */\n      add\n        /* \"#utility.yul\":15422:15441   */\n      swap1\n      pop\n        /* \"#utility.yul\":15081:15447   */\n      swap2\n      swap1\n      pop\n      jump\t// out\n        /* \"#utility.yul\":15453:15872   */\n    tag_108:\n        /* \"#utility.yul\":15619:15623   */\n      0x00\n        /* \"#utility.yul\":15657:15659   */\n      0x20\n        /* \"#utility.yul\":15646:15655   */\n      dup3\n        /* \"#utility.yul\":15642:15660   */\n      add\n        /* \"#utility.yul\":15634:15660   */\n      swap1\n      pop\n        /* \"#utility.yul\":15706:15715   */\n      dup2\n        /* \"#utility.yul\":15700:15704   */\n      dup2\n        /* \"#utility.yul\":15696:15716   */\n      sub\n        /* \"#utility.yul\":15692:15693   */\n      0x00\n        /* \"#utility.yul\":15681:15690   */\n      dup4\n        /* \"#utility.yul\":15677:15694   */\n      add\n        /* \"#utility.yul\":15670:15717   */\n      mstore\n        /* \"#utility.yul\":15734:15865   */\n      tag_502\n        /* \"#utility.yul\":15860:15864   */\n      dup2\n        /* \"#utility.yul\":15734:15865   */\n      tag_284\n      jump\t// in\n    tag_502:\n        /* \"#utility.yul\":15726:15865   */\n      swap1\n      pop\n        /* \"#utility.yul\":15453:15872   */\n      swap2\n      swap1\n      pop\n      jump\t// out\n        /* \"#utility.yul\":15878:16048   */\n    tag_285:\n        /* \"#utility.yul\":16018:16040   */\n      0x546f6b656e20646f6573206e6f74206578697374000000000000000000000000\n        /* \"#utility.yul\":16014:16015   */\n      0x00\n        /* \"#utility.yul\":16006:16012   */\n      dup3\n        /* \"#utility.yul\":16002:16016   */\n      add\n        /* \"#utility.yul\":15995:16041   */\n      mstore\n        /* \"#utility.yul\":15878:16048   */\n      pop\n      jump\t// out\n        /* \"#utility.yul\":16054:16420   */\n    tag_286:\n        /* \"#utility.yul\":16196:16199   */\n      0x00\n        /* \"#utility.yul\":16217:16284   */\n      tag_505\n        /* \"#utility.yul\":16281:16283   */\n      0x14\n        /* \"#utility.yul\":16276:16279   */\n      dup4\n        /* \"#utility.yul\":16217:16284   */\n      tag_254\n      jump\t// in\n    tag_505:\n        /* \"#utility.yul\":16210:16284   */\n      swap2\n      pop\n        /* \"#utility.yul\":16293:16386   */\n      tag_506\n        /* \"#utility.yul\":16382:16385   */\n      dup3\n        /* \"#utility.yul\":16293:16386   */\n      tag_285\n      jump\t// in\n    tag_506:\n        /* \"#utility.yul\":16411:16413   */\n      0x20\n        /* \"#utility.yul\":16406:16409   */\n      dup3\n        /* \"#utility.yul\":16402:16414   */\n      add\n        /* \"#utility.yul\":16395:16414   */\n      swap1\n      pop\n        /* \"#utility.yul\":16054:16420   */\n      swap2\n      swap1\n      pop\n      jump\t// out\n        /* \"#utility.yul\":16426:16845   */\n    tag_114:\n        /* \"#utility.yul\":16592:16596   */\n      0x00\n        /* \"#utility.yul\":16630:16632   */\n      0x20\n        /* \"#utility.yul\":16619:16628   */\n      dup3\n        /* \"#utility.yul\":16615:16633   */\n      add\n        /* \"#utility.yul\":16607:16633   */\n      swap1\n      pop\n        /* \"#utility.yul\":16679:16688   */\n      dup2\n        /* \"#utility.yul\":16673:16677   */\n      dup2\n        /* \"#utility.yul\":16669:16689   */\n      sub\n        /* \"#utility.yul\":16665:16666   */\n      0x00\n        /* \"#utility.yul\":16654:16663   */\n      dup4\n        /* \"#utility.yul\":16650:16667   */\n      add\n        /* \"#utility.yul\":16643:16690   */\n      mstore\n        /* \"#utility.yul\":16707:16838   */\n      tag_508\n        /* \"#utility.yul\":16833:16837   */\n      dup2\n        /* \"#utility.yul\":16707:16838   */\n      tag_286\n      jump\t// in\n    tag_508:\n        /* \"#utility.yul\":16699:16838   */\n      swap1\n      pop\n        /* \"#utility.yul\":16426:16845   */\n      swap2\n      swap1\n      pop\n      jump\t// out\n        /* \"#utility.yul\":16851:17016   */\n    tag_287:\n        /* \"#utility.yul\":16991:17008   */\n      0x4e6f7420746f6b656e206f776e65720000000000000000000000000000000000\n        /* \"#utility.yul\":16987:16988   */\n      0x00\n        /* \"#utility.yul\":16979:16985   */\n      dup3\n        /* \"#utility.yul\":16975:16989   */\n      add\n        /* \"#utility.yul\":16968:17009   */\n      mstore\n        /* \"#utility.yul\":16851:17016   */\n      pop\n      jump\t// out\n        /* \"#utility.yul\":17022:17388   */\n    tag_288:\n        /* \"#utility.yul\":17164:17167   */\n      0x00\n        /* \"#utility.yul\":17185:17252   */\n      tag_511\n        /* \"#utility.yul\":17249:17251   */\n      0x0f\n        /* \"#utility.yul\":17244:17247   */\n      dup4\n        /* \"#utility.yul\":17185:17252   */\n      tag_254\n      jump\t// in\n    tag_511:\n        /* \"#utility.yul\":17178:17252   */\n      swap2\n      pop\n        /* \"#utility.yul\":17261:17354   */\n      tag_512\n        /* \"#utility.yul\":17350:17353   */\n      dup3\n        /* \"#utility.yul\":17261:17354   */\n      tag_287\n      jump\t// in\n    tag_512:\n        /* \"#utility.yul\":17379:17381   */\n      0x20\n        /* \"#utility.yul\":17374:17377   */\n      dup3\n        /* \"#utility.yul\":17370:17382   */\n      add\n        /* \"#utility.yul\":17363:17382   */\n      swap1\n      pop\n        /* \"#utility.yul\":17022:17388   */\n      swap2\n      swap1\n      pop\n      jump\t// out\n        /* \"#utility.yul\":17394:17813   */\n    tag_117:\n        /* \"#utility.yul\":17560:17564   */\n      0x00\n        /* \"#utility.yul\":17598:17600   */\n      0x20\n        /* \"#utility.yul\":17587:17596   */\n      dup3\n        /* \"#utility.yul\":17583:17601   */\n      add\n        /* \"#utility.yul\":17575:17601   */\n      swap1\n      pop\n        /* \"#utility.yul\":17647:17656   */\n      dup2\n        /* \"#utility.yul\":17641:17645   */\n      dup2\n        /* \"#utility.yul\":17637:17657   */\n      sub\n        /* \"#utility.yul\":17633:17634   */\n      0x00\n        /* \"#utility.yul\":17622:17631   */\n      dup4\n        /* \"#utility.yul\":17618:17635   */\n      add\n        /* \"#utility.yul\":17611:17658   */\n      mstore\n        /* \"#utility.yul\":17675:17806   */\n      tag_514\n        /* \"#utility.yul\":17801:17805   */\n      dup2\n        /* \"#utility.yul\":17675:17806   */\n      tag_288\n      jump\t// in\n    tag_514:\n        /* \"#utility.yul\":17667:17806   */\n      swap1\n      pop\n        /* \"#utility.yul\":17394:17813   */\n      swap2\n      swap1\n      pop\n      jump\t// out\n        /* \"#utility.yul\":17819:17960   */\n    tag_289:\n        /* \"#utility.yul\":17868:17872   */\n      0x00\n        /* \"#utility.yul\":17891:17894   */\n      dup2\n        /* \"#utility.yul\":17883:17894   */\n      swap1\n      pop\n        /* \"#utility.yul\":17914:17917   */\n      dup2\n        /* \"#utility.yul\":17911:17912   */\n      0x00\n        /* \"#utility.yul\":17904:17918   */\n      mstore\n        /* \"#utility.yul\":17948:17952   */\n      0x20\n        /* \"#utility.yul\":17945:17946   */\n      0x00\n        /* \"#utility.yul\":17935:17953   */\n      keccak256\n        /* \"#utility.yul\":17927:17953   */\n      swap1\n      pop\n        /* \"#utility.yul\":17819:17960   */\n      swap2\n      swap1\n      pop\n      jump\t// out\n        /* \"#utility.yul\":17966:18059   */\n    tag_290:\n        /* \"#utility.yul\":18003:18009   */\n      0x00\n        /* \"#utility.yul\":18050:18052   */\n      0x20\n        /* \"#utility.yul\":18045:18047   */\n      0x1f\n        /* \"#utility.yul\":18038:18043   */\n      dup4\n        /* \"#utility.yul\":18034:18048   */\n      add\n        /* \"#utility.yul\":18030:18053   */\n      div\n        /* \"#utility.yul\":18020:18053   */\n      swap1\n      pop\n        /* \"#utility.yul\":17966:18059   */\n      swap2\n      swap1\n      pop\n      jump\t// out\n        /* \"#utility.yul\":18065:18172   */\n    tag_291:\n        /* \"#utility.yul\":18109:18117   */\n      0x00\n        /* \"#utility.yul\":18159:18164   */\n      dup3\n        /* \"#utility.yul\":18153:18157   */\n      dup3\n        /* \"#utility.yul\":18149:18165   */\n      shl\n        /* \"#utility.yul\":18128:18165   */\n      swap1\n      pop\n        /* \"#utility.yul\":18065:18172   */\n      swap3\n      swap2\n      pop\n      pop\n      jump\t// out\n        /* \"#utility.yul\":18178:18571   */\n    tag_292:\n        /* \"#utility.yul\":18247:18253   */\n      0x00\n        /* \"#utility.yul\":18297:18298   */\n      0x08\n        /* \"#utility.yul\":18285:18295   */\n      dup4\n        /* \"#utility.yul\":18281:18299   */\n      mul\n        /* \"#utility.yul\":18320:18417   */\n      tag_519\n        /* \"#utility.yul\":18350:18416   */\n      0xffffffffffffffffffffffffffffffffffffffffffffffffffffffffffffffff\n        /* \"#utility.yul\":18339:18348   */\n      dup3\n        /* \"#utility.yul\":18320:18417   */\n      tag_291\n      jump\t// in\n    tag_519:\n        /* \"#utility.yul\":18438:18477   */\n      tag_520\n        /* \"#utility.yul\":18468:18476   */\n      dup7\n        /* \"#utility.yul\":18457:18466   */\n      dup4\n        /* \"#utility.yul\":18438:18477   */\n      tag_291\n      jump\t// in\n    tag_520:\n        /* \"#utility.yul\":18426:18477   */\n      swap6\n      pop\n        /* \"#utility.yul\":18510:18514   */\n      dup1\n        /* \"#utility.yul\":18506:18515   */\n      not\n        /* \"#utility.yul\":18499:18504   */\n      dup5\n        /* \"#utility.yul\":18495:18516   */\n      and\n        /* \"#utility.yul\":18486:18516   */\n      swap4\n      pop\n        /* \"#utility.yul\":18559:18563   */\n      dup1\n        /* \"#utility.yul\":18549:18557   */\n      dup7\n        /* \"#utility.yul\":18545:18564   */\n      and\n        /* \"#utility.yul\":18538:18543   */\n      dup5\n        /* \"#utility.yul\":18535:18565   */\n      or\n        /* \"#utility.yul\":18525:18565   */\n      swap3\n      pop\n        /* \"#utility.yul\":18254:18571   */\n      pop\n      pop\n        /* \"#utility.yul\":18178:18571   */\n      swap4\n      swap3\n      pop\n      pop\n      pop\n      jump\t// out\n        /* \"#utility.yul\":18577:18637   */\n    tag_293:\n        /* \"#utility.yul\":18605:18608   */\n      0x00\n        /* \"#utility.yul\":18626:18631   */\n      dup2\n        /* \"#utility.yul\":18619:18631   */\n      swap1\n      pop\n        /* \"#utility.yul\":18577:18637   */\n      swap2\n      swap1\n      pop\n      jump\t// out\n        /* \"#utility.yul\":18643:18785   */\n    tag_294:\n        /* \"#utility.yul\":18693:18702   */\n      0x00\n        /* \"#utility.yul\":18726:18779   */\n      tag_523\n        /* \"#utility.yul\":18744:18778   */\n      tag_524\n        /* \"#utility.yul\":18753:18777   */\n      tag_525\n        /* \"#utility.yul\":18771:18776   */\n      dup5\n        /* \"#utility.yul\":18753:18777   */\n      tag_258\n      jump\t// in\n    tag_525:\n        /* \"#utility.yul\":18744:18778   */\n      tag_293\n      jump\t// in\n    tag_524:\n        /* \"#utility.yul\":18726:18779   */\n      tag_258\n      jump\t// in\n    tag_523:\n        /* \"#utility.yul\":18713:18779   */\n      swap1\n      pop\n        /* \"#utility.yul\":18643:18785   */\n      swap2\n      swap1\n      pop\n      jump\t// out\n        /* \"#utility.yul\":18791:18866   */\n    tag_295:\n        /* \"#utility.yul\":18834:18837   */\n      0x00\n        /* \"#utility.yul\":18855:18860   */\n      dup2\n        /* \"#utility.yul\":18848:18860   */\n      swap1\n      pop\n        /* \"#utility.yul\":18791:18866   */\n      swap2\n      swap1\n      pop\n      jump\t// out\n        /* \"#utility.yul\":18872:19141   */\n    tag_296:\n        /* \"#utility.yul\":18982:19021   */\n      tag_528\n        /* \"#utility.yul\":19013:19020   */\n      dup4\n        /* \"#utility.yul\":18982:19021   */\n      tag_294\n      jump\t// in\n    tag_528:\n        /* \"#utility.yul\":19043:19134   */\n      tag_529\n        /* \"#utility.yul\":19092:19133   */\n      tag_530\n        /* \"#utility.yul\":19116:19132   */\n      dup3\n        /* \"#utility.yul\":19092:19133   */\n      tag_295\n      jump\t// in\n    tag_530:\n        /* \"#utility.yul\":19084:19090   */\n      dup5\n        /* \"#utility.yul\":19077:19081   */\n      dup5\n        /* \"#utility.yul\":19071:19082   */\n      sload\n        /* \"#utility.yul\":19043:19134   */\n      tag_292\n      jump\t// in\n    tag_529:\n        /* \"#utility.yul\":19037:19041   */\n      dup3\n        /* \"#utility.yul\":19030:19135   */\n      sstore\n        /* \"#utility.yul\":18948:19141   */\n      pop\n        /* \"#utility.yul\":18872:19141   */\n      pop\n      pop\n      pop\n      jump\t// out\n        /* \"#utility.yul\":19147:19220   */\n    tag_297:\n        /* \"#utility.yul\":19192:19195   */\n      0x00\n        /* \"#utility.yul\":19147:19220   */\n      swap1\n      jump\t// out\n        /* \"#utility.yul\":19226:19415   */\n    tag_298:\n        /* \"#utility.yul\":19303:19335   */\n      tag_533\n      tag_297\n      jump\t// in\n    tag_533:\n        /* \"#utility.yul\":19344:19409   */\n      tag_534\n        /* \"#utility.yul\":19402:19408   */\n      dup2\n        /* \"#utility.yul\":19394:19400   */\n      dup5\n        /* \"#utility.yul\":19388:19392   */\n      dup5\n        /* \"#utility.yul\":19344:19409   */\n      tag_296\n      jump\t// in\n    tag_534:\n        /* \"#utility.yul\":19279:19415   */\n      pop\n        /* \"#utility.yul\":19226:19415   */\n      pop\n      pop\n      jump\t// out\n        /* \"#utility.yul\":19421:19607   */\n    tag_299:\n        /* \"#utility.yul\":19481:19601   */\n    tag_536:\n        /* \"#utility.yul\":19498:19501   */\n      dup2\n        /* \"#utility.yul\":19491:19496   */\n      dup2\n        /* \"#utility.yul\":19488:19502   */\n      lt\n        /* \"#utility.yul\":19481:19601   */\n      iszero\n      tag_538\n      jumpi\n        /* \"#utility.yul\":19552:19591   */\n      tag_539\n        /* \"#utility.yul\":19589:19590   */\n      0x00\n        /* \"#utility.yul\":19582:19587   */\n      dup3\n        /* \"#utility.yul\":19552:19591   */\n      tag_298\n      jump\t// in\n    tag_539:\n        /* \"#utility.yul\":19525:19526   */\n      0x01\n        /* \"#utility.yul\":19518:19523   */\n      dup2\n        /* \"#utility.yul\":19514:19527   */\n      add\n        /* \"#utility.yul\":19505:19527   */\n      swap1\n      pop\n        /* \"#utility.yul\":19481:19601   */\n      jump(tag_536)\n    tag_538:\n        /* \"#utility.yul\":19421:19607   */\n      pop\n      pop\n      jump\t// out\n        /* \"#utility.yul\":19613:20156   */\n    tag_300:\n        /* \"#utility.yul\":19714:19716   */\n      0x1f\n        /* \"#utility.yul\":19709:19712   */\n      dup3\n        /* \"#utility.yul\":19706:19717   */\n      gt\n        /* \"#utility.yul\":19703:20149   */\n      iszero\n      tag_541\n      jumpi\n        /* \"#utility.yul\":19748:19786   */\n      tag_542\n        /* \"#utility.yul\":19780:19785   */\n      dup2\n        /* \"#utility.yul\":19748:19786   */\n      tag_289\n      jump\t// in\n    tag_542:\n        /* \"#utility.yul\":19832:19861   */\n      tag_543\n        /* \"#utility.yul\":19850:19860   */\n      dup5\n        /* \"#utility.yul\":19832:19861   */\n      tag_290\n      jump\t// in\n    tag_543:\n        /* \"#utility.yul\":19822:19830   */\n      dup2\n        /* \"#utility.yul\":19818:19862   */\n      add\n        /* \"#utility.yul\":20015:20017   */\n      0x20\n        /* \"#utility.yul\":20003:20013   */\n      dup6\n        /* \"#utility.yul\":20000:20018   */\n      lt\n        /* \"#utility.yul\":19997:20046   */\n      iszero\n      tag_544\n      jumpi\n        /* \"#utility.yul\":20036:20044   */\n      dup2\n        /* \"#utility.yul\":20021:20044   */\n      swap1\n      pop\n        /* \"#utility.yul\":19997:20046   */\n    tag_544:\n        /* \"#utility.yul\":20059:20139   */\n      tag_545\n        /* \"#utility.yul\":20115:20137   */\n      tag_546\n        /* \"#utility.yul\":20133:20136   */\n      dup6\n        /* \"#utility.yul\":20115:20137   */\n      tag_290\n      jump\t// in\n    tag_546:\n        /* \"#utility.yul\":20105:20113   */\n      dup4\n        /* \"#utility.yul\":20101:20138   */\n      add\n        /* \"#utility.yul\":20088:20099   */\n      dup3\n        /* \"#utility.yul\":20059:20139   */\n      tag_299\n      jump\t// in\n    tag_545:\n        /* \"#utility.yul\":19718:20149   */\n      pop\n      pop\n        /* \"#utility.yul\":19703:20149   */\n    tag_541:\n        /* \"#utility.yul\":19613:20156   */\n      pop\n      pop\n      pop\n      jump\t// out\n        /* \"#utility.yul\":20162:20279   */\n    tag_301:\n        /* \"#utility.yul\":20216:20224   */\n      0x00\n        /* \"#utility.yul\":20266:20271   */\n      dup3\n        /* \"#utility.yul\":20260:20264   */\n      dup3\n        /* \"#utility.yul\":20256:20272   */\n      shr\n        /* \"#utility.yul\":20235:20272   */\n      swap1\n      pop\n        /* \"#utility.yul\":20162:20279   */\n      swap3\n      swap2\n      pop\n      pop\n      jump\t// out\n        /* \"#utility.yul\":20285:20454   */\n    tag_302:\n        /* \"#utility.yul\":20329:20335   */\n      0x00\n        /* \"#utility.yul\":20362:20413   */\n      tag_549\n        /* \"#utility.yul\":20410:20411   */\n      0x00\n        /* \"#utility.yul\":20406:20412   */\n      not\n        /* \"#utility.yul\":20398:20403   */\n      dup5\n        /* \"#utility.yul\":20395:20396   */\n      0x08\n        /* \"#utility.yul\":20391:20404   */\n      mul\n        /* \"#utility.yul\":20362:20413   */\n      tag_301\n      jump\t// in\n    tag_549:\n        /* \"#utility.yul\":20358:20414   */\n      not\n        /* \"#utility.yul\":20443:20447   */\n      dup1\n        /* \"#utility.yul\":20437:20441   */\n      dup4\n        /* \"#utility.yul\":20433:20448   */\n      and\n        /* \"#utility.yul\":20423:20448   */\n      swap2\n      pop\n        /* \"#utility.yul\":20336:20454   */\n      pop\n        /* \"#utility.yul\":20285:20454   */\n      swap3\n      swap2\n      pop\n      pop\n      jump\t// out\n        /* \"#utility.yul\":20459:20754   */\n    tag_303:\n        /* \"#utility.yul\":20535:20539   */\n      0x00\n        /* \"#utility.yul\":20681:20710   */\n      tag_551\n        /* \"#utility.yul\":20706:20709   */\n      dup4\n        /* \"#utility.yul\":20700:20704   */\n      dup4\n        /* \"#utility.yul\":20681:20710   */\n      tag_302\n      jump\t// in\n    tag_551:\n        /* \"#utility.yul\":20673:20710   */\n      swap2\n      pop\n        /* \"#utility.yul\":20743:20746   */\n      dup3\n        /* \"#utility.yul\":20740:20741   */\n      0x02\n        /* \"#utility.yul\":20736:20747   */\n      mul\n        /* \"#utility.yul\":20730:20734   */\n      dup3\n        /* \"#utility.yul\":20727:20748   */\n      or\n        /* \"#utility.yul\":20719:20748   */\n      swap1\n      pop\n        /* \"#utility.yul\":20459:20754   */\n      swap3\n      swap2\n      pop\n      pop\n      jump\t// out\n        /* \"#utility.yul\":20759:22154   */\n    tag_119:\n        /* \"#utility.yul\":20876:20913   */\n      tag_553\n        /* \"#utility.yul\":20909:20912   */\n      dup3\n        /* \"#utility.yul\":20876:20913   */\n      tag_253\n      jump\t// in\n    tag_553:\n        /* \"#utility.yul\":20978:20996   */\n      0xffffffffffffffff\n        /* \"#utility.yul\":20970:20976   */\n      dup2\n        /* \"#utility.yul\":20967:20997   */\n      gt\n        /* \"#utility.yul\":20964:21020   */\n      iszero\n      tag_554\n      jumpi\n        /* \"#utility.yul\":21000:21018   */\n      tag_555\n      tag_213\n      jump\t// in\n    tag_555:\n        /* \"#utility.yul\":20964:21020   */\n    tag_554:\n        /* \"#utility.yul\":21044:21082   */\n      tag_556\n        /* \"#utility.yul\":21076:21080   */\n      dup3\n        /* \"#utility.yul\":21070:21081   */\n      sload\n        /* \"#utility.yul\":21044:21082   */\n      tag_95\n      jump\t// in\n    tag_556:\n        /* \"#utility.yul\":21129:21196   */\n      tag_557\n        /* \"#utility.yul\":21189:21195   */\n      dup3\n        /* \"#utility.yul\":21181:21187   */\n      dup3\n        /* \"#utility.yul\":21175:21179   */\n      dup6\n        /* \"#utility.yul\":21129:21196   */\n      tag_300\n      jump\t// in\n    tag_557:\n        /* \"#utility.yul\":21223:21224   */\n      0x00\n        /* \"#utility.yul\":21247:21251   */\n      0x20\n        /* \"#utility.yul\":21234:21251   */\n      swap1\n      pop\n        /* \"#utility.yul\":21279:21281   */\n      0x1f\n        /* \"#utility.yul\":21271:21277   */\n      dup4\n        /* \"#utility.yul\":21268:21282   */\n      gt\n        /* \"#utility.yul\":21296:21297   */\n      0x01\n        /* \"#utility.yul\":21291:21909   */\n      dup2\n      eq\n      tag_559\n      jumpi\n        /* \"#utility.yul\":21953:21954   */\n      0x00\n        /* \"#utility.yul\":21970:21976   */\n      dup5\n        /* \"#utility.yul\":21967:22044   */\n      iszero\n      tag_560\n      jumpi\n        /* \"#utility.yul\":22019:22028   */\n      dup3\n        /* \"#utility.yul\":22014:22017   */\n      dup8\n        /* \"#utility.yul\":22010:22029   */\n      add\n        /* \"#utility.yul\":22004:22030   */\n      mload\n        /* \"#utility.yul\":21995:22030   */\n      swap1\n      pop\n        /* \"#utility.yul\":21967:22044   */\n    tag_560:\n        /* \"#utility.yul\":22070:22137   */\n      tag_561\n        /* \"#utility.yul\":22130:22136   */\n      dup6\n        /* \"#utility.yul\":22123:22128   */\n      dup3\n        /* \"#utility.yul\":22070:22137   */\n      tag_303\n      jump\t// in\n    tag_561:\n        /* \"#utility.yul\":22064:22068   */\n      dup7\n        /* \"#utility.yul\":22057:22138   */\n      sstore\n        /* \"#utility.yul\":21926:22148   */\n      pop\n        /* \"#utility.yul\":21261:22148   */\n      jump(tag_558)\n        /* \"#utility.yul\":21291:21909   */\n    tag_559:\n        /* \"#utility.yul\":21343:21347   */\n      0x1f\n        /* \"#utility.yul\":21339:21348   */\n      not\n        /* \"#utility.yul\":21331:21337   */\n      dup5\n        /* \"#utility.yul\":21327:21349   */\n      and\n        /* \"#utility.yul\":21377:21414   */\n      tag_562\n        /* \"#utility.yul\":21409:21413   */\n      dup7\n        /* \"#utility.yul\":21377:21414   */\n      tag_289\n      jump\t// in\n    tag_562:\n        /* \"#utility.yul\":21436:21437   */\n      0x00\n        /* \"#utility.yul\":21450:21658   */\n    tag_563:\n        /* \"#utility.yul\":21464:21471   */\n      dup3\n        /* \"#utility.yul\":21461:21462   */\n      dup2\n        /* \"#utility.yul\":21458:21472   */\n      lt\n        /* \"#utility.yul\":21450:21658   */\n      iszero\n      tag_565\n      jumpi\n        /* \"#utility.yul\":21543:21552   */\n      dup5\n        /* \"#utility.yul\":21538:21541   */\n      dup10\n        /* \"#utility.yul\":21534:21553   */\n      add\n        /* \"#utility.yul\":21528:21554   */\n      mload\n        /* \"#utility.yul\":21520:21526   */\n      dup3\n        /* \"#utility.yul\":21513:21555   */\n      sstore\n        /* \"#utility.yul\":21594:21595   */\n      0x01\n        /* \"#utility.yul\":21586:21592   */\n      dup3\n        /* \"#utility.yul\":21582:21596   */\n      add\n        /* \"#utility.yul\":21572:21596   */\n      swap2\n      pop\n        /* \"#utility.yul\":21641:21643   */\n      0x20\n        /* \"#utility.yul\":21630:21639   */\n      dup6\n        /* \"#utility.yul\":21626:21644   */\n      add\n        /* \"#utility.yul\":21613:21644   */\n      swap5\n      pop\n        /* \"#utility.yul\":21487:21491   */\n      0x20\n        /* \"#utility.yul\":21484:21485   */\n      dup2\n        /* \"#utility.yul\":21480:21492   */\n      add\n        /* \"#utility.yul\":21475:21492   */\n      swap1\n      pop\n        /* \"#utility.yul\":21450:21658   */\n      jump(tag_563)\n    tag_565:\n        /* \"#utility.yul\":21686:21692   */\n      dup7\n        /* \"#utility.yul\":21677:21684   */\n      dup4\n        /* \"#utility.yul\":21674:21693   */\n      lt\n        /* \"#utility.yul\":21671:21850   */\n      iszero\n      tag_566\n      jumpi\n        /* \"#utility.yul\":21744:21753   */\n      dup5\n        /* \"#utility.yul\":21739:21742   */\n      dup10\n        /* \"#utility.yul\":21735:21754   */\n      add\n        /* \"#utility.yul\":21729:21755   */\n      mload\n        /* \"#utility.yul\":21787:21835   */\n      tag_567\n        /* \"#utility.yul\":21829:21833   */\n      0x1f\n        /* \"#utility.yul\":21821:21827   */\n      dup10\n        /* \"#utility.yul\":21817:21834   */\n      and\n        /* \"#utility.yul\":21806:21815   */\n      dup3\n        /* \"#utility.yul\":21787:21835   */\n      tag_302\n      jump\t// in\n    tag_567:\n        /* \"#utility.yul\":21779:21785   */\n      dup4\n        /* \"#utility.yul\":21772:21836   */\n      sstore\n        /* \"#utility.yul\":21694:21850   */\n      pop\n        /* \"#utility.yul\":21671:21850   */\n    tag_566:\n        /* \"#utility.yul\":21896:21897   */\n      0x01\n        /* \"#utility.yul\":21892:21893   */\n      0x02\n        /* \"#utility.yul\":21884:21890   */\n      dup9\n        /* \"#utility.yul\":21880:21894   */\n      mul\n        /* \"#utility.yul\":21876:21898   */\n      add\n        /* \"#utility.yul\":21870:21874   */\n      dup9\n        /* \"#utility.yul\":21863:21899   */\n      sstore\n        /* \"#utility.yul\":21298:21909   */\n      pop\n      pop\n      pop\n        /* \"#utility.yul\":21261:22148   */\n    tag_558:\n      pop\n        /* \"#utility.yul\":20851:22154   */\n      pop\n      pop\n      pop\n        /* \"#utility.yul\":20759:22154   */\n      pop\n      pop\n      jump\t// out\n        /* \"#utility.yul\":22160:22332   */\n    tag_304:\n        /* \"#utility.yul\":22300:22324   */\n      0x6e6f74206f776e6572206e6f7220617070726f76656400000000000000000000\n        /* \"#utility.yul\":22296:22297   */\n      0x00\n        /* \"#utility.yul\":22288:22294   */\n      dup3\n        /* \"#utility.yul\":22284:22298   */\n      add\n        /* \"#utility.yul\":22277:22325   */\n      mstore\n        /* \"#utility.yul\":22160:22332   */\n      pop\n      jump\t// out\n        /* \"#utility.yul\":22338:22704   */\n    tag_305:\n        /* \"#utility.yul\":22480:22483   */\n      0x00\n        /* \"#utility.yul\":22501:22568   */\n      tag_570\n        /* \"#utility.yul\":22565:22567   */\n      0x16\n        /* \"#utility.yul\":22560:22563   */\n      dup4\n        /* \"#utility.yul\":22501:22568   */\n      tag_254\n      jump\t// in\n    tag_570:\n        /* \"#utility.yul\":22494:22568   */\n      swap2\n      pop\n        /* \"#utility.yul\":22577:22670   */\n      tag_571\n        /* \"#utility.yul\":22666:22669   */\n      dup3\n        /* \"#utility.yul\":22577:22670   */\n      tag_304\n      jump\t// in\n    tag_571:\n        /* \"#utility.yul\":22695:22697   */\n      0x20\n        /* \"#utility.yul\":22690:22693   */\n      dup3\n        /* \"#utility.yul\":22686:22698   */\n      add\n        /* \"#utility.yul\":22679:22698   */\n      swap1\n      pop\n        /* \"#utility.yul\":22338:22704   */\n      swap2\n      swap1\n      pop\n      jump\t// out\n        /* \"#utility.yul\":22710:23129   */\n    tag_127:\n        /* \"#utility.yul\":22876:22880   */\n      0x00\n        /* \"#utility.yul\":22914:22916   */\n      0x20\n        /* \"#utility.yul\":22903:22912   */\n      dup3\n        /* \"#utility.yul\":22899:22917   */\n      add\n        /* \"#utility.yul\":22891:22917   */\n      swap1\n      pop\n        /* \"#utility.yul\":22963:22972   */\n      dup2\n        /* \"#utility.yul\":22957:22961   */\n      dup2\n        /* \"#utility.yul\":22953:22973   */\n      sub\n        /* \"#utility.yul\":22949:22950   */\n      0x00\n        /* \"#utility.yul\":22938:22947   */\n      dup4\n        /* \"#utility.yul\":22934:22951   */\n      add\n        /* \"#utility.yul\":22927:22974   */\n      mstore\n        /* \"#utility.yul\":22991:23122   */\n      tag_573\n        /* \"#utility.yul\":23117:23121   */\n      dup2\n        /* \"#utility.yul\":22991:23122   */\n      tag_305\n      jump\t// in\n    tag_573:\n        /* \"#utility.yul\":22983:23122   */\n      swap1\n      pop\n        /* \"#utility.yul\":22710:23129   */\n      swap2\n      swap1\n      pop\n      jump\t// out\n        /* \"#utility.yul\":23135:23305   */\n    tag_306:\n        /* \"#utility.yul\":23275:23297   */\n      0x6f776e6572203d207a65726f2061646472657373000000000000000000000000\n        /* \"#utility.yul\":23271:23272   */\n      0x00\n        /* \"#utility.yul\":23263:23269   */\n      dup3\n        /* \"#utility.yul\":23259:23273   */\n      add\n        /* \"#utility.yul\":23252:23298   */\n      mstore\n        /* \"#utility.yul\":23135:23305   */\n      pop\n      jump\t// out\n        /* \"#utility.yul\":23311:23677   */\n    tag_307:\n        /* \"#utility.yul\":23453:23456   */\n      0x00\n        /* \"#utility.yul\":23474:23541   */\n      tag_576\n        /* \"#utility.yul\":23538:23540   */\n      0x14\n        /* \"#utility.yul\":23533:23536   */\n      dup4\n        /* \"#utility.yul\":23474:23541   */\n      tag_254\n      jump\t// in\n    tag_576:\n        /* \"#utility.yul\":23467:23541   */\n      swap2\n      pop\n        /* \"#utility.yul\":23550:23643   */\n      tag_577\n        /* \"#utility.yul\":23639:23642   */\n      dup3\n        /* \"#utility.yul\":23550:23643   */\n      tag_306\n      jump\t// in\n    tag_577:\n        /* \"#utility.yul\":23668:23670   */\n      0x20\n        /* \"#utility.yul\":23663:23666   */\n      dup3\n        /* \"#utility.yul\":23659:23671   */\n      add\n        /* \"#utility.yul\":23652:23671   */\n      swap1\n      pop\n        /* \"#utility.yul\":23311:23677   */\n      swap2\n      swap1\n      pop\n      jump\t// out\n        /* \"#utility.yul\":23683:24102   */\n    tag_141:\n        /* \"#utility.yul\":23849:23853   */\n      0x00\n        /* \"#utility.yul\":23887:23889   */\n      0x20\n        /* \"#utility.yul\":23876:23885   */\n      dup3\n        /* \"#utility.yul\":23872:23890   */\n      add\n        /* \"#utility.yul\":23864:23890   */\n      swap1\n      pop\n        /* \"#utility.yul\":23936:23945   */\n      dup2\n        /* \"#utility.yul\":23930:23934   */\n      dup2\n        /* \"#utility.yul\":23926:23946   */\n      sub\n        /* \"#utility.yul\":23922:23923   */\n      0x00\n        /* \"#utility.yul\":23911:23920   */\n      dup4\n        /* \"#utility.yul\":23907:23924   */\n      add\n        /* \"#utility.yul\":23900:23947   */\n      mstore\n        /* \"#utility.yul\":23964:24095   */\n      tag_579\n        /* \"#utility.yul\":24090:24094   */\n      dup2\n        /* \"#utility.yul\":23964:24095   */\n      tag_307\n      jump\t// in\n    tag_579:\n        /* \"#utility.yul\":23956:24095   */\n      swap1\n      pop\n        /* \"#utility.yul\":23683:24102   */\n      swap2\n      swap1\n      pop\n      jump\t// out\n        /* \"#utility.yul\":24108:24273   */\n    tag_308:\n        /* \"#utility.yul\":24248:24265   */\n      0x546f6b656e204e6f742045786973740000000000000000000000000000000000\n        /* \"#utility.yul\":24244:24245   */\n      0x00\n        /* \"#utility.yul\":24236:24242   */\n      dup3\n        /* \"#utility.yul\":24232:24246   */\n      add\n        /* \"#utility.yul\":24225:24266   */\n      mstore\n        /* \"#utility.yul\":24108:24273   */\n      pop\n      jump\t// out\n        /* \"#utility.yul\":24279:24645   */\n    tag_309:\n        /* \"#utility.yul\":24421:24424   */\n      0x00\n        /* \"#utility.yul\":24442:24509   */\n      tag_582\n        /* \"#utility.yul\":24506:24508   */\n      0x0f\n        /* \"#utility.yul\":24501:24504   */\n      dup4\n        /* \"#utility.yul\":24442:24509   */\n      tag_254\n      jump\t// in\n    tag_582:\n        /* \"#utility.yul\":24435:24509   */\n      swap2\n      pop\n        /* \"#utility.yul\":24518:24611   */\n      tag_583\n        /* \"#utility.yul\":24607:24610   */\n      dup3\n        /* \"#utility.yul\":24518:24611   */\n      tag_308\n      jump\t// in\n    tag_583:\n        /* \"#utility.yul\":24636:24638   */\n      0x20\n        /* \"#utility.yul\":24631:24634   */\n      dup3\n        /* \"#utility.yul\":24627:24639   */\n      add\n        /* \"#utility.yul\":24620:24639   */\n      swap1\n      pop\n        /* \"#utility.yul\":24279:24645   */\n      swap2\n      swap1\n      pop\n      jump\t// out\n        /* \"#utility.yul\":24651:25070   */\n    tag_159:\n        /* \"#utility.yul\":24817:24821   */\n      0x00\n        /* \"#utility.yul\":24855:24857   */\n      0x20\n        /* \"#utility.yul\":24844:24853   */\n      dup3\n        /* \"#utility.yul\":24840:24858   */\n      add\n        /* \"#utility.yul\":24832:24858   */\n      swap1\n      pop\n        /* \"#utility.yul\":24904:24913   */\n      dup2\n        /* \"#utility.yul\":24898:24902   */\n      dup2\n        /* \"#utility.yul\":24894:24914   */\n      sub\n        /* \"#utility.yul\":24890:24891   */\n      0x00\n        /* \"#utility.yul\":24879:24888   */\n      dup4\n        /* \"#utility.yul\":24875:24892   */\n      add\n        /* \"#utility.yul\":24868:24915   */\n      mstore\n        /* \"#utility.yul\":24932:25063   */\n      tag_585\n        /* \"#utility.yul\":25058:25062   */\n      dup2\n        /* \"#utility.yul\":24932:25063   */\n      tag_309\n      jump\t// in\n    tag_585:\n        /* \"#utility.yul\":24924:25063   */\n      swap1\n      pop\n        /* \"#utility.yul\":24651:25070   */\n      swap2\n      swap1\n      pop\n      jump\t// out\n        /* \"#utility.yul\":25076:25224   */\n    tag_310:\n        /* \"#utility.yul\":25178:25189   */\n      0x00\n        /* \"#utility.yul\":25215:25218   */\n      dup2\n        /* \"#utility.yul\":25200:25218   */\n      swap1\n      pop\n        /* \"#utility.yul\":25076:25224   */\n      swap3\n      swap2\n      pop\n      pop\n      jump\t// out\n        /* \"#utility.yul\":25254:26128   */\n    tag_311:\n        /* \"#utility.yul\":25357:25360   */\n      0x00\n        /* \"#utility.yul\":25394:25399   */\n      dup2\n        /* \"#utility.yul\":25388:25400   */\n      sload\n        /* \"#utility.yul\":25423:25459   */\n      tag_588\n        /* \"#utility.yul\":25449:25458   */\n      dup2\n        /* \"#utility.yul\":25423:25459   */\n      tag_95\n      jump\t// in\n    tag_588:\n        /* \"#utility.yul\":25475:25564   */\n      tag_589\n        /* \"#utility.yul\":25557:25563   */\n      dup2\n        /* \"#utility.yul\":25552:25555   */\n      dup7\n        /* \"#utility.yul\":25475:25564   */\n      tag_310\n      jump\t// in\n    tag_589:\n        /* \"#utility.yul\":25468:25564   */\n      swap5\n      pop\n        /* \"#utility.yul\":25595:25596   */\n      0x01\n        /* \"#utility.yul\":25584:25593   */\n      dup3\n        /* \"#utility.yul\":25580:25597   */\n      and\n        /* \"#utility.yul\":25611:25612   */\n      0x00\n        /* \"#utility.yul\":25606:25772   */\n      dup2\n      eq\n      tag_591\n      jumpi\n        /* \"#utility.yul\":25786:25787   */\n      0x01\n        /* \"#utility.yul\":25781:26122   */\n      dup2\n      eq\n      tag_592\n      jumpi\n        /* \"#utility.yul\":25573:26122   */\n      jump(tag_590)\n        /* \"#utility.yul\":25606:25772   */\n    tag_591:\n        /* \"#utility.yul\":25690:25694   */\n      0xff\n        /* \"#utility.yul\":25686:25695   */\n      not\n        /* \"#utility.yul\":25675:25684   */\n      dup4\n        /* \"#utility.yul\":25671:25696   */\n      and\n        /* \"#utility.yul\":25666:25669   */\n      dup7\n        /* \"#utility.yul\":25659:25697   */\n      mstore\n        /* \"#utility.yul\":25752:25758   */\n      dup2\n        /* \"#utility.yul\":25745:25759   */\n      iszero\n        /* \"#utility.yul\":25738:25760   */\n      iszero\n        /* \"#utility.yul\":25730:25736   */\n      dup3\n        /* \"#utility.yul\":25726:25761   */\n      mul\n        /* \"#utility.yul\":25721:25724   */\n      dup7\n        /* \"#utility.yul\":25717:25762   */\n      add\n        /* \"#utility.yul\":25710:25762   */\n      swap4\n      pop\n        /* \"#utility.yul\":25606:25772   */\n      jump(tag_590)\n        /* \"#utility.yul\":25781:26122   */\n    tag_592:\n        /* \"#utility.yul\":25848:25886   */\n      tag_593\n        /* \"#utility.yul\":25880:25885   */\n      dup6\n        /* \"#utility.yul\":25848:25886   */\n      tag_289\n      jump\t// in\n    tag_593:\n        /* \"#utility.yul\":25908:25909   */\n      0x00\n        /* \"#utility.yul\":25922:26076   */\n    tag_594:\n        /* \"#utility.yul\":25936:25942   */\n      dup4\n        /* \"#utility.yul\":25933:25934   */\n      dup2\n        /* \"#utility.yul\":25930:25943   */\n      lt\n        /* \"#utility.yul\":25922:26076   */\n      iszero\n      tag_596\n      jumpi\n        /* \"#utility.yul\":26010:26017   */\n      dup2\n        /* \"#utility.yul\":26004:26018   */\n      sload\n        /* \"#utility.yul\":26000:26001   */\n      dup2\n        /* \"#utility.yul\":25995:25998   */\n      dup10\n        /* \"#utility.yul\":25991:26002   */\n      add\n        /* \"#utility.yul\":25984:26019   */\n      mstore\n        /* \"#utility.yul\":26060:26061   */\n      0x01\n        /* \"#utility.yul\":26051:26058   */\n      dup3\n        /* \"#utility.yul\":26047:26062   */\n      add\n        /* \"#utility.yul\":26036:26062   */\n      swap2\n      pop\n        /* \"#utility.yul\":25958:25962   */\n      0x20\n        /* \"#utility.yul\":25955:25956   */\n      dup2\n        /* \"#utility.yul\":25951:25963   */\n      add\n        /* \"#utility.yul\":25946:25963   */\n      swap1\n      pop\n        /* \"#utility.yul\":25922:26076   */\n      jump(tag_594)\n    tag_596:\n        /* \"#utility.yul\":26105:26111   */\n      dup4\n        /* \"#utility.yul\":26100:26103   */\n      dup9\n        /* \"#utility.yul\":26096:26112   */\n      add\n        /* \"#utility.yul\":26089:26112   */\n      swap6\n      pop\n        /* \"#utility.yul\":25788:26122   */\n      pop\n      pop\n        /* \"#utility.yul\":25573:26122   */\n    tag_590:\n      pop\n        /* \"#utility.yul\":25361:26128   */\n      pop\n      pop\n        /* \"#utility.yul\":25254:26128   */\n      swap3\n      swap2\n      pop\n      pop\n      jump\t// out\n        /* \"#utility.yul\":26134:26524   */\n    tag_312:\n        /* \"#utility.yul\":26240:26243   */\n      0x00\n        /* \"#utility.yul\":26268:26307   */\n      tag_598\n        /* \"#utility.yul\":26301:26306   */\n      dup3\n        /* \"#utility.yul\":26268:26307   */\n      tag_253\n      jump\t// in\n    tag_598:\n        /* \"#utility.yul\":26323:26412   */\n      tag_599\n        /* \"#utility.yul\":26405:26411   */\n      dup2\n        /* \"#utility.yul\":26400:26403   */\n      dup6\n        /* \"#utility.yul\":26323:26412   */\n      tag_310\n      jump\t// in\n    tag_599:\n        /* \"#utility.yul\":26316:26412   */\n      swap4\n      pop\n        /* \"#utility.yul\":26421:26486   */\n      tag_600\n        /* \"#utility.yul\":26479:26485   */\n      dup2\n        /* \"#utility.yul\":26474:26477   */\n      dup6\n        /* \"#utility.yul\":26467:26471   */\n      0x20\n        /* \"#utility.yul\":26460:26465   */\n      dup7\n        /* \"#utility.yul\":26456:26472   */\n      add\n        /* \"#utility.yul\":26421:26486   */\n      tag_255\n      jump\t// in\n    tag_600:\n        /* \"#utility.yul\":26511:26517   */\n      dup1\n        /* \"#utility.yul\":26506:26509   */\n      dup5\n        /* \"#utility.yul\":26502:26518   */\n      add\n        /* \"#utility.yul\":26495:26518   */\n      swap2\n      pop\n        /* \"#utility.yul\":26244:26524   */\n      pop\n        /* \"#utility.yul\":26134:26524   */\n      swap3\n      swap2\n      pop\n      pop\n      jump\t// out\n        /* \"#utility.yul\":26530:26959   */\n    tag_172:\n        /* \"#utility.yul\":26707:26710   */\n      0x00\n        /* \"#utility.yul\":26729:26821   */\n      tag_602\n        /* \"#utility.yul\":26817:26820   */\n      dup3\n        /* \"#utility.yul\":26808:26814   */\n      dup6\n        /* \"#utility.yul\":26729:26821   */\n      tag_311\n      jump\t// in\n    tag_602:\n        /* \"#utility.yul\":26722:26821   */\n      swap2\n      pop\n        /* \"#utility.yul\":26838:26933   */\n      tag_603\n        /* \"#utility.yul\":26929:26932   */\n      dup3\n        /* \"#utility.yul\":26920:26926   */\n      dup5\n        /* \"#utility.yul\":26838:26933   */\n      tag_312\n      jump\t// in\n    tag_603:\n        /* \"#utility.yul\":26831:26933   */\n      swap2\n      pop\n        /* \"#utility.yul\":26950:26953   */\n      dup2\n        /* \"#utility.yul\":26943:26953   */\n      swap1\n      pop\n        /* \"#utility.yul\":26530:26959   */\n      swap4\n      swap3\n      pop\n      pop\n      pop\n      jump\t// out\n        /* \"#utility.yul\":26965:27145   */\n    tag_313:\n        /* \"#utility.yul\":27013:27090   */\n      0x4e487b7100000000000000000000000000000000000000000000000000000000\n        /* \"#utility.yul\":27010:27011   */\n      0x00\n        /* \"#utility.yul\":27003:27091   */\n      mstore\n        /* \"#utility.yul\":27110:27114   */\n      0x11\n        /* \"#utility.yul\":27107:27108   */\n      0x04\n        /* \"#utility.yul\":27100:27115   */\n      mstore\n        /* \"#utility.yul\":27134:27138   */\n      0x24\n        /* \"#utility.yul\":27131:27132   */\n      0x00\n        /* \"#utility.yul\":27124:27139   */\n      revert\n        /* \"#utility.yul\":27151:27384   */\n    tag_178:\n        /* \"#utility.yul\":27190:27193   */\n      0x00\n        /* \"#utility.yul\":27213:27237   */\n      tag_606\n        /* \"#utility.yul\":27231:27236   */\n      dup3\n        /* \"#utility.yul\":27213:27237   */\n      tag_258\n      jump\t// in\n    tag_606:\n        /* \"#utility.yul\":27204:27237   */\n      swap2\n      pop\n        /* \"#utility.yul\":27259:27325   */\n      0xffffffffffffffffffffffffffffffffffffffffffffffffffffffffffffffff\n        /* \"#utility.yul\":27252:27257   */\n      dup3\n        /* \"#utility.yul\":27249:27326   */\n      sub\n        /* \"#utility.yul\":27246:27349   */\n      tag_607\n      jumpi\n        /* \"#utility.yul\":27329:27347   */\n      tag_608\n      tag_313\n      jump\t// in\n    tag_608:\n        /* \"#utility.yul\":27246:27349   */\n    tag_607:\n        /* \"#utility.yul\":27376:27377   */\n      0x01\n        /* \"#utility.yul\":27369:27374   */\n      dup3\n        /* \"#utility.yul\":27365:27378   */\n      add\n        /* \"#utility.yul\":27358:27378   */\n      swap1\n      pop\n        /* \"#utility.yul\":27151:27384   */\n      swap2\n      swap1\n      pop\n      jump\t// out\n        /* \"#utility.yul\":27390:27549   */\n    tag_314:\n        /* \"#utility.yul\":27530:27541   */\n      0x6e6f74206f776e65720000000000000000000000000000000000000000000000\n        /* \"#utility.yul\":27526:27527   */\n      0x00\n        /* \"#utility.yul\":27518:27524   */\n      dup3\n        /* \"#utility.yul\":27514:27528   */\n      add\n        /* \"#utility.yul\":27507:27542   */\n      mstore\n        /* \"#utility.yul\":27390:27549   */\n      pop\n      jump\t// out\n        /* \"#utility.yul\":27555:27920   */\n    tag_315:\n        /* \"#utility.yul\":27697:27700   */\n      0x00\n        /* \"#utility.yul\":27718:27784   */\n      tag_611\n        /* \"#utility.yul\":27782:27783   */\n      0x09\n        /* \"#utility.yul\":27777:27780   */\n      dup4\n        /* \"#utility.yul\":27718:27784   */\n      tag_254\n      jump\t// in\n    tag_611:\n        /* \"#utility.yul\":27711:27784   */\n      swap2\n      pop\n        /* \"#utility.yul\":27793:27886   */\n      tag_612\n        /* \"#utility.yul\":27882:27885   */\n      dup3\n        /* \"#utility.yul\":27793:27886   */\n      tag_314\n      jump\t// in\n    tag_612:\n        /* \"#utility.yul\":27911:27913   */\n      0x20\n        /* \"#utility.yul\":27906:27909   */\n      dup3\n        /* \"#utility.yul\":27902:27914   */\n      add\n        /* \"#utility.yul\":27895:27914   */\n      swap1\n      pop\n        /* \"#utility.yul\":27555:27920   */\n      swap2\n      swap1\n      pop\n      jump\t// out\n        /* \"#utility.yul\":27926:28345   */\n    tag_188:\n        /* \"#utility.yul\":28092:28096   */\n      0x00\n        /* \"#utility.yul\":28130:28132   */\n      0x20\n        /* \"#utility.yul\":28119:28128   */\n      dup3\n        /* \"#utility.yul\":28115:28133   */\n      add\n        /* \"#utility.yul\":28107:28133   */\n      swap1\n      pop\n        /* \"#utility.yul\":28179:28188   */\n      dup2\n        /* \"#utility.yul\":28173:28177   */\n      dup2\n        /* \"#utility.yul\":28169:28189   */\n      sub\n        /* \"#utility.yul\":28165:28166   */\n      0x00\n        /* \"#utility.yul\":28154:28163   */\n      dup4\n        /* \"#utility.yul\":28150:28167   */\n      add\n        /* \"#utility.yul\":28143:28190   */\n      mstore\n        /* \"#utility.yul\":28207:28338   */\n      tag_614\n        /* \"#utility.yul\":28333:28337   */\n      dup2\n        /* \"#utility.yul\":28207:28338   */\n      tag_315\n      jump\t// in\n    tag_614:\n        /* \"#utility.yul\":28199:28338   */\n      swap1\n      pop\n        /* \"#utility.yul\":27926:28345   */\n      swap2\n      swap1\n      pop\n      jump\t// out\n        /* \"#utility.yul\":28351:28529   */\n    tag_316:\n        /* \"#utility.yul\":28491:28521   */\n      0x7472616e7366657220746f20746865207a65726f206164647265737300000000\n        /* \"#utility.yul\":28487:28488   */\n      0x00\n        /* \"#utility.yul\":28479:28485   */\n      dup3\n        /* \"#utility.yul\":28475:28489   */\n      add\n        /* \"#utility.yul\":28468:28522   */\n      mstore\n        /* \"#utility.yul\":28351:28529   */\n      pop\n      jump\t// out\n        /* \"#utility.yul\":28535:28901   */\n    tag_317:\n        /* \"#utility.yul\":28677:28680   */\n      0x00\n        /* \"#utility.yul\":28698:28765   */\n      tag_617\n        /* \"#utility.yul\":28762:28764   */\n      0x1c\n        /* \"#utility.yul\":28757:28760   */\n      dup4\n        /* \"#utility.yul\":28698:28765   */\n      tag_254\n      jump\t// in\n    tag_617:\n        /* \"#utility.yul\":28691:28765   */\n      swap2\n      pop\n        /* \"#utility.yul\":28774:28867   */\n      tag_618\n        /* \"#utility.yul\":28863:28866   */\n      dup3\n        /* \"#utility.yul\":28774:28867   */\n      tag_316\n      jump\t// in\n    tag_618:\n        /* \"#utility.yul\":28892:28894   */\n      0x20\n        /* \"#utility.yul\":28887:28890   */\n      dup3\n        /* \"#utility.yul\":28883:28895   */\n      add\n        /* \"#utility.yul\":28876:28895   */\n      swap1\n      pop\n        /* \"#utility.yul\":28535:28901   */\n      swap2\n      swap1\n      pop\n      jump\t// out\n        /* \"#utility.yul\":28907:29326   */\n    tag_191:\n        /* \"#utility.yul\":29073:29077   */\n      0x00\n        /* \"#utility.yul\":29111:29113   */\n      0x20\n        /* \"#utility.yul\":29100:29109   */\n      dup3\n        /* \"#utility.yul\":29096:29114   */\n      add\n        /* \"#utility.yul\":29088:29114   */\n      swap1\n      pop\n        /* \"#utility.yul\":29160:29169   */\n      dup2\n        /* \"#utility.yul\":29154:29158   */\n      dup2\n        /* \"#utility.yul\":29150:29170   */\n      sub\n        /* \"#utility.yul\":29146:29147   */\n      0x00\n        /* \"#utility.yul\":29135:29144   */\n      dup4\n        /* \"#utility.yul\":29131:29148   */\n      add\n        /* \"#utility.yul\":29124:29171   */\n      mstore\n        /* \"#utility.yul\":29188:29319   */\n      tag_620\n        /* \"#utility.yul\":29314:29318   */\n      dup2\n        /* \"#utility.yul\":29188:29319   */\n      tag_317\n      jump\t// in\n    tag_620:\n        /* \"#utility.yul\":29180:29319   */\n      swap1\n      pop\n        /* \"#utility.yul\":28907:29326   */\n      swap2\n      swap1\n      pop\n      jump\t// out\n        /* \"#utility.yul\":29332:29526   */\n    tag_194:\n        /* \"#utility.yul\":29372:29376   */\n      0x00\n        /* \"#utility.yul\":29392:29412   */\n      tag_622\n        /* \"#utility.yul\":29410:29411   */\n      dup3\n        /* \"#utility.yul\":29392:29412   */\n      tag_258\n      jump\t// in\n    tag_622:\n        /* \"#utility.yul\":29387:29412   */\n      swap2\n      pop\n        /* \"#utility.yul\":29426:29446   */\n      tag_623\n        /* \"#utility.yul\":29444:29445   */\n      dup4\n        /* \"#utility.yul\":29426:29446   */\n      tag_258\n      jump\t// in\n    tag_623:\n        /* \"#utility.yul\":29421:29446   */\n      swap3\n      pop\n        /* \"#utility.yul\":29470:29471   */\n      dup3\n        /* \"#utility.yul\":29467:29468   */\n      dup3\n        /* \"#utility.yul\":29463:29472   */\n      sub\n        /* \"#utility.yul\":29455:29472   */\n      swap1\n      pop\n        /* \"#utility.yul\":29494:29495   */\n      dup2\n        /* \"#utility.yul\":29488:29492   */\n      dup2\n        /* \"#utility.yul\":29485:29496   */\n      gt\n        /* \"#utility.yul\":29482:29519   */\n      iszero\n      tag_624\n      jumpi\n        /* \"#utility.yul\":29499:29517   */\n      tag_625\n      tag_313\n      jump\t// in\n    tag_625:\n        /* \"#utility.yul\":29482:29519   */\n    tag_624:\n        /* \"#utility.yul\":29332:29526   */\n      swap3\n      swap2\n      pop\n      pop\n      jump\t// out\n        /* \"#utility.yul\":29532:29723   */\n    tag_196:\n        /* \"#utility.yul\":29572:29575   */\n      0x00\n        /* \"#utility.yul\":29591:29611   */\n      tag_627\n        /* \"#utility.yul\":29609:29610   */\n      dup3\n        /* \"#utility.yul\":29591:29611   */\n      tag_258\n      jump\t// in\n    tag_627:\n        /* \"#utility.yul\":29586:29611   */\n      swap2\n      pop\n        /* \"#utility.yul\":29625:29645   */\n      tag_628\n        /* \"#utility.yul\":29643:29644   */\n      dup4\n        /* \"#utility.yul\":29625:29645   */\n      tag_258\n      jump\t// in\n    tag_628:\n        /* \"#utility.yul\":29620:29645   */\n      swap3\n      pop\n        /* \"#utility.yul\":29668:29669   */\n      dup3\n        /* \"#utility.yul\":29665:29666   */\n      dup3\n        /* \"#utility.yul\":29661:29670   */\n      add\n        /* \"#utility.yul\":29654:29670   */\n      swap1\n      pop\n        /* \"#utility.yul\":29689:29692   */\n      dup1\n        /* \"#utility.yul\":29686:29687   */\n      dup3\n        /* \"#utility.yul\":29683:29693   */\n      gt\n        /* \"#utility.yul\":29680:29716   */\n      iszero\n      tag_629\n      jumpi\n        /* \"#utility.yul\":29696:29714   */\n      tag_630\n      tag_313\n      jump\t// in\n    tag_630:\n        /* \"#utility.yul\":29680:29716   */\n    tag_629:\n        /* \"#utility.yul\":29532:29723   */\n      swap3\n      swap2\n      pop\n      pop\n      jump\t// out\n        /* \"#utility.yul\":29729:29897   */\n    tag_318:\n        /* \"#utility.yul\":29869:29889   */\n      0x6e6f742045524337323152656365697665720000000000000000000000000000\n        /* \"#utility.yul\":29865:29866   */\n      0x00\n        /* \"#utility.yul\":29857:29863   */\n      dup3\n        /* \"#utility.yul\":29853:29867   */\n      add\n        /* \"#utility.yul\":29846:29890   */\n      mstore\n        /* \"#utility.yul\":29729:29897   */\n      pop\n      jump\t// out\n        /* \"#utility.yul\":29903:30269   */\n    tag_319:\n        /* \"#utility.yul\":30045:30048   */\n      0x00\n        /* \"#utility.yul\":30066:30133   */\n      tag_633\n        /* \"#utility.yul\":30130:30132   */\n      0x12\n        /* \"#utility.yul\":30125:30128   */\n      dup4\n        /* \"#utility.yul\":30066:30133   */\n      tag_254\n      jump\t// in\n    tag_633:\n        /* \"#utility.yul\":30059:30133   */\n      swap2\n      pop\n        /* \"#utility.yul\":30142:30235   */\n      tag_634\n        /* \"#utility.yul\":30231:30234   */\n      dup3\n        /* \"#utility.yul\":30142:30235   */\n      tag_318\n      jump\t// in\n    tag_634:\n        /* \"#utility.yul\":30260:30262   */\n      0x20\n        /* \"#utility.yul\":30255:30258   */\n      dup3\n        /* \"#utility.yul\":30251:30263   */\n      add\n        /* \"#utility.yul\":30244:30263   */\n      swap1\n      pop\n        /* \"#utility.yul\":29903:30269   */\n      swap2\n      swap1\n      pop\n      jump\t// out\n        /* \"#utility.yul\":30275:30694   */\n    tag_203:\n        /* \"#utility.yul\":30441:30445   */\n      0x00\n        /* \"#utility.yul\":30479:30481   */\n      0x20\n        /* \"#utility.yul\":30468:30477   */\n      dup3\n        /* \"#utility.yul\":30464:30482   */\n      add\n        /* \"#utility.yul\":30456:30482   */\n      swap1\n      pop\n        /* \"#utility.yul\":30528:30537   */\n      dup2\n        /* \"#utility.yul\":30522:30526   */\n      dup2\n        /* \"#utility.yul\":30518:30538   */\n      sub\n        /* \"#utility.yul\":30514:30515   */\n      0x00\n        /* \"#utility.yul\":30503:30512   */\n      dup4\n        /* \"#utility.yul\":30499:30516   */\n      add\n        /* \"#utility.yul\":30492:30539   */\n      mstore\n        /* \"#utility.yul\":30556:30687   */\n      tag_636\n        /* \"#utility.yul\":30682:30686   */\n      dup2\n        /* \"#utility.yul\":30556:30687   */\n      tag_319\n      jump\t// in\n    tag_636:\n        /* \"#utility.yul\":30548:30687   */\n      swap1\n      pop\n        /* \"#utility.yul\":30275:30694   */\n      swap2\n      swap1\n      pop\n      jump\t// out\n        /* \"#utility.yul\":30700:30880   */\n    tag_320:\n        /* \"#utility.yul\":30748:30825   */\n      0x4e487b7100000000000000000000000000000000000000000000000000000000\n        /* \"#utility.yul\":30745:30746   */\n      0x00\n        /* \"#utility.yul\":30738:30826   */\n      mstore\n        /* \"#utility.yul\":30845:30849   */\n      0x12\n        /* \"#utility.yul\":30842:30843   */\n      0x04\n        /* \"#utility.yul\":30835:30850   */\n      mstore\n        /* \"#utility.yul\":30869:30873   */\n      0x24\n        /* \"#utility.yul\":30866:30867   */\n      0x00\n        /* \"#utility.yul\":30859:30874   */\n      revert\n        /* \"#utility.yul\":30886:31071   */\n    tag_210:\n        /* \"#utility.yul\":30926:30927   */\n      0x00\n        /* \"#utility.yul\":30943:30963   */\n      tag_639\n        /* \"#utility.yul\":30961:30962   */\n      dup3\n        /* \"#utility.yul\":30943:30963   */\n      tag_258\n      jump\t// in\n    tag_639:\n        /* \"#utility.yul\":30938:30963   */\n      swap2\n      pop\n        /* \"#utility.yul\":30977:30997   */\n      tag_640\n        /* \"#utility.yul\":30995:30996   */\n      dup4\n        /* \"#utility.yul\":30977:30997   */\n      tag_258\n      jump\t// in\n    tag_640:\n        /* \"#utility.yul\":30972:30997   */\n      swap3\n      pop\n        /* \"#utility.yul\":31016:31017   */\n      dup3\n        /* \"#utility.yul\":31006:31041   */\n      tag_641\n      jumpi\n        /* \"#utility.yul\":31021:31039   */\n      tag_642\n      tag_320\n      jump\t// in\n    tag_642:\n        /* \"#utility.yul\":31006:31041   */\n    tag_641:\n        /* \"#utility.yul\":31063:31064   */\n      dup3\n        /* \"#utility.yul\":31060:31061   */\n      dup3\n        /* \"#utility.yul\":31056:31065   */\n      div\n        /* \"#utility.yul\":31051:31065   */\n      swap1\n      pop\n        /* \"#utility.yul\":30886:31071   */\n      swap3\n      swap2\n      pop\n      pop\n      jump\t// out\n        /* \"#utility.yul\":31077:31253   */\n    tag_219:\n        /* \"#utility.yul\":31109:31110   */\n      0x00\n        /* \"#utility.yul\":31126:31146   */\n      tag_644\n        /* \"#utility.yul\":31144:31145   */\n      dup3\n        /* \"#utility.yul\":31126:31146   */\n      tag_258\n      jump\t// in\n    tag_644:\n        /* \"#utility.yul\":31121:31146   */\n      swap2\n      pop\n        /* \"#utility.yul\":31160:31180   */\n      tag_645\n        /* \"#utility.yul\":31178:31179   */\n      dup4\n        /* \"#utility.yul\":31160:31180   */\n      tag_258\n      jump\t// in\n    tag_645:\n        /* \"#utility.yul\":31155:31180   */\n      swap3\n      pop\n        /* \"#utility.yul\":31199:31200   */\n      dup3\n        /* \"#utility.yul\":31189:31224   */\n      tag_646\n      jumpi\n        /* \"#utility.yul\":31204:31222   */\n      tag_647\n      tag_320\n      jump\t// in\n    tag_647:\n        /* \"#utility.yul\":31189:31224   */\n    tag_646:\n        /* \"#utility.yul\":31245:31246   */\n      dup3\n        /* \"#utility.yul\":31242:31243   */\n      dup3\n        /* \"#utility.yul\":31238:31247   */\n      mod\n        /* \"#utility.yul\":31233:31247   */\n      swap1\n      pop\n        /* \"#utility.yul\":31077:31253   */\n      swap3\n      swap2\n      pop\n      pop\n      jump\t// out\n        /* \"#utility.yul\":31259:31439   */\n    tag_223:\n        /* \"#utility.yul\":31307:31384   */\n      0x4e487b7100000000000000000000000000000000000000000000000000000000\n        /* \"#utility.yul\":31304:31305   */\n      0x00\n        /* \"#utility.yul\":31297:31385   */\n      mstore\n        /* \"#utility.yul\":31404:31408   */\n      0x32\n        /* \"#utility.yul\":31401:31402   */\n      0x04\n        /* \"#utility.yul\":31394:31409   */\n      mstore\n        /* \"#utility.yul\":31428:31432   */\n      0x24\n        /* \"#utility.yul\":31425:31426   */\n      0x00\n        /* \"#utility.yul\":31418:31433   */\n      revert\n        /* \"#utility.yul\":31445:31615   */\n    tag_321:\n        /* \"#utility.yul\":31585:31607   */\n      0x6d696e7420746f207a65726f2061646472657373000000000000000000000000\n        /* \"#utility.yul\":31581:31582   */\n      0x00\n        /* \"#utility.yul\":31573:31579   */\n      dup3\n        /* \"#utility.yul\":31569:31583   */\n      add\n        /* \"#utility.yul\":31562:31608   */\n      mstore\n        /* \"#utility.yul\":31445:31615   */\n      pop\n      jump\t// out\n        /* \"#utility.yul\":31621:31987   */\n    tag_322:\n        /* \"#utility.yul\":31763:31766   */\n      0x00\n        /* \"#utility.yul\":31784:31851   */\n      tag_651\n        /* \"#utility.yul\":31848:31850   */\n      0x14\n        /* \"#utility.yul\":31843:31846   */\n      dup4\n        /* \"#utility.yul\":31784:31851   */\n      tag_254\n      jump\t// in\n    tag_651:\n        /* \"#utility.yul\":31777:31851   */\n      swap2\n      pop\n        /* \"#utility.yul\":31860:31953   */\n      tag_652\n        /* \"#utility.yul\":31949:31952   */\n      dup3\n        /* \"#utility.yul\":31860:31953   */\n      tag_321\n      jump\t// in\n    tag_652:\n        /* \"#utility.yul\":31978:31980   */\n      0x20\n        /* \"#utility.yul\":31973:31976   */\n      dup3\n        /* \"#utility.yul\":31969:31981   */\n      add\n        /* \"#utility.yul\":31962:31981   */\n      swap1\n      pop\n        /* \"#utility.yul\":31621:31987   */\n      swap2\n      swap1\n      pop\n      jump\t// out\n        /* \"#utility.yul\":31993:32412   */\n    tag_228:\n        /* \"#utility.yul\":32159:32163   */\n      0x00\n        /* \"#utility.yul\":32197:32199   */\n      0x20\n        /* \"#utility.yul\":32186:32195   */\n      dup3\n        /* \"#utility.yul\":32182:32200   */\n      add\n        /* \"#utility.yul\":32174:32200   */\n      swap1\n      pop\n        /* \"#utility.yul\":32246:32255   */\n      dup2\n        /* \"#utility.yul\":32240:32244   */\n      dup2\n        /* \"#utility.yul\":32236:32256   */\n      sub\n        /* \"#utility.yul\":32232:32233   */\n      0x00\n        /* \"#utility.yul\":32221:32230   */\n      dup4\n        /* \"#utility.yul\":32217:32234   */\n      add\n        /* \"#utility.yul\":32210:32257   */\n      mstore\n        /* \"#utility.yul\":32274:32405   */\n      tag_654\n        /* \"#utility.yul\":32400:32404   */\n      dup2\n        /* \"#utility.yul\":32274:32405   */\n      tag_322\n      jump\t// in\n    tag_654:\n        /* \"#utility.yul\":32266:32405   */\n      swap1\n      pop\n        /* \"#utility.yul\":31993:32412   */\n      swap2\n      swap1\n      pop\n      jump\t// out\n        /* \"#utility.yul\":32418:32588   */\n    tag_323:\n        /* \"#utility.yul\":32558:32580   */\n      0x746f6b656e20616c7265616479206d696e746564000000000000000000000000\n        /* \"#utility.yul\":32554:32555   */\n      0x00\n        /* \"#utility.yul\":32546:32552   */\n      dup3\n        /* \"#utility.yul\":32542:32556   */\n      add\n        /* \"#utility.yul\":32535:32581   */\n      mstore\n        /* \"#utility.yul\":32418:32588   */\n      pop\n      jump\t// out\n        /* \"#utility.yul\":32594:32960   */\n    tag_324:\n        /* \"#utility.yul\":32736:32739   */\n      0x00\n        /* \"#utility.yul\":32757:32824   */\n      tag_657\n        /* \"#utility.yul\":32821:32823   */\n      0x14\n        /* \"#utility.yul\":32816:32819   */\n      dup4\n        /* \"#utility.yul\":32757:32824   */\n      tag_254\n      jump\t// in\n    tag_657:\n        /* \"#utility.yul\":32750:32824   */\n      swap2\n      pop\n        /* \"#utility.yul\":32833:32926   */\n      tag_658\n        /* \"#utility.yul\":32922:32925   */\n      dup3\n        /* \"#utility.yul\":32833:32926   */\n      tag_323\n      jump\t// in\n    tag_658:\n        /* \"#utility.yul\":32951:32953   */\n      0x20\n        /* \"#utility.yul\":32946:32949   */\n      dup3\n        /* \"#utility.yul\":32942:32954   */\n      add\n        /* \"#utility.yul\":32935:32954   */\n      swap1\n      pop\n        /* \"#utility.yul\":32594:32960   */\n      swap2\n      swap1\n      pop\n      jump\t// out\n        /* \"#utility.yul\":32966:33385   */\n    tag_231:\n        /* \"#utility.yul\":33132:33136   */\n      0x00\n        /* \"#utility.yul\":33170:33172   */\n      0x20\n        /* \"#utility.yul\":33159:33168   */\n      dup3\n        /* \"#utility.yul\":33155:33173   */\n      add\n        /* \"#utility.yul\":33147:33173   */\n      swap1\n      pop\n        /* \"#utility.yul\":33219:33228   */\n      dup2\n        /* \"#utility.yul\":33213:33217   */\n      dup2\n        /* \"#utility.yul\":33209:33229   */\n      sub\n        /* \"#utility.yul\":33205:33206   */\n      0x00\n        /* \"#utility.yul\":33194:33203   */\n      dup4\n        /* \"#utility.yul\":33190:33207   */\n      add\n        /* \"#utility.yul\":33183:33230   */\n      mstore\n        /* \"#utility.yul\":33247:33378   */\n      tag_660\n        /* \"#utility.yul\":33373:33377   */\n      dup2\n        /* \"#utility.yul\":33247:33378   */\n      tag_324\n      jump\t// in\n    tag_660:\n        /* \"#utility.yul\":33239:33378   */\n      swap1\n      pop\n        /* \"#utility.yul\":32966:33385   */\n      swap2\n      swap1\n      pop\n      jump\t// out\n        /* \"#utility.yul\":33391:33489   */\n    tag_325:\n        /* \"#utility.yul\":33442:33448   */\n      0x00\n        /* \"#utility.yul\":33476:33481   */\n      dup2\n        /* \"#utility.yul\":33470:33482   */\n      mload\n        /* \"#utility.yul\":33460:33482   */\n      swap1\n      pop\n        /* \"#utility.yul\":33391:33489   */\n      swap2\n      swap1\n      pop\n      jump\t// out\n        /* \"#utility.yul\":33495:33663   */\n    tag_326:\n        /* \"#utility.yul\":33578:33589   */\n      0x00\n        /* \"#utility.yul\":33612:33618   */\n      dup3\n        /* \"#utility.yul\":33607:33610   */\n      dup3\n        /* \"#utility.yul\":33600:33619   */\n      mstore\n        /* \"#utility.yul\":33652:33656   */\n      0x20\n        /* \"#utility.yul\":33647:33650   */\n      dup3\n        /* \"#utility.yul\":33643:33657   */\n      add\n        /* \"#utility.yul\":33628:33657   */\n      swap1\n      pop\n        /* \"#utility.yul\":33495:33663   */\n      swap3\n      swap2\n      pop\n      pop\n      jump\t// out\n        /* \"#utility.yul\":33669:34042   */\n    tag_327:\n        /* \"#utility.yul\":33755:33758   */\n      0x00\n        /* \"#utility.yul\":33783:33821   */\n      tag_664\n        /* \"#utility.yul\":33815:33820   */\n      dup3\n        /* \"#utility.yul\":33783:33821   */\n      tag_325\n      jump\t// in\n    tag_664:\n        /* \"#utility.yul\":33837:33907   */\n      tag_665\n        /* \"#utility.yul\":33900:33906   */\n      dup2\n        /* \"#utility.yul\":33895:33898   */\n      dup6\n        /* \"#utility.yul\":33837:33907   */\n      tag_326\n      jump\t// in\n    tag_665:\n        /* \"#utility.yul\":33830:33907   */\n      swap4\n      pop\n        /* \"#utility.yul\":33916:33981   */\n      tag_666\n        /* \"#utility.yul\":33974:33980   */\n      dup2\n        /* \"#utility.yul\":33969:33972   */\n      dup6\n        /* \"#utility.yul\":33962:33966   */\n      0x20\n        /* \"#utility.yul\":33955:33960   */\n      dup7\n        /* \"#utility.yul\":33951:33967   */\n      add\n        /* \"#utility.yul\":33916:33981   */\n      tag_255\n      jump\t// in\n    tag_666:\n        /* \"#utility.yul\":34006:34035   */\n      tag_667\n        /* \"#utility.yul\":34028:34034   */\n      dup2\n        /* \"#utility.yul\":34006:34035   */\n      tag_256\n      jump\t// in\n    tag_667:\n        /* \"#utility.yul\":34001:34004   */\n      dup5\n        /* \"#utility.yul\":33997:34036   */\n      add\n        /* \"#utility.yul\":33990:34036   */\n      swap2\n      pop\n        /* \"#utility.yul\":33759:34042   */\n      pop\n        /* \"#utility.yul\":33669:34042   */\n      swap3\n      swap2\n      pop\n      pop\n      jump\t// out\n        /* \"#utility.yul\":34048:34688   */\n    tag_238:\n        /* \"#utility.yul\":34243:34247   */\n      0x00\n        /* \"#utility.yul\":34281:34284   */\n      0x80\n        /* \"#utility.yul\":34270:34279   */\n      dup3\n        /* \"#utility.yul\":34266:34285   */\n      add\n        /* \"#utility.yul\":34258:34285   */\n      swap1\n      pop\n        /* \"#utility.yul\":34295:34366   */\n      tag_669\n        /* \"#utility.yul\":34363:34364   */\n      0x00\n        /* \"#utility.yul\":34352:34361   */\n      dup4\n        /* \"#utility.yul\":34348:34365   */\n      add\n        /* \"#utility.yul\":34339:34345   */\n      dup8\n        /* \"#utility.yul\":34295:34366   */\n      tag_263\n      jump\t// in\n    tag_669:\n        /* \"#utility.yul\":34376:34448   */\n      tag_670\n        /* \"#utility.yul\":34444:34446   */\n      0x20\n        /* \"#utility.yul\":34433:34442   */\n      dup4\n        /* \"#utility.yul\":34429:34447   */\n      add\n        /* \"#utility.yul\":34420:34426   */\n      dup7\n        /* \"#utility.yul\":34376:34448   */\n      tag_263\n      jump\t// in\n    tag_670:\n        /* \"#utility.yul\":34458:34530   */\n      tag_671\n        /* \"#utility.yul\":34526:34528   */\n      0x40\n        /* \"#utility.yul\":34515:34524   */\n      dup4\n        /* \"#utility.yul\":34511:34529   */\n      add\n        /* \"#utility.yul\":34502:34508   */\n      dup6\n        /* \"#utility.yul\":34458:34530   */\n      tag_274\n      jump\t// in\n    tag_671:\n        /* \"#utility.yul\":34577:34586   */\n      dup2\n        /* \"#utility.yul\":34571:34575   */\n      dup2\n        /* \"#utility.yul\":34567:34587   */\n      sub\n        /* \"#utility.yul\":34562:34564   */\n      0x60\n        /* \"#utility.yul\":34551:34560   */\n      dup4\n        /* \"#utility.yul\":34547:34565   */\n      add\n        /* \"#utility.yul\":34540:34588   */\n      mstore\n        /* \"#utility.yul\":34605:34681   */\n      tag_672\n        /* \"#utility.yul\":34676:34680   */\n      dup2\n        /* \"#utility.yul\":34667:34673   */\n      dup5\n        /* \"#utility.yul\":34605:34681   */\n      tag_327\n      jump\t// in\n    tag_672:\n        /* \"#utility.yul\":34597:34681   */\n      swap1\n      pop\n        /* \"#utility.yul\":34048:34688   */\n      swap6\n      swap5\n      pop\n      pop\n      pop\n      pop\n      pop\n      jump\t// out\n        /* \"#utility.yul\":34694:34835   */\n    tag_328:\n        /* \"#utility.yul\":34750:34755   */\n      0x00\n        /* \"#utility.yul\":34781:34787   */\n      dup2\n        /* \"#utility.yul\":34775:34788   */\n      mload\n        /* \"#utility.yul\":34766:34788   */\n      swap1\n      pop\n        /* \"#utility.yul\":34797:34829   */\n      tag_674\n        /* \"#utility.yul\":34823:34828   */\n      dup2\n        /* \"#utility.yul\":34797:34829   */\n      tag_249\n      jump\t// in\n    tag_674:\n        /* \"#utility.yul\":34694:34835   */\n      swap3\n      swap2\n      pop\n      pop\n      jump\t// out\n        /* \"#utility.yul\":34841:35190   */\n    tag_242:\n        /* \"#utility.yul\":34910:34916   */\n      0x00\n        /* \"#utility.yul\":34959:34961   */\n      0x20\n        /* \"#utility.yul\":34947:34956   */\n      dup3\n        /* \"#utility.yul\":34938:34945   */\n      dup5\n        /* \"#utility.yul\":34934:34957   */\n      sub\n        /* \"#utility.yul\":34930:34962   */\n      slt\n        /* \"#utility.yul\":34927:35046   */\n      iszero\n      tag_676\n      jumpi\n        /* \"#utility.yul\":34965:35044   */\n      tag_677\n      tag_246\n      jump\t// in\n    tag_677:\n        /* \"#utility.yul\":34927:35046   */\n    tag_676:\n        /* \"#utility.yul\":35085:35086   */\n      0x00\n        /* \"#utility.yul\":35110:35173   */\n      tag_678\n        /* \"#utility.yul\":35165:35172   */\n      dup5\n        /* \"#utility.yul\":35156:35162   */\n      dup3\n        /* \"#utility.yul\":35145:35154   */\n      dup6\n        /* \"#utility.yul\":35141:35163   */\n      add\n        /* \"#utility.yul\":35110:35173   */\n      tag_328\n      jump\t// in\n    tag_678:\n        /* \"#utility.yul\":35100:35173   */\n      swap2\n      pop\n        /* \"#utility.yul\":35056:35183   */\n      pop\n        /* \"#utility.yul\":34841:35190   */\n      swap3\n      swap2\n      pop\n      pop\n      jump\t// out\n\n    auxdata: 0xa264697066735822122011b71c27cfa795c80e95ef1ede1b3b910027b7a2c278aa765a076c02d29276f964736f6c63430008140033\n}\n",
				"bytecode": {
					"linkReferences": {},
					"object": "6080604052600160065534801562000015575f80fd5b506040516200304e3803806200304e83398181016040528101906200003b9190620001eb565b815f90816200004b9190620004a5565b5080600190816200005d9190620004a5565b50505062000589565b5f604051905090565b5f80fd5b5f80fd5b5f80fd5b5f80fd5b5f601f19601f8301169050919050565b7f4e487b71000000000000000000000000000000000000000000000000000000005f52604160045260245ffd5b620000c7826200007f565b810181811067ffffffffffffffff82111715620000e957620000e86200008f565b5b80604052505050565b5f620000fd62000066565b90506200010b8282620000bc565b919050565b5f67ffffffffffffffff8211156200012d576200012c6200008f565b5b62000138826200007f565b9050602081019050919050565b5f5b838110156200016457808201518184015260208101905062000147565b5f8484015250505050565b5f620001856200017f8462000110565b620000f2565b905082815260208101848484011115620001a457620001a36200007b565b5b620001b184828562000145565b509392505050565b5f82601f830112620001d057620001cf62000077565b5b8151620001e28482602086016200016f565b91505092915050565b5f80604083850312156200020457620002036200006f565b5b5f83015167ffffffffffffffff81111562000224576200022362000073565b5b6200023285828601620001b9565b925050602083015167ffffffffffffffff81111562000256576200025562000073565b5b6200026485828601620001b9565b9150509250929050565b5f81519050919050565b7f4e487b71000000000000000000000000000000000000000000000000000000005f52602260045260245ffd5b5f6002820490506001821680620002bd57607f821691505b602082108103620002d357620002d262000278565b5b50919050565b5f819050815f5260205f209050919050565b5f6020601f8301049050919050565b5f82821b905092915050565b5f60088302620003377fffffffffffffffffffffffffffffffffffffffffffffffffffffffffffffffff82620002fa565b620003438683620002fa565b95508019841693508086168417925050509392505050565b5f819050919050565b5f819050919050565b5f6200038d6200038762000381846200035b565b62000364565b6200035b565b9050919050565b5f819050919050565b620003a8836200036d565b620003c0620003b78262000394565b84845462000306565b825550505050565b5f90565b620003d6620003c8565b620003e38184846200039d565b505050565b5b818110156200040a57620003fe5f82620003cc565b600181019050620003e9565b5050565b601f82111562000459576200042381620002d9565b6200042e84620002eb565b810160208510156200043e578190505b620004566200044d85620002eb565b830182620003e8565b50505b505050565b5f82821c905092915050565b5f6200047b5f19846008026200045e565b1980831691505092915050565b5f6200049583836200046a565b9150826002028217905092915050565b620004b0826200026e565b67ffffffffffffffff811115620004cc57620004cb6200008f565b5b620004d88254620002a5565b620004e58282856200040e565b5f60209050601f8311600181146200051b575f841562000506578287015190505b62000512858262000488565b86555062000581565b601f1984166200052b86620002d9565b5f5b8281101562000554578489015182556001820191506020850194506020810190506200052d565b8683101562000574578489015162000570601f8916826200046a565b8355505b6001600288020188555050505b505050505050565b612ab780620005975f395ff3fe608060405234801561000f575f80fd5b50600436106100fe575f3560e01c80636352211e11610095578063b88d4fde11610064578063b88d4fde146102a6578063c87b56dd146102c2578063d0def521146102f2578063e985e9c51461030e576100fe565b80636352211e1461020c57806370a082311461023c57806395d89b411461026c578063a22cb4651461028a576100fe565b8063162094c4116100d1578063162094c41461019c57806323b872dd146101b857806342842e0e146101d457806355f804b3146101f0576100fe565b806301ffc9a71461010257806306fdde0314610132578063081812fc14610150578063095ea7b314610180575b5f80fd5b61011c600480360381019061011791906118d8565b61033e565b604051610129919061191d565b60405180910390f35b61013a610477565b60405161014791906119c0565b60405180910390f35b61016a60048036038101906101659190611a13565b610502565b6040516101779190611a7d565b60405180910390f35b61019a60048036038101906101959190611ac0565b6105d9565b005b6101b660048036038101906101b19190611c2a565b610717565b005b6101d260048036038101906101cd9190611c84565b6108ae565b005b6101ee60048036038101906101e99190611c84565b610916565b005b61020a60048036038101906102059190611cd4565b610935565b005b61022660048036038101906102219190611a13565b61097f565b6040516102339190611a7d565b60405180910390f35b61025660048036038101906102519190611d1b565b610a26565b6040516102639190611d55565b60405180910390f35b610274610ada565b60405161028191906119c0565b60405180910390f35b6102a4600480360381019061029f9190611d98565b610b66565b005b6102c060048036038101906102bb9190611e74565b610c5e565b005b6102dc60048036038101906102d79190611a13565b610cc8565b6040516102e991906119c0565b60405180910390f35b61030c60048036038101906103079190611ef4565b610e73565b005b61032860048036038101906103239190611f4e565b610ef6565b604051610335919061191d565b60405180910390f35b5f7f80ac58cd000000000000000000000000000000000000000000000000000000007bffffffffffffffffffffffffffffffffffffffffffffffffffffffff1916827bffffffffffffffffffffffffffffffffffffffffffffffffffffffff1916148061040857507f01ffc9a7000000000000000000000000000000000000000000000000000000007bffffffffffffffffffffffffffffffffffffffffffffffffffffffff1916827bffffffffffffffffffffffffffffffffffffffffffffffffffffffff1916145b8061047057507f5b5e139f000000000000000000000000000000000000000000000000000000007bffffffffffffffffffffffffffffffffffffffffffffffffffffffff1916827bffffffffffffffffffffffffffffffffffffffffffffffffffffffff1916145b9050919050565b5f805461048390611fb9565b80601f01602080910402602001604051908101604052809291908181526020018280546104af90611fb9565b80156104fa5780601f106104d1576101008083540402835291602001916104fa565b820191905f5260205f20905b8154815290600101906020018083116104dd57829003601f168201915b505050505081565b5f8073ffffffffffffffffffffffffffffffffffffffff1660025f8481526020019081526020015f205f9054906101000a900473ffffffffffffffffffffffffffffffffffffffff1673ffffffffffffffffffffffffffffffffffffffff16036105a1576040517f08c379a000000000000000000000000000000000000000000000000000000000815260040161059890612033565b60405180910390fd5b60045f8381526020019081526020015f205f9054906101000a900473ffffffffffffffffffffffffffffffffffffffff169050919050565b5f60025f8381526020019081526020015f205f9054906101000a900473ffffffffffffffffffffffffffffffffffffffff1690508073ffffffffffffffffffffffffffffffffffffffff163373ffffffffffffffffffffffffffffffffffffffff1614806106c8575060055f8273ffffffffffffffffffffffffffffffffffffffff1673ffffffffffffffffffffffffffffffffffffffff1681526020019081526020015f205f3373ffffffffffffffffffffffffffffffffffffffff1673ffffffffffffffffffffffffffffffffffffffff1681526020019081526020015f205f9054906101000a900460ff165b610707576040517f08c379a00000000000000000000000000000000000000000000000000000000081526004016106fe9061209b565b60405180910390fd5b610712818484610f84565b505050565b5f73ffffffffffffffffffffffffffffffffffffffff1660025f8481526020019081526020015f205f9054906101000a900473ffffffffffffffffffffffffffffffffffffffff1673ffffffffffffffffffffffffffffffffffffffff16036107b5576040517f08c379a00000000000000000000000000000000000000000000000000000000081526004016107ac90612103565b60405180910390fd5b60025f8381526020019081526020015f205f9054906101000a900473ffffffffffffffffffffffffffffffffffffffff1673ffffffffffffffffffffffffffffffffffffffff163373ffffffffffffffffffffffffffffffffffffffff1614610853576040517f08c379a000000000000000000000000000000000000000000000000000000000815260040161084a9061216b565b60405180910390fd5b8060085f8481526020019081526020015f2090816108719190612326565b50817fda84ca2183491f179a603e877b2cb058e42195041c2b9c53d746427e519a34df826040516108a291906119c0565b60405180910390a25050565b5f6108b88261097f565b90506108c5813384611033565b610904576040517f08c379a00000000000000000000000000000000000000000000000000000000081526004016108fb9061243f565b60405180910390fd5b6109108185858561115e565b50505050565b61093083838360405180602001604052805f815250610c5e565b505050565b80600790816109449190612326565b507f5411e8ebf1636d9e83d5fc4900bf80cbac82e8790da2a4c94db4895e889eedf68160405161097491906119c0565b60405180910390a150565b5f60025f8381526020019081526020015f205f9054906101000a900473ffffffffffffffffffffffffffffffffffffffff1690505f73ffffffffffffffffffffffffffffffffffffffff168173ffffffffffffffffffffffffffffffffffffffff1603610a21576040517f08c379a0000000000000000000000000000000000000000000000000000000008152600401610a1890612033565b60405180910390fd5b919050565b5f8073ffffffffffffffffffffffffffffffffffffffff168273ffffffffffffffffffffffffffffffffffffffff1603610a95576040517f08c379a0000000000000000000000000000000000000000000000000000000008152600401610a8c906124a7565b60405180910390fd5b60035f8373ffffffffffffffffffffffffffffffffffffffff1673ffffffffffffffffffffffffffffffffffffffff1681526020019081526020015f20549050919050565b60018054610ae790611fb9565b80601f0160208091040260200160405190810160405280929190818152602001828054610b1390611fb9565b8015610b5e5780601f10610b3557610100808354040283529160200191610b5e565b820191905f5260205f20905b815481529060010190602001808311610b4157829003601f168201915b505050505081565b8060055f3373ffffffffffffffffffffffffffffffffffffffff1673ffffffffffffffffffffffffffffffffffffffff1681526020019081526020015f205f8473ffffffffffffffffffffffffffffffffffffffff1673ffffffffffffffffffffffffffffffffffffffff1681526020019081526020015f205f6101000a81548160ff0219169083151502179055508173ffffffffffffffffffffffffffffffffffffffff163373ffffffffffffffffffffffffffffffffffffffff167f17307eab39ab6107e8899845ad3d59bd9653f200f220920489ca2b5937696c3183604051610c52919061191d565b60405180910390a35050565b5f610c688361097f565b9050610c75813385611033565b610cb4576040517f08c379a0000000000000000000000000000000000000000000000000000000008152600401610cab9061243f565b60405180910390fd5b610cc1818686868661139d565b5050505050565b60605f73ffffffffffffffffffffffffffffffffffffffff1660025f8481526020019081526020015f205f9054906101000a900473ffffffffffffffffffffffffffffffffffffffff1673ffffffffffffffffffffffffffffffffffffffff1603610d68576040517f08c379a0000000000000000000000000000000000000000000000000000000008152600401610d5f9061250f565b60405180910390fd5b5f60085f8481526020019081526020015f208054610d8590611fb9565b80601f0160208091040260200160405190810160405280929190818152602001828054610db190611fb9565b8015610dfc5780601f10610dd357610100808354040283529160200191610dfc565b820191905f5260205f20905b815481529060010190602001808311610ddf57829003601f168201915b505050505090505f81511115610e155780915050610e6e565b5f60078054610e2390611fb9565b905011610e3e5760405180602001604052805f815250610e6a565b6007610e49846113fb565b604051602001610e5a9291906125e7565b6040516020818303038152906040525b9150505b919050565b5f6006549050610e838382611554565b8160085f8381526020019081526020015f209081610ea19190612326565b5060065f815480929190610eb490612637565b9190505550807fda84ca2183491f179a603e877b2cb058e42195041c2b9c53d746427e519a34df83604051610ee991906119c0565b60405180910390a2505050565b5f60055f8473ffffffffffffffffffffffffffffffffffffffff1673ffffffffffffffffffffffffffffffffffffffff1681526020019081526020015f205f8373ffffffffffffffffffffffffffffffffffffffff1673ffffffffffffffffffffffffffffffffffffffff1681526020019081526020015f205f9054906101000a900460ff16905092915050565b8160045f8381526020019081526020015f205f6101000a81548173ffffffffffffffffffffffffffffffffffffffff021916908373ffffffffffffffffffffffffffffffffffffffff160217905550808273ffffffffffffffffffffffffffffffffffffffff168473ffffffffffffffffffffffffffffffffffffffff167f8c5be1e5ebec7d5bd14f71427d1e84f3dd0314c0f7b2291e5b200ac8c7c3b92560405160405180910390a4505050565b5f8373ffffffffffffffffffffffffffffffffffffffff168373ffffffffffffffffffffffffffffffffffffffff1614806110c957508273ffffffffffffffffffffffffffffffffffffffff1660045f8481526020019081526020015f205f9054906101000a900473ffffffffffffffffffffffffffffffffffffffff1673ffffffffffffffffffffffffffffffffffffffff16145b80611155575060055f8573ffffffffffffffffffffffffffffffffffffffff1673ffffffffffffffffffffffffffffffffffffffff1681526020019081526020015f205f8473ffffffffffffffffffffffffffffffffffffffff1673ffffffffffffffffffffffffffffffffffffffff1681526020019081526020015f205f9054906101000a900460ff165b90509392505050565b8373ffffffffffffffffffffffffffffffffffffffff168373ffffffffffffffffffffffffffffffffffffffff16146111cc576040517f08c379a00000000000000000000000000000000000000000000000000000000081526004016111c3906126c8565b60405180910390fd5b5f73ffffffffffffffffffffffffffffffffffffffff168273ffffffffffffffffffffffffffffffffffffffff160361123a576040517f08c379a000000000000000000000000000000000000000000000000000000000815260040161123190612730565b60405180910390fd5b611245845f83610f84565b600160035f8573ffffffffffffffffffffffffffffffffffffffff1673ffffffffffffffffffffffffffffffffffffffff1681526020019081526020015f205f828254611292919061274e565b92505081905550600160035f8473ffffffffffffffffffffffffffffffffffffffff1673ffffffffffffffffffffffffffffffffffffffff1681526020019081526020015f205f8282546112e69190612781565b925050819055508160025f8381526020019081526020015f205f6101000a81548173ffffffffffffffffffffffffffffffffffffffff021916908373ffffffffffffffffffffffffffffffffffffffff160217905550808273ffffffffffffffffffffffffffffffffffffffff168473ffffffffffffffffffffffffffffffffffffffff167fddf252ad1be2c89b69c2b068fc378daa952ba7f163c4a11628f55a4df523b3ef60405160405180910390a450505050565b6113a98585858561115e565b6113b584848484611762565b6113f4576040517f08c379a00000000000000000000000000000000000000000000000000000000081526004016113eb906127fe565b60405180910390fd5b5050505050565b60605f8203611441576040518060400160405280600181526020017f3000000000000000000000000000000000000000000000000000000000000000815250905061154f565b5f8290505f5b5f821461147057808061145990612637565b915050600a826114699190612849565b9150611447565b5f8167ffffffffffffffff81111561148b5761148a611b06565b5b6040519080825280601f01601f1916602001820160405280156114bd5781602001600182028036833780820191505090505b5090505b5f8514611548576001826114d5919061274e565b9150600a856114e49190612879565b60306114f09190612781565b60f81b818381518110611506576115056128a9565b5b60200101907effffffffffffffffffffffffffffffffffffffffffffffffffffffffffffff191690815f1a905350600a856115419190612849565b94506114c1565b8093505050505b919050565b5f73ffffffffffffffffffffffffffffffffffffffff168273ffffffffffffffffffffffffffffffffffffffff16036115c2576040517f08c379a00000000000000000000000000000000000000000000000000000000081526004016115b990612920565b60405180910390fd5b5f73ffffffffffffffffffffffffffffffffffffffff1660025f8381526020019081526020015f205f9054906101000a900473ffffffffffffffffffffffffffffffffffffffff1673ffffffffffffffffffffffffffffffffffffffff1614611660576040517f08c379a000000000000000000000000000000000000000000000000000000000815260040161165790612988565b60405180910390fd5b600160035f8473ffffffffffffffffffffffffffffffffffffffff1673ffffffffffffffffffffffffffffffffffffffff1681526020019081526020015f205f8282546116ad9190612781565b925050819055508160025f8381526020019081526020015f205f6101000a81548173ffffffffffffffffffffffffffffffffffffffff021916908373ffffffffffffffffffffffffffffffffffffffff160217905550808273ffffffffffffffffffffffffffffffffffffffff165f73ffffffffffffffffffffffffffffffffffffffff167fddf252ad1be2c89b69c2b068fc378daa952ba7f163c4a11628f55a4df523b3ef60405160405180910390a45050565b5f6117828473ffffffffffffffffffffffffffffffffffffffff16611861565b156118545763150b7a0260e01b7bffffffffffffffffffffffffffffffffffffffffffffffffffffffff19168473ffffffffffffffffffffffffffffffffffffffff1663150b7a02338887876040518563ffffffff1660e01b81526004016117ed94939291906129f8565b6020604051808303815f875af1158015611809573d5f803e3d5ffd5b505050506040513d601f19601f8201168201806040525081019061182d9190612a56565b7bffffffffffffffffffffffffffffffffffffffffffffffffffffffff1916149050611859565b600190505b949350505050565b5f80823b90505f8111915050919050565b5f604051905090565b5f80fd5b5f80fd5b5f7fffffffff0000000000000000000000000000000000000000000000000000000082169050919050565b6118b781611883565b81146118c1575f80fd5b50565b5f813590506118d2816118ae565b92915050565b5f602082840312156118ed576118ec61187b565b5b5f6118fa848285016118c4565b91505092915050565b5f8115159050919050565b61191781611903565b82525050565b5f6020820190506119305f83018461190e565b92915050565b5f81519050919050565b5f82825260208201905092915050565b5f5b8381101561196d578082015181840152602081019050611952565b5f8484015250505050565b5f601f19601f8301169050919050565b5f61199282611936565b61199c8185611940565b93506119ac818560208601611950565b6119b581611978565b840191505092915050565b5f6020820190508181035f8301526119d88184611988565b905092915050565b5f819050919050565b6119f2816119e0565b81146119fc575f80fd5b50565b5f81359050611a0d816119e9565b92915050565b5f60208284031215611a2857611a2761187b565b5b5f611a35848285016119ff565b91505092915050565b5f73ffffffffffffffffffffffffffffffffffffffff82169050919050565b5f611a6782611a3e565b9050919050565b611a7781611a5d565b82525050565b5f602082019050611a905f830184611a6e565b92915050565b611a9f81611a5d565b8114611aa9575f80fd5b50565b5f81359050611aba81611a96565b92915050565b5f8060408385031215611ad657611ad561187b565b5b5f611ae385828601611aac565b9250506020611af4858286016119ff565b9150509250929050565b5f80fd5b5f80fd5b7f4e487b71000000000000000000000000000000000000000000000000000000005f52604160045260245ffd5b611b3c82611978565b810181811067ffffffffffffffff82111715611b5b57611b5a611b06565b5b80604052505050565b5f611b6d611872565b9050611b798282611b33565b919050565b5f67ffffffffffffffff821115611b9857611b97611b06565b5b611ba182611978565b9050602081019050919050565b828183375f83830152505050565b5f611bce611bc984611b7e565b611b64565b905082815260208101848484011115611bea57611be9611b02565b5b611bf5848285611bae565b509392505050565b5f82601f830112611c1157611c10611afe565b5b8135611c21848260208601611bbc565b91505092915050565b5f8060408385031215611c4057611c3f61187b565b5b5f611c4d858286016119ff565b925050602083013567ffffffffffffffff811115611c6e57611c6d61187f565b5b611c7a85828601611bfd565b9150509250929050565b5f805f60608486031215611c9b57611c9a61187b565b5b5f611ca886828701611aac565b9350506020611cb986828701611aac565b9250506040611cca868287016119ff565b9150509250925092565b5f60208284031215611ce957611ce861187b565b5b5f82013567ffffffffffffffff811115611d0657611d0561187f565b5b611d1284828501611bfd565b91505092915050565b5f60208284031215611d3057611d2f61187b565b5b5f611d3d84828501611aac565b91505092915050565b611d4f816119e0565b82525050565b5f602082019050611d685f830184611d46565b92915050565b611d7781611903565b8114611d81575f80fd5b50565b5f81359050611d9281611d6e565b92915050565b5f8060408385031215611dae57611dad61187b565b5b5f611dbb85828601611aac565b9250506020611dcc85828601611d84565b9150509250929050565b5f67ffffffffffffffff821115611df057611def611b06565b5b611df982611978565b9050602081019050919050565b5f611e18611e1384611dd6565b611b64565b905082815260208101848484011115611e3457611e33611b02565b5b611e3f848285611bae565b509392505050565b5f82601f830112611e5b57611e5a611afe565b5b8135611e6b848260208601611e06565b91505092915050565b5f805f8060808587031215611e8c57611e8b61187b565b5b5f611e9987828801611aac565b9450506020611eaa87828801611aac565b9350506040611ebb878288016119ff565b925050606085013567ffffffffffffffff811115611edc57611edb61187f565b5b611ee887828801611e47565b91505092959194509250565b5f8060408385031215611f0a57611f0961187b565b5b5f611f1785828601611aac565b925050602083013567ffffffffffffffff811115611f3857611f3761187f565b5b611f4485828601611bfd565b9150509250929050565b5f8060408385031215611f6457611f6361187b565b5b5f611f7185828601611aac565b9250506020611f8285828601611aac565b9150509250929050565b7f4e487b71000000000000000000000000000000000000000000000000000000005f52602260045260245ffd5b5f6002820490506001821680611fd057607f821691505b602082108103611fe357611fe2611f8c565b5b50919050565b7f746f6b656e20646f65736e2774206578697374000000000000000000000000005f82015250565b5f61201d601383611940565b915061202882611fe9565b602082019050919050565b5f6020820190508181035f83015261204a81612011565b9050919050565b7f6e6f74206f776e6572206e6f7220617070726f76656420666f7220616c6c00005f82015250565b5f612085601e83611940565b915061209082612051565b602082019050919050565b5f6020820190508181035f8301526120b281612079565b9050919050565b7f546f6b656e20646f6573206e6f742065786973740000000000000000000000005f82015250565b5f6120ed601483611940565b91506120f8826120b9565b602082019050919050565b5f6020820190508181035f83015261211a816120e1565b9050919050565b7f4e6f7420746f6b656e206f776e657200000000000000000000000000000000005f82015250565b5f612155600f83611940565b915061216082612121565b602082019050919050565b5f6020820190508181035f83015261218281612149565b9050919050565b5f819050815f5260205f209050919050565b5f6020601f8301049050919050565b5f82821b905092915050565b5f600883026121e57fffffffffffffffffffffffffffffffffffffffffffffffffffffffffffffffff826121aa565b6121ef86836121aa565b95508019841693508086168417925050509392505050565b5f819050919050565b5f61222a612225612220846119e0565b612207565b6119e0565b9050919050565b5f819050919050565b61224383612210565b61225761224f82612231565b8484546121b6565b825550505050565b5f90565b61226b61225f565b61227681848461223a565b505050565b5b818110156122995761228e5f82612263565b60018101905061227c565b5050565b601f8211156122de576122af81612189565b6122b88461219b565b810160208510156122c7578190505b6122db6122d38561219b565b83018261227b565b50505b505050565b5f82821c905092915050565b5f6122fe5f19846008026122e3565b1980831691505092915050565b5f61231683836122ef565b9150826002028217905092915050565b61232f82611936565b67ffffffffffffffff81111561234857612347611b06565b5b6123528254611fb9565b61235d82828561229d565b5f60209050601f83116001811461238e575f841561237c578287015190505b612386858261230b565b8655506123ed565b601f19841661239c86612189565b5f5b828110156123c35784890151825560018201915060208501945060208101905061239e565b868310156123e057848901516123dc601f8916826122ef565b8355505b6001600288020188555050505b505050505050565b7f6e6f74206f776e6572206e6f7220617070726f766564000000000000000000005f82015250565b5f612429601683611940565b9150612434826123f5565b602082019050919050565b5f6020820190508181035f8301526124568161241d565b9050919050565b7f6f776e6572203d207a65726f20616464726573730000000000000000000000005f82015250565b5f612491601483611940565b915061249c8261245d565b602082019050919050565b5f6020820190508181035f8301526124be81612485565b9050919050565b7f546f6b656e204e6f7420457869737400000000000000000000000000000000005f82015250565b5f6124f9600f83611940565b9150612504826124c5565b602082019050919050565b5f6020820190508181035f830152612526816124ed565b9050919050565b5f81905092915050565b5f815461254381611fb9565b61254d818661252d565b9450600182165f8114612567576001811461257c576125ae565b60ff19831686528115158202860193506125ae565b61258585612189565b5f5b838110156125a657815481890152600182019150602081019050612587565b838801955050505b50505092915050565b5f6125c182611936565b6125cb818561252d565b93506125db818560208601611950565b80840191505092915050565b5f6125f28285612537565b91506125fe82846125b7565b91508190509392505050565b7f4e487b71000000000000000000000000000000000000000000000000000000005f52601160045260245ffd5b5f612641826119e0565b91507fffffffffffffffffffffffffffffffffffffffffffffffffffffffffffffffff82036126735761267261260a565b5b600182019050919050565b7f6e6f74206f776e657200000000000000000000000000000000000000000000005f82015250565b5f6126b2600983611940565b91506126bd8261267e565b602082019050919050565b5f6020820190508181035f8301526126df816126a6565b9050919050565b7f7472616e7366657220746f20746865207a65726f2061646472657373000000005f82015250565b5f61271a601c83611940565b9150612725826126e6565b602082019050919050565b5f6020820190508181035f8301526127478161270e565b9050919050565b5f612758826119e0565b9150612763836119e0565b925082820390508181111561277b5761277a61260a565b5b92915050565b5f61278b826119e0565b9150612796836119e0565b92508282019050808211156127ae576127ad61260a565b5b92915050565b7f6e6f7420455243373231526563656976657200000000000000000000000000005f82015250565b5f6127e8601283611940565b91506127f3826127b4565b602082019050919050565b5f6020820190508181035f830152612815816127dc565b9050919050565b7f4e487b71000000000000000000000000000000000000000000000000000000005f52601260045260245ffd5b5f612853826119e0565b915061285e836119e0565b92508261286e5761286d61281c565b5b828204905092915050565b5f612883826119e0565b915061288e836119e0565b92508261289e5761289d61281c565b5b828206905092915050565b7f4e487b71000000000000000000000000000000000000000000000000000000005f52603260045260245ffd5b7f6d696e7420746f207a65726f20616464726573730000000000000000000000005f82015250565b5f61290a601483611940565b9150612915826128d6565b602082019050919050565b5f6020820190508181035f830152612937816128fe565b9050919050565b7f746f6b656e20616c7265616479206d696e7465640000000000000000000000005f82015250565b5f612972601483611940565b915061297d8261293e565b602082019050919050565b5f6020820190508181035f83015261299f81612966565b9050919050565b5f81519050919050565b5f82825260208201905092915050565b5f6129ca826129a6565b6129d481856129b0565b93506129e4818560208601611950565b6129ed81611978565b840191505092915050565b5f608082019050612a0b5f830187611a6e565b612a186020830186611a6e565b612a256040830185611d46565b8181036060830152612a3781846129c0565b905095945050505050565b5f81519050612a50816118ae565b92915050565b5f60208284031215612a6b57612a6a61187b565b5b5f612a7884828501612a42565b9150509291505056fea264697066735822122011b71c27cfa795c80e95ef1ede1b3b910027b7a2c278aa765a076c02d29276f964736f6c63430008140033",
					"opcodes": "PUSH1 0x80 PUSH1 0x40 MSTORE PUSH1 0x1 PUSH1 0x6 SSTORE CALLVALUE DUP1 ISZERO PUSH3 0x15 JUMPI PUSH0 DUP1 REVERT JUMPDEST POP PUSH1 0x40 MLOAD PUSH3 0x304E CODESIZE SUB DUP1 PUSH3 0x304E DUP4 CODECOPY DUP2 DUP2 ADD PUSH1 0x40 MSTORE DUP2 ADD SWAP1 PUSH3 0x3B SWAP2 SWAP1 PUSH3 0x1EB JUMP JUMPDEST DUP2 PUSH0 SWAP1 DUP2 PUSH3 0x4B SWAP2 SWAP1 PUSH3 0x4A5 JUMP JUMPDEST POP DUP1 PUSH1 0x1 SWAP1 DUP2 PUSH3 0x5D SWAP2 SWAP1 PUSH3 0x4A5 JUMP JUMPDEST POP POP POP PUSH3 0x589 JUMP JUMPDEST PUSH0 PUSH1 0x40 MLOAD SWAP1 POP SWAP1 JUMP JUMPDEST PUSH0 DUP1 REVERT JUMPDEST PUSH0 DUP1 REVERT JUMPDEST PUSH0 DUP1 REVERT JUMPDEST PUSH0 DUP1 REVERT JUMPDEST PUSH0 PUSH1 0x1F NOT PUSH1 0x1F DUP4 ADD AND SWAP1 POP SWAP2 SWAP1 POP JUMP JUMPDEST PUSH32 0x4E487B7100000000000000000000000000000000000000000000000000000000 PUSH0 MSTORE PUSH1 0x41 PUSH1 0x4 MSTORE PUSH1 0x24 PUSH0 REVERT JUMPDEST PUSH3 0xC7 DUP3 PUSH3 0x7F JUMP JUMPDEST DUP2 ADD DUP2 DUP2 LT PUSH8 0xFFFFFFFFFFFFFFFF DUP3 GT OR ISZERO PUSH3 0xE9 JUMPI PUSH3 0xE8 PUSH3 0x8F JUMP JUMPDEST JUMPDEST DUP1 PUSH1 0x40 MSTORE POP POP POP JUMP JUMPDEST PUSH0 PUSH3 0xFD PUSH3 0x66 JUMP JUMPDEST SWAP1 POP PUSH3 0x10B DUP3 DUP3 PUSH3 0xBC JUMP JUMPDEST SWAP2 SWAP1 POP JUMP JUMPDEST PUSH0 PUSH8 0xFFFFFFFFFFFFFFFF DUP3 GT ISZERO PUSH3 0x12D JUMPI PUSH3 0x12C PUSH3 0x8F JUMP JUMPDEST JUMPDEST PUSH3 0x138 DUP3 PUSH3 0x7F JUMP JUMPDEST SWAP1 POP PUSH1 0x20 DUP2 ADD SWAP1 POP SWAP2 SWAP1 POP JUMP JUMPDEST PUSH0 JUMPDEST DUP4 DUP2 LT ISZERO PUSH3 0x164 JUMPI DUP1 DUP3 ADD MLOAD DUP2 DUP5 ADD MSTORE PUSH1 0x20 DUP2 ADD SWAP1 POP PUSH3 0x147 JUMP JUMPDEST PUSH0 DUP5 DUP5 ADD MSTORE POP POP POP POP JUMP JUMPDEST PUSH0 PUSH3 0x185 PUSH3 0x17F DUP5 PUSH3 0x110 JUMP JUMPDEST PUSH3 0xF2 JUMP JUMPDEST SWAP1 POP DUP3 DUP2 MSTORE PUSH1 0x20 DUP2 ADD DUP5 DUP5 DUP5 ADD GT ISZERO PUSH3 0x1A4 JUMPI PUSH3 0x1A3 PUSH3 0x7B JUMP JUMPDEST JUMPDEST PUSH3 0x1B1 DUP5 DUP3 DUP6 PUSH3 0x145 JUMP JUMPDEST POP SWAP4 SWAP3 POP POP POP JUMP JUMPDEST PUSH0 DUP3 PUSH1 0x1F DUP4 ADD SLT PUSH3 0x1D0 JUMPI PUSH3 0x1CF PUSH3 0x77 JUMP JUMPDEST JUMPDEST DUP2 MLOAD PUSH3 0x1E2 DUP5 DUP3 PUSH1 0x20 DUP7 ADD PUSH3 0x16F JUMP JUMPDEST SWAP2 POP POP SWAP3 SWAP2 POP POP JUMP JUMPDEST PUSH0 DUP1 PUSH1 0x40 DUP4 DUP6 SUB SLT ISZERO PUSH3 0x204 JUMPI PUSH3 0x203 PUSH3 0x6F JUMP JUMPDEST JUMPDEST PUSH0 DUP4 ADD MLOAD PUSH8 0xFFFFFFFFFFFFFFFF DUP2 GT ISZERO PUSH3 0x224 JUMPI PUSH3 0x223 PUSH3 0x73 JUMP JUMPDEST JUMPDEST PUSH3 0x232 DUP6 DUP3 DUP7 ADD PUSH3 0x1B9 JUMP JUMPDEST SWAP3 POP POP PUSH1 0x20 DUP4 ADD MLOAD PUSH8 0xFFFFFFFFFFFFFFFF DUP2 GT ISZERO PUSH3 0x256 JUMPI PUSH3 0x255 PUSH3 0x73 JUMP JUMPDEST JUMPDEST PUSH3 0x264 DUP6 DUP3 DUP7 ADD PUSH3 0x1B9 JUMP JUMPDEST SWAP2 POP POP SWAP3 POP SWAP3 SWAP1 POP JUMP JUMPDEST PUSH0 DUP2 MLOAD SWAP1 POP SWAP2 SWAP1 POP JUMP JUMPDEST PUSH32 0x4E487B7100000000000000000000000000000000000000000000000000000000 PUSH0 MSTORE PUSH1 0x22 PUSH1 0x4 MSTORE PUSH1 0x24 PUSH0 REVERT JUMPDEST PUSH0 PUSH1 0x2 DUP3 DIV SWAP1 POP PUSH1 0x1 DUP3 AND DUP1 PUSH3 0x2BD JUMPI PUSH1 0x7F DUP3 AND SWAP2 POP JUMPDEST PUSH1 0x20 DUP3 LT DUP2 SUB PUSH3 0x2D3 JUMPI PUSH3 0x2D2 PUSH3 0x278 JUMP JUMPDEST JUMPDEST POP SWAP2 SWAP1 POP JUMP JUMPDEST PUSH0 DUP2 SWAP1 POP DUP2 PUSH0 MSTORE PUSH1 0x20 PUSH0 KECCAK256 SWAP1 POP SWAP2 SWAP1 POP JUMP JUMPDEST PUSH0 PUSH1 0x20 PUSH1 0x1F DUP4 ADD DIV SWAP1 POP SWAP2 SWAP1 POP JUMP JUMPDEST PUSH0 DUP3 DUP3 SHL SWAP1 POP SWAP3 SWAP2 POP POP JUMP JUMPDEST PUSH0 PUSH1 0x8 DUP4 MUL PUSH3 0x337 PUSH32 0xFFFFFFFFFFFFFFFFFFFFFFFFFFFFFFFFFFFFFFFFFFFFFFFFFFFFFFFFFFFFFFFF DUP3 PUSH3 0x2FA JUMP JUMPDEST PUSH3 0x343 DUP7 DUP4 PUSH3 0x2FA JUMP JUMPDEST SWAP6 POP DUP1 NOT DUP5 AND SWAP4 POP DUP1 DUP7 AND DUP5 OR SWAP3 POP POP POP SWAP4 SWAP3 POP POP POP JUMP JUMPDEST PUSH0 DUP2 SWAP1 POP SWAP2 SWAP1 POP JUMP JUMPDEST PUSH0 DUP2 SWAP1 POP SWAP2 SWAP1 POP JUMP JUMPDEST PUSH0 PUSH3 0x38D PUSH3 0x387 PUSH3 0x381 DUP5 PUSH3 0x35B JUMP JUMPDEST PUSH3 0x364 JUMP JUMPDEST PUSH3 0x35B JUMP JUMPDEST SWAP1 POP SWAP2 SWAP1 POP JUMP JUMPDEST PUSH0 DUP2 SWAP1 POP SWAP2 SWAP1 POP JUMP JUMPDEST PUSH3 0x3A8 DUP4 PUSH3 0x36D JUMP JUMPDEST PUSH3 0x3C0 PUSH3 0x3B7 DUP3 PUSH3 0x394 JUMP JUMPDEST DUP5 DUP5 SLOAD PUSH3 0x306 JUMP JUMPDEST DUP3 SSTORE POP POP POP POP JUMP JUMPDEST PUSH0 SWAP1 JUMP JUMPDEST PUSH3 0x3D6 PUSH3 0x3C8 JUMP JUMPDEST PUSH3 0x3E3 DUP2 DUP5 DUP5 PUSH3 0x39D JUMP JUMPDEST POP POP POP JUMP JUMPDEST JUMPDEST DUP2 DUP2 LT ISZERO PUSH3 0x40A JUMPI PUSH3 0x3FE PUSH0 DUP3 PUSH3 0x3CC JUMP JUMPDEST PUSH1 0x1 DUP2 ADD SWAP1 POP PUSH3 0x3E9 JUMP JUMPDEST POP POP JUMP JUMPDEST PUSH1 0x1F DUP3 GT ISZERO PUSH3 0x459 JUMPI PUSH3 0x423 DUP2 PUSH3 0x2D9 JUMP JUMPDEST PUSH3 0x42E DUP5 PUSH3 0x2EB JUMP JUMPDEST DUP2 ADD PUSH1 0x20 DUP6 LT ISZERO PUSH3 0x43E JUMPI DUP2 SWAP1 POP JUMPDEST PUSH3 0x456 PUSH3 0x44D DUP6 PUSH3 0x2EB JUMP JUMPDEST DUP4 ADD DUP3 PUSH3 0x3E8 JUMP JUMPDEST POP POP JUMPDEST POP POP POP JUMP JUMPDEST PUSH0 DUP3 DUP3 SHR SWAP1 POP SWAP3 SWAP2 POP POP JUMP JUMPDEST PUSH0 PUSH3 0x47B PUSH0 NOT DUP5 PUSH1 0x8 MUL PUSH3 0x45E JUMP JUMPDEST NOT DUP1 DUP4 AND SWAP2 POP POP SWAP3 SWAP2 POP POP JUMP JUMPDEST PUSH0 PUSH3 0x495 DUP4 DUP4 PUSH3 0x46A JUMP JUMPDEST SWAP2 POP DUP3 PUSH1 0x2 MUL DUP3 OR SWAP1 POP SWAP3 SWAP2 POP POP JUMP JUMPDEST PUSH3 0x4B0 DUP3 PUSH3 0x26E JUMP JUMPDEST PUSH8 0xFFFFFFFFFFFFFFFF DUP2 GT ISZERO PUSH3 0x4CC JUMPI PUSH3 0x4CB PUSH3 0x8F JUMP JUMPDEST JUMPDEST PUSH3 0x4D8 DUP3 SLOAD PUSH3 0x2A5 JUMP JUMPDEST PUSH3 0x4E5 DUP3 DUP3 DUP6 PUSH3 0x40E JUMP JUMPDEST PUSH0 PUSH1 0x20 SWAP1 POP PUSH1 0x1F DUP4 GT PUSH1 0x1 DUP2 EQ PUSH3 0x51B JUMPI PUSH0 DUP5 ISZERO PUSH3 0x506 JUMPI DUP3 DUP8 ADD MLOAD SWAP1 POP JUMPDEST PUSH3 0x512 DUP6 DUP3 PUSH3 0x488 JUMP JUMPDEST DUP7 SSTORE POP PUSH3 0x581 JUMP JUMPDEST PUSH1 0x1F NOT DUP5 AND PUSH3 0x52B DUP7 PUSH3 0x2D9 JUMP JUMPDEST PUSH0 JUMPDEST DUP3 DUP2 LT ISZERO PUSH3 0x554 JUMPI DUP5 DUP10 ADD MLOAD DUP3 SSTORE PUSH1 0x1 DUP3 ADD SWAP2 POP PUSH1 0x20 DUP6 ADD SWAP5 POP PUSH1 0x20 DUP2 ADD SWAP1 POP PUSH3 0x52D JUMP JUMPDEST DUP7 DUP4 LT ISZERO PUSH3 0x574 JUMPI DUP5 DUP10 ADD MLOAD PUSH3 0x570 PUSH1 0x1F DUP10 AND DUP3 PUSH3 0x46A JUMP JUMPDEST DUP4 SSTORE POP JUMPDEST PUSH1 0x1 PUSH1 0x2 DUP9 MUL ADD DUP9 SSTORE POP POP POP JUMPDEST POP POP POP POP POP POP JUMP JUMPDEST PUSH2 0x2AB7 DUP1 PUSH3 0x597 PUSH0 CODECOPY PUSH0 RETURN INVALID PUSH1 0x80 PUSH1 0x40 MSTORE CALLVALUE DUP1 ISZERO PUSH2 0xF JUMPI PUSH0 DUP1 REVERT JUMPDEST POP PUSH1 0x4 CALLDATASIZE LT PUSH2 0xFE JUMPI PUSH0 CALLDATALOAD PUSH1 0xE0 SHR DUP1 PUSH4 0x6352211E GT PUSH2 0x95 JUMPI DUP1 PUSH4 0xB88D4FDE GT PUSH2 0x64 JUMPI DUP1 PUSH4 0xB88D4FDE EQ PUSH2 0x2A6 JUMPI DUP1 PUSH4 0xC87B56DD EQ PUSH2 0x2C2 JUMPI DUP1 PUSH4 0xD0DEF521 EQ PUSH2 0x2F2 JUMPI DUP1 PUSH4 0xE985E9C5 EQ PUSH2 0x30E JUMPI PUSH2 0xFE JUMP JUMPDEST DUP1 PUSH4 0x6352211E EQ PUSH2 0x20C JUMPI DUP1 PUSH4 0x70A08231 EQ PUSH2 0x23C JUMPI DUP1 PUSH4 0x95D89B41 EQ PUSH2 0x26C JUMPI DUP1 PUSH4 0xA22CB465 EQ PUSH2 0x28A JUMPI PUSH2 0xFE JUMP JUMPDEST DUP1 PUSH4 0x162094C4 GT PUSH2 0xD1 JUMPI DUP1 PUSH4 0x162094C4 EQ PUSH2 0x19C JUMPI DUP1 PUSH4 0x23B872DD EQ PUSH2 0x1B8 JUMPI DUP1 PUSH4 0x42842E0E EQ PUSH2 0x1D4 JUMPI DUP1 PUSH4 0x55F804B3 EQ PUSH2 0x1F0 JUMPI PUSH2 0xFE JUMP JUMPDEST DUP1 PUSH4 0x1FFC9A7 EQ PUSH2 0x102 JUMPI DUP1 PUSH4 0x6FDDE03 EQ PUSH2 0x132 JUMPI DUP1 PUSH4 0x81812FC EQ PUSH2 0x150 JUMPI DUP1 PUSH4 0x95EA7B3 EQ PUSH2 0x180 JUMPI JUMPDEST PUSH0 DUP1 REVERT JUMPDEST PUSH2 0x11C PUSH1 0x4 DUP1 CALLDATASIZE SUB DUP2 ADD SWAP1 PUSH2 0x117 SWAP2 SWAP1 PUSH2 0x18D8 JUMP JUMPDEST PUSH2 0x33E JUMP JUMPDEST PUSH1 0x40 MLOAD PUSH2 0x129 SWAP2 SWAP1 PUSH2 0x191D JUMP JUMPDEST PUSH1 0x40 MLOAD DUP1 SWAP2 SUB SWAP1 RETURN JUMPDEST PUSH2 0x13A PUSH2 0x477 JUMP JUMPDEST PUSH1 0x40 MLOAD PUSH2 0x147 SWAP2 SWAP1 PUSH2 0x19C0 JUMP JUMPDEST PUSH1 0x40 MLOAD DUP1 SWAP2 SUB SWAP1 RETURN JUMPDEST PUSH2 0x16A PUSH1 0x4 DUP1 CALLDATASIZE SUB DUP2 ADD SWAP1 PUSH2 0x165 SWAP2 SWAP1 PUSH2 0x1A13 JUMP JUMPDEST PUSH2 0x502 JUMP JUMPDEST PUSH1 0x40 MLOAD PUSH2 0x177 SWAP2 SWAP1 PUSH2 0x1A7D JUMP JUMPDEST PUSH1 0x40 MLOAD DUP1 SWAP2 SUB SWAP1 RETURN JUMPDEST PUSH2 0x19A PUSH1 0x4 DUP1 CALLDATASIZE SUB DUP2 ADD SWAP1 PUSH2 0x195 SWAP2 SWAP1 PUSH2 0x1AC0 JUMP JUMPDEST PUSH2 0x5D9 JUMP JUMPDEST STOP JUMPDEST PUSH2 0x1B6 PUSH1 0x4 DUP1 CALLDATASIZE SUB DUP2 ADD SWAP1 PUSH2 0x1B1 SWAP2 SWAP1 PUSH2 0x1C2A JUMP JUMPDEST PUSH2 0x717 JUMP JUMPDEST STOP JUMPDEST PUSH2 0x1D2 PUSH1 0x4 DUP1 CALLDATASIZE SUB DUP2 ADD SWAP1 PUSH2 0x1CD SWAP2 SWAP1 PUSH2 0x1C84 JUMP JUMPDEST PUSH2 0x8AE JUMP JUMPDEST STOP JUMPDEST PUSH2 0x1EE PUSH1 0x4 DUP1 CALLDATASIZE SUB DUP2 ADD SWAP1 PUSH2 0x1E9 SWAP2 SWAP1 PUSH2 0x1C84 JUMP JUMPDEST PUSH2 0x916 JUMP JUMPDEST STOP JUMPDEST PUSH2 0x20A PUSH1 0x4 DUP1 CALLDATASIZE SUB DUP2 ADD SWAP1 PUSH2 0x205 SWAP2 SWAP1 PUSH2 0x1CD4 JUMP JUMPDEST PUSH2 0x935 JUMP JUMPDEST STOP JUMPDEST PUSH2 0x226 PUSH1 0x4 DUP1 CALLDATASIZE SUB DUP2 ADD SWAP1 PUSH2 0x221 SWAP2 SWAP1 PUSH2 0x1A13 JUMP JUMPDEST PUSH2 0x97F JUMP JUMPDEST PUSH1 0x40 MLOAD PUSH2 0x233 SWAP2 SWAP1 PUSH2 0x1A7D JUMP JUMPDEST PUSH1 0x40 MLOAD DUP1 SWAP2 SUB SWAP1 RETURN JUMPDEST PUSH2 0x256 PUSH1 0x4 DUP1 CALLDATASIZE SUB DUP2 ADD SWAP1 PUSH2 0x251 SWAP2 SWAP1 PUSH2 0x1D1B JUMP JUMPDEST PUSH2 0xA26 JUMP JUMPDEST PUSH1 0x40 MLOAD PUSH2 0x263 SWAP2 SWAP1 PUSH2 0x1D55 JUMP JUMPDEST PUSH1 0x40 MLOAD DUP1 SWAP2 SUB SWAP1 RETURN JUMPDEST PUSH2 0x274 PUSH2 0xADA JUMP JUMPDEST PUSH1 0x40 MLOAD PUSH2 0x281 SWAP2 SWAP1 PUSH2 0x19C0 JUMP JUMPDEST PUSH1 0x40 MLOAD DUP1 SWAP2 SUB SWAP1 RETURN JUMPDEST PUSH2 0x2A4 PUSH1 0x4 DUP1 CALLDATASIZE SUB DUP2 ADD SWAP1 PUSH2 0x29F SWAP2 SWAP1 PUSH2 0x1D98 JUMP JUMPDEST PUSH2 0xB66 JUMP JUMPDEST STOP JUMPDEST PUSH2 0x2C0 PUSH1 0x4 DUP1 CALLDATASIZE SUB DUP2 ADD SWAP1 PUSH2 0x2BB SWAP2 SWAP1 PUSH2 0x1E74 JUMP JUMPDEST PUSH2 0xC5E JUMP JUMPDEST STOP JUMPDEST PUSH2 0x2DC PUSH1 0x4 DUP1 CALLDATASIZE SUB DUP2 ADD SWAP1 PUSH2 0x2D7 SWAP2 SWAP1 PUSH2 0x1A13 JUMP JUMPDEST PUSH2 0xCC8 JUMP JUMPDEST PUSH1 0x40 MLOAD PUSH2 0x2E9 SWAP2 SWAP1 PUSH2 0x19C0 JUMP JUMPDEST PUSH1 0x40 MLOAD DUP1 SWAP2 SUB SWAP1 RETURN JUMPDEST PUSH2 0x30C PUSH1 0x4 DUP1 CALLDATASIZE SUB DUP2 ADD SWAP1 PUSH2 0x307 SWAP2 SWAP1 PUSH2 0x1EF4 JUMP JUMPDEST PUSH2 0xE73 JUMP JUMPDEST STOP JUMPDEST PUSH2 0x328 PUSH1 0x4 DUP1 CALLDATASIZE SUB DUP2 ADD SWAP1 PUSH2 0x323 SWAP2 SWAP1 PUSH2 0x1F4E JUMP JUMPDEST PUSH2 0xEF6 JUMP JUMPDEST PUSH1 0x40 MLOAD PUSH2 0x335 SWAP2 SWAP1 PUSH2 0x191D JUMP JUMPDEST PUSH1 0x40 MLOAD DUP1 SWAP2 SUB SWAP1 RETURN JUMPDEST PUSH0 PUSH32 0x80AC58CD00000000000000000000000000000000000000000000000000000000 PUSH28 0xFFFFFFFFFFFFFFFFFFFFFFFFFFFFFFFFFFFFFFFFFFFFFFFFFFFFFFFF NOT AND DUP3 PUSH28 0xFFFFFFFFFFFFFFFFFFFFFFFFFFFFFFFFFFFFFFFFFFFFFFFFFFFFFFFF NOT AND EQ DUP1 PUSH2 0x408 JUMPI POP PUSH32 0x1FFC9A700000000000000000000000000000000000000000000000000000000 PUSH28 0xFFFFFFFFFFFFFFFFFFFFFFFFFFFFFFFFFFFFFFFFFFFFFFFFFFFFFFFF NOT AND DUP3 PUSH28 0xFFFFFFFFFFFFFFFFFFFFFFFFFFFFFFFFFFFFFFFFFFFFFFFFFFFFFFFF NOT AND EQ JUMPDEST DUP1 PUSH2 0x470 JUMPI POP PUSH32 0x5B5E139F00000000000000000000000000000000000000000000000000000000 PUSH28 0xFFFFFFFFFFFFFFFFFFFFFFFFFFFFFFFFFFFFFFFFFFFFFFFFFFFFFFFF NOT AND DUP3 PUSH28 0xFFFFFFFFFFFFFFFFFFFFFFFFFFFFFFFFFFFFFFFFFFFFFFFFFFFFFFFF NOT AND EQ JUMPDEST SWAP1 POP SWAP2 SWAP1 POP JUMP JUMPDEST PUSH0 DUP1 SLOAD PUSH2 0x483 SWAP1 PUSH2 0x1FB9 JUMP JUMPDEST DUP1 PUSH1 0x1F ADD PUSH1 0x20 DUP1 SWAP2 DIV MUL PUSH1 0x20 ADD PUSH1 0x40 MLOAD SWAP1 DUP2 ADD PUSH1 0x40 MSTORE DUP1 SWAP3 SWAP2 SWAP1 DUP2 DUP2 MSTORE PUSH1 0x20 ADD DUP3 DUP1 SLOAD PUSH2 0x4AF SWAP1 PUSH2 0x1FB9 JUMP JUMPDEST DUP1 ISZERO PUSH2 0x4FA JUMPI DUP1 PUSH1 0x1F LT PUSH2 0x4D1 JUMPI PUSH2 0x100 DUP1 DUP4 SLOAD DIV MUL DUP4 MSTORE SWAP2 PUSH1 0x20 ADD SWAP2 PUSH2 0x4FA JUMP JUMPDEST DUP3 ADD SWAP2 SWAP1 PUSH0 MSTORE PUSH1 0x20 PUSH0 KECCAK256 SWAP1 JUMPDEST DUP2 SLOAD DUP2 MSTORE SWAP1 PUSH1 0x1 ADD SWAP1 PUSH1 0x20 ADD DUP1 DUP4 GT PUSH2 0x4DD JUMPI DUP3 SWAP1 SUB PUSH1 0x1F AND DUP3 ADD SWAP2 JUMPDEST POP POP POP POP POP DUP2 JUMP JUMPDEST PUSH0 DUP1 PUSH20 0xFFFFFFFFFFFFFFFFFFFFFFFFFFFFFFFFFFFFFFFF AND PUSH1 0x2 PUSH0 DUP5 DUP2 MSTORE PUSH1 0x20 ADD SWAP1 DUP2 MSTORE PUSH1 0x20 ADD PUSH0 KECCAK256 PUSH0 SWAP1 SLOAD SWAP1 PUSH2 0x100 EXP SWAP1 DIV PUSH20 0xFFFFFFFFFFFFFFFFFFFFFFFFFFFFFFFFFFFFFFFF AND PUSH20 0xFFFFFFFFFFFFFFFFFFFFFFFFFFFFFFFFFFFFFFFF AND SUB PUSH2 0x5A1 JUMPI PUSH1 0x40 MLOAD PUSH32 0x8C379A000000000000000000000000000000000000000000000000000000000 DUP2 MSTORE PUSH1 0x4 ADD PUSH2 0x598 SWAP1 PUSH2 0x2033 JUMP JUMPDEST PUSH1 0x40 MLOAD DUP1 SWAP2 SUB SWAP1 REVERT JUMPDEST PUSH1 0x4 PUSH0 DUP4 DUP2 MSTORE PUSH1 0x20 ADD SWAP1 DUP2 MSTORE PUSH1 0x20 ADD PUSH0 KECCAK256 PUSH0 SWAP1 SLOAD SWAP1 PUSH2 0x100 EXP SWAP1 DIV PUSH20 0xFFFFFFFFFFFFFFFFFFFFFFFFFFFFFFFFFFFFFFFF AND SWAP1 POP SWAP2 SWAP1 POP JUMP JUMPDEST PUSH0 PUSH1 0x2 PUSH0 DUP4 DUP2 MSTORE PUSH1 0x20 ADD SWAP1 DUP2 MSTORE PUSH1 0x20 ADD PUSH0 KECCAK256 PUSH0 SWAP1 SLOAD SWAP1 PUSH2 0x100 EXP SWAP1 DIV PUSH20 0xFFFFFFFFFFFFFFFFFFFFFFFFFFFFFFFFFFFFFFFF AND SWAP1 POP DUP1 PUSH20 0xFFFFFFFFFFFFFFFFFFFFFFFFFFFFFFFFFFFFFFFF AND CALLER PUSH20 0xFFFFFFFFFFFFFFFFFFFFFFFFFFFFFFFFFFFFFFFF AND EQ DUP1 PUSH2 0x6C8 JUMPI POP PUSH1 0x5 PUSH0 DUP3 PUSH20 0xFFFFFFFFFFFFFFFFFFFFFFFFFFFFFFFFFFFFFFFF AND PUSH20 0xFFFFFFFFFFFFFFFFFFFFFFFFFFFFFFFFFFFFFFFF AND DUP2 MSTORE PUSH1 0x20 ADD SWAP1 DUP2 MSTORE PUSH1 0x20 ADD PUSH0 KECCAK256 PUSH0 CALLER PUSH20 0xFFFFFFFFFFFFFFFFFFFFFFFFFFFFFFFFFFFFFFFF AND PUSH20 0xFFFFFFFFFFFFFFFFFFFFFFFFFFFFFFFFFFFFFFFF AND DUP2 MSTORE PUSH1 0x20 ADD SWAP1 DUP2 MSTORE PUSH1 0x20 ADD PUSH0 KECCAK256 PUSH0 SWAP1 SLOAD SWAP1 PUSH2 0x100 EXP SWAP1 DIV PUSH1 0xFF AND JUMPDEST PUSH2 0x707 JUMPI PUSH1 0x40 MLOAD PUSH32 0x8C379A000000000000000000000000000000000000000000000000000000000 DUP2 MSTORE PUSH1 0x4 ADD PUSH2 0x6FE SWAP1 PUSH2 0x209B JUMP JUMPDEST PUSH1 0x40 MLOAD DUP1 SWAP2 SUB SWAP1 REVERT JUMPDEST PUSH2 0x712 DUP2 DUP5 DUP5 PUSH2 0xF84 JUMP JUMPDEST POP POP POP JUMP JUMPDEST PUSH0 PUSH20 0xFFFFFFFFFFFFFFFFFFFFFFFFFFFFFFFFFFFFFFFF AND PUSH1 0x2 PUSH0 DUP5 DUP2 MSTORE PUSH1 0x20 ADD SWAP1 DUP2 MSTORE PUSH1 0x20 ADD PUSH0 KECCAK256 PUSH0 SWAP1 SLOAD SWAP1 PUSH2 0x100 EXP SWAP1 DIV PUSH20 0xFFFFFFFFFFFFFFFFFFFFFFFFFFFFFFFFFFFFFFFF AND PUSH20 0xFFFFFFFFFFFFFFFFFFFFFFFFFFFFFFFFFFFFFFFF AND SUB PUSH2 0x7B5 JUMPI PUSH1 0x40 MLOAD PUSH32 0x8C379A000000000000000000000000000000000000000000000000000000000 DUP2 MSTORE PUSH1 0x4 ADD PUSH2 0x7AC SWAP1 PUSH2 0x2103 JUMP JUMPDEST PUSH1 0x40 MLOAD DUP1 SWAP2 SUB SWAP1 REVERT JUMPDEST PUSH1 0x2 PUSH0 DUP4 DUP2 MSTORE PUSH1 0x20 ADD SWAP1 DUP2 MSTORE PUSH1 0x20 ADD PUSH0 KECCAK256 PUSH0 SWAP1 SLOAD SWAP1 PUSH2 0x100 EXP SWAP1 DIV PUSH20 0xFFFFFFFFFFFFFFFFFFFFFFFFFFFFFFFFFFFFFFFF AND PUSH20 0xFFFFFFFFFFFFFFFFFFFFFFFFFFFFFFFFFFFFFFFF AND CALLER PUSH20 0xFFFFFFFFFFFFFFFFFFFFFFFFFFFFFFFFFFFFFFFF AND EQ PUSH2 0x853 JUMPI PUSH1 0x40 MLOAD PUSH32 0x8C379A000000000000000000000000000000000000000000000000000000000 DUP2 MSTORE PUSH1 0x4 ADD PUSH2 0x84A SWAP1 PUSH2 0x216B JUMP JUMPDEST PUSH1 0x40 MLOAD DUP1 SWAP2 SUB SWAP1 REVERT JUMPDEST DUP1 PUSH1 0x8 PUSH0 DUP5 DUP2 MSTORE PUSH1 0x20 ADD SWAP1 DUP2 MSTORE PUSH1 0x20 ADD PUSH0 KECCAK256 SWAP1 DUP2 PUSH2 0x871 SWAP2 SWAP1 PUSH2 0x2326 JUMP JUMPDEST POP DUP2 PUSH32 0xDA84CA2183491F179A603E877B2CB058E42195041C2B9C53D746427E519A34DF DUP3 PUSH1 0x40 MLOAD PUSH2 0x8A2 SWAP2 SWAP1 PUSH2 0x19C0 JUMP JUMPDEST PUSH1 0x40 MLOAD DUP1 SWAP2 SUB SWAP1 LOG2 POP POP JUMP JUMPDEST PUSH0 PUSH2 0x8B8 DUP3 PUSH2 0x97F JUMP JUMPDEST SWAP1 POP PUSH2 0x8C5 DUP2 CALLER DUP5 PUSH2 0x1033 JUMP JUMPDEST PUSH2 0x904 JUMPI PUSH1 0x40 MLOAD PUSH32 0x8C379A000000000000000000000000000000000000000000000000000000000 DUP2 MSTORE PUSH1 0x4 ADD PUSH2 0x8FB SWAP1 PUSH2 0x243F JUMP JUMPDEST PUSH1 0x40 MLOAD DUP1 SWAP2 SUB SWAP1 REVERT JUMPDEST PUSH2 0x910 DUP2 DUP6 DUP6 DUP6 PUSH2 0x115E JUMP JUMPDEST POP POP POP POP JUMP JUMPDEST PUSH2 0x930 DUP4 DUP4 DUP4 PUSH1 0x40 MLOAD DUP1 PUSH1 0x20 ADD PUSH1 0x40 MSTORE DUP1 PUSH0 DUP2 MSTORE POP PUSH2 0xC5E JUMP JUMPDEST POP POP POP JUMP JUMPDEST DUP1 PUSH1 0x7 SWAP1 DUP2 PUSH2 0x944 SWAP2 SWAP1 PUSH2 0x2326 JUMP JUMPDEST POP PUSH32 0x5411E8EBF1636D9E83D5FC4900BF80CBAC82E8790DA2A4C94DB4895E889EEDF6 DUP2 PUSH1 0x40 MLOAD PUSH2 0x974 SWAP2 SWAP1 PUSH2 0x19C0 JUMP JUMPDEST PUSH1 0x40 MLOAD DUP1 SWAP2 SUB SWAP1 LOG1 POP JUMP JUMPDEST PUSH0 PUSH1 0x2 PUSH0 DUP4 DUP2 MSTORE PUSH1 0x20 ADD SWAP1 DUP2 MSTORE PUSH1 0x20 ADD PUSH0 KECCAK256 PUSH0 SWAP1 SLOAD SWAP1 PUSH2 0x100 EXP SWAP1 DIV PUSH20 0xFFFFFFFFFFFFFFFFFFFFFFFFFFFFFFFFFFFFFFFF AND SWAP1 POP PUSH0 PUSH20 0xFFFFFFFFFFFFFFFFFFFFFFFFFFFFFFFFFFFFFFFF AND DUP2 PUSH20 0xFFFFFFFFFFFFFFFFFFFFFFFFFFFFFFFFFFFFFFFF AND SUB PUSH2 0xA21 JUMPI PUSH1 0x40 MLOAD PUSH32 0x8C379A000000000000000000000000000000000000000000000000000000000 DUP2 MSTORE PUSH1 0x4 ADD PUSH2 0xA18 SWAP1 PUSH2 0x2033 JUMP JUMPDEST PUSH1 0x40 MLOAD DUP1 SWAP2 SUB SWAP1 REVERT JUMPDEST SWAP2 SWAP1 POP JUMP JUMPDEST PUSH0 DUP1 PUSH20 0xFFFFFFFFFFFFFFFFFFFFFFFFFFFFFFFFFFFFFFFF AND DUP3 PUSH20 0xFFFFFFFFFFFFFFFFFFFFFFFFFFFFFFFFFFFFFFFF AND SUB PUSH2 0xA95 JUMPI PUSH1 0x40 MLOAD PUSH32 0x8C379A000000000000000000000000000000000000000000000000000000000 DUP2 MSTORE PUSH1 0x4 ADD PUSH2 0xA8C SWAP1 PUSH2 0x24A7 JUMP JUMPDEST PUSH1 0x40 MLOAD DUP1 SWAP2 SUB SWAP1 REVERT JUMPDEST PUSH1 0x3 PUSH0 DUP4 PUSH20 0xFFFFFFFFFFFFFFFFFFFFFFFFFFFFFFFFFFFFFFFF AND PUSH20 0xFFFFFFFFFFFFFFFFFFFFFFFFFFFFFFFFFFFFFFFF AND DUP2 MSTORE PUSH1 0x20 ADD SWAP1 DUP2 MSTORE PUSH1 0x20 ADD PUSH0 KECCAK256 SLOAD SWAP1 POP SWAP2 SWAP1 POP JUMP JUMPDEST PUSH1 0x1 DUP1 SLOAD PUSH2 0xAE7 SWAP1 PUSH2 0x1FB9 JUMP JUMPDEST DUP1 PUSH1 0x1F ADD PUSH1 0x20 DUP1 SWAP2 DIV MUL PUSH1 0x20 ADD PUSH1 0x40 MLOAD SWAP1 DUP2 ADD PUSH1 0x40 MSTORE DUP1 SWAP3 SWAP2 SWAP1 DUP2 DUP2 MSTORE PUSH1 0x20 ADD DUP3 DUP1 SLOAD PUSH2 0xB13 SWAP1 PUSH2 0x1FB9 JUMP JUMPDEST DUP1 ISZERO PUSH2 0xB5E JUMPI DUP1 PUSH1 0x1F LT PUSH2 0xB35 JUMPI PUSH2 0x100 DUP1 DUP4 SLOAD DIV MUL DUP4 MSTORE SWAP2 PUSH1 0x20 ADD SWAP2 PUSH2 0xB5E JUMP JUMPDEST DUP3 ADD SWAP2 SWAP1 PUSH0 MSTORE PUSH1 0x20 PUSH0 KECCAK256 SWAP1 JUMPDEST DUP2 SLOAD DUP2 MSTORE SWAP1 PUSH1 0x1 ADD SWAP1 PUSH1 0x20 ADD DUP1 DUP4 GT PUSH2 0xB41 JUMPI DUP3 SWAP1 SUB PUSH1 0x1F AND DUP3 ADD SWAP2 JUMPDEST POP POP POP POP POP DUP2 JUMP JUMPDEST DUP1 PUSH1 0x5 PUSH0 CALLER PUSH20 0xFFFFFFFFFFFFFFFFFFFFFFFFFFFFFFFFFFFFFFFF AND PUSH20 0xFFFFFFFFFFFFFFFFFFFFFFFFFFFFFFFFFFFFFFFF AND DUP2 MSTORE PUSH1 0x20 ADD SWAP1 DUP2 MSTORE PUSH1 0x20 ADD PUSH0 KECCAK256 PUSH0 DUP5 PUSH20 0xFFFFFFFFFFFFFFFFFFFFFFFFFFFFFFFFFFFFFFFF AND PUSH20 0xFFFFFFFFFFFFFFFFFFFFFFFFFFFFFFFFFFFFFFFF AND DUP2 MSTORE PUSH1 0x20 ADD SWAP1 DUP2 MSTORE PUSH1 0x20 ADD PUSH0 KECCAK256 PUSH0 PUSH2 0x100 EXP DUP2 SLOAD DUP2 PUSH1 0xFF MUL NOT AND SWAP1 DUP4 ISZERO ISZERO MUL OR SWAP1 SSTORE POP DUP2 PUSH20 0xFFFFFFFFFFFFFFFFFFFFFFFFFFFFFFFFFFFFFFFF AND CALLER PUSH20 0xFFFFFFFFFFFFFFFFFFFFFFFFFFFFFFFFFFFFFFFF AND PUSH32 0x17307EAB39AB6107E8899845AD3D59BD9653F200F220920489CA2B5937696C31 DUP4 PUSH1 0x40 MLOAD PUSH2 0xC52 SWAP2 SWAP1 PUSH2 0x191D JUMP JUMPDEST PUSH1 0x40 MLOAD DUP1 SWAP2 SUB SWAP1 LOG3 POP POP JUMP JUMPDEST PUSH0 PUSH2 0xC68 DUP4 PUSH2 0x97F JUMP JUMPDEST SWAP1 POP PUSH2 0xC75 DUP2 CALLER DUP6 PUSH2 0x1033 JUMP JUMPDEST PUSH2 0xCB4 JUMPI PUSH1 0x40 MLOAD PUSH32 0x8C379A000000000000000000000000000000000000000000000000000000000 DUP2 MSTORE PUSH1 0x4 ADD PUSH2 0xCAB SWAP1 PUSH2 0x243F JUMP JUMPDEST PUSH1 0x40 MLOAD DUP1 SWAP2 SUB SWAP1 REVERT JUMPDEST PUSH2 0xCC1 DUP2 DUP7 DUP7 DUP7 DUP7 PUSH2 0x139D JUMP JUMPDEST POP POP POP POP POP JUMP JUMPDEST PUSH1 0x60 PUSH0 PUSH20 0xFFFFFFFFFFFFFFFFFFFFFFFFFFFFFFFFFFFFFFFF AND PUSH1 0x2 PUSH0 DUP5 DUP2 MSTORE PUSH1 0x20 ADD SWAP1 DUP2 MSTORE PUSH1 0x20 ADD PUSH0 KECCAK256 PUSH0 SWAP1 SLOAD SWAP1 PUSH2 0x100 EXP SWAP1 DIV PUSH20 0xFFFFFFFFFFFFFFFFFFFFFFFFFFFFFFFFFFFFFFFF AND PUSH20 0xFFFFFFFFFFFFFFFFFFFFFFFFFFFFFFFFFFFFFFFF AND SUB PUSH2 0xD68 JUMPI PUSH1 0x40 MLOAD PUSH32 0x8C379A000000000000000000000000000000000000000000000000000000000 DUP2 MSTORE PUSH1 0x4 ADD PUSH2 0xD5F SWAP1 PUSH2 0x250F JUMP JUMPDEST PUSH1 0x40 MLOAD DUP1 SWAP2 SUB SWAP1 REVERT JUMPDEST PUSH0 PUSH1 0x8 PUSH0 DUP5 DUP2 MSTORE PUSH1 0x20 ADD SWAP1 DUP2 MSTORE PUSH1 0x20 ADD PUSH0 KECCAK256 DUP1 SLOAD PUSH2 0xD85 SWAP1 PUSH2 0x1FB9 JUMP JUMPDEST DUP1 PUSH1 0x1F ADD PUSH1 0x20 DUP1 SWAP2 DIV MUL PUSH1 0x20 ADD PUSH1 0x40 MLOAD SWAP1 DUP2 ADD PUSH1 0x40 MSTORE DUP1 SWAP3 SWAP2 SWAP1 DUP2 DUP2 MSTORE PUSH1 0x20 ADD DUP3 DUP1 SLOAD PUSH2 0xDB1 SWAP1 PUSH2 0x1FB9 JUMP JUMPDEST DUP1 ISZERO PUSH2 0xDFC JUMPI DUP1 PUSH1 0x1F LT PUSH2 0xDD3 JUMPI PUSH2 0x100 DUP1 DUP4 SLOAD DIV MUL DUP4 MSTORE SWAP2 PUSH1 0x20 ADD SWAP2 PUSH2 0xDFC JUMP JUMPDEST DUP3 ADD SWAP2 SWAP1 PUSH0 MSTORE PUSH1 0x20 PUSH0 KECCAK256 SWAP1 JUMPDEST DUP2 SLOAD DUP2 MSTORE SWAP1 PUSH1 0x1 ADD SWAP1 PUSH1 0x20 ADD DUP1 DUP4 GT PUSH2 0xDDF JUMPI DUP3 SWAP1 SUB PUSH1 0x1F AND DUP3 ADD SWAP2 JUMPDEST POP POP POP POP POP SWAP1 POP PUSH0 DUP2 MLOAD GT ISZERO PUSH2 0xE15 JUMPI DUP1 SWAP2 POP POP PUSH2 0xE6E JUMP JUMPDEST PUSH0 PUSH1 0x7 DUP1 SLOAD PUSH2 0xE23 SWAP1 PUSH2 0x1FB9 JUMP JUMPDEST SWAP1 POP GT PUSH2 0xE3E JUMPI PUSH1 0x40 MLOAD DUP1 PUSH1 0x20 ADD PUSH1 0x40 MSTORE DUP1 PUSH0 DUP2 MSTORE POP PUSH2 0xE6A JUMP JUMPDEST PUSH1 0x7 PUSH2 0xE49 DUP5 PUSH2 0x13FB JUMP JUMPDEST PUSH1 0x40 MLOAD PUSH1 0x20 ADD PUSH2 0xE5A SWAP3 SWAP2 SWAP1 PUSH2 0x25E7 JUMP JUMPDEST PUSH1 0x40 MLOAD PUSH1 0x20 DUP2 DUP4 SUB SUB DUP2 MSTORE SWAP1 PUSH1 0x40 MSTORE JUMPDEST SWAP2 POP POP JUMPDEST SWAP2 SWAP1 POP JUMP JUMPDEST PUSH0 PUSH1 0x6 SLOAD SWAP1 POP PUSH2 0xE83 DUP4 DUP3 PUSH2 0x1554 JUMP JUMPDEST DUP2 PUSH1 0x8 PUSH0 DUP4 DUP2 MSTORE PUSH1 0x20 ADD SWAP1 DUP2 MSTORE PUSH1 0x20 ADD PUSH0 KECCAK256 SWAP1 DUP2 PUSH2 0xEA1 SWAP2 SWAP1 PUSH2 0x2326 JUMP JUMPDEST POP PUSH1 0x6 PUSH0 DUP2 SLOAD DUP1 SWAP3 SWAP2 SWAP1 PUSH2 0xEB4 SWAP1 PUSH2 0x2637 JUMP JUMPDEST SWAP2 SWAP1 POP SSTORE POP DUP1 PUSH32 0xDA84CA2183491F179A603E877B2CB058E42195041C2B9C53D746427E519A34DF DUP4 PUSH1 0x40 MLOAD PUSH2 0xEE9 SWAP2 SWAP1 PUSH2 0x19C0 JUMP JUMPDEST PUSH1 0x40 MLOAD DUP1 SWAP2 SUB SWAP1 LOG2 POP POP POP JUMP JUMPDEST PUSH0 PUSH1 0x5 PUSH0 DUP5 PUSH20 0xFFFFFFFFFFFFFFFFFFFFFFFFFFFFFFFFFFFFFFFF AND PUSH20 0xFFFFFFFFFFFFFFFFFFFFFFFFFFFFFFFFFFFFFFFF AND DUP2 MSTORE PUSH1 0x20 ADD SWAP1 DUP2 MSTORE PUSH1 0x20 ADD PUSH0 KECCAK256 PUSH0 DUP4 PUSH20 0xFFFFFFFFFFFFFFFFFFFFFFFFFFFFFFFFFFFFFFFF AND PUSH20 0xFFFFFFFFFFFFFFFFFFFFFFFFFFFFFFFFFFFFFFFF AND DUP2 MSTORE PUSH1 0x20 ADD SWAP1 DUP2 MSTORE PUSH1 0x20 ADD PUSH0 KECCAK256 PUSH0 SWAP1 SLOAD SWAP1 PUSH2 0x100 EXP SWAP1 DIV PUSH1 0xFF AND SWAP1 POP SWAP3 SWAP2 POP POP JUMP JUMPDEST DUP2 PUSH1 0x4 PUSH0 DUP4 DUP2 MSTORE PUSH1 0x20 ADD SWAP1 DUP2 MSTORE PUSH1 0x20 ADD PUSH0 KECCAK256 PUSH0 PUSH2 0x100 EXP DUP2 SLOAD DUP2 PUSH20 0xFFFFFFFFFFFFFFFFFFFFFFFFFFFFFFFFFFFFFFFF MUL NOT AND SWAP1 DUP4 PUSH20 0xFFFFFFFFFFFFFFFFFFFFFFFFFFFFFFFFFFFFFFFF AND MUL OR SWAP1 SSTORE POP DUP1 DUP3 PUSH20 0xFFFFFFFFFFFFFFFFFFFFFFFFFFFFFFFFFFFFFFFF AND DUP5 PUSH20 0xFFFFFFFFFFFFFFFFFFFFFFFFFFFFFFFFFFFFFFFF AND PUSH32 0x8C5BE1E5EBEC7D5BD14F71427D1E84F3DD0314C0F7B2291E5B200AC8C7C3B925 PUSH1 0x40 MLOAD PUSH1 0x40 MLOAD DUP1 SWAP2 SUB SWAP1 LOG4 POP POP POP JUMP JUMPDEST PUSH0 DUP4 PUSH20 0xFFFFFFFFFFFFFFFFFFFFFFFFFFFFFFFFFFFFFFFF AND DUP4 PUSH20 0xFFFFFFFFFFFFFFFFFFFFFFFFFFFFFFFFFFFFFFFF AND EQ DUP1 PUSH2 0x10C9 JUMPI POP DUP3 PUSH20 0xFFFFFFFFFFFFFFFFFFFFFFFFFFFFFFFFFFFFFFFF AND PUSH1 0x4 PUSH0 DUP5 DUP2 MSTORE PUSH1 0x20 ADD SWAP1 DUP2 MSTORE PUSH1 0x20 ADD PUSH0 KECCAK256 PUSH0 SWAP1 SLOAD SWAP1 PUSH2 0x100 EXP SWAP1 DIV PUSH20 0xFFFFFFFFFFFFFFFFFFFFFFFFFFFFFFFFFFFFFFFF AND PUSH20 0xFFFFFFFFFFFFFFFFFFFFFFFFFFFFFFFFFFFFFFFF AND EQ JUMPDEST DUP1 PUSH2 0x1155 JUMPI POP PUSH1 0x5 PUSH0 DUP6 PUSH20 0xFFFFFFFFFFFFFFFFFFFFFFFFFFFFFFFFFFFFFFFF AND PUSH20 0xFFFFFFFFFFFFFFFFFFFFFFFFFFFFFFFFFFFFFFFF AND DUP2 MSTORE PUSH1 0x20 ADD SWAP1 DUP2 MSTORE PUSH1 0x20 ADD PUSH0 KECCAK256 PUSH0 DUP5 PUSH20 0xFFFFFFFFFFFFFFFFFFFFFFFFFFFFFFFFFFFFFFFF AND PUSH20 0xFFFFFFFFFFFFFFFFFFFFFFFFFFFFFFFFFFFFFFFF AND DUP2 MSTORE PUSH1 0x20 ADD SWAP1 DUP2 MSTORE PUSH1 0x20 ADD PUSH0 KECCAK256 PUSH0 SWAP1 SLOAD SWAP1 PUSH2 0x100 EXP SWAP1 DIV PUSH1 0xFF AND JUMPDEST SWAP1 POP SWAP4 SWAP3 POP POP POP JUMP JUMPDEST DUP4 PUSH20 0xFFFFFFFFFFFFFFFFFFFFFFFFFFFFFFFFFFFFFFFF AND DUP4 PUSH20 0xFFFFFFFFFFFFFFFFFFFFFFFFFFFFFFFFFFFFFFFF AND EQ PUSH2 0x11CC JUMPI PUSH1 0x40 MLOAD PUSH32 0x8C379A000000000000000000000000000000000000000000000000000000000 DUP2 MSTORE PUSH1 0x4 ADD PUSH2 0x11C3 SWAP1 PUSH2 0x26C8 JUMP JUMPDEST PUSH1 0x40 MLOAD DUP1 SWAP2 SUB SWAP1 REVERT JUMPDEST PUSH0 PUSH20 0xFFFFFFFFFFFFFFFFFFFFFFFFFFFFFFFFFFFFFFFF AND DUP3 PUSH20 0xFFFFFFFFFFFFFFFFFFFFFFFFFFFFFFFFFFFFFFFF AND SUB PUSH2 0x123A JUMPI PUSH1 0x40 MLOAD PUSH32 0x8C379A000000000000000000000000000000000000000000000000000000000 DUP2 MSTORE PUSH1 0x4 ADD PUSH2 0x1231 SWAP1 PUSH2 0x2730 JUMP JUMPDEST PUSH1 0x40 MLOAD DUP1 SWAP2 SUB SWAP1 REVERT JUMPDEST PUSH2 0x1245 DUP5 PUSH0 DUP4 PUSH2 0xF84 JUMP JUMPDEST PUSH1 0x1 PUSH1 0x3 PUSH0 DUP6 PUSH20 0xFFFFFFFFFFFFFFFFFFFFFFFFFFFFFFFFFFFFFFFF AND PUSH20 0xFFFFFFFFFFFFFFFFFFFFFFFFFFFFFFFFFFFFFFFF AND DUP2 MSTORE PUSH1 0x20 ADD SWAP1 DUP2 MSTORE PUSH1 0x20 ADD PUSH0 KECCAK256 PUSH0 DUP3 DUP3 SLOAD PUSH2 0x1292 SWAP2 SWAP1 PUSH2 0x274E JUMP JUMPDEST SWAP3 POP POP DUP2 SWAP1 SSTORE POP PUSH1 0x1 PUSH1 0x3 PUSH0 DUP5 PUSH20 0xFFFFFFFFFFFFFFFFFFFFFFFFFFFFFFFFFFFFFFFF AND PUSH20 0xFFFFFFFFFFFFFFFFFFFFFFFFFFFFFFFFFFFFFFFF AND DUP2 MSTORE PUSH1 0x20 ADD SWAP1 DUP2 MSTORE PUSH1 0x20 ADD PUSH0 KECCAK256 PUSH0 DUP3 DUP3 SLOAD PUSH2 0x12E6 SWAP2 SWAP1 PUSH2 0x2781 JUMP JUMPDEST SWAP3 POP POP DUP2 SWAP1 SSTORE POP DUP2 PUSH1 0x2 PUSH0 DUP4 DUP2 MSTORE PUSH1 0x20 ADD SWAP1 DUP2 MSTORE PUSH1 0x20 ADD PUSH0 KECCAK256 PUSH0 PUSH2 0x100 EXP DUP2 SLOAD DUP2 PUSH20 0xFFFFFFFFFFFFFFFFFFFFFFFFFFFFFFFFFFFFFFFF MUL NOT AND SWAP1 DUP4 PUSH20 0xFFFFFFFFFFFFFFFFFFFFFFFFFFFFFFFFFFFFFFFF AND MUL OR SWAP1 SSTORE POP DUP1 DUP3 PUSH20 0xFFFFFFFFFFFFFFFFFFFFFFFFFFFFFFFFFFFFFFFF AND DUP5 PUSH20 0xFFFFFFFFFFFFFFFFFFFFFFFFFFFFFFFFFFFFFFFF AND PUSH32 0xDDF252AD1BE2C89B69C2B068FC378DAA952BA7F163C4A11628F55A4DF523B3EF PUSH1 0x40 MLOAD PUSH1 0x40 MLOAD DUP1 SWAP2 SUB SWAP1 LOG4 POP POP POP POP JUMP JUMPDEST PUSH2 0x13A9 DUP6 DUP6 DUP6 DUP6 PUSH2 0x115E JUMP JUMPDEST PUSH2 0x13B5 DUP5 DUP5 DUP5 DUP5 PUSH2 0x1762 JUMP JUMPDEST PUSH2 0x13F4 JUMPI PUSH1 0x40 MLOAD PUSH32 0x8C379A000000000000000000000000000000000000000000000000000000000 DUP2 MSTORE PUSH1 0x4 ADD PUSH2 0x13EB SWAP1 PUSH2 0x27FE JUMP JUMPDEST PUSH1 0x40 MLOAD DUP1 SWAP2 SUB SWAP1 REVERT JUMPDEST POP POP POP POP POP JUMP JUMPDEST PUSH1 0x60 PUSH0 DUP3 SUB PUSH2 0x1441 JUMPI PUSH1 0x40 MLOAD DUP1 PUSH1 0x40 ADD PUSH1 0x40 MSTORE DUP1 PUSH1 0x1 DUP2 MSTORE PUSH1 0x20 ADD PUSH32 0x3000000000000000000000000000000000000000000000000000000000000000 DUP2 MSTORE POP SWAP1 POP PUSH2 0x154F JUMP JUMPDEST PUSH0 DUP3 SWAP1 POP PUSH0 JUMPDEST PUSH0 DUP3 EQ PUSH2 0x1470 JUMPI DUP1 DUP1 PUSH2 0x1459 SWAP1 PUSH2 0x2637 JUMP JUMPDEST SWAP2 POP POP PUSH1 0xA DUP3 PUSH2 0x1469 SWAP2 SWAP1 PUSH2 0x2849 JUMP JUMPDEST SWAP2 POP PUSH2 0x1447 JUMP JUMPDEST PUSH0 DUP2 PUSH8 0xFFFFFFFFFFFFFFFF DUP2 GT ISZERO PUSH2 0x148B JUMPI PUSH2 0x148A PUSH2 0x1B06 JUMP JUMPDEST JUMPDEST PUSH1 0x40 MLOAD SWAP1 DUP1 DUP3 MSTORE DUP1 PUSH1 0x1F ADD PUSH1 0x1F NOT AND PUSH1 0x20 ADD DUP3 ADD PUSH1 0x40 MSTORE DUP1 ISZERO PUSH2 0x14BD JUMPI DUP2 PUSH1 0x20 ADD PUSH1 0x1 DUP3 MUL DUP1 CALLDATASIZE DUP4 CALLDATACOPY DUP1 DUP3 ADD SWAP2 POP POP SWAP1 POP JUMPDEST POP SWAP1 POP JUMPDEST PUSH0 DUP6 EQ PUSH2 0x1548 JUMPI PUSH1 0x1 DUP3 PUSH2 0x14D5 SWAP2 SWAP1 PUSH2 0x274E JUMP JUMPDEST SWAP2 POP PUSH1 0xA DUP6 PUSH2 0x14E4 SWAP2 SWAP1 PUSH2 0x2879 JUMP JUMPDEST PUSH1 0x30 PUSH2 0x14F0 SWAP2 SWAP1 PUSH2 0x2781 JUMP JUMPDEST PUSH1 0xF8 SHL DUP2 DUP4 DUP2 MLOAD DUP2 LT PUSH2 0x1506 JUMPI PUSH2 0x1505 PUSH2 0x28A9 JUMP JUMPDEST JUMPDEST PUSH1 0x20 ADD ADD SWAP1 PUSH31 0xFFFFFFFFFFFFFFFFFFFFFFFFFFFFFFFFFFFFFFFFFFFFFFFFFFFFFFFFFFFFFF NOT AND SWAP1 DUP2 PUSH0 BYTE SWAP1 MSTORE8 POP PUSH1 0xA DUP6 PUSH2 0x1541 SWAP2 SWAP1 PUSH2 0x2849 JUMP JUMPDEST SWAP5 POP PUSH2 0x14C1 JUMP JUMPDEST DUP1 SWAP4 POP POP POP POP JUMPDEST SWAP2 SWAP1 POP JUMP JUMPDEST PUSH0 PUSH20 0xFFFFFFFFFFFFFFFFFFFFFFFFFFFFFFFFFFFFFFFF AND DUP3 PUSH20 0xFFFFFFFFFFFFFFFFFFFFFFFFFFFFFFFFFFFFFFFF AND SUB PUSH2 0x15C2 JUMPI PUSH1 0x40 MLOAD PUSH32 0x8C379A000000000000000000000000000000000000000000000000000000000 DUP2 MSTORE PUSH1 0x4 ADD PUSH2 0x15B9 SWAP1 PUSH2 0x2920 JUMP JUMPDEST PUSH1 0x40 MLOAD DUP1 SWAP2 SUB SWAP1 REVERT JUMPDEST PUSH0 PUSH20 0xFFFFFFFFFFFFFFFFFFFFFFFFFFFFFFFFFFFFFFFF AND PUSH1 0x2 PUSH0 DUP4 DUP2 MSTORE PUSH1 0x20 ADD SWAP1 DUP2 MSTORE PUSH1 0x20 ADD PUSH0 KECCAK256 PUSH0 SWAP1 SLOAD SWAP1 PUSH2 0x100 EXP SWAP1 DIV PUSH20 0xFFFFFFFFFFFFFFFFFFFFFFFFFFFFFFFFFFFFFFFF AND PUSH20 0xFFFFFFFFFFFFFFFFFFFFFFFFFFFFFFFFFFFFFFFF AND EQ PUSH2 0x1660 JUMPI PUSH1 0x40 MLOAD PUSH32 0x8C379A000000000000000000000000000000000000000000000000000000000 DUP2 MSTORE PUSH1 0x4 ADD PUSH2 0x1657 SWAP1 PUSH2 0x2988 JUMP JUMPDEST PUSH1 0x40 MLOAD DUP1 SWAP2 SUB SWAP1 REVERT JUMPDEST PUSH1 0x1 PUSH1 0x3 PUSH0 DUP5 PUSH20 0xFFFFFFFFFFFFFFFFFFFFFFFFFFFFFFFFFFFFFFFF AND PUSH20 0xFFFFFFFFFFFFFFFFFFFFFFFFFFFFFFFFFFFFFFFF AND DUP2 MSTORE PUSH1 0x20 ADD SWAP1 DUP2 MSTORE PUSH1 0x20 ADD PUSH0 KECCAK256 PUSH0 DUP3 DUP3 SLOAD PUSH2 0x16AD SWAP2 SWAP1 PUSH2 0x2781 JUMP JUMPDEST SWAP3 POP POP DUP2 SWAP1 SSTORE POP DUP2 PUSH1 0x2 PUSH0 DUP4 DUP2 MSTORE PUSH1 0x20 ADD SWAP1 DUP2 MSTORE PUSH1 0x20 ADD PUSH0 KECCAK256 PUSH0 PUSH2 0x100 EXP DUP2 SLOAD DUP2 PUSH20 0xFFFFFFFFFFFFFFFFFFFFFFFFFFFFFFFFFFFFFFFF MUL NOT AND SWAP1 DUP4 PUSH20 0xFFFFFFFFFFFFFFFFFFFFFFFFFFFFFFFFFFFFFFFF AND MUL OR SWAP1 SSTORE POP DUP1 DUP3 PUSH20 0xFFFFFFFFFFFFFFFFFFFFFFFFFFFFFFFFFFFFFFFF AND PUSH0 PUSH20 0xFFFFFFFFFFFFFFFFFFFFFFFFFFFFFFFFFFFFFFFF AND PUSH32 0xDDF252AD1BE2C89B69C2B068FC378DAA952BA7F163C4A11628F55A4DF523B3EF PUSH1 0x40 MLOAD PUSH1 0x40 MLOAD DUP1 SWAP2 SUB SWAP1 LOG4 POP POP JUMP JUMPDEST PUSH0 PUSH2 0x1782 DUP5 PUSH20 0xFFFFFFFFFFFFFFFFFFFFFFFFFFFFFFFFFFFFFFFF AND PUSH2 0x1861 JUMP JUMPDEST ISZERO PUSH2 0x1854 JUMPI PUSH4 0x150B7A02 PUSH1 0xE0 SHL PUSH28 0xFFFFFFFFFFFFFFFFFFFFFFFFFFFFFFFFFFFFFFFFFFFFFFFFFFFFFFFF NOT AND DUP5 PUSH20 0xFFFFFFFFFFFFFFFFFFFFFFFFFFFFFFFFFFFFFFFF AND PUSH4 0x150B7A02 CALLER DUP9 DUP8 DUP8 PUSH1 0x40 MLOAD DUP6 PUSH4 0xFFFFFFFF AND PUSH1 0xE0 SHL DUP2 MSTORE PUSH1 0x4 ADD PUSH2 0x17ED SWAP5 SWAP4 SWAP3 SWAP2 SWAP1 PUSH2 0x29F8 JUMP JUMPDEST PUSH1 0x20 PUSH1 0x40 MLOAD DUP1 DUP4 SUB DUP2 PUSH0 DUP8 GAS CALL ISZERO DUP1 ISZERO PUSH2 0x1809 JUMPI RETURNDATASIZE PUSH0 DUP1 RETURNDATACOPY RETURNDATASIZE PUSH0 REVERT JUMPDEST POP POP POP POP PUSH1 0x40 MLOAD RETURNDATASIZE PUSH1 0x1F NOT PUSH1 0x1F DUP3 ADD AND DUP3 ADD DUP1 PUSH1 0x40 MSTORE POP DUP2 ADD SWAP1 PUSH2 0x182D SWAP2 SWAP1 PUSH2 0x2A56 JUMP JUMPDEST PUSH28 0xFFFFFFFFFFFFFFFFFFFFFFFFFFFFFFFFFFFFFFFFFFFFFFFFFFFFFFFF NOT AND EQ SWAP1 POP PUSH2 0x1859 JUMP JUMPDEST PUSH1 0x1 SWAP1 POP JUMPDEST SWAP5 SWAP4 POP POP POP POP JUMP JUMPDEST PUSH0 DUP1 DUP3 EXTCODESIZE SWAP1 POP PUSH0 DUP2 GT SWAP2 POP POP SWAP2 SWAP1 POP JUMP JUMPDEST PUSH0 PUSH1 0x40 MLOAD SWAP1 POP SWAP1 JUMP JUMPDEST PUSH0 DUP1 REVERT JUMPDEST PUSH0 DUP1 REVERT JUMPDEST PUSH0 PUSH32 0xFFFFFFFF00000000000000000000000000000000000000000000000000000000 DUP3 AND SWAP1 POP SWAP2 SWAP1 POP JUMP JUMPDEST PUSH2 0x18B7 DUP2 PUSH2 0x1883 JUMP JUMPDEST DUP2 EQ PUSH2 0x18C1 JUMPI PUSH0 DUP1 REVERT JUMPDEST POP JUMP JUMPDEST PUSH0 DUP2 CALLDATALOAD SWAP1 POP PUSH2 0x18D2 DUP2 PUSH2 0x18AE JUMP JUMPDEST SWAP3 SWAP2 POP POP JUMP JUMPDEST PUSH0 PUSH1 0x20 DUP3 DUP5 SUB SLT ISZERO PUSH2 0x18ED JUMPI PUSH2 0x18EC PUSH2 0x187B JUMP JUMPDEST JUMPDEST PUSH0 PUSH2 0x18FA DUP5 DUP3 DUP6 ADD PUSH2 0x18C4 JUMP JUMPDEST SWAP2 POP POP SWAP3 SWAP2 POP POP JUMP JUMPDEST PUSH0 DUP2 ISZERO ISZERO SWAP1 POP SWAP2 SWAP1 POP JUMP JUMPDEST PUSH2 0x1917 DUP2 PUSH2 0x1903 JUMP JUMPDEST DUP3 MSTORE POP POP JUMP JUMPDEST PUSH0 PUSH1 0x20 DUP3 ADD SWAP1 POP PUSH2 0x1930 PUSH0 DUP4 ADD DUP5 PUSH2 0x190E JUMP JUMPDEST SWAP3 SWAP2 POP POP JUMP JUMPDEST PUSH0 DUP2 MLOAD SWAP1 POP SWAP2 SWAP1 POP JUMP JUMPDEST PUSH0 DUP3 DUP3 MSTORE PUSH1 0x20 DUP3 ADD SWAP1 POP SWAP3 SWAP2 POP POP JUMP JUMPDEST PUSH0 JUMPDEST DUP4 DUP2 LT ISZERO PUSH2 0x196D JUMPI DUP1 DUP3 ADD MLOAD DUP2 DUP5 ADD MSTORE PUSH1 0x20 DUP2 ADD SWAP1 POP PUSH2 0x1952 JUMP JUMPDEST PUSH0 DUP5 DUP5 ADD MSTORE POP POP POP POP JUMP JUMPDEST PUSH0 PUSH1 0x1F NOT PUSH1 0x1F DUP4 ADD AND SWAP1 POP SWAP2 SWAP1 POP JUMP JUMPDEST PUSH0 PUSH2 0x1992 DUP3 PUSH2 0x1936 JUMP JUMPDEST PUSH2 0x199C DUP2 DUP6 PUSH2 0x1940 JUMP JUMPDEST SWAP4 POP PUSH2 0x19AC DUP2 DUP6 PUSH1 0x20 DUP7 ADD PUSH2 0x1950 JUMP JUMPDEST PUSH2 0x19B5 DUP2 PUSH2 0x1978 JUMP JUMPDEST DUP5 ADD SWAP2 POP POP SWAP3 SWAP2 POP POP JUMP JUMPDEST PUSH0 PUSH1 0x20 DUP3 ADD SWAP1 POP DUP2 DUP2 SUB PUSH0 DUP4 ADD MSTORE PUSH2 0x19D8 DUP2 DUP5 PUSH2 0x1988 JUMP JUMPDEST SWAP1 POP SWAP3 SWAP2 POP POP JUMP JUMPDEST PUSH0 DUP2 SWAP1 POP SWAP2 SWAP1 POP JUMP JUMPDEST PUSH2 0x19F2 DUP2 PUSH2 0x19E0 JUMP JUMPDEST DUP2 EQ PUSH2 0x19FC JUMPI PUSH0 DUP1 REVERT JUMPDEST POP JUMP JUMPDEST PUSH0 DUP2 CALLDATALOAD SWAP1 POP PUSH2 0x1A0D DUP2 PUSH2 0x19E9 JUMP JUMPDEST SWAP3 SWAP2 POP POP JUMP JUMPDEST PUSH0 PUSH1 0x20 DUP3 DUP5 SUB SLT ISZERO PUSH2 0x1A28 JUMPI PUSH2 0x1A27 PUSH2 0x187B JUMP JUMPDEST JUMPDEST PUSH0 PUSH2 0x1A35 DUP5 DUP3 DUP6 ADD PUSH2 0x19FF JUMP JUMPDEST SWAP2 POP POP SWAP3 SWAP2 POP POP JUMP JUMPDEST PUSH0 PUSH20 0xFFFFFFFFFFFFFFFFFFFFFFFFFFFFFFFFFFFFFFFF DUP3 AND SWAP1 POP SWAP2 SWAP1 POP JUMP JUMPDEST PUSH0 PUSH2 0x1A67 DUP3 PUSH2 0x1A3E JUMP JUMPDEST SWAP1 POP SWAP2 SWAP1 POP JUMP JUMPDEST PUSH2 0x1A77 DUP2 PUSH2 0x1A5D JUMP JUMPDEST DUP3 MSTORE POP POP JUMP JUMPDEST PUSH0 PUSH1 0x20 DUP3 ADD SWAP1 POP PUSH2 0x1A90 PUSH0 DUP4 ADD DUP5 PUSH2 0x1A6E JUMP JUMPDEST SWAP3 SWAP2 POP POP JUMP JUMPDEST PUSH2 0x1A9F DUP2 PUSH2 0x1A5D JUMP JUMPDEST DUP2 EQ PUSH2 0x1AA9 JUMPI PUSH0 DUP1 REVERT JUMPDEST POP JUMP JUMPDEST PUSH0 DUP2 CALLDATALOAD SWAP1 POP PUSH2 0x1ABA DUP2 PUSH2 0x1A96 JUMP JUMPDEST SWAP3 SWAP2 POP POP JUMP JUMPDEST PUSH0 DUP1 PUSH1 0x40 DUP4 DUP6 SUB SLT ISZERO PUSH2 0x1AD6 JUMPI PUSH2 0x1AD5 PUSH2 0x187B JUMP JUMPDEST JUMPDEST PUSH0 PUSH2 0x1AE3 DUP6 DUP3 DUP7 ADD PUSH2 0x1AAC JUMP JUMPDEST SWAP3 POP POP PUSH1 0x20 PUSH2 0x1AF4 DUP6 DUP3 DUP7 ADD PUSH2 0x19FF JUMP JUMPDEST SWAP2 POP POP SWAP3 POP SWAP3 SWAP1 POP JUMP JUMPDEST PUSH0 DUP1 REVERT JUMPDEST PUSH0 DUP1 REVERT JUMPDEST PUSH32 0x4E487B7100000000000000000000000000000000000000000000000000000000 PUSH0 MSTORE PUSH1 0x41 PUSH1 0x4 MSTORE PUSH1 0x24 PUSH0 REVERT JUMPDEST PUSH2 0x1B3C DUP3 PUSH2 0x1978 JUMP JUMPDEST DUP2 ADD DUP2 DUP2 LT PUSH8 0xFFFFFFFFFFFFFFFF DUP3 GT OR ISZERO PUSH2 0x1B5B JUMPI PUSH2 0x1B5A PUSH2 0x1B06 JUMP JUMPDEST JUMPDEST DUP1 PUSH1 0x40 MSTORE POP POP POP JUMP JUMPDEST PUSH0 PUSH2 0x1B6D PUSH2 0x1872 JUMP JUMPDEST SWAP1 POP PUSH2 0x1B79 DUP3 DUP3 PUSH2 0x1B33 JUMP JUMPDEST SWAP2 SWAP1 POP JUMP JUMPDEST PUSH0 PUSH8 0xFFFFFFFFFFFFFFFF DUP3 GT ISZERO PUSH2 0x1B98 JUMPI PUSH2 0x1B97 PUSH2 0x1B06 JUMP JUMPDEST JUMPDEST PUSH2 0x1BA1 DUP3 PUSH2 0x1978 JUMP JUMPDEST SWAP1 POP PUSH1 0x20 DUP2 ADD SWAP1 POP SWAP2 SWAP1 POP JUMP JUMPDEST DUP3 DUP2 DUP4 CALLDATACOPY PUSH0 DUP4 DUP4 ADD MSTORE POP POP POP JUMP JUMPDEST PUSH0 PUSH2 0x1BCE PUSH2 0x1BC9 DUP5 PUSH2 0x1B7E JUMP JUMPDEST PUSH2 0x1B64 JUMP JUMPDEST SWAP1 POP DUP3 DUP2 MSTORE PUSH1 0x20 DUP2 ADD DUP5 DUP5 DUP5 ADD GT ISZERO PUSH2 0x1BEA JUMPI PUSH2 0x1BE9 PUSH2 0x1B02 JUMP JUMPDEST JUMPDEST PUSH2 0x1BF5 DUP5 DUP3 DUP6 PUSH2 0x1BAE JUMP JUMPDEST POP SWAP4 SWAP3 POP POP POP JUMP JUMPDEST PUSH0 DUP3 PUSH1 0x1F DUP4 ADD SLT PUSH2 0x1C11 JUMPI PUSH2 0x1C10 PUSH2 0x1AFE JUMP JUMPDEST JUMPDEST DUP2 CALLDATALOAD PUSH2 0x1C21 DUP5 DUP3 PUSH1 0x20 DUP7 ADD PUSH2 0x1BBC JUMP JUMPDEST SWAP2 POP POP SWAP3 SWAP2 POP POP JUMP JUMPDEST PUSH0 DUP1 PUSH1 0x40 DUP4 DUP6 SUB SLT ISZERO PUSH2 0x1C40 JUMPI PUSH2 0x1C3F PUSH2 0x187B JUMP JUMPDEST JUMPDEST PUSH0 PUSH2 0x1C4D DUP6 DUP3 DUP7 ADD PUSH2 0x19FF JUMP JUMPDEST SWAP3 POP POP PUSH1 0x20 DUP4 ADD CALLDATALOAD PUSH8 0xFFFFFFFFFFFFFFFF DUP2 GT ISZERO PUSH2 0x1C6E JUMPI PUSH2 0x1C6D PUSH2 0x187F JUMP JUMPDEST JUMPDEST PUSH2 0x1C7A DUP6 DUP3 DUP7 ADD PUSH2 0x1BFD JUMP JUMPDEST SWAP2 POP POP SWAP3 POP SWAP3 SWAP1 POP JUMP JUMPDEST PUSH0 DUP1 PUSH0 PUSH1 0x60 DUP5 DUP7 SUB SLT ISZERO PUSH2 0x1C9B JUMPI PUSH2 0x1C9A PUSH2 0x187B JUMP JUMPDEST JUMPDEST PUSH0 PUSH2 0x1CA8 DUP7 DUP3 DUP8 ADD PUSH2 0x1AAC JUMP JUMPDEST SWAP4 POP POP PUSH1 0x20 PUSH2 0x1CB9 DUP7 DUP3 DUP8 ADD PUSH2 0x1AAC JUMP JUMPDEST SWAP3 POP POP PUSH1 0x40 PUSH2 0x1CCA DUP7 DUP3 DUP8 ADD PUSH2 0x19FF JUMP JUMPDEST SWAP2 POP POP SWAP3 POP SWAP3 POP SWAP3 JUMP JUMPDEST PUSH0 PUSH1 0x20 DUP3 DUP5 SUB SLT ISZERO PUSH2 0x1CE9 JUMPI PUSH2 0x1CE8 PUSH2 0x187B JUMP JUMPDEST JUMPDEST PUSH0 DUP3 ADD CALLDATALOAD PUSH8 0xFFFFFFFFFFFFFFFF DUP2 GT ISZERO PUSH2 0x1D06 JUMPI PUSH2 0x1D05 PUSH2 0x187F JUMP JUMPDEST JUMPDEST PUSH2 0x1D12 DUP5 DUP3 DUP6 ADD PUSH2 0x1BFD JUMP JUMPDEST SWAP2 POP POP SWAP3 SWAP2 POP POP JUMP JUMPDEST PUSH0 PUSH1 0x20 DUP3 DUP5 SUB SLT ISZERO PUSH2 0x1D30 JUMPI PUSH2 0x1D2F PUSH2 0x187B JUMP JUMPDEST JUMPDEST PUSH0 PUSH2 0x1D3D DUP5 DUP3 DUP6 ADD PUSH2 0x1AAC JUMP JUMPDEST SWAP2 POP POP SWAP3 SWAP2 POP POP JUMP JUMPDEST PUSH2 0x1D4F DUP2 PUSH2 0x19E0 JUMP JUMPDEST DUP3 MSTORE POP POP JUMP JUMPDEST PUSH0 PUSH1 0x20 DUP3 ADD SWAP1 POP PUSH2 0x1D68 PUSH0 DUP4 ADD DUP5 PUSH2 0x1D46 JUMP JUMPDEST SWAP3 SWAP2 POP POP JUMP JUMPDEST PUSH2 0x1D77 DUP2 PUSH2 0x1903 JUMP JUMPDEST DUP2 EQ PUSH2 0x1D81 JUMPI PUSH0 DUP1 REVERT JUMPDEST POP JUMP JUMPDEST PUSH0 DUP2 CALLDATALOAD SWAP1 POP PUSH2 0x1D92 DUP2 PUSH2 0x1D6E JUMP JUMPDEST SWAP3 SWAP2 POP POP JUMP JUMPDEST PUSH0 DUP1 PUSH1 0x40 DUP4 DUP6 SUB SLT ISZERO PUSH2 0x1DAE JUMPI PUSH2 0x1DAD PUSH2 0x187B JUMP JUMPDEST JUMPDEST PUSH0 PUSH2 0x1DBB DUP6 DUP3 DUP7 ADD PUSH2 0x1AAC JUMP JUMPDEST SWAP3 POP POP PUSH1 0x20 PUSH2 0x1DCC DUP6 DUP3 DUP7 ADD PUSH2 0x1D84 JUMP JUMPDEST SWAP2 POP POP SWAP3 POP SWAP3 SWAP1 POP JUMP JUMPDEST PUSH0 PUSH8 0xFFFFFFFFFFFFFFFF DUP3 GT ISZERO PUSH2 0x1DF0 JUMPI PUSH2 0x1DEF PUSH2 0x1B06 JUMP JUMPDEST JUMPDEST PUSH2 0x1DF9 DUP3 PUSH2 0x1978 JUMP JUMPDEST SWAP1 POP PUSH1 0x20 DUP2 ADD SWAP1 POP SWAP2 SWAP1 POP JUMP JUMPDEST PUSH0 PUSH2 0x1E18 PUSH2 0x1E13 DUP5 PUSH2 0x1DD6 JUMP JUMPDEST PUSH2 0x1B64 JUMP JUMPDEST SWAP1 POP DUP3 DUP2 MSTORE PUSH1 0x20 DUP2 ADD DUP5 DUP5 DUP5 ADD GT ISZERO PUSH2 0x1E34 JUMPI PUSH2 0x1E33 PUSH2 0x1B02 JUMP JUMPDEST JUMPDEST PUSH2 0x1E3F DUP5 DUP3 DUP6 PUSH2 0x1BAE JUMP JUMPDEST POP SWAP4 SWAP3 POP POP POP JUMP JUMPDEST PUSH0 DUP3 PUSH1 0x1F DUP4 ADD SLT PUSH2 0x1E5B JUMPI PUSH2 0x1E5A PUSH2 0x1AFE JUMP JUMPDEST JUMPDEST DUP2 CALLDATALOAD PUSH2 0x1E6B DUP5 DUP3 PUSH1 0x20 DUP7 ADD PUSH2 0x1E06 JUMP JUMPDEST SWAP2 POP POP SWAP3 SWAP2 POP POP JUMP JUMPDEST PUSH0 DUP1 PUSH0 DUP1 PUSH1 0x80 DUP6 DUP8 SUB SLT ISZERO PUSH2 0x1E8C JUMPI PUSH2 0x1E8B PUSH2 0x187B JUMP JUMPDEST JUMPDEST PUSH0 PUSH2 0x1E99 DUP8 DUP3 DUP9 ADD PUSH2 0x1AAC JUMP JUMPDEST SWAP5 POP POP PUSH1 0x20 PUSH2 0x1EAA DUP8 DUP3 DUP9 ADD PUSH2 0x1AAC JUMP JUMPDEST SWAP4 POP POP PUSH1 0x40 PUSH2 0x1EBB DUP8 DUP3 DUP9 ADD PUSH2 0x19FF JUMP JUMPDEST SWAP3 POP POP PUSH1 0x60 DUP6 ADD CALLDATALOAD PUSH8 0xFFFFFFFFFFFFFFFF DUP2 GT ISZERO PUSH2 0x1EDC JUMPI PUSH2 0x1EDB PUSH2 0x187F JUMP JUMPDEST JUMPDEST PUSH2 0x1EE8 DUP8 DUP3 DUP9 ADD PUSH2 0x1E47 JUMP JUMPDEST SWAP2 POP POP SWAP3 SWAP6 SWAP2 SWAP5 POP SWAP3 POP JUMP JUMPDEST PUSH0 DUP1 PUSH1 0x40 DUP4 DUP6 SUB SLT ISZERO PUSH2 0x1F0A JUMPI PUSH2 0x1F09 PUSH2 0x187B JUMP JUMPDEST JUMPDEST PUSH0 PUSH2 0x1F17 DUP6 DUP3 DUP7 ADD PUSH2 0x1AAC JUMP JUMPDEST SWAP3 POP POP PUSH1 0x20 DUP4 ADD CALLDATALOAD PUSH8 0xFFFFFFFFFFFFFFFF DUP2 GT ISZERO PUSH2 0x1F38 JUMPI PUSH2 0x1F37 PUSH2 0x187F JUMP JUMPDEST JUMPDEST PUSH2 0x1F44 DUP6 DUP3 DUP7 ADD PUSH2 0x1BFD JUMP JUMPDEST SWAP2 POP POP SWAP3 POP SWAP3 SWAP1 POP JUMP JUMPDEST PUSH0 DUP1 PUSH1 0x40 DUP4 DUP6 SUB SLT ISZERO PUSH2 0x1F64 JUMPI PUSH2 0x1F63 PUSH2 0x187B JUMP JUMPDEST JUMPDEST PUSH0 PUSH2 0x1F71 DUP6 DUP3 DUP7 ADD PUSH2 0x1AAC JUMP JUMPDEST SWAP3 POP POP PUSH1 0x20 PUSH2 0x1F82 DUP6 DUP3 DUP7 ADD PUSH2 0x1AAC JUMP JUMPDEST SWAP2 POP POP SWAP3 POP SWAP3 SWAP1 POP JUMP JUMPDEST PUSH32 0x4E487B7100000000000000000000000000000000000000000000000000000000 PUSH0 MSTORE PUSH1 0x22 PUSH1 0x4 MSTORE PUSH1 0x24 PUSH0 REVERT JUMPDEST PUSH0 PUSH1 0x2 DUP3 DIV SWAP1 POP PUSH1 0x1 DUP3 AND DUP1 PUSH2 0x1FD0 JUMPI PUSH1 0x7F DUP3 AND SWAP2 POP JUMPDEST PUSH1 0x20 DUP3 LT DUP2 SUB PUSH2 0x1FE3 JUMPI PUSH2 0x1FE2 PUSH2 0x1F8C JUMP JUMPDEST JUMPDEST POP SWAP2 SWAP1 POP JUMP JUMPDEST PUSH32 0x746F6B656E20646F65736E277420657869737400000000000000000000000000 PUSH0 DUP3 ADD MSTORE POP JUMP JUMPDEST PUSH0 PUSH2 0x201D PUSH1 0x13 DUP4 PUSH2 0x1940 JUMP JUMPDEST SWAP2 POP PUSH2 0x2028 DUP3 PUSH2 0x1FE9 JUMP JUMPDEST PUSH1 0x20 DUP3 ADD SWAP1 POP SWAP2 SWAP1 POP JUMP JUMPDEST PUSH0 PUSH1 0x20 DUP3 ADD SWAP1 POP DUP2 DUP2 SUB PUSH0 DUP4 ADD MSTORE PUSH2 0x204A DUP2 PUSH2 0x2011 JUMP JUMPDEST SWAP1 POP SWAP2 SWAP1 POP JUMP JUMPDEST PUSH32 0x6E6F74206F776E6572206E6F7220617070726F76656420666F7220616C6C0000 PUSH0 DUP3 ADD MSTORE POP JUMP JUMPDEST PUSH0 PUSH2 0x2085 PUSH1 0x1E DUP4 PUSH2 0x1940 JUMP JUMPDEST SWAP2 POP PUSH2 0x2090 DUP3 PUSH2 0x2051 JUMP JUMPDEST PUSH1 0x20 DUP3 ADD SWAP1 POP SWAP2 SWAP1 POP JUMP JUMPDEST PUSH0 PUSH1 0x20 DUP3 ADD SWAP1 POP DUP2 DUP2 SUB PUSH0 DUP4 ADD MSTORE PUSH2 0x20B2 DUP2 PUSH2 0x2079 JUMP JUMPDEST SWAP1 POP SWAP2 SWAP1 POP JUMP JUMPDEST PUSH32 0x546F6B656E20646F6573206E6F74206578697374000000000000000000000000 PUSH0 DUP3 ADD MSTORE POP JUMP JUMPDEST PUSH0 PUSH2 0x20ED PUSH1 0x14 DUP4 PUSH2 0x1940 JUMP JUMPDEST SWAP2 POP PUSH2 0x20F8 DUP3 PUSH2 0x20B9 JUMP JUMPDEST PUSH1 0x20 DUP3 ADD SWAP1 POP SWAP2 SWAP1 POP JUMP JUMPDEST PUSH0 PUSH1 0x20 DUP3 ADD SWAP1 POP DUP2 DUP2 SUB PUSH0 DUP4 ADD MSTORE PUSH2 0x211A DUP2 PUSH2 0x20E1 JUMP JUMPDEST SWAP1 POP SWAP2 SWAP1 POP JUMP JUMPDEST PUSH32 0x4E6F7420746F6B656E206F776E65720000000000000000000000000000000000 PUSH0 DUP3 ADD MSTORE POP JUMP JUMPDEST PUSH0 PUSH2 0x2155 PUSH1 0xF DUP4 PUSH2 0x1940 JUMP JUMPDEST SWAP2 POP PUSH2 0x2160 DUP3 PUSH2 0x2121 JUMP JUMPDEST PUSH1 0x20 DUP3 ADD SWAP1 POP SWAP2 SWAP1 POP JUMP JUMPDEST PUSH0 PUSH1 0x20 DUP3 ADD SWAP1 POP DUP2 DUP2 SUB PUSH0 DUP4 ADD MSTORE PUSH2 0x2182 DUP2 PUSH2 0x2149 JUMP JUMPDEST SWAP1 POP SWAP2 SWAP1 POP JUMP JUMPDEST PUSH0 DUP2 SWAP1 POP DUP2 PUSH0 MSTORE PUSH1 0x20 PUSH0 KECCAK256 SWAP1 POP SWAP2 SWAP1 POP JUMP JUMPDEST PUSH0 PUSH1 0x20 PUSH1 0x1F DUP4 ADD DIV SWAP1 POP SWAP2 SWAP1 POP JUMP JUMPDEST PUSH0 DUP3 DUP3 SHL SWAP1 POP SWAP3 SWAP2 POP POP JUMP JUMPDEST PUSH0 PUSH1 0x8 DUP4 MUL PUSH2 0x21E5 PUSH32 0xFFFFFFFFFFFFFFFFFFFFFFFFFFFFFFFFFFFFFFFFFFFFFFFFFFFFFFFFFFFFFFFF DUP3 PUSH2 0x21AA JUMP JUMPDEST PUSH2 0x21EF DUP7 DUP4 PUSH2 0x21AA JUMP JUMPDEST SWAP6 POP DUP1 NOT DUP5 AND SWAP4 POP DUP1 DUP7 AND DUP5 OR SWAP3 POP POP POP SWAP4 SWAP3 POP POP POP JUMP JUMPDEST PUSH0 DUP2 SWAP1 POP SWAP2 SWAP1 POP JUMP JUMPDEST PUSH0 PUSH2 0x222A PUSH2 0x2225 PUSH2 0x2220 DUP5 PUSH2 0x19E0 JUMP JUMPDEST PUSH2 0x2207 JUMP JUMPDEST PUSH2 0x19E0 JUMP JUMPDEST SWAP1 POP SWAP2 SWAP1 POP JUMP JUMPDEST PUSH0 DUP2 SWAP1 POP SWAP2 SWAP1 POP JUMP JUMPDEST PUSH2 0x2243 DUP4 PUSH2 0x2210 JUMP JUMPDEST PUSH2 0x2257 PUSH2 0x224F DUP3 PUSH2 0x2231 JUMP JUMPDEST DUP5 DUP5 SLOAD PUSH2 0x21B6 JUMP JUMPDEST DUP3 SSTORE POP POP POP POP JUMP JUMPDEST PUSH0 SWAP1 JUMP JUMPDEST PUSH2 0x226B PUSH2 0x225F JUMP JUMPDEST PUSH2 0x2276 DUP2 DUP5 DUP5 PUSH2 0x223A JUMP JUMPDEST POP POP POP JUMP JUMPDEST JUMPDEST DUP2 DUP2 LT ISZERO PUSH2 0x2299 JUMPI PUSH2 0x228E PUSH0 DUP3 PUSH2 0x2263 JUMP JUMPDEST PUSH1 0x1 DUP2 ADD SWAP1 POP PUSH2 0x227C JUMP JUMPDEST POP POP JUMP JUMPDEST PUSH1 0x1F DUP3 GT ISZERO PUSH2 0x22DE JUMPI PUSH2 0x22AF DUP2 PUSH2 0x2189 JUMP JUMPDEST PUSH2 0x22B8 DUP5 PUSH2 0x219B JUMP JUMPDEST DUP2 ADD PUSH1 0x20 DUP6 LT ISZERO PUSH2 0x22C7 JUMPI DUP2 SWAP1 POP JUMPDEST PUSH2 0x22DB PUSH2 0x22D3 DUP6 PUSH2 0x219B JUMP JUMPDEST DUP4 ADD DUP3 PUSH2 0x227B JUMP JUMPDEST POP POP JUMPDEST POP POP POP JUMP JUMPDEST PUSH0 DUP3 DUP3 SHR SWAP1 POP SWAP3 SWAP2 POP POP JUMP JUMPDEST PUSH0 PUSH2 0x22FE PUSH0 NOT DUP5 PUSH1 0x8 MUL PUSH2 0x22E3 JUMP JUMPDEST NOT DUP1 DUP4 AND SWAP2 POP POP SWAP3 SWAP2 POP POP JUMP JUMPDEST PUSH0 PUSH2 0x2316 DUP4 DUP4 PUSH2 0x22EF JUMP JUMPDEST SWAP2 POP DUP3 PUSH1 0x2 MUL DUP3 OR SWAP1 POP SWAP3 SWAP2 POP POP JUMP JUMPDEST PUSH2 0x232F DUP3 PUSH2 0x1936 JUMP JUMPDEST PUSH8 0xFFFFFFFFFFFFFFFF DUP2 GT ISZERO PUSH2 0x2348 JUMPI PUSH2 0x2347 PUSH2 0x1B06 JUMP JUMPDEST JUMPDEST PUSH2 0x2352 DUP3 SLOAD PUSH2 0x1FB9 JUMP JUMPDEST PUSH2 0x235D DUP3 DUP3 DUP6 PUSH2 0x229D JUMP JUMPDEST PUSH0 PUSH1 0x20 SWAP1 POP PUSH1 0x1F DUP4 GT PUSH1 0x1 DUP2 EQ PUSH2 0x238E JUMPI PUSH0 DUP5 ISZERO PUSH2 0x237C JUMPI DUP3 DUP8 ADD MLOAD SWAP1 POP JUMPDEST PUSH2 0x2386 DUP6 DUP3 PUSH2 0x230B JUMP JUMPDEST DUP7 SSTORE POP PUSH2 0x23ED JUMP JUMPDEST PUSH1 0x1F NOT DUP5 AND PUSH2 0x239C DUP7 PUSH2 0x2189 JUMP JUMPDEST PUSH0 JUMPDEST DUP3 DUP2 LT ISZERO PUSH2 0x23C3 JUMPI DUP5 DUP10 ADD MLOAD DUP3 SSTORE PUSH1 0x1 DUP3 ADD SWAP2 POP PUSH1 0x20 DUP6 ADD SWAP5 POP PUSH1 0x20 DUP2 ADD SWAP1 POP PUSH2 0x239E JUMP JUMPDEST DUP7 DUP4 LT ISZERO PUSH2 0x23E0 JUMPI DUP5 DUP10 ADD MLOAD PUSH2 0x23DC PUSH1 0x1F DUP10 AND DUP3 PUSH2 0x22EF JUMP JUMPDEST DUP4 SSTORE POP JUMPDEST PUSH1 0x1 PUSH1 0x2 DUP9 MUL ADD DUP9 SSTORE POP POP POP JUMPDEST POP POP POP POP POP POP JUMP JUMPDEST PUSH32 0x6E6F74206F776E6572206E6F7220617070726F76656400000000000000000000 PUSH0 DUP3 ADD MSTORE POP JUMP JUMPDEST PUSH0 PUSH2 0x2429 PUSH1 0x16 DUP4 PUSH2 0x1940 JUMP JUMPDEST SWAP2 POP PUSH2 0x2434 DUP3 PUSH2 0x23F5 JUMP JUMPDEST PUSH1 0x20 DUP3 ADD SWAP1 POP SWAP2 SWAP1 POP JUMP JUMPDEST PUSH0 PUSH1 0x20 DUP3 ADD SWAP1 POP DUP2 DUP2 SUB PUSH0 DUP4 ADD MSTORE PUSH2 0x2456 DUP2 PUSH2 0x241D JUMP JUMPDEST SWAP1 POP SWAP2 SWAP1 POP JUMP JUMPDEST PUSH32 0x6F776E6572203D207A65726F2061646472657373000000000000000000000000 PUSH0 DUP3 ADD MSTORE POP JUMP JUMPDEST PUSH0 PUSH2 0x2491 PUSH1 0x14 DUP4 PUSH2 0x1940 JUMP JUMPDEST SWAP2 POP PUSH2 0x249C DUP3 PUSH2 0x245D JUMP JUMPDEST PUSH1 0x20 DUP3 ADD SWAP1 POP SWAP2 SWAP1 POP JUMP JUMPDEST PUSH0 PUSH1 0x20 DUP3 ADD SWAP1 POP DUP2 DUP2 SUB PUSH0 DUP4 ADD MSTORE PUSH2 0x24BE DUP2 PUSH2 0x2485 JUMP JUMPDEST SWAP1 POP SWAP2 SWAP1 POP JUMP JUMPDEST PUSH32 0x546F6B656E204E6F742045786973740000000000000000000000000000000000 PUSH0 DUP3 ADD MSTORE POP JUMP JUMPDEST PUSH0 PUSH2 0x24F9 PUSH1 0xF DUP4 PUSH2 0x1940 JUMP JUMPDEST SWAP2 POP PUSH2 0x2504 DUP3 PUSH2 0x24C5 JUMP JUMPDEST PUSH1 0x20 DUP3 ADD SWAP1 POP SWAP2 SWAP1 POP JUMP JUMPDEST PUSH0 PUSH1 0x20 DUP3 ADD SWAP1 POP DUP2 DUP2 SUB PUSH0 DUP4 ADD MSTORE PUSH2 0x2526 DUP2 PUSH2 0x24ED JUMP JUMPDEST SWAP1 POP SWAP2 SWAP1 POP JUMP JUMPDEST PUSH0 DUP2 SWAP1 POP SWAP3 SWAP2 POP POP JUMP JUMPDEST PUSH0 DUP2 SLOAD PUSH2 0x2543 DUP2 PUSH2 0x1FB9 JUMP JUMPDEST PUSH2 0x254D DUP2 DUP7 PUSH2 0x252D JUMP JUMPDEST SWAP5 POP PUSH1 0x1 DUP3 AND PUSH0 DUP2 EQ PUSH2 0x2567 JUMPI PUSH1 0x1 DUP2 EQ PUSH2 0x257C JUMPI PUSH2 0x25AE JUMP JUMPDEST PUSH1 0xFF NOT DUP4 AND DUP7 MSTORE DUP2 ISZERO ISZERO DUP3 MUL DUP7 ADD SWAP4 POP PUSH2 0x25AE JUMP JUMPDEST PUSH2 0x2585 DUP6 PUSH2 0x2189 JUMP JUMPDEST PUSH0 JUMPDEST DUP4 DUP2 LT ISZERO PUSH2 0x25A6 JUMPI DUP2 SLOAD DUP2 DUP10 ADD MSTORE PUSH1 0x1 DUP3 ADD SWAP2 POP PUSH1 0x20 DUP2 ADD SWAP1 POP PUSH2 0x2587 JUMP JUMPDEST DUP4 DUP9 ADD SWAP6 POP POP POP JUMPDEST POP POP POP SWAP3 SWAP2 POP POP JUMP JUMPDEST PUSH0 PUSH2 0x25C1 DUP3 PUSH2 0x1936 JUMP JUMPDEST PUSH2 0x25CB DUP2 DUP6 PUSH2 0x252D JUMP JUMPDEST SWAP4 POP PUSH2 0x25DB DUP2 DUP6 PUSH1 0x20 DUP7 ADD PUSH2 0x1950 JUMP JUMPDEST DUP1 DUP5 ADD SWAP2 POP POP SWAP3 SWAP2 POP POP JUMP JUMPDEST PUSH0 PUSH2 0x25F2 DUP3 DUP6 PUSH2 0x2537 JUMP JUMPDEST SWAP2 POP PUSH2 0x25FE DUP3 DUP5 PUSH2 0x25B7 JUMP JUMPDEST SWAP2 POP DUP2 SWAP1 POP SWAP4 SWAP3 POP POP POP JUMP JUMPDEST PUSH32 0x4E487B7100000000000000000000000000000000000000000000000000000000 PUSH0 MSTORE PUSH1 0x11 PUSH1 0x4 MSTORE PUSH1 0x24 PUSH0 REVERT JUMPDEST PUSH0 PUSH2 0x2641 DUP3 PUSH2 0x19E0 JUMP JUMPDEST SWAP2 POP PUSH32 0xFFFFFFFFFFFFFFFFFFFFFFFFFFFFFFFFFFFFFFFFFFFFFFFFFFFFFFFFFFFFFFFF DUP3 SUB PUSH2 0x2673 JUMPI PUSH2 0x2672 PUSH2 0x260A JUMP JUMPDEST JUMPDEST PUSH1 0x1 DUP3 ADD SWAP1 POP SWAP2 SWAP1 POP JUMP JUMPDEST PUSH32 0x6E6F74206F776E65720000000000000000000000000000000000000000000000 PUSH0 DUP3 ADD MSTORE POP JUMP JUMPDEST PUSH0 PUSH2 0x26B2 PUSH1 0x9 DUP4 PUSH2 0x1940 JUMP JUMPDEST SWAP2 POP PUSH2 0x26BD DUP3 PUSH2 0x267E JUMP JUMPDEST PUSH1 0x20 DUP3 ADD SWAP1 POP SWAP2 SWAP1 POP JUMP JUMPDEST PUSH0 PUSH1 0x20 DUP3 ADD SWAP1 POP DUP2 DUP2 SUB PUSH0 DUP4 ADD MSTORE PUSH2 0x26DF DUP2 PUSH2 0x26A6 JUMP JUMPDEST SWAP1 POP SWAP2 SWAP1 POP JUMP JUMPDEST PUSH32 0x7472616E7366657220746F20746865207A65726F206164647265737300000000 PUSH0 DUP3 ADD MSTORE POP JUMP JUMPDEST PUSH0 PUSH2 0x271A PUSH1 0x1C DUP4 PUSH2 0x1940 JUMP JUMPDEST SWAP2 POP PUSH2 0x2725 DUP3 PUSH2 0x26E6 JUMP JUMPDEST PUSH1 0x20 DUP3 ADD SWAP1 POP SWAP2 SWAP1 POP JUMP JUMPDEST PUSH0 PUSH1 0x20 DUP3 ADD SWAP1 POP DUP2 DUP2 SUB PUSH0 DUP4 ADD MSTORE PUSH2 0x2747 DUP2 PUSH2 0x270E JUMP JUMPDEST SWAP1 POP SWAP2 SWAP1 POP JUMP JUMPDEST PUSH0 PUSH2 0x2758 DUP3 PUSH2 0x19E0 JUMP JUMPDEST SWAP2 POP PUSH2 0x2763 DUP4 PUSH2 0x19E0 JUMP JUMPDEST SWAP3 POP DUP3 DUP3 SUB SWAP1 POP DUP2 DUP2 GT ISZERO PUSH2 0x277B JUMPI PUSH2 0x277A PUSH2 0x260A JUMP JUMPDEST JUMPDEST SWAP3 SWAP2 POP POP JUMP JUMPDEST PUSH0 PUSH2 0x278B DUP3 PUSH2 0x19E0 JUMP JUMPDEST SWAP2 POP PUSH2 0x2796 DUP4 PUSH2 0x19E0 JUMP JUMPDEST SWAP3 POP DUP3 DUP3 ADD SWAP1 POP DUP1 DUP3 GT ISZERO PUSH2 0x27AE JUMPI PUSH2 0x27AD PUSH2 0x260A JUMP JUMPDEST JUMPDEST SWAP3 SWAP2 POP POP JUMP JUMPDEST PUSH32 0x6E6F742045524337323152656365697665720000000000000000000000000000 PUSH0 DUP3 ADD MSTORE POP JUMP JUMPDEST PUSH0 PUSH2 0x27E8 PUSH1 0x12 DUP4 PUSH2 0x1940 JUMP JUMPDEST SWAP2 POP PUSH2 0x27F3 DUP3 PUSH2 0x27B4 JUMP JUMPDEST PUSH1 0x20 DUP3 ADD SWAP1 POP SWAP2 SWAP1 POP JUMP JUMPDEST PUSH0 PUSH1 0x20 DUP3 ADD SWAP1 POP DUP2 DUP2 SUB PUSH0 DUP4 ADD MSTORE PUSH2 0x2815 DUP2 PUSH2 0x27DC JUMP JUMPDEST SWAP1 POP SWAP2 SWAP1 POP JUMP JUMPDEST PUSH32 0x4E487B7100000000000000000000000000000000000000000000000000000000 PUSH0 MSTORE PUSH1 0x12 PUSH1 0x4 MSTORE PUSH1 0x24 PUSH0 REVERT JUMPDEST PUSH0 PUSH2 0x2853 DUP3 PUSH2 0x19E0 JUMP JUMPDEST SWAP2 POP PUSH2 0x285E DUP4 PUSH2 0x19E0 JUMP JUMPDEST SWAP3 POP DUP3 PUSH2 0x286E JUMPI PUSH2 0x286D PUSH2 0x281C JUMP JUMPDEST JUMPDEST DUP3 DUP3 DIV SWAP1 POP SWAP3 SWAP2 POP POP JUMP JUMPDEST PUSH0 PUSH2 0x2883 DUP3 PUSH2 0x19E0 JUMP JUMPDEST SWAP2 POP PUSH2 0x288E DUP4 PUSH2 0x19E0 JUMP JUMPDEST SWAP3 POP DUP3 PUSH2 0x289E JUMPI PUSH2 0x289D PUSH2 0x281C JUMP JUMPDEST JUMPDEST DUP3 DUP3 MOD SWAP1 POP SWAP3 SWAP2 POP POP JUMP JUMPDEST PUSH32 0x4E487B7100000000000000000000000000000000000000000000000000000000 PUSH0 MSTORE PUSH1 0x32 PUSH1 0x4 MSTORE PUSH1 0x24 PUSH0 REVERT JUMPDEST PUSH32 0x6D696E7420746F207A65726F2061646472657373000000000000000000000000 PUSH0 DUP3 ADD MSTORE POP JUMP JUMPDEST PUSH0 PUSH2 0x290A PUSH1 0x14 DUP4 PUSH2 0x1940 JUMP JUMPDEST SWAP2 POP PUSH2 0x2915 DUP3 PUSH2 0x28D6 JUMP JUMPDEST PUSH1 0x20 DUP3 ADD SWAP1 POP SWAP2 SWAP1 POP JUMP JUMPDEST PUSH0 PUSH1 0x20 DUP3 ADD SWAP1 POP DUP2 DUP2 SUB PUSH0 DUP4 ADD MSTORE PUSH2 0x2937 DUP2 PUSH2 0x28FE JUMP JUMPDEST SWAP1 POP SWAP2 SWAP1 POP JUMP JUMPDEST PUSH32 0x746F6B656E20616C7265616479206D696E746564000000000000000000000000 PUSH0 DUP3 ADD MSTORE POP JUMP JUMPDEST PUSH0 PUSH2 0x2972 PUSH1 0x14 DUP4 PUSH2 0x1940 JUMP JUMPDEST SWAP2 POP PUSH2 0x297D DUP3 PUSH2 0x293E JUMP JUMPDEST PUSH1 0x20 DUP3 ADD SWAP1 POP SWAP2 SWAP1 POP JUMP JUMPDEST PUSH0 PUSH1 0x20 DUP3 ADD SWAP1 POP DUP2 DUP2 SUB PUSH0 DUP4 ADD MSTORE PUSH2 0x299F DUP2 PUSH2 0x2966 JUMP JUMPDEST SWAP1 POP SWAP2 SWAP1 POP JUMP JUMPDEST PUSH0 DUP2 MLOAD SWAP1 POP SWAP2 SWAP1 POP JUMP JUMPDEST PUSH0 DUP3 DUP3 MSTORE PUSH1 0x20 DUP3 ADD SWAP1 POP SWAP3 SWAP2 POP POP JUMP JUMPDEST PUSH0 PUSH2 0x29CA DUP3 PUSH2 0x29A6 JUMP JUMPDEST PUSH2 0x29D4 DUP2 DUP6 PUSH2 0x29B0 JUMP JUMPDEST SWAP4 POP PUSH2 0x29E4 DUP2 DUP6 PUSH1 0x20 DUP7 ADD PUSH2 0x1950 JUMP JUMPDEST PUSH2 0x29ED DUP2 PUSH2 0x1978 JUMP JUMPDEST DUP5 ADD SWAP2 POP POP SWAP3 SWAP2 POP POP JUMP JUMPDEST PUSH0 PUSH1 0x80 DUP3 ADD SWAP1 POP PUSH2 0x2A0B PUSH0 DUP4 ADD DUP8 PUSH2 0x1A6E JUMP JUMPDEST PUSH2 0x2A18 PUSH1 0x20 DUP4 ADD DUP7 PUSH2 0x1A6E JUMP JUMPDEST PUSH2 0x2A25 PUSH1 0x40 DUP4 ADD DUP6 PUSH2 0x1D46 JUMP JUMPDEST DUP2 DUP2 SUB PUSH1 0x60 DUP4 ADD MSTORE PUSH2 0x2A37 DUP2 DUP5 PUSH2 0x29C0 JUMP JUMPDEST SWAP1 POP SWAP6 SWAP5 POP POP POP POP POP JUMP JUMPDEST PUSH0 DUP2 MLOAD SWAP1 POP PUSH2 0x2A50 DUP2 PUSH2 0x18AE JUMP JUMPDEST SWAP3 SWAP2 POP POP JUMP JUMPDEST PUSH0 PUSH1 0x20 DUP3 DUP5 SUB SLT ISZERO PUSH2 0x2A6B JUMPI PUSH2 0x2A6A PUSH2 0x187B JUMP JUMPDEST JUMPDEST PUSH0 PUSH2 0x2A78 DUP5 DUP3 DUP6 ADD PUSH2 0x2A42 JUMP JUMPDEST SWAP2 POP POP SWAP3 SWAP2 POP POP JUMP INVALID LOG2 PUSH5 0x6970667358 0x22 SLT KECCAK256 GT 0xB7 SHR 0x27 0xCF 0xA7 SWAP6 0xC8 0xE SWAP6 0xEF 0x1E 0xDE SHL EXTCODESIZE SWAP2 STOP 0x27 0xB7 LOG2 0xC2 PUSH25 0xAA765A076C02D29276F964736F6C6343000814003300000000 "
				},
				"gasEstimates": {
					"creation": {
						"codeDepositCost": "2187000",
						"executionCost": "infinite",
						"totalCost": "infinite"
					},
					"external": {
						"approve(address,uint256)": "31603",
						"balanceOf(address)": "2909",
						"getApproved(uint256)": "5166",
						"isApprovedForAll(address,address)": "infinite",
						"mint(address,string)": "infinite",
						"name()": "infinite",
						"ownerOf(uint256)": "2961",
						"safeTransferFrom(address,address,uint256)": "infinite",
						"safeTransferFrom(address,address,uint256,bytes)": "infinite",
						"setApprovalForAll(address,bool)": "infinite",
						"setBaseURI(string)": "infinite",
						"setTokenURI(uint256,string)": "infinite",
						"supportsInterface(bytes4)": "745",
						"symbol()": "infinite",
						"tokenURI(uint256)": "infinite",
						"transferFrom(address,address,uint256)": "infinite"
					},
					"internal": {
						"_approve(address,address,uint256)": "26289",
						"_burn(uint256)": "infinite",
						"_checkOnERC721Received(address,address,uint256,bytes memory)": "infinite",
						"_isApprovedOrOwner(address,address,uint256)": "4639",
						"_mint(address,uint256)": "infinite",
						"_safeTransfer(address,address,address,uint256,bytes memory)": "infinite",
						"_transfer(address,address,address,uint256)": "infinite"
					}
				},
				"methodIdentifiers": {
					"approve(address,uint256)": "095ea7b3",
					"balanceOf(address)": "70a08231",
					"getApproved(uint256)": "081812fc",
					"isApprovedForAll(address,address)": "e985e9c5",
					"mint(address,string)": "d0def521",
					"name()": "06fdde03",
					"ownerOf(uint256)": "6352211e",
					"safeTransferFrom(address,address,uint256)": "42842e0e",
					"safeTransferFrom(address,address,uint256,bytes)": "b88d4fde",
					"setApprovalForAll(address,bool)": "a22cb465",
					"setBaseURI(string)": "55f804b3",
					"setTokenURI(uint256,string)": "162094c4",
					"supportsInterface(bytes4)": "01ffc9a7",
					"symbol()": "95d89b41",
					"tokenURI(uint256)": "c87b56dd",
					"transferFrom(address,address,uint256)": "23b872dd"
				}
			},
			"storageLayout": {
				"storage": [
					{
						"astId": 39,
						"contract": "ERC721.sol:ERC721",
						"label": "name",
						"offset": 0,
						"slot": "0",
						"type": "t_string_storage"
					},
					{
						"astId": 42,
						"contract": "ERC721.sol:ERC721",
						"label": "symbol",
						"offset": 0,
						"slot": "1",
						"type": "t_string_storage"
					},
					{
						"astId": 46,
						"contract": "ERC721.sol:ERC721",
						"label": "_owners",
						"offset": 0,
						"slot": "2",
						"type": "t_mapping(t_uint256,t_address)"
					},
					{
						"astId": 50,
						"contract": "ERC721.sol:ERC721",
						"label": "_balances",
						"offset": 0,
						"slot": "3",
						"type": "t_mapping(t_address,t_uint256)"
					},
					{
						"astId": 54,
						"contract": "ERC721.sol:ERC721",
						"label": "_tokenApprovals",
						"offset": 0,
						"slot": "4",
						"type": "t_mapping(t_uint256,t_address)"
					},
					{
						"astId": 60,
						"contract": "ERC721.sol:ERC721",
						"label": "_operatorApprovals",
						"offset": 0,
						"slot": "5",
						"type": "t_mapping(t_address,t_mapping(t_address,t_bool))"
					},
					{
						"astId": 63,
						"contract": "ERC721.sol:ERC721",
						"label": "_nextTokenId",
						"offset": 0,
						"slot": "6",
						"type": "t_uint256"
					},
					{
						"astId": 65,
						"contract": "ERC721.sol:ERC721",
						"label": "_baseTokenURI",
						"offset": 0,
						"slot": "7",
						"type": "t_string_storage"
					},
					{
						"astId": 69,
						"contract": "ERC721.sol:ERC721",
						"label": "_tokenURIs",
						"offset": 0,
						"slot": "8",
						"type": "t_mapping(t_uint256,t_string_storage)"
					}
				],
				"types": {
					"t_address": {
						"encoding": "inplace",
						"label": "address",
						"numberOfBytes": "20"
					},
					"t_bool": {
						"encoding": "inplace",
						"label": "bool",
						"numberOfBytes": "1"
					},
					"t_mapping(t_address,t_bool)": {
						"encoding": "mapping",
						"key": "t_address",
						"label": "mapping(address => bool)",
						"numberOfBytes": "32",
						"value": "t_bool"
					},
					"t_mapping(t_address,t_mapping(t_address,t_bool))": {
						"encoding": "mapping",
						"key": "t_address",
						"label": "mapping(address => mapping(address => bool))",
						"numberOfBytes": "32",
						"value": "t_mapping(t_address,t_bool)"
					},
					"t_mapping(t_address,t_uint256)": {
						"encoding": "mapping",
						"key": "t_address",
						"label": "mapping(address => uint256)",
						"numberOfBytes": "32",
						"value": "t_uint256"
					},
					"t_mapping(t_uint256,t_address)": {
						"encoding": "mapping",
						"key": "t_uint256",
						"label": "mapping(uint256 => address)",
						"numberOfBytes": "32",
						"value": "t_address"
					},
					"t_mapping(t_uint256,t_string_storage)": {
						"encoding": "mapping",
						"key": "t_uint256",
						"label": "mapping(uint256 => string)",
						"numberOfBytes": "32",
						"value": "t_string_storage"
					},
					"t_string_storage": {
						"encoding": "bytes",
						"label": "string",
						"numberOfBytes": "32"
					},
					"t_uint256": {
						"encoding": "inplace",
						"label": "uint256",
						"numberOfBytes": "32"
					}
				}
			},
			"userdoc": {
				"kind": "user",
				"methods": {
					"mint(address,string)": {
						"notice": "铸造一个新的 NFT "
					},
					"setBaseURI(string)": {
						"notice": "设置全局 BaseURI "
					},
					"setTokenURI(uint256,string)": {
						"notice": "设置单个 NFT 的 URI "
					},
					"tokenURI(uint256)": {
						"notice": "查询 NFT 的元数据 URL "
					}
				},
				"version": 1
			}
		}
	}
}