{
	"Solidity应用/Airdrop.sol": {
		"Airdrop": {
			"abi": [
				{
					"inputs": [
						{
							"internalType": "uint256[]",
							"name": "_arr",
							"type": "uint256[]"
						}
					],
					"name": "getSum",
					"outputs": [
						{
							"internalType": "uint256",
							"name": "sum",
							"type": "uint256"
						}
					],
					"stateMutability": "pure",
					"type": "function"
				},
				{
					"inputs": [
						{
							"internalType": "address payable[]",
							"name": "_addresses",
							"type": "address[]"
						},
						{
							"internalType": "uint256[]",
							"name": "_amounts",
							"type": "uint256[]"
						}
					],
					"name": "multiTransferETH",
					"outputs": [],
					"stateMutability": "payable",
					"type": "function"
				},
				{
					"inputs": [
						{
							"internalType": "address",
							"name": "_token",
							"type": "address"
						},
						{
							"internalType": "address[]",
							"name": "_addresses",
							"type": "address[]"
						},
						{
							"internalType": "uint256[]",
							"name": "_amounts",
							"type": "uint256[]"
						}
					],
					"name": "multiTransferToken",
					"outputs": [],
					"stateMutability": "nonpayable",
					"type": "function"
				}
			],
			"devdoc": {
				"kind": "dev",
				"methods": {
					"multiTransferToken(address,address[],uint256[])": {
						"params": {
							"_addresses": "空投地址数组",
							"_amounts": "代币数量数组（每个地址的空投数量）",
							"_token": "转账的ERC20代币地址"
						}
					}
				},
				"version": 1
			},
			"evm": {
				"assembly": "    /* \"Solidity\\xe5\\xba\\x94\\xe7\\x94\\xa8/Airdrop.sol\":90:2128  contract Airdrop {\r... */\n  mstore(0x40, 0x80)\n  callvalue\n  dup1\n  iszero\n  tag_1\n  jumpi\n  0x00\n  dup1\n  revert\ntag_1:\n  pop\n  dataSize(sub_0)\n  dup1\n  dataOffset(sub_0)\n  0x00\n  codecopy\n  0x00\n  return\nstop\n\nsub_0: assembly {\n        /* \"Solidity\\xe5\\xba\\x94\\xe7\\x94\\xa8/Airdrop.sol\":90:2128  contract Airdrop {\r... */\n      mstore(0x40, 0x80)\n      jumpi(tag_1, lt(calldatasize, 0x04))\n      shr(0xe0, calldataload(0x00))\n      dup1\n      0x41ed24a2\n      eq\n      tag_2\n      jumpi\n      dup1\n      0x77988cf8\n      eq\n      tag_3\n      jumpi\n      dup1\n      0xccb8c1e0\n      eq\n      tag_4\n      jumpi\n    tag_1:\n      0x00\n      dup1\n      revert\n        /* \"Solidity\\xe5\\xba\\x94\\xe7\\x94\\xa8/Airdrop.sol\":577:1415  function multiTransferToken(\r... */\n    tag_2:\n      callvalue\n      dup1\n      iszero\n      tag_5\n      jumpi\n      0x00\n      dup1\n      revert\n    tag_5:\n      pop\n      tag_6\n      0x04\n      dup1\n      calldatasize\n      sub\n      dup2\n      add\n      swap1\n      tag_7\n      swap2\n      swap1\n      tag_8\n      jump\t// in\n    tag_7:\n      tag_9\n      jump\t// in\n    tag_6:\n      stop\n        /* \"Solidity\\xe5\\xba\\x94\\xe7\\x94\\xa8/Airdrop.sol\":1457:2123  function multiTransferETH(\r... */\n    tag_3:\n      tag_10\n      0x04\n      dup1\n      calldatasize\n      sub\n      dup2\n      add\n      swap1\n      tag_11\n      swap2\n      swap1\n      tag_12\n      jump\t// in\n    tag_11:\n      tag_13\n      jump\t// in\n    tag_10:\n      stop\n        /* \"Solidity\\xe5\\xba\\x94\\xe7\\x94\\xa8/Airdrop.sol\":145:310  function getSum(uint256[] calldata _arr) public pure returns(uint sum)\r... */\n    tag_4:\n      callvalue\n      dup1\n      iszero\n      tag_14\n      jumpi\n      0x00\n      dup1\n      revert\n    tag_14:\n      pop\n      tag_15\n      0x04\n      dup1\n      calldatasize\n      sub\n      dup2\n      add\n      swap1\n      tag_16\n      swap2\n      swap1\n      tag_17\n      jump\t// in\n    tag_16:\n      tag_18\n      jump\t// in\n    tag_15:\n      mload(0x40)\n      tag_19\n      swap2\n      swap1\n      tag_20\n      jump\t// in\n    tag_19:\n      mload(0x40)\n      dup1\n      swap2\n      sub\n      swap1\n      return\n        /* \"Solidity\\xe5\\xba\\x94\\xe7\\x94\\xa8/Airdrop.sol\":577:1415  function multiTransferToken(\r... */\n    tag_9:\n        /* \"Solidity\\xe5\\xba\\x94\\xe7\\x94\\xa8/Airdrop.sol\":832:840  _amounts */\n      dup2\n      dup2\n        /* \"Solidity\\xe5\\xba\\x94\\xe7\\x94\\xa8/Airdrop.sol\":832:847  _amounts.length */\n      swap1\n      pop\n        /* \"Solidity\\xe5\\xba\\x94\\xe7\\x94\\xa8/Airdrop.sol\":811:821  _addresses */\n      dup5\n      dup5\n        /* \"Solidity\\xe5\\xba\\x94\\xe7\\x94\\xa8/Airdrop.sol\":811:828  _addresses.length */\n      swap1\n      pop\n        /* \"Solidity\\xe5\\xba\\x94\\xe7\\x94\\xa8/Airdrop.sol\":811:847  _addresses.length == _amounts.length */\n      eq\n        /* \"Solidity\\xe5\\xba\\x94\\xe7\\x94\\xa8/Airdrop.sol\":803:894  require(_addresses.length == _amounts.length, \"Lengths of Addresses and Amounts NOT EQUAL\") */\n      tag_22\n      jumpi\n      mload(0x40)\n      0x08c379a000000000000000000000000000000000000000000000000000000000\n      dup2\n      mstore\n      0x04\n      add\n      tag_23\n      swap1\n      tag_24\n      jump\t// in\n    tag_23:\n      mload(0x40)\n      dup1\n      swap2\n      sub\n      swap1\n      revert\n    tag_22:\n        /* \"Solidity\\xe5\\xba\\x94\\xe7\\x94\\xa8/Airdrop.sol\":905:917  IERC20 token */\n      0x00\n        /* \"Solidity\\xe5\\xba\\x94\\xe7\\x94\\xa8/Airdrop.sol\":927:933  _token */\n      dup6\n        /* \"Solidity\\xe5\\xba\\x94\\xe7\\x94\\xa8/Airdrop.sol\":905:934  IERC20 token = IERC20(_token) */\n      swap1\n      pop\n        /* \"Solidity\\xe5\\xba\\x94\\xe7\\x94\\xa8/Airdrop.sol\":971:986  uint _amountSum */\n      0x00\n        /* \"Solidity\\xe5\\xba\\x94\\xe7\\x94\\xa8/Airdrop.sol\":989:1005  getSum(_amounts) */\n      tag_25\n        /* \"Solidity\\xe5\\xba\\x94\\xe7\\x94\\xa8/Airdrop.sol\":996:1004  _amounts */\n      dup5\n      dup5\n        /* \"Solidity\\xe5\\xba\\x94\\xe7\\x94\\xa8/Airdrop.sol\":989:995  getSum */\n      tag_18\n        /* \"Solidity\\xe5\\xba\\x94\\xe7\\x94\\xa8/Airdrop.sol\":989:1005  getSum(_amounts) */\n      jump\t// in\n    tag_25:\n        /* \"Solidity\\xe5\\xba\\x94\\xe7\\x94\\xa8/Airdrop.sol\":971:1005  uint _amountSum = getSum(_amounts) */\n      swap1\n      pop\n        /* \"Solidity\\xe5\\xba\\x94\\xe7\\x94\\xa8/Airdrop.sol\":1160:1170  _amountSum */\n      dup1\n        /* \"Solidity\\xe5\\xba\\x94\\xe7\\x94\\xa8/Airdrop.sol\":1114:1119  token */\n      dup3\n        /* \"Solidity\\xe5\\xba\\x94\\xe7\\x94\\xa8/Airdrop.sol\":1114:1129  token.allowance */\n      0xffffffffffffffffffffffffffffffffffffffff\n      and\n      0xdd62ed3e\n        /* \"Solidity\\xe5\\xba\\x94\\xe7\\x94\\xa8/Airdrop.sol\":1130:1140  msg.sender */\n      caller\n        /* \"Solidity\\xe5\\xba\\x94\\xe7\\x94\\xa8/Airdrop.sol\":1150:1154  this */\n      address\n        /* \"Solidity\\xe5\\xba\\x94\\xe7\\x94\\xa8/Airdrop.sol\":1114:1156  token.allowance(msg.sender, address(this)) */\n      mload(0x40)\n      dup4\n      0xffffffff\n      and\n      0xe0\n      shl\n      dup2\n      mstore\n      0x04\n      add\n      tag_26\n      swap3\n      swap2\n      swap1\n      tag_27\n      jump\t// in\n    tag_26:\n      0x20\n      mload(0x40)\n      dup1\n      dup4\n      sub\n      dup2\n      dup7\n      dup1\n      extcodesize\n      iszero\n      dup1\n      iszero\n      tag_28\n      jumpi\n      0x00\n      dup1\n      revert\n    tag_28:\n      pop\n      gas\n      staticcall\n      iszero\n      dup1\n      iszero\n      tag_30\n      jumpi\n      returndatasize\n      0x00\n      dup1\n      returndatacopy\n      revert(0x00, returndatasize)\n    tag_30:\n      pop\n      pop\n      pop\n      pop\n      mload(0x40)\n      returndatasize\n      not(0x1f)\n      0x1f\n      dup3\n      add\n      and\n      dup3\n      add\n      dup1\n      0x40\n      mstore\n      pop\n      dup2\n      add\n      swap1\n      tag_31\n      swap2\n      swap1\n      tag_32\n      jump\t// in\n    tag_31:\n        /* \"Solidity\\xe5\\xba\\x94\\xe7\\x94\\xa8/Airdrop.sol\":1114:1170  token.allowance(msg.sender, address(this)) >= _amountSum */\n      lt\n      iszero\n        /* \"Solidity\\xe5\\xba\\x94\\xe7\\x94\\xa8/Airdrop.sol\":1106:1199  require(token.allowance(msg.sender, address(this)) >= _amountSum, \"Need Approve ERC20 token\") */\n      tag_33\n      jumpi\n      mload(0x40)\n      0x08c379a000000000000000000000000000000000000000000000000000000000\n      dup2\n      mstore\n      0x04\n      add\n      tag_34\n      swap1\n      tag_35\n      jump\t// in\n    tag_34:\n      mload(0x40)\n      dup1\n      swap2\n      sub\n      swap1\n      revert\n    tag_33:\n        /* \"Solidity\\xe5\\xba\\x94\\xe7\\x94\\xa8/Airdrop.sol\":1286:1293  uint8 i */\n      0x00\n        /* \"Solidity\\xe5\\xba\\x94\\xe7\\x94\\xa8/Airdrop.sol\":1281:1408  for (uint8 i; i < _addresses.length; i++) {\r... */\n    tag_36:\n        /* \"Solidity\\xe5\\xba\\x94\\xe7\\x94\\xa8/Airdrop.sol\":1299:1309  _addresses */\n      dup7\n      dup7\n        /* \"Solidity\\xe5\\xba\\x94\\xe7\\x94\\xa8/Airdrop.sol\":1299:1316  _addresses.length */\n      swap1\n      pop\n        /* \"Solidity\\xe5\\xba\\x94\\xe7\\x94\\xa8/Airdrop.sol\":1295:1296  i */\n      dup2\n        /* \"Solidity\\xe5\\xba\\x94\\xe7\\x94\\xa8/Airdrop.sol\":1295:1316  i < _addresses.length */\n      0xff\n      and\n      lt\n        /* \"Solidity\\xe5\\xba\\x94\\xe7\\x94\\xa8/Airdrop.sol\":1281:1408  for (uint8 i; i < _addresses.length; i++) {\r... */\n      iszero\n      tag_37\n      jumpi\n        /* \"Solidity\\xe5\\xba\\x94\\xe7\\x94\\xa8/Airdrop.sol\":1338:1343  token */\n      dup3\n        /* \"Solidity\\xe5\\xba\\x94\\xe7\\x94\\xa8/Airdrop.sol\":1338:1356  token.transferFrom */\n      0xffffffffffffffffffffffffffffffffffffffff\n      and\n      0x23b872dd\n        /* \"Solidity\\xe5\\xba\\x94\\xe7\\x94\\xa8/Airdrop.sol\":1357:1367  msg.sender */\n      caller\n        /* \"Solidity\\xe5\\xba\\x94\\xe7\\x94\\xa8/Airdrop.sol\":1369:1379  _addresses */\n      dup10\n      dup10\n        /* \"Solidity\\xe5\\xba\\x94\\xe7\\x94\\xa8/Airdrop.sol\":1380:1381  i */\n      dup6\n        /* \"Solidity\\xe5\\xba\\x94\\xe7\\x94\\xa8/Airdrop.sol\":1369:1382  _addresses[i] */\n      0xff\n      and\n      dup2\n      dup2\n      lt\n      tag_39\n      jumpi\n      tag_40\n      tag_41\n      jump\t// in\n    tag_40:\n    tag_39:\n      swap1\n      pop\n      0x20\n      mul\n      add\n      0x20\n      dup2\n      add\n      swap1\n      tag_42\n      swap2\n      swap1\n      tag_43\n      jump\t// in\n    tag_42:\n        /* \"Solidity\\xe5\\xba\\x94\\xe7\\x94\\xa8/Airdrop.sol\":1384:1392  _amounts */\n      dup9\n      dup9\n        /* \"Solidity\\xe5\\xba\\x94\\xe7\\x94\\xa8/Airdrop.sol\":1393:1394  i */\n      dup7\n        /* \"Solidity\\xe5\\xba\\x94\\xe7\\x94\\xa8/Airdrop.sol\":1384:1395  _amounts[i] */\n      0xff\n      and\n      dup2\n      dup2\n      lt\n      tag_44\n      jumpi\n      tag_45\n      tag_41\n      jump\t// in\n    tag_45:\n    tag_44:\n      swap1\n      pop\n      0x20\n      mul\n      add\n      calldataload\n        /* \"Solidity\\xe5\\xba\\x94\\xe7\\x94\\xa8/Airdrop.sol\":1338:1396  token.transferFrom(msg.sender, _addresses[i], _amounts[i]) */\n      mload(0x40)\n      dup5\n      0xffffffff\n      and\n      0xe0\n      shl\n      dup2\n      mstore\n      0x04\n      add\n      tag_46\n      swap4\n      swap3\n      swap2\n      swap1\n      tag_47\n      jump\t// in\n    tag_46:\n      0x20\n      mload(0x40)\n      dup1\n      dup4\n      sub\n      dup2\n      0x00\n      dup8\n      dup1\n      extcodesize\n      iszero\n      dup1\n      iszero\n      tag_48\n      jumpi\n      0x00\n      dup1\n      revert\n    tag_48:\n      pop\n      gas\n      call\n      iszero\n      dup1\n      iszero\n      tag_50\n      jumpi\n      returndatasize\n      0x00\n      dup1\n      returndatacopy\n      revert(0x00, returndatasize)\n    tag_50:\n      pop\n      pop\n      pop\n      pop\n      mload(0x40)\n      returndatasize\n      not(0x1f)\n      0x1f\n      dup3\n      add\n      and\n      dup3\n      add\n      dup1\n      0x40\n      mstore\n      pop\n      dup2\n      add\n      swap1\n      tag_51\n      swap2\n      swap1\n      tag_52\n      jump\t// in\n    tag_51:\n      pop\n        /* \"Solidity\\xe5\\xba\\x94\\xe7\\x94\\xa8/Airdrop.sol\":1318:1321  i++ */\n      dup1\n      dup1\n      tag_53\n      swap1\n      tag_54\n      jump\t// in\n    tag_53:\n      swap2\n      pop\n      pop\n        /* \"Solidity\\xe5\\xba\\x94\\xe7\\x94\\xa8/Airdrop.sol\":1281:1408  for (uint8 i; i < _addresses.length; i++) {\r... */\n      jump(tag_36)\n    tag_37:\n      pop\n        /* \"Solidity\\xe5\\xba\\x94\\xe7\\x94\\xa8/Airdrop.sol\":728:1415  {\r... */\n      pop\n      pop\n        /* \"Solidity\\xe5\\xba\\x94\\xe7\\x94\\xa8/Airdrop.sol\":577:1415  function multiTransferToken(\r... */\n      pop\n      pop\n      pop\n      pop\n      pop\n      jump\t// out\n        /* \"Solidity\\xe5\\xba\\x94\\xe7\\x94\\xa8/Airdrop.sol\":1457:2123  function multiTransferETH(\r... */\n    tag_13:\n        /* \"Solidity\\xe5\\xba\\x94\\xe7\\x94\\xa8/Airdrop.sol\":1695:1703  _amounts */\n      dup2\n      dup2\n        /* \"Solidity\\xe5\\xba\\x94\\xe7\\x94\\xa8/Airdrop.sol\":1695:1710  _amounts.length */\n      swap1\n      pop\n        /* \"Solidity\\xe5\\xba\\x94\\xe7\\x94\\xa8/Airdrop.sol\":1674:1684  _addresses */\n      dup5\n      dup5\n        /* \"Solidity\\xe5\\xba\\x94\\xe7\\x94\\xa8/Airdrop.sol\":1674:1691  _addresses.length */\n      swap1\n      pop\n        /* \"Solidity\\xe5\\xba\\x94\\xe7\\x94\\xa8/Airdrop.sol\":1674:1710  _addresses.length == _amounts.length */\n      eq\n        /* \"Solidity\\xe5\\xba\\x94\\xe7\\x94\\xa8/Airdrop.sol\":1666:1757  require(_addresses.length == _amounts.length, \"Lengths of Addresses and Amounts NOT EQUAL\") */\n      tag_56\n      jumpi\n      mload(0x40)\n      0x08c379a000000000000000000000000000000000000000000000000000000000\n      dup2\n      mstore\n      0x04\n      add\n      tag_57\n      swap1\n      tag_24\n      jump\t// in\n    tag_57:\n      mload(0x40)\n      dup1\n      swap2\n      sub\n      swap1\n      revert\n    tag_56:\n        /* \"Solidity\\xe5\\xba\\x94\\xe7\\x94\\xa8/Airdrop.sol\":1768:1783  uint _amountSum */\n      0x00\n        /* \"Solidity\\xe5\\xba\\x94\\xe7\\x94\\xa8/Airdrop.sol\":1786:1802  getSum(_amounts) */\n      tag_58\n        /* \"Solidity\\xe5\\xba\\x94\\xe7\\x94\\xa8/Airdrop.sol\":1793:1801  _amounts */\n      dup4\n      dup4\n        /* \"Solidity\\xe5\\xba\\x94\\xe7\\x94\\xa8/Airdrop.sol\":1786:1792  getSum */\n      tag_18\n        /* \"Solidity\\xe5\\xba\\x94\\xe7\\x94\\xa8/Airdrop.sol\":1786:1802  getSum(_amounts) */\n      jump\t// in\n    tag_58:\n        /* \"Solidity\\xe5\\xba\\x94\\xe7\\x94\\xa8/Airdrop.sol\":1768:1802  uint _amountSum = getSum(_amounts) */\n      swap1\n      pop\n        /* \"Solidity\\xe5\\xba\\x94\\xe7\\x94\\xa8/Airdrop.sol\":1905:1915  _amountSum */\n      dup1\n        /* \"Solidity\\xe5\\xba\\x94\\xe7\\x94\\xa8/Airdrop.sol\":1892:1901  msg.value */\n      callvalue\n        /* \"Solidity\\xe5\\xba\\x94\\xe7\\x94\\xa8/Airdrop.sol\":1892:1915  msg.value == _amountSum */\n      eq\n        /* \"Solidity\\xe5\\xba\\x94\\xe7\\x94\\xa8/Airdrop.sol\":1884:1941  require(msg.value == _amountSum, \"Transfer amount error\") */\n      tag_59\n      jumpi\n      mload(0x40)\n      0x08c379a000000000000000000000000000000000000000000000000000000000\n      dup2\n      mstore\n      0x04\n      add\n      tag_60\n      swap1\n      tag_61\n      jump\t// in\n    tag_60:\n      mload(0x40)\n      dup1\n      swap2\n      sub\n      swap1\n      revert\n    tag_59:\n        /* \"Solidity\\xe5\\xba\\x94\\xe7\\x94\\xa8/Airdrop.sol\":2011:2020  uint256 i */\n      0x00\n        /* \"Solidity\\xe5\\xba\\x94\\xe7\\x94\\xa8/Airdrop.sol\":2006:2116  for (uint256 i = 0; i < _addresses.length; i++) {\r... */\n    tag_62:\n        /* \"Solidity\\xe5\\xba\\x94\\xe7\\x94\\xa8/Airdrop.sol\":2030:2040  _addresses */\n      dup6\n      dup6\n        /* \"Solidity\\xe5\\xba\\x94\\xe7\\x94\\xa8/Airdrop.sol\":2030:2047  _addresses.length */\n      swap1\n      pop\n        /* \"Solidity\\xe5\\xba\\x94\\xe7\\x94\\xa8/Airdrop.sol\":2026:2027  i */\n      dup2\n        /* \"Solidity\\xe5\\xba\\x94\\xe7\\x94\\xa8/Airdrop.sol\":2026:2047  i < _addresses.length */\n      lt\n        /* \"Solidity\\xe5\\xba\\x94\\xe7\\x94\\xa8/Airdrop.sol\":2006:2116  for (uint256 i = 0; i < _addresses.length; i++) {\r... */\n      iszero\n      tag_63\n      jumpi\n        /* \"Solidity\\xe5\\xba\\x94\\xe7\\x94\\xa8/Airdrop.sol\":2069:2079  _addresses */\n      dup6\n      dup6\n        /* \"Solidity\\xe5\\xba\\x94\\xe7\\x94\\xa8/Airdrop.sol\":2080:2081  i */\n      dup3\n        /* \"Solidity\\xe5\\xba\\x94\\xe7\\x94\\xa8/Airdrop.sol\":2069:2082  _addresses[i] */\n      dup2\n      dup2\n      lt\n      tag_65\n      jumpi\n      tag_66\n      tag_41\n      jump\t// in\n    tag_66:\n    tag_65:\n      swap1\n      pop\n      0x20\n      mul\n      add\n      0x20\n      dup2\n      add\n      swap1\n      tag_67\n      swap2\n      swap1\n      tag_68\n      jump\t// in\n    tag_67:\n        /* \"Solidity\\xe5\\xba\\x94\\xe7\\x94\\xa8/Airdrop.sol\":2069:2091  _addresses[i].transfer */\n      0xffffffffffffffffffffffffffffffffffffffff\n      and\n        /* \"Solidity\\xe5\\xba\\x94\\xe7\\x94\\xa8/Airdrop.sol\":2069:2104  _addresses[i].transfer(_amounts[i]) */\n      0x08fc\n        /* \"Solidity\\xe5\\xba\\x94\\xe7\\x94\\xa8/Airdrop.sol\":2092:2100  _amounts */\n      dup6\n      dup6\n        /* \"Solidity\\xe5\\xba\\x94\\xe7\\x94\\xa8/Airdrop.sol\":2101:2102  i */\n      dup5\n        /* \"Solidity\\xe5\\xba\\x94\\xe7\\x94\\xa8/Airdrop.sol\":2092:2103  _amounts[i] */\n      dup2\n      dup2\n      lt\n      tag_69\n      jumpi\n      tag_70\n      tag_41\n      jump\t// in\n    tag_70:\n    tag_69:\n      swap1\n      pop\n      0x20\n      mul\n      add\n      calldataload\n        /* \"Solidity\\xe5\\xba\\x94\\xe7\\x94\\xa8/Airdrop.sol\":2069:2104  _addresses[i].transfer(_amounts[i]) */\n      swap1\n      dup2\n      iszero\n      mul\n      swap1\n      mload(0x40)\n      0x00\n      mload(0x40)\n      dup1\n      dup4\n      sub\n      dup2\n      dup6\n      dup9\n      dup9\n      call\n      swap4\n      pop\n      pop\n      pop\n      pop\n      iszero\n      dup1\n      iszero\n      tag_72\n      jumpi\n      returndatasize\n      0x00\n      dup1\n      returndatacopy\n      revert(0x00, returndatasize)\n    tag_72:\n      pop\n        /* \"Solidity\\xe5\\xba\\x94\\xe7\\x94\\xa8/Airdrop.sol\":2049:2052  i++ */\n      dup1\n      dup1\n      tag_73\n      swap1\n      tag_74\n      jump\t// in\n    tag_73:\n      swap2\n      pop\n      pop\n        /* \"Solidity\\xe5\\xba\\x94\\xe7\\x94\\xa8/Airdrop.sol\":2006:2116  for (uint256 i = 0; i < _addresses.length; i++) {\r... */\n      jump(tag_62)\n    tag_63:\n      pop\n        /* \"Solidity\\xe5\\xba\\x94\\xe7\\x94\\xa8/Airdrop.sol\":1591:2123  {\r... */\n      pop\n        /* \"Solidity\\xe5\\xba\\x94\\xe7\\x94\\xa8/Airdrop.sol\":1457:2123  function multiTransferETH(\r... */\n      pop\n      pop\n      pop\n      pop\n      jump\t// out\n        /* \"Solidity\\xe5\\xba\\x94\\xe7\\x94\\xa8/Airdrop.sol\":145:310  function getSum(uint256[] calldata _arr) public pure returns(uint sum)\r... */\n    tag_18:\n        /* \"Solidity\\xe5\\xba\\x94\\xe7\\x94\\xa8/Airdrop.sol\":206:214  uint sum */\n      0x00\n        /* \"Solidity\\xe5\\xba\\x94\\xe7\\x94\\xa8/Airdrop.sol\":236:242  uint i */\n      dup1\n        /* \"Solidity\\xe5\\xba\\x94\\xe7\\x94\\xa8/Airdrop.sol\":245:246  0 */\n      0x00\n        /* \"Solidity\\xe5\\xba\\x94\\xe7\\x94\\xa8/Airdrop.sol\":236:246  uint i = 0 */\n      swap1\n      pop\n        /* \"Solidity\\xe5\\xba\\x94\\xe7\\x94\\xa8/Airdrop.sol\":232:302  for(uint i = 0; i < _arr.length; i++)\r... */\n    tag_76:\n        /* \"Solidity\\xe5\\xba\\x94\\xe7\\x94\\xa8/Airdrop.sol\":252:256  _arr */\n      dup4\n      dup4\n        /* \"Solidity\\xe5\\xba\\x94\\xe7\\x94\\xa8/Airdrop.sol\":252:263  _arr.length */\n      swap1\n      pop\n        /* \"Solidity\\xe5\\xba\\x94\\xe7\\x94\\xa8/Airdrop.sol\":248:249  i */\n      dup2\n        /* \"Solidity\\xe5\\xba\\x94\\xe7\\x94\\xa8/Airdrop.sol\":248:263  i < _arr.length */\n      lt\n        /* \"Solidity\\xe5\\xba\\x94\\xe7\\x94\\xa8/Airdrop.sol\":232:302  for(uint i = 0; i < _arr.length; i++)\r... */\n      iszero\n      tag_77\n      jumpi\n        /* \"Solidity\\xe5\\xba\\x94\\xe7\\x94\\xa8/Airdrop.sol\":295:299  _arr */\n      dup4\n      dup4\n        /* \"Solidity\\xe5\\xba\\x94\\xe7\\x94\\xa8/Airdrop.sol\":300:301  i */\n      dup3\n        /* \"Solidity\\xe5\\xba\\x94\\xe7\\x94\\xa8/Airdrop.sol\":295:302  _arr[i] */\n      dup2\n      dup2\n      lt\n      tag_79\n      jumpi\n      tag_80\n      tag_41\n      jump\t// in\n    tag_80:\n    tag_79:\n      swap1\n      pop\n      0x20\n      mul\n      add\n      calldataload\n        /* \"Solidity\\xe5\\xba\\x94\\xe7\\x94\\xa8/Airdrop.sol\":289:292  sum */\n      dup3\n        /* \"Solidity\\xe5\\xba\\x94\\xe7\\x94\\xa8/Airdrop.sol\":289:302  sum + _arr[i] */\n      tag_81\n      swap2\n      swap1\n      tag_82\n      jump\t// in\n    tag_81:\n        /* \"Solidity\\xe5\\xba\\x94\\xe7\\x94\\xa8/Airdrop.sol\":283:302  sum = sum + _arr[i] */\n      swap2\n      pop\n        /* \"Solidity\\xe5\\xba\\x94\\xe7\\x94\\xa8/Airdrop.sol\":265:268  i++ */\n      dup1\n      dup1\n      tag_83\n      swap1\n      tag_74\n      jump\t// in\n    tag_83:\n      swap2\n      pop\n      pop\n        /* \"Solidity\\xe5\\xba\\x94\\xe7\\x94\\xa8/Airdrop.sol\":232:302  for(uint i = 0; i < _arr.length; i++)\r... */\n      jump(tag_76)\n    tag_77:\n      pop\n        /* \"Solidity\\xe5\\xba\\x94\\xe7\\x94\\xa8/Airdrop.sol\":145:310  function getSum(uint256[] calldata _arr) public pure returns(uint sum)\r... */\n      swap3\n      swap2\n      pop\n      pop\n      jump\t// out\n        /* \"#utility.yul\":7:146   */\n    tag_85:\n        /* \"#utility.yul\":53:58   */\n      0x00\n        /* \"#utility.yul\":91:97   */\n      dup2\n        /* \"#utility.yul\":78:98   */\n      calldataload\n        /* \"#utility.yul\":69:98   */\n      swap1\n      pop\n        /* \"#utility.yul\":107:140   */\n      tag_87\n        /* \"#utility.yul\":134:139   */\n      dup2\n        /* \"#utility.yul\":107:140   */\n      tag_88\n      jump\t// in\n    tag_87:\n        /* \"#utility.yul\":7:146   */\n      swap3\n      swap2\n      pop\n      pop\n      jump\t// out\n        /* \"#utility.yul\":152:307   */\n    tag_89:\n        /* \"#utility.yul\":206:211   */\n      0x00\n        /* \"#utility.yul\":244:250   */\n      dup2\n        /* \"#utility.yul\":231:251   */\n      calldataload\n        /* \"#utility.yul\":222:251   */\n      swap1\n      pop\n        /* \"#utility.yul\":260:301   */\n      tag_91\n        /* \"#utility.yul\":295:300   */\n      dup2\n        /* \"#utility.yul\":260:301   */\n      tag_92\n      jump\t// in\n    tag_91:\n        /* \"#utility.yul\":152:307   */\n      swap3\n      swap2\n      pop\n      pop\n      jump\t// out\n        /* \"#utility.yul\":330:898   */\n    tag_93:\n        /* \"#utility.yul\":403:411   */\n      0x00\n        /* \"#utility.yul\":413:419   */\n      dup1\n        /* \"#utility.yul\":463:466   */\n      dup4\n        /* \"#utility.yul\":456:460   */\n      0x1f\n        /* \"#utility.yul\":448:454   */\n      dup5\n        /* \"#utility.yul\":444:461   */\n      add\n        /* \"#utility.yul\":440:467   */\n      slt\n        /* \"#utility.yul\":430:552   */\n      tag_95\n      jumpi\n        /* \"#utility.yul\":471:550   */\n      tag_96\n      tag_97\n      jump\t// in\n    tag_96:\n        /* \"#utility.yul\":430:552   */\n    tag_95:\n        /* \"#utility.yul\":584:590   */\n      dup3\n        /* \"#utility.yul\":571:591   */\n      calldataload\n        /* \"#utility.yul\":561:591   */\n      swap1\n      pop\n        /* \"#utility.yul\":614:632   */\n      0xffffffffffffffff\n        /* \"#utility.yul\":606:612   */\n      dup2\n        /* \"#utility.yul\":603:633   */\n      gt\n        /* \"#utility.yul\":600:717   */\n      iszero\n      tag_98\n      jumpi\n        /* \"#utility.yul\":636:715   */\n      tag_99\n      tag_100\n      jump\t// in\n    tag_99:\n        /* \"#utility.yul\":600:717   */\n    tag_98:\n        /* \"#utility.yul\":750:754   */\n      0x20\n        /* \"#utility.yul\":742:748   */\n      dup4\n        /* \"#utility.yul\":738:755   */\n      add\n        /* \"#utility.yul\":726:755   */\n      swap2\n      pop\n        /* \"#utility.yul\":804:807   */\n      dup4\n        /* \"#utility.yul\":796:800   */\n      0x20\n        /* \"#utility.yul\":788:794   */\n      dup3\n        /* \"#utility.yul\":784:801   */\n      mul\n        /* \"#utility.yul\":774:782   */\n      dup4\n        /* \"#utility.yul\":770:802   */\n      add\n        /* \"#utility.yul\":767:808   */\n      gt\n        /* \"#utility.yul\":764:892   */\n      iszero\n      tag_101\n      jumpi\n        /* \"#utility.yul\":811:890   */\n      tag_102\n      tag_103\n      jump\t// in\n    tag_102:\n        /* \"#utility.yul\":764:892   */\n    tag_101:\n        /* \"#utility.yul\":330:898   */\n      swap3\n      pop\n      swap3\n      swap1\n      pop\n      jump\t// out\n        /* \"#utility.yul\":929:1505   */\n    tag_104:\n        /* \"#utility.yul\":1010:1018   */\n      0x00\n        /* \"#utility.yul\":1020:1026   */\n      dup1\n        /* \"#utility.yul\":1070:1073   */\n      dup4\n        /* \"#utility.yul\":1063:1067   */\n      0x1f\n        /* \"#utility.yul\":1055:1061   */\n      dup5\n        /* \"#utility.yul\":1051:1068   */\n      add\n        /* \"#utility.yul\":1047:1074   */\n      slt\n        /* \"#utility.yul\":1037:1159   */\n      tag_106\n      jumpi\n        /* \"#utility.yul\":1078:1157   */\n      tag_107\n      tag_97\n      jump\t// in\n    tag_107:\n        /* \"#utility.yul\":1037:1159   */\n    tag_106:\n        /* \"#utility.yul\":1191:1197   */\n      dup3\n        /* \"#utility.yul\":1178:1198   */\n      calldataload\n        /* \"#utility.yul\":1168:1198   */\n      swap1\n      pop\n        /* \"#utility.yul\":1221:1239   */\n      0xffffffffffffffff\n        /* \"#utility.yul\":1213:1219   */\n      dup2\n        /* \"#utility.yul\":1210:1240   */\n      gt\n        /* \"#utility.yul\":1207:1324   */\n      iszero\n      tag_108\n      jumpi\n        /* \"#utility.yul\":1243:1322   */\n      tag_109\n      tag_100\n      jump\t// in\n    tag_109:\n        /* \"#utility.yul\":1207:1324   */\n    tag_108:\n        /* \"#utility.yul\":1357:1361   */\n      0x20\n        /* \"#utility.yul\":1349:1355   */\n      dup4\n        /* \"#utility.yul\":1345:1362   */\n      add\n        /* \"#utility.yul\":1333:1362   */\n      swap2\n      pop\n        /* \"#utility.yul\":1411:1414   */\n      dup4\n        /* \"#utility.yul\":1403:1407   */\n      0x20\n        /* \"#utility.yul\":1395:1401   */\n      dup3\n        /* \"#utility.yul\":1391:1408   */\n      mul\n        /* \"#utility.yul\":1381:1389   */\n      dup4\n        /* \"#utility.yul\":1377:1409   */\n      add\n        /* \"#utility.yul\":1374:1415   */\n      gt\n        /* \"#utility.yul\":1371:1499   */\n      iszero\n      tag_110\n      jumpi\n        /* \"#utility.yul\":1418:1497   */\n      tag_111\n      tag_103\n      jump\t// in\n    tag_111:\n        /* \"#utility.yul\":1371:1499   */\n    tag_110:\n        /* \"#utility.yul\":929:1505   */\n      swap3\n      pop\n      swap3\n      swap1\n      pop\n      jump\t// out\n        /* \"#utility.yul\":1528:2096   */\n    tag_112:\n        /* \"#utility.yul\":1601:1609   */\n      0x00\n        /* \"#utility.yul\":1611:1617   */\n      dup1\n        /* \"#utility.yul\":1661:1664   */\n      dup4\n        /* \"#utility.yul\":1654:1658   */\n      0x1f\n        /* \"#utility.yul\":1646:1652   */\n      dup5\n        /* \"#utility.yul\":1642:1659   */\n      add\n        /* \"#utility.yul\":1638:1665   */\n      slt\n        /* \"#utility.yul\":1628:1750   */\n      tag_114\n      jumpi\n        /* \"#utility.yul\":1669:1748   */\n      tag_115\n      tag_97\n      jump\t// in\n    tag_115:\n        /* \"#utility.yul\":1628:1750   */\n    tag_114:\n        /* \"#utility.yul\":1782:1788   */\n      dup3\n        /* \"#utility.yul\":1769:1789   */\n      calldataload\n        /* \"#utility.yul\":1759:1789   */\n      swap1\n      pop\n        /* \"#utility.yul\":1812:1830   */\n      0xffffffffffffffff\n        /* \"#utility.yul\":1804:1810   */\n      dup2\n        /* \"#utility.yul\":1801:1831   */\n      gt\n        /* \"#utility.yul\":1798:1915   */\n      iszero\n      tag_116\n      jumpi\n        /* \"#utility.yul\":1834:1913   */\n      tag_117\n      tag_100\n      jump\t// in\n    tag_117:\n        /* \"#utility.yul\":1798:1915   */\n    tag_116:\n        /* \"#utility.yul\":1948:1952   */\n      0x20\n        /* \"#utility.yul\":1940:1946   */\n      dup4\n        /* \"#utility.yul\":1936:1953   */\n      add\n        /* \"#utility.yul\":1924:1953   */\n      swap2\n      pop\n        /* \"#utility.yul\":2002:2005   */\n      dup4\n        /* \"#utility.yul\":1994:1998   */\n      0x20\n        /* \"#utility.yul\":1986:1992   */\n      dup3\n        /* \"#utility.yul\":1982:1999   */\n      mul\n        /* \"#utility.yul\":1972:1980   */\n      dup4\n        /* \"#utility.yul\":1968:2000   */\n      add\n        /* \"#utility.yul\":1965:2006   */\n      gt\n        /* \"#utility.yul\":1962:2090   */\n      iszero\n      tag_118\n      jumpi\n        /* \"#utility.yul\":2009:2088   */\n      tag_119\n      tag_103\n      jump\t// in\n    tag_119:\n        /* \"#utility.yul\":1962:2090   */\n    tag_118:\n        /* \"#utility.yul\":1528:2096   */\n      swap3\n      pop\n      swap3\n      swap1\n      pop\n      jump\t// out\n        /* \"#utility.yul\":2102:2239   */\n    tag_120:\n        /* \"#utility.yul\":2156:2161   */\n      0x00\n        /* \"#utility.yul\":2187:2193   */\n      dup2\n        /* \"#utility.yul\":2181:2194   */\n      mload\n        /* \"#utility.yul\":2172:2194   */\n      swap1\n      pop\n        /* \"#utility.yul\":2203:2233   */\n      tag_122\n        /* \"#utility.yul\":2227:2232   */\n      dup2\n        /* \"#utility.yul\":2203:2233   */\n      tag_123\n      jump\t// in\n    tag_122:\n        /* \"#utility.yul\":2102:2239   */\n      swap3\n      swap2\n      pop\n      pop\n      jump\t// out\n        /* \"#utility.yul\":2245:2388   */\n    tag_124:\n        /* \"#utility.yul\":2302:2307   */\n      0x00\n        /* \"#utility.yul\":2333:2339   */\n      dup2\n        /* \"#utility.yul\":2327:2340   */\n      mload\n        /* \"#utility.yul\":2318:2340   */\n      swap1\n      pop\n        /* \"#utility.yul\":2349:2382   */\n      tag_126\n        /* \"#utility.yul\":2376:2381   */\n      dup2\n        /* \"#utility.yul\":2349:2382   */\n      tag_127\n      jump\t// in\n    tag_126:\n        /* \"#utility.yul\":2245:2388   */\n      swap3\n      swap2\n      pop\n      pop\n      jump\t// out\n        /* \"#utility.yul\":2394:2723   */\n    tag_43:\n        /* \"#utility.yul\":2453:2459   */\n      0x00\n        /* \"#utility.yul\":2502:2504   */\n      0x20\n        /* \"#utility.yul\":2490:2499   */\n      dup3\n        /* \"#utility.yul\":2481:2488   */\n      dup5\n        /* \"#utility.yul\":2477:2500   */\n      sub\n        /* \"#utility.yul\":2473:2505   */\n      slt\n        /* \"#utility.yul\":2470:2589   */\n      iszero\n      tag_129\n      jumpi\n        /* \"#utility.yul\":2508:2587   */\n      tag_130\n      tag_131\n      jump\t// in\n    tag_130:\n        /* \"#utility.yul\":2470:2589   */\n    tag_129:\n        /* \"#utility.yul\":2628:2629   */\n      0x00\n        /* \"#utility.yul\":2653:2706   */\n      tag_132\n        /* \"#utility.yul\":2698:2705   */\n      dup5\n        /* \"#utility.yul\":2689:2695   */\n      dup3\n        /* \"#utility.yul\":2678:2687   */\n      dup6\n        /* \"#utility.yul\":2674:2696   */\n      add\n        /* \"#utility.yul\":2653:2706   */\n      tag_85\n      jump\t// in\n    tag_132:\n        /* \"#utility.yul\":2643:2706   */\n      swap2\n      pop\n        /* \"#utility.yul\":2599:2716   */\n      pop\n        /* \"#utility.yul\":2394:2723   */\n      swap3\n      swap2\n      pop\n      pop\n      jump\t// out\n        /* \"#utility.yul\":2729:3074   */\n    tag_68:\n        /* \"#utility.yul\":2796:2802   */\n      0x00\n        /* \"#utility.yul\":2845:2847   */\n      0x20\n        /* \"#utility.yul\":2833:2842   */\n      dup3\n        /* \"#utility.yul\":2824:2831   */\n      dup5\n        /* \"#utility.yul\":2820:2843   */\n      sub\n        /* \"#utility.yul\":2816:2848   */\n      slt\n        /* \"#utility.yul\":2813:2932   */\n      iszero\n      tag_134\n      jumpi\n        /* \"#utility.yul\":2851:2930   */\n      tag_135\n      tag_131\n      jump\t// in\n    tag_135:\n        /* \"#utility.yul\":2813:2932   */\n    tag_134:\n        /* \"#utility.yul\":2971:2972   */\n      0x00\n        /* \"#utility.yul\":2996:3057   */\n      tag_136\n        /* \"#utility.yul\":3049:3056   */\n      dup5\n        /* \"#utility.yul\":3040:3046   */\n      dup3\n        /* \"#utility.yul\":3029:3038   */\n      dup6\n        /* \"#utility.yul\":3025:3047   */\n      add\n        /* \"#utility.yul\":2996:3057   */\n      tag_89\n      jump\t// in\n    tag_136:\n        /* \"#utility.yul\":2986:3057   */\n      swap2\n      pop\n        /* \"#utility.yul\":2942:3067   */\n      pop\n        /* \"#utility.yul\":2729:3074   */\n      swap3\n      swap2\n      pop\n      pop\n      jump\t// out\n        /* \"#utility.yul\":3080:4159   */\n    tag_8:\n        /* \"#utility.yul\":3211:3217   */\n      0x00\n        /* \"#utility.yul\":3219:3225   */\n      dup1\n        /* \"#utility.yul\":3227:3233   */\n      0x00\n        /* \"#utility.yul\":3235:3241   */\n      dup1\n        /* \"#utility.yul\":3243:3249   */\n      0x00\n        /* \"#utility.yul\":3292:3294   */\n      0x60\n        /* \"#utility.yul\":3280:3289   */\n      dup7\n        /* \"#utility.yul\":3271:3278   */\n      dup9\n        /* \"#utility.yul\":3267:3290   */\n      sub\n        /* \"#utility.yul\":3263:3295   */\n      slt\n        /* \"#utility.yul\":3260:3379   */\n      iszero\n      tag_138\n      jumpi\n        /* \"#utility.yul\":3298:3377   */\n      tag_139\n      tag_131\n      jump\t// in\n    tag_139:\n        /* \"#utility.yul\":3260:3379   */\n    tag_138:\n        /* \"#utility.yul\":3418:3419   */\n      0x00\n        /* \"#utility.yul\":3443:3496   */\n      tag_140\n        /* \"#utility.yul\":3488:3495   */\n      dup9\n        /* \"#utility.yul\":3479:3485   */\n      dup3\n        /* \"#utility.yul\":3468:3477   */\n      dup10\n        /* \"#utility.yul\":3464:3486   */\n      add\n        /* \"#utility.yul\":3443:3496   */\n      tag_85\n      jump\t// in\n    tag_140:\n        /* \"#utility.yul\":3433:3496   */\n      swap6\n      pop\n        /* \"#utility.yul\":3389:3506   */\n      pop\n        /* \"#utility.yul\":3573:3575   */\n      0x20\n        /* \"#utility.yul\":3562:3571   */\n      dup7\n        /* \"#utility.yul\":3558:3576   */\n      add\n        /* \"#utility.yul\":3545:3577   */\n      calldataload\n        /* \"#utility.yul\":3604:3622   */\n      0xffffffffffffffff\n        /* \"#utility.yul\":3596:3602   */\n      dup2\n        /* \"#utility.yul\":3593:3623   */\n      gt\n        /* \"#utility.yul\":3590:3707   */\n      iszero\n      tag_141\n      jumpi\n        /* \"#utility.yul\":3626:3705   */\n      tag_142\n      tag_143\n      jump\t// in\n    tag_142:\n        /* \"#utility.yul\":3590:3707   */\n    tag_141:\n        /* \"#utility.yul\":3739:3819   */\n      tag_144\n        /* \"#utility.yul\":3811:3818   */\n      dup9\n        /* \"#utility.yul\":3802:3808   */\n      dup3\n        /* \"#utility.yul\":3791:3800   */\n      dup10\n        /* \"#utility.yul\":3787:3809   */\n      add\n        /* \"#utility.yul\":3739:3819   */\n      tag_93\n      jump\t// in\n    tag_144:\n        /* \"#utility.yul\":3721:3819   */\n      swap5\n      pop\n      swap5\n      pop\n        /* \"#utility.yul\":3516:3829   */\n      pop\n        /* \"#utility.yul\":3896:3898   */\n      0x40\n        /* \"#utility.yul\":3885:3894   */\n      dup7\n        /* \"#utility.yul\":3881:3899   */\n      add\n        /* \"#utility.yul\":3868:3900   */\n      calldataload\n        /* \"#utility.yul\":3927:3945   */\n      0xffffffffffffffff\n        /* \"#utility.yul\":3919:3925   */\n      dup2\n        /* \"#utility.yul\":3916:3946   */\n      gt\n        /* \"#utility.yul\":3913:4030   */\n      iszero\n      tag_145\n      jumpi\n        /* \"#utility.yul\":3949:4028   */\n      tag_146\n      tag_143\n      jump\t// in\n    tag_146:\n        /* \"#utility.yul\":3913:4030   */\n    tag_145:\n        /* \"#utility.yul\":4062:4142   */\n      tag_147\n        /* \"#utility.yul\":4134:4141   */\n      dup9\n        /* \"#utility.yul\":4125:4131   */\n      dup3\n        /* \"#utility.yul\":4114:4123   */\n      dup10\n        /* \"#utility.yul\":4110:4132   */\n      add\n        /* \"#utility.yul\":4062:4142   */\n      tag_112\n      jump\t// in\n    tag_147:\n        /* \"#utility.yul\":4044:4142   */\n      swap3\n      pop\n      swap3\n      pop\n        /* \"#utility.yul\":3839:4152   */\n      pop\n        /* \"#utility.yul\":3080:4159   */\n      swap3\n      swap6\n      pop\n      swap3\n      swap6\n      swap1\n      swap4\n      pop\n      jump\t// out\n        /* \"#utility.yul\":4165:5115   */\n    tag_12:\n        /* \"#utility.yul\":4295:4301   */\n      0x00\n        /* \"#utility.yul\":4303:4309   */\n      dup1\n        /* \"#utility.yul\":4311:4317   */\n      0x00\n        /* \"#utility.yul\":4319:4325   */\n      dup1\n        /* \"#utility.yul\":4368:4370   */\n      0x40\n        /* \"#utility.yul\":4356:4365   */\n      dup6\n        /* \"#utility.yul\":4347:4354   */\n      dup8\n        /* \"#utility.yul\":4343:4366   */\n      sub\n        /* \"#utility.yul\":4339:4371   */\n      slt\n        /* \"#utility.yul\":4336:4455   */\n      iszero\n      tag_149\n      jumpi\n        /* \"#utility.yul\":4374:4453   */\n      tag_150\n      tag_131\n      jump\t// in\n    tag_150:\n        /* \"#utility.yul\":4336:4455   */\n    tag_149:\n        /* \"#utility.yul\":4522:4523   */\n      0x00\n        /* \"#utility.yul\":4511:4520   */\n      dup6\n        /* \"#utility.yul\":4507:4524   */\n      add\n        /* \"#utility.yul\":4494:4525   */\n      calldataload\n        /* \"#utility.yul\":4552:4570   */\n      0xffffffffffffffff\n        /* \"#utility.yul\":4544:4550   */\n      dup2\n        /* \"#utility.yul\":4541:4571   */\n      gt\n        /* \"#utility.yul\":4538:4655   */\n      iszero\n      tag_151\n      jumpi\n        /* \"#utility.yul\":4574:4653   */\n      tag_152\n      tag_143\n      jump\t// in\n    tag_152:\n        /* \"#utility.yul\":4538:4655   */\n    tag_151:\n        /* \"#utility.yul\":4687:4775   */\n      tag_153\n        /* \"#utility.yul\":4767:4774   */\n      dup8\n        /* \"#utility.yul\":4758:4764   */\n      dup3\n        /* \"#utility.yul\":4747:4756   */\n      dup9\n        /* \"#utility.yul\":4743:4765   */\n      add\n        /* \"#utility.yul\":4687:4775   */\n      tag_104\n      jump\t// in\n    tag_153:\n        /* \"#utility.yul\":4669:4775   */\n      swap5\n      pop\n      swap5\n      pop\n        /* \"#utility.yul\":4465:4785   */\n      pop\n        /* \"#utility.yul\":4852:4854   */\n      0x20\n        /* \"#utility.yul\":4841:4850   */\n      dup6\n        /* \"#utility.yul\":4837:4855   */\n      add\n        /* \"#utility.yul\":4824:4856   */\n      calldataload\n        /* \"#utility.yul\":4883:4901   */\n      0xffffffffffffffff\n        /* \"#utility.yul\":4875:4881   */\n      dup2\n        /* \"#utility.yul\":4872:4902   */\n      gt\n        /* \"#utility.yul\":4869:4986   */\n      iszero\n      tag_154\n      jumpi\n        /* \"#utility.yul\":4905:4984   */\n      tag_155\n      tag_143\n      jump\t// in\n    tag_155:\n        /* \"#utility.yul\":4869:4986   */\n    tag_154:\n        /* \"#utility.yul\":5018:5098   */\n      tag_156\n        /* \"#utility.yul\":5090:5097   */\n      dup8\n        /* \"#utility.yul\":5081:5087   */\n      dup3\n        /* \"#utility.yul\":5070:5079   */\n      dup9\n        /* \"#utility.yul\":5066:5088   */\n      add\n        /* \"#utility.yul\":5018:5098   */\n      tag_112\n      jump\t// in\n    tag_156:\n        /* \"#utility.yul\":5000:5098   */\n      swap3\n      pop\n      swap3\n      pop\n        /* \"#utility.yul\":4795:5108   */\n      pop\n        /* \"#utility.yul\":4165:5115   */\n      swap3\n      swap6\n      swap2\n      swap5\n      pop\n      swap3\n      pop\n      jump\t// out\n        /* \"#utility.yul\":5121:5680   */\n    tag_17:\n        /* \"#utility.yul\":5207:5213   */\n      0x00\n        /* \"#utility.yul\":5215:5221   */\n      dup1\n        /* \"#utility.yul\":5264:5266   */\n      0x20\n        /* \"#utility.yul\":5252:5261   */\n      dup4\n        /* \"#utility.yul\":5243:5250   */\n      dup6\n        /* \"#utility.yul\":5239:5262   */\n      sub\n        /* \"#utility.yul\":5235:5267   */\n      slt\n        /* \"#utility.yul\":5232:5351   */\n      iszero\n      tag_158\n      jumpi\n        /* \"#utility.yul\":5270:5349   */\n      tag_159\n      tag_131\n      jump\t// in\n    tag_159:\n        /* \"#utility.yul\":5232:5351   */\n    tag_158:\n        /* \"#utility.yul\":5418:5419   */\n      0x00\n        /* \"#utility.yul\":5407:5416   */\n      dup4\n        /* \"#utility.yul\":5403:5420   */\n      add\n        /* \"#utility.yul\":5390:5421   */\n      calldataload\n        /* \"#utility.yul\":5448:5466   */\n      0xffffffffffffffff\n        /* \"#utility.yul\":5440:5446   */\n      dup2\n        /* \"#utility.yul\":5437:5467   */\n      gt\n        /* \"#utility.yul\":5434:5551   */\n      iszero\n      tag_160\n      jumpi\n        /* \"#utility.yul\":5470:5549   */\n      tag_161\n      tag_143\n      jump\t// in\n    tag_161:\n        /* \"#utility.yul\":5434:5551   */\n    tag_160:\n        /* \"#utility.yul\":5583:5663   */\n      tag_162\n        /* \"#utility.yul\":5655:5662   */\n      dup6\n        /* \"#utility.yul\":5646:5652   */\n      dup3\n        /* \"#utility.yul\":5635:5644   */\n      dup7\n        /* \"#utility.yul\":5631:5653   */\n      add\n        /* \"#utility.yul\":5583:5663   */\n      tag_112\n      jump\t// in\n    tag_162:\n        /* \"#utility.yul\":5565:5663   */\n      swap3\n      pop\n      swap3\n      pop\n        /* \"#utility.yul\":5361:5673   */\n      pop\n        /* \"#utility.yul\":5121:5680   */\n      swap3\n      pop\n      swap3\n      swap1\n      pop\n      jump\t// out\n        /* \"#utility.yul\":5686:6031   */\n    tag_52:\n        /* \"#utility.yul\":5753:5759   */\n      0x00\n        /* \"#utility.yul\":5802:5804   */\n      0x20\n        /* \"#utility.yul\":5790:5799   */\n      dup3\n        /* \"#utility.yul\":5781:5788   */\n      dup5\n        /* \"#utility.yul\":5777:5800   */\n      sub\n        /* \"#utility.yul\":5773:5805   */\n      slt\n        /* \"#utility.yul\":5770:5889   */\n      iszero\n      tag_164\n      jumpi\n        /* \"#utility.yul\":5808:5887   */\n      tag_165\n      tag_131\n      jump\t// in\n    tag_165:\n        /* \"#utility.yul\":5770:5889   */\n    tag_164:\n        /* \"#utility.yul\":5928:5929   */\n      0x00\n        /* \"#utility.yul\":5953:6014   */\n      tag_166\n        /* \"#utility.yul\":6006:6013   */\n      dup5\n        /* \"#utility.yul\":5997:6003   */\n      dup3\n        /* \"#utility.yul\":5986:5995   */\n      dup6\n        /* \"#utility.yul\":5982:6004   */\n      add\n        /* \"#utility.yul\":5953:6014   */\n      tag_120\n      jump\t// in\n    tag_166:\n        /* \"#utility.yul\":5943:6014   */\n      swap2\n      pop\n        /* \"#utility.yul\":5899:6024   */\n      pop\n        /* \"#utility.yul\":5686:6031   */\n      swap3\n      swap2\n      pop\n      pop\n      jump\t// out\n        /* \"#utility.yul\":6037:6388   */\n    tag_32:\n        /* \"#utility.yul\":6107:6113   */\n      0x00\n        /* \"#utility.yul\":6156:6158   */\n      0x20\n        /* \"#utility.yul\":6144:6153   */\n      dup3\n        /* \"#utility.yul\":6135:6142   */\n      dup5\n        /* \"#utility.yul\":6131:6154   */\n      sub\n        /* \"#utility.yul\":6127:6159   */\n      slt\n        /* \"#utility.yul\":6124:6243   */\n      iszero\n      tag_168\n      jumpi\n        /* \"#utility.yul\":6162:6241   */\n      tag_169\n      tag_131\n      jump\t// in\n    tag_169:\n        /* \"#utility.yul\":6124:6243   */\n    tag_168:\n        /* \"#utility.yul\":6282:6283   */\n      0x00\n        /* \"#utility.yul\":6307:6371   */\n      tag_170\n        /* \"#utility.yul\":6363:6370   */\n      dup5\n        /* \"#utility.yul\":6354:6360   */\n      dup3\n        /* \"#utility.yul\":6343:6352   */\n      dup6\n        /* \"#utility.yul\":6339:6361   */\n      add\n        /* \"#utility.yul\":6307:6371   */\n      tag_124\n      jump\t// in\n    tag_170:\n        /* \"#utility.yul\":6297:6371   */\n      swap2\n      pop\n        /* \"#utility.yul\":6253:6381   */\n      pop\n        /* \"#utility.yul\":6037:6388   */\n      swap3\n      swap2\n      pop\n      pop\n      jump\t// out\n        /* \"#utility.yul\":6394:6512   */\n    tag_171:\n        /* \"#utility.yul\":6481:6505   */\n      tag_173\n        /* \"#utility.yul\":6499:6504   */\n      dup2\n        /* \"#utility.yul\":6481:6505   */\n      tag_174\n      jump\t// in\n    tag_173:\n        /* \"#utility.yul\":6476:6479   */\n      dup3\n        /* \"#utility.yul\":6469:6506   */\n      mstore\n        /* \"#utility.yul\":6394:6512   */\n      pop\n      pop\n      jump\t// out\n        /* \"#utility.yul\":6518:6884   */\n    tag_175:\n        /* \"#utility.yul\":6660:6663   */\n      0x00\n        /* \"#utility.yul\":6681:6748   */\n      tag_177\n        /* \"#utility.yul\":6745:6747   */\n      0x15\n        /* \"#utility.yul\":6740:6743   */\n      dup4\n        /* \"#utility.yul\":6681:6748   */\n      tag_178\n      jump\t// in\n    tag_177:\n        /* \"#utility.yul\":6674:6748   */\n      swap2\n      pop\n        /* \"#utility.yul\":6757:6850   */\n      tag_179\n        /* \"#utility.yul\":6846:6849   */\n      dup3\n        /* \"#utility.yul\":6757:6850   */\n      tag_180\n      jump\t// in\n    tag_179:\n        /* \"#utility.yul\":6875:6877   */\n      0x20\n        /* \"#utility.yul\":6870:6873   */\n      dup3\n        /* \"#utility.yul\":6866:6878   */\n      add\n        /* \"#utility.yul\":6859:6878   */\n      swap1\n      pop\n        /* \"#utility.yul\":6518:6884   */\n      swap2\n      swap1\n      pop\n      jump\t// out\n        /* \"#utility.yul\":6890:7256   */\n    tag_181:\n        /* \"#utility.yul\":7032:7035   */\n      0x00\n        /* \"#utility.yul\":7053:7120   */\n      tag_183\n        /* \"#utility.yul\":7117:7119   */\n      0x18\n        /* \"#utility.yul\":7112:7115   */\n      dup4\n        /* \"#utility.yul\":7053:7120   */\n      tag_178\n      jump\t// in\n    tag_183:\n        /* \"#utility.yul\":7046:7120   */\n      swap2\n      pop\n        /* \"#utility.yul\":7129:7222   */\n      tag_184\n        /* \"#utility.yul\":7218:7221   */\n      dup3\n        /* \"#utility.yul\":7129:7222   */\n      tag_185\n      jump\t// in\n    tag_184:\n        /* \"#utility.yul\":7247:7249   */\n      0x20\n        /* \"#utility.yul\":7242:7245   */\n      dup3\n        /* \"#utility.yul\":7238:7250   */\n      add\n        /* \"#utility.yul\":7231:7250   */\n      swap1\n      pop\n        /* \"#utility.yul\":6890:7256   */\n      swap2\n      swap1\n      pop\n      jump\t// out\n        /* \"#utility.yul\":7262:7628   */\n    tag_186:\n        /* \"#utility.yul\":7404:7407   */\n      0x00\n        /* \"#utility.yul\":7425:7492   */\n      tag_188\n        /* \"#utility.yul\":7489:7491   */\n      0x2a\n        /* \"#utility.yul\":7484:7487   */\n      dup4\n        /* \"#utility.yul\":7425:7492   */\n      tag_178\n      jump\t// in\n    tag_188:\n        /* \"#utility.yul\":7418:7492   */\n      swap2\n      pop\n        /* \"#utility.yul\":7501:7594   */\n      tag_189\n        /* \"#utility.yul\":7590:7593   */\n      dup3\n        /* \"#utility.yul\":7501:7594   */\n      tag_190\n      jump\t// in\n    tag_189:\n        /* \"#utility.yul\":7619:7621   */\n      0x40\n        /* \"#utility.yul\":7614:7617   */\n      dup3\n        /* \"#utility.yul\":7610:7622   */\n      add\n        /* \"#utility.yul\":7603:7622   */\n      swap1\n      pop\n        /* \"#utility.yul\":7262:7628   */\n      swap2\n      swap1\n      pop\n      jump\t// out\n        /* \"#utility.yul\":7634:7752   */\n    tag_191:\n        /* \"#utility.yul\":7721:7745   */\n      tag_193\n        /* \"#utility.yul\":7739:7744   */\n      dup2\n        /* \"#utility.yul\":7721:7745   */\n      tag_194\n      jump\t// in\n    tag_193:\n        /* \"#utility.yul\":7716:7719   */\n      dup3\n        /* \"#utility.yul\":7709:7746   */\n      mstore\n        /* \"#utility.yul\":7634:7752   */\n      pop\n      pop\n      jump\t// out\n        /* \"#utility.yul\":7758:8090   */\n    tag_27:\n        /* \"#utility.yul\":7879:7883   */\n      0x00\n        /* \"#utility.yul\":7917:7919   */\n      0x40\n        /* \"#utility.yul\":7906:7915   */\n      dup3\n        /* \"#utility.yul\":7902:7920   */\n      add\n        /* \"#utility.yul\":7894:7920   */\n      swap1\n      pop\n        /* \"#utility.yul\":7930:8001   */\n      tag_196\n        /* \"#utility.yul\":7998:7999   */\n      0x00\n        /* \"#utility.yul\":7987:7996   */\n      dup4\n        /* \"#utility.yul\":7983:8000   */\n      add\n        /* \"#utility.yul\":7974:7980   */\n      dup6\n        /* \"#utility.yul\":7930:8001   */\n      tag_171\n      jump\t// in\n    tag_196:\n        /* \"#utility.yul\":8011:8083   */\n      tag_197\n        /* \"#utility.yul\":8079:8081   */\n      0x20\n        /* \"#utility.yul\":8068:8077   */\n      dup4\n        /* \"#utility.yul\":8064:8082   */\n      add\n        /* \"#utility.yul\":8055:8061   */\n      dup5\n        /* \"#utility.yul\":8011:8083   */\n      tag_171\n      jump\t// in\n    tag_197:\n        /* \"#utility.yul\":7758:8090   */\n      swap4\n      swap3\n      pop\n      pop\n      pop\n      jump\t// out\n        /* \"#utility.yul\":8096:8538   */\n    tag_47:\n        /* \"#utility.yul\":8245:8249   */\n      0x00\n        /* \"#utility.yul\":8283:8285   */\n      0x60\n        /* \"#utility.yul\":8272:8281   */\n      dup3\n        /* \"#utility.yul\":8268:8286   */\n      add\n        /* \"#utility.yul\":8260:8286   */\n      swap1\n      pop\n        /* \"#utility.yul\":8296:8367   */\n      tag_199\n        /* \"#utility.yul\":8364:8365   */\n      0x00\n        /* \"#utility.yul\":8353:8362   */\n      dup4\n        /* \"#utility.yul\":8349:8366   */\n      add\n        /* \"#utility.yul\":8340:8346   */\n      dup7\n        /* \"#utility.yul\":8296:8367   */\n      tag_171\n      jump\t// in\n    tag_199:\n        /* \"#utility.yul\":8377:8449   */\n      tag_200\n        /* \"#utility.yul\":8445:8447   */\n      0x20\n        /* \"#utility.yul\":8434:8443   */\n      dup4\n        /* \"#utility.yul\":8430:8448   */\n      add\n        /* \"#utility.yul\":8421:8427   */\n      dup6\n        /* \"#utility.yul\":8377:8449   */\n      tag_171\n      jump\t// in\n    tag_200:\n        /* \"#utility.yul\":8459:8531   */\n      tag_201\n        /* \"#utility.yul\":8527:8529   */\n      0x40\n        /* \"#utility.yul\":8516:8525   */\n      dup4\n        /* \"#utility.yul\":8512:8530   */\n      add\n        /* \"#utility.yul\":8503:8509   */\n      dup5\n        /* \"#utility.yul\":8459:8531   */\n      tag_191\n      jump\t// in\n    tag_201:\n        /* \"#utility.yul\":8096:8538   */\n      swap5\n      swap4\n      pop\n      pop\n      pop\n      pop\n      jump\t// out\n        /* \"#utility.yul\":8544:8963   */\n    tag_61:\n        /* \"#utility.yul\":8710:8714   */\n      0x00\n        /* \"#utility.yul\":8748:8750   */\n      0x20\n        /* \"#utility.yul\":8737:8746   */\n      dup3\n        /* \"#utility.yul\":8733:8751   */\n      add\n        /* \"#utility.yul\":8725:8751   */\n      swap1\n      pop\n        /* \"#utility.yul\":8797:8806   */\n      dup2\n        /* \"#utility.yul\":8791:8795   */\n      dup2\n        /* \"#utility.yul\":8787:8807   */\n      sub\n        /* \"#utility.yul\":8783:8784   */\n      0x00\n        /* \"#utility.yul\":8772:8781   */\n      dup4\n        /* \"#utility.yul\":8768:8785   */\n      add\n        /* \"#utility.yul\":8761:8808   */\n      mstore\n        /* \"#utility.yul\":8825:8956   */\n      tag_203\n        /* \"#utility.yul\":8951:8955   */\n      dup2\n        /* \"#utility.yul\":8825:8956   */\n      tag_175\n      jump\t// in\n    tag_203:\n        /* \"#utility.yul\":8817:8956   */\n      swap1\n      pop\n        /* \"#utility.yul\":8544:8963   */\n      swap2\n      swap1\n      pop\n      jump\t// out\n        /* \"#utility.yul\":8969:9388   */\n    tag_35:\n        /* \"#utility.yul\":9135:9139   */\n      0x00\n        /* \"#utility.yul\":9173:9175   */\n      0x20\n        /* \"#utility.yul\":9162:9171   */\n      dup3\n        /* \"#utility.yul\":9158:9176   */\n      add\n        /* \"#utility.yul\":9150:9176   */\n      swap1\n      pop\n        /* \"#utility.yul\":9222:9231   */\n      dup2\n        /* \"#utility.yul\":9216:9220   */\n      dup2\n        /* \"#utility.yul\":9212:9232   */\n      sub\n        /* \"#utility.yul\":9208:9209   */\n      0x00\n        /* \"#utility.yul\":9197:9206   */\n      dup4\n        /* \"#utility.yul\":9193:9210   */\n      add\n        /* \"#utility.yul\":9186:9233   */\n      mstore\n        /* \"#utility.yul\":9250:9381   */\n      tag_205\n        /* \"#utility.yul\":9376:9380   */\n      dup2\n        /* \"#utility.yul\":9250:9381   */\n      tag_181\n      jump\t// in\n    tag_205:\n        /* \"#utility.yul\":9242:9381   */\n      swap1\n      pop\n        /* \"#utility.yul\":8969:9388   */\n      swap2\n      swap1\n      pop\n      jump\t// out\n        /* \"#utility.yul\":9394:9813   */\n    tag_24:\n        /* \"#utility.yul\":9560:9564   */\n      0x00\n        /* \"#utility.yul\":9598:9600   */\n      0x20\n        /* \"#utility.yul\":9587:9596   */\n      dup3\n        /* \"#utility.yul\":9583:9601   */\n      add\n        /* \"#utility.yul\":9575:9601   */\n      swap1\n      pop\n        /* \"#utility.yul\":9647:9656   */\n      dup2\n        /* \"#utility.yul\":9641:9645   */\n      dup2\n        /* \"#utility.yul\":9637:9657   */\n      sub\n        /* \"#utility.yul\":9633:9634   */\n      0x00\n        /* \"#utility.yul\":9622:9631   */\n      dup4\n        /* \"#utility.yul\":9618:9635   */\n      add\n        /* \"#utility.yul\":9611:9658   */\n      mstore\n        /* \"#utility.yul\":9675:9806   */\n      tag_207\n        /* \"#utility.yul\":9801:9805   */\n      dup2\n        /* \"#utility.yul\":9675:9806   */\n      tag_186\n      jump\t// in\n    tag_207:\n        /* \"#utility.yul\":9667:9806   */\n      swap1\n      pop\n        /* \"#utility.yul\":9394:9813   */\n      swap2\n      swap1\n      pop\n      jump\t// out\n        /* \"#utility.yul\":9819:10041   */\n    tag_20:\n        /* \"#utility.yul\":9912:9916   */\n      0x00\n        /* \"#utility.yul\":9950:9952   */\n      0x20\n        /* \"#utility.yul\":9939:9948   */\n      dup3\n        /* \"#utility.yul\":9935:9953   */\n      add\n        /* \"#utility.yul\":9927:9953   */\n      swap1\n      pop\n        /* \"#utility.yul\":9963:10034   */\n      tag_209\n        /* \"#utility.yul\":10031:10032   */\n      0x00\n        /* \"#utility.yul\":10020:10029   */\n      dup4\n        /* \"#utility.yul\":10016:10033   */\n      add\n        /* \"#utility.yul\":10007:10013   */\n      dup5\n        /* \"#utility.yul\":9963:10034   */\n      tag_191\n      jump\t// in\n    tag_209:\n        /* \"#utility.yul\":9819:10041   */\n      swap3\n      swap2\n      pop\n      pop\n      jump\t// out\n        /* \"#utility.yul\":10128:10297   */\n    tag_178:\n        /* \"#utility.yul\":10212:10223   */\n      0x00\n        /* \"#utility.yul\":10246:10252   */\n      dup3\n        /* \"#utility.yul\":10241:10244   */\n      dup3\n        /* \"#utility.yul\":10234:10253   */\n      mstore\n        /* \"#utility.yul\":10286:10290   */\n      0x20\n        /* \"#utility.yul\":10281:10284   */\n      dup3\n        /* \"#utility.yul\":10277:10291   */\n      add\n        /* \"#utility.yul\":10262:10291   */\n      swap1\n      pop\n        /* \"#utility.yul\":10128:10297   */\n      swap3\n      swap2\n      pop\n      pop\n      jump\t// out\n        /* \"#utility.yul\":10303:10608   */\n    tag_82:\n        /* \"#utility.yul\":10343:10346   */\n      0x00\n        /* \"#utility.yul\":10362:10382   */\n      tag_214\n        /* \"#utility.yul\":10380:10381   */\n      dup3\n        /* \"#utility.yul\":10362:10382   */\n      tag_194\n      jump\t// in\n    tag_214:\n        /* \"#utility.yul\":10357:10382   */\n      swap2\n      pop\n        /* \"#utility.yul\":10396:10416   */\n      tag_215\n        /* \"#utility.yul\":10414:10415   */\n      dup4\n        /* \"#utility.yul\":10396:10416   */\n      tag_194\n      jump\t// in\n    tag_215:\n        /* \"#utility.yul\":10391:10416   */\n      swap3\n      pop\n        /* \"#utility.yul\":10550:10551   */\n      dup3\n        /* \"#utility.yul\":10482:10548   */\n      0xffffffffffffffffffffffffffffffffffffffffffffffffffffffffffffffff\n        /* \"#utility.yul\":10478:10552   */\n      sub\n        /* \"#utility.yul\":10475:10476   */\n      dup3\n        /* \"#utility.yul\":10472:10553   */\n      gt\n        /* \"#utility.yul\":10469:10576   */\n      iszero\n      tag_216\n      jumpi\n        /* \"#utility.yul\":10556:10574   */\n      tag_217\n      tag_218\n      jump\t// in\n    tag_217:\n        /* \"#utility.yul\":10469:10576   */\n    tag_216:\n        /* \"#utility.yul\":10600:10601   */\n      dup3\n        /* \"#utility.yul\":10597:10598   */\n      dup3\n        /* \"#utility.yul\":10593:10602   */\n      add\n        /* \"#utility.yul\":10586:10602   */\n      swap1\n      pop\n        /* \"#utility.yul\":10303:10608   */\n      swap3\n      swap2\n      pop\n      pop\n      jump\t// out\n        /* \"#utility.yul\":10614:10710   */\n    tag_174:\n        /* \"#utility.yul\":10651:10658   */\n      0x00\n        /* \"#utility.yul\":10680:10704   */\n      tag_220\n        /* \"#utility.yul\":10698:10703   */\n      dup3\n        /* \"#utility.yul\":10680:10704   */\n      tag_221\n      jump\t// in\n    tag_220:\n        /* \"#utility.yul\":10669:10704   */\n      swap1\n      pop\n        /* \"#utility.yul\":10614:10710   */\n      swap2\n      swap1\n      pop\n      jump\t// out\n        /* \"#utility.yul\":10716:10820   */\n    tag_222:\n        /* \"#utility.yul\":10761:10768   */\n      0x00\n        /* \"#utility.yul\":10790:10814   */\n      tag_224\n        /* \"#utility.yul\":10808:10813   */\n      dup3\n        /* \"#utility.yul\":10790:10814   */\n      tag_221\n      jump\t// in\n    tag_224:\n        /* \"#utility.yul\":10779:10814   */\n      swap1\n      pop\n        /* \"#utility.yul\":10716:10820   */\n      swap2\n      swap1\n      pop\n      jump\t// out\n        /* \"#utility.yul\":10826:10916   */\n    tag_225:\n        /* \"#utility.yul\":10860:10867   */\n      0x00\n        /* \"#utility.yul\":10903:10908   */\n      dup2\n        /* \"#utility.yul\":10896:10909   */\n      iszero\n        /* \"#utility.yul\":10889:10910   */\n      iszero\n        /* \"#utility.yul\":10878:10910   */\n      swap1\n      pop\n        /* \"#utility.yul\":10826:10916   */\n      swap2\n      swap1\n      pop\n      jump\t// out\n        /* \"#utility.yul\":10922:11048   */\n    tag_221:\n        /* \"#utility.yul\":10959:10966   */\n      0x00\n        /* \"#utility.yul\":10999:11041   */\n      0xffffffffffffffffffffffffffffffffffffffff\n        /* \"#utility.yul\":10992:10997   */\n      dup3\n        /* \"#utility.yul\":10988:11042   */\n      and\n        /* \"#utility.yul\":10977:11042   */\n      swap1\n      pop\n        /* \"#utility.yul\":10922:11048   */\n      swap2\n      swap1\n      pop\n      jump\t// out\n        /* \"#utility.yul\":11054:11131   */\n    tag_194:\n        /* \"#utility.yul\":11091:11098   */\n      0x00\n        /* \"#utility.yul\":11120:11125   */\n      dup2\n        /* \"#utility.yul\":11109:11125   */\n      swap1\n      pop\n        /* \"#utility.yul\":11054:11131   */\n      swap2\n      swap1\n      pop\n      jump\t// out\n        /* \"#utility.yul\":11137:11223   */\n    tag_229:\n        /* \"#utility.yul\":11172:11179   */\n      0x00\n        /* \"#utility.yul\":11212:11216   */\n      0xff\n        /* \"#utility.yul\":11205:11210   */\n      dup3\n        /* \"#utility.yul\":11201:11217   */\n      and\n        /* \"#utility.yul\":11190:11217   */\n      swap1\n      pop\n        /* \"#utility.yul\":11137:11223   */\n      swap2\n      swap1\n      pop\n      jump\t// out\n        /* \"#utility.yul\":11229:11462   */\n    tag_74:\n        /* \"#utility.yul\":11268:11271   */\n      0x00\n        /* \"#utility.yul\":11291:11315   */\n      tag_232\n        /* \"#utility.yul\":11309:11314   */\n      dup3\n        /* \"#utility.yul\":11291:11315   */\n      tag_194\n      jump\t// in\n    tag_232:\n        /* \"#utility.yul\":11282:11315   */\n      swap2\n      pop\n        /* \"#utility.yul\":11337:11403   */\n      0xffffffffffffffffffffffffffffffffffffffffffffffffffffffffffffffff\n        /* \"#utility.yul\":11330:11335   */\n      dup3\n        /* \"#utility.yul\":11327:11404   */\n      eq\n        /* \"#utility.yul\":11324:11427   */\n      iszero\n      tag_233\n      jumpi\n        /* \"#utility.yul\":11407:11425   */\n      tag_234\n      tag_218\n      jump\t// in\n    tag_234:\n        /* \"#utility.yul\":11324:11427   */\n    tag_233:\n        /* \"#utility.yul\":11454:11455   */\n      0x01\n        /* \"#utility.yul\":11447:11452   */\n      dup3\n        /* \"#utility.yul\":11443:11456   */\n      add\n        /* \"#utility.yul\":11436:11456   */\n      swap1\n      pop\n        /* \"#utility.yul\":11229:11462   */\n      swap2\n      swap1\n      pop\n      jump\t// out\n        /* \"#utility.yul\":11468:11635   */\n    tag_54:\n        /* \"#utility.yul\":11505:11508   */\n      0x00\n        /* \"#utility.yul\":11528:11550   */\n      tag_236\n        /* \"#utility.yul\":11544:11549   */\n      dup3\n        /* \"#utility.yul\":11528:11550   */\n      tag_229\n      jump\t// in\n    tag_236:\n        /* \"#utility.yul\":11519:11550   */\n      swap2\n      pop\n        /* \"#utility.yul\":11572:11576   */\n      0xff\n        /* \"#utility.yul\":11565:11570   */\n      dup3\n        /* \"#utility.yul\":11562:11577   */\n      eq\n        /* \"#utility.yul\":11559:11600   */\n      iszero\n      tag_237\n      jumpi\n        /* \"#utility.yul\":11580:11598   */\n      tag_238\n      tag_218\n      jump\t// in\n    tag_238:\n        /* \"#utility.yul\":11559:11600   */\n    tag_237:\n        /* \"#utility.yul\":11627:11628   */\n      0x01\n        /* \"#utility.yul\":11620:11625   */\n      dup3\n        /* \"#utility.yul\":11616:11629   */\n      add\n        /* \"#utility.yul\":11609:11629   */\n      swap1\n      pop\n        /* \"#utility.yul\":11468:11635   */\n      swap2\n      swap1\n      pop\n      jump\t// out\n        /* \"#utility.yul\":11641:11821   */\n    tag_218:\n        /* \"#utility.yul\":11689:11766   */\n      0x4e487b7100000000000000000000000000000000000000000000000000000000\n        /* \"#utility.yul\":11686:11687   */\n      0x00\n        /* \"#utility.yul\":11679:11767   */\n      mstore\n        /* \"#utility.yul\":11786:11790   */\n      0x11\n        /* \"#utility.yul\":11783:11784   */\n      0x04\n        /* \"#utility.yul\":11776:11791   */\n      mstore\n        /* \"#utility.yul\":11810:11814   */\n      0x24\n        /* \"#utility.yul\":11807:11808   */\n      0x00\n        /* \"#utility.yul\":11800:11815   */\n      revert\n        /* \"#utility.yul\":11827:12007   */\n    tag_41:\n        /* \"#utility.yul\":11875:11952   */\n      0x4e487b7100000000000000000000000000000000000000000000000000000000\n        /* \"#utility.yul\":11872:11873   */\n      0x00\n        /* \"#utility.yul\":11865:11953   */\n      mstore\n        /* \"#utility.yul\":11972:11976   */\n      0x32\n        /* \"#utility.yul\":11969:11970   */\n      0x04\n        /* \"#utility.yul\":11962:11977   */\n      mstore\n        /* \"#utility.yul\":11996:12000   */\n      0x24\n        /* \"#utility.yul\":11993:11994   */\n      0x00\n        /* \"#utility.yul\":11986:12001   */\n      revert\n        /* \"#utility.yul\":12013:12130   */\n    tag_100:\n        /* \"#utility.yul\":12122:12123   */\n      0x00\n        /* \"#utility.yul\":12119:12120   */\n      dup1\n        /* \"#utility.yul\":12112:12124   */\n      revert\n        /* \"#utility.yul\":12136:12253   */\n    tag_97:\n        /* \"#utility.yul\":12245:12246   */\n      0x00\n        /* \"#utility.yul\":12242:12243   */\n      dup1\n        /* \"#utility.yul\":12235:12247   */\n      revert\n        /* \"#utility.yul\":12259:12376   */\n    tag_103:\n        /* \"#utility.yul\":12368:12369   */\n      0x00\n        /* \"#utility.yul\":12365:12366   */\n      dup1\n        /* \"#utility.yul\":12358:12370   */\n      revert\n        /* \"#utility.yul\":12382:12499   */\n    tag_143:\n        /* \"#utility.yul\":12491:12492   */\n      0x00\n        /* \"#utility.yul\":12488:12489   */\n      dup1\n        /* \"#utility.yul\":12481:12493   */\n      revert\n        /* \"#utility.yul\":12505:12622   */\n    tag_131:\n        /* \"#utility.yul\":12614:12615   */\n      0x00\n        /* \"#utility.yul\":12611:12612   */\n      dup1\n        /* \"#utility.yul\":12604:12616   */\n      revert\n        /* \"#utility.yul\":12628:12799   */\n    tag_180:\n        /* \"#utility.yul\":12768:12791   */\n      0x5472616e7366657220616d6f756e74206572726f720000000000000000000000\n        /* \"#utility.yul\":12764:12765   */\n      0x00\n        /* \"#utility.yul\":12756:12762   */\n      dup3\n        /* \"#utility.yul\":12752:12766   */\n      add\n        /* \"#utility.yul\":12745:12792   */\n      mstore\n        /* \"#utility.yul\":12628:12799   */\n      pop\n      jump\t// out\n        /* \"#utility.yul\":12805:12979   */\n    tag_185:\n        /* \"#utility.yul\":12945:12971   */\n      0x4e65656420417070726f766520455243323020746f6b656e0000000000000000\n        /* \"#utility.yul\":12941:12942   */\n      0x00\n        /* \"#utility.yul\":12933:12939   */\n      dup3\n        /* \"#utility.yul\":12929:12943   */\n      add\n        /* \"#utility.yul\":12922:12972   */\n      mstore\n        /* \"#utility.yul\":12805:12979   */\n      pop\n      jump\t// out\n        /* \"#utility.yul\":12985:13214   */\n    tag_190:\n        /* \"#utility.yul\":13125:13159   */\n      0x4c656e67746873206f662041646472657373657320616e6420416d6f756e7473\n        /* \"#utility.yul\":13121:13122   */\n      0x00\n        /* \"#utility.yul\":13113:13119   */\n      dup3\n        /* \"#utility.yul\":13109:13123   */\n      add\n        /* \"#utility.yul\":13102:13160   */\n      mstore\n        /* \"#utility.yul\":13194:13206   */\n      0x204e4f5420455155414c00000000000000000000000000000000000000000000\n        /* \"#utility.yul\":13189:13191   */\n      0x20\n        /* \"#utility.yul\":13181:13187   */\n      dup3\n        /* \"#utility.yul\":13177:13192   */\n      add\n        /* \"#utility.yul\":13170:13207   */\n      mstore\n        /* \"#utility.yul\":12985:13214   */\n      pop\n      jump\t// out\n        /* \"#utility.yul\":13220:13342   */\n    tag_88:\n        /* \"#utility.yul\":13293:13317   */\n      tag_250\n        /* \"#utility.yul\":13311:13316   */\n      dup2\n        /* \"#utility.yul\":13293:13317   */\n      tag_174\n      jump\t// in\n    tag_250:\n        /* \"#utility.yul\":13286:13291   */\n      dup2\n        /* \"#utility.yul\":13283:13318   */\n      eq\n        /* \"#utility.yul\":13273:13336   */\n      tag_251\n      jumpi\n        /* \"#utility.yul\":13332:13333   */\n      0x00\n        /* \"#utility.yul\":13329:13330   */\n      dup1\n        /* \"#utility.yul\":13322:13334   */\n      revert\n        /* \"#utility.yul\":13273:13336   */\n    tag_251:\n        /* \"#utility.yul\":13220:13342   */\n      pop\n      jump\t// out\n        /* \"#utility.yul\":13348:13486   */\n    tag_92:\n        /* \"#utility.yul\":13429:13461   */\n      tag_253\n        /* \"#utility.yul\":13455:13460   */\n      dup2\n        /* \"#utility.yul\":13429:13461   */\n      tag_222\n      jump\t// in\n    tag_253:\n        /* \"#utility.yul\":13422:13427   */\n      dup2\n        /* \"#utility.yul\":13419:13462   */\n      eq\n        /* \"#utility.yul\":13409:13480   */\n      tag_254\n      jumpi\n        /* \"#utility.yul\":13476:13477   */\n      0x00\n        /* \"#utility.yul\":13473:13474   */\n      dup1\n        /* \"#utility.yul\":13466:13478   */\n      revert\n        /* \"#utility.yul\":13409:13480   */\n    tag_254:\n        /* \"#utility.yul\":13348:13486   */\n      pop\n      jump\t// out\n        /* \"#utility.yul\":13492:13608   */\n    tag_123:\n        /* \"#utility.yul\":13562:13583   */\n      tag_256\n        /* \"#utility.yul\":13577:13582   */\n      dup2\n        /* \"#utility.yul\":13562:13583   */\n      tag_225\n      jump\t// in\n    tag_256:\n        /* \"#utility.yul\":13555:13560   */\n      dup2\n        /* \"#utility.yul\":13552:13584   */\n      eq\n        /* \"#utility.yul\":13542:13602   */\n      tag_257\n      jumpi\n        /* \"#utility.yul\":13598:13599   */\n      0x00\n        /* \"#utility.yul\":13595:13596   */\n      dup1\n        /* \"#utility.yul\":13588:13600   */\n      revert\n        /* \"#utility.yul\":13542:13602   */\n    tag_257:\n        /* \"#utility.yul\":13492:13608   */\n      pop\n      jump\t// out\n        /* \"#utility.yul\":13614:13736   */\n    tag_127:\n        /* \"#utility.yul\":13687:13711   */\n      tag_259\n        /* \"#utility.yul\":13705:13710   */\n      dup2\n        /* \"#utility.yul\":13687:13711   */\n      tag_194\n      jump\t// in\n    tag_259:\n        /* \"#utility.yul\":13680:13685   */\n      dup2\n        /* \"#utility.yul\":13677:13712   */\n      eq\n        /* \"#utility.yul\":13667:13730   */\n      tag_260\n      jumpi\n        /* \"#utility.yul\":13726:13727   */\n      0x00\n        /* \"#utility.yul\":13723:13724   */\n      dup1\n        /* \"#utility.yul\":13716:13728   */\n      revert\n        /* \"#utility.yul\":13667:13730   */\n    tag_260:\n        /* \"#utility.yul\":13614:13736   */\n      pop\n      jump\t// out\n\n    auxdata: 0xa264697066735822122017de38db199e3393a504ba79642264f643f2579ff25a38beab97affddaa47dec64736f6c63430008070033\n}\n",
				"bytecode": {
					"linkReferences": {},
					"object": "608060405234801561001057600080fd5b50610c3d806100206000396000f3fe6080604052600436106100345760003560e01c806341ed24a21461003957806377988cf814610062578063ccb8c1e01461007e575b600080fd5b34801561004557600080fd5b50610060600480360381019061005b9190610633565b6100bb565b005b61007c600480360381019061007791906106c8565b6102e7565b005b34801561008a57600080fd5b506100a560048036038101906100a09190610749565b61042f565b6040516100b29190610937565b60405180910390f35b818190508484905014610103576040517f08c379a00000000000000000000000000000000000000000000000000000000081526004016100fa90610917565b60405180910390fd5b60008590506000610114848461042f565b9050808273ffffffffffffffffffffffffffffffffffffffff1663dd62ed3e33306040518363ffffffff1660e01b8152600401610152929190610877565b60206040518083038186803b15801561016a57600080fd5b505afa15801561017e573d6000803e3d6000fd5b505050506040513d601f19601f820116820180604052508101906101a291906107c3565b10156101e3576040517f08c379a00000000000000000000000000000000000000000000000000000000081526004016101da906108f7565b60405180910390fd5b60005b868690508160ff1610156102dd578273ffffffffffffffffffffffffffffffffffffffff166323b872dd3389898560ff1681811061022757610226610ac2565b5b905060200201602081019061023c91906105d9565b88888660ff1681811061025257610251610ac2565b5b905060200201356040518463ffffffff1660e01b8152600401610277939291906108a0565b602060405180830381600087803b15801561029157600080fd5b505af11580156102a5573d6000803e3d6000fd5b505050506040513d601f19601f820116820180604052508101906102c99190610796565b5080806102d590610a69565b9150506101e6565b5050505050505050565b81819050848490501461032f576040517f08c379a000000000000000000000000000000000000000000000000000000000815260040161032690610917565b60405180910390fd5b600061033b838361042f565b905080341461037f576040517f08c379a0000000000000000000000000000000000000000000000000000000008152600401610376906108d7565b60405180910390fd5b60005b85859050811015610427578585828181106103a05761039f610ac2565b5b90506020020160208101906103b59190610606565b73ffffffffffffffffffffffffffffffffffffffff166108fc8585848181106103e1576103e0610ac2565b5b905060200201359081150290604051600060405180830381858888f19350505050158015610413573d6000803e3d6000fd5b50808061041f90610a20565b915050610382565b505050505050565b600080600090505b8383905081101561047c5783838281811061045557610454610ac2565b5b90506020020135826104679190610963565b9150808061047490610a20565b915050610437565b5092915050565b60008135905061049281610bab565b92915050565b6000813590506104a781610bc2565b92915050565b60008083601f8401126104c3576104c2610af6565b5b8235905067ffffffffffffffff8111156104e0576104df610af1565b5b6020830191508360208202830111156104fc576104fb610afb565b5b9250929050565b60008083601f84011261051957610518610af6565b5b8235905067ffffffffffffffff81111561053657610535610af1565b5b60208301915083602082028301111561055257610551610afb565b5b9250929050565b60008083601f84011261056f5761056e610af6565b5b8235905067ffffffffffffffff81111561058c5761058b610af1565b5b6020830191508360208202830111156105a8576105a7610afb565b5b9250929050565b6000815190506105be81610bd9565b92915050565b6000815190506105d381610bf0565b92915050565b6000602082840312156105ef576105ee610b05565b5b60006105fd84828501610483565b91505092915050565b60006020828403121561061c5761061b610b05565b5b600061062a84828501610498565b91505092915050565b60008060008060006060868803121561064f5761064e610b05565b5b600061065d88828901610483565b955050602086013567ffffffffffffffff81111561067e5761067d610b00565b5b61068a888289016104ad565b9450945050604086013567ffffffffffffffff8111156106ad576106ac610b00565b5b6106b988828901610559565b92509250509295509295909350565b600080600080604085870312156106e2576106e1610b05565b5b600085013567ffffffffffffffff811115610700576106ff610b00565b5b61070c87828801610503565b9450945050602085013567ffffffffffffffff81111561072f5761072e610b00565b5b61073b87828801610559565b925092505092959194509250565b600080602083850312156107605761075f610b05565b5b600083013567ffffffffffffffff81111561077e5761077d610b00565b5b61078a85828601610559565b92509250509250929050565b6000602082840312156107ac576107ab610b05565b5b60006107ba848285016105af565b91505092915050565b6000602082840312156107d9576107d8610b05565b5b60006107e7848285016105c4565b91505092915050565b6107f9816109b9565b82525050565b600061080c601583610952565b915061081782610b0a565b602082019050919050565b600061082f601883610952565b915061083a82610b33565b602082019050919050565b6000610852602a83610952565b915061085d82610b5c565b604082019050919050565b61087181610a09565b82525050565b600060408201905061088c60008301856107f0565b61089960208301846107f0565b9392505050565b60006060820190506108b560008301866107f0565b6108c260208301856107f0565b6108cf6040830184610868565b949350505050565b600060208201905081810360008301526108f0816107ff565b9050919050565b6000602082019050818103600083015261091081610822565b9050919050565b6000602082019050818103600083015261093081610845565b9050919050565b600060208201905061094c6000830184610868565b92915050565b600082825260208201905092915050565b600061096e82610a09565b915061097983610a09565b9250827fffffffffffffffffffffffffffffffffffffffffffffffffffffffffffffffff038211156109ae576109ad610a93565b5b828201905092915050565b60006109c4826109e9565b9050919050565b60006109d6826109e9565b9050919050565b60008115159050919050565b600073ffffffffffffffffffffffffffffffffffffffff82169050919050565b6000819050919050565b600060ff82169050919050565b6000610a2b82610a09565b91507fffffffffffffffffffffffffffffffffffffffffffffffffffffffffffffffff821415610a5e57610a5d610a93565b5b600182019050919050565b6000610a7482610a13565b915060ff821415610a8857610a87610a93565b5b600182019050919050565b7f4e487b7100000000000000000000000000000000000000000000000000000000600052601160045260246000fd5b7f4e487b7100000000000000000000000000000000000000000000000000000000600052603260045260246000fd5b600080fd5b600080fd5b600080fd5b600080fd5b600080fd5b7f5472616e7366657220616d6f756e74206572726f720000000000000000000000600082015250565b7f4e65656420417070726f766520455243323020746f6b656e0000000000000000600082015250565b7f4c656e67746873206f662041646472657373657320616e6420416d6f756e747360008201527f204e4f5420455155414c00000000000000000000000000000000000000000000602082015250565b610bb4816109b9565b8114610bbf57600080fd5b50565b610bcb816109cb565b8114610bd657600080fd5b50565b610be2816109dd565b8114610bed57600080fd5b50565b610bf981610a09565b8114610c0457600080fd5b5056fea264697066735822122017de38db199e3393a504ba79642264f643f2579ff25a38beab97affddaa47dec64736f6c63430008070033",
					"opcodes": "PUSH1 0x80 PUSH1 0x40 MSTORE CALLVALUE DUP1 ISZERO PUSH2 0x10 JUMPI PUSH1 0x0 DUP1 REVERT JUMPDEST POP PUSH2 0xC3D DUP1 PUSH2 0x20 PUSH1 0x0 CODECOPY PUSH1 0x0 RETURN INVALID PUSH1 0x80 PUSH1 0x40 MSTORE PUSH1 0x4 CALLDATASIZE LT PUSH2 0x34 JUMPI PUSH1 0x0 CALLDATALOAD PUSH1 0xE0 SHR DUP1 PUSH4 0x41ED24A2 EQ PUSH2 0x39 JUMPI DUP1 PUSH4 0x77988CF8 EQ PUSH2 0x62 JUMPI DUP1 PUSH4 0xCCB8C1E0 EQ PUSH2 0x7E JUMPI JUMPDEST PUSH1 0x0 DUP1 REVERT JUMPDEST CALLVALUE DUP1 ISZERO PUSH2 0x45 JUMPI PUSH1 0x0 DUP1 REVERT JUMPDEST POP PUSH2 0x60 PUSH1 0x4 DUP1 CALLDATASIZE SUB DUP2 ADD SWAP1 PUSH2 0x5B SWAP2 SWAP1 PUSH2 0x633 JUMP JUMPDEST PUSH2 0xBB JUMP JUMPDEST STOP JUMPDEST PUSH2 0x7C PUSH1 0x4 DUP1 CALLDATASIZE SUB DUP2 ADD SWAP1 PUSH2 0x77 SWAP2 SWAP1 PUSH2 0x6C8 JUMP JUMPDEST PUSH2 0x2E7 JUMP JUMPDEST STOP JUMPDEST CALLVALUE DUP1 ISZERO PUSH2 0x8A JUMPI PUSH1 0x0 DUP1 REVERT JUMPDEST POP PUSH2 0xA5 PUSH1 0x4 DUP1 CALLDATASIZE SUB DUP2 ADD SWAP1 PUSH2 0xA0 SWAP2 SWAP1 PUSH2 0x749 JUMP JUMPDEST PUSH2 0x42F JUMP JUMPDEST PUSH1 0x40 MLOAD PUSH2 0xB2 SWAP2 SWAP1 PUSH2 0x937 JUMP JUMPDEST PUSH1 0x40 MLOAD DUP1 SWAP2 SUB SWAP1 RETURN JUMPDEST DUP2 DUP2 SWAP1 POP DUP5 DUP5 SWAP1 POP EQ PUSH2 0x103 JUMPI PUSH1 0x40 MLOAD PUSH32 0x8C379A000000000000000000000000000000000000000000000000000000000 DUP2 MSTORE PUSH1 0x4 ADD PUSH2 0xFA SWAP1 PUSH2 0x917 JUMP JUMPDEST PUSH1 0x40 MLOAD DUP1 SWAP2 SUB SWAP1 REVERT JUMPDEST PUSH1 0x0 DUP6 SWAP1 POP PUSH1 0x0 PUSH2 0x114 DUP5 DUP5 PUSH2 0x42F JUMP JUMPDEST SWAP1 POP DUP1 DUP3 PUSH20 0xFFFFFFFFFFFFFFFFFFFFFFFFFFFFFFFFFFFFFFFF AND PUSH4 0xDD62ED3E CALLER ADDRESS PUSH1 0x40 MLOAD DUP4 PUSH4 0xFFFFFFFF AND PUSH1 0xE0 SHL DUP2 MSTORE PUSH1 0x4 ADD PUSH2 0x152 SWAP3 SWAP2 SWAP1 PUSH2 0x877 JUMP JUMPDEST PUSH1 0x20 PUSH1 0x40 MLOAD DUP1 DUP4 SUB DUP2 DUP7 DUP1 EXTCODESIZE ISZERO DUP1 ISZERO PUSH2 0x16A JUMPI PUSH1 0x0 DUP1 REVERT JUMPDEST POP GAS STATICCALL ISZERO DUP1 ISZERO PUSH2 0x17E JUMPI RETURNDATASIZE PUSH1 0x0 DUP1 RETURNDATACOPY RETURNDATASIZE PUSH1 0x0 REVERT JUMPDEST POP POP POP POP PUSH1 0x40 MLOAD RETURNDATASIZE PUSH1 0x1F NOT PUSH1 0x1F DUP3 ADD AND DUP3 ADD DUP1 PUSH1 0x40 MSTORE POP DUP2 ADD SWAP1 PUSH2 0x1A2 SWAP2 SWAP1 PUSH2 0x7C3 JUMP JUMPDEST LT ISZERO PUSH2 0x1E3 JUMPI PUSH1 0x40 MLOAD PUSH32 0x8C379A000000000000000000000000000000000000000000000000000000000 DUP2 MSTORE PUSH1 0x4 ADD PUSH2 0x1DA SWAP1 PUSH2 0x8F7 JUMP JUMPDEST PUSH1 0x40 MLOAD DUP1 SWAP2 SUB SWAP1 REVERT JUMPDEST PUSH1 0x0 JUMPDEST DUP7 DUP7 SWAP1 POP DUP2 PUSH1 0xFF AND LT ISZERO PUSH2 0x2DD JUMPI DUP3 PUSH20 0xFFFFFFFFFFFFFFFFFFFFFFFFFFFFFFFFFFFFFFFF AND PUSH4 0x23B872DD CALLER DUP10 DUP10 DUP6 PUSH1 0xFF AND DUP2 DUP2 LT PUSH2 0x227 JUMPI PUSH2 0x226 PUSH2 0xAC2 JUMP JUMPDEST JUMPDEST SWAP1 POP PUSH1 0x20 MUL ADD PUSH1 0x20 DUP2 ADD SWAP1 PUSH2 0x23C SWAP2 SWAP1 PUSH2 0x5D9 JUMP JUMPDEST DUP9 DUP9 DUP7 PUSH1 0xFF AND DUP2 DUP2 LT PUSH2 0x252 JUMPI PUSH2 0x251 PUSH2 0xAC2 JUMP JUMPDEST JUMPDEST SWAP1 POP PUSH1 0x20 MUL ADD CALLDATALOAD PUSH1 0x40 MLOAD DUP5 PUSH4 0xFFFFFFFF AND PUSH1 0xE0 SHL DUP2 MSTORE PUSH1 0x4 ADD PUSH2 0x277 SWAP4 SWAP3 SWAP2 SWAP1 PUSH2 0x8A0 JUMP JUMPDEST PUSH1 0x20 PUSH1 0x40 MLOAD DUP1 DUP4 SUB DUP2 PUSH1 0x0 DUP8 DUP1 EXTCODESIZE ISZERO DUP1 ISZERO PUSH2 0x291 JUMPI PUSH1 0x0 DUP1 REVERT JUMPDEST POP GAS CALL ISZERO DUP1 ISZERO PUSH2 0x2A5 JUMPI RETURNDATASIZE PUSH1 0x0 DUP1 RETURNDATACOPY RETURNDATASIZE PUSH1 0x0 REVERT JUMPDEST POP POP POP POP PUSH1 0x40 MLOAD RETURNDATASIZE PUSH1 0x1F NOT PUSH1 0x1F DUP3 ADD AND DUP3 ADD DUP1 PUSH1 0x40 MSTORE POP DUP2 ADD SWAP1 PUSH2 0x2C9 SWAP2 SWAP1 PUSH2 0x796 JUMP JUMPDEST POP DUP1 DUP1 PUSH2 0x2D5 SWAP1 PUSH2 0xA69 JUMP JUMPDEST SWAP2 POP POP PUSH2 0x1E6 JUMP JUMPDEST POP POP POP POP POP POP POP POP JUMP JUMPDEST DUP2 DUP2 SWAP1 POP DUP5 DUP5 SWAP1 POP EQ PUSH2 0x32F JUMPI PUSH1 0x40 MLOAD PUSH32 0x8C379A000000000000000000000000000000000000000000000000000000000 DUP2 MSTORE PUSH1 0x4 ADD PUSH2 0x326 SWAP1 PUSH2 0x917 JUMP JUMPDEST PUSH1 0x40 MLOAD DUP1 SWAP2 SUB SWAP1 REVERT JUMPDEST PUSH1 0x0 PUSH2 0x33B DUP4 DUP4 PUSH2 0x42F JUMP JUMPDEST SWAP1 POP DUP1 CALLVALUE EQ PUSH2 0x37F JUMPI PUSH1 0x40 MLOAD PUSH32 0x8C379A000000000000000000000000000000000000000000000000000000000 DUP2 MSTORE PUSH1 0x4 ADD PUSH2 0x376 SWAP1 PUSH2 0x8D7 JUMP JUMPDEST PUSH1 0x40 MLOAD DUP1 SWAP2 SUB SWAP1 REVERT JUMPDEST PUSH1 0x0 JUMPDEST DUP6 DUP6 SWAP1 POP DUP2 LT ISZERO PUSH2 0x427 JUMPI DUP6 DUP6 DUP3 DUP2 DUP2 LT PUSH2 0x3A0 JUMPI PUSH2 0x39F PUSH2 0xAC2 JUMP JUMPDEST JUMPDEST SWAP1 POP PUSH1 0x20 MUL ADD PUSH1 0x20 DUP2 ADD SWAP1 PUSH2 0x3B5 SWAP2 SWAP1 PUSH2 0x606 JUMP JUMPDEST PUSH20 0xFFFFFFFFFFFFFFFFFFFFFFFFFFFFFFFFFFFFFFFF AND PUSH2 0x8FC DUP6 DUP6 DUP5 DUP2 DUP2 LT PUSH2 0x3E1 JUMPI PUSH2 0x3E0 PUSH2 0xAC2 JUMP JUMPDEST JUMPDEST SWAP1 POP PUSH1 0x20 MUL ADD CALLDATALOAD SWAP1 DUP2 ISZERO MUL SWAP1 PUSH1 0x40 MLOAD PUSH1 0x0 PUSH1 0x40 MLOAD DUP1 DUP4 SUB DUP2 DUP6 DUP9 DUP9 CALL SWAP4 POP POP POP POP ISZERO DUP1 ISZERO PUSH2 0x413 JUMPI RETURNDATASIZE PUSH1 0x0 DUP1 RETURNDATACOPY RETURNDATASIZE PUSH1 0x0 REVERT JUMPDEST POP DUP1 DUP1 PUSH2 0x41F SWAP1 PUSH2 0xA20 JUMP JUMPDEST SWAP2 POP POP PUSH2 0x382 JUMP JUMPDEST POP POP POP POP POP POP JUMP JUMPDEST PUSH1 0x0 DUP1 PUSH1 0x0 SWAP1 POP JUMPDEST DUP4 DUP4 SWAP1 POP DUP2 LT ISZERO PUSH2 0x47C JUMPI DUP4 DUP4 DUP3 DUP2 DUP2 LT PUSH2 0x455 JUMPI PUSH2 0x454 PUSH2 0xAC2 JUMP JUMPDEST JUMPDEST SWAP1 POP PUSH1 0x20 MUL ADD CALLDATALOAD DUP3 PUSH2 0x467 SWAP2 SWAP1 PUSH2 0x963 JUMP JUMPDEST SWAP2 POP DUP1 DUP1 PUSH2 0x474 SWAP1 PUSH2 0xA20 JUMP JUMPDEST SWAP2 POP POP PUSH2 0x437 JUMP JUMPDEST POP SWAP3 SWAP2 POP POP JUMP JUMPDEST PUSH1 0x0 DUP2 CALLDATALOAD SWAP1 POP PUSH2 0x492 DUP2 PUSH2 0xBAB JUMP JUMPDEST SWAP3 SWAP2 POP POP JUMP JUMPDEST PUSH1 0x0 DUP2 CALLDATALOAD SWAP1 POP PUSH2 0x4A7 DUP2 PUSH2 0xBC2 JUMP JUMPDEST SWAP3 SWAP2 POP POP JUMP JUMPDEST PUSH1 0x0 DUP1 DUP4 PUSH1 0x1F DUP5 ADD SLT PUSH2 0x4C3 JUMPI PUSH2 0x4C2 PUSH2 0xAF6 JUMP JUMPDEST JUMPDEST DUP3 CALLDATALOAD SWAP1 POP PUSH8 0xFFFFFFFFFFFFFFFF DUP2 GT ISZERO PUSH2 0x4E0 JUMPI PUSH2 0x4DF PUSH2 0xAF1 JUMP JUMPDEST JUMPDEST PUSH1 0x20 DUP4 ADD SWAP2 POP DUP4 PUSH1 0x20 DUP3 MUL DUP4 ADD GT ISZERO PUSH2 0x4FC JUMPI PUSH2 0x4FB PUSH2 0xAFB JUMP JUMPDEST JUMPDEST SWAP3 POP SWAP3 SWAP1 POP JUMP JUMPDEST PUSH1 0x0 DUP1 DUP4 PUSH1 0x1F DUP5 ADD SLT PUSH2 0x519 JUMPI PUSH2 0x518 PUSH2 0xAF6 JUMP JUMPDEST JUMPDEST DUP3 CALLDATALOAD SWAP1 POP PUSH8 0xFFFFFFFFFFFFFFFF DUP2 GT ISZERO PUSH2 0x536 JUMPI PUSH2 0x535 PUSH2 0xAF1 JUMP JUMPDEST JUMPDEST PUSH1 0x20 DUP4 ADD SWAP2 POP DUP4 PUSH1 0x20 DUP3 MUL DUP4 ADD GT ISZERO PUSH2 0x552 JUMPI PUSH2 0x551 PUSH2 0xAFB JUMP JUMPDEST JUMPDEST SWAP3 POP SWAP3 SWAP1 POP JUMP JUMPDEST PUSH1 0x0 DUP1 DUP4 PUSH1 0x1F DUP5 ADD SLT PUSH2 0x56F JUMPI PUSH2 0x56E PUSH2 0xAF6 JUMP JUMPDEST JUMPDEST DUP3 CALLDATALOAD SWAP1 POP PUSH8 0xFFFFFFFFFFFFFFFF DUP2 GT ISZERO PUSH2 0x58C JUMPI PUSH2 0x58B PUSH2 0xAF1 JUMP JUMPDEST JUMPDEST PUSH1 0x20 DUP4 ADD SWAP2 POP DUP4 PUSH1 0x20 DUP3 MUL DUP4 ADD GT ISZERO PUSH2 0x5A8 JUMPI PUSH2 0x5A7 PUSH2 0xAFB JUMP JUMPDEST JUMPDEST SWAP3 POP SWAP3 SWAP1 POP JUMP JUMPDEST PUSH1 0x0 DUP2 MLOAD SWAP1 POP PUSH2 0x5BE DUP2 PUSH2 0xBD9 JUMP JUMPDEST SWAP3 SWAP2 POP POP JUMP JUMPDEST PUSH1 0x0 DUP2 MLOAD SWAP1 POP PUSH2 0x5D3 DUP2 PUSH2 0xBF0 JUMP JUMPDEST SWAP3 SWAP2 POP POP JUMP JUMPDEST PUSH1 0x0 PUSH1 0x20 DUP3 DUP5 SUB SLT ISZERO PUSH2 0x5EF JUMPI PUSH2 0x5EE PUSH2 0xB05 JUMP JUMPDEST JUMPDEST PUSH1 0x0 PUSH2 0x5FD DUP5 DUP3 DUP6 ADD PUSH2 0x483 JUMP JUMPDEST SWAP2 POP POP SWAP3 SWAP2 POP POP JUMP JUMPDEST PUSH1 0x0 PUSH1 0x20 DUP3 DUP5 SUB SLT ISZERO PUSH2 0x61C JUMPI PUSH2 0x61B PUSH2 0xB05 JUMP JUMPDEST JUMPDEST PUSH1 0x0 PUSH2 0x62A DUP5 DUP3 DUP6 ADD PUSH2 0x498 JUMP JUMPDEST SWAP2 POP POP SWAP3 SWAP2 POP POP JUMP JUMPDEST PUSH1 0x0 DUP1 PUSH1 0x0 DUP1 PUSH1 0x0 PUSH1 0x60 DUP7 DUP9 SUB SLT ISZERO PUSH2 0x64F JUMPI PUSH2 0x64E PUSH2 0xB05 JUMP JUMPDEST JUMPDEST PUSH1 0x0 PUSH2 0x65D DUP9 DUP3 DUP10 ADD PUSH2 0x483 JUMP JUMPDEST SWAP6 POP POP PUSH1 0x20 DUP7 ADD CALLDATALOAD PUSH8 0xFFFFFFFFFFFFFFFF DUP2 GT ISZERO PUSH2 0x67E JUMPI PUSH2 0x67D PUSH2 0xB00 JUMP JUMPDEST JUMPDEST PUSH2 0x68A DUP9 DUP3 DUP10 ADD PUSH2 0x4AD JUMP JUMPDEST SWAP5 POP SWAP5 POP POP PUSH1 0x40 DUP7 ADD CALLDATALOAD PUSH8 0xFFFFFFFFFFFFFFFF DUP2 GT ISZERO PUSH2 0x6AD JUMPI PUSH2 0x6AC PUSH2 0xB00 JUMP JUMPDEST JUMPDEST PUSH2 0x6B9 DUP9 DUP3 DUP10 ADD PUSH2 0x559 JUMP JUMPDEST SWAP3 POP SWAP3 POP POP SWAP3 SWAP6 POP SWAP3 SWAP6 SWAP1 SWAP4 POP JUMP JUMPDEST PUSH1 0x0 DUP1 PUSH1 0x0 DUP1 PUSH1 0x40 DUP6 DUP8 SUB SLT ISZERO PUSH2 0x6E2 JUMPI PUSH2 0x6E1 PUSH2 0xB05 JUMP JUMPDEST JUMPDEST PUSH1 0x0 DUP6 ADD CALLDATALOAD PUSH8 0xFFFFFFFFFFFFFFFF DUP2 GT ISZERO PUSH2 0x700 JUMPI PUSH2 0x6FF PUSH2 0xB00 JUMP JUMPDEST JUMPDEST PUSH2 0x70C DUP8 DUP3 DUP9 ADD PUSH2 0x503 JUMP JUMPDEST SWAP5 POP SWAP5 POP POP PUSH1 0x20 DUP6 ADD CALLDATALOAD PUSH8 0xFFFFFFFFFFFFFFFF DUP2 GT ISZERO PUSH2 0x72F JUMPI PUSH2 0x72E PUSH2 0xB00 JUMP JUMPDEST JUMPDEST PUSH2 0x73B DUP8 DUP3 DUP9 ADD PUSH2 0x559 JUMP JUMPDEST SWAP3 POP SWAP3 POP POP SWAP3 SWAP6 SWAP2 SWAP5 POP SWAP3 POP JUMP JUMPDEST PUSH1 0x0 DUP1 PUSH1 0x20 DUP4 DUP6 SUB SLT ISZERO PUSH2 0x760 JUMPI PUSH2 0x75F PUSH2 0xB05 JUMP JUMPDEST JUMPDEST PUSH1 0x0 DUP4 ADD CALLDATALOAD PUSH8 0xFFFFFFFFFFFFFFFF DUP2 GT ISZERO PUSH2 0x77E JUMPI PUSH2 0x77D PUSH2 0xB00 JUMP JUMPDEST JUMPDEST PUSH2 0x78A DUP6 DUP3 DUP7 ADD PUSH2 0x559 JUMP JUMPDEST SWAP3 POP SWAP3 POP POP SWAP3 POP SWAP3 SWAP1 POP JUMP JUMPDEST PUSH1 0x0 PUSH1 0x20 DUP3 DUP5 SUB SLT ISZERO PUSH2 0x7AC JUMPI PUSH2 0x7AB PUSH2 0xB05 JUMP JUMPDEST JUMPDEST PUSH1 0x0 PUSH2 0x7BA DUP5 DUP3 DUP6 ADD PUSH2 0x5AF JUMP JUMPDEST SWAP2 POP POP SWAP3 SWAP2 POP POP JUMP JUMPDEST PUSH1 0x0 PUSH1 0x20 DUP3 DUP5 SUB SLT ISZERO PUSH2 0x7D9 JUMPI PUSH2 0x7D8 PUSH2 0xB05 JUMP JUMPDEST JUMPDEST PUSH1 0x0 PUSH2 0x7E7 DUP5 DUP3 DUP6 ADD PUSH2 0x5C4 JUMP JUMPDEST SWAP2 POP POP SWAP3 SWAP2 POP POP JUMP JUMPDEST PUSH2 0x7F9 DUP2 PUSH2 0x9B9 JUMP JUMPDEST DUP3 MSTORE POP POP JUMP JUMPDEST PUSH1 0x0 PUSH2 0x80C PUSH1 0x15 DUP4 PUSH2 0x952 JUMP JUMPDEST SWAP2 POP PUSH2 0x817 DUP3 PUSH2 0xB0A JUMP JUMPDEST PUSH1 0x20 DUP3 ADD SWAP1 POP SWAP2 SWAP1 POP JUMP JUMPDEST PUSH1 0x0 PUSH2 0x82F PUSH1 0x18 DUP4 PUSH2 0x952 JUMP JUMPDEST SWAP2 POP PUSH2 0x83A DUP3 PUSH2 0xB33 JUMP JUMPDEST PUSH1 0x20 DUP3 ADD SWAP1 POP SWAP2 SWAP1 POP JUMP JUMPDEST PUSH1 0x0 PUSH2 0x852 PUSH1 0x2A DUP4 PUSH2 0x952 JUMP JUMPDEST SWAP2 POP PUSH2 0x85D DUP3 PUSH2 0xB5C JUMP JUMPDEST PUSH1 0x40 DUP3 ADD SWAP1 POP SWAP2 SWAP1 POP JUMP JUMPDEST PUSH2 0x871 DUP2 PUSH2 0xA09 JUMP JUMPDEST DUP3 MSTORE POP POP JUMP JUMPDEST PUSH1 0x0 PUSH1 0x40 DUP3 ADD SWAP1 POP PUSH2 0x88C PUSH1 0x0 DUP4 ADD DUP6 PUSH2 0x7F0 JUMP JUMPDEST PUSH2 0x899 PUSH1 0x20 DUP4 ADD DUP5 PUSH2 0x7F0 JUMP JUMPDEST SWAP4 SWAP3 POP POP POP JUMP JUMPDEST PUSH1 0x0 PUSH1 0x60 DUP3 ADD SWAP1 POP PUSH2 0x8B5 PUSH1 0x0 DUP4 ADD DUP7 PUSH2 0x7F0 JUMP JUMPDEST PUSH2 0x8C2 PUSH1 0x20 DUP4 ADD DUP6 PUSH2 0x7F0 JUMP JUMPDEST PUSH2 0x8CF PUSH1 0x40 DUP4 ADD DUP5 PUSH2 0x868 JUMP JUMPDEST SWAP5 SWAP4 POP POP POP POP JUMP JUMPDEST PUSH1 0x0 PUSH1 0x20 DUP3 ADD SWAP1 POP DUP2 DUP2 SUB PUSH1 0x0 DUP4 ADD MSTORE PUSH2 0x8F0 DUP2 PUSH2 0x7FF JUMP JUMPDEST SWAP1 POP SWAP2 SWAP1 POP JUMP JUMPDEST PUSH1 0x0 PUSH1 0x20 DUP3 ADD SWAP1 POP DUP2 DUP2 SUB PUSH1 0x0 DUP4 ADD MSTORE PUSH2 0x910 DUP2 PUSH2 0x822 JUMP JUMPDEST SWAP1 POP SWAP2 SWAP1 POP JUMP JUMPDEST PUSH1 0x0 PUSH1 0x20 DUP3 ADD SWAP1 POP DUP2 DUP2 SUB PUSH1 0x0 DUP4 ADD MSTORE PUSH2 0x930 DUP2 PUSH2 0x845 JUMP JUMPDEST SWAP1 POP SWAP2 SWAP1 POP JUMP JUMPDEST PUSH1 0x0 PUSH1 0x20 DUP3 ADD SWAP1 POP PUSH2 0x94C PUSH1 0x0 DUP4 ADD DUP5 PUSH2 0x868 JUMP JUMPDEST SWAP3 SWAP2 POP POP JUMP JUMPDEST PUSH1 0x0 DUP3 DUP3 MSTORE PUSH1 0x20 DUP3 ADD SWAP1 POP SWAP3 SWAP2 POP POP JUMP JUMPDEST PUSH1 0x0 PUSH2 0x96E DUP3 PUSH2 0xA09 JUMP JUMPDEST SWAP2 POP PUSH2 0x979 DUP4 PUSH2 0xA09 JUMP JUMPDEST SWAP3 POP DUP3 PUSH32 0xFFFFFFFFFFFFFFFFFFFFFFFFFFFFFFFFFFFFFFFFFFFFFFFFFFFFFFFFFFFFFFFF SUB DUP3 GT ISZERO PUSH2 0x9AE JUMPI PUSH2 0x9AD PUSH2 0xA93 JUMP JUMPDEST JUMPDEST DUP3 DUP3 ADD SWAP1 POP SWAP3 SWAP2 POP POP JUMP JUMPDEST PUSH1 0x0 PUSH2 0x9C4 DUP3 PUSH2 0x9E9 JUMP JUMPDEST SWAP1 POP SWAP2 SWAP1 POP JUMP JUMPDEST PUSH1 0x0 PUSH2 0x9D6 DUP3 PUSH2 0x9E9 JUMP JUMPDEST SWAP1 POP SWAP2 SWAP1 POP JUMP JUMPDEST PUSH1 0x0 DUP2 ISZERO ISZERO SWAP1 POP SWAP2 SWAP1 POP JUMP JUMPDEST PUSH1 0x0 PUSH20 0xFFFFFFFFFFFFFFFFFFFFFFFFFFFFFFFFFFFFFFFF DUP3 AND SWAP1 POP SWAP2 SWAP1 POP JUMP JUMPDEST PUSH1 0x0 DUP2 SWAP1 POP SWAP2 SWAP1 POP JUMP JUMPDEST PUSH1 0x0 PUSH1 0xFF DUP3 AND SWAP1 POP SWAP2 SWAP1 POP JUMP JUMPDEST PUSH1 0x0 PUSH2 0xA2B DUP3 PUSH2 0xA09 JUMP JUMPDEST SWAP2 POP PUSH32 0xFFFFFFFFFFFFFFFFFFFFFFFFFFFFFFFFFFFFFFFFFFFFFFFFFFFFFFFFFFFFFFFF DUP3 EQ ISZERO PUSH2 0xA5E JUMPI PUSH2 0xA5D PUSH2 0xA93 JUMP JUMPDEST JUMPDEST PUSH1 0x1 DUP3 ADD SWAP1 POP SWAP2 SWAP1 POP JUMP JUMPDEST PUSH1 0x0 PUSH2 0xA74 DUP3 PUSH2 0xA13 JUMP JUMPDEST SWAP2 POP PUSH1 0xFF DUP3 EQ ISZERO PUSH2 0xA88 JUMPI PUSH2 0xA87 PUSH2 0xA93 JUMP JUMPDEST JUMPDEST PUSH1 0x1 DUP3 ADD SWAP1 POP SWAP2 SWAP1 POP JUMP JUMPDEST PUSH32 0x4E487B7100000000000000000000000000000000000000000000000000000000 PUSH1 0x0 MSTORE PUSH1 0x11 PUSH1 0x4 MSTORE PUSH1 0x24 PUSH1 0x0 REVERT JUMPDEST PUSH32 0x4E487B7100000000000000000000000000000000000000000000000000000000 PUSH1 0x0 MSTORE PUSH1 0x32 PUSH1 0x4 MSTORE PUSH1 0x24 PUSH1 0x0 REVERT JUMPDEST PUSH1 0x0 DUP1 REVERT JUMPDEST PUSH1 0x0 DUP1 REVERT JUMPDEST PUSH1 0x0 DUP1 REVERT JUMPDEST PUSH1 0x0 DUP1 REVERT JUMPDEST PUSH1 0x0 DUP1 REVERT JUMPDEST PUSH32 0x5472616E7366657220616D6F756E74206572726F720000000000000000000000 PUSH1 0x0 DUP3 ADD MSTORE POP JUMP JUMPDEST PUSH32 0x4E65656420417070726F766520455243323020746F6B656E0000000000000000 PUSH1 0x0 DUP3 ADD MSTORE POP JUMP JUMPDEST PUSH32 0x4C656E67746873206F662041646472657373657320616E6420416D6F756E7473 PUSH1 0x0 DUP3 ADD MSTORE PUSH32 0x204E4F5420455155414C00000000000000000000000000000000000000000000 PUSH1 0x20 DUP3 ADD MSTORE POP JUMP JUMPDEST PUSH2 0xBB4 DUP2 PUSH2 0x9B9 JUMP JUMPDEST DUP2 EQ PUSH2 0xBBF JUMPI PUSH1 0x0 DUP1 REVERT JUMPDEST POP JUMP JUMPDEST PUSH2 0xBCB DUP2 PUSH2 0x9CB JUMP JUMPDEST DUP2 EQ PUSH2 0xBD6 JUMPI PUSH1 0x0 DUP1 REVERT JUMPDEST POP JUMP JUMPDEST PUSH2 0xBE2 DUP2 PUSH2 0x9DD JUMP JUMPDEST DUP2 EQ PUSH2 0xBED JUMPI PUSH1 0x0 DUP1 REVERT JUMPDEST POP JUMP JUMPDEST PUSH2 0xBF9 DUP2 PUSH2 0xA09 JUMP JUMPDEST DUP2 EQ PUSH2 0xC04 JUMPI PUSH1 0x0 DUP1 REVERT JUMPDEST POP JUMP INVALID LOG2 PUSH5 0x6970667358 0x22 SLT KECCAK256 OR 0xDE CODESIZE 0xDB NOT SWAP15 CALLER SWAP4 0xA5 DIV 0xBA PUSH26 0x642264F643F2579FF25A38BEAB97AFFDDAA47DEC64736F6C6343 STOP ADDMOD SMOD STOP CALLER "
				},
				"gasEstimates": {
					"creation": {
						"codeDepositCost": "626600",
						"executionCost": "657",
						"totalCost": "627257"
					},
					"external": {
						"getSum(uint256[])": "infinite",
						"multiTransferETH(address[],uint256[])": "infinite",
						"multiTransferToken(address,address[],uint256[])": "infinite"
					}
				},
				"methodIdentifiers": {
					"getSum(uint256[])": "ccb8c1e0",
					"multiTransferETH(address[],uint256[])": "77988cf8",
					"multiTransferToken(address,address[],uint256[])": "41ed24a2"
				}
			},
			"storageLayout": {
				"storage": [],
				"types": null
			},
			"userdoc": {
				"kind": "user",
				"methods": {
					"multiTransferETH(address[],uint256[])": {
						"notice": "向多个地址转账ETH"
					},
					"multiTransferToken(address,address[],uint256[])": {
						"notice": "向多个地址转账ERC20代币，使用前需要先授权"
					}
				},
				"version": 1
			}
		}
	}
}