{
	"Solidity应用/Airdrop.sol": {
		"Airdrop": {
			"abi": [
				{
					"inputs": [
						{
							"internalType": "uint256[]",
							"name": "_arr",
							"type": "uint256[]"
						}
					],
					"name": "getSum",
					"outputs": [
						{
							"internalType": "uint256",
							"name": "sum",
							"type": "uint256"
						}
					],
					"stateMutability": "pure",
					"type": "function"
				},
				{
					"inputs": [
						{
							"internalType": "address",
							"name": "_token",
							"type": "address"
						},
						{
							"internalType": "address[]",
							"name": "_addresses",
							"type": "address[]"
						},
						{
							"internalType": "uint256[]",
							"name": "_amounts",
							"type": "uint256[]"
						}
					],
					"name": "multiTransferToken",
					"outputs": [],
					"stateMutability": "nonpayable",
					"type": "function"
				}
			],
			"devdoc": {
				"kind": "dev",
				"methods": {
					"multiTransferToken(address,address[],uint256[])": {
						"params": {
							"_addresses": "空投地址数组",
							"_amounts": "代币数量数组（每个地址的空投数量）",
							"_token": "转账的ERC20代币地址"
						}
					}
				},
				"version": 1
			},
			"evm": {
				"assembly": "    /* \"Solidity\\xe5\\xba\\x94\\xe7\\x94\\xa8/Airdrop.sol\":90:1420  contract Airdrop {\r... */\n  mstore(0x40, 0x80)\n  callvalue\n  dup1\n  iszero\n  tag_1\n  jumpi\n  0x00\n  dup1\n  revert\ntag_1:\n  pop\n  dataSize(sub_0)\n  dup1\n  dataOffset(sub_0)\n  0x00\n  codecopy\n  0x00\n  return\nstop\n\nsub_0: assembly {\n        /* \"Solidity\\xe5\\xba\\x94\\xe7\\x94\\xa8/Airdrop.sol\":90:1420  contract Airdrop {\r... */\n      mstore(0x40, 0x80)\n      callvalue\n      dup1\n      iszero\n      tag_1\n      jumpi\n      0x00\n      dup1\n      revert\n    tag_1:\n      pop\n      jumpi(tag_2, lt(calldatasize, 0x04))\n      shr(0xe0, calldataload(0x00))\n      dup1\n      0x41ed24a2\n      eq\n      tag_3\n      jumpi\n      dup1\n      0xccb8c1e0\n      eq\n      tag_4\n      jumpi\n    tag_2:\n      0x00\n      dup1\n      revert\n        /* \"Solidity\\xe5\\xba\\x94\\xe7\\x94\\xa8/Airdrop.sol\":577:1415  function multiTransferToken(\r... */\n    tag_3:\n      tag_5\n      0x04\n      dup1\n      calldatasize\n      sub\n      dup2\n      add\n      swap1\n      tag_6\n      swap2\n      swap1\n      tag_7\n      jump\t// in\n    tag_6:\n      tag_8\n      jump\t// in\n    tag_5:\n      stop\n        /* \"Solidity\\xe5\\xba\\x94\\xe7\\x94\\xa8/Airdrop.sol\":145:310  function getSum(uint256[] calldata _arr) public pure returns(uint sum)\r... */\n    tag_4:\n      tag_9\n      0x04\n      dup1\n      calldatasize\n      sub\n      dup2\n      add\n      swap1\n      tag_10\n      swap2\n      swap1\n      tag_11\n      jump\t// in\n    tag_10:\n      tag_12\n      jump\t// in\n    tag_9:\n      mload(0x40)\n      tag_13\n      swap2\n      swap1\n      tag_14\n      jump\t// in\n    tag_13:\n      mload(0x40)\n      dup1\n      swap2\n      sub\n      swap1\n      return\n        /* \"Solidity\\xe5\\xba\\x94\\xe7\\x94\\xa8/Airdrop.sol\":577:1415  function multiTransferToken(\r... */\n    tag_8:\n        /* \"Solidity\\xe5\\xba\\x94\\xe7\\x94\\xa8/Airdrop.sol\":832:840  _amounts */\n      dup2\n      dup2\n        /* \"Solidity\\xe5\\xba\\x94\\xe7\\x94\\xa8/Airdrop.sol\":832:847  _amounts.length */\n      swap1\n      pop\n        /* \"Solidity\\xe5\\xba\\x94\\xe7\\x94\\xa8/Airdrop.sol\":811:821  _addresses */\n      dup5\n      dup5\n        /* \"Solidity\\xe5\\xba\\x94\\xe7\\x94\\xa8/Airdrop.sol\":811:828  _addresses.length */\n      swap1\n      pop\n        /* \"Solidity\\xe5\\xba\\x94\\xe7\\x94\\xa8/Airdrop.sol\":811:847  _addresses.length == _amounts.length */\n      eq\n        /* \"Solidity\\xe5\\xba\\x94\\xe7\\x94\\xa8/Airdrop.sol\":803:894  require(_addresses.length == _amounts.length, \"Lengths of Addresses and Amounts NOT EQUAL\") */\n      tag_16\n      jumpi\n      mload(0x40)\n      0x08c379a000000000000000000000000000000000000000000000000000000000\n      dup2\n      mstore\n      0x04\n      add\n      tag_17\n      swap1\n      tag_18\n      jump\t// in\n    tag_17:\n      mload(0x40)\n      dup1\n      swap2\n      sub\n      swap1\n      revert\n    tag_16:\n        /* \"Solidity\\xe5\\xba\\x94\\xe7\\x94\\xa8/Airdrop.sol\":905:917  IERC20 token */\n      0x00\n        /* \"Solidity\\xe5\\xba\\x94\\xe7\\x94\\xa8/Airdrop.sol\":927:933  _token */\n      dup6\n        /* \"Solidity\\xe5\\xba\\x94\\xe7\\x94\\xa8/Airdrop.sol\":905:934  IERC20 token = IERC20(_token) */\n      swap1\n      pop\n        /* \"Solidity\\xe5\\xba\\x94\\xe7\\x94\\xa8/Airdrop.sol\":971:986  uint _amountSum */\n      0x00\n        /* \"Solidity\\xe5\\xba\\x94\\xe7\\x94\\xa8/Airdrop.sol\":989:1005  getSum(_amounts) */\n      tag_19\n        /* \"Solidity\\xe5\\xba\\x94\\xe7\\x94\\xa8/Airdrop.sol\":996:1004  _amounts */\n      dup5\n      dup5\n        /* \"Solidity\\xe5\\xba\\x94\\xe7\\x94\\xa8/Airdrop.sol\":989:995  getSum */\n      tag_12\n        /* \"Solidity\\xe5\\xba\\x94\\xe7\\x94\\xa8/Airdrop.sol\":989:1005  getSum(_amounts) */\n      jump\t// in\n    tag_19:\n        /* \"Solidity\\xe5\\xba\\x94\\xe7\\x94\\xa8/Airdrop.sol\":971:1005  uint _amountSum = getSum(_amounts) */\n      swap1\n      pop\n        /* \"Solidity\\xe5\\xba\\x94\\xe7\\x94\\xa8/Airdrop.sol\":1160:1170  _amountSum */\n      dup1\n        /* \"Solidity\\xe5\\xba\\x94\\xe7\\x94\\xa8/Airdrop.sol\":1114:1119  token */\n      dup3\n        /* \"Solidity\\xe5\\xba\\x94\\xe7\\x94\\xa8/Airdrop.sol\":1114:1129  token.allowance */\n      0xffffffffffffffffffffffffffffffffffffffff\n      and\n      0xdd62ed3e\n        /* \"Solidity\\xe5\\xba\\x94\\xe7\\x94\\xa8/Airdrop.sol\":1130:1140  msg.sender */\n      caller\n        /* \"Solidity\\xe5\\xba\\x94\\xe7\\x94\\xa8/Airdrop.sol\":1150:1154  this */\n      address\n        /* \"Solidity\\xe5\\xba\\x94\\xe7\\x94\\xa8/Airdrop.sol\":1114:1156  token.allowance(msg.sender, address(this)) */\n      mload(0x40)\n      dup4\n      0xffffffff\n      and\n      0xe0\n      shl\n      dup2\n      mstore\n      0x04\n      add\n      tag_20\n      swap3\n      swap2\n      swap1\n      tag_21\n      jump\t// in\n    tag_20:\n      0x20\n      mload(0x40)\n      dup1\n      dup4\n      sub\n      dup2\n      dup7\n      dup1\n      extcodesize\n      iszero\n      dup1\n      iszero\n      tag_22\n      jumpi\n      0x00\n      dup1\n      revert\n    tag_22:\n      pop\n      gas\n      staticcall\n      iszero\n      dup1\n      iszero\n      tag_24\n      jumpi\n      returndatasize\n      0x00\n      dup1\n      returndatacopy\n      revert(0x00, returndatasize)\n    tag_24:\n      pop\n      pop\n      pop\n      pop\n      mload(0x40)\n      returndatasize\n      not(0x1f)\n      0x1f\n      dup3\n      add\n      and\n      dup3\n      add\n      dup1\n      0x40\n      mstore\n      pop\n      dup2\n      add\n      swap1\n      tag_25\n      swap2\n      swap1\n      tag_26\n      jump\t// in\n    tag_25:\n        /* \"Solidity\\xe5\\xba\\x94\\xe7\\x94\\xa8/Airdrop.sol\":1114:1170  token.allowance(msg.sender, address(this)) >= _amountSum */\n      lt\n      iszero\n        /* \"Solidity\\xe5\\xba\\x94\\xe7\\x94\\xa8/Airdrop.sol\":1106:1199  require(token.allowance(msg.sender, address(this)) >= _amountSum, \"Need Approve ERC20 token\") */\n      tag_27\n      jumpi\n      mload(0x40)\n      0x08c379a000000000000000000000000000000000000000000000000000000000\n      dup2\n      mstore\n      0x04\n      add\n      tag_28\n      swap1\n      tag_29\n      jump\t// in\n    tag_28:\n      mload(0x40)\n      dup1\n      swap2\n      sub\n      swap1\n      revert\n    tag_27:\n        /* \"Solidity\\xe5\\xba\\x94\\xe7\\x94\\xa8/Airdrop.sol\":1286:1293  uint8 i */\n      0x00\n        /* \"Solidity\\xe5\\xba\\x94\\xe7\\x94\\xa8/Airdrop.sol\":1281:1408  for (uint8 i; i < _addresses.length; i++) {\r... */\n    tag_30:\n        /* \"Solidity\\xe5\\xba\\x94\\xe7\\x94\\xa8/Airdrop.sol\":1299:1309  _addresses */\n      dup7\n      dup7\n        /* \"Solidity\\xe5\\xba\\x94\\xe7\\x94\\xa8/Airdrop.sol\":1299:1316  _addresses.length */\n      swap1\n      pop\n        /* \"Solidity\\xe5\\xba\\x94\\xe7\\x94\\xa8/Airdrop.sol\":1295:1296  i */\n      dup2\n        /* \"Solidity\\xe5\\xba\\x94\\xe7\\x94\\xa8/Airdrop.sol\":1295:1316  i < _addresses.length */\n      0xff\n      and\n      lt\n        /* \"Solidity\\xe5\\xba\\x94\\xe7\\x94\\xa8/Airdrop.sol\":1281:1408  for (uint8 i; i < _addresses.length; i++) {\r... */\n      iszero\n      tag_31\n      jumpi\n        /* \"Solidity\\xe5\\xba\\x94\\xe7\\x94\\xa8/Airdrop.sol\":1338:1343  token */\n      dup3\n        /* \"Solidity\\xe5\\xba\\x94\\xe7\\x94\\xa8/Airdrop.sol\":1338:1356  token.transferFrom */\n      0xffffffffffffffffffffffffffffffffffffffff\n      and\n      0x23b872dd\n        /* \"Solidity\\xe5\\xba\\x94\\xe7\\x94\\xa8/Airdrop.sol\":1357:1367  msg.sender */\n      caller\n        /* \"Solidity\\xe5\\xba\\x94\\xe7\\x94\\xa8/Airdrop.sol\":1369:1379  _addresses */\n      dup10\n      dup10\n        /* \"Solidity\\xe5\\xba\\x94\\xe7\\x94\\xa8/Airdrop.sol\":1380:1381  i */\n      dup6\n        /* \"Solidity\\xe5\\xba\\x94\\xe7\\x94\\xa8/Airdrop.sol\":1369:1382  _addresses[i] */\n      0xff\n      and\n      dup2\n      dup2\n      lt\n      tag_33\n      jumpi\n      tag_34\n      tag_35\n      jump\t// in\n    tag_34:\n    tag_33:\n      swap1\n      pop\n      0x20\n      mul\n      add\n      0x20\n      dup2\n      add\n      swap1\n      tag_36\n      swap2\n      swap1\n      tag_37\n      jump\t// in\n    tag_36:\n        /* \"Solidity\\xe5\\xba\\x94\\xe7\\x94\\xa8/Airdrop.sol\":1384:1392  _amounts */\n      dup9\n      dup9\n        /* \"Solidity\\xe5\\xba\\x94\\xe7\\x94\\xa8/Airdrop.sol\":1393:1394  i */\n      dup7\n        /* \"Solidity\\xe5\\xba\\x94\\xe7\\x94\\xa8/Airdrop.sol\":1384:1395  _amounts[i] */\n      0xff\n      and\n      dup2\n      dup2\n      lt\n      tag_38\n      jumpi\n      tag_39\n      tag_35\n      jump\t// in\n    tag_39:\n    tag_38:\n      swap1\n      pop\n      0x20\n      mul\n      add\n      calldataload\n        /* \"Solidity\\xe5\\xba\\x94\\xe7\\x94\\xa8/Airdrop.sol\":1338:1396  token.transferFrom(msg.sender, _addresses[i], _amounts[i]) */\n      mload(0x40)\n      dup5\n      0xffffffff\n      and\n      0xe0\n      shl\n      dup2\n      mstore\n      0x04\n      add\n      tag_40\n      swap4\n      swap3\n      swap2\n      swap1\n      tag_41\n      jump\t// in\n    tag_40:\n      0x20\n      mload(0x40)\n      dup1\n      dup4\n      sub\n      dup2\n      0x00\n      dup8\n      dup1\n      extcodesize\n      iszero\n      dup1\n      iszero\n      tag_42\n      jumpi\n      0x00\n      dup1\n      revert\n    tag_42:\n      pop\n      gas\n      call\n      iszero\n      dup1\n      iszero\n      tag_44\n      jumpi\n      returndatasize\n      0x00\n      dup1\n      returndatacopy\n      revert(0x00, returndatasize)\n    tag_44:\n      pop\n      pop\n      pop\n      pop\n      mload(0x40)\n      returndatasize\n      not(0x1f)\n      0x1f\n      dup3\n      add\n      and\n      dup3\n      add\n      dup1\n      0x40\n      mstore\n      pop\n      dup2\n      add\n      swap1\n      tag_45\n      swap2\n      swap1\n      tag_46\n      jump\t// in\n    tag_45:\n      pop\n        /* \"Solidity\\xe5\\xba\\x94\\xe7\\x94\\xa8/Airdrop.sol\":1318:1321  i++ */\n      dup1\n      dup1\n      tag_47\n      swap1\n      tag_48\n      jump\t// in\n    tag_47:\n      swap2\n      pop\n      pop\n        /* \"Solidity\\xe5\\xba\\x94\\xe7\\x94\\xa8/Airdrop.sol\":1281:1408  for (uint8 i; i < _addresses.length; i++) {\r... */\n      jump(tag_30)\n    tag_31:\n      pop\n        /* \"Solidity\\xe5\\xba\\x94\\xe7\\x94\\xa8/Airdrop.sol\":728:1415  {\r... */\n      pop\n      pop\n        /* \"Solidity\\xe5\\xba\\x94\\xe7\\x94\\xa8/Airdrop.sol\":577:1415  function multiTransferToken(\r... */\n      pop\n      pop\n      pop\n      pop\n      pop\n      jump\t// out\n        /* \"Solidity\\xe5\\xba\\x94\\xe7\\x94\\xa8/Airdrop.sol\":145:310  function getSum(uint256[] calldata _arr) public pure returns(uint sum)\r... */\n    tag_12:\n        /* \"Solidity\\xe5\\xba\\x94\\xe7\\x94\\xa8/Airdrop.sol\":206:214  uint sum */\n      0x00\n        /* \"Solidity\\xe5\\xba\\x94\\xe7\\x94\\xa8/Airdrop.sol\":236:242  uint i */\n      dup1\n        /* \"Solidity\\xe5\\xba\\x94\\xe7\\x94\\xa8/Airdrop.sol\":245:246  0 */\n      0x00\n        /* \"Solidity\\xe5\\xba\\x94\\xe7\\x94\\xa8/Airdrop.sol\":236:246  uint i = 0 */\n      swap1\n      pop\n        /* \"Solidity\\xe5\\xba\\x94\\xe7\\x94\\xa8/Airdrop.sol\":232:302  for(uint i = 0; i < _arr.length; i++)\r... */\n    tag_50:\n        /* \"Solidity\\xe5\\xba\\x94\\xe7\\x94\\xa8/Airdrop.sol\":252:256  _arr */\n      dup4\n      dup4\n        /* \"Solidity\\xe5\\xba\\x94\\xe7\\x94\\xa8/Airdrop.sol\":252:263  _arr.length */\n      swap1\n      pop\n        /* \"Solidity\\xe5\\xba\\x94\\xe7\\x94\\xa8/Airdrop.sol\":248:249  i */\n      dup2\n        /* \"Solidity\\xe5\\xba\\x94\\xe7\\x94\\xa8/Airdrop.sol\":248:263  i < _arr.length */\n      lt\n        /* \"Solidity\\xe5\\xba\\x94\\xe7\\x94\\xa8/Airdrop.sol\":232:302  for(uint i = 0; i < _arr.length; i++)\r... */\n      iszero\n      tag_51\n      jumpi\n        /* \"Solidity\\xe5\\xba\\x94\\xe7\\x94\\xa8/Airdrop.sol\":295:299  _arr */\n      dup4\n      dup4\n        /* \"Solidity\\xe5\\xba\\x94\\xe7\\x94\\xa8/Airdrop.sol\":300:301  i */\n      dup3\n        /* \"Solidity\\xe5\\xba\\x94\\xe7\\x94\\xa8/Airdrop.sol\":295:302  _arr[i] */\n      dup2\n      dup2\n      lt\n      tag_53\n      jumpi\n      tag_54\n      tag_35\n      jump\t// in\n    tag_54:\n    tag_53:\n      swap1\n      pop\n      0x20\n      mul\n      add\n      calldataload\n        /* \"Solidity\\xe5\\xba\\x94\\xe7\\x94\\xa8/Airdrop.sol\":289:292  sum */\n      dup3\n        /* \"Solidity\\xe5\\xba\\x94\\xe7\\x94\\xa8/Airdrop.sol\":289:302  sum + _arr[i] */\n      tag_55\n      swap2\n      swap1\n      tag_56\n      jump\t// in\n    tag_55:\n        /* \"Solidity\\xe5\\xba\\x94\\xe7\\x94\\xa8/Airdrop.sol\":283:302  sum = sum + _arr[i] */\n      swap2\n      pop\n        /* \"Solidity\\xe5\\xba\\x94\\xe7\\x94\\xa8/Airdrop.sol\":265:268  i++ */\n      dup1\n      dup1\n      tag_57\n      swap1\n      tag_58\n      jump\t// in\n    tag_57:\n      swap2\n      pop\n      pop\n        /* \"Solidity\\xe5\\xba\\x94\\xe7\\x94\\xa8/Airdrop.sol\":232:302  for(uint i = 0; i < _arr.length; i++)\r... */\n      jump(tag_50)\n    tag_51:\n      pop\n        /* \"Solidity\\xe5\\xba\\x94\\xe7\\x94\\xa8/Airdrop.sol\":145:310  function getSum(uint256[] calldata _arr) public pure returns(uint sum)\r... */\n      swap3\n      swap2\n      pop\n      pop\n      jump\t// out\n        /* \"#utility.yul\":7:146   */\n    tag_60:\n        /* \"#utility.yul\":53:58   */\n      0x00\n        /* \"#utility.yul\":91:97   */\n      dup2\n        /* \"#utility.yul\":78:98   */\n      calldataload\n        /* \"#utility.yul\":69:98   */\n      swap1\n      pop\n        /* \"#utility.yul\":107:140   */\n      tag_62\n        /* \"#utility.yul\":134:139   */\n      dup2\n        /* \"#utility.yul\":107:140   */\n      tag_63\n      jump\t// in\n    tag_62:\n        /* \"#utility.yul\":7:146   */\n      swap3\n      swap2\n      pop\n      pop\n      jump\t// out\n        /* \"#utility.yul\":169:737   */\n    tag_64:\n        /* \"#utility.yul\":242:250   */\n      0x00\n        /* \"#utility.yul\":252:258   */\n      dup1\n        /* \"#utility.yul\":302:305   */\n      dup4\n        /* \"#utility.yul\":295:299   */\n      0x1f\n        /* \"#utility.yul\":287:293   */\n      dup5\n        /* \"#utility.yul\":283:300   */\n      add\n        /* \"#utility.yul\":279:306   */\n      slt\n        /* \"#utility.yul\":269:391   */\n      tag_66\n      jumpi\n        /* \"#utility.yul\":310:389   */\n      tag_67\n      tag_68\n      jump\t// in\n    tag_67:\n        /* \"#utility.yul\":269:391   */\n    tag_66:\n        /* \"#utility.yul\":423:429   */\n      dup3\n        /* \"#utility.yul\":410:430   */\n      calldataload\n        /* \"#utility.yul\":400:430   */\n      swap1\n      pop\n        /* \"#utility.yul\":453:471   */\n      0xffffffffffffffff\n        /* \"#utility.yul\":445:451   */\n      dup2\n        /* \"#utility.yul\":442:472   */\n      gt\n        /* \"#utility.yul\":439:556   */\n      iszero\n      tag_69\n      jumpi\n        /* \"#utility.yul\":475:554   */\n      tag_70\n      tag_71\n      jump\t// in\n    tag_70:\n        /* \"#utility.yul\":439:556   */\n    tag_69:\n        /* \"#utility.yul\":589:593   */\n      0x20\n        /* \"#utility.yul\":581:587   */\n      dup4\n        /* \"#utility.yul\":577:594   */\n      add\n        /* \"#utility.yul\":565:594   */\n      swap2\n      pop\n        /* \"#utility.yul\":643:646   */\n      dup4\n        /* \"#utility.yul\":635:639   */\n      0x20\n        /* \"#utility.yul\":627:633   */\n      dup3\n        /* \"#utility.yul\":623:640   */\n      mul\n        /* \"#utility.yul\":613:621   */\n      dup4\n        /* \"#utility.yul\":609:641   */\n      add\n        /* \"#utility.yul\":606:647   */\n      gt\n        /* \"#utility.yul\":603:731   */\n      iszero\n      tag_72\n      jumpi\n        /* \"#utility.yul\":650:729   */\n      tag_73\n      tag_74\n      jump\t// in\n    tag_73:\n        /* \"#utility.yul\":603:731   */\n    tag_72:\n        /* \"#utility.yul\":169:737   */\n      swap3\n      pop\n      swap3\n      swap1\n      pop\n      jump\t// out\n        /* \"#utility.yul\":760:1328   */\n    tag_75:\n        /* \"#utility.yul\":833:841   */\n      0x00\n        /* \"#utility.yul\":843:849   */\n      dup1\n        /* \"#utility.yul\":893:896   */\n      dup4\n        /* \"#utility.yul\":886:890   */\n      0x1f\n        /* \"#utility.yul\":878:884   */\n      dup5\n        /* \"#utility.yul\":874:891   */\n      add\n        /* \"#utility.yul\":870:897   */\n      slt\n        /* \"#utility.yul\":860:982   */\n      tag_77\n      jumpi\n        /* \"#utility.yul\":901:980   */\n      tag_78\n      tag_68\n      jump\t// in\n    tag_78:\n        /* \"#utility.yul\":860:982   */\n    tag_77:\n        /* \"#utility.yul\":1014:1020   */\n      dup3\n        /* \"#utility.yul\":1001:1021   */\n      calldataload\n        /* \"#utility.yul\":991:1021   */\n      swap1\n      pop\n        /* \"#utility.yul\":1044:1062   */\n      0xffffffffffffffff\n        /* \"#utility.yul\":1036:1042   */\n      dup2\n        /* \"#utility.yul\":1033:1063   */\n      gt\n        /* \"#utility.yul\":1030:1147   */\n      iszero\n      tag_79\n      jumpi\n        /* \"#utility.yul\":1066:1145   */\n      tag_80\n      tag_71\n      jump\t// in\n    tag_80:\n        /* \"#utility.yul\":1030:1147   */\n    tag_79:\n        /* \"#utility.yul\":1180:1184   */\n      0x20\n        /* \"#utility.yul\":1172:1178   */\n      dup4\n        /* \"#utility.yul\":1168:1185   */\n      add\n        /* \"#utility.yul\":1156:1185   */\n      swap2\n      pop\n        /* \"#utility.yul\":1234:1237   */\n      dup4\n        /* \"#utility.yul\":1226:1230   */\n      0x20\n        /* \"#utility.yul\":1218:1224   */\n      dup3\n        /* \"#utility.yul\":1214:1231   */\n      mul\n        /* \"#utility.yul\":1204:1212   */\n      dup4\n        /* \"#utility.yul\":1200:1232   */\n      add\n        /* \"#utility.yul\":1197:1238   */\n      gt\n        /* \"#utility.yul\":1194:1322   */\n      iszero\n      tag_81\n      jumpi\n        /* \"#utility.yul\":1241:1320   */\n      tag_82\n      tag_74\n      jump\t// in\n    tag_82:\n        /* \"#utility.yul\":1194:1322   */\n    tag_81:\n        /* \"#utility.yul\":760:1328   */\n      swap3\n      pop\n      swap3\n      swap1\n      pop\n      jump\t// out\n        /* \"#utility.yul\":1334:1471   */\n    tag_83:\n        /* \"#utility.yul\":1388:1393   */\n      0x00\n        /* \"#utility.yul\":1419:1425   */\n      dup2\n        /* \"#utility.yul\":1413:1426   */\n      mload\n        /* \"#utility.yul\":1404:1426   */\n      swap1\n      pop\n        /* \"#utility.yul\":1435:1465   */\n      tag_85\n        /* \"#utility.yul\":1459:1464   */\n      dup2\n        /* \"#utility.yul\":1435:1465   */\n      tag_86\n      jump\t// in\n    tag_85:\n        /* \"#utility.yul\":1334:1471   */\n      swap3\n      swap2\n      pop\n      pop\n      jump\t// out\n        /* \"#utility.yul\":1477:1620   */\n    tag_87:\n        /* \"#utility.yul\":1534:1539   */\n      0x00\n        /* \"#utility.yul\":1565:1571   */\n      dup2\n        /* \"#utility.yul\":1559:1572   */\n      mload\n        /* \"#utility.yul\":1550:1572   */\n      swap1\n      pop\n        /* \"#utility.yul\":1581:1614   */\n      tag_89\n        /* \"#utility.yul\":1608:1613   */\n      dup2\n        /* \"#utility.yul\":1581:1614   */\n      tag_90\n      jump\t// in\n    tag_89:\n        /* \"#utility.yul\":1477:1620   */\n      swap3\n      swap2\n      pop\n      pop\n      jump\t// out\n        /* \"#utility.yul\":1626:1955   */\n    tag_37:\n        /* \"#utility.yul\":1685:1691   */\n      0x00\n        /* \"#utility.yul\":1734:1736   */\n      0x20\n        /* \"#utility.yul\":1722:1731   */\n      dup3\n        /* \"#utility.yul\":1713:1720   */\n      dup5\n        /* \"#utility.yul\":1709:1732   */\n      sub\n        /* \"#utility.yul\":1705:1737   */\n      slt\n        /* \"#utility.yul\":1702:1821   */\n      iszero\n      tag_92\n      jumpi\n        /* \"#utility.yul\":1740:1819   */\n      tag_93\n      tag_94\n      jump\t// in\n    tag_93:\n        /* \"#utility.yul\":1702:1821   */\n    tag_92:\n        /* \"#utility.yul\":1860:1861   */\n      0x00\n        /* \"#utility.yul\":1885:1938   */\n      tag_95\n        /* \"#utility.yul\":1930:1937   */\n      dup5\n        /* \"#utility.yul\":1921:1927   */\n      dup3\n        /* \"#utility.yul\":1910:1919   */\n      dup6\n        /* \"#utility.yul\":1906:1928   */\n      add\n        /* \"#utility.yul\":1885:1938   */\n      tag_60\n      jump\t// in\n    tag_95:\n        /* \"#utility.yul\":1875:1938   */\n      swap2\n      pop\n        /* \"#utility.yul\":1831:1948   */\n      pop\n        /* \"#utility.yul\":1626:1955   */\n      swap3\n      swap2\n      pop\n      pop\n      jump\t// out\n        /* \"#utility.yul\":1961:3040   */\n    tag_7:\n        /* \"#utility.yul\":2092:2098   */\n      0x00\n        /* \"#utility.yul\":2100:2106   */\n      dup1\n        /* \"#utility.yul\":2108:2114   */\n      0x00\n        /* \"#utility.yul\":2116:2122   */\n      dup1\n        /* \"#utility.yul\":2124:2130   */\n      0x00\n        /* \"#utility.yul\":2173:2175   */\n      0x60\n        /* \"#utility.yul\":2161:2170   */\n      dup7\n        /* \"#utility.yul\":2152:2159   */\n      dup9\n        /* \"#utility.yul\":2148:2171   */\n      sub\n        /* \"#utility.yul\":2144:2176   */\n      slt\n        /* \"#utility.yul\":2141:2260   */\n      iszero\n      tag_97\n      jumpi\n        /* \"#utility.yul\":2179:2258   */\n      tag_98\n      tag_94\n      jump\t// in\n    tag_98:\n        /* \"#utility.yul\":2141:2260   */\n    tag_97:\n        /* \"#utility.yul\":2299:2300   */\n      0x00\n        /* \"#utility.yul\":2324:2377   */\n      tag_99\n        /* \"#utility.yul\":2369:2376   */\n      dup9\n        /* \"#utility.yul\":2360:2366   */\n      dup3\n        /* \"#utility.yul\":2349:2358   */\n      dup10\n        /* \"#utility.yul\":2345:2367   */\n      add\n        /* \"#utility.yul\":2324:2377   */\n      tag_60\n      jump\t// in\n    tag_99:\n        /* \"#utility.yul\":2314:2377   */\n      swap6\n      pop\n        /* \"#utility.yul\":2270:2387   */\n      pop\n        /* \"#utility.yul\":2454:2456   */\n      0x20\n        /* \"#utility.yul\":2443:2452   */\n      dup7\n        /* \"#utility.yul\":2439:2457   */\n      add\n        /* \"#utility.yul\":2426:2458   */\n      calldataload\n        /* \"#utility.yul\":2485:2503   */\n      0xffffffffffffffff\n        /* \"#utility.yul\":2477:2483   */\n      dup2\n        /* \"#utility.yul\":2474:2504   */\n      gt\n        /* \"#utility.yul\":2471:2588   */\n      iszero\n      tag_100\n      jumpi\n        /* \"#utility.yul\":2507:2586   */\n      tag_101\n      tag_102\n      jump\t// in\n    tag_101:\n        /* \"#utility.yul\":2471:2588   */\n    tag_100:\n        /* \"#utility.yul\":2620:2700   */\n      tag_103\n        /* \"#utility.yul\":2692:2699   */\n      dup9\n        /* \"#utility.yul\":2683:2689   */\n      dup3\n        /* \"#utility.yul\":2672:2681   */\n      dup10\n        /* \"#utility.yul\":2668:2690   */\n      add\n        /* \"#utility.yul\":2620:2700   */\n      tag_64\n      jump\t// in\n    tag_103:\n        /* \"#utility.yul\":2602:2700   */\n      swap5\n      pop\n      swap5\n      pop\n        /* \"#utility.yul\":2397:2710   */\n      pop\n        /* \"#utility.yul\":2777:2779   */\n      0x40\n        /* \"#utility.yul\":2766:2775   */\n      dup7\n        /* \"#utility.yul\":2762:2780   */\n      add\n        /* \"#utility.yul\":2749:2781   */\n      calldataload\n        /* \"#utility.yul\":2808:2826   */\n      0xffffffffffffffff\n        /* \"#utility.yul\":2800:2806   */\n      dup2\n        /* \"#utility.yul\":2797:2827   */\n      gt\n        /* \"#utility.yul\":2794:2911   */\n      iszero\n      tag_104\n      jumpi\n        /* \"#utility.yul\":2830:2909   */\n      tag_105\n      tag_102\n      jump\t// in\n    tag_105:\n        /* \"#utility.yul\":2794:2911   */\n    tag_104:\n        /* \"#utility.yul\":2943:3023   */\n      tag_106\n        /* \"#utility.yul\":3015:3022   */\n      dup9\n        /* \"#utility.yul\":3006:3012   */\n      dup3\n        /* \"#utility.yul\":2995:3004   */\n      dup10\n        /* \"#utility.yul\":2991:3013   */\n      add\n        /* \"#utility.yul\":2943:3023   */\n      tag_75\n      jump\t// in\n    tag_106:\n        /* \"#utility.yul\":2925:3023   */\n      swap3\n      pop\n      swap3\n      pop\n        /* \"#utility.yul\":2720:3033   */\n      pop\n        /* \"#utility.yul\":1961:3040   */\n      swap3\n      swap6\n      pop\n      swap3\n      swap6\n      swap1\n      swap4\n      pop\n      jump\t// out\n        /* \"#utility.yul\":3046:3605   */\n    tag_11:\n        /* \"#utility.yul\":3132:3138   */\n      0x00\n        /* \"#utility.yul\":3140:3146   */\n      dup1\n        /* \"#utility.yul\":3189:3191   */\n      0x20\n        /* \"#utility.yul\":3177:3186   */\n      dup4\n        /* \"#utility.yul\":3168:3175   */\n      dup6\n        /* \"#utility.yul\":3164:3187   */\n      sub\n        /* \"#utility.yul\":3160:3192   */\n      slt\n        /* \"#utility.yul\":3157:3276   */\n      iszero\n      tag_108\n      jumpi\n        /* \"#utility.yul\":3195:3274   */\n      tag_109\n      tag_94\n      jump\t// in\n    tag_109:\n        /* \"#utility.yul\":3157:3276   */\n    tag_108:\n        /* \"#utility.yul\":3343:3344   */\n      0x00\n        /* \"#utility.yul\":3332:3341   */\n      dup4\n        /* \"#utility.yul\":3328:3345   */\n      add\n        /* \"#utility.yul\":3315:3346   */\n      calldataload\n        /* \"#utility.yul\":3373:3391   */\n      0xffffffffffffffff\n        /* \"#utility.yul\":3365:3371   */\n      dup2\n        /* \"#utility.yul\":3362:3392   */\n      gt\n        /* \"#utility.yul\":3359:3476   */\n      iszero\n      tag_110\n      jumpi\n        /* \"#utility.yul\":3395:3474   */\n      tag_111\n      tag_102\n      jump\t// in\n    tag_111:\n        /* \"#utility.yul\":3359:3476   */\n    tag_110:\n        /* \"#utility.yul\":3508:3588   */\n      tag_112\n        /* \"#utility.yul\":3580:3587   */\n      dup6\n        /* \"#utility.yul\":3571:3577   */\n      dup3\n        /* \"#utility.yul\":3560:3569   */\n      dup7\n        /* \"#utility.yul\":3556:3578   */\n      add\n        /* \"#utility.yul\":3508:3588   */\n      tag_75\n      jump\t// in\n    tag_112:\n        /* \"#utility.yul\":3490:3588   */\n      swap3\n      pop\n      swap3\n      pop\n        /* \"#utility.yul\":3286:3598   */\n      pop\n        /* \"#utility.yul\":3046:3605   */\n      swap3\n      pop\n      swap3\n      swap1\n      pop\n      jump\t// out\n        /* \"#utility.yul\":3611:3956   */\n    tag_46:\n        /* \"#utility.yul\":3678:3684   */\n      0x00\n        /* \"#utility.yul\":3727:3729   */\n      0x20\n        /* \"#utility.yul\":3715:3724   */\n      dup3\n        /* \"#utility.yul\":3706:3713   */\n      dup5\n        /* \"#utility.yul\":3702:3725   */\n      sub\n        /* \"#utility.yul\":3698:3730   */\n      slt\n        /* \"#utility.yul\":3695:3814   */\n      iszero\n      tag_114\n      jumpi\n        /* \"#utility.yul\":3733:3812   */\n      tag_115\n      tag_94\n      jump\t// in\n    tag_115:\n        /* \"#utility.yul\":3695:3814   */\n    tag_114:\n        /* \"#utility.yul\":3853:3854   */\n      0x00\n        /* \"#utility.yul\":3878:3939   */\n      tag_116\n        /* \"#utility.yul\":3931:3938   */\n      dup5\n        /* \"#utility.yul\":3922:3928   */\n      dup3\n        /* \"#utility.yul\":3911:3920   */\n      dup6\n        /* \"#utility.yul\":3907:3929   */\n      add\n        /* \"#utility.yul\":3878:3939   */\n      tag_83\n      jump\t// in\n    tag_116:\n        /* \"#utility.yul\":3868:3939   */\n      swap2\n      pop\n        /* \"#utility.yul\":3824:3949   */\n      pop\n        /* \"#utility.yul\":3611:3956   */\n      swap3\n      swap2\n      pop\n      pop\n      jump\t// out\n        /* \"#utility.yul\":3962:4313   */\n    tag_26:\n        /* \"#utility.yul\":4032:4038   */\n      0x00\n        /* \"#utility.yul\":4081:4083   */\n      0x20\n        /* \"#utility.yul\":4069:4078   */\n      dup3\n        /* \"#utility.yul\":4060:4067   */\n      dup5\n        /* \"#utility.yul\":4056:4079   */\n      sub\n        /* \"#utility.yul\":4052:4084   */\n      slt\n        /* \"#utility.yul\":4049:4168   */\n      iszero\n      tag_118\n      jumpi\n        /* \"#utility.yul\":4087:4166   */\n      tag_119\n      tag_94\n      jump\t// in\n    tag_119:\n        /* \"#utility.yul\":4049:4168   */\n    tag_118:\n        /* \"#utility.yul\":4207:4208   */\n      0x00\n        /* \"#utility.yul\":4232:4296   */\n      tag_120\n        /* \"#utility.yul\":4288:4295   */\n      dup5\n        /* \"#utility.yul\":4279:4285   */\n      dup3\n        /* \"#utility.yul\":4268:4277   */\n      dup6\n        /* \"#utility.yul\":4264:4286   */\n      add\n        /* \"#utility.yul\":4232:4296   */\n      tag_87\n      jump\t// in\n    tag_120:\n        /* \"#utility.yul\":4222:4296   */\n      swap2\n      pop\n        /* \"#utility.yul\":4178:4306   */\n      pop\n        /* \"#utility.yul\":3962:4313   */\n      swap3\n      swap2\n      pop\n      pop\n      jump\t// out\n        /* \"#utility.yul\":4319:4437   */\n    tag_121:\n        /* \"#utility.yul\":4406:4430   */\n      tag_123\n        /* \"#utility.yul\":4424:4429   */\n      dup2\n        /* \"#utility.yul\":4406:4430   */\n      tag_124\n      jump\t// in\n    tag_123:\n        /* \"#utility.yul\":4401:4404   */\n      dup3\n        /* \"#utility.yul\":4394:4431   */\n      mstore\n        /* \"#utility.yul\":4319:4437   */\n      pop\n      pop\n      jump\t// out\n        /* \"#utility.yul\":4443:4809   */\n    tag_125:\n        /* \"#utility.yul\":4585:4588   */\n      0x00\n        /* \"#utility.yul\":4606:4673   */\n      tag_127\n        /* \"#utility.yul\":4670:4672   */\n      0x18\n        /* \"#utility.yul\":4665:4668   */\n      dup4\n        /* \"#utility.yul\":4606:4673   */\n      tag_128\n      jump\t// in\n    tag_127:\n        /* \"#utility.yul\":4599:4673   */\n      swap2\n      pop\n        /* \"#utility.yul\":4682:4775   */\n      tag_129\n        /* \"#utility.yul\":4771:4774   */\n      dup3\n        /* \"#utility.yul\":4682:4775   */\n      tag_130\n      jump\t// in\n    tag_129:\n        /* \"#utility.yul\":4800:4802   */\n      0x20\n        /* \"#utility.yul\":4795:4798   */\n      dup3\n        /* \"#utility.yul\":4791:4803   */\n      add\n        /* \"#utility.yul\":4784:4803   */\n      swap1\n      pop\n        /* \"#utility.yul\":4443:4809   */\n      swap2\n      swap1\n      pop\n      jump\t// out\n        /* \"#utility.yul\":4815:5181   */\n    tag_131:\n        /* \"#utility.yul\":4957:4960   */\n      0x00\n        /* \"#utility.yul\":4978:5045   */\n      tag_133\n        /* \"#utility.yul\":5042:5044   */\n      0x2a\n        /* \"#utility.yul\":5037:5040   */\n      dup4\n        /* \"#utility.yul\":4978:5045   */\n      tag_128\n      jump\t// in\n    tag_133:\n        /* \"#utility.yul\":4971:5045   */\n      swap2\n      pop\n        /* \"#utility.yul\":5054:5147   */\n      tag_134\n        /* \"#utility.yul\":5143:5146   */\n      dup3\n        /* \"#utility.yul\":5054:5147   */\n      tag_135\n      jump\t// in\n    tag_134:\n        /* \"#utility.yul\":5172:5174   */\n      0x40\n        /* \"#utility.yul\":5167:5170   */\n      dup3\n        /* \"#utility.yul\":5163:5175   */\n      add\n        /* \"#utility.yul\":5156:5175   */\n      swap1\n      pop\n        /* \"#utility.yul\":4815:5181   */\n      swap2\n      swap1\n      pop\n      jump\t// out\n        /* \"#utility.yul\":5187:5305   */\n    tag_136:\n        /* \"#utility.yul\":5274:5298   */\n      tag_138\n        /* \"#utility.yul\":5292:5297   */\n      dup2\n        /* \"#utility.yul\":5274:5298   */\n      tag_139\n      jump\t// in\n    tag_138:\n        /* \"#utility.yul\":5269:5272   */\n      dup3\n        /* \"#utility.yul\":5262:5299   */\n      mstore\n        /* \"#utility.yul\":5187:5305   */\n      pop\n      pop\n      jump\t// out\n        /* \"#utility.yul\":5311:5643   */\n    tag_21:\n        /* \"#utility.yul\":5432:5436   */\n      0x00\n        /* \"#utility.yul\":5470:5472   */\n      0x40\n        /* \"#utility.yul\":5459:5468   */\n      dup3\n        /* \"#utility.yul\":5455:5473   */\n      add\n        /* \"#utility.yul\":5447:5473   */\n      swap1\n      pop\n        /* \"#utility.yul\":5483:5554   */\n      tag_141\n        /* \"#utility.yul\":5551:5552   */\n      0x00\n        /* \"#utility.yul\":5540:5549   */\n      dup4\n        /* \"#utility.yul\":5536:5553   */\n      add\n        /* \"#utility.yul\":5527:5533   */\n      dup6\n        /* \"#utility.yul\":5483:5554   */\n      tag_121\n      jump\t// in\n    tag_141:\n        /* \"#utility.yul\":5564:5636   */\n      tag_142\n        /* \"#utility.yul\":5632:5634   */\n      0x20\n        /* \"#utility.yul\":5621:5630   */\n      dup4\n        /* \"#utility.yul\":5617:5635   */\n      add\n        /* \"#utility.yul\":5608:5614   */\n      dup5\n        /* \"#utility.yul\":5564:5636   */\n      tag_121\n      jump\t// in\n    tag_142:\n        /* \"#utility.yul\":5311:5643   */\n      swap4\n      swap3\n      pop\n      pop\n      pop\n      jump\t// out\n        /* \"#utility.yul\":5649:6091   */\n    tag_41:\n        /* \"#utility.yul\":5798:5802   */\n      0x00\n        /* \"#utility.yul\":5836:5838   */\n      0x60\n        /* \"#utility.yul\":5825:5834   */\n      dup3\n        /* \"#utility.yul\":5821:5839   */\n      add\n        /* \"#utility.yul\":5813:5839   */\n      swap1\n      pop\n        /* \"#utility.yul\":5849:5920   */\n      tag_144\n        /* \"#utility.yul\":5917:5918   */\n      0x00\n        /* \"#utility.yul\":5906:5915   */\n      dup4\n        /* \"#utility.yul\":5902:5919   */\n      add\n        /* \"#utility.yul\":5893:5899   */\n      dup7\n        /* \"#utility.yul\":5849:5920   */\n      tag_121\n      jump\t// in\n    tag_144:\n        /* \"#utility.yul\":5930:6002   */\n      tag_145\n        /* \"#utility.yul\":5998:6000   */\n      0x20\n        /* \"#utility.yul\":5987:5996   */\n      dup4\n        /* \"#utility.yul\":5983:6001   */\n      add\n        /* \"#utility.yul\":5974:5980   */\n      dup6\n        /* \"#utility.yul\":5930:6002   */\n      tag_121\n      jump\t// in\n    tag_145:\n        /* \"#utility.yul\":6012:6084   */\n      tag_146\n        /* \"#utility.yul\":6080:6082   */\n      0x40\n        /* \"#utility.yul\":6069:6078   */\n      dup4\n        /* \"#utility.yul\":6065:6083   */\n      add\n        /* \"#utility.yul\":6056:6062   */\n      dup5\n        /* \"#utility.yul\":6012:6084   */\n      tag_136\n      jump\t// in\n    tag_146:\n        /* \"#utility.yul\":5649:6091   */\n      swap5\n      swap4\n      pop\n      pop\n      pop\n      pop\n      jump\t// out\n        /* \"#utility.yul\":6097:6516   */\n    tag_29:\n        /* \"#utility.yul\":6263:6267   */\n      0x00\n        /* \"#utility.yul\":6301:6303   */\n      0x20\n        /* \"#utility.yul\":6290:6299   */\n      dup3\n        /* \"#utility.yul\":6286:6304   */\n      add\n        /* \"#utility.yul\":6278:6304   */\n      swap1\n      pop\n        /* \"#utility.yul\":6350:6359   */\n      dup2\n        /* \"#utility.yul\":6344:6348   */\n      dup2\n        /* \"#utility.yul\":6340:6360   */\n      sub\n        /* \"#utility.yul\":6336:6337   */\n      0x00\n        /* \"#utility.yul\":6325:6334   */\n      dup4\n        /* \"#utility.yul\":6321:6338   */\n      add\n        /* \"#utility.yul\":6314:6361   */\n      mstore\n        /* \"#utility.yul\":6378:6509   */\n      tag_148\n        /* \"#utility.yul\":6504:6508   */\n      dup2\n        /* \"#utility.yul\":6378:6509   */\n      tag_125\n      jump\t// in\n    tag_148:\n        /* \"#utility.yul\":6370:6509   */\n      swap1\n      pop\n        /* \"#utility.yul\":6097:6516   */\n      swap2\n      swap1\n      pop\n      jump\t// out\n        /* \"#utility.yul\":6522:6941   */\n    tag_18:\n        /* \"#utility.yul\":6688:6692   */\n      0x00\n        /* \"#utility.yul\":6726:6728   */\n      0x20\n        /* \"#utility.yul\":6715:6724   */\n      dup3\n        /* \"#utility.yul\":6711:6729   */\n      add\n        /* \"#utility.yul\":6703:6729   */\n      swap1\n      pop\n        /* \"#utility.yul\":6775:6784   */\n      dup2\n        /* \"#utility.yul\":6769:6773   */\n      dup2\n        /* \"#utility.yul\":6765:6785   */\n      sub\n        /* \"#utility.yul\":6761:6762   */\n      0x00\n        /* \"#utility.yul\":6750:6759   */\n      dup4\n        /* \"#utility.yul\":6746:6763   */\n      add\n        /* \"#utility.yul\":6739:6786   */\n      mstore\n        /* \"#utility.yul\":6803:6934   */\n      tag_150\n        /* \"#utility.yul\":6929:6933   */\n      dup2\n        /* \"#utility.yul\":6803:6934   */\n      tag_131\n      jump\t// in\n    tag_150:\n        /* \"#utility.yul\":6795:6934   */\n      swap1\n      pop\n        /* \"#utility.yul\":6522:6941   */\n      swap2\n      swap1\n      pop\n      jump\t// out\n        /* \"#utility.yul\":6947:7169   */\n    tag_14:\n        /* \"#utility.yul\":7040:7044   */\n      0x00\n        /* \"#utility.yul\":7078:7080   */\n      0x20\n        /* \"#utility.yul\":7067:7076   */\n      dup3\n        /* \"#utility.yul\":7063:7081   */\n      add\n        /* \"#utility.yul\":7055:7081   */\n      swap1\n      pop\n        /* \"#utility.yul\":7091:7162   */\n      tag_152\n        /* \"#utility.yul\":7159:7160   */\n      0x00\n        /* \"#utility.yul\":7148:7157   */\n      dup4\n        /* \"#utility.yul\":7144:7161   */\n      add\n        /* \"#utility.yul\":7135:7141   */\n      dup5\n        /* \"#utility.yul\":7091:7162   */\n      tag_136\n      jump\t// in\n    tag_152:\n        /* \"#utility.yul\":6947:7169   */\n      swap3\n      swap2\n      pop\n      pop\n      jump\t// out\n        /* \"#utility.yul\":7256:7425   */\n    tag_128:\n        /* \"#utility.yul\":7340:7351   */\n      0x00\n        /* \"#utility.yul\":7374:7380   */\n      dup3\n        /* \"#utility.yul\":7369:7372   */\n      dup3\n        /* \"#utility.yul\":7362:7381   */\n      mstore\n        /* \"#utility.yul\":7414:7418   */\n      0x20\n        /* \"#utility.yul\":7409:7412   */\n      dup3\n        /* \"#utility.yul\":7405:7419   */\n      add\n        /* \"#utility.yul\":7390:7419   */\n      swap1\n      pop\n        /* \"#utility.yul\":7256:7425   */\n      swap3\n      swap2\n      pop\n      pop\n      jump\t// out\n        /* \"#utility.yul\":7431:7736   */\n    tag_56:\n        /* \"#utility.yul\":7471:7474   */\n      0x00\n        /* \"#utility.yul\":7490:7510   */\n      tag_157\n        /* \"#utility.yul\":7508:7509   */\n      dup3\n        /* \"#utility.yul\":7490:7510   */\n      tag_139\n      jump\t// in\n    tag_157:\n        /* \"#utility.yul\":7485:7510   */\n      swap2\n      pop\n        /* \"#utility.yul\":7524:7544   */\n      tag_158\n        /* \"#utility.yul\":7542:7543   */\n      dup4\n        /* \"#utility.yul\":7524:7544   */\n      tag_139\n      jump\t// in\n    tag_158:\n        /* \"#utility.yul\":7519:7544   */\n      swap3\n      pop\n        /* \"#utility.yul\":7678:7679   */\n      dup3\n        /* \"#utility.yul\":7610:7676   */\n      0xffffffffffffffffffffffffffffffffffffffffffffffffffffffffffffffff\n        /* \"#utility.yul\":7606:7680   */\n      sub\n        /* \"#utility.yul\":7603:7604   */\n      dup3\n        /* \"#utility.yul\":7600:7681   */\n      gt\n        /* \"#utility.yul\":7597:7704   */\n      iszero\n      tag_159\n      jumpi\n        /* \"#utility.yul\":7684:7702   */\n      tag_160\n      tag_161\n      jump\t// in\n    tag_160:\n        /* \"#utility.yul\":7597:7704   */\n    tag_159:\n        /* \"#utility.yul\":7728:7729   */\n      dup3\n        /* \"#utility.yul\":7725:7726   */\n      dup3\n        /* \"#utility.yul\":7721:7730   */\n      add\n        /* \"#utility.yul\":7714:7730   */\n      swap1\n      pop\n        /* \"#utility.yul\":7431:7736   */\n      swap3\n      swap2\n      pop\n      pop\n      jump\t// out\n        /* \"#utility.yul\":7742:7838   */\n    tag_124:\n        /* \"#utility.yul\":7779:7786   */\n      0x00\n        /* \"#utility.yul\":7808:7832   */\n      tag_163\n        /* \"#utility.yul\":7826:7831   */\n      dup3\n        /* \"#utility.yul\":7808:7832   */\n      tag_164\n      jump\t// in\n    tag_163:\n        /* \"#utility.yul\":7797:7832   */\n      swap1\n      pop\n        /* \"#utility.yul\":7742:7838   */\n      swap2\n      swap1\n      pop\n      jump\t// out\n        /* \"#utility.yul\":7844:7934   */\n    tag_165:\n        /* \"#utility.yul\":7878:7885   */\n      0x00\n        /* \"#utility.yul\":7921:7926   */\n      dup2\n        /* \"#utility.yul\":7914:7927   */\n      iszero\n        /* \"#utility.yul\":7907:7928   */\n      iszero\n        /* \"#utility.yul\":7896:7928   */\n      swap1\n      pop\n        /* \"#utility.yul\":7844:7934   */\n      swap2\n      swap1\n      pop\n      jump\t// out\n        /* \"#utility.yul\":7940:8066   */\n    tag_164:\n        /* \"#utility.yul\":7977:7984   */\n      0x00\n        /* \"#utility.yul\":8017:8059   */\n      0xffffffffffffffffffffffffffffffffffffffff\n        /* \"#utility.yul\":8010:8015   */\n      dup3\n        /* \"#utility.yul\":8006:8060   */\n      and\n        /* \"#utility.yul\":7995:8060   */\n      swap1\n      pop\n        /* \"#utility.yul\":7940:8066   */\n      swap2\n      swap1\n      pop\n      jump\t// out\n        /* \"#utility.yul\":8072:8149   */\n    tag_139:\n        /* \"#utility.yul\":8109:8116   */\n      0x00\n        /* \"#utility.yul\":8138:8143   */\n      dup2\n        /* \"#utility.yul\":8127:8143   */\n      swap1\n      pop\n        /* \"#utility.yul\":8072:8149   */\n      swap2\n      swap1\n      pop\n      jump\t// out\n        /* \"#utility.yul\":8155:8241   */\n    tag_169:\n        /* \"#utility.yul\":8190:8197   */\n      0x00\n        /* \"#utility.yul\":8230:8234   */\n      0xff\n        /* \"#utility.yul\":8223:8228   */\n      dup3\n        /* \"#utility.yul\":8219:8235   */\n      and\n        /* \"#utility.yul\":8208:8235   */\n      swap1\n      pop\n        /* \"#utility.yul\":8155:8241   */\n      swap2\n      swap1\n      pop\n      jump\t// out\n        /* \"#utility.yul\":8247:8480   */\n    tag_58:\n        /* \"#utility.yul\":8286:8289   */\n      0x00\n        /* \"#utility.yul\":8309:8333   */\n      tag_172\n        /* \"#utility.yul\":8327:8332   */\n      dup3\n        /* \"#utility.yul\":8309:8333   */\n      tag_139\n      jump\t// in\n    tag_172:\n        /* \"#utility.yul\":8300:8333   */\n      swap2\n      pop\n        /* \"#utility.yul\":8355:8421   */\n      0xffffffffffffffffffffffffffffffffffffffffffffffffffffffffffffffff\n        /* \"#utility.yul\":8348:8353   */\n      dup3\n        /* \"#utility.yul\":8345:8422   */\n      eq\n        /* \"#utility.yul\":8342:8445   */\n      iszero\n      tag_173\n      jumpi\n        /* \"#utility.yul\":8425:8443   */\n      tag_174\n      tag_161\n      jump\t// in\n    tag_174:\n        /* \"#utility.yul\":8342:8445   */\n    tag_173:\n        /* \"#utility.yul\":8472:8473   */\n      0x01\n        /* \"#utility.yul\":8465:8470   */\n      dup3\n        /* \"#utility.yul\":8461:8474   */\n      add\n        /* \"#utility.yul\":8454:8474   */\n      swap1\n      pop\n        /* \"#utility.yul\":8247:8480   */\n      swap2\n      swap1\n      pop\n      jump\t// out\n        /* \"#utility.yul\":8486:8653   */\n    tag_48:\n        /* \"#utility.yul\":8523:8526   */\n      0x00\n        /* \"#utility.yul\":8546:8568   */\n      tag_176\n        /* \"#utility.yul\":8562:8567   */\n      dup3\n        /* \"#utility.yul\":8546:8568   */\n      tag_169\n      jump\t// in\n    tag_176:\n        /* \"#utility.yul\":8537:8568   */\n      swap2\n      pop\n        /* \"#utility.yul\":8590:8594   */\n      0xff\n        /* \"#utility.yul\":8583:8588   */\n      dup3\n        /* \"#utility.yul\":8580:8595   */\n      eq\n        /* \"#utility.yul\":8577:8618   */\n      iszero\n      tag_177\n      jumpi\n        /* \"#utility.yul\":8598:8616   */\n      tag_178\n      tag_161\n      jump\t// in\n    tag_178:\n        /* \"#utility.yul\":8577:8618   */\n    tag_177:\n        /* \"#utility.yul\":8645:8646   */\n      0x01\n        /* \"#utility.yul\":8638:8643   */\n      dup3\n        /* \"#utility.yul\":8634:8647   */\n      add\n        /* \"#utility.yul\":8627:8647   */\n      swap1\n      pop\n        /* \"#utility.yul\":8486:8653   */\n      swap2\n      swap1\n      pop\n      jump\t// out\n        /* \"#utility.yul\":8659:8839   */\n    tag_161:\n        /* \"#utility.yul\":8707:8784   */\n      0x4e487b7100000000000000000000000000000000000000000000000000000000\n        /* \"#utility.yul\":8704:8705   */\n      0x00\n        /* \"#utility.yul\":8697:8785   */\n      mstore\n        /* \"#utility.yul\":8804:8808   */\n      0x11\n        /* \"#utility.yul\":8801:8802   */\n      0x04\n        /* \"#utility.yul\":8794:8809   */\n      mstore\n        /* \"#utility.yul\":8828:8832   */\n      0x24\n        /* \"#utility.yul\":8825:8826   */\n      0x00\n        /* \"#utility.yul\":8818:8833   */\n      revert\n        /* \"#utility.yul\":8845:9025   */\n    tag_35:\n        /* \"#utility.yul\":8893:8970   */\n      0x4e487b7100000000000000000000000000000000000000000000000000000000\n        /* \"#utility.yul\":8890:8891   */\n      0x00\n        /* \"#utility.yul\":8883:8971   */\n      mstore\n        /* \"#utility.yul\":8990:8994   */\n      0x32\n        /* \"#utility.yul\":8987:8988   */\n      0x04\n        /* \"#utility.yul\":8980:8995   */\n      mstore\n        /* \"#utility.yul\":9014:9018   */\n      0x24\n        /* \"#utility.yul\":9011:9012   */\n      0x00\n        /* \"#utility.yul\":9004:9019   */\n      revert\n        /* \"#utility.yul\":9031:9148   */\n    tag_71:\n        /* \"#utility.yul\":9140:9141   */\n      0x00\n        /* \"#utility.yul\":9137:9138   */\n      dup1\n        /* \"#utility.yul\":9130:9142   */\n      revert\n        /* \"#utility.yul\":9154:9271   */\n    tag_68:\n        /* \"#utility.yul\":9263:9264   */\n      0x00\n        /* \"#utility.yul\":9260:9261   */\n      dup1\n        /* \"#utility.yul\":9253:9265   */\n      revert\n        /* \"#utility.yul\":9277:9394   */\n    tag_74:\n        /* \"#utility.yul\":9386:9387   */\n      0x00\n        /* \"#utility.yul\":9383:9384   */\n      dup1\n        /* \"#utility.yul\":9376:9388   */\n      revert\n        /* \"#utility.yul\":9400:9517   */\n    tag_102:\n        /* \"#utility.yul\":9509:9510   */\n      0x00\n        /* \"#utility.yul\":9506:9507   */\n      dup1\n        /* \"#utility.yul\":9499:9511   */\n      revert\n        /* \"#utility.yul\":9523:9640   */\n    tag_94:\n        /* \"#utility.yul\":9632:9633   */\n      0x00\n        /* \"#utility.yul\":9629:9630   */\n      dup1\n        /* \"#utility.yul\":9622:9634   */\n      revert\n        /* \"#utility.yul\":9646:9820   */\n    tag_130:\n        /* \"#utility.yul\":9786:9812   */\n      0x4e65656420417070726f766520455243323020746f6b656e0000000000000000\n        /* \"#utility.yul\":9782:9783   */\n      0x00\n        /* \"#utility.yul\":9774:9780   */\n      dup3\n        /* \"#utility.yul\":9770:9784   */\n      add\n        /* \"#utility.yul\":9763:9813   */\n      mstore\n        /* \"#utility.yul\":9646:9820   */\n      pop\n      jump\t// out\n        /* \"#utility.yul\":9826:10055   */\n    tag_135:\n        /* \"#utility.yul\":9966:10000   */\n      0x4c656e67746873206f662041646472657373657320616e6420416d6f756e7473\n        /* \"#utility.yul\":9962:9963   */\n      0x00\n        /* \"#utility.yul\":9954:9960   */\n      dup3\n        /* \"#utility.yul\":9950:9964   */\n      add\n        /* \"#utility.yul\":9943:10001   */\n      mstore\n        /* \"#utility.yul\":10035:10047   */\n      0x204e4f5420455155414c00000000000000000000000000000000000000000000\n        /* \"#utility.yul\":10030:10032   */\n      0x20\n        /* \"#utility.yul\":10022:10028   */\n      dup3\n        /* \"#utility.yul\":10018:10033   */\n      add\n        /* \"#utility.yul\":10011:10048   */\n      mstore\n        /* \"#utility.yul\":9826:10055   */\n      pop\n      jump\t// out\n        /* \"#utility.yul\":10061:10183   */\n    tag_63:\n        /* \"#utility.yul\":10134:10158   */\n      tag_189\n        /* \"#utility.yul\":10152:10157   */\n      dup2\n        /* \"#utility.yul\":10134:10158   */\n      tag_124\n      jump\t// in\n    tag_189:\n        /* \"#utility.yul\":10127:10132   */\n      dup2\n        /* \"#utility.yul\":10124:10159   */\n      eq\n        /* \"#utility.yul\":10114:10177   */\n      tag_190\n      jumpi\n        /* \"#utility.yul\":10173:10174   */\n      0x00\n        /* \"#utility.yul\":10170:10171   */\n      dup1\n        /* \"#utility.yul\":10163:10175   */\n      revert\n        /* \"#utility.yul\":10114:10177   */\n    tag_190:\n        /* \"#utility.yul\":10061:10183   */\n      pop\n      jump\t// out\n        /* \"#utility.yul\":10189:10305   */\n    tag_86:\n        /* \"#utility.yul\":10259:10280   */\n      tag_192\n        /* \"#utility.yul\":10274:10279   */\n      dup2\n        /* \"#utility.yul\":10259:10280   */\n      tag_165\n      jump\t// in\n    tag_192:\n        /* \"#utility.yul\":10252:10257   */\n      dup2\n        /* \"#utility.yul\":10249:10281   */\n      eq\n        /* \"#utility.yul\":10239:10299   */\n      tag_193\n      jumpi\n        /* \"#utility.yul\":10295:10296   */\n      0x00\n        /* \"#utility.yul\":10292:10293   */\n      dup1\n        /* \"#utility.yul\":10285:10297   */\n      revert\n        /* \"#utility.yul\":10239:10299   */\n    tag_193:\n        /* \"#utility.yul\":10189:10305   */\n      pop\n      jump\t// out\n        /* \"#utility.yul\":10311:10433   */\n    tag_90:\n        /* \"#utility.yul\":10384:10408   */\n      tag_195\n        /* \"#utility.yul\":10402:10407   */\n      dup2\n        /* \"#utility.yul\":10384:10408   */\n      tag_139\n      jump\t// in\n    tag_195:\n        /* \"#utility.yul\":10377:10382   */\n      dup2\n        /* \"#utility.yul\":10374:10409   */\n      eq\n        /* \"#utility.yul\":10364:10427   */\n      tag_196\n      jumpi\n        /* \"#utility.yul\":10423:10424   */\n      0x00\n        /* \"#utility.yul\":10420:10421   */\n      dup1\n        /* \"#utility.yul\":10413:10425   */\n      revert\n        /* \"#utility.yul\":10364:10427   */\n    tag_196:\n        /* \"#utility.yul\":10311:10433   */\n      pop\n      jump\t// out\n\n    auxdata: 0xa2646970667358221220a543e29eeb9293a88b5d7977ed1eea7a7cc333ab8ebf0a30a3900f8990670c9964736f6c63430008070033\n}\n",
				"bytecode": {
					"linkReferences": {},
					"object": "608060405234801561001057600080fd5b50610913806100206000396000f3fe608060405234801561001057600080fd5b50600436106100365760003560e01c806341ed24a21461003b578063ccb8c1e014610057575b600080fd5b6100556004803603810190610050919061041f565b610087565b005b610071600480360381019061006c91906104b4565b6102b3565b60405161007e919061065f565b60405180910390f35b8181905084849050146100cf576040517f08c379a00000000000000000000000000000000000000000000000000000000081526004016100c69061063f565b60405180910390fd5b600085905060006100e084846102b3565b9050808273ffffffffffffffffffffffffffffffffffffffff1663dd62ed3e33306040518363ffffffff1660e01b815260040161011e9291906105bf565b60206040518083038186803b15801561013657600080fd5b505afa15801561014a573d6000803e3d6000fd5b505050506040513d601f19601f8201168201806040525081019061016e919061052e565b10156101af576040517f08c379a00000000000000000000000000000000000000000000000000000000081526004016101a69061061f565b60405180910390fd5b60005b868690508160ff1610156102a9578273ffffffffffffffffffffffffffffffffffffffff166323b872dd3389898560ff168181106101f3576101f26107d8565b5b905060200201602081019061020891906103f2565b88888660ff1681811061021e5761021d6107d8565b5b905060200201356040518463ffffffff1660e01b8152600401610243939291906105e8565b602060405180830381600087803b15801561025d57600080fd5b505af1158015610271573d6000803e3d6000fd5b505050506040513d601f19601f820116820180604052508101906102959190610501565b5080806102a19061077f565b9150506101b2565b5050505050505050565b600080600090505b83839050811015610300578383828181106102d9576102d86107d8565b5b90506020020135826102eb919061068b565b915080806102f890610736565b9150506102bb565b5092915050565b60008135905061031681610898565b92915050565b60008083601f8401126103325761033161080c565b5b8235905067ffffffffffffffff81111561034f5761034e610807565b5b60208301915083602082028301111561036b5761036a610811565b5b9250929050565b60008083601f8401126103885761038761080c565b5b8235905067ffffffffffffffff8111156103a5576103a4610807565b5b6020830191508360208202830111156103c1576103c0610811565b5b9250929050565b6000815190506103d7816108af565b92915050565b6000815190506103ec816108c6565b92915050565b6000602082840312156104085761040761081b565b5b600061041684828501610307565b91505092915050565b60008060008060006060868803121561043b5761043a61081b565b5b600061044988828901610307565b955050602086013567ffffffffffffffff81111561046a57610469610816565b5b6104768882890161031c565b9450945050604086013567ffffffffffffffff81111561049957610498610816565b5b6104a588828901610372565b92509250509295509295909350565b600080602083850312156104cb576104ca61081b565b5b600083013567ffffffffffffffff8111156104e9576104e8610816565b5b6104f585828601610372565b92509250509250929050565b6000602082840312156105175761051661081b565b5b6000610525848285016103c8565b91505092915050565b6000602082840312156105445761054361081b565b5b6000610552848285016103dd565b91505092915050565b610564816106e1565b82525050565b600061057760188361067a565b915061058282610820565b602082019050919050565b600061059a602a8361067a565b91506105a582610849565b604082019050919050565b6105b98161071f565b82525050565b60006040820190506105d4600083018561055b565b6105e1602083018461055b565b9392505050565b60006060820190506105fd600083018661055b565b61060a602083018561055b565b61061760408301846105b0565b949350505050565b600060208201905081810360008301526106388161056a565b9050919050565b600060208201905081810360008301526106588161058d565b9050919050565b600060208201905061067460008301846105b0565b92915050565b600082825260208201905092915050565b60006106968261071f565b91506106a18361071f565b9250827fffffffffffffffffffffffffffffffffffffffffffffffffffffffffffffffff038211156106d6576106d56107a9565b5b828201905092915050565b60006106ec826106ff565b9050919050565b60008115159050919050565b600073ffffffffffffffffffffffffffffffffffffffff82169050919050565b6000819050919050565b600060ff82169050919050565b60006107418261071f565b91507fffffffffffffffffffffffffffffffffffffffffffffffffffffffffffffffff821415610774576107736107a9565b5b600182019050919050565b600061078a82610729565b915060ff82141561079e5761079d6107a9565b5b600182019050919050565b7f4e487b7100000000000000000000000000000000000000000000000000000000600052601160045260246000fd5b7f4e487b7100000000000000000000000000000000000000000000000000000000600052603260045260246000fd5b600080fd5b600080fd5b600080fd5b600080fd5b600080fd5b7f4e65656420417070726f766520455243323020746f6b656e0000000000000000600082015250565b7f4c656e67746873206f662041646472657373657320616e6420416d6f756e747360008201527f204e4f5420455155414c00000000000000000000000000000000000000000000602082015250565b6108a1816106e1565b81146108ac57600080fd5b50565b6108b8816106f3565b81146108c357600080fd5b50565b6108cf8161071f565b81146108da57600080fd5b5056fea2646970667358221220a543e29eeb9293a88b5d7977ed1eea7a7cc333ab8ebf0a30a3900f8990670c9964736f6c63430008070033",
					"opcodes": "PUSH1 0x80 PUSH1 0x40 MSTORE CALLVALUE DUP1 ISZERO PUSH2 0x10 JUMPI PUSH1 0x0 DUP1 REVERT JUMPDEST POP PUSH2 0x913 DUP1 PUSH2 0x20 PUSH1 0x0 CODECOPY PUSH1 0x0 RETURN INVALID PUSH1 0x80 PUSH1 0x40 MSTORE CALLVALUE DUP1 ISZERO PUSH2 0x10 JUMPI PUSH1 0x0 DUP1 REVERT JUMPDEST POP PUSH1 0x4 CALLDATASIZE LT PUSH2 0x36 JUMPI PUSH1 0x0 CALLDATALOAD PUSH1 0xE0 SHR DUP1 PUSH4 0x41ED24A2 EQ PUSH2 0x3B JUMPI DUP1 PUSH4 0xCCB8C1E0 EQ PUSH2 0x57 JUMPI JUMPDEST PUSH1 0x0 DUP1 REVERT JUMPDEST PUSH2 0x55 PUSH1 0x4 DUP1 CALLDATASIZE SUB DUP2 ADD SWAP1 PUSH2 0x50 SWAP2 SWAP1 PUSH2 0x41F JUMP JUMPDEST PUSH2 0x87 JUMP JUMPDEST STOP JUMPDEST PUSH2 0x71 PUSH1 0x4 DUP1 CALLDATASIZE SUB DUP2 ADD SWAP1 PUSH2 0x6C SWAP2 SWAP1 PUSH2 0x4B4 JUMP JUMPDEST PUSH2 0x2B3 JUMP JUMPDEST PUSH1 0x40 MLOAD PUSH2 0x7E SWAP2 SWAP1 PUSH2 0x65F JUMP JUMPDEST PUSH1 0x40 MLOAD DUP1 SWAP2 SUB SWAP1 RETURN JUMPDEST DUP2 DUP2 SWAP1 POP DUP5 DUP5 SWAP1 POP EQ PUSH2 0xCF JUMPI PUSH1 0x40 MLOAD PUSH32 0x8C379A000000000000000000000000000000000000000000000000000000000 DUP2 MSTORE PUSH1 0x4 ADD PUSH2 0xC6 SWAP1 PUSH2 0x63F JUMP JUMPDEST PUSH1 0x40 MLOAD DUP1 SWAP2 SUB SWAP1 REVERT JUMPDEST PUSH1 0x0 DUP6 SWAP1 POP PUSH1 0x0 PUSH2 0xE0 DUP5 DUP5 PUSH2 0x2B3 JUMP JUMPDEST SWAP1 POP DUP1 DUP3 PUSH20 0xFFFFFFFFFFFFFFFFFFFFFFFFFFFFFFFFFFFFFFFF AND PUSH4 0xDD62ED3E CALLER ADDRESS PUSH1 0x40 MLOAD DUP4 PUSH4 0xFFFFFFFF AND PUSH1 0xE0 SHL DUP2 MSTORE PUSH1 0x4 ADD PUSH2 0x11E SWAP3 SWAP2 SWAP1 PUSH2 0x5BF JUMP JUMPDEST PUSH1 0x20 PUSH1 0x40 MLOAD DUP1 DUP4 SUB DUP2 DUP7 DUP1 EXTCODESIZE ISZERO DUP1 ISZERO PUSH2 0x136 JUMPI PUSH1 0x0 DUP1 REVERT JUMPDEST POP GAS STATICCALL ISZERO DUP1 ISZERO PUSH2 0x14A JUMPI RETURNDATASIZE PUSH1 0x0 DUP1 RETURNDATACOPY RETURNDATASIZE PUSH1 0x0 REVERT JUMPDEST POP POP POP POP PUSH1 0x40 MLOAD RETURNDATASIZE PUSH1 0x1F NOT PUSH1 0x1F DUP3 ADD AND DUP3 ADD DUP1 PUSH1 0x40 MSTORE POP DUP2 ADD SWAP1 PUSH2 0x16E SWAP2 SWAP1 PUSH2 0x52E JUMP JUMPDEST LT ISZERO PUSH2 0x1AF JUMPI PUSH1 0x40 MLOAD PUSH32 0x8C379A000000000000000000000000000000000000000000000000000000000 DUP2 MSTORE PUSH1 0x4 ADD PUSH2 0x1A6 SWAP1 PUSH2 0x61F JUMP JUMPDEST PUSH1 0x40 MLOAD DUP1 SWAP2 SUB SWAP1 REVERT JUMPDEST PUSH1 0x0 JUMPDEST DUP7 DUP7 SWAP1 POP DUP2 PUSH1 0xFF AND LT ISZERO PUSH2 0x2A9 JUMPI DUP3 PUSH20 0xFFFFFFFFFFFFFFFFFFFFFFFFFFFFFFFFFFFFFFFF AND PUSH4 0x23B872DD CALLER DUP10 DUP10 DUP6 PUSH1 0xFF AND DUP2 DUP2 LT PUSH2 0x1F3 JUMPI PUSH2 0x1F2 PUSH2 0x7D8 JUMP JUMPDEST JUMPDEST SWAP1 POP PUSH1 0x20 MUL ADD PUSH1 0x20 DUP2 ADD SWAP1 PUSH2 0x208 SWAP2 SWAP1 PUSH2 0x3F2 JUMP JUMPDEST DUP9 DUP9 DUP7 PUSH1 0xFF AND DUP2 DUP2 LT PUSH2 0x21E JUMPI PUSH2 0x21D PUSH2 0x7D8 JUMP JUMPDEST JUMPDEST SWAP1 POP PUSH1 0x20 MUL ADD CALLDATALOAD PUSH1 0x40 MLOAD DUP5 PUSH4 0xFFFFFFFF AND PUSH1 0xE0 SHL DUP2 MSTORE PUSH1 0x4 ADD PUSH2 0x243 SWAP4 SWAP3 SWAP2 SWAP1 PUSH2 0x5E8 JUMP JUMPDEST PUSH1 0x20 PUSH1 0x40 MLOAD DUP1 DUP4 SUB DUP2 PUSH1 0x0 DUP8 DUP1 EXTCODESIZE ISZERO DUP1 ISZERO PUSH2 0x25D JUMPI PUSH1 0x0 DUP1 REVERT JUMPDEST POP GAS CALL ISZERO DUP1 ISZERO PUSH2 0x271 JUMPI RETURNDATASIZE PUSH1 0x0 DUP1 RETURNDATACOPY RETURNDATASIZE PUSH1 0x0 REVERT JUMPDEST POP POP POP POP PUSH1 0x40 MLOAD RETURNDATASIZE PUSH1 0x1F NOT PUSH1 0x1F DUP3 ADD AND DUP3 ADD DUP1 PUSH1 0x40 MSTORE POP DUP2 ADD SWAP1 PUSH2 0x295 SWAP2 SWAP1 PUSH2 0x501 JUMP JUMPDEST POP DUP1 DUP1 PUSH2 0x2A1 SWAP1 PUSH2 0x77F JUMP JUMPDEST SWAP2 POP POP PUSH2 0x1B2 JUMP JUMPDEST POP POP POP POP POP POP POP POP JUMP JUMPDEST PUSH1 0x0 DUP1 PUSH1 0x0 SWAP1 POP JUMPDEST DUP4 DUP4 SWAP1 POP DUP2 LT ISZERO PUSH2 0x300 JUMPI DUP4 DUP4 DUP3 DUP2 DUP2 LT PUSH2 0x2D9 JUMPI PUSH2 0x2D8 PUSH2 0x7D8 JUMP JUMPDEST JUMPDEST SWAP1 POP PUSH1 0x20 MUL ADD CALLDATALOAD DUP3 PUSH2 0x2EB SWAP2 SWAP1 PUSH2 0x68B JUMP JUMPDEST SWAP2 POP DUP1 DUP1 PUSH2 0x2F8 SWAP1 PUSH2 0x736 JUMP JUMPDEST SWAP2 POP POP PUSH2 0x2BB JUMP JUMPDEST POP SWAP3 SWAP2 POP POP JUMP JUMPDEST PUSH1 0x0 DUP2 CALLDATALOAD SWAP1 POP PUSH2 0x316 DUP2 PUSH2 0x898 JUMP JUMPDEST SWAP3 SWAP2 POP POP JUMP JUMPDEST PUSH1 0x0 DUP1 DUP4 PUSH1 0x1F DUP5 ADD SLT PUSH2 0x332 JUMPI PUSH2 0x331 PUSH2 0x80C JUMP JUMPDEST JUMPDEST DUP3 CALLDATALOAD SWAP1 POP PUSH8 0xFFFFFFFFFFFFFFFF DUP2 GT ISZERO PUSH2 0x34F JUMPI PUSH2 0x34E PUSH2 0x807 JUMP JUMPDEST JUMPDEST PUSH1 0x20 DUP4 ADD SWAP2 POP DUP4 PUSH1 0x20 DUP3 MUL DUP4 ADD GT ISZERO PUSH2 0x36B JUMPI PUSH2 0x36A PUSH2 0x811 JUMP JUMPDEST JUMPDEST SWAP3 POP SWAP3 SWAP1 POP JUMP JUMPDEST PUSH1 0x0 DUP1 DUP4 PUSH1 0x1F DUP5 ADD SLT PUSH2 0x388 JUMPI PUSH2 0x387 PUSH2 0x80C JUMP JUMPDEST JUMPDEST DUP3 CALLDATALOAD SWAP1 POP PUSH8 0xFFFFFFFFFFFFFFFF DUP2 GT ISZERO PUSH2 0x3A5 JUMPI PUSH2 0x3A4 PUSH2 0x807 JUMP JUMPDEST JUMPDEST PUSH1 0x20 DUP4 ADD SWAP2 POP DUP4 PUSH1 0x20 DUP3 MUL DUP4 ADD GT ISZERO PUSH2 0x3C1 JUMPI PUSH2 0x3C0 PUSH2 0x811 JUMP JUMPDEST JUMPDEST SWAP3 POP SWAP3 SWAP1 POP JUMP JUMPDEST PUSH1 0x0 DUP2 MLOAD SWAP1 POP PUSH2 0x3D7 DUP2 PUSH2 0x8AF JUMP JUMPDEST SWAP3 SWAP2 POP POP JUMP JUMPDEST PUSH1 0x0 DUP2 MLOAD SWAP1 POP PUSH2 0x3EC DUP2 PUSH2 0x8C6 JUMP JUMPDEST SWAP3 SWAP2 POP POP JUMP JUMPDEST PUSH1 0x0 PUSH1 0x20 DUP3 DUP5 SUB SLT ISZERO PUSH2 0x408 JUMPI PUSH2 0x407 PUSH2 0x81B JUMP JUMPDEST JUMPDEST PUSH1 0x0 PUSH2 0x416 DUP5 DUP3 DUP6 ADD PUSH2 0x307 JUMP JUMPDEST SWAP2 POP POP SWAP3 SWAP2 POP POP JUMP JUMPDEST PUSH1 0x0 DUP1 PUSH1 0x0 DUP1 PUSH1 0x0 PUSH1 0x60 DUP7 DUP9 SUB SLT ISZERO PUSH2 0x43B JUMPI PUSH2 0x43A PUSH2 0x81B JUMP JUMPDEST JUMPDEST PUSH1 0x0 PUSH2 0x449 DUP9 DUP3 DUP10 ADD PUSH2 0x307 JUMP JUMPDEST SWAP6 POP POP PUSH1 0x20 DUP7 ADD CALLDATALOAD PUSH8 0xFFFFFFFFFFFFFFFF DUP2 GT ISZERO PUSH2 0x46A JUMPI PUSH2 0x469 PUSH2 0x816 JUMP JUMPDEST JUMPDEST PUSH2 0x476 DUP9 DUP3 DUP10 ADD PUSH2 0x31C JUMP JUMPDEST SWAP5 POP SWAP5 POP POP PUSH1 0x40 DUP7 ADD CALLDATALOAD PUSH8 0xFFFFFFFFFFFFFFFF DUP2 GT ISZERO PUSH2 0x499 JUMPI PUSH2 0x498 PUSH2 0x816 JUMP JUMPDEST JUMPDEST PUSH2 0x4A5 DUP9 DUP3 DUP10 ADD PUSH2 0x372 JUMP JUMPDEST SWAP3 POP SWAP3 POP POP SWAP3 SWAP6 POP SWAP3 SWAP6 SWAP1 SWAP4 POP JUMP JUMPDEST PUSH1 0x0 DUP1 PUSH1 0x20 DUP4 DUP6 SUB SLT ISZERO PUSH2 0x4CB JUMPI PUSH2 0x4CA PUSH2 0x81B JUMP JUMPDEST JUMPDEST PUSH1 0x0 DUP4 ADD CALLDATALOAD PUSH8 0xFFFFFFFFFFFFFFFF DUP2 GT ISZERO PUSH2 0x4E9 JUMPI PUSH2 0x4E8 PUSH2 0x816 JUMP JUMPDEST JUMPDEST PUSH2 0x4F5 DUP6 DUP3 DUP7 ADD PUSH2 0x372 JUMP JUMPDEST SWAP3 POP SWAP3 POP POP SWAP3 POP SWAP3 SWAP1 POP JUMP JUMPDEST PUSH1 0x0 PUSH1 0x20 DUP3 DUP5 SUB SLT ISZERO PUSH2 0x517 JUMPI PUSH2 0x516 PUSH2 0x81B JUMP JUMPDEST JUMPDEST PUSH1 0x0 PUSH2 0x525 DUP5 DUP3 DUP6 ADD PUSH2 0x3C8 JUMP JUMPDEST SWAP2 POP POP SWAP3 SWAP2 POP POP JUMP JUMPDEST PUSH1 0x0 PUSH1 0x20 DUP3 DUP5 SUB SLT ISZERO PUSH2 0x544 JUMPI PUSH2 0x543 PUSH2 0x81B JUMP JUMPDEST JUMPDEST PUSH1 0x0 PUSH2 0x552 DUP5 DUP3 DUP6 ADD PUSH2 0x3DD JUMP JUMPDEST SWAP2 POP POP SWAP3 SWAP2 POP POP JUMP JUMPDEST PUSH2 0x564 DUP2 PUSH2 0x6E1 JUMP JUMPDEST DUP3 MSTORE POP POP JUMP JUMPDEST PUSH1 0x0 PUSH2 0x577 PUSH1 0x18 DUP4 PUSH2 0x67A JUMP JUMPDEST SWAP2 POP PUSH2 0x582 DUP3 PUSH2 0x820 JUMP JUMPDEST PUSH1 0x20 DUP3 ADD SWAP1 POP SWAP2 SWAP1 POP JUMP JUMPDEST PUSH1 0x0 PUSH2 0x59A PUSH1 0x2A DUP4 PUSH2 0x67A JUMP JUMPDEST SWAP2 POP PUSH2 0x5A5 DUP3 PUSH2 0x849 JUMP JUMPDEST PUSH1 0x40 DUP3 ADD SWAP1 POP SWAP2 SWAP1 POP JUMP JUMPDEST PUSH2 0x5B9 DUP2 PUSH2 0x71F JUMP JUMPDEST DUP3 MSTORE POP POP JUMP JUMPDEST PUSH1 0x0 PUSH1 0x40 DUP3 ADD SWAP1 POP PUSH2 0x5D4 PUSH1 0x0 DUP4 ADD DUP6 PUSH2 0x55B JUMP JUMPDEST PUSH2 0x5E1 PUSH1 0x20 DUP4 ADD DUP5 PUSH2 0x55B JUMP JUMPDEST SWAP4 SWAP3 POP POP POP JUMP JUMPDEST PUSH1 0x0 PUSH1 0x60 DUP3 ADD SWAP1 POP PUSH2 0x5FD PUSH1 0x0 DUP4 ADD DUP7 PUSH2 0x55B JUMP JUMPDEST PUSH2 0x60A PUSH1 0x20 DUP4 ADD DUP6 PUSH2 0x55B JUMP JUMPDEST PUSH2 0x617 PUSH1 0x40 DUP4 ADD DUP5 PUSH2 0x5B0 JUMP JUMPDEST SWAP5 SWAP4 POP POP POP POP JUMP JUMPDEST PUSH1 0x0 PUSH1 0x20 DUP3 ADD SWAP1 POP DUP2 DUP2 SUB PUSH1 0x0 DUP4 ADD MSTORE PUSH2 0x638 DUP2 PUSH2 0x56A JUMP JUMPDEST SWAP1 POP SWAP2 SWAP1 POP JUMP JUMPDEST PUSH1 0x0 PUSH1 0x20 DUP3 ADD SWAP1 POP DUP2 DUP2 SUB PUSH1 0x0 DUP4 ADD MSTORE PUSH2 0x658 DUP2 PUSH2 0x58D JUMP JUMPDEST SWAP1 POP SWAP2 SWAP1 POP JUMP JUMPDEST PUSH1 0x0 PUSH1 0x20 DUP3 ADD SWAP1 POP PUSH2 0x674 PUSH1 0x0 DUP4 ADD DUP5 PUSH2 0x5B0 JUMP JUMPDEST SWAP3 SWAP2 POP POP JUMP JUMPDEST PUSH1 0x0 DUP3 DUP3 MSTORE PUSH1 0x20 DUP3 ADD SWAP1 POP SWAP3 SWAP2 POP POP JUMP JUMPDEST PUSH1 0x0 PUSH2 0x696 DUP3 PUSH2 0x71F JUMP JUMPDEST SWAP2 POP PUSH2 0x6A1 DUP4 PUSH2 0x71F JUMP JUMPDEST SWAP3 POP DUP3 PUSH32 0xFFFFFFFFFFFFFFFFFFFFFFFFFFFFFFFFFFFFFFFFFFFFFFFFFFFFFFFFFFFFFFFF SUB DUP3 GT ISZERO PUSH2 0x6D6 JUMPI PUSH2 0x6D5 PUSH2 0x7A9 JUMP JUMPDEST JUMPDEST DUP3 DUP3 ADD SWAP1 POP SWAP3 SWAP2 POP POP JUMP JUMPDEST PUSH1 0x0 PUSH2 0x6EC DUP3 PUSH2 0x6FF JUMP JUMPDEST SWAP1 POP SWAP2 SWAP1 POP JUMP JUMPDEST PUSH1 0x0 DUP2 ISZERO ISZERO SWAP1 POP SWAP2 SWAP1 POP JUMP JUMPDEST PUSH1 0x0 PUSH20 0xFFFFFFFFFFFFFFFFFFFFFFFFFFFFFFFFFFFFFFFF DUP3 AND SWAP1 POP SWAP2 SWAP1 POP JUMP JUMPDEST PUSH1 0x0 DUP2 SWAP1 POP SWAP2 SWAP1 POP JUMP JUMPDEST PUSH1 0x0 PUSH1 0xFF DUP3 AND SWAP1 POP SWAP2 SWAP1 POP JUMP JUMPDEST PUSH1 0x0 PUSH2 0x741 DUP3 PUSH2 0x71F JUMP JUMPDEST SWAP2 POP PUSH32 0xFFFFFFFFFFFFFFFFFFFFFFFFFFFFFFFFFFFFFFFFFFFFFFFFFFFFFFFFFFFFFFFF DUP3 EQ ISZERO PUSH2 0x774 JUMPI PUSH2 0x773 PUSH2 0x7A9 JUMP JUMPDEST JUMPDEST PUSH1 0x1 DUP3 ADD SWAP1 POP SWAP2 SWAP1 POP JUMP JUMPDEST PUSH1 0x0 PUSH2 0x78A DUP3 PUSH2 0x729 JUMP JUMPDEST SWAP2 POP PUSH1 0xFF DUP3 EQ ISZERO PUSH2 0x79E JUMPI PUSH2 0x79D PUSH2 0x7A9 JUMP JUMPDEST JUMPDEST PUSH1 0x1 DUP3 ADD SWAP1 POP SWAP2 SWAP1 POP JUMP JUMPDEST PUSH32 0x4E487B7100000000000000000000000000000000000000000000000000000000 PUSH1 0x0 MSTORE PUSH1 0x11 PUSH1 0x4 MSTORE PUSH1 0x24 PUSH1 0x0 REVERT JUMPDEST PUSH32 0x4E487B7100000000000000000000000000000000000000000000000000000000 PUSH1 0x0 MSTORE PUSH1 0x32 PUSH1 0x4 MSTORE PUSH1 0x24 PUSH1 0x0 REVERT JUMPDEST PUSH1 0x0 DUP1 REVERT JUMPDEST PUSH1 0x0 DUP1 REVERT JUMPDEST PUSH1 0x0 DUP1 REVERT JUMPDEST PUSH1 0x0 DUP1 REVERT JUMPDEST PUSH1 0x0 DUP1 REVERT JUMPDEST PUSH32 0x4E65656420417070726F766520455243323020746F6B656E0000000000000000 PUSH1 0x0 DUP3 ADD MSTORE POP JUMP JUMPDEST PUSH32 0x4C656E67746873206F662041646472657373657320616E6420416D6F756E7473 PUSH1 0x0 DUP3 ADD MSTORE PUSH32 0x204E4F5420455155414C00000000000000000000000000000000000000000000 PUSH1 0x20 DUP3 ADD MSTORE POP JUMP JUMPDEST PUSH2 0x8A1 DUP2 PUSH2 0x6E1 JUMP JUMPDEST DUP2 EQ PUSH2 0x8AC JUMPI PUSH1 0x0 DUP1 REVERT JUMPDEST POP JUMP JUMPDEST PUSH2 0x8B8 DUP2 PUSH2 0x6F3 JUMP JUMPDEST DUP2 EQ PUSH2 0x8C3 JUMPI PUSH1 0x0 DUP1 REVERT JUMPDEST POP JUMP JUMPDEST PUSH2 0x8CF DUP2 PUSH2 0x71F JUMP JUMPDEST DUP2 EQ PUSH2 0x8DA JUMPI PUSH1 0x0 DUP1 REVERT JUMPDEST POP JUMP INVALID LOG2 PUSH5 0x6970667358 0x22 SLT KECCAK256 0xA5 NUMBER 0xE2 SWAP15 0xEB SWAP3 SWAP4 0xA8 DUP12 0x5D PUSH26 0x77ED1EEA7A7CC333AB8EBF0A30A3900F8990670C9964736F6C63 NUMBER STOP ADDMOD SMOD STOP CALLER "
				},
				"gasEstimates": {
					"creation": {
						"codeDepositCost": "464600",
						"executionCost": "499",
						"totalCost": "465099"
					},
					"external": {
						"getSum(uint256[])": "infinite",
						"multiTransferToken(address,address[],uint256[])": "infinite"
					}
				},
				"methodIdentifiers": {
					"getSum(uint256[])": "ccb8c1e0",
					"multiTransferToken(address,address[],uint256[])": "41ed24a2"
				}
			},
			"storageLayout": {
				"storage": [],
				"types": null
			},
			"userdoc": {
				"kind": "user",
				"methods": {
					"multiTransferToken(address,address[],uint256[])": {
						"notice": "向多个地址转账ERC20代币，使用前需要先授权"
					}
				},
				"version": 1
			}
		}
	}
}