{
	"SaleWallet.sol": {
		"SaleWallet": {
			"abi": [
				{
					"anonymous": false,
					"inputs": [
						{
							"indexed": true,
							"internalType": "address",
							"name": "previousOwner",
							"type": "address"
						},
						{
							"indexed": true,
							"internalType": "address",
							"name": "newOwner",
							"type": "address"
						}
					],
					"name": "OwnershipTransferred",
					"type": "event"
				},
				{
					"anonymous": false,
					"inputs": [
						{
							"indexed": false,
							"internalType": "address",
							"name": "",
							"type": "address"
						},
						{
							"indexed": false,
							"internalType": "uint256",
							"name": "",
							"type": "uint256"
						}
					],
					"name": "PublicSaleETHEvent",
					"type": "event"
				},
				{
					"anonymous": false,
					"inputs": [
						{
							"indexed": false,
							"internalType": "address",
							"name": "",
							"type": "address"
						},
						{
							"indexed": false,
							"internalType": "uint256",
							"name": "",
							"type": "uint256"
						}
					],
					"name": "Received",
					"type": "event"
				},
				{
					"inputs": [],
					"name": "BlanceValue",
					"outputs": [
						{
							"internalType": "uint256",
							"name": "",
							"type": "uint256"
						}
					],
					"stateMutability": "view",
					"type": "function"
				},
				{
					"inputs": [],
					"name": "PublicSaleETH",
					"outputs": [
						{
							"internalType": "bool",
							"name": "",
							"type": "bool"
						}
					],
					"stateMutability": "payable",
					"type": "function"
				},
				{
					"inputs": [
						{
							"internalType": "uint256",
							"name": "",
							"type": "uint256"
						}
					],
					"name": "SaleAddress",
					"outputs": [
						{
							"internalType": "address",
							"name": "",
							"type": "address"
						}
					],
					"stateMutability": "view",
					"type": "function"
				},
				{
					"inputs": [
						{
							"internalType": "address",
							"name": "",
							"type": "address"
						}
					],
					"name": "SaleShare",
					"outputs": [
						{
							"internalType": "uint256",
							"name": "",
							"type": "uint256"
						}
					],
					"stateMutability": "view",
					"type": "function"
				},
				{
					"inputs": [],
					"name": "getParticipantIndex",
					"outputs": [
						{
							"internalType": "uint256",
							"name": "",
							"type": "uint256"
						}
					],
					"stateMutability": "view",
					"type": "function"
				},
				{
					"inputs": [],
					"name": "kill",
					"outputs": [
						{
							"internalType": "bool",
							"name": "",
							"type": "bool"
						}
					],
					"stateMutability": "payable",
					"type": "function"
				},
				{
					"inputs": [],
					"name": "owner",
					"outputs": [
						{
							"internalType": "address",
							"name": "",
							"type": "address"
						}
					],
					"stateMutability": "view",
					"type": "function"
				},
				{
					"inputs": [],
					"name": "remaining",
					"outputs": [
						{
							"internalType": "uint256",
							"name": "",
							"type": "uint256"
						}
					],
					"stateMutability": "view",
					"type": "function"
				},
				{
					"inputs": [],
					"name": "renounceOwnership",
					"outputs": [],
					"stateMutability": "nonpayable",
					"type": "function"
				},
				{
					"inputs": [],
					"name": "supply",
					"outputs": [
						{
							"internalType": "uint256",
							"name": "",
							"type": "uint256"
						}
					],
					"stateMutability": "view",
					"type": "function"
				},
				{
					"inputs": [
						{
							"internalType": "address",
							"name": "newOwner",
							"type": "address"
						}
					],
					"name": "transferOwnership",
					"outputs": [],
					"stateMutability": "nonpayable",
					"type": "function"
				},
				{
					"inputs": [
						{
							"internalType": "uint256",
							"name": "amount",
							"type": "uint256"
						}
					],
					"name": "withdraw",
					"outputs": [],
					"stateMutability": "nonpayable",
					"type": "function"
				},
				{
					"stateMutability": "payable",
					"type": "receive"
				}
			],
			"devdoc": {
				"kind": "dev",
				"methods": {
					"owner()": {
						"details": "Returns the address of the current owner."
					},
					"renounceOwnership()": {
						"details": "Leaves the contract without owner. It will not be possible to call `onlyOwner` functions anymore. Can only be called by the current owner. NOTE: Renouncing ownership will leave the contract without an owner, thereby removing any functionality that is only available to the owner."
					},
					"transferOwnership(address)": {
						"details": "Transfers ownership of the contract to a new account (`newOwner`). Can only be called by the current owner."
					}
				},
				"version": 1
			},
			"evm": {
				"assembly": "    /* \"SaleWallet.sol\":174:2383  contract SaleWallet is Ownable{\r... */\n  mstore(0x40, 0x80)\n    /* \"SaleWallet.sol\":516:537  120000000000000000000 */\n  0x068155a43676e00000\n    /* \"SaleWallet.sol\":492:537  uint256 public supply = 120000000000000000000 */\n  0x06\n  sstore\n    /* \"SaleWallet.sol\":174:2383  contract SaleWallet is Ownable{\r... */\n  callvalue\n  dup1\n  iszero\n  tag_1\n  jumpi\n  0x00\n  dup1\n  revert\ntag_1:\n  pop\n    /* \"@openzeppelin/contracts/access/Ownable.sol\":936:968  _transferOwnership(_msgSender()) */\n  tag_4\n    /* \"@openzeppelin/contracts/access/Ownable.sol\":955:967  _msgSender() */\n  tag_5\n    /* \"@openzeppelin/contracts/access/Ownable.sol\":955:965  _msgSender */\n  shl(0x20, tag_6)\n    /* \"@openzeppelin/contracts/access/Ownable.sol\":955:967  _msgSender() */\n  0x20\n  shr\n  jump\t// in\ntag_5:\n    /* \"@openzeppelin/contracts/access/Ownable.sol\":936:954  _transferOwnership */\n  shl(0x20, tag_7)\n    /* \"@openzeppelin/contracts/access/Ownable.sol\":936:968  _transferOwnership(_msgSender()) */\n  0x20\n  shr\n  jump\t// in\ntag_4:\n    /* \"SaleWallet.sol\":174:2383  contract SaleWallet is Ownable{\r... */\n  jump(tag_8)\n    /* \"@openzeppelin/contracts/utils/Context.sol\":640:736  function _msgSender() internal view virtual returns (address) {... */\ntag_6:\n    /* \"@openzeppelin/contracts/utils/Context.sol\":693:700  address */\n  0x00\n    /* \"@openzeppelin/contracts/utils/Context.sol\":719:729  msg.sender */\n  caller\n    /* \"@openzeppelin/contracts/utils/Context.sol\":712:729  return msg.sender */\n  swap1\n  pop\n    /* \"@openzeppelin/contracts/utils/Context.sol\":640:736  function _msgSender() internal view virtual returns (address) {... */\n  swap1\n  jump\t// out\n    /* \"@openzeppelin/contracts/access/Ownable.sol\":2433:2620  function _transferOwnership(address newOwner) internal virtual {... */\ntag_7:\n    /* \"@openzeppelin/contracts/access/Ownable.sol\":2506:2522  address oldOwner */\n  0x00\n    /* \"@openzeppelin/contracts/access/Ownable.sol\":2525:2531  _owner */\n  dup1\n  0x00\n  swap1\n  sload\n  swap1\n  0x0100\n  exp\n  swap1\n  div\n  0xffffffffffffffffffffffffffffffffffffffff\n  and\n    /* \"@openzeppelin/contracts/access/Ownable.sol\":2506:2531  address oldOwner = _owner */\n  swap1\n  pop\n    /* \"@openzeppelin/contracts/access/Ownable.sol\":2550:2558  newOwner */\n  dup2\n    /* \"@openzeppelin/contracts/access/Ownable.sol\":2541:2547  _owner */\n  0x00\n  dup1\n    /* \"@openzeppelin/contracts/access/Ownable.sol\":2541:2558  _owner = newOwner */\n  0x0100\n  exp\n  dup2\n  sload\n  dup2\n  0xffffffffffffffffffffffffffffffffffffffff\n  mul\n  not\n  and\n  swap1\n  dup4\n  0xffffffffffffffffffffffffffffffffffffffff\n  and\n  mul\n  or\n  swap1\n  sstore\n  pop\n    /* \"@openzeppelin/contracts/access/Ownable.sol\":2604:2612  newOwner */\n  dup2\n    /* \"@openzeppelin/contracts/access/Ownable.sol\":2573:2613  OwnershipTransferred(oldOwner, newOwner) */\n  0xffffffffffffffffffffffffffffffffffffffff\n  and\n    /* \"@openzeppelin/contracts/access/Ownable.sol\":2594:2602  oldOwner */\n  dup2\n    /* \"@openzeppelin/contracts/access/Ownable.sol\":2573:2613  OwnershipTransferred(oldOwner, newOwner) */\n  0xffffffffffffffffffffffffffffffffffffffff\n  and\n  0x8be0079c531659141344cd1fd0a4f28419497f9722a3daafe3b4186f6b6457e0\n  mload(0x40)\n  mload(0x40)\n  dup1\n  swap2\n  sub\n  swap1\n  log3\n    /* \"@openzeppelin/contracts/access/Ownable.sol\":2496:2620  {... */\n  pop\n    /* \"@openzeppelin/contracts/access/Ownable.sol\":2433:2620  function _transferOwnership(address newOwner) internal virtual {... */\n  pop\n  jump\t// out\n    /* \"SaleWallet.sol\":174:2383  contract SaleWallet is Ownable{\r... */\ntag_8:\n  dataSize(sub_0)\n  dup1\n  dataOffset(sub_0)\n  0x00\n  codecopy\n  0x00\n  return\nstop\n\nsub_0: assembly {\n        /* \"SaleWallet.sol\":174:2383  contract SaleWallet is Ownable{\r... */\n      mstore(0x40, 0x80)\n      jumpi(tag_1, lt(calldatasize, 0x04))\n      shr(0xe0, calldataload(0x00))\n      dup1\n      0x6585be55\n      gt\n      tag_15\n      jumpi\n      dup1\n      0x6585be55\n      eq\n      tag_9\n      jumpi\n      dup1\n      0x715018a6\n      eq\n      tag_10\n      jumpi\n      dup1\n      0x8da5cb5b\n      eq\n      tag_11\n      jumpi\n      dup1\n      0x936e6027\n      eq\n      tag_12\n      jumpi\n      dup1\n      0xeaa0fc36\n      eq\n      tag_13\n      jumpi\n      dup1\n      0xf2fde38b\n      eq\n      tag_14\n      jumpi\n      jump(tag_2)\n    tag_15:\n      dup1\n      0x047fc9aa\n      eq\n      tag_3\n      jumpi\n      dup1\n      0x27550ce7\n      eq\n      tag_4\n      jumpi\n      dup1\n      0x2e1a7d4d\n      eq\n      tag_5\n      jumpi\n      dup1\n      0x41c0e1b5\n      eq\n      tag_6\n      jumpi\n      dup1\n      0x55234ec0\n      eq\n      tag_7\n      jumpi\n      dup1\n      0x6228669b\n      eq\n      tag_8\n      jumpi\n      jump(tag_2)\n    tag_1:\n      jumpi(tag_2, calldatasize)\n        /* \"SaleWallet.sol\":607:618  remaining() */\n      tag_18\n        /* \"SaleWallet.sol\":607:616  remaining */\n      tag_19\n        /* \"SaleWallet.sol\":607:618  remaining() */\n      jump\t// in\n    tag_18:\n        /* \"SaleWallet.sol\":594:603  msg.value */\n      callvalue\n        /* \"SaleWallet.sol\":594:618  msg.value <= remaining() */\n      gt\n      iszero\n        /* \"SaleWallet.sol\":586:684  require(msg.value <= remaining() ,\"The pre-sale quota cannot be greater than the remaining quota\") */\n      tag_20\n      jumpi\n      mload(0x40)\n      0x08c379a000000000000000000000000000000000000000000000000000000000\n      dup2\n      mstore\n      0x04\n      add\n      tag_21\n      swap1\n      tag_22\n      jump\t// in\n    tag_21:\n      mload(0x40)\n      dup1\n      swap2\n      sub\n      swap1\n      revert\n    tag_20:\n        /* \"SaleWallet.sol\":695:710  PublicSaleETH() */\n      tag_23\n        /* \"SaleWallet.sol\":695:708  PublicSaleETH */\n      tag_24\n        /* \"SaleWallet.sol\":695:710  PublicSaleETH() */\n      jump\t// in\n    tag_23:\n      pop\n        /* \"SaleWallet.sol\":726:757  Received(msg.sender, msg.value) */\n      0x88a5966d370b9919b20f3e2c13ff65706f196a4e32cc2c12bf57088f88525874\n        /* \"SaleWallet.sol\":735:745  msg.sender */\n      caller\n        /* \"SaleWallet.sol\":747:756  msg.value */\n      callvalue\n        /* \"SaleWallet.sol\":726:757  Received(msg.sender, msg.value) */\n      mload(0x40)\n      tag_25\n      swap3\n      swap2\n      swap1\n      tag_26\n      jump\t// in\n    tag_25:\n      mload(0x40)\n      dup1\n      swap2\n      sub\n      swap1\n      log1\n        /* \"SaleWallet.sol\":174:2383  contract SaleWallet is Ownable{\r... */\n      stop\n    tag_2:\n      0x00\n      dup1\n      revert\n        /* \"SaleWallet.sol\":492:537  uint256 public supply = 120000000000000000000 */\n    tag_3:\n      callvalue\n      dup1\n      iszero\n      tag_27\n      jumpi\n      0x00\n      dup1\n      revert\n    tag_27:\n      pop\n      tag_28\n      tag_29\n      jump\t// in\n    tag_28:\n      mload(0x40)\n      tag_30\n      swap2\n      swap1\n      tag_31\n      jump\t// in\n    tag_30:\n      mload(0x40)\n      dup1\n      swap2\n      sub\n      swap1\n      return\n        /* \"SaleWallet.sol\":1529:1623  function getParticipantIndex() public view returns(uint) {\r... */\n    tag_4:\n      callvalue\n      dup1\n      iszero\n      tag_32\n      jumpi\n      0x00\n      dup1\n      revert\n    tag_32:\n      pop\n      tag_33\n      tag_34\n      jump\t// in\n    tag_33:\n      mload(0x40)\n      tag_35\n      swap2\n      swap1\n      tag_31\n      jump\t// in\n    tag_35:\n      mload(0x40)\n      dup1\n      swap2\n      sub\n      swap1\n      return\n        /* \"SaleWallet.sol\":1772:2192  function withdraw(uint256 amount) external  onlyOwner {\r... */\n    tag_5:\n      callvalue\n      dup1\n      iszero\n      tag_36\n      jumpi\n      0x00\n      dup1\n      revert\n    tag_36:\n      pop\n      tag_37\n      0x04\n      dup1\n      calldatasize\n      sub\n      dup2\n      add\n      swap1\n      tag_38\n      swap2\n      swap1\n      tag_39\n      jump\t// in\n    tag_38:\n      tag_40\n      jump\t// in\n    tag_37:\n      stop\n        /* \"SaleWallet.sol\":2233:2368  function kill() payable  external onlyOwner  returns (bool) {\r... */\n    tag_6:\n      tag_41\n      tag_42\n      jump\t// in\n    tag_41:\n      mload(0x40)\n      tag_43\n      swap2\n      swap1\n      tag_44\n      jump\t// in\n    tag_43:\n      mload(0x40)\n      dup1\n      swap2\n      sub\n      swap1\n      return\n        /* \"SaleWallet.sol\":1631:1764  function remaining() public  view returns (uint256) {\r... */\n    tag_7:\n      callvalue\n      dup1\n      iszero\n      tag_45\n      jumpi\n      0x00\n      dup1\n      revert\n    tag_45:\n      pop\n      tag_46\n      tag_19\n      jump\t// in\n    tag_46:\n      mload(0x40)\n      tag_47\n      swap2\n      swap1\n      tag_31\n      jump\t// in\n    tag_47:\n      mload(0x40)\n      dup1\n      swap2\n      sub\n      swap1\n      return\n        /* \"SaleWallet.sol\":779:1519  function PublicSaleETH() payable public returns (bool) {\r... */\n    tag_8:\n      tag_48\n      tag_24\n      jump\t// in\n    tag_48:\n      mload(0x40)\n      tag_49\n      swap2\n      swap1\n      tag_44\n      jump\t// in\n    tag_49:\n      mload(0x40)\n      dup1\n      swap2\n      sub\n      swap1\n      return\n        /* \"SaleWallet.sol\":349:391  mapping (address => uint) public SaleShare */\n    tag_9:\n      callvalue\n      dup1\n      iszero\n      tag_50\n      jumpi\n      0x00\n      dup1\n      revert\n    tag_50:\n      pop\n      tag_51\n      0x04\n      dup1\n      calldatasize\n      sub\n      dup2\n      add\n      swap1\n      tag_52\n      swap2\n      swap1\n      tag_53\n      jump\t// in\n    tag_52:\n      tag_54\n      jump\t// in\n    tag_51:\n      mload(0x40)\n      tag_55\n      swap2\n      swap1\n      tag_31\n      jump\t// in\n    tag_55:\n      mload(0x40)\n      dup1\n      swap2\n      sub\n      swap1\n      return\n        /* \"@openzeppelin/contracts/access/Ownable.sol\":1831:1932  function renounceOwnership() public virtual onlyOwner {... */\n    tag_10:\n      callvalue\n      dup1\n      iszero\n      tag_56\n      jumpi\n      0x00\n      dup1\n      revert\n    tag_56:\n      pop\n      tag_57\n      tag_58\n      jump\t// in\n    tag_57:\n      stop\n        /* \"@openzeppelin/contracts/access/Ownable.sol\":1201:1286  function owner() public view virtual returns (address) {... */\n    tag_11:\n      callvalue\n      dup1\n      iszero\n      tag_59\n      jumpi\n      0x00\n      dup1\n      revert\n    tag_59:\n      pop\n      tag_60\n      tag_61\n      jump\t// in\n    tag_60:\n      mload(0x40)\n      tag_62\n      swap2\n      swap1\n      tag_63\n      jump\t// in\n    tag_62:\n      mload(0x40)\n      dup1\n      swap2\n      sub\n      swap1\n      return\n        /* \"SaleWallet.sol\":398:425  uint256 public  BlanceValue */\n    tag_12:\n      callvalue\n      dup1\n      iszero\n      tag_64\n      jumpi\n      0x00\n      dup1\n      revert\n    tag_64:\n      pop\n      tag_65\n      tag_66\n      jump\t// in\n    tag_65:\n      mload(0x40)\n      tag_67\n      swap2\n      swap1\n      tag_31\n      jump\t// in\n    tag_67:\n      mload(0x40)\n      dup1\n      swap2\n      sub\n      swap1\n      return\n        /* \"SaleWallet.sol\":298:342  mapping (uint => address) public SaleAddress */\n    tag_13:\n      callvalue\n      dup1\n      iszero\n      tag_68\n      jumpi\n      0x00\n      dup1\n      revert\n    tag_68:\n      pop\n      tag_69\n      0x04\n      dup1\n      calldatasize\n      sub\n      dup2\n      add\n      swap1\n      tag_70\n      swap2\n      swap1\n      tag_39\n      jump\t// in\n    tag_70:\n      tag_71\n      jump\t// in\n    tag_69:\n      mload(0x40)\n      tag_72\n      swap2\n      swap1\n      tag_63\n      jump\t// in\n    tag_72:\n      mload(0x40)\n      dup1\n      swap2\n      sub\n      swap1\n      return\n        /* \"@openzeppelin/contracts/access/Ownable.sol\":2081:2279  function transferOwnership(address newOwner) public virtual onlyOwner {... */\n    tag_14:\n      callvalue\n      dup1\n      iszero\n      tag_73\n      jumpi\n      0x00\n      dup1\n      revert\n    tag_73:\n      pop\n      tag_74\n      0x04\n      dup1\n      calldatasize\n      sub\n      dup2\n      add\n      swap1\n      tag_75\n      swap2\n      swap1\n      tag_53\n      jump\t// in\n    tag_75:\n      tag_76\n      jump\t// in\n    tag_74:\n      stop\n        /* \"SaleWallet.sol\":1631:1764  function remaining() public  view returns (uint256) {\r... */\n    tag_19:\n        /* \"SaleWallet.sol\":1674:1681  uint256 */\n      0x00\n        /* \"SaleWallet.sol\":1694:1708  uint256 remain */\n      dup1\n        /* \"SaleWallet.sol\":1721:1732  BlanceValue */\n      sload(0x03)\n        /* \"SaleWallet.sol\":1712:1718  supply */\n      sload(0x06)\n        /* \"SaleWallet.sol\":1712:1732  supply - BlanceValue */\n      tag_78\n      swap2\n      swap1\n      tag_79\n      jump\t// in\n    tag_78:\n        /* \"SaleWallet.sol\":1694:1732  uint256 remain  = supply - BlanceValue */\n      swap1\n      pop\n        /* \"SaleWallet.sol\":1750:1756  remain */\n      dup1\n        /* \"SaleWallet.sol\":1743:1756  return remain */\n      swap2\n      pop\n      pop\n        /* \"SaleWallet.sol\":1631:1764  function remaining() public  view returns (uint256) {\r... */\n      swap1\n      jump\t// out\n        /* \"SaleWallet.sol\":779:1519  function PublicSaleETH() payable public returns (bool) {\r... */\n    tag_24:\n        /* \"SaleWallet.sol\":828:832  bool */\n      0x00\n        /* \"SaleWallet.sol\":865:882  80000000000000000 */\n      0x011c37937e080000\n        /* \"SaleWallet.sol\":853:862  msg.value */\n      callvalue\n        /* \"SaleWallet.sol\":853:882  msg.value > 80000000000000000 */\n      gt\n        /* \"SaleWallet.sol\":845:901  require(msg.value > 80000000000000000, \"Invalid amount\") */\n      tag_81\n      jumpi\n      mload(0x40)\n      0x08c379a000000000000000000000000000000000000000000000000000000000\n      dup2\n      mstore\n      0x04\n      add\n      tag_82\n      swap1\n      tag_83\n      jump\t// in\n    tag_82:\n      mload(0x40)\n      dup1\n      swap2\n      sub\n      swap1\n      revert\n    tag_81:\n        /* \"SaleWallet.sol\":914:926  uint256 sold */\n      0x00\n        /* \"SaleWallet.sol\":929:940  remaining() */\n      tag_84\n        /* \"SaleWallet.sol\":929:938  remaining */\n      tag_19\n        /* \"SaleWallet.sol\":929:940  remaining() */\n      jump\t// in\n    tag_84:\n        /* \"SaleWallet.sol\":914:940  uint256 sold = remaining() */\n      swap1\n      pop\n        /* \"SaleWallet.sol\":971:972  0 */\n      0x00\n        /* \"SaleWallet.sol\":964:968  sold */\n      dup2\n        /* \"SaleWallet.sol\":964:972  sold > 0 */\n      gt\n        /* \"SaleWallet.sol\":961:1490  if(sold > 0){\r... */\n      iszero\n      tag_85\n      jumpi\n        /* \"SaleWallet.sol\":990:1001  participant */\n      0x04\n      0x00\n        /* \"SaleWallet.sol\":990:1003  participant++ */\n      dup2\n      sload\n      dup1\n      swap3\n      swap2\n      swap1\n      tag_86\n      swap1\n      tag_87\n      jump\t// in\n    tag_86:\n      swap2\n      swap1\n      pop\n      sstore\n      pop\n        /* \"SaleWallet.sol\":1057:1067  uint index */\n      0x00\n        /* \"SaleWallet.sol\":1070:1081  participant */\n      sload(0x04)\n        /* \"SaleWallet.sol\":1057:1081  uint index = participant */\n      swap1\n      pop\n        /* \"SaleWallet.sol\":1117:1127  msg.sender */\n      caller\n        /* \"SaleWallet.sol\":1096:1107  SaleAddress */\n      0x01\n        /* \"SaleWallet.sol\":1096:1114  SaleAddress[index] */\n      0x00\n        /* \"SaleWallet.sol\":1108:1113  index */\n      dup4\n        /* \"SaleWallet.sol\":1096:1114  SaleAddress[index] */\n      dup2\n      mstore\n      0x20\n      add\n      swap1\n      dup2\n      mstore\n      0x20\n      add\n      0x00\n      keccak256\n      0x00\n        /* \"SaleWallet.sol\":1096:1127  SaleAddress[index] = msg.sender */\n      0x0100\n      exp\n      dup2\n      sload\n      dup2\n      0xffffffffffffffffffffffffffffffffffffffff\n      mul\n      not\n      and\n      swap1\n      dup4\n      0xffffffffffffffffffffffffffffffffffffffff\n      and\n      mul\n      or\n      swap1\n      sstore\n      pop\n        /* \"SaleWallet.sol\":1178:1195  80000000000000000 */\n      0x011c37937e080000\n        /* \"SaleWallet.sol\":1166:1175  msg.value */\n      callvalue\n        /* \"SaleWallet.sol\":1166:1195  msg.value / 80000000000000000 */\n      tag_88\n      swap2\n      swap1\n      tag_89\n      jump\t// in\n    tag_88:\n        /* \"SaleWallet.sol\":1142:1151  SaleShare */\n      0x02\n        /* \"SaleWallet.sol\":1142:1163  SaleShare[msg.sender] */\n      0x00\n        /* \"SaleWallet.sol\":1152:1162  msg.sender */\n      caller\n        /* \"SaleWallet.sol\":1142:1163  SaleShare[msg.sender] */\n      0xffffffffffffffffffffffffffffffffffffffff\n      and\n      0xffffffffffffffffffffffffffffffffffffffff\n      and\n      dup2\n      mstore\n      0x20\n      add\n      swap1\n      dup2\n      mstore\n      0x20\n      add\n      0x00\n      keccak256\n        /* \"SaleWallet.sol\":1142:1195  SaleShare[msg.sender] = msg.value / 80000000000000000 */\n      dup2\n      swap1\n      sstore\n      pop\n        /* \"SaleWallet.sol\":1225:1234  msg.value */\n      callvalue\n        /* \"SaleWallet.sol\":1210:1221  BlanceValue */\n      0x03\n      0x00\n        /* \"SaleWallet.sol\":1210:1234  BlanceValue += msg.value */\n      dup3\n      dup3\n      sload\n      tag_90\n      swap2\n      swap1\n      tag_91\n      jump\t// in\n    tag_90:\n      swap3\n      pop\n      pop\n      dup2\n      swap1\n      sstore\n      pop\n        /* \"SaleWallet.sol\":1337:1378  PublicSaleETHEvent(msg.sender, msg.value) */\n      0x2146ade97a47950ed70be6ecb1ac92df0872ce4e8ebed36f042623d85df32e8e\n        /* \"SaleWallet.sol\":1356:1366  msg.sender */\n      caller\n        /* \"SaleWallet.sol\":1368:1377  msg.value */\n      callvalue\n        /* \"SaleWallet.sol\":1337:1378  PublicSaleETHEvent(msg.sender, msg.value) */\n      mload(0x40)\n      tag_92\n      swap3\n      swap2\n      swap1\n      tag_26\n      jump\t// in\n    tag_92:\n      mload(0x40)\n      dup1\n      swap2\n      sub\n      swap1\n      log1\n        /* \"SaleWallet.sol\":973:1404  {\r... */\n      pop\n        /* \"SaleWallet.sol\":961:1490  if(sold > 0){\r... */\n      jump(tag_93)\n    tag_85:\n        /* \"SaleWallet.sol\":1421:1422  0 */\n      0x00\n        /* \"SaleWallet.sol\":1413:1417  sold */\n      dup2\n        /* \"SaleWallet.sol\":1413:1422  sold == 0 */\n      eq\n        /* \"SaleWallet.sol\":1409:1490  if (sold == 0) {\r... */\n      iszero\n      tag_94\n      jumpi\n        /* \"SaleWallet.sol\":1447:1457  msg.sender */\n      caller\n        /* \"SaleWallet.sol\":1439:1467  payable(msg.sender).transfer */\n      0xffffffffffffffffffffffffffffffffffffffff\n      and\n        /* \"SaleWallet.sol\":1439:1478  payable(msg.sender).transfer(msg.value) */\n      0x08fc\n        /* \"SaleWallet.sol\":1468:1477  msg.value */\n      callvalue\n        /* \"SaleWallet.sol\":1439:1478  payable(msg.sender).transfer(msg.value) */\n      swap1\n      dup2\n      iszero\n      mul\n      swap1\n      mload(0x40)\n      0x00\n      mload(0x40)\n      dup1\n      dup4\n      sub\n      dup2\n      dup6\n      dup9\n      dup9\n      call\n      swap4\n      pop\n      pop\n      pop\n      pop\n      iszero\n      dup1\n      iszero\n      tag_96\n      jumpi\n      returndatasize\n      0x00\n      dup1\n      returndatacopy\n      revert(0x00, returndatasize)\n    tag_96:\n      pop\n        /* \"SaleWallet.sol\":1409:1490  if (sold == 0) {\r... */\n    tag_94:\n        /* \"SaleWallet.sol\":961:1490  if(sold > 0){\r... */\n    tag_93:\n        /* \"SaleWallet.sol\":1507:1511  true */\n      0x01\n        /* \"SaleWallet.sol\":1500:1511  return true */\n      swap2\n      pop\n      pop\n        /* \"SaleWallet.sol\":779:1519  function PublicSaleETH() payable public returns (bool) {\r... */\n      swap1\n      jump\t// out\n        /* \"SaleWallet.sol\":492:537  uint256 public supply = 120000000000000000000 */\n    tag_29:\n      sload(0x06)\n      dup2\n      jump\t// out\n        /* \"SaleWallet.sol\":1529:1623  function getParticipantIndex() public view returns(uint) {\r... */\n    tag_34:\n        /* \"SaleWallet.sol\":1580:1584  uint */\n      0x00\n        /* \"SaleWallet.sol\":1604:1615  participant */\n      sload(0x04)\n        /* \"SaleWallet.sol\":1597:1615  return participant */\n      swap1\n      pop\n        /* \"SaleWallet.sol\":1529:1623  function getParticipantIndex() public view returns(uint) {\r... */\n      swap1\n      jump\t// out\n        /* \"SaleWallet.sol\":1772:2192  function withdraw(uint256 amount) external  onlyOwner {\r... */\n    tag_40:\n        /* \"@openzeppelin/contracts/access/Ownable.sol\":1094:1107  _checkOwner() */\n      tag_99\n        /* \"@openzeppelin/contracts/access/Ownable.sol\":1094:1105  _checkOwner */\n      tag_100\n        /* \"@openzeppelin/contracts/access/Ownable.sol\":1094:1107  _checkOwner() */\n      jump\t// in\n    tag_99:\n        /* \"SaleWallet.sol\":1855:1876  address(this).balance */\n      selfbalance\n        /* \"SaleWallet.sol\":1845:1851  amount */\n      dup2\n        /* \"SaleWallet.sol\":1845:1876  amount <= address(this).balance */\n      gt\n      iszero\n        /* \"SaleWallet.sol\":1837:1910  require(amount <= address(this).balance, \"Insufficient contract balance\") */\n      tag_102\n      jumpi\n      mload(0x40)\n      0x08c379a000000000000000000000000000000000000000000000000000000000\n      dup2\n      mstore\n      0x04\n      add\n      tag_103\n      swap1\n      tag_104\n      jump\t// in\n    tag_103:\n      mload(0x40)\n      dup1\n      swap2\n      sub\n      swap1\n      revert\n    tag_102:\n        /* \"SaleWallet.sol\":1930:1937  _locked */\n      0x05\n      0x00\n      swap1\n      sload\n      swap1\n      0x0100\n      exp\n      swap1\n      div\n      0xff\n      and\n        /* \"SaleWallet.sol\":1929:1937  !_locked */\n      iszero\n        /* \"SaleWallet.sol\":1921:1970  require(!_locked, \"Withdraw already in progress\") */\n      tag_105\n      jumpi\n      mload(0x40)\n      0x08c379a000000000000000000000000000000000000000000000000000000000\n      dup2\n      mstore\n      0x04\n      add\n      tag_106\n      swap1\n      tag_107\n      jump\t// in\n    tag_106:\n      mload(0x40)\n      dup1\n      swap2\n      sub\n      swap1\n      revert\n    tag_105:\n        /* \"SaleWallet.sol\":1991:1995  true */\n      0x01\n        /* \"SaleWallet.sol\":1981:1988  _locked */\n      0x05\n      0x00\n        /* \"SaleWallet.sol\":1981:1995  _locked = true */\n      0x0100\n      exp\n      dup2\n      sload\n      dup2\n      0xff\n      mul\n      not\n      and\n      swap1\n      dup4\n      iszero\n      iszero\n      mul\n      or\n      swap1\n      sstore\n      pop\n        /* \"SaleWallet.sol\":2006:2030  uint256 withdrawalAmount */\n      0x00\n        /* \"SaleWallet.sol\":2033:2039  amount */\n      dup2\n        /* \"SaleWallet.sol\":2006:2039  uint256 withdrawalAmount = amount */\n      swap1\n      pop\n        /* \"SaleWallet.sol\":2060:2065  false */\n      0x00\n        /* \"SaleWallet.sol\":2050:2057  _locked */\n      0x05\n      0x00\n        /* \"SaleWallet.sol\":2050:2065  _locked = false */\n      0x0100\n      exp\n      dup2\n      sload\n      dup2\n      0xff\n      mul\n      not\n      and\n      swap1\n      dup4\n      iszero\n      iszero\n      mul\n      or\n      swap1\n      sstore\n      pop\n        /* \"SaleWallet.sol\":2077:2089  bool success */\n      0x00\n        /* \"SaleWallet.sol\":2094:2104  msg.sender */\n      caller\n        /* \"SaleWallet.sol\":2094:2109  msg.sender.call */\n      0xffffffffffffffffffffffffffffffffffffffff\n      and\n        /* \"SaleWallet.sol\":2117:2133  withdrawalAmount */\n      dup3\n        /* \"SaleWallet.sol\":2094:2138  msg.sender.call{value: withdrawalAmount}(\"\") */\n      mload(0x40)\n      tag_108\n      swap1\n      tag_109\n      jump\t// in\n    tag_108:\n      0x00\n      mload(0x40)\n      dup1\n      dup4\n      sub\n      dup2\n      dup6\n      dup8\n      gas\n      call\n      swap3\n      pop\n      pop\n      pop\n      returndatasize\n      dup1\n      0x00\n      dup2\n      eq\n      tag_112\n      jumpi\n      mload(0x40)\n      swap2\n      pop\n      and(add(returndatasize, 0x3f), not(0x1f))\n      dup3\n      add\n      0x40\n      mstore\n      returndatasize\n      dup3\n      mstore\n      returndatasize\n      0x00\n      0x20\n      dup5\n      add\n      returndatacopy\n      jump(tag_111)\n    tag_112:\n      0x60\n      swap2\n      pop\n    tag_111:\n      pop\n        /* \"SaleWallet.sol\":2076:2138  (bool success,) = msg.sender.call{value: withdrawalAmount}(\"\") */\n      pop\n      swap1\n      pop\n        /* \"SaleWallet.sol\":2157:2164  success */\n      dup1\n        /* \"SaleWallet.sol\":2149:2184  require(success, \"Withdraw failed\") */\n      tag_113\n      jumpi\n      mload(0x40)\n      0x08c379a000000000000000000000000000000000000000000000000000000000\n      dup2\n      mstore\n      0x04\n      add\n      tag_114\n      swap1\n      tag_115\n      jump\t// in\n    tag_114:\n      mload(0x40)\n      dup1\n      swap2\n      sub\n      swap1\n      revert\n    tag_113:\n        /* \"SaleWallet.sol\":1826:2192  {\r... */\n      pop\n      pop\n        /* \"SaleWallet.sol\":1772:2192  function withdraw(uint256 amount) external  onlyOwner {\r... */\n      pop\n      jump\t// out\n        /* \"SaleWallet.sol\":2233:2368  function kill() payable  external onlyOwner  returns (bool) {\r... */\n    tag_42:\n        /* \"SaleWallet.sol\":2287:2291  bool */\n      0x00\n        /* \"@openzeppelin/contracts/access/Ownable.sol\":1094:1107  _checkOwner() */\n      tag_117\n        /* \"@openzeppelin/contracts/access/Ownable.sol\":1094:1105  _checkOwner */\n      tag_100\n        /* \"@openzeppelin/contracts/access/Ownable.sol\":1094:1107  _checkOwner() */\n      jump\t// in\n    tag_117:\n        /* \"SaleWallet.sol\":2326:2336  msg.sender */\n      caller\n        /* \"SaleWallet.sol\":2304:2338  selfdestruct(payable (msg.sender)) */\n      0xffffffffffffffffffffffffffffffffffffffff\n      and\n      selfdestruct\n        /* \"SaleWallet.sol\":349:391  mapping (address => uint) public SaleShare */\n    tag_54:\n      mstore(0x20, 0x02)\n      dup1\n      0x00\n      mstore\n      keccak256(0x00, 0x40)\n      0x00\n      swap2\n      pop\n      swap1\n      pop\n      sload\n      dup2\n      jump\t// out\n        /* \"@openzeppelin/contracts/access/Ownable.sol\":1831:1932  function renounceOwnership() public virtual onlyOwner {... */\n    tag_58:\n        /* \"@openzeppelin/contracts/access/Ownable.sol\":1094:1107  _checkOwner() */\n      tag_120\n        /* \"@openzeppelin/contracts/access/Ownable.sol\":1094:1105  _checkOwner */\n      tag_100\n        /* \"@openzeppelin/contracts/access/Ownable.sol\":1094:1107  _checkOwner() */\n      jump\t// in\n    tag_120:\n        /* \"@openzeppelin/contracts/access/Ownable.sol\":1895:1925  _transferOwnership(address(0)) */\n      tag_122\n        /* \"@openzeppelin/contracts/access/Ownable.sol\":1922:1923  0 */\n      0x00\n        /* \"@openzeppelin/contracts/access/Ownable.sol\":1895:1913  _transferOwnership */\n      tag_123\n        /* \"@openzeppelin/contracts/access/Ownable.sol\":1895:1925  _transferOwnership(address(0)) */\n      jump\t// in\n    tag_122:\n        /* \"@openzeppelin/contracts/access/Ownable.sol\":1831:1932  function renounceOwnership() public virtual onlyOwner {... */\n      jump\t// out\n        /* \"@openzeppelin/contracts/access/Ownable.sol\":1201:1286  function owner() public view virtual returns (address) {... */\n    tag_61:\n        /* \"@openzeppelin/contracts/access/Ownable.sol\":1247:1254  address */\n      0x00\n        /* \"@openzeppelin/contracts/access/Ownable.sol\":1273:1279  _owner */\n      dup1\n      0x00\n      swap1\n      sload\n      swap1\n      0x0100\n      exp\n      swap1\n      div\n      0xffffffffffffffffffffffffffffffffffffffff\n      and\n        /* \"@openzeppelin/contracts/access/Ownable.sol\":1266:1279  return _owner */\n      swap1\n      pop\n        /* \"@openzeppelin/contracts/access/Ownable.sol\":1201:1286  function owner() public view virtual returns (address) {... */\n      swap1\n      jump\t// out\n        /* \"SaleWallet.sol\":398:425  uint256 public  BlanceValue */\n    tag_66:\n      sload(0x03)\n      dup2\n      jump\t// out\n        /* \"SaleWallet.sol\":298:342  mapping (uint => address) public SaleAddress */\n    tag_71:\n      mstore(0x20, 0x01)\n      dup1\n      0x00\n      mstore\n      keccak256(0x00, 0x40)\n      0x00\n      swap2\n      pop\n      sload\n      swap1\n      0x0100\n      exp\n      swap1\n      div\n      0xffffffffffffffffffffffffffffffffffffffff\n      and\n      dup2\n      jump\t// out\n        /* \"@openzeppelin/contracts/access/Ownable.sol\":2081:2279  function transferOwnership(address newOwner) public virtual onlyOwner {... */\n    tag_76:\n        /* \"@openzeppelin/contracts/access/Ownable.sol\":1094:1107  _checkOwner() */\n      tag_126\n        /* \"@openzeppelin/contracts/access/Ownable.sol\":1094:1105  _checkOwner */\n      tag_100\n        /* \"@openzeppelin/contracts/access/Ownable.sol\":1094:1107  _checkOwner() */\n      jump\t// in\n    tag_126:\n        /* \"@openzeppelin/contracts/access/Ownable.sol\":2189:2190  0 */\n      0x00\n        /* \"@openzeppelin/contracts/access/Ownable.sol\":2169:2191  newOwner != address(0) */\n      0xffffffffffffffffffffffffffffffffffffffff\n      and\n        /* \"@openzeppelin/contracts/access/Ownable.sol\":2169:2177  newOwner */\n      dup2\n        /* \"@openzeppelin/contracts/access/Ownable.sol\":2169:2191  newOwner != address(0) */\n      0xffffffffffffffffffffffffffffffffffffffff\n      and\n      eq\n      iszero\n        /* \"@openzeppelin/contracts/access/Ownable.sol\":2161:2234  require(newOwner != address(0), \"Ownable: new owner is the zero address\") */\n      tag_128\n      jumpi\n      mload(0x40)\n      0x08c379a000000000000000000000000000000000000000000000000000000000\n      dup2\n      mstore\n      0x04\n      add\n      tag_129\n      swap1\n      tag_130\n      jump\t// in\n    tag_129:\n      mload(0x40)\n      dup1\n      swap2\n      sub\n      swap1\n      revert\n    tag_128:\n        /* \"@openzeppelin/contracts/access/Ownable.sol\":2244:2272  _transferOwnership(newOwner) */\n      tag_131\n        /* \"@openzeppelin/contracts/access/Ownable.sol\":2263:2271  newOwner */\n      dup2\n        /* \"@openzeppelin/contracts/access/Ownable.sol\":2244:2262  _transferOwnership */\n      tag_123\n        /* \"@openzeppelin/contracts/access/Ownable.sol\":2244:2272  _transferOwnership(newOwner) */\n      jump\t// in\n    tag_131:\n        /* \"@openzeppelin/contracts/access/Ownable.sol\":2081:2279  function transferOwnership(address newOwner) public virtual onlyOwner {... */\n      pop\n      jump\t// out\n        /* \"@openzeppelin/contracts/access/Ownable.sol\":1359:1489  function _checkOwner() internal view virtual {... */\n    tag_100:\n        /* \"@openzeppelin/contracts/access/Ownable.sol\":1433:1445  _msgSender() */\n      tag_133\n        /* \"@openzeppelin/contracts/access/Ownable.sol\":1433:1443  _msgSender */\n      tag_134\n        /* \"@openzeppelin/contracts/access/Ownable.sol\":1433:1445  _msgSender() */\n      jump\t// in\n    tag_133:\n        /* \"@openzeppelin/contracts/access/Ownable.sol\":1422:1445  owner() == _msgSender() */\n      0xffffffffffffffffffffffffffffffffffffffff\n      and\n        /* \"@openzeppelin/contracts/access/Ownable.sol\":1422:1429  owner() */\n      tag_135\n        /* \"@openzeppelin/contracts/access/Ownable.sol\":1422:1427  owner */\n      tag_61\n        /* \"@openzeppelin/contracts/access/Ownable.sol\":1422:1429  owner() */\n      jump\t// in\n    tag_135:\n        /* \"@openzeppelin/contracts/access/Ownable.sol\":1422:1445  owner() == _msgSender() */\n      0xffffffffffffffffffffffffffffffffffffffff\n      and\n      eq\n        /* \"@openzeppelin/contracts/access/Ownable.sol\":1414:1482  require(owner() == _msgSender(), \"Ownable: caller is not the owner\") */\n      tag_136\n      jumpi\n      mload(0x40)\n      0x08c379a000000000000000000000000000000000000000000000000000000000\n      dup2\n      mstore\n      0x04\n      add\n      tag_137\n      swap1\n      tag_138\n      jump\t// in\n    tag_137:\n      mload(0x40)\n      dup1\n      swap2\n      sub\n      swap1\n      revert\n    tag_136:\n        /* \"@openzeppelin/contracts/access/Ownable.sol\":1359:1489  function _checkOwner() internal view virtual {... */\n      jump\t// out\n        /* \"@openzeppelin/contracts/access/Ownable.sol\":2433:2620  function _transferOwnership(address newOwner) internal virtual {... */\n    tag_123:\n        /* \"@openzeppelin/contracts/access/Ownable.sol\":2506:2522  address oldOwner */\n      0x00\n        /* \"@openzeppelin/contracts/access/Ownable.sol\":2525:2531  _owner */\n      dup1\n      0x00\n      swap1\n      sload\n      swap1\n      0x0100\n      exp\n      swap1\n      div\n      0xffffffffffffffffffffffffffffffffffffffff\n      and\n        /* \"@openzeppelin/contracts/access/Ownable.sol\":2506:2531  address oldOwner = _owner */\n      swap1\n      pop\n        /* \"@openzeppelin/contracts/access/Ownable.sol\":2550:2558  newOwner */\n      dup2\n        /* \"@openzeppelin/contracts/access/Ownable.sol\":2541:2547  _owner */\n      0x00\n      dup1\n        /* \"@openzeppelin/contracts/access/Ownable.sol\":2541:2558  _owner = newOwner */\n      0x0100\n      exp\n      dup2\n      sload\n      dup2\n      0xffffffffffffffffffffffffffffffffffffffff\n      mul\n      not\n      and\n      swap1\n      dup4\n      0xffffffffffffffffffffffffffffffffffffffff\n      and\n      mul\n      or\n      swap1\n      sstore\n      pop\n        /* \"@openzeppelin/contracts/access/Ownable.sol\":2604:2612  newOwner */\n      dup2\n        /* \"@openzeppelin/contracts/access/Ownable.sol\":2573:2613  OwnershipTransferred(oldOwner, newOwner) */\n      0xffffffffffffffffffffffffffffffffffffffff\n      and\n        /* \"@openzeppelin/contracts/access/Ownable.sol\":2594:2602  oldOwner */\n      dup2\n        /* \"@openzeppelin/contracts/access/Ownable.sol\":2573:2613  OwnershipTransferred(oldOwner, newOwner) */\n      0xffffffffffffffffffffffffffffffffffffffff\n      and\n      0x8be0079c531659141344cd1fd0a4f28419497f9722a3daafe3b4186f6b6457e0\n      mload(0x40)\n      mload(0x40)\n      dup1\n      swap2\n      sub\n      swap1\n      log3\n        /* \"@openzeppelin/contracts/access/Ownable.sol\":2496:2620  {... */\n      pop\n        /* \"@openzeppelin/contracts/access/Ownable.sol\":2433:2620  function _transferOwnership(address newOwner) internal virtual {... */\n      pop\n      jump\t// out\n        /* \"@openzeppelin/contracts/utils/Context.sol\":640:736  function _msgSender() internal view virtual returns (address) {... */\n    tag_134:\n        /* \"@openzeppelin/contracts/utils/Context.sol\":693:700  address */\n      0x00\n        /* \"@openzeppelin/contracts/utils/Context.sol\":719:729  msg.sender */\n      caller\n        /* \"@openzeppelin/contracts/utils/Context.sol\":712:729  return msg.sender */\n      swap1\n      pop\n        /* \"@openzeppelin/contracts/utils/Context.sol\":640:736  function _msgSender() internal view virtual returns (address) {... */\n      swap1\n      jump\t// out\n        /* \"#utility.yul\":7:146   */\n    tag_142:\n        /* \"#utility.yul\":53:58   */\n      0x00\n        /* \"#utility.yul\":91:97   */\n      dup2\n        /* \"#utility.yul\":78:98   */\n      calldataload\n        /* \"#utility.yul\":69:98   */\n      swap1\n      pop\n        /* \"#utility.yul\":107:140   */\n      tag_144\n        /* \"#utility.yul\":134:139   */\n      dup2\n        /* \"#utility.yul\":107:140   */\n      tag_145\n      jump\t// in\n    tag_144:\n        /* \"#utility.yul\":7:146   */\n      swap3\n      swap2\n      pop\n      pop\n      jump\t// out\n        /* \"#utility.yul\":152:291   */\n    tag_146:\n        /* \"#utility.yul\":198:203   */\n      0x00\n        /* \"#utility.yul\":236:242   */\n      dup2\n        /* \"#utility.yul\":223:243   */\n      calldataload\n        /* \"#utility.yul\":214:243   */\n      swap1\n      pop\n        /* \"#utility.yul\":252:285   */\n      tag_148\n        /* \"#utility.yul\":279:284   */\n      dup2\n        /* \"#utility.yul\":252:285   */\n      tag_149\n      jump\t// in\n    tag_148:\n        /* \"#utility.yul\":152:291   */\n      swap3\n      swap2\n      pop\n      pop\n      jump\t// out\n        /* \"#utility.yul\":297:626   */\n    tag_53:\n        /* \"#utility.yul\":356:362   */\n      0x00\n        /* \"#utility.yul\":405:407   */\n      0x20\n        /* \"#utility.yul\":393:402   */\n      dup3\n        /* \"#utility.yul\":384:391   */\n      dup5\n        /* \"#utility.yul\":380:403   */\n      sub\n        /* \"#utility.yul\":376:408   */\n      slt\n        /* \"#utility.yul\":373:492   */\n      iszero\n      tag_151\n      jumpi\n        /* \"#utility.yul\":411:490   */\n      tag_152\n      tag_153\n      jump\t// in\n    tag_152:\n        /* \"#utility.yul\":373:492   */\n    tag_151:\n        /* \"#utility.yul\":531:532   */\n      0x00\n        /* \"#utility.yul\":556:609   */\n      tag_154\n        /* \"#utility.yul\":601:608   */\n      dup5\n        /* \"#utility.yul\":592:598   */\n      dup3\n        /* \"#utility.yul\":581:590   */\n      dup6\n        /* \"#utility.yul\":577:599   */\n      add\n        /* \"#utility.yul\":556:609   */\n      tag_142\n      jump\t// in\n    tag_154:\n        /* \"#utility.yul\":546:609   */\n      swap2\n      pop\n        /* \"#utility.yul\":502:619   */\n      pop\n        /* \"#utility.yul\":297:626   */\n      swap3\n      swap2\n      pop\n      pop\n      jump\t// out\n        /* \"#utility.yul\":632:961   */\n    tag_39:\n        /* \"#utility.yul\":691:697   */\n      0x00\n        /* \"#utility.yul\":740:742   */\n      0x20\n        /* \"#utility.yul\":728:737   */\n      dup3\n        /* \"#utility.yul\":719:726   */\n      dup5\n        /* \"#utility.yul\":715:738   */\n      sub\n        /* \"#utility.yul\":711:743   */\n      slt\n        /* \"#utility.yul\":708:827   */\n      iszero\n      tag_156\n      jumpi\n        /* \"#utility.yul\":746:825   */\n      tag_157\n      tag_153\n      jump\t// in\n    tag_157:\n        /* \"#utility.yul\":708:827   */\n    tag_156:\n        /* \"#utility.yul\":866:867   */\n      0x00\n        /* \"#utility.yul\":891:944   */\n      tag_158\n        /* \"#utility.yul\":936:943   */\n      dup5\n        /* \"#utility.yul\":927:933   */\n      dup3\n        /* \"#utility.yul\":916:925   */\n      dup6\n        /* \"#utility.yul\":912:934   */\n      add\n        /* \"#utility.yul\":891:944   */\n      tag_146\n      jump\t// in\n    tag_158:\n        /* \"#utility.yul\":881:944   */\n      swap2\n      pop\n        /* \"#utility.yul\":837:954   */\n      pop\n        /* \"#utility.yul\":632:961   */\n      swap3\n      swap2\n      pop\n      pop\n      jump\t// out\n        /* \"#utility.yul\":967:1085   */\n    tag_159:\n        /* \"#utility.yul\":1054:1078   */\n      tag_161\n        /* \"#utility.yul\":1072:1077   */\n      dup2\n        /* \"#utility.yul\":1054:1078   */\n      tag_162\n      jump\t// in\n    tag_161:\n        /* \"#utility.yul\":1049:1052   */\n      dup3\n        /* \"#utility.yul\":1042:1079   */\n      mstore\n        /* \"#utility.yul\":967:1085   */\n      pop\n      pop\n      jump\t// out\n        /* \"#utility.yul\":1091:1200   */\n    tag_163:\n        /* \"#utility.yul\":1172:1193   */\n      tag_165\n        /* \"#utility.yul\":1187:1192   */\n      dup2\n        /* \"#utility.yul\":1172:1193   */\n      tag_166\n      jump\t// in\n    tag_165:\n        /* \"#utility.yul\":1167:1170   */\n      dup3\n        /* \"#utility.yul\":1160:1194   */\n      mstore\n        /* \"#utility.yul\":1091:1200   */\n      pop\n      pop\n      jump\t// out\n        /* \"#utility.yul\":1206:1572   */\n    tag_167:\n        /* \"#utility.yul\":1348:1351   */\n      0x00\n        /* \"#utility.yul\":1369:1436   */\n      tag_169\n        /* \"#utility.yul\":1433:1435   */\n      0x26\n        /* \"#utility.yul\":1428:1431   */\n      dup4\n        /* \"#utility.yul\":1369:1436   */\n      tag_170\n      jump\t// in\n    tag_169:\n        /* \"#utility.yul\":1362:1436   */\n      swap2\n      pop\n        /* \"#utility.yul\":1445:1538   */\n      tag_171\n        /* \"#utility.yul\":1534:1537   */\n      dup3\n        /* \"#utility.yul\":1445:1538   */\n      tag_172\n      jump\t// in\n    tag_171:\n        /* \"#utility.yul\":1563:1565   */\n      0x40\n        /* \"#utility.yul\":1558:1561   */\n      dup3\n        /* \"#utility.yul\":1554:1566   */\n      add\n        /* \"#utility.yul\":1547:1566   */\n      swap1\n      pop\n        /* \"#utility.yul\":1206:1572   */\n      swap2\n      swap1\n      pop\n      jump\t// out\n        /* \"#utility.yul\":1578:1944   */\n    tag_173:\n        /* \"#utility.yul\":1720:1723   */\n      0x00\n        /* \"#utility.yul\":1741:1808   */\n      tag_175\n        /* \"#utility.yul\":1805:1807   */\n      0x0f\n        /* \"#utility.yul\":1800:1803   */\n      dup4\n        /* \"#utility.yul\":1741:1808   */\n      tag_170\n      jump\t// in\n    tag_175:\n        /* \"#utility.yul\":1734:1808   */\n      swap2\n      pop\n        /* \"#utility.yul\":1817:1910   */\n      tag_176\n        /* \"#utility.yul\":1906:1909   */\n      dup3\n        /* \"#utility.yul\":1817:1910   */\n      tag_177\n      jump\t// in\n    tag_176:\n        /* \"#utility.yul\":1935:1937   */\n      0x20\n        /* \"#utility.yul\":1930:1933   */\n      dup3\n        /* \"#utility.yul\":1926:1938   */\n      add\n        /* \"#utility.yul\":1919:1938   */\n      swap1\n      pop\n        /* \"#utility.yul\":1578:1944   */\n      swap2\n      swap1\n      pop\n      jump\t// out\n        /* \"#utility.yul\":1950:2316   */\n    tag_178:\n        /* \"#utility.yul\":2092:2095   */\n      0x00\n        /* \"#utility.yul\":2113:2180   */\n      tag_180\n        /* \"#utility.yul\":2177:2179   */\n      0x0e\n        /* \"#utility.yul\":2172:2175   */\n      dup4\n        /* \"#utility.yul\":2113:2180   */\n      tag_170\n      jump\t// in\n    tag_180:\n        /* \"#utility.yul\":2106:2180   */\n      swap2\n      pop\n        /* \"#utility.yul\":2189:2282   */\n      tag_181\n        /* \"#utility.yul\":2278:2281   */\n      dup3\n        /* \"#utility.yul\":2189:2282   */\n      tag_182\n      jump\t// in\n    tag_181:\n        /* \"#utility.yul\":2307:2309   */\n      0x20\n        /* \"#utility.yul\":2302:2305   */\n      dup3\n        /* \"#utility.yul\":2298:2310   */\n      add\n        /* \"#utility.yul\":2291:2310   */\n      swap1\n      pop\n        /* \"#utility.yul\":1950:2316   */\n      swap2\n      swap1\n      pop\n      jump\t// out\n        /* \"#utility.yul\":2322:2688   */\n    tag_183:\n        /* \"#utility.yul\":2464:2467   */\n      0x00\n        /* \"#utility.yul\":2485:2552   */\n      tag_185\n        /* \"#utility.yul\":2549:2551   */\n      0x1c\n        /* \"#utility.yul\":2544:2547   */\n      dup4\n        /* \"#utility.yul\":2485:2552   */\n      tag_170\n      jump\t// in\n    tag_185:\n        /* \"#utility.yul\":2478:2552   */\n      swap2\n      pop\n        /* \"#utility.yul\":2561:2654   */\n      tag_186\n        /* \"#utility.yul\":2650:2653   */\n      dup3\n        /* \"#utility.yul\":2561:2654   */\n      tag_187\n      jump\t// in\n    tag_186:\n        /* \"#utility.yul\":2679:2681   */\n      0x20\n        /* \"#utility.yul\":2674:2677   */\n      dup3\n        /* \"#utility.yul\":2670:2682   */\n      add\n        /* \"#utility.yul\":2663:2682   */\n      swap1\n      pop\n        /* \"#utility.yul\":2322:2688   */\n      swap2\n      swap1\n      pop\n      jump\t// out\n        /* \"#utility.yul\":2694:3060   */\n    tag_188:\n        /* \"#utility.yul\":2836:2839   */\n      0x00\n        /* \"#utility.yul\":2857:2924   */\n      tag_190\n        /* \"#utility.yul\":2921:2923   */\n      0x20\n        /* \"#utility.yul\":2916:2919   */\n      dup4\n        /* \"#utility.yul\":2857:2924   */\n      tag_170\n      jump\t// in\n    tag_190:\n        /* \"#utility.yul\":2850:2924   */\n      swap2\n      pop\n        /* \"#utility.yul\":2933:3026   */\n      tag_191\n        /* \"#utility.yul\":3022:3025   */\n      dup3\n        /* \"#utility.yul\":2933:3026   */\n      tag_192\n      jump\t// in\n    tag_191:\n        /* \"#utility.yul\":3051:3053   */\n      0x20\n        /* \"#utility.yul\":3046:3049   */\n      dup3\n        /* \"#utility.yul\":3042:3054   */\n      add\n        /* \"#utility.yul\":3035:3054   */\n      swap1\n      pop\n        /* \"#utility.yul\":2694:3060   */\n      swap2\n      swap1\n      pop\n      jump\t// out\n        /* \"#utility.yul\":3066:3464   */\n    tag_193:\n        /* \"#utility.yul\":3225:3228   */\n      0x00\n        /* \"#utility.yul\":3246:3329   */\n      tag_195\n        /* \"#utility.yul\":3327:3328   */\n      0x00\n        /* \"#utility.yul\":3322:3325   */\n      dup4\n        /* \"#utility.yul\":3246:3329   */\n      tag_196\n      jump\t// in\n    tag_195:\n        /* \"#utility.yul\":3239:3329   */\n      swap2\n      pop\n        /* \"#utility.yul\":3338:3431   */\n      tag_197\n        /* \"#utility.yul\":3427:3430   */\n      dup3\n        /* \"#utility.yul\":3338:3431   */\n      tag_198\n      jump\t// in\n    tag_197:\n        /* \"#utility.yul\":3456:3457   */\n      0x00\n        /* \"#utility.yul\":3451:3454   */\n      dup3\n        /* \"#utility.yul\":3447:3458   */\n      add\n        /* \"#utility.yul\":3440:3458   */\n      swap1\n      pop\n        /* \"#utility.yul\":3066:3464   */\n      swap2\n      swap1\n      pop\n      jump\t// out\n        /* \"#utility.yul\":3470:3836   */\n    tag_199:\n        /* \"#utility.yul\":3612:3615   */\n      0x00\n        /* \"#utility.yul\":3633:3700   */\n      tag_201\n        /* \"#utility.yul\":3697:3699   */\n      0x1d\n        /* \"#utility.yul\":3692:3695   */\n      dup4\n        /* \"#utility.yul\":3633:3700   */\n      tag_170\n      jump\t// in\n    tag_201:\n        /* \"#utility.yul\":3626:3700   */\n      swap2\n      pop\n        /* \"#utility.yul\":3709:3802   */\n      tag_202\n        /* \"#utility.yul\":3798:3801   */\n      dup3\n        /* \"#utility.yul\":3709:3802   */\n      tag_203\n      jump\t// in\n    tag_202:\n        /* \"#utility.yul\":3827:3829   */\n      0x20\n        /* \"#utility.yul\":3822:3825   */\n      dup3\n        /* \"#utility.yul\":3818:3830   */\n      add\n        /* \"#utility.yul\":3811:3830   */\n      swap1\n      pop\n        /* \"#utility.yul\":3470:3836   */\n      swap2\n      swap1\n      pop\n      jump\t// out\n        /* \"#utility.yul\":3842:4208   */\n    tag_204:\n        /* \"#utility.yul\":3984:3987   */\n      0x00\n        /* \"#utility.yul\":4005:4072   */\n      tag_206\n        /* \"#utility.yul\":4069:4071   */\n      0x3d\n        /* \"#utility.yul\":4064:4067   */\n      dup4\n        /* \"#utility.yul\":4005:4072   */\n      tag_170\n      jump\t// in\n    tag_206:\n        /* \"#utility.yul\":3998:4072   */\n      swap2\n      pop\n        /* \"#utility.yul\":4081:4174   */\n      tag_207\n        /* \"#utility.yul\":4170:4173   */\n      dup3\n        /* \"#utility.yul\":4081:4174   */\n      tag_208\n      jump\t// in\n    tag_207:\n        /* \"#utility.yul\":4199:4201   */\n      0x40\n        /* \"#utility.yul\":4194:4197   */\n      dup3\n        /* \"#utility.yul\":4190:4202   */\n      add\n        /* \"#utility.yul\":4183:4202   */\n      swap1\n      pop\n        /* \"#utility.yul\":3842:4208   */\n      swap2\n      swap1\n      pop\n      jump\t// out\n        /* \"#utility.yul\":4214:4332   */\n    tag_209:\n        /* \"#utility.yul\":4301:4325   */\n      tag_211\n        /* \"#utility.yul\":4319:4324   */\n      dup2\n        /* \"#utility.yul\":4301:4325   */\n      tag_212\n      jump\t// in\n    tag_211:\n        /* \"#utility.yul\":4296:4299   */\n      dup3\n        /* \"#utility.yul\":4289:4326   */\n      mstore\n        /* \"#utility.yul\":4214:4332   */\n      pop\n      pop\n      jump\t// out\n        /* \"#utility.yul\":4338:4717   */\n    tag_109:\n        /* \"#utility.yul\":4522:4525   */\n      0x00\n        /* \"#utility.yul\":4544:4691   */\n      tag_214\n        /* \"#utility.yul\":4687:4690   */\n      dup3\n        /* \"#utility.yul\":4544:4691   */\n      tag_193\n      jump\t// in\n    tag_214:\n        /* \"#utility.yul\":4537:4691   */\n      swap2\n      pop\n        /* \"#utility.yul\":4708:4711   */\n      dup2\n        /* \"#utility.yul\":4701:4711   */\n      swap1\n      pop\n        /* \"#utility.yul\":4338:4717   */\n      swap2\n      swap1\n      pop\n      jump\t// out\n        /* \"#utility.yul\":4723:4945   */\n    tag_63:\n        /* \"#utility.yul\":4816:4820   */\n      0x00\n        /* \"#utility.yul\":4854:4856   */\n      0x20\n        /* \"#utility.yul\":4843:4852   */\n      dup3\n        /* \"#utility.yul\":4839:4857   */\n      add\n        /* \"#utility.yul\":4831:4857   */\n      swap1\n      pop\n        /* \"#utility.yul\":4867:4938   */\n      tag_216\n        /* \"#utility.yul\":4935:4936   */\n      0x00\n        /* \"#utility.yul\":4924:4933   */\n      dup4\n        /* \"#utility.yul\":4920:4937   */\n      add\n        /* \"#utility.yul\":4911:4917   */\n      dup5\n        /* \"#utility.yul\":4867:4938   */\n      tag_159\n      jump\t// in\n    tag_216:\n        /* \"#utility.yul\":4723:4945   */\n      swap3\n      swap2\n      pop\n      pop\n      jump\t// out\n        /* \"#utility.yul\":4951:5283   */\n    tag_26:\n        /* \"#utility.yul\":5072:5076   */\n      0x00\n        /* \"#utility.yul\":5110:5112   */\n      0x40\n        /* \"#utility.yul\":5099:5108   */\n      dup3\n        /* \"#utility.yul\":5095:5113   */\n      add\n        /* \"#utility.yul\":5087:5113   */\n      swap1\n      pop\n        /* \"#utility.yul\":5123:5194   */\n      tag_218\n        /* \"#utility.yul\":5191:5192   */\n      0x00\n        /* \"#utility.yul\":5180:5189   */\n      dup4\n        /* \"#utility.yul\":5176:5193   */\n      add\n        /* \"#utility.yul\":5167:5173   */\n      dup6\n        /* \"#utility.yul\":5123:5194   */\n      tag_159\n      jump\t// in\n    tag_218:\n        /* \"#utility.yul\":5204:5276   */\n      tag_219\n        /* \"#utility.yul\":5272:5274   */\n      0x20\n        /* \"#utility.yul\":5261:5270   */\n      dup4\n        /* \"#utility.yul\":5257:5275   */\n      add\n        /* \"#utility.yul\":5248:5254   */\n      dup5\n        /* \"#utility.yul\":5204:5276   */\n      tag_209\n      jump\t// in\n    tag_219:\n        /* \"#utility.yul\":4951:5283   */\n      swap4\n      swap3\n      pop\n      pop\n      pop\n      jump\t// out\n        /* \"#utility.yul\":5289:5499   */\n    tag_44:\n        /* \"#utility.yul\":5376:5380   */\n      0x00\n        /* \"#utility.yul\":5414:5416   */\n      0x20\n        /* \"#utility.yul\":5403:5412   */\n      dup3\n        /* \"#utility.yul\":5399:5417   */\n      add\n        /* \"#utility.yul\":5391:5417   */\n      swap1\n      pop\n        /* \"#utility.yul\":5427:5492   */\n      tag_221\n        /* \"#utility.yul\":5489:5490   */\n      0x00\n        /* \"#utility.yul\":5478:5487   */\n      dup4\n        /* \"#utility.yul\":5474:5491   */\n      add\n        /* \"#utility.yul\":5465:5471   */\n      dup5\n        /* \"#utility.yul\":5427:5492   */\n      tag_163\n      jump\t// in\n    tag_221:\n        /* \"#utility.yul\":5289:5499   */\n      swap3\n      swap2\n      pop\n      pop\n      jump\t// out\n        /* \"#utility.yul\":5505:5924   */\n    tag_130:\n        /* \"#utility.yul\":5671:5675   */\n      0x00\n        /* \"#utility.yul\":5709:5711   */\n      0x20\n        /* \"#utility.yul\":5698:5707   */\n      dup3\n        /* \"#utility.yul\":5694:5712   */\n      add\n        /* \"#utility.yul\":5686:5712   */\n      swap1\n      pop\n        /* \"#utility.yul\":5758:5767   */\n      dup2\n        /* \"#utility.yul\":5752:5756   */\n      dup2\n        /* \"#utility.yul\":5748:5768   */\n      sub\n        /* \"#utility.yul\":5744:5745   */\n      0x00\n        /* \"#utility.yul\":5733:5742   */\n      dup4\n        /* \"#utility.yul\":5729:5746   */\n      add\n        /* \"#utility.yul\":5722:5769   */\n      mstore\n        /* \"#utility.yul\":5786:5917   */\n      tag_223\n        /* \"#utility.yul\":5912:5916   */\n      dup2\n        /* \"#utility.yul\":5786:5917   */\n      tag_167\n      jump\t// in\n    tag_223:\n        /* \"#utility.yul\":5778:5917   */\n      swap1\n      pop\n        /* \"#utility.yul\":5505:5924   */\n      swap2\n      swap1\n      pop\n      jump\t// out\n        /* \"#utility.yul\":5930:6349   */\n    tag_115:\n        /* \"#utility.yul\":6096:6100   */\n      0x00\n        /* \"#utility.yul\":6134:6136   */\n      0x20\n        /* \"#utility.yul\":6123:6132   */\n      dup3\n        /* \"#utility.yul\":6119:6137   */\n      add\n        /* \"#utility.yul\":6111:6137   */\n      swap1\n      pop\n        /* \"#utility.yul\":6183:6192   */\n      dup2\n        /* \"#utility.yul\":6177:6181   */\n      dup2\n        /* \"#utility.yul\":6173:6193   */\n      sub\n        /* \"#utility.yul\":6169:6170   */\n      0x00\n        /* \"#utility.yul\":6158:6167   */\n      dup4\n        /* \"#utility.yul\":6154:6171   */\n      add\n        /* \"#utility.yul\":6147:6194   */\n      mstore\n        /* \"#utility.yul\":6211:6342   */\n      tag_225\n        /* \"#utility.yul\":6337:6341   */\n      dup2\n        /* \"#utility.yul\":6211:6342   */\n      tag_173\n      jump\t// in\n    tag_225:\n        /* \"#utility.yul\":6203:6342   */\n      swap1\n      pop\n        /* \"#utility.yul\":5930:6349   */\n      swap2\n      swap1\n      pop\n      jump\t// out\n        /* \"#utility.yul\":6355:6774   */\n    tag_83:\n        /* \"#utility.yul\":6521:6525   */\n      0x00\n        /* \"#utility.yul\":6559:6561   */\n      0x20\n        /* \"#utility.yul\":6548:6557   */\n      dup3\n        /* \"#utility.yul\":6544:6562   */\n      add\n        /* \"#utility.yul\":6536:6562   */\n      swap1\n      pop\n        /* \"#utility.yul\":6608:6617   */\n      dup2\n        /* \"#utility.yul\":6602:6606   */\n      dup2\n        /* \"#utility.yul\":6598:6618   */\n      sub\n        /* \"#utility.yul\":6594:6595   */\n      0x00\n        /* \"#utility.yul\":6583:6592   */\n      dup4\n        /* \"#utility.yul\":6579:6596   */\n      add\n        /* \"#utility.yul\":6572:6619   */\n      mstore\n        /* \"#utility.yul\":6636:6767   */\n      tag_227\n        /* \"#utility.yul\":6762:6766   */\n      dup2\n        /* \"#utility.yul\":6636:6767   */\n      tag_178\n      jump\t// in\n    tag_227:\n        /* \"#utility.yul\":6628:6767   */\n      swap1\n      pop\n        /* \"#utility.yul\":6355:6774   */\n      swap2\n      swap1\n      pop\n      jump\t// out\n        /* \"#utility.yul\":6780:7199   */\n    tag_107:\n        /* \"#utility.yul\":6946:6950   */\n      0x00\n        /* \"#utility.yul\":6984:6986   */\n      0x20\n        /* \"#utility.yul\":6973:6982   */\n      dup3\n        /* \"#utility.yul\":6969:6987   */\n      add\n        /* \"#utility.yul\":6961:6987   */\n      swap1\n      pop\n        /* \"#utility.yul\":7033:7042   */\n      dup2\n        /* \"#utility.yul\":7027:7031   */\n      dup2\n        /* \"#utility.yul\":7023:7043   */\n      sub\n        /* \"#utility.yul\":7019:7020   */\n      0x00\n        /* \"#utility.yul\":7008:7017   */\n      dup4\n        /* \"#utility.yul\":7004:7021   */\n      add\n        /* \"#utility.yul\":6997:7044   */\n      mstore\n        /* \"#utility.yul\":7061:7192   */\n      tag_229\n        /* \"#utility.yul\":7187:7191   */\n      dup2\n        /* \"#utility.yul\":7061:7192   */\n      tag_183\n      jump\t// in\n    tag_229:\n        /* \"#utility.yul\":7053:7192   */\n      swap1\n      pop\n        /* \"#utility.yul\":6780:7199   */\n      swap2\n      swap1\n      pop\n      jump\t// out\n        /* \"#utility.yul\":7205:7624   */\n    tag_138:\n        /* \"#utility.yul\":7371:7375   */\n      0x00\n        /* \"#utility.yul\":7409:7411   */\n      0x20\n        /* \"#utility.yul\":7398:7407   */\n      dup3\n        /* \"#utility.yul\":7394:7412   */\n      add\n        /* \"#utility.yul\":7386:7412   */\n      swap1\n      pop\n        /* \"#utility.yul\":7458:7467   */\n      dup2\n        /* \"#utility.yul\":7452:7456   */\n      dup2\n        /* \"#utility.yul\":7448:7468   */\n      sub\n        /* \"#utility.yul\":7444:7445   */\n      0x00\n        /* \"#utility.yul\":7433:7442   */\n      dup4\n        /* \"#utility.yul\":7429:7446   */\n      add\n        /* \"#utility.yul\":7422:7469   */\n      mstore\n        /* \"#utility.yul\":7486:7617   */\n      tag_231\n        /* \"#utility.yul\":7612:7616   */\n      dup2\n        /* \"#utility.yul\":7486:7617   */\n      tag_188\n      jump\t// in\n    tag_231:\n        /* \"#utility.yul\":7478:7617   */\n      swap1\n      pop\n        /* \"#utility.yul\":7205:7624   */\n      swap2\n      swap1\n      pop\n      jump\t// out\n        /* \"#utility.yul\":7630:8049   */\n    tag_104:\n        /* \"#utility.yul\":7796:7800   */\n      0x00\n        /* \"#utility.yul\":7834:7836   */\n      0x20\n        /* \"#utility.yul\":7823:7832   */\n      dup3\n        /* \"#utility.yul\":7819:7837   */\n      add\n        /* \"#utility.yul\":7811:7837   */\n      swap1\n      pop\n        /* \"#utility.yul\":7883:7892   */\n      dup2\n        /* \"#utility.yul\":7877:7881   */\n      dup2\n        /* \"#utility.yul\":7873:7893   */\n      sub\n        /* \"#utility.yul\":7869:7870   */\n      0x00\n        /* \"#utility.yul\":7858:7867   */\n      dup4\n        /* \"#utility.yul\":7854:7871   */\n      add\n        /* \"#utility.yul\":7847:7894   */\n      mstore\n        /* \"#utility.yul\":7911:8042   */\n      tag_233\n        /* \"#utility.yul\":8037:8041   */\n      dup2\n        /* \"#utility.yul\":7911:8042   */\n      tag_199\n      jump\t// in\n    tag_233:\n        /* \"#utility.yul\":7903:8042   */\n      swap1\n      pop\n        /* \"#utility.yul\":7630:8049   */\n      swap2\n      swap1\n      pop\n      jump\t// out\n        /* \"#utility.yul\":8055:8474   */\n    tag_22:\n        /* \"#utility.yul\":8221:8225   */\n      0x00\n        /* \"#utility.yul\":8259:8261   */\n      0x20\n        /* \"#utility.yul\":8248:8257   */\n      dup3\n        /* \"#utility.yul\":8244:8262   */\n      add\n        /* \"#utility.yul\":8236:8262   */\n      swap1\n      pop\n        /* \"#utility.yul\":8308:8317   */\n      dup2\n        /* \"#utility.yul\":8302:8306   */\n      dup2\n        /* \"#utility.yul\":8298:8318   */\n      sub\n        /* \"#utility.yul\":8294:8295   */\n      0x00\n        /* \"#utility.yul\":8283:8292   */\n      dup4\n        /* \"#utility.yul\":8279:8296   */\n      add\n        /* \"#utility.yul\":8272:8319   */\n      mstore\n        /* \"#utility.yul\":8336:8467   */\n      tag_235\n        /* \"#utility.yul\":8462:8466   */\n      dup2\n        /* \"#utility.yul\":8336:8467   */\n      tag_204\n      jump\t// in\n    tag_235:\n        /* \"#utility.yul\":8328:8467   */\n      swap1\n      pop\n        /* \"#utility.yul\":8055:8474   */\n      swap2\n      swap1\n      pop\n      jump\t// out\n        /* \"#utility.yul\":8480:8702   */\n    tag_31:\n        /* \"#utility.yul\":8573:8577   */\n      0x00\n        /* \"#utility.yul\":8611:8613   */\n      0x20\n        /* \"#utility.yul\":8600:8609   */\n      dup3\n        /* \"#utility.yul\":8596:8614   */\n      add\n        /* \"#utility.yul\":8588:8614   */\n      swap1\n      pop\n        /* \"#utility.yul\":8624:8695   */\n      tag_237\n        /* \"#utility.yul\":8692:8693   */\n      0x00\n        /* \"#utility.yul\":8681:8690   */\n      dup4\n        /* \"#utility.yul\":8677:8694   */\n      add\n        /* \"#utility.yul\":8668:8674   */\n      dup5\n        /* \"#utility.yul\":8624:8695   */\n      tag_209\n      jump\t// in\n    tag_237:\n        /* \"#utility.yul\":8480:8702   */\n      swap3\n      swap2\n      pop\n      pop\n      jump\t// out\n        /* \"#utility.yul\":8789:8936   */\n    tag_196:\n        /* \"#utility.yul\":8890:8901   */\n      0x00\n        /* \"#utility.yul\":8927:8930   */\n      dup2\n        /* \"#utility.yul\":8912:8930   */\n      swap1\n      pop\n        /* \"#utility.yul\":8789:8936   */\n      swap3\n      swap2\n      pop\n      pop\n      jump\t// out\n        /* \"#utility.yul\":8942:9111   */\n    tag_170:\n        /* \"#utility.yul\":9026:9037   */\n      0x00\n        /* \"#utility.yul\":9060:9066   */\n      dup3\n        /* \"#utility.yul\":9055:9058   */\n      dup3\n        /* \"#utility.yul\":9048:9067   */\n      mstore\n        /* \"#utility.yul\":9100:9104   */\n      0x20\n        /* \"#utility.yul\":9095:9098   */\n      dup3\n        /* \"#utility.yul\":9091:9105   */\n      add\n        /* \"#utility.yul\":9076:9105   */\n      swap1\n      pop\n        /* \"#utility.yul\":8942:9111   */\n      swap3\n      swap2\n      pop\n      pop\n      jump\t// out\n        /* \"#utility.yul\":9117:9422   */\n    tag_91:\n        /* \"#utility.yul\":9157:9160   */\n      0x00\n        /* \"#utility.yul\":9176:9196   */\n      tag_243\n        /* \"#utility.yul\":9194:9195   */\n      dup3\n        /* \"#utility.yul\":9176:9196   */\n      tag_212\n      jump\t// in\n    tag_243:\n        /* \"#utility.yul\":9171:9196   */\n      swap2\n      pop\n        /* \"#utility.yul\":9210:9230   */\n      tag_244\n        /* \"#utility.yul\":9228:9229   */\n      dup4\n        /* \"#utility.yul\":9210:9230   */\n      tag_212\n      jump\t// in\n    tag_244:\n        /* \"#utility.yul\":9205:9230   */\n      swap3\n      pop\n        /* \"#utility.yul\":9364:9365   */\n      dup3\n        /* \"#utility.yul\":9296:9362   */\n      0xffffffffffffffffffffffffffffffffffffffffffffffffffffffffffffffff\n        /* \"#utility.yul\":9292:9366   */\n      sub\n        /* \"#utility.yul\":9289:9290   */\n      dup3\n        /* \"#utility.yul\":9286:9367   */\n      gt\n        /* \"#utility.yul\":9283:9390   */\n      iszero\n      tag_245\n      jumpi\n        /* \"#utility.yul\":9370:9388   */\n      tag_246\n      tag_247\n      jump\t// in\n    tag_246:\n        /* \"#utility.yul\":9283:9390   */\n    tag_245:\n        /* \"#utility.yul\":9414:9415   */\n      dup3\n        /* \"#utility.yul\":9411:9412   */\n      dup3\n        /* \"#utility.yul\":9407:9416   */\n      add\n        /* \"#utility.yul\":9400:9416   */\n      swap1\n      pop\n        /* \"#utility.yul\":9117:9422   */\n      swap3\n      swap2\n      pop\n      pop\n      jump\t// out\n        /* \"#utility.yul\":9428:9613   */\n    tag_89:\n        /* \"#utility.yul\":9468:9469   */\n      0x00\n        /* \"#utility.yul\":9485:9505   */\n      tag_249\n        /* \"#utility.yul\":9503:9504   */\n      dup3\n        /* \"#utility.yul\":9485:9505   */\n      tag_212\n      jump\t// in\n    tag_249:\n        /* \"#utility.yul\":9480:9505   */\n      swap2\n      pop\n        /* \"#utility.yul\":9519:9539   */\n      tag_250\n        /* \"#utility.yul\":9537:9538   */\n      dup4\n        /* \"#utility.yul\":9519:9539   */\n      tag_212\n      jump\t// in\n    tag_250:\n        /* \"#utility.yul\":9514:9539   */\n      swap3\n      pop\n        /* \"#utility.yul\":9558:9559   */\n      dup3\n        /* \"#utility.yul\":9548:9583   */\n      tag_251\n      jumpi\n        /* \"#utility.yul\":9563:9581   */\n      tag_252\n      tag_253\n      jump\t// in\n    tag_252:\n        /* \"#utility.yul\":9548:9583   */\n    tag_251:\n        /* \"#utility.yul\":9605:9606   */\n      dup3\n        /* \"#utility.yul\":9602:9603   */\n      dup3\n        /* \"#utility.yul\":9598:9607   */\n      div\n        /* \"#utility.yul\":9593:9607   */\n      swap1\n      pop\n        /* \"#utility.yul\":9428:9613   */\n      swap3\n      swap2\n      pop\n      pop\n      jump\t// out\n        /* \"#utility.yul\":9619:9810   */\n    tag_79:\n        /* \"#utility.yul\":9659:9663   */\n      0x00\n        /* \"#utility.yul\":9679:9699   */\n      tag_255\n        /* \"#utility.yul\":9697:9698   */\n      dup3\n        /* \"#utility.yul\":9679:9699   */\n      tag_212\n      jump\t// in\n    tag_255:\n        /* \"#utility.yul\":9674:9699   */\n      swap2\n      pop\n        /* \"#utility.yul\":9713:9733   */\n      tag_256\n        /* \"#utility.yul\":9731:9732   */\n      dup4\n        /* \"#utility.yul\":9713:9733   */\n      tag_212\n      jump\t// in\n    tag_256:\n        /* \"#utility.yul\":9708:9733   */\n      swap3\n      pop\n        /* \"#utility.yul\":9752:9753   */\n      dup3\n        /* \"#utility.yul\":9749:9750   */\n      dup3\n        /* \"#utility.yul\":9746:9754   */\n      lt\n        /* \"#utility.yul\":9743:9777   */\n      iszero\n      tag_257\n      jumpi\n        /* \"#utility.yul\":9757:9775   */\n      tag_258\n      tag_247\n      jump\t// in\n    tag_258:\n        /* \"#utility.yul\":9743:9777   */\n    tag_257:\n        /* \"#utility.yul\":9802:9803   */\n      dup3\n        /* \"#utility.yul\":9799:9800   */\n      dup3\n        /* \"#utility.yul\":9795:9804   */\n      sub\n        /* \"#utility.yul\":9787:9804   */\n      swap1\n      pop\n        /* \"#utility.yul\":9619:9810   */\n      swap3\n      swap2\n      pop\n      pop\n      jump\t// out\n        /* \"#utility.yul\":9816:9912   */\n    tag_162:\n        /* \"#utility.yul\":9853:9860   */\n      0x00\n        /* \"#utility.yul\":9882:9906   */\n      tag_260\n        /* \"#utility.yul\":9900:9905   */\n      dup3\n        /* \"#utility.yul\":9882:9906   */\n      tag_261\n      jump\t// in\n    tag_260:\n        /* \"#utility.yul\":9871:9906   */\n      swap1\n      pop\n        /* \"#utility.yul\":9816:9912   */\n      swap2\n      swap1\n      pop\n      jump\t// out\n        /* \"#utility.yul\":9918:10008   */\n    tag_166:\n        /* \"#utility.yul\":9952:9959   */\n      0x00\n        /* \"#utility.yul\":9995:10000   */\n      dup2\n        /* \"#utility.yul\":9988:10001   */\n      iszero\n        /* \"#utility.yul\":9981:10002   */\n      iszero\n        /* \"#utility.yul\":9970:10002   */\n      swap1\n      pop\n        /* \"#utility.yul\":9918:10008   */\n      swap2\n      swap1\n      pop\n      jump\t// out\n        /* \"#utility.yul\":10014:10140   */\n    tag_261:\n        /* \"#utility.yul\":10051:10058   */\n      0x00\n        /* \"#utility.yul\":10091:10133   */\n      0xffffffffffffffffffffffffffffffffffffffff\n        /* \"#utility.yul\":10084:10089   */\n      dup3\n        /* \"#utility.yul\":10080:10134   */\n      and\n        /* \"#utility.yul\":10069:10134   */\n      swap1\n      pop\n        /* \"#utility.yul\":10014:10140   */\n      swap2\n      swap1\n      pop\n      jump\t// out\n        /* \"#utility.yul\":10146:10223   */\n    tag_212:\n        /* \"#utility.yul\":10183:10190   */\n      0x00\n        /* \"#utility.yul\":10212:10217   */\n      dup2\n        /* \"#utility.yul\":10201:10217   */\n      swap1\n      pop\n        /* \"#utility.yul\":10146:10223   */\n      swap2\n      swap1\n      pop\n      jump\t// out\n        /* \"#utility.yul\":10229:10462   */\n    tag_87:\n        /* \"#utility.yul\":10268:10271   */\n      0x00\n        /* \"#utility.yul\":10291:10315   */\n      tag_266\n        /* \"#utility.yul\":10309:10314   */\n      dup3\n        /* \"#utility.yul\":10291:10315   */\n      tag_212\n      jump\t// in\n    tag_266:\n        /* \"#utility.yul\":10282:10315   */\n      swap2\n      pop\n        /* \"#utility.yul\":10337:10403   */\n      0xffffffffffffffffffffffffffffffffffffffffffffffffffffffffffffffff\n        /* \"#utility.yul\":10330:10335   */\n      dup3\n        /* \"#utility.yul\":10327:10404   */\n      eq\n        /* \"#utility.yul\":10324:10427   */\n      iszero\n      tag_267\n      jumpi\n        /* \"#utility.yul\":10407:10425   */\n      tag_268\n      tag_247\n      jump\t// in\n    tag_268:\n        /* \"#utility.yul\":10324:10427   */\n    tag_267:\n        /* \"#utility.yul\":10454:10455   */\n      0x01\n        /* \"#utility.yul\":10447:10452   */\n      dup3\n        /* \"#utility.yul\":10443:10456   */\n      add\n        /* \"#utility.yul\":10436:10456   */\n      swap1\n      pop\n        /* \"#utility.yul\":10229:10462   */\n      swap2\n      swap1\n      pop\n      jump\t// out\n        /* \"#utility.yul\":10468:10648   */\n    tag_247:\n        /* \"#utility.yul\":10516:10593   */\n      0x4e487b7100000000000000000000000000000000000000000000000000000000\n        /* \"#utility.yul\":10513:10514   */\n      0x00\n        /* \"#utility.yul\":10506:10594   */\n      mstore\n        /* \"#utility.yul\":10613:10617   */\n      0x11\n        /* \"#utility.yul\":10610:10611   */\n      0x04\n        /* \"#utility.yul\":10603:10618   */\n      mstore\n        /* \"#utility.yul\":10637:10641   */\n      0x24\n        /* \"#utility.yul\":10634:10635   */\n      0x00\n        /* \"#utility.yul\":10627:10642   */\n      revert\n        /* \"#utility.yul\":10654:10834   */\n    tag_253:\n        /* \"#utility.yul\":10702:10779   */\n      0x4e487b7100000000000000000000000000000000000000000000000000000000\n        /* \"#utility.yul\":10699:10700   */\n      0x00\n        /* \"#utility.yul\":10692:10780   */\n      mstore\n        /* \"#utility.yul\":10799:10803   */\n      0x12\n        /* \"#utility.yul\":10796:10797   */\n      0x04\n        /* \"#utility.yul\":10789:10804   */\n      mstore\n        /* \"#utility.yul\":10823:10827   */\n      0x24\n        /* \"#utility.yul\":10820:10821   */\n      0x00\n        /* \"#utility.yul\":10813:10828   */\n      revert\n        /* \"#utility.yul\":10963:11080   */\n    tag_153:\n        /* \"#utility.yul\":11072:11073   */\n      0x00\n        /* \"#utility.yul\":11069:11070   */\n      dup1\n        /* \"#utility.yul\":11062:11074   */\n      revert\n        /* \"#utility.yul\":11086:11311   */\n    tag_172:\n        /* \"#utility.yul\":11226:11260   */\n      0x4f776e61626c653a206e6577206f776e657220697320746865207a65726f2061\n        /* \"#utility.yul\":11222:11223   */\n      0x00\n        /* \"#utility.yul\":11214:11220   */\n      dup3\n        /* \"#utility.yul\":11210:11224   */\n      add\n        /* \"#utility.yul\":11203:11261   */\n      mstore\n        /* \"#utility.yul\":11295:11303   */\n      0x6464726573730000000000000000000000000000000000000000000000000000\n        /* \"#utility.yul\":11290:11292   */\n      0x20\n        /* \"#utility.yul\":11282:11288   */\n      dup3\n        /* \"#utility.yul\":11278:11293   */\n      add\n        /* \"#utility.yul\":11271:11304   */\n      mstore\n        /* \"#utility.yul\":11086:11311   */\n      pop\n      jump\t// out\n        /* \"#utility.yul\":11317:11482   */\n    tag_177:\n        /* \"#utility.yul\":11457:11474   */\n      0x5769746864726177206661696c65640000000000000000000000000000000000\n        /* \"#utility.yul\":11453:11454   */\n      0x00\n        /* \"#utility.yul\":11445:11451   */\n      dup3\n        /* \"#utility.yul\":11441:11455   */\n      add\n        /* \"#utility.yul\":11434:11475   */\n      mstore\n        /* \"#utility.yul\":11317:11482   */\n      pop\n      jump\t// out\n        /* \"#utility.yul\":11488:11652   */\n    tag_182:\n        /* \"#utility.yul\":11628:11644   */\n      0x496e76616c696420616d6f756e74000000000000000000000000000000000000\n        /* \"#utility.yul\":11624:11625   */\n      0x00\n        /* \"#utility.yul\":11616:11622   */\n      dup3\n        /* \"#utility.yul\":11612:11626   */\n      add\n        /* \"#utility.yul\":11605:11645   */\n      mstore\n        /* \"#utility.yul\":11488:11652   */\n      pop\n      jump\t// out\n        /* \"#utility.yul\":11658:11836   */\n    tag_187:\n        /* \"#utility.yul\":11798:11828   */\n      0x576974686472617720616c726561647920696e2070726f677265737300000000\n        /* \"#utility.yul\":11794:11795   */\n      0x00\n        /* \"#utility.yul\":11786:11792   */\n      dup3\n        /* \"#utility.yul\":11782:11796   */\n      add\n        /* \"#utility.yul\":11775:11829   */\n      mstore\n        /* \"#utility.yul\":11658:11836   */\n      pop\n      jump\t// out\n        /* \"#utility.yul\":11842:12024   */\n    tag_192:\n        /* \"#utility.yul\":11982:12016   */\n      0x4f776e61626c653a2063616c6c6572206973206e6f7420746865206f776e6572\n        /* \"#utility.yul\":11978:11979   */\n      0x00\n        /* \"#utility.yul\":11970:11976   */\n      dup3\n        /* \"#utility.yul\":11966:11980   */\n      add\n        /* \"#utility.yul\":11959:12017   */\n      mstore\n        /* \"#utility.yul\":11842:12024   */\n      pop\n      jump\t// out\n        /* \"#utility.yul\":12030:12144   */\n    tag_198:\n      pop\n      jump\t// out\n        /* \"#utility.yul\":12150:12329   */\n    tag_203:\n        /* \"#utility.yul\":12290:12321   */\n      0x496e73756666696369656e7420636f6e74726163742062616c616e6365000000\n        /* \"#utility.yul\":12286:12287   */\n      0x00\n        /* \"#utility.yul\":12278:12284   */\n      dup3\n        /* \"#utility.yul\":12274:12288   */\n      add\n        /* \"#utility.yul\":12267:12322   */\n      mstore\n        /* \"#utility.yul\":12150:12329   */\n      pop\n      jump\t// out\n        /* \"#utility.yul\":12335:12583   */\n    tag_208:\n        /* \"#utility.yul\":12475:12509   */\n      0x546865207072652d73616c652071756f74612063616e6e6f7420626520677265\n        /* \"#utility.yul\":12471:12472   */\n      0x00\n        /* \"#utility.yul\":12463:12469   */\n      dup3\n        /* \"#utility.yul\":12459:12473   */\n      add\n        /* \"#utility.yul\":12452:12510   */\n      mstore\n        /* \"#utility.yul\":12544:12575   */\n      0x61746572207468616e207468652072656d61696e696e672071756f7461000000\n        /* \"#utility.yul\":12539:12541   */\n      0x20\n        /* \"#utility.yul\":12531:12537   */\n      dup3\n        /* \"#utility.yul\":12527:12542   */\n      add\n        /* \"#utility.yul\":12520:12576   */\n      mstore\n        /* \"#utility.yul\":12335:12583   */\n      pop\n      jump\t// out\n        /* \"#utility.yul\":12589:12711   */\n    tag_145:\n        /* \"#utility.yul\":12662:12686   */\n      tag_283\n        /* \"#utility.yul\":12680:12685   */\n      dup2\n        /* \"#utility.yul\":12662:12686   */\n      tag_162\n      jump\t// in\n    tag_283:\n        /* \"#utility.yul\":12655:12660   */\n      dup2\n        /* \"#utility.yul\":12652:12687   */\n      eq\n        /* \"#utility.yul\":12642:12705   */\n      tag_284\n      jumpi\n        /* \"#utility.yul\":12701:12702   */\n      0x00\n        /* \"#utility.yul\":12698:12699   */\n      dup1\n        /* \"#utility.yul\":12691:12703   */\n      revert\n        /* \"#utility.yul\":12642:12705   */\n    tag_284:\n        /* \"#utility.yul\":12589:12711   */\n      pop\n      jump\t// out\n        /* \"#utility.yul\":12717:12839   */\n    tag_149:\n        /* \"#utility.yul\":12790:12814   */\n      tag_286\n        /* \"#utility.yul\":12808:12813   */\n      dup2\n        /* \"#utility.yul\":12790:12814   */\n      tag_212\n      jump\t// in\n    tag_286:\n        /* \"#utility.yul\":12783:12788   */\n      dup2\n        /* \"#utility.yul\":12780:12815   */\n      eq\n        /* \"#utility.yul\":12770:12833   */\n      tag_287\n      jumpi\n        /* \"#utility.yul\":12829:12830   */\n      0x00\n        /* \"#utility.yul\":12826:12827   */\n      dup1\n        /* \"#utility.yul\":12819:12831   */\n      revert\n        /* \"#utility.yul\":12770:12833   */\n    tag_287:\n        /* \"#utility.yul\":12717:12839   */\n      pop\n      jump\t// out\n\n    auxdata: 0xa2646970667358221220d5d71d726a8a24a9f06965c1e4baf388ce9639714fccb483e5a9ca6f2adf1ba364736f6c63430008070033\n}\n",
				"bytecode": {
					"linkReferences": {},
					"object": "608060405268068155a43676e0000060065534801561001d57600080fd5b5061003a61002f61003f60201b60201c565b61004760201b60201c565b61010b565b600033905090565b60008060009054906101000a900473ffffffffffffffffffffffffffffffffffffffff169050816000806101000a81548173ffffffffffffffffffffffffffffffffffffffff021916908373ffffffffffffffffffffffffffffffffffffffff1602179055508173ffffffffffffffffffffffffffffffffffffffff168173ffffffffffffffffffffffffffffffffffffffff167f8be0079c531659141344cd1fd0a4f28419497f9722a3daafe3b4186f6b6457e060405160405180910390a35050565b61101b8061011a6000396000f3fe6080604052600436106100ab5760003560e01c80636585be55116100645780636585be5514610229578063715018a6146102665780638da5cb5b1461027d578063936e6027146102a8578063eaa0fc36146102d3578063f2fde38b146103105761013e565b8063047fc9aa1461014357806327550ce71461016e5780632e1a7d4d1461019957806341c0e1b5146101c257806355234ec0146101e05780636228669b1461020b5761013e565b3661013e576100b8610339565b3411156100fa576040517f08c379a00000000000000000000000000000000000000000000000000000000081526004016100f190610c43565b60405180910390fd5b610102610355565b507f88a5966d370b9919b20f3e2c13ff65706f196a4e32cc2c12bf57088f885258743334604051610134929190610b3f565b60405180910390a1005b600080fd5b34801561014f57600080fd5b50610158610530565b6040516101659190610c63565b60405180910390f35b34801561017a57600080fd5b50610183610536565b6040516101909190610c63565b60405180910390f35b3480156101a557600080fd5b506101c060048036038101906101bb919061099d565b610540565b005b6101ca6106c7565b6040516101d79190610b68565b60405180910390f35b3480156101ec57600080fd5b506101f5610339565b6040516102029190610c63565b60405180910390f35b610213610355565b6040516102209190610b68565b60405180910390f35b34801561023557600080fd5b50610250600480360381019061024b9190610970565b6106ea565b60405161025d9190610c63565b60405180910390f35b34801561027257600080fd5b5061027b610702565b005b34801561028957600080fd5b50610292610716565b60405161029f9190610b24565b60405180910390f35b3480156102b457600080fd5b506102bd61073f565b6040516102ca9190610c63565b60405180910390f35b3480156102df57600080fd5b506102fa60048036038101906102f5919061099d565b610745565b6040516103079190610b24565b60405180910390f35b34801561031c57600080fd5b5061033760048036038101906103329190610970565b610778565b005b60008060035460065461034c9190610d21565b90508091505090565b600067011c37937e08000034116103a1576040517f08c379a000000000000000000000000000000000000000000000000000000000815260040161039890610bc3565b60405180910390fd5b60006103ab610339565b905060008111156104d657600460008154809291906103c990610d9d565b919050555060006004549050336001600083815260200190815260200160002060006101000a81548173ffffffffffffffffffffffffffffffffffffffff021916908373ffffffffffffffffffffffffffffffffffffffff16021790555067011c37937e0800003461043b9190610cf0565b600260003373ffffffffffffffffffffffffffffffffffffffff1673ffffffffffffffffffffffffffffffffffffffff1681526020019081526020016000208190555034600360008282546104909190610c9a565b925050819055507f2146ade97a47950ed70be6ecb1ac92df0872ce4e8ebed36f042623d85df32e8e33346040516104c8929190610b3f565b60405180910390a150610528565b6000811415610527573373ffffffffffffffffffffffffffffffffffffffff166108fc349081150290604051600060405180830381858888f19350505050158015610525573d6000803e3d6000fd5b505b5b600191505090565b60065481565b6000600454905090565b6105486107fc565b4781111561058b576040517f08c379a000000000000000000000000000000000000000000000000000000000815260040161058290610c23565b60405180910390fd5b600560009054906101000a900460ff16156105db576040517f08c379a00000000000000000000000000000000000000000000000000000000081526004016105d290610be3565b60405180910390fd5b6001600560006101000a81548160ff02191690831515021790555060008190506000600560006101000a81548160ff02191690831515021790555060003373ffffffffffffffffffffffffffffffffffffffff168260405161063c90610b0f565b60006040518083038185875af1925050503d8060008114610679576040519150601f19603f3d011682016040523d82523d6000602084013e61067e565b606091505b50509050806106c2576040517f08c379a00000000000000000000000000000000000000000000000000000000081526004016106b990610ba3565b60405180910390fd5b505050565b60006106d16107fc565b3373ffffffffffffffffffffffffffffffffffffffff16ff5b60026020528060005260406000206000915090505481565b61070a6107fc565b610714600061087a565b565b60008060009054906101000a900473ffffffffffffffffffffffffffffffffffffffff16905090565b60035481565b60016020528060005260406000206000915054906101000a900473ffffffffffffffffffffffffffffffffffffffff1681565b6107806107fc565b600073ffffffffffffffffffffffffffffffffffffffff168173ffffffffffffffffffffffffffffffffffffffff1614156107f0576040517f08c379a00000000000000000000000000000000000000000000000000000000081526004016107e790610b83565b60405180910390fd5b6107f98161087a565b50565b61080461093e565b73ffffffffffffffffffffffffffffffffffffffff16610822610716565b73ffffffffffffffffffffffffffffffffffffffff1614610878576040517f08c379a000000000000000000000000000000000000000000000000000000000815260040161086f90610c03565b60405180910390fd5b565b60008060009054906101000a900473ffffffffffffffffffffffffffffffffffffffff169050816000806101000a81548173ffffffffffffffffffffffffffffffffffffffff021916908373ffffffffffffffffffffffffffffffffffffffff1602179055508173ffffffffffffffffffffffffffffffffffffffff168173ffffffffffffffffffffffffffffffffffffffff167f8be0079c531659141344cd1fd0a4f28419497f9722a3daafe3b4186f6b6457e060405160405180910390a35050565b600033905090565b60008135905061095581610fb7565b92915050565b60008135905061096a81610fce565b92915050565b60006020828403121561098657610985610e44565b5b600061099484828501610946565b91505092915050565b6000602082840312156109b3576109b2610e44565b5b60006109c18482850161095b565b91505092915050565b6109d381610d55565b82525050565b6109e281610d67565b82525050565b60006109f5602683610c89565b9150610a0082610e49565b604082019050919050565b6000610a18600f83610c89565b9150610a2382610e98565b602082019050919050565b6000610a3b600e83610c89565b9150610a4682610ec1565b602082019050919050565b6000610a5e601c83610c89565b9150610a6982610eea565b602082019050919050565b6000610a81602083610c89565b9150610a8c82610f13565b602082019050919050565b6000610aa4600083610c7e565b9150610aaf82610f3c565b600082019050919050565b6000610ac7601d83610c89565b9150610ad282610f3f565b602082019050919050565b6000610aea603d83610c89565b9150610af582610f68565b604082019050919050565b610b0981610d93565b82525050565b6000610b1a82610a97565b9150819050919050565b6000602082019050610b3960008301846109ca565b92915050565b6000604082019050610b5460008301856109ca565b610b616020830184610b00565b9392505050565b6000602082019050610b7d60008301846109d9565b92915050565b60006020820190508181036000830152610b9c816109e8565b9050919050565b60006020820190508181036000830152610bbc81610a0b565b9050919050565b60006020820190508181036000830152610bdc81610a2e565b9050919050565b60006020820190508181036000830152610bfc81610a51565b9050919050565b60006020820190508181036000830152610c1c81610a74565b9050919050565b60006020820190508181036000830152610c3c81610aba565b9050919050565b60006020820190508181036000830152610c5c81610add565b9050919050565b6000602082019050610c786000830184610b00565b92915050565b600081905092915050565b600082825260208201905092915050565b6000610ca582610d93565b9150610cb083610d93565b9250827fffffffffffffffffffffffffffffffffffffffffffffffffffffffffffffffff03821115610ce557610ce4610de6565b5b828201905092915050565b6000610cfb82610d93565b9150610d0683610d93565b925082610d1657610d15610e15565b5b828204905092915050565b6000610d2c82610d93565b9150610d3783610d93565b925082821015610d4a57610d49610de6565b5b828203905092915050565b6000610d6082610d73565b9050919050565b60008115159050919050565b600073ffffffffffffffffffffffffffffffffffffffff82169050919050565b6000819050919050565b6000610da882610d93565b91507fffffffffffffffffffffffffffffffffffffffffffffffffffffffffffffffff821415610ddb57610dda610de6565b5b600182019050919050565b7f4e487b7100000000000000000000000000000000000000000000000000000000600052601160045260246000fd5b7f4e487b7100000000000000000000000000000000000000000000000000000000600052601260045260246000fd5b600080fd5b7f4f776e61626c653a206e6577206f776e657220697320746865207a65726f206160008201527f6464726573730000000000000000000000000000000000000000000000000000602082015250565b7f5769746864726177206661696c65640000000000000000000000000000000000600082015250565b7f496e76616c696420616d6f756e74000000000000000000000000000000000000600082015250565b7f576974686472617720616c726561647920696e2070726f677265737300000000600082015250565b7f4f776e61626c653a2063616c6c6572206973206e6f7420746865206f776e6572600082015250565b50565b7f496e73756666696369656e7420636f6e74726163742062616c616e6365000000600082015250565b7f546865207072652d73616c652071756f74612063616e6e6f742062652067726560008201527f61746572207468616e207468652072656d61696e696e672071756f7461000000602082015250565b610fc081610d55565b8114610fcb57600080fd5b50565b610fd781610d93565b8114610fe257600080fd5b5056fea2646970667358221220d5d71d726a8a24a9f06965c1e4baf388ce9639714fccb483e5a9ca6f2adf1ba364736f6c63430008070033",
					"opcodes": "PUSH1 0x80 PUSH1 0x40 MSTORE PUSH9 0x68155A43676E00000 PUSH1 0x6 SSTORE CALLVALUE DUP1 ISZERO PUSH2 0x1D JUMPI PUSH1 0x0 DUP1 REVERT JUMPDEST POP PUSH2 0x3A PUSH2 0x2F PUSH2 0x3F PUSH1 0x20 SHL PUSH1 0x20 SHR JUMP JUMPDEST PUSH2 0x47 PUSH1 0x20 SHL PUSH1 0x20 SHR JUMP JUMPDEST PUSH2 0x10B JUMP JUMPDEST PUSH1 0x0 CALLER SWAP1 POP SWAP1 JUMP JUMPDEST PUSH1 0x0 DUP1 PUSH1 0x0 SWAP1 SLOAD SWAP1 PUSH2 0x100 EXP SWAP1 DIV PUSH20 0xFFFFFFFFFFFFFFFFFFFFFFFFFFFFFFFFFFFFFFFF AND SWAP1 POP DUP2 PUSH1 0x0 DUP1 PUSH2 0x100 EXP DUP2 SLOAD DUP2 PUSH20 0xFFFFFFFFFFFFFFFFFFFFFFFFFFFFFFFFFFFFFFFF MUL NOT AND SWAP1 DUP4 PUSH20 0xFFFFFFFFFFFFFFFFFFFFFFFFFFFFFFFFFFFFFFFF AND MUL OR SWAP1 SSTORE POP DUP2 PUSH20 0xFFFFFFFFFFFFFFFFFFFFFFFFFFFFFFFFFFFFFFFF AND DUP2 PUSH20 0xFFFFFFFFFFFFFFFFFFFFFFFFFFFFFFFFFFFFFFFF AND PUSH32 0x8BE0079C531659141344CD1FD0A4F28419497F9722A3DAAFE3B4186F6B6457E0 PUSH1 0x40 MLOAD PUSH1 0x40 MLOAD DUP1 SWAP2 SUB SWAP1 LOG3 POP POP JUMP JUMPDEST PUSH2 0x101B DUP1 PUSH2 0x11A PUSH1 0x0 CODECOPY PUSH1 0x0 RETURN INVALID PUSH1 0x80 PUSH1 0x40 MSTORE PUSH1 0x4 CALLDATASIZE LT PUSH2 0xAB JUMPI PUSH1 0x0 CALLDATALOAD PUSH1 0xE0 SHR DUP1 PUSH4 0x6585BE55 GT PUSH2 0x64 JUMPI DUP1 PUSH4 0x6585BE55 EQ PUSH2 0x229 JUMPI DUP1 PUSH4 0x715018A6 EQ PUSH2 0x266 JUMPI DUP1 PUSH4 0x8DA5CB5B EQ PUSH2 0x27D JUMPI DUP1 PUSH4 0x936E6027 EQ PUSH2 0x2A8 JUMPI DUP1 PUSH4 0xEAA0FC36 EQ PUSH2 0x2D3 JUMPI DUP1 PUSH4 0xF2FDE38B EQ PUSH2 0x310 JUMPI PUSH2 0x13E JUMP JUMPDEST DUP1 PUSH4 0x47FC9AA EQ PUSH2 0x143 JUMPI DUP1 PUSH4 0x27550CE7 EQ PUSH2 0x16E JUMPI DUP1 PUSH4 0x2E1A7D4D EQ PUSH2 0x199 JUMPI DUP1 PUSH4 0x41C0E1B5 EQ PUSH2 0x1C2 JUMPI DUP1 PUSH4 0x55234EC0 EQ PUSH2 0x1E0 JUMPI DUP1 PUSH4 0x6228669B EQ PUSH2 0x20B JUMPI PUSH2 0x13E JUMP JUMPDEST CALLDATASIZE PUSH2 0x13E JUMPI PUSH2 0xB8 PUSH2 0x339 JUMP JUMPDEST CALLVALUE GT ISZERO PUSH2 0xFA JUMPI PUSH1 0x40 MLOAD PUSH32 0x8C379A000000000000000000000000000000000000000000000000000000000 DUP2 MSTORE PUSH1 0x4 ADD PUSH2 0xF1 SWAP1 PUSH2 0xC43 JUMP JUMPDEST PUSH1 0x40 MLOAD DUP1 SWAP2 SUB SWAP1 REVERT JUMPDEST PUSH2 0x102 PUSH2 0x355 JUMP JUMPDEST POP PUSH32 0x88A5966D370B9919B20F3E2C13FF65706F196A4E32CC2C12BF57088F88525874 CALLER CALLVALUE PUSH1 0x40 MLOAD PUSH2 0x134 SWAP3 SWAP2 SWAP1 PUSH2 0xB3F JUMP JUMPDEST PUSH1 0x40 MLOAD DUP1 SWAP2 SUB SWAP1 LOG1 STOP JUMPDEST PUSH1 0x0 DUP1 REVERT JUMPDEST CALLVALUE DUP1 ISZERO PUSH2 0x14F JUMPI PUSH1 0x0 DUP1 REVERT JUMPDEST POP PUSH2 0x158 PUSH2 0x530 JUMP JUMPDEST PUSH1 0x40 MLOAD PUSH2 0x165 SWAP2 SWAP1 PUSH2 0xC63 JUMP JUMPDEST PUSH1 0x40 MLOAD DUP1 SWAP2 SUB SWAP1 RETURN JUMPDEST CALLVALUE DUP1 ISZERO PUSH2 0x17A JUMPI PUSH1 0x0 DUP1 REVERT JUMPDEST POP PUSH2 0x183 PUSH2 0x536 JUMP JUMPDEST PUSH1 0x40 MLOAD PUSH2 0x190 SWAP2 SWAP1 PUSH2 0xC63 JUMP JUMPDEST PUSH1 0x40 MLOAD DUP1 SWAP2 SUB SWAP1 RETURN JUMPDEST CALLVALUE DUP1 ISZERO PUSH2 0x1A5 JUMPI PUSH1 0x0 DUP1 REVERT JUMPDEST POP PUSH2 0x1C0 PUSH1 0x4 DUP1 CALLDATASIZE SUB DUP2 ADD SWAP1 PUSH2 0x1BB SWAP2 SWAP1 PUSH2 0x99D JUMP JUMPDEST PUSH2 0x540 JUMP JUMPDEST STOP JUMPDEST PUSH2 0x1CA PUSH2 0x6C7 JUMP JUMPDEST PUSH1 0x40 MLOAD PUSH2 0x1D7 SWAP2 SWAP1 PUSH2 0xB68 JUMP JUMPDEST PUSH1 0x40 MLOAD DUP1 SWAP2 SUB SWAP1 RETURN JUMPDEST CALLVALUE DUP1 ISZERO PUSH2 0x1EC JUMPI PUSH1 0x0 DUP1 REVERT JUMPDEST POP PUSH2 0x1F5 PUSH2 0x339 JUMP JUMPDEST PUSH1 0x40 MLOAD PUSH2 0x202 SWAP2 SWAP1 PUSH2 0xC63 JUMP JUMPDEST PUSH1 0x40 MLOAD DUP1 SWAP2 SUB SWAP1 RETURN JUMPDEST PUSH2 0x213 PUSH2 0x355 JUMP JUMPDEST PUSH1 0x40 MLOAD PUSH2 0x220 SWAP2 SWAP1 PUSH2 0xB68 JUMP JUMPDEST PUSH1 0x40 MLOAD DUP1 SWAP2 SUB SWAP1 RETURN JUMPDEST CALLVALUE DUP1 ISZERO PUSH2 0x235 JUMPI PUSH1 0x0 DUP1 REVERT JUMPDEST POP PUSH2 0x250 PUSH1 0x4 DUP1 CALLDATASIZE SUB DUP2 ADD SWAP1 PUSH2 0x24B SWAP2 SWAP1 PUSH2 0x970 JUMP JUMPDEST PUSH2 0x6EA JUMP JUMPDEST PUSH1 0x40 MLOAD PUSH2 0x25D SWAP2 SWAP1 PUSH2 0xC63 JUMP JUMPDEST PUSH1 0x40 MLOAD DUP1 SWAP2 SUB SWAP1 RETURN JUMPDEST CALLVALUE DUP1 ISZERO PUSH2 0x272 JUMPI PUSH1 0x0 DUP1 REVERT JUMPDEST POP PUSH2 0x27B PUSH2 0x702 JUMP JUMPDEST STOP JUMPDEST CALLVALUE DUP1 ISZERO PUSH2 0x289 JUMPI PUSH1 0x0 DUP1 REVERT JUMPDEST POP PUSH2 0x292 PUSH2 0x716 JUMP JUMPDEST PUSH1 0x40 MLOAD PUSH2 0x29F SWAP2 SWAP1 PUSH2 0xB24 JUMP JUMPDEST PUSH1 0x40 MLOAD DUP1 SWAP2 SUB SWAP1 RETURN JUMPDEST CALLVALUE DUP1 ISZERO PUSH2 0x2B4 JUMPI PUSH1 0x0 DUP1 REVERT JUMPDEST POP PUSH2 0x2BD PUSH2 0x73F JUMP JUMPDEST PUSH1 0x40 MLOAD PUSH2 0x2CA SWAP2 SWAP1 PUSH2 0xC63 JUMP JUMPDEST PUSH1 0x40 MLOAD DUP1 SWAP2 SUB SWAP1 RETURN JUMPDEST CALLVALUE DUP1 ISZERO PUSH2 0x2DF JUMPI PUSH1 0x0 DUP1 REVERT JUMPDEST POP PUSH2 0x2FA PUSH1 0x4 DUP1 CALLDATASIZE SUB DUP2 ADD SWAP1 PUSH2 0x2F5 SWAP2 SWAP1 PUSH2 0x99D JUMP JUMPDEST PUSH2 0x745 JUMP JUMPDEST PUSH1 0x40 MLOAD PUSH2 0x307 SWAP2 SWAP1 PUSH2 0xB24 JUMP JUMPDEST PUSH1 0x40 MLOAD DUP1 SWAP2 SUB SWAP1 RETURN JUMPDEST CALLVALUE DUP1 ISZERO PUSH2 0x31C JUMPI PUSH1 0x0 DUP1 REVERT JUMPDEST POP PUSH2 0x337 PUSH1 0x4 DUP1 CALLDATASIZE SUB DUP2 ADD SWAP1 PUSH2 0x332 SWAP2 SWAP1 PUSH2 0x970 JUMP JUMPDEST PUSH2 0x778 JUMP JUMPDEST STOP JUMPDEST PUSH1 0x0 DUP1 PUSH1 0x3 SLOAD PUSH1 0x6 SLOAD PUSH2 0x34C SWAP2 SWAP1 PUSH2 0xD21 JUMP JUMPDEST SWAP1 POP DUP1 SWAP2 POP POP SWAP1 JUMP JUMPDEST PUSH1 0x0 PUSH8 0x11C37937E080000 CALLVALUE GT PUSH2 0x3A1 JUMPI PUSH1 0x40 MLOAD PUSH32 0x8C379A000000000000000000000000000000000000000000000000000000000 DUP2 MSTORE PUSH1 0x4 ADD PUSH2 0x398 SWAP1 PUSH2 0xBC3 JUMP JUMPDEST PUSH1 0x40 MLOAD DUP1 SWAP2 SUB SWAP1 REVERT JUMPDEST PUSH1 0x0 PUSH2 0x3AB PUSH2 0x339 JUMP JUMPDEST SWAP1 POP PUSH1 0x0 DUP2 GT ISZERO PUSH2 0x4D6 JUMPI PUSH1 0x4 PUSH1 0x0 DUP2 SLOAD DUP1 SWAP3 SWAP2 SWAP1 PUSH2 0x3C9 SWAP1 PUSH2 0xD9D JUMP JUMPDEST SWAP2 SWAP1 POP SSTORE POP PUSH1 0x0 PUSH1 0x4 SLOAD SWAP1 POP CALLER PUSH1 0x1 PUSH1 0x0 DUP4 DUP2 MSTORE PUSH1 0x20 ADD SWAP1 DUP2 MSTORE PUSH1 0x20 ADD PUSH1 0x0 KECCAK256 PUSH1 0x0 PUSH2 0x100 EXP DUP2 SLOAD DUP2 PUSH20 0xFFFFFFFFFFFFFFFFFFFFFFFFFFFFFFFFFFFFFFFF MUL NOT AND SWAP1 DUP4 PUSH20 0xFFFFFFFFFFFFFFFFFFFFFFFFFFFFFFFFFFFFFFFF AND MUL OR SWAP1 SSTORE POP PUSH8 0x11C37937E080000 CALLVALUE PUSH2 0x43B SWAP2 SWAP1 PUSH2 0xCF0 JUMP JUMPDEST PUSH1 0x2 PUSH1 0x0 CALLER PUSH20 0xFFFFFFFFFFFFFFFFFFFFFFFFFFFFFFFFFFFFFFFF AND PUSH20 0xFFFFFFFFFFFFFFFFFFFFFFFFFFFFFFFFFFFFFFFF AND DUP2 MSTORE PUSH1 0x20 ADD SWAP1 DUP2 MSTORE PUSH1 0x20 ADD PUSH1 0x0 KECCAK256 DUP2 SWAP1 SSTORE POP CALLVALUE PUSH1 0x3 PUSH1 0x0 DUP3 DUP3 SLOAD PUSH2 0x490 SWAP2 SWAP1 PUSH2 0xC9A JUMP JUMPDEST SWAP3 POP POP DUP2 SWAP1 SSTORE POP PUSH32 0x2146ADE97A47950ED70BE6ECB1AC92DF0872CE4E8EBED36F042623D85DF32E8E CALLER CALLVALUE PUSH1 0x40 MLOAD PUSH2 0x4C8 SWAP3 SWAP2 SWAP1 PUSH2 0xB3F JUMP JUMPDEST PUSH1 0x40 MLOAD DUP1 SWAP2 SUB SWAP1 LOG1 POP PUSH2 0x528 JUMP JUMPDEST PUSH1 0x0 DUP2 EQ ISZERO PUSH2 0x527 JUMPI CALLER PUSH20 0xFFFFFFFFFFFFFFFFFFFFFFFFFFFFFFFFFFFFFFFF AND PUSH2 0x8FC CALLVALUE SWAP1 DUP2 ISZERO MUL SWAP1 PUSH1 0x40 MLOAD PUSH1 0x0 PUSH1 0x40 MLOAD DUP1 DUP4 SUB DUP2 DUP6 DUP9 DUP9 CALL SWAP4 POP POP POP POP ISZERO DUP1 ISZERO PUSH2 0x525 JUMPI RETURNDATASIZE PUSH1 0x0 DUP1 RETURNDATACOPY RETURNDATASIZE PUSH1 0x0 REVERT JUMPDEST POP JUMPDEST JUMPDEST PUSH1 0x1 SWAP2 POP POP SWAP1 JUMP JUMPDEST PUSH1 0x6 SLOAD DUP2 JUMP JUMPDEST PUSH1 0x0 PUSH1 0x4 SLOAD SWAP1 POP SWAP1 JUMP JUMPDEST PUSH2 0x548 PUSH2 0x7FC JUMP JUMPDEST SELFBALANCE DUP2 GT ISZERO PUSH2 0x58B JUMPI PUSH1 0x40 MLOAD PUSH32 0x8C379A000000000000000000000000000000000000000000000000000000000 DUP2 MSTORE PUSH1 0x4 ADD PUSH2 0x582 SWAP1 PUSH2 0xC23 JUMP JUMPDEST PUSH1 0x40 MLOAD DUP1 SWAP2 SUB SWAP1 REVERT JUMPDEST PUSH1 0x5 PUSH1 0x0 SWAP1 SLOAD SWAP1 PUSH2 0x100 EXP SWAP1 DIV PUSH1 0xFF AND ISZERO PUSH2 0x5DB JUMPI PUSH1 0x40 MLOAD PUSH32 0x8C379A000000000000000000000000000000000000000000000000000000000 DUP2 MSTORE PUSH1 0x4 ADD PUSH2 0x5D2 SWAP1 PUSH2 0xBE3 JUMP JUMPDEST PUSH1 0x40 MLOAD DUP1 SWAP2 SUB SWAP1 REVERT JUMPDEST PUSH1 0x1 PUSH1 0x5 PUSH1 0x0 PUSH2 0x100 EXP DUP2 SLOAD DUP2 PUSH1 0xFF MUL NOT AND SWAP1 DUP4 ISZERO ISZERO MUL OR SWAP1 SSTORE POP PUSH1 0x0 DUP2 SWAP1 POP PUSH1 0x0 PUSH1 0x5 PUSH1 0x0 PUSH2 0x100 EXP DUP2 SLOAD DUP2 PUSH1 0xFF MUL NOT AND SWAP1 DUP4 ISZERO ISZERO MUL OR SWAP1 SSTORE POP PUSH1 0x0 CALLER PUSH20 0xFFFFFFFFFFFFFFFFFFFFFFFFFFFFFFFFFFFFFFFF AND DUP3 PUSH1 0x40 MLOAD PUSH2 0x63C SWAP1 PUSH2 0xB0F JUMP JUMPDEST PUSH1 0x0 PUSH1 0x40 MLOAD DUP1 DUP4 SUB DUP2 DUP6 DUP8 GAS CALL SWAP3 POP POP POP RETURNDATASIZE DUP1 PUSH1 0x0 DUP2 EQ PUSH2 0x679 JUMPI PUSH1 0x40 MLOAD SWAP2 POP PUSH1 0x1F NOT PUSH1 0x3F RETURNDATASIZE ADD AND DUP3 ADD PUSH1 0x40 MSTORE RETURNDATASIZE DUP3 MSTORE RETURNDATASIZE PUSH1 0x0 PUSH1 0x20 DUP5 ADD RETURNDATACOPY PUSH2 0x67E JUMP JUMPDEST PUSH1 0x60 SWAP2 POP JUMPDEST POP POP SWAP1 POP DUP1 PUSH2 0x6C2 JUMPI PUSH1 0x40 MLOAD PUSH32 0x8C379A000000000000000000000000000000000000000000000000000000000 DUP2 MSTORE PUSH1 0x4 ADD PUSH2 0x6B9 SWAP1 PUSH2 0xBA3 JUMP JUMPDEST PUSH1 0x40 MLOAD DUP1 SWAP2 SUB SWAP1 REVERT JUMPDEST POP POP POP JUMP JUMPDEST PUSH1 0x0 PUSH2 0x6D1 PUSH2 0x7FC JUMP JUMPDEST CALLER PUSH20 0xFFFFFFFFFFFFFFFFFFFFFFFFFFFFFFFFFFFFFFFF AND SELFDESTRUCT JUMPDEST PUSH1 0x2 PUSH1 0x20 MSTORE DUP1 PUSH1 0x0 MSTORE PUSH1 0x40 PUSH1 0x0 KECCAK256 PUSH1 0x0 SWAP2 POP SWAP1 POP SLOAD DUP2 JUMP JUMPDEST PUSH2 0x70A PUSH2 0x7FC JUMP JUMPDEST PUSH2 0x714 PUSH1 0x0 PUSH2 0x87A JUMP JUMPDEST JUMP JUMPDEST PUSH1 0x0 DUP1 PUSH1 0x0 SWAP1 SLOAD SWAP1 PUSH2 0x100 EXP SWAP1 DIV PUSH20 0xFFFFFFFFFFFFFFFFFFFFFFFFFFFFFFFFFFFFFFFF AND SWAP1 POP SWAP1 JUMP JUMPDEST PUSH1 0x3 SLOAD DUP2 JUMP JUMPDEST PUSH1 0x1 PUSH1 0x20 MSTORE DUP1 PUSH1 0x0 MSTORE PUSH1 0x40 PUSH1 0x0 KECCAK256 PUSH1 0x0 SWAP2 POP SLOAD SWAP1 PUSH2 0x100 EXP SWAP1 DIV PUSH20 0xFFFFFFFFFFFFFFFFFFFFFFFFFFFFFFFFFFFFFFFF AND DUP2 JUMP JUMPDEST PUSH2 0x780 PUSH2 0x7FC JUMP JUMPDEST PUSH1 0x0 PUSH20 0xFFFFFFFFFFFFFFFFFFFFFFFFFFFFFFFFFFFFFFFF AND DUP2 PUSH20 0xFFFFFFFFFFFFFFFFFFFFFFFFFFFFFFFFFFFFFFFF AND EQ ISZERO PUSH2 0x7F0 JUMPI PUSH1 0x40 MLOAD PUSH32 0x8C379A000000000000000000000000000000000000000000000000000000000 DUP2 MSTORE PUSH1 0x4 ADD PUSH2 0x7E7 SWAP1 PUSH2 0xB83 JUMP JUMPDEST PUSH1 0x40 MLOAD DUP1 SWAP2 SUB SWAP1 REVERT JUMPDEST PUSH2 0x7F9 DUP2 PUSH2 0x87A JUMP JUMPDEST POP JUMP JUMPDEST PUSH2 0x804 PUSH2 0x93E JUMP JUMPDEST PUSH20 0xFFFFFFFFFFFFFFFFFFFFFFFFFFFFFFFFFFFFFFFF AND PUSH2 0x822 PUSH2 0x716 JUMP JUMPDEST PUSH20 0xFFFFFFFFFFFFFFFFFFFFFFFFFFFFFFFFFFFFFFFF AND EQ PUSH2 0x878 JUMPI PUSH1 0x40 MLOAD PUSH32 0x8C379A000000000000000000000000000000000000000000000000000000000 DUP2 MSTORE PUSH1 0x4 ADD PUSH2 0x86F SWAP1 PUSH2 0xC03 JUMP JUMPDEST PUSH1 0x40 MLOAD DUP1 SWAP2 SUB SWAP1 REVERT JUMPDEST JUMP JUMPDEST PUSH1 0x0 DUP1 PUSH1 0x0 SWAP1 SLOAD SWAP1 PUSH2 0x100 EXP SWAP1 DIV PUSH20 0xFFFFFFFFFFFFFFFFFFFFFFFFFFFFFFFFFFFFFFFF AND SWAP1 POP DUP2 PUSH1 0x0 DUP1 PUSH2 0x100 EXP DUP2 SLOAD DUP2 PUSH20 0xFFFFFFFFFFFFFFFFFFFFFFFFFFFFFFFFFFFFFFFF MUL NOT AND SWAP1 DUP4 PUSH20 0xFFFFFFFFFFFFFFFFFFFFFFFFFFFFFFFFFFFFFFFF AND MUL OR SWAP1 SSTORE POP DUP2 PUSH20 0xFFFFFFFFFFFFFFFFFFFFFFFFFFFFFFFFFFFFFFFF AND DUP2 PUSH20 0xFFFFFFFFFFFFFFFFFFFFFFFFFFFFFFFFFFFFFFFF AND PUSH32 0x8BE0079C531659141344CD1FD0A4F28419497F9722A3DAAFE3B4186F6B6457E0 PUSH1 0x40 MLOAD PUSH1 0x40 MLOAD DUP1 SWAP2 SUB SWAP1 LOG3 POP POP JUMP JUMPDEST PUSH1 0x0 CALLER SWAP1 POP SWAP1 JUMP JUMPDEST PUSH1 0x0 DUP2 CALLDATALOAD SWAP1 POP PUSH2 0x955 DUP2 PUSH2 0xFB7 JUMP JUMPDEST SWAP3 SWAP2 POP POP JUMP JUMPDEST PUSH1 0x0 DUP2 CALLDATALOAD SWAP1 POP PUSH2 0x96A DUP2 PUSH2 0xFCE JUMP JUMPDEST SWAP3 SWAP2 POP POP JUMP JUMPDEST PUSH1 0x0 PUSH1 0x20 DUP3 DUP5 SUB SLT ISZERO PUSH2 0x986 JUMPI PUSH2 0x985 PUSH2 0xE44 JUMP JUMPDEST JUMPDEST PUSH1 0x0 PUSH2 0x994 DUP5 DUP3 DUP6 ADD PUSH2 0x946 JUMP JUMPDEST SWAP2 POP POP SWAP3 SWAP2 POP POP JUMP JUMPDEST PUSH1 0x0 PUSH1 0x20 DUP3 DUP5 SUB SLT ISZERO PUSH2 0x9B3 JUMPI PUSH2 0x9B2 PUSH2 0xE44 JUMP JUMPDEST JUMPDEST PUSH1 0x0 PUSH2 0x9C1 DUP5 DUP3 DUP6 ADD PUSH2 0x95B JUMP JUMPDEST SWAP2 POP POP SWAP3 SWAP2 POP POP JUMP JUMPDEST PUSH2 0x9D3 DUP2 PUSH2 0xD55 JUMP JUMPDEST DUP3 MSTORE POP POP JUMP JUMPDEST PUSH2 0x9E2 DUP2 PUSH2 0xD67 JUMP JUMPDEST DUP3 MSTORE POP POP JUMP JUMPDEST PUSH1 0x0 PUSH2 0x9F5 PUSH1 0x26 DUP4 PUSH2 0xC89 JUMP JUMPDEST SWAP2 POP PUSH2 0xA00 DUP3 PUSH2 0xE49 JUMP JUMPDEST PUSH1 0x40 DUP3 ADD SWAP1 POP SWAP2 SWAP1 POP JUMP JUMPDEST PUSH1 0x0 PUSH2 0xA18 PUSH1 0xF DUP4 PUSH2 0xC89 JUMP JUMPDEST SWAP2 POP PUSH2 0xA23 DUP3 PUSH2 0xE98 JUMP JUMPDEST PUSH1 0x20 DUP3 ADD SWAP1 POP SWAP2 SWAP1 POP JUMP JUMPDEST PUSH1 0x0 PUSH2 0xA3B PUSH1 0xE DUP4 PUSH2 0xC89 JUMP JUMPDEST SWAP2 POP PUSH2 0xA46 DUP3 PUSH2 0xEC1 JUMP JUMPDEST PUSH1 0x20 DUP3 ADD SWAP1 POP SWAP2 SWAP1 POP JUMP JUMPDEST PUSH1 0x0 PUSH2 0xA5E PUSH1 0x1C DUP4 PUSH2 0xC89 JUMP JUMPDEST SWAP2 POP PUSH2 0xA69 DUP3 PUSH2 0xEEA JUMP JUMPDEST PUSH1 0x20 DUP3 ADD SWAP1 POP SWAP2 SWAP1 POP JUMP JUMPDEST PUSH1 0x0 PUSH2 0xA81 PUSH1 0x20 DUP4 PUSH2 0xC89 JUMP JUMPDEST SWAP2 POP PUSH2 0xA8C DUP3 PUSH2 0xF13 JUMP JUMPDEST PUSH1 0x20 DUP3 ADD SWAP1 POP SWAP2 SWAP1 POP JUMP JUMPDEST PUSH1 0x0 PUSH2 0xAA4 PUSH1 0x0 DUP4 PUSH2 0xC7E JUMP JUMPDEST SWAP2 POP PUSH2 0xAAF DUP3 PUSH2 0xF3C JUMP JUMPDEST PUSH1 0x0 DUP3 ADD SWAP1 POP SWAP2 SWAP1 POP JUMP JUMPDEST PUSH1 0x0 PUSH2 0xAC7 PUSH1 0x1D DUP4 PUSH2 0xC89 JUMP JUMPDEST SWAP2 POP PUSH2 0xAD2 DUP3 PUSH2 0xF3F JUMP JUMPDEST PUSH1 0x20 DUP3 ADD SWAP1 POP SWAP2 SWAP1 POP JUMP JUMPDEST PUSH1 0x0 PUSH2 0xAEA PUSH1 0x3D DUP4 PUSH2 0xC89 JUMP JUMPDEST SWAP2 POP PUSH2 0xAF5 DUP3 PUSH2 0xF68 JUMP JUMPDEST PUSH1 0x40 DUP3 ADD SWAP1 POP SWAP2 SWAP1 POP JUMP JUMPDEST PUSH2 0xB09 DUP2 PUSH2 0xD93 JUMP JUMPDEST DUP3 MSTORE POP POP JUMP JUMPDEST PUSH1 0x0 PUSH2 0xB1A DUP3 PUSH2 0xA97 JUMP JUMPDEST SWAP2 POP DUP2 SWAP1 POP SWAP2 SWAP1 POP JUMP JUMPDEST PUSH1 0x0 PUSH1 0x20 DUP3 ADD SWAP1 POP PUSH2 0xB39 PUSH1 0x0 DUP4 ADD DUP5 PUSH2 0x9CA JUMP JUMPDEST SWAP3 SWAP2 POP POP JUMP JUMPDEST PUSH1 0x0 PUSH1 0x40 DUP3 ADD SWAP1 POP PUSH2 0xB54 PUSH1 0x0 DUP4 ADD DUP6 PUSH2 0x9CA JUMP JUMPDEST PUSH2 0xB61 PUSH1 0x20 DUP4 ADD DUP5 PUSH2 0xB00 JUMP JUMPDEST SWAP4 SWAP3 POP POP POP JUMP JUMPDEST PUSH1 0x0 PUSH1 0x20 DUP3 ADD SWAP1 POP PUSH2 0xB7D PUSH1 0x0 DUP4 ADD DUP5 PUSH2 0x9D9 JUMP JUMPDEST SWAP3 SWAP2 POP POP JUMP JUMPDEST PUSH1 0x0 PUSH1 0x20 DUP3 ADD SWAP1 POP DUP2 DUP2 SUB PUSH1 0x0 DUP4 ADD MSTORE PUSH2 0xB9C DUP2 PUSH2 0x9E8 JUMP JUMPDEST SWAP1 POP SWAP2 SWAP1 POP JUMP JUMPDEST PUSH1 0x0 PUSH1 0x20 DUP3 ADD SWAP1 POP DUP2 DUP2 SUB PUSH1 0x0 DUP4 ADD MSTORE PUSH2 0xBBC DUP2 PUSH2 0xA0B JUMP JUMPDEST SWAP1 POP SWAP2 SWAP1 POP JUMP JUMPDEST PUSH1 0x0 PUSH1 0x20 DUP3 ADD SWAP1 POP DUP2 DUP2 SUB PUSH1 0x0 DUP4 ADD MSTORE PUSH2 0xBDC DUP2 PUSH2 0xA2E JUMP JUMPDEST SWAP1 POP SWAP2 SWAP1 POP JUMP JUMPDEST PUSH1 0x0 PUSH1 0x20 DUP3 ADD SWAP1 POP DUP2 DUP2 SUB PUSH1 0x0 DUP4 ADD MSTORE PUSH2 0xBFC DUP2 PUSH2 0xA51 JUMP JUMPDEST SWAP1 POP SWAP2 SWAP1 POP JUMP JUMPDEST PUSH1 0x0 PUSH1 0x20 DUP3 ADD SWAP1 POP DUP2 DUP2 SUB PUSH1 0x0 DUP4 ADD MSTORE PUSH2 0xC1C DUP2 PUSH2 0xA74 JUMP JUMPDEST SWAP1 POP SWAP2 SWAP1 POP JUMP JUMPDEST PUSH1 0x0 PUSH1 0x20 DUP3 ADD SWAP1 POP DUP2 DUP2 SUB PUSH1 0x0 DUP4 ADD MSTORE PUSH2 0xC3C DUP2 PUSH2 0xABA JUMP JUMPDEST SWAP1 POP SWAP2 SWAP1 POP JUMP JUMPDEST PUSH1 0x0 PUSH1 0x20 DUP3 ADD SWAP1 POP DUP2 DUP2 SUB PUSH1 0x0 DUP4 ADD MSTORE PUSH2 0xC5C DUP2 PUSH2 0xADD JUMP JUMPDEST SWAP1 POP SWAP2 SWAP1 POP JUMP JUMPDEST PUSH1 0x0 PUSH1 0x20 DUP3 ADD SWAP1 POP PUSH2 0xC78 PUSH1 0x0 DUP4 ADD DUP5 PUSH2 0xB00 JUMP JUMPDEST SWAP3 SWAP2 POP POP JUMP JUMPDEST PUSH1 0x0 DUP2 SWAP1 POP SWAP3 SWAP2 POP POP JUMP JUMPDEST PUSH1 0x0 DUP3 DUP3 MSTORE PUSH1 0x20 DUP3 ADD SWAP1 POP SWAP3 SWAP2 POP POP JUMP JUMPDEST PUSH1 0x0 PUSH2 0xCA5 DUP3 PUSH2 0xD93 JUMP JUMPDEST SWAP2 POP PUSH2 0xCB0 DUP4 PUSH2 0xD93 JUMP JUMPDEST SWAP3 POP DUP3 PUSH32 0xFFFFFFFFFFFFFFFFFFFFFFFFFFFFFFFFFFFFFFFFFFFFFFFFFFFFFFFFFFFFFFFF SUB DUP3 GT ISZERO PUSH2 0xCE5 JUMPI PUSH2 0xCE4 PUSH2 0xDE6 JUMP JUMPDEST JUMPDEST DUP3 DUP3 ADD SWAP1 POP SWAP3 SWAP2 POP POP JUMP JUMPDEST PUSH1 0x0 PUSH2 0xCFB DUP3 PUSH2 0xD93 JUMP JUMPDEST SWAP2 POP PUSH2 0xD06 DUP4 PUSH2 0xD93 JUMP JUMPDEST SWAP3 POP DUP3 PUSH2 0xD16 JUMPI PUSH2 0xD15 PUSH2 0xE15 JUMP JUMPDEST JUMPDEST DUP3 DUP3 DIV SWAP1 POP SWAP3 SWAP2 POP POP JUMP JUMPDEST PUSH1 0x0 PUSH2 0xD2C DUP3 PUSH2 0xD93 JUMP JUMPDEST SWAP2 POP PUSH2 0xD37 DUP4 PUSH2 0xD93 JUMP JUMPDEST SWAP3 POP DUP3 DUP3 LT ISZERO PUSH2 0xD4A JUMPI PUSH2 0xD49 PUSH2 0xDE6 JUMP JUMPDEST JUMPDEST DUP3 DUP3 SUB SWAP1 POP SWAP3 SWAP2 POP POP JUMP JUMPDEST PUSH1 0x0 PUSH2 0xD60 DUP3 PUSH2 0xD73 JUMP JUMPDEST SWAP1 POP SWAP2 SWAP1 POP JUMP JUMPDEST PUSH1 0x0 DUP2 ISZERO ISZERO SWAP1 POP SWAP2 SWAP1 POP JUMP JUMPDEST PUSH1 0x0 PUSH20 0xFFFFFFFFFFFFFFFFFFFFFFFFFFFFFFFFFFFFFFFF DUP3 AND SWAP1 POP SWAP2 SWAP1 POP JUMP JUMPDEST PUSH1 0x0 DUP2 SWAP1 POP SWAP2 SWAP1 POP JUMP JUMPDEST PUSH1 0x0 PUSH2 0xDA8 DUP3 PUSH2 0xD93 JUMP JUMPDEST SWAP2 POP PUSH32 0xFFFFFFFFFFFFFFFFFFFFFFFFFFFFFFFFFFFFFFFFFFFFFFFFFFFFFFFFFFFFFFFF DUP3 EQ ISZERO PUSH2 0xDDB JUMPI PUSH2 0xDDA PUSH2 0xDE6 JUMP JUMPDEST JUMPDEST PUSH1 0x1 DUP3 ADD SWAP1 POP SWAP2 SWAP1 POP JUMP JUMPDEST PUSH32 0x4E487B7100000000000000000000000000000000000000000000000000000000 PUSH1 0x0 MSTORE PUSH1 0x11 PUSH1 0x4 MSTORE PUSH1 0x24 PUSH1 0x0 REVERT JUMPDEST PUSH32 0x4E487B7100000000000000000000000000000000000000000000000000000000 PUSH1 0x0 MSTORE PUSH1 0x12 PUSH1 0x4 MSTORE PUSH1 0x24 PUSH1 0x0 REVERT JUMPDEST PUSH1 0x0 DUP1 REVERT JUMPDEST PUSH32 0x4F776E61626C653A206E6577206F776E657220697320746865207A65726F2061 PUSH1 0x0 DUP3 ADD MSTORE PUSH32 0x6464726573730000000000000000000000000000000000000000000000000000 PUSH1 0x20 DUP3 ADD MSTORE POP JUMP JUMPDEST PUSH32 0x5769746864726177206661696C65640000000000000000000000000000000000 PUSH1 0x0 DUP3 ADD MSTORE POP JUMP JUMPDEST PUSH32 0x496E76616C696420616D6F756E74000000000000000000000000000000000000 PUSH1 0x0 DUP3 ADD MSTORE POP JUMP JUMPDEST PUSH32 0x576974686472617720616C726561647920696E2070726F677265737300000000 PUSH1 0x0 DUP3 ADD MSTORE POP JUMP JUMPDEST PUSH32 0x4F776E61626C653A2063616C6C6572206973206E6F7420746865206F776E6572 PUSH1 0x0 DUP3 ADD MSTORE POP JUMP JUMPDEST POP JUMP JUMPDEST PUSH32 0x496E73756666696369656E7420636F6E74726163742062616C616E6365000000 PUSH1 0x0 DUP3 ADD MSTORE POP JUMP JUMPDEST PUSH32 0x546865207072652D73616C652071756F74612063616E6E6F7420626520677265 PUSH1 0x0 DUP3 ADD MSTORE PUSH32 0x61746572207468616E207468652072656D61696E696E672071756F7461000000 PUSH1 0x20 DUP3 ADD MSTORE POP JUMP JUMPDEST PUSH2 0xFC0 DUP2 PUSH2 0xD55 JUMP JUMPDEST DUP2 EQ PUSH2 0xFCB JUMPI PUSH1 0x0 DUP1 REVERT JUMPDEST POP JUMP JUMPDEST PUSH2 0xFD7 DUP2 PUSH2 0xD93 JUMP JUMPDEST DUP2 EQ PUSH2 0xFE2 JUMPI PUSH1 0x0 DUP1 REVERT JUMPDEST POP JUMP INVALID LOG2 PUSH5 0x6970667358 0x22 SLT KECCAK256 0xD5 0xD7 SAR PUSH19 0x6A8A24A9F06965C1E4BAF388CE9639714FCCB4 DUP4 0xE5 0xA9 0xCA PUSH16 0x2ADF1BA364736F6C6343000807003300 "
				},
				"gasEstimates": {
					"creation": {
						"codeDepositCost": "824600",
						"executionCost": "infinite",
						"totalCost": "infinite"
					},
					"external": {
						"BlanceValue()": "2495",
						"PublicSaleETH()": "infinite",
						"SaleAddress(uint256)": "2927",
						"SaleShare(address)": "2814",
						"getParticipantIndex()": "2460",
						"kill()": "30053",
						"owner()": "2566",
						"remaining()": "infinite",
						"renounceOwnership()": "30420",
						"supply()": "2430",
						"transferOwnership(address)": "30857",
						"withdraw(uint256)": "infinite"
					}
				},
				"methodIdentifiers": {
					"BlanceValue()": "936e6027",
					"PublicSaleETH()": "6228669b",
					"SaleAddress(uint256)": "eaa0fc36",
					"SaleShare(address)": "6585be55",
					"getParticipantIndex()": "27550ce7",
					"kill()": "41c0e1b5",
					"owner()": "8da5cb5b",
					"remaining()": "55234ec0",
					"renounceOwnership()": "715018a6",
					"supply()": "047fc9aa",
					"transferOwnership(address)": "f2fde38b",
					"withdraw(uint256)": "2e1a7d4d"
				}
			},
			"storageLayout": {
				"storage": [
					{
						"astId": 7,
						"contract": "SaleWallet.sol:SaleWallet",
						"label": "_owner",
						"offset": 0,
						"slot": "0",
						"type": "t_address"
					},
					{
						"astId": 155,
						"contract": "SaleWallet.sol:SaleWallet",
						"label": "SaleAddress",
						"offset": 0,
						"slot": "1",
						"type": "t_mapping(t_uint256,t_address)"
					},
					{
						"astId": 159,
						"contract": "SaleWallet.sol:SaleWallet",
						"label": "SaleShare",
						"offset": 0,
						"slot": "2",
						"type": "t_mapping(t_address,t_uint256)"
					},
					{
						"astId": 161,
						"contract": "SaleWallet.sol:SaleWallet",
						"label": "BlanceValue",
						"offset": 0,
						"slot": "3",
						"type": "t_uint256"
					},
					{
						"astId": 163,
						"contract": "SaleWallet.sol:SaleWallet",
						"label": "participant",
						"offset": 0,
						"slot": "4",
						"type": "t_uint256"
					},
					{
						"astId": 165,
						"contract": "SaleWallet.sol:SaleWallet",
						"label": "_locked",
						"offset": 0,
						"slot": "5",
						"type": "t_bool"
					},
					{
						"astId": 168,
						"contract": "SaleWallet.sol:SaleWallet",
						"label": "supply",
						"offset": 0,
						"slot": "6",
						"type": "t_uint256"
					}
				],
				"types": {
					"t_address": {
						"encoding": "inplace",
						"label": "address",
						"numberOfBytes": "20"
					},
					"t_bool": {
						"encoding": "inplace",
						"label": "bool",
						"numberOfBytes": "1"
					},
					"t_mapping(t_address,t_uint256)": {
						"encoding": "mapping",
						"key": "t_address",
						"label": "mapping(address => uint256)",
						"numberOfBytes": "32",
						"value": "t_uint256"
					},
					"t_mapping(t_uint256,t_address)": {
						"encoding": "mapping",
						"key": "t_uint256",
						"label": "mapping(uint256 => address)",
						"numberOfBytes": "32",
						"value": "t_address"
					},
					"t_uint256": {
						"encoding": "inplace",
						"label": "uint256",
						"numberOfBytes": "32"
					}
				}
			},
			"userdoc": {
				"kind": "user",
				"methods": {},
				"version": 1
			}
		}
	}
}