{
	"Airdrop.sol": {
		"Airdrop": {
			"abi": [
				{
					"anonymous": false,
					"inputs": [
						{
							"indexed": true,
							"internalType": "address",
							"name": "previousOwner",
							"type": "address"
						},
						{
							"indexed": true,
							"internalType": "address",
							"name": "newOwner",
							"type": "address"
						}
					],
					"name": "OwnershipTransferred",
					"type": "event"
				},
				{
					"inputs": [
						{
							"internalType": "address[]",
							"name": "_arry",
							"type": "address[]"
						}
					],
					"name": "Addlist",
					"outputs": [
						{
							"internalType": "bool",
							"name": "",
							"type": "bool"
						}
					],
					"stateMutability": "nonpayable",
					"type": "function"
				},
				{
					"inputs": [
						{
							"internalType": "address",
							"name": "_token",
							"type": "address"
						},
						{
							"internalType": "address[]",
							"name": "_addresses",
							"type": "address[]"
						},
						{
							"internalType": "uint256[]",
							"name": "_amounts",
							"type": "uint256[]"
						}
					],
					"name": "AirdropTransferToken",
					"outputs": [],
					"stateMutability": "nonpayable",
					"type": "function"
				},
				{
					"inputs": [
						{
							"internalType": "address",
							"name": "from",
							"type": "address"
						}
					],
					"name": "AllowClaim",
					"outputs": [
						{
							"internalType": "bool",
							"name": "",
							"type": "bool"
						}
					],
					"stateMutability": "view",
					"type": "function"
				},
				{
					"inputs": [
						{
							"internalType": "uint256",
							"name": "",
							"type": "uint256"
						}
					],
					"name": "WhiteList",
					"outputs": [
						{
							"internalType": "address",
							"name": "",
							"type": "address"
						}
					],
					"stateMutability": "view",
					"type": "function"
				},
				{
					"inputs": [
						{
							"internalType": "uint256[]",
							"name": "_arr",
							"type": "uint256[]"
						}
					],
					"name": "getSum",
					"outputs": [
						{
							"internalType": "uint256",
							"name": "sum",
							"type": "uint256"
						}
					],
					"stateMutability": "pure",
					"type": "function"
				},
				{
					"inputs": [
						{
							"internalType": "address payable[]",
							"name": "_addresses",
							"type": "address[]"
						},
						{
							"internalType": "uint256[]",
							"name": "_amounts",
							"type": "uint256[]"
						}
					],
					"name": "multiTransferETH",
					"outputs": [],
					"stateMutability": "payable",
					"type": "function"
				},
				{
					"inputs": [],
					"name": "owner",
					"outputs": [
						{
							"internalType": "address",
							"name": "",
							"type": "address"
						}
					],
					"stateMutability": "view",
					"type": "function"
				},
				{
					"inputs": [],
					"name": "renounceOwnership",
					"outputs": [],
					"stateMutability": "nonpayable",
					"type": "function"
				},
				{
					"inputs": [
						{
							"internalType": "address",
							"name": "newOwner",
							"type": "address"
						}
					],
					"name": "transferOwnership",
					"outputs": [],
					"stateMutability": "nonpayable",
					"type": "function"
				}
			],
			"devdoc": {
				"kind": "dev",
				"methods": {
					"AirdropTransferToken(address,address[],uint256[])": {
						"params": {
							"_addresses": "空投地址数组",
							"_amounts": "代币数量数组（每个地址的空投数量）",
							"_token": "转账的ERC20代币地址"
						}
					},
					"owner()": {
						"details": "Returns the address of the current owner."
					},
					"renounceOwnership()": {
						"details": "Leaves the contract without owner. It will not be possible to call `onlyOwner` functions anymore. Can only be called by the current owner. NOTE: Renouncing ownership will leave the contract without an owner, thereby removing any functionality that is only available to the owner."
					},
					"transferOwnership(address)": {
						"details": "Transfers ownership of the contract to a new account (`newOwner`). Can only be called by the current owner."
					}
				},
				"version": 1
			},
			"evm": {
				"assembly": "    /* \"Airdrop.sol\":231:2742  contract Airdrop is Ownable{\r... */\n  mstore(0x40, 0x80)\n  callvalue\n  dup1\n  iszero\n  tag_1\n  jumpi\n  0x00\n  dup1\n  revert\ntag_1:\n  pop\n    /* \"@openzeppelin/contracts/access/Ownable.sol\":936:968  _transferOwnership(_msgSender()) */\n  tag_4\n    /* \"@openzeppelin/contracts/access/Ownable.sol\":955:967  _msgSender() */\n  tag_5\n    /* \"@openzeppelin/contracts/access/Ownable.sol\":955:965  _msgSender */\n  shl(0x20, tag_6)\n    /* \"@openzeppelin/contracts/access/Ownable.sol\":955:967  _msgSender() */\n  0x20\n  shr\n  jump\t// in\ntag_5:\n    /* \"@openzeppelin/contracts/access/Ownable.sol\":936:954  _transferOwnership */\n  shl(0x20, tag_7)\n    /* \"@openzeppelin/contracts/access/Ownable.sol\":936:968  _transferOwnership(_msgSender()) */\n  0x20\n  shr\n  jump\t// in\ntag_4:\n    /* \"Airdrop.sol\":231:2742  contract Airdrop is Ownable{\r... */\n  jump(tag_8)\n    /* \"@openzeppelin/contracts/utils/Context.sol\":640:736  function _msgSender() internal view virtual returns (address) {... */\ntag_6:\n    /* \"@openzeppelin/contracts/utils/Context.sol\":693:700  address */\n  0x00\n    /* \"@openzeppelin/contracts/utils/Context.sol\":719:729  msg.sender */\n  caller\n    /* \"@openzeppelin/contracts/utils/Context.sol\":712:729  return msg.sender */\n  swap1\n  pop\n    /* \"@openzeppelin/contracts/utils/Context.sol\":640:736  function _msgSender() internal view virtual returns (address) {... */\n  swap1\n  jump\t// out\n    /* \"@openzeppelin/contracts/access/Ownable.sol\":2433:2620  function _transferOwnership(address newOwner) internal virtual {... */\ntag_7:\n    /* \"@openzeppelin/contracts/access/Ownable.sol\":2506:2522  address oldOwner */\n  0x00\n    /* \"@openzeppelin/contracts/access/Ownable.sol\":2525:2531  _owner */\n  dup1\n  0x00\n  swap1\n  sload\n  swap1\n  0x0100\n  exp\n  swap1\n  div\n  0xffffffffffffffffffffffffffffffffffffffff\n  and\n    /* \"@openzeppelin/contracts/access/Ownable.sol\":2506:2531  address oldOwner = _owner */\n  swap1\n  pop\n    /* \"@openzeppelin/contracts/access/Ownable.sol\":2550:2558  newOwner */\n  dup2\n    /* \"@openzeppelin/contracts/access/Ownable.sol\":2541:2547  _owner */\n  0x00\n  dup1\n    /* \"@openzeppelin/contracts/access/Ownable.sol\":2541:2558  _owner = newOwner */\n  0x0100\n  exp\n  dup2\n  sload\n  dup2\n  0xffffffffffffffffffffffffffffffffffffffff\n  mul\n  not\n  and\n  swap1\n  dup4\n  0xffffffffffffffffffffffffffffffffffffffff\n  and\n  mul\n  or\n  swap1\n  sstore\n  pop\n    /* \"@openzeppelin/contracts/access/Ownable.sol\":2604:2612  newOwner */\n  dup2\n    /* \"@openzeppelin/contracts/access/Ownable.sol\":2573:2613  OwnershipTransferred(oldOwner, newOwner) */\n  0xffffffffffffffffffffffffffffffffffffffff\n  and\n    /* \"@openzeppelin/contracts/access/Ownable.sol\":2594:2602  oldOwner */\n  dup2\n    /* \"@openzeppelin/contracts/access/Ownable.sol\":2573:2613  OwnershipTransferred(oldOwner, newOwner) */\n  0xffffffffffffffffffffffffffffffffffffffff\n  and\n  0x8be0079c531659141344cd1fd0a4f28419497f9722a3daafe3b4186f6b6457e0\n  mload(0x40)\n  mload(0x40)\n  dup1\n  swap2\n  sub\n  swap1\n  log3\n    /* \"@openzeppelin/contracts/access/Ownable.sol\":2496:2620  {... */\n  pop\n    /* \"@openzeppelin/contracts/access/Ownable.sol\":2433:2620  function _transferOwnership(address newOwner) internal virtual {... */\n  pop\n  jump\t// out\n    /* \"Airdrop.sol\":231:2742  contract Airdrop is Ownable{\r... */\ntag_8:\n  dataSize(sub_0)\n  dup1\n  dataOffset(sub_0)\n  0x00\n  codecopy\n  0x00\n  return\nstop\n\nsub_0: assembly {\n        /* \"Airdrop.sol\":231:2742  contract Airdrop is Ownable{\r... */\n      mstore(0x40, 0x80)\n      jumpi(tag_1, lt(calldatasize, 0x04))\n      shr(0xe0, calldataload(0x00))\n      dup1\n      0x8d55411f\n      gt\n      tag_11\n      jumpi\n      dup1\n      0x8d55411f\n      eq\n      tag_6\n      jumpi\n      dup1\n      0x8da5cb5b\n      eq\n      tag_7\n      jumpi\n      dup1\n      0xa1f3b121\n      eq\n      tag_8\n      jumpi\n      dup1\n      0xccb8c1e0\n      eq\n      tag_9\n      jumpi\n      dup1\n      0xf2fde38b\n      eq\n      tag_10\n      jumpi\n      jump(tag_1)\n    tag_11:\n      dup1\n      0x1c795fb5\n      eq\n      tag_2\n      jumpi\n      dup1\n      0x6a1d410c\n      eq\n      tag_3\n      jumpi\n      dup1\n      0x715018a6\n      eq\n      tag_4\n      jumpi\n      dup1\n      0x77988cf8\n      eq\n      tag_5\n      jumpi\n    tag_1:\n      0x00\n      dup1\n      revert\n        /* \"Airdrop.sol\":267:294  address[] public  WhiteList */\n    tag_2:\n      callvalue\n      dup1\n      iszero\n      tag_12\n      jumpi\n      0x00\n      dup1\n      revert\n    tag_12:\n      pop\n      tag_13\n      0x04\n      dup1\n      calldatasize\n      sub\n      dup2\n      add\n      swap1\n      tag_14\n      swap2\n      swap1\n      tag_15\n      jump\t// in\n    tag_14:\n      tag_16\n      jump\t// in\n    tag_13:\n      mload(0x40)\n      tag_17\n      swap2\n      swap1\n      tag_18\n      jump\t// in\n    tag_17:\n      mload(0x40)\n      dup1\n      swap2\n      sub\n      swap1\n      return\n        /* \"Airdrop.sol\":1168:2019  function AirdropTransferToken(\r... */\n    tag_3:\n      callvalue\n      dup1\n      iszero\n      tag_19\n      jumpi\n      0x00\n      dup1\n      revert\n    tag_19:\n      pop\n      tag_20\n      0x04\n      dup1\n      calldatasize\n      sub\n      dup2\n      add\n      swap1\n      tag_21\n      swap2\n      swap1\n      tag_22\n      jump\t// in\n    tag_21:\n      tag_23\n      jump\t// in\n    tag_20:\n      stop\n        /* \"@openzeppelin/contracts/access/Ownable.sol\":1831:1932  function renounceOwnership() public virtual onlyOwner {... */\n    tag_4:\n      callvalue\n      dup1\n      iszero\n      tag_24\n      jumpi\n      0x00\n      dup1\n      revert\n    tag_24:\n      pop\n      tag_25\n      tag_26\n      jump\t// in\n    tag_25:\n      stop\n        /* \"Airdrop.sol\":2061:2737  function multiTransferETH(\r... */\n    tag_5:\n      tag_27\n      0x04\n      dup1\n      calldatasize\n      sub\n      dup2\n      add\n      swap1\n      tag_28\n      swap2\n      swap1\n      tag_29\n      jump\t// in\n    tag_28:\n      tag_30\n      jump\t// in\n    tag_27:\n      stop\n        /* \"Airdrop.sol\":567:701  function Addlist(address[] calldata _arry) external onlyOwner returns (bool){\r... */\n    tag_6:\n      callvalue\n      dup1\n      iszero\n      tag_31\n      jumpi\n      0x00\n      dup1\n      revert\n    tag_31:\n      pop\n      tag_32\n      0x04\n      dup1\n      calldatasize\n      sub\n      dup2\n      add\n      swap1\n      tag_33\n      swap2\n      swap1\n      tag_34\n      jump\t// in\n    tag_33:\n      tag_35\n      jump\t// in\n    tag_32:\n      mload(0x40)\n      tag_36\n      swap2\n      swap1\n      tag_37\n      jump\t// in\n    tag_36:\n      mload(0x40)\n      dup1\n      swap2\n      sub\n      swap1\n      return\n        /* \"@openzeppelin/contracts/access/Ownable.sol\":1201:1286  function owner() public view virtual returns (address) {... */\n    tag_7:\n      callvalue\n      dup1\n      iszero\n      tag_38\n      jumpi\n      0x00\n      dup1\n      revert\n    tag_38:\n      pop\n      tag_39\n      tag_40\n      jump\t// in\n    tag_39:\n      mload(0x40)\n      tag_41\n      swap2\n      swap1\n      tag_18\n      jump\t// in\n    tag_41:\n      mload(0x40)\n      dup1\n      swap2\n      sub\n      swap1\n      return\n        /* \"Airdrop.sol\":303:559  function AllowClaim(address from) external view returns (bool){\r... */\n    tag_8:\n      callvalue\n      dup1\n      iszero\n      tag_42\n      jumpi\n      0x00\n      dup1\n      revert\n    tag_42:\n      pop\n      tag_43\n      0x04\n      dup1\n      calldatasize\n      sub\n      dup2\n      add\n      swap1\n      tag_44\n      swap2\n      swap1\n      tag_45\n      jump\t// in\n    tag_44:\n      tag_46\n      jump\t// in\n    tag_43:\n      mload(0x40)\n      tag_47\n      swap2\n      swap1\n      tag_37\n      jump\t// in\n    tag_47:\n      mload(0x40)\n      dup1\n      swap2\n      sub\n      swap1\n      return\n        /* \"Airdrop.sol\":736:901  function getSum(uint256[] calldata _arr) public pure returns(uint sum)\r... */\n    tag_9:\n      callvalue\n      dup1\n      iszero\n      tag_48\n      jumpi\n      0x00\n      dup1\n      revert\n    tag_48:\n      pop\n      tag_49\n      0x04\n      dup1\n      calldatasize\n      sub\n      dup2\n      add\n      swap1\n      tag_50\n      swap2\n      swap1\n      tag_51\n      jump\t// in\n    tag_50:\n      tag_52\n      jump\t// in\n    tag_49:\n      mload(0x40)\n      tag_53\n      swap2\n      swap1\n      tag_54\n      jump\t// in\n    tag_53:\n      mload(0x40)\n      dup1\n      swap2\n      sub\n      swap1\n      return\n        /* \"@openzeppelin/contracts/access/Ownable.sol\":2081:2279  function transferOwnership(address newOwner) public virtual onlyOwner {... */\n    tag_10:\n      callvalue\n      dup1\n      iszero\n      tag_55\n      jumpi\n      0x00\n      dup1\n      revert\n    tag_55:\n      pop\n      tag_56\n      0x04\n      dup1\n      calldatasize\n      sub\n      dup2\n      add\n      swap1\n      tag_57\n      swap2\n      swap1\n      tag_45\n      jump\t// in\n    tag_57:\n      tag_58\n      jump\t// in\n    tag_56:\n      stop\n        /* \"Airdrop.sol\":267:294  address[] public  WhiteList */\n    tag_16:\n      0x01\n      dup2\n      dup2\n      sload\n      dup2\n      lt\n      tag_59\n      jumpi\n      0x00\n      dup1\n      revert\n    tag_59:\n      swap1\n      0x00\n      mstore\n      keccak256(0x00, 0x20)\n      add\n      0x00\n      swap2\n      pop\n      sload\n      swap1\n      0x0100\n      exp\n      swap1\n      div\n      0xffffffffffffffffffffffffffffffffffffffff\n      and\n      dup2\n      jump\t// out\n        /* \"Airdrop.sol\":1168:2019  function AirdropTransferToken(\r... */\n    tag_23:\n        /* \"@openzeppelin/contracts/access/Ownable.sol\":1094:1107  _checkOwner() */\n      tag_62\n        /* \"@openzeppelin/contracts/access/Ownable.sol\":1094:1105  _checkOwner */\n      tag_63\n        /* \"@openzeppelin/contracts/access/Ownable.sol\":1094:1107  _checkOwner() */\n      jump\t// in\n    tag_62:\n        /* \"Airdrop.sol\":1436:1444  _amounts */\n      dup2\n      dup2\n        /* \"Airdrop.sol\":1436:1451  _amounts.length */\n      swap1\n      pop\n        /* \"Airdrop.sol\":1415:1425  _addresses */\n      dup5\n      dup5\n        /* \"Airdrop.sol\":1415:1432  _addresses.length */\n      swap1\n      pop\n        /* \"Airdrop.sol\":1415:1451  _addresses.length == _amounts.length */\n      eq\n        /* \"Airdrop.sol\":1407:1498  require(_addresses.length == _amounts.length, \"Lengths of Addresses and Amounts NOT EQUAL\") */\n      tag_65\n      jumpi\n      mload(0x40)\n      0x08c379a000000000000000000000000000000000000000000000000000000000\n      dup2\n      mstore\n      0x04\n      add\n      tag_66\n      swap1\n      tag_67\n      jump\t// in\n    tag_66:\n      mload(0x40)\n      dup1\n      swap2\n      sub\n      swap1\n      revert\n    tag_65:\n        /* \"Airdrop.sol\":1509:1521  IERC20 token */\n      0x00\n        /* \"Airdrop.sol\":1531:1537  _token */\n      dup6\n        /* \"Airdrop.sol\":1509:1538  IERC20 token = IERC20(_token) */\n      swap1\n      pop\n        /* \"Airdrop.sol\":1575:1590  uint _amountSum */\n      0x00\n        /* \"Airdrop.sol\":1593:1609  getSum(_amounts) */\n      tag_68\n        /* \"Airdrop.sol\":1600:1608  _amounts */\n      dup5\n      dup5\n        /* \"Airdrop.sol\":1593:1599  getSum */\n      tag_52\n        /* \"Airdrop.sol\":1593:1609  getSum(_amounts) */\n      jump\t// in\n    tag_68:\n        /* \"Airdrop.sol\":1575:1609  uint _amountSum = getSum(_amounts) */\n      swap1\n      pop\n        /* \"Airdrop.sol\":1764:1774  _amountSum */\n      dup1\n        /* \"Airdrop.sol\":1718:1723  token */\n      dup3\n        /* \"Airdrop.sol\":1718:1733  token.allowance */\n      0xffffffffffffffffffffffffffffffffffffffff\n      and\n      0xdd62ed3e\n        /* \"Airdrop.sol\":1734:1744  msg.sender */\n      caller\n        /* \"Airdrop.sol\":1754:1758  this */\n      address\n        /* \"Airdrop.sol\":1718:1760  token.allowance(msg.sender, address(this)) */\n      mload(0x40)\n      dup4\n      0xffffffff\n      and\n      0xe0\n      shl\n      dup2\n      mstore\n      0x04\n      add\n      tag_69\n      swap3\n      swap2\n      swap1\n      tag_70\n      jump\t// in\n    tag_69:\n      0x20\n      mload(0x40)\n      dup1\n      dup4\n      sub\n      dup2\n      dup7\n      dup1\n      extcodesize\n      iszero\n      dup1\n      iszero\n      tag_71\n      jumpi\n      0x00\n      dup1\n      revert\n    tag_71:\n      pop\n      gas\n      staticcall\n      iszero\n      dup1\n      iszero\n      tag_73\n      jumpi\n      returndatasize\n      0x00\n      dup1\n      returndatacopy\n      revert(0x00, returndatasize)\n    tag_73:\n      pop\n      pop\n      pop\n      pop\n      mload(0x40)\n      returndatasize\n      not(0x1f)\n      0x1f\n      dup3\n      add\n      and\n      dup3\n      add\n      dup1\n      0x40\n      mstore\n      pop\n      dup2\n      add\n      swap1\n      tag_74\n      swap2\n      swap1\n      tag_75\n      jump\t// in\n    tag_74:\n        /* \"Airdrop.sol\":1718:1774  token.allowance(msg.sender, address(this)) >= _amountSum */\n      lt\n      iszero\n        /* \"Airdrop.sol\":1710:1803  require(token.allowance(msg.sender, address(this)) >= _amountSum, \"Need Approve ERC20 token\") */\n      tag_76\n      jumpi\n      mload(0x40)\n      0x08c379a000000000000000000000000000000000000000000000000000000000\n      dup2\n      mstore\n      0x04\n      add\n      tag_77\n      swap1\n      tag_78\n      jump\t// in\n    tag_77:\n      mload(0x40)\n      dup1\n      swap2\n      sub\n      swap1\n      revert\n    tag_76:\n        /* \"Airdrop.sol\":1890:1897  uint8 i */\n      0x00\n        /* \"Airdrop.sol\":1885:2012  for (uint8 i; i < _addresses.length; i++) {\r... */\n    tag_79:\n        /* \"Airdrop.sol\":1903:1913  _addresses */\n      dup7\n      dup7\n        /* \"Airdrop.sol\":1903:1920  _addresses.length */\n      swap1\n      pop\n        /* \"Airdrop.sol\":1899:1900  i */\n      dup2\n        /* \"Airdrop.sol\":1899:1920  i < _addresses.length */\n      0xff\n      and\n      lt\n        /* \"Airdrop.sol\":1885:2012  for (uint8 i; i < _addresses.length; i++) {\r... */\n      iszero\n      tag_80\n      jumpi\n        /* \"Airdrop.sol\":1942:1947  token */\n      dup3\n        /* \"Airdrop.sol\":1942:1960  token.transferFrom */\n      0xffffffffffffffffffffffffffffffffffffffff\n      and\n      0x23b872dd\n        /* \"Airdrop.sol\":1961:1971  msg.sender */\n      caller\n        /* \"Airdrop.sol\":1973:1983  _addresses */\n      dup10\n      dup10\n        /* \"Airdrop.sol\":1984:1985  i */\n      dup6\n        /* \"Airdrop.sol\":1973:1986  _addresses[i] */\n      0xff\n      and\n      dup2\n      dup2\n      lt\n      tag_82\n      jumpi\n      tag_83\n      tag_84\n      jump\t// in\n    tag_83:\n    tag_82:\n      swap1\n      pop\n      0x20\n      mul\n      add\n      0x20\n      dup2\n      add\n      swap1\n      tag_85\n      swap2\n      swap1\n      tag_45\n      jump\t// in\n    tag_85:\n        /* \"Airdrop.sol\":1988:1996  _amounts */\n      dup9\n      dup9\n        /* \"Airdrop.sol\":1997:1998  i */\n      dup7\n        /* \"Airdrop.sol\":1988:1999  _amounts[i] */\n      0xff\n      and\n      dup2\n      dup2\n      lt\n      tag_86\n      jumpi\n      tag_87\n      tag_84\n      jump\t// in\n    tag_87:\n    tag_86:\n      swap1\n      pop\n      0x20\n      mul\n      add\n      calldataload\n        /* \"Airdrop.sol\":1942:2000  token.transferFrom(msg.sender, _addresses[i], _amounts[i]) */\n      mload(0x40)\n      dup5\n      0xffffffff\n      and\n      0xe0\n      shl\n      dup2\n      mstore\n      0x04\n      add\n      tag_88\n      swap4\n      swap3\n      swap2\n      swap1\n      tag_89\n      jump\t// in\n    tag_88:\n      0x20\n      mload(0x40)\n      dup1\n      dup4\n      sub\n      dup2\n      0x00\n      dup8\n      dup1\n      extcodesize\n      iszero\n      dup1\n      iszero\n      tag_90\n      jumpi\n      0x00\n      dup1\n      revert\n    tag_90:\n      pop\n      gas\n      call\n      iszero\n      dup1\n      iszero\n      tag_92\n      jumpi\n      returndatasize\n      0x00\n      dup1\n      returndatacopy\n      revert(0x00, returndatasize)\n    tag_92:\n      pop\n      pop\n      pop\n      pop\n      mload(0x40)\n      returndatasize\n      not(0x1f)\n      0x1f\n      dup3\n      add\n      and\n      dup3\n      add\n      dup1\n      0x40\n      mstore\n      pop\n      dup2\n      add\n      swap1\n      tag_93\n      swap2\n      swap1\n      tag_94\n      jump\t// in\n    tag_93:\n      pop\n        /* \"Airdrop.sol\":1922:1925  i++ */\n      dup1\n      dup1\n      tag_95\n      swap1\n      tag_96\n      jump\t// in\n    tag_95:\n      swap2\n      pop\n      pop\n        /* \"Airdrop.sol\":1885:2012  for (uint8 i; i < _addresses.length; i++) {\r... */\n      jump(tag_79)\n    tag_80:\n      pop\n        /* \"Airdrop.sol\":1332:2019  {\r... */\n      pop\n      pop\n        /* \"Airdrop.sol\":1168:2019  function AirdropTransferToken(\r... */\n      pop\n      pop\n      pop\n      pop\n      pop\n      jump\t// out\n        /* \"@openzeppelin/contracts/access/Ownable.sol\":1831:1932  function renounceOwnership() public virtual onlyOwner {... */\n    tag_26:\n        /* \"@openzeppelin/contracts/access/Ownable.sol\":1094:1107  _checkOwner() */\n      tag_98\n        /* \"@openzeppelin/contracts/access/Ownable.sol\":1094:1105  _checkOwner */\n      tag_63\n        /* \"@openzeppelin/contracts/access/Ownable.sol\":1094:1107  _checkOwner() */\n      jump\t// in\n    tag_98:\n        /* \"@openzeppelin/contracts/access/Ownable.sol\":1895:1925  _transferOwnership(address(0)) */\n      tag_100\n        /* \"@openzeppelin/contracts/access/Ownable.sol\":1922:1923  0 */\n      0x00\n        /* \"@openzeppelin/contracts/access/Ownable.sol\":1895:1913  _transferOwnership */\n      tag_101\n        /* \"@openzeppelin/contracts/access/Ownable.sol\":1895:1925  _transferOwnership(address(0)) */\n      jump\t// in\n    tag_100:\n        /* \"@openzeppelin/contracts/access/Ownable.sol\":1831:1932  function renounceOwnership() public virtual onlyOwner {... */\n      jump\t// out\n        /* \"Airdrop.sol\":2061:2737  function multiTransferETH(\r... */\n    tag_30:\n        /* \"@openzeppelin/contracts/access/Ownable.sol\":1094:1107  _checkOwner() */\n      tag_103\n        /* \"@openzeppelin/contracts/access/Ownable.sol\":1094:1105  _checkOwner */\n      tag_63\n        /* \"@openzeppelin/contracts/access/Ownable.sol\":1094:1107  _checkOwner() */\n      jump\t// in\n    tag_103:\n        /* \"Airdrop.sol\":2309:2317  _amounts */\n      dup2\n      dup2\n        /* \"Airdrop.sol\":2309:2324  _amounts.length */\n      swap1\n      pop\n        /* \"Airdrop.sol\":2288:2298  _addresses */\n      dup5\n      dup5\n        /* \"Airdrop.sol\":2288:2305  _addresses.length */\n      swap1\n      pop\n        /* \"Airdrop.sol\":2288:2324  _addresses.length == _amounts.length */\n      eq\n        /* \"Airdrop.sol\":2280:2371  require(_addresses.length == _amounts.length, \"Lengths of Addresses and Amounts NOT EQUAL\") */\n      tag_105\n      jumpi\n      mload(0x40)\n      0x08c379a000000000000000000000000000000000000000000000000000000000\n      dup2\n      mstore\n      0x04\n      add\n      tag_106\n      swap1\n      tag_67\n      jump\t// in\n    tag_106:\n      mload(0x40)\n      dup1\n      swap2\n      sub\n      swap1\n      revert\n    tag_105:\n        /* \"Airdrop.sol\":2382:2397  uint _amountSum */\n      0x00\n        /* \"Airdrop.sol\":2400:2416  getSum(_amounts) */\n      tag_107\n        /* \"Airdrop.sol\":2407:2415  _amounts */\n      dup4\n      dup4\n        /* \"Airdrop.sol\":2400:2406  getSum */\n      tag_52\n        /* \"Airdrop.sol\":2400:2416  getSum(_amounts) */\n      jump\t// in\n    tag_107:\n        /* \"Airdrop.sol\":2382:2416  uint _amountSum = getSum(_amounts) */\n      swap1\n      pop\n        /* \"Airdrop.sol\":2519:2529  _amountSum */\n      dup1\n        /* \"Airdrop.sol\":2506:2515  msg.value */\n      callvalue\n        /* \"Airdrop.sol\":2506:2529  msg.value == _amountSum */\n      eq\n        /* \"Airdrop.sol\":2498:2555  require(msg.value == _amountSum, \"Transfer amount error\") */\n      tag_108\n      jumpi\n      mload(0x40)\n      0x08c379a000000000000000000000000000000000000000000000000000000000\n      dup2\n      mstore\n      0x04\n      add\n      tag_109\n      swap1\n      tag_110\n      jump\t// in\n    tag_109:\n      mload(0x40)\n      dup1\n      swap2\n      sub\n      swap1\n      revert\n    tag_108:\n        /* \"Airdrop.sol\":2625:2634  uint256 i */\n      0x00\n        /* \"Airdrop.sol\":2620:2730  for (uint256 i = 0; i < _addresses.length; i++) {\r... */\n    tag_111:\n        /* \"Airdrop.sol\":2644:2654  _addresses */\n      dup6\n      dup6\n        /* \"Airdrop.sol\":2644:2661  _addresses.length */\n      swap1\n      pop\n        /* \"Airdrop.sol\":2640:2641  i */\n      dup2\n        /* \"Airdrop.sol\":2640:2661  i < _addresses.length */\n      lt\n        /* \"Airdrop.sol\":2620:2730  for (uint256 i = 0; i < _addresses.length; i++) {\r... */\n      iszero\n      tag_112\n      jumpi\n        /* \"Airdrop.sol\":2683:2693  _addresses */\n      dup6\n      dup6\n        /* \"Airdrop.sol\":2694:2695  i */\n      dup3\n        /* \"Airdrop.sol\":2683:2696  _addresses[i] */\n      dup2\n      dup2\n      lt\n      tag_114\n      jumpi\n      tag_115\n      tag_84\n      jump\t// in\n    tag_115:\n    tag_114:\n      swap1\n      pop\n      0x20\n      mul\n      add\n      0x20\n      dup2\n      add\n      swap1\n      tag_116\n      swap2\n      swap1\n      tag_117\n      jump\t// in\n    tag_116:\n        /* \"Airdrop.sol\":2683:2705  _addresses[i].transfer */\n      0xffffffffffffffffffffffffffffffffffffffff\n      and\n        /* \"Airdrop.sol\":2683:2718  _addresses[i].transfer(_amounts[i]) */\n      0x08fc\n        /* \"Airdrop.sol\":2706:2714  _amounts */\n      dup6\n      dup6\n        /* \"Airdrop.sol\":2715:2716  i */\n      dup5\n        /* \"Airdrop.sol\":2706:2717  _amounts[i] */\n      dup2\n      dup2\n      lt\n      tag_118\n      jumpi\n      tag_119\n      tag_84\n      jump\t// in\n    tag_119:\n    tag_118:\n      swap1\n      pop\n      0x20\n      mul\n      add\n      calldataload\n        /* \"Airdrop.sol\":2683:2718  _addresses[i].transfer(_amounts[i]) */\n      swap1\n      dup2\n      iszero\n      mul\n      swap1\n      mload(0x40)\n      0x00\n      mload(0x40)\n      dup1\n      dup4\n      sub\n      dup2\n      dup6\n      dup9\n      dup9\n      call\n      swap4\n      pop\n      pop\n      pop\n      pop\n      iszero\n      dup1\n      iszero\n      tag_121\n      jumpi\n      returndatasize\n      0x00\n      dup1\n      returndatacopy\n      revert(0x00, returndatasize)\n    tag_121:\n      pop\n        /* \"Airdrop.sol\":2663:2666  i++ */\n      dup1\n      dup1\n      tag_122\n      swap1\n      tag_123\n      jump\t// in\n    tag_122:\n      swap2\n      pop\n      pop\n        /* \"Airdrop.sol\":2620:2730  for (uint256 i = 0; i < _addresses.length; i++) {\r... */\n      jump(tag_111)\n    tag_112:\n      pop\n        /* \"Airdrop.sol\":2205:2737  {\r... */\n      pop\n        /* \"Airdrop.sol\":2061:2737  function multiTransferETH(\r... */\n      pop\n      pop\n      pop\n      pop\n      jump\t// out\n        /* \"Airdrop.sol\":567:701  function Addlist(address[] calldata _arry) external onlyOwner returns (bool){\r... */\n    tag_35:\n        /* \"Airdrop.sol\":638:642  bool */\n      0x00\n        /* \"@openzeppelin/contracts/access/Ownable.sol\":1094:1107  _checkOwner() */\n      tag_125\n        /* \"@openzeppelin/contracts/access/Ownable.sol\":1094:1105  _checkOwner */\n      tag_63\n        /* \"@openzeppelin/contracts/access/Ownable.sol\":1094:1107  _checkOwner() */\n      jump\t// in\n    tag_125:\n        /* \"Airdrop.sol\":666:671  _arry */\n      dup3\n      dup3\n        /* \"Airdrop.sol\":654:663  WhiteList */\n      0x01\n        /* \"Airdrop.sol\":654:671  WhiteList = _arry */\n      swap2\n      swap1\n      tag_127\n      swap3\n      swap2\n      swap1\n      tag_128\n      jump\t// in\n    tag_127:\n      pop\n        /* \"Airdrop.sol\":689:693  true */\n      0x01\n        /* \"Airdrop.sol\":682:693  return true */\n      swap1\n      pop\n        /* \"Airdrop.sol\":567:701  function Addlist(address[] calldata _arry) external onlyOwner returns (bool){\r... */\n      swap3\n      swap2\n      pop\n      pop\n      jump\t// out\n        /* \"@openzeppelin/contracts/access/Ownable.sol\":1201:1286  function owner() public view virtual returns (address) {... */\n    tag_40:\n        /* \"@openzeppelin/contracts/access/Ownable.sol\":1247:1254  address */\n      0x00\n        /* \"@openzeppelin/contracts/access/Ownable.sol\":1273:1279  _owner */\n      dup1\n      0x00\n      swap1\n      sload\n      swap1\n      0x0100\n      exp\n      swap1\n      div\n      0xffffffffffffffffffffffffffffffffffffffff\n      and\n        /* \"@openzeppelin/contracts/access/Ownable.sol\":1266:1279  return _owner */\n      swap1\n      pop\n        /* \"@openzeppelin/contracts/access/Ownable.sol\":1201:1286  function owner() public view virtual returns (address) {... */\n      swap1\n      jump\t// out\n        /* \"Airdrop.sol\":303:559  function AllowClaim(address from) external view returns (bool){\r... */\n    tag_46:\n        /* \"Airdrop.sol\":360:364  bool */\n      0x00\n        /* \"Airdrop.sol\":376:395  address[] memory ab */\n      dup1\n        /* \"Airdrop.sol\":398:407  WhiteList */\n      0x01\n        /* \"Airdrop.sol\":376:407  address[] memory ab = WhiteList */\n      dup1\n      sload\n      dup1\n      0x20\n      mul\n      0x20\n      add\n      mload(0x40)\n      swap1\n      dup2\n      add\n      0x40\n      mstore\n      dup1\n      swap3\n      swap2\n      swap1\n      dup2\n      dup2\n      mstore\n      0x20\n      add\n      dup3\n      dup1\n      sload\n      dup1\n      iszero\n      tag_131\n      jumpi\n      0x20\n      mul\n      dup3\n      add\n      swap2\n      swap1\n      0x00\n      mstore\n      keccak256(0x00, 0x20)\n      swap1\n    tag_132:\n      dup2\n      0x00\n      swap1\n      sload\n      swap1\n      0x0100\n      exp\n      swap1\n      div\n      0xffffffffffffffffffffffffffffffffffffffff\n      and\n      0xffffffffffffffffffffffffffffffffffffffff\n      and\n      dup2\n      mstore\n      0x20\n      add\n      swap1\n      0x01\n      add\n      swap1\n      dup1\n      dup4\n      gt\n      tag_132\n      jumpi\n    tag_131:\n      pop\n      pop\n      pop\n      pop\n      pop\n      swap1\n      pop\n        /* \"Airdrop.sol\":423:429  uint i */\n      0x00\n        /* \"Airdrop.sol\":418:525  for (uint i=0;i<ab.length;i++)\r... */\n    tag_133:\n        /* \"Airdrop.sol\":434:436  ab */\n      dup2\n        /* \"Airdrop.sol\":434:443  ab.length */\n      mload\n        /* \"Airdrop.sol\":432:433  i */\n      dup2\n        /* \"Airdrop.sol\":432:443  i<ab.length */\n      lt\n        /* \"Airdrop.sol\":418:525  for (uint i=0;i<ab.length;i++)\r... */\n      iszero\n      tag_134\n      jumpi\n        /* \"Airdrop.sol\":474:478  from */\n      dup4\n        /* \"Airdrop.sol\":465:478  ab[i] == from */\n      0xffffffffffffffffffffffffffffffffffffffff\n      and\n        /* \"Airdrop.sol\":465:467  ab */\n      dup3\n        /* \"Airdrop.sol\":468:469  i */\n      dup3\n        /* \"Airdrop.sol\":465:470  ab[i] */\n      dup2\n      mload\n      dup2\n      lt\n      tag_136\n      jumpi\n      tag_137\n      tag_84\n      jump\t// in\n    tag_137:\n    tag_136:\n      0x20\n      mul\n      0x20\n      add\n      add\n      mload\n        /* \"Airdrop.sol\":465:478  ab[i] == from */\n      0xffffffffffffffffffffffffffffffffffffffff\n      and\n      eq\n        /* \"Airdrop.sol\":462:525  if(ab[i] == from){\r... */\n      iszero\n      tag_138\n      jumpi\n        /* \"Airdrop.sol\":505:509  true */\n      0x01\n        /* \"Airdrop.sol\":498:509  return true */\n      swap3\n      pop\n      pop\n      pop\n      jump(tag_130)\n        /* \"Airdrop.sol\":462:525  if(ab[i] == from){\r... */\n    tag_138:\n        /* \"Airdrop.sol\":444:447  i++ */\n      dup1\n      dup1\n      tag_139\n      swap1\n      tag_123\n      jump\t// in\n    tag_139:\n      swap2\n      pop\n      pop\n        /* \"Airdrop.sol\":418:525  for (uint i=0;i<ab.length;i++)\r... */\n      jump(tag_133)\n    tag_134:\n      pop\n        /* \"Airdrop.sol\":542:547  false */\n      0x00\n        /* \"Airdrop.sol\":535:547  return false */\n      swap2\n      pop\n      pop\n        /* \"Airdrop.sol\":303:559  function AllowClaim(address from) external view returns (bool){\r... */\n    tag_130:\n      swap2\n      swap1\n      pop\n      jump\t// out\n        /* \"Airdrop.sol\":736:901  function getSum(uint256[] calldata _arr) public pure returns(uint sum)\r... */\n    tag_52:\n        /* \"Airdrop.sol\":797:805  uint sum */\n      0x00\n        /* \"Airdrop.sol\":827:833  uint i */\n      dup1\n        /* \"Airdrop.sol\":836:837  0 */\n      0x00\n        /* \"Airdrop.sol\":827:837  uint i = 0 */\n      swap1\n      pop\n        /* \"Airdrop.sol\":823:893  for(uint i = 0; i < _arr.length; i++)\r... */\n    tag_141:\n        /* \"Airdrop.sol\":843:847  _arr */\n      dup4\n      dup4\n        /* \"Airdrop.sol\":843:854  _arr.length */\n      swap1\n      pop\n        /* \"Airdrop.sol\":839:840  i */\n      dup2\n        /* \"Airdrop.sol\":839:854  i < _arr.length */\n      lt\n        /* \"Airdrop.sol\":823:893  for(uint i = 0; i < _arr.length; i++)\r... */\n      iszero\n      tag_142\n      jumpi\n        /* \"Airdrop.sol\":886:890  _arr */\n      dup4\n      dup4\n        /* \"Airdrop.sol\":891:892  i */\n      dup3\n        /* \"Airdrop.sol\":886:893  _arr[i] */\n      dup2\n      dup2\n      lt\n      tag_144\n      jumpi\n      tag_145\n      tag_84\n      jump\t// in\n    tag_145:\n    tag_144:\n      swap1\n      pop\n      0x20\n      mul\n      add\n      calldataload\n        /* \"Airdrop.sol\":880:883  sum */\n      dup3\n        /* \"Airdrop.sol\":880:893  sum + _arr[i] */\n      tag_146\n      swap2\n      swap1\n      tag_147\n      jump\t// in\n    tag_146:\n        /* \"Airdrop.sol\":874:893  sum = sum + _arr[i] */\n      swap2\n      pop\n        /* \"Airdrop.sol\":856:859  i++ */\n      dup1\n      dup1\n      tag_148\n      swap1\n      tag_123\n      jump\t// in\n    tag_148:\n      swap2\n      pop\n      pop\n        /* \"Airdrop.sol\":823:893  for(uint i = 0; i < _arr.length; i++)\r... */\n      jump(tag_141)\n    tag_142:\n      pop\n        /* \"Airdrop.sol\":736:901  function getSum(uint256[] calldata _arr) public pure returns(uint sum)\r... */\n      swap3\n      swap2\n      pop\n      pop\n      jump\t// out\n        /* \"@openzeppelin/contracts/access/Ownable.sol\":2081:2279  function transferOwnership(address newOwner) public virtual onlyOwner {... */\n    tag_58:\n        /* \"@openzeppelin/contracts/access/Ownable.sol\":1094:1107  _checkOwner() */\n      tag_150\n        /* \"@openzeppelin/contracts/access/Ownable.sol\":1094:1105  _checkOwner */\n      tag_63\n        /* \"@openzeppelin/contracts/access/Ownable.sol\":1094:1107  _checkOwner() */\n      jump\t// in\n    tag_150:\n        /* \"@openzeppelin/contracts/access/Ownable.sol\":2189:2190  0 */\n      0x00\n        /* \"@openzeppelin/contracts/access/Ownable.sol\":2169:2191  newOwner != address(0) */\n      0xffffffffffffffffffffffffffffffffffffffff\n      and\n        /* \"@openzeppelin/contracts/access/Ownable.sol\":2169:2177  newOwner */\n      dup2\n        /* \"@openzeppelin/contracts/access/Ownable.sol\":2169:2191  newOwner != address(0) */\n      0xffffffffffffffffffffffffffffffffffffffff\n      and\n      eq\n      iszero\n        /* \"@openzeppelin/contracts/access/Ownable.sol\":2161:2234  require(newOwner != address(0), \"Ownable: new owner is the zero address\") */\n      tag_152\n      jumpi\n      mload(0x40)\n      0x08c379a000000000000000000000000000000000000000000000000000000000\n      dup2\n      mstore\n      0x04\n      add\n      tag_153\n      swap1\n      tag_154\n      jump\t// in\n    tag_153:\n      mload(0x40)\n      dup1\n      swap2\n      sub\n      swap1\n      revert\n    tag_152:\n        /* \"@openzeppelin/contracts/access/Ownable.sol\":2244:2272  _transferOwnership(newOwner) */\n      tag_155\n        /* \"@openzeppelin/contracts/access/Ownable.sol\":2263:2271  newOwner */\n      dup2\n        /* \"@openzeppelin/contracts/access/Ownable.sol\":2244:2262  _transferOwnership */\n      tag_101\n        /* \"@openzeppelin/contracts/access/Ownable.sol\":2244:2272  _transferOwnership(newOwner) */\n      jump\t// in\n    tag_155:\n        /* \"@openzeppelin/contracts/access/Ownable.sol\":2081:2279  function transferOwnership(address newOwner) public virtual onlyOwner {... */\n      pop\n      jump\t// out\n        /* \"@openzeppelin/contracts/access/Ownable.sol\":1359:1489  function _checkOwner() internal view virtual {... */\n    tag_63:\n        /* \"@openzeppelin/contracts/access/Ownable.sol\":1433:1445  _msgSender() */\n      tag_157\n        /* \"@openzeppelin/contracts/access/Ownable.sol\":1433:1443  _msgSender */\n      tag_158\n        /* \"@openzeppelin/contracts/access/Ownable.sol\":1433:1445  _msgSender() */\n      jump\t// in\n    tag_157:\n        /* \"@openzeppelin/contracts/access/Ownable.sol\":1422:1445  owner() == _msgSender() */\n      0xffffffffffffffffffffffffffffffffffffffff\n      and\n        /* \"@openzeppelin/contracts/access/Ownable.sol\":1422:1429  owner() */\n      tag_159\n        /* \"@openzeppelin/contracts/access/Ownable.sol\":1422:1427  owner */\n      tag_40\n        /* \"@openzeppelin/contracts/access/Ownable.sol\":1422:1429  owner() */\n      jump\t// in\n    tag_159:\n        /* \"@openzeppelin/contracts/access/Ownable.sol\":1422:1445  owner() == _msgSender() */\n      0xffffffffffffffffffffffffffffffffffffffff\n      and\n      eq\n        /* \"@openzeppelin/contracts/access/Ownable.sol\":1414:1482  require(owner() == _msgSender(), \"Ownable: caller is not the owner\") */\n      tag_160\n      jumpi\n      mload(0x40)\n      0x08c379a000000000000000000000000000000000000000000000000000000000\n      dup2\n      mstore\n      0x04\n      add\n      tag_161\n      swap1\n      tag_162\n      jump\t// in\n    tag_161:\n      mload(0x40)\n      dup1\n      swap2\n      sub\n      swap1\n      revert\n    tag_160:\n        /* \"@openzeppelin/contracts/access/Ownable.sol\":1359:1489  function _checkOwner() internal view virtual {... */\n      jump\t// out\n        /* \"@openzeppelin/contracts/access/Ownable.sol\":2433:2620  function _transferOwnership(address newOwner) internal virtual {... */\n    tag_101:\n        /* \"@openzeppelin/contracts/access/Ownable.sol\":2506:2522  address oldOwner */\n      0x00\n        /* \"@openzeppelin/contracts/access/Ownable.sol\":2525:2531  _owner */\n      dup1\n      0x00\n      swap1\n      sload\n      swap1\n      0x0100\n      exp\n      swap1\n      div\n      0xffffffffffffffffffffffffffffffffffffffff\n      and\n        /* \"@openzeppelin/contracts/access/Ownable.sol\":2506:2531  address oldOwner = _owner */\n      swap1\n      pop\n        /* \"@openzeppelin/contracts/access/Ownable.sol\":2550:2558  newOwner */\n      dup2\n        /* \"@openzeppelin/contracts/access/Ownable.sol\":2541:2547  _owner */\n      0x00\n      dup1\n        /* \"@openzeppelin/contracts/access/Ownable.sol\":2541:2558  _owner = newOwner */\n      0x0100\n      exp\n      dup2\n      sload\n      dup2\n      0xffffffffffffffffffffffffffffffffffffffff\n      mul\n      not\n      and\n      swap1\n      dup4\n      0xffffffffffffffffffffffffffffffffffffffff\n      and\n      mul\n      or\n      swap1\n      sstore\n      pop\n        /* \"@openzeppelin/contracts/access/Ownable.sol\":2604:2612  newOwner */\n      dup2\n        /* \"@openzeppelin/contracts/access/Ownable.sol\":2573:2613  OwnershipTransferred(oldOwner, newOwner) */\n      0xffffffffffffffffffffffffffffffffffffffff\n      and\n        /* \"@openzeppelin/contracts/access/Ownable.sol\":2594:2602  oldOwner */\n      dup2\n        /* \"@openzeppelin/contracts/access/Ownable.sol\":2573:2613  OwnershipTransferred(oldOwner, newOwner) */\n      0xffffffffffffffffffffffffffffffffffffffff\n      and\n      0x8be0079c531659141344cd1fd0a4f28419497f9722a3daafe3b4186f6b6457e0\n      mload(0x40)\n      mload(0x40)\n      dup1\n      swap2\n      sub\n      swap1\n      log3\n        /* \"@openzeppelin/contracts/access/Ownable.sol\":2496:2620  {... */\n      pop\n        /* \"@openzeppelin/contracts/access/Ownable.sol\":2433:2620  function _transferOwnership(address newOwner) internal virtual {... */\n      pop\n      jump\t// out\n        /* \"@openzeppelin/contracts/utils/Context.sol\":640:736  function _msgSender() internal view virtual returns (address) {... */\n    tag_158:\n        /* \"@openzeppelin/contracts/utils/Context.sol\":693:700  address */\n      0x00\n        /* \"@openzeppelin/contracts/utils/Context.sol\":719:729  msg.sender */\n      caller\n        /* \"@openzeppelin/contracts/utils/Context.sol\":712:729  return msg.sender */\n      swap1\n      pop\n        /* \"@openzeppelin/contracts/utils/Context.sol\":640:736  function _msgSender() internal view virtual returns (address) {... */\n      swap1\n      jump\t// out\n    tag_128:\n      dup3\n      dup1\n      sload\n      dup3\n      dup3\n      sstore\n      swap1\n      0x00\n      mstore\n      keccak256(0x00, 0x20)\n      swap1\n      dup2\n      add\n      swap3\n      dup3\n      iszero\n      tag_165\n      jumpi\n      swap2\n      0x20\n      mul\n      dup3\n      add\n    tag_166:\n      dup3\n      dup2\n      gt\n      iszero\n      tag_167\n      jumpi\n      dup3\n      calldataload\n      0xffffffffffffffffffffffffffffffffffffffff\n      and\n      dup3\n      exp(0x0100, 0x00)\n      dup2\n      sload\n      dup2\n      0xffffffffffffffffffffffffffffffffffffffff\n      mul\n      not\n      and\n      swap1\n      dup4\n      0xffffffffffffffffffffffffffffffffffffffff\n      and\n      mul\n      or\n      swap1\n      sstore\n      pop\n      swap2\n      0x20\n      add\n      swap2\n      swap1\n      0x01\n      add\n      swap1\n      jump(tag_166)\n    tag_167:\n    tag_165:\n      pop\n      swap1\n      pop\n      tag_168\n      swap2\n      swap1\n      tag_169\n      jump\t// in\n    tag_168:\n      pop\n      swap1\n      jump\t// out\n    tag_169:\n    tag_170:\n      dup1\n      dup3\n      gt\n      iszero\n      tag_171\n      jumpi\n      0x00\n      dup2\n      0x00\n      swap1\n      sstore\n      pop\n      0x01\n      add\n      jump(tag_170)\n    tag_171:\n      pop\n      swap1\n      jump\t// out\n        /* \"#utility.yul\":7:146   */\n    tag_173:\n        /* \"#utility.yul\":53:58   */\n      0x00\n        /* \"#utility.yul\":91:97   */\n      dup2\n        /* \"#utility.yul\":78:98   */\n      calldataload\n        /* \"#utility.yul\":69:98   */\n      swap1\n      pop\n        /* \"#utility.yul\":107:140   */\n      tag_175\n        /* \"#utility.yul\":134:139   */\n      dup2\n        /* \"#utility.yul\":107:140   */\n      tag_176\n      jump\t// in\n    tag_175:\n        /* \"#utility.yul\":7:146   */\n      swap3\n      swap2\n      pop\n      pop\n      jump\t// out\n        /* \"#utility.yul\":152:307   */\n    tag_177:\n        /* \"#utility.yul\":206:211   */\n      0x00\n        /* \"#utility.yul\":244:250   */\n      dup2\n        /* \"#utility.yul\":231:251   */\n      calldataload\n        /* \"#utility.yul\":222:251   */\n      swap1\n      pop\n        /* \"#utility.yul\":260:301   */\n      tag_179\n        /* \"#utility.yul\":295:300   */\n      dup2\n        /* \"#utility.yul\":260:301   */\n      tag_180\n      jump\t// in\n    tag_179:\n        /* \"#utility.yul\":152:307   */\n      swap3\n      swap2\n      pop\n      pop\n      jump\t// out\n        /* \"#utility.yul\":330:898   */\n    tag_181:\n        /* \"#utility.yul\":403:411   */\n      0x00\n        /* \"#utility.yul\":413:419   */\n      dup1\n        /* \"#utility.yul\":463:466   */\n      dup4\n        /* \"#utility.yul\":456:460   */\n      0x1f\n        /* \"#utility.yul\":448:454   */\n      dup5\n        /* \"#utility.yul\":444:461   */\n      add\n        /* \"#utility.yul\":440:467   */\n      slt\n        /* \"#utility.yul\":430:552   */\n      tag_183\n      jumpi\n        /* \"#utility.yul\":471:550   */\n      tag_184\n      tag_185\n      jump\t// in\n    tag_184:\n        /* \"#utility.yul\":430:552   */\n    tag_183:\n        /* \"#utility.yul\":584:590   */\n      dup3\n        /* \"#utility.yul\":571:591   */\n      calldataload\n        /* \"#utility.yul\":561:591   */\n      swap1\n      pop\n        /* \"#utility.yul\":614:632   */\n      0xffffffffffffffff\n        /* \"#utility.yul\":606:612   */\n      dup2\n        /* \"#utility.yul\":603:633   */\n      gt\n        /* \"#utility.yul\":600:717   */\n      iszero\n      tag_186\n      jumpi\n        /* \"#utility.yul\":636:715   */\n      tag_187\n      tag_188\n      jump\t// in\n    tag_187:\n        /* \"#utility.yul\":600:717   */\n    tag_186:\n        /* \"#utility.yul\":750:754   */\n      0x20\n        /* \"#utility.yul\":742:748   */\n      dup4\n        /* \"#utility.yul\":738:755   */\n      add\n        /* \"#utility.yul\":726:755   */\n      swap2\n      pop\n        /* \"#utility.yul\":804:807   */\n      dup4\n        /* \"#utility.yul\":796:800   */\n      0x20\n        /* \"#utility.yul\":788:794   */\n      dup3\n        /* \"#utility.yul\":784:801   */\n      mul\n        /* \"#utility.yul\":774:782   */\n      dup4\n        /* \"#utility.yul\":770:802   */\n      add\n        /* \"#utility.yul\":767:808   */\n      gt\n        /* \"#utility.yul\":764:892   */\n      iszero\n      tag_189\n      jumpi\n        /* \"#utility.yul\":811:890   */\n      tag_190\n      tag_191\n      jump\t// in\n    tag_190:\n        /* \"#utility.yul\":764:892   */\n    tag_189:\n        /* \"#utility.yul\":330:898   */\n      swap3\n      pop\n      swap3\n      swap1\n      pop\n      jump\t// out\n        /* \"#utility.yul\":929:1505   */\n    tag_192:\n        /* \"#utility.yul\":1010:1018   */\n      0x00\n        /* \"#utility.yul\":1020:1026   */\n      dup1\n        /* \"#utility.yul\":1070:1073   */\n      dup4\n        /* \"#utility.yul\":1063:1067   */\n      0x1f\n        /* \"#utility.yul\":1055:1061   */\n      dup5\n        /* \"#utility.yul\":1051:1068   */\n      add\n        /* \"#utility.yul\":1047:1074   */\n      slt\n        /* \"#utility.yul\":1037:1159   */\n      tag_194\n      jumpi\n        /* \"#utility.yul\":1078:1157   */\n      tag_195\n      tag_185\n      jump\t// in\n    tag_195:\n        /* \"#utility.yul\":1037:1159   */\n    tag_194:\n        /* \"#utility.yul\":1191:1197   */\n      dup3\n        /* \"#utility.yul\":1178:1198   */\n      calldataload\n        /* \"#utility.yul\":1168:1198   */\n      swap1\n      pop\n        /* \"#utility.yul\":1221:1239   */\n      0xffffffffffffffff\n        /* \"#utility.yul\":1213:1219   */\n      dup2\n        /* \"#utility.yul\":1210:1240   */\n      gt\n        /* \"#utility.yul\":1207:1324   */\n      iszero\n      tag_196\n      jumpi\n        /* \"#utility.yul\":1243:1322   */\n      tag_197\n      tag_188\n      jump\t// in\n    tag_197:\n        /* \"#utility.yul\":1207:1324   */\n    tag_196:\n        /* \"#utility.yul\":1357:1361   */\n      0x20\n        /* \"#utility.yul\":1349:1355   */\n      dup4\n        /* \"#utility.yul\":1345:1362   */\n      add\n        /* \"#utility.yul\":1333:1362   */\n      swap2\n      pop\n        /* \"#utility.yul\":1411:1414   */\n      dup4\n        /* \"#utility.yul\":1403:1407   */\n      0x20\n        /* \"#utility.yul\":1395:1401   */\n      dup3\n        /* \"#utility.yul\":1391:1408   */\n      mul\n        /* \"#utility.yul\":1381:1389   */\n      dup4\n        /* \"#utility.yul\":1377:1409   */\n      add\n        /* \"#utility.yul\":1374:1415   */\n      gt\n        /* \"#utility.yul\":1371:1499   */\n      iszero\n      tag_198\n      jumpi\n        /* \"#utility.yul\":1418:1497   */\n      tag_199\n      tag_191\n      jump\t// in\n    tag_199:\n        /* \"#utility.yul\":1371:1499   */\n    tag_198:\n        /* \"#utility.yul\":929:1505   */\n      swap3\n      pop\n      swap3\n      swap1\n      pop\n      jump\t// out\n        /* \"#utility.yul\":1528:2096   */\n    tag_200:\n        /* \"#utility.yul\":1601:1609   */\n      0x00\n        /* \"#utility.yul\":1611:1617   */\n      dup1\n        /* \"#utility.yul\":1661:1664   */\n      dup4\n        /* \"#utility.yul\":1654:1658   */\n      0x1f\n        /* \"#utility.yul\":1646:1652   */\n      dup5\n        /* \"#utility.yul\":1642:1659   */\n      add\n        /* \"#utility.yul\":1638:1665   */\n      slt\n        /* \"#utility.yul\":1628:1750   */\n      tag_202\n      jumpi\n        /* \"#utility.yul\":1669:1748   */\n      tag_203\n      tag_185\n      jump\t// in\n    tag_203:\n        /* \"#utility.yul\":1628:1750   */\n    tag_202:\n        /* \"#utility.yul\":1782:1788   */\n      dup3\n        /* \"#utility.yul\":1769:1789   */\n      calldataload\n        /* \"#utility.yul\":1759:1789   */\n      swap1\n      pop\n        /* \"#utility.yul\":1812:1830   */\n      0xffffffffffffffff\n        /* \"#utility.yul\":1804:1810   */\n      dup2\n        /* \"#utility.yul\":1801:1831   */\n      gt\n        /* \"#utility.yul\":1798:1915   */\n      iszero\n      tag_204\n      jumpi\n        /* \"#utility.yul\":1834:1913   */\n      tag_205\n      tag_188\n      jump\t// in\n    tag_205:\n        /* \"#utility.yul\":1798:1915   */\n    tag_204:\n        /* \"#utility.yul\":1948:1952   */\n      0x20\n        /* \"#utility.yul\":1940:1946   */\n      dup4\n        /* \"#utility.yul\":1936:1953   */\n      add\n        /* \"#utility.yul\":1924:1953   */\n      swap2\n      pop\n        /* \"#utility.yul\":2002:2005   */\n      dup4\n        /* \"#utility.yul\":1994:1998   */\n      0x20\n        /* \"#utility.yul\":1986:1992   */\n      dup3\n        /* \"#utility.yul\":1982:1999   */\n      mul\n        /* \"#utility.yul\":1972:1980   */\n      dup4\n        /* \"#utility.yul\":1968:2000   */\n      add\n        /* \"#utility.yul\":1965:2006   */\n      gt\n        /* \"#utility.yul\":1962:2090   */\n      iszero\n      tag_206\n      jumpi\n        /* \"#utility.yul\":2009:2088   */\n      tag_207\n      tag_191\n      jump\t// in\n    tag_207:\n        /* \"#utility.yul\":1962:2090   */\n    tag_206:\n        /* \"#utility.yul\":1528:2096   */\n      swap3\n      pop\n      swap3\n      swap1\n      pop\n      jump\t// out\n        /* \"#utility.yul\":2102:2239   */\n    tag_208:\n        /* \"#utility.yul\":2156:2161   */\n      0x00\n        /* \"#utility.yul\":2187:2193   */\n      dup2\n        /* \"#utility.yul\":2181:2194   */\n      mload\n        /* \"#utility.yul\":2172:2194   */\n      swap1\n      pop\n        /* \"#utility.yul\":2203:2233   */\n      tag_210\n        /* \"#utility.yul\":2227:2232   */\n      dup2\n        /* \"#utility.yul\":2203:2233   */\n      tag_211\n      jump\t// in\n    tag_210:\n        /* \"#utility.yul\":2102:2239   */\n      swap3\n      swap2\n      pop\n      pop\n      jump\t// out\n        /* \"#utility.yul\":2245:2384   */\n    tag_212:\n        /* \"#utility.yul\":2291:2296   */\n      0x00\n        /* \"#utility.yul\":2329:2335   */\n      dup2\n        /* \"#utility.yul\":2316:2336   */\n      calldataload\n        /* \"#utility.yul\":2307:2336   */\n      swap1\n      pop\n        /* \"#utility.yul\":2345:2378   */\n      tag_214\n        /* \"#utility.yul\":2372:2377   */\n      dup2\n        /* \"#utility.yul\":2345:2378   */\n      tag_215\n      jump\t// in\n    tag_214:\n        /* \"#utility.yul\":2245:2384   */\n      swap3\n      swap2\n      pop\n      pop\n      jump\t// out\n        /* \"#utility.yul\":2390:2533   */\n    tag_216:\n        /* \"#utility.yul\":2447:2452   */\n      0x00\n        /* \"#utility.yul\":2478:2484   */\n      dup2\n        /* \"#utility.yul\":2472:2485   */\n      mload\n        /* \"#utility.yul\":2463:2485   */\n      swap1\n      pop\n        /* \"#utility.yul\":2494:2527   */\n      tag_218\n        /* \"#utility.yul\":2521:2526   */\n      dup2\n        /* \"#utility.yul\":2494:2527   */\n      tag_215\n      jump\t// in\n    tag_218:\n        /* \"#utility.yul\":2390:2533   */\n      swap3\n      swap2\n      pop\n      pop\n      jump\t// out\n        /* \"#utility.yul\":2539:2868   */\n    tag_45:\n        /* \"#utility.yul\":2598:2604   */\n      0x00\n        /* \"#utility.yul\":2647:2649   */\n      0x20\n        /* \"#utility.yul\":2635:2644   */\n      dup3\n        /* \"#utility.yul\":2626:2633   */\n      dup5\n        /* \"#utility.yul\":2622:2645   */\n      sub\n        /* \"#utility.yul\":2618:2650   */\n      slt\n        /* \"#utility.yul\":2615:2734   */\n      iszero\n      tag_220\n      jumpi\n        /* \"#utility.yul\":2653:2732   */\n      tag_221\n      tag_222\n      jump\t// in\n    tag_221:\n        /* \"#utility.yul\":2615:2734   */\n    tag_220:\n        /* \"#utility.yul\":2773:2774   */\n      0x00\n        /* \"#utility.yul\":2798:2851   */\n      tag_223\n        /* \"#utility.yul\":2843:2850   */\n      dup5\n        /* \"#utility.yul\":2834:2840   */\n      dup3\n        /* \"#utility.yul\":2823:2832   */\n      dup6\n        /* \"#utility.yul\":2819:2841   */\n      add\n        /* \"#utility.yul\":2798:2851   */\n      tag_173\n      jump\t// in\n    tag_223:\n        /* \"#utility.yul\":2788:2851   */\n      swap2\n      pop\n        /* \"#utility.yul\":2744:2861   */\n      pop\n        /* \"#utility.yul\":2539:2868   */\n      swap3\n      swap2\n      pop\n      pop\n      jump\t// out\n        /* \"#utility.yul\":2874:3219   */\n    tag_117:\n        /* \"#utility.yul\":2941:2947   */\n      0x00\n        /* \"#utility.yul\":2990:2992   */\n      0x20\n        /* \"#utility.yul\":2978:2987   */\n      dup3\n        /* \"#utility.yul\":2969:2976   */\n      dup5\n        /* \"#utility.yul\":2965:2988   */\n      sub\n        /* \"#utility.yul\":2961:2993   */\n      slt\n        /* \"#utility.yul\":2958:3077   */\n      iszero\n      tag_225\n      jumpi\n        /* \"#utility.yul\":2996:3075   */\n      tag_226\n      tag_222\n      jump\t// in\n    tag_226:\n        /* \"#utility.yul\":2958:3077   */\n    tag_225:\n        /* \"#utility.yul\":3116:3117   */\n      0x00\n        /* \"#utility.yul\":3141:3202   */\n      tag_227\n        /* \"#utility.yul\":3194:3201   */\n      dup5\n        /* \"#utility.yul\":3185:3191   */\n      dup3\n        /* \"#utility.yul\":3174:3183   */\n      dup6\n        /* \"#utility.yul\":3170:3192   */\n      add\n        /* \"#utility.yul\":3141:3202   */\n      tag_177\n      jump\t// in\n    tag_227:\n        /* \"#utility.yul\":3131:3202   */\n      swap2\n      pop\n        /* \"#utility.yul\":3087:3212   */\n      pop\n        /* \"#utility.yul\":2874:3219   */\n      swap3\n      swap2\n      pop\n      pop\n      jump\t// out\n        /* \"#utility.yul\":3225:4304   */\n    tag_22:\n        /* \"#utility.yul\":3356:3362   */\n      0x00\n        /* \"#utility.yul\":3364:3370   */\n      dup1\n        /* \"#utility.yul\":3372:3378   */\n      0x00\n        /* \"#utility.yul\":3380:3386   */\n      dup1\n        /* \"#utility.yul\":3388:3394   */\n      0x00\n        /* \"#utility.yul\":3437:3439   */\n      0x60\n        /* \"#utility.yul\":3425:3434   */\n      dup7\n        /* \"#utility.yul\":3416:3423   */\n      dup9\n        /* \"#utility.yul\":3412:3435   */\n      sub\n        /* \"#utility.yul\":3408:3440   */\n      slt\n        /* \"#utility.yul\":3405:3524   */\n      iszero\n      tag_229\n      jumpi\n        /* \"#utility.yul\":3443:3522   */\n      tag_230\n      tag_222\n      jump\t// in\n    tag_230:\n        /* \"#utility.yul\":3405:3524   */\n    tag_229:\n        /* \"#utility.yul\":3563:3564   */\n      0x00\n        /* \"#utility.yul\":3588:3641   */\n      tag_231\n        /* \"#utility.yul\":3633:3640   */\n      dup9\n        /* \"#utility.yul\":3624:3630   */\n      dup3\n        /* \"#utility.yul\":3613:3622   */\n      dup10\n        /* \"#utility.yul\":3609:3631   */\n      add\n        /* \"#utility.yul\":3588:3641   */\n      tag_173\n      jump\t// in\n    tag_231:\n        /* \"#utility.yul\":3578:3641   */\n      swap6\n      pop\n        /* \"#utility.yul\":3534:3651   */\n      pop\n        /* \"#utility.yul\":3718:3720   */\n      0x20\n        /* \"#utility.yul\":3707:3716   */\n      dup7\n        /* \"#utility.yul\":3703:3721   */\n      add\n        /* \"#utility.yul\":3690:3722   */\n      calldataload\n        /* \"#utility.yul\":3749:3767   */\n      0xffffffffffffffff\n        /* \"#utility.yul\":3741:3747   */\n      dup2\n        /* \"#utility.yul\":3738:3768   */\n      gt\n        /* \"#utility.yul\":3735:3852   */\n      iszero\n      tag_232\n      jumpi\n        /* \"#utility.yul\":3771:3850   */\n      tag_233\n      tag_234\n      jump\t// in\n    tag_233:\n        /* \"#utility.yul\":3735:3852   */\n    tag_232:\n        /* \"#utility.yul\":3884:3964   */\n      tag_235\n        /* \"#utility.yul\":3956:3963   */\n      dup9\n        /* \"#utility.yul\":3947:3953   */\n      dup3\n        /* \"#utility.yul\":3936:3945   */\n      dup10\n        /* \"#utility.yul\":3932:3954   */\n      add\n        /* \"#utility.yul\":3884:3964   */\n      tag_181\n      jump\t// in\n    tag_235:\n        /* \"#utility.yul\":3866:3964   */\n      swap5\n      pop\n      swap5\n      pop\n        /* \"#utility.yul\":3661:3974   */\n      pop\n        /* \"#utility.yul\":4041:4043   */\n      0x40\n        /* \"#utility.yul\":4030:4039   */\n      dup7\n        /* \"#utility.yul\":4026:4044   */\n      add\n        /* \"#utility.yul\":4013:4045   */\n      calldataload\n        /* \"#utility.yul\":4072:4090   */\n      0xffffffffffffffff\n        /* \"#utility.yul\":4064:4070   */\n      dup2\n        /* \"#utility.yul\":4061:4091   */\n      gt\n        /* \"#utility.yul\":4058:4175   */\n      iszero\n      tag_236\n      jumpi\n        /* \"#utility.yul\":4094:4173   */\n      tag_237\n      tag_234\n      jump\t// in\n    tag_237:\n        /* \"#utility.yul\":4058:4175   */\n    tag_236:\n        /* \"#utility.yul\":4207:4287   */\n      tag_238\n        /* \"#utility.yul\":4279:4286   */\n      dup9\n        /* \"#utility.yul\":4270:4276   */\n      dup3\n        /* \"#utility.yul\":4259:4268   */\n      dup10\n        /* \"#utility.yul\":4255:4277   */\n      add\n        /* \"#utility.yul\":4207:4287   */\n      tag_200\n      jump\t// in\n    tag_238:\n        /* \"#utility.yul\":4189:4287   */\n      swap3\n      pop\n      swap3\n      pop\n        /* \"#utility.yul\":3984:4297   */\n      pop\n        /* \"#utility.yul\":3225:4304   */\n      swap3\n      swap6\n      pop\n      swap3\n      swap6\n      swap1\n      swap4\n      pop\n      jump\t// out\n        /* \"#utility.yul\":4310:4869   */\n    tag_34:\n        /* \"#utility.yul\":4396:4402   */\n      0x00\n        /* \"#utility.yul\":4404:4410   */\n      dup1\n        /* \"#utility.yul\":4453:4455   */\n      0x20\n        /* \"#utility.yul\":4441:4450   */\n      dup4\n        /* \"#utility.yul\":4432:4439   */\n      dup6\n        /* \"#utility.yul\":4428:4451   */\n      sub\n        /* \"#utility.yul\":4424:4456   */\n      slt\n        /* \"#utility.yul\":4421:4540   */\n      iszero\n      tag_240\n      jumpi\n        /* \"#utility.yul\":4459:4538   */\n      tag_241\n      tag_222\n      jump\t// in\n    tag_241:\n        /* \"#utility.yul\":4421:4540   */\n    tag_240:\n        /* \"#utility.yul\":4607:4608   */\n      0x00\n        /* \"#utility.yul\":4596:4605   */\n      dup4\n        /* \"#utility.yul\":4592:4609   */\n      add\n        /* \"#utility.yul\":4579:4610   */\n      calldataload\n        /* \"#utility.yul\":4637:4655   */\n      0xffffffffffffffff\n        /* \"#utility.yul\":4629:4635   */\n      dup2\n        /* \"#utility.yul\":4626:4656   */\n      gt\n        /* \"#utility.yul\":4623:4740   */\n      iszero\n      tag_242\n      jumpi\n        /* \"#utility.yul\":4659:4738   */\n      tag_243\n      tag_234\n      jump\t// in\n    tag_243:\n        /* \"#utility.yul\":4623:4740   */\n    tag_242:\n        /* \"#utility.yul\":4772:4852   */\n      tag_244\n        /* \"#utility.yul\":4844:4851   */\n      dup6\n        /* \"#utility.yul\":4835:4841   */\n      dup3\n        /* \"#utility.yul\":4824:4833   */\n      dup7\n        /* \"#utility.yul\":4820:4842   */\n      add\n        /* \"#utility.yul\":4772:4852   */\n      tag_181\n      jump\t// in\n    tag_244:\n        /* \"#utility.yul\":4754:4852   */\n      swap3\n      pop\n      swap3\n      pop\n        /* \"#utility.yul\":4550:4862   */\n      pop\n        /* \"#utility.yul\":4310:4869   */\n      swap3\n      pop\n      swap3\n      swap1\n      pop\n      jump\t// out\n        /* \"#utility.yul\":4875:5825   */\n    tag_29:\n        /* \"#utility.yul\":5005:5011   */\n      0x00\n        /* \"#utility.yul\":5013:5019   */\n      dup1\n        /* \"#utility.yul\":5021:5027   */\n      0x00\n        /* \"#utility.yul\":5029:5035   */\n      dup1\n        /* \"#utility.yul\":5078:5080   */\n      0x40\n        /* \"#utility.yul\":5066:5075   */\n      dup6\n        /* \"#utility.yul\":5057:5064   */\n      dup8\n        /* \"#utility.yul\":5053:5076   */\n      sub\n        /* \"#utility.yul\":5049:5081   */\n      slt\n        /* \"#utility.yul\":5046:5165   */\n      iszero\n      tag_246\n      jumpi\n        /* \"#utility.yul\":5084:5163   */\n      tag_247\n      tag_222\n      jump\t// in\n    tag_247:\n        /* \"#utility.yul\":5046:5165   */\n    tag_246:\n        /* \"#utility.yul\":5232:5233   */\n      0x00\n        /* \"#utility.yul\":5221:5230   */\n      dup6\n        /* \"#utility.yul\":5217:5234   */\n      add\n        /* \"#utility.yul\":5204:5235   */\n      calldataload\n        /* \"#utility.yul\":5262:5280   */\n      0xffffffffffffffff\n        /* \"#utility.yul\":5254:5260   */\n      dup2\n        /* \"#utility.yul\":5251:5281   */\n      gt\n        /* \"#utility.yul\":5248:5365   */\n      iszero\n      tag_248\n      jumpi\n        /* \"#utility.yul\":5284:5363   */\n      tag_249\n      tag_234\n      jump\t// in\n    tag_249:\n        /* \"#utility.yul\":5248:5365   */\n    tag_248:\n        /* \"#utility.yul\":5397:5485   */\n      tag_250\n        /* \"#utility.yul\":5477:5484   */\n      dup8\n        /* \"#utility.yul\":5468:5474   */\n      dup3\n        /* \"#utility.yul\":5457:5466   */\n      dup9\n        /* \"#utility.yul\":5453:5475   */\n      add\n        /* \"#utility.yul\":5397:5485   */\n      tag_192\n      jump\t// in\n    tag_250:\n        /* \"#utility.yul\":5379:5485   */\n      swap5\n      pop\n      swap5\n      pop\n        /* \"#utility.yul\":5175:5495   */\n      pop\n        /* \"#utility.yul\":5562:5564   */\n      0x20\n        /* \"#utility.yul\":5551:5560   */\n      dup6\n        /* \"#utility.yul\":5547:5565   */\n      add\n        /* \"#utility.yul\":5534:5566   */\n      calldataload\n        /* \"#utility.yul\":5593:5611   */\n      0xffffffffffffffff\n        /* \"#utility.yul\":5585:5591   */\n      dup2\n        /* \"#utility.yul\":5582:5612   */\n      gt\n        /* \"#utility.yul\":5579:5696   */\n      iszero\n      tag_251\n      jumpi\n        /* \"#utility.yul\":5615:5694   */\n      tag_252\n      tag_234\n      jump\t// in\n    tag_252:\n        /* \"#utility.yul\":5579:5696   */\n    tag_251:\n        /* \"#utility.yul\":5728:5808   */\n      tag_253\n        /* \"#utility.yul\":5800:5807   */\n      dup8\n        /* \"#utility.yul\":5791:5797   */\n      dup3\n        /* \"#utility.yul\":5780:5789   */\n      dup9\n        /* \"#utility.yul\":5776:5798   */\n      add\n        /* \"#utility.yul\":5728:5808   */\n      tag_200\n      jump\t// in\n    tag_253:\n        /* \"#utility.yul\":5710:5808   */\n      swap3\n      pop\n      swap3\n      pop\n        /* \"#utility.yul\":5505:5818   */\n      pop\n        /* \"#utility.yul\":4875:5825   */\n      swap3\n      swap6\n      swap2\n      swap5\n      pop\n      swap3\n      pop\n      jump\t// out\n        /* \"#utility.yul\":5831:6390   */\n    tag_51:\n        /* \"#utility.yul\":5917:5923   */\n      0x00\n        /* \"#utility.yul\":5925:5931   */\n      dup1\n        /* \"#utility.yul\":5974:5976   */\n      0x20\n        /* \"#utility.yul\":5962:5971   */\n      dup4\n        /* \"#utility.yul\":5953:5960   */\n      dup6\n        /* \"#utility.yul\":5949:5972   */\n      sub\n        /* \"#utility.yul\":5945:5977   */\n      slt\n        /* \"#utility.yul\":5942:6061   */\n      iszero\n      tag_255\n      jumpi\n        /* \"#utility.yul\":5980:6059   */\n      tag_256\n      tag_222\n      jump\t// in\n    tag_256:\n        /* \"#utility.yul\":5942:6061   */\n    tag_255:\n        /* \"#utility.yul\":6128:6129   */\n      0x00\n        /* \"#utility.yul\":6117:6126   */\n      dup4\n        /* \"#utility.yul\":6113:6130   */\n      add\n        /* \"#utility.yul\":6100:6131   */\n      calldataload\n        /* \"#utility.yul\":6158:6176   */\n      0xffffffffffffffff\n        /* \"#utility.yul\":6150:6156   */\n      dup2\n        /* \"#utility.yul\":6147:6177   */\n      gt\n        /* \"#utility.yul\":6144:6261   */\n      iszero\n      tag_257\n      jumpi\n        /* \"#utility.yul\":6180:6259   */\n      tag_258\n      tag_234\n      jump\t// in\n    tag_258:\n        /* \"#utility.yul\":6144:6261   */\n    tag_257:\n        /* \"#utility.yul\":6293:6373   */\n      tag_259\n        /* \"#utility.yul\":6365:6372   */\n      dup6\n        /* \"#utility.yul\":6356:6362   */\n      dup3\n        /* \"#utility.yul\":6345:6354   */\n      dup7\n        /* \"#utility.yul\":6341:6363   */\n      add\n        /* \"#utility.yul\":6293:6373   */\n      tag_200\n      jump\t// in\n    tag_259:\n        /* \"#utility.yul\":6275:6373   */\n      swap3\n      pop\n      swap3\n      pop\n        /* \"#utility.yul\":6071:6383   */\n      pop\n        /* \"#utility.yul\":5831:6390   */\n      swap3\n      pop\n      swap3\n      swap1\n      pop\n      jump\t// out\n        /* \"#utility.yul\":6396:6741   */\n    tag_94:\n        /* \"#utility.yul\":6463:6469   */\n      0x00\n        /* \"#utility.yul\":6512:6514   */\n      0x20\n        /* \"#utility.yul\":6500:6509   */\n      dup3\n        /* \"#utility.yul\":6491:6498   */\n      dup5\n        /* \"#utility.yul\":6487:6510   */\n      sub\n        /* \"#utility.yul\":6483:6515   */\n      slt\n        /* \"#utility.yul\":6480:6599   */\n      iszero\n      tag_261\n      jumpi\n        /* \"#utility.yul\":6518:6597   */\n      tag_262\n      tag_222\n      jump\t// in\n    tag_262:\n        /* \"#utility.yul\":6480:6599   */\n    tag_261:\n        /* \"#utility.yul\":6638:6639   */\n      0x00\n        /* \"#utility.yul\":6663:6724   */\n      tag_263\n        /* \"#utility.yul\":6716:6723   */\n      dup5\n        /* \"#utility.yul\":6707:6713   */\n      dup3\n        /* \"#utility.yul\":6696:6705   */\n      dup6\n        /* \"#utility.yul\":6692:6714   */\n      add\n        /* \"#utility.yul\":6663:6724   */\n      tag_208\n      jump\t// in\n    tag_263:\n        /* \"#utility.yul\":6653:6724   */\n      swap2\n      pop\n        /* \"#utility.yul\":6609:6734   */\n      pop\n        /* \"#utility.yul\":6396:6741   */\n      swap3\n      swap2\n      pop\n      pop\n      jump\t// out\n        /* \"#utility.yul\":6747:7076   */\n    tag_15:\n        /* \"#utility.yul\":6806:6812   */\n      0x00\n        /* \"#utility.yul\":6855:6857   */\n      0x20\n        /* \"#utility.yul\":6843:6852   */\n      dup3\n        /* \"#utility.yul\":6834:6841   */\n      dup5\n        /* \"#utility.yul\":6830:6853   */\n      sub\n        /* \"#utility.yul\":6826:6858   */\n      slt\n        /* \"#utility.yul\":6823:6942   */\n      iszero\n      tag_265\n      jumpi\n        /* \"#utility.yul\":6861:6940   */\n      tag_266\n      tag_222\n      jump\t// in\n    tag_266:\n        /* \"#utility.yul\":6823:6942   */\n    tag_265:\n        /* \"#utility.yul\":6981:6982   */\n      0x00\n        /* \"#utility.yul\":7006:7059   */\n      tag_267\n        /* \"#utility.yul\":7051:7058   */\n      dup5\n        /* \"#utility.yul\":7042:7048   */\n      dup3\n        /* \"#utility.yul\":7031:7040   */\n      dup6\n        /* \"#utility.yul\":7027:7049   */\n      add\n        /* \"#utility.yul\":7006:7059   */\n      tag_212\n      jump\t// in\n    tag_267:\n        /* \"#utility.yul\":6996:7059   */\n      swap2\n      pop\n        /* \"#utility.yul\":6952:7069   */\n      pop\n        /* \"#utility.yul\":6747:7076   */\n      swap3\n      swap2\n      pop\n      pop\n      jump\t// out\n        /* \"#utility.yul\":7082:7433   */\n    tag_75:\n        /* \"#utility.yul\":7152:7158   */\n      0x00\n        /* \"#utility.yul\":7201:7203   */\n      0x20\n        /* \"#utility.yul\":7189:7198   */\n      dup3\n        /* \"#utility.yul\":7180:7187   */\n      dup5\n        /* \"#utility.yul\":7176:7199   */\n      sub\n        /* \"#utility.yul\":7172:7204   */\n      slt\n        /* \"#utility.yul\":7169:7288   */\n      iszero\n      tag_269\n      jumpi\n        /* \"#utility.yul\":7207:7286   */\n      tag_270\n      tag_222\n      jump\t// in\n    tag_270:\n        /* \"#utility.yul\":7169:7288   */\n    tag_269:\n        /* \"#utility.yul\":7327:7328   */\n      0x00\n        /* \"#utility.yul\":7352:7416   */\n      tag_271\n        /* \"#utility.yul\":7408:7415   */\n      dup5\n        /* \"#utility.yul\":7399:7405   */\n      dup3\n        /* \"#utility.yul\":7388:7397   */\n      dup6\n        /* \"#utility.yul\":7384:7406   */\n      add\n        /* \"#utility.yul\":7352:7416   */\n      tag_216\n      jump\t// in\n    tag_271:\n        /* \"#utility.yul\":7342:7416   */\n      swap2\n      pop\n        /* \"#utility.yul\":7298:7426   */\n      pop\n        /* \"#utility.yul\":7082:7433   */\n      swap3\n      swap2\n      pop\n      pop\n      jump\t// out\n        /* \"#utility.yul\":7439:7557   */\n    tag_272:\n        /* \"#utility.yul\":7526:7550   */\n      tag_274\n        /* \"#utility.yul\":7544:7549   */\n      dup2\n        /* \"#utility.yul\":7526:7550   */\n      tag_275\n      jump\t// in\n    tag_274:\n        /* \"#utility.yul\":7521:7524   */\n      dup3\n        /* \"#utility.yul\":7514:7551   */\n      mstore\n        /* \"#utility.yul\":7439:7557   */\n      pop\n      pop\n      jump\t// out\n        /* \"#utility.yul\":7563:7672   */\n    tag_276:\n        /* \"#utility.yul\":7644:7665   */\n      tag_278\n        /* \"#utility.yul\":7659:7664   */\n      dup2\n        /* \"#utility.yul\":7644:7665   */\n      tag_279\n      jump\t// in\n    tag_278:\n        /* \"#utility.yul\":7639:7642   */\n      dup3\n        /* \"#utility.yul\":7632:7666   */\n      mstore\n        /* \"#utility.yul\":7563:7672   */\n      pop\n      pop\n      jump\t// out\n        /* \"#utility.yul\":7678:8044   */\n    tag_280:\n        /* \"#utility.yul\":7820:7823   */\n      0x00\n        /* \"#utility.yul\":7841:7908   */\n      tag_282\n        /* \"#utility.yul\":7905:7907   */\n      0x15\n        /* \"#utility.yul\":7900:7903   */\n      dup4\n        /* \"#utility.yul\":7841:7908   */\n      tag_283\n      jump\t// in\n    tag_282:\n        /* \"#utility.yul\":7834:7908   */\n      swap2\n      pop\n        /* \"#utility.yul\":7917:8010   */\n      tag_284\n        /* \"#utility.yul\":8006:8009   */\n      dup3\n        /* \"#utility.yul\":7917:8010   */\n      tag_285\n      jump\t// in\n    tag_284:\n        /* \"#utility.yul\":8035:8037   */\n      0x20\n        /* \"#utility.yul\":8030:8033   */\n      dup3\n        /* \"#utility.yul\":8026:8038   */\n      add\n        /* \"#utility.yul\":8019:8038   */\n      swap1\n      pop\n        /* \"#utility.yul\":7678:8044   */\n      swap2\n      swap1\n      pop\n      jump\t// out\n        /* \"#utility.yul\":8050:8416   */\n    tag_286:\n        /* \"#utility.yul\":8192:8195   */\n      0x00\n        /* \"#utility.yul\":8213:8280   */\n      tag_288\n        /* \"#utility.yul\":8277:8279   */\n      0x26\n        /* \"#utility.yul\":8272:8275   */\n      dup4\n        /* \"#utility.yul\":8213:8280   */\n      tag_283\n      jump\t// in\n    tag_288:\n        /* \"#utility.yul\":8206:8280   */\n      swap2\n      pop\n        /* \"#utility.yul\":8289:8382   */\n      tag_289\n        /* \"#utility.yul\":8378:8381   */\n      dup3\n        /* \"#utility.yul\":8289:8382   */\n      tag_290\n      jump\t// in\n    tag_289:\n        /* \"#utility.yul\":8407:8409   */\n      0x40\n        /* \"#utility.yul\":8402:8405   */\n      dup3\n        /* \"#utility.yul\":8398:8410   */\n      add\n        /* \"#utility.yul\":8391:8410   */\n      swap1\n      pop\n        /* \"#utility.yul\":8050:8416   */\n      swap2\n      swap1\n      pop\n      jump\t// out\n        /* \"#utility.yul\":8422:8788   */\n    tag_291:\n        /* \"#utility.yul\":8564:8567   */\n      0x00\n        /* \"#utility.yul\":8585:8652   */\n      tag_293\n        /* \"#utility.yul\":8649:8651   */\n      0x20\n        /* \"#utility.yul\":8644:8647   */\n      dup4\n        /* \"#utility.yul\":8585:8652   */\n      tag_283\n      jump\t// in\n    tag_293:\n        /* \"#utility.yul\":8578:8652   */\n      swap2\n      pop\n        /* \"#utility.yul\":8661:8754   */\n      tag_294\n        /* \"#utility.yul\":8750:8753   */\n      dup3\n        /* \"#utility.yul\":8661:8754   */\n      tag_295\n      jump\t// in\n    tag_294:\n        /* \"#utility.yul\":8779:8781   */\n      0x20\n        /* \"#utility.yul\":8774:8777   */\n      dup3\n        /* \"#utility.yul\":8770:8782   */\n      add\n        /* \"#utility.yul\":8763:8782   */\n      swap1\n      pop\n        /* \"#utility.yul\":8422:8788   */\n      swap2\n      swap1\n      pop\n      jump\t// out\n        /* \"#utility.yul\":8794:9160   */\n    tag_296:\n        /* \"#utility.yul\":8936:8939   */\n      0x00\n        /* \"#utility.yul\":8957:9024   */\n      tag_298\n        /* \"#utility.yul\":9021:9023   */\n      0x18\n        /* \"#utility.yul\":9016:9019   */\n      dup4\n        /* \"#utility.yul\":8957:9024   */\n      tag_283\n      jump\t// in\n    tag_298:\n        /* \"#utility.yul\":8950:9024   */\n      swap2\n      pop\n        /* \"#utility.yul\":9033:9126   */\n      tag_299\n        /* \"#utility.yul\":9122:9125   */\n      dup3\n        /* \"#utility.yul\":9033:9126   */\n      tag_300\n      jump\t// in\n    tag_299:\n        /* \"#utility.yul\":9151:9153   */\n      0x20\n        /* \"#utility.yul\":9146:9149   */\n      dup3\n        /* \"#utility.yul\":9142:9154   */\n      add\n        /* \"#utility.yul\":9135:9154   */\n      swap1\n      pop\n        /* \"#utility.yul\":8794:9160   */\n      swap2\n      swap1\n      pop\n      jump\t// out\n        /* \"#utility.yul\":9166:9532   */\n    tag_301:\n        /* \"#utility.yul\":9308:9311   */\n      0x00\n        /* \"#utility.yul\":9329:9396   */\n      tag_303\n        /* \"#utility.yul\":9393:9395   */\n      0x2a\n        /* \"#utility.yul\":9388:9391   */\n      dup4\n        /* \"#utility.yul\":9329:9396   */\n      tag_283\n      jump\t// in\n    tag_303:\n        /* \"#utility.yul\":9322:9396   */\n      swap2\n      pop\n        /* \"#utility.yul\":9405:9498   */\n      tag_304\n        /* \"#utility.yul\":9494:9497   */\n      dup3\n        /* \"#utility.yul\":9405:9498   */\n      tag_305\n      jump\t// in\n    tag_304:\n        /* \"#utility.yul\":9523:9525   */\n      0x40\n        /* \"#utility.yul\":9518:9521   */\n      dup3\n        /* \"#utility.yul\":9514:9526   */\n      add\n        /* \"#utility.yul\":9507:9526   */\n      swap1\n      pop\n        /* \"#utility.yul\":9166:9532   */\n      swap2\n      swap1\n      pop\n      jump\t// out\n        /* \"#utility.yul\":9538:9656   */\n    tag_306:\n        /* \"#utility.yul\":9625:9649   */\n      tag_308\n        /* \"#utility.yul\":9643:9648   */\n      dup2\n        /* \"#utility.yul\":9625:9649   */\n      tag_309\n      jump\t// in\n    tag_308:\n        /* \"#utility.yul\":9620:9623   */\n      dup3\n        /* \"#utility.yul\":9613:9650   */\n      mstore\n        /* \"#utility.yul\":9538:9656   */\n      pop\n      pop\n      jump\t// out\n        /* \"#utility.yul\":9662:9884   */\n    tag_18:\n        /* \"#utility.yul\":9755:9759   */\n      0x00\n        /* \"#utility.yul\":9793:9795   */\n      0x20\n        /* \"#utility.yul\":9782:9791   */\n      dup3\n        /* \"#utility.yul\":9778:9796   */\n      add\n        /* \"#utility.yul\":9770:9796   */\n      swap1\n      pop\n        /* \"#utility.yul\":9806:9877   */\n      tag_311\n        /* \"#utility.yul\":9874:9875   */\n      0x00\n        /* \"#utility.yul\":9863:9872   */\n      dup4\n        /* \"#utility.yul\":9859:9876   */\n      add\n        /* \"#utility.yul\":9850:9856   */\n      dup5\n        /* \"#utility.yul\":9806:9877   */\n      tag_272\n      jump\t// in\n    tag_311:\n        /* \"#utility.yul\":9662:9884   */\n      swap3\n      swap2\n      pop\n      pop\n      jump\t// out\n        /* \"#utility.yul\":9890:10222   */\n    tag_70:\n        /* \"#utility.yul\":10011:10015   */\n      0x00\n        /* \"#utility.yul\":10049:10051   */\n      0x40\n        /* \"#utility.yul\":10038:10047   */\n      dup3\n        /* \"#utility.yul\":10034:10052   */\n      add\n        /* \"#utility.yul\":10026:10052   */\n      swap1\n      pop\n        /* \"#utility.yul\":10062:10133   */\n      tag_313\n        /* \"#utility.yul\":10130:10131   */\n      0x00\n        /* \"#utility.yul\":10119:10128   */\n      dup4\n        /* \"#utility.yul\":10115:10132   */\n      add\n        /* \"#utility.yul\":10106:10112   */\n      dup6\n        /* \"#utility.yul\":10062:10133   */\n      tag_272\n      jump\t// in\n    tag_313:\n        /* \"#utility.yul\":10143:10215   */\n      tag_314\n        /* \"#utility.yul\":10211:10213   */\n      0x20\n        /* \"#utility.yul\":10200:10209   */\n      dup4\n        /* \"#utility.yul\":10196:10214   */\n      add\n        /* \"#utility.yul\":10187:10193   */\n      dup5\n        /* \"#utility.yul\":10143:10215   */\n      tag_272\n      jump\t// in\n    tag_314:\n        /* \"#utility.yul\":9890:10222   */\n      swap4\n      swap3\n      pop\n      pop\n      pop\n      jump\t// out\n        /* \"#utility.yul\":10228:10670   */\n    tag_89:\n        /* \"#utility.yul\":10377:10381   */\n      0x00\n        /* \"#utility.yul\":10415:10417   */\n      0x60\n        /* \"#utility.yul\":10404:10413   */\n      dup3\n        /* \"#utility.yul\":10400:10418   */\n      add\n        /* \"#utility.yul\":10392:10418   */\n      swap1\n      pop\n        /* \"#utility.yul\":10428:10499   */\n      tag_316\n        /* \"#utility.yul\":10496:10497   */\n      0x00\n        /* \"#utility.yul\":10485:10494   */\n      dup4\n        /* \"#utility.yul\":10481:10498   */\n      add\n        /* \"#utility.yul\":10472:10478   */\n      dup7\n        /* \"#utility.yul\":10428:10499   */\n      tag_272\n      jump\t// in\n    tag_316:\n        /* \"#utility.yul\":10509:10581   */\n      tag_317\n        /* \"#utility.yul\":10577:10579   */\n      0x20\n        /* \"#utility.yul\":10566:10575   */\n      dup4\n        /* \"#utility.yul\":10562:10580   */\n      add\n        /* \"#utility.yul\":10553:10559   */\n      dup6\n        /* \"#utility.yul\":10509:10581   */\n      tag_272\n      jump\t// in\n    tag_317:\n        /* \"#utility.yul\":10591:10663   */\n      tag_318\n        /* \"#utility.yul\":10659:10661   */\n      0x40\n        /* \"#utility.yul\":10648:10657   */\n      dup4\n        /* \"#utility.yul\":10644:10662   */\n      add\n        /* \"#utility.yul\":10635:10641   */\n      dup5\n        /* \"#utility.yul\":10591:10663   */\n      tag_306\n      jump\t// in\n    tag_318:\n        /* \"#utility.yul\":10228:10670   */\n      swap5\n      swap4\n      pop\n      pop\n      pop\n      pop\n      jump\t// out\n        /* \"#utility.yul\":10676:10886   */\n    tag_37:\n        /* \"#utility.yul\":10763:10767   */\n      0x00\n        /* \"#utility.yul\":10801:10803   */\n      0x20\n        /* \"#utility.yul\":10790:10799   */\n      dup3\n        /* \"#utility.yul\":10786:10804   */\n      add\n        /* \"#utility.yul\":10778:10804   */\n      swap1\n      pop\n        /* \"#utility.yul\":10814:10879   */\n      tag_320\n        /* \"#utility.yul\":10876:10877   */\n      0x00\n        /* \"#utility.yul\":10865:10874   */\n      dup4\n        /* \"#utility.yul\":10861:10878   */\n      add\n        /* \"#utility.yul\":10852:10858   */\n      dup5\n        /* \"#utility.yul\":10814:10879   */\n      tag_276\n      jump\t// in\n    tag_320:\n        /* \"#utility.yul\":10676:10886   */\n      swap3\n      swap2\n      pop\n      pop\n      jump\t// out\n        /* \"#utility.yul\":10892:11311   */\n    tag_110:\n        /* \"#utility.yul\":11058:11062   */\n      0x00\n        /* \"#utility.yul\":11096:11098   */\n      0x20\n        /* \"#utility.yul\":11085:11094   */\n      dup3\n        /* \"#utility.yul\":11081:11099   */\n      add\n        /* \"#utility.yul\":11073:11099   */\n      swap1\n      pop\n        /* \"#utility.yul\":11145:11154   */\n      dup2\n        /* \"#utility.yul\":11139:11143   */\n      dup2\n        /* \"#utility.yul\":11135:11155   */\n      sub\n        /* \"#utility.yul\":11131:11132   */\n      0x00\n        /* \"#utility.yul\":11120:11129   */\n      dup4\n        /* \"#utility.yul\":11116:11133   */\n      add\n        /* \"#utility.yul\":11109:11156   */\n      mstore\n        /* \"#utility.yul\":11173:11304   */\n      tag_322\n        /* \"#utility.yul\":11299:11303   */\n      dup2\n        /* \"#utility.yul\":11173:11304   */\n      tag_280\n      jump\t// in\n    tag_322:\n        /* \"#utility.yul\":11165:11304   */\n      swap1\n      pop\n        /* \"#utility.yul\":10892:11311   */\n      swap2\n      swap1\n      pop\n      jump\t// out\n        /* \"#utility.yul\":11317:11736   */\n    tag_154:\n        /* \"#utility.yul\":11483:11487   */\n      0x00\n        /* \"#utility.yul\":11521:11523   */\n      0x20\n        /* \"#utility.yul\":11510:11519   */\n      dup3\n        /* \"#utility.yul\":11506:11524   */\n      add\n        /* \"#utility.yul\":11498:11524   */\n      swap1\n      pop\n        /* \"#utility.yul\":11570:11579   */\n      dup2\n        /* \"#utility.yul\":11564:11568   */\n      dup2\n        /* \"#utility.yul\":11560:11580   */\n      sub\n        /* \"#utility.yul\":11556:11557   */\n      0x00\n        /* \"#utility.yul\":11545:11554   */\n      dup4\n        /* \"#utility.yul\":11541:11558   */\n      add\n        /* \"#utility.yul\":11534:11581   */\n      mstore\n        /* \"#utility.yul\":11598:11729   */\n      tag_324\n        /* \"#utility.yul\":11724:11728   */\n      dup2\n        /* \"#utility.yul\":11598:11729   */\n      tag_286\n      jump\t// in\n    tag_324:\n        /* \"#utility.yul\":11590:11729   */\n      swap1\n      pop\n        /* \"#utility.yul\":11317:11736   */\n      swap2\n      swap1\n      pop\n      jump\t// out\n        /* \"#utility.yul\":11742:12161   */\n    tag_162:\n        /* \"#utility.yul\":11908:11912   */\n      0x00\n        /* \"#utility.yul\":11946:11948   */\n      0x20\n        /* \"#utility.yul\":11935:11944   */\n      dup3\n        /* \"#utility.yul\":11931:11949   */\n      add\n        /* \"#utility.yul\":11923:11949   */\n      swap1\n      pop\n        /* \"#utility.yul\":11995:12004   */\n      dup2\n        /* \"#utility.yul\":11989:11993   */\n      dup2\n        /* \"#utility.yul\":11985:12005   */\n      sub\n        /* \"#utility.yul\":11981:11982   */\n      0x00\n        /* \"#utility.yul\":11970:11979   */\n      dup4\n        /* \"#utility.yul\":11966:11983   */\n      add\n        /* \"#utility.yul\":11959:12006   */\n      mstore\n        /* \"#utility.yul\":12023:12154   */\n      tag_326\n        /* \"#utility.yul\":12149:12153   */\n      dup2\n        /* \"#utility.yul\":12023:12154   */\n      tag_291\n      jump\t// in\n    tag_326:\n        /* \"#utility.yul\":12015:12154   */\n      swap1\n      pop\n        /* \"#utility.yul\":11742:12161   */\n      swap2\n      swap1\n      pop\n      jump\t// out\n        /* \"#utility.yul\":12167:12586   */\n    tag_78:\n        /* \"#utility.yul\":12333:12337   */\n      0x00\n        /* \"#utility.yul\":12371:12373   */\n      0x20\n        /* \"#utility.yul\":12360:12369   */\n      dup3\n        /* \"#utility.yul\":12356:12374   */\n      add\n        /* \"#utility.yul\":12348:12374   */\n      swap1\n      pop\n        /* \"#utility.yul\":12420:12429   */\n      dup2\n        /* \"#utility.yul\":12414:12418   */\n      dup2\n        /* \"#utility.yul\":12410:12430   */\n      sub\n        /* \"#utility.yul\":12406:12407   */\n      0x00\n        /* \"#utility.yul\":12395:12404   */\n      dup4\n        /* \"#utility.yul\":12391:12408   */\n      add\n        /* \"#utility.yul\":12384:12431   */\n      mstore\n        /* \"#utility.yul\":12448:12579   */\n      tag_328\n        /* \"#utility.yul\":12574:12578   */\n      dup2\n        /* \"#utility.yul\":12448:12579   */\n      tag_296\n      jump\t// in\n    tag_328:\n        /* \"#utility.yul\":12440:12579   */\n      swap1\n      pop\n        /* \"#utility.yul\":12167:12586   */\n      swap2\n      swap1\n      pop\n      jump\t// out\n        /* \"#utility.yul\":12592:13011   */\n    tag_67:\n        /* \"#utility.yul\":12758:12762   */\n      0x00\n        /* \"#utility.yul\":12796:12798   */\n      0x20\n        /* \"#utility.yul\":12785:12794   */\n      dup3\n        /* \"#utility.yul\":12781:12799   */\n      add\n        /* \"#utility.yul\":12773:12799   */\n      swap1\n      pop\n        /* \"#utility.yul\":12845:12854   */\n      dup2\n        /* \"#utility.yul\":12839:12843   */\n      dup2\n        /* \"#utility.yul\":12835:12855   */\n      sub\n        /* \"#utility.yul\":12831:12832   */\n      0x00\n        /* \"#utility.yul\":12820:12829   */\n      dup4\n        /* \"#utility.yul\":12816:12833   */\n      add\n        /* \"#utility.yul\":12809:12856   */\n      mstore\n        /* \"#utility.yul\":12873:13004   */\n      tag_330\n        /* \"#utility.yul\":12999:13003   */\n      dup2\n        /* \"#utility.yul\":12873:13004   */\n      tag_301\n      jump\t// in\n    tag_330:\n        /* \"#utility.yul\":12865:13004   */\n      swap1\n      pop\n        /* \"#utility.yul\":12592:13011   */\n      swap2\n      swap1\n      pop\n      jump\t// out\n        /* \"#utility.yul\":13017:13239   */\n    tag_54:\n        /* \"#utility.yul\":13110:13114   */\n      0x00\n        /* \"#utility.yul\":13148:13150   */\n      0x20\n        /* \"#utility.yul\":13137:13146   */\n      dup3\n        /* \"#utility.yul\":13133:13151   */\n      add\n        /* \"#utility.yul\":13125:13151   */\n      swap1\n      pop\n        /* \"#utility.yul\":13161:13232   */\n      tag_332\n        /* \"#utility.yul\":13229:13230   */\n      0x00\n        /* \"#utility.yul\":13218:13227   */\n      dup4\n        /* \"#utility.yul\":13214:13231   */\n      add\n        /* \"#utility.yul\":13205:13211   */\n      dup5\n        /* \"#utility.yul\":13161:13232   */\n      tag_306\n      jump\t// in\n    tag_332:\n        /* \"#utility.yul\":13017:13239   */\n      swap3\n      swap2\n      pop\n      pop\n      jump\t// out\n        /* \"#utility.yul\":13326:13495   */\n    tag_283:\n        /* \"#utility.yul\":13410:13421   */\n      0x00\n        /* \"#utility.yul\":13444:13450   */\n      dup3\n        /* \"#utility.yul\":13439:13442   */\n      dup3\n        /* \"#utility.yul\":13432:13451   */\n      mstore\n        /* \"#utility.yul\":13484:13488   */\n      0x20\n        /* \"#utility.yul\":13479:13482   */\n      dup3\n        /* \"#utility.yul\":13475:13489   */\n      add\n        /* \"#utility.yul\":13460:13489   */\n      swap1\n      pop\n        /* \"#utility.yul\":13326:13495   */\n      swap3\n      swap2\n      pop\n      pop\n      jump\t// out\n        /* \"#utility.yul\":13501:13806   */\n    tag_147:\n        /* \"#utility.yul\":13541:13544   */\n      0x00\n        /* \"#utility.yul\":13560:13580   */\n      tag_337\n        /* \"#utility.yul\":13578:13579   */\n      dup3\n        /* \"#utility.yul\":13560:13580   */\n      tag_309\n      jump\t// in\n    tag_337:\n        /* \"#utility.yul\":13555:13580   */\n      swap2\n      pop\n        /* \"#utility.yul\":13594:13614   */\n      tag_338\n        /* \"#utility.yul\":13612:13613   */\n      dup4\n        /* \"#utility.yul\":13594:13614   */\n      tag_309\n      jump\t// in\n    tag_338:\n        /* \"#utility.yul\":13589:13614   */\n      swap3\n      pop\n        /* \"#utility.yul\":13748:13749   */\n      dup3\n        /* \"#utility.yul\":13680:13746   */\n      0xffffffffffffffffffffffffffffffffffffffffffffffffffffffffffffffff\n        /* \"#utility.yul\":13676:13750   */\n      sub\n        /* \"#utility.yul\":13673:13674   */\n      dup3\n        /* \"#utility.yul\":13670:13751   */\n      gt\n        /* \"#utility.yul\":13667:13774   */\n      iszero\n      tag_339\n      jumpi\n        /* \"#utility.yul\":13754:13772   */\n      tag_340\n      tag_341\n      jump\t// in\n    tag_340:\n        /* \"#utility.yul\":13667:13774   */\n    tag_339:\n        /* \"#utility.yul\":13798:13799   */\n      dup3\n        /* \"#utility.yul\":13795:13796   */\n      dup3\n        /* \"#utility.yul\":13791:13800   */\n      add\n        /* \"#utility.yul\":13784:13800   */\n      swap1\n      pop\n        /* \"#utility.yul\":13501:13806   */\n      swap3\n      swap2\n      pop\n      pop\n      jump\t// out\n        /* \"#utility.yul\":13812:13908   */\n    tag_275:\n        /* \"#utility.yul\":13849:13856   */\n      0x00\n        /* \"#utility.yul\":13878:13902   */\n      tag_343\n        /* \"#utility.yul\":13896:13901   */\n      dup3\n        /* \"#utility.yul\":13878:13902   */\n      tag_344\n      jump\t// in\n    tag_343:\n        /* \"#utility.yul\":13867:13902   */\n      swap1\n      pop\n        /* \"#utility.yul\":13812:13908   */\n      swap2\n      swap1\n      pop\n      jump\t// out\n        /* \"#utility.yul\":13914:14018   */\n    tag_345:\n        /* \"#utility.yul\":13959:13966   */\n      0x00\n        /* \"#utility.yul\":13988:14012   */\n      tag_347\n        /* \"#utility.yul\":14006:14011   */\n      dup3\n        /* \"#utility.yul\":13988:14012   */\n      tag_344\n      jump\t// in\n    tag_347:\n        /* \"#utility.yul\":13977:14012   */\n      swap1\n      pop\n        /* \"#utility.yul\":13914:14018   */\n      swap2\n      swap1\n      pop\n      jump\t// out\n        /* \"#utility.yul\":14024:14114   */\n    tag_279:\n        /* \"#utility.yul\":14058:14065   */\n      0x00\n        /* \"#utility.yul\":14101:14106   */\n      dup2\n        /* \"#utility.yul\":14094:14107   */\n      iszero\n        /* \"#utility.yul\":14087:14108   */\n      iszero\n        /* \"#utility.yul\":14076:14108   */\n      swap1\n      pop\n        /* \"#utility.yul\":14024:14114   */\n      swap2\n      swap1\n      pop\n      jump\t// out\n        /* \"#utility.yul\":14120:14246   */\n    tag_344:\n        /* \"#utility.yul\":14157:14164   */\n      0x00\n        /* \"#utility.yul\":14197:14239   */\n      0xffffffffffffffffffffffffffffffffffffffff\n        /* \"#utility.yul\":14190:14195   */\n      dup3\n        /* \"#utility.yul\":14186:14240   */\n      and\n        /* \"#utility.yul\":14175:14240   */\n      swap1\n      pop\n        /* \"#utility.yul\":14120:14246   */\n      swap2\n      swap1\n      pop\n      jump\t// out\n        /* \"#utility.yul\":14252:14329   */\n    tag_309:\n        /* \"#utility.yul\":14289:14296   */\n      0x00\n        /* \"#utility.yul\":14318:14323   */\n      dup2\n        /* \"#utility.yul\":14307:14323   */\n      swap1\n      pop\n        /* \"#utility.yul\":14252:14329   */\n      swap2\n      swap1\n      pop\n      jump\t// out\n        /* \"#utility.yul\":14335:14421   */\n    tag_351:\n        /* \"#utility.yul\":14370:14377   */\n      0x00\n        /* \"#utility.yul\":14410:14414   */\n      0xff\n        /* \"#utility.yul\":14403:14408   */\n      dup3\n        /* \"#utility.yul\":14399:14415   */\n      and\n        /* \"#utility.yul\":14388:14415   */\n      swap1\n      pop\n        /* \"#utility.yul\":14335:14421   */\n      swap2\n      swap1\n      pop\n      jump\t// out\n        /* \"#utility.yul\":14427:14660   */\n    tag_123:\n        /* \"#utility.yul\":14466:14469   */\n      0x00\n        /* \"#utility.yul\":14489:14513   */\n      tag_354\n        /* \"#utility.yul\":14507:14512   */\n      dup3\n        /* \"#utility.yul\":14489:14513   */\n      tag_309\n      jump\t// in\n    tag_354:\n        /* \"#utility.yul\":14480:14513   */\n      swap2\n      pop\n        /* \"#utility.yul\":14535:14601   */\n      0xffffffffffffffffffffffffffffffffffffffffffffffffffffffffffffffff\n        /* \"#utility.yul\":14528:14533   */\n      dup3\n        /* \"#utility.yul\":14525:14602   */\n      eq\n        /* \"#utility.yul\":14522:14625   */\n      iszero\n      tag_355\n      jumpi\n        /* \"#utility.yul\":14605:14623   */\n      tag_356\n      tag_341\n      jump\t// in\n    tag_356:\n        /* \"#utility.yul\":14522:14625   */\n    tag_355:\n        /* \"#utility.yul\":14652:14653   */\n      0x01\n        /* \"#utility.yul\":14645:14650   */\n      dup3\n        /* \"#utility.yul\":14641:14654   */\n      add\n        /* \"#utility.yul\":14634:14654   */\n      swap1\n      pop\n        /* \"#utility.yul\":14427:14660   */\n      swap2\n      swap1\n      pop\n      jump\t// out\n        /* \"#utility.yul\":14666:14833   */\n    tag_96:\n        /* \"#utility.yul\":14703:14706   */\n      0x00\n        /* \"#utility.yul\":14726:14748   */\n      tag_358\n        /* \"#utility.yul\":14742:14747   */\n      dup3\n        /* \"#utility.yul\":14726:14748   */\n      tag_351\n      jump\t// in\n    tag_358:\n        /* \"#utility.yul\":14717:14748   */\n      swap2\n      pop\n        /* \"#utility.yul\":14770:14774   */\n      0xff\n        /* \"#utility.yul\":14763:14768   */\n      dup3\n        /* \"#utility.yul\":14760:14775   */\n      eq\n        /* \"#utility.yul\":14757:14798   */\n      iszero\n      tag_359\n      jumpi\n        /* \"#utility.yul\":14778:14796   */\n      tag_360\n      tag_341\n      jump\t// in\n    tag_360:\n        /* \"#utility.yul\":14757:14798   */\n    tag_359:\n        /* \"#utility.yul\":14825:14826   */\n      0x01\n        /* \"#utility.yul\":14818:14823   */\n      dup3\n        /* \"#utility.yul\":14814:14827   */\n      add\n        /* \"#utility.yul\":14807:14827   */\n      swap1\n      pop\n        /* \"#utility.yul\":14666:14833   */\n      swap2\n      swap1\n      pop\n      jump\t// out\n        /* \"#utility.yul\":14839:15019   */\n    tag_341:\n        /* \"#utility.yul\":14887:14964   */\n      0x4e487b7100000000000000000000000000000000000000000000000000000000\n        /* \"#utility.yul\":14884:14885   */\n      0x00\n        /* \"#utility.yul\":14877:14965   */\n      mstore\n        /* \"#utility.yul\":14984:14988   */\n      0x11\n        /* \"#utility.yul\":14981:14982   */\n      0x04\n        /* \"#utility.yul\":14974:14989   */\n      mstore\n        /* \"#utility.yul\":15008:15012   */\n      0x24\n        /* \"#utility.yul\":15005:15006   */\n      0x00\n        /* \"#utility.yul\":14998:15013   */\n      revert\n        /* \"#utility.yul\":15025:15205   */\n    tag_84:\n        /* \"#utility.yul\":15073:15150   */\n      0x4e487b7100000000000000000000000000000000000000000000000000000000\n        /* \"#utility.yul\":15070:15071   */\n      0x00\n        /* \"#utility.yul\":15063:15151   */\n      mstore\n        /* \"#utility.yul\":15170:15174   */\n      0x32\n        /* \"#utility.yul\":15167:15168   */\n      0x04\n        /* \"#utility.yul\":15160:15175   */\n      mstore\n        /* \"#utility.yul\":15194:15198   */\n      0x24\n        /* \"#utility.yul\":15191:15192   */\n      0x00\n        /* \"#utility.yul\":15184:15199   */\n      revert\n        /* \"#utility.yul\":15211:15328   */\n    tag_188:\n        /* \"#utility.yul\":15320:15321   */\n      0x00\n        /* \"#utility.yul\":15317:15318   */\n      dup1\n        /* \"#utility.yul\":15310:15322   */\n      revert\n        /* \"#utility.yul\":15334:15451   */\n    tag_185:\n        /* \"#utility.yul\":15443:15444   */\n      0x00\n        /* \"#utility.yul\":15440:15441   */\n      dup1\n        /* \"#utility.yul\":15433:15445   */\n      revert\n        /* \"#utility.yul\":15457:15574   */\n    tag_191:\n        /* \"#utility.yul\":15566:15567   */\n      0x00\n        /* \"#utility.yul\":15563:15564   */\n      dup1\n        /* \"#utility.yul\":15556:15568   */\n      revert\n        /* \"#utility.yul\":15580:15697   */\n    tag_234:\n        /* \"#utility.yul\":15689:15690   */\n      0x00\n        /* \"#utility.yul\":15686:15687   */\n      dup1\n        /* \"#utility.yul\":15679:15691   */\n      revert\n        /* \"#utility.yul\":15703:15820   */\n    tag_222:\n        /* \"#utility.yul\":15812:15813   */\n      0x00\n        /* \"#utility.yul\":15809:15810   */\n      dup1\n        /* \"#utility.yul\":15802:15814   */\n      revert\n        /* \"#utility.yul\":15826:15997   */\n    tag_285:\n        /* \"#utility.yul\":15966:15989   */\n      0x5472616e7366657220616d6f756e74206572726f720000000000000000000000\n        /* \"#utility.yul\":15962:15963   */\n      0x00\n        /* \"#utility.yul\":15954:15960   */\n      dup3\n        /* \"#utility.yul\":15950:15964   */\n      add\n        /* \"#utility.yul\":15943:15990   */\n      mstore\n        /* \"#utility.yul\":15826:15997   */\n      pop\n      jump\t// out\n        /* \"#utility.yul\":16003:16228   */\n    tag_290:\n        /* \"#utility.yul\":16143:16177   */\n      0x4f776e61626c653a206e6577206f776e657220697320746865207a65726f2061\n        /* \"#utility.yul\":16139:16140   */\n      0x00\n        /* \"#utility.yul\":16131:16137   */\n      dup3\n        /* \"#utility.yul\":16127:16141   */\n      add\n        /* \"#utility.yul\":16120:16178   */\n      mstore\n        /* \"#utility.yul\":16212:16220   */\n      0x6464726573730000000000000000000000000000000000000000000000000000\n        /* \"#utility.yul\":16207:16209   */\n      0x20\n        /* \"#utility.yul\":16199:16205   */\n      dup3\n        /* \"#utility.yul\":16195:16210   */\n      add\n        /* \"#utility.yul\":16188:16221   */\n      mstore\n        /* \"#utility.yul\":16003:16228   */\n      pop\n      jump\t// out\n        /* \"#utility.yul\":16234:16416   */\n    tag_295:\n        /* \"#utility.yul\":16374:16408   */\n      0x4f776e61626c653a2063616c6c6572206973206e6f7420746865206f776e6572\n        /* \"#utility.yul\":16370:16371   */\n      0x00\n        /* \"#utility.yul\":16362:16368   */\n      dup3\n        /* \"#utility.yul\":16358:16372   */\n      add\n        /* \"#utility.yul\":16351:16409   */\n      mstore\n        /* \"#utility.yul\":16234:16416   */\n      pop\n      jump\t// out\n        /* \"#utility.yul\":16422:16596   */\n    tag_300:\n        /* \"#utility.yul\":16562:16588   */\n      0x4e65656420417070726f766520455243323020746f6b656e0000000000000000\n        /* \"#utility.yul\":16558:16559   */\n      0x00\n        /* \"#utility.yul\":16550:16556   */\n      dup3\n        /* \"#utility.yul\":16546:16560   */\n      add\n        /* \"#utility.yul\":16539:16589   */\n      mstore\n        /* \"#utility.yul\":16422:16596   */\n      pop\n      jump\t// out\n        /* \"#utility.yul\":16602:16831   */\n    tag_305:\n        /* \"#utility.yul\":16742:16776   */\n      0x4c656e67746873206f662041646472657373657320616e6420416d6f756e7473\n        /* \"#utility.yul\":16738:16739   */\n      0x00\n        /* \"#utility.yul\":16730:16736   */\n      dup3\n        /* \"#utility.yul\":16726:16740   */\n      add\n        /* \"#utility.yul\":16719:16777   */\n      mstore\n        /* \"#utility.yul\":16811:16823   */\n      0x204e4f5420455155414c00000000000000000000000000000000000000000000\n        /* \"#utility.yul\":16806:16808   */\n      0x20\n        /* \"#utility.yul\":16798:16804   */\n      dup3\n        /* \"#utility.yul\":16794:16809   */\n      add\n        /* \"#utility.yul\":16787:16824   */\n      mstore\n        /* \"#utility.yul\":16602:16831   */\n      pop\n      jump\t// out\n        /* \"#utility.yul\":16837:16959   */\n    tag_176:\n        /* \"#utility.yul\":16910:16934   */\n      tag_374\n        /* \"#utility.yul\":16928:16933   */\n      dup2\n        /* \"#utility.yul\":16910:16934   */\n      tag_275\n      jump\t// in\n    tag_374:\n        /* \"#utility.yul\":16903:16908   */\n      dup2\n        /* \"#utility.yul\":16900:16935   */\n      eq\n        /* \"#utility.yul\":16890:16953   */\n      tag_375\n      jumpi\n        /* \"#utility.yul\":16949:16950   */\n      0x00\n        /* \"#utility.yul\":16946:16947   */\n      dup1\n        /* \"#utility.yul\":16939:16951   */\n      revert\n        /* \"#utility.yul\":16890:16953   */\n    tag_375:\n        /* \"#utility.yul\":16837:16959   */\n      pop\n      jump\t// out\n        /* \"#utility.yul\":16965:17103   */\n    tag_180:\n        /* \"#utility.yul\":17046:17078   */\n      tag_377\n        /* \"#utility.yul\":17072:17077   */\n      dup2\n        /* \"#utility.yul\":17046:17078   */\n      tag_345\n      jump\t// in\n    tag_377:\n        /* \"#utility.yul\":17039:17044   */\n      dup2\n        /* \"#utility.yul\":17036:17079   */\n      eq\n        /* \"#utility.yul\":17026:17097   */\n      tag_378\n      jumpi\n        /* \"#utility.yul\":17093:17094   */\n      0x00\n        /* \"#utility.yul\":17090:17091   */\n      dup1\n        /* \"#utility.yul\":17083:17095   */\n      revert\n        /* \"#utility.yul\":17026:17097   */\n    tag_378:\n        /* \"#utility.yul\":16965:17103   */\n      pop\n      jump\t// out\n        /* \"#utility.yul\":17109:17225   */\n    tag_211:\n        /* \"#utility.yul\":17179:17200   */\n      tag_380\n        /* \"#utility.yul\":17194:17199   */\n      dup2\n        /* \"#utility.yul\":17179:17200   */\n      tag_279\n      jump\t// in\n    tag_380:\n        /* \"#utility.yul\":17172:17177   */\n      dup2\n        /* \"#utility.yul\":17169:17201   */\n      eq\n        /* \"#utility.yul\":17159:17219   */\n      tag_381\n      jumpi\n        /* \"#utility.yul\":17215:17216   */\n      0x00\n        /* \"#utility.yul\":17212:17213   */\n      dup1\n        /* \"#utility.yul\":17205:17217   */\n      revert\n        /* \"#utility.yul\":17159:17219   */\n    tag_381:\n        /* \"#utility.yul\":17109:17225   */\n      pop\n      jump\t// out\n        /* \"#utility.yul\":17231:17353   */\n    tag_215:\n        /* \"#utility.yul\":17304:17328   */\n      tag_383\n        /* \"#utility.yul\":17322:17327   */\n      dup2\n        /* \"#utility.yul\":17304:17328   */\n      tag_309\n      jump\t// in\n    tag_383:\n        /* \"#utility.yul\":17297:17302   */\n      dup2\n        /* \"#utility.yul\":17294:17329   */\n      eq\n        /* \"#utility.yul\":17284:17347   */\n      tag_384\n      jumpi\n        /* \"#utility.yul\":17343:17344   */\n      0x00\n        /* \"#utility.yul\":17340:17341   */\n      dup1\n        /* \"#utility.yul\":17333:17345   */\n      revert\n        /* \"#utility.yul\":17284:17347   */\n    tag_384:\n        /* \"#utility.yul\":17231:17353   */\n      pop\n      jump\t// out\n\n    auxdata: 0xa26469706673582212203ec9d3c7f9437ce017f2ca36674e515f1d805d3ac8b49dee0feffa44cfedbc1564736f6c63430008070033\n}\n",
				"bytecode": {
					"linkReferences": {},
					"object": "608060405234801561001057600080fd5b5061002d61002261003260201b60201c565b61003a60201b60201c565b6100fe565b600033905090565b60008060009054906101000a900473ffffffffffffffffffffffffffffffffffffffff169050816000806101000a81548173ffffffffffffffffffffffffffffffffffffffff021916908373ffffffffffffffffffffffffffffffffffffffff1602179055508173ffffffffffffffffffffffffffffffffffffffff168173ffffffffffffffffffffffffffffffffffffffff167f8be0079c531659141344cd1fd0a4f28419497f9722a3daafe3b4186f6b6457e060405160405180910390a35050565b6113d08061010d6000396000f3fe6080604052600436106100865760003560e01c80638d55411f116100595780638d55411f146101245780638da5cb5b14610161578063a1f3b1211461018c578063ccb8c1e0146101c9578063f2fde38b1461020657610086565b80631c795fb51461008b5780636a1d410c146100c8578063715018a6146100f157806377988cf814610108575b600080fd5b34801561009757600080fd5b506100b260048036038101906100ad9190610de6565b61022f565b6040516100bf9190610f1c565b60405180910390f35b3480156100d457600080fd5b506100ef60048036038101906100ea9190610c09565b61026e565b005b3480156100fd57600080fd5b506101066104a2565b005b610122600480360381019061011d9190610ceb565b6104b6565b005b34801561013057600080fd5b5061014b60048036038101906101469190610c9e565b610606565b6040516101589190610f97565b60405180910390f35b34801561016d57600080fd5b5061017661062c565b6040516101839190610f1c565b60405180910390f35b34801561019857600080fd5b506101b360048036038101906101ae9190610baf565b610655565b6040516101c09190610f97565b60405180910390f35b3480156101d557600080fd5b506101f060048036038101906101eb9190610d6c565b610765565b6040516101fd9190611052565b60405180910390f35b34801561021257600080fd5b5061022d60048036038101906102289190610baf565b6107b9565b005b6001818154811061023f57600080fd5b906000526020600020016000915054906101000a900473ffffffffffffffffffffffffffffffffffffffff1681565b61027661083d565b8181905084849050146102be576040517f08c379a00000000000000000000000000000000000000000000000000000000081526004016102b590611032565b60405180910390fd5b600085905060006102cf8484610765565b9050808273ffffffffffffffffffffffffffffffffffffffff1663dd62ed3e33306040518363ffffffff1660e01b815260040161030d929190610f37565b60206040518083038186803b15801561032557600080fd5b505afa158015610339573d6000803e3d6000fd5b505050506040513d601f19601f8201168201806040525081019061035d9190610e13565b101561039e576040517f08c379a000000000000000000000000000000000000000000000000000000000815260040161039590611012565b60405180910390fd5b60005b868690508160ff161015610498578273ffffffffffffffffffffffffffffffffffffffff166323b872dd3389898560ff168181106103e2576103e16111dd565b5b90506020020160208101906103f79190610baf565b88888660ff1681811061040d5761040c6111dd565b5b905060200201356040518463ffffffff1660e01b815260040161043293929190610f60565b602060405180830381600087803b15801561044c57600080fd5b505af1158015610460573d6000803e3d6000fd5b505050506040513d601f19601f820116820180604052508101906104849190610db9565b50808061049090611184565b9150506103a1565b5050505050505050565b6104aa61083d565b6104b460006108bb565b565b6104be61083d565b818190508484905014610506576040517f08c379a00000000000000000000000000000000000000000000000000000000081526004016104fd90611032565b60405180910390fd5b60006105128383610765565b9050803414610556576040517f08c379a000000000000000000000000000000000000000000000000000000000815260040161054d90610fb2565b60405180910390fd5b60005b858590508110156105fe57858582818110610577576105766111dd565b5b905060200201602081019061058c9190610bdc565b73ffffffffffffffffffffffffffffffffffffffff166108fc8585848181106105b8576105b76111dd565b5b905060200201359081150290604051600060405180830381858888f193505050501580156105ea573d6000803e3d6000fd5b5080806105f69061113b565b915050610559565b505050505050565b600061061061083d565b828260019190610621929190610987565b506001905092915050565b60008060009054906101000a900473ffffffffffffffffffffffffffffffffffffffff16905090565b60008060018054806020026020016040519081016040528092919081815260200182805480156106da57602002820191906000526020600020905b8160009054906101000a900473ffffffffffffffffffffffffffffffffffffffff1673ffffffffffffffffffffffffffffffffffffffff1681526020019060010190808311610690575b5050505050905060005b8151811015610759578373ffffffffffffffffffffffffffffffffffffffff16828281518110610717576107166111dd565b5b602002602001015173ffffffffffffffffffffffffffffffffffffffff16141561074657600192505050610760565b80806107519061113b565b9150506106e4565b5060009150505b919050565b600080600090505b838390508110156107b25783838281811061078b5761078a6111dd565b5b905060200201358261079d919061107e565b915080806107aa9061113b565b91505061076d565b5092915050565b6107c161083d565b600073ffffffffffffffffffffffffffffffffffffffff168173ffffffffffffffffffffffffffffffffffffffff161415610831576040517f08c379a000000000000000000000000000000000000000000000000000000000815260040161082890610fd2565b60405180910390fd5b61083a816108bb565b50565b61084561097f565b73ffffffffffffffffffffffffffffffffffffffff1661086361062c565b73ffffffffffffffffffffffffffffffffffffffff16146108b9576040517f08c379a00000000000000000000000000000000000000000000000000000000081526004016108b090610ff2565b60405180910390fd5b565b60008060009054906101000a900473ffffffffffffffffffffffffffffffffffffffff169050816000806101000a81548173ffffffffffffffffffffffffffffffffffffffff021916908373ffffffffffffffffffffffffffffffffffffffff1602179055508173ffffffffffffffffffffffffffffffffffffffff168173ffffffffffffffffffffffffffffffffffffffff167f8be0079c531659141344cd1fd0a4f28419497f9722a3daafe3b4186f6b6457e060405160405180910390a35050565b600033905090565b828054828255906000526020600020908101928215610a16579160200282015b82811115610a1557823573ffffffffffffffffffffffffffffffffffffffff168260006101000a81548173ffffffffffffffffffffffffffffffffffffffff021916908373ffffffffffffffffffffffffffffffffffffffff160217905550916020019190600101906109a7565b5b509050610a239190610a27565b5090565b5b80821115610a40576000816000905550600101610a28565b5090565b600081359050610a538161133e565b92915050565b600081359050610a6881611355565b92915050565b60008083601f840112610a8457610a83611211565b5b8235905067ffffffffffffffff811115610aa157610aa061120c565b5b602083019150836020820283011115610abd57610abc611216565b5b9250929050565b60008083601f840112610ada57610ad9611211565b5b8235905067ffffffffffffffff811115610af757610af661120c565b5b602083019150836020820283011115610b1357610b12611216565b5b9250929050565b60008083601f840112610b3057610b2f611211565b5b8235905067ffffffffffffffff811115610b4d57610b4c61120c565b5b602083019150836020820283011115610b6957610b68611216565b5b9250929050565b600081519050610b7f8161136c565b92915050565b600081359050610b9481611383565b92915050565b600081519050610ba981611383565b92915050565b600060208284031215610bc557610bc4611220565b5b6000610bd384828501610a44565b91505092915050565b600060208284031215610bf257610bf1611220565b5b6000610c0084828501610a59565b91505092915050565b600080600080600060608688031215610c2557610c24611220565b5b6000610c3388828901610a44565b955050602086013567ffffffffffffffff811115610c5457610c5361121b565b5b610c6088828901610a6e565b9450945050604086013567ffffffffffffffff811115610c8357610c8261121b565b5b610c8f88828901610b1a565b92509250509295509295909350565b60008060208385031215610cb557610cb4611220565b5b600083013567ffffffffffffffff811115610cd357610cd261121b565b5b610cdf85828601610a6e565b92509250509250929050565b60008060008060408587031215610d0557610d04611220565b5b600085013567ffffffffffffffff811115610d2357610d2261121b565b5b610d2f87828801610ac4565b9450945050602085013567ffffffffffffffff811115610d5257610d5161121b565b5b610d5e87828801610b1a565b925092505092959194509250565b60008060208385031215610d8357610d82611220565b5b600083013567ffffffffffffffff811115610da157610da061121b565b5b610dad85828601610b1a565b92509250509250929050565b600060208284031215610dcf57610dce611220565b5b6000610ddd84828501610b70565b91505092915050565b600060208284031215610dfc57610dfb611220565b5b6000610e0a84828501610b85565b91505092915050565b600060208284031215610e2957610e28611220565b5b6000610e3784828501610b9a565b91505092915050565b610e49816110d4565b82525050565b610e58816110f8565b82525050565b6000610e6b60158361106d565b9150610e7682611225565b602082019050919050565b6000610e8e60268361106d565b9150610e998261124e565b604082019050919050565b6000610eb160208361106d565b9150610ebc8261129d565b602082019050919050565b6000610ed460188361106d565b9150610edf826112c6565b602082019050919050565b6000610ef7602a8361106d565b9150610f02826112ef565b604082019050919050565b610f1681611124565b82525050565b6000602082019050610f316000830184610e40565b92915050565b6000604082019050610f4c6000830185610e40565b610f596020830184610e40565b9392505050565b6000606082019050610f756000830186610e40565b610f826020830185610e40565b610f8f6040830184610f0d565b949350505050565b6000602082019050610fac6000830184610e4f565b92915050565b60006020820190508181036000830152610fcb81610e5e565b9050919050565b60006020820190508181036000830152610feb81610e81565b9050919050565b6000602082019050818103600083015261100b81610ea4565b9050919050565b6000602082019050818103600083015261102b81610ec7565b9050919050565b6000602082019050818103600083015261104b81610eea565b9050919050565b60006020820190506110676000830184610f0d565b92915050565b600082825260208201905092915050565b600061108982611124565b915061109483611124565b9250827fffffffffffffffffffffffffffffffffffffffffffffffffffffffffffffffff038211156110c9576110c86111ae565b5b828201905092915050565b60006110df82611104565b9050919050565b60006110f182611104565b9050919050565b60008115159050919050565b600073ffffffffffffffffffffffffffffffffffffffff82169050919050565b6000819050919050565b600060ff82169050919050565b600061114682611124565b91507fffffffffffffffffffffffffffffffffffffffffffffffffffffffffffffffff821415611179576111786111ae565b5b600182019050919050565b600061118f8261112e565b915060ff8214156111a3576111a26111ae565b5b600182019050919050565b7f4e487b7100000000000000000000000000000000000000000000000000000000600052601160045260246000fd5b7f4e487b7100000000000000000000000000000000000000000000000000000000600052603260045260246000fd5b600080fd5b600080fd5b600080fd5b600080fd5b600080fd5b7f5472616e7366657220616d6f756e74206572726f720000000000000000000000600082015250565b7f4f776e61626c653a206e6577206f776e657220697320746865207a65726f206160008201527f6464726573730000000000000000000000000000000000000000000000000000602082015250565b7f4f776e61626c653a2063616c6c6572206973206e6f7420746865206f776e6572600082015250565b7f4e65656420417070726f766520455243323020746f6b656e0000000000000000600082015250565b7f4c656e67746873206f662041646472657373657320616e6420416d6f756e747360008201527f204e4f5420455155414c00000000000000000000000000000000000000000000602082015250565b611347816110d4565b811461135257600080fd5b50565b61135e816110e6565b811461136957600080fd5b50565b611375816110f8565b811461138057600080fd5b50565b61138c81611124565b811461139757600080fd5b5056fea26469706673582212203ec9d3c7f9437ce017f2ca36674e515f1d805d3ac8b49dee0feffa44cfedbc1564736f6c63430008070033",
					"opcodes": "PUSH1 0x80 PUSH1 0x40 MSTORE CALLVALUE DUP1 ISZERO PUSH2 0x10 JUMPI PUSH1 0x0 DUP1 REVERT JUMPDEST POP PUSH2 0x2D PUSH2 0x22 PUSH2 0x32 PUSH1 0x20 SHL PUSH1 0x20 SHR JUMP JUMPDEST PUSH2 0x3A PUSH1 0x20 SHL PUSH1 0x20 SHR JUMP JUMPDEST PUSH2 0xFE JUMP JUMPDEST PUSH1 0x0 CALLER SWAP1 POP SWAP1 JUMP JUMPDEST PUSH1 0x0 DUP1 PUSH1 0x0 SWAP1 SLOAD SWAP1 PUSH2 0x100 EXP SWAP1 DIV PUSH20 0xFFFFFFFFFFFFFFFFFFFFFFFFFFFFFFFFFFFFFFFF AND SWAP1 POP DUP2 PUSH1 0x0 DUP1 PUSH2 0x100 EXP DUP2 SLOAD DUP2 PUSH20 0xFFFFFFFFFFFFFFFFFFFFFFFFFFFFFFFFFFFFFFFF MUL NOT AND SWAP1 DUP4 PUSH20 0xFFFFFFFFFFFFFFFFFFFFFFFFFFFFFFFFFFFFFFFF AND MUL OR SWAP1 SSTORE POP DUP2 PUSH20 0xFFFFFFFFFFFFFFFFFFFFFFFFFFFFFFFFFFFFFFFF AND DUP2 PUSH20 0xFFFFFFFFFFFFFFFFFFFFFFFFFFFFFFFFFFFFFFFF AND PUSH32 0x8BE0079C531659141344CD1FD0A4F28419497F9722A3DAAFE3B4186F6B6457E0 PUSH1 0x40 MLOAD PUSH1 0x40 MLOAD DUP1 SWAP2 SUB SWAP1 LOG3 POP POP JUMP JUMPDEST PUSH2 0x13D0 DUP1 PUSH2 0x10D PUSH1 0x0 CODECOPY PUSH1 0x0 RETURN INVALID PUSH1 0x80 PUSH1 0x40 MSTORE PUSH1 0x4 CALLDATASIZE LT PUSH2 0x86 JUMPI PUSH1 0x0 CALLDATALOAD PUSH1 0xE0 SHR DUP1 PUSH4 0x8D55411F GT PUSH2 0x59 JUMPI DUP1 PUSH4 0x8D55411F EQ PUSH2 0x124 JUMPI DUP1 PUSH4 0x8DA5CB5B EQ PUSH2 0x161 JUMPI DUP1 PUSH4 0xA1F3B121 EQ PUSH2 0x18C JUMPI DUP1 PUSH4 0xCCB8C1E0 EQ PUSH2 0x1C9 JUMPI DUP1 PUSH4 0xF2FDE38B EQ PUSH2 0x206 JUMPI PUSH2 0x86 JUMP JUMPDEST DUP1 PUSH4 0x1C795FB5 EQ PUSH2 0x8B JUMPI DUP1 PUSH4 0x6A1D410C EQ PUSH2 0xC8 JUMPI DUP1 PUSH4 0x715018A6 EQ PUSH2 0xF1 JUMPI DUP1 PUSH4 0x77988CF8 EQ PUSH2 0x108 JUMPI JUMPDEST PUSH1 0x0 DUP1 REVERT JUMPDEST CALLVALUE DUP1 ISZERO PUSH2 0x97 JUMPI PUSH1 0x0 DUP1 REVERT JUMPDEST POP PUSH2 0xB2 PUSH1 0x4 DUP1 CALLDATASIZE SUB DUP2 ADD SWAP1 PUSH2 0xAD SWAP2 SWAP1 PUSH2 0xDE6 JUMP JUMPDEST PUSH2 0x22F JUMP JUMPDEST PUSH1 0x40 MLOAD PUSH2 0xBF SWAP2 SWAP1 PUSH2 0xF1C JUMP JUMPDEST PUSH1 0x40 MLOAD DUP1 SWAP2 SUB SWAP1 RETURN JUMPDEST CALLVALUE DUP1 ISZERO PUSH2 0xD4 JUMPI PUSH1 0x0 DUP1 REVERT JUMPDEST POP PUSH2 0xEF PUSH1 0x4 DUP1 CALLDATASIZE SUB DUP2 ADD SWAP1 PUSH2 0xEA SWAP2 SWAP1 PUSH2 0xC09 JUMP JUMPDEST PUSH2 0x26E JUMP JUMPDEST STOP JUMPDEST CALLVALUE DUP1 ISZERO PUSH2 0xFD JUMPI PUSH1 0x0 DUP1 REVERT JUMPDEST POP PUSH2 0x106 PUSH2 0x4A2 JUMP JUMPDEST STOP JUMPDEST PUSH2 0x122 PUSH1 0x4 DUP1 CALLDATASIZE SUB DUP2 ADD SWAP1 PUSH2 0x11D SWAP2 SWAP1 PUSH2 0xCEB JUMP JUMPDEST PUSH2 0x4B6 JUMP JUMPDEST STOP JUMPDEST CALLVALUE DUP1 ISZERO PUSH2 0x130 JUMPI PUSH1 0x0 DUP1 REVERT JUMPDEST POP PUSH2 0x14B PUSH1 0x4 DUP1 CALLDATASIZE SUB DUP2 ADD SWAP1 PUSH2 0x146 SWAP2 SWAP1 PUSH2 0xC9E JUMP JUMPDEST PUSH2 0x606 JUMP JUMPDEST PUSH1 0x40 MLOAD PUSH2 0x158 SWAP2 SWAP1 PUSH2 0xF97 JUMP JUMPDEST PUSH1 0x40 MLOAD DUP1 SWAP2 SUB SWAP1 RETURN JUMPDEST CALLVALUE DUP1 ISZERO PUSH2 0x16D JUMPI PUSH1 0x0 DUP1 REVERT JUMPDEST POP PUSH2 0x176 PUSH2 0x62C JUMP JUMPDEST PUSH1 0x40 MLOAD PUSH2 0x183 SWAP2 SWAP1 PUSH2 0xF1C JUMP JUMPDEST PUSH1 0x40 MLOAD DUP1 SWAP2 SUB SWAP1 RETURN JUMPDEST CALLVALUE DUP1 ISZERO PUSH2 0x198 JUMPI PUSH1 0x0 DUP1 REVERT JUMPDEST POP PUSH2 0x1B3 PUSH1 0x4 DUP1 CALLDATASIZE SUB DUP2 ADD SWAP1 PUSH2 0x1AE SWAP2 SWAP1 PUSH2 0xBAF JUMP JUMPDEST PUSH2 0x655 JUMP JUMPDEST PUSH1 0x40 MLOAD PUSH2 0x1C0 SWAP2 SWAP1 PUSH2 0xF97 JUMP JUMPDEST PUSH1 0x40 MLOAD DUP1 SWAP2 SUB SWAP1 RETURN JUMPDEST CALLVALUE DUP1 ISZERO PUSH2 0x1D5 JUMPI PUSH1 0x0 DUP1 REVERT JUMPDEST POP PUSH2 0x1F0 PUSH1 0x4 DUP1 CALLDATASIZE SUB DUP2 ADD SWAP1 PUSH2 0x1EB SWAP2 SWAP1 PUSH2 0xD6C JUMP JUMPDEST PUSH2 0x765 JUMP JUMPDEST PUSH1 0x40 MLOAD PUSH2 0x1FD SWAP2 SWAP1 PUSH2 0x1052 JUMP JUMPDEST PUSH1 0x40 MLOAD DUP1 SWAP2 SUB SWAP1 RETURN JUMPDEST CALLVALUE DUP1 ISZERO PUSH2 0x212 JUMPI PUSH1 0x0 DUP1 REVERT JUMPDEST POP PUSH2 0x22D PUSH1 0x4 DUP1 CALLDATASIZE SUB DUP2 ADD SWAP1 PUSH2 0x228 SWAP2 SWAP1 PUSH2 0xBAF JUMP JUMPDEST PUSH2 0x7B9 JUMP JUMPDEST STOP JUMPDEST PUSH1 0x1 DUP2 DUP2 SLOAD DUP2 LT PUSH2 0x23F JUMPI PUSH1 0x0 DUP1 REVERT JUMPDEST SWAP1 PUSH1 0x0 MSTORE PUSH1 0x20 PUSH1 0x0 KECCAK256 ADD PUSH1 0x0 SWAP2 POP SLOAD SWAP1 PUSH2 0x100 EXP SWAP1 DIV PUSH20 0xFFFFFFFFFFFFFFFFFFFFFFFFFFFFFFFFFFFFFFFF AND DUP2 JUMP JUMPDEST PUSH2 0x276 PUSH2 0x83D JUMP JUMPDEST DUP2 DUP2 SWAP1 POP DUP5 DUP5 SWAP1 POP EQ PUSH2 0x2BE JUMPI PUSH1 0x40 MLOAD PUSH32 0x8C379A000000000000000000000000000000000000000000000000000000000 DUP2 MSTORE PUSH1 0x4 ADD PUSH2 0x2B5 SWAP1 PUSH2 0x1032 JUMP JUMPDEST PUSH1 0x40 MLOAD DUP1 SWAP2 SUB SWAP1 REVERT JUMPDEST PUSH1 0x0 DUP6 SWAP1 POP PUSH1 0x0 PUSH2 0x2CF DUP5 DUP5 PUSH2 0x765 JUMP JUMPDEST SWAP1 POP DUP1 DUP3 PUSH20 0xFFFFFFFFFFFFFFFFFFFFFFFFFFFFFFFFFFFFFFFF AND PUSH4 0xDD62ED3E CALLER ADDRESS PUSH1 0x40 MLOAD DUP4 PUSH4 0xFFFFFFFF AND PUSH1 0xE0 SHL DUP2 MSTORE PUSH1 0x4 ADD PUSH2 0x30D SWAP3 SWAP2 SWAP1 PUSH2 0xF37 JUMP JUMPDEST PUSH1 0x20 PUSH1 0x40 MLOAD DUP1 DUP4 SUB DUP2 DUP7 DUP1 EXTCODESIZE ISZERO DUP1 ISZERO PUSH2 0x325 JUMPI PUSH1 0x0 DUP1 REVERT JUMPDEST POP GAS STATICCALL ISZERO DUP1 ISZERO PUSH2 0x339 JUMPI RETURNDATASIZE PUSH1 0x0 DUP1 RETURNDATACOPY RETURNDATASIZE PUSH1 0x0 REVERT JUMPDEST POP POP POP POP PUSH1 0x40 MLOAD RETURNDATASIZE PUSH1 0x1F NOT PUSH1 0x1F DUP3 ADD AND DUP3 ADD DUP1 PUSH1 0x40 MSTORE POP DUP2 ADD SWAP1 PUSH2 0x35D SWAP2 SWAP1 PUSH2 0xE13 JUMP JUMPDEST LT ISZERO PUSH2 0x39E JUMPI PUSH1 0x40 MLOAD PUSH32 0x8C379A000000000000000000000000000000000000000000000000000000000 DUP2 MSTORE PUSH1 0x4 ADD PUSH2 0x395 SWAP1 PUSH2 0x1012 JUMP JUMPDEST PUSH1 0x40 MLOAD DUP1 SWAP2 SUB SWAP1 REVERT JUMPDEST PUSH1 0x0 JUMPDEST DUP7 DUP7 SWAP1 POP DUP2 PUSH1 0xFF AND LT ISZERO PUSH2 0x498 JUMPI DUP3 PUSH20 0xFFFFFFFFFFFFFFFFFFFFFFFFFFFFFFFFFFFFFFFF AND PUSH4 0x23B872DD CALLER DUP10 DUP10 DUP6 PUSH1 0xFF AND DUP2 DUP2 LT PUSH2 0x3E2 JUMPI PUSH2 0x3E1 PUSH2 0x11DD JUMP JUMPDEST JUMPDEST SWAP1 POP PUSH1 0x20 MUL ADD PUSH1 0x20 DUP2 ADD SWAP1 PUSH2 0x3F7 SWAP2 SWAP1 PUSH2 0xBAF JUMP JUMPDEST DUP9 DUP9 DUP7 PUSH1 0xFF AND DUP2 DUP2 LT PUSH2 0x40D JUMPI PUSH2 0x40C PUSH2 0x11DD JUMP JUMPDEST JUMPDEST SWAP1 POP PUSH1 0x20 MUL ADD CALLDATALOAD PUSH1 0x40 MLOAD DUP5 PUSH4 0xFFFFFFFF AND PUSH1 0xE0 SHL DUP2 MSTORE PUSH1 0x4 ADD PUSH2 0x432 SWAP4 SWAP3 SWAP2 SWAP1 PUSH2 0xF60 JUMP JUMPDEST PUSH1 0x20 PUSH1 0x40 MLOAD DUP1 DUP4 SUB DUP2 PUSH1 0x0 DUP8 DUP1 EXTCODESIZE ISZERO DUP1 ISZERO PUSH2 0x44C JUMPI PUSH1 0x0 DUP1 REVERT JUMPDEST POP GAS CALL ISZERO DUP1 ISZERO PUSH2 0x460 JUMPI RETURNDATASIZE PUSH1 0x0 DUP1 RETURNDATACOPY RETURNDATASIZE PUSH1 0x0 REVERT JUMPDEST POP POP POP POP PUSH1 0x40 MLOAD RETURNDATASIZE PUSH1 0x1F NOT PUSH1 0x1F DUP3 ADD AND DUP3 ADD DUP1 PUSH1 0x40 MSTORE POP DUP2 ADD SWAP1 PUSH2 0x484 SWAP2 SWAP1 PUSH2 0xDB9 JUMP JUMPDEST POP DUP1 DUP1 PUSH2 0x490 SWAP1 PUSH2 0x1184 JUMP JUMPDEST SWAP2 POP POP PUSH2 0x3A1 JUMP JUMPDEST POP POP POP POP POP POP POP POP JUMP JUMPDEST PUSH2 0x4AA PUSH2 0x83D JUMP JUMPDEST PUSH2 0x4B4 PUSH1 0x0 PUSH2 0x8BB JUMP JUMPDEST JUMP JUMPDEST PUSH2 0x4BE PUSH2 0x83D JUMP JUMPDEST DUP2 DUP2 SWAP1 POP DUP5 DUP5 SWAP1 POP EQ PUSH2 0x506 JUMPI PUSH1 0x40 MLOAD PUSH32 0x8C379A000000000000000000000000000000000000000000000000000000000 DUP2 MSTORE PUSH1 0x4 ADD PUSH2 0x4FD SWAP1 PUSH2 0x1032 JUMP JUMPDEST PUSH1 0x40 MLOAD DUP1 SWAP2 SUB SWAP1 REVERT JUMPDEST PUSH1 0x0 PUSH2 0x512 DUP4 DUP4 PUSH2 0x765 JUMP JUMPDEST SWAP1 POP DUP1 CALLVALUE EQ PUSH2 0x556 JUMPI PUSH1 0x40 MLOAD PUSH32 0x8C379A000000000000000000000000000000000000000000000000000000000 DUP2 MSTORE PUSH1 0x4 ADD PUSH2 0x54D SWAP1 PUSH2 0xFB2 JUMP JUMPDEST PUSH1 0x40 MLOAD DUP1 SWAP2 SUB SWAP1 REVERT JUMPDEST PUSH1 0x0 JUMPDEST DUP6 DUP6 SWAP1 POP DUP2 LT ISZERO PUSH2 0x5FE JUMPI DUP6 DUP6 DUP3 DUP2 DUP2 LT PUSH2 0x577 JUMPI PUSH2 0x576 PUSH2 0x11DD JUMP JUMPDEST JUMPDEST SWAP1 POP PUSH1 0x20 MUL ADD PUSH1 0x20 DUP2 ADD SWAP1 PUSH2 0x58C SWAP2 SWAP1 PUSH2 0xBDC JUMP JUMPDEST PUSH20 0xFFFFFFFFFFFFFFFFFFFFFFFFFFFFFFFFFFFFFFFF AND PUSH2 0x8FC DUP6 DUP6 DUP5 DUP2 DUP2 LT PUSH2 0x5B8 JUMPI PUSH2 0x5B7 PUSH2 0x11DD JUMP JUMPDEST JUMPDEST SWAP1 POP PUSH1 0x20 MUL ADD CALLDATALOAD SWAP1 DUP2 ISZERO MUL SWAP1 PUSH1 0x40 MLOAD PUSH1 0x0 PUSH1 0x40 MLOAD DUP1 DUP4 SUB DUP2 DUP6 DUP9 DUP9 CALL SWAP4 POP POP POP POP ISZERO DUP1 ISZERO PUSH2 0x5EA JUMPI RETURNDATASIZE PUSH1 0x0 DUP1 RETURNDATACOPY RETURNDATASIZE PUSH1 0x0 REVERT JUMPDEST POP DUP1 DUP1 PUSH2 0x5F6 SWAP1 PUSH2 0x113B JUMP JUMPDEST SWAP2 POP POP PUSH2 0x559 JUMP JUMPDEST POP POP POP POP POP POP JUMP JUMPDEST PUSH1 0x0 PUSH2 0x610 PUSH2 0x83D JUMP JUMPDEST DUP3 DUP3 PUSH1 0x1 SWAP2 SWAP1 PUSH2 0x621 SWAP3 SWAP2 SWAP1 PUSH2 0x987 JUMP JUMPDEST POP PUSH1 0x1 SWAP1 POP SWAP3 SWAP2 POP POP JUMP JUMPDEST PUSH1 0x0 DUP1 PUSH1 0x0 SWAP1 SLOAD SWAP1 PUSH2 0x100 EXP SWAP1 DIV PUSH20 0xFFFFFFFFFFFFFFFFFFFFFFFFFFFFFFFFFFFFFFFF AND SWAP1 POP SWAP1 JUMP JUMPDEST PUSH1 0x0 DUP1 PUSH1 0x1 DUP1 SLOAD DUP1 PUSH1 0x20 MUL PUSH1 0x20 ADD PUSH1 0x40 MLOAD SWAP1 DUP2 ADD PUSH1 0x40 MSTORE DUP1 SWAP3 SWAP2 SWAP1 DUP2 DUP2 MSTORE PUSH1 0x20 ADD DUP3 DUP1 SLOAD DUP1 ISZERO PUSH2 0x6DA JUMPI PUSH1 0x20 MUL DUP3 ADD SWAP2 SWAP1 PUSH1 0x0 MSTORE PUSH1 0x20 PUSH1 0x0 KECCAK256 SWAP1 JUMPDEST DUP2 PUSH1 0x0 SWAP1 SLOAD SWAP1 PUSH2 0x100 EXP SWAP1 DIV PUSH20 0xFFFFFFFFFFFFFFFFFFFFFFFFFFFFFFFFFFFFFFFF AND PUSH20 0xFFFFFFFFFFFFFFFFFFFFFFFFFFFFFFFFFFFFFFFF AND DUP2 MSTORE PUSH1 0x20 ADD SWAP1 PUSH1 0x1 ADD SWAP1 DUP1 DUP4 GT PUSH2 0x690 JUMPI JUMPDEST POP POP POP POP POP SWAP1 POP PUSH1 0x0 JUMPDEST DUP2 MLOAD DUP2 LT ISZERO PUSH2 0x759 JUMPI DUP4 PUSH20 0xFFFFFFFFFFFFFFFFFFFFFFFFFFFFFFFFFFFFFFFF AND DUP3 DUP3 DUP2 MLOAD DUP2 LT PUSH2 0x717 JUMPI PUSH2 0x716 PUSH2 0x11DD JUMP JUMPDEST JUMPDEST PUSH1 0x20 MUL PUSH1 0x20 ADD ADD MLOAD PUSH20 0xFFFFFFFFFFFFFFFFFFFFFFFFFFFFFFFFFFFFFFFF AND EQ ISZERO PUSH2 0x746 JUMPI PUSH1 0x1 SWAP3 POP POP POP PUSH2 0x760 JUMP JUMPDEST DUP1 DUP1 PUSH2 0x751 SWAP1 PUSH2 0x113B JUMP JUMPDEST SWAP2 POP POP PUSH2 0x6E4 JUMP JUMPDEST POP PUSH1 0x0 SWAP2 POP POP JUMPDEST SWAP2 SWAP1 POP JUMP JUMPDEST PUSH1 0x0 DUP1 PUSH1 0x0 SWAP1 POP JUMPDEST DUP4 DUP4 SWAP1 POP DUP2 LT ISZERO PUSH2 0x7B2 JUMPI DUP4 DUP4 DUP3 DUP2 DUP2 LT PUSH2 0x78B JUMPI PUSH2 0x78A PUSH2 0x11DD JUMP JUMPDEST JUMPDEST SWAP1 POP PUSH1 0x20 MUL ADD CALLDATALOAD DUP3 PUSH2 0x79D SWAP2 SWAP1 PUSH2 0x107E JUMP JUMPDEST SWAP2 POP DUP1 DUP1 PUSH2 0x7AA SWAP1 PUSH2 0x113B JUMP JUMPDEST SWAP2 POP POP PUSH2 0x76D JUMP JUMPDEST POP SWAP3 SWAP2 POP POP JUMP JUMPDEST PUSH2 0x7C1 PUSH2 0x83D JUMP JUMPDEST PUSH1 0x0 PUSH20 0xFFFFFFFFFFFFFFFFFFFFFFFFFFFFFFFFFFFFFFFF AND DUP2 PUSH20 0xFFFFFFFFFFFFFFFFFFFFFFFFFFFFFFFFFFFFFFFF AND EQ ISZERO PUSH2 0x831 JUMPI PUSH1 0x40 MLOAD PUSH32 0x8C379A000000000000000000000000000000000000000000000000000000000 DUP2 MSTORE PUSH1 0x4 ADD PUSH2 0x828 SWAP1 PUSH2 0xFD2 JUMP JUMPDEST PUSH1 0x40 MLOAD DUP1 SWAP2 SUB SWAP1 REVERT JUMPDEST PUSH2 0x83A DUP2 PUSH2 0x8BB JUMP JUMPDEST POP JUMP JUMPDEST PUSH2 0x845 PUSH2 0x97F JUMP JUMPDEST PUSH20 0xFFFFFFFFFFFFFFFFFFFFFFFFFFFFFFFFFFFFFFFF AND PUSH2 0x863 PUSH2 0x62C JUMP JUMPDEST PUSH20 0xFFFFFFFFFFFFFFFFFFFFFFFFFFFFFFFFFFFFFFFF AND EQ PUSH2 0x8B9 JUMPI PUSH1 0x40 MLOAD PUSH32 0x8C379A000000000000000000000000000000000000000000000000000000000 DUP2 MSTORE PUSH1 0x4 ADD PUSH2 0x8B0 SWAP1 PUSH2 0xFF2 JUMP JUMPDEST PUSH1 0x40 MLOAD DUP1 SWAP2 SUB SWAP1 REVERT JUMPDEST JUMP JUMPDEST PUSH1 0x0 DUP1 PUSH1 0x0 SWAP1 SLOAD SWAP1 PUSH2 0x100 EXP SWAP1 DIV PUSH20 0xFFFFFFFFFFFFFFFFFFFFFFFFFFFFFFFFFFFFFFFF AND SWAP1 POP DUP2 PUSH1 0x0 DUP1 PUSH2 0x100 EXP DUP2 SLOAD DUP2 PUSH20 0xFFFFFFFFFFFFFFFFFFFFFFFFFFFFFFFFFFFFFFFF MUL NOT AND SWAP1 DUP4 PUSH20 0xFFFFFFFFFFFFFFFFFFFFFFFFFFFFFFFFFFFFFFFF AND MUL OR SWAP1 SSTORE POP DUP2 PUSH20 0xFFFFFFFFFFFFFFFFFFFFFFFFFFFFFFFFFFFFFFFF AND DUP2 PUSH20 0xFFFFFFFFFFFFFFFFFFFFFFFFFFFFFFFFFFFFFFFF AND PUSH32 0x8BE0079C531659141344CD1FD0A4F28419497F9722A3DAAFE3B4186F6B6457E0 PUSH1 0x40 MLOAD PUSH1 0x40 MLOAD DUP1 SWAP2 SUB SWAP1 LOG3 POP POP JUMP JUMPDEST PUSH1 0x0 CALLER SWAP1 POP SWAP1 JUMP JUMPDEST DUP3 DUP1 SLOAD DUP3 DUP3 SSTORE SWAP1 PUSH1 0x0 MSTORE PUSH1 0x20 PUSH1 0x0 KECCAK256 SWAP1 DUP2 ADD SWAP3 DUP3 ISZERO PUSH2 0xA16 JUMPI SWAP2 PUSH1 0x20 MUL DUP3 ADD JUMPDEST DUP3 DUP2 GT ISZERO PUSH2 0xA15 JUMPI DUP3 CALLDATALOAD PUSH20 0xFFFFFFFFFFFFFFFFFFFFFFFFFFFFFFFFFFFFFFFF AND DUP3 PUSH1 0x0 PUSH2 0x100 EXP DUP2 SLOAD DUP2 PUSH20 0xFFFFFFFFFFFFFFFFFFFFFFFFFFFFFFFFFFFFFFFF MUL NOT AND SWAP1 DUP4 PUSH20 0xFFFFFFFFFFFFFFFFFFFFFFFFFFFFFFFFFFFFFFFF AND MUL OR SWAP1 SSTORE POP SWAP2 PUSH1 0x20 ADD SWAP2 SWAP1 PUSH1 0x1 ADD SWAP1 PUSH2 0x9A7 JUMP JUMPDEST JUMPDEST POP SWAP1 POP PUSH2 0xA23 SWAP2 SWAP1 PUSH2 0xA27 JUMP JUMPDEST POP SWAP1 JUMP JUMPDEST JUMPDEST DUP1 DUP3 GT ISZERO PUSH2 0xA40 JUMPI PUSH1 0x0 DUP2 PUSH1 0x0 SWAP1 SSTORE POP PUSH1 0x1 ADD PUSH2 0xA28 JUMP JUMPDEST POP SWAP1 JUMP JUMPDEST PUSH1 0x0 DUP2 CALLDATALOAD SWAP1 POP PUSH2 0xA53 DUP2 PUSH2 0x133E JUMP JUMPDEST SWAP3 SWAP2 POP POP JUMP JUMPDEST PUSH1 0x0 DUP2 CALLDATALOAD SWAP1 POP PUSH2 0xA68 DUP2 PUSH2 0x1355 JUMP JUMPDEST SWAP3 SWAP2 POP POP JUMP JUMPDEST PUSH1 0x0 DUP1 DUP4 PUSH1 0x1F DUP5 ADD SLT PUSH2 0xA84 JUMPI PUSH2 0xA83 PUSH2 0x1211 JUMP JUMPDEST JUMPDEST DUP3 CALLDATALOAD SWAP1 POP PUSH8 0xFFFFFFFFFFFFFFFF DUP2 GT ISZERO PUSH2 0xAA1 JUMPI PUSH2 0xAA0 PUSH2 0x120C JUMP JUMPDEST JUMPDEST PUSH1 0x20 DUP4 ADD SWAP2 POP DUP4 PUSH1 0x20 DUP3 MUL DUP4 ADD GT ISZERO PUSH2 0xABD JUMPI PUSH2 0xABC PUSH2 0x1216 JUMP JUMPDEST JUMPDEST SWAP3 POP SWAP3 SWAP1 POP JUMP JUMPDEST PUSH1 0x0 DUP1 DUP4 PUSH1 0x1F DUP5 ADD SLT PUSH2 0xADA JUMPI PUSH2 0xAD9 PUSH2 0x1211 JUMP JUMPDEST JUMPDEST DUP3 CALLDATALOAD SWAP1 POP PUSH8 0xFFFFFFFFFFFFFFFF DUP2 GT ISZERO PUSH2 0xAF7 JUMPI PUSH2 0xAF6 PUSH2 0x120C JUMP JUMPDEST JUMPDEST PUSH1 0x20 DUP4 ADD SWAP2 POP DUP4 PUSH1 0x20 DUP3 MUL DUP4 ADD GT ISZERO PUSH2 0xB13 JUMPI PUSH2 0xB12 PUSH2 0x1216 JUMP JUMPDEST JUMPDEST SWAP3 POP SWAP3 SWAP1 POP JUMP JUMPDEST PUSH1 0x0 DUP1 DUP4 PUSH1 0x1F DUP5 ADD SLT PUSH2 0xB30 JUMPI PUSH2 0xB2F PUSH2 0x1211 JUMP JUMPDEST JUMPDEST DUP3 CALLDATALOAD SWAP1 POP PUSH8 0xFFFFFFFFFFFFFFFF DUP2 GT ISZERO PUSH2 0xB4D JUMPI PUSH2 0xB4C PUSH2 0x120C JUMP JUMPDEST JUMPDEST PUSH1 0x20 DUP4 ADD SWAP2 POP DUP4 PUSH1 0x20 DUP3 MUL DUP4 ADD GT ISZERO PUSH2 0xB69 JUMPI PUSH2 0xB68 PUSH2 0x1216 JUMP JUMPDEST JUMPDEST SWAP3 POP SWAP3 SWAP1 POP JUMP JUMPDEST PUSH1 0x0 DUP2 MLOAD SWAP1 POP PUSH2 0xB7F DUP2 PUSH2 0x136C JUMP JUMPDEST SWAP3 SWAP2 POP POP JUMP JUMPDEST PUSH1 0x0 DUP2 CALLDATALOAD SWAP1 POP PUSH2 0xB94 DUP2 PUSH2 0x1383 JUMP JUMPDEST SWAP3 SWAP2 POP POP JUMP JUMPDEST PUSH1 0x0 DUP2 MLOAD SWAP1 POP PUSH2 0xBA9 DUP2 PUSH2 0x1383 JUMP JUMPDEST SWAP3 SWAP2 POP POP JUMP JUMPDEST PUSH1 0x0 PUSH1 0x20 DUP3 DUP5 SUB SLT ISZERO PUSH2 0xBC5 JUMPI PUSH2 0xBC4 PUSH2 0x1220 JUMP JUMPDEST JUMPDEST PUSH1 0x0 PUSH2 0xBD3 DUP5 DUP3 DUP6 ADD PUSH2 0xA44 JUMP JUMPDEST SWAP2 POP POP SWAP3 SWAP2 POP POP JUMP JUMPDEST PUSH1 0x0 PUSH1 0x20 DUP3 DUP5 SUB SLT ISZERO PUSH2 0xBF2 JUMPI PUSH2 0xBF1 PUSH2 0x1220 JUMP JUMPDEST JUMPDEST PUSH1 0x0 PUSH2 0xC00 DUP5 DUP3 DUP6 ADD PUSH2 0xA59 JUMP JUMPDEST SWAP2 POP POP SWAP3 SWAP2 POP POP JUMP JUMPDEST PUSH1 0x0 DUP1 PUSH1 0x0 DUP1 PUSH1 0x0 PUSH1 0x60 DUP7 DUP9 SUB SLT ISZERO PUSH2 0xC25 JUMPI PUSH2 0xC24 PUSH2 0x1220 JUMP JUMPDEST JUMPDEST PUSH1 0x0 PUSH2 0xC33 DUP9 DUP3 DUP10 ADD PUSH2 0xA44 JUMP JUMPDEST SWAP6 POP POP PUSH1 0x20 DUP7 ADD CALLDATALOAD PUSH8 0xFFFFFFFFFFFFFFFF DUP2 GT ISZERO PUSH2 0xC54 JUMPI PUSH2 0xC53 PUSH2 0x121B JUMP JUMPDEST JUMPDEST PUSH2 0xC60 DUP9 DUP3 DUP10 ADD PUSH2 0xA6E JUMP JUMPDEST SWAP5 POP SWAP5 POP POP PUSH1 0x40 DUP7 ADD CALLDATALOAD PUSH8 0xFFFFFFFFFFFFFFFF DUP2 GT ISZERO PUSH2 0xC83 JUMPI PUSH2 0xC82 PUSH2 0x121B JUMP JUMPDEST JUMPDEST PUSH2 0xC8F DUP9 DUP3 DUP10 ADD PUSH2 0xB1A JUMP JUMPDEST SWAP3 POP SWAP3 POP POP SWAP3 SWAP6 POP SWAP3 SWAP6 SWAP1 SWAP4 POP JUMP JUMPDEST PUSH1 0x0 DUP1 PUSH1 0x20 DUP4 DUP6 SUB SLT ISZERO PUSH2 0xCB5 JUMPI PUSH2 0xCB4 PUSH2 0x1220 JUMP JUMPDEST JUMPDEST PUSH1 0x0 DUP4 ADD CALLDATALOAD PUSH8 0xFFFFFFFFFFFFFFFF DUP2 GT ISZERO PUSH2 0xCD3 JUMPI PUSH2 0xCD2 PUSH2 0x121B JUMP JUMPDEST JUMPDEST PUSH2 0xCDF DUP6 DUP3 DUP7 ADD PUSH2 0xA6E JUMP JUMPDEST SWAP3 POP SWAP3 POP POP SWAP3 POP SWAP3 SWAP1 POP JUMP JUMPDEST PUSH1 0x0 DUP1 PUSH1 0x0 DUP1 PUSH1 0x40 DUP6 DUP8 SUB SLT ISZERO PUSH2 0xD05 JUMPI PUSH2 0xD04 PUSH2 0x1220 JUMP JUMPDEST JUMPDEST PUSH1 0x0 DUP6 ADD CALLDATALOAD PUSH8 0xFFFFFFFFFFFFFFFF DUP2 GT ISZERO PUSH2 0xD23 JUMPI PUSH2 0xD22 PUSH2 0x121B JUMP JUMPDEST JUMPDEST PUSH2 0xD2F DUP8 DUP3 DUP9 ADD PUSH2 0xAC4 JUMP JUMPDEST SWAP5 POP SWAP5 POP POP PUSH1 0x20 DUP6 ADD CALLDATALOAD PUSH8 0xFFFFFFFFFFFFFFFF DUP2 GT ISZERO PUSH2 0xD52 JUMPI PUSH2 0xD51 PUSH2 0x121B JUMP JUMPDEST JUMPDEST PUSH2 0xD5E DUP8 DUP3 DUP9 ADD PUSH2 0xB1A JUMP JUMPDEST SWAP3 POP SWAP3 POP POP SWAP3 SWAP6 SWAP2 SWAP5 POP SWAP3 POP JUMP JUMPDEST PUSH1 0x0 DUP1 PUSH1 0x20 DUP4 DUP6 SUB SLT ISZERO PUSH2 0xD83 JUMPI PUSH2 0xD82 PUSH2 0x1220 JUMP JUMPDEST JUMPDEST PUSH1 0x0 DUP4 ADD CALLDATALOAD PUSH8 0xFFFFFFFFFFFFFFFF DUP2 GT ISZERO PUSH2 0xDA1 JUMPI PUSH2 0xDA0 PUSH2 0x121B JUMP JUMPDEST JUMPDEST PUSH2 0xDAD DUP6 DUP3 DUP7 ADD PUSH2 0xB1A JUMP JUMPDEST SWAP3 POP SWAP3 POP POP SWAP3 POP SWAP3 SWAP1 POP JUMP JUMPDEST PUSH1 0x0 PUSH1 0x20 DUP3 DUP5 SUB SLT ISZERO PUSH2 0xDCF JUMPI PUSH2 0xDCE PUSH2 0x1220 JUMP JUMPDEST JUMPDEST PUSH1 0x0 PUSH2 0xDDD DUP5 DUP3 DUP6 ADD PUSH2 0xB70 JUMP JUMPDEST SWAP2 POP POP SWAP3 SWAP2 POP POP JUMP JUMPDEST PUSH1 0x0 PUSH1 0x20 DUP3 DUP5 SUB SLT ISZERO PUSH2 0xDFC JUMPI PUSH2 0xDFB PUSH2 0x1220 JUMP JUMPDEST JUMPDEST PUSH1 0x0 PUSH2 0xE0A DUP5 DUP3 DUP6 ADD PUSH2 0xB85 JUMP JUMPDEST SWAP2 POP POP SWAP3 SWAP2 POP POP JUMP JUMPDEST PUSH1 0x0 PUSH1 0x20 DUP3 DUP5 SUB SLT ISZERO PUSH2 0xE29 JUMPI PUSH2 0xE28 PUSH2 0x1220 JUMP JUMPDEST JUMPDEST PUSH1 0x0 PUSH2 0xE37 DUP5 DUP3 DUP6 ADD PUSH2 0xB9A JUMP JUMPDEST SWAP2 POP POP SWAP3 SWAP2 POP POP JUMP JUMPDEST PUSH2 0xE49 DUP2 PUSH2 0x10D4 JUMP JUMPDEST DUP3 MSTORE POP POP JUMP JUMPDEST PUSH2 0xE58 DUP2 PUSH2 0x10F8 JUMP JUMPDEST DUP3 MSTORE POP POP JUMP JUMPDEST PUSH1 0x0 PUSH2 0xE6B PUSH1 0x15 DUP4 PUSH2 0x106D JUMP JUMPDEST SWAP2 POP PUSH2 0xE76 DUP3 PUSH2 0x1225 JUMP JUMPDEST PUSH1 0x20 DUP3 ADD SWAP1 POP SWAP2 SWAP1 POP JUMP JUMPDEST PUSH1 0x0 PUSH2 0xE8E PUSH1 0x26 DUP4 PUSH2 0x106D JUMP JUMPDEST SWAP2 POP PUSH2 0xE99 DUP3 PUSH2 0x124E JUMP JUMPDEST PUSH1 0x40 DUP3 ADD SWAP1 POP SWAP2 SWAP1 POP JUMP JUMPDEST PUSH1 0x0 PUSH2 0xEB1 PUSH1 0x20 DUP4 PUSH2 0x106D JUMP JUMPDEST SWAP2 POP PUSH2 0xEBC DUP3 PUSH2 0x129D JUMP JUMPDEST PUSH1 0x20 DUP3 ADD SWAP1 POP SWAP2 SWAP1 POP JUMP JUMPDEST PUSH1 0x0 PUSH2 0xED4 PUSH1 0x18 DUP4 PUSH2 0x106D JUMP JUMPDEST SWAP2 POP PUSH2 0xEDF DUP3 PUSH2 0x12C6 JUMP JUMPDEST PUSH1 0x20 DUP3 ADD SWAP1 POP SWAP2 SWAP1 POP JUMP JUMPDEST PUSH1 0x0 PUSH2 0xEF7 PUSH1 0x2A DUP4 PUSH2 0x106D JUMP JUMPDEST SWAP2 POP PUSH2 0xF02 DUP3 PUSH2 0x12EF JUMP JUMPDEST PUSH1 0x40 DUP3 ADD SWAP1 POP SWAP2 SWAP1 POP JUMP JUMPDEST PUSH2 0xF16 DUP2 PUSH2 0x1124 JUMP JUMPDEST DUP3 MSTORE POP POP JUMP JUMPDEST PUSH1 0x0 PUSH1 0x20 DUP3 ADD SWAP1 POP PUSH2 0xF31 PUSH1 0x0 DUP4 ADD DUP5 PUSH2 0xE40 JUMP JUMPDEST SWAP3 SWAP2 POP POP JUMP JUMPDEST PUSH1 0x0 PUSH1 0x40 DUP3 ADD SWAP1 POP PUSH2 0xF4C PUSH1 0x0 DUP4 ADD DUP6 PUSH2 0xE40 JUMP JUMPDEST PUSH2 0xF59 PUSH1 0x20 DUP4 ADD DUP5 PUSH2 0xE40 JUMP JUMPDEST SWAP4 SWAP3 POP POP POP JUMP JUMPDEST PUSH1 0x0 PUSH1 0x60 DUP3 ADD SWAP1 POP PUSH2 0xF75 PUSH1 0x0 DUP4 ADD DUP7 PUSH2 0xE40 JUMP JUMPDEST PUSH2 0xF82 PUSH1 0x20 DUP4 ADD DUP6 PUSH2 0xE40 JUMP JUMPDEST PUSH2 0xF8F PUSH1 0x40 DUP4 ADD DUP5 PUSH2 0xF0D JUMP JUMPDEST SWAP5 SWAP4 POP POP POP POP JUMP JUMPDEST PUSH1 0x0 PUSH1 0x20 DUP3 ADD SWAP1 POP PUSH2 0xFAC PUSH1 0x0 DUP4 ADD DUP5 PUSH2 0xE4F JUMP JUMPDEST SWAP3 SWAP2 POP POP JUMP JUMPDEST PUSH1 0x0 PUSH1 0x20 DUP3 ADD SWAP1 POP DUP2 DUP2 SUB PUSH1 0x0 DUP4 ADD MSTORE PUSH2 0xFCB DUP2 PUSH2 0xE5E JUMP JUMPDEST SWAP1 POP SWAP2 SWAP1 POP JUMP JUMPDEST PUSH1 0x0 PUSH1 0x20 DUP3 ADD SWAP1 POP DUP2 DUP2 SUB PUSH1 0x0 DUP4 ADD MSTORE PUSH2 0xFEB DUP2 PUSH2 0xE81 JUMP JUMPDEST SWAP1 POP SWAP2 SWAP1 POP JUMP JUMPDEST PUSH1 0x0 PUSH1 0x20 DUP3 ADD SWAP1 POP DUP2 DUP2 SUB PUSH1 0x0 DUP4 ADD MSTORE PUSH2 0x100B DUP2 PUSH2 0xEA4 JUMP JUMPDEST SWAP1 POP SWAP2 SWAP1 POP JUMP JUMPDEST PUSH1 0x0 PUSH1 0x20 DUP3 ADD SWAP1 POP DUP2 DUP2 SUB PUSH1 0x0 DUP4 ADD MSTORE PUSH2 0x102B DUP2 PUSH2 0xEC7 JUMP JUMPDEST SWAP1 POP SWAP2 SWAP1 POP JUMP JUMPDEST PUSH1 0x0 PUSH1 0x20 DUP3 ADD SWAP1 POP DUP2 DUP2 SUB PUSH1 0x0 DUP4 ADD MSTORE PUSH2 0x104B DUP2 PUSH2 0xEEA JUMP JUMPDEST SWAP1 POP SWAP2 SWAP1 POP JUMP JUMPDEST PUSH1 0x0 PUSH1 0x20 DUP3 ADD SWAP1 POP PUSH2 0x1067 PUSH1 0x0 DUP4 ADD DUP5 PUSH2 0xF0D JUMP JUMPDEST SWAP3 SWAP2 POP POP JUMP JUMPDEST PUSH1 0x0 DUP3 DUP3 MSTORE PUSH1 0x20 DUP3 ADD SWAP1 POP SWAP3 SWAP2 POP POP JUMP JUMPDEST PUSH1 0x0 PUSH2 0x1089 DUP3 PUSH2 0x1124 JUMP JUMPDEST SWAP2 POP PUSH2 0x1094 DUP4 PUSH2 0x1124 JUMP JUMPDEST SWAP3 POP DUP3 PUSH32 0xFFFFFFFFFFFFFFFFFFFFFFFFFFFFFFFFFFFFFFFFFFFFFFFFFFFFFFFFFFFFFFFF SUB DUP3 GT ISZERO PUSH2 0x10C9 JUMPI PUSH2 0x10C8 PUSH2 0x11AE JUMP JUMPDEST JUMPDEST DUP3 DUP3 ADD SWAP1 POP SWAP3 SWAP2 POP POP JUMP JUMPDEST PUSH1 0x0 PUSH2 0x10DF DUP3 PUSH2 0x1104 JUMP JUMPDEST SWAP1 POP SWAP2 SWAP1 POP JUMP JUMPDEST PUSH1 0x0 PUSH2 0x10F1 DUP3 PUSH2 0x1104 JUMP JUMPDEST SWAP1 POP SWAP2 SWAP1 POP JUMP JUMPDEST PUSH1 0x0 DUP2 ISZERO ISZERO SWAP1 POP SWAP2 SWAP1 POP JUMP JUMPDEST PUSH1 0x0 PUSH20 0xFFFFFFFFFFFFFFFFFFFFFFFFFFFFFFFFFFFFFFFF DUP3 AND SWAP1 POP SWAP2 SWAP1 POP JUMP JUMPDEST PUSH1 0x0 DUP2 SWAP1 POP SWAP2 SWAP1 POP JUMP JUMPDEST PUSH1 0x0 PUSH1 0xFF DUP3 AND SWAP1 POP SWAP2 SWAP1 POP JUMP JUMPDEST PUSH1 0x0 PUSH2 0x1146 DUP3 PUSH2 0x1124 JUMP JUMPDEST SWAP2 POP PUSH32 0xFFFFFFFFFFFFFFFFFFFFFFFFFFFFFFFFFFFFFFFFFFFFFFFFFFFFFFFFFFFFFFFF DUP3 EQ ISZERO PUSH2 0x1179 JUMPI PUSH2 0x1178 PUSH2 0x11AE JUMP JUMPDEST JUMPDEST PUSH1 0x1 DUP3 ADD SWAP1 POP SWAP2 SWAP1 POP JUMP JUMPDEST PUSH1 0x0 PUSH2 0x118F DUP3 PUSH2 0x112E JUMP JUMPDEST SWAP2 POP PUSH1 0xFF DUP3 EQ ISZERO PUSH2 0x11A3 JUMPI PUSH2 0x11A2 PUSH2 0x11AE JUMP JUMPDEST JUMPDEST PUSH1 0x1 DUP3 ADD SWAP1 POP SWAP2 SWAP1 POP JUMP JUMPDEST PUSH32 0x4E487B7100000000000000000000000000000000000000000000000000000000 PUSH1 0x0 MSTORE PUSH1 0x11 PUSH1 0x4 MSTORE PUSH1 0x24 PUSH1 0x0 REVERT JUMPDEST PUSH32 0x4E487B7100000000000000000000000000000000000000000000000000000000 PUSH1 0x0 MSTORE PUSH1 0x32 PUSH1 0x4 MSTORE PUSH1 0x24 PUSH1 0x0 REVERT JUMPDEST PUSH1 0x0 DUP1 REVERT JUMPDEST PUSH1 0x0 DUP1 REVERT JUMPDEST PUSH1 0x0 DUP1 REVERT JUMPDEST PUSH1 0x0 DUP1 REVERT JUMPDEST PUSH1 0x0 DUP1 REVERT JUMPDEST PUSH32 0x5472616E7366657220616D6F756E74206572726F720000000000000000000000 PUSH1 0x0 DUP3 ADD MSTORE POP JUMP JUMPDEST PUSH32 0x4F776E61626C653A206E6577206F776E657220697320746865207A65726F2061 PUSH1 0x0 DUP3 ADD MSTORE PUSH32 0x6464726573730000000000000000000000000000000000000000000000000000 PUSH1 0x20 DUP3 ADD MSTORE POP JUMP JUMPDEST PUSH32 0x4F776E61626C653A2063616C6C6572206973206E6F7420746865206F776E6572 PUSH1 0x0 DUP3 ADD MSTORE POP JUMP JUMPDEST PUSH32 0x4E65656420417070726F766520455243323020746F6B656E0000000000000000 PUSH1 0x0 DUP3 ADD MSTORE POP JUMP JUMPDEST PUSH32 0x4C656E67746873206F662041646472657373657320616E6420416D6F756E7473 PUSH1 0x0 DUP3 ADD MSTORE PUSH32 0x204E4F5420455155414C00000000000000000000000000000000000000000000 PUSH1 0x20 DUP3 ADD MSTORE POP JUMP JUMPDEST PUSH2 0x1347 DUP2 PUSH2 0x10D4 JUMP JUMPDEST DUP2 EQ PUSH2 0x1352 JUMPI PUSH1 0x0 DUP1 REVERT JUMPDEST POP JUMP JUMPDEST PUSH2 0x135E DUP2 PUSH2 0x10E6 JUMP JUMPDEST DUP2 EQ PUSH2 0x1369 JUMPI PUSH1 0x0 DUP1 REVERT JUMPDEST POP JUMP JUMPDEST PUSH2 0x1375 DUP2 PUSH2 0x10F8 JUMP JUMPDEST DUP2 EQ PUSH2 0x1380 JUMPI PUSH1 0x0 DUP1 REVERT JUMPDEST POP JUMP JUMPDEST PUSH2 0x138C DUP2 PUSH2 0x1124 JUMP JUMPDEST DUP2 EQ PUSH2 0x1397 JUMPI PUSH1 0x0 DUP1 REVERT JUMPDEST POP JUMP INVALID LOG2 PUSH5 0x6970667358 0x22 SLT KECCAK256 RETURNDATACOPY 0xC9 0xD3 0xC7 0xF9 NUMBER PUSH29 0xE017F2CA36674E515F1D805D3AC8B49DEE0FEFFA44CFEDBC1564736F6C PUSH4 0x43000807 STOP CALLER "
				},
				"gasEstimates": {
					"creation": {
						"codeDepositCost": "1014400",
						"executionCost": "infinite",
						"totalCost": "infinite"
					},
					"external": {
						"Addlist(address[])": "infinite",
						"AirdropTransferToken(address,address[],uint256[])": "infinite",
						"AllowClaim(address)": "infinite",
						"WhiteList(uint256)": "4957",
						"getSum(uint256[])": "infinite",
						"multiTransferETH(address[],uint256[])": "infinite",
						"owner()": "2544",
						"renounceOwnership()": "30443",
						"transferOwnership(address)": "30835"
					}
				},
				"methodIdentifiers": {
					"Addlist(address[])": "8d55411f",
					"AirdropTransferToken(address,address[],uint256[])": "6a1d410c",
					"AllowClaim(address)": "a1f3b121",
					"WhiteList(uint256)": "1c795fb5",
					"getSum(uint256[])": "ccb8c1e0",
					"multiTransferETH(address[],uint256[])": "77988cf8",
					"owner()": "8da5cb5b",
					"renounceOwnership()": "715018a6",
					"transferOwnership(address)": "f2fde38b"
				}
			},
			"storageLayout": {
				"storage": [
					{
						"astId": 7,
						"contract": "Airdrop.sol:Airdrop",
						"label": "_owner",
						"offset": 0,
						"slot": "0",
						"type": "t_address"
					},
					{
						"astId": 224,
						"contract": "Airdrop.sol:Airdrop",
						"label": "WhiteList",
						"offset": 0,
						"slot": "1",
						"type": "t_array(t_address)dyn_storage"
					}
				],
				"types": {
					"t_address": {
						"encoding": "inplace",
						"label": "address",
						"numberOfBytes": "20"
					},
					"t_array(t_address)dyn_storage": {
						"base": "t_address",
						"encoding": "dynamic_array",
						"label": "address[]",
						"numberOfBytes": "32"
					}
				}
			},
			"userdoc": {
				"kind": "user",
				"methods": {
					"AirdropTransferToken(address,address[],uint256[])": {
						"notice": "向多个地址转账ERC20代币，使用前需要先授权"
					},
					"multiTransferETH(address[],uint256[])": {
						"notice": "向多个地址转账ETH"
					}
				},
				"version": 1
			}
		}
	}
}