{
	"data": {
		"bytecode": {
			"linkReferences": {},
			"object": "608060405234801561001057600080fd5b5061002d61002261003960201b60201c565b61004160201b60201c565b60018081905550610105565b600033905090565b60008060009054906101000a900473ffffffffffffffffffffffffffffffffffffffff169050816000806101000a81548173ffffffffffffffffffffffffffffffffffffffff021916908373ffffffffffffffffffffffffffffffffffffffff1602179055508173ffffffffffffffffffffffffffffffffffffffff168173ffffffffffffffffffffffffffffffffffffffff167f8be0079c531659141344cd1fd0a4f28419497f9722a3daafe3b4186f6b6457e060405160405180910390a35050565b6113a6806101146000396000f3fe60806040526004361061008a5760003560e01c8063b0d253ff11610059578063b0d253ff14610151578063d0e30db01461018e578063d75c45ad146101ad578063f2fde38b146101ea578063ffc3a769146102135761009b565b80632e1a7d4d146100a7578063715018a6146100e4578063722713f7146100fb5780638da5cb5b146101265761009b565b3661009b57610097610250565b5050005b6100a3610250565b5050005b3480156100b357600080fd5b506100ce60048036038101906100c99190610c47565b6103f6565b6040516100db9190610e35565b60405180910390f35b3480156100f057600080fd5b506100f96104ef565b005b34801561010757600080fd5b50610110610503565b60405161011d9190610f50565b60405180910390f35b34801561013257600080fd5b5061013b61050b565b6040516101489190610df1565b60405180910390f35b34801561015d57600080fd5b5061017860048036038101906101739190610ba2565b610534565b6040516101859190610f50565b60405180910390f35b610196610250565b6040516101a4929190610e0c565b60405180910390f35b3480156101b957600080fd5b506101d460048036038101906101cf9190610c47565b61054c565b6040516101e19190610df1565b60405180910390f35b3480156101f657600080fd5b50610211600480360381019061020c9190610ba2565b61057f565b005b34801561021f57600080fd5b5061023a60048036038101906102359190610bcf565b610603565b6040516102479190610e35565b60405180910390f35b60008061025b6106ff565b600061026d61026861074f565b610757565b905060008114156103215761028061074f565b6002600034815260200190815260200160002060006101000a81548173ffffffffffffffffffffffffffffffffffffffff021916908373ffffffffffffffffffffffffffffffffffffffff16021790555034600360006102de61074f565b73ffffffffffffffffffffffffffffffffffffffff1673ffffffffffffffffffffffffffffffffffffffff168152602001908152602001600020819055506103dc565b61032961074f565b6002600083346103399190611004565b815260200190815260200160002060006101000a81548173ffffffffffffffffffffffffffffffffffffffff021916908373ffffffffffffffffffffffffffffffffffffffff16021790555080346103919190611004565b6003600061039d61074f565b73ffffffffffffffffffffffffffffffffffffffff1673ffffffffffffffffffffffffffffffffffffffff168152602001908152602001600020819055505b6103e461074f565b3492509250506103f26107a0565b9091565b60006104006107a9565b60003373ffffffffffffffffffffffffffffffffffffffff168360405161042690610ddc565b60006040518083038185875af1925050503d8060008114610463576040519150601f19603f3d011682016040523d82523d6000602084013e610468565b606091505b50509050806104ac576040517f08c379a00000000000000000000000000000000000000000000000000000000081526004016104a390610f30565b60405180910390fd5b7f884edad9ce6fa2440d8a54cc123490eb96d2768479d49ff9c7366125a942436430846040516104dd929190610e0c565b60405180910390a16001915050919050565b6104f76107a9565b6105016000610827565b565b600047905090565b60008060009054906101000a900473ffffffffffffffffffffffffffffffffffffffff16905090565b60036020528060005260406000206000915090505481565b60026020528060005260406000206000915054906101000a900473ffffffffffffffffffffffffffffffffffffffff1681565b6105876107a9565b600073ffffffffffffffffffffffffffffffffffffffff168173ffffffffffffffffffffffffffffffffffffffff1614156105f7576040517f08c379a00000000000000000000000000000000000000000000000000000000081526004016105ee90610e70565b60405180910390fd5b61060081610827565b50565b60008061061661061161074f565b610757565b9050600081141561065c576040517f08c379a000000000000000000000000000000000000000000000000000000000815260040161065390610ef0565b60405180910390fd5b6000808451905060005b818110156106a35785818151811061068157610680611102565b5b6020026020010151836106949190611004565b92508080600101915050610666565b50828211156106e7576040517f08c379a00000000000000000000000000000000000000000000000000000000081526004016106de90610eb0565b60405180910390fd5b6106f186866108eb565b506001935050505092915050565b60026001541415610745576040517f08c379a000000000000000000000000000000000000000000000000000000000815260040161073c90610f10565b60405180910390fd5b6002600181905550565b600033905090565b6000600360008373ffffffffffffffffffffffffffffffffffffffff1673ffffffffffffffffffffffffffffffffffffffff168152602001908152602001600020549050919050565b60018081905550565b6107b161074f565b73ffffffffffffffffffffffffffffffffffffffff166107cf61050b565b73ffffffffffffffffffffffffffffffffffffffff1614610825576040517f08c379a000000000000000000000000000000000000000000000000000000000815260040161081c90610e90565b60405180910390fd5b565b60008060009054906101000a900473ffffffffffffffffffffffffffffffffffffffff169050816000806101000a81548173ffffffffffffffffffffffffffffffffffffffff021916908373ffffffffffffffffffffffffffffffffffffffff1602179055508173ffffffffffffffffffffffffffffffffffffffff168173ffffffffffffffffffffffffffffffffffffffff167f8be0079c531659141344cd1fd0a4f28419497f9722a3daafe3b4186f6b6457e060405160405180910390a35050565b60008151835114610931576040517f08c379a000000000000000000000000000000000000000000000000000000000815260040161092890610e50565b60405180910390fd5b60008351905060005b81811015610a3057600085828151811061095757610956611102565b5b602002602001015173ffffffffffffffffffffffffffffffffffffffff1685838151811061098857610987611102565b5b602002602001015160405161099c90610ddc565b60006040518083038185875af1925050503d80600081146109d9576040519150601f19603f3d011682016040523d82523d6000602084013e6109de565b606091505b5050905080610a22576040517f08c379a0000000000000000000000000000000000000000000000000000000008152600401610a1990610ed0565b60405180910390fd5b81806001019250505061093a565b50600191505092915050565b6000610a4f610a4a84610f90565b610f6b565b90508083825260208201905082856020860282011115610a7257610a71611165565b5b60005b85811015610aa25781610a888882610b1c565b845260208401935060208301925050600181019050610a75565b5050509392505050565b6000610abf610aba84610fbc565b610f6b565b90508083825260208201905082856020860282011115610ae257610ae1611165565b5b60005b85811015610b125781610af88882610b8d565b845260208401935060208301925050600181019050610ae5565b5050509392505050565b600081359050610b2b81611342565b92915050565b600082601f830112610b4657610b45611160565b5b8135610b56848260208601610a3c565b91505092915050565b600082601f830112610b7457610b73611160565b5b8135610b84848260208601610aac565b91505092915050565b600081359050610b9c81611359565b92915050565b600060208284031215610bb857610bb761116f565b5b6000610bc684828501610b1c565b91505092915050565b60008060408385031215610be657610be561116f565b5b600083013567ffffffffffffffff811115610c0457610c0361116a565b5b610c1085828601610b31565b925050602083013567ffffffffffffffff811115610c3157610c3061116a565b5b610c3d85828601610b5f565b9150509250929050565b600060208284031215610c5d57610c5c61116f565b5b6000610c6b84828501610b8d565b91505092915050565b610c7d8161105a565b82525050565b610c8c8161106c565b82525050565b6000610c9f603c83610ff3565b9150610caa82611185565b604082019050919050565b6000610cc2602683610ff3565b9150610ccd826111d4565b604082019050919050565b6000610ce5602083610ff3565b9150610cf082611223565b602082019050919050565b6000610d08602383610ff3565b9150610d138261124c565b604082019050919050565b6000610d2b600083610fe8565b9150610d368261129b565b600082019050919050565b6000610d4e601083610ff3565b9150610d598261129e565b602082019050919050565b6000610d71601283610ff3565b9150610d7c826112c7565b602082019050919050565b6000610d94601f83610ff3565b9150610d9f826112f0565b602082019050919050565b6000610db7600f83610ff3565b9150610dc282611319565b602082019050919050565b610dd681611098565b82525050565b6000610de782610d1e565b9150819050919050565b6000602082019050610e066000830184610c74565b92915050565b6000604082019050610e216000830185610c74565b610e2e6020830184610dcd565b9392505050565b6000602082019050610e4a6000830184610c83565b92915050565b60006020820190508181036000830152610e6981610c92565b9050919050565b60006020820190508181036000830152610e8981610cb5565b9050919050565b60006020820190508181036000830152610ea981610cd8565b9050919050565b60006020820190508181036000830152610ec981610cfb565b9050919050565b60006020820190508181036000830152610ee981610d41565b9050919050565b60006020820190508181036000830152610f0981610d64565b9050919050565b60006020820190508181036000830152610f2981610d87565b9050919050565b60006020820190508181036000830152610f4981610daa565b9050919050565b6000602082019050610f656000830184610dcd565b92915050565b6000610f75610f86565b9050610f8182826110a2565b919050565b6000604051905090565b600067ffffffffffffffff821115610fab57610faa611131565b5b602082029050602081019050919050565b600067ffffffffffffffff821115610fd757610fd6611131565b5b602082029050602081019050919050565b600081905092915050565b600082825260208201905092915050565b600061100f82611098565b915061101a83611098565b9250827fffffffffffffffffffffffffffffffffffffffffffffffffffffffffffffffff0382111561104f5761104e6110d3565b5b828201905092915050565b600061106582611078565b9050919050565b60008115159050919050565b600073ffffffffffffffffffffffffffffffffffffffff82169050919050565b6000819050919050565b6110ab82611174565b810181811067ffffffffffffffff821117156110ca576110c9611131565b5b80604052505050565b7f4e487b7100000000000000000000000000000000000000000000000000000000600052601160045260246000fd5b7f4e487b7100000000000000000000000000000000000000000000000000000000600052603260045260246000fd5b7f4e487b7100000000000000000000000000000000000000000000000000000000600052604160045260246000fd5b600080fd5b600080fd5b600080fd5b600080fd5b6000601f19601f8301169050919050565b7f4e756d626572206f6620726563697069656e7473206d7573742062652065717560008201527f616c20746f20746865206e756d626572206f6620616d6f756e74732e00000000602082015250565b7f4f776e61626c653a206e6577206f776e657220697320746865207a65726f206160008201527f6464726573730000000000000000000000000000000000000000000000000000602082015250565b7f4f776e61626c653a2063616c6c6572206973206e6f7420746865206f776e6572600082015250565b7f4164647265737320496e73756666696369656e74206465706f73697420616d6f60008201527f756e740000000000000000000000000000000000000000000000000000000000602082015250565b50565b7f7472616e73666572207375636365737300000000000000000000000000000000600082015250565b7f4e6f74206465706f73697420616d6f756e740000000000000000000000000000600082015250565b7f5265656e7472616e637947756172643a207265656e7472616e742063616c6c00600082015250565b7f7769746864726177206661696c65640000000000000000000000000000000000600082015250565b61134b8161105a565b811461135657600080fd5b50565b61136281611098565b811461136d57600080fd5b5056fea2646970667358221220188dbba30bf2c11b4117ef35aa667ab54c75b25b47387d0fec19437cf29b0eb864736f6c63430008070033",
			"opcodes": "PUSH1 0x80 PUSH1 0x40 MSTORE CALLVALUE DUP1 ISZERO PUSH2 0x10 JUMPI PUSH1 0x0 DUP1 REVERT JUMPDEST POP PUSH2 0x2D PUSH2 0x22 PUSH2 0x39 PUSH1 0x20 SHL PUSH1 0x20 SHR JUMP JUMPDEST PUSH2 0x41 PUSH1 0x20 SHL PUSH1 0x20 SHR JUMP JUMPDEST PUSH1 0x1 DUP1 DUP2 SWAP1 SSTORE POP PUSH2 0x105 JUMP JUMPDEST PUSH1 0x0 CALLER SWAP1 POP SWAP1 JUMP JUMPDEST PUSH1 0x0 DUP1 PUSH1 0x0 SWAP1 SLOAD SWAP1 PUSH2 0x100 EXP SWAP1 DIV PUSH20 0xFFFFFFFFFFFFFFFFFFFFFFFFFFFFFFFFFFFFFFFF AND SWAP1 POP DUP2 PUSH1 0x0 DUP1 PUSH2 0x100 EXP DUP2 SLOAD DUP2 PUSH20 0xFFFFFFFFFFFFFFFFFFFFFFFFFFFFFFFFFFFFFFFF MUL NOT AND SWAP1 DUP4 PUSH20 0xFFFFFFFFFFFFFFFFFFFFFFFFFFFFFFFFFFFFFFFF AND MUL OR SWAP1 SSTORE POP DUP2 PUSH20 0xFFFFFFFFFFFFFFFFFFFFFFFFFFFFFFFFFFFFFFFF AND DUP2 PUSH20 0xFFFFFFFFFFFFFFFFFFFFFFFFFFFFFFFFFFFFFFFF AND PUSH32 0x8BE0079C531659141344CD1FD0A4F28419497F9722A3DAAFE3B4186F6B6457E0 PUSH1 0x40 MLOAD PUSH1 0x40 MLOAD DUP1 SWAP2 SUB SWAP1 LOG3 POP POP JUMP JUMPDEST PUSH2 0x13A6 DUP1 PUSH2 0x114 PUSH1 0x0 CODECOPY PUSH1 0x0 RETURN INVALID PUSH1 0x80 PUSH1 0x40 MSTORE PUSH1 0x4 CALLDATASIZE LT PUSH2 0x8A JUMPI PUSH1 0x0 CALLDATALOAD PUSH1 0xE0 SHR DUP1 PUSH4 0xB0D253FF GT PUSH2 0x59 JUMPI DUP1 PUSH4 0xB0D253FF EQ PUSH2 0x151 JUMPI DUP1 PUSH4 0xD0E30DB0 EQ PUSH2 0x18E JUMPI DUP1 PUSH4 0xD75C45AD EQ PUSH2 0x1AD JUMPI DUP1 PUSH4 0xF2FDE38B EQ PUSH2 0x1EA JUMPI DUP1 PUSH4 0xFFC3A769 EQ PUSH2 0x213 JUMPI PUSH2 0x9B JUMP JUMPDEST DUP1 PUSH4 0x2E1A7D4D EQ PUSH2 0xA7 JUMPI DUP1 PUSH4 0x715018A6 EQ PUSH2 0xE4 JUMPI DUP1 PUSH4 0x722713F7 EQ PUSH2 0xFB JUMPI DUP1 PUSH4 0x8DA5CB5B EQ PUSH2 0x126 JUMPI PUSH2 0x9B JUMP JUMPDEST CALLDATASIZE PUSH2 0x9B JUMPI PUSH2 0x97 PUSH2 0x250 JUMP JUMPDEST POP POP STOP JUMPDEST PUSH2 0xA3 PUSH2 0x250 JUMP JUMPDEST POP POP STOP JUMPDEST CALLVALUE DUP1 ISZERO PUSH2 0xB3 JUMPI PUSH1 0x0 DUP1 REVERT JUMPDEST POP PUSH2 0xCE PUSH1 0x4 DUP1 CALLDATASIZE SUB DUP2 ADD SWAP1 PUSH2 0xC9 SWAP2 SWAP1 PUSH2 0xC47 JUMP JUMPDEST PUSH2 0x3F6 JUMP JUMPDEST PUSH1 0x40 MLOAD PUSH2 0xDB SWAP2 SWAP1 PUSH2 0xE35 JUMP JUMPDEST PUSH1 0x40 MLOAD DUP1 SWAP2 SUB SWAP1 RETURN JUMPDEST CALLVALUE DUP1 ISZERO PUSH2 0xF0 JUMPI PUSH1 0x0 DUP1 REVERT JUMPDEST POP PUSH2 0xF9 PUSH2 0x4EF JUMP JUMPDEST STOP JUMPDEST CALLVALUE DUP1 ISZERO PUSH2 0x107 JUMPI PUSH1 0x0 DUP1 REVERT JUMPDEST POP PUSH2 0x110 PUSH2 0x503 JUMP JUMPDEST PUSH1 0x40 MLOAD PUSH2 0x11D SWAP2 SWAP1 PUSH2 0xF50 JUMP JUMPDEST PUSH1 0x40 MLOAD DUP1 SWAP2 SUB SWAP1 RETURN JUMPDEST CALLVALUE DUP1 ISZERO PUSH2 0x132 JUMPI PUSH1 0x0 DUP1 REVERT JUMPDEST POP PUSH2 0x13B PUSH2 0x50B JUMP JUMPDEST PUSH1 0x40 MLOAD PUSH2 0x148 SWAP2 SWAP1 PUSH2 0xDF1 JUMP JUMPDEST PUSH1 0x40 MLOAD DUP1 SWAP2 SUB SWAP1 RETURN JUMPDEST CALLVALUE DUP1 ISZERO PUSH2 0x15D JUMPI PUSH1 0x0 DUP1 REVERT JUMPDEST POP PUSH2 0x178 PUSH1 0x4 DUP1 CALLDATASIZE SUB DUP2 ADD SWAP1 PUSH2 0x173 SWAP2 SWAP1 PUSH2 0xBA2 JUMP JUMPDEST PUSH2 0x534 JUMP JUMPDEST PUSH1 0x40 MLOAD PUSH2 0x185 SWAP2 SWAP1 PUSH2 0xF50 JUMP JUMPDEST PUSH1 0x40 MLOAD DUP1 SWAP2 SUB SWAP1 RETURN JUMPDEST PUSH2 0x196 PUSH2 0x250 JUMP JUMPDEST PUSH1 0x40 MLOAD PUSH2 0x1A4 SWAP3 SWAP2 SWAP1 PUSH2 0xE0C JUMP JUMPDEST PUSH1 0x40 MLOAD DUP1 SWAP2 SUB SWAP1 RETURN JUMPDEST CALLVALUE DUP1 ISZERO PUSH2 0x1B9 JUMPI PUSH1 0x0 DUP1 REVERT JUMPDEST POP PUSH2 0x1D4 PUSH1 0x4 DUP1 CALLDATASIZE SUB DUP2 ADD SWAP1 PUSH2 0x1CF SWAP2 SWAP1 PUSH2 0xC47 JUMP JUMPDEST PUSH2 0x54C JUMP JUMPDEST PUSH1 0x40 MLOAD PUSH2 0x1E1 SWAP2 SWAP1 PUSH2 0xDF1 JUMP JUMPDEST PUSH1 0x40 MLOAD DUP1 SWAP2 SUB SWAP1 RETURN JUMPDEST CALLVALUE DUP1 ISZERO PUSH2 0x1F6 JUMPI PUSH1 0x0 DUP1 REVERT JUMPDEST POP PUSH2 0x211 PUSH1 0x4 DUP1 CALLDATASIZE SUB DUP2 ADD SWAP1 PUSH2 0x20C SWAP2 SWAP1 PUSH2 0xBA2 JUMP JUMPDEST PUSH2 0x57F JUMP JUMPDEST STOP JUMPDEST CALLVALUE DUP1 ISZERO PUSH2 0x21F JUMPI PUSH1 0x0 DUP1 REVERT JUMPDEST POP PUSH2 0x23A PUSH1 0x4 DUP1 CALLDATASIZE SUB DUP2 ADD SWAP1 PUSH2 0x235 SWAP2 SWAP1 PUSH2 0xBCF JUMP JUMPDEST PUSH2 0x603 JUMP JUMPDEST PUSH1 0x40 MLOAD PUSH2 0x247 SWAP2 SWAP1 PUSH2 0xE35 JUMP JUMPDEST PUSH1 0x40 MLOAD DUP1 SWAP2 SUB SWAP1 RETURN JUMPDEST PUSH1 0x0 DUP1 PUSH2 0x25B PUSH2 0x6FF JUMP JUMPDEST PUSH1 0x0 PUSH2 0x26D PUSH2 0x268 PUSH2 0x74F JUMP JUMPDEST PUSH2 0x757 JUMP JUMPDEST SWAP1 POP PUSH1 0x0 DUP2 EQ ISZERO PUSH2 0x321 JUMPI PUSH2 0x280 PUSH2 0x74F JUMP JUMPDEST PUSH1 0x2 PUSH1 0x0 CALLVALUE DUP2 MSTORE PUSH1 0x20 ADD SWAP1 DUP2 MSTORE PUSH1 0x20 ADD PUSH1 0x0 KECCAK256 PUSH1 0x0 PUSH2 0x100 EXP DUP2 SLOAD DUP2 PUSH20 0xFFFFFFFFFFFFFFFFFFFFFFFFFFFFFFFFFFFFFFFF MUL NOT AND SWAP1 DUP4 PUSH20 0xFFFFFFFFFFFFFFFFFFFFFFFFFFFFFFFFFFFFFFFF AND MUL OR SWAP1 SSTORE POP CALLVALUE PUSH1 0x3 PUSH1 0x0 PUSH2 0x2DE PUSH2 0x74F JUMP JUMPDEST PUSH20 0xFFFFFFFFFFFFFFFFFFFFFFFFFFFFFFFFFFFFFFFF AND PUSH20 0xFFFFFFFFFFFFFFFFFFFFFFFFFFFFFFFFFFFFFFFF AND DUP2 MSTORE PUSH1 0x20 ADD SWAP1 DUP2 MSTORE PUSH1 0x20 ADD PUSH1 0x0 KECCAK256 DUP2 SWAP1 SSTORE POP PUSH2 0x3DC JUMP JUMPDEST PUSH2 0x329 PUSH2 0x74F JUMP JUMPDEST PUSH1 0x2 PUSH1 0x0 DUP4 CALLVALUE PUSH2 0x339 SWAP2 SWAP1 PUSH2 0x1004 JUMP JUMPDEST DUP2 MSTORE PUSH1 0x20 ADD SWAP1 DUP2 MSTORE PUSH1 0x20 ADD PUSH1 0x0 KECCAK256 PUSH1 0x0 PUSH2 0x100 EXP DUP2 SLOAD DUP2 PUSH20 0xFFFFFFFFFFFFFFFFFFFFFFFFFFFFFFFFFFFFFFFF MUL NOT AND SWAP1 DUP4 PUSH20 0xFFFFFFFFFFFFFFFFFFFFFFFFFFFFFFFFFFFFFFFF AND MUL OR SWAP1 SSTORE POP DUP1 CALLVALUE PUSH2 0x391 SWAP2 SWAP1 PUSH2 0x1004 JUMP JUMPDEST PUSH1 0x3 PUSH1 0x0 PUSH2 0x39D PUSH2 0x74F JUMP JUMPDEST PUSH20 0xFFFFFFFFFFFFFFFFFFFFFFFFFFFFFFFFFFFFFFFF AND PUSH20 0xFFFFFFFFFFFFFFFFFFFFFFFFFFFFFFFFFFFFFFFF AND DUP2 MSTORE PUSH1 0x20 ADD SWAP1 DUP2 MSTORE PUSH1 0x20 ADD PUSH1 0x0 KECCAK256 DUP2 SWAP1 SSTORE POP JUMPDEST PUSH2 0x3E4 PUSH2 0x74F JUMP JUMPDEST CALLVALUE SWAP3 POP SWAP3 POP POP PUSH2 0x3F2 PUSH2 0x7A0 JUMP JUMPDEST SWAP1 SWAP2 JUMP JUMPDEST PUSH1 0x0 PUSH2 0x400 PUSH2 0x7A9 JUMP JUMPDEST PUSH1 0x0 CALLER PUSH20 0xFFFFFFFFFFFFFFFFFFFFFFFFFFFFFFFFFFFFFFFF AND DUP4 PUSH1 0x40 MLOAD PUSH2 0x426 SWAP1 PUSH2 0xDDC JUMP JUMPDEST PUSH1 0x0 PUSH1 0x40 MLOAD DUP1 DUP4 SUB DUP2 DUP6 DUP8 GAS CALL SWAP3 POP POP POP RETURNDATASIZE DUP1 PUSH1 0x0 DUP2 EQ PUSH2 0x463 JUMPI PUSH1 0x40 MLOAD SWAP2 POP PUSH1 0x1F NOT PUSH1 0x3F RETURNDATASIZE ADD AND DUP3 ADD PUSH1 0x40 MSTORE RETURNDATASIZE DUP3 MSTORE RETURNDATASIZE PUSH1 0x0 PUSH1 0x20 DUP5 ADD RETURNDATACOPY PUSH2 0x468 JUMP JUMPDEST PUSH1 0x60 SWAP2 POP JUMPDEST POP POP SWAP1 POP DUP1 PUSH2 0x4AC JUMPI PUSH1 0x40 MLOAD PUSH32 0x8C379A000000000000000000000000000000000000000000000000000000000 DUP2 MSTORE PUSH1 0x4 ADD PUSH2 0x4A3 SWAP1 PUSH2 0xF30 JUMP JUMPDEST PUSH1 0x40 MLOAD DUP1 SWAP2 SUB SWAP1 REVERT JUMPDEST PUSH32 0x884EDAD9CE6FA2440D8A54CC123490EB96D2768479D49FF9C7366125A9424364 ADDRESS DUP5 PUSH1 0x40 MLOAD PUSH2 0x4DD SWAP3 SWAP2 SWAP1 PUSH2 0xE0C JUMP JUMPDEST PUSH1 0x40 MLOAD DUP1 SWAP2 SUB SWAP1 LOG1 PUSH1 0x1 SWAP2 POP POP SWAP2 SWAP1 POP JUMP JUMPDEST PUSH2 0x4F7 PUSH2 0x7A9 JUMP JUMPDEST PUSH2 0x501 PUSH1 0x0 PUSH2 0x827 JUMP JUMPDEST JUMP JUMPDEST PUSH1 0x0 SELFBALANCE SWAP1 POP SWAP1 JUMP JUMPDEST PUSH1 0x0 DUP1 PUSH1 0x0 SWAP1 SLOAD SWAP1 PUSH2 0x100 EXP SWAP1 DIV PUSH20 0xFFFFFFFFFFFFFFFFFFFFFFFFFFFFFFFFFFFFFFFF AND SWAP1 POP SWAP1 JUMP JUMPDEST PUSH1 0x3 PUSH1 0x20 MSTORE DUP1 PUSH1 0x0 MSTORE PUSH1 0x40 PUSH1 0x0 KECCAK256 PUSH1 0x0 SWAP2 POP SWAP1 POP SLOAD DUP2 JUMP JUMPDEST PUSH1 0x2 PUSH1 0x20 MSTORE DUP1 PUSH1 0x0 MSTORE PUSH1 0x40 PUSH1 0x0 KECCAK256 PUSH1 0x0 SWAP2 POP SLOAD SWAP1 PUSH2 0x100 EXP SWAP1 DIV PUSH20 0xFFFFFFFFFFFFFFFFFFFFFFFFFFFFFFFFFFFFFFFF AND DUP2 JUMP JUMPDEST PUSH2 0x587 PUSH2 0x7A9 JUMP JUMPDEST PUSH1 0x0 PUSH20 0xFFFFFFFFFFFFFFFFFFFFFFFFFFFFFFFFFFFFFFFF AND DUP2 PUSH20 0xFFFFFFFFFFFFFFFFFFFFFFFFFFFFFFFFFFFFFFFF AND EQ ISZERO PUSH2 0x5F7 JUMPI PUSH1 0x40 MLOAD PUSH32 0x8C379A000000000000000000000000000000000000000000000000000000000 DUP2 MSTORE PUSH1 0x4 ADD PUSH2 0x5EE SWAP1 PUSH2 0xE70 JUMP JUMPDEST PUSH1 0x40 MLOAD DUP1 SWAP2 SUB SWAP1 REVERT JUMPDEST PUSH2 0x600 DUP2 PUSH2 0x827 JUMP JUMPDEST POP JUMP JUMPDEST PUSH1 0x0 DUP1 PUSH2 0x616 PUSH2 0x611 PUSH2 0x74F JUMP JUMPDEST PUSH2 0x757 JUMP JUMPDEST SWAP1 POP PUSH1 0x0 DUP2 EQ ISZERO PUSH2 0x65C JUMPI PUSH1 0x40 MLOAD PUSH32 0x8C379A000000000000000000000000000000000000000000000000000000000 DUP2 MSTORE PUSH1 0x4 ADD PUSH2 0x653 SWAP1 PUSH2 0xEF0 JUMP JUMPDEST PUSH1 0x40 MLOAD DUP1 SWAP2 SUB SWAP1 REVERT JUMPDEST PUSH1 0x0 DUP1 DUP5 MLOAD SWAP1 POP PUSH1 0x0 JUMPDEST DUP2 DUP2 LT ISZERO PUSH2 0x6A3 JUMPI DUP6 DUP2 DUP2 MLOAD DUP2 LT PUSH2 0x681 JUMPI PUSH2 0x680 PUSH2 0x1102 JUMP JUMPDEST JUMPDEST PUSH1 0x20 MUL PUSH1 0x20 ADD ADD MLOAD DUP4 PUSH2 0x694 SWAP2 SWAP1 PUSH2 0x1004 JUMP JUMPDEST SWAP3 POP DUP1 DUP1 PUSH1 0x1 ADD SWAP2 POP POP PUSH2 0x666 JUMP JUMPDEST POP DUP3 DUP3 GT ISZERO PUSH2 0x6E7 JUMPI PUSH1 0x40 MLOAD PUSH32 0x8C379A000000000000000000000000000000000000000000000000000000000 DUP2 MSTORE PUSH1 0x4 ADD PUSH2 0x6DE SWAP1 PUSH2 0xEB0 JUMP JUMPDEST PUSH1 0x40 MLOAD DUP1 SWAP2 SUB SWAP1 REVERT JUMPDEST PUSH2 0x6F1 DUP7 DUP7 PUSH2 0x8EB JUMP JUMPDEST POP PUSH1 0x1 SWAP4 POP POP POP POP SWAP3 SWAP2 POP POP JUMP JUMPDEST PUSH1 0x2 PUSH1 0x1 SLOAD EQ ISZERO PUSH2 0x745 JUMPI PUSH1 0x40 MLOAD PUSH32 0x8C379A000000000000000000000000000000000000000000000000000000000 DUP2 MSTORE PUSH1 0x4 ADD PUSH2 0x73C SWAP1 PUSH2 0xF10 JUMP JUMPDEST PUSH1 0x40 MLOAD DUP1 SWAP2 SUB SWAP1 REVERT JUMPDEST PUSH1 0x2 PUSH1 0x1 DUP2 SWAP1 SSTORE POP JUMP JUMPDEST PUSH1 0x0 CALLER SWAP1 POP SWAP1 JUMP JUMPDEST PUSH1 0x0 PUSH1 0x3 PUSH1 0x0 DUP4 PUSH20 0xFFFFFFFFFFFFFFFFFFFFFFFFFFFFFFFFFFFFFFFF AND PUSH20 0xFFFFFFFFFFFFFFFFFFFFFFFFFFFFFFFFFFFFFFFF AND DUP2 MSTORE PUSH1 0x20 ADD SWAP1 DUP2 MSTORE PUSH1 0x20 ADD PUSH1 0x0 KECCAK256 SLOAD SWAP1 POP SWAP2 SWAP1 POP JUMP JUMPDEST PUSH1 0x1 DUP1 DUP2 SWAP1 SSTORE POP JUMP JUMPDEST PUSH2 0x7B1 PUSH2 0x74F JUMP JUMPDEST PUSH20 0xFFFFFFFFFFFFFFFFFFFFFFFFFFFFFFFFFFFFFFFF AND PUSH2 0x7CF PUSH2 0x50B JUMP JUMPDEST PUSH20 0xFFFFFFFFFFFFFFFFFFFFFFFFFFFFFFFFFFFFFFFF AND EQ PUSH2 0x825 JUMPI PUSH1 0x40 MLOAD PUSH32 0x8C379A000000000000000000000000000000000000000000000000000000000 DUP2 MSTORE PUSH1 0x4 ADD PUSH2 0x81C SWAP1 PUSH2 0xE90 JUMP JUMPDEST PUSH1 0x40 MLOAD DUP1 SWAP2 SUB SWAP1 REVERT JUMPDEST JUMP JUMPDEST PUSH1 0x0 DUP1 PUSH1 0x0 SWAP1 SLOAD SWAP1 PUSH2 0x100 EXP SWAP1 DIV PUSH20 0xFFFFFFFFFFFFFFFFFFFFFFFFFFFFFFFFFFFFFFFF AND SWAP1 POP DUP2 PUSH1 0x0 DUP1 PUSH2 0x100 EXP DUP2 SLOAD DUP2 PUSH20 0xFFFFFFFFFFFFFFFFFFFFFFFFFFFFFFFFFFFFFFFF MUL NOT AND SWAP1 DUP4 PUSH20 0xFFFFFFFFFFFFFFFFFFFFFFFFFFFFFFFFFFFFFFFF AND MUL OR SWAP1 SSTORE POP DUP2 PUSH20 0xFFFFFFFFFFFFFFFFFFFFFFFFFFFFFFFFFFFFFFFF AND DUP2 PUSH20 0xFFFFFFFFFFFFFFFFFFFFFFFFFFFFFFFFFFFFFFFF AND PUSH32 0x8BE0079C531659141344CD1FD0A4F28419497F9722A3DAAFE3B4186F6B6457E0 PUSH1 0x40 MLOAD PUSH1 0x40 MLOAD DUP1 SWAP2 SUB SWAP1 LOG3 POP POP JUMP JUMPDEST PUSH1 0x0 DUP2 MLOAD DUP4 MLOAD EQ PUSH2 0x931 JUMPI PUSH1 0x40 MLOAD PUSH32 0x8C379A000000000000000000000000000000000000000000000000000000000 DUP2 MSTORE PUSH1 0x4 ADD PUSH2 0x928 SWAP1 PUSH2 0xE50 JUMP JUMPDEST PUSH1 0x40 MLOAD DUP1 SWAP2 SUB SWAP1 REVERT JUMPDEST PUSH1 0x0 DUP4 MLOAD SWAP1 POP PUSH1 0x0 JUMPDEST DUP2 DUP2 LT ISZERO PUSH2 0xA30 JUMPI PUSH1 0x0 DUP6 DUP3 DUP2 MLOAD DUP2 LT PUSH2 0x957 JUMPI PUSH2 0x956 PUSH2 0x1102 JUMP JUMPDEST JUMPDEST PUSH1 0x20 MUL PUSH1 0x20 ADD ADD MLOAD PUSH20 0xFFFFFFFFFFFFFFFFFFFFFFFFFFFFFFFFFFFFFFFF AND DUP6 DUP4 DUP2 MLOAD DUP2 LT PUSH2 0x988 JUMPI PUSH2 0x987 PUSH2 0x1102 JUMP JUMPDEST JUMPDEST PUSH1 0x20 MUL PUSH1 0x20 ADD ADD MLOAD PUSH1 0x40 MLOAD PUSH2 0x99C SWAP1 PUSH2 0xDDC JUMP JUMPDEST PUSH1 0x0 PUSH1 0x40 MLOAD DUP1 DUP4 SUB DUP2 DUP6 DUP8 GAS CALL SWAP3 POP POP POP RETURNDATASIZE DUP1 PUSH1 0x0 DUP2 EQ PUSH2 0x9D9 JUMPI PUSH1 0x40 MLOAD SWAP2 POP PUSH1 0x1F NOT PUSH1 0x3F RETURNDATASIZE ADD AND DUP3 ADD PUSH1 0x40 MSTORE RETURNDATASIZE DUP3 MSTORE RETURNDATASIZE PUSH1 0x0 PUSH1 0x20 DUP5 ADD RETURNDATACOPY PUSH2 0x9DE JUMP JUMPDEST PUSH1 0x60 SWAP2 POP JUMPDEST POP POP SWAP1 POP DUP1 PUSH2 0xA22 JUMPI PUSH1 0x40 MLOAD PUSH32 0x8C379A000000000000000000000000000000000000000000000000000000000 DUP2 MSTORE PUSH1 0x4 ADD PUSH2 0xA19 SWAP1 PUSH2 0xED0 JUMP JUMPDEST PUSH1 0x40 MLOAD DUP1 SWAP2 SUB SWAP1 REVERT JUMPDEST DUP2 DUP1 PUSH1 0x1 ADD SWAP3 POP POP POP PUSH2 0x93A JUMP JUMPDEST POP PUSH1 0x1 SWAP2 POP POP SWAP3 SWAP2 POP POP JUMP JUMPDEST PUSH1 0x0 PUSH2 0xA4F PUSH2 0xA4A DUP5 PUSH2 0xF90 JUMP JUMPDEST PUSH2 0xF6B JUMP JUMPDEST SWAP1 POP DUP1 DUP4 DUP3 MSTORE PUSH1 0x20 DUP3 ADD SWAP1 POP DUP3 DUP6 PUSH1 0x20 DUP7 MUL DUP3 ADD GT ISZERO PUSH2 0xA72 JUMPI PUSH2 0xA71 PUSH2 0x1165 JUMP JUMPDEST JUMPDEST PUSH1 0x0 JUMPDEST DUP6 DUP2 LT ISZERO PUSH2 0xAA2 JUMPI DUP2 PUSH2 0xA88 DUP9 DUP3 PUSH2 0xB1C JUMP JUMPDEST DUP5 MSTORE PUSH1 0x20 DUP5 ADD SWAP4 POP PUSH1 0x20 DUP4 ADD SWAP3 POP POP PUSH1 0x1 DUP2 ADD SWAP1 POP PUSH2 0xA75 JUMP JUMPDEST POP POP POP SWAP4 SWAP3 POP POP POP JUMP JUMPDEST PUSH1 0x0 PUSH2 0xABF PUSH2 0xABA DUP5 PUSH2 0xFBC JUMP JUMPDEST PUSH2 0xF6B JUMP JUMPDEST SWAP1 POP DUP1 DUP4 DUP3 MSTORE PUSH1 0x20 DUP3 ADD SWAP1 POP DUP3 DUP6 PUSH1 0x20 DUP7 MUL DUP3 ADD GT ISZERO PUSH2 0xAE2 JUMPI PUSH2 0xAE1 PUSH2 0x1165 JUMP JUMPDEST JUMPDEST PUSH1 0x0 JUMPDEST DUP6 DUP2 LT ISZERO PUSH2 0xB12 JUMPI DUP2 PUSH2 0xAF8 DUP9 DUP3 PUSH2 0xB8D JUMP JUMPDEST DUP5 MSTORE PUSH1 0x20 DUP5 ADD SWAP4 POP PUSH1 0x20 DUP4 ADD SWAP3 POP POP PUSH1 0x1 DUP2 ADD SWAP1 POP PUSH2 0xAE5 JUMP JUMPDEST POP POP POP SWAP4 SWAP3 POP POP POP JUMP JUMPDEST PUSH1 0x0 DUP2 CALLDATALOAD SWAP1 POP PUSH2 0xB2B DUP2 PUSH2 0x1342 JUMP JUMPDEST SWAP3 SWAP2 POP POP JUMP JUMPDEST PUSH1 0x0 DUP3 PUSH1 0x1F DUP4 ADD SLT PUSH2 0xB46 JUMPI PUSH2 0xB45 PUSH2 0x1160 JUMP JUMPDEST JUMPDEST DUP2 CALLDATALOAD PUSH2 0xB56 DUP5 DUP3 PUSH1 0x20 DUP7 ADD PUSH2 0xA3C JUMP JUMPDEST SWAP2 POP POP SWAP3 SWAP2 POP POP JUMP JUMPDEST PUSH1 0x0 DUP3 PUSH1 0x1F DUP4 ADD SLT PUSH2 0xB74 JUMPI PUSH2 0xB73 PUSH2 0x1160 JUMP JUMPDEST JUMPDEST DUP2 CALLDATALOAD PUSH2 0xB84 DUP5 DUP3 PUSH1 0x20 DUP7 ADD PUSH2 0xAAC JUMP JUMPDEST SWAP2 POP POP SWAP3 SWAP2 POP POP JUMP JUMPDEST PUSH1 0x0 DUP2 CALLDATALOAD SWAP1 POP PUSH2 0xB9C DUP2 PUSH2 0x1359 JUMP JUMPDEST SWAP3 SWAP2 POP POP JUMP JUMPDEST PUSH1 0x0 PUSH1 0x20 DUP3 DUP5 SUB SLT ISZERO PUSH2 0xBB8 JUMPI PUSH2 0xBB7 PUSH2 0x116F JUMP JUMPDEST JUMPDEST PUSH1 0x0 PUSH2 0xBC6 DUP5 DUP3 DUP6 ADD PUSH2 0xB1C JUMP JUMPDEST SWAP2 POP POP SWAP3 SWAP2 POP POP JUMP JUMPDEST PUSH1 0x0 DUP1 PUSH1 0x40 DUP4 DUP6 SUB SLT ISZERO PUSH2 0xBE6 JUMPI PUSH2 0xBE5 PUSH2 0x116F JUMP JUMPDEST JUMPDEST PUSH1 0x0 DUP4 ADD CALLDATALOAD PUSH8 0xFFFFFFFFFFFFFFFF DUP2 GT ISZERO PUSH2 0xC04 JUMPI PUSH2 0xC03 PUSH2 0x116A JUMP JUMPDEST JUMPDEST PUSH2 0xC10 DUP6 DUP3 DUP7 ADD PUSH2 0xB31 JUMP JUMPDEST SWAP3 POP POP PUSH1 0x20 DUP4 ADD CALLDATALOAD PUSH8 0xFFFFFFFFFFFFFFFF DUP2 GT ISZERO PUSH2 0xC31 JUMPI PUSH2 0xC30 PUSH2 0x116A JUMP JUMPDEST JUMPDEST PUSH2 0xC3D DUP6 DUP3 DUP7 ADD PUSH2 0xB5F JUMP JUMPDEST SWAP2 POP POP SWAP3 POP SWAP3 SWAP1 POP JUMP JUMPDEST PUSH1 0x0 PUSH1 0x20 DUP3 DUP5 SUB SLT ISZERO PUSH2 0xC5D JUMPI PUSH2 0xC5C PUSH2 0x116F JUMP JUMPDEST JUMPDEST PUSH1 0x0 PUSH2 0xC6B DUP5 DUP3 DUP6 ADD PUSH2 0xB8D JUMP JUMPDEST SWAP2 POP POP SWAP3 SWAP2 POP POP JUMP JUMPDEST PUSH2 0xC7D DUP2 PUSH2 0x105A JUMP JUMPDEST DUP3 MSTORE POP POP JUMP JUMPDEST PUSH2 0xC8C DUP2 PUSH2 0x106C JUMP JUMPDEST DUP3 MSTORE POP POP JUMP JUMPDEST PUSH1 0x0 PUSH2 0xC9F PUSH1 0x3C DUP4 PUSH2 0xFF3 JUMP JUMPDEST SWAP2 POP PUSH2 0xCAA DUP3 PUSH2 0x1185 JUMP JUMPDEST PUSH1 0x40 DUP3 ADD SWAP1 POP SWAP2 SWAP1 POP JUMP JUMPDEST PUSH1 0x0 PUSH2 0xCC2 PUSH1 0x26 DUP4 PUSH2 0xFF3 JUMP JUMPDEST SWAP2 POP PUSH2 0xCCD DUP3 PUSH2 0x11D4 JUMP JUMPDEST PUSH1 0x40 DUP3 ADD SWAP1 POP SWAP2 SWAP1 POP JUMP JUMPDEST PUSH1 0x0 PUSH2 0xCE5 PUSH1 0x20 DUP4 PUSH2 0xFF3 JUMP JUMPDEST SWAP2 POP PUSH2 0xCF0 DUP3 PUSH2 0x1223 JUMP JUMPDEST PUSH1 0x20 DUP3 ADD SWAP1 POP SWAP2 SWAP1 POP JUMP JUMPDEST PUSH1 0x0 PUSH2 0xD08 PUSH1 0x23 DUP4 PUSH2 0xFF3 JUMP JUMPDEST SWAP2 POP PUSH2 0xD13 DUP3 PUSH2 0x124C JUMP JUMPDEST PUSH1 0x40 DUP3 ADD SWAP1 POP SWAP2 SWAP1 POP JUMP JUMPDEST PUSH1 0x0 PUSH2 0xD2B PUSH1 0x0 DUP4 PUSH2 0xFE8 JUMP JUMPDEST SWAP2 POP PUSH2 0xD36 DUP3 PUSH2 0x129B JUMP JUMPDEST PUSH1 0x0 DUP3 ADD SWAP1 POP SWAP2 SWAP1 POP JUMP JUMPDEST PUSH1 0x0 PUSH2 0xD4E PUSH1 0x10 DUP4 PUSH2 0xFF3 JUMP JUMPDEST SWAP2 POP PUSH2 0xD59 DUP3 PUSH2 0x129E JUMP JUMPDEST PUSH1 0x20 DUP3 ADD SWAP1 POP SWAP2 SWAP1 POP JUMP JUMPDEST PUSH1 0x0 PUSH2 0xD71 PUSH1 0x12 DUP4 PUSH2 0xFF3 JUMP JUMPDEST SWAP2 POP PUSH2 0xD7C DUP3 PUSH2 0x12C7 JUMP JUMPDEST PUSH1 0x20 DUP3 ADD SWAP1 POP SWAP2 SWAP1 POP JUMP JUMPDEST PUSH1 0x0 PUSH2 0xD94 PUSH1 0x1F DUP4 PUSH2 0xFF3 JUMP JUMPDEST SWAP2 POP PUSH2 0xD9F DUP3 PUSH2 0x12F0 JUMP JUMPDEST PUSH1 0x20 DUP3 ADD SWAP1 POP SWAP2 SWAP1 POP JUMP JUMPDEST PUSH1 0x0 PUSH2 0xDB7 PUSH1 0xF DUP4 PUSH2 0xFF3 JUMP JUMPDEST SWAP2 POP PUSH2 0xDC2 DUP3 PUSH2 0x1319 JUMP JUMPDEST PUSH1 0x20 DUP3 ADD SWAP1 POP SWAP2 SWAP1 POP JUMP JUMPDEST PUSH2 0xDD6 DUP2 PUSH2 0x1098 JUMP JUMPDEST DUP3 MSTORE POP POP JUMP JUMPDEST PUSH1 0x0 PUSH2 0xDE7 DUP3 PUSH2 0xD1E JUMP JUMPDEST SWAP2 POP DUP2 SWAP1 POP SWAP2 SWAP1 POP JUMP JUMPDEST PUSH1 0x0 PUSH1 0x20 DUP3 ADD SWAP1 POP PUSH2 0xE06 PUSH1 0x0 DUP4 ADD DUP5 PUSH2 0xC74 JUMP JUMPDEST SWAP3 SWAP2 POP POP JUMP JUMPDEST PUSH1 0x0 PUSH1 0x40 DUP3 ADD SWAP1 POP PUSH2 0xE21 PUSH1 0x0 DUP4 ADD DUP6 PUSH2 0xC74 JUMP JUMPDEST PUSH2 0xE2E PUSH1 0x20 DUP4 ADD DUP5 PUSH2 0xDCD JUMP JUMPDEST SWAP4 SWAP3 POP POP POP JUMP JUMPDEST PUSH1 0x0 PUSH1 0x20 DUP3 ADD SWAP1 POP PUSH2 0xE4A PUSH1 0x0 DUP4 ADD DUP5 PUSH2 0xC83 JUMP JUMPDEST SWAP3 SWAP2 POP POP JUMP JUMPDEST PUSH1 0x0 PUSH1 0x20 DUP3 ADD SWAP1 POP DUP2 DUP2 SUB PUSH1 0x0 DUP4 ADD MSTORE PUSH2 0xE69 DUP2 PUSH2 0xC92 JUMP JUMPDEST SWAP1 POP SWAP2 SWAP1 POP JUMP JUMPDEST PUSH1 0x0 PUSH1 0x20 DUP3 ADD SWAP1 POP DUP2 DUP2 SUB PUSH1 0x0 DUP4 ADD MSTORE PUSH2 0xE89 DUP2 PUSH2 0xCB5 JUMP JUMPDEST SWAP1 POP SWAP2 SWAP1 POP JUMP JUMPDEST PUSH1 0x0 PUSH1 0x20 DUP3 ADD SWAP1 POP DUP2 DUP2 SUB PUSH1 0x0 DUP4 ADD MSTORE PUSH2 0xEA9 DUP2 PUSH2 0xCD8 JUMP JUMPDEST SWAP1 POP SWAP2 SWAP1 POP JUMP JUMPDEST PUSH1 0x0 PUSH1 0x20 DUP3 ADD SWAP1 POP DUP2 DUP2 SUB PUSH1 0x0 DUP4 ADD MSTORE PUSH2 0xEC9 DUP2 PUSH2 0xCFB JUMP JUMPDEST SWAP1 POP SWAP2 SWAP1 POP JUMP JUMPDEST PUSH1 0x0 PUSH1 0x20 DUP3 ADD SWAP1 POP DUP2 DUP2 SUB PUSH1 0x0 DUP4 ADD MSTORE PUSH2 0xEE9 DUP2 PUSH2 0xD41 JUMP JUMPDEST SWAP1 POP SWAP2 SWAP1 POP JUMP JUMPDEST PUSH1 0x0 PUSH1 0x20 DUP3 ADD SWAP1 POP DUP2 DUP2 SUB PUSH1 0x0 DUP4 ADD MSTORE PUSH2 0xF09 DUP2 PUSH2 0xD64 JUMP JUMPDEST SWAP1 POP SWAP2 SWAP1 POP JUMP JUMPDEST PUSH1 0x0 PUSH1 0x20 DUP3 ADD SWAP1 POP DUP2 DUP2 SUB PUSH1 0x0 DUP4 ADD MSTORE PUSH2 0xF29 DUP2 PUSH2 0xD87 JUMP JUMPDEST SWAP1 POP SWAP2 SWAP1 POP JUMP JUMPDEST PUSH1 0x0 PUSH1 0x20 DUP3 ADD SWAP1 POP DUP2 DUP2 SUB PUSH1 0x0 DUP4 ADD MSTORE PUSH2 0xF49 DUP2 PUSH2 0xDAA JUMP JUMPDEST SWAP1 POP SWAP2 SWAP1 POP JUMP JUMPDEST PUSH1 0x0 PUSH1 0x20 DUP3 ADD SWAP1 POP PUSH2 0xF65 PUSH1 0x0 DUP4 ADD DUP5 PUSH2 0xDCD JUMP JUMPDEST SWAP3 SWAP2 POP POP JUMP JUMPDEST PUSH1 0x0 PUSH2 0xF75 PUSH2 0xF86 JUMP JUMPDEST SWAP1 POP PUSH2 0xF81 DUP3 DUP3 PUSH2 0x10A2 JUMP JUMPDEST SWAP2 SWAP1 POP JUMP JUMPDEST PUSH1 0x0 PUSH1 0x40 MLOAD SWAP1 POP SWAP1 JUMP JUMPDEST PUSH1 0x0 PUSH8 0xFFFFFFFFFFFFFFFF DUP3 GT ISZERO PUSH2 0xFAB JUMPI PUSH2 0xFAA PUSH2 0x1131 JUMP JUMPDEST JUMPDEST PUSH1 0x20 DUP3 MUL SWAP1 POP PUSH1 0x20 DUP2 ADD SWAP1 POP SWAP2 SWAP1 POP JUMP JUMPDEST PUSH1 0x0 PUSH8 0xFFFFFFFFFFFFFFFF DUP3 GT ISZERO PUSH2 0xFD7 JUMPI PUSH2 0xFD6 PUSH2 0x1131 JUMP JUMPDEST JUMPDEST PUSH1 0x20 DUP3 MUL SWAP1 POP PUSH1 0x20 DUP2 ADD SWAP1 POP SWAP2 SWAP1 POP JUMP JUMPDEST PUSH1 0x0 DUP2 SWAP1 POP SWAP3 SWAP2 POP POP JUMP JUMPDEST PUSH1 0x0 DUP3 DUP3 MSTORE PUSH1 0x20 DUP3 ADD SWAP1 POP SWAP3 SWAP2 POP POP JUMP JUMPDEST PUSH1 0x0 PUSH2 0x100F DUP3 PUSH2 0x1098 JUMP JUMPDEST SWAP2 POP PUSH2 0x101A DUP4 PUSH2 0x1098 JUMP JUMPDEST SWAP3 POP DUP3 PUSH32 0xFFFFFFFFFFFFFFFFFFFFFFFFFFFFFFFFFFFFFFFFFFFFFFFFFFFFFFFFFFFFFFFF SUB DUP3 GT ISZERO PUSH2 0x104F JUMPI PUSH2 0x104E PUSH2 0x10D3 JUMP JUMPDEST JUMPDEST DUP3 DUP3 ADD SWAP1 POP SWAP3 SWAP2 POP POP JUMP JUMPDEST PUSH1 0x0 PUSH2 0x1065 DUP3 PUSH2 0x1078 JUMP JUMPDEST SWAP1 POP SWAP2 SWAP1 POP JUMP JUMPDEST PUSH1 0x0 DUP2 ISZERO ISZERO SWAP1 POP SWAP2 SWAP1 POP JUMP JUMPDEST PUSH1 0x0 PUSH20 0xFFFFFFFFFFFFFFFFFFFFFFFFFFFFFFFFFFFFFFFF DUP3 AND SWAP1 POP SWAP2 SWAP1 POP JUMP JUMPDEST PUSH1 0x0 DUP2 SWAP1 POP SWAP2 SWAP1 POP JUMP JUMPDEST PUSH2 0x10AB DUP3 PUSH2 0x1174 JUMP JUMPDEST DUP2 ADD DUP2 DUP2 LT PUSH8 0xFFFFFFFFFFFFFFFF DUP3 GT OR ISZERO PUSH2 0x10CA JUMPI PUSH2 0x10C9 PUSH2 0x1131 JUMP JUMPDEST JUMPDEST DUP1 PUSH1 0x40 MSTORE POP POP POP JUMP JUMPDEST PUSH32 0x4E487B7100000000000000000000000000000000000000000000000000000000 PUSH1 0x0 MSTORE PUSH1 0x11 PUSH1 0x4 MSTORE PUSH1 0x24 PUSH1 0x0 REVERT JUMPDEST PUSH32 0x4E487B7100000000000000000000000000000000000000000000000000000000 PUSH1 0x0 MSTORE PUSH1 0x32 PUSH1 0x4 MSTORE PUSH1 0x24 PUSH1 0x0 REVERT JUMPDEST PUSH32 0x4E487B7100000000000000000000000000000000000000000000000000000000 PUSH1 0x0 MSTORE PUSH1 0x41 PUSH1 0x4 MSTORE PUSH1 0x24 PUSH1 0x0 REVERT JUMPDEST PUSH1 0x0 DUP1 REVERT JUMPDEST PUSH1 0x0 DUP1 REVERT JUMPDEST PUSH1 0x0 DUP1 REVERT JUMPDEST PUSH1 0x0 DUP1 REVERT JUMPDEST PUSH1 0x0 PUSH1 0x1F NOT PUSH1 0x1F DUP4 ADD AND SWAP1 POP SWAP2 SWAP1 POP JUMP JUMPDEST PUSH32 0x4E756D626572206F6620726563697069656E7473206D75737420626520657175 PUSH1 0x0 DUP3 ADD MSTORE PUSH32 0x616C20746F20746865206E756D626572206F6620616D6F756E74732E00000000 PUSH1 0x20 DUP3 ADD MSTORE POP JUMP JUMPDEST PUSH32 0x4F776E61626C653A206E6577206F776E657220697320746865207A65726F2061 PUSH1 0x0 DUP3 ADD MSTORE PUSH32 0x6464726573730000000000000000000000000000000000000000000000000000 PUSH1 0x20 DUP3 ADD MSTORE POP JUMP JUMPDEST PUSH32 0x4F776E61626C653A2063616C6C6572206973206E6F7420746865206F776E6572 PUSH1 0x0 DUP3 ADD MSTORE POP JUMP JUMPDEST PUSH32 0x4164647265737320496E73756666696369656E74206465706F73697420616D6F PUSH1 0x0 DUP3 ADD MSTORE PUSH32 0x756E740000000000000000000000000000000000000000000000000000000000 PUSH1 0x20 DUP3 ADD MSTORE POP JUMP JUMPDEST POP JUMP JUMPDEST PUSH32 0x7472616E73666572207375636365737300000000000000000000000000000000 PUSH1 0x0 DUP3 ADD MSTORE POP JUMP JUMPDEST PUSH32 0x4E6F74206465706F73697420616D6F756E740000000000000000000000000000 PUSH1 0x0 DUP3 ADD MSTORE POP JUMP JUMPDEST PUSH32 0x5265656E7472616E637947756172643A207265656E7472616E742063616C6C00 PUSH1 0x0 DUP3 ADD MSTORE POP JUMP JUMPDEST PUSH32 0x7769746864726177206661696C65640000000000000000000000000000000000 PUSH1 0x0 DUP3 ADD MSTORE POP JUMP JUMPDEST PUSH2 0x134B DUP2 PUSH2 0x105A JUMP JUMPDEST DUP2 EQ PUSH2 0x1356 JUMPI PUSH1 0x0 DUP1 REVERT JUMPDEST POP JUMP JUMPDEST PUSH2 0x1362 DUP2 PUSH2 0x1098 JUMP JUMPDEST DUP2 EQ PUSH2 0x136D JUMPI PUSH1 0x0 DUP1 REVERT JUMPDEST POP JUMP INVALID LOG2 PUSH5 0x6970667358 0x22 SLT KECCAK256 XOR DUP14 0xBB LOG3 SIGNEXTEND CALLCODE 0xC1 SHL COINBASE OR 0xEF CALLDATALOAD 0xAA PUSH7 0x7AB54C75B25B47 CODESIZE PUSH30 0xFEC19437CF29B0EB864736F6C6343000807003300000000000000000000 "
		},
		"gasEstimates": {
			"creation": {
				"codeDepositCost": "1006000",
				"executionCost": "infinite",
				"totalCost": "infinite"
			},
			"external": {
				"": "infinite",
				"balanceOf()": "384",
				"deposit()": "infinite",
				"depositAddress(uint256)": "2883",
				"depositquota(address)": "2814",
				"owner()": "2589",
				"renounceOwnership()": "30421",
				"transfer(address[],uint256[])": "infinite",
				"transferOwnership(address)": "30813",
				"withdraw(uint256)": "infinite"
			},
			"internal": {
				"_batchTransfer(address[] memory,uint256[] memory)": "infinite",
				"getquota(address)": "2224"
			}
		},
		"methodIdentifiers": {
			"balanceOf()": "722713f7",
			"deposit()": "d0e30db0",
			"depositAddress(uint256)": "d75c45ad",
			"depositquota(address)": "b0d253ff",
			"owner()": "8da5cb5b",
			"renounceOwnership()": "715018a6",
			"transfer(address[],uint256[])": "ffc3a769",
			"transferOwnership(address)": "f2fde38b",
			"withdraw(uint256)": "2e1a7d4d"
		}
	},
	"abi": [
		{
			"anonymous": false,
			"inputs": [
				{
					"indexed": true,
					"internalType": "address",
					"name": "previousOwner",
					"type": "address"
				},
				{
					"indexed": true,
					"internalType": "address",
					"name": "newOwner",
					"type": "address"
				}
			],
			"name": "OwnershipTransferred",
			"type": "event"
		},
		{
			"anonymous": false,
			"inputs": [
				{
					"indexed": false,
					"internalType": "address",
					"name": "",
					"type": "address"
				},
				{
					"indexed": false,
					"internalType": "uint256",
					"name": "",
					"type": "uint256"
				}
			],
			"name": "Withdraw",
			"type": "event"
		},
		{
			"stateMutability": "payable",
			"type": "fallback"
		},
		{
			"inputs": [],
			"name": "balanceOf",
			"outputs": [
				{
					"internalType": "uint256",
					"name": "",
					"type": "uint256"
				}
			],
			"stateMutability": "view",
			"type": "function"
		},
		{
			"inputs": [],
			"name": "deposit",
			"outputs": [
				{
					"internalType": "address",
					"name": "",
					"type": "address"
				},
				{
					"internalType": "uint256",
					"name": "",
					"type": "uint256"
				}
			],
			"stateMutability": "payable",
			"type": "function"
		},
		{
			"inputs": [
				{
					"internalType": "uint256",
					"name": "",
					"type": "uint256"
				}
			],
			"name": "depositAddress",
			"outputs": [
				{
					"internalType": "address",
					"name": "",
					"type": "address"
				}
			],
			"stateMutability": "view",
			"type": "function"
		},
		{
			"inputs": [
				{
					"internalType": "address",
					"name": "",
					"type": "address"
				}
			],
			"name": "depositquota",
			"outputs": [
				{
					"internalType": "uint256",
					"name": "",
					"type": "uint256"
				}
			],
			"stateMutability": "view",
			"type": "function"
		},
		{
			"inputs": [],
			"name": "owner",
			"outputs": [
				{
					"internalType": "address",
					"name": "",
					"type": "address"
				}
			],
			"stateMutability": "view",
			"type": "function"
		},
		{
			"inputs": [],
			"name": "renounceOwnership",
			"outputs": [],
			"stateMutability": "nonpayable",
			"type": "function"
		},
		{
			"inputs": [
				{
					"internalType": "address[]",
					"name": "recipients",
					"type": "address[]"
				},
				{
					"internalType": "uint256[]",
					"name": "amounts",
					"type": "uint256[]"
				}
			],
			"name": "transfer",
			"outputs": [
				{
					"internalType": "bool",
					"name": "",
					"type": "bool"
				}
			],
			"stateMutability": "nonpayable",
			"type": "function"
		},
		{
			"inputs": [
				{
					"internalType": "address",
					"name": "newOwner",
					"type": "address"
				}
			],
			"name": "transferOwnership",
			"outputs": [],
			"stateMutability": "nonpayable",
			"type": "function"
		},
		{
			"inputs": [
				{
					"internalType": "uint256",
					"name": "amount",
					"type": "uint256"
				}
			],
			"name": "withdraw",
			"outputs": [
				{
					"internalType": "bool",
					"name": "",
					"type": "bool"
				}
			],
			"stateMutability": "nonpayable",
			"type": "function"
		},
		{
			"stateMutability": "payable",
			"type": "receive"
		}
	]
}