{
	"data": {
		"bytecode": {
			"linkReferences": {},
			"object": "608060405234801561001057600080fd5b5061002d61002261003960201b60201c565b61004160201b60201c565b60018081905550610105565b600033905090565b60008060009054906101000a900473ffffffffffffffffffffffffffffffffffffffff169050816000806101000a81548173ffffffffffffffffffffffffffffffffffffffff021916908373ffffffffffffffffffffffffffffffffffffffff1602179055508173ffffffffffffffffffffffffffffffffffffffff168173ffffffffffffffffffffffffffffffffffffffff167f8be0079c531659141344cd1fd0a4f28419497f9722a3daafe3b4186f6b6457e060405160405180910390a35050565b610f70806101146000396000f3fe6080604052600436106100595760003560e01c80632e1a7d4d14610062578063715018a61461009f578063722713f7146100b65780638da5cb5b146100e1578063f2fde38b1461010c578063ffc3a7691461013557610060565b3661006057005b005b34801561006e57600080fd5b506100896004803603810190610084919061083f565b610172565b6040516100969190610b13565b60405180910390f35b3480156100ab57600080fd5b506100b461026b565b005b3480156100c257600080fd5b506100cb61027f565b6040516100d89190610bce565b60405180910390f35b3480156100ed57600080fd5b506100f6610287565b6040516101039190610a8a565b60405180910390f35b34801561011857600080fd5b50610133600480360381019061012e919061079a565b6102b0565b005b34801561014157600080fd5b5061015c600480360381019061015791906107c7565b610334565b6040516101699190610b13565b60405180910390f35b600061017c61038e565b60003373ffffffffffffffffffffffffffffffffffffffff16836040516101a290610a75565b60006040518083038185875af1925050503d80600081146101df576040519150601f19603f3d011682016040523d82523d6000602084013e6101e4565b606091505b5050905080610228576040517f08c379a000000000000000000000000000000000000000000000000000000000815260040161021f90610bae565b60405180910390fd5b7f884edad9ce6fa2440d8a54cc123490eb96d2768479d49ff9c7366125a94243643084604051610259929190610aea565b60405180910390a16001915050919050565b61027361038e565b61027d600061040c565b565b600047905090565b60008060009054906101000a900473ffffffffffffffffffffffffffffffffffffffff16905090565b6102b861038e565b600073ffffffffffffffffffffffffffffffffffffffff168173ffffffffffffffffffffffffffffffffffffffff161415610328576040517f08c379a000000000000000000000000000000000000000000000000000000000815260040161031f90610b4e565b60405180910390fd5b6103318161040c565b50565b600061033e61038e565b61034883836104d0565b507f196b2bc9adaf20a18315fc904174b2511166fac7a335cb27dc9ca96f975a799833848460405161037c93929190610aa5565b60405180910390a16001905092915050565b61039661062c565b73ffffffffffffffffffffffffffffffffffffffff166103b4610287565b73ffffffffffffffffffffffffffffffffffffffff161461040a576040517f08c379a000000000000000000000000000000000000000000000000000000000815260040161040190610b6e565b60405180910390fd5b565b60008060009054906101000a900473ffffffffffffffffffffffffffffffffffffffff169050816000806101000a81548173ffffffffffffffffffffffffffffffffffffffff021916908373ffffffffffffffffffffffffffffffffffffffff1602179055508173ffffffffffffffffffffffffffffffffffffffff168173ffffffffffffffffffffffffffffffffffffffff167f8be0079c531659141344cd1fd0a4f28419497f9722a3daafe3b4186f6b6457e060405160405180910390a35050565b60008151835114610516576040517f08c379a000000000000000000000000000000000000000000000000000000000815260040161050d90610b2e565b60405180910390fd5b6000839050600083905060005b825181101561061f57600083828151811061054157610540610d6d565b5b602002602001015173ffffffffffffffffffffffffffffffffffffffff1683838151811061057257610571610d6d565b5b60200260200101516108fc9060405161058a90610a75565b600060405180830381858888f193505050503d80600081146105c8576040519150601f19603f3d011682016040523d82523d6000602084013e6105cd565b606091505b5050905080610611576040517f08c379a000000000000000000000000000000000000000000000000000000000815260040161060890610b8e565b60405180910390fd5b818060010192505050610523565b5060019250505092915050565b600033905090565b600061064761064284610c0e565b610be9565b9050808382526020820190508285602086028201111561066a57610669610dd0565b5b60005b8581101561069a57816106808882610714565b84526020840193506020830192505060018101905061066d565b5050509392505050565b60006106b76106b284610c3a565b610be9565b905080838252602082019050828560208602820111156106da576106d9610dd0565b5b60005b8581101561070a57816106f08882610785565b8452602084019350602083019250506001810190506106dd565b5050509392505050565b60008135905061072381610f0c565b92915050565b600082601f83011261073e5761073d610dcb565b5b813561074e848260208601610634565b91505092915050565b600082601f83011261076c5761076b610dcb565b5b813561077c8482602086016106a4565b91505092915050565b60008135905061079481610f23565b92915050565b6000602082840312156107b0576107af610dda565b5b60006107be84828501610714565b91505092915050565b600080604083850312156107de576107dd610dda565b5b600083013567ffffffffffffffff8111156107fc576107fb610dd5565b5b61080885828601610729565b925050602083013567ffffffffffffffff81111561082957610828610dd5565b5b61083585828601610757565b9150509250929050565b60006020828403121561085557610854610dda565b5b600061086384828501610785565b91505092915050565b6000610878838361089c565b60208301905092915050565b60006108908383610a57565b60208301905092915050565b6108a581610cf4565b82525050565b6108b481610cf4565b82525050565b60006108c582610c86565b6108cf8185610cb6565b93506108da83610c66565b8060005b8381101561090b5781516108f2888261086c565b97506108fd83610c9c565b9250506001810190506108de565b5085935050505092915050565b600061092382610c91565b61092d8185610cc7565b935061093883610c76565b8060005b838110156109695781516109508882610884565b975061095b83610ca9565b92505060018101905061093c565b5085935050505092915050565b61097f81610d06565b82525050565b6000610992603c83610ce3565b915061099d82610df0565b604082019050919050565b60006109b5602683610ce3565b91506109c082610e3f565b604082019050919050565b60006109d8602083610ce3565b91506109e382610e8e565b602082019050919050565b60006109fb600083610cd8565b9150610a0682610eb7565b600082019050919050565b6000610a1e601083610ce3565b9150610a2982610eba565b602082019050919050565b6000610a41600f83610ce3565b9150610a4c82610ee3565b602082019050919050565b610a6081610d32565b82525050565b610a6f81610d32565b82525050565b6000610a80826109ee565b9150819050919050565b6000602082019050610a9f60008301846108ab565b92915050565b6000606082019050610aba60008301866108ab565b8181036020830152610acc81856108ba565b90508181036040830152610ae08184610918565b9050949350505050565b6000604082019050610aff60008301856108ab565b610b0c6020830184610a66565b9392505050565b6000602082019050610b286000830184610976565b92915050565b60006020820190508181036000830152610b4781610985565b9050919050565b60006020820190508181036000830152610b67816109a8565b9050919050565b60006020820190508181036000830152610b87816109cb565b9050919050565b60006020820190508181036000830152610ba781610a11565b9050919050565b60006020820190508181036000830152610bc781610a34565b9050919050565b6000602082019050610be36000830184610a66565b92915050565b6000610bf3610c04565b9050610bff8282610d3c565b919050565b6000604051905090565b600067ffffffffffffffff821115610c2957610c28610d9c565b5b602082029050602081019050919050565b600067ffffffffffffffff821115610c5557610c54610d9c565b5b602082029050602081019050919050565b6000819050602082019050919050565b6000819050602082019050919050565b600081519050919050565b600081519050919050565b6000602082019050919050565b6000602082019050919050565b600082825260208201905092915050565b600082825260208201905092915050565b600081905092915050565b600082825260208201905092915050565b6000610cff82610d12565b9050919050565b60008115159050919050565b600073ffffffffffffffffffffffffffffffffffffffff82169050919050565b6000819050919050565b610d4582610ddf565b810181811067ffffffffffffffff82111715610d6457610d63610d9c565b5b80604052505050565b7f4e487b7100000000000000000000000000000000000000000000000000000000600052603260045260246000fd5b7f4e487b7100000000000000000000000000000000000000000000000000000000600052604160045260246000fd5b600080fd5b600080fd5b600080fd5b600080fd5b6000601f19601f8301169050919050565b7f4e756d626572206f6620726563697069656e7473206d7573742062652065717560008201527f616c20746f20746865206e756d626572206f6620616d6f756e74732e00000000602082015250565b7f4f776e61626c653a206e6577206f776e657220697320746865207a65726f206160008201527f6464726573730000000000000000000000000000000000000000000000000000602082015250565b7f4f776e61626c653a2063616c6c6572206973206e6f7420746865206f776e6572600082015250565b50565b7f7472616e73666572207375636365737300000000000000000000000000000000600082015250565b7f7769746864726177206661696c65640000000000000000000000000000000000600082015250565b610f1581610cf4565b8114610f2057600080fd5b50565b610f2c81610d32565b8114610f3757600080fd5b5056fea2646970667358221220367d94ac8a320735b6d2209c5859cb07a73e95f29f6c46e0450e0450f2f6870d64736f6c63430008070033",
			"opcodes": "PUSH1 0x80 PUSH1 0x40 MSTORE CALLVALUE DUP1 ISZERO PUSH2 0x10 JUMPI PUSH1 0x0 DUP1 REVERT JUMPDEST POP PUSH2 0x2D PUSH2 0x22 PUSH2 0x39 PUSH1 0x20 SHL PUSH1 0x20 SHR JUMP JUMPDEST PUSH2 0x41 PUSH1 0x20 SHL PUSH1 0x20 SHR JUMP JUMPDEST PUSH1 0x1 DUP1 DUP2 SWAP1 SSTORE POP PUSH2 0x105 JUMP JUMPDEST PUSH1 0x0 CALLER SWAP1 POP SWAP1 JUMP JUMPDEST PUSH1 0x0 DUP1 PUSH1 0x0 SWAP1 SLOAD SWAP1 PUSH2 0x100 EXP SWAP1 DIV PUSH20 0xFFFFFFFFFFFFFFFFFFFFFFFFFFFFFFFFFFFFFFFF AND SWAP1 POP DUP2 PUSH1 0x0 DUP1 PUSH2 0x100 EXP DUP2 SLOAD DUP2 PUSH20 0xFFFFFFFFFFFFFFFFFFFFFFFFFFFFFFFFFFFFFFFF MUL NOT AND SWAP1 DUP4 PUSH20 0xFFFFFFFFFFFFFFFFFFFFFFFFFFFFFFFFFFFFFFFF AND MUL OR SWAP1 SSTORE POP DUP2 PUSH20 0xFFFFFFFFFFFFFFFFFFFFFFFFFFFFFFFFFFFFFFFF AND DUP2 PUSH20 0xFFFFFFFFFFFFFFFFFFFFFFFFFFFFFFFFFFFFFFFF AND PUSH32 0x8BE0079C531659141344CD1FD0A4F28419497F9722A3DAAFE3B4186F6B6457E0 PUSH1 0x40 MLOAD PUSH1 0x40 MLOAD DUP1 SWAP2 SUB SWAP1 LOG3 POP POP JUMP JUMPDEST PUSH2 0xF70 DUP1 PUSH2 0x114 PUSH1 0x0 CODECOPY PUSH1 0x0 RETURN INVALID PUSH1 0x80 PUSH1 0x40 MSTORE PUSH1 0x4 CALLDATASIZE LT PUSH2 0x59 JUMPI PUSH1 0x0 CALLDATALOAD PUSH1 0xE0 SHR DUP1 PUSH4 0x2E1A7D4D EQ PUSH2 0x62 JUMPI DUP1 PUSH4 0x715018A6 EQ PUSH2 0x9F JUMPI DUP1 PUSH4 0x722713F7 EQ PUSH2 0xB6 JUMPI DUP1 PUSH4 0x8DA5CB5B EQ PUSH2 0xE1 JUMPI DUP1 PUSH4 0xF2FDE38B EQ PUSH2 0x10C JUMPI DUP1 PUSH4 0xFFC3A769 EQ PUSH2 0x135 JUMPI PUSH2 0x60 JUMP JUMPDEST CALLDATASIZE PUSH2 0x60 JUMPI STOP JUMPDEST STOP JUMPDEST CALLVALUE DUP1 ISZERO PUSH2 0x6E JUMPI PUSH1 0x0 DUP1 REVERT JUMPDEST POP PUSH2 0x89 PUSH1 0x4 DUP1 CALLDATASIZE SUB DUP2 ADD SWAP1 PUSH2 0x84 SWAP2 SWAP1 PUSH2 0x83F JUMP JUMPDEST PUSH2 0x172 JUMP JUMPDEST PUSH1 0x40 MLOAD PUSH2 0x96 SWAP2 SWAP1 PUSH2 0xB13 JUMP JUMPDEST PUSH1 0x40 MLOAD DUP1 SWAP2 SUB SWAP1 RETURN JUMPDEST CALLVALUE DUP1 ISZERO PUSH2 0xAB JUMPI PUSH1 0x0 DUP1 REVERT JUMPDEST POP PUSH2 0xB4 PUSH2 0x26B JUMP JUMPDEST STOP JUMPDEST CALLVALUE DUP1 ISZERO PUSH2 0xC2 JUMPI PUSH1 0x0 DUP1 REVERT JUMPDEST POP PUSH2 0xCB PUSH2 0x27F JUMP JUMPDEST PUSH1 0x40 MLOAD PUSH2 0xD8 SWAP2 SWAP1 PUSH2 0xBCE JUMP JUMPDEST PUSH1 0x40 MLOAD DUP1 SWAP2 SUB SWAP1 RETURN JUMPDEST CALLVALUE DUP1 ISZERO PUSH2 0xED JUMPI PUSH1 0x0 DUP1 REVERT JUMPDEST POP PUSH2 0xF6 PUSH2 0x287 JUMP JUMPDEST PUSH1 0x40 MLOAD PUSH2 0x103 SWAP2 SWAP1 PUSH2 0xA8A JUMP JUMPDEST PUSH1 0x40 MLOAD DUP1 SWAP2 SUB SWAP1 RETURN JUMPDEST CALLVALUE DUP1 ISZERO PUSH2 0x118 JUMPI PUSH1 0x0 DUP1 REVERT JUMPDEST POP PUSH2 0x133 PUSH1 0x4 DUP1 CALLDATASIZE SUB DUP2 ADD SWAP1 PUSH2 0x12E SWAP2 SWAP1 PUSH2 0x79A JUMP JUMPDEST PUSH2 0x2B0 JUMP JUMPDEST STOP JUMPDEST CALLVALUE DUP1 ISZERO PUSH2 0x141 JUMPI PUSH1 0x0 DUP1 REVERT JUMPDEST POP PUSH2 0x15C PUSH1 0x4 DUP1 CALLDATASIZE SUB DUP2 ADD SWAP1 PUSH2 0x157 SWAP2 SWAP1 PUSH2 0x7C7 JUMP JUMPDEST PUSH2 0x334 JUMP JUMPDEST PUSH1 0x40 MLOAD PUSH2 0x169 SWAP2 SWAP1 PUSH2 0xB13 JUMP JUMPDEST PUSH1 0x40 MLOAD DUP1 SWAP2 SUB SWAP1 RETURN JUMPDEST PUSH1 0x0 PUSH2 0x17C PUSH2 0x38E JUMP JUMPDEST PUSH1 0x0 CALLER PUSH20 0xFFFFFFFFFFFFFFFFFFFFFFFFFFFFFFFFFFFFFFFF AND DUP4 PUSH1 0x40 MLOAD PUSH2 0x1A2 SWAP1 PUSH2 0xA75 JUMP JUMPDEST PUSH1 0x0 PUSH1 0x40 MLOAD DUP1 DUP4 SUB DUP2 DUP6 DUP8 GAS CALL SWAP3 POP POP POP RETURNDATASIZE DUP1 PUSH1 0x0 DUP2 EQ PUSH2 0x1DF JUMPI PUSH1 0x40 MLOAD SWAP2 POP PUSH1 0x1F NOT PUSH1 0x3F RETURNDATASIZE ADD AND DUP3 ADD PUSH1 0x40 MSTORE RETURNDATASIZE DUP3 MSTORE RETURNDATASIZE PUSH1 0x0 PUSH1 0x20 DUP5 ADD RETURNDATACOPY PUSH2 0x1E4 JUMP JUMPDEST PUSH1 0x60 SWAP2 POP JUMPDEST POP POP SWAP1 POP DUP1 PUSH2 0x228 JUMPI PUSH1 0x40 MLOAD PUSH32 0x8C379A000000000000000000000000000000000000000000000000000000000 DUP2 MSTORE PUSH1 0x4 ADD PUSH2 0x21F SWAP1 PUSH2 0xBAE JUMP JUMPDEST PUSH1 0x40 MLOAD DUP1 SWAP2 SUB SWAP1 REVERT JUMPDEST PUSH32 0x884EDAD9CE6FA2440D8A54CC123490EB96D2768479D49FF9C7366125A9424364 ADDRESS DUP5 PUSH1 0x40 MLOAD PUSH2 0x259 SWAP3 SWAP2 SWAP1 PUSH2 0xAEA JUMP JUMPDEST PUSH1 0x40 MLOAD DUP1 SWAP2 SUB SWAP1 LOG1 PUSH1 0x1 SWAP2 POP POP SWAP2 SWAP1 POP JUMP JUMPDEST PUSH2 0x273 PUSH2 0x38E JUMP JUMPDEST PUSH2 0x27D PUSH1 0x0 PUSH2 0x40C JUMP JUMPDEST JUMP JUMPDEST PUSH1 0x0 SELFBALANCE SWAP1 POP SWAP1 JUMP JUMPDEST PUSH1 0x0 DUP1 PUSH1 0x0 SWAP1 SLOAD SWAP1 PUSH2 0x100 EXP SWAP1 DIV PUSH20 0xFFFFFFFFFFFFFFFFFFFFFFFFFFFFFFFFFFFFFFFF AND SWAP1 POP SWAP1 JUMP JUMPDEST PUSH2 0x2B8 PUSH2 0x38E JUMP JUMPDEST PUSH1 0x0 PUSH20 0xFFFFFFFFFFFFFFFFFFFFFFFFFFFFFFFFFFFFFFFF AND DUP2 PUSH20 0xFFFFFFFFFFFFFFFFFFFFFFFFFFFFFFFFFFFFFFFF AND EQ ISZERO PUSH2 0x328 JUMPI PUSH1 0x40 MLOAD PUSH32 0x8C379A000000000000000000000000000000000000000000000000000000000 DUP2 MSTORE PUSH1 0x4 ADD PUSH2 0x31F SWAP1 PUSH2 0xB4E JUMP JUMPDEST PUSH1 0x40 MLOAD DUP1 SWAP2 SUB SWAP1 REVERT JUMPDEST PUSH2 0x331 DUP2 PUSH2 0x40C JUMP JUMPDEST POP JUMP JUMPDEST PUSH1 0x0 PUSH2 0x33E PUSH2 0x38E JUMP JUMPDEST PUSH2 0x348 DUP4 DUP4 PUSH2 0x4D0 JUMP JUMPDEST POP PUSH32 0x196B2BC9ADAF20A18315FC904174B2511166FAC7A335CB27DC9CA96F975A7998 CALLER DUP5 DUP5 PUSH1 0x40 MLOAD PUSH2 0x37C SWAP4 SWAP3 SWAP2 SWAP1 PUSH2 0xAA5 JUMP JUMPDEST PUSH1 0x40 MLOAD DUP1 SWAP2 SUB SWAP1 LOG1 PUSH1 0x1 SWAP1 POP SWAP3 SWAP2 POP POP JUMP JUMPDEST PUSH2 0x396 PUSH2 0x62C JUMP JUMPDEST PUSH20 0xFFFFFFFFFFFFFFFFFFFFFFFFFFFFFFFFFFFFFFFF AND PUSH2 0x3B4 PUSH2 0x287 JUMP JUMPDEST PUSH20 0xFFFFFFFFFFFFFFFFFFFFFFFFFFFFFFFFFFFFFFFF AND EQ PUSH2 0x40A JUMPI PUSH1 0x40 MLOAD PUSH32 0x8C379A000000000000000000000000000000000000000000000000000000000 DUP2 MSTORE PUSH1 0x4 ADD PUSH2 0x401 SWAP1 PUSH2 0xB6E JUMP JUMPDEST PUSH1 0x40 MLOAD DUP1 SWAP2 SUB SWAP1 REVERT JUMPDEST JUMP JUMPDEST PUSH1 0x0 DUP1 PUSH1 0x0 SWAP1 SLOAD SWAP1 PUSH2 0x100 EXP SWAP1 DIV PUSH20 0xFFFFFFFFFFFFFFFFFFFFFFFFFFFFFFFFFFFFFFFF AND SWAP1 POP DUP2 PUSH1 0x0 DUP1 PUSH2 0x100 EXP DUP2 SLOAD DUP2 PUSH20 0xFFFFFFFFFFFFFFFFFFFFFFFFFFFFFFFFFFFFFFFF MUL NOT AND SWAP1 DUP4 PUSH20 0xFFFFFFFFFFFFFFFFFFFFFFFFFFFFFFFFFFFFFFFF AND MUL OR SWAP1 SSTORE POP DUP2 PUSH20 0xFFFFFFFFFFFFFFFFFFFFFFFFFFFFFFFFFFFFFFFF AND DUP2 PUSH20 0xFFFFFFFFFFFFFFFFFFFFFFFFFFFFFFFFFFFFFFFF AND PUSH32 0x8BE0079C531659141344CD1FD0A4F28419497F9722A3DAAFE3B4186F6B6457E0 PUSH1 0x40 MLOAD PUSH1 0x40 MLOAD DUP1 SWAP2 SUB SWAP1 LOG3 POP POP JUMP JUMPDEST PUSH1 0x0 DUP2 MLOAD DUP4 MLOAD EQ PUSH2 0x516 JUMPI PUSH1 0x40 MLOAD PUSH32 0x8C379A000000000000000000000000000000000000000000000000000000000 DUP2 MSTORE PUSH1 0x4 ADD PUSH2 0x50D SWAP1 PUSH2 0xB2E JUMP JUMPDEST PUSH1 0x40 MLOAD DUP1 SWAP2 SUB SWAP1 REVERT JUMPDEST PUSH1 0x0 DUP4 SWAP1 POP PUSH1 0x0 DUP4 SWAP1 POP PUSH1 0x0 JUMPDEST DUP3 MLOAD DUP2 LT ISZERO PUSH2 0x61F JUMPI PUSH1 0x0 DUP4 DUP3 DUP2 MLOAD DUP2 LT PUSH2 0x541 JUMPI PUSH2 0x540 PUSH2 0xD6D JUMP JUMPDEST JUMPDEST PUSH1 0x20 MUL PUSH1 0x20 ADD ADD MLOAD PUSH20 0xFFFFFFFFFFFFFFFFFFFFFFFFFFFFFFFFFFFFFFFF AND DUP4 DUP4 DUP2 MLOAD DUP2 LT PUSH2 0x572 JUMPI PUSH2 0x571 PUSH2 0xD6D JUMP JUMPDEST JUMPDEST PUSH1 0x20 MUL PUSH1 0x20 ADD ADD MLOAD PUSH2 0x8FC SWAP1 PUSH1 0x40 MLOAD PUSH2 0x58A SWAP1 PUSH2 0xA75 JUMP JUMPDEST PUSH1 0x0 PUSH1 0x40 MLOAD DUP1 DUP4 SUB DUP2 DUP6 DUP9 DUP9 CALL SWAP4 POP POP POP POP RETURNDATASIZE DUP1 PUSH1 0x0 DUP2 EQ PUSH2 0x5C8 JUMPI PUSH1 0x40 MLOAD SWAP2 POP PUSH1 0x1F NOT PUSH1 0x3F RETURNDATASIZE ADD AND DUP3 ADD PUSH1 0x40 MSTORE RETURNDATASIZE DUP3 MSTORE RETURNDATASIZE PUSH1 0x0 PUSH1 0x20 DUP5 ADD RETURNDATACOPY PUSH2 0x5CD JUMP JUMPDEST PUSH1 0x60 SWAP2 POP JUMPDEST POP POP SWAP1 POP DUP1 PUSH2 0x611 JUMPI PUSH1 0x40 MLOAD PUSH32 0x8C379A000000000000000000000000000000000000000000000000000000000 DUP2 MSTORE PUSH1 0x4 ADD PUSH2 0x608 SWAP1 PUSH2 0xB8E JUMP JUMPDEST PUSH1 0x40 MLOAD DUP1 SWAP2 SUB SWAP1 REVERT JUMPDEST DUP2 DUP1 PUSH1 0x1 ADD SWAP3 POP POP POP PUSH2 0x523 JUMP JUMPDEST POP PUSH1 0x1 SWAP3 POP POP POP SWAP3 SWAP2 POP POP JUMP JUMPDEST PUSH1 0x0 CALLER SWAP1 POP SWAP1 JUMP JUMPDEST PUSH1 0x0 PUSH2 0x647 PUSH2 0x642 DUP5 PUSH2 0xC0E JUMP JUMPDEST PUSH2 0xBE9 JUMP JUMPDEST SWAP1 POP DUP1 DUP4 DUP3 MSTORE PUSH1 0x20 DUP3 ADD SWAP1 POP DUP3 DUP6 PUSH1 0x20 DUP7 MUL DUP3 ADD GT ISZERO PUSH2 0x66A JUMPI PUSH2 0x669 PUSH2 0xDD0 JUMP JUMPDEST JUMPDEST PUSH1 0x0 JUMPDEST DUP6 DUP2 LT ISZERO PUSH2 0x69A JUMPI DUP2 PUSH2 0x680 DUP9 DUP3 PUSH2 0x714 JUMP JUMPDEST DUP5 MSTORE PUSH1 0x20 DUP5 ADD SWAP4 POP PUSH1 0x20 DUP4 ADD SWAP3 POP POP PUSH1 0x1 DUP2 ADD SWAP1 POP PUSH2 0x66D JUMP JUMPDEST POP POP POP SWAP4 SWAP3 POP POP POP JUMP JUMPDEST PUSH1 0x0 PUSH2 0x6B7 PUSH2 0x6B2 DUP5 PUSH2 0xC3A JUMP JUMPDEST PUSH2 0xBE9 JUMP JUMPDEST SWAP1 POP DUP1 DUP4 DUP3 MSTORE PUSH1 0x20 DUP3 ADD SWAP1 POP DUP3 DUP6 PUSH1 0x20 DUP7 MUL DUP3 ADD GT ISZERO PUSH2 0x6DA JUMPI PUSH2 0x6D9 PUSH2 0xDD0 JUMP JUMPDEST JUMPDEST PUSH1 0x0 JUMPDEST DUP6 DUP2 LT ISZERO PUSH2 0x70A JUMPI DUP2 PUSH2 0x6F0 DUP9 DUP3 PUSH2 0x785 JUMP JUMPDEST DUP5 MSTORE PUSH1 0x20 DUP5 ADD SWAP4 POP PUSH1 0x20 DUP4 ADD SWAP3 POP POP PUSH1 0x1 DUP2 ADD SWAP1 POP PUSH2 0x6DD JUMP JUMPDEST POP POP POP SWAP4 SWAP3 POP POP POP JUMP JUMPDEST PUSH1 0x0 DUP2 CALLDATALOAD SWAP1 POP PUSH2 0x723 DUP2 PUSH2 0xF0C JUMP JUMPDEST SWAP3 SWAP2 POP POP JUMP JUMPDEST PUSH1 0x0 DUP3 PUSH1 0x1F DUP4 ADD SLT PUSH2 0x73E JUMPI PUSH2 0x73D PUSH2 0xDCB JUMP JUMPDEST JUMPDEST DUP2 CALLDATALOAD PUSH2 0x74E DUP5 DUP3 PUSH1 0x20 DUP7 ADD PUSH2 0x634 JUMP JUMPDEST SWAP2 POP POP SWAP3 SWAP2 POP POP JUMP JUMPDEST PUSH1 0x0 DUP3 PUSH1 0x1F DUP4 ADD SLT PUSH2 0x76C JUMPI PUSH2 0x76B PUSH2 0xDCB JUMP JUMPDEST JUMPDEST DUP2 CALLDATALOAD PUSH2 0x77C DUP5 DUP3 PUSH1 0x20 DUP7 ADD PUSH2 0x6A4 JUMP JUMPDEST SWAP2 POP POP SWAP3 SWAP2 POP POP JUMP JUMPDEST PUSH1 0x0 DUP2 CALLDATALOAD SWAP1 POP PUSH2 0x794 DUP2 PUSH2 0xF23 JUMP JUMPDEST SWAP3 SWAP2 POP POP JUMP JUMPDEST PUSH1 0x0 PUSH1 0x20 DUP3 DUP5 SUB SLT ISZERO PUSH2 0x7B0 JUMPI PUSH2 0x7AF PUSH2 0xDDA JUMP JUMPDEST JUMPDEST PUSH1 0x0 PUSH2 0x7BE DUP5 DUP3 DUP6 ADD PUSH2 0x714 JUMP JUMPDEST SWAP2 POP POP SWAP3 SWAP2 POP POP JUMP JUMPDEST PUSH1 0x0 DUP1 PUSH1 0x40 DUP4 DUP6 SUB SLT ISZERO PUSH2 0x7DE JUMPI PUSH2 0x7DD PUSH2 0xDDA JUMP JUMPDEST JUMPDEST PUSH1 0x0 DUP4 ADD CALLDATALOAD PUSH8 0xFFFFFFFFFFFFFFFF DUP2 GT ISZERO PUSH2 0x7FC JUMPI PUSH2 0x7FB PUSH2 0xDD5 JUMP JUMPDEST JUMPDEST PUSH2 0x808 DUP6 DUP3 DUP7 ADD PUSH2 0x729 JUMP JUMPDEST SWAP3 POP POP PUSH1 0x20 DUP4 ADD CALLDATALOAD PUSH8 0xFFFFFFFFFFFFFFFF DUP2 GT ISZERO PUSH2 0x829 JUMPI PUSH2 0x828 PUSH2 0xDD5 JUMP JUMPDEST JUMPDEST PUSH2 0x835 DUP6 DUP3 DUP7 ADD PUSH2 0x757 JUMP JUMPDEST SWAP2 POP POP SWAP3 POP SWAP3 SWAP1 POP JUMP JUMPDEST PUSH1 0x0 PUSH1 0x20 DUP3 DUP5 SUB SLT ISZERO PUSH2 0x855 JUMPI PUSH2 0x854 PUSH2 0xDDA JUMP JUMPDEST JUMPDEST PUSH1 0x0 PUSH2 0x863 DUP5 DUP3 DUP6 ADD PUSH2 0x785 JUMP JUMPDEST SWAP2 POP POP SWAP3 SWAP2 POP POP JUMP JUMPDEST PUSH1 0x0 PUSH2 0x878 DUP4 DUP4 PUSH2 0x89C JUMP JUMPDEST PUSH1 0x20 DUP4 ADD SWAP1 POP SWAP3 SWAP2 POP POP JUMP JUMPDEST PUSH1 0x0 PUSH2 0x890 DUP4 DUP4 PUSH2 0xA57 JUMP JUMPDEST PUSH1 0x20 DUP4 ADD SWAP1 POP SWAP3 SWAP2 POP POP JUMP JUMPDEST PUSH2 0x8A5 DUP2 PUSH2 0xCF4 JUMP JUMPDEST DUP3 MSTORE POP POP JUMP JUMPDEST PUSH2 0x8B4 DUP2 PUSH2 0xCF4 JUMP JUMPDEST DUP3 MSTORE POP POP JUMP JUMPDEST PUSH1 0x0 PUSH2 0x8C5 DUP3 PUSH2 0xC86 JUMP JUMPDEST PUSH2 0x8CF DUP2 DUP6 PUSH2 0xCB6 JUMP JUMPDEST SWAP4 POP PUSH2 0x8DA DUP4 PUSH2 0xC66 JUMP JUMPDEST DUP1 PUSH1 0x0 JUMPDEST DUP4 DUP2 LT ISZERO PUSH2 0x90B JUMPI DUP2 MLOAD PUSH2 0x8F2 DUP9 DUP3 PUSH2 0x86C JUMP JUMPDEST SWAP8 POP PUSH2 0x8FD DUP4 PUSH2 0xC9C JUMP JUMPDEST SWAP3 POP POP PUSH1 0x1 DUP2 ADD SWAP1 POP PUSH2 0x8DE JUMP JUMPDEST POP DUP6 SWAP4 POP POP POP POP SWAP3 SWAP2 POP POP JUMP JUMPDEST PUSH1 0x0 PUSH2 0x923 DUP3 PUSH2 0xC91 JUMP JUMPDEST PUSH2 0x92D DUP2 DUP6 PUSH2 0xCC7 JUMP JUMPDEST SWAP4 POP PUSH2 0x938 DUP4 PUSH2 0xC76 JUMP JUMPDEST DUP1 PUSH1 0x0 JUMPDEST DUP4 DUP2 LT ISZERO PUSH2 0x969 JUMPI DUP2 MLOAD PUSH2 0x950 DUP9 DUP3 PUSH2 0x884 JUMP JUMPDEST SWAP8 POP PUSH2 0x95B DUP4 PUSH2 0xCA9 JUMP JUMPDEST SWAP3 POP POP PUSH1 0x1 DUP2 ADD SWAP1 POP PUSH2 0x93C JUMP JUMPDEST POP DUP6 SWAP4 POP POP POP POP SWAP3 SWAP2 POP POP JUMP JUMPDEST PUSH2 0x97F DUP2 PUSH2 0xD06 JUMP JUMPDEST DUP3 MSTORE POP POP JUMP JUMPDEST PUSH1 0x0 PUSH2 0x992 PUSH1 0x3C DUP4 PUSH2 0xCE3 JUMP JUMPDEST SWAP2 POP PUSH2 0x99D DUP3 PUSH2 0xDF0 JUMP JUMPDEST PUSH1 0x40 DUP3 ADD SWAP1 POP SWAP2 SWAP1 POP JUMP JUMPDEST PUSH1 0x0 PUSH2 0x9B5 PUSH1 0x26 DUP4 PUSH2 0xCE3 JUMP JUMPDEST SWAP2 POP PUSH2 0x9C0 DUP3 PUSH2 0xE3F JUMP JUMPDEST PUSH1 0x40 DUP3 ADD SWAP1 POP SWAP2 SWAP1 POP JUMP JUMPDEST PUSH1 0x0 PUSH2 0x9D8 PUSH1 0x20 DUP4 PUSH2 0xCE3 JUMP JUMPDEST SWAP2 POP PUSH2 0x9E3 DUP3 PUSH2 0xE8E JUMP JUMPDEST PUSH1 0x20 DUP3 ADD SWAP1 POP SWAP2 SWAP1 POP JUMP JUMPDEST PUSH1 0x0 PUSH2 0x9FB PUSH1 0x0 DUP4 PUSH2 0xCD8 JUMP JUMPDEST SWAP2 POP PUSH2 0xA06 DUP3 PUSH2 0xEB7 JUMP JUMPDEST PUSH1 0x0 DUP3 ADD SWAP1 POP SWAP2 SWAP1 POP JUMP JUMPDEST PUSH1 0x0 PUSH2 0xA1E PUSH1 0x10 DUP4 PUSH2 0xCE3 JUMP JUMPDEST SWAP2 POP PUSH2 0xA29 DUP3 PUSH2 0xEBA JUMP JUMPDEST PUSH1 0x20 DUP3 ADD SWAP1 POP SWAP2 SWAP1 POP JUMP JUMPDEST PUSH1 0x0 PUSH2 0xA41 PUSH1 0xF DUP4 PUSH2 0xCE3 JUMP JUMPDEST SWAP2 POP PUSH2 0xA4C DUP3 PUSH2 0xEE3 JUMP JUMPDEST PUSH1 0x20 DUP3 ADD SWAP1 POP SWAP2 SWAP1 POP JUMP JUMPDEST PUSH2 0xA60 DUP2 PUSH2 0xD32 JUMP JUMPDEST DUP3 MSTORE POP POP JUMP JUMPDEST PUSH2 0xA6F DUP2 PUSH2 0xD32 JUMP JUMPDEST DUP3 MSTORE POP POP JUMP JUMPDEST PUSH1 0x0 PUSH2 0xA80 DUP3 PUSH2 0x9EE JUMP JUMPDEST SWAP2 POP DUP2 SWAP1 POP SWAP2 SWAP1 POP JUMP JUMPDEST PUSH1 0x0 PUSH1 0x20 DUP3 ADD SWAP1 POP PUSH2 0xA9F PUSH1 0x0 DUP4 ADD DUP5 PUSH2 0x8AB JUMP JUMPDEST SWAP3 SWAP2 POP POP JUMP JUMPDEST PUSH1 0x0 PUSH1 0x60 DUP3 ADD SWAP1 POP PUSH2 0xABA PUSH1 0x0 DUP4 ADD DUP7 PUSH2 0x8AB JUMP JUMPDEST DUP2 DUP2 SUB PUSH1 0x20 DUP4 ADD MSTORE PUSH2 0xACC DUP2 DUP6 PUSH2 0x8BA JUMP JUMPDEST SWAP1 POP DUP2 DUP2 SUB PUSH1 0x40 DUP4 ADD MSTORE PUSH2 0xAE0 DUP2 DUP5 PUSH2 0x918 JUMP JUMPDEST SWAP1 POP SWAP5 SWAP4 POP POP POP POP JUMP JUMPDEST PUSH1 0x0 PUSH1 0x40 DUP3 ADD SWAP1 POP PUSH2 0xAFF PUSH1 0x0 DUP4 ADD DUP6 PUSH2 0x8AB JUMP JUMPDEST PUSH2 0xB0C PUSH1 0x20 DUP4 ADD DUP5 PUSH2 0xA66 JUMP JUMPDEST SWAP4 SWAP3 POP POP POP JUMP JUMPDEST PUSH1 0x0 PUSH1 0x20 DUP3 ADD SWAP1 POP PUSH2 0xB28 PUSH1 0x0 DUP4 ADD DUP5 PUSH2 0x976 JUMP JUMPDEST SWAP3 SWAP2 POP POP JUMP JUMPDEST PUSH1 0x0 PUSH1 0x20 DUP3 ADD SWAP1 POP DUP2 DUP2 SUB PUSH1 0x0 DUP4 ADD MSTORE PUSH2 0xB47 DUP2 PUSH2 0x985 JUMP JUMPDEST SWAP1 POP SWAP2 SWAP1 POP JUMP JUMPDEST PUSH1 0x0 PUSH1 0x20 DUP3 ADD SWAP1 POP DUP2 DUP2 SUB PUSH1 0x0 DUP4 ADD MSTORE PUSH2 0xB67 DUP2 PUSH2 0x9A8 JUMP JUMPDEST SWAP1 POP SWAP2 SWAP1 POP JUMP JUMPDEST PUSH1 0x0 PUSH1 0x20 DUP3 ADD SWAP1 POP DUP2 DUP2 SUB PUSH1 0x0 DUP4 ADD MSTORE PUSH2 0xB87 DUP2 PUSH2 0x9CB JUMP JUMPDEST SWAP1 POP SWAP2 SWAP1 POP JUMP JUMPDEST PUSH1 0x0 PUSH1 0x20 DUP3 ADD SWAP1 POP DUP2 DUP2 SUB PUSH1 0x0 DUP4 ADD MSTORE PUSH2 0xBA7 DUP2 PUSH2 0xA11 JUMP JUMPDEST SWAP1 POP SWAP2 SWAP1 POP JUMP JUMPDEST PUSH1 0x0 PUSH1 0x20 DUP3 ADD SWAP1 POP DUP2 DUP2 SUB PUSH1 0x0 DUP4 ADD MSTORE PUSH2 0xBC7 DUP2 PUSH2 0xA34 JUMP JUMPDEST SWAP1 POP SWAP2 SWAP1 POP JUMP JUMPDEST PUSH1 0x0 PUSH1 0x20 DUP3 ADD SWAP1 POP PUSH2 0xBE3 PUSH1 0x0 DUP4 ADD DUP5 PUSH2 0xA66 JUMP JUMPDEST SWAP3 SWAP2 POP POP JUMP JUMPDEST PUSH1 0x0 PUSH2 0xBF3 PUSH2 0xC04 JUMP JUMPDEST SWAP1 POP PUSH2 0xBFF DUP3 DUP3 PUSH2 0xD3C JUMP JUMPDEST SWAP2 SWAP1 POP JUMP JUMPDEST PUSH1 0x0 PUSH1 0x40 MLOAD SWAP1 POP SWAP1 JUMP JUMPDEST PUSH1 0x0 PUSH8 0xFFFFFFFFFFFFFFFF DUP3 GT ISZERO PUSH2 0xC29 JUMPI PUSH2 0xC28 PUSH2 0xD9C JUMP JUMPDEST JUMPDEST PUSH1 0x20 DUP3 MUL SWAP1 POP PUSH1 0x20 DUP2 ADD SWAP1 POP SWAP2 SWAP1 POP JUMP JUMPDEST PUSH1 0x0 PUSH8 0xFFFFFFFFFFFFFFFF DUP3 GT ISZERO PUSH2 0xC55 JUMPI PUSH2 0xC54 PUSH2 0xD9C JUMP JUMPDEST JUMPDEST PUSH1 0x20 DUP3 MUL SWAP1 POP PUSH1 0x20 DUP2 ADD SWAP1 POP SWAP2 SWAP1 POP JUMP JUMPDEST PUSH1 0x0 DUP2 SWAP1 POP PUSH1 0x20 DUP3 ADD SWAP1 POP SWAP2 SWAP1 POP JUMP JUMPDEST PUSH1 0x0 DUP2 SWAP1 POP PUSH1 0x20 DUP3 ADD SWAP1 POP SWAP2 SWAP1 POP JUMP JUMPDEST PUSH1 0x0 DUP2 MLOAD SWAP1 POP SWAP2 SWAP1 POP JUMP JUMPDEST PUSH1 0x0 DUP2 MLOAD SWAP1 POP SWAP2 SWAP1 POP JUMP JUMPDEST PUSH1 0x0 PUSH1 0x20 DUP3 ADD SWAP1 POP SWAP2 SWAP1 POP JUMP JUMPDEST PUSH1 0x0 PUSH1 0x20 DUP3 ADD SWAP1 POP SWAP2 SWAP1 POP JUMP JUMPDEST PUSH1 0x0 DUP3 DUP3 MSTORE PUSH1 0x20 DUP3 ADD SWAP1 POP SWAP3 SWAP2 POP POP JUMP JUMPDEST PUSH1 0x0 DUP3 DUP3 MSTORE PUSH1 0x20 DUP3 ADD SWAP1 POP SWAP3 SWAP2 POP POP JUMP JUMPDEST PUSH1 0x0 DUP2 SWAP1 POP SWAP3 SWAP2 POP POP JUMP JUMPDEST PUSH1 0x0 DUP3 DUP3 MSTORE PUSH1 0x20 DUP3 ADD SWAP1 POP SWAP3 SWAP2 POP POP JUMP JUMPDEST PUSH1 0x0 PUSH2 0xCFF DUP3 PUSH2 0xD12 JUMP JUMPDEST SWAP1 POP SWAP2 SWAP1 POP JUMP JUMPDEST PUSH1 0x0 DUP2 ISZERO ISZERO SWAP1 POP SWAP2 SWAP1 POP JUMP JUMPDEST PUSH1 0x0 PUSH20 0xFFFFFFFFFFFFFFFFFFFFFFFFFFFFFFFFFFFFFFFF DUP3 AND SWAP1 POP SWAP2 SWAP1 POP JUMP JUMPDEST PUSH1 0x0 DUP2 SWAP1 POP SWAP2 SWAP1 POP JUMP JUMPDEST PUSH2 0xD45 DUP3 PUSH2 0xDDF JUMP JUMPDEST DUP2 ADD DUP2 DUP2 LT PUSH8 0xFFFFFFFFFFFFFFFF DUP3 GT OR ISZERO PUSH2 0xD64 JUMPI PUSH2 0xD63 PUSH2 0xD9C JUMP JUMPDEST JUMPDEST DUP1 PUSH1 0x40 MSTORE POP POP POP JUMP JUMPDEST PUSH32 0x4E487B7100000000000000000000000000000000000000000000000000000000 PUSH1 0x0 MSTORE PUSH1 0x32 PUSH1 0x4 MSTORE PUSH1 0x24 PUSH1 0x0 REVERT JUMPDEST PUSH32 0x4E487B7100000000000000000000000000000000000000000000000000000000 PUSH1 0x0 MSTORE PUSH1 0x41 PUSH1 0x4 MSTORE PUSH1 0x24 PUSH1 0x0 REVERT JUMPDEST PUSH1 0x0 DUP1 REVERT JUMPDEST PUSH1 0x0 DUP1 REVERT JUMPDEST PUSH1 0x0 DUP1 REVERT JUMPDEST PUSH1 0x0 DUP1 REVERT JUMPDEST PUSH1 0x0 PUSH1 0x1F NOT PUSH1 0x1F DUP4 ADD AND SWAP1 POP SWAP2 SWAP1 POP JUMP JUMPDEST PUSH32 0x4E756D626572206F6620726563697069656E7473206D75737420626520657175 PUSH1 0x0 DUP3 ADD MSTORE PUSH32 0x616C20746F20746865206E756D626572206F6620616D6F756E74732E00000000 PUSH1 0x20 DUP3 ADD MSTORE POP JUMP JUMPDEST PUSH32 0x4F776E61626C653A206E6577206F776E657220697320746865207A65726F2061 PUSH1 0x0 DUP3 ADD MSTORE PUSH32 0x6464726573730000000000000000000000000000000000000000000000000000 PUSH1 0x20 DUP3 ADD MSTORE POP JUMP JUMPDEST PUSH32 0x4F776E61626C653A2063616C6C6572206973206E6F7420746865206F776E6572 PUSH1 0x0 DUP3 ADD MSTORE POP JUMP JUMPDEST POP JUMP JUMPDEST PUSH32 0x7472616E73666572207375636365737300000000000000000000000000000000 PUSH1 0x0 DUP3 ADD MSTORE POP JUMP JUMPDEST PUSH32 0x7769746864726177206661696C65640000000000000000000000000000000000 PUSH1 0x0 DUP3 ADD MSTORE POP JUMP JUMPDEST PUSH2 0xF15 DUP2 PUSH2 0xCF4 JUMP JUMPDEST DUP2 EQ PUSH2 0xF20 JUMPI PUSH1 0x0 DUP1 REVERT JUMPDEST POP JUMP JUMPDEST PUSH2 0xF2C DUP2 PUSH2 0xD32 JUMP JUMPDEST DUP2 EQ PUSH2 0xF37 JUMPI PUSH1 0x0 DUP1 REVERT JUMPDEST POP JUMP INVALID LOG2 PUSH5 0x6970667358 0x22 SLT KECCAK256 CALLDATASIZE PUSH30 0x94AC8A320735B6D2209C5859CB07A73E95F29F6C46E0450E0450F2F6870D PUSH5 0x736F6C6343 STOP ADDMOD SMOD STOP CALLER "
		},
		"gasEstimates": {
			"creation": {
				"codeDepositCost": "790400",
				"executionCost": "infinite",
				"totalCost": "infinite"
			},
			"external": {
				"": "195",
				"balanceOf()": "361",
				"owner()": "2566",
				"renounceOwnership()": "30398",
				"transfer(address[],uint256[])": "infinite",
				"transferOwnership(address)": "30813",
				"withdraw(uint256)": "infinite"
			},
			"internal": {
				"_batchTransfer(address[] memory,uint256[] memory)": "infinite"
			}
		},
		"methodIdentifiers": {
			"balanceOf()": "722713f7",
			"owner()": "8da5cb5b",
			"renounceOwnership()": "715018a6",
			"transfer(address[],uint256[])": "ffc3a769",
			"transferOwnership(address)": "f2fde38b",
			"withdraw(uint256)": "2e1a7d4d"
		}
	},
	"abi": [
		{
			"anonymous": false,
			"inputs": [
				{
					"indexed": true,
					"internalType": "address",
					"name": "previousOwner",
					"type": "address"
				},
				{
					"indexed": true,
					"internalType": "address",
					"name": "newOwner",
					"type": "address"
				}
			],
			"name": "OwnershipTransferred",
			"type": "event"
		},
		{
			"anonymous": false,
			"inputs": [
				{
					"indexed": false,
					"internalType": "address",
					"name": "",
					"type": "address"
				},
				{
					"indexed": false,
					"internalType": "address[]",
					"name": "",
					"type": "address[]"
				},
				{
					"indexed": false,
					"internalType": "uint256[]",
					"name": "",
					"type": "uint256[]"
				}
			],
			"name": "Transfer",
			"type": "event"
		},
		{
			"anonymous": false,
			"inputs": [
				{
					"indexed": false,
					"internalType": "address",
					"name": "",
					"type": "address"
				},
				{
					"indexed": false,
					"internalType": "uint256",
					"name": "",
					"type": "uint256"
				}
			],
			"name": "Withdraw",
			"type": "event"
		},
		{
			"stateMutability": "payable",
			"type": "fallback"
		},
		{
			"inputs": [],
			"name": "balanceOf",
			"outputs": [
				{
					"internalType": "uint256",
					"name": "",
					"type": "uint256"
				}
			],
			"stateMutability": "view",
			"type": "function"
		},
		{
			"inputs": [],
			"name": "owner",
			"outputs": [
				{
					"internalType": "address",
					"name": "",
					"type": "address"
				}
			],
			"stateMutability": "view",
			"type": "function"
		},
		{
			"inputs": [],
			"name": "renounceOwnership",
			"outputs": [],
			"stateMutability": "nonpayable",
			"type": "function"
		},
		{
			"inputs": [
				{
					"internalType": "address[]",
					"name": "recipients",
					"type": "address[]"
				},
				{
					"internalType": "uint256[]",
					"name": "amounts",
					"type": "uint256[]"
				}
			],
			"name": "transfer",
			"outputs": [
				{
					"internalType": "bool",
					"name": "",
					"type": "bool"
				}
			],
			"stateMutability": "nonpayable",
			"type": "function"
		},
		{
			"inputs": [
				{
					"internalType": "address",
					"name": "newOwner",
					"type": "address"
				}
			],
			"name": "transferOwnership",
			"outputs": [],
			"stateMutability": "nonpayable",
			"type": "function"
		},
		{
			"inputs": [
				{
					"internalType": "uint256",
					"name": "amount",
					"type": "uint256"
				}
			],
			"name": "withdraw",
			"outputs": [
				{
					"internalType": "bool",
					"name": "",
					"type": "bool"
				}
			],
			"stateMutability": "nonpayable",
			"type": "function"
		},
		{
			"stateMutability": "payable",
			"type": "receive"
		}
	]
}