{
	"transferActive.sol": {
		"TranActive": {
			"abi": [
				{
					"anonymous": false,
					"inputs": [
						{
							"indexed": true,
							"internalType": "address",
							"name": "previousOwner",
							"type": "address"
						},
						{
							"indexed": true,
							"internalType": "address",
							"name": "newOwner",
							"type": "address"
						}
					],
					"name": "OwnershipTransferred",
					"type": "event"
				},
				{
					"anonymous": false,
					"inputs": [
						{
							"indexed": false,
							"internalType": "address",
							"name": "",
							"type": "address"
						},
						{
							"indexed": false,
							"internalType": "uint256",
							"name": "",
							"type": "uint256"
						}
					],
					"name": "Withdraw",
					"type": "event"
				},
				{
					"stateMutability": "payable",
					"type": "fallback"
				},
				{
					"inputs": [],
					"name": "balanceOf",
					"outputs": [
						{
							"internalType": "uint256",
							"name": "",
							"type": "uint256"
						}
					],
					"stateMutability": "view",
					"type": "function"
				},
				{
					"inputs": [],
					"name": "deposit",
					"outputs": [
						{
							"internalType": "address",
							"name": "",
							"type": "address"
						},
						{
							"internalType": "uint256",
							"name": "",
							"type": "uint256"
						}
					],
					"stateMutability": "payable",
					"type": "function"
				},
				{
					"inputs": [
						{
							"internalType": "address",
							"name": "",
							"type": "address"
						}
					],
					"name": "depositquota",
					"outputs": [
						{
							"internalType": "uint256",
							"name": "",
							"type": "uint256"
						}
					],
					"stateMutability": "view",
					"type": "function"
				},
				{
					"inputs": [],
					"name": "owner",
					"outputs": [
						{
							"internalType": "address",
							"name": "",
							"type": "address"
						}
					],
					"stateMutability": "view",
					"type": "function"
				},
				{
					"inputs": [],
					"name": "renounceOwnership",
					"outputs": [],
					"stateMutability": "nonpayable",
					"type": "function"
				},
				{
					"inputs": [
						{
							"internalType": "address[]",
							"name": "recipients",
							"type": "address[]"
						},
						{
							"internalType": "uint256[]",
							"name": "amounts",
							"type": "uint256[]"
						}
					],
					"name": "transfer",
					"outputs": [
						{
							"internalType": "bool",
							"name": "",
							"type": "bool"
						}
					],
					"stateMutability": "nonpayable",
					"type": "function"
				},
				{
					"inputs": [
						{
							"internalType": "address",
							"name": "newOwner",
							"type": "address"
						}
					],
					"name": "transferOwnership",
					"outputs": [],
					"stateMutability": "nonpayable",
					"type": "function"
				},
				{
					"inputs": [
						{
							"internalType": "uint256",
							"name": "amount",
							"type": "uint256"
						}
					],
					"name": "withdraw",
					"outputs": [
						{
							"internalType": "bool",
							"name": "",
							"type": "bool"
						}
					],
					"stateMutability": "nonpayable",
					"type": "function"
				},
				{
					"stateMutability": "payable",
					"type": "receive"
				}
			],
			"devdoc": {
				"kind": "dev",
				"methods": {
					"owner()": {
						"details": "Returns the address of the current owner."
					},
					"renounceOwnership()": {
						"details": "Leaves the contract without owner. It will not be possible to call `onlyOwner` functions anymore. Can only be called by the current owner. NOTE: Renouncing ownership will leave the contract without an owner, thereby removing any functionality that is only available to the owner."
					},
					"transferOwnership(address)": {
						"details": "Transfers ownership of the contract to a new account (`newOwner`). Can only be called by the current owner."
					}
				},
				"version": 1
			},
			"evm": {
				"assembly": "    /* \"transferActive.sol\":5973:8300  contract TranActive is Context,Ownable,ReentrancyGuard{\r... */\n  mstore(0x40, 0x80)\n  callvalue\n  dup1\n  iszero\n  tag_1\n  jumpi\n  0x00\n  dup1\n  revert\ntag_1:\n  pop\n    /* \"transferActive.sol\":4229:4261  _transferOwnership(_msgSender()) */\n  tag_5\n    /* \"transferActive.sol\":4248:4260  _msgSender() */\n  tag_6\n    /* \"transferActive.sol\":4248:4258  _msgSender */\n  shl(0x20, tag_7)\n    /* \"transferActive.sol\":4248:4260  _msgSender() */\n  0x20\n  shr\n  jump\t// in\ntag_6:\n    /* \"transferActive.sol\":4229:4247  _transferOwnership */\n  shl(0x20, tag_8)\n    /* \"transferActive.sol\":4229:4261  _transferOwnership(_msgSender()) */\n  0x20\n  shr\n  jump\t// in\ntag_5:\n    /* \"transferActive.sol\":1669:1670  1 */\n  0x01\n    /* \"transferActive.sol\":1780:1787  _status */\n  dup1\n    /* \"transferActive.sol\":1780:1802  _status = _NOT_ENTERED */\n  dup2\n  swap1\n  sstore\n  pop\n    /* \"transferActive.sol\":5973:8300  contract TranActive is Context,Ownable,ReentrancyGuard{\r... */\n  jump(tag_10)\n    /* \"transferActive.sol\":3724:3822  function _msgSender() internal view virtual returns (address) {\r... */\ntag_7:\n    /* \"transferActive.sol\":3777:3784  address */\n  0x00\n    /* \"transferActive.sol\":3804:3814  msg.sender */\n  caller\n    /* \"transferActive.sol\":3797:3814  return msg.sender */\n  swap1\n  pop\n    /* \"transferActive.sol\":3724:3822  function _msgSender() internal view virtual returns (address) {\r... */\n  swap1\n  jump\t// out\n    /* \"transferActive.sol\":5775:5966  function _transferOwnership(address newOwner) internal virtual {\r... */\ntag_8:\n    /* \"transferActive.sol\":5849:5865  address oldOwner */\n  0x00\n    /* \"transferActive.sol\":5868:5874  _owner */\n  dup1\n  0x00\n  swap1\n  sload\n  swap1\n  0x0100\n  exp\n  swap1\n  div\n  0xffffffffffffffffffffffffffffffffffffffff\n  and\n    /* \"transferActive.sol\":5849:5874  address oldOwner = _owner */\n  swap1\n  pop\n    /* \"transferActive.sol\":5894:5902  newOwner */\n  dup2\n    /* \"transferActive.sol\":5885:5891  _owner */\n  0x00\n  dup1\n    /* \"transferActive.sol\":5885:5902  _owner = newOwner */\n  0x0100\n  exp\n  dup2\n  sload\n  dup2\n  0xffffffffffffffffffffffffffffffffffffffff\n  mul\n  not\n  and\n  swap1\n  dup4\n  0xffffffffffffffffffffffffffffffffffffffff\n  and\n  mul\n  or\n  swap1\n  sstore\n  pop\n    /* \"transferActive.sol\":5949:5957  newOwner */\n  dup2\n    /* \"transferActive.sol\":5918:5958  OwnershipTransferred(oldOwner, newOwner) */\n  0xffffffffffffffffffffffffffffffffffffffff\n  and\n    /* \"transferActive.sol\":5939:5947  oldOwner */\n  dup2\n    /* \"transferActive.sol\":5918:5958  OwnershipTransferred(oldOwner, newOwner) */\n  0xffffffffffffffffffffffffffffffffffffffff\n  and\n  0x8be0079c531659141344cd1fd0a4f28419497f9722a3daafe3b4186f6b6457e0\n  mload(0x40)\n  mload(0x40)\n  dup1\n  swap2\n  sub\n  swap1\n  log3\n    /* \"transferActive.sol\":5838:5966  {\r... */\n  pop\n    /* \"transferActive.sol\":5775:5966  function _transferOwnership(address newOwner) internal virtual {\r... */\n  pop\n  jump\t// out\n    /* \"transferActive.sol\":5973:8300  contract TranActive is Context,Ownable,ReentrancyGuard{\r... */\ntag_10:\n  dataSize(sub_0)\n  dup1\n  dataOffset(sub_0)\n  0x00\n  codecopy\n  0x00\n  return\nstop\n\nsub_0: assembly {\n        /* \"transferActive.sol\":5973:8300  contract TranActive is Context,Ownable,ReentrancyGuard{\r... */\n      mstore(0x40, 0x80)\n      jumpi(tag_1, lt(calldatasize, 0x04))\n      shr(0xe0, calldataload(0x00))\n      dup1\n      0xb0d253ff\n      gt\n      tag_11\n      jumpi\n      dup1\n      0xb0d253ff\n      eq\n      tag_7\n      jumpi\n      dup1\n      0xd0e30db0\n      eq\n      tag_8\n      jumpi\n      dup1\n      0xf2fde38b\n      eq\n      tag_9\n      jumpi\n      dup1\n      0xffc3a769\n      eq\n      tag_10\n      jumpi\n      jump(tag_2)\n    tag_11:\n      dup1\n      0x2e1a7d4d\n      eq\n      tag_3\n      jumpi\n      dup1\n      0x715018a6\n      eq\n      tag_4\n      jumpi\n      dup1\n      0x722713f7\n      eq\n      tag_5\n      jumpi\n      dup1\n      0x8da5cb5b\n      eq\n      tag_6\n      jumpi\n      jump(tag_2)\n    tag_1:\n      jumpi(tag_2, calldatasize)\n        /* \"transferActive.sol\":8280:8289  deposit() */\n      tag_14\n        /* \"transferActive.sol\":8280:8287  deposit */\n      tag_15\n        /* \"transferActive.sol\":8280:8289  deposit() */\n      jump\t// in\n    tag_14:\n      pop\n      pop\n        /* \"transferActive.sol\":5973:8300  contract TranActive is Context,Ownable,ReentrancyGuard{\r... */\n      stop\n    tag_2:\n        /* \"transferActive.sol\":8217:8226  deposit() */\n      tag_18\n        /* \"transferActive.sol\":8217:8224  deposit */\n      tag_15\n        /* \"transferActive.sol\":8217:8226  deposit() */\n      jump\t// in\n    tag_18:\n      pop\n      pop\n        /* \"transferActive.sol\":5973:8300  contract TranActive is Context,Ownable,ReentrancyGuard{\r... */\n      stop\n        /* \"transferActive.sol\":7900:8170  function withdraw(uint256 amount) external onlyOwner returns (bool){\r... */\n    tag_3:\n      callvalue\n      dup1\n      iszero\n      tag_19\n      jumpi\n      0x00\n      dup1\n      revert\n    tag_19:\n      pop\n      tag_20\n      0x04\n      dup1\n      calldatasize\n      sub\n      dup2\n      add\n      swap1\n      tag_21\n      swap2\n      swap1\n      tag_22\n      jump\t// in\n    tag_21:\n      tag_23\n      jump\t// in\n    tag_20:\n      mload(0x40)\n      tag_24\n      swap2\n      swap1\n      tag_25\n      jump\t// in\n    tag_24:\n      mload(0x40)\n      dup1\n      swap2\n      sub\n      swap1\n      return\n        /* \"transferActive.sol\":5156:5259  function renounceOwnership() public virtual onlyOwner {\r... */\n    tag_4:\n      callvalue\n      dup1\n      iszero\n      tag_26\n      jumpi\n      0x00\n      dup1\n      revert\n    tag_26:\n      pop\n      tag_27\n      tag_28\n      jump\t// in\n    tag_27:\n      stop\n        /* \"transferActive.sol\":6132:6231  function balanceOf()external view returns (uint256) {\r... */\n    tag_5:\n      callvalue\n      dup1\n      iszero\n      tag_29\n      jumpi\n      0x00\n      dup1\n      revert\n    tag_29:\n      pop\n      tag_30\n      tag_31\n      jump\t// in\n    tag_30:\n      mload(0x40)\n      tag_32\n      swap2\n      swap1\n      tag_33\n      jump\t// in\n    tag_32:\n      mload(0x40)\n      dup1\n      swap2\n      sub\n      swap1\n      return\n        /* \"transferActive.sol\":4508:4595  function owner() public view virtual returns (address) {\r... */\n    tag_6:\n      callvalue\n      dup1\n      iszero\n      tag_34\n      jumpi\n      0x00\n      dup1\n      revert\n    tag_34:\n      pop\n      tag_35\n      tag_36\n      jump\t// in\n    tag_35:\n      mload(0x40)\n      tag_37\n      swap2\n      swap1\n      tag_38\n      jump\t// in\n    tag_37:\n      mload(0x40)\n      dup1\n      swap2\n      sub\n      swap1\n      return\n        /* \"transferActive.sol\":6036:6084  mapping (address => uint256) public depositquota */\n    tag_7:\n      callvalue\n      dup1\n      iszero\n      tag_39\n      jumpi\n      0x00\n      dup1\n      revert\n    tag_39:\n      pop\n      tag_40\n      0x04\n      dup1\n      calldatasize\n      sub\n      dup2\n      add\n      swap1\n      tag_41\n      swap2\n      swap1\n      tag_42\n      jump\t// in\n    tag_41:\n      tag_43\n      jump\t// in\n    tag_40:\n      mload(0x40)\n      tag_44\n      swap2\n      swap1\n      tag_33\n      jump\t// in\n    tag_44:\n      mload(0x40)\n      dup1\n      swap2\n      sub\n      swap1\n      return\n        /* \"transferActive.sol\":6351:6690  function deposit() payable public  nonReentrant returns(address,uint256){\r... */\n    tag_8:\n      tag_45\n      tag_15\n      jump\t// in\n    tag_45:\n      mload(0x40)\n      tag_46\n      swap3\n      swap2\n      swap1\n      tag_47\n      jump\t// in\n    tag_46:\n      mload(0x40)\n      dup1\n      swap2\n      sub\n      swap1\n      return\n        /* \"transferActive.sol\":5414:5615  function transferOwnership(address newOwner) public virtual onlyOwner {\r... */\n    tag_9:\n      callvalue\n      dup1\n      iszero\n      tag_48\n      jumpi\n      0x00\n      dup1\n      revert\n    tag_48:\n      pop\n      tag_49\n      0x04\n      dup1\n      calldatasize\n      sub\n      dup2\n      add\n      swap1\n      tag_50\n      swap2\n      swap1\n      tag_42\n      jump\t// in\n    tag_50:\n      tag_51\n      jump\t// in\n    tag_49:\n      stop\n        /* \"transferActive.sol\":6698:7335  function transfer(address[] memory recipients,uint256[] memory amounts) external  returns (bool) {\r... */\n    tag_10:\n      callvalue\n      dup1\n      iszero\n      tag_52\n      jumpi\n      0x00\n      dup1\n      revert\n    tag_52:\n      pop\n      tag_53\n      0x04\n      dup1\n      calldatasize\n      sub\n      dup2\n      add\n      swap1\n      tag_54\n      swap2\n      swap1\n      tag_55\n      jump\t// in\n    tag_54:\n      tag_56\n      jump\t// in\n    tag_53:\n      mload(0x40)\n      tag_57\n      swap2\n      swap1\n      tag_25\n      jump\t// in\n    tag_57:\n      mload(0x40)\n      dup1\n      swap2\n      sub\n      swap1\n      return\n        /* \"transferActive.sol\":6351:6690  function deposit() payable public  nonReentrant returns(address,uint256){\r... */\n    tag_15:\n        /* \"transferActive.sol\":6407:6414  address */\n      0x00\n        /* \"transferActive.sol\":6415:6422  uint256 */\n      dup1\n        /* \"transferActive.sol\":2231:2252  _nonReentrantBefore() */\n      tag_59\n        /* \"transferActive.sol\":2231:2250  _nonReentrantBefore */\n      tag_60\n        /* \"transferActive.sol\":2231:2252  _nonReentrantBefore() */\n      jump\t// in\n    tag_59:\n        /* \"transferActive.sol\":6434:6447  uint256 quota */\n      0x00\n        /* \"transferActive.sol\":6450:6472  getquota(_msgSender()) */\n      tag_62\n        /* \"transferActive.sol\":6459:6471  _msgSender() */\n      tag_63\n        /* \"transferActive.sol\":6459:6469  _msgSender */\n      tag_64\n        /* \"transferActive.sol\":6459:6471  _msgSender() */\n      jump\t// in\n    tag_63:\n        /* \"transferActive.sol\":6450:6458  getquota */\n      tag_65\n        /* \"transferActive.sol\":6450:6472  getquota(_msgSender()) */\n      jump\t// in\n    tag_62:\n        /* \"transferActive.sol\":6434:6472  uint256 quota = getquota(_msgSender()) */\n      swap1\n      pop\n        /* \"transferActive.sol\":6495:6496  0 */\n      0x00\n        /* \"transferActive.sol\":6486:6491  quota */\n      dup2\n        /* \"transferActive.sol\":6486:6496  quota == 0 */\n      eq\n        /* \"transferActive.sol\":6483:6641  if(quota == 0){\r... */\n      iszero\n      tag_66\n      jumpi\n        /* \"transferActive.sol\":6541:6550  msg.value */\n      callvalue\n        /* \"transferActive.sol\":6512:6524  depositquota */\n      0x02\n        /* \"transferActive.sol\":6512:6538  depositquota[_msgSender()] */\n      0x00\n        /* \"transferActive.sol\":6525:6537  _msgSender() */\n      tag_67\n        /* \"transferActive.sol\":6525:6535  _msgSender */\n      tag_64\n        /* \"transferActive.sol\":6525:6537  _msgSender() */\n      jump\t// in\n    tag_67:\n        /* \"transferActive.sol\":6512:6538  depositquota[_msgSender()] */\n      0xffffffffffffffffffffffffffffffffffffffff\n      and\n      0xffffffffffffffffffffffffffffffffffffffff\n      and\n      dup2\n      mstore\n      0x20\n      add\n      swap1\n      dup2\n      mstore\n      0x20\n      add\n      0x00\n      keccak256\n        /* \"transferActive.sol\":6512:6550  depositquota[_msgSender()] = msg.value */\n      dup2\n      swap1\n      sstore\n      pop\n        /* \"transferActive.sol\":6483:6641  if(quota == 0){\r... */\n      jump(tag_68)\n    tag_66:\n        /* \"transferActive.sol\":6623:6628  quota */\n      dup1\n        /* \"transferActive.sol\":6613:6622  msg.value */\n      callvalue\n        /* \"transferActive.sol\":6613:6628  msg.value+quota */\n      tag_69\n      swap2\n      swap1\n      tag_70\n      jump\t// in\n    tag_69:\n        /* \"transferActive.sol\":6584:6596  depositquota */\n      0x02\n        /* \"transferActive.sol\":6584:6610  depositquota[_msgSender()] */\n      0x00\n        /* \"transferActive.sol\":6597:6609  _msgSender() */\n      tag_71\n        /* \"transferActive.sol\":6597:6607  _msgSender */\n      tag_64\n        /* \"transferActive.sol\":6597:6609  _msgSender() */\n      jump\t// in\n    tag_71:\n        /* \"transferActive.sol\":6584:6610  depositquota[_msgSender()] */\n      0xffffffffffffffffffffffffffffffffffffffff\n      and\n      0xffffffffffffffffffffffffffffffffffffffff\n      and\n      dup2\n      mstore\n      0x20\n      add\n      swap1\n      dup2\n      mstore\n      0x20\n      add\n      0x00\n      keccak256\n        /* \"transferActive.sol\":6584:6628  depositquota[_msgSender()] = msg.value+quota */\n      dup2\n      swap1\n      sstore\n      pop\n        /* \"transferActive.sol\":6483:6641  if(quota == 0){\r... */\n    tag_68:\n        /* \"transferActive.sol\":6659:6671  _msgSender() */\n      tag_72\n        /* \"transferActive.sol\":6659:6669  _msgSender */\n      tag_64\n        /* \"transferActive.sol\":6659:6671  _msgSender() */\n      jump\t// in\n    tag_72:\n        /* \"transferActive.sol\":6672:6681  msg.value */\n      callvalue\n        /* \"transferActive.sol\":6651:6682  return (_msgSender(),msg.value) */\n      swap3\n      pop\n      swap3\n      pop\n      pop\n        /* \"transferActive.sol\":2275:2295  _nonReentrantAfter() */\n      tag_73\n        /* \"transferActive.sol\":2275:2293  _nonReentrantAfter */\n      tag_74\n        /* \"transferActive.sol\":2275:2295  _nonReentrantAfter() */\n      jump\t// in\n    tag_73:\n        /* \"transferActive.sol\":6351:6690  function deposit() payable public  nonReentrant returns(address,uint256){\r... */\n      swap1\n      swap2\n      jump\t// out\n        /* \"transferActive.sol\":7900:8170  function withdraw(uint256 amount) external onlyOwner returns (bool){\r... */\n    tag_23:\n        /* \"transferActive.sol\":7962:7966  bool */\n      0x00\n        /* \"transferActive.sol\":4394:4407  _checkOwner() */\n      tag_76\n        /* \"transferActive.sol\":4394:4405  _checkOwner */\n      tag_77\n        /* \"transferActive.sol\":4394:4407  _checkOwner() */\n      jump\t// in\n    tag_76:\n        /* \"transferActive.sol\":7979:7995  bool callSuccess */\n      0x00\n        /* \"transferActive.sol\":8009:8019  msg.sender */\n      caller\n        /* \"transferActive.sol\":8001:8025  payable(msg.sender).call */\n      0xffffffffffffffffffffffffffffffffffffffff\n      and\n        /* \"transferActive.sol\":8033:8039  amount */\n      dup4\n        /* \"transferActive.sol\":8001:8044  payable(msg.sender).call{value: amount}(\"\") */\n      mload(0x40)\n      tag_79\n      swap1\n      tag_80\n      jump\t// in\n    tag_79:\n      0x00\n      mload(0x40)\n      dup1\n      dup4\n      sub\n      dup2\n      dup6\n      dup8\n      gas\n      call\n      swap3\n      pop\n      pop\n      pop\n      returndatasize\n      dup1\n      0x00\n      dup2\n      eq\n      tag_83\n      jumpi\n      mload(0x40)\n      swap2\n      pop\n      and(add(returndatasize, 0x3f), not(0x1f))\n      dup3\n      add\n      0x40\n      mstore\n      returndatasize\n      dup3\n      mstore\n      returndatasize\n      0x00\n      0x20\n      dup5\n      add\n      returndatacopy\n      jump(tag_82)\n    tag_83:\n      0x60\n      swap2\n      pop\n    tag_82:\n      pop\n        /* \"transferActive.sol\":7978:8044  (bool callSuccess, ) = payable(msg.sender).call{value: amount}(\"\") */\n      pop\n      swap1\n      pop\n        /* \"transferActive.sol\":8063:8074  callSuccess */\n      dup1\n        /* \"transferActive.sol\":8055:8094  require(callSuccess, \"withdraw failed\") */\n      tag_84\n      jumpi\n      mload(0x40)\n      0x08c379a000000000000000000000000000000000000000000000000000000000\n      dup2\n      mstore\n      0x04\n      add\n      tag_85\n      swap1\n      tag_86\n      jump\t// in\n    tag_85:\n      mload(0x40)\n      dup1\n      swap2\n      sub\n      swap1\n      revert\n    tag_84:\n        /* \"transferActive.sol\":8110:8140  Withdraw(address(this),amount) */\n      0x884edad9ce6fa2440d8a54cc123490eb96d2768479d49ff9c7366125a9424364\n        /* \"transferActive.sol\":8127:8131  this */\n      address\n        /* \"transferActive.sol\":8133:8139  amount */\n      dup5\n        /* \"transferActive.sol\":8110:8140  Withdraw(address(this),amount) */\n      mload(0x40)\n      tag_87\n      swap3\n      swap2\n      swap1\n      tag_47\n      jump\t// in\n    tag_87:\n      mload(0x40)\n      dup1\n      swap2\n      sub\n      swap1\n      log1\n        /* \"transferActive.sol\":8158:8162  true */\n      0x01\n        /* \"transferActive.sol\":8151:8162  return true */\n      swap2\n      pop\n      pop\n        /* \"transferActive.sol\":7900:8170  function withdraw(uint256 amount) external onlyOwner returns (bool){\r... */\n      swap2\n      swap1\n      pop\n      jump\t// out\n        /* \"transferActive.sol\":5156:5259  function renounceOwnership() public virtual onlyOwner {\r... */\n    tag_28:\n        /* \"transferActive.sol\":4394:4407  _checkOwner() */\n      tag_89\n        /* \"transferActive.sol\":4394:4405  _checkOwner */\n      tag_77\n        /* \"transferActive.sol\":4394:4407  _checkOwner() */\n      jump\t// in\n    tag_89:\n        /* \"transferActive.sol\":5221:5251  _transferOwnership(address(0)) */\n      tag_91\n        /* \"transferActive.sol\":5248:5249  0 */\n      0x00\n        /* \"transferActive.sol\":5221:5239  _transferOwnership */\n      tag_92\n        /* \"transferActive.sol\":5221:5251  _transferOwnership(address(0)) */\n      jump\t// in\n    tag_91:\n        /* \"transferActive.sol\":5156:5259  function renounceOwnership() public virtual onlyOwner {\r... */\n      jump\t// out\n        /* \"transferActive.sol\":6132:6231  function balanceOf()external view returns (uint256) {\r... */\n    tag_31:\n        /* \"transferActive.sol\":6175:6182  uint256 */\n      0x00\n        /* \"transferActive.sol\":6202:6223  address(this).balance */\n      selfbalance\n        /* \"transferActive.sol\":6195:6223  return address(this).balance */\n      swap1\n      pop\n        /* \"transferActive.sol\":6132:6231  function balanceOf()external view returns (uint256) {\r... */\n      swap1\n      jump\t// out\n        /* \"transferActive.sol\":4508:4595  function owner() public view virtual returns (address) {\r... */\n    tag_36:\n        /* \"transferActive.sol\":4554:4561  address */\n      0x00\n        /* \"transferActive.sol\":4581:4587  _owner */\n      dup1\n      0x00\n      swap1\n      sload\n      swap1\n      0x0100\n      exp\n      swap1\n      div\n      0xffffffffffffffffffffffffffffffffffffffff\n      and\n        /* \"transferActive.sol\":4574:4587  return _owner */\n      swap1\n      pop\n        /* \"transferActive.sol\":4508:4595  function owner() public view virtual returns (address) {\r... */\n      swap1\n      jump\t// out\n        /* \"transferActive.sol\":6036:6084  mapping (address => uint256) public depositquota */\n    tag_43:\n      mstore(0x20, 0x02)\n      dup1\n      0x00\n      mstore\n      keccak256(0x00, 0x40)\n      0x00\n      swap2\n      pop\n      swap1\n      pop\n      sload\n      dup2\n      jump\t// out\n        /* \"transferActive.sol\":5414:5615  function transferOwnership(address newOwner) public virtual onlyOwner {\r... */\n    tag_51:\n        /* \"transferActive.sol\":4394:4407  _checkOwner() */\n      tag_96\n        /* \"transferActive.sol\":4394:4405  _checkOwner */\n      tag_77\n        /* \"transferActive.sol\":4394:4407  _checkOwner() */\n      jump\t// in\n    tag_96:\n        /* \"transferActive.sol\":5523:5524  0 */\n      0x00\n        /* \"transferActive.sol\":5503:5525  newOwner != address(0) */\n      0xffffffffffffffffffffffffffffffffffffffff\n      and\n        /* \"transferActive.sol\":5503:5511  newOwner */\n      dup2\n        /* \"transferActive.sol\":5503:5525  newOwner != address(0) */\n      0xffffffffffffffffffffffffffffffffffffffff\n      and\n      eq\n      iszero\n        /* \"transferActive.sol\":5495:5568  require(newOwner != address(0), \"Ownable: new owner is the zero address\") */\n      tag_98\n      jumpi\n      mload(0x40)\n      0x08c379a000000000000000000000000000000000000000000000000000000000\n      dup2\n      mstore\n      0x04\n      add\n      tag_99\n      swap1\n      tag_100\n      jump\t// in\n    tag_99:\n      mload(0x40)\n      dup1\n      swap2\n      sub\n      swap1\n      revert\n    tag_98:\n        /* \"transferActive.sol\":5579:5607  _transferOwnership(newOwner) */\n      tag_101\n        /* \"transferActive.sol\":5598:5606  newOwner */\n      dup2\n        /* \"transferActive.sol\":5579:5597  _transferOwnership */\n      tag_92\n        /* \"transferActive.sol\":5579:5607  _transferOwnership(newOwner) */\n      jump\t// in\n    tag_101:\n        /* \"transferActive.sol\":5414:5615  function transferOwnership(address newOwner) public virtual onlyOwner {\r... */\n      pop\n      jump\t// out\n        /* \"transferActive.sol\":6698:7335  function transfer(address[] memory recipients,uint256[] memory amounts) external  returns (bool) {\r... */\n    tag_56:\n        /* \"transferActive.sol\":6789:6793  bool */\n      0x00\n        /* \"transferActive.sol\":6806:6819  uint256 quota */\n      dup1\n        /* \"transferActive.sol\":6822:6844  getquota(_msgSender()) */\n      tag_103\n        /* \"transferActive.sol\":6831:6843  _msgSender() */\n      tag_104\n        /* \"transferActive.sol\":6831:6841  _msgSender */\n      tag_64\n        /* \"transferActive.sol\":6831:6843  _msgSender() */\n      jump\t// in\n    tag_104:\n        /* \"transferActive.sol\":6822:6830  getquota */\n      tag_65\n        /* \"transferActive.sol\":6822:6844  getquota(_msgSender()) */\n      jump\t// in\n    tag_103:\n        /* \"transferActive.sol\":6806:6844  uint256 quota = getquota(_msgSender()) */\n      swap1\n      pop\n        /* \"transferActive.sol\":6872:6873  0 */\n      0x00\n        /* \"transferActive.sol\":6863:6868  quota */\n      dup2\n        /* \"transferActive.sol\":6863:6873  quota != 0 */\n      eq\n      iszero\n        /* \"transferActive.sol\":6855:6895  require(quota != 0,\"Not deposit amount\") */\n      tag_105\n      jumpi\n      mload(0x40)\n      0x08c379a000000000000000000000000000000000000000000000000000000000\n      dup2\n      mstore\n      0x04\n      add\n      tag_106\n      swap1\n      tag_107\n      jump\t// in\n    tag_106:\n      mload(0x40)\n      dup1\n      swap2\n      sub\n      swap1\n      revert\n    tag_105:\n        /* \"transferActive.sol\":6906:6925  uint256 totalAmount */\n      0x00\n        /* \"transferActive.sol\":6940:6957  uint amountlength */\n      dup1\n        /* \"transferActive.sol\":6960:6967  amounts */\n      dup5\n        /* \"transferActive.sol\":6960:6974  amounts.length */\n      mload\n        /* \"transferActive.sol\":6940:6974  uint amountlength = amounts.length */\n      swap1\n      pop\n        /* \"transferActive.sol\":6990:6996  uint i */\n      0x00\n        /* \"transferActive.sol\":6985:7129  for (uint i= 0;i<amountlength;){\r... */\n    tag_108:\n        /* \"transferActive.sol\":7002:7014  amountlength */\n      dup2\n        /* \"transferActive.sol\":7000:7001  i */\n      dup2\n        /* \"transferActive.sol\":7000:7014  i<amountlength */\n      lt\n        /* \"transferActive.sol\":6985:7129  for (uint i= 0;i<amountlength;){\r... */\n      iszero\n      tag_109\n      jumpi\n        /* \"transferActive.sol\":7046:7053  amounts */\n      dup6\n        /* \"transferActive.sol\":7054:7055  i */\n      dup2\n        /* \"transferActive.sol\":7046:7056  amounts[i] */\n      dup2\n      mload\n      dup2\n      lt\n      tag_111\n      jumpi\n      tag_112\n      tag_113\n      jump\t// in\n    tag_112:\n    tag_111:\n      0x20\n      mul\n      0x20\n      add\n      add\n      mload\n        /* \"transferActive.sol\":7031:7056  totalAmount += amounts[i] */\n      dup4\n      tag_114\n      swap2\n      swap1\n      tag_70\n      jump\t// in\n    tag_114:\n      swap3\n      pop\n        /* \"transferActive.sol\":7099:7102  i++ */\n      dup1\n      dup1\n      0x01\n      add\n      swap2\n      pop\n      pop\n        /* \"transferActive.sol\":6985:7129  for (uint i= 0;i<amountlength;){\r... */\n      jump(tag_108)\n    tag_109:\n      pop\n        /* \"transferActive.sol\":7160:7165  quota */\n      dup3\n        /* \"transferActive.sol\":7147:7158  totalAmount */\n      dup3\n        /* \"transferActive.sol\":7147:7165  totalAmount<=quota */\n      gt\n      iszero\n        /* \"transferActive.sol\":7139:7204  require(totalAmount<=quota,\"Address Insufficient deposit amount\") */\n      tag_115\n      jumpi\n      mload(0x40)\n      0x08c379a000000000000000000000000000000000000000000000000000000000\n      dup2\n      mstore\n      0x04\n      add\n      tag_116\n      swap1\n      tag_117\n      jump\t// in\n    tag_116:\n      mload(0x40)\n      dup1\n      swap2\n      sub\n      swap1\n      revert\n    tag_115:\n        /* \"transferActive.sol\":7215:7250  _batchTransfer(recipients, amounts) */\n      tag_118\n        /* \"transferActive.sol\":7230:7240  recipients */\n      dup7\n        /* \"transferActive.sol\":7242:7249  amounts */\n      dup7\n        /* \"transferActive.sol\":7215:7229  _batchTransfer */\n      tag_119\n        /* \"transferActive.sol\":7215:7250  _batchTransfer(recipients, amounts) */\n      jump\t// in\n    tag_118:\n      pop\n        /* \"transferActive.sol\":7294:7305  totalAmount */\n      dup2\n        /* \"transferActive.sol\":7288:7293  quota */\n      dup4\n        /* \"transferActive.sol\":7288:7305  quota-totalAmount */\n      tag_120\n      swap2\n      swap1\n      tag_121\n      jump\t// in\n    tag_120:\n        /* \"transferActive.sol\":7261:7273  depositquota */\n      0x02\n        /* \"transferActive.sol\":7261:7287  depositquota[_msgSender()] */\n      0x00\n        /* \"transferActive.sol\":7274:7286  _msgSender() */\n      tag_122\n        /* \"transferActive.sol\":7274:7284  _msgSender */\n      tag_64\n        /* \"transferActive.sol\":7274:7286  _msgSender() */\n      jump\t// in\n    tag_122:\n        /* \"transferActive.sol\":7261:7287  depositquota[_msgSender()] */\n      0xffffffffffffffffffffffffffffffffffffffff\n      and\n      0xffffffffffffffffffffffffffffffffffffffff\n      and\n      dup2\n      mstore\n      0x20\n      add\n      swap1\n      dup2\n      mstore\n      0x20\n      add\n      0x00\n      keccak256\n        /* \"transferActive.sol\":7261:7305  depositquota[_msgSender()]=quota-totalAmount */\n      dup2\n      swap1\n      sstore\n      pop\n        /* \"transferActive.sol\":7323:7327  true */\n      0x01\n        /* \"transferActive.sol\":7316:7327  return true */\n      swap4\n      pop\n      pop\n      pop\n      pop\n        /* \"transferActive.sol\":6698:7335  function transfer(address[] memory recipients,uint256[] memory amounts) external  returns (bool) {\r... */\n      swap3\n      swap2\n      pop\n      pop\n      jump\t// out\n        /* \"transferActive.sol\":2311:2604  function _nonReentrantBefore() private {\r... */\n    tag_60:\n        /* \"transferActive.sol\":1713:1714  2 */\n      0x02\n        /* \"transferActive.sol\":2445:2452  _status */\n      sload(0x01)\n        /* \"transferActive.sol\":2445:2464  _status != _ENTERED */\n      eq\n      iszero\n        /* \"transferActive.sol\":2437:2500  require(_status != _ENTERED, \"ReentrancyGuard: reentrant call\") */\n      tag_124\n      jumpi\n      mload(0x40)\n      0x08c379a000000000000000000000000000000000000000000000000000000000\n      dup2\n      mstore\n      0x04\n      add\n      tag_125\n      swap1\n      tag_126\n      jump\t// in\n    tag_125:\n      mload(0x40)\n      dup1\n      swap2\n      sub\n      swap1\n      revert\n    tag_124:\n        /* \"transferActive.sol\":1713:1714  2 */\n      0x02\n        /* \"transferActive.sol\":2578:2585  _status */\n      0x01\n        /* \"transferActive.sol\":2578:2596  _status = _ENTERED */\n      dup2\n      swap1\n      sstore\n      pop\n        /* \"transferActive.sol\":2311:2604  function _nonReentrantBefore() private {\r... */\n      jump\t// out\n        /* \"transferActive.sol\":3724:3822  function _msgSender() internal view virtual returns (address) {\r... */\n    tag_64:\n        /* \"transferActive.sol\":3777:3784  address */\n      0x00\n        /* \"transferActive.sol\":3804:3814  msg.sender */\n      caller\n        /* \"transferActive.sol\":3797:3814  return msg.sender */\n      swap1\n      pop\n        /* \"transferActive.sol\":3724:3822  function _msgSender() internal view virtual returns (address) {\r... */\n      swap1\n      jump\t// out\n        /* \"transferActive.sol\":6237:6343  function getquota(address from) view internal returns(uint256){\r... */\n    tag_65:\n        /* \"transferActive.sol\":6291:6298  uint256 */\n      0x00\n        /* \"transferActive.sol\":6317:6329  depositquota */\n      0x02\n        /* \"transferActive.sol\":6317:6335  depositquota[from] */\n      0x00\n        /* \"transferActive.sol\":6330:6334  from */\n      dup4\n        /* \"transferActive.sol\":6317:6335  depositquota[from] */\n      0xffffffffffffffffffffffffffffffffffffffff\n      and\n      0xffffffffffffffffffffffffffffffffffffffff\n      and\n      dup2\n      mstore\n      0x20\n      add\n      swap1\n      dup2\n      mstore\n      0x20\n      add\n      0x00\n      keccak256\n      sload\n        /* \"transferActive.sol\":6310:6335  return depositquota[from] */\n      swap1\n      pop\n        /* \"transferActive.sol\":6237:6343  function getquota(address from) view internal returns(uint256){\r... */\n      swap2\n      swap1\n      pop\n      jump\t// out\n        /* \"transferActive.sol\":2612:2825  function _nonReentrantAfter() private {\r... */\n    tag_74:\n        /* \"transferActive.sol\":1669:1670  1 */\n      0x01\n        /* \"transferActive.sol\":2795:2802  _status */\n      dup1\n        /* \"transferActive.sol\":2795:2817  _status = _NOT_ENTERED */\n      dup2\n      swap1\n      sstore\n      pop\n        /* \"transferActive.sol\":2612:2825  function _nonReentrantAfter() private {\r... */\n      jump\t// out\n        /* \"transferActive.sol\":4673:4805  function _checkOwner() internal view virtual {\r... */\n    tag_77:\n        /* \"transferActive.sol\":4748:4760  _msgSender() */\n      tag_131\n        /* \"transferActive.sol\":4748:4758  _msgSender */\n      tag_64\n        /* \"transferActive.sol\":4748:4760  _msgSender() */\n      jump\t// in\n    tag_131:\n        /* \"transferActive.sol\":4737:4760  owner() == _msgSender() */\n      0xffffffffffffffffffffffffffffffffffffffff\n      and\n        /* \"transferActive.sol\":4737:4744  owner() */\n      tag_132\n        /* \"transferActive.sol\":4737:4742  owner */\n      tag_36\n        /* \"transferActive.sol\":4737:4744  owner() */\n      jump\t// in\n    tag_132:\n        /* \"transferActive.sol\":4737:4760  owner() == _msgSender() */\n      0xffffffffffffffffffffffffffffffffffffffff\n      and\n      eq\n        /* \"transferActive.sol\":4729:4797  require(owner() == _msgSender(), \"Ownable: caller is not the owner\") */\n      tag_133\n      jumpi\n      mload(0x40)\n      0x08c379a000000000000000000000000000000000000000000000000000000000\n      dup2\n      mstore\n      0x04\n      add\n      tag_134\n      swap1\n      tag_135\n      jump\t// in\n    tag_134:\n      mload(0x40)\n      dup1\n      swap2\n      sub\n      swap1\n      revert\n    tag_133:\n        /* \"transferActive.sol\":4673:4805  function _checkOwner() internal view virtual {\r... */\n      jump\t// out\n        /* \"transferActive.sol\":5775:5966  function _transferOwnership(address newOwner) internal virtual {\r... */\n    tag_92:\n        /* \"transferActive.sol\":5849:5865  address oldOwner */\n      0x00\n        /* \"transferActive.sol\":5868:5874  _owner */\n      dup1\n      0x00\n      swap1\n      sload\n      swap1\n      0x0100\n      exp\n      swap1\n      div\n      0xffffffffffffffffffffffffffffffffffffffff\n      and\n        /* \"transferActive.sol\":5849:5874  address oldOwner = _owner */\n      swap1\n      pop\n        /* \"transferActive.sol\":5894:5902  newOwner */\n      dup2\n        /* \"transferActive.sol\":5885:5891  _owner */\n      0x00\n      dup1\n        /* \"transferActive.sol\":5885:5902  _owner = newOwner */\n      0x0100\n      exp\n      dup2\n      sload\n      dup2\n      0xffffffffffffffffffffffffffffffffffffffff\n      mul\n      not\n      and\n      swap1\n      dup4\n      0xffffffffffffffffffffffffffffffffffffffff\n      and\n      mul\n      or\n      swap1\n      sstore\n      pop\n        /* \"transferActive.sol\":5949:5957  newOwner */\n      dup2\n        /* \"transferActive.sol\":5918:5958  OwnershipTransferred(oldOwner, newOwner) */\n      0xffffffffffffffffffffffffffffffffffffffff\n      and\n        /* \"transferActive.sol\":5939:5947  oldOwner */\n      dup2\n        /* \"transferActive.sol\":5918:5958  OwnershipTransferred(oldOwner, newOwner) */\n      0xffffffffffffffffffffffffffffffffffffffff\n      and\n      0x8be0079c531659141344cd1fd0a4f28419497f9722a3daafe3b4186f6b6457e0\n      mload(0x40)\n      mload(0x40)\n      dup1\n      swap2\n      sub\n      swap1\n      log3\n        /* \"transferActive.sol\":5838:5966  {\r... */\n      pop\n        /* \"transferActive.sol\":5775:5966  function _transferOwnership(address newOwner) internal virtual {\r... */\n      pop\n      jump\t// out\n        /* \"transferActive.sol\":7343:7892  function _batchTransfer(address[] memory recipients,uint256[] memory amounts) internal returns (bool){\r... */\n    tag_119:\n        /* \"transferActive.sol\":7439:7443  bool */\n      0x00\n        /* \"transferActive.sol\":7484:7491  amounts */\n      dup2\n        /* \"transferActive.sol\":7484:7498  amounts.length */\n      mload\n        /* \"transferActive.sol\":7463:7473  recipients */\n      dup4\n        /* \"transferActive.sol\":7463:7480  recipients.length */\n      mload\n        /* \"transferActive.sol\":7463:7498  recipients.length == amounts.length */\n      eq\n        /* \"transferActive.sol\":7455:7563  require(recipients.length == amounts.length, \"Number of recipients must be equal to the number of amounts.\") */\n      tag_138\n      jumpi\n      mload(0x40)\n      0x08c379a000000000000000000000000000000000000000000000000000000000\n      dup2\n      mstore\n      0x04\n      add\n      tag_139\n      swap1\n      tag_140\n      jump\t// in\n    tag_139:\n      mload(0x40)\n      dup1\n      swap2\n      sub\n      swap1\n      revert\n    tag_138:\n        /* \"transferActive.sol\":7574:7592  uint addresslength */\n      0x00\n        /* \"transferActive.sol\":7596:7606  recipients */\n      dup4\n        /* \"transferActive.sol\":7596:7613  recipients.length */\n      mload\n        /* \"transferActive.sol\":7574:7613  uint addresslength  = recipients.length */\n      swap1\n      pop\n        /* \"transferActive.sol\":7628:7634  uint i */\n      0x00\n        /* \"transferActive.sol\":7624:7863  for(uint i = 0 ;i<addresslength;){\r... */\n    tag_141:\n        /* \"transferActive.sol\":7642:7655  addresslength */\n      dup2\n        /* \"transferActive.sol\":7640:7641  i */\n      dup2\n        /* \"transferActive.sol\":7640:7655  i<addresslength */\n      lt\n        /* \"transferActive.sol\":7624:7863  for(uint i = 0 ;i<addresslength;){\r... */\n      iszero\n      tag_142\n      jumpi\n        /* \"transferActive.sol\":7673:7689  bool callSuccess */\n      0x00\n        /* \"transferActive.sol\":7695:7705  recipients */\n      dup6\n        /* \"transferActive.sol\":7706:7707  i */\n      dup3\n        /* \"transferActive.sol\":7695:7708  recipients[i] */\n      dup2\n      mload\n      dup2\n      lt\n      tag_144\n      jumpi\n      tag_145\n      tag_113\n      jump\t// in\n    tag_145:\n    tag_144:\n      0x20\n      mul\n      0x20\n      add\n      add\n      mload\n        /* \"transferActive.sol\":7695:7713  recipients[i].call */\n      0xffffffffffffffffffffffffffffffffffffffff\n      and\n        /* \"transferActive.sol\":7721:7728  amounts */\n      dup6\n        /* \"transferActive.sol\":7729:7730  i */\n      dup4\n        /* \"transferActive.sol\":7721:7731  amounts[i] */\n      dup2\n      mload\n      dup2\n      lt\n      tag_146\n      jumpi\n      tag_147\n      tag_113\n      jump\t// in\n    tag_147:\n    tag_146:\n      0x20\n      mul\n      0x20\n      add\n      add\n      mload\n        /* \"transferActive.sol\":7695:7736  recipients[i].call{value: amounts[i]}(\"\") */\n      mload(0x40)\n      tag_148\n      swap1\n      tag_80\n      jump\t// in\n    tag_148:\n      0x00\n      mload(0x40)\n      dup1\n      dup4\n      sub\n      dup2\n      dup6\n      dup8\n      gas\n      call\n      swap3\n      pop\n      pop\n      pop\n      returndatasize\n      dup1\n      0x00\n      dup2\n      eq\n      tag_151\n      jumpi\n      mload(0x40)\n      swap2\n      pop\n      and(add(returndatasize, 0x3f), not(0x1f))\n      dup3\n      add\n      0x40\n      mstore\n      returndatasize\n      dup3\n      mstore\n      returndatasize\n      0x00\n      0x20\n      dup5\n      add\n      returndatacopy\n      jump(tag_150)\n    tag_151:\n      0x60\n      swap2\n      pop\n    tag_150:\n      pop\n        /* \"transferActive.sol\":7672:7736  (bool callSuccess, ) = recipients[i].call{value: amounts[i]}(\"\") */\n      pop\n      swap1\n      pop\n        /* \"transferActive.sol\":7759:7770  callSuccess */\n      dup1\n        /* \"transferActive.sol\":7751:7790  require(callSuccess,\"transfer success\") */\n      tag_152\n      jumpi\n      mload(0x40)\n      0x08c379a000000000000000000000000000000000000000000000000000000000\n      dup2\n      mstore\n      0x04\n      add\n      tag_153\n      swap1\n      tag_154\n      jump\t// in\n    tag_153:\n      mload(0x40)\n      dup1\n      swap2\n      sub\n      swap1\n      revert\n    tag_152:\n        /* \"transferActive.sol\":7833:7836  i++ */\n      dup2\n      dup1\n      0x01\n      add\n      swap3\n      pop\n      pop\n        /* \"transferActive.sol\":7657:7863  {\r... */\n      pop\n        /* \"transferActive.sol\":7624:7863  for(uint i = 0 ;i<addresslength;){\r... */\n      jump(tag_141)\n    tag_142:\n      pop\n        /* \"transferActive.sol\":7880:7884  true */\n      0x01\n        /* \"transferActive.sol\":7873:7884  return true */\n      swap2\n      pop\n      pop\n        /* \"transferActive.sol\":7343:7892  function _batchTransfer(address[] memory recipients,uint256[] memory amounts) internal returns (bool){\r... */\n      swap3\n      swap2\n      pop\n      pop\n      jump\t// out\n        /* \"#utility.yul\":24:746   */\n    tag_156:\n        /* \"#utility.yul\":120:125   */\n      0x00\n        /* \"#utility.yul\":145:226   */\n      tag_158\n        /* \"#utility.yul\":161:225   */\n      tag_159\n        /* \"#utility.yul\":218:224   */\n      dup5\n        /* \"#utility.yul\":161:225   */\n      tag_160\n      jump\t// in\n    tag_159:\n        /* \"#utility.yul\":145:226   */\n      tag_161\n      jump\t// in\n    tag_158:\n        /* \"#utility.yul\":136:226   */\n      swap1\n      pop\n        /* \"#utility.yul\":246:251   */\n      dup1\n        /* \"#utility.yul\":275:281   */\n      dup4\n        /* \"#utility.yul\":268:273   */\n      dup3\n        /* \"#utility.yul\":261:282   */\n      mstore\n        /* \"#utility.yul\":309:313   */\n      0x20\n        /* \"#utility.yul\":302:307   */\n      dup3\n        /* \"#utility.yul\":298:314   */\n      add\n        /* \"#utility.yul\":291:314   */\n      swap1\n      pop\n        /* \"#utility.yul\":335:341   */\n      dup3\n        /* \"#utility.yul\":385:388   */\n      dup6\n        /* \"#utility.yul\":377:381   */\n      0x20\n        /* \"#utility.yul\":369:375   */\n      dup7\n        /* \"#utility.yul\":365:382   */\n      mul\n        /* \"#utility.yul\":360:363   */\n      dup3\n        /* \"#utility.yul\":356:383   */\n      add\n        /* \"#utility.yul\":353:389   */\n      gt\n        /* \"#utility.yul\":350:493   */\n      iszero\n      tag_162\n      jumpi\n        /* \"#utility.yul\":404:483   */\n      tag_163\n      tag_164\n      jump\t// in\n    tag_163:\n        /* \"#utility.yul\":350:493   */\n    tag_162:\n        /* \"#utility.yul\":517:518   */\n      0x00\n        /* \"#utility.yul\":502:740   */\n    tag_165:\n        /* \"#utility.yul\":527:533   */\n      dup6\n        /* \"#utility.yul\":524:525   */\n      dup2\n        /* \"#utility.yul\":521:534   */\n      lt\n        /* \"#utility.yul\":502:740   */\n      iszero\n      tag_167\n      jumpi\n        /* \"#utility.yul\":595:598   */\n      dup2\n        /* \"#utility.yul\":624:661   */\n      tag_168\n        /* \"#utility.yul\":657:660   */\n      dup9\n        /* \"#utility.yul\":645:655   */\n      dup3\n        /* \"#utility.yul\":624:661   */\n      tag_169\n      jump\t// in\n    tag_168:\n        /* \"#utility.yul\":619:622   */\n      dup5\n        /* \"#utility.yul\":612:662   */\n      mstore\n        /* \"#utility.yul\":691:695   */\n      0x20\n        /* \"#utility.yul\":686:689   */\n      dup5\n        /* \"#utility.yul\":682:696   */\n      add\n        /* \"#utility.yul\":675:696   */\n      swap4\n      pop\n        /* \"#utility.yul\":725:729   */\n      0x20\n        /* \"#utility.yul\":720:723   */\n      dup4\n        /* \"#utility.yul\":716:730   */\n      add\n        /* \"#utility.yul\":709:730   */\n      swap3\n      pop\n        /* \"#utility.yul\":562:740   */\n      pop\n        /* \"#utility.yul\":549:550   */\n      0x01\n        /* \"#utility.yul\":546:547   */\n      dup2\n        /* \"#utility.yul\":542:551   */\n      add\n        /* \"#utility.yul\":537:551   */\n      swap1\n      pop\n        /* \"#utility.yul\":502:740   */\n      jump(tag_165)\n    tag_167:\n        /* \"#utility.yul\":506:520   */\n      pop\n        /* \"#utility.yul\":126:746   */\n      pop\n      pop\n        /* \"#utility.yul\":24:746   */\n      swap4\n      swap3\n      pop\n      pop\n      pop\n      jump\t// out\n        /* \"#utility.yul\":769:1491   */\n    tag_170:\n        /* \"#utility.yul\":865:870   */\n      0x00\n        /* \"#utility.yul\":890:971   */\n      tag_172\n        /* \"#utility.yul\":906:970   */\n      tag_173\n        /* \"#utility.yul\":963:969   */\n      dup5\n        /* \"#utility.yul\":906:970   */\n      tag_174\n      jump\t// in\n    tag_173:\n        /* \"#utility.yul\":890:971   */\n      tag_161\n      jump\t// in\n    tag_172:\n        /* \"#utility.yul\":881:971   */\n      swap1\n      pop\n        /* \"#utility.yul\":991:996   */\n      dup1\n        /* \"#utility.yul\":1020:1026   */\n      dup4\n        /* \"#utility.yul\":1013:1018   */\n      dup3\n        /* \"#utility.yul\":1006:1027   */\n      mstore\n        /* \"#utility.yul\":1054:1058   */\n      0x20\n        /* \"#utility.yul\":1047:1052   */\n      dup3\n        /* \"#utility.yul\":1043:1059   */\n      add\n        /* \"#utility.yul\":1036:1059   */\n      swap1\n      pop\n        /* \"#utility.yul\":1080:1086   */\n      dup3\n        /* \"#utility.yul\":1130:1133   */\n      dup6\n        /* \"#utility.yul\":1122:1126   */\n      0x20\n        /* \"#utility.yul\":1114:1120   */\n      dup7\n        /* \"#utility.yul\":1110:1127   */\n      mul\n        /* \"#utility.yul\":1105:1108   */\n      dup3\n        /* \"#utility.yul\":1101:1128   */\n      add\n        /* \"#utility.yul\":1098:1134   */\n      gt\n        /* \"#utility.yul\":1095:1238   */\n      iszero\n      tag_175\n      jumpi\n        /* \"#utility.yul\":1149:1228   */\n      tag_176\n      tag_164\n      jump\t// in\n    tag_176:\n        /* \"#utility.yul\":1095:1238   */\n    tag_175:\n        /* \"#utility.yul\":1262:1263   */\n      0x00\n        /* \"#utility.yul\":1247:1485   */\n    tag_177:\n        /* \"#utility.yul\":1272:1278   */\n      dup6\n        /* \"#utility.yul\":1269:1270   */\n      dup2\n        /* \"#utility.yul\":1266:1279   */\n      lt\n        /* \"#utility.yul\":1247:1485   */\n      iszero\n      tag_179\n      jumpi\n        /* \"#utility.yul\":1340:1343   */\n      dup2\n        /* \"#utility.yul\":1369:1406   */\n      tag_180\n        /* \"#utility.yul\":1402:1405   */\n      dup9\n        /* \"#utility.yul\":1390:1400   */\n      dup3\n        /* \"#utility.yul\":1369:1406   */\n      tag_181\n      jump\t// in\n    tag_180:\n        /* \"#utility.yul\":1364:1367   */\n      dup5\n        /* \"#utility.yul\":1357:1407   */\n      mstore\n        /* \"#utility.yul\":1436:1440   */\n      0x20\n        /* \"#utility.yul\":1431:1434   */\n      dup5\n        /* \"#utility.yul\":1427:1441   */\n      add\n        /* \"#utility.yul\":1420:1441   */\n      swap4\n      pop\n        /* \"#utility.yul\":1470:1474   */\n      0x20\n        /* \"#utility.yul\":1465:1468   */\n      dup4\n        /* \"#utility.yul\":1461:1475   */\n      add\n        /* \"#utility.yul\":1454:1475   */\n      swap3\n      pop\n        /* \"#utility.yul\":1307:1485   */\n      pop\n        /* \"#utility.yul\":1294:1295   */\n      0x01\n        /* \"#utility.yul\":1291:1292   */\n      dup2\n        /* \"#utility.yul\":1287:1296   */\n      add\n        /* \"#utility.yul\":1282:1296   */\n      swap1\n      pop\n        /* \"#utility.yul\":1247:1485   */\n      jump(tag_177)\n    tag_179:\n        /* \"#utility.yul\":1251:1265   */\n      pop\n        /* \"#utility.yul\":871:1491   */\n      pop\n      pop\n        /* \"#utility.yul\":769:1491   */\n      swap4\n      swap3\n      pop\n      pop\n      pop\n      jump\t// out\n        /* \"#utility.yul\":1497:1636   */\n    tag_169:\n        /* \"#utility.yul\":1543:1548   */\n      0x00\n        /* \"#utility.yul\":1581:1587   */\n      dup2\n        /* \"#utility.yul\":1568:1588   */\n      calldataload\n        /* \"#utility.yul\":1559:1588   */\n      swap1\n      pop\n        /* \"#utility.yul\":1597:1630   */\n      tag_183\n        /* \"#utility.yul\":1624:1629   */\n      dup2\n        /* \"#utility.yul\":1597:1630   */\n      tag_184\n      jump\t// in\n    tag_183:\n        /* \"#utility.yul\":1497:1636   */\n      swap3\n      swap2\n      pop\n      pop\n      jump\t// out\n        /* \"#utility.yul\":1659:2029   */\n    tag_185:\n        /* \"#utility.yul\":1730:1735   */\n      0x00\n        /* \"#utility.yul\":1779:1782   */\n      dup3\n        /* \"#utility.yul\":1772:1776   */\n      0x1f\n        /* \"#utility.yul\":1764:1770   */\n      dup4\n        /* \"#utility.yul\":1760:1777   */\n      add\n        /* \"#utility.yul\":1756:1783   */\n      slt\n        /* \"#utility.yul\":1746:1868   */\n      tag_187\n      jumpi\n        /* \"#utility.yul\":1787:1866   */\n      tag_188\n      tag_189\n      jump\t// in\n    tag_188:\n        /* \"#utility.yul\":1746:1868   */\n    tag_187:\n        /* \"#utility.yul\":1904:1910   */\n      dup2\n        /* \"#utility.yul\":1891:1911   */\n      calldataload\n        /* \"#utility.yul\":1929:2023   */\n      tag_190\n        /* \"#utility.yul\":2019:2022   */\n      dup5\n        /* \"#utility.yul\":2011:2017   */\n      dup3\n        /* \"#utility.yul\":2004:2008   */\n      0x20\n        /* \"#utility.yul\":1996:2002   */\n      dup7\n        /* \"#utility.yul\":1992:2009   */\n      add\n        /* \"#utility.yul\":1929:2023   */\n      tag_156\n      jump\t// in\n    tag_190:\n        /* \"#utility.yul\":1920:2023   */\n      swap2\n      pop\n        /* \"#utility.yul\":1736:2029   */\n      pop\n        /* \"#utility.yul\":1659:2029   */\n      swap3\n      swap2\n      pop\n      pop\n      jump\t// out\n        /* \"#utility.yul\":2052:2422   */\n    tag_191:\n        /* \"#utility.yul\":2123:2128   */\n      0x00\n        /* \"#utility.yul\":2172:2175   */\n      dup3\n        /* \"#utility.yul\":2165:2169   */\n      0x1f\n        /* \"#utility.yul\":2157:2163   */\n      dup4\n        /* \"#utility.yul\":2153:2170   */\n      add\n        /* \"#utility.yul\":2149:2176   */\n      slt\n        /* \"#utility.yul\":2139:2261   */\n      tag_193\n      jumpi\n        /* \"#utility.yul\":2180:2259   */\n      tag_194\n      tag_189\n      jump\t// in\n    tag_194:\n        /* \"#utility.yul\":2139:2261   */\n    tag_193:\n        /* \"#utility.yul\":2297:2303   */\n      dup2\n        /* \"#utility.yul\":2284:2304   */\n      calldataload\n        /* \"#utility.yul\":2322:2416   */\n      tag_195\n        /* \"#utility.yul\":2412:2415   */\n      dup5\n        /* \"#utility.yul\":2404:2410   */\n      dup3\n        /* \"#utility.yul\":2397:2401   */\n      0x20\n        /* \"#utility.yul\":2389:2395   */\n      dup7\n        /* \"#utility.yul\":2385:2402   */\n      add\n        /* \"#utility.yul\":2322:2416   */\n      tag_170\n      jump\t// in\n    tag_195:\n        /* \"#utility.yul\":2313:2416   */\n      swap2\n      pop\n        /* \"#utility.yul\":2129:2422   */\n      pop\n        /* \"#utility.yul\":2052:2422   */\n      swap3\n      swap2\n      pop\n      pop\n      jump\t// out\n        /* \"#utility.yul\":2428:2567   */\n    tag_181:\n        /* \"#utility.yul\":2474:2479   */\n      0x00\n        /* \"#utility.yul\":2512:2518   */\n      dup2\n        /* \"#utility.yul\":2499:2519   */\n      calldataload\n        /* \"#utility.yul\":2490:2519   */\n      swap1\n      pop\n        /* \"#utility.yul\":2528:2561   */\n      tag_197\n        /* \"#utility.yul\":2555:2560   */\n      dup2\n        /* \"#utility.yul\":2528:2561   */\n      tag_198\n      jump\t// in\n    tag_197:\n        /* \"#utility.yul\":2428:2567   */\n      swap3\n      swap2\n      pop\n      pop\n      jump\t// out\n        /* \"#utility.yul\":2573:2902   */\n    tag_42:\n        /* \"#utility.yul\":2632:2638   */\n      0x00\n        /* \"#utility.yul\":2681:2683   */\n      0x20\n        /* \"#utility.yul\":2669:2678   */\n      dup3\n        /* \"#utility.yul\":2660:2667   */\n      dup5\n        /* \"#utility.yul\":2656:2679   */\n      sub\n        /* \"#utility.yul\":2652:2684   */\n      slt\n        /* \"#utility.yul\":2649:2768   */\n      iszero\n      tag_200\n      jumpi\n        /* \"#utility.yul\":2687:2766   */\n      tag_201\n      tag_202\n      jump\t// in\n    tag_201:\n        /* \"#utility.yul\":2649:2768   */\n    tag_200:\n        /* \"#utility.yul\":2807:2808   */\n      0x00\n        /* \"#utility.yul\":2832:2885   */\n      tag_203\n        /* \"#utility.yul\":2877:2884   */\n      dup5\n        /* \"#utility.yul\":2868:2874   */\n      dup3\n        /* \"#utility.yul\":2857:2866   */\n      dup6\n        /* \"#utility.yul\":2853:2875   */\n      add\n        /* \"#utility.yul\":2832:2885   */\n      tag_169\n      jump\t// in\n    tag_203:\n        /* \"#utility.yul\":2822:2885   */\n      swap2\n      pop\n        /* \"#utility.yul\":2778:2895   */\n      pop\n        /* \"#utility.yul\":2573:2902   */\n      swap3\n      swap2\n      pop\n      pop\n      jump\t// out\n        /* \"#utility.yul\":2908:3802   */\n    tag_55:\n        /* \"#utility.yul\":3026:3032   */\n      0x00\n        /* \"#utility.yul\":3034:3040   */\n      dup1\n        /* \"#utility.yul\":3083:3085   */\n      0x40\n        /* \"#utility.yul\":3071:3080   */\n      dup4\n        /* \"#utility.yul\":3062:3069   */\n      dup6\n        /* \"#utility.yul\":3058:3081   */\n      sub\n        /* \"#utility.yul\":3054:3086   */\n      slt\n        /* \"#utility.yul\":3051:3170   */\n      iszero\n      tag_205\n      jumpi\n        /* \"#utility.yul\":3089:3168   */\n      tag_206\n      tag_202\n      jump\t// in\n    tag_206:\n        /* \"#utility.yul\":3051:3170   */\n    tag_205:\n        /* \"#utility.yul\":3237:3238   */\n      0x00\n        /* \"#utility.yul\":3226:3235   */\n      dup4\n        /* \"#utility.yul\":3222:3239   */\n      add\n        /* \"#utility.yul\":3209:3240   */\n      calldataload\n        /* \"#utility.yul\":3267:3285   */\n      0xffffffffffffffff\n        /* \"#utility.yul\":3259:3265   */\n      dup2\n        /* \"#utility.yul\":3256:3286   */\n      gt\n        /* \"#utility.yul\":3253:3370   */\n      iszero\n      tag_207\n      jumpi\n        /* \"#utility.yul\":3289:3368   */\n      tag_208\n      tag_209\n      jump\t// in\n    tag_208:\n        /* \"#utility.yul\":3253:3370   */\n    tag_207:\n        /* \"#utility.yul\":3394:3472   */\n      tag_210\n        /* \"#utility.yul\":3464:3471   */\n      dup6\n        /* \"#utility.yul\":3455:3461   */\n      dup3\n        /* \"#utility.yul\":3444:3453   */\n      dup7\n        /* \"#utility.yul\":3440:3462   */\n      add\n        /* \"#utility.yul\":3394:3472   */\n      tag_185\n      jump\t// in\n    tag_210:\n        /* \"#utility.yul\":3384:3472   */\n      swap3\n      pop\n        /* \"#utility.yul\":3180:3482   */\n      pop\n        /* \"#utility.yul\":3549:3551   */\n      0x20\n        /* \"#utility.yul\":3538:3547   */\n      dup4\n        /* \"#utility.yul\":3534:3552   */\n      add\n        /* \"#utility.yul\":3521:3553   */\n      calldataload\n        /* \"#utility.yul\":3580:3598   */\n      0xffffffffffffffff\n        /* \"#utility.yul\":3572:3578   */\n      dup2\n        /* \"#utility.yul\":3569:3599   */\n      gt\n        /* \"#utility.yul\":3566:3683   */\n      iszero\n      tag_211\n      jumpi\n        /* \"#utility.yul\":3602:3681   */\n      tag_212\n      tag_209\n      jump\t// in\n    tag_212:\n        /* \"#utility.yul\":3566:3683   */\n    tag_211:\n        /* \"#utility.yul\":3707:3785   */\n      tag_213\n        /* \"#utility.yul\":3777:3784   */\n      dup6\n        /* \"#utility.yul\":3768:3774   */\n      dup3\n        /* \"#utility.yul\":3757:3766   */\n      dup7\n        /* \"#utility.yul\":3753:3775   */\n      add\n        /* \"#utility.yul\":3707:3785   */\n      tag_191\n      jump\t// in\n    tag_213:\n        /* \"#utility.yul\":3697:3785   */\n      swap2\n      pop\n        /* \"#utility.yul\":3492:3795   */\n      pop\n        /* \"#utility.yul\":2908:3802   */\n      swap3\n      pop\n      swap3\n      swap1\n      pop\n      jump\t// out\n        /* \"#utility.yul\":3808:4137   */\n    tag_22:\n        /* \"#utility.yul\":3867:3873   */\n      0x00\n        /* \"#utility.yul\":3916:3918   */\n      0x20\n        /* \"#utility.yul\":3904:3913   */\n      dup3\n        /* \"#utility.yul\":3895:3902   */\n      dup5\n        /* \"#utility.yul\":3891:3914   */\n      sub\n        /* \"#utility.yul\":3887:3919   */\n      slt\n        /* \"#utility.yul\":3884:4003   */\n      iszero\n      tag_215\n      jumpi\n        /* \"#utility.yul\":3922:4001   */\n      tag_216\n      tag_202\n      jump\t// in\n    tag_216:\n        /* \"#utility.yul\":3884:4003   */\n    tag_215:\n        /* \"#utility.yul\":4042:4043   */\n      0x00\n        /* \"#utility.yul\":4067:4120   */\n      tag_217\n        /* \"#utility.yul\":4112:4119   */\n      dup5\n        /* \"#utility.yul\":4103:4109   */\n      dup3\n        /* \"#utility.yul\":4092:4101   */\n      dup6\n        /* \"#utility.yul\":4088:4110   */\n      add\n        /* \"#utility.yul\":4067:4120   */\n      tag_181\n      jump\t// in\n    tag_217:\n        /* \"#utility.yul\":4057:4120   */\n      swap2\n      pop\n        /* \"#utility.yul\":4013:4130   */\n      pop\n        /* \"#utility.yul\":3808:4137   */\n      swap3\n      swap2\n      pop\n      pop\n      jump\t// out\n        /* \"#utility.yul\":4143:4261   */\n    tag_218:\n        /* \"#utility.yul\":4230:4254   */\n      tag_220\n        /* \"#utility.yul\":4248:4253   */\n      dup2\n        /* \"#utility.yul\":4230:4254   */\n      tag_221\n      jump\t// in\n    tag_220:\n        /* \"#utility.yul\":4225:4228   */\n      dup3\n        /* \"#utility.yul\":4218:4255   */\n      mstore\n        /* \"#utility.yul\":4143:4261   */\n      pop\n      pop\n      jump\t// out\n        /* \"#utility.yul\":4267:4376   */\n    tag_222:\n        /* \"#utility.yul\":4348:4369   */\n      tag_224\n        /* \"#utility.yul\":4363:4368   */\n      dup2\n        /* \"#utility.yul\":4348:4369   */\n      tag_225\n      jump\t// in\n    tag_224:\n        /* \"#utility.yul\":4343:4346   */\n      dup3\n        /* \"#utility.yul\":4336:4370   */\n      mstore\n        /* \"#utility.yul\":4267:4376   */\n      pop\n      pop\n      jump\t// out\n        /* \"#utility.yul\":4382:4748   */\n    tag_226:\n        /* \"#utility.yul\":4524:4527   */\n      0x00\n        /* \"#utility.yul\":4545:4612   */\n      tag_228\n        /* \"#utility.yul\":4609:4611   */\n      0x3c\n        /* \"#utility.yul\":4604:4607   */\n      dup4\n        /* \"#utility.yul\":4545:4612   */\n      tag_229\n      jump\t// in\n    tag_228:\n        /* \"#utility.yul\":4538:4612   */\n      swap2\n      pop\n        /* \"#utility.yul\":4621:4714   */\n      tag_230\n        /* \"#utility.yul\":4710:4713   */\n      dup3\n        /* \"#utility.yul\":4621:4714   */\n      tag_231\n      jump\t// in\n    tag_230:\n        /* \"#utility.yul\":4739:4741   */\n      0x40\n        /* \"#utility.yul\":4734:4737   */\n      dup3\n        /* \"#utility.yul\":4730:4742   */\n      add\n        /* \"#utility.yul\":4723:4742   */\n      swap1\n      pop\n        /* \"#utility.yul\":4382:4748   */\n      swap2\n      swap1\n      pop\n      jump\t// out\n        /* \"#utility.yul\":4754:5120   */\n    tag_232:\n        /* \"#utility.yul\":4896:4899   */\n      0x00\n        /* \"#utility.yul\":4917:4984   */\n      tag_234\n        /* \"#utility.yul\":4981:4983   */\n      0x26\n        /* \"#utility.yul\":4976:4979   */\n      dup4\n        /* \"#utility.yul\":4917:4984   */\n      tag_229\n      jump\t// in\n    tag_234:\n        /* \"#utility.yul\":4910:4984   */\n      swap2\n      pop\n        /* \"#utility.yul\":4993:5086   */\n      tag_235\n        /* \"#utility.yul\":5082:5085   */\n      dup3\n        /* \"#utility.yul\":4993:5086   */\n      tag_236\n      jump\t// in\n    tag_235:\n        /* \"#utility.yul\":5111:5113   */\n      0x40\n        /* \"#utility.yul\":5106:5109   */\n      dup3\n        /* \"#utility.yul\":5102:5114   */\n      add\n        /* \"#utility.yul\":5095:5114   */\n      swap1\n      pop\n        /* \"#utility.yul\":4754:5120   */\n      swap2\n      swap1\n      pop\n      jump\t// out\n        /* \"#utility.yul\":5126:5492   */\n    tag_237:\n        /* \"#utility.yul\":5268:5271   */\n      0x00\n        /* \"#utility.yul\":5289:5356   */\n      tag_239\n        /* \"#utility.yul\":5353:5355   */\n      0x20\n        /* \"#utility.yul\":5348:5351   */\n      dup4\n        /* \"#utility.yul\":5289:5356   */\n      tag_229\n      jump\t// in\n    tag_239:\n        /* \"#utility.yul\":5282:5356   */\n      swap2\n      pop\n        /* \"#utility.yul\":5365:5458   */\n      tag_240\n        /* \"#utility.yul\":5454:5457   */\n      dup3\n        /* \"#utility.yul\":5365:5458   */\n      tag_241\n      jump\t// in\n    tag_240:\n        /* \"#utility.yul\":5483:5485   */\n      0x20\n        /* \"#utility.yul\":5478:5481   */\n      dup3\n        /* \"#utility.yul\":5474:5486   */\n      add\n        /* \"#utility.yul\":5467:5486   */\n      swap1\n      pop\n        /* \"#utility.yul\":5126:5492   */\n      swap2\n      swap1\n      pop\n      jump\t// out\n        /* \"#utility.yul\":5498:5864   */\n    tag_242:\n        /* \"#utility.yul\":5640:5643   */\n      0x00\n        /* \"#utility.yul\":5661:5728   */\n      tag_244\n        /* \"#utility.yul\":5725:5727   */\n      0x23\n        /* \"#utility.yul\":5720:5723   */\n      dup4\n        /* \"#utility.yul\":5661:5728   */\n      tag_229\n      jump\t// in\n    tag_244:\n        /* \"#utility.yul\":5654:5728   */\n      swap2\n      pop\n        /* \"#utility.yul\":5737:5830   */\n      tag_245\n        /* \"#utility.yul\":5826:5829   */\n      dup3\n        /* \"#utility.yul\":5737:5830   */\n      tag_246\n      jump\t// in\n    tag_245:\n        /* \"#utility.yul\":5855:5857   */\n      0x40\n        /* \"#utility.yul\":5850:5853   */\n      dup3\n        /* \"#utility.yul\":5846:5858   */\n      add\n        /* \"#utility.yul\":5839:5858   */\n      swap1\n      pop\n        /* \"#utility.yul\":5498:5864   */\n      swap2\n      swap1\n      pop\n      jump\t// out\n        /* \"#utility.yul\":5870:6268   */\n    tag_247:\n        /* \"#utility.yul\":6029:6032   */\n      0x00\n        /* \"#utility.yul\":6050:6133   */\n      tag_249\n        /* \"#utility.yul\":6131:6132   */\n      0x00\n        /* \"#utility.yul\":6126:6129   */\n      dup4\n        /* \"#utility.yul\":6050:6133   */\n      tag_250\n      jump\t// in\n    tag_249:\n        /* \"#utility.yul\":6043:6133   */\n      swap2\n      pop\n        /* \"#utility.yul\":6142:6235   */\n      tag_251\n        /* \"#utility.yul\":6231:6234   */\n      dup3\n        /* \"#utility.yul\":6142:6235   */\n      tag_252\n      jump\t// in\n    tag_251:\n        /* \"#utility.yul\":6260:6261   */\n      0x00\n        /* \"#utility.yul\":6255:6258   */\n      dup3\n        /* \"#utility.yul\":6251:6262   */\n      add\n        /* \"#utility.yul\":6244:6262   */\n      swap1\n      pop\n        /* \"#utility.yul\":5870:6268   */\n      swap2\n      swap1\n      pop\n      jump\t// out\n        /* \"#utility.yul\":6274:6640   */\n    tag_253:\n        /* \"#utility.yul\":6416:6419   */\n      0x00\n        /* \"#utility.yul\":6437:6504   */\n      tag_255\n        /* \"#utility.yul\":6501:6503   */\n      0x10\n        /* \"#utility.yul\":6496:6499   */\n      dup4\n        /* \"#utility.yul\":6437:6504   */\n      tag_229\n      jump\t// in\n    tag_255:\n        /* \"#utility.yul\":6430:6504   */\n      swap2\n      pop\n        /* \"#utility.yul\":6513:6606   */\n      tag_256\n        /* \"#utility.yul\":6602:6605   */\n      dup3\n        /* \"#utility.yul\":6513:6606   */\n      tag_257\n      jump\t// in\n    tag_256:\n        /* \"#utility.yul\":6631:6633   */\n      0x20\n        /* \"#utility.yul\":6626:6629   */\n      dup3\n        /* \"#utility.yul\":6622:6634   */\n      add\n        /* \"#utility.yul\":6615:6634   */\n      swap1\n      pop\n        /* \"#utility.yul\":6274:6640   */\n      swap2\n      swap1\n      pop\n      jump\t// out\n        /* \"#utility.yul\":6646:7012   */\n    tag_258:\n        /* \"#utility.yul\":6788:6791   */\n      0x00\n        /* \"#utility.yul\":6809:6876   */\n      tag_260\n        /* \"#utility.yul\":6873:6875   */\n      0x12\n        /* \"#utility.yul\":6868:6871   */\n      dup4\n        /* \"#utility.yul\":6809:6876   */\n      tag_229\n      jump\t// in\n    tag_260:\n        /* \"#utility.yul\":6802:6876   */\n      swap2\n      pop\n        /* \"#utility.yul\":6885:6978   */\n      tag_261\n        /* \"#utility.yul\":6974:6977   */\n      dup3\n        /* \"#utility.yul\":6885:6978   */\n      tag_262\n      jump\t// in\n    tag_261:\n        /* \"#utility.yul\":7003:7005   */\n      0x20\n        /* \"#utility.yul\":6998:7001   */\n      dup3\n        /* \"#utility.yul\":6994:7006   */\n      add\n        /* \"#utility.yul\":6987:7006   */\n      swap1\n      pop\n        /* \"#utility.yul\":6646:7012   */\n      swap2\n      swap1\n      pop\n      jump\t// out\n        /* \"#utility.yul\":7018:7384   */\n    tag_263:\n        /* \"#utility.yul\":7160:7163   */\n      0x00\n        /* \"#utility.yul\":7181:7248   */\n      tag_265\n        /* \"#utility.yul\":7245:7247   */\n      0x1f\n        /* \"#utility.yul\":7240:7243   */\n      dup4\n        /* \"#utility.yul\":7181:7248   */\n      tag_229\n      jump\t// in\n    tag_265:\n        /* \"#utility.yul\":7174:7248   */\n      swap2\n      pop\n        /* \"#utility.yul\":7257:7350   */\n      tag_266\n        /* \"#utility.yul\":7346:7349   */\n      dup3\n        /* \"#utility.yul\":7257:7350   */\n      tag_267\n      jump\t// in\n    tag_266:\n        /* \"#utility.yul\":7375:7377   */\n      0x20\n        /* \"#utility.yul\":7370:7373   */\n      dup3\n        /* \"#utility.yul\":7366:7378   */\n      add\n        /* \"#utility.yul\":7359:7378   */\n      swap1\n      pop\n        /* \"#utility.yul\":7018:7384   */\n      swap2\n      swap1\n      pop\n      jump\t// out\n        /* \"#utility.yul\":7390:7756   */\n    tag_268:\n        /* \"#utility.yul\":7532:7535   */\n      0x00\n        /* \"#utility.yul\":7553:7620   */\n      tag_270\n        /* \"#utility.yul\":7617:7619   */\n      0x0f\n        /* \"#utility.yul\":7612:7615   */\n      dup4\n        /* \"#utility.yul\":7553:7620   */\n      tag_229\n      jump\t// in\n    tag_270:\n        /* \"#utility.yul\":7546:7620   */\n      swap2\n      pop\n        /* \"#utility.yul\":7629:7722   */\n      tag_271\n        /* \"#utility.yul\":7718:7721   */\n      dup3\n        /* \"#utility.yul\":7629:7722   */\n      tag_272\n      jump\t// in\n    tag_271:\n        /* \"#utility.yul\":7747:7749   */\n      0x20\n        /* \"#utility.yul\":7742:7745   */\n      dup3\n        /* \"#utility.yul\":7738:7750   */\n      add\n        /* \"#utility.yul\":7731:7750   */\n      swap1\n      pop\n        /* \"#utility.yul\":7390:7756   */\n      swap2\n      swap1\n      pop\n      jump\t// out\n        /* \"#utility.yul\":7762:7880   */\n    tag_273:\n        /* \"#utility.yul\":7849:7873   */\n      tag_275\n        /* \"#utility.yul\":7867:7872   */\n      dup2\n        /* \"#utility.yul\":7849:7873   */\n      tag_276\n      jump\t// in\n    tag_275:\n        /* \"#utility.yul\":7844:7847   */\n      dup3\n        /* \"#utility.yul\":7837:7874   */\n      mstore\n        /* \"#utility.yul\":7762:7880   */\n      pop\n      pop\n      jump\t// out\n        /* \"#utility.yul\":7886:8265   */\n    tag_80:\n        /* \"#utility.yul\":8070:8073   */\n      0x00\n        /* \"#utility.yul\":8092:8239   */\n      tag_278\n        /* \"#utility.yul\":8235:8238   */\n      dup3\n        /* \"#utility.yul\":8092:8239   */\n      tag_247\n      jump\t// in\n    tag_278:\n        /* \"#utility.yul\":8085:8239   */\n      swap2\n      pop\n        /* \"#utility.yul\":8256:8259   */\n      dup2\n        /* \"#utility.yul\":8249:8259   */\n      swap1\n      pop\n        /* \"#utility.yul\":7886:8265   */\n      swap2\n      swap1\n      pop\n      jump\t// out\n        /* \"#utility.yul\":8271:8493   */\n    tag_38:\n        /* \"#utility.yul\":8364:8368   */\n      0x00\n        /* \"#utility.yul\":8402:8404   */\n      0x20\n        /* \"#utility.yul\":8391:8400   */\n      dup3\n        /* \"#utility.yul\":8387:8405   */\n      add\n        /* \"#utility.yul\":8379:8405   */\n      swap1\n      pop\n        /* \"#utility.yul\":8415:8486   */\n      tag_280\n        /* \"#utility.yul\":8483:8484   */\n      0x00\n        /* \"#utility.yul\":8472:8481   */\n      dup4\n        /* \"#utility.yul\":8468:8485   */\n      add\n        /* \"#utility.yul\":8459:8465   */\n      dup5\n        /* \"#utility.yul\":8415:8486   */\n      tag_218\n      jump\t// in\n    tag_280:\n        /* \"#utility.yul\":8271:8493   */\n      swap3\n      swap2\n      pop\n      pop\n      jump\t// out\n        /* \"#utility.yul\":8499:8831   */\n    tag_47:\n        /* \"#utility.yul\":8620:8624   */\n      0x00\n        /* \"#utility.yul\":8658:8660   */\n      0x40\n        /* \"#utility.yul\":8647:8656   */\n      dup3\n        /* \"#utility.yul\":8643:8661   */\n      add\n        /* \"#utility.yul\":8635:8661   */\n      swap1\n      pop\n        /* \"#utility.yul\":8671:8742   */\n      tag_282\n        /* \"#utility.yul\":8739:8740   */\n      0x00\n        /* \"#utility.yul\":8728:8737   */\n      dup4\n        /* \"#utility.yul\":8724:8741   */\n      add\n        /* \"#utility.yul\":8715:8721   */\n      dup6\n        /* \"#utility.yul\":8671:8742   */\n      tag_218\n      jump\t// in\n    tag_282:\n        /* \"#utility.yul\":8752:8824   */\n      tag_283\n        /* \"#utility.yul\":8820:8822   */\n      0x20\n        /* \"#utility.yul\":8809:8818   */\n      dup4\n        /* \"#utility.yul\":8805:8823   */\n      add\n        /* \"#utility.yul\":8796:8802   */\n      dup5\n        /* \"#utility.yul\":8752:8824   */\n      tag_273\n      jump\t// in\n    tag_283:\n        /* \"#utility.yul\":8499:8831   */\n      swap4\n      swap3\n      pop\n      pop\n      pop\n      jump\t// out\n        /* \"#utility.yul\":8837:9047   */\n    tag_25:\n        /* \"#utility.yul\":8924:8928   */\n      0x00\n        /* \"#utility.yul\":8962:8964   */\n      0x20\n        /* \"#utility.yul\":8951:8960   */\n      dup3\n        /* \"#utility.yul\":8947:8965   */\n      add\n        /* \"#utility.yul\":8939:8965   */\n      swap1\n      pop\n        /* \"#utility.yul\":8975:9040   */\n      tag_285\n        /* \"#utility.yul\":9037:9038   */\n      0x00\n        /* \"#utility.yul\":9026:9035   */\n      dup4\n        /* \"#utility.yul\":9022:9039   */\n      add\n        /* \"#utility.yul\":9013:9019   */\n      dup5\n        /* \"#utility.yul\":8975:9040   */\n      tag_222\n      jump\t// in\n    tag_285:\n        /* \"#utility.yul\":8837:9047   */\n      swap3\n      swap2\n      pop\n      pop\n      jump\t// out\n        /* \"#utility.yul\":9053:9472   */\n    tag_140:\n        /* \"#utility.yul\":9219:9223   */\n      0x00\n        /* \"#utility.yul\":9257:9259   */\n      0x20\n        /* \"#utility.yul\":9246:9255   */\n      dup3\n        /* \"#utility.yul\":9242:9260   */\n      add\n        /* \"#utility.yul\":9234:9260   */\n      swap1\n      pop\n        /* \"#utility.yul\":9306:9315   */\n      dup2\n        /* \"#utility.yul\":9300:9304   */\n      dup2\n        /* \"#utility.yul\":9296:9316   */\n      sub\n        /* \"#utility.yul\":9292:9293   */\n      0x00\n        /* \"#utility.yul\":9281:9290   */\n      dup4\n        /* \"#utility.yul\":9277:9294   */\n      add\n        /* \"#utility.yul\":9270:9317   */\n      mstore\n        /* \"#utility.yul\":9334:9465   */\n      tag_287\n        /* \"#utility.yul\":9460:9464   */\n      dup2\n        /* \"#utility.yul\":9334:9465   */\n      tag_226\n      jump\t// in\n    tag_287:\n        /* \"#utility.yul\":9326:9465   */\n      swap1\n      pop\n        /* \"#utility.yul\":9053:9472   */\n      swap2\n      swap1\n      pop\n      jump\t// out\n        /* \"#utility.yul\":9478:9897   */\n    tag_100:\n        /* \"#utility.yul\":9644:9648   */\n      0x00\n        /* \"#utility.yul\":9682:9684   */\n      0x20\n        /* \"#utility.yul\":9671:9680   */\n      dup3\n        /* \"#utility.yul\":9667:9685   */\n      add\n        /* \"#utility.yul\":9659:9685   */\n      swap1\n      pop\n        /* \"#utility.yul\":9731:9740   */\n      dup2\n        /* \"#utility.yul\":9725:9729   */\n      dup2\n        /* \"#utility.yul\":9721:9741   */\n      sub\n        /* \"#utility.yul\":9717:9718   */\n      0x00\n        /* \"#utility.yul\":9706:9715   */\n      dup4\n        /* \"#utility.yul\":9702:9719   */\n      add\n        /* \"#utility.yul\":9695:9742   */\n      mstore\n        /* \"#utility.yul\":9759:9890   */\n      tag_289\n        /* \"#utility.yul\":9885:9889   */\n      dup2\n        /* \"#utility.yul\":9759:9890   */\n      tag_232\n      jump\t// in\n    tag_289:\n        /* \"#utility.yul\":9751:9890   */\n      swap1\n      pop\n        /* \"#utility.yul\":9478:9897   */\n      swap2\n      swap1\n      pop\n      jump\t// out\n        /* \"#utility.yul\":9903:10322   */\n    tag_135:\n        /* \"#utility.yul\":10069:10073   */\n      0x00\n        /* \"#utility.yul\":10107:10109   */\n      0x20\n        /* \"#utility.yul\":10096:10105   */\n      dup3\n        /* \"#utility.yul\":10092:10110   */\n      add\n        /* \"#utility.yul\":10084:10110   */\n      swap1\n      pop\n        /* \"#utility.yul\":10156:10165   */\n      dup2\n        /* \"#utility.yul\":10150:10154   */\n      dup2\n        /* \"#utility.yul\":10146:10166   */\n      sub\n        /* \"#utility.yul\":10142:10143   */\n      0x00\n        /* \"#utility.yul\":10131:10140   */\n      dup4\n        /* \"#utility.yul\":10127:10144   */\n      add\n        /* \"#utility.yul\":10120:10167   */\n      mstore\n        /* \"#utility.yul\":10184:10315   */\n      tag_291\n        /* \"#utility.yul\":10310:10314   */\n      dup2\n        /* \"#utility.yul\":10184:10315   */\n      tag_237\n      jump\t// in\n    tag_291:\n        /* \"#utility.yul\":10176:10315   */\n      swap1\n      pop\n        /* \"#utility.yul\":9903:10322   */\n      swap2\n      swap1\n      pop\n      jump\t// out\n        /* \"#utility.yul\":10328:10747   */\n    tag_117:\n        /* \"#utility.yul\":10494:10498   */\n      0x00\n        /* \"#utility.yul\":10532:10534   */\n      0x20\n        /* \"#utility.yul\":10521:10530   */\n      dup3\n        /* \"#utility.yul\":10517:10535   */\n      add\n        /* \"#utility.yul\":10509:10535   */\n      swap1\n      pop\n        /* \"#utility.yul\":10581:10590   */\n      dup2\n        /* \"#utility.yul\":10575:10579   */\n      dup2\n        /* \"#utility.yul\":10571:10591   */\n      sub\n        /* \"#utility.yul\":10567:10568   */\n      0x00\n        /* \"#utility.yul\":10556:10565   */\n      dup4\n        /* \"#utility.yul\":10552:10569   */\n      add\n        /* \"#utility.yul\":10545:10592   */\n      mstore\n        /* \"#utility.yul\":10609:10740   */\n      tag_293\n        /* \"#utility.yul\":10735:10739   */\n      dup2\n        /* \"#utility.yul\":10609:10740   */\n      tag_242\n      jump\t// in\n    tag_293:\n        /* \"#utility.yul\":10601:10740   */\n      swap1\n      pop\n        /* \"#utility.yul\":10328:10747   */\n      swap2\n      swap1\n      pop\n      jump\t// out\n        /* \"#utility.yul\":10753:11172   */\n    tag_154:\n        /* \"#utility.yul\":10919:10923   */\n      0x00\n        /* \"#utility.yul\":10957:10959   */\n      0x20\n        /* \"#utility.yul\":10946:10955   */\n      dup3\n        /* \"#utility.yul\":10942:10960   */\n      add\n        /* \"#utility.yul\":10934:10960   */\n      swap1\n      pop\n        /* \"#utility.yul\":11006:11015   */\n      dup2\n        /* \"#utility.yul\":11000:11004   */\n      dup2\n        /* \"#utility.yul\":10996:11016   */\n      sub\n        /* \"#utility.yul\":10992:10993   */\n      0x00\n        /* \"#utility.yul\":10981:10990   */\n      dup4\n        /* \"#utility.yul\":10977:10994   */\n      add\n        /* \"#utility.yul\":10970:11017   */\n      mstore\n        /* \"#utility.yul\":11034:11165   */\n      tag_295\n        /* \"#utility.yul\":11160:11164   */\n      dup2\n        /* \"#utility.yul\":11034:11165   */\n      tag_253\n      jump\t// in\n    tag_295:\n        /* \"#utility.yul\":11026:11165   */\n      swap1\n      pop\n        /* \"#utility.yul\":10753:11172   */\n      swap2\n      swap1\n      pop\n      jump\t// out\n        /* \"#utility.yul\":11178:11597   */\n    tag_107:\n        /* \"#utility.yul\":11344:11348   */\n      0x00\n        /* \"#utility.yul\":11382:11384   */\n      0x20\n        /* \"#utility.yul\":11371:11380   */\n      dup3\n        /* \"#utility.yul\":11367:11385   */\n      add\n        /* \"#utility.yul\":11359:11385   */\n      swap1\n      pop\n        /* \"#utility.yul\":11431:11440   */\n      dup2\n        /* \"#utility.yul\":11425:11429   */\n      dup2\n        /* \"#utility.yul\":11421:11441   */\n      sub\n        /* \"#utility.yul\":11417:11418   */\n      0x00\n        /* \"#utility.yul\":11406:11415   */\n      dup4\n        /* \"#utility.yul\":11402:11419   */\n      add\n        /* \"#utility.yul\":11395:11442   */\n      mstore\n        /* \"#utility.yul\":11459:11590   */\n      tag_297\n        /* \"#utility.yul\":11585:11589   */\n      dup2\n        /* \"#utility.yul\":11459:11590   */\n      tag_258\n      jump\t// in\n    tag_297:\n        /* \"#utility.yul\":11451:11590   */\n      swap1\n      pop\n        /* \"#utility.yul\":11178:11597   */\n      swap2\n      swap1\n      pop\n      jump\t// out\n        /* \"#utility.yul\":11603:12022   */\n    tag_126:\n        /* \"#utility.yul\":11769:11773   */\n      0x00\n        /* \"#utility.yul\":11807:11809   */\n      0x20\n        /* \"#utility.yul\":11796:11805   */\n      dup3\n        /* \"#utility.yul\":11792:11810   */\n      add\n        /* \"#utility.yul\":11784:11810   */\n      swap1\n      pop\n        /* \"#utility.yul\":11856:11865   */\n      dup2\n        /* \"#utility.yul\":11850:11854   */\n      dup2\n        /* \"#utility.yul\":11846:11866   */\n      sub\n        /* \"#utility.yul\":11842:11843   */\n      0x00\n        /* \"#utility.yul\":11831:11840   */\n      dup4\n        /* \"#utility.yul\":11827:11844   */\n      add\n        /* \"#utility.yul\":11820:11867   */\n      mstore\n        /* \"#utility.yul\":11884:12015   */\n      tag_299\n        /* \"#utility.yul\":12010:12014   */\n      dup2\n        /* \"#utility.yul\":11884:12015   */\n      tag_263\n      jump\t// in\n    tag_299:\n        /* \"#utility.yul\":11876:12015   */\n      swap1\n      pop\n        /* \"#utility.yul\":11603:12022   */\n      swap2\n      swap1\n      pop\n      jump\t// out\n        /* \"#utility.yul\":12028:12447   */\n    tag_86:\n        /* \"#utility.yul\":12194:12198   */\n      0x00\n        /* \"#utility.yul\":12232:12234   */\n      0x20\n        /* \"#utility.yul\":12221:12230   */\n      dup3\n        /* \"#utility.yul\":12217:12235   */\n      add\n        /* \"#utility.yul\":12209:12235   */\n      swap1\n      pop\n        /* \"#utility.yul\":12281:12290   */\n      dup2\n        /* \"#utility.yul\":12275:12279   */\n      dup2\n        /* \"#utility.yul\":12271:12291   */\n      sub\n        /* \"#utility.yul\":12267:12268   */\n      0x00\n        /* \"#utility.yul\":12256:12265   */\n      dup4\n        /* \"#utility.yul\":12252:12269   */\n      add\n        /* \"#utility.yul\":12245:12292   */\n      mstore\n        /* \"#utility.yul\":12309:12440   */\n      tag_301\n        /* \"#utility.yul\":12435:12439   */\n      dup2\n        /* \"#utility.yul\":12309:12440   */\n      tag_268\n      jump\t// in\n    tag_301:\n        /* \"#utility.yul\":12301:12440   */\n      swap1\n      pop\n        /* \"#utility.yul\":12028:12447   */\n      swap2\n      swap1\n      pop\n      jump\t// out\n        /* \"#utility.yul\":12453:12675   */\n    tag_33:\n        /* \"#utility.yul\":12546:12550   */\n      0x00\n        /* \"#utility.yul\":12584:12586   */\n      0x20\n        /* \"#utility.yul\":12573:12582   */\n      dup3\n        /* \"#utility.yul\":12569:12587   */\n      add\n        /* \"#utility.yul\":12561:12587   */\n      swap1\n      pop\n        /* \"#utility.yul\":12597:12668   */\n      tag_303\n        /* \"#utility.yul\":12665:12666   */\n      0x00\n        /* \"#utility.yul\":12654:12663   */\n      dup4\n        /* \"#utility.yul\":12650:12667   */\n      add\n        /* \"#utility.yul\":12641:12647   */\n      dup5\n        /* \"#utility.yul\":12597:12668   */\n      tag_273\n      jump\t// in\n    tag_303:\n        /* \"#utility.yul\":12453:12675   */\n      swap3\n      swap2\n      pop\n      pop\n      jump\t// out\n        /* \"#utility.yul\":12681:12810   */\n    tag_161:\n        /* \"#utility.yul\":12715:12721   */\n      0x00\n        /* \"#utility.yul\":12742:12762   */\n      tag_305\n      tag_306\n      jump\t// in\n    tag_305:\n        /* \"#utility.yul\":12732:12762   */\n      swap1\n      pop\n        /* \"#utility.yul\":12771:12804   */\n      tag_307\n        /* \"#utility.yul\":12799:12803   */\n      dup3\n        /* \"#utility.yul\":12791:12797   */\n      dup3\n        /* \"#utility.yul\":12771:12804   */\n      tag_308\n      jump\t// in\n    tag_307:\n        /* \"#utility.yul\":12681:12810   */\n      swap2\n      swap1\n      pop\n      jump\t// out\n        /* \"#utility.yul\":12816:12891   */\n    tag_306:\n        /* \"#utility.yul\":12849:12855   */\n      0x00\n        /* \"#utility.yul\":12882:12884   */\n      0x40\n        /* \"#utility.yul\":12876:12885   */\n      mload\n        /* \"#utility.yul\":12866:12885   */\n      swap1\n      pop\n        /* \"#utility.yul\":12816:12891   */\n      swap1\n      jump\t// out\n        /* \"#utility.yul\":12897:13208   */\n    tag_160:\n        /* \"#utility.yul\":12974:12978   */\n      0x00\n        /* \"#utility.yul\":13064:13082   */\n      0xffffffffffffffff\n        /* \"#utility.yul\":13056:13062   */\n      dup3\n        /* \"#utility.yul\":13053:13083   */\n      gt\n        /* \"#utility.yul\":13050:13106   */\n      iszero\n      tag_311\n      jumpi\n        /* \"#utility.yul\":13086:13104   */\n      tag_312\n      tag_313\n      jump\t// in\n    tag_312:\n        /* \"#utility.yul\":13050:13106   */\n    tag_311:\n        /* \"#utility.yul\":13136:13140   */\n      0x20\n        /* \"#utility.yul\":13128:13134   */\n      dup3\n        /* \"#utility.yul\":13124:13141   */\n      mul\n        /* \"#utility.yul\":13116:13141   */\n      swap1\n      pop\n        /* \"#utility.yul\":13196:13200   */\n      0x20\n        /* \"#utility.yul\":13190:13194   */\n      dup2\n        /* \"#utility.yul\":13186:13201   */\n      add\n        /* \"#utility.yul\":13178:13201   */\n      swap1\n      pop\n        /* \"#utility.yul\":12897:13208   */\n      swap2\n      swap1\n      pop\n      jump\t// out\n        /* \"#utility.yul\":13214:13525   */\n    tag_174:\n        /* \"#utility.yul\":13291:13295   */\n      0x00\n        /* \"#utility.yul\":13381:13399   */\n      0xffffffffffffffff\n        /* \"#utility.yul\":13373:13379   */\n      dup3\n        /* \"#utility.yul\":13370:13400   */\n      gt\n        /* \"#utility.yul\":13367:13423   */\n      iszero\n      tag_315\n      jumpi\n        /* \"#utility.yul\":13403:13421   */\n      tag_316\n      tag_313\n      jump\t// in\n    tag_316:\n        /* \"#utility.yul\":13367:13423   */\n    tag_315:\n        /* \"#utility.yul\":13453:13457   */\n      0x20\n        /* \"#utility.yul\":13445:13451   */\n      dup3\n        /* \"#utility.yul\":13441:13458   */\n      mul\n        /* \"#utility.yul\":13433:13458   */\n      swap1\n      pop\n        /* \"#utility.yul\":13513:13517   */\n      0x20\n        /* \"#utility.yul\":13507:13511   */\n      dup2\n        /* \"#utility.yul\":13503:13518   */\n      add\n        /* \"#utility.yul\":13495:13518   */\n      swap1\n      pop\n        /* \"#utility.yul\":13214:13525   */\n      swap2\n      swap1\n      pop\n      jump\t// out\n        /* \"#utility.yul\":13531:13678   */\n    tag_250:\n        /* \"#utility.yul\":13632:13643   */\n      0x00\n        /* \"#utility.yul\":13669:13672   */\n      dup2\n        /* \"#utility.yul\":13654:13672   */\n      swap1\n      pop\n        /* \"#utility.yul\":13531:13678   */\n      swap3\n      swap2\n      pop\n      pop\n      jump\t// out\n        /* \"#utility.yul\":13684:13853   */\n    tag_229:\n        /* \"#utility.yul\":13768:13779   */\n      0x00\n        /* \"#utility.yul\":13802:13808   */\n      dup3\n        /* \"#utility.yul\":13797:13800   */\n      dup3\n        /* \"#utility.yul\":13790:13809   */\n      mstore\n        /* \"#utility.yul\":13842:13846   */\n      0x20\n        /* \"#utility.yul\":13837:13840   */\n      dup3\n        /* \"#utility.yul\":13833:13847   */\n      add\n        /* \"#utility.yul\":13818:13847   */\n      swap1\n      pop\n        /* \"#utility.yul\":13684:13853   */\n      swap3\n      swap2\n      pop\n      pop\n      jump\t// out\n        /* \"#utility.yul\":13859:14164   */\n    tag_70:\n        /* \"#utility.yul\":13899:13902   */\n      0x00\n        /* \"#utility.yul\":13918:13938   */\n      tag_320\n        /* \"#utility.yul\":13936:13937   */\n      dup3\n        /* \"#utility.yul\":13918:13938   */\n      tag_276\n      jump\t// in\n    tag_320:\n        /* \"#utility.yul\":13913:13938   */\n      swap2\n      pop\n        /* \"#utility.yul\":13952:13972   */\n      tag_321\n        /* \"#utility.yul\":13970:13971   */\n      dup4\n        /* \"#utility.yul\":13952:13972   */\n      tag_276\n      jump\t// in\n    tag_321:\n        /* \"#utility.yul\":13947:13972   */\n      swap3\n      pop\n        /* \"#utility.yul\":14106:14107   */\n      dup3\n        /* \"#utility.yul\":14038:14104   */\n      0xffffffffffffffffffffffffffffffffffffffffffffffffffffffffffffffff\n        /* \"#utility.yul\":14034:14108   */\n      sub\n        /* \"#utility.yul\":14031:14032   */\n      dup3\n        /* \"#utility.yul\":14028:14109   */\n      gt\n        /* \"#utility.yul\":14025:14132   */\n      iszero\n      tag_322\n      jumpi\n        /* \"#utility.yul\":14112:14130   */\n      tag_323\n      tag_324\n      jump\t// in\n    tag_323:\n        /* \"#utility.yul\":14025:14132   */\n    tag_322:\n        /* \"#utility.yul\":14156:14157   */\n      dup3\n        /* \"#utility.yul\":14153:14154   */\n      dup3\n        /* \"#utility.yul\":14149:14158   */\n      add\n        /* \"#utility.yul\":14142:14158   */\n      swap1\n      pop\n        /* \"#utility.yul\":13859:14164   */\n      swap3\n      swap2\n      pop\n      pop\n      jump\t// out\n        /* \"#utility.yul\":14170:14361   */\n    tag_121:\n        /* \"#utility.yul\":14210:14214   */\n      0x00\n        /* \"#utility.yul\":14230:14250   */\n      tag_326\n        /* \"#utility.yul\":14248:14249   */\n      dup3\n        /* \"#utility.yul\":14230:14250   */\n      tag_276\n      jump\t// in\n    tag_326:\n        /* \"#utility.yul\":14225:14250   */\n      swap2\n      pop\n        /* \"#utility.yul\":14264:14284   */\n      tag_327\n        /* \"#utility.yul\":14282:14283   */\n      dup4\n        /* \"#utility.yul\":14264:14284   */\n      tag_276\n      jump\t// in\n    tag_327:\n        /* \"#utility.yul\":14259:14284   */\n      swap3\n      pop\n        /* \"#utility.yul\":14303:14304   */\n      dup3\n        /* \"#utility.yul\":14300:14301   */\n      dup3\n        /* \"#utility.yul\":14297:14305   */\n      lt\n        /* \"#utility.yul\":14294:14328   */\n      iszero\n      tag_328\n      jumpi\n        /* \"#utility.yul\":14308:14326   */\n      tag_329\n      tag_324\n      jump\t// in\n    tag_329:\n        /* \"#utility.yul\":14294:14328   */\n    tag_328:\n        /* \"#utility.yul\":14353:14354   */\n      dup3\n        /* \"#utility.yul\":14350:14351   */\n      dup3\n        /* \"#utility.yul\":14346:14355   */\n      sub\n        /* \"#utility.yul\":14338:14355   */\n      swap1\n      pop\n        /* \"#utility.yul\":14170:14361   */\n      swap3\n      swap2\n      pop\n      pop\n      jump\t// out\n        /* \"#utility.yul\":14367:14463   */\n    tag_221:\n        /* \"#utility.yul\":14404:14411   */\n      0x00\n        /* \"#utility.yul\":14433:14457   */\n      tag_331\n        /* \"#utility.yul\":14451:14456   */\n      dup3\n        /* \"#utility.yul\":14433:14457   */\n      tag_332\n      jump\t// in\n    tag_331:\n        /* \"#utility.yul\":14422:14457   */\n      swap1\n      pop\n        /* \"#utility.yul\":14367:14463   */\n      swap2\n      swap1\n      pop\n      jump\t// out\n        /* \"#utility.yul\":14469:14559   */\n    tag_225:\n        /* \"#utility.yul\":14503:14510   */\n      0x00\n        /* \"#utility.yul\":14546:14551   */\n      dup2\n        /* \"#utility.yul\":14539:14552   */\n      iszero\n        /* \"#utility.yul\":14532:14553   */\n      iszero\n        /* \"#utility.yul\":14521:14553   */\n      swap1\n      pop\n        /* \"#utility.yul\":14469:14559   */\n      swap2\n      swap1\n      pop\n      jump\t// out\n        /* \"#utility.yul\":14565:14691   */\n    tag_332:\n        /* \"#utility.yul\":14602:14609   */\n      0x00\n        /* \"#utility.yul\":14642:14684   */\n      0xffffffffffffffffffffffffffffffffffffffff\n        /* \"#utility.yul\":14635:14640   */\n      dup3\n        /* \"#utility.yul\":14631:14685   */\n      and\n        /* \"#utility.yul\":14620:14685   */\n      swap1\n      pop\n        /* \"#utility.yul\":14565:14691   */\n      swap2\n      swap1\n      pop\n      jump\t// out\n        /* \"#utility.yul\":14697:14774   */\n    tag_276:\n        /* \"#utility.yul\":14734:14741   */\n      0x00\n        /* \"#utility.yul\":14763:14768   */\n      dup2\n        /* \"#utility.yul\":14752:14768   */\n      swap1\n      pop\n        /* \"#utility.yul\":14697:14774   */\n      swap2\n      swap1\n      pop\n      jump\t// out\n        /* \"#utility.yul\":14780:15061   */\n    tag_308:\n        /* \"#utility.yul\":14863:14890   */\n      tag_337\n        /* \"#utility.yul\":14885:14889   */\n      dup3\n        /* \"#utility.yul\":14863:14890   */\n      tag_338\n      jump\t// in\n    tag_337:\n        /* \"#utility.yul\":14855:14861   */\n      dup2\n        /* \"#utility.yul\":14851:14891   */\n      add\n        /* \"#utility.yul\":14993:14999   */\n      dup2\n        /* \"#utility.yul\":14981:14991   */\n      dup2\n        /* \"#utility.yul\":14978:15000   */\n      lt\n        /* \"#utility.yul\":14957:14975   */\n      0xffffffffffffffff\n        /* \"#utility.yul\":14945:14955   */\n      dup3\n        /* \"#utility.yul\":14942:14976   */\n      gt\n        /* \"#utility.yul\":14939:15001   */\n      or\n        /* \"#utility.yul\":14936:15024   */\n      iszero\n      tag_339\n      jumpi\n        /* \"#utility.yul\":15004:15022   */\n      tag_340\n      tag_313\n      jump\t// in\n    tag_340:\n        /* \"#utility.yul\":14936:15024   */\n    tag_339:\n        /* \"#utility.yul\":15044:15054   */\n      dup1\n        /* \"#utility.yul\":15040:15042   */\n      0x40\n        /* \"#utility.yul\":15033:15055   */\n      mstore\n        /* \"#utility.yul\":14823:15061   */\n      pop\n        /* \"#utility.yul\":14780:15061   */\n      pop\n      pop\n      jump\t// out\n        /* \"#utility.yul\":15067:15247   */\n    tag_324:\n        /* \"#utility.yul\":15115:15192   */\n      0x4e487b7100000000000000000000000000000000000000000000000000000000\n        /* \"#utility.yul\":15112:15113   */\n      0x00\n        /* \"#utility.yul\":15105:15193   */\n      mstore\n        /* \"#utility.yul\":15212:15216   */\n      0x11\n        /* \"#utility.yul\":15209:15210   */\n      0x04\n        /* \"#utility.yul\":15202:15217   */\n      mstore\n        /* \"#utility.yul\":15236:15240   */\n      0x24\n        /* \"#utility.yul\":15233:15234   */\n      0x00\n        /* \"#utility.yul\":15226:15241   */\n      revert\n        /* \"#utility.yul\":15253:15433   */\n    tag_113:\n        /* \"#utility.yul\":15301:15378   */\n      0x4e487b7100000000000000000000000000000000000000000000000000000000\n        /* \"#utility.yul\":15298:15299   */\n      0x00\n        /* \"#utility.yul\":15291:15379   */\n      mstore\n        /* \"#utility.yul\":15398:15402   */\n      0x32\n        /* \"#utility.yul\":15395:15396   */\n      0x04\n        /* \"#utility.yul\":15388:15403   */\n      mstore\n        /* \"#utility.yul\":15422:15426   */\n      0x24\n        /* \"#utility.yul\":15419:15420   */\n      0x00\n        /* \"#utility.yul\":15412:15427   */\n      revert\n        /* \"#utility.yul\":15439:15619   */\n    tag_313:\n        /* \"#utility.yul\":15487:15564   */\n      0x4e487b7100000000000000000000000000000000000000000000000000000000\n        /* \"#utility.yul\":15484:15485   */\n      0x00\n        /* \"#utility.yul\":15477:15565   */\n      mstore\n        /* \"#utility.yul\":15584:15588   */\n      0x41\n        /* \"#utility.yul\":15581:15582   */\n      0x04\n        /* \"#utility.yul\":15574:15589   */\n      mstore\n        /* \"#utility.yul\":15608:15612   */\n      0x24\n        /* \"#utility.yul\":15605:15606   */\n      0x00\n        /* \"#utility.yul\":15598:15613   */\n      revert\n        /* \"#utility.yul\":15625:15742   */\n    tag_189:\n        /* \"#utility.yul\":15734:15735   */\n      0x00\n        /* \"#utility.yul\":15731:15732   */\n      dup1\n        /* \"#utility.yul\":15724:15736   */\n      revert\n        /* \"#utility.yul\":15748:15865   */\n    tag_164:\n        /* \"#utility.yul\":15857:15858   */\n      0x00\n        /* \"#utility.yul\":15854:15855   */\n      dup1\n        /* \"#utility.yul\":15847:15859   */\n      revert\n        /* \"#utility.yul\":15871:15988   */\n    tag_209:\n        /* \"#utility.yul\":15980:15981   */\n      0x00\n        /* \"#utility.yul\":15977:15978   */\n      dup1\n        /* \"#utility.yul\":15970:15982   */\n      revert\n        /* \"#utility.yul\":15994:16111   */\n    tag_202:\n        /* \"#utility.yul\":16103:16104   */\n      0x00\n        /* \"#utility.yul\":16100:16101   */\n      dup1\n        /* \"#utility.yul\":16093:16105   */\n      revert\n        /* \"#utility.yul\":16117:16219   */\n    tag_338:\n        /* \"#utility.yul\":16158:16164   */\n      0x00\n        /* \"#utility.yul\":16209:16211   */\n      0x1f\n        /* \"#utility.yul\":16205:16212   */\n      not\n        /* \"#utility.yul\":16200:16202   */\n      0x1f\n        /* \"#utility.yul\":16193:16198   */\n      dup4\n        /* \"#utility.yul\":16189:16203   */\n      add\n        /* \"#utility.yul\":16185:16213   */\n      and\n        /* \"#utility.yul\":16175:16213   */\n      swap1\n      pop\n        /* \"#utility.yul\":16117:16219   */\n      swap2\n      swap1\n      pop\n      jump\t// out\n        /* \"#utility.yul\":16225:16472   */\n    tag_231:\n        /* \"#utility.yul\":16365:16399   */\n      0x4e756d626572206f6620726563697069656e7473206d75737420626520657175\n        /* \"#utility.yul\":16361:16362   */\n      0x00\n        /* \"#utility.yul\":16353:16359   */\n      dup3\n        /* \"#utility.yul\":16349:16363   */\n      add\n        /* \"#utility.yul\":16342:16400   */\n      mstore\n        /* \"#utility.yul\":16434:16464   */\n      0x616c20746f20746865206e756d626572206f6620616d6f756e74732e00000000\n        /* \"#utility.yul\":16429:16431   */\n      0x20\n        /* \"#utility.yul\":16421:16427   */\n      dup3\n        /* \"#utility.yul\":16417:16432   */\n      add\n        /* \"#utility.yul\":16410:16465   */\n      mstore\n        /* \"#utility.yul\":16225:16472   */\n      pop\n      jump\t// out\n        /* \"#utility.yul\":16478:16703   */\n    tag_236:\n        /* \"#utility.yul\":16618:16652   */\n      0x4f776e61626c653a206e6577206f776e657220697320746865207a65726f2061\n        /* \"#utility.yul\":16614:16615   */\n      0x00\n        /* \"#utility.yul\":16606:16612   */\n      dup3\n        /* \"#utility.yul\":16602:16616   */\n      add\n        /* \"#utility.yul\":16595:16653   */\n      mstore\n        /* \"#utility.yul\":16687:16695   */\n      0x6464726573730000000000000000000000000000000000000000000000000000\n        /* \"#utility.yul\":16682:16684   */\n      0x20\n        /* \"#utility.yul\":16674:16680   */\n      dup3\n        /* \"#utility.yul\":16670:16685   */\n      add\n        /* \"#utility.yul\":16663:16696   */\n      mstore\n        /* \"#utility.yul\":16478:16703   */\n      pop\n      jump\t// out\n        /* \"#utility.yul\":16709:16891   */\n    tag_241:\n        /* \"#utility.yul\":16849:16883   */\n      0x4f776e61626c653a2063616c6c6572206973206e6f7420746865206f776e6572\n        /* \"#utility.yul\":16845:16846   */\n      0x00\n        /* \"#utility.yul\":16837:16843   */\n      dup3\n        /* \"#utility.yul\":16833:16847   */\n      add\n        /* \"#utility.yul\":16826:16884   */\n      mstore\n        /* \"#utility.yul\":16709:16891   */\n      pop\n      jump\t// out\n        /* \"#utility.yul\":16897:17119   */\n    tag_246:\n        /* \"#utility.yul\":17037:17071   */\n      0x4164647265737320496e73756666696369656e74206465706f73697420616d6f\n        /* \"#utility.yul\":17033:17034   */\n      0x00\n        /* \"#utility.yul\":17025:17031   */\n      dup3\n        /* \"#utility.yul\":17021:17035   */\n      add\n        /* \"#utility.yul\":17014:17072   */\n      mstore\n        /* \"#utility.yul\":17106:17111   */\n      0x756e740000000000000000000000000000000000000000000000000000000000\n        /* \"#utility.yul\":17101:17103   */\n      0x20\n        /* \"#utility.yul\":17093:17099   */\n      dup3\n        /* \"#utility.yul\":17089:17104   */\n      add\n        /* \"#utility.yul\":17082:17112   */\n      mstore\n        /* \"#utility.yul\":16897:17119   */\n      pop\n      jump\t// out\n        /* \"#utility.yul\":17125:17239   */\n    tag_252:\n      pop\n      jump\t// out\n        /* \"#utility.yul\":17245:17411   */\n    tag_257:\n        /* \"#utility.yul\":17385:17403   */\n      0x7472616e73666572207375636365737300000000000000000000000000000000\n        /* \"#utility.yul\":17381:17382   */\n      0x00\n        /* \"#utility.yul\":17373:17379   */\n      dup3\n        /* \"#utility.yul\":17369:17383   */\n      add\n        /* \"#utility.yul\":17362:17404   */\n      mstore\n        /* \"#utility.yul\":17245:17411   */\n      pop\n      jump\t// out\n        /* \"#utility.yul\":17417:17585   */\n    tag_262:\n        /* \"#utility.yul\":17557:17577   */\n      0x4e6f74206465706f73697420616d6f756e740000000000000000000000000000\n        /* \"#utility.yul\":17553:17554   */\n      0x00\n        /* \"#utility.yul\":17545:17551   */\n      dup3\n        /* \"#utility.yul\":17541:17555   */\n      add\n        /* \"#utility.yul\":17534:17578   */\n      mstore\n        /* \"#utility.yul\":17417:17585   */\n      pop\n      jump\t// out\n        /* \"#utility.yul\":17591:17772   */\n    tag_267:\n        /* \"#utility.yul\":17731:17764   */\n      0x5265656e7472616e637947756172643a207265656e7472616e742063616c6c00\n        /* \"#utility.yul\":17727:17728   */\n      0x00\n        /* \"#utility.yul\":17719:17725   */\n      dup3\n        /* \"#utility.yul\":17715:17729   */\n      add\n        /* \"#utility.yul\":17708:17765   */\n      mstore\n        /* \"#utility.yul\":17591:17772   */\n      pop\n      jump\t// out\n        /* \"#utility.yul\":17778:17943   */\n    tag_272:\n        /* \"#utility.yul\":17918:17935   */\n      0x7769746864726177206661696c65640000000000000000000000000000000000\n        /* \"#utility.yul\":17914:17915   */\n      0x00\n        /* \"#utility.yul\":17906:17912   */\n      dup3\n        /* \"#utility.yul\":17902:17916   */\n      add\n        /* \"#utility.yul\":17895:17936   */\n      mstore\n        /* \"#utility.yul\":17778:17943   */\n      pop\n      jump\t// out\n        /* \"#utility.yul\":17949:18071   */\n    tag_184:\n        /* \"#utility.yul\":18022:18046   */\n      tag_359\n        /* \"#utility.yul\":18040:18045   */\n      dup2\n        /* \"#utility.yul\":18022:18046   */\n      tag_221\n      jump\t// in\n    tag_359:\n        /* \"#utility.yul\":18015:18020   */\n      dup2\n        /* \"#utility.yul\":18012:18047   */\n      eq\n        /* \"#utility.yul\":18002:18065   */\n      tag_360\n      jumpi\n        /* \"#utility.yul\":18061:18062   */\n      0x00\n        /* \"#utility.yul\":18058:18059   */\n      dup1\n        /* \"#utility.yul\":18051:18063   */\n      revert\n        /* \"#utility.yul\":18002:18065   */\n    tag_360:\n        /* \"#utility.yul\":17949:18071   */\n      pop\n      jump\t// out\n        /* \"#utility.yul\":18077:18199   */\n    tag_198:\n        /* \"#utility.yul\":18150:18174   */\n      tag_362\n        /* \"#utility.yul\":18168:18173   */\n      dup2\n        /* \"#utility.yul\":18150:18174   */\n      tag_276\n      jump\t// in\n    tag_362:\n        /* \"#utility.yul\":18143:18148   */\n      dup2\n        /* \"#utility.yul\":18140:18175   */\n      eq\n        /* \"#utility.yul\":18130:18193   */\n      tag_363\n      jumpi\n        /* \"#utility.yul\":18189:18190   */\n      0x00\n        /* \"#utility.yul\":18186:18187   */\n      dup1\n        /* \"#utility.yul\":18179:18191   */\n      revert\n        /* \"#utility.yul\":18130:18193   */\n    tag_363:\n        /* \"#utility.yul\":18077:18199   */\n      pop\n      jump\t// out\n\n    auxdata: 0xa26469706673582212208c971654d7fa3d0b1481f584a5247b89875fa735eb8f33ed1f03423a5145eb7d64736f6c63430008070033\n}\n",
				"bytecode": {
					"linkReferences": {},
					"object": "608060405234801561001057600080fd5b5061002d61002261003960201b60201c565b61004160201b60201c565b60018081905550610105565b600033905090565b60008060009054906101000a900473ffffffffffffffffffffffffffffffffffffffff169050816000806101000a81548173ffffffffffffffffffffffffffffffffffffffff021916908373ffffffffffffffffffffffffffffffffffffffff1602179055508173ffffffffffffffffffffffffffffffffffffffff168173ffffffffffffffffffffffffffffffffffffffff167f8be0079c531659141344cd1fd0a4f28419497f9722a3daafe3b4186f6b6457e060405160405180910390a35050565b6112f8806101146000396000f3fe60806040526004361061007f5760003560e01c8063b0d253ff1161004e578063b0d253ff14610146578063d0e30db014610183578063f2fde38b146101a2578063ffc3a769146101cb57610090565b80632e1a7d4d1461009c578063715018a6146100d9578063722713f7146100f05780638da5cb5b1461011b57610090565b366100905761008c610208565b5050005b610098610208565b5050005b3480156100a857600080fd5b506100c360048036038101906100be9190610b65565b6102f1565b6040516100d09190610d53565b60405180910390f35b3480156100e557600080fd5b506100ee6103ea565b005b3480156100fc57600080fd5b506101056103fe565b6040516101129190610e6e565b60405180910390f35b34801561012757600080fd5b50610130610406565b60405161013d9190610d0f565b60405180910390f35b34801561015257600080fd5b5061016d60048036038101906101689190610ac0565b61042f565b60405161017a9190610e6e565b60405180910390f35b61018b610208565b604051610199929190610d2a565b60405180910390f35b3480156101ae57600080fd5b506101c960048036038101906101c49190610ac0565b610447565b005b3480156101d757600080fd5b506101f260048036038101906101ed9190610aed565b6104cb565b6040516101ff9190610d53565b60405180910390f35b60008061021361061d565b600061022561022061066d565b610675565b9050600081141561028057346002600061023d61066d565b73ffffffffffffffffffffffffffffffffffffffff1673ffffffffffffffffffffffffffffffffffffffff168152602001908152602001600020819055506102d7565b803461028c9190610f22565b6002600061029861066d565b73ffffffffffffffffffffffffffffffffffffffff1673ffffffffffffffffffffffffffffffffffffffff168152602001908152602001600020819055505b6102df61066d565b3492509250506102ed6106be565b9091565b60006102fb6106c7565b60003373ffffffffffffffffffffffffffffffffffffffff168360405161032190610cfa565b60006040518083038185875af1925050503d806000811461035e576040519150601f19603f3d011682016040523d82523d6000602084013e610363565b606091505b50509050806103a7576040517f08c379a000000000000000000000000000000000000000000000000000000000815260040161039e90610e4e565b60405180910390fd5b7f884edad9ce6fa2440d8a54cc123490eb96d2768479d49ff9c7366125a942436430846040516103d8929190610d2a565b60405180910390a16001915050919050565b6103f26106c7565b6103fc6000610745565b565b600047905090565b60008060009054906101000a900473ffffffffffffffffffffffffffffffffffffffff16905090565b60026020528060005260406000206000915090505481565b61044f6106c7565b600073ffffffffffffffffffffffffffffffffffffffff168173ffffffffffffffffffffffffffffffffffffffff1614156104bf576040517f08c379a00000000000000000000000000000000000000000000000000000000081526004016104b690610d8e565b60405180910390fd5b6104c881610745565b50565b6000806104de6104d961066d565b610675565b90506000811415610524576040517f08c379a000000000000000000000000000000000000000000000000000000000815260040161051b90610e0e565b60405180910390fd5b6000808451905060005b8181101561056b5785818151811061054957610548611054565b5b60200260200101518361055c9190610f22565b9250808060010191505061052e565b50828211156105af576040517f08c379a00000000000000000000000000000000000000000000000000000000081526004016105a690610dce565b60405180910390fd5b6105b98686610809565b5081836105c69190610f78565b600260006105d261066d565b73ffffffffffffffffffffffffffffffffffffffff1673ffffffffffffffffffffffffffffffffffffffff168152602001908152602001600020819055506001935050505092915050565b60026001541415610663576040517f08c379a000000000000000000000000000000000000000000000000000000000815260040161065a90610e2e565b60405180910390fd5b6002600181905550565b600033905090565b6000600260008373ffffffffffffffffffffffffffffffffffffffff1673ffffffffffffffffffffffffffffffffffffffff168152602001908152602001600020549050919050565b60018081905550565b6106cf61066d565b73ffffffffffffffffffffffffffffffffffffffff166106ed610406565b73ffffffffffffffffffffffffffffffffffffffff1614610743576040517f08c379a000000000000000000000000000000000000000000000000000000000815260040161073a90610dae565b60405180910390fd5b565b60008060009054906101000a900473ffffffffffffffffffffffffffffffffffffffff169050816000806101000a81548173ffffffffffffffffffffffffffffffffffffffff021916908373ffffffffffffffffffffffffffffffffffffffff1602179055508173ffffffffffffffffffffffffffffffffffffffff168173ffffffffffffffffffffffffffffffffffffffff167f8be0079c531659141344cd1fd0a4f28419497f9722a3daafe3b4186f6b6457e060405160405180910390a35050565b6000815183511461084f576040517f08c379a000000000000000000000000000000000000000000000000000000000815260040161084690610d6e565b60405180910390fd5b60008351905060005b8181101561094e57600085828151811061087557610874611054565b5b602002602001015173ffffffffffffffffffffffffffffffffffffffff168583815181106108a6576108a5611054565b5b60200260200101516040516108ba90610cfa565b60006040518083038185875af1925050503d80600081146108f7576040519150601f19603f3d011682016040523d82523d6000602084013e6108fc565b606091505b5050905080610940576040517f08c379a000000000000000000000000000000000000000000000000000000000815260040161093790610dee565b60405180910390fd5b818060010192505050610858565b50600191505092915050565b600061096d61096884610eae565b610e89565b905080838252602082019050828560208602820111156109905761098f6110b7565b5b60005b858110156109c057816109a68882610a3a565b845260208401935060208301925050600181019050610993565b5050509392505050565b60006109dd6109d884610eda565b610e89565b90508083825260208201905082856020860282011115610a00576109ff6110b7565b5b60005b85811015610a305781610a168882610aab565b845260208401935060208301925050600181019050610a03565b5050509392505050565b600081359050610a4981611294565b92915050565b600082601f830112610a6457610a636110b2565b5b8135610a7484826020860161095a565b91505092915050565b600082601f830112610a9257610a916110b2565b5b8135610aa28482602086016109ca565b91505092915050565b600081359050610aba816112ab565b92915050565b600060208284031215610ad657610ad56110c1565b5b6000610ae484828501610a3a565b91505092915050565b60008060408385031215610b0457610b036110c1565b5b600083013567ffffffffffffffff811115610b2257610b216110bc565b5b610b2e85828601610a4f565b925050602083013567ffffffffffffffff811115610b4f57610b4e6110bc565b5b610b5b85828601610a7d565b9150509250929050565b600060208284031215610b7b57610b7a6110c1565b5b6000610b8984828501610aab565b91505092915050565b610b9b81610fac565b82525050565b610baa81610fbe565b82525050565b6000610bbd603c83610f11565b9150610bc8826110d7565b604082019050919050565b6000610be0602683610f11565b9150610beb82611126565b604082019050919050565b6000610c03602083610f11565b9150610c0e82611175565b602082019050919050565b6000610c26602383610f11565b9150610c318261119e565b604082019050919050565b6000610c49600083610f06565b9150610c54826111ed565b600082019050919050565b6000610c6c601083610f11565b9150610c77826111f0565b602082019050919050565b6000610c8f601283610f11565b9150610c9a82611219565b602082019050919050565b6000610cb2601f83610f11565b9150610cbd82611242565b602082019050919050565b6000610cd5600f83610f11565b9150610ce08261126b565b602082019050919050565b610cf481610fea565b82525050565b6000610d0582610c3c565b9150819050919050565b6000602082019050610d246000830184610b92565b92915050565b6000604082019050610d3f6000830185610b92565b610d4c6020830184610ceb565b9392505050565b6000602082019050610d686000830184610ba1565b92915050565b60006020820190508181036000830152610d8781610bb0565b9050919050565b60006020820190508181036000830152610da781610bd3565b9050919050565b60006020820190508181036000830152610dc781610bf6565b9050919050565b60006020820190508181036000830152610de781610c19565b9050919050565b60006020820190508181036000830152610e0781610c5f565b9050919050565b60006020820190508181036000830152610e2781610c82565b9050919050565b60006020820190508181036000830152610e4781610ca5565b9050919050565b60006020820190508181036000830152610e6781610cc8565b9050919050565b6000602082019050610e836000830184610ceb565b92915050565b6000610e93610ea4565b9050610e9f8282610ff4565b919050565b6000604051905090565b600067ffffffffffffffff821115610ec957610ec8611083565b5b602082029050602081019050919050565b600067ffffffffffffffff821115610ef557610ef4611083565b5b602082029050602081019050919050565b600081905092915050565b600082825260208201905092915050565b6000610f2d82610fea565b9150610f3883610fea565b9250827fffffffffffffffffffffffffffffffffffffffffffffffffffffffffffffffff03821115610f6d57610f6c611025565b5b828201905092915050565b6000610f8382610fea565b9150610f8e83610fea565b925082821015610fa157610fa0611025565b5b828203905092915050565b6000610fb782610fca565b9050919050565b60008115159050919050565b600073ffffffffffffffffffffffffffffffffffffffff82169050919050565b6000819050919050565b610ffd826110c6565b810181811067ffffffffffffffff8211171561101c5761101b611083565b5b80604052505050565b7f4e487b7100000000000000000000000000000000000000000000000000000000600052601160045260246000fd5b7f4e487b7100000000000000000000000000000000000000000000000000000000600052603260045260246000fd5b7f4e487b7100000000000000000000000000000000000000000000000000000000600052604160045260246000fd5b600080fd5b600080fd5b600080fd5b600080fd5b6000601f19601f8301169050919050565b7f4e756d626572206f6620726563697069656e7473206d7573742062652065717560008201527f616c20746f20746865206e756d626572206f6620616d6f756e74732e00000000602082015250565b7f4f776e61626c653a206e6577206f776e657220697320746865207a65726f206160008201527f6464726573730000000000000000000000000000000000000000000000000000602082015250565b7f4f776e61626c653a2063616c6c6572206973206e6f7420746865206f776e6572600082015250565b7f4164647265737320496e73756666696369656e74206465706f73697420616d6f60008201527f756e740000000000000000000000000000000000000000000000000000000000602082015250565b50565b7f7472616e73666572207375636365737300000000000000000000000000000000600082015250565b7f4e6f74206465706f73697420616d6f756e740000000000000000000000000000600082015250565b7f5265656e7472616e637947756172643a207265656e7472616e742063616c6c00600082015250565b7f7769746864726177206661696c65640000000000000000000000000000000000600082015250565b61129d81610fac565b81146112a857600080fd5b50565b6112b481610fea565b81146112bf57600080fd5b5056fea26469706673582212208c971654d7fa3d0b1481f584a5247b89875fa735eb8f33ed1f03423a5145eb7d64736f6c63430008070033",
					"opcodes": "PUSH1 0x80 PUSH1 0x40 MSTORE CALLVALUE DUP1 ISZERO PUSH2 0x10 JUMPI PUSH1 0x0 DUP1 REVERT JUMPDEST POP PUSH2 0x2D PUSH2 0x22 PUSH2 0x39 PUSH1 0x20 SHL PUSH1 0x20 SHR JUMP JUMPDEST PUSH2 0x41 PUSH1 0x20 SHL PUSH1 0x20 SHR JUMP JUMPDEST PUSH1 0x1 DUP1 DUP2 SWAP1 SSTORE POP PUSH2 0x105 JUMP JUMPDEST PUSH1 0x0 CALLER SWAP1 POP SWAP1 JUMP JUMPDEST PUSH1 0x0 DUP1 PUSH1 0x0 SWAP1 SLOAD SWAP1 PUSH2 0x100 EXP SWAP1 DIV PUSH20 0xFFFFFFFFFFFFFFFFFFFFFFFFFFFFFFFFFFFFFFFF AND SWAP1 POP DUP2 PUSH1 0x0 DUP1 PUSH2 0x100 EXP DUP2 SLOAD DUP2 PUSH20 0xFFFFFFFFFFFFFFFFFFFFFFFFFFFFFFFFFFFFFFFF MUL NOT AND SWAP1 DUP4 PUSH20 0xFFFFFFFFFFFFFFFFFFFFFFFFFFFFFFFFFFFFFFFF AND MUL OR SWAP1 SSTORE POP DUP2 PUSH20 0xFFFFFFFFFFFFFFFFFFFFFFFFFFFFFFFFFFFFFFFF AND DUP2 PUSH20 0xFFFFFFFFFFFFFFFFFFFFFFFFFFFFFFFFFFFFFFFF AND PUSH32 0x8BE0079C531659141344CD1FD0A4F28419497F9722A3DAAFE3B4186F6B6457E0 PUSH1 0x40 MLOAD PUSH1 0x40 MLOAD DUP1 SWAP2 SUB SWAP1 LOG3 POP POP JUMP JUMPDEST PUSH2 0x12F8 DUP1 PUSH2 0x114 PUSH1 0x0 CODECOPY PUSH1 0x0 RETURN INVALID PUSH1 0x80 PUSH1 0x40 MSTORE PUSH1 0x4 CALLDATASIZE LT PUSH2 0x7F JUMPI PUSH1 0x0 CALLDATALOAD PUSH1 0xE0 SHR DUP1 PUSH4 0xB0D253FF GT PUSH2 0x4E JUMPI DUP1 PUSH4 0xB0D253FF EQ PUSH2 0x146 JUMPI DUP1 PUSH4 0xD0E30DB0 EQ PUSH2 0x183 JUMPI DUP1 PUSH4 0xF2FDE38B EQ PUSH2 0x1A2 JUMPI DUP1 PUSH4 0xFFC3A769 EQ PUSH2 0x1CB JUMPI PUSH2 0x90 JUMP JUMPDEST DUP1 PUSH4 0x2E1A7D4D EQ PUSH2 0x9C JUMPI DUP1 PUSH4 0x715018A6 EQ PUSH2 0xD9 JUMPI DUP1 PUSH4 0x722713F7 EQ PUSH2 0xF0 JUMPI DUP1 PUSH4 0x8DA5CB5B EQ PUSH2 0x11B JUMPI PUSH2 0x90 JUMP JUMPDEST CALLDATASIZE PUSH2 0x90 JUMPI PUSH2 0x8C PUSH2 0x208 JUMP JUMPDEST POP POP STOP JUMPDEST PUSH2 0x98 PUSH2 0x208 JUMP JUMPDEST POP POP STOP JUMPDEST CALLVALUE DUP1 ISZERO PUSH2 0xA8 JUMPI PUSH1 0x0 DUP1 REVERT JUMPDEST POP PUSH2 0xC3 PUSH1 0x4 DUP1 CALLDATASIZE SUB DUP2 ADD SWAP1 PUSH2 0xBE SWAP2 SWAP1 PUSH2 0xB65 JUMP JUMPDEST PUSH2 0x2F1 JUMP JUMPDEST PUSH1 0x40 MLOAD PUSH2 0xD0 SWAP2 SWAP1 PUSH2 0xD53 JUMP JUMPDEST PUSH1 0x40 MLOAD DUP1 SWAP2 SUB SWAP1 RETURN JUMPDEST CALLVALUE DUP1 ISZERO PUSH2 0xE5 JUMPI PUSH1 0x0 DUP1 REVERT JUMPDEST POP PUSH2 0xEE PUSH2 0x3EA JUMP JUMPDEST STOP JUMPDEST CALLVALUE DUP1 ISZERO PUSH2 0xFC JUMPI PUSH1 0x0 DUP1 REVERT JUMPDEST POP PUSH2 0x105 PUSH2 0x3FE JUMP JUMPDEST PUSH1 0x40 MLOAD PUSH2 0x112 SWAP2 SWAP1 PUSH2 0xE6E JUMP JUMPDEST PUSH1 0x40 MLOAD DUP1 SWAP2 SUB SWAP1 RETURN JUMPDEST CALLVALUE DUP1 ISZERO PUSH2 0x127 JUMPI PUSH1 0x0 DUP1 REVERT JUMPDEST POP PUSH2 0x130 PUSH2 0x406 JUMP JUMPDEST PUSH1 0x40 MLOAD PUSH2 0x13D SWAP2 SWAP1 PUSH2 0xD0F JUMP JUMPDEST PUSH1 0x40 MLOAD DUP1 SWAP2 SUB SWAP1 RETURN JUMPDEST CALLVALUE DUP1 ISZERO PUSH2 0x152 JUMPI PUSH1 0x0 DUP1 REVERT JUMPDEST POP PUSH2 0x16D PUSH1 0x4 DUP1 CALLDATASIZE SUB DUP2 ADD SWAP1 PUSH2 0x168 SWAP2 SWAP1 PUSH2 0xAC0 JUMP JUMPDEST PUSH2 0x42F JUMP JUMPDEST PUSH1 0x40 MLOAD PUSH2 0x17A SWAP2 SWAP1 PUSH2 0xE6E JUMP JUMPDEST PUSH1 0x40 MLOAD DUP1 SWAP2 SUB SWAP1 RETURN JUMPDEST PUSH2 0x18B PUSH2 0x208 JUMP JUMPDEST PUSH1 0x40 MLOAD PUSH2 0x199 SWAP3 SWAP2 SWAP1 PUSH2 0xD2A JUMP JUMPDEST PUSH1 0x40 MLOAD DUP1 SWAP2 SUB SWAP1 RETURN JUMPDEST CALLVALUE DUP1 ISZERO PUSH2 0x1AE JUMPI PUSH1 0x0 DUP1 REVERT JUMPDEST POP PUSH2 0x1C9 PUSH1 0x4 DUP1 CALLDATASIZE SUB DUP2 ADD SWAP1 PUSH2 0x1C4 SWAP2 SWAP1 PUSH2 0xAC0 JUMP JUMPDEST PUSH2 0x447 JUMP JUMPDEST STOP JUMPDEST CALLVALUE DUP1 ISZERO PUSH2 0x1D7 JUMPI PUSH1 0x0 DUP1 REVERT JUMPDEST POP PUSH2 0x1F2 PUSH1 0x4 DUP1 CALLDATASIZE SUB DUP2 ADD SWAP1 PUSH2 0x1ED SWAP2 SWAP1 PUSH2 0xAED JUMP JUMPDEST PUSH2 0x4CB JUMP JUMPDEST PUSH1 0x40 MLOAD PUSH2 0x1FF SWAP2 SWAP1 PUSH2 0xD53 JUMP JUMPDEST PUSH1 0x40 MLOAD DUP1 SWAP2 SUB SWAP1 RETURN JUMPDEST PUSH1 0x0 DUP1 PUSH2 0x213 PUSH2 0x61D JUMP JUMPDEST PUSH1 0x0 PUSH2 0x225 PUSH2 0x220 PUSH2 0x66D JUMP JUMPDEST PUSH2 0x675 JUMP JUMPDEST SWAP1 POP PUSH1 0x0 DUP2 EQ ISZERO PUSH2 0x280 JUMPI CALLVALUE PUSH1 0x2 PUSH1 0x0 PUSH2 0x23D PUSH2 0x66D JUMP JUMPDEST PUSH20 0xFFFFFFFFFFFFFFFFFFFFFFFFFFFFFFFFFFFFFFFF AND PUSH20 0xFFFFFFFFFFFFFFFFFFFFFFFFFFFFFFFFFFFFFFFF AND DUP2 MSTORE PUSH1 0x20 ADD SWAP1 DUP2 MSTORE PUSH1 0x20 ADD PUSH1 0x0 KECCAK256 DUP2 SWAP1 SSTORE POP PUSH2 0x2D7 JUMP JUMPDEST DUP1 CALLVALUE PUSH2 0x28C SWAP2 SWAP1 PUSH2 0xF22 JUMP JUMPDEST PUSH1 0x2 PUSH1 0x0 PUSH2 0x298 PUSH2 0x66D JUMP JUMPDEST PUSH20 0xFFFFFFFFFFFFFFFFFFFFFFFFFFFFFFFFFFFFFFFF AND PUSH20 0xFFFFFFFFFFFFFFFFFFFFFFFFFFFFFFFFFFFFFFFF AND DUP2 MSTORE PUSH1 0x20 ADD SWAP1 DUP2 MSTORE PUSH1 0x20 ADD PUSH1 0x0 KECCAK256 DUP2 SWAP1 SSTORE POP JUMPDEST PUSH2 0x2DF PUSH2 0x66D JUMP JUMPDEST CALLVALUE SWAP3 POP SWAP3 POP POP PUSH2 0x2ED PUSH2 0x6BE JUMP JUMPDEST SWAP1 SWAP2 JUMP JUMPDEST PUSH1 0x0 PUSH2 0x2FB PUSH2 0x6C7 JUMP JUMPDEST PUSH1 0x0 CALLER PUSH20 0xFFFFFFFFFFFFFFFFFFFFFFFFFFFFFFFFFFFFFFFF AND DUP4 PUSH1 0x40 MLOAD PUSH2 0x321 SWAP1 PUSH2 0xCFA JUMP JUMPDEST PUSH1 0x0 PUSH1 0x40 MLOAD DUP1 DUP4 SUB DUP2 DUP6 DUP8 GAS CALL SWAP3 POP POP POP RETURNDATASIZE DUP1 PUSH1 0x0 DUP2 EQ PUSH2 0x35E JUMPI PUSH1 0x40 MLOAD SWAP2 POP PUSH1 0x1F NOT PUSH1 0x3F RETURNDATASIZE ADD AND DUP3 ADD PUSH1 0x40 MSTORE RETURNDATASIZE DUP3 MSTORE RETURNDATASIZE PUSH1 0x0 PUSH1 0x20 DUP5 ADD RETURNDATACOPY PUSH2 0x363 JUMP JUMPDEST PUSH1 0x60 SWAP2 POP JUMPDEST POP POP SWAP1 POP DUP1 PUSH2 0x3A7 JUMPI PUSH1 0x40 MLOAD PUSH32 0x8C379A000000000000000000000000000000000000000000000000000000000 DUP2 MSTORE PUSH1 0x4 ADD PUSH2 0x39E SWAP1 PUSH2 0xE4E JUMP JUMPDEST PUSH1 0x40 MLOAD DUP1 SWAP2 SUB SWAP1 REVERT JUMPDEST PUSH32 0x884EDAD9CE6FA2440D8A54CC123490EB96D2768479D49FF9C7366125A9424364 ADDRESS DUP5 PUSH1 0x40 MLOAD PUSH2 0x3D8 SWAP3 SWAP2 SWAP1 PUSH2 0xD2A JUMP JUMPDEST PUSH1 0x40 MLOAD DUP1 SWAP2 SUB SWAP1 LOG1 PUSH1 0x1 SWAP2 POP POP SWAP2 SWAP1 POP JUMP JUMPDEST PUSH2 0x3F2 PUSH2 0x6C7 JUMP JUMPDEST PUSH2 0x3FC PUSH1 0x0 PUSH2 0x745 JUMP JUMPDEST JUMP JUMPDEST PUSH1 0x0 SELFBALANCE SWAP1 POP SWAP1 JUMP JUMPDEST PUSH1 0x0 DUP1 PUSH1 0x0 SWAP1 SLOAD SWAP1 PUSH2 0x100 EXP SWAP1 DIV PUSH20 0xFFFFFFFFFFFFFFFFFFFFFFFFFFFFFFFFFFFFFFFF AND SWAP1 POP SWAP1 JUMP JUMPDEST PUSH1 0x2 PUSH1 0x20 MSTORE DUP1 PUSH1 0x0 MSTORE PUSH1 0x40 PUSH1 0x0 KECCAK256 PUSH1 0x0 SWAP2 POP SWAP1 POP SLOAD DUP2 JUMP JUMPDEST PUSH2 0x44F PUSH2 0x6C7 JUMP JUMPDEST PUSH1 0x0 PUSH20 0xFFFFFFFFFFFFFFFFFFFFFFFFFFFFFFFFFFFFFFFF AND DUP2 PUSH20 0xFFFFFFFFFFFFFFFFFFFFFFFFFFFFFFFFFFFFFFFF AND EQ ISZERO PUSH2 0x4BF JUMPI PUSH1 0x40 MLOAD PUSH32 0x8C379A000000000000000000000000000000000000000000000000000000000 DUP2 MSTORE PUSH1 0x4 ADD PUSH2 0x4B6 SWAP1 PUSH2 0xD8E JUMP JUMPDEST PUSH1 0x40 MLOAD DUP1 SWAP2 SUB SWAP1 REVERT JUMPDEST PUSH2 0x4C8 DUP2 PUSH2 0x745 JUMP JUMPDEST POP JUMP JUMPDEST PUSH1 0x0 DUP1 PUSH2 0x4DE PUSH2 0x4D9 PUSH2 0x66D JUMP JUMPDEST PUSH2 0x675 JUMP JUMPDEST SWAP1 POP PUSH1 0x0 DUP2 EQ ISZERO PUSH2 0x524 JUMPI PUSH1 0x40 MLOAD PUSH32 0x8C379A000000000000000000000000000000000000000000000000000000000 DUP2 MSTORE PUSH1 0x4 ADD PUSH2 0x51B SWAP1 PUSH2 0xE0E JUMP JUMPDEST PUSH1 0x40 MLOAD DUP1 SWAP2 SUB SWAP1 REVERT JUMPDEST PUSH1 0x0 DUP1 DUP5 MLOAD SWAP1 POP PUSH1 0x0 JUMPDEST DUP2 DUP2 LT ISZERO PUSH2 0x56B JUMPI DUP6 DUP2 DUP2 MLOAD DUP2 LT PUSH2 0x549 JUMPI PUSH2 0x548 PUSH2 0x1054 JUMP JUMPDEST JUMPDEST PUSH1 0x20 MUL PUSH1 0x20 ADD ADD MLOAD DUP4 PUSH2 0x55C SWAP2 SWAP1 PUSH2 0xF22 JUMP JUMPDEST SWAP3 POP DUP1 DUP1 PUSH1 0x1 ADD SWAP2 POP POP PUSH2 0x52E JUMP JUMPDEST POP DUP3 DUP3 GT ISZERO PUSH2 0x5AF JUMPI PUSH1 0x40 MLOAD PUSH32 0x8C379A000000000000000000000000000000000000000000000000000000000 DUP2 MSTORE PUSH1 0x4 ADD PUSH2 0x5A6 SWAP1 PUSH2 0xDCE JUMP JUMPDEST PUSH1 0x40 MLOAD DUP1 SWAP2 SUB SWAP1 REVERT JUMPDEST PUSH2 0x5B9 DUP7 DUP7 PUSH2 0x809 JUMP JUMPDEST POP DUP2 DUP4 PUSH2 0x5C6 SWAP2 SWAP1 PUSH2 0xF78 JUMP JUMPDEST PUSH1 0x2 PUSH1 0x0 PUSH2 0x5D2 PUSH2 0x66D JUMP JUMPDEST PUSH20 0xFFFFFFFFFFFFFFFFFFFFFFFFFFFFFFFFFFFFFFFF AND PUSH20 0xFFFFFFFFFFFFFFFFFFFFFFFFFFFFFFFFFFFFFFFF AND DUP2 MSTORE PUSH1 0x20 ADD SWAP1 DUP2 MSTORE PUSH1 0x20 ADD PUSH1 0x0 KECCAK256 DUP2 SWAP1 SSTORE POP PUSH1 0x1 SWAP4 POP POP POP POP SWAP3 SWAP2 POP POP JUMP JUMPDEST PUSH1 0x2 PUSH1 0x1 SLOAD EQ ISZERO PUSH2 0x663 JUMPI PUSH1 0x40 MLOAD PUSH32 0x8C379A000000000000000000000000000000000000000000000000000000000 DUP2 MSTORE PUSH1 0x4 ADD PUSH2 0x65A SWAP1 PUSH2 0xE2E JUMP JUMPDEST PUSH1 0x40 MLOAD DUP1 SWAP2 SUB SWAP1 REVERT JUMPDEST PUSH1 0x2 PUSH1 0x1 DUP2 SWAP1 SSTORE POP JUMP JUMPDEST PUSH1 0x0 CALLER SWAP1 POP SWAP1 JUMP JUMPDEST PUSH1 0x0 PUSH1 0x2 PUSH1 0x0 DUP4 PUSH20 0xFFFFFFFFFFFFFFFFFFFFFFFFFFFFFFFFFFFFFFFF AND PUSH20 0xFFFFFFFFFFFFFFFFFFFFFFFFFFFFFFFFFFFFFFFF AND DUP2 MSTORE PUSH1 0x20 ADD SWAP1 DUP2 MSTORE PUSH1 0x20 ADD PUSH1 0x0 KECCAK256 SLOAD SWAP1 POP SWAP2 SWAP1 POP JUMP JUMPDEST PUSH1 0x1 DUP1 DUP2 SWAP1 SSTORE POP JUMP JUMPDEST PUSH2 0x6CF PUSH2 0x66D JUMP JUMPDEST PUSH20 0xFFFFFFFFFFFFFFFFFFFFFFFFFFFFFFFFFFFFFFFF AND PUSH2 0x6ED PUSH2 0x406 JUMP JUMPDEST PUSH20 0xFFFFFFFFFFFFFFFFFFFFFFFFFFFFFFFFFFFFFFFF AND EQ PUSH2 0x743 JUMPI PUSH1 0x40 MLOAD PUSH32 0x8C379A000000000000000000000000000000000000000000000000000000000 DUP2 MSTORE PUSH1 0x4 ADD PUSH2 0x73A SWAP1 PUSH2 0xDAE JUMP JUMPDEST PUSH1 0x40 MLOAD DUP1 SWAP2 SUB SWAP1 REVERT JUMPDEST JUMP JUMPDEST PUSH1 0x0 DUP1 PUSH1 0x0 SWAP1 SLOAD SWAP1 PUSH2 0x100 EXP SWAP1 DIV PUSH20 0xFFFFFFFFFFFFFFFFFFFFFFFFFFFFFFFFFFFFFFFF AND SWAP1 POP DUP2 PUSH1 0x0 DUP1 PUSH2 0x100 EXP DUP2 SLOAD DUP2 PUSH20 0xFFFFFFFFFFFFFFFFFFFFFFFFFFFFFFFFFFFFFFFF MUL NOT AND SWAP1 DUP4 PUSH20 0xFFFFFFFFFFFFFFFFFFFFFFFFFFFFFFFFFFFFFFFF AND MUL OR SWAP1 SSTORE POP DUP2 PUSH20 0xFFFFFFFFFFFFFFFFFFFFFFFFFFFFFFFFFFFFFFFF AND DUP2 PUSH20 0xFFFFFFFFFFFFFFFFFFFFFFFFFFFFFFFFFFFFFFFF AND PUSH32 0x8BE0079C531659141344CD1FD0A4F28419497F9722A3DAAFE3B4186F6B6457E0 PUSH1 0x40 MLOAD PUSH1 0x40 MLOAD DUP1 SWAP2 SUB SWAP1 LOG3 POP POP JUMP JUMPDEST PUSH1 0x0 DUP2 MLOAD DUP4 MLOAD EQ PUSH2 0x84F JUMPI PUSH1 0x40 MLOAD PUSH32 0x8C379A000000000000000000000000000000000000000000000000000000000 DUP2 MSTORE PUSH1 0x4 ADD PUSH2 0x846 SWAP1 PUSH2 0xD6E JUMP JUMPDEST PUSH1 0x40 MLOAD DUP1 SWAP2 SUB SWAP1 REVERT JUMPDEST PUSH1 0x0 DUP4 MLOAD SWAP1 POP PUSH1 0x0 JUMPDEST DUP2 DUP2 LT ISZERO PUSH2 0x94E JUMPI PUSH1 0x0 DUP6 DUP3 DUP2 MLOAD DUP2 LT PUSH2 0x875 JUMPI PUSH2 0x874 PUSH2 0x1054 JUMP JUMPDEST JUMPDEST PUSH1 0x20 MUL PUSH1 0x20 ADD ADD MLOAD PUSH20 0xFFFFFFFFFFFFFFFFFFFFFFFFFFFFFFFFFFFFFFFF AND DUP6 DUP4 DUP2 MLOAD DUP2 LT PUSH2 0x8A6 JUMPI PUSH2 0x8A5 PUSH2 0x1054 JUMP JUMPDEST JUMPDEST PUSH1 0x20 MUL PUSH1 0x20 ADD ADD MLOAD PUSH1 0x40 MLOAD PUSH2 0x8BA SWAP1 PUSH2 0xCFA JUMP JUMPDEST PUSH1 0x0 PUSH1 0x40 MLOAD DUP1 DUP4 SUB DUP2 DUP6 DUP8 GAS CALL SWAP3 POP POP POP RETURNDATASIZE DUP1 PUSH1 0x0 DUP2 EQ PUSH2 0x8F7 JUMPI PUSH1 0x40 MLOAD SWAP2 POP PUSH1 0x1F NOT PUSH1 0x3F RETURNDATASIZE ADD AND DUP3 ADD PUSH1 0x40 MSTORE RETURNDATASIZE DUP3 MSTORE RETURNDATASIZE PUSH1 0x0 PUSH1 0x20 DUP5 ADD RETURNDATACOPY PUSH2 0x8FC JUMP JUMPDEST PUSH1 0x60 SWAP2 POP JUMPDEST POP POP SWAP1 POP DUP1 PUSH2 0x940 JUMPI PUSH1 0x40 MLOAD PUSH32 0x8C379A000000000000000000000000000000000000000000000000000000000 DUP2 MSTORE PUSH1 0x4 ADD PUSH2 0x937 SWAP1 PUSH2 0xDEE JUMP JUMPDEST PUSH1 0x40 MLOAD DUP1 SWAP2 SUB SWAP1 REVERT JUMPDEST DUP2 DUP1 PUSH1 0x1 ADD SWAP3 POP POP POP PUSH2 0x858 JUMP JUMPDEST POP PUSH1 0x1 SWAP2 POP POP SWAP3 SWAP2 POP POP JUMP JUMPDEST PUSH1 0x0 PUSH2 0x96D PUSH2 0x968 DUP5 PUSH2 0xEAE JUMP JUMPDEST PUSH2 0xE89 JUMP JUMPDEST SWAP1 POP DUP1 DUP4 DUP3 MSTORE PUSH1 0x20 DUP3 ADD SWAP1 POP DUP3 DUP6 PUSH1 0x20 DUP7 MUL DUP3 ADD GT ISZERO PUSH2 0x990 JUMPI PUSH2 0x98F PUSH2 0x10B7 JUMP JUMPDEST JUMPDEST PUSH1 0x0 JUMPDEST DUP6 DUP2 LT ISZERO PUSH2 0x9C0 JUMPI DUP2 PUSH2 0x9A6 DUP9 DUP3 PUSH2 0xA3A JUMP JUMPDEST DUP5 MSTORE PUSH1 0x20 DUP5 ADD SWAP4 POP PUSH1 0x20 DUP4 ADD SWAP3 POP POP PUSH1 0x1 DUP2 ADD SWAP1 POP PUSH2 0x993 JUMP JUMPDEST POP POP POP SWAP4 SWAP3 POP POP POP JUMP JUMPDEST PUSH1 0x0 PUSH2 0x9DD PUSH2 0x9D8 DUP5 PUSH2 0xEDA JUMP JUMPDEST PUSH2 0xE89 JUMP JUMPDEST SWAP1 POP DUP1 DUP4 DUP3 MSTORE PUSH1 0x20 DUP3 ADD SWAP1 POP DUP3 DUP6 PUSH1 0x20 DUP7 MUL DUP3 ADD GT ISZERO PUSH2 0xA00 JUMPI PUSH2 0x9FF PUSH2 0x10B7 JUMP JUMPDEST JUMPDEST PUSH1 0x0 JUMPDEST DUP6 DUP2 LT ISZERO PUSH2 0xA30 JUMPI DUP2 PUSH2 0xA16 DUP9 DUP3 PUSH2 0xAAB JUMP JUMPDEST DUP5 MSTORE PUSH1 0x20 DUP5 ADD SWAP4 POP PUSH1 0x20 DUP4 ADD SWAP3 POP POP PUSH1 0x1 DUP2 ADD SWAP1 POP PUSH2 0xA03 JUMP JUMPDEST POP POP POP SWAP4 SWAP3 POP POP POP JUMP JUMPDEST PUSH1 0x0 DUP2 CALLDATALOAD SWAP1 POP PUSH2 0xA49 DUP2 PUSH2 0x1294 JUMP JUMPDEST SWAP3 SWAP2 POP POP JUMP JUMPDEST PUSH1 0x0 DUP3 PUSH1 0x1F DUP4 ADD SLT PUSH2 0xA64 JUMPI PUSH2 0xA63 PUSH2 0x10B2 JUMP JUMPDEST JUMPDEST DUP2 CALLDATALOAD PUSH2 0xA74 DUP5 DUP3 PUSH1 0x20 DUP7 ADD PUSH2 0x95A JUMP JUMPDEST SWAP2 POP POP SWAP3 SWAP2 POP POP JUMP JUMPDEST PUSH1 0x0 DUP3 PUSH1 0x1F DUP4 ADD SLT PUSH2 0xA92 JUMPI PUSH2 0xA91 PUSH2 0x10B2 JUMP JUMPDEST JUMPDEST DUP2 CALLDATALOAD PUSH2 0xAA2 DUP5 DUP3 PUSH1 0x20 DUP7 ADD PUSH2 0x9CA JUMP JUMPDEST SWAP2 POP POP SWAP3 SWAP2 POP POP JUMP JUMPDEST PUSH1 0x0 DUP2 CALLDATALOAD SWAP1 POP PUSH2 0xABA DUP2 PUSH2 0x12AB JUMP JUMPDEST SWAP3 SWAP2 POP POP JUMP JUMPDEST PUSH1 0x0 PUSH1 0x20 DUP3 DUP5 SUB SLT ISZERO PUSH2 0xAD6 JUMPI PUSH2 0xAD5 PUSH2 0x10C1 JUMP JUMPDEST JUMPDEST PUSH1 0x0 PUSH2 0xAE4 DUP5 DUP3 DUP6 ADD PUSH2 0xA3A JUMP JUMPDEST SWAP2 POP POP SWAP3 SWAP2 POP POP JUMP JUMPDEST PUSH1 0x0 DUP1 PUSH1 0x40 DUP4 DUP6 SUB SLT ISZERO PUSH2 0xB04 JUMPI PUSH2 0xB03 PUSH2 0x10C1 JUMP JUMPDEST JUMPDEST PUSH1 0x0 DUP4 ADD CALLDATALOAD PUSH8 0xFFFFFFFFFFFFFFFF DUP2 GT ISZERO PUSH2 0xB22 JUMPI PUSH2 0xB21 PUSH2 0x10BC JUMP JUMPDEST JUMPDEST PUSH2 0xB2E DUP6 DUP3 DUP7 ADD PUSH2 0xA4F JUMP JUMPDEST SWAP3 POP POP PUSH1 0x20 DUP4 ADD CALLDATALOAD PUSH8 0xFFFFFFFFFFFFFFFF DUP2 GT ISZERO PUSH2 0xB4F JUMPI PUSH2 0xB4E PUSH2 0x10BC JUMP JUMPDEST JUMPDEST PUSH2 0xB5B DUP6 DUP3 DUP7 ADD PUSH2 0xA7D JUMP JUMPDEST SWAP2 POP POP SWAP3 POP SWAP3 SWAP1 POP JUMP JUMPDEST PUSH1 0x0 PUSH1 0x20 DUP3 DUP5 SUB SLT ISZERO PUSH2 0xB7B JUMPI PUSH2 0xB7A PUSH2 0x10C1 JUMP JUMPDEST JUMPDEST PUSH1 0x0 PUSH2 0xB89 DUP5 DUP3 DUP6 ADD PUSH2 0xAAB JUMP JUMPDEST SWAP2 POP POP SWAP3 SWAP2 POP POP JUMP JUMPDEST PUSH2 0xB9B DUP2 PUSH2 0xFAC JUMP JUMPDEST DUP3 MSTORE POP POP JUMP JUMPDEST PUSH2 0xBAA DUP2 PUSH2 0xFBE JUMP JUMPDEST DUP3 MSTORE POP POP JUMP JUMPDEST PUSH1 0x0 PUSH2 0xBBD PUSH1 0x3C DUP4 PUSH2 0xF11 JUMP JUMPDEST SWAP2 POP PUSH2 0xBC8 DUP3 PUSH2 0x10D7 JUMP JUMPDEST PUSH1 0x40 DUP3 ADD SWAP1 POP SWAP2 SWAP1 POP JUMP JUMPDEST PUSH1 0x0 PUSH2 0xBE0 PUSH1 0x26 DUP4 PUSH2 0xF11 JUMP JUMPDEST SWAP2 POP PUSH2 0xBEB DUP3 PUSH2 0x1126 JUMP JUMPDEST PUSH1 0x40 DUP3 ADD SWAP1 POP SWAP2 SWAP1 POP JUMP JUMPDEST PUSH1 0x0 PUSH2 0xC03 PUSH1 0x20 DUP4 PUSH2 0xF11 JUMP JUMPDEST SWAP2 POP PUSH2 0xC0E DUP3 PUSH2 0x1175 JUMP JUMPDEST PUSH1 0x20 DUP3 ADD SWAP1 POP SWAP2 SWAP1 POP JUMP JUMPDEST PUSH1 0x0 PUSH2 0xC26 PUSH1 0x23 DUP4 PUSH2 0xF11 JUMP JUMPDEST SWAP2 POP PUSH2 0xC31 DUP3 PUSH2 0x119E JUMP JUMPDEST PUSH1 0x40 DUP3 ADD SWAP1 POP SWAP2 SWAP1 POP JUMP JUMPDEST PUSH1 0x0 PUSH2 0xC49 PUSH1 0x0 DUP4 PUSH2 0xF06 JUMP JUMPDEST SWAP2 POP PUSH2 0xC54 DUP3 PUSH2 0x11ED JUMP JUMPDEST PUSH1 0x0 DUP3 ADD SWAP1 POP SWAP2 SWAP1 POP JUMP JUMPDEST PUSH1 0x0 PUSH2 0xC6C PUSH1 0x10 DUP4 PUSH2 0xF11 JUMP JUMPDEST SWAP2 POP PUSH2 0xC77 DUP3 PUSH2 0x11F0 JUMP JUMPDEST PUSH1 0x20 DUP3 ADD SWAP1 POP SWAP2 SWAP1 POP JUMP JUMPDEST PUSH1 0x0 PUSH2 0xC8F PUSH1 0x12 DUP4 PUSH2 0xF11 JUMP JUMPDEST SWAP2 POP PUSH2 0xC9A DUP3 PUSH2 0x1219 JUMP JUMPDEST PUSH1 0x20 DUP3 ADD SWAP1 POP SWAP2 SWAP1 POP JUMP JUMPDEST PUSH1 0x0 PUSH2 0xCB2 PUSH1 0x1F DUP4 PUSH2 0xF11 JUMP JUMPDEST SWAP2 POP PUSH2 0xCBD DUP3 PUSH2 0x1242 JUMP JUMPDEST PUSH1 0x20 DUP3 ADD SWAP1 POP SWAP2 SWAP1 POP JUMP JUMPDEST PUSH1 0x0 PUSH2 0xCD5 PUSH1 0xF DUP4 PUSH2 0xF11 JUMP JUMPDEST SWAP2 POP PUSH2 0xCE0 DUP3 PUSH2 0x126B JUMP JUMPDEST PUSH1 0x20 DUP3 ADD SWAP1 POP SWAP2 SWAP1 POP JUMP JUMPDEST PUSH2 0xCF4 DUP2 PUSH2 0xFEA JUMP JUMPDEST DUP3 MSTORE POP POP JUMP JUMPDEST PUSH1 0x0 PUSH2 0xD05 DUP3 PUSH2 0xC3C JUMP JUMPDEST SWAP2 POP DUP2 SWAP1 POP SWAP2 SWAP1 POP JUMP JUMPDEST PUSH1 0x0 PUSH1 0x20 DUP3 ADD SWAP1 POP PUSH2 0xD24 PUSH1 0x0 DUP4 ADD DUP5 PUSH2 0xB92 JUMP JUMPDEST SWAP3 SWAP2 POP POP JUMP JUMPDEST PUSH1 0x0 PUSH1 0x40 DUP3 ADD SWAP1 POP PUSH2 0xD3F PUSH1 0x0 DUP4 ADD DUP6 PUSH2 0xB92 JUMP JUMPDEST PUSH2 0xD4C PUSH1 0x20 DUP4 ADD DUP5 PUSH2 0xCEB JUMP JUMPDEST SWAP4 SWAP3 POP POP POP JUMP JUMPDEST PUSH1 0x0 PUSH1 0x20 DUP3 ADD SWAP1 POP PUSH2 0xD68 PUSH1 0x0 DUP4 ADD DUP5 PUSH2 0xBA1 JUMP JUMPDEST SWAP3 SWAP2 POP POP JUMP JUMPDEST PUSH1 0x0 PUSH1 0x20 DUP3 ADD SWAP1 POP DUP2 DUP2 SUB PUSH1 0x0 DUP4 ADD MSTORE PUSH2 0xD87 DUP2 PUSH2 0xBB0 JUMP JUMPDEST SWAP1 POP SWAP2 SWAP1 POP JUMP JUMPDEST PUSH1 0x0 PUSH1 0x20 DUP3 ADD SWAP1 POP DUP2 DUP2 SUB PUSH1 0x0 DUP4 ADD MSTORE PUSH2 0xDA7 DUP2 PUSH2 0xBD3 JUMP JUMPDEST SWAP1 POP SWAP2 SWAP1 POP JUMP JUMPDEST PUSH1 0x0 PUSH1 0x20 DUP3 ADD SWAP1 POP DUP2 DUP2 SUB PUSH1 0x0 DUP4 ADD MSTORE PUSH2 0xDC7 DUP2 PUSH2 0xBF6 JUMP JUMPDEST SWAP1 POP SWAP2 SWAP1 POP JUMP JUMPDEST PUSH1 0x0 PUSH1 0x20 DUP3 ADD SWAP1 POP DUP2 DUP2 SUB PUSH1 0x0 DUP4 ADD MSTORE PUSH2 0xDE7 DUP2 PUSH2 0xC19 JUMP JUMPDEST SWAP1 POP SWAP2 SWAP1 POP JUMP JUMPDEST PUSH1 0x0 PUSH1 0x20 DUP3 ADD SWAP1 POP DUP2 DUP2 SUB PUSH1 0x0 DUP4 ADD MSTORE PUSH2 0xE07 DUP2 PUSH2 0xC5F JUMP JUMPDEST SWAP1 POP SWAP2 SWAP1 POP JUMP JUMPDEST PUSH1 0x0 PUSH1 0x20 DUP3 ADD SWAP1 POP DUP2 DUP2 SUB PUSH1 0x0 DUP4 ADD MSTORE PUSH2 0xE27 DUP2 PUSH2 0xC82 JUMP JUMPDEST SWAP1 POP SWAP2 SWAP1 POP JUMP JUMPDEST PUSH1 0x0 PUSH1 0x20 DUP3 ADD SWAP1 POP DUP2 DUP2 SUB PUSH1 0x0 DUP4 ADD MSTORE PUSH2 0xE47 DUP2 PUSH2 0xCA5 JUMP JUMPDEST SWAP1 POP SWAP2 SWAP1 POP JUMP JUMPDEST PUSH1 0x0 PUSH1 0x20 DUP3 ADD SWAP1 POP DUP2 DUP2 SUB PUSH1 0x0 DUP4 ADD MSTORE PUSH2 0xE67 DUP2 PUSH2 0xCC8 JUMP JUMPDEST SWAP1 POP SWAP2 SWAP1 POP JUMP JUMPDEST PUSH1 0x0 PUSH1 0x20 DUP3 ADD SWAP1 POP PUSH2 0xE83 PUSH1 0x0 DUP4 ADD DUP5 PUSH2 0xCEB JUMP JUMPDEST SWAP3 SWAP2 POP POP JUMP JUMPDEST PUSH1 0x0 PUSH2 0xE93 PUSH2 0xEA4 JUMP JUMPDEST SWAP1 POP PUSH2 0xE9F DUP3 DUP3 PUSH2 0xFF4 JUMP JUMPDEST SWAP2 SWAP1 POP JUMP JUMPDEST PUSH1 0x0 PUSH1 0x40 MLOAD SWAP1 POP SWAP1 JUMP JUMPDEST PUSH1 0x0 PUSH8 0xFFFFFFFFFFFFFFFF DUP3 GT ISZERO PUSH2 0xEC9 JUMPI PUSH2 0xEC8 PUSH2 0x1083 JUMP JUMPDEST JUMPDEST PUSH1 0x20 DUP3 MUL SWAP1 POP PUSH1 0x20 DUP2 ADD SWAP1 POP SWAP2 SWAP1 POP JUMP JUMPDEST PUSH1 0x0 PUSH8 0xFFFFFFFFFFFFFFFF DUP3 GT ISZERO PUSH2 0xEF5 JUMPI PUSH2 0xEF4 PUSH2 0x1083 JUMP JUMPDEST JUMPDEST PUSH1 0x20 DUP3 MUL SWAP1 POP PUSH1 0x20 DUP2 ADD SWAP1 POP SWAP2 SWAP1 POP JUMP JUMPDEST PUSH1 0x0 DUP2 SWAP1 POP SWAP3 SWAP2 POP POP JUMP JUMPDEST PUSH1 0x0 DUP3 DUP3 MSTORE PUSH1 0x20 DUP3 ADD SWAP1 POP SWAP3 SWAP2 POP POP JUMP JUMPDEST PUSH1 0x0 PUSH2 0xF2D DUP3 PUSH2 0xFEA JUMP JUMPDEST SWAP2 POP PUSH2 0xF38 DUP4 PUSH2 0xFEA JUMP JUMPDEST SWAP3 POP DUP3 PUSH32 0xFFFFFFFFFFFFFFFFFFFFFFFFFFFFFFFFFFFFFFFFFFFFFFFFFFFFFFFFFFFFFFFF SUB DUP3 GT ISZERO PUSH2 0xF6D JUMPI PUSH2 0xF6C PUSH2 0x1025 JUMP JUMPDEST JUMPDEST DUP3 DUP3 ADD SWAP1 POP SWAP3 SWAP2 POP POP JUMP JUMPDEST PUSH1 0x0 PUSH2 0xF83 DUP3 PUSH2 0xFEA JUMP JUMPDEST SWAP2 POP PUSH2 0xF8E DUP4 PUSH2 0xFEA JUMP JUMPDEST SWAP3 POP DUP3 DUP3 LT ISZERO PUSH2 0xFA1 JUMPI PUSH2 0xFA0 PUSH2 0x1025 JUMP JUMPDEST JUMPDEST DUP3 DUP3 SUB SWAP1 POP SWAP3 SWAP2 POP POP JUMP JUMPDEST PUSH1 0x0 PUSH2 0xFB7 DUP3 PUSH2 0xFCA JUMP JUMPDEST SWAP1 POP SWAP2 SWAP1 POP JUMP JUMPDEST PUSH1 0x0 DUP2 ISZERO ISZERO SWAP1 POP SWAP2 SWAP1 POP JUMP JUMPDEST PUSH1 0x0 PUSH20 0xFFFFFFFFFFFFFFFFFFFFFFFFFFFFFFFFFFFFFFFF DUP3 AND SWAP1 POP SWAP2 SWAP1 POP JUMP JUMPDEST PUSH1 0x0 DUP2 SWAP1 POP SWAP2 SWAP1 POP JUMP JUMPDEST PUSH2 0xFFD DUP3 PUSH2 0x10C6 JUMP JUMPDEST DUP2 ADD DUP2 DUP2 LT PUSH8 0xFFFFFFFFFFFFFFFF DUP3 GT OR ISZERO PUSH2 0x101C JUMPI PUSH2 0x101B PUSH2 0x1083 JUMP JUMPDEST JUMPDEST DUP1 PUSH1 0x40 MSTORE POP POP POP JUMP JUMPDEST PUSH32 0x4E487B7100000000000000000000000000000000000000000000000000000000 PUSH1 0x0 MSTORE PUSH1 0x11 PUSH1 0x4 MSTORE PUSH1 0x24 PUSH1 0x0 REVERT JUMPDEST PUSH32 0x4E487B7100000000000000000000000000000000000000000000000000000000 PUSH1 0x0 MSTORE PUSH1 0x32 PUSH1 0x4 MSTORE PUSH1 0x24 PUSH1 0x0 REVERT JUMPDEST PUSH32 0x4E487B7100000000000000000000000000000000000000000000000000000000 PUSH1 0x0 MSTORE PUSH1 0x41 PUSH1 0x4 MSTORE PUSH1 0x24 PUSH1 0x0 REVERT JUMPDEST PUSH1 0x0 DUP1 REVERT JUMPDEST PUSH1 0x0 DUP1 REVERT JUMPDEST PUSH1 0x0 DUP1 REVERT JUMPDEST PUSH1 0x0 DUP1 REVERT JUMPDEST PUSH1 0x0 PUSH1 0x1F NOT PUSH1 0x1F DUP4 ADD AND SWAP1 POP SWAP2 SWAP1 POP JUMP JUMPDEST PUSH32 0x4E756D626572206F6620726563697069656E7473206D75737420626520657175 PUSH1 0x0 DUP3 ADD MSTORE PUSH32 0x616C20746F20746865206E756D626572206F6620616D6F756E74732E00000000 PUSH1 0x20 DUP3 ADD MSTORE POP JUMP JUMPDEST PUSH32 0x4F776E61626C653A206E6577206F776E657220697320746865207A65726F2061 PUSH1 0x0 DUP3 ADD MSTORE PUSH32 0x6464726573730000000000000000000000000000000000000000000000000000 PUSH1 0x20 DUP3 ADD MSTORE POP JUMP JUMPDEST PUSH32 0x4F776E61626C653A2063616C6C6572206973206E6F7420746865206F776E6572 PUSH1 0x0 DUP3 ADD MSTORE POP JUMP JUMPDEST PUSH32 0x4164647265737320496E73756666696369656E74206465706F73697420616D6F PUSH1 0x0 DUP3 ADD MSTORE PUSH32 0x756E740000000000000000000000000000000000000000000000000000000000 PUSH1 0x20 DUP3 ADD MSTORE POP JUMP JUMPDEST POP JUMP JUMPDEST PUSH32 0x7472616E73666572207375636365737300000000000000000000000000000000 PUSH1 0x0 DUP3 ADD MSTORE POP JUMP JUMPDEST PUSH32 0x4E6F74206465706F73697420616D6F756E740000000000000000000000000000 PUSH1 0x0 DUP3 ADD MSTORE POP JUMP JUMPDEST PUSH32 0x5265656E7472616E637947756172643A207265656E7472616E742063616C6C00 PUSH1 0x0 DUP3 ADD MSTORE POP JUMP JUMPDEST PUSH32 0x7769746864726177206661696C65640000000000000000000000000000000000 PUSH1 0x0 DUP3 ADD MSTORE POP JUMP JUMPDEST PUSH2 0x129D DUP2 PUSH2 0xFAC JUMP JUMPDEST DUP2 EQ PUSH2 0x12A8 JUMPI PUSH1 0x0 DUP1 REVERT JUMPDEST POP JUMP JUMPDEST PUSH2 0x12B4 DUP2 PUSH2 0xFEA JUMP JUMPDEST DUP2 EQ PUSH2 0x12BF JUMPI PUSH1 0x0 DUP1 REVERT JUMPDEST POP JUMP INVALID LOG2 PUSH5 0x6970667358 0x22 SLT KECCAK256 DUP13 SWAP8 AND SLOAD 0xD7 STATICCALL RETURNDATASIZE SIGNEXTEND EQ DUP2 CREATE2 DUP5 0xA5 0x24 PUSH28 0x89875FA735EB8F33ED1F03423A5145EB7D64736F6C63430008070033 "
				},
				"gasEstimates": {
					"creation": {
						"codeDepositCost": "971200",
						"executionCost": "infinite",
						"totalCost": "infinite"
					},
					"external": {
						"": "infinite",
						"balanceOf()": "384",
						"deposit()": "infinite",
						"depositquota(address)": "2814",
						"owner()": "2589",
						"renounceOwnership()": "30421",
						"transfer(address[],uint256[])": "infinite",
						"transferOwnership(address)": "30791",
						"withdraw(uint256)": "infinite"
					},
					"internal": {
						"_batchTransfer(address[] memory,uint256[] memory)": "infinite",
						"getquota(address)": "2224"
					}
				},
				"methodIdentifiers": {
					"balanceOf()": "722713f7",
					"deposit()": "d0e30db0",
					"depositquota(address)": "b0d253ff",
					"owner()": "8da5cb5b",
					"renounceOwnership()": "715018a6",
					"transfer(address[],uint256[])": "ffc3a769",
					"transferOwnership(address)": "f2fde38b",
					"withdraw(uint256)": "2e1a7d4d"
				}
			},
			"storageLayout": {
				"storage": [
					{
						"astId": 88,
						"contract": "transferActive.sol:TranActive",
						"label": "_owner",
						"offset": 0,
						"slot": "0",
						"type": "t_address"
					},
					{
						"astId": 10,
						"contract": "transferActive.sol:TranActive",
						"label": "_status",
						"offset": 0,
						"slot": "1",
						"type": "t_uint256"
					},
					{
						"astId": 203,
						"contract": "transferActive.sol:TranActive",
						"label": "depositquota",
						"offset": 0,
						"slot": "2",
						"type": "t_mapping(t_address,t_uint256)"
					}
				],
				"types": {
					"t_address": {
						"encoding": "inplace",
						"label": "address",
						"numberOfBytes": "20"
					},
					"t_mapping(t_address,t_uint256)": {
						"encoding": "mapping",
						"key": "t_address",
						"label": "mapping(address => uint256)",
						"numberOfBytes": "32",
						"value": "t_uint256"
					},
					"t_uint256": {
						"encoding": "inplace",
						"label": "uint256",
						"numberOfBytes": "32"
					}
				}
			},
			"userdoc": {
				"kind": "user",
				"methods": {},
				"version": 1
			}
		}
	}
}