{
	"transferActive.sol": {
		"TranActive": {
			"abi": [
				{
					"anonymous": false,
					"inputs": [
						{
							"indexed": true,
							"internalType": "address",
							"name": "previousOwner",
							"type": "address"
						},
						{
							"indexed": true,
							"internalType": "address",
							"name": "newOwner",
							"type": "address"
						}
					],
					"name": "OwnershipTransferred",
					"type": "event"
				},
				{
					"anonymous": false,
					"inputs": [
						{
							"indexed": false,
							"internalType": "address",
							"name": "",
							"type": "address"
						},
						{
							"indexed": false,
							"internalType": "uint256",
							"name": "",
							"type": "uint256"
						}
					],
					"name": "Withdraw",
					"type": "event"
				},
				{
					"stateMutability": "payable",
					"type": "fallback"
				},
				{
					"inputs": [],
					"name": "balanceOf",
					"outputs": [
						{
							"internalType": "uint256",
							"name": "",
							"type": "uint256"
						}
					],
					"stateMutability": "view",
					"type": "function"
				},
				{
					"inputs": [
						{
							"internalType": "uint256",
							"name": "amount",
							"type": "uint256"
						}
					],
					"name": "deposit",
					"outputs": [
						{
							"internalType": "address",
							"name": "",
							"type": "address"
						},
						{
							"internalType": "uint256",
							"name": "",
							"type": "uint256"
						}
					],
					"stateMutability": "payable",
					"type": "function"
				},
				{
					"inputs": [
						{
							"internalType": "uint256",
							"name": "",
							"type": "uint256"
						}
					],
					"name": "depositAddress",
					"outputs": [
						{
							"internalType": "address",
							"name": "",
							"type": "address"
						}
					],
					"stateMutability": "view",
					"type": "function"
				},
				{
					"inputs": [
						{
							"internalType": "address",
							"name": "",
							"type": "address"
						}
					],
					"name": "depositquota",
					"outputs": [
						{
							"internalType": "uint256",
							"name": "",
							"type": "uint256"
						}
					],
					"stateMutability": "view",
					"type": "function"
				},
				{
					"inputs": [
						{
							"internalType": "address",
							"name": "from",
							"type": "address"
						}
					],
					"name": "getquota",
					"outputs": [
						{
							"internalType": "uint256",
							"name": "",
							"type": "uint256"
						}
					],
					"stateMutability": "view",
					"type": "function"
				},
				{
					"inputs": [],
					"name": "owner",
					"outputs": [
						{
							"internalType": "address",
							"name": "",
							"type": "address"
						}
					],
					"stateMutability": "view",
					"type": "function"
				},
				{
					"inputs": [],
					"name": "renounceOwnership",
					"outputs": [],
					"stateMutability": "nonpayable",
					"type": "function"
				},
				{
					"inputs": [
						{
							"internalType": "address[]",
							"name": "recipients",
							"type": "address[]"
						},
						{
							"internalType": "uint256[]",
							"name": "amounts",
							"type": "uint256[]"
						}
					],
					"name": "transfer",
					"outputs": [
						{
							"internalType": "bool",
							"name": "",
							"type": "bool"
						}
					],
					"stateMutability": "nonpayable",
					"type": "function"
				},
				{
					"inputs": [
						{
							"internalType": "address",
							"name": "newOwner",
							"type": "address"
						}
					],
					"name": "transferOwnership",
					"outputs": [],
					"stateMutability": "nonpayable",
					"type": "function"
				},
				{
					"inputs": [
						{
							"internalType": "uint256",
							"name": "amount",
							"type": "uint256"
						}
					],
					"name": "withdraw",
					"outputs": [
						{
							"internalType": "bool",
							"name": "",
							"type": "bool"
						}
					],
					"stateMutability": "nonpayable",
					"type": "function"
				},
				{
					"stateMutability": "payable",
					"type": "receive"
				}
			],
			"devdoc": {
				"kind": "dev",
				"methods": {
					"owner()": {
						"details": "Returns the address of the current owner."
					},
					"renounceOwnership()": {
						"details": "Leaves the contract without owner. It will not be possible to call `onlyOwner` functions anymore. Can only be called by the current owner. NOTE: Renouncing ownership will leave the contract without an owner, thereby removing any functionality that is only available to the owner."
					},
					"transferOwnership(address)": {
						"details": "Transfers ownership of the contract to a new account (`newOwner`). Can only be called by the current owner."
					}
				},
				"version": 1
			},
			"evm": {
				"assembly": "    /* \"transferActive.sol\":5973:8045  contract TranActive is Context,Ownable,ReentrancyGuard{\r... */\n  mstore(0x40, 0x80)\n  callvalue\n  dup1\n  iszero\n  tag_1\n  jumpi\n  0x00\n  dup1\n  revert\ntag_1:\n  pop\n    /* \"transferActive.sol\":4229:4261  _transferOwnership(_msgSender()) */\n  tag_5\n    /* \"transferActive.sol\":4248:4260  _msgSender() */\n  tag_6\n    /* \"transferActive.sol\":4248:4258  _msgSender */\n  shl(0x20, tag_7)\n    /* \"transferActive.sol\":4248:4260  _msgSender() */\n  0x20\n  shr\n  jump\t// in\ntag_6:\n    /* \"transferActive.sol\":4229:4247  _transferOwnership */\n  shl(0x20, tag_8)\n    /* \"transferActive.sol\":4229:4261  _transferOwnership(_msgSender()) */\n  0x20\n  shr\n  jump\t// in\ntag_5:\n    /* \"transferActive.sol\":1669:1670  1 */\n  0x01\n    /* \"transferActive.sol\":1780:1787  _status */\n  dup1\n    /* \"transferActive.sol\":1780:1802  _status = _NOT_ENTERED */\n  dup2\n  swap1\n  sstore\n  pop\n    /* \"transferActive.sol\":5973:8045  contract TranActive is Context,Ownable,ReentrancyGuard{\r... */\n  jump(tag_10)\n    /* \"transferActive.sol\":3724:3822  function _msgSender() internal view virtual returns (address) {\r... */\ntag_7:\n    /* \"transferActive.sol\":3777:3784  address */\n  0x00\n    /* \"transferActive.sol\":3804:3814  msg.sender */\n  caller\n    /* \"transferActive.sol\":3797:3814  return msg.sender */\n  swap1\n  pop\n    /* \"transferActive.sol\":3724:3822  function _msgSender() internal view virtual returns (address) {\r... */\n  swap1\n  jump\t// out\n    /* \"transferActive.sol\":5775:5966  function _transferOwnership(address newOwner) internal virtual {\r... */\ntag_8:\n    /* \"transferActive.sol\":5849:5865  address oldOwner */\n  0x00\n    /* \"transferActive.sol\":5868:5874  _owner */\n  dup1\n  0x00\n  swap1\n  sload\n  swap1\n  0x0100\n  exp\n  swap1\n  div\n  0xffffffffffffffffffffffffffffffffffffffff\n  and\n    /* \"transferActive.sol\":5849:5874  address oldOwner = _owner */\n  swap1\n  pop\n    /* \"transferActive.sol\":5894:5902  newOwner */\n  dup2\n    /* \"transferActive.sol\":5885:5891  _owner */\n  0x00\n  dup1\n    /* \"transferActive.sol\":5885:5902  _owner = newOwner */\n  0x0100\n  exp\n  dup2\n  sload\n  dup2\n  0xffffffffffffffffffffffffffffffffffffffff\n  mul\n  not\n  and\n  swap1\n  dup4\n  0xffffffffffffffffffffffffffffffffffffffff\n  and\n  mul\n  or\n  swap1\n  sstore\n  pop\n    /* \"transferActive.sol\":5949:5957  newOwner */\n  dup2\n    /* \"transferActive.sol\":5918:5958  OwnershipTransferred(oldOwner, newOwner) */\n  0xffffffffffffffffffffffffffffffffffffffff\n  and\n    /* \"transferActive.sol\":5939:5947  oldOwner */\n  dup2\n    /* \"transferActive.sol\":5918:5958  OwnershipTransferred(oldOwner, newOwner) */\n  0xffffffffffffffffffffffffffffffffffffffff\n  and\n  0x8be0079c531659141344cd1fd0a4f28419497f9722a3daafe3b4186f6b6457e0\n  mload(0x40)\n  mload(0x40)\n  dup1\n  swap2\n  sub\n  swap1\n  log3\n    /* \"transferActive.sol\":5838:5966  {\r... */\n  pop\n    /* \"transferActive.sol\":5775:5966  function _transferOwnership(address newOwner) internal virtual {\r... */\n  pop\n  jump\t// out\n    /* \"transferActive.sol\":5973:8045  contract TranActive is Context,Ownable,ReentrancyGuard{\r... */\ntag_10:\n  dataSize(sub_0)\n  dup1\n  dataOffset(sub_0)\n  0x00\n  codecopy\n  0x00\n  return\nstop\n\nsub_0: assembly {\n        /* \"transferActive.sol\":5973:8045  contract TranActive is Context,Ownable,ReentrancyGuard{\r... */\n      mstore(0x40, 0x80)\n      jumpi(tag_1, lt(calldatasize, 0x04))\n      shr(0xe0, calldataload(0x00))\n      dup1\n      0xb0d253ff\n      gt\n      tag_13\n      jumpi\n      dup1\n      0xb0d253ff\n      eq\n      tag_8\n      jumpi\n      dup1\n      0xb6b55f25\n      eq\n      tag_9\n      jumpi\n      dup1\n      0xd75c45ad\n      eq\n      tag_10\n      jumpi\n      dup1\n      0xf2fde38b\n      eq\n      tag_11\n      jumpi\n      dup1\n      0xffc3a769\n      eq\n      tag_12\n      jumpi\n      jump(tag_2)\n    tag_13:\n      dup1\n      0x2c918b23\n      eq\n      tag_3\n      jumpi\n      dup1\n      0x2e1a7d4d\n      eq\n      tag_4\n      jumpi\n      dup1\n      0x715018a6\n      eq\n      tag_5\n      jumpi\n      dup1\n      0x722713f7\n      eq\n      tag_6\n      jumpi\n      dup1\n      0x8da5cb5b\n      eq\n      tag_7\n      jumpi\n      jump(tag_2)\n    tag_1:\n      jumpi(tag_2, calldatasize)\n      stop\n    tag_2:\n      stop\n        /* \"transferActive.sol\":6293:6398  function getquota(address from) view public  returns(uint256){\r... */\n    tag_3:\n      callvalue\n      dup1\n      iszero\n      tag_18\n      jumpi\n      0x00\n      dup1\n      revert\n    tag_18:\n      pop\n      tag_19\n      0x04\n      dup1\n      calldatasize\n      sub\n      dup2\n      add\n      swap1\n      tag_20\n      swap2\n      swap1\n      tag_21\n      jump\t// in\n    tag_20:\n      tag_22\n      jump\t// in\n    tag_19:\n      mload(0x40)\n      tag_23\n      swap2\n      swap1\n      tag_24\n      jump\t// in\n    tag_23:\n      mload(0x40)\n      dup1\n      swap2\n      sub\n      swap1\n      return\n        /* \"transferActive.sol\":7697:7967  function withdraw(uint256 amount) external onlyOwner returns (bool){\r... */\n    tag_4:\n      callvalue\n      dup1\n      iszero\n      tag_25\n      jumpi\n      0x00\n      dup1\n      revert\n    tag_25:\n      pop\n      tag_26\n      0x04\n      dup1\n      calldatasize\n      sub\n      dup2\n      add\n      swap1\n      tag_27\n      swap2\n      swap1\n      tag_28\n      jump\t// in\n    tag_27:\n      tag_29\n      jump\t// in\n    tag_26:\n      mload(0x40)\n      tag_30\n      swap2\n      swap1\n      tag_31\n      jump\t// in\n    tag_30:\n      mload(0x40)\n      dup1\n      swap2\n      sub\n      swap1\n      return\n        /* \"transferActive.sol\":5156:5259  function renounceOwnership() public virtual onlyOwner {\r... */\n    tag_5:\n      callvalue\n      dup1\n      iszero\n      tag_32\n      jumpi\n      0x00\n      dup1\n      revert\n    tag_32:\n      pop\n      tag_33\n      tag_34\n      jump\t// in\n    tag_33:\n      stop\n        /* \"transferActive.sol\":6188:6287  function balanceOf()external view returns (uint256) {\r... */\n    tag_6:\n      callvalue\n      dup1\n      iszero\n      tag_35\n      jumpi\n      0x00\n      dup1\n      revert\n    tag_35:\n      pop\n      tag_36\n      tag_37\n      jump\t// in\n    tag_36:\n      mload(0x40)\n      tag_38\n      swap2\n      swap1\n      tag_24\n      jump\t// in\n    tag_38:\n      mload(0x40)\n      dup1\n      swap2\n      sub\n      swap1\n      return\n        /* \"transferActive.sol\":4508:4595  function owner() public view virtual returns (address) {\r... */\n    tag_7:\n      callvalue\n      dup1\n      iszero\n      tag_39\n      jumpi\n      0x00\n      dup1\n      revert\n    tag_39:\n      pop\n      tag_40\n      tag_41\n      jump\t// in\n    tag_40:\n      mload(0x40)\n      tag_42\n      swap2\n      swap1\n      tag_43\n      jump\t// in\n    tag_42:\n      mload(0x40)\n      dup1\n      swap2\n      sub\n      swap1\n      return\n        /* \"transferActive.sol\":6092:6140  mapping (address => uint256) public depositquota */\n    tag_8:\n      callvalue\n      dup1\n      iszero\n      tag_44\n      jumpi\n      0x00\n      dup1\n      revert\n    tag_44:\n      pop\n      tag_45\n      0x04\n      dup1\n      calldatasize\n      sub\n      dup2\n      add\n      swap1\n      tag_46\n      swap2\n      swap1\n      tag_21\n      jump\t// in\n    tag_46:\n      tag_47\n      jump\t// in\n    tag_45:\n      mload(0x40)\n      tag_48\n      swap2\n      swap1\n      tag_24\n      jump\t// in\n    tag_48:\n      mload(0x40)\n      dup1\n      swap2\n      sub\n      swap1\n      return\n        /* \"transferActive.sol\":6406:6625  function deposit(uint256 amount) payable  external  returns(address,uint256){\r... */\n    tag_9:\n      tag_49\n      0x04\n      dup1\n      calldatasize\n      sub\n      dup2\n      add\n      swap1\n      tag_50\n      swap2\n      swap1\n      tag_28\n      jump\t// in\n    tag_50:\n      tag_51\n      jump\t// in\n    tag_49:\n      mload(0x40)\n      tag_52\n      swap3\n      swap2\n      swap1\n      tag_53\n      jump\t// in\n    tag_52:\n      mload(0x40)\n      dup1\n      swap2\n      sub\n      swap1\n      return\n        /* \"transferActive.sol\":6036:6085  mapping (uint256 =>address) public depositAddress */\n    tag_10:\n      callvalue\n      dup1\n      iszero\n      tag_54\n      jumpi\n      0x00\n      dup1\n      revert\n    tag_54:\n      pop\n      tag_55\n      0x04\n      dup1\n      calldatasize\n      sub\n      dup2\n      add\n      swap1\n      tag_56\n      swap2\n      swap1\n      tag_28\n      jump\t// in\n    tag_56:\n      tag_57\n      jump\t// in\n    tag_55:\n      mload(0x40)\n      tag_58\n      swap2\n      swap1\n      tag_43\n      jump\t// in\n    tag_58:\n      mload(0x40)\n      dup1\n      swap2\n      sub\n      swap1\n      return\n        /* \"transferActive.sol\":5414:5615  function transferOwnership(address newOwner) public virtual onlyOwner {\r... */\n    tag_11:\n      callvalue\n      dup1\n      iszero\n      tag_59\n      jumpi\n      0x00\n      dup1\n      revert\n    tag_59:\n      pop\n      tag_60\n      0x04\n      dup1\n      calldatasize\n      sub\n      dup2\n      add\n      swap1\n      tag_61\n      swap2\n      swap1\n      tag_21\n      jump\t// in\n    tag_61:\n      tag_62\n      jump\t// in\n    tag_60:\n      stop\n        /* \"transferActive.sol\":6633:7132  function transfer(address[] memory recipients,uint256[] memory amounts) external  returns (bool) {\r... */\n    tag_12:\n      callvalue\n      dup1\n      iszero\n      tag_63\n      jumpi\n      0x00\n      dup1\n      revert\n    tag_63:\n      pop\n      tag_64\n      0x04\n      dup1\n      calldatasize\n      sub\n      dup2\n      add\n      swap1\n      tag_65\n      swap2\n      swap1\n      tag_66\n      jump\t// in\n    tag_65:\n      tag_67\n      jump\t// in\n    tag_64:\n      mload(0x40)\n      tag_68\n      swap2\n      swap1\n      tag_31\n      jump\t// in\n    tag_68:\n      mload(0x40)\n      dup1\n      swap2\n      sub\n      swap1\n      return\n        /* \"transferActive.sol\":6293:6398  function getquota(address from) view public  returns(uint256){\r... */\n    tag_22:\n        /* \"transferActive.sol\":6346:6353  uint256 */\n      0x00\n        /* \"transferActive.sol\":6372:6384  depositquota */\n      0x03\n        /* \"transferActive.sol\":6372:6390  depositquota[from] */\n      0x00\n        /* \"transferActive.sol\":6385:6389  from */\n      dup4\n        /* \"transferActive.sol\":6372:6390  depositquota[from] */\n      0xffffffffffffffffffffffffffffffffffffffff\n      and\n      0xffffffffffffffffffffffffffffffffffffffff\n      and\n      dup2\n      mstore\n      0x20\n      add\n      swap1\n      dup2\n      mstore\n      0x20\n      add\n      0x00\n      keccak256\n      sload\n        /* \"transferActive.sol\":6365:6390  return depositquota[from] */\n      swap1\n      pop\n        /* \"transferActive.sol\":6293:6398  function getquota(address from) view public  returns(uint256){\r... */\n      swap2\n      swap1\n      pop\n      jump\t// out\n        /* \"transferActive.sol\":7697:7967  function withdraw(uint256 amount) external onlyOwner returns (bool){\r... */\n    tag_29:\n        /* \"transferActive.sol\":7759:7763  bool */\n      0x00\n        /* \"transferActive.sol\":4394:4407  _checkOwner() */\n      tag_71\n        /* \"transferActive.sol\":4394:4405  _checkOwner */\n      tag_72\n        /* \"transferActive.sol\":4394:4407  _checkOwner() */\n      jump\t// in\n    tag_71:\n        /* \"transferActive.sol\":7776:7792  bool callSuccess */\n      0x00\n        /* \"transferActive.sol\":7806:7816  msg.sender */\n      caller\n        /* \"transferActive.sol\":7798:7822  payable(msg.sender).call */\n      0xffffffffffffffffffffffffffffffffffffffff\n      and\n        /* \"transferActive.sol\":7830:7836  amount */\n      dup4\n        /* \"transferActive.sol\":7798:7841  payable(msg.sender).call{value: amount}(\"\") */\n      mload(0x40)\n      tag_74\n      swap1\n      tag_75\n      jump\t// in\n    tag_74:\n      0x00\n      mload(0x40)\n      dup1\n      dup4\n      sub\n      dup2\n      dup6\n      dup8\n      gas\n      call\n      swap3\n      pop\n      pop\n      pop\n      returndatasize\n      dup1\n      0x00\n      dup2\n      eq\n      tag_78\n      jumpi\n      mload(0x40)\n      swap2\n      pop\n      and(add(returndatasize, 0x3f), not(0x1f))\n      dup3\n      add\n      0x40\n      mstore\n      returndatasize\n      dup3\n      mstore\n      returndatasize\n      0x00\n      0x20\n      dup5\n      add\n      returndatacopy\n      jump(tag_77)\n    tag_78:\n      0x60\n      swap2\n      pop\n    tag_77:\n      pop\n        /* \"transferActive.sol\":7775:7841  (bool callSuccess, ) = payable(msg.sender).call{value: amount}(\"\") */\n      pop\n      swap1\n      pop\n        /* \"transferActive.sol\":7860:7871  callSuccess */\n      dup1\n        /* \"transferActive.sol\":7852:7891  require(callSuccess, \"withdraw failed\") */\n      tag_79\n      jumpi\n      mload(0x40)\n      0x08c379a000000000000000000000000000000000000000000000000000000000\n      dup2\n      mstore\n      0x04\n      add\n      tag_80\n      swap1\n      tag_81\n      jump\t// in\n    tag_80:\n      mload(0x40)\n      dup1\n      swap2\n      sub\n      swap1\n      revert\n    tag_79:\n        /* \"transferActive.sol\":7907:7937  Withdraw(address(this),amount) */\n      0x884edad9ce6fa2440d8a54cc123490eb96d2768479d49ff9c7366125a9424364\n        /* \"transferActive.sol\":7924:7928  this */\n      address\n        /* \"transferActive.sol\":7930:7936  amount */\n      dup5\n        /* \"transferActive.sol\":7907:7937  Withdraw(address(this),amount) */\n      mload(0x40)\n      tag_82\n      swap3\n      swap2\n      swap1\n      tag_53\n      jump\t// in\n    tag_82:\n      mload(0x40)\n      dup1\n      swap2\n      sub\n      swap1\n      log1\n        /* \"transferActive.sol\":7955:7959  true */\n      0x01\n        /* \"transferActive.sol\":7948:7959  return true */\n      swap2\n      pop\n      pop\n        /* \"transferActive.sol\":7697:7967  function withdraw(uint256 amount) external onlyOwner returns (bool){\r... */\n      swap2\n      swap1\n      pop\n      jump\t// out\n        /* \"transferActive.sol\":5156:5259  function renounceOwnership() public virtual onlyOwner {\r... */\n    tag_34:\n        /* \"transferActive.sol\":4394:4407  _checkOwner() */\n      tag_84\n        /* \"transferActive.sol\":4394:4405  _checkOwner */\n      tag_72\n        /* \"transferActive.sol\":4394:4407  _checkOwner() */\n      jump\t// in\n    tag_84:\n        /* \"transferActive.sol\":5221:5251  _transferOwnership(address(0)) */\n      tag_86\n        /* \"transferActive.sol\":5248:5249  0 */\n      0x00\n        /* \"transferActive.sol\":5221:5239  _transferOwnership */\n      tag_87\n        /* \"transferActive.sol\":5221:5251  _transferOwnership(address(0)) */\n      jump\t// in\n    tag_86:\n        /* \"transferActive.sol\":5156:5259  function renounceOwnership() public virtual onlyOwner {\r... */\n      jump\t// out\n        /* \"transferActive.sol\":6188:6287  function balanceOf()external view returns (uint256) {\r... */\n    tag_37:\n        /* \"transferActive.sol\":6231:6238  uint256 */\n      0x00\n        /* \"transferActive.sol\":6258:6279  address(this).balance */\n      selfbalance\n        /* \"transferActive.sol\":6251:6279  return address(this).balance */\n      swap1\n      pop\n        /* \"transferActive.sol\":6188:6287  function balanceOf()external view returns (uint256) {\r... */\n      swap1\n      jump\t// out\n        /* \"transferActive.sol\":4508:4595  function owner() public view virtual returns (address) {\r... */\n    tag_41:\n        /* \"transferActive.sol\":4554:4561  address */\n      0x00\n        /* \"transferActive.sol\":4581:4587  _owner */\n      dup1\n      0x00\n      swap1\n      sload\n      swap1\n      0x0100\n      exp\n      swap1\n      div\n      0xffffffffffffffffffffffffffffffffffffffff\n      and\n        /* \"transferActive.sol\":4574:4587  return _owner */\n      swap1\n      pop\n        /* \"transferActive.sol\":4508:4595  function owner() public view virtual returns (address) {\r... */\n      swap1\n      jump\t// out\n        /* \"transferActive.sol\":6092:6140  mapping (address => uint256) public depositquota */\n    tag_47:\n      mstore(0x20, 0x03)\n      dup1\n      0x00\n      mstore\n      keccak256(0x00, 0x40)\n      0x00\n      swap2\n      pop\n      swap1\n      pop\n      sload\n      dup2\n      jump\t// out\n        /* \"transferActive.sol\":6406:6625  function deposit(uint256 amount) payable  external  returns(address,uint256){\r... */\n    tag_51:\n        /* \"transferActive.sol\":6466:6473  address */\n      0x00\n        /* \"transferActive.sol\":6474:6481  uint256 */\n      dup1\n        /* \"transferActive.sol\":6517:6529  _msgSender() */\n      tag_91\n        /* \"transferActive.sol\":6517:6527  _msgSender */\n      tag_92\n        /* \"transferActive.sol\":6517:6529  _msgSender() */\n      jump\t// in\n    tag_91:\n        /* \"transferActive.sol\":6493:6507  depositAddress */\n      0x02\n        /* \"transferActive.sol\":6493:6515  depositAddress[amount] */\n      0x00\n        /* \"transferActive.sol\":6508:6514  amount */\n      dup6\n        /* \"transferActive.sol\":6493:6515  depositAddress[amount] */\n      dup2\n      mstore\n      0x20\n      add\n      swap1\n      dup2\n      mstore\n      0x20\n      add\n      0x00\n      keccak256\n      0x00\n        /* \"transferActive.sol\":6493:6529  depositAddress[amount] =_msgSender() */\n      0x0100\n      exp\n      dup2\n      sload\n      dup2\n      0xffffffffffffffffffffffffffffffffffffffff\n      mul\n      not\n      and\n      swap1\n      dup4\n      0xffffffffffffffffffffffffffffffffffffffff\n      and\n      mul\n      or\n      swap1\n      sstore\n      pop\n        /* \"transferActive.sol\":6569:6578  msg.value */\n      callvalue\n        /* \"transferActive.sol\":6540:6552  depositquota */\n      0x03\n        /* \"transferActive.sol\":6540:6566  depositquota[_msgSender()] */\n      0x00\n        /* \"transferActive.sol\":6553:6565  _msgSender() */\n      tag_93\n        /* \"transferActive.sol\":6553:6563  _msgSender */\n      tag_92\n        /* \"transferActive.sol\":6553:6565  _msgSender() */\n      jump\t// in\n    tag_93:\n        /* \"transferActive.sol\":6540:6566  depositquota[_msgSender()] */\n      0xffffffffffffffffffffffffffffffffffffffff\n      and\n      0xffffffffffffffffffffffffffffffffffffffff\n      and\n      dup2\n      mstore\n      0x20\n      add\n      swap1\n      dup2\n      mstore\n      0x20\n      add\n      0x00\n      keccak256\n        /* \"transferActive.sol\":6540:6578  depositquota[_msgSender()] = msg.value */\n      dup2\n      swap1\n      sstore\n      pop\n        /* \"transferActive.sol\":6597:6609  _msgSender() */\n      tag_94\n        /* \"transferActive.sol\":6597:6607  _msgSender */\n      tag_92\n        /* \"transferActive.sol\":6597:6609  _msgSender() */\n      jump\t// in\n    tag_94:\n        /* \"transferActive.sol\":6610:6616  amount */\n      dup4\n        /* \"transferActive.sol\":6589:6617  return (_msgSender(),amount) */\n      swap2\n      pop\n      swap2\n      pop\n        /* \"transferActive.sol\":6406:6625  function deposit(uint256 amount) payable  external  returns(address,uint256){\r... */\n      swap2\n      pop\n      swap2\n      jump\t// out\n        /* \"transferActive.sol\":6036:6085  mapping (uint256 =>address) public depositAddress */\n    tag_57:\n      mstore(0x20, 0x02)\n      dup1\n      0x00\n      mstore\n      keccak256(0x00, 0x40)\n      0x00\n      swap2\n      pop\n      sload\n      swap1\n      0x0100\n      exp\n      swap1\n      div\n      0xffffffffffffffffffffffffffffffffffffffff\n      and\n      dup2\n      jump\t// out\n        /* \"transferActive.sol\":5414:5615  function transferOwnership(address newOwner) public virtual onlyOwner {\r... */\n    tag_62:\n        /* \"transferActive.sol\":4394:4407  _checkOwner() */\n      tag_96\n        /* \"transferActive.sol\":4394:4405  _checkOwner */\n      tag_72\n        /* \"transferActive.sol\":4394:4407  _checkOwner() */\n      jump\t// in\n    tag_96:\n        /* \"transferActive.sol\":5523:5524  0 */\n      0x00\n        /* \"transferActive.sol\":5503:5525  newOwner != address(0) */\n      0xffffffffffffffffffffffffffffffffffffffff\n      and\n        /* \"transferActive.sol\":5503:5511  newOwner */\n      dup2\n        /* \"transferActive.sol\":5503:5525  newOwner != address(0) */\n      0xffffffffffffffffffffffffffffffffffffffff\n      and\n      eq\n      iszero\n        /* \"transferActive.sol\":5495:5568  require(newOwner != address(0), \"Ownable: new owner is the zero address\") */\n      tag_98\n      jumpi\n      mload(0x40)\n      0x08c379a000000000000000000000000000000000000000000000000000000000\n      dup2\n      mstore\n      0x04\n      add\n      tag_99\n      swap1\n      tag_100\n      jump\t// in\n    tag_99:\n      mload(0x40)\n      dup1\n      swap2\n      sub\n      swap1\n      revert\n    tag_98:\n        /* \"transferActive.sol\":5579:5607  _transferOwnership(newOwner) */\n      tag_101\n        /* \"transferActive.sol\":5598:5606  newOwner */\n      dup2\n        /* \"transferActive.sol\":5579:5597  _transferOwnership */\n      tag_87\n        /* \"transferActive.sol\":5579:5607  _transferOwnership(newOwner) */\n      jump\t// in\n    tag_101:\n        /* \"transferActive.sol\":5414:5615  function transferOwnership(address newOwner) public virtual onlyOwner {\r... */\n      pop\n      jump\t// out\n        /* \"transferActive.sol\":6633:7132  function transfer(address[] memory recipients,uint256[] memory amounts) external  returns (bool) {\r... */\n    tag_67:\n        /* \"transferActive.sol\":6724:6728  bool */\n      0x00\n        /* \"transferActive.sol\":6741:6760  uint256 totalAmount */\n      dup1\n        /* \"transferActive.sol\":6763:6764  0 */\n      0x00\n        /* \"transferActive.sol\":6741:6764  uint256 totalAmount = 0 */\n      swap1\n      pop\n        /* \"transferActive.sol\":6775:6792  uint amountlength */\n      0x00\n        /* \"transferActive.sol\":6795:6802  amounts */\n      dup4\n        /* \"transferActive.sol\":6795:6809  amounts.length */\n      mload\n        /* \"transferActive.sol\":6775:6809  uint amountlength = amounts.length */\n      swap1\n      pop\n        /* \"transferActive.sol\":6825:6831  uint i */\n      0x00\n        /* \"transferActive.sol\":6820:6964  for (uint i= 0;i<amountlength;){\r... */\n    tag_103:\n        /* \"transferActive.sol\":6837:6849  amountlength */\n      dup2\n        /* \"transferActive.sol\":6835:6836  i */\n      dup2\n        /* \"transferActive.sol\":6835:6849  i<amountlength */\n      lt\n        /* \"transferActive.sol\":6820:6964  for (uint i= 0;i<amountlength;){\r... */\n      iszero\n      tag_104\n      jumpi\n        /* \"transferActive.sol\":6881:6888  amounts */\n      dup5\n        /* \"transferActive.sol\":6889:6890  i */\n      dup2\n        /* \"transferActive.sol\":6881:6891  amounts[i] */\n      dup2\n      mload\n      dup2\n      lt\n      tag_106\n      jumpi\n      tag_107\n      tag_108\n      jump\t// in\n    tag_107:\n    tag_106:\n      0x20\n      mul\n      0x20\n      add\n      add\n      mload\n        /* \"transferActive.sol\":6866:6891  totalAmount += amounts[i] */\n      dup4\n      tag_109\n      swap2\n      swap1\n      tag_110\n      jump\t// in\n    tag_109:\n      swap3\n      pop\n        /* \"transferActive.sol\":6934:6937  i++ */\n      dup1\n      dup1\n      0x01\n      add\n      swap2\n      pop\n      pop\n        /* \"transferActive.sol\":6820:6964  for (uint i= 0;i<amountlength;){\r... */\n      jump(tag_103)\n    tag_104:\n      pop\n        /* \"transferActive.sol\":6995:7017  getquota(_msgSender()) */\n      tag_111\n        /* \"transferActive.sol\":7004:7016  _msgSender() */\n      tag_112\n        /* \"transferActive.sol\":7004:7014  _msgSender */\n      tag_92\n        /* \"transferActive.sol\":7004:7016  _msgSender() */\n      jump\t// in\n    tag_112:\n        /* \"transferActive.sol\":6995:7003  getquota */\n      tag_22\n        /* \"transferActive.sol\":6995:7017  getquota(_msgSender()) */\n      jump\t// in\n    tag_111:\n        /* \"transferActive.sol\":6982:6993  totalAmount */\n      dup3\n        /* \"transferActive.sol\":6982:7017  totalAmount<=getquota(_msgSender()) */\n      gt\n      iszero\n        /* \"transferActive.sol\":6974:7056  require(totalAmount<=getquota(_msgSender()),\"Address Insufficient deposit amount\") */\n      tag_113\n      jumpi\n      mload(0x40)\n      0x08c379a000000000000000000000000000000000000000000000000000000000\n      dup2\n      mstore\n      0x04\n      add\n      tag_114\n      swap1\n      tag_115\n      jump\t// in\n    tag_114:\n      mload(0x40)\n      dup1\n      swap2\n      sub\n      swap1\n      revert\n    tag_113:\n        /* \"transferActive.sol\":7067:7102  _batchTransfer(recipients, amounts) */\n      tag_116\n        /* \"transferActive.sol\":7082:7092  recipients */\n      dup6\n        /* \"transferActive.sol\":7094:7101  amounts */\n      dup6\n        /* \"transferActive.sol\":7067:7081  _batchTransfer */\n      tag_117\n        /* \"transferActive.sol\":7067:7102  _batchTransfer(recipients, amounts) */\n      jump\t// in\n    tag_116:\n      pop\n        /* \"transferActive.sol\":7120:7124  true */\n      0x01\n        /* \"transferActive.sol\":7113:7124  return true */\n      swap3\n      pop\n      pop\n      pop\n        /* \"transferActive.sol\":6633:7132  function transfer(address[] memory recipients,uint256[] memory amounts) external  returns (bool) {\r... */\n      swap3\n      swap2\n      pop\n      pop\n      jump\t// out\n        /* \"transferActive.sol\":4673:4805  function _checkOwner() internal view virtual {\r... */\n    tag_72:\n        /* \"transferActive.sol\":4748:4760  _msgSender() */\n      tag_119\n        /* \"transferActive.sol\":4748:4758  _msgSender */\n      tag_92\n        /* \"transferActive.sol\":4748:4760  _msgSender() */\n      jump\t// in\n    tag_119:\n        /* \"transferActive.sol\":4737:4760  owner() == _msgSender() */\n      0xffffffffffffffffffffffffffffffffffffffff\n      and\n        /* \"transferActive.sol\":4737:4744  owner() */\n      tag_120\n        /* \"transferActive.sol\":4737:4742  owner */\n      tag_41\n        /* \"transferActive.sol\":4737:4744  owner() */\n      jump\t// in\n    tag_120:\n        /* \"transferActive.sol\":4737:4760  owner() == _msgSender() */\n      0xffffffffffffffffffffffffffffffffffffffff\n      and\n      eq\n        /* \"transferActive.sol\":4729:4797  require(owner() == _msgSender(), \"Ownable: caller is not the owner\") */\n      tag_121\n      jumpi\n      mload(0x40)\n      0x08c379a000000000000000000000000000000000000000000000000000000000\n      dup2\n      mstore\n      0x04\n      add\n      tag_122\n      swap1\n      tag_123\n      jump\t// in\n    tag_122:\n      mload(0x40)\n      dup1\n      swap2\n      sub\n      swap1\n      revert\n    tag_121:\n        /* \"transferActive.sol\":4673:4805  function _checkOwner() internal view virtual {\r... */\n      jump\t// out\n        /* \"transferActive.sol\":5775:5966  function _transferOwnership(address newOwner) internal virtual {\r... */\n    tag_87:\n        /* \"transferActive.sol\":5849:5865  address oldOwner */\n      0x00\n        /* \"transferActive.sol\":5868:5874  _owner */\n      dup1\n      0x00\n      swap1\n      sload\n      swap1\n      0x0100\n      exp\n      swap1\n      div\n      0xffffffffffffffffffffffffffffffffffffffff\n      and\n        /* \"transferActive.sol\":5849:5874  address oldOwner = _owner */\n      swap1\n      pop\n        /* \"transferActive.sol\":5894:5902  newOwner */\n      dup2\n        /* \"transferActive.sol\":5885:5891  _owner */\n      0x00\n      dup1\n        /* \"transferActive.sol\":5885:5902  _owner = newOwner */\n      0x0100\n      exp\n      dup2\n      sload\n      dup2\n      0xffffffffffffffffffffffffffffffffffffffff\n      mul\n      not\n      and\n      swap1\n      dup4\n      0xffffffffffffffffffffffffffffffffffffffff\n      and\n      mul\n      or\n      swap1\n      sstore\n      pop\n        /* \"transferActive.sol\":5949:5957  newOwner */\n      dup2\n        /* \"transferActive.sol\":5918:5958  OwnershipTransferred(oldOwner, newOwner) */\n      0xffffffffffffffffffffffffffffffffffffffff\n      and\n        /* \"transferActive.sol\":5939:5947  oldOwner */\n      dup2\n        /* \"transferActive.sol\":5918:5958  OwnershipTransferred(oldOwner, newOwner) */\n      0xffffffffffffffffffffffffffffffffffffffff\n      and\n      0x8be0079c531659141344cd1fd0a4f28419497f9722a3daafe3b4186f6b6457e0\n      mload(0x40)\n      mload(0x40)\n      dup1\n      swap2\n      sub\n      swap1\n      log3\n        /* \"transferActive.sol\":5838:5966  {\r... */\n      pop\n        /* \"transferActive.sol\":5775:5966  function _transferOwnership(address newOwner) internal virtual {\r... */\n      pop\n      jump\t// out\n        /* \"transferActive.sol\":3724:3822  function _msgSender() internal view virtual returns (address) {\r... */\n    tag_92:\n        /* \"transferActive.sol\":3777:3784  address */\n      0x00\n        /* \"transferActive.sol\":3804:3814  msg.sender */\n      caller\n        /* \"transferActive.sol\":3797:3814  return msg.sender */\n      swap1\n      pop\n        /* \"transferActive.sol\":3724:3822  function _msgSender() internal view virtual returns (address) {\r... */\n      swap1\n      jump\t// out\n        /* \"transferActive.sol\":7140:7689  function _batchTransfer(address[] memory recipients,uint256[] memory amounts) internal returns (bool){\r... */\n    tag_117:\n        /* \"transferActive.sol\":7236:7240  bool */\n      0x00\n        /* \"transferActive.sol\":7281:7288  amounts */\n      dup2\n        /* \"transferActive.sol\":7281:7295  amounts.length */\n      mload\n        /* \"transferActive.sol\":7260:7270  recipients */\n      dup4\n        /* \"transferActive.sol\":7260:7277  recipients.length */\n      mload\n        /* \"transferActive.sol\":7260:7295  recipients.length == amounts.length */\n      eq\n        /* \"transferActive.sol\":7252:7360  require(recipients.length == amounts.length, \"Number of recipients must be equal to the number of amounts.\") */\n      tag_127\n      jumpi\n      mload(0x40)\n      0x08c379a000000000000000000000000000000000000000000000000000000000\n      dup2\n      mstore\n      0x04\n      add\n      tag_128\n      swap1\n      tag_129\n      jump\t// in\n    tag_128:\n      mload(0x40)\n      dup1\n      swap2\n      sub\n      swap1\n      revert\n    tag_127:\n        /* \"transferActive.sol\":7371:7389  uint addresslength */\n      0x00\n        /* \"transferActive.sol\":7393:7403  recipients */\n      dup4\n        /* \"transferActive.sol\":7393:7410  recipients.length */\n      mload\n        /* \"transferActive.sol\":7371:7410  uint addresslength  = recipients.length */\n      swap1\n      pop\n        /* \"transferActive.sol\":7425:7431  uint i */\n      0x00\n        /* \"transferActive.sol\":7421:7660  for(uint i = 0 ;i<addresslength;){\r... */\n    tag_130:\n        /* \"transferActive.sol\":7439:7452  addresslength */\n      dup2\n        /* \"transferActive.sol\":7437:7438  i */\n      dup2\n        /* \"transferActive.sol\":7437:7452  i<addresslength */\n      lt\n        /* \"transferActive.sol\":7421:7660  for(uint i = 0 ;i<addresslength;){\r... */\n      iszero\n      tag_131\n      jumpi\n        /* \"transferActive.sol\":7470:7486  bool callSuccess */\n      0x00\n        /* \"transferActive.sol\":7492:7502  recipients */\n      dup6\n        /* \"transferActive.sol\":7503:7504  i */\n      dup3\n        /* \"transferActive.sol\":7492:7505  recipients[i] */\n      dup2\n      mload\n      dup2\n      lt\n      tag_133\n      jumpi\n      tag_134\n      tag_108\n      jump\t// in\n    tag_134:\n    tag_133:\n      0x20\n      mul\n      0x20\n      add\n      add\n      mload\n        /* \"transferActive.sol\":7492:7510  recipients[i].call */\n      0xffffffffffffffffffffffffffffffffffffffff\n      and\n        /* \"transferActive.sol\":7518:7525  amounts */\n      dup6\n        /* \"transferActive.sol\":7526:7527  i */\n      dup4\n        /* \"transferActive.sol\":7518:7528  amounts[i] */\n      dup2\n      mload\n      dup2\n      lt\n      tag_135\n      jumpi\n      tag_136\n      tag_108\n      jump\t// in\n    tag_136:\n    tag_135:\n      0x20\n      mul\n      0x20\n      add\n      add\n      mload\n        /* \"transferActive.sol\":7492:7533  recipients[i].call{value: amounts[i]}(\"\") */\n      mload(0x40)\n      tag_137\n      swap1\n      tag_75\n      jump\t// in\n    tag_137:\n      0x00\n      mload(0x40)\n      dup1\n      dup4\n      sub\n      dup2\n      dup6\n      dup8\n      gas\n      call\n      swap3\n      pop\n      pop\n      pop\n      returndatasize\n      dup1\n      0x00\n      dup2\n      eq\n      tag_140\n      jumpi\n      mload(0x40)\n      swap2\n      pop\n      and(add(returndatasize, 0x3f), not(0x1f))\n      dup3\n      add\n      0x40\n      mstore\n      returndatasize\n      dup3\n      mstore\n      returndatasize\n      0x00\n      0x20\n      dup5\n      add\n      returndatacopy\n      jump(tag_139)\n    tag_140:\n      0x60\n      swap2\n      pop\n    tag_139:\n      pop\n        /* \"transferActive.sol\":7469:7533  (bool callSuccess, ) = recipients[i].call{value: amounts[i]}(\"\") */\n      pop\n      swap1\n      pop\n        /* \"transferActive.sol\":7556:7567  callSuccess */\n      dup1\n        /* \"transferActive.sol\":7548:7587  require(callSuccess,\"transfer success\") */\n      tag_141\n      jumpi\n      mload(0x40)\n      0x08c379a000000000000000000000000000000000000000000000000000000000\n      dup2\n      mstore\n      0x04\n      add\n      tag_142\n      swap1\n      tag_143\n      jump\t// in\n    tag_142:\n      mload(0x40)\n      dup1\n      swap2\n      sub\n      swap1\n      revert\n    tag_141:\n        /* \"transferActive.sol\":7630:7633  i++ */\n      dup2\n      dup1\n      0x01\n      add\n      swap3\n      pop\n      pop\n        /* \"transferActive.sol\":7454:7660  {\r... */\n      pop\n        /* \"transferActive.sol\":7421:7660  for(uint i = 0 ;i<addresslength;){\r... */\n      jump(tag_130)\n    tag_131:\n      pop\n        /* \"transferActive.sol\":7677:7681  true */\n      0x01\n        /* \"transferActive.sol\":7670:7681  return true */\n      swap2\n      pop\n      pop\n        /* \"transferActive.sol\":7140:7689  function _batchTransfer(address[] memory recipients,uint256[] memory amounts) internal returns (bool){\r... */\n      swap3\n      swap2\n      pop\n      pop\n      jump\t// out\n        /* \"#utility.yul\":24:746   */\n    tag_145:\n        /* \"#utility.yul\":120:125   */\n      0x00\n        /* \"#utility.yul\":145:226   */\n      tag_147\n        /* \"#utility.yul\":161:225   */\n      tag_148\n        /* \"#utility.yul\":218:224   */\n      dup5\n        /* \"#utility.yul\":161:225   */\n      tag_149\n      jump\t// in\n    tag_148:\n        /* \"#utility.yul\":145:226   */\n      tag_150\n      jump\t// in\n    tag_147:\n        /* \"#utility.yul\":136:226   */\n      swap1\n      pop\n        /* \"#utility.yul\":246:251   */\n      dup1\n        /* \"#utility.yul\":275:281   */\n      dup4\n        /* \"#utility.yul\":268:273   */\n      dup3\n        /* \"#utility.yul\":261:282   */\n      mstore\n        /* \"#utility.yul\":309:313   */\n      0x20\n        /* \"#utility.yul\":302:307   */\n      dup3\n        /* \"#utility.yul\":298:314   */\n      add\n        /* \"#utility.yul\":291:314   */\n      swap1\n      pop\n        /* \"#utility.yul\":335:341   */\n      dup3\n        /* \"#utility.yul\":385:388   */\n      dup6\n        /* \"#utility.yul\":377:381   */\n      0x20\n        /* \"#utility.yul\":369:375   */\n      dup7\n        /* \"#utility.yul\":365:382   */\n      mul\n        /* \"#utility.yul\":360:363   */\n      dup3\n        /* \"#utility.yul\":356:383   */\n      add\n        /* \"#utility.yul\":353:389   */\n      gt\n        /* \"#utility.yul\":350:493   */\n      iszero\n      tag_151\n      jumpi\n        /* \"#utility.yul\":404:483   */\n      tag_152\n      tag_153\n      jump\t// in\n    tag_152:\n        /* \"#utility.yul\":350:493   */\n    tag_151:\n        /* \"#utility.yul\":517:518   */\n      0x00\n        /* \"#utility.yul\":502:740   */\n    tag_154:\n        /* \"#utility.yul\":527:533   */\n      dup6\n        /* \"#utility.yul\":524:525   */\n      dup2\n        /* \"#utility.yul\":521:534   */\n      lt\n        /* \"#utility.yul\":502:740   */\n      iszero\n      tag_156\n      jumpi\n        /* \"#utility.yul\":595:598   */\n      dup2\n        /* \"#utility.yul\":624:661   */\n      tag_157\n        /* \"#utility.yul\":657:660   */\n      dup9\n        /* \"#utility.yul\":645:655   */\n      dup3\n        /* \"#utility.yul\":624:661   */\n      tag_158\n      jump\t// in\n    tag_157:\n        /* \"#utility.yul\":619:622   */\n      dup5\n        /* \"#utility.yul\":612:662   */\n      mstore\n        /* \"#utility.yul\":691:695   */\n      0x20\n        /* \"#utility.yul\":686:689   */\n      dup5\n        /* \"#utility.yul\":682:696   */\n      add\n        /* \"#utility.yul\":675:696   */\n      swap4\n      pop\n        /* \"#utility.yul\":725:729   */\n      0x20\n        /* \"#utility.yul\":720:723   */\n      dup4\n        /* \"#utility.yul\":716:730   */\n      add\n        /* \"#utility.yul\":709:730   */\n      swap3\n      pop\n        /* \"#utility.yul\":562:740   */\n      pop\n        /* \"#utility.yul\":549:550   */\n      0x01\n        /* \"#utility.yul\":546:547   */\n      dup2\n        /* \"#utility.yul\":542:551   */\n      add\n        /* \"#utility.yul\":537:551   */\n      swap1\n      pop\n        /* \"#utility.yul\":502:740   */\n      jump(tag_154)\n    tag_156:\n        /* \"#utility.yul\":506:520   */\n      pop\n        /* \"#utility.yul\":126:746   */\n      pop\n      pop\n        /* \"#utility.yul\":24:746   */\n      swap4\n      swap3\n      pop\n      pop\n      pop\n      jump\t// out\n        /* \"#utility.yul\":769:1491   */\n    tag_159:\n        /* \"#utility.yul\":865:870   */\n      0x00\n        /* \"#utility.yul\":890:971   */\n      tag_161\n        /* \"#utility.yul\":906:970   */\n      tag_162\n        /* \"#utility.yul\":963:969   */\n      dup5\n        /* \"#utility.yul\":906:970   */\n      tag_163\n      jump\t// in\n    tag_162:\n        /* \"#utility.yul\":890:971   */\n      tag_150\n      jump\t// in\n    tag_161:\n        /* \"#utility.yul\":881:971   */\n      swap1\n      pop\n        /* \"#utility.yul\":991:996   */\n      dup1\n        /* \"#utility.yul\":1020:1026   */\n      dup4\n        /* \"#utility.yul\":1013:1018   */\n      dup3\n        /* \"#utility.yul\":1006:1027   */\n      mstore\n        /* \"#utility.yul\":1054:1058   */\n      0x20\n        /* \"#utility.yul\":1047:1052   */\n      dup3\n        /* \"#utility.yul\":1043:1059   */\n      add\n        /* \"#utility.yul\":1036:1059   */\n      swap1\n      pop\n        /* \"#utility.yul\":1080:1086   */\n      dup3\n        /* \"#utility.yul\":1130:1133   */\n      dup6\n        /* \"#utility.yul\":1122:1126   */\n      0x20\n        /* \"#utility.yul\":1114:1120   */\n      dup7\n        /* \"#utility.yul\":1110:1127   */\n      mul\n        /* \"#utility.yul\":1105:1108   */\n      dup3\n        /* \"#utility.yul\":1101:1128   */\n      add\n        /* \"#utility.yul\":1098:1134   */\n      gt\n        /* \"#utility.yul\":1095:1238   */\n      iszero\n      tag_164\n      jumpi\n        /* \"#utility.yul\":1149:1228   */\n      tag_165\n      tag_153\n      jump\t// in\n    tag_165:\n        /* \"#utility.yul\":1095:1238   */\n    tag_164:\n        /* \"#utility.yul\":1262:1263   */\n      0x00\n        /* \"#utility.yul\":1247:1485   */\n    tag_166:\n        /* \"#utility.yul\":1272:1278   */\n      dup6\n        /* \"#utility.yul\":1269:1270   */\n      dup2\n        /* \"#utility.yul\":1266:1279   */\n      lt\n        /* \"#utility.yul\":1247:1485   */\n      iszero\n      tag_168\n      jumpi\n        /* \"#utility.yul\":1340:1343   */\n      dup2\n        /* \"#utility.yul\":1369:1406   */\n      tag_169\n        /* \"#utility.yul\":1402:1405   */\n      dup9\n        /* \"#utility.yul\":1390:1400   */\n      dup3\n        /* \"#utility.yul\":1369:1406   */\n      tag_170\n      jump\t// in\n    tag_169:\n        /* \"#utility.yul\":1364:1367   */\n      dup5\n        /* \"#utility.yul\":1357:1407   */\n      mstore\n        /* \"#utility.yul\":1436:1440   */\n      0x20\n        /* \"#utility.yul\":1431:1434   */\n      dup5\n        /* \"#utility.yul\":1427:1441   */\n      add\n        /* \"#utility.yul\":1420:1441   */\n      swap4\n      pop\n        /* \"#utility.yul\":1470:1474   */\n      0x20\n        /* \"#utility.yul\":1465:1468   */\n      dup4\n        /* \"#utility.yul\":1461:1475   */\n      add\n        /* \"#utility.yul\":1454:1475   */\n      swap3\n      pop\n        /* \"#utility.yul\":1307:1485   */\n      pop\n        /* \"#utility.yul\":1294:1295   */\n      0x01\n        /* \"#utility.yul\":1291:1292   */\n      dup2\n        /* \"#utility.yul\":1287:1296   */\n      add\n        /* \"#utility.yul\":1282:1296   */\n      swap1\n      pop\n        /* \"#utility.yul\":1247:1485   */\n      jump(tag_166)\n    tag_168:\n        /* \"#utility.yul\":1251:1265   */\n      pop\n        /* \"#utility.yul\":871:1491   */\n      pop\n      pop\n        /* \"#utility.yul\":769:1491   */\n      swap4\n      swap3\n      pop\n      pop\n      pop\n      jump\t// out\n        /* \"#utility.yul\":1497:1636   */\n    tag_158:\n        /* \"#utility.yul\":1543:1548   */\n      0x00\n        /* \"#utility.yul\":1581:1587   */\n      dup2\n        /* \"#utility.yul\":1568:1588   */\n      calldataload\n        /* \"#utility.yul\":1559:1588   */\n      swap1\n      pop\n        /* \"#utility.yul\":1597:1630   */\n      tag_172\n        /* \"#utility.yul\":1624:1629   */\n      dup2\n        /* \"#utility.yul\":1597:1630   */\n      tag_173\n      jump\t// in\n    tag_172:\n        /* \"#utility.yul\":1497:1636   */\n      swap3\n      swap2\n      pop\n      pop\n      jump\t// out\n        /* \"#utility.yul\":1659:2029   */\n    tag_174:\n        /* \"#utility.yul\":1730:1735   */\n      0x00\n        /* \"#utility.yul\":1779:1782   */\n      dup3\n        /* \"#utility.yul\":1772:1776   */\n      0x1f\n        /* \"#utility.yul\":1764:1770   */\n      dup4\n        /* \"#utility.yul\":1760:1777   */\n      add\n        /* \"#utility.yul\":1756:1783   */\n      slt\n        /* \"#utility.yul\":1746:1868   */\n      tag_176\n      jumpi\n        /* \"#utility.yul\":1787:1866   */\n      tag_177\n      tag_178\n      jump\t// in\n    tag_177:\n        /* \"#utility.yul\":1746:1868   */\n    tag_176:\n        /* \"#utility.yul\":1904:1910   */\n      dup2\n        /* \"#utility.yul\":1891:1911   */\n      calldataload\n        /* \"#utility.yul\":1929:2023   */\n      tag_179\n        /* \"#utility.yul\":2019:2022   */\n      dup5\n        /* \"#utility.yul\":2011:2017   */\n      dup3\n        /* \"#utility.yul\":2004:2008   */\n      0x20\n        /* \"#utility.yul\":1996:2002   */\n      dup7\n        /* \"#utility.yul\":1992:2009   */\n      add\n        /* \"#utility.yul\":1929:2023   */\n      tag_145\n      jump\t// in\n    tag_179:\n        /* \"#utility.yul\":1920:2023   */\n      swap2\n      pop\n        /* \"#utility.yul\":1736:2029   */\n      pop\n        /* \"#utility.yul\":1659:2029   */\n      swap3\n      swap2\n      pop\n      pop\n      jump\t// out\n        /* \"#utility.yul\":2052:2422   */\n    tag_180:\n        /* \"#utility.yul\":2123:2128   */\n      0x00\n        /* \"#utility.yul\":2172:2175   */\n      dup3\n        /* \"#utility.yul\":2165:2169   */\n      0x1f\n        /* \"#utility.yul\":2157:2163   */\n      dup4\n        /* \"#utility.yul\":2153:2170   */\n      add\n        /* \"#utility.yul\":2149:2176   */\n      slt\n        /* \"#utility.yul\":2139:2261   */\n      tag_182\n      jumpi\n        /* \"#utility.yul\":2180:2259   */\n      tag_183\n      tag_178\n      jump\t// in\n    tag_183:\n        /* \"#utility.yul\":2139:2261   */\n    tag_182:\n        /* \"#utility.yul\":2297:2303   */\n      dup2\n        /* \"#utility.yul\":2284:2304   */\n      calldataload\n        /* \"#utility.yul\":2322:2416   */\n      tag_184\n        /* \"#utility.yul\":2412:2415   */\n      dup5\n        /* \"#utility.yul\":2404:2410   */\n      dup3\n        /* \"#utility.yul\":2397:2401   */\n      0x20\n        /* \"#utility.yul\":2389:2395   */\n      dup7\n        /* \"#utility.yul\":2385:2402   */\n      add\n        /* \"#utility.yul\":2322:2416   */\n      tag_159\n      jump\t// in\n    tag_184:\n        /* \"#utility.yul\":2313:2416   */\n      swap2\n      pop\n        /* \"#utility.yul\":2129:2422   */\n      pop\n        /* \"#utility.yul\":2052:2422   */\n      swap3\n      swap2\n      pop\n      pop\n      jump\t// out\n        /* \"#utility.yul\":2428:2567   */\n    tag_170:\n        /* \"#utility.yul\":2474:2479   */\n      0x00\n        /* \"#utility.yul\":2512:2518   */\n      dup2\n        /* \"#utility.yul\":2499:2519   */\n      calldataload\n        /* \"#utility.yul\":2490:2519   */\n      swap1\n      pop\n        /* \"#utility.yul\":2528:2561   */\n      tag_186\n        /* \"#utility.yul\":2555:2560   */\n      dup2\n        /* \"#utility.yul\":2528:2561   */\n      tag_187\n      jump\t// in\n    tag_186:\n        /* \"#utility.yul\":2428:2567   */\n      swap3\n      swap2\n      pop\n      pop\n      jump\t// out\n        /* \"#utility.yul\":2573:2902   */\n    tag_21:\n        /* \"#utility.yul\":2632:2638   */\n      0x00\n        /* \"#utility.yul\":2681:2683   */\n      0x20\n        /* \"#utility.yul\":2669:2678   */\n      dup3\n        /* \"#utility.yul\":2660:2667   */\n      dup5\n        /* \"#utility.yul\":2656:2679   */\n      sub\n        /* \"#utility.yul\":2652:2684   */\n      slt\n        /* \"#utility.yul\":2649:2768   */\n      iszero\n      tag_189\n      jumpi\n        /* \"#utility.yul\":2687:2766   */\n      tag_190\n      tag_191\n      jump\t// in\n    tag_190:\n        /* \"#utility.yul\":2649:2768   */\n    tag_189:\n        /* \"#utility.yul\":2807:2808   */\n      0x00\n        /* \"#utility.yul\":2832:2885   */\n      tag_192\n        /* \"#utility.yul\":2877:2884   */\n      dup5\n        /* \"#utility.yul\":2868:2874   */\n      dup3\n        /* \"#utility.yul\":2857:2866   */\n      dup6\n        /* \"#utility.yul\":2853:2875   */\n      add\n        /* \"#utility.yul\":2832:2885   */\n      tag_158\n      jump\t// in\n    tag_192:\n        /* \"#utility.yul\":2822:2885   */\n      swap2\n      pop\n        /* \"#utility.yul\":2778:2895   */\n      pop\n        /* \"#utility.yul\":2573:2902   */\n      swap3\n      swap2\n      pop\n      pop\n      jump\t// out\n        /* \"#utility.yul\":2908:3802   */\n    tag_66:\n        /* \"#utility.yul\":3026:3032   */\n      0x00\n        /* \"#utility.yul\":3034:3040   */\n      dup1\n        /* \"#utility.yul\":3083:3085   */\n      0x40\n        /* \"#utility.yul\":3071:3080   */\n      dup4\n        /* \"#utility.yul\":3062:3069   */\n      dup6\n        /* \"#utility.yul\":3058:3081   */\n      sub\n        /* \"#utility.yul\":3054:3086   */\n      slt\n        /* \"#utility.yul\":3051:3170   */\n      iszero\n      tag_194\n      jumpi\n        /* \"#utility.yul\":3089:3168   */\n      tag_195\n      tag_191\n      jump\t// in\n    tag_195:\n        /* \"#utility.yul\":3051:3170   */\n    tag_194:\n        /* \"#utility.yul\":3237:3238   */\n      0x00\n        /* \"#utility.yul\":3226:3235   */\n      dup4\n        /* \"#utility.yul\":3222:3239   */\n      add\n        /* \"#utility.yul\":3209:3240   */\n      calldataload\n        /* \"#utility.yul\":3267:3285   */\n      0xffffffffffffffff\n        /* \"#utility.yul\":3259:3265   */\n      dup2\n        /* \"#utility.yul\":3256:3286   */\n      gt\n        /* \"#utility.yul\":3253:3370   */\n      iszero\n      tag_196\n      jumpi\n        /* \"#utility.yul\":3289:3368   */\n      tag_197\n      tag_198\n      jump\t// in\n    tag_197:\n        /* \"#utility.yul\":3253:3370   */\n    tag_196:\n        /* \"#utility.yul\":3394:3472   */\n      tag_199\n        /* \"#utility.yul\":3464:3471   */\n      dup6\n        /* \"#utility.yul\":3455:3461   */\n      dup3\n        /* \"#utility.yul\":3444:3453   */\n      dup7\n        /* \"#utility.yul\":3440:3462   */\n      add\n        /* \"#utility.yul\":3394:3472   */\n      tag_174\n      jump\t// in\n    tag_199:\n        /* \"#utility.yul\":3384:3472   */\n      swap3\n      pop\n        /* \"#utility.yul\":3180:3482   */\n      pop\n        /* \"#utility.yul\":3549:3551   */\n      0x20\n        /* \"#utility.yul\":3538:3547   */\n      dup4\n        /* \"#utility.yul\":3534:3552   */\n      add\n        /* \"#utility.yul\":3521:3553   */\n      calldataload\n        /* \"#utility.yul\":3580:3598   */\n      0xffffffffffffffff\n        /* \"#utility.yul\":3572:3578   */\n      dup2\n        /* \"#utility.yul\":3569:3599   */\n      gt\n        /* \"#utility.yul\":3566:3683   */\n      iszero\n      tag_200\n      jumpi\n        /* \"#utility.yul\":3602:3681   */\n      tag_201\n      tag_198\n      jump\t// in\n    tag_201:\n        /* \"#utility.yul\":3566:3683   */\n    tag_200:\n        /* \"#utility.yul\":3707:3785   */\n      tag_202\n        /* \"#utility.yul\":3777:3784   */\n      dup6\n        /* \"#utility.yul\":3768:3774   */\n      dup3\n        /* \"#utility.yul\":3757:3766   */\n      dup7\n        /* \"#utility.yul\":3753:3775   */\n      add\n        /* \"#utility.yul\":3707:3785   */\n      tag_180\n      jump\t// in\n    tag_202:\n        /* \"#utility.yul\":3697:3785   */\n      swap2\n      pop\n        /* \"#utility.yul\":3492:3795   */\n      pop\n        /* \"#utility.yul\":2908:3802   */\n      swap3\n      pop\n      swap3\n      swap1\n      pop\n      jump\t// out\n        /* \"#utility.yul\":3808:4137   */\n    tag_28:\n        /* \"#utility.yul\":3867:3873   */\n      0x00\n        /* \"#utility.yul\":3916:3918   */\n      0x20\n        /* \"#utility.yul\":3904:3913   */\n      dup3\n        /* \"#utility.yul\":3895:3902   */\n      dup5\n        /* \"#utility.yul\":3891:3914   */\n      sub\n        /* \"#utility.yul\":3887:3919   */\n      slt\n        /* \"#utility.yul\":3884:4003   */\n      iszero\n      tag_204\n      jumpi\n        /* \"#utility.yul\":3922:4001   */\n      tag_205\n      tag_191\n      jump\t// in\n    tag_205:\n        /* \"#utility.yul\":3884:4003   */\n    tag_204:\n        /* \"#utility.yul\":4042:4043   */\n      0x00\n        /* \"#utility.yul\":4067:4120   */\n      tag_206\n        /* \"#utility.yul\":4112:4119   */\n      dup5\n        /* \"#utility.yul\":4103:4109   */\n      dup3\n        /* \"#utility.yul\":4092:4101   */\n      dup6\n        /* \"#utility.yul\":4088:4110   */\n      add\n        /* \"#utility.yul\":4067:4120   */\n      tag_170\n      jump\t// in\n    tag_206:\n        /* \"#utility.yul\":4057:4120   */\n      swap2\n      pop\n        /* \"#utility.yul\":4013:4130   */\n      pop\n        /* \"#utility.yul\":3808:4137   */\n      swap3\n      swap2\n      pop\n      pop\n      jump\t// out\n        /* \"#utility.yul\":4143:4261   */\n    tag_207:\n        /* \"#utility.yul\":4230:4254   */\n      tag_209\n        /* \"#utility.yul\":4248:4253   */\n      dup2\n        /* \"#utility.yul\":4230:4254   */\n      tag_210\n      jump\t// in\n    tag_209:\n        /* \"#utility.yul\":4225:4228   */\n      dup3\n        /* \"#utility.yul\":4218:4255   */\n      mstore\n        /* \"#utility.yul\":4143:4261   */\n      pop\n      pop\n      jump\t// out\n        /* \"#utility.yul\":4267:4376   */\n    tag_211:\n        /* \"#utility.yul\":4348:4369   */\n      tag_213\n        /* \"#utility.yul\":4363:4368   */\n      dup2\n        /* \"#utility.yul\":4348:4369   */\n      tag_214\n      jump\t// in\n    tag_213:\n        /* \"#utility.yul\":4343:4346   */\n      dup3\n        /* \"#utility.yul\":4336:4370   */\n      mstore\n        /* \"#utility.yul\":4267:4376   */\n      pop\n      pop\n      jump\t// out\n        /* \"#utility.yul\":4382:4748   */\n    tag_215:\n        /* \"#utility.yul\":4524:4527   */\n      0x00\n        /* \"#utility.yul\":4545:4612   */\n      tag_217\n        /* \"#utility.yul\":4609:4611   */\n      0x3c\n        /* \"#utility.yul\":4604:4607   */\n      dup4\n        /* \"#utility.yul\":4545:4612   */\n      tag_218\n      jump\t// in\n    tag_217:\n        /* \"#utility.yul\":4538:4612   */\n      swap2\n      pop\n        /* \"#utility.yul\":4621:4714   */\n      tag_219\n        /* \"#utility.yul\":4710:4713   */\n      dup3\n        /* \"#utility.yul\":4621:4714   */\n      tag_220\n      jump\t// in\n    tag_219:\n        /* \"#utility.yul\":4739:4741   */\n      0x40\n        /* \"#utility.yul\":4734:4737   */\n      dup3\n        /* \"#utility.yul\":4730:4742   */\n      add\n        /* \"#utility.yul\":4723:4742   */\n      swap1\n      pop\n        /* \"#utility.yul\":4382:4748   */\n      swap2\n      swap1\n      pop\n      jump\t// out\n        /* \"#utility.yul\":4754:5120   */\n    tag_221:\n        /* \"#utility.yul\":4896:4899   */\n      0x00\n        /* \"#utility.yul\":4917:4984   */\n      tag_223\n        /* \"#utility.yul\":4981:4983   */\n      0x26\n        /* \"#utility.yul\":4976:4979   */\n      dup4\n        /* \"#utility.yul\":4917:4984   */\n      tag_218\n      jump\t// in\n    tag_223:\n        /* \"#utility.yul\":4910:4984   */\n      swap2\n      pop\n        /* \"#utility.yul\":4993:5086   */\n      tag_224\n        /* \"#utility.yul\":5082:5085   */\n      dup3\n        /* \"#utility.yul\":4993:5086   */\n      tag_225\n      jump\t// in\n    tag_224:\n        /* \"#utility.yul\":5111:5113   */\n      0x40\n        /* \"#utility.yul\":5106:5109   */\n      dup3\n        /* \"#utility.yul\":5102:5114   */\n      add\n        /* \"#utility.yul\":5095:5114   */\n      swap1\n      pop\n        /* \"#utility.yul\":4754:5120   */\n      swap2\n      swap1\n      pop\n      jump\t// out\n        /* \"#utility.yul\":5126:5492   */\n    tag_226:\n        /* \"#utility.yul\":5268:5271   */\n      0x00\n        /* \"#utility.yul\":5289:5356   */\n      tag_228\n        /* \"#utility.yul\":5353:5355   */\n      0x20\n        /* \"#utility.yul\":5348:5351   */\n      dup4\n        /* \"#utility.yul\":5289:5356   */\n      tag_218\n      jump\t// in\n    tag_228:\n        /* \"#utility.yul\":5282:5356   */\n      swap2\n      pop\n        /* \"#utility.yul\":5365:5458   */\n      tag_229\n        /* \"#utility.yul\":5454:5457   */\n      dup3\n        /* \"#utility.yul\":5365:5458   */\n      tag_230\n      jump\t// in\n    tag_229:\n        /* \"#utility.yul\":5483:5485   */\n      0x20\n        /* \"#utility.yul\":5478:5481   */\n      dup3\n        /* \"#utility.yul\":5474:5486   */\n      add\n        /* \"#utility.yul\":5467:5486   */\n      swap1\n      pop\n        /* \"#utility.yul\":5126:5492   */\n      swap2\n      swap1\n      pop\n      jump\t// out\n        /* \"#utility.yul\":5498:5864   */\n    tag_231:\n        /* \"#utility.yul\":5640:5643   */\n      0x00\n        /* \"#utility.yul\":5661:5728   */\n      tag_233\n        /* \"#utility.yul\":5725:5727   */\n      0x23\n        /* \"#utility.yul\":5720:5723   */\n      dup4\n        /* \"#utility.yul\":5661:5728   */\n      tag_218\n      jump\t// in\n    tag_233:\n        /* \"#utility.yul\":5654:5728   */\n      swap2\n      pop\n        /* \"#utility.yul\":5737:5830   */\n      tag_234\n        /* \"#utility.yul\":5826:5829   */\n      dup3\n        /* \"#utility.yul\":5737:5830   */\n      tag_235\n      jump\t// in\n    tag_234:\n        /* \"#utility.yul\":5855:5857   */\n      0x40\n        /* \"#utility.yul\":5850:5853   */\n      dup3\n        /* \"#utility.yul\":5846:5858   */\n      add\n        /* \"#utility.yul\":5839:5858   */\n      swap1\n      pop\n        /* \"#utility.yul\":5498:5864   */\n      swap2\n      swap1\n      pop\n      jump\t// out\n        /* \"#utility.yul\":5870:6268   */\n    tag_236:\n        /* \"#utility.yul\":6029:6032   */\n      0x00\n        /* \"#utility.yul\":6050:6133   */\n      tag_238\n        /* \"#utility.yul\":6131:6132   */\n      0x00\n        /* \"#utility.yul\":6126:6129   */\n      dup4\n        /* \"#utility.yul\":6050:6133   */\n      tag_239\n      jump\t// in\n    tag_238:\n        /* \"#utility.yul\":6043:6133   */\n      swap2\n      pop\n        /* \"#utility.yul\":6142:6235   */\n      tag_240\n        /* \"#utility.yul\":6231:6234   */\n      dup3\n        /* \"#utility.yul\":6142:6235   */\n      tag_241\n      jump\t// in\n    tag_240:\n        /* \"#utility.yul\":6260:6261   */\n      0x00\n        /* \"#utility.yul\":6255:6258   */\n      dup3\n        /* \"#utility.yul\":6251:6262   */\n      add\n        /* \"#utility.yul\":6244:6262   */\n      swap1\n      pop\n        /* \"#utility.yul\":5870:6268   */\n      swap2\n      swap1\n      pop\n      jump\t// out\n        /* \"#utility.yul\":6274:6640   */\n    tag_242:\n        /* \"#utility.yul\":6416:6419   */\n      0x00\n        /* \"#utility.yul\":6437:6504   */\n      tag_244\n        /* \"#utility.yul\":6501:6503   */\n      0x10\n        /* \"#utility.yul\":6496:6499   */\n      dup4\n        /* \"#utility.yul\":6437:6504   */\n      tag_218\n      jump\t// in\n    tag_244:\n        /* \"#utility.yul\":6430:6504   */\n      swap2\n      pop\n        /* \"#utility.yul\":6513:6606   */\n      tag_245\n        /* \"#utility.yul\":6602:6605   */\n      dup3\n        /* \"#utility.yul\":6513:6606   */\n      tag_246\n      jump\t// in\n    tag_245:\n        /* \"#utility.yul\":6631:6633   */\n      0x20\n        /* \"#utility.yul\":6626:6629   */\n      dup3\n        /* \"#utility.yul\":6622:6634   */\n      add\n        /* \"#utility.yul\":6615:6634   */\n      swap1\n      pop\n        /* \"#utility.yul\":6274:6640   */\n      swap2\n      swap1\n      pop\n      jump\t// out\n        /* \"#utility.yul\":6646:7012   */\n    tag_247:\n        /* \"#utility.yul\":6788:6791   */\n      0x00\n        /* \"#utility.yul\":6809:6876   */\n      tag_249\n        /* \"#utility.yul\":6873:6875   */\n      0x0f\n        /* \"#utility.yul\":6868:6871   */\n      dup4\n        /* \"#utility.yul\":6809:6876   */\n      tag_218\n      jump\t// in\n    tag_249:\n        /* \"#utility.yul\":6802:6876   */\n      swap2\n      pop\n        /* \"#utility.yul\":6885:6978   */\n      tag_250\n        /* \"#utility.yul\":6974:6977   */\n      dup3\n        /* \"#utility.yul\":6885:6978   */\n      tag_251\n      jump\t// in\n    tag_250:\n        /* \"#utility.yul\":7003:7005   */\n      0x20\n        /* \"#utility.yul\":6998:7001   */\n      dup3\n        /* \"#utility.yul\":6994:7006   */\n      add\n        /* \"#utility.yul\":6987:7006   */\n      swap1\n      pop\n        /* \"#utility.yul\":6646:7012   */\n      swap2\n      swap1\n      pop\n      jump\t// out\n        /* \"#utility.yul\":7018:7136   */\n    tag_252:\n        /* \"#utility.yul\":7105:7129   */\n      tag_254\n        /* \"#utility.yul\":7123:7128   */\n      dup2\n        /* \"#utility.yul\":7105:7129   */\n      tag_255\n      jump\t// in\n    tag_254:\n        /* \"#utility.yul\":7100:7103   */\n      dup3\n        /* \"#utility.yul\":7093:7130   */\n      mstore\n        /* \"#utility.yul\":7018:7136   */\n      pop\n      pop\n      jump\t// out\n        /* \"#utility.yul\":7142:7521   */\n    tag_75:\n        /* \"#utility.yul\":7326:7329   */\n      0x00\n        /* \"#utility.yul\":7348:7495   */\n      tag_257\n        /* \"#utility.yul\":7491:7494   */\n      dup3\n        /* \"#utility.yul\":7348:7495   */\n      tag_236\n      jump\t// in\n    tag_257:\n        /* \"#utility.yul\":7341:7495   */\n      swap2\n      pop\n        /* \"#utility.yul\":7512:7515   */\n      dup2\n        /* \"#utility.yul\":7505:7515   */\n      swap1\n      pop\n        /* \"#utility.yul\":7142:7521   */\n      swap2\n      swap1\n      pop\n      jump\t// out\n        /* \"#utility.yul\":7527:7749   */\n    tag_43:\n        /* \"#utility.yul\":7620:7624   */\n      0x00\n        /* \"#utility.yul\":7658:7660   */\n      0x20\n        /* \"#utility.yul\":7647:7656   */\n      dup3\n        /* \"#utility.yul\":7643:7661   */\n      add\n        /* \"#utility.yul\":7635:7661   */\n      swap1\n      pop\n        /* \"#utility.yul\":7671:7742   */\n      tag_259\n        /* \"#utility.yul\":7739:7740   */\n      0x00\n        /* \"#utility.yul\":7728:7737   */\n      dup4\n        /* \"#utility.yul\":7724:7741   */\n      add\n        /* \"#utility.yul\":7715:7721   */\n      dup5\n        /* \"#utility.yul\":7671:7742   */\n      tag_207\n      jump\t// in\n    tag_259:\n        /* \"#utility.yul\":7527:7749   */\n      swap3\n      swap2\n      pop\n      pop\n      jump\t// out\n        /* \"#utility.yul\":7755:8087   */\n    tag_53:\n        /* \"#utility.yul\":7876:7880   */\n      0x00\n        /* \"#utility.yul\":7914:7916   */\n      0x40\n        /* \"#utility.yul\":7903:7912   */\n      dup3\n        /* \"#utility.yul\":7899:7917   */\n      add\n        /* \"#utility.yul\":7891:7917   */\n      swap1\n      pop\n        /* \"#utility.yul\":7927:7998   */\n      tag_261\n        /* \"#utility.yul\":7995:7996   */\n      0x00\n        /* \"#utility.yul\":7984:7993   */\n      dup4\n        /* \"#utility.yul\":7980:7997   */\n      add\n        /* \"#utility.yul\":7971:7977   */\n      dup6\n        /* \"#utility.yul\":7927:7998   */\n      tag_207\n      jump\t// in\n    tag_261:\n        /* \"#utility.yul\":8008:8080   */\n      tag_262\n        /* \"#utility.yul\":8076:8078   */\n      0x20\n        /* \"#utility.yul\":8065:8074   */\n      dup4\n        /* \"#utility.yul\":8061:8079   */\n      add\n        /* \"#utility.yul\":8052:8058   */\n      dup5\n        /* \"#utility.yul\":8008:8080   */\n      tag_252\n      jump\t// in\n    tag_262:\n        /* \"#utility.yul\":7755:8087   */\n      swap4\n      swap3\n      pop\n      pop\n      pop\n      jump\t// out\n        /* \"#utility.yul\":8093:8303   */\n    tag_31:\n        /* \"#utility.yul\":8180:8184   */\n      0x00\n        /* \"#utility.yul\":8218:8220   */\n      0x20\n        /* \"#utility.yul\":8207:8216   */\n      dup3\n        /* \"#utility.yul\":8203:8221   */\n      add\n        /* \"#utility.yul\":8195:8221   */\n      swap1\n      pop\n        /* \"#utility.yul\":8231:8296   */\n      tag_264\n        /* \"#utility.yul\":8293:8294   */\n      0x00\n        /* \"#utility.yul\":8282:8291   */\n      dup4\n        /* \"#utility.yul\":8278:8295   */\n      add\n        /* \"#utility.yul\":8269:8275   */\n      dup5\n        /* \"#utility.yul\":8231:8296   */\n      tag_211\n      jump\t// in\n    tag_264:\n        /* \"#utility.yul\":8093:8303   */\n      swap3\n      swap2\n      pop\n      pop\n      jump\t// out\n        /* \"#utility.yul\":8309:8728   */\n    tag_129:\n        /* \"#utility.yul\":8475:8479   */\n      0x00\n        /* \"#utility.yul\":8513:8515   */\n      0x20\n        /* \"#utility.yul\":8502:8511   */\n      dup3\n        /* \"#utility.yul\":8498:8516   */\n      add\n        /* \"#utility.yul\":8490:8516   */\n      swap1\n      pop\n        /* \"#utility.yul\":8562:8571   */\n      dup2\n        /* \"#utility.yul\":8556:8560   */\n      dup2\n        /* \"#utility.yul\":8552:8572   */\n      sub\n        /* \"#utility.yul\":8548:8549   */\n      0x00\n        /* \"#utility.yul\":8537:8546   */\n      dup4\n        /* \"#utility.yul\":8533:8550   */\n      add\n        /* \"#utility.yul\":8526:8573   */\n      mstore\n        /* \"#utility.yul\":8590:8721   */\n      tag_266\n        /* \"#utility.yul\":8716:8720   */\n      dup2\n        /* \"#utility.yul\":8590:8721   */\n      tag_215\n      jump\t// in\n    tag_266:\n        /* \"#utility.yul\":8582:8721   */\n      swap1\n      pop\n        /* \"#utility.yul\":8309:8728   */\n      swap2\n      swap1\n      pop\n      jump\t// out\n        /* \"#utility.yul\":8734:9153   */\n    tag_100:\n        /* \"#utility.yul\":8900:8904   */\n      0x00\n        /* \"#utility.yul\":8938:8940   */\n      0x20\n        /* \"#utility.yul\":8927:8936   */\n      dup3\n        /* \"#utility.yul\":8923:8941   */\n      add\n        /* \"#utility.yul\":8915:8941   */\n      swap1\n      pop\n        /* \"#utility.yul\":8987:8996   */\n      dup2\n        /* \"#utility.yul\":8981:8985   */\n      dup2\n        /* \"#utility.yul\":8977:8997   */\n      sub\n        /* \"#utility.yul\":8973:8974   */\n      0x00\n        /* \"#utility.yul\":8962:8971   */\n      dup4\n        /* \"#utility.yul\":8958:8975   */\n      add\n        /* \"#utility.yul\":8951:8998   */\n      mstore\n        /* \"#utility.yul\":9015:9146   */\n      tag_268\n        /* \"#utility.yul\":9141:9145   */\n      dup2\n        /* \"#utility.yul\":9015:9146   */\n      tag_221\n      jump\t// in\n    tag_268:\n        /* \"#utility.yul\":9007:9146   */\n      swap1\n      pop\n        /* \"#utility.yul\":8734:9153   */\n      swap2\n      swap1\n      pop\n      jump\t// out\n        /* \"#utility.yul\":9159:9578   */\n    tag_123:\n        /* \"#utility.yul\":9325:9329   */\n      0x00\n        /* \"#utility.yul\":9363:9365   */\n      0x20\n        /* \"#utility.yul\":9352:9361   */\n      dup3\n        /* \"#utility.yul\":9348:9366   */\n      add\n        /* \"#utility.yul\":9340:9366   */\n      swap1\n      pop\n        /* \"#utility.yul\":9412:9421   */\n      dup2\n        /* \"#utility.yul\":9406:9410   */\n      dup2\n        /* \"#utility.yul\":9402:9422   */\n      sub\n        /* \"#utility.yul\":9398:9399   */\n      0x00\n        /* \"#utility.yul\":9387:9396   */\n      dup4\n        /* \"#utility.yul\":9383:9400   */\n      add\n        /* \"#utility.yul\":9376:9423   */\n      mstore\n        /* \"#utility.yul\":9440:9571   */\n      tag_270\n        /* \"#utility.yul\":9566:9570   */\n      dup2\n        /* \"#utility.yul\":9440:9571   */\n      tag_226\n      jump\t// in\n    tag_270:\n        /* \"#utility.yul\":9432:9571   */\n      swap1\n      pop\n        /* \"#utility.yul\":9159:9578   */\n      swap2\n      swap1\n      pop\n      jump\t// out\n        /* \"#utility.yul\":9584:10003   */\n    tag_115:\n        /* \"#utility.yul\":9750:9754   */\n      0x00\n        /* \"#utility.yul\":9788:9790   */\n      0x20\n        /* \"#utility.yul\":9777:9786   */\n      dup3\n        /* \"#utility.yul\":9773:9791   */\n      add\n        /* \"#utility.yul\":9765:9791   */\n      swap1\n      pop\n        /* \"#utility.yul\":9837:9846   */\n      dup2\n        /* \"#utility.yul\":9831:9835   */\n      dup2\n        /* \"#utility.yul\":9827:9847   */\n      sub\n        /* \"#utility.yul\":9823:9824   */\n      0x00\n        /* \"#utility.yul\":9812:9821   */\n      dup4\n        /* \"#utility.yul\":9808:9825   */\n      add\n        /* \"#utility.yul\":9801:9848   */\n      mstore\n        /* \"#utility.yul\":9865:9996   */\n      tag_272\n        /* \"#utility.yul\":9991:9995   */\n      dup2\n        /* \"#utility.yul\":9865:9996   */\n      tag_231\n      jump\t// in\n    tag_272:\n        /* \"#utility.yul\":9857:9996   */\n      swap1\n      pop\n        /* \"#utility.yul\":9584:10003   */\n      swap2\n      swap1\n      pop\n      jump\t// out\n        /* \"#utility.yul\":10009:10428   */\n    tag_143:\n        /* \"#utility.yul\":10175:10179   */\n      0x00\n        /* \"#utility.yul\":10213:10215   */\n      0x20\n        /* \"#utility.yul\":10202:10211   */\n      dup3\n        /* \"#utility.yul\":10198:10216   */\n      add\n        /* \"#utility.yul\":10190:10216   */\n      swap1\n      pop\n        /* \"#utility.yul\":10262:10271   */\n      dup2\n        /* \"#utility.yul\":10256:10260   */\n      dup2\n        /* \"#utility.yul\":10252:10272   */\n      sub\n        /* \"#utility.yul\":10248:10249   */\n      0x00\n        /* \"#utility.yul\":10237:10246   */\n      dup4\n        /* \"#utility.yul\":10233:10250   */\n      add\n        /* \"#utility.yul\":10226:10273   */\n      mstore\n        /* \"#utility.yul\":10290:10421   */\n      tag_274\n        /* \"#utility.yul\":10416:10420   */\n      dup2\n        /* \"#utility.yul\":10290:10421   */\n      tag_242\n      jump\t// in\n    tag_274:\n        /* \"#utility.yul\":10282:10421   */\n      swap1\n      pop\n        /* \"#utility.yul\":10009:10428   */\n      swap2\n      swap1\n      pop\n      jump\t// out\n        /* \"#utility.yul\":10434:10853   */\n    tag_81:\n        /* \"#utility.yul\":10600:10604   */\n      0x00\n        /* \"#utility.yul\":10638:10640   */\n      0x20\n        /* \"#utility.yul\":10627:10636   */\n      dup3\n        /* \"#utility.yul\":10623:10641   */\n      add\n        /* \"#utility.yul\":10615:10641   */\n      swap1\n      pop\n        /* \"#utility.yul\":10687:10696   */\n      dup2\n        /* \"#utility.yul\":10681:10685   */\n      dup2\n        /* \"#utility.yul\":10677:10697   */\n      sub\n        /* \"#utility.yul\":10673:10674   */\n      0x00\n        /* \"#utility.yul\":10662:10671   */\n      dup4\n        /* \"#utility.yul\":10658:10675   */\n      add\n        /* \"#utility.yul\":10651:10698   */\n      mstore\n        /* \"#utility.yul\":10715:10846   */\n      tag_276\n        /* \"#utility.yul\":10841:10845   */\n      dup2\n        /* \"#utility.yul\":10715:10846   */\n      tag_247\n      jump\t// in\n    tag_276:\n        /* \"#utility.yul\":10707:10846   */\n      swap1\n      pop\n        /* \"#utility.yul\":10434:10853   */\n      swap2\n      swap1\n      pop\n      jump\t// out\n        /* \"#utility.yul\":10859:11081   */\n    tag_24:\n        /* \"#utility.yul\":10952:10956   */\n      0x00\n        /* \"#utility.yul\":10990:10992   */\n      0x20\n        /* \"#utility.yul\":10979:10988   */\n      dup3\n        /* \"#utility.yul\":10975:10993   */\n      add\n        /* \"#utility.yul\":10967:10993   */\n      swap1\n      pop\n        /* \"#utility.yul\":11003:11074   */\n      tag_278\n        /* \"#utility.yul\":11071:11072   */\n      0x00\n        /* \"#utility.yul\":11060:11069   */\n      dup4\n        /* \"#utility.yul\":11056:11073   */\n      add\n        /* \"#utility.yul\":11047:11053   */\n      dup5\n        /* \"#utility.yul\":11003:11074   */\n      tag_252\n      jump\t// in\n    tag_278:\n        /* \"#utility.yul\":10859:11081   */\n      swap3\n      swap2\n      pop\n      pop\n      jump\t// out\n        /* \"#utility.yul\":11087:11216   */\n    tag_150:\n        /* \"#utility.yul\":11121:11127   */\n      0x00\n        /* \"#utility.yul\":11148:11168   */\n      tag_280\n      tag_281\n      jump\t// in\n    tag_280:\n        /* \"#utility.yul\":11138:11168   */\n      swap1\n      pop\n        /* \"#utility.yul\":11177:11210   */\n      tag_282\n        /* \"#utility.yul\":11205:11209   */\n      dup3\n        /* \"#utility.yul\":11197:11203   */\n      dup3\n        /* \"#utility.yul\":11177:11210   */\n      tag_283\n      jump\t// in\n    tag_282:\n        /* \"#utility.yul\":11087:11216   */\n      swap2\n      swap1\n      pop\n      jump\t// out\n        /* \"#utility.yul\":11222:11297   */\n    tag_281:\n        /* \"#utility.yul\":11255:11261   */\n      0x00\n        /* \"#utility.yul\":11288:11290   */\n      0x40\n        /* \"#utility.yul\":11282:11291   */\n      mload\n        /* \"#utility.yul\":11272:11291   */\n      swap1\n      pop\n        /* \"#utility.yul\":11222:11297   */\n      swap1\n      jump\t// out\n        /* \"#utility.yul\":11303:11614   */\n    tag_149:\n        /* \"#utility.yul\":11380:11384   */\n      0x00\n        /* \"#utility.yul\":11470:11488   */\n      0xffffffffffffffff\n        /* \"#utility.yul\":11462:11468   */\n      dup3\n        /* \"#utility.yul\":11459:11489   */\n      gt\n        /* \"#utility.yul\":11456:11512   */\n      iszero\n      tag_286\n      jumpi\n        /* \"#utility.yul\":11492:11510   */\n      tag_287\n      tag_288\n      jump\t// in\n    tag_287:\n        /* \"#utility.yul\":11456:11512   */\n    tag_286:\n        /* \"#utility.yul\":11542:11546   */\n      0x20\n        /* \"#utility.yul\":11534:11540   */\n      dup3\n        /* \"#utility.yul\":11530:11547   */\n      mul\n        /* \"#utility.yul\":11522:11547   */\n      swap1\n      pop\n        /* \"#utility.yul\":11602:11606   */\n      0x20\n        /* \"#utility.yul\":11596:11600   */\n      dup2\n        /* \"#utility.yul\":11592:11607   */\n      add\n        /* \"#utility.yul\":11584:11607   */\n      swap1\n      pop\n        /* \"#utility.yul\":11303:11614   */\n      swap2\n      swap1\n      pop\n      jump\t// out\n        /* \"#utility.yul\":11620:11931   */\n    tag_163:\n        /* \"#utility.yul\":11697:11701   */\n      0x00\n        /* \"#utility.yul\":11787:11805   */\n      0xffffffffffffffff\n        /* \"#utility.yul\":11779:11785   */\n      dup3\n        /* \"#utility.yul\":11776:11806   */\n      gt\n        /* \"#utility.yul\":11773:11829   */\n      iszero\n      tag_290\n      jumpi\n        /* \"#utility.yul\":11809:11827   */\n      tag_291\n      tag_288\n      jump\t// in\n    tag_291:\n        /* \"#utility.yul\":11773:11829   */\n    tag_290:\n        /* \"#utility.yul\":11859:11863   */\n      0x20\n        /* \"#utility.yul\":11851:11857   */\n      dup3\n        /* \"#utility.yul\":11847:11864   */\n      mul\n        /* \"#utility.yul\":11839:11864   */\n      swap1\n      pop\n        /* \"#utility.yul\":11919:11923   */\n      0x20\n        /* \"#utility.yul\":11913:11917   */\n      dup2\n        /* \"#utility.yul\":11909:11924   */\n      add\n        /* \"#utility.yul\":11901:11924   */\n      swap1\n      pop\n        /* \"#utility.yul\":11620:11931   */\n      swap2\n      swap1\n      pop\n      jump\t// out\n        /* \"#utility.yul\":11937:12084   */\n    tag_239:\n        /* \"#utility.yul\":12038:12049   */\n      0x00\n        /* \"#utility.yul\":12075:12078   */\n      dup2\n        /* \"#utility.yul\":12060:12078   */\n      swap1\n      pop\n        /* \"#utility.yul\":11937:12084   */\n      swap3\n      swap2\n      pop\n      pop\n      jump\t// out\n        /* \"#utility.yul\":12090:12259   */\n    tag_218:\n        /* \"#utility.yul\":12174:12185   */\n      0x00\n        /* \"#utility.yul\":12208:12214   */\n      dup3\n        /* \"#utility.yul\":12203:12206   */\n      dup3\n        /* \"#utility.yul\":12196:12215   */\n      mstore\n        /* \"#utility.yul\":12248:12252   */\n      0x20\n        /* \"#utility.yul\":12243:12246   */\n      dup3\n        /* \"#utility.yul\":12239:12253   */\n      add\n        /* \"#utility.yul\":12224:12253   */\n      swap1\n      pop\n        /* \"#utility.yul\":12090:12259   */\n      swap3\n      swap2\n      pop\n      pop\n      jump\t// out\n        /* \"#utility.yul\":12265:12570   */\n    tag_110:\n        /* \"#utility.yul\":12305:12308   */\n      0x00\n        /* \"#utility.yul\":12324:12344   */\n      tag_295\n        /* \"#utility.yul\":12342:12343   */\n      dup3\n        /* \"#utility.yul\":12324:12344   */\n      tag_255\n      jump\t// in\n    tag_295:\n        /* \"#utility.yul\":12319:12344   */\n      swap2\n      pop\n        /* \"#utility.yul\":12358:12378   */\n      tag_296\n        /* \"#utility.yul\":12376:12377   */\n      dup4\n        /* \"#utility.yul\":12358:12378   */\n      tag_255\n      jump\t// in\n    tag_296:\n        /* \"#utility.yul\":12353:12378   */\n      swap3\n      pop\n        /* \"#utility.yul\":12512:12513   */\n      dup3\n        /* \"#utility.yul\":12444:12510   */\n      0xffffffffffffffffffffffffffffffffffffffffffffffffffffffffffffffff\n        /* \"#utility.yul\":12440:12514   */\n      sub\n        /* \"#utility.yul\":12437:12438   */\n      dup3\n        /* \"#utility.yul\":12434:12515   */\n      gt\n        /* \"#utility.yul\":12431:12538   */\n      iszero\n      tag_297\n      jumpi\n        /* \"#utility.yul\":12518:12536   */\n      tag_298\n      tag_299\n      jump\t// in\n    tag_298:\n        /* \"#utility.yul\":12431:12538   */\n    tag_297:\n        /* \"#utility.yul\":12562:12563   */\n      dup3\n        /* \"#utility.yul\":12559:12560   */\n      dup3\n        /* \"#utility.yul\":12555:12564   */\n      add\n        /* \"#utility.yul\":12548:12564   */\n      swap1\n      pop\n        /* \"#utility.yul\":12265:12570   */\n      swap3\n      swap2\n      pop\n      pop\n      jump\t// out\n        /* \"#utility.yul\":12576:12672   */\n    tag_210:\n        /* \"#utility.yul\":12613:12620   */\n      0x00\n        /* \"#utility.yul\":12642:12666   */\n      tag_301\n        /* \"#utility.yul\":12660:12665   */\n      dup3\n        /* \"#utility.yul\":12642:12666   */\n      tag_302\n      jump\t// in\n    tag_301:\n        /* \"#utility.yul\":12631:12666   */\n      swap1\n      pop\n        /* \"#utility.yul\":12576:12672   */\n      swap2\n      swap1\n      pop\n      jump\t// out\n        /* \"#utility.yul\":12678:12768   */\n    tag_214:\n        /* \"#utility.yul\":12712:12719   */\n      0x00\n        /* \"#utility.yul\":12755:12760   */\n      dup2\n        /* \"#utility.yul\":12748:12761   */\n      iszero\n        /* \"#utility.yul\":12741:12762   */\n      iszero\n        /* \"#utility.yul\":12730:12762   */\n      swap1\n      pop\n        /* \"#utility.yul\":12678:12768   */\n      swap2\n      swap1\n      pop\n      jump\t// out\n        /* \"#utility.yul\":12774:12900   */\n    tag_302:\n        /* \"#utility.yul\":12811:12818   */\n      0x00\n        /* \"#utility.yul\":12851:12893   */\n      0xffffffffffffffffffffffffffffffffffffffff\n        /* \"#utility.yul\":12844:12849   */\n      dup3\n        /* \"#utility.yul\":12840:12894   */\n      and\n        /* \"#utility.yul\":12829:12894   */\n      swap1\n      pop\n        /* \"#utility.yul\":12774:12900   */\n      swap2\n      swap1\n      pop\n      jump\t// out\n        /* \"#utility.yul\":12906:12983   */\n    tag_255:\n        /* \"#utility.yul\":12943:12950   */\n      0x00\n        /* \"#utility.yul\":12972:12977   */\n      dup2\n        /* \"#utility.yul\":12961:12977   */\n      swap1\n      pop\n        /* \"#utility.yul\":12906:12983   */\n      swap2\n      swap1\n      pop\n      jump\t// out\n        /* \"#utility.yul\":12989:13270   */\n    tag_283:\n        /* \"#utility.yul\":13072:13099   */\n      tag_307\n        /* \"#utility.yul\":13094:13098   */\n      dup3\n        /* \"#utility.yul\":13072:13099   */\n      tag_308\n      jump\t// in\n    tag_307:\n        /* \"#utility.yul\":13064:13070   */\n      dup2\n        /* \"#utility.yul\":13060:13100   */\n      add\n        /* \"#utility.yul\":13202:13208   */\n      dup2\n        /* \"#utility.yul\":13190:13200   */\n      dup2\n        /* \"#utility.yul\":13187:13209   */\n      lt\n        /* \"#utility.yul\":13166:13184   */\n      0xffffffffffffffff\n        /* \"#utility.yul\":13154:13164   */\n      dup3\n        /* \"#utility.yul\":13151:13185   */\n      gt\n        /* \"#utility.yul\":13148:13210   */\n      or\n        /* \"#utility.yul\":13145:13233   */\n      iszero\n      tag_309\n      jumpi\n        /* \"#utility.yul\":13213:13231   */\n      tag_310\n      tag_288\n      jump\t// in\n    tag_310:\n        /* \"#utility.yul\":13145:13233   */\n    tag_309:\n        /* \"#utility.yul\":13253:13263   */\n      dup1\n        /* \"#utility.yul\":13249:13251   */\n      0x40\n        /* \"#utility.yul\":13242:13264   */\n      mstore\n        /* \"#utility.yul\":13032:13270   */\n      pop\n        /* \"#utility.yul\":12989:13270   */\n      pop\n      pop\n      jump\t// out\n        /* \"#utility.yul\":13276:13456   */\n    tag_299:\n        /* \"#utility.yul\":13324:13401   */\n      0x4e487b7100000000000000000000000000000000000000000000000000000000\n        /* \"#utility.yul\":13321:13322   */\n      0x00\n        /* \"#utility.yul\":13314:13402   */\n      mstore\n        /* \"#utility.yul\":13421:13425   */\n      0x11\n        /* \"#utility.yul\":13418:13419   */\n      0x04\n        /* \"#utility.yul\":13411:13426   */\n      mstore\n        /* \"#utility.yul\":13445:13449   */\n      0x24\n        /* \"#utility.yul\":13442:13443   */\n      0x00\n        /* \"#utility.yul\":13435:13450   */\n      revert\n        /* \"#utility.yul\":13462:13642   */\n    tag_108:\n        /* \"#utility.yul\":13510:13587   */\n      0x4e487b7100000000000000000000000000000000000000000000000000000000\n        /* \"#utility.yul\":13507:13508   */\n      0x00\n        /* \"#utility.yul\":13500:13588   */\n      mstore\n        /* \"#utility.yul\":13607:13611   */\n      0x32\n        /* \"#utility.yul\":13604:13605   */\n      0x04\n        /* \"#utility.yul\":13597:13612   */\n      mstore\n        /* \"#utility.yul\":13631:13635   */\n      0x24\n        /* \"#utility.yul\":13628:13629   */\n      0x00\n        /* \"#utility.yul\":13621:13636   */\n      revert\n        /* \"#utility.yul\":13648:13828   */\n    tag_288:\n        /* \"#utility.yul\":13696:13773   */\n      0x4e487b7100000000000000000000000000000000000000000000000000000000\n        /* \"#utility.yul\":13693:13694   */\n      0x00\n        /* \"#utility.yul\":13686:13774   */\n      mstore\n        /* \"#utility.yul\":13793:13797   */\n      0x41\n        /* \"#utility.yul\":13790:13791   */\n      0x04\n        /* \"#utility.yul\":13783:13798   */\n      mstore\n        /* \"#utility.yul\":13817:13821   */\n      0x24\n        /* \"#utility.yul\":13814:13815   */\n      0x00\n        /* \"#utility.yul\":13807:13822   */\n      revert\n        /* \"#utility.yul\":13834:13951   */\n    tag_178:\n        /* \"#utility.yul\":13943:13944   */\n      0x00\n        /* \"#utility.yul\":13940:13941   */\n      dup1\n        /* \"#utility.yul\":13933:13945   */\n      revert\n        /* \"#utility.yul\":13957:14074   */\n    tag_153:\n        /* \"#utility.yul\":14066:14067   */\n      0x00\n        /* \"#utility.yul\":14063:14064   */\n      dup1\n        /* \"#utility.yul\":14056:14068   */\n      revert\n        /* \"#utility.yul\":14080:14197   */\n    tag_198:\n        /* \"#utility.yul\":14189:14190   */\n      0x00\n        /* \"#utility.yul\":14186:14187   */\n      dup1\n        /* \"#utility.yul\":14179:14191   */\n      revert\n        /* \"#utility.yul\":14203:14320   */\n    tag_191:\n        /* \"#utility.yul\":14312:14313   */\n      0x00\n        /* \"#utility.yul\":14309:14310   */\n      dup1\n        /* \"#utility.yul\":14302:14314   */\n      revert\n        /* \"#utility.yul\":14326:14428   */\n    tag_308:\n        /* \"#utility.yul\":14367:14373   */\n      0x00\n        /* \"#utility.yul\":14418:14420   */\n      0x1f\n        /* \"#utility.yul\":14414:14421   */\n      not\n        /* \"#utility.yul\":14409:14411   */\n      0x1f\n        /* \"#utility.yul\":14402:14407   */\n      dup4\n        /* \"#utility.yul\":14398:14412   */\n      add\n        /* \"#utility.yul\":14394:14422   */\n      and\n        /* \"#utility.yul\":14384:14422   */\n      swap1\n      pop\n        /* \"#utility.yul\":14326:14428   */\n      swap2\n      swap1\n      pop\n      jump\t// out\n        /* \"#utility.yul\":14434:14681   */\n    tag_220:\n        /* \"#utility.yul\":14574:14608   */\n      0x4e756d626572206f6620726563697069656e7473206d75737420626520657175\n        /* \"#utility.yul\":14570:14571   */\n      0x00\n        /* \"#utility.yul\":14562:14568   */\n      dup3\n        /* \"#utility.yul\":14558:14572   */\n      add\n        /* \"#utility.yul\":14551:14609   */\n      mstore\n        /* \"#utility.yul\":14643:14673   */\n      0x616c20746f20746865206e756d626572206f6620616d6f756e74732e00000000\n        /* \"#utility.yul\":14638:14640   */\n      0x20\n        /* \"#utility.yul\":14630:14636   */\n      dup3\n        /* \"#utility.yul\":14626:14641   */\n      add\n        /* \"#utility.yul\":14619:14674   */\n      mstore\n        /* \"#utility.yul\":14434:14681   */\n      pop\n      jump\t// out\n        /* \"#utility.yul\":14687:14912   */\n    tag_225:\n        /* \"#utility.yul\":14827:14861   */\n      0x4f776e61626c653a206e6577206f776e657220697320746865207a65726f2061\n        /* \"#utility.yul\":14823:14824   */\n      0x00\n        /* \"#utility.yul\":14815:14821   */\n      dup3\n        /* \"#utility.yul\":14811:14825   */\n      add\n        /* \"#utility.yul\":14804:14862   */\n      mstore\n        /* \"#utility.yul\":14896:14904   */\n      0x6464726573730000000000000000000000000000000000000000000000000000\n        /* \"#utility.yul\":14891:14893   */\n      0x20\n        /* \"#utility.yul\":14883:14889   */\n      dup3\n        /* \"#utility.yul\":14879:14894   */\n      add\n        /* \"#utility.yul\":14872:14905   */\n      mstore\n        /* \"#utility.yul\":14687:14912   */\n      pop\n      jump\t// out\n        /* \"#utility.yul\":14918:15100   */\n    tag_230:\n        /* \"#utility.yul\":15058:15092   */\n      0x4f776e61626c653a2063616c6c6572206973206e6f7420746865206f776e6572\n        /* \"#utility.yul\":15054:15055   */\n      0x00\n        /* \"#utility.yul\":15046:15052   */\n      dup3\n        /* \"#utility.yul\":15042:15056   */\n      add\n        /* \"#utility.yul\":15035:15093   */\n      mstore\n        /* \"#utility.yul\":14918:15100   */\n      pop\n      jump\t// out\n        /* \"#utility.yul\":15106:15328   */\n    tag_235:\n        /* \"#utility.yul\":15246:15280   */\n      0x4164647265737320496e73756666696369656e74206465706f73697420616d6f\n        /* \"#utility.yul\":15242:15243   */\n      0x00\n        /* \"#utility.yul\":15234:15240   */\n      dup3\n        /* \"#utility.yul\":15230:15244   */\n      add\n        /* \"#utility.yul\":15223:15281   */\n      mstore\n        /* \"#utility.yul\":15315:15320   */\n      0x756e740000000000000000000000000000000000000000000000000000000000\n        /* \"#utility.yul\":15310:15312   */\n      0x20\n        /* \"#utility.yul\":15302:15308   */\n      dup3\n        /* \"#utility.yul\":15298:15313   */\n      add\n        /* \"#utility.yul\":15291:15321   */\n      mstore\n        /* \"#utility.yul\":15106:15328   */\n      pop\n      jump\t// out\n        /* \"#utility.yul\":15334:15448   */\n    tag_241:\n      pop\n      jump\t// out\n        /* \"#utility.yul\":15454:15620   */\n    tag_246:\n        /* \"#utility.yul\":15594:15612   */\n      0x7472616e73666572207375636365737300000000000000000000000000000000\n        /* \"#utility.yul\":15590:15591   */\n      0x00\n        /* \"#utility.yul\":15582:15588   */\n      dup3\n        /* \"#utility.yul\":15578:15592   */\n      add\n        /* \"#utility.yul\":15571:15613   */\n      mstore\n        /* \"#utility.yul\":15454:15620   */\n      pop\n      jump\t// out\n        /* \"#utility.yul\":15626:15791   */\n    tag_251:\n        /* \"#utility.yul\":15766:15783   */\n      0x7769746864726177206661696c65640000000000000000000000000000000000\n        /* \"#utility.yul\":15762:15763   */\n      0x00\n        /* \"#utility.yul\":15754:15760   */\n      dup3\n        /* \"#utility.yul\":15750:15764   */\n      add\n        /* \"#utility.yul\":15743:15784   */\n      mstore\n        /* \"#utility.yul\":15626:15791   */\n      pop\n      jump\t// out\n        /* \"#utility.yul\":15797:15919   */\n    tag_173:\n        /* \"#utility.yul\":15870:15894   */\n      tag_327\n        /* \"#utility.yul\":15888:15893   */\n      dup2\n        /* \"#utility.yul\":15870:15894   */\n      tag_210\n      jump\t// in\n    tag_327:\n        /* \"#utility.yul\":15863:15868   */\n      dup2\n        /* \"#utility.yul\":15860:15895   */\n      eq\n        /* \"#utility.yul\":15850:15913   */\n      tag_328\n      jumpi\n        /* \"#utility.yul\":15909:15910   */\n      0x00\n        /* \"#utility.yul\":15906:15907   */\n      dup1\n        /* \"#utility.yul\":15899:15911   */\n      revert\n        /* \"#utility.yul\":15850:15913   */\n    tag_328:\n        /* \"#utility.yul\":15797:15919   */\n      pop\n      jump\t// out\n        /* \"#utility.yul\":15925:16047   */\n    tag_187:\n        /* \"#utility.yul\":15998:16022   */\n      tag_330\n        /* \"#utility.yul\":16016:16021   */\n      dup2\n        /* \"#utility.yul\":15998:16022   */\n      tag_255\n      jump\t// in\n    tag_330:\n        /* \"#utility.yul\":15991:15996   */\n      dup2\n        /* \"#utility.yul\":15988:16023   */\n      eq\n        /* \"#utility.yul\":15978:16041   */\n      tag_331\n      jumpi\n        /* \"#utility.yul\":16037:16038   */\n      0x00\n        /* \"#utility.yul\":16034:16035   */\n      dup1\n        /* \"#utility.yul\":16027:16039   */\n      revert\n        /* \"#utility.yul\":15978:16041   */\n    tag_331:\n        /* \"#utility.yul\":15925:16047   */\n      pop\n      jump\t// out\n\n    auxdata: 0xa2646970667358221220214659087641005c12a6c245d4e5edadca4a1a11c3dc0ceea4122adb140d1ca764736f6c63430008070033\n}\n",
				"bytecode": {
					"linkReferences": {},
					"object": "608060405234801561001057600080fd5b5061002d61002261003960201b60201c565b61004160201b60201c565b60018081905550610105565b600033905090565b60008060009054906101000a900473ffffffffffffffffffffffffffffffffffffffff169050816000806101000a81548173ffffffffffffffffffffffffffffffffffffffff021916908373ffffffffffffffffffffffffffffffffffffffff1602179055508173ffffffffffffffffffffffffffffffffffffffff168173ffffffffffffffffffffffffffffffffffffffff167f8be0079c531659141344cd1fd0a4f28419497f9722a3daafe3b4186f6b6457e060405160405180910390a35050565b611189806101146000396000f3fe6080604052600436106100955760003560e01c8063b0d253ff11610059578063b0d253ff14610185578063b6b55f25146101c2578063d75c45ad146101f3578063f2fde38b14610230578063ffc3a769146102595761009c565b80632c918b231461009e5780632e1a7d4d146100db578063715018a614610118578063722713f71461012f5780638da5cb5b1461015a5761009c565b3661009c57005b005b3480156100aa57600080fd5b506100c560048036038101906100c09190610a5d565b610296565b6040516100d29190610d85565b60405180910390f35b3480156100e757600080fd5b5061010260048036038101906100fd9190610b02565b6102df565b60405161010f9190610caa565b60405180910390f35b34801561012457600080fd5b5061012d6103d8565b005b34801561013b57600080fd5b506101446103ec565b6040516101519190610d85565b60405180910390f35b34801561016657600080fd5b5061016f6103f4565b60405161017c9190610c66565b60405180910390f35b34801561019157600080fd5b506101ac60048036038101906101a79190610a5d565b61041d565b6040516101b99190610d85565b60405180910390f35b6101dc60048036038101906101d79190610b02565b610435565b6040516101ea929190610c81565b60405180910390f35b3480156101ff57600080fd5b5061021a60048036038101906102159190610b02565b6104ee565b6040516102279190610c66565b60405180910390f35b34801561023c57600080fd5b5061025760048036038101906102529190610a5d565b610521565b005b34801561026557600080fd5b50610280600480360381019061027b9190610a8a565b6105a5565b60405161028d9190610caa565b60405180910390f35b6000600360008373ffffffffffffffffffffffffffffffffffffffff1673ffffffffffffffffffffffffffffffffffffffff168152602001908152602001600020549050919050565b60006102e961065c565b60003373ffffffffffffffffffffffffffffffffffffffff168360405161030f90610c51565b60006040518083038185875af1925050503d806000811461034c576040519150601f19603f3d011682016040523d82523d6000602084013e610351565b606091505b5050905080610395576040517f08c379a000000000000000000000000000000000000000000000000000000000815260040161038c90610d65565b60405180910390fd5b7f884edad9ce6fa2440d8a54cc123490eb96d2768479d49ff9c7366125a942436430846040516103c6929190610c81565b60405180910390a16001915050919050565b6103e061065c565b6103ea60006106da565b565b600047905090565b60008060009054906101000a900473ffffffffffffffffffffffffffffffffffffffff16905090565b60036020528060005260406000206000915090505481565b60008061044061079e565b6002600085815260200190815260200160002060006101000a81548173ffffffffffffffffffffffffffffffffffffffff021916908373ffffffffffffffffffffffffffffffffffffffff160217905550346003600061049e61079e565b73ffffffffffffffffffffffffffffffffffffffff1673ffffffffffffffffffffffffffffffffffffffff168152602001908152602001600020819055506104e461079e565b8391509150915091565b60026020528060005260406000206000915054906101000a900473ffffffffffffffffffffffffffffffffffffffff1681565b61052961065c565b600073ffffffffffffffffffffffffffffffffffffffff168173ffffffffffffffffffffffffffffffffffffffff161415610599576040517f08c379a000000000000000000000000000000000000000000000000000000000815260040161059090610ce5565b60405180910390fd5b6105a2816106da565b50565b6000806000905060008351905060005b818110156105f2578481815181106105d0576105cf610f37565b5b6020026020010151836105e39190610e39565b925080806001019150506105b5565b506106036105fe61079e565b610296565b821115610645576040517f08c379a000000000000000000000000000000000000000000000000000000000815260040161063c90610d25565b60405180910390fd5b61064f85856107a6565b5060019250505092915050565b61066461079e565b73ffffffffffffffffffffffffffffffffffffffff166106826103f4565b73ffffffffffffffffffffffffffffffffffffffff16146106d8576040517f08c379a00000000000000000000000000000000000000000000000000000000081526004016106cf90610d05565b60405180910390fd5b565b60008060009054906101000a900473ffffffffffffffffffffffffffffffffffffffff169050816000806101000a81548173ffffffffffffffffffffffffffffffffffffffff021916908373ffffffffffffffffffffffffffffffffffffffff1602179055508173ffffffffffffffffffffffffffffffffffffffff168173ffffffffffffffffffffffffffffffffffffffff167f8be0079c531659141344cd1fd0a4f28419497f9722a3daafe3b4186f6b6457e060405160405180910390a35050565b600033905090565b600081518351146107ec576040517f08c379a00000000000000000000000000000000000000000000000000000000081526004016107e390610cc5565b60405180910390fd5b60008351905060005b818110156108eb57600085828151811061081257610811610f37565b5b602002602001015173ffffffffffffffffffffffffffffffffffffffff1685838151811061084357610842610f37565b5b602002602001015160405161085790610c51565b60006040518083038185875af1925050503d8060008114610894576040519150601f19603f3d011682016040523d82523d6000602084013e610899565b606091505b50509050806108dd576040517f08c379a00000000000000000000000000000000000000000000000000000000081526004016108d490610d45565b60405180910390fd5b8180600101925050506107f5565b50600191505092915050565b600061090a61090584610dc5565b610da0565b9050808382526020820190508285602086028201111561092d5761092c610f9a565b5b60005b8581101561095d578161094388826109d7565b845260208401935060208301925050600181019050610930565b5050509392505050565b600061097a61097584610df1565b610da0565b9050808382526020820190508285602086028201111561099d5761099c610f9a565b5b60005b858110156109cd57816109b38882610a48565b8452602084019350602083019250506001810190506109a0565b5050509392505050565b6000813590506109e681611125565b92915050565b600082601f830112610a0157610a00610f95565b5b8135610a118482602086016108f7565b91505092915050565b600082601f830112610a2f57610a2e610f95565b5b8135610a3f848260208601610967565b91505092915050565b600081359050610a578161113c565b92915050565b600060208284031215610a7357610a72610fa4565b5b6000610a81848285016109d7565b91505092915050565b60008060408385031215610aa157610aa0610fa4565b5b600083013567ffffffffffffffff811115610abf57610abe610f9f565b5b610acb858286016109ec565b925050602083013567ffffffffffffffff811115610aec57610aeb610f9f565b5b610af885828601610a1a565b9150509250929050565b600060208284031215610b1857610b17610fa4565b5b6000610b2684828501610a48565b91505092915050565b610b3881610e8f565b82525050565b610b4781610ea1565b82525050565b6000610b5a603c83610e28565b9150610b6582610fba565b604082019050919050565b6000610b7d602683610e28565b9150610b8882611009565b604082019050919050565b6000610ba0602083610e28565b9150610bab82611058565b602082019050919050565b6000610bc3602383610e28565b9150610bce82611081565b604082019050919050565b6000610be6600083610e1d565b9150610bf1826110d0565b600082019050919050565b6000610c09601083610e28565b9150610c14826110d3565b602082019050919050565b6000610c2c600f83610e28565b9150610c37826110fc565b602082019050919050565b610c4b81610ecd565b82525050565b6000610c5c82610bd9565b9150819050919050565b6000602082019050610c7b6000830184610b2f565b92915050565b6000604082019050610c966000830185610b2f565b610ca36020830184610c42565b9392505050565b6000602082019050610cbf6000830184610b3e565b92915050565b60006020820190508181036000830152610cde81610b4d565b9050919050565b60006020820190508181036000830152610cfe81610b70565b9050919050565b60006020820190508181036000830152610d1e81610b93565b9050919050565b60006020820190508181036000830152610d3e81610bb6565b9050919050565b60006020820190508181036000830152610d5e81610bfc565b9050919050565b60006020820190508181036000830152610d7e81610c1f565b9050919050565b6000602082019050610d9a6000830184610c42565b92915050565b6000610daa610dbb565b9050610db68282610ed7565b919050565b6000604051905090565b600067ffffffffffffffff821115610de057610ddf610f66565b5b602082029050602081019050919050565b600067ffffffffffffffff821115610e0c57610e0b610f66565b5b602082029050602081019050919050565b600081905092915050565b600082825260208201905092915050565b6000610e4482610ecd565b9150610e4f83610ecd565b9250827fffffffffffffffffffffffffffffffffffffffffffffffffffffffffffffffff03821115610e8457610e83610f08565b5b828201905092915050565b6000610e9a82610ead565b9050919050565b60008115159050919050565b600073ffffffffffffffffffffffffffffffffffffffff82169050919050565b6000819050919050565b610ee082610fa9565b810181811067ffffffffffffffff82111715610eff57610efe610f66565b5b80604052505050565b7f4e487b7100000000000000000000000000000000000000000000000000000000600052601160045260246000fd5b7f4e487b7100000000000000000000000000000000000000000000000000000000600052603260045260246000fd5b7f4e487b7100000000000000000000000000000000000000000000000000000000600052604160045260246000fd5b600080fd5b600080fd5b600080fd5b600080fd5b6000601f19601f8301169050919050565b7f4e756d626572206f6620726563697069656e7473206d7573742062652065717560008201527f616c20746f20746865206e756d626572206f6620616d6f756e74732e00000000602082015250565b7f4f776e61626c653a206e6577206f776e657220697320746865207a65726f206160008201527f6464726573730000000000000000000000000000000000000000000000000000602082015250565b7f4f776e61626c653a2063616c6c6572206973206e6f7420746865206f776e6572600082015250565b7f4164647265737320496e73756666696369656e74206465706f73697420616d6f60008201527f756e740000000000000000000000000000000000000000000000000000000000602082015250565b50565b7f7472616e73666572207375636365737300000000000000000000000000000000600082015250565b7f7769746864726177206661696c65640000000000000000000000000000000000600082015250565b61112e81610e8f565b811461113957600080fd5b50565b61114581610ecd565b811461115057600080fd5b5056fea2646970667358221220214659087641005c12a6c245d4e5edadca4a1a11c3dc0ceea4122adb140d1ca764736f6c63430008070033",
					"opcodes": "PUSH1 0x80 PUSH1 0x40 MSTORE CALLVALUE DUP1 ISZERO PUSH2 0x10 JUMPI PUSH1 0x0 DUP1 REVERT JUMPDEST POP PUSH2 0x2D PUSH2 0x22 PUSH2 0x39 PUSH1 0x20 SHL PUSH1 0x20 SHR JUMP JUMPDEST PUSH2 0x41 PUSH1 0x20 SHL PUSH1 0x20 SHR JUMP JUMPDEST PUSH1 0x1 DUP1 DUP2 SWAP1 SSTORE POP PUSH2 0x105 JUMP JUMPDEST PUSH1 0x0 CALLER SWAP1 POP SWAP1 JUMP JUMPDEST PUSH1 0x0 DUP1 PUSH1 0x0 SWAP1 SLOAD SWAP1 PUSH2 0x100 EXP SWAP1 DIV PUSH20 0xFFFFFFFFFFFFFFFFFFFFFFFFFFFFFFFFFFFFFFFF AND SWAP1 POP DUP2 PUSH1 0x0 DUP1 PUSH2 0x100 EXP DUP2 SLOAD DUP2 PUSH20 0xFFFFFFFFFFFFFFFFFFFFFFFFFFFFFFFFFFFFFFFF MUL NOT AND SWAP1 DUP4 PUSH20 0xFFFFFFFFFFFFFFFFFFFFFFFFFFFFFFFFFFFFFFFF AND MUL OR SWAP1 SSTORE POP DUP2 PUSH20 0xFFFFFFFFFFFFFFFFFFFFFFFFFFFFFFFFFFFFFFFF AND DUP2 PUSH20 0xFFFFFFFFFFFFFFFFFFFFFFFFFFFFFFFFFFFFFFFF AND PUSH32 0x8BE0079C531659141344CD1FD0A4F28419497F9722A3DAAFE3B4186F6B6457E0 PUSH1 0x40 MLOAD PUSH1 0x40 MLOAD DUP1 SWAP2 SUB SWAP1 LOG3 POP POP JUMP JUMPDEST PUSH2 0x1189 DUP1 PUSH2 0x114 PUSH1 0x0 CODECOPY PUSH1 0x0 RETURN INVALID PUSH1 0x80 PUSH1 0x40 MSTORE PUSH1 0x4 CALLDATASIZE LT PUSH2 0x95 JUMPI PUSH1 0x0 CALLDATALOAD PUSH1 0xE0 SHR DUP1 PUSH4 0xB0D253FF GT PUSH2 0x59 JUMPI DUP1 PUSH4 0xB0D253FF EQ PUSH2 0x185 JUMPI DUP1 PUSH4 0xB6B55F25 EQ PUSH2 0x1C2 JUMPI DUP1 PUSH4 0xD75C45AD EQ PUSH2 0x1F3 JUMPI DUP1 PUSH4 0xF2FDE38B EQ PUSH2 0x230 JUMPI DUP1 PUSH4 0xFFC3A769 EQ PUSH2 0x259 JUMPI PUSH2 0x9C JUMP JUMPDEST DUP1 PUSH4 0x2C918B23 EQ PUSH2 0x9E JUMPI DUP1 PUSH4 0x2E1A7D4D EQ PUSH2 0xDB JUMPI DUP1 PUSH4 0x715018A6 EQ PUSH2 0x118 JUMPI DUP1 PUSH4 0x722713F7 EQ PUSH2 0x12F JUMPI DUP1 PUSH4 0x8DA5CB5B EQ PUSH2 0x15A JUMPI PUSH2 0x9C JUMP JUMPDEST CALLDATASIZE PUSH2 0x9C JUMPI STOP JUMPDEST STOP JUMPDEST CALLVALUE DUP1 ISZERO PUSH2 0xAA JUMPI PUSH1 0x0 DUP1 REVERT JUMPDEST POP PUSH2 0xC5 PUSH1 0x4 DUP1 CALLDATASIZE SUB DUP2 ADD SWAP1 PUSH2 0xC0 SWAP2 SWAP1 PUSH2 0xA5D JUMP JUMPDEST PUSH2 0x296 JUMP JUMPDEST PUSH1 0x40 MLOAD PUSH2 0xD2 SWAP2 SWAP1 PUSH2 0xD85 JUMP JUMPDEST PUSH1 0x40 MLOAD DUP1 SWAP2 SUB SWAP1 RETURN JUMPDEST CALLVALUE DUP1 ISZERO PUSH2 0xE7 JUMPI PUSH1 0x0 DUP1 REVERT JUMPDEST POP PUSH2 0x102 PUSH1 0x4 DUP1 CALLDATASIZE SUB DUP2 ADD SWAP1 PUSH2 0xFD SWAP2 SWAP1 PUSH2 0xB02 JUMP JUMPDEST PUSH2 0x2DF JUMP JUMPDEST PUSH1 0x40 MLOAD PUSH2 0x10F SWAP2 SWAP1 PUSH2 0xCAA JUMP JUMPDEST PUSH1 0x40 MLOAD DUP1 SWAP2 SUB SWAP1 RETURN JUMPDEST CALLVALUE DUP1 ISZERO PUSH2 0x124 JUMPI PUSH1 0x0 DUP1 REVERT JUMPDEST POP PUSH2 0x12D PUSH2 0x3D8 JUMP JUMPDEST STOP JUMPDEST CALLVALUE DUP1 ISZERO PUSH2 0x13B JUMPI PUSH1 0x0 DUP1 REVERT JUMPDEST POP PUSH2 0x144 PUSH2 0x3EC JUMP JUMPDEST PUSH1 0x40 MLOAD PUSH2 0x151 SWAP2 SWAP1 PUSH2 0xD85 JUMP JUMPDEST PUSH1 0x40 MLOAD DUP1 SWAP2 SUB SWAP1 RETURN JUMPDEST CALLVALUE DUP1 ISZERO PUSH2 0x166 JUMPI PUSH1 0x0 DUP1 REVERT JUMPDEST POP PUSH2 0x16F PUSH2 0x3F4 JUMP JUMPDEST PUSH1 0x40 MLOAD PUSH2 0x17C SWAP2 SWAP1 PUSH2 0xC66 JUMP JUMPDEST PUSH1 0x40 MLOAD DUP1 SWAP2 SUB SWAP1 RETURN JUMPDEST CALLVALUE DUP1 ISZERO PUSH2 0x191 JUMPI PUSH1 0x0 DUP1 REVERT JUMPDEST POP PUSH2 0x1AC PUSH1 0x4 DUP1 CALLDATASIZE SUB DUP2 ADD SWAP1 PUSH2 0x1A7 SWAP2 SWAP1 PUSH2 0xA5D JUMP JUMPDEST PUSH2 0x41D JUMP JUMPDEST PUSH1 0x40 MLOAD PUSH2 0x1B9 SWAP2 SWAP1 PUSH2 0xD85 JUMP JUMPDEST PUSH1 0x40 MLOAD DUP1 SWAP2 SUB SWAP1 RETURN JUMPDEST PUSH2 0x1DC PUSH1 0x4 DUP1 CALLDATASIZE SUB DUP2 ADD SWAP1 PUSH2 0x1D7 SWAP2 SWAP1 PUSH2 0xB02 JUMP JUMPDEST PUSH2 0x435 JUMP JUMPDEST PUSH1 0x40 MLOAD PUSH2 0x1EA SWAP3 SWAP2 SWAP1 PUSH2 0xC81 JUMP JUMPDEST PUSH1 0x40 MLOAD DUP1 SWAP2 SUB SWAP1 RETURN JUMPDEST CALLVALUE DUP1 ISZERO PUSH2 0x1FF JUMPI PUSH1 0x0 DUP1 REVERT JUMPDEST POP PUSH2 0x21A PUSH1 0x4 DUP1 CALLDATASIZE SUB DUP2 ADD SWAP1 PUSH2 0x215 SWAP2 SWAP1 PUSH2 0xB02 JUMP JUMPDEST PUSH2 0x4EE JUMP JUMPDEST PUSH1 0x40 MLOAD PUSH2 0x227 SWAP2 SWAP1 PUSH2 0xC66 JUMP JUMPDEST PUSH1 0x40 MLOAD DUP1 SWAP2 SUB SWAP1 RETURN JUMPDEST CALLVALUE DUP1 ISZERO PUSH2 0x23C JUMPI PUSH1 0x0 DUP1 REVERT JUMPDEST POP PUSH2 0x257 PUSH1 0x4 DUP1 CALLDATASIZE SUB DUP2 ADD SWAP1 PUSH2 0x252 SWAP2 SWAP1 PUSH2 0xA5D JUMP JUMPDEST PUSH2 0x521 JUMP JUMPDEST STOP JUMPDEST CALLVALUE DUP1 ISZERO PUSH2 0x265 JUMPI PUSH1 0x0 DUP1 REVERT JUMPDEST POP PUSH2 0x280 PUSH1 0x4 DUP1 CALLDATASIZE SUB DUP2 ADD SWAP1 PUSH2 0x27B SWAP2 SWAP1 PUSH2 0xA8A JUMP JUMPDEST PUSH2 0x5A5 JUMP JUMPDEST PUSH1 0x40 MLOAD PUSH2 0x28D SWAP2 SWAP1 PUSH2 0xCAA JUMP JUMPDEST PUSH1 0x40 MLOAD DUP1 SWAP2 SUB SWAP1 RETURN JUMPDEST PUSH1 0x0 PUSH1 0x3 PUSH1 0x0 DUP4 PUSH20 0xFFFFFFFFFFFFFFFFFFFFFFFFFFFFFFFFFFFFFFFF AND PUSH20 0xFFFFFFFFFFFFFFFFFFFFFFFFFFFFFFFFFFFFFFFF AND DUP2 MSTORE PUSH1 0x20 ADD SWAP1 DUP2 MSTORE PUSH1 0x20 ADD PUSH1 0x0 KECCAK256 SLOAD SWAP1 POP SWAP2 SWAP1 POP JUMP JUMPDEST PUSH1 0x0 PUSH2 0x2E9 PUSH2 0x65C JUMP JUMPDEST PUSH1 0x0 CALLER PUSH20 0xFFFFFFFFFFFFFFFFFFFFFFFFFFFFFFFFFFFFFFFF AND DUP4 PUSH1 0x40 MLOAD PUSH2 0x30F SWAP1 PUSH2 0xC51 JUMP JUMPDEST PUSH1 0x0 PUSH1 0x40 MLOAD DUP1 DUP4 SUB DUP2 DUP6 DUP8 GAS CALL SWAP3 POP POP POP RETURNDATASIZE DUP1 PUSH1 0x0 DUP2 EQ PUSH2 0x34C JUMPI PUSH1 0x40 MLOAD SWAP2 POP PUSH1 0x1F NOT PUSH1 0x3F RETURNDATASIZE ADD AND DUP3 ADD PUSH1 0x40 MSTORE RETURNDATASIZE DUP3 MSTORE RETURNDATASIZE PUSH1 0x0 PUSH1 0x20 DUP5 ADD RETURNDATACOPY PUSH2 0x351 JUMP JUMPDEST PUSH1 0x60 SWAP2 POP JUMPDEST POP POP SWAP1 POP DUP1 PUSH2 0x395 JUMPI PUSH1 0x40 MLOAD PUSH32 0x8C379A000000000000000000000000000000000000000000000000000000000 DUP2 MSTORE PUSH1 0x4 ADD PUSH2 0x38C SWAP1 PUSH2 0xD65 JUMP JUMPDEST PUSH1 0x40 MLOAD DUP1 SWAP2 SUB SWAP1 REVERT JUMPDEST PUSH32 0x884EDAD9CE6FA2440D8A54CC123490EB96D2768479D49FF9C7366125A9424364 ADDRESS DUP5 PUSH1 0x40 MLOAD PUSH2 0x3C6 SWAP3 SWAP2 SWAP1 PUSH2 0xC81 JUMP JUMPDEST PUSH1 0x40 MLOAD DUP1 SWAP2 SUB SWAP1 LOG1 PUSH1 0x1 SWAP2 POP POP SWAP2 SWAP1 POP JUMP JUMPDEST PUSH2 0x3E0 PUSH2 0x65C JUMP JUMPDEST PUSH2 0x3EA PUSH1 0x0 PUSH2 0x6DA JUMP JUMPDEST JUMP JUMPDEST PUSH1 0x0 SELFBALANCE SWAP1 POP SWAP1 JUMP JUMPDEST PUSH1 0x0 DUP1 PUSH1 0x0 SWAP1 SLOAD SWAP1 PUSH2 0x100 EXP SWAP1 DIV PUSH20 0xFFFFFFFFFFFFFFFFFFFFFFFFFFFFFFFFFFFFFFFF AND SWAP1 POP SWAP1 JUMP JUMPDEST PUSH1 0x3 PUSH1 0x20 MSTORE DUP1 PUSH1 0x0 MSTORE PUSH1 0x40 PUSH1 0x0 KECCAK256 PUSH1 0x0 SWAP2 POP SWAP1 POP SLOAD DUP2 JUMP JUMPDEST PUSH1 0x0 DUP1 PUSH2 0x440 PUSH2 0x79E JUMP JUMPDEST PUSH1 0x2 PUSH1 0x0 DUP6 DUP2 MSTORE PUSH1 0x20 ADD SWAP1 DUP2 MSTORE PUSH1 0x20 ADD PUSH1 0x0 KECCAK256 PUSH1 0x0 PUSH2 0x100 EXP DUP2 SLOAD DUP2 PUSH20 0xFFFFFFFFFFFFFFFFFFFFFFFFFFFFFFFFFFFFFFFF MUL NOT AND SWAP1 DUP4 PUSH20 0xFFFFFFFFFFFFFFFFFFFFFFFFFFFFFFFFFFFFFFFF AND MUL OR SWAP1 SSTORE POP CALLVALUE PUSH1 0x3 PUSH1 0x0 PUSH2 0x49E PUSH2 0x79E JUMP JUMPDEST PUSH20 0xFFFFFFFFFFFFFFFFFFFFFFFFFFFFFFFFFFFFFFFF AND PUSH20 0xFFFFFFFFFFFFFFFFFFFFFFFFFFFFFFFFFFFFFFFF AND DUP2 MSTORE PUSH1 0x20 ADD SWAP1 DUP2 MSTORE PUSH1 0x20 ADD PUSH1 0x0 KECCAK256 DUP2 SWAP1 SSTORE POP PUSH2 0x4E4 PUSH2 0x79E JUMP JUMPDEST DUP4 SWAP2 POP SWAP2 POP SWAP2 POP SWAP2 JUMP JUMPDEST PUSH1 0x2 PUSH1 0x20 MSTORE DUP1 PUSH1 0x0 MSTORE PUSH1 0x40 PUSH1 0x0 KECCAK256 PUSH1 0x0 SWAP2 POP SLOAD SWAP1 PUSH2 0x100 EXP SWAP1 DIV PUSH20 0xFFFFFFFFFFFFFFFFFFFFFFFFFFFFFFFFFFFFFFFF AND DUP2 JUMP JUMPDEST PUSH2 0x529 PUSH2 0x65C JUMP JUMPDEST PUSH1 0x0 PUSH20 0xFFFFFFFFFFFFFFFFFFFFFFFFFFFFFFFFFFFFFFFF AND DUP2 PUSH20 0xFFFFFFFFFFFFFFFFFFFFFFFFFFFFFFFFFFFFFFFF AND EQ ISZERO PUSH2 0x599 JUMPI PUSH1 0x40 MLOAD PUSH32 0x8C379A000000000000000000000000000000000000000000000000000000000 DUP2 MSTORE PUSH1 0x4 ADD PUSH2 0x590 SWAP1 PUSH2 0xCE5 JUMP JUMPDEST PUSH1 0x40 MLOAD DUP1 SWAP2 SUB SWAP1 REVERT JUMPDEST PUSH2 0x5A2 DUP2 PUSH2 0x6DA JUMP JUMPDEST POP JUMP JUMPDEST PUSH1 0x0 DUP1 PUSH1 0x0 SWAP1 POP PUSH1 0x0 DUP4 MLOAD SWAP1 POP PUSH1 0x0 JUMPDEST DUP2 DUP2 LT ISZERO PUSH2 0x5F2 JUMPI DUP5 DUP2 DUP2 MLOAD DUP2 LT PUSH2 0x5D0 JUMPI PUSH2 0x5CF PUSH2 0xF37 JUMP JUMPDEST JUMPDEST PUSH1 0x20 MUL PUSH1 0x20 ADD ADD MLOAD DUP4 PUSH2 0x5E3 SWAP2 SWAP1 PUSH2 0xE39 JUMP JUMPDEST SWAP3 POP DUP1 DUP1 PUSH1 0x1 ADD SWAP2 POP POP PUSH2 0x5B5 JUMP JUMPDEST POP PUSH2 0x603 PUSH2 0x5FE PUSH2 0x79E JUMP JUMPDEST PUSH2 0x296 JUMP JUMPDEST DUP3 GT ISZERO PUSH2 0x645 JUMPI PUSH1 0x40 MLOAD PUSH32 0x8C379A000000000000000000000000000000000000000000000000000000000 DUP2 MSTORE PUSH1 0x4 ADD PUSH2 0x63C SWAP1 PUSH2 0xD25 JUMP JUMPDEST PUSH1 0x40 MLOAD DUP1 SWAP2 SUB SWAP1 REVERT JUMPDEST PUSH2 0x64F DUP6 DUP6 PUSH2 0x7A6 JUMP JUMPDEST POP PUSH1 0x1 SWAP3 POP POP POP SWAP3 SWAP2 POP POP JUMP JUMPDEST PUSH2 0x664 PUSH2 0x79E JUMP JUMPDEST PUSH20 0xFFFFFFFFFFFFFFFFFFFFFFFFFFFFFFFFFFFFFFFF AND PUSH2 0x682 PUSH2 0x3F4 JUMP JUMPDEST PUSH20 0xFFFFFFFFFFFFFFFFFFFFFFFFFFFFFFFFFFFFFFFF AND EQ PUSH2 0x6D8 JUMPI PUSH1 0x40 MLOAD PUSH32 0x8C379A000000000000000000000000000000000000000000000000000000000 DUP2 MSTORE PUSH1 0x4 ADD PUSH2 0x6CF SWAP1 PUSH2 0xD05 JUMP JUMPDEST PUSH1 0x40 MLOAD DUP1 SWAP2 SUB SWAP1 REVERT JUMPDEST JUMP JUMPDEST PUSH1 0x0 DUP1 PUSH1 0x0 SWAP1 SLOAD SWAP1 PUSH2 0x100 EXP SWAP1 DIV PUSH20 0xFFFFFFFFFFFFFFFFFFFFFFFFFFFFFFFFFFFFFFFF AND SWAP1 POP DUP2 PUSH1 0x0 DUP1 PUSH2 0x100 EXP DUP2 SLOAD DUP2 PUSH20 0xFFFFFFFFFFFFFFFFFFFFFFFFFFFFFFFFFFFFFFFF MUL NOT AND SWAP1 DUP4 PUSH20 0xFFFFFFFFFFFFFFFFFFFFFFFFFFFFFFFFFFFFFFFF AND MUL OR SWAP1 SSTORE POP DUP2 PUSH20 0xFFFFFFFFFFFFFFFFFFFFFFFFFFFFFFFFFFFFFFFF AND DUP2 PUSH20 0xFFFFFFFFFFFFFFFFFFFFFFFFFFFFFFFFFFFFFFFF AND PUSH32 0x8BE0079C531659141344CD1FD0A4F28419497F9722A3DAAFE3B4186F6B6457E0 PUSH1 0x40 MLOAD PUSH1 0x40 MLOAD DUP1 SWAP2 SUB SWAP1 LOG3 POP POP JUMP JUMPDEST PUSH1 0x0 CALLER SWAP1 POP SWAP1 JUMP JUMPDEST PUSH1 0x0 DUP2 MLOAD DUP4 MLOAD EQ PUSH2 0x7EC JUMPI PUSH1 0x40 MLOAD PUSH32 0x8C379A000000000000000000000000000000000000000000000000000000000 DUP2 MSTORE PUSH1 0x4 ADD PUSH2 0x7E3 SWAP1 PUSH2 0xCC5 JUMP JUMPDEST PUSH1 0x40 MLOAD DUP1 SWAP2 SUB SWAP1 REVERT JUMPDEST PUSH1 0x0 DUP4 MLOAD SWAP1 POP PUSH1 0x0 JUMPDEST DUP2 DUP2 LT ISZERO PUSH2 0x8EB JUMPI PUSH1 0x0 DUP6 DUP3 DUP2 MLOAD DUP2 LT PUSH2 0x812 JUMPI PUSH2 0x811 PUSH2 0xF37 JUMP JUMPDEST JUMPDEST PUSH1 0x20 MUL PUSH1 0x20 ADD ADD MLOAD PUSH20 0xFFFFFFFFFFFFFFFFFFFFFFFFFFFFFFFFFFFFFFFF AND DUP6 DUP4 DUP2 MLOAD DUP2 LT PUSH2 0x843 JUMPI PUSH2 0x842 PUSH2 0xF37 JUMP JUMPDEST JUMPDEST PUSH1 0x20 MUL PUSH1 0x20 ADD ADD MLOAD PUSH1 0x40 MLOAD PUSH2 0x857 SWAP1 PUSH2 0xC51 JUMP JUMPDEST PUSH1 0x0 PUSH1 0x40 MLOAD DUP1 DUP4 SUB DUP2 DUP6 DUP8 GAS CALL SWAP3 POP POP POP RETURNDATASIZE DUP1 PUSH1 0x0 DUP2 EQ PUSH2 0x894 JUMPI PUSH1 0x40 MLOAD SWAP2 POP PUSH1 0x1F NOT PUSH1 0x3F RETURNDATASIZE ADD AND DUP3 ADD PUSH1 0x40 MSTORE RETURNDATASIZE DUP3 MSTORE RETURNDATASIZE PUSH1 0x0 PUSH1 0x20 DUP5 ADD RETURNDATACOPY PUSH2 0x899 JUMP JUMPDEST PUSH1 0x60 SWAP2 POP JUMPDEST POP POP SWAP1 POP DUP1 PUSH2 0x8DD JUMPI PUSH1 0x40 MLOAD PUSH32 0x8C379A000000000000000000000000000000000000000000000000000000000 DUP2 MSTORE PUSH1 0x4 ADD PUSH2 0x8D4 SWAP1 PUSH2 0xD45 JUMP JUMPDEST PUSH1 0x40 MLOAD DUP1 SWAP2 SUB SWAP1 REVERT JUMPDEST DUP2 DUP1 PUSH1 0x1 ADD SWAP3 POP POP POP PUSH2 0x7F5 JUMP JUMPDEST POP PUSH1 0x1 SWAP2 POP POP SWAP3 SWAP2 POP POP JUMP JUMPDEST PUSH1 0x0 PUSH2 0x90A PUSH2 0x905 DUP5 PUSH2 0xDC5 JUMP JUMPDEST PUSH2 0xDA0 JUMP JUMPDEST SWAP1 POP DUP1 DUP4 DUP3 MSTORE PUSH1 0x20 DUP3 ADD SWAP1 POP DUP3 DUP6 PUSH1 0x20 DUP7 MUL DUP3 ADD GT ISZERO PUSH2 0x92D JUMPI PUSH2 0x92C PUSH2 0xF9A JUMP JUMPDEST JUMPDEST PUSH1 0x0 JUMPDEST DUP6 DUP2 LT ISZERO PUSH2 0x95D JUMPI DUP2 PUSH2 0x943 DUP9 DUP3 PUSH2 0x9D7 JUMP JUMPDEST DUP5 MSTORE PUSH1 0x20 DUP5 ADD SWAP4 POP PUSH1 0x20 DUP4 ADD SWAP3 POP POP PUSH1 0x1 DUP2 ADD SWAP1 POP PUSH2 0x930 JUMP JUMPDEST POP POP POP SWAP4 SWAP3 POP POP POP JUMP JUMPDEST PUSH1 0x0 PUSH2 0x97A PUSH2 0x975 DUP5 PUSH2 0xDF1 JUMP JUMPDEST PUSH2 0xDA0 JUMP JUMPDEST SWAP1 POP DUP1 DUP4 DUP3 MSTORE PUSH1 0x20 DUP3 ADD SWAP1 POP DUP3 DUP6 PUSH1 0x20 DUP7 MUL DUP3 ADD GT ISZERO PUSH2 0x99D JUMPI PUSH2 0x99C PUSH2 0xF9A JUMP JUMPDEST JUMPDEST PUSH1 0x0 JUMPDEST DUP6 DUP2 LT ISZERO PUSH2 0x9CD JUMPI DUP2 PUSH2 0x9B3 DUP9 DUP3 PUSH2 0xA48 JUMP JUMPDEST DUP5 MSTORE PUSH1 0x20 DUP5 ADD SWAP4 POP PUSH1 0x20 DUP4 ADD SWAP3 POP POP PUSH1 0x1 DUP2 ADD SWAP1 POP PUSH2 0x9A0 JUMP JUMPDEST POP POP POP SWAP4 SWAP3 POP POP POP JUMP JUMPDEST PUSH1 0x0 DUP2 CALLDATALOAD SWAP1 POP PUSH2 0x9E6 DUP2 PUSH2 0x1125 JUMP JUMPDEST SWAP3 SWAP2 POP POP JUMP JUMPDEST PUSH1 0x0 DUP3 PUSH1 0x1F DUP4 ADD SLT PUSH2 0xA01 JUMPI PUSH2 0xA00 PUSH2 0xF95 JUMP JUMPDEST JUMPDEST DUP2 CALLDATALOAD PUSH2 0xA11 DUP5 DUP3 PUSH1 0x20 DUP7 ADD PUSH2 0x8F7 JUMP JUMPDEST SWAP2 POP POP SWAP3 SWAP2 POP POP JUMP JUMPDEST PUSH1 0x0 DUP3 PUSH1 0x1F DUP4 ADD SLT PUSH2 0xA2F JUMPI PUSH2 0xA2E PUSH2 0xF95 JUMP JUMPDEST JUMPDEST DUP2 CALLDATALOAD PUSH2 0xA3F DUP5 DUP3 PUSH1 0x20 DUP7 ADD PUSH2 0x967 JUMP JUMPDEST SWAP2 POP POP SWAP3 SWAP2 POP POP JUMP JUMPDEST PUSH1 0x0 DUP2 CALLDATALOAD SWAP1 POP PUSH2 0xA57 DUP2 PUSH2 0x113C JUMP JUMPDEST SWAP3 SWAP2 POP POP JUMP JUMPDEST PUSH1 0x0 PUSH1 0x20 DUP3 DUP5 SUB SLT ISZERO PUSH2 0xA73 JUMPI PUSH2 0xA72 PUSH2 0xFA4 JUMP JUMPDEST JUMPDEST PUSH1 0x0 PUSH2 0xA81 DUP5 DUP3 DUP6 ADD PUSH2 0x9D7 JUMP JUMPDEST SWAP2 POP POP SWAP3 SWAP2 POP POP JUMP JUMPDEST PUSH1 0x0 DUP1 PUSH1 0x40 DUP4 DUP6 SUB SLT ISZERO PUSH2 0xAA1 JUMPI PUSH2 0xAA0 PUSH2 0xFA4 JUMP JUMPDEST JUMPDEST PUSH1 0x0 DUP4 ADD CALLDATALOAD PUSH8 0xFFFFFFFFFFFFFFFF DUP2 GT ISZERO PUSH2 0xABF JUMPI PUSH2 0xABE PUSH2 0xF9F JUMP JUMPDEST JUMPDEST PUSH2 0xACB DUP6 DUP3 DUP7 ADD PUSH2 0x9EC JUMP JUMPDEST SWAP3 POP POP PUSH1 0x20 DUP4 ADD CALLDATALOAD PUSH8 0xFFFFFFFFFFFFFFFF DUP2 GT ISZERO PUSH2 0xAEC JUMPI PUSH2 0xAEB PUSH2 0xF9F JUMP JUMPDEST JUMPDEST PUSH2 0xAF8 DUP6 DUP3 DUP7 ADD PUSH2 0xA1A JUMP JUMPDEST SWAP2 POP POP SWAP3 POP SWAP3 SWAP1 POP JUMP JUMPDEST PUSH1 0x0 PUSH1 0x20 DUP3 DUP5 SUB SLT ISZERO PUSH2 0xB18 JUMPI PUSH2 0xB17 PUSH2 0xFA4 JUMP JUMPDEST JUMPDEST PUSH1 0x0 PUSH2 0xB26 DUP5 DUP3 DUP6 ADD PUSH2 0xA48 JUMP JUMPDEST SWAP2 POP POP SWAP3 SWAP2 POP POP JUMP JUMPDEST PUSH2 0xB38 DUP2 PUSH2 0xE8F JUMP JUMPDEST DUP3 MSTORE POP POP JUMP JUMPDEST PUSH2 0xB47 DUP2 PUSH2 0xEA1 JUMP JUMPDEST DUP3 MSTORE POP POP JUMP JUMPDEST PUSH1 0x0 PUSH2 0xB5A PUSH1 0x3C DUP4 PUSH2 0xE28 JUMP JUMPDEST SWAP2 POP PUSH2 0xB65 DUP3 PUSH2 0xFBA JUMP JUMPDEST PUSH1 0x40 DUP3 ADD SWAP1 POP SWAP2 SWAP1 POP JUMP JUMPDEST PUSH1 0x0 PUSH2 0xB7D PUSH1 0x26 DUP4 PUSH2 0xE28 JUMP JUMPDEST SWAP2 POP PUSH2 0xB88 DUP3 PUSH2 0x1009 JUMP JUMPDEST PUSH1 0x40 DUP3 ADD SWAP1 POP SWAP2 SWAP1 POP JUMP JUMPDEST PUSH1 0x0 PUSH2 0xBA0 PUSH1 0x20 DUP4 PUSH2 0xE28 JUMP JUMPDEST SWAP2 POP PUSH2 0xBAB DUP3 PUSH2 0x1058 JUMP JUMPDEST PUSH1 0x20 DUP3 ADD SWAP1 POP SWAP2 SWAP1 POP JUMP JUMPDEST PUSH1 0x0 PUSH2 0xBC3 PUSH1 0x23 DUP4 PUSH2 0xE28 JUMP JUMPDEST SWAP2 POP PUSH2 0xBCE DUP3 PUSH2 0x1081 JUMP JUMPDEST PUSH1 0x40 DUP3 ADD SWAP1 POP SWAP2 SWAP1 POP JUMP JUMPDEST PUSH1 0x0 PUSH2 0xBE6 PUSH1 0x0 DUP4 PUSH2 0xE1D JUMP JUMPDEST SWAP2 POP PUSH2 0xBF1 DUP3 PUSH2 0x10D0 JUMP JUMPDEST PUSH1 0x0 DUP3 ADD SWAP1 POP SWAP2 SWAP1 POP JUMP JUMPDEST PUSH1 0x0 PUSH2 0xC09 PUSH1 0x10 DUP4 PUSH2 0xE28 JUMP JUMPDEST SWAP2 POP PUSH2 0xC14 DUP3 PUSH2 0x10D3 JUMP JUMPDEST PUSH1 0x20 DUP3 ADD SWAP1 POP SWAP2 SWAP1 POP JUMP JUMPDEST PUSH1 0x0 PUSH2 0xC2C PUSH1 0xF DUP4 PUSH2 0xE28 JUMP JUMPDEST SWAP2 POP PUSH2 0xC37 DUP3 PUSH2 0x10FC JUMP JUMPDEST PUSH1 0x20 DUP3 ADD SWAP1 POP SWAP2 SWAP1 POP JUMP JUMPDEST PUSH2 0xC4B DUP2 PUSH2 0xECD JUMP JUMPDEST DUP3 MSTORE POP POP JUMP JUMPDEST PUSH1 0x0 PUSH2 0xC5C DUP3 PUSH2 0xBD9 JUMP JUMPDEST SWAP2 POP DUP2 SWAP1 POP SWAP2 SWAP1 POP JUMP JUMPDEST PUSH1 0x0 PUSH1 0x20 DUP3 ADD SWAP1 POP PUSH2 0xC7B PUSH1 0x0 DUP4 ADD DUP5 PUSH2 0xB2F JUMP JUMPDEST SWAP3 SWAP2 POP POP JUMP JUMPDEST PUSH1 0x0 PUSH1 0x40 DUP3 ADD SWAP1 POP PUSH2 0xC96 PUSH1 0x0 DUP4 ADD DUP6 PUSH2 0xB2F JUMP JUMPDEST PUSH2 0xCA3 PUSH1 0x20 DUP4 ADD DUP5 PUSH2 0xC42 JUMP JUMPDEST SWAP4 SWAP3 POP POP POP JUMP JUMPDEST PUSH1 0x0 PUSH1 0x20 DUP3 ADD SWAP1 POP PUSH2 0xCBF PUSH1 0x0 DUP4 ADD DUP5 PUSH2 0xB3E JUMP JUMPDEST SWAP3 SWAP2 POP POP JUMP JUMPDEST PUSH1 0x0 PUSH1 0x20 DUP3 ADD SWAP1 POP DUP2 DUP2 SUB PUSH1 0x0 DUP4 ADD MSTORE PUSH2 0xCDE DUP2 PUSH2 0xB4D JUMP JUMPDEST SWAP1 POP SWAP2 SWAP1 POP JUMP JUMPDEST PUSH1 0x0 PUSH1 0x20 DUP3 ADD SWAP1 POP DUP2 DUP2 SUB PUSH1 0x0 DUP4 ADD MSTORE PUSH2 0xCFE DUP2 PUSH2 0xB70 JUMP JUMPDEST SWAP1 POP SWAP2 SWAP1 POP JUMP JUMPDEST PUSH1 0x0 PUSH1 0x20 DUP3 ADD SWAP1 POP DUP2 DUP2 SUB PUSH1 0x0 DUP4 ADD MSTORE PUSH2 0xD1E DUP2 PUSH2 0xB93 JUMP JUMPDEST SWAP1 POP SWAP2 SWAP1 POP JUMP JUMPDEST PUSH1 0x0 PUSH1 0x20 DUP3 ADD SWAP1 POP DUP2 DUP2 SUB PUSH1 0x0 DUP4 ADD MSTORE PUSH2 0xD3E DUP2 PUSH2 0xBB6 JUMP JUMPDEST SWAP1 POP SWAP2 SWAP1 POP JUMP JUMPDEST PUSH1 0x0 PUSH1 0x20 DUP3 ADD SWAP1 POP DUP2 DUP2 SUB PUSH1 0x0 DUP4 ADD MSTORE PUSH2 0xD5E DUP2 PUSH2 0xBFC JUMP JUMPDEST SWAP1 POP SWAP2 SWAP1 POP JUMP JUMPDEST PUSH1 0x0 PUSH1 0x20 DUP3 ADD SWAP1 POP DUP2 DUP2 SUB PUSH1 0x0 DUP4 ADD MSTORE PUSH2 0xD7E DUP2 PUSH2 0xC1F JUMP JUMPDEST SWAP1 POP SWAP2 SWAP1 POP JUMP JUMPDEST PUSH1 0x0 PUSH1 0x20 DUP3 ADD SWAP1 POP PUSH2 0xD9A PUSH1 0x0 DUP4 ADD DUP5 PUSH2 0xC42 JUMP JUMPDEST SWAP3 SWAP2 POP POP JUMP JUMPDEST PUSH1 0x0 PUSH2 0xDAA PUSH2 0xDBB JUMP JUMPDEST SWAP1 POP PUSH2 0xDB6 DUP3 DUP3 PUSH2 0xED7 JUMP JUMPDEST SWAP2 SWAP1 POP JUMP JUMPDEST PUSH1 0x0 PUSH1 0x40 MLOAD SWAP1 POP SWAP1 JUMP JUMPDEST PUSH1 0x0 PUSH8 0xFFFFFFFFFFFFFFFF DUP3 GT ISZERO PUSH2 0xDE0 JUMPI PUSH2 0xDDF PUSH2 0xF66 JUMP JUMPDEST JUMPDEST PUSH1 0x20 DUP3 MUL SWAP1 POP PUSH1 0x20 DUP2 ADD SWAP1 POP SWAP2 SWAP1 POP JUMP JUMPDEST PUSH1 0x0 PUSH8 0xFFFFFFFFFFFFFFFF DUP3 GT ISZERO PUSH2 0xE0C JUMPI PUSH2 0xE0B PUSH2 0xF66 JUMP JUMPDEST JUMPDEST PUSH1 0x20 DUP3 MUL SWAP1 POP PUSH1 0x20 DUP2 ADD SWAP1 POP SWAP2 SWAP1 POP JUMP JUMPDEST PUSH1 0x0 DUP2 SWAP1 POP SWAP3 SWAP2 POP POP JUMP JUMPDEST PUSH1 0x0 DUP3 DUP3 MSTORE PUSH1 0x20 DUP3 ADD SWAP1 POP SWAP3 SWAP2 POP POP JUMP JUMPDEST PUSH1 0x0 PUSH2 0xE44 DUP3 PUSH2 0xECD JUMP JUMPDEST SWAP2 POP PUSH2 0xE4F DUP4 PUSH2 0xECD JUMP JUMPDEST SWAP3 POP DUP3 PUSH32 0xFFFFFFFFFFFFFFFFFFFFFFFFFFFFFFFFFFFFFFFFFFFFFFFFFFFFFFFFFFFFFFFF SUB DUP3 GT ISZERO PUSH2 0xE84 JUMPI PUSH2 0xE83 PUSH2 0xF08 JUMP JUMPDEST JUMPDEST DUP3 DUP3 ADD SWAP1 POP SWAP3 SWAP2 POP POP JUMP JUMPDEST PUSH1 0x0 PUSH2 0xE9A DUP3 PUSH2 0xEAD JUMP JUMPDEST SWAP1 POP SWAP2 SWAP1 POP JUMP JUMPDEST PUSH1 0x0 DUP2 ISZERO ISZERO SWAP1 POP SWAP2 SWAP1 POP JUMP JUMPDEST PUSH1 0x0 PUSH20 0xFFFFFFFFFFFFFFFFFFFFFFFFFFFFFFFFFFFFFFFF DUP3 AND SWAP1 POP SWAP2 SWAP1 POP JUMP JUMPDEST PUSH1 0x0 DUP2 SWAP1 POP SWAP2 SWAP1 POP JUMP JUMPDEST PUSH2 0xEE0 DUP3 PUSH2 0xFA9 JUMP JUMPDEST DUP2 ADD DUP2 DUP2 LT PUSH8 0xFFFFFFFFFFFFFFFF DUP3 GT OR ISZERO PUSH2 0xEFF JUMPI PUSH2 0xEFE PUSH2 0xF66 JUMP JUMPDEST JUMPDEST DUP1 PUSH1 0x40 MSTORE POP POP POP JUMP JUMPDEST PUSH32 0x4E487B7100000000000000000000000000000000000000000000000000000000 PUSH1 0x0 MSTORE PUSH1 0x11 PUSH1 0x4 MSTORE PUSH1 0x24 PUSH1 0x0 REVERT JUMPDEST PUSH32 0x4E487B7100000000000000000000000000000000000000000000000000000000 PUSH1 0x0 MSTORE PUSH1 0x32 PUSH1 0x4 MSTORE PUSH1 0x24 PUSH1 0x0 REVERT JUMPDEST PUSH32 0x4E487B7100000000000000000000000000000000000000000000000000000000 PUSH1 0x0 MSTORE PUSH1 0x41 PUSH1 0x4 MSTORE PUSH1 0x24 PUSH1 0x0 REVERT JUMPDEST PUSH1 0x0 DUP1 REVERT JUMPDEST PUSH1 0x0 DUP1 REVERT JUMPDEST PUSH1 0x0 DUP1 REVERT JUMPDEST PUSH1 0x0 DUP1 REVERT JUMPDEST PUSH1 0x0 PUSH1 0x1F NOT PUSH1 0x1F DUP4 ADD AND SWAP1 POP SWAP2 SWAP1 POP JUMP JUMPDEST PUSH32 0x4E756D626572206F6620726563697069656E7473206D75737420626520657175 PUSH1 0x0 DUP3 ADD MSTORE PUSH32 0x616C20746F20746865206E756D626572206F6620616D6F756E74732E00000000 PUSH1 0x20 DUP3 ADD MSTORE POP JUMP JUMPDEST PUSH32 0x4F776E61626C653A206E6577206F776E657220697320746865207A65726F2061 PUSH1 0x0 DUP3 ADD MSTORE PUSH32 0x6464726573730000000000000000000000000000000000000000000000000000 PUSH1 0x20 DUP3 ADD MSTORE POP JUMP JUMPDEST PUSH32 0x4F776E61626C653A2063616C6C6572206973206E6F7420746865206F776E6572 PUSH1 0x0 DUP3 ADD MSTORE POP JUMP JUMPDEST PUSH32 0x4164647265737320496E73756666696369656E74206465706F73697420616D6F PUSH1 0x0 DUP3 ADD MSTORE PUSH32 0x756E740000000000000000000000000000000000000000000000000000000000 PUSH1 0x20 DUP3 ADD MSTORE POP JUMP JUMPDEST POP JUMP JUMPDEST PUSH32 0x7472616E73666572207375636365737300000000000000000000000000000000 PUSH1 0x0 DUP3 ADD MSTORE POP JUMP JUMPDEST PUSH32 0x7769746864726177206661696C65640000000000000000000000000000000000 PUSH1 0x0 DUP3 ADD MSTORE POP JUMP JUMPDEST PUSH2 0x112E DUP2 PUSH2 0xE8F JUMP JUMPDEST DUP2 EQ PUSH2 0x1139 JUMPI PUSH1 0x0 DUP1 REVERT JUMPDEST POP JUMP JUMPDEST PUSH2 0x1145 DUP2 PUSH2 0xECD JUMP JUMPDEST DUP2 EQ PUSH2 0x1150 JUMPI PUSH1 0x0 DUP1 REVERT JUMPDEST POP JUMP INVALID LOG2 PUSH5 0x6970667358 0x22 SLT KECCAK256 0x21 CHAINID MSIZE ADDMOD PUSH23 0x41005C12A6C245D4E5EDADCA4A1A11C3DC0CEEA4122ADB EQ 0xD SHR 0xA7 PUSH5 0x736F6C6343 STOP ADDMOD SMOD STOP CALLER "
				},
				"gasEstimates": {
					"creation": {
						"codeDepositCost": "897800",
						"executionCost": "infinite",
						"totalCost": "infinite"
					},
					"external": {
						"": "196",
						"balanceOf()": "406",
						"deposit(uint256)": "infinite",
						"depositAddress(uint256)": "2883",
						"depositquota(address)": "2814",
						"getquota(address)": "2842",
						"owner()": "2611",
						"renounceOwnership()": "30443",
						"transfer(address[],uint256[])": "infinite",
						"transferOwnership(address)": "30813",
						"withdraw(uint256)": "infinite"
					},
					"internal": {
						"_batchTransfer(address[] memory,uint256[] memory)": "infinite"
					}
				},
				"methodIdentifiers": {
					"balanceOf()": "722713f7",
					"deposit(uint256)": "b6b55f25",
					"depositAddress(uint256)": "d75c45ad",
					"depositquota(address)": "b0d253ff",
					"getquota(address)": "2c918b23",
					"owner()": "8da5cb5b",
					"renounceOwnership()": "715018a6",
					"transfer(address[],uint256[])": "ffc3a769",
					"transferOwnership(address)": "f2fde38b",
					"withdraw(uint256)": "2e1a7d4d"
				}
			},
			"storageLayout": {
				"storage": [
					{
						"astId": 88,
						"contract": "transferActive.sol:TranActive",
						"label": "_owner",
						"offset": 0,
						"slot": "0",
						"type": "t_address"
					},
					{
						"astId": 10,
						"contract": "transferActive.sol:TranActive",
						"label": "_status",
						"offset": 0,
						"slot": "1",
						"type": "t_uint256"
					},
					{
						"astId": 203,
						"contract": "transferActive.sol:TranActive",
						"label": "depositAddress",
						"offset": 0,
						"slot": "2",
						"type": "t_mapping(t_uint256,t_address)"
					},
					{
						"astId": 207,
						"contract": "transferActive.sol:TranActive",
						"label": "depositquota",
						"offset": 0,
						"slot": "3",
						"type": "t_mapping(t_address,t_uint256)"
					}
				],
				"types": {
					"t_address": {
						"encoding": "inplace",
						"label": "address",
						"numberOfBytes": "20"
					},
					"t_mapping(t_address,t_uint256)": {
						"encoding": "mapping",
						"key": "t_address",
						"label": "mapping(address => uint256)",
						"numberOfBytes": "32",
						"value": "t_uint256"
					},
					"t_mapping(t_uint256,t_address)": {
						"encoding": "mapping",
						"key": "t_uint256",
						"label": "mapping(uint256 => address)",
						"numberOfBytes": "32",
						"value": "t_address"
					},
					"t_uint256": {
						"encoding": "inplace",
						"label": "uint256",
						"numberOfBytes": "32"
					}
				}
			},
			"userdoc": {
				"kind": "user",
				"methods": {},
				"version": 1
			}
		}
	}
}