{
	"荷兰拍卖/DutchAuction.sol": {
		"DutchAuction": {
			"abi": [
				{
					"inputs": [],
					"stateMutability": "nonpayable",
					"type": "constructor"
				},
				{
					"anonymous": false,
					"inputs": [
						{
							"indexed": true,
							"internalType": "address",
							"name": "owner",
							"type": "address"
						},
						{
							"indexed": true,
							"internalType": "address",
							"name": "approved",
							"type": "address"
						},
						{
							"indexed": true,
							"internalType": "uint256",
							"name": "tokenId",
							"type": "uint256"
						}
					],
					"name": "Approval",
					"type": "event"
				},
				{
					"anonymous": false,
					"inputs": [
						{
							"indexed": true,
							"internalType": "address",
							"name": "owner",
							"type": "address"
						},
						{
							"indexed": true,
							"internalType": "address",
							"name": "operator",
							"type": "address"
						},
						{
							"indexed": false,
							"internalType": "bool",
							"name": "approved",
							"type": "bool"
						}
					],
					"name": "ApprovalForAll",
					"type": "event"
				},
				{
					"anonymous": false,
					"inputs": [
						{
							"indexed": true,
							"internalType": "address",
							"name": "previousOwner",
							"type": "address"
						},
						{
							"indexed": true,
							"internalType": "address",
							"name": "newOwner",
							"type": "address"
						}
					],
					"name": "OwnershipTransferred",
					"type": "event"
				},
				{
					"anonymous": false,
					"inputs": [
						{
							"indexed": true,
							"internalType": "address",
							"name": "from",
							"type": "address"
						},
						{
							"indexed": true,
							"internalType": "address",
							"name": "to",
							"type": "address"
						},
						{
							"indexed": true,
							"internalType": "uint256",
							"name": "tokenId",
							"type": "uint256"
						}
					],
					"name": "Transfer",
					"type": "event"
				},
				{
					"inputs": [],
					"name": "AUCTION_DROP_INTERVAL",
					"outputs": [
						{
							"internalType": "uint256",
							"name": "",
							"type": "uint256"
						}
					],
					"stateMutability": "view",
					"type": "function"
				},
				{
					"inputs": [],
					"name": "AUCTION_DROP_PER_STEP",
					"outputs": [
						{
							"internalType": "uint256",
							"name": "",
							"type": "uint256"
						}
					],
					"stateMutability": "view",
					"type": "function"
				},
				{
					"inputs": [],
					"name": "AUCTION_END_PRICE",
					"outputs": [
						{
							"internalType": "uint256",
							"name": "",
							"type": "uint256"
						}
					],
					"stateMutability": "view",
					"type": "function"
				},
				{
					"inputs": [],
					"name": "AUCTION_START_PRICE",
					"outputs": [
						{
							"internalType": "uint256",
							"name": "",
							"type": "uint256"
						}
					],
					"stateMutability": "view",
					"type": "function"
				},
				{
					"inputs": [],
					"name": "AUCTION_TIME",
					"outputs": [
						{
							"internalType": "uint256",
							"name": "",
							"type": "uint256"
						}
					],
					"stateMutability": "view",
					"type": "function"
				},
				{
					"inputs": [],
					"name": "COLLECTOIN_SIZE",
					"outputs": [
						{
							"internalType": "uint256",
							"name": "",
							"type": "uint256"
						}
					],
					"stateMutability": "view",
					"type": "function"
				},
				{
					"inputs": [
						{
							"internalType": "address",
							"name": "to",
							"type": "address"
						},
						{
							"internalType": "uint256",
							"name": "tokenId",
							"type": "uint256"
						}
					],
					"name": "approve",
					"outputs": [],
					"stateMutability": "nonpayable",
					"type": "function"
				},
				{
					"inputs": [
						{
							"internalType": "uint256",
							"name": "quantity",
							"type": "uint256"
						}
					],
					"name": "auctionMint",
					"outputs": [],
					"stateMutability": "payable",
					"type": "function"
				},
				{
					"inputs": [],
					"name": "auctionStartTime",
					"outputs": [
						{
							"internalType": "uint256",
							"name": "",
							"type": "uint256"
						}
					],
					"stateMutability": "view",
					"type": "function"
				},
				{
					"inputs": [
						{
							"internalType": "address",
							"name": "owner",
							"type": "address"
						}
					],
					"name": "balanceOf",
					"outputs": [
						{
							"internalType": "uint256",
							"name": "",
							"type": "uint256"
						}
					],
					"stateMutability": "view",
					"type": "function"
				},
				{
					"inputs": [
						{
							"internalType": "uint256",
							"name": "tokenId",
							"type": "uint256"
						}
					],
					"name": "getApproved",
					"outputs": [
						{
							"internalType": "address",
							"name": "",
							"type": "address"
						}
					],
					"stateMutability": "view",
					"type": "function"
				},
				{
					"inputs": [],
					"name": "getAuctionPrice",
					"outputs": [
						{
							"internalType": "uint256",
							"name": "",
							"type": "uint256"
						}
					],
					"stateMutability": "view",
					"type": "function"
				},
				{
					"inputs": [
						{
							"internalType": "address",
							"name": "owner",
							"type": "address"
						},
						{
							"internalType": "address",
							"name": "operator",
							"type": "address"
						}
					],
					"name": "isApprovedForAll",
					"outputs": [
						{
							"internalType": "bool",
							"name": "",
							"type": "bool"
						}
					],
					"stateMutability": "view",
					"type": "function"
				},
				{
					"inputs": [],
					"name": "name",
					"outputs": [
						{
							"internalType": "string",
							"name": "",
							"type": "string"
						}
					],
					"stateMutability": "view",
					"type": "function"
				},
				{
					"inputs": [],
					"name": "owner",
					"outputs": [
						{
							"internalType": "address",
							"name": "",
							"type": "address"
						}
					],
					"stateMutability": "view",
					"type": "function"
				},
				{
					"inputs": [
						{
							"internalType": "uint256",
							"name": "tokenId",
							"type": "uint256"
						}
					],
					"name": "ownerOf",
					"outputs": [
						{
							"internalType": "address",
							"name": "owner",
							"type": "address"
						}
					],
					"stateMutability": "view",
					"type": "function"
				},
				{
					"inputs": [],
					"name": "renounceOwnership",
					"outputs": [],
					"stateMutability": "nonpayable",
					"type": "function"
				},
				{
					"inputs": [
						{
							"internalType": "address",
							"name": "from",
							"type": "address"
						},
						{
							"internalType": "address",
							"name": "to",
							"type": "address"
						},
						{
							"internalType": "uint256",
							"name": "tokenId",
							"type": "uint256"
						}
					],
					"name": "safeTransferFrom",
					"outputs": [],
					"stateMutability": "nonpayable",
					"type": "function"
				},
				{
					"inputs": [
						{
							"internalType": "address",
							"name": "from",
							"type": "address"
						},
						{
							"internalType": "address",
							"name": "to",
							"type": "address"
						},
						{
							"internalType": "uint256",
							"name": "tokenId",
							"type": "uint256"
						},
						{
							"internalType": "bytes",
							"name": "_data",
							"type": "bytes"
						}
					],
					"name": "safeTransferFrom",
					"outputs": [],
					"stateMutability": "nonpayable",
					"type": "function"
				},
				{
					"inputs": [
						{
							"internalType": "address",
							"name": "operator",
							"type": "address"
						},
						{
							"internalType": "bool",
							"name": "approved",
							"type": "bool"
						}
					],
					"name": "setApprovalForAll",
					"outputs": [],
					"stateMutability": "nonpayable",
					"type": "function"
				},
				{
					"inputs": [
						{
							"internalType": "uint32",
							"name": "timestamp",
							"type": "uint32"
						}
					],
					"name": "setAuctionStartTime",
					"outputs": [],
					"stateMutability": "nonpayable",
					"type": "function"
				},
				{
					"inputs": [
						{
							"internalType": "bytes4",
							"name": "interfaceId",
							"type": "bytes4"
						}
					],
					"name": "supportsInterface",
					"outputs": [
						{
							"internalType": "bool",
							"name": "",
							"type": "bool"
						}
					],
					"stateMutability": "pure",
					"type": "function"
				},
				{
					"inputs": [],
					"name": "symbol",
					"outputs": [
						{
							"internalType": "string",
							"name": "",
							"type": "string"
						}
					],
					"stateMutability": "view",
					"type": "function"
				},
				{
					"inputs": [
						{
							"internalType": "uint256",
							"name": "tokenId",
							"type": "uint256"
						}
					],
					"name": "tokenURI",
					"outputs": [
						{
							"internalType": "string",
							"name": "",
							"type": "string"
						}
					],
					"stateMutability": "view",
					"type": "function"
				},
				{
					"inputs": [],
					"name": "totalSupply",
					"outputs": [
						{
							"internalType": "uint256",
							"name": "",
							"type": "uint256"
						}
					],
					"stateMutability": "view",
					"type": "function"
				},
				{
					"inputs": [
						{
							"internalType": "address",
							"name": "from",
							"type": "address"
						},
						{
							"internalType": "address",
							"name": "to",
							"type": "address"
						},
						{
							"internalType": "uint256",
							"name": "tokenId",
							"type": "uint256"
						}
					],
					"name": "transferFrom",
					"outputs": [],
					"stateMutability": "nonpayable",
					"type": "function"
				},
				{
					"inputs": [
						{
							"internalType": "address",
							"name": "newOwner",
							"type": "address"
						}
					],
					"name": "transferOwnership",
					"outputs": [],
					"stateMutability": "nonpayable",
					"type": "function"
				},
				{
					"inputs": [],
					"name": "withdrawMoney",
					"outputs": [],
					"stateMutability": "nonpayable",
					"type": "function"
				}
			],
			"devdoc": {
				"kind": "dev",
				"methods": {
					"owner()": {
						"details": "Returns the address of the current owner."
					},
					"renounceOwnership()": {
						"details": "Leaves the contract without owner. It will not be possible to call `onlyOwner` functions anymore. Can only be called by the current owner. NOTE: Renouncing ownership will leave the contract without an owner, thereby removing any functionality that is only available to the owner."
					},
					"supportsInterface(bytes4)": {
						"details": "如果合约实现了查询的`interfaceId`，则返回true 规则详见：https://eips.ethereum.org/EIPS/eip-165#how-interfaces-are-identified[EIP section]"
					},
					"transferOwnership(address)": {
						"details": "Transfers ownership of the contract to a new account (`newOwner`). Can only be called by the current owner."
					}
				},
				"version": 1
			},
			"evm": {
				"assembly": "    /* \"荷兰拍卖/DutchAuction.sol\":148:3553  contract DutchAuction is Ownable, ERC721 {\r... */\n  mstore(0x40, 0x80)\n    /* \"荷兰拍卖/DutchAuction.sol\":1259:1375  constructor() ERC721(\"WTF Dutch Auctoin\", \"WTF Dutch Auctoin\") {\r... */\n  callvalue\n  dup1\n  iszero\n  tag_1\n  jumpi\n  0x00\n  dup1\n  revert\ntag_1:\n  pop\n    /* \"ERC721/ERC721.sol\":1068:1182  constructor(string memory name_, string memory symbol_) {\r... */\n  mload(0x40)\n  dup1\n  0x40\n  add\n  0x40\n  mstore\n  dup1\n  0x11\n  dup2\n  mstore\n  0x20\n  add\n  0x57544620447574636820417563746f696e000000000000000000000000000000\n  dup2\n  mstore\n  pop\n  mload(0x40)\n  dup1\n  0x40\n  add\n  0x40\n  mstore\n  dup1\n  0x11\n  dup2\n  mstore\n  0x20\n  add\n  0x57544620447574636820417563746f696e000000000000000000000000000000\n  dup2\n  mstore\n  pop\n    /* \"@openzeppelin/contracts/access/Ownable.sol\":936:968  _transferOwnership(_msgSender()) */\n  tag_6\n    /* \"@openzeppelin/contracts/access/Ownable.sol\":955:967  _msgSender() */\n  tag_7\n    /* \"@openzeppelin/contracts/access/Ownable.sol\":955:965  _msgSender */\n  shl(0x20, tag_8)\n    /* \"@openzeppelin/contracts/access/Ownable.sol\":955:967  _msgSender() */\n  0x20\n  shr\n  jump\t// in\ntag_7:\n    /* \"@openzeppelin/contracts/access/Ownable.sol\":936:954  _transferOwnership */\n  shl(0x20, tag_9)\n    /* \"@openzeppelin/contracts/access/Ownable.sol\":936:968  _transferOwnership(_msgSender()) */\n  0x20\n  shr\n  jump\t// in\ntag_6:\n    /* \"ERC721/ERC721.sol\":1142:1147  name_ */\n  dup2\n    /* \"ERC721/ERC721.sol\":1135:1139  name */\n  0x01\n    /* \"ERC721/ERC721.sol\":1135:1147  name = name_ */\n  swap1\n  dup1\n  mload\n  swap1\n  0x20\n  add\n  swap1\n  tag_11\n  swap3\n  swap2\n  swap1\n  tag_12\n  jump\t// in\ntag_11:\n  pop\n    /* \"ERC721/ERC721.sol\":1167:1174  symbol_ */\n  dup1\n    /* \"ERC721/ERC721.sol\":1158:1164  symbol */\n  0x02\n    /* \"ERC721/ERC721.sol\":1158:1174  symbol = symbol_ */\n  swap1\n  dup1\n  mload\n  swap1\n  0x20\n  add\n  swap1\n  tag_13\n  swap3\n  swap2\n  swap1\n  tag_12\n  jump\t// in\ntag_13:\n  pop\n    /* \"ERC721/ERC721.sol\":1068:1182  constructor(string memory name_, string memory symbol_) {\r... */\n  pop\n  pop\n    /* \"荷兰拍卖/DutchAuction.sol\":1352:1367  block.timestamp */\n  timestamp\n    /* \"荷兰拍卖/DutchAuction.sol\":1333:1349  auctionStartTime */\n  0x07\n    /* \"荷兰拍卖/DutchAuction.sol\":1333:1367  auctionStartTime = block.timestamp */\n  dup2\n  swap1\n  sstore\n  pop\n    /* \"荷兰拍卖/DutchAuction.sol\":148:3553  contract DutchAuction is Ownable, ERC721 {\r... */\n  jump(tag_15)\n    /* \"@openzeppelin/contracts/utils/Context.sol\":640:736  function _msgSender() internal view virtual returns (address) {... */\ntag_8:\n    /* \"@openzeppelin/contracts/utils/Context.sol\":693:700  address */\n  0x00\n    /* \"@openzeppelin/contracts/utils/Context.sol\":719:729  msg.sender */\n  caller\n    /* \"@openzeppelin/contracts/utils/Context.sol\":712:729  return msg.sender */\n  swap1\n  pop\n    /* \"@openzeppelin/contracts/utils/Context.sol\":640:736  function _msgSender() internal view virtual returns (address) {... */\n  swap1\n  jump\t// out\n    /* \"@openzeppelin/contracts/access/Ownable.sol\":2433:2620  function _transferOwnership(address newOwner) internal virtual {... */\ntag_9:\n    /* \"@openzeppelin/contracts/access/Ownable.sol\":2506:2522  address oldOwner */\n  0x00\n    /* \"@openzeppelin/contracts/access/Ownable.sol\":2525:2531  _owner */\n  dup1\n  0x00\n  swap1\n  sload\n  swap1\n  0x0100\n  exp\n  swap1\n  div\n  0xffffffffffffffffffffffffffffffffffffffff\n  and\n    /* \"@openzeppelin/contracts/access/Ownable.sol\":2506:2531  address oldOwner = _owner */\n  swap1\n  pop\n    /* \"@openzeppelin/contracts/access/Ownable.sol\":2550:2558  newOwner */\n  dup2\n    /* \"@openzeppelin/contracts/access/Ownable.sol\":2541:2547  _owner */\n  0x00\n  dup1\n    /* \"@openzeppelin/contracts/access/Ownable.sol\":2541:2558  _owner = newOwner */\n  0x0100\n  exp\n  dup2\n  sload\n  dup2\n  0xffffffffffffffffffffffffffffffffffffffff\n  mul\n  not\n  and\n  swap1\n  dup4\n  0xffffffffffffffffffffffffffffffffffffffff\n  and\n  mul\n  or\n  swap1\n  sstore\n  pop\n    /* \"@openzeppelin/contracts/access/Ownable.sol\":2604:2612  newOwner */\n  dup2\n    /* \"@openzeppelin/contracts/access/Ownable.sol\":2573:2613  OwnershipTransferred(oldOwner, newOwner) */\n  0xffffffffffffffffffffffffffffffffffffffff\n  and\n    /* \"@openzeppelin/contracts/access/Ownable.sol\":2594:2602  oldOwner */\n  dup2\n    /* \"@openzeppelin/contracts/access/Ownable.sol\":2573:2613  OwnershipTransferred(oldOwner, newOwner) */\n  0xffffffffffffffffffffffffffffffffffffffff\n  and\n  0x8be0079c531659141344cd1fd0a4f28419497f9722a3daafe3b4186f6b6457e0\n  mload(0x40)\n  mload(0x40)\n  dup1\n  swap2\n  sub\n  swap1\n  log3\n    /* \"@openzeppelin/contracts/access/Ownable.sol\":2433:2620  function _transferOwnership(address newOwner) internal virtual {... */\n  pop\n  pop\n  jump\t// out\n    /* \"荷兰拍卖/DutchAuction.sol\":148:3553  contract DutchAuction is Ownable, ERC721 {\r... */\ntag_12:\n  dup3\n  dup1\n  sload\n  tag_18\n  swap1\n  tag_19\n  jump\t// in\ntag_18:\n  swap1\n  0x00\n  mstore\n  keccak256(0x00, 0x20)\n  swap1\n  0x1f\n  add\n  0x20\n  swap1\n  div\n  dup2\n  add\n  swap3\n  dup3\n  tag_21\n  jumpi\n  0x00\n  dup6\n  sstore\n  jump(tag_20)\ntag_21:\n  dup3\n  0x1f\n  lt\n  tag_22\n  jumpi\n  dup1\n  mload\n  not(0xff)\n  and\n  dup4\n  dup1\n  add\n  or\n  dup6\n  sstore\n  jump(tag_20)\ntag_22:\n  dup3\n  dup1\n  add\n  0x01\n  add\n  dup6\n  sstore\n  dup3\n  iszero\n  tag_20\n  jumpi\n  swap2\n  dup3\n  add\ntag_23:\n  dup3\n  dup2\n  gt\n  iszero\n  tag_24\n  jumpi\n  dup3\n  mload\n  dup3\n  sstore\n  swap2\n  0x20\n  add\n  swap2\n  swap1\n  0x01\n  add\n  swap1\n  jump(tag_23)\ntag_24:\ntag_20:\n  pop\n  swap1\n  pop\n  tag_25\n  swap2\n  swap1\n  tag_26\n  jump\t// in\ntag_25:\n  pop\n  swap1\n  jump\t// out\ntag_26:\ntag_27:\n  dup1\n  dup3\n  gt\n  iszero\n  tag_28\n  jumpi\n  0x00\n  dup2\n  0x00\n  swap1\n  sstore\n  pop\n  0x01\n  add\n  jump(tag_27)\ntag_28:\n  pop\n  swap1\n  jump\t// out\n    /* \"#utility.yul\":7:327   */\ntag_19:\n    /* \"#utility.yul\":51:57   */\n  0x00\n    /* \"#utility.yul\":88:89   */\n  0x02\n    /* \"#utility.yul\":82:86   */\n  dup3\n    /* \"#utility.yul\":78:90   */\n  div\n    /* \"#utility.yul\":68:90   */\n  swap1\n  pop\n    /* \"#utility.yul\":135:136   */\n  0x01\n    /* \"#utility.yul\":129:133   */\n  dup3\n    /* \"#utility.yul\":125:137   */\n  and\n    /* \"#utility.yul\":156:174   */\n  dup1\n    /* \"#utility.yul\":146:148   */\n  tag_31\n  jumpi\n    /* \"#utility.yul\":212:216   */\n  0x7f\n    /* \"#utility.yul\":204:210   */\n  dup3\n    /* \"#utility.yul\":200:217   */\n  and\n    /* \"#utility.yul\":190:217   */\n  swap2\n  pop\n    /* \"#utility.yul\":146:148   */\ntag_31:\n    /* \"#utility.yul\":274:276   */\n  0x20\n    /* \"#utility.yul\":266:272   */\n  dup3\n    /* \"#utility.yul\":263:277   */\n  lt\n    /* \"#utility.yul\":243:261   */\n  dup2\n    /* \"#utility.yul\":240:278   */\n  eq\n    /* \"#utility.yul\":237:239   */\n  iszero\n  tag_32\n  jumpi\n    /* \"#utility.yul\":293:311   */\n  tag_33\n  tag_34\n  jump\t// in\ntag_33:\n    /* \"#utility.yul\":237:239   */\ntag_32:\n    /* \"#utility.yul\":58:327   */\n  pop\n  swap2\n  swap1\n  pop\n  jump\t// out\n    /* \"#utility.yul\":333:513   */\ntag_34:\n    /* \"#utility.yul\":381:458   */\n  0x4e487b7100000000000000000000000000000000000000000000000000000000\n    /* \"#utility.yul\":378:379   */\n  0x00\n    /* \"#utility.yul\":371:459   */\n  mstore\n    /* \"#utility.yul\":478:482   */\n  0x22\n    /* \"#utility.yul\":475:476   */\n  0x04\n    /* \"#utility.yul\":468:483   */\n  mstore\n    /* \"#utility.yul\":502:506   */\n  0x24\n    /* \"#utility.yul\":499:500   */\n  0x00\n    /* \"#utility.yul\":492:507   */\n  revert\n    /* \"荷兰拍卖/DutchAuction.sol\":148:3553  contract DutchAuction is Ownable, ERC721 {\r... */\ntag_15:\n  dataSize(sub_0)\n  dup1\n  dataOffset(sub_0)\n  0x00\n  codecopy\n  0x00\n  return\nstop\n\nsub_0: assembly {\n        /* \"荷兰拍卖/DutchAuction.sol\":148:3553  contract DutchAuction is Ownable, ERC721 {\r... */\n      mstore(0x40, 0x80)\n      jumpi(tag_1, lt(calldatasize, 0x04))\n      shr(0xe0, calldataload(0x00))\n      dup1\n      0x70a08231\n      gt\n      tag_30\n      jumpi\n      dup1\n      0xb88d4fde\n      gt\n      tag_31\n      jumpi\n      dup1\n      0xe592301a\n      gt\n      tag_32\n      jumpi\n      dup1\n      0xe592301a\n      eq\n      tag_26\n      jumpi\n      dup1\n      0xe985e9c5\n      eq\n      tag_27\n      jumpi\n      dup1\n      0xeb54f9ec\n      eq\n      tag_28\n      jumpi\n      dup1\n      0xf2fde38b\n      eq\n      tag_29\n      jumpi\n      jump(tag_1)\n    tag_32:\n      dup1\n      0xb88d4fde\n      eq\n      tag_23\n      jumpi\n      dup1\n      0xc87b56dd\n      eq\n      tag_24\n      jumpi\n      dup1\n      0xcaf8a6d1\n      eq\n      tag_25\n      jumpi\n      jump(tag_1)\n    tag_31:\n      dup1\n      0x8da5cb5b\n      gt\n      tag_33\n      jumpi\n      dup1\n      0x8da5cb5b\n      eq\n      tag_19\n      jumpi\n      dup1\n      0x95d89b41\n      eq\n      tag_20\n      jumpi\n      dup1\n      0xa22cb465\n      eq\n      tag_21\n      jumpi\n      dup1\n      0xac446002\n      eq\n      tag_22\n      jumpi\n      jump(tag_1)\n    tag_33:\n      dup1\n      0x70a08231\n      eq\n      tag_16\n      jumpi\n      dup1\n      0x715018a6\n      eq\n      tag_17\n      jumpi\n      dup1\n      0x7a1c4a56\n      eq\n      tag_18\n      jumpi\n      jump(tag_1)\n    tag_30:\n      dup1\n      0x327658e3\n      gt\n      tag_34\n      jumpi\n      dup1\n      0x4d3554c3\n      gt\n      tag_35\n      jumpi\n      dup1\n      0x4d3554c3\n      eq\n      tag_12\n      jumpi\n      dup1\n      0x59f369fe\n      eq\n      tag_13\n      jumpi\n      dup1\n      0x5cae01d3\n      eq\n      tag_14\n      jumpi\n      dup1\n      0x6352211e\n      eq\n      tag_15\n      jumpi\n      jump(tag_1)\n    tag_35:\n      dup1\n      0x327658e3\n      eq\n      tag_9\n      jumpi\n      dup1\n      0x42842e0e\n      eq\n      tag_10\n      jumpi\n      dup1\n      0x4bd25c6f\n      eq\n      tag_11\n      jumpi\n      jump(tag_1)\n    tag_34:\n      dup1\n      0x081812fc\n      gt\n      tag_36\n      jumpi\n      dup1\n      0x081812fc\n      eq\n      tag_5\n      jumpi\n      dup1\n      0x095ea7b3\n      eq\n      tag_6\n      jumpi\n      dup1\n      0x18160ddd\n      eq\n      tag_7\n      jumpi\n      dup1\n      0x23b872dd\n      eq\n      tag_8\n      jumpi\n      jump(tag_1)\n    tag_36:\n      dup1\n      0x01ffc9a7\n      eq\n      tag_2\n      jumpi\n      dup1\n      0x0697346f\n      eq\n      tag_3\n      jumpi\n      dup1\n      0x06fdde03\n      eq\n      tag_4\n      jumpi\n    tag_1:\n      0x00\n      dup1\n      revert\n        /* \"ERC721/ERC721.sol\":1235:1562  function supportsInterface(bytes4 interfaceId)\r... */\n    tag_2:\n      callvalue\n      dup1\n      iszero\n      tag_37\n      jumpi\n      0x00\n      dup1\n      revert\n    tag_37:\n      pop\n      tag_38\n      0x04\n      dup1\n      calldatasize\n      sub\n      dup2\n      add\n      swap1\n      tag_39\n      swap2\n      swap1\n      tag_40\n      jump\t// in\n    tag_39:\n      tag_41\n      jump\t// in\n    tag_38:\n      mload(0x40)\n      tag_42\n      swap2\n      swap1\n      tag_43\n      jump\t// in\n    tag_42:\n      mload(0x40)\n      dup1\n      swap2\n      sub\n      swap1\n      return\n        /* \"荷兰拍卖/DutchAuction.sol\":1433:1546  function setAuctionStartTime(uint32 timestamp) external onlyOwner {\r... */\n    tag_3:\n      callvalue\n      dup1\n      iszero\n      tag_44\n      jumpi\n      0x00\n      dup1\n      revert\n    tag_44:\n      pop\n      tag_45\n      0x04\n      dup1\n      calldatasize\n      sub\n      dup2\n      add\n      swap1\n      tag_46\n      swap2\n      swap1\n      tag_47\n      jump\t// in\n    tag_46:\n      tag_48\n      jump\t// in\n    tag_45:\n      stop\n        /* \"ERC721/ERC721.sol\":459:486  string public override name */\n    tag_4:\n      callvalue\n      dup1\n      iszero\n      tag_49\n      jumpi\n      0x00\n      dup1\n      revert\n    tag_49:\n      pop\n      tag_50\n      tag_51\n      jump\t// in\n    tag_50:\n      mload(0x40)\n      tag_52\n      swap2\n      swap1\n      tag_53\n      jump\t// in\n    tag_52:\n      mload(0x40)\n      dup1\n      swap2\n      sub\n      swap1\n      return\n        /* \"ERC721/ERC721.sol\":2901:3100  function getApproved(uint tokenId) external view override returns (address) {\r... */\n    tag_5:\n      callvalue\n      dup1\n      iszero\n      tag_54\n      jumpi\n      0x00\n      dup1\n      revert\n    tag_54:\n      pop\n      tag_55\n      0x04\n      dup1\n      calldatasize\n      sub\n      dup2\n      add\n      swap1\n      tag_56\n      swap2\n      swap1\n      tag_57\n      jump\t// in\n    tag_56:\n      tag_58\n      jump\t// in\n    tag_55:\n      mload(0x40)\n      tag_59\n      swap2\n      swap1\n      tag_60\n      jump\t// in\n    tag_59:\n      mload(0x40)\n      dup1\n      swap2\n      sub\n      swap1\n      return\n        /* \"ERC721/ERC721.sol\":3587:3889  function approve(address to, uint tokenId) external override {\r... */\n    tag_6:\n      callvalue\n      dup1\n      iszero\n      tag_61\n      jumpi\n      0x00\n      dup1\n      revert\n    tag_61:\n      pop\n      tag_62\n      0x04\n      dup1\n      calldatasize\n      sub\n      dup2\n      add\n      swap1\n      tag_63\n      swap2\n      swap1\n      tag_64\n      jump\t// in\n    tag_63:\n      tag_65\n      jump\t// in\n    tag_62:\n      stop\n        /* \"荷兰拍卖/DutchAuction.sol\":1030:1134  function totalSupply() public view virtual returns (uint256) {\r... */\n    tag_7:\n      callvalue\n      dup1\n      iszero\n      tag_66\n      jumpi\n      0x00\n      dup1\n      revert\n    tag_66:\n      pop\n      tag_67\n      tag_68\n      jump\t// in\n    tag_67:\n      mload(0x40)\n      tag_69\n      swap2\n      swap1\n      tag_70\n      jump\t// in\n    tag_69:\n      mload(0x40)\n      dup1\n      swap2\n      sub\n      swap1\n      return\n        /* \"ERC721/ERC721.sol\":5045:5385  function transferFrom(\r... */\n    tag_8:\n      callvalue\n      dup1\n      iszero\n      tag_71\n      jumpi\n      0x00\n      dup1\n      revert\n    tag_71:\n      pop\n      tag_72\n      0x04\n      dup1\n      calldatasize\n      sub\n      dup2\n      add\n      swap1\n      tag_73\n      swap2\n      swap1\n      tag_74\n      jump\t// in\n    tag_73:\n      tag_75\n      jump\t// in\n    tag_72:\n      stop\n        /* \"荷兰拍卖/DutchAuction.sol\":196:243  uint256 public constant COLLECTOIN_SIZE = 10000 */\n    tag_9:\n      callvalue\n      dup1\n      iszero\n      tag_76\n      jumpi\n      0x00\n      dup1\n      revert\n    tag_76:\n      pop\n      tag_77\n      tag_78\n      jump\t// in\n    tag_77:\n      mload(0x40)\n      tag_79\n      swap2\n      swap1\n      tag_70\n      jump\t// in\n    tag_79:\n      mload(0x40)\n      dup1\n      swap2\n      sub\n      swap1\n      return\n        /* \"ERC721/ERC721.sol\":6688:6864  function safeTransferFrom(\r... */\n    tag_10:\n      callvalue\n      dup1\n      iszero\n      tag_80\n      jumpi\n      0x00\n      dup1\n      revert\n    tag_80:\n      pop\n      tag_81\n      0x04\n      dup1\n      calldatasize\n      sub\n      dup2\n      add\n      swap1\n      tag_82\n      swap2\n      swap1\n      tag_74\n      jump\t// in\n    tag_82:\n      tag_83\n      jump\t// in\n    tag_81:\n      stop\n        /* \"荷兰拍卖/DutchAuction.sol\":1591:2084  function getAuctionPrice()\r... */\n    tag_11:\n      callvalue\n      dup1\n      iszero\n      tag_84\n      jumpi\n      0x00\n      dup1\n      revert\n    tag_84:\n      pop\n      tag_85\n      tag_86\n      jump\t// in\n    tag_85:\n      mload(0x40)\n      tag_87\n      swap2\n      swap1\n      tag_70\n      jump\t// in\n    tag_87:\n      mload(0x40)\n      dup1\n      swap2\n      sub\n      swap1\n      return\n        /* \"荷兰拍卖/DutchAuction.sol\":2117:3280  function auctionMint(uint256 quantity) external payable{\r... */\n    tag_12:\n      tag_88\n      0x04\n      dup1\n      calldatasize\n      sub\n      dup2\n      add\n      swap1\n      tag_89\n      swap2\n      swap1\n      tag_57\n      jump\t// in\n    tag_89:\n      tag_90\n      jump\t// in\n    tag_88:\n      stop\n        /* \"荷兰拍卖/DutchAuction.sol\":655:803  uint256 public constant AUCTION_DROP_PER_STEP =\r... */\n    tag_13:\n      callvalue\n      dup1\n      iszero\n      tag_91\n      jumpi\n      0x00\n      dup1\n      revert\n    tag_91:\n      pop\n      tag_92\n      tag_93\n      jump\t// in\n    tag_92:\n      mload(0x40)\n      tag_94\n      swap2\n      swap1\n      tag_70\n      jump\t// in\n    tag_94:\n      mload(0x40)\n      dup1\n      swap2\n      sub\n      swap1\n      return\n        /* \"荷兰拍卖/DutchAuction.sol\":548:605  uint256 public constant AUCTION_DROP_INTERVAL = 1 minutes */\n    tag_14:\n      callvalue\n      dup1\n      iszero\n      tag_95\n      jumpi\n      0x00\n      dup1\n      revert\n    tag_95:\n      pop\n      tag_96\n      tag_97\n      jump\t// in\n    tag_96:\n      mload(0x40)\n      tag_98\n      swap2\n      swap1\n      tag_70\n      jump\t// in\n    tag_98:\n      mload(0x40)\n      dup1\n      swap2\n      sub\n      swap1\n      return\n        /* \"ERC721/ERC721.sol\":1921:2102  function ownerOf(uint tokenId) public view override returns (address owner) {\r... */\n    tag_15:\n      callvalue\n      dup1\n      iszero\n      tag_99\n      jumpi\n      0x00\n      dup1\n      revert\n    tag_99:\n      pop\n      tag_100\n      0x04\n      dup1\n      calldatasize\n      sub\n      dup2\n      add\n      swap1\n      tag_101\n      swap2\n      swap1\n      tag_57\n      jump\t// in\n    tag_101:\n      tag_102\n      jump\t// in\n    tag_100:\n      mload(0x40)\n      tag_103\n      swap2\n      swap1\n      tag_60\n      jump\t// in\n    tag_103:\n      mload(0x40)\n      dup1\n      swap2\n      sub\n      swap1\n      return\n        /* \"ERC721/ERC721.sol\":1658:1835  function balanceOf(address owner) external view override returns (uint) {\r... */\n    tag_16:\n      callvalue\n      dup1\n      iszero\n      tag_104\n      jumpi\n      0x00\n      dup1\n      revert\n    tag_104:\n      pop\n      tag_105\n      0x04\n      dup1\n      calldatasize\n      sub\n      dup2\n      add\n      swap1\n      tag_106\n      swap2\n      swap1\n      tag_107\n      jump\t// in\n    tag_106:\n      tag_108\n      jump\t// in\n    tag_105:\n      mload(0x40)\n      tag_109\n      swap2\n      swap1\n      tag_70\n      jump\t// in\n    tag_109:\n      mload(0x40)\n      dup1\n      swap2\n      sub\n      swap1\n      return\n        /* \"@openzeppelin/contracts/access/Ownable.sol\":1831:1932  function renounceOwnership() public virtual onlyOwner {... */\n    tag_17:\n      callvalue\n      dup1\n      iszero\n      tag_110\n      jumpi\n      0x00\n      dup1\n      revert\n    tag_110:\n      pop\n      tag_111\n      tag_112\n      jump\t// in\n    tag_111:\n      stop\n        /* \"荷兰拍卖/DutchAuction.sol\":263:316  uint256 public constant AUCTION_START_PRICE = 1 ether */\n    tag_18:\n      callvalue\n      dup1\n      iszero\n      tag_113\n      jumpi\n      0x00\n      dup1\n      revert\n    tag_113:\n      pop\n      tag_114\n      tag_115\n      jump\t// in\n    tag_114:\n      mload(0x40)\n      tag_116\n      swap2\n      swap1\n      tag_70\n      jump\t// in\n    tag_116:\n      mload(0x40)\n      dup1\n      swap2\n      sub\n      swap1\n      return\n        /* \"@openzeppelin/contracts/access/Ownable.sol\":1201:1286  function owner() public view virtual returns (address) {... */\n    tag_19:\n      callvalue\n      dup1\n      iszero\n      tag_117\n      jumpi\n      0x00\n      dup1\n      revert\n    tag_117:\n      pop\n      tag_118\n      tag_119\n      jump\t// in\n    tag_118:\n      mload(0x40)\n      tag_120\n      swap2\n      swap1\n      tag_60\n      jump\t// in\n    tag_120:\n      mload(0x40)\n      dup1\n      swap2\n      sub\n      swap1\n      return\n        /* \"ERC721/ERC721.sol\":513:542  string public override symbol */\n    tag_20:\n      callvalue\n      dup1\n      iszero\n      tag_121\n      jumpi\n      0x00\n      dup1\n      revert\n    tag_121:\n      pop\n      tag_122\n      tag_123\n      jump\t// in\n    tag_122:\n      mload(0x40)\n      tag_124\n      swap2\n      swap1\n      tag_53\n      jump\t// in\n    tag_124:\n      mload(0x40)\n      dup1\n      swap2\n      sub\n      swap1\n      return\n        /* \"ERC721/ERC721.sol\":2586:2796  function setApprovalForAll(address operator, bool approved) external override {\r... */\n    tag_21:\n      callvalue\n      dup1\n      iszero\n      tag_125\n      jumpi\n      0x00\n      dup1\n      revert\n    tag_125:\n      pop\n      tag_126\n      0x04\n      dup1\n      calldatasize\n      sub\n      dup2\n      add\n      swap1\n      tag_127\n      swap2\n      swap1\n      tag_128\n      jump\t// in\n    tag_127:\n      tag_129\n      jump\t// in\n    tag_126:\n      stop\n        /* \"荷兰拍卖/DutchAuction.sol\":3325:3546  function withdrawMoney() external onlyOwner {\r... */\n    tag_22:\n      callvalue\n      dup1\n      iszero\n      tag_130\n      jumpi\n      0x00\n      dup1\n      revert\n    tag_130:\n      pop\n      tag_131\n      tag_132\n      jump\t// in\n    tag_131:\n      stop\n        /* \"ERC721/ERC721.sol\":6261:6643  function safeTransferFrom(\r... */\n    tag_23:\n      callvalue\n      dup1\n      iszero\n      tag_133\n      jumpi\n      0x00\n      dup1\n      revert\n    tag_133:\n      pop\n      tag_134\n      0x04\n      dup1\n      calldatasize\n      sub\n      dup2\n      add\n      swap1\n      tag_135\n      swap2\n      swap1\n      tag_136\n      jump\t// in\n    tag_135:\n      tag_137\n      jump\t// in\n    tag_134:\n      stop\n        /* \"ERC721/ERC721.sol\":8869:9185  function tokenURI(uint256 tokenId) public view virtual override returns (string memory) {\r... */\n    tag_24:\n      callvalue\n      dup1\n      iszero\n      tag_138\n      jumpi\n      0x00\n      dup1\n      revert\n    tag_138:\n      pop\n      tag_139\n      0x04\n      dup1\n      calldatasize\n      sub\n      dup2\n      add\n      swap1\n      tag_140\n      swap2\n      swap1\n      tag_57\n      jump\t// in\n    tag_140:\n      tag_141\n      jump\t// in\n    tag_139:\n      mload(0x40)\n      tag_142\n      swap2\n      swap1\n      tag_53\n      jump\t// in\n    tag_142:\n      mload(0x40)\n      dup1\n      swap2\n      sub\n      swap1\n      return\n        /* \"荷兰拍卖/DutchAuction.sol\":347:400  uint256 public constant AUCTION_END_PRICE = 0.1 ether */\n    tag_25:\n      callvalue\n      dup1\n      iszero\n      tag_143\n      jumpi\n      0x00\n      dup1\n      revert\n    tag_143:\n      pop\n      tag_144\n      tag_145\n      jump\t// in\n    tag_144:\n      mload(0x40)\n      tag_146\n      swap2\n      swap1\n      tag_70\n      jump\t// in\n    tag_146:\n      mload(0x40)\n      dup1\n      swap2\n      sub\n      swap1\n      return\n        /* \"荷兰拍卖/DutchAuction.sol\":441:490  uint256 public constant AUCTION_TIME = 10 minutes */\n    tag_26:\n      callvalue\n      dup1\n      iszero\n      tag_147\n      jumpi\n      0x00\n      dup1\n      revert\n    tag_147:\n      pop\n      tag_148\n      tag_149\n      jump\t// in\n    tag_148:\n      mload(0x40)\n      tag_150\n      swap2\n      swap1\n      tag_70\n      jump\t// in\n    tag_150:\n      mload(0x40)\n      dup1\n      swap2\n      sub\n      swap1\n      return\n        /* \"ERC721/ERC721.sol\":2254:2453  function isApprovedForAll(address owner, address operator)\r... */\n    tag_27:\n      callvalue\n      dup1\n      iszero\n      tag_151\n      jumpi\n      0x00\n      dup1\n      revert\n    tag_151:\n      pop\n      tag_152\n      0x04\n      dup1\n      calldatasize\n      sub\n      dup2\n      add\n      swap1\n      tag_153\n      swap2\n      swap1\n      tag_154\n      jump\t// in\n    tag_153:\n      tag_155\n      jump\t// in\n    tag_152:\n      mload(0x40)\n      tag_156\n      swap2\n      swap1\n      tag_43\n      jump\t// in\n    tag_156:\n      mload(0x40)\n      dup1\n      swap2\n      sub\n      swap1\n      return\n        /* \"荷兰拍卖/DutchAuction.sol\":844:875  uint256 public auctionStartTime */\n    tag_28:\n      callvalue\n      dup1\n      iszero\n      tag_157\n      jumpi\n      0x00\n      dup1\n      revert\n    tag_157:\n      pop\n      tag_158\n      tag_159\n      jump\t// in\n    tag_158:\n      mload(0x40)\n      tag_160\n      swap2\n      swap1\n      tag_70\n      jump\t// in\n    tag_160:\n      mload(0x40)\n      dup1\n      swap2\n      sub\n      swap1\n      return\n        /* \"@openzeppelin/contracts/access/Ownable.sol\":2081:2279  function transferOwnership(address newOwner) public virtual onlyOwner {... */\n    tag_29:\n      callvalue\n      dup1\n      iszero\n      tag_161\n      jumpi\n      0x00\n      dup1\n      revert\n    tag_161:\n      pop\n      tag_162\n      0x04\n      dup1\n      calldatasize\n      sub\n      dup2\n      add\n      swap1\n      tag_163\n      swap2\n      swap1\n      tag_107\n      jump\t// in\n    tag_163:\n      tag_164\n      jump\t// in\n    tag_162:\n      stop\n        /* \"ERC721/ERC721.sol\":1235:1562  function supportsInterface(bytes4 interfaceId)\r... */\n    tag_41:\n        /* \"ERC721/ERC721.sol\":1350:1354  bool */\n      0x00\n        /* \"ERC721/ERC721.sol\":1407:1432  type(IERC721).interfaceId */\n      0x80ac58cd00000000000000000000000000000000000000000000000000000000\n        /* \"ERC721/ERC721.sol\":1392:1432  interfaceId == type(IERC721).interfaceId */\n      not(0xffffffffffffffffffffffffffffffffffffffffffffffffffffffff)\n      and\n        /* \"ERC721/ERC721.sol\":1392:1403  interfaceId */\n      dup3\n        /* \"ERC721/ERC721.sol\":1392:1432  interfaceId == type(IERC721).interfaceId */\n      not(0xffffffffffffffffffffffffffffffffffffffffffffffffffffffff)\n      and\n      eq\n        /* \"ERC721/ERC721.sol\":1392:1489  interfaceId == type(IERC721).interfaceId ||\r... */\n      dup1\n      tag_166\n      jumpi\n      pop\n        /* \"ERC721/ERC721.sol\":1464:1489  type(IERC165).interfaceId */\n      0x01ffc9a700000000000000000000000000000000000000000000000000000000\n        /* \"ERC721/ERC721.sol\":1449:1489  interfaceId == type(IERC165).interfaceId */\n      not(0xffffffffffffffffffffffffffffffffffffffffffffffffffffffff)\n      and\n        /* \"ERC721/ERC721.sol\":1449:1460  interfaceId */\n      dup3\n        /* \"ERC721/ERC721.sol\":1449:1489  interfaceId == type(IERC165).interfaceId */\n      not(0xffffffffffffffffffffffffffffffffffffffffffffffffffffffff)\n      and\n      eq\n        /* \"ERC721/ERC721.sol\":1392:1489  interfaceId == type(IERC721).interfaceId ||\r... */\n    tag_166:\n        /* \"ERC721/ERC721.sol\":1392:1554  interfaceId == type(IERC721).interfaceId ||\r... */\n      dup1\n      tag_167\n      jumpi\n      pop\n        /* \"ERC721/ERC721.sol\":1521:1554  type(IERC721Metadata).interfaceId */\n      0x5b5e139f00000000000000000000000000000000000000000000000000000000\n        /* \"ERC721/ERC721.sol\":1506:1554  interfaceId == type(IERC721Metadata).interfaceId */\n      not(0xffffffffffffffffffffffffffffffffffffffffffffffffffffffff)\n      and\n        /* \"ERC721/ERC721.sol\":1506:1517  interfaceId */\n      dup3\n        /* \"ERC721/ERC721.sol\":1506:1554  interfaceId == type(IERC721Metadata).interfaceId */\n      not(0xffffffffffffffffffffffffffffffffffffffffffffffffffffffff)\n      and\n      eq\n        /* \"ERC721/ERC721.sol\":1392:1554  interfaceId == type(IERC721).interfaceId ||\r... */\n    tag_167:\n        /* \"ERC721/ERC721.sol\":1372:1554  return\r... */\n      swap1\n      pop\n        /* \"ERC721/ERC721.sol\":1235:1562  function supportsInterface(bytes4 interfaceId)\r... */\n      swap2\n      swap1\n      pop\n      jump\t// out\n        /* \"荷兰拍卖/DutchAuction.sol\":1433:1546  function setAuctionStartTime(uint32 timestamp) external onlyOwner {\r... */\n    tag_48:\n        /* \"@openzeppelin/contracts/access/Ownable.sol\":1094:1107  _checkOwner() */\n      tag_169\n        /* \"@openzeppelin/contracts/access/Ownable.sol\":1094:1105  _checkOwner */\n      tag_170\n        /* \"@openzeppelin/contracts/access/Ownable.sol\":1094:1107  _checkOwner() */\n      jump\t// in\n    tag_169:\n        /* \"荷兰拍卖/DutchAuction.sol\":1529:1538  timestamp */\n      dup1\n        /* \"荷兰拍卖/DutchAuction.sol\":1510:1538  auctionStartTime = timestamp */\n      0xffffffff\n      and\n        /* \"荷兰拍卖/DutchAuction.sol\":1510:1526  auctionStartTime */\n      0x07\n        /* \"荷兰拍卖/DutchAuction.sol\":1510:1538  auctionStartTime = timestamp */\n      dup2\n      swap1\n      sstore\n      pop\n        /* \"荷兰拍卖/DutchAuction.sol\":1433:1546  function setAuctionStartTime(uint32 timestamp) external onlyOwner {\r... */\n      pop\n      jump\t// out\n        /* \"ERC721/ERC721.sol\":459:486  string public override name */\n    tag_51:\n      0x01\n      dup1\n      sload\n      tag_172\n      swap1\n      tag_173\n      jump\t// in\n    tag_172:\n      dup1\n      0x1f\n      add\n      0x20\n      dup1\n      swap2\n      div\n      mul\n      0x20\n      add\n      mload(0x40)\n      swap1\n      dup2\n      add\n      0x40\n      mstore\n      dup1\n      swap3\n      swap2\n      swap1\n      dup2\n      dup2\n      mstore\n      0x20\n      add\n      dup3\n      dup1\n      sload\n      tag_174\n      swap1\n      tag_173\n      jump\t// in\n    tag_174:\n      dup1\n      iszero\n      tag_175\n      jumpi\n      dup1\n      0x1f\n      lt\n      tag_176\n      jumpi\n      0x0100\n      dup1\n      dup4\n      sload\n      div\n      mul\n      dup4\n      mstore\n      swap2\n      0x20\n      add\n      swap2\n      jump(tag_175)\n    tag_176:\n      dup3\n      add\n      swap2\n      swap1\n      0x00\n      mstore\n      keccak256(0x00, 0x20)\n      swap1\n    tag_177:\n      dup2\n      sload\n      dup2\n      mstore\n      swap1\n      0x01\n      add\n      swap1\n      0x20\n      add\n      dup1\n      dup4\n      gt\n      tag_177\n      jumpi\n      dup3\n      swap1\n      sub\n      0x1f\n      and\n      dup3\n      add\n      swap2\n    tag_175:\n      pop\n      pop\n      pop\n      pop\n      pop\n      dup2\n      jump\t// out\n        /* \"ERC721/ERC721.sol\":2901:3100  function getApproved(uint tokenId) external view override returns (address) {\r... */\n    tag_58:\n        /* \"ERC721/ERC721.sol\":2968:2975  address */\n      0x00\n        /* \"ERC721/ERC721.sol\":3024:3025  0 */\n      dup1\n        /* \"ERC721/ERC721.sol\":2996:3026  _owners[tokenId] != address(0) */\n      0xffffffffffffffffffffffffffffffffffffffff\n      and\n        /* \"ERC721/ERC721.sol\":2996:3003  _owners */\n      0x03\n        /* \"ERC721/ERC721.sol\":2996:3012  _owners[tokenId] */\n      0x00\n        /* \"ERC721/ERC721.sol\":3004:3011  tokenId */\n      dup5\n        /* \"ERC721/ERC721.sol\":2996:3012  _owners[tokenId] */\n      dup2\n      mstore\n      0x20\n      add\n      swap1\n      dup2\n      mstore\n      0x20\n      add\n      0x00\n      keccak256\n      0x00\n      swap1\n      sload\n      swap1\n      0x0100\n      exp\n      swap1\n      div\n      0xffffffffffffffffffffffffffffffffffffffff\n      and\n        /* \"ERC721/ERC721.sol\":2996:3026  _owners[tokenId] != address(0) */\n      0xffffffffffffffffffffffffffffffffffffffff\n      and\n      eq\n      iszero\n        /* \"ERC721/ERC721.sol\":2988:3050  require(_owners[tokenId] != address(0), \"token doesn't exist\") */\n      tag_179\n      jumpi\n      mload(0x40)\n      0x08c379a000000000000000000000000000000000000000000000000000000000\n      dup2\n      mstore\n      0x04\n      add\n      tag_180\n      swap1\n      tag_181\n      jump\t// in\n    tag_180:\n      mload(0x40)\n      dup1\n      swap2\n      sub\n      swap1\n      revert\n    tag_179:\n        /* \"ERC721/ERC721.sol\":3068:3083  _tokenApprovals */\n      0x05\n        /* \"ERC721/ERC721.sol\":3068:3092  _tokenApprovals[tokenId] */\n      0x00\n        /* \"ERC721/ERC721.sol\":3084:3091  tokenId */\n      dup4\n        /* \"ERC721/ERC721.sol\":3068:3092  _tokenApprovals[tokenId] */\n      dup2\n      mstore\n      0x20\n      add\n      swap1\n      dup2\n      mstore\n      0x20\n      add\n      0x00\n      keccak256\n      0x00\n      swap1\n      sload\n      swap1\n      0x0100\n      exp\n      swap1\n      div\n      0xffffffffffffffffffffffffffffffffffffffff\n      and\n        /* \"ERC721/ERC721.sol\":3061:3092  return _tokenApprovals[tokenId] */\n      swap1\n      pop\n        /* \"ERC721/ERC721.sol\":2901:3100  function getApproved(uint tokenId) external view override returns (address) {\r... */\n      swap2\n      swap1\n      pop\n      jump\t// out\n        /* \"ERC721/ERC721.sol\":3587:3889  function approve(address to, uint tokenId) external override {\r... */\n    tag_65:\n        /* \"ERC721/ERC721.sol\":3659:3672  address owner */\n      0x00\n        /* \"ERC721/ERC721.sol\":3675:3682  _owners */\n      0x03\n        /* \"ERC721/ERC721.sol\":3675:3691  _owners[tokenId] */\n      0x00\n        /* \"ERC721/ERC721.sol\":3683:3690  tokenId */\n      dup4\n        /* \"ERC721/ERC721.sol\":3675:3691  _owners[tokenId] */\n      dup2\n      mstore\n      0x20\n      add\n      swap1\n      dup2\n      mstore\n      0x20\n      add\n      0x00\n      keccak256\n      0x00\n      swap1\n      sload\n      swap1\n      0x0100\n      exp\n      swap1\n      div\n      0xffffffffffffffffffffffffffffffffffffffff\n      and\n        /* \"ERC721/ERC721.sol\":3659:3691  address owner = _owners[tokenId] */\n      swap1\n      pop\n        /* \"ERC721/ERC721.sol\":3738:3743  owner */\n      dup1\n        /* \"ERC721/ERC721.sol\":3724:3743  msg.sender == owner */\n      0xffffffffffffffffffffffffffffffffffffffff\n      and\n        /* \"ERC721/ERC721.sol\":3724:3734  msg.sender */\n      caller\n        /* \"ERC721/ERC721.sol\":3724:3743  msg.sender == owner */\n      0xffffffffffffffffffffffffffffffffffffffff\n      and\n      eq\n        /* \"ERC721/ERC721.sol\":3724:3784  msg.sender == owner || _operatorApprovals[owner][msg.sender] */\n      dup1\n      tag_183\n      jumpi\n      pop\n        /* \"ERC721/ERC721.sol\":3747:3765  _operatorApprovals */\n      0x06\n        /* \"ERC721/ERC721.sol\":3747:3772  _operatorApprovals[owner] */\n      0x00\n        /* \"ERC721/ERC721.sol\":3766:3771  owner */\n      dup3\n        /* \"ERC721/ERC721.sol\":3747:3772  _operatorApprovals[owner] */\n      0xffffffffffffffffffffffffffffffffffffffff\n      and\n      0xffffffffffffffffffffffffffffffffffffffff\n      and\n      dup2\n      mstore\n      0x20\n      add\n      swap1\n      dup2\n      mstore\n      0x20\n      add\n      0x00\n      keccak256\n        /* \"ERC721/ERC721.sol\":3747:3784  _operatorApprovals[owner][msg.sender] */\n      0x00\n        /* \"ERC721/ERC721.sol\":3773:3783  msg.sender */\n      caller\n        /* \"ERC721/ERC721.sol\":3747:3784  _operatorApprovals[owner][msg.sender] */\n      0xffffffffffffffffffffffffffffffffffffffff\n      and\n      0xffffffffffffffffffffffffffffffffffffffff\n      and\n      dup2\n      mstore\n      0x20\n      add\n      swap1\n      dup2\n      mstore\n      0x20\n      add\n      0x00\n      keccak256\n      0x00\n      swap1\n      sload\n      swap1\n      0x0100\n      exp\n      swap1\n      div\n      0xff\n      and\n        /* \"ERC721/ERC721.sol\":3724:3784  msg.sender == owner || _operatorApprovals[owner][msg.sender] */\n    tag_183:\n        /* \"ERC721/ERC721.sol\":3702:3842  require(\r... */\n      tag_184\n      jumpi\n      mload(0x40)\n      0x08c379a000000000000000000000000000000000000000000000000000000000\n      dup2\n      mstore\n      0x04\n      add\n      tag_185\n      swap1\n      tag_186\n      jump\t// in\n    tag_185:\n      mload(0x40)\n      dup1\n      swap2\n      sub\n      swap1\n      revert\n    tag_184:\n        /* \"ERC721/ERC721.sol\":3853:3881  _approve(owner, to, tokenId) */\n      tag_187\n        /* \"ERC721/ERC721.sol\":3862:3867  owner */\n      dup2\n        /* \"ERC721/ERC721.sol\":3869:3871  to */\n      dup5\n        /* \"ERC721/ERC721.sol\":3873:3880  tokenId */\n      dup5\n        /* \"ERC721/ERC721.sol\":3853:3861  _approve */\n      tag_188\n        /* \"ERC721/ERC721.sol\":3853:3881  _approve(owner, to, tokenId) */\n      jump\t// in\n    tag_187:\n        /* \"ERC721/ERC721.sol\":3587:3889  function approve(address to, uint tokenId) external override {\r... */\n      pop\n      pop\n      pop\n      jump\t// out\n        /* \"荷兰拍卖/DutchAuction.sol\":1030:1134  function totalSupply() public view virtual returns (uint256) {\r... */\n    tag_68:\n        /* \"荷兰拍卖/DutchAuction.sol\":1082:1089  uint256 */\n      0x00\n        /* \"荷兰拍卖/DutchAuction.sol\":1109:1119  _allTokens */\n      0x09\n        /* \"荷兰拍卖/DutchAuction.sol\":1109:1126  _allTokens.length */\n      dup1\n      sload\n      swap1\n      pop\n        /* \"荷兰拍卖/DutchAuction.sol\":1102:1126  return _allTokens.length */\n      swap1\n      pop\n        /* \"荷兰拍卖/DutchAuction.sol\":1030:1134  function totalSupply() public view virtual returns (uint256) {\r... */\n      swap1\n      jump\t// out\n        /* \"ERC721/ERC721.sol\":5045:5385  function transferFrom(\r... */\n    tag_75:\n        /* \"ERC721/ERC721.sol\":5170:5183  address owner */\n      0x00\n        /* \"ERC721/ERC721.sol\":5186:5202  ownerOf(tokenId) */\n      tag_191\n        /* \"ERC721/ERC721.sol\":5194:5201  tokenId */\n      dup3\n        /* \"ERC721/ERC721.sol\":5186:5193  ownerOf */\n      tag_102\n        /* \"ERC721/ERC721.sol\":5186:5202  ownerOf(tokenId) */\n      jump\t// in\n    tag_191:\n        /* \"ERC721/ERC721.sol\":5170:5202  address owner = ownerOf(tokenId) */\n      swap1\n      pop\n        /* \"ERC721/ERC721.sol\":5235:5281  _isApprovedOrOwner(owner, msg.sender, tokenId) */\n      tag_192\n        /* \"ERC721/ERC721.sol\":5254:5259  owner */\n      dup2\n        /* \"ERC721/ERC721.sol\":5261:5271  msg.sender */\n      caller\n        /* \"ERC721/ERC721.sol\":5273:5280  tokenId */\n      dup5\n        /* \"ERC721/ERC721.sol\":5235:5253  _isApprovedOrOwner */\n      tag_193\n        /* \"ERC721/ERC721.sol\":5235:5281  _isApprovedOrOwner(owner, msg.sender, tokenId) */\n      jump\t// in\n    tag_192:\n        /* \"ERC721/ERC721.sol\":5213:5331  require(\r... */\n      tag_194\n      jumpi\n      mload(0x40)\n      0x08c379a000000000000000000000000000000000000000000000000000000000\n      dup2\n      mstore\n      0x04\n      add\n      tag_195\n      swap1\n      tag_196\n      jump\t// in\n    tag_195:\n      mload(0x40)\n      dup1\n      swap2\n      sub\n      swap1\n      revert\n    tag_194:\n        /* \"ERC721/ERC721.sol\":5342:5377  _transfer(owner, from, to, tokenId) */\n      tag_197\n        /* \"ERC721/ERC721.sol\":5352:5357  owner */\n      dup2\n        /* \"ERC721/ERC721.sol\":5359:5363  from */\n      dup6\n        /* \"ERC721/ERC721.sol\":5365:5367  to */\n      dup6\n        /* \"ERC721/ERC721.sol\":5369:5376  tokenId */\n      dup6\n        /* \"ERC721/ERC721.sol\":5342:5351  _transfer */\n      tag_198\n        /* \"ERC721/ERC721.sol\":5342:5377  _transfer(owner, from, to, tokenId) */\n      jump\t// in\n    tag_197:\n        /* \"ERC721/ERC721.sol\":5045:5385  function transferFrom(\r... */\n      pop\n      pop\n      pop\n      pop\n      jump\t// out\n        /* \"荷兰拍卖/DutchAuction.sol\":196:243  uint256 public constant COLLECTOIN_SIZE = 10000 */\n    tag_78:\n        /* \"荷兰拍卖/DutchAuction.sol\":238:243  10000 */\n      0x2710\n        /* \"荷兰拍卖/DutchAuction.sol\":196:243  uint256 public constant COLLECTOIN_SIZE = 10000 */\n      dup2\n      jump\t// out\n        /* \"ERC721/ERC721.sol\":6688:6864  function safeTransferFrom(\r... */\n    tag_83:\n        /* \"ERC721/ERC721.sol\":6817:6856  safeTransferFrom(from, to, tokenId, \"\") */\n      tag_200\n        /* \"ERC721/ERC721.sol\":6834:6838  from */\n      dup4\n        /* \"ERC721/ERC721.sol\":6840:6842  to */\n      dup4\n        /* \"ERC721/ERC721.sol\":6844:6851  tokenId */\n      dup4\n        /* \"ERC721/ERC721.sol\":6817:6856  safeTransferFrom(from, to, tokenId, \"\") */\n      mload(0x40)\n      dup1\n      0x20\n      add\n      0x40\n      mstore\n      dup1\n      0x00\n      dup2\n      mstore\n      pop\n        /* \"ERC721/ERC721.sol\":6817:6833  safeTransferFrom */\n      tag_137\n        /* \"ERC721/ERC721.sol\":6817:6856  safeTransferFrom(from, to, tokenId, \"\") */\n      jump\t// in\n    tag_200:\n        /* \"ERC721/ERC721.sol\":6688:6864  function safeTransferFrom(\r... */\n      pop\n      pop\n      pop\n      jump\t// out\n        /* \"荷兰拍卖/DutchAuction.sol\":1591:2084  function getAuctionPrice()\r... */\n    tag_86:\n        /* \"荷兰拍卖/DutchAuction.sol\":1666:1673  uint256 */\n      0x00\n        /* \"荷兰拍卖/DutchAuction.sol\":1713:1729  auctionStartTime */\n      sload(0x07)\n        /* \"荷兰拍卖/DutchAuction.sol\":1695:1710  block.timestamp */\n      timestamp\n        /* \"荷兰拍卖/DutchAuction.sol\":1695:1729  block.timestamp < auctionStartTime */\n      lt\n        /* \"荷兰拍卖/DutchAuction.sol\":1691:2077  if (block.timestamp < auctionStartTime) {\r... */\n      iszero\n      tag_202\n      jumpi\n        /* \"荷兰拍卖/DutchAuction.sol\":309:316  1 ether */\n      0x0de0b6b3a7640000\n        /* \"荷兰拍卖/DutchAuction.sol\":1742:1768  return AUCTION_START_PRICE */\n      swap1\n      pop\n      jump(tag_201)\n        /* \"荷兰拍卖/DutchAuction.sol\":1691:2077  if (block.timestamp < auctionStartTime) {\r... */\n    tag_202:\n        /* \"荷兰拍卖/DutchAuction.sol\":480:490  10 minutes */\n      0x0258\n        /* \"荷兰拍卖/DutchAuction.sol\":1807:1823  auctionStartTime */\n      sload(0x07)\n        /* \"荷兰拍卖/DutchAuction.sol\":1789:1804  block.timestamp */\n      timestamp\n        /* \"荷兰拍卖/DutchAuction.sol\":1789:1823  block.timestamp - auctionStartTime */\n      tag_204\n      swap2\n      swap1\n      tag_205\n      jump\t// in\n    tag_204:\n        /* \"荷兰拍卖/DutchAuction.sol\":1789:1839  block.timestamp - auctionStartTime >= AUCTION_TIME */\n      lt\n        /* \"荷兰拍卖/DutchAuction.sol\":1785:2077  if (block.timestamp - auctionStartTime >= AUCTION_TIME) {\r... */\n      tag_206\n      jumpi\n        /* \"荷兰拍卖/DutchAuction.sol\":391:400  0.1 ether */\n      0x016345785d8a0000\n        /* \"荷兰拍卖/DutchAuction.sol\":1852:1876  return AUCTION_END_PRICE */\n      swap1\n      pop\n      jump(tag_201)\n        /* \"荷兰拍卖/DutchAuction.sol\":1785:2077  if (block.timestamp - auctionStartTime >= AUCTION_TIME) {\r... */\n    tag_206:\n        /* \"荷兰拍卖/DutchAuction.sol\":1905:1918  uint256 steps */\n      0x00\n        /* \"荷兰拍卖/DutchAuction.sol\":596:605  1 minutes */\n      0x3c\n        /* \"荷兰拍卖/DutchAuction.sol\":1940:1956  auctionStartTime */\n      sload(0x07)\n        /* \"荷兰拍卖/DutchAuction.sol\":1922:1937  block.timestamp */\n      timestamp\n        /* \"荷兰拍卖/DutchAuction.sol\":1922:1956  block.timestamp - auctionStartTime */\n      tag_208\n      swap2\n      swap1\n      tag_205\n      jump\t// in\n    tag_208:\n        /* \"荷兰拍卖/DutchAuction.sol\":1921:1994  (block.timestamp - auctionStartTime) /\r... */\n      tag_209\n      swap2\n      swap1\n      tag_210\n      jump\t// in\n    tag_209:\n        /* \"荷兰拍卖/DutchAuction.sol\":1905:1994  uint256 steps = (block.timestamp - auctionStartTime) /\r... */\n      swap1\n      pop\n        /* \"荷兰拍卖/DutchAuction.sol\":596:605  1 minutes */\n      0x3c\n        /* \"荷兰拍卖/DutchAuction.sol\":480:490  10 minutes */\n      0x0258\n        /* \"荷兰拍卖/DutchAuction.sol\":766:802  AUCTION_TIME / AUCTION_DROP_INTERVAL */\n      tag_211\n      swap2\n      swap1\n      tag_210\n      jump\t// in\n    tag_211:\n        /* \"荷兰拍卖/DutchAuction.sol\":391:400  0.1 ether */\n      0x016345785d8a0000\n        /* \"荷兰拍卖/DutchAuction.sol\":309:316  1 ether */\n      0x0de0b6b3a7640000\n        /* \"荷兰拍卖/DutchAuction.sol\":713:752  AUCTION_START_PRICE - AUCTION_END_PRICE */\n      tag_212\n      swap2\n      swap1\n      tag_205\n      jump\t// in\n    tag_212:\n        /* \"荷兰拍卖/DutchAuction.sol\":712:803  (AUCTION_START_PRICE - AUCTION_END_PRICE) /\r... */\n      tag_213\n      swap2\n      swap1\n      tag_210\n      jump\t// in\n    tag_213:\n        /* \"荷兰拍卖/DutchAuction.sol\":2035:2040  steps */\n      dup2\n        /* \"荷兰拍卖/DutchAuction.sol\":2035:2064  steps * AUCTION_DROP_PER_STEP */\n      tag_214\n      swap2\n      swap1\n      tag_215\n      jump\t// in\n    tag_214:\n        /* \"荷兰拍卖/DutchAuction.sol\":309:316  1 ether */\n      0x0de0b6b3a7640000\n        /* \"荷兰拍卖/DutchAuction.sol\":2012:2065  AUCTION_START_PRICE - (steps * AUCTION_DROP_PER_STEP) */\n      tag_216\n      swap2\n      swap1\n      tag_205\n      jump\t// in\n    tag_216:\n        /* \"荷兰拍卖/DutchAuction.sol\":2005:2065  return AUCTION_START_PRICE - (steps * AUCTION_DROP_PER_STEP) */\n      swap2\n      pop\n      pop\n        /* \"荷兰拍卖/DutchAuction.sol\":1591:2084  function getAuctionPrice()\r... */\n    tag_201:\n      swap1\n      jump\t// out\n        /* \"荷兰拍卖/DutchAuction.sol\":2117:3280  function auctionMint(uint256 quantity) external payable{\r... */\n    tag_90:\n        /* \"荷兰拍卖/DutchAuction.sol\":2183:2205  uint256 _saleStartTime */\n      0x00\n        /* \"荷兰拍卖/DutchAuction.sol\":2216:2232  auctionStartTime */\n      sload(0x07)\n        /* \"荷兰拍卖/DutchAuction.sol\":2183:2233  uint256 _saleStartTime = uint256(auctionStartTime) */\n      swap1\n      pop\n        /* \"荷兰拍卖/DutchAuction.sol\":2319:2320  0 */\n      0x00\n        /* \"荷兰拍卖/DutchAuction.sol\":2301:2315  _saleStartTime */\n      dup2\n        /* \"荷兰拍卖/DutchAuction.sol\":2301:2320  _saleStartTime != 0 */\n      eq\n      iszero\n        /* \"荷兰拍卖/DutchAuction.sol\":2301:2357  _saleStartTime != 0 && block.timestamp >= _saleStartTime */\n      dup1\n      iszero\n      tag_218\n      jumpi\n      pop\n        /* \"荷兰拍卖/DutchAuction.sol\":2343:2357  _saleStartTime */\n      dup1\n        /* \"荷兰拍卖/DutchAuction.sol\":2324:2339  block.timestamp */\n      timestamp\n        /* \"荷兰拍卖/DutchAuction.sol\":2324:2357  block.timestamp >= _saleStartTime */\n      lt\n      iszero\n        /* \"荷兰拍卖/DutchAuction.sol\":2301:2357  _saleStartTime != 0 && block.timestamp >= _saleStartTime */\n    tag_218:\n        /* \"荷兰拍卖/DutchAuction.sol\":2283:2405  require(\r... */\n      tag_219\n      jumpi\n      mload(0x40)\n      0x08c379a000000000000000000000000000000000000000000000000000000000\n      dup2\n      mstore\n      0x04\n      add\n      tag_220\n      swap1\n      tag_221\n      jump\t// in\n    tag_220:\n      mload(0x40)\n      dup1\n      swap2\n      sub\n      swap1\n      revert\n    tag_219:\n        /* \"荷兰拍卖/DutchAuction.sol\":238:243  10000 */\n      0x2710\n        /* \"荷兰拍卖/DutchAuction.sol\":2505:2513  quantity */\n      dup3\n        /* \"荷兰拍卖/DutchAuction.sol\":2489:2502  totalSupply() */\n      tag_222\n        /* \"荷兰拍卖/DutchAuction.sol\":2489:2500  totalSupply */\n      tag_68\n        /* \"荷兰拍卖/DutchAuction.sol\":2489:2502  totalSupply() */\n      jump\t// in\n    tag_222:\n        /* \"荷兰拍卖/DutchAuction.sol\":2489:2513  totalSupply() + quantity */\n      tag_223\n      swap2\n      swap1\n      tag_224\n      jump\t// in\n    tag_223:\n        /* \"荷兰拍卖/DutchAuction.sol\":2489:2532  totalSupply() + quantity <= COLLECTOIN_SIZE */\n      gt\n      iszero\n        /* \"荷兰拍卖/DutchAuction.sol\":2471:2628  require(\r... */\n      tag_225\n      jumpi\n      mload(0x40)\n      0x08c379a000000000000000000000000000000000000000000000000000000000\n      dup2\n      mstore\n      0x04\n      add\n      tag_226\n      swap1\n      tag_227\n      jump\t// in\n    tag_226:\n      mload(0x40)\n      dup1\n      swap2\n      sub\n      swap1\n      revert\n    tag_225:\n        /* \"荷兰拍卖/DutchAuction.sol\":2672:2689  uint256 totalCost */\n      0x00\n        /* \"荷兰拍卖/DutchAuction.sol\":2712:2720  quantity */\n      dup3\n        /* \"荷兰拍卖/DutchAuction.sol\":2692:2709  getAuctionPrice() */\n      tag_228\n        /* \"荷兰拍卖/DutchAuction.sol\":2692:2707  getAuctionPrice */\n      tag_86\n        /* \"荷兰拍卖/DutchAuction.sol\":2692:2709  getAuctionPrice() */\n      jump\t// in\n    tag_228:\n        /* \"荷兰拍卖/DutchAuction.sol\":2692:2720  getAuctionPrice() * quantity */\n      tag_229\n      swap2\n      swap1\n      tag_215\n      jump\t// in\n    tag_229:\n        /* \"荷兰拍卖/DutchAuction.sol\":2672:2720  uint256 totalCost = getAuctionPrice() * quantity */\n      swap1\n      pop\n        /* \"荷兰拍卖/DutchAuction.sol\":2772:2781  totalCost */\n      dup1\n        /* \"荷兰拍卖/DutchAuction.sol\":2759:2768  msg.value */\n      callvalue\n        /* \"荷兰拍卖/DutchAuction.sol\":2759:2781  msg.value >= totalCost */\n      lt\n      iszero\n        /* \"荷兰拍卖/DutchAuction.sol\":2751:2808  require(msg.value >= totalCost, \"Need to send more ETH.\") */\n      tag_230\n      jumpi\n      mload(0x40)\n      0x08c379a000000000000000000000000000000000000000000000000000000000\n      dup2\n      mstore\n      0x04\n      add\n      tag_231\n      swap1\n      tag_232\n      jump\t// in\n    tag_231:\n      mload(0x40)\n      dup1\n      swap2\n      sub\n      swap1\n      revert\n    tag_230:\n        /* \"荷兰拍卖/DutchAuction.sol\":2891:2900  uint256 i */\n      0x00\n        /* \"荷兰拍卖/DutchAuction.sol\":2887:3085  for(uint256 i = 0; i < quantity; i++) {\r... */\n    tag_233:\n        /* \"荷兰拍卖/DutchAuction.sol\":2910:2918  quantity */\n      dup4\n        /* \"荷兰拍卖/DutchAuction.sol\":2906:2907  i */\n      dup2\n        /* \"荷兰拍卖/DutchAuction.sol\":2906:2918  i < quantity */\n      lt\n        /* \"荷兰拍卖/DutchAuction.sol\":2887:3085  for(uint256 i = 0; i < quantity; i++) {\r... */\n      iszero\n      tag_234\n      jumpi\n        /* \"荷兰拍卖/DutchAuction.sol\":2940:2957  uint256 mintIndex */\n      0x00\n        /* \"荷兰拍卖/DutchAuction.sol\":2960:2973  totalSupply() */\n      tag_236\n        /* \"荷兰拍卖/DutchAuction.sol\":2960:2971  totalSupply */\n      tag_68\n        /* \"荷兰拍卖/DutchAuction.sol\":2960:2973  totalSupply() */\n      jump\t// in\n    tag_236:\n        /* \"荷兰拍卖/DutchAuction.sol\":2940:2973  uint256 mintIndex = totalSupply() */\n      swap1\n      pop\n        /* \"荷兰拍卖/DutchAuction.sol\":2988:3016  _mint(msg.sender, mintIndex) */\n      tag_237\n        /* \"荷兰拍卖/DutchAuction.sol\":2994:3004  msg.sender */\n      caller\n        /* \"荷兰拍卖/DutchAuction.sol\":3006:3015  mintIndex */\n      dup3\n        /* \"荷兰拍卖/DutchAuction.sol\":2988:2993  _mint */\n      tag_238\n        /* \"荷兰拍卖/DutchAuction.sol\":2988:3016  _mint(msg.sender, mintIndex) */\n      jump\t// in\n    tag_237:\n        /* \"荷兰拍卖/DutchAuction.sol\":3031:3073  _addTokenToAllTokensEnumeration(mintIndex) */\n      tag_239\n        /* \"荷兰拍卖/DutchAuction.sol\":3063:3072  mintIndex */\n      dup2\n        /* \"荷兰拍卖/DutchAuction.sol\":3031:3062  _addTokenToAllTokensEnumeration */\n      tag_240\n        /* \"荷兰拍卖/DutchAuction.sol\":3031:3073  _addTokenToAllTokensEnumeration(mintIndex) */\n      jump\t// in\n    tag_239:\n        /* \"荷兰拍卖/DutchAuction.sol\":2887:3085  for(uint256 i = 0; i < quantity; i++) {\r... */\n      pop\n        /* \"荷兰拍卖/DutchAuction.sol\":2920:2923  i++ */\n      dup1\n      dup1\n      tag_241\n      swap1\n      tag_242\n      jump\t// in\n    tag_241:\n      swap2\n      pop\n      pop\n        /* \"荷兰拍卖/DutchAuction.sol\":2887:3085  for(uint256 i = 0; i < quantity; i++) {\r... */\n      jump(tag_233)\n    tag_234:\n      pop\n        /* \"荷兰拍卖/DutchAuction.sol\":3139:3148  totalCost */\n      dup1\n        /* \"荷兰拍卖/DutchAuction.sol\":3127:3136  msg.value */\n      callvalue\n        /* \"荷兰拍卖/DutchAuction.sol\":3127:3148  msg.value > totalCost */\n      gt\n        /* \"荷兰拍卖/DutchAuction.sol\":3123:3273  if (msg.value > totalCost) {\r... */\n      iszero\n      tag_243\n      jumpi\n        /* \"荷兰拍卖/DutchAuction.sol\":3173:3183  msg.sender */\n      caller\n        /* \"荷兰拍卖/DutchAuction.sol\":3165:3193  payable(msg.sender).transfer */\n      0xffffffffffffffffffffffffffffffffffffffff\n      and\n        /* \"荷兰拍卖/DutchAuction.sol\":3165:3216  payable(msg.sender).transfer(msg.value - totalCost) */\n      0x08fc\n        /* \"荷兰拍卖/DutchAuction.sol\":3206:3215  totalCost */\n      dup3\n        /* \"荷兰拍卖/DutchAuction.sol\":3194:3203  msg.value */\n      callvalue\n        /* \"荷兰拍卖/DutchAuction.sol\":3194:3215  msg.value - totalCost */\n      tag_244\n      swap2\n      swap1\n      tag_205\n      jump\t// in\n    tag_244:\n        /* \"荷兰拍卖/DutchAuction.sol\":3165:3216  payable(msg.sender).transfer(msg.value - totalCost) */\n      swap1\n      dup2\n      iszero\n      mul\n      swap1\n      mload(0x40)\n      0x00\n      mload(0x40)\n      dup1\n      dup4\n      sub\n      dup2\n      dup6\n      dup9\n      dup9\n      call\n      swap4\n      pop\n      pop\n      pop\n      pop\n      iszero\n      dup1\n      iszero\n      tag_246\n      jumpi\n      returndatasize\n      0x00\n      dup1\n      returndatacopy\n      revert(0x00, returndatasize)\n    tag_246:\n      pop\n        /* \"荷兰拍卖/DutchAuction.sol\":3123:3273  if (msg.value > totalCost) {\r... */\n    tag_243:\n        /* \"荷兰拍卖/DutchAuction.sol\":2117:3280  function auctionMint(uint256 quantity) external payable{\r... */\n      pop\n      pop\n      pop\n      jump\t// out\n        /* \"荷兰拍卖/DutchAuction.sol\":655:803  uint256 public constant AUCTION_DROP_PER_STEP =\r... */\n    tag_93:\n        /* \"荷兰拍卖/DutchAuction.sol\":596:605  1 minutes */\n      0x3c\n        /* \"荷兰拍卖/DutchAuction.sol\":480:490  10 minutes */\n      0x0258\n        /* \"荷兰拍卖/DutchAuction.sol\":766:802  AUCTION_TIME / AUCTION_DROP_INTERVAL */\n      tag_247\n      swap2\n      swap1\n      tag_210\n      jump\t// in\n    tag_247:\n        /* \"荷兰拍卖/DutchAuction.sol\":391:400  0.1 ether */\n      0x016345785d8a0000\n        /* \"荷兰拍卖/DutchAuction.sol\":309:316  1 ether */\n      0x0de0b6b3a7640000\n        /* \"荷兰拍卖/DutchAuction.sol\":713:752  AUCTION_START_PRICE - AUCTION_END_PRICE */\n      tag_248\n      swap2\n      swap1\n      tag_205\n      jump\t// in\n    tag_248:\n        /* \"荷兰拍卖/DutchAuction.sol\":712:803  (AUCTION_START_PRICE - AUCTION_END_PRICE) /\r... */\n      tag_249\n      swap2\n      swap1\n      tag_210\n      jump\t// in\n    tag_249:\n        /* \"荷兰拍卖/DutchAuction.sol\":655:803  uint256 public constant AUCTION_DROP_PER_STEP =\r... */\n      dup2\n      jump\t// out\n        /* \"荷兰拍卖/DutchAuction.sol\":548:605  uint256 public constant AUCTION_DROP_INTERVAL = 1 minutes */\n    tag_97:\n        /* \"荷兰拍卖/DutchAuction.sol\":596:605  1 minutes */\n      0x3c\n        /* \"荷兰拍卖/DutchAuction.sol\":548:605  uint256 public constant AUCTION_DROP_INTERVAL = 1 minutes */\n      dup2\n      jump\t// out\n        /* \"ERC721/ERC721.sol\":1921:2102  function ownerOf(uint tokenId) public view override returns (address owner) {\r... */\n    tag_102:\n        /* \"ERC721/ERC721.sol\":1982:1995  address owner */\n      0x00\n        /* \"ERC721/ERC721.sol\":2016:2023  _owners */\n      0x03\n        /* \"ERC721/ERC721.sol\":2016:2032  _owners[tokenId] */\n      0x00\n        /* \"ERC721/ERC721.sol\":2024:2031  tokenId */\n      dup4\n        /* \"ERC721/ERC721.sol\":2016:2032  _owners[tokenId] */\n      dup2\n      mstore\n      0x20\n      add\n      swap1\n      dup2\n      mstore\n      0x20\n      add\n      0x00\n      keccak256\n      0x00\n      swap1\n      sload\n      swap1\n      0x0100\n      exp\n      swap1\n      div\n      0xffffffffffffffffffffffffffffffffffffffff\n      and\n        /* \"ERC721/ERC721.sol\":2008:2032  owner = _owners[tokenId] */\n      swap1\n      pop\n        /* \"ERC721/ERC721.sol\":2068:2069  0 */\n      0x00\n        /* \"ERC721/ERC721.sol\":2051:2070  owner != address(0) */\n      0xffffffffffffffffffffffffffffffffffffffff\n      and\n        /* \"ERC721/ERC721.sol\":2051:2056  owner */\n      dup2\n        /* \"ERC721/ERC721.sol\":2051:2070  owner != address(0) */\n      0xffffffffffffffffffffffffffffffffffffffff\n      and\n      eq\n      iszero\n        /* \"ERC721/ERC721.sol\":2043:2094  require(owner != address(0), \"token doesn't exist\") */\n      tag_251\n      jumpi\n      mload(0x40)\n      0x08c379a000000000000000000000000000000000000000000000000000000000\n      dup2\n      mstore\n      0x04\n      add\n      tag_252\n      swap1\n      tag_181\n      jump\t// in\n    tag_252:\n      mload(0x40)\n      dup1\n      swap2\n      sub\n      swap1\n      revert\n    tag_251:\n        /* \"ERC721/ERC721.sol\":1921:2102  function ownerOf(uint tokenId) public view override returns (address owner) {\r... */\n      swap2\n      swap1\n      pop\n      jump\t// out\n        /* \"ERC721/ERC721.sol\":1658:1835  function balanceOf(address owner) external view override returns (uint) {\r... */\n    tag_108:\n        /* \"ERC721/ERC721.sol\":1724:1728  uint */\n      0x00\n        /* \"ERC721/ERC721.sol\":1766:1767  0 */\n      dup1\n        /* \"ERC721/ERC721.sol\":1749:1768  owner != address(0) */\n      0xffffffffffffffffffffffffffffffffffffffff\n      and\n        /* \"ERC721/ERC721.sol\":1749:1754  owner */\n      dup3\n        /* \"ERC721/ERC721.sol\":1749:1768  owner != address(0) */\n      0xffffffffffffffffffffffffffffffffffffffff\n      and\n      eq\n      iszero\n        /* \"ERC721/ERC721.sol\":1741:1793  require(owner != address(0), \"owner = zero address\") */\n      tag_254\n      jumpi\n      mload(0x40)\n      0x08c379a000000000000000000000000000000000000000000000000000000000\n      dup2\n      mstore\n      0x04\n      add\n      tag_255\n      swap1\n      tag_256\n      jump\t// in\n    tag_255:\n      mload(0x40)\n      dup1\n      swap2\n      sub\n      swap1\n      revert\n    tag_254:\n        /* \"ERC721/ERC721.sol\":1811:1820  _balances */\n      0x04\n        /* \"ERC721/ERC721.sol\":1811:1827  _balances[owner] */\n      0x00\n        /* \"ERC721/ERC721.sol\":1821:1826  owner */\n      dup4\n        /* \"ERC721/ERC721.sol\":1811:1827  _balances[owner] */\n      0xffffffffffffffffffffffffffffffffffffffff\n      and\n      0xffffffffffffffffffffffffffffffffffffffff\n      and\n      dup2\n      mstore\n      0x20\n      add\n      swap1\n      dup2\n      mstore\n      0x20\n      add\n      0x00\n      keccak256\n      sload\n        /* \"ERC721/ERC721.sol\":1804:1827  return _balances[owner] */\n      swap1\n      pop\n        /* \"ERC721/ERC721.sol\":1658:1835  function balanceOf(address owner) external view override returns (uint) {\r... */\n      swap2\n      swap1\n      pop\n      jump\t// out\n        /* \"@openzeppelin/contracts/access/Ownable.sol\":1831:1932  function renounceOwnership() public virtual onlyOwner {... */\n    tag_112:\n        /* \"@openzeppelin/contracts/access/Ownable.sol\":1094:1107  _checkOwner() */\n      tag_258\n        /* \"@openzeppelin/contracts/access/Ownable.sol\":1094:1105  _checkOwner */\n      tag_170\n        /* \"@openzeppelin/contracts/access/Ownable.sol\":1094:1107  _checkOwner() */\n      jump\t// in\n    tag_258:\n        /* \"@openzeppelin/contracts/access/Ownable.sol\":1895:1925  _transferOwnership(address(0)) */\n      tag_260\n        /* \"@openzeppelin/contracts/access/Ownable.sol\":1922:1923  0 */\n      0x00\n        /* \"@openzeppelin/contracts/access/Ownable.sol\":1895:1913  _transferOwnership */\n      tag_261\n        /* \"@openzeppelin/contracts/access/Ownable.sol\":1895:1925  _transferOwnership(address(0)) */\n      jump\t// in\n    tag_260:\n        /* \"@openzeppelin/contracts/access/Ownable.sol\":1831:1932  function renounceOwnership() public virtual onlyOwner {... */\n      jump\t// out\n        /* \"荷兰拍卖/DutchAuction.sol\":263:316  uint256 public constant AUCTION_START_PRICE = 1 ether */\n    tag_115:\n        /* \"荷兰拍卖/DutchAuction.sol\":309:316  1 ether */\n      0x0de0b6b3a7640000\n        /* \"荷兰拍卖/DutchAuction.sol\":263:316  uint256 public constant AUCTION_START_PRICE = 1 ether */\n      dup2\n      jump\t// out\n        /* \"@openzeppelin/contracts/access/Ownable.sol\":1201:1286  function owner() public view virtual returns (address) {... */\n    tag_119:\n        /* \"@openzeppelin/contracts/access/Ownable.sol\":1247:1254  address */\n      0x00\n        /* \"@openzeppelin/contracts/access/Ownable.sol\":1273:1279  _owner */\n      dup1\n      0x00\n      swap1\n      sload\n      swap1\n      0x0100\n      exp\n      swap1\n      div\n      0xffffffffffffffffffffffffffffffffffffffff\n      and\n        /* \"@openzeppelin/contracts/access/Ownable.sol\":1266:1279  return _owner */\n      swap1\n      pop\n        /* \"@openzeppelin/contracts/access/Ownable.sol\":1201:1286  function owner() public view virtual returns (address) {... */\n      swap1\n      jump\t// out\n        /* \"ERC721/ERC721.sol\":513:542  string public override symbol */\n    tag_123:\n      0x02\n      dup1\n      sload\n      tag_263\n      swap1\n      tag_173\n      jump\t// in\n    tag_263:\n      dup1\n      0x1f\n      add\n      0x20\n      dup1\n      swap2\n      div\n      mul\n      0x20\n      add\n      mload(0x40)\n      swap1\n      dup2\n      add\n      0x40\n      mstore\n      dup1\n      swap3\n      swap2\n      swap1\n      dup2\n      dup2\n      mstore\n      0x20\n      add\n      dup3\n      dup1\n      sload\n      tag_264\n      swap1\n      tag_173\n      jump\t// in\n    tag_264:\n      dup1\n      iszero\n      tag_265\n      jumpi\n      dup1\n      0x1f\n      lt\n      tag_266\n      jumpi\n      0x0100\n      dup1\n      dup4\n      sload\n      div\n      mul\n      dup4\n      mstore\n      swap2\n      0x20\n      add\n      swap2\n      jump(tag_265)\n    tag_266:\n      dup3\n      add\n      swap2\n      swap1\n      0x00\n      mstore\n      keccak256(0x00, 0x20)\n      swap1\n    tag_267:\n      dup2\n      sload\n      dup2\n      mstore\n      swap1\n      0x01\n      add\n      swap1\n      0x20\n      add\n      dup1\n      dup4\n      gt\n      tag_267\n      jumpi\n      dup3\n      swap1\n      sub\n      0x1f\n      and\n      dup3\n      add\n      swap2\n    tag_265:\n      pop\n      pop\n      pop\n      pop\n      pop\n      dup2\n      jump\t// out\n        /* \"ERC721/ERC721.sol\":2586:2796  function setApprovalForAll(address operator, bool approved) external override {\r... */\n    tag_129:\n        /* \"ERC721/ERC721.sol\":2718:2726  approved */\n      dup1\n        /* \"ERC721/ERC721.sol\":2675:2693  _operatorApprovals */\n      0x06\n        /* \"ERC721/ERC721.sol\":2675:2705  _operatorApprovals[msg.sender] */\n      0x00\n        /* \"ERC721/ERC721.sol\":2694:2704  msg.sender */\n      caller\n        /* \"ERC721/ERC721.sol\":2675:2705  _operatorApprovals[msg.sender] */\n      0xffffffffffffffffffffffffffffffffffffffff\n      and\n      0xffffffffffffffffffffffffffffffffffffffff\n      and\n      dup2\n      mstore\n      0x20\n      add\n      swap1\n      dup2\n      mstore\n      0x20\n      add\n      0x00\n      keccak256\n        /* \"ERC721/ERC721.sol\":2675:2715  _operatorApprovals[msg.sender][operator] */\n      0x00\n        /* \"ERC721/ERC721.sol\":2706:2714  operator */\n      dup5\n        /* \"ERC721/ERC721.sol\":2675:2715  _operatorApprovals[msg.sender][operator] */\n      0xffffffffffffffffffffffffffffffffffffffff\n      and\n      0xffffffffffffffffffffffffffffffffffffffff\n      and\n      dup2\n      mstore\n      0x20\n      add\n      swap1\n      dup2\n      mstore\n      0x20\n      add\n      0x00\n      keccak256\n      0x00\n        /* \"ERC721/ERC721.sol\":2675:2726  _operatorApprovals[msg.sender][operator] = approved */\n      0x0100\n      exp\n      dup2\n      sload\n      dup2\n      0xff\n      mul\n      not\n      and\n      swap1\n      dup4\n      iszero\n      iszero\n      mul\n      or\n      swap1\n      sstore\n      pop\n        /* \"ERC721/ERC721.sol\":2769:2777  operator */\n      dup2\n        /* \"ERC721/ERC721.sol\":2742:2788  ApprovalForAll(msg.sender, operator, approved) */\n      0xffffffffffffffffffffffffffffffffffffffff\n      and\n        /* \"ERC721/ERC721.sol\":2757:2767  msg.sender */\n      caller\n        /* \"ERC721/ERC721.sol\":2742:2788  ApprovalForAll(msg.sender, operator, approved) */\n      0xffffffffffffffffffffffffffffffffffffffff\n      and\n      0x17307eab39ab6107e8899845ad3d59bd9653f200f220920489ca2b5937696c31\n        /* \"ERC721/ERC721.sol\":2779:2787  approved */\n      dup4\n        /* \"ERC721/ERC721.sol\":2742:2788  ApprovalForAll(msg.sender, operator, approved) */\n      mload(0x40)\n      tag_269\n      swap2\n      swap1\n      tag_43\n      jump\t// in\n    tag_269:\n      mload(0x40)\n      dup1\n      swap2\n      sub\n      swap1\n      log3\n        /* \"ERC721/ERC721.sol\":2586:2796  function setApprovalForAll(address operator, bool approved) external override {\r... */\n      pop\n      pop\n      jump\t// out\n        /* \"荷兰拍卖/DutchAuction.sol\":3325:3546  function withdrawMoney() external onlyOwner {\r... */\n    tag_132:\n        /* \"@openzeppelin/contracts/access/Ownable.sol\":1094:1107  _checkOwner() */\n      tag_271\n        /* \"@openzeppelin/contracts/access/Ownable.sol\":1094:1105  _checkOwner */\n      tag_170\n        /* \"@openzeppelin/contracts/access/Ownable.sol\":1094:1107  _checkOwner() */\n      jump\t// in\n    tag_271:\n        /* \"荷兰拍卖/DutchAuction.sol\":3381:3393  bool success */\n      0x00\n        /* \"荷兰拍卖/DutchAuction.sol\":3399:3409  msg.sender */\n      caller\n        /* \"荷兰拍卖/DutchAuction.sol\":3399:3414  msg.sender.call */\n      0xffffffffffffffffffffffffffffffffffffffff\n      and\n        /* \"荷兰拍卖/DutchAuction.sol\":3422:3443  address(this).balance */\n      selfbalance\n        /* \"荷兰拍卖/DutchAuction.sol\":3399:3448  msg.sender.call{value: address(this).balance}(\"\") */\n      mload(0x40)\n      tag_273\n      swap1\n      tag_274\n      jump\t// in\n    tag_273:\n      0x00\n      mload(0x40)\n      dup1\n      dup4\n      sub\n      dup2\n      dup6\n      dup8\n      gas\n      call\n      swap3\n      pop\n      pop\n      pop\n      returndatasize\n      dup1\n      0x00\n      dup2\n      eq\n      tag_277\n      jumpi\n      mload(0x40)\n      swap2\n      pop\n      and(add(returndatasize, 0x3f), not(0x1f))\n      dup3\n      add\n      0x40\n      mstore\n      returndatasize\n      dup3\n      mstore\n      returndatasize\n      0x00\n      0x20\n      dup5\n      add\n      returndatacopy\n      jump(tag_276)\n    tag_277:\n      0x60\n      swap2\n      pop\n    tag_276:\n      pop\n        /* \"荷兰拍卖/DutchAuction.sol\":3380:3448  (bool success, ) = msg.sender.call{value: address(this).balance}(\"\") */\n      pop\n      swap1\n      pop\n        /* \"荷兰拍卖/DutchAuction.sol\":3510:3517  success */\n      dup1\n        /* \"荷兰拍卖/DutchAuction.sol\":3502:3538  require(success, \"Transfer failed.\") */\n      tag_278\n      jumpi\n      mload(0x40)\n      0x08c379a000000000000000000000000000000000000000000000000000000000\n      dup2\n      mstore\n      0x04\n      add\n      tag_279\n      swap1\n      tag_280\n      jump\t// in\n    tag_279:\n      mload(0x40)\n      dup1\n      swap2\n      sub\n      swap1\n      revert\n    tag_278:\n        /* \"@openzeppelin/contracts/access/Ownable.sol\":1117:1118  _ */\n      pop\n        /* \"荷兰拍卖/DutchAuction.sol\":3325:3546  function withdrawMoney() external onlyOwner {\r... */\n      jump\t// out\n        /* \"ERC721/ERC721.sol\":6261:6643  function safeTransferFrom(\r... */\n    tag_137:\n        /* \"ERC721/ERC721.sol\":6417:6430  address owner */\n      0x00\n        /* \"ERC721/ERC721.sol\":6433:6449  ownerOf(tokenId) */\n      tag_282\n        /* \"ERC721/ERC721.sol\":6441:6448  tokenId */\n      dup4\n        /* \"ERC721/ERC721.sol\":6433:6440  ownerOf */\n      tag_102\n        /* \"ERC721/ERC721.sol\":6433:6449  ownerOf(tokenId) */\n      jump\t// in\n    tag_282:\n        /* \"ERC721/ERC721.sol\":6417:6449  address owner = ownerOf(tokenId) */\n      swap1\n      pop\n        /* \"ERC721/ERC721.sol\":6482:6528  _isApprovedOrOwner(owner, msg.sender, tokenId) */\n      tag_283\n        /* \"ERC721/ERC721.sol\":6501:6506  owner */\n      dup2\n        /* \"ERC721/ERC721.sol\":6508:6518  msg.sender */\n      caller\n        /* \"ERC721/ERC721.sol\":6520:6527  tokenId */\n      dup6\n        /* \"ERC721/ERC721.sol\":6482:6500  _isApprovedOrOwner */\n      tag_193\n        /* \"ERC721/ERC721.sol\":6482:6528  _isApprovedOrOwner(owner, msg.sender, tokenId) */\n      jump\t// in\n    tag_283:\n        /* \"ERC721/ERC721.sol\":6460:6578  require(\r... */\n      tag_284\n      jumpi\n      mload(0x40)\n      0x08c379a000000000000000000000000000000000000000000000000000000000\n      dup2\n      mstore\n      0x04\n      add\n      tag_285\n      swap1\n      tag_196\n      jump\t// in\n    tag_285:\n      mload(0x40)\n      dup1\n      swap2\n      sub\n      swap1\n      revert\n    tag_284:\n        /* \"ERC721/ERC721.sol\":6589:6635  _safeTransfer(owner, from, to, tokenId, _data) */\n      tag_286\n        /* \"ERC721/ERC721.sol\":6603:6608  owner */\n      dup2\n        /* \"ERC721/ERC721.sol\":6610:6614  from */\n      dup7\n        /* \"ERC721/ERC721.sol\":6616:6618  to */\n      dup7\n        /* \"ERC721/ERC721.sol\":6620:6627  tokenId */\n      dup7\n        /* \"ERC721/ERC721.sol\":6629:6634  _data */\n      dup7\n        /* \"ERC721/ERC721.sol\":6589:6602  _safeTransfer */\n      tag_287\n        /* \"ERC721/ERC721.sol\":6589:6635  _safeTransfer(owner, from, to, tokenId, _data) */\n      jump\t// in\n    tag_286:\n        /* \"ERC721/ERC721.sol\":6261:6643  function safeTransferFrom(\r... */\n      pop\n      pop\n      pop\n      pop\n      pop\n      jump\t// out\n        /* \"ERC721/ERC721.sol\":8869:9185  function tokenURI(uint256 tokenId) public view virtual override returns (string memory) {\r... */\n    tag_141:\n        /* \"ERC721/ERC721.sol\":8942:8955  string memory */\n      0x60\n        /* \"ERC721/ERC721.sol\":9004:9005  0 */\n      0x00\n        /* \"ERC721/ERC721.sol\":8976:9006  _owners[tokenId] != address(0) */\n      0xffffffffffffffffffffffffffffffffffffffff\n      and\n        /* \"ERC721/ERC721.sol\":8976:8983  _owners */\n      0x03\n        /* \"ERC721/ERC721.sol\":8976:8992  _owners[tokenId] */\n      0x00\n        /* \"ERC721/ERC721.sol\":8984:8991  tokenId */\n      dup5\n        /* \"ERC721/ERC721.sol\":8976:8992  _owners[tokenId] */\n      dup2\n      mstore\n      0x20\n      add\n      swap1\n      dup2\n      mstore\n      0x20\n      add\n      0x00\n      keccak256\n      0x00\n      swap1\n      sload\n      swap1\n      0x0100\n      exp\n      swap1\n      div\n      0xffffffffffffffffffffffffffffffffffffffff\n      and\n        /* \"ERC721/ERC721.sol\":8976:9006  _owners[tokenId] != address(0) */\n      0xffffffffffffffffffffffffffffffffffffffff\n      and\n      eq\n      iszero\n        /* \"ERC721/ERC721.sol\":8968:9026  require(_owners[tokenId] != address(0), \"Token Not Exist\") */\n      tag_289\n      jumpi\n      mload(0x40)\n      0x08c379a000000000000000000000000000000000000000000000000000000000\n      dup2\n      mstore\n      0x04\n      add\n      tag_290\n      swap1\n      tag_291\n      jump\t// in\n    tag_290:\n      mload(0x40)\n      dup1\n      swap2\n      sub\n      swap1\n      revert\n    tag_289:\n        /* \"ERC721/ERC721.sol\":9039:9060  string memory baseURI */\n      0x00\n        /* \"ERC721/ERC721.sol\":9063:9073  _baseURI() */\n      tag_292\n        /* \"ERC721/ERC721.sol\":9063:9071  _baseURI */\n      tag_293\n        /* \"ERC721/ERC721.sol\":9063:9073  _baseURI() */\n      jump\t// in\n    tag_292:\n        /* \"ERC721/ERC721.sol\":9039:9073  string memory baseURI = _baseURI() */\n      swap1\n      pop\n        /* \"ERC721/ERC721.sol\":9115:9116  0 */\n      0x00\n        /* \"ERC721/ERC721.sol\":9097:9104  baseURI */\n      dup2\n        /* \"ERC721/ERC721.sol\":9091:9112  bytes(baseURI).length */\n      mload\n        /* \"ERC721/ERC721.sol\":9091:9116  bytes(baseURI).length > 0 */\n      gt\n        /* \"ERC721/ERC721.sol\":9091:9177  bytes(baseURI).length > 0 ? string(abi.encodePacked(baseURI, tokenId.toString())) : \"\" */\n      tag_294\n      jumpi\n      mload(0x40)\n      dup1\n      0x20\n      add\n      0x40\n      mstore\n      dup1\n      0x00\n      dup2\n      mstore\n      pop\n      jump(tag_295)\n    tag_294:\n        /* \"ERC721/ERC721.sol\":9143:9150  baseURI */\n      dup1\n        /* \"ERC721/ERC721.sol\":9152:9170  tokenId.toString() */\n      tag_296\n        /* \"ERC721/ERC721.sol\":9152:9159  tokenId */\n      dup5\n        /* \"ERC721/ERC721.sol\":9152:9168  tokenId.toString */\n      tag_297\n        /* \"ERC721/ERC721.sol\":9152:9170  tokenId.toString() */\n      jump\t// in\n    tag_296:\n        /* \"ERC721/ERC721.sol\":9126:9171  abi.encodePacked(baseURI, tokenId.toString()) */\n      add(0x20, mload(0x40))\n      tag_298\n      swap3\n      swap2\n      swap1\n      tag_299\n      jump\t// in\n    tag_298:\n      mload(0x40)\n      0x20\n      dup2\n      dup4\n      sub\n      sub\n      dup2\n      mstore\n      swap1\n      0x40\n      mstore\n        /* \"ERC721/ERC721.sol\":9091:9177  bytes(baseURI).length > 0 ? string(abi.encodePacked(baseURI, tokenId.toString())) : \"\" */\n    tag_295:\n        /* \"ERC721/ERC721.sol\":9084:9177  return bytes(baseURI).length > 0 ? string(abi.encodePacked(baseURI, tokenId.toString())) : \"\" */\n      swap2\n      pop\n      pop\n        /* \"ERC721/ERC721.sol\":8869:9185  function tokenURI(uint256 tokenId) public view virtual override returns (string memory) {\r... */\n      swap2\n      swap1\n      pop\n      jump\t// out\n        /* \"荷兰拍卖/DutchAuction.sol\":347:400  uint256 public constant AUCTION_END_PRICE = 0.1 ether */\n    tag_145:\n        /* \"荷兰拍卖/DutchAuction.sol\":391:400  0.1 ether */\n      0x016345785d8a0000\n        /* \"荷兰拍卖/DutchAuction.sol\":347:400  uint256 public constant AUCTION_END_PRICE = 0.1 ether */\n      dup2\n      jump\t// out\n        /* \"荷兰拍卖/DutchAuction.sol\":441:490  uint256 public constant AUCTION_TIME = 10 minutes */\n    tag_149:\n        /* \"荷兰拍卖/DutchAuction.sol\":480:490  10 minutes */\n      0x0258\n        /* \"荷兰拍卖/DutchAuction.sol\":441:490  uint256 public constant AUCTION_TIME = 10 minutes */\n      dup2\n      jump\t// out\n        /* \"ERC721/ERC721.sol\":2254:2453  function isApprovedForAll(address owner, address operator)\r... */\n    tag_155:\n        /* \"ERC721/ERC721.sol\":2381:2385  bool */\n      0x00\n        /* \"ERC721/ERC721.sol\":2410:2428  _operatorApprovals */\n      0x06\n        /* \"ERC721/ERC721.sol\":2410:2435  _operatorApprovals[owner] */\n      0x00\n        /* \"ERC721/ERC721.sol\":2429:2434  owner */\n      dup5\n        /* \"ERC721/ERC721.sol\":2410:2435  _operatorApprovals[owner] */\n      0xffffffffffffffffffffffffffffffffffffffff\n      and\n      0xffffffffffffffffffffffffffffffffffffffff\n      and\n      dup2\n      mstore\n      0x20\n      add\n      swap1\n      dup2\n      mstore\n      0x20\n      add\n      0x00\n      keccak256\n        /* \"ERC721/ERC721.sol\":2410:2445  _operatorApprovals[owner][operator] */\n      0x00\n        /* \"ERC721/ERC721.sol\":2436:2444  operator */\n      dup4\n        /* \"ERC721/ERC721.sol\":2410:2445  _operatorApprovals[owner][operator] */\n      0xffffffffffffffffffffffffffffffffffffffff\n      and\n      0xffffffffffffffffffffffffffffffffffffffff\n      and\n      dup2\n      mstore\n      0x20\n      add\n      swap1\n      dup2\n      mstore\n      0x20\n      add\n      0x00\n      keccak256\n      0x00\n      swap1\n      sload\n      swap1\n      0x0100\n      exp\n      swap1\n      div\n      0xff\n      and\n        /* \"ERC721/ERC721.sol\":2403:2445  return _operatorApprovals[owner][operator] */\n      swap1\n      pop\n        /* \"ERC721/ERC721.sol\":2254:2453  function isApprovedForAll(address owner, address operator)\r... */\n      swap3\n      swap2\n      pop\n      pop\n      jump\t// out\n        /* \"荷兰拍卖/DutchAuction.sol\":844:875  uint256 public auctionStartTime */\n    tag_159:\n      sload(0x07)\n      dup2\n      jump\t// out\n        /* \"@openzeppelin/contracts/access/Ownable.sol\":2081:2279  function transferOwnership(address newOwner) public virtual onlyOwner {... */\n    tag_164:\n        /* \"@openzeppelin/contracts/access/Ownable.sol\":1094:1107  _checkOwner() */\n      tag_302\n        /* \"@openzeppelin/contracts/access/Ownable.sol\":1094:1105  _checkOwner */\n      tag_170\n        /* \"@openzeppelin/contracts/access/Ownable.sol\":1094:1107  _checkOwner() */\n      jump\t// in\n    tag_302:\n        /* \"@openzeppelin/contracts/access/Ownable.sol\":2189:2190  0 */\n      0x00\n        /* \"@openzeppelin/contracts/access/Ownable.sol\":2169:2191  newOwner != address(0) */\n      0xffffffffffffffffffffffffffffffffffffffff\n      and\n        /* \"@openzeppelin/contracts/access/Ownable.sol\":2169:2177  newOwner */\n      dup2\n        /* \"@openzeppelin/contracts/access/Ownable.sol\":2169:2191  newOwner != address(0) */\n      0xffffffffffffffffffffffffffffffffffffffff\n      and\n      eq\n      iszero\n        /* \"@openzeppelin/contracts/access/Ownable.sol\":2161:2234  require(newOwner != address(0), \"Ownable: new owner is the zero address\") */\n      tag_304\n      jumpi\n      mload(0x40)\n      0x08c379a000000000000000000000000000000000000000000000000000000000\n      dup2\n      mstore\n      0x04\n      add\n      tag_305\n      swap1\n      tag_306\n      jump\t// in\n    tag_305:\n      mload(0x40)\n      dup1\n      swap2\n      sub\n      swap1\n      revert\n    tag_304:\n        /* \"@openzeppelin/contracts/access/Ownable.sol\":2244:2272  _transferOwnership(newOwner) */\n      tag_307\n        /* \"@openzeppelin/contracts/access/Ownable.sol\":2263:2271  newOwner */\n      dup2\n        /* \"@openzeppelin/contracts/access/Ownable.sol\":2244:2262  _transferOwnership */\n      tag_261\n        /* \"@openzeppelin/contracts/access/Ownable.sol\":2244:2272  _transferOwnership(newOwner) */\n      jump\t// in\n    tag_307:\n        /* \"@openzeppelin/contracts/access/Ownable.sol\":2081:2279  function transferOwnership(address newOwner) public virtual onlyOwner {... */\n      pop\n      jump\t// out\n        /* \"@openzeppelin/contracts/access/Ownable.sol\":1359:1489  function _checkOwner() internal view virtual {... */\n    tag_170:\n        /* \"@openzeppelin/contracts/access/Ownable.sol\":1433:1445  _msgSender() */\n      tag_309\n        /* \"@openzeppelin/contracts/access/Ownable.sol\":1433:1443  _msgSender */\n      tag_310\n        /* \"@openzeppelin/contracts/access/Ownable.sol\":1433:1445  _msgSender() */\n      jump\t// in\n    tag_309:\n        /* \"@openzeppelin/contracts/access/Ownable.sol\":1422:1445  owner() == _msgSender() */\n      0xffffffffffffffffffffffffffffffffffffffff\n      and\n        /* \"@openzeppelin/contracts/access/Ownable.sol\":1422:1429  owner() */\n      tag_311\n        /* \"@openzeppelin/contracts/access/Ownable.sol\":1422:1427  owner */\n      tag_119\n        /* \"@openzeppelin/contracts/access/Ownable.sol\":1422:1429  owner() */\n      jump\t// in\n    tag_311:\n        /* \"@openzeppelin/contracts/access/Ownable.sol\":1422:1445  owner() == _msgSender() */\n      0xffffffffffffffffffffffffffffffffffffffff\n      and\n      eq\n        /* \"@openzeppelin/contracts/access/Ownable.sol\":1414:1482  require(owner() == _msgSender(), \"Ownable: caller is not the owner\") */\n      tag_312\n      jumpi\n      mload(0x40)\n      0x08c379a000000000000000000000000000000000000000000000000000000000\n      dup2\n      mstore\n      0x04\n      add\n      tag_313\n      swap1\n      tag_314\n      jump\t// in\n    tag_313:\n      mload(0x40)\n      dup1\n      swap2\n      sub\n      swap1\n      revert\n    tag_312:\n        /* \"@openzeppelin/contracts/access/Ownable.sol\":1359:1489  function _checkOwner() internal view virtual {... */\n      jump\t// out\n        /* \"ERC721/ERC721.sol\":3232:3425  function _approve(\r... */\n    tag_188:\n        /* \"ERC721/ERC721.sol\":3371:3373  to */\n      dup2\n        /* \"ERC721/ERC721.sol\":3344:3359  _tokenApprovals */\n      0x05\n        /* \"ERC721/ERC721.sol\":3344:3368  _tokenApprovals[tokenId] */\n      0x00\n        /* \"ERC721/ERC721.sol\":3360:3367  tokenId */\n      dup4\n        /* \"ERC721/ERC721.sol\":3344:3368  _tokenApprovals[tokenId] */\n      dup2\n      mstore\n      0x20\n      add\n      swap1\n      dup2\n      mstore\n      0x20\n      add\n      0x00\n      keccak256\n      0x00\n        /* \"ERC721/ERC721.sol\":3344:3373  _tokenApprovals[tokenId] = to */\n      0x0100\n      exp\n      dup2\n      sload\n      dup2\n      0xffffffffffffffffffffffffffffffffffffffff\n      mul\n      not\n      and\n      swap1\n      dup4\n      0xffffffffffffffffffffffffffffffffffffffff\n      and\n      mul\n      or\n      swap1\n      sstore\n      pop\n        /* \"ERC721/ERC721.sol\":3409:3416  tokenId */\n      dup1\n        /* \"ERC721/ERC721.sol\":3405:3407  to */\n      dup3\n        /* \"ERC721/ERC721.sol\":3389:3417  Approval(owner, to, tokenId) */\n      0xffffffffffffffffffffffffffffffffffffffff\n      and\n        /* \"ERC721/ERC721.sol\":3398:3403  owner */\n      dup5\n        /* \"ERC721/ERC721.sol\":3389:3417  Approval(owner, to, tokenId) */\n      0xffffffffffffffffffffffffffffffffffffffff\n      and\n      0x8c5be1e5ebec7d5bd14f71427d1e84f3dd0314c0f7b2291e5b200ac8c7c3b925\n      mload(0x40)\n      mload(0x40)\n      dup1\n      swap2\n      sub\n      swap1\n      log4\n        /* \"ERC721/ERC721.sol\":3232:3425  function _approve(\r... */\n      pop\n      pop\n      pop\n      jump\t// out\n        /* \"ERC721/ERC721.sol\":3989:4272  function _isApprovedOrOwner(\r... */\n    tag_193:\n        /* \"ERC721/ERC721.sol\":4119:4123  bool */\n      0x00\n        /* \"ERC721/ERC721.sol\":4155:4160  owner */\n      dup4\n        /* \"ERC721/ERC721.sol\":4144:4160  spender == owner */\n      0xffffffffffffffffffffffffffffffffffffffff\n      and\n        /* \"ERC721/ERC721.sol\":4144:4151  spender */\n      dup4\n        /* \"ERC721/ERC721.sol\":4144:4160  spender == owner */\n      0xffffffffffffffffffffffffffffffffffffffff\n      and\n      eq\n        /* \"ERC721/ERC721.sol\":4144:4212  spender == owner ||\r... */\n      dup1\n      tag_317\n      jumpi\n      pop\n        /* \"ERC721/ERC721.sol\":4205:4212  spender */\n      dup3\n        /* \"ERC721/ERC721.sol\":4177:4212  _tokenApprovals[tokenId] == spender */\n      0xffffffffffffffffffffffffffffffffffffffff\n      and\n        /* \"ERC721/ERC721.sol\":4177:4192  _tokenApprovals */\n      0x05\n        /* \"ERC721/ERC721.sol\":4177:4201  _tokenApprovals[tokenId] */\n      0x00\n        /* \"ERC721/ERC721.sol\":4193:4200  tokenId */\n      dup5\n        /* \"ERC721/ERC721.sol\":4177:4201  _tokenApprovals[tokenId] */\n      dup2\n      mstore\n      0x20\n      add\n      swap1\n      dup2\n      mstore\n      0x20\n      add\n      0x00\n      keccak256\n      0x00\n      swap1\n      sload\n      swap1\n      0x0100\n      exp\n      swap1\n      div\n      0xffffffffffffffffffffffffffffffffffffffff\n      and\n        /* \"ERC721/ERC721.sol\":4177:4212  _tokenApprovals[tokenId] == spender */\n      0xffffffffffffffffffffffffffffffffffffffff\n      and\n      eq\n        /* \"ERC721/ERC721.sol\":4144:4212  spender == owner ||\r... */\n    tag_317:\n        /* \"ERC721/ERC721.sol\":4144:4263  spender == owner ||\r... */\n      dup1\n      tag_318\n      jumpi\n      pop\n        /* \"ERC721/ERC721.sol\":4229:4247  _operatorApprovals */\n      0x06\n        /* \"ERC721/ERC721.sol\":4229:4254  _operatorApprovals[owner] */\n      0x00\n        /* \"ERC721/ERC721.sol\":4248:4253  owner */\n      dup6\n        /* \"ERC721/ERC721.sol\":4229:4254  _operatorApprovals[owner] */\n      0xffffffffffffffffffffffffffffffffffffffff\n      and\n      0xffffffffffffffffffffffffffffffffffffffff\n      and\n      dup2\n      mstore\n      0x20\n      add\n      swap1\n      dup2\n      mstore\n      0x20\n      add\n      0x00\n      keccak256\n        /* \"ERC721/ERC721.sol\":4229:4263  _operatorApprovals[owner][spender] */\n      0x00\n        /* \"ERC721/ERC721.sol\":4255:4262  spender */\n      dup5\n        /* \"ERC721/ERC721.sol\":4229:4263  _operatorApprovals[owner][spender] */\n      0xffffffffffffffffffffffffffffffffffffffff\n      and\n      0xffffffffffffffffffffffffffffffffffffffff\n      and\n      dup2\n      mstore\n      0x20\n      add\n      swap1\n      dup2\n      mstore\n      0x20\n      add\n      0x00\n      keccak256\n      0x00\n      swap1\n      sload\n      swap1\n      0x0100\n      exp\n      swap1\n      div\n      0xff\n      and\n        /* \"ERC721/ERC721.sol\":4144:4263  spender == owner ||\r... */\n    tag_318:\n        /* \"ERC721/ERC721.sol\":4136:4264  return (spender == owner ||\r... */\n      swap1\n      pop\n        /* \"ERC721/ERC721.sol\":3989:4272  function _isApprovedOrOwner(\r... */\n      swap4\n      swap3\n      pop\n      pop\n      pop\n      jump\t// out\n        /* \"ERC721/ERC721.sol\":4501:4936  function _transfer(\r... */\n    tag_198:\n        /* \"ERC721/ERC721.sol\":4653:4658  owner */\n      dup4\n        /* \"ERC721/ERC721.sol\":4645:4658  from == owner */\n      0xffffffffffffffffffffffffffffffffffffffff\n      and\n        /* \"ERC721/ERC721.sol\":4645:4649  from */\n      dup4\n        /* \"ERC721/ERC721.sol\":4645:4658  from == owner */\n      0xffffffffffffffffffffffffffffffffffffffff\n      and\n      eq\n        /* \"ERC721/ERC721.sol\":4637:4672  require(from == owner, \"not owner\") */\n      tag_320\n      jumpi\n      mload(0x40)\n      0x08c379a000000000000000000000000000000000000000000000000000000000\n      dup2\n      mstore\n      0x04\n      add\n      tag_321\n      swap1\n      tag_322\n      jump\t// in\n    tag_321:\n      mload(0x40)\n      dup1\n      swap2\n      sub\n      swap1\n      revert\n    tag_320:\n        /* \"ERC721/ERC721.sol\":4705:4706  0 */\n      0x00\n        /* \"ERC721/ERC721.sol\":4691:4707  to != address(0) */\n      0xffffffffffffffffffffffffffffffffffffffff\n      and\n        /* \"ERC721/ERC721.sol\":4691:4693  to */\n      dup3\n        /* \"ERC721/ERC721.sol\":4691:4707  to != address(0) */\n      0xffffffffffffffffffffffffffffffffffffffff\n      and\n      eq\n      iszero\n        /* \"ERC721/ERC721.sol\":4683:4740  require(to != address(0), \"transfer to the zero address\") */\n      tag_323\n      jumpi\n      mload(0x40)\n      0x08c379a000000000000000000000000000000000000000000000000000000000\n      dup2\n      mstore\n      0x04\n      add\n      tag_324\n      swap1\n      tag_325\n      jump\t// in\n    tag_324:\n      mload(0x40)\n      dup1\n      swap2\n      sub\n      swap1\n      revert\n    tag_323:\n        /* \"ERC721/ERC721.sol\":4753:4789  _approve(owner, address(0), tokenId) */\n      tag_326\n        /* \"ERC721/ERC721.sol\":4762:4767  owner */\n      dup5\n        /* \"ERC721/ERC721.sol\":4777:4778  0 */\n      0x00\n        /* \"ERC721/ERC721.sol\":4781:4788  tokenId */\n      dup4\n        /* \"ERC721/ERC721.sol\":4753:4761  _approve */\n      tag_188\n        /* \"ERC721/ERC721.sol\":4753:4789  _approve(owner, address(0), tokenId) */\n      jump\t// in\n    tag_326:\n        /* \"ERC721/ERC721.sol\":4821:4822  1 */\n      0x01\n        /* \"ERC721/ERC721.sol\":4802:4811  _balances */\n      0x04\n        /* \"ERC721/ERC721.sol\":4802:4817  _balances[from] */\n      0x00\n        /* \"ERC721/ERC721.sol\":4812:4816  from */\n      dup6\n        /* \"ERC721/ERC721.sol\":4802:4817  _balances[from] */\n      0xffffffffffffffffffffffffffffffffffffffff\n      and\n      0xffffffffffffffffffffffffffffffffffffffff\n      and\n      dup2\n      mstore\n      0x20\n      add\n      swap1\n      dup2\n      mstore\n      0x20\n      add\n      0x00\n      keccak256\n      0x00\n        /* \"ERC721/ERC721.sol\":4802:4822  _balances[from] -= 1 */\n      dup3\n      dup3\n      sload\n      tag_327\n      swap2\n      swap1\n      tag_205\n      jump\t// in\n    tag_327:\n      swap3\n      pop\n      pop\n      dup2\n      swap1\n      sstore\n      pop\n        /* \"ERC721/ERC721.sol\":4850:4851  1 */\n      0x01\n        /* \"ERC721/ERC721.sol\":4833:4842  _balances */\n      0x04\n        /* \"ERC721/ERC721.sol\":4833:4846  _balances[to] */\n      0x00\n        /* \"ERC721/ERC721.sol\":4843:4845  to */\n      dup5\n        /* \"ERC721/ERC721.sol\":4833:4846  _balances[to] */\n      0xffffffffffffffffffffffffffffffffffffffff\n      and\n      0xffffffffffffffffffffffffffffffffffffffff\n      and\n      dup2\n      mstore\n      0x20\n      add\n      swap1\n      dup2\n      mstore\n      0x20\n      add\n      0x00\n      keccak256\n      0x00\n        /* \"ERC721/ERC721.sol\":4833:4851  _balances[to] += 1 */\n      dup3\n      dup3\n      sload\n      tag_328\n      swap2\n      swap1\n      tag_224\n      jump\t// in\n    tag_328:\n      swap3\n      pop\n      pop\n      dup2\n      swap1\n      sstore\n      pop\n        /* \"ERC721/ERC721.sol\":4881:4883  to */\n      dup2\n        /* \"ERC721/ERC721.sol\":4862:4869  _owners */\n      0x03\n        /* \"ERC721/ERC721.sol\":4862:4878  _owners[tokenId] */\n      0x00\n        /* \"ERC721/ERC721.sol\":4870:4877  tokenId */\n      dup4\n        /* \"ERC721/ERC721.sol\":4862:4878  _owners[tokenId] */\n      dup2\n      mstore\n      0x20\n      add\n      swap1\n      dup2\n      mstore\n      0x20\n      add\n      0x00\n      keccak256\n      0x00\n        /* \"ERC721/ERC721.sol\":4862:4883  _owners[tokenId] = to */\n      0x0100\n      exp\n      dup2\n      sload\n      dup2\n      0xffffffffffffffffffffffffffffffffffffffff\n      mul\n      not\n      and\n      swap1\n      dup4\n      0xffffffffffffffffffffffffffffffffffffffff\n      and\n      mul\n      or\n      swap1\n      sstore\n      pop\n        /* \"ERC721/ERC721.sol\":4920:4927  tokenId */\n      dup1\n        /* \"ERC721/ERC721.sol\":4916:4918  to */\n      dup3\n        /* \"ERC721/ERC721.sol\":4901:4928  Transfer(from, to, tokenId) */\n      0xffffffffffffffffffffffffffffffffffffffff\n      and\n        /* \"ERC721/ERC721.sol\":4910:4914  from */\n      dup5\n        /* \"ERC721/ERC721.sol\":4901:4928  Transfer(from, to, tokenId) */\n      0xffffffffffffffffffffffffffffffffffffffff\n      and\n      0xddf252ad1be2c89b69c2b068fc378daa952ba7f163c4a11628f55a4df523b3ef\n      mload(0x40)\n      mload(0x40)\n      dup1\n      swap2\n      sub\n      swap1\n      log4\n        /* \"ERC721/ERC721.sol\":4501:4936  function _transfer(\r... */\n      pop\n      pop\n      pop\n      pop\n      jump\t// out\n        /* \"ERC721/ERC721.sol\":7317:7631  function _mint(address to, uint tokenId) internal virtual {\r... */\n    tag_238:\n        /* \"ERC721/ERC721.sol\":7408:7409  0 */\n      0x00\n        /* \"ERC721/ERC721.sol\":7394:7410  to != address(0) */\n      0xffffffffffffffffffffffffffffffffffffffff\n      and\n        /* \"ERC721/ERC721.sol\":7394:7396  to */\n      dup3\n        /* \"ERC721/ERC721.sol\":7394:7410  to != address(0) */\n      0xffffffffffffffffffffffffffffffffffffffff\n      and\n      eq\n      iszero\n        /* \"ERC721/ERC721.sol\":7386:7435  require(to != address(0), \"mint to zero address\") */\n      tag_330\n      jumpi\n      mload(0x40)\n      0x08c379a000000000000000000000000000000000000000000000000000000000\n      dup2\n      mstore\n      0x04\n      add\n      tag_331\n      swap1\n      tag_332\n      jump\t// in\n    tag_331:\n      mload(0x40)\n      dup1\n      swap2\n      sub\n      swap1\n      revert\n    tag_330:\n        /* \"ERC721/ERC721.sol\":7482:7483  0 */\n      0x00\n        /* \"ERC721/ERC721.sol\":7454:7484  _owners[tokenId] == address(0) */\n      0xffffffffffffffffffffffffffffffffffffffff\n      and\n        /* \"ERC721/ERC721.sol\":7454:7461  _owners */\n      0x03\n        /* \"ERC721/ERC721.sol\":7454:7470  _owners[tokenId] */\n      0x00\n        /* \"ERC721/ERC721.sol\":7462:7469  tokenId */\n      dup4\n        /* \"ERC721/ERC721.sol\":7454:7470  _owners[tokenId] */\n      dup2\n      mstore\n      0x20\n      add\n      swap1\n      dup2\n      mstore\n      0x20\n      add\n      0x00\n      keccak256\n      0x00\n      swap1\n      sload\n      swap1\n      0x0100\n      exp\n      swap1\n      div\n      0xffffffffffffffffffffffffffffffffffffffff\n      and\n        /* \"ERC721/ERC721.sol\":7454:7484  _owners[tokenId] == address(0) */\n      0xffffffffffffffffffffffffffffffffffffffff\n      and\n      eq\n        /* \"ERC721/ERC721.sol\":7446:7509  require(_owners[tokenId] == address(0), \"token already minted\") */\n      tag_333\n      jumpi\n      mload(0x40)\n      0x08c379a000000000000000000000000000000000000000000000000000000000\n      dup2\n      mstore\n      0x04\n      add\n      tag_334\n      swap1\n      tag_335\n      jump\t// in\n    tag_334:\n      mload(0x40)\n      dup1\n      swap2\n      sub\n      swap1\n      revert\n    tag_333:\n        /* \"ERC721/ERC721.sol\":7539:7540  1 */\n      0x01\n        /* \"ERC721/ERC721.sol\":7522:7531  _balances */\n      0x04\n        /* \"ERC721/ERC721.sol\":7522:7535  _balances[to] */\n      0x00\n        /* \"ERC721/ERC721.sol\":7532:7534  to */\n      dup5\n        /* \"ERC721/ERC721.sol\":7522:7535  _balances[to] */\n      0xffffffffffffffffffffffffffffffffffffffff\n      and\n      0xffffffffffffffffffffffffffffffffffffffff\n      and\n      dup2\n      mstore\n      0x20\n      add\n      swap1\n      dup2\n      mstore\n      0x20\n      add\n      0x00\n      keccak256\n      0x00\n        /* \"ERC721/ERC721.sol\":7522:7540  _balances[to] += 1 */\n      dup3\n      dup3\n      sload\n      tag_336\n      swap2\n      swap1\n      tag_224\n      jump\t// in\n    tag_336:\n      swap3\n      pop\n      pop\n      dup2\n      swap1\n      sstore\n      pop\n        /* \"ERC721/ERC721.sol\":7570:7572  to */\n      dup2\n        /* \"ERC721/ERC721.sol\":7551:7558  _owners */\n      0x03\n        /* \"ERC721/ERC721.sol\":7551:7567  _owners[tokenId] */\n      0x00\n        /* \"ERC721/ERC721.sol\":7559:7566  tokenId */\n      dup4\n        /* \"ERC721/ERC721.sol\":7551:7567  _owners[tokenId] */\n      dup2\n      mstore\n      0x20\n      add\n      swap1\n      dup2\n      mstore\n      0x20\n      add\n      0x00\n      keccak256\n      0x00\n        /* \"ERC721/ERC721.sol\":7551:7572  _owners[tokenId] = to */\n      0x0100\n      exp\n      dup2\n      sload\n      dup2\n      0xffffffffffffffffffffffffffffffffffffffff\n      mul\n      not\n      and\n      swap1\n      dup4\n      0xffffffffffffffffffffffffffffffffffffffff\n      and\n      mul\n      or\n      swap1\n      sstore\n      pop\n        /* \"ERC721/ERC721.sol\":7615:7622  tokenId */\n      dup1\n        /* \"ERC721/ERC721.sol\":7611:7613  to */\n      dup3\n        /* \"ERC721/ERC721.sol\":7590:7623  Transfer(address(0), to, tokenId) */\n      0xffffffffffffffffffffffffffffffffffffffff\n      and\n        /* \"ERC721/ERC721.sol\":7607:7608  0 */\n      0x00\n        /* \"ERC721/ERC721.sol\":7590:7623  Transfer(address(0), to, tokenId) */\n      0xffffffffffffffffffffffffffffffffffffffff\n      and\n      0xddf252ad1be2c89b69c2b068fc378daa952ba7f163c4a11628f55a4df523b3ef\n      mload(0x40)\n      mload(0x40)\n      dup1\n      swap2\n      sub\n      swap1\n      log4\n        /* \"ERC721/ERC721.sol\":7317:7631  function _mint(address to, uint tokenId) internal virtual {\r... */\n      pop\n      pop\n      jump\t// out\n        /* \"荷兰拍卖/DutchAuction.sol\":1142:1251  function _addTokenToAllTokensEnumeration(uint256 tokenId) private {\r... */\n    tag_240:\n        /* \"荷兰拍卖/DutchAuction.sol\":1219:1229  _allTokens */\n      0x09\n        /* \"荷兰拍卖/DutchAuction.sol\":1235:1242  tokenId */\n      dup2\n        /* \"荷兰拍卖/DutchAuction.sol\":1219:1243  _allTokens.push(tokenId) */\n      swap1\n      dup1\n      0x01\n      dup2\n      sload\n      add\n      dup1\n      dup3\n      sstore\n      dup1\n      swap2\n      pop\n      pop\n      0x01\n      swap1\n      sub\n      swap1\n      0x00\n      mstore\n      keccak256(0x00, 0x20)\n      add\n      0x00\n      swap1\n      swap2\n      swap1\n      swap2\n      swap1\n      swap2\n      pop\n      sstore\n        /* \"荷兰拍卖/DutchAuction.sol\":1142:1251  function _addTokenToAllTokensEnumeration(uint256 tokenId) private {\r... */\n      pop\n      jump\t// out\n        /* \"@openzeppelin/contracts/access/Ownable.sol\":2433:2620  function _transferOwnership(address newOwner) internal virtual {... */\n    tag_261:\n        /* \"@openzeppelin/contracts/access/Ownable.sol\":2506:2522  address oldOwner */\n      0x00\n        /* \"@openzeppelin/contracts/access/Ownable.sol\":2525:2531  _owner */\n      dup1\n      0x00\n      swap1\n      sload\n      swap1\n      0x0100\n      exp\n      swap1\n      div\n      0xffffffffffffffffffffffffffffffffffffffff\n      and\n        /* \"@openzeppelin/contracts/access/Ownable.sol\":2506:2531  address oldOwner = _owner */\n      swap1\n      pop\n        /* \"@openzeppelin/contracts/access/Ownable.sol\":2550:2558  newOwner */\n      dup2\n        /* \"@openzeppelin/contracts/access/Ownable.sol\":2541:2547  _owner */\n      0x00\n      dup1\n        /* \"@openzeppelin/contracts/access/Ownable.sol\":2541:2558  _owner = newOwner */\n      0x0100\n      exp\n      dup2\n      sload\n      dup2\n      0xffffffffffffffffffffffffffffffffffffffff\n      mul\n      not\n      and\n      swap1\n      dup4\n      0xffffffffffffffffffffffffffffffffffffffff\n      and\n      mul\n      or\n      swap1\n      sstore\n      pop\n        /* \"@openzeppelin/contracts/access/Ownable.sol\":2604:2612  newOwner */\n      dup2\n        /* \"@openzeppelin/contracts/access/Ownable.sol\":2573:2613  OwnershipTransferred(oldOwner, newOwner) */\n      0xffffffffffffffffffffffffffffffffffffffff\n      and\n        /* \"@openzeppelin/contracts/access/Ownable.sol\":2594:2602  oldOwner */\n      dup2\n        /* \"@openzeppelin/contracts/access/Ownable.sol\":2573:2613  OwnershipTransferred(oldOwner, newOwner) */\n      0xffffffffffffffffffffffffffffffffffffffff\n      and\n      0x8be0079c531659141344cd1fd0a4f28419497f9722a3daafe3b4186f6b6457e0\n      mload(0x40)\n      mload(0x40)\n      dup1\n      swap2\n      sub\n      swap1\n      log3\n        /* \"@openzeppelin/contracts/access/Ownable.sol\":2433:2620  function _transferOwnership(address newOwner) internal virtual {... */\n      pop\n      pop\n      jump\t// out\n        /* \"ERC721/ERC721.sol\":5843:6145  function _safeTransfer(\r... */\n    tag_287:\n        /* \"ERC721/ERC721.sol\":6012:6047  _transfer(owner, from, to, tokenId) */\n      tag_341\n        /* \"ERC721/ERC721.sol\":6022:6027  owner */\n      dup6\n        /* \"ERC721/ERC721.sol\":6029:6033  from */\n      dup6\n        /* \"ERC721/ERC721.sol\":6035:6037  to */\n      dup6\n        /* \"ERC721/ERC721.sol\":6039:6046  tokenId */\n      dup6\n        /* \"ERC721/ERC721.sol\":6012:6021  _transfer */\n      tag_198\n        /* \"ERC721/ERC721.sol\":6012:6047  _transfer(owner, from, to, tokenId) */\n      jump\t// in\n    tag_341:\n        /* \"ERC721/ERC721.sol\":6066:6114  _checkOnERC721Received(from, to, tokenId, _data) */\n      tag_342\n        /* \"ERC721/ERC721.sol\":6089:6093  from */\n      dup5\n        /* \"ERC721/ERC721.sol\":6095:6097  to */\n      dup5\n        /* \"ERC721/ERC721.sol\":6099:6106  tokenId */\n      dup5\n        /* \"ERC721/ERC721.sol\":6108:6113  _data */\n      dup5\n        /* \"ERC721/ERC721.sol\":6066:6088  _checkOnERC721Received */\n      tag_343\n        /* \"ERC721/ERC721.sol\":6066:6114  _checkOnERC721Received(from, to, tokenId, _data) */\n      jump\t// in\n    tag_342:\n        /* \"ERC721/ERC721.sol\":6058:6137  require(_checkOnERC721Received(from, to, tokenId, _data), \"not ERC721Receiver\") */\n      tag_344\n      jumpi\n      mload(0x40)\n      0x08c379a000000000000000000000000000000000000000000000000000000000\n      dup2\n      mstore\n      0x04\n      add\n      tag_345\n      swap1\n      tag_346\n      jump\t// in\n    tag_345:\n      mload(0x40)\n      dup1\n      swap2\n      sub\n      swap1\n      revert\n    tag_344:\n        /* \"ERC721/ERC721.sol\":5843:6145  function _safeTransfer(\r... */\n      pop\n      pop\n      pop\n      pop\n      pop\n      jump\t// out\n        /* \"ERC721/ERC721.sol\":9403:9497  function _baseURI() internal view virtual returns (string memory) {\r... */\n    tag_293:\n        /* \"ERC721/ERC721.sol\":9454:9467  string memory */\n      0x60\n        /* \"ERC721/ERC721.sol\":9480:9489  return \"\" */\n      mload(0x40)\n      dup1\n      0x20\n      add\n      0x40\n      mstore\n      dup1\n      0x00\n      dup2\n      mstore\n      pop\n      swap1\n      pop\n        /* \"ERC721/ERC721.sol\":9403:9497  function _baseURI() internal view virtual returns (string memory) {\r... */\n      swap1\n      jump\t// out\n        /* \"ERC721/String.sol\":407:1130  function toString(uint256 value) internal pure returns (string memory) {\r... */\n    tag_297:\n        /* \"ERC721/String.sol\":463:476  string memory */\n      0x60\n        /* \"ERC721/String.sol\":693:694  0 */\n      0x00\n        /* \"ERC721/String.sol\":684:689  value */\n      dup3\n        /* \"ERC721/String.sol\":684:694  value == 0 */\n      eq\n        /* \"ERC721/String.sol\":680:733  if (value == 0) {\r... */\n      iszero\n      tag_349\n      jumpi\n        /* \"ERC721/String.sol\":711:721  return \"0\" */\n      mload(0x40)\n      dup1\n      0x40\n      add\n      0x40\n      mstore\n      dup1\n      0x01\n      dup2\n      mstore\n      0x20\n      add\n      0x3000000000000000000000000000000000000000000000000000000000000000\n      dup2\n      mstore\n      pop\n      swap1\n      pop\n      jump(tag_348)\n        /* \"ERC721/String.sol\":680:733  if (value == 0) {\r... */\n    tag_349:\n        /* \"ERC721/String.sol\":743:755  uint256 temp */\n      0x00\n        /* \"ERC721/String.sol\":758:763  value */\n      dup3\n        /* \"ERC721/String.sol\":743:763  uint256 temp = value */\n      swap1\n      pop\n        /* \"ERC721/String.sol\":774:788  uint256 digits */\n      0x00\n        /* \"ERC721/String.sol\":799:877  while (temp != 0) {\r... */\n    tag_350:\n        /* \"ERC721/String.sol\":814:815  0 */\n      0x00\n        /* \"ERC721/String.sol\":806:810  temp */\n      dup3\n        /* \"ERC721/String.sol\":806:815  temp != 0 */\n      eq\n        /* \"ERC721/String.sol\":799:877  while (temp != 0) {\r... */\n      tag_351\n      jumpi\n        /* \"ERC721/String.sol\":832:840  digits++ */\n      dup1\n      dup1\n      tag_352\n      swap1\n      tag_242\n      jump\t// in\n    tag_352:\n      swap2\n      pop\n      pop\n        /* \"ERC721/String.sol\":863:865  10 */\n      0x0a\n        /* \"ERC721/String.sol\":855:865  temp /= 10 */\n      dup3\n      tag_353\n      swap2\n      swap1\n      tag_210\n      jump\t// in\n    tag_353:\n      swap2\n      pop\n        /* \"ERC721/String.sol\":799:877  while (temp != 0) {\r... */\n      jump(tag_350)\n    tag_351:\n        /* \"ERC721/String.sol\":887:906  bytes memory buffer */\n      0x00\n        /* \"ERC721/String.sol\":919:925  digits */\n      dup2\n        /* \"ERC721/String.sol\":909:926  new bytes(digits) */\n      0xffffffffffffffff\n      dup2\n      gt\n      iszero\n      tag_354\n      jumpi\n      mstore(0x00, 0x4e487b7100000000000000000000000000000000000000000000000000000000)\n      mstore(0x04, 0x41)\n      revert(0x00, 0x24)\n    tag_354:\n      mload(0x40)\n      swap1\n      dup1\n      dup3\n      mstore\n      dup1\n      0x1f\n      add\n      not(0x1f)\n      and\n      0x20\n      add\n      dup3\n      add\n      0x40\n      mstore\n      dup1\n      iszero\n      tag_355\n      jumpi\n      dup2\n      0x20\n      add\n      0x01\n      dup3\n      mul\n      dup1\n      calldatasize\n      dup4\n      calldatacopy\n      dup1\n      dup3\n      add\n      swap2\n      pop\n      pop\n      swap1\n      pop\n    tag_355:\n      pop\n        /* \"ERC721/String.sol\":887:926  bytes memory buffer = new bytes(digits) */\n      swap1\n      pop\n        /* \"ERC721/String.sol\":937:1091  while (value != 0) {\r... */\n    tag_356:\n        /* \"ERC721/String.sol\":953:954  0 */\n      0x00\n        /* \"ERC721/String.sol\":944:949  value */\n      dup6\n        /* \"ERC721/String.sol\":944:954  value != 0 */\n      eq\n        /* \"ERC721/String.sol\":937:1091  while (value != 0) {\r... */\n      tag_357\n      jumpi\n        /* \"ERC721/String.sol\":981:982  1 */\n      0x01\n        /* \"ERC721/String.sol\":971:982  digits -= 1 */\n      dup3\n      tag_358\n      swap2\n      swap1\n      tag_205\n      jump\t// in\n    tag_358:\n      swap2\n      pop\n        /* \"ERC721/String.sol\":1048:1050  10 */\n      0x0a\n        /* \"ERC721/String.sol\":1040:1045  value */\n      dup6\n        /* \"ERC721/String.sol\":1040:1050  value % 10 */\n      tag_359\n      swap2\n      swap1\n      tag_360\n      jump\t// in\n    tag_359:\n        /* \"ERC721/String.sol\":1027:1029  48 */\n      0x30\n        /* \"ERC721/String.sol\":1027:1051  48 + uint256(value % 10) */\n      tag_361\n      swap2\n      swap1\n      tag_224\n      jump\t// in\n    tag_361:\n        /* \"ERC721/String.sol\":1014:1053  bytes1(uint8(48 + uint256(value % 10))) */\n      0xf8\n      shl\n        /* \"ERC721/String.sol\":997:1003  buffer */\n      dup2\n        /* \"ERC721/String.sol\":1004:1010  digits */\n      dup4\n        /* \"ERC721/String.sol\":997:1011  buffer[digits] */\n      dup2\n      mload\n      dup2\n      lt\n      tag_362\n      jumpi\n      mstore(0x00, 0x4e487b7100000000000000000000000000000000000000000000000000000000)\n      mstore(0x04, 0x32)\n      revert(0x00, 0x24)\n    tag_362:\n      0x20\n      add\n      add\n        /* \"ERC721/String.sol\":997:1053  buffer[digits] = bytes1(uint8(48 + uint256(value % 10))) */\n      swap1\n      not(0xffffffffffffffffffffffffffffffffffffffffffffffffffffffffffffff)\n      and\n      swap1\n      dup2\n      0x00\n      byte\n      swap1\n      mstore8\n      pop\n        /* \"ERC721/String.sol\":1077:1079  10 */\n      0x0a\n        /* \"ERC721/String.sol\":1068:1079  value /= 10 */\n      dup6\n      tag_363\n      swap2\n      swap1\n      tag_210\n      jump\t// in\n    tag_363:\n      swap5\n      pop\n        /* \"ERC721/String.sol\":937:1091  while (value != 0) {\r... */\n      jump(tag_356)\n    tag_357:\n        /* \"ERC721/String.sol\":1115:1121  buffer */\n      dup1\n        /* \"ERC721/String.sol\":1101:1122  return string(buffer) */\n      swap4\n      pop\n      pop\n      pop\n      pop\n        /* \"ERC721/String.sol\":407:1130  function toString(uint256 value) internal pure returns (string memory) {\r... */\n    tag_348:\n      swap2\n      swap1\n      pop\n      jump\t// out\n        /* \"@openzeppelin/contracts/utils/Context.sol\":640:736  function _msgSender() internal view virtual returns (address) {... */\n    tag_310:\n        /* \"@openzeppelin/contracts/utils/Context.sol\":693:700  address */\n      0x00\n        /* \"@openzeppelin/contracts/utils/Context.sol\":719:729  msg.sender */\n      caller\n        /* \"@openzeppelin/contracts/utils/Context.sol\":712:729  return msg.sender */\n      swap1\n      pop\n        /* \"@openzeppelin/contracts/utils/Context.sol\":640:736  function _msgSender() internal view virtual returns (address) {... */\n      swap1\n      jump\t// out\n        /* \"ERC721/ERC721.sol\":8266:8776  function _checkOnERC721Received(\r... */\n    tag_343:\n        /* \"ERC721/ERC721.sol\":8418:8422  bool */\n      0x00\n        /* \"ERC721/ERC721.sol\":8439:8454  to.isContract() */\n      tag_366\n        /* \"ERC721/ERC721.sol\":8439:8441  to */\n      dup5\n        /* \"ERC721/ERC721.sol\":8439:8452  to.isContract */\n      0xffffffffffffffffffffffffffffffffffffffff\n      and\n      tag_367\n        /* \"ERC721/ERC721.sol\":8439:8454  to.isContract() */\n      jump\t// in\n    tag_366:\n        /* \"ERC721/ERC721.sol\":8435:8769  if (to.isContract()) {\r... */\n      iszero\n      tag_368\n      jumpi\n        /* \"ERC721/ERC721.sol\":8672:8713  IERC721Receiver.onERC721Received.selector */\n      shl(0xe0, 0x150b7a02)\n        /* \"ERC721/ERC721.sol\":8495:8713  IERC721Receiver(to).onERC721Received(\r... */\n      not(0xffffffffffffffffffffffffffffffffffffffffffffffffffffffff)\n      and\n        /* \"ERC721/ERC721.sol\":8511:8513  to */\n      dup5\n        /* \"ERC721/ERC721.sol\":8495:8531  IERC721Receiver(to).onERC721Received */\n      0xffffffffffffffffffffffffffffffffffffffff\n      and\n      0x150b7a02\n        /* \"ERC721/ERC721.sol\":8554:8564  msg.sender */\n      caller\n        /* \"ERC721/ERC721.sol\":8587:8591  from */\n      dup9\n        /* \"ERC721/ERC721.sol\":8614:8621  tokenId */\n      dup8\n        /* \"ERC721/ERC721.sol\":8644:8649  _data */\n      dup8\n        /* \"ERC721/ERC721.sol\":8495:8668  IERC721Receiver(to).onERC721Received(\r... */\n      mload(0x40)\n      dup6\n      0xffffffff\n      and\n      0xe0\n      shl\n      dup2\n      mstore\n      0x04\n      add\n      tag_369\n      swap5\n      swap4\n      swap3\n      swap2\n      swap1\n      tag_370\n      jump\t// in\n    tag_369:\n      0x20\n      mload(0x40)\n      dup1\n      dup4\n      sub\n      dup2\n      0x00\n      dup8\n      dup1\n      extcodesize\n      iszero\n      dup1\n      iszero\n      tag_371\n      jumpi\n      0x00\n      dup1\n      revert\n    tag_371:\n      pop\n      gas\n      call\n      iszero\n      dup1\n      iszero\n      tag_373\n      jumpi\n      returndatasize\n      0x00\n      dup1\n      returndatacopy\n      revert(0x00, returndatasize)\n    tag_373:\n      pop\n      pop\n      pop\n      pop\n      mload(0x40)\n      returndatasize\n      not(0x1f)\n      0x1f\n      dup3\n      add\n      and\n      dup3\n      add\n      dup1\n      0x40\n      mstore\n      pop\n      dup2\n      add\n      swap1\n      tag_374\n      swap2\n      swap1\n      tag_375\n      jump\t// in\n    tag_374:\n        /* \"ERC721/ERC721.sol\":8495:8713  IERC721Receiver(to).onERC721Received(\r... */\n      not(0xffffffffffffffffffffffffffffffffffffffffffffffffffffffff)\n      and\n      eq\n        /* \"ERC721/ERC721.sol\":8471:8713  return\r... */\n      swap1\n      pop\n      jump(tag_365)\n        /* \"ERC721/ERC721.sol\":8435:8769  if (to.isContract()) {\r... */\n    tag_368:\n        /* \"ERC721/ERC721.sol\":8753:8757  true */\n      0x01\n        /* \"ERC721/ERC721.sol\":8746:8757  return true */\n      swap1\n      pop\n        /* \"ERC721/ERC721.sol\":8266:8776  function _checkOnERC721Received(\r... */\n    tag_365:\n      swap5\n      swap4\n      pop\n      pop\n      pop\n      pop\n      jump\t// out\n        /* \"ERC721/Address.sol\":163:356  function isContract(address account) internal view returns (bool) {\r... */\n    tag_367:\n        /* \"ERC721/Address.sol\":223:227  bool */\n      0x00\n        /* \"ERC721/Address.sol\":240:249  uint size */\n      dup1\n        /* \"ERC721/Address.sol\":304:311  account */\n      dup3\n        /* \"ERC721/Address.sol\":292:312  extcodesize(account) */\n      extcodesize\n        /* \"ERC721/Address.sol\":284:312  size := extcodesize(account) */\n      swap1\n      pop\n        /* \"ERC721/Address.sol\":347:348  0 */\n      0x00\n        /* \"ERC721/Address.sol\":340:344  size */\n      dup2\n        /* \"ERC721/Address.sol\":340:348  size > 0 */\n      gt\n        /* \"ERC721/Address.sol\":333:348  return size > 0 */\n      swap2\n      pop\n      pop\n        /* \"ERC721/Address.sol\":163:356  function isContract(address account) internal view returns (bool) {\r... */\n      swap2\n      swap1\n      pop\n      jump\t// out\n        /* \"#utility.yul\":7:350   */\n    tag_379:\n        /* \"#utility.yul\":84:89   */\n      0x00\n        /* \"#utility.yul\":109:174   */\n      tag_381\n        /* \"#utility.yul\":125:173   */\n      tag_382\n        /* \"#utility.yul\":166:172   */\n      dup5\n        /* \"#utility.yul\":125:173   */\n      tag_383\n      jump\t// in\n    tag_382:\n        /* \"#utility.yul\":109:174   */\n      tag_384\n      jump\t// in\n    tag_381:\n        /* \"#utility.yul\":100:174   */\n      swap1\n      pop\n        /* \"#utility.yul\":197:203   */\n      dup3\n        /* \"#utility.yul\":190:195   */\n      dup2\n        /* \"#utility.yul\":183:204   */\n      mstore\n        /* \"#utility.yul\":235:239   */\n      0x20\n        /* \"#utility.yul\":228:233   */\n      dup2\n        /* \"#utility.yul\":224:240   */\n      add\n        /* \"#utility.yul\":273:276   */\n      dup5\n        /* \"#utility.yul\":264:270   */\n      dup5\n        /* \"#utility.yul\":259:262   */\n      dup5\n        /* \"#utility.yul\":255:271   */\n      add\n        /* \"#utility.yul\":252:277   */\n      gt\n        /* \"#utility.yul\":249:251   */\n      iszero\n      tag_385\n      jumpi\n        /* \"#utility.yul\":290:291   */\n      0x00\n        /* \"#utility.yul\":287:288   */\n      dup1\n        /* \"#utility.yul\":280:292   */\n      revert\n        /* \"#utility.yul\":249:251   */\n    tag_385:\n        /* \"#utility.yul\":303:344   */\n      tag_386\n        /* \"#utility.yul\":337:343   */\n      dup5\n        /* \"#utility.yul\":332:335   */\n      dup3\n        /* \"#utility.yul\":327:330   */\n      dup6\n        /* \"#utility.yul\":303:344   */\n      tag_387\n      jump\t// in\n    tag_386:\n        /* \"#utility.yul\":90:350   */\n      pop\n      swap4\n      swap3\n      pop\n      pop\n      pop\n      jump\t// out\n        /* \"#utility.yul\":356:495   */\n    tag_388:\n        /* \"#utility.yul\":402:407   */\n      0x00\n        /* \"#utility.yul\":440:446   */\n      dup2\n        /* \"#utility.yul\":427:447   */\n      calldataload\n        /* \"#utility.yul\":418:447   */\n      swap1\n      pop\n        /* \"#utility.yul\":456:489   */\n      tag_390\n        /* \"#utility.yul\":483:488   */\n      dup2\n        /* \"#utility.yul\":456:489   */\n      tag_391\n      jump\t// in\n    tag_390:\n        /* \"#utility.yul\":408:495   */\n      swap3\n      swap2\n      pop\n      pop\n      jump\t// out\n        /* \"#utility.yul\":501:634   */\n    tag_392:\n        /* \"#utility.yul\":544:549   */\n      0x00\n        /* \"#utility.yul\":582:588   */\n      dup2\n        /* \"#utility.yul\":569:589   */\n      calldataload\n        /* \"#utility.yul\":560:589   */\n      swap1\n      pop\n        /* \"#utility.yul\":598:628   */\n      tag_394\n        /* \"#utility.yul\":622:627   */\n      dup2\n        /* \"#utility.yul\":598:628   */\n      tag_395\n      jump\t// in\n    tag_394:\n        /* \"#utility.yul\":550:634   */\n      swap3\n      swap2\n      pop\n      pop\n      jump\t// out\n        /* \"#utility.yul\":640:777   */\n    tag_396:\n        /* \"#utility.yul\":685:690   */\n      0x00\n        /* \"#utility.yul\":723:729   */\n      dup2\n        /* \"#utility.yul\":710:730   */\n      calldataload\n        /* \"#utility.yul\":701:730   */\n      swap1\n      pop\n        /* \"#utility.yul\":739:771   */\n      tag_398\n        /* \"#utility.yul\":765:770   */\n      dup2\n        /* \"#utility.yul\":739:771   */\n      tag_399\n      jump\t// in\n    tag_398:\n        /* \"#utility.yul\":691:777   */\n      swap3\n      swap2\n      pop\n      pop\n      jump\t// out\n        /* \"#utility.yul\":783:924   */\n    tag_400:\n        /* \"#utility.yul\":839:844   */\n      0x00\n        /* \"#utility.yul\":870:876   */\n      dup2\n        /* \"#utility.yul\":864:877   */\n      mload\n        /* \"#utility.yul\":855:877   */\n      swap1\n      pop\n        /* \"#utility.yul\":886:918   */\n      tag_402\n        /* \"#utility.yul\":912:917   */\n      dup2\n        /* \"#utility.yul\":886:918   */\n      tag_399\n      jump\t// in\n    tag_402:\n        /* \"#utility.yul\":845:924   */\n      swap3\n      swap2\n      pop\n      pop\n      jump\t// out\n        /* \"#utility.yul\":943:1214   */\n    tag_403:\n        /* \"#utility.yul\":998:1003   */\n      0x00\n        /* \"#utility.yul\":1047:1050   */\n      dup3\n        /* \"#utility.yul\":1040:1044   */\n      0x1f\n        /* \"#utility.yul\":1032:1038   */\n      dup4\n        /* \"#utility.yul\":1028:1045   */\n      add\n        /* \"#utility.yul\":1024:1051   */\n      slt\n        /* \"#utility.yul\":1014:1016   */\n      tag_405\n      jumpi\n        /* \"#utility.yul\":1065:1066   */\n      0x00\n        /* \"#utility.yul\":1062:1063   */\n      dup1\n        /* \"#utility.yul\":1055:1067   */\n      revert\n        /* \"#utility.yul\":1014:1016   */\n    tag_405:\n        /* \"#utility.yul\":1105:1111   */\n      dup2\n        /* \"#utility.yul\":1092:1112   */\n      calldataload\n        /* \"#utility.yul\":1130:1208   */\n      tag_406\n        /* \"#utility.yul\":1204:1207   */\n      dup5\n        /* \"#utility.yul\":1196:1202   */\n      dup3\n        /* \"#utility.yul\":1189:1193   */\n      0x20\n        /* \"#utility.yul\":1181:1187   */\n      dup7\n        /* \"#utility.yul\":1177:1194   */\n      add\n        /* \"#utility.yul\":1130:1208   */\n      tag_379\n      jump\t// in\n    tag_406:\n        /* \"#utility.yul\":1121:1208   */\n      swap2\n      pop\n        /* \"#utility.yul\":1004:1214   */\n      pop\n      swap3\n      swap2\n      pop\n      pop\n      jump\t// out\n        /* \"#utility.yul\":1220:1359   */\n    tag_407:\n        /* \"#utility.yul\":1266:1271   */\n      0x00\n        /* \"#utility.yul\":1304:1310   */\n      dup2\n        /* \"#utility.yul\":1291:1311   */\n      calldataload\n        /* \"#utility.yul\":1282:1311   */\n      swap1\n      pop\n        /* \"#utility.yul\":1320:1353   */\n      tag_409\n        /* \"#utility.yul\":1347:1352   */\n      dup2\n        /* \"#utility.yul\":1320:1353   */\n      tag_410\n      jump\t// in\n    tag_409:\n        /* \"#utility.yul\":1272:1359   */\n      swap3\n      swap2\n      pop\n      pop\n      jump\t// out\n        /* \"#utility.yul\":1365:1502   */\n    tag_411:\n        /* \"#utility.yul\":1410:1415   */\n      0x00\n        /* \"#utility.yul\":1448:1454   */\n      dup2\n        /* \"#utility.yul\":1435:1455   */\n      calldataload\n        /* \"#utility.yul\":1426:1455   */\n      swap1\n      pop\n        /* \"#utility.yul\":1464:1496   */\n      tag_413\n        /* \"#utility.yul\":1490:1495   */\n      dup2\n        /* \"#utility.yul\":1464:1496   */\n      tag_414\n      jump\t// in\n    tag_413:\n        /* \"#utility.yul\":1416:1502   */\n      swap3\n      swap2\n      pop\n      pop\n      jump\t// out\n        /* \"#utility.yul\":1508:1770   */\n    tag_107:\n        /* \"#utility.yul\":1567:1573   */\n      0x00\n        /* \"#utility.yul\":1616:1618   */\n      0x20\n        /* \"#utility.yul\":1604:1613   */\n      dup3\n        /* \"#utility.yul\":1595:1602   */\n      dup5\n        /* \"#utility.yul\":1591:1614   */\n      sub\n        /* \"#utility.yul\":1587:1619   */\n      slt\n        /* \"#utility.yul\":1584:1586   */\n      iszero\n      tag_416\n      jumpi\n        /* \"#utility.yul\":1632:1633   */\n      0x00\n        /* \"#utility.yul\":1629:1630   */\n      dup1\n        /* \"#utility.yul\":1622:1634   */\n      revert\n        /* \"#utility.yul\":1584:1586   */\n    tag_416:\n        /* \"#utility.yul\":1675:1676   */\n      0x00\n        /* \"#utility.yul\":1700:1753   */\n      tag_417\n        /* \"#utility.yul\":1745:1752   */\n      dup5\n        /* \"#utility.yul\":1736:1742   */\n      dup3\n        /* \"#utility.yul\":1725:1734   */\n      dup6\n        /* \"#utility.yul\":1721:1743   */\n      add\n        /* \"#utility.yul\":1700:1753   */\n      tag_388\n      jump\t// in\n    tag_417:\n        /* \"#utility.yul\":1690:1753   */\n      swap2\n      pop\n        /* \"#utility.yul\":1646:1763   */\n      pop\n        /* \"#utility.yul\":1574:1770   */\n      swap3\n      swap2\n      pop\n      pop\n      jump\t// out\n        /* \"#utility.yul\":1776:2183   */\n    tag_154:\n        /* \"#utility.yul\":1844:1850   */\n      0x00\n        /* \"#utility.yul\":1852:1858   */\n      dup1\n        /* \"#utility.yul\":1901:1903   */\n      0x40\n        /* \"#utility.yul\":1889:1898   */\n      dup4\n        /* \"#utility.yul\":1880:1887   */\n      dup6\n        /* \"#utility.yul\":1876:1899   */\n      sub\n        /* \"#utility.yul\":1872:1904   */\n      slt\n        /* \"#utility.yul\":1869:1871   */\n      iszero\n      tag_419\n      jumpi\n        /* \"#utility.yul\":1917:1918   */\n      0x00\n        /* \"#utility.yul\":1914:1915   */\n      dup1\n        /* \"#utility.yul\":1907:1919   */\n      revert\n        /* \"#utility.yul\":1869:1871   */\n    tag_419:\n        /* \"#utility.yul\":1960:1961   */\n      0x00\n        /* \"#utility.yul\":1985:2038   */\n      tag_420\n        /* \"#utility.yul\":2030:2037   */\n      dup6\n        /* \"#utility.yul\":2021:2027   */\n      dup3\n        /* \"#utility.yul\":2010:2019   */\n      dup7\n        /* \"#utility.yul\":2006:2028   */\n      add\n        /* \"#utility.yul\":1985:2038   */\n      tag_388\n      jump\t// in\n    tag_420:\n        /* \"#utility.yul\":1975:2038   */\n      swap3\n      pop\n        /* \"#utility.yul\":1931:2048   */\n      pop\n        /* \"#utility.yul\":2087:2089   */\n      0x20\n        /* \"#utility.yul\":2113:2166   */\n      tag_421\n        /* \"#utility.yul\":2158:2165   */\n      dup6\n        /* \"#utility.yul\":2149:2155   */\n      dup3\n        /* \"#utility.yul\":2138:2147   */\n      dup7\n        /* \"#utility.yul\":2134:2156   */\n      add\n        /* \"#utility.yul\":2113:2166   */\n      tag_388\n      jump\t// in\n    tag_421:\n        /* \"#utility.yul\":2103:2166   */\n      swap2\n      pop\n        /* \"#utility.yul\":2058:2176   */\n      pop\n        /* \"#utility.yul\":1859:2183   */\n      swap3\n      pop\n      swap3\n      swap1\n      pop\n      jump\t// out\n        /* \"#utility.yul\":2189:2741   */\n    tag_74:\n        /* \"#utility.yul\":2266:2272   */\n      0x00\n        /* \"#utility.yul\":2274:2280   */\n      dup1\n        /* \"#utility.yul\":2282:2288   */\n      0x00\n        /* \"#utility.yul\":2331:2333   */\n      0x60\n        /* \"#utility.yul\":2319:2328   */\n      dup5\n        /* \"#utility.yul\":2310:2317   */\n      dup7\n        /* \"#utility.yul\":2306:2329   */\n      sub\n        /* \"#utility.yul\":2302:2334   */\n      slt\n        /* \"#utility.yul\":2299:2301   */\n      iszero\n      tag_423\n      jumpi\n        /* \"#utility.yul\":2347:2348   */\n      0x00\n        /* \"#utility.yul\":2344:2345   */\n      dup1\n        /* \"#utility.yul\":2337:2349   */\n      revert\n        /* \"#utility.yul\":2299:2301   */\n    tag_423:\n        /* \"#utility.yul\":2390:2391   */\n      0x00\n        /* \"#utility.yul\":2415:2468   */\n      tag_424\n        /* \"#utility.yul\":2460:2467   */\n      dup7\n        /* \"#utility.yul\":2451:2457   */\n      dup3\n        /* \"#utility.yul\":2440:2449   */\n      dup8\n        /* \"#utility.yul\":2436:2458   */\n      add\n        /* \"#utility.yul\":2415:2468   */\n      tag_388\n      jump\t// in\n    tag_424:\n        /* \"#utility.yul\":2405:2468   */\n      swap4\n      pop\n        /* \"#utility.yul\":2361:2478   */\n      pop\n        /* \"#utility.yul\":2517:2519   */\n      0x20\n        /* \"#utility.yul\":2543:2596   */\n      tag_425\n        /* \"#utility.yul\":2588:2595   */\n      dup7\n        /* \"#utility.yul\":2579:2585   */\n      dup3\n        /* \"#utility.yul\":2568:2577   */\n      dup8\n        /* \"#utility.yul\":2564:2586   */\n      add\n        /* \"#utility.yul\":2543:2596   */\n      tag_388\n      jump\t// in\n    tag_425:\n        /* \"#utility.yul\":2533:2596   */\n      swap3\n      pop\n        /* \"#utility.yul\":2488:2606   */\n      pop\n        /* \"#utility.yul\":2645:2647   */\n      0x40\n        /* \"#utility.yul\":2671:2724   */\n      tag_426\n        /* \"#utility.yul\":2716:2723   */\n      dup7\n        /* \"#utility.yul\":2707:2713   */\n      dup3\n        /* \"#utility.yul\":2696:2705   */\n      dup8\n        /* \"#utility.yul\":2692:2714   */\n      add\n        /* \"#utility.yul\":2671:2724   */\n      tag_407\n      jump\t// in\n    tag_426:\n        /* \"#utility.yul\":2661:2724   */\n      swap2\n      pop\n        /* \"#utility.yul\":2616:2734   */\n      pop\n        /* \"#utility.yul\":2289:2741   */\n      swap3\n      pop\n      swap3\n      pop\n      swap3\n      jump\t// out\n        /* \"#utility.yul\":2747:3556   */\n    tag_136:\n        /* \"#utility.yul\":2842:2848   */\n      0x00\n        /* \"#utility.yul\":2850:2856   */\n      dup1\n        /* \"#utility.yul\":2858:2864   */\n      0x00\n        /* \"#utility.yul\":2866:2872   */\n      dup1\n        /* \"#utility.yul\":2915:2918   */\n      0x80\n        /* \"#utility.yul\":2903:2912   */\n      dup6\n        /* \"#utility.yul\":2894:2901   */\n      dup8\n        /* \"#utility.yul\":2890:2913   */\n      sub\n        /* \"#utility.yul\":2886:2919   */\n      slt\n        /* \"#utility.yul\":2883:2885   */\n      iszero\n      tag_428\n      jumpi\n        /* \"#utility.yul\":2932:2933   */\n      0x00\n        /* \"#utility.yul\":2929:2930   */\n      dup1\n        /* \"#utility.yul\":2922:2934   */\n      revert\n        /* \"#utility.yul\":2883:2885   */\n    tag_428:\n        /* \"#utility.yul\":2975:2976   */\n      0x00\n        /* \"#utility.yul\":3000:3053   */\n      tag_429\n        /* \"#utility.yul\":3045:3052   */\n      dup8\n        /* \"#utility.yul\":3036:3042   */\n      dup3\n        /* \"#utility.yul\":3025:3034   */\n      dup9\n        /* \"#utility.yul\":3021:3043   */\n      add\n        /* \"#utility.yul\":3000:3053   */\n      tag_388\n      jump\t// in\n    tag_429:\n        /* \"#utility.yul\":2990:3053   */\n      swap5\n      pop\n        /* \"#utility.yul\":2946:3063   */\n      pop\n        /* \"#utility.yul\":3102:3104   */\n      0x20\n        /* \"#utility.yul\":3128:3181   */\n      tag_430\n        /* \"#utility.yul\":3173:3180   */\n      dup8\n        /* \"#utility.yul\":3164:3170   */\n      dup3\n        /* \"#utility.yul\":3153:3162   */\n      dup9\n        /* \"#utility.yul\":3149:3171   */\n      add\n        /* \"#utility.yul\":3128:3181   */\n      tag_388\n      jump\t// in\n    tag_430:\n        /* \"#utility.yul\":3118:3181   */\n      swap4\n      pop\n        /* \"#utility.yul\":3073:3191   */\n      pop\n        /* \"#utility.yul\":3230:3232   */\n      0x40\n        /* \"#utility.yul\":3256:3309   */\n      tag_431\n        /* \"#utility.yul\":3301:3308   */\n      dup8\n        /* \"#utility.yul\":3292:3298   */\n      dup3\n        /* \"#utility.yul\":3281:3290   */\n      dup9\n        /* \"#utility.yul\":3277:3299   */\n      add\n        /* \"#utility.yul\":3256:3309   */\n      tag_407\n      jump\t// in\n    tag_431:\n        /* \"#utility.yul\":3246:3309   */\n      swap3\n      pop\n        /* \"#utility.yul\":3201:3319   */\n      pop\n        /* \"#utility.yul\":3386:3388   */\n      0x60\n        /* \"#utility.yul\":3375:3384   */\n      dup6\n        /* \"#utility.yul\":3371:3389   */\n      add\n        /* \"#utility.yul\":3358:3390   */\n      calldataload\n        /* \"#utility.yul\":3417:3435   */\n      0xffffffffffffffff\n        /* \"#utility.yul\":3409:3415   */\n      dup2\n        /* \"#utility.yul\":3406:3436   */\n      gt\n        /* \"#utility.yul\":3403:3405   */\n      iszero\n      tag_432\n      jumpi\n        /* \"#utility.yul\":3449:3450   */\n      0x00\n        /* \"#utility.yul\":3446:3447   */\n      dup1\n        /* \"#utility.yul\":3439:3451   */\n      revert\n        /* \"#utility.yul\":3403:3405   */\n    tag_432:\n        /* \"#utility.yul\":3477:3539   */\n      tag_433\n        /* \"#utility.yul\":3531:3538   */\n      dup8\n        /* \"#utility.yul\":3522:3528   */\n      dup3\n        /* \"#utility.yul\":3511:3520   */\n      dup9\n        /* \"#utility.yul\":3507:3529   */\n      add\n        /* \"#utility.yul\":3477:3539   */\n      tag_403\n      jump\t// in\n    tag_433:\n        /* \"#utility.yul\":3467:3539   */\n      swap2\n      pop\n        /* \"#utility.yul\":3329:3549   */\n      pop\n        /* \"#utility.yul\":2873:3556   */\n      swap3\n      swap6\n      swap2\n      swap5\n      pop\n      swap3\n      pop\n      jump\t// out\n        /* \"#utility.yul\":3562:3963   */\n    tag_128:\n        /* \"#utility.yul\":3627:3633   */\n      0x00\n        /* \"#utility.yul\":3635:3641   */\n      dup1\n        /* \"#utility.yul\":3684:3686   */\n      0x40\n        /* \"#utility.yul\":3672:3681   */\n      dup4\n        /* \"#utility.yul\":3663:3670   */\n      dup6\n        /* \"#utility.yul\":3659:3682   */\n      sub\n        /* \"#utility.yul\":3655:3687   */\n      slt\n        /* \"#utility.yul\":3652:3654   */\n      iszero\n      tag_435\n      jumpi\n        /* \"#utility.yul\":3700:3701   */\n      0x00\n        /* \"#utility.yul\":3697:3698   */\n      dup1\n        /* \"#utility.yul\":3690:3702   */\n      revert\n        /* \"#utility.yul\":3652:3654   */\n    tag_435:\n        /* \"#utility.yul\":3743:3744   */\n      0x00\n        /* \"#utility.yul\":3768:3821   */\n      tag_436\n        /* \"#utility.yul\":3813:3820   */\n      dup6\n        /* \"#utility.yul\":3804:3810   */\n      dup3\n        /* \"#utility.yul\":3793:3802   */\n      dup7\n        /* \"#utility.yul\":3789:3811   */\n      add\n        /* \"#utility.yul\":3768:3821   */\n      tag_388\n      jump\t// in\n    tag_436:\n        /* \"#utility.yul\":3758:3821   */\n      swap3\n      pop\n        /* \"#utility.yul\":3714:3831   */\n      pop\n        /* \"#utility.yul\":3870:3872   */\n      0x20\n        /* \"#utility.yul\":3896:3946   */\n      tag_437\n        /* \"#utility.yul\":3938:3945   */\n      dup6\n        /* \"#utility.yul\":3929:3935   */\n      dup3\n        /* \"#utility.yul\":3918:3927   */\n      dup7\n        /* \"#utility.yul\":3914:3936   */\n      add\n        /* \"#utility.yul\":3896:3946   */\n      tag_392\n      jump\t// in\n    tag_437:\n        /* \"#utility.yul\":3886:3946   */\n      swap2\n      pop\n        /* \"#utility.yul\":3841:3956   */\n      pop\n        /* \"#utility.yul\":3642:3963   */\n      swap3\n      pop\n      swap3\n      swap1\n      pop\n      jump\t// out\n        /* \"#utility.yul\":3969:4376   */\n    tag_64:\n        /* \"#utility.yul\":4037:4043   */\n      0x00\n        /* \"#utility.yul\":4045:4051   */\n      dup1\n        /* \"#utility.yul\":4094:4096   */\n      0x40\n        /* \"#utility.yul\":4082:4091   */\n      dup4\n        /* \"#utility.yul\":4073:4080   */\n      dup6\n        /* \"#utility.yul\":4069:4092   */\n      sub\n        /* \"#utility.yul\":4065:4097   */\n      slt\n        /* \"#utility.yul\":4062:4064   */\n      iszero\n      tag_439\n      jumpi\n        /* \"#utility.yul\":4110:4111   */\n      0x00\n        /* \"#utility.yul\":4107:4108   */\n      dup1\n        /* \"#utility.yul\":4100:4112   */\n      revert\n        /* \"#utility.yul\":4062:4064   */\n    tag_439:\n        /* \"#utility.yul\":4153:4154   */\n      0x00\n        /* \"#utility.yul\":4178:4231   */\n      tag_440\n        /* \"#utility.yul\":4223:4230   */\n      dup6\n        /* \"#utility.yul\":4214:4220   */\n      dup3\n        /* \"#utility.yul\":4203:4212   */\n      dup7\n        /* \"#utility.yul\":4199:4221   */\n      add\n        /* \"#utility.yul\":4178:4231   */\n      tag_388\n      jump\t// in\n    tag_440:\n        /* \"#utility.yul\":4168:4231   */\n      swap3\n      pop\n        /* \"#utility.yul\":4124:4241   */\n      pop\n        /* \"#utility.yul\":4280:4282   */\n      0x20\n        /* \"#utility.yul\":4306:4359   */\n      tag_441\n        /* \"#utility.yul\":4351:4358   */\n      dup6\n        /* \"#utility.yul\":4342:4348   */\n      dup3\n        /* \"#utility.yul\":4331:4340   */\n      dup7\n        /* \"#utility.yul\":4327:4349   */\n      add\n        /* \"#utility.yul\":4306:4359   */\n      tag_407\n      jump\t// in\n    tag_441:\n        /* \"#utility.yul\":4296:4359   */\n      swap2\n      pop\n        /* \"#utility.yul\":4251:4369   */\n      pop\n        /* \"#utility.yul\":4052:4376   */\n      swap3\n      pop\n      swap3\n      swap1\n      pop\n      jump\t// out\n        /* \"#utility.yul\":4382:4642   */\n    tag_40:\n        /* \"#utility.yul\":4440:4446   */\n      0x00\n        /* \"#utility.yul\":4489:4491   */\n      0x20\n        /* \"#utility.yul\":4477:4486   */\n      dup3\n        /* \"#utility.yul\":4468:4475   */\n      dup5\n        /* \"#utility.yul\":4464:4487   */\n      sub\n        /* \"#utility.yul\":4460:4492   */\n      slt\n        /* \"#utility.yul\":4457:4459   */\n      iszero\n      tag_443\n      jumpi\n        /* \"#utility.yul\":4505:4506   */\n      0x00\n        /* \"#utility.yul\":4502:4503   */\n      dup1\n        /* \"#utility.yul\":4495:4507   */\n      revert\n        /* \"#utility.yul\":4457:4459   */\n    tag_443:\n        /* \"#utility.yul\":4548:4549   */\n      0x00\n        /* \"#utility.yul\":4573:4625   */\n      tag_444\n        /* \"#utility.yul\":4617:4624   */\n      dup5\n        /* \"#utility.yul\":4608:4614   */\n      dup3\n        /* \"#utility.yul\":4597:4606   */\n      dup6\n        /* \"#utility.yul\":4593:4615   */\n      add\n        /* \"#utility.yul\":4573:4625   */\n      tag_396\n      jump\t// in\n    tag_444:\n        /* \"#utility.yul\":4563:4625   */\n      swap2\n      pop\n        /* \"#utility.yul\":4519:4635   */\n      pop\n        /* \"#utility.yul\":4447:4642   */\n      swap3\n      swap2\n      pop\n      pop\n      jump\t// out\n        /* \"#utility.yul\":4648:4930   */\n    tag_375:\n        /* \"#utility.yul\":4717:4723   */\n      0x00\n        /* \"#utility.yul\":4766:4768   */\n      0x20\n        /* \"#utility.yul\":4754:4763   */\n      dup3\n        /* \"#utility.yul\":4745:4752   */\n      dup5\n        /* \"#utility.yul\":4741:4764   */\n      sub\n        /* \"#utility.yul\":4737:4769   */\n      slt\n        /* \"#utility.yul\":4734:4736   */\n      iszero\n      tag_446\n      jumpi\n        /* \"#utility.yul\":4782:4783   */\n      0x00\n        /* \"#utility.yul\":4779:4780   */\n      dup1\n        /* \"#utility.yul\":4772:4784   */\n      revert\n        /* \"#utility.yul\":4734:4736   */\n    tag_446:\n        /* \"#utility.yul\":4825:4826   */\n      0x00\n        /* \"#utility.yul\":4850:4913   */\n      tag_447\n        /* \"#utility.yul\":4905:4912   */\n      dup5\n        /* \"#utility.yul\":4896:4902   */\n      dup3\n        /* \"#utility.yul\":4885:4894   */\n      dup6\n        /* \"#utility.yul\":4881:4903   */\n      add\n        /* \"#utility.yul\":4850:4913   */\n      tag_400\n      jump\t// in\n    tag_447:\n        /* \"#utility.yul\":4840:4913   */\n      swap2\n      pop\n        /* \"#utility.yul\":4796:4923   */\n      pop\n        /* \"#utility.yul\":4724:4930   */\n      swap3\n      swap2\n      pop\n      pop\n      jump\t// out\n        /* \"#utility.yul\":4936:5198   */\n    tag_57:\n        /* \"#utility.yul\":4995:5001   */\n      0x00\n        /* \"#utility.yul\":5044:5046   */\n      0x20\n        /* \"#utility.yul\":5032:5041   */\n      dup3\n        /* \"#utility.yul\":5023:5030   */\n      dup5\n        /* \"#utility.yul\":5019:5042   */\n      sub\n        /* \"#utility.yul\":5015:5047   */\n      slt\n        /* \"#utility.yul\":5012:5014   */\n      iszero\n      tag_449\n      jumpi\n        /* \"#utility.yul\":5060:5061   */\n      0x00\n        /* \"#utility.yul\":5057:5058   */\n      dup1\n        /* \"#utility.yul\":5050:5062   */\n      revert\n        /* \"#utility.yul\":5012:5014   */\n    tag_449:\n        /* \"#utility.yul\":5103:5104   */\n      0x00\n        /* \"#utility.yul\":5128:5181   */\n      tag_450\n        /* \"#utility.yul\":5173:5180   */\n      dup5\n        /* \"#utility.yul\":5164:5170   */\n      dup3\n        /* \"#utility.yul\":5153:5162   */\n      dup6\n        /* \"#utility.yul\":5149:5171   */\n      add\n        /* \"#utility.yul\":5128:5181   */\n      tag_407\n      jump\t// in\n    tag_450:\n        /* \"#utility.yul\":5118:5181   */\n      swap2\n      pop\n        /* \"#utility.yul\":5074:5191   */\n      pop\n        /* \"#utility.yul\":5002:5198   */\n      swap3\n      swap2\n      pop\n      pop\n      jump\t// out\n        /* \"#utility.yul\":5204:5464   */\n    tag_47:\n        /* \"#utility.yul\":5262:5268   */\n      0x00\n        /* \"#utility.yul\":5311:5313   */\n      0x20\n        /* \"#utility.yul\":5299:5308   */\n      dup3\n        /* \"#utility.yul\":5290:5297   */\n      dup5\n        /* \"#utility.yul\":5286:5309   */\n      sub\n        /* \"#utility.yul\":5282:5314   */\n      slt\n        /* \"#utility.yul\":5279:5281   */\n      iszero\n      tag_452\n      jumpi\n        /* \"#utility.yul\":5327:5328   */\n      0x00\n        /* \"#utility.yul\":5324:5325   */\n      dup1\n        /* \"#utility.yul\":5317:5329   */\n      revert\n        /* \"#utility.yul\":5279:5281   */\n    tag_452:\n        /* \"#utility.yul\":5370:5371   */\n      0x00\n        /* \"#utility.yul\":5395:5447   */\n      tag_453\n        /* \"#utility.yul\":5439:5446   */\n      dup5\n        /* \"#utility.yul\":5430:5436   */\n      dup3\n        /* \"#utility.yul\":5419:5428   */\n      dup6\n        /* \"#utility.yul\":5415:5437   */\n      add\n        /* \"#utility.yul\":5395:5447   */\n      tag_411\n      jump\t// in\n    tag_453:\n        /* \"#utility.yul\":5385:5447   */\n      swap2\n      pop\n        /* \"#utility.yul\":5341:5457   */\n      pop\n        /* \"#utility.yul\":5269:5464   */\n      swap3\n      swap2\n      pop\n      pop\n      jump\t// out\n        /* \"#utility.yul\":5470:5588   */\n    tag_454:\n        /* \"#utility.yul\":5557:5581   */\n      tag_456\n        /* \"#utility.yul\":5575:5580   */\n      dup2\n        /* \"#utility.yul\":5557:5581   */\n      tag_457\n      jump\t// in\n    tag_456:\n        /* \"#utility.yul\":5552:5555   */\n      dup3\n        /* \"#utility.yul\":5545:5582   */\n      mstore\n        /* \"#utility.yul\":5535:5588   */\n      pop\n      pop\n      jump\t// out\n        /* \"#utility.yul\":5594:5703   */\n    tag_458:\n        /* \"#utility.yul\":5675:5696   */\n      tag_460\n        /* \"#utility.yul\":5690:5695   */\n      dup2\n        /* \"#utility.yul\":5675:5696   */\n      tag_461\n      jump\t// in\n    tag_460:\n        /* \"#utility.yul\":5670:5673   */\n      dup3\n        /* \"#utility.yul\":5663:5697   */\n      mstore\n        /* \"#utility.yul\":5653:5703   */\n      pop\n      pop\n      jump\t// out\n        /* \"#utility.yul\":5709:6069   */\n    tag_462:\n        /* \"#utility.yul\":5795:5798   */\n      0x00\n        /* \"#utility.yul\":5823:5861   */\n      tag_464\n        /* \"#utility.yul\":5855:5860   */\n      dup3\n        /* \"#utility.yul\":5823:5861   */\n      tag_465\n      jump\t// in\n    tag_464:\n        /* \"#utility.yul\":5877:5947   */\n      tag_466\n        /* \"#utility.yul\":5940:5946   */\n      dup2\n        /* \"#utility.yul\":5935:5938   */\n      dup6\n        /* \"#utility.yul\":5877:5947   */\n      tag_467\n      jump\t// in\n    tag_466:\n        /* \"#utility.yul\":5870:5947   */\n      swap4\n      pop\n        /* \"#utility.yul\":5956:6008   */\n      tag_468\n        /* \"#utility.yul\":6001:6007   */\n      dup2\n        /* \"#utility.yul\":5996:5999   */\n      dup6\n        /* \"#utility.yul\":5989:5993   */\n      0x20\n        /* \"#utility.yul\":5982:5987   */\n      dup7\n        /* \"#utility.yul\":5978:5994   */\n      add\n        /* \"#utility.yul\":5956:6008   */\n      tag_469\n      jump\t// in\n    tag_468:\n        /* \"#utility.yul\":6033:6062   */\n      tag_470\n        /* \"#utility.yul\":6055:6061   */\n      dup2\n        /* \"#utility.yul\":6033:6062   */\n      tag_471\n      jump\t// in\n    tag_470:\n        /* \"#utility.yul\":6028:6031   */\n      dup5\n        /* \"#utility.yul\":6024:6063   */\n      add\n        /* \"#utility.yul\":6017:6063   */\n      swap2\n      pop\n        /* \"#utility.yul\":5799:6069   */\n      pop\n      swap3\n      swap2\n      pop\n      pop\n      jump\t// out\n        /* \"#utility.yul\":6075:6439   */\n    tag_472:\n        /* \"#utility.yul\":6163:6166   */\n      0x00\n        /* \"#utility.yul\":6191:6230   */\n      tag_474\n        /* \"#utility.yul\":6224:6229   */\n      dup3\n        /* \"#utility.yul\":6191:6230   */\n      tag_475\n      jump\t// in\n    tag_474:\n        /* \"#utility.yul\":6246:6317   */\n      tag_476\n        /* \"#utility.yul\":6310:6316   */\n      dup2\n        /* \"#utility.yul\":6305:6308   */\n      dup6\n        /* \"#utility.yul\":6246:6317   */\n      tag_477\n      jump\t// in\n    tag_476:\n        /* \"#utility.yul\":6239:6317   */\n      swap4\n      pop\n        /* \"#utility.yul\":6326:6378   */\n      tag_478\n        /* \"#utility.yul\":6371:6377   */\n      dup2\n        /* \"#utility.yul\":6366:6369   */\n      dup6\n        /* \"#utility.yul\":6359:6363   */\n      0x20\n        /* \"#utility.yul\":6352:6357   */\n      dup7\n        /* \"#utility.yul\":6348:6364   */\n      add\n        /* \"#utility.yul\":6326:6378   */\n      tag_469\n      jump\t// in\n    tag_478:\n        /* \"#utility.yul\":6403:6432   */\n      tag_479\n        /* \"#utility.yul\":6425:6431   */\n      dup2\n        /* \"#utility.yul\":6403:6432   */\n      tag_471\n      jump\t// in\n    tag_479:\n        /* \"#utility.yul\":6398:6401   */\n      dup5\n        /* \"#utility.yul\":6394:6433   */\n      add\n        /* \"#utility.yul\":6387:6433   */\n      swap2\n      pop\n        /* \"#utility.yul\":6167:6439   */\n      pop\n      swap3\n      swap2\n      pop\n      pop\n      jump\t// out\n        /* \"#utility.yul\":6445:6822   */\n    tag_480:\n        /* \"#utility.yul\":6551:6554   */\n      0x00\n        /* \"#utility.yul\":6579:6618   */\n      tag_482\n        /* \"#utility.yul\":6612:6617   */\n      dup3\n        /* \"#utility.yul\":6579:6618   */\n      tag_475\n      jump\t// in\n    tag_482:\n        /* \"#utility.yul\":6634:6723   */\n      tag_483\n        /* \"#utility.yul\":6716:6722   */\n      dup2\n        /* \"#utility.yul\":6711:6714   */\n      dup6\n        /* \"#utility.yul\":6634:6723   */\n      tag_484\n      jump\t// in\n    tag_483:\n        /* \"#utility.yul\":6627:6723   */\n      swap4\n      pop\n        /* \"#utility.yul\":6732:6784   */\n      tag_485\n        /* \"#utility.yul\":6777:6783   */\n      dup2\n        /* \"#utility.yul\":6772:6775   */\n      dup6\n        /* \"#utility.yul\":6765:6769   */\n      0x20\n        /* \"#utility.yul\":6758:6763   */\n      dup7\n        /* \"#utility.yul\":6754:6770   */\n      add\n        /* \"#utility.yul\":6732:6784   */\n      tag_469\n      jump\t// in\n    tag_485:\n        /* \"#utility.yul\":6809:6815   */\n      dup1\n        /* \"#utility.yul\":6804:6807   */\n      dup5\n        /* \"#utility.yul\":6800:6816   */\n      add\n        /* \"#utility.yul\":6793:6816   */\n      swap2\n      pop\n        /* \"#utility.yul\":6555:6822   */\n      pop\n      swap3\n      swap2\n      pop\n      pop\n      jump\t// out\n        /* \"#utility.yul\":6828:7194   */\n    tag_486:\n        /* \"#utility.yul\":6970:6973   */\n      0x00\n        /* \"#utility.yul\":6991:7058   */\n      tag_488\n        /* \"#utility.yul\":7055:7057   */\n      0x16\n        /* \"#utility.yul\":7050:7053   */\n      dup4\n        /* \"#utility.yul\":6991:7058   */\n      tag_477\n      jump\t// in\n    tag_488:\n        /* \"#utility.yul\":6984:7058   */\n      swap2\n      pop\n        /* \"#utility.yul\":7067:7160   */\n      tag_489\n        /* \"#utility.yul\":7156:7159   */\n      dup3\n        /* \"#utility.yul\":7067:7160   */\n      tag_490\n      jump\t// in\n    tag_489:\n        /* \"#utility.yul\":7185:7187   */\n      0x20\n        /* \"#utility.yul\":7180:7183   */\n      dup3\n        /* \"#utility.yul\":7176:7188   */\n      add\n        /* \"#utility.yul\":7169:7188   */\n      swap1\n      pop\n        /* \"#utility.yul\":6974:7194   */\n      swap2\n      swap1\n      pop\n      jump\t// out\n        /* \"#utility.yul\":7200:7566   */\n    tag_491:\n        /* \"#utility.yul\":7342:7345   */\n      0x00\n        /* \"#utility.yul\":7363:7430   */\n      tag_493\n        /* \"#utility.yul\":7427:7429   */\n      0x26\n        /* \"#utility.yul\":7422:7425   */\n      dup4\n        /* \"#utility.yul\":7363:7430   */\n      tag_477\n      jump\t// in\n    tag_493:\n        /* \"#utility.yul\":7356:7430   */\n      swap2\n      pop\n        /* \"#utility.yul\":7439:7532   */\n      tag_494\n        /* \"#utility.yul\":7528:7531   */\n      dup3\n        /* \"#utility.yul\":7439:7532   */\n      tag_495\n      jump\t// in\n    tag_494:\n        /* \"#utility.yul\":7557:7559   */\n      0x40\n        /* \"#utility.yul\":7552:7555   */\n      dup3\n        /* \"#utility.yul\":7548:7560   */\n      add\n        /* \"#utility.yul\":7541:7560   */\n      swap1\n      pop\n        /* \"#utility.yul\":7346:7566   */\n      swap2\n      swap1\n      pop\n      jump\t// out\n        /* \"#utility.yul\":7572:7938   */\n    tag_496:\n        /* \"#utility.yul\":7714:7717   */\n      0x00\n        /* \"#utility.yul\":7735:7802   */\n      tag_498\n        /* \"#utility.yul\":7799:7801   */\n      0x1c\n        /* \"#utility.yul\":7794:7797   */\n      dup4\n        /* \"#utility.yul\":7735:7802   */\n      tag_477\n      jump\t// in\n    tag_498:\n        /* \"#utility.yul\":7728:7802   */\n      swap2\n      pop\n        /* \"#utility.yul\":7811:7904   */\n      tag_499\n        /* \"#utility.yul\":7900:7903   */\n      dup3\n        /* \"#utility.yul\":7811:7904   */\n      tag_500\n      jump\t// in\n    tag_499:\n        /* \"#utility.yul\":7929:7931   */\n      0x20\n        /* \"#utility.yul\":7924:7927   */\n      dup3\n        /* \"#utility.yul\":7920:7932   */\n      add\n        /* \"#utility.yul\":7913:7932   */\n      swap1\n      pop\n        /* \"#utility.yul\":7718:7938   */\n      swap2\n      swap1\n      pop\n      jump\t// out\n        /* \"#utility.yul\":7944:8310   */\n    tag_501:\n        /* \"#utility.yul\":8086:8089   */\n      0x00\n        /* \"#utility.yul\":8107:8174   */\n      tag_503\n        /* \"#utility.yul\":8171:8173   */\n      0x1e\n        /* \"#utility.yul\":8166:8169   */\n      dup4\n        /* \"#utility.yul\":8107:8174   */\n      tag_477\n      jump\t// in\n    tag_503:\n        /* \"#utility.yul\":8100:8174   */\n      swap2\n      pop\n        /* \"#utility.yul\":8183:8276   */\n      tag_504\n        /* \"#utility.yul\":8272:8275   */\n      dup3\n        /* \"#utility.yul\":8183:8276   */\n      tag_505\n      jump\t// in\n    tag_504:\n        /* \"#utility.yul\":8301:8303   */\n      0x20\n        /* \"#utility.yul\":8296:8299   */\n      dup3\n        /* \"#utility.yul\":8292:8304   */\n      add\n        /* \"#utility.yul\":8285:8304   */\n      swap1\n      pop\n        /* \"#utility.yul\":8090:8310   */\n      swap2\n      swap1\n      pop\n      jump\t// out\n        /* \"#utility.yul\":8316:8682   */\n    tag_506:\n        /* \"#utility.yul\":8458:8461   */\n      0x00\n        /* \"#utility.yul\":8479:8546   */\n      tag_508\n        /* \"#utility.yul\":8543:8545   */\n      0x18\n        /* \"#utility.yul\":8538:8541   */\n      dup4\n        /* \"#utility.yul\":8479:8546   */\n      tag_477\n      jump\t// in\n    tag_508:\n        /* \"#utility.yul\":8472:8546   */\n      swap2\n      pop\n        /* \"#utility.yul\":8555:8648   */\n      tag_509\n        /* \"#utility.yul\":8644:8647   */\n      dup3\n        /* \"#utility.yul\":8555:8648   */\n      tag_510\n      jump\t// in\n    tag_509:\n        /* \"#utility.yul\":8673:8675   */\n      0x20\n        /* \"#utility.yul\":8668:8671   */\n      dup3\n        /* \"#utility.yul\":8664:8676   */\n      add\n        /* \"#utility.yul\":8657:8676   */\n      swap1\n      pop\n        /* \"#utility.yul\":8462:8682   */\n      swap2\n      swap1\n      pop\n      jump\t// out\n        /* \"#utility.yul\":8688:9054   */\n    tag_511:\n        /* \"#utility.yul\":8830:8833   */\n      0x00\n        /* \"#utility.yul\":8851:8918   */\n      tag_513\n        /* \"#utility.yul\":8915:8917   */\n      0x14\n        /* \"#utility.yul\":8910:8913   */\n      dup4\n        /* \"#utility.yul\":8851:8918   */\n      tag_477\n      jump\t// in\n    tag_513:\n        /* \"#utility.yul\":8844:8918   */\n      swap2\n      pop\n        /* \"#utility.yul\":8927:9020   */\n      tag_514\n        /* \"#utility.yul\":9016:9019   */\n      dup3\n        /* \"#utility.yul\":8927:9020   */\n      tag_515\n      jump\t// in\n    tag_514:\n        /* \"#utility.yul\":9045:9047   */\n      0x20\n        /* \"#utility.yul\":9040:9043   */\n      dup3\n        /* \"#utility.yul\":9036:9048   */\n      add\n        /* \"#utility.yul\":9029:9048   */\n      swap1\n      pop\n        /* \"#utility.yul\":8834:9054   */\n      swap2\n      swap1\n      pop\n      jump\t// out\n        /* \"#utility.yul\":9060:9426   */\n    tag_516:\n        /* \"#utility.yul\":9202:9205   */\n      0x00\n        /* \"#utility.yul\":9223:9290   */\n      tag_518\n        /* \"#utility.yul\":9287:9289   */\n      0x13\n        /* \"#utility.yul\":9282:9285   */\n      dup4\n        /* \"#utility.yul\":9223:9290   */\n      tag_477\n      jump\t// in\n    tag_518:\n        /* \"#utility.yul\":9216:9290   */\n      swap2\n      pop\n        /* \"#utility.yul\":9299:9392   */\n      tag_519\n        /* \"#utility.yul\":9388:9391   */\n      dup3\n        /* \"#utility.yul\":9299:9392   */\n      tag_520\n      jump\t// in\n    tag_519:\n        /* \"#utility.yul\":9417:9419   */\n      0x20\n        /* \"#utility.yul\":9412:9415   */\n      dup3\n        /* \"#utility.yul\":9408:9420   */\n      add\n        /* \"#utility.yul\":9401:9420   */\n      swap1\n      pop\n        /* \"#utility.yul\":9206:9426   */\n      swap2\n      swap1\n      pop\n      jump\t// out\n        /* \"#utility.yul\":9432:9798   */\n    tag_521:\n        /* \"#utility.yul\":9574:9577   */\n      0x00\n        /* \"#utility.yul\":9595:9662   */\n      tag_523\n        /* \"#utility.yul\":9659:9661   */\n      0x14\n        /* \"#utility.yul\":9654:9657   */\n      dup4\n        /* \"#utility.yul\":9595:9662   */\n      tag_477\n      jump\t// in\n    tag_523:\n        /* \"#utility.yul\":9588:9662   */\n      swap2\n      pop\n        /* \"#utility.yul\":9671:9764   */\n      tag_524\n        /* \"#utility.yul\":9760:9763   */\n      dup3\n        /* \"#utility.yul\":9671:9764   */\n      tag_525\n      jump\t// in\n    tag_524:\n        /* \"#utility.yul\":9789:9791   */\n      0x20\n        /* \"#utility.yul\":9784:9787   */\n      dup3\n        /* \"#utility.yul\":9780:9792   */\n      add\n        /* \"#utility.yul\":9773:9792   */\n      swap1\n      pop\n        /* \"#utility.yul\":9578:9798   */\n      swap2\n      swap1\n      pop\n      jump\t// out\n        /* \"#utility.yul\":9804:10170   */\n    tag_526:\n        /* \"#utility.yul\":9946:9949   */\n      0x00\n        /* \"#utility.yul\":9967:10034   */\n      tag_528\n        /* \"#utility.yul\":10031:10033   */\n      0x20\n        /* \"#utility.yul\":10026:10029   */\n      dup4\n        /* \"#utility.yul\":9967:10034   */\n      tag_477\n      jump\t// in\n    tag_528:\n        /* \"#utility.yul\":9960:10034   */\n      swap2\n      pop\n        /* \"#utility.yul\":10043:10136   */\n      tag_529\n        /* \"#utility.yul\":10132:10135   */\n      dup3\n        /* \"#utility.yul\":10043:10136   */\n      tag_530\n      jump\t// in\n    tag_529:\n        /* \"#utility.yul\":10161:10163   */\n      0x20\n        /* \"#utility.yul\":10156:10159   */\n      dup3\n        /* \"#utility.yul\":10152:10164   */\n      add\n        /* \"#utility.yul\":10145:10164   */\n      swap1\n      pop\n        /* \"#utility.yul\":9950:10170   */\n      swap2\n      swap1\n      pop\n      jump\t// out\n        /* \"#utility.yul\":10176:10542   */\n    tag_531:\n        /* \"#utility.yul\":10318:10321   */\n      0x00\n        /* \"#utility.yul\":10339:10406   */\n      tag_533\n        /* \"#utility.yul\":10403:10405   */\n      0x0f\n        /* \"#utility.yul\":10398:10401   */\n      dup4\n        /* \"#utility.yul\":10339:10406   */\n      tag_477\n      jump\t// in\n    tag_533:\n        /* \"#utility.yul\":10332:10406   */\n      swap2\n      pop\n        /* \"#utility.yul\":10415:10508   */\n      tag_534\n        /* \"#utility.yul\":10504:10507   */\n      dup3\n        /* \"#utility.yul\":10415:10508   */\n      tag_535\n      jump\t// in\n    tag_534:\n        /* \"#utility.yul\":10533:10535   */\n      0x20\n        /* \"#utility.yul\":10528:10531   */\n      dup3\n        /* \"#utility.yul\":10524:10536   */\n      add\n        /* \"#utility.yul\":10517:10536   */\n      swap1\n      pop\n        /* \"#utility.yul\":10322:10542   */\n      swap2\n      swap1\n      pop\n      jump\t// out\n        /* \"#utility.yul\":10548:10914   */\n    tag_536:\n        /* \"#utility.yul\":10690:10693   */\n      0x00\n        /* \"#utility.yul\":10711:10778   */\n      tag_538\n        /* \"#utility.yul\":10775:10777   */\n      0x14\n        /* \"#utility.yul\":10770:10773   */\n      dup4\n        /* \"#utility.yul\":10711:10778   */\n      tag_477\n      jump\t// in\n    tag_538:\n        /* \"#utility.yul\":10704:10778   */\n      swap2\n      pop\n        /* \"#utility.yul\":10787:10880   */\n      tag_539\n        /* \"#utility.yul\":10876:10879   */\n      dup3\n        /* \"#utility.yul\":10787:10880   */\n      tag_540\n      jump\t// in\n    tag_539:\n        /* \"#utility.yul\":10905:10907   */\n      0x20\n        /* \"#utility.yul\":10900:10903   */\n      dup3\n        /* \"#utility.yul\":10896:10908   */\n      add\n        /* \"#utility.yul\":10889:10908   */\n      swap1\n      pop\n        /* \"#utility.yul\":10694:10914   */\n      swap2\n      swap1\n      pop\n      jump\t// out\n        /* \"#utility.yul\":10920:11318   */\n    tag_541:\n        /* \"#utility.yul\":11079:11082   */\n      0x00\n        /* \"#utility.yul\":11100:11183   */\n      tag_543\n        /* \"#utility.yul\":11181:11182   */\n      0x00\n        /* \"#utility.yul\":11176:11179   */\n      dup4\n        /* \"#utility.yul\":11100:11183   */\n      tag_544\n      jump\t// in\n    tag_543:\n        /* \"#utility.yul\":11093:11183   */\n      swap2\n      pop\n        /* \"#utility.yul\":11192:11285   */\n      tag_545\n        /* \"#utility.yul\":11281:11284   */\n      dup3\n        /* \"#utility.yul\":11192:11285   */\n      tag_546\n      jump\t// in\n    tag_545:\n        /* \"#utility.yul\":11310:11311   */\n      0x00\n        /* \"#utility.yul\":11305:11308   */\n      dup3\n        /* \"#utility.yul\":11301:11312   */\n      add\n        /* \"#utility.yul\":11294:11312   */\n      swap1\n      pop\n        /* \"#utility.yul\":11083:11318   */\n      swap2\n      swap1\n      pop\n      jump\t// out\n        /* \"#utility.yul\":11324:11690   */\n    tag_547:\n        /* \"#utility.yul\":11466:11469   */\n      0x00\n        /* \"#utility.yul\":11487:11554   */\n      tag_549\n        /* \"#utility.yul\":11551:11553   */\n      0x10\n        /* \"#utility.yul\":11546:11549   */\n      dup4\n        /* \"#utility.yul\":11487:11554   */\n      tag_477\n      jump\t// in\n    tag_549:\n        /* \"#utility.yul\":11480:11554   */\n      swap2\n      pop\n        /* \"#utility.yul\":11563:11656   */\n      tag_550\n        /* \"#utility.yul\":11652:11655   */\n      dup3\n        /* \"#utility.yul\":11563:11656   */\n      tag_551\n      jump\t// in\n    tag_550:\n        /* \"#utility.yul\":11681:11683   */\n      0x20\n        /* \"#utility.yul\":11676:11679   */\n      dup3\n        /* \"#utility.yul\":11672:11684   */\n      add\n        /* \"#utility.yul\":11665:11684   */\n      swap1\n      pop\n        /* \"#utility.yul\":11470:11690   */\n      swap2\n      swap1\n      pop\n      jump\t// out\n        /* \"#utility.yul\":11696:12062   */\n    tag_552:\n        /* \"#utility.yul\":11838:11841   */\n      0x00\n        /* \"#utility.yul\":11859:11926   */\n      tag_554\n        /* \"#utility.yul\":11923:11925   */\n      0x16\n        /* \"#utility.yul\":11918:11921   */\n      dup4\n        /* \"#utility.yul\":11859:11926   */\n      tag_477\n      jump\t// in\n    tag_554:\n        /* \"#utility.yul\":11852:11926   */\n      swap2\n      pop\n        /* \"#utility.yul\":11935:12028   */\n      tag_555\n        /* \"#utility.yul\":12024:12027   */\n      dup3\n        /* \"#utility.yul\":11935:12028   */\n      tag_556\n      jump\t// in\n    tag_555:\n        /* \"#utility.yul\":12053:12055   */\n      0x20\n        /* \"#utility.yul\":12048:12051   */\n      dup3\n        /* \"#utility.yul\":12044:12056   */\n      add\n        /* \"#utility.yul\":12037:12056   */\n      swap1\n      pop\n        /* \"#utility.yul\":11842:12062   */\n      swap2\n      swap1\n      pop\n      jump\t// out\n        /* \"#utility.yul\":12068:12434   */\n    tag_557:\n        /* \"#utility.yul\":12210:12213   */\n      0x00\n        /* \"#utility.yul\":12231:12298   */\n      tag_559\n        /* \"#utility.yul\":12295:12297   */\n      0x12\n        /* \"#utility.yul\":12290:12293   */\n      dup4\n        /* \"#utility.yul\":12231:12298   */\n      tag_477\n      jump\t// in\n    tag_559:\n        /* \"#utility.yul\":12224:12298   */\n      swap2\n      pop\n        /* \"#utility.yul\":12307:12400   */\n      tag_560\n        /* \"#utility.yul\":12396:12399   */\n      dup3\n        /* \"#utility.yul\":12307:12400   */\n      tag_561\n      jump\t// in\n    tag_560:\n        /* \"#utility.yul\":12425:12427   */\n      0x20\n        /* \"#utility.yul\":12420:12423   */\n      dup3\n        /* \"#utility.yul\":12416:12428   */\n      add\n        /* \"#utility.yul\":12409:12428   */\n      swap1\n      pop\n        /* \"#utility.yul\":12214:12434   */\n      swap2\n      swap1\n      pop\n      jump\t// out\n        /* \"#utility.yul\":12440:12806   */\n    tag_562:\n        /* \"#utility.yul\":12582:12585   */\n      0x00\n        /* \"#utility.yul\":12603:12670   */\n      tag_564\n        /* \"#utility.yul\":12667:12669   */\n      0x48\n        /* \"#utility.yul\":12662:12665   */\n      dup4\n        /* \"#utility.yul\":12603:12670   */\n      tag_477\n      jump\t// in\n    tag_564:\n        /* \"#utility.yul\":12596:12670   */\n      swap2\n      pop\n        /* \"#utility.yul\":12679:12772   */\n      tag_565\n        /* \"#utility.yul\":12768:12771   */\n      dup3\n        /* \"#utility.yul\":12679:12772   */\n      tag_566\n      jump\t// in\n    tag_565:\n        /* \"#utility.yul\":12797:12799   */\n      0x60\n        /* \"#utility.yul\":12792:12795   */\n      dup3\n        /* \"#utility.yul\":12788:12800   */\n      add\n        /* \"#utility.yul\":12781:12800   */\n      swap1\n      pop\n        /* \"#utility.yul\":12586:12806   */\n      swap2\n      swap1\n      pop\n      jump\t// out\n        /* \"#utility.yul\":12812:13177   */\n    tag_567:\n        /* \"#utility.yul\":12954:12957   */\n      0x00\n        /* \"#utility.yul\":12975:13041   */\n      tag_569\n        /* \"#utility.yul\":13039:13040   */\n      0x09\n        /* \"#utility.yul\":13034:13037   */\n      dup4\n        /* \"#utility.yul\":12975:13041   */\n      tag_477\n      jump\t// in\n    tag_569:\n        /* \"#utility.yul\":12968:13041   */\n      swap2\n      pop\n        /* \"#utility.yul\":13050:13143   */\n      tag_570\n        /* \"#utility.yul\":13139:13142   */\n      dup3\n        /* \"#utility.yul\":13050:13143   */\n      tag_571\n      jump\t// in\n    tag_570:\n        /* \"#utility.yul\":13168:13170   */\n      0x20\n        /* \"#utility.yul\":13163:13166   */\n      dup3\n        /* \"#utility.yul\":13159:13171   */\n      add\n        /* \"#utility.yul\":13152:13171   */\n      swap1\n      pop\n        /* \"#utility.yul\":12958:13177   */\n      swap2\n      swap1\n      pop\n      jump\t// out\n        /* \"#utility.yul\":13183:13301   */\n    tag_572:\n        /* \"#utility.yul\":13270:13294   */\n      tag_574\n        /* \"#utility.yul\":13288:13293   */\n      dup2\n        /* \"#utility.yul\":13270:13294   */\n      tag_575\n      jump\t// in\n    tag_574:\n        /* \"#utility.yul\":13265:13268   */\n      dup3\n        /* \"#utility.yul\":13258:13295   */\n      mstore\n        /* \"#utility.yul\":13248:13301   */\n      pop\n      pop\n      jump\t// out\n        /* \"#utility.yul\":13307:13742   */\n    tag_299:\n        /* \"#utility.yul\":13487:13490   */\n      0x00\n        /* \"#utility.yul\":13509:13604   */\n      tag_577\n        /* \"#utility.yul\":13600:13603   */\n      dup3\n        /* \"#utility.yul\":13591:13597   */\n      dup6\n        /* \"#utility.yul\":13509:13604   */\n      tag_480\n      jump\t// in\n    tag_577:\n        /* \"#utility.yul\":13502:13604   */\n      swap2\n      pop\n        /* \"#utility.yul\":13621:13716   */\n      tag_578\n        /* \"#utility.yul\":13712:13715   */\n      dup3\n        /* \"#utility.yul\":13703:13709   */\n      dup5\n        /* \"#utility.yul\":13621:13716   */\n      tag_480\n      jump\t// in\n    tag_578:\n        /* \"#utility.yul\":13614:13716   */\n      swap2\n      pop\n        /* \"#utility.yul\":13733:13736   */\n      dup2\n        /* \"#utility.yul\":13726:13736   */\n      swap1\n      pop\n        /* \"#utility.yul\":13491:13742   */\n      swap4\n      swap3\n      pop\n      pop\n      pop\n      jump\t// out\n        /* \"#utility.yul\":13748:14127   */\n    tag_274:\n        /* \"#utility.yul\":13932:13935   */\n      0x00\n        /* \"#utility.yul\":13954:14101   */\n      tag_580\n        /* \"#utility.yul\":14097:14100   */\n      dup3\n        /* \"#utility.yul\":13954:14101   */\n      tag_541\n      jump\t// in\n    tag_580:\n        /* \"#utility.yul\":13947:14101   */\n      swap2\n      pop\n        /* \"#utility.yul\":14118:14121   */\n      dup2\n        /* \"#utility.yul\":14111:14121   */\n      swap1\n      pop\n        /* \"#utility.yul\":13936:14127   */\n      swap2\n      swap1\n      pop\n      jump\t// out\n        /* \"#utility.yul\":14133:14355   */\n    tag_60:\n        /* \"#utility.yul\":14226:14230   */\n      0x00\n        /* \"#utility.yul\":14264:14266   */\n      0x20\n        /* \"#utility.yul\":14253:14262   */\n      dup3\n        /* \"#utility.yul\":14249:14267   */\n      add\n        /* \"#utility.yul\":14241:14267   */\n      swap1\n      pop\n        /* \"#utility.yul\":14277:14348   */\n      tag_582\n        /* \"#utility.yul\":14345:14346   */\n      0x00\n        /* \"#utility.yul\":14334:14343   */\n      dup4\n        /* \"#utility.yul\":14330:14347   */\n      add\n        /* \"#utility.yul\":14321:14327   */\n      dup5\n        /* \"#utility.yul\":14277:14348   */\n      tag_454\n      jump\t// in\n    tag_582:\n        /* \"#utility.yul\":14231:14355   */\n      swap3\n      swap2\n      pop\n      pop\n      jump\t// out\n        /* \"#utility.yul\":14361:15001   */\n    tag_370:\n        /* \"#utility.yul\":14556:14560   */\n      0x00\n        /* \"#utility.yul\":14594:14597   */\n      0x80\n        /* \"#utility.yul\":14583:14592   */\n      dup3\n        /* \"#utility.yul\":14579:14598   */\n      add\n        /* \"#utility.yul\":14571:14598   */\n      swap1\n      pop\n        /* \"#utility.yul\":14608:14679   */\n      tag_584\n        /* \"#utility.yul\":14676:14677   */\n      0x00\n        /* \"#utility.yul\":14665:14674   */\n      dup4\n        /* \"#utility.yul\":14661:14678   */\n      add\n        /* \"#utility.yul\":14652:14658   */\n      dup8\n        /* \"#utility.yul\":14608:14679   */\n      tag_454\n      jump\t// in\n    tag_584:\n        /* \"#utility.yul\":14689:14761   */\n      tag_585\n        /* \"#utility.yul\":14757:14759   */\n      0x20\n        /* \"#utility.yul\":14746:14755   */\n      dup4\n        /* \"#utility.yul\":14742:14760   */\n      add\n        /* \"#utility.yul\":14733:14739   */\n      dup7\n        /* \"#utility.yul\":14689:14761   */\n      tag_454\n      jump\t// in\n    tag_585:\n        /* \"#utility.yul\":14771:14843   */\n      tag_586\n        /* \"#utility.yul\":14839:14841   */\n      0x40\n        /* \"#utility.yul\":14828:14837   */\n      dup4\n        /* \"#utility.yul\":14824:14842   */\n      add\n        /* \"#utility.yul\":14815:14821   */\n      dup6\n        /* \"#utility.yul\":14771:14843   */\n      tag_572\n      jump\t// in\n    tag_586:\n        /* \"#utility.yul\":14890:14899   */\n      dup2\n        /* \"#utility.yul\":14884:14888   */\n      dup2\n        /* \"#utility.yul\":14880:14900   */\n      sub\n        /* \"#utility.yul\":14875:14877   */\n      0x60\n        /* \"#utility.yul\":14864:14873   */\n      dup4\n        /* \"#utility.yul\":14860:14878   */\n      add\n        /* \"#utility.yul\":14853:14901   */\n      mstore\n        /* \"#utility.yul\":14918:14994   */\n      tag_587\n        /* \"#utility.yul\":14989:14993   */\n      dup2\n        /* \"#utility.yul\":14980:14986   */\n      dup5\n        /* \"#utility.yul\":14918:14994   */\n      tag_462\n      jump\t// in\n    tag_587:\n        /* \"#utility.yul\":14910:14994   */\n      swap1\n      pop\n        /* \"#utility.yul\":14561:15001   */\n      swap6\n      swap5\n      pop\n      pop\n      pop\n      pop\n      pop\n      jump\t// out\n        /* \"#utility.yul\":15007:15217   */\n    tag_43:\n        /* \"#utility.yul\":15094:15098   */\n      0x00\n        /* \"#utility.yul\":15132:15134   */\n      0x20\n        /* \"#utility.yul\":15121:15130   */\n      dup3\n        /* \"#utility.yul\":15117:15135   */\n      add\n        /* \"#utility.yul\":15109:15135   */\n      swap1\n      pop\n        /* \"#utility.yul\":15145:15210   */\n      tag_589\n        /* \"#utility.yul\":15207:15208   */\n      0x00\n        /* \"#utility.yul\":15196:15205   */\n      dup4\n        /* \"#utility.yul\":15192:15209   */\n      add\n        /* \"#utility.yul\":15183:15189   */\n      dup5\n        /* \"#utility.yul\":15145:15210   */\n      tag_458\n      jump\t// in\n    tag_589:\n        /* \"#utility.yul\":15099:15217   */\n      swap3\n      swap2\n      pop\n      pop\n      jump\t// out\n        /* \"#utility.yul\":15223:15536   */\n    tag_53:\n        /* \"#utility.yul\":15336:15340   */\n      0x00\n        /* \"#utility.yul\":15374:15376   */\n      0x20\n        /* \"#utility.yul\":15363:15372   */\n      dup3\n        /* \"#utility.yul\":15359:15377   */\n      add\n        /* \"#utility.yul\":15351:15377   */\n      swap1\n      pop\n        /* \"#utility.yul\":15423:15432   */\n      dup2\n        /* \"#utility.yul\":15417:15421   */\n      dup2\n        /* \"#utility.yul\":15413:15433   */\n      sub\n        /* \"#utility.yul\":15409:15410   */\n      0x00\n        /* \"#utility.yul\":15398:15407   */\n      dup4\n        /* \"#utility.yul\":15394:15411   */\n      add\n        /* \"#utility.yul\":15387:15434   */\n      mstore\n        /* \"#utility.yul\":15451:15529   */\n      tag_591\n        /* \"#utility.yul\":15524:15528   */\n      dup2\n        /* \"#utility.yul\":15515:15521   */\n      dup5\n        /* \"#utility.yul\":15451:15529   */\n      tag_472\n      jump\t// in\n    tag_591:\n        /* \"#utility.yul\":15443:15529   */\n      swap1\n      pop\n        /* \"#utility.yul\":15341:15536   */\n      swap3\n      swap2\n      pop\n      pop\n      jump\t// out\n        /* \"#utility.yul\":15542:15961   */\n    tag_196:\n        /* \"#utility.yul\":15708:15712   */\n      0x00\n        /* \"#utility.yul\":15746:15748   */\n      0x20\n        /* \"#utility.yul\":15735:15744   */\n      dup3\n        /* \"#utility.yul\":15731:15749   */\n      add\n        /* \"#utility.yul\":15723:15749   */\n      swap1\n      pop\n        /* \"#utility.yul\":15795:15804   */\n      dup2\n        /* \"#utility.yul\":15789:15793   */\n      dup2\n        /* \"#utility.yul\":15785:15805   */\n      sub\n        /* \"#utility.yul\":15781:15782   */\n      0x00\n        /* \"#utility.yul\":15770:15779   */\n      dup4\n        /* \"#utility.yul\":15766:15783   */\n      add\n        /* \"#utility.yul\":15759:15806   */\n      mstore\n        /* \"#utility.yul\":15823:15954   */\n      tag_593\n        /* \"#utility.yul\":15949:15953   */\n      dup2\n        /* \"#utility.yul\":15823:15954   */\n      tag_486\n      jump\t// in\n    tag_593:\n        /* \"#utility.yul\":15815:15954   */\n      swap1\n      pop\n        /* \"#utility.yul\":15713:15961   */\n      swap2\n      swap1\n      pop\n      jump\t// out\n        /* \"#utility.yul\":15967:16386   */\n    tag_306:\n        /* \"#utility.yul\":16133:16137   */\n      0x00\n        /* \"#utility.yul\":16171:16173   */\n      0x20\n        /* \"#utility.yul\":16160:16169   */\n      dup3\n        /* \"#utility.yul\":16156:16174   */\n      add\n        /* \"#utility.yul\":16148:16174   */\n      swap1\n      pop\n        /* \"#utility.yul\":16220:16229   */\n      dup2\n        /* \"#utility.yul\":16214:16218   */\n      dup2\n        /* \"#utility.yul\":16210:16230   */\n      sub\n        /* \"#utility.yul\":16206:16207   */\n      0x00\n        /* \"#utility.yul\":16195:16204   */\n      dup4\n        /* \"#utility.yul\":16191:16208   */\n      add\n        /* \"#utility.yul\":16184:16231   */\n      mstore\n        /* \"#utility.yul\":16248:16379   */\n      tag_595\n        /* \"#utility.yul\":16374:16378   */\n      dup2\n        /* \"#utility.yul\":16248:16379   */\n      tag_491\n      jump\t// in\n    tag_595:\n        /* \"#utility.yul\":16240:16379   */\n      swap1\n      pop\n        /* \"#utility.yul\":16138:16386   */\n      swap2\n      swap1\n      pop\n      jump\t// out\n        /* \"#utility.yul\":16392:16811   */\n    tag_325:\n        /* \"#utility.yul\":16558:16562   */\n      0x00\n        /* \"#utility.yul\":16596:16598   */\n      0x20\n        /* \"#utility.yul\":16585:16594   */\n      dup3\n        /* \"#utility.yul\":16581:16599   */\n      add\n        /* \"#utility.yul\":16573:16599   */\n      swap1\n      pop\n        /* \"#utility.yul\":16645:16654   */\n      dup2\n        /* \"#utility.yul\":16639:16643   */\n      dup2\n        /* \"#utility.yul\":16635:16655   */\n      sub\n        /* \"#utility.yul\":16631:16632   */\n      0x00\n        /* \"#utility.yul\":16620:16629   */\n      dup4\n        /* \"#utility.yul\":16616:16633   */\n      add\n        /* \"#utility.yul\":16609:16656   */\n      mstore\n        /* \"#utility.yul\":16673:16804   */\n      tag_597\n        /* \"#utility.yul\":16799:16803   */\n      dup2\n        /* \"#utility.yul\":16673:16804   */\n      tag_496\n      jump\t// in\n    tag_597:\n        /* \"#utility.yul\":16665:16804   */\n      swap1\n      pop\n        /* \"#utility.yul\":16563:16811   */\n      swap2\n      swap1\n      pop\n      jump\t// out\n        /* \"#utility.yul\":16817:17236   */\n    tag_186:\n        /* \"#utility.yul\":16983:16987   */\n      0x00\n        /* \"#utility.yul\":17021:17023   */\n      0x20\n        /* \"#utility.yul\":17010:17019   */\n      dup3\n        /* \"#utility.yul\":17006:17024   */\n      add\n        /* \"#utility.yul\":16998:17024   */\n      swap1\n      pop\n        /* \"#utility.yul\":17070:17079   */\n      dup2\n        /* \"#utility.yul\":17064:17068   */\n      dup2\n        /* \"#utility.yul\":17060:17080   */\n      sub\n        /* \"#utility.yul\":17056:17057   */\n      0x00\n        /* \"#utility.yul\":17045:17054   */\n      dup4\n        /* \"#utility.yul\":17041:17058   */\n      add\n        /* \"#utility.yul\":17034:17081   */\n      mstore\n        /* \"#utility.yul\":17098:17229   */\n      tag_599\n        /* \"#utility.yul\":17224:17228   */\n      dup2\n        /* \"#utility.yul\":17098:17229   */\n      tag_501\n      jump\t// in\n    tag_599:\n        /* \"#utility.yul\":17090:17229   */\n      swap1\n      pop\n        /* \"#utility.yul\":16988:17236   */\n      swap2\n      swap1\n      pop\n      jump\t// out\n        /* \"#utility.yul\":17242:17661   */\n    tag_221:\n        /* \"#utility.yul\":17408:17412   */\n      0x00\n        /* \"#utility.yul\":17446:17448   */\n      0x20\n        /* \"#utility.yul\":17435:17444   */\n      dup3\n        /* \"#utility.yul\":17431:17449   */\n      add\n        /* \"#utility.yul\":17423:17449   */\n      swap1\n      pop\n        /* \"#utility.yul\":17495:17504   */\n      dup2\n        /* \"#utility.yul\":17489:17493   */\n      dup2\n        /* \"#utility.yul\":17485:17505   */\n      sub\n        /* \"#utility.yul\":17481:17482   */\n      0x00\n        /* \"#utility.yul\":17470:17479   */\n      dup4\n        /* \"#utility.yul\":17466:17483   */\n      add\n        /* \"#utility.yul\":17459:17506   */\n      mstore\n        /* \"#utility.yul\":17523:17654   */\n      tag_601\n        /* \"#utility.yul\":17649:17653   */\n      dup2\n        /* \"#utility.yul\":17523:17654   */\n      tag_506\n      jump\t// in\n    tag_601:\n        /* \"#utility.yul\":17515:17654   */\n      swap1\n      pop\n        /* \"#utility.yul\":17413:17661   */\n      swap2\n      swap1\n      pop\n      jump\t// out\n        /* \"#utility.yul\":17667:18086   */\n    tag_332:\n        /* \"#utility.yul\":17833:17837   */\n      0x00\n        /* \"#utility.yul\":17871:17873   */\n      0x20\n        /* \"#utility.yul\":17860:17869   */\n      dup3\n        /* \"#utility.yul\":17856:17874   */\n      add\n        /* \"#utility.yul\":17848:17874   */\n      swap1\n      pop\n        /* \"#utility.yul\":17920:17929   */\n      dup2\n        /* \"#utility.yul\":17914:17918   */\n      dup2\n        /* \"#utility.yul\":17910:17930   */\n      sub\n        /* \"#utility.yul\":17906:17907   */\n      0x00\n        /* \"#utility.yul\":17895:17904   */\n      dup4\n        /* \"#utility.yul\":17891:17908   */\n      add\n        /* \"#utility.yul\":17884:17931   */\n      mstore\n        /* \"#utility.yul\":17948:18079   */\n      tag_603\n        /* \"#utility.yul\":18074:18078   */\n      dup2\n        /* \"#utility.yul\":17948:18079   */\n      tag_511\n      jump\t// in\n    tag_603:\n        /* \"#utility.yul\":17940:18079   */\n      swap1\n      pop\n        /* \"#utility.yul\":17838:18086   */\n      swap2\n      swap1\n      pop\n      jump\t// out\n        /* \"#utility.yul\":18092:18511   */\n    tag_181:\n        /* \"#utility.yul\":18258:18262   */\n      0x00\n        /* \"#utility.yul\":18296:18298   */\n      0x20\n        /* \"#utility.yul\":18285:18294   */\n      dup3\n        /* \"#utility.yul\":18281:18299   */\n      add\n        /* \"#utility.yul\":18273:18299   */\n      swap1\n      pop\n        /* \"#utility.yul\":18345:18354   */\n      dup2\n        /* \"#utility.yul\":18339:18343   */\n      dup2\n        /* \"#utility.yul\":18335:18355   */\n      sub\n        /* \"#utility.yul\":18331:18332   */\n      0x00\n        /* \"#utility.yul\":18320:18329   */\n      dup4\n        /* \"#utility.yul\":18316:18333   */\n      add\n        /* \"#utility.yul\":18309:18356   */\n      mstore\n        /* \"#utility.yul\":18373:18504   */\n      tag_605\n        /* \"#utility.yul\":18499:18503   */\n      dup2\n        /* \"#utility.yul\":18373:18504   */\n      tag_516\n      jump\t// in\n    tag_605:\n        /* \"#utility.yul\":18365:18504   */\n      swap1\n      pop\n        /* \"#utility.yul\":18263:18511   */\n      swap2\n      swap1\n      pop\n      jump\t// out\n        /* \"#utility.yul\":18517:18936   */\n    tag_256:\n        /* \"#utility.yul\":18683:18687   */\n      0x00\n        /* \"#utility.yul\":18721:18723   */\n      0x20\n        /* \"#utility.yul\":18710:18719   */\n      dup3\n        /* \"#utility.yul\":18706:18724   */\n      add\n        /* \"#utility.yul\":18698:18724   */\n      swap1\n      pop\n        /* \"#utility.yul\":18770:18779   */\n      dup2\n        /* \"#utility.yul\":18764:18768   */\n      dup2\n        /* \"#utility.yul\":18760:18780   */\n      sub\n        /* \"#utility.yul\":18756:18757   */\n      0x00\n        /* \"#utility.yul\":18745:18754   */\n      dup4\n        /* \"#utility.yul\":18741:18758   */\n      add\n        /* \"#utility.yul\":18734:18781   */\n      mstore\n        /* \"#utility.yul\":18798:18929   */\n      tag_607\n        /* \"#utility.yul\":18924:18928   */\n      dup2\n        /* \"#utility.yul\":18798:18929   */\n      tag_521\n      jump\t// in\n    tag_607:\n        /* \"#utility.yul\":18790:18929   */\n      swap1\n      pop\n        /* \"#utility.yul\":18688:18936   */\n      swap2\n      swap1\n      pop\n      jump\t// out\n        /* \"#utility.yul\":18942:19361   */\n    tag_314:\n        /* \"#utility.yul\":19108:19112   */\n      0x00\n        /* \"#utility.yul\":19146:19148   */\n      0x20\n        /* \"#utility.yul\":19135:19144   */\n      dup3\n        /* \"#utility.yul\":19131:19149   */\n      add\n        /* \"#utility.yul\":19123:19149   */\n      swap1\n      pop\n        /* \"#utility.yul\":19195:19204   */\n      dup2\n        /* \"#utility.yul\":19189:19193   */\n      dup2\n        /* \"#utility.yul\":19185:19205   */\n      sub\n        /* \"#utility.yul\":19181:19182   */\n      0x00\n        /* \"#utility.yul\":19170:19179   */\n      dup4\n        /* \"#utility.yul\":19166:19183   */\n      add\n        /* \"#utility.yul\":19159:19206   */\n      mstore\n        /* \"#utility.yul\":19223:19354   */\n      tag_609\n        /* \"#utility.yul\":19349:19353   */\n      dup2\n        /* \"#utility.yul\":19223:19354   */\n      tag_526\n      jump\t// in\n    tag_609:\n        /* \"#utility.yul\":19215:19354   */\n      swap1\n      pop\n        /* \"#utility.yul\":19113:19361   */\n      swap2\n      swap1\n      pop\n      jump\t// out\n        /* \"#utility.yul\":19367:19786   */\n    tag_291:\n        /* \"#utility.yul\":19533:19537   */\n      0x00\n        /* \"#utility.yul\":19571:19573   */\n      0x20\n        /* \"#utility.yul\":19560:19569   */\n      dup3\n        /* \"#utility.yul\":19556:19574   */\n      add\n        /* \"#utility.yul\":19548:19574   */\n      swap1\n      pop\n        /* \"#utility.yul\":19620:19629   */\n      dup2\n        /* \"#utility.yul\":19614:19618   */\n      dup2\n        /* \"#utility.yul\":19610:19630   */\n      sub\n        /* \"#utility.yul\":19606:19607   */\n      0x00\n        /* \"#utility.yul\":19595:19604   */\n      dup4\n        /* \"#utility.yul\":19591:19608   */\n      add\n        /* \"#utility.yul\":19584:19631   */\n      mstore\n        /* \"#utility.yul\":19648:19779   */\n      tag_611\n        /* \"#utility.yul\":19774:19778   */\n      dup2\n        /* \"#utility.yul\":19648:19779   */\n      tag_531\n      jump\t// in\n    tag_611:\n        /* \"#utility.yul\":19640:19779   */\n      swap1\n      pop\n        /* \"#utility.yul\":19538:19786   */\n      swap2\n      swap1\n      pop\n      jump\t// out\n        /* \"#utility.yul\":19792:20211   */\n    tag_335:\n        /* \"#utility.yul\":19958:19962   */\n      0x00\n        /* \"#utility.yul\":19996:19998   */\n      0x20\n        /* \"#utility.yul\":19985:19994   */\n      dup3\n        /* \"#utility.yul\":19981:19999   */\n      add\n        /* \"#utility.yul\":19973:19999   */\n      swap1\n      pop\n        /* \"#utility.yul\":20045:20054   */\n      dup2\n        /* \"#utility.yul\":20039:20043   */\n      dup2\n        /* \"#utility.yul\":20035:20055   */\n      sub\n        /* \"#utility.yul\":20031:20032   */\n      0x00\n        /* \"#utility.yul\":20020:20029   */\n      dup4\n        /* \"#utility.yul\":20016:20033   */\n      add\n        /* \"#utility.yul\":20009:20056   */\n      mstore\n        /* \"#utility.yul\":20073:20204   */\n      tag_613\n        /* \"#utility.yul\":20199:20203   */\n      dup2\n        /* \"#utility.yul\":20073:20204   */\n      tag_536\n      jump\t// in\n    tag_613:\n        /* \"#utility.yul\":20065:20204   */\n      swap1\n      pop\n        /* \"#utility.yul\":19963:20211   */\n      swap2\n      swap1\n      pop\n      jump\t// out\n        /* \"#utility.yul\":20217:20636   */\n    tag_280:\n        /* \"#utility.yul\":20383:20387   */\n      0x00\n        /* \"#utility.yul\":20421:20423   */\n      0x20\n        /* \"#utility.yul\":20410:20419   */\n      dup3\n        /* \"#utility.yul\":20406:20424   */\n      add\n        /* \"#utility.yul\":20398:20424   */\n      swap1\n      pop\n        /* \"#utility.yul\":20470:20479   */\n      dup2\n        /* \"#utility.yul\":20464:20468   */\n      dup2\n        /* \"#utility.yul\":20460:20480   */\n      sub\n        /* \"#utility.yul\":20456:20457   */\n      0x00\n        /* \"#utility.yul\":20445:20454   */\n      dup4\n        /* \"#utility.yul\":20441:20458   */\n      add\n        /* \"#utility.yul\":20434:20481   */\n      mstore\n        /* \"#utility.yul\":20498:20629   */\n      tag_615\n        /* \"#utility.yul\":20624:20628   */\n      dup2\n        /* \"#utility.yul\":20498:20629   */\n      tag_547\n      jump\t// in\n    tag_615:\n        /* \"#utility.yul\":20490:20629   */\n      swap1\n      pop\n        /* \"#utility.yul\":20388:20636   */\n      swap2\n      swap1\n      pop\n      jump\t// out\n        /* \"#utility.yul\":20642:21061   */\n    tag_232:\n        /* \"#utility.yul\":20808:20812   */\n      0x00\n        /* \"#utility.yul\":20846:20848   */\n      0x20\n        /* \"#utility.yul\":20835:20844   */\n      dup3\n        /* \"#utility.yul\":20831:20849   */\n      add\n        /* \"#utility.yul\":20823:20849   */\n      swap1\n      pop\n        /* \"#utility.yul\":20895:20904   */\n      dup2\n        /* \"#utility.yul\":20889:20893   */\n      dup2\n        /* \"#utility.yul\":20885:20905   */\n      sub\n        /* \"#utility.yul\":20881:20882   */\n      0x00\n        /* \"#utility.yul\":20870:20879   */\n      dup4\n        /* \"#utility.yul\":20866:20883   */\n      add\n        /* \"#utility.yul\":20859:20906   */\n      mstore\n        /* \"#utility.yul\":20923:21054   */\n      tag_617\n        /* \"#utility.yul\":21049:21053   */\n      dup2\n        /* \"#utility.yul\":20923:21054   */\n      tag_552\n      jump\t// in\n    tag_617:\n        /* \"#utility.yul\":20915:21054   */\n      swap1\n      pop\n        /* \"#utility.yul\":20813:21061   */\n      swap2\n      swap1\n      pop\n      jump\t// out\n        /* \"#utility.yul\":21067:21486   */\n    tag_346:\n        /* \"#utility.yul\":21233:21237   */\n      0x00\n        /* \"#utility.yul\":21271:21273   */\n      0x20\n        /* \"#utility.yul\":21260:21269   */\n      dup3\n        /* \"#utility.yul\":21256:21274   */\n      add\n        /* \"#utility.yul\":21248:21274   */\n      swap1\n      pop\n        /* \"#utility.yul\":21320:21329   */\n      dup2\n        /* \"#utility.yul\":21314:21318   */\n      dup2\n        /* \"#utility.yul\":21310:21330   */\n      sub\n        /* \"#utility.yul\":21306:21307   */\n      0x00\n        /* \"#utility.yul\":21295:21304   */\n      dup4\n        /* \"#utility.yul\":21291:21308   */\n      add\n        /* \"#utility.yul\":21284:21331   */\n      mstore\n        /* \"#utility.yul\":21348:21479   */\n      tag_619\n        /* \"#utility.yul\":21474:21478   */\n      dup2\n        /* \"#utility.yul\":21348:21479   */\n      tag_557\n      jump\t// in\n    tag_619:\n        /* \"#utility.yul\":21340:21479   */\n      swap1\n      pop\n        /* \"#utility.yul\":21238:21486   */\n      swap2\n      swap1\n      pop\n      jump\t// out\n        /* \"#utility.yul\":21492:21911   */\n    tag_227:\n        /* \"#utility.yul\":21658:21662   */\n      0x00\n        /* \"#utility.yul\":21696:21698   */\n      0x20\n        /* \"#utility.yul\":21685:21694   */\n      dup3\n        /* \"#utility.yul\":21681:21699   */\n      add\n        /* \"#utility.yul\":21673:21699   */\n      swap1\n      pop\n        /* \"#utility.yul\":21745:21754   */\n      dup2\n        /* \"#utility.yul\":21739:21743   */\n      dup2\n        /* \"#utility.yul\":21735:21755   */\n      sub\n        /* \"#utility.yul\":21731:21732   */\n      0x00\n        /* \"#utility.yul\":21720:21729   */\n      dup4\n        /* \"#utility.yul\":21716:21733   */\n      add\n        /* \"#utility.yul\":21709:21756   */\n      mstore\n        /* \"#utility.yul\":21773:21904   */\n      tag_621\n        /* \"#utility.yul\":21899:21903   */\n      dup2\n        /* \"#utility.yul\":21773:21904   */\n      tag_562\n      jump\t// in\n    tag_621:\n        /* \"#utility.yul\":21765:21904   */\n      swap1\n      pop\n        /* \"#utility.yul\":21663:21911   */\n      swap2\n      swap1\n      pop\n      jump\t// out\n        /* \"#utility.yul\":21917:22336   */\n    tag_322:\n        /* \"#utility.yul\":22083:22087   */\n      0x00\n        /* \"#utility.yul\":22121:22123   */\n      0x20\n        /* \"#utility.yul\":22110:22119   */\n      dup3\n        /* \"#utility.yul\":22106:22124   */\n      add\n        /* \"#utility.yul\":22098:22124   */\n      swap1\n      pop\n        /* \"#utility.yul\":22170:22179   */\n      dup2\n        /* \"#utility.yul\":22164:22168   */\n      dup2\n        /* \"#utility.yul\":22160:22180   */\n      sub\n        /* \"#utility.yul\":22156:22157   */\n      0x00\n        /* \"#utility.yul\":22145:22154   */\n      dup4\n        /* \"#utility.yul\":22141:22158   */\n      add\n        /* \"#utility.yul\":22134:22181   */\n      mstore\n        /* \"#utility.yul\":22198:22329   */\n      tag_623\n        /* \"#utility.yul\":22324:22328   */\n      dup2\n        /* \"#utility.yul\":22198:22329   */\n      tag_567\n      jump\t// in\n    tag_623:\n        /* \"#utility.yul\":22190:22329   */\n      swap1\n      pop\n        /* \"#utility.yul\":22088:22336   */\n      swap2\n      swap1\n      pop\n      jump\t// out\n        /* \"#utility.yul\":22342:22564   */\n    tag_70:\n        /* \"#utility.yul\":22435:22439   */\n      0x00\n        /* \"#utility.yul\":22473:22475   */\n      0x20\n        /* \"#utility.yul\":22462:22471   */\n      dup3\n        /* \"#utility.yul\":22458:22476   */\n      add\n        /* \"#utility.yul\":22450:22476   */\n      swap1\n      pop\n        /* \"#utility.yul\":22486:22557   */\n      tag_625\n        /* \"#utility.yul\":22554:22555   */\n      0x00\n        /* \"#utility.yul\":22543:22552   */\n      dup4\n        /* \"#utility.yul\":22539:22556   */\n      add\n        /* \"#utility.yul\":22530:22536   */\n      dup5\n        /* \"#utility.yul\":22486:22557   */\n      tag_572\n      jump\t// in\n    tag_625:\n        /* \"#utility.yul\":22440:22564   */\n      swap3\n      swap2\n      pop\n      pop\n      jump\t// out\n        /* \"#utility.yul\":22570:22699   */\n    tag_384:\n        /* \"#utility.yul\":22604:22610   */\n      0x00\n        /* \"#utility.yul\":22631:22651   */\n      tag_627\n      tag_628\n      jump\t// in\n    tag_627:\n        /* \"#utility.yul\":22621:22651   */\n      swap1\n      pop\n        /* \"#utility.yul\":22660:22693   */\n      tag_629\n        /* \"#utility.yul\":22688:22692   */\n      dup3\n        /* \"#utility.yul\":22680:22686   */\n      dup3\n        /* \"#utility.yul\":22660:22693   */\n      tag_630\n      jump\t// in\n    tag_629:\n        /* \"#utility.yul\":22611:22699   */\n      swap2\n      swap1\n      pop\n      jump\t// out\n        /* \"#utility.yul\":22705:22780   */\n    tag_628:\n        /* \"#utility.yul\":22738:22744   */\n      0x00\n        /* \"#utility.yul\":22771:22773   */\n      0x40\n        /* \"#utility.yul\":22765:22774   */\n      mload\n        /* \"#utility.yul\":22755:22774   */\n      swap1\n      pop\n        /* \"#utility.yul\":22745:22780   */\n      swap1\n      jump\t// out\n        /* \"#utility.yul\":22786:23093   */\n    tag_383:\n        /* \"#utility.yul\":22847:22851   */\n      0x00\n        /* \"#utility.yul\":22937:22955   */\n      0xffffffffffffffff\n        /* \"#utility.yul\":22929:22935   */\n      dup3\n        /* \"#utility.yul\":22926:22956   */\n      gt\n        /* \"#utility.yul\":22923:22925   */\n      iszero\n      tag_633\n      jumpi\n        /* \"#utility.yul\":22959:22977   */\n      tag_634\n      tag_635\n      jump\t// in\n    tag_634:\n        /* \"#utility.yul\":22923:22925   */\n    tag_633:\n        /* \"#utility.yul\":22997:23026   */\n      tag_636\n        /* \"#utility.yul\":23019:23025   */\n      dup3\n        /* \"#utility.yul\":22997:23026   */\n      tag_471\n      jump\t// in\n    tag_636:\n        /* \"#utility.yul\":22989:23026   */\n      swap1\n      pop\n        /* \"#utility.yul\":23081:23085   */\n      0x20\n        /* \"#utility.yul\":23075:23079   */\n      dup2\n        /* \"#utility.yul\":23071:23086   */\n      add\n        /* \"#utility.yul\":23063:23086   */\n      swap1\n      pop\n        /* \"#utility.yul\":22852:23093   */\n      swap2\n      swap1\n      pop\n      jump\t// out\n        /* \"#utility.yul\":23099:23197   */\n    tag_465:\n        /* \"#utility.yul\":23150:23156   */\n      0x00\n        /* \"#utility.yul\":23184:23189   */\n      dup2\n        /* \"#utility.yul\":23178:23190   */\n      mload\n        /* \"#utility.yul\":23168:23190   */\n      swap1\n      pop\n        /* \"#utility.yul\":23157:23197   */\n      swap2\n      swap1\n      pop\n      jump\t// out\n        /* \"#utility.yul\":23203:23302   */\n    tag_475:\n        /* \"#utility.yul\":23255:23261   */\n      0x00\n        /* \"#utility.yul\":23289:23294   */\n      dup2\n        /* \"#utility.yul\":23283:23295   */\n      mload\n        /* \"#utility.yul\":23273:23295   */\n      swap1\n      pop\n        /* \"#utility.yul\":23262:23302   */\n      swap2\n      swap1\n      pop\n      jump\t// out\n        /* \"#utility.yul\":23308:23476   */\n    tag_467:\n        /* \"#utility.yul\":23391:23402   */\n      0x00\n        /* \"#utility.yul\":23425:23431   */\n      dup3\n        /* \"#utility.yul\":23420:23423   */\n      dup3\n        /* \"#utility.yul\":23413:23432   */\n      mstore\n        /* \"#utility.yul\":23465:23469   */\n      0x20\n        /* \"#utility.yul\":23460:23463   */\n      dup3\n        /* \"#utility.yul\":23456:23470   */\n      add\n        /* \"#utility.yul\":23441:23470   */\n      swap1\n      pop\n        /* \"#utility.yul\":23403:23476   */\n      swap3\n      swap2\n      pop\n      pop\n      jump\t// out\n        /* \"#utility.yul\":23482:23629   */\n    tag_544:\n        /* \"#utility.yul\":23583:23594   */\n      0x00\n        /* \"#utility.yul\":23620:23623   */\n      dup2\n        /* \"#utility.yul\":23605:23623   */\n      swap1\n      pop\n        /* \"#utility.yul\":23595:23629   */\n      swap3\n      swap2\n      pop\n      pop\n      jump\t// out\n        /* \"#utility.yul\":23635:23804   */\n    tag_477:\n        /* \"#utility.yul\":23719:23730   */\n      0x00\n        /* \"#utility.yul\":23753:23759   */\n      dup3\n        /* \"#utility.yul\":23748:23751   */\n      dup3\n        /* \"#utility.yul\":23741:23760   */\n      mstore\n        /* \"#utility.yul\":23793:23797   */\n      0x20\n        /* \"#utility.yul\":23788:23791   */\n      dup3\n        /* \"#utility.yul\":23784:23798   */\n      add\n        /* \"#utility.yul\":23769:23798   */\n      swap1\n      pop\n        /* \"#utility.yul\":23731:23804   */\n      swap3\n      swap2\n      pop\n      pop\n      jump\t// out\n        /* \"#utility.yul\":23810:23958   */\n    tag_484:\n        /* \"#utility.yul\":23912:23923   */\n      0x00\n        /* \"#utility.yul\":23949:23952   */\n      dup2\n        /* \"#utility.yul\":23934:23952   */\n      swap1\n      pop\n        /* \"#utility.yul\":23924:23958   */\n      swap3\n      swap2\n      pop\n      pop\n      jump\t// out\n        /* \"#utility.yul\":23964:24269   */\n    tag_224:\n        /* \"#utility.yul\":24004:24007   */\n      0x00\n        /* \"#utility.yul\":24023:24043   */\n      tag_644\n        /* \"#utility.yul\":24041:24042   */\n      dup3\n        /* \"#utility.yul\":24023:24043   */\n      tag_575\n      jump\t// in\n    tag_644:\n        /* \"#utility.yul\":24018:24043   */\n      swap2\n      pop\n        /* \"#utility.yul\":24057:24077   */\n      tag_645\n        /* \"#utility.yul\":24075:24076   */\n      dup4\n        /* \"#utility.yul\":24057:24077   */\n      tag_575\n      jump\t// in\n    tag_645:\n        /* \"#utility.yul\":24052:24077   */\n      swap3\n      pop\n        /* \"#utility.yul\":24211:24212   */\n      dup3\n        /* \"#utility.yul\":24143:24209   */\n      0xffffffffffffffffffffffffffffffffffffffffffffffffffffffffffffffff\n        /* \"#utility.yul\":24139:24213   */\n      sub\n        /* \"#utility.yul\":24136:24137   */\n      dup3\n        /* \"#utility.yul\":24133:24214   */\n      gt\n        /* \"#utility.yul\":24130:24132   */\n      iszero\n      tag_646\n      jumpi\n        /* \"#utility.yul\":24217:24235   */\n      tag_647\n      tag_648\n      jump\t// in\n    tag_647:\n        /* \"#utility.yul\":24130:24132   */\n    tag_646:\n        /* \"#utility.yul\":24261:24262   */\n      dup3\n        /* \"#utility.yul\":24258:24259   */\n      dup3\n        /* \"#utility.yul\":24254:24263   */\n      add\n        /* \"#utility.yul\":24247:24263   */\n      swap1\n      pop\n        /* \"#utility.yul\":24008:24269   */\n      swap3\n      swap2\n      pop\n      pop\n      jump\t// out\n        /* \"#utility.yul\":24275:24460   */\n    tag_210:\n        /* \"#utility.yul\":24315:24316   */\n      0x00\n        /* \"#utility.yul\":24332:24352   */\n      tag_650\n        /* \"#utility.yul\":24350:24351   */\n      dup3\n        /* \"#utility.yul\":24332:24352   */\n      tag_575\n      jump\t// in\n    tag_650:\n        /* \"#utility.yul\":24327:24352   */\n      swap2\n      pop\n        /* \"#utility.yul\":24366:24386   */\n      tag_651\n        /* \"#utility.yul\":24384:24385   */\n      dup4\n        /* \"#utility.yul\":24366:24386   */\n      tag_575\n      jump\t// in\n    tag_651:\n        /* \"#utility.yul\":24361:24386   */\n      swap3\n      pop\n        /* \"#utility.yul\":24405:24406   */\n      dup3\n        /* \"#utility.yul\":24395:24397   */\n      tag_652\n      jumpi\n        /* \"#utility.yul\":24410:24428   */\n      tag_653\n      tag_654\n      jump\t// in\n    tag_653:\n        /* \"#utility.yul\":24395:24397   */\n    tag_652:\n        /* \"#utility.yul\":24452:24453   */\n      dup3\n        /* \"#utility.yul\":24449:24450   */\n      dup3\n        /* \"#utility.yul\":24445:24454   */\n      div\n        /* \"#utility.yul\":24440:24454   */\n      swap1\n      pop\n        /* \"#utility.yul\":24317:24460   */\n      swap3\n      swap2\n      pop\n      pop\n      jump\t// out\n        /* \"#utility.yul\":24466:24814   */\n    tag_215:\n        /* \"#utility.yul\":24506:24513   */\n      0x00\n        /* \"#utility.yul\":24529:24549   */\n      tag_656\n        /* \"#utility.yul\":24547:24548   */\n      dup3\n        /* \"#utility.yul\":24529:24549   */\n      tag_575\n      jump\t// in\n    tag_656:\n        /* \"#utility.yul\":24524:24549   */\n      swap2\n      pop\n        /* \"#utility.yul\":24563:24583   */\n      tag_657\n        /* \"#utility.yul\":24581:24582   */\n      dup4\n        /* \"#utility.yul\":24563:24583   */\n      tag_575\n      jump\t// in\n    tag_657:\n        /* \"#utility.yul\":24558:24583   */\n      swap3\n      pop\n        /* \"#utility.yul\":24751:24752   */\n      dup2\n        /* \"#utility.yul\":24683:24749   */\n      0xffffffffffffffffffffffffffffffffffffffffffffffffffffffffffffffff\n        /* \"#utility.yul\":24679:24753   */\n      div\n        /* \"#utility.yul\":24676:24677   */\n      dup4\n        /* \"#utility.yul\":24673:24754   */\n      gt\n        /* \"#utility.yul\":24668:24669   */\n      dup3\n        /* \"#utility.yul\":24661:24670   */\n      iszero\n        /* \"#utility.yul\":24654:24671   */\n      iszero\n        /* \"#utility.yul\":24650:24755   */\n      and\n        /* \"#utility.yul\":24647:24649   */\n      iszero\n      tag_658\n      jumpi\n        /* \"#utility.yul\":24758:24776   */\n      tag_659\n      tag_648\n      jump\t// in\n    tag_659:\n        /* \"#utility.yul\":24647:24649   */\n    tag_658:\n        /* \"#utility.yul\":24806:24807   */\n      dup3\n        /* \"#utility.yul\":24803:24804   */\n      dup3\n        /* \"#utility.yul\":24799:24808   */\n      mul\n        /* \"#utility.yul\":24788:24808   */\n      swap1\n      pop\n        /* \"#utility.yul\":24514:24814   */\n      swap3\n      swap2\n      pop\n      pop\n      jump\t// out\n        /* \"#utility.yul\":24820:25011   */\n    tag_205:\n        /* \"#utility.yul\":24860:24864   */\n      0x00\n        /* \"#utility.yul\":24880:24900   */\n      tag_661\n        /* \"#utility.yul\":24898:24899   */\n      dup3\n        /* \"#utility.yul\":24880:24900   */\n      tag_575\n      jump\t// in\n    tag_661:\n        /* \"#utility.yul\":24875:24900   */\n      swap2\n      pop\n        /* \"#utility.yul\":24914:24934   */\n      tag_662\n        /* \"#utility.yul\":24932:24933   */\n      dup4\n        /* \"#utility.yul\":24914:24934   */\n      tag_575\n      jump\t// in\n    tag_662:\n        /* \"#utility.yul\":24909:24934   */\n      swap3\n      pop\n        /* \"#utility.yul\":24953:24954   */\n      dup3\n        /* \"#utility.yul\":24950:24951   */\n      dup3\n        /* \"#utility.yul\":24947:24955   */\n      lt\n        /* \"#utility.yul\":24944:24946   */\n      iszero\n      tag_663\n      jumpi\n        /* \"#utility.yul\":24958:24976   */\n      tag_664\n      tag_648\n      jump\t// in\n    tag_664:\n        /* \"#utility.yul\":24944:24946   */\n    tag_663:\n        /* \"#utility.yul\":25003:25004   */\n      dup3\n        /* \"#utility.yul\":25000:25001   */\n      dup3\n        /* \"#utility.yul\":24996:25005   */\n      sub\n        /* \"#utility.yul\":24988:25005   */\n      swap1\n      pop\n        /* \"#utility.yul\":24865:25011   */\n      swap3\n      swap2\n      pop\n      pop\n      jump\t// out\n        /* \"#utility.yul\":25017:25113   */\n    tag_457:\n        /* \"#utility.yul\":25054:25061   */\n      0x00\n        /* \"#utility.yul\":25083:25107   */\n      tag_666\n        /* \"#utility.yul\":25101:25106   */\n      dup3\n        /* \"#utility.yul\":25083:25107   */\n      tag_667\n      jump\t// in\n    tag_666:\n        /* \"#utility.yul\":25072:25107   */\n      swap1\n      pop\n        /* \"#utility.yul\":25062:25113   */\n      swap2\n      swap1\n      pop\n      jump\t// out\n        /* \"#utility.yul\":25119:25209   */\n    tag_461:\n        /* \"#utility.yul\":25153:25160   */\n      0x00\n        /* \"#utility.yul\":25196:25201   */\n      dup2\n        /* \"#utility.yul\":25189:25202   */\n      iszero\n        /* \"#utility.yul\":25182:25203   */\n      iszero\n        /* \"#utility.yul\":25171:25203   */\n      swap1\n      pop\n        /* \"#utility.yul\":25161:25209   */\n      swap2\n      swap1\n      pop\n      jump\t// out\n        /* \"#utility.yul\":25215:25364   */\n    tag_669:\n        /* \"#utility.yul\":25251:25258   */\n      0x00\n        /* \"#utility.yul\":25291:25357   */\n      0xffffffff00000000000000000000000000000000000000000000000000000000\n        /* \"#utility.yul\":25284:25289   */\n      dup3\n        /* \"#utility.yul\":25280:25358   */\n      and\n        /* \"#utility.yul\":25269:25358   */\n      swap1\n      pop\n        /* \"#utility.yul\":25259:25364   */\n      swap2\n      swap1\n      pop\n      jump\t// out\n        /* \"#utility.yul\":25370:25496   */\n    tag_667:\n        /* \"#utility.yul\":25407:25414   */\n      0x00\n        /* \"#utility.yul\":25447:25489   */\n      0xffffffffffffffffffffffffffffffffffffffff\n        /* \"#utility.yul\":25440:25445   */\n      dup3\n        /* \"#utility.yul\":25436:25490   */\n      and\n        /* \"#utility.yul\":25425:25490   */\n      swap1\n      pop\n        /* \"#utility.yul\":25415:25496   */\n      swap2\n      swap1\n      pop\n      jump\t// out\n        /* \"#utility.yul\":25502:25579   */\n    tag_575:\n        /* \"#utility.yul\":25539:25546   */\n      0x00\n        /* \"#utility.yul\":25568:25573   */\n      dup2\n        /* \"#utility.yul\":25557:25573   */\n      swap1\n      pop\n        /* \"#utility.yul\":25547:25579   */\n      swap2\n      swap1\n      pop\n      jump\t// out\n        /* \"#utility.yul\":25585:25678   */\n    tag_673:\n        /* \"#utility.yul\":25621:25628   */\n      0x00\n        /* \"#utility.yul\":25661:25671   */\n      0xffffffff\n        /* \"#utility.yul\":25654:25659   */\n      dup3\n        /* \"#utility.yul\":25650:25672   */\n      and\n        /* \"#utility.yul\":25639:25672   */\n      swap1\n      pop\n        /* \"#utility.yul\":25629:25678   */\n      swap2\n      swap1\n      pop\n      jump\t// out\n        /* \"#utility.yul\":25684:25838   */\n    tag_387:\n        /* \"#utility.yul\":25768:25774   */\n      dup3\n        /* \"#utility.yul\":25763:25766   */\n      dup2\n        /* \"#utility.yul\":25758:25761   */\n      dup4\n        /* \"#utility.yul\":25745:25775   */\n      calldatacopy\n        /* \"#utility.yul\":25830:25831   */\n      0x00\n        /* \"#utility.yul\":25821:25827   */\n      dup4\n        /* \"#utility.yul\":25816:25819   */\n      dup4\n        /* \"#utility.yul\":25812:25828   */\n      add\n        /* \"#utility.yul\":25805:25832   */\n      mstore\n        /* \"#utility.yul\":25735:25838   */\n      pop\n      pop\n      pop\n      jump\t// out\n        /* \"#utility.yul\":25844:26151   */\n    tag_469:\n        /* \"#utility.yul\":25912:25913   */\n      0x00\n        /* \"#utility.yul\":25922:26035   */\n    tag_677:\n        /* \"#utility.yul\":25936:25942   */\n      dup4\n        /* \"#utility.yul\":25933:25934   */\n      dup2\n        /* \"#utility.yul\":25930:25943   */\n      lt\n        /* \"#utility.yul\":25922:26035   */\n      iszero\n      tag_679\n      jumpi\n        /* \"#utility.yul\":26021:26022   */\n      dup1\n        /* \"#utility.yul\":26016:26019   */\n      dup3\n        /* \"#utility.yul\":26012:26023   */\n      add\n        /* \"#utility.yul\":26006:26024   */\n      mload\n        /* \"#utility.yul\":26002:26003   */\n      dup2\n        /* \"#utility.yul\":25997:26000   */\n      dup5\n        /* \"#utility.yul\":25993:26004   */\n      add\n        /* \"#utility.yul\":25986:26025   */\n      mstore\n        /* \"#utility.yul\":25958:25960   */\n      0x20\n        /* \"#utility.yul\":25955:25956   */\n      dup2\n        /* \"#utility.yul\":25951:25961   */\n      add\n        /* \"#utility.yul\":25946:25961   */\n      swap1\n      pop\n        /* \"#utility.yul\":25922:26035   */\n      jump(tag_677)\n    tag_679:\n        /* \"#utility.yul\":26053:26059   */\n      dup4\n        /* \"#utility.yul\":26050:26051   */\n      dup2\n        /* \"#utility.yul\":26047:26060   */\n      gt\n        /* \"#utility.yul\":26044:26046   */\n      iszero\n      tag_680\n      jumpi\n        /* \"#utility.yul\":26133:26134   */\n      0x00\n        /* \"#utility.yul\":26124:26130   */\n      dup5\n        /* \"#utility.yul\":26119:26122   */\n      dup5\n        /* \"#utility.yul\":26115:26131   */\n      add\n        /* \"#utility.yul\":26108:26135   */\n      mstore\n        /* \"#utility.yul\":26044:26046   */\n    tag_680:\n        /* \"#utility.yul\":25893:26151   */\n      pop\n      pop\n      pop\n      pop\n      jump\t// out\n        /* \"#utility.yul\":26157:26477   */\n    tag_173:\n        /* \"#utility.yul\":26201:26207   */\n      0x00\n        /* \"#utility.yul\":26238:26239   */\n      0x02\n        /* \"#utility.yul\":26232:26236   */\n      dup3\n        /* \"#utility.yul\":26228:26240   */\n      div\n        /* \"#utility.yul\":26218:26240   */\n      swap1\n      pop\n        /* \"#utility.yul\":26285:26286   */\n      0x01\n        /* \"#utility.yul\":26279:26283   */\n      dup3\n        /* \"#utility.yul\":26275:26287   */\n      and\n        /* \"#utility.yul\":26306:26324   */\n      dup1\n        /* \"#utility.yul\":26296:26298   */\n      tag_682\n      jumpi\n        /* \"#utility.yul\":26362:26366   */\n      0x7f\n        /* \"#utility.yul\":26354:26360   */\n      dup3\n        /* \"#utility.yul\":26350:26367   */\n      and\n        /* \"#utility.yul\":26340:26367   */\n      swap2\n      pop\n        /* \"#utility.yul\":26296:26298   */\n    tag_682:\n        /* \"#utility.yul\":26424:26426   */\n      0x20\n        /* \"#utility.yul\":26416:26422   */\n      dup3\n        /* \"#utility.yul\":26413:26427   */\n      lt\n        /* \"#utility.yul\":26393:26411   */\n      dup2\n        /* \"#utility.yul\":26390:26428   */\n      eq\n        /* \"#utility.yul\":26387:26389   */\n      iszero\n      tag_683\n      jumpi\n        /* \"#utility.yul\":26443:26461   */\n      tag_684\n      tag_685\n      jump\t// in\n    tag_684:\n        /* \"#utility.yul\":26387:26389   */\n    tag_683:\n        /* \"#utility.yul\":26208:26477   */\n      pop\n      swap2\n      swap1\n      pop\n      jump\t// out\n        /* \"#utility.yul\":26483:26764   */\n    tag_630:\n        /* \"#utility.yul\":26566:26593   */\n      tag_687\n        /* \"#utility.yul\":26588:26592   */\n      dup3\n        /* \"#utility.yul\":26566:26593   */\n      tag_471\n      jump\t// in\n    tag_687:\n        /* \"#utility.yul\":26558:26564   */\n      dup2\n        /* \"#utility.yul\":26554:26594   */\n      add\n        /* \"#utility.yul\":26696:26702   */\n      dup2\n        /* \"#utility.yul\":26684:26694   */\n      dup2\n        /* \"#utility.yul\":26681:26703   */\n      lt\n        /* \"#utility.yul\":26660:26678   */\n      0xffffffffffffffff\n        /* \"#utility.yul\":26648:26658   */\n      dup3\n        /* \"#utility.yul\":26645:26679   */\n      gt\n        /* \"#utility.yul\":26642:26704   */\n      or\n        /* \"#utility.yul\":26639:26641   */\n      iszero\n      tag_688\n      jumpi\n        /* \"#utility.yul\":26707:26725   */\n      tag_689\n      tag_635\n      jump\t// in\n    tag_689:\n        /* \"#utility.yul\":26639:26641   */\n    tag_688:\n        /* \"#utility.yul\":26747:26757   */\n      dup1\n        /* \"#utility.yul\":26743:26745   */\n      0x40\n        /* \"#utility.yul\":26736:26758   */\n      mstore\n        /* \"#utility.yul\":26526:26764   */\n      pop\n      pop\n      pop\n      jump\t// out\n        /* \"#utility.yul\":26770:27003   */\n    tag_242:\n        /* \"#utility.yul\":26809:26812   */\n      0x00\n        /* \"#utility.yul\":26832:26856   */\n      tag_691\n        /* \"#utility.yul\":26850:26855   */\n      dup3\n        /* \"#utility.yul\":26832:26856   */\n      tag_575\n      jump\t// in\n    tag_691:\n        /* \"#utility.yul\":26823:26856   */\n      swap2\n      pop\n        /* \"#utility.yul\":26878:26944   */\n      0xffffffffffffffffffffffffffffffffffffffffffffffffffffffffffffffff\n        /* \"#utility.yul\":26871:26876   */\n      dup3\n        /* \"#utility.yul\":26868:26945   */\n      eq\n        /* \"#utility.yul\":26865:26867   */\n      iszero\n      tag_692\n      jumpi\n        /* \"#utility.yul\":26948:26966   */\n      tag_693\n      tag_648\n      jump\t// in\n    tag_693:\n        /* \"#utility.yul\":26865:26867   */\n    tag_692:\n        /* \"#utility.yul\":26995:26996   */\n      0x01\n        /* \"#utility.yul\":26988:26993   */\n      dup3\n        /* \"#utility.yul\":26984:26997   */\n      add\n        /* \"#utility.yul\":26977:26997   */\n      swap1\n      pop\n        /* \"#utility.yul\":26813:27003   */\n      swap2\n      swap1\n      pop\n      jump\t// out\n        /* \"#utility.yul\":27009:27185   */\n    tag_360:\n        /* \"#utility.yul\":27041:27042   */\n      0x00\n        /* \"#utility.yul\":27058:27078   */\n      tag_695\n        /* \"#utility.yul\":27076:27077   */\n      dup3\n        /* \"#utility.yul\":27058:27078   */\n      tag_575\n      jump\t// in\n    tag_695:\n        /* \"#utility.yul\":27053:27078   */\n      swap2\n      pop\n        /* \"#utility.yul\":27092:27112   */\n      tag_696\n        /* \"#utility.yul\":27110:27111   */\n      dup4\n        /* \"#utility.yul\":27092:27112   */\n      tag_575\n      jump\t// in\n    tag_696:\n        /* \"#utility.yul\":27087:27112   */\n      swap3\n      pop\n        /* \"#utility.yul\":27131:27132   */\n      dup3\n        /* \"#utility.yul\":27121:27123   */\n      tag_697\n      jumpi\n        /* \"#utility.yul\":27136:27154   */\n      tag_698\n      tag_654\n      jump\t// in\n    tag_698:\n        /* \"#utility.yul\":27121:27123   */\n    tag_697:\n        /* \"#utility.yul\":27177:27178   */\n      dup3\n        /* \"#utility.yul\":27174:27175   */\n      dup3\n        /* \"#utility.yul\":27170:27179   */\n      mod\n        /* \"#utility.yul\":27165:27179   */\n      swap1\n      pop\n        /* \"#utility.yul\":27043:27185   */\n      swap3\n      swap2\n      pop\n      pop\n      jump\t// out\n        /* \"#utility.yul\":27191:27371   */\n    tag_648:\n        /* \"#utility.yul\":27239:27316   */\n      0x4e487b7100000000000000000000000000000000000000000000000000000000\n        /* \"#utility.yul\":27236:27237   */\n      0x00\n        /* \"#utility.yul\":27229:27317   */\n      mstore\n        /* \"#utility.yul\":27336:27340   */\n      0x11\n        /* \"#utility.yul\":27333:27334   */\n      0x04\n        /* \"#utility.yul\":27326:27341   */\n      mstore\n        /* \"#utility.yul\":27360:27364   */\n      0x24\n        /* \"#utility.yul\":27357:27358   */\n      0x00\n        /* \"#utility.yul\":27350:27365   */\n      revert\n        /* \"#utility.yul\":27377:27557   */\n    tag_654:\n        /* \"#utility.yul\":27425:27502   */\n      0x4e487b7100000000000000000000000000000000000000000000000000000000\n        /* \"#utility.yul\":27422:27423   */\n      0x00\n        /* \"#utility.yul\":27415:27503   */\n      mstore\n        /* \"#utility.yul\":27522:27526   */\n      0x12\n        /* \"#utility.yul\":27519:27520   */\n      0x04\n        /* \"#utility.yul\":27512:27527   */\n      mstore\n        /* \"#utility.yul\":27546:27550   */\n      0x24\n        /* \"#utility.yul\":27543:27544   */\n      0x00\n        /* \"#utility.yul\":27536:27551   */\n      revert\n        /* \"#utility.yul\":27563:27743   */\n    tag_685:\n        /* \"#utility.yul\":27611:27688   */\n      0x4e487b7100000000000000000000000000000000000000000000000000000000\n        /* \"#utility.yul\":27608:27609   */\n      0x00\n        /* \"#utility.yul\":27601:27689   */\n      mstore\n        /* \"#utility.yul\":27708:27712   */\n      0x22\n        /* \"#utility.yul\":27705:27706   */\n      0x04\n        /* \"#utility.yul\":27698:27713   */\n      mstore\n        /* \"#utility.yul\":27732:27736   */\n      0x24\n        /* \"#utility.yul\":27729:27730   */\n      0x00\n        /* \"#utility.yul\":27722:27737   */\n      revert\n        /* \"#utility.yul\":27749:27929   */\n    tag_635:\n        /* \"#utility.yul\":27797:27874   */\n      0x4e487b7100000000000000000000000000000000000000000000000000000000\n        /* \"#utility.yul\":27794:27795   */\n      0x00\n        /* \"#utility.yul\":27787:27875   */\n      mstore\n        /* \"#utility.yul\":27894:27898   */\n      0x41\n        /* \"#utility.yul\":27891:27892   */\n      0x04\n        /* \"#utility.yul\":27884:27899   */\n      mstore\n        /* \"#utility.yul\":27918:27922   */\n      0x24\n        /* \"#utility.yul\":27915:27916   */\n      0x00\n        /* \"#utility.yul\":27908:27923   */\n      revert\n        /* \"#utility.yul\":27935:28037   */\n    tag_471:\n        /* \"#utility.yul\":27976:27982   */\n      0x00\n        /* \"#utility.yul\":28027:28029   */\n      0x1f\n        /* \"#utility.yul\":28023:28030   */\n      not\n        /* \"#utility.yul\":28018:28020   */\n      0x1f\n        /* \"#utility.yul\":28011:28016   */\n      dup4\n        /* \"#utility.yul\":28007:28021   */\n      add\n        /* \"#utility.yul\":28003:28031   */\n      and\n        /* \"#utility.yul\":27993:28031   */\n      swap1\n      pop\n        /* \"#utility.yul\":27983:28037   */\n      swap2\n      swap1\n      pop\n      jump\t// out\n        /* \"#utility.yul\":28043:28215   */\n    tag_490:\n        /* \"#utility.yul\":28183:28207   */\n      0x6e6f74206f776e6572206e6f7220617070726f76656400000000000000000000\n        /* \"#utility.yul\":28179:28180   */\n      0x00\n        /* \"#utility.yul\":28171:28177   */\n      dup3\n        /* \"#utility.yul\":28167:28181   */\n      add\n        /* \"#utility.yul\":28160:28208   */\n      mstore\n        /* \"#utility.yul\":28149:28215   */\n      pop\n      jump\t// out\n        /* \"#utility.yul\":28221:28446   */\n    tag_495:\n        /* \"#utility.yul\":28361:28395   */\n      0x4f776e61626c653a206e6577206f776e657220697320746865207a65726f2061\n        /* \"#utility.yul\":28357:28358   */\n      0x00\n        /* \"#utility.yul\":28349:28355   */\n      dup3\n        /* \"#utility.yul\":28345:28359   */\n      add\n        /* \"#utility.yul\":28338:28396   */\n      mstore\n        /* \"#utility.yul\":28430:28438   */\n      0x6464726573730000000000000000000000000000000000000000000000000000\n        /* \"#utility.yul\":28425:28427   */\n      0x20\n        /* \"#utility.yul\":28417:28423   */\n      dup3\n        /* \"#utility.yul\":28413:28428   */\n      add\n        /* \"#utility.yul\":28406:28439   */\n      mstore\n        /* \"#utility.yul\":28327:28446   */\n      pop\n      jump\t// out\n        /* \"#utility.yul\":28452:28630   */\n    tag_500:\n        /* \"#utility.yul\":28592:28622   */\n      0x7472616e7366657220746f20746865207a65726f206164647265737300000000\n        /* \"#utility.yul\":28588:28589   */\n      0x00\n        /* \"#utility.yul\":28580:28586   */\n      dup3\n        /* \"#utility.yul\":28576:28590   */\n      add\n        /* \"#utility.yul\":28569:28623   */\n      mstore\n        /* \"#utility.yul\":28558:28630   */\n      pop\n      jump\t// out\n        /* \"#utility.yul\":28636:28816   */\n    tag_505:\n        /* \"#utility.yul\":28776:28808   */\n      0x6e6f74206f776e6572206e6f7220617070726f76656420666f7220616c6c0000\n        /* \"#utility.yul\":28772:28773   */\n      0x00\n        /* \"#utility.yul\":28764:28770   */\n      dup3\n        /* \"#utility.yul\":28760:28774   */\n      add\n        /* \"#utility.yul\":28753:28809   */\n      mstore\n        /* \"#utility.yul\":28742:28816   */\n      pop\n      jump\t// out\n        /* \"#utility.yul\":28822:28996   */\n    tag_510:\n        /* \"#utility.yul\":28962:28988   */\n      0x73616c6520686173206e6f742073746172746564207965740000000000000000\n        /* \"#utility.yul\":28958:28959   */\n      0x00\n        /* \"#utility.yul\":28950:28956   */\n      dup3\n        /* \"#utility.yul\":28946:28960   */\n      add\n        /* \"#utility.yul\":28939:28989   */\n      mstore\n        /* \"#utility.yul\":28928:28996   */\n      pop\n      jump\t// out\n        /* \"#utility.yul\":29002:29172   */\n    tag_515:\n        /* \"#utility.yul\":29142:29164   */\n      0x6d696e7420746f207a65726f2061646472657373000000000000000000000000\n        /* \"#utility.yul\":29138:29139   */\n      0x00\n        /* \"#utility.yul\":29130:29136   */\n      dup3\n        /* \"#utility.yul\":29126:29140   */\n      add\n        /* \"#utility.yul\":29119:29165   */\n      mstore\n        /* \"#utility.yul\":29108:29172   */\n      pop\n      jump\t// out\n        /* \"#utility.yul\":29178:29347   */\n    tag_520:\n        /* \"#utility.yul\":29318:29339   */\n      0x746f6b656e20646f65736e277420657869737400000000000000000000000000\n        /* \"#utility.yul\":29314:29315   */\n      0x00\n        /* \"#utility.yul\":29306:29312   */\n      dup3\n        /* \"#utility.yul\":29302:29316   */\n      add\n        /* \"#utility.yul\":29295:29340   */\n      mstore\n        /* \"#utility.yul\":29284:29347   */\n      pop\n      jump\t// out\n        /* \"#utility.yul\":29353:29523   */\n    tag_525:\n        /* \"#utility.yul\":29493:29515   */\n      0x6f776e6572203d207a65726f2061646472657373000000000000000000000000\n        /* \"#utility.yul\":29489:29490   */\n      0x00\n        /* \"#utility.yul\":29481:29487   */\n      dup3\n        /* \"#utility.yul\":29477:29491   */\n      add\n        /* \"#utility.yul\":29470:29516   */\n      mstore\n        /* \"#utility.yul\":29459:29523   */\n      pop\n      jump\t// out\n        /* \"#utility.yul\":29529:29711   */\n    tag_530:\n        /* \"#utility.yul\":29669:29703   */\n      0x4f776e61626c653a2063616c6c6572206973206e6f7420746865206f776e6572\n        /* \"#utility.yul\":29665:29666   */\n      0x00\n        /* \"#utility.yul\":29657:29663   */\n      dup3\n        /* \"#utility.yul\":29653:29667   */\n      add\n        /* \"#utility.yul\":29646:29704   */\n      mstore\n        /* \"#utility.yul\":29635:29711   */\n      pop\n      jump\t// out\n        /* \"#utility.yul\":29717:29882   */\n    tag_535:\n        /* \"#utility.yul\":29857:29874   */\n      0x546f6b656e204e6f742045786973740000000000000000000000000000000000\n        /* \"#utility.yul\":29853:29854   */\n      0x00\n        /* \"#utility.yul\":29845:29851   */\n      dup3\n        /* \"#utility.yul\":29841:29855   */\n      add\n        /* \"#utility.yul\":29834:29875   */\n      mstore\n        /* \"#utility.yul\":29823:29882   */\n      pop\n      jump\t// out\n        /* \"#utility.yul\":29888:30058   */\n    tag_540:\n        /* \"#utility.yul\":30028:30050   */\n      0x746f6b656e20616c7265616479206d696e746564000000000000000000000000\n        /* \"#utility.yul\":30024:30025   */\n      0x00\n        /* \"#utility.yul\":30016:30022   */\n      dup3\n        /* \"#utility.yul\":30012:30026   */\n      add\n        /* \"#utility.yul\":30005:30051   */\n      mstore\n        /* \"#utility.yul\":29994:30058   */\n      pop\n      jump\t// out\n        /* \"#utility.yul\":30064:30178   */\n    tag_546:\n        /* \"#utility.yul\":30170:30178   */\n      pop\n      jump\t// out\n        /* \"#utility.yul\":30184:30350   */\n    tag_551:\n        /* \"#utility.yul\":30324:30342   */\n      0x5472616e73666572206661696c65642e00000000000000000000000000000000\n        /* \"#utility.yul\":30320:30321   */\n      0x00\n        /* \"#utility.yul\":30312:30318   */\n      dup3\n        /* \"#utility.yul\":30308:30322   */\n      add\n        /* \"#utility.yul\":30301:30343   */\n      mstore\n        /* \"#utility.yul\":30290:30350   */\n      pop\n      jump\t// out\n        /* \"#utility.yul\":30356:30528   */\n    tag_556:\n        /* \"#utility.yul\":30496:30520   */\n      0x4e65656420746f2073656e64206d6f7265204554482e00000000000000000000\n        /* \"#utility.yul\":30492:30493   */\n      0x00\n        /* \"#utility.yul\":30484:30490   */\n      dup3\n        /* \"#utility.yul\":30480:30494   */\n      add\n        /* \"#utility.yul\":30473:30521   */\n      mstore\n        /* \"#utility.yul\":30462:30528   */\n      pop\n      jump\t// out\n        /* \"#utility.yul\":30534:30702   */\n    tag_561:\n        /* \"#utility.yul\":30674:30694   */\n      0x6e6f742045524337323152656365697665720000000000000000000000000000\n        /* \"#utility.yul\":30670:30671   */\n      0x00\n        /* \"#utility.yul\":30662:30668   */\n      dup3\n        /* \"#utility.yul\":30658:30672   */\n      add\n        /* \"#utility.yul\":30651:30695   */\n      mstore\n        /* \"#utility.yul\":30640:30702   */\n      pop\n      jump\t// out\n        /* \"#utility.yul\":30708:31004   */\n    tag_566:\n        /* \"#utility.yul\":30848:30882   */\n      0x6e6f7420656e6f7567682072656d61696e696e6720726573657276656420666f\n        /* \"#utility.yul\":30844:30845   */\n      0x00\n        /* \"#utility.yul\":30836:30842   */\n      dup3\n        /* \"#utility.yul\":30832:30846   */\n      add\n        /* \"#utility.yul\":30825:30883   */\n      mstore\n        /* \"#utility.yul\":30917:30951   */\n      0x722061756374696f6e20746f20737570706f72742064657369726564206d696e\n        /* \"#utility.yul\":30912:30914   */\n      0x20\n        /* \"#utility.yul\":30904:30910   */\n      dup3\n        /* \"#utility.yul\":30900:30915   */\n      add\n        /* \"#utility.yul\":30893:30952   */\n      mstore\n        /* \"#utility.yul\":30986:30996   */\n      0x7420616d6f756e74000000000000000000000000000000000000000000000000\n        /* \"#utility.yul\":30981:30983   */\n      0x40\n        /* \"#utility.yul\":30973:30979   */\n      dup3\n        /* \"#utility.yul\":30969:30984   */\n      add\n        /* \"#utility.yul\":30962:30997   */\n      mstore\n        /* \"#utility.yul\":30814:31004   */\n      pop\n      jump\t// out\n        /* \"#utility.yul\":31010:31169   */\n    tag_571:\n        /* \"#utility.yul\":31150:31161   */\n      0x6e6f74206f776e65720000000000000000000000000000000000000000000000\n        /* \"#utility.yul\":31146:31147   */\n      0x00\n        /* \"#utility.yul\":31138:31144   */\n      dup3\n        /* \"#utility.yul\":31134:31148   */\n      add\n        /* \"#utility.yul\":31127:31162   */\n      mstore\n        /* \"#utility.yul\":31116:31169   */\n      pop\n      jump\t// out\n        /* \"#utility.yul\":31175:31297   */\n    tag_391:\n        /* \"#utility.yul\":31248:31272   */\n      tag_722\n        /* \"#utility.yul\":31266:31271   */\n      dup2\n        /* \"#utility.yul\":31248:31272   */\n      tag_457\n      jump\t// in\n    tag_722:\n        /* \"#utility.yul\":31241:31246   */\n      dup2\n        /* \"#utility.yul\":31238:31273   */\n      eq\n        /* \"#utility.yul\":31228:31230   */\n      tag_723\n      jumpi\n        /* \"#utility.yul\":31287:31288   */\n      0x00\n        /* \"#utility.yul\":31284:31285   */\n      dup1\n        /* \"#utility.yul\":31277:31289   */\n      revert\n        /* \"#utility.yul\":31228:31230   */\n    tag_723:\n        /* \"#utility.yul\":31218:31297   */\n      pop\n      jump\t// out\n        /* \"#utility.yul\":31303:31419   */\n    tag_395:\n        /* \"#utility.yul\":31373:31394   */\n      tag_725\n        /* \"#utility.yul\":31388:31393   */\n      dup2\n        /* \"#utility.yul\":31373:31394   */\n      tag_461\n      jump\t// in\n    tag_725:\n        /* \"#utility.yul\":31366:31371   */\n      dup2\n        /* \"#utility.yul\":31363:31395   */\n      eq\n        /* \"#utility.yul\":31353:31355   */\n      tag_726\n      jumpi\n        /* \"#utility.yul\":31409:31410   */\n      0x00\n        /* \"#utility.yul\":31406:31407   */\n      dup1\n        /* \"#utility.yul\":31399:31411   */\n      revert\n        /* \"#utility.yul\":31353:31355   */\n    tag_726:\n        /* \"#utility.yul\":31343:31419   */\n      pop\n      jump\t// out\n        /* \"#utility.yul\":31425:31545   */\n    tag_399:\n        /* \"#utility.yul\":31497:31520   */\n      tag_728\n        /* \"#utility.yul\":31514:31519   */\n      dup2\n        /* \"#utility.yul\":31497:31520   */\n      tag_669\n      jump\t// in\n    tag_728:\n        /* \"#utility.yul\":31490:31495   */\n      dup2\n        /* \"#utility.yul\":31487:31521   */\n      eq\n        /* \"#utility.yul\":31477:31479   */\n      tag_729\n      jumpi\n        /* \"#utility.yul\":31535:31536   */\n      0x00\n        /* \"#utility.yul\":31532:31533   */\n      dup1\n        /* \"#utility.yul\":31525:31537   */\n      revert\n        /* \"#utility.yul\":31477:31479   */\n    tag_729:\n        /* \"#utility.yul\":31467:31545   */\n      pop\n      jump\t// out\n        /* \"#utility.yul\":31551:31673   */\n    tag_410:\n        /* \"#utility.yul\":31624:31648   */\n      tag_731\n        /* \"#utility.yul\":31642:31647   */\n      dup2\n        /* \"#utility.yul\":31624:31648   */\n      tag_575\n      jump\t// in\n    tag_731:\n        /* \"#utility.yul\":31617:31622   */\n      dup2\n        /* \"#utility.yul\":31614:31649   */\n      eq\n        /* \"#utility.yul\":31604:31606   */\n      tag_732\n      jumpi\n        /* \"#utility.yul\":31663:31664   */\n      0x00\n        /* \"#utility.yul\":31660:31661   */\n      dup1\n        /* \"#utility.yul\":31653:31665   */\n      revert\n        /* \"#utility.yul\":31604:31606   */\n    tag_732:\n        /* \"#utility.yul\":31594:31673   */\n      pop\n      jump\t// out\n        /* \"#utility.yul\":31679:31799   */\n    tag_414:\n        /* \"#utility.yul\":31751:31774   */\n      tag_734\n        /* \"#utility.yul\":31768:31773   */\n      dup2\n        /* \"#utility.yul\":31751:31774   */\n      tag_673\n      jump\t// in\n    tag_734:\n        /* \"#utility.yul\":31744:31749   */\n      dup2\n        /* \"#utility.yul\":31741:31775   */\n      eq\n        /* \"#utility.yul\":31731:31733   */\n      tag_735\n      jumpi\n        /* \"#utility.yul\":31789:31790   */\n      0x00\n        /* \"#utility.yul\":31786:31787   */\n      dup1\n        /* \"#utility.yul\":31779:31791   */\n      revert\n        /* \"#utility.yul\":31731:31733   */\n    tag_735:\n        /* \"#utility.yul\":31721:31799   */\n      pop\n      jump\t// out\n\n    auxdata: 0xa26469706673582212209cb34022505629d1ed6d6fd557b73f4c980d3a007ab7921da1cccde81e79061964736f6c63430008040033\n}\n",
				"bytecode": {
					"linkReferences": {},
					"object": "60806040523480156200001157600080fd5b506040518060400160405280601181526020017f57544620447574636820417563746f696e0000000000000000000000000000008152506040518060400160405280601181526020017f57544620447574636820417563746f696e0000000000000000000000000000008152506200009e62000092620000df60201b60201c565b620000e760201b60201c565b8160019080519060200190620000b6929190620001ab565b508060029080519060200190620000cf929190620001ab565b50505042600781905550620002c0565b600033905090565b60008060009054906101000a900473ffffffffffffffffffffffffffffffffffffffff169050816000806101000a81548173ffffffffffffffffffffffffffffffffffffffff021916908373ffffffffffffffffffffffffffffffffffffffff1602179055508173ffffffffffffffffffffffffffffffffffffffff168173ffffffffffffffffffffffffffffffffffffffff167f8be0079c531659141344cd1fd0a4f28419497f9722a3daafe3b4186f6b6457e060405160405180910390a35050565b828054620001b9906200025b565b90600052602060002090601f016020900481019282620001dd576000855562000229565b82601f10620001f857805160ff191683800117855562000229565b8280016001018555821562000229579182015b82811115620002285782518255916020019190600101906200020b565b5b5090506200023891906200023c565b5090565b5b80821115620002575760008160009055506001016200023d565b5090565b600060028204905060018216806200027457607f821691505b602082108114156200028b576200028a62000291565b5b50919050565b7f4e487b7100000000000000000000000000000000000000000000000000000000600052602260045260246000fd5b61309080620002d06000396000f3fe6080604052600436106101b75760003560e01c806370a08231116100ec578063b88d4fde1161008a578063e592301a11610064578063e592301a146105db578063e985e9c514610606578063eb54f9ec14610643578063f2fde38b1461066e576101b7565b8063b88d4fde1461054a578063c87b56dd14610573578063caf8a6d1146105b0576101b7565b80638da5cb5b116100c65780638da5cb5b146104b457806395d89b41146104df578063a22cb4651461050a578063ac44600214610533576101b7565b806370a0823114610435578063715018a6146104725780637a1c4a5614610489576101b7565b8063327658e3116101595780634d3554c3116101335780634d3554c31461038657806359f369fe146103a25780635cae01d3146103cd5780636352211e146103f8576101b7565b8063327658e31461030757806342842e0e146103325780634bd25c6f1461035b576101b7565b8063081812fc11610195578063081812fc1461024d578063095ea7b31461028a57806318160ddd146102b357806323b872dd146102de576101b7565b806301ffc9a7146101bc5780630697346f146101f957806306fdde0314610222575b600080fd5b3480156101c857600080fd5b506101e360048036038101906101de91906121fa565b610697565b6040516101f09190612661565b60405180910390f35b34801561020557600080fd5b50610220600480360381019061021b9190612275565b6107d1565b005b34801561022e57600080fd5b506102376107e9565b604051610244919061267c565b60405180910390f35b34801561025957600080fd5b50610274600480360381019061026f919061224c565b610877565b60405161028191906125fa565b60405180910390f35b34801561029657600080fd5b506102b160048036038101906102ac91906121be565b610956565b005b3480156102bf57600080fd5b506102c8610a9d565b6040516102d5919061289e565b60405180910390f35b3480156102ea57600080fd5b50610305600480360381019061030091906120b8565b610aaa565b005b34801561031357600080fd5b5061031c610b13565b604051610329919061289e565b60405180910390f35b34801561033e57600080fd5b50610359600480360381019061035491906120b8565b610b19565b005b34801561036757600080fd5b50610370610b39565b60405161037d919061289e565b60405180910390f35b6103a0600480360381019061039b919061224c565b610bf3565b005b3480156103ae57600080fd5b506103b7610d9a565b6040516103c4919061289e565b60405180910390f35b3480156103d957600080fd5b506103e2610dd2565b6040516103ef919061289e565b60405180910390f35b34801561040457600080fd5b5061041f600480360381019061041a919061224c565b610dd7565b60405161042c91906125fa565b60405180910390f35b34801561044157600080fd5b5061045c60048036038101906104579190612053565b610e84565b604051610469919061289e565b60405180910390f35b34801561047e57600080fd5b50610487610f3c565b005b34801561049557600080fd5b5061049e610f50565b6040516104ab919061289e565b60405180910390f35b3480156104c057600080fd5b506104c9610f5c565b6040516104d691906125fa565b60405180910390f35b3480156104eb57600080fd5b506104f4610f85565b604051610501919061267c565b60405180910390f35b34801561051657600080fd5b50610531600480360381019061052c9190612182565b611013565b005b34801561053f57600080fd5b50610548611110565b005b34801561055657600080fd5b50610571600480360381019061056c9190612107565b6111c7565b005b34801561057f57600080fd5b5061059a6004803603810190610595919061224c565b611232565b6040516105a7919061267c565b60405180910390f35b3480156105bc57600080fd5b506105c5611334565b6040516105d2919061289e565b60405180910390f35b3480156105e757600080fd5b506105f0611340565b6040516105fd919061289e565b60405180910390f35b34801561061257600080fd5b5061062d6004803603810190610628919061207c565b611346565b60405161063a9190612661565b60405180910390f35b34801561064f57600080fd5b506106586113da565b604051610665919061289e565b60405180910390f35b34801561067a57600080fd5b5061069560048036038101906106909190612053565b6113e0565b005b60007f80ac58cd000000000000000000000000000000000000000000000000000000007bffffffffffffffffffffffffffffffffffffffffffffffffffffffff1916827bffffffffffffffffffffffffffffffffffffffffffffffffffffffff1916148061076257507f01ffc9a7000000000000000000000000000000000000000000000000000000007bffffffffffffffffffffffffffffffffffffffffffffffffffffffff1916827bffffffffffffffffffffffffffffffffffffffffffffffffffffffff1916145b806107ca57507f5b5e139f000000000000000000000000000000000000000000000000000000007bffffffffffffffffffffffffffffffffffffffffffffffffffffffff1916827bffffffffffffffffffffffffffffffffffffffffffffffffffffffff1916145b9050919050565b6107d9611464565b8063ffffffff1660078190555050565b600180546107f690612b38565b80601f016020809104026020016040519081016040528092919081815260200182805461082290612b38565b801561086f5780601f106108445761010080835404028352916020019161086f565b820191906000526020600020905b81548152906001019060200180831161085257829003601f168201915b505050505081565b60008073ffffffffffffffffffffffffffffffffffffffff166003600084815260200190815260200160002060009054906101000a900473ffffffffffffffffffffffffffffffffffffffff1673ffffffffffffffffffffffffffffffffffffffff16141561091b576040517f08c379a00000000000000000000000000000000000000000000000000000000081526004016109129061275e565b60405180910390fd5b6005600083815260200190815260200160002060009054906101000a900473ffffffffffffffffffffffffffffffffffffffff169050919050565b60006003600083815260200190815260200160002060009054906101000a900473ffffffffffffffffffffffffffffffffffffffff1690508073ffffffffffffffffffffffffffffffffffffffff163373ffffffffffffffffffffffffffffffffffffffff161480610a4e5750600660008273ffffffffffffffffffffffffffffffffffffffff1673ffffffffffffffffffffffffffffffffffffffff16815260200190815260200160002060003373ffffffffffffffffffffffffffffffffffffffff1673ffffffffffffffffffffffffffffffffffffffff16815260200190815260200160002060009054906101000a900460ff165b610a8d576040517f08c379a0000000000000000000000000000000000000000000000000000000008152600401610a84906126fe565b60405180910390fd5b610a988184846114e2565b505050565b6000600980549050905090565b6000610ab582610dd7565b9050610ac2813384611594565b610b01576040517f08c379a0000000000000000000000000000000000000000000000000000000008152600401610af89061269e565b60405180910390fd5b610b0d818585856116c8565b50505050565b61271081565b610b34838383604051806020016040528060008152506111c7565b505050565b6000600754421015610b5557670de0b6b3a76400009050610bf0565b61025860075442610b669190612a3e565b10610b7b5767016345785d8a00009050610bf0565b6000603c60075442610b8d9190612a3e565b610b9791906129b3565b9050603c610258610ba891906129b3565b67016345785d8a0000670de0b6b3a7640000610bc49190612a3e565b610bce91906129b3565b81610bd991906129e4565b670de0b6b3a7640000610bec9190612a3e565b9150505b90565b6000600754905060008114158015610c0b5750804210155b610c4a576040517f08c379a0000000000000000000000000000000000000000000000000000000008152600401610c419061271e565b60405180910390fd5b61271082610c56610a9d565b610c60919061295d565b1115610ca1576040517f08c379a0000000000000000000000000000000000000000000000000000000008152600401610c989061285e565b60405180910390fd5b600082610cac610b39565b610cb691906129e4565b905080341015610cfb576040517f08c379a0000000000000000000000000000000000000000000000000000000008152600401610cf29061281e565b60405180910390fd5b60005b83811015610d39576000610d10610a9d565b9050610d1c3382611913565b610d2581611b2e565b508080610d3190612b9b565b915050610cfe565b5080341115610d95573373ffffffffffffffffffffffffffffffffffffffff166108fc8234610d689190612a3e565b9081150290604051600060405180830381858888f19350505050158015610d93573d6000803e3d6000fd5b505b505050565b603c610258610da991906129b3565b67016345785d8a0000670de0b6b3a7640000610dc59190612a3e565b610dcf91906129b3565b81565b603c81565b60006003600083815260200190815260200160002060009054906101000a900473ffffffffffffffffffffffffffffffffffffffff169050600073ffffffffffffffffffffffffffffffffffffffff168173ffffffffffffffffffffffffffffffffffffffff161415610e7f576040517f08c379a0000000000000000000000000000000000000000000000000000000008152600401610e769061275e565b60405180910390fd5b919050565b60008073ffffffffffffffffffffffffffffffffffffffff168273ffffffffffffffffffffffffffffffffffffffff161415610ef5576040517f08c379a0000000000000000000000000000000000000000000000000000000008152600401610eec9061277e565b60405180910390fd5b600460008373ffffffffffffffffffffffffffffffffffffffff1673ffffffffffffffffffffffffffffffffffffffff168152602001908152602001600020549050919050565b610f44611464565b610f4e6000611b5a565b565b670de0b6b3a764000081565b60008060009054906101000a900473ffffffffffffffffffffffffffffffffffffffff16905090565b60028054610f9290612b38565b80601f0160208091040260200160405190810160405280929190818152602001828054610fbe90612b38565b801561100b5780601f10610fe05761010080835404028352916020019161100b565b820191906000526020600020905b815481529060010190602001808311610fee57829003601f168201915b505050505081565b80600660003373ffffffffffffffffffffffffffffffffffffffff1673ffffffffffffffffffffffffffffffffffffffff16815260200190815260200160002060008473ffffffffffffffffffffffffffffffffffffffff1673ffffffffffffffffffffffffffffffffffffffff16815260200190815260200160002060006101000a81548160ff0219169083151502179055508173ffffffffffffffffffffffffffffffffffffffff163373ffffffffffffffffffffffffffffffffffffffff167f17307eab39ab6107e8899845ad3d59bd9653f200f220920489ca2b5937696c31836040516111049190612661565b60405180910390a35050565b611118611464565b60003373ffffffffffffffffffffffffffffffffffffffff164760405161113e906125e5565b60006040518083038185875af1925050503d806000811461117b576040519150601f19603f3d011682016040523d82523d6000602084013e611180565b606091505b50509050806111c4576040517f08c379a00000000000000000000000000000000000000000000000000000000081526004016111bb906127fe565b60405180910390fd5b50565b60006111d283610dd7565b90506111df813385611594565b61121e576040517f08c379a00000000000000000000000000000000000000000000000000000000081526004016112159061269e565b60405180910390fd5b61122b8186868686611c1e565b5050505050565b6060600073ffffffffffffffffffffffffffffffffffffffff166003600084815260200190815260200160002060009054906101000a900473ffffffffffffffffffffffffffffffffffffffff1673ffffffffffffffffffffffffffffffffffffffff1614156112d7576040517f08c379a00000000000000000000000000000000000000000000000000000000081526004016112ce906127be565b60405180910390fd5b60006112e1611c7c565b90506000815111611301576040518060200160405280600081525061132c565b8061130b84611c93565b60405160200161131c9291906125c1565b6040516020818303038152906040525b915050919050565b67016345785d8a000081565b61025881565b6000600660008473ffffffffffffffffffffffffffffffffffffffff1673ffffffffffffffffffffffffffffffffffffffff16815260200190815260200160002060008373ffffffffffffffffffffffffffffffffffffffff1673ffffffffffffffffffffffffffffffffffffffff16815260200190815260200160002060009054906101000a900460ff16905092915050565b60075481565b6113e8611464565b600073ffffffffffffffffffffffffffffffffffffffff168173ffffffffffffffffffffffffffffffffffffffff161415611458576040517f08c379a000000000000000000000000000000000000000000000000000000000815260040161144f906126be565b60405180910390fd5b61146181611b5a565b50565b61146c611e40565b73ffffffffffffffffffffffffffffffffffffffff1661148a610f5c565b73ffffffffffffffffffffffffffffffffffffffff16146114e0576040517f08c379a00000000000000000000000000000000000000000000000000000000081526004016114d79061279e565b60405180910390fd5b565b816005600083815260200190815260200160002060006101000a81548173ffffffffffffffffffffffffffffffffffffffff021916908373ffffffffffffffffffffffffffffffffffffffff160217905550808273ffffffffffffffffffffffffffffffffffffffff168473ffffffffffffffffffffffffffffffffffffffff167f8c5be1e5ebec7d5bd14f71427d1e84f3dd0314c0f7b2291e5b200ac8c7c3b92560405160405180910390a4505050565b60008373ffffffffffffffffffffffffffffffffffffffff168373ffffffffffffffffffffffffffffffffffffffff16148061162e57508273ffffffffffffffffffffffffffffffffffffffff166005600084815260200190815260200160002060009054906101000a900473ffffffffffffffffffffffffffffffffffffffff1673ffffffffffffffffffffffffffffffffffffffff16145b806116bf5750600660008573ffffffffffffffffffffffffffffffffffffffff1673ffffffffffffffffffffffffffffffffffffffff16815260200190815260200160002060008473ffffffffffffffffffffffffffffffffffffffff1673ffffffffffffffffffffffffffffffffffffffff16815260200190815260200160002060009054906101000a900460ff165b90509392505050565b8373ffffffffffffffffffffffffffffffffffffffff168373ffffffffffffffffffffffffffffffffffffffff1614611736576040517f08c379a000000000000000000000000000000000000000000000000000000000815260040161172d9061287e565b60405180910390fd5b600073ffffffffffffffffffffffffffffffffffffffff168273ffffffffffffffffffffffffffffffffffffffff1614156117a6576040517f08c379a000000000000000000000000000000000000000000000000000000000815260040161179d906126de565b60405180910390fd5b6117b2846000836114e2565b6001600460008573ffffffffffffffffffffffffffffffffffffffff1673ffffffffffffffffffffffffffffffffffffffff16815260200190815260200160002060008282546118029190612a3e565b925050819055506001600460008473ffffffffffffffffffffffffffffffffffffffff1673ffffffffffffffffffffffffffffffffffffffff1681526020019081526020016000206000828254611859919061295d565b92505081905550816003600083815260200190815260200160002060006101000a81548173ffffffffffffffffffffffffffffffffffffffff021916908373ffffffffffffffffffffffffffffffffffffffff160217905550808273ffffffffffffffffffffffffffffffffffffffff168473ffffffffffffffffffffffffffffffffffffffff167fddf252ad1be2c89b69c2b068fc378daa952ba7f163c4a11628f55a4df523b3ef60405160405180910390a450505050565b600073ffffffffffffffffffffffffffffffffffffffff168273ffffffffffffffffffffffffffffffffffffffff161415611983576040517f08c379a000000000000000000000000000000000000000000000000000000000815260040161197a9061273e565b60405180910390fd5b600073ffffffffffffffffffffffffffffffffffffffff166003600083815260200190815260200160002060009054906101000a900473ffffffffffffffffffffffffffffffffffffffff1673ffffffffffffffffffffffffffffffffffffffff1614611a25576040517f08c379a0000000000000000000000000000000000000000000000000000000008152600401611a1c906127de565b60405180910390fd5b6001600460008473ffffffffffffffffffffffffffffffffffffffff1673ffffffffffffffffffffffffffffffffffffffff1681526020019081526020016000206000828254611a75919061295d565b92505081905550816003600083815260200190815260200160002060006101000a81548173ffffffffffffffffffffffffffffffffffffffff021916908373ffffffffffffffffffffffffffffffffffffffff160217905550808273ffffffffffffffffffffffffffffffffffffffff16600073ffffffffffffffffffffffffffffffffffffffff167fddf252ad1be2c89b69c2b068fc378daa952ba7f163c4a11628f55a4df523b3ef60405160405180910390a45050565b600981908060018154018082558091505060019003906000526020600020016000909190919091505550565b60008060009054906101000a900473ffffffffffffffffffffffffffffffffffffffff169050816000806101000a81548173ffffffffffffffffffffffffffffffffffffffff021916908373ffffffffffffffffffffffffffffffffffffffff1602179055508173ffffffffffffffffffffffffffffffffffffffff168173ffffffffffffffffffffffffffffffffffffffff167f8be0079c531659141344cd1fd0a4f28419497f9722a3daafe3b4186f6b6457e060405160405180910390a35050565b611c2a858585856116c8565b611c3684848484611e48565b611c75576040517f08c379a0000000000000000000000000000000000000000000000000000000008152600401611c6c9061283e565b60405180910390fd5b5050505050565b606060405180602001604052806000815250905090565b60606000821415611cdb576040518060400160405280600181526020017f30000000000000000000000000000000000000000000000000000000000000008152509050611e3b565b600082905060005b60008214611d0d578080611cf690612b9b565b915050600a82611d0691906129b3565b9150611ce3565b60008167ffffffffffffffff811115611d4f577f4e487b7100000000000000000000000000000000000000000000000000000000600052604160045260246000fd5b6040519080825280601f01601f191660200182016040528015611d815781602001600182028036833780820191505090505b5090505b60008514611e3457600182611d9a9190612a3e565b9150600a85611da99190612be4565b6030611db5919061295d565b60f81b818381518110611df1577f4e487b7100000000000000000000000000000000000000000000000000000000600052603260045260246000fd5b60200101907effffffffffffffffffffffffffffffffffffffffffffffffffffffffffffff1916908160001a905350600a85611e2d91906129b3565b9450611d85565b8093505050505b919050565b600033905090565b6000611e698473ffffffffffffffffffffffffffffffffffffffff16611f5a565b15611f4d5763150b7a0260e01b7bffffffffffffffffffffffffffffffffffffffffffffffffffffffff19168473ffffffffffffffffffffffffffffffffffffffff1663150b7a02338887876040518563ffffffff1660e01b8152600401611ed49493929190612615565b602060405180830381600087803b158015611eee57600080fd5b505af1158015611f02573d6000803e3d6000fd5b505050506040513d601f19601f82011682018060405250810190611f269190612223565b7bffffffffffffffffffffffffffffffffffffffffffffffffffffffff1916149050611f52565b600190505b949350505050565b600080823b905060008111915050919050565b6000611f80611f7b846128de565b6128b9565b905082815260208101848484011115611f9857600080fd5b611fa3848285612af6565b509392505050565b600081359050611fba81612fe7565b92915050565b600081359050611fcf81612ffe565b92915050565b600081359050611fe481613015565b92915050565b600081519050611ff981613015565b92915050565b600082601f83011261201057600080fd5b8135612020848260208601611f6d565b91505092915050565b6000813590506120388161302c565b92915050565b60008135905061204d81613043565b92915050565b60006020828403121561206557600080fd5b600061207384828501611fab565b91505092915050565b6000806040838503121561208f57600080fd5b600061209d85828601611fab565b92505060206120ae85828601611fab565b9150509250929050565b6000806000606084860312156120cd57600080fd5b60006120db86828701611fab565b93505060206120ec86828701611fab565b92505060406120fd86828701612029565b9150509250925092565b6000806000806080858703121561211d57600080fd5b600061212b87828801611fab565b945050602061213c87828801611fab565b935050604061214d87828801612029565b925050606085013567ffffffffffffffff81111561216a57600080fd5b61217687828801611fff565b91505092959194509250565b6000806040838503121561219557600080fd5b60006121a385828601611fab565b92505060206121b485828601611fc0565b9150509250929050565b600080604083850312156121d157600080fd5b60006121df85828601611fab565b92505060206121f085828601612029565b9150509250929050565b60006020828403121561220c57600080fd5b600061221a84828501611fd5565b91505092915050565b60006020828403121561223557600080fd5b600061224384828501611fea565b91505092915050565b60006020828403121561225e57600080fd5b600061226c84828501612029565b91505092915050565b60006020828403121561228757600080fd5b60006122958482850161203e565b91505092915050565b6122a781612a72565b82525050565b6122b681612a84565b82525050565b60006122c78261290f565b6122d18185612925565b93506122e1818560208601612b05565b6122ea81612cd1565b840191505092915050565b60006123008261291a565b61230a8185612941565b935061231a818560208601612b05565b61232381612cd1565b840191505092915050565b60006123398261291a565b6123438185612952565b9350612353818560208601612b05565b80840191505092915050565b600061236c601683612941565b915061237782612ce2565b602082019050919050565b600061238f602683612941565b915061239a82612d0b565b604082019050919050565b60006123b2601c83612941565b91506123bd82612d5a565b602082019050919050565b60006123d5601e83612941565b91506123e082612d83565b602082019050919050565b60006123f8601883612941565b915061240382612dac565b602082019050919050565b600061241b601483612941565b915061242682612dd5565b602082019050919050565b600061243e601383612941565b915061244982612dfe565b602082019050919050565b6000612461601483612941565b915061246c82612e27565b602082019050919050565b6000612484602083612941565b915061248f82612e50565b602082019050919050565b60006124a7600f83612941565b91506124b282612e79565b602082019050919050565b60006124ca601483612941565b91506124d582612ea2565b602082019050919050565b60006124ed600083612936565b91506124f882612ecb565b600082019050919050565b6000612510601083612941565b915061251b82612ece565b602082019050919050565b6000612533601683612941565b915061253e82612ef7565b602082019050919050565b6000612556601283612941565b915061256182612f20565b602082019050919050565b6000612579604883612941565b915061258482612f49565b606082019050919050565b600061259c600983612941565b91506125a782612fbe565b602082019050919050565b6125bb81612adc565b82525050565b60006125cd828561232e565b91506125d9828461232e565b91508190509392505050565b60006125f0826124e0565b9150819050919050565b600060208201905061260f600083018461229e565b92915050565b600060808201905061262a600083018761229e565b612637602083018661229e565b61264460408301856125b2565b818103606083015261265681846122bc565b905095945050505050565b600060208201905061267660008301846122ad565b92915050565b6000602082019050818103600083015261269681846122f5565b905092915050565b600060208201905081810360008301526126b78161235f565b9050919050565b600060208201905081810360008301526126d781612382565b9050919050565b600060208201905081810360008301526126f7816123a5565b9050919050565b60006020820190508181036000830152612717816123c8565b9050919050565b60006020820190508181036000830152612737816123eb565b9050919050565b600060208201905081810360008301526127578161240e565b9050919050565b6000602082019050818103600083015261277781612431565b9050919050565b6000602082019050818103600083015261279781612454565b9050919050565b600060208201905081810360008301526127b781612477565b9050919050565b600060208201905081810360008301526127d78161249a565b9050919050565b600060208201905081810360008301526127f7816124bd565b9050919050565b6000602082019050818103600083015261281781612503565b9050919050565b6000602082019050818103600083015261283781612526565b9050919050565b6000602082019050818103600083015261285781612549565b9050919050565b600060208201905081810360008301526128778161256c565b9050919050565b600060208201905081810360008301526128978161258f565b9050919050565b60006020820190506128b360008301846125b2565b92915050565b60006128c36128d4565b90506128cf8282612b6a565b919050565b6000604051905090565b600067ffffffffffffffff8211156128f9576128f8612ca2565b5b61290282612cd1565b9050602081019050919050565b600081519050919050565b600081519050919050565b600082825260208201905092915050565b600081905092915050565b600082825260208201905092915050565b600081905092915050565b600061296882612adc565b915061297383612adc565b9250827fffffffffffffffffffffffffffffffffffffffffffffffffffffffffffffffff038211156129a8576129a7612c15565b5b828201905092915050565b60006129be82612adc565b91506129c983612adc565b9250826129d9576129d8612c44565b5b828204905092915050565b60006129ef82612adc565b91506129fa83612adc565b9250817fffffffffffffffffffffffffffffffffffffffffffffffffffffffffffffffff0483118215151615612a3357612a32612c15565b5b828202905092915050565b6000612a4982612adc565b9150612a5483612adc565b925082821015612a6757612a66612c15565b5b828203905092915050565b6000612a7d82612abc565b9050919050565b60008115159050919050565b60007fffffffff0000000000000000000000000000000000000000000000000000000082169050919050565b600073ffffffffffffffffffffffffffffffffffffffff82169050919050565b6000819050919050565b600063ffffffff82169050919050565b82818337600083830152505050565b60005b83811015612b23578082015181840152602081019050612b08565b83811115612b32576000848401525b50505050565b60006002820490506001821680612b5057607f821691505b60208210811415612b6457612b63612c73565b5b50919050565b612b7382612cd1565b810181811067ffffffffffffffff82111715612b9257612b91612ca2565b5b80604052505050565b6000612ba682612adc565b91507fffffffffffffffffffffffffffffffffffffffffffffffffffffffffffffffff821415612bd957612bd8612c15565b5b600182019050919050565b6000612bef82612adc565b9150612bfa83612adc565b925082612c0a57612c09612c44565b5b828206905092915050565b7f4e487b7100000000000000000000000000000000000000000000000000000000600052601160045260246000fd5b7f4e487b7100000000000000000000000000000000000000000000000000000000600052601260045260246000fd5b7f4e487b7100000000000000000000000000000000000000000000000000000000600052602260045260246000fd5b7f4e487b7100000000000000000000000000000000000000000000000000000000600052604160045260246000fd5b6000601f19601f8301169050919050565b7f6e6f74206f776e6572206e6f7220617070726f76656400000000000000000000600082015250565b7f4f776e61626c653a206e6577206f776e657220697320746865207a65726f206160008201527f6464726573730000000000000000000000000000000000000000000000000000602082015250565b7f7472616e7366657220746f20746865207a65726f206164647265737300000000600082015250565b7f6e6f74206f776e6572206e6f7220617070726f76656420666f7220616c6c0000600082015250565b7f73616c6520686173206e6f742073746172746564207965740000000000000000600082015250565b7f6d696e7420746f207a65726f2061646472657373000000000000000000000000600082015250565b7f746f6b656e20646f65736e277420657869737400000000000000000000000000600082015250565b7f6f776e6572203d207a65726f2061646472657373000000000000000000000000600082015250565b7f4f776e61626c653a2063616c6c6572206973206e6f7420746865206f776e6572600082015250565b7f546f6b656e204e6f742045786973740000000000000000000000000000000000600082015250565b7f746f6b656e20616c7265616479206d696e746564000000000000000000000000600082015250565b50565b7f5472616e73666572206661696c65642e00000000000000000000000000000000600082015250565b7f4e65656420746f2073656e64206d6f7265204554482e00000000000000000000600082015250565b7f6e6f742045524337323152656365697665720000000000000000000000000000600082015250565b7f6e6f7420656e6f7567682072656d61696e696e6720726573657276656420666f60008201527f722061756374696f6e20746f20737570706f72742064657369726564206d696e60208201527f7420616d6f756e74000000000000000000000000000000000000000000000000604082015250565b7f6e6f74206f776e65720000000000000000000000000000000000000000000000600082015250565b612ff081612a72565b8114612ffb57600080fd5b50565b61300781612a84565b811461301257600080fd5b50565b61301e81612a90565b811461302957600080fd5b50565b61303581612adc565b811461304057600080fd5b50565b61304c81612ae6565b811461305757600080fd5b5056fea26469706673582212209cb34022505629d1ed6d6fd557b73f4c980d3a007ab7921da1cccde81e79061964736f6c63430008040033",
					"opcodes": "PUSH1 0x80 PUSH1 0x40 MSTORE CALLVALUE DUP1 ISZERO PUSH3 0x11 JUMPI PUSH1 0x0 DUP1 REVERT JUMPDEST POP PUSH1 0x40 MLOAD DUP1 PUSH1 0x40 ADD PUSH1 0x40 MSTORE DUP1 PUSH1 0x11 DUP2 MSTORE PUSH1 0x20 ADD PUSH32 0x57544620447574636820417563746F696E000000000000000000000000000000 DUP2 MSTORE POP PUSH1 0x40 MLOAD DUP1 PUSH1 0x40 ADD PUSH1 0x40 MSTORE DUP1 PUSH1 0x11 DUP2 MSTORE PUSH1 0x20 ADD PUSH32 0x57544620447574636820417563746F696E000000000000000000000000000000 DUP2 MSTORE POP PUSH3 0x9E PUSH3 0x92 PUSH3 0xDF PUSH1 0x20 SHL PUSH1 0x20 SHR JUMP JUMPDEST PUSH3 0xE7 PUSH1 0x20 SHL PUSH1 0x20 SHR JUMP JUMPDEST DUP2 PUSH1 0x1 SWAP1 DUP1 MLOAD SWAP1 PUSH1 0x20 ADD SWAP1 PUSH3 0xB6 SWAP3 SWAP2 SWAP1 PUSH3 0x1AB JUMP JUMPDEST POP DUP1 PUSH1 0x2 SWAP1 DUP1 MLOAD SWAP1 PUSH1 0x20 ADD SWAP1 PUSH3 0xCF SWAP3 SWAP2 SWAP1 PUSH3 0x1AB JUMP JUMPDEST POP POP POP TIMESTAMP PUSH1 0x7 DUP2 SWAP1 SSTORE POP PUSH3 0x2C0 JUMP JUMPDEST PUSH1 0x0 CALLER SWAP1 POP SWAP1 JUMP JUMPDEST PUSH1 0x0 DUP1 PUSH1 0x0 SWAP1 SLOAD SWAP1 PUSH2 0x100 EXP SWAP1 DIV PUSH20 0xFFFFFFFFFFFFFFFFFFFFFFFFFFFFFFFFFFFFFFFF AND SWAP1 POP DUP2 PUSH1 0x0 DUP1 PUSH2 0x100 EXP DUP2 SLOAD DUP2 PUSH20 0xFFFFFFFFFFFFFFFFFFFFFFFFFFFFFFFFFFFFFFFF MUL NOT AND SWAP1 DUP4 PUSH20 0xFFFFFFFFFFFFFFFFFFFFFFFFFFFFFFFFFFFFFFFF AND MUL OR SWAP1 SSTORE POP DUP2 PUSH20 0xFFFFFFFFFFFFFFFFFFFFFFFFFFFFFFFFFFFFFFFF AND DUP2 PUSH20 0xFFFFFFFFFFFFFFFFFFFFFFFFFFFFFFFFFFFFFFFF AND PUSH32 0x8BE0079C531659141344CD1FD0A4F28419497F9722A3DAAFE3B4186F6B6457E0 PUSH1 0x40 MLOAD PUSH1 0x40 MLOAD DUP1 SWAP2 SUB SWAP1 LOG3 POP POP JUMP JUMPDEST DUP3 DUP1 SLOAD PUSH3 0x1B9 SWAP1 PUSH3 0x25B JUMP JUMPDEST SWAP1 PUSH1 0x0 MSTORE PUSH1 0x20 PUSH1 0x0 KECCAK256 SWAP1 PUSH1 0x1F ADD PUSH1 0x20 SWAP1 DIV DUP2 ADD SWAP3 DUP3 PUSH3 0x1DD JUMPI PUSH1 0x0 DUP6 SSTORE PUSH3 0x229 JUMP JUMPDEST DUP3 PUSH1 0x1F LT PUSH3 0x1F8 JUMPI DUP1 MLOAD PUSH1 0xFF NOT AND DUP4 DUP1 ADD OR DUP6 SSTORE PUSH3 0x229 JUMP JUMPDEST DUP3 DUP1 ADD PUSH1 0x1 ADD DUP6 SSTORE DUP3 ISZERO PUSH3 0x229 JUMPI SWAP2 DUP3 ADD JUMPDEST DUP3 DUP2 GT ISZERO PUSH3 0x228 JUMPI DUP3 MLOAD DUP3 SSTORE SWAP2 PUSH1 0x20 ADD SWAP2 SWAP1 PUSH1 0x1 ADD SWAP1 PUSH3 0x20B JUMP JUMPDEST JUMPDEST POP SWAP1 POP PUSH3 0x238 SWAP2 SWAP1 PUSH3 0x23C JUMP JUMPDEST POP SWAP1 JUMP JUMPDEST JUMPDEST DUP1 DUP3 GT ISZERO PUSH3 0x257 JUMPI PUSH1 0x0 DUP2 PUSH1 0x0 SWAP1 SSTORE POP PUSH1 0x1 ADD PUSH3 0x23D JUMP JUMPDEST POP SWAP1 JUMP JUMPDEST PUSH1 0x0 PUSH1 0x2 DUP3 DIV SWAP1 POP PUSH1 0x1 DUP3 AND DUP1 PUSH3 0x274 JUMPI PUSH1 0x7F DUP3 AND SWAP2 POP JUMPDEST PUSH1 0x20 DUP3 LT DUP2 EQ ISZERO PUSH3 0x28B JUMPI PUSH3 0x28A PUSH3 0x291 JUMP JUMPDEST JUMPDEST POP SWAP2 SWAP1 POP JUMP JUMPDEST PUSH32 0x4E487B7100000000000000000000000000000000000000000000000000000000 PUSH1 0x0 MSTORE PUSH1 0x22 PUSH1 0x4 MSTORE PUSH1 0x24 PUSH1 0x0 REVERT JUMPDEST PUSH2 0x3090 DUP1 PUSH3 0x2D0 PUSH1 0x0 CODECOPY PUSH1 0x0 RETURN INVALID PUSH1 0x80 PUSH1 0x40 MSTORE PUSH1 0x4 CALLDATASIZE LT PUSH2 0x1B7 JUMPI PUSH1 0x0 CALLDATALOAD PUSH1 0xE0 SHR DUP1 PUSH4 0x70A08231 GT PUSH2 0xEC JUMPI DUP1 PUSH4 0xB88D4FDE GT PUSH2 0x8A JUMPI DUP1 PUSH4 0xE592301A GT PUSH2 0x64 JUMPI DUP1 PUSH4 0xE592301A EQ PUSH2 0x5DB JUMPI DUP1 PUSH4 0xE985E9C5 EQ PUSH2 0x606 JUMPI DUP1 PUSH4 0xEB54F9EC EQ PUSH2 0x643 JUMPI DUP1 PUSH4 0xF2FDE38B EQ PUSH2 0x66E JUMPI PUSH2 0x1B7 JUMP JUMPDEST DUP1 PUSH4 0xB88D4FDE EQ PUSH2 0x54A JUMPI DUP1 PUSH4 0xC87B56DD EQ PUSH2 0x573 JUMPI DUP1 PUSH4 0xCAF8A6D1 EQ PUSH2 0x5B0 JUMPI PUSH2 0x1B7 JUMP JUMPDEST DUP1 PUSH4 0x8DA5CB5B GT PUSH2 0xC6 JUMPI DUP1 PUSH4 0x8DA5CB5B EQ PUSH2 0x4B4 JUMPI DUP1 PUSH4 0x95D89B41 EQ PUSH2 0x4DF JUMPI DUP1 PUSH4 0xA22CB465 EQ PUSH2 0x50A JUMPI DUP1 PUSH4 0xAC446002 EQ PUSH2 0x533 JUMPI PUSH2 0x1B7 JUMP JUMPDEST DUP1 PUSH4 0x70A08231 EQ PUSH2 0x435 JUMPI DUP1 PUSH4 0x715018A6 EQ PUSH2 0x472 JUMPI DUP1 PUSH4 0x7A1C4A56 EQ PUSH2 0x489 JUMPI PUSH2 0x1B7 JUMP JUMPDEST DUP1 PUSH4 0x327658E3 GT PUSH2 0x159 JUMPI DUP1 PUSH4 0x4D3554C3 GT PUSH2 0x133 JUMPI DUP1 PUSH4 0x4D3554C3 EQ PUSH2 0x386 JUMPI DUP1 PUSH4 0x59F369FE EQ PUSH2 0x3A2 JUMPI DUP1 PUSH4 0x5CAE01D3 EQ PUSH2 0x3CD JUMPI DUP1 PUSH4 0x6352211E EQ PUSH2 0x3F8 JUMPI PUSH2 0x1B7 JUMP JUMPDEST DUP1 PUSH4 0x327658E3 EQ PUSH2 0x307 JUMPI DUP1 PUSH4 0x42842E0E EQ PUSH2 0x332 JUMPI DUP1 PUSH4 0x4BD25C6F EQ PUSH2 0x35B JUMPI PUSH2 0x1B7 JUMP JUMPDEST DUP1 PUSH4 0x81812FC GT PUSH2 0x195 JUMPI DUP1 PUSH4 0x81812FC EQ PUSH2 0x24D JUMPI DUP1 PUSH4 0x95EA7B3 EQ PUSH2 0x28A JUMPI DUP1 PUSH4 0x18160DDD EQ PUSH2 0x2B3 JUMPI DUP1 PUSH4 0x23B872DD EQ PUSH2 0x2DE JUMPI PUSH2 0x1B7 JUMP JUMPDEST DUP1 PUSH4 0x1FFC9A7 EQ PUSH2 0x1BC JUMPI DUP1 PUSH4 0x697346F EQ PUSH2 0x1F9 JUMPI DUP1 PUSH4 0x6FDDE03 EQ PUSH2 0x222 JUMPI JUMPDEST PUSH1 0x0 DUP1 REVERT JUMPDEST CALLVALUE DUP1 ISZERO PUSH2 0x1C8 JUMPI PUSH1 0x0 DUP1 REVERT JUMPDEST POP PUSH2 0x1E3 PUSH1 0x4 DUP1 CALLDATASIZE SUB DUP2 ADD SWAP1 PUSH2 0x1DE SWAP2 SWAP1 PUSH2 0x21FA JUMP JUMPDEST PUSH2 0x697 JUMP JUMPDEST PUSH1 0x40 MLOAD PUSH2 0x1F0 SWAP2 SWAP1 PUSH2 0x2661 JUMP JUMPDEST PUSH1 0x40 MLOAD DUP1 SWAP2 SUB SWAP1 RETURN JUMPDEST CALLVALUE DUP1 ISZERO PUSH2 0x205 JUMPI PUSH1 0x0 DUP1 REVERT JUMPDEST POP PUSH2 0x220 PUSH1 0x4 DUP1 CALLDATASIZE SUB DUP2 ADD SWAP1 PUSH2 0x21B SWAP2 SWAP1 PUSH2 0x2275 JUMP JUMPDEST PUSH2 0x7D1 JUMP JUMPDEST STOP JUMPDEST CALLVALUE DUP1 ISZERO PUSH2 0x22E JUMPI PUSH1 0x0 DUP1 REVERT JUMPDEST POP PUSH2 0x237 PUSH2 0x7E9 JUMP JUMPDEST PUSH1 0x40 MLOAD PUSH2 0x244 SWAP2 SWAP1 PUSH2 0x267C JUMP JUMPDEST PUSH1 0x40 MLOAD DUP1 SWAP2 SUB SWAP1 RETURN JUMPDEST CALLVALUE DUP1 ISZERO PUSH2 0x259 JUMPI PUSH1 0x0 DUP1 REVERT JUMPDEST POP PUSH2 0x274 PUSH1 0x4 DUP1 CALLDATASIZE SUB DUP2 ADD SWAP1 PUSH2 0x26F SWAP2 SWAP1 PUSH2 0x224C JUMP JUMPDEST PUSH2 0x877 JUMP JUMPDEST PUSH1 0x40 MLOAD PUSH2 0x281 SWAP2 SWAP1 PUSH2 0x25FA JUMP JUMPDEST PUSH1 0x40 MLOAD DUP1 SWAP2 SUB SWAP1 RETURN JUMPDEST CALLVALUE DUP1 ISZERO PUSH2 0x296 JUMPI PUSH1 0x0 DUP1 REVERT JUMPDEST POP PUSH2 0x2B1 PUSH1 0x4 DUP1 CALLDATASIZE SUB DUP2 ADD SWAP1 PUSH2 0x2AC SWAP2 SWAP1 PUSH2 0x21BE JUMP JUMPDEST PUSH2 0x956 JUMP JUMPDEST STOP JUMPDEST CALLVALUE DUP1 ISZERO PUSH2 0x2BF JUMPI PUSH1 0x0 DUP1 REVERT JUMPDEST POP PUSH2 0x2C8 PUSH2 0xA9D JUMP JUMPDEST PUSH1 0x40 MLOAD PUSH2 0x2D5 SWAP2 SWAP1 PUSH2 0x289E JUMP JUMPDEST PUSH1 0x40 MLOAD DUP1 SWAP2 SUB SWAP1 RETURN JUMPDEST CALLVALUE DUP1 ISZERO PUSH2 0x2EA JUMPI PUSH1 0x0 DUP1 REVERT JUMPDEST POP PUSH2 0x305 PUSH1 0x4 DUP1 CALLDATASIZE SUB DUP2 ADD SWAP1 PUSH2 0x300 SWAP2 SWAP1 PUSH2 0x20B8 JUMP JUMPDEST PUSH2 0xAAA JUMP JUMPDEST STOP JUMPDEST CALLVALUE DUP1 ISZERO PUSH2 0x313 JUMPI PUSH1 0x0 DUP1 REVERT JUMPDEST POP PUSH2 0x31C PUSH2 0xB13 JUMP JUMPDEST PUSH1 0x40 MLOAD PUSH2 0x329 SWAP2 SWAP1 PUSH2 0x289E JUMP JUMPDEST PUSH1 0x40 MLOAD DUP1 SWAP2 SUB SWAP1 RETURN JUMPDEST CALLVALUE DUP1 ISZERO PUSH2 0x33E JUMPI PUSH1 0x0 DUP1 REVERT JUMPDEST POP PUSH2 0x359 PUSH1 0x4 DUP1 CALLDATASIZE SUB DUP2 ADD SWAP1 PUSH2 0x354 SWAP2 SWAP1 PUSH2 0x20B8 JUMP JUMPDEST PUSH2 0xB19 JUMP JUMPDEST STOP JUMPDEST CALLVALUE DUP1 ISZERO PUSH2 0x367 JUMPI PUSH1 0x0 DUP1 REVERT JUMPDEST POP PUSH2 0x370 PUSH2 0xB39 JUMP JUMPDEST PUSH1 0x40 MLOAD PUSH2 0x37D SWAP2 SWAP1 PUSH2 0x289E JUMP JUMPDEST PUSH1 0x40 MLOAD DUP1 SWAP2 SUB SWAP1 RETURN JUMPDEST PUSH2 0x3A0 PUSH1 0x4 DUP1 CALLDATASIZE SUB DUP2 ADD SWAP1 PUSH2 0x39B SWAP2 SWAP1 PUSH2 0x224C JUMP JUMPDEST PUSH2 0xBF3 JUMP JUMPDEST STOP JUMPDEST CALLVALUE DUP1 ISZERO PUSH2 0x3AE JUMPI PUSH1 0x0 DUP1 REVERT JUMPDEST POP PUSH2 0x3B7 PUSH2 0xD9A JUMP JUMPDEST PUSH1 0x40 MLOAD PUSH2 0x3C4 SWAP2 SWAP1 PUSH2 0x289E JUMP JUMPDEST PUSH1 0x40 MLOAD DUP1 SWAP2 SUB SWAP1 RETURN JUMPDEST CALLVALUE DUP1 ISZERO PUSH2 0x3D9 JUMPI PUSH1 0x0 DUP1 REVERT JUMPDEST POP PUSH2 0x3E2 PUSH2 0xDD2 JUMP JUMPDEST PUSH1 0x40 MLOAD PUSH2 0x3EF SWAP2 SWAP1 PUSH2 0x289E JUMP JUMPDEST PUSH1 0x40 MLOAD DUP1 SWAP2 SUB SWAP1 RETURN JUMPDEST CALLVALUE DUP1 ISZERO PUSH2 0x404 JUMPI PUSH1 0x0 DUP1 REVERT JUMPDEST POP PUSH2 0x41F PUSH1 0x4 DUP1 CALLDATASIZE SUB DUP2 ADD SWAP1 PUSH2 0x41A SWAP2 SWAP1 PUSH2 0x224C JUMP JUMPDEST PUSH2 0xDD7 JUMP JUMPDEST PUSH1 0x40 MLOAD PUSH2 0x42C SWAP2 SWAP1 PUSH2 0x25FA JUMP JUMPDEST PUSH1 0x40 MLOAD DUP1 SWAP2 SUB SWAP1 RETURN JUMPDEST CALLVALUE DUP1 ISZERO PUSH2 0x441 JUMPI PUSH1 0x0 DUP1 REVERT JUMPDEST POP PUSH2 0x45C PUSH1 0x4 DUP1 CALLDATASIZE SUB DUP2 ADD SWAP1 PUSH2 0x457 SWAP2 SWAP1 PUSH2 0x2053 JUMP JUMPDEST PUSH2 0xE84 JUMP JUMPDEST PUSH1 0x40 MLOAD PUSH2 0x469 SWAP2 SWAP1 PUSH2 0x289E JUMP JUMPDEST PUSH1 0x40 MLOAD DUP1 SWAP2 SUB SWAP1 RETURN JUMPDEST CALLVALUE DUP1 ISZERO PUSH2 0x47E JUMPI PUSH1 0x0 DUP1 REVERT JUMPDEST POP PUSH2 0x487 PUSH2 0xF3C JUMP JUMPDEST STOP JUMPDEST CALLVALUE DUP1 ISZERO PUSH2 0x495 JUMPI PUSH1 0x0 DUP1 REVERT JUMPDEST POP PUSH2 0x49E PUSH2 0xF50 JUMP JUMPDEST PUSH1 0x40 MLOAD PUSH2 0x4AB SWAP2 SWAP1 PUSH2 0x289E JUMP JUMPDEST PUSH1 0x40 MLOAD DUP1 SWAP2 SUB SWAP1 RETURN JUMPDEST CALLVALUE DUP1 ISZERO PUSH2 0x4C0 JUMPI PUSH1 0x0 DUP1 REVERT JUMPDEST POP PUSH2 0x4C9 PUSH2 0xF5C JUMP JUMPDEST PUSH1 0x40 MLOAD PUSH2 0x4D6 SWAP2 SWAP1 PUSH2 0x25FA JUMP JUMPDEST PUSH1 0x40 MLOAD DUP1 SWAP2 SUB SWAP1 RETURN JUMPDEST CALLVALUE DUP1 ISZERO PUSH2 0x4EB JUMPI PUSH1 0x0 DUP1 REVERT JUMPDEST POP PUSH2 0x4F4 PUSH2 0xF85 JUMP JUMPDEST PUSH1 0x40 MLOAD PUSH2 0x501 SWAP2 SWAP1 PUSH2 0x267C JUMP JUMPDEST PUSH1 0x40 MLOAD DUP1 SWAP2 SUB SWAP1 RETURN JUMPDEST CALLVALUE DUP1 ISZERO PUSH2 0x516 JUMPI PUSH1 0x0 DUP1 REVERT JUMPDEST POP PUSH2 0x531 PUSH1 0x4 DUP1 CALLDATASIZE SUB DUP2 ADD SWAP1 PUSH2 0x52C SWAP2 SWAP1 PUSH2 0x2182 JUMP JUMPDEST PUSH2 0x1013 JUMP JUMPDEST STOP JUMPDEST CALLVALUE DUP1 ISZERO PUSH2 0x53F JUMPI PUSH1 0x0 DUP1 REVERT JUMPDEST POP PUSH2 0x548 PUSH2 0x1110 JUMP JUMPDEST STOP JUMPDEST CALLVALUE DUP1 ISZERO PUSH2 0x556 JUMPI PUSH1 0x0 DUP1 REVERT JUMPDEST POP PUSH2 0x571 PUSH1 0x4 DUP1 CALLDATASIZE SUB DUP2 ADD SWAP1 PUSH2 0x56C SWAP2 SWAP1 PUSH2 0x2107 JUMP JUMPDEST PUSH2 0x11C7 JUMP JUMPDEST STOP JUMPDEST CALLVALUE DUP1 ISZERO PUSH2 0x57F JUMPI PUSH1 0x0 DUP1 REVERT JUMPDEST POP PUSH2 0x59A PUSH1 0x4 DUP1 CALLDATASIZE SUB DUP2 ADD SWAP1 PUSH2 0x595 SWAP2 SWAP1 PUSH2 0x224C JUMP JUMPDEST PUSH2 0x1232 JUMP JUMPDEST PUSH1 0x40 MLOAD PUSH2 0x5A7 SWAP2 SWAP1 PUSH2 0x267C JUMP JUMPDEST PUSH1 0x40 MLOAD DUP1 SWAP2 SUB SWAP1 RETURN JUMPDEST CALLVALUE DUP1 ISZERO PUSH2 0x5BC JUMPI PUSH1 0x0 DUP1 REVERT JUMPDEST POP PUSH2 0x5C5 PUSH2 0x1334 JUMP JUMPDEST PUSH1 0x40 MLOAD PUSH2 0x5D2 SWAP2 SWAP1 PUSH2 0x289E JUMP JUMPDEST PUSH1 0x40 MLOAD DUP1 SWAP2 SUB SWAP1 RETURN JUMPDEST CALLVALUE DUP1 ISZERO PUSH2 0x5E7 JUMPI PUSH1 0x0 DUP1 REVERT JUMPDEST POP PUSH2 0x5F0 PUSH2 0x1340 JUMP JUMPDEST PUSH1 0x40 MLOAD PUSH2 0x5FD SWAP2 SWAP1 PUSH2 0x289E JUMP JUMPDEST PUSH1 0x40 MLOAD DUP1 SWAP2 SUB SWAP1 RETURN JUMPDEST CALLVALUE DUP1 ISZERO PUSH2 0x612 JUMPI PUSH1 0x0 DUP1 REVERT JUMPDEST POP PUSH2 0x62D PUSH1 0x4 DUP1 CALLDATASIZE SUB DUP2 ADD SWAP1 PUSH2 0x628 SWAP2 SWAP1 PUSH2 0x207C JUMP JUMPDEST PUSH2 0x1346 JUMP JUMPDEST PUSH1 0x40 MLOAD PUSH2 0x63A SWAP2 SWAP1 PUSH2 0x2661 JUMP JUMPDEST PUSH1 0x40 MLOAD DUP1 SWAP2 SUB SWAP1 RETURN JUMPDEST CALLVALUE DUP1 ISZERO PUSH2 0x64F JUMPI PUSH1 0x0 DUP1 REVERT JUMPDEST POP PUSH2 0x658 PUSH2 0x13DA JUMP JUMPDEST PUSH1 0x40 MLOAD PUSH2 0x665 SWAP2 SWAP1 PUSH2 0x289E JUMP JUMPDEST PUSH1 0x40 MLOAD DUP1 SWAP2 SUB SWAP1 RETURN JUMPDEST CALLVALUE DUP1 ISZERO PUSH2 0x67A JUMPI PUSH1 0x0 DUP1 REVERT JUMPDEST POP PUSH2 0x695 PUSH1 0x4 DUP1 CALLDATASIZE SUB DUP2 ADD SWAP1 PUSH2 0x690 SWAP2 SWAP1 PUSH2 0x2053 JUMP JUMPDEST PUSH2 0x13E0 JUMP JUMPDEST STOP JUMPDEST PUSH1 0x0 PUSH32 0x80AC58CD00000000000000000000000000000000000000000000000000000000 PUSH28 0xFFFFFFFFFFFFFFFFFFFFFFFFFFFFFFFFFFFFFFFFFFFFFFFFFFFFFFFF NOT AND DUP3 PUSH28 0xFFFFFFFFFFFFFFFFFFFFFFFFFFFFFFFFFFFFFFFFFFFFFFFFFFFFFFFF NOT AND EQ DUP1 PUSH2 0x762 JUMPI POP PUSH32 0x1FFC9A700000000000000000000000000000000000000000000000000000000 PUSH28 0xFFFFFFFFFFFFFFFFFFFFFFFFFFFFFFFFFFFFFFFFFFFFFFFFFFFFFFFF NOT AND DUP3 PUSH28 0xFFFFFFFFFFFFFFFFFFFFFFFFFFFFFFFFFFFFFFFFFFFFFFFFFFFFFFFF NOT AND EQ JUMPDEST DUP1 PUSH2 0x7CA JUMPI POP PUSH32 0x5B5E139F00000000000000000000000000000000000000000000000000000000 PUSH28 0xFFFFFFFFFFFFFFFFFFFFFFFFFFFFFFFFFFFFFFFFFFFFFFFFFFFFFFFF NOT AND DUP3 PUSH28 0xFFFFFFFFFFFFFFFFFFFFFFFFFFFFFFFFFFFFFFFFFFFFFFFFFFFFFFFF NOT AND EQ JUMPDEST SWAP1 POP SWAP2 SWAP1 POP JUMP JUMPDEST PUSH2 0x7D9 PUSH2 0x1464 JUMP JUMPDEST DUP1 PUSH4 0xFFFFFFFF AND PUSH1 0x7 DUP2 SWAP1 SSTORE POP POP JUMP JUMPDEST PUSH1 0x1 DUP1 SLOAD PUSH2 0x7F6 SWAP1 PUSH2 0x2B38 JUMP JUMPDEST DUP1 PUSH1 0x1F ADD PUSH1 0x20 DUP1 SWAP2 DIV MUL PUSH1 0x20 ADD PUSH1 0x40 MLOAD SWAP1 DUP2 ADD PUSH1 0x40 MSTORE DUP1 SWAP3 SWAP2 SWAP1 DUP2 DUP2 MSTORE PUSH1 0x20 ADD DUP3 DUP1 SLOAD PUSH2 0x822 SWAP1 PUSH2 0x2B38 JUMP JUMPDEST DUP1 ISZERO PUSH2 0x86F JUMPI DUP1 PUSH1 0x1F LT PUSH2 0x844 JUMPI PUSH2 0x100 DUP1 DUP4 SLOAD DIV MUL DUP4 MSTORE SWAP2 PUSH1 0x20 ADD SWAP2 PUSH2 0x86F JUMP JUMPDEST DUP3 ADD SWAP2 SWAP1 PUSH1 0x0 MSTORE PUSH1 0x20 PUSH1 0x0 KECCAK256 SWAP1 JUMPDEST DUP2 SLOAD DUP2 MSTORE SWAP1 PUSH1 0x1 ADD SWAP1 PUSH1 0x20 ADD DUP1 DUP4 GT PUSH2 0x852 JUMPI DUP3 SWAP1 SUB PUSH1 0x1F AND DUP3 ADD SWAP2 JUMPDEST POP POP POP POP POP DUP2 JUMP JUMPDEST PUSH1 0x0 DUP1 PUSH20 0xFFFFFFFFFFFFFFFFFFFFFFFFFFFFFFFFFFFFFFFF AND PUSH1 0x3 PUSH1 0x0 DUP5 DUP2 MSTORE PUSH1 0x20 ADD SWAP1 DUP2 MSTORE PUSH1 0x20 ADD PUSH1 0x0 KECCAK256 PUSH1 0x0 SWAP1 SLOAD SWAP1 PUSH2 0x100 EXP SWAP1 DIV PUSH20 0xFFFFFFFFFFFFFFFFFFFFFFFFFFFFFFFFFFFFFFFF AND PUSH20 0xFFFFFFFFFFFFFFFFFFFFFFFFFFFFFFFFFFFFFFFF AND EQ ISZERO PUSH2 0x91B JUMPI PUSH1 0x40 MLOAD PUSH32 0x8C379A000000000000000000000000000000000000000000000000000000000 DUP2 MSTORE PUSH1 0x4 ADD PUSH2 0x912 SWAP1 PUSH2 0x275E JUMP JUMPDEST PUSH1 0x40 MLOAD DUP1 SWAP2 SUB SWAP1 REVERT JUMPDEST PUSH1 0x5 PUSH1 0x0 DUP4 DUP2 MSTORE PUSH1 0x20 ADD SWAP1 DUP2 MSTORE PUSH1 0x20 ADD PUSH1 0x0 KECCAK256 PUSH1 0x0 SWAP1 SLOAD SWAP1 PUSH2 0x100 EXP SWAP1 DIV PUSH20 0xFFFFFFFFFFFFFFFFFFFFFFFFFFFFFFFFFFFFFFFF AND SWAP1 POP SWAP2 SWAP1 POP JUMP JUMPDEST PUSH1 0x0 PUSH1 0x3 PUSH1 0x0 DUP4 DUP2 MSTORE PUSH1 0x20 ADD SWAP1 DUP2 MSTORE PUSH1 0x20 ADD PUSH1 0x0 KECCAK256 PUSH1 0x0 SWAP1 SLOAD SWAP1 PUSH2 0x100 EXP SWAP1 DIV PUSH20 0xFFFFFFFFFFFFFFFFFFFFFFFFFFFFFFFFFFFFFFFF AND SWAP1 POP DUP1 PUSH20 0xFFFFFFFFFFFFFFFFFFFFFFFFFFFFFFFFFFFFFFFF AND CALLER PUSH20 0xFFFFFFFFFFFFFFFFFFFFFFFFFFFFFFFFFFFFFFFF AND EQ DUP1 PUSH2 0xA4E JUMPI POP PUSH1 0x6 PUSH1 0x0 DUP3 PUSH20 0xFFFFFFFFFFFFFFFFFFFFFFFFFFFFFFFFFFFFFFFF AND PUSH20 0xFFFFFFFFFFFFFFFFFFFFFFFFFFFFFFFFFFFFFFFF AND DUP2 MSTORE PUSH1 0x20 ADD SWAP1 DUP2 MSTORE PUSH1 0x20 ADD PUSH1 0x0 KECCAK256 PUSH1 0x0 CALLER PUSH20 0xFFFFFFFFFFFFFFFFFFFFFFFFFFFFFFFFFFFFFFFF AND PUSH20 0xFFFFFFFFFFFFFFFFFFFFFFFFFFFFFFFFFFFFFFFF AND DUP2 MSTORE PUSH1 0x20 ADD SWAP1 DUP2 MSTORE PUSH1 0x20 ADD PUSH1 0x0 KECCAK256 PUSH1 0x0 SWAP1 SLOAD SWAP1 PUSH2 0x100 EXP SWAP1 DIV PUSH1 0xFF AND JUMPDEST PUSH2 0xA8D JUMPI PUSH1 0x40 MLOAD PUSH32 0x8C379A000000000000000000000000000000000000000000000000000000000 DUP2 MSTORE PUSH1 0x4 ADD PUSH2 0xA84 SWAP1 PUSH2 0x26FE JUMP JUMPDEST PUSH1 0x40 MLOAD DUP1 SWAP2 SUB SWAP1 REVERT JUMPDEST PUSH2 0xA98 DUP2 DUP5 DUP5 PUSH2 0x14E2 JUMP JUMPDEST POP POP POP JUMP JUMPDEST PUSH1 0x0 PUSH1 0x9 DUP1 SLOAD SWAP1 POP SWAP1 POP SWAP1 JUMP JUMPDEST PUSH1 0x0 PUSH2 0xAB5 DUP3 PUSH2 0xDD7 JUMP JUMPDEST SWAP1 POP PUSH2 0xAC2 DUP2 CALLER DUP5 PUSH2 0x1594 JUMP JUMPDEST PUSH2 0xB01 JUMPI PUSH1 0x40 MLOAD PUSH32 0x8C379A000000000000000000000000000000000000000000000000000000000 DUP2 MSTORE PUSH1 0x4 ADD PUSH2 0xAF8 SWAP1 PUSH2 0x269E JUMP JUMPDEST PUSH1 0x40 MLOAD DUP1 SWAP2 SUB SWAP1 REVERT JUMPDEST PUSH2 0xB0D DUP2 DUP6 DUP6 DUP6 PUSH2 0x16C8 JUMP JUMPDEST POP POP POP POP JUMP JUMPDEST PUSH2 0x2710 DUP2 JUMP JUMPDEST PUSH2 0xB34 DUP4 DUP4 DUP4 PUSH1 0x40 MLOAD DUP1 PUSH1 0x20 ADD PUSH1 0x40 MSTORE DUP1 PUSH1 0x0 DUP2 MSTORE POP PUSH2 0x11C7 JUMP JUMPDEST POP POP POP JUMP JUMPDEST PUSH1 0x0 PUSH1 0x7 SLOAD TIMESTAMP LT ISZERO PUSH2 0xB55 JUMPI PUSH8 0xDE0B6B3A7640000 SWAP1 POP PUSH2 0xBF0 JUMP JUMPDEST PUSH2 0x258 PUSH1 0x7 SLOAD TIMESTAMP PUSH2 0xB66 SWAP2 SWAP1 PUSH2 0x2A3E JUMP JUMPDEST LT PUSH2 0xB7B JUMPI PUSH8 0x16345785D8A0000 SWAP1 POP PUSH2 0xBF0 JUMP JUMPDEST PUSH1 0x0 PUSH1 0x3C PUSH1 0x7 SLOAD TIMESTAMP PUSH2 0xB8D SWAP2 SWAP1 PUSH2 0x2A3E JUMP JUMPDEST PUSH2 0xB97 SWAP2 SWAP1 PUSH2 0x29B3 JUMP JUMPDEST SWAP1 POP PUSH1 0x3C PUSH2 0x258 PUSH2 0xBA8 SWAP2 SWAP1 PUSH2 0x29B3 JUMP JUMPDEST PUSH8 0x16345785D8A0000 PUSH8 0xDE0B6B3A7640000 PUSH2 0xBC4 SWAP2 SWAP1 PUSH2 0x2A3E JUMP JUMPDEST PUSH2 0xBCE SWAP2 SWAP1 PUSH2 0x29B3 JUMP JUMPDEST DUP2 PUSH2 0xBD9 SWAP2 SWAP1 PUSH2 0x29E4 JUMP JUMPDEST PUSH8 0xDE0B6B3A7640000 PUSH2 0xBEC SWAP2 SWAP1 PUSH2 0x2A3E JUMP JUMPDEST SWAP2 POP POP JUMPDEST SWAP1 JUMP JUMPDEST PUSH1 0x0 PUSH1 0x7 SLOAD SWAP1 POP PUSH1 0x0 DUP2 EQ ISZERO DUP1 ISZERO PUSH2 0xC0B JUMPI POP DUP1 TIMESTAMP LT ISZERO JUMPDEST PUSH2 0xC4A JUMPI PUSH1 0x40 MLOAD PUSH32 0x8C379A000000000000000000000000000000000000000000000000000000000 DUP2 MSTORE PUSH1 0x4 ADD PUSH2 0xC41 SWAP1 PUSH2 0x271E JUMP JUMPDEST PUSH1 0x40 MLOAD DUP1 SWAP2 SUB SWAP1 REVERT JUMPDEST PUSH2 0x2710 DUP3 PUSH2 0xC56 PUSH2 0xA9D JUMP JUMPDEST PUSH2 0xC60 SWAP2 SWAP1 PUSH2 0x295D JUMP JUMPDEST GT ISZERO PUSH2 0xCA1 JUMPI PUSH1 0x40 MLOAD PUSH32 0x8C379A000000000000000000000000000000000000000000000000000000000 DUP2 MSTORE PUSH1 0x4 ADD PUSH2 0xC98 SWAP1 PUSH2 0x285E JUMP JUMPDEST PUSH1 0x40 MLOAD DUP1 SWAP2 SUB SWAP1 REVERT JUMPDEST PUSH1 0x0 DUP3 PUSH2 0xCAC PUSH2 0xB39 JUMP JUMPDEST PUSH2 0xCB6 SWAP2 SWAP1 PUSH2 0x29E4 JUMP JUMPDEST SWAP1 POP DUP1 CALLVALUE LT ISZERO PUSH2 0xCFB JUMPI PUSH1 0x40 MLOAD PUSH32 0x8C379A000000000000000000000000000000000000000000000000000000000 DUP2 MSTORE PUSH1 0x4 ADD PUSH2 0xCF2 SWAP1 PUSH2 0x281E JUMP JUMPDEST PUSH1 0x40 MLOAD DUP1 SWAP2 SUB SWAP1 REVERT JUMPDEST PUSH1 0x0 JUMPDEST DUP4 DUP2 LT ISZERO PUSH2 0xD39 JUMPI PUSH1 0x0 PUSH2 0xD10 PUSH2 0xA9D JUMP JUMPDEST SWAP1 POP PUSH2 0xD1C CALLER DUP3 PUSH2 0x1913 JUMP JUMPDEST PUSH2 0xD25 DUP2 PUSH2 0x1B2E JUMP JUMPDEST POP DUP1 DUP1 PUSH2 0xD31 SWAP1 PUSH2 0x2B9B JUMP JUMPDEST SWAP2 POP POP PUSH2 0xCFE JUMP JUMPDEST POP DUP1 CALLVALUE GT ISZERO PUSH2 0xD95 JUMPI CALLER PUSH20 0xFFFFFFFFFFFFFFFFFFFFFFFFFFFFFFFFFFFFFFFF AND PUSH2 0x8FC DUP3 CALLVALUE PUSH2 0xD68 SWAP2 SWAP1 PUSH2 0x2A3E JUMP JUMPDEST SWAP1 DUP2 ISZERO MUL SWAP1 PUSH1 0x40 MLOAD PUSH1 0x0 PUSH1 0x40 MLOAD DUP1 DUP4 SUB DUP2 DUP6 DUP9 DUP9 CALL SWAP4 POP POP POP POP ISZERO DUP1 ISZERO PUSH2 0xD93 JUMPI RETURNDATASIZE PUSH1 0x0 DUP1 RETURNDATACOPY RETURNDATASIZE PUSH1 0x0 REVERT JUMPDEST POP JUMPDEST POP POP POP JUMP JUMPDEST PUSH1 0x3C PUSH2 0x258 PUSH2 0xDA9 SWAP2 SWAP1 PUSH2 0x29B3 JUMP JUMPDEST PUSH8 0x16345785D8A0000 PUSH8 0xDE0B6B3A7640000 PUSH2 0xDC5 SWAP2 SWAP1 PUSH2 0x2A3E JUMP JUMPDEST PUSH2 0xDCF SWAP2 SWAP1 PUSH2 0x29B3 JUMP JUMPDEST DUP2 JUMP JUMPDEST PUSH1 0x3C DUP2 JUMP JUMPDEST PUSH1 0x0 PUSH1 0x3 PUSH1 0x0 DUP4 DUP2 MSTORE PUSH1 0x20 ADD SWAP1 DUP2 MSTORE PUSH1 0x20 ADD PUSH1 0x0 KECCAK256 PUSH1 0x0 SWAP1 SLOAD SWAP1 PUSH2 0x100 EXP SWAP1 DIV PUSH20 0xFFFFFFFFFFFFFFFFFFFFFFFFFFFFFFFFFFFFFFFF AND SWAP1 POP PUSH1 0x0 PUSH20 0xFFFFFFFFFFFFFFFFFFFFFFFFFFFFFFFFFFFFFFFF AND DUP2 PUSH20 0xFFFFFFFFFFFFFFFFFFFFFFFFFFFFFFFFFFFFFFFF AND EQ ISZERO PUSH2 0xE7F JUMPI PUSH1 0x40 MLOAD PUSH32 0x8C379A000000000000000000000000000000000000000000000000000000000 DUP2 MSTORE PUSH1 0x4 ADD PUSH2 0xE76 SWAP1 PUSH2 0x275E JUMP JUMPDEST PUSH1 0x40 MLOAD DUP1 SWAP2 SUB SWAP1 REVERT JUMPDEST SWAP2 SWAP1 POP JUMP JUMPDEST PUSH1 0x0 DUP1 PUSH20 0xFFFFFFFFFFFFFFFFFFFFFFFFFFFFFFFFFFFFFFFF AND DUP3 PUSH20 0xFFFFFFFFFFFFFFFFFFFFFFFFFFFFFFFFFFFFFFFF AND EQ ISZERO PUSH2 0xEF5 JUMPI PUSH1 0x40 MLOAD PUSH32 0x8C379A000000000000000000000000000000000000000000000000000000000 DUP2 MSTORE PUSH1 0x4 ADD PUSH2 0xEEC SWAP1 PUSH2 0x277E JUMP JUMPDEST PUSH1 0x40 MLOAD DUP1 SWAP2 SUB SWAP1 REVERT JUMPDEST PUSH1 0x4 PUSH1 0x0 DUP4 PUSH20 0xFFFFFFFFFFFFFFFFFFFFFFFFFFFFFFFFFFFFFFFF AND PUSH20 0xFFFFFFFFFFFFFFFFFFFFFFFFFFFFFFFFFFFFFFFF AND DUP2 MSTORE PUSH1 0x20 ADD SWAP1 DUP2 MSTORE PUSH1 0x20 ADD PUSH1 0x0 KECCAK256 SLOAD SWAP1 POP SWAP2 SWAP1 POP JUMP JUMPDEST PUSH2 0xF44 PUSH2 0x1464 JUMP JUMPDEST PUSH2 0xF4E PUSH1 0x0 PUSH2 0x1B5A JUMP JUMPDEST JUMP JUMPDEST PUSH8 0xDE0B6B3A7640000 DUP2 JUMP JUMPDEST PUSH1 0x0 DUP1 PUSH1 0x0 SWAP1 SLOAD SWAP1 PUSH2 0x100 EXP SWAP1 DIV PUSH20 0xFFFFFFFFFFFFFFFFFFFFFFFFFFFFFFFFFFFFFFFF AND SWAP1 POP SWAP1 JUMP JUMPDEST PUSH1 0x2 DUP1 SLOAD PUSH2 0xF92 SWAP1 PUSH2 0x2B38 JUMP JUMPDEST DUP1 PUSH1 0x1F ADD PUSH1 0x20 DUP1 SWAP2 DIV MUL PUSH1 0x20 ADD PUSH1 0x40 MLOAD SWAP1 DUP2 ADD PUSH1 0x40 MSTORE DUP1 SWAP3 SWAP2 SWAP1 DUP2 DUP2 MSTORE PUSH1 0x20 ADD DUP3 DUP1 SLOAD PUSH2 0xFBE SWAP1 PUSH2 0x2B38 JUMP JUMPDEST DUP1 ISZERO PUSH2 0x100B JUMPI DUP1 PUSH1 0x1F LT PUSH2 0xFE0 JUMPI PUSH2 0x100 DUP1 DUP4 SLOAD DIV MUL DUP4 MSTORE SWAP2 PUSH1 0x20 ADD SWAP2 PUSH2 0x100B JUMP JUMPDEST DUP3 ADD SWAP2 SWAP1 PUSH1 0x0 MSTORE PUSH1 0x20 PUSH1 0x0 KECCAK256 SWAP1 JUMPDEST DUP2 SLOAD DUP2 MSTORE SWAP1 PUSH1 0x1 ADD SWAP1 PUSH1 0x20 ADD DUP1 DUP4 GT PUSH2 0xFEE JUMPI DUP3 SWAP1 SUB PUSH1 0x1F AND DUP3 ADD SWAP2 JUMPDEST POP POP POP POP POP DUP2 JUMP JUMPDEST DUP1 PUSH1 0x6 PUSH1 0x0 CALLER PUSH20 0xFFFFFFFFFFFFFFFFFFFFFFFFFFFFFFFFFFFFFFFF AND PUSH20 0xFFFFFFFFFFFFFFFFFFFFFFFFFFFFFFFFFFFFFFFF AND DUP2 MSTORE PUSH1 0x20 ADD SWAP1 DUP2 MSTORE PUSH1 0x20 ADD PUSH1 0x0 KECCAK256 PUSH1 0x0 DUP5 PUSH20 0xFFFFFFFFFFFFFFFFFFFFFFFFFFFFFFFFFFFFFFFF AND PUSH20 0xFFFFFFFFFFFFFFFFFFFFFFFFFFFFFFFFFFFFFFFF AND DUP2 MSTORE PUSH1 0x20 ADD SWAP1 DUP2 MSTORE PUSH1 0x20 ADD PUSH1 0x0 KECCAK256 PUSH1 0x0 PUSH2 0x100 EXP DUP2 SLOAD DUP2 PUSH1 0xFF MUL NOT AND SWAP1 DUP4 ISZERO ISZERO MUL OR SWAP1 SSTORE POP DUP2 PUSH20 0xFFFFFFFFFFFFFFFFFFFFFFFFFFFFFFFFFFFFFFFF AND CALLER PUSH20 0xFFFFFFFFFFFFFFFFFFFFFFFFFFFFFFFFFFFFFFFF AND PUSH32 0x17307EAB39AB6107E8899845AD3D59BD9653F200F220920489CA2B5937696C31 DUP4 PUSH1 0x40 MLOAD PUSH2 0x1104 SWAP2 SWAP1 PUSH2 0x2661 JUMP JUMPDEST PUSH1 0x40 MLOAD DUP1 SWAP2 SUB SWAP1 LOG3 POP POP JUMP JUMPDEST PUSH2 0x1118 PUSH2 0x1464 JUMP JUMPDEST PUSH1 0x0 CALLER PUSH20 0xFFFFFFFFFFFFFFFFFFFFFFFFFFFFFFFFFFFFFFFF AND SELFBALANCE PUSH1 0x40 MLOAD PUSH2 0x113E SWAP1 PUSH2 0x25E5 JUMP JUMPDEST PUSH1 0x0 PUSH1 0x40 MLOAD DUP1 DUP4 SUB DUP2 DUP6 DUP8 GAS CALL SWAP3 POP POP POP RETURNDATASIZE DUP1 PUSH1 0x0 DUP2 EQ PUSH2 0x117B JUMPI PUSH1 0x40 MLOAD SWAP2 POP PUSH1 0x1F NOT PUSH1 0x3F RETURNDATASIZE ADD AND DUP3 ADD PUSH1 0x40 MSTORE RETURNDATASIZE DUP3 MSTORE RETURNDATASIZE PUSH1 0x0 PUSH1 0x20 DUP5 ADD RETURNDATACOPY PUSH2 0x1180 JUMP JUMPDEST PUSH1 0x60 SWAP2 POP JUMPDEST POP POP SWAP1 POP DUP1 PUSH2 0x11C4 JUMPI PUSH1 0x40 MLOAD PUSH32 0x8C379A000000000000000000000000000000000000000000000000000000000 DUP2 MSTORE PUSH1 0x4 ADD PUSH2 0x11BB SWAP1 PUSH2 0x27FE JUMP JUMPDEST PUSH1 0x40 MLOAD DUP1 SWAP2 SUB SWAP1 REVERT JUMPDEST POP JUMP JUMPDEST PUSH1 0x0 PUSH2 0x11D2 DUP4 PUSH2 0xDD7 JUMP JUMPDEST SWAP1 POP PUSH2 0x11DF DUP2 CALLER DUP6 PUSH2 0x1594 JUMP JUMPDEST PUSH2 0x121E JUMPI PUSH1 0x40 MLOAD PUSH32 0x8C379A000000000000000000000000000000000000000000000000000000000 DUP2 MSTORE PUSH1 0x4 ADD PUSH2 0x1215 SWAP1 PUSH2 0x269E JUMP JUMPDEST PUSH1 0x40 MLOAD DUP1 SWAP2 SUB SWAP1 REVERT JUMPDEST PUSH2 0x122B DUP2 DUP7 DUP7 DUP7 DUP7 PUSH2 0x1C1E JUMP JUMPDEST POP POP POP POP POP JUMP JUMPDEST PUSH1 0x60 PUSH1 0x0 PUSH20 0xFFFFFFFFFFFFFFFFFFFFFFFFFFFFFFFFFFFFFFFF AND PUSH1 0x3 PUSH1 0x0 DUP5 DUP2 MSTORE PUSH1 0x20 ADD SWAP1 DUP2 MSTORE PUSH1 0x20 ADD PUSH1 0x0 KECCAK256 PUSH1 0x0 SWAP1 SLOAD SWAP1 PUSH2 0x100 EXP SWAP1 DIV PUSH20 0xFFFFFFFFFFFFFFFFFFFFFFFFFFFFFFFFFFFFFFFF AND PUSH20 0xFFFFFFFFFFFFFFFFFFFFFFFFFFFFFFFFFFFFFFFF AND EQ ISZERO PUSH2 0x12D7 JUMPI PUSH1 0x40 MLOAD PUSH32 0x8C379A000000000000000000000000000000000000000000000000000000000 DUP2 MSTORE PUSH1 0x4 ADD PUSH2 0x12CE SWAP1 PUSH2 0x27BE JUMP JUMPDEST PUSH1 0x40 MLOAD DUP1 SWAP2 SUB SWAP1 REVERT JUMPDEST PUSH1 0x0 PUSH2 0x12E1 PUSH2 0x1C7C JUMP JUMPDEST SWAP1 POP PUSH1 0x0 DUP2 MLOAD GT PUSH2 0x1301 JUMPI PUSH1 0x40 MLOAD DUP1 PUSH1 0x20 ADD PUSH1 0x40 MSTORE DUP1 PUSH1 0x0 DUP2 MSTORE POP PUSH2 0x132C JUMP JUMPDEST DUP1 PUSH2 0x130B DUP5 PUSH2 0x1C93 JUMP JUMPDEST PUSH1 0x40 MLOAD PUSH1 0x20 ADD PUSH2 0x131C SWAP3 SWAP2 SWAP1 PUSH2 0x25C1 JUMP JUMPDEST PUSH1 0x40 MLOAD PUSH1 0x20 DUP2 DUP4 SUB SUB DUP2 MSTORE SWAP1 PUSH1 0x40 MSTORE JUMPDEST SWAP2 POP POP SWAP2 SWAP1 POP JUMP JUMPDEST PUSH8 0x16345785D8A0000 DUP2 JUMP JUMPDEST PUSH2 0x258 DUP2 JUMP JUMPDEST PUSH1 0x0 PUSH1 0x6 PUSH1 0x0 DUP5 PUSH20 0xFFFFFFFFFFFFFFFFFFFFFFFFFFFFFFFFFFFFFFFF AND PUSH20 0xFFFFFFFFFFFFFFFFFFFFFFFFFFFFFFFFFFFFFFFF AND DUP2 MSTORE PUSH1 0x20 ADD SWAP1 DUP2 MSTORE PUSH1 0x20 ADD PUSH1 0x0 KECCAK256 PUSH1 0x0 DUP4 PUSH20 0xFFFFFFFFFFFFFFFFFFFFFFFFFFFFFFFFFFFFFFFF AND PUSH20 0xFFFFFFFFFFFFFFFFFFFFFFFFFFFFFFFFFFFFFFFF AND DUP2 MSTORE PUSH1 0x20 ADD SWAP1 DUP2 MSTORE PUSH1 0x20 ADD PUSH1 0x0 KECCAK256 PUSH1 0x0 SWAP1 SLOAD SWAP1 PUSH2 0x100 EXP SWAP1 DIV PUSH1 0xFF AND SWAP1 POP SWAP3 SWAP2 POP POP JUMP JUMPDEST PUSH1 0x7 SLOAD DUP2 JUMP JUMPDEST PUSH2 0x13E8 PUSH2 0x1464 JUMP JUMPDEST PUSH1 0x0 PUSH20 0xFFFFFFFFFFFFFFFFFFFFFFFFFFFFFFFFFFFFFFFF AND DUP2 PUSH20 0xFFFFFFFFFFFFFFFFFFFFFFFFFFFFFFFFFFFFFFFF AND EQ ISZERO PUSH2 0x1458 JUMPI PUSH1 0x40 MLOAD PUSH32 0x8C379A000000000000000000000000000000000000000000000000000000000 DUP2 MSTORE PUSH1 0x4 ADD PUSH2 0x144F SWAP1 PUSH2 0x26BE JUMP JUMPDEST PUSH1 0x40 MLOAD DUP1 SWAP2 SUB SWAP1 REVERT JUMPDEST PUSH2 0x1461 DUP2 PUSH2 0x1B5A JUMP JUMPDEST POP JUMP JUMPDEST PUSH2 0x146C PUSH2 0x1E40 JUMP JUMPDEST PUSH20 0xFFFFFFFFFFFFFFFFFFFFFFFFFFFFFFFFFFFFFFFF AND PUSH2 0x148A PUSH2 0xF5C JUMP JUMPDEST PUSH20 0xFFFFFFFFFFFFFFFFFFFFFFFFFFFFFFFFFFFFFFFF AND EQ PUSH2 0x14E0 JUMPI PUSH1 0x40 MLOAD PUSH32 0x8C379A000000000000000000000000000000000000000000000000000000000 DUP2 MSTORE PUSH1 0x4 ADD PUSH2 0x14D7 SWAP1 PUSH2 0x279E JUMP JUMPDEST PUSH1 0x40 MLOAD DUP1 SWAP2 SUB SWAP1 REVERT JUMPDEST JUMP JUMPDEST DUP2 PUSH1 0x5 PUSH1 0x0 DUP4 DUP2 MSTORE PUSH1 0x20 ADD SWAP1 DUP2 MSTORE PUSH1 0x20 ADD PUSH1 0x0 KECCAK256 PUSH1 0x0 PUSH2 0x100 EXP DUP2 SLOAD DUP2 PUSH20 0xFFFFFFFFFFFFFFFFFFFFFFFFFFFFFFFFFFFFFFFF MUL NOT AND SWAP1 DUP4 PUSH20 0xFFFFFFFFFFFFFFFFFFFFFFFFFFFFFFFFFFFFFFFF AND MUL OR SWAP1 SSTORE POP DUP1 DUP3 PUSH20 0xFFFFFFFFFFFFFFFFFFFFFFFFFFFFFFFFFFFFFFFF AND DUP5 PUSH20 0xFFFFFFFFFFFFFFFFFFFFFFFFFFFFFFFFFFFFFFFF AND PUSH32 0x8C5BE1E5EBEC7D5BD14F71427D1E84F3DD0314C0F7B2291E5B200AC8C7C3B925 PUSH1 0x40 MLOAD PUSH1 0x40 MLOAD DUP1 SWAP2 SUB SWAP1 LOG4 POP POP POP JUMP JUMPDEST PUSH1 0x0 DUP4 PUSH20 0xFFFFFFFFFFFFFFFFFFFFFFFFFFFFFFFFFFFFFFFF AND DUP4 PUSH20 0xFFFFFFFFFFFFFFFFFFFFFFFFFFFFFFFFFFFFFFFF AND EQ DUP1 PUSH2 0x162E JUMPI POP DUP3 PUSH20 0xFFFFFFFFFFFFFFFFFFFFFFFFFFFFFFFFFFFFFFFF AND PUSH1 0x5 PUSH1 0x0 DUP5 DUP2 MSTORE PUSH1 0x20 ADD SWAP1 DUP2 MSTORE PUSH1 0x20 ADD PUSH1 0x0 KECCAK256 PUSH1 0x0 SWAP1 SLOAD SWAP1 PUSH2 0x100 EXP SWAP1 DIV PUSH20 0xFFFFFFFFFFFFFFFFFFFFFFFFFFFFFFFFFFFFFFFF AND PUSH20 0xFFFFFFFFFFFFFFFFFFFFFFFFFFFFFFFFFFFFFFFF AND EQ JUMPDEST DUP1 PUSH2 0x16BF JUMPI POP PUSH1 0x6 PUSH1 0x0 DUP6 PUSH20 0xFFFFFFFFFFFFFFFFFFFFFFFFFFFFFFFFFFFFFFFF AND PUSH20 0xFFFFFFFFFFFFFFFFFFFFFFFFFFFFFFFFFFFFFFFF AND DUP2 MSTORE PUSH1 0x20 ADD SWAP1 DUP2 MSTORE PUSH1 0x20 ADD PUSH1 0x0 KECCAK256 PUSH1 0x0 DUP5 PUSH20 0xFFFFFFFFFFFFFFFFFFFFFFFFFFFFFFFFFFFFFFFF AND PUSH20 0xFFFFFFFFFFFFFFFFFFFFFFFFFFFFFFFFFFFFFFFF AND DUP2 MSTORE PUSH1 0x20 ADD SWAP1 DUP2 MSTORE PUSH1 0x20 ADD PUSH1 0x0 KECCAK256 PUSH1 0x0 SWAP1 SLOAD SWAP1 PUSH2 0x100 EXP SWAP1 DIV PUSH1 0xFF AND JUMPDEST SWAP1 POP SWAP4 SWAP3 POP POP POP JUMP JUMPDEST DUP4 PUSH20 0xFFFFFFFFFFFFFFFFFFFFFFFFFFFFFFFFFFFFFFFF AND DUP4 PUSH20 0xFFFFFFFFFFFFFFFFFFFFFFFFFFFFFFFFFFFFFFFF AND EQ PUSH2 0x1736 JUMPI PUSH1 0x40 MLOAD PUSH32 0x8C379A000000000000000000000000000000000000000000000000000000000 DUP2 MSTORE PUSH1 0x4 ADD PUSH2 0x172D SWAP1 PUSH2 0x287E JUMP JUMPDEST PUSH1 0x40 MLOAD DUP1 SWAP2 SUB SWAP1 REVERT JUMPDEST PUSH1 0x0 PUSH20 0xFFFFFFFFFFFFFFFFFFFFFFFFFFFFFFFFFFFFFFFF AND DUP3 PUSH20 0xFFFFFFFFFFFFFFFFFFFFFFFFFFFFFFFFFFFFFFFF AND EQ ISZERO PUSH2 0x17A6 JUMPI PUSH1 0x40 MLOAD PUSH32 0x8C379A000000000000000000000000000000000000000000000000000000000 DUP2 MSTORE PUSH1 0x4 ADD PUSH2 0x179D SWAP1 PUSH2 0x26DE JUMP JUMPDEST PUSH1 0x40 MLOAD DUP1 SWAP2 SUB SWAP1 REVERT JUMPDEST PUSH2 0x17B2 DUP5 PUSH1 0x0 DUP4 PUSH2 0x14E2 JUMP JUMPDEST PUSH1 0x1 PUSH1 0x4 PUSH1 0x0 DUP6 PUSH20 0xFFFFFFFFFFFFFFFFFFFFFFFFFFFFFFFFFFFFFFFF AND PUSH20 0xFFFFFFFFFFFFFFFFFFFFFFFFFFFFFFFFFFFFFFFF AND DUP2 MSTORE PUSH1 0x20 ADD SWAP1 DUP2 MSTORE PUSH1 0x20 ADD PUSH1 0x0 KECCAK256 PUSH1 0x0 DUP3 DUP3 SLOAD PUSH2 0x1802 SWAP2 SWAP1 PUSH2 0x2A3E JUMP JUMPDEST SWAP3 POP POP DUP2 SWAP1 SSTORE POP PUSH1 0x1 PUSH1 0x4 PUSH1 0x0 DUP5 PUSH20 0xFFFFFFFFFFFFFFFFFFFFFFFFFFFFFFFFFFFFFFFF AND PUSH20 0xFFFFFFFFFFFFFFFFFFFFFFFFFFFFFFFFFFFFFFFF AND DUP2 MSTORE PUSH1 0x20 ADD SWAP1 DUP2 MSTORE PUSH1 0x20 ADD PUSH1 0x0 KECCAK256 PUSH1 0x0 DUP3 DUP3 SLOAD PUSH2 0x1859 SWAP2 SWAP1 PUSH2 0x295D JUMP JUMPDEST SWAP3 POP POP DUP2 SWAP1 SSTORE POP DUP2 PUSH1 0x3 PUSH1 0x0 DUP4 DUP2 MSTORE PUSH1 0x20 ADD SWAP1 DUP2 MSTORE PUSH1 0x20 ADD PUSH1 0x0 KECCAK256 PUSH1 0x0 PUSH2 0x100 EXP DUP2 SLOAD DUP2 PUSH20 0xFFFFFFFFFFFFFFFFFFFFFFFFFFFFFFFFFFFFFFFF MUL NOT AND SWAP1 DUP4 PUSH20 0xFFFFFFFFFFFFFFFFFFFFFFFFFFFFFFFFFFFFFFFF AND MUL OR SWAP1 SSTORE POP DUP1 DUP3 PUSH20 0xFFFFFFFFFFFFFFFFFFFFFFFFFFFFFFFFFFFFFFFF AND DUP5 PUSH20 0xFFFFFFFFFFFFFFFFFFFFFFFFFFFFFFFFFFFFFFFF AND PUSH32 0xDDF252AD1BE2C89B69C2B068FC378DAA952BA7F163C4A11628F55A4DF523B3EF PUSH1 0x40 MLOAD PUSH1 0x40 MLOAD DUP1 SWAP2 SUB SWAP1 LOG4 POP POP POP POP JUMP JUMPDEST PUSH1 0x0 PUSH20 0xFFFFFFFFFFFFFFFFFFFFFFFFFFFFFFFFFFFFFFFF AND DUP3 PUSH20 0xFFFFFFFFFFFFFFFFFFFFFFFFFFFFFFFFFFFFFFFF AND EQ ISZERO PUSH2 0x1983 JUMPI PUSH1 0x40 MLOAD PUSH32 0x8C379A000000000000000000000000000000000000000000000000000000000 DUP2 MSTORE PUSH1 0x4 ADD PUSH2 0x197A SWAP1 PUSH2 0x273E JUMP JUMPDEST PUSH1 0x40 MLOAD DUP1 SWAP2 SUB SWAP1 REVERT JUMPDEST PUSH1 0x0 PUSH20 0xFFFFFFFFFFFFFFFFFFFFFFFFFFFFFFFFFFFFFFFF AND PUSH1 0x3 PUSH1 0x0 DUP4 DUP2 MSTORE PUSH1 0x20 ADD SWAP1 DUP2 MSTORE PUSH1 0x20 ADD PUSH1 0x0 KECCAK256 PUSH1 0x0 SWAP1 SLOAD SWAP1 PUSH2 0x100 EXP SWAP1 DIV PUSH20 0xFFFFFFFFFFFFFFFFFFFFFFFFFFFFFFFFFFFFFFFF AND PUSH20 0xFFFFFFFFFFFFFFFFFFFFFFFFFFFFFFFFFFFFFFFF AND EQ PUSH2 0x1A25 JUMPI PUSH1 0x40 MLOAD PUSH32 0x8C379A000000000000000000000000000000000000000000000000000000000 DUP2 MSTORE PUSH1 0x4 ADD PUSH2 0x1A1C SWAP1 PUSH2 0x27DE JUMP JUMPDEST PUSH1 0x40 MLOAD DUP1 SWAP2 SUB SWAP1 REVERT JUMPDEST PUSH1 0x1 PUSH1 0x4 PUSH1 0x0 DUP5 PUSH20 0xFFFFFFFFFFFFFFFFFFFFFFFFFFFFFFFFFFFFFFFF AND PUSH20 0xFFFFFFFFFFFFFFFFFFFFFFFFFFFFFFFFFFFFFFFF AND DUP2 MSTORE PUSH1 0x20 ADD SWAP1 DUP2 MSTORE PUSH1 0x20 ADD PUSH1 0x0 KECCAK256 PUSH1 0x0 DUP3 DUP3 SLOAD PUSH2 0x1A75 SWAP2 SWAP1 PUSH2 0x295D JUMP JUMPDEST SWAP3 POP POP DUP2 SWAP1 SSTORE POP DUP2 PUSH1 0x3 PUSH1 0x0 DUP4 DUP2 MSTORE PUSH1 0x20 ADD SWAP1 DUP2 MSTORE PUSH1 0x20 ADD PUSH1 0x0 KECCAK256 PUSH1 0x0 PUSH2 0x100 EXP DUP2 SLOAD DUP2 PUSH20 0xFFFFFFFFFFFFFFFFFFFFFFFFFFFFFFFFFFFFFFFF MUL NOT AND SWAP1 DUP4 PUSH20 0xFFFFFFFFFFFFFFFFFFFFFFFFFFFFFFFFFFFFFFFF AND MUL OR SWAP1 SSTORE POP DUP1 DUP3 PUSH20 0xFFFFFFFFFFFFFFFFFFFFFFFFFFFFFFFFFFFFFFFF AND PUSH1 0x0 PUSH20 0xFFFFFFFFFFFFFFFFFFFFFFFFFFFFFFFFFFFFFFFF AND PUSH32 0xDDF252AD1BE2C89B69C2B068FC378DAA952BA7F163C4A11628F55A4DF523B3EF PUSH1 0x40 MLOAD PUSH1 0x40 MLOAD DUP1 SWAP2 SUB SWAP1 LOG4 POP POP JUMP JUMPDEST PUSH1 0x9 DUP2 SWAP1 DUP1 PUSH1 0x1 DUP2 SLOAD ADD DUP1 DUP3 SSTORE DUP1 SWAP2 POP POP PUSH1 0x1 SWAP1 SUB SWAP1 PUSH1 0x0 MSTORE PUSH1 0x20 PUSH1 0x0 KECCAK256 ADD PUSH1 0x0 SWAP1 SWAP2 SWAP1 SWAP2 SWAP1 SWAP2 POP SSTORE POP JUMP JUMPDEST PUSH1 0x0 DUP1 PUSH1 0x0 SWAP1 SLOAD SWAP1 PUSH2 0x100 EXP SWAP1 DIV PUSH20 0xFFFFFFFFFFFFFFFFFFFFFFFFFFFFFFFFFFFFFFFF AND SWAP1 POP DUP2 PUSH1 0x0 DUP1 PUSH2 0x100 EXP DUP2 SLOAD DUP2 PUSH20 0xFFFFFFFFFFFFFFFFFFFFFFFFFFFFFFFFFFFFFFFF MUL NOT AND SWAP1 DUP4 PUSH20 0xFFFFFFFFFFFFFFFFFFFFFFFFFFFFFFFFFFFFFFFF AND MUL OR SWAP1 SSTORE POP DUP2 PUSH20 0xFFFFFFFFFFFFFFFFFFFFFFFFFFFFFFFFFFFFFFFF AND DUP2 PUSH20 0xFFFFFFFFFFFFFFFFFFFFFFFFFFFFFFFFFFFFFFFF AND PUSH32 0x8BE0079C531659141344CD1FD0A4F28419497F9722A3DAAFE3B4186F6B6457E0 PUSH1 0x40 MLOAD PUSH1 0x40 MLOAD DUP1 SWAP2 SUB SWAP1 LOG3 POP POP JUMP JUMPDEST PUSH2 0x1C2A DUP6 DUP6 DUP6 DUP6 PUSH2 0x16C8 JUMP JUMPDEST PUSH2 0x1C36 DUP5 DUP5 DUP5 DUP5 PUSH2 0x1E48 JUMP JUMPDEST PUSH2 0x1C75 JUMPI PUSH1 0x40 MLOAD PUSH32 0x8C379A000000000000000000000000000000000000000000000000000000000 DUP2 MSTORE PUSH1 0x4 ADD PUSH2 0x1C6C SWAP1 PUSH2 0x283E JUMP JUMPDEST PUSH1 0x40 MLOAD DUP1 SWAP2 SUB SWAP1 REVERT JUMPDEST POP POP POP POP POP JUMP JUMPDEST PUSH1 0x60 PUSH1 0x40 MLOAD DUP1 PUSH1 0x20 ADD PUSH1 0x40 MSTORE DUP1 PUSH1 0x0 DUP2 MSTORE POP SWAP1 POP SWAP1 JUMP JUMPDEST PUSH1 0x60 PUSH1 0x0 DUP3 EQ ISZERO PUSH2 0x1CDB JUMPI PUSH1 0x40 MLOAD DUP1 PUSH1 0x40 ADD PUSH1 0x40 MSTORE DUP1 PUSH1 0x1 DUP2 MSTORE PUSH1 0x20 ADD PUSH32 0x3000000000000000000000000000000000000000000000000000000000000000 DUP2 MSTORE POP SWAP1 POP PUSH2 0x1E3B JUMP JUMPDEST PUSH1 0x0 DUP3 SWAP1 POP PUSH1 0x0 JUMPDEST PUSH1 0x0 DUP3 EQ PUSH2 0x1D0D JUMPI DUP1 DUP1 PUSH2 0x1CF6 SWAP1 PUSH2 0x2B9B JUMP JUMPDEST SWAP2 POP POP PUSH1 0xA DUP3 PUSH2 0x1D06 SWAP2 SWAP1 PUSH2 0x29B3 JUMP JUMPDEST SWAP2 POP PUSH2 0x1CE3 JUMP JUMPDEST PUSH1 0x0 DUP2 PUSH8 0xFFFFFFFFFFFFFFFF DUP2 GT ISZERO PUSH2 0x1D4F JUMPI PUSH32 0x4E487B7100000000000000000000000000000000000000000000000000000000 PUSH1 0x0 MSTORE PUSH1 0x41 PUSH1 0x4 MSTORE PUSH1 0x24 PUSH1 0x0 REVERT JUMPDEST PUSH1 0x40 MLOAD SWAP1 DUP1 DUP3 MSTORE DUP1 PUSH1 0x1F ADD PUSH1 0x1F NOT AND PUSH1 0x20 ADD DUP3 ADD PUSH1 0x40 MSTORE DUP1 ISZERO PUSH2 0x1D81 JUMPI DUP2 PUSH1 0x20 ADD PUSH1 0x1 DUP3 MUL DUP1 CALLDATASIZE DUP4 CALLDATACOPY DUP1 DUP3 ADD SWAP2 POP POP SWAP1 POP JUMPDEST POP SWAP1 POP JUMPDEST PUSH1 0x0 DUP6 EQ PUSH2 0x1E34 JUMPI PUSH1 0x1 DUP3 PUSH2 0x1D9A SWAP2 SWAP1 PUSH2 0x2A3E JUMP JUMPDEST SWAP2 POP PUSH1 0xA DUP6 PUSH2 0x1DA9 SWAP2 SWAP1 PUSH2 0x2BE4 JUMP JUMPDEST PUSH1 0x30 PUSH2 0x1DB5 SWAP2 SWAP1 PUSH2 0x295D JUMP JUMPDEST PUSH1 0xF8 SHL DUP2 DUP4 DUP2 MLOAD DUP2 LT PUSH2 0x1DF1 JUMPI PUSH32 0x4E487B7100000000000000000000000000000000000000000000000000000000 PUSH1 0x0 MSTORE PUSH1 0x32 PUSH1 0x4 MSTORE PUSH1 0x24 PUSH1 0x0 REVERT JUMPDEST PUSH1 0x20 ADD ADD SWAP1 PUSH31 0xFFFFFFFFFFFFFFFFFFFFFFFFFFFFFFFFFFFFFFFFFFFFFFFFFFFFFFFFFFFFFF NOT AND SWAP1 DUP2 PUSH1 0x0 BYTE SWAP1 MSTORE8 POP PUSH1 0xA DUP6 PUSH2 0x1E2D SWAP2 SWAP1 PUSH2 0x29B3 JUMP JUMPDEST SWAP5 POP PUSH2 0x1D85 JUMP JUMPDEST DUP1 SWAP4 POP POP POP POP JUMPDEST SWAP2 SWAP1 POP JUMP JUMPDEST PUSH1 0x0 CALLER SWAP1 POP SWAP1 JUMP JUMPDEST PUSH1 0x0 PUSH2 0x1E69 DUP5 PUSH20 0xFFFFFFFFFFFFFFFFFFFFFFFFFFFFFFFFFFFFFFFF AND PUSH2 0x1F5A JUMP JUMPDEST ISZERO PUSH2 0x1F4D JUMPI PUSH4 0x150B7A02 PUSH1 0xE0 SHL PUSH28 0xFFFFFFFFFFFFFFFFFFFFFFFFFFFFFFFFFFFFFFFFFFFFFFFFFFFFFFFF NOT AND DUP5 PUSH20 0xFFFFFFFFFFFFFFFFFFFFFFFFFFFFFFFFFFFFFFFF AND PUSH4 0x150B7A02 CALLER DUP9 DUP8 DUP8 PUSH1 0x40 MLOAD DUP6 PUSH4 0xFFFFFFFF AND PUSH1 0xE0 SHL DUP2 MSTORE PUSH1 0x4 ADD PUSH2 0x1ED4 SWAP5 SWAP4 SWAP3 SWAP2 SWAP1 PUSH2 0x2615 JUMP JUMPDEST PUSH1 0x20 PUSH1 0x40 MLOAD DUP1 DUP4 SUB DUP2 PUSH1 0x0 DUP8 DUP1 EXTCODESIZE ISZERO DUP1 ISZERO PUSH2 0x1EEE JUMPI PUSH1 0x0 DUP1 REVERT JUMPDEST POP GAS CALL ISZERO DUP1 ISZERO PUSH2 0x1F02 JUMPI RETURNDATASIZE PUSH1 0x0 DUP1 RETURNDATACOPY RETURNDATASIZE PUSH1 0x0 REVERT JUMPDEST POP POP POP POP PUSH1 0x40 MLOAD RETURNDATASIZE PUSH1 0x1F NOT PUSH1 0x1F DUP3 ADD AND DUP3 ADD DUP1 PUSH1 0x40 MSTORE POP DUP2 ADD SWAP1 PUSH2 0x1F26 SWAP2 SWAP1 PUSH2 0x2223 JUMP JUMPDEST PUSH28 0xFFFFFFFFFFFFFFFFFFFFFFFFFFFFFFFFFFFFFFFFFFFFFFFFFFFFFFFF NOT AND EQ SWAP1 POP PUSH2 0x1F52 JUMP JUMPDEST PUSH1 0x1 SWAP1 POP JUMPDEST SWAP5 SWAP4 POP POP POP POP JUMP JUMPDEST PUSH1 0x0 DUP1 DUP3 EXTCODESIZE SWAP1 POP PUSH1 0x0 DUP2 GT SWAP2 POP POP SWAP2 SWAP1 POP JUMP JUMPDEST PUSH1 0x0 PUSH2 0x1F80 PUSH2 0x1F7B DUP5 PUSH2 0x28DE JUMP JUMPDEST PUSH2 0x28B9 JUMP JUMPDEST SWAP1 POP DUP3 DUP2 MSTORE PUSH1 0x20 DUP2 ADD DUP5 DUP5 DUP5 ADD GT ISZERO PUSH2 0x1F98 JUMPI PUSH1 0x0 DUP1 REVERT JUMPDEST PUSH2 0x1FA3 DUP5 DUP3 DUP6 PUSH2 0x2AF6 JUMP JUMPDEST POP SWAP4 SWAP3 POP POP POP JUMP JUMPDEST PUSH1 0x0 DUP2 CALLDATALOAD SWAP1 POP PUSH2 0x1FBA DUP2 PUSH2 0x2FE7 JUMP JUMPDEST SWAP3 SWAP2 POP POP JUMP JUMPDEST PUSH1 0x0 DUP2 CALLDATALOAD SWAP1 POP PUSH2 0x1FCF DUP2 PUSH2 0x2FFE JUMP JUMPDEST SWAP3 SWAP2 POP POP JUMP JUMPDEST PUSH1 0x0 DUP2 CALLDATALOAD SWAP1 POP PUSH2 0x1FE4 DUP2 PUSH2 0x3015 JUMP JUMPDEST SWAP3 SWAP2 POP POP JUMP JUMPDEST PUSH1 0x0 DUP2 MLOAD SWAP1 POP PUSH2 0x1FF9 DUP2 PUSH2 0x3015 JUMP JUMPDEST SWAP3 SWAP2 POP POP JUMP JUMPDEST PUSH1 0x0 DUP3 PUSH1 0x1F DUP4 ADD SLT PUSH2 0x2010 JUMPI PUSH1 0x0 DUP1 REVERT JUMPDEST DUP2 CALLDATALOAD PUSH2 0x2020 DUP5 DUP3 PUSH1 0x20 DUP7 ADD PUSH2 0x1F6D JUMP JUMPDEST SWAP2 POP POP SWAP3 SWAP2 POP POP JUMP JUMPDEST PUSH1 0x0 DUP2 CALLDATALOAD SWAP1 POP PUSH2 0x2038 DUP2 PUSH2 0x302C JUMP JUMPDEST SWAP3 SWAP2 POP POP JUMP JUMPDEST PUSH1 0x0 DUP2 CALLDATALOAD SWAP1 POP PUSH2 0x204D DUP2 PUSH2 0x3043 JUMP JUMPDEST SWAP3 SWAP2 POP POP JUMP JUMPDEST PUSH1 0x0 PUSH1 0x20 DUP3 DUP5 SUB SLT ISZERO PUSH2 0x2065 JUMPI PUSH1 0x0 DUP1 REVERT JUMPDEST PUSH1 0x0 PUSH2 0x2073 DUP5 DUP3 DUP6 ADD PUSH2 0x1FAB JUMP JUMPDEST SWAP2 POP POP SWAP3 SWAP2 POP POP JUMP JUMPDEST PUSH1 0x0 DUP1 PUSH1 0x40 DUP4 DUP6 SUB SLT ISZERO PUSH2 0x208F JUMPI PUSH1 0x0 DUP1 REVERT JUMPDEST PUSH1 0x0 PUSH2 0x209D DUP6 DUP3 DUP7 ADD PUSH2 0x1FAB JUMP JUMPDEST SWAP3 POP POP PUSH1 0x20 PUSH2 0x20AE DUP6 DUP3 DUP7 ADD PUSH2 0x1FAB JUMP JUMPDEST SWAP2 POP POP SWAP3 POP SWAP3 SWAP1 POP JUMP JUMPDEST PUSH1 0x0 DUP1 PUSH1 0x0 PUSH1 0x60 DUP5 DUP7 SUB SLT ISZERO PUSH2 0x20CD JUMPI PUSH1 0x0 DUP1 REVERT JUMPDEST PUSH1 0x0 PUSH2 0x20DB DUP7 DUP3 DUP8 ADD PUSH2 0x1FAB JUMP JUMPDEST SWAP4 POP POP PUSH1 0x20 PUSH2 0x20EC DUP7 DUP3 DUP8 ADD PUSH2 0x1FAB JUMP JUMPDEST SWAP3 POP POP PUSH1 0x40 PUSH2 0x20FD DUP7 DUP3 DUP8 ADD PUSH2 0x2029 JUMP JUMPDEST SWAP2 POP POP SWAP3 POP SWAP3 POP SWAP3 JUMP JUMPDEST PUSH1 0x0 DUP1 PUSH1 0x0 DUP1 PUSH1 0x80 DUP6 DUP8 SUB SLT ISZERO PUSH2 0x211D JUMPI PUSH1 0x0 DUP1 REVERT JUMPDEST PUSH1 0x0 PUSH2 0x212B DUP8 DUP3 DUP9 ADD PUSH2 0x1FAB JUMP JUMPDEST SWAP5 POP POP PUSH1 0x20 PUSH2 0x213C DUP8 DUP3 DUP9 ADD PUSH2 0x1FAB JUMP JUMPDEST SWAP4 POP POP PUSH1 0x40 PUSH2 0x214D DUP8 DUP3 DUP9 ADD PUSH2 0x2029 JUMP JUMPDEST SWAP3 POP POP PUSH1 0x60 DUP6 ADD CALLDATALOAD PUSH8 0xFFFFFFFFFFFFFFFF DUP2 GT ISZERO PUSH2 0x216A JUMPI PUSH1 0x0 DUP1 REVERT JUMPDEST PUSH2 0x2176 DUP8 DUP3 DUP9 ADD PUSH2 0x1FFF JUMP JUMPDEST SWAP2 POP POP SWAP3 SWAP6 SWAP2 SWAP5 POP SWAP3 POP JUMP JUMPDEST PUSH1 0x0 DUP1 PUSH1 0x40 DUP4 DUP6 SUB SLT ISZERO PUSH2 0x2195 JUMPI PUSH1 0x0 DUP1 REVERT JUMPDEST PUSH1 0x0 PUSH2 0x21A3 DUP6 DUP3 DUP7 ADD PUSH2 0x1FAB JUMP JUMPDEST SWAP3 POP POP PUSH1 0x20 PUSH2 0x21B4 DUP6 DUP3 DUP7 ADD PUSH2 0x1FC0 JUMP JUMPDEST SWAP2 POP POP SWAP3 POP SWAP3 SWAP1 POP JUMP JUMPDEST PUSH1 0x0 DUP1 PUSH1 0x40 DUP4 DUP6 SUB SLT ISZERO PUSH2 0x21D1 JUMPI PUSH1 0x0 DUP1 REVERT JUMPDEST PUSH1 0x0 PUSH2 0x21DF DUP6 DUP3 DUP7 ADD PUSH2 0x1FAB JUMP JUMPDEST SWAP3 POP POP PUSH1 0x20 PUSH2 0x21F0 DUP6 DUP3 DUP7 ADD PUSH2 0x2029 JUMP JUMPDEST SWAP2 POP POP SWAP3 POP SWAP3 SWAP1 POP JUMP JUMPDEST PUSH1 0x0 PUSH1 0x20 DUP3 DUP5 SUB SLT ISZERO PUSH2 0x220C JUMPI PUSH1 0x0 DUP1 REVERT JUMPDEST PUSH1 0x0 PUSH2 0x221A DUP5 DUP3 DUP6 ADD PUSH2 0x1FD5 JUMP JUMPDEST SWAP2 POP POP SWAP3 SWAP2 POP POP JUMP JUMPDEST PUSH1 0x0 PUSH1 0x20 DUP3 DUP5 SUB SLT ISZERO PUSH2 0x2235 JUMPI PUSH1 0x0 DUP1 REVERT JUMPDEST PUSH1 0x0 PUSH2 0x2243 DUP5 DUP3 DUP6 ADD PUSH2 0x1FEA JUMP JUMPDEST SWAP2 POP POP SWAP3 SWAP2 POP POP JUMP JUMPDEST PUSH1 0x0 PUSH1 0x20 DUP3 DUP5 SUB SLT ISZERO PUSH2 0x225E JUMPI PUSH1 0x0 DUP1 REVERT JUMPDEST PUSH1 0x0 PUSH2 0x226C DUP5 DUP3 DUP6 ADD PUSH2 0x2029 JUMP JUMPDEST SWAP2 POP POP SWAP3 SWAP2 POP POP JUMP JUMPDEST PUSH1 0x0 PUSH1 0x20 DUP3 DUP5 SUB SLT ISZERO PUSH2 0x2287 JUMPI PUSH1 0x0 DUP1 REVERT JUMPDEST PUSH1 0x0 PUSH2 0x2295 DUP5 DUP3 DUP6 ADD PUSH2 0x203E JUMP JUMPDEST SWAP2 POP POP SWAP3 SWAP2 POP POP JUMP JUMPDEST PUSH2 0x22A7 DUP2 PUSH2 0x2A72 JUMP JUMPDEST DUP3 MSTORE POP POP JUMP JUMPDEST PUSH2 0x22B6 DUP2 PUSH2 0x2A84 JUMP JUMPDEST DUP3 MSTORE POP POP JUMP JUMPDEST PUSH1 0x0 PUSH2 0x22C7 DUP3 PUSH2 0x290F JUMP JUMPDEST PUSH2 0x22D1 DUP2 DUP6 PUSH2 0x2925 JUMP JUMPDEST SWAP4 POP PUSH2 0x22E1 DUP2 DUP6 PUSH1 0x20 DUP7 ADD PUSH2 0x2B05 JUMP JUMPDEST PUSH2 0x22EA DUP2 PUSH2 0x2CD1 JUMP JUMPDEST DUP5 ADD SWAP2 POP POP SWAP3 SWAP2 POP POP JUMP JUMPDEST PUSH1 0x0 PUSH2 0x2300 DUP3 PUSH2 0x291A JUMP JUMPDEST PUSH2 0x230A DUP2 DUP6 PUSH2 0x2941 JUMP JUMPDEST SWAP4 POP PUSH2 0x231A DUP2 DUP6 PUSH1 0x20 DUP7 ADD PUSH2 0x2B05 JUMP JUMPDEST PUSH2 0x2323 DUP2 PUSH2 0x2CD1 JUMP JUMPDEST DUP5 ADD SWAP2 POP POP SWAP3 SWAP2 POP POP JUMP JUMPDEST PUSH1 0x0 PUSH2 0x2339 DUP3 PUSH2 0x291A JUMP JUMPDEST PUSH2 0x2343 DUP2 DUP6 PUSH2 0x2952 JUMP JUMPDEST SWAP4 POP PUSH2 0x2353 DUP2 DUP6 PUSH1 0x20 DUP7 ADD PUSH2 0x2B05 JUMP JUMPDEST DUP1 DUP5 ADD SWAP2 POP POP SWAP3 SWAP2 POP POP JUMP JUMPDEST PUSH1 0x0 PUSH2 0x236C PUSH1 0x16 DUP4 PUSH2 0x2941 JUMP JUMPDEST SWAP2 POP PUSH2 0x2377 DUP3 PUSH2 0x2CE2 JUMP JUMPDEST PUSH1 0x20 DUP3 ADD SWAP1 POP SWAP2 SWAP1 POP JUMP JUMPDEST PUSH1 0x0 PUSH2 0x238F PUSH1 0x26 DUP4 PUSH2 0x2941 JUMP JUMPDEST SWAP2 POP PUSH2 0x239A DUP3 PUSH2 0x2D0B JUMP JUMPDEST PUSH1 0x40 DUP3 ADD SWAP1 POP SWAP2 SWAP1 POP JUMP JUMPDEST PUSH1 0x0 PUSH2 0x23B2 PUSH1 0x1C DUP4 PUSH2 0x2941 JUMP JUMPDEST SWAP2 POP PUSH2 0x23BD DUP3 PUSH2 0x2D5A JUMP JUMPDEST PUSH1 0x20 DUP3 ADD SWAP1 POP SWAP2 SWAP1 POP JUMP JUMPDEST PUSH1 0x0 PUSH2 0x23D5 PUSH1 0x1E DUP4 PUSH2 0x2941 JUMP JUMPDEST SWAP2 POP PUSH2 0x23E0 DUP3 PUSH2 0x2D83 JUMP JUMPDEST PUSH1 0x20 DUP3 ADD SWAP1 POP SWAP2 SWAP1 POP JUMP JUMPDEST PUSH1 0x0 PUSH2 0x23F8 PUSH1 0x18 DUP4 PUSH2 0x2941 JUMP JUMPDEST SWAP2 POP PUSH2 0x2403 DUP3 PUSH2 0x2DAC JUMP JUMPDEST PUSH1 0x20 DUP3 ADD SWAP1 POP SWAP2 SWAP1 POP JUMP JUMPDEST PUSH1 0x0 PUSH2 0x241B PUSH1 0x14 DUP4 PUSH2 0x2941 JUMP JUMPDEST SWAP2 POP PUSH2 0x2426 DUP3 PUSH2 0x2DD5 JUMP JUMPDEST PUSH1 0x20 DUP3 ADD SWAP1 POP SWAP2 SWAP1 POP JUMP JUMPDEST PUSH1 0x0 PUSH2 0x243E PUSH1 0x13 DUP4 PUSH2 0x2941 JUMP JUMPDEST SWAP2 POP PUSH2 0x2449 DUP3 PUSH2 0x2DFE JUMP JUMPDEST PUSH1 0x20 DUP3 ADD SWAP1 POP SWAP2 SWAP1 POP JUMP JUMPDEST PUSH1 0x0 PUSH2 0x2461 PUSH1 0x14 DUP4 PUSH2 0x2941 JUMP JUMPDEST SWAP2 POP PUSH2 0x246C DUP3 PUSH2 0x2E27 JUMP JUMPDEST PUSH1 0x20 DUP3 ADD SWAP1 POP SWAP2 SWAP1 POP JUMP JUMPDEST PUSH1 0x0 PUSH2 0x2484 PUSH1 0x20 DUP4 PUSH2 0x2941 JUMP JUMPDEST SWAP2 POP PUSH2 0x248F DUP3 PUSH2 0x2E50 JUMP JUMPDEST PUSH1 0x20 DUP3 ADD SWAP1 POP SWAP2 SWAP1 POP JUMP JUMPDEST PUSH1 0x0 PUSH2 0x24A7 PUSH1 0xF DUP4 PUSH2 0x2941 JUMP JUMPDEST SWAP2 POP PUSH2 0x24B2 DUP3 PUSH2 0x2E79 JUMP JUMPDEST PUSH1 0x20 DUP3 ADD SWAP1 POP SWAP2 SWAP1 POP JUMP JUMPDEST PUSH1 0x0 PUSH2 0x24CA PUSH1 0x14 DUP4 PUSH2 0x2941 JUMP JUMPDEST SWAP2 POP PUSH2 0x24D5 DUP3 PUSH2 0x2EA2 JUMP JUMPDEST PUSH1 0x20 DUP3 ADD SWAP1 POP SWAP2 SWAP1 POP JUMP JUMPDEST PUSH1 0x0 PUSH2 0x24ED PUSH1 0x0 DUP4 PUSH2 0x2936 JUMP JUMPDEST SWAP2 POP PUSH2 0x24F8 DUP3 PUSH2 0x2ECB JUMP JUMPDEST PUSH1 0x0 DUP3 ADD SWAP1 POP SWAP2 SWAP1 POP JUMP JUMPDEST PUSH1 0x0 PUSH2 0x2510 PUSH1 0x10 DUP4 PUSH2 0x2941 JUMP JUMPDEST SWAP2 POP PUSH2 0x251B DUP3 PUSH2 0x2ECE JUMP JUMPDEST PUSH1 0x20 DUP3 ADD SWAP1 POP SWAP2 SWAP1 POP JUMP JUMPDEST PUSH1 0x0 PUSH2 0x2533 PUSH1 0x16 DUP4 PUSH2 0x2941 JUMP JUMPDEST SWAP2 POP PUSH2 0x253E DUP3 PUSH2 0x2EF7 JUMP JUMPDEST PUSH1 0x20 DUP3 ADD SWAP1 POP SWAP2 SWAP1 POP JUMP JUMPDEST PUSH1 0x0 PUSH2 0x2556 PUSH1 0x12 DUP4 PUSH2 0x2941 JUMP JUMPDEST SWAP2 POP PUSH2 0x2561 DUP3 PUSH2 0x2F20 JUMP JUMPDEST PUSH1 0x20 DUP3 ADD SWAP1 POP SWAP2 SWAP1 POP JUMP JUMPDEST PUSH1 0x0 PUSH2 0x2579 PUSH1 0x48 DUP4 PUSH2 0x2941 JUMP JUMPDEST SWAP2 POP PUSH2 0x2584 DUP3 PUSH2 0x2F49 JUMP JUMPDEST PUSH1 0x60 DUP3 ADD SWAP1 POP SWAP2 SWAP1 POP JUMP JUMPDEST PUSH1 0x0 PUSH2 0x259C PUSH1 0x9 DUP4 PUSH2 0x2941 JUMP JUMPDEST SWAP2 POP PUSH2 0x25A7 DUP3 PUSH2 0x2FBE JUMP JUMPDEST PUSH1 0x20 DUP3 ADD SWAP1 POP SWAP2 SWAP1 POP JUMP JUMPDEST PUSH2 0x25BB DUP2 PUSH2 0x2ADC JUMP JUMPDEST DUP3 MSTORE POP POP JUMP JUMPDEST PUSH1 0x0 PUSH2 0x25CD DUP3 DUP6 PUSH2 0x232E JUMP JUMPDEST SWAP2 POP PUSH2 0x25D9 DUP3 DUP5 PUSH2 0x232E JUMP JUMPDEST SWAP2 POP DUP2 SWAP1 POP SWAP4 SWAP3 POP POP POP JUMP JUMPDEST PUSH1 0x0 PUSH2 0x25F0 DUP3 PUSH2 0x24E0 JUMP JUMPDEST SWAP2 POP DUP2 SWAP1 POP SWAP2 SWAP1 POP JUMP JUMPDEST PUSH1 0x0 PUSH1 0x20 DUP3 ADD SWAP1 POP PUSH2 0x260F PUSH1 0x0 DUP4 ADD DUP5 PUSH2 0x229E JUMP JUMPDEST SWAP3 SWAP2 POP POP JUMP JUMPDEST PUSH1 0x0 PUSH1 0x80 DUP3 ADD SWAP1 POP PUSH2 0x262A PUSH1 0x0 DUP4 ADD DUP8 PUSH2 0x229E JUMP JUMPDEST PUSH2 0x2637 PUSH1 0x20 DUP4 ADD DUP7 PUSH2 0x229E JUMP JUMPDEST PUSH2 0x2644 PUSH1 0x40 DUP4 ADD DUP6 PUSH2 0x25B2 JUMP JUMPDEST DUP2 DUP2 SUB PUSH1 0x60 DUP4 ADD MSTORE PUSH2 0x2656 DUP2 DUP5 PUSH2 0x22BC JUMP JUMPDEST SWAP1 POP SWAP6 SWAP5 POP POP POP POP POP JUMP JUMPDEST PUSH1 0x0 PUSH1 0x20 DUP3 ADD SWAP1 POP PUSH2 0x2676 PUSH1 0x0 DUP4 ADD DUP5 PUSH2 0x22AD JUMP JUMPDEST SWAP3 SWAP2 POP POP JUMP JUMPDEST PUSH1 0x0 PUSH1 0x20 DUP3 ADD SWAP1 POP DUP2 DUP2 SUB PUSH1 0x0 DUP4 ADD MSTORE PUSH2 0x2696 DUP2 DUP5 PUSH2 0x22F5 JUMP JUMPDEST SWAP1 POP SWAP3 SWAP2 POP POP JUMP JUMPDEST PUSH1 0x0 PUSH1 0x20 DUP3 ADD SWAP1 POP DUP2 DUP2 SUB PUSH1 0x0 DUP4 ADD MSTORE PUSH2 0x26B7 DUP2 PUSH2 0x235F JUMP JUMPDEST SWAP1 POP SWAP2 SWAP1 POP JUMP JUMPDEST PUSH1 0x0 PUSH1 0x20 DUP3 ADD SWAP1 POP DUP2 DUP2 SUB PUSH1 0x0 DUP4 ADD MSTORE PUSH2 0x26D7 DUP2 PUSH2 0x2382 JUMP JUMPDEST SWAP1 POP SWAP2 SWAP1 POP JUMP JUMPDEST PUSH1 0x0 PUSH1 0x20 DUP3 ADD SWAP1 POP DUP2 DUP2 SUB PUSH1 0x0 DUP4 ADD MSTORE PUSH2 0x26F7 DUP2 PUSH2 0x23A5 JUMP JUMPDEST SWAP1 POP SWAP2 SWAP1 POP JUMP JUMPDEST PUSH1 0x0 PUSH1 0x20 DUP3 ADD SWAP1 POP DUP2 DUP2 SUB PUSH1 0x0 DUP4 ADD MSTORE PUSH2 0x2717 DUP2 PUSH2 0x23C8 JUMP JUMPDEST SWAP1 POP SWAP2 SWAP1 POP JUMP JUMPDEST PUSH1 0x0 PUSH1 0x20 DUP3 ADD SWAP1 POP DUP2 DUP2 SUB PUSH1 0x0 DUP4 ADD MSTORE PUSH2 0x2737 DUP2 PUSH2 0x23EB JUMP JUMPDEST SWAP1 POP SWAP2 SWAP1 POP JUMP JUMPDEST PUSH1 0x0 PUSH1 0x20 DUP3 ADD SWAP1 POP DUP2 DUP2 SUB PUSH1 0x0 DUP4 ADD MSTORE PUSH2 0x2757 DUP2 PUSH2 0x240E JUMP JUMPDEST SWAP1 POP SWAP2 SWAP1 POP JUMP JUMPDEST PUSH1 0x0 PUSH1 0x20 DUP3 ADD SWAP1 POP DUP2 DUP2 SUB PUSH1 0x0 DUP4 ADD MSTORE PUSH2 0x2777 DUP2 PUSH2 0x2431 JUMP JUMPDEST SWAP1 POP SWAP2 SWAP1 POP JUMP JUMPDEST PUSH1 0x0 PUSH1 0x20 DUP3 ADD SWAP1 POP DUP2 DUP2 SUB PUSH1 0x0 DUP4 ADD MSTORE PUSH2 0x2797 DUP2 PUSH2 0x2454 JUMP JUMPDEST SWAP1 POP SWAP2 SWAP1 POP JUMP JUMPDEST PUSH1 0x0 PUSH1 0x20 DUP3 ADD SWAP1 POP DUP2 DUP2 SUB PUSH1 0x0 DUP4 ADD MSTORE PUSH2 0x27B7 DUP2 PUSH2 0x2477 JUMP JUMPDEST SWAP1 POP SWAP2 SWAP1 POP JUMP JUMPDEST PUSH1 0x0 PUSH1 0x20 DUP3 ADD SWAP1 POP DUP2 DUP2 SUB PUSH1 0x0 DUP4 ADD MSTORE PUSH2 0x27D7 DUP2 PUSH2 0x249A JUMP JUMPDEST SWAP1 POP SWAP2 SWAP1 POP JUMP JUMPDEST PUSH1 0x0 PUSH1 0x20 DUP3 ADD SWAP1 POP DUP2 DUP2 SUB PUSH1 0x0 DUP4 ADD MSTORE PUSH2 0x27F7 DUP2 PUSH2 0x24BD JUMP JUMPDEST SWAP1 POP SWAP2 SWAP1 POP JUMP JUMPDEST PUSH1 0x0 PUSH1 0x20 DUP3 ADD SWAP1 POP DUP2 DUP2 SUB PUSH1 0x0 DUP4 ADD MSTORE PUSH2 0x2817 DUP2 PUSH2 0x2503 JUMP JUMPDEST SWAP1 POP SWAP2 SWAP1 POP JUMP JUMPDEST PUSH1 0x0 PUSH1 0x20 DUP3 ADD SWAP1 POP DUP2 DUP2 SUB PUSH1 0x0 DUP4 ADD MSTORE PUSH2 0x2837 DUP2 PUSH2 0x2526 JUMP JUMPDEST SWAP1 POP SWAP2 SWAP1 POP JUMP JUMPDEST PUSH1 0x0 PUSH1 0x20 DUP3 ADD SWAP1 POP DUP2 DUP2 SUB PUSH1 0x0 DUP4 ADD MSTORE PUSH2 0x2857 DUP2 PUSH2 0x2549 JUMP JUMPDEST SWAP1 POP SWAP2 SWAP1 POP JUMP JUMPDEST PUSH1 0x0 PUSH1 0x20 DUP3 ADD SWAP1 POP DUP2 DUP2 SUB PUSH1 0x0 DUP4 ADD MSTORE PUSH2 0x2877 DUP2 PUSH2 0x256C JUMP JUMPDEST SWAP1 POP SWAP2 SWAP1 POP JUMP JUMPDEST PUSH1 0x0 PUSH1 0x20 DUP3 ADD SWAP1 POP DUP2 DUP2 SUB PUSH1 0x0 DUP4 ADD MSTORE PUSH2 0x2897 DUP2 PUSH2 0x258F JUMP JUMPDEST SWAP1 POP SWAP2 SWAP1 POP JUMP JUMPDEST PUSH1 0x0 PUSH1 0x20 DUP3 ADD SWAP1 POP PUSH2 0x28B3 PUSH1 0x0 DUP4 ADD DUP5 PUSH2 0x25B2 JUMP JUMPDEST SWAP3 SWAP2 POP POP JUMP JUMPDEST PUSH1 0x0 PUSH2 0x28C3 PUSH2 0x28D4 JUMP JUMPDEST SWAP1 POP PUSH2 0x28CF DUP3 DUP3 PUSH2 0x2B6A JUMP JUMPDEST SWAP2 SWAP1 POP JUMP JUMPDEST PUSH1 0x0 PUSH1 0x40 MLOAD SWAP1 POP SWAP1 JUMP JUMPDEST PUSH1 0x0 PUSH8 0xFFFFFFFFFFFFFFFF DUP3 GT ISZERO PUSH2 0x28F9 JUMPI PUSH2 0x28F8 PUSH2 0x2CA2 JUMP JUMPDEST JUMPDEST PUSH2 0x2902 DUP3 PUSH2 0x2CD1 JUMP JUMPDEST SWAP1 POP PUSH1 0x20 DUP2 ADD SWAP1 POP SWAP2 SWAP1 POP JUMP JUMPDEST PUSH1 0x0 DUP2 MLOAD SWAP1 POP SWAP2 SWAP1 POP JUMP JUMPDEST PUSH1 0x0 DUP2 MLOAD SWAP1 POP SWAP2 SWAP1 POP JUMP JUMPDEST PUSH1 0x0 DUP3 DUP3 MSTORE PUSH1 0x20 DUP3 ADD SWAP1 POP SWAP3 SWAP2 POP POP JUMP JUMPDEST PUSH1 0x0 DUP2 SWAP1 POP SWAP3 SWAP2 POP POP JUMP JUMPDEST PUSH1 0x0 DUP3 DUP3 MSTORE PUSH1 0x20 DUP3 ADD SWAP1 POP SWAP3 SWAP2 POP POP JUMP JUMPDEST PUSH1 0x0 DUP2 SWAP1 POP SWAP3 SWAP2 POP POP JUMP JUMPDEST PUSH1 0x0 PUSH2 0x2968 DUP3 PUSH2 0x2ADC JUMP JUMPDEST SWAP2 POP PUSH2 0x2973 DUP4 PUSH2 0x2ADC JUMP JUMPDEST SWAP3 POP DUP3 PUSH32 0xFFFFFFFFFFFFFFFFFFFFFFFFFFFFFFFFFFFFFFFFFFFFFFFFFFFFFFFFFFFFFFFF SUB DUP3 GT ISZERO PUSH2 0x29A8 JUMPI PUSH2 0x29A7 PUSH2 0x2C15 JUMP JUMPDEST JUMPDEST DUP3 DUP3 ADD SWAP1 POP SWAP3 SWAP2 POP POP JUMP JUMPDEST PUSH1 0x0 PUSH2 0x29BE DUP3 PUSH2 0x2ADC JUMP JUMPDEST SWAP2 POP PUSH2 0x29C9 DUP4 PUSH2 0x2ADC JUMP JUMPDEST SWAP3 POP DUP3 PUSH2 0x29D9 JUMPI PUSH2 0x29D8 PUSH2 0x2C44 JUMP JUMPDEST JUMPDEST DUP3 DUP3 DIV SWAP1 POP SWAP3 SWAP2 POP POP JUMP JUMPDEST PUSH1 0x0 PUSH2 0x29EF DUP3 PUSH2 0x2ADC JUMP JUMPDEST SWAP2 POP PUSH2 0x29FA DUP4 PUSH2 0x2ADC JUMP JUMPDEST SWAP3 POP DUP2 PUSH32 0xFFFFFFFFFFFFFFFFFFFFFFFFFFFFFFFFFFFFFFFFFFFFFFFFFFFFFFFFFFFFFFFF DIV DUP4 GT DUP3 ISZERO ISZERO AND ISZERO PUSH2 0x2A33 JUMPI PUSH2 0x2A32 PUSH2 0x2C15 JUMP JUMPDEST JUMPDEST DUP3 DUP3 MUL SWAP1 POP SWAP3 SWAP2 POP POP JUMP JUMPDEST PUSH1 0x0 PUSH2 0x2A49 DUP3 PUSH2 0x2ADC JUMP JUMPDEST SWAP2 POP PUSH2 0x2A54 DUP4 PUSH2 0x2ADC JUMP JUMPDEST SWAP3 POP DUP3 DUP3 LT ISZERO PUSH2 0x2A67 JUMPI PUSH2 0x2A66 PUSH2 0x2C15 JUMP JUMPDEST JUMPDEST DUP3 DUP3 SUB SWAP1 POP SWAP3 SWAP2 POP POP JUMP JUMPDEST PUSH1 0x0 PUSH2 0x2A7D DUP3 PUSH2 0x2ABC JUMP JUMPDEST SWAP1 POP SWAP2 SWAP1 POP JUMP JUMPDEST PUSH1 0x0 DUP2 ISZERO ISZERO SWAP1 POP SWAP2 SWAP1 POP JUMP JUMPDEST PUSH1 0x0 PUSH32 0xFFFFFFFF00000000000000000000000000000000000000000000000000000000 DUP3 AND SWAP1 POP SWAP2 SWAP1 POP JUMP JUMPDEST PUSH1 0x0 PUSH20 0xFFFFFFFFFFFFFFFFFFFFFFFFFFFFFFFFFFFFFFFF DUP3 AND SWAP1 POP SWAP2 SWAP1 POP JUMP JUMPDEST PUSH1 0x0 DUP2 SWAP1 POP SWAP2 SWAP1 POP JUMP JUMPDEST PUSH1 0x0 PUSH4 0xFFFFFFFF DUP3 AND SWAP1 POP SWAP2 SWAP1 POP JUMP JUMPDEST DUP3 DUP2 DUP4 CALLDATACOPY PUSH1 0x0 DUP4 DUP4 ADD MSTORE POP POP POP JUMP JUMPDEST PUSH1 0x0 JUMPDEST DUP4 DUP2 LT ISZERO PUSH2 0x2B23 JUMPI DUP1 DUP3 ADD MLOAD DUP2 DUP5 ADD MSTORE PUSH1 0x20 DUP2 ADD SWAP1 POP PUSH2 0x2B08 JUMP JUMPDEST DUP4 DUP2 GT ISZERO PUSH2 0x2B32 JUMPI PUSH1 0x0 DUP5 DUP5 ADD MSTORE JUMPDEST POP POP POP POP JUMP JUMPDEST PUSH1 0x0 PUSH1 0x2 DUP3 DIV SWAP1 POP PUSH1 0x1 DUP3 AND DUP1 PUSH2 0x2B50 JUMPI PUSH1 0x7F DUP3 AND SWAP2 POP JUMPDEST PUSH1 0x20 DUP3 LT DUP2 EQ ISZERO PUSH2 0x2B64 JUMPI PUSH2 0x2B63 PUSH2 0x2C73 JUMP JUMPDEST JUMPDEST POP SWAP2 SWAP1 POP JUMP JUMPDEST PUSH2 0x2B73 DUP3 PUSH2 0x2CD1 JUMP JUMPDEST DUP2 ADD DUP2 DUP2 LT PUSH8 0xFFFFFFFFFFFFFFFF DUP3 GT OR ISZERO PUSH2 0x2B92 JUMPI PUSH2 0x2B91 PUSH2 0x2CA2 JUMP JUMPDEST JUMPDEST DUP1 PUSH1 0x40 MSTORE POP POP POP JUMP JUMPDEST PUSH1 0x0 PUSH2 0x2BA6 DUP3 PUSH2 0x2ADC JUMP JUMPDEST SWAP2 POP PUSH32 0xFFFFFFFFFFFFFFFFFFFFFFFFFFFFFFFFFFFFFFFFFFFFFFFFFFFFFFFFFFFFFFFF DUP3 EQ ISZERO PUSH2 0x2BD9 JUMPI PUSH2 0x2BD8 PUSH2 0x2C15 JUMP JUMPDEST JUMPDEST PUSH1 0x1 DUP3 ADD SWAP1 POP SWAP2 SWAP1 POP JUMP JUMPDEST PUSH1 0x0 PUSH2 0x2BEF DUP3 PUSH2 0x2ADC JUMP JUMPDEST SWAP2 POP PUSH2 0x2BFA DUP4 PUSH2 0x2ADC JUMP JUMPDEST SWAP3 POP DUP3 PUSH2 0x2C0A JUMPI PUSH2 0x2C09 PUSH2 0x2C44 JUMP JUMPDEST JUMPDEST DUP3 DUP3 MOD SWAP1 POP SWAP3 SWAP2 POP POP JUMP JUMPDEST PUSH32 0x4E487B7100000000000000000000000000000000000000000000000000000000 PUSH1 0x0 MSTORE PUSH1 0x11 PUSH1 0x4 MSTORE PUSH1 0x24 PUSH1 0x0 REVERT JUMPDEST PUSH32 0x4E487B7100000000000000000000000000000000000000000000000000000000 PUSH1 0x0 MSTORE PUSH1 0x12 PUSH1 0x4 MSTORE PUSH1 0x24 PUSH1 0x0 REVERT JUMPDEST PUSH32 0x4E487B7100000000000000000000000000000000000000000000000000000000 PUSH1 0x0 MSTORE PUSH1 0x22 PUSH1 0x4 MSTORE PUSH1 0x24 PUSH1 0x0 REVERT JUMPDEST PUSH32 0x4E487B7100000000000000000000000000000000000000000000000000000000 PUSH1 0x0 MSTORE PUSH1 0x41 PUSH1 0x4 MSTORE PUSH1 0x24 PUSH1 0x0 REVERT JUMPDEST PUSH1 0x0 PUSH1 0x1F NOT PUSH1 0x1F DUP4 ADD AND SWAP1 POP SWAP2 SWAP1 POP JUMP JUMPDEST PUSH32 0x6E6F74206F776E6572206E6F7220617070726F76656400000000000000000000 PUSH1 0x0 DUP3 ADD MSTORE POP JUMP JUMPDEST PUSH32 0x4F776E61626C653A206E6577206F776E657220697320746865207A65726F2061 PUSH1 0x0 DUP3 ADD MSTORE PUSH32 0x6464726573730000000000000000000000000000000000000000000000000000 PUSH1 0x20 DUP3 ADD MSTORE POP JUMP JUMPDEST PUSH32 0x7472616E7366657220746F20746865207A65726F206164647265737300000000 PUSH1 0x0 DUP3 ADD MSTORE POP JUMP JUMPDEST PUSH32 0x6E6F74206F776E6572206E6F7220617070726F76656420666F7220616C6C0000 PUSH1 0x0 DUP3 ADD MSTORE POP JUMP JUMPDEST PUSH32 0x73616C6520686173206E6F742073746172746564207965740000000000000000 PUSH1 0x0 DUP3 ADD MSTORE POP JUMP JUMPDEST PUSH32 0x6D696E7420746F207A65726F2061646472657373000000000000000000000000 PUSH1 0x0 DUP3 ADD MSTORE POP JUMP JUMPDEST PUSH32 0x746F6B656E20646F65736E277420657869737400000000000000000000000000 PUSH1 0x0 DUP3 ADD MSTORE POP JUMP JUMPDEST PUSH32 0x6F776E6572203D207A65726F2061646472657373000000000000000000000000 PUSH1 0x0 DUP3 ADD MSTORE POP JUMP JUMPDEST PUSH32 0x4F776E61626C653A2063616C6C6572206973206E6F7420746865206F776E6572 PUSH1 0x0 DUP3 ADD MSTORE POP JUMP JUMPDEST PUSH32 0x546F6B656E204E6F742045786973740000000000000000000000000000000000 PUSH1 0x0 DUP3 ADD MSTORE POP JUMP JUMPDEST PUSH32 0x746F6B656E20616C7265616479206D696E746564000000000000000000000000 PUSH1 0x0 DUP3 ADD MSTORE POP JUMP JUMPDEST POP JUMP JUMPDEST PUSH32 0x5472616E73666572206661696C65642E00000000000000000000000000000000 PUSH1 0x0 DUP3 ADD MSTORE POP JUMP JUMPDEST PUSH32 0x4E65656420746F2073656E64206D6F7265204554482E00000000000000000000 PUSH1 0x0 DUP3 ADD MSTORE POP JUMP JUMPDEST PUSH32 0x6E6F742045524337323152656365697665720000000000000000000000000000 PUSH1 0x0 DUP3 ADD MSTORE POP JUMP JUMPDEST PUSH32 0x6E6F7420656E6F7567682072656D61696E696E6720726573657276656420666F PUSH1 0x0 DUP3 ADD MSTORE PUSH32 0x722061756374696F6E20746F20737570706F72742064657369726564206D696E PUSH1 0x20 DUP3 ADD MSTORE PUSH32 0x7420616D6F756E74000000000000000000000000000000000000000000000000 PUSH1 0x40 DUP3 ADD MSTORE POP JUMP JUMPDEST PUSH32 0x6E6F74206F776E65720000000000000000000000000000000000000000000000 PUSH1 0x0 DUP3 ADD MSTORE POP JUMP JUMPDEST PUSH2 0x2FF0 DUP2 PUSH2 0x2A72 JUMP JUMPDEST DUP2 EQ PUSH2 0x2FFB JUMPI PUSH1 0x0 DUP1 REVERT JUMPDEST POP JUMP JUMPDEST PUSH2 0x3007 DUP2 PUSH2 0x2A84 JUMP JUMPDEST DUP2 EQ PUSH2 0x3012 JUMPI PUSH1 0x0 DUP1 REVERT JUMPDEST POP JUMP JUMPDEST PUSH2 0x301E DUP2 PUSH2 0x2A90 JUMP JUMPDEST DUP2 EQ PUSH2 0x3029 JUMPI PUSH1 0x0 DUP1 REVERT JUMPDEST POP JUMP JUMPDEST PUSH2 0x3035 DUP2 PUSH2 0x2ADC JUMP JUMPDEST DUP2 EQ PUSH2 0x3040 JUMPI PUSH1 0x0 DUP1 REVERT JUMPDEST POP JUMP JUMPDEST PUSH2 0x304C DUP2 PUSH2 0x2AE6 JUMP JUMPDEST DUP2 EQ PUSH2 0x3057 JUMPI PUSH1 0x0 DUP1 REVERT JUMPDEST POP JUMP INVALID LOG2 PUSH5 0x6970667358 0x22 SLT KECCAK256 SWAP13 0xB3 BLOCKHASH 0x22 POP JUMP 0x29 0xD1 0xED PUSH14 0x6FD557B73F4C980D3A007AB7921D LOG1 0xCC 0xCD 0xE8 0x1E PUSH26 0x61964736F6C6343000804003300000000000000000000000000 "
				},
				"gasEstimates": {
					"creation": {
						"codeDepositCost": "2486400",
						"executionCost": "infinite",
						"totalCost": "infinite"
					},
					"external": {
						"AUCTION_DROP_INTERVAL()": "418",
						"AUCTION_DROP_PER_STEP()": "infinite",
						"AUCTION_END_PRICE()": "418",
						"AUCTION_START_PRICE()": "419",
						"AUCTION_TIME()": "373",
						"COLLECTOIN_SIZE()": "375",
						"approve(address,uint256)": "25601",
						"auctionMint(uint256)": "infinite",
						"auctionStartTime()": "1217",
						"balanceOf(address)": "1625",
						"getApproved(uint256)": "2563",
						"getAuctionPrice()": "infinite",
						"isApprovedForAll(address,address)": "infinite",
						"name()": "infinite",
						"owner()": "1267",
						"ownerOf(uint256)": "1767",
						"renounceOwnership()": "24466",
						"safeTransferFrom(address,address,uint256)": "infinite",
						"safeTransferFrom(address,address,uint256,bytes)": "infinite",
						"setApprovalForAll(address,bool)": "infinite",
						"setAuctionStartTime(uint32)": "21465",
						"supportsInterface(bytes4)": "777",
						"symbol()": "infinite",
						"tokenURI(uint256)": "2053",
						"totalSupply()": "1235",
						"transferFrom(address,address,uint256)": "infinite",
						"transferOwnership(address)": "24857",
						"withdrawMoney()": "infinite"
					},
					"internal": {
						"_addTokenToAllTokensEnumeration(uint256)": "40937"
					}
				},
				"methodIdentifiers": {
					"AUCTION_DROP_INTERVAL()": "5cae01d3",
					"AUCTION_DROP_PER_STEP()": "59f369fe",
					"AUCTION_END_PRICE()": "caf8a6d1",
					"AUCTION_START_PRICE()": "7a1c4a56",
					"AUCTION_TIME()": "e592301a",
					"COLLECTOIN_SIZE()": "327658e3",
					"approve(address,uint256)": "095ea7b3",
					"auctionMint(uint256)": "4d3554c3",
					"auctionStartTime()": "eb54f9ec",
					"balanceOf(address)": "70a08231",
					"getApproved(uint256)": "081812fc",
					"getAuctionPrice()": "4bd25c6f",
					"isApprovedForAll(address,address)": "e985e9c5",
					"name()": "06fdde03",
					"owner()": "8da5cb5b",
					"ownerOf(uint256)": "6352211e",
					"renounceOwnership()": "715018a6",
					"safeTransferFrom(address,address,uint256)": "42842e0e",
					"safeTransferFrom(address,address,uint256,bytes)": "b88d4fde",
					"setApprovalForAll(address,bool)": "a22cb465",
					"setAuctionStartTime(uint32)": "0697346f",
					"supportsInterface(bytes4)": "01ffc9a7",
					"symbol()": "95d89b41",
					"tokenURI(uint256)": "c87b56dd",
					"totalSupply()": "18160ddd",
					"transferFrom(address,address,uint256)": "23b872dd",
					"transferOwnership(address)": "f2fde38b",
					"withdrawMoney()": "ac446002"
				}
			},
			"storageLayout": {
				"storage": [
					{
						"astId": 7,
						"contract": "荷兰拍卖/DutchAuction.sol:DutchAuction",
						"label": "_owner",
						"offset": 0,
						"slot": "0",
						"type": "t_address"
					},
					{
						"astId": 174,
						"contract": "荷兰拍卖/DutchAuction.sol:DutchAuction",
						"label": "name",
						"offset": 0,
						"slot": "1",
						"type": "t_string_storage"
					},
					{
						"astId": 177,
						"contract": "荷兰拍卖/DutchAuction.sol:DutchAuction",
						"label": "symbol",
						"offset": 0,
						"slot": "2",
						"type": "t_string_storage"
					},
					{
						"astId": 181,
						"contract": "荷兰拍卖/DutchAuction.sol:DutchAuction",
						"label": "_owners",
						"offset": 0,
						"slot": "3",
						"type": "t_mapping(t_uint256,t_address)"
					},
					{
						"astId": 185,
						"contract": "荷兰拍卖/DutchAuction.sol:DutchAuction",
						"label": "_balances",
						"offset": 0,
						"slot": "4",
						"type": "t_mapping(t_address,t_uint256)"
					},
					{
						"astId": 189,
						"contract": "荷兰拍卖/DutchAuction.sol:DutchAuction",
						"label": "_tokenApprovals",
						"offset": 0,
						"slot": "5",
						"type": "t_mapping(t_uint256,t_address)"
					},
					{
						"astId": 195,
						"contract": "荷兰拍卖/DutchAuction.sol:DutchAuction",
						"label": "_operatorApprovals",
						"offset": 0,
						"slot": "6",
						"type": "t_mapping(t_address,t_mapping(t_address,t_bool))"
					},
					{
						"astId": 1239,
						"contract": "荷兰拍卖/DutchAuction.sol:DutchAuction",
						"label": "auctionStartTime",
						"offset": 0,
						"slot": "7",
						"type": "t_uint256"
					},
					{
						"astId": 1241,
						"contract": "荷兰拍卖/DutchAuction.sol:DutchAuction",
						"label": "_baseTokenURI",
						"offset": 0,
						"slot": "8",
						"type": "t_string_storage"
					},
					{
						"astId": 1244,
						"contract": "荷兰拍卖/DutchAuction.sol:DutchAuction",
						"label": "_allTokens",
						"offset": 0,
						"slot": "9",
						"type": "t_array(t_uint256)dyn_storage"
					}
				],
				"types": {
					"t_address": {
						"encoding": "inplace",
						"label": "address",
						"numberOfBytes": "20"
					},
					"t_array(t_uint256)dyn_storage": {
						"base": "t_uint256",
						"encoding": "dynamic_array",
						"label": "uint256[]",
						"numberOfBytes": "32"
					},
					"t_bool": {
						"encoding": "inplace",
						"label": "bool",
						"numberOfBytes": "1"
					},
					"t_mapping(t_address,t_bool)": {
						"encoding": "mapping",
						"key": "t_address",
						"label": "mapping(address => bool)",
						"numberOfBytes": "32",
						"value": "t_bool"
					},
					"t_mapping(t_address,t_mapping(t_address,t_bool))": {
						"encoding": "mapping",
						"key": "t_address",
						"label": "mapping(address => mapping(address => bool))",
						"numberOfBytes": "32",
						"value": "t_mapping(t_address,t_bool)"
					},
					"t_mapping(t_address,t_uint256)": {
						"encoding": "mapping",
						"key": "t_address",
						"label": "mapping(address => uint256)",
						"numberOfBytes": "32",
						"value": "t_uint256"
					},
					"t_mapping(t_uint256,t_address)": {
						"encoding": "mapping",
						"key": "t_uint256",
						"label": "mapping(uint256 => address)",
						"numberOfBytes": "32",
						"value": "t_address"
					},
					"t_string_storage": {
						"encoding": "bytes",
						"label": "string",
						"numberOfBytes": "32"
					},
					"t_uint256": {
						"encoding": "inplace",
						"label": "uint256",
						"numberOfBytes": "32"
					}
				}
			},
			"userdoc": {
				"kind": "user",
				"methods": {
					"safeTransferFrom(address,address,uint256,bytes)": {
						"notice": "实现IERC721的safeTransferFrom，安全转账，调用了_safeTransfer函数。"
					},
					"tokenURI(uint256)": {
						"notice": "实现IERC721Metadata的tokenURI函数，查询metadata。"
					}
				},
				"version": 1
			}
		}
	}
}