{
	"data": {
		"bytecode": {
			"linkReferences": {},
			"object": "60806040523480156200001157600080fd5b506040516200178a3803806200178a83398181016040528101906200003791906200009c565b80600181905550336000806101000a81548173ffffffffffffffffffffffffffffffffffffffff021916908373ffffffffffffffffffffffffffffffffffffffff16021790555050620000f7565b6000815190506200009681620000dd565b92915050565b600060208284031215620000b557620000b4620000d8565b5b6000620000c58482850162000085565b91505092915050565b6000819050919050565b600080fd5b620000e881620000ce565b8114620000f457600080fd5b50565b61168380620001076000396000f3fe6080604052600436106100915760003560e01c8063796b89b911610059578063796b89b9146101945780638f283970146101bf578063c1a287e2146101e8578063f2b0653714610213578063f851a4401461025057610091565b806304a71576146100965780630825f38f146100d35780633a66f90114610103578063591fcdfe146101405780636a42b8f814610169575b600080fd5b3480156100a257600080fd5b506100bd60048036038101906100b89190610b83565b61027b565b6040516100ca9190610f47565b60405180910390f35b6100ed60048036038101906100e89190610b83565b6102b7565b6040516100fa9190610f62565b60405180910390f35b34801561010f57600080fd5b5061012a60048036038101906101259190610b83565b6105db565b6040516101379190610f47565b60405180910390f35b34801561014c57600080fd5b5061016760048036038101906101629190610b83565b610762565b005b34801561017557600080fd5b5061017e6108ea565b60405161018b9190611084565b60405180910390f35b3480156101a057600080fd5b506101a96108f0565b6040516101b69190611084565b60405180910390f35b3480156101cb57600080fd5b506101e660048036038101906101e19190610b56565b6108f8565b005b3480156101f457600080fd5b506101fd6109ec565b60405161020a9190611084565b60405180910390f35b34801561021f57600080fd5b5061023a60048036038101906102359190610c36565b6109f3565b6040516102479190610f2c565b60405180910390f35b34801561025c57600080fd5b50610265610a13565b6040516102729190610eb0565b60405180910390f35b60008585858585604051602001610296959493929190610ecb565b60405160208183030381529060405280519060200120905095945050505050565b606060008054906101000a900473ffffffffffffffffffffffffffffffffffffffff1673ffffffffffffffffffffffffffffffffffffffff163373ffffffffffffffffffffffffffffffffffffffff1614610347576040517f08c379a000000000000000000000000000000000000000000000000000000000815260040161033e90611024565b60405180910390fd5b6000610356878787878761027b565b90506002600082815260200190815260200160002060009054906101000a900460ff166103b8576040517f08c379a00000000000000000000000000000000000000000000000000000000081526004016103af90610fe4565b60405180910390fd5b826103c16108f0565b1015610402576040517f08c379a00000000000000000000000000000000000000000000000000000000081526004016103f990610fc4565b60405180910390fd5b62093a808361041191906111bc565b6104196108f0565b111561045a576040517f08c379a000000000000000000000000000000000000000000000000000000000815260040161045190610fa4565b60405180910390fd5b60006002600083815260200190815260200160002060006101000a81548160ff021916908315150217905550606060008651141561049a578490506104c6565b8580519060200120856040516020016104b4929190610e71565b60405160208183030381529060405290505b6000808973ffffffffffffffffffffffffffffffffffffffff1689846040516104ef9190610e99565b60006040518083038185875af1925050503d806000811461052c576040519150601f19603f3d011682016040523d82523d6000602084013e610531565b606091505b509150915081610576576040517f08c379a000000000000000000000000000000000000000000000000000000000815260040161056d90611004565b60405180910390fd5b8973ffffffffffffffffffffffffffffffffffffffff16847fa560e3198060a2f10670c1ec5b403077ea6ae93ca8de1c32b451dc1a943cd6e78b8b8b8b6040516105c3949392919061109f565b60405180910390a38094505050505095945050505050565b60008060009054906101000a900473ffffffffffffffffffffffffffffffffffffffff1673ffffffffffffffffffffffffffffffffffffffff163373ffffffffffffffffffffffffffffffffffffffff161461066c576040517f08c379a000000000000000000000000000000000000000000000000000000000815260040161066390611024565b60405180910390fd5b6001546106776108f0565b61068191906111bc565b8210156106c3576040517f08c379a00000000000000000000000000000000000000000000000000000000081526004016106ba90611064565b60405180910390fd5b60006106d2878787878761027b565b905060016002600083815260200190815260200160002060006101000a81548160ff0219169083151502179055508673ffffffffffffffffffffffffffffffffffffffff16817f76e2796dc3a81d57b0e8504b647febcbeeb5f4af818e164f11eef8131a6a763f8888888860405161074d949392919061109f565b60405180910390a38091505095945050505050565b60008054906101000a900473ffffffffffffffffffffffffffffffffffffffff1673ffffffffffffffffffffffffffffffffffffffff163373ffffffffffffffffffffffffffffffffffffffff16146107f0576040517f08c379a00000000000000000000000000000000000000000000000000000000081526004016107e790611024565b60405180910390fd5b60006107ff868686868661027b565b90506002600082815260200190815260200160002060009054906101000a900460ff16610861576040517f08c379a000000000000000000000000000000000000000000000000000000000815260040161085890610f84565b60405180910390fd5b60006002600083815260200190815260200160002060006101000a81548160ff0219169083151502179055508573ffffffffffffffffffffffffffffffffffffffff16817f2fffc091a501fd91bfbff27141450d3acb40fb8e6d8382b243ec7a812a3aaf87878787876040516108da949392919061109f565b60405180910390a3505050505050565b60015481565b600042905090565b3073ffffffffffffffffffffffffffffffffffffffff163373ffffffffffffffffffffffffffffffffffffffff1614610966576040517f08c379a000000000000000000000000000000000000000000000000000000000815260040161095d90611044565b60405180910390fd5b806000806101000a81548173ffffffffffffffffffffffffffffffffffffffff021916908373ffffffffffffffffffffffffffffffffffffffff1602179055508073ffffffffffffffffffffffffffffffffffffffff167f71614071b88dee5e0b2ae578a9dd7b2ebbe9ae832ba419dc0242cd065a290b6c60405160405180910390a250565b62093a8081565b60026020528060005260406000206000915054906101000a900460ff1681565b60008054906101000a900473ffffffffffffffffffffffffffffffffffffffff1681565b6000610a4a610a4584611117565b6110f2565b905082815260208101848484011115610a6657610a65611370565b5b610a71848285611290565b509392505050565b6000610a8c610a8784611148565b6110f2565b905082815260208101848484011115610aa857610aa7611370565b5b610ab3848285611290565b509392505050565b600081359050610aca81611608565b92915050565b600081359050610adf8161161f565b92915050565b600082601f830112610afa57610af961136b565b5b8135610b0a848260208601610a37565b91505092915050565b600082601f830112610b2857610b2761136b565b5b8135610b38848260208601610a79565b91505092915050565b600081359050610b5081611636565b92915050565b600060208284031215610b6c57610b6b61137a565b5b6000610b7a84828501610abb565b91505092915050565b600080600080600060a08688031215610b9f57610b9e61137a565b5b6000610bad88828901610abb565b9550506020610bbe88828901610b41565b945050604086013567ffffffffffffffff811115610bdf57610bde611375565b5b610beb88828901610b13565b935050606086013567ffffffffffffffff811115610c0c57610c0b611375565b5b610c1888828901610ae5565b9250506080610c2988828901610b41565b9150509295509295909350565b600060208284031215610c4c57610c4b61137a565b5b6000610c5a84828501610ad0565b91505092915050565b610c6c81611212565b82525050565b610c7b81611224565b82525050565b610c8a81611230565b82525050565b610ca1610c9c8261123a565b611303565b82525050565b6000610cb282611179565b610cbc818561118f565b9350610ccc81856020860161129f565b610cd58161137f565b840191505092915050565b6000610ceb82611179565b610cf581856111a0565b9350610d0581856020860161129f565b80840191505092915050565b6000610d1c82611184565b610d2681856111ab565b9350610d3681856020860161129f565b610d3f8161137f565b840191505092915050565b6000610d57603c836111ab565b9150610d6282611390565b604082019050919050565b6000610d7a6033836111ab565b9150610d85826113df565b604082019050919050565b6000610d9d6045836111ab565b9150610da88261142e565b606082019050919050565b6000610dc0603d836111ab565b9150610dcb826114a3565b604082019050919050565b6000610de3603d836111ab565b9150610dee826114f2565b604082019050919050565b6000610e06601a836111ab565b9150610e1182611541565b602082019050919050565b6000610e29601d836111ab565b9150610e348261156a565b602082019050919050565b6000610e4c6049836111ab565b9150610e5782611593565b606082019050919050565b610e6b81611286565b82525050565b6000610e7d8285610c90565b600482019150610e8d8284610ce0565b91508190509392505050565b6000610ea58284610ce0565b915081905092915050565b6000602082019050610ec56000830184610c63565b92915050565b600060a082019050610ee06000830188610c63565b610eed6020830187610e62565b8181036040830152610eff8186610d11565b90508181036060830152610f138185610ca7565b9050610f226080830184610e62565b9695505050505050565b6000602082019050610f416000830184610c72565b92915050565b6000602082019050610f5c6000830184610c81565b92915050565b60006020820190508181036000830152610f7c8184610ca7565b905092915050565b60006020820190508181036000830152610f9d81610d4a565b9050919050565b60006020820190508181036000830152610fbd81610d6d565b9050919050565b60006020820190508181036000830152610fdd81610d90565b9050919050565b60006020820190508181036000830152610ffd81610db3565b9050919050565b6000602082019050818103600083015261101d81610dd6565b9050919050565b6000602082019050818103600083015261103d81610df9565b9050919050565b6000602082019050818103600083015261105d81610e1c565b9050919050565b6000602082019050818103600083015261107d81610e3f565b9050919050565b60006020820190506110996000830184610e62565b92915050565b60006080820190506110b46000830187610e62565b81810360208301526110c68186610d11565b905081810360408301526110da8185610ca7565b90506110e96060830184610e62565b95945050505050565b60006110fc61110d565b905061110882826112d2565b919050565b6000604051905090565b600067ffffffffffffffff8211156111325761113161133c565b5b61113b8261137f565b9050602081019050919050565b600067ffffffffffffffff8211156111635761116261133c565b5b61116c8261137f565b9050602081019050919050565b600081519050919050565b600081519050919050565b600082825260208201905092915050565b600081905092915050565b600082825260208201905092915050565b60006111c782611286565b91506111d283611286565b9250827fffffffffffffffffffffffffffffffffffffffffffffffffffffffffffffffff038211156112075761120661130d565b5b828201905092915050565b600061121d82611266565b9050919050565b60008115159050919050565b6000819050919050565b60007fffffffff0000000000000000000000000000000000000000000000000000000082169050919050565b600073ffffffffffffffffffffffffffffffffffffffff82169050919050565b6000819050919050565b82818337600083830152505050565b60005b838110156112bd5780820151818401526020810190506112a2565b838111156112cc576000848401525b50505050565b6112db8261137f565b810181811067ffffffffffffffff821117156112fa576112f961133c565b5b80604052505050565b6000819050919050565b7f4e487b7100000000000000000000000000000000000000000000000000000000600052601160045260246000fd5b7f4e487b7100000000000000000000000000000000000000000000000000000000600052604160045260246000fd5b600080fd5b600080fd5b600080fd5b600080fd5b6000601f19601f8301169050919050565b7f54696d656c6f636b3a3a63616e63656c5472616e73616374696f6e3a2054726160008201527f6e73616374696f6e206861736e2774206265656e207175657565642e00000000602082015250565b7f54696d656c6f636b3a3a657865637574655472616e73616374696f6e3a20547260008201527f616e73616374696f6e206973207374616c652e00000000000000000000000000602082015250565b7f54696d656c6f636b3a3a657865637574655472616e73616374696f6e3a20547260008201527f616e73616374696f6e206861736e2774207375727061737365642074696d652060208201527f6c6f636b2e000000000000000000000000000000000000000000000000000000604082015250565b7f54696d656c6f636b3a3a657865637574655472616e73616374696f6e3a20547260008201527f616e73616374696f6e206861736e2774206265656e207175657565642e000000602082015250565b7f54696d656c6f636b3a3a657865637574655472616e73616374696f6e3a20547260008201527f616e73616374696f6e20657865637574696f6e2072657665727465642e000000602082015250565b7f54696d656c6f636b3a2043616c6c6572206e6f742061646d696e000000000000600082015250565b7f54696d656c6f636b3a2043616c6c6572206e6f742054696d656c6f636b000000600082015250565b7f54696d656c6f636b3a3a71756575655472616e73616374696f6e3a204573746960008201527f6d6174656420657865637574696f6e20626c6f636b206d75737420736174697360208201527f66792064656c61792e0000000000000000000000000000000000000000000000604082015250565b61161181611212565b811461161c57600080fd5b50565b61162881611230565b811461163357600080fd5b50565b61163f81611286565b811461164a57600080fd5b5056fea26469706673582212206599024baf7051a8dde38b8581bc9d0fce162db24d26d2c01efbc43dc958163964736f6c63430008070033",
			"opcodes": "PUSH1 0x80 PUSH1 0x40 MSTORE CALLVALUE DUP1 ISZERO PUSH3 0x11 JUMPI PUSH1 0x0 DUP1 REVERT JUMPDEST POP PUSH1 0x40 MLOAD PUSH3 0x178A CODESIZE SUB DUP1 PUSH3 0x178A DUP4 CODECOPY DUP2 DUP2 ADD PUSH1 0x40 MSTORE DUP2 ADD SWAP1 PUSH3 0x37 SWAP2 SWAP1 PUSH3 0x9C JUMP JUMPDEST DUP1 PUSH1 0x1 DUP2 SWAP1 SSTORE POP CALLER PUSH1 0x0 DUP1 PUSH2 0x100 EXP DUP2 SLOAD DUP2 PUSH20 0xFFFFFFFFFFFFFFFFFFFFFFFFFFFFFFFFFFFFFFFF MUL NOT AND SWAP1 DUP4 PUSH20 0xFFFFFFFFFFFFFFFFFFFFFFFFFFFFFFFFFFFFFFFF AND MUL OR SWAP1 SSTORE POP POP PUSH3 0xF7 JUMP JUMPDEST PUSH1 0x0 DUP2 MLOAD SWAP1 POP PUSH3 0x96 DUP2 PUSH3 0xDD JUMP JUMPDEST SWAP3 SWAP2 POP POP JUMP JUMPDEST PUSH1 0x0 PUSH1 0x20 DUP3 DUP5 SUB SLT ISZERO PUSH3 0xB5 JUMPI PUSH3 0xB4 PUSH3 0xD8 JUMP JUMPDEST JUMPDEST PUSH1 0x0 PUSH3 0xC5 DUP5 DUP3 DUP6 ADD PUSH3 0x85 JUMP JUMPDEST SWAP2 POP POP SWAP3 SWAP2 POP POP JUMP JUMPDEST PUSH1 0x0 DUP2 SWAP1 POP SWAP2 SWAP1 POP JUMP JUMPDEST PUSH1 0x0 DUP1 REVERT JUMPDEST PUSH3 0xE8 DUP2 PUSH3 0xCE JUMP JUMPDEST DUP2 EQ PUSH3 0xF4 JUMPI PUSH1 0x0 DUP1 REVERT JUMPDEST POP JUMP JUMPDEST PUSH2 0x1683 DUP1 PUSH3 0x107 PUSH1 0x0 CODECOPY PUSH1 0x0 RETURN INVALID PUSH1 0x80 PUSH1 0x40 MSTORE PUSH1 0x4 CALLDATASIZE LT PUSH2 0x91 JUMPI PUSH1 0x0 CALLDATALOAD PUSH1 0xE0 SHR DUP1 PUSH4 0x796B89B9 GT PUSH2 0x59 JUMPI DUP1 PUSH4 0x796B89B9 EQ PUSH2 0x194 JUMPI DUP1 PUSH4 0x8F283970 EQ PUSH2 0x1BF JUMPI DUP1 PUSH4 0xC1A287E2 EQ PUSH2 0x1E8 JUMPI DUP1 PUSH4 0xF2B06537 EQ PUSH2 0x213 JUMPI DUP1 PUSH4 0xF851A440 EQ PUSH2 0x250 JUMPI PUSH2 0x91 JUMP JUMPDEST DUP1 PUSH4 0x4A71576 EQ PUSH2 0x96 JUMPI DUP1 PUSH4 0x825F38F EQ PUSH2 0xD3 JUMPI DUP1 PUSH4 0x3A66F901 EQ PUSH2 0x103 JUMPI DUP1 PUSH4 0x591FCDFE EQ PUSH2 0x140 JUMPI DUP1 PUSH4 0x6A42B8F8 EQ PUSH2 0x169 JUMPI JUMPDEST PUSH1 0x0 DUP1 REVERT JUMPDEST CALLVALUE DUP1 ISZERO PUSH2 0xA2 JUMPI PUSH1 0x0 DUP1 REVERT JUMPDEST POP PUSH2 0xBD PUSH1 0x4 DUP1 CALLDATASIZE SUB DUP2 ADD SWAP1 PUSH2 0xB8 SWAP2 SWAP1 PUSH2 0xB83 JUMP JUMPDEST PUSH2 0x27B JUMP JUMPDEST PUSH1 0x40 MLOAD PUSH2 0xCA SWAP2 SWAP1 PUSH2 0xF47 JUMP JUMPDEST PUSH1 0x40 MLOAD DUP1 SWAP2 SUB SWAP1 RETURN JUMPDEST PUSH2 0xED PUSH1 0x4 DUP1 CALLDATASIZE SUB DUP2 ADD SWAP1 PUSH2 0xE8 SWAP2 SWAP1 PUSH2 0xB83 JUMP JUMPDEST PUSH2 0x2B7 JUMP JUMPDEST PUSH1 0x40 MLOAD PUSH2 0xFA SWAP2 SWAP1 PUSH2 0xF62 JUMP JUMPDEST PUSH1 0x40 MLOAD DUP1 SWAP2 SUB SWAP1 RETURN JUMPDEST CALLVALUE DUP1 ISZERO PUSH2 0x10F JUMPI PUSH1 0x0 DUP1 REVERT JUMPDEST POP PUSH2 0x12A PUSH1 0x4 DUP1 CALLDATASIZE SUB DUP2 ADD SWAP1 PUSH2 0x125 SWAP2 SWAP1 PUSH2 0xB83 JUMP JUMPDEST PUSH2 0x5DB JUMP JUMPDEST PUSH1 0x40 MLOAD PUSH2 0x137 SWAP2 SWAP1 PUSH2 0xF47 JUMP JUMPDEST PUSH1 0x40 MLOAD DUP1 SWAP2 SUB SWAP1 RETURN JUMPDEST CALLVALUE DUP1 ISZERO PUSH2 0x14C JUMPI PUSH1 0x0 DUP1 REVERT JUMPDEST POP PUSH2 0x167 PUSH1 0x4 DUP1 CALLDATASIZE SUB DUP2 ADD SWAP1 PUSH2 0x162 SWAP2 SWAP1 PUSH2 0xB83 JUMP JUMPDEST PUSH2 0x762 JUMP JUMPDEST STOP JUMPDEST CALLVALUE DUP1 ISZERO PUSH2 0x175 JUMPI PUSH1 0x0 DUP1 REVERT JUMPDEST POP PUSH2 0x17E PUSH2 0x8EA JUMP JUMPDEST PUSH1 0x40 MLOAD PUSH2 0x18B SWAP2 SWAP1 PUSH2 0x1084 JUMP JUMPDEST PUSH1 0x40 MLOAD DUP1 SWAP2 SUB SWAP1 RETURN JUMPDEST CALLVALUE DUP1 ISZERO PUSH2 0x1A0 JUMPI PUSH1 0x0 DUP1 REVERT JUMPDEST POP PUSH2 0x1A9 PUSH2 0x8F0 JUMP JUMPDEST PUSH1 0x40 MLOAD PUSH2 0x1B6 SWAP2 SWAP1 PUSH2 0x1084 JUMP JUMPDEST PUSH1 0x40 MLOAD DUP1 SWAP2 SUB SWAP1 RETURN JUMPDEST CALLVALUE DUP1 ISZERO PUSH2 0x1CB JUMPI PUSH1 0x0 DUP1 REVERT JUMPDEST POP PUSH2 0x1E6 PUSH1 0x4 DUP1 CALLDATASIZE SUB DUP2 ADD SWAP1 PUSH2 0x1E1 SWAP2 SWAP1 PUSH2 0xB56 JUMP JUMPDEST PUSH2 0x8F8 JUMP JUMPDEST STOP JUMPDEST CALLVALUE DUP1 ISZERO PUSH2 0x1F4 JUMPI PUSH1 0x0 DUP1 REVERT JUMPDEST POP PUSH2 0x1FD PUSH2 0x9EC JUMP JUMPDEST PUSH1 0x40 MLOAD PUSH2 0x20A SWAP2 SWAP1 PUSH2 0x1084 JUMP JUMPDEST PUSH1 0x40 MLOAD DUP1 SWAP2 SUB SWAP1 RETURN JUMPDEST CALLVALUE DUP1 ISZERO PUSH2 0x21F JUMPI PUSH1 0x0 DUP1 REVERT JUMPDEST POP PUSH2 0x23A PUSH1 0x4 DUP1 CALLDATASIZE SUB DUP2 ADD SWAP1 PUSH2 0x235 SWAP2 SWAP1 PUSH2 0xC36 JUMP JUMPDEST PUSH2 0x9F3 JUMP JUMPDEST PUSH1 0x40 MLOAD PUSH2 0x247 SWAP2 SWAP1 PUSH2 0xF2C JUMP JUMPDEST PUSH1 0x40 MLOAD DUP1 SWAP2 SUB SWAP1 RETURN JUMPDEST CALLVALUE DUP1 ISZERO PUSH2 0x25C JUMPI PUSH1 0x0 DUP1 REVERT JUMPDEST POP PUSH2 0x265 PUSH2 0xA13 JUMP JUMPDEST PUSH1 0x40 MLOAD PUSH2 0x272 SWAP2 SWAP1 PUSH2 0xEB0 JUMP JUMPDEST PUSH1 0x40 MLOAD DUP1 SWAP2 SUB SWAP1 RETURN JUMPDEST PUSH1 0x0 DUP6 DUP6 DUP6 DUP6 DUP6 PUSH1 0x40 MLOAD PUSH1 0x20 ADD PUSH2 0x296 SWAP6 SWAP5 SWAP4 SWAP3 SWAP2 SWAP1 PUSH2 0xECB JUMP JUMPDEST PUSH1 0x40 MLOAD PUSH1 0x20 DUP2 DUP4 SUB SUB DUP2 MSTORE SWAP1 PUSH1 0x40 MSTORE DUP1 MLOAD SWAP1 PUSH1 0x20 ADD KECCAK256 SWAP1 POP SWAP6 SWAP5 POP POP POP POP POP JUMP JUMPDEST PUSH1 0x60 PUSH1 0x0 DUP1 SLOAD SWAP1 PUSH2 0x100 EXP SWAP1 DIV PUSH20 0xFFFFFFFFFFFFFFFFFFFFFFFFFFFFFFFFFFFFFFFF AND PUSH20 0xFFFFFFFFFFFFFFFFFFFFFFFFFFFFFFFFFFFFFFFF AND CALLER PUSH20 0xFFFFFFFFFFFFFFFFFFFFFFFFFFFFFFFFFFFFFFFF AND EQ PUSH2 0x347 JUMPI PUSH1 0x40 MLOAD PUSH32 0x8C379A000000000000000000000000000000000000000000000000000000000 DUP2 MSTORE PUSH1 0x4 ADD PUSH2 0x33E SWAP1 PUSH2 0x1024 JUMP JUMPDEST PUSH1 0x40 MLOAD DUP1 SWAP2 SUB SWAP1 REVERT JUMPDEST PUSH1 0x0 PUSH2 0x356 DUP8 DUP8 DUP8 DUP8 DUP8 PUSH2 0x27B JUMP JUMPDEST SWAP1 POP PUSH1 0x2 PUSH1 0x0 DUP3 DUP2 MSTORE PUSH1 0x20 ADD SWAP1 DUP2 MSTORE PUSH1 0x20 ADD PUSH1 0x0 KECCAK256 PUSH1 0x0 SWAP1 SLOAD SWAP1 PUSH2 0x100 EXP SWAP1 DIV PUSH1 0xFF AND PUSH2 0x3B8 JUMPI PUSH1 0x40 MLOAD PUSH32 0x8C379A000000000000000000000000000000000000000000000000000000000 DUP2 MSTORE PUSH1 0x4 ADD PUSH2 0x3AF SWAP1 PUSH2 0xFE4 JUMP JUMPDEST PUSH1 0x40 MLOAD DUP1 SWAP2 SUB SWAP1 REVERT JUMPDEST DUP3 PUSH2 0x3C1 PUSH2 0x8F0 JUMP JUMPDEST LT ISZERO PUSH2 0x402 JUMPI PUSH1 0x40 MLOAD PUSH32 0x8C379A000000000000000000000000000000000000000000000000000000000 DUP2 MSTORE PUSH1 0x4 ADD PUSH2 0x3F9 SWAP1 PUSH2 0xFC4 JUMP JUMPDEST PUSH1 0x40 MLOAD DUP1 SWAP2 SUB SWAP1 REVERT JUMPDEST PUSH3 0x93A80 DUP4 PUSH2 0x411 SWAP2 SWAP1 PUSH2 0x11BC JUMP JUMPDEST PUSH2 0x419 PUSH2 0x8F0 JUMP JUMPDEST GT ISZERO PUSH2 0x45A JUMPI PUSH1 0x40 MLOAD PUSH32 0x8C379A000000000000000000000000000000000000000000000000000000000 DUP2 MSTORE PUSH1 0x4 ADD PUSH2 0x451 SWAP1 PUSH2 0xFA4 JUMP JUMPDEST PUSH1 0x40 MLOAD DUP1 SWAP2 SUB SWAP1 REVERT JUMPDEST PUSH1 0x0 PUSH1 0x2 PUSH1 0x0 DUP4 DUP2 MSTORE PUSH1 0x20 ADD SWAP1 DUP2 MSTORE PUSH1 0x20 ADD PUSH1 0x0 KECCAK256 PUSH1 0x0 PUSH2 0x100 EXP DUP2 SLOAD DUP2 PUSH1 0xFF MUL NOT AND SWAP1 DUP4 ISZERO ISZERO MUL OR SWAP1 SSTORE POP PUSH1 0x60 PUSH1 0x0 DUP7 MLOAD EQ ISZERO PUSH2 0x49A JUMPI DUP5 SWAP1 POP PUSH2 0x4C6 JUMP JUMPDEST DUP6 DUP1 MLOAD SWAP1 PUSH1 0x20 ADD KECCAK256 DUP6 PUSH1 0x40 MLOAD PUSH1 0x20 ADD PUSH2 0x4B4 SWAP3 SWAP2 SWAP1 PUSH2 0xE71 JUMP JUMPDEST PUSH1 0x40 MLOAD PUSH1 0x20 DUP2 DUP4 SUB SUB DUP2 MSTORE SWAP1 PUSH1 0x40 MSTORE SWAP1 POP JUMPDEST PUSH1 0x0 DUP1 DUP10 PUSH20 0xFFFFFFFFFFFFFFFFFFFFFFFFFFFFFFFFFFFFFFFF AND DUP10 DUP5 PUSH1 0x40 MLOAD PUSH2 0x4EF SWAP2 SWAP1 PUSH2 0xE99 JUMP JUMPDEST PUSH1 0x0 PUSH1 0x40 MLOAD DUP1 DUP4 SUB DUP2 DUP6 DUP8 GAS CALL SWAP3 POP POP POP RETURNDATASIZE DUP1 PUSH1 0x0 DUP2 EQ PUSH2 0x52C JUMPI PUSH1 0x40 MLOAD SWAP2 POP PUSH1 0x1F NOT PUSH1 0x3F RETURNDATASIZE ADD AND DUP3 ADD PUSH1 0x40 MSTORE RETURNDATASIZE DUP3 MSTORE RETURNDATASIZE PUSH1 0x0 PUSH1 0x20 DUP5 ADD RETURNDATACOPY PUSH2 0x531 JUMP JUMPDEST PUSH1 0x60 SWAP2 POP JUMPDEST POP SWAP2 POP SWAP2 POP DUP2 PUSH2 0x576 JUMPI PUSH1 0x40 MLOAD PUSH32 0x8C379A000000000000000000000000000000000000000000000000000000000 DUP2 MSTORE PUSH1 0x4 ADD PUSH2 0x56D SWAP1 PUSH2 0x1004 JUMP JUMPDEST PUSH1 0x40 MLOAD DUP1 SWAP2 SUB SWAP1 REVERT JUMPDEST DUP10 PUSH20 0xFFFFFFFFFFFFFFFFFFFFFFFFFFFFFFFFFFFFFFFF AND DUP5 PUSH32 0xA560E3198060A2F10670C1EC5B403077EA6AE93CA8DE1C32B451DC1A943CD6E7 DUP12 DUP12 DUP12 DUP12 PUSH1 0x40 MLOAD PUSH2 0x5C3 SWAP5 SWAP4 SWAP3 SWAP2 SWAP1 PUSH2 0x109F JUMP JUMPDEST PUSH1 0x40 MLOAD DUP1 SWAP2 SUB SWAP1 LOG3 DUP1 SWAP5 POP POP POP POP POP SWAP6 SWAP5 POP POP POP POP POP JUMP JUMPDEST PUSH1 0x0 DUP1 PUSH1 0x0 SWAP1 SLOAD SWAP1 PUSH2 0x100 EXP SWAP1 DIV PUSH20 0xFFFFFFFFFFFFFFFFFFFFFFFFFFFFFFFFFFFFFFFF AND PUSH20 0xFFFFFFFFFFFFFFFFFFFFFFFFFFFFFFFFFFFFFFFF AND CALLER PUSH20 0xFFFFFFFFFFFFFFFFFFFFFFFFFFFFFFFFFFFFFFFF AND EQ PUSH2 0x66C JUMPI PUSH1 0x40 MLOAD PUSH32 0x8C379A000000000000000000000000000000000000000000000000000000000 DUP2 MSTORE PUSH1 0x4 ADD PUSH2 0x663 SWAP1 PUSH2 0x1024 JUMP JUMPDEST PUSH1 0x40 MLOAD DUP1 SWAP2 SUB SWAP1 REVERT JUMPDEST PUSH1 0x1 SLOAD PUSH2 0x677 PUSH2 0x8F0 JUMP JUMPDEST PUSH2 0x681 SWAP2 SWAP1 PUSH2 0x11BC JUMP JUMPDEST DUP3 LT ISZERO PUSH2 0x6C3 JUMPI PUSH1 0x40 MLOAD PUSH32 0x8C379A000000000000000000000000000000000000000000000000000000000 DUP2 MSTORE PUSH1 0x4 ADD PUSH2 0x6BA SWAP1 PUSH2 0x1064 JUMP JUMPDEST PUSH1 0x40 MLOAD DUP1 SWAP2 SUB SWAP1 REVERT JUMPDEST PUSH1 0x0 PUSH2 0x6D2 DUP8 DUP8 DUP8 DUP8 DUP8 PUSH2 0x27B JUMP JUMPDEST SWAP1 POP PUSH1 0x1 PUSH1 0x2 PUSH1 0x0 DUP4 DUP2 MSTORE PUSH1 0x20 ADD SWAP1 DUP2 MSTORE PUSH1 0x20 ADD PUSH1 0x0 KECCAK256 PUSH1 0x0 PUSH2 0x100 EXP DUP2 SLOAD DUP2 PUSH1 0xFF MUL NOT AND SWAP1 DUP4 ISZERO ISZERO MUL OR SWAP1 SSTORE POP DUP7 PUSH20 0xFFFFFFFFFFFFFFFFFFFFFFFFFFFFFFFFFFFFFFFF AND DUP2 PUSH32 0x76E2796DC3A81D57B0E8504B647FEBCBEEB5F4AF818E164F11EEF8131A6A763F DUP9 DUP9 DUP9 DUP9 PUSH1 0x40 MLOAD PUSH2 0x74D SWAP5 SWAP4 SWAP3 SWAP2 SWAP1 PUSH2 0x109F JUMP JUMPDEST PUSH1 0x40 MLOAD DUP1 SWAP2 SUB SWAP1 LOG3 DUP1 SWAP2 POP POP SWAP6 SWAP5 POP POP POP POP POP JUMP JUMPDEST PUSH1 0x0 DUP1 SLOAD SWAP1 PUSH2 0x100 EXP SWAP1 DIV PUSH20 0xFFFFFFFFFFFFFFFFFFFFFFFFFFFFFFFFFFFFFFFF AND PUSH20 0xFFFFFFFFFFFFFFFFFFFFFFFFFFFFFFFFFFFFFFFF AND CALLER PUSH20 0xFFFFFFFFFFFFFFFFFFFFFFFFFFFFFFFFFFFFFFFF AND EQ PUSH2 0x7F0 JUMPI PUSH1 0x40 MLOAD PUSH32 0x8C379A000000000000000000000000000000000000000000000000000000000 DUP2 MSTORE PUSH1 0x4 ADD PUSH2 0x7E7 SWAP1 PUSH2 0x1024 JUMP JUMPDEST PUSH1 0x40 MLOAD DUP1 SWAP2 SUB SWAP1 REVERT JUMPDEST PUSH1 0x0 PUSH2 0x7FF DUP7 DUP7 DUP7 DUP7 DUP7 PUSH2 0x27B JUMP JUMPDEST SWAP1 POP PUSH1 0x2 PUSH1 0x0 DUP3 DUP2 MSTORE PUSH1 0x20 ADD SWAP1 DUP2 MSTORE PUSH1 0x20 ADD PUSH1 0x0 KECCAK256 PUSH1 0x0 SWAP1 SLOAD SWAP1 PUSH2 0x100 EXP SWAP1 DIV PUSH1 0xFF AND PUSH2 0x861 JUMPI PUSH1 0x40 MLOAD PUSH32 0x8C379A000000000000000000000000000000000000000000000000000000000 DUP2 MSTORE PUSH1 0x4 ADD PUSH2 0x858 SWAP1 PUSH2 0xF84 JUMP JUMPDEST PUSH1 0x40 MLOAD DUP1 SWAP2 SUB SWAP1 REVERT JUMPDEST PUSH1 0x0 PUSH1 0x2 PUSH1 0x0 DUP4 DUP2 MSTORE PUSH1 0x20 ADD SWAP1 DUP2 MSTORE PUSH1 0x20 ADD PUSH1 0x0 KECCAK256 PUSH1 0x0 PUSH2 0x100 EXP DUP2 SLOAD DUP2 PUSH1 0xFF MUL NOT AND SWAP1 DUP4 ISZERO ISZERO MUL OR SWAP1 SSTORE POP DUP6 PUSH20 0xFFFFFFFFFFFFFFFFFFFFFFFFFFFFFFFFFFFFFFFF AND DUP2 PUSH32 0x2FFFC091A501FD91BFBFF27141450D3ACB40FB8E6D8382B243EC7A812A3AAF87 DUP8 DUP8 DUP8 DUP8 PUSH1 0x40 MLOAD PUSH2 0x8DA SWAP5 SWAP4 SWAP3 SWAP2 SWAP1 PUSH2 0x109F JUMP JUMPDEST PUSH1 0x40 MLOAD DUP1 SWAP2 SUB SWAP1 LOG3 POP POP POP POP POP POP JUMP JUMPDEST PUSH1 0x1 SLOAD DUP2 JUMP JUMPDEST PUSH1 0x0 TIMESTAMP SWAP1 POP SWAP1 JUMP JUMPDEST ADDRESS PUSH20 0xFFFFFFFFFFFFFFFFFFFFFFFFFFFFFFFFFFFFFFFF AND CALLER PUSH20 0xFFFFFFFFFFFFFFFFFFFFFFFFFFFFFFFFFFFFFFFF AND EQ PUSH2 0x966 JUMPI PUSH1 0x40 MLOAD PUSH32 0x8C379A000000000000000000000000000000000000000000000000000000000 DUP2 MSTORE PUSH1 0x4 ADD PUSH2 0x95D SWAP1 PUSH2 0x1044 JUMP JUMPDEST PUSH1 0x40 MLOAD DUP1 SWAP2 SUB SWAP1 REVERT JUMPDEST DUP1 PUSH1 0x0 DUP1 PUSH2 0x100 EXP DUP2 SLOAD DUP2 PUSH20 0xFFFFFFFFFFFFFFFFFFFFFFFFFFFFFFFFFFFFFFFF MUL NOT AND SWAP1 DUP4 PUSH20 0xFFFFFFFFFFFFFFFFFFFFFFFFFFFFFFFFFFFFFFFF AND MUL OR SWAP1 SSTORE POP DUP1 PUSH20 0xFFFFFFFFFFFFFFFFFFFFFFFFFFFFFFFFFFFFFFFF AND PUSH32 0x71614071B88DEE5E0B2AE578A9DD7B2EBBE9AE832BA419DC0242CD065A290B6C PUSH1 0x40 MLOAD PUSH1 0x40 MLOAD DUP1 SWAP2 SUB SWAP1 LOG2 POP JUMP JUMPDEST PUSH3 0x93A80 DUP2 JUMP JUMPDEST PUSH1 0x2 PUSH1 0x20 MSTORE DUP1 PUSH1 0x0 MSTORE PUSH1 0x40 PUSH1 0x0 KECCAK256 PUSH1 0x0 SWAP2 POP SLOAD SWAP1 PUSH2 0x100 EXP SWAP1 DIV PUSH1 0xFF AND DUP2 JUMP JUMPDEST PUSH1 0x0 DUP1 SLOAD SWAP1 PUSH2 0x100 EXP SWAP1 DIV PUSH20 0xFFFFFFFFFFFFFFFFFFFFFFFFFFFFFFFFFFFFFFFF AND DUP2 JUMP JUMPDEST PUSH1 0x0 PUSH2 0xA4A PUSH2 0xA45 DUP5 PUSH2 0x1117 JUMP JUMPDEST PUSH2 0x10F2 JUMP JUMPDEST SWAP1 POP DUP3 DUP2 MSTORE PUSH1 0x20 DUP2 ADD DUP5 DUP5 DUP5 ADD GT ISZERO PUSH2 0xA66 JUMPI PUSH2 0xA65 PUSH2 0x1370 JUMP JUMPDEST JUMPDEST PUSH2 0xA71 DUP5 DUP3 DUP6 PUSH2 0x1290 JUMP JUMPDEST POP SWAP4 SWAP3 POP POP POP JUMP JUMPDEST PUSH1 0x0 PUSH2 0xA8C PUSH2 0xA87 DUP5 PUSH2 0x1148 JUMP JUMPDEST PUSH2 0x10F2 JUMP JUMPDEST SWAP1 POP DUP3 DUP2 MSTORE PUSH1 0x20 DUP2 ADD DUP5 DUP5 DUP5 ADD GT ISZERO PUSH2 0xAA8 JUMPI PUSH2 0xAA7 PUSH2 0x1370 JUMP JUMPDEST JUMPDEST PUSH2 0xAB3 DUP5 DUP3 DUP6 PUSH2 0x1290 JUMP JUMPDEST POP SWAP4 SWAP3 POP POP POP JUMP JUMPDEST PUSH1 0x0 DUP2 CALLDATALOAD SWAP1 POP PUSH2 0xACA DUP2 PUSH2 0x1608 JUMP JUMPDEST SWAP3 SWAP2 POP POP JUMP JUMPDEST PUSH1 0x0 DUP2 CALLDATALOAD SWAP1 POP PUSH2 0xADF DUP2 PUSH2 0x161F JUMP JUMPDEST SWAP3 SWAP2 POP POP JUMP JUMPDEST PUSH1 0x0 DUP3 PUSH1 0x1F DUP4 ADD SLT PUSH2 0xAFA JUMPI PUSH2 0xAF9 PUSH2 0x136B JUMP JUMPDEST JUMPDEST DUP2 CALLDATALOAD PUSH2 0xB0A DUP5 DUP3 PUSH1 0x20 DUP7 ADD PUSH2 0xA37 JUMP JUMPDEST SWAP2 POP POP SWAP3 SWAP2 POP POP JUMP JUMPDEST PUSH1 0x0 DUP3 PUSH1 0x1F DUP4 ADD SLT PUSH2 0xB28 JUMPI PUSH2 0xB27 PUSH2 0x136B JUMP JUMPDEST JUMPDEST DUP2 CALLDATALOAD PUSH2 0xB38 DUP5 DUP3 PUSH1 0x20 DUP7 ADD PUSH2 0xA79 JUMP JUMPDEST SWAP2 POP POP SWAP3 SWAP2 POP POP JUMP JUMPDEST PUSH1 0x0 DUP2 CALLDATALOAD SWAP1 POP PUSH2 0xB50 DUP2 PUSH2 0x1636 JUMP JUMPDEST SWAP3 SWAP2 POP POP JUMP JUMPDEST PUSH1 0x0 PUSH1 0x20 DUP3 DUP5 SUB SLT ISZERO PUSH2 0xB6C JUMPI PUSH2 0xB6B PUSH2 0x137A JUMP JUMPDEST JUMPDEST PUSH1 0x0 PUSH2 0xB7A DUP5 DUP3 DUP6 ADD PUSH2 0xABB JUMP JUMPDEST SWAP2 POP POP SWAP3 SWAP2 POP POP JUMP JUMPDEST PUSH1 0x0 DUP1 PUSH1 0x0 DUP1 PUSH1 0x0 PUSH1 0xA0 DUP7 DUP9 SUB SLT ISZERO PUSH2 0xB9F JUMPI PUSH2 0xB9E PUSH2 0x137A JUMP JUMPDEST JUMPDEST PUSH1 0x0 PUSH2 0xBAD DUP9 DUP3 DUP10 ADD PUSH2 0xABB JUMP JUMPDEST SWAP6 POP POP PUSH1 0x20 PUSH2 0xBBE DUP9 DUP3 DUP10 ADD PUSH2 0xB41 JUMP JUMPDEST SWAP5 POP POP PUSH1 0x40 DUP7 ADD CALLDATALOAD PUSH8 0xFFFFFFFFFFFFFFFF DUP2 GT ISZERO PUSH2 0xBDF JUMPI PUSH2 0xBDE PUSH2 0x1375 JUMP JUMPDEST JUMPDEST PUSH2 0xBEB DUP9 DUP3 DUP10 ADD PUSH2 0xB13 JUMP JUMPDEST SWAP4 POP POP PUSH1 0x60 DUP7 ADD CALLDATALOAD PUSH8 0xFFFFFFFFFFFFFFFF DUP2 GT ISZERO PUSH2 0xC0C JUMPI PUSH2 0xC0B PUSH2 0x1375 JUMP JUMPDEST JUMPDEST PUSH2 0xC18 DUP9 DUP3 DUP10 ADD PUSH2 0xAE5 JUMP JUMPDEST SWAP3 POP POP PUSH1 0x80 PUSH2 0xC29 DUP9 DUP3 DUP10 ADD PUSH2 0xB41 JUMP JUMPDEST SWAP2 POP POP SWAP3 SWAP6 POP SWAP3 SWAP6 SWAP1 SWAP4 POP JUMP JUMPDEST PUSH1 0x0 PUSH1 0x20 DUP3 DUP5 SUB SLT ISZERO PUSH2 0xC4C JUMPI PUSH2 0xC4B PUSH2 0x137A JUMP JUMPDEST JUMPDEST PUSH1 0x0 PUSH2 0xC5A DUP5 DUP3 DUP6 ADD PUSH2 0xAD0 JUMP JUMPDEST SWAP2 POP POP SWAP3 SWAP2 POP POP JUMP JUMPDEST PUSH2 0xC6C DUP2 PUSH2 0x1212 JUMP JUMPDEST DUP3 MSTORE POP POP JUMP JUMPDEST PUSH2 0xC7B DUP2 PUSH2 0x1224 JUMP JUMPDEST DUP3 MSTORE POP POP JUMP JUMPDEST PUSH2 0xC8A DUP2 PUSH2 0x1230 JUMP JUMPDEST DUP3 MSTORE POP POP JUMP JUMPDEST PUSH2 0xCA1 PUSH2 0xC9C DUP3 PUSH2 0x123A JUMP JUMPDEST PUSH2 0x1303 JUMP JUMPDEST DUP3 MSTORE POP POP JUMP JUMPDEST PUSH1 0x0 PUSH2 0xCB2 DUP3 PUSH2 0x1179 JUMP JUMPDEST PUSH2 0xCBC DUP2 DUP6 PUSH2 0x118F JUMP JUMPDEST SWAP4 POP PUSH2 0xCCC DUP2 DUP6 PUSH1 0x20 DUP7 ADD PUSH2 0x129F JUMP JUMPDEST PUSH2 0xCD5 DUP2 PUSH2 0x137F JUMP JUMPDEST DUP5 ADD SWAP2 POP POP SWAP3 SWAP2 POP POP JUMP JUMPDEST PUSH1 0x0 PUSH2 0xCEB DUP3 PUSH2 0x1179 JUMP JUMPDEST PUSH2 0xCF5 DUP2 DUP6 PUSH2 0x11A0 JUMP JUMPDEST SWAP4 POP PUSH2 0xD05 DUP2 DUP6 PUSH1 0x20 DUP7 ADD PUSH2 0x129F JUMP JUMPDEST DUP1 DUP5 ADD SWAP2 POP POP SWAP3 SWAP2 POP POP JUMP JUMPDEST PUSH1 0x0 PUSH2 0xD1C DUP3 PUSH2 0x1184 JUMP JUMPDEST PUSH2 0xD26 DUP2 DUP6 PUSH2 0x11AB JUMP JUMPDEST SWAP4 POP PUSH2 0xD36 DUP2 DUP6 PUSH1 0x20 DUP7 ADD PUSH2 0x129F JUMP JUMPDEST PUSH2 0xD3F DUP2 PUSH2 0x137F JUMP JUMPDEST DUP5 ADD SWAP2 POP POP SWAP3 SWAP2 POP POP JUMP JUMPDEST PUSH1 0x0 PUSH2 0xD57 PUSH1 0x3C DUP4 PUSH2 0x11AB JUMP JUMPDEST SWAP2 POP PUSH2 0xD62 DUP3 PUSH2 0x1390 JUMP JUMPDEST PUSH1 0x40 DUP3 ADD SWAP1 POP SWAP2 SWAP1 POP JUMP JUMPDEST PUSH1 0x0 PUSH2 0xD7A PUSH1 0x33 DUP4 PUSH2 0x11AB JUMP JUMPDEST SWAP2 POP PUSH2 0xD85 DUP3 PUSH2 0x13DF JUMP JUMPDEST PUSH1 0x40 DUP3 ADD SWAP1 POP SWAP2 SWAP1 POP JUMP JUMPDEST PUSH1 0x0 PUSH2 0xD9D PUSH1 0x45 DUP4 PUSH2 0x11AB JUMP JUMPDEST SWAP2 POP PUSH2 0xDA8 DUP3 PUSH2 0x142E JUMP JUMPDEST PUSH1 0x60 DUP3 ADD SWAP1 POP SWAP2 SWAP1 POP JUMP JUMPDEST PUSH1 0x0 PUSH2 0xDC0 PUSH1 0x3D DUP4 PUSH2 0x11AB JUMP JUMPDEST SWAP2 POP PUSH2 0xDCB DUP3 PUSH2 0x14A3 JUMP JUMPDEST PUSH1 0x40 DUP3 ADD SWAP1 POP SWAP2 SWAP1 POP JUMP JUMPDEST PUSH1 0x0 PUSH2 0xDE3 PUSH1 0x3D DUP4 PUSH2 0x11AB JUMP JUMPDEST SWAP2 POP PUSH2 0xDEE DUP3 PUSH2 0x14F2 JUMP JUMPDEST PUSH1 0x40 DUP3 ADD SWAP1 POP SWAP2 SWAP1 POP JUMP JUMPDEST PUSH1 0x0 PUSH2 0xE06 PUSH1 0x1A DUP4 PUSH2 0x11AB JUMP JUMPDEST SWAP2 POP PUSH2 0xE11 DUP3 PUSH2 0x1541 JUMP JUMPDEST PUSH1 0x20 DUP3 ADD SWAP1 POP SWAP2 SWAP1 POP JUMP JUMPDEST PUSH1 0x0 PUSH2 0xE29 PUSH1 0x1D DUP4 PUSH2 0x11AB JUMP JUMPDEST SWAP2 POP PUSH2 0xE34 DUP3 PUSH2 0x156A JUMP JUMPDEST PUSH1 0x20 DUP3 ADD SWAP1 POP SWAP2 SWAP1 POP JUMP JUMPDEST PUSH1 0x0 PUSH2 0xE4C PUSH1 0x49 DUP4 PUSH2 0x11AB JUMP JUMPDEST SWAP2 POP PUSH2 0xE57 DUP3 PUSH2 0x1593 JUMP JUMPDEST PUSH1 0x60 DUP3 ADD SWAP1 POP SWAP2 SWAP1 POP JUMP JUMPDEST PUSH2 0xE6B DUP2 PUSH2 0x1286 JUMP JUMPDEST DUP3 MSTORE POP POP JUMP JUMPDEST PUSH1 0x0 PUSH2 0xE7D DUP3 DUP6 PUSH2 0xC90 JUMP JUMPDEST PUSH1 0x4 DUP3 ADD SWAP2 POP PUSH2 0xE8D DUP3 DUP5 PUSH2 0xCE0 JUMP JUMPDEST SWAP2 POP DUP2 SWAP1 POP SWAP4 SWAP3 POP POP POP JUMP JUMPDEST PUSH1 0x0 PUSH2 0xEA5 DUP3 DUP5 PUSH2 0xCE0 JUMP JUMPDEST SWAP2 POP DUP2 SWAP1 POP SWAP3 SWAP2 POP POP JUMP JUMPDEST PUSH1 0x0 PUSH1 0x20 DUP3 ADD SWAP1 POP PUSH2 0xEC5 PUSH1 0x0 DUP4 ADD DUP5 PUSH2 0xC63 JUMP JUMPDEST SWAP3 SWAP2 POP POP JUMP JUMPDEST PUSH1 0x0 PUSH1 0xA0 DUP3 ADD SWAP1 POP PUSH2 0xEE0 PUSH1 0x0 DUP4 ADD DUP9 PUSH2 0xC63 JUMP JUMPDEST PUSH2 0xEED PUSH1 0x20 DUP4 ADD DUP8 PUSH2 0xE62 JUMP JUMPDEST DUP2 DUP2 SUB PUSH1 0x40 DUP4 ADD MSTORE PUSH2 0xEFF DUP2 DUP7 PUSH2 0xD11 JUMP JUMPDEST SWAP1 POP DUP2 DUP2 SUB PUSH1 0x60 DUP4 ADD MSTORE PUSH2 0xF13 DUP2 DUP6 PUSH2 0xCA7 JUMP JUMPDEST SWAP1 POP PUSH2 0xF22 PUSH1 0x80 DUP4 ADD DUP5 PUSH2 0xE62 JUMP JUMPDEST SWAP7 SWAP6 POP POP POP POP POP POP JUMP JUMPDEST PUSH1 0x0 PUSH1 0x20 DUP3 ADD SWAP1 POP PUSH2 0xF41 PUSH1 0x0 DUP4 ADD DUP5 PUSH2 0xC72 JUMP JUMPDEST SWAP3 SWAP2 POP POP JUMP JUMPDEST PUSH1 0x0 PUSH1 0x20 DUP3 ADD SWAP1 POP PUSH2 0xF5C PUSH1 0x0 DUP4 ADD DUP5 PUSH2 0xC81 JUMP JUMPDEST SWAP3 SWAP2 POP POP JUMP JUMPDEST PUSH1 0x0 PUSH1 0x20 DUP3 ADD SWAP1 POP DUP2 DUP2 SUB PUSH1 0x0 DUP4 ADD MSTORE PUSH2 0xF7C DUP2 DUP5 PUSH2 0xCA7 JUMP JUMPDEST SWAP1 POP SWAP3 SWAP2 POP POP JUMP JUMPDEST PUSH1 0x0 PUSH1 0x20 DUP3 ADD SWAP1 POP DUP2 DUP2 SUB PUSH1 0x0 DUP4 ADD MSTORE PUSH2 0xF9D DUP2 PUSH2 0xD4A JUMP JUMPDEST SWAP1 POP SWAP2 SWAP1 POP JUMP JUMPDEST PUSH1 0x0 PUSH1 0x20 DUP3 ADD SWAP1 POP DUP2 DUP2 SUB PUSH1 0x0 DUP4 ADD MSTORE PUSH2 0xFBD DUP2 PUSH2 0xD6D JUMP JUMPDEST SWAP1 POP SWAP2 SWAP1 POP JUMP JUMPDEST PUSH1 0x0 PUSH1 0x20 DUP3 ADD SWAP1 POP DUP2 DUP2 SUB PUSH1 0x0 DUP4 ADD MSTORE PUSH2 0xFDD DUP2 PUSH2 0xD90 JUMP JUMPDEST SWAP1 POP SWAP2 SWAP1 POP JUMP JUMPDEST PUSH1 0x0 PUSH1 0x20 DUP3 ADD SWAP1 POP DUP2 DUP2 SUB PUSH1 0x0 DUP4 ADD MSTORE PUSH2 0xFFD DUP2 PUSH2 0xDB3 JUMP JUMPDEST SWAP1 POP SWAP2 SWAP1 POP JUMP JUMPDEST PUSH1 0x0 PUSH1 0x20 DUP3 ADD SWAP1 POP DUP2 DUP2 SUB PUSH1 0x0 DUP4 ADD MSTORE PUSH2 0x101D DUP2 PUSH2 0xDD6 JUMP JUMPDEST SWAP1 POP SWAP2 SWAP1 POP JUMP JUMPDEST PUSH1 0x0 PUSH1 0x20 DUP3 ADD SWAP1 POP DUP2 DUP2 SUB PUSH1 0x0 DUP4 ADD MSTORE PUSH2 0x103D DUP2 PUSH2 0xDF9 JUMP JUMPDEST SWAP1 POP SWAP2 SWAP1 POP JUMP JUMPDEST PUSH1 0x0 PUSH1 0x20 DUP3 ADD SWAP1 POP DUP2 DUP2 SUB PUSH1 0x0 DUP4 ADD MSTORE PUSH2 0x105D DUP2 PUSH2 0xE1C JUMP JUMPDEST SWAP1 POP SWAP2 SWAP1 POP JUMP JUMPDEST PUSH1 0x0 PUSH1 0x20 DUP3 ADD SWAP1 POP DUP2 DUP2 SUB PUSH1 0x0 DUP4 ADD MSTORE PUSH2 0x107D DUP2 PUSH2 0xE3F JUMP JUMPDEST SWAP1 POP SWAP2 SWAP1 POP JUMP JUMPDEST PUSH1 0x0 PUSH1 0x20 DUP3 ADD SWAP1 POP PUSH2 0x1099 PUSH1 0x0 DUP4 ADD DUP5 PUSH2 0xE62 JUMP JUMPDEST SWAP3 SWAP2 POP POP JUMP JUMPDEST PUSH1 0x0 PUSH1 0x80 DUP3 ADD SWAP1 POP PUSH2 0x10B4 PUSH1 0x0 DUP4 ADD DUP8 PUSH2 0xE62 JUMP JUMPDEST DUP2 DUP2 SUB PUSH1 0x20 DUP4 ADD MSTORE PUSH2 0x10C6 DUP2 DUP7 PUSH2 0xD11 JUMP JUMPDEST SWAP1 POP DUP2 DUP2 SUB PUSH1 0x40 DUP4 ADD MSTORE PUSH2 0x10DA DUP2 DUP6 PUSH2 0xCA7 JUMP JUMPDEST SWAP1 POP PUSH2 0x10E9 PUSH1 0x60 DUP4 ADD DUP5 PUSH2 0xE62 JUMP JUMPDEST SWAP6 SWAP5 POP POP POP POP POP JUMP JUMPDEST PUSH1 0x0 PUSH2 0x10FC PUSH2 0x110D JUMP JUMPDEST SWAP1 POP PUSH2 0x1108 DUP3 DUP3 PUSH2 0x12D2 JUMP JUMPDEST SWAP2 SWAP1 POP JUMP JUMPDEST PUSH1 0x0 PUSH1 0x40 MLOAD SWAP1 POP SWAP1 JUMP JUMPDEST PUSH1 0x0 PUSH8 0xFFFFFFFFFFFFFFFF DUP3 GT ISZERO PUSH2 0x1132 JUMPI PUSH2 0x1131 PUSH2 0x133C JUMP JUMPDEST JUMPDEST PUSH2 0x113B DUP3 PUSH2 0x137F JUMP JUMPDEST SWAP1 POP PUSH1 0x20 DUP2 ADD SWAP1 POP SWAP2 SWAP1 POP JUMP JUMPDEST PUSH1 0x0 PUSH8 0xFFFFFFFFFFFFFFFF DUP3 GT ISZERO PUSH2 0x1163 JUMPI PUSH2 0x1162 PUSH2 0x133C JUMP JUMPDEST JUMPDEST PUSH2 0x116C DUP3 PUSH2 0x137F JUMP JUMPDEST SWAP1 POP PUSH1 0x20 DUP2 ADD SWAP1 POP SWAP2 SWAP1 POP JUMP JUMPDEST PUSH1 0x0 DUP2 MLOAD SWAP1 POP SWAP2 SWAP1 POP JUMP JUMPDEST PUSH1 0x0 DUP2 MLOAD SWAP1 POP SWAP2 SWAP1 POP JUMP JUMPDEST PUSH1 0x0 DUP3 DUP3 MSTORE PUSH1 0x20 DUP3 ADD SWAP1 POP SWAP3 SWAP2 POP POP JUMP JUMPDEST PUSH1 0x0 DUP2 SWAP1 POP SWAP3 SWAP2 POP POP JUMP JUMPDEST PUSH1 0x0 DUP3 DUP3 MSTORE PUSH1 0x20 DUP3 ADD SWAP1 POP SWAP3 SWAP2 POP POP JUMP JUMPDEST PUSH1 0x0 PUSH2 0x11C7 DUP3 PUSH2 0x1286 JUMP JUMPDEST SWAP2 POP PUSH2 0x11D2 DUP4 PUSH2 0x1286 JUMP JUMPDEST SWAP3 POP DUP3 PUSH32 0xFFFFFFFFFFFFFFFFFFFFFFFFFFFFFFFFFFFFFFFFFFFFFFFFFFFFFFFFFFFFFFFF SUB DUP3 GT ISZERO PUSH2 0x1207 JUMPI PUSH2 0x1206 PUSH2 0x130D JUMP JUMPDEST JUMPDEST DUP3 DUP3 ADD SWAP1 POP SWAP3 SWAP2 POP POP JUMP JUMPDEST PUSH1 0x0 PUSH2 0x121D DUP3 PUSH2 0x1266 JUMP JUMPDEST SWAP1 POP SWAP2 SWAP1 POP JUMP JUMPDEST PUSH1 0x0 DUP2 ISZERO ISZERO SWAP1 POP SWAP2 SWAP1 POP JUMP JUMPDEST PUSH1 0x0 DUP2 SWAP1 POP SWAP2 SWAP1 POP JUMP JUMPDEST PUSH1 0x0 PUSH32 0xFFFFFFFF00000000000000000000000000000000000000000000000000000000 DUP3 AND SWAP1 POP SWAP2 SWAP1 POP JUMP JUMPDEST PUSH1 0x0 PUSH20 0xFFFFFFFFFFFFFFFFFFFFFFFFFFFFFFFFFFFFFFFF DUP3 AND SWAP1 POP SWAP2 SWAP1 POP JUMP JUMPDEST PUSH1 0x0 DUP2 SWAP1 POP SWAP2 SWAP1 POP JUMP JUMPDEST DUP3 DUP2 DUP4 CALLDATACOPY PUSH1 0x0 DUP4 DUP4 ADD MSTORE POP POP POP JUMP JUMPDEST PUSH1 0x0 JUMPDEST DUP4 DUP2 LT ISZERO PUSH2 0x12BD JUMPI DUP1 DUP3 ADD MLOAD DUP2 DUP5 ADD MSTORE PUSH1 0x20 DUP2 ADD SWAP1 POP PUSH2 0x12A2 JUMP JUMPDEST DUP4 DUP2 GT ISZERO PUSH2 0x12CC JUMPI PUSH1 0x0 DUP5 DUP5 ADD MSTORE JUMPDEST POP POP POP POP JUMP JUMPDEST PUSH2 0x12DB DUP3 PUSH2 0x137F JUMP JUMPDEST DUP2 ADD DUP2 DUP2 LT PUSH8 0xFFFFFFFFFFFFFFFF DUP3 GT OR ISZERO PUSH2 0x12FA JUMPI PUSH2 0x12F9 PUSH2 0x133C JUMP JUMPDEST JUMPDEST DUP1 PUSH1 0x40 MSTORE POP POP POP JUMP JUMPDEST PUSH1 0x0 DUP2 SWAP1 POP SWAP2 SWAP1 POP JUMP JUMPDEST PUSH32 0x4E487B7100000000000000000000000000000000000000000000000000000000 PUSH1 0x0 MSTORE PUSH1 0x11 PUSH1 0x4 MSTORE PUSH1 0x24 PUSH1 0x0 REVERT JUMPDEST PUSH32 0x4E487B7100000000000000000000000000000000000000000000000000000000 PUSH1 0x0 MSTORE PUSH1 0x41 PUSH1 0x4 MSTORE PUSH1 0x24 PUSH1 0x0 REVERT JUMPDEST PUSH1 0x0 DUP1 REVERT JUMPDEST PUSH1 0x0 DUP1 REVERT JUMPDEST PUSH1 0x0 DUP1 REVERT JUMPDEST PUSH1 0x0 DUP1 REVERT JUMPDEST PUSH1 0x0 PUSH1 0x1F NOT PUSH1 0x1F DUP4 ADD AND SWAP1 POP SWAP2 SWAP1 POP JUMP JUMPDEST PUSH32 0x54696D656C6F636B3A3A63616E63656C5472616E73616374696F6E3A20547261 PUSH1 0x0 DUP3 ADD MSTORE PUSH32 0x6E73616374696F6E206861736E2774206265656E207175657565642E00000000 PUSH1 0x20 DUP3 ADD MSTORE POP JUMP JUMPDEST PUSH32 0x54696D656C6F636B3A3A657865637574655472616E73616374696F6E3A205472 PUSH1 0x0 DUP3 ADD MSTORE PUSH32 0x616E73616374696F6E206973207374616C652E00000000000000000000000000 PUSH1 0x20 DUP3 ADD MSTORE POP JUMP JUMPDEST PUSH32 0x54696D656C6F636B3A3A657865637574655472616E73616374696F6E3A205472 PUSH1 0x0 DUP3 ADD MSTORE PUSH32 0x616E73616374696F6E206861736E2774207375727061737365642074696D6520 PUSH1 0x20 DUP3 ADD MSTORE PUSH32 0x6C6F636B2E000000000000000000000000000000000000000000000000000000 PUSH1 0x40 DUP3 ADD MSTORE POP JUMP JUMPDEST PUSH32 0x54696D656C6F636B3A3A657865637574655472616E73616374696F6E3A205472 PUSH1 0x0 DUP3 ADD MSTORE PUSH32 0x616E73616374696F6E206861736E2774206265656E207175657565642E000000 PUSH1 0x20 DUP3 ADD MSTORE POP JUMP JUMPDEST PUSH32 0x54696D656C6F636B3A3A657865637574655472616E73616374696F6E3A205472 PUSH1 0x0 DUP3 ADD MSTORE PUSH32 0x616E73616374696F6E20657865637574696F6E2072657665727465642E000000 PUSH1 0x20 DUP3 ADD MSTORE POP JUMP JUMPDEST PUSH32 0x54696D656C6F636B3A2043616C6C6572206E6F742061646D696E000000000000 PUSH1 0x0 DUP3 ADD MSTORE POP JUMP JUMPDEST PUSH32 0x54696D656C6F636B3A2043616C6C6572206E6F742054696D656C6F636B000000 PUSH1 0x0 DUP3 ADD MSTORE POP JUMP JUMPDEST PUSH32 0x54696D656C6F636B3A3A71756575655472616E73616374696F6E3A2045737469 PUSH1 0x0 DUP3 ADD MSTORE PUSH32 0x6D6174656420657865637574696F6E20626C6F636B206D757374207361746973 PUSH1 0x20 DUP3 ADD MSTORE PUSH32 0x66792064656C61792E0000000000000000000000000000000000000000000000 PUSH1 0x40 DUP3 ADD MSTORE POP JUMP JUMPDEST PUSH2 0x1611 DUP2 PUSH2 0x1212 JUMP JUMPDEST DUP2 EQ PUSH2 0x161C JUMPI PUSH1 0x0 DUP1 REVERT JUMPDEST POP JUMP JUMPDEST PUSH2 0x1628 DUP2 PUSH2 0x1230 JUMP JUMPDEST DUP2 EQ PUSH2 0x1633 JUMPI PUSH1 0x0 DUP1 REVERT JUMPDEST POP JUMP JUMPDEST PUSH2 0x163F DUP2 PUSH2 0x1286 JUMP JUMPDEST DUP2 EQ PUSH2 0x164A JUMPI PUSH1 0x0 DUP1 REVERT JUMPDEST POP JUMP INVALID LOG2 PUSH5 0x6970667358 0x22 SLT KECCAK256 PUSH6 0x99024BAF7051 0xA8 0xDD 0xE3 DUP12 DUP6 DUP2 0xBC SWAP14 0xF 0xCE AND 0x2D 0xB2 0x4D 0x26 0xD2 0xC0 0x1E 0xFB 0xC4 RETURNDATASIZE 0xC9 PC AND CODECOPY PUSH5 0x736F6C6343 STOP ADDMOD SMOD STOP CALLER "
		},
		"gasEstimates": {
			"creation": {
				"codeDepositCost": "1152600",
				"executionCost": "infinite",
				"totalCost": "infinite"
			},
			"external": {
				"GRACE_PERIOD()": "373",
				"admin()": "2599",
				"cancelTransaction(address,uint256,string,bytes,uint256)": "infinite",
				"changeAdmin(address)": "25938",
				"delay()": "2518",
				"executeTransaction(address,uint256,string,bytes,uint256)": "infinite",
				"getBlockTimestamp()": "336",
				"getTxHash(address,uint256,string,bytes,uint256)": "infinite",
				"queueTransaction(address,uint256,string,bytes,uint256)": "infinite",
				"queuedTransactions(bytes32)": "2862"
			}
		},
		"methodIdentifiers": {
			"GRACE_PERIOD()": "c1a287e2",
			"admin()": "f851a440",
			"cancelTransaction(address,uint256,string,bytes,uint256)": "591fcdfe",
			"changeAdmin(address)": "8f283970",
			"delay()": "6a42b8f8",
			"executeTransaction(address,uint256,string,bytes,uint256)": "0825f38f",
			"getBlockTimestamp()": "796b89b9",
			"getTxHash(address,uint256,string,bytes,uint256)": "04a71576",
			"queueTransaction(address,uint256,string,bytes,uint256)": "3a66f901",
			"queuedTransactions(bytes32)": "f2b06537"
		}
	},
	"abi": [
		{
			"inputs": [
				{
					"internalType": "uint256",
					"name": "delay_",
					"type": "uint256"
				}
			],
			"stateMutability": "nonpayable",
			"type": "constructor"
		},
		{
			"anonymous": false,
			"inputs": [
				{
					"indexed": true,
					"internalType": "bytes32",
					"name": "txHash",
					"type": "bytes32"
				},
				{
					"indexed": true,
					"internalType": "address",
					"name": "target",
					"type": "address"
				},
				{
					"indexed": false,
					"internalType": "uint256",
					"name": "value",
					"type": "uint256"
				},
				{
					"indexed": false,
					"internalType": "string",
					"name": "signature",
					"type": "string"
				},
				{
					"indexed": false,
					"internalType": "bytes",
					"name": "data",
					"type": "bytes"
				},
				{
					"indexed": false,
					"internalType": "uint256",
					"name": "executeTime",
					"type": "uint256"
				}
			],
			"name": "CancelTransaction",
			"type": "event"
		},
		{
			"anonymous": false,
			"inputs": [
				{
					"indexed": true,
					"internalType": "bytes32",
					"name": "txHash",
					"type": "bytes32"
				},
				{
					"indexed": true,
					"internalType": "address",
					"name": "target",
					"type": "address"
				},
				{
					"indexed": false,
					"internalType": "uint256",
					"name": "value",
					"type": "uint256"
				},
				{
					"indexed": false,
					"internalType": "string",
					"name": "signature",
					"type": "string"
				},
				{
					"indexed": false,
					"internalType": "bytes",
					"name": "data",
					"type": "bytes"
				},
				{
					"indexed": false,
					"internalType": "uint256",
					"name": "executeTime",
					"type": "uint256"
				}
			],
			"name": "ExecuteTransaction",
			"type": "event"
		},
		{
			"anonymous": false,
			"inputs": [
				{
					"indexed": true,
					"internalType": "address",
					"name": "newAdmin",
					"type": "address"
				}
			],
			"name": "NewAdmin",
			"type": "event"
		},
		{
			"anonymous": false,
			"inputs": [
				{
					"indexed": true,
					"internalType": "bytes32",
					"name": "txHash",
					"type": "bytes32"
				},
				{
					"indexed": true,
					"internalType": "address",
					"name": "target",
					"type": "address"
				},
				{
					"indexed": false,
					"internalType": "uint256",
					"name": "value",
					"type": "uint256"
				},
				{
					"indexed": false,
					"internalType": "string",
					"name": "signature",
					"type": "string"
				},
				{
					"indexed": false,
					"internalType": "bytes",
					"name": "data",
					"type": "bytes"
				},
				{
					"indexed": false,
					"internalType": "uint256",
					"name": "executeTime",
					"type": "uint256"
				}
			],
			"name": "QueueTransaction",
			"type": "event"
		},
		{
			"inputs": [],
			"name": "GRACE_PERIOD",
			"outputs": [
				{
					"internalType": "uint256",
					"name": "",
					"type": "uint256"
				}
			],
			"stateMutability": "view",
			"type": "function"
		},
		{
			"inputs": [],
			"name": "admin",
			"outputs": [
				{
					"internalType": "address",
					"name": "",
					"type": "address"
				}
			],
			"stateMutability": "view",
			"type": "function"
		},
		{
			"inputs": [
				{
					"internalType": "address",
					"name": "target",
					"type": "address"
				},
				{
					"internalType": "uint256",
					"name": "value",
					"type": "uint256"
				},
				{
					"internalType": "string",
					"name": "signature",
					"type": "string"
				},
				{
					"internalType": "bytes",
					"name": "data",
					"type": "bytes"
				},
				{
					"internalType": "uint256",
					"name": "executeTime",
					"type": "uint256"
				}
			],
			"name": "cancelTransaction",
			"outputs": [],
			"stateMutability": "nonpayable",
			"type": "function"
		},
		{
			"inputs": [
				{
					"internalType": "address",
					"name": "newAdmin",
					"type": "address"
				}
			],
			"name": "changeAdmin",
			"outputs": [],
			"stateMutability": "nonpayable",
			"type": "function"
		},
		{
			"inputs": [],
			"name": "delay",
			"outputs": [
				{
					"internalType": "uint256",
					"name": "",
					"type": "uint256"
				}
			],
			"stateMutability": "view",
			"type": "function"
		},
		{
			"inputs": [
				{
					"internalType": "address",
					"name": "target",
					"type": "address"
				},
				{
					"internalType": "uint256",
					"name": "value",
					"type": "uint256"
				},
				{
					"internalType": "string",
					"name": "signature",
					"type": "string"
				},
				{
					"internalType": "bytes",
					"name": "data",
					"type": "bytes"
				},
				{
					"internalType": "uint256",
					"name": "executeTime",
					"type": "uint256"
				}
			],
			"name": "executeTransaction",
			"outputs": [
				{
					"internalType": "bytes",
					"name": "",
					"type": "bytes"
				}
			],
			"stateMutability": "payable",
			"type": "function"
		},
		{
			"inputs": [],
			"name": "getBlockTimestamp",
			"outputs": [
				{
					"internalType": "uint256",
					"name": "",
					"type": "uint256"
				}
			],
			"stateMutability": "view",
			"type": "function"
		},
		{
			"inputs": [
				{
					"internalType": "address",
					"name": "target",
					"type": "address"
				},
				{
					"internalType": "uint256",
					"name": "value",
					"type": "uint256"
				},
				{
					"internalType": "string",
					"name": "signature",
					"type": "string"
				},
				{
					"internalType": "bytes",
					"name": "data",
					"type": "bytes"
				},
				{
					"internalType": "uint256",
					"name": "executeTime",
					"type": "uint256"
				}
			],
			"name": "getTxHash",
			"outputs": [
				{
					"internalType": "bytes32",
					"name": "",
					"type": "bytes32"
				}
			],
			"stateMutability": "pure",
			"type": "function"
		},
		{
			"inputs": [
				{
					"internalType": "address",
					"name": "target",
					"type": "address"
				},
				{
					"internalType": "uint256",
					"name": "value",
					"type": "uint256"
				},
				{
					"internalType": "string",
					"name": "signature",
					"type": "string"
				},
				{
					"internalType": "bytes",
					"name": "data",
					"type": "bytes"
				},
				{
					"internalType": "uint256",
					"name": "executeTime",
					"type": "uint256"
				}
			],
			"name": "queueTransaction",
			"outputs": [
				{
					"internalType": "bytes32",
					"name": "",
					"type": "bytes32"
				}
			],
			"stateMutability": "nonpayable",
			"type": "function"
		},
		{
			"inputs": [
				{
					"internalType": "bytes32",
					"name": "",
					"type": "bytes32"
				}
			],
			"name": "queuedTransactions",
			"outputs": [
				{
					"internalType": "bool",
					"name": "",
					"type": "bool"
				}
			],
			"stateMutability": "view",
			"type": "function"
		}
	]
}