{
	"重入攻击/bankDemo.sol": {
		"Bank": {
			"abi": [
				{
					"inputs": [
						{
							"internalType": "address",
							"name": "",
							"type": "address"
						}
					],
					"name": "balanceOf",
					"outputs": [
						{
							"internalType": "uint256",
							"name": "",
							"type": "uint256"
						}
					],
					"stateMutability": "view",
					"type": "function"
				},
				{
					"inputs": [],
					"name": "deposit",
					"outputs": [],
					"stateMutability": "payable",
					"type": "function"
				},
				{
					"inputs": [],
					"name": "getBalance",
					"outputs": [
						{
							"internalType": "uint256",
							"name": "",
							"type": "uint256"
						}
					],
					"stateMutability": "view",
					"type": "function"
				},
				{
					"inputs": [],
					"name": "withdraw",
					"outputs": [],
					"stateMutability": "nonpayable",
					"type": "function"
				}
			],
			"devdoc": {
				"kind": "dev",
				"methods": {},
				"version": 1
			},
			"evm": {
				"assembly": "    /* \"重入攻击/bankDemo.sol\":66:918  contract Bank {\r... */\n  mstore(0x40, 0x80)\n  callvalue\n  dup1\n  iszero\n  tag_1\n  jumpi\n  0x00\n  dup1\n  revert\ntag_1:\n  pop\n  dataSize(sub_0)\n  dup1\n  dataOffset(sub_0)\n  0x00\n  codecopy\n  0x00\n  return\nstop\n\nsub_0: assembly {\n        /* \"重入攻击/bankDemo.sol\":66:918  contract Bank {\r... */\n      mstore(0x40, 0x80)\n      jumpi(tag_1, lt(calldatasize, 0x04))\n      shr(0xe0, calldataload(0x00))\n      dup1\n      0x12065fe0\n      eq\n      tag_2\n      jumpi\n      dup1\n      0x3ccfd60b\n      eq\n      tag_3\n      jumpi\n      dup1\n      0x70a08231\n      eq\n      tag_4\n      jumpi\n      dup1\n      0xd0e30db0\n      eq\n      tag_5\n      jumpi\n    tag_1:\n      0x00\n      dup1\n      revert\n        /* \"重入攻击/bankDemo.sol\":814:915  function getBalance() external view returns (uint256) {\r... */\n    tag_2:\n      callvalue\n      dup1\n      iszero\n      tag_6\n      jumpi\n      0x00\n      dup1\n      revert\n    tag_6:\n      pop\n      tag_7\n      tag_8\n      jump\t// in\n    tag_7:\n      mload(0x40)\n      tag_9\n      swap2\n      swap1\n      tag_10\n      jump\t// in\n    tag_9:\n      mload(0x40)\n      dup1\n      swap2\n      sub\n      swap1\n      return\n        /* \"重入攻击/bankDemo.sol\":335:770  function withdraw() external {\r... */\n    tag_3:\n      callvalue\n      dup1\n      iszero\n      tag_11\n      jumpi\n      0x00\n      dup1\n      revert\n    tag_11:\n      pop\n      tag_12\n      tag_13\n      jump\t// in\n    tag_12:\n      stop\n        /* \"重入攻击/bankDemo.sol\":87:132  mapping (address => uint256) public balanceOf */\n    tag_4:\n      callvalue\n      dup1\n      iszero\n      tag_14\n      jumpi\n      0x00\n      dup1\n      revert\n    tag_14:\n      pop\n      tag_15\n      0x04\n      dup1\n      calldatasize\n      sub\n      dup2\n      add\n      swap1\n      tag_16\n      swap2\n      swap1\n      tag_17\n      jump\t// in\n    tag_16:\n      tag_18\n      jump\t// in\n    tag_15:\n      mload(0x40)\n      tag_19\n      swap2\n      swap1\n      tag_10\n      jump\t// in\n    tag_19:\n      mload(0x40)\n      dup1\n      swap2\n      sub\n      swap1\n      return\n        /* \"重入攻击/bankDemo.sol\":199:288  function deposit() external payable {\r... */\n    tag_5:\n      tag_20\n      tag_21\n      jump\t// in\n    tag_20:\n      stop\n        /* \"重入攻击/bankDemo.sol\":814:915  function getBalance() external view returns (uint256) {\r... */\n    tag_8:\n        /* \"重入攻击/bankDemo.sol\":859:866  uint256 */\n      0x00\n        /* \"重入攻击/bankDemo.sol\":886:907  address(this).balance */\n      selfbalance\n        /* \"重入攻击/bankDemo.sol\":879:907  return address(this).balance */\n      swap1\n      pop\n        /* \"重入攻击/bankDemo.sol\":814:915  function getBalance() external view returns (uint256) {\r... */\n      swap1\n      jump\t// out\n        /* \"重入攻击/bankDemo.sol\":335:770  function withdraw() external {\r... */\n    tag_13:\n        /* \"重入攻击/bankDemo.sol\":375:390  uint256 balance */\n      0x00\n        /* \"重入攻击/bankDemo.sol\":393:402  balanceOf */\n      dup1\n        /* \"重入攻击/bankDemo.sol\":393:414  balanceOf[msg.sender] */\n      0x00\n        /* \"重入攻击/bankDemo.sol\":403:413  msg.sender */\n      caller\n        /* \"重入攻击/bankDemo.sol\":393:414  balanceOf[msg.sender] */\n      0xffffffffffffffffffffffffffffffffffffffff\n      and\n      0xffffffffffffffffffffffffffffffffffffffff\n      and\n      dup2\n      mstore\n      0x20\n      add\n      swap1\n      dup2\n      mstore\n      0x20\n      add\n      0x00\n      keccak256\n      sload\n        /* \"重入攻击/bankDemo.sol\":375:414  uint256 balance = balanceOf[msg.sender] */\n      swap1\n      pop\n        /* \"重入攻击/bankDemo.sol\":459:460  0 */\n      0x00\n        /* \"重入攻击/bankDemo.sol\":449:456  balance */\n      dup2\n        /* \"重入攻击/bankDemo.sol\":449:460  balance > 0 */\n      gt\n        /* \"重入攻击/bankDemo.sol\":441:485  require(balance > 0, \"Insufficient balance\") */\n      tag_24\n      jumpi\n      mload(0x40)\n      0x08c379a000000000000000000000000000000000000000000000000000000000\n      dup2\n      mstore\n      0x04\n      add\n      tag_25\n      swap1\n      tag_26\n      jump\t// in\n    tag_25:\n      mload(0x40)\n      dup1\n      swap2\n      sub\n      swap1\n      revert\n    tag_24:\n        /* \"重入攻击/bankDemo.sol\":597:609  bool success */\n      0x00\n        /* \"重入攻击/bankDemo.sol\":615:625  msg.sender */\n      caller\n        /* \"重入攻击/bankDemo.sol\":615:630  msg.sender.call */\n      0xffffffffffffffffffffffffffffffffffffffff\n      and\n        /* \"重入攻击/bankDemo.sol\":638:645  balance */\n      dup3\n        /* \"重入攻击/bankDemo.sol\":615:650  msg.sender.call{value: balance}(\"\") */\n      mload(0x40)\n      tag_27\n      swap1\n      tag_28\n      jump\t// in\n    tag_27:\n      0x00\n      mload(0x40)\n      dup1\n      dup4\n      sub\n      dup2\n      dup6\n      dup8\n      gas\n      call\n      swap3\n      pop\n      pop\n      pop\n      returndatasize\n      dup1\n      0x00\n      dup2\n      eq\n      tag_31\n      jumpi\n      mload(0x40)\n      swap2\n      pop\n      and(add(returndatasize, 0x3f), not(0x1f))\n      dup3\n      add\n      0x40\n      mstore\n      returndatasize\n      dup3\n      mstore\n      returndatasize\n      0x00\n      0x20\n      dup5\n      add\n      returndatacopy\n      jump(tag_30)\n    tag_31:\n      0x60\n      swap2\n      pop\n    tag_30:\n      pop\n        /* \"重入攻击/bankDemo.sol\":596:650  (bool success, ) = msg.sender.call{value: balance}(\"\") */\n      pop\n      swap1\n      pop\n        /* \"重入攻击/bankDemo.sol\":669:676  success */\n      dup1\n        /* \"重入攻击/bankDemo.sol\":661:701  require(success, \"Failed to send Ether\") */\n      tag_32\n      jumpi\n      mload(0x40)\n      0x08c379a000000000000000000000000000000000000000000000000000000000\n      dup2\n      mstore\n      0x04\n      add\n      tag_33\n      swap1\n      tag_34\n      jump\t// in\n    tag_33:\n      mload(0x40)\n      dup1\n      swap2\n      sub\n      swap1\n      revert\n    tag_32:\n        /* \"重入攻击/bankDemo.sol\":761:762  0 */\n      0x00\n        /* \"重入攻击/bankDemo.sol\":737:746  balanceOf */\n      dup1\n        /* \"重入攻击/bankDemo.sol\":737:758  balanceOf[msg.sender] */\n      0x00\n        /* \"重入攻击/bankDemo.sol\":747:757  msg.sender */\n      caller\n        /* \"重入攻击/bankDemo.sol\":737:758  balanceOf[msg.sender] */\n      0xffffffffffffffffffffffffffffffffffffffff\n      and\n      0xffffffffffffffffffffffffffffffffffffffff\n      and\n      dup2\n      mstore\n      0x20\n      add\n      swap1\n      dup2\n      mstore\n      0x20\n      add\n      0x00\n      keccak256\n        /* \"重入攻击/bankDemo.sol\":737:762  balanceOf[msg.sender] = 0 */\n      dup2\n      swap1\n      sstore\n      pop\n        /* \"重入攻击/bankDemo.sol\":335:770  function withdraw() external {\r... */\n      pop\n      pop\n      jump\t// out\n        /* \"重入攻击/bankDemo.sol\":87:132  mapping (address => uint256) public balanceOf */\n    tag_18:\n      mstore(0x20, 0x00)\n      dup1\n      0x00\n      mstore\n      keccak256(0x00, 0x40)\n      0x00\n      swap2\n      pop\n      swap1\n      pop\n      sload\n      dup2\n      jump\t// out\n        /* \"重入攻击/bankDemo.sol\":199:288  function deposit() external payable {\r... */\n    tag_21:\n        /* \"重入攻击/bankDemo.sol\":271:280  msg.value */\n      callvalue\n        /* \"重入攻击/bankDemo.sol\":246:255  balanceOf */\n      0x00\n        /* \"重入攻击/bankDemo.sol\":246:267  balanceOf[msg.sender] */\n      dup1\n        /* \"重入攻击/bankDemo.sol\":256:266  msg.sender */\n      caller\n        /* \"重入攻击/bankDemo.sol\":246:267  balanceOf[msg.sender] */\n      0xffffffffffffffffffffffffffffffffffffffff\n      and\n      0xffffffffffffffffffffffffffffffffffffffff\n      and\n      dup2\n      mstore\n      0x20\n      add\n      swap1\n      dup2\n      mstore\n      0x20\n      add\n      0x00\n      keccak256\n      0x00\n        /* \"重入攻击/bankDemo.sol\":246:280  balanceOf[msg.sender] += msg.value */\n      dup3\n      dup3\n      sload\n      tag_36\n      swap2\n      swap1\n      tag_37\n      jump\t// in\n    tag_36:\n      swap3\n      pop\n      pop\n      dup2\n      swap1\n      sstore\n      pop\n        /* \"重入攻击/bankDemo.sol\":199:288  function deposit() external payable {\r... */\n      jump\t// out\n        /* \"#utility.yul\":7:146   */\n    tag_39:\n        /* \"#utility.yul\":53:58   */\n      0x00\n        /* \"#utility.yul\":91:97   */\n      dup2\n        /* \"#utility.yul\":78:98   */\n      calldataload\n        /* \"#utility.yul\":69:98   */\n      swap1\n      pop\n        /* \"#utility.yul\":107:140   */\n      tag_41\n        /* \"#utility.yul\":134:139   */\n      dup2\n        /* \"#utility.yul\":107:140   */\n      tag_42\n      jump\t// in\n    tag_41:\n        /* \"#utility.yul\":59:146   */\n      swap3\n      swap2\n      pop\n      pop\n      jump\t// out\n        /* \"#utility.yul\":152:414   */\n    tag_17:\n        /* \"#utility.yul\":211:217   */\n      0x00\n        /* \"#utility.yul\":260:262   */\n      0x20\n        /* \"#utility.yul\":248:257   */\n      dup3\n        /* \"#utility.yul\":239:246   */\n      dup5\n        /* \"#utility.yul\":235:258   */\n      sub\n        /* \"#utility.yul\":231:263   */\n      slt\n        /* \"#utility.yul\":228:230   */\n      iszero\n      tag_44\n      jumpi\n        /* \"#utility.yul\":276:277   */\n      0x00\n        /* \"#utility.yul\":273:274   */\n      dup1\n        /* \"#utility.yul\":266:278   */\n      revert\n        /* \"#utility.yul\":228:230   */\n    tag_44:\n        /* \"#utility.yul\":319:320   */\n      0x00\n        /* \"#utility.yul\":344:397   */\n      tag_45\n        /* \"#utility.yul\":389:396   */\n      dup5\n        /* \"#utility.yul\":380:386   */\n      dup3\n        /* \"#utility.yul\":369:378   */\n      dup6\n        /* \"#utility.yul\":365:387   */\n      add\n        /* \"#utility.yul\":344:397   */\n      tag_39\n      jump\t// in\n    tag_45:\n        /* \"#utility.yul\":334:397   */\n      swap2\n      pop\n        /* \"#utility.yul\":290:407   */\n      pop\n        /* \"#utility.yul\":218:414   */\n      swap3\n      swap2\n      pop\n      pop\n      jump\t// out\n        /* \"#utility.yul\":420:786   */\n    tag_46:\n        /* \"#utility.yul\":562:565   */\n      0x00\n        /* \"#utility.yul\":583:650   */\n      tag_48\n        /* \"#utility.yul\":647:649   */\n      0x14\n        /* \"#utility.yul\":642:645   */\n      dup4\n        /* \"#utility.yul\":583:650   */\n      tag_49\n      jump\t// in\n    tag_48:\n        /* \"#utility.yul\":576:650   */\n      swap2\n      pop\n        /* \"#utility.yul\":659:752   */\n      tag_50\n        /* \"#utility.yul\":748:751   */\n      dup3\n        /* \"#utility.yul\":659:752   */\n      tag_51\n      jump\t// in\n    tag_50:\n        /* \"#utility.yul\":777:779   */\n      0x20\n        /* \"#utility.yul\":772:775   */\n      dup3\n        /* \"#utility.yul\":768:780   */\n      add\n        /* \"#utility.yul\":761:780   */\n      swap1\n      pop\n        /* \"#utility.yul\":566:786   */\n      swap2\n      swap1\n      pop\n      jump\t// out\n        /* \"#utility.yul\":792:1158   */\n    tag_52:\n        /* \"#utility.yul\":934:937   */\n      0x00\n        /* \"#utility.yul\":955:1022   */\n      tag_54\n        /* \"#utility.yul\":1019:1021   */\n      0x14\n        /* \"#utility.yul\":1014:1017   */\n      dup4\n        /* \"#utility.yul\":955:1022   */\n      tag_49\n      jump\t// in\n    tag_54:\n        /* \"#utility.yul\":948:1022   */\n      swap2\n      pop\n        /* \"#utility.yul\":1031:1124   */\n      tag_55\n        /* \"#utility.yul\":1120:1123   */\n      dup3\n        /* \"#utility.yul\":1031:1124   */\n      tag_56\n      jump\t// in\n    tag_55:\n        /* \"#utility.yul\":1149:1151   */\n      0x20\n        /* \"#utility.yul\":1144:1147   */\n      dup3\n        /* \"#utility.yul\":1140:1152   */\n      add\n        /* \"#utility.yul\":1133:1152   */\n      swap1\n      pop\n        /* \"#utility.yul\":938:1158   */\n      swap2\n      swap1\n      pop\n      jump\t// out\n        /* \"#utility.yul\":1164:1562   */\n    tag_57:\n        /* \"#utility.yul\":1323:1326   */\n      0x00\n        /* \"#utility.yul\":1344:1427   */\n      tag_59\n        /* \"#utility.yul\":1425:1426   */\n      0x00\n        /* \"#utility.yul\":1420:1423   */\n      dup4\n        /* \"#utility.yul\":1344:1427   */\n      tag_60\n      jump\t// in\n    tag_59:\n        /* \"#utility.yul\":1337:1427   */\n      swap2\n      pop\n        /* \"#utility.yul\":1436:1529   */\n      tag_61\n        /* \"#utility.yul\":1525:1528   */\n      dup3\n        /* \"#utility.yul\":1436:1529   */\n      tag_62\n      jump\t// in\n    tag_61:\n        /* \"#utility.yul\":1554:1555   */\n      0x00\n        /* \"#utility.yul\":1549:1552   */\n      dup3\n        /* \"#utility.yul\":1545:1556   */\n      add\n        /* \"#utility.yul\":1538:1556   */\n      swap1\n      pop\n        /* \"#utility.yul\":1327:1562   */\n      swap2\n      swap1\n      pop\n      jump\t// out\n        /* \"#utility.yul\":1568:1686   */\n    tag_63:\n        /* \"#utility.yul\":1655:1679   */\n      tag_65\n        /* \"#utility.yul\":1673:1678   */\n      dup2\n        /* \"#utility.yul\":1655:1679   */\n      tag_66\n      jump\t// in\n    tag_65:\n        /* \"#utility.yul\":1650:1653   */\n      dup3\n        /* \"#utility.yul\":1643:1680   */\n      mstore\n        /* \"#utility.yul\":1633:1686   */\n      pop\n      pop\n      jump\t// out\n        /* \"#utility.yul\":1692:2071   */\n    tag_28:\n        /* \"#utility.yul\":1876:1879   */\n      0x00\n        /* \"#utility.yul\":1898:2045   */\n      tag_68\n        /* \"#utility.yul\":2041:2044   */\n      dup3\n        /* \"#utility.yul\":1898:2045   */\n      tag_57\n      jump\t// in\n    tag_68:\n        /* \"#utility.yul\":1891:2045   */\n      swap2\n      pop\n        /* \"#utility.yul\":2062:2065   */\n      dup2\n        /* \"#utility.yul\":2055:2065   */\n      swap1\n      pop\n        /* \"#utility.yul\":1880:2071   */\n      swap2\n      swap1\n      pop\n      jump\t// out\n        /* \"#utility.yul\":2077:2496   */\n    tag_34:\n        /* \"#utility.yul\":2243:2247   */\n      0x00\n        /* \"#utility.yul\":2281:2283   */\n      0x20\n        /* \"#utility.yul\":2270:2279   */\n      dup3\n        /* \"#utility.yul\":2266:2284   */\n      add\n        /* \"#utility.yul\":2258:2284   */\n      swap1\n      pop\n        /* \"#utility.yul\":2330:2339   */\n      dup2\n        /* \"#utility.yul\":2324:2328   */\n      dup2\n        /* \"#utility.yul\":2320:2340   */\n      sub\n        /* \"#utility.yul\":2316:2317   */\n      0x00\n        /* \"#utility.yul\":2305:2314   */\n      dup4\n        /* \"#utility.yul\":2301:2318   */\n      add\n        /* \"#utility.yul\":2294:2341   */\n      mstore\n        /* \"#utility.yul\":2358:2489   */\n      tag_70\n        /* \"#utility.yul\":2484:2488   */\n      dup2\n        /* \"#utility.yul\":2358:2489   */\n      tag_46\n      jump\t// in\n    tag_70:\n        /* \"#utility.yul\":2350:2489   */\n      swap1\n      pop\n        /* \"#utility.yul\":2248:2496   */\n      swap2\n      swap1\n      pop\n      jump\t// out\n        /* \"#utility.yul\":2502:2921   */\n    tag_26:\n        /* \"#utility.yul\":2668:2672   */\n      0x00\n        /* \"#utility.yul\":2706:2708   */\n      0x20\n        /* \"#utility.yul\":2695:2704   */\n      dup3\n        /* \"#utility.yul\":2691:2709   */\n      add\n        /* \"#utility.yul\":2683:2709   */\n      swap1\n      pop\n        /* \"#utility.yul\":2755:2764   */\n      dup2\n        /* \"#utility.yul\":2749:2753   */\n      dup2\n        /* \"#utility.yul\":2745:2765   */\n      sub\n        /* \"#utility.yul\":2741:2742   */\n      0x00\n        /* \"#utility.yul\":2730:2739   */\n      dup4\n        /* \"#utility.yul\":2726:2743   */\n      add\n        /* \"#utility.yul\":2719:2766   */\n      mstore\n        /* \"#utility.yul\":2783:2914   */\n      tag_72\n        /* \"#utility.yul\":2909:2913   */\n      dup2\n        /* \"#utility.yul\":2783:2914   */\n      tag_52\n      jump\t// in\n    tag_72:\n        /* \"#utility.yul\":2775:2914   */\n      swap1\n      pop\n        /* \"#utility.yul\":2673:2921   */\n      swap2\n      swap1\n      pop\n      jump\t// out\n        /* \"#utility.yul\":2927:3149   */\n    tag_10:\n        /* \"#utility.yul\":3020:3024   */\n      0x00\n        /* \"#utility.yul\":3058:3060   */\n      0x20\n        /* \"#utility.yul\":3047:3056   */\n      dup3\n        /* \"#utility.yul\":3043:3061   */\n      add\n        /* \"#utility.yul\":3035:3061   */\n      swap1\n      pop\n        /* \"#utility.yul\":3071:3142   */\n      tag_74\n        /* \"#utility.yul\":3139:3140   */\n      0x00\n        /* \"#utility.yul\":3128:3137   */\n      dup4\n        /* \"#utility.yul\":3124:3141   */\n      add\n        /* \"#utility.yul\":3115:3121   */\n      dup5\n        /* \"#utility.yul\":3071:3142   */\n      tag_63\n      jump\t// in\n    tag_74:\n        /* \"#utility.yul\":3025:3149   */\n      swap3\n      swap2\n      pop\n      pop\n      jump\t// out\n        /* \"#utility.yul\":3155:3302   */\n    tag_60:\n        /* \"#utility.yul\":3256:3267   */\n      0x00\n        /* \"#utility.yul\":3293:3296   */\n      dup2\n        /* \"#utility.yul\":3278:3296   */\n      swap1\n      pop\n        /* \"#utility.yul\":3268:3302   */\n      swap3\n      swap2\n      pop\n      pop\n      jump\t// out\n        /* \"#utility.yul\":3308:3477   */\n    tag_49:\n        /* \"#utility.yul\":3392:3403   */\n      0x00\n        /* \"#utility.yul\":3426:3432   */\n      dup3\n        /* \"#utility.yul\":3421:3424   */\n      dup3\n        /* \"#utility.yul\":3414:3433   */\n      mstore\n        /* \"#utility.yul\":3466:3470   */\n      0x20\n        /* \"#utility.yul\":3461:3464   */\n      dup3\n        /* \"#utility.yul\":3457:3471   */\n      add\n        /* \"#utility.yul\":3442:3471   */\n      swap1\n      pop\n        /* \"#utility.yul\":3404:3477   */\n      swap3\n      swap2\n      pop\n      pop\n      jump\t// out\n        /* \"#utility.yul\":3483:3788   */\n    tag_37:\n        /* \"#utility.yul\":3523:3526   */\n      0x00\n        /* \"#utility.yul\":3542:3562   */\n      tag_78\n        /* \"#utility.yul\":3560:3561   */\n      dup3\n        /* \"#utility.yul\":3542:3562   */\n      tag_66\n      jump\t// in\n    tag_78:\n        /* \"#utility.yul\":3537:3562   */\n      swap2\n      pop\n        /* \"#utility.yul\":3576:3596   */\n      tag_79\n        /* \"#utility.yul\":3594:3595   */\n      dup4\n        /* \"#utility.yul\":3576:3596   */\n      tag_66\n      jump\t// in\n    tag_79:\n        /* \"#utility.yul\":3571:3596   */\n      swap3\n      pop\n        /* \"#utility.yul\":3730:3731   */\n      dup3\n        /* \"#utility.yul\":3662:3728   */\n      0xffffffffffffffffffffffffffffffffffffffffffffffffffffffffffffffff\n        /* \"#utility.yul\":3658:3732   */\n      sub\n        /* \"#utility.yul\":3655:3656   */\n      dup3\n        /* \"#utility.yul\":3652:3733   */\n      gt\n        /* \"#utility.yul\":3649:3651   */\n      iszero\n      tag_80\n      jumpi\n        /* \"#utility.yul\":3736:3754   */\n      tag_81\n      tag_82\n      jump\t// in\n    tag_81:\n        /* \"#utility.yul\":3649:3651   */\n    tag_80:\n        /* \"#utility.yul\":3780:3781   */\n      dup3\n        /* \"#utility.yul\":3777:3778   */\n      dup3\n        /* \"#utility.yul\":3773:3782   */\n      add\n        /* \"#utility.yul\":3766:3782   */\n      swap1\n      pop\n        /* \"#utility.yul\":3527:3788   */\n      swap3\n      swap2\n      pop\n      pop\n      jump\t// out\n        /* \"#utility.yul\":3794:3890   */\n    tag_83:\n        /* \"#utility.yul\":3831:3838   */\n      0x00\n        /* \"#utility.yul\":3860:3884   */\n      tag_85\n        /* \"#utility.yul\":3878:3883   */\n      dup3\n        /* \"#utility.yul\":3860:3884   */\n      tag_86\n      jump\t// in\n    tag_85:\n        /* \"#utility.yul\":3849:3884   */\n      swap1\n      pop\n        /* \"#utility.yul\":3839:3890   */\n      swap2\n      swap1\n      pop\n      jump\t// out\n        /* \"#utility.yul\":3896:4022   */\n    tag_86:\n        /* \"#utility.yul\":3933:3940   */\n      0x00\n        /* \"#utility.yul\":3973:4015   */\n      0xffffffffffffffffffffffffffffffffffffffff\n        /* \"#utility.yul\":3966:3971   */\n      dup3\n        /* \"#utility.yul\":3962:4016   */\n      and\n        /* \"#utility.yul\":3951:4016   */\n      swap1\n      pop\n        /* \"#utility.yul\":3941:4022   */\n      swap2\n      swap1\n      pop\n      jump\t// out\n        /* \"#utility.yul\":4028:4105   */\n    tag_66:\n        /* \"#utility.yul\":4065:4072   */\n      0x00\n        /* \"#utility.yul\":4094:4099   */\n      dup2\n        /* \"#utility.yul\":4083:4099   */\n      swap1\n      pop\n        /* \"#utility.yul\":4073:4105   */\n      swap2\n      swap1\n      pop\n      jump\t// out\n        /* \"#utility.yul\":4111:4291   */\n    tag_82:\n        /* \"#utility.yul\":4159:4236   */\n      0x4e487b7100000000000000000000000000000000000000000000000000000000\n        /* \"#utility.yul\":4156:4157   */\n      0x00\n        /* \"#utility.yul\":4149:4237   */\n      mstore\n        /* \"#utility.yul\":4256:4260   */\n      0x11\n        /* \"#utility.yul\":4253:4254   */\n      0x04\n        /* \"#utility.yul\":4246:4261   */\n      mstore\n        /* \"#utility.yul\":4280:4284   */\n      0x24\n        /* \"#utility.yul\":4277:4278   */\n      0x00\n        /* \"#utility.yul\":4270:4285   */\n      revert\n        /* \"#utility.yul\":4297:4467   */\n    tag_51:\n        /* \"#utility.yul\":4437:4459   */\n      0x4661696c656420746f2073656e64204574686572000000000000000000000000\n        /* \"#utility.yul\":4433:4434   */\n      0x00\n        /* \"#utility.yul\":4425:4431   */\n      dup3\n        /* \"#utility.yul\":4421:4435   */\n      add\n        /* \"#utility.yul\":4414:4460   */\n      mstore\n        /* \"#utility.yul\":4403:4467   */\n      pop\n      jump\t// out\n        /* \"#utility.yul\":4473:4643   */\n    tag_56:\n        /* \"#utility.yul\":4613:4635   */\n      0x496e73756666696369656e742062616c616e6365000000000000000000000000\n        /* \"#utility.yul\":4609:4610   */\n      0x00\n        /* \"#utility.yul\":4601:4607   */\n      dup3\n        /* \"#utility.yul\":4597:4611   */\n      add\n        /* \"#utility.yul\":4590:4636   */\n      mstore\n        /* \"#utility.yul\":4579:4643   */\n      pop\n      jump\t// out\n        /* \"#utility.yul\":4649:4763   */\n    tag_62:\n        /* \"#utility.yul\":4755:4763   */\n      pop\n      jump\t// out\n        /* \"#utility.yul\":4769:4891   */\n    tag_42:\n        /* \"#utility.yul\":4842:4866   */\n      tag_94\n        /* \"#utility.yul\":4860:4865   */\n      dup2\n        /* \"#utility.yul\":4842:4866   */\n      tag_83\n      jump\t// in\n    tag_94:\n        /* \"#utility.yul\":4835:4840   */\n      dup2\n        /* \"#utility.yul\":4832:4867   */\n      eq\n        /* \"#utility.yul\":4822:4824   */\n      tag_95\n      jumpi\n        /* \"#utility.yul\":4881:4882   */\n      0x00\n        /* \"#utility.yul\":4878:4879   */\n      dup1\n        /* \"#utility.yul\":4871:4883   */\n      revert\n        /* \"#utility.yul\":4822:4824   */\n    tag_95:\n        /* \"#utility.yul\":4812:4891   */\n      pop\n      jump\t// out\n\n    auxdata: 0xa2646970667358221220bfef8e1f6ac090059355c55deeabd9b3548d6be9a6a6ed2ff714298ba756352464736f6c63430008040033\n}\n",
				"bytecode": {
					"linkReferences": {},
					"object": "608060405234801561001057600080fd5b50610563806100206000396000f3fe60806040526004361061003f5760003560e01c806312065fe0146100445780633ccfd60b1461006f57806370a0823114610086578063d0e30db0146100c3575b600080fd5b34801561005057600080fd5b506100596100cd565b60405161006691906103c9565b60405180910390f35b34801561007b57600080fd5b506100846100d5565b005b34801561009257600080fd5b506100ad60048036038101906100a891906102d3565b61024f565b6040516100ba91906103c9565b60405180910390f35b6100cb610267565b005b600047905090565b60008060003373ffffffffffffffffffffffffffffffffffffffff1673ffffffffffffffffffffffffffffffffffffffff1681526020019081526020016000205490506000811161015b576040517f08c379a0000000000000000000000000000000000000000000000000000000008152600401610152906103a9565b60405180910390fd5b60003373ffffffffffffffffffffffffffffffffffffffff168260405161018190610374565b60006040518083038185875af1925050503d80600081146101be576040519150601f19603f3d011682016040523d82523d6000602084013e6101c3565b606091505b5050905080610207576040517f08c379a00000000000000000000000000000000000000000000000000000000081526004016101fe90610389565b60405180910390fd5b60008060003373ffffffffffffffffffffffffffffffffffffffff1673ffffffffffffffffffffffffffffffffffffffff168152602001908152602001600020819055505050565b60006020528060005260406000206000915090505481565b346000803373ffffffffffffffffffffffffffffffffffffffff1673ffffffffffffffffffffffffffffffffffffffff16815260200190815260200160002060008282546102b59190610400565b92505081905550565b6000813590506102cd81610516565b92915050565b6000602082840312156102e557600080fd5b60006102f3848285016102be565b91505092915050565b60006103096014836103ef565b9150610314826104c1565b602082019050919050565b600061032c6014836103ef565b9150610337826104ea565b602082019050919050565b600061034f6000836103e4565b915061035a82610513565b600082019050919050565b61036e81610488565b82525050565b600061037f82610342565b9150819050919050565b600060208201905081810360008301526103a2816102fc565b9050919050565b600060208201905081810360008301526103c28161031f565b9050919050565b60006020820190506103de6000830184610365565b92915050565b600081905092915050565b600082825260208201905092915050565b600061040b82610488565b915061041683610488565b9250827fffffffffffffffffffffffffffffffffffffffffffffffffffffffffffffffff0382111561044b5761044a610492565b5b828201905092915050565b600061046182610468565b9050919050565b600073ffffffffffffffffffffffffffffffffffffffff82169050919050565b6000819050919050565b7f4e487b7100000000000000000000000000000000000000000000000000000000600052601160045260246000fd5b7f4661696c656420746f2073656e64204574686572000000000000000000000000600082015250565b7f496e73756666696369656e742062616c616e6365000000000000000000000000600082015250565b50565b61051f81610456565b811461052a57600080fd5b5056fea2646970667358221220bfef8e1f6ac090059355c55deeabd9b3548d6be9a6a6ed2ff714298ba756352464736f6c63430008040033",
					"opcodes": "PUSH1 0x80 PUSH1 0x40 MSTORE CALLVALUE DUP1 ISZERO PUSH2 0x10 JUMPI PUSH1 0x0 DUP1 REVERT JUMPDEST POP PUSH2 0x563 DUP1 PUSH2 0x20 PUSH1 0x0 CODECOPY PUSH1 0x0 RETURN INVALID PUSH1 0x80 PUSH1 0x40 MSTORE PUSH1 0x4 CALLDATASIZE LT PUSH2 0x3F JUMPI PUSH1 0x0 CALLDATALOAD PUSH1 0xE0 SHR DUP1 PUSH4 0x12065FE0 EQ PUSH2 0x44 JUMPI DUP1 PUSH4 0x3CCFD60B EQ PUSH2 0x6F JUMPI DUP1 PUSH4 0x70A08231 EQ PUSH2 0x86 JUMPI DUP1 PUSH4 0xD0E30DB0 EQ PUSH2 0xC3 JUMPI JUMPDEST PUSH1 0x0 DUP1 REVERT JUMPDEST CALLVALUE DUP1 ISZERO PUSH2 0x50 JUMPI PUSH1 0x0 DUP1 REVERT JUMPDEST POP PUSH2 0x59 PUSH2 0xCD JUMP JUMPDEST PUSH1 0x40 MLOAD PUSH2 0x66 SWAP2 SWAP1 PUSH2 0x3C9 JUMP JUMPDEST PUSH1 0x40 MLOAD DUP1 SWAP2 SUB SWAP1 RETURN JUMPDEST CALLVALUE DUP1 ISZERO PUSH2 0x7B JUMPI PUSH1 0x0 DUP1 REVERT JUMPDEST POP PUSH2 0x84 PUSH2 0xD5 JUMP JUMPDEST STOP JUMPDEST CALLVALUE DUP1 ISZERO PUSH2 0x92 JUMPI PUSH1 0x0 DUP1 REVERT JUMPDEST POP PUSH2 0xAD PUSH1 0x4 DUP1 CALLDATASIZE SUB DUP2 ADD SWAP1 PUSH2 0xA8 SWAP2 SWAP1 PUSH2 0x2D3 JUMP JUMPDEST PUSH2 0x24F JUMP JUMPDEST PUSH1 0x40 MLOAD PUSH2 0xBA SWAP2 SWAP1 PUSH2 0x3C9 JUMP JUMPDEST PUSH1 0x40 MLOAD DUP1 SWAP2 SUB SWAP1 RETURN JUMPDEST PUSH2 0xCB PUSH2 0x267 JUMP JUMPDEST STOP JUMPDEST PUSH1 0x0 SELFBALANCE SWAP1 POP SWAP1 JUMP JUMPDEST PUSH1 0x0 DUP1 PUSH1 0x0 CALLER PUSH20 0xFFFFFFFFFFFFFFFFFFFFFFFFFFFFFFFFFFFFFFFF AND PUSH20 0xFFFFFFFFFFFFFFFFFFFFFFFFFFFFFFFFFFFFFFFF AND DUP2 MSTORE PUSH1 0x20 ADD SWAP1 DUP2 MSTORE PUSH1 0x20 ADD PUSH1 0x0 KECCAK256 SLOAD SWAP1 POP PUSH1 0x0 DUP2 GT PUSH2 0x15B JUMPI PUSH1 0x40 MLOAD PUSH32 0x8C379A000000000000000000000000000000000000000000000000000000000 DUP2 MSTORE PUSH1 0x4 ADD PUSH2 0x152 SWAP1 PUSH2 0x3A9 JUMP JUMPDEST PUSH1 0x40 MLOAD DUP1 SWAP2 SUB SWAP1 REVERT JUMPDEST PUSH1 0x0 CALLER PUSH20 0xFFFFFFFFFFFFFFFFFFFFFFFFFFFFFFFFFFFFFFFF AND DUP3 PUSH1 0x40 MLOAD PUSH2 0x181 SWAP1 PUSH2 0x374 JUMP JUMPDEST PUSH1 0x0 PUSH1 0x40 MLOAD DUP1 DUP4 SUB DUP2 DUP6 DUP8 GAS CALL SWAP3 POP POP POP RETURNDATASIZE DUP1 PUSH1 0x0 DUP2 EQ PUSH2 0x1BE JUMPI PUSH1 0x40 MLOAD SWAP2 POP PUSH1 0x1F NOT PUSH1 0x3F RETURNDATASIZE ADD AND DUP3 ADD PUSH1 0x40 MSTORE RETURNDATASIZE DUP3 MSTORE RETURNDATASIZE PUSH1 0x0 PUSH1 0x20 DUP5 ADD RETURNDATACOPY PUSH2 0x1C3 JUMP JUMPDEST PUSH1 0x60 SWAP2 POP JUMPDEST POP POP SWAP1 POP DUP1 PUSH2 0x207 JUMPI PUSH1 0x40 MLOAD PUSH32 0x8C379A000000000000000000000000000000000000000000000000000000000 DUP2 MSTORE PUSH1 0x4 ADD PUSH2 0x1FE SWAP1 PUSH2 0x389 JUMP JUMPDEST PUSH1 0x40 MLOAD DUP1 SWAP2 SUB SWAP1 REVERT JUMPDEST PUSH1 0x0 DUP1 PUSH1 0x0 CALLER PUSH20 0xFFFFFFFFFFFFFFFFFFFFFFFFFFFFFFFFFFFFFFFF AND PUSH20 0xFFFFFFFFFFFFFFFFFFFFFFFFFFFFFFFFFFFFFFFF AND DUP2 MSTORE PUSH1 0x20 ADD SWAP1 DUP2 MSTORE PUSH1 0x20 ADD PUSH1 0x0 KECCAK256 DUP2 SWAP1 SSTORE POP POP POP JUMP JUMPDEST PUSH1 0x0 PUSH1 0x20 MSTORE DUP1 PUSH1 0x0 MSTORE PUSH1 0x40 PUSH1 0x0 KECCAK256 PUSH1 0x0 SWAP2 POP SWAP1 POP SLOAD DUP2 JUMP JUMPDEST CALLVALUE PUSH1 0x0 DUP1 CALLER PUSH20 0xFFFFFFFFFFFFFFFFFFFFFFFFFFFFFFFFFFFFFFFF AND PUSH20 0xFFFFFFFFFFFFFFFFFFFFFFFFFFFFFFFFFFFFFFFF AND DUP2 MSTORE PUSH1 0x20 ADD SWAP1 DUP2 MSTORE PUSH1 0x20 ADD PUSH1 0x0 KECCAK256 PUSH1 0x0 DUP3 DUP3 SLOAD PUSH2 0x2B5 SWAP2 SWAP1 PUSH2 0x400 JUMP JUMPDEST SWAP3 POP POP DUP2 SWAP1 SSTORE POP JUMP JUMPDEST PUSH1 0x0 DUP2 CALLDATALOAD SWAP1 POP PUSH2 0x2CD DUP2 PUSH2 0x516 JUMP JUMPDEST SWAP3 SWAP2 POP POP JUMP JUMPDEST PUSH1 0x0 PUSH1 0x20 DUP3 DUP5 SUB SLT ISZERO PUSH2 0x2E5 JUMPI PUSH1 0x0 DUP1 REVERT JUMPDEST PUSH1 0x0 PUSH2 0x2F3 DUP5 DUP3 DUP6 ADD PUSH2 0x2BE JUMP JUMPDEST SWAP2 POP POP SWAP3 SWAP2 POP POP JUMP JUMPDEST PUSH1 0x0 PUSH2 0x309 PUSH1 0x14 DUP4 PUSH2 0x3EF JUMP JUMPDEST SWAP2 POP PUSH2 0x314 DUP3 PUSH2 0x4C1 JUMP JUMPDEST PUSH1 0x20 DUP3 ADD SWAP1 POP SWAP2 SWAP1 POP JUMP JUMPDEST PUSH1 0x0 PUSH2 0x32C PUSH1 0x14 DUP4 PUSH2 0x3EF JUMP JUMPDEST SWAP2 POP PUSH2 0x337 DUP3 PUSH2 0x4EA JUMP JUMPDEST PUSH1 0x20 DUP3 ADD SWAP1 POP SWAP2 SWAP1 POP JUMP JUMPDEST PUSH1 0x0 PUSH2 0x34F PUSH1 0x0 DUP4 PUSH2 0x3E4 JUMP JUMPDEST SWAP2 POP PUSH2 0x35A DUP3 PUSH2 0x513 JUMP JUMPDEST PUSH1 0x0 DUP3 ADD SWAP1 POP SWAP2 SWAP1 POP JUMP JUMPDEST PUSH2 0x36E DUP2 PUSH2 0x488 JUMP JUMPDEST DUP3 MSTORE POP POP JUMP JUMPDEST PUSH1 0x0 PUSH2 0x37F DUP3 PUSH2 0x342 JUMP JUMPDEST SWAP2 POP DUP2 SWAP1 POP SWAP2 SWAP1 POP JUMP JUMPDEST PUSH1 0x0 PUSH1 0x20 DUP3 ADD SWAP1 POP DUP2 DUP2 SUB PUSH1 0x0 DUP4 ADD MSTORE PUSH2 0x3A2 DUP2 PUSH2 0x2FC JUMP JUMPDEST SWAP1 POP SWAP2 SWAP1 POP JUMP JUMPDEST PUSH1 0x0 PUSH1 0x20 DUP3 ADD SWAP1 POP DUP2 DUP2 SUB PUSH1 0x0 DUP4 ADD MSTORE PUSH2 0x3C2 DUP2 PUSH2 0x31F JUMP JUMPDEST SWAP1 POP SWAP2 SWAP1 POP JUMP JUMPDEST PUSH1 0x0 PUSH1 0x20 DUP3 ADD SWAP1 POP PUSH2 0x3DE PUSH1 0x0 DUP4 ADD DUP5 PUSH2 0x365 JUMP JUMPDEST SWAP3 SWAP2 POP POP JUMP JUMPDEST PUSH1 0x0 DUP2 SWAP1 POP SWAP3 SWAP2 POP POP JUMP JUMPDEST PUSH1 0x0 DUP3 DUP3 MSTORE PUSH1 0x20 DUP3 ADD SWAP1 POP SWAP3 SWAP2 POP POP JUMP JUMPDEST PUSH1 0x0 PUSH2 0x40B DUP3 PUSH2 0x488 JUMP JUMPDEST SWAP2 POP PUSH2 0x416 DUP4 PUSH2 0x488 JUMP JUMPDEST SWAP3 POP DUP3 PUSH32 0xFFFFFFFFFFFFFFFFFFFFFFFFFFFFFFFFFFFFFFFFFFFFFFFFFFFFFFFFFFFFFFFF SUB DUP3 GT ISZERO PUSH2 0x44B JUMPI PUSH2 0x44A PUSH2 0x492 JUMP JUMPDEST JUMPDEST DUP3 DUP3 ADD SWAP1 POP SWAP3 SWAP2 POP POP JUMP JUMPDEST PUSH1 0x0 PUSH2 0x461 DUP3 PUSH2 0x468 JUMP JUMPDEST SWAP1 POP SWAP2 SWAP1 POP JUMP JUMPDEST PUSH1 0x0 PUSH20 0xFFFFFFFFFFFFFFFFFFFFFFFFFFFFFFFFFFFFFFFF DUP3 AND SWAP1 POP SWAP2 SWAP1 POP JUMP JUMPDEST PUSH1 0x0 DUP2 SWAP1 POP SWAP2 SWAP1 POP JUMP JUMPDEST PUSH32 0x4E487B7100000000000000000000000000000000000000000000000000000000 PUSH1 0x0 MSTORE PUSH1 0x11 PUSH1 0x4 MSTORE PUSH1 0x24 PUSH1 0x0 REVERT JUMPDEST PUSH32 0x4661696C656420746F2073656E64204574686572000000000000000000000000 PUSH1 0x0 DUP3 ADD MSTORE POP JUMP JUMPDEST PUSH32 0x496E73756666696369656E742062616C616E6365000000000000000000000000 PUSH1 0x0 DUP3 ADD MSTORE POP JUMP JUMPDEST POP JUMP JUMPDEST PUSH2 0x51F DUP2 PUSH2 0x456 JUMP JUMPDEST DUP2 EQ PUSH2 0x52A JUMPI PUSH1 0x0 DUP1 REVERT JUMPDEST POP JUMP INVALID LOG2 PUSH5 0x6970667358 0x22 SLT KECCAK256 0xBF 0xEF DUP15 0x1F PUSH11 0xC090059355C55DEEABD9B3 SLOAD DUP14 PUSH12 0xE9A6A6ED2FF714298BA75635 0x24 PUSH5 0x736F6C6343 STOP ADDMOD DIV STOP CALLER "
				},
				"gasEstimates": {
					"creation": {
						"codeDepositCost": "275800",
						"executionCost": "318",
						"totalCost": "276118"
					},
					"external": {
						"balanceOf(address)": "1536",
						"deposit()": "infinite",
						"getBalance()": "317",
						"withdraw()": "infinite"
					}
				},
				"methodIdentifiers": {
					"balanceOf(address)": "70a08231",
					"deposit()": "d0e30db0",
					"getBalance()": "12065fe0",
					"withdraw()": "3ccfd60b"
				}
			},
			"storageLayout": {
				"storage": [
					{
						"astId": 5,
						"contract": "重入攻击/bankDemo.sol:Bank",
						"label": "balanceOf",
						"offset": 0,
						"slot": "0",
						"type": "t_mapping(t_address,t_uint256)"
					}
				],
				"types": {
					"t_address": {
						"encoding": "inplace",
						"label": "address",
						"numberOfBytes": "20"
					},
					"t_mapping(t_address,t_uint256)": {
						"encoding": "mapping",
						"key": "t_address",
						"label": "mapping(address => uint256)",
						"numberOfBytes": "32",
						"value": "t_uint256"
					},
					"t_uint256": {
						"encoding": "inplace",
						"label": "uint256",
						"numberOfBytes": "32"
					}
				}
			},
			"userdoc": {
				"kind": "user",
				"methods": {},
				"version": 1
			}
		}
	}
}