{
	"XenFactory/artifacts/test.sol": {
		"test": {
			"abi": [
				{
					"inputs": [
						{
							"internalType": "uint256",
							"name": "",
							"type": "uint256"
						}
					],
					"name": "ab",
					"outputs": [
						{
							"internalType": "uint256",
							"name": "",
							"type": "uint256"
						}
					],
					"stateMutability": "view",
					"type": "function"
				},
				{
					"inputs": [],
					"name": "testpop",
					"outputs": [],
					"stateMutability": "nonpayable",
					"type": "function"
				},
				{
					"inputs": [
						{
							"internalType": "uint256",
							"name": "amount",
							"type": "uint256"
						}
					],
					"name": "testpush",
					"outputs": [],
					"stateMutability": "nonpayable",
					"type": "function"
				}
			],
			"devdoc": {
				"kind": "dev",
				"methods": {},
				"version": 1
			},
			"evm": {
				"assembly": "    /* \"XenFactory/artifacts/test.sol\":61:316  contract test{... */\n  mstore(0x40, 0x80)\n  callvalue\n  dup1\n  iszero\n  tag_1\n  jumpi\n  0x00\n  dup1\n  revert\ntag_1:\n  pop\n  dataSize(sub_0)\n  dup1\n  dataOffset(sub_0)\n  0x00\n  codecopy\n  0x00\n  return\nstop\n\nsub_0: assembly {\n        /* \"XenFactory/artifacts/test.sol\":61:316  contract test{... */\n      mstore(0x40, 0x80)\n      callvalue\n      dup1\n      iszero\n      tag_1\n      jumpi\n      0x00\n      dup1\n      revert\n    tag_1:\n      pop\n      jumpi(tag_2, lt(calldatasize, 0x04))\n      shr(0xe0, calldataload(0x00))\n      dup1\n      0x47c93379\n      eq\n      tag_3\n      jumpi\n      dup1\n      0x7f1ff4cd\n      eq\n      tag_4\n      jumpi\n      dup1\n      0xb660242e\n      eq\n      tag_5\n      jumpi\n    tag_2:\n      0x00\n      dup1\n      revert\n        /* \"XenFactory/artifacts/test.sol\":108:191  function testpush(uint256 amount)external {... */\n    tag_3:\n      tag_6\n      0x04\n      dup1\n      calldatasize\n      sub\n      dup2\n      add\n      swap1\n      tag_7\n      swap2\n      swap1\n      tag_8\n      jump\t// in\n    tag_7:\n      tag_9\n      jump\t// in\n    tag_6:\n      stop\n        /* \"XenFactory/artifacts/test.sol\":81:97  uint[] public ab */\n    tag_4:\n      tag_10\n      0x04\n      dup1\n      calldatasize\n      sub\n      dup2\n      add\n      swap1\n      tag_11\n      swap2\n      swap1\n      tag_8\n      jump\t// in\n    tag_11:\n      tag_12\n      jump\t// in\n    tag_10:\n      mload(0x40)\n      tag_13\n      swap2\n      swap1\n      tag_14\n      jump\t// in\n    tag_13:\n      mload(0x40)\n      dup1\n      swap2\n      sub\n      swap1\n      return\n        /* \"XenFactory/artifacts/test.sol\":199:309  function testpop() external{... */\n    tag_5:\n      tag_15\n      tag_16\n      jump\t// in\n    tag_15:\n      stop\n        /* \"XenFactory/artifacts/test.sol\":108:191  function testpush(uint256 amount)external {... */\n    tag_9:\n        /* \"XenFactory/artifacts/test.sol\":168:170  ab */\n      0x00\n        /* \"XenFactory/artifacts/test.sol\":176:182  amount */\n      dup2\n        /* \"XenFactory/artifacts/test.sol\":168:183  ab.push(amount) */\n      swap1\n      dup1\n      0x01\n      dup2\n      sload\n      add\n      dup1\n      dup3\n      sstore\n      dup1\n      swap2\n      pop\n      pop\n      0x01\n      swap1\n      sub\n      swap1\n      0x00\n      mstore\n      keccak256(0x00, 0x20)\n      add\n      0x00\n      swap1\n      swap2\n      swap1\n      swap2\n      swap1\n      swap2\n      pop\n      sstore\n        /* \"XenFactory/artifacts/test.sol\":108:191  function testpush(uint256 amount)external {... */\n      pop\n      jump\t// out\n        /* \"XenFactory/artifacts/test.sol\":81:97  uint[] public ab */\n    tag_12:\n      0x00\n      dup2\n      dup2\n      sload\n      dup2\n      lt\n      tag_19\n      jumpi\n      0x00\n      dup1\n      revert\n    tag_19:\n      swap1\n      0x00\n      mstore\n      keccak256(0x00, 0x20)\n      add\n      0x00\n      swap2\n      pop\n      swap1\n      pop\n      sload\n      dup2\n      jump\t// out\n        /* \"XenFactory/artifacts/test.sol\":199:309  function testpop() external{... */\n    tag_16:\n        /* \"XenFactory/artifacts/test.sol\":241:247  uint i */\n      0x00\n        /* \"XenFactory/artifacts/test.sol\":237:302  for(uint i =0;i<ab.length;i++){... */\n    tag_22:\n        /* \"XenFactory/artifacts/test.sol\":253:255  ab */\n      0x00\n        /* \"XenFactory/artifacts/test.sol\":253:262  ab.length */\n      dup1\n      sload\n      swap1\n      pop\n        /* \"XenFactory/artifacts/test.sol\":251:252  i */\n      dup2\n        /* \"XenFactory/artifacts/test.sol\":251:262  i<ab.length */\n      lt\n        /* \"XenFactory/artifacts/test.sol\":237:302  for(uint i =0;i<ab.length;i++){... */\n      iszero\n      tag_23\n      jumpi\n        /* \"XenFactory/artifacts/test.sol\":282:284  ab */\n      0x00\n        /* \"XenFactory/artifacts/test.sol\":282:290  ab.pop() */\n      dup1\n      sload\n      dup1\n      tag_25\n      jumpi\n      tag_26\n      tag_27\n      jump\t// in\n    tag_26:\n    tag_25:\n      0x01\n      swap1\n      sub\n      dup2\n      dup2\n      swap1\n      0x00\n      mstore\n      keccak256(0x00, 0x20)\n      add\n      0x00\n      swap1\n      sstore\n      swap1\n      sstore\n        /* \"XenFactory/artifacts/test.sol\":263:266  i++ */\n      dup1\n      dup1\n      tag_29\n      swap1\n      tag_30\n      jump\t// in\n    tag_29:\n      swap2\n      pop\n      pop\n        /* \"XenFactory/artifacts/test.sol\":237:302  for(uint i =0;i<ab.length;i++){... */\n      jump(tag_22)\n    tag_23:\n      pop\n        /* \"XenFactory/artifacts/test.sol\":199:309  function testpop() external{... */\n      jump\t// out\n        /* \"#utility.yul\":88:205   */\n    tag_32:\n        /* \"#utility.yul\":197:198   */\n      0x00\n        /* \"#utility.yul\":194:195   */\n      dup1\n        /* \"#utility.yul\":187:199   */\n      revert\n        /* \"#utility.yul\":334:411   */\n    tag_34:\n        /* \"#utility.yul\":371:378   */\n      0x00\n        /* \"#utility.yul\":400:405   */\n      dup2\n        /* \"#utility.yul\":389:405   */\n      swap1\n      pop\n        /* \"#utility.yul\":334:411   */\n      swap2\n      swap1\n      pop\n      jump\t// out\n        /* \"#utility.yul\":417:539   */\n    tag_35:\n        /* \"#utility.yul\":490:514   */\n      tag_45\n        /* \"#utility.yul\":508:513   */\n      dup2\n        /* \"#utility.yul\":490:514   */\n      tag_34\n      jump\t// in\n    tag_45:\n        /* \"#utility.yul\":483:488   */\n      dup2\n        /* \"#utility.yul\":480:515   */\n      eq\n        /* \"#utility.yul\":470:533   */\n      tag_46\n      jumpi\n        /* \"#utility.yul\":529:530   */\n      0x00\n        /* \"#utility.yul\":526:527   */\n      dup1\n        /* \"#utility.yul\":519:531   */\n      revert\n        /* \"#utility.yul\":470:533   */\n    tag_46:\n        /* \"#utility.yul\":417:539   */\n      pop\n      jump\t// out\n        /* \"#utility.yul\":545:684   */\n    tag_36:\n        /* \"#utility.yul\":591:596   */\n      0x00\n        /* \"#utility.yul\":629:635   */\n      dup2\n        /* \"#utility.yul\":616:636   */\n      calldataload\n        /* \"#utility.yul\":607:636   */\n      swap1\n      pop\n        /* \"#utility.yul\":645:678   */\n      tag_48\n        /* \"#utility.yul\":672:677   */\n      dup2\n        /* \"#utility.yul\":645:678   */\n      tag_35\n      jump\t// in\n    tag_48:\n        /* \"#utility.yul\":545:684   */\n      swap3\n      swap2\n      pop\n      pop\n      jump\t// out\n        /* \"#utility.yul\":690:1019   */\n    tag_8:\n        /* \"#utility.yul\":749:755   */\n      0x00\n        /* \"#utility.yul\":798:800   */\n      0x20\n        /* \"#utility.yul\":786:795   */\n      dup3\n        /* \"#utility.yul\":777:784   */\n      dup5\n        /* \"#utility.yul\":773:796   */\n      sub\n        /* \"#utility.yul\":769:801   */\n      slt\n        /* \"#utility.yul\":766:885   */\n      iszero\n      tag_50\n      jumpi\n        /* \"#utility.yul\":804:883   */\n      tag_51\n      tag_32\n      jump\t// in\n    tag_51:\n        /* \"#utility.yul\":766:885   */\n    tag_50:\n        /* \"#utility.yul\":924:925   */\n      0x00\n        /* \"#utility.yul\":949:1002   */\n      tag_52\n        /* \"#utility.yul\":994:1001   */\n      dup5\n        /* \"#utility.yul\":985:991   */\n      dup3\n        /* \"#utility.yul\":974:983   */\n      dup6\n        /* \"#utility.yul\":970:992   */\n      add\n        /* \"#utility.yul\":949:1002   */\n      tag_36\n      jump\t// in\n    tag_52:\n        /* \"#utility.yul\":939:1002   */\n      swap2\n      pop\n        /* \"#utility.yul\":895:1012   */\n      pop\n        /* \"#utility.yul\":690:1019   */\n      swap3\n      swap2\n      pop\n      pop\n      jump\t// out\n        /* \"#utility.yul\":1025:1143   */\n    tag_37:\n        /* \"#utility.yul\":1112:1136   */\n      tag_54\n        /* \"#utility.yul\":1130:1135   */\n      dup2\n        /* \"#utility.yul\":1112:1136   */\n      tag_34\n      jump\t// in\n    tag_54:\n        /* \"#utility.yul\":1107:1110   */\n      dup3\n        /* \"#utility.yul\":1100:1137   */\n      mstore\n        /* \"#utility.yul\":1025:1143   */\n      pop\n      pop\n      jump\t// out\n        /* \"#utility.yul\":1149:1371   */\n    tag_14:\n        /* \"#utility.yul\":1242:1246   */\n      0x00\n        /* \"#utility.yul\":1280:1282   */\n      0x20\n        /* \"#utility.yul\":1269:1278   */\n      dup3\n        /* \"#utility.yul\":1265:1283   */\n      add\n        /* \"#utility.yul\":1257:1283   */\n      swap1\n      pop\n        /* \"#utility.yul\":1293:1364   */\n      tag_56\n        /* \"#utility.yul\":1361:1362   */\n      0x00\n        /* \"#utility.yul\":1350:1359   */\n      dup4\n        /* \"#utility.yul\":1346:1363   */\n      add\n        /* \"#utility.yul\":1337:1343   */\n      dup5\n        /* \"#utility.yul\":1293:1364   */\n      tag_37\n      jump\t// in\n    tag_56:\n        /* \"#utility.yul\":1149:1371   */\n      swap3\n      swap2\n      pop\n      pop\n      jump\t// out\n        /* \"#utility.yul\":1377:1557   */\n    tag_27:\n        /* \"#utility.yul\":1425:1502   */\n      0x4e487b7100000000000000000000000000000000000000000000000000000000\n        /* \"#utility.yul\":1422:1423   */\n      0x00\n        /* \"#utility.yul\":1415:1503   */\n      mstore\n        /* \"#utility.yul\":1522:1526   */\n      0x31\n        /* \"#utility.yul\":1519:1520   */\n      0x04\n        /* \"#utility.yul\":1512:1527   */\n      mstore\n        /* \"#utility.yul\":1546:1550   */\n      0x24\n        /* \"#utility.yul\":1543:1544   */\n      0x00\n        /* \"#utility.yul\":1536:1551   */\n      revert\n        /* \"#utility.yul\":1563:1743   */\n    tag_38:\n        /* \"#utility.yul\":1611:1688   */\n      0x4e487b7100000000000000000000000000000000000000000000000000000000\n        /* \"#utility.yul\":1608:1609   */\n      0x00\n        /* \"#utility.yul\":1601:1689   */\n      mstore\n        /* \"#utility.yul\":1708:1712   */\n      0x11\n        /* \"#utility.yul\":1705:1706   */\n      0x04\n        /* \"#utility.yul\":1698:1713   */\n      mstore\n        /* \"#utility.yul\":1732:1736   */\n      0x24\n        /* \"#utility.yul\":1729:1730   */\n      0x00\n        /* \"#utility.yul\":1722:1737   */\n      revert\n        /* \"#utility.yul\":1749:1982   */\n    tag_30:\n        /* \"#utility.yul\":1788:1791   */\n      0x00\n        /* \"#utility.yul\":1811:1835   */\n      tag_60\n        /* \"#utility.yul\":1829:1834   */\n      dup3\n        /* \"#utility.yul\":1811:1835   */\n      tag_34\n      jump\t// in\n    tag_60:\n        /* \"#utility.yul\":1802:1835   */\n      swap2\n      pop\n        /* \"#utility.yul\":1857:1923   */\n      0xffffffffffffffffffffffffffffffffffffffffffffffffffffffffffffffff\n        /* \"#utility.yul\":1850:1855   */\n      dup3\n        /* \"#utility.yul\":1847:1924   */\n      sub\n        /* \"#utility.yul\":1844:1947   */\n      tag_61\n      jumpi\n        /* \"#utility.yul\":1927:1945   */\n      tag_62\n      tag_38\n      jump\t// in\n    tag_62:\n        /* \"#utility.yul\":1844:1947   */\n    tag_61:\n        /* \"#utility.yul\":1974:1975   */\n      0x01\n        /* \"#utility.yul\":1967:1972   */\n      dup3\n        /* \"#utility.yul\":1963:1976   */\n      add\n        /* \"#utility.yul\":1956:1976   */\n      swap1\n      pop\n        /* \"#utility.yul\":1749:1982   */\n      swap2\n      swap1\n      pop\n      jump\t// out\n\n    auxdata: 0xa2646970667358221220311aa237565367244a039394ab929f9de5e240082657a112dad4d813f2221dc064736f6c63430008110033\n}\n",
				"bytecode": {
					"linkReferences": {},
					"object": "608060405234801561001057600080fd5b506102a8806100206000396000f3fe608060405234801561001057600080fd5b50600436106100415760003560e01c806347c93379146100465780637f1ff4cd14610062578063b660242e14610092575b600080fd5b610060600480360381019061005b9190610175565b61009c565b005b61007c60048036038101906100779190610175565b6100c8565b60405161008991906101b1565b60405180910390f35b61009a6100ec565b005b600081908060018154018082558091505060019003906000526020600020016000909190919091505550565b600081815481106100d857600080fd5b906000526020600020016000915090505481565b60005b60008054905081101561013757600080548061010e5761010d6101cc565b5b60019003818190600052602060002001600090559055808061012f9061022a565b9150506100ef565b50565b600080fd5b6000819050919050565b6101528161013f565b811461015d57600080fd5b50565b60008135905061016f81610149565b92915050565b60006020828403121561018b5761018a61013a565b5b600061019984828501610160565b91505092915050565b6101ab8161013f565b82525050565b60006020820190506101c660008301846101a2565b92915050565b7f4e487b7100000000000000000000000000000000000000000000000000000000600052603160045260246000fd5b7f4e487b7100000000000000000000000000000000000000000000000000000000600052601160045260246000fd5b60006102358261013f565b91507fffffffffffffffffffffffffffffffffffffffffffffffffffffffffffffffff8203610267576102666101fb565b5b60018201905091905056fea2646970667358221220311aa237565367244a039394ab929f9de5e240082657a112dad4d813f2221dc064736f6c63430008110033",
					"opcodes": "PUSH1 0x80 PUSH1 0x40 MSTORE CALLVALUE DUP1 ISZERO PUSH2 0x10 JUMPI PUSH1 0x0 DUP1 REVERT JUMPDEST POP PUSH2 0x2A8 DUP1 PUSH2 0x20 PUSH1 0x0 CODECOPY PUSH1 0x0 RETURN INVALID PUSH1 0x80 PUSH1 0x40 MSTORE CALLVALUE DUP1 ISZERO PUSH2 0x10 JUMPI PUSH1 0x0 DUP1 REVERT JUMPDEST POP PUSH1 0x4 CALLDATASIZE LT PUSH2 0x41 JUMPI PUSH1 0x0 CALLDATALOAD PUSH1 0xE0 SHR DUP1 PUSH4 0x47C93379 EQ PUSH2 0x46 JUMPI DUP1 PUSH4 0x7F1FF4CD EQ PUSH2 0x62 JUMPI DUP1 PUSH4 0xB660242E EQ PUSH2 0x92 JUMPI JUMPDEST PUSH1 0x0 DUP1 REVERT JUMPDEST PUSH2 0x60 PUSH1 0x4 DUP1 CALLDATASIZE SUB DUP2 ADD SWAP1 PUSH2 0x5B SWAP2 SWAP1 PUSH2 0x175 JUMP JUMPDEST PUSH2 0x9C JUMP JUMPDEST STOP JUMPDEST PUSH2 0x7C PUSH1 0x4 DUP1 CALLDATASIZE SUB DUP2 ADD SWAP1 PUSH2 0x77 SWAP2 SWAP1 PUSH2 0x175 JUMP JUMPDEST PUSH2 0xC8 JUMP JUMPDEST PUSH1 0x40 MLOAD PUSH2 0x89 SWAP2 SWAP1 PUSH2 0x1B1 JUMP JUMPDEST PUSH1 0x40 MLOAD DUP1 SWAP2 SUB SWAP1 RETURN JUMPDEST PUSH2 0x9A PUSH2 0xEC JUMP JUMPDEST STOP JUMPDEST PUSH1 0x0 DUP2 SWAP1 DUP1 PUSH1 0x1 DUP2 SLOAD ADD DUP1 DUP3 SSTORE DUP1 SWAP2 POP POP PUSH1 0x1 SWAP1 SUB SWAP1 PUSH1 0x0 MSTORE PUSH1 0x20 PUSH1 0x0 KECCAK256 ADD PUSH1 0x0 SWAP1 SWAP2 SWAP1 SWAP2 SWAP1 SWAP2 POP SSTORE POP JUMP JUMPDEST PUSH1 0x0 DUP2 DUP2 SLOAD DUP2 LT PUSH2 0xD8 JUMPI PUSH1 0x0 DUP1 REVERT JUMPDEST SWAP1 PUSH1 0x0 MSTORE PUSH1 0x20 PUSH1 0x0 KECCAK256 ADD PUSH1 0x0 SWAP2 POP SWAP1 POP SLOAD DUP2 JUMP JUMPDEST PUSH1 0x0 JUMPDEST PUSH1 0x0 DUP1 SLOAD SWAP1 POP DUP2 LT ISZERO PUSH2 0x137 JUMPI PUSH1 0x0 DUP1 SLOAD DUP1 PUSH2 0x10E JUMPI PUSH2 0x10D PUSH2 0x1CC JUMP JUMPDEST JUMPDEST PUSH1 0x1 SWAP1 SUB DUP2 DUP2 SWAP1 PUSH1 0x0 MSTORE PUSH1 0x20 PUSH1 0x0 KECCAK256 ADD PUSH1 0x0 SWAP1 SSTORE SWAP1 SSTORE DUP1 DUP1 PUSH2 0x12F SWAP1 PUSH2 0x22A JUMP JUMPDEST SWAP2 POP POP PUSH2 0xEF JUMP JUMPDEST POP JUMP JUMPDEST PUSH1 0x0 DUP1 REVERT JUMPDEST PUSH1 0x0 DUP2 SWAP1 POP SWAP2 SWAP1 POP JUMP JUMPDEST PUSH2 0x152 DUP2 PUSH2 0x13F JUMP JUMPDEST DUP2 EQ PUSH2 0x15D JUMPI PUSH1 0x0 DUP1 REVERT JUMPDEST POP JUMP JUMPDEST PUSH1 0x0 DUP2 CALLDATALOAD SWAP1 POP PUSH2 0x16F DUP2 PUSH2 0x149 JUMP JUMPDEST SWAP3 SWAP2 POP POP JUMP JUMPDEST PUSH1 0x0 PUSH1 0x20 DUP3 DUP5 SUB SLT ISZERO PUSH2 0x18B JUMPI PUSH2 0x18A PUSH2 0x13A JUMP JUMPDEST JUMPDEST PUSH1 0x0 PUSH2 0x199 DUP5 DUP3 DUP6 ADD PUSH2 0x160 JUMP JUMPDEST SWAP2 POP POP SWAP3 SWAP2 POP POP JUMP JUMPDEST PUSH2 0x1AB DUP2 PUSH2 0x13F JUMP JUMPDEST DUP3 MSTORE POP POP JUMP JUMPDEST PUSH1 0x0 PUSH1 0x20 DUP3 ADD SWAP1 POP PUSH2 0x1C6 PUSH1 0x0 DUP4 ADD DUP5 PUSH2 0x1A2 JUMP JUMPDEST SWAP3 SWAP2 POP POP JUMP JUMPDEST PUSH32 0x4E487B7100000000000000000000000000000000000000000000000000000000 PUSH1 0x0 MSTORE PUSH1 0x31 PUSH1 0x4 MSTORE PUSH1 0x24 PUSH1 0x0 REVERT JUMPDEST PUSH32 0x4E487B7100000000000000000000000000000000000000000000000000000000 PUSH1 0x0 MSTORE PUSH1 0x11 PUSH1 0x4 MSTORE PUSH1 0x24 PUSH1 0x0 REVERT JUMPDEST PUSH1 0x0 PUSH2 0x235 DUP3 PUSH2 0x13F JUMP JUMPDEST SWAP2 POP PUSH32 0xFFFFFFFFFFFFFFFFFFFFFFFFFFFFFFFFFFFFFFFFFFFFFFFFFFFFFFFFFFFFFFFF DUP3 SUB PUSH2 0x267 JUMPI PUSH2 0x266 PUSH2 0x1FB JUMP JUMPDEST JUMPDEST PUSH1 0x1 DUP3 ADD SWAP1 POP SWAP2 SWAP1 POP JUMP INVALID LOG2 PUSH5 0x6970667358 0x22 SLT KECCAK256 BALANCE BYTE LOG2 CALLDATACOPY JUMP MSTORE8 PUSH8 0x244A039394AB929F SWAP14 0xE5 0xE2 BLOCKHASH ADDMOD 0x26 JUMPI LOG1 SLT 0xDA 0xD4 0xD8 SGT CALLCODE 0x22 SAR 0xC0 PUSH5 0x736F6C6343 STOP ADDMOD GT STOP CALLER "
				},
				"gasEstimates": {
					"creation": {
						"codeDepositCost": "136000",
						"executionCost": "183",
						"totalCost": "136183"
					},
					"external": {
						"ab(uint256)": "infinite",
						"testpop()": "infinite",
						"testpush(uint256)": "46807"
					}
				},
				"methodIdentifiers": {
					"ab(uint256)": "7f1ff4cd",
					"testpop()": "b660242e",
					"testpush(uint256)": "47c93379"
				}
			},
			"storageLayout": {
				"storage": [
					{
						"astId": 4,
						"contract": "XenFactory/artifacts/test.sol:test",
						"label": "ab",
						"offset": 0,
						"slot": "0",
						"type": "t_array(t_uint256)dyn_storage"
					}
				],
				"types": {
					"t_array(t_uint256)dyn_storage": {
						"base": "t_uint256",
						"encoding": "dynamic_array",
						"label": "uint256[]",
						"numberOfBytes": "32"
					},
					"t_uint256": {
						"encoding": "inplace",
						"label": "uint256",
						"numberOfBytes": "32"
					}
				}
			},
			"userdoc": {
				"kind": "user",
				"methods": {},
				"version": 1
			}
		}
	}
}