{
	"XenFactory/artifacts/test.sol": {
		"test": {
			"abi": [
				{
					"inputs": [
						{
							"internalType": "uint256",
							"name": "",
							"type": "uint256"
						}
					],
					"name": "ab",
					"outputs": [
						{
							"internalType": "uint256",
							"name": "",
							"type": "uint256"
						}
					],
					"stateMutability": "view",
					"type": "function"
				},
				{
					"inputs": [],
					"name": "testpop",
					"outputs": [],
					"stateMutability": "nonpayable",
					"type": "function"
				},
				{
					"inputs": [
						{
							"internalType": "uint256",
							"name": "amount",
							"type": "uint256"
						}
					],
					"name": "testpush",
					"outputs": [],
					"stateMutability": "nonpayable",
					"type": "function"
				}
			],
			"devdoc": {
				"kind": "dev",
				"methods": {},
				"version": 1
			},
			"evm": {
				"assembly": "    /* \"XenFactory/artifacts/test.sol\":61:336  contract test{... */\n  mstore(0x40, 0x80)\n  callvalue\n  dup1\n  iszero\n  tag_1\n  jumpi\n  0x00\n  dup1\n  revert\ntag_1:\n  pop\n  dataSize(sub_0)\n  dup1\n  dataOffset(sub_0)\n  0x00\n  codecopy\n  0x00\n  return\nstop\n\nsub_0: assembly {\n        /* \"XenFactory/artifacts/test.sol\":61:336  contract test{... */\n      mstore(0x40, 0x80)\n      callvalue\n      dup1\n      iszero\n      tag_1\n      jumpi\n      0x00\n      dup1\n      revert\n    tag_1:\n      pop\n      jumpi(tag_2, lt(calldatasize, 0x04))\n      shr(0xe0, calldataload(0x00))\n      dup1\n      0x47c93379\n      eq\n      tag_3\n      jumpi\n      dup1\n      0x7f1ff4cd\n      eq\n      tag_4\n      jumpi\n      dup1\n      0xb660242e\n      eq\n      tag_5\n      jumpi\n    tag_2:\n      0x00\n      dup1\n      revert\n        /* \"XenFactory/artifacts/test.sol\":108:194  function testpush(uint256 amount) external{... */\n    tag_3:\n      tag_6\n      0x04\n      dup1\n      calldatasize\n      sub\n      dup2\n      add\n      swap1\n      tag_7\n      swap2\n      swap1\n      tag_8\n      jump\t// in\n    tag_7:\n      tag_9\n      jump\t// in\n    tag_6:\n      stop\n        /* \"XenFactory/artifacts/test.sol\":81:97  uint[] public ab */\n    tag_4:\n      tag_10\n      0x04\n      dup1\n      calldatasize\n      sub\n      dup2\n      add\n      swap1\n      tag_11\n      swap2\n      swap1\n      tag_8\n      jump\t// in\n    tag_11:\n      tag_12\n      jump\t// in\n    tag_10:\n      mload(0x40)\n      tag_13\n      swap2\n      swap1\n      tag_14\n      jump\t// in\n    tag_13:\n      mload(0x40)\n      dup1\n      swap2\n      sub\n      swap1\n      return\n        /* \"XenFactory/artifacts/test.sol\":202:329  function testpop() external{... */\n    tag_5:\n      tag_15\n      tag_16\n      jump\t// in\n    tag_15:\n      stop\n        /* \"XenFactory/artifacts/test.sol\":108:194  function testpush(uint256 amount) external{... */\n    tag_9:\n        /* \"XenFactory/artifacts/test.sol\":161:163  ab */\n      0x00\n        /* \"XenFactory/artifacts/test.sol\":169:175  amount */\n      dup2\n        /* \"XenFactory/artifacts/test.sol\":161:176  ab.push(amount) */\n      swap1\n      dup1\n      0x01\n      dup2\n      sload\n      add\n      dup1\n      dup3\n      sstore\n      dup1\n      swap2\n      pop\n      pop\n      0x01\n      swap1\n      sub\n      swap1\n      0x00\n      mstore\n      keccak256(0x00, 0x20)\n      add\n      0x00\n      swap1\n      swap2\n      swap1\n      swap2\n      swap1\n      swap2\n      pop\n      sstore\n        /* \"XenFactory/artifacts/test.sol\":108:194  function testpush(uint256 amount) external{... */\n      pop\n      jump\t// out\n        /* \"XenFactory/artifacts/test.sol\":81:97  uint[] public ab */\n    tag_12:\n      0x00\n      dup2\n      dup2\n      sload\n      dup2\n      lt\n      tag_19\n      jumpi\n      0x00\n      dup1\n      revert\n    tag_19:\n      swap1\n      0x00\n      mstore\n      keccak256(0x00, 0x20)\n      add\n      0x00\n      swap2\n      pop\n      swap1\n      pop\n      sload\n      dup2\n      jump\t// out\n        /* \"XenFactory/artifacts/test.sol\":202:329  function testpop() external{... */\n    tag_16:\n        /* \"XenFactory/artifacts/test.sol\":244:250  uint i */\n      0x00\n        /* \"XenFactory/artifacts/test.sol\":240:322  for(uint i = 0;i<ab.length-1;i++){... */\n    tag_22:\n        /* \"XenFactory/artifacts/test.sol\":267:268  1 */\n      0x01\n        /* \"XenFactory/artifacts/test.sol\":257:259  ab */\n      0x00\n        /* \"XenFactory/artifacts/test.sol\":257:266  ab.length */\n      dup1\n      sload\n      swap1\n      pop\n        /* \"XenFactory/artifacts/test.sol\":257:268  ab.length-1 */\n      tag_25\n      swap2\n      swap1\n      tag_26\n      jump\t// in\n    tag_25:\n        /* \"XenFactory/artifacts/test.sol\":255:256  i */\n      dup2\n        /* \"XenFactory/artifacts/test.sol\":255:268  i<ab.length-1 */\n      lt\n        /* \"XenFactory/artifacts/test.sol\":240:322  for(uint i = 0;i<ab.length-1;i++){... */\n      iszero\n      tag_23\n      jumpi\n        /* \"XenFactory/artifacts/test.sol\":302:304  ab */\n      0x00\n        /* \"XenFactory/artifacts/test.sol\":302:310  ab.pop() */\n      dup1\n      sload\n      dup1\n      tag_27\n      jumpi\n      tag_28\n      tag_29\n      jump\t// in\n    tag_28:\n    tag_27:\n      0x01\n      swap1\n      sub\n      dup2\n      dup2\n      swap1\n      0x00\n      mstore\n      keccak256(0x00, 0x20)\n      add\n      0x00\n      swap1\n      sstore\n      swap1\n      sstore\n        /* \"XenFactory/artifacts/test.sol\":269:272  i++ */\n      dup1\n      dup1\n      tag_31\n      swap1\n      tag_32\n      jump\t// in\n    tag_31:\n      swap2\n      pop\n      pop\n        /* \"XenFactory/artifacts/test.sol\":240:322  for(uint i = 0;i<ab.length-1;i++){... */\n      jump(tag_22)\n    tag_23:\n      pop\n        /* \"XenFactory/artifacts/test.sol\":202:329  function testpop() external{... */\n      jump\t// out\n        /* \"#utility.yul\":88:205   */\n    tag_34:\n        /* \"#utility.yul\":197:198   */\n      0x00\n        /* \"#utility.yul\":194:195   */\n      dup1\n        /* \"#utility.yul\":187:199   */\n      revert\n        /* \"#utility.yul\":334:411   */\n    tag_36:\n        /* \"#utility.yul\":371:378   */\n      0x00\n        /* \"#utility.yul\":400:405   */\n      dup2\n        /* \"#utility.yul\":389:405   */\n      swap1\n      pop\n        /* \"#utility.yul\":334:411   */\n      swap2\n      swap1\n      pop\n      jump\t// out\n        /* \"#utility.yul\":417:539   */\n    tag_37:\n        /* \"#utility.yul\":490:514   */\n      tag_47\n        /* \"#utility.yul\":508:513   */\n      dup2\n        /* \"#utility.yul\":490:514   */\n      tag_36\n      jump\t// in\n    tag_47:\n        /* \"#utility.yul\":483:488   */\n      dup2\n        /* \"#utility.yul\":480:515   */\n      eq\n        /* \"#utility.yul\":470:533   */\n      tag_48\n      jumpi\n        /* \"#utility.yul\":529:530   */\n      0x00\n        /* \"#utility.yul\":526:527   */\n      dup1\n        /* \"#utility.yul\":519:531   */\n      revert\n        /* \"#utility.yul\":470:533   */\n    tag_48:\n        /* \"#utility.yul\":417:539   */\n      pop\n      jump\t// out\n        /* \"#utility.yul\":545:684   */\n    tag_38:\n        /* \"#utility.yul\":591:596   */\n      0x00\n        /* \"#utility.yul\":629:635   */\n      dup2\n        /* \"#utility.yul\":616:636   */\n      calldataload\n        /* \"#utility.yul\":607:636   */\n      swap1\n      pop\n        /* \"#utility.yul\":645:678   */\n      tag_50\n        /* \"#utility.yul\":672:677   */\n      dup2\n        /* \"#utility.yul\":645:678   */\n      tag_37\n      jump\t// in\n    tag_50:\n        /* \"#utility.yul\":545:684   */\n      swap3\n      swap2\n      pop\n      pop\n      jump\t// out\n        /* \"#utility.yul\":690:1019   */\n    tag_8:\n        /* \"#utility.yul\":749:755   */\n      0x00\n        /* \"#utility.yul\":798:800   */\n      0x20\n        /* \"#utility.yul\":786:795   */\n      dup3\n        /* \"#utility.yul\":777:784   */\n      dup5\n        /* \"#utility.yul\":773:796   */\n      sub\n        /* \"#utility.yul\":769:801   */\n      slt\n        /* \"#utility.yul\":766:885   */\n      iszero\n      tag_52\n      jumpi\n        /* \"#utility.yul\":804:883   */\n      tag_53\n      tag_34\n      jump\t// in\n    tag_53:\n        /* \"#utility.yul\":766:885   */\n    tag_52:\n        /* \"#utility.yul\":924:925   */\n      0x00\n        /* \"#utility.yul\":949:1002   */\n      tag_54\n        /* \"#utility.yul\":994:1001   */\n      dup5\n        /* \"#utility.yul\":985:991   */\n      dup3\n        /* \"#utility.yul\":974:983   */\n      dup6\n        /* \"#utility.yul\":970:992   */\n      add\n        /* \"#utility.yul\":949:1002   */\n      tag_38\n      jump\t// in\n    tag_54:\n        /* \"#utility.yul\":939:1002   */\n      swap2\n      pop\n        /* \"#utility.yul\":895:1012   */\n      pop\n        /* \"#utility.yul\":690:1019   */\n      swap3\n      swap2\n      pop\n      pop\n      jump\t// out\n        /* \"#utility.yul\":1025:1143   */\n    tag_39:\n        /* \"#utility.yul\":1112:1136   */\n      tag_56\n        /* \"#utility.yul\":1130:1135   */\n      dup2\n        /* \"#utility.yul\":1112:1136   */\n      tag_36\n      jump\t// in\n    tag_56:\n        /* \"#utility.yul\":1107:1110   */\n      dup3\n        /* \"#utility.yul\":1100:1137   */\n      mstore\n        /* \"#utility.yul\":1025:1143   */\n      pop\n      pop\n      jump\t// out\n        /* \"#utility.yul\":1149:1371   */\n    tag_14:\n        /* \"#utility.yul\":1242:1246   */\n      0x00\n        /* \"#utility.yul\":1280:1282   */\n      0x20\n        /* \"#utility.yul\":1269:1278   */\n      dup3\n        /* \"#utility.yul\":1265:1283   */\n      add\n        /* \"#utility.yul\":1257:1283   */\n      swap1\n      pop\n        /* \"#utility.yul\":1293:1364   */\n      tag_58\n        /* \"#utility.yul\":1361:1362   */\n      0x00\n        /* \"#utility.yul\":1350:1359   */\n      dup4\n        /* \"#utility.yul\":1346:1363   */\n      add\n        /* \"#utility.yul\":1337:1343   */\n      dup5\n        /* \"#utility.yul\":1293:1364   */\n      tag_39\n      jump\t// in\n    tag_58:\n        /* \"#utility.yul\":1149:1371   */\n      swap3\n      swap2\n      pop\n      pop\n      jump\t// out\n        /* \"#utility.yul\":1377:1557   */\n    tag_40:\n        /* \"#utility.yul\":1425:1502   */\n      0x4e487b7100000000000000000000000000000000000000000000000000000000\n        /* \"#utility.yul\":1422:1423   */\n      0x00\n        /* \"#utility.yul\":1415:1503   */\n      mstore\n        /* \"#utility.yul\":1522:1526   */\n      0x11\n        /* \"#utility.yul\":1519:1520   */\n      0x04\n        /* \"#utility.yul\":1512:1527   */\n      mstore\n        /* \"#utility.yul\":1546:1550   */\n      0x24\n        /* \"#utility.yul\":1543:1544   */\n      0x00\n        /* \"#utility.yul\":1536:1551   */\n      revert\n        /* \"#utility.yul\":1563:1757   */\n    tag_26:\n        /* \"#utility.yul\":1603:1607   */\n      0x00\n        /* \"#utility.yul\":1623:1643   */\n      tag_61\n        /* \"#utility.yul\":1641:1642   */\n      dup3\n        /* \"#utility.yul\":1623:1643   */\n      tag_36\n      jump\t// in\n    tag_61:\n        /* \"#utility.yul\":1618:1643   */\n      swap2\n      pop\n        /* \"#utility.yul\":1657:1677   */\n      tag_62\n        /* \"#utility.yul\":1675:1676   */\n      dup4\n        /* \"#utility.yul\":1657:1677   */\n      tag_36\n      jump\t// in\n    tag_62:\n        /* \"#utility.yul\":1652:1677   */\n      swap3\n      pop\n        /* \"#utility.yul\":1701:1702   */\n      dup3\n        /* \"#utility.yul\":1698:1699   */\n      dup3\n        /* \"#utility.yul\":1694:1703   */\n      sub\n        /* \"#utility.yul\":1686:1703   */\n      swap1\n      pop\n        /* \"#utility.yul\":1725:1726   */\n      dup2\n        /* \"#utility.yul\":1719:1723   */\n      dup2\n        /* \"#utility.yul\":1716:1727   */\n      gt\n        /* \"#utility.yul\":1713:1750   */\n      iszero\n      tag_63\n      jumpi\n        /* \"#utility.yul\":1730:1748   */\n      tag_64\n      tag_40\n      jump\t// in\n    tag_64:\n        /* \"#utility.yul\":1713:1750   */\n    tag_63:\n        /* \"#utility.yul\":1563:1757   */\n      swap3\n      swap2\n      pop\n      pop\n      jump\t// out\n        /* \"#utility.yul\":1763:1943   */\n    tag_29:\n        /* \"#utility.yul\":1811:1888   */\n      0x4e487b7100000000000000000000000000000000000000000000000000000000\n        /* \"#utility.yul\":1808:1809   */\n      0x00\n        /* \"#utility.yul\":1801:1889   */\n      mstore\n        /* \"#utility.yul\":1908:1912   */\n      0x31\n        /* \"#utility.yul\":1905:1906   */\n      0x04\n        /* \"#utility.yul\":1898:1913   */\n      mstore\n        /* \"#utility.yul\":1932:1936   */\n      0x24\n        /* \"#utility.yul\":1929:1930   */\n      0x00\n        /* \"#utility.yul\":1922:1937   */\n      revert\n        /* \"#utility.yul\":1949:2182   */\n    tag_32:\n        /* \"#utility.yul\":1988:1991   */\n      0x00\n        /* \"#utility.yul\":2011:2035   */\n      tag_67\n        /* \"#utility.yul\":2029:2034   */\n      dup3\n        /* \"#utility.yul\":2011:2035   */\n      tag_36\n      jump\t// in\n    tag_67:\n        /* \"#utility.yul\":2002:2035   */\n      swap2\n      pop\n        /* \"#utility.yul\":2057:2123   */\n      0xffffffffffffffffffffffffffffffffffffffffffffffffffffffffffffffff\n        /* \"#utility.yul\":2050:2055   */\n      dup3\n        /* \"#utility.yul\":2047:2124   */\n      sub\n        /* \"#utility.yul\":2044:2147   */\n      tag_68\n      jumpi\n        /* \"#utility.yul\":2127:2145   */\n      tag_69\n      tag_40\n      jump\t// in\n    tag_69:\n        /* \"#utility.yul\":2044:2147   */\n    tag_68:\n        /* \"#utility.yul\":2174:2175   */\n      0x01\n        /* \"#utility.yul\":2167:2172   */\n      dup3\n        /* \"#utility.yul\":2163:2176   */\n      add\n        /* \"#utility.yul\":2156:2176   */\n      swap1\n      pop\n        /* \"#utility.yul\":1949:2182   */\n      swap2\n      swap1\n      pop\n      jump\t// out\n\n    auxdata: 0xa2646970667358221220e5dba1590c3bacc30fe56980f314dfde00d9783df1b1bf36373ae3175870689d64736f6c63430008110033\n}\n",
				"bytecode": {
					"linkReferences": {},
					"object": "608060405234801561001057600080fd5b506102e8806100206000396000f3fe608060405234801561001057600080fd5b50600436106100415760003560e01c806347c93379146100465780637f1ff4cd14610062578063b660242e14610092575b600080fd5b610060600480360381019061005b9190610181565b61009c565b005b61007c60048036038101906100779190610181565b6100c8565b60405161008991906101bd565b60405180910390f35b61009a6100ec565b005b600081908060018154018082558091505060019003906000526020600020016000909190919091505550565b600081815481106100d857600080fd5b906000526020600020016000915090505481565b60005b60016000805490506101019190610207565b81101561014357600080548061011a5761011961023b565b5b60019003818190600052602060002001600090559055808061013b9061026a565b9150506100ef565b50565b600080fd5b6000819050919050565b61015e8161014b565b811461016957600080fd5b50565b60008135905061017b81610155565b92915050565b60006020828403121561019757610196610146565b5b60006101a58482850161016c565b91505092915050565b6101b78161014b565b82525050565b60006020820190506101d260008301846101ae565b92915050565b7f4e487b7100000000000000000000000000000000000000000000000000000000600052601160045260246000fd5b60006102128261014b565b915061021d8361014b565b9250828203905081811115610235576102346101d8565b5b92915050565b7f4e487b7100000000000000000000000000000000000000000000000000000000600052603160045260246000fd5b60006102758261014b565b91507fffffffffffffffffffffffffffffffffffffffffffffffffffffffffffffffff82036102a7576102a66101d8565b5b60018201905091905056fea2646970667358221220e5dba1590c3bacc30fe56980f314dfde00d9783df1b1bf36373ae3175870689d64736f6c63430008110033",
					"opcodes": "PUSH1 0x80 PUSH1 0x40 MSTORE CALLVALUE DUP1 ISZERO PUSH2 0x10 JUMPI PUSH1 0x0 DUP1 REVERT JUMPDEST POP PUSH2 0x2E8 DUP1 PUSH2 0x20 PUSH1 0x0 CODECOPY PUSH1 0x0 RETURN INVALID PUSH1 0x80 PUSH1 0x40 MSTORE CALLVALUE DUP1 ISZERO PUSH2 0x10 JUMPI PUSH1 0x0 DUP1 REVERT JUMPDEST POP PUSH1 0x4 CALLDATASIZE LT PUSH2 0x41 JUMPI PUSH1 0x0 CALLDATALOAD PUSH1 0xE0 SHR DUP1 PUSH4 0x47C93379 EQ PUSH2 0x46 JUMPI DUP1 PUSH4 0x7F1FF4CD EQ PUSH2 0x62 JUMPI DUP1 PUSH4 0xB660242E EQ PUSH2 0x92 JUMPI JUMPDEST PUSH1 0x0 DUP1 REVERT JUMPDEST PUSH2 0x60 PUSH1 0x4 DUP1 CALLDATASIZE SUB DUP2 ADD SWAP1 PUSH2 0x5B SWAP2 SWAP1 PUSH2 0x181 JUMP JUMPDEST PUSH2 0x9C JUMP JUMPDEST STOP JUMPDEST PUSH2 0x7C PUSH1 0x4 DUP1 CALLDATASIZE SUB DUP2 ADD SWAP1 PUSH2 0x77 SWAP2 SWAP1 PUSH2 0x181 JUMP JUMPDEST PUSH2 0xC8 JUMP JUMPDEST PUSH1 0x40 MLOAD PUSH2 0x89 SWAP2 SWAP1 PUSH2 0x1BD JUMP JUMPDEST PUSH1 0x40 MLOAD DUP1 SWAP2 SUB SWAP1 RETURN JUMPDEST PUSH2 0x9A PUSH2 0xEC JUMP JUMPDEST STOP JUMPDEST PUSH1 0x0 DUP2 SWAP1 DUP1 PUSH1 0x1 DUP2 SLOAD ADD DUP1 DUP3 SSTORE DUP1 SWAP2 POP POP PUSH1 0x1 SWAP1 SUB SWAP1 PUSH1 0x0 MSTORE PUSH1 0x20 PUSH1 0x0 KECCAK256 ADD PUSH1 0x0 SWAP1 SWAP2 SWAP1 SWAP2 SWAP1 SWAP2 POP SSTORE POP JUMP JUMPDEST PUSH1 0x0 DUP2 DUP2 SLOAD DUP2 LT PUSH2 0xD8 JUMPI PUSH1 0x0 DUP1 REVERT JUMPDEST SWAP1 PUSH1 0x0 MSTORE PUSH1 0x20 PUSH1 0x0 KECCAK256 ADD PUSH1 0x0 SWAP2 POP SWAP1 POP SLOAD DUP2 JUMP JUMPDEST PUSH1 0x0 JUMPDEST PUSH1 0x1 PUSH1 0x0 DUP1 SLOAD SWAP1 POP PUSH2 0x101 SWAP2 SWAP1 PUSH2 0x207 JUMP JUMPDEST DUP2 LT ISZERO PUSH2 0x143 JUMPI PUSH1 0x0 DUP1 SLOAD DUP1 PUSH2 0x11A JUMPI PUSH2 0x119 PUSH2 0x23B JUMP JUMPDEST JUMPDEST PUSH1 0x1 SWAP1 SUB DUP2 DUP2 SWAP1 PUSH1 0x0 MSTORE PUSH1 0x20 PUSH1 0x0 KECCAK256 ADD PUSH1 0x0 SWAP1 SSTORE SWAP1 SSTORE DUP1 DUP1 PUSH2 0x13B SWAP1 PUSH2 0x26A JUMP JUMPDEST SWAP2 POP POP PUSH2 0xEF JUMP JUMPDEST POP JUMP JUMPDEST PUSH1 0x0 DUP1 REVERT JUMPDEST PUSH1 0x0 DUP2 SWAP1 POP SWAP2 SWAP1 POP JUMP JUMPDEST PUSH2 0x15E DUP2 PUSH2 0x14B JUMP JUMPDEST DUP2 EQ PUSH2 0x169 JUMPI PUSH1 0x0 DUP1 REVERT JUMPDEST POP JUMP JUMPDEST PUSH1 0x0 DUP2 CALLDATALOAD SWAP1 POP PUSH2 0x17B DUP2 PUSH2 0x155 JUMP JUMPDEST SWAP3 SWAP2 POP POP JUMP JUMPDEST PUSH1 0x0 PUSH1 0x20 DUP3 DUP5 SUB SLT ISZERO PUSH2 0x197 JUMPI PUSH2 0x196 PUSH2 0x146 JUMP JUMPDEST JUMPDEST PUSH1 0x0 PUSH2 0x1A5 DUP5 DUP3 DUP6 ADD PUSH2 0x16C JUMP JUMPDEST SWAP2 POP POP SWAP3 SWAP2 POP POP JUMP JUMPDEST PUSH2 0x1B7 DUP2 PUSH2 0x14B JUMP JUMPDEST DUP3 MSTORE POP POP JUMP JUMPDEST PUSH1 0x0 PUSH1 0x20 DUP3 ADD SWAP1 POP PUSH2 0x1D2 PUSH1 0x0 DUP4 ADD DUP5 PUSH2 0x1AE JUMP JUMPDEST SWAP3 SWAP2 POP POP JUMP JUMPDEST PUSH32 0x4E487B7100000000000000000000000000000000000000000000000000000000 PUSH1 0x0 MSTORE PUSH1 0x11 PUSH1 0x4 MSTORE PUSH1 0x24 PUSH1 0x0 REVERT JUMPDEST PUSH1 0x0 PUSH2 0x212 DUP3 PUSH2 0x14B JUMP JUMPDEST SWAP2 POP PUSH2 0x21D DUP4 PUSH2 0x14B JUMP JUMPDEST SWAP3 POP DUP3 DUP3 SUB SWAP1 POP DUP2 DUP2 GT ISZERO PUSH2 0x235 JUMPI PUSH2 0x234 PUSH2 0x1D8 JUMP JUMPDEST JUMPDEST SWAP3 SWAP2 POP POP JUMP JUMPDEST PUSH32 0x4E487B7100000000000000000000000000000000000000000000000000000000 PUSH1 0x0 MSTORE PUSH1 0x31 PUSH1 0x4 MSTORE PUSH1 0x24 PUSH1 0x0 REVERT JUMPDEST PUSH1 0x0 PUSH2 0x275 DUP3 PUSH2 0x14B JUMP JUMPDEST SWAP2 POP PUSH32 0xFFFFFFFFFFFFFFFFFFFFFFFFFFFFFFFFFFFFFFFFFFFFFFFFFFFFFFFFFFFFFFFF DUP3 SUB PUSH2 0x2A7 JUMPI PUSH2 0x2A6 PUSH2 0x1D8 JUMP JUMPDEST JUMPDEST PUSH1 0x1 DUP3 ADD SWAP1 POP SWAP2 SWAP1 POP JUMP INVALID LOG2 PUSH5 0x6970667358 0x22 SLT KECCAK256 0xE5 0xDB LOG1 MSIZE 0xC EXTCODESIZE 0xAC 0xC3 0xF 0xE5 PUSH10 0x80F314DFDE00D9783DF1 0xB1 0xBF CALLDATASIZE CALLDATACOPY GASPRICE 0xE3 OR PC PUSH17 0x689D64736F6C6343000811003300000000 "
				},
				"gasEstimates": {
					"creation": {
						"codeDepositCost": "148800",
						"executionCost": "196",
						"totalCost": "148996"
					},
					"external": {
						"ab(uint256)": "infinite",
						"testpop()": "infinite",
						"testpush(uint256)": "46807"
					}
				},
				"methodIdentifiers": {
					"ab(uint256)": "7f1ff4cd",
					"testpop()": "b660242e",
					"testpush(uint256)": "47c93379"
				}
			},
			"storageLayout": {
				"storage": [
					{
						"astId": 4,
						"contract": "XenFactory/artifacts/test.sol:test",
						"label": "ab",
						"offset": 0,
						"slot": "0",
						"type": "t_array(t_uint256)dyn_storage"
					}
				],
				"types": {
					"t_array(t_uint256)dyn_storage": {
						"base": "t_uint256",
						"encoding": "dynamic_array",
						"label": "uint256[]",
						"numberOfBytes": "32"
					},
					"t_uint256": {
						"encoding": "inplace",
						"label": "uint256",
						"numberOfBytes": "32"
					}
				}
			},
			"userdoc": {
				"kind": "user",
				"methods": {},
				"version": 1
			}
		}
	}
}