{
	"saleIDO/ProSale.sol": {
		"PreSale": {
			"abi": [
				{
					"inputs": [
						{
							"internalType": "uint256",
							"name": "_amount",
							"type": "uint256"
						}
					],
					"stateMutability": "nonpayable",
					"type": "constructor"
				},
				{
					"anonymous": false,
					"inputs": [
						{
							"indexed": true,
							"internalType": "address",
							"name": "previousOwner",
							"type": "address"
						},
						{
							"indexed": true,
							"internalType": "address",
							"name": "newOwner",
							"type": "address"
						}
					],
					"name": "OwnershipTransferred",
					"type": "event"
				},
				{
					"anonymous": false,
					"inputs": [
						{
							"indexed": false,
							"internalType": "address",
							"name": "",
							"type": "address"
						},
						{
							"indexed": false,
							"internalType": "uint256",
							"name": "",
							"type": "uint256"
						}
					],
					"name": "TransEvent",
					"type": "event"
				},
				{
					"stateMutability": "payable",
					"type": "fallback"
				},
				{
					"inputs": [
						{
							"internalType": "uint256",
							"name": "_number",
							"type": "uint256"
						}
					],
					"name": "SaleByEth",
					"outputs": [],
					"stateMutability": "payable",
					"type": "function"
				},
				{
					"inputs": [],
					"name": "getBalanceForContract",
					"outputs": [
						{
							"internalType": "uint256",
							"name": "",
							"type": "uint256"
						}
					],
					"stateMutability": "view",
					"type": "function"
				},
				{
					"inputs": [
						{
							"internalType": "address",
							"name": "_addr",
							"type": "address"
						}
					],
					"name": "getDeposit",
					"outputs": [
						{
							"internalType": "uint256",
							"name": "",
							"type": "uint256"
						}
					],
					"stateMutability": "view",
					"type": "function"
				},
				{
					"inputs": [],
					"name": "getPreSaleAmout",
					"outputs": [
						{
							"internalType": "uint256",
							"name": "",
							"type": "uint256"
						}
					],
					"stateMutability": "view",
					"type": "function"
				},
				{
					"inputs": [],
					"name": "getWhitelist",
					"outputs": [
						{
							"internalType": "address[]",
							"name": "",
							"type": "address[]"
						}
					],
					"stateMutability": "view",
					"type": "function"
				},
				{
					"inputs": [],
					"name": "owner",
					"outputs": [
						{
							"internalType": "address",
							"name": "",
							"type": "address"
						}
					],
					"stateMutability": "view",
					"type": "function"
				},
				{
					"inputs": [],
					"name": "renounceOwnership",
					"outputs": [],
					"stateMutability": "nonpayable",
					"type": "function"
				},
				{
					"inputs": [
						{
							"internalType": "uint256",
							"name": "_amount",
							"type": "uint256"
						}
					],
					"name": "setPreSaleAmout",
					"outputs": [],
					"stateMutability": "nonpayable",
					"type": "function"
				},
				{
					"inputs": [
						{
							"internalType": "address",
							"name": "newOwner",
							"type": "address"
						}
					],
					"name": "transferOwnership",
					"outputs": [],
					"stateMutability": "nonpayable",
					"type": "function"
				},
				{
					"inputs": [
						{
							"internalType": "uint256",
							"name": "_amount",
							"type": "uint256"
						}
					],
					"name": "withdraw",
					"outputs": [],
					"stateMutability": "nonpayable",
					"type": "function"
				},
				{
					"stateMutability": "payable",
					"type": "receive"
				}
			],
			"devdoc": {
				"kind": "dev",
				"methods": {
					"owner()": {
						"details": "Returns the address of the current owner."
					},
					"renounceOwnership()": {
						"details": "Leaves the contract without owner. It will not be possible to call `onlyOwner` functions anymore. Can only be called by the current owner. NOTE: Renouncing ownership will leave the contract without an owner, thereby removing any functionality that is only available to the owner."
					},
					"transferOwnership(address)": {
						"details": "Transfers ownership of the contract to a new account (`newOwner`). Can only be called by the current owner."
					}
				},
				"version": 1
			},
			"evm": {
				"assembly": "    /* \"saleIDO/ProSale.sol\":6967:9721  contract PreSale is Ownable,ReentrancyGuard{\r... */\n  mstore(0x40, 0x80)\n    /* \"saleIDO/ProSale.sol\":7357:7465  constructor(uint256 _amount){\r... */\n  callvalue\n  dup1\n  iszero\n  tag_1\n  jumpi\n  0x00\n  dup1\n  revert\ntag_1:\n  pop\n  mload(0x40)\n  sub(codesize, bytecodeSize)\n  dup1\n  bytecodeSize\n  dup4\n  codecopy\n  dup2\n  dup2\n  add\n  0x40\n  mstore\n  dup2\n  add\n  swap1\n  tag_2\n  swap2\n  swap1\n  tag_3\n  jump\t// in\ntag_2:\n    /* \"saleIDO/ProSale.sol\":5091:5123  _transferOwnership(_msgSender()) */\n  tag_8\n    /* \"saleIDO/ProSale.sol\":5110:5122  _msgSender() */\n  tag_9\n    /* \"saleIDO/ProSale.sol\":5110:5120  _msgSender */\n  shl(0x20, tag_10)\n    /* \"saleIDO/ProSale.sol\":5110:5122  _msgSender() */\n  0x20\n  shr\n  jump\t// in\ntag_9:\n    /* \"saleIDO/ProSale.sol\":5091:5109  _transferOwnership */\n  shl(0x20, tag_11)\n    /* \"saleIDO/ProSale.sol\":5091:5123  _transferOwnership(_msgSender()) */\n  0x20\n  shr\n  jump\t// in\ntag_8:\n    /* \"saleIDO/ProSale.sol\":1785:1786  1 */\n  0x01\n    /* \"saleIDO/ProSale.sol\":1896:1903  _status */\n  dup1\n    /* \"saleIDO/ProSale.sol\":1896:1918  _status = _NOT_ENTERED */\n  dup2\n  swap1\n  sstore\n  pop\n    /* \"saleIDO/ProSale.sol\":7422:7423  0 */\n  0x00\n    /* \"saleIDO/ProSale.sol\":7408:7424  new address[](0) */\n  0xffffffffffffffff\n  dup2\n  gt\n  iszero\n  tag_14\n  jumpi\n  tag_15\n  tag_16\n  jump\t// in\ntag_15:\ntag_14:\n  mload(0x40)\n  swap1\n  dup1\n  dup3\n  mstore\n  dup1\n  0x20\n  mul\n  0x20\n  add\n  dup3\n  add\n  0x40\n  mstore\n  dup1\n  iszero\n  tag_17\n  jumpi\n  dup2\n  0x20\n  add\n  0x20\n  dup3\n  mul\n  dup1\n  calldatasize\n  dup4\n  calldatacopy\n  dup1\n  dup3\n  add\n  swap2\n  pop\n  pop\n  swap1\n  pop\ntag_17:\n  pop\n    /* \"saleIDO/ProSale.sol\":7396:7405  whitelist */\n  0x03\n    /* \"saleIDO/ProSale.sol\":7396:7424  whitelist = new address[](0) */\n  swap1\n  dup1\n  mload\n  swap1\n  0x20\n  add\n  swap1\n  tag_18\n  swap3\n  swap2\n  swap1\n  tag_19\n  jump\t// in\ntag_18:\n  pop\n    /* \"saleIDO/ProSale.sol\":7450:7457  _amount */\n  dup1\n    /* \"saleIDO/ProSale.sol\":7435:7447  preSaleAmout */\n  0x02\n    /* \"saleIDO/ProSale.sol\":7435:7457  preSaleAmout = _amount */\n  dup2\n  swap1\n  sstore\n  pop\n    /* \"saleIDO/ProSale.sol\":7357:7465  constructor(uint256 _amount){\r... */\n  pop\n    /* \"saleIDO/ProSale.sol\":6967:9721  contract PreSale is Ownable,ReentrancyGuard{\r... */\n  jump(tag_20)\n    /* \"saleIDO/ProSale.sol\":3921:4019  function _msgSender() internal view virtual returns (address) {\r... */\ntag_10:\n    /* \"saleIDO/ProSale.sol\":3974:3981  address */\n  0x00\n    /* \"saleIDO/ProSale.sol\":4001:4011  msg.sender */\n  caller\n    /* \"saleIDO/ProSale.sol\":3994:4011  return msg.sender */\n  swap1\n  pop\n    /* \"saleIDO/ProSale.sol\":3921:4019  function _msgSender() internal view virtual returns (address) {\r... */\n  swap1\n  jump\t// out\n    /* \"saleIDO/ProSale.sol\":6637:6828  function _transferOwnership(address newOwner) internal virtual {\r... */\ntag_11:\n    /* \"saleIDO/ProSale.sol\":6711:6727  address oldOwner */\n  0x00\n    /* \"saleIDO/ProSale.sol\":6730:6736  _owner */\n  dup1\n  0x00\n  swap1\n  sload\n  swap1\n  0x0100\n  exp\n  swap1\n  div\n  0xffffffffffffffffffffffffffffffffffffffff\n  and\n    /* \"saleIDO/ProSale.sol\":6711:6736  address oldOwner = _owner */\n  swap1\n  pop\n    /* \"saleIDO/ProSale.sol\":6756:6764  newOwner */\n  dup2\n    /* \"saleIDO/ProSale.sol\":6747:6753  _owner */\n  0x00\n  dup1\n    /* \"saleIDO/ProSale.sol\":6747:6764  _owner = newOwner */\n  0x0100\n  exp\n  dup2\n  sload\n  dup2\n  0xffffffffffffffffffffffffffffffffffffffff\n  mul\n  not\n  and\n  swap1\n  dup4\n  0xffffffffffffffffffffffffffffffffffffffff\n  and\n  mul\n  or\n  swap1\n  sstore\n  pop\n    /* \"saleIDO/ProSale.sol\":6811:6819  newOwner */\n  dup2\n    /* \"saleIDO/ProSale.sol\":6780:6820  OwnershipTransferred(oldOwner, newOwner) */\n  0xffffffffffffffffffffffffffffffffffffffff\n  and\n    /* \"saleIDO/ProSale.sol\":6801:6809  oldOwner */\n  dup2\n    /* \"saleIDO/ProSale.sol\":6780:6820  OwnershipTransferred(oldOwner, newOwner) */\n  0xffffffffffffffffffffffffffffffffffffffff\n  and\n  0x8be0079c531659141344cd1fd0a4f28419497f9722a3daafe3b4186f6b6457e0\n  mload(0x40)\n  mload(0x40)\n  dup1\n  swap2\n  sub\n  swap1\n  log3\n    /* \"saleIDO/ProSale.sol\":6700:6828  {\r... */\n  pop\n    /* \"saleIDO/ProSale.sol\":6637:6828  function _transferOwnership(address newOwner) internal virtual {\r... */\n  pop\n  jump\t// out\n    /* \"saleIDO/ProSale.sol\":6967:9721  contract PreSale is Ownable,ReentrancyGuard{\r... */\ntag_19:\n  dup3\n  dup1\n  sload\n  dup3\n  dup3\n  sstore\n  swap1\n  0x00\n  mstore\n  keccak256(0x00, 0x20)\n  swap1\n  dup2\n  add\n  swap3\n  dup3\n  iszero\n  tag_23\n  jumpi\n  swap2\n  0x20\n  mul\n  dup3\n  add\ntag_24:\n  dup3\n  dup2\n  gt\n  iszero\n  tag_25\n  jumpi\n  dup3\n  mload\n  dup3\n  exp(0x0100, 0x00)\n  dup2\n  sload\n  dup2\n  0xffffffffffffffffffffffffffffffffffffffff\n  mul\n  not\n  and\n  swap1\n  dup4\n  0xffffffffffffffffffffffffffffffffffffffff\n  and\n  mul\n  or\n  swap1\n  sstore\n  pop\n  swap2\n  0x20\n  add\n  swap2\n  swap1\n  0x01\n  add\n  swap1\n  jump(tag_24)\ntag_25:\ntag_23:\n  pop\n  swap1\n  pop\n  tag_26\n  swap2\n  swap1\n  tag_27\n  jump\t// in\ntag_26:\n  pop\n  swap1\n  jump\t// out\ntag_27:\ntag_28:\n  dup1\n  dup3\n  gt\n  iszero\n  tag_29\n  jumpi\n  0x00\n  dup2\n  0x00\n  swap1\n  sstore\n  pop\n  0x01\n  add\n  jump(tag_28)\ntag_29:\n  pop\n  swap1\n  jump\t// out\n    /* \"#utility.yul\":7:150   */\ntag_31:\n    /* \"#utility.yul\":64:69   */\n  0x00\n    /* \"#utility.yul\":95:101   */\n  dup2\n    /* \"#utility.yul\":89:102   */\n  mload\n    /* \"#utility.yul\":80:102   */\n  swap1\n  pop\n    /* \"#utility.yul\":111:144   */\n  tag_33\n    /* \"#utility.yul\":138:143   */\n  dup2\n    /* \"#utility.yul\":111:144   */\n  tag_34\n  jump\t// in\ntag_33:\n    /* \"#utility.yul\":7:150   */\n  swap3\n  swap2\n  pop\n  pop\n  jump\t// out\n    /* \"#utility.yul\":156:507   */\ntag_3:\n    /* \"#utility.yul\":226:232   */\n  0x00\n    /* \"#utility.yul\":275:277   */\n  0x20\n    /* \"#utility.yul\":263:272   */\n  dup3\n    /* \"#utility.yul\":254:261   */\n  dup5\n    /* \"#utility.yul\":250:273   */\n  sub\n    /* \"#utility.yul\":246:278   */\n  slt\n    /* \"#utility.yul\":243:362   */\n  iszero\n  tag_36\n  jumpi\n    /* \"#utility.yul\":281:360   */\n  tag_37\n  tag_38\n  jump\t// in\ntag_37:\n    /* \"#utility.yul\":243:362   */\ntag_36:\n    /* \"#utility.yul\":401:402   */\n  0x00\n    /* \"#utility.yul\":426:490   */\n  tag_39\n    /* \"#utility.yul\":482:489   */\n  dup5\n    /* \"#utility.yul\":473:479   */\n  dup3\n    /* \"#utility.yul\":462:471   */\n  dup6\n    /* \"#utility.yul\":458:480   */\n  add\n    /* \"#utility.yul\":426:490   */\n  tag_31\n  jump\t// in\ntag_39:\n    /* \"#utility.yul\":416:490   */\n  swap2\n  pop\n    /* \"#utility.yul\":372:500   */\n  pop\n    /* \"#utility.yul\":156:507   */\n  swap3\n  swap2\n  pop\n  pop\n  jump\t// out\n    /* \"#utility.yul\":594:671   */\ntag_42:\n    /* \"#utility.yul\":631:638   */\n  0x00\n    /* \"#utility.yul\":660:665   */\n  dup2\n    /* \"#utility.yul\":649:665   */\n  swap1\n  pop\n    /* \"#utility.yul\":594:671   */\n  swap2\n  swap1\n  pop\n  jump\t// out\n    /* \"#utility.yul\":677:857   */\ntag_16:\n    /* \"#utility.yul\":725:802   */\n  0x4e487b7100000000000000000000000000000000000000000000000000000000\n    /* \"#utility.yul\":722:723   */\n  0x00\n    /* \"#utility.yul\":715:803   */\n  mstore\n    /* \"#utility.yul\":822:826   */\n  0x41\n    /* \"#utility.yul\":819:820   */\n  0x04\n    /* \"#utility.yul\":812:827   */\n  mstore\n    /* \"#utility.yul\":846:850   */\n  0x24\n    /* \"#utility.yul\":843:844   */\n  0x00\n    /* \"#utility.yul\":836:851   */\n  revert\n    /* \"#utility.yul\":986:1103   */\ntag_38:\n    /* \"#utility.yul\":1095:1096   */\n  0x00\n    /* \"#utility.yul\":1092:1093   */\n  dup1\n    /* \"#utility.yul\":1085:1097   */\n  revert\n    /* \"#utility.yul\":1109:1231   */\ntag_34:\n    /* \"#utility.yul\":1182:1206   */\n  tag_49\n    /* \"#utility.yul\":1200:1205   */\n  dup2\n    /* \"#utility.yul\":1182:1206   */\n  tag_42\n  jump\t// in\ntag_49:\n    /* \"#utility.yul\":1175:1180   */\n  dup2\n    /* \"#utility.yul\":1172:1207   */\n  eq\n    /* \"#utility.yul\":1162:1225   */\n  tag_50\n  jumpi\n    /* \"#utility.yul\":1221:1222   */\n  0x00\n    /* \"#utility.yul\":1218:1219   */\n  dup1\n    /* \"#utility.yul\":1211:1223   */\n  revert\n    /* \"#utility.yul\":1162:1225   */\ntag_50:\n    /* \"#utility.yul\":1109:1231   */\n  pop\n  jump\t// out\n    /* \"saleIDO/ProSale.sol\":6967:9721  contract PreSale is Ownable,ReentrancyGuard{\r... */\ntag_20:\n  dataSize(sub_0)\n  dup1\n  dataOffset(sub_0)\n  0x00\n  codecopy\n  0x00\n  return\nstop\n\nsub_0: assembly {\n        /* \"saleIDO/ProSale.sol\":6967:9721  contract PreSale is Ownable,ReentrancyGuard{\r... */\n      mstore(0x40, 0x80)\n      jumpi(tag_1, lt(calldatasize, 0x04))\n      shr(0xe0, calldataload(0x00))\n      dup1\n      0xd01f63f5\n      gt\n      tag_13\n      jumpi\n      dup1\n      0xd01f63f5\n      eq\n      tag_8\n      jumpi\n      dup1\n      0xd36df5a6\n      eq\n      tag_9\n      jumpi\n      dup1\n      0xe1254fba\n      eq\n      tag_10\n      jumpi\n      dup1\n      0xe680241f\n      eq\n      tag_11\n      jumpi\n      dup1\n      0xf2fde38b\n      eq\n      tag_12\n      jumpi\n      jump(tag_2)\n    tag_13:\n      dup1\n      0x2e1a7d4d\n      eq\n      tag_3\n      jumpi\n      dup1\n      0x5fb98107\n      eq\n      tag_4\n      jumpi\n      dup1\n      0x715018a6\n      eq\n      tag_5\n      jumpi\n      dup1\n      0x8ac6b7ba\n      eq\n      tag_6\n      jumpi\n      dup1\n      0x8da5cb5b\n      eq\n      tag_7\n      jumpi\n      jump(tag_2)\n    tag_1:\n      jumpi(tag_2, calldatasize)\n      stop\n    tag_2:\n      stop\n        /* \"saleIDO/ProSale.sol\":8696:8935  function withdraw(uint256 _amount) public onlyOwner  {\r... */\n    tag_3:\n      callvalue\n      dup1\n      iszero\n      tag_18\n      jumpi\n      0x00\n      dup1\n      revert\n    tag_18:\n      pop\n      tag_19\n      0x04\n      dup1\n      calldatasize\n      sub\n      dup2\n      add\n      swap1\n      tag_20\n      swap2\n      swap1\n      tag_21\n      jump\t// in\n    tag_20:\n      tag_22\n      jump\t// in\n    tag_19:\n      stop\n        /* \"saleIDO/ProSale.sol\":9402:9511  function getBalanceForContract() public view returns(uint256) {\r... */\n    tag_4:\n      callvalue\n      dup1\n      iszero\n      tag_23\n      jumpi\n      0x00\n      dup1\n      revert\n    tag_23:\n      pop\n      tag_24\n      tag_25\n      jump\t// in\n    tag_24:\n      mload(0x40)\n      tag_26\n      swap2\n      swap1\n      tag_27\n      jump\t// in\n    tag_26:\n      mload(0x40)\n      dup1\n      swap2\n      sub\n      swap1\n      return\n        /* \"saleIDO/ProSale.sol\":6018:6121  function renounceOwnership() public virtual onlyOwner {\r... */\n    tag_5:\n      callvalue\n      dup1\n      iszero\n      tag_28\n      jumpi\n      0x00\n      dup1\n      revert\n    tag_28:\n      pop\n      tag_29\n      tag_30\n      jump\t// in\n    tag_29:\n      stop\n        /* \"saleIDO/ProSale.sol\":7523:8501  function SaleByEth(uint256 _number) public payable nonReentrant {\r... */\n    tag_6:\n      tag_31\n      0x04\n      dup1\n      calldatasize\n      sub\n      dup2\n      add\n      swap1\n      tag_32\n      swap2\n      swap1\n      tag_21\n      jump\t// in\n    tag_32:\n      tag_33\n      jump\t// in\n    tag_31:\n      stop\n        /* \"saleIDO/ProSale.sol\":5370:5457  function owner() public view virtual returns (address) {\r... */\n    tag_7:\n      callvalue\n      dup1\n      iszero\n      tag_34\n      jumpi\n      0x00\n      dup1\n      revert\n    tag_34:\n      pop\n      tag_35\n      tag_36\n      jump\t// in\n    tag_35:\n      mload(0x40)\n      tag_37\n      swap2\n      swap1\n      tag_38\n      jump\t// in\n    tag_37:\n      mload(0x40)\n      dup1\n      swap2\n      sub\n      swap1\n      return\n        /* \"saleIDO/ProSale.sol\":9546:9645  function getWhitelist() public view  returns (address[] memory) {\r... */\n    tag_8:\n      callvalue\n      dup1\n      iszero\n      tag_39\n      jumpi\n      0x00\n      dup1\n      revert\n    tag_39:\n      pop\n      tag_40\n      tag_41\n      jump\t// in\n    tag_40:\n      mload(0x40)\n      tag_42\n      swap2\n      swap1\n      tag_43\n      jump\t// in\n    tag_42:\n      mload(0x40)\n      dup1\n      swap2\n      sub\n      swap1\n      return\n        /* \"saleIDO/ProSale.sol\":8976:9072  function getPreSaleAmout() public view  returns (uint256) {\r... */\n    tag_9:\n      callvalue\n      dup1\n      iszero\n      tag_44\n      jumpi\n      0x00\n      dup1\n      revert\n    tag_44:\n      pop\n      tag_45\n      tag_46\n      jump\t// in\n    tag_45:\n      mload(0x40)\n      tag_47\n      swap2\n      swap1\n      tag_27\n      jump\t// in\n    tag_47:\n      mload(0x40)\n      dup1\n      swap2\n      sub\n      swap1\n      return\n        /* \"saleIDO/ProSale.sol\":8539:8665  function getDeposit(address _addr) public  view  returns (uint256) {\r... */\n    tag_10:\n      callvalue\n      dup1\n      iszero\n      tag_48\n      jumpi\n      0x00\n      dup1\n      revert\n    tag_48:\n      pop\n      tag_49\n      0x04\n      dup1\n      calldatasize\n      sub\n      dup2\n      add\n      swap1\n      tag_50\n      swap2\n      swap1\n      tag_51\n      jump\t// in\n    tag_50:\n      tag_52\n      jump\t// in\n    tag_49:\n      mload(0x40)\n      tag_53\n      swap2\n      swap1\n      tag_27\n      jump\t// in\n    tag_53:\n      mload(0x40)\n      dup1\n      swap2\n      sub\n      swap1\n      return\n        /* \"saleIDO/ProSale.sol\":9110:9210  function setPreSaleAmout(uint256 _amount) onlyOwner public {\r... */\n    tag_11:\n      callvalue\n      dup1\n      iszero\n      tag_54\n      jumpi\n      0x00\n      dup1\n      revert\n    tag_54:\n      pop\n      tag_55\n      0x04\n      dup1\n      calldatasize\n      sub\n      dup2\n      add\n      swap1\n      tag_56\n      swap2\n      swap1\n      tag_21\n      jump\t// in\n    tag_56:\n      tag_57\n      jump\t// in\n    tag_55:\n      stop\n        /* \"saleIDO/ProSale.sol\":6276:6477  function transferOwnership(address newOwner) public virtual onlyOwner {\r... */\n    tag_12:\n      callvalue\n      dup1\n      iszero\n      tag_58\n      jumpi\n      0x00\n      dup1\n      revert\n    tag_58:\n      pop\n      tag_59\n      0x04\n      dup1\n      calldatasize\n      sub\n      dup2\n      add\n      swap1\n      tag_60\n      swap2\n      swap1\n      tag_51\n      jump\t// in\n    tag_60:\n      tag_61\n      jump\t// in\n    tag_59:\n      stop\n        /* \"saleIDO/ProSale.sol\":8696:8935  function withdraw(uint256 _amount) public onlyOwner  {\r... */\n    tag_22:\n        /* \"saleIDO/ProSale.sol\":5256:5269  _checkOwner() */\n      tag_63\n        /* \"saleIDO/ProSale.sol\":5256:5267  _checkOwner */\n      tag_64\n        /* \"saleIDO/ProSale.sol\":5256:5269  _checkOwner() */\n      jump\t// in\n    tag_63:\n        /* \"saleIDO/ProSale.sol\":8761:8777  bool callSuccess */\n      0x00\n        /* \"saleIDO/ProSale.sol\":8791:8801  msg.sender */\n      caller\n        /* \"saleIDO/ProSale.sol\":8783:8807  payable(msg.sender).call */\n      0xffffffffffffffffffffffffffffffffffffffff\n      and\n        /* \"saleIDO/ProSale.sol\":8815:8822  _amount */\n      dup3\n        /* \"saleIDO/ProSale.sol\":8783:8827  payable(msg.sender).call{value: _amount}(\"\") */\n      mload(0x40)\n      tag_66\n      swap1\n      tag_67\n      jump\t// in\n    tag_66:\n      0x00\n      mload(0x40)\n      dup1\n      dup4\n      sub\n      dup2\n      dup6\n      dup8\n      gas\n      call\n      swap3\n      pop\n      pop\n      pop\n      returndatasize\n      dup1\n      0x00\n      dup2\n      eq\n      tag_70\n      jumpi\n      mload(0x40)\n      swap2\n      pop\n      and(add(returndatasize, 0x3f), not(0x1f))\n      dup3\n      add\n      0x40\n      mstore\n      returndatasize\n      dup3\n      mstore\n      returndatasize\n      0x00\n      0x20\n      dup5\n      add\n      returndatacopy\n      jump(tag_69)\n    tag_70:\n      0x60\n      swap2\n      pop\n    tag_69:\n      pop\n        /* \"saleIDO/ProSale.sol\":8760:8827  (bool callSuccess, ) = payable(msg.sender).call{value: _amount}(\"\") */\n      pop\n      swap1\n      pop\n        /* \"saleIDO/ProSale.sol\":8846:8857  callSuccess */\n      dup1\n        /* \"saleIDO/ProSale.sol\":8838:8877  require(callSuccess, \"withdraw failed\") */\n      tag_71\n      jumpi\n      mload(0x40)\n      0x08c379a000000000000000000000000000000000000000000000000000000000\n      dup2\n      mstore\n      0x04\n      add\n      tag_72\n      swap1\n      tag_73\n      jump\t// in\n    tag_72:\n      mload(0x40)\n      dup1\n      swap2\n      sub\n      swap1\n      revert\n    tag_71:\n        /* \"saleIDO/ProSale.sol\":8894:8927  TransEvent(address(this),_amount) */\n      0x5e3e3ac48142223910fa7d0c0fb4e15e6aac9c9cbc7a8dc20aa5dc9227d28683\n        /* \"saleIDO/ProSale.sol\":8913:8917  this */\n      address\n        /* \"saleIDO/ProSale.sol\":8919:8926  _amount */\n      dup4\n        /* \"saleIDO/ProSale.sol\":8894:8927  TransEvent(address(this),_amount) */\n      mload(0x40)\n      tag_74\n      swap3\n      swap2\n      swap1\n      tag_75\n      jump\t// in\n    tag_74:\n      mload(0x40)\n      dup1\n      swap2\n      sub\n      swap1\n      log1\n        /* \"saleIDO/ProSale.sol\":8749:8935  {\r... */\n      pop\n        /* \"saleIDO/ProSale.sol\":8696:8935  function withdraw(uint256 _amount) public onlyOwner  {\r... */\n      pop\n      jump\t// out\n        /* \"saleIDO/ProSale.sol\":9402:9511  function getBalanceForContract() public view returns(uint256) {\r... */\n    tag_25:\n        /* \"saleIDO/ProSale.sol\":9455:9462  uint256 */\n      0x00\n        /* \"saleIDO/ProSale.sol\":9482:9503  address(this).balance */\n      selfbalance\n        /* \"saleIDO/ProSale.sol\":9475:9503  return address(this).balance */\n      swap1\n      pop\n        /* \"saleIDO/ProSale.sol\":9402:9511  function getBalanceForContract() public view returns(uint256) {\r... */\n      swap1\n      jump\t// out\n        /* \"saleIDO/ProSale.sol\":6018:6121  function renounceOwnership() public virtual onlyOwner {\r... */\n    tag_30:\n        /* \"saleIDO/ProSale.sol\":5256:5269  _checkOwner() */\n      tag_78\n        /* \"saleIDO/ProSale.sol\":5256:5267  _checkOwner */\n      tag_64\n        /* \"saleIDO/ProSale.sol\":5256:5269  _checkOwner() */\n      jump\t// in\n    tag_78:\n        /* \"saleIDO/ProSale.sol\":6083:6113  _transferOwnership(address(0)) */\n      tag_80\n        /* \"saleIDO/ProSale.sol\":6110:6111  0 */\n      0x00\n        /* \"saleIDO/ProSale.sol\":6083:6101  _transferOwnership */\n      tag_81\n        /* \"saleIDO/ProSale.sol\":6083:6113  _transferOwnership(address(0)) */\n      jump\t// in\n    tag_80:\n        /* \"saleIDO/ProSale.sol\":6018:6121  function renounceOwnership() public virtual onlyOwner {\r... */\n      jump\t// out\n        /* \"saleIDO/ProSale.sol\":7523:8501  function SaleByEth(uint256 _number) public payable nonReentrant {\r... */\n    tag_33:\n        /* \"saleIDO/ProSale.sol\":2347:2368  _nonReentrantBefore() */\n      tag_83\n        /* \"saleIDO/ProSale.sol\":2347:2366  _nonReentrantBefore */\n      tag_84\n        /* \"saleIDO/ProSale.sol\":2347:2368  _nonReentrantBefore() */\n      jump\t// in\n    tag_83:\n        /* \"saleIDO/ProSale.sol\":7637:7644  _number */\n      dup1\n        /* \"saleIDO/ProSale.sol\":7619:7636  getPreSaleAmout() */\n      tag_86\n        /* \"saleIDO/ProSale.sol\":7619:7634  getPreSaleAmout */\n      tag_46\n        /* \"saleIDO/ProSale.sol\":7619:7636  getPreSaleAmout() */\n      jump\t// in\n    tag_86:\n        /* \"saleIDO/ProSale.sol\":7619:7644  getPreSaleAmout()*_number */\n      tag_87\n      swap2\n      swap1\n      tag_88\n      jump\t// in\n    tag_87:\n        /* \"saleIDO/ProSale.sol\":7606:7615  msg.value */\n      callvalue\n        /* \"saleIDO/ProSale.sol\":7606:7644  msg.value >= getPreSaleAmout()*_number */\n      lt\n      iszero\n        /* \"saleIDO/ProSale.sol\":7598:7680  require(msg.value >= getPreSaleAmout()*_number,\"transfer amount must be positive\") */\n      tag_89\n      jumpi\n      mload(0x40)\n      0x08c379a000000000000000000000000000000000000000000000000000000000\n      dup2\n      mstore\n      0x04\n      add\n      tag_90\n      swap1\n      tag_91\n      jump\t// in\n    tag_90:\n      mload(0x40)\n      dup1\n      swap2\n      sub\n      swap1\n      revert\n    tag_89:\n        /* \"saleIDO/ProSale.sol\":7739:7746  _number */\n      dup1\n        /* \"saleIDO/ProSale.sol\":7721:7738  getPreSaleAmout() */\n      tag_92\n        /* \"saleIDO/ProSale.sol\":7721:7736  getPreSaleAmout */\n      tag_46\n        /* \"saleIDO/ProSale.sol\":7721:7738  getPreSaleAmout() */\n      jump\t// in\n    tag_92:\n        /* \"saleIDO/ProSale.sol\":7721:7746  getPreSaleAmout()*_number */\n      tag_93\n      swap2\n      swap1\n      tag_88\n      jump\t// in\n    tag_93:\n        /* \"saleIDO/ProSale.sol\":7699:7709  msg.sender */\n      caller\n        /* \"saleIDO/ProSale.sol\":7699:7717  msg.sender.balance */\n      0xffffffffffffffffffffffffffffffffffffffff\n      and\n      balance\n        /* \"saleIDO/ProSale.sol\":7699:7746  msg.sender.balance >= getPreSaleAmout()*_number */\n      lt\n      iszero\n        /* \"saleIDO/ProSale.sol\":7691:7777  require(msg.sender.balance >= getPreSaleAmout()*_number,\"Must have sufficient amount\") */\n      tag_94\n      jumpi\n      mload(0x40)\n      0x08c379a000000000000000000000000000000000000000000000000000000000\n      dup2\n      mstore\n      0x04\n      add\n      tag_95\n      swap1\n      tag_96\n      jump\t// in\n    tag_95:\n      mload(0x40)\n      dup1\n      swap2\n      sub\n      swap1\n      revert\n    tag_94:\n        /* \"saleIDO/ProSale.sol\":7796:7816  preSaleMessByAddress */\n      0x04\n        /* \"saleIDO/ProSale.sol\":7796:7828  preSaleMessByAddress[msg.sender] */\n      0x00\n        /* \"saleIDO/ProSale.sol\":7817:7827  msg.sender */\n      caller\n        /* \"saleIDO/ProSale.sol\":7796:7828  preSaleMessByAddress[msg.sender] */\n      0xffffffffffffffffffffffffffffffffffffffff\n      and\n      0xffffffffffffffffffffffffffffffffffffffff\n      and\n      dup2\n      mstore\n      0x20\n      add\n      swap1\n      dup2\n      mstore\n      0x20\n      add\n      0x00\n      keccak256\n        /* \"saleIDO/ProSale.sol\":7796:7834  preSaleMessByAddress[msg.sender].isLeg */\n      0x00\n      add\n      0x00\n      swap1\n      sload\n      swap1\n      0x0100\n      exp\n      swap1\n      div\n      0xff\n      and\n        /* \"saleIDO/ProSale.sol\":7796:7924  preSaleMessByAddress[msg.sender].isLeg||preSaleMessByAddress[msg.sender].money==0&&preSaleMessByAddress[msg.sender].isLeg==false */\n      dup1\n      tag_97\n      jumpi\n      pop\n        /* \"saleIDO/ProSale.sol\":7876:7877  0 */\n      0x00\n        /* \"saleIDO/ProSale.sol\":7836:7856  preSaleMessByAddress */\n      0x04\n        /* \"saleIDO/ProSale.sol\":7836:7868  preSaleMessByAddress[msg.sender] */\n      0x00\n        /* \"saleIDO/ProSale.sol\":7857:7867  msg.sender */\n      caller\n        /* \"saleIDO/ProSale.sol\":7836:7868  preSaleMessByAddress[msg.sender] */\n      0xffffffffffffffffffffffffffffffffffffffff\n      and\n      0xffffffffffffffffffffffffffffffffffffffff\n      and\n      dup2\n      mstore\n      0x20\n      add\n      swap1\n      dup2\n      mstore\n      0x20\n      add\n      0x00\n      keccak256\n        /* \"saleIDO/ProSale.sol\":7836:7874  preSaleMessByAddress[msg.sender].money */\n      0x01\n      add\n      sload\n        /* \"saleIDO/ProSale.sol\":7836:7877  preSaleMessByAddress[msg.sender].money==0 */\n      eq\n        /* \"saleIDO/ProSale.sol\":7836:7924  preSaleMessByAddress[msg.sender].money==0&&preSaleMessByAddress[msg.sender].isLeg==false */\n      dup1\n      iszero\n      tag_98\n      jumpi\n      pop\n        /* \"saleIDO/ProSale.sol\":7919:7924  false */\n      0x00\n        /* \"saleIDO/ProSale.sol\":7879:7924  preSaleMessByAddress[msg.sender].isLeg==false */\n      iszero\n      iszero\n        /* \"saleIDO/ProSale.sol\":7879:7899  preSaleMessByAddress */\n      0x04\n        /* \"saleIDO/ProSale.sol\":7879:7911  preSaleMessByAddress[msg.sender] */\n      0x00\n        /* \"saleIDO/ProSale.sol\":7900:7910  msg.sender */\n      caller\n        /* \"saleIDO/ProSale.sol\":7879:7911  preSaleMessByAddress[msg.sender] */\n      0xffffffffffffffffffffffffffffffffffffffff\n      and\n      0xffffffffffffffffffffffffffffffffffffffff\n      and\n      dup2\n      mstore\n      0x20\n      add\n      swap1\n      dup2\n      mstore\n      0x20\n      add\n      0x00\n      keccak256\n        /* \"saleIDO/ProSale.sol\":7879:7917  preSaleMessByAddress[msg.sender].isLeg */\n      0x00\n      add\n      0x00\n      swap1\n      sload\n      swap1\n      0x0100\n      exp\n      swap1\n      div\n      0xff\n      and\n        /* \"saleIDO/ProSale.sol\":7879:7924  preSaleMessByAddress[msg.sender].isLeg==false */\n      iszero\n      iszero\n      eq\n        /* \"saleIDO/ProSale.sol\":7836:7924  preSaleMessByAddress[msg.sender].money==0&&preSaleMessByAddress[msg.sender].isLeg==false */\n    tag_98:\n        /* \"saleIDO/ProSale.sol\":7796:7924  preSaleMessByAddress[msg.sender].isLeg||preSaleMessByAddress[msg.sender].money==0&&preSaleMessByAddress[msg.sender].isLeg==false */\n    tag_97:\n        /* \"saleIDO/ProSale.sol\":7788:7942  require(preSaleMessByAddress[msg.sender].isLeg||preSaleMessByAddress[msg.sender].money==0&&preSaleMessByAddress[msg.sender].isLeg==false,\"Illegal status\") */\n      tag_99\n      jumpi\n      mload(0x40)\n      0x08c379a000000000000000000000000000000000000000000000000000000000\n      dup2\n      mstore\n      0x04\n      add\n      tag_100\n      swap1\n      tag_101\n      jump\t// in\n    tag_100:\n      mload(0x40)\n      dup1\n      swap2\n      sub\n      swap1\n      revert\n    tag_99:\n        /* \"saleIDO/ProSale.sol\":8079:8080  0 */\n      0x00\n        /* \"saleIDO/ProSale.sol\":8039:8059  preSaleMessByAddress */\n      0x04\n        /* \"saleIDO/ProSale.sol\":8039:8071  preSaleMessByAddress[msg.sender] */\n      0x00\n        /* \"saleIDO/ProSale.sol\":8060:8070  msg.sender */\n      caller\n        /* \"saleIDO/ProSale.sol\":8039:8071  preSaleMessByAddress[msg.sender] */\n      0xffffffffffffffffffffffffffffffffffffffff\n      and\n      0xffffffffffffffffffffffffffffffffffffffff\n      and\n      dup2\n      mstore\n      0x20\n      add\n      swap1\n      dup2\n      mstore\n      0x20\n      add\n      0x00\n      keccak256\n        /* \"saleIDO/ProSale.sol\":8039:8077  preSaleMessByAddress[msg.sender].money */\n      0x01\n      add\n      sload\n        /* \"saleIDO/ProSale.sol\":8039:8080  preSaleMessByAddress[msg.sender].money==0 */\n      eq\n        /* \"saleIDO/ProSale.sol\":8039:8127  preSaleMessByAddress[msg.sender].money==0&&preSaleMessByAddress[msg.sender].isLeg==false */\n      dup1\n      iszero\n      tag_102\n      jumpi\n      pop\n        /* \"saleIDO/ProSale.sol\":8122:8127  false */\n      0x00\n        /* \"saleIDO/ProSale.sol\":8082:8127  preSaleMessByAddress[msg.sender].isLeg==false */\n      iszero\n      iszero\n        /* \"saleIDO/ProSale.sol\":8082:8102  preSaleMessByAddress */\n      0x04\n        /* \"saleIDO/ProSale.sol\":8082:8114  preSaleMessByAddress[msg.sender] */\n      0x00\n        /* \"saleIDO/ProSale.sol\":8103:8113  msg.sender */\n      caller\n        /* \"saleIDO/ProSale.sol\":8082:8114  preSaleMessByAddress[msg.sender] */\n      0xffffffffffffffffffffffffffffffffffffffff\n      and\n      0xffffffffffffffffffffffffffffffffffffffff\n      and\n      dup2\n      mstore\n      0x20\n      add\n      swap1\n      dup2\n      mstore\n      0x20\n      add\n      0x00\n      keccak256\n        /* \"saleIDO/ProSale.sol\":8082:8120  preSaleMessByAddress[msg.sender].isLeg */\n      0x00\n      add\n      0x00\n      swap1\n      sload\n      swap1\n      0x0100\n      exp\n      swap1\n      div\n      0xff\n      and\n        /* \"saleIDO/ProSale.sol\":8082:8127  preSaleMessByAddress[msg.sender].isLeg==false */\n      iszero\n      iszero\n      eq\n        /* \"saleIDO/ProSale.sol\":8039:8127  preSaleMessByAddress[msg.sender].money==0&&preSaleMessByAddress[msg.sender].isLeg==false */\n    tag_102:\n        /* \"saleIDO/ProSale.sol\":8035:8225  if (preSaleMessByAddress[msg.sender].money==0&&preSaleMessByAddress[msg.sender].isLeg==false){\r... */\n      iszero\n      tag_103\n      jumpi\n        /* \"saleIDO/ProSale.sol\":8188:8213  _addWhitelist(msg.sender) */\n      tag_104\n        /* \"saleIDO/ProSale.sol\":8202:8212  msg.sender */\n      caller\n        /* \"saleIDO/ProSale.sol\":8188:8201  _addWhitelist */\n      tag_105\n        /* \"saleIDO/ProSale.sol\":8188:8213  _addWhitelist(msg.sender) */\n      jump\t// in\n    tag_104:\n        /* \"saleIDO/ProSale.sol\":8035:8225  if (preSaleMessByAddress[msg.sender].money==0&&preSaleMessByAddress[msg.sender].isLeg==false){\r... */\n    tag_103:\n        /* \"saleIDO/ProSale.sol\":8293:8300  _number */\n      dup1\n        /* \"saleIDO/ProSale.sol\":8275:8292  getPreSaleAmout() */\n      tag_106\n        /* \"saleIDO/ProSale.sol\":8275:8290  getPreSaleAmout */\n      tag_46\n        /* \"saleIDO/ProSale.sol\":8275:8292  getPreSaleAmout() */\n      jump\t// in\n    tag_106:\n        /* \"saleIDO/ProSale.sol\":8275:8300  getPreSaleAmout()*_number */\n      tag_107\n      swap2\n      swap1\n      tag_88\n      jump\t// in\n    tag_107:\n        /* \"saleIDO/ProSale.sol\":8235:8255  preSaleMessByAddress */\n      0x04\n        /* \"saleIDO/ProSale.sol\":8235:8267  preSaleMessByAddress[msg.sender] */\n      0x00\n        /* \"saleIDO/ProSale.sol\":8256:8266  msg.sender */\n      caller\n        /* \"saleIDO/ProSale.sol\":8235:8267  preSaleMessByAddress[msg.sender] */\n      0xffffffffffffffffffffffffffffffffffffffff\n      and\n      0xffffffffffffffffffffffffffffffffffffffff\n      and\n      dup2\n      mstore\n      0x20\n      add\n      swap1\n      dup2\n      mstore\n      0x20\n      add\n      0x00\n      keccak256\n        /* \"saleIDO/ProSale.sol\":8235:8273  preSaleMessByAddress[msg.sender].money */\n      0x01\n      add\n      0x00\n        /* \"saleIDO/ProSale.sol\":8235:8300  preSaleMessByAddress[msg.sender].money+=getPreSaleAmout()*_number */\n      dup3\n      dup3\n      sload\n      tag_108\n      swap2\n      swap1\n      tag_109\n      jump\t// in\n    tag_108:\n      swap3\n      pop\n      pop\n      dup2\n      swap1\n      sstore\n      pop\n        /* \"saleIDO/ProSale.sol\":8312:8328  bool callSuccess */\n      0x00\n        /* \"saleIDO/ProSale.sol\":8350:8354  this */\n      address\n        /* \"saleIDO/ProSale.sol\":8334:8361  payable(address(this)).call */\n      0xffffffffffffffffffffffffffffffffffffffff\n      and\n        /* \"saleIDO/ProSale.sol\":8369:8378  msg.value */\n      callvalue\n        /* \"saleIDO/ProSale.sol\":8334:8383  payable(address(this)).call{value: msg.value}(\"\") */\n      mload(0x40)\n      tag_110\n      swap1\n      tag_67\n      jump\t// in\n    tag_110:\n      0x00\n      mload(0x40)\n      dup1\n      dup4\n      sub\n      dup2\n      dup6\n      dup8\n      gas\n      call\n      swap3\n      pop\n      pop\n      pop\n      returndatasize\n      dup1\n      0x00\n      dup2\n      eq\n      tag_113\n      jumpi\n      mload(0x40)\n      swap2\n      pop\n      and(add(returndatasize, 0x3f), not(0x1f))\n      dup3\n      add\n      0x40\n      mstore\n      returndatasize\n      dup3\n      mstore\n      returndatasize\n      0x00\n      0x20\n      dup5\n      add\n      returndatacopy\n      jump(tag_112)\n    tag_113:\n      0x60\n      swap2\n      pop\n    tag_112:\n      pop\n        /* \"saleIDO/ProSale.sol\":8311:8383  (bool callSuccess, ) = payable(address(this)).call{value: msg.value}(\"\") */\n      pop\n      swap1\n      pop\n        /* \"saleIDO/ProSale.sol\":8402:8413  callSuccess */\n      dup1\n        /* \"saleIDO/ProSale.sol\":8394:8445  require(callSuccess, \"transfer to contract failed\") */\n      tag_114\n      jumpi\n      mload(0x40)\n      0x08c379a000000000000000000000000000000000000000000000000000000000\n      dup2\n      mstore\n      0x04\n      add\n      tag_115\n      swap1\n      tag_116\n      jump\t// in\n    tag_115:\n      mload(0x40)\n      dup1\n      swap2\n      sub\n      swap1\n      revert\n    tag_114:\n        /* \"saleIDO/ProSale.sol\":8461:8493  TransEvent(msg.sender,msg.value) */\n      0x5e3e3ac48142223910fa7d0c0fb4e15e6aac9c9cbc7a8dc20aa5dc9227d28683\n        /* \"saleIDO/ProSale.sol\":8472:8482  msg.sender */\n      caller\n        /* \"saleIDO/ProSale.sol\":8483:8492  msg.value */\n      callvalue\n        /* \"saleIDO/ProSale.sol\":8461:8493  TransEvent(msg.sender,msg.value) */\n      mload(0x40)\n      tag_117\n      swap3\n      swap2\n      swap1\n      tag_75\n      jump\t// in\n    tag_117:\n      mload(0x40)\n      dup1\n      swap2\n      sub\n      swap1\n      log1\n        /* \"saleIDO/ProSale.sol\":7587:8501  {\r... */\n      pop\n        /* \"saleIDO/ProSale.sol\":2391:2411  _nonReentrantAfter() */\n      tag_118\n        /* \"saleIDO/ProSale.sol\":2391:2409  _nonReentrantAfter */\n      tag_119\n        /* \"saleIDO/ProSale.sol\":2391:2411  _nonReentrantAfter() */\n      jump\t// in\n    tag_118:\n        /* \"saleIDO/ProSale.sol\":7523:8501  function SaleByEth(uint256 _number) public payable nonReentrant {\r... */\n      pop\n      jump\t// out\n        /* \"saleIDO/ProSale.sol\":5370:5457  function owner() public view virtual returns (address) {\r... */\n    tag_36:\n        /* \"saleIDO/ProSale.sol\":5416:5423  address */\n      0x00\n        /* \"saleIDO/ProSale.sol\":5443:5449  _owner */\n      dup1\n      0x00\n      swap1\n      sload\n      swap1\n      0x0100\n      exp\n      swap1\n      div\n      0xffffffffffffffffffffffffffffffffffffffff\n      and\n        /* \"saleIDO/ProSale.sol\":5436:5449  return _owner */\n      swap1\n      pop\n        /* \"saleIDO/ProSale.sol\":5370:5457  function owner() public view virtual returns (address) {\r... */\n      swap1\n      jump\t// out\n        /* \"saleIDO/ProSale.sol\":9546:9645  function getWhitelist() public view  returns (address[] memory) {\r... */\n    tag_41:\n        /* \"saleIDO/ProSale.sol\":9592:9608  address[] memory */\n      0x60\n        /* \"saleIDO/ProSale.sol\":9628:9637  whitelist */\n      0x03\n        /* \"saleIDO/ProSale.sol\":9621:9637  return whitelist */\n      dup1\n      sload\n      dup1\n      0x20\n      mul\n      0x20\n      add\n      mload(0x40)\n      swap1\n      dup2\n      add\n      0x40\n      mstore\n      dup1\n      swap3\n      swap2\n      swap1\n      dup2\n      dup2\n      mstore\n      0x20\n      add\n      dup3\n      dup1\n      sload\n      dup1\n      iszero\n      tag_122\n      jumpi\n      0x20\n      mul\n      dup3\n      add\n      swap2\n      swap1\n      0x00\n      mstore\n      keccak256(0x00, 0x20)\n      swap1\n    tag_123:\n      dup2\n      0x00\n      swap1\n      sload\n      swap1\n      0x0100\n      exp\n      swap1\n      div\n      0xffffffffffffffffffffffffffffffffffffffff\n      and\n      0xffffffffffffffffffffffffffffffffffffffff\n      and\n      dup2\n      mstore\n      0x20\n      add\n      swap1\n      0x01\n      add\n      swap1\n      dup1\n      dup4\n      gt\n      tag_123\n      jumpi\n    tag_122:\n      pop\n      pop\n      pop\n      pop\n      pop\n      swap1\n      pop\n        /* \"saleIDO/ProSale.sol\":9546:9645  function getWhitelist() public view  returns (address[] memory) {\r... */\n      swap1\n      jump\t// out\n        /* \"saleIDO/ProSale.sol\":8976:9072  function getPreSaleAmout() public view  returns (uint256) {\r... */\n    tag_46:\n        /* \"saleIDO/ProSale.sol\":9025:9032  uint256 */\n      0x00\n        /* \"saleIDO/ProSale.sol\":9052:9064  preSaleAmout */\n      sload(0x02)\n        /* \"saleIDO/ProSale.sol\":9045:9064  return preSaleAmout */\n      swap1\n      pop\n        /* \"saleIDO/ProSale.sol\":8976:9072  function getPreSaleAmout() public view  returns (uint256) {\r... */\n      swap1\n      jump\t// out\n        /* \"saleIDO/ProSale.sol\":8539:8665  function getDeposit(address _addr) public  view  returns (uint256) {\r... */\n    tag_52:\n        /* \"saleIDO/ProSale.sol\":8597:8604  uint256 */\n      0x00\n        /* \"saleIDO/ProSale.sol\":8624:8644  preSaleMessByAddress */\n      0x04\n        /* \"saleIDO/ProSale.sol\":8624:8651  preSaleMessByAddress[_addr] */\n      0x00\n        /* \"saleIDO/ProSale.sol\":8645:8650  _addr */\n      dup4\n        /* \"saleIDO/ProSale.sol\":8624:8651  preSaleMessByAddress[_addr] */\n      0xffffffffffffffffffffffffffffffffffffffff\n      and\n      0xffffffffffffffffffffffffffffffffffffffff\n      and\n      dup2\n      mstore\n      0x20\n      add\n      swap1\n      dup2\n      mstore\n      0x20\n      add\n      0x00\n      keccak256\n        /* \"saleIDO/ProSale.sol\":8624:8657  preSaleMessByAddress[_addr].money */\n      0x01\n      add\n      sload\n        /* \"saleIDO/ProSale.sol\":8617:8657  return preSaleMessByAddress[_addr].money */\n      swap1\n      pop\n        /* \"saleIDO/ProSale.sol\":8539:8665  function getDeposit(address _addr) public  view  returns (uint256) {\r... */\n      swap2\n      swap1\n      pop\n      jump\t// out\n        /* \"saleIDO/ProSale.sol\":9110:9210  function setPreSaleAmout(uint256 _amount) onlyOwner public {\r... */\n    tag_57:\n        /* \"saleIDO/ProSale.sol\":5256:5269  _checkOwner() */\n      tag_127\n        /* \"saleIDO/ProSale.sol\":5256:5267  _checkOwner */\n      tag_64\n        /* \"saleIDO/ProSale.sol\":5256:5269  _checkOwner() */\n      jump\t// in\n    tag_127:\n        /* \"saleIDO/ProSale.sol\":9195:9202  _amount */\n      dup1\n        /* \"saleIDO/ProSale.sol\":9180:9192  preSaleAmout */\n      0x02\n        /* \"saleIDO/ProSale.sol\":9180:9202  preSaleAmout = _amount */\n      dup2\n      swap1\n      sstore\n      pop\n        /* \"saleIDO/ProSale.sol\":9110:9210  function setPreSaleAmout(uint256 _amount) onlyOwner public {\r... */\n      pop\n      jump\t// out\n        /* \"saleIDO/ProSale.sol\":6276:6477  function transferOwnership(address newOwner) public virtual onlyOwner {\r... */\n    tag_61:\n        /* \"saleIDO/ProSale.sol\":5256:5269  _checkOwner() */\n      tag_130\n        /* \"saleIDO/ProSale.sol\":5256:5267  _checkOwner */\n      tag_64\n        /* \"saleIDO/ProSale.sol\":5256:5269  _checkOwner() */\n      jump\t// in\n    tag_130:\n        /* \"saleIDO/ProSale.sol\":6385:6386  0 */\n      0x00\n        /* \"saleIDO/ProSale.sol\":6365:6387  newOwner != address(0) */\n      0xffffffffffffffffffffffffffffffffffffffff\n      and\n        /* \"saleIDO/ProSale.sol\":6365:6373  newOwner */\n      dup2\n        /* \"saleIDO/ProSale.sol\":6365:6387  newOwner != address(0) */\n      0xffffffffffffffffffffffffffffffffffffffff\n      and\n      eq\n      iszero\n        /* \"saleIDO/ProSale.sol\":6357:6430  require(newOwner != address(0), \"Ownable: new owner is the zero address\") */\n      tag_132\n      jumpi\n      mload(0x40)\n      0x08c379a000000000000000000000000000000000000000000000000000000000\n      dup2\n      mstore\n      0x04\n      add\n      tag_133\n      swap1\n      tag_134\n      jump\t// in\n    tag_133:\n      mload(0x40)\n      dup1\n      swap2\n      sub\n      swap1\n      revert\n    tag_132:\n        /* \"saleIDO/ProSale.sol\":6441:6469  _transferOwnership(newOwner) */\n      tag_135\n        /* \"saleIDO/ProSale.sol\":6460:6468  newOwner */\n      dup2\n        /* \"saleIDO/ProSale.sol\":6441:6459  _transferOwnership */\n      tag_81\n        /* \"saleIDO/ProSale.sol\":6441:6469  _transferOwnership(newOwner) */\n      jump\t// in\n    tag_135:\n        /* \"saleIDO/ProSale.sol\":6276:6477  function transferOwnership(address newOwner) public virtual onlyOwner {\r... */\n      pop\n      jump\t// out\n        /* \"saleIDO/ProSale.sol\":5535:5667  function _checkOwner() internal view virtual {\r... */\n    tag_64:\n        /* \"saleIDO/ProSale.sol\":5610:5622  _msgSender() */\n      tag_137\n        /* \"saleIDO/ProSale.sol\":5610:5620  _msgSender */\n      tag_138\n        /* \"saleIDO/ProSale.sol\":5610:5622  _msgSender() */\n      jump\t// in\n    tag_137:\n        /* \"saleIDO/ProSale.sol\":5599:5622  owner() == _msgSender() */\n      0xffffffffffffffffffffffffffffffffffffffff\n      and\n        /* \"saleIDO/ProSale.sol\":5599:5606  owner() */\n      tag_139\n        /* \"saleIDO/ProSale.sol\":5599:5604  owner */\n      tag_36\n        /* \"saleIDO/ProSale.sol\":5599:5606  owner() */\n      jump\t// in\n    tag_139:\n        /* \"saleIDO/ProSale.sol\":5599:5622  owner() == _msgSender() */\n      0xffffffffffffffffffffffffffffffffffffffff\n      and\n      eq\n        /* \"saleIDO/ProSale.sol\":5591:5659  require(owner() == _msgSender(), \"Ownable: caller is not the owner\") */\n      tag_140\n      jumpi\n      mload(0x40)\n      0x08c379a000000000000000000000000000000000000000000000000000000000\n      dup2\n      mstore\n      0x04\n      add\n      tag_141\n      swap1\n      tag_142\n      jump\t// in\n    tag_141:\n      mload(0x40)\n      dup1\n      swap2\n      sub\n      swap1\n      revert\n    tag_140:\n        /* \"saleIDO/ProSale.sol\":5535:5667  function _checkOwner() internal view virtual {\r... */\n      jump\t// out\n        /* \"saleIDO/ProSale.sol\":6637:6828  function _transferOwnership(address newOwner) internal virtual {\r... */\n    tag_81:\n        /* \"saleIDO/ProSale.sol\":6711:6727  address oldOwner */\n      0x00\n        /* \"saleIDO/ProSale.sol\":6730:6736  _owner */\n      dup1\n      0x00\n      swap1\n      sload\n      swap1\n      0x0100\n      exp\n      swap1\n      div\n      0xffffffffffffffffffffffffffffffffffffffff\n      and\n        /* \"saleIDO/ProSale.sol\":6711:6736  address oldOwner = _owner */\n      swap1\n      pop\n        /* \"saleIDO/ProSale.sol\":6756:6764  newOwner */\n      dup2\n        /* \"saleIDO/ProSale.sol\":6747:6753  _owner */\n      0x00\n      dup1\n        /* \"saleIDO/ProSale.sol\":6747:6764  _owner = newOwner */\n      0x0100\n      exp\n      dup2\n      sload\n      dup2\n      0xffffffffffffffffffffffffffffffffffffffff\n      mul\n      not\n      and\n      swap1\n      dup4\n      0xffffffffffffffffffffffffffffffffffffffff\n      and\n      mul\n      or\n      swap1\n      sstore\n      pop\n        /* \"saleIDO/ProSale.sol\":6811:6819  newOwner */\n      dup2\n        /* \"saleIDO/ProSale.sol\":6780:6820  OwnershipTransferred(oldOwner, newOwner) */\n      0xffffffffffffffffffffffffffffffffffffffff\n      and\n        /* \"saleIDO/ProSale.sol\":6801:6809  oldOwner */\n      dup2\n        /* \"saleIDO/ProSale.sol\":6780:6820  OwnershipTransferred(oldOwner, newOwner) */\n      0xffffffffffffffffffffffffffffffffffffffff\n      and\n      0x8be0079c531659141344cd1fd0a4f28419497f9722a3daafe3b4186f6b6457e0\n      mload(0x40)\n      mload(0x40)\n      dup1\n      swap2\n      sub\n      swap1\n      log3\n        /* \"saleIDO/ProSale.sol\":6700:6828  {\r... */\n      pop\n        /* \"saleIDO/ProSale.sol\":6637:6828  function _transferOwnership(address newOwner) internal virtual {\r... */\n      pop\n      jump\t// out\n        /* \"saleIDO/ProSale.sol\":2427:2720  function _nonReentrantBefore() private {\r... */\n    tag_84:\n        /* \"saleIDO/ProSale.sol\":1829:1830  2 */\n      0x02\n        /* \"saleIDO/ProSale.sol\":2561:2568  _status */\n      sload(0x01)\n        /* \"saleIDO/ProSale.sol\":2561:2580  _status != _ENTERED */\n      eq\n      iszero\n        /* \"saleIDO/ProSale.sol\":2553:2616  require(_status != _ENTERED, \"ReentrancyGuard: reentrant call\") */\n      tag_145\n      jumpi\n      mload(0x40)\n      0x08c379a000000000000000000000000000000000000000000000000000000000\n      dup2\n      mstore\n      0x04\n      add\n      tag_146\n      swap1\n      tag_147\n      jump\t// in\n    tag_146:\n      mload(0x40)\n      dup1\n      swap2\n      sub\n      swap1\n      revert\n    tag_145:\n        /* \"saleIDO/ProSale.sol\":1829:1830  2 */\n      0x02\n        /* \"saleIDO/ProSale.sol\":2694:2701  _status */\n      0x01\n        /* \"saleIDO/ProSale.sol\":2694:2712  _status = _ENTERED */\n      dup2\n      swap1\n      sstore\n      pop\n        /* \"saleIDO/ProSale.sol\":2427:2720  function _nonReentrantBefore() private {\r... */\n      jump\t// out\n        /* \"saleIDO/ProSale.sol\":9248:9370  function _addWhitelist(address _addr) private {\r... */\n    tag_105:\n        /* \"saleIDO/ProSale.sol\":9341:9350  whitelist */\n      0x03\n        /* \"saleIDO/ProSale.sol\":9356:9361  _addr */\n      dup2\n        /* \"saleIDO/ProSale.sol\":9341:9362  whitelist.push(_addr) */\n      swap1\n      dup1\n      0x01\n      dup2\n      sload\n      add\n      dup1\n      dup3\n      sstore\n      dup1\n      swap2\n      pop\n      pop\n      0x01\n      swap1\n      sub\n      swap1\n      0x00\n      mstore\n      keccak256(0x00, 0x20)\n      add\n      0x00\n      swap1\n      swap2\n      swap1\n      swap2\n      swap1\n      swap2\n      0x0100\n      exp\n      dup2\n      sload\n      dup2\n      0xffffffffffffffffffffffffffffffffffffffff\n      mul\n      not\n      and\n      swap1\n      dup4\n      0xffffffffffffffffffffffffffffffffffffffff\n      and\n      mul\n      or\n      swap1\n      sstore\n      pop\n        /* \"saleIDO/ProSale.sol\":9248:9370  function _addWhitelist(address _addr) private {\r... */\n      pop\n      jump\t// out\n        /* \"saleIDO/ProSale.sol\":2728:2941  function _nonReentrantAfter() private {\r... */\n    tag_119:\n        /* \"saleIDO/ProSale.sol\":1785:1786  1 */\n      0x01\n        /* \"saleIDO/ProSale.sol\":2911:2918  _status */\n      dup1\n        /* \"saleIDO/ProSale.sol\":2911:2933  _status = _NOT_ENTERED */\n      dup2\n      swap1\n      sstore\n      pop\n        /* \"saleIDO/ProSale.sol\":2728:2941  function _nonReentrantAfter() private {\r... */\n      jump\t// out\n        /* \"saleIDO/ProSale.sol\":3921:4019  function _msgSender() internal view virtual returns (address) {\r... */\n    tag_138:\n        /* \"saleIDO/ProSale.sol\":3974:3981  address */\n      0x00\n        /* \"saleIDO/ProSale.sol\":4001:4011  msg.sender */\n      caller\n        /* \"saleIDO/ProSale.sol\":3994:4011  return msg.sender */\n      swap1\n      pop\n        /* \"saleIDO/ProSale.sol\":3921:4019  function _msgSender() internal view virtual returns (address) {\r... */\n      swap1\n      jump\t// out\n        /* \"#utility.yul\":7:146   */\n    tag_153:\n        /* \"#utility.yul\":53:58   */\n      0x00\n        /* \"#utility.yul\":91:97   */\n      dup2\n        /* \"#utility.yul\":78:98   */\n      calldataload\n        /* \"#utility.yul\":69:98   */\n      swap1\n      pop\n        /* \"#utility.yul\":107:140   */\n      tag_155\n        /* \"#utility.yul\":134:139   */\n      dup2\n        /* \"#utility.yul\":107:140   */\n      tag_156\n      jump\t// in\n    tag_155:\n        /* \"#utility.yul\":7:146   */\n      swap3\n      swap2\n      pop\n      pop\n      jump\t// out\n        /* \"#utility.yul\":152:291   */\n    tag_157:\n        /* \"#utility.yul\":198:203   */\n      0x00\n        /* \"#utility.yul\":236:242   */\n      dup2\n        /* \"#utility.yul\":223:243   */\n      calldataload\n        /* \"#utility.yul\":214:243   */\n      swap1\n      pop\n        /* \"#utility.yul\":252:285   */\n      tag_159\n        /* \"#utility.yul\":279:284   */\n      dup2\n        /* \"#utility.yul\":252:285   */\n      tag_160\n      jump\t// in\n    tag_159:\n        /* \"#utility.yul\":152:291   */\n      swap3\n      swap2\n      pop\n      pop\n      jump\t// out\n        /* \"#utility.yul\":297:626   */\n    tag_51:\n        /* \"#utility.yul\":356:362   */\n      0x00\n        /* \"#utility.yul\":405:407   */\n      0x20\n        /* \"#utility.yul\":393:402   */\n      dup3\n        /* \"#utility.yul\":384:391   */\n      dup5\n        /* \"#utility.yul\":380:403   */\n      sub\n        /* \"#utility.yul\":376:408   */\n      slt\n        /* \"#utility.yul\":373:492   */\n      iszero\n      tag_162\n      jumpi\n        /* \"#utility.yul\":411:490   */\n      tag_163\n      tag_164\n      jump\t// in\n    tag_163:\n        /* \"#utility.yul\":373:492   */\n    tag_162:\n        /* \"#utility.yul\":531:532   */\n      0x00\n        /* \"#utility.yul\":556:609   */\n      tag_165\n        /* \"#utility.yul\":601:608   */\n      dup5\n        /* \"#utility.yul\":592:598   */\n      dup3\n        /* \"#utility.yul\":581:590   */\n      dup6\n        /* \"#utility.yul\":577:599   */\n      add\n        /* \"#utility.yul\":556:609   */\n      tag_153\n      jump\t// in\n    tag_165:\n        /* \"#utility.yul\":546:609   */\n      swap2\n      pop\n        /* \"#utility.yul\":502:619   */\n      pop\n        /* \"#utility.yul\":297:626   */\n      swap3\n      swap2\n      pop\n      pop\n      jump\t// out\n        /* \"#utility.yul\":632:961   */\n    tag_21:\n        /* \"#utility.yul\":691:697   */\n      0x00\n        /* \"#utility.yul\":740:742   */\n      0x20\n        /* \"#utility.yul\":728:737   */\n      dup3\n        /* \"#utility.yul\":719:726   */\n      dup5\n        /* \"#utility.yul\":715:738   */\n      sub\n        /* \"#utility.yul\":711:743   */\n      slt\n        /* \"#utility.yul\":708:827   */\n      iszero\n      tag_167\n      jumpi\n        /* \"#utility.yul\":746:825   */\n      tag_168\n      tag_164\n      jump\t// in\n    tag_168:\n        /* \"#utility.yul\":708:827   */\n    tag_167:\n        /* \"#utility.yul\":866:867   */\n      0x00\n        /* \"#utility.yul\":891:944   */\n      tag_169\n        /* \"#utility.yul\":936:943   */\n      dup5\n        /* \"#utility.yul\":927:933   */\n      dup3\n        /* \"#utility.yul\":916:925   */\n      dup6\n        /* \"#utility.yul\":912:934   */\n      add\n        /* \"#utility.yul\":891:944   */\n      tag_157\n      jump\t// in\n    tag_169:\n        /* \"#utility.yul\":881:944   */\n      swap2\n      pop\n        /* \"#utility.yul\":837:954   */\n      pop\n        /* \"#utility.yul\":632:961   */\n      swap3\n      swap2\n      pop\n      pop\n      jump\t// out\n        /* \"#utility.yul\":967:1146   */\n    tag_170:\n        /* \"#utility.yul\":1036:1046   */\n      0x00\n        /* \"#utility.yul\":1057:1103   */\n      tag_172\n        /* \"#utility.yul\":1099:1102   */\n      dup4\n        /* \"#utility.yul\":1091:1097   */\n      dup4\n        /* \"#utility.yul\":1057:1103   */\n      tag_173\n      jump\t// in\n    tag_172:\n        /* \"#utility.yul\":1135:1139   */\n      0x20\n        /* \"#utility.yul\":1130:1133   */\n      dup4\n        /* \"#utility.yul\":1126:1140   */\n      add\n        /* \"#utility.yul\":1112:1140   */\n      swap1\n      pop\n        /* \"#utility.yul\":967:1146   */\n      swap3\n      swap2\n      pop\n      pop\n      jump\t// out\n        /* \"#utility.yul\":1152:1260   */\n    tag_173:\n        /* \"#utility.yul\":1229:1253   */\n      tag_175\n        /* \"#utility.yul\":1247:1252   */\n      dup2\n        /* \"#utility.yul\":1229:1253   */\n      tag_176\n      jump\t// in\n    tag_175:\n        /* \"#utility.yul\":1224:1227   */\n      dup3\n        /* \"#utility.yul\":1217:1254   */\n      mstore\n        /* \"#utility.yul\":1152:1260   */\n      pop\n      pop\n      jump\t// out\n        /* \"#utility.yul\":1266:1384   */\n    tag_177:\n        /* \"#utility.yul\":1353:1377   */\n      tag_179\n        /* \"#utility.yul\":1371:1376   */\n      dup2\n        /* \"#utility.yul\":1353:1377   */\n      tag_176\n      jump\t// in\n    tag_179:\n        /* \"#utility.yul\":1348:1351   */\n      dup3\n        /* \"#utility.yul\":1341:1378   */\n      mstore\n        /* \"#utility.yul\":1266:1384   */\n      pop\n      pop\n      jump\t// out\n        /* \"#utility.yul\":1420:2152   */\n    tag_180:\n        /* \"#utility.yul\":1539:1542   */\n      0x00\n        /* \"#utility.yul\":1568:1622   */\n      tag_182\n        /* \"#utility.yul\":1616:1621   */\n      dup3\n        /* \"#utility.yul\":1568:1622   */\n      tag_183\n      jump\t// in\n    tag_182:\n        /* \"#utility.yul\":1638:1724   */\n      tag_184\n        /* \"#utility.yul\":1717:1723   */\n      dup2\n        /* \"#utility.yul\":1712:1715   */\n      dup6\n        /* \"#utility.yul\":1638:1724   */\n      tag_185\n      jump\t// in\n    tag_184:\n        /* \"#utility.yul\":1631:1724   */\n      swap4\n      pop\n        /* \"#utility.yul\":1748:1804   */\n      tag_186\n        /* \"#utility.yul\":1798:1803   */\n      dup4\n        /* \"#utility.yul\":1748:1804   */\n      tag_187\n      jump\t// in\n    tag_186:\n        /* \"#utility.yul\":1827:1834   */\n      dup1\n        /* \"#utility.yul\":1858:1859   */\n      0x00\n        /* \"#utility.yul\":1843:2127   */\n    tag_188:\n        /* \"#utility.yul\":1868:1874   */\n      dup4\n        /* \"#utility.yul\":1865:1866   */\n      dup2\n        /* \"#utility.yul\":1862:1875   */\n      lt\n        /* \"#utility.yul\":1843:2127   */\n      iszero\n      tag_190\n      jumpi\n        /* \"#utility.yul\":1944:1950   */\n      dup2\n        /* \"#utility.yul\":1938:1951   */\n      mload\n        /* \"#utility.yul\":1971:2034   */\n      tag_191\n        /* \"#utility.yul\":2030:2033   */\n      dup9\n        /* \"#utility.yul\":2015:2028   */\n      dup3\n        /* \"#utility.yul\":1971:2034   */\n      tag_170\n      jump\t// in\n    tag_191:\n        /* \"#utility.yul\":1964:2034   */\n      swap8\n      pop\n        /* \"#utility.yul\":2057:2117   */\n      tag_192\n        /* \"#utility.yul\":2110:2116   */\n      dup4\n        /* \"#utility.yul\":2057:2117   */\n      tag_193\n      jump\t// in\n    tag_192:\n        /* \"#utility.yul\":2047:2117   */\n      swap3\n      pop\n        /* \"#utility.yul\":1903:2127   */\n      pop\n        /* \"#utility.yul\":1890:1891   */\n      0x01\n        /* \"#utility.yul\":1887:1888   */\n      dup2\n        /* \"#utility.yul\":1883:1892   */\n      add\n        /* \"#utility.yul\":1878:1892   */\n      swap1\n      pop\n        /* \"#utility.yul\":1843:2127   */\n      jump(tag_188)\n    tag_190:\n        /* \"#utility.yul\":1847:1861   */\n      pop\n        /* \"#utility.yul\":2143:2146   */\n      dup6\n        /* \"#utility.yul\":2136:2146   */\n      swap4\n      pop\n        /* \"#utility.yul\":1544:2152   */\n      pop\n      pop\n      pop\n        /* \"#utility.yul\":1420:2152   */\n      swap3\n      swap2\n      pop\n      pop\n      jump\t// out\n        /* \"#utility.yul\":2158:2524   */\n    tag_194:\n        /* \"#utility.yul\":2300:2303   */\n      0x00\n        /* \"#utility.yul\":2321:2388   */\n      tag_196\n        /* \"#utility.yul\":2385:2387   */\n      0x20\n        /* \"#utility.yul\":2380:2383   */\n      dup4\n        /* \"#utility.yul\":2321:2388   */\n      tag_197\n      jump\t// in\n    tag_196:\n        /* \"#utility.yul\":2314:2388   */\n      swap2\n      pop\n        /* \"#utility.yul\":2397:2490   */\n      tag_198\n        /* \"#utility.yul\":2486:2489   */\n      dup3\n        /* \"#utility.yul\":2397:2490   */\n      tag_199\n      jump\t// in\n    tag_198:\n        /* \"#utility.yul\":2515:2517   */\n      0x20\n        /* \"#utility.yul\":2510:2513   */\n      dup3\n        /* \"#utility.yul\":2506:2518   */\n      add\n        /* \"#utility.yul\":2499:2518   */\n      swap1\n      pop\n        /* \"#utility.yul\":2158:2524   */\n      swap2\n      swap1\n      pop\n      jump\t// out\n        /* \"#utility.yul\":2530:2896   */\n    tag_200:\n        /* \"#utility.yul\":2672:2675   */\n      0x00\n        /* \"#utility.yul\":2693:2760   */\n      tag_202\n        /* \"#utility.yul\":2757:2759   */\n      0x26\n        /* \"#utility.yul\":2752:2755   */\n      dup4\n        /* \"#utility.yul\":2693:2760   */\n      tag_197\n      jump\t// in\n    tag_202:\n        /* \"#utility.yul\":2686:2760   */\n      swap2\n      pop\n        /* \"#utility.yul\":2769:2862   */\n      tag_203\n        /* \"#utility.yul\":2858:2861   */\n      dup3\n        /* \"#utility.yul\":2769:2862   */\n      tag_204\n      jump\t// in\n    tag_203:\n        /* \"#utility.yul\":2887:2889   */\n      0x40\n        /* \"#utility.yul\":2882:2885   */\n      dup3\n        /* \"#utility.yul\":2878:2890   */\n      add\n        /* \"#utility.yul\":2871:2890   */\n      swap1\n      pop\n        /* \"#utility.yul\":2530:2896   */\n      swap2\n      swap1\n      pop\n      jump\t// out\n        /* \"#utility.yul\":2902:3268   */\n    tag_205:\n        /* \"#utility.yul\":3044:3047   */\n      0x00\n        /* \"#utility.yul\":3065:3132   */\n      tag_207\n        /* \"#utility.yul\":3129:3131   */\n      0x1b\n        /* \"#utility.yul\":3124:3127   */\n      dup4\n        /* \"#utility.yul\":3065:3132   */\n      tag_197\n      jump\t// in\n    tag_207:\n        /* \"#utility.yul\":3058:3132   */\n      swap2\n      pop\n        /* \"#utility.yul\":3141:3234   */\n      tag_208\n        /* \"#utility.yul\":3230:3233   */\n      dup3\n        /* \"#utility.yul\":3141:3234   */\n      tag_209\n      jump\t// in\n    tag_208:\n        /* \"#utility.yul\":3259:3261   */\n      0x20\n        /* \"#utility.yul\":3254:3257   */\n      dup3\n        /* \"#utility.yul\":3250:3262   */\n      add\n        /* \"#utility.yul\":3243:3262   */\n      swap1\n      pop\n        /* \"#utility.yul\":2902:3268   */\n      swap2\n      swap1\n      pop\n      jump\t// out\n        /* \"#utility.yul\":3274:3640   */\n    tag_210:\n        /* \"#utility.yul\":3416:3419   */\n      0x00\n        /* \"#utility.yul\":3437:3504   */\n      tag_212\n        /* \"#utility.yul\":3501:3503   */\n      0x1b\n        /* \"#utility.yul\":3496:3499   */\n      dup4\n        /* \"#utility.yul\":3437:3504   */\n      tag_197\n      jump\t// in\n    tag_212:\n        /* \"#utility.yul\":3430:3504   */\n      swap2\n      pop\n        /* \"#utility.yul\":3513:3606   */\n      tag_213\n        /* \"#utility.yul\":3602:3605   */\n      dup3\n        /* \"#utility.yul\":3513:3606   */\n      tag_214\n      jump\t// in\n    tag_213:\n        /* \"#utility.yul\":3631:3633   */\n      0x20\n        /* \"#utility.yul\":3626:3629   */\n      dup3\n        /* \"#utility.yul\":3622:3634   */\n      add\n        /* \"#utility.yul\":3615:3634   */\n      swap1\n      pop\n        /* \"#utility.yul\":3274:3640   */\n      swap2\n      swap1\n      pop\n      jump\t// out\n        /* \"#utility.yul\":3646:4012   */\n    tag_215:\n        /* \"#utility.yul\":3788:3791   */\n      0x00\n        /* \"#utility.yul\":3809:3876   */\n      tag_217\n        /* \"#utility.yul\":3873:3875   */\n      0x20\n        /* \"#utility.yul\":3868:3871   */\n      dup4\n        /* \"#utility.yul\":3809:3876   */\n      tag_197\n      jump\t// in\n    tag_217:\n        /* \"#utility.yul\":3802:3876   */\n      swap2\n      pop\n        /* \"#utility.yul\":3885:3978   */\n      tag_218\n        /* \"#utility.yul\":3974:3977   */\n      dup3\n        /* \"#utility.yul\":3885:3978   */\n      tag_219\n      jump\t// in\n    tag_218:\n        /* \"#utility.yul\":4003:4005   */\n      0x20\n        /* \"#utility.yul\":3998:4001   */\n      dup3\n        /* \"#utility.yul\":3994:4006   */\n      add\n        /* \"#utility.yul\":3987:4006   */\n      swap1\n      pop\n        /* \"#utility.yul\":3646:4012   */\n      swap2\n      swap1\n      pop\n      jump\t// out\n        /* \"#utility.yul\":4018:4384   */\n    tag_220:\n        /* \"#utility.yul\":4160:4163   */\n      0x00\n        /* \"#utility.yul\":4181:4248   */\n      tag_222\n        /* \"#utility.yul\":4245:4247   */\n      0x0e\n        /* \"#utility.yul\":4240:4243   */\n      dup4\n        /* \"#utility.yul\":4181:4248   */\n      tag_197\n      jump\t// in\n    tag_222:\n        /* \"#utility.yul\":4174:4248   */\n      swap2\n      pop\n        /* \"#utility.yul\":4257:4350   */\n      tag_223\n        /* \"#utility.yul\":4346:4349   */\n      dup3\n        /* \"#utility.yul\":4257:4350   */\n      tag_224\n      jump\t// in\n    tag_223:\n        /* \"#utility.yul\":4375:4377   */\n      0x20\n        /* \"#utility.yul\":4370:4373   */\n      dup3\n        /* \"#utility.yul\":4366:4378   */\n      add\n        /* \"#utility.yul\":4359:4378   */\n      swap1\n      pop\n        /* \"#utility.yul\":4018:4384   */\n      swap2\n      swap1\n      pop\n      jump\t// out\n        /* \"#utility.yul\":4390:4788   */\n    tag_225:\n        /* \"#utility.yul\":4549:4552   */\n      0x00\n        /* \"#utility.yul\":4570:4653   */\n      tag_227\n        /* \"#utility.yul\":4651:4652   */\n      0x00\n        /* \"#utility.yul\":4646:4649   */\n      dup4\n        /* \"#utility.yul\":4570:4653   */\n      tag_228\n      jump\t// in\n    tag_227:\n        /* \"#utility.yul\":4563:4653   */\n      swap2\n      pop\n        /* \"#utility.yul\":4662:4755   */\n      tag_229\n        /* \"#utility.yul\":4751:4754   */\n      dup3\n        /* \"#utility.yul\":4662:4755   */\n      tag_230\n      jump\t// in\n    tag_229:\n        /* \"#utility.yul\":4780:4781   */\n      0x00\n        /* \"#utility.yul\":4775:4778   */\n      dup3\n        /* \"#utility.yul\":4771:4782   */\n      add\n        /* \"#utility.yul\":4764:4782   */\n      swap1\n      pop\n        /* \"#utility.yul\":4390:4788   */\n      swap2\n      swap1\n      pop\n      jump\t// out\n        /* \"#utility.yul\":4794:5160   */\n    tag_231:\n        /* \"#utility.yul\":4936:4939   */\n      0x00\n        /* \"#utility.yul\":4957:5024   */\n      tag_233\n        /* \"#utility.yul\":5021:5023   */\n      0x1f\n        /* \"#utility.yul\":5016:5019   */\n      dup4\n        /* \"#utility.yul\":4957:5024   */\n      tag_197\n      jump\t// in\n    tag_233:\n        /* \"#utility.yul\":4950:5024   */\n      swap2\n      pop\n        /* \"#utility.yul\":5033:5126   */\n      tag_234\n        /* \"#utility.yul\":5122:5125   */\n      dup3\n        /* \"#utility.yul\":5033:5126   */\n      tag_235\n      jump\t// in\n    tag_234:\n        /* \"#utility.yul\":5151:5153   */\n      0x20\n        /* \"#utility.yul\":5146:5149   */\n      dup3\n        /* \"#utility.yul\":5142:5154   */\n      add\n        /* \"#utility.yul\":5135:5154   */\n      swap1\n      pop\n        /* \"#utility.yul\":4794:5160   */\n      swap2\n      swap1\n      pop\n      jump\t// out\n        /* \"#utility.yul\":5166:5532   */\n    tag_236:\n        /* \"#utility.yul\":5308:5311   */\n      0x00\n        /* \"#utility.yul\":5329:5396   */\n      tag_238\n        /* \"#utility.yul\":5393:5395   */\n      0x0f\n        /* \"#utility.yul\":5388:5391   */\n      dup4\n        /* \"#utility.yul\":5329:5396   */\n      tag_197\n      jump\t// in\n    tag_238:\n        /* \"#utility.yul\":5322:5396   */\n      swap2\n      pop\n        /* \"#utility.yul\":5405:5498   */\n      tag_239\n        /* \"#utility.yul\":5494:5497   */\n      dup3\n        /* \"#utility.yul\":5405:5498   */\n      tag_240\n      jump\t// in\n    tag_239:\n        /* \"#utility.yul\":5523:5525   */\n      0x20\n        /* \"#utility.yul\":5518:5521   */\n      dup3\n        /* \"#utility.yul\":5514:5526   */\n      add\n        /* \"#utility.yul\":5507:5526   */\n      swap1\n      pop\n        /* \"#utility.yul\":5166:5532   */\n      swap2\n      swap1\n      pop\n      jump\t// out\n        /* \"#utility.yul\":5538:5656   */\n    tag_241:\n        /* \"#utility.yul\":5625:5649   */\n      tag_243\n        /* \"#utility.yul\":5643:5648   */\n      dup2\n        /* \"#utility.yul\":5625:5649   */\n      tag_244\n      jump\t// in\n    tag_243:\n        /* \"#utility.yul\":5620:5623   */\n      dup3\n        /* \"#utility.yul\":5613:5650   */\n      mstore\n        /* \"#utility.yul\":5538:5656   */\n      pop\n      pop\n      jump\t// out\n        /* \"#utility.yul\":5662:6041   */\n    tag_67:\n        /* \"#utility.yul\":5846:5849   */\n      0x00\n        /* \"#utility.yul\":5868:6015   */\n      tag_246\n        /* \"#utility.yul\":6011:6014   */\n      dup3\n        /* \"#utility.yul\":5868:6015   */\n      tag_225\n      jump\t// in\n    tag_246:\n        /* \"#utility.yul\":5861:6015   */\n      swap2\n      pop\n        /* \"#utility.yul\":6032:6035   */\n      dup2\n        /* \"#utility.yul\":6025:6035   */\n      swap1\n      pop\n        /* \"#utility.yul\":5662:6041   */\n      swap2\n      swap1\n      pop\n      jump\t// out\n        /* \"#utility.yul\":6047:6269   */\n    tag_38:\n        /* \"#utility.yul\":6140:6144   */\n      0x00\n        /* \"#utility.yul\":6178:6180   */\n      0x20\n        /* \"#utility.yul\":6167:6176   */\n      dup3\n        /* \"#utility.yul\":6163:6181   */\n      add\n        /* \"#utility.yul\":6155:6181   */\n      swap1\n      pop\n        /* \"#utility.yul\":6191:6262   */\n      tag_248\n        /* \"#utility.yul\":6259:6260   */\n      0x00\n        /* \"#utility.yul\":6248:6257   */\n      dup4\n        /* \"#utility.yul\":6244:6261   */\n      add\n        /* \"#utility.yul\":6235:6241   */\n      dup5\n        /* \"#utility.yul\":6191:6262   */\n      tag_177\n      jump\t// in\n    tag_248:\n        /* \"#utility.yul\":6047:6269   */\n      swap3\n      swap2\n      pop\n      pop\n      jump\t// out\n        /* \"#utility.yul\":6275:6607   */\n    tag_75:\n        /* \"#utility.yul\":6396:6400   */\n      0x00\n        /* \"#utility.yul\":6434:6436   */\n      0x40\n        /* \"#utility.yul\":6423:6432   */\n      dup3\n        /* \"#utility.yul\":6419:6437   */\n      add\n        /* \"#utility.yul\":6411:6437   */\n      swap1\n      pop\n        /* \"#utility.yul\":6447:6518   */\n      tag_250\n        /* \"#utility.yul\":6515:6516   */\n      0x00\n        /* \"#utility.yul\":6504:6513   */\n      dup4\n        /* \"#utility.yul\":6500:6517   */\n      add\n        /* \"#utility.yul\":6491:6497   */\n      dup6\n        /* \"#utility.yul\":6447:6518   */\n      tag_177\n      jump\t// in\n    tag_250:\n        /* \"#utility.yul\":6528:6600   */\n      tag_251\n        /* \"#utility.yul\":6596:6598   */\n      0x20\n        /* \"#utility.yul\":6585:6594   */\n      dup4\n        /* \"#utility.yul\":6581:6599   */\n      add\n        /* \"#utility.yul\":6572:6578   */\n      dup5\n        /* \"#utility.yul\":6528:6600   */\n      tag_241\n      jump\t// in\n    tag_251:\n        /* \"#utility.yul\":6275:6607   */\n      swap4\n      swap3\n      pop\n      pop\n      pop\n      jump\t// out\n        /* \"#utility.yul\":6613:6986   */\n    tag_43:\n        /* \"#utility.yul\":6756:6760   */\n      0x00\n        /* \"#utility.yul\":6794:6796   */\n      0x20\n        /* \"#utility.yul\":6783:6792   */\n      dup3\n        /* \"#utility.yul\":6779:6797   */\n      add\n        /* \"#utility.yul\":6771:6797   */\n      swap1\n      pop\n        /* \"#utility.yul\":6843:6852   */\n      dup2\n        /* \"#utility.yul\":6837:6841   */\n      dup2\n        /* \"#utility.yul\":6833:6853   */\n      sub\n        /* \"#utility.yul\":6829:6830   */\n      0x00\n        /* \"#utility.yul\":6818:6827   */\n      dup4\n        /* \"#utility.yul\":6814:6831   */\n      add\n        /* \"#utility.yul\":6807:6854   */\n      mstore\n        /* \"#utility.yul\":6871:6979   */\n      tag_253\n        /* \"#utility.yul\":6974:6978   */\n      dup2\n        /* \"#utility.yul\":6965:6971   */\n      dup5\n        /* \"#utility.yul\":6871:6979   */\n      tag_180\n      jump\t// in\n    tag_253:\n        /* \"#utility.yul\":6863:6979   */\n      swap1\n      pop\n        /* \"#utility.yul\":6613:6986   */\n      swap3\n      swap2\n      pop\n      pop\n      jump\t// out\n        /* \"#utility.yul\":6992:7411   */\n    tag_91:\n        /* \"#utility.yul\":7158:7162   */\n      0x00\n        /* \"#utility.yul\":7196:7198   */\n      0x20\n        /* \"#utility.yul\":7185:7194   */\n      dup3\n        /* \"#utility.yul\":7181:7199   */\n      add\n        /* \"#utility.yul\":7173:7199   */\n      swap1\n      pop\n        /* \"#utility.yul\":7245:7254   */\n      dup2\n        /* \"#utility.yul\":7239:7243   */\n      dup2\n        /* \"#utility.yul\":7235:7255   */\n      sub\n        /* \"#utility.yul\":7231:7232   */\n      0x00\n        /* \"#utility.yul\":7220:7229   */\n      dup4\n        /* \"#utility.yul\":7216:7233   */\n      add\n        /* \"#utility.yul\":7209:7256   */\n      mstore\n        /* \"#utility.yul\":7273:7404   */\n      tag_255\n        /* \"#utility.yul\":7399:7403   */\n      dup2\n        /* \"#utility.yul\":7273:7404   */\n      tag_194\n      jump\t// in\n    tag_255:\n        /* \"#utility.yul\":7265:7404   */\n      swap1\n      pop\n        /* \"#utility.yul\":6992:7411   */\n      swap2\n      swap1\n      pop\n      jump\t// out\n        /* \"#utility.yul\":7417:7836   */\n    tag_134:\n        /* \"#utility.yul\":7583:7587   */\n      0x00\n        /* \"#utility.yul\":7621:7623   */\n      0x20\n        /* \"#utility.yul\":7610:7619   */\n      dup3\n        /* \"#utility.yul\":7606:7624   */\n      add\n        /* \"#utility.yul\":7598:7624   */\n      swap1\n      pop\n        /* \"#utility.yul\":7670:7679   */\n      dup2\n        /* \"#utility.yul\":7664:7668   */\n      dup2\n        /* \"#utility.yul\":7660:7680   */\n      sub\n        /* \"#utility.yul\":7656:7657   */\n      0x00\n        /* \"#utility.yul\":7645:7654   */\n      dup4\n        /* \"#utility.yul\":7641:7658   */\n      add\n        /* \"#utility.yul\":7634:7681   */\n      mstore\n        /* \"#utility.yul\":7698:7829   */\n      tag_257\n        /* \"#utility.yul\":7824:7828   */\n      dup2\n        /* \"#utility.yul\":7698:7829   */\n      tag_200\n      jump\t// in\n    tag_257:\n        /* \"#utility.yul\":7690:7829   */\n      swap1\n      pop\n        /* \"#utility.yul\":7417:7836   */\n      swap2\n      swap1\n      pop\n      jump\t// out\n        /* \"#utility.yul\":7842:8261   */\n    tag_116:\n        /* \"#utility.yul\":8008:8012   */\n      0x00\n        /* \"#utility.yul\":8046:8048   */\n      0x20\n        /* \"#utility.yul\":8035:8044   */\n      dup3\n        /* \"#utility.yul\":8031:8049   */\n      add\n        /* \"#utility.yul\":8023:8049   */\n      swap1\n      pop\n        /* \"#utility.yul\":8095:8104   */\n      dup2\n        /* \"#utility.yul\":8089:8093   */\n      dup2\n        /* \"#utility.yul\":8085:8105   */\n      sub\n        /* \"#utility.yul\":8081:8082   */\n      0x00\n        /* \"#utility.yul\":8070:8079   */\n      dup4\n        /* \"#utility.yul\":8066:8083   */\n      add\n        /* \"#utility.yul\":8059:8106   */\n      mstore\n        /* \"#utility.yul\":8123:8254   */\n      tag_259\n        /* \"#utility.yul\":8249:8253   */\n      dup2\n        /* \"#utility.yul\":8123:8254   */\n      tag_205\n      jump\t// in\n    tag_259:\n        /* \"#utility.yul\":8115:8254   */\n      swap1\n      pop\n        /* \"#utility.yul\":7842:8261   */\n      swap2\n      swap1\n      pop\n      jump\t// out\n        /* \"#utility.yul\":8267:8686   */\n    tag_96:\n        /* \"#utility.yul\":8433:8437   */\n      0x00\n        /* \"#utility.yul\":8471:8473   */\n      0x20\n        /* \"#utility.yul\":8460:8469   */\n      dup3\n        /* \"#utility.yul\":8456:8474   */\n      add\n        /* \"#utility.yul\":8448:8474   */\n      swap1\n      pop\n        /* \"#utility.yul\":8520:8529   */\n      dup2\n        /* \"#utility.yul\":8514:8518   */\n      dup2\n        /* \"#utility.yul\":8510:8530   */\n      sub\n        /* \"#utility.yul\":8506:8507   */\n      0x00\n        /* \"#utility.yul\":8495:8504   */\n      dup4\n        /* \"#utility.yul\":8491:8508   */\n      add\n        /* \"#utility.yul\":8484:8531   */\n      mstore\n        /* \"#utility.yul\":8548:8679   */\n      tag_261\n        /* \"#utility.yul\":8674:8678   */\n      dup2\n        /* \"#utility.yul\":8548:8679   */\n      tag_210\n      jump\t// in\n    tag_261:\n        /* \"#utility.yul\":8540:8679   */\n      swap1\n      pop\n        /* \"#utility.yul\":8267:8686   */\n      swap2\n      swap1\n      pop\n      jump\t// out\n        /* \"#utility.yul\":8692:9111   */\n    tag_142:\n        /* \"#utility.yul\":8858:8862   */\n      0x00\n        /* \"#utility.yul\":8896:8898   */\n      0x20\n        /* \"#utility.yul\":8885:8894   */\n      dup3\n        /* \"#utility.yul\":8881:8899   */\n      add\n        /* \"#utility.yul\":8873:8899   */\n      swap1\n      pop\n        /* \"#utility.yul\":8945:8954   */\n      dup2\n        /* \"#utility.yul\":8939:8943   */\n      dup2\n        /* \"#utility.yul\":8935:8955   */\n      sub\n        /* \"#utility.yul\":8931:8932   */\n      0x00\n        /* \"#utility.yul\":8920:8929   */\n      dup4\n        /* \"#utility.yul\":8916:8933   */\n      add\n        /* \"#utility.yul\":8909:8956   */\n      mstore\n        /* \"#utility.yul\":8973:9104   */\n      tag_263\n        /* \"#utility.yul\":9099:9103   */\n      dup2\n        /* \"#utility.yul\":8973:9104   */\n      tag_215\n      jump\t// in\n    tag_263:\n        /* \"#utility.yul\":8965:9104   */\n      swap1\n      pop\n        /* \"#utility.yul\":8692:9111   */\n      swap2\n      swap1\n      pop\n      jump\t// out\n        /* \"#utility.yul\":9117:9536   */\n    tag_101:\n        /* \"#utility.yul\":9283:9287   */\n      0x00\n        /* \"#utility.yul\":9321:9323   */\n      0x20\n        /* \"#utility.yul\":9310:9319   */\n      dup3\n        /* \"#utility.yul\":9306:9324   */\n      add\n        /* \"#utility.yul\":9298:9324   */\n      swap1\n      pop\n        /* \"#utility.yul\":9370:9379   */\n      dup2\n        /* \"#utility.yul\":9364:9368   */\n      dup2\n        /* \"#utility.yul\":9360:9380   */\n      sub\n        /* \"#utility.yul\":9356:9357   */\n      0x00\n        /* \"#utility.yul\":9345:9354   */\n      dup4\n        /* \"#utility.yul\":9341:9358   */\n      add\n        /* \"#utility.yul\":9334:9381   */\n      mstore\n        /* \"#utility.yul\":9398:9529   */\n      tag_265\n        /* \"#utility.yul\":9524:9528   */\n      dup2\n        /* \"#utility.yul\":9398:9529   */\n      tag_220\n      jump\t// in\n    tag_265:\n        /* \"#utility.yul\":9390:9529   */\n      swap1\n      pop\n        /* \"#utility.yul\":9117:9536   */\n      swap2\n      swap1\n      pop\n      jump\t// out\n        /* \"#utility.yul\":9542:9961   */\n    tag_147:\n        /* \"#utility.yul\":9708:9712   */\n      0x00\n        /* \"#utility.yul\":9746:9748   */\n      0x20\n        /* \"#utility.yul\":9735:9744   */\n      dup3\n        /* \"#utility.yul\":9731:9749   */\n      add\n        /* \"#utility.yul\":9723:9749   */\n      swap1\n      pop\n        /* \"#utility.yul\":9795:9804   */\n      dup2\n        /* \"#utility.yul\":9789:9793   */\n      dup2\n        /* \"#utility.yul\":9785:9805   */\n      sub\n        /* \"#utility.yul\":9781:9782   */\n      0x00\n        /* \"#utility.yul\":9770:9779   */\n      dup4\n        /* \"#utility.yul\":9766:9783   */\n      add\n        /* \"#utility.yul\":9759:9806   */\n      mstore\n        /* \"#utility.yul\":9823:9954   */\n      tag_267\n        /* \"#utility.yul\":9949:9953   */\n      dup2\n        /* \"#utility.yul\":9823:9954   */\n      tag_231\n      jump\t// in\n    tag_267:\n        /* \"#utility.yul\":9815:9954   */\n      swap1\n      pop\n        /* \"#utility.yul\":9542:9961   */\n      swap2\n      swap1\n      pop\n      jump\t// out\n        /* \"#utility.yul\":9967:10386   */\n    tag_73:\n        /* \"#utility.yul\":10133:10137   */\n      0x00\n        /* \"#utility.yul\":10171:10173   */\n      0x20\n        /* \"#utility.yul\":10160:10169   */\n      dup3\n        /* \"#utility.yul\":10156:10174   */\n      add\n        /* \"#utility.yul\":10148:10174   */\n      swap1\n      pop\n        /* \"#utility.yul\":10220:10229   */\n      dup2\n        /* \"#utility.yul\":10214:10218   */\n      dup2\n        /* \"#utility.yul\":10210:10230   */\n      sub\n        /* \"#utility.yul\":10206:10207   */\n      0x00\n        /* \"#utility.yul\":10195:10204   */\n      dup4\n        /* \"#utility.yul\":10191:10208   */\n      add\n        /* \"#utility.yul\":10184:10231   */\n      mstore\n        /* \"#utility.yul\":10248:10379   */\n      tag_269\n        /* \"#utility.yul\":10374:10378   */\n      dup2\n        /* \"#utility.yul\":10248:10379   */\n      tag_236\n      jump\t// in\n    tag_269:\n        /* \"#utility.yul\":10240:10379   */\n      swap1\n      pop\n        /* \"#utility.yul\":9967:10386   */\n      swap2\n      swap1\n      pop\n      jump\t// out\n        /* \"#utility.yul\":10392:10614   */\n    tag_27:\n        /* \"#utility.yul\":10485:10489   */\n      0x00\n        /* \"#utility.yul\":10523:10525   */\n      0x20\n        /* \"#utility.yul\":10512:10521   */\n      dup3\n        /* \"#utility.yul\":10508:10526   */\n      add\n        /* \"#utility.yul\":10500:10526   */\n      swap1\n      pop\n        /* \"#utility.yul\":10536:10607   */\n      tag_271\n        /* \"#utility.yul\":10604:10605   */\n      0x00\n        /* \"#utility.yul\":10593:10602   */\n      dup4\n        /* \"#utility.yul\":10589:10606   */\n      add\n        /* \"#utility.yul\":10580:10586   */\n      dup5\n        /* \"#utility.yul\":10536:10607   */\n      tag_241\n      jump\t// in\n    tag_271:\n        /* \"#utility.yul\":10392:10614   */\n      swap3\n      swap2\n      pop\n      pop\n      jump\t// out\n        /* \"#utility.yul\":10701:10833   */\n    tag_187:\n        /* \"#utility.yul\":10768:10772   */\n      0x00\n        /* \"#utility.yul\":10791:10794   */\n      dup2\n        /* \"#utility.yul\":10783:10794   */\n      swap1\n      pop\n        /* \"#utility.yul\":10821:10825   */\n      0x20\n        /* \"#utility.yul\":10816:10819   */\n      dup3\n        /* \"#utility.yul\":10812:10826   */\n      add\n        /* \"#utility.yul\":10804:10826   */\n      swap1\n      pop\n        /* \"#utility.yul\":10701:10833   */\n      swap2\n      swap1\n      pop\n      jump\t// out\n        /* \"#utility.yul\":10839:10953   */\n    tag_183:\n        /* \"#utility.yul\":10906:10912   */\n      0x00\n        /* \"#utility.yul\":10940:10945   */\n      dup2\n        /* \"#utility.yul\":10934:10946   */\n      mload\n        /* \"#utility.yul\":10924:10946   */\n      swap1\n      pop\n        /* \"#utility.yul\":10839:10953   */\n      swap2\n      swap1\n      pop\n      jump\t// out\n        /* \"#utility.yul\":10959:11072   */\n    tag_193:\n        /* \"#utility.yul\":11029:11033   */\n      0x00\n        /* \"#utility.yul\":11061:11065   */\n      0x20\n        /* \"#utility.yul\":11056:11059   */\n      dup3\n        /* \"#utility.yul\":11052:11066   */\n      add\n        /* \"#utility.yul\":11044:11066   */\n      swap1\n      pop\n        /* \"#utility.yul\":10959:11072   */\n      swap2\n      swap1\n      pop\n      jump\t// out\n        /* \"#utility.yul\":11078:11262   */\n    tag_185:\n        /* \"#utility.yul\":11177:11188   */\n      0x00\n        /* \"#utility.yul\":11211:11217   */\n      dup3\n        /* \"#utility.yul\":11206:11209   */\n      dup3\n        /* \"#utility.yul\":11199:11218   */\n      mstore\n        /* \"#utility.yul\":11251:11255   */\n      0x20\n        /* \"#utility.yul\":11246:11249   */\n      dup3\n        /* \"#utility.yul\":11242:11256   */\n      add\n        /* \"#utility.yul\":11227:11256   */\n      swap1\n      pop\n        /* \"#utility.yul\":11078:11262   */\n      swap3\n      swap2\n      pop\n      pop\n      jump\t// out\n        /* \"#utility.yul\":11268:11415   */\n    tag_228:\n        /* \"#utility.yul\":11369:11380   */\n      0x00\n        /* \"#utility.yul\":11406:11409   */\n      dup2\n        /* \"#utility.yul\":11391:11409   */\n      swap1\n      pop\n        /* \"#utility.yul\":11268:11415   */\n      swap3\n      swap2\n      pop\n      pop\n      jump\t// out\n        /* \"#utility.yul\":11421:11590   */\n    tag_197:\n        /* \"#utility.yul\":11505:11516   */\n      0x00\n        /* \"#utility.yul\":11539:11545   */\n      dup3\n        /* \"#utility.yul\":11534:11537   */\n      dup3\n        /* \"#utility.yul\":11527:11546   */\n      mstore\n        /* \"#utility.yul\":11579:11583   */\n      0x20\n        /* \"#utility.yul\":11574:11577   */\n      dup3\n        /* \"#utility.yul\":11570:11584   */\n      add\n        /* \"#utility.yul\":11555:11584   */\n      swap1\n      pop\n        /* \"#utility.yul\":11421:11590   */\n      swap3\n      swap2\n      pop\n      pop\n      jump\t// out\n        /* \"#utility.yul\":11596:11901   */\n    tag_109:\n        /* \"#utility.yul\":11636:11639   */\n      0x00\n        /* \"#utility.yul\":11655:11675   */\n      tag_281\n        /* \"#utility.yul\":11673:11674   */\n      dup3\n        /* \"#utility.yul\":11655:11675   */\n      tag_244\n      jump\t// in\n    tag_281:\n        /* \"#utility.yul\":11650:11675   */\n      swap2\n      pop\n        /* \"#utility.yul\":11689:11709   */\n      tag_282\n        /* \"#utility.yul\":11707:11708   */\n      dup4\n        /* \"#utility.yul\":11689:11709   */\n      tag_244\n      jump\t// in\n    tag_282:\n        /* \"#utility.yul\":11684:11709   */\n      swap3\n      pop\n        /* \"#utility.yul\":11843:11844   */\n      dup3\n        /* \"#utility.yul\":11775:11841   */\n      0xffffffffffffffffffffffffffffffffffffffffffffffffffffffffffffffff\n        /* \"#utility.yul\":11771:11845   */\n      sub\n        /* \"#utility.yul\":11768:11769   */\n      dup3\n        /* \"#utility.yul\":11765:11846   */\n      gt\n        /* \"#utility.yul\":11762:11869   */\n      iszero\n      tag_283\n      jumpi\n        /* \"#utility.yul\":11849:11867   */\n      tag_284\n      tag_285\n      jump\t// in\n    tag_284:\n        /* \"#utility.yul\":11762:11869   */\n    tag_283:\n        /* \"#utility.yul\":11893:11894   */\n      dup3\n        /* \"#utility.yul\":11890:11891   */\n      dup3\n        /* \"#utility.yul\":11886:11895   */\n      add\n        /* \"#utility.yul\":11879:11895   */\n      swap1\n      pop\n        /* \"#utility.yul\":11596:11901   */\n      swap3\n      swap2\n      pop\n      pop\n      jump\t// out\n        /* \"#utility.yul\":11907:12255   */\n    tag_88:\n        /* \"#utility.yul\":11947:11954   */\n      0x00\n        /* \"#utility.yul\":11970:11990   */\n      tag_287\n        /* \"#utility.yul\":11988:11989   */\n      dup3\n        /* \"#utility.yul\":11970:11990   */\n      tag_244\n      jump\t// in\n    tag_287:\n        /* \"#utility.yul\":11965:11990   */\n      swap2\n      pop\n        /* \"#utility.yul\":12004:12024   */\n      tag_288\n        /* \"#utility.yul\":12022:12023   */\n      dup4\n        /* \"#utility.yul\":12004:12024   */\n      tag_244\n      jump\t// in\n    tag_288:\n        /* \"#utility.yul\":11999:12024   */\n      swap3\n      pop\n        /* \"#utility.yul\":12192:12193   */\n      dup2\n        /* \"#utility.yul\":12124:12190   */\n      0xffffffffffffffffffffffffffffffffffffffffffffffffffffffffffffffff\n        /* \"#utility.yul\":12120:12194   */\n      div\n        /* \"#utility.yul\":12117:12118   */\n      dup4\n        /* \"#utility.yul\":12114:12195   */\n      gt\n        /* \"#utility.yul\":12109:12110   */\n      dup3\n        /* \"#utility.yul\":12102:12111   */\n      iszero\n        /* \"#utility.yul\":12095:12112   */\n      iszero\n        /* \"#utility.yul\":12091:12196   */\n      and\n        /* \"#utility.yul\":12088:12219   */\n      iszero\n      tag_289\n      jumpi\n        /* \"#utility.yul\":12199:12217   */\n      tag_290\n      tag_285\n      jump\t// in\n    tag_290:\n        /* \"#utility.yul\":12088:12219   */\n    tag_289:\n        /* \"#utility.yul\":12247:12248   */\n      dup3\n        /* \"#utility.yul\":12244:12245   */\n      dup3\n        /* \"#utility.yul\":12240:12249   */\n      mul\n        /* \"#utility.yul\":12229:12249   */\n      swap1\n      pop\n        /* \"#utility.yul\":11907:12255   */\n      swap3\n      swap2\n      pop\n      pop\n      jump\t// out\n        /* \"#utility.yul\":12261:12357   */\n    tag_176:\n        /* \"#utility.yul\":12298:12305   */\n      0x00\n        /* \"#utility.yul\":12327:12351   */\n      tag_292\n        /* \"#utility.yul\":12345:12350   */\n      dup3\n        /* \"#utility.yul\":12327:12351   */\n      tag_293\n      jump\t// in\n    tag_292:\n        /* \"#utility.yul\":12316:12351   */\n      swap1\n      pop\n        /* \"#utility.yul\":12261:12357   */\n      swap2\n      swap1\n      pop\n      jump\t// out\n        /* \"#utility.yul\":12363:12489   */\n    tag_293:\n        /* \"#utility.yul\":12400:12407   */\n      0x00\n        /* \"#utility.yul\":12440:12482   */\n      0xffffffffffffffffffffffffffffffffffffffff\n        /* \"#utility.yul\":12433:12438   */\n      dup3\n        /* \"#utility.yul\":12429:12483   */\n      and\n        /* \"#utility.yul\":12418:12483   */\n      swap1\n      pop\n        /* \"#utility.yul\":12363:12489   */\n      swap2\n      swap1\n      pop\n      jump\t// out\n        /* \"#utility.yul\":12495:12572   */\n    tag_244:\n        /* \"#utility.yul\":12532:12539   */\n      0x00\n        /* \"#utility.yul\":12561:12566   */\n      dup2\n        /* \"#utility.yul\":12550:12566   */\n      swap1\n      pop\n        /* \"#utility.yul\":12495:12572   */\n      swap2\n      swap1\n      pop\n      jump\t// out\n        /* \"#utility.yul\":12578:12758   */\n    tag_285:\n        /* \"#utility.yul\":12626:12703   */\n      0x4e487b7100000000000000000000000000000000000000000000000000000000\n        /* \"#utility.yul\":12623:12624   */\n      0x00\n        /* \"#utility.yul\":12616:12704   */\n      mstore\n        /* \"#utility.yul\":12723:12727   */\n      0x11\n        /* \"#utility.yul\":12720:12721   */\n      0x04\n        /* \"#utility.yul\":12713:12728   */\n      mstore\n        /* \"#utility.yul\":12747:12751   */\n      0x24\n        /* \"#utility.yul\":12744:12745   */\n      0x00\n        /* \"#utility.yul\":12737:12752   */\n      revert\n        /* \"#utility.yul\":12887:13004   */\n    tag_164:\n        /* \"#utility.yul\":12996:12997   */\n      0x00\n        /* \"#utility.yul\":12993:12994   */\n      dup1\n        /* \"#utility.yul\":12986:12998   */\n      revert\n        /* \"#utility.yul\":13010:13192   */\n    tag_199:\n        /* \"#utility.yul\":13150:13184   */\n      0x7472616e7366657220616d6f756e74206d75737420626520706f736974697665\n        /* \"#utility.yul\":13146:13147   */\n      0x00\n        /* \"#utility.yul\":13138:13144   */\n      dup3\n        /* \"#utility.yul\":13134:13148   */\n      add\n        /* \"#utility.yul\":13127:13185   */\n      mstore\n        /* \"#utility.yul\":13010:13192   */\n      pop\n      jump\t// out\n        /* \"#utility.yul\":13198:13423   */\n    tag_204:\n        /* \"#utility.yul\":13338:13372   */\n      0x4f776e61626c653a206e6577206f776e657220697320746865207a65726f2061\n        /* \"#utility.yul\":13334:13335   */\n      0x00\n        /* \"#utility.yul\":13326:13332   */\n      dup3\n        /* \"#utility.yul\":13322:13336   */\n      add\n        /* \"#utility.yul\":13315:13373   */\n      mstore\n        /* \"#utility.yul\":13407:13415   */\n      0x6464726573730000000000000000000000000000000000000000000000000000\n        /* \"#utility.yul\":13402:13404   */\n      0x20\n        /* \"#utility.yul\":13394:13400   */\n      dup3\n        /* \"#utility.yul\":13390:13405   */\n      add\n        /* \"#utility.yul\":13383:13416   */\n      mstore\n        /* \"#utility.yul\":13198:13423   */\n      pop\n      jump\t// out\n        /* \"#utility.yul\":13429:13606   */\n    tag_209:\n        /* \"#utility.yul\":13569:13598   */\n      0x7472616e7366657220746f20636f6e7472616374206661696c65640000000000\n        /* \"#utility.yul\":13565:13566   */\n      0x00\n        /* \"#utility.yul\":13557:13563   */\n      dup3\n        /* \"#utility.yul\":13553:13567   */\n      add\n        /* \"#utility.yul\":13546:13599   */\n      mstore\n        /* \"#utility.yul\":13429:13606   */\n      pop\n      jump\t// out\n        /* \"#utility.yul\":13612:13789   */\n    tag_214:\n        /* \"#utility.yul\":13752:13781   */\n      0x4d75737420686176652073756666696369656e7420616d6f756e740000000000\n        /* \"#utility.yul\":13748:13749   */\n      0x00\n        /* \"#utility.yul\":13740:13746   */\n      dup3\n        /* \"#utility.yul\":13736:13750   */\n      add\n        /* \"#utility.yul\":13729:13782   */\n      mstore\n        /* \"#utility.yul\":13612:13789   */\n      pop\n      jump\t// out\n        /* \"#utility.yul\":13795:13977   */\n    tag_219:\n        /* \"#utility.yul\":13935:13969   */\n      0x4f776e61626c653a2063616c6c6572206973206e6f7420746865206f776e6572\n        /* \"#utility.yul\":13931:13932   */\n      0x00\n        /* \"#utility.yul\":13923:13929   */\n      dup3\n        /* \"#utility.yul\":13919:13933   */\n      add\n        /* \"#utility.yul\":13912:13970   */\n      mstore\n        /* \"#utility.yul\":13795:13977   */\n      pop\n      jump\t// out\n        /* \"#utility.yul\":13983:14147   */\n    tag_224:\n        /* \"#utility.yul\":14123:14139   */\n      0x496c6c6567616c20737461747573000000000000000000000000000000000000\n        /* \"#utility.yul\":14119:14120   */\n      0x00\n        /* \"#utility.yul\":14111:14117   */\n      dup3\n        /* \"#utility.yul\":14107:14121   */\n      add\n        /* \"#utility.yul\":14100:14140   */\n      mstore\n        /* \"#utility.yul\":13983:14147   */\n      pop\n      jump\t// out\n        /* \"#utility.yul\":14153:14267   */\n    tag_230:\n      pop\n      jump\t// out\n        /* \"#utility.yul\":14273:14454   */\n    tag_235:\n        /* \"#utility.yul\":14413:14446   */\n      0x5265656e7472616e637947756172643a207265656e7472616e742063616c6c00\n        /* \"#utility.yul\":14409:14410   */\n      0x00\n        /* \"#utility.yul\":14401:14407   */\n      dup3\n        /* \"#utility.yul\":14397:14411   */\n      add\n        /* \"#utility.yul\":14390:14447   */\n      mstore\n        /* \"#utility.yul\":14273:14454   */\n      pop\n      jump\t// out\n        /* \"#utility.yul\":14460:14625   */\n    tag_240:\n        /* \"#utility.yul\":14600:14617   */\n      0x7769746864726177206661696c65640000000000000000000000000000000000\n        /* \"#utility.yul\":14596:14597   */\n      0x00\n        /* \"#utility.yul\":14588:14594   */\n      dup3\n        /* \"#utility.yul\":14584:14598   */\n      add\n        /* \"#utility.yul\":14577:14618   */\n      mstore\n        /* \"#utility.yul\":14460:14625   */\n      pop\n      jump\t// out\n        /* \"#utility.yul\":14631:14753   */\n    tag_156:\n        /* \"#utility.yul\":14704:14728   */\n      tag_310\n        /* \"#utility.yul\":14722:14727   */\n      dup2\n        /* \"#utility.yul\":14704:14728   */\n      tag_176\n      jump\t// in\n    tag_310:\n        /* \"#utility.yul\":14697:14702   */\n      dup2\n        /* \"#utility.yul\":14694:14729   */\n      eq\n        /* \"#utility.yul\":14684:14747   */\n      tag_311\n      jumpi\n        /* \"#utility.yul\":14743:14744   */\n      0x00\n        /* \"#utility.yul\":14740:14741   */\n      dup1\n        /* \"#utility.yul\":14733:14745   */\n      revert\n        /* \"#utility.yul\":14684:14747   */\n    tag_311:\n        /* \"#utility.yul\":14631:14753   */\n      pop\n      jump\t// out\n        /* \"#utility.yul\":14759:14881   */\n    tag_160:\n        /* \"#utility.yul\":14832:14856   */\n      tag_313\n        /* \"#utility.yul\":14850:14855   */\n      dup2\n        /* \"#utility.yul\":14832:14856   */\n      tag_244\n      jump\t// in\n    tag_313:\n        /* \"#utility.yul\":14825:14830   */\n      dup2\n        /* \"#utility.yul\":14822:14857   */\n      eq\n        /* \"#utility.yul\":14812:14875   */\n      tag_314\n      jumpi\n        /* \"#utility.yul\":14871:14872   */\n      0x00\n        /* \"#utility.yul\":14868:14869   */\n      dup1\n        /* \"#utility.yul\":14861:14873   */\n      revert\n        /* \"#utility.yul\":14812:14875   */\n    tag_314:\n        /* \"#utility.yul\":14759:14881   */\n      pop\n      jump\t// out\n\n    auxdata: 0xa2646970667358221220f8946def417244daec6b8391c7363eec74b78b33e68ca01f3d90a2c43ad4692364736f6c63430008070033\n}\n",
				"bytecode": {
					"linkReferences": {},
					"object": "60806040523480156200001157600080fd5b506040516200154138038062001541833981810160405281019062000037919062000263565b620000576200004b620000d260201b60201c565b620000da60201b60201c565b60018081905550600067ffffffffffffffff8111156200007c576200007b6200029f565b5b604051908082528060200260200182016040528015620000ab5781602001602082028036833780820191505090505b5060039080519060200190620000c39291906200019e565b508060028190555050620002ed565b600033905090565b60008060009054906101000a900473ffffffffffffffffffffffffffffffffffffffff169050816000806101000a81548173ffffffffffffffffffffffffffffffffffffffff021916908373ffffffffffffffffffffffffffffffffffffffff1602179055508173ffffffffffffffffffffffffffffffffffffffff168173ffffffffffffffffffffffffffffffffffffffff167f8be0079c531659141344cd1fd0a4f28419497f9722a3daafe3b4186f6b6457e060405160405180910390a35050565b8280548282559060005260206000209081019282156200021a579160200282015b82811115620002195782518260006101000a81548173ffffffffffffffffffffffffffffffffffffffff021916908373ffffffffffffffffffffffffffffffffffffffff16021790555091602001919060010190620001bf565b5b5090506200022991906200022d565b5090565b5b80821115620002485760008160009055506001016200022e565b5090565b6000815190506200025d81620002d3565b92915050565b6000602082840312156200027c576200027b620002ce565b5b60006200028c848285016200024c565b91505092915050565b6000819050919050565b7f4e487b7100000000000000000000000000000000000000000000000000000000600052604160045260246000fd5b600080fd5b620002de8162000295565b8114620002ea57600080fd5b50565b61124480620002fd6000396000f3fe6080604052600436106100955760003560e01c8063d01f63f511610059578063d01f63f514610150578063d36df5a61461017b578063e1254fba146101a6578063e680241f146101e3578063f2fde38b1461020c5761009c565b80632e1a7d4d1461009e5780635fb98107146100c7578063715018a6146100f25780638ac6b7ba146101095780638da5cb5b146101255761009c565b3661009c57005b005b3480156100aa57600080fd5b506100c560048036038101906100c09190610b59565b610235565b005b3480156100d357600080fd5b506100dc610326565b6040516100e99190610edf565b60405180910390f35b3480156100fe57600080fd5b5061010761032e565b005b610123600480360381019061011e9190610b59565b610342565b005b34801561013157600080fd5b5061013a610756565b6040516101479190610d79565b60405180910390f35b34801561015c57600080fd5b5061016561077f565b6040516101729190610dbd565b60405180910390f35b34801561018757600080fd5b5061019061080d565b60405161019d9190610edf565b60405180910390f35b3480156101b257600080fd5b506101cd60048036038101906101c89190610b2c565b610817565b6040516101da9190610edf565b60405180910390f35b3480156101ef57600080fd5b5061020a60048036038101906102059190610b59565b610863565b005b34801561021857600080fd5b50610233600480360381019061022e9190610b2c565b610875565b005b61023d6108f9565b60003373ffffffffffffffffffffffffffffffffffffffff168260405161026390610d64565b60006040518083038185875af1925050503d80600081146102a0576040519150601f19603f3d011682016040523d82523d6000602084013e6102a5565b606091505b50509050806102e9576040517f08c379a00000000000000000000000000000000000000000000000000000000081526004016102e090610ebf565b60405180910390fd5b7f5e3e3ac48142223910fa7d0c0fb4e15e6aac9c9cbc7a8dc20aa5dc9227d28683308360405161031a929190610d94565b60405180910390a15050565b600047905090565b6103366108f9565b6103406000610977565b565b61034a610a3b565b8061035361080d565b61035d9190610fa5565b34101561039f576040517f08c379a000000000000000000000000000000000000000000000000000000000815260040161039690610ddf565b60405180910390fd5b806103a861080d565b6103b29190610fa5565b3373ffffffffffffffffffffffffffffffffffffffff1631101561040b576040517f08c379a000000000000000000000000000000000000000000000000000000000815260040161040290610e3f565b60405180910390fd5b600460003373ffffffffffffffffffffffffffffffffffffffff1673ffffffffffffffffffffffffffffffffffffffff16815260200190815260200160002060000160009054906101000a900460ff168061050757506000600460003373ffffffffffffffffffffffffffffffffffffffff1673ffffffffffffffffffffffffffffffffffffffff16815260200190815260200160002060010154148015610506575060001515600460003373ffffffffffffffffffffffffffffffffffffffff1673ffffffffffffffffffffffffffffffffffffffff16815260200190815260200160002060000160009054906101000a900460ff161515145b5b610546576040517f08c379a000000000000000000000000000000000000000000000000000000000815260040161053d90610e7f565b60405180910390fd5b6000600460003373ffffffffffffffffffffffffffffffffffffffff1673ffffffffffffffffffffffffffffffffffffffff168152602001908152602001600020600101541480156105eb575060001515600460003373ffffffffffffffffffffffffffffffffffffffff1673ffffffffffffffffffffffffffffffffffffffff16815260200190815260200160002060000160009054906101000a900460ff161515145b156105fa576105f933610a8b565b5b8061060361080d565b61060d9190610fa5565b600460003373ffffffffffffffffffffffffffffffffffffffff1673ffffffffffffffffffffffffffffffffffffffff168152602001908152602001600020600101600082825461065e9190610f4f565b9250508190555060003073ffffffffffffffffffffffffffffffffffffffff163460405161068b90610d64565b60006040518083038185875af1925050503d80600081146106c8576040519150601f19603f3d011682016040523d82523d6000602084013e6106cd565b606091505b5050905080610711576040517f08c379a000000000000000000000000000000000000000000000000000000000815260040161070890610e1f565b60405180910390fd5b7f5e3e3ac48142223910fa7d0c0fb4e15e6aac9c9cbc7a8dc20aa5dc9227d286833334604051610742929190610d94565b60405180910390a150610753610af1565b50565b60008060009054906101000a900473ffffffffffffffffffffffffffffffffffffffff16905090565b6060600380548060200260200160405190810160405280929190818152602001828054801561080357602002820191906000526020600020905b8160009054906101000a900473ffffffffffffffffffffffffffffffffffffffff1673ffffffffffffffffffffffffffffffffffffffff16815260200190600101908083116107b9575b5050505050905090565b6000600254905090565b6000600460008373ffffffffffffffffffffffffffffffffffffffff1673ffffffffffffffffffffffffffffffffffffffff168152602001908152602001600020600101549050919050565b61086b6108f9565b8060028190555050565b61087d6108f9565b600073ffffffffffffffffffffffffffffffffffffffff168173ffffffffffffffffffffffffffffffffffffffff1614156108ed576040517f08c379a00000000000000000000000000000000000000000000000000000000081526004016108e490610dff565b60405180910390fd5b6108f681610977565b50565b610901610afa565b73ffffffffffffffffffffffffffffffffffffffff1661091f610756565b73ffffffffffffffffffffffffffffffffffffffff1614610975576040517f08c379a000000000000000000000000000000000000000000000000000000000815260040161096c90610e5f565b60405180910390fd5b565b60008060009054906101000a900473ffffffffffffffffffffffffffffffffffffffff169050816000806101000a81548173ffffffffffffffffffffffffffffffffffffffff021916908373ffffffffffffffffffffffffffffffffffffffff1602179055508173ffffffffffffffffffffffffffffffffffffffff168173ffffffffffffffffffffffffffffffffffffffff167f8be0079c531659141344cd1fd0a4f28419497f9722a3daafe3b4186f6b6457e060405160405180910390a35050565b60026001541415610a81576040517f08c379a0000000000000000000000000000000000000000000000000000000008152600401610a7890610e9f565b60405180910390fd5b6002600181905550565b6003819080600181540180825580915050600190039060005260206000200160009091909190916101000a81548173ffffffffffffffffffffffffffffffffffffffff021916908373ffffffffffffffffffffffffffffffffffffffff16021790555050565b60018081905550565b600033905090565b600081359050610b11816111e0565b92915050565b600081359050610b26816111f7565b92915050565b600060208284031215610b4257610b4161106a565b5b6000610b5084828501610b02565b91505092915050565b600060208284031215610b6f57610b6e61106a565b5b6000610b7d84828501610b17565b91505092915050565b6000610b928383610b9e565b60208301905092915050565b610ba781610fff565b82525050565b610bb681610fff565b82525050565b6000610bc782610f0a565b610bd18185610f22565b9350610bdc83610efa565b8060005b83811015610c0d578151610bf48882610b86565b9750610bff83610f15565b925050600181019050610be0565b5085935050505092915050565b6000610c27602083610f3e565b9150610c328261106f565b602082019050919050565b6000610c4a602683610f3e565b9150610c5582611098565b604082019050919050565b6000610c6d601b83610f3e565b9150610c78826110e7565b602082019050919050565b6000610c90601b83610f3e565b9150610c9b82611110565b602082019050919050565b6000610cb3602083610f3e565b9150610cbe82611139565b602082019050919050565b6000610cd6600e83610f3e565b9150610ce182611162565b602082019050919050565b6000610cf9600083610f33565b9150610d048261118b565b600082019050919050565b6000610d1c601f83610f3e565b9150610d278261118e565b602082019050919050565b6000610d3f600f83610f3e565b9150610d4a826111b7565b602082019050919050565b610d5e81611031565b82525050565b6000610d6f82610cec565b9150819050919050565b6000602082019050610d8e6000830184610bad565b92915050565b6000604082019050610da96000830185610bad565b610db66020830184610d55565b9392505050565b60006020820190508181036000830152610dd78184610bbc565b905092915050565b60006020820190508181036000830152610df881610c1a565b9050919050565b60006020820190508181036000830152610e1881610c3d565b9050919050565b60006020820190508181036000830152610e3881610c60565b9050919050565b60006020820190508181036000830152610e5881610c83565b9050919050565b60006020820190508181036000830152610e7881610ca6565b9050919050565b60006020820190508181036000830152610e9881610cc9565b9050919050565b60006020820190508181036000830152610eb881610d0f565b9050919050565b60006020820190508181036000830152610ed881610d32565b9050919050565b6000602082019050610ef46000830184610d55565b92915050565b6000819050602082019050919050565b600081519050919050565b6000602082019050919050565b600082825260208201905092915050565b600081905092915050565b600082825260208201905092915050565b6000610f5a82611031565b9150610f6583611031565b9250827fffffffffffffffffffffffffffffffffffffffffffffffffffffffffffffffff03821115610f9a57610f9961103b565b5b828201905092915050565b6000610fb082611031565b9150610fbb83611031565b9250817fffffffffffffffffffffffffffffffffffffffffffffffffffffffffffffffff0483118215151615610ff457610ff361103b565b5b828202905092915050565b600061100a82611011565b9050919050565b600073ffffffffffffffffffffffffffffffffffffffff82169050919050565b6000819050919050565b7f4e487b7100000000000000000000000000000000000000000000000000000000600052601160045260246000fd5b600080fd5b7f7472616e7366657220616d6f756e74206d75737420626520706f736974697665600082015250565b7f4f776e61626c653a206e6577206f776e657220697320746865207a65726f206160008201527f6464726573730000000000000000000000000000000000000000000000000000602082015250565b7f7472616e7366657220746f20636f6e7472616374206661696c65640000000000600082015250565b7f4d75737420686176652073756666696369656e7420616d6f756e740000000000600082015250565b7f4f776e61626c653a2063616c6c6572206973206e6f7420746865206f776e6572600082015250565b7f496c6c6567616c20737461747573000000000000000000000000000000000000600082015250565b50565b7f5265656e7472616e637947756172643a207265656e7472616e742063616c6c00600082015250565b7f7769746864726177206661696c65640000000000000000000000000000000000600082015250565b6111e981610fff565b81146111f457600080fd5b50565b61120081611031565b811461120b57600080fd5b5056fea2646970667358221220f8946def417244daec6b8391c7363eec74b78b33e68ca01f3d90a2c43ad4692364736f6c63430008070033",
					"opcodes": "PUSH1 0x80 PUSH1 0x40 MSTORE CALLVALUE DUP1 ISZERO PUSH3 0x11 JUMPI PUSH1 0x0 DUP1 REVERT JUMPDEST POP PUSH1 0x40 MLOAD PUSH3 0x1541 CODESIZE SUB DUP1 PUSH3 0x1541 DUP4 CODECOPY DUP2 DUP2 ADD PUSH1 0x40 MSTORE DUP2 ADD SWAP1 PUSH3 0x37 SWAP2 SWAP1 PUSH3 0x263 JUMP JUMPDEST PUSH3 0x57 PUSH3 0x4B PUSH3 0xD2 PUSH1 0x20 SHL PUSH1 0x20 SHR JUMP JUMPDEST PUSH3 0xDA PUSH1 0x20 SHL PUSH1 0x20 SHR JUMP JUMPDEST PUSH1 0x1 DUP1 DUP2 SWAP1 SSTORE POP PUSH1 0x0 PUSH8 0xFFFFFFFFFFFFFFFF DUP2 GT ISZERO PUSH3 0x7C JUMPI PUSH3 0x7B PUSH3 0x29F JUMP JUMPDEST JUMPDEST PUSH1 0x40 MLOAD SWAP1 DUP1 DUP3 MSTORE DUP1 PUSH1 0x20 MUL PUSH1 0x20 ADD DUP3 ADD PUSH1 0x40 MSTORE DUP1 ISZERO PUSH3 0xAB JUMPI DUP2 PUSH1 0x20 ADD PUSH1 0x20 DUP3 MUL DUP1 CALLDATASIZE DUP4 CALLDATACOPY DUP1 DUP3 ADD SWAP2 POP POP SWAP1 POP JUMPDEST POP PUSH1 0x3 SWAP1 DUP1 MLOAD SWAP1 PUSH1 0x20 ADD SWAP1 PUSH3 0xC3 SWAP3 SWAP2 SWAP1 PUSH3 0x19E JUMP JUMPDEST POP DUP1 PUSH1 0x2 DUP2 SWAP1 SSTORE POP POP PUSH3 0x2ED JUMP JUMPDEST PUSH1 0x0 CALLER SWAP1 POP SWAP1 JUMP JUMPDEST PUSH1 0x0 DUP1 PUSH1 0x0 SWAP1 SLOAD SWAP1 PUSH2 0x100 EXP SWAP1 DIV PUSH20 0xFFFFFFFFFFFFFFFFFFFFFFFFFFFFFFFFFFFFFFFF AND SWAP1 POP DUP2 PUSH1 0x0 DUP1 PUSH2 0x100 EXP DUP2 SLOAD DUP2 PUSH20 0xFFFFFFFFFFFFFFFFFFFFFFFFFFFFFFFFFFFFFFFF MUL NOT AND SWAP1 DUP4 PUSH20 0xFFFFFFFFFFFFFFFFFFFFFFFFFFFFFFFFFFFFFFFF AND MUL OR SWAP1 SSTORE POP DUP2 PUSH20 0xFFFFFFFFFFFFFFFFFFFFFFFFFFFFFFFFFFFFFFFF AND DUP2 PUSH20 0xFFFFFFFFFFFFFFFFFFFFFFFFFFFFFFFFFFFFFFFF AND PUSH32 0x8BE0079C531659141344CD1FD0A4F28419497F9722A3DAAFE3B4186F6B6457E0 PUSH1 0x40 MLOAD PUSH1 0x40 MLOAD DUP1 SWAP2 SUB SWAP1 LOG3 POP POP JUMP JUMPDEST DUP3 DUP1 SLOAD DUP3 DUP3 SSTORE SWAP1 PUSH1 0x0 MSTORE PUSH1 0x20 PUSH1 0x0 KECCAK256 SWAP1 DUP2 ADD SWAP3 DUP3 ISZERO PUSH3 0x21A JUMPI SWAP2 PUSH1 0x20 MUL DUP3 ADD JUMPDEST DUP3 DUP2 GT ISZERO PUSH3 0x219 JUMPI DUP3 MLOAD DUP3 PUSH1 0x0 PUSH2 0x100 EXP DUP2 SLOAD DUP2 PUSH20 0xFFFFFFFFFFFFFFFFFFFFFFFFFFFFFFFFFFFFFFFF MUL NOT AND SWAP1 DUP4 PUSH20 0xFFFFFFFFFFFFFFFFFFFFFFFFFFFFFFFFFFFFFFFF AND MUL OR SWAP1 SSTORE POP SWAP2 PUSH1 0x20 ADD SWAP2 SWAP1 PUSH1 0x1 ADD SWAP1 PUSH3 0x1BF JUMP JUMPDEST JUMPDEST POP SWAP1 POP PUSH3 0x229 SWAP2 SWAP1 PUSH3 0x22D JUMP JUMPDEST POP SWAP1 JUMP JUMPDEST JUMPDEST DUP1 DUP3 GT ISZERO PUSH3 0x248 JUMPI PUSH1 0x0 DUP2 PUSH1 0x0 SWAP1 SSTORE POP PUSH1 0x1 ADD PUSH3 0x22E JUMP JUMPDEST POP SWAP1 JUMP JUMPDEST PUSH1 0x0 DUP2 MLOAD SWAP1 POP PUSH3 0x25D DUP2 PUSH3 0x2D3 JUMP JUMPDEST SWAP3 SWAP2 POP POP JUMP JUMPDEST PUSH1 0x0 PUSH1 0x20 DUP3 DUP5 SUB SLT ISZERO PUSH3 0x27C JUMPI PUSH3 0x27B PUSH3 0x2CE JUMP JUMPDEST JUMPDEST PUSH1 0x0 PUSH3 0x28C DUP5 DUP3 DUP6 ADD PUSH3 0x24C JUMP JUMPDEST SWAP2 POP POP SWAP3 SWAP2 POP POP JUMP JUMPDEST PUSH1 0x0 DUP2 SWAP1 POP SWAP2 SWAP1 POP JUMP JUMPDEST PUSH32 0x4E487B7100000000000000000000000000000000000000000000000000000000 PUSH1 0x0 MSTORE PUSH1 0x41 PUSH1 0x4 MSTORE PUSH1 0x24 PUSH1 0x0 REVERT JUMPDEST PUSH1 0x0 DUP1 REVERT JUMPDEST PUSH3 0x2DE DUP2 PUSH3 0x295 JUMP JUMPDEST DUP2 EQ PUSH3 0x2EA JUMPI PUSH1 0x0 DUP1 REVERT JUMPDEST POP JUMP JUMPDEST PUSH2 0x1244 DUP1 PUSH3 0x2FD PUSH1 0x0 CODECOPY PUSH1 0x0 RETURN INVALID PUSH1 0x80 PUSH1 0x40 MSTORE PUSH1 0x4 CALLDATASIZE LT PUSH2 0x95 JUMPI PUSH1 0x0 CALLDATALOAD PUSH1 0xE0 SHR DUP1 PUSH4 0xD01F63F5 GT PUSH2 0x59 JUMPI DUP1 PUSH4 0xD01F63F5 EQ PUSH2 0x150 JUMPI DUP1 PUSH4 0xD36DF5A6 EQ PUSH2 0x17B JUMPI DUP1 PUSH4 0xE1254FBA EQ PUSH2 0x1A6 JUMPI DUP1 PUSH4 0xE680241F EQ PUSH2 0x1E3 JUMPI DUP1 PUSH4 0xF2FDE38B EQ PUSH2 0x20C JUMPI PUSH2 0x9C JUMP JUMPDEST DUP1 PUSH4 0x2E1A7D4D EQ PUSH2 0x9E JUMPI DUP1 PUSH4 0x5FB98107 EQ PUSH2 0xC7 JUMPI DUP1 PUSH4 0x715018A6 EQ PUSH2 0xF2 JUMPI DUP1 PUSH4 0x8AC6B7BA EQ PUSH2 0x109 JUMPI DUP1 PUSH4 0x8DA5CB5B EQ PUSH2 0x125 JUMPI PUSH2 0x9C JUMP JUMPDEST CALLDATASIZE PUSH2 0x9C JUMPI STOP JUMPDEST STOP JUMPDEST CALLVALUE DUP1 ISZERO PUSH2 0xAA JUMPI PUSH1 0x0 DUP1 REVERT JUMPDEST POP PUSH2 0xC5 PUSH1 0x4 DUP1 CALLDATASIZE SUB DUP2 ADD SWAP1 PUSH2 0xC0 SWAP2 SWAP1 PUSH2 0xB59 JUMP JUMPDEST PUSH2 0x235 JUMP JUMPDEST STOP JUMPDEST CALLVALUE DUP1 ISZERO PUSH2 0xD3 JUMPI PUSH1 0x0 DUP1 REVERT JUMPDEST POP PUSH2 0xDC PUSH2 0x326 JUMP JUMPDEST PUSH1 0x40 MLOAD PUSH2 0xE9 SWAP2 SWAP1 PUSH2 0xEDF JUMP JUMPDEST PUSH1 0x40 MLOAD DUP1 SWAP2 SUB SWAP1 RETURN JUMPDEST CALLVALUE DUP1 ISZERO PUSH2 0xFE JUMPI PUSH1 0x0 DUP1 REVERT JUMPDEST POP PUSH2 0x107 PUSH2 0x32E JUMP JUMPDEST STOP JUMPDEST PUSH2 0x123 PUSH1 0x4 DUP1 CALLDATASIZE SUB DUP2 ADD SWAP1 PUSH2 0x11E SWAP2 SWAP1 PUSH2 0xB59 JUMP JUMPDEST PUSH2 0x342 JUMP JUMPDEST STOP JUMPDEST CALLVALUE DUP1 ISZERO PUSH2 0x131 JUMPI PUSH1 0x0 DUP1 REVERT JUMPDEST POP PUSH2 0x13A PUSH2 0x756 JUMP JUMPDEST PUSH1 0x40 MLOAD PUSH2 0x147 SWAP2 SWAP1 PUSH2 0xD79 JUMP JUMPDEST PUSH1 0x40 MLOAD DUP1 SWAP2 SUB SWAP1 RETURN JUMPDEST CALLVALUE DUP1 ISZERO PUSH2 0x15C JUMPI PUSH1 0x0 DUP1 REVERT JUMPDEST POP PUSH2 0x165 PUSH2 0x77F JUMP JUMPDEST PUSH1 0x40 MLOAD PUSH2 0x172 SWAP2 SWAP1 PUSH2 0xDBD JUMP JUMPDEST PUSH1 0x40 MLOAD DUP1 SWAP2 SUB SWAP1 RETURN JUMPDEST CALLVALUE DUP1 ISZERO PUSH2 0x187 JUMPI PUSH1 0x0 DUP1 REVERT JUMPDEST POP PUSH2 0x190 PUSH2 0x80D JUMP JUMPDEST PUSH1 0x40 MLOAD PUSH2 0x19D SWAP2 SWAP1 PUSH2 0xEDF JUMP JUMPDEST PUSH1 0x40 MLOAD DUP1 SWAP2 SUB SWAP1 RETURN JUMPDEST CALLVALUE DUP1 ISZERO PUSH2 0x1B2 JUMPI PUSH1 0x0 DUP1 REVERT JUMPDEST POP PUSH2 0x1CD PUSH1 0x4 DUP1 CALLDATASIZE SUB DUP2 ADD SWAP1 PUSH2 0x1C8 SWAP2 SWAP1 PUSH2 0xB2C JUMP JUMPDEST PUSH2 0x817 JUMP JUMPDEST PUSH1 0x40 MLOAD PUSH2 0x1DA SWAP2 SWAP1 PUSH2 0xEDF JUMP JUMPDEST PUSH1 0x40 MLOAD DUP1 SWAP2 SUB SWAP1 RETURN JUMPDEST CALLVALUE DUP1 ISZERO PUSH2 0x1EF JUMPI PUSH1 0x0 DUP1 REVERT JUMPDEST POP PUSH2 0x20A PUSH1 0x4 DUP1 CALLDATASIZE SUB DUP2 ADD SWAP1 PUSH2 0x205 SWAP2 SWAP1 PUSH2 0xB59 JUMP JUMPDEST PUSH2 0x863 JUMP JUMPDEST STOP JUMPDEST CALLVALUE DUP1 ISZERO PUSH2 0x218 JUMPI PUSH1 0x0 DUP1 REVERT JUMPDEST POP PUSH2 0x233 PUSH1 0x4 DUP1 CALLDATASIZE SUB DUP2 ADD SWAP1 PUSH2 0x22E SWAP2 SWAP1 PUSH2 0xB2C JUMP JUMPDEST PUSH2 0x875 JUMP JUMPDEST STOP JUMPDEST PUSH2 0x23D PUSH2 0x8F9 JUMP JUMPDEST PUSH1 0x0 CALLER PUSH20 0xFFFFFFFFFFFFFFFFFFFFFFFFFFFFFFFFFFFFFFFF AND DUP3 PUSH1 0x40 MLOAD PUSH2 0x263 SWAP1 PUSH2 0xD64 JUMP JUMPDEST PUSH1 0x0 PUSH1 0x40 MLOAD DUP1 DUP4 SUB DUP2 DUP6 DUP8 GAS CALL SWAP3 POP POP POP RETURNDATASIZE DUP1 PUSH1 0x0 DUP2 EQ PUSH2 0x2A0 JUMPI PUSH1 0x40 MLOAD SWAP2 POP PUSH1 0x1F NOT PUSH1 0x3F RETURNDATASIZE ADD AND DUP3 ADD PUSH1 0x40 MSTORE RETURNDATASIZE DUP3 MSTORE RETURNDATASIZE PUSH1 0x0 PUSH1 0x20 DUP5 ADD RETURNDATACOPY PUSH2 0x2A5 JUMP JUMPDEST PUSH1 0x60 SWAP2 POP JUMPDEST POP POP SWAP1 POP DUP1 PUSH2 0x2E9 JUMPI PUSH1 0x40 MLOAD PUSH32 0x8C379A000000000000000000000000000000000000000000000000000000000 DUP2 MSTORE PUSH1 0x4 ADD PUSH2 0x2E0 SWAP1 PUSH2 0xEBF JUMP JUMPDEST PUSH1 0x40 MLOAD DUP1 SWAP2 SUB SWAP1 REVERT JUMPDEST PUSH32 0x5E3E3AC48142223910FA7D0C0FB4E15E6AAC9C9CBC7A8DC20AA5DC9227D28683 ADDRESS DUP4 PUSH1 0x40 MLOAD PUSH2 0x31A SWAP3 SWAP2 SWAP1 PUSH2 0xD94 JUMP JUMPDEST PUSH1 0x40 MLOAD DUP1 SWAP2 SUB SWAP1 LOG1 POP POP JUMP JUMPDEST PUSH1 0x0 SELFBALANCE SWAP1 POP SWAP1 JUMP JUMPDEST PUSH2 0x336 PUSH2 0x8F9 JUMP JUMPDEST PUSH2 0x340 PUSH1 0x0 PUSH2 0x977 JUMP JUMPDEST JUMP JUMPDEST PUSH2 0x34A PUSH2 0xA3B JUMP JUMPDEST DUP1 PUSH2 0x353 PUSH2 0x80D JUMP JUMPDEST PUSH2 0x35D SWAP2 SWAP1 PUSH2 0xFA5 JUMP JUMPDEST CALLVALUE LT ISZERO PUSH2 0x39F JUMPI PUSH1 0x40 MLOAD PUSH32 0x8C379A000000000000000000000000000000000000000000000000000000000 DUP2 MSTORE PUSH1 0x4 ADD PUSH2 0x396 SWAP1 PUSH2 0xDDF JUMP JUMPDEST PUSH1 0x40 MLOAD DUP1 SWAP2 SUB SWAP1 REVERT JUMPDEST DUP1 PUSH2 0x3A8 PUSH2 0x80D JUMP JUMPDEST PUSH2 0x3B2 SWAP2 SWAP1 PUSH2 0xFA5 JUMP JUMPDEST CALLER PUSH20 0xFFFFFFFFFFFFFFFFFFFFFFFFFFFFFFFFFFFFFFFF AND BALANCE LT ISZERO PUSH2 0x40B JUMPI PUSH1 0x40 MLOAD PUSH32 0x8C379A000000000000000000000000000000000000000000000000000000000 DUP2 MSTORE PUSH1 0x4 ADD PUSH2 0x402 SWAP1 PUSH2 0xE3F JUMP JUMPDEST PUSH1 0x40 MLOAD DUP1 SWAP2 SUB SWAP1 REVERT JUMPDEST PUSH1 0x4 PUSH1 0x0 CALLER PUSH20 0xFFFFFFFFFFFFFFFFFFFFFFFFFFFFFFFFFFFFFFFF AND PUSH20 0xFFFFFFFFFFFFFFFFFFFFFFFFFFFFFFFFFFFFFFFF AND DUP2 MSTORE PUSH1 0x20 ADD SWAP1 DUP2 MSTORE PUSH1 0x20 ADD PUSH1 0x0 KECCAK256 PUSH1 0x0 ADD PUSH1 0x0 SWAP1 SLOAD SWAP1 PUSH2 0x100 EXP SWAP1 DIV PUSH1 0xFF AND DUP1 PUSH2 0x507 JUMPI POP PUSH1 0x0 PUSH1 0x4 PUSH1 0x0 CALLER PUSH20 0xFFFFFFFFFFFFFFFFFFFFFFFFFFFFFFFFFFFFFFFF AND PUSH20 0xFFFFFFFFFFFFFFFFFFFFFFFFFFFFFFFFFFFFFFFF AND DUP2 MSTORE PUSH1 0x20 ADD SWAP1 DUP2 MSTORE PUSH1 0x20 ADD PUSH1 0x0 KECCAK256 PUSH1 0x1 ADD SLOAD EQ DUP1 ISZERO PUSH2 0x506 JUMPI POP PUSH1 0x0 ISZERO ISZERO PUSH1 0x4 PUSH1 0x0 CALLER PUSH20 0xFFFFFFFFFFFFFFFFFFFFFFFFFFFFFFFFFFFFFFFF AND PUSH20 0xFFFFFFFFFFFFFFFFFFFFFFFFFFFFFFFFFFFFFFFF AND DUP2 MSTORE PUSH1 0x20 ADD SWAP1 DUP2 MSTORE PUSH1 0x20 ADD PUSH1 0x0 KECCAK256 PUSH1 0x0 ADD PUSH1 0x0 SWAP1 SLOAD SWAP1 PUSH2 0x100 EXP SWAP1 DIV PUSH1 0xFF AND ISZERO ISZERO EQ JUMPDEST JUMPDEST PUSH2 0x546 JUMPI PUSH1 0x40 MLOAD PUSH32 0x8C379A000000000000000000000000000000000000000000000000000000000 DUP2 MSTORE PUSH1 0x4 ADD PUSH2 0x53D SWAP1 PUSH2 0xE7F JUMP JUMPDEST PUSH1 0x40 MLOAD DUP1 SWAP2 SUB SWAP1 REVERT JUMPDEST PUSH1 0x0 PUSH1 0x4 PUSH1 0x0 CALLER PUSH20 0xFFFFFFFFFFFFFFFFFFFFFFFFFFFFFFFFFFFFFFFF AND PUSH20 0xFFFFFFFFFFFFFFFFFFFFFFFFFFFFFFFFFFFFFFFF AND DUP2 MSTORE PUSH1 0x20 ADD SWAP1 DUP2 MSTORE PUSH1 0x20 ADD PUSH1 0x0 KECCAK256 PUSH1 0x1 ADD SLOAD EQ DUP1 ISZERO PUSH2 0x5EB JUMPI POP PUSH1 0x0 ISZERO ISZERO PUSH1 0x4 PUSH1 0x0 CALLER PUSH20 0xFFFFFFFFFFFFFFFFFFFFFFFFFFFFFFFFFFFFFFFF AND PUSH20 0xFFFFFFFFFFFFFFFFFFFFFFFFFFFFFFFFFFFFFFFF AND DUP2 MSTORE PUSH1 0x20 ADD SWAP1 DUP2 MSTORE PUSH1 0x20 ADD PUSH1 0x0 KECCAK256 PUSH1 0x0 ADD PUSH1 0x0 SWAP1 SLOAD SWAP1 PUSH2 0x100 EXP SWAP1 DIV PUSH1 0xFF AND ISZERO ISZERO EQ JUMPDEST ISZERO PUSH2 0x5FA JUMPI PUSH2 0x5F9 CALLER PUSH2 0xA8B JUMP JUMPDEST JUMPDEST DUP1 PUSH2 0x603 PUSH2 0x80D JUMP JUMPDEST PUSH2 0x60D SWAP2 SWAP1 PUSH2 0xFA5 JUMP JUMPDEST PUSH1 0x4 PUSH1 0x0 CALLER PUSH20 0xFFFFFFFFFFFFFFFFFFFFFFFFFFFFFFFFFFFFFFFF AND PUSH20 0xFFFFFFFFFFFFFFFFFFFFFFFFFFFFFFFFFFFFFFFF AND DUP2 MSTORE PUSH1 0x20 ADD SWAP1 DUP2 MSTORE PUSH1 0x20 ADD PUSH1 0x0 KECCAK256 PUSH1 0x1 ADD PUSH1 0x0 DUP3 DUP3 SLOAD PUSH2 0x65E SWAP2 SWAP1 PUSH2 0xF4F JUMP JUMPDEST SWAP3 POP POP DUP2 SWAP1 SSTORE POP PUSH1 0x0 ADDRESS PUSH20 0xFFFFFFFFFFFFFFFFFFFFFFFFFFFFFFFFFFFFFFFF AND CALLVALUE PUSH1 0x40 MLOAD PUSH2 0x68B SWAP1 PUSH2 0xD64 JUMP JUMPDEST PUSH1 0x0 PUSH1 0x40 MLOAD DUP1 DUP4 SUB DUP2 DUP6 DUP8 GAS CALL SWAP3 POP POP POP RETURNDATASIZE DUP1 PUSH1 0x0 DUP2 EQ PUSH2 0x6C8 JUMPI PUSH1 0x40 MLOAD SWAP2 POP PUSH1 0x1F NOT PUSH1 0x3F RETURNDATASIZE ADD AND DUP3 ADD PUSH1 0x40 MSTORE RETURNDATASIZE DUP3 MSTORE RETURNDATASIZE PUSH1 0x0 PUSH1 0x20 DUP5 ADD RETURNDATACOPY PUSH2 0x6CD JUMP JUMPDEST PUSH1 0x60 SWAP2 POP JUMPDEST POP POP SWAP1 POP DUP1 PUSH2 0x711 JUMPI PUSH1 0x40 MLOAD PUSH32 0x8C379A000000000000000000000000000000000000000000000000000000000 DUP2 MSTORE PUSH1 0x4 ADD PUSH2 0x708 SWAP1 PUSH2 0xE1F JUMP JUMPDEST PUSH1 0x40 MLOAD DUP1 SWAP2 SUB SWAP1 REVERT JUMPDEST PUSH32 0x5E3E3AC48142223910FA7D0C0FB4E15E6AAC9C9CBC7A8DC20AA5DC9227D28683 CALLER CALLVALUE PUSH1 0x40 MLOAD PUSH2 0x742 SWAP3 SWAP2 SWAP1 PUSH2 0xD94 JUMP JUMPDEST PUSH1 0x40 MLOAD DUP1 SWAP2 SUB SWAP1 LOG1 POP PUSH2 0x753 PUSH2 0xAF1 JUMP JUMPDEST POP JUMP JUMPDEST PUSH1 0x0 DUP1 PUSH1 0x0 SWAP1 SLOAD SWAP1 PUSH2 0x100 EXP SWAP1 DIV PUSH20 0xFFFFFFFFFFFFFFFFFFFFFFFFFFFFFFFFFFFFFFFF AND SWAP1 POP SWAP1 JUMP JUMPDEST PUSH1 0x60 PUSH1 0x3 DUP1 SLOAD DUP1 PUSH1 0x20 MUL PUSH1 0x20 ADD PUSH1 0x40 MLOAD SWAP1 DUP2 ADD PUSH1 0x40 MSTORE DUP1 SWAP3 SWAP2 SWAP1 DUP2 DUP2 MSTORE PUSH1 0x20 ADD DUP3 DUP1 SLOAD DUP1 ISZERO PUSH2 0x803 JUMPI PUSH1 0x20 MUL DUP3 ADD SWAP2 SWAP1 PUSH1 0x0 MSTORE PUSH1 0x20 PUSH1 0x0 KECCAK256 SWAP1 JUMPDEST DUP2 PUSH1 0x0 SWAP1 SLOAD SWAP1 PUSH2 0x100 EXP SWAP1 DIV PUSH20 0xFFFFFFFFFFFFFFFFFFFFFFFFFFFFFFFFFFFFFFFF AND PUSH20 0xFFFFFFFFFFFFFFFFFFFFFFFFFFFFFFFFFFFFFFFF AND DUP2 MSTORE PUSH1 0x20 ADD SWAP1 PUSH1 0x1 ADD SWAP1 DUP1 DUP4 GT PUSH2 0x7B9 JUMPI JUMPDEST POP POP POP POP POP SWAP1 POP SWAP1 JUMP JUMPDEST PUSH1 0x0 PUSH1 0x2 SLOAD SWAP1 POP SWAP1 JUMP JUMPDEST PUSH1 0x0 PUSH1 0x4 PUSH1 0x0 DUP4 PUSH20 0xFFFFFFFFFFFFFFFFFFFFFFFFFFFFFFFFFFFFFFFF AND PUSH20 0xFFFFFFFFFFFFFFFFFFFFFFFFFFFFFFFFFFFFFFFF AND DUP2 MSTORE PUSH1 0x20 ADD SWAP1 DUP2 MSTORE PUSH1 0x20 ADD PUSH1 0x0 KECCAK256 PUSH1 0x1 ADD SLOAD SWAP1 POP SWAP2 SWAP1 POP JUMP JUMPDEST PUSH2 0x86B PUSH2 0x8F9 JUMP JUMPDEST DUP1 PUSH1 0x2 DUP2 SWAP1 SSTORE POP POP JUMP JUMPDEST PUSH2 0x87D PUSH2 0x8F9 JUMP JUMPDEST PUSH1 0x0 PUSH20 0xFFFFFFFFFFFFFFFFFFFFFFFFFFFFFFFFFFFFFFFF AND DUP2 PUSH20 0xFFFFFFFFFFFFFFFFFFFFFFFFFFFFFFFFFFFFFFFF AND EQ ISZERO PUSH2 0x8ED JUMPI PUSH1 0x40 MLOAD PUSH32 0x8C379A000000000000000000000000000000000000000000000000000000000 DUP2 MSTORE PUSH1 0x4 ADD PUSH2 0x8E4 SWAP1 PUSH2 0xDFF JUMP JUMPDEST PUSH1 0x40 MLOAD DUP1 SWAP2 SUB SWAP1 REVERT JUMPDEST PUSH2 0x8F6 DUP2 PUSH2 0x977 JUMP JUMPDEST POP JUMP JUMPDEST PUSH2 0x901 PUSH2 0xAFA JUMP JUMPDEST PUSH20 0xFFFFFFFFFFFFFFFFFFFFFFFFFFFFFFFFFFFFFFFF AND PUSH2 0x91F PUSH2 0x756 JUMP JUMPDEST PUSH20 0xFFFFFFFFFFFFFFFFFFFFFFFFFFFFFFFFFFFFFFFF AND EQ PUSH2 0x975 JUMPI PUSH1 0x40 MLOAD PUSH32 0x8C379A000000000000000000000000000000000000000000000000000000000 DUP2 MSTORE PUSH1 0x4 ADD PUSH2 0x96C SWAP1 PUSH2 0xE5F JUMP JUMPDEST PUSH1 0x40 MLOAD DUP1 SWAP2 SUB SWAP1 REVERT JUMPDEST JUMP JUMPDEST PUSH1 0x0 DUP1 PUSH1 0x0 SWAP1 SLOAD SWAP1 PUSH2 0x100 EXP SWAP1 DIV PUSH20 0xFFFFFFFFFFFFFFFFFFFFFFFFFFFFFFFFFFFFFFFF AND SWAP1 POP DUP2 PUSH1 0x0 DUP1 PUSH2 0x100 EXP DUP2 SLOAD DUP2 PUSH20 0xFFFFFFFFFFFFFFFFFFFFFFFFFFFFFFFFFFFFFFFF MUL NOT AND SWAP1 DUP4 PUSH20 0xFFFFFFFFFFFFFFFFFFFFFFFFFFFFFFFFFFFFFFFF AND MUL OR SWAP1 SSTORE POP DUP2 PUSH20 0xFFFFFFFFFFFFFFFFFFFFFFFFFFFFFFFFFFFFFFFF AND DUP2 PUSH20 0xFFFFFFFFFFFFFFFFFFFFFFFFFFFFFFFFFFFFFFFF AND PUSH32 0x8BE0079C531659141344CD1FD0A4F28419497F9722A3DAAFE3B4186F6B6457E0 PUSH1 0x40 MLOAD PUSH1 0x40 MLOAD DUP1 SWAP2 SUB SWAP1 LOG3 POP POP JUMP JUMPDEST PUSH1 0x2 PUSH1 0x1 SLOAD EQ ISZERO PUSH2 0xA81 JUMPI PUSH1 0x40 MLOAD PUSH32 0x8C379A000000000000000000000000000000000000000000000000000000000 DUP2 MSTORE PUSH1 0x4 ADD PUSH2 0xA78 SWAP1 PUSH2 0xE9F JUMP JUMPDEST PUSH1 0x40 MLOAD DUP1 SWAP2 SUB SWAP1 REVERT JUMPDEST PUSH1 0x2 PUSH1 0x1 DUP2 SWAP1 SSTORE POP JUMP JUMPDEST PUSH1 0x3 DUP2 SWAP1 DUP1 PUSH1 0x1 DUP2 SLOAD ADD DUP1 DUP3 SSTORE DUP1 SWAP2 POP POP PUSH1 0x1 SWAP1 SUB SWAP1 PUSH1 0x0 MSTORE PUSH1 0x20 PUSH1 0x0 KECCAK256 ADD PUSH1 0x0 SWAP1 SWAP2 SWAP1 SWAP2 SWAP1 SWAP2 PUSH2 0x100 EXP DUP2 SLOAD DUP2 PUSH20 0xFFFFFFFFFFFFFFFFFFFFFFFFFFFFFFFFFFFFFFFF MUL NOT AND SWAP1 DUP4 PUSH20 0xFFFFFFFFFFFFFFFFFFFFFFFFFFFFFFFFFFFFFFFF AND MUL OR SWAP1 SSTORE POP POP JUMP JUMPDEST PUSH1 0x1 DUP1 DUP2 SWAP1 SSTORE POP JUMP JUMPDEST PUSH1 0x0 CALLER SWAP1 POP SWAP1 JUMP JUMPDEST PUSH1 0x0 DUP2 CALLDATALOAD SWAP1 POP PUSH2 0xB11 DUP2 PUSH2 0x11E0 JUMP JUMPDEST SWAP3 SWAP2 POP POP JUMP JUMPDEST PUSH1 0x0 DUP2 CALLDATALOAD SWAP1 POP PUSH2 0xB26 DUP2 PUSH2 0x11F7 JUMP JUMPDEST SWAP3 SWAP2 POP POP JUMP JUMPDEST PUSH1 0x0 PUSH1 0x20 DUP3 DUP5 SUB SLT ISZERO PUSH2 0xB42 JUMPI PUSH2 0xB41 PUSH2 0x106A JUMP JUMPDEST JUMPDEST PUSH1 0x0 PUSH2 0xB50 DUP5 DUP3 DUP6 ADD PUSH2 0xB02 JUMP JUMPDEST SWAP2 POP POP SWAP3 SWAP2 POP POP JUMP JUMPDEST PUSH1 0x0 PUSH1 0x20 DUP3 DUP5 SUB SLT ISZERO PUSH2 0xB6F JUMPI PUSH2 0xB6E PUSH2 0x106A JUMP JUMPDEST JUMPDEST PUSH1 0x0 PUSH2 0xB7D DUP5 DUP3 DUP6 ADD PUSH2 0xB17 JUMP JUMPDEST SWAP2 POP POP SWAP3 SWAP2 POP POP JUMP JUMPDEST PUSH1 0x0 PUSH2 0xB92 DUP4 DUP4 PUSH2 0xB9E JUMP JUMPDEST PUSH1 0x20 DUP4 ADD SWAP1 POP SWAP3 SWAP2 POP POP JUMP JUMPDEST PUSH2 0xBA7 DUP2 PUSH2 0xFFF JUMP JUMPDEST DUP3 MSTORE POP POP JUMP JUMPDEST PUSH2 0xBB6 DUP2 PUSH2 0xFFF JUMP JUMPDEST DUP3 MSTORE POP POP JUMP JUMPDEST PUSH1 0x0 PUSH2 0xBC7 DUP3 PUSH2 0xF0A JUMP JUMPDEST PUSH2 0xBD1 DUP2 DUP6 PUSH2 0xF22 JUMP JUMPDEST SWAP4 POP PUSH2 0xBDC DUP4 PUSH2 0xEFA JUMP JUMPDEST DUP1 PUSH1 0x0 JUMPDEST DUP4 DUP2 LT ISZERO PUSH2 0xC0D JUMPI DUP2 MLOAD PUSH2 0xBF4 DUP9 DUP3 PUSH2 0xB86 JUMP JUMPDEST SWAP8 POP PUSH2 0xBFF DUP4 PUSH2 0xF15 JUMP JUMPDEST SWAP3 POP POP PUSH1 0x1 DUP2 ADD SWAP1 POP PUSH2 0xBE0 JUMP JUMPDEST POP DUP6 SWAP4 POP POP POP POP SWAP3 SWAP2 POP POP JUMP JUMPDEST PUSH1 0x0 PUSH2 0xC27 PUSH1 0x20 DUP4 PUSH2 0xF3E JUMP JUMPDEST SWAP2 POP PUSH2 0xC32 DUP3 PUSH2 0x106F JUMP JUMPDEST PUSH1 0x20 DUP3 ADD SWAP1 POP SWAP2 SWAP1 POP JUMP JUMPDEST PUSH1 0x0 PUSH2 0xC4A PUSH1 0x26 DUP4 PUSH2 0xF3E JUMP JUMPDEST SWAP2 POP PUSH2 0xC55 DUP3 PUSH2 0x1098 JUMP JUMPDEST PUSH1 0x40 DUP3 ADD SWAP1 POP SWAP2 SWAP1 POP JUMP JUMPDEST PUSH1 0x0 PUSH2 0xC6D PUSH1 0x1B DUP4 PUSH2 0xF3E JUMP JUMPDEST SWAP2 POP PUSH2 0xC78 DUP3 PUSH2 0x10E7 JUMP JUMPDEST PUSH1 0x20 DUP3 ADD SWAP1 POP SWAP2 SWAP1 POP JUMP JUMPDEST PUSH1 0x0 PUSH2 0xC90 PUSH1 0x1B DUP4 PUSH2 0xF3E JUMP JUMPDEST SWAP2 POP PUSH2 0xC9B DUP3 PUSH2 0x1110 JUMP JUMPDEST PUSH1 0x20 DUP3 ADD SWAP1 POP SWAP2 SWAP1 POP JUMP JUMPDEST PUSH1 0x0 PUSH2 0xCB3 PUSH1 0x20 DUP4 PUSH2 0xF3E JUMP JUMPDEST SWAP2 POP PUSH2 0xCBE DUP3 PUSH2 0x1139 JUMP JUMPDEST PUSH1 0x20 DUP3 ADD SWAP1 POP SWAP2 SWAP1 POP JUMP JUMPDEST PUSH1 0x0 PUSH2 0xCD6 PUSH1 0xE DUP4 PUSH2 0xF3E JUMP JUMPDEST SWAP2 POP PUSH2 0xCE1 DUP3 PUSH2 0x1162 JUMP JUMPDEST PUSH1 0x20 DUP3 ADD SWAP1 POP SWAP2 SWAP1 POP JUMP JUMPDEST PUSH1 0x0 PUSH2 0xCF9 PUSH1 0x0 DUP4 PUSH2 0xF33 JUMP JUMPDEST SWAP2 POP PUSH2 0xD04 DUP3 PUSH2 0x118B JUMP JUMPDEST PUSH1 0x0 DUP3 ADD SWAP1 POP SWAP2 SWAP1 POP JUMP JUMPDEST PUSH1 0x0 PUSH2 0xD1C PUSH1 0x1F DUP4 PUSH2 0xF3E JUMP JUMPDEST SWAP2 POP PUSH2 0xD27 DUP3 PUSH2 0x118E JUMP JUMPDEST PUSH1 0x20 DUP3 ADD SWAP1 POP SWAP2 SWAP1 POP JUMP JUMPDEST PUSH1 0x0 PUSH2 0xD3F PUSH1 0xF DUP4 PUSH2 0xF3E JUMP JUMPDEST SWAP2 POP PUSH2 0xD4A DUP3 PUSH2 0x11B7 JUMP JUMPDEST PUSH1 0x20 DUP3 ADD SWAP1 POP SWAP2 SWAP1 POP JUMP JUMPDEST PUSH2 0xD5E DUP2 PUSH2 0x1031 JUMP JUMPDEST DUP3 MSTORE POP POP JUMP JUMPDEST PUSH1 0x0 PUSH2 0xD6F DUP3 PUSH2 0xCEC JUMP JUMPDEST SWAP2 POP DUP2 SWAP1 POP SWAP2 SWAP1 POP JUMP JUMPDEST PUSH1 0x0 PUSH1 0x20 DUP3 ADD SWAP1 POP PUSH2 0xD8E PUSH1 0x0 DUP4 ADD DUP5 PUSH2 0xBAD JUMP JUMPDEST SWAP3 SWAP2 POP POP JUMP JUMPDEST PUSH1 0x0 PUSH1 0x40 DUP3 ADD SWAP1 POP PUSH2 0xDA9 PUSH1 0x0 DUP4 ADD DUP6 PUSH2 0xBAD JUMP JUMPDEST PUSH2 0xDB6 PUSH1 0x20 DUP4 ADD DUP5 PUSH2 0xD55 JUMP JUMPDEST SWAP4 SWAP3 POP POP POP JUMP JUMPDEST PUSH1 0x0 PUSH1 0x20 DUP3 ADD SWAP1 POP DUP2 DUP2 SUB PUSH1 0x0 DUP4 ADD MSTORE PUSH2 0xDD7 DUP2 DUP5 PUSH2 0xBBC JUMP JUMPDEST SWAP1 POP SWAP3 SWAP2 POP POP JUMP JUMPDEST PUSH1 0x0 PUSH1 0x20 DUP3 ADD SWAP1 POP DUP2 DUP2 SUB PUSH1 0x0 DUP4 ADD MSTORE PUSH2 0xDF8 DUP2 PUSH2 0xC1A JUMP JUMPDEST SWAP1 POP SWAP2 SWAP1 POP JUMP JUMPDEST PUSH1 0x0 PUSH1 0x20 DUP3 ADD SWAP1 POP DUP2 DUP2 SUB PUSH1 0x0 DUP4 ADD MSTORE PUSH2 0xE18 DUP2 PUSH2 0xC3D JUMP JUMPDEST SWAP1 POP SWAP2 SWAP1 POP JUMP JUMPDEST PUSH1 0x0 PUSH1 0x20 DUP3 ADD SWAP1 POP DUP2 DUP2 SUB PUSH1 0x0 DUP4 ADD MSTORE PUSH2 0xE38 DUP2 PUSH2 0xC60 JUMP JUMPDEST SWAP1 POP SWAP2 SWAP1 POP JUMP JUMPDEST PUSH1 0x0 PUSH1 0x20 DUP3 ADD SWAP1 POP DUP2 DUP2 SUB PUSH1 0x0 DUP4 ADD MSTORE PUSH2 0xE58 DUP2 PUSH2 0xC83 JUMP JUMPDEST SWAP1 POP SWAP2 SWAP1 POP JUMP JUMPDEST PUSH1 0x0 PUSH1 0x20 DUP3 ADD SWAP1 POP DUP2 DUP2 SUB PUSH1 0x0 DUP4 ADD MSTORE PUSH2 0xE78 DUP2 PUSH2 0xCA6 JUMP JUMPDEST SWAP1 POP SWAP2 SWAP1 POP JUMP JUMPDEST PUSH1 0x0 PUSH1 0x20 DUP3 ADD SWAP1 POP DUP2 DUP2 SUB PUSH1 0x0 DUP4 ADD MSTORE PUSH2 0xE98 DUP2 PUSH2 0xCC9 JUMP JUMPDEST SWAP1 POP SWAP2 SWAP1 POP JUMP JUMPDEST PUSH1 0x0 PUSH1 0x20 DUP3 ADD SWAP1 POP DUP2 DUP2 SUB PUSH1 0x0 DUP4 ADD MSTORE PUSH2 0xEB8 DUP2 PUSH2 0xD0F JUMP JUMPDEST SWAP1 POP SWAP2 SWAP1 POP JUMP JUMPDEST PUSH1 0x0 PUSH1 0x20 DUP3 ADD SWAP1 POP DUP2 DUP2 SUB PUSH1 0x0 DUP4 ADD MSTORE PUSH2 0xED8 DUP2 PUSH2 0xD32 JUMP JUMPDEST SWAP1 POP SWAP2 SWAP1 POP JUMP JUMPDEST PUSH1 0x0 PUSH1 0x20 DUP3 ADD SWAP1 POP PUSH2 0xEF4 PUSH1 0x0 DUP4 ADD DUP5 PUSH2 0xD55 JUMP JUMPDEST SWAP3 SWAP2 POP POP JUMP JUMPDEST PUSH1 0x0 DUP2 SWAP1 POP PUSH1 0x20 DUP3 ADD SWAP1 POP SWAP2 SWAP1 POP JUMP JUMPDEST PUSH1 0x0 DUP2 MLOAD SWAP1 POP SWAP2 SWAP1 POP JUMP JUMPDEST PUSH1 0x0 PUSH1 0x20 DUP3 ADD SWAP1 POP SWAP2 SWAP1 POP JUMP JUMPDEST PUSH1 0x0 DUP3 DUP3 MSTORE PUSH1 0x20 DUP3 ADD SWAP1 POP SWAP3 SWAP2 POP POP JUMP JUMPDEST PUSH1 0x0 DUP2 SWAP1 POP SWAP3 SWAP2 POP POP JUMP JUMPDEST PUSH1 0x0 DUP3 DUP3 MSTORE PUSH1 0x20 DUP3 ADD SWAP1 POP SWAP3 SWAP2 POP POP JUMP JUMPDEST PUSH1 0x0 PUSH2 0xF5A DUP3 PUSH2 0x1031 JUMP JUMPDEST SWAP2 POP PUSH2 0xF65 DUP4 PUSH2 0x1031 JUMP JUMPDEST SWAP3 POP DUP3 PUSH32 0xFFFFFFFFFFFFFFFFFFFFFFFFFFFFFFFFFFFFFFFFFFFFFFFFFFFFFFFFFFFFFFFF SUB DUP3 GT ISZERO PUSH2 0xF9A JUMPI PUSH2 0xF99 PUSH2 0x103B JUMP JUMPDEST JUMPDEST DUP3 DUP3 ADD SWAP1 POP SWAP3 SWAP2 POP POP JUMP JUMPDEST PUSH1 0x0 PUSH2 0xFB0 DUP3 PUSH2 0x1031 JUMP JUMPDEST SWAP2 POP PUSH2 0xFBB DUP4 PUSH2 0x1031 JUMP JUMPDEST SWAP3 POP DUP2 PUSH32 0xFFFFFFFFFFFFFFFFFFFFFFFFFFFFFFFFFFFFFFFFFFFFFFFFFFFFFFFFFFFFFFFF DIV DUP4 GT DUP3 ISZERO ISZERO AND ISZERO PUSH2 0xFF4 JUMPI PUSH2 0xFF3 PUSH2 0x103B JUMP JUMPDEST JUMPDEST DUP3 DUP3 MUL SWAP1 POP SWAP3 SWAP2 POP POP JUMP JUMPDEST PUSH1 0x0 PUSH2 0x100A DUP3 PUSH2 0x1011 JUMP JUMPDEST SWAP1 POP SWAP2 SWAP1 POP JUMP JUMPDEST PUSH1 0x0 PUSH20 0xFFFFFFFFFFFFFFFFFFFFFFFFFFFFFFFFFFFFFFFF DUP3 AND SWAP1 POP SWAP2 SWAP1 POP JUMP JUMPDEST PUSH1 0x0 DUP2 SWAP1 POP SWAP2 SWAP1 POP JUMP JUMPDEST PUSH32 0x4E487B7100000000000000000000000000000000000000000000000000000000 PUSH1 0x0 MSTORE PUSH1 0x11 PUSH1 0x4 MSTORE PUSH1 0x24 PUSH1 0x0 REVERT JUMPDEST PUSH1 0x0 DUP1 REVERT JUMPDEST PUSH32 0x7472616E7366657220616D6F756E74206D75737420626520706F736974697665 PUSH1 0x0 DUP3 ADD MSTORE POP JUMP JUMPDEST PUSH32 0x4F776E61626C653A206E6577206F776E657220697320746865207A65726F2061 PUSH1 0x0 DUP3 ADD MSTORE PUSH32 0x6464726573730000000000000000000000000000000000000000000000000000 PUSH1 0x20 DUP3 ADD MSTORE POP JUMP JUMPDEST PUSH32 0x7472616E7366657220746F20636F6E7472616374206661696C65640000000000 PUSH1 0x0 DUP3 ADD MSTORE POP JUMP JUMPDEST PUSH32 0x4D75737420686176652073756666696369656E7420616D6F756E740000000000 PUSH1 0x0 DUP3 ADD MSTORE POP JUMP JUMPDEST PUSH32 0x4F776E61626C653A2063616C6C6572206973206E6F7420746865206F776E6572 PUSH1 0x0 DUP3 ADD MSTORE POP JUMP JUMPDEST PUSH32 0x496C6C6567616C20737461747573000000000000000000000000000000000000 PUSH1 0x0 DUP3 ADD MSTORE POP JUMP JUMPDEST POP JUMP JUMPDEST PUSH32 0x5265656E7472616E637947756172643A207265656E7472616E742063616C6C00 PUSH1 0x0 DUP3 ADD MSTORE POP JUMP JUMPDEST PUSH32 0x7769746864726177206661696C65640000000000000000000000000000000000 PUSH1 0x0 DUP3 ADD MSTORE POP JUMP JUMPDEST PUSH2 0x11E9 DUP2 PUSH2 0xFFF JUMP JUMPDEST DUP2 EQ PUSH2 0x11F4 JUMPI PUSH1 0x0 DUP1 REVERT JUMPDEST POP JUMP JUMPDEST PUSH2 0x1200 DUP2 PUSH2 0x1031 JUMP JUMPDEST DUP2 EQ PUSH2 0x120B JUMPI PUSH1 0x0 DUP1 REVERT JUMPDEST POP JUMP INVALID LOG2 PUSH5 0x6970667358 0x22 SLT KECCAK256 0xF8 SWAP5 PUSH14 0xEF417244DAEC6B8391C7363EEC74 0xB7 DUP12 CALLER 0xE6 DUP13 LOG0 0x1F RETURNDATASIZE SWAP1 LOG2 0xC4 GASPRICE 0xD4 PUSH10 0x2364736F6C6343000807 STOP CALLER "
				},
				"gasEstimates": {
					"creation": {
						"codeDepositCost": "935200",
						"executionCost": "infinite",
						"totalCost": "infinite"
					},
					"external": {
						"": "196",
						"SaleByEth(uint256)": "infinite",
						"getBalanceForContract()": "362",
						"getDeposit(address)": "2891",
						"getPreSaleAmout()": "2459",
						"getWhitelist()": "infinite",
						"owner()": "2611",
						"renounceOwnership()": "30443",
						"setPreSaleAmout(uint256)": "24850",
						"transferOwnership(address)": "30835",
						"withdraw(uint256)": "infinite"
					},
					"internal": {
						"_addWhitelist(address)": "48593"
					}
				},
				"methodIdentifiers": {
					"SaleByEth(uint256)": "8ac6b7ba",
					"getBalanceForContract()": "5fb98107",
					"getDeposit(address)": "e1254fba",
					"getPreSaleAmout()": "d36df5a6",
					"getWhitelist()": "d01f63f5",
					"owner()": "8da5cb5b",
					"renounceOwnership()": "715018a6",
					"setPreSaleAmout(uint256)": "e680241f",
					"transferOwnership(address)": "f2fde38b",
					"withdraw(uint256)": "2e1a7d4d"
				}
			},
			"storageLayout": {
				"storage": [
					{
						"astId": 91,
						"contract": "saleIDO/ProSale.sol:PreSale",
						"label": "_owner",
						"offset": 0,
						"slot": "0",
						"type": "t_address"
					},
					{
						"astId": 10,
						"contract": "saleIDO/ProSale.sol:PreSale",
						"label": "_status",
						"offset": 0,
						"slot": "1",
						"type": "t_uint256"
					},
					{
						"astId": 214,
						"contract": "saleIDO/ProSale.sol:PreSale",
						"label": "preSaleAmout",
						"offset": 0,
						"slot": "2",
						"type": "t_uint256"
					},
					{
						"astId": 217,
						"contract": "saleIDO/ProSale.sol:PreSale",
						"label": "whitelist",
						"offset": 0,
						"slot": "3",
						"type": "t_array(t_address)dyn_storage"
					},
					{
						"astId": 222,
						"contract": "saleIDO/ProSale.sol:PreSale",
						"label": "preSaleMessByAddress",
						"offset": 0,
						"slot": "4",
						"type": "t_mapping(t_address,t_struct(preSaleMess)206_storage)"
					}
				],
				"types": {
					"t_address": {
						"encoding": "inplace",
						"label": "address",
						"numberOfBytes": "20"
					},
					"t_array(t_address)dyn_storage": {
						"base": "t_address",
						"encoding": "dynamic_array",
						"label": "address[]",
						"numberOfBytes": "32"
					},
					"t_bool": {
						"encoding": "inplace",
						"label": "bool",
						"numberOfBytes": "1"
					},
					"t_mapping(t_address,t_struct(preSaleMess)206_storage)": {
						"encoding": "mapping",
						"key": "t_address",
						"label": "mapping(address => struct PreSale.preSaleMess)",
						"numberOfBytes": "32",
						"value": "t_struct(preSaleMess)206_storage"
					},
					"t_struct(preSaleMess)206_storage": {
						"encoding": "inplace",
						"label": "struct PreSale.preSaleMess",
						"members": [
							{
								"astId": 203,
								"contract": "saleIDO/ProSale.sol:PreSale",
								"label": "isLeg",
								"offset": 0,
								"slot": "0",
								"type": "t_bool"
							},
							{
								"astId": 205,
								"contract": "saleIDO/ProSale.sol:PreSale",
								"label": "money",
								"offset": 0,
								"slot": "1",
								"type": "t_uint256"
							}
						],
						"numberOfBytes": "64"
					},
					"t_uint256": {
						"encoding": "inplace",
						"label": "uint256",
						"numberOfBytes": "32"
					}
				}
			},
			"userdoc": {
				"kind": "user",
				"methods": {},
				"version": 1
			}
		}
	}
}