{
	"XenFactory(FTM）/test.sol": {
		"test": {
			"abi": [
				{
					"inputs": [],
					"name": "index",
					"outputs": [
						{
							"internalType": "uint256",
							"name": "",
							"type": "uint256"
						}
					],
					"stateMutability": "view",
					"type": "function"
				},
				{
					"inputs": [],
					"name": "test11",
					"outputs": [],
					"stateMutability": "nonpayable",
					"type": "function"
				}
			],
			"devdoc": {
				"kind": "dev",
				"methods": {},
				"version": 1
			},
			"evm": {
				"assembly": "    /* \"XenFactory(FTM\\xef\\xbc\\x89/test.sol\":60:252  contract test{\r... */\n  mstore(0x40, 0x80)\n    /* \"XenFactory(FTM\\xef\\xbc\\x89/test.sol\":103:105  20 */\n  0x14\n    /* \"XenFactory(FTM\\xef\\xbc\\x89/test.sol\":80:105  uint256  public index =20 */\n  0x00\n  sstore\n    /* \"XenFactory(FTM\\xef\\xbc\\x89/test.sol\":60:252  contract test{\r... */\n  callvalue\n  dup1\n  iszero\n  tag_1\n  jumpi\n  0x00\n  dup1\n  revert\ntag_1:\n  pop\n  dataSize(sub_0)\n  dup1\n  dataOffset(sub_0)\n  0x00\n  codecopy\n  0x00\n  return\nstop\n\nsub_0: assembly {\n        /* \"XenFactory(FTM\\xef\\xbc\\x89/test.sol\":60:252  contract test{\r... */\n      mstore(0x40, 0x80)\n      callvalue\n      dup1\n      iszero\n      tag_1\n      jumpi\n      0x00\n      dup1\n      revert\n    tag_1:\n      pop\n      jumpi(tag_2, lt(calldatasize, 0x04))\n      shr(0xe0, calldataload(0x00))\n      dup1\n      0x2986c0e5\n      eq\n      tag_3\n      jumpi\n      dup1\n      0xfa8b8ea1\n      eq\n      tag_4\n      jumpi\n    tag_2:\n      0x00\n      dup1\n      revert\n        /* \"XenFactory(FTM\\xef\\xbc\\x89/test.sol\":80:105  uint256  public index =20 */\n    tag_3:\n      tag_5\n      tag_6\n      jump\t// in\n    tag_5:\n      mload(0x40)\n      tag_7\n      swap2\n      swap1\n      tag_8\n      jump\t// in\n    tag_7:\n      mload(0x40)\n      dup1\n      swap2\n      sub\n      swap1\n      return\n        /* \"XenFactory(FTM\\xef\\xbc\\x89/test.sol\":116:249  function test11() external {\r... */\n    tag_4:\n      tag_9\n      tag_10\n      jump\t// in\n    tag_9:\n      stop\n        /* \"XenFactory(FTM\\xef\\xbc\\x89/test.sol\":80:105  uint256  public index =20 */\n    tag_6:\n      sload(0x00)\n      dup2\n      jump\t// out\n        /* \"XenFactory(FTM\\xef\\xbc\\x89/test.sol\":116:249  function test11() external {\r... */\n    tag_10:\n        /* \"XenFactory(FTM\\xef\\xbc\\x89/test.sol\":154:163  uint256 c */\n      0x00\n        /* \"XenFactory(FTM\\xef\\xbc\\x89/test.sol\":166:171  index */\n      dup1\n      sload\n        /* \"XenFactory(FTM\\xef\\xbc\\x89/test.sol\":154:171  uint256 c = index */\n      swap1\n      pop\n        /* \"XenFactory(FTM\\xef\\xbc\\x89/test.sol\":186:192  uint i */\n      0x00\n        /* \"XenFactory(FTM\\xef\\xbc\\x89/test.sol\":182:242  for(uint i = 0 ;i<20;i++){\r... */\n    tag_12:\n        /* \"XenFactory(FTM\\xef\\xbc\\x89/test.sol\":200:202  20 */\n      0x14\n        /* \"XenFactory(FTM\\xef\\xbc\\x89/test.sol\":198:199  i */\n      dup2\n        /* \"XenFactory(FTM\\xef\\xbc\\x89/test.sol\":198:202  i<20 */\n      lt\n        /* \"XenFactory(FTM\\xef\\xbc\\x89/test.sol\":182:242  for(uint i = 0 ;i<20;i++){\r... */\n      iszero\n      tag_13\n      jumpi\n        /* \"XenFactory(FTM\\xef\\xbc\\x89/test.sol\":229:230  1 */\n      0x01\n        /* \"XenFactory(FTM\\xef\\xbc\\x89/test.sol\":227:228  c */\n      dup3\n        /* \"XenFactory(FTM\\xef\\xbc\\x89/test.sol\":227:230  c-1 */\n      tag_15\n      swap2\n      swap1\n      tag_16\n      jump\t// in\n    tag_15:\n        /* \"XenFactory(FTM\\xef\\xbc\\x89/test.sol\":222:230  c  = c-1 */\n      swap2\n      pop\n        /* \"XenFactory(FTM\\xef\\xbc\\x89/test.sol\":203:206  i++ */\n      dup1\n      dup1\n      tag_17\n      swap1\n      tag_18\n      jump\t// in\n    tag_17:\n      swap2\n      pop\n      pop\n        /* \"XenFactory(FTM\\xef\\xbc\\x89/test.sol\":182:242  for(uint i = 0 ;i<20;i++){\r... */\n      jump(tag_12)\n    tag_13:\n      pop\n        /* \"XenFactory(FTM\\xef\\xbc\\x89/test.sol\":143:249  {\r... */\n      pop\n        /* \"XenFactory(FTM\\xef\\xbc\\x89/test.sol\":116:249  function test11() external {\r... */\n      jump\t// out\n        /* \"#utility.yul\":7:125   */\n    tag_20:\n        /* \"#utility.yul\":94:118   */\n      tag_22\n        /* \"#utility.yul\":112:117   */\n      dup2\n        /* \"#utility.yul\":94:118   */\n      tag_23\n      jump\t// in\n    tag_22:\n        /* \"#utility.yul\":89:92   */\n      dup3\n        /* \"#utility.yul\":82:119   */\n      mstore\n        /* \"#utility.yul\":7:125   */\n      pop\n      pop\n      jump\t// out\n        /* \"#utility.yul\":131:353   */\n    tag_8:\n        /* \"#utility.yul\":224:228   */\n      0x00\n        /* \"#utility.yul\":262:264   */\n      0x20\n        /* \"#utility.yul\":251:260   */\n      dup3\n        /* \"#utility.yul\":247:265   */\n      add\n        /* \"#utility.yul\":239:265   */\n      swap1\n      pop\n        /* \"#utility.yul\":275:346   */\n      tag_25\n        /* \"#utility.yul\":343:344   */\n      0x00\n        /* \"#utility.yul\":332:341   */\n      dup4\n        /* \"#utility.yul\":328:345   */\n      add\n        /* \"#utility.yul\":319:325   */\n      dup5\n        /* \"#utility.yul\":275:346   */\n      tag_20\n      jump\t// in\n    tag_25:\n        /* \"#utility.yul\":131:353   */\n      swap3\n      swap2\n      pop\n      pop\n      jump\t// out\n        /* \"#utility.yul\":359:550   */\n    tag_16:\n        /* \"#utility.yul\":399:403   */\n      0x00\n        /* \"#utility.yul\":419:439   */\n      tag_27\n        /* \"#utility.yul\":437:438   */\n      dup3\n        /* \"#utility.yul\":419:439   */\n      tag_23\n      jump\t// in\n    tag_27:\n        /* \"#utility.yul\":414:439   */\n      swap2\n      pop\n        /* \"#utility.yul\":453:473   */\n      tag_28\n        /* \"#utility.yul\":471:472   */\n      dup4\n        /* \"#utility.yul\":453:473   */\n      tag_23\n      jump\t// in\n    tag_28:\n        /* \"#utility.yul\":448:473   */\n      swap3\n      pop\n        /* \"#utility.yul\":492:493   */\n      dup3\n        /* \"#utility.yul\":489:490   */\n      dup3\n        /* \"#utility.yul\":486:494   */\n      lt\n        /* \"#utility.yul\":483:517   */\n      iszero\n      tag_29\n      jumpi\n        /* \"#utility.yul\":497:515   */\n      tag_30\n      tag_31\n      jump\t// in\n    tag_30:\n        /* \"#utility.yul\":483:517   */\n    tag_29:\n        /* \"#utility.yul\":542:543   */\n      dup3\n        /* \"#utility.yul\":539:540   */\n      dup3\n        /* \"#utility.yul\":535:544   */\n      sub\n        /* \"#utility.yul\":527:544   */\n      swap1\n      pop\n        /* \"#utility.yul\":359:550   */\n      swap3\n      swap2\n      pop\n      pop\n      jump\t// out\n        /* \"#utility.yul\":556:633   */\n    tag_23:\n        /* \"#utility.yul\":593:600   */\n      0x00\n        /* \"#utility.yul\":622:627   */\n      dup2\n        /* \"#utility.yul\":611:627   */\n      swap1\n      pop\n        /* \"#utility.yul\":556:633   */\n      swap2\n      swap1\n      pop\n      jump\t// out\n        /* \"#utility.yul\":639:872   */\n    tag_18:\n        /* \"#utility.yul\":678:681   */\n      0x00\n        /* \"#utility.yul\":701:725   */\n      tag_34\n        /* \"#utility.yul\":719:724   */\n      dup3\n        /* \"#utility.yul\":701:725   */\n      tag_23\n      jump\t// in\n    tag_34:\n        /* \"#utility.yul\":692:725   */\n      swap2\n      pop\n        /* \"#utility.yul\":747:813   */\n      0xffffffffffffffffffffffffffffffffffffffffffffffffffffffffffffffff\n        /* \"#utility.yul\":740:745   */\n      dup3\n        /* \"#utility.yul\":737:814   */\n      eq\n        /* \"#utility.yul\":734:837   */\n      iszero\n      tag_35\n      jumpi\n        /* \"#utility.yul\":817:835   */\n      tag_36\n      tag_31\n      jump\t// in\n    tag_36:\n        /* \"#utility.yul\":734:837   */\n    tag_35:\n        /* \"#utility.yul\":864:865   */\n      0x01\n        /* \"#utility.yul\":857:862   */\n      dup3\n        /* \"#utility.yul\":853:866   */\n      add\n        /* \"#utility.yul\":846:866   */\n      swap1\n      pop\n        /* \"#utility.yul\":639:872   */\n      swap2\n      swap1\n      pop\n      jump\t// out\n        /* \"#utility.yul\":878:1058   */\n    tag_31:\n        /* \"#utility.yul\":926:1003   */\n      0x4e487b7100000000000000000000000000000000000000000000000000000000\n        /* \"#utility.yul\":923:924   */\n      0x00\n        /* \"#utility.yul\":916:1004   */\n      mstore\n        /* \"#utility.yul\":1023:1027   */\n      0x11\n        /* \"#utility.yul\":1020:1021   */\n      0x04\n        /* \"#utility.yul\":1013:1028   */\n      mstore\n        /* \"#utility.yul\":1047:1051   */\n      0x24\n        /* \"#utility.yul\":1044:1045   */\n      0x00\n        /* \"#utility.yul\":1037:1052   */\n      revert\n\n    auxdata: 0xa2646970667358221220f8d177dd818585ea7909290de51f53c4aedfb7f498408c8afabbbdc8174d001b64736f6c63430008070033\n}\n",
				"bytecode": {
					"linkReferences": {},
					"object": "6080604052601460005534801561001557600080fd5b506101b7806100256000396000f3fe608060405234801561001057600080fd5b50600436106100365760003560e01c80632986c0e51461003b578063fa8b8ea114610059575b600080fd5b610043610063565b60405161005091906100b0565b60405180910390f35b610061610069565b005b60005481565b60008054905060005b601481101561009d5760018261008891906100cb565b9150808061009590610109565b915050610072565b5050565b6100aa816100ff565b82525050565b60006020820190506100c560008301846100a1565b92915050565b60006100d6826100ff565b91506100e1836100ff565b9250828210156100f4576100f3610152565b5b828203905092915050565b6000819050919050565b6000610114826100ff565b91507fffffffffffffffffffffffffffffffffffffffffffffffffffffffffffffffff82141561014757610146610152565b5b600182019050919050565b7f4e487b7100000000000000000000000000000000000000000000000000000000600052601160045260246000fdfea2646970667358221220f8d177dd818585ea7909290de51f53c4aedfb7f498408c8afabbbdc8174d001b64736f6c63430008070033",
					"opcodes": "PUSH1 0x80 PUSH1 0x40 MSTORE PUSH1 0x14 PUSH1 0x0 SSTORE CALLVALUE DUP1 ISZERO PUSH2 0x15 JUMPI PUSH1 0x0 DUP1 REVERT JUMPDEST POP PUSH2 0x1B7 DUP1 PUSH2 0x25 PUSH1 0x0 CODECOPY PUSH1 0x0 RETURN INVALID PUSH1 0x80 PUSH1 0x40 MSTORE CALLVALUE DUP1 ISZERO PUSH2 0x10 JUMPI PUSH1 0x0 DUP1 REVERT JUMPDEST POP PUSH1 0x4 CALLDATASIZE LT PUSH2 0x36 JUMPI PUSH1 0x0 CALLDATALOAD PUSH1 0xE0 SHR DUP1 PUSH4 0x2986C0E5 EQ PUSH2 0x3B JUMPI DUP1 PUSH4 0xFA8B8EA1 EQ PUSH2 0x59 JUMPI JUMPDEST PUSH1 0x0 DUP1 REVERT JUMPDEST PUSH2 0x43 PUSH2 0x63 JUMP JUMPDEST PUSH1 0x40 MLOAD PUSH2 0x50 SWAP2 SWAP1 PUSH2 0xB0 JUMP JUMPDEST PUSH1 0x40 MLOAD DUP1 SWAP2 SUB SWAP1 RETURN JUMPDEST PUSH2 0x61 PUSH2 0x69 JUMP JUMPDEST STOP JUMPDEST PUSH1 0x0 SLOAD DUP2 JUMP JUMPDEST PUSH1 0x0 DUP1 SLOAD SWAP1 POP PUSH1 0x0 JUMPDEST PUSH1 0x14 DUP2 LT ISZERO PUSH2 0x9D JUMPI PUSH1 0x1 DUP3 PUSH2 0x88 SWAP2 SWAP1 PUSH2 0xCB JUMP JUMPDEST SWAP2 POP DUP1 DUP1 PUSH2 0x95 SWAP1 PUSH2 0x109 JUMP JUMPDEST SWAP2 POP POP PUSH2 0x72 JUMP JUMPDEST POP POP JUMP JUMPDEST PUSH2 0xAA DUP2 PUSH2 0xFF JUMP JUMPDEST DUP3 MSTORE POP POP JUMP JUMPDEST PUSH1 0x0 PUSH1 0x20 DUP3 ADD SWAP1 POP PUSH2 0xC5 PUSH1 0x0 DUP4 ADD DUP5 PUSH2 0xA1 JUMP JUMPDEST SWAP3 SWAP2 POP POP JUMP JUMPDEST PUSH1 0x0 PUSH2 0xD6 DUP3 PUSH2 0xFF JUMP JUMPDEST SWAP2 POP PUSH2 0xE1 DUP4 PUSH2 0xFF JUMP JUMPDEST SWAP3 POP DUP3 DUP3 LT ISZERO PUSH2 0xF4 JUMPI PUSH2 0xF3 PUSH2 0x152 JUMP JUMPDEST JUMPDEST DUP3 DUP3 SUB SWAP1 POP SWAP3 SWAP2 POP POP JUMP JUMPDEST PUSH1 0x0 DUP2 SWAP1 POP SWAP2 SWAP1 POP JUMP JUMPDEST PUSH1 0x0 PUSH2 0x114 DUP3 PUSH2 0xFF JUMP JUMPDEST SWAP2 POP PUSH32 0xFFFFFFFFFFFFFFFFFFFFFFFFFFFFFFFFFFFFFFFFFFFFFFFFFFFFFFFFFFFFFFFF DUP3 EQ ISZERO PUSH2 0x147 JUMPI PUSH2 0x146 PUSH2 0x152 JUMP JUMPDEST JUMPDEST PUSH1 0x1 DUP3 ADD SWAP1 POP SWAP2 SWAP1 POP JUMP JUMPDEST PUSH32 0x4E487B7100000000000000000000000000000000000000000000000000000000 PUSH1 0x0 MSTORE PUSH1 0x11 PUSH1 0x4 MSTORE PUSH1 0x24 PUSH1 0x0 REVERT INVALID LOG2 PUSH5 0x6970667358 0x22 SLT KECCAK256 0xF8 0xD1 PUSH24 0xDD818585EA7909290DE51F53C4AEDFB7F498408C8AFABBBD 0xC8 OR 0x4D STOP SHL PUSH5 0x736F6C6343 STOP ADDMOD SMOD STOP CALLER "
				},
				"gasEstimates": {
					"creation": {
						"codeDepositCost": "87800",
						"executionCost": "22241",
						"totalCost": "110041"
					},
					"external": {
						"index()": "2407",
						"test11()": "infinite"
					}
				},
				"methodIdentifiers": {
					"index()": "2986c0e5",
					"test11()": "fa8b8ea1"
				}
			},
			"storageLayout": {
				"storage": [
					{
						"astId": 4,
						"contract": "XenFactory(FTM）/test.sol:test",
						"label": "index",
						"offset": 0,
						"slot": "0",
						"type": "t_uint256"
					}
				],
				"types": {
					"t_uint256": {
						"encoding": "inplace",
						"label": "uint256",
						"numberOfBytes": "32"
					}
				}
			},
			"userdoc": {
				"kind": "user",
				"methods": {},
				"version": 1
			}
		}
	}
}