{
	"XenFactory(FTM）/test.sol": {
		"test": {
			"abi": [
				{
					"inputs": [],
					"name": "A",
					"outputs": [],
					"stateMutability": "nonpayable",
					"type": "function"
				},
				{
					"inputs": [],
					"name": "index",
					"outputs": [
						{
							"internalType": "uint256",
							"name": "",
							"type": "uint256"
						}
					],
					"stateMutability": "view",
					"type": "function"
				}
			],
			"devdoc": {
				"kind": "dev",
				"methods": {},
				"version": 1
			},
			"evm": {
				"assembly": "    /* \"XenFactory(FTM\\xef\\xbc\\x89/test.sol\":60:264  contract test{\r... */\n  mstore(0x40, 0x80)\n    /* \"XenFactory(FTM\\xef\\xbc\\x89/test.sol\":103:105  20 */\n  0x14\n    /* \"XenFactory(FTM\\xef\\xbc\\x89/test.sol\":80:105  uint256  public index =20 */\n  0x00\n  sstore\n    /* \"XenFactory(FTM\\xef\\xbc\\x89/test.sol\":60:264  contract test{\r... */\n  callvalue\n  dup1\n  iszero\n  tag_1\n  jumpi\n  0x00\n  dup1\n  revert\ntag_1:\n  pop\n  dataSize(sub_0)\n  dup1\n  dataOffset(sub_0)\n  0x00\n  codecopy\n  0x00\n  return\nstop\n\nsub_0: assembly {\n        /* \"XenFactory(FTM\\xef\\xbc\\x89/test.sol\":60:264  contract test{\r... */\n      mstore(0x40, 0x80)\n      callvalue\n      dup1\n      iszero\n      tag_1\n      jumpi\n      0x00\n      dup1\n      revert\n    tag_1:\n      pop\n      jumpi(tag_2, lt(calldatasize, 0x04))\n      shr(0xe0, calldataload(0x00))\n      dup1\n      0x2986c0e5\n      eq\n      tag_3\n      jumpi\n      dup1\n      0xf446c1d0\n      eq\n      tag_4\n      jumpi\n    tag_2:\n      0x00\n      dup1\n      revert\n        /* \"XenFactory(FTM\\xef\\xbc\\x89/test.sol\":80:105  uint256  public index =20 */\n    tag_3:\n      tag_5\n      tag_6\n      jump\t// in\n    tag_5:\n      mload(0x40)\n      tag_7\n      swap2\n      swap1\n      tag_8\n      jump\t// in\n    tag_7:\n      mload(0x40)\n      dup1\n      swap2\n      sub\n      swap1\n      return\n        /* \"XenFactory(FTM\\xef\\xbc\\x89/test.sol\":116:261  function A() external {\r... */\n    tag_4:\n      tag_9\n      tag_10\n      jump\t// in\n    tag_9:\n      stop\n        /* \"XenFactory(FTM\\xef\\xbc\\x89/test.sol\":80:105  uint256  public index =20 */\n    tag_6:\n      sload(0x00)\n      dup2\n      jump\t// out\n        /* \"XenFactory(FTM\\xef\\xbc\\x89/test.sol\":116:261  function A() external {\r... */\n    tag_10:\n        /* \"XenFactory(FTM\\xef\\xbc\\x89/test.sol\":149:158  uint256 c */\n      0x00\n        /* \"XenFactory(FTM\\xef\\xbc\\x89/test.sol\":161:166  index */\n      dup1\n      sload\n        /* \"XenFactory(FTM\\xef\\xbc\\x89/test.sol\":149:166  uint256 c = index */\n      swap1\n      pop\n        /* \"XenFactory(FTM\\xef\\xbc\\x89/test.sol\":181:187  uint i */\n      0x00\n        /* \"XenFactory(FTM\\xef\\xbc\\x89/test.sol\":177:234  for(uint i = 0 ;i<c;i++){\r... */\n    tag_12:\n        /* \"XenFactory(FTM\\xef\\xbc\\x89/test.sol\":195:196  c */\n      dup2\n        /* \"XenFactory(FTM\\xef\\xbc\\x89/test.sol\":193:194  i */\n      dup2\n        /* \"XenFactory(FTM\\xef\\xbc\\x89/test.sol\":193:196  i<c */\n      lt\n        /* \"XenFactory(FTM\\xef\\xbc\\x89/test.sol\":177:234  for(uint i = 0 ;i<c;i++){\r... */\n      iszero\n      tag_13\n      jumpi\n        /* \"XenFactory(FTM\\xef\\xbc\\x89/test.sol\":221:222  1 */\n      0x01\n        /* \"XenFactory(FTM\\xef\\xbc\\x89/test.sol\":216:222  c  -=1 */\n      dup3\n      tag_15\n      swap2\n      swap1\n      tag_16\n      jump\t// in\n    tag_15:\n      swap2\n      pop\n        /* \"XenFactory(FTM\\xef\\xbc\\x89/test.sol\":197:200  i++ */\n      dup1\n      dup1\n      tag_17\n      swap1\n      tag_18\n      jump\t// in\n    tag_17:\n      swap2\n      pop\n      pop\n        /* \"XenFactory(FTM\\xef\\xbc\\x89/test.sol\":177:234  for(uint i = 0 ;i<c;i++){\r... */\n      jump(tag_12)\n    tag_13:\n      pop\n        /* \"XenFactory(FTM\\xef\\xbc\\x89/test.sol\":252:253  c */\n      dup1\n        /* \"XenFactory(FTM\\xef\\xbc\\x89/test.sol\":244:249  index */\n      0x00\n        /* \"XenFactory(FTM\\xef\\xbc\\x89/test.sol\":244:253  index = c */\n      dup2\n      swap1\n      sstore\n      pop\n        /* \"XenFactory(FTM\\xef\\xbc\\x89/test.sol\":138:261  {\r... */\n      pop\n        /* \"XenFactory(FTM\\xef\\xbc\\x89/test.sol\":116:261  function A() external {\r... */\n      jump\t// out\n        /* \"#utility.yul\":7:125   */\n    tag_20:\n        /* \"#utility.yul\":94:118   */\n      tag_22\n        /* \"#utility.yul\":112:117   */\n      dup2\n        /* \"#utility.yul\":94:118   */\n      tag_23\n      jump\t// in\n    tag_22:\n        /* \"#utility.yul\":89:92   */\n      dup3\n        /* \"#utility.yul\":82:119   */\n      mstore\n        /* \"#utility.yul\":7:125   */\n      pop\n      pop\n      jump\t// out\n        /* \"#utility.yul\":131:353   */\n    tag_8:\n        /* \"#utility.yul\":224:228   */\n      0x00\n        /* \"#utility.yul\":262:264   */\n      0x20\n        /* \"#utility.yul\":251:260   */\n      dup3\n        /* \"#utility.yul\":247:265   */\n      add\n        /* \"#utility.yul\":239:265   */\n      swap1\n      pop\n        /* \"#utility.yul\":275:346   */\n      tag_25\n        /* \"#utility.yul\":343:344   */\n      0x00\n        /* \"#utility.yul\":332:341   */\n      dup4\n        /* \"#utility.yul\":328:345   */\n      add\n        /* \"#utility.yul\":319:325   */\n      dup5\n        /* \"#utility.yul\":275:346   */\n      tag_20\n      jump\t// in\n    tag_25:\n        /* \"#utility.yul\":131:353   */\n      swap3\n      swap2\n      pop\n      pop\n      jump\t// out\n        /* \"#utility.yul\":359:550   */\n    tag_16:\n        /* \"#utility.yul\":399:403   */\n      0x00\n        /* \"#utility.yul\":419:439   */\n      tag_27\n        /* \"#utility.yul\":437:438   */\n      dup3\n        /* \"#utility.yul\":419:439   */\n      tag_23\n      jump\t// in\n    tag_27:\n        /* \"#utility.yul\":414:439   */\n      swap2\n      pop\n        /* \"#utility.yul\":453:473   */\n      tag_28\n        /* \"#utility.yul\":471:472   */\n      dup4\n        /* \"#utility.yul\":453:473   */\n      tag_23\n      jump\t// in\n    tag_28:\n        /* \"#utility.yul\":448:473   */\n      swap3\n      pop\n        /* \"#utility.yul\":492:493   */\n      dup3\n        /* \"#utility.yul\":489:490   */\n      dup3\n        /* \"#utility.yul\":486:494   */\n      lt\n        /* \"#utility.yul\":483:517   */\n      iszero\n      tag_29\n      jumpi\n        /* \"#utility.yul\":497:515   */\n      tag_30\n      tag_31\n      jump\t// in\n    tag_30:\n        /* \"#utility.yul\":483:517   */\n    tag_29:\n        /* \"#utility.yul\":542:543   */\n      dup3\n        /* \"#utility.yul\":539:540   */\n      dup3\n        /* \"#utility.yul\":535:544   */\n      sub\n        /* \"#utility.yul\":527:544   */\n      swap1\n      pop\n        /* \"#utility.yul\":359:550   */\n      swap3\n      swap2\n      pop\n      pop\n      jump\t// out\n        /* \"#utility.yul\":556:633   */\n    tag_23:\n        /* \"#utility.yul\":593:600   */\n      0x00\n        /* \"#utility.yul\":622:627   */\n      dup2\n        /* \"#utility.yul\":611:627   */\n      swap1\n      pop\n        /* \"#utility.yul\":556:633   */\n      swap2\n      swap1\n      pop\n      jump\t// out\n        /* \"#utility.yul\":639:872   */\n    tag_18:\n        /* \"#utility.yul\":678:681   */\n      0x00\n        /* \"#utility.yul\":701:725   */\n      tag_34\n        /* \"#utility.yul\":719:724   */\n      dup3\n        /* \"#utility.yul\":701:725   */\n      tag_23\n      jump\t// in\n    tag_34:\n        /* \"#utility.yul\":692:725   */\n      swap2\n      pop\n        /* \"#utility.yul\":747:813   */\n      0xffffffffffffffffffffffffffffffffffffffffffffffffffffffffffffffff\n        /* \"#utility.yul\":740:745   */\n      dup3\n        /* \"#utility.yul\":737:814   */\n      eq\n        /* \"#utility.yul\":734:837   */\n      iszero\n      tag_35\n      jumpi\n        /* \"#utility.yul\":817:835   */\n      tag_36\n      tag_31\n      jump\t// in\n    tag_36:\n        /* \"#utility.yul\":734:837   */\n    tag_35:\n        /* \"#utility.yul\":864:865   */\n      0x01\n        /* \"#utility.yul\":857:862   */\n      dup3\n        /* \"#utility.yul\":853:866   */\n      add\n        /* \"#utility.yul\":846:866   */\n      swap1\n      pop\n        /* \"#utility.yul\":639:872   */\n      swap2\n      swap1\n      pop\n      jump\t// out\n        /* \"#utility.yul\":878:1058   */\n    tag_31:\n        /* \"#utility.yul\":926:1003   */\n      0x4e487b7100000000000000000000000000000000000000000000000000000000\n        /* \"#utility.yul\":923:924   */\n      0x00\n        /* \"#utility.yul\":916:1004   */\n      mstore\n        /* \"#utility.yul\":1023:1027   */\n      0x11\n        /* \"#utility.yul\":1020:1021   */\n      0x04\n        /* \"#utility.yul\":1013:1028   */\n      mstore\n        /* \"#utility.yul\":1047:1051   */\n      0x24\n        /* \"#utility.yul\":1044:1045   */\n      0x00\n        /* \"#utility.yul\":1037:1052   */\n      revert\n\n    auxdata: 0xa26469706673582212205c1001b0cdf01732e717d45c71530680157742df3b6ee54b4b74cd504ded24dd64736f6c63430008070033\n}\n",
				"bytecode": {
					"linkReferences": {},
					"object": "6080604052601460005534801561001557600080fd5b506101bd806100256000396000f3fe608060405234801561001057600080fd5b50600436106100365760003560e01c80632986c0e51461003b578063f446c1d014610059575b600080fd5b610043610063565b60405161005091906100b6565b60405180910390f35b610061610069565b005b60005481565b60008054905060005b8181101561009c5760018261008791906100d1565b915080806100949061010f565b915050610072565b508060008190555050565b6100b081610105565b82525050565b60006020820190506100cb60008301846100a7565b92915050565b60006100dc82610105565b91506100e783610105565b9250828210156100fa576100f9610158565b5b828203905092915050565b6000819050919050565b600061011a82610105565b91507fffffffffffffffffffffffffffffffffffffffffffffffffffffffffffffffff82141561014d5761014c610158565b5b600182019050919050565b7f4e487b7100000000000000000000000000000000000000000000000000000000600052601160045260246000fdfea26469706673582212205c1001b0cdf01732e717d45c71530680157742df3b6ee54b4b74cd504ded24dd64736f6c63430008070033",
					"opcodes": "PUSH1 0x80 PUSH1 0x40 MSTORE PUSH1 0x14 PUSH1 0x0 SSTORE CALLVALUE DUP1 ISZERO PUSH2 0x15 JUMPI PUSH1 0x0 DUP1 REVERT JUMPDEST POP PUSH2 0x1BD DUP1 PUSH2 0x25 PUSH1 0x0 CODECOPY PUSH1 0x0 RETURN INVALID PUSH1 0x80 PUSH1 0x40 MSTORE CALLVALUE DUP1 ISZERO PUSH2 0x10 JUMPI PUSH1 0x0 DUP1 REVERT JUMPDEST POP PUSH1 0x4 CALLDATASIZE LT PUSH2 0x36 JUMPI PUSH1 0x0 CALLDATALOAD PUSH1 0xE0 SHR DUP1 PUSH4 0x2986C0E5 EQ PUSH2 0x3B JUMPI DUP1 PUSH4 0xF446C1D0 EQ PUSH2 0x59 JUMPI JUMPDEST PUSH1 0x0 DUP1 REVERT JUMPDEST PUSH2 0x43 PUSH2 0x63 JUMP JUMPDEST PUSH1 0x40 MLOAD PUSH2 0x50 SWAP2 SWAP1 PUSH2 0xB6 JUMP JUMPDEST PUSH1 0x40 MLOAD DUP1 SWAP2 SUB SWAP1 RETURN JUMPDEST PUSH2 0x61 PUSH2 0x69 JUMP JUMPDEST STOP JUMPDEST PUSH1 0x0 SLOAD DUP2 JUMP JUMPDEST PUSH1 0x0 DUP1 SLOAD SWAP1 POP PUSH1 0x0 JUMPDEST DUP2 DUP2 LT ISZERO PUSH2 0x9C JUMPI PUSH1 0x1 DUP3 PUSH2 0x87 SWAP2 SWAP1 PUSH2 0xD1 JUMP JUMPDEST SWAP2 POP DUP1 DUP1 PUSH2 0x94 SWAP1 PUSH2 0x10F JUMP JUMPDEST SWAP2 POP POP PUSH2 0x72 JUMP JUMPDEST POP DUP1 PUSH1 0x0 DUP2 SWAP1 SSTORE POP POP JUMP JUMPDEST PUSH2 0xB0 DUP2 PUSH2 0x105 JUMP JUMPDEST DUP3 MSTORE POP POP JUMP JUMPDEST PUSH1 0x0 PUSH1 0x20 DUP3 ADD SWAP1 POP PUSH2 0xCB PUSH1 0x0 DUP4 ADD DUP5 PUSH2 0xA7 JUMP JUMPDEST SWAP3 SWAP2 POP POP JUMP JUMPDEST PUSH1 0x0 PUSH2 0xDC DUP3 PUSH2 0x105 JUMP JUMPDEST SWAP2 POP PUSH2 0xE7 DUP4 PUSH2 0x105 JUMP JUMPDEST SWAP3 POP DUP3 DUP3 LT ISZERO PUSH2 0xFA JUMPI PUSH2 0xF9 PUSH2 0x158 JUMP JUMPDEST JUMPDEST DUP3 DUP3 SUB SWAP1 POP SWAP3 SWAP2 POP POP JUMP JUMPDEST PUSH1 0x0 DUP2 SWAP1 POP SWAP2 SWAP1 POP JUMP JUMPDEST PUSH1 0x0 PUSH2 0x11A DUP3 PUSH2 0x105 JUMP JUMPDEST SWAP2 POP PUSH32 0xFFFFFFFFFFFFFFFFFFFFFFFFFFFFFFFFFFFFFFFFFFFFFFFFFFFFFFFFFFFFFFFF DUP3 EQ ISZERO PUSH2 0x14D JUMPI PUSH2 0x14C PUSH2 0x158 JUMP JUMPDEST JUMPDEST PUSH1 0x1 DUP3 ADD SWAP1 POP SWAP2 SWAP1 POP JUMP JUMPDEST PUSH32 0x4E487B7100000000000000000000000000000000000000000000000000000000 PUSH1 0x0 MSTORE PUSH1 0x11 PUSH1 0x4 MSTORE PUSH1 0x24 PUSH1 0x0 REVERT INVALID LOG2 PUSH5 0x6970667358 0x22 SLT KECCAK256 0x5C LT ADD 0xB0 0xCD CREATE OR ORIGIN 0xE7 OR 0xD4 0x5C PUSH18 0x530680157742DF3B6EE54B4B74CD504DED24 0xDD PUSH5 0x736F6C6343 STOP ADDMOD SMOD STOP CALLER "
				},
				"gasEstimates": {
					"creation": {
						"codeDepositCost": "89000",
						"executionCost": "22241",
						"totalCost": "111241"
					},
					"external": {
						"A()": "infinite",
						"index()": "2407"
					}
				},
				"methodIdentifiers": {
					"A()": "f446c1d0",
					"index()": "2986c0e5"
				}
			},
			"storageLayout": {
				"storage": [
					{
						"astId": 4,
						"contract": "XenFactory(FTM）/test.sol:test",
						"label": "index",
						"offset": 0,
						"slot": "0",
						"type": "t_uint256"
					}
				],
				"types": {
					"t_uint256": {
						"encoding": "inplace",
						"label": "uint256",
						"numberOfBytes": "32"
					}
				}
			},
			"userdoc": {
				"kind": "user",
				"methods": {},
				"version": 1
			}
		}
	}
}