{
	"XenFactory(FTM）/test.sol": {
		"test": {
			"abi": [
				{
					"inputs": [],
					"name": "index",
					"outputs": [
						{
							"internalType": "uint256",
							"name": "",
							"type": "uint256"
						}
					],
					"stateMutability": "view",
					"type": "function"
				},
				{
					"inputs": [],
					"name": "test11",
					"outputs": [],
					"stateMutability": "nonpayable",
					"type": "function"
				},
				{
					"inputs": [],
					"name": "test22",
					"outputs": [],
					"stateMutability": "nonpayable",
					"type": "function"
				}
			],
			"devdoc": {
				"kind": "dev",
				"methods": {},
				"version": 1
			},
			"evm": {
				"assembly": "    /* \"XenFactory(FTM\\xef\\xbc\\x89/test.sol\":60:402  contract test{\r... */\n  mstore(0x40, 0x80)\n  callvalue\n  dup1\n  iszero\n  tag_1\n  jumpi\n  0x00\n  dup1\n  revert\ntag_1:\n  pop\n  dataSize(sub_0)\n  dup1\n  dataOffset(sub_0)\n  0x00\n  codecopy\n  0x00\n  return\nstop\n\nsub_0: assembly {\n        /* \"XenFactory(FTM\\xef\\xbc\\x89/test.sol\":60:402  contract test{\r... */\n      mstore(0x40, 0x80)\n      callvalue\n      dup1\n      iszero\n      tag_1\n      jumpi\n      0x00\n      dup1\n      revert\n    tag_1:\n      pop\n      jumpi(tag_2, lt(calldatasize, 0x04))\n      shr(0xe0, calldataload(0x00))\n      dup1\n      0x2986c0e5\n      eq\n      tag_3\n      jumpi\n      dup1\n      0xa1ca68bd\n      eq\n      tag_4\n      jumpi\n      dup1\n      0xfa8b8ea1\n      eq\n      tag_5\n      jumpi\n    tag_2:\n      0x00\n      dup1\n      revert\n        /* \"XenFactory(FTM\\xef\\xbc\\x89/test.sol\":80:101  uint256  public index */\n    tag_3:\n      tag_6\n      tag_7\n      jump\t// in\n    tag_6:\n      mload(0x40)\n      tag_8\n      swap2\n      swap1\n      tag_9\n      jump\t// in\n    tag_8:\n      mload(0x40)\n      dup1\n      swap2\n      sub\n      swap1\n      return\n        /* \"XenFactory(FTM\\xef\\xbc\\x89/test.sol\":249:399  function test22() external{\r... */\n    tag_4:\n      tag_10\n      tag_11\n      jump\t// in\n    tag_10:\n      stop\n        /* \"XenFactory(FTM\\xef\\xbc\\x89/test.sol\":113:241  function test11() external {\r... */\n    tag_5:\n      tag_12\n      tag_13\n      jump\t// in\n    tag_12:\n      stop\n        /* \"XenFactory(FTM\\xef\\xbc\\x89/test.sol\":80:101  uint256  public index */\n    tag_7:\n      sload(0x00)\n      dup2\n      jump\t// out\n        /* \"XenFactory(FTM\\xef\\xbc\\x89/test.sol\":249:399  function test22() external{\r... */\n    tag_11:\n        /* \"XenFactory(FTM\\xef\\xbc\\x89/test.sol\":286:292  uint c */\n      0x00\n        /* \"XenFactory(FTM\\xef\\xbc\\x89/test.sol\":295:300  index */\n      dup1\n      sload\n        /* \"XenFactory(FTM\\xef\\xbc\\x89/test.sol\":286:300  uint c = index */\n      swap1\n      pop\n        /* \"XenFactory(FTM\\xef\\xbc\\x89/test.sol\":315:321  uint i */\n      0x00\n        /* \"XenFactory(FTM\\xef\\xbc\\x89/test.sol\":311:370  for(uint i = 0 ;i<20;i++){\r... */\n    tag_15:\n        /* \"XenFactory(FTM\\xef\\xbc\\x89/test.sol\":329:331  20 */\n      0x14\n        /* \"XenFactory(FTM\\xef\\xbc\\x89/test.sol\":327:328  i */\n      dup2\n        /* \"XenFactory(FTM\\xef\\xbc\\x89/test.sol\":327:331  i<20 */\n      lt\n        /* \"XenFactory(FTM\\xef\\xbc\\x89/test.sol\":311:370  for(uint i = 0 ;i<20;i++){\r... */\n      iszero\n      tag_16\n      jumpi\n        /* \"XenFactory(FTM\\xef\\xbc\\x89/test.sol\":357:358  1 */\n      0x01\n        /* \"XenFactory(FTM\\xef\\xbc\\x89/test.sol\":355:356  c */\n      dup3\n        /* \"XenFactory(FTM\\xef\\xbc\\x89/test.sol\":355:358  c+1 */\n      tag_18\n      swap2\n      swap1\n      tag_19\n      jump\t// in\n    tag_18:\n        /* \"XenFactory(FTM\\xef\\xbc\\x89/test.sol\":351:358  c = c+1 */\n      swap2\n      pop\n        /* \"XenFactory(FTM\\xef\\xbc\\x89/test.sol\":332:335  i++ */\n      dup1\n      dup1\n      tag_20\n      swap1\n      tag_21\n      jump\t// in\n    tag_20:\n      swap2\n      pop\n      pop\n        /* \"XenFactory(FTM\\xef\\xbc\\x89/test.sol\":311:370  for(uint i = 0 ;i<20;i++){\r... */\n      jump(tag_15)\n    tag_16:\n      pop\n        /* \"XenFactory(FTM\\xef\\xbc\\x89/test.sol\":388:389  c */\n      dup1\n        /* \"XenFactory(FTM\\xef\\xbc\\x89/test.sol\":380:385  index */\n      0x00\n        /* \"XenFactory(FTM\\xef\\xbc\\x89/test.sol\":380:389  index = c */\n      dup2\n      swap1\n      sstore\n      pop\n        /* \"XenFactory(FTM\\xef\\xbc\\x89/test.sol\":275:399  {\r... */\n      pop\n        /* \"XenFactory(FTM\\xef\\xbc\\x89/test.sol\":249:399  function test22() external{\r... */\n      jump\t// out\n        /* \"XenFactory(FTM\\xef\\xbc\\x89/test.sol\":113:241  function test11() external {\r... */\n    tag_13:\n        /* \"XenFactory(FTM\\xef\\xbc\\x89/test.sol\":165:171  uint i */\n      0x00\n        /* \"XenFactory(FTM\\xef\\xbc\\x89/test.sol\":161:232  for(uint i = 0 ;i<=index;i++){\r... */\n    tag_23:\n        /* \"XenFactory(FTM\\xef\\xbc\\x89/test.sol\":180:185  index */\n      sload(0x00)\n        /* \"XenFactory(FTM\\xef\\xbc\\x89/test.sol\":177:178  i */\n      dup2\n        /* \"XenFactory(FTM\\xef\\xbc\\x89/test.sol\":177:185  i<=index */\n      gt\n        /* \"XenFactory(FTM\\xef\\xbc\\x89/test.sol\":161:232  for(uint i = 0 ;i<=index;i++){\r... */\n      tag_24\n      jumpi\n        /* \"XenFactory(FTM\\xef\\xbc\\x89/test.sol\":219:220  1 */\n      0x01\n        /* \"XenFactory(FTM\\xef\\xbc\\x89/test.sol\":213:218  index */\n      sload(0x00)\n        /* \"XenFactory(FTM\\xef\\xbc\\x89/test.sol\":213:220  index-1 */\n      tag_26\n      swap2\n      swap1\n      tag_27\n      jump\t// in\n    tag_26:\n        /* \"XenFactory(FTM\\xef\\xbc\\x89/test.sol\":205:210  index */\n      0x00\n        /* \"XenFactory(FTM\\xef\\xbc\\x89/test.sol\":205:220  index = index-1 */\n      dup2\n      swap1\n      sstore\n      pop\n        /* \"XenFactory(FTM\\xef\\xbc\\x89/test.sol\":186:189  i++ */\n      dup1\n      dup1\n      tag_28\n      swap1\n      tag_21\n      jump\t// in\n    tag_28:\n      swap2\n      pop\n      pop\n        /* \"XenFactory(FTM\\xef\\xbc\\x89/test.sol\":161:232  for(uint i = 0 ;i<=index;i++){\r... */\n      jump(tag_23)\n    tag_24:\n      pop\n        /* \"XenFactory(FTM\\xef\\xbc\\x89/test.sol\":113:241  function test11() external {\r... */\n      jump\t// out\n        /* \"#utility.yul\":7:125   */\n    tag_30:\n        /* \"#utility.yul\":94:118   */\n      tag_32\n        /* \"#utility.yul\":112:117   */\n      dup2\n        /* \"#utility.yul\":94:118   */\n      tag_33\n      jump\t// in\n    tag_32:\n        /* \"#utility.yul\":89:92   */\n      dup3\n        /* \"#utility.yul\":82:119   */\n      mstore\n        /* \"#utility.yul\":7:125   */\n      pop\n      pop\n      jump\t// out\n        /* \"#utility.yul\":131:353   */\n    tag_9:\n        /* \"#utility.yul\":224:228   */\n      0x00\n        /* \"#utility.yul\":262:264   */\n      0x20\n        /* \"#utility.yul\":251:260   */\n      dup3\n        /* \"#utility.yul\":247:265   */\n      add\n        /* \"#utility.yul\":239:265   */\n      swap1\n      pop\n        /* \"#utility.yul\":275:346   */\n      tag_35\n        /* \"#utility.yul\":343:344   */\n      0x00\n        /* \"#utility.yul\":332:341   */\n      dup4\n        /* \"#utility.yul\":328:345   */\n      add\n        /* \"#utility.yul\":319:325   */\n      dup5\n        /* \"#utility.yul\":275:346   */\n      tag_30\n      jump\t// in\n    tag_35:\n        /* \"#utility.yul\":131:353   */\n      swap3\n      swap2\n      pop\n      pop\n      jump\t// out\n        /* \"#utility.yul\":359:664   */\n    tag_19:\n        /* \"#utility.yul\":399:402   */\n      0x00\n        /* \"#utility.yul\":418:438   */\n      tag_37\n        /* \"#utility.yul\":436:437   */\n      dup3\n        /* \"#utility.yul\":418:438   */\n      tag_33\n      jump\t// in\n    tag_37:\n        /* \"#utility.yul\":413:438   */\n      swap2\n      pop\n        /* \"#utility.yul\":452:472   */\n      tag_38\n        /* \"#utility.yul\":470:471   */\n      dup4\n        /* \"#utility.yul\":452:472   */\n      tag_33\n      jump\t// in\n    tag_38:\n        /* \"#utility.yul\":447:472   */\n      swap3\n      pop\n        /* \"#utility.yul\":606:607   */\n      dup3\n        /* \"#utility.yul\":538:604   */\n      0xffffffffffffffffffffffffffffffffffffffffffffffffffffffffffffffff\n        /* \"#utility.yul\":534:608   */\n      sub\n        /* \"#utility.yul\":531:532   */\n      dup3\n        /* \"#utility.yul\":528:609   */\n      gt\n        /* \"#utility.yul\":525:632   */\n      iszero\n      tag_39\n      jumpi\n        /* \"#utility.yul\":612:630   */\n      tag_40\n      tag_41\n      jump\t// in\n    tag_40:\n        /* \"#utility.yul\":525:632   */\n    tag_39:\n        /* \"#utility.yul\":656:657   */\n      dup3\n        /* \"#utility.yul\":653:654   */\n      dup3\n        /* \"#utility.yul\":649:658   */\n      add\n        /* \"#utility.yul\":642:658   */\n      swap1\n      pop\n        /* \"#utility.yul\":359:664   */\n      swap3\n      swap2\n      pop\n      pop\n      jump\t// out\n        /* \"#utility.yul\":670:861   */\n    tag_27:\n        /* \"#utility.yul\":710:714   */\n      0x00\n        /* \"#utility.yul\":730:750   */\n      tag_43\n        /* \"#utility.yul\":748:749   */\n      dup3\n        /* \"#utility.yul\":730:750   */\n      tag_33\n      jump\t// in\n    tag_43:\n        /* \"#utility.yul\":725:750   */\n      swap2\n      pop\n        /* \"#utility.yul\":764:784   */\n      tag_44\n        /* \"#utility.yul\":782:783   */\n      dup4\n        /* \"#utility.yul\":764:784   */\n      tag_33\n      jump\t// in\n    tag_44:\n        /* \"#utility.yul\":759:784   */\n      swap3\n      pop\n        /* \"#utility.yul\":803:804   */\n      dup3\n        /* \"#utility.yul\":800:801   */\n      dup3\n        /* \"#utility.yul\":797:805   */\n      lt\n        /* \"#utility.yul\":794:828   */\n      iszero\n      tag_45\n      jumpi\n        /* \"#utility.yul\":808:826   */\n      tag_46\n      tag_41\n      jump\t// in\n    tag_46:\n        /* \"#utility.yul\":794:828   */\n    tag_45:\n        /* \"#utility.yul\":853:854   */\n      dup3\n        /* \"#utility.yul\":850:851   */\n      dup3\n        /* \"#utility.yul\":846:855   */\n      sub\n        /* \"#utility.yul\":838:855   */\n      swap1\n      pop\n        /* \"#utility.yul\":670:861   */\n      swap3\n      swap2\n      pop\n      pop\n      jump\t// out\n        /* \"#utility.yul\":867:944   */\n    tag_33:\n        /* \"#utility.yul\":904:911   */\n      0x00\n        /* \"#utility.yul\":933:938   */\n      dup2\n        /* \"#utility.yul\":922:938   */\n      swap1\n      pop\n        /* \"#utility.yul\":867:944   */\n      swap2\n      swap1\n      pop\n      jump\t// out\n        /* \"#utility.yul\":950:1183   */\n    tag_21:\n        /* \"#utility.yul\":989:992   */\n      0x00\n        /* \"#utility.yul\":1012:1036   */\n      tag_49\n        /* \"#utility.yul\":1030:1035   */\n      dup3\n        /* \"#utility.yul\":1012:1036   */\n      tag_33\n      jump\t// in\n    tag_49:\n        /* \"#utility.yul\":1003:1036   */\n      swap2\n      pop\n        /* \"#utility.yul\":1058:1124   */\n      0xffffffffffffffffffffffffffffffffffffffffffffffffffffffffffffffff\n        /* \"#utility.yul\":1051:1056   */\n      dup3\n        /* \"#utility.yul\":1048:1125   */\n      eq\n        /* \"#utility.yul\":1045:1148   */\n      iszero\n      tag_50\n      jumpi\n        /* \"#utility.yul\":1128:1146   */\n      tag_51\n      tag_41\n      jump\t// in\n    tag_51:\n        /* \"#utility.yul\":1045:1148   */\n    tag_50:\n        /* \"#utility.yul\":1175:1176   */\n      0x01\n        /* \"#utility.yul\":1168:1173   */\n      dup3\n        /* \"#utility.yul\":1164:1177   */\n      add\n        /* \"#utility.yul\":1157:1177   */\n      swap1\n      pop\n        /* \"#utility.yul\":950:1183   */\n      swap2\n      swap1\n      pop\n      jump\t// out\n        /* \"#utility.yul\":1189:1369   */\n    tag_41:\n        /* \"#utility.yul\":1237:1314   */\n      0x4e487b7100000000000000000000000000000000000000000000000000000000\n        /* \"#utility.yul\":1234:1235   */\n      0x00\n        /* \"#utility.yul\":1227:1315   */\n      mstore\n        /* \"#utility.yul\":1334:1338   */\n      0x11\n        /* \"#utility.yul\":1331:1332   */\n      0x04\n        /* \"#utility.yul\":1324:1339   */\n      mstore\n        /* \"#utility.yul\":1358:1362   */\n      0x24\n        /* \"#utility.yul\":1355:1356   */\n      0x00\n        /* \"#utility.yul\":1348:1363   */\n      revert\n\n    auxdata: 0xa264697066735822122004deb41eeba461dd1a71fc5bb1cd8298e9c295c6f51035ad52fdf7e8539dcb3564736f6c63430008070033\n}\n",
				"bytecode": {
					"linkReferences": {},
					"object": "608060405234801561001057600080fd5b50610260806100206000396000f3fe608060405234801561001057600080fd5b50600436106100415760003560e01c80632986c0e514610046578063a1ca68bd14610064578063fa8b8ea11461006e575b600080fd5b61004e610078565b60405161005b9190610103565b60405180910390f35b61006c61007e565b005b6100766100bd565b005b60005481565b60008054905060005b60148110156100b25760018261009d919061011e565b915080806100aa906101b2565b915050610087565b508060008190555050565b60005b60005481116100f15760016000546100d89190610174565b60008190555080806100e9906101b2565b9150506100c0565b50565b6100fd816101a8565b82525050565b600060208201905061011860008301846100f4565b92915050565b6000610129826101a8565b9150610134836101a8565b9250827fffffffffffffffffffffffffffffffffffffffffffffffffffffffffffffffff03821115610169576101686101fb565b5b828201905092915050565b600061017f826101a8565b915061018a836101a8565b92508282101561019d5761019c6101fb565b5b828203905092915050565b6000819050919050565b60006101bd826101a8565b91507fffffffffffffffffffffffffffffffffffffffffffffffffffffffffffffffff8214156101f0576101ef6101fb565b5b600182019050919050565b7f4e487b7100000000000000000000000000000000000000000000000000000000600052601160045260246000fdfea264697066735822122004deb41eeba461dd1a71fc5bb1cd8298e9c295c6f51035ad52fdf7e8539dcb3564736f6c63430008070033",
					"opcodes": "PUSH1 0x80 PUSH1 0x40 MSTORE CALLVALUE DUP1 ISZERO PUSH2 0x10 JUMPI PUSH1 0x0 DUP1 REVERT JUMPDEST POP PUSH2 0x260 DUP1 PUSH2 0x20 PUSH1 0x0 CODECOPY PUSH1 0x0 RETURN INVALID PUSH1 0x80 PUSH1 0x40 MSTORE CALLVALUE DUP1 ISZERO PUSH2 0x10 JUMPI PUSH1 0x0 DUP1 REVERT JUMPDEST POP PUSH1 0x4 CALLDATASIZE LT PUSH2 0x41 JUMPI PUSH1 0x0 CALLDATALOAD PUSH1 0xE0 SHR DUP1 PUSH4 0x2986C0E5 EQ PUSH2 0x46 JUMPI DUP1 PUSH4 0xA1CA68BD EQ PUSH2 0x64 JUMPI DUP1 PUSH4 0xFA8B8EA1 EQ PUSH2 0x6E JUMPI JUMPDEST PUSH1 0x0 DUP1 REVERT JUMPDEST PUSH2 0x4E PUSH2 0x78 JUMP JUMPDEST PUSH1 0x40 MLOAD PUSH2 0x5B SWAP2 SWAP1 PUSH2 0x103 JUMP JUMPDEST PUSH1 0x40 MLOAD DUP1 SWAP2 SUB SWAP1 RETURN JUMPDEST PUSH2 0x6C PUSH2 0x7E JUMP JUMPDEST STOP JUMPDEST PUSH2 0x76 PUSH2 0xBD JUMP JUMPDEST STOP JUMPDEST PUSH1 0x0 SLOAD DUP2 JUMP JUMPDEST PUSH1 0x0 DUP1 SLOAD SWAP1 POP PUSH1 0x0 JUMPDEST PUSH1 0x14 DUP2 LT ISZERO PUSH2 0xB2 JUMPI PUSH1 0x1 DUP3 PUSH2 0x9D SWAP2 SWAP1 PUSH2 0x11E JUMP JUMPDEST SWAP2 POP DUP1 DUP1 PUSH2 0xAA SWAP1 PUSH2 0x1B2 JUMP JUMPDEST SWAP2 POP POP PUSH2 0x87 JUMP JUMPDEST POP DUP1 PUSH1 0x0 DUP2 SWAP1 SSTORE POP POP JUMP JUMPDEST PUSH1 0x0 JUMPDEST PUSH1 0x0 SLOAD DUP2 GT PUSH2 0xF1 JUMPI PUSH1 0x1 PUSH1 0x0 SLOAD PUSH2 0xD8 SWAP2 SWAP1 PUSH2 0x174 JUMP JUMPDEST PUSH1 0x0 DUP2 SWAP1 SSTORE POP DUP1 DUP1 PUSH2 0xE9 SWAP1 PUSH2 0x1B2 JUMP JUMPDEST SWAP2 POP POP PUSH2 0xC0 JUMP JUMPDEST POP JUMP JUMPDEST PUSH2 0xFD DUP2 PUSH2 0x1A8 JUMP JUMPDEST DUP3 MSTORE POP POP JUMP JUMPDEST PUSH1 0x0 PUSH1 0x20 DUP3 ADD SWAP1 POP PUSH2 0x118 PUSH1 0x0 DUP4 ADD DUP5 PUSH2 0xF4 JUMP JUMPDEST SWAP3 SWAP2 POP POP JUMP JUMPDEST PUSH1 0x0 PUSH2 0x129 DUP3 PUSH2 0x1A8 JUMP JUMPDEST SWAP2 POP PUSH2 0x134 DUP4 PUSH2 0x1A8 JUMP JUMPDEST SWAP3 POP DUP3 PUSH32 0xFFFFFFFFFFFFFFFFFFFFFFFFFFFFFFFFFFFFFFFFFFFFFFFFFFFFFFFFFFFFFFFF SUB DUP3 GT ISZERO PUSH2 0x169 JUMPI PUSH2 0x168 PUSH2 0x1FB JUMP JUMPDEST JUMPDEST DUP3 DUP3 ADD SWAP1 POP SWAP3 SWAP2 POP POP JUMP JUMPDEST PUSH1 0x0 PUSH2 0x17F DUP3 PUSH2 0x1A8 JUMP JUMPDEST SWAP2 POP PUSH2 0x18A DUP4 PUSH2 0x1A8 JUMP JUMPDEST SWAP3 POP DUP3 DUP3 LT ISZERO PUSH2 0x19D JUMPI PUSH2 0x19C PUSH2 0x1FB JUMP JUMPDEST JUMPDEST DUP3 DUP3 SUB SWAP1 POP SWAP3 SWAP2 POP POP JUMP JUMPDEST PUSH1 0x0 DUP2 SWAP1 POP SWAP2 SWAP1 POP JUMP JUMPDEST PUSH1 0x0 PUSH2 0x1BD DUP3 PUSH2 0x1A8 JUMP JUMPDEST SWAP2 POP PUSH32 0xFFFFFFFFFFFFFFFFFFFFFFFFFFFFFFFFFFFFFFFFFFFFFFFFFFFFFFFFFFFFFFFF DUP3 EQ ISZERO PUSH2 0x1F0 JUMPI PUSH2 0x1EF PUSH2 0x1FB JUMP JUMPDEST JUMPDEST PUSH1 0x1 DUP3 ADD SWAP1 POP SWAP2 SWAP1 POP JUMP JUMPDEST PUSH32 0x4E487B7100000000000000000000000000000000000000000000000000000000 PUSH1 0x0 MSTORE PUSH1 0x11 PUSH1 0x4 MSTORE PUSH1 0x24 PUSH1 0x0 REVERT INVALID LOG2 PUSH5 0x6970667358 0x22 SLT KECCAK256 DIV 0xDE 0xB4 0x1E 0xEB LOG4 PUSH2 0xDD1A PUSH18 0xFC5BB1CD8298E9C295C6F51035AD52FDF7E8 MSTORE8 SWAP14 0xCB CALLDATALOAD PUSH5 0x736F6C6343 STOP ADDMOD SMOD STOP CALLER "
				},
				"gasEstimates": {
					"creation": {
						"codeDepositCost": "121600",
						"executionCost": "165",
						"totalCost": "121765"
					},
					"external": {
						"index()": "2407",
						"test11()": "infinite",
						"test22()": "infinite"
					}
				},
				"methodIdentifiers": {
					"index()": "2986c0e5",
					"test11()": "fa8b8ea1",
					"test22()": "a1ca68bd"
				}
			},
			"storageLayout": {
				"storage": [
					{
						"astId": 3,
						"contract": "XenFactory(FTM）/test.sol:test",
						"label": "index",
						"offset": 0,
						"slot": "0",
						"type": "t_uint256"
					}
				],
				"types": {
					"t_uint256": {
						"encoding": "inplace",
						"label": "uint256",
						"numberOfBytes": "32"
					}
				}
			},
			"userdoc": {
				"kind": "user",
				"methods": {},
				"version": 1
			}
		}
	}
}