{
	"XenFactory(FTM）/test.sol": {
		"test": {
			"abi": [
				{
					"inputs": [],
					"name": "index",
					"outputs": [
						{
							"internalType": "uint256",
							"name": "",
							"type": "uint256"
						}
					],
					"stateMutability": "view",
					"type": "function"
				},
				{
					"inputs": [],
					"name": "test11",
					"outputs": [
						{
							"internalType": "uint256",
							"name": "",
							"type": "uint256"
						}
					],
					"stateMutability": "nonpayable",
					"type": "function"
				}
			],
			"devdoc": {
				"kind": "dev",
				"methods": {},
				"version": 1
			},
			"evm": {
				"assembly": "    /* \"XenFactory(FTM\\xef\\xbc\\x89/test.sol\":60:291  contract test{\r... */\n  mstore(0x40, 0x80)\n  callvalue\n  dup1\n  iszero\n  tag_1\n  jumpi\n  0x00\n  dup1\n  revert\ntag_1:\n  pop\n  dataSize(sub_0)\n  dup1\n  dataOffset(sub_0)\n  0x00\n  codecopy\n  0x00\n  return\nstop\n\nsub_0: assembly {\n        /* \"XenFactory(FTM\\xef\\xbc\\x89/test.sol\":60:291  contract test{\r... */\n      mstore(0x40, 0x80)\n      callvalue\n      dup1\n      iszero\n      tag_1\n      jumpi\n      0x00\n      dup1\n      revert\n    tag_1:\n      pop\n      jumpi(tag_2, lt(calldatasize, 0x04))\n      shr(0xe0, calldataload(0x00))\n      dup1\n      0x2986c0e5\n      eq\n      tag_3\n      jumpi\n      dup1\n      0xfa8b8ea1\n      eq\n      tag_4\n      jumpi\n    tag_2:\n      0x00\n      dup1\n      revert\n        /* \"XenFactory(FTM\\xef\\xbc\\x89/test.sol\":80:101  uint256  public index */\n    tag_3:\n      tag_5\n      tag_6\n      jump\t// in\n    tag_5:\n      mload(0x40)\n      tag_7\n      swap2\n      swap1\n      tag_8\n      jump\t// in\n    tag_7:\n      mload(0x40)\n      dup1\n      swap2\n      sub\n      swap1\n      return\n        /* \"XenFactory(FTM\\xef\\xbc\\x89/test.sol\":113:288  function test11() external returns(uint) {\r... */\n    tag_4:\n      tag_9\n      tag_10\n      jump\t// in\n    tag_9:\n      mload(0x40)\n      tag_11\n      swap2\n      swap1\n      tag_8\n      jump\t// in\n    tag_11:\n      mload(0x40)\n      dup1\n      swap2\n      sub\n      swap1\n      return\n        /* \"XenFactory(FTM\\xef\\xbc\\x89/test.sol\":80:101  uint256  public index */\n    tag_6:\n      sload(0x00)\n      dup2\n      jump\t// out\n        /* \"XenFactory(FTM\\xef\\xbc\\x89/test.sol\":113:288  function test11() external returns(uint) {\r... */\n    tag_10:\n        /* \"XenFactory(FTM\\xef\\xbc\\x89/test.sol\":148:152  uint */\n      0x00\n        /* \"XenFactory(FTM\\xef\\xbc\\x89/test.sol\":165:174  uint256 c */\n      dup1\n        /* \"XenFactory(FTM\\xef\\xbc\\x89/test.sol\":177:182  index */\n      sload(0x00)\n        /* \"XenFactory(FTM\\xef\\xbc\\x89/test.sol\":165:182  uint256 c = index */\n      swap1\n      pop\n        /* \"XenFactory(FTM\\xef\\xbc\\x89/test.sol\":197:203  uint i */\n      0x00\n        /* \"XenFactory(FTM\\xef\\xbc\\x89/test.sol\":193:252  for(uint i = 0 ;i<20;i++){\r... */\n    tag_13:\n        /* \"XenFactory(FTM\\xef\\xbc\\x89/test.sol\":211:213  20 */\n      0x14\n        /* \"XenFactory(FTM\\xef\\xbc\\x89/test.sol\":209:210  i */\n      dup2\n        /* \"XenFactory(FTM\\xef\\xbc\\x89/test.sol\":209:213  i<20 */\n      lt\n        /* \"XenFactory(FTM\\xef\\xbc\\x89/test.sol\":193:252  for(uint i = 0 ;i<20;i++){\r... */\n      iszero\n      tag_14\n      jumpi\n        /* \"XenFactory(FTM\\xef\\xbc\\x89/test.sol\":239:240  1 */\n      0x01\n        /* \"XenFactory(FTM\\xef\\xbc\\x89/test.sol\":237:238  c */\n      dup3\n        /* \"XenFactory(FTM\\xef\\xbc\\x89/test.sol\":237:240  c+1 */\n      tag_16\n      swap2\n      swap1\n      tag_17\n      jump\t// in\n    tag_16:\n        /* \"XenFactory(FTM\\xef\\xbc\\x89/test.sol\":233:240  c = c+1 */\n      swap2\n      pop\n        /* \"XenFactory(FTM\\xef\\xbc\\x89/test.sol\":214:217  i++ */\n      dup1\n      dup1\n      tag_18\n      swap1\n      tag_19\n      jump\t// in\n    tag_18:\n      swap2\n      pop\n      pop\n        /* \"XenFactory(FTM\\xef\\xbc\\x89/test.sol\":193:252  for(uint i = 0 ;i<20;i++){\r... */\n      jump(tag_13)\n    tag_14:\n      pop\n        /* \"XenFactory(FTM\\xef\\xbc\\x89/test.sol\":277:278  c */\n      dup1\n        /* \"XenFactory(FTM\\xef\\xbc\\x89/test.sol\":269:274  index */\n      0x00\n        /* \"XenFactory(FTM\\xef\\xbc\\x89/test.sol\":269:278  index = c */\n      dup2\n      swap1\n      sstore\n        /* \"XenFactory(FTM\\xef\\xbc\\x89/test.sol\":262:278  return index = c */\n      swap2\n      pop\n      pop\n        /* \"XenFactory(FTM\\xef\\xbc\\x89/test.sol\":113:288  function test11() external returns(uint) {\r... */\n      swap1\n      jump\t// out\n        /* \"#utility.yul\":7:125   */\n    tag_21:\n        /* \"#utility.yul\":94:118   */\n      tag_23\n        /* \"#utility.yul\":112:117   */\n      dup2\n        /* \"#utility.yul\":94:118   */\n      tag_24\n      jump\t// in\n    tag_23:\n        /* \"#utility.yul\":89:92   */\n      dup3\n        /* \"#utility.yul\":82:119   */\n      mstore\n        /* \"#utility.yul\":7:125   */\n      pop\n      pop\n      jump\t// out\n        /* \"#utility.yul\":131:353   */\n    tag_8:\n        /* \"#utility.yul\":224:228   */\n      0x00\n        /* \"#utility.yul\":262:264   */\n      0x20\n        /* \"#utility.yul\":251:260   */\n      dup3\n        /* \"#utility.yul\":247:265   */\n      add\n        /* \"#utility.yul\":239:265   */\n      swap1\n      pop\n        /* \"#utility.yul\":275:346   */\n      tag_26\n        /* \"#utility.yul\":343:344   */\n      0x00\n        /* \"#utility.yul\":332:341   */\n      dup4\n        /* \"#utility.yul\":328:345   */\n      add\n        /* \"#utility.yul\":319:325   */\n      dup5\n        /* \"#utility.yul\":275:346   */\n      tag_21\n      jump\t// in\n    tag_26:\n        /* \"#utility.yul\":131:353   */\n      swap3\n      swap2\n      pop\n      pop\n      jump\t// out\n        /* \"#utility.yul\":359:664   */\n    tag_17:\n        /* \"#utility.yul\":399:402   */\n      0x00\n        /* \"#utility.yul\":418:438   */\n      tag_28\n        /* \"#utility.yul\":436:437   */\n      dup3\n        /* \"#utility.yul\":418:438   */\n      tag_24\n      jump\t// in\n    tag_28:\n        /* \"#utility.yul\":413:438   */\n      swap2\n      pop\n        /* \"#utility.yul\":452:472   */\n      tag_29\n        /* \"#utility.yul\":470:471   */\n      dup4\n        /* \"#utility.yul\":452:472   */\n      tag_24\n      jump\t// in\n    tag_29:\n        /* \"#utility.yul\":447:472   */\n      swap3\n      pop\n        /* \"#utility.yul\":606:607   */\n      dup3\n        /* \"#utility.yul\":538:604   */\n      0xffffffffffffffffffffffffffffffffffffffffffffffffffffffffffffffff\n        /* \"#utility.yul\":534:608   */\n      sub\n        /* \"#utility.yul\":531:532   */\n      dup3\n        /* \"#utility.yul\":528:609   */\n      gt\n        /* \"#utility.yul\":525:632   */\n      iszero\n      tag_30\n      jumpi\n        /* \"#utility.yul\":612:630   */\n      tag_31\n      tag_32\n      jump\t// in\n    tag_31:\n        /* \"#utility.yul\":525:632   */\n    tag_30:\n        /* \"#utility.yul\":656:657   */\n      dup3\n        /* \"#utility.yul\":653:654   */\n      dup3\n        /* \"#utility.yul\":649:658   */\n      add\n        /* \"#utility.yul\":642:658   */\n      swap1\n      pop\n        /* \"#utility.yul\":359:664   */\n      swap3\n      swap2\n      pop\n      pop\n      jump\t// out\n        /* \"#utility.yul\":670:747   */\n    tag_24:\n        /* \"#utility.yul\":707:714   */\n      0x00\n        /* \"#utility.yul\":736:741   */\n      dup2\n        /* \"#utility.yul\":725:741   */\n      swap1\n      pop\n        /* \"#utility.yul\":670:747   */\n      swap2\n      swap1\n      pop\n      jump\t// out\n        /* \"#utility.yul\":753:986   */\n    tag_19:\n        /* \"#utility.yul\":792:795   */\n      0x00\n        /* \"#utility.yul\":815:839   */\n      tag_35\n        /* \"#utility.yul\":833:838   */\n      dup3\n        /* \"#utility.yul\":815:839   */\n      tag_24\n      jump\t// in\n    tag_35:\n        /* \"#utility.yul\":806:839   */\n      swap2\n      pop\n        /* \"#utility.yul\":861:927   */\n      0xffffffffffffffffffffffffffffffffffffffffffffffffffffffffffffffff\n        /* \"#utility.yul\":854:859   */\n      dup3\n        /* \"#utility.yul\":851:928   */\n      eq\n        /* \"#utility.yul\":848:951   */\n      iszero\n      tag_36\n      jumpi\n        /* \"#utility.yul\":931:949   */\n      tag_37\n      tag_32\n      jump\t// in\n    tag_37:\n        /* \"#utility.yul\":848:951   */\n    tag_36:\n        /* \"#utility.yul\":978:979   */\n      0x01\n        /* \"#utility.yul\":971:976   */\n      dup3\n        /* \"#utility.yul\":967:980   */\n      add\n        /* \"#utility.yul\":960:980   */\n      swap1\n      pop\n        /* \"#utility.yul\":753:986   */\n      swap2\n      swap1\n      pop\n      jump\t// out\n        /* \"#utility.yul\":992:1172   */\n    tag_32:\n        /* \"#utility.yul\":1040:1117   */\n      0x4e487b7100000000000000000000000000000000000000000000000000000000\n        /* \"#utility.yul\":1037:1038   */\n      0x00\n        /* \"#utility.yul\":1030:1118   */\n      mstore\n        /* \"#utility.yul\":1137:1141   */\n      0x11\n        /* \"#utility.yul\":1134:1135   */\n      0x04\n        /* \"#utility.yul\":1127:1142   */\n      mstore\n        /* \"#utility.yul\":1161:1165   */\n      0x24\n        /* \"#utility.yul\":1158:1159   */\n      0x00\n        /* \"#utility.yul\":1151:1166   */\n      revert\n\n    auxdata: 0xa26469706673582212206804add07e822139dad6fd8140b55e51691df191b2be33cd2826ba8f5489695264736f6c63430008070033\n}\n",
				"bytecode": {
					"linkReferences": {},
					"object": "608060405234801561001057600080fd5b506101f8806100206000396000f3fe608060405234801561001057600080fd5b50600436106100365760003560e01c80632986c0e51461003b578063fa8b8ea114610059575b600080fd5b610043610077565b60405161005091906100cf565b60405180910390f35b61006161007d565b60405161006e91906100cf565b60405180910390f35b60005481565b600080600054905060005b60148110156100b35760018261009e91906100ea565b915080806100ab9061014a565b915050610088565b5080600081905591505090565b6100c981610140565b82525050565b60006020820190506100e460008301846100c0565b92915050565b60006100f582610140565b915061010083610140565b9250827fffffffffffffffffffffffffffffffffffffffffffffffffffffffffffffffff0382111561013557610134610193565b5b828201905092915050565b6000819050919050565b600061015582610140565b91507fffffffffffffffffffffffffffffffffffffffffffffffffffffffffffffffff82141561018857610187610193565b5b600182019050919050565b7f4e487b7100000000000000000000000000000000000000000000000000000000600052601160045260246000fdfea26469706673582212206804add07e822139dad6fd8140b55e51691df191b2be33cd2826ba8f5489695264736f6c63430008070033",
					"opcodes": "PUSH1 0x80 PUSH1 0x40 MSTORE CALLVALUE DUP1 ISZERO PUSH2 0x10 JUMPI PUSH1 0x0 DUP1 REVERT JUMPDEST POP PUSH2 0x1F8 DUP1 PUSH2 0x20 PUSH1 0x0 CODECOPY PUSH1 0x0 RETURN INVALID PUSH1 0x80 PUSH1 0x40 MSTORE CALLVALUE DUP1 ISZERO PUSH2 0x10 JUMPI PUSH1 0x0 DUP1 REVERT JUMPDEST POP PUSH1 0x4 CALLDATASIZE LT PUSH2 0x36 JUMPI PUSH1 0x0 CALLDATALOAD PUSH1 0xE0 SHR DUP1 PUSH4 0x2986C0E5 EQ PUSH2 0x3B JUMPI DUP1 PUSH4 0xFA8B8EA1 EQ PUSH2 0x59 JUMPI JUMPDEST PUSH1 0x0 DUP1 REVERT JUMPDEST PUSH2 0x43 PUSH2 0x77 JUMP JUMPDEST PUSH1 0x40 MLOAD PUSH2 0x50 SWAP2 SWAP1 PUSH2 0xCF JUMP JUMPDEST PUSH1 0x40 MLOAD DUP1 SWAP2 SUB SWAP1 RETURN JUMPDEST PUSH2 0x61 PUSH2 0x7D JUMP JUMPDEST PUSH1 0x40 MLOAD PUSH2 0x6E SWAP2 SWAP1 PUSH2 0xCF JUMP JUMPDEST PUSH1 0x40 MLOAD DUP1 SWAP2 SUB SWAP1 RETURN JUMPDEST PUSH1 0x0 SLOAD DUP2 JUMP JUMPDEST PUSH1 0x0 DUP1 PUSH1 0x0 SLOAD SWAP1 POP PUSH1 0x0 JUMPDEST PUSH1 0x14 DUP2 LT ISZERO PUSH2 0xB3 JUMPI PUSH1 0x1 DUP3 PUSH2 0x9E SWAP2 SWAP1 PUSH2 0xEA JUMP JUMPDEST SWAP2 POP DUP1 DUP1 PUSH2 0xAB SWAP1 PUSH2 0x14A JUMP JUMPDEST SWAP2 POP POP PUSH2 0x88 JUMP JUMPDEST POP DUP1 PUSH1 0x0 DUP2 SWAP1 SSTORE SWAP2 POP POP SWAP1 JUMP JUMPDEST PUSH2 0xC9 DUP2 PUSH2 0x140 JUMP JUMPDEST DUP3 MSTORE POP POP JUMP JUMPDEST PUSH1 0x0 PUSH1 0x20 DUP3 ADD SWAP1 POP PUSH2 0xE4 PUSH1 0x0 DUP4 ADD DUP5 PUSH2 0xC0 JUMP JUMPDEST SWAP3 SWAP2 POP POP JUMP JUMPDEST PUSH1 0x0 PUSH2 0xF5 DUP3 PUSH2 0x140 JUMP JUMPDEST SWAP2 POP PUSH2 0x100 DUP4 PUSH2 0x140 JUMP JUMPDEST SWAP3 POP DUP3 PUSH32 0xFFFFFFFFFFFFFFFFFFFFFFFFFFFFFFFFFFFFFFFFFFFFFFFFFFFFFFFFFFFFFFFF SUB DUP3 GT ISZERO PUSH2 0x135 JUMPI PUSH2 0x134 PUSH2 0x193 JUMP JUMPDEST JUMPDEST DUP3 DUP3 ADD SWAP1 POP SWAP3 SWAP2 POP POP JUMP JUMPDEST PUSH1 0x0 DUP2 SWAP1 POP SWAP2 SWAP1 POP JUMP JUMPDEST PUSH1 0x0 PUSH2 0x155 DUP3 PUSH2 0x140 JUMP JUMPDEST SWAP2 POP PUSH32 0xFFFFFFFFFFFFFFFFFFFFFFFFFFFFFFFFFFFFFFFFFFFFFFFFFFFFFFFFFFFFFFFF DUP3 EQ ISZERO PUSH2 0x188 JUMPI PUSH2 0x187 PUSH2 0x193 JUMP JUMPDEST JUMPDEST PUSH1 0x1 DUP3 ADD SWAP1 POP SWAP2 SWAP1 POP JUMP JUMPDEST PUSH32 0x4E487B7100000000000000000000000000000000000000000000000000000000 PUSH1 0x0 MSTORE PUSH1 0x11 PUSH1 0x4 MSTORE PUSH1 0x24 PUSH1 0x0 REVERT INVALID LOG2 PUSH5 0x6970667358 0x22 SLT KECCAK256 PUSH9 0x4ADD07E822139DAD6 REVERT DUP2 BLOCKHASH 0xB5 0x5E MLOAD PUSH10 0x1DF191B2BE33CD2826BA DUP16 SLOAD DUP10 PUSH10 0x5264736F6C6343000807 STOP CALLER "
				},
				"gasEstimates": {
					"creation": {
						"codeDepositCost": "100800",
						"executionCost": "147",
						"totalCost": "100947"
					},
					"external": {
						"index()": "2407",
						"test11()": "infinite"
					}
				},
				"methodIdentifiers": {
					"index()": "2986c0e5",
					"test11()": "fa8b8ea1"
				}
			},
			"storageLayout": {
				"storage": [
					{
						"astId": 3,
						"contract": "XenFactory(FTM）/test.sol:test",
						"label": "index",
						"offset": 0,
						"slot": "0",
						"type": "t_uint256"
					}
				],
				"types": {
					"t_uint256": {
						"encoding": "inplace",
						"label": "uint256",
						"numberOfBytes": "32"
					}
				}
			},
			"userdoc": {
				"kind": "user",
				"methods": {},
				"version": 1
			}
		}
	}
}